{
  "src/extensions/passkeys/Passkeys.sol": {
    "Passkeys": {
      "abi": [
        {
          "inputs": [
            {
              "components": [
                {
                  "internalType": "bytes",
                  "name": "authenticatorData",
                  "type": "bytes"
                },
                {
                  "internalType": "string",
                  "name": "clientDataJSON",
                  "type": "string"
                },
                {
                  "internalType": "uint256",
                  "name": "challengeIndex",
                  "type": "uint256"
                },
                {
                  "internalType": "uint256",
                  "name": "typeIndex",
                  "type": "uint256"
                },
                {
                  "internalType": "bytes32",
                  "name": "r",
                  "type": "bytes32"
                },
                {
                  "internalType": "bytes32",
                  "name": "s",
                  "type": "bytes32"
                }
              ],
              "internalType": "struct WebAuthn.WebAuthnAuth",
              "name": "_webAuthnAuth",
              "type": "tuple"
            },
            {
              "internalType": "bool",
              "name": "_requireUserVerification",
              "type": "bool"
            },
            {
              "internalType": "bytes32",
              "name": "_x",
              "type": "bytes32"
            },
            {
              "internalType": "bytes32",
              "name": "_y",
              "type": "bytes32"
            }
          ],
          "name": "InvalidPasskeySignature",
          "type": "error"
        },
        {
          "inputs": [
            {
              "internalType": "bytes32",
              "name": "_digest",
              "type": "bytes32"
            },
            {
              "internalType": "bytes",
              "name": "_signature",
              "type": "bytes"
            }
          ],
          "name": "recoverSapientSignatureCompact",
          "outputs": [
            {
              "internalType": "bytes32",
              "name": "",
              "type": "bytes32"
            }
          ],
          "stateMutability": "view",
          "type": "function"
        }
      ],
      "devdoc": {
        "author": "Agustin Aguilar, Michael Standen",
        "kind": "dev",
        "methods": {
          "recoverSapientSignatureCompact(bytes32,bytes)": {
            "params": {
              "digest": "The digest of the payload",
              "signature": "The signature to recover the image hash from"
            },
            "returns": {
              "_0": "The recovered image hash"
            }
          }
        },
        "title": "Passkeys",
        "version": 1
      },
      "evm": {
        "bytecode": {
          "linkReferences": {},
          "object": "6080604052348015600e575f5ffd5b50610f108061001c5f395ff3fe608060405234801561000f575f5ffd5b5060043610610029575f3560e01c8063898bd9211461002d575b5f5ffd5b61004760048036038101906100429190610848565b61005d565b60405161005491906108b4565b60405180910390f35b5f5f5f5f5f5f61006d8888610104565b945094509450945094506100a38960405160200161008b91906108ed565b6040516020818303038152906040528587868661040e565b6100ea57848484846040517f12a693e60000000000000000000000000000000000000000000000000000000081526004016100e19493929190610a97565b60405180910390fd5b6100f684848484610547565b955050505050509392505050565b61010c610771565b5f5f5f5f5f87875f81811061012457610123610ae1565b5b9050013560f81c60f81b90505f60f81b602060f81b82167effffffffffffffffffffffffffffffffffffffffffffffffffffffffffffff1916036103ce575f60f81b600160f81b82167effffffffffffffffffffffffffffffffffffffffffffffffffffffffffffff1916141594505f600180600260f81b841660f81c60ff16901c0160ff1690505f60016002600460f81b851660f81c60ff16901c0160ff1690505f60016003600860f81b861660f81c60ff16901c0160ff1690505f60016004601060f81b871660f81c60ff16901c0160ff1690505f600190505f60f81b604060f81b87167effffffffffffffffffffffffffffffffffffffffffffffffffffffffffffff1916146102455761023c8d8d8361057d565b80925081985050505b5f6102528e8e8489610593565b80935081925050505f81830190508e8e8490839261027293929190610b16565b8080601f0160208091040260200160405190810160405280939291908181526020018383808284375f81840152601f19601f820116905080830192505050505050508d5f018190525080925050505f6102cd8e8e8488610593565b80935081925050505f81830190508e8e849083926102ed93929190610b16565b8080601f0160208091040260200160405190810160405280939291908181526020018383808284375f81840152601f19601f820116905080830192505050505050508d6020018190525080925050506103488d8d8386610593565b8c6040018193508281525050506103618d8d8385610593565b8c6060018193508281525050506103798d8d8361057d565b8c6080018193508281525050506103918d8d8361057d565b8c60a0018193508281525050506103a98d8d8361057d565b809250819a5050506103bc8d8d8361057d565b80925081995050505050505050610403565b878760019080926103e193929190610b16565b8101906103ee9190610e47565b809650819750829850839950849a5050505050505b509295509295909350565b5f5f5f61041d886001806105c0565b90506020860151805160208201604089015160608a01518551600d81017f226368616c6c656e6765223a220000000000000000000000000000000000000060981c8852858482011060228286880101515f1a14168160138a01208286880120141686846014011085851760801c107f2274797065223a22776562617574686e2e67657422000000000000000000000060581c8588015160581c1416169950818852505050508851518a151560021b600117808160218d510151161460208311891616975087156105195760208b510182810180516020600160208701856020868c8c60025afa60011b5afa5199508082523d61051557fe5b5050505b5050505050821561053c576105398287608001518860a0015188886106ca565b92505b505095945050505050565b5f5f610553858561075d565b90505f8690505f610564828661075d565b9050610570838261075d565b9350505050949350505050565b5f5f848301359150602083019050935093915050565b5f5f858401356008840261010003600180866008021b0382821c1693508486019250505094509492505050565b6060835180156106c2576003600282010460021b60405192507f4142434445464748494a4b4c4d4e4f505152535455565758595a616263646566601f526106708515027f6768696a6b6c6d6e6f707172737475767778797a303132333435363738392d5f18603f526020830181810183886020010180515f82525b60011561068f5760038a0199508951603f8160121c16515f53603f81600c1c1651600153603f8160061c1651600253603f8116516003535f518552600485019450838510610689575061068f565b5061063b565b8082526020830160405260038606600204613d3d60f01b81860352808915150290505f8186035280860388525050505050505b509392505050565b5f6040518681528560208201528460408201528360608201528260808201525f5f5260205f60a0836101005afa503d6107285760203d60a0836dd01ea45f9efd5c54f037fa57ea1a5afa503d6107275763d0d5039b3d526004601cfd5b5b5f516001147f7fffffff800000007fffffffffffffffde737d56d38bcf4279dce5617e3192a886111091505095945050505050565b5f825f528160205260405f20905092915050565b6040518060c0016040528060608152602001606081526020015f81526020015f81526020015f81526020015f81525090565b5f604051905090565b5f5ffd5b5f5ffd5b5f819050919050565b6107c6816107b4565b81146107d0575f5ffd5b50565b5f813590506107e1816107bd565b92915050565b5f5ffd5b5f5ffd5b5f5ffd5b5f5f83601f840112610808576108076107e7565b5b8235905067ffffffffffffffff811115610825576108246107eb565b5b602083019150836001820283011115610841576108406107ef565b5b9250929050565b5f5f5f6040848603121561085f5761085e6107ac565b5b5f61086c868287016107d3565b935050602084013567ffffffffffffffff81111561088d5761088c6107b0565b5b610899868287016107f3565b92509250509250925092565b6108ae816107b4565b82525050565b5f6020820190506108c75f8301846108a5565b92915050565b5f819050919050565b6108e76108e2826107b4565b6108cd565b82525050565b5f6108f882846108d6565b60208201915081905092915050565b5f81519050919050565b5f82825260208201905092915050565b8281835e5f83830152505050565b5f601f19601f8301169050919050565b5f61094982610907565b6109538185610911565b9350610963818560208601610921565b61096c8161092f565b840191505092915050565b5f81519050919050565b5f82825260208201905092915050565b5f61099b82610977565b6109a58185610981565b93506109b5818560208601610921565b6109be8161092f565b840191505092915050565b5f819050919050565b6109db816109c9565b82525050565b6109ea816107b4565b82525050565b5f60c083015f8301518482035f860152610a0a828261093f565b91505060208301518482036020860152610a248282610991565b9150506040830151610a3960408601826109d2565b506060830151610a4c60608601826109d2565b506080830151610a5f60808601826109e1565b5060a0830151610a7260a08601826109e1565b508091505092915050565b5f8115159050919050565b610a9181610a7d565b82525050565b5f6080820190508181035f830152610aaf81876109f0565b9050610abe6020830186610a88565b610acb60408301856108a5565b610ad860608301846108a5565b95945050505050565b7f4e487b71000000000000000000000000000000000000000000000000000000005f52603260045260245ffd5b5f5ffd5b5f5ffd5b5f5f85851115610b2957610b28610b0e565b5b83861115610b3a57610b39610b12565b5b6001850283019150848603905094509492505050565b5f5ffd5b7f4e487b71000000000000000000000000000000000000000000000000000000005f52604160045260245ffd5b610b8a8261092f565b810181811067ffffffffffffffff82111715610ba957610ba8610b54565b5b80604052505050565b5f610bbb6107a3565b9050610bc78282610b81565b919050565b5f5ffd5b5f5ffd5b5f67ffffffffffffffff821115610bee57610bed610b54565b5b610bf78261092f565b9050602081019050919050565b828183375f83830152505050565b5f610c24610c1f84610bd4565b610bb2565b905082815260208101848484011115610c4057610c3f610bd0565b5b610c4b848285610c04565b509392505050565b5f82601f830112610c6757610c666107e7565b5b8135610c77848260208601610c12565b91505092915050565b5f67ffffffffffffffff821115610c9a57610c99610b54565b5b610ca38261092f565b9050602081019050919050565b5f610cc2610cbd84610c80565b610bb2565b905082815260208101848484011115610cde57610cdd610bd0565b5b610ce9848285610c04565b509392505050565b5f82601f830112610d0557610d046107e7565b5b8135610d15848260208601610cb0565b91505092915050565b610d27816109c9565b8114610d31575f5ffd5b50565b5f81359050610d4281610d1e565b92915050565b5f60c08284031215610d5d57610d5c610b50565b5b610d6760c0610bb2565b90505f82013567ffffffffffffffff811115610d8657610d85610bcc565b5b610d9284828501610c53565b5f83015250602082013567ffffffffffffffff811115610db557610db4610bcc565b5b610dc184828501610cf1565b6020830152506040610dd584828501610d34565b6040830152506060610de984828501610d34565b6060830152506080610dfd848285016107d3565b60808301525060a0610e11848285016107d3565b60a08301525092915050565b610e2681610a7d565b8114610e30575f5ffd5b50565b5f81359050610e4181610e1d565b92915050565b5f5f5f5f5f60a08688031215610e6057610e5f6107ac565b5b5f86013567ffffffffffffffff811115610e7d57610e7c6107b0565b5b610e8988828901610d48565b9550506020610e9a88828901610e33565b9450506040610eab888289016107d3565b9350506060610ebc888289016107d3565b9250506080610ecd888289016107d3565b915050929550929590935056fea2646970667358221220716353586991ec7ed1e9243826837893c70650f93ce4c48efe60ed840f19b42b64736f6c634300081c0033",
          "opcodes": "PUSH1 0x80 PUSH1 0x40 MSTORE CALLVALUE DUP1 ISZERO PUSH1 0xE JUMPI PUSH0 PUSH0 REVERT JUMPDEST POP PUSH2 0xF10 DUP1 PUSH2 0x1C PUSH0 CODECOPY PUSH0 RETURN INVALID PUSH1 0x80 PUSH1 0x40 MSTORE CALLVALUE DUP1 ISZERO PUSH2 0xF JUMPI PUSH0 PUSH0 REVERT JUMPDEST POP PUSH1 0x4 CALLDATASIZE LT PUSH2 0x29 JUMPI PUSH0 CALLDATALOAD PUSH1 0xE0 SHR DUP1 PUSH4 0x898BD921 EQ PUSH2 0x2D JUMPI JUMPDEST PUSH0 PUSH0 REVERT JUMPDEST PUSH2 0x47 PUSH1 0x4 DUP1 CALLDATASIZE SUB DUP2 ADD SWAP1 PUSH2 0x42 SWAP2 SWAP1 PUSH2 0x848 JUMP JUMPDEST PUSH2 0x5D JUMP JUMPDEST PUSH1 0x40 MLOAD PUSH2 0x54 SWAP2 SWAP1 PUSH2 0x8B4 JUMP JUMPDEST PUSH1 0x40 MLOAD DUP1 SWAP2 SUB SWAP1 RETURN JUMPDEST PUSH0 PUSH0 PUSH0 PUSH0 PUSH0 PUSH0 PUSH2 0x6D DUP9 DUP9 PUSH2 0x104 JUMP JUMPDEST SWAP5 POP SWAP5 POP SWAP5 POP SWAP5 POP SWAP5 POP PUSH2 0xA3 DUP10 PUSH1 0x40 MLOAD PUSH1 0x20 ADD PUSH2 0x8B SWAP2 SWAP1 PUSH2 0x8ED JUMP JUMPDEST PUSH1 0x40 MLOAD PUSH1 0x20 DUP2 DUP4 SUB SUB DUP2 MSTORE SWAP1 PUSH1 0x40 MSTORE DUP6 DUP8 DUP7 DUP7 PUSH2 0x40E JUMP JUMPDEST PUSH2 0xEA JUMPI DUP5 DUP5 DUP5 DUP5 PUSH1 0x40 MLOAD PUSH32 0x12A693E600000000000000000000000000000000000000000000000000000000 DUP2 MSTORE PUSH1 0x4 ADD PUSH2 0xE1 SWAP5 SWAP4 SWAP3 SWAP2 SWAP1 PUSH2 0xA97 JUMP JUMPDEST PUSH1 0x40 MLOAD DUP1 SWAP2 SUB SWAP1 REVERT JUMPDEST PUSH2 0xF6 DUP5 DUP5 DUP5 DUP5 PUSH2 0x547 JUMP JUMPDEST SWAP6 POP POP POP POP POP POP SWAP4 SWAP3 POP POP POP JUMP JUMPDEST PUSH2 0x10C PUSH2 0x771 JUMP JUMPDEST PUSH0 PUSH0 PUSH0 PUSH0 PUSH0 DUP8 DUP8 PUSH0 DUP2 DUP2 LT PUSH2 0x124 JUMPI PUSH2 0x123 PUSH2 0xAE1 JUMP JUMPDEST JUMPDEST SWAP1 POP ADD CALLDATALOAD PUSH1 0xF8 SHR PUSH1 0xF8 SHL SWAP1 POP PUSH0 PUSH1 0xF8 SHL PUSH1 0x20 PUSH1 0xF8 SHL DUP3 AND PUSH31 0xFFFFFFFFFFFFFFFFFFFFFFFFFFFFFFFFFFFFFFFFFFFFFFFFFFFFFFFFFFFFFF NOT AND SUB PUSH2 0x3CE JUMPI PUSH0 PUSH1 0xF8 SHL PUSH1 0x1 PUSH1 0xF8 SHL DUP3 AND PUSH31 0xFFFFFFFFFFFFFFFFFFFFFFFFFFFFFFFFFFFFFFFFFFFFFFFFFFFFFFFFFFFFFF NOT AND EQ ISZERO SWAP5 POP PUSH0 PUSH1 0x1 DUP1 PUSH1 0x2 PUSH1 0xF8 SHL DUP5 AND PUSH1 0xF8 SHR PUSH1 0xFF AND SWAP1 SHR ADD PUSH1 0xFF AND SWAP1 POP PUSH0 PUSH1 0x1 PUSH1 0x2 PUSH1 0x4 PUSH1 0xF8 SHL DUP6 AND PUSH1 0xF8 SHR PUSH1 0xFF AND SWAP1 SHR ADD PUSH1 0xFF AND SWAP1 POP PUSH0 PUSH1 0x1 PUSH1 0x3 PUSH1 0x8 PUSH1 0xF8 SHL DUP7 AND PUSH1 0xF8 SHR PUSH1 0xFF AND SWAP1 SHR ADD PUSH1 0xFF AND SWAP1 POP PUSH0 PUSH1 0x1 PUSH1 0x4 PUSH1 0x10 PUSH1 0xF8 SHL DUP8 AND PUSH1 0xF8 SHR PUSH1 0xFF AND SWAP1 SHR ADD PUSH1 0xFF AND SWAP1 POP PUSH0 PUSH1 0x1 SWAP1 POP PUSH0 PUSH1 0xF8 SHL PUSH1 0x40 PUSH1 0xF8 SHL DUP8 AND PUSH31 0xFFFFFFFFFFFFFFFFFFFFFFFFFFFFFFFFFFFFFFFFFFFFFFFFFFFFFFFFFFFFFF NOT AND EQ PUSH2 0x245 JUMPI PUSH2 0x23C DUP14 DUP14 DUP4 PUSH2 0x57D JUMP JUMPDEST DUP1 SWAP3 POP DUP2 SWAP9 POP POP POP JUMPDEST PUSH0 PUSH2 0x252 DUP15 DUP15 DUP5 DUP10 PUSH2 0x593 JUMP JUMPDEST DUP1 SWAP4 POP DUP2 SWAP3 POP POP POP PUSH0 DUP2 DUP4 ADD SWAP1 POP DUP15 DUP15 DUP5 SWAP1 DUP4 SWAP3 PUSH2 0x272 SWAP4 SWAP3 SWAP2 SWAP1 PUSH2 0xB16 JUMP JUMPDEST DUP1 DUP1 PUSH1 0x1F ADD PUSH1 0x20 DUP1 SWAP2 DIV MUL PUSH1 0x20 ADD PUSH1 0x40 MLOAD SWAP1 DUP2 ADD PUSH1 0x40 MSTORE DUP1 SWAP4 SWAP3 SWAP2 SWAP1 DUP2 DUP2 MSTORE PUSH1 0x20 ADD DUP4 DUP4 DUP1 DUP3 DUP5 CALLDATACOPY PUSH0 DUP2 DUP5 ADD MSTORE PUSH1 0x1F NOT PUSH1 0x1F DUP3 ADD AND SWAP1 POP DUP1 DUP4 ADD SWAP3 POP POP POP POP POP POP POP DUP14 PUSH0 ADD DUP2 SWAP1 MSTORE POP DUP1 SWAP3 POP POP POP PUSH0 PUSH2 0x2CD DUP15 DUP15 DUP5 DUP9 PUSH2 0x593 JUMP JUMPDEST DUP1 SWAP4 POP DUP2 SWAP3 POP POP POP PUSH0 DUP2 DUP4 ADD SWAP1 POP DUP15 DUP15 DUP5 SWAP1 DUP4 SWAP3 PUSH2 0x2ED SWAP4 SWAP3 SWAP2 SWAP1 PUSH2 0xB16 JUMP JUMPDEST DUP1 DUP1 PUSH1 0x1F ADD PUSH1 0x20 DUP1 SWAP2 DIV MUL PUSH1 0x20 ADD PUSH1 0x40 MLOAD SWAP1 DUP2 ADD PUSH1 0x40 MSTORE DUP1 SWAP4 SWAP3 SWAP2 SWAP1 DUP2 DUP2 MSTORE PUSH1 0x20 ADD DUP4 DUP4 DUP1 DUP3 DUP5 CALLDATACOPY PUSH0 DUP2 DUP5 ADD MSTORE PUSH1 0x1F NOT PUSH1 0x1F DUP3 ADD AND SWAP1 POP DUP1 DUP4 ADD SWAP3 POP POP POP POP POP POP POP DUP14 PUSH1 0x20 ADD DUP2 SWAP1 MSTORE POP DUP1 SWAP3 POP POP POP PUSH2 0x348 DUP14 DUP14 DUP4 DUP7 PUSH2 0x593 JUMP JUMPDEST DUP13 PUSH1 0x40 ADD DUP2 SWAP4 POP DUP3 DUP2 MSTORE POP POP POP PUSH2 0x361 DUP14 DUP14 DUP4 DUP6 PUSH2 0x593 JUMP JUMPDEST DUP13 PUSH1 0x60 ADD DUP2 SWAP4 POP DUP3 DUP2 MSTORE POP POP POP PUSH2 0x379 DUP14 DUP14 DUP4 PUSH2 0x57D JUMP JUMPDEST DUP13 PUSH1 0x80 ADD DUP2 SWAP4 POP DUP3 DUP2 MSTORE POP POP POP PUSH2 0x391 DUP14 DUP14 DUP4 PUSH2 0x57D JUMP JUMPDEST DUP13 PUSH1 0xA0 ADD DUP2 SWAP4 POP DUP3 DUP2 MSTORE POP POP POP PUSH2 0x3A9 DUP14 DUP14 DUP4 PUSH2 0x57D JUMP JUMPDEST DUP1 SWAP3 POP DUP2 SWAP11 POP POP POP PUSH2 0x3BC DUP14 DUP14 DUP4 PUSH2 0x57D JUMP JUMPDEST DUP1 SWAP3 POP DUP2 SWAP10 POP POP POP POP POP POP POP POP PUSH2 0x403 JUMP JUMPDEST DUP8 DUP8 PUSH1 0x1 SWAP1 DUP1 SWAP3 PUSH2 0x3E1 SWAP4 SWAP3 SWAP2 SWAP1 PUSH2 0xB16 JUMP JUMPDEST DUP2 ADD SWAP1 PUSH2 0x3EE SWAP2 SWAP1 PUSH2 0xE47 JUMP JUMPDEST DUP1 SWAP7 POP DUP2 SWAP8 POP DUP3 SWAP9 POP DUP4 SWAP10 POP DUP5 SWAP11 POP POP POP POP POP POP JUMPDEST POP SWAP3 SWAP6 POP SWAP3 SWAP6 SWAP1 SWAP4 POP JUMP JUMPDEST PUSH0 PUSH0 PUSH0 PUSH2 0x41D DUP9 PUSH1 0x1 DUP1 PUSH2 0x5C0 JUMP JUMPDEST SWAP1 POP PUSH1 0x20 DUP7 ADD MLOAD DUP1 MLOAD PUSH1 0x20 DUP3 ADD PUSH1 0x40 DUP10 ADD MLOAD PUSH1 0x60 DUP11 ADD MLOAD DUP6 MLOAD PUSH1 0xD DUP2 ADD PUSH32 0x226368616C6C656E6765223A2200000000000000000000000000000000000000 PUSH1 0x98 SHR DUP9 MSTORE DUP6 DUP5 DUP3 ADD LT PUSH1 0x22 DUP3 DUP7 DUP9 ADD ADD MLOAD PUSH0 BYTE EQ AND DUP2 PUSH1 0x13 DUP11 ADD KECCAK256 DUP3 DUP7 DUP9 ADD KECCAK256 EQ AND DUP7 DUP5 PUSH1 0x14 ADD LT DUP6 DUP6 OR PUSH1 0x80 SHR LT PUSH32 0x2274797065223A22776562617574686E2E676574220000000000000000000000 PUSH1 0x58 SHR DUP6 DUP9 ADD MLOAD PUSH1 0x58 SHR EQ AND AND SWAP10 POP DUP2 DUP9 MSTORE POP POP POP POP DUP9 MLOAD MLOAD DUP11 ISZERO ISZERO PUSH1 0x2 SHL PUSH1 0x1 OR DUP1 DUP2 PUSH1 0x21 DUP14 MLOAD ADD MLOAD AND EQ PUSH1 0x20 DUP4 GT DUP10 AND AND SWAP8 POP DUP8 ISZERO PUSH2 0x519 JUMPI PUSH1 0x20 DUP12 MLOAD ADD DUP3 DUP2 ADD DUP1 MLOAD PUSH1 0x20 PUSH1 0x1 PUSH1 0x20 DUP8 ADD DUP6 PUSH1 0x20 DUP7 DUP13 DUP13 PUSH1 0x2 GAS STATICCALL PUSH1 0x1 SHL GAS STATICCALL MLOAD SWAP10 POP DUP1 DUP3 MSTORE RETURNDATASIZE PUSH2 0x515 JUMPI INVALID JUMPDEST POP POP POP JUMPDEST POP POP POP POP POP DUP3 ISZERO PUSH2 0x53C JUMPI PUSH2 0x539 DUP3 DUP8 PUSH1 0x80 ADD MLOAD DUP9 PUSH1 0xA0 ADD MLOAD DUP9 DUP9 PUSH2 0x6CA JUMP JUMPDEST SWAP3 POP JUMPDEST POP POP SWAP6 SWAP5 POP POP POP POP POP JUMP JUMPDEST PUSH0 PUSH0 PUSH2 0x553 DUP6 DUP6 PUSH2 0x75D JUMP JUMPDEST SWAP1 POP PUSH0 DUP7 SWAP1 POP PUSH0 PUSH2 0x564 DUP3 DUP7 PUSH2 0x75D JUMP JUMPDEST SWAP1 POP PUSH2 0x570 DUP4 DUP3 PUSH2 0x75D JUMP JUMPDEST SWAP4 POP POP POP POP SWAP5 SWAP4 POP POP POP POP JUMP JUMPDEST PUSH0 PUSH0 DUP5 DUP4 ADD CALLDATALOAD SWAP2 POP PUSH1 0x20 DUP4 ADD SWAP1 POP SWAP4 POP SWAP4 SWAP2 POP POP JUMP JUMPDEST PUSH0 PUSH0 DUP6 DUP5 ADD CALLDATALOAD PUSH1 0x8 DUP5 MUL PUSH2 0x100 SUB PUSH1 0x1 DUP1 DUP7 PUSH1 0x8 MUL SHL SUB DUP3 DUP3 SHR AND SWAP4 POP DUP5 DUP7 ADD SWAP3 POP POP POP SWAP5 POP SWAP5 SWAP3 POP POP POP JUMP JUMPDEST PUSH1 0x60 DUP4 MLOAD DUP1 ISZERO PUSH2 0x6C2 JUMPI PUSH1 0x3 PUSH1 0x2 DUP3 ADD DIV PUSH1 0x2 SHL PUSH1 0x40 MLOAD SWAP3 POP PUSH32 0x4142434445464748494A4B4C4D4E4F505152535455565758595A616263646566 PUSH1 0x1F MSTORE PUSH2 0x670 DUP6 ISZERO MUL PUSH32 0x6768696A6B6C6D6E6F707172737475767778797A303132333435363738392D5F XOR PUSH1 0x3F MSTORE PUSH1 0x20 DUP4 ADD DUP2 DUP2 ADD DUP4 DUP9 PUSH1 0x20 ADD ADD DUP1 MLOAD PUSH0 DUP3 MSTORE JUMPDEST PUSH1 0x1 ISZERO PUSH2 0x68F JUMPI PUSH1 0x3 DUP11 ADD SWAP10 POP DUP10 MLOAD PUSH1 0x3F DUP2 PUSH1 0x12 SHR AND MLOAD PUSH0 MSTORE8 PUSH1 0x3F DUP2 PUSH1 0xC SHR AND MLOAD PUSH1 0x1 MSTORE8 PUSH1 0x3F DUP2 PUSH1 0x6 SHR AND MLOAD PUSH1 0x2 MSTORE8 PUSH1 0x3F DUP2 AND MLOAD PUSH1 0x3 MSTORE8 PUSH0 MLOAD DUP6 MSTORE PUSH1 0x4 DUP6 ADD SWAP5 POP DUP4 DUP6 LT PUSH2 0x689 JUMPI POP PUSH2 0x68F JUMP JUMPDEST POP PUSH2 0x63B JUMP JUMPDEST DUP1 DUP3 MSTORE PUSH1 0x20 DUP4 ADD PUSH1 0x40 MSTORE PUSH1 0x3 DUP7 MOD PUSH1 0x2 DIV PUSH2 0x3D3D PUSH1 0xF0 SHL DUP2 DUP7 SUB MSTORE DUP1 DUP10 ISZERO ISZERO MUL SWAP1 POP PUSH0 DUP2 DUP7 SUB MSTORE DUP1 DUP7 SUB DUP9 MSTORE POP POP POP POP POP POP JUMPDEST POP SWAP4 SWAP3 POP POP POP JUMP JUMPDEST PUSH0 PUSH1 0x40 MLOAD DUP7 DUP2 MSTORE DUP6 PUSH1 0x20 DUP3 ADD MSTORE DUP5 PUSH1 0x40 DUP3 ADD MSTORE DUP4 PUSH1 0x60 DUP3 ADD MSTORE DUP3 PUSH1 0x80 DUP3 ADD MSTORE PUSH0 PUSH0 MSTORE PUSH1 0x20 PUSH0 PUSH1 0xA0 DUP4 PUSH2 0x100 GAS STATICCALL POP RETURNDATASIZE PUSH2 0x728 JUMPI PUSH1 0x20 RETURNDATASIZE PUSH1 0xA0 DUP4 PUSH14 0xD01EA45F9EFD5C54F037FA57EA1A GAS STATICCALL POP RETURNDATASIZE PUSH2 0x727 JUMPI PUSH4 0xD0D5039B RETURNDATASIZE MSTORE PUSH1 0x4 PUSH1 0x1C REVERT JUMPDEST JUMPDEST PUSH0 MLOAD PUSH1 0x1 EQ PUSH32 0x7FFFFFFF800000007FFFFFFFFFFFFFFFDE737D56D38BCF4279DCE5617E3192A8 DUP7 GT LT SWAP2 POP POP SWAP6 SWAP5 POP POP POP POP POP JUMP JUMPDEST PUSH0 DUP3 PUSH0 MSTORE DUP2 PUSH1 0x20 MSTORE PUSH1 0x40 PUSH0 KECCAK256 SWAP1 POP SWAP3 SWAP2 POP POP JUMP JUMPDEST PUSH1 0x40 MLOAD DUP1 PUSH1 0xC0 ADD PUSH1 0x40 MSTORE DUP1 PUSH1 0x60 DUP2 MSTORE PUSH1 0x20 ADD PUSH1 0x60 DUP2 MSTORE PUSH1 0x20 ADD PUSH0 DUP2 MSTORE PUSH1 0x20 ADD PUSH0 DUP2 MSTORE PUSH1 0x20 ADD PUSH0 DUP2 MSTORE PUSH1 0x20 ADD PUSH0 DUP2 MSTORE POP SWAP1 JUMP JUMPDEST PUSH0 PUSH1 0x40 MLOAD SWAP1 POP SWAP1 JUMP JUMPDEST PUSH0 PUSH0 REVERT JUMPDEST PUSH0 PUSH0 REVERT JUMPDEST PUSH0 DUP2 SWAP1 POP SWAP2 SWAP1 POP JUMP JUMPDEST PUSH2 0x7C6 DUP2 PUSH2 0x7B4 JUMP JUMPDEST DUP2 EQ PUSH2 0x7D0 JUMPI PUSH0 PUSH0 REVERT JUMPDEST POP JUMP JUMPDEST PUSH0 DUP2 CALLDATALOAD SWAP1 POP PUSH2 0x7E1 DUP2 PUSH2 0x7BD JUMP JUMPDEST SWAP3 SWAP2 POP POP JUMP JUMPDEST PUSH0 PUSH0 REVERT JUMPDEST PUSH0 PUSH0 REVERT JUMPDEST PUSH0 PUSH0 REVERT JUMPDEST PUSH0 PUSH0 DUP4 PUSH1 0x1F DUP5 ADD SLT PUSH2 0x808 JUMPI PUSH2 0x807 PUSH2 0x7E7 JUMP JUMPDEST JUMPDEST DUP3 CALLDATALOAD SWAP1 POP PUSH8 0xFFFFFFFFFFFFFFFF DUP2 GT ISZERO PUSH2 0x825 JUMPI PUSH2 0x824 PUSH2 0x7EB JUMP JUMPDEST JUMPDEST PUSH1 0x20 DUP4 ADD SWAP2 POP DUP4 PUSH1 0x1 DUP3 MUL DUP4 ADD GT ISZERO PUSH2 0x841 JUMPI PUSH2 0x840 PUSH2 0x7EF JUMP JUMPDEST JUMPDEST SWAP3 POP SWAP3 SWAP1 POP JUMP JUMPDEST PUSH0 PUSH0 PUSH0 PUSH1 0x40 DUP5 DUP7 SUB SLT ISZERO PUSH2 0x85F JUMPI PUSH2 0x85E PUSH2 0x7AC JUMP JUMPDEST JUMPDEST PUSH0 PUSH2 0x86C DUP7 DUP3 DUP8 ADD PUSH2 0x7D3 JUMP JUMPDEST SWAP4 POP POP PUSH1 0x20 DUP5 ADD CALLDATALOAD PUSH8 0xFFFFFFFFFFFFFFFF DUP2 GT ISZERO PUSH2 0x88D JUMPI PUSH2 0x88C PUSH2 0x7B0 JUMP JUMPDEST JUMPDEST PUSH2 0x899 DUP7 DUP3 DUP8 ADD PUSH2 0x7F3 JUMP JUMPDEST SWAP3 POP SWAP3 POP POP SWAP3 POP SWAP3 POP SWAP3 JUMP JUMPDEST PUSH2 0x8AE DUP2 PUSH2 0x7B4 JUMP JUMPDEST DUP3 MSTORE POP POP JUMP JUMPDEST PUSH0 PUSH1 0x20 DUP3 ADD SWAP1 POP PUSH2 0x8C7 PUSH0 DUP4 ADD DUP5 PUSH2 0x8A5 JUMP JUMPDEST SWAP3 SWAP2 POP POP JUMP JUMPDEST PUSH0 DUP2 SWAP1 POP SWAP2 SWAP1 POP JUMP JUMPDEST PUSH2 0x8E7 PUSH2 0x8E2 DUP3 PUSH2 0x7B4 JUMP JUMPDEST PUSH2 0x8CD JUMP JUMPDEST DUP3 MSTORE POP POP JUMP JUMPDEST PUSH0 PUSH2 0x8F8 DUP3 DUP5 PUSH2 0x8D6 JUMP JUMPDEST PUSH1 0x20 DUP3 ADD SWAP2 POP DUP2 SWAP1 POP SWAP3 SWAP2 POP POP JUMP JUMPDEST PUSH0 DUP2 MLOAD SWAP1 POP SWAP2 SWAP1 POP JUMP JUMPDEST PUSH0 DUP3 DUP3 MSTORE PUSH1 0x20 DUP3 ADD SWAP1 POP SWAP3 SWAP2 POP POP JUMP JUMPDEST DUP3 DUP2 DUP4 MCOPY PUSH0 DUP4 DUP4 ADD MSTORE POP POP POP JUMP JUMPDEST PUSH0 PUSH1 0x1F NOT PUSH1 0x1F DUP4 ADD AND SWAP1 POP SWAP2 SWAP1 POP JUMP JUMPDEST PUSH0 PUSH2 0x949 DUP3 PUSH2 0x907 JUMP JUMPDEST PUSH2 0x953 DUP2 DUP6 PUSH2 0x911 JUMP JUMPDEST SWAP4 POP PUSH2 0x963 DUP2 DUP6 PUSH1 0x20 DUP7 ADD PUSH2 0x921 JUMP JUMPDEST PUSH2 0x96C DUP2 PUSH2 0x92F JUMP JUMPDEST DUP5 ADD SWAP2 POP POP SWAP3 SWAP2 POP POP JUMP JUMPDEST PUSH0 DUP2 MLOAD SWAP1 POP SWAP2 SWAP1 POP JUMP JUMPDEST PUSH0 DUP3 DUP3 MSTORE PUSH1 0x20 DUP3 ADD SWAP1 POP SWAP3 SWAP2 POP POP JUMP JUMPDEST PUSH0 PUSH2 0x99B DUP3 PUSH2 0x977 JUMP JUMPDEST PUSH2 0x9A5 DUP2 DUP6 PUSH2 0x981 JUMP JUMPDEST SWAP4 POP PUSH2 0x9B5 DUP2 DUP6 PUSH1 0x20 DUP7 ADD PUSH2 0x921 JUMP JUMPDEST PUSH2 0x9BE DUP2 PUSH2 0x92F JUMP JUMPDEST DUP5 ADD SWAP2 POP POP SWAP3 SWAP2 POP POP JUMP JUMPDEST PUSH0 DUP2 SWAP1 POP SWAP2 SWAP1 POP JUMP JUMPDEST PUSH2 0x9DB DUP2 PUSH2 0x9C9 JUMP JUMPDEST DUP3 MSTORE POP POP JUMP JUMPDEST PUSH2 0x9EA DUP2 PUSH2 0x7B4 JUMP JUMPDEST DUP3 MSTORE POP POP JUMP JUMPDEST PUSH0 PUSH1 0xC0 DUP4 ADD PUSH0 DUP4 ADD MLOAD DUP5 DUP3 SUB PUSH0 DUP7 ADD MSTORE PUSH2 0xA0A DUP3 DUP3 PUSH2 0x93F JUMP JUMPDEST SWAP2 POP POP PUSH1 0x20 DUP4 ADD MLOAD DUP5 DUP3 SUB PUSH1 0x20 DUP7 ADD MSTORE PUSH2 0xA24 DUP3 DUP3 PUSH2 0x991 JUMP JUMPDEST SWAP2 POP POP PUSH1 0x40 DUP4 ADD MLOAD PUSH2 0xA39 PUSH1 0x40 DUP7 ADD DUP3 PUSH2 0x9D2 JUMP JUMPDEST POP PUSH1 0x60 DUP4 ADD MLOAD PUSH2 0xA4C PUSH1 0x60 DUP7 ADD DUP3 PUSH2 0x9D2 JUMP JUMPDEST POP PUSH1 0x80 DUP4 ADD MLOAD PUSH2 0xA5F PUSH1 0x80 DUP7 ADD DUP3 PUSH2 0x9E1 JUMP JUMPDEST POP PUSH1 0xA0 DUP4 ADD MLOAD PUSH2 0xA72 PUSH1 0xA0 DUP7 ADD DUP3 PUSH2 0x9E1 JUMP JUMPDEST POP DUP1 SWAP2 POP POP SWAP3 SWAP2 POP POP JUMP JUMPDEST PUSH0 DUP2 ISZERO ISZERO SWAP1 POP SWAP2 SWAP1 POP JUMP JUMPDEST PUSH2 0xA91 DUP2 PUSH2 0xA7D JUMP JUMPDEST DUP3 MSTORE POP POP JUMP JUMPDEST PUSH0 PUSH1 0x80 DUP3 ADD SWAP1 POP DUP2 DUP2 SUB PUSH0 DUP4 ADD MSTORE PUSH2 0xAAF DUP2 DUP8 PUSH2 0x9F0 JUMP JUMPDEST SWAP1 POP PUSH2 0xABE PUSH1 0x20 DUP4 ADD DUP7 PUSH2 0xA88 JUMP JUMPDEST PUSH2 0xACB PUSH1 0x40 DUP4 ADD DUP6 PUSH2 0x8A5 JUMP JUMPDEST PUSH2 0xAD8 PUSH1 0x60 DUP4 ADD DUP5 PUSH2 0x8A5 JUMP JUMPDEST SWAP6 SWAP5 POP POP POP POP POP JUMP JUMPDEST PUSH32 0x4E487B7100000000000000000000000000000000000000000000000000000000 PUSH0 MSTORE PUSH1 0x32 PUSH1 0x4 MSTORE PUSH1 0x24 PUSH0 REVERT JUMPDEST PUSH0 PUSH0 REVERT JUMPDEST PUSH0 PUSH0 REVERT JUMPDEST PUSH0 PUSH0 DUP6 DUP6 GT ISZERO PUSH2 0xB29 JUMPI PUSH2 0xB28 PUSH2 0xB0E JUMP JUMPDEST JUMPDEST DUP4 DUP7 GT ISZERO PUSH2 0xB3A JUMPI PUSH2 0xB39 PUSH2 0xB12 JUMP JUMPDEST JUMPDEST PUSH1 0x1 DUP6 MUL DUP4 ADD SWAP2 POP DUP5 DUP7 SUB SWAP1 POP SWAP5 POP SWAP5 SWAP3 POP POP POP JUMP JUMPDEST PUSH0 PUSH0 REVERT JUMPDEST PUSH32 0x4E487B7100000000000000000000000000000000000000000000000000000000 PUSH0 MSTORE PUSH1 0x41 PUSH1 0x4 MSTORE PUSH1 0x24 PUSH0 REVERT JUMPDEST PUSH2 0xB8A DUP3 PUSH2 0x92F JUMP JUMPDEST DUP2 ADD DUP2 DUP2 LT PUSH8 0xFFFFFFFFFFFFFFFF DUP3 GT OR ISZERO PUSH2 0xBA9 JUMPI PUSH2 0xBA8 PUSH2 0xB54 JUMP JUMPDEST JUMPDEST DUP1 PUSH1 0x40 MSTORE POP POP POP JUMP JUMPDEST PUSH0 PUSH2 0xBBB PUSH2 0x7A3 JUMP JUMPDEST SWAP1 POP PUSH2 0xBC7 DUP3 DUP3 PUSH2 0xB81 JUMP JUMPDEST SWAP2 SWAP1 POP JUMP JUMPDEST PUSH0 PUSH0 REVERT JUMPDEST PUSH0 PUSH0 REVERT JUMPDEST PUSH0 PUSH8 0xFFFFFFFFFFFFFFFF DUP3 GT ISZERO PUSH2 0xBEE JUMPI PUSH2 0xBED PUSH2 0xB54 JUMP JUMPDEST JUMPDEST PUSH2 0xBF7 DUP3 PUSH2 0x92F JUMP JUMPDEST SWAP1 POP PUSH1 0x20 DUP2 ADD SWAP1 POP SWAP2 SWAP1 POP JUMP JUMPDEST DUP3 DUP2 DUP4 CALLDATACOPY PUSH0 DUP4 DUP4 ADD MSTORE POP POP POP JUMP JUMPDEST PUSH0 PUSH2 0xC24 PUSH2 0xC1F DUP5 PUSH2 0xBD4 JUMP JUMPDEST PUSH2 0xBB2 JUMP JUMPDEST SWAP1 POP DUP3 DUP2 MSTORE PUSH1 0x20 DUP2 ADD DUP5 DUP5 DUP5 ADD GT ISZERO PUSH2 0xC40 JUMPI PUSH2 0xC3F PUSH2 0xBD0 JUMP JUMPDEST JUMPDEST PUSH2 0xC4B DUP5 DUP3 DUP6 PUSH2 0xC04 JUMP JUMPDEST POP SWAP4 SWAP3 POP POP POP JUMP JUMPDEST PUSH0 DUP3 PUSH1 0x1F DUP4 ADD SLT PUSH2 0xC67 JUMPI PUSH2 0xC66 PUSH2 0x7E7 JUMP JUMPDEST JUMPDEST DUP2 CALLDATALOAD PUSH2 0xC77 DUP5 DUP3 PUSH1 0x20 DUP7 ADD PUSH2 0xC12 JUMP JUMPDEST SWAP2 POP POP SWAP3 SWAP2 POP POP JUMP JUMPDEST PUSH0 PUSH8 0xFFFFFFFFFFFFFFFF DUP3 GT ISZERO PUSH2 0xC9A JUMPI PUSH2 0xC99 PUSH2 0xB54 JUMP JUMPDEST JUMPDEST PUSH2 0xCA3 DUP3 PUSH2 0x92F JUMP JUMPDEST SWAP1 POP PUSH1 0x20 DUP2 ADD SWAP1 POP SWAP2 SWAP1 POP JUMP JUMPDEST PUSH0 PUSH2 0xCC2 PUSH2 0xCBD DUP5 PUSH2 0xC80 JUMP JUMPDEST PUSH2 0xBB2 JUMP JUMPDEST SWAP1 POP DUP3 DUP2 MSTORE PUSH1 0x20 DUP2 ADD DUP5 DUP5 DUP5 ADD GT ISZERO PUSH2 0xCDE JUMPI PUSH2 0xCDD PUSH2 0xBD0 JUMP JUMPDEST JUMPDEST PUSH2 0xCE9 DUP5 DUP3 DUP6 PUSH2 0xC04 JUMP JUMPDEST POP SWAP4 SWAP3 POP POP POP JUMP JUMPDEST PUSH0 DUP3 PUSH1 0x1F DUP4 ADD SLT PUSH2 0xD05 JUMPI PUSH2 0xD04 PUSH2 0x7E7 JUMP JUMPDEST JUMPDEST DUP2 CALLDATALOAD PUSH2 0xD15 DUP5 DUP3 PUSH1 0x20 DUP7 ADD PUSH2 0xCB0 JUMP JUMPDEST SWAP2 POP POP SWAP3 SWAP2 POP POP JUMP JUMPDEST PUSH2 0xD27 DUP2 PUSH2 0x9C9 JUMP JUMPDEST DUP2 EQ PUSH2 0xD31 JUMPI PUSH0 PUSH0 REVERT JUMPDEST POP JUMP JUMPDEST PUSH0 DUP2 CALLDATALOAD SWAP1 POP PUSH2 0xD42 DUP2 PUSH2 0xD1E JUMP JUMPDEST SWAP3 SWAP2 POP POP JUMP JUMPDEST PUSH0 PUSH1 0xC0 DUP3 DUP5 SUB SLT ISZERO PUSH2 0xD5D JUMPI PUSH2 0xD5C PUSH2 0xB50 JUMP JUMPDEST JUMPDEST PUSH2 0xD67 PUSH1 0xC0 PUSH2 0xBB2 JUMP JUMPDEST SWAP1 POP PUSH0 DUP3 ADD CALLDATALOAD PUSH8 0xFFFFFFFFFFFFFFFF DUP2 GT ISZERO PUSH2 0xD86 JUMPI PUSH2 0xD85 PUSH2 0xBCC JUMP JUMPDEST JUMPDEST PUSH2 0xD92 DUP5 DUP3 DUP6 ADD PUSH2 0xC53 JUMP JUMPDEST PUSH0 DUP4 ADD MSTORE POP PUSH1 0x20 DUP3 ADD CALLDATALOAD PUSH8 0xFFFFFFFFFFFFFFFF DUP2 GT ISZERO PUSH2 0xDB5 JUMPI PUSH2 0xDB4 PUSH2 0xBCC JUMP JUMPDEST JUMPDEST PUSH2 0xDC1 DUP5 DUP3 DUP6 ADD PUSH2 0xCF1 JUMP JUMPDEST PUSH1 0x20 DUP4 ADD MSTORE POP PUSH1 0x40 PUSH2 0xDD5 DUP5 DUP3 DUP6 ADD PUSH2 0xD34 JUMP JUMPDEST PUSH1 0x40 DUP4 ADD MSTORE POP PUSH1 0x60 PUSH2 0xDE9 DUP5 DUP3 DUP6 ADD PUSH2 0xD34 JUMP JUMPDEST PUSH1 0x60 DUP4 ADD MSTORE POP PUSH1 0x80 PUSH2 0xDFD DUP5 DUP3 DUP6 ADD PUSH2 0x7D3 JUMP JUMPDEST PUSH1 0x80 DUP4 ADD MSTORE POP PUSH1 0xA0 PUSH2 0xE11 DUP5 DUP3 DUP6 ADD PUSH2 0x7D3 JUMP JUMPDEST PUSH1 0xA0 DUP4 ADD MSTORE POP SWAP3 SWAP2 POP POP JUMP JUMPDEST PUSH2 0xE26 DUP2 PUSH2 0xA7D JUMP JUMPDEST DUP2 EQ PUSH2 0xE30 JUMPI PUSH0 PUSH0 REVERT JUMPDEST POP JUMP JUMPDEST PUSH0 DUP2 CALLDATALOAD SWAP1 POP PUSH2 0xE41 DUP2 PUSH2 0xE1D JUMP JUMPDEST SWAP3 SWAP2 POP POP JUMP JUMPDEST PUSH0 PUSH0 PUSH0 PUSH0 PUSH0 PUSH1 0xA0 DUP7 DUP9 SUB SLT ISZERO PUSH2 0xE60 JUMPI PUSH2 0xE5F PUSH2 0x7AC JUMP JUMPDEST JUMPDEST PUSH0 DUP7 ADD CALLDATALOAD PUSH8 0xFFFFFFFFFFFFFFFF DUP2 GT ISZERO PUSH2 0xE7D JUMPI PUSH2 0xE7C PUSH2 0x7B0 JUMP JUMPDEST JUMPDEST PUSH2 0xE89 DUP9 DUP3 DUP10 ADD PUSH2 0xD48 JUMP JUMPDEST SWAP6 POP POP PUSH1 0x20 PUSH2 0xE9A DUP9 DUP3 DUP10 ADD PUSH2 0xE33 JUMP JUMPDEST SWAP5 POP POP PUSH1 0x40 PUSH2 0xEAB DUP9 DUP3 DUP10 ADD PUSH2 0x7D3 JUMP JUMPDEST SWAP4 POP POP PUSH1 0x60 PUSH2 0xEBC DUP9 DUP3 DUP10 ADD PUSH2 0x7D3 JUMP JUMPDEST SWAP3 POP POP PUSH1 0x80 PUSH2 0xECD DUP9 DUP3 DUP10 ADD PUSH2 0x7D3 JUMP JUMPDEST SWAP2 POP POP SWAP3 SWAP6 POP SWAP3 SWAP6 SWAP1 SWAP4 POP JUMP INVALID LOG2 PUSH5 0x6970667358 0x22 SLT KECCAK256 PUSH18 0x6353586991EC7ED1E9243826837893C70650 0xF9 EXTCODECOPY 0xE4 0xC4 DUP15 INVALID PUSH1 0xED DUP5 0xF NOT 0xB4 0x2B PUSH5 0x736F6C6343 STOP ADDMOD SHR STOP CALLER "
        },
        "methodIdentifiers": {
          "recoverSapientSignatureCompact(bytes32,bytes)": "898bd921"
        }
      },
      "userdoc": {
        "errors": {
          "InvalidPasskeySignature((bytes,string,uint256,uint256,bytes32,bytes32),bool,bytes32,bytes32)": [
            {
              "notice": "Error thrown when the passkey signature is invalid"
            }
          ]
        },
        "kind": "user",
        "methods": {
          "recoverSapientSignatureCompact(bytes32,bytes)": {
            "notice": "Recovers the image hash of a given signature, using a hashed payload"
          }
        },
        "notice": "A sapient signer for passkeys",
        "version": 1
      }
    }
  }
}