{
  "src/extensions/sessions/SessionManager.sol": {
    "SessionManager": {
      "abi": [
        {
          "inputs": [
            {
              "internalType": "address",
              "name": "target",
              "type": "address"
            }
          ],
          "name": "BlacklistedAddress",
          "type": "error"
        },
        {
          "inputs": [],
          "name": "InvalidAttestation",
          "type": "error"
        },
        {
          "inputs": [],
          "name": "InvalidBlacklist",
          "type": "error"
        },
        {
          "inputs": [],
          "name": "InvalidCallsLength",
          "type": "error"
        },
        {
          "inputs": [
            {
              "internalType": "uint256",
              "name": "invalidChainId",
              "type": "uint256"
            }
          ],
          "name": "InvalidChainId",
          "type": "error"
        },
        {
          "inputs": [],
          "name": "InvalidDelegateCall",
          "type": "error"
        },
        {
          "inputs": [],
          "name": "InvalidIdentitySigner",
          "type": "error"
        },
        {
          "inputs": [],
          "name": "InvalidImplicitResult",
          "type": "error"
        },
        {
          "inputs": [],
          "name": "InvalidLimitUsageIncrement",
          "type": "error"
        },
        {
          "inputs": [
            {
              "internalType": "uint256",
              "name": "flag",
              "type": "uint256"
            }
          ],
          "name": "InvalidNodeType",
          "type": "error"
        },
        {
          "inputs": [],
          "name": "InvalidPayloadKind",
          "type": "error"
        },
        {
          "inputs": [],
          "name": "InvalidPermission",
          "type": "error"
        },
        {
          "inputs": [],
          "name": "InvalidSelfCall",
          "type": "error"
        },
        {
          "inputs": [
            {
              "internalType": "address",
              "name": "invalidSigner",
              "type": "address"
            }
          ],
          "name": "InvalidSessionSigner",
          "type": "error"
        },
        {
          "inputs": [],
          "name": "InvalidValue",
          "type": "error"
        },
        {
          "inputs": [],
          "name": "MissingPermission",
          "type": "error"
        },
        {
          "inputs": [
            {
              "internalType": "uint256",
              "name": "deadline",
              "type": "uint256"
            }
          ],
          "name": "SessionExpired",
          "type": "error"
        },
        {
          "anonymous": false,
          "inputs": [
            {
              "indexed": false,
              "internalType": "address",
              "name": "wallet",
              "type": "address"
            },
            {
              "indexed": false,
              "internalType": "bytes32",
              "name": "usageHash",
              "type": "bytes32"
            },
            {
              "indexed": false,
              "internalType": "uint256",
              "name": "usageAmount",
              "type": "uint256"
            }
          ],
          "name": "LimitUsageUpdated",
          "type": "event"
        },
        {
          "inputs": [],
          "name": "VALUE_TRACKING_ADDRESS",
          "outputs": [
            {
              "internalType": "address",
              "name": "",
              "type": "address"
            }
          ],
          "stateMutability": "view",
          "type": "function"
        },
        {
          "inputs": [
            {
              "internalType": "address",
              "name": "wallet",
              "type": "address"
            },
            {
              "internalType": "bytes32",
              "name": "usageHash",
              "type": "bytes32"
            }
          ],
          "name": "getLimitUsage",
          "outputs": [
            {
              "internalType": "uint256",
              "name": "",
              "type": "uint256"
            }
          ],
          "stateMutability": "view",
          "type": "function"
        },
        {
          "inputs": [
            {
              "components": [
                {
                  "internalType": "bytes32",
                  "name": "usageHash",
                  "type": "bytes32"
                },
                {
                  "internalType": "uint256",
                  "name": "usageAmount",
                  "type": "uint256"
                }
              ],
              "internalType": "struct UsageLimit[]",
              "name": "limits",
              "type": "tuple[]"
            }
          ],
          "name": "incrementUsageLimit",
          "outputs": [],
          "stateMutability": "nonpayable",
          "type": "function"
        },
        {
          "inputs": [
            {
              "components": [
                {
                  "internalType": "uint8",
                  "name": "kind",
                  "type": "uint8"
                },
                {
                  "internalType": "bool",
                  "name": "noChainId",
                  "type": "bool"
                },
                {
                  "components": [
                    {
                      "internalType": "address",
                      "name": "to",
                      "type": "address"
                    },
                    {
                      "internalType": "uint256",
                      "name": "value",
                      "type": "uint256"
                    },
                    {
                      "internalType": "bytes",
                      "name": "data",
                      "type": "bytes"
                    },
                    {
                      "internalType": "uint256",
                      "name": "gasLimit",
                      "type": "uint256"
                    },
                    {
                      "internalType": "bool",
                      "name": "delegateCall",
                      "type": "bool"
                    },
                    {
                      "internalType": "bool",
                      "name": "onlyFallback",
                      "type": "bool"
                    },
                    {
                      "internalType": "uint256",
                      "name": "behaviorOnError",
                      "type": "uint256"
                    }
                  ],
                  "internalType": "struct Payload.Call[]",
                  "name": "calls",
                  "type": "tuple[]"
                },
                {
                  "internalType": "uint256",
                  "name": "space",
                  "type": "uint256"
                },
                {
                  "internalType": "uint256",
                  "name": "nonce",
                  "type": "uint256"
                },
                {
                  "internalType": "bytes",
                  "name": "message",
                  "type": "bytes"
                },
                {
                  "internalType": "bytes32",
                  "name": "imageHash",
                  "type": "bytes32"
                },
                {
                  "internalType": "bytes32",
                  "name": "digest",
                  "type": "bytes32"
                },
                {
                  "internalType": "address[]",
                  "name": "parentWallets",
                  "type": "address[]"
                }
              ],
              "internalType": "struct Payload.Decoded",
              "name": "payload",
              "type": "tuple"
            },
            {
              "internalType": "bytes",
              "name": "encodedSignature",
              "type": "bytes"
            }
          ],
          "name": "recoverSapientSignature",
          "outputs": [
            {
              "internalType": "bytes32",
              "name": "",
              "type": "bytes32"
            }
          ],
          "stateMutability": "view",
          "type": "function"
        },
        {
          "inputs": [
            {
              "components": [
                {
                  "internalType": "address",
                  "name": "target",
                  "type": "address"
                },
                {
                  "components": [
                    {
                      "internalType": "bool",
                      "name": "cumulative",
                      "type": "bool"
                    },
                    {
                      "internalType": "enum ParameterOperation",
                      "name": "operation",
                      "type": "uint8"
                    },
                    {
                      "internalType": "bytes32",
                      "name": "value",
                      "type": "bytes32"
                    },
                    {
                      "internalType": "uint256",
                      "name": "offset",
                      "type": "uint256"
                    },
                    {
                      "internalType": "bytes32",
                      "name": "mask",
                      "type": "bytes32"
                    }
                  ],
                  "internalType": "struct ParameterRule[]",
                  "name": "rules",
                  "type": "tuple[]"
                }
              ],
              "internalType": "struct Permission",
              "name": "permission",
              "type": "tuple"
            },
            {
              "components": [
                {
                  "internalType": "address",
                  "name": "to",
                  "type": "address"
                },
                {
                  "internalType": "uint256",
                  "name": "value",
                  "type": "uint256"
                },
                {
                  "internalType": "bytes",
                  "name": "data",
                  "type": "bytes"
                },
                {
                  "internalType": "uint256",
                  "name": "gasLimit",
                  "type": "uint256"
                },
                {
                  "internalType": "bool",
                  "name": "delegateCall",
                  "type": "bool"
                },
                {
                  "internalType": "bool",
                  "name": "onlyFallback",
                  "type": "bool"
                },
                {
                  "internalType": "uint256",
                  "name": "behaviorOnError",
                  "type": "uint256"
                }
              ],
              "internalType": "struct Payload.Call",
              "name": "call",
              "type": "tuple"
            },
            {
              "internalType": "address",
              "name": "wallet",
              "type": "address"
            },
            {
              "internalType": "address",
              "name": "signer",
              "type": "address"
            },
            {
              "components": [
                {
                  "internalType": "bytes32",
                  "name": "usageHash",
                  "type": "bytes32"
                },
                {
                  "internalType": "uint256",
                  "name": "usageAmount",
                  "type": "uint256"
                }
              ],
              "internalType": "struct UsageLimit[]",
              "name": "usageLimits",
              "type": "tuple[]"
            }
          ],
          "name": "validatePermission",
          "outputs": [
            {
              "internalType": "bool",
              "name": "",
              "type": "bool"
            },
            {
              "components": [
                {
                  "internalType": "bytes32",
                  "name": "usageHash",
                  "type": "bytes32"
                },
                {
                  "internalType": "uint256",
                  "name": "usageAmount",
                  "type": "uint256"
                }
              ],
              "internalType": "struct UsageLimit[]",
              "name": "newUsageLimits",
              "type": "tuple[]"
            }
          ],
          "stateMutability": "view",
          "type": "function"
        }
      ],
      "devdoc": {
        "author": "Michael Standen, Agustin Aguilar",
        "kind": "dev",
        "methods": {
          "getLimitUsage(address,bytes32)": {
            "params": {
              "usageHash": "The usage hash",
              "wallet": "The wallet address"
            },
            "returns": {
              "_0": "The usage amount"
            }
          },
          "incrementUsageLimit((bytes32,uint256)[])": {
            "params": {
              "limits": "Array of limit/session/target combinations"
            }
          },
          "recoverSapientSignature((uint8,bool,(address,uint256,bytes,uint256,bool,bool,uint256)[],uint256,uint256,bytes,bytes32,bytes32,address[]),bytes)": {
            "params": {
              "payload": "The payload to recover the signature from",
              "signature": "The signature to recover the image hash from"
            },
            "returns": {
              "_0": "The recovered image hash"
            }
          },
          "validatePermission((address,(bool,uint8,bytes32,uint256,bytes32)[]),(address,uint256,bytes,uint256,bool,bool,uint256),address,address,(bytes32,uint256)[])": {
            "params": {
              "call": "The call to validate against",
              "permission": "The rules permission to validate",
              "signer": "The signer address",
              "usageLimits": "Array of current usage limits",
              "wallet": "The wallet address"
            },
            "returns": {
              "_0": "True if the permission is valid, false otherwise",
              "newUsageLimits": "New array of usage limits"
            }
          }
        },
        "title": "SessionManager",
        "version": 1
      },
      "evm": {
        "bytecode": {
          "linkReferences": {},
          "object": "6080604052348015600e575f5ffd5b50614e068061001c5f395ff3fe608060405234801561000f575f5ffd5b5060043610610055575f3560e01c806313792a4a1461005957806323b3713e14610089578063313dade7146100b957806342de1418146100ea578063f916f3b214610106575b5f5ffd5b610073600480360381019061006e9190613382565b610124565b6040516100809190613413565b60405180910390f35b6100a3600480360381019061009e91906134b0565b6106cb565b6040516100b09190613506565b60405180910390f35b6100d360048036038101906100ce919061390e565b610720565b6040516100e1929190613adb565b60405180910390f35b61010460048036038101906100ff9190613b5e565b610b59565b005b61010e610c3b565b60405161011b9190613bb8565b60405180910390f35b5f5f60ff16845f01602081019061013b9190613c07565b60ff1614610175576040517f7205212000000000000000000000000000000000000000000000000000000000815260040160405180910390fd5b5f8480604001906101869190613c3e565b9050036101bf576040517f542f0af500000000000000000000000000000000000000000000000000000000815260040160405180910390fd5b5f6101cb858585610c53565b90505f3390505f8680604001906101e29190613c3e565b905067ffffffffffffffff8111156101fd576101fc613533565b5b60405190808252806020026020018201604052801561023657816020015b6102236130cf565b81526020019060019003908161021b5790505b5090505f5f90505b87806040019061024e9190613c3e565b905081101561054b57368880604001906102689190613c3e565b8381811061027957610278613ca0565b5b905060200281019061028b9190613ccd565b90508060800160208101906102a09190613cf4565b156102d7576040517faa25f2ad00000000000000000000000000000000000000000000000000000000815260040160405180910390fd5b5f856080015183815181106102ef576102ee613ca0565b5b60200260200101519050805f0151156103205761031b8286836020015184606001518a6040015161121e565b61053c565b6103286130cf565b5f5f90505b85518110156104fd575f73ffffffffffffffffffffffffffffffffffffffff168682815181106103605761035f613ca0565b5b60200260200101515f015173ffffffffffffffffffffffffffffffffffffffff160361047a578260200151825f019073ffffffffffffffffffffffffffffffffffffffff16908173ffffffffffffffffffffffffffffffffffffffff16815250505f67ffffffffffffffff8111156103db576103da613533565b5b60405190808252806020026020018201604052801561041457816020015b610401613104565b8152602001906001900390816103f95790505b5082602001819052505f836020015173eeeeeeeeeeeeeeeeeeeeeeeeeeeeeeeeeeeeeeee604051602001610449929190613d1f565b60405160208183030381529060405280519060200120905061046b88826106cb565b836040018181525050506104fd565b826020015173ffffffffffffffffffffffffffffffffffffffff168682815181106104a8576104a7613ca0565b5b60200260200101515f015173ffffffffffffffffffffffffffffffffffffffff16036104f0578581815181106104e1576104e0613ca0565b5b602002602001015191506104fd565b808060010191505061032d565b6105188c868986602001518c606001518860400151886114bb565b91508186828151811061052e5761052d613ca0565b5b602002602001018190525050505b5050808060010191505061023e565b505f815167ffffffffffffffff81111561056857610567613533565b5b6040519080825280602002602001820160405280156105a157816020015b61058e6130cf565b8152602001906001900390816105865790505b5090505f5f5f90505b8351811015610657575f8482815181106105c7576105c6613ca0565b5b6020026020010151602001515111806105fd57505f8482815181106105ef576105ee613ca0565b5b602002602001015160400151115b1561064a5783818151811061061557610614613ca0565b5b60200260200101518383815181106106305761062f613ca0565b5b6020026020010181905250818061064690613d73565b9250505b80806001019150506105aa565b508082523689806040019061066c9190613c3e565b60018c806040019061067e9190613c3e565b905061068a9190613dba565b81811061069a57610699613ca0565b5b90506020028101906106ac9190613ccd565b90506106b88184611964565b505050825f015193505050509392505050565b5f5f5f8473ffffffffffffffffffffffffffffffffffffffff1673ffffffffffffffffffffffffffffffffffffffff1681526020019081526020015f205f8381526020019081526020015f2054905092915050565b5f6060855f0160208101906107359190613ded565b73ffffffffffffffffffffffffffffffffffffffff16875f015173ffffffffffffffffffffffffffffffffffffffff1614610775575f8391509150610b4f565b86602001515183516107879190613e18565b67ffffffffffffffff8111156107a05761079f613533565b5b6040519080825280602002602001820160405280156107d957816020015b6107c6613104565b8152602001906001900390816107be5790505b5090505f5f90505b8351811015610830578381815181106107fd576107fc613ca0565b5b602002602001015182828151811061081857610817613ca0565b5b602002602001018190525080806001019150506107e1565b505f835190505f5f90505b886020015151811015610b45575f896020015182815181106108605761085f613ca0565b5b602002602001015190505f61089282606001518b80604001906108839190613e4b565b611d5a9290919263ffffffff16565b509050816080015181169050815f0151156109f3575f815f1c90505f898d866040516020016108c393929190614086565b6040516020818303038152906040528051906020012090505f6108e4613104565b5f5f90505b89518110156109bc575f5f1b8a828151811061090857610907613ca0565b5b60200260200101515f0151036109625760405180604001604052808581526020015f8152509150818a828151811061094357610942613ca0565b5b602002602001018190525060018161095b9190613e18565b98506109bc565b838a828151811061097657610975613ca0565b5b60200260200101515f0151036109af5789818151811061099957610998613ca0565b5b60200260200101519150816020015192506109bc565b80806001019150506108e9565b505f82036109d1576109ce8d846106cb565b91505b81846109dd9190613e18565b935083816020018181525050835f1b9450505050505b5f6003811115610a0657610a05613ef4565b5b82602001516003811115610a1d57610a1c613ef4565b5b03610a415781604001518114610a3c575f879550955050505050610b4f565b610b36565b600380811115610a5457610a53613ef4565b5b82602001516003811115610a6b57610a6a613ef4565b5b03610a945781604001515f1c815f1c1115610a8f575f879550955050505050610b4f565b610b35565b60016003811115610aa857610aa7613ef4565b5b82602001516003811115610abf57610abe613ef4565b5b03610ae35781604001518103610ade575f879550955050505050610b4f565b610b34565b60026003811115610af757610af6613ef4565b5b82602001516003811115610b0e57610b0d613ef4565b5b03610b335781604001515f1c815f1c1015610b32575f879550955050505050610b4f565b5b5b5b5b5050808060010191505061083b565b5080825260019250505b9550959350505050565b5f3390505f5f90505b83839050811015610c3557610b9282858584818110610b8457610b83613ca0565b5b9050604002015f01356106cb565b848483818110610ba557610ba4613ca0565b5b905060400201602001351015610be6576040517e2a700a00000000000000000000000000000000000000000000000000000000815260040160405180910390fd5b610c2882858584818110610bfd57610bfc613ca0565b5b9050604002015f0135868685818110610c1957610c18613ca0565b5b90506040020160200135611d70565b8080600101915050610b62565b50505050565b73eeeeeeeeeeeeeeeeeeeeeeeeeeeeeeeeeeeeeeee81565b610c5b61311c565b5f5f90505f5f610c76838787611e009290919263ffffffff16565b8162ffffff1691508094508192505050610cab868685908487610c999190613e18565b92610ca6939291906140ca565b611e1b565b80935081955050508083610cbf9190613e18565b92505f73ffffffffffffffffffffffffffffffffffffffff16846020015173ffffffffffffffffffffffffffffffffffffffff1603610d2a576040517f9e5c658b00000000000000000000000000000000000000000000000000000000815260040160405180910390fd5b5060605f610d438488886125c39290919263ffffffff16565b80955081925050508060ff1667ffffffffffffffff811115610d6857610d67613533565b5b604051908082528060200260200182016040528015610da157816020015b610d8e61315f565b815260200190600190039081610d865790505b5091505f5f90505b8160ff16811015610eed57610dbc61315f565b610dc78989886125de565b80975081925050505f5f5f610de7898d8d6127969290919263ffffffff16565b809c50819450829550839650505050505f610e01856127f9565b90505f6001828487876040515f8152602001604052604051610e269493929190614113565b6020604051602081039080840390855afa158015610e46573d5f5f3e3d5ffd5b5050506020604051035190508b6020015173ffffffffffffffffffffffffffffffffffffffff168173ffffffffffffffffffffffffffffffffffffffff1614610ebb576040517f9e5c658b00000000000000000000000000000000000000000000000000000000815260040160405180910390fd5b505050505080848381518110610ed457610ed3613ca0565b5b6020026020010181905250508080600101915050610da9565b505f8160ff16118015610efe575082155b15610f35576040517feb62520400000000000000000000000000000000000000000000000000000000815260040160405180910390fd5b505f878060400190610f479190613c3e565b905090508067ffffffffffffffff811115610f6557610f64613533565b5b604051908082528060200260200182016040528015610f9e57816020015b610f8b6131cc565b815260200190600190039081610f835790505b5085608001819052505f5f90505b8181101561121257610fbc6131cc565b5f610fd2878b8b6125c39290919263ffffffff16565b80985081925050505f6080821660ff161415825f019015159081151581525050815f01511561106b575f607f8216905085518160ff161061103f576040517fbd8ba84d00000000000000000000000000000000000000000000000000000000815260040160405180910390fd5b858160ff168151811061105557611054613ca0565b5b602002602001015183606001819052505061107e565b80826040019060ff16908160ff16815250505b505f5f5f611097898d8d6127969290919263ffffffff16565b809c50819450829550839650505050505f6110e48e80604001906110bb9190613c3e565b888181106110cc576110cb613ca0565b5b90506020028101906110de9190613ccd565b8f612811565b90506001818386866040515f81526020016040526040516111089493929190614113565b6020604051602081039080840390855afa158015611128573d5f5f3e3d5ffd5b50505060206040510351856020019073ffffffffffffffffffffffffffffffffffffffff16908173ffffffffffffffffffffffffffffffffffffffff16815250505f73ffffffffffffffffffffffffffffffffffffffff16856020015173ffffffffffffffffffffffffffffffffffffffff16036111dd575f6040517fc1e84ed60000000000000000000000000000000000000000000000000000000081526004016111d49190613bb8565b60405180910390fd5b5050505080876080015183815181106111f9576111f8613ca0565b5b6020026020010181905250508080600101915050610fac565b50505050509392505050565b815f015173ffffffffffffffffffffffffffffffffffffffff168373ffffffffffffffffffffffffffffffffffffffff161461129157826040517fc1e84ed60000000000000000000000000000000000000000000000000000000081526004016112889190613bb8565b60405180910390fd5b8460800160208101906112a49190613cf4565b156112db576040517faa25f2ad00000000000000000000000000000000000000000000000000000000815260040160405180910390fd5b6112e5838261287e565b1561132757826040517fd33f19e700000000000000000000000000000000000000000000000000000000815260040161131e9190613bb8565b60405180910390fd5b611342855f01602081019061133c9190613ded565b8261287e565b1561139557845f0160208101906113599190613ded565b6040517fd33f19e700000000000000000000000000000000000000000000000000000000815260040161138c9190613bb8565b60405180910390fd5b5f856020013511156113d3576040517faa7feadc00000000000000000000000000000000000000000000000000000000815260040160405180910390fd5b5f855f0160208101906113e69190613ded565b73ffffffffffffffffffffffffffffffffffffffff16639d043a668685896040518463ffffffff1660e01b8152600401611422939291906144e8565b602060405180830381865afa15801561143d573d5f5f3e3d5ffd5b505050506040513d601f19601f82011682018060405250810190611461919061453f565b90505f611477868561298b90919063ffffffff16565b90508082146114b2576040517f0881ad5d00000000000000000000000000000000000000000000000000000000815260040160405180910390fd5b50505050505050565b6114c36130cf565b6114cb613212565b5f5f90505b8551811015611558578673ffffffffffffffffffffffffffffffffffffffff1686828151811061150357611502613ca0565b5b60200260200101515f015173ffffffffffffffffffffffffffffffffffffffff160361154b5785818151811061153c5761153b613ca0565b5b60200260200101519150611558565b80806001019150506114d0565b505f73ffffffffffffffffffffffffffffffffffffffff16815f015173ffffffffffffffffffffffffffffffffffffffff16036115cc57856040517fc1e84ed60000000000000000000000000000000000000000000000000000000081526004016115c39190613bb8565b60405180910390fd5b5f8160200151141580156115e4575046816020015114155b1561162a5780602001516040517f331003b30000000000000000000000000000000000000000000000000000000081526004016116219190613506565b60405180910390fd5b5f816060015167ffffffffffffffff16141580156116555750806060015167ffffffffffffffff1642115b1561169b5780606001516040517fb1bbfdd500000000000000000000000000000000000000000000000000000000815260040161169291906145a3565b60405180910390fd5b368980604001906116ac9190613c3e565b8a8181106116bd576116bc613ca0565b5b90506020028101906116cf9190613ccd565b90508060800160208101906116e49190613cf4565b1561171b576040517faa25f2ad00000000000000000000000000000000000000000000000000000000815260040160405180910390fd5b3073ffffffffffffffffffffffffffffffffffffffff16815f0160208101906117449190613ded565b73ffffffffffffffffffffffffffffffffffffffff1603611827575f8180604001906117709190613e4b565b5f90600492611781939291906140ca565b9061178c91906145d2565b90505f826020013511806117e557506342de141860e01b7bffffffffffffffffffffffffffffffffffffffffffffffffffffffff1916817bffffffffffffffffffffffffffffffffffffffffffffffffffffffff191614155b1561181c576040517f540733ea00000000000000000000000000000000000000000000000000000000815260040160405180910390fd5b849350505050611959565b8160800151518560ff1610611868576040517f3f904dc000000000000000000000000000000000000000000000000000000000815260040160405180910390fd5b5f82608001518660ff168151811061188357611882613ca0565b5b602002602001015190505f5f6118a083858d8d8b60200151610720565b91509150816118db576040517f868a64de00000000000000000000000000000000000000000000000000000000815260040160405180910390fd5b8087602001819052505f8460200135111561190e578360200135876040018181516119069190613e18565b915081815250505b846040015187604001511115611950576040517faa7feadc00000000000000000000000000000000000000000000000000000000815260040160405180910390fd5b86955050505050505b979650505050505050565b5f81511115611d56573073ffffffffffffffffffffffffffffffffffffffff16825f0160208101906119969190613ded565b73ffffffffffffffffffffffffffffffffffffffff161415806119c15750600160ff168260c0013514155b156119f7576040517e2a700a00000000000000000000000000000000000000000000000000000000815260040160405180910390fd5b5f5f90505f5f90505b8251811015611a7857828181518110611a1c57611a1b613ca0565b5b6020026020010151602001515182611a349190613e18565b91505f838281518110611a4a57611a49613ca0565b5b6020026020010151604001511115611a6b578180611a6790613d73565b9250505b8080600101915050611a00565b505f8167ffffffffffffffff811115611a9457611a93613533565b5b604051908082528060200260200182016040528015611acd57816020015b611aba613104565b815260200190600190039081611ab25790505b5090505f5f90505f5f90505b8451811015611c69575f5f90505b858281518110611afa57611af9613ca0565b5b60200260200101516020015151811015611b7e57858281518110611b2157611b20613ca0565b5b6020026020010151602001518181518110611b3f57611b3e613ca0565b5b6020026020010151848480611b5390613d73565b955081518110611b6657611b65613ca0565b5b60200260200101819052508080600101915050611ae7565b505f858281518110611b9357611b92613ca0565b5b6020026020010151604001511115611c5c576040518060400160405280868381518110611bc357611bc2613ca0565b5b60200260200101515f015173eeeeeeeeeeeeeeeeeeeeeeeeeeeeeeeeeeeeeeee604051602001611bf4929190613d1f565b604051602081830303815290604052805190602001208152602001868381518110611c2257611c21613ca0565b5b602002602001015160400151815250838380611c3d90613d73565b945081518110611c5057611c4f613ca0565b5b60200260200101819052505b8080600101915050611ad9565b505f6342de141860e01b83604051602401611c849190614630565b604051602081830303815290604052907bffffffffffffffffffffffffffffffffffffffffffffffffffffffff19166020820180517bffffffffffffffffffffffffffffffffffffffffffffffffffffffff838183161783525050505090505f818051906020012090505f878060400190611cff9190613e4b565b604051611d0d92919061467e565b60405180910390209050818114611d4f576040517e2a700a00000000000000000000000000000000000000000000000000000000815260040160405180910390fd5b5050505050505b5050565b5f5f848301359150602083019050935093915050565b805f5f8573ffffffffffffffffffffffffffffffffffffffff1673ffffffffffffffffffffffffffffffffffffffff1681526020019081526020015f205f8481526020019081526020015f20819055507f42063b8d32ac0a88f94053143bb30a789b3d5dfabb27d6c8a54e23d4fef30851838383604051611df393929190614696565b60405180910390a1505050565b5f5f848301358060e81c925060038401915050935093915050565b611e2361311c565b5f5f5f5f603e87879050611e3791906146f8565b90508067ffffffffffffffff811115611e5357611e52613533565b5b604051908082528060200260200182016040528015611e8c57816020015b611e79613212565b815260200190600190039081611e715790505b508560600181905250505b858590508210156125ae575f611eb88388886125c39290919263ffffffff16565b8160ff16915080945081925050505f600460f08316901c90505f810361204057611ee0613212565b5f859050611ef9868b8b6129ed9290919263ffffffff16565b835f018198508273ffffffffffffffffffffffffffffffffffffffff1673ffffffffffffffffffffffffffffffffffffffff168152505050611f46868b8b612a1e9290919263ffffffff16565b83602001819850828152505050611f68868b8b612a1e9290919263ffffffff16565b83604001819850828152505050611f8a868b8b612a349290919263ffffffff16565b836060018198508267ffffffffffffffff1667ffffffffffffffff168152505050611fb68a8a88612a4f565b8360800181985082905250505f611fdd8b8b84908a92611fd8939291906140ca565b612b23565b90505f5f1b895f015103611ff15780611fff565b611ffe895f015182612b57565b5b895f01818152505050818860600151868061201990613d73565b97508151811061202c5761202b613ca0565b5b602002602001018190525050505050611e97565b60018103612096575f61205e858a8a611d5a9290919263ffffffff16565b80965081925050505f5f1b875f0151036120785780612086565b612085875f015182612b57565b5b875f018181525050505050611e97565b600281036122d3575f5f600f841660ff1690506120c586828c8c612b6b9190939291909392919063ffffffff16565b8097508193505050505f81866120db9190613e18565b90505f5f6120f98c8c8a9086926120f4939291906140ca565b611e1b565b91509150829750801561215057881561213e576040517feb62520400000000000000000000000000000000000000000000000000000000815260040160405180910390fd5b6001985081604001518a604001819052505b5f73ffffffffffffffffffffffffffffffffffffffff16826020015173ffffffffffffffffffffffffffffffffffffffff161461222d575f73ffffffffffffffffffffffffffffffffffffffff168a6020015173ffffffffffffffffffffffffffffffffffffffff16146121f0576040517f9e5c658b00000000000000000000000000000000000000000000000000000000815260040160405180910390fd5b81602001518a6020019073ffffffffffffffffffffffffffffffffffffffff16908173ffffffffffffffffffffffffffffffffffffffff16815250505b5f5f90505b826060015151811015612299578260600151818151811061225657612255613ca0565b5b60200260200101518b60600151898061226e90613d73565b9a508151811061228157612280613ca0565b5b60200260200101819052508080600101915050612232565b505f5f1b8a5f0151036122af57815f01516122c0565b6122bf8a5f0151835f0151612b57565b5b8a5f018181525050505050505050611e97565b60038103612472578415612313576040517feb62520400000000000000000000000000000000000000000000000000000000815260040160405180910390fd5b600194505f600f83169050600f810361234b5761233b858a8a612b989290919263ffffffff16565b8161ffff16915080965081925050505b5f8590508167ffffffffffffffff81111561236957612368613533565b5b6040519080825280602002602001820160405280156123975781602001602082028036833780820191505090505b5088604001819052505f5f90505b82811015612422576123c2878c8c6129ed9290919263ffffffff16565b8a6040015183815181106123d9576123d8613ca0565b5b602002602001018199508273ffffffffffffffffffffffffffffffffffffffff1673ffffffffffffffffffffffffffffffffffffffff16815250505080806001019150506123a5565b505f61243e8b8b84908a92612439939291906140ca565b612bb3565b90505f5f1b895f0151036124525780612460565b61245f895f015182612b57565b5b895f0181815250505050505050611e97565b60048103612571575f73ffffffffffffffffffffffffffffffffffffffff16866020015173ffffffffffffffffffffffffffffffffffffffff16146124e3576040517f9e5c658b00000000000000000000000000000000000000000000000000000000815260040160405180910390fd5b6124f88489896129ed9290919263ffffffff16565b876020018196508273ffffffffffffffffffffffffffffffffffffffff1673ffffffffffffffffffffffffffffffffffffffff1681525050505f61253f8760200151612be8565b90505f5f1b875f0151036125535780612561565b612560875f015182612b57565b5b875f018181525050505050611e97565b806040517f0ad997900000000000000000000000000000000000000000000000000000000081526004016125a59190613506565b60405180910390fd5b5f846060015190508181525050509250929050565b5f5f848301358060f81c925060018401915050935093915050565b6125e661315f565b5f8290506125ff8186866129ed9290919263ffffffff16565b835f018193508273ffffffffffffffffffffffffffffffffffffffff1673ffffffffffffffffffffffffffffffffffffffff16815250505061264c818686612c1a9290919263ffffffff16565b83602001819350827bffffffffffffffffffffffffffffffffffffffffffffffffffffffff19167bffffffffffffffffffffffffffffffffffffffffffffffffffffffff191681525050506126ac818686611d5a9290919263ffffffff16565b836040018193508281525050506126ce818686611d5a9290919263ffffffff16565b836060018193508281525050505f6126f1828787611e009290919263ffffffff16565b8162ffffff16915080935081925050508585839083856127119190613e18565b9261271e939291906140ca565b8080601f0160208091040260200160405190810160405280939291908181526020018383808284375f81840152601f19601f82011690508083019250505050505050836080018190525080826127749190613e18565b9150612781868684612c54565b8460a001819450829052505050935093915050565b5f5f5f5f5f8786013594506020880186013590506040860191505f60ff82901c90507f7fffffffffffffffffffffffffffffffffffffffffffffffffffffffffffffff82165f1b9450601b816127ec9190614728565b9350505093509350935093565b5f61280382612d3e565b805190602001209050919050565b5f8160200160208101906128259190613cf4565b61282f5746612831565b5f5b8260600135836080013561284d86612848906148cb565b612d97565b604051602001612860949392919061491d565b60405160208183030381529060405280519060200120905092915050565b5f5f5f90505f600184516128929190614973565b90505b80821361297f575f600283836128ab9190614973565b6128b591906149b3565b836128c09190614a1b565b90505f8582815181106128d6576128d5613ca0565b5b602002602001015190508673ffffffffffffffffffffffffffffffffffffffff168173ffffffffffffffffffffffffffffffffffffffff1603612920576001945050505050612985565b8673ffffffffffffffffffffffffffffffffffffffff168173ffffffffffffffffffffffffffffffffffffffff161015612968576001826129619190614a1b565b9350612978565b6001826129759190614973565b92505b5050612895565b5f925050505b92915050565b5f60405160200161299b90614ab0565b6040516020818303038152906040528051906020012082846060015185604001516040516020016129cf9493929190614b09565b60405160208183030381529060405280519060200120905092915050565b5f5f8483013573ffffffffffffffffffffffffffffffffffffffff8160601c16925060148401915050935093915050565b5f5f848301359150602083019050935093915050565b5f5f848301358060c01c925060088401915050935093915050565b60605f5f612a688487876125c39290919263ffffffff16565b8160ff16915080955081925050508067ffffffffffffffff811115612a9057612a8f613533565b5b604051908082528060200260200182016040528015612ac957816020015b612ab661325d565b815260200190600190039081612aae5790505b5092505f5f90505b81811015612b1357612ae4878787612e18565b858381518110612af757612af6613ca0565b5b6020026020010181975082905250508080600101915050612ad1565b5082849250925050935093915050565b5f5f8383604051602001612b3993929190614b8a565b60405160208183030381529060405280519060200120905092915050565b5f825f528160205260405f20905092915050565b5f5f858401356008840261010003600180866008021b0382821c1693508486019250505094509492505050565b5f5f848301358060f01c925060028401915050935093915050565b5f60038383604051602001612bca93929190614b8a565b60405160208183030381529060405280519060200120905092915050565b5f600482604051602001612bfd929190614bb3565b604051602081830303815290604052805190602001209050919050565b5f5f848301357fffffffff000000000000000000000000000000000000000000000000000000008116925060048401915050935093915050565b612c5c61328c565b5f5f612c73848787611e009290919263ffffffff16565b8095508192505050858585908362ffffff1687612c909190613e18565b92612c9d939291906140ca565b8080601f0160208091040260200160405190810160405280939291908181526020018383808284375f81840152601f19601f82011690508083019250505050505050835f01819052508062ffffff1684612cf79190613e18565b9350612d0e848787612a349290919263ffffffff16565b846020018196508267ffffffffffffffff1667ffffffffffffffff16815250505082849250925050935093915050565b6060815f01518260200151836040015184606001518560800151518660800151612d6b8860a00151613097565b604051602001612d819796959493929190614c70565b6040516020818303038152906040529050919050565b5f7f0603985259a953da1f65a522f589c17bd1d0117ec1d3abb7c0788aef251ef4375f1b825f01518360200151846040015180519060200120856060015186608001518760a001518860c00151604051602001612dfb989796959493929190614ce8565b604051602081830303815290604052805190602001209050919050565b612e2061325d565b5f612e368386866129ed9290919263ffffffff16565b835f018195508273ffffffffffffffffffffffffffffffffffffffff1673ffffffffffffffffffffffffffffffffffffffff1681525050505f612e848487876125c39290919263ffffffff16565b8160ff16915080955081925050508067ffffffffffffffff811115612eac57612eab613533565b5b604051908082528060200260200182016040528015612ee557816020015b612ed26132af565b815260200190600190039081612eca5790505b5083602001819052505f5f90505b81811015613087575f612f118689896125c39290919263ffffffff16565b80975081925050505f6001821660ff16141585602001518381518110612f3a57612f39613ca0565b5b60200260200101515f01901515908115158152505060018160ff16901c60ff166003811115612f6c57612f6b613ef4565b5b85602001518381518110612f8357612f82613ca0565b5b6020026020010151602001906003811115612fa157612fa0613ef4565b5b90816003811115612fb557612fb4613ef4565b5b81525050612fce868989611d5a9290919263ffffffff16565b86602001518481518110612fe557612fe4613ca0565b5b602002602001015160400181985082815250505061300e868989612a1e9290919263ffffffff16565b8660200151848151811061302557613024613ca0565b5b602002602001015160600181985082815250505061304e868989611d5a9290919263ffffffff16565b8660200151848151811061306557613064613ca0565b5b6020026020010151608001819850828152505050508080600101915050612ef3565b5082849250925050935093915050565b6060815f015151825f015183602001516040516020016130b993929190614d98565b6040516020818303038152906040529050919050565b60405180606001604052805f73ffffffffffffffffffffffffffffffffffffffff168152602001606081526020015f81525090565b60405180604001604052805f81526020015f81525090565b6040518060a001604052805f81526020015f73ffffffffffffffffffffffffffffffffffffffff1681526020016060815260200160608152602001606081525090565b6040518060c001604052805f73ffffffffffffffffffffffffffffffffffffffff1681526020015f7bffffffffffffffffffffffffffffffffffffffffffffffffffffffff191681526020015f81526020015f8152602001606081526020016131c661328c565b81525090565b60405180608001604052805f151581526020015f73ffffffffffffffffffffffffffffffffffffffff1681526020015f60ff16815260200161320c61315f565b81525090565b6040518060a001604052805f73ffffffffffffffffffffffffffffffffffffffff1681526020015f81526020015f81526020015f67ffffffffffffffff168152602001606081525090565b60405180604001604052805f73ffffffffffffffffffffffffffffffffffffffff168152602001606081525090565b6040518060400160405280606081526020015f67ffffffffffffffff1681525090565b6040518060a001604052805f151581526020015f60038111156132d5576132d4613ef4565b5b81526020015f81526020015f81526020015f81525090565b5f604051905090565b5f5ffd5b5f5ffd5b5f5ffd5b5f6101208284031215613318576133176132fe565b5b81905092915050565b5f5ffd5b5f5ffd5b5f5ffd5b5f5f83601f84011261334257613341613321565b5b8235905067ffffffffffffffff81111561335f5761335e613325565b5b60208301915083600182028301111561337b5761337a613329565b5b9250929050565b5f5f5f60408486031215613399576133986132f6565b5b5f84013567ffffffffffffffff8111156133b6576133b56132fa565b5b6133c286828701613302565b935050602084013567ffffffffffffffff8111156133e3576133e26132fa565b5b6133ef8682870161332d565b92509250509250925092565b5f819050919050565b61340d816133fb565b82525050565b5f6020820190506134265f830184613404565b92915050565b5f73ffffffffffffffffffffffffffffffffffffffff82169050919050565b5f6134558261342c565b9050919050565b6134658161344b565b811461346f575f5ffd5b50565b5f813590506134808161345c565b92915050565b61348f816133fb565b8114613499575f5ffd5b50565b5f813590506134aa81613486565b92915050565b5f5f604083850312156134c6576134c56132f6565b5b5f6134d385828601613472565b92505060206134e48582860161349c565b9150509250929050565b5f819050919050565b613500816134ee565b82525050565b5f6020820190506135195f8301846134f7565b92915050565b5f5ffd5b5f601f19601f8301169050919050565b7f4e487b71000000000000000000000000000000000000000000000000000000005f52604160045260245ffd5b61356982613523565b810181811067ffffffffffffffff8211171561358857613587613533565b5b80604052505050565b5f61359a6132ed565b90506135a68282613560565b919050565b5f5ffd5b5f67ffffffffffffffff8211156135c9576135c8613533565b5b602082029050602081019050919050565b5f8115159050919050565b6135ee816135da565b81146135f8575f5ffd5b50565b5f81359050613609816135e5565b92915050565b6004811061361b575f5ffd5b50565b5f8135905061362c8161360f565b92915050565b61363b816134ee565b8114613645575f5ffd5b50565b5f8135905061365681613632565b92915050565b5f60a082840312156136715761367061351f565b5b61367b60a0613591565b90505f61368a848285016135fb565b5f83015250602061369d8482850161361e565b60208301525060406136b18482850161349c565b60408301525060606136c584828501613648565b60608301525060806136d98482850161349c565b60808301525092915050565b5f6136f76136f2846135af565b613591565b90508083825260208201905060a0840283018581111561371a57613719613329565b5b835b81811015613743578061372f888261365c565b84526020840193505060a08101905061371c565b5050509392505050565b5f82601f83011261376157613760613321565b5b81356137718482602086016136e5565b91505092915050565b5f6040828403121561378f5761378e61351f565b5b6137996040613591565b90505f6137a884828501613472565b5f83015250602082013567ffffffffffffffff8111156137cb576137ca6135ab565b5b6137d78482850161374d565b60208301525092915050565b5f60e082840312156137f8576137f76132fe565b5b81905092915050565b5f67ffffffffffffffff82111561381b5761381a613533565b5b602082029050602081019050919050565b5f604082840312156138415761384061351f565b5b61384b6040613591565b90505f61385a8482850161349c565b5f83015250602061386d84828501613648565b60208301525092915050565b5f61388b61388684613801565b613591565b905080838252602082019050604084028301858111156138ae576138ad613329565b5b835b818110156138d757806138c3888261382c565b8452602084019350506040810190506138b0565b5050509392505050565b5f82601f8301126138f5576138f4613321565b5b8135613905848260208601613879565b91505092915050565b5f5f5f5f5f60a08688031215613927576139266132f6565b5b5f86013567ffffffffffffffff811115613944576139436132fa565b5b6139508882890161377a565b955050602086013567ffffffffffffffff811115613971576139706132fa565b5b61397d888289016137e3565b945050604061398e88828901613472565b935050606061399f88828901613472565b925050608086013567ffffffffffffffff8111156139c0576139bf6132fa565b5b6139cc888289016138e1565b9150509295509295909350565b6139e2816135da565b82525050565b5f81519050919050565b5f82825260208201905092915050565b5f819050602082019050919050565b613a1a816133fb565b82525050565b613a29816134ee565b82525050565b604082015f820151613a435f850182613a11565b506020820151613a566020850182613a20565b50505050565b5f613a678383613a2f565b60408301905092915050565b5f602082019050919050565b5f613a89826139e8565b613a9381856139f2565b9350613a9e83613a02565b805f5b83811015613ace578151613ab58882613a5c565b9750613ac083613a73565b925050600181019050613aa1565b5085935050505092915050565b5f604082019050613aee5f8301856139d9565b8181036020830152613b008184613a7f565b90509392505050565b5f5f83601f840112613b1e57613b1d613321565b5b8235905067ffffffffffffffff811115613b3b57613b3a613325565b5b602083019150836040820283011115613b5757613b56613329565b5b9250929050565b5f5f60208385031215613b7457613b736132f6565b5b5f83013567ffffffffffffffff811115613b9157613b906132fa565b5b613b9d85828601613b09565b92509250509250929050565b613bb28161344b565b82525050565b5f602082019050613bcb5f830184613ba9565b92915050565b5f60ff82169050919050565b613be681613bd1565b8114613bf0575f5ffd5b50565b5f81359050613c0181613bdd565b92915050565b5f60208284031215613c1c57613c1b6132f6565b5b5f613c2984828501613bf3565b91505092915050565b5f5ffd5b5f5ffd5b5f5ffd5b5f5f83356001602003843603038112613c5a57613c59613c32565b5b80840192508235915067ffffffffffffffff821115613c7c57613c7b613c36565b5b602083019250602082023603831315613c9857613c97613c3a565b5b509250929050565b7f4e487b71000000000000000000000000000000000000000000000000000000005f52603260045260245ffd5b5f8235600160e003833603038112613ce857613ce7613c32565b5b80830191505092915050565b5f60208284031215613d0957613d086132f6565b5b5f613d16848285016135fb565b91505092915050565b5f604082019050613d325f830185613ba9565b613d3f6020830184613ba9565b9392505050565b7f4e487b71000000000000000000000000000000000000000000000000000000005f52601160045260245ffd5b5f613d7d826134ee565b91507fffffffffffffffffffffffffffffffffffffffffffffffffffffffffffffffff8203613daf57613dae613d46565b5b600182019050919050565b5f613dc4826134ee565b9150613dcf836134ee565b9250828203905081811115613de757613de6613d46565b5b92915050565b5f60208284031215613e0257613e016132f6565b5b5f613e0f84828501613472565b91505092915050565b5f613e22826134ee565b9150613e2d836134ee565b9250828201905080821115613e4557613e44613d46565b5b92915050565b5f5f83356001602003843603038112613e6757613e66613c32565b5b80840192508235915067ffffffffffffffff821115613e8957613e88613c36565b5b602083019250600182023603831315613ea557613ea4613c3a565b5b509250929050565b613eb68161344b565b82525050565b5f81519050919050565b5f82825260208201905092915050565b5f819050602082019050919050565b613eee816135da565b82525050565b7f4e487b71000000000000000000000000000000000000000000000000000000005f52602160045260245ffd5b60048110613f3257613f31613ef4565b5b50565b5f819050613f4282613f21565b919050565b5f613f5182613f35565b9050919050565b613f6181613f47565b82525050565b60a082015f820151613f7b5f850182613ee5565b506020820151613f8e6020850182613f58565b506040820151613fa16040850182613a11565b506060820151613fb46060850182613a20565b506080820151613fc76080850182613a11565b50505050565b5f613fd88383613f67565b60a08301905092915050565b5f602082019050919050565b5f613ffa82613ebc565b6140048185613ec6565b935061400f83613ed6565b805f5b8381101561403f5781516140268882613fcd565b975061403183613fe4565b925050600181019050614012565b5085935050505092915050565b5f604083015f8301516140615f860182613ead565b50602083015184820360208601526140798282613ff0565b9150508091505092915050565b5f6060820190506140995f830186613ba9565b81810360208301526140ab818561404c565b90506140ba60408301846134f7565b949350505050565b5f5ffd5b5f5ffd5b5f5f858511156140dd576140dc6140c2565b5b838611156140ee576140ed6140c6565b5b6001850283019150848603905094509492505050565b61410d81613bd1565b82525050565b5f6080820190506141265f830187613404565b6141336020830186614104565b6141406040830185613404565b61414d6060830184613404565b95945050505050565b5f7fffffffff0000000000000000000000000000000000000000000000000000000082169050919050565b61418a81614156565b82525050565b5f81519050919050565b5f82825260208201905092915050565b8281835e5f83830152505050565b5f6141c282614190565b6141cc818561419a565b93506141dc8185602086016141aa565b6141e581613523565b840191505092915050565b5f81519050919050565b5f82825260208201905092915050565b5f614214826141f0565b61421e81856141fa565b935061422e8185602086016141aa565b61423781613523565b840191505092915050565b5f67ffffffffffffffff82169050919050565b61425e81614242565b82525050565b5f604083015f8301518482035f86015261427e828261420a565b91505060208301516142936020860182614255565b508091505092915050565b5f60c083015f8301516142b35f860182613ead565b5060208301516142c66020860182614181565b5060408301516142d96040860182613a11565b5060608301516142ec6060860182613a11565b506080830151848203608086015261430482826141b8565b91505060a083015184820360a086015261431e8282614264565b9150508091505092915050565b5f6143396020840184613472565b905092915050565b5f61434f6020840184613648565b905092915050565b5f5ffd5b5f5ffd5b5f5ffd5b5f5f8335600160200384360303811261437f5761437e61435f565b5b83810192508235915060208301925067ffffffffffffffff8211156143a7576143a6614357565b5b6001820236038313156143bd576143bc61435b565b5b509250929050565b828183375f83830152505050565b5f6143de838561419a565b93506143eb8385846143c5565b6143f483613523565b840190509392505050565b5f61440d60208401846135fb565b905092915050565b5f60e083016144265f84018461432b565b6144325f860182613ead565b506144406020840184614341565b61444d6020860182613a20565b5061445b6040840184614363565b858303604087015261446e8382846143d3565b9250505061447f6060840184614341565b61448c6060860182613a20565b5061449a60808401846143ff565b6144a76080860182613ee5565b506144b560a08401846143ff565b6144c260a0860182613ee5565b506144d060c0840184614341565b6144dd60c0860182613a20565b508091505092915050565b5f6060820190506144fb5f830186613ba9565b818103602083015261450d818561429e565b905081810360408301526145218184614415565b9050949350505050565b5f8151905061453981613486565b92915050565b5f60208284031215614554576145536132f6565b5b5f6145618482850161452b565b91505092915050565b5f819050919050565b5f61458d61458861458384614242565b61456a565b6134ee565b9050919050565b61459d81614573565b82525050565b5f6020820190506145b65f830184614594565b92915050565b5f82905092915050565b5f82821b905092915050565b5f6145dd83836145bc565b826145e88135614156565b92506004821015614628576146237fffffffff00000000000000000000000000000000000000000000000000000000836004036008026145c6565b831692505b505092915050565b5f6020820190508181035f8301526146488184613a7f565b905092915050565b5f81905092915050565b5f6146658385614650565b93506146728385846143c5565b82840190509392505050565b5f61468a82848661465a565b91508190509392505050565b5f6060820190506146a95f830186613ba9565b6146b66020830185613404565b6146c360408301846134f7565b949350505050565b7f4e487b71000000000000000000000000000000000000000000000000000000005f52601260045260245ffd5b5f614702826134ee565b915061470d836134ee565b92508261471d5761471c6146cb565b5b828204905092915050565b5f61473282613bd1565b915061473d83613bd1565b9250828201905060ff81111561475657614755613d46565b5b92915050565b5f5ffd5b5f67ffffffffffffffff82111561477a57614779613533565b5b61478382613523565b9050602081019050919050565b5f6147a261479d84614760565b613591565b9050828152602081018484840111156147be576147bd61475c565b5b6147c98482856143c5565b509392505050565b5f82601f8301126147e5576147e4613321565b5b81356147f5848260208601614790565b91505092915050565b5f60e082840312156148135761481261351f565b5b61481d60e0613591565b90505f61482c84828501613472565b5f83015250602061483f84828501613648565b602083015250604082013567ffffffffffffffff811115614863576148626135ab565b5b61486f848285016147d1565b604083015250606061488384828501613648565b6060830152506080614897848285016135fb565b60808301525060a06148ab848285016135fb565b60a08301525060c06148bf84828501613648565b60c08301525092915050565b5f6148d636836147fe565b9050919050565b5f819050919050565b6148f76148f2826134ee565b6148dd565b82525050565b5f819050919050565b614917614912826133fb565b6148fd565b82525050565b5f61492882876148e6565b60208201915061493882866148e6565b60208201915061494882856148e6565b6020820191506149588284614906565b60208201915081905095945050505050565b5f819050919050565b5f61497d8261496a565b91506149888361496a565b925082820390508181125f8412168282135f8512151617156149ad576149ac613d46565b5b92915050565b5f6149bd8261496a565b91506149c88361496a565b9250826149d8576149d76146cb565b5b60015f0383147f800000000000000000000000000000000000000000000000000000000000000083141615614a1057614a0f613d46565b5b828205905092915050565b5f614a258261496a565b9150614a308361496a565b92508282019050828112155f8312168382125f841215161715614a5657614a55613d46565b5b92915050565b5f81905092915050565b7f616363657074496d706c696369745265717565737400000000000000000000005f82015250565b5f614a9a601583614a5c565b9150614aa582614a66565b601582019050919050565b5f614aba82614a8e565b9150819050919050565b5f8160601b9050919050565b5f614ada82614ac4565b9050919050565b5f614aeb82614ad0565b9050919050565b614b03614afe8261344b565b614ae1565b82525050565b5f614b148287614906565b602082019150614b248286614af2565b601482019150614b348285614906565b602082019150614b448284614906565b60208201915081905095945050505050565b5f8160f81b9050919050565b5f614b6c82614b56565b9050919050565b614b84614b7f82613bd1565b614b62565b82525050565b5f614b958286614b73565b600182019150614ba682848661465a565b9150819050949350505050565b5f614bbe8285614b73565b600182019150614bce8284614af2565b6014820191508190509392505050565b5f819050919050565b614bf8614bf382614156565b614bde565b82525050565b5f62ffffff82169050919050565b5f8160e81b9050919050565b5f614c2282614c0c565b9050919050565b614c3a614c3582614bfe565b614c18565b82525050565b5f614c4a82614190565b614c548185614650565b9350614c648185602086016141aa565b80840191505092915050565b5f614c7b828a614af2565b601482019150614c8b8289614be7565b600482019150614c9b8288614906565b602082019150614cab8287614906565b602082019150614cbb8286614c29565b600382019150614ccb8285614c40565b9150614cd78284614c40565b915081905098975050505050505050565b5f61010082019050614cfc5f83018b613404565b614d09602083018a613ba9565b614d1660408301896134f7565b614d236060830188613404565b614d3060808301876134f7565b614d3d60a08301866139d9565b614d4a60c08301856139d9565b614d5760e08301846134f7565b9998505050505050505050565b5f8160c01b9050919050565b5f614d7a82614d64565b9050919050565b614d92614d8d82614242565b614d70565b82525050565b5f614da38286614c29565b600382019150614db38285614c40565b9150614dbf8284614d81565b60088201915081905094935050505056fea2646970667358221220f96b0bb846a39f6d615bc3301dc79b1702e6e13e53de4cf930ab8d53f11ac7d464736f6c634300081c0033",
          "opcodes": "PUSH1 0x80 PUSH1 0x40 MSTORE CALLVALUE DUP1 ISZERO PUSH1 0xE JUMPI PUSH0 PUSH0 REVERT JUMPDEST POP PUSH2 0x4E06 DUP1 PUSH2 0x1C PUSH0 CODECOPY PUSH0 RETURN INVALID PUSH1 0x80 PUSH1 0x40 MSTORE CALLVALUE DUP1 ISZERO PUSH2 0xF JUMPI PUSH0 PUSH0 REVERT JUMPDEST POP PUSH1 0x4 CALLDATASIZE LT PUSH2 0x55 JUMPI PUSH0 CALLDATALOAD PUSH1 0xE0 SHR DUP1 PUSH4 0x13792A4A EQ PUSH2 0x59 JUMPI DUP1 PUSH4 0x23B3713E EQ PUSH2 0x89 JUMPI DUP1 PUSH4 0x313DADE7 EQ PUSH2 0xB9 JUMPI DUP1 PUSH4 0x42DE1418 EQ PUSH2 0xEA JUMPI DUP1 PUSH4 0xF916F3B2 EQ PUSH2 0x106 JUMPI JUMPDEST PUSH0 PUSH0 REVERT JUMPDEST PUSH2 0x73 PUSH1 0x4 DUP1 CALLDATASIZE SUB DUP2 ADD SWAP1 PUSH2 0x6E SWAP2 SWAP1 PUSH2 0x3382 JUMP JUMPDEST PUSH2 0x124 JUMP JUMPDEST PUSH1 0x40 MLOAD PUSH2 0x80 SWAP2 SWAP1 PUSH2 0x3413 JUMP JUMPDEST PUSH1 0x40 MLOAD DUP1 SWAP2 SUB SWAP1 RETURN JUMPDEST PUSH2 0xA3 PUSH1 0x4 DUP1 CALLDATASIZE SUB DUP2 ADD SWAP1 PUSH2 0x9E SWAP2 SWAP1 PUSH2 0x34B0 JUMP JUMPDEST PUSH2 0x6CB JUMP JUMPDEST PUSH1 0x40 MLOAD PUSH2 0xB0 SWAP2 SWAP1 PUSH2 0x3506 JUMP JUMPDEST PUSH1 0x40 MLOAD DUP1 SWAP2 SUB SWAP1 RETURN JUMPDEST PUSH2 0xD3 PUSH1 0x4 DUP1 CALLDATASIZE SUB DUP2 ADD SWAP1 PUSH2 0xCE SWAP2 SWAP1 PUSH2 0x390E JUMP JUMPDEST PUSH2 0x720 JUMP JUMPDEST PUSH1 0x40 MLOAD PUSH2 0xE1 SWAP3 SWAP2 SWAP1 PUSH2 0x3ADB JUMP JUMPDEST PUSH1 0x40 MLOAD DUP1 SWAP2 SUB SWAP1 RETURN JUMPDEST PUSH2 0x104 PUSH1 0x4 DUP1 CALLDATASIZE SUB DUP2 ADD SWAP1 PUSH2 0xFF SWAP2 SWAP1 PUSH2 0x3B5E JUMP JUMPDEST PUSH2 0xB59 JUMP JUMPDEST STOP JUMPDEST PUSH2 0x10E PUSH2 0xC3B JUMP JUMPDEST PUSH1 0x40 MLOAD PUSH2 0x11B SWAP2 SWAP1 PUSH2 0x3BB8 JUMP JUMPDEST PUSH1 0x40 MLOAD DUP1 SWAP2 SUB SWAP1 RETURN JUMPDEST PUSH0 PUSH0 PUSH1 0xFF AND DUP5 PUSH0 ADD PUSH1 0x20 DUP2 ADD SWAP1 PUSH2 0x13B SWAP2 SWAP1 PUSH2 0x3C07 JUMP JUMPDEST PUSH1 0xFF AND EQ PUSH2 0x175 JUMPI PUSH1 0x40 MLOAD PUSH32 0x7205212000000000000000000000000000000000000000000000000000000000 DUP2 MSTORE PUSH1 0x4 ADD PUSH1 0x40 MLOAD DUP1 SWAP2 SUB SWAP1 REVERT JUMPDEST PUSH0 DUP5 DUP1 PUSH1 0x40 ADD SWAP1 PUSH2 0x186 SWAP2 SWAP1 PUSH2 0x3C3E JUMP JUMPDEST SWAP1 POP SUB PUSH2 0x1BF JUMPI PUSH1 0x40 MLOAD PUSH32 0x542F0AF500000000000000000000000000000000000000000000000000000000 DUP2 MSTORE PUSH1 0x4 ADD PUSH1 0x40 MLOAD DUP1 SWAP2 SUB SWAP1 REVERT JUMPDEST PUSH0 PUSH2 0x1CB DUP6 DUP6 DUP6 PUSH2 0xC53 JUMP JUMPDEST SWAP1 POP PUSH0 CALLER SWAP1 POP PUSH0 DUP7 DUP1 PUSH1 0x40 ADD SWAP1 PUSH2 0x1E2 SWAP2 SWAP1 PUSH2 0x3C3E JUMP JUMPDEST SWAP1 POP PUSH8 0xFFFFFFFFFFFFFFFF DUP2 GT ISZERO PUSH2 0x1FD JUMPI PUSH2 0x1FC PUSH2 0x3533 JUMP JUMPDEST JUMPDEST PUSH1 0x40 MLOAD SWAP1 DUP1 DUP3 MSTORE DUP1 PUSH1 0x20 MUL PUSH1 0x20 ADD DUP3 ADD PUSH1 0x40 MSTORE DUP1 ISZERO PUSH2 0x236 JUMPI DUP2 PUSH1 0x20 ADD JUMPDEST PUSH2 0x223 PUSH2 0x30CF JUMP JUMPDEST DUP2 MSTORE PUSH1 0x20 ADD SWAP1 PUSH1 0x1 SWAP1 SUB SWAP1 DUP2 PUSH2 0x21B JUMPI SWAP1 POP JUMPDEST POP SWAP1 POP PUSH0 PUSH0 SWAP1 POP JUMPDEST DUP8 DUP1 PUSH1 0x40 ADD SWAP1 PUSH2 0x24E SWAP2 SWAP1 PUSH2 0x3C3E JUMP JUMPDEST SWAP1 POP DUP2 LT ISZERO PUSH2 0x54B JUMPI CALLDATASIZE DUP9 DUP1 PUSH1 0x40 ADD SWAP1 PUSH2 0x268 SWAP2 SWAP1 PUSH2 0x3C3E JUMP JUMPDEST DUP4 DUP2 DUP2 LT PUSH2 0x279 JUMPI PUSH2 0x278 PUSH2 0x3CA0 JUMP JUMPDEST JUMPDEST SWAP1 POP PUSH1 0x20 MUL DUP2 ADD SWAP1 PUSH2 0x28B SWAP2 SWAP1 PUSH2 0x3CCD JUMP JUMPDEST SWAP1 POP DUP1 PUSH1 0x80 ADD PUSH1 0x20 DUP2 ADD SWAP1 PUSH2 0x2A0 SWAP2 SWAP1 PUSH2 0x3CF4 JUMP JUMPDEST ISZERO PUSH2 0x2D7 JUMPI PUSH1 0x40 MLOAD PUSH32 0xAA25F2AD00000000000000000000000000000000000000000000000000000000 DUP2 MSTORE PUSH1 0x4 ADD PUSH1 0x40 MLOAD DUP1 SWAP2 SUB SWAP1 REVERT JUMPDEST PUSH0 DUP6 PUSH1 0x80 ADD MLOAD DUP4 DUP2 MLOAD DUP2 LT PUSH2 0x2EF JUMPI PUSH2 0x2EE PUSH2 0x3CA0 JUMP JUMPDEST JUMPDEST PUSH1 0x20 MUL PUSH1 0x20 ADD ADD MLOAD SWAP1 POP DUP1 PUSH0 ADD MLOAD ISZERO PUSH2 0x320 JUMPI PUSH2 0x31B DUP3 DUP7 DUP4 PUSH1 0x20 ADD MLOAD DUP5 PUSH1 0x60 ADD MLOAD DUP11 PUSH1 0x40 ADD MLOAD PUSH2 0x121E JUMP JUMPDEST PUSH2 0x53C JUMP JUMPDEST PUSH2 0x328 PUSH2 0x30CF JUMP JUMPDEST PUSH0 PUSH0 SWAP1 POP JUMPDEST DUP6 MLOAD DUP2 LT ISZERO PUSH2 0x4FD JUMPI PUSH0 PUSH20 0xFFFFFFFFFFFFFFFFFFFFFFFFFFFFFFFFFFFFFFFF AND DUP7 DUP3 DUP2 MLOAD DUP2 LT PUSH2 0x360 JUMPI PUSH2 0x35F PUSH2 0x3CA0 JUMP JUMPDEST JUMPDEST PUSH1 0x20 MUL PUSH1 0x20 ADD ADD MLOAD PUSH0 ADD MLOAD PUSH20 0xFFFFFFFFFFFFFFFFFFFFFFFFFFFFFFFFFFFFFFFF AND SUB PUSH2 0x47A JUMPI DUP3 PUSH1 0x20 ADD MLOAD DUP3 PUSH0 ADD SWAP1 PUSH20 0xFFFFFFFFFFFFFFFFFFFFFFFFFFFFFFFFFFFFFFFF AND SWAP1 DUP2 PUSH20 0xFFFFFFFFFFFFFFFFFFFFFFFFFFFFFFFFFFFFFFFF AND DUP2 MSTORE POP POP PUSH0 PUSH8 0xFFFFFFFFFFFFFFFF DUP2 GT ISZERO PUSH2 0x3DB JUMPI PUSH2 0x3DA PUSH2 0x3533 JUMP JUMPDEST JUMPDEST PUSH1 0x40 MLOAD SWAP1 DUP1 DUP3 MSTORE DUP1 PUSH1 0x20 MUL PUSH1 0x20 ADD DUP3 ADD PUSH1 0x40 MSTORE DUP1 ISZERO PUSH2 0x414 JUMPI DUP2 PUSH1 0x20 ADD JUMPDEST PUSH2 0x401 PUSH2 0x3104 JUMP JUMPDEST DUP2 MSTORE PUSH1 0x20 ADD SWAP1 PUSH1 0x1 SWAP1 SUB SWAP1 DUP2 PUSH2 0x3F9 JUMPI SWAP1 POP JUMPDEST POP DUP3 PUSH1 0x20 ADD DUP2 SWAP1 MSTORE POP PUSH0 DUP4 PUSH1 0x20 ADD MLOAD PUSH20 0xEEEEEEEEEEEEEEEEEEEEEEEEEEEEEEEEEEEEEEEE PUSH1 0x40 MLOAD PUSH1 0x20 ADD PUSH2 0x449 SWAP3 SWAP2 SWAP1 PUSH2 0x3D1F JUMP JUMPDEST PUSH1 0x40 MLOAD PUSH1 0x20 DUP2 DUP4 SUB SUB DUP2 MSTORE SWAP1 PUSH1 0x40 MSTORE DUP1 MLOAD SWAP1 PUSH1 0x20 ADD KECCAK256 SWAP1 POP PUSH2 0x46B DUP9 DUP3 PUSH2 0x6CB JUMP JUMPDEST DUP4 PUSH1 0x40 ADD DUP2 DUP2 MSTORE POP POP POP PUSH2 0x4FD JUMP JUMPDEST DUP3 PUSH1 0x20 ADD MLOAD PUSH20 0xFFFFFFFFFFFFFFFFFFFFFFFFFFFFFFFFFFFFFFFF AND DUP7 DUP3 DUP2 MLOAD DUP2 LT PUSH2 0x4A8 JUMPI PUSH2 0x4A7 PUSH2 0x3CA0 JUMP JUMPDEST JUMPDEST PUSH1 0x20 MUL PUSH1 0x20 ADD ADD MLOAD PUSH0 ADD MLOAD PUSH20 0xFFFFFFFFFFFFFFFFFFFFFFFFFFFFFFFFFFFFFFFF AND SUB PUSH2 0x4F0 JUMPI DUP6 DUP2 DUP2 MLOAD DUP2 LT PUSH2 0x4E1 JUMPI PUSH2 0x4E0 PUSH2 0x3CA0 JUMP JUMPDEST JUMPDEST PUSH1 0x20 MUL PUSH1 0x20 ADD ADD MLOAD SWAP2 POP PUSH2 0x4FD JUMP JUMPDEST DUP1 DUP1 PUSH1 0x1 ADD SWAP2 POP POP PUSH2 0x32D JUMP JUMPDEST PUSH2 0x518 DUP13 DUP7 DUP10 DUP7 PUSH1 0x20 ADD MLOAD DUP13 PUSH1 0x60 ADD MLOAD DUP9 PUSH1 0x40 ADD MLOAD DUP9 PUSH2 0x14BB JUMP JUMPDEST SWAP2 POP DUP2 DUP7 DUP3 DUP2 MLOAD DUP2 LT PUSH2 0x52E JUMPI PUSH2 0x52D PUSH2 0x3CA0 JUMP JUMPDEST JUMPDEST PUSH1 0x20 MUL PUSH1 0x20 ADD ADD DUP2 SWAP1 MSTORE POP POP POP JUMPDEST POP POP DUP1 DUP1 PUSH1 0x1 ADD SWAP2 POP POP PUSH2 0x23E JUMP JUMPDEST POP PUSH0 DUP2 MLOAD PUSH8 0xFFFFFFFFFFFFFFFF DUP2 GT ISZERO PUSH2 0x568 JUMPI PUSH2 0x567 PUSH2 0x3533 JUMP JUMPDEST JUMPDEST PUSH1 0x40 MLOAD SWAP1 DUP1 DUP3 MSTORE DUP1 PUSH1 0x20 MUL PUSH1 0x20 ADD DUP3 ADD PUSH1 0x40 MSTORE DUP1 ISZERO PUSH2 0x5A1 JUMPI DUP2 PUSH1 0x20 ADD JUMPDEST PUSH2 0x58E PUSH2 0x30CF JUMP JUMPDEST DUP2 MSTORE PUSH1 0x20 ADD SWAP1 PUSH1 0x1 SWAP1 SUB SWAP1 DUP2 PUSH2 0x586 JUMPI SWAP1 POP JUMPDEST POP SWAP1 POP PUSH0 PUSH0 PUSH0 SWAP1 POP JUMPDEST DUP4 MLOAD DUP2 LT ISZERO PUSH2 0x657 JUMPI PUSH0 DUP5 DUP3 DUP2 MLOAD DUP2 LT PUSH2 0x5C7 JUMPI PUSH2 0x5C6 PUSH2 0x3CA0 JUMP JUMPDEST JUMPDEST PUSH1 0x20 MUL PUSH1 0x20 ADD ADD MLOAD PUSH1 0x20 ADD MLOAD MLOAD GT DUP1 PUSH2 0x5FD JUMPI POP PUSH0 DUP5 DUP3 DUP2 MLOAD DUP2 LT PUSH2 0x5EF JUMPI PUSH2 0x5EE PUSH2 0x3CA0 JUMP JUMPDEST JUMPDEST PUSH1 0x20 MUL PUSH1 0x20 ADD ADD MLOAD PUSH1 0x40 ADD MLOAD GT JUMPDEST ISZERO PUSH2 0x64A JUMPI DUP4 DUP2 DUP2 MLOAD DUP2 LT PUSH2 0x615 JUMPI PUSH2 0x614 PUSH2 0x3CA0 JUMP JUMPDEST JUMPDEST PUSH1 0x20 MUL PUSH1 0x20 ADD ADD MLOAD DUP4 DUP4 DUP2 MLOAD DUP2 LT PUSH2 0x630 JUMPI PUSH2 0x62F PUSH2 0x3CA0 JUMP JUMPDEST JUMPDEST PUSH1 0x20 MUL PUSH1 0x20 ADD ADD DUP2 SWAP1 MSTORE POP DUP2 DUP1 PUSH2 0x646 SWAP1 PUSH2 0x3D73 JUMP JUMPDEST SWAP3 POP POP JUMPDEST DUP1 DUP1 PUSH1 0x1 ADD SWAP2 POP POP PUSH2 0x5AA JUMP JUMPDEST POP DUP1 DUP3 MSTORE CALLDATASIZE DUP10 DUP1 PUSH1 0x40 ADD SWAP1 PUSH2 0x66C SWAP2 SWAP1 PUSH2 0x3C3E JUMP JUMPDEST PUSH1 0x1 DUP13 DUP1 PUSH1 0x40 ADD SWAP1 PUSH2 0x67E SWAP2 SWAP1 PUSH2 0x3C3E JUMP JUMPDEST SWAP1 POP PUSH2 0x68A SWAP2 SWAP1 PUSH2 0x3DBA JUMP JUMPDEST DUP2 DUP2 LT PUSH2 0x69A JUMPI PUSH2 0x699 PUSH2 0x3CA0 JUMP JUMPDEST JUMPDEST SWAP1 POP PUSH1 0x20 MUL DUP2 ADD SWAP1 PUSH2 0x6AC SWAP2 SWAP1 PUSH2 0x3CCD JUMP JUMPDEST SWAP1 POP PUSH2 0x6B8 DUP2 DUP5 PUSH2 0x1964 JUMP JUMPDEST POP POP POP DUP3 PUSH0 ADD MLOAD SWAP4 POP POP POP POP SWAP4 SWAP3 POP POP POP JUMP JUMPDEST PUSH0 PUSH0 PUSH0 DUP5 PUSH20 0xFFFFFFFFFFFFFFFFFFFFFFFFFFFFFFFFFFFFFFFF AND PUSH20 0xFFFFFFFFFFFFFFFFFFFFFFFFFFFFFFFFFFFFFFFF AND DUP2 MSTORE PUSH1 0x20 ADD SWAP1 DUP2 MSTORE PUSH1 0x20 ADD PUSH0 KECCAK256 PUSH0 DUP4 DUP2 MSTORE PUSH1 0x20 ADD SWAP1 DUP2 MSTORE PUSH1 0x20 ADD PUSH0 KECCAK256 SLOAD SWAP1 POP SWAP3 SWAP2 POP POP JUMP JUMPDEST PUSH0 PUSH1 0x60 DUP6 PUSH0 ADD PUSH1 0x20 DUP2 ADD SWAP1 PUSH2 0x735 SWAP2 SWAP1 PUSH2 0x3DED JUMP JUMPDEST PUSH20 0xFFFFFFFFFFFFFFFFFFFFFFFFFFFFFFFFFFFFFFFF AND DUP8 PUSH0 ADD MLOAD PUSH20 0xFFFFFFFFFFFFFFFFFFFFFFFFFFFFFFFFFFFFFFFF AND EQ PUSH2 0x775 JUMPI PUSH0 DUP4 SWAP2 POP SWAP2 POP PUSH2 0xB4F JUMP JUMPDEST DUP7 PUSH1 0x20 ADD MLOAD MLOAD DUP4 MLOAD PUSH2 0x787 SWAP2 SWAP1 PUSH2 0x3E18 JUMP JUMPDEST PUSH8 0xFFFFFFFFFFFFFFFF DUP2 GT ISZERO PUSH2 0x7A0 JUMPI PUSH2 0x79F PUSH2 0x3533 JUMP JUMPDEST JUMPDEST PUSH1 0x40 MLOAD SWAP1 DUP1 DUP3 MSTORE DUP1 PUSH1 0x20 MUL PUSH1 0x20 ADD DUP3 ADD PUSH1 0x40 MSTORE DUP1 ISZERO PUSH2 0x7D9 JUMPI DUP2 PUSH1 0x20 ADD JUMPDEST PUSH2 0x7C6 PUSH2 0x3104 JUMP JUMPDEST DUP2 MSTORE PUSH1 0x20 ADD SWAP1 PUSH1 0x1 SWAP1 SUB SWAP1 DUP2 PUSH2 0x7BE JUMPI SWAP1 POP JUMPDEST POP SWAP1 POP PUSH0 PUSH0 SWAP1 POP JUMPDEST DUP4 MLOAD DUP2 LT ISZERO PUSH2 0x830 JUMPI DUP4 DUP2 DUP2 MLOAD DUP2 LT PUSH2 0x7FD JUMPI PUSH2 0x7FC PUSH2 0x3CA0 JUMP JUMPDEST JUMPDEST PUSH1 0x20 MUL PUSH1 0x20 ADD ADD MLOAD DUP3 DUP3 DUP2 MLOAD DUP2 LT PUSH2 0x818 JUMPI PUSH2 0x817 PUSH2 0x3CA0 JUMP JUMPDEST JUMPDEST PUSH1 0x20 MUL PUSH1 0x20 ADD ADD DUP2 SWAP1 MSTORE POP DUP1 DUP1 PUSH1 0x1 ADD SWAP2 POP POP PUSH2 0x7E1 JUMP JUMPDEST POP PUSH0 DUP4 MLOAD SWAP1 POP PUSH0 PUSH0 SWAP1 POP JUMPDEST DUP9 PUSH1 0x20 ADD MLOAD MLOAD DUP2 LT ISZERO PUSH2 0xB45 JUMPI PUSH0 DUP10 PUSH1 0x20 ADD MLOAD DUP3 DUP2 MLOAD DUP2 LT PUSH2 0x860 JUMPI PUSH2 0x85F PUSH2 0x3CA0 JUMP JUMPDEST JUMPDEST PUSH1 0x20 MUL PUSH1 0x20 ADD ADD MLOAD SWAP1 POP PUSH0 PUSH2 0x892 DUP3 PUSH1 0x60 ADD MLOAD DUP12 DUP1 PUSH1 0x40 ADD SWAP1 PUSH2 0x883 SWAP2 SWAP1 PUSH2 0x3E4B JUMP JUMPDEST PUSH2 0x1D5A SWAP3 SWAP1 SWAP2 SWAP3 PUSH4 0xFFFFFFFF AND JUMP JUMPDEST POP SWAP1 POP DUP2 PUSH1 0x80 ADD MLOAD DUP2 AND SWAP1 POP DUP2 PUSH0 ADD MLOAD ISZERO PUSH2 0x9F3 JUMPI PUSH0 DUP2 PUSH0 SHR SWAP1 POP PUSH0 DUP10 DUP14 DUP7 PUSH1 0x40 MLOAD PUSH1 0x20 ADD PUSH2 0x8C3 SWAP4 SWAP3 SWAP2 SWAP1 PUSH2 0x4086 JUMP JUMPDEST PUSH1 0x40 MLOAD PUSH1 0x20 DUP2 DUP4 SUB SUB DUP2 MSTORE SWAP1 PUSH1 0x40 MSTORE DUP1 MLOAD SWAP1 PUSH1 0x20 ADD KECCAK256 SWAP1 POP PUSH0 PUSH2 0x8E4 PUSH2 0x3104 JUMP JUMPDEST PUSH0 PUSH0 SWAP1 POP JUMPDEST DUP10 MLOAD DUP2 LT ISZERO PUSH2 0x9BC JUMPI PUSH0 PUSH0 SHL DUP11 DUP3 DUP2 MLOAD DUP2 LT PUSH2 0x908 JUMPI PUSH2 0x907 PUSH2 0x3CA0 JUMP JUMPDEST JUMPDEST PUSH1 0x20 MUL PUSH1 0x20 ADD ADD MLOAD PUSH0 ADD MLOAD SUB PUSH2 0x962 JUMPI PUSH1 0x40 MLOAD DUP1 PUSH1 0x40 ADD PUSH1 0x40 MSTORE DUP1 DUP6 DUP2 MSTORE PUSH1 0x20 ADD PUSH0 DUP2 MSTORE POP SWAP2 POP DUP2 DUP11 DUP3 DUP2 MLOAD DUP2 LT PUSH2 0x943 JUMPI PUSH2 0x942 PUSH2 0x3CA0 JUMP JUMPDEST JUMPDEST PUSH1 0x20 MUL PUSH1 0x20 ADD ADD DUP2 SWAP1 MSTORE POP PUSH1 0x1 DUP2 PUSH2 0x95B SWAP2 SWAP1 PUSH2 0x3E18 JUMP JUMPDEST SWAP9 POP PUSH2 0x9BC JUMP JUMPDEST DUP4 DUP11 DUP3 DUP2 MLOAD DUP2 LT PUSH2 0x976 JUMPI PUSH2 0x975 PUSH2 0x3CA0 JUMP JUMPDEST JUMPDEST PUSH1 0x20 MUL PUSH1 0x20 ADD ADD MLOAD PUSH0 ADD MLOAD SUB PUSH2 0x9AF JUMPI DUP10 DUP2 DUP2 MLOAD DUP2 LT PUSH2 0x999 JUMPI PUSH2 0x998 PUSH2 0x3CA0 JUMP JUMPDEST JUMPDEST PUSH1 0x20 MUL PUSH1 0x20 ADD ADD MLOAD SWAP2 POP DUP2 PUSH1 0x20 ADD MLOAD SWAP3 POP PUSH2 0x9BC JUMP JUMPDEST DUP1 DUP1 PUSH1 0x1 ADD SWAP2 POP POP PUSH2 0x8E9 JUMP JUMPDEST POP PUSH0 DUP3 SUB PUSH2 0x9D1 JUMPI PUSH2 0x9CE DUP14 DUP5 PUSH2 0x6CB JUMP JUMPDEST SWAP2 POP JUMPDEST DUP2 DUP5 PUSH2 0x9DD SWAP2 SWAP1 PUSH2 0x3E18 JUMP JUMPDEST SWAP4 POP DUP4 DUP2 PUSH1 0x20 ADD DUP2 DUP2 MSTORE POP POP DUP4 PUSH0 SHL SWAP5 POP POP POP POP POP JUMPDEST PUSH0 PUSH1 0x3 DUP2 GT ISZERO PUSH2 0xA06 JUMPI PUSH2 0xA05 PUSH2 0x3EF4 JUMP JUMPDEST JUMPDEST DUP3 PUSH1 0x20 ADD MLOAD PUSH1 0x3 DUP2 GT ISZERO PUSH2 0xA1D JUMPI PUSH2 0xA1C PUSH2 0x3EF4 JUMP JUMPDEST JUMPDEST SUB PUSH2 0xA41 JUMPI DUP2 PUSH1 0x40 ADD MLOAD DUP2 EQ PUSH2 0xA3C JUMPI PUSH0 DUP8 SWAP6 POP SWAP6 POP POP POP POP POP PUSH2 0xB4F JUMP JUMPDEST PUSH2 0xB36 JUMP JUMPDEST PUSH1 0x3 DUP1 DUP2 GT ISZERO PUSH2 0xA54 JUMPI PUSH2 0xA53 PUSH2 0x3EF4 JUMP JUMPDEST JUMPDEST DUP3 PUSH1 0x20 ADD MLOAD PUSH1 0x3 DUP2 GT ISZERO PUSH2 0xA6B JUMPI PUSH2 0xA6A PUSH2 0x3EF4 JUMP JUMPDEST JUMPDEST SUB PUSH2 0xA94 JUMPI DUP2 PUSH1 0x40 ADD MLOAD PUSH0 SHR DUP2 PUSH0 SHR GT ISZERO PUSH2 0xA8F JUMPI PUSH0 DUP8 SWAP6 POP SWAP6 POP POP POP POP POP PUSH2 0xB4F JUMP JUMPDEST PUSH2 0xB35 JUMP JUMPDEST PUSH1 0x1 PUSH1 0x3 DUP2 GT ISZERO PUSH2 0xAA8 JUMPI PUSH2 0xAA7 PUSH2 0x3EF4 JUMP JUMPDEST JUMPDEST DUP3 PUSH1 0x20 ADD MLOAD PUSH1 0x3 DUP2 GT ISZERO PUSH2 0xABF JUMPI PUSH2 0xABE PUSH2 0x3EF4 JUMP JUMPDEST JUMPDEST SUB PUSH2 0xAE3 JUMPI DUP2 PUSH1 0x40 ADD MLOAD DUP2 SUB PUSH2 0xADE JUMPI PUSH0 DUP8 SWAP6 POP SWAP6 POP POP POP POP POP PUSH2 0xB4F JUMP JUMPDEST PUSH2 0xB34 JUMP JUMPDEST PUSH1 0x2 PUSH1 0x3 DUP2 GT ISZERO PUSH2 0xAF7 JUMPI PUSH2 0xAF6 PUSH2 0x3EF4 JUMP JUMPDEST JUMPDEST DUP3 PUSH1 0x20 ADD MLOAD PUSH1 0x3 DUP2 GT ISZERO PUSH2 0xB0E JUMPI PUSH2 0xB0D PUSH2 0x3EF4 JUMP JUMPDEST JUMPDEST SUB PUSH2 0xB33 JUMPI DUP2 PUSH1 0x40 ADD MLOAD PUSH0 SHR DUP2 PUSH0 SHR LT ISZERO PUSH2 0xB32 JUMPI PUSH0 DUP8 SWAP6 POP SWAP6 POP POP POP POP POP PUSH2 0xB4F JUMP JUMPDEST JUMPDEST JUMPDEST JUMPDEST JUMPDEST POP POP DUP1 DUP1 PUSH1 0x1 ADD SWAP2 POP POP PUSH2 0x83B JUMP JUMPDEST POP DUP1 DUP3 MSTORE PUSH1 0x1 SWAP3 POP POP JUMPDEST SWAP6 POP SWAP6 SWAP4 POP POP POP POP JUMP JUMPDEST PUSH0 CALLER SWAP1 POP PUSH0 PUSH0 SWAP1 POP JUMPDEST DUP4 DUP4 SWAP1 POP DUP2 LT ISZERO PUSH2 0xC35 JUMPI PUSH2 0xB92 DUP3 DUP6 DUP6 DUP5 DUP2 DUP2 LT PUSH2 0xB84 JUMPI PUSH2 0xB83 PUSH2 0x3CA0 JUMP JUMPDEST JUMPDEST SWAP1 POP PUSH1 0x40 MUL ADD PUSH0 ADD CALLDATALOAD PUSH2 0x6CB JUMP JUMPDEST DUP5 DUP5 DUP4 DUP2 DUP2 LT PUSH2 0xBA5 JUMPI PUSH2 0xBA4 PUSH2 0x3CA0 JUMP JUMPDEST JUMPDEST SWAP1 POP PUSH1 0x40 MUL ADD PUSH1 0x20 ADD CALLDATALOAD LT ISZERO PUSH2 0xBE6 JUMPI PUSH1 0x40 MLOAD PUSH31 0x2A700A00000000000000000000000000000000000000000000000000000000 DUP2 MSTORE PUSH1 0x4 ADD PUSH1 0x40 MLOAD DUP1 SWAP2 SUB SWAP1 REVERT JUMPDEST PUSH2 0xC28 DUP3 DUP6 DUP6 DUP5 DUP2 DUP2 LT PUSH2 0xBFD JUMPI PUSH2 0xBFC PUSH2 0x3CA0 JUMP JUMPDEST JUMPDEST SWAP1 POP PUSH1 0x40 MUL ADD PUSH0 ADD CALLDATALOAD DUP7 DUP7 DUP6 DUP2 DUP2 LT PUSH2 0xC19 JUMPI PUSH2 0xC18 PUSH2 0x3CA0 JUMP JUMPDEST JUMPDEST SWAP1 POP PUSH1 0x40 MUL ADD PUSH1 0x20 ADD CALLDATALOAD PUSH2 0x1D70 JUMP JUMPDEST DUP1 DUP1 PUSH1 0x1 ADD SWAP2 POP POP PUSH2 0xB62 JUMP JUMPDEST POP POP POP POP JUMP JUMPDEST PUSH20 0xEEEEEEEEEEEEEEEEEEEEEEEEEEEEEEEEEEEEEEEE DUP2 JUMP JUMPDEST PUSH2 0xC5B PUSH2 0x311C JUMP JUMPDEST PUSH0 PUSH0 SWAP1 POP PUSH0 PUSH0 PUSH2 0xC76 DUP4 DUP8 DUP8 PUSH2 0x1E00 SWAP3 SWAP1 SWAP2 SWAP3 PUSH4 0xFFFFFFFF AND JUMP JUMPDEST DUP2 PUSH3 0xFFFFFF AND SWAP2 POP DUP1 SWAP5 POP DUP2 SWAP3 POP POP POP PUSH2 0xCAB DUP7 DUP7 DUP6 SWAP1 DUP5 DUP8 PUSH2 0xC99 SWAP2 SWAP1 PUSH2 0x3E18 JUMP JUMPDEST SWAP3 PUSH2 0xCA6 SWAP4 SWAP3 SWAP2 SWAP1 PUSH2 0x40CA JUMP JUMPDEST PUSH2 0x1E1B JUMP JUMPDEST DUP1 SWAP4 POP DUP2 SWAP6 POP POP POP DUP1 DUP4 PUSH2 0xCBF SWAP2 SWAP1 PUSH2 0x3E18 JUMP JUMPDEST SWAP3 POP PUSH0 PUSH20 0xFFFFFFFFFFFFFFFFFFFFFFFFFFFFFFFFFFFFFFFF AND DUP5 PUSH1 0x20 ADD MLOAD PUSH20 0xFFFFFFFFFFFFFFFFFFFFFFFFFFFFFFFFFFFFFFFF AND SUB PUSH2 0xD2A JUMPI PUSH1 0x40 MLOAD PUSH32 0x9E5C658B00000000000000000000000000000000000000000000000000000000 DUP2 MSTORE PUSH1 0x4 ADD PUSH1 0x40 MLOAD DUP1 SWAP2 SUB SWAP1 REVERT JUMPDEST POP PUSH1 0x60 PUSH0 PUSH2 0xD43 DUP5 DUP9 DUP9 PUSH2 0x25C3 SWAP3 SWAP1 SWAP2 SWAP3 PUSH4 0xFFFFFFFF AND JUMP JUMPDEST DUP1 SWAP6 POP DUP2 SWAP3 POP POP POP DUP1 PUSH1 0xFF AND PUSH8 0xFFFFFFFFFFFFFFFF DUP2 GT ISZERO PUSH2 0xD68 JUMPI PUSH2 0xD67 PUSH2 0x3533 JUMP JUMPDEST JUMPDEST PUSH1 0x40 MLOAD SWAP1 DUP1 DUP3 MSTORE DUP1 PUSH1 0x20 MUL PUSH1 0x20 ADD DUP3 ADD PUSH1 0x40 MSTORE DUP1 ISZERO PUSH2 0xDA1 JUMPI DUP2 PUSH1 0x20 ADD JUMPDEST PUSH2 0xD8E PUSH2 0x315F JUMP JUMPDEST DUP2 MSTORE PUSH1 0x20 ADD SWAP1 PUSH1 0x1 SWAP1 SUB SWAP1 DUP2 PUSH2 0xD86 JUMPI SWAP1 POP JUMPDEST POP SWAP2 POP PUSH0 PUSH0 SWAP1 POP JUMPDEST DUP2 PUSH1 0xFF AND DUP2 LT ISZERO PUSH2 0xEED JUMPI PUSH2 0xDBC PUSH2 0x315F JUMP JUMPDEST PUSH2 0xDC7 DUP10 DUP10 DUP9 PUSH2 0x25DE JUMP JUMPDEST DUP1 SWAP8 POP DUP2 SWAP3 POP POP POP PUSH0 PUSH0 PUSH0 PUSH2 0xDE7 DUP10 DUP14 DUP14 PUSH2 0x2796 SWAP3 SWAP1 SWAP2 SWAP3 PUSH4 0xFFFFFFFF AND JUMP JUMPDEST DUP1 SWAP13 POP DUP2 SWAP5 POP DUP3 SWAP6 POP DUP4 SWAP7 POP POP POP POP POP PUSH0 PUSH2 0xE01 DUP6 PUSH2 0x27F9 JUMP JUMPDEST SWAP1 POP PUSH0 PUSH1 0x1 DUP3 DUP5 DUP8 DUP8 PUSH1 0x40 MLOAD PUSH0 DUP2 MSTORE PUSH1 0x20 ADD PUSH1 0x40 MSTORE PUSH1 0x40 MLOAD PUSH2 0xE26 SWAP5 SWAP4 SWAP3 SWAP2 SWAP1 PUSH2 0x4113 JUMP JUMPDEST PUSH1 0x20 PUSH1 0x40 MLOAD PUSH1 0x20 DUP2 SUB SWAP1 DUP1 DUP5 SUB SWAP1 DUP6 GAS STATICCALL ISZERO DUP1 ISZERO PUSH2 0xE46 JUMPI RETURNDATASIZE PUSH0 PUSH0 RETURNDATACOPY RETURNDATASIZE PUSH0 REVERT JUMPDEST POP POP POP PUSH1 0x20 PUSH1 0x40 MLOAD SUB MLOAD SWAP1 POP DUP12 PUSH1 0x20 ADD MLOAD PUSH20 0xFFFFFFFFFFFFFFFFFFFFFFFFFFFFFFFFFFFFFFFF AND DUP2 PUSH20 0xFFFFFFFFFFFFFFFFFFFFFFFFFFFFFFFFFFFFFFFF AND EQ PUSH2 0xEBB JUMPI PUSH1 0x40 MLOAD PUSH32 0x9E5C658B00000000000000000000000000000000000000000000000000000000 DUP2 MSTORE PUSH1 0x4 ADD PUSH1 0x40 MLOAD DUP1 SWAP2 SUB SWAP1 REVERT JUMPDEST POP POP POP POP POP DUP1 DUP5 DUP4 DUP2 MLOAD DUP2 LT PUSH2 0xED4 JUMPI PUSH2 0xED3 PUSH2 0x3CA0 JUMP JUMPDEST JUMPDEST PUSH1 0x20 MUL PUSH1 0x20 ADD ADD DUP2 SWAP1 MSTORE POP POP DUP1 DUP1 PUSH1 0x1 ADD SWAP2 POP POP PUSH2 0xDA9 JUMP JUMPDEST POP PUSH0 DUP2 PUSH1 0xFF AND GT DUP1 ISZERO PUSH2 0xEFE JUMPI POP DUP3 ISZERO JUMPDEST ISZERO PUSH2 0xF35 JUMPI PUSH1 0x40 MLOAD PUSH32 0xEB62520400000000000000000000000000000000000000000000000000000000 DUP2 MSTORE PUSH1 0x4 ADD PUSH1 0x40 MLOAD DUP1 SWAP2 SUB SWAP1 REVERT JUMPDEST POP PUSH0 DUP8 DUP1 PUSH1 0x40 ADD SWAP1 PUSH2 0xF47 SWAP2 SWAP1 PUSH2 0x3C3E JUMP JUMPDEST SWAP1 POP SWAP1 POP DUP1 PUSH8 0xFFFFFFFFFFFFFFFF DUP2 GT ISZERO PUSH2 0xF65 JUMPI PUSH2 0xF64 PUSH2 0x3533 JUMP JUMPDEST JUMPDEST PUSH1 0x40 MLOAD SWAP1 DUP1 DUP3 MSTORE DUP1 PUSH1 0x20 MUL PUSH1 0x20 ADD DUP3 ADD PUSH1 0x40 MSTORE DUP1 ISZERO PUSH2 0xF9E JUMPI DUP2 PUSH1 0x20 ADD JUMPDEST PUSH2 0xF8B PUSH2 0x31CC JUMP JUMPDEST DUP2 MSTORE PUSH1 0x20 ADD SWAP1 PUSH1 0x1 SWAP1 SUB SWAP1 DUP2 PUSH2 0xF83 JUMPI SWAP1 POP JUMPDEST POP DUP6 PUSH1 0x80 ADD DUP2 SWAP1 MSTORE POP PUSH0 PUSH0 SWAP1 POP JUMPDEST DUP2 DUP2 LT ISZERO PUSH2 0x1212 JUMPI PUSH2 0xFBC PUSH2 0x31CC JUMP JUMPDEST PUSH0 PUSH2 0xFD2 DUP8 DUP12 DUP12 PUSH2 0x25C3 SWAP3 SWAP1 SWAP2 SWAP3 PUSH4 0xFFFFFFFF AND JUMP JUMPDEST DUP1 SWAP9 POP DUP2 SWAP3 POP POP POP PUSH0 PUSH1 0x80 DUP3 AND PUSH1 0xFF AND EQ ISZERO DUP3 PUSH0 ADD SWAP1 ISZERO ISZERO SWAP1 DUP2 ISZERO ISZERO DUP2 MSTORE POP POP DUP2 PUSH0 ADD MLOAD ISZERO PUSH2 0x106B JUMPI PUSH0 PUSH1 0x7F DUP3 AND SWAP1 POP DUP6 MLOAD DUP2 PUSH1 0xFF AND LT PUSH2 0x103F JUMPI PUSH1 0x40 MLOAD PUSH32 0xBD8BA84D00000000000000000000000000000000000000000000000000000000 DUP2 MSTORE PUSH1 0x4 ADD PUSH1 0x40 MLOAD DUP1 SWAP2 SUB SWAP1 REVERT JUMPDEST DUP6 DUP2 PUSH1 0xFF AND DUP2 MLOAD DUP2 LT PUSH2 0x1055 JUMPI PUSH2 0x1054 PUSH2 0x3CA0 JUMP JUMPDEST JUMPDEST PUSH1 0x20 MUL PUSH1 0x20 ADD ADD MLOAD DUP4 PUSH1 0x60 ADD DUP2 SWAP1 MSTORE POP POP PUSH2 0x107E JUMP JUMPDEST DUP1 DUP3 PUSH1 0x40 ADD SWAP1 PUSH1 0xFF AND SWAP1 DUP2 PUSH1 0xFF AND DUP2 MSTORE POP POP JUMPDEST POP PUSH0 PUSH0 PUSH0 PUSH2 0x1097 DUP10 DUP14 DUP14 PUSH2 0x2796 SWAP3 SWAP1 SWAP2 SWAP3 PUSH4 0xFFFFFFFF AND JUMP JUMPDEST DUP1 SWAP13 POP DUP2 SWAP5 POP DUP3 SWAP6 POP DUP4 SWAP7 POP POP POP POP POP PUSH0 PUSH2 0x10E4 DUP15 DUP1 PUSH1 0x40 ADD SWAP1 PUSH2 0x10BB SWAP2 SWAP1 PUSH2 0x3C3E JUMP JUMPDEST DUP9 DUP2 DUP2 LT PUSH2 0x10CC JUMPI PUSH2 0x10CB PUSH2 0x3CA0 JUMP JUMPDEST JUMPDEST SWAP1 POP PUSH1 0x20 MUL DUP2 ADD SWAP1 PUSH2 0x10DE SWAP2 SWAP1 PUSH2 0x3CCD JUMP JUMPDEST DUP16 PUSH2 0x2811 JUMP JUMPDEST SWAP1 POP PUSH1 0x1 DUP2 DUP4 DUP7 DUP7 PUSH1 0x40 MLOAD PUSH0 DUP2 MSTORE PUSH1 0x20 ADD PUSH1 0x40 MSTORE PUSH1 0x40 MLOAD PUSH2 0x1108 SWAP5 SWAP4 SWAP3 SWAP2 SWAP1 PUSH2 0x4113 JUMP JUMPDEST PUSH1 0x20 PUSH1 0x40 MLOAD PUSH1 0x20 DUP2 SUB SWAP1 DUP1 DUP5 SUB SWAP1 DUP6 GAS STATICCALL ISZERO DUP1 ISZERO PUSH2 0x1128 JUMPI RETURNDATASIZE PUSH0 PUSH0 RETURNDATACOPY RETURNDATASIZE PUSH0 REVERT JUMPDEST POP POP POP PUSH1 0x20 PUSH1 0x40 MLOAD SUB MLOAD DUP6 PUSH1 0x20 ADD SWAP1 PUSH20 0xFFFFFFFFFFFFFFFFFFFFFFFFFFFFFFFFFFFFFFFF AND SWAP1 DUP2 PUSH20 0xFFFFFFFFFFFFFFFFFFFFFFFFFFFFFFFFFFFFFFFF AND DUP2 MSTORE POP POP PUSH0 PUSH20 0xFFFFFFFFFFFFFFFFFFFFFFFFFFFFFFFFFFFFFFFF AND DUP6 PUSH1 0x20 ADD MLOAD PUSH20 0xFFFFFFFFFFFFFFFFFFFFFFFFFFFFFFFFFFFFFFFF AND SUB PUSH2 0x11DD JUMPI PUSH0 PUSH1 0x40 MLOAD PUSH32 0xC1E84ED600000000000000000000000000000000000000000000000000000000 DUP2 MSTORE PUSH1 0x4 ADD PUSH2 0x11D4 SWAP2 SWAP1 PUSH2 0x3BB8 JUMP JUMPDEST PUSH1 0x40 MLOAD DUP1 SWAP2 SUB SWAP1 REVERT JUMPDEST POP POP POP POP DUP1 DUP8 PUSH1 0x80 ADD MLOAD DUP4 DUP2 MLOAD DUP2 LT PUSH2 0x11F9 JUMPI PUSH2 0x11F8 PUSH2 0x3CA0 JUMP JUMPDEST JUMPDEST PUSH1 0x20 MUL PUSH1 0x20 ADD ADD DUP2 SWAP1 MSTORE POP POP DUP1 DUP1 PUSH1 0x1 ADD SWAP2 POP POP PUSH2 0xFAC JUMP JUMPDEST POP POP POP POP POP SWAP4 SWAP3 POP POP POP JUMP JUMPDEST DUP2 PUSH0 ADD MLOAD PUSH20 0xFFFFFFFFFFFFFFFFFFFFFFFFFFFFFFFFFFFFFFFF AND DUP4 PUSH20 0xFFFFFFFFFFFFFFFFFFFFFFFFFFFFFFFFFFFFFFFF AND EQ PUSH2 0x1291 JUMPI DUP3 PUSH1 0x40 MLOAD PUSH32 0xC1E84ED600000000000000000000000000000000000000000000000000000000 DUP2 MSTORE PUSH1 0x4 ADD PUSH2 0x1288 SWAP2 SWAP1 PUSH2 0x3BB8 JUMP JUMPDEST PUSH1 0x40 MLOAD DUP1 SWAP2 SUB SWAP1 REVERT JUMPDEST DUP5 PUSH1 0x80 ADD PUSH1 0x20 DUP2 ADD SWAP1 PUSH2 0x12A4 SWAP2 SWAP1 PUSH2 0x3CF4 JUMP JUMPDEST ISZERO PUSH2 0x12DB JUMPI PUSH1 0x40 MLOAD PUSH32 0xAA25F2AD00000000000000000000000000000000000000000000000000000000 DUP2 MSTORE PUSH1 0x4 ADD PUSH1 0x40 MLOAD DUP1 SWAP2 SUB SWAP1 REVERT JUMPDEST PUSH2 0x12E5 DUP4 DUP3 PUSH2 0x287E JUMP JUMPDEST ISZERO PUSH2 0x1327 JUMPI DUP3 PUSH1 0x40 MLOAD PUSH32 0xD33F19E700000000000000000000000000000000000000000000000000000000 DUP2 MSTORE PUSH1 0x4 ADD PUSH2 0x131E SWAP2 SWAP1 PUSH2 0x3BB8 JUMP JUMPDEST PUSH1 0x40 MLOAD DUP1 SWAP2 SUB SWAP1 REVERT JUMPDEST PUSH2 0x1342 DUP6 PUSH0 ADD PUSH1 0x20 DUP2 ADD SWAP1 PUSH2 0x133C SWAP2 SWAP1 PUSH2 0x3DED JUMP JUMPDEST DUP3 PUSH2 0x287E JUMP JUMPDEST ISZERO PUSH2 0x1395 JUMPI DUP5 PUSH0 ADD PUSH1 0x20 DUP2 ADD SWAP1 PUSH2 0x1359 SWAP2 SWAP1 PUSH2 0x3DED JUMP JUMPDEST PUSH1 0x40 MLOAD PUSH32 0xD33F19E700000000000000000000000000000000000000000000000000000000 DUP2 MSTORE PUSH1 0x4 ADD PUSH2 0x138C SWAP2 SWAP1 PUSH2 0x3BB8 JUMP JUMPDEST PUSH1 0x40 MLOAD DUP1 SWAP2 SUB SWAP1 REVERT JUMPDEST PUSH0 DUP6 PUSH1 0x20 ADD CALLDATALOAD GT ISZERO PUSH2 0x13D3 JUMPI PUSH1 0x40 MLOAD PUSH32 0xAA7FEADC00000000000000000000000000000000000000000000000000000000 DUP2 MSTORE PUSH1 0x4 ADD PUSH1 0x40 MLOAD DUP1 SWAP2 SUB SWAP1 REVERT JUMPDEST PUSH0 DUP6 PUSH0 ADD PUSH1 0x20 DUP2 ADD SWAP1 PUSH2 0x13E6 SWAP2 SWAP1 PUSH2 0x3DED JUMP JUMPDEST PUSH20 0xFFFFFFFFFFFFFFFFFFFFFFFFFFFFFFFFFFFFFFFF AND PUSH4 0x9D043A66 DUP7 DUP6 DUP10 PUSH1 0x40 MLOAD DUP5 PUSH4 0xFFFFFFFF AND PUSH1 0xE0 SHL DUP2 MSTORE PUSH1 0x4 ADD PUSH2 0x1422 SWAP4 SWAP3 SWAP2 SWAP1 PUSH2 0x44E8 JUMP JUMPDEST PUSH1 0x20 PUSH1 0x40 MLOAD DUP1 DUP4 SUB DUP2 DUP7 GAS STATICCALL ISZERO DUP1 ISZERO PUSH2 0x143D JUMPI RETURNDATASIZE PUSH0 PUSH0 RETURNDATACOPY RETURNDATASIZE PUSH0 REVERT JUMPDEST POP POP POP POP PUSH1 0x40 MLOAD RETURNDATASIZE PUSH1 0x1F NOT PUSH1 0x1F DUP3 ADD AND DUP3 ADD DUP1 PUSH1 0x40 MSTORE POP DUP2 ADD SWAP1 PUSH2 0x1461 SWAP2 SWAP1 PUSH2 0x453F JUMP JUMPDEST SWAP1 POP PUSH0 PUSH2 0x1477 DUP7 DUP6 PUSH2 0x298B SWAP1 SWAP2 SWAP1 PUSH4 0xFFFFFFFF AND JUMP JUMPDEST SWAP1 POP DUP1 DUP3 EQ PUSH2 0x14B2 JUMPI PUSH1 0x40 MLOAD PUSH32 0x881AD5D00000000000000000000000000000000000000000000000000000000 DUP2 MSTORE PUSH1 0x4 ADD PUSH1 0x40 MLOAD DUP1 SWAP2 SUB SWAP1 REVERT JUMPDEST POP POP POP POP POP POP POP JUMP JUMPDEST PUSH2 0x14C3 PUSH2 0x30CF JUMP JUMPDEST PUSH2 0x14CB PUSH2 0x3212 JUMP JUMPDEST PUSH0 PUSH0 SWAP1 POP JUMPDEST DUP6 MLOAD DUP2 LT ISZERO PUSH2 0x1558 JUMPI DUP7 PUSH20 0xFFFFFFFFFFFFFFFFFFFFFFFFFFFFFFFFFFFFFFFF AND DUP7 DUP3 DUP2 MLOAD DUP2 LT PUSH2 0x1503 JUMPI PUSH2 0x1502 PUSH2 0x3CA0 JUMP JUMPDEST JUMPDEST PUSH1 0x20 MUL PUSH1 0x20 ADD ADD MLOAD PUSH0 ADD MLOAD PUSH20 0xFFFFFFFFFFFFFFFFFFFFFFFFFFFFFFFFFFFFFFFF AND SUB PUSH2 0x154B JUMPI DUP6 DUP2 DUP2 MLOAD DUP2 LT PUSH2 0x153C JUMPI PUSH2 0x153B PUSH2 0x3CA0 JUMP JUMPDEST JUMPDEST PUSH1 0x20 MUL PUSH1 0x20 ADD ADD MLOAD SWAP2 POP PUSH2 0x1558 JUMP JUMPDEST DUP1 DUP1 PUSH1 0x1 ADD SWAP2 POP POP PUSH2 0x14D0 JUMP JUMPDEST POP PUSH0 PUSH20 0xFFFFFFFFFFFFFFFFFFFFFFFFFFFFFFFFFFFFFFFF AND DUP2 PUSH0 ADD MLOAD PUSH20 0xFFFFFFFFFFFFFFFFFFFFFFFFFFFFFFFFFFFFFFFF AND SUB PUSH2 0x15CC JUMPI DUP6 PUSH1 0x40 MLOAD PUSH32 0xC1E84ED600000000000000000000000000000000000000000000000000000000 DUP2 MSTORE PUSH1 0x4 ADD PUSH2 0x15C3 SWAP2 SWAP1 PUSH2 0x3BB8 JUMP JUMPDEST PUSH1 0x40 MLOAD DUP1 SWAP2 SUB SWAP1 REVERT JUMPDEST PUSH0 DUP2 PUSH1 0x20 ADD MLOAD EQ ISZERO DUP1 ISZERO PUSH2 0x15E4 JUMPI POP CHAINID DUP2 PUSH1 0x20 ADD MLOAD EQ ISZERO JUMPDEST ISZERO PUSH2 0x162A JUMPI DUP1 PUSH1 0x20 ADD MLOAD PUSH1 0x40 MLOAD PUSH32 0x331003B300000000000000000000000000000000000000000000000000000000 DUP2 MSTORE PUSH1 0x4 ADD PUSH2 0x1621 SWAP2 SWAP1 PUSH2 0x3506 JUMP JUMPDEST PUSH1 0x40 MLOAD DUP1 SWAP2 SUB SWAP1 REVERT JUMPDEST PUSH0 DUP2 PUSH1 0x60 ADD MLOAD PUSH8 0xFFFFFFFFFFFFFFFF AND EQ ISZERO DUP1 ISZERO PUSH2 0x1655 JUMPI POP DUP1 PUSH1 0x60 ADD MLOAD PUSH8 0xFFFFFFFFFFFFFFFF AND TIMESTAMP GT JUMPDEST ISZERO PUSH2 0x169B JUMPI DUP1 PUSH1 0x60 ADD MLOAD PUSH1 0x40 MLOAD PUSH32 0xB1BBFDD500000000000000000000000000000000000000000000000000000000 DUP2 MSTORE PUSH1 0x4 ADD PUSH2 0x1692 SWAP2 SWAP1 PUSH2 0x45A3 JUMP JUMPDEST PUSH1 0x40 MLOAD DUP1 SWAP2 SUB SWAP1 REVERT JUMPDEST CALLDATASIZE DUP10 DUP1 PUSH1 0x40 ADD SWAP1 PUSH2 0x16AC SWAP2 SWAP1 PUSH2 0x3C3E JUMP JUMPDEST DUP11 DUP2 DUP2 LT PUSH2 0x16BD JUMPI PUSH2 0x16BC PUSH2 0x3CA0 JUMP JUMPDEST JUMPDEST SWAP1 POP PUSH1 0x20 MUL DUP2 ADD SWAP1 PUSH2 0x16CF SWAP2 SWAP1 PUSH2 0x3CCD JUMP JUMPDEST SWAP1 POP DUP1 PUSH1 0x80 ADD PUSH1 0x20 DUP2 ADD SWAP1 PUSH2 0x16E4 SWAP2 SWAP1 PUSH2 0x3CF4 JUMP JUMPDEST ISZERO PUSH2 0x171B JUMPI PUSH1 0x40 MLOAD PUSH32 0xAA25F2AD00000000000000000000000000000000000000000000000000000000 DUP2 MSTORE PUSH1 0x4 ADD PUSH1 0x40 MLOAD DUP1 SWAP2 SUB SWAP1 REVERT JUMPDEST ADDRESS PUSH20 0xFFFFFFFFFFFFFFFFFFFFFFFFFFFFFFFFFFFFFFFF AND DUP2 PUSH0 ADD PUSH1 0x20 DUP2 ADD SWAP1 PUSH2 0x1744 SWAP2 SWAP1 PUSH2 0x3DED JUMP JUMPDEST PUSH20 0xFFFFFFFFFFFFFFFFFFFFFFFFFFFFFFFFFFFFFFFF AND SUB PUSH2 0x1827 JUMPI PUSH0 DUP2 DUP1 PUSH1 0x40 ADD SWAP1 PUSH2 0x1770 SWAP2 SWAP1 PUSH2 0x3E4B JUMP JUMPDEST PUSH0 SWAP1 PUSH1 0x4 SWAP3 PUSH2 0x1781 SWAP4 SWAP3 SWAP2 SWAP1 PUSH2 0x40CA JUMP JUMPDEST SWAP1 PUSH2 0x178C SWAP2 SWAP1 PUSH2 0x45D2 JUMP JUMPDEST SWAP1 POP PUSH0 DUP3 PUSH1 0x20 ADD CALLDATALOAD GT DUP1 PUSH2 0x17E5 JUMPI POP PUSH4 0x42DE1418 PUSH1 0xE0 SHL PUSH28 0xFFFFFFFFFFFFFFFFFFFFFFFFFFFFFFFFFFFFFFFFFFFFFFFFFFFFFFFF NOT AND DUP2 PUSH28 0xFFFFFFFFFFFFFFFFFFFFFFFFFFFFFFFFFFFFFFFFFFFFFFFFFFFFFFFF NOT AND EQ ISZERO JUMPDEST ISZERO PUSH2 0x181C JUMPI PUSH1 0x40 MLOAD PUSH32 0x540733EA00000000000000000000000000000000000000000000000000000000 DUP2 MSTORE PUSH1 0x4 ADD PUSH1 0x40 MLOAD DUP1 SWAP2 SUB SWAP1 REVERT JUMPDEST DUP5 SWAP4 POP POP POP POP PUSH2 0x1959 JUMP JUMPDEST DUP2 PUSH1 0x80 ADD MLOAD MLOAD DUP6 PUSH1 0xFF AND LT PUSH2 0x1868 JUMPI PUSH1 0x40 MLOAD PUSH32 0x3F904DC000000000000000000000000000000000000000000000000000000000 DUP2 MSTORE PUSH1 0x4 ADD PUSH1 0x40 MLOAD DUP1 SWAP2 SUB SWAP1 REVERT JUMPDEST PUSH0 DUP3 PUSH1 0x80 ADD MLOAD DUP7 PUSH1 0xFF AND DUP2 MLOAD DUP2 LT PUSH2 0x1883 JUMPI PUSH2 0x1882 PUSH2 0x3CA0 JUMP JUMPDEST JUMPDEST PUSH1 0x20 MUL PUSH1 0x20 ADD ADD MLOAD SWAP1 POP PUSH0 PUSH0 PUSH2 0x18A0 DUP4 DUP6 DUP14 DUP14 DUP12 PUSH1 0x20 ADD MLOAD PUSH2 0x720 JUMP JUMPDEST SWAP2 POP SWAP2 POP DUP2 PUSH2 0x18DB JUMPI PUSH1 0x40 MLOAD PUSH32 0x868A64DE00000000000000000000000000000000000000000000000000000000 DUP2 MSTORE PUSH1 0x4 ADD PUSH1 0x40 MLOAD DUP1 SWAP2 SUB SWAP1 REVERT JUMPDEST DUP1 DUP8 PUSH1 0x20 ADD DUP2 SWAP1 MSTORE POP PUSH0 DUP5 PUSH1 0x20 ADD CALLDATALOAD GT ISZERO PUSH2 0x190E JUMPI DUP4 PUSH1 0x20 ADD CALLDATALOAD DUP8 PUSH1 0x40 ADD DUP2 DUP2 MLOAD PUSH2 0x1906 SWAP2 SWAP1 PUSH2 0x3E18 JUMP JUMPDEST SWAP2 POP DUP2 DUP2 MSTORE POP POP JUMPDEST DUP5 PUSH1 0x40 ADD MLOAD DUP8 PUSH1 0x40 ADD MLOAD GT ISZERO PUSH2 0x1950 JUMPI PUSH1 0x40 MLOAD PUSH32 0xAA7FEADC00000000000000000000000000000000000000000000000000000000 DUP2 MSTORE PUSH1 0x4 ADD PUSH1 0x40 MLOAD DUP1 SWAP2 SUB SWAP1 REVERT JUMPDEST DUP7 SWAP6 POP POP POP POP POP POP JUMPDEST SWAP8 SWAP7 POP POP POP POP POP POP POP JUMP JUMPDEST PUSH0 DUP2 MLOAD GT ISZERO PUSH2 0x1D56 JUMPI ADDRESS PUSH20 0xFFFFFFFFFFFFFFFFFFFFFFFFFFFFFFFFFFFFFFFF AND DUP3 PUSH0 ADD PUSH1 0x20 DUP2 ADD SWAP1 PUSH2 0x1996 SWAP2 SWAP1 PUSH2 0x3DED JUMP JUMPDEST PUSH20 0xFFFFFFFFFFFFFFFFFFFFFFFFFFFFFFFFFFFFFFFF AND EQ ISZERO DUP1 PUSH2 0x19C1 JUMPI POP PUSH1 0x1 PUSH1 0xFF AND DUP3 PUSH1 0xC0 ADD CALLDATALOAD EQ ISZERO JUMPDEST ISZERO PUSH2 0x19F7 JUMPI PUSH1 0x40 MLOAD PUSH31 0x2A700A00000000000000000000000000000000000000000000000000000000 DUP2 MSTORE PUSH1 0x4 ADD PUSH1 0x40 MLOAD DUP1 SWAP2 SUB SWAP1 REVERT JUMPDEST PUSH0 PUSH0 SWAP1 POP PUSH0 PUSH0 SWAP1 POP JUMPDEST DUP3 MLOAD DUP2 LT ISZERO PUSH2 0x1A78 JUMPI DUP3 DUP2 DUP2 MLOAD DUP2 LT PUSH2 0x1A1C JUMPI PUSH2 0x1A1B PUSH2 0x3CA0 JUMP JUMPDEST JUMPDEST PUSH1 0x20 MUL PUSH1 0x20 ADD ADD MLOAD PUSH1 0x20 ADD MLOAD MLOAD DUP3 PUSH2 0x1A34 SWAP2 SWAP1 PUSH2 0x3E18 JUMP JUMPDEST SWAP2 POP PUSH0 DUP4 DUP3 DUP2 MLOAD DUP2 LT PUSH2 0x1A4A JUMPI PUSH2 0x1A49 PUSH2 0x3CA0 JUMP JUMPDEST JUMPDEST PUSH1 0x20 MUL PUSH1 0x20 ADD ADD MLOAD PUSH1 0x40 ADD MLOAD GT ISZERO PUSH2 0x1A6B JUMPI DUP2 DUP1 PUSH2 0x1A67 SWAP1 PUSH2 0x3D73 JUMP JUMPDEST SWAP3 POP POP JUMPDEST DUP1 DUP1 PUSH1 0x1 ADD SWAP2 POP POP PUSH2 0x1A00 JUMP JUMPDEST POP PUSH0 DUP2 PUSH8 0xFFFFFFFFFFFFFFFF DUP2 GT ISZERO PUSH2 0x1A94 JUMPI PUSH2 0x1A93 PUSH2 0x3533 JUMP JUMPDEST JUMPDEST PUSH1 0x40 MLOAD SWAP1 DUP1 DUP3 MSTORE DUP1 PUSH1 0x20 MUL PUSH1 0x20 ADD DUP3 ADD PUSH1 0x40 MSTORE DUP1 ISZERO PUSH2 0x1ACD JUMPI DUP2 PUSH1 0x20 ADD JUMPDEST PUSH2 0x1ABA PUSH2 0x3104 JUMP JUMPDEST DUP2 MSTORE PUSH1 0x20 ADD SWAP1 PUSH1 0x1 SWAP1 SUB SWAP1 DUP2 PUSH2 0x1AB2 JUMPI SWAP1 POP JUMPDEST POP SWAP1 POP PUSH0 PUSH0 SWAP1 POP PUSH0 PUSH0 SWAP1 POP JUMPDEST DUP5 MLOAD DUP2 LT ISZERO PUSH2 0x1C69 JUMPI PUSH0 PUSH0 SWAP1 POP JUMPDEST DUP6 DUP3 DUP2 MLOAD DUP2 LT PUSH2 0x1AFA JUMPI PUSH2 0x1AF9 PUSH2 0x3CA0 JUMP JUMPDEST JUMPDEST PUSH1 0x20 MUL PUSH1 0x20 ADD ADD MLOAD PUSH1 0x20 ADD MLOAD MLOAD DUP2 LT ISZERO PUSH2 0x1B7E JUMPI DUP6 DUP3 DUP2 MLOAD DUP2 LT PUSH2 0x1B21 JUMPI PUSH2 0x1B20 PUSH2 0x3CA0 JUMP JUMPDEST JUMPDEST PUSH1 0x20 MUL PUSH1 0x20 ADD ADD MLOAD PUSH1 0x20 ADD MLOAD DUP2 DUP2 MLOAD DUP2 LT PUSH2 0x1B3F JUMPI PUSH2 0x1B3E PUSH2 0x3CA0 JUMP JUMPDEST JUMPDEST PUSH1 0x20 MUL PUSH1 0x20 ADD ADD MLOAD DUP5 DUP5 DUP1 PUSH2 0x1B53 SWAP1 PUSH2 0x3D73 JUMP JUMPDEST SWAP6 POP DUP2 MLOAD DUP2 LT PUSH2 0x1B66 JUMPI PUSH2 0x1B65 PUSH2 0x3CA0 JUMP JUMPDEST JUMPDEST PUSH1 0x20 MUL PUSH1 0x20 ADD ADD DUP2 SWAP1 MSTORE POP DUP1 DUP1 PUSH1 0x1 ADD SWAP2 POP POP PUSH2 0x1AE7 JUMP JUMPDEST POP PUSH0 DUP6 DUP3 DUP2 MLOAD DUP2 LT PUSH2 0x1B93 JUMPI PUSH2 0x1B92 PUSH2 0x3CA0 JUMP JUMPDEST JUMPDEST PUSH1 0x20 MUL PUSH1 0x20 ADD ADD MLOAD PUSH1 0x40 ADD MLOAD GT ISZERO PUSH2 0x1C5C JUMPI PUSH1 0x40 MLOAD DUP1 PUSH1 0x40 ADD PUSH1 0x40 MSTORE DUP1 DUP7 DUP4 DUP2 MLOAD DUP2 LT PUSH2 0x1BC3 JUMPI PUSH2 0x1BC2 PUSH2 0x3CA0 JUMP JUMPDEST JUMPDEST PUSH1 0x20 MUL PUSH1 0x20 ADD ADD MLOAD PUSH0 ADD MLOAD PUSH20 0xEEEEEEEEEEEEEEEEEEEEEEEEEEEEEEEEEEEEEEEE PUSH1 0x40 MLOAD PUSH1 0x20 ADD PUSH2 0x1BF4 SWAP3 SWAP2 SWAP1 PUSH2 0x3D1F JUMP JUMPDEST PUSH1 0x40 MLOAD PUSH1 0x20 DUP2 DUP4 SUB SUB DUP2 MSTORE SWAP1 PUSH1 0x40 MSTORE DUP1 MLOAD SWAP1 PUSH1 0x20 ADD KECCAK256 DUP2 MSTORE PUSH1 0x20 ADD DUP7 DUP4 DUP2 MLOAD DUP2 LT PUSH2 0x1C22 JUMPI PUSH2 0x1C21 PUSH2 0x3CA0 JUMP JUMPDEST JUMPDEST PUSH1 0x20 MUL PUSH1 0x20 ADD ADD MLOAD PUSH1 0x40 ADD MLOAD DUP2 MSTORE POP DUP4 DUP4 DUP1 PUSH2 0x1C3D SWAP1 PUSH2 0x3D73 JUMP JUMPDEST SWAP5 POP DUP2 MLOAD DUP2 LT PUSH2 0x1C50 JUMPI PUSH2 0x1C4F PUSH2 0x3CA0 JUMP JUMPDEST JUMPDEST PUSH1 0x20 MUL PUSH1 0x20 ADD ADD DUP2 SWAP1 MSTORE POP JUMPDEST DUP1 DUP1 PUSH1 0x1 ADD SWAP2 POP POP PUSH2 0x1AD9 JUMP JUMPDEST POP PUSH0 PUSH4 0x42DE1418 PUSH1 0xE0 SHL DUP4 PUSH1 0x40 MLOAD PUSH1 0x24 ADD PUSH2 0x1C84 SWAP2 SWAP1 PUSH2 0x4630 JUMP JUMPDEST PUSH1 0x40 MLOAD PUSH1 0x20 DUP2 DUP4 SUB SUB DUP2 MSTORE SWAP1 PUSH1 0x40 MSTORE SWAP1 PUSH28 0xFFFFFFFFFFFFFFFFFFFFFFFFFFFFFFFFFFFFFFFFFFFFFFFFFFFFFFFF NOT AND PUSH1 0x20 DUP3 ADD DUP1 MLOAD PUSH28 0xFFFFFFFFFFFFFFFFFFFFFFFFFFFFFFFFFFFFFFFFFFFFFFFFFFFFFFFF DUP4 DUP2 DUP4 AND OR DUP4 MSTORE POP POP POP POP SWAP1 POP PUSH0 DUP2 DUP1 MLOAD SWAP1 PUSH1 0x20 ADD KECCAK256 SWAP1 POP PUSH0 DUP8 DUP1 PUSH1 0x40 ADD SWAP1 PUSH2 0x1CFF SWAP2 SWAP1 PUSH2 0x3E4B JUMP JUMPDEST PUSH1 0x40 MLOAD PUSH2 0x1D0D SWAP3 SWAP2 SWAP1 PUSH2 0x467E JUMP JUMPDEST PUSH1 0x40 MLOAD DUP1 SWAP2 SUB SWAP1 KECCAK256 SWAP1 POP DUP2 DUP2 EQ PUSH2 0x1D4F JUMPI PUSH1 0x40 MLOAD PUSH31 0x2A700A00000000000000000000000000000000000000000000000000000000 DUP2 MSTORE PUSH1 0x4 ADD PUSH1 0x40 MLOAD DUP1 SWAP2 SUB SWAP1 REVERT JUMPDEST POP POP POP POP POP POP JUMPDEST POP POP JUMP JUMPDEST PUSH0 PUSH0 DUP5 DUP4 ADD CALLDATALOAD SWAP2 POP PUSH1 0x20 DUP4 ADD SWAP1 POP SWAP4 POP SWAP4 SWAP2 POP POP JUMP JUMPDEST DUP1 PUSH0 PUSH0 DUP6 PUSH20 0xFFFFFFFFFFFFFFFFFFFFFFFFFFFFFFFFFFFFFFFF AND PUSH20 0xFFFFFFFFFFFFFFFFFFFFFFFFFFFFFFFFFFFFFFFF AND DUP2 MSTORE PUSH1 0x20 ADD SWAP1 DUP2 MSTORE PUSH1 0x20 ADD PUSH0 KECCAK256 PUSH0 DUP5 DUP2 MSTORE PUSH1 0x20 ADD SWAP1 DUP2 MSTORE PUSH1 0x20 ADD PUSH0 KECCAK256 DUP2 SWAP1 SSTORE POP PUSH32 0x42063B8D32AC0A88F94053143BB30A789B3D5DFABB27D6C8A54E23D4FEF30851 DUP4 DUP4 DUP4 PUSH1 0x40 MLOAD PUSH2 0x1DF3 SWAP4 SWAP3 SWAP2 SWAP1 PUSH2 0x4696 JUMP JUMPDEST PUSH1 0x40 MLOAD DUP1 SWAP2 SUB SWAP1 LOG1 POP POP POP JUMP JUMPDEST PUSH0 PUSH0 DUP5 DUP4 ADD CALLDATALOAD DUP1 PUSH1 0xE8 SHR SWAP3 POP PUSH1 0x3 DUP5 ADD SWAP2 POP POP SWAP4 POP SWAP4 SWAP2 POP POP JUMP JUMPDEST PUSH2 0x1E23 PUSH2 0x311C JUMP JUMPDEST PUSH0 PUSH0 PUSH0 PUSH0 PUSH1 0x3E DUP8 DUP8 SWAP1 POP PUSH2 0x1E37 SWAP2 SWAP1 PUSH2 0x46F8 JUMP JUMPDEST SWAP1 POP DUP1 PUSH8 0xFFFFFFFFFFFFFFFF DUP2 GT ISZERO PUSH2 0x1E53 JUMPI PUSH2 0x1E52 PUSH2 0x3533 JUMP JUMPDEST JUMPDEST PUSH1 0x40 MLOAD SWAP1 DUP1 DUP3 MSTORE DUP1 PUSH1 0x20 MUL PUSH1 0x20 ADD DUP3 ADD PUSH1 0x40 MSTORE DUP1 ISZERO PUSH2 0x1E8C JUMPI DUP2 PUSH1 0x20 ADD JUMPDEST PUSH2 0x1E79 PUSH2 0x3212 JUMP JUMPDEST DUP2 MSTORE PUSH1 0x20 ADD SWAP1 PUSH1 0x1 SWAP1 SUB SWAP1 DUP2 PUSH2 0x1E71 JUMPI SWAP1 POP JUMPDEST POP DUP6 PUSH1 0x60 ADD DUP2 SWAP1 MSTORE POP POP JUMPDEST DUP6 DUP6 SWAP1 POP DUP3 LT ISZERO PUSH2 0x25AE JUMPI PUSH0 PUSH2 0x1EB8 DUP4 DUP9 DUP9 PUSH2 0x25C3 SWAP3 SWAP1 SWAP2 SWAP3 PUSH4 0xFFFFFFFF AND JUMP JUMPDEST DUP2 PUSH1 0xFF AND SWAP2 POP DUP1 SWAP5 POP DUP2 SWAP3 POP POP POP PUSH0 PUSH1 0x4 PUSH1 0xF0 DUP4 AND SWAP1 SHR SWAP1 POP PUSH0 DUP2 SUB PUSH2 0x2040 JUMPI PUSH2 0x1EE0 PUSH2 0x3212 JUMP JUMPDEST PUSH0 DUP6 SWAP1 POP PUSH2 0x1EF9 DUP7 DUP12 DUP12 PUSH2 0x29ED SWAP3 SWAP1 SWAP2 SWAP3 PUSH4 0xFFFFFFFF AND JUMP JUMPDEST DUP4 PUSH0 ADD DUP2 SWAP9 POP DUP3 PUSH20 0xFFFFFFFFFFFFFFFFFFFFFFFFFFFFFFFFFFFFFFFF AND PUSH20 0xFFFFFFFFFFFFFFFFFFFFFFFFFFFFFFFFFFFFFFFF AND DUP2 MSTORE POP POP POP PUSH2 0x1F46 DUP7 DUP12 DUP12 PUSH2 0x2A1E SWAP3 SWAP1 SWAP2 SWAP3 PUSH4 0xFFFFFFFF AND JUMP JUMPDEST DUP4 PUSH1 0x20 ADD DUP2 SWAP9 POP DUP3 DUP2 MSTORE POP POP POP PUSH2 0x1F68 DUP7 DUP12 DUP12 PUSH2 0x2A1E SWAP3 SWAP1 SWAP2 SWAP3 PUSH4 0xFFFFFFFF AND JUMP JUMPDEST DUP4 PUSH1 0x40 ADD DUP2 SWAP9 POP DUP3 DUP2 MSTORE POP POP POP PUSH2 0x1F8A DUP7 DUP12 DUP12 PUSH2 0x2A34 SWAP3 SWAP1 SWAP2 SWAP3 PUSH4 0xFFFFFFFF AND JUMP JUMPDEST DUP4 PUSH1 0x60 ADD DUP2 SWAP9 POP DUP3 PUSH8 0xFFFFFFFFFFFFFFFF AND PUSH8 0xFFFFFFFFFFFFFFFF AND DUP2 MSTORE POP POP POP PUSH2 0x1FB6 DUP11 DUP11 DUP9 PUSH2 0x2A4F JUMP JUMPDEST DUP4 PUSH1 0x80 ADD DUP2 SWAP9 POP DUP3 SWAP1 MSTORE POP POP PUSH0 PUSH2 0x1FDD DUP12 DUP12 DUP5 SWAP1 DUP11 SWAP3 PUSH2 0x1FD8 SWAP4 SWAP3 SWAP2 SWAP1 PUSH2 0x40CA JUMP JUMPDEST PUSH2 0x2B23 JUMP JUMPDEST SWAP1 POP PUSH0 PUSH0 SHL DUP10 PUSH0 ADD MLOAD SUB PUSH2 0x1FF1 JUMPI DUP1 PUSH2 0x1FFF JUMP JUMPDEST PUSH2 0x1FFE DUP10 PUSH0 ADD MLOAD DUP3 PUSH2 0x2B57 JUMP JUMPDEST JUMPDEST DUP10 PUSH0 ADD DUP2 DUP2 MSTORE POP POP POP DUP2 DUP9 PUSH1 0x60 ADD MLOAD DUP7 DUP1 PUSH2 0x2019 SWAP1 PUSH2 0x3D73 JUMP JUMPDEST SWAP8 POP DUP2 MLOAD DUP2 LT PUSH2 0x202C JUMPI PUSH2 0x202B PUSH2 0x3CA0 JUMP JUMPDEST JUMPDEST PUSH1 0x20 MUL PUSH1 0x20 ADD ADD DUP2 SWAP1 MSTORE POP POP POP POP POP PUSH2 0x1E97 JUMP JUMPDEST PUSH1 0x1 DUP2 SUB PUSH2 0x2096 JUMPI PUSH0 PUSH2 0x205E DUP6 DUP11 DUP11 PUSH2 0x1D5A SWAP3 SWAP1 SWAP2 SWAP3 PUSH4 0xFFFFFFFF AND JUMP JUMPDEST DUP1 SWAP7 POP DUP2 SWAP3 POP POP POP PUSH0 PUSH0 SHL DUP8 PUSH0 ADD MLOAD SUB PUSH2 0x2078 JUMPI DUP1 PUSH2 0x2086 JUMP JUMPDEST PUSH2 0x2085 DUP8 PUSH0 ADD MLOAD DUP3 PUSH2 0x2B57 JUMP JUMPDEST JUMPDEST DUP8 PUSH0 ADD DUP2 DUP2 MSTORE POP POP POP POP POP PUSH2 0x1E97 JUMP JUMPDEST PUSH1 0x2 DUP2 SUB PUSH2 0x22D3 JUMPI PUSH0 PUSH0 PUSH1 0xF DUP5 AND PUSH1 0xFF AND SWAP1 POP PUSH2 0x20C5 DUP7 DUP3 DUP13 DUP13 PUSH2 0x2B6B SWAP2 SWAP1 SWAP4 SWAP3 SWAP2 SWAP1 SWAP4 SWAP3 SWAP2 SWAP1 PUSH4 0xFFFFFFFF AND JUMP JUMPDEST DUP1 SWAP8 POP DUP2 SWAP4 POP POP POP POP PUSH0 DUP2 DUP7 PUSH2 0x20DB SWAP2 SWAP1 PUSH2 0x3E18 JUMP JUMPDEST SWAP1 POP PUSH0 PUSH0 PUSH2 0x20F9 DUP13 DUP13 DUP11 SWAP1 DUP7 SWAP3 PUSH2 0x20F4 SWAP4 SWAP3 SWAP2 SWAP1 PUSH2 0x40CA JUMP JUMPDEST PUSH2 0x1E1B JUMP JUMPDEST SWAP2 POP SWAP2 POP DUP3 SWAP8 POP DUP1 ISZERO PUSH2 0x2150 JUMPI DUP9 ISZERO PUSH2 0x213E JUMPI PUSH1 0x40 MLOAD PUSH32 0xEB62520400000000000000000000000000000000000000000000000000000000 DUP2 MSTORE PUSH1 0x4 ADD PUSH1 0x40 MLOAD DUP1 SWAP2 SUB SWAP1 REVERT JUMPDEST PUSH1 0x1 SWAP9 POP DUP2 PUSH1 0x40 ADD MLOAD DUP11 PUSH1 0x40 ADD DUP2 SWAP1 MSTORE POP JUMPDEST PUSH0 PUSH20 0xFFFFFFFFFFFFFFFFFFFFFFFFFFFFFFFFFFFFFFFF AND DUP3 PUSH1 0x20 ADD MLOAD PUSH20 0xFFFFFFFFFFFFFFFFFFFFFFFFFFFFFFFFFFFFFFFF AND EQ PUSH2 0x222D JUMPI PUSH0 PUSH20 0xFFFFFFFFFFFFFFFFFFFFFFFFFFFFFFFFFFFFFFFF AND DUP11 PUSH1 0x20 ADD MLOAD PUSH20 0xFFFFFFFFFFFFFFFFFFFFFFFFFFFFFFFFFFFFFFFF AND EQ PUSH2 0x21F0 JUMPI PUSH1 0x40 MLOAD PUSH32 0x9E5C658B00000000000000000000000000000000000000000000000000000000 DUP2 MSTORE PUSH1 0x4 ADD PUSH1 0x40 MLOAD DUP1 SWAP2 SUB SWAP1 REVERT JUMPDEST DUP2 PUSH1 0x20 ADD MLOAD DUP11 PUSH1 0x20 ADD SWAP1 PUSH20 0xFFFFFFFFFFFFFFFFFFFFFFFFFFFFFFFFFFFFFFFF AND SWAP1 DUP2 PUSH20 0xFFFFFFFFFFFFFFFFFFFFFFFFFFFFFFFFFFFFFFFF AND DUP2 MSTORE POP POP JUMPDEST PUSH0 PUSH0 SWAP1 POP JUMPDEST DUP3 PUSH1 0x60 ADD MLOAD MLOAD DUP2 LT ISZERO PUSH2 0x2299 JUMPI DUP3 PUSH1 0x60 ADD MLOAD DUP2 DUP2 MLOAD DUP2 LT PUSH2 0x2256 JUMPI PUSH2 0x2255 PUSH2 0x3CA0 JUMP JUMPDEST JUMPDEST PUSH1 0x20 MUL PUSH1 0x20 ADD ADD MLOAD DUP12 PUSH1 0x60 ADD MLOAD DUP10 DUP1 PUSH2 0x226E SWAP1 PUSH2 0x3D73 JUMP JUMPDEST SWAP11 POP DUP2 MLOAD DUP2 LT PUSH2 0x2281 JUMPI PUSH2 0x2280 PUSH2 0x3CA0 JUMP JUMPDEST JUMPDEST PUSH1 0x20 MUL PUSH1 0x20 ADD ADD DUP2 SWAP1 MSTORE POP DUP1 DUP1 PUSH1 0x1 ADD SWAP2 POP POP PUSH2 0x2232 JUMP JUMPDEST POP PUSH0 PUSH0 SHL DUP11 PUSH0 ADD MLOAD SUB PUSH2 0x22AF JUMPI DUP2 PUSH0 ADD MLOAD PUSH2 0x22C0 JUMP JUMPDEST PUSH2 0x22BF DUP11 PUSH0 ADD MLOAD DUP4 PUSH0 ADD MLOAD PUSH2 0x2B57 JUMP JUMPDEST JUMPDEST DUP11 PUSH0 ADD DUP2 DUP2 MSTORE POP POP POP POP POP POP POP POP PUSH2 0x1E97 JUMP JUMPDEST PUSH1 0x3 DUP2 SUB PUSH2 0x2472 JUMPI DUP5 ISZERO PUSH2 0x2313 JUMPI PUSH1 0x40 MLOAD PUSH32 0xEB62520400000000000000000000000000000000000000000000000000000000 DUP2 MSTORE PUSH1 0x4 ADD PUSH1 0x40 MLOAD DUP1 SWAP2 SUB SWAP1 REVERT JUMPDEST PUSH1 0x1 SWAP5 POP PUSH0 PUSH1 0xF DUP4 AND SWAP1 POP PUSH1 0xF DUP2 SUB PUSH2 0x234B JUMPI PUSH2 0x233B DUP6 DUP11 DUP11 PUSH2 0x2B98 SWAP3 SWAP1 SWAP2 SWAP3 PUSH4 0xFFFFFFFF AND JUMP JUMPDEST DUP2 PUSH2 0xFFFF AND SWAP2 POP DUP1 SWAP7 POP DUP2 SWAP3 POP POP POP JUMPDEST PUSH0 DUP6 SWAP1 POP DUP2 PUSH8 0xFFFFFFFFFFFFFFFF DUP2 GT ISZERO PUSH2 0x2369 JUMPI PUSH2 0x2368 PUSH2 0x3533 JUMP JUMPDEST JUMPDEST PUSH1 0x40 MLOAD SWAP1 DUP1 DUP3 MSTORE DUP1 PUSH1 0x20 MUL PUSH1 0x20 ADD DUP3 ADD PUSH1 0x40 MSTORE DUP1 ISZERO PUSH2 0x2397 JUMPI DUP2 PUSH1 0x20 ADD PUSH1 0x20 DUP3 MUL DUP1 CALLDATASIZE DUP4 CALLDATACOPY DUP1 DUP3 ADD SWAP2 POP POP SWAP1 POP JUMPDEST POP DUP9 PUSH1 0x40 ADD DUP2 SWAP1 MSTORE POP PUSH0 PUSH0 SWAP1 POP JUMPDEST DUP3 DUP2 LT ISZERO PUSH2 0x2422 JUMPI PUSH2 0x23C2 DUP8 DUP13 DUP13 PUSH2 0x29ED SWAP3 SWAP1 SWAP2 SWAP3 PUSH4 0xFFFFFFFF AND JUMP JUMPDEST DUP11 PUSH1 0x40 ADD MLOAD DUP4 DUP2 MLOAD DUP2 LT PUSH2 0x23D9 JUMPI PUSH2 0x23D8 PUSH2 0x3CA0 JUMP JUMPDEST JUMPDEST PUSH1 0x20 MUL PUSH1 0x20 ADD ADD DUP2 SWAP10 POP DUP3 PUSH20 0xFFFFFFFFFFFFFFFFFFFFFFFFFFFFFFFFFFFFFFFF AND PUSH20 0xFFFFFFFFFFFFFFFFFFFFFFFFFFFFFFFFFFFFFFFF AND DUP2 MSTORE POP POP POP DUP1 DUP1 PUSH1 0x1 ADD SWAP2 POP POP PUSH2 0x23A5 JUMP JUMPDEST POP PUSH0 PUSH2 0x243E DUP12 DUP12 DUP5 SWAP1 DUP11 SWAP3 PUSH2 0x2439 SWAP4 SWAP3 SWAP2 SWAP1 PUSH2 0x40CA JUMP JUMPDEST PUSH2 0x2BB3 JUMP JUMPDEST SWAP1 POP PUSH0 PUSH0 SHL DUP10 PUSH0 ADD MLOAD SUB PUSH2 0x2452 JUMPI DUP1 PUSH2 0x2460 JUMP JUMPDEST PUSH2 0x245F DUP10 PUSH0 ADD MLOAD DUP3 PUSH2 0x2B57 JUMP JUMPDEST JUMPDEST DUP10 PUSH0 ADD DUP2 DUP2 MSTORE POP POP POP POP POP POP POP PUSH2 0x1E97 JUMP JUMPDEST PUSH1 0x4 DUP2 SUB PUSH2 0x2571 JUMPI PUSH0 PUSH20 0xFFFFFFFFFFFFFFFFFFFFFFFFFFFFFFFFFFFFFFFF AND DUP7 PUSH1 0x20 ADD MLOAD PUSH20 0xFFFFFFFFFFFFFFFFFFFFFFFFFFFFFFFFFFFFFFFF AND EQ PUSH2 0x24E3 JUMPI PUSH1 0x40 MLOAD PUSH32 0x9E5C658B00000000000000000000000000000000000000000000000000000000 DUP2 MSTORE PUSH1 0x4 ADD PUSH1 0x40 MLOAD DUP1 SWAP2 SUB SWAP1 REVERT JUMPDEST PUSH2 0x24F8 DUP5 DUP10 DUP10 PUSH2 0x29ED SWAP3 SWAP1 SWAP2 SWAP3 PUSH4 0xFFFFFFFF AND JUMP JUMPDEST DUP8 PUSH1 0x20 ADD DUP2 SWAP7 POP DUP3 PUSH20 0xFFFFFFFFFFFFFFFFFFFFFFFFFFFFFFFFFFFFFFFF AND PUSH20 0xFFFFFFFFFFFFFFFFFFFFFFFFFFFFFFFFFFFFFFFF AND DUP2 MSTORE POP POP POP PUSH0 PUSH2 0x253F DUP8 PUSH1 0x20 ADD MLOAD PUSH2 0x2BE8 JUMP JUMPDEST SWAP1 POP PUSH0 PUSH0 SHL DUP8 PUSH0 ADD MLOAD SUB PUSH2 0x2553 JUMPI DUP1 PUSH2 0x2561 JUMP JUMPDEST PUSH2 0x2560 DUP8 PUSH0 ADD MLOAD DUP3 PUSH2 0x2B57 JUMP JUMPDEST JUMPDEST DUP8 PUSH0 ADD DUP2 DUP2 MSTORE POP POP POP POP POP PUSH2 0x1E97 JUMP JUMPDEST DUP1 PUSH1 0x40 MLOAD PUSH32 0xAD9979000000000000000000000000000000000000000000000000000000000 DUP2 MSTORE PUSH1 0x4 ADD PUSH2 0x25A5 SWAP2 SWAP1 PUSH2 0x3506 JUMP JUMPDEST PUSH1 0x40 MLOAD DUP1 SWAP2 SUB SWAP1 REVERT JUMPDEST PUSH0 DUP5 PUSH1 0x60 ADD MLOAD SWAP1 POP DUP2 DUP2 MSTORE POP POP POP SWAP3 POP SWAP3 SWAP1 POP JUMP JUMPDEST PUSH0 PUSH0 DUP5 DUP4 ADD CALLDATALOAD DUP1 PUSH1 0xF8 SHR SWAP3 POP PUSH1 0x1 DUP5 ADD SWAP2 POP POP SWAP4 POP SWAP4 SWAP2 POP POP JUMP JUMPDEST PUSH2 0x25E6 PUSH2 0x315F JUMP JUMPDEST PUSH0 DUP3 SWAP1 POP PUSH2 0x25FF DUP2 DUP7 DUP7 PUSH2 0x29ED SWAP3 SWAP1 SWAP2 SWAP3 PUSH4 0xFFFFFFFF AND JUMP JUMPDEST DUP4 PUSH0 ADD DUP2 SWAP4 POP DUP3 PUSH20 0xFFFFFFFFFFFFFFFFFFFFFFFFFFFFFFFFFFFFFFFF AND PUSH20 0xFFFFFFFFFFFFFFFFFFFFFFFFFFFFFFFFFFFFFFFF AND DUP2 MSTORE POP POP POP PUSH2 0x264C DUP2 DUP7 DUP7 PUSH2 0x2C1A SWAP3 SWAP1 SWAP2 SWAP3 PUSH4 0xFFFFFFFF AND JUMP JUMPDEST DUP4 PUSH1 0x20 ADD DUP2 SWAP4 POP DUP3 PUSH28 0xFFFFFFFFFFFFFFFFFFFFFFFFFFFFFFFFFFFFFFFFFFFFFFFFFFFFFFFF NOT AND PUSH28 0xFFFFFFFFFFFFFFFFFFFFFFFFFFFFFFFFFFFFFFFFFFFFFFFFFFFFFFFF NOT AND DUP2 MSTORE POP POP POP PUSH2 0x26AC DUP2 DUP7 DUP7 PUSH2 0x1D5A SWAP3 SWAP1 SWAP2 SWAP3 PUSH4 0xFFFFFFFF AND JUMP JUMPDEST DUP4 PUSH1 0x40 ADD DUP2 SWAP4 POP DUP3 DUP2 MSTORE POP POP POP PUSH2 0x26CE DUP2 DUP7 DUP7 PUSH2 0x1D5A SWAP3 SWAP1 SWAP2 SWAP3 PUSH4 0xFFFFFFFF AND JUMP JUMPDEST DUP4 PUSH1 0x60 ADD DUP2 SWAP4 POP DUP3 DUP2 MSTORE POP POP POP PUSH0 PUSH2 0x26F1 DUP3 DUP8 DUP8 PUSH2 0x1E00 SWAP3 SWAP1 SWAP2 SWAP3 PUSH4 0xFFFFFFFF AND JUMP JUMPDEST DUP2 PUSH3 0xFFFFFF AND SWAP2 POP DUP1 SWAP4 POP DUP2 SWAP3 POP POP POP DUP6 DUP6 DUP4 SWAP1 DUP4 DUP6 PUSH2 0x2711 SWAP2 SWAP1 PUSH2 0x3E18 JUMP JUMPDEST SWAP3 PUSH2 0x271E SWAP4 SWAP3 SWAP2 SWAP1 PUSH2 0x40CA JUMP JUMPDEST DUP1 DUP1 PUSH1 0x1F ADD PUSH1 0x20 DUP1 SWAP2 DIV MUL PUSH1 0x20 ADD PUSH1 0x40 MLOAD SWAP1 DUP2 ADD PUSH1 0x40 MSTORE DUP1 SWAP4 SWAP3 SWAP2 SWAP1 DUP2 DUP2 MSTORE PUSH1 0x20 ADD DUP4 DUP4 DUP1 DUP3 DUP5 CALLDATACOPY PUSH0 DUP2 DUP5 ADD MSTORE PUSH1 0x1F NOT PUSH1 0x1F DUP3 ADD AND SWAP1 POP DUP1 DUP4 ADD SWAP3 POP POP POP POP POP POP POP DUP4 PUSH1 0x80 ADD DUP2 SWAP1 MSTORE POP DUP1 DUP3 PUSH2 0x2774 SWAP2 SWAP1 PUSH2 0x3E18 JUMP JUMPDEST SWAP2 POP PUSH2 0x2781 DUP7 DUP7 DUP5 PUSH2 0x2C54 JUMP JUMPDEST DUP5 PUSH1 0xA0 ADD DUP2 SWAP5 POP DUP3 SWAP1 MSTORE POP POP POP SWAP4 POP SWAP4 SWAP2 POP POP JUMP JUMPDEST PUSH0 PUSH0 PUSH0 PUSH0 PUSH0 DUP8 DUP7 ADD CALLDATALOAD SWAP5 POP PUSH1 0x20 DUP9 ADD DUP7 ADD CALLDATALOAD SWAP1 POP PUSH1 0x40 DUP7 ADD SWAP2 POP PUSH0 PUSH1 0xFF DUP3 SWAP1 SHR SWAP1 POP PUSH32 0x7FFFFFFFFFFFFFFFFFFFFFFFFFFFFFFFFFFFFFFFFFFFFFFFFFFFFFFFFFFFFFFF DUP3 AND PUSH0 SHL SWAP5 POP PUSH1 0x1B DUP2 PUSH2 0x27EC SWAP2 SWAP1 PUSH2 0x4728 JUMP JUMPDEST SWAP4 POP POP POP SWAP4 POP SWAP4 POP SWAP4 POP SWAP4 JUMP JUMPDEST PUSH0 PUSH2 0x2803 DUP3 PUSH2 0x2D3E JUMP JUMPDEST DUP1 MLOAD SWAP1 PUSH1 0x20 ADD KECCAK256 SWAP1 POP SWAP2 SWAP1 POP JUMP JUMPDEST PUSH0 DUP2 PUSH1 0x20 ADD PUSH1 0x20 DUP2 ADD SWAP1 PUSH2 0x2825 SWAP2 SWAP1 PUSH2 0x3CF4 JUMP JUMPDEST PUSH2 0x282F JUMPI CHAINID PUSH2 0x2831 JUMP JUMPDEST PUSH0 JUMPDEST DUP3 PUSH1 0x60 ADD CALLDATALOAD DUP4 PUSH1 0x80 ADD CALLDATALOAD PUSH2 0x284D DUP7 PUSH2 0x2848 SWAP1 PUSH2 0x48CB JUMP JUMPDEST PUSH2 0x2D97 JUMP JUMPDEST PUSH1 0x40 MLOAD PUSH1 0x20 ADD PUSH2 0x2860 SWAP5 SWAP4 SWAP3 SWAP2 SWAP1 PUSH2 0x491D JUMP JUMPDEST PUSH1 0x40 MLOAD PUSH1 0x20 DUP2 DUP4 SUB SUB DUP2 MSTORE SWAP1 PUSH1 0x40 MSTORE DUP1 MLOAD SWAP1 PUSH1 0x20 ADD KECCAK256 SWAP1 POP SWAP3 SWAP2 POP POP JUMP JUMPDEST PUSH0 PUSH0 PUSH0 SWAP1 POP PUSH0 PUSH1 0x1 DUP5 MLOAD PUSH2 0x2892 SWAP2 SWAP1 PUSH2 0x4973 JUMP JUMPDEST SWAP1 POP JUMPDEST DUP1 DUP3 SGT PUSH2 0x297F JUMPI PUSH0 PUSH1 0x2 DUP4 DUP4 PUSH2 0x28AB SWAP2 SWAP1 PUSH2 0x4973 JUMP JUMPDEST PUSH2 0x28B5 SWAP2 SWAP1 PUSH2 0x49B3 JUMP JUMPDEST DUP4 PUSH2 0x28C0 SWAP2 SWAP1 PUSH2 0x4A1B JUMP JUMPDEST SWAP1 POP PUSH0 DUP6 DUP3 DUP2 MLOAD DUP2 LT PUSH2 0x28D6 JUMPI PUSH2 0x28D5 PUSH2 0x3CA0 JUMP JUMPDEST JUMPDEST PUSH1 0x20 MUL PUSH1 0x20 ADD ADD MLOAD SWAP1 POP DUP7 PUSH20 0xFFFFFFFFFFFFFFFFFFFFFFFFFFFFFFFFFFFFFFFF AND DUP2 PUSH20 0xFFFFFFFFFFFFFFFFFFFFFFFFFFFFFFFFFFFFFFFF AND SUB PUSH2 0x2920 JUMPI PUSH1 0x1 SWAP5 POP POP POP POP POP PUSH2 0x2985 JUMP JUMPDEST DUP7 PUSH20 0xFFFFFFFFFFFFFFFFFFFFFFFFFFFFFFFFFFFFFFFF AND DUP2 PUSH20 0xFFFFFFFFFFFFFFFFFFFFFFFFFFFFFFFFFFFFFFFF AND LT ISZERO PUSH2 0x2968 JUMPI PUSH1 0x1 DUP3 PUSH2 0x2961 SWAP2 SWAP1 PUSH2 0x4A1B JUMP JUMPDEST SWAP4 POP PUSH2 0x2978 JUMP JUMPDEST PUSH1 0x1 DUP3 PUSH2 0x2975 SWAP2 SWAP1 PUSH2 0x4973 JUMP JUMPDEST SWAP3 POP JUMPDEST POP POP PUSH2 0x2895 JUMP JUMPDEST PUSH0 SWAP3 POP POP POP JUMPDEST SWAP3 SWAP2 POP POP JUMP JUMPDEST PUSH0 PUSH1 0x40 MLOAD PUSH1 0x20 ADD PUSH2 0x299B SWAP1 PUSH2 0x4AB0 JUMP JUMPDEST PUSH1 0x40 MLOAD PUSH1 0x20 DUP2 DUP4 SUB SUB DUP2 MSTORE SWAP1 PUSH1 0x40 MSTORE DUP1 MLOAD SWAP1 PUSH1 0x20 ADD KECCAK256 DUP3 DUP5 PUSH1 0x60 ADD MLOAD DUP6 PUSH1 0x40 ADD MLOAD PUSH1 0x40 MLOAD PUSH1 0x20 ADD PUSH2 0x29CF SWAP5 SWAP4 SWAP3 SWAP2 SWAP1 PUSH2 0x4B09 JUMP JUMPDEST PUSH1 0x40 MLOAD PUSH1 0x20 DUP2 DUP4 SUB SUB DUP2 MSTORE SWAP1 PUSH1 0x40 MSTORE DUP1 MLOAD SWAP1 PUSH1 0x20 ADD KECCAK256 SWAP1 POP SWAP3 SWAP2 POP POP JUMP JUMPDEST PUSH0 PUSH0 DUP5 DUP4 ADD CALLDATALOAD PUSH20 0xFFFFFFFFFFFFFFFFFFFFFFFFFFFFFFFFFFFFFFFF DUP2 PUSH1 0x60 SHR AND SWAP3 POP PUSH1 0x14 DUP5 ADD SWAP2 POP POP SWAP4 POP SWAP4 SWAP2 POP POP JUMP JUMPDEST PUSH0 PUSH0 DUP5 DUP4 ADD CALLDATALOAD SWAP2 POP PUSH1 0x20 DUP4 ADD SWAP1 POP SWAP4 POP SWAP4 SWAP2 POP POP JUMP JUMPDEST PUSH0 PUSH0 DUP5 DUP4 ADD CALLDATALOAD DUP1 PUSH1 0xC0 SHR SWAP3 POP PUSH1 0x8 DUP5 ADD SWAP2 POP POP SWAP4 POP SWAP4 SWAP2 POP POP JUMP JUMPDEST PUSH1 0x60 PUSH0 PUSH0 PUSH2 0x2A68 DUP5 DUP8 DUP8 PUSH2 0x25C3 SWAP3 SWAP1 SWAP2 SWAP3 PUSH4 0xFFFFFFFF AND JUMP JUMPDEST DUP2 PUSH1 0xFF AND SWAP2 POP DUP1 SWAP6 POP DUP2 SWAP3 POP POP POP DUP1 PUSH8 0xFFFFFFFFFFFFFFFF DUP2 GT ISZERO PUSH2 0x2A90 JUMPI PUSH2 0x2A8F PUSH2 0x3533 JUMP JUMPDEST JUMPDEST PUSH1 0x40 MLOAD SWAP1 DUP1 DUP3 MSTORE DUP1 PUSH1 0x20 MUL PUSH1 0x20 ADD DUP3 ADD PUSH1 0x40 MSTORE DUP1 ISZERO PUSH2 0x2AC9 JUMPI DUP2 PUSH1 0x20 ADD JUMPDEST PUSH2 0x2AB6 PUSH2 0x325D JUMP JUMPDEST DUP2 MSTORE PUSH1 0x20 ADD SWAP1 PUSH1 0x1 SWAP1 SUB SWAP1 DUP2 PUSH2 0x2AAE JUMPI SWAP1 POP JUMPDEST POP SWAP3 POP PUSH0 PUSH0 SWAP1 POP JUMPDEST DUP2 DUP2 LT ISZERO PUSH2 0x2B13 JUMPI PUSH2 0x2AE4 DUP8 DUP8 DUP8 PUSH2 0x2E18 JUMP JUMPDEST DUP6 DUP4 DUP2 MLOAD DUP2 LT PUSH2 0x2AF7 JUMPI PUSH2 0x2AF6 PUSH2 0x3CA0 JUMP JUMPDEST JUMPDEST PUSH1 0x20 MUL PUSH1 0x20 ADD ADD DUP2 SWAP8 POP DUP3 SWAP1 MSTORE POP POP DUP1 DUP1 PUSH1 0x1 ADD SWAP2 POP POP PUSH2 0x2AD1 JUMP JUMPDEST POP DUP3 DUP5 SWAP3 POP SWAP3 POP POP SWAP4 POP SWAP4 SWAP2 POP POP JUMP JUMPDEST PUSH0 PUSH0 DUP4 DUP4 PUSH1 0x40 MLOAD PUSH1 0x20 ADD PUSH2 0x2B39 SWAP4 SWAP3 SWAP2 SWAP1 PUSH2 0x4B8A JUMP JUMPDEST PUSH1 0x40 MLOAD PUSH1 0x20 DUP2 DUP4 SUB SUB DUP2 MSTORE SWAP1 PUSH1 0x40 MSTORE DUP1 MLOAD SWAP1 PUSH1 0x20 ADD KECCAK256 SWAP1 POP SWAP3 SWAP2 POP POP JUMP JUMPDEST PUSH0 DUP3 PUSH0 MSTORE DUP2 PUSH1 0x20 MSTORE PUSH1 0x40 PUSH0 KECCAK256 SWAP1 POP SWAP3 SWAP2 POP POP JUMP JUMPDEST PUSH0 PUSH0 DUP6 DUP5 ADD CALLDATALOAD PUSH1 0x8 DUP5 MUL PUSH2 0x100 SUB PUSH1 0x1 DUP1 DUP7 PUSH1 0x8 MUL SHL SUB DUP3 DUP3 SHR AND SWAP4 POP DUP5 DUP7 ADD SWAP3 POP POP POP SWAP5 POP SWAP5 SWAP3 POP POP POP JUMP JUMPDEST PUSH0 PUSH0 DUP5 DUP4 ADD CALLDATALOAD DUP1 PUSH1 0xF0 SHR SWAP3 POP PUSH1 0x2 DUP5 ADD SWAP2 POP POP SWAP4 POP SWAP4 SWAP2 POP POP JUMP JUMPDEST PUSH0 PUSH1 0x3 DUP4 DUP4 PUSH1 0x40 MLOAD PUSH1 0x20 ADD PUSH2 0x2BCA SWAP4 SWAP3 SWAP2 SWAP1 PUSH2 0x4B8A JUMP JUMPDEST PUSH1 0x40 MLOAD PUSH1 0x20 DUP2 DUP4 SUB SUB DUP2 MSTORE SWAP1 PUSH1 0x40 MSTORE DUP1 MLOAD SWAP1 PUSH1 0x20 ADD KECCAK256 SWAP1 POP SWAP3 SWAP2 POP POP JUMP JUMPDEST PUSH0 PUSH1 0x4 DUP3 PUSH1 0x40 MLOAD PUSH1 0x20 ADD PUSH2 0x2BFD SWAP3 SWAP2 SWAP1 PUSH2 0x4BB3 JUMP JUMPDEST PUSH1 0x40 MLOAD PUSH1 0x20 DUP2 DUP4 SUB SUB DUP2 MSTORE SWAP1 PUSH1 0x40 MSTORE DUP1 MLOAD SWAP1 PUSH1 0x20 ADD KECCAK256 SWAP1 POP SWAP2 SWAP1 POP JUMP JUMPDEST PUSH0 PUSH0 DUP5 DUP4 ADD CALLDATALOAD PUSH32 0xFFFFFFFF00000000000000000000000000000000000000000000000000000000 DUP2 AND SWAP3 POP PUSH1 0x4 DUP5 ADD SWAP2 POP POP SWAP4 POP SWAP4 SWAP2 POP POP JUMP JUMPDEST PUSH2 0x2C5C PUSH2 0x328C JUMP JUMPDEST PUSH0 PUSH0 PUSH2 0x2C73 DUP5 DUP8 DUP8 PUSH2 0x1E00 SWAP3 SWAP1 SWAP2 SWAP3 PUSH4 0xFFFFFFFF AND JUMP JUMPDEST DUP1 SWAP6 POP DUP2 SWAP3 POP POP POP DUP6 DUP6 DUP6 SWAP1 DUP4 PUSH3 0xFFFFFF AND DUP8 PUSH2 0x2C90 SWAP2 SWAP1 PUSH2 0x3E18 JUMP JUMPDEST SWAP3 PUSH2 0x2C9D SWAP4 SWAP3 SWAP2 SWAP1 PUSH2 0x40CA JUMP JUMPDEST DUP1 DUP1 PUSH1 0x1F ADD PUSH1 0x20 DUP1 SWAP2 DIV MUL PUSH1 0x20 ADD PUSH1 0x40 MLOAD SWAP1 DUP2 ADD PUSH1 0x40 MSTORE DUP1 SWAP4 SWAP3 SWAP2 SWAP1 DUP2 DUP2 MSTORE PUSH1 0x20 ADD DUP4 DUP4 DUP1 DUP3 DUP5 CALLDATACOPY PUSH0 DUP2 DUP5 ADD MSTORE PUSH1 0x1F NOT PUSH1 0x1F DUP3 ADD AND SWAP1 POP DUP1 DUP4 ADD SWAP3 POP POP POP POP POP POP POP DUP4 PUSH0 ADD DUP2 SWAP1 MSTORE POP DUP1 PUSH3 0xFFFFFF AND DUP5 PUSH2 0x2CF7 SWAP2 SWAP1 PUSH2 0x3E18 JUMP JUMPDEST SWAP4 POP PUSH2 0x2D0E DUP5 DUP8 DUP8 PUSH2 0x2A34 SWAP3 SWAP1 SWAP2 SWAP3 PUSH4 0xFFFFFFFF AND JUMP JUMPDEST DUP5 PUSH1 0x20 ADD DUP2 SWAP7 POP DUP3 PUSH8 0xFFFFFFFFFFFFFFFF AND PUSH8 0xFFFFFFFFFFFFFFFF AND DUP2 MSTORE POP POP POP DUP3 DUP5 SWAP3 POP SWAP3 POP POP SWAP4 POP SWAP4 SWAP2 POP POP JUMP JUMPDEST PUSH1 0x60 DUP2 PUSH0 ADD MLOAD DUP3 PUSH1 0x20 ADD MLOAD DUP4 PUSH1 0x40 ADD MLOAD DUP5 PUSH1 0x60 ADD MLOAD DUP6 PUSH1 0x80 ADD MLOAD MLOAD DUP7 PUSH1 0x80 ADD MLOAD PUSH2 0x2D6B DUP9 PUSH1 0xA0 ADD MLOAD PUSH2 0x3097 JUMP JUMPDEST PUSH1 0x40 MLOAD PUSH1 0x20 ADD PUSH2 0x2D81 SWAP8 SWAP7 SWAP6 SWAP5 SWAP4 SWAP3 SWAP2 SWAP1 PUSH2 0x4C70 JUMP JUMPDEST PUSH1 0x40 MLOAD PUSH1 0x20 DUP2 DUP4 SUB SUB DUP2 MSTORE SWAP1 PUSH1 0x40 MSTORE SWAP1 POP SWAP2 SWAP1 POP JUMP JUMPDEST PUSH0 PUSH32 0x603985259A953DA1F65A522F589C17BD1D0117EC1D3ABB7C0788AEF251EF437 PUSH0 SHL DUP3 PUSH0 ADD MLOAD DUP4 PUSH1 0x20 ADD MLOAD DUP5 PUSH1 0x40 ADD MLOAD DUP1 MLOAD SWAP1 PUSH1 0x20 ADD KECCAK256 DUP6 PUSH1 0x60 ADD MLOAD DUP7 PUSH1 0x80 ADD MLOAD DUP8 PUSH1 0xA0 ADD MLOAD DUP9 PUSH1 0xC0 ADD MLOAD PUSH1 0x40 MLOAD PUSH1 0x20 ADD PUSH2 0x2DFB SWAP9 SWAP8 SWAP7 SWAP6 SWAP5 SWAP4 SWAP3 SWAP2 SWAP1 PUSH2 0x4CE8 JUMP JUMPDEST PUSH1 0x40 MLOAD PUSH1 0x20 DUP2 DUP4 SUB SUB DUP2 MSTORE SWAP1 PUSH1 0x40 MSTORE DUP1 MLOAD SWAP1 PUSH1 0x20 ADD KECCAK256 SWAP1 POP SWAP2 SWAP1 POP JUMP JUMPDEST PUSH2 0x2E20 PUSH2 0x325D JUMP JUMPDEST PUSH0 PUSH2 0x2E36 DUP4 DUP7 DUP7 PUSH2 0x29ED SWAP3 SWAP1 SWAP2 SWAP3 PUSH4 0xFFFFFFFF AND JUMP JUMPDEST DUP4 PUSH0 ADD DUP2 SWAP6 POP DUP3 PUSH20 0xFFFFFFFFFFFFFFFFFFFFFFFFFFFFFFFFFFFFFFFF AND PUSH20 0xFFFFFFFFFFFFFFFFFFFFFFFFFFFFFFFFFFFFFFFF AND DUP2 MSTORE POP POP POP PUSH0 PUSH2 0x2E84 DUP5 DUP8 DUP8 PUSH2 0x25C3 SWAP3 SWAP1 SWAP2 SWAP3 PUSH4 0xFFFFFFFF AND JUMP JUMPDEST DUP2 PUSH1 0xFF AND SWAP2 POP DUP1 SWAP6 POP DUP2 SWAP3 POP POP POP DUP1 PUSH8 0xFFFFFFFFFFFFFFFF DUP2 GT ISZERO PUSH2 0x2EAC JUMPI PUSH2 0x2EAB PUSH2 0x3533 JUMP JUMPDEST JUMPDEST PUSH1 0x40 MLOAD SWAP1 DUP1 DUP3 MSTORE DUP1 PUSH1 0x20 MUL PUSH1 0x20 ADD DUP3 ADD PUSH1 0x40 MSTORE DUP1 ISZERO PUSH2 0x2EE5 JUMPI DUP2 PUSH1 0x20 ADD JUMPDEST PUSH2 0x2ED2 PUSH2 0x32AF JUMP JUMPDEST DUP2 MSTORE PUSH1 0x20 ADD SWAP1 PUSH1 0x1 SWAP1 SUB SWAP1 DUP2 PUSH2 0x2ECA JUMPI SWAP1 POP JUMPDEST POP DUP4 PUSH1 0x20 ADD DUP2 SWAP1 MSTORE POP PUSH0 PUSH0 SWAP1 POP JUMPDEST DUP2 DUP2 LT ISZERO PUSH2 0x3087 JUMPI PUSH0 PUSH2 0x2F11 DUP7 DUP10 DUP10 PUSH2 0x25C3 SWAP3 SWAP1 SWAP2 SWAP3 PUSH4 0xFFFFFFFF AND JUMP JUMPDEST DUP1 SWAP8 POP DUP2 SWAP3 POP POP POP PUSH0 PUSH1 0x1 DUP3 AND PUSH1 0xFF AND EQ ISZERO DUP6 PUSH1 0x20 ADD MLOAD DUP4 DUP2 MLOAD DUP2 LT PUSH2 0x2F3A JUMPI PUSH2 0x2F39 PUSH2 0x3CA0 JUMP JUMPDEST JUMPDEST PUSH1 0x20 MUL PUSH1 0x20 ADD ADD MLOAD PUSH0 ADD SWAP1 ISZERO ISZERO SWAP1 DUP2 ISZERO ISZERO DUP2 MSTORE POP POP PUSH1 0x1 DUP2 PUSH1 0xFF AND SWAP1 SHR PUSH1 0xFF AND PUSH1 0x3 DUP2 GT ISZERO PUSH2 0x2F6C JUMPI PUSH2 0x2F6B PUSH2 0x3EF4 JUMP JUMPDEST JUMPDEST DUP6 PUSH1 0x20 ADD MLOAD DUP4 DUP2 MLOAD DUP2 LT PUSH2 0x2F83 JUMPI PUSH2 0x2F82 PUSH2 0x3CA0 JUMP JUMPDEST JUMPDEST PUSH1 0x20 MUL PUSH1 0x20 ADD ADD MLOAD PUSH1 0x20 ADD SWAP1 PUSH1 0x3 DUP2 GT ISZERO PUSH2 0x2FA1 JUMPI PUSH2 0x2FA0 PUSH2 0x3EF4 JUMP JUMPDEST JUMPDEST SWAP1 DUP2 PUSH1 0x3 DUP2 GT ISZERO PUSH2 0x2FB5 JUMPI PUSH2 0x2FB4 PUSH2 0x3EF4 JUMP JUMPDEST JUMPDEST DUP2 MSTORE POP POP PUSH2 0x2FCE DUP7 DUP10 DUP10 PUSH2 0x1D5A SWAP3 SWAP1 SWAP2 SWAP3 PUSH4 0xFFFFFFFF AND JUMP JUMPDEST DUP7 PUSH1 0x20 ADD MLOAD DUP5 DUP2 MLOAD DUP2 LT PUSH2 0x2FE5 JUMPI PUSH2 0x2FE4 PUSH2 0x3CA0 JUMP JUMPDEST JUMPDEST PUSH1 0x20 MUL PUSH1 0x20 ADD ADD MLOAD PUSH1 0x40 ADD DUP2 SWAP9 POP DUP3 DUP2 MSTORE POP POP POP PUSH2 0x300E DUP7 DUP10 DUP10 PUSH2 0x2A1E SWAP3 SWAP1 SWAP2 SWAP3 PUSH4 0xFFFFFFFF AND JUMP JUMPDEST DUP7 PUSH1 0x20 ADD MLOAD DUP5 DUP2 MLOAD DUP2 LT PUSH2 0x3025 JUMPI PUSH2 0x3024 PUSH2 0x3CA0 JUMP JUMPDEST JUMPDEST PUSH1 0x20 MUL PUSH1 0x20 ADD ADD MLOAD PUSH1 0x60 ADD DUP2 SWAP9 POP DUP3 DUP2 MSTORE POP POP POP PUSH2 0x304E DUP7 DUP10 DUP10 PUSH2 0x1D5A SWAP3 SWAP1 SWAP2 SWAP3 PUSH4 0xFFFFFFFF AND JUMP JUMPDEST DUP7 PUSH1 0x20 ADD MLOAD DUP5 DUP2 MLOAD DUP2 LT PUSH2 0x3065 JUMPI PUSH2 0x3064 PUSH2 0x3CA0 JUMP JUMPDEST JUMPDEST PUSH1 0x20 MUL PUSH1 0x20 ADD ADD MLOAD PUSH1 0x80 ADD DUP2 SWAP9 POP DUP3 DUP2 MSTORE POP POP POP POP DUP1 DUP1 PUSH1 0x1 ADD SWAP2 POP POP PUSH2 0x2EF3 JUMP JUMPDEST POP DUP3 DUP5 SWAP3 POP SWAP3 POP POP SWAP4 POP SWAP4 SWAP2 POP POP JUMP JUMPDEST PUSH1 0x60 DUP2 PUSH0 ADD MLOAD MLOAD DUP3 PUSH0 ADD MLOAD DUP4 PUSH1 0x20 ADD MLOAD PUSH1 0x40 MLOAD PUSH1 0x20 ADD PUSH2 0x30B9 SWAP4 SWAP3 SWAP2 SWAP1 PUSH2 0x4D98 JUMP JUMPDEST PUSH1 0x40 MLOAD PUSH1 0x20 DUP2 DUP4 SUB SUB DUP2 MSTORE SWAP1 PUSH1 0x40 MSTORE SWAP1 POP SWAP2 SWAP1 POP JUMP JUMPDEST PUSH1 0x40 MLOAD DUP1 PUSH1 0x60 ADD PUSH1 0x40 MSTORE DUP1 PUSH0 PUSH20 0xFFFFFFFFFFFFFFFFFFFFFFFFFFFFFFFFFFFFFFFF AND DUP2 MSTORE PUSH1 0x20 ADD PUSH1 0x60 DUP2 MSTORE PUSH1 0x20 ADD PUSH0 DUP2 MSTORE POP SWAP1 JUMP JUMPDEST PUSH1 0x40 MLOAD DUP1 PUSH1 0x40 ADD PUSH1 0x40 MSTORE DUP1 PUSH0 DUP2 MSTORE PUSH1 0x20 ADD PUSH0 DUP2 MSTORE POP SWAP1 JUMP JUMPDEST PUSH1 0x40 MLOAD DUP1 PUSH1 0xA0 ADD PUSH1 0x40 MSTORE DUP1 PUSH0 DUP2 MSTORE PUSH1 0x20 ADD PUSH0 PUSH20 0xFFFFFFFFFFFFFFFFFFFFFFFFFFFFFFFFFFFFFFFF AND DUP2 MSTORE PUSH1 0x20 ADD PUSH1 0x60 DUP2 MSTORE PUSH1 0x20 ADD PUSH1 0x60 DUP2 MSTORE PUSH1 0x20 ADD PUSH1 0x60 DUP2 MSTORE POP SWAP1 JUMP JUMPDEST PUSH1 0x40 MLOAD DUP1 PUSH1 0xC0 ADD PUSH1 0x40 MSTORE DUP1 PUSH0 PUSH20 0xFFFFFFFFFFFFFFFFFFFFFFFFFFFFFFFFFFFFFFFF AND DUP2 MSTORE PUSH1 0x20 ADD PUSH0 PUSH28 0xFFFFFFFFFFFFFFFFFFFFFFFFFFFFFFFFFFFFFFFFFFFFFFFFFFFFFFFF NOT AND DUP2 MSTORE PUSH1 0x20 ADD PUSH0 DUP2 MSTORE PUSH1 0x20 ADD PUSH0 DUP2 MSTORE PUSH1 0x20 ADD PUSH1 0x60 DUP2 MSTORE PUSH1 0x20 ADD PUSH2 0x31C6 PUSH2 0x328C JUMP JUMPDEST DUP2 MSTORE POP SWAP1 JUMP JUMPDEST PUSH1 0x40 MLOAD DUP1 PUSH1 0x80 ADD PUSH1 0x40 MSTORE DUP1 PUSH0 ISZERO ISZERO DUP2 MSTORE PUSH1 0x20 ADD PUSH0 PUSH20 0xFFFFFFFFFFFFFFFFFFFFFFFFFFFFFFFFFFFFFFFF AND DUP2 MSTORE PUSH1 0x20 ADD PUSH0 PUSH1 0xFF AND DUP2 MSTORE PUSH1 0x20 ADD PUSH2 0x320C PUSH2 0x315F JUMP JUMPDEST DUP2 MSTORE POP SWAP1 JUMP JUMPDEST PUSH1 0x40 MLOAD DUP1 PUSH1 0xA0 ADD PUSH1 0x40 MSTORE DUP1 PUSH0 PUSH20 0xFFFFFFFFFFFFFFFFFFFFFFFFFFFFFFFFFFFFFFFF AND DUP2 MSTORE PUSH1 0x20 ADD PUSH0 DUP2 MSTORE PUSH1 0x20 ADD PUSH0 DUP2 MSTORE PUSH1 0x20 ADD PUSH0 PUSH8 0xFFFFFFFFFFFFFFFF AND DUP2 MSTORE PUSH1 0x20 ADD PUSH1 0x60 DUP2 MSTORE POP SWAP1 JUMP JUMPDEST PUSH1 0x40 MLOAD DUP1 PUSH1 0x40 ADD PUSH1 0x40 MSTORE DUP1 PUSH0 PUSH20 0xFFFFFFFFFFFFFFFFFFFFFFFFFFFFFFFFFFFFFFFF AND DUP2 MSTORE PUSH1 0x20 ADD PUSH1 0x60 DUP2 MSTORE POP SWAP1 JUMP JUMPDEST PUSH1 0x40 MLOAD DUP1 PUSH1 0x40 ADD PUSH1 0x40 MSTORE DUP1 PUSH1 0x60 DUP2 MSTORE PUSH1 0x20 ADD PUSH0 PUSH8 0xFFFFFFFFFFFFFFFF AND DUP2 MSTORE POP SWAP1 JUMP JUMPDEST PUSH1 0x40 MLOAD DUP1 PUSH1 0xA0 ADD PUSH1 0x40 MSTORE DUP1 PUSH0 ISZERO ISZERO DUP2 MSTORE PUSH1 0x20 ADD PUSH0 PUSH1 0x3 DUP2 GT ISZERO PUSH2 0x32D5 JUMPI PUSH2 0x32D4 PUSH2 0x3EF4 JUMP JUMPDEST JUMPDEST DUP2 MSTORE PUSH1 0x20 ADD PUSH0 DUP2 MSTORE PUSH1 0x20 ADD PUSH0 DUP2 MSTORE PUSH1 0x20 ADD PUSH0 DUP2 MSTORE POP SWAP1 JUMP JUMPDEST PUSH0 PUSH1 0x40 MLOAD SWAP1 POP SWAP1 JUMP JUMPDEST PUSH0 PUSH0 REVERT JUMPDEST PUSH0 PUSH0 REVERT JUMPDEST PUSH0 PUSH0 REVERT JUMPDEST PUSH0 PUSH2 0x120 DUP3 DUP5 SUB SLT ISZERO PUSH2 0x3318 JUMPI PUSH2 0x3317 PUSH2 0x32FE JUMP JUMPDEST JUMPDEST DUP2 SWAP1 POP SWAP3 SWAP2 POP POP JUMP JUMPDEST PUSH0 PUSH0 REVERT JUMPDEST PUSH0 PUSH0 REVERT JUMPDEST PUSH0 PUSH0 REVERT JUMPDEST PUSH0 PUSH0 DUP4 PUSH1 0x1F DUP5 ADD SLT PUSH2 0x3342 JUMPI PUSH2 0x3341 PUSH2 0x3321 JUMP JUMPDEST JUMPDEST DUP3 CALLDATALOAD SWAP1 POP PUSH8 0xFFFFFFFFFFFFFFFF DUP2 GT ISZERO PUSH2 0x335F JUMPI PUSH2 0x335E PUSH2 0x3325 JUMP JUMPDEST JUMPDEST PUSH1 0x20 DUP4 ADD SWAP2 POP DUP4 PUSH1 0x1 DUP3 MUL DUP4 ADD GT ISZERO PUSH2 0x337B JUMPI PUSH2 0x337A PUSH2 0x3329 JUMP JUMPDEST JUMPDEST SWAP3 POP SWAP3 SWAP1 POP JUMP JUMPDEST PUSH0 PUSH0 PUSH0 PUSH1 0x40 DUP5 DUP7 SUB SLT ISZERO PUSH2 0x3399 JUMPI PUSH2 0x3398 PUSH2 0x32F6 JUMP JUMPDEST JUMPDEST PUSH0 DUP5 ADD CALLDATALOAD PUSH8 0xFFFFFFFFFFFFFFFF DUP2 GT ISZERO PUSH2 0x33B6 JUMPI PUSH2 0x33B5 PUSH2 0x32FA JUMP JUMPDEST JUMPDEST PUSH2 0x33C2 DUP7 DUP3 DUP8 ADD PUSH2 0x3302 JUMP JUMPDEST SWAP4 POP POP PUSH1 0x20 DUP5 ADD CALLDATALOAD PUSH8 0xFFFFFFFFFFFFFFFF DUP2 GT ISZERO PUSH2 0x33E3 JUMPI PUSH2 0x33E2 PUSH2 0x32FA JUMP JUMPDEST JUMPDEST PUSH2 0x33EF DUP7 DUP3 DUP8 ADD PUSH2 0x332D JUMP JUMPDEST SWAP3 POP SWAP3 POP POP SWAP3 POP SWAP3 POP SWAP3 JUMP JUMPDEST PUSH0 DUP2 SWAP1 POP SWAP2 SWAP1 POP JUMP JUMPDEST PUSH2 0x340D DUP2 PUSH2 0x33FB JUMP JUMPDEST DUP3 MSTORE POP POP JUMP JUMPDEST PUSH0 PUSH1 0x20 DUP3 ADD SWAP1 POP PUSH2 0x3426 PUSH0 DUP4 ADD DUP5 PUSH2 0x3404 JUMP JUMPDEST SWAP3 SWAP2 POP POP JUMP JUMPDEST PUSH0 PUSH20 0xFFFFFFFFFFFFFFFFFFFFFFFFFFFFFFFFFFFFFFFF DUP3 AND SWAP1 POP SWAP2 SWAP1 POP JUMP JUMPDEST PUSH0 PUSH2 0x3455 DUP3 PUSH2 0x342C JUMP JUMPDEST SWAP1 POP SWAP2 SWAP1 POP JUMP JUMPDEST PUSH2 0x3465 DUP2 PUSH2 0x344B JUMP JUMPDEST DUP2 EQ PUSH2 0x346F JUMPI PUSH0 PUSH0 REVERT JUMPDEST POP JUMP JUMPDEST PUSH0 DUP2 CALLDATALOAD SWAP1 POP PUSH2 0x3480 DUP2 PUSH2 0x345C JUMP JUMPDEST SWAP3 SWAP2 POP POP JUMP JUMPDEST PUSH2 0x348F DUP2 PUSH2 0x33FB JUMP JUMPDEST DUP2 EQ PUSH2 0x3499 JUMPI PUSH0 PUSH0 REVERT JUMPDEST POP JUMP JUMPDEST PUSH0 DUP2 CALLDATALOAD SWAP1 POP PUSH2 0x34AA DUP2 PUSH2 0x3486 JUMP JUMPDEST SWAP3 SWAP2 POP POP JUMP JUMPDEST PUSH0 PUSH0 PUSH1 0x40 DUP4 DUP6 SUB SLT ISZERO PUSH2 0x34C6 JUMPI PUSH2 0x34C5 PUSH2 0x32F6 JUMP JUMPDEST JUMPDEST PUSH0 PUSH2 0x34D3 DUP6 DUP3 DUP7 ADD PUSH2 0x3472 JUMP JUMPDEST SWAP3 POP POP PUSH1 0x20 PUSH2 0x34E4 DUP6 DUP3 DUP7 ADD PUSH2 0x349C JUMP JUMPDEST SWAP2 POP POP SWAP3 POP SWAP3 SWAP1 POP JUMP JUMPDEST PUSH0 DUP2 SWAP1 POP SWAP2 SWAP1 POP JUMP JUMPDEST PUSH2 0x3500 DUP2 PUSH2 0x34EE JUMP JUMPDEST DUP3 MSTORE POP POP JUMP JUMPDEST PUSH0 PUSH1 0x20 DUP3 ADD SWAP1 POP PUSH2 0x3519 PUSH0 DUP4 ADD DUP5 PUSH2 0x34F7 JUMP JUMPDEST SWAP3 SWAP2 POP POP JUMP JUMPDEST PUSH0 PUSH0 REVERT JUMPDEST PUSH0 PUSH1 0x1F NOT PUSH1 0x1F DUP4 ADD AND SWAP1 POP SWAP2 SWAP1 POP JUMP JUMPDEST PUSH32 0x4E487B7100000000000000000000000000000000000000000000000000000000 PUSH0 MSTORE PUSH1 0x41 PUSH1 0x4 MSTORE PUSH1 0x24 PUSH0 REVERT JUMPDEST PUSH2 0x3569 DUP3 PUSH2 0x3523 JUMP JUMPDEST DUP2 ADD DUP2 DUP2 LT PUSH8 0xFFFFFFFFFFFFFFFF DUP3 GT OR ISZERO PUSH2 0x3588 JUMPI PUSH2 0x3587 PUSH2 0x3533 JUMP JUMPDEST JUMPDEST DUP1 PUSH1 0x40 MSTORE POP POP POP JUMP JUMPDEST PUSH0 PUSH2 0x359A PUSH2 0x32ED JUMP JUMPDEST SWAP1 POP PUSH2 0x35A6 DUP3 DUP3 PUSH2 0x3560 JUMP JUMPDEST SWAP2 SWAP1 POP JUMP JUMPDEST PUSH0 PUSH0 REVERT JUMPDEST PUSH0 PUSH8 0xFFFFFFFFFFFFFFFF DUP3 GT ISZERO PUSH2 0x35C9 JUMPI PUSH2 0x35C8 PUSH2 0x3533 JUMP JUMPDEST JUMPDEST PUSH1 0x20 DUP3 MUL SWAP1 POP PUSH1 0x20 DUP2 ADD SWAP1 POP SWAP2 SWAP1 POP JUMP JUMPDEST PUSH0 DUP2 ISZERO ISZERO SWAP1 POP SWAP2 SWAP1 POP JUMP JUMPDEST PUSH2 0x35EE DUP2 PUSH2 0x35DA JUMP JUMPDEST DUP2 EQ PUSH2 0x35F8 JUMPI PUSH0 PUSH0 REVERT JUMPDEST POP JUMP JUMPDEST PUSH0 DUP2 CALLDATALOAD SWAP1 POP PUSH2 0x3609 DUP2 PUSH2 0x35E5 JUMP JUMPDEST SWAP3 SWAP2 POP POP JUMP JUMPDEST PUSH1 0x4 DUP2 LT PUSH2 0x361B JUMPI PUSH0 PUSH0 REVERT JUMPDEST POP JUMP JUMPDEST PUSH0 DUP2 CALLDATALOAD SWAP1 POP PUSH2 0x362C DUP2 PUSH2 0x360F JUMP JUMPDEST SWAP3 SWAP2 POP POP JUMP JUMPDEST PUSH2 0x363B DUP2 PUSH2 0x34EE JUMP JUMPDEST DUP2 EQ PUSH2 0x3645 JUMPI PUSH0 PUSH0 REVERT JUMPDEST POP JUMP JUMPDEST PUSH0 DUP2 CALLDATALOAD SWAP1 POP PUSH2 0x3656 DUP2 PUSH2 0x3632 JUMP JUMPDEST SWAP3 SWAP2 POP POP JUMP JUMPDEST PUSH0 PUSH1 0xA0 DUP3 DUP5 SUB SLT ISZERO PUSH2 0x3671 JUMPI PUSH2 0x3670 PUSH2 0x351F JUMP JUMPDEST JUMPDEST PUSH2 0x367B PUSH1 0xA0 PUSH2 0x3591 JUMP JUMPDEST SWAP1 POP PUSH0 PUSH2 0x368A DUP5 DUP3 DUP6 ADD PUSH2 0x35FB JUMP JUMPDEST PUSH0 DUP4 ADD MSTORE POP PUSH1 0x20 PUSH2 0x369D DUP5 DUP3 DUP6 ADD PUSH2 0x361E JUMP JUMPDEST PUSH1 0x20 DUP4 ADD MSTORE POP PUSH1 0x40 PUSH2 0x36B1 DUP5 DUP3 DUP6 ADD PUSH2 0x349C JUMP JUMPDEST PUSH1 0x40 DUP4 ADD MSTORE POP PUSH1 0x60 PUSH2 0x36C5 DUP5 DUP3 DUP6 ADD PUSH2 0x3648 JUMP JUMPDEST PUSH1 0x60 DUP4 ADD MSTORE POP PUSH1 0x80 PUSH2 0x36D9 DUP5 DUP3 DUP6 ADD PUSH2 0x349C JUMP JUMPDEST PUSH1 0x80 DUP4 ADD MSTORE POP SWAP3 SWAP2 POP POP JUMP JUMPDEST PUSH0 PUSH2 0x36F7 PUSH2 0x36F2 DUP5 PUSH2 0x35AF JUMP JUMPDEST PUSH2 0x3591 JUMP JUMPDEST SWAP1 POP DUP1 DUP4 DUP3 MSTORE PUSH1 0x20 DUP3 ADD SWAP1 POP PUSH1 0xA0 DUP5 MUL DUP4 ADD DUP6 DUP2 GT ISZERO PUSH2 0x371A JUMPI PUSH2 0x3719 PUSH2 0x3329 JUMP JUMPDEST JUMPDEST DUP4 JUMPDEST DUP2 DUP2 LT ISZERO PUSH2 0x3743 JUMPI DUP1 PUSH2 0x372F DUP9 DUP3 PUSH2 0x365C JUMP JUMPDEST DUP5 MSTORE PUSH1 0x20 DUP5 ADD SWAP4 POP POP PUSH1 0xA0 DUP2 ADD SWAP1 POP PUSH2 0x371C JUMP JUMPDEST POP POP POP SWAP4 SWAP3 POP POP POP JUMP JUMPDEST PUSH0 DUP3 PUSH1 0x1F DUP4 ADD SLT PUSH2 0x3761 JUMPI PUSH2 0x3760 PUSH2 0x3321 JUMP JUMPDEST JUMPDEST DUP2 CALLDATALOAD PUSH2 0x3771 DUP5 DUP3 PUSH1 0x20 DUP7 ADD PUSH2 0x36E5 JUMP JUMPDEST SWAP2 POP POP SWAP3 SWAP2 POP POP JUMP JUMPDEST PUSH0 PUSH1 0x40 DUP3 DUP5 SUB SLT ISZERO PUSH2 0x378F JUMPI PUSH2 0x378E PUSH2 0x351F JUMP JUMPDEST JUMPDEST PUSH2 0x3799 PUSH1 0x40 PUSH2 0x3591 JUMP JUMPDEST SWAP1 POP PUSH0 PUSH2 0x37A8 DUP5 DUP3 DUP6 ADD PUSH2 0x3472 JUMP JUMPDEST PUSH0 DUP4 ADD MSTORE POP PUSH1 0x20 DUP3 ADD CALLDATALOAD PUSH8 0xFFFFFFFFFFFFFFFF DUP2 GT ISZERO PUSH2 0x37CB JUMPI PUSH2 0x37CA PUSH2 0x35AB JUMP JUMPDEST JUMPDEST PUSH2 0x37D7 DUP5 DUP3 DUP6 ADD PUSH2 0x374D JUMP JUMPDEST PUSH1 0x20 DUP4 ADD MSTORE POP SWAP3 SWAP2 POP POP JUMP JUMPDEST PUSH0 PUSH1 0xE0 DUP3 DUP5 SUB SLT ISZERO PUSH2 0x37F8 JUMPI PUSH2 0x37F7 PUSH2 0x32FE JUMP JUMPDEST JUMPDEST DUP2 SWAP1 POP SWAP3 SWAP2 POP POP JUMP JUMPDEST PUSH0 PUSH8 0xFFFFFFFFFFFFFFFF DUP3 GT ISZERO PUSH2 0x381B JUMPI PUSH2 0x381A PUSH2 0x3533 JUMP JUMPDEST JUMPDEST PUSH1 0x20 DUP3 MUL SWAP1 POP PUSH1 0x20 DUP2 ADD SWAP1 POP SWAP2 SWAP1 POP JUMP JUMPDEST PUSH0 PUSH1 0x40 DUP3 DUP5 SUB SLT ISZERO PUSH2 0x3841 JUMPI PUSH2 0x3840 PUSH2 0x351F JUMP JUMPDEST JUMPDEST PUSH2 0x384B PUSH1 0x40 PUSH2 0x3591 JUMP JUMPDEST SWAP1 POP PUSH0 PUSH2 0x385A DUP5 DUP3 DUP6 ADD PUSH2 0x349C JUMP JUMPDEST PUSH0 DUP4 ADD MSTORE POP PUSH1 0x20 PUSH2 0x386D DUP5 DUP3 DUP6 ADD PUSH2 0x3648 JUMP JUMPDEST PUSH1 0x20 DUP4 ADD MSTORE POP SWAP3 SWAP2 POP POP JUMP JUMPDEST PUSH0 PUSH2 0x388B PUSH2 0x3886 DUP5 PUSH2 0x3801 JUMP JUMPDEST PUSH2 0x3591 JUMP JUMPDEST SWAP1 POP DUP1 DUP4 DUP3 MSTORE PUSH1 0x20 DUP3 ADD SWAP1 POP PUSH1 0x40 DUP5 MUL DUP4 ADD DUP6 DUP2 GT ISZERO PUSH2 0x38AE JUMPI PUSH2 0x38AD PUSH2 0x3329 JUMP JUMPDEST JUMPDEST DUP4 JUMPDEST DUP2 DUP2 LT ISZERO PUSH2 0x38D7 JUMPI DUP1 PUSH2 0x38C3 DUP9 DUP3 PUSH2 0x382C JUMP JUMPDEST DUP5 MSTORE PUSH1 0x20 DUP5 ADD SWAP4 POP POP PUSH1 0x40 DUP2 ADD SWAP1 POP PUSH2 0x38B0 JUMP JUMPDEST POP POP POP SWAP4 SWAP3 POP POP POP JUMP JUMPDEST PUSH0 DUP3 PUSH1 0x1F DUP4 ADD SLT PUSH2 0x38F5 JUMPI PUSH2 0x38F4 PUSH2 0x3321 JUMP JUMPDEST JUMPDEST DUP2 CALLDATALOAD PUSH2 0x3905 DUP5 DUP3 PUSH1 0x20 DUP7 ADD PUSH2 0x3879 JUMP JUMPDEST SWAP2 POP POP SWAP3 SWAP2 POP POP JUMP JUMPDEST PUSH0 PUSH0 PUSH0 PUSH0 PUSH0 PUSH1 0xA0 DUP7 DUP9 SUB SLT ISZERO PUSH2 0x3927 JUMPI PUSH2 0x3926 PUSH2 0x32F6 JUMP JUMPDEST JUMPDEST PUSH0 DUP7 ADD CALLDATALOAD PUSH8 0xFFFFFFFFFFFFFFFF DUP2 GT ISZERO PUSH2 0x3944 JUMPI PUSH2 0x3943 PUSH2 0x32FA JUMP JUMPDEST JUMPDEST PUSH2 0x3950 DUP9 DUP3 DUP10 ADD PUSH2 0x377A JUMP JUMPDEST SWAP6 POP POP PUSH1 0x20 DUP7 ADD CALLDATALOAD PUSH8 0xFFFFFFFFFFFFFFFF DUP2 GT ISZERO PUSH2 0x3971 JUMPI PUSH2 0x3970 PUSH2 0x32FA JUMP JUMPDEST JUMPDEST PUSH2 0x397D DUP9 DUP3 DUP10 ADD PUSH2 0x37E3 JUMP JUMPDEST SWAP5 POP POP PUSH1 0x40 PUSH2 0x398E DUP9 DUP3 DUP10 ADD PUSH2 0x3472 JUMP JUMPDEST SWAP4 POP POP PUSH1 0x60 PUSH2 0x399F DUP9 DUP3 DUP10 ADD PUSH2 0x3472 JUMP JUMPDEST SWAP3 POP POP PUSH1 0x80 DUP7 ADD CALLDATALOAD PUSH8 0xFFFFFFFFFFFFFFFF DUP2 GT ISZERO PUSH2 0x39C0 JUMPI PUSH2 0x39BF PUSH2 0x32FA JUMP JUMPDEST JUMPDEST PUSH2 0x39CC DUP9 DUP3 DUP10 ADD PUSH2 0x38E1 JUMP JUMPDEST SWAP2 POP POP SWAP3 SWAP6 POP SWAP3 SWAP6 SWAP1 SWAP4 POP JUMP JUMPDEST PUSH2 0x39E2 DUP2 PUSH2 0x35DA JUMP JUMPDEST DUP3 MSTORE POP POP JUMP JUMPDEST PUSH0 DUP2 MLOAD SWAP1 POP SWAP2 SWAP1 POP JUMP JUMPDEST PUSH0 DUP3 DUP3 MSTORE PUSH1 0x20 DUP3 ADD SWAP1 POP SWAP3 SWAP2 POP POP JUMP JUMPDEST PUSH0 DUP2 SWAP1 POP PUSH1 0x20 DUP3 ADD SWAP1 POP SWAP2 SWAP1 POP JUMP JUMPDEST PUSH2 0x3A1A DUP2 PUSH2 0x33FB JUMP JUMPDEST DUP3 MSTORE POP POP JUMP JUMPDEST PUSH2 0x3A29 DUP2 PUSH2 0x34EE JUMP JUMPDEST DUP3 MSTORE POP POP JUMP JUMPDEST PUSH1 0x40 DUP3 ADD PUSH0 DUP3 ADD MLOAD PUSH2 0x3A43 PUSH0 DUP6 ADD DUP3 PUSH2 0x3A11 JUMP JUMPDEST POP PUSH1 0x20 DUP3 ADD MLOAD PUSH2 0x3A56 PUSH1 0x20 DUP6 ADD DUP3 PUSH2 0x3A20 JUMP JUMPDEST POP POP POP POP JUMP JUMPDEST PUSH0 PUSH2 0x3A67 DUP4 DUP4 PUSH2 0x3A2F JUMP JUMPDEST PUSH1 0x40 DUP4 ADD SWAP1 POP SWAP3 SWAP2 POP POP JUMP JUMPDEST PUSH0 PUSH1 0x20 DUP3 ADD SWAP1 POP SWAP2 SWAP1 POP JUMP JUMPDEST PUSH0 PUSH2 0x3A89 DUP3 PUSH2 0x39E8 JUMP JUMPDEST PUSH2 0x3A93 DUP2 DUP6 PUSH2 0x39F2 JUMP JUMPDEST SWAP4 POP PUSH2 0x3A9E DUP4 PUSH2 0x3A02 JUMP JUMPDEST DUP1 PUSH0 JUMPDEST DUP4 DUP2 LT ISZERO PUSH2 0x3ACE JUMPI DUP2 MLOAD PUSH2 0x3AB5 DUP9 DUP3 PUSH2 0x3A5C JUMP JUMPDEST SWAP8 POP PUSH2 0x3AC0 DUP4 PUSH2 0x3A73 JUMP JUMPDEST SWAP3 POP POP PUSH1 0x1 DUP2 ADD SWAP1 POP PUSH2 0x3AA1 JUMP JUMPDEST POP DUP6 SWAP4 POP POP POP POP SWAP3 SWAP2 POP POP JUMP JUMPDEST PUSH0 PUSH1 0x40 DUP3 ADD SWAP1 POP PUSH2 0x3AEE PUSH0 DUP4 ADD DUP6 PUSH2 0x39D9 JUMP JUMPDEST DUP2 DUP2 SUB PUSH1 0x20 DUP4 ADD MSTORE PUSH2 0x3B00 DUP2 DUP5 PUSH2 0x3A7F JUMP JUMPDEST SWAP1 POP SWAP4 SWAP3 POP POP POP JUMP JUMPDEST PUSH0 PUSH0 DUP4 PUSH1 0x1F DUP5 ADD SLT PUSH2 0x3B1E JUMPI PUSH2 0x3B1D PUSH2 0x3321 JUMP JUMPDEST JUMPDEST DUP3 CALLDATALOAD SWAP1 POP PUSH8 0xFFFFFFFFFFFFFFFF DUP2 GT ISZERO PUSH2 0x3B3B JUMPI PUSH2 0x3B3A PUSH2 0x3325 JUMP JUMPDEST JUMPDEST PUSH1 0x20 DUP4 ADD SWAP2 POP DUP4 PUSH1 0x40 DUP3 MUL DUP4 ADD GT ISZERO PUSH2 0x3B57 JUMPI PUSH2 0x3B56 PUSH2 0x3329 JUMP JUMPDEST JUMPDEST SWAP3 POP SWAP3 SWAP1 POP JUMP JUMPDEST PUSH0 PUSH0 PUSH1 0x20 DUP4 DUP6 SUB SLT ISZERO PUSH2 0x3B74 JUMPI PUSH2 0x3B73 PUSH2 0x32F6 JUMP JUMPDEST JUMPDEST PUSH0 DUP4 ADD CALLDATALOAD PUSH8 0xFFFFFFFFFFFFFFFF DUP2 GT ISZERO PUSH2 0x3B91 JUMPI PUSH2 0x3B90 PUSH2 0x32FA JUMP JUMPDEST JUMPDEST PUSH2 0x3B9D DUP6 DUP3 DUP7 ADD PUSH2 0x3B09 JUMP JUMPDEST SWAP3 POP SWAP3 POP POP SWAP3 POP SWAP3 SWAP1 POP JUMP JUMPDEST PUSH2 0x3BB2 DUP2 PUSH2 0x344B JUMP JUMPDEST DUP3 MSTORE POP POP JUMP JUMPDEST PUSH0 PUSH1 0x20 DUP3 ADD SWAP1 POP PUSH2 0x3BCB PUSH0 DUP4 ADD DUP5 PUSH2 0x3BA9 JUMP JUMPDEST SWAP3 SWAP2 POP POP JUMP JUMPDEST PUSH0 PUSH1 0xFF DUP3 AND SWAP1 POP SWAP2 SWAP1 POP JUMP JUMPDEST PUSH2 0x3BE6 DUP2 PUSH2 0x3BD1 JUMP JUMPDEST DUP2 EQ PUSH2 0x3BF0 JUMPI PUSH0 PUSH0 REVERT JUMPDEST POP JUMP JUMPDEST PUSH0 DUP2 CALLDATALOAD SWAP1 POP PUSH2 0x3C01 DUP2 PUSH2 0x3BDD JUMP JUMPDEST SWAP3 SWAP2 POP POP JUMP JUMPDEST PUSH0 PUSH1 0x20 DUP3 DUP5 SUB SLT ISZERO PUSH2 0x3C1C JUMPI PUSH2 0x3C1B PUSH2 0x32F6 JUMP JUMPDEST JUMPDEST PUSH0 PUSH2 0x3C29 DUP5 DUP3 DUP6 ADD PUSH2 0x3BF3 JUMP JUMPDEST SWAP2 POP POP SWAP3 SWAP2 POP POP JUMP JUMPDEST PUSH0 PUSH0 REVERT JUMPDEST PUSH0 PUSH0 REVERT JUMPDEST PUSH0 PUSH0 REVERT JUMPDEST PUSH0 PUSH0 DUP4 CALLDATALOAD PUSH1 0x1 PUSH1 0x20 SUB DUP5 CALLDATASIZE SUB SUB DUP2 SLT PUSH2 0x3C5A JUMPI PUSH2 0x3C59 PUSH2 0x3C32 JUMP JUMPDEST JUMPDEST DUP1 DUP5 ADD SWAP3 POP DUP3 CALLDATALOAD SWAP2 POP PUSH8 0xFFFFFFFFFFFFFFFF DUP3 GT ISZERO PUSH2 0x3C7C JUMPI PUSH2 0x3C7B PUSH2 0x3C36 JUMP JUMPDEST JUMPDEST PUSH1 0x20 DUP4 ADD SWAP3 POP PUSH1 0x20 DUP3 MUL CALLDATASIZE SUB DUP4 SGT ISZERO PUSH2 0x3C98 JUMPI PUSH2 0x3C97 PUSH2 0x3C3A JUMP JUMPDEST JUMPDEST POP SWAP3 POP SWAP3 SWAP1 POP JUMP JUMPDEST PUSH32 0x4E487B7100000000000000000000000000000000000000000000000000000000 PUSH0 MSTORE PUSH1 0x32 PUSH1 0x4 MSTORE PUSH1 0x24 PUSH0 REVERT JUMPDEST PUSH0 DUP3 CALLDATALOAD PUSH1 0x1 PUSH1 0xE0 SUB DUP4 CALLDATASIZE SUB SUB DUP2 SLT PUSH2 0x3CE8 JUMPI PUSH2 0x3CE7 PUSH2 0x3C32 JUMP JUMPDEST JUMPDEST DUP1 DUP4 ADD SWAP2 POP POP SWAP3 SWAP2 POP POP JUMP JUMPDEST PUSH0 PUSH1 0x20 DUP3 DUP5 SUB SLT ISZERO PUSH2 0x3D09 JUMPI PUSH2 0x3D08 PUSH2 0x32F6 JUMP JUMPDEST JUMPDEST PUSH0 PUSH2 0x3D16 DUP5 DUP3 DUP6 ADD PUSH2 0x35FB JUMP JUMPDEST SWAP2 POP POP SWAP3 SWAP2 POP POP JUMP JUMPDEST PUSH0 PUSH1 0x40 DUP3 ADD SWAP1 POP PUSH2 0x3D32 PUSH0 DUP4 ADD DUP6 PUSH2 0x3BA9 JUMP JUMPDEST PUSH2 0x3D3F PUSH1 0x20 DUP4 ADD DUP5 PUSH2 0x3BA9 JUMP JUMPDEST SWAP4 SWAP3 POP POP POP JUMP JUMPDEST PUSH32 0x4E487B7100000000000000000000000000000000000000000000000000000000 PUSH0 MSTORE PUSH1 0x11 PUSH1 0x4 MSTORE PUSH1 0x24 PUSH0 REVERT JUMPDEST PUSH0 PUSH2 0x3D7D DUP3 PUSH2 0x34EE JUMP JUMPDEST SWAP2 POP PUSH32 0xFFFFFFFFFFFFFFFFFFFFFFFFFFFFFFFFFFFFFFFFFFFFFFFFFFFFFFFFFFFFFFFF DUP3 SUB PUSH2 0x3DAF JUMPI PUSH2 0x3DAE PUSH2 0x3D46 JUMP JUMPDEST JUMPDEST PUSH1 0x1 DUP3 ADD SWAP1 POP SWAP2 SWAP1 POP JUMP JUMPDEST PUSH0 PUSH2 0x3DC4 DUP3 PUSH2 0x34EE JUMP JUMPDEST SWAP2 POP PUSH2 0x3DCF DUP4 PUSH2 0x34EE JUMP JUMPDEST SWAP3 POP DUP3 DUP3 SUB SWAP1 POP DUP2 DUP2 GT ISZERO PUSH2 0x3DE7 JUMPI PUSH2 0x3DE6 PUSH2 0x3D46 JUMP JUMPDEST JUMPDEST SWAP3 SWAP2 POP POP JUMP JUMPDEST PUSH0 PUSH1 0x20 DUP3 DUP5 SUB SLT ISZERO PUSH2 0x3E02 JUMPI PUSH2 0x3E01 PUSH2 0x32F6 JUMP JUMPDEST JUMPDEST PUSH0 PUSH2 0x3E0F DUP5 DUP3 DUP6 ADD PUSH2 0x3472 JUMP JUMPDEST SWAP2 POP POP SWAP3 SWAP2 POP POP JUMP JUMPDEST PUSH0 PUSH2 0x3E22 DUP3 PUSH2 0x34EE JUMP JUMPDEST SWAP2 POP PUSH2 0x3E2D DUP4 PUSH2 0x34EE JUMP JUMPDEST SWAP3 POP DUP3 DUP3 ADD SWAP1 POP DUP1 DUP3 GT ISZERO PUSH2 0x3E45 JUMPI PUSH2 0x3E44 PUSH2 0x3D46 JUMP JUMPDEST JUMPDEST SWAP3 SWAP2 POP POP JUMP JUMPDEST PUSH0 PUSH0 DUP4 CALLDATALOAD PUSH1 0x1 PUSH1 0x20 SUB DUP5 CALLDATASIZE SUB SUB DUP2 SLT PUSH2 0x3E67 JUMPI PUSH2 0x3E66 PUSH2 0x3C32 JUMP JUMPDEST JUMPDEST DUP1 DUP5 ADD SWAP3 POP DUP3 CALLDATALOAD SWAP2 POP PUSH8 0xFFFFFFFFFFFFFFFF DUP3 GT ISZERO PUSH2 0x3E89 JUMPI PUSH2 0x3E88 PUSH2 0x3C36 JUMP JUMPDEST JUMPDEST PUSH1 0x20 DUP4 ADD SWAP3 POP PUSH1 0x1 DUP3 MUL CALLDATASIZE SUB DUP4 SGT ISZERO PUSH2 0x3EA5 JUMPI PUSH2 0x3EA4 PUSH2 0x3C3A JUMP JUMPDEST JUMPDEST POP SWAP3 POP SWAP3 SWAP1 POP JUMP JUMPDEST PUSH2 0x3EB6 DUP2 PUSH2 0x344B JUMP JUMPDEST DUP3 MSTORE POP POP JUMP JUMPDEST PUSH0 DUP2 MLOAD SWAP1 POP SWAP2 SWAP1 POP JUMP JUMPDEST PUSH0 DUP3 DUP3 MSTORE PUSH1 0x20 DUP3 ADD SWAP1 POP SWAP3 SWAP2 POP POP JUMP JUMPDEST PUSH0 DUP2 SWAP1 POP PUSH1 0x20 DUP3 ADD SWAP1 POP SWAP2 SWAP1 POP JUMP JUMPDEST PUSH2 0x3EEE DUP2 PUSH2 0x35DA JUMP JUMPDEST DUP3 MSTORE POP POP JUMP JUMPDEST PUSH32 0x4E487B7100000000000000000000000000000000000000000000000000000000 PUSH0 MSTORE PUSH1 0x21 PUSH1 0x4 MSTORE PUSH1 0x24 PUSH0 REVERT JUMPDEST PUSH1 0x4 DUP2 LT PUSH2 0x3F32 JUMPI PUSH2 0x3F31 PUSH2 0x3EF4 JUMP JUMPDEST JUMPDEST POP JUMP JUMPDEST PUSH0 DUP2 SWAP1 POP PUSH2 0x3F42 DUP3 PUSH2 0x3F21 JUMP JUMPDEST SWAP2 SWAP1 POP JUMP JUMPDEST PUSH0 PUSH2 0x3F51 DUP3 PUSH2 0x3F35 JUMP JUMPDEST SWAP1 POP SWAP2 SWAP1 POP JUMP JUMPDEST PUSH2 0x3F61 DUP2 PUSH2 0x3F47 JUMP JUMPDEST DUP3 MSTORE POP POP JUMP JUMPDEST PUSH1 0xA0 DUP3 ADD PUSH0 DUP3 ADD MLOAD PUSH2 0x3F7B PUSH0 DUP6 ADD DUP3 PUSH2 0x3EE5 JUMP JUMPDEST POP PUSH1 0x20 DUP3 ADD MLOAD PUSH2 0x3F8E PUSH1 0x20 DUP6 ADD DUP3 PUSH2 0x3F58 JUMP JUMPDEST POP PUSH1 0x40 DUP3 ADD MLOAD PUSH2 0x3FA1 PUSH1 0x40 DUP6 ADD DUP3 PUSH2 0x3A11 JUMP JUMPDEST POP PUSH1 0x60 DUP3 ADD MLOAD PUSH2 0x3FB4 PUSH1 0x60 DUP6 ADD DUP3 PUSH2 0x3A20 JUMP JUMPDEST POP PUSH1 0x80 DUP3 ADD MLOAD PUSH2 0x3FC7 PUSH1 0x80 DUP6 ADD DUP3 PUSH2 0x3A11 JUMP JUMPDEST POP POP POP POP JUMP JUMPDEST PUSH0 PUSH2 0x3FD8 DUP4 DUP4 PUSH2 0x3F67 JUMP JUMPDEST PUSH1 0xA0 DUP4 ADD SWAP1 POP SWAP3 SWAP2 POP POP JUMP JUMPDEST PUSH0 PUSH1 0x20 DUP3 ADD SWAP1 POP SWAP2 SWAP1 POP JUMP JUMPDEST PUSH0 PUSH2 0x3FFA DUP3 PUSH2 0x3EBC JUMP JUMPDEST PUSH2 0x4004 DUP2 DUP6 PUSH2 0x3EC6 JUMP JUMPDEST SWAP4 POP PUSH2 0x400F DUP4 PUSH2 0x3ED6 JUMP JUMPDEST DUP1 PUSH0 JUMPDEST DUP4 DUP2 LT ISZERO PUSH2 0x403F JUMPI DUP2 MLOAD PUSH2 0x4026 DUP9 DUP3 PUSH2 0x3FCD JUMP JUMPDEST SWAP8 POP PUSH2 0x4031 DUP4 PUSH2 0x3FE4 JUMP JUMPDEST SWAP3 POP POP PUSH1 0x1 DUP2 ADD SWAP1 POP PUSH2 0x4012 JUMP JUMPDEST POP DUP6 SWAP4 POP POP POP POP SWAP3 SWAP2 POP POP JUMP JUMPDEST PUSH0 PUSH1 0x40 DUP4 ADD PUSH0 DUP4 ADD MLOAD PUSH2 0x4061 PUSH0 DUP7 ADD DUP3 PUSH2 0x3EAD JUMP JUMPDEST POP PUSH1 0x20 DUP4 ADD MLOAD DUP5 DUP3 SUB PUSH1 0x20 DUP7 ADD MSTORE PUSH2 0x4079 DUP3 DUP3 PUSH2 0x3FF0 JUMP JUMPDEST SWAP2 POP POP DUP1 SWAP2 POP POP SWAP3 SWAP2 POP POP JUMP JUMPDEST PUSH0 PUSH1 0x60 DUP3 ADD SWAP1 POP PUSH2 0x4099 PUSH0 DUP4 ADD DUP7 PUSH2 0x3BA9 JUMP JUMPDEST DUP2 DUP2 SUB PUSH1 0x20 DUP4 ADD MSTORE PUSH2 0x40AB DUP2 DUP6 PUSH2 0x404C JUMP JUMPDEST SWAP1 POP PUSH2 0x40BA PUSH1 0x40 DUP4 ADD DUP5 PUSH2 0x34F7 JUMP JUMPDEST SWAP5 SWAP4 POP POP POP POP JUMP JUMPDEST PUSH0 PUSH0 REVERT JUMPDEST PUSH0 PUSH0 REVERT JUMPDEST PUSH0 PUSH0 DUP6 DUP6 GT ISZERO PUSH2 0x40DD JUMPI PUSH2 0x40DC PUSH2 0x40C2 JUMP JUMPDEST JUMPDEST DUP4 DUP7 GT ISZERO PUSH2 0x40EE JUMPI PUSH2 0x40ED PUSH2 0x40C6 JUMP JUMPDEST JUMPDEST PUSH1 0x1 DUP6 MUL DUP4 ADD SWAP2 POP DUP5 DUP7 SUB SWAP1 POP SWAP5 POP SWAP5 SWAP3 POP POP POP JUMP JUMPDEST PUSH2 0x410D DUP2 PUSH2 0x3BD1 JUMP JUMPDEST DUP3 MSTORE POP POP JUMP JUMPDEST PUSH0 PUSH1 0x80 DUP3 ADD SWAP1 POP PUSH2 0x4126 PUSH0 DUP4 ADD DUP8 PUSH2 0x3404 JUMP JUMPDEST PUSH2 0x4133 PUSH1 0x20 DUP4 ADD DUP7 PUSH2 0x4104 JUMP JUMPDEST PUSH2 0x4140 PUSH1 0x40 DUP4 ADD DUP6 PUSH2 0x3404 JUMP JUMPDEST PUSH2 0x414D PUSH1 0x60 DUP4 ADD DUP5 PUSH2 0x3404 JUMP JUMPDEST SWAP6 SWAP5 POP POP POP POP POP JUMP JUMPDEST PUSH0 PUSH32 0xFFFFFFFF00000000000000000000000000000000000000000000000000000000 DUP3 AND SWAP1 POP SWAP2 SWAP1 POP JUMP JUMPDEST PUSH2 0x418A DUP2 PUSH2 0x4156 JUMP JUMPDEST DUP3 MSTORE POP POP JUMP JUMPDEST PUSH0 DUP2 MLOAD SWAP1 POP SWAP2 SWAP1 POP JUMP JUMPDEST PUSH0 DUP3 DUP3 MSTORE PUSH1 0x20 DUP3 ADD SWAP1 POP SWAP3 SWAP2 POP POP JUMP JUMPDEST DUP3 DUP2 DUP4 MCOPY PUSH0 DUP4 DUP4 ADD MSTORE POP POP POP JUMP JUMPDEST PUSH0 PUSH2 0x41C2 DUP3 PUSH2 0x4190 JUMP JUMPDEST PUSH2 0x41CC DUP2 DUP6 PUSH2 0x419A JUMP JUMPDEST SWAP4 POP PUSH2 0x41DC DUP2 DUP6 PUSH1 0x20 DUP7 ADD PUSH2 0x41AA JUMP JUMPDEST PUSH2 0x41E5 DUP2 PUSH2 0x3523 JUMP JUMPDEST DUP5 ADD SWAP2 POP POP SWAP3 SWAP2 POP POP JUMP JUMPDEST PUSH0 DUP2 MLOAD SWAP1 POP SWAP2 SWAP1 POP JUMP JUMPDEST PUSH0 DUP3 DUP3 MSTORE PUSH1 0x20 DUP3 ADD SWAP1 POP SWAP3 SWAP2 POP POP JUMP JUMPDEST PUSH0 PUSH2 0x4214 DUP3 PUSH2 0x41F0 JUMP JUMPDEST PUSH2 0x421E DUP2 DUP6 PUSH2 0x41FA JUMP JUMPDEST SWAP4 POP PUSH2 0x422E DUP2 DUP6 PUSH1 0x20 DUP7 ADD PUSH2 0x41AA JUMP JUMPDEST PUSH2 0x4237 DUP2 PUSH2 0x3523 JUMP JUMPDEST DUP5 ADD SWAP2 POP POP SWAP3 SWAP2 POP POP JUMP JUMPDEST PUSH0 PUSH8 0xFFFFFFFFFFFFFFFF DUP3 AND SWAP1 POP SWAP2 SWAP1 POP JUMP JUMPDEST PUSH2 0x425E DUP2 PUSH2 0x4242 JUMP JUMPDEST DUP3 MSTORE POP POP JUMP JUMPDEST PUSH0 PUSH1 0x40 DUP4 ADD PUSH0 DUP4 ADD MLOAD DUP5 DUP3 SUB PUSH0 DUP7 ADD MSTORE PUSH2 0x427E DUP3 DUP3 PUSH2 0x420A JUMP JUMPDEST SWAP2 POP POP PUSH1 0x20 DUP4 ADD MLOAD PUSH2 0x4293 PUSH1 0x20 DUP7 ADD DUP3 PUSH2 0x4255 JUMP JUMPDEST POP DUP1 SWAP2 POP POP SWAP3 SWAP2 POP POP JUMP JUMPDEST PUSH0 PUSH1 0xC0 DUP4 ADD PUSH0 DUP4 ADD MLOAD PUSH2 0x42B3 PUSH0 DUP7 ADD DUP3 PUSH2 0x3EAD JUMP JUMPDEST POP PUSH1 0x20 DUP4 ADD MLOAD PUSH2 0x42C6 PUSH1 0x20 DUP7 ADD DUP3 PUSH2 0x4181 JUMP JUMPDEST POP PUSH1 0x40 DUP4 ADD MLOAD PUSH2 0x42D9 PUSH1 0x40 DUP7 ADD DUP3 PUSH2 0x3A11 JUMP JUMPDEST POP PUSH1 0x60 DUP4 ADD MLOAD PUSH2 0x42EC PUSH1 0x60 DUP7 ADD DUP3 PUSH2 0x3A11 JUMP JUMPDEST POP PUSH1 0x80 DUP4 ADD MLOAD DUP5 DUP3 SUB PUSH1 0x80 DUP7 ADD MSTORE PUSH2 0x4304 DUP3 DUP3 PUSH2 0x41B8 JUMP JUMPDEST SWAP2 POP POP PUSH1 0xA0 DUP4 ADD MLOAD DUP5 DUP3 SUB PUSH1 0xA0 DUP7 ADD MSTORE PUSH2 0x431E DUP3 DUP3 PUSH2 0x4264 JUMP JUMPDEST SWAP2 POP POP DUP1 SWAP2 POP POP SWAP3 SWAP2 POP POP JUMP JUMPDEST PUSH0 PUSH2 0x4339 PUSH1 0x20 DUP5 ADD DUP5 PUSH2 0x3472 JUMP JUMPDEST SWAP1 POP SWAP3 SWAP2 POP POP JUMP JUMPDEST PUSH0 PUSH2 0x434F PUSH1 0x20 DUP5 ADD DUP5 PUSH2 0x3648 JUMP JUMPDEST SWAP1 POP SWAP3 SWAP2 POP POP JUMP JUMPDEST PUSH0 PUSH0 REVERT JUMPDEST PUSH0 PUSH0 REVERT JUMPDEST PUSH0 PUSH0 REVERT JUMPDEST PUSH0 PUSH0 DUP4 CALLDATALOAD PUSH1 0x1 PUSH1 0x20 SUB DUP5 CALLDATASIZE SUB SUB DUP2 SLT PUSH2 0x437F JUMPI PUSH2 0x437E PUSH2 0x435F JUMP JUMPDEST JUMPDEST DUP4 DUP2 ADD SWAP3 POP DUP3 CALLDATALOAD SWAP2 POP PUSH1 0x20 DUP4 ADD SWAP3 POP PUSH8 0xFFFFFFFFFFFFFFFF DUP3 GT ISZERO PUSH2 0x43A7 JUMPI PUSH2 0x43A6 PUSH2 0x4357 JUMP JUMPDEST JUMPDEST PUSH1 0x1 DUP3 MUL CALLDATASIZE SUB DUP4 SGT ISZERO PUSH2 0x43BD JUMPI PUSH2 0x43BC PUSH2 0x435B JUMP JUMPDEST JUMPDEST POP SWAP3 POP SWAP3 SWAP1 POP JUMP JUMPDEST DUP3 DUP2 DUP4 CALLDATACOPY PUSH0 DUP4 DUP4 ADD MSTORE POP POP POP JUMP JUMPDEST PUSH0 PUSH2 0x43DE DUP4 DUP6 PUSH2 0x419A JUMP JUMPDEST SWAP4 POP PUSH2 0x43EB DUP4 DUP6 DUP5 PUSH2 0x43C5 JUMP JUMPDEST PUSH2 0x43F4 DUP4 PUSH2 0x3523 JUMP JUMPDEST DUP5 ADD SWAP1 POP SWAP4 SWAP3 POP POP POP JUMP JUMPDEST PUSH0 PUSH2 0x440D PUSH1 0x20 DUP5 ADD DUP5 PUSH2 0x35FB JUMP JUMPDEST SWAP1 POP SWAP3 SWAP2 POP POP JUMP JUMPDEST PUSH0 PUSH1 0xE0 DUP4 ADD PUSH2 0x4426 PUSH0 DUP5 ADD DUP5 PUSH2 0x432B JUMP JUMPDEST PUSH2 0x4432 PUSH0 DUP7 ADD DUP3 PUSH2 0x3EAD JUMP JUMPDEST POP PUSH2 0x4440 PUSH1 0x20 DUP5 ADD DUP5 PUSH2 0x4341 JUMP JUMPDEST PUSH2 0x444D PUSH1 0x20 DUP7 ADD DUP3 PUSH2 0x3A20 JUMP JUMPDEST POP PUSH2 0x445B PUSH1 0x40 DUP5 ADD DUP5 PUSH2 0x4363 JUMP JUMPDEST DUP6 DUP4 SUB PUSH1 0x40 DUP8 ADD MSTORE PUSH2 0x446E DUP4 DUP3 DUP5 PUSH2 0x43D3 JUMP JUMPDEST SWAP3 POP POP POP PUSH2 0x447F PUSH1 0x60 DUP5 ADD DUP5 PUSH2 0x4341 JUMP JUMPDEST PUSH2 0x448C PUSH1 0x60 DUP7 ADD DUP3 PUSH2 0x3A20 JUMP JUMPDEST POP PUSH2 0x449A PUSH1 0x80 DUP5 ADD DUP5 PUSH2 0x43FF JUMP JUMPDEST PUSH2 0x44A7 PUSH1 0x80 DUP7 ADD DUP3 PUSH2 0x3EE5 JUMP JUMPDEST POP PUSH2 0x44B5 PUSH1 0xA0 DUP5 ADD DUP5 PUSH2 0x43FF JUMP JUMPDEST PUSH2 0x44C2 PUSH1 0xA0 DUP7 ADD DUP3 PUSH2 0x3EE5 JUMP JUMPDEST POP PUSH2 0x44D0 PUSH1 0xC0 DUP5 ADD DUP5 PUSH2 0x4341 JUMP JUMPDEST PUSH2 0x44DD PUSH1 0xC0 DUP7 ADD DUP3 PUSH2 0x3A20 JUMP JUMPDEST POP DUP1 SWAP2 POP POP SWAP3 SWAP2 POP POP JUMP JUMPDEST PUSH0 PUSH1 0x60 DUP3 ADD SWAP1 POP PUSH2 0x44FB PUSH0 DUP4 ADD DUP7 PUSH2 0x3BA9 JUMP JUMPDEST DUP2 DUP2 SUB PUSH1 0x20 DUP4 ADD MSTORE PUSH2 0x450D DUP2 DUP6 PUSH2 0x429E JUMP JUMPDEST SWAP1 POP DUP2 DUP2 SUB PUSH1 0x40 DUP4 ADD MSTORE PUSH2 0x4521 DUP2 DUP5 PUSH2 0x4415 JUMP JUMPDEST SWAP1 POP SWAP5 SWAP4 POP POP POP POP JUMP JUMPDEST PUSH0 DUP2 MLOAD SWAP1 POP PUSH2 0x4539 DUP2 PUSH2 0x3486 JUMP JUMPDEST SWAP3 SWAP2 POP POP JUMP JUMPDEST PUSH0 PUSH1 0x20 DUP3 DUP5 SUB SLT ISZERO PUSH2 0x4554 JUMPI PUSH2 0x4553 PUSH2 0x32F6 JUMP JUMPDEST JUMPDEST PUSH0 PUSH2 0x4561 DUP5 DUP3 DUP6 ADD PUSH2 0x452B JUMP JUMPDEST SWAP2 POP POP SWAP3 SWAP2 POP POP JUMP JUMPDEST PUSH0 DUP2 SWAP1 POP SWAP2 SWAP1 POP JUMP JUMPDEST PUSH0 PUSH2 0x458D PUSH2 0x4588 PUSH2 0x4583 DUP5 PUSH2 0x4242 JUMP JUMPDEST PUSH2 0x456A JUMP JUMPDEST PUSH2 0x34EE JUMP JUMPDEST SWAP1 POP SWAP2 SWAP1 POP JUMP JUMPDEST PUSH2 0x459D DUP2 PUSH2 0x4573 JUMP JUMPDEST DUP3 MSTORE POP POP JUMP JUMPDEST PUSH0 PUSH1 0x20 DUP3 ADD SWAP1 POP PUSH2 0x45B6 PUSH0 DUP4 ADD DUP5 PUSH2 0x4594 JUMP JUMPDEST SWAP3 SWAP2 POP POP JUMP JUMPDEST PUSH0 DUP3 SWAP1 POP SWAP3 SWAP2 POP POP JUMP JUMPDEST PUSH0 DUP3 DUP3 SHL SWAP1 POP SWAP3 SWAP2 POP POP JUMP JUMPDEST PUSH0 PUSH2 0x45DD DUP4 DUP4 PUSH2 0x45BC JUMP JUMPDEST DUP3 PUSH2 0x45E8 DUP2 CALLDATALOAD PUSH2 0x4156 JUMP JUMPDEST SWAP3 POP PUSH1 0x4 DUP3 LT ISZERO PUSH2 0x4628 JUMPI PUSH2 0x4623 PUSH32 0xFFFFFFFF00000000000000000000000000000000000000000000000000000000 DUP4 PUSH1 0x4 SUB PUSH1 0x8 MUL PUSH2 0x45C6 JUMP JUMPDEST DUP4 AND SWAP3 POP JUMPDEST POP POP SWAP3 SWAP2 POP POP JUMP JUMPDEST PUSH0 PUSH1 0x20 DUP3 ADD SWAP1 POP DUP2 DUP2 SUB PUSH0 DUP4 ADD MSTORE PUSH2 0x4648 DUP2 DUP5 PUSH2 0x3A7F JUMP JUMPDEST SWAP1 POP SWAP3 SWAP2 POP POP JUMP JUMPDEST PUSH0 DUP2 SWAP1 POP SWAP3 SWAP2 POP POP JUMP JUMPDEST PUSH0 PUSH2 0x4665 DUP4 DUP6 PUSH2 0x4650 JUMP JUMPDEST SWAP4 POP PUSH2 0x4672 DUP4 DUP6 DUP5 PUSH2 0x43C5 JUMP JUMPDEST DUP3 DUP5 ADD SWAP1 POP SWAP4 SWAP3 POP POP POP JUMP JUMPDEST PUSH0 PUSH2 0x468A DUP3 DUP5 DUP7 PUSH2 0x465A JUMP JUMPDEST SWAP2 POP DUP2 SWAP1 POP SWAP4 SWAP3 POP POP POP JUMP JUMPDEST PUSH0 PUSH1 0x60 DUP3 ADD SWAP1 POP PUSH2 0x46A9 PUSH0 DUP4 ADD DUP7 PUSH2 0x3BA9 JUMP JUMPDEST PUSH2 0x46B6 PUSH1 0x20 DUP4 ADD DUP6 PUSH2 0x3404 JUMP JUMPDEST PUSH2 0x46C3 PUSH1 0x40 DUP4 ADD DUP5 PUSH2 0x34F7 JUMP JUMPDEST SWAP5 SWAP4 POP POP POP POP JUMP JUMPDEST PUSH32 0x4E487B7100000000000000000000000000000000000000000000000000000000 PUSH0 MSTORE PUSH1 0x12 PUSH1 0x4 MSTORE PUSH1 0x24 PUSH0 REVERT JUMPDEST PUSH0 PUSH2 0x4702 DUP3 PUSH2 0x34EE JUMP JUMPDEST SWAP2 POP PUSH2 0x470D DUP4 PUSH2 0x34EE JUMP JUMPDEST SWAP3 POP DUP3 PUSH2 0x471D JUMPI PUSH2 0x471C PUSH2 0x46CB JUMP JUMPDEST JUMPDEST DUP3 DUP3 DIV SWAP1 POP SWAP3 SWAP2 POP POP JUMP JUMPDEST PUSH0 PUSH2 0x4732 DUP3 PUSH2 0x3BD1 JUMP JUMPDEST SWAP2 POP PUSH2 0x473D DUP4 PUSH2 0x3BD1 JUMP JUMPDEST SWAP3 POP DUP3 DUP3 ADD SWAP1 POP PUSH1 0xFF DUP2 GT ISZERO PUSH2 0x4756 JUMPI PUSH2 0x4755 PUSH2 0x3D46 JUMP JUMPDEST JUMPDEST SWAP3 SWAP2 POP POP JUMP JUMPDEST PUSH0 PUSH0 REVERT JUMPDEST PUSH0 PUSH8 0xFFFFFFFFFFFFFFFF DUP3 GT ISZERO PUSH2 0x477A JUMPI PUSH2 0x4779 PUSH2 0x3533 JUMP JUMPDEST JUMPDEST PUSH2 0x4783 DUP3 PUSH2 0x3523 JUMP JUMPDEST SWAP1 POP PUSH1 0x20 DUP2 ADD SWAP1 POP SWAP2 SWAP1 POP JUMP JUMPDEST PUSH0 PUSH2 0x47A2 PUSH2 0x479D DUP5 PUSH2 0x4760 JUMP JUMPDEST PUSH2 0x3591 JUMP JUMPDEST SWAP1 POP DUP3 DUP2 MSTORE PUSH1 0x20 DUP2 ADD DUP5 DUP5 DUP5 ADD GT ISZERO PUSH2 0x47BE JUMPI PUSH2 0x47BD PUSH2 0x475C JUMP JUMPDEST JUMPDEST PUSH2 0x47C9 DUP5 DUP3 DUP6 PUSH2 0x43C5 JUMP JUMPDEST POP SWAP4 SWAP3 POP POP POP JUMP JUMPDEST PUSH0 DUP3 PUSH1 0x1F DUP4 ADD SLT PUSH2 0x47E5 JUMPI PUSH2 0x47E4 PUSH2 0x3321 JUMP JUMPDEST JUMPDEST DUP2 CALLDATALOAD PUSH2 0x47F5 DUP5 DUP3 PUSH1 0x20 DUP7 ADD PUSH2 0x4790 JUMP JUMPDEST SWAP2 POP POP SWAP3 SWAP2 POP POP JUMP JUMPDEST PUSH0 PUSH1 0xE0 DUP3 DUP5 SUB SLT ISZERO PUSH2 0x4813 JUMPI PUSH2 0x4812 PUSH2 0x351F JUMP JUMPDEST JUMPDEST PUSH2 0x481D PUSH1 0xE0 PUSH2 0x3591 JUMP JUMPDEST SWAP1 POP PUSH0 PUSH2 0x482C DUP5 DUP3 DUP6 ADD PUSH2 0x3472 JUMP JUMPDEST PUSH0 DUP4 ADD MSTORE POP PUSH1 0x20 PUSH2 0x483F DUP5 DUP3 DUP6 ADD PUSH2 0x3648 JUMP JUMPDEST PUSH1 0x20 DUP4 ADD MSTORE POP PUSH1 0x40 DUP3 ADD CALLDATALOAD PUSH8 0xFFFFFFFFFFFFFFFF DUP2 GT ISZERO PUSH2 0x4863 JUMPI PUSH2 0x4862 PUSH2 0x35AB JUMP JUMPDEST JUMPDEST PUSH2 0x486F DUP5 DUP3 DUP6 ADD PUSH2 0x47D1 JUMP JUMPDEST PUSH1 0x40 DUP4 ADD MSTORE POP PUSH1 0x60 PUSH2 0x4883 DUP5 DUP3 DUP6 ADD PUSH2 0x3648 JUMP JUMPDEST PUSH1 0x60 DUP4 ADD MSTORE POP PUSH1 0x80 PUSH2 0x4897 DUP5 DUP3 DUP6 ADD PUSH2 0x35FB JUMP JUMPDEST PUSH1 0x80 DUP4 ADD MSTORE POP PUSH1 0xA0 PUSH2 0x48AB DUP5 DUP3 DUP6 ADD PUSH2 0x35FB JUMP JUMPDEST PUSH1 0xA0 DUP4 ADD MSTORE POP PUSH1 0xC0 PUSH2 0x48BF DUP5 DUP3 DUP6 ADD PUSH2 0x3648 JUMP JUMPDEST PUSH1 0xC0 DUP4 ADD MSTORE POP SWAP3 SWAP2 POP POP JUMP JUMPDEST PUSH0 PUSH2 0x48D6 CALLDATASIZE DUP4 PUSH2 0x47FE JUMP JUMPDEST SWAP1 POP SWAP2 SWAP1 POP JUMP JUMPDEST PUSH0 DUP2 SWAP1 POP SWAP2 SWAP1 POP JUMP JUMPDEST PUSH2 0x48F7 PUSH2 0x48F2 DUP3 PUSH2 0x34EE JUMP JUMPDEST PUSH2 0x48DD JUMP JUMPDEST DUP3 MSTORE POP POP JUMP JUMPDEST PUSH0 DUP2 SWAP1 POP SWAP2 SWAP1 POP JUMP JUMPDEST PUSH2 0x4917 PUSH2 0x4912 DUP3 PUSH2 0x33FB JUMP JUMPDEST PUSH2 0x48FD JUMP JUMPDEST DUP3 MSTORE POP POP JUMP JUMPDEST PUSH0 PUSH2 0x4928 DUP3 DUP8 PUSH2 0x48E6 JUMP JUMPDEST PUSH1 0x20 DUP3 ADD SWAP2 POP PUSH2 0x4938 DUP3 DUP7 PUSH2 0x48E6 JUMP JUMPDEST PUSH1 0x20 DUP3 ADD SWAP2 POP PUSH2 0x4948 DUP3 DUP6 PUSH2 0x48E6 JUMP JUMPDEST PUSH1 0x20 DUP3 ADD SWAP2 POP PUSH2 0x4958 DUP3 DUP5 PUSH2 0x4906 JUMP JUMPDEST PUSH1 0x20 DUP3 ADD SWAP2 POP DUP2 SWAP1 POP SWAP6 SWAP5 POP POP POP POP POP JUMP JUMPDEST PUSH0 DUP2 SWAP1 POP SWAP2 SWAP1 POP JUMP JUMPDEST PUSH0 PUSH2 0x497D DUP3 PUSH2 0x496A JUMP JUMPDEST SWAP2 POP PUSH2 0x4988 DUP4 PUSH2 0x496A JUMP JUMPDEST SWAP3 POP DUP3 DUP3 SUB SWAP1 POP DUP2 DUP2 SLT PUSH0 DUP5 SLT AND DUP3 DUP3 SGT PUSH0 DUP6 SLT ISZERO AND OR ISZERO PUSH2 0x49AD JUMPI PUSH2 0x49AC PUSH2 0x3D46 JUMP JUMPDEST JUMPDEST SWAP3 SWAP2 POP POP JUMP JUMPDEST PUSH0 PUSH2 0x49BD DUP3 PUSH2 0x496A JUMP JUMPDEST SWAP2 POP PUSH2 0x49C8 DUP4 PUSH2 0x496A JUMP JUMPDEST SWAP3 POP DUP3 PUSH2 0x49D8 JUMPI PUSH2 0x49D7 PUSH2 0x46CB JUMP JUMPDEST JUMPDEST PUSH1 0x1 PUSH0 SUB DUP4 EQ PUSH32 0x8000000000000000000000000000000000000000000000000000000000000000 DUP4 EQ AND ISZERO PUSH2 0x4A10 JUMPI PUSH2 0x4A0F PUSH2 0x3D46 JUMP JUMPDEST JUMPDEST DUP3 DUP3 SDIV SWAP1 POP SWAP3 SWAP2 POP POP JUMP JUMPDEST PUSH0 PUSH2 0x4A25 DUP3 PUSH2 0x496A JUMP JUMPDEST SWAP2 POP PUSH2 0x4A30 DUP4 PUSH2 0x496A JUMP JUMPDEST SWAP3 POP DUP3 DUP3 ADD SWAP1 POP DUP3 DUP2 SLT ISZERO PUSH0 DUP4 SLT AND DUP4 DUP3 SLT PUSH0 DUP5 SLT ISZERO AND OR ISZERO PUSH2 0x4A56 JUMPI PUSH2 0x4A55 PUSH2 0x3D46 JUMP JUMPDEST JUMPDEST SWAP3 SWAP2 POP POP JUMP JUMPDEST PUSH0 DUP2 SWAP1 POP SWAP3 SWAP2 POP POP JUMP JUMPDEST PUSH32 0x616363657074496D706C69636974526571756573740000000000000000000000 PUSH0 DUP3 ADD MSTORE POP JUMP JUMPDEST PUSH0 PUSH2 0x4A9A PUSH1 0x15 DUP4 PUSH2 0x4A5C JUMP JUMPDEST SWAP2 POP PUSH2 0x4AA5 DUP3 PUSH2 0x4A66 JUMP JUMPDEST PUSH1 0x15 DUP3 ADD SWAP1 POP SWAP2 SWAP1 POP JUMP JUMPDEST PUSH0 PUSH2 0x4ABA DUP3 PUSH2 0x4A8E JUMP JUMPDEST SWAP2 POP DUP2 SWAP1 POP SWAP2 SWAP1 POP JUMP JUMPDEST PUSH0 DUP2 PUSH1 0x60 SHL SWAP1 POP SWAP2 SWAP1 POP JUMP JUMPDEST PUSH0 PUSH2 0x4ADA DUP3 PUSH2 0x4AC4 JUMP JUMPDEST SWAP1 POP SWAP2 SWAP1 POP JUMP JUMPDEST PUSH0 PUSH2 0x4AEB DUP3 PUSH2 0x4AD0 JUMP JUMPDEST SWAP1 POP SWAP2 SWAP1 POP JUMP JUMPDEST PUSH2 0x4B03 PUSH2 0x4AFE DUP3 PUSH2 0x344B JUMP JUMPDEST PUSH2 0x4AE1 JUMP JUMPDEST DUP3 MSTORE POP POP JUMP JUMPDEST PUSH0 PUSH2 0x4B14 DUP3 DUP8 PUSH2 0x4906 JUMP JUMPDEST PUSH1 0x20 DUP3 ADD SWAP2 POP PUSH2 0x4B24 DUP3 DUP7 PUSH2 0x4AF2 JUMP JUMPDEST PUSH1 0x14 DUP3 ADD SWAP2 POP PUSH2 0x4B34 DUP3 DUP6 PUSH2 0x4906 JUMP JUMPDEST PUSH1 0x20 DUP3 ADD SWAP2 POP PUSH2 0x4B44 DUP3 DUP5 PUSH2 0x4906 JUMP JUMPDEST PUSH1 0x20 DUP3 ADD SWAP2 POP DUP2 SWAP1 POP SWAP6 SWAP5 POP POP POP POP POP JUMP JUMPDEST PUSH0 DUP2 PUSH1 0xF8 SHL SWAP1 POP SWAP2 SWAP1 POP JUMP JUMPDEST PUSH0 PUSH2 0x4B6C DUP3 PUSH2 0x4B56 JUMP JUMPDEST SWAP1 POP SWAP2 SWAP1 POP JUMP JUMPDEST PUSH2 0x4B84 PUSH2 0x4B7F DUP3 PUSH2 0x3BD1 JUMP JUMPDEST PUSH2 0x4B62 JUMP JUMPDEST DUP3 MSTORE POP POP JUMP JUMPDEST PUSH0 PUSH2 0x4B95 DUP3 DUP7 PUSH2 0x4B73 JUMP JUMPDEST PUSH1 0x1 DUP3 ADD SWAP2 POP PUSH2 0x4BA6 DUP3 DUP5 DUP7 PUSH2 0x465A JUMP JUMPDEST SWAP2 POP DUP2 SWAP1 POP SWAP5 SWAP4 POP POP POP POP JUMP JUMPDEST PUSH0 PUSH2 0x4BBE DUP3 DUP6 PUSH2 0x4B73 JUMP JUMPDEST PUSH1 0x1 DUP3 ADD SWAP2 POP PUSH2 0x4BCE DUP3 DUP5 PUSH2 0x4AF2 JUMP JUMPDEST PUSH1 0x14 DUP3 ADD SWAP2 POP DUP2 SWAP1 POP SWAP4 SWAP3 POP POP POP JUMP JUMPDEST PUSH0 DUP2 SWAP1 POP SWAP2 SWAP1 POP JUMP JUMPDEST PUSH2 0x4BF8 PUSH2 0x4BF3 DUP3 PUSH2 0x4156 JUMP JUMPDEST PUSH2 0x4BDE JUMP JUMPDEST DUP3 MSTORE POP POP JUMP JUMPDEST PUSH0 PUSH3 0xFFFFFF DUP3 AND SWAP1 POP SWAP2 SWAP1 POP JUMP JUMPDEST PUSH0 DUP2 PUSH1 0xE8 SHL SWAP1 POP SWAP2 SWAP1 POP JUMP JUMPDEST PUSH0 PUSH2 0x4C22 DUP3 PUSH2 0x4C0C JUMP JUMPDEST SWAP1 POP SWAP2 SWAP1 POP JUMP JUMPDEST PUSH2 0x4C3A PUSH2 0x4C35 DUP3 PUSH2 0x4BFE JUMP JUMPDEST PUSH2 0x4C18 JUMP JUMPDEST DUP3 MSTORE POP POP JUMP JUMPDEST PUSH0 PUSH2 0x4C4A DUP3 PUSH2 0x4190 JUMP JUMPDEST PUSH2 0x4C54 DUP2 DUP6 PUSH2 0x4650 JUMP JUMPDEST SWAP4 POP PUSH2 0x4C64 DUP2 DUP6 PUSH1 0x20 DUP7 ADD PUSH2 0x41AA JUMP JUMPDEST DUP1 DUP5 ADD SWAP2 POP POP SWAP3 SWAP2 POP POP JUMP JUMPDEST PUSH0 PUSH2 0x4C7B DUP3 DUP11 PUSH2 0x4AF2 JUMP JUMPDEST PUSH1 0x14 DUP3 ADD SWAP2 POP PUSH2 0x4C8B DUP3 DUP10 PUSH2 0x4BE7 JUMP JUMPDEST PUSH1 0x4 DUP3 ADD SWAP2 POP PUSH2 0x4C9B DUP3 DUP9 PUSH2 0x4906 JUMP JUMPDEST PUSH1 0x20 DUP3 ADD SWAP2 POP PUSH2 0x4CAB DUP3 DUP8 PUSH2 0x4906 JUMP JUMPDEST PUSH1 0x20 DUP3 ADD SWAP2 POP PUSH2 0x4CBB DUP3 DUP7 PUSH2 0x4C29 JUMP JUMPDEST PUSH1 0x3 DUP3 ADD SWAP2 POP PUSH2 0x4CCB DUP3 DUP6 PUSH2 0x4C40 JUMP JUMPDEST SWAP2 POP PUSH2 0x4CD7 DUP3 DUP5 PUSH2 0x4C40 JUMP JUMPDEST SWAP2 POP DUP2 SWAP1 POP SWAP9 SWAP8 POP POP POP POP POP POP POP POP JUMP JUMPDEST PUSH0 PUSH2 0x100 DUP3 ADD SWAP1 POP PUSH2 0x4CFC PUSH0 DUP4 ADD DUP12 PUSH2 0x3404 JUMP JUMPDEST PUSH2 0x4D09 PUSH1 0x20 DUP4 ADD DUP11 PUSH2 0x3BA9 JUMP JUMPDEST PUSH2 0x4D16 PUSH1 0x40 DUP4 ADD DUP10 PUSH2 0x34F7 JUMP JUMPDEST PUSH2 0x4D23 PUSH1 0x60 DUP4 ADD DUP9 PUSH2 0x3404 JUMP JUMPDEST PUSH2 0x4D30 PUSH1 0x80 DUP4 ADD DUP8 PUSH2 0x34F7 JUMP JUMPDEST PUSH2 0x4D3D PUSH1 0xA0 DUP4 ADD DUP7 PUSH2 0x39D9 JUMP JUMPDEST PUSH2 0x4D4A PUSH1 0xC0 DUP4 ADD DUP6 PUSH2 0x39D9 JUMP JUMPDEST PUSH2 0x4D57 PUSH1 0xE0 DUP4 ADD DUP5 PUSH2 0x34F7 JUMP JUMPDEST SWAP10 SWAP9 POP POP POP POP POP POP POP POP POP JUMP JUMPDEST PUSH0 DUP2 PUSH1 0xC0 SHL SWAP1 POP SWAP2 SWAP1 POP JUMP JUMPDEST PUSH0 PUSH2 0x4D7A DUP3 PUSH2 0x4D64 JUMP JUMPDEST SWAP1 POP SWAP2 SWAP1 POP JUMP JUMPDEST PUSH2 0x4D92 PUSH2 0x4D8D DUP3 PUSH2 0x4242 JUMP JUMPDEST PUSH2 0x4D70 JUMP JUMPDEST DUP3 MSTORE POP POP JUMP JUMPDEST PUSH0 PUSH2 0x4DA3 DUP3 DUP7 PUSH2 0x4C29 JUMP JUMPDEST PUSH1 0x3 DUP3 ADD SWAP2 POP PUSH2 0x4DB3 DUP3 DUP6 PUSH2 0x4C40 JUMP JUMPDEST SWAP2 POP PUSH2 0x4DBF DUP3 DUP5 PUSH2 0x4D81 JUMP JUMPDEST PUSH1 0x8 DUP3 ADD SWAP2 POP DUP2 SWAP1 POP SWAP5 SWAP4 POP POP POP POP JUMP INVALID LOG2 PUSH5 0x6970667358 0x22 SLT KECCAK256 0xF9 PUSH12 0xBB846A39F6D615BC3301DC7 SWAP12 OR MUL 0xE6 0xE1 RETURNDATACOPY MSTORE8 0xDE 0x4C 0xF9 ADDRESS 0xAB DUP14 MSTORE8 CALL BYTE 0xC7 0xD4 PUSH5 0x736F6C6343 STOP ADDMOD SHR STOP CALLER "
        },
        "methodIdentifiers": {
          "VALUE_TRACKING_ADDRESS()": "f916f3b2",
          "getLimitUsage(address,bytes32)": "23b3713e",
          "incrementUsageLimit((bytes32,uint256)[])": "42de1418",
          "recoverSapientSignature((uint8,bool,(address,uint256,bytes,uint256,bool,bool,uint256)[],uint256,uint256,bytes,bytes32,bytes32,address[]),bytes)": "13792a4a",
          "validatePermission((address,(bool,uint8,bytes32,uint256,bytes32)[]),(address,uint256,bytes,uint256,bool,bool,uint256),address,address,(bytes32,uint256)[])": "313dade7"
        }
      },
      "userdoc": {
        "errors": {
          "BlacklistedAddress(address)": [
            {
              "notice": "Blacklisted address"
            }
          ],
          "InvalidAttestation()": [
            {
              "notice": "Invalid attestation"
            }
          ],
          "InvalidBlacklist()": [
            {
              "notice": "Invalid blacklist"
            }
          ],
          "InvalidCallsLength()": [
            {
              "notice": "Error thrown when the calls length is invalid"
            }
          ],
          "InvalidChainId(uint256)": [
            {
              "notice": "Invalid chainId"
            }
          ],
          "InvalidDelegateCall()": [
            {
              "notice": "Invalid delegate call"
            }
          ],
          "InvalidIdentitySigner()": [
            {
              "notice": "Invalid identity signer"
            }
          ],
          "InvalidImplicitResult()": [
            {
              "notice": "Invalid implicit result"
            }
          ],
          "InvalidLimitUsageIncrement()": [
            {
              "notice": "Invalid limit usage increment"
            }
          ],
          "InvalidNodeType(uint256)": [
            {
              "notice": "Invalid node type in session configuration"
            }
          ],
          "InvalidPayloadKind()": [
            {
              "notice": "Error thrown when the payload kind is invalid"
            }
          ],
          "InvalidPermission()": [
            {
              "notice": "Invalid permission for explicit session"
            }
          ],
          "InvalidSelfCall()": [
            {
              "notice": "Invalid self call"
            }
          ],
          "InvalidSessionSigner(address)": [
            {
              "notice": "Invalid session signer"
            }
          ],
          "InvalidValue()": [
            {
              "notice": "Invalid value"
            }
          ],
          "MissingPermission()": [
            {
              "notice": "Missing permission for explicit session"
            }
          ],
          "SessionExpired(uint256)": [
            {
              "notice": "Session expired"
            }
          ]
        },
        "events": {
          "LimitUsageUpdated(address,bytes32,uint256)": {
            "notice": "Emitted when the usage amount for a given wallet and usage hash is updated"
          }
        },
        "kind": "user",
        "methods": {
          "VALUE_TRACKING_ADDRESS()": {
            "notice": "Special address used for tracking native token value limits"
          },
          "getLimitUsage(address,bytes32)": {
            "notice": "Get the usage amount for a given usage hash and wallet"
          },
          "incrementUsageLimit((bytes32,uint256)[])": {
            "notice": "Increment usage for a caller's given session and target"
          },
          "recoverSapientSignature((uint8,bool,(address,uint256,bytes,uint256,bool,bool,uint256)[],uint256,uint256,bytes,bytes32,bytes32,address[]),bytes)": {
            "notice": "Recovers the image hash of a given signature"
          },
          "validatePermission((address,(bool,uint8,bytes32,uint256,bytes32)[]),(address,uint256,bytes,uint256,bool,bool,uint256),address,address,(bytes32,uint256)[])": {
            "notice": "Validates a rules permission"
          }
        },
        "notice": "Manager for smart sessions",
        "version": 1
      }
    }
  }
}