{
  "src/Factory.sol": {
    "Factory": {
      "abi": [
        {
          "inputs": [
            {
              "internalType": "address",
              "name": "_mainModule",
              "type": "address"
            },
            {
              "internalType": "bytes32",
              "name": "_salt",
              "type": "bytes32"
            }
          ],
          "name": "DeployFailed",
          "type": "error"
        },
        {
          "inputs": [
            {
              "internalType": "address",
              "name": "_mainModule",
              "type": "address"
            },
            {
              "internalType": "bytes32",
              "name": "_salt",
              "type": "bytes32"
            }
          ],
          "name": "deploy",
          "outputs": [
            {
              "internalType": "address",
              "name": "_contract",
              "type": "address"
            }
          ],
          "stateMutability": "payable",
          "type": "function"
        }
      ],
      "devdoc": {
        "kind": "dev",
        "methods": {
          "deploy(address,bytes32)": {
            "details": "It is recommended to not have more than 200 signers as opcode repricing      could make transactions impossible to execute as all the signers must be      passed for each transaction.",
            "params": {
              "_mainModule": "Address of the main module to be used by the wallet",
              "_salt": "Salt used to generate the wallet, which is the imageHash       of the wallet's configuration."
            }
          }
        },
        "version": 1
      },
      "evm": {
        "bytecode": {
          "linkReferences": {},
          "object": "6080604052348015600e575f5ffd5b5061035a8061001c5f395ff3fe60806040526004361061001d575f3560e01c806332c02a1414610021575b5f5ffd5b61003b600480360381019061003691906101ba565b610051565b6040516100489190610207565b60405180910390f35b5f5f6040518060600160405280602c81526020016102f9602c91398473ffffffffffffffffffffffffffffffffffffffff1660405160200161009492919061029b565b60405160208183030381529060405290508281516020830134f591505f73ffffffffffffffffffffffffffffffffffffffff168273ffffffffffffffffffffffffffffffffffffffff16036101225783836040517f8caac8050000000000000000000000000000000000000000000000000000000081526004016101199291906102d1565b60405180910390fd5b5092915050565b5f5ffd5b5f73ffffffffffffffffffffffffffffffffffffffff82169050919050565b5f6101568261012d565b9050919050565b6101668161014c565b8114610170575f5ffd5b50565b5f813590506101818161015d565b92915050565b5f819050919050565b61019981610187565b81146101a3575f5ffd5b50565b5f813590506101b481610190565b92915050565b5f5f604083850312156101d0576101cf610129565b5b5f6101dd85828601610173565b92505060206101ee858286016101a6565b9150509250929050565b6102018161014c565b82525050565b5f60208201905061021a5f8301846101f8565b92915050565b5f81519050919050565b5f81905092915050565b8281835e5f83830152505050565b5f61024c82610220565b610256818561022a565b9350610266818560208601610234565b80840191505092915050565b5f819050919050565b5f819050919050565b61029561029082610272565b61027b565b82525050565b5f6102a68285610242565b91506102b28284610284565b6020820191508190509392505050565b6102cb81610187565b82525050565b5f6040820190506102e45f8301856101f8565b6102f160208301846102c2565b939250505056fe603e600e3d39601e805130553df33d3d34601c57363d3d373d363d30545af43d82803e903d91601c57fd5bf3a264697066735822122009e132ab9d1c11bdbac018e6131534eb4d4460c20d453928a5a0b89cf4ecf4fc64736f6c634300081c0033",
          "opcodes": "PUSH1 0x80 PUSH1 0x40 MSTORE CALLVALUE DUP1 ISZERO PUSH1 0xE JUMPI PUSH0 PUSH0 REVERT JUMPDEST POP PUSH2 0x35A DUP1 PUSH2 0x1C PUSH0 CODECOPY PUSH0 RETURN INVALID PUSH1 0x80 PUSH1 0x40 MSTORE PUSH1 0x4 CALLDATASIZE LT PUSH2 0x1D JUMPI PUSH0 CALLDATALOAD PUSH1 0xE0 SHR DUP1 PUSH4 0x32C02A14 EQ PUSH2 0x21 JUMPI JUMPDEST PUSH0 PUSH0 REVERT JUMPDEST PUSH2 0x3B PUSH1 0x4 DUP1 CALLDATASIZE SUB DUP2 ADD SWAP1 PUSH2 0x36 SWAP2 SWAP1 PUSH2 0x1BA JUMP JUMPDEST PUSH2 0x51 JUMP JUMPDEST PUSH1 0x40 MLOAD PUSH2 0x48 SWAP2 SWAP1 PUSH2 0x207 JUMP JUMPDEST PUSH1 0x40 MLOAD DUP1 SWAP2 SUB SWAP1 RETURN JUMPDEST PUSH0 PUSH0 PUSH1 0x40 MLOAD DUP1 PUSH1 0x60 ADD PUSH1 0x40 MSTORE DUP1 PUSH1 0x2C DUP2 MSTORE PUSH1 0x20 ADD PUSH2 0x2F9 PUSH1 0x2C SWAP2 CODECOPY DUP5 PUSH20 0xFFFFFFFFFFFFFFFFFFFFFFFFFFFFFFFFFFFFFFFF AND PUSH1 0x40 MLOAD PUSH1 0x20 ADD PUSH2 0x94 SWAP3 SWAP2 SWAP1 PUSH2 0x29B JUMP JUMPDEST PUSH1 0x40 MLOAD PUSH1 0x20 DUP2 DUP4 SUB SUB DUP2 MSTORE SWAP1 PUSH1 0x40 MSTORE SWAP1 POP DUP3 DUP2 MLOAD PUSH1 0x20 DUP4 ADD CALLVALUE CREATE2 SWAP2 POP PUSH0 PUSH20 0xFFFFFFFFFFFFFFFFFFFFFFFFFFFFFFFFFFFFFFFF AND DUP3 PUSH20 0xFFFFFFFFFFFFFFFFFFFFFFFFFFFFFFFFFFFFFFFF AND SUB PUSH2 0x122 JUMPI DUP4 DUP4 PUSH1 0x40 MLOAD PUSH32 0x8CAAC80500000000000000000000000000000000000000000000000000000000 DUP2 MSTORE PUSH1 0x4 ADD PUSH2 0x119 SWAP3 SWAP2 SWAP1 PUSH2 0x2D1 JUMP JUMPDEST PUSH1 0x40 MLOAD DUP1 SWAP2 SUB SWAP1 REVERT JUMPDEST POP SWAP3 SWAP2 POP POP JUMP JUMPDEST PUSH0 PUSH0 REVERT JUMPDEST PUSH0 PUSH20 0xFFFFFFFFFFFFFFFFFFFFFFFFFFFFFFFFFFFFFFFF DUP3 AND SWAP1 POP SWAP2 SWAP1 POP JUMP JUMPDEST PUSH0 PUSH2 0x156 DUP3 PUSH2 0x12D JUMP JUMPDEST SWAP1 POP SWAP2 SWAP1 POP JUMP JUMPDEST PUSH2 0x166 DUP2 PUSH2 0x14C JUMP JUMPDEST DUP2 EQ PUSH2 0x170 JUMPI PUSH0 PUSH0 REVERT JUMPDEST POP JUMP JUMPDEST PUSH0 DUP2 CALLDATALOAD SWAP1 POP PUSH2 0x181 DUP2 PUSH2 0x15D JUMP JUMPDEST SWAP3 SWAP2 POP POP JUMP JUMPDEST PUSH0 DUP2 SWAP1 POP SWAP2 SWAP1 POP JUMP JUMPDEST PUSH2 0x199 DUP2 PUSH2 0x187 JUMP JUMPDEST DUP2 EQ PUSH2 0x1A3 JUMPI PUSH0 PUSH0 REVERT JUMPDEST POP JUMP JUMPDEST PUSH0 DUP2 CALLDATALOAD SWAP1 POP PUSH2 0x1B4 DUP2 PUSH2 0x190 JUMP JUMPDEST SWAP3 SWAP2 POP POP JUMP JUMPDEST PUSH0 PUSH0 PUSH1 0x40 DUP4 DUP6 SUB SLT ISZERO PUSH2 0x1D0 JUMPI PUSH2 0x1CF PUSH2 0x129 JUMP JUMPDEST JUMPDEST PUSH0 PUSH2 0x1DD DUP6 DUP3 DUP7 ADD PUSH2 0x173 JUMP JUMPDEST SWAP3 POP POP PUSH1 0x20 PUSH2 0x1EE DUP6 DUP3 DUP7 ADD PUSH2 0x1A6 JUMP JUMPDEST SWAP2 POP POP SWAP3 POP SWAP3 SWAP1 POP JUMP JUMPDEST PUSH2 0x201 DUP2 PUSH2 0x14C JUMP JUMPDEST DUP3 MSTORE POP POP JUMP JUMPDEST PUSH0 PUSH1 0x20 DUP3 ADD SWAP1 POP PUSH2 0x21A PUSH0 DUP4 ADD DUP5 PUSH2 0x1F8 JUMP JUMPDEST SWAP3 SWAP2 POP POP JUMP JUMPDEST PUSH0 DUP2 MLOAD SWAP1 POP SWAP2 SWAP1 POP JUMP JUMPDEST PUSH0 DUP2 SWAP1 POP SWAP3 SWAP2 POP POP JUMP JUMPDEST DUP3 DUP2 DUP4 MCOPY PUSH0 DUP4 DUP4 ADD MSTORE POP POP POP JUMP JUMPDEST PUSH0 PUSH2 0x24C DUP3 PUSH2 0x220 JUMP JUMPDEST PUSH2 0x256 DUP2 DUP6 PUSH2 0x22A JUMP JUMPDEST SWAP4 POP PUSH2 0x266 DUP2 DUP6 PUSH1 0x20 DUP7 ADD PUSH2 0x234 JUMP JUMPDEST DUP1 DUP5 ADD SWAP2 POP POP SWAP3 SWAP2 POP POP JUMP JUMPDEST PUSH0 DUP2 SWAP1 POP SWAP2 SWAP1 POP JUMP JUMPDEST PUSH0 DUP2 SWAP1 POP SWAP2 SWAP1 POP JUMP JUMPDEST PUSH2 0x295 PUSH2 0x290 DUP3 PUSH2 0x272 JUMP JUMPDEST PUSH2 0x27B JUMP JUMPDEST DUP3 MSTORE POP POP JUMP JUMPDEST PUSH0 PUSH2 0x2A6 DUP3 DUP6 PUSH2 0x242 JUMP JUMPDEST SWAP2 POP PUSH2 0x2B2 DUP3 DUP5 PUSH2 0x284 JUMP JUMPDEST PUSH1 0x20 DUP3 ADD SWAP2 POP DUP2 SWAP1 POP SWAP4 SWAP3 POP POP POP JUMP JUMPDEST PUSH2 0x2CB DUP2 PUSH2 0x187 JUMP JUMPDEST DUP3 MSTORE POP POP JUMP JUMPDEST PUSH0 PUSH1 0x40 DUP3 ADD SWAP1 POP PUSH2 0x2E4 PUSH0 DUP4 ADD DUP6 PUSH2 0x1F8 JUMP JUMPDEST PUSH2 0x2F1 PUSH1 0x20 DUP4 ADD DUP5 PUSH2 0x2C2 JUMP JUMPDEST SWAP4 SWAP3 POP POP POP JUMP INVALID PUSH1 0x3E PUSH1 0xE RETURNDATASIZE CODECOPY PUSH1 0x1E DUP1 MLOAD ADDRESS SSTORE RETURNDATASIZE RETURN RETURNDATASIZE RETURNDATASIZE CALLVALUE PUSH1 0x1C JUMPI CALLDATASIZE RETURNDATASIZE RETURNDATASIZE CALLDATACOPY RETURNDATASIZE CALLDATASIZE RETURNDATASIZE ADDRESS SLOAD GAS DELEGATECALL RETURNDATASIZE DUP3 DUP1 RETURNDATACOPY SWAP1 RETURNDATASIZE SWAP2 PUSH1 0x1C JUMPI REVERT JUMPDEST RETURN LOG2 PUSH5 0x6970667358 0x22 SLT KECCAK256 MULMOD 0xE1 ORIGIN 0xAB SWAP14 SHR GT 0xBD 0xBA 0xC0 XOR 0xE6 SGT ISZERO CALLVALUE 0xEB 0x4D PREVRANDAO PUSH1 0xC2 0xD GASLIMIT CODECOPY 0x28 0xA5 LOG0 0xB8 SWAP13 DELEGATECALL 0xEC DELEGATECALL 0xFC PUSH5 0x736F6C6343 STOP ADDMOD SHR STOP CALLER "
        },
        "methodIdentifiers": {
          "deploy(address,bytes32)": "32c02a14"
        }
      },
      "userdoc": {
        "kind": "user",
        "methods": {
          "deploy(address,bytes32)": {
            "notice": "Will deploy a new wallet instance"
          }
        },
        "version": 1
      }
    }
  }
}