{
  "src/extensions/passkeys/Passkeys.sol": {
    "Passkeys": {
      "abi": [
        {
          "inputs": [
            {
              "components": [
                {
                  "internalType": "bytes",
                  "name": "authenticatorData",
                  "type": "bytes"
                },
                {
                  "internalType": "string",
                  "name": "clientDataJSON",
                  "type": "string"
                },
                {
                  "internalType": "uint256",
                  "name": "challengeIndex",
                  "type": "uint256"
                },
                {
                  "internalType": "uint256",
                  "name": "typeIndex",
                  "type": "uint256"
                },
                {
                  "internalType": "bytes32",
                  "name": "r",
                  "type": "bytes32"
                },
                {
                  "internalType": "bytes32",
                  "name": "s",
                  "type": "bytes32"
                }
              ],
              "internalType": "struct WebAuthn.WebAuthnAuth",
              "name": "_webAuthnAuth",
              "type": "tuple"
            },
            {
              "internalType": "bool",
              "name": "_requireUserVerification",
              "type": "bool"
            },
            {
              "internalType": "bytes32",
              "name": "_x",
              "type": "bytes32"
            },
            {
              "internalType": "bytes32",
              "name": "_y",
              "type": "bytes32"
            }
          ],
          "name": "InvalidPasskeySignature",
          "type": "error"
        },
        {
          "inputs": [
            {
              "internalType": "bytes32",
              "name": "_digest",
              "type": "bytes32"
            },
            {
              "internalType": "bytes",
              "name": "_signature",
              "type": "bytes"
            }
          ],
          "name": "isValidSapientSignatureCompact",
          "outputs": [
            {
              "internalType": "bytes32",
              "name": "",
              "type": "bytes32"
            }
          ],
          "stateMutability": "view",
          "type": "function"
        }
      ],
      "devdoc": {
        "kind": "dev",
        "methods": {},
        "version": 1
      },
      "evm": {
        "bytecode": {
          "linkReferences": {},
          "object": "6080604052348015600e575f5ffd5b50610ea58061001c5f395ff3fe608060405234801561000f575f5ffd5b5060043610610029575f3560e01c8063957d2b231461002d575b5f5ffd5b610047600480360381019061004291906107f0565b61005d565b604051610054919061085c565b60405180910390f35b5f5f5f5f5f61006c87876100ff565b93509350935093506100a0886040516020016100889190610895565b604051602081830303815290604052848685856103b7565b6100e757838383836040517f12a693e60000000000000000000000000000000000000000000000000000000081526004016100de9493929190610a3f565b60405180910390fd5b6100f28383836104f0565b9450505050509392505050565b610107610719565b5f5f5f5f86865f81811061011e5761011d610a89565b5b9050013560f81c60f81b90505f60f81b602060f81b82167effffffffffffffffffffffffffffffffffffffffffffffffffffffffffffff19160361037c575f60f81b600160f81b82167effffffffffffffffffffffffffffffffffffffffffffffffffffffffffffff1916141593505f600180600260f81b841660f81c60ff16901c0160ff1690505f60016002600460f81b851660f81c60ff16901c0160ff1690505f60016003600860f81b861660f81c60ff16901c0160ff1690505f60016004601060f81b871660f81c60ff16901c0160ff1690505f600190505f6102068d8d8489610517565b80935081925050505f81830190508d8d8490839261022693929190610abe565b8080601f0160208091040260200160405190810160405280939291908181526020018383808284375f81840152601f19601f820116905080830192505050505050508c5f018190525080925050505f6102818d8d8488610517565b80935081925050505f81830190508d8d849083926102a193929190610abe565b8080601f0160208091040260200160405190810160405280939291908181526020018383808284375f81840152601f19601f820116905080830192505050505050508c6020018190525080925050506102fc8c8c8386610517565b8b6040018193508281525050506103158c8c8385610517565b8b60600181935082815250505061032d8c8c83610544565b8b6080018193508281525050506103458c8c83610544565b8b60a00181935082815250505061035d8c8c83610544565b80925081995050506103708c8c8361055a565b965050505050506103ad565b8686600190809261038f93929190610abe565b81019061039c9190610def565b809550819650829750839850505050505b5092959194509250565b5f5f5f6103c688600180610568565b90506020860151805160208201604089015160608a01518551600d81017f226368616c6c656e6765223a220000000000000000000000000000000000000060981c8852858482011060228286880101515f1a14168160138a01208286880120141686846014011085851760801c107f2274797065223a22776562617574686e2e67657422000000000000000000000060581c8588015160581c1416169950818852505050508851518a151560021b600117808160218d510151161460208311891616975087156104c25760208b510182810180516020600160208701856020868c8c60025afa60011b5afa5199508082523d6104be57fe5b5050505b505050505082156104e5576104e28287608001518860a001518888610672565b92505b505095945050505050565b5f5f6104fc8484610705565b90505f85905061050c8183610705565b925050509392505050565b5f5f858401356008840261010003600180866008021b0382821c1693508486019250505094509492505050565b5f5f848301359150602083019050935093915050565b5f8184013590509392505050565b60608351801561066a576003600282010460021b60405192507f4142434445464748494a4b4c4d4e4f505152535455565758595a616263646566601f526106708515027f6768696a6b6c6d6e6f707172737475767778797a303132333435363738392d5f18603f526020830181810183886020010180515f82525b6001156106375760038a0199508951603f8160121c16515f53603f81600c1c1651600153603f8160061c1651600253603f8116516003535f5185526004850194508385106106315750610637565b506105e3565b8082526020830160405260038606600204613d3d60f01b81860352808915150290505f8186035280860388525050505050505b509392505050565b5f6040518681528560208201528460408201528360608201528260808201525f5f5260205f60a0836101005afa503d6106d05760203d60a0836dd01ea45f9efd5c54f037fa57ea1a5afa503d6106cf5763d0d5039b3d526004601cfd5b5b5f516001147f7fffffff800000007fffffffffffffffde737d56d38bcf4279dce5617e3192a886111091505095945050505050565b5f825f528160205260405f20905092915050565b6040518060c0016040528060608152602001606081526020015f81526020015f81526020015f81526020015f81525090565b5f604051905090565b5f5ffd5b5f5ffd5b5f819050919050565b61076e8161075c565b8114610778575f5ffd5b50565b5f8135905061078981610765565b92915050565b5f5ffd5b5f5ffd5b5f5ffd5b5f5f83601f8401126107b0576107af61078f565b5b8235905067ffffffffffffffff8111156107cd576107cc610793565b5b6020830191508360018202830111156107e9576107e8610797565b5b9250929050565b5f5f5f6040848603121561080757610806610754565b5b5f6108148682870161077b565b935050602084013567ffffffffffffffff81111561083557610834610758565b5b6108418682870161079b565b92509250509250925092565b6108568161075c565b82525050565b5f60208201905061086f5f83018461084d565b92915050565b5f819050919050565b61088f61088a8261075c565b610875565b82525050565b5f6108a0828461087e565b60208201915081905092915050565b5f81519050919050565b5f82825260208201905092915050565b8281835e5f83830152505050565b5f601f19601f8301169050919050565b5f6108f1826108af565b6108fb81856108b9565b935061090b8185602086016108c9565b610914816108d7565b840191505092915050565b5f81519050919050565b5f82825260208201905092915050565b5f6109438261091f565b61094d8185610929565b935061095d8185602086016108c9565b610966816108d7565b840191505092915050565b5f819050919050565b61098381610971565b82525050565b6109928161075c565b82525050565b5f60c083015f8301518482035f8601526109b282826108e7565b915050602083015184820360208601526109cc8282610939565b91505060408301516109e1604086018261097a565b5060608301516109f4606086018261097a565b506080830151610a076080860182610989565b5060a0830151610a1a60a0860182610989565b508091505092915050565b5f8115159050919050565b610a3981610a25565b82525050565b5f6080820190508181035f830152610a578187610998565b9050610a666020830186610a30565b610a73604083018561084d565b610a80606083018461084d565b95945050505050565b7f4e487b71000000000000000000000000000000000000000000000000000000005f52603260045260245ffd5b5f5ffd5b5f5ffd5b5f5f85851115610ad157610ad0610ab6565b5b83861115610ae257610ae1610aba565b5b6001850283019150848603905094509492505050565b5f5ffd5b7f4e487b71000000000000000000000000000000000000000000000000000000005f52604160045260245ffd5b610b32826108d7565b810181811067ffffffffffffffff82111715610b5157610b50610afc565b5b80604052505050565b5f610b6361074b565b9050610b6f8282610b29565b919050565b5f5ffd5b5f5ffd5b5f67ffffffffffffffff821115610b9657610b95610afc565b5b610b9f826108d7565b9050602081019050919050565b828183375f83830152505050565b5f610bcc610bc784610b7c565b610b5a565b905082815260208101848484011115610be857610be7610b78565b5b610bf3848285610bac565b509392505050565b5f82601f830112610c0f57610c0e61078f565b5b8135610c1f848260208601610bba565b91505092915050565b5f67ffffffffffffffff821115610c4257610c41610afc565b5b610c4b826108d7565b9050602081019050919050565b5f610c6a610c6584610c28565b610b5a565b905082815260208101848484011115610c8657610c85610b78565b5b610c91848285610bac565b509392505050565b5f82601f830112610cad57610cac61078f565b5b8135610cbd848260208601610c58565b91505092915050565b610ccf81610971565b8114610cd9575f5ffd5b50565b5f81359050610cea81610cc6565b92915050565b5f60c08284031215610d0557610d04610af8565b5b610d0f60c0610b5a565b90505f82013567ffffffffffffffff811115610d2e57610d2d610b74565b5b610d3a84828501610bfb565b5f83015250602082013567ffffffffffffffff811115610d5d57610d5c610b74565b5b610d6984828501610c99565b6020830152506040610d7d84828501610cdc565b6040830152506060610d9184828501610cdc565b6060830152506080610da58482850161077b565b60808301525060a0610db98482850161077b565b60a08301525092915050565b610dce81610a25565b8114610dd8575f5ffd5b50565b5f81359050610de981610dc5565b92915050565b5f5f5f5f60808587031215610e0757610e06610754565b5b5f85013567ffffffffffffffff811115610e2457610e23610758565b5b610e3087828801610cf0565b9450506020610e4187828801610ddb565b9350506040610e528782880161077b565b9250506060610e638782880161077b565b9150509295919450925056fea2646970667358221220e86e5ab1502d8cdc002849d6a597a8b9b3048b4968dd95f22a7294874a8901c064736f6c634300081c0033",
          "opcodes": "PUSH1 0x80 PUSH1 0x40 MSTORE CALLVALUE DUP1 ISZERO PUSH1 0xE JUMPI PUSH0 PUSH0 REVERT JUMPDEST POP PUSH2 0xEA5 DUP1 PUSH2 0x1C PUSH0 CODECOPY PUSH0 RETURN INVALID PUSH1 0x80 PUSH1 0x40 MSTORE CALLVALUE DUP1 ISZERO PUSH2 0xF JUMPI PUSH0 PUSH0 REVERT JUMPDEST POP PUSH1 0x4 CALLDATASIZE LT PUSH2 0x29 JUMPI PUSH0 CALLDATALOAD PUSH1 0xE0 SHR DUP1 PUSH4 0x957D2B23 EQ PUSH2 0x2D JUMPI JUMPDEST PUSH0 PUSH0 REVERT JUMPDEST PUSH2 0x47 PUSH1 0x4 DUP1 CALLDATASIZE SUB DUP2 ADD SWAP1 PUSH2 0x42 SWAP2 SWAP1 PUSH2 0x7F0 JUMP JUMPDEST PUSH2 0x5D JUMP JUMPDEST PUSH1 0x40 MLOAD PUSH2 0x54 SWAP2 SWAP1 PUSH2 0x85C JUMP JUMPDEST PUSH1 0x40 MLOAD DUP1 SWAP2 SUB SWAP1 RETURN JUMPDEST PUSH0 PUSH0 PUSH0 PUSH0 PUSH0 PUSH2 0x6C DUP8 DUP8 PUSH2 0xFF JUMP JUMPDEST SWAP4 POP SWAP4 POP SWAP4 POP SWAP4 POP PUSH2 0xA0 DUP9 PUSH1 0x40 MLOAD PUSH1 0x20 ADD PUSH2 0x88 SWAP2 SWAP1 PUSH2 0x895 JUMP JUMPDEST PUSH1 0x40 MLOAD PUSH1 0x20 DUP2 DUP4 SUB SUB DUP2 MSTORE SWAP1 PUSH1 0x40 MSTORE DUP5 DUP7 DUP6 DUP6 PUSH2 0x3B7 JUMP JUMPDEST PUSH2 0xE7 JUMPI DUP4 DUP4 DUP4 DUP4 PUSH1 0x40 MLOAD PUSH32 0x12A693E600000000000000000000000000000000000000000000000000000000 DUP2 MSTORE PUSH1 0x4 ADD PUSH2 0xDE SWAP5 SWAP4 SWAP3 SWAP2 SWAP1 PUSH2 0xA3F JUMP JUMPDEST PUSH1 0x40 MLOAD DUP1 SWAP2 SUB SWAP1 REVERT JUMPDEST PUSH2 0xF2 DUP4 DUP4 DUP4 PUSH2 0x4F0 JUMP JUMPDEST SWAP5 POP POP POP POP POP SWAP4 SWAP3 POP POP POP JUMP JUMPDEST PUSH2 0x107 PUSH2 0x719 JUMP JUMPDEST PUSH0 PUSH0 PUSH0 PUSH0 DUP7 DUP7 PUSH0 DUP2 DUP2 LT PUSH2 0x11E JUMPI PUSH2 0x11D PUSH2 0xA89 JUMP JUMPDEST JUMPDEST SWAP1 POP ADD CALLDATALOAD PUSH1 0xF8 SHR PUSH1 0xF8 SHL SWAP1 POP PUSH0 PUSH1 0xF8 SHL PUSH1 0x20 PUSH1 0xF8 SHL DUP3 AND PUSH31 0xFFFFFFFFFFFFFFFFFFFFFFFFFFFFFFFFFFFFFFFFFFFFFFFFFFFFFFFFFFFFFF NOT AND SUB PUSH2 0x37C JUMPI PUSH0 PUSH1 0xF8 SHL PUSH1 0x1 PUSH1 0xF8 SHL DUP3 AND PUSH31 0xFFFFFFFFFFFFFFFFFFFFFFFFFFFFFFFFFFFFFFFFFFFFFFFFFFFFFFFFFFFFFF NOT AND EQ ISZERO SWAP4 POP PUSH0 PUSH1 0x1 DUP1 PUSH1 0x2 PUSH1 0xF8 SHL DUP5 AND PUSH1 0xF8 SHR PUSH1 0xFF AND SWAP1 SHR ADD PUSH1 0xFF AND SWAP1 POP PUSH0 PUSH1 0x1 PUSH1 0x2 PUSH1 0x4 PUSH1 0xF8 SHL DUP6 AND PUSH1 0xF8 SHR PUSH1 0xFF AND SWAP1 SHR ADD PUSH1 0xFF AND SWAP1 POP PUSH0 PUSH1 0x1 PUSH1 0x3 PUSH1 0x8 PUSH1 0xF8 SHL DUP7 AND PUSH1 0xF8 SHR PUSH1 0xFF AND SWAP1 SHR ADD PUSH1 0xFF AND SWAP1 POP PUSH0 PUSH1 0x1 PUSH1 0x4 PUSH1 0x10 PUSH1 0xF8 SHL DUP8 AND PUSH1 0xF8 SHR PUSH1 0xFF AND SWAP1 SHR ADD PUSH1 0xFF AND SWAP1 POP PUSH0 PUSH1 0x1 SWAP1 POP PUSH0 PUSH2 0x206 DUP14 DUP14 DUP5 DUP10 PUSH2 0x517 JUMP JUMPDEST DUP1 SWAP4 POP DUP2 SWAP3 POP POP POP PUSH0 DUP2 DUP4 ADD SWAP1 POP DUP14 DUP14 DUP5 SWAP1 DUP4 SWAP3 PUSH2 0x226 SWAP4 SWAP3 SWAP2 SWAP1 PUSH2 0xABE JUMP JUMPDEST DUP1 DUP1 PUSH1 0x1F ADD PUSH1 0x20 DUP1 SWAP2 DIV MUL PUSH1 0x20 ADD PUSH1 0x40 MLOAD SWAP1 DUP2 ADD PUSH1 0x40 MSTORE DUP1 SWAP4 SWAP3 SWAP2 SWAP1 DUP2 DUP2 MSTORE PUSH1 0x20 ADD DUP4 DUP4 DUP1 DUP3 DUP5 CALLDATACOPY PUSH0 DUP2 DUP5 ADD MSTORE PUSH1 0x1F NOT PUSH1 0x1F DUP3 ADD AND SWAP1 POP DUP1 DUP4 ADD SWAP3 POP POP POP POP POP POP POP DUP13 PUSH0 ADD DUP2 SWAP1 MSTORE POP DUP1 SWAP3 POP POP POP PUSH0 PUSH2 0x281 DUP14 DUP14 DUP5 DUP9 PUSH2 0x517 JUMP JUMPDEST DUP1 SWAP4 POP DUP2 SWAP3 POP POP POP PUSH0 DUP2 DUP4 ADD SWAP1 POP DUP14 DUP14 DUP5 SWAP1 DUP4 SWAP3 PUSH2 0x2A1 SWAP4 SWAP3 SWAP2 SWAP1 PUSH2 0xABE JUMP JUMPDEST DUP1 DUP1 PUSH1 0x1F ADD PUSH1 0x20 DUP1 SWAP2 DIV MUL PUSH1 0x20 ADD PUSH1 0x40 MLOAD SWAP1 DUP2 ADD PUSH1 0x40 MSTORE DUP1 SWAP4 SWAP3 SWAP2 SWAP1 DUP2 DUP2 MSTORE PUSH1 0x20 ADD DUP4 DUP4 DUP1 DUP3 DUP5 CALLDATACOPY PUSH0 DUP2 DUP5 ADD MSTORE PUSH1 0x1F NOT PUSH1 0x1F DUP3 ADD AND SWAP1 POP DUP1 DUP4 ADD SWAP3 POP POP POP POP POP POP POP DUP13 PUSH1 0x20 ADD DUP2 SWAP1 MSTORE POP DUP1 SWAP3 POP POP POP PUSH2 0x2FC DUP13 DUP13 DUP4 DUP7 PUSH2 0x517 JUMP JUMPDEST DUP12 PUSH1 0x40 ADD DUP2 SWAP4 POP DUP3 DUP2 MSTORE POP POP POP PUSH2 0x315 DUP13 DUP13 DUP4 DUP6 PUSH2 0x517 JUMP JUMPDEST DUP12 PUSH1 0x60 ADD DUP2 SWAP4 POP DUP3 DUP2 MSTORE POP POP POP PUSH2 0x32D DUP13 DUP13 DUP4 PUSH2 0x544 JUMP JUMPDEST DUP12 PUSH1 0x80 ADD DUP2 SWAP4 POP DUP3 DUP2 MSTORE POP POP POP PUSH2 0x345 DUP13 DUP13 DUP4 PUSH2 0x544 JUMP JUMPDEST DUP12 PUSH1 0xA0 ADD DUP2 SWAP4 POP DUP3 DUP2 MSTORE POP POP POP PUSH2 0x35D DUP13 DUP13 DUP4 PUSH2 0x544 JUMP JUMPDEST DUP1 SWAP3 POP DUP2 SWAP10 POP POP POP PUSH2 0x370 DUP13 DUP13 DUP4 PUSH2 0x55A JUMP JUMPDEST SWAP7 POP POP POP POP POP POP PUSH2 0x3AD JUMP JUMPDEST DUP7 DUP7 PUSH1 0x1 SWAP1 DUP1 SWAP3 PUSH2 0x38F SWAP4 SWAP3 SWAP2 SWAP1 PUSH2 0xABE JUMP JUMPDEST DUP2 ADD SWAP1 PUSH2 0x39C SWAP2 SWAP1 PUSH2 0xDEF JUMP JUMPDEST DUP1 SWAP6 POP DUP2 SWAP7 POP DUP3 SWAP8 POP DUP4 SWAP9 POP POP POP POP POP JUMPDEST POP SWAP3 SWAP6 SWAP2 SWAP5 POP SWAP3 POP JUMP JUMPDEST PUSH0 PUSH0 PUSH0 PUSH2 0x3C6 DUP9 PUSH1 0x1 DUP1 PUSH2 0x568 JUMP JUMPDEST SWAP1 POP PUSH1 0x20 DUP7 ADD MLOAD DUP1 MLOAD PUSH1 0x20 DUP3 ADD PUSH1 0x40 DUP10 ADD MLOAD PUSH1 0x60 DUP11 ADD MLOAD DUP6 MLOAD PUSH1 0xD DUP2 ADD PUSH32 0x226368616C6C656E6765223A2200000000000000000000000000000000000000 PUSH1 0x98 SHR DUP9 MSTORE DUP6 DUP5 DUP3 ADD LT PUSH1 0x22 DUP3 DUP7 DUP9 ADD ADD MLOAD PUSH0 BYTE EQ AND DUP2 PUSH1 0x13 DUP11 ADD KECCAK256 DUP3 DUP7 DUP9 ADD KECCAK256 EQ AND DUP7 DUP5 PUSH1 0x14 ADD LT DUP6 DUP6 OR PUSH1 0x80 SHR LT PUSH32 0x2274797065223A22776562617574686E2E676574220000000000000000000000 PUSH1 0x58 SHR DUP6 DUP9 ADD MLOAD PUSH1 0x58 SHR EQ AND AND SWAP10 POP DUP2 DUP9 MSTORE POP POP POP POP DUP9 MLOAD MLOAD DUP11 ISZERO ISZERO PUSH1 0x2 SHL PUSH1 0x1 OR DUP1 DUP2 PUSH1 0x21 DUP14 MLOAD ADD MLOAD AND EQ PUSH1 0x20 DUP4 GT DUP10 AND AND SWAP8 POP DUP8 ISZERO PUSH2 0x4C2 JUMPI PUSH1 0x20 DUP12 MLOAD ADD DUP3 DUP2 ADD DUP1 MLOAD PUSH1 0x20 PUSH1 0x1 PUSH1 0x20 DUP8 ADD DUP6 PUSH1 0x20 DUP7 DUP13 DUP13 PUSH1 0x2 GAS STATICCALL PUSH1 0x1 SHL GAS STATICCALL MLOAD SWAP10 POP DUP1 DUP3 MSTORE RETURNDATASIZE PUSH2 0x4BE JUMPI INVALID JUMPDEST POP POP POP JUMPDEST POP POP POP POP POP DUP3 ISZERO PUSH2 0x4E5 JUMPI PUSH2 0x4E2 DUP3 DUP8 PUSH1 0x80 ADD MLOAD DUP9 PUSH1 0xA0 ADD MLOAD DUP9 DUP9 PUSH2 0x672 JUMP JUMPDEST SWAP3 POP JUMPDEST POP POP SWAP6 SWAP5 POP POP POP POP POP JUMP JUMPDEST PUSH0 PUSH0 PUSH2 0x4FC DUP5 DUP5 PUSH2 0x705 JUMP JUMPDEST SWAP1 POP PUSH0 DUP6 SWAP1 POP PUSH2 0x50C DUP2 DUP4 PUSH2 0x705 JUMP JUMPDEST SWAP3 POP POP POP SWAP4 SWAP3 POP POP POP JUMP JUMPDEST PUSH0 PUSH0 DUP6 DUP5 ADD CALLDATALOAD PUSH1 0x8 DUP5 MUL PUSH2 0x100 SUB PUSH1 0x1 DUP1 DUP7 PUSH1 0x8 MUL SHL SUB DUP3 DUP3 SHR AND SWAP4 POP DUP5 DUP7 ADD SWAP3 POP POP POP SWAP5 POP SWAP5 SWAP3 POP POP POP JUMP JUMPDEST PUSH0 PUSH0 DUP5 DUP4 ADD CALLDATALOAD SWAP2 POP PUSH1 0x20 DUP4 ADD SWAP1 POP SWAP4 POP SWAP4 SWAP2 POP POP JUMP JUMPDEST PUSH0 DUP2 DUP5 ADD CALLDATALOAD SWAP1 POP SWAP4 SWAP3 POP POP POP JUMP JUMPDEST PUSH1 0x60 DUP4 MLOAD DUP1 ISZERO PUSH2 0x66A JUMPI PUSH1 0x3 PUSH1 0x2 DUP3 ADD DIV PUSH1 0x2 SHL PUSH1 0x40 MLOAD SWAP3 POP PUSH32 0x4142434445464748494A4B4C4D4E4F505152535455565758595A616263646566 PUSH1 0x1F MSTORE PUSH2 0x670 DUP6 ISZERO MUL PUSH32 0x6768696A6B6C6D6E6F707172737475767778797A303132333435363738392D5F XOR PUSH1 0x3F MSTORE PUSH1 0x20 DUP4 ADD DUP2 DUP2 ADD DUP4 DUP9 PUSH1 0x20 ADD ADD DUP1 MLOAD PUSH0 DUP3 MSTORE JUMPDEST PUSH1 0x1 ISZERO PUSH2 0x637 JUMPI PUSH1 0x3 DUP11 ADD SWAP10 POP DUP10 MLOAD PUSH1 0x3F DUP2 PUSH1 0x12 SHR AND MLOAD PUSH0 MSTORE8 PUSH1 0x3F DUP2 PUSH1 0xC SHR AND MLOAD PUSH1 0x1 MSTORE8 PUSH1 0x3F DUP2 PUSH1 0x6 SHR AND MLOAD PUSH1 0x2 MSTORE8 PUSH1 0x3F DUP2 AND MLOAD PUSH1 0x3 MSTORE8 PUSH0 MLOAD DUP6 MSTORE PUSH1 0x4 DUP6 ADD SWAP5 POP DUP4 DUP6 LT PUSH2 0x631 JUMPI POP PUSH2 0x637 JUMP JUMPDEST POP PUSH2 0x5E3 JUMP JUMPDEST DUP1 DUP3 MSTORE PUSH1 0x20 DUP4 ADD PUSH1 0x40 MSTORE PUSH1 0x3 DUP7 MOD PUSH1 0x2 DIV PUSH2 0x3D3D PUSH1 0xF0 SHL DUP2 DUP7 SUB MSTORE DUP1 DUP10 ISZERO ISZERO MUL SWAP1 POP PUSH0 DUP2 DUP7 SUB MSTORE DUP1 DUP7 SUB DUP9 MSTORE POP POP POP POP POP POP JUMPDEST POP SWAP4 SWAP3 POP POP POP JUMP JUMPDEST PUSH0 PUSH1 0x40 MLOAD DUP7 DUP2 MSTORE DUP6 PUSH1 0x20 DUP3 ADD MSTORE DUP5 PUSH1 0x40 DUP3 ADD MSTORE DUP4 PUSH1 0x60 DUP3 ADD MSTORE DUP3 PUSH1 0x80 DUP3 ADD MSTORE PUSH0 PUSH0 MSTORE PUSH1 0x20 PUSH0 PUSH1 0xA0 DUP4 PUSH2 0x100 GAS STATICCALL POP RETURNDATASIZE PUSH2 0x6D0 JUMPI PUSH1 0x20 RETURNDATASIZE PUSH1 0xA0 DUP4 PUSH14 0xD01EA45F9EFD5C54F037FA57EA1A GAS STATICCALL POP RETURNDATASIZE PUSH2 0x6CF JUMPI PUSH4 0xD0D5039B RETURNDATASIZE MSTORE PUSH1 0x4 PUSH1 0x1C REVERT JUMPDEST JUMPDEST PUSH0 MLOAD PUSH1 0x1 EQ PUSH32 0x7FFFFFFF800000007FFFFFFFFFFFFFFFDE737D56D38BCF4279DCE5617E3192A8 DUP7 GT LT SWAP2 POP POP SWAP6 SWAP5 POP POP POP POP POP JUMP JUMPDEST PUSH0 DUP3 PUSH0 MSTORE DUP2 PUSH1 0x20 MSTORE PUSH1 0x40 PUSH0 KECCAK256 SWAP1 POP SWAP3 SWAP2 POP POP JUMP JUMPDEST PUSH1 0x40 MLOAD DUP1 PUSH1 0xC0 ADD PUSH1 0x40 MSTORE DUP1 PUSH1 0x60 DUP2 MSTORE PUSH1 0x20 ADD PUSH1 0x60 DUP2 MSTORE PUSH1 0x20 ADD PUSH0 DUP2 MSTORE PUSH1 0x20 ADD PUSH0 DUP2 MSTORE PUSH1 0x20 ADD PUSH0 DUP2 MSTORE PUSH1 0x20 ADD PUSH0 DUP2 MSTORE POP SWAP1 JUMP JUMPDEST PUSH0 PUSH1 0x40 MLOAD SWAP1 POP SWAP1 JUMP JUMPDEST PUSH0 PUSH0 REVERT JUMPDEST PUSH0 PUSH0 REVERT JUMPDEST PUSH0 DUP2 SWAP1 POP SWAP2 SWAP1 POP JUMP JUMPDEST PUSH2 0x76E DUP2 PUSH2 0x75C JUMP JUMPDEST DUP2 EQ PUSH2 0x778 JUMPI PUSH0 PUSH0 REVERT JUMPDEST POP JUMP JUMPDEST PUSH0 DUP2 CALLDATALOAD SWAP1 POP PUSH2 0x789 DUP2 PUSH2 0x765 JUMP JUMPDEST SWAP3 SWAP2 POP POP JUMP JUMPDEST PUSH0 PUSH0 REVERT JUMPDEST PUSH0 PUSH0 REVERT JUMPDEST PUSH0 PUSH0 REVERT JUMPDEST PUSH0 PUSH0 DUP4 PUSH1 0x1F DUP5 ADD SLT PUSH2 0x7B0 JUMPI PUSH2 0x7AF PUSH2 0x78F JUMP JUMPDEST JUMPDEST DUP3 CALLDATALOAD SWAP1 POP PUSH8 0xFFFFFFFFFFFFFFFF DUP2 GT ISZERO PUSH2 0x7CD JUMPI PUSH2 0x7CC PUSH2 0x793 JUMP JUMPDEST JUMPDEST PUSH1 0x20 DUP4 ADD SWAP2 POP DUP4 PUSH1 0x1 DUP3 MUL DUP4 ADD GT ISZERO PUSH2 0x7E9 JUMPI PUSH2 0x7E8 PUSH2 0x797 JUMP JUMPDEST JUMPDEST SWAP3 POP SWAP3 SWAP1 POP JUMP JUMPDEST PUSH0 PUSH0 PUSH0 PUSH1 0x40 DUP5 DUP7 SUB SLT ISZERO PUSH2 0x807 JUMPI PUSH2 0x806 PUSH2 0x754 JUMP JUMPDEST JUMPDEST PUSH0 PUSH2 0x814 DUP7 DUP3 DUP8 ADD PUSH2 0x77B JUMP JUMPDEST SWAP4 POP POP PUSH1 0x20 DUP5 ADD CALLDATALOAD PUSH8 0xFFFFFFFFFFFFFFFF DUP2 GT ISZERO PUSH2 0x835 JUMPI PUSH2 0x834 PUSH2 0x758 JUMP JUMPDEST JUMPDEST PUSH2 0x841 DUP7 DUP3 DUP8 ADD PUSH2 0x79B JUMP JUMPDEST SWAP3 POP SWAP3 POP POP SWAP3 POP SWAP3 POP SWAP3 JUMP JUMPDEST PUSH2 0x856 DUP2 PUSH2 0x75C JUMP JUMPDEST DUP3 MSTORE POP POP JUMP JUMPDEST PUSH0 PUSH1 0x20 DUP3 ADD SWAP1 POP PUSH2 0x86F PUSH0 DUP4 ADD DUP5 PUSH2 0x84D JUMP JUMPDEST SWAP3 SWAP2 POP POP JUMP JUMPDEST PUSH0 DUP2 SWAP1 POP SWAP2 SWAP1 POP JUMP JUMPDEST PUSH2 0x88F PUSH2 0x88A DUP3 PUSH2 0x75C JUMP JUMPDEST PUSH2 0x875 JUMP JUMPDEST DUP3 MSTORE POP POP JUMP JUMPDEST PUSH0 PUSH2 0x8A0 DUP3 DUP5 PUSH2 0x87E JUMP JUMPDEST PUSH1 0x20 DUP3 ADD SWAP2 POP DUP2 SWAP1 POP SWAP3 SWAP2 POP POP JUMP JUMPDEST PUSH0 DUP2 MLOAD SWAP1 POP SWAP2 SWAP1 POP JUMP JUMPDEST PUSH0 DUP3 DUP3 MSTORE PUSH1 0x20 DUP3 ADD SWAP1 POP SWAP3 SWAP2 POP POP JUMP JUMPDEST DUP3 DUP2 DUP4 MCOPY PUSH0 DUP4 DUP4 ADD MSTORE POP POP POP JUMP JUMPDEST PUSH0 PUSH1 0x1F NOT PUSH1 0x1F DUP4 ADD AND SWAP1 POP SWAP2 SWAP1 POP JUMP JUMPDEST PUSH0 PUSH2 0x8F1 DUP3 PUSH2 0x8AF JUMP JUMPDEST PUSH2 0x8FB DUP2 DUP6 PUSH2 0x8B9 JUMP JUMPDEST SWAP4 POP PUSH2 0x90B DUP2 DUP6 PUSH1 0x20 DUP7 ADD PUSH2 0x8C9 JUMP JUMPDEST PUSH2 0x914 DUP2 PUSH2 0x8D7 JUMP JUMPDEST DUP5 ADD SWAP2 POP POP SWAP3 SWAP2 POP POP JUMP JUMPDEST PUSH0 DUP2 MLOAD SWAP1 POP SWAP2 SWAP1 POP JUMP JUMPDEST PUSH0 DUP3 DUP3 MSTORE PUSH1 0x20 DUP3 ADD SWAP1 POP SWAP3 SWAP2 POP POP JUMP JUMPDEST PUSH0 PUSH2 0x943 DUP3 PUSH2 0x91F JUMP JUMPDEST PUSH2 0x94D DUP2 DUP6 PUSH2 0x929 JUMP JUMPDEST SWAP4 POP PUSH2 0x95D DUP2 DUP6 PUSH1 0x20 DUP7 ADD PUSH2 0x8C9 JUMP JUMPDEST PUSH2 0x966 DUP2 PUSH2 0x8D7 JUMP JUMPDEST DUP5 ADD SWAP2 POP POP SWAP3 SWAP2 POP POP JUMP JUMPDEST PUSH0 DUP2 SWAP1 POP SWAP2 SWAP1 POP JUMP JUMPDEST PUSH2 0x983 DUP2 PUSH2 0x971 JUMP JUMPDEST DUP3 MSTORE POP POP JUMP JUMPDEST PUSH2 0x992 DUP2 PUSH2 0x75C JUMP JUMPDEST DUP3 MSTORE POP POP JUMP JUMPDEST PUSH0 PUSH1 0xC0 DUP4 ADD PUSH0 DUP4 ADD MLOAD DUP5 DUP3 SUB PUSH0 DUP7 ADD MSTORE PUSH2 0x9B2 DUP3 DUP3 PUSH2 0x8E7 JUMP JUMPDEST SWAP2 POP POP PUSH1 0x20 DUP4 ADD MLOAD DUP5 DUP3 SUB PUSH1 0x20 DUP7 ADD MSTORE PUSH2 0x9CC DUP3 DUP3 PUSH2 0x939 JUMP JUMPDEST SWAP2 POP POP PUSH1 0x40 DUP4 ADD MLOAD PUSH2 0x9E1 PUSH1 0x40 DUP7 ADD DUP3 PUSH2 0x97A JUMP JUMPDEST POP PUSH1 0x60 DUP4 ADD MLOAD PUSH2 0x9F4 PUSH1 0x60 DUP7 ADD DUP3 PUSH2 0x97A JUMP JUMPDEST POP PUSH1 0x80 DUP4 ADD MLOAD PUSH2 0xA07 PUSH1 0x80 DUP7 ADD DUP3 PUSH2 0x989 JUMP JUMPDEST POP PUSH1 0xA0 DUP4 ADD MLOAD PUSH2 0xA1A PUSH1 0xA0 DUP7 ADD DUP3 PUSH2 0x989 JUMP JUMPDEST POP DUP1 SWAP2 POP POP SWAP3 SWAP2 POP POP JUMP JUMPDEST PUSH0 DUP2 ISZERO ISZERO SWAP1 POP SWAP2 SWAP1 POP JUMP JUMPDEST PUSH2 0xA39 DUP2 PUSH2 0xA25 JUMP JUMPDEST DUP3 MSTORE POP POP JUMP JUMPDEST PUSH0 PUSH1 0x80 DUP3 ADD SWAP1 POP DUP2 DUP2 SUB PUSH0 DUP4 ADD MSTORE PUSH2 0xA57 DUP2 DUP8 PUSH2 0x998 JUMP JUMPDEST SWAP1 POP PUSH2 0xA66 PUSH1 0x20 DUP4 ADD DUP7 PUSH2 0xA30 JUMP JUMPDEST PUSH2 0xA73 PUSH1 0x40 DUP4 ADD DUP6 PUSH2 0x84D JUMP JUMPDEST PUSH2 0xA80 PUSH1 0x60 DUP4 ADD DUP5 PUSH2 0x84D JUMP JUMPDEST SWAP6 SWAP5 POP POP POP POP POP JUMP JUMPDEST PUSH32 0x4E487B7100000000000000000000000000000000000000000000000000000000 PUSH0 MSTORE PUSH1 0x32 PUSH1 0x4 MSTORE PUSH1 0x24 PUSH0 REVERT JUMPDEST PUSH0 PUSH0 REVERT JUMPDEST PUSH0 PUSH0 REVERT JUMPDEST PUSH0 PUSH0 DUP6 DUP6 GT ISZERO PUSH2 0xAD1 JUMPI PUSH2 0xAD0 PUSH2 0xAB6 JUMP JUMPDEST JUMPDEST DUP4 DUP7 GT ISZERO PUSH2 0xAE2 JUMPI PUSH2 0xAE1 PUSH2 0xABA JUMP JUMPDEST JUMPDEST PUSH1 0x1 DUP6 MUL DUP4 ADD SWAP2 POP DUP5 DUP7 SUB SWAP1 POP SWAP5 POP SWAP5 SWAP3 POP POP POP JUMP JUMPDEST PUSH0 PUSH0 REVERT JUMPDEST PUSH32 0x4E487B7100000000000000000000000000000000000000000000000000000000 PUSH0 MSTORE PUSH1 0x41 PUSH1 0x4 MSTORE PUSH1 0x24 PUSH0 REVERT JUMPDEST PUSH2 0xB32 DUP3 PUSH2 0x8D7 JUMP JUMPDEST DUP2 ADD DUP2 DUP2 LT PUSH8 0xFFFFFFFFFFFFFFFF DUP3 GT OR ISZERO PUSH2 0xB51 JUMPI PUSH2 0xB50 PUSH2 0xAFC JUMP JUMPDEST JUMPDEST DUP1 PUSH1 0x40 MSTORE POP POP POP JUMP JUMPDEST PUSH0 PUSH2 0xB63 PUSH2 0x74B JUMP JUMPDEST SWAP1 POP PUSH2 0xB6F DUP3 DUP3 PUSH2 0xB29 JUMP JUMPDEST SWAP2 SWAP1 POP JUMP JUMPDEST PUSH0 PUSH0 REVERT JUMPDEST PUSH0 PUSH0 REVERT JUMPDEST PUSH0 PUSH8 0xFFFFFFFFFFFFFFFF DUP3 GT ISZERO PUSH2 0xB96 JUMPI PUSH2 0xB95 PUSH2 0xAFC JUMP JUMPDEST JUMPDEST PUSH2 0xB9F DUP3 PUSH2 0x8D7 JUMP JUMPDEST SWAP1 POP PUSH1 0x20 DUP2 ADD SWAP1 POP SWAP2 SWAP1 POP JUMP JUMPDEST DUP3 DUP2 DUP4 CALLDATACOPY PUSH0 DUP4 DUP4 ADD MSTORE POP POP POP JUMP JUMPDEST PUSH0 PUSH2 0xBCC PUSH2 0xBC7 DUP5 PUSH2 0xB7C JUMP JUMPDEST PUSH2 0xB5A JUMP JUMPDEST SWAP1 POP DUP3 DUP2 MSTORE PUSH1 0x20 DUP2 ADD DUP5 DUP5 DUP5 ADD GT ISZERO PUSH2 0xBE8 JUMPI PUSH2 0xBE7 PUSH2 0xB78 JUMP JUMPDEST JUMPDEST PUSH2 0xBF3 DUP5 DUP3 DUP6 PUSH2 0xBAC JUMP JUMPDEST POP SWAP4 SWAP3 POP POP POP JUMP JUMPDEST PUSH0 DUP3 PUSH1 0x1F DUP4 ADD SLT PUSH2 0xC0F JUMPI PUSH2 0xC0E PUSH2 0x78F JUMP JUMPDEST JUMPDEST DUP2 CALLDATALOAD PUSH2 0xC1F DUP5 DUP3 PUSH1 0x20 DUP7 ADD PUSH2 0xBBA JUMP JUMPDEST SWAP2 POP POP SWAP3 SWAP2 POP POP JUMP JUMPDEST PUSH0 PUSH8 0xFFFFFFFFFFFFFFFF DUP3 GT ISZERO PUSH2 0xC42 JUMPI PUSH2 0xC41 PUSH2 0xAFC JUMP JUMPDEST JUMPDEST PUSH2 0xC4B DUP3 PUSH2 0x8D7 JUMP JUMPDEST SWAP1 POP PUSH1 0x20 DUP2 ADD SWAP1 POP SWAP2 SWAP1 POP JUMP JUMPDEST PUSH0 PUSH2 0xC6A PUSH2 0xC65 DUP5 PUSH2 0xC28 JUMP JUMPDEST PUSH2 0xB5A JUMP JUMPDEST SWAP1 POP DUP3 DUP2 MSTORE PUSH1 0x20 DUP2 ADD DUP5 DUP5 DUP5 ADD GT ISZERO PUSH2 0xC86 JUMPI PUSH2 0xC85 PUSH2 0xB78 JUMP JUMPDEST JUMPDEST PUSH2 0xC91 DUP5 DUP3 DUP6 PUSH2 0xBAC JUMP JUMPDEST POP SWAP4 SWAP3 POP POP POP JUMP JUMPDEST PUSH0 DUP3 PUSH1 0x1F DUP4 ADD SLT PUSH2 0xCAD JUMPI PUSH2 0xCAC PUSH2 0x78F JUMP JUMPDEST JUMPDEST DUP2 CALLDATALOAD PUSH2 0xCBD DUP5 DUP3 PUSH1 0x20 DUP7 ADD PUSH2 0xC58 JUMP JUMPDEST SWAP2 POP POP SWAP3 SWAP2 POP POP JUMP JUMPDEST PUSH2 0xCCF DUP2 PUSH2 0x971 JUMP JUMPDEST DUP2 EQ PUSH2 0xCD9 JUMPI PUSH0 PUSH0 REVERT JUMPDEST POP JUMP JUMPDEST PUSH0 DUP2 CALLDATALOAD SWAP1 POP PUSH2 0xCEA DUP2 PUSH2 0xCC6 JUMP JUMPDEST SWAP3 SWAP2 POP POP JUMP JUMPDEST PUSH0 PUSH1 0xC0 DUP3 DUP5 SUB SLT ISZERO PUSH2 0xD05 JUMPI PUSH2 0xD04 PUSH2 0xAF8 JUMP JUMPDEST JUMPDEST PUSH2 0xD0F PUSH1 0xC0 PUSH2 0xB5A JUMP JUMPDEST SWAP1 POP PUSH0 DUP3 ADD CALLDATALOAD PUSH8 0xFFFFFFFFFFFFFFFF DUP2 GT ISZERO PUSH2 0xD2E JUMPI PUSH2 0xD2D PUSH2 0xB74 JUMP JUMPDEST JUMPDEST PUSH2 0xD3A DUP5 DUP3 DUP6 ADD PUSH2 0xBFB JUMP JUMPDEST PUSH0 DUP4 ADD MSTORE POP PUSH1 0x20 DUP3 ADD CALLDATALOAD PUSH8 0xFFFFFFFFFFFFFFFF DUP2 GT ISZERO PUSH2 0xD5D JUMPI PUSH2 0xD5C PUSH2 0xB74 JUMP JUMPDEST JUMPDEST PUSH2 0xD69 DUP5 DUP3 DUP6 ADD PUSH2 0xC99 JUMP JUMPDEST PUSH1 0x20 DUP4 ADD MSTORE POP PUSH1 0x40 PUSH2 0xD7D DUP5 DUP3 DUP6 ADD PUSH2 0xCDC JUMP JUMPDEST PUSH1 0x40 DUP4 ADD MSTORE POP PUSH1 0x60 PUSH2 0xD91 DUP5 DUP3 DUP6 ADD PUSH2 0xCDC JUMP JUMPDEST PUSH1 0x60 DUP4 ADD MSTORE POP PUSH1 0x80 PUSH2 0xDA5 DUP5 DUP3 DUP6 ADD PUSH2 0x77B JUMP JUMPDEST PUSH1 0x80 DUP4 ADD MSTORE POP PUSH1 0xA0 PUSH2 0xDB9 DUP5 DUP3 DUP6 ADD PUSH2 0x77B JUMP JUMPDEST PUSH1 0xA0 DUP4 ADD MSTORE POP SWAP3 SWAP2 POP POP JUMP JUMPDEST PUSH2 0xDCE DUP2 PUSH2 0xA25 JUMP JUMPDEST DUP2 EQ PUSH2 0xDD8 JUMPI PUSH0 PUSH0 REVERT JUMPDEST POP JUMP JUMPDEST PUSH0 DUP2 CALLDATALOAD SWAP1 POP PUSH2 0xDE9 DUP2 PUSH2 0xDC5 JUMP JUMPDEST SWAP3 SWAP2 POP POP JUMP JUMPDEST PUSH0 PUSH0 PUSH0 PUSH0 PUSH1 0x80 DUP6 DUP8 SUB SLT ISZERO PUSH2 0xE07 JUMPI PUSH2 0xE06 PUSH2 0x754 JUMP JUMPDEST JUMPDEST PUSH0 DUP6 ADD CALLDATALOAD PUSH8 0xFFFFFFFFFFFFFFFF DUP2 GT ISZERO PUSH2 0xE24 JUMPI PUSH2 0xE23 PUSH2 0x758 JUMP JUMPDEST JUMPDEST PUSH2 0xE30 DUP8 DUP3 DUP9 ADD PUSH2 0xCF0 JUMP JUMPDEST SWAP5 POP POP PUSH1 0x20 PUSH2 0xE41 DUP8 DUP3 DUP9 ADD PUSH2 0xDDB JUMP JUMPDEST SWAP4 POP POP PUSH1 0x40 PUSH2 0xE52 DUP8 DUP3 DUP9 ADD PUSH2 0x77B JUMP JUMPDEST SWAP3 POP POP PUSH1 0x60 PUSH2 0xE63 DUP8 DUP3 DUP9 ADD PUSH2 0x77B JUMP JUMPDEST SWAP2 POP POP SWAP3 SWAP6 SWAP2 SWAP5 POP SWAP3 POP JUMP INVALID LOG2 PUSH5 0x6970667358 0x22 SLT KECCAK256 0xE8 PUSH15 0x5AB1502D8CDC002849D6A597A8B9B3 DIV DUP12 BLOBHASH PUSH9 0xDD95F22A7294874A89 ADD 0xC0 PUSH5 0x736F6C6343 STOP ADDMOD SHR STOP CALLER "
        },
        "methodIdentifiers": {
          "isValidSapientSignatureCompact(bytes32,bytes)": "957d2b23"
        }
      },
      "userdoc": {
        "kind": "user",
        "methods": {
          "isValidSapientSignatureCompact(bytes32,bytes)": {
            "notice": "Validates the signature of the compacted payload"
          }
        },
        "version": 1
      }
    }
  }
}