{
	"contracts/trust/Trust.sol": {
		"Trust": {
			"abi": [
				{
					"inputs": [
						{
							"internalType": "address",
							"name": "_owner",
							"type": "address"
						},
						{
							"internalType": "address",
							"name": "_beneficiary",
							"type": "address"
						},
						{
							"internalType": "uint256",
							"name": "_duration",
							"type": "uint256"
						}
					],
					"stateMutability": "nonpayable",
					"type": "constructor"
				},
				{
					"inputs": [],
					"name": "EmptySignature",
					"type": "error"
				},
				{
					"inputs": [],
					"name": "EmptySignature",
					"type": "error"
				},
				{
					"inputs": [
						{
							"internalType": "address payable",
							"name": "_to",
							"type": "address"
						},
						{
							"internalType": "uint256",
							"name": "_value",
							"type": "uint256"
						},
						{
							"internalType": "bytes",
							"name": "_data",
							"type": "bytes"
						},
						{
							"internalType": "bytes",
							"name": "_result",
							"type": "bytes"
						}
					],
					"name": "FailedTransaction",
					"type": "error"
				},
				{
					"inputs": [
						{
							"internalType": "bytes",
							"name": "_signature",
							"type": "bytes"
						},
						{
							"internalType": "bytes32",
							"name": "_s",
							"type": "bytes32"
						}
					],
					"name": "InvalidSValue",
					"type": "error"
				},
				{
					"inputs": [
						{
							"internalType": "bytes32",
							"name": "_hash",
							"type": "bytes32"
						},
						{
							"internalType": "bytes32",
							"name": "_rehash",
							"type": "bytes32"
						},
						{
							"internalType": "address",
							"name": "_signer",
							"type": "address"
						},
						{
							"internalType": "bytes",
							"name": "_signature",
							"type": "bytes"
						}
					],
					"name": "InvalidSignature",
					"type": "error"
				},
				{
					"inputs": [
						{
							"internalType": "bytes",
							"name": "_signature",
							"type": "bytes"
						},
						{
							"internalType": "bytes1",
							"name": "_flag",
							"type": "bytes1"
						}
					],
					"name": "InvalidSignatureFlag",
					"type": "error"
				},
				{
					"inputs": [
						{
							"internalType": "bytes",
							"name": "_signature",
							"type": "bytes"
						}
					],
					"name": "InvalidSignatureLength",
					"type": "error"
				},
				{
					"inputs": [
						{
							"internalType": "bytes",
							"name": "_signature",
							"type": "bytes"
						},
						{
							"internalType": "uint256",
							"name": "_v",
							"type": "uint256"
						}
					],
					"name": "InvalidVValue",
					"type": "error"
				},
				{
					"inputs": [
						{
							"internalType": "address",
							"name": "_sender",
							"type": "address"
						}
					],
					"name": "NotOwner",
					"type": "error"
				},
				{
					"inputs": [
						{
							"internalType": "uint256",
							"name": "_unlocksAt",
							"type": "uint256"
						}
					],
					"name": "NotUnlocked",
					"type": "error"
				},
				{
					"inputs": [
						{
							"internalType": "bytes",
							"name": "_signature",
							"type": "bytes"
						}
					],
					"name": "SignerIsAddress0",
					"type": "error"
				},
				{
					"inputs": [
						{
							"internalType": "uint256",
							"name": "_unlocksAt",
							"type": "uint256"
						},
						{
							"internalType": "uint256",
							"name": "_elapsed",
							"type": "uint256"
						}
					],
					"name": "UnlockInThePast",
					"type": "error"
				},
				{
					"inputs": [
						{
							"internalType": "uint256",
							"name": "_unlocksAt",
							"type": "uint256"
						},
						{
							"internalType": "uint256",
							"name": "_diff",
							"type": "uint256"
						}
					],
					"name": "UnlockTooEarly",
					"type": "error"
				},
				{
					"inputs": [
						{
							"internalType": "bytes",
							"name": "_signature",
							"type": "bytes"
						},
						{
							"internalType": "uint256",
							"name": "_type",
							"type": "uint256"
						},
						{
							"internalType": "bool",
							"name": "_recoverMode",
							"type": "bool"
						}
					],
					"name": "UnsupportedSignatureType",
					"type": "error"
				},
				{
					"anonymous": false,
					"inputs": [
						{
							"indexed": false,
							"internalType": "address payable",
							"name": "_to",
							"type": "address"
						},
						{
							"indexed": false,
							"internalType": "uint256",
							"name": "_value",
							"type": "uint256"
						},
						{
							"indexed": false,
							"internalType": "bytes",
							"name": "_data",
							"type": "bytes"
						},
						{
							"indexed": false,
							"internalType": "bytes",
							"name": "_result",
							"type": "bytes"
						}
					],
					"name": "SentTransaction",
					"type": "event"
				},
				{
					"anonymous": false,
					"inputs": [
						{
							"indexed": false,
							"internalType": "uint256",
							"name": "_unlocksAt",
							"type": "uint256"
						}
					],
					"name": "SetUnlocksAt",
					"type": "event"
				},
				{
					"stateMutability": "payable",
					"type": "fallback"
				},
				{
					"inputs": [],
					"name": "beneficiary",
					"outputs": [
						{
							"internalType": "address",
							"name": "",
							"type": "address"
						}
					],
					"stateMutability": "view",
					"type": "function"
				},
				{
					"inputs": [],
					"name": "duration",
					"outputs": [
						{
							"internalType": "uint256",
							"name": "",
							"type": "uint256"
						}
					],
					"stateMutability": "view",
					"type": "function"
				},
				{
					"inputs": [],
					"name": "isLocked",
					"outputs": [
						{
							"internalType": "bool",
							"name": "",
							"type": "bool"
						}
					],
					"stateMutability": "view",
					"type": "function"
				},
				{
					"inputs": [
						{
							"internalType": "bytes32",
							"name": "_hash",
							"type": "bytes32"
						},
						{
							"internalType": "bytes",
							"name": "_signature",
							"type": "bytes"
						}
					],
					"name": "isValidSignature",
					"outputs": [
						{
							"internalType": "bytes4",
							"name": "",
							"type": "bytes4"
						}
					],
					"stateMutability": "view",
					"type": "function"
				},
				{
					"inputs": [
						{
							"internalType": "bytes",
							"name": "_data",
							"type": "bytes"
						},
						{
							"internalType": "bytes",
							"name": "_signature",
							"type": "bytes"
						}
					],
					"name": "isValidSignature",
					"outputs": [
						{
							"internalType": "bytes4",
							"name": "",
							"type": "bytes4"
						}
					],
					"stateMutability": "view",
					"type": "function"
				},
				{
					"inputs": [],
					"name": "owner",
					"outputs": [
						{
							"internalType": "address",
							"name": "",
							"type": "address"
						}
					],
					"stateMutability": "view",
					"type": "function"
				},
				{
					"inputs": [
						{
							"internalType": "address payable",
							"name": "_to",
							"type": "address"
						},
						{
							"internalType": "uint256",
							"name": "_value",
							"type": "uint256"
						},
						{
							"internalType": "bytes",
							"name": "_data",
							"type": "bytes"
						}
					],
					"name": "sendTransaction",
					"outputs": [
						{
							"internalType": "bytes",
							"name": "",
							"type": "bytes"
						}
					],
					"stateMutability": "nonpayable",
					"type": "function"
				},
				{
					"inputs": [
						{
							"internalType": "uint256",
							"name": "_unlocksAt",
							"type": "uint256"
						}
					],
					"name": "setUnlocksAt",
					"outputs": [],
					"stateMutability": "nonpayable",
					"type": "function"
				},
				{
					"inputs": [],
					"name": "unlocksAt",
					"outputs": [
						{
							"internalType": "uint256",
							"name": "",
							"type": "uint256"
						}
					],
					"stateMutability": "view",
					"type": "function"
				},
				{
					"stateMutability": "payable",
					"type": "receive"
				}
			],
			"devdoc": {
				"kind": "dev",
				"methods": {
					"isValidSignature(bytes,bytes)": {
						"details": "MUST return the correct magic value if the signature provided is valid for the provided data   > The bytes4 magic value to return when signature is valid is 0x20c13b0b : bytes4(keccak256(\"isValidSignature(bytes,bytes)\")   > This function MAY modify Ethereum's state",
						"params": {
							"_data": "Arbitrary length data signed on the behalf of address(this)",
							"_signature": "Signature byte array associated with _data"
						},
						"returns": {
							"_0": "Magic value 0x20c13b0b if the signature is valid and 0x0 otherwise"
						}
					},
					"isValidSignature(bytes32,bytes)": {
						"details": "MUST return the correct magic value if the signature provided is valid for the provided hash   > The bytes4 magic value to return when signature is valid is 0x20c13b0b : bytes4(keccak256(\"isValidSignature(bytes,bytes)\")   > This function MAY modify Ethereum's state",
						"params": {
							"_hash": "keccak256 hash that was signed",
							"_signature": "Signature byte array associated with _data"
						},
						"returns": {
							"_0": "Magic value 0x20c13b0b if the signature is valid and 0x0 otherwise"
						}
					}
				},
				"version": 1
			},
			"evm": {
				"bytecode": {
					"linkReferences": {},
					"object": "60e060405260001960005534801561001657600080fd5b506040516116433803806116438339810160408190526100359161006c565b6001600160a01b03928316608052911660a05260c0526100a8565b80516001600160a01b038116811461006757600080fd5b919050565b60008060006060848603121561008157600080fd5b61008a84610050565b925061009860208501610050565b9150604084015190509250925092565b60805160a05160c05161152761011c6000396000818160ac0152610a7f0152600081816101640152818161036701528181610450015281816107de01526109ce0152600081816101bd015281816102f3015281816103db015281816104be015281816107a1015261098d01526115276000f3fe6080604052600436106100915760003560e01c80638da5cb5b11610063578063d97771421161004b578063d977714214610201578063e5e288e514610217578063f669fa631461024457005b80638da5cb5b146101ab578063a4e2d634146101df57005b80630fb5a6b41461009a5780631626ba7e146100e157806320c13b0b1461013257806338af3eed1461015257005b3661009857005b005b3480156100a657600080fd5b506100ce7f000000000000000000000000000000000000000000000000000000000000000081565b6040519081526020015b60405180910390f35b3480156100ed57600080fd5b506101016100fc36600461103f565b610264565b6040517fffffffff0000000000000000000000000000000000000000000000000000000090911681526020016100d8565b34801561013e57600080fd5b5061010161014d36600461108b565b610657565b34801561015e57600080fd5b506101867f000000000000000000000000000000000000000000000000000000000000000081565b60405173ffffffffffffffffffffffffffffffffffffffff90911681526020016100d8565b3480156101b757600080fd5b506101867f000000000000000000000000000000000000000000000000000000000000000081565b3480156101eb57600080fd5b50600054421060405190151581526020016100d8565b34801561020d57600080fd5b506100ce60005481565b34801561022357600080fd5b506102376102323660046110f7565b610787565b6040516100d891906111c4565b34801561025057600080fd5b5061009861025f3660046111de565b610975565b600081810361029f576040517fac241e1100000000000000000000000000000000000000000000000000000000815260040160405180910390fd5b6000808085856102b06001826111f7565b8181106102bf576102bf611237565b909101357fff0000000000000000000000000000000000000000000000000000000000000016915050600081900361031c577f000000000000000000000000000000000000000000000000000000000000000092504691506104bb565b7fff0000000000000000000000000000000000000000000000000000000000000081167f010000000000000000000000000000000000000000000000000000000000000003610390577f000000000000000000000000000000000000000000000000000000000000000092504691506104bb565b7fff0000000000000000000000000000000000000000000000000000000000000081167f020000000000000000000000000000000000000000000000000000000000000003610405577f00000000000000000000000000000000000000000000000000000000000000009250600091506104bb565b7fff0000000000000000000000000000000000000000000000000000000000000081167f03000000000000000000000000000000000000000000000000000000000000000361047a577f00000000000000000000000000000000000000000000000000000000000000009250600091506104bb565b8585826040517f6c1547a60000000000000000000000000000000000000000000000000000000081526004016104b2939291906112af565b60405180910390fd5b507f000000000000000000000000000000000000000000000000000000000000000073ffffffffffffffffffffffffffffffffffffffff168273ffffffffffffffffffffffffffffffffffffffff1614158015610519575060005442105b15610556576000546040517fd69e0d530000000000000000000000000000000000000000000000000000000081526004016104b291815260200190565b6040805130602082015290810187905260608101829052600090608001604080517fffffffffffffffffffffffffffffffffffffffffffffffffffffffffffffffe0818403018152919052805160209091012090506105d18184886000896105bf6001826111f7565b926105cc939291906112f5565b610b1b565b61062b57868184886000896105e76001826111f7565b926105f4939291906112f5565b6040517f4ad591080000000000000000000000000000000000000000000000000000000081526004016104b295949392919061131f565b507f1626ba7e000000000000000000000000000000000000000000000000000000009695505050505050565b6000803073ffffffffffffffffffffffffffffffffffffffff16631626ba7e8787604051610686929190611366565b6040519081900381207fffffffff0000000000000000000000000000000000000000000000000000000060e084901b1682526106c89188908890600401611376565b602060405180830381865afa1580156106e5573d6000803e3d6000fd5b505050506040513d601f19601f820116820180604052508101906107099190611399565b90507fffffffff0000000000000000000000000000000000000000000000000000000081167f1626ba7e000000000000000000000000000000000000000000000000000000001461075c5761075c6113db565b507f20c13b0b0000000000000000000000000000000000000000000000000000000095945050505050565b60603373ffffffffffffffffffffffffffffffffffffffff7f00000000000000000000000000000000000000000000000000000000000000001614610879573373ffffffffffffffffffffffffffffffffffffffff7f00000000000000000000000000000000000000000000000000000000000000001614610837576040517f245aecd30000000000000000000000000000000000000000000000000000000081523360048201526024016104b2565b600054421015610879576000546040517fd69e0d530000000000000000000000000000000000000000000000000000000081526004016104b291815260200190565b6000808673ffffffffffffffffffffffffffffffffffffffff168686866040516108a4929190611366565b60006040518083038185875af1925050503d80600081146108e1576040519150601f19603f3d011682016040523d82523d6000602084013e6108e6565b606091505b50915091508161092c5786868686846040517fbf8cfdf50000000000000000000000000000000000000000000000000000000081526004016104b295949392919061140a565b7fabc60ff1b7e86602892345b3c6bbf996122378275ce8a919881e580f7975873a878787878560405161096395949392919061140a565b60405180910390a19695505050505050565b3373ffffffffffffffffffffffffffffffffffffffff7f000000000000000000000000000000000000000000000000000000000000000016148015906109f157503373ffffffffffffffffffffffffffffffffffffffff7f00000000000000000000000000000000000000000000000000000000000000001614155b15610a2a576040517f245aecd30000000000000000000000000000000000000000000000000000000081523360048201526024016104b2565b600080610a374284610d02565b915091508115610a7d576040517f4abceb3400000000000000000000000000000000000000000000000000000000815260048101849052602481018290526044016104b2565b7f0000000000000000000000000000000000000000000000000000000000000000811015610ae1576040517f74ae1ce600000000000000000000000000000000000000000000000000000000815260048101849052602481018290526044016104b2565b6040518381527fa9746ae027b7ef47c63b1f52298f217c87f5301bc6995023e74608efa725cfa09060200160405180910390a15050600055565b6000818103610b56576040517fac241e1100000000000000000000000000000000000000000000000000000000815260040160405180910390fd5b60008383610b656001826111f7565b818110610b7457610b74611237565b919091013560f81c9150506001811480610b8e5750600281145b15610bd3578473ffffffffffffffffffffffffffffffffffffffff16610bb5878686610d3a565b73ffffffffffffffffffffffffffffffffffffffff16149150610cf9565b60038103610cbe5773ffffffffffffffffffffffffffffffffffffffff8516631626ba7e8786600087610c076001826111f7565b92610c14939291906112f5565b6040518463ffffffff1660e01b8152600401610c3293929190611376565b602060405180830381865afa158015610c4f573d6000803e3d6000fd5b505050506040513d601f19601f82011682018060405250810190610c739190611399565b7fffffffff00000000000000000000000000000000000000000000000000000000167f1626ba7e00000000000000000000000000000000000000000000000000000000149150610cf9565b83838260006040517f9dfba8520000000000000000000000000000000000000000000000000000000081526004016104b2949392919061145e565b50949350505050565b60008082841115610d22576001610d1984866111f7565b91509150610d33565b6000610d2e85856111f7565b915091505b9250929050565b600060428214610d7a5782826040517f2ee17a3d0000000000000000000000000000000000000000000000000000000081526004016104b292919061148a565b6000610d93610d8a6001856111f7565b85013560f81c90565b60ff169050604084013560f81c843560208601357f7fffffffffffffffffffffffffffffff5d576e7357a4501ddfe92f46681b20a0811115610e07578686826040517fad4aac760000000000000000000000000000000000000000000000000000000081526004016104b2939291906114a6565b8260ff16601b14158015610e1f57508260ff16601c14155b15610e5c578686846040517fe578897e0000000000000000000000000000000000000000000000000000000081526004016104b2939291906114ca565b60018403610ec9576040805160008152602081018083528a905260ff851691810191909152606081018390526080810182905260019060a0015b6020604051602081039080840390855afa158015610eb8573d6000803e3d6000fd5b505050602060405103519450610fa1565b60028403610f66576040517f19457468657265756d205369676e6564204d6573736167653a0a3332000000006020820152603c8101899052600190605c01604080517fffffffffffffffffffffffffffffffffffffffffffffffffffffffffffffffe08184030181528282528051602091820120600084529083018083525260ff861690820152606081018490526080810183905260a001610e96565b86868560016040517f9dfba8520000000000000000000000000000000000000000000000000000000081526004016104b2949392919061145e565b73ffffffffffffffffffffffffffffffffffffffff8516610ff25786866040517f6c1719d20000000000000000000000000000000000000000000000000000000081526004016104b292919061148a565b505050509392505050565b60008083601f84011261100f57600080fd5b50813567ffffffffffffffff81111561102757600080fd5b602083019150836020828501011115610d3357600080fd5b60008060006040848603121561105457600080fd5b83359250602084013567ffffffffffffffff81111561107257600080fd5b61107e86828701610ffd565b9497909650939450505050565b600080600080604085870312156110a157600080fd5b843567ffffffffffffffff808211156110b957600080fd5b6110c588838901610ffd565b909650945060208701359150808211156110de57600080fd5b506110eb87828801610ffd565b95989497509550505050565b6000806000806060858703121561110d57600080fd5b843573ffffffffffffffffffffffffffffffffffffffff8116811461113157600080fd5b935060208501359250604085013567ffffffffffffffff81111561115457600080fd5b6110eb87828801610ffd565b6000815180845260005b818110156111865760208185018101518683018201520161116a565b5060006020828601015260207fffffffffffffffffffffffffffffffffffffffffffffffffffffffffffffffe0601f83011685010191505092915050565b6020815260006111d76020830184611160565b9392505050565b6000602082840312156111f057600080fd5b5035919050565b81810381811115611231577f4e487b7100000000000000000000000000000000000000000000000000000000600052601160045260246000fd5b92915050565b7f4e487b7100000000000000000000000000000000000000000000000000000000600052603260045260246000fd5b8183528181602085013750600060208284010152600060207fffffffffffffffffffffffffffffffffffffffffffffffffffffffffffffffe0601f840116840101905092915050565b6040815260006112c3604083018587611266565b90507fff0000000000000000000000000000000000000000000000000000000000000083166020830152949350505050565b6000808585111561130557600080fd5b8386111561131257600080fd5b5050820193919092039150565b85815284602082015273ffffffffffffffffffffffffffffffffffffffff8416604082015260806060820152600061135b608083018486611266565b979650505050505050565b8183823760009101908152919050565b838152604060208201526000611390604083018486611266565b95945050505050565b6000602082840312156113ab57600080fd5b81517fffffffff00000000000000000000000000000000000000000000000000000000811681146111d757600080fd5b7f4e487b7100000000000000000000000000000000000000000000000000000000600052600160045260246000fd5b73ffffffffffffffffffffffffffffffffffffffff86168152846020820152608060408201526000611440608083018587611266565b82810360608401526114528185611160565b98975050505050505050565b606081526000611472606083018688611266565b60208301949094525090151560409091015292915050565b60208152600061149e602083018486611266565b949350505050565b6040815260006114ba604083018587611266565b9050826020830152949350505050565b6040815260006114de604083018587611266565b905060ff8316602083015294935050505056fea26469706673582212207e10951cc8784967e11fe46015840b940a1127aab0a54dc9a28a98c2e327b5c564736f6c63430008120033",
					"opcodes": "PUSH1 0xE0 PUSH1 0x40 MSTORE PUSH1 0x0 NOT PUSH1 0x0 SSTORE CALLVALUE DUP1 ISZERO PUSH2 0x16 JUMPI PUSH1 0x0 DUP1 REVERT JUMPDEST POP PUSH1 0x40 MLOAD PUSH2 0x1643 CODESIZE SUB DUP1 PUSH2 0x1643 DUP4 CODECOPY DUP2 ADD PUSH1 0x40 DUP2 SWAP1 MSTORE PUSH2 0x35 SWAP2 PUSH2 0x6C JUMP JUMPDEST PUSH1 0x1 PUSH1 0x1 PUSH1 0xA0 SHL SUB SWAP3 DUP4 AND PUSH1 0x80 MSTORE SWAP2 AND PUSH1 0xA0 MSTORE PUSH1 0xC0 MSTORE PUSH2 0xA8 JUMP JUMPDEST DUP1 MLOAD PUSH1 0x1 PUSH1 0x1 PUSH1 0xA0 SHL SUB DUP2 AND DUP2 EQ PUSH2 0x67 JUMPI PUSH1 0x0 DUP1 REVERT JUMPDEST SWAP2 SWAP1 POP JUMP JUMPDEST PUSH1 0x0 DUP1 PUSH1 0x0 PUSH1 0x60 DUP5 DUP7 SUB SLT ISZERO PUSH2 0x81 JUMPI PUSH1 0x0 DUP1 REVERT JUMPDEST PUSH2 0x8A DUP5 PUSH2 0x50 JUMP JUMPDEST SWAP3 POP PUSH2 0x98 PUSH1 0x20 DUP6 ADD PUSH2 0x50 JUMP JUMPDEST SWAP2 POP PUSH1 0x40 DUP5 ADD MLOAD SWAP1 POP SWAP3 POP SWAP3 POP SWAP3 JUMP JUMPDEST PUSH1 0x80 MLOAD PUSH1 0xA0 MLOAD PUSH1 0xC0 MLOAD PUSH2 0x1527 PUSH2 0x11C PUSH1 0x0 CODECOPY PUSH1 0x0 DUP2 DUP2 PUSH1 0xAC ADD MSTORE PUSH2 0xA7F ADD MSTORE PUSH1 0x0 DUP2 DUP2 PUSH2 0x164 ADD MSTORE DUP2 DUP2 PUSH2 0x367 ADD MSTORE DUP2 DUP2 PUSH2 0x450 ADD MSTORE DUP2 DUP2 PUSH2 0x7DE ADD MSTORE PUSH2 0x9CE ADD MSTORE PUSH1 0x0 DUP2 DUP2 PUSH2 0x1BD ADD MSTORE DUP2 DUP2 PUSH2 0x2F3 ADD MSTORE DUP2 DUP2 PUSH2 0x3DB ADD MSTORE DUP2 DUP2 PUSH2 0x4BE ADD MSTORE DUP2 DUP2 PUSH2 0x7A1 ADD MSTORE PUSH2 0x98D ADD MSTORE PUSH2 0x1527 PUSH1 0x0 RETURN INVALID PUSH1 0x80 PUSH1 0x40 MSTORE PUSH1 0x4 CALLDATASIZE LT PUSH2 0x91 JUMPI PUSH1 0x0 CALLDATALOAD PUSH1 0xE0 SHR DUP1 PUSH4 0x8DA5CB5B GT PUSH2 0x63 JUMPI DUP1 PUSH4 0xD9777142 GT PUSH2 0x4B JUMPI DUP1 PUSH4 0xD9777142 EQ PUSH2 0x201 JUMPI DUP1 PUSH4 0xE5E288E5 EQ PUSH2 0x217 JUMPI DUP1 PUSH4 0xF669FA63 EQ PUSH2 0x244 JUMPI STOP JUMPDEST DUP1 PUSH4 0x8DA5CB5B EQ PUSH2 0x1AB JUMPI DUP1 PUSH4 0xA4E2D634 EQ PUSH2 0x1DF JUMPI STOP JUMPDEST DUP1 PUSH4 0xFB5A6B4 EQ PUSH2 0x9A JUMPI DUP1 PUSH4 0x1626BA7E EQ PUSH2 0xE1 JUMPI DUP1 PUSH4 0x20C13B0B EQ PUSH2 0x132 JUMPI DUP1 PUSH4 0x38AF3EED EQ PUSH2 0x152 JUMPI STOP JUMPDEST CALLDATASIZE PUSH2 0x98 JUMPI STOP JUMPDEST STOP JUMPDEST CALLVALUE DUP1 ISZERO PUSH2 0xA6 JUMPI PUSH1 0x0 DUP1 REVERT JUMPDEST POP PUSH2 0xCE PUSH32 0x0 DUP2 JUMP JUMPDEST PUSH1 0x40 MLOAD SWAP1 DUP2 MSTORE PUSH1 0x20 ADD JUMPDEST PUSH1 0x40 MLOAD DUP1 SWAP2 SUB SWAP1 RETURN JUMPDEST CALLVALUE DUP1 ISZERO PUSH2 0xED JUMPI PUSH1 0x0 DUP1 REVERT JUMPDEST POP PUSH2 0x101 PUSH2 0xFC CALLDATASIZE PUSH1 0x4 PUSH2 0x103F JUMP JUMPDEST PUSH2 0x264 JUMP JUMPDEST PUSH1 0x40 MLOAD PUSH32 0xFFFFFFFF00000000000000000000000000000000000000000000000000000000 SWAP1 SWAP2 AND DUP2 MSTORE PUSH1 0x20 ADD PUSH2 0xD8 JUMP JUMPDEST CALLVALUE DUP1 ISZERO PUSH2 0x13E JUMPI PUSH1 0x0 DUP1 REVERT JUMPDEST POP PUSH2 0x101 PUSH2 0x14D CALLDATASIZE PUSH1 0x4 PUSH2 0x108B JUMP JUMPDEST PUSH2 0x657 JUMP JUMPDEST CALLVALUE DUP1 ISZERO PUSH2 0x15E JUMPI PUSH1 0x0 DUP1 REVERT JUMPDEST POP PUSH2 0x186 PUSH32 0x0 DUP2 JUMP JUMPDEST PUSH1 0x40 MLOAD PUSH20 0xFFFFFFFFFFFFFFFFFFFFFFFFFFFFFFFFFFFFFFFF SWAP1 SWAP2 AND DUP2 MSTORE PUSH1 0x20 ADD PUSH2 0xD8 JUMP JUMPDEST CALLVALUE DUP1 ISZERO PUSH2 0x1B7 JUMPI PUSH1 0x0 DUP1 REVERT JUMPDEST POP PUSH2 0x186 PUSH32 0x0 DUP2 JUMP JUMPDEST CALLVALUE DUP1 ISZERO PUSH2 0x1EB JUMPI PUSH1 0x0 DUP1 REVERT JUMPDEST POP PUSH1 0x0 SLOAD TIMESTAMP LT PUSH1 0x40 MLOAD SWAP1 ISZERO ISZERO DUP2 MSTORE PUSH1 0x20 ADD PUSH2 0xD8 JUMP JUMPDEST CALLVALUE DUP1 ISZERO PUSH2 0x20D JUMPI PUSH1 0x0 DUP1 REVERT JUMPDEST POP PUSH2 0xCE PUSH1 0x0 SLOAD DUP2 JUMP JUMPDEST CALLVALUE DUP1 ISZERO PUSH2 0x223 JUMPI PUSH1 0x0 DUP1 REVERT JUMPDEST POP PUSH2 0x237 PUSH2 0x232 CALLDATASIZE PUSH1 0x4 PUSH2 0x10F7 JUMP JUMPDEST PUSH2 0x787 JUMP JUMPDEST PUSH1 0x40 MLOAD PUSH2 0xD8 SWAP2 SWAP1 PUSH2 0x11C4 JUMP JUMPDEST CALLVALUE DUP1 ISZERO PUSH2 0x250 JUMPI PUSH1 0x0 DUP1 REVERT JUMPDEST POP PUSH2 0x98 PUSH2 0x25F CALLDATASIZE PUSH1 0x4 PUSH2 0x11DE JUMP JUMPDEST PUSH2 0x975 JUMP JUMPDEST PUSH1 0x0 DUP2 DUP2 SUB PUSH2 0x29F JUMPI PUSH1 0x40 MLOAD PUSH32 0xAC241E1100000000000000000000000000000000000000000000000000000000 DUP2 MSTORE PUSH1 0x4 ADD PUSH1 0x40 MLOAD DUP1 SWAP2 SUB SWAP1 REVERT JUMPDEST PUSH1 0x0 DUP1 DUP1 DUP6 DUP6 PUSH2 0x2B0 PUSH1 0x1 DUP3 PUSH2 0x11F7 JUMP JUMPDEST DUP2 DUP2 LT PUSH2 0x2BF JUMPI PUSH2 0x2BF PUSH2 0x1237 JUMP JUMPDEST SWAP1 SWAP2 ADD CALLDATALOAD PUSH32 0xFF00000000000000000000000000000000000000000000000000000000000000 AND SWAP2 POP POP PUSH1 0x0 DUP2 SWAP1 SUB PUSH2 0x31C JUMPI PUSH32 0x0 SWAP3 POP CHAINID SWAP2 POP PUSH2 0x4BB JUMP JUMPDEST PUSH32 0xFF00000000000000000000000000000000000000000000000000000000000000 DUP2 AND PUSH32 0x100000000000000000000000000000000000000000000000000000000000000 SUB PUSH2 0x390 JUMPI PUSH32 0x0 SWAP3 POP CHAINID SWAP2 POP PUSH2 0x4BB JUMP JUMPDEST PUSH32 0xFF00000000000000000000000000000000000000000000000000000000000000 DUP2 AND PUSH32 0x200000000000000000000000000000000000000000000000000000000000000 SUB PUSH2 0x405 JUMPI PUSH32 0x0 SWAP3 POP PUSH1 0x0 SWAP2 POP PUSH2 0x4BB JUMP JUMPDEST PUSH32 0xFF00000000000000000000000000000000000000000000000000000000000000 DUP2 AND PUSH32 0x300000000000000000000000000000000000000000000000000000000000000 SUB PUSH2 0x47A JUMPI PUSH32 0x0 SWAP3 POP PUSH1 0x0 SWAP2 POP PUSH2 0x4BB JUMP JUMPDEST DUP6 DUP6 DUP3 PUSH1 0x40 MLOAD PUSH32 0x6C1547A600000000000000000000000000000000000000000000000000000000 DUP2 MSTORE PUSH1 0x4 ADD PUSH2 0x4B2 SWAP4 SWAP3 SWAP2 SWAP1 PUSH2 0x12AF JUMP JUMPDEST PUSH1 0x40 MLOAD DUP1 SWAP2 SUB SWAP1 REVERT JUMPDEST POP PUSH32 0x0 PUSH20 0xFFFFFFFFFFFFFFFFFFFFFFFFFFFFFFFFFFFFFFFF AND DUP3 PUSH20 0xFFFFFFFFFFFFFFFFFFFFFFFFFFFFFFFFFFFFFFFF AND EQ ISZERO DUP1 ISZERO PUSH2 0x519 JUMPI POP PUSH1 0x0 SLOAD TIMESTAMP LT JUMPDEST ISZERO PUSH2 0x556 JUMPI PUSH1 0x0 SLOAD PUSH1 0x40 MLOAD PUSH32 0xD69E0D5300000000000000000000000000000000000000000000000000000000 DUP2 MSTORE PUSH1 0x4 ADD PUSH2 0x4B2 SWAP2 DUP2 MSTORE PUSH1 0x20 ADD SWAP1 JUMP JUMPDEST PUSH1 0x40 DUP1 MLOAD ADDRESS PUSH1 0x20 DUP3 ADD MSTORE SWAP1 DUP2 ADD DUP8 SWAP1 MSTORE PUSH1 0x60 DUP2 ADD DUP3 SWAP1 MSTORE PUSH1 0x0 SWAP1 PUSH1 0x80 ADD PUSH1 0x40 DUP1 MLOAD PUSH32 0xFFFFFFFFFFFFFFFFFFFFFFFFFFFFFFFFFFFFFFFFFFFFFFFFFFFFFFFFFFFFFFE0 DUP2 DUP5 SUB ADD DUP2 MSTORE SWAP2 SWAP1 MSTORE DUP1 MLOAD PUSH1 0x20 SWAP1 SWAP2 ADD KECCAK256 SWAP1 POP PUSH2 0x5D1 DUP2 DUP5 DUP9 PUSH1 0x0 DUP10 PUSH2 0x5BF PUSH1 0x1 DUP3 PUSH2 0x11F7 JUMP JUMPDEST SWAP3 PUSH2 0x5CC SWAP4 SWAP3 SWAP2 SWAP1 PUSH2 0x12F5 JUMP JUMPDEST PUSH2 0xB1B JUMP JUMPDEST PUSH2 0x62B JUMPI DUP7 DUP2 DUP5 DUP9 PUSH1 0x0 DUP10 PUSH2 0x5E7 PUSH1 0x1 DUP3 PUSH2 0x11F7 JUMP JUMPDEST SWAP3 PUSH2 0x5F4 SWAP4 SWAP3 SWAP2 SWAP1 PUSH2 0x12F5 JUMP JUMPDEST PUSH1 0x40 MLOAD PUSH32 0x4AD5910800000000000000000000000000000000000000000000000000000000 DUP2 MSTORE PUSH1 0x4 ADD PUSH2 0x4B2 SWAP6 SWAP5 SWAP4 SWAP3 SWAP2 SWAP1 PUSH2 0x131F JUMP JUMPDEST POP PUSH32 0x1626BA7E00000000000000000000000000000000000000000000000000000000 SWAP7 SWAP6 POP POP POP POP POP POP JUMP JUMPDEST PUSH1 0x0 DUP1 ADDRESS PUSH20 0xFFFFFFFFFFFFFFFFFFFFFFFFFFFFFFFFFFFFFFFF AND PUSH4 0x1626BA7E DUP8 DUP8 PUSH1 0x40 MLOAD PUSH2 0x686 SWAP3 SWAP2 SWAP1 PUSH2 0x1366 JUMP JUMPDEST PUSH1 0x40 MLOAD SWAP1 DUP2 SWAP1 SUB DUP2 KECCAK256 PUSH32 0xFFFFFFFF00000000000000000000000000000000000000000000000000000000 PUSH1 0xE0 DUP5 SWAP1 SHL AND DUP3 MSTORE PUSH2 0x6C8 SWAP2 DUP9 SWAP1 DUP9 SWAP1 PUSH1 0x4 ADD PUSH2 0x1376 JUMP JUMPDEST PUSH1 0x20 PUSH1 0x40 MLOAD DUP1 DUP4 SUB DUP2 DUP7 GAS STATICCALL ISZERO DUP1 ISZERO PUSH2 0x6E5 JUMPI RETURNDATASIZE PUSH1 0x0 DUP1 RETURNDATACOPY RETURNDATASIZE PUSH1 0x0 REVERT JUMPDEST POP POP POP POP PUSH1 0x40 MLOAD RETURNDATASIZE PUSH1 0x1F NOT PUSH1 0x1F DUP3 ADD AND DUP3 ADD DUP1 PUSH1 0x40 MSTORE POP DUP2 ADD SWAP1 PUSH2 0x709 SWAP2 SWAP1 PUSH2 0x1399 JUMP JUMPDEST SWAP1 POP PUSH32 0xFFFFFFFF00000000000000000000000000000000000000000000000000000000 DUP2 AND PUSH32 0x1626BA7E00000000000000000000000000000000000000000000000000000000 EQ PUSH2 0x75C JUMPI PUSH2 0x75C PUSH2 0x13DB JUMP JUMPDEST POP PUSH32 0x20C13B0B00000000000000000000000000000000000000000000000000000000 SWAP6 SWAP5 POP POP POP POP POP JUMP JUMPDEST PUSH1 0x60 CALLER PUSH20 0xFFFFFFFFFFFFFFFFFFFFFFFFFFFFFFFFFFFFFFFF PUSH32 0x0 AND EQ PUSH2 0x879 JUMPI CALLER PUSH20 0xFFFFFFFFFFFFFFFFFFFFFFFFFFFFFFFFFFFFFFFF PUSH32 0x0 AND EQ PUSH2 0x837 JUMPI PUSH1 0x40 MLOAD PUSH32 0x245AECD300000000000000000000000000000000000000000000000000000000 DUP2 MSTORE CALLER PUSH1 0x4 DUP3 ADD MSTORE PUSH1 0x24 ADD PUSH2 0x4B2 JUMP JUMPDEST PUSH1 0x0 SLOAD TIMESTAMP LT ISZERO PUSH2 0x879 JUMPI PUSH1 0x0 SLOAD PUSH1 0x40 MLOAD PUSH32 0xD69E0D5300000000000000000000000000000000000000000000000000000000 DUP2 MSTORE PUSH1 0x4 ADD PUSH2 0x4B2 SWAP2 DUP2 MSTORE PUSH1 0x20 ADD SWAP1 JUMP JUMPDEST PUSH1 0x0 DUP1 DUP7 PUSH20 0xFFFFFFFFFFFFFFFFFFFFFFFFFFFFFFFFFFFFFFFF AND DUP7 DUP7 DUP7 PUSH1 0x40 MLOAD PUSH2 0x8A4 SWAP3 SWAP2 SWAP1 PUSH2 0x1366 JUMP JUMPDEST PUSH1 0x0 PUSH1 0x40 MLOAD DUP1 DUP4 SUB DUP2 DUP6 DUP8 GAS CALL SWAP3 POP POP POP RETURNDATASIZE DUP1 PUSH1 0x0 DUP2 EQ PUSH2 0x8E1 JUMPI PUSH1 0x40 MLOAD SWAP2 POP PUSH1 0x1F NOT PUSH1 0x3F RETURNDATASIZE ADD AND DUP3 ADD PUSH1 0x40 MSTORE RETURNDATASIZE DUP3 MSTORE RETURNDATASIZE PUSH1 0x0 PUSH1 0x20 DUP5 ADD RETURNDATACOPY PUSH2 0x8E6 JUMP JUMPDEST PUSH1 0x60 SWAP2 POP JUMPDEST POP SWAP2 POP SWAP2 POP DUP2 PUSH2 0x92C JUMPI DUP7 DUP7 DUP7 DUP7 DUP5 PUSH1 0x40 MLOAD PUSH32 0xBF8CFDF500000000000000000000000000000000000000000000000000000000 DUP2 MSTORE PUSH1 0x4 ADD PUSH2 0x4B2 SWAP6 SWAP5 SWAP4 SWAP3 SWAP2 SWAP1 PUSH2 0x140A JUMP JUMPDEST PUSH32 0xABC60FF1B7E86602892345B3C6BBF996122378275CE8A919881E580F7975873A DUP8 DUP8 DUP8 DUP8 DUP6 PUSH1 0x40 MLOAD PUSH2 0x963 SWAP6 SWAP5 SWAP4 SWAP3 SWAP2 SWAP1 PUSH2 0x140A JUMP JUMPDEST PUSH1 0x40 MLOAD DUP1 SWAP2 SUB SWAP1 LOG1 SWAP7 SWAP6 POP POP POP POP POP POP JUMP JUMPDEST CALLER PUSH20 0xFFFFFFFFFFFFFFFFFFFFFFFFFFFFFFFFFFFFFFFF PUSH32 0x0 AND EQ DUP1 ISZERO SWAP1 PUSH2 0x9F1 JUMPI POP CALLER PUSH20 0xFFFFFFFFFFFFFFFFFFFFFFFFFFFFFFFFFFFFFFFF PUSH32 0x0 AND EQ ISZERO JUMPDEST ISZERO PUSH2 0xA2A JUMPI PUSH1 0x40 MLOAD PUSH32 0x245AECD300000000000000000000000000000000000000000000000000000000 DUP2 MSTORE CALLER PUSH1 0x4 DUP3 ADD MSTORE PUSH1 0x24 ADD PUSH2 0x4B2 JUMP JUMPDEST PUSH1 0x0 DUP1 PUSH2 0xA37 TIMESTAMP DUP5 PUSH2 0xD02 JUMP JUMPDEST SWAP2 POP SWAP2 POP DUP2 ISZERO PUSH2 0xA7D JUMPI PUSH1 0x40 MLOAD PUSH32 0x4ABCEB3400000000000000000000000000000000000000000000000000000000 DUP2 MSTORE PUSH1 0x4 DUP2 ADD DUP5 SWAP1 MSTORE PUSH1 0x24 DUP2 ADD DUP3 SWAP1 MSTORE PUSH1 0x44 ADD PUSH2 0x4B2 JUMP JUMPDEST PUSH32 0x0 DUP2 LT ISZERO PUSH2 0xAE1 JUMPI PUSH1 0x40 MLOAD PUSH32 0x74AE1CE600000000000000000000000000000000000000000000000000000000 DUP2 MSTORE PUSH1 0x4 DUP2 ADD DUP5 SWAP1 MSTORE PUSH1 0x24 DUP2 ADD DUP3 SWAP1 MSTORE PUSH1 0x44 ADD PUSH2 0x4B2 JUMP JUMPDEST PUSH1 0x40 MLOAD DUP4 DUP2 MSTORE PUSH32 0xA9746AE027B7EF47C63B1F52298F217C87F5301BC6995023E74608EFA725CFA0 SWAP1 PUSH1 0x20 ADD PUSH1 0x40 MLOAD DUP1 SWAP2 SUB SWAP1 LOG1 POP POP PUSH1 0x0 SSTORE JUMP JUMPDEST PUSH1 0x0 DUP2 DUP2 SUB PUSH2 0xB56 JUMPI PUSH1 0x40 MLOAD PUSH32 0xAC241E1100000000000000000000000000000000000000000000000000000000 DUP2 MSTORE PUSH1 0x4 ADD PUSH1 0x40 MLOAD DUP1 SWAP2 SUB SWAP1 REVERT JUMPDEST PUSH1 0x0 DUP4 DUP4 PUSH2 0xB65 PUSH1 0x1 DUP3 PUSH2 0x11F7 JUMP JUMPDEST DUP2 DUP2 LT PUSH2 0xB74 JUMPI PUSH2 0xB74 PUSH2 0x1237 JUMP JUMPDEST SWAP2 SWAP1 SWAP2 ADD CALLDATALOAD PUSH1 0xF8 SHR SWAP2 POP POP PUSH1 0x1 DUP2 EQ DUP1 PUSH2 0xB8E JUMPI POP PUSH1 0x2 DUP2 EQ JUMPDEST ISZERO PUSH2 0xBD3 JUMPI DUP5 PUSH20 0xFFFFFFFFFFFFFFFFFFFFFFFFFFFFFFFFFFFFFFFF AND PUSH2 0xBB5 DUP8 DUP7 DUP7 PUSH2 0xD3A JUMP JUMPDEST PUSH20 0xFFFFFFFFFFFFFFFFFFFFFFFFFFFFFFFFFFFFFFFF AND EQ SWAP2 POP PUSH2 0xCF9 JUMP JUMPDEST PUSH1 0x3 DUP2 SUB PUSH2 0xCBE JUMPI PUSH20 0xFFFFFFFFFFFFFFFFFFFFFFFFFFFFFFFFFFFFFFFF DUP6 AND PUSH4 0x1626BA7E DUP8 DUP7 PUSH1 0x0 DUP8 PUSH2 0xC07 PUSH1 0x1 DUP3 PUSH2 0x11F7 JUMP JUMPDEST SWAP3 PUSH2 0xC14 SWAP4 SWAP3 SWAP2 SWAP1 PUSH2 0x12F5 JUMP JUMPDEST PUSH1 0x40 MLOAD DUP5 PUSH4 0xFFFFFFFF AND PUSH1 0xE0 SHL DUP2 MSTORE PUSH1 0x4 ADD PUSH2 0xC32 SWAP4 SWAP3 SWAP2 SWAP1 PUSH2 0x1376 JUMP JUMPDEST PUSH1 0x20 PUSH1 0x40 MLOAD DUP1 DUP4 SUB DUP2 DUP7 GAS STATICCALL ISZERO DUP1 ISZERO PUSH2 0xC4F JUMPI RETURNDATASIZE PUSH1 0x0 DUP1 RETURNDATACOPY RETURNDATASIZE PUSH1 0x0 REVERT JUMPDEST POP POP POP POP PUSH1 0x40 MLOAD RETURNDATASIZE PUSH1 0x1F NOT PUSH1 0x1F DUP3 ADD AND DUP3 ADD DUP1 PUSH1 0x40 MSTORE POP DUP2 ADD SWAP1 PUSH2 0xC73 SWAP2 SWAP1 PUSH2 0x1399 JUMP JUMPDEST PUSH32 0xFFFFFFFF00000000000000000000000000000000000000000000000000000000 AND PUSH32 0x1626BA7E00000000000000000000000000000000000000000000000000000000 EQ SWAP2 POP PUSH2 0xCF9 JUMP JUMPDEST DUP4 DUP4 DUP3 PUSH1 0x0 PUSH1 0x40 MLOAD PUSH32 0x9DFBA85200000000000000000000000000000000000000000000000000000000 DUP2 MSTORE PUSH1 0x4 ADD PUSH2 0x4B2 SWAP5 SWAP4 SWAP3 SWAP2 SWAP1 PUSH2 0x145E JUMP JUMPDEST POP SWAP5 SWAP4 POP POP POP POP JUMP JUMPDEST PUSH1 0x0 DUP1 DUP3 DUP5 GT ISZERO PUSH2 0xD22 JUMPI PUSH1 0x1 PUSH2 0xD19 DUP5 DUP7 PUSH2 0x11F7 JUMP JUMPDEST SWAP2 POP SWAP2 POP PUSH2 0xD33 JUMP JUMPDEST PUSH1 0x0 PUSH2 0xD2E DUP6 DUP6 PUSH2 0x11F7 JUMP JUMPDEST SWAP2 POP SWAP2 POP JUMPDEST SWAP3 POP SWAP3 SWAP1 POP JUMP JUMPDEST PUSH1 0x0 PUSH1 0x42 DUP3 EQ PUSH2 0xD7A JUMPI DUP3 DUP3 PUSH1 0x40 MLOAD PUSH32 0x2EE17A3D00000000000000000000000000000000000000000000000000000000 DUP2 MSTORE PUSH1 0x4 ADD PUSH2 0x4B2 SWAP3 SWAP2 SWAP1 PUSH2 0x148A JUMP JUMPDEST PUSH1 0x0 PUSH2 0xD93 PUSH2 0xD8A PUSH1 0x1 DUP6 PUSH2 0x11F7 JUMP JUMPDEST DUP6 ADD CALLDATALOAD PUSH1 0xF8 SHR SWAP1 JUMP JUMPDEST PUSH1 0xFF AND SWAP1 POP PUSH1 0x40 DUP5 ADD CALLDATALOAD PUSH1 0xF8 SHR DUP5 CALLDATALOAD PUSH1 0x20 DUP7 ADD CALLDATALOAD PUSH32 0x7FFFFFFFFFFFFFFFFFFFFFFFFFFFFFFF5D576E7357A4501DDFE92F46681B20A0 DUP2 GT ISZERO PUSH2 0xE07 JUMPI DUP7 DUP7 DUP3 PUSH1 0x40 MLOAD PUSH32 0xAD4AAC7600000000000000000000000000000000000000000000000000000000 DUP2 MSTORE PUSH1 0x4 ADD PUSH2 0x4B2 SWAP4 SWAP3 SWAP2 SWAP1 PUSH2 0x14A6 JUMP JUMPDEST DUP3 PUSH1 0xFF AND PUSH1 0x1B EQ ISZERO DUP1 ISZERO PUSH2 0xE1F JUMPI POP DUP3 PUSH1 0xFF AND PUSH1 0x1C EQ ISZERO JUMPDEST ISZERO PUSH2 0xE5C JUMPI DUP7 DUP7 DUP5 PUSH1 0x40 MLOAD PUSH32 0xE578897E00000000000000000000000000000000000000000000000000000000 DUP2 MSTORE PUSH1 0x4 ADD PUSH2 0x4B2 SWAP4 SWAP3 SWAP2 SWAP1 PUSH2 0x14CA JUMP JUMPDEST PUSH1 0x1 DUP5 SUB PUSH2 0xEC9 JUMPI PUSH1 0x40 DUP1 MLOAD PUSH1 0x0 DUP2 MSTORE PUSH1 0x20 DUP2 ADD DUP1 DUP4 MSTORE DUP11 SWAP1 MSTORE PUSH1 0xFF DUP6 AND SWAP2 DUP2 ADD SWAP2 SWAP1 SWAP2 MSTORE PUSH1 0x60 DUP2 ADD DUP4 SWAP1 MSTORE PUSH1 0x80 DUP2 ADD DUP3 SWAP1 MSTORE PUSH1 0x1 SWAP1 PUSH1 0xA0 ADD JUMPDEST PUSH1 0x20 PUSH1 0x40 MLOAD PUSH1 0x20 DUP2 SUB SWAP1 DUP1 DUP5 SUB SWAP1 DUP6 GAS STATICCALL ISZERO DUP1 ISZERO PUSH2 0xEB8 JUMPI RETURNDATASIZE PUSH1 0x0 DUP1 RETURNDATACOPY RETURNDATASIZE PUSH1 0x0 REVERT JUMPDEST POP POP POP PUSH1 0x20 PUSH1 0x40 MLOAD SUB MLOAD SWAP5 POP PUSH2 0xFA1 JUMP JUMPDEST PUSH1 0x2 DUP5 SUB PUSH2 0xF66 JUMPI PUSH1 0x40 MLOAD PUSH32 0x19457468657265756D205369676E6564204D6573736167653A0A333200000000 PUSH1 0x20 DUP3 ADD MSTORE PUSH1 0x3C DUP2 ADD DUP10 SWAP1 MSTORE PUSH1 0x1 SWAP1 PUSH1 0x5C ADD PUSH1 0x40 DUP1 MLOAD PUSH32 0xFFFFFFFFFFFFFFFFFFFFFFFFFFFFFFFFFFFFFFFFFFFFFFFFFFFFFFFFFFFFFFE0 DUP2 DUP5 SUB ADD DUP2 MSTORE DUP3 DUP3 MSTORE DUP1 MLOAD PUSH1 0x20 SWAP2 DUP3 ADD KECCAK256 PUSH1 0x0 DUP5 MSTORE SWAP1 DUP4 ADD DUP1 DUP4 MSTORE MSTORE PUSH1 0xFF DUP7 AND SWAP1 DUP3 ADD MSTORE PUSH1 0x60 DUP2 ADD DUP5 SWAP1 MSTORE PUSH1 0x80 DUP2 ADD DUP4 SWAP1 MSTORE PUSH1 0xA0 ADD PUSH2 0xE96 JUMP JUMPDEST DUP7 DUP7 DUP6 PUSH1 0x1 PUSH1 0x40 MLOAD PUSH32 0x9DFBA85200000000000000000000000000000000000000000000000000000000 DUP2 MSTORE PUSH1 0x4 ADD PUSH2 0x4B2 SWAP5 SWAP4 SWAP3 SWAP2 SWAP1 PUSH2 0x145E JUMP JUMPDEST PUSH20 0xFFFFFFFFFFFFFFFFFFFFFFFFFFFFFFFFFFFFFFFF DUP6 AND PUSH2 0xFF2 JUMPI DUP7 DUP7 PUSH1 0x40 MLOAD PUSH32 0x6C1719D200000000000000000000000000000000000000000000000000000000 DUP2 MSTORE PUSH1 0x4 ADD PUSH2 0x4B2 SWAP3 SWAP2 SWAP1 PUSH2 0x148A JUMP JUMPDEST POP POP POP POP SWAP4 SWAP3 POP POP POP JUMP JUMPDEST PUSH1 0x0 DUP1 DUP4 PUSH1 0x1F DUP5 ADD SLT PUSH2 0x100F JUMPI PUSH1 0x0 DUP1 REVERT JUMPDEST POP DUP2 CALLDATALOAD PUSH8 0xFFFFFFFFFFFFFFFF DUP2 GT ISZERO PUSH2 0x1027 JUMPI PUSH1 0x0 DUP1 REVERT JUMPDEST PUSH1 0x20 DUP4 ADD SWAP2 POP DUP4 PUSH1 0x20 DUP3 DUP6 ADD ADD GT ISZERO PUSH2 0xD33 JUMPI PUSH1 0x0 DUP1 REVERT JUMPDEST PUSH1 0x0 DUP1 PUSH1 0x0 PUSH1 0x40 DUP5 DUP7 SUB SLT ISZERO PUSH2 0x1054 JUMPI PUSH1 0x0 DUP1 REVERT JUMPDEST DUP4 CALLDATALOAD SWAP3 POP PUSH1 0x20 DUP5 ADD CALLDATALOAD PUSH8 0xFFFFFFFFFFFFFFFF DUP2 GT ISZERO PUSH2 0x1072 JUMPI PUSH1 0x0 DUP1 REVERT JUMPDEST PUSH2 0x107E DUP7 DUP3 DUP8 ADD PUSH2 0xFFD JUMP JUMPDEST SWAP5 SWAP8 SWAP1 SWAP7 POP SWAP4 SWAP5 POP POP POP POP JUMP JUMPDEST PUSH1 0x0 DUP1 PUSH1 0x0 DUP1 PUSH1 0x40 DUP6 DUP8 SUB SLT ISZERO PUSH2 0x10A1 JUMPI PUSH1 0x0 DUP1 REVERT JUMPDEST DUP5 CALLDATALOAD PUSH8 0xFFFFFFFFFFFFFFFF DUP1 DUP3 GT ISZERO PUSH2 0x10B9 JUMPI PUSH1 0x0 DUP1 REVERT JUMPDEST PUSH2 0x10C5 DUP9 DUP4 DUP10 ADD PUSH2 0xFFD JUMP JUMPDEST SWAP1 SWAP7 POP SWAP5 POP PUSH1 0x20 DUP8 ADD CALLDATALOAD SWAP2 POP DUP1 DUP3 GT ISZERO PUSH2 0x10DE JUMPI PUSH1 0x0 DUP1 REVERT JUMPDEST POP PUSH2 0x10EB DUP8 DUP3 DUP9 ADD PUSH2 0xFFD JUMP JUMPDEST SWAP6 SWAP9 SWAP5 SWAP8 POP SWAP6 POP POP POP POP JUMP JUMPDEST PUSH1 0x0 DUP1 PUSH1 0x0 DUP1 PUSH1 0x60 DUP6 DUP8 SUB SLT ISZERO PUSH2 0x110D JUMPI PUSH1 0x0 DUP1 REVERT JUMPDEST DUP5 CALLDATALOAD PUSH20 0xFFFFFFFFFFFFFFFFFFFFFFFFFFFFFFFFFFFFFFFF DUP2 AND DUP2 EQ PUSH2 0x1131 JUMPI PUSH1 0x0 DUP1 REVERT JUMPDEST SWAP4 POP PUSH1 0x20 DUP6 ADD CALLDATALOAD SWAP3 POP PUSH1 0x40 DUP6 ADD CALLDATALOAD PUSH8 0xFFFFFFFFFFFFFFFF DUP2 GT ISZERO PUSH2 0x1154 JUMPI PUSH1 0x0 DUP1 REVERT JUMPDEST PUSH2 0x10EB DUP8 DUP3 DUP9 ADD PUSH2 0xFFD JUMP JUMPDEST PUSH1 0x0 DUP2 MLOAD DUP1 DUP5 MSTORE PUSH1 0x0 JUMPDEST DUP2 DUP2 LT ISZERO PUSH2 0x1186 JUMPI PUSH1 0x20 DUP2 DUP6 ADD DUP2 ADD MLOAD DUP7 DUP4 ADD DUP3 ADD MSTORE ADD PUSH2 0x116A JUMP JUMPDEST POP PUSH1 0x0 PUSH1 0x20 DUP3 DUP7 ADD ADD MSTORE PUSH1 0x20 PUSH32 0xFFFFFFFFFFFFFFFFFFFFFFFFFFFFFFFFFFFFFFFFFFFFFFFFFFFFFFFFFFFFFFE0 PUSH1 0x1F DUP4 ADD AND DUP6 ADD ADD SWAP2 POP POP SWAP3 SWAP2 POP POP JUMP JUMPDEST PUSH1 0x20 DUP2 MSTORE PUSH1 0x0 PUSH2 0x11D7 PUSH1 0x20 DUP4 ADD DUP5 PUSH2 0x1160 JUMP JUMPDEST SWAP4 SWAP3 POP POP POP JUMP JUMPDEST PUSH1 0x0 PUSH1 0x20 DUP3 DUP5 SUB SLT ISZERO PUSH2 0x11F0 JUMPI PUSH1 0x0 DUP1 REVERT JUMPDEST POP CALLDATALOAD SWAP2 SWAP1 POP JUMP JUMPDEST DUP2 DUP2 SUB DUP2 DUP2 GT ISZERO PUSH2 0x1231 JUMPI PUSH32 0x4E487B7100000000000000000000000000000000000000000000000000000000 PUSH1 0x0 MSTORE PUSH1 0x11 PUSH1 0x4 MSTORE PUSH1 0x24 PUSH1 0x0 REVERT JUMPDEST SWAP3 SWAP2 POP POP JUMP JUMPDEST PUSH32 0x4E487B7100000000000000000000000000000000000000000000000000000000 PUSH1 0x0 MSTORE PUSH1 0x32 PUSH1 0x4 MSTORE PUSH1 0x24 PUSH1 0x0 REVERT JUMPDEST DUP2 DUP4 MSTORE DUP2 DUP2 PUSH1 0x20 DUP6 ADD CALLDATACOPY POP PUSH1 0x0 PUSH1 0x20 DUP3 DUP5 ADD ADD MSTORE PUSH1 0x0 PUSH1 0x20 PUSH32 0xFFFFFFFFFFFFFFFFFFFFFFFFFFFFFFFFFFFFFFFFFFFFFFFFFFFFFFFFFFFFFFE0 PUSH1 0x1F DUP5 ADD AND DUP5 ADD ADD SWAP1 POP SWAP3 SWAP2 POP POP JUMP JUMPDEST PUSH1 0x40 DUP2 MSTORE PUSH1 0x0 PUSH2 0x12C3 PUSH1 0x40 DUP4 ADD DUP6 DUP8 PUSH2 0x1266 JUMP JUMPDEST SWAP1 POP PUSH32 0xFF00000000000000000000000000000000000000000000000000000000000000 DUP4 AND PUSH1 0x20 DUP4 ADD MSTORE SWAP5 SWAP4 POP POP POP POP JUMP JUMPDEST PUSH1 0x0 DUP1 DUP6 DUP6 GT ISZERO PUSH2 0x1305 JUMPI PUSH1 0x0 DUP1 REVERT JUMPDEST DUP4 DUP7 GT ISZERO PUSH2 0x1312 JUMPI PUSH1 0x0 DUP1 REVERT JUMPDEST POP POP DUP3 ADD SWAP4 SWAP2 SWAP1 SWAP3 SUB SWAP2 POP JUMP JUMPDEST DUP6 DUP2 MSTORE DUP5 PUSH1 0x20 DUP3 ADD MSTORE PUSH20 0xFFFFFFFFFFFFFFFFFFFFFFFFFFFFFFFFFFFFFFFF DUP5 AND PUSH1 0x40 DUP3 ADD MSTORE PUSH1 0x80 PUSH1 0x60 DUP3 ADD MSTORE PUSH1 0x0 PUSH2 0x135B PUSH1 0x80 DUP4 ADD DUP5 DUP7 PUSH2 0x1266 JUMP JUMPDEST SWAP8 SWAP7 POP POP POP POP POP POP POP JUMP JUMPDEST DUP2 DUP4 DUP3 CALLDATACOPY PUSH1 0x0 SWAP2 ADD SWAP1 DUP2 MSTORE SWAP2 SWAP1 POP JUMP JUMPDEST DUP4 DUP2 MSTORE PUSH1 0x40 PUSH1 0x20 DUP3 ADD MSTORE PUSH1 0x0 PUSH2 0x1390 PUSH1 0x40 DUP4 ADD DUP5 DUP7 PUSH2 0x1266 JUMP JUMPDEST SWAP6 SWAP5 POP POP POP POP POP JUMP JUMPDEST PUSH1 0x0 PUSH1 0x20 DUP3 DUP5 SUB SLT ISZERO PUSH2 0x13AB JUMPI PUSH1 0x0 DUP1 REVERT JUMPDEST DUP2 MLOAD PUSH32 0xFFFFFFFF00000000000000000000000000000000000000000000000000000000 DUP2 AND DUP2 EQ PUSH2 0x11D7 JUMPI PUSH1 0x0 DUP1 REVERT JUMPDEST PUSH32 0x4E487B7100000000000000000000000000000000000000000000000000000000 PUSH1 0x0 MSTORE PUSH1 0x1 PUSH1 0x4 MSTORE PUSH1 0x24 PUSH1 0x0 REVERT JUMPDEST PUSH20 0xFFFFFFFFFFFFFFFFFFFFFFFFFFFFFFFFFFFFFFFF DUP7 AND DUP2 MSTORE DUP5 PUSH1 0x20 DUP3 ADD MSTORE PUSH1 0x80 PUSH1 0x40 DUP3 ADD MSTORE PUSH1 0x0 PUSH2 0x1440 PUSH1 0x80 DUP4 ADD DUP6 DUP8 PUSH2 0x1266 JUMP JUMPDEST DUP3 DUP2 SUB PUSH1 0x60 DUP5 ADD MSTORE PUSH2 0x1452 DUP2 DUP6 PUSH2 0x1160 JUMP JUMPDEST SWAP9 SWAP8 POP POP POP POP POP POP POP POP JUMP JUMPDEST PUSH1 0x60 DUP2 MSTORE PUSH1 0x0 PUSH2 0x1472 PUSH1 0x60 DUP4 ADD DUP7 DUP9 PUSH2 0x1266 JUMP JUMPDEST PUSH1 0x20 DUP4 ADD SWAP5 SWAP1 SWAP5 MSTORE POP SWAP1 ISZERO ISZERO PUSH1 0x40 SWAP1 SWAP2 ADD MSTORE SWAP3 SWAP2 POP POP JUMP JUMPDEST PUSH1 0x20 DUP2 MSTORE PUSH1 0x0 PUSH2 0x149E PUSH1 0x20 DUP4 ADD DUP5 DUP7 PUSH2 0x1266 JUMP JUMPDEST SWAP5 SWAP4 POP POP POP POP JUMP JUMPDEST PUSH1 0x40 DUP2 MSTORE PUSH1 0x0 PUSH2 0x14BA PUSH1 0x40 DUP4 ADD DUP6 DUP8 PUSH2 0x1266 JUMP JUMPDEST SWAP1 POP DUP3 PUSH1 0x20 DUP4 ADD MSTORE SWAP5 SWAP4 POP POP POP POP JUMP JUMPDEST PUSH1 0x40 DUP2 MSTORE PUSH1 0x0 PUSH2 0x14DE PUSH1 0x40 DUP4 ADD DUP6 DUP8 PUSH2 0x1266 JUMP JUMPDEST SWAP1 POP PUSH1 0xFF DUP4 AND PUSH1 0x20 DUP4 ADD MSTORE SWAP5 SWAP4 POP POP POP POP JUMP INVALID LOG2 PUSH5 0x6970667358 0x22 SLT KECCAK256 PUSH31 0x10951CC8784967E11FE46015840B940A1127AAB0A54DC9A28A98C2E327B5C5 PUSH5 0x736F6C6343 STOP ADDMOD SLT STOP CALLER "
				}
			},
			"userdoc": {
				"kind": "user",
				"methods": {
					"isValidSignature(bytes,bytes)": {
						"notice": "Verifies whether the provided signature is valid with respect to the provided data"
					},
					"isValidSignature(bytes32,bytes)": {
						"notice": "Verifies whether the provided signature is valid with respect to the provided hash"
					}
				},
				"version": 1
			}
		}
	}
}