{
  "src/extensions/recovery/Recovery.sol": {
    "Recovery": {
      "abi": [
        {
          "inputs": [
            {
              "internalType": "address",
              "name": "_wallet",
              "type": "address"
            },
            {
              "internalType": "address",
              "name": "_signer",
              "type": "address"
            },
            {
              "internalType": "bytes32",
              "name": "_payloadHash",
              "type": "bytes32"
            }
          ],
          "name": "AlreadyQueued",
          "type": "error"
        },
        {
          "inputs": [
            {
              "internalType": "uint8",
              "name": "kind",
              "type": "uint8"
            }
          ],
          "name": "InvalidKind",
          "type": "error"
        },
        {
          "inputs": [
            {
              "internalType": "address",
              "name": "_wallet",
              "type": "address"
            },
            {
              "internalType": "address",
              "name": "_signer",
              "type": "address"
            },
            {
              "components": [
                {
                  "internalType": "uint8",
                  "name": "kind",
                  "type": "uint8"
                },
                {
                  "internalType": "bool",
                  "name": "noChainId",
                  "type": "bool"
                },
                {
                  "components": [
                    {
                      "internalType": "address",
                      "name": "to",
                      "type": "address"
                    },
                    {
                      "internalType": "uint256",
                      "name": "value",
                      "type": "uint256"
                    },
                    {
                      "internalType": "bytes",
                      "name": "data",
                      "type": "bytes"
                    },
                    {
                      "internalType": "uint256",
                      "name": "gasLimit",
                      "type": "uint256"
                    },
                    {
                      "internalType": "bool",
                      "name": "delegateCall",
                      "type": "bool"
                    },
                    {
                      "internalType": "bool",
                      "name": "onlyFallback",
                      "type": "bool"
                    },
                    {
                      "internalType": "uint256",
                      "name": "behaviorOnError",
                      "type": "uint256"
                    }
                  ],
                  "internalType": "struct Payload.Call[]",
                  "name": "calls",
                  "type": "tuple[]"
                },
                {
                  "internalType": "uint256",
                  "name": "space",
                  "type": "uint256"
                },
                {
                  "internalType": "uint256",
                  "name": "nonce",
                  "type": "uint256"
                },
                {
                  "internalType": "bytes",
                  "name": "message",
                  "type": "bytes"
                },
                {
                  "internalType": "bytes32",
                  "name": "imageHash",
                  "type": "bytes32"
                },
                {
                  "internalType": "bytes32",
                  "name": "digest",
                  "type": "bytes32"
                },
                {
                  "internalType": "address[]",
                  "name": "parentWallets",
                  "type": "address[]"
                }
              ],
              "internalType": "struct Payload.Decoded",
              "name": "_payload",
              "type": "tuple"
            },
            {
              "internalType": "bytes",
              "name": "_signature",
              "type": "bytes"
            }
          ],
          "name": "InvalidSignature",
          "type": "error"
        },
        {
          "inputs": [
            {
              "internalType": "uint256",
              "name": "_flag",
              "type": "uint256"
            }
          ],
          "name": "InvalidSignatureFlag",
          "type": "error"
        },
        {
          "inputs": [
            {
              "internalType": "address",
              "name": "_wallet",
              "type": "address"
            },
            {
              "internalType": "bytes32",
              "name": "_payloadHash",
              "type": "bytes32"
            }
          ],
          "name": "QueueNotReady",
          "type": "error"
        },
        {
          "anonymous": false,
          "inputs": [
            {
              "indexed": false,
              "internalType": "address",
              "name": "_wallet",
              "type": "address"
            },
            {
              "indexed": false,
              "internalType": "address",
              "name": "_signer",
              "type": "address"
            },
            {
              "indexed": false,
              "internalType": "bytes32",
              "name": "_payloadHash",
              "type": "bytes32"
            },
            {
              "indexed": false,
              "internalType": "uint256",
              "name": "_timestamp",
              "type": "uint256"
            }
          ],
          "name": "NewQueuedPayload",
          "type": "event"
        },
        {
          "inputs": [
            {
              "internalType": "address",
              "name": "_wallet",
              "type": "address"
            },
            {
              "internalType": "address",
              "name": "_signer",
              "type": "address"
            },
            {
              "components": [
                {
                  "internalType": "uint8",
                  "name": "kind",
                  "type": "uint8"
                },
                {
                  "internalType": "bool",
                  "name": "noChainId",
                  "type": "bool"
                },
                {
                  "components": [
                    {
                      "internalType": "address",
                      "name": "to",
                      "type": "address"
                    },
                    {
                      "internalType": "uint256",
                      "name": "value",
                      "type": "uint256"
                    },
                    {
                      "internalType": "bytes",
                      "name": "data",
                      "type": "bytes"
                    },
                    {
                      "internalType": "uint256",
                      "name": "gasLimit",
                      "type": "uint256"
                    },
                    {
                      "internalType": "bool",
                      "name": "delegateCall",
                      "type": "bool"
                    },
                    {
                      "internalType": "bool",
                      "name": "onlyFallback",
                      "type": "bool"
                    },
                    {
                      "internalType": "uint256",
                      "name": "behaviorOnError",
                      "type": "uint256"
                    }
                  ],
                  "internalType": "struct Payload.Call[]",
                  "name": "calls",
                  "type": "tuple[]"
                },
                {
                  "internalType": "uint256",
                  "name": "space",
                  "type": "uint256"
                },
                {
                  "internalType": "uint256",
                  "name": "nonce",
                  "type": "uint256"
                },
                {
                  "internalType": "bytes",
                  "name": "message",
                  "type": "bytes"
                },
                {
                  "internalType": "bytes32",
                  "name": "imageHash",
                  "type": "bytes32"
                },
                {
                  "internalType": "bytes32",
                  "name": "digest",
                  "type": "bytes32"
                },
                {
                  "internalType": "address[]",
                  "name": "parentWallets",
                  "type": "address[]"
                }
              ],
              "internalType": "struct Payload.Decoded",
              "name": "_payload",
              "type": "tuple"
            },
            {
              "internalType": "bytes",
              "name": "_signature",
              "type": "bytes"
            }
          ],
          "name": "queuePayload",
          "outputs": [],
          "stateMutability": "nonpayable",
          "type": "function"
        },
        {
          "inputs": [
            {
              "internalType": "address",
              "name": "",
              "type": "address"
            },
            {
              "internalType": "address",
              "name": "",
              "type": "address"
            },
            {
              "internalType": "uint256",
              "name": "",
              "type": "uint256"
            }
          ],
          "name": "queuedPayloadHashes",
          "outputs": [
            {
              "internalType": "bytes32",
              "name": "",
              "type": "bytes32"
            }
          ],
          "stateMutability": "view",
          "type": "function"
        },
        {
          "inputs": [
            {
              "internalType": "bytes32",
              "name": "_payloadHash",
              "type": "bytes32"
            },
            {
              "internalType": "bytes",
              "name": "_signature",
              "type": "bytes"
            }
          ],
          "name": "recoverSapientSignatureCompact",
          "outputs": [
            {
              "internalType": "bytes32",
              "name": "",
              "type": "bytes32"
            }
          ],
          "stateMutability": "view",
          "type": "function"
        },
        {
          "inputs": [
            {
              "internalType": "address",
              "name": "_wallet",
              "type": "address"
            },
            {
              "components": [
                {
                  "internalType": "uint8",
                  "name": "kind",
                  "type": "uint8"
                },
                {
                  "internalType": "bool",
                  "name": "noChainId",
                  "type": "bool"
                },
                {
                  "components": [
                    {
                      "internalType": "address",
                      "name": "to",
                      "type": "address"
                    },
                    {
                      "internalType": "uint256",
                      "name": "value",
                      "type": "uint256"
                    },
                    {
                      "internalType": "bytes",
                      "name": "data",
                      "type": "bytes"
                    },
                    {
                      "internalType": "uint256",
                      "name": "gasLimit",
                      "type": "uint256"
                    },
                    {
                      "internalType": "bool",
                      "name": "delegateCall",
                      "type": "bool"
                    },
                    {
                      "internalType": "bool",
                      "name": "onlyFallback",
                      "type": "bool"
                    },
                    {
                      "internalType": "uint256",
                      "name": "behaviorOnError",
                      "type": "uint256"
                    }
                  ],
                  "internalType": "struct Payload.Call[]",
                  "name": "calls",
                  "type": "tuple[]"
                },
                {
                  "internalType": "uint256",
                  "name": "space",
                  "type": "uint256"
                },
                {
                  "internalType": "uint256",
                  "name": "nonce",
                  "type": "uint256"
                },
                {
                  "internalType": "bytes",
                  "name": "message",
                  "type": "bytes"
                },
                {
                  "internalType": "bytes32",
                  "name": "imageHash",
                  "type": "bytes32"
                },
                {
                  "internalType": "bytes32",
                  "name": "digest",
                  "type": "bytes32"
                },
                {
                  "internalType": "address[]",
                  "name": "parentWallets",
                  "type": "address[]"
                }
              ],
              "internalType": "struct Payload.Decoded",
              "name": "_payload",
              "type": "tuple"
            }
          ],
          "name": "recoveryPayloadHash",
          "outputs": [
            {
              "internalType": "bytes32",
              "name": "",
              "type": "bytes32"
            }
          ],
          "stateMutability": "view",
          "type": "function"
        },
        {
          "inputs": [
            {
              "internalType": "address",
              "name": "",
              "type": "address"
            },
            {
              "internalType": "address",
              "name": "",
              "type": "address"
            },
            {
              "internalType": "bytes32",
              "name": "",
              "type": "bytes32"
            }
          ],
          "name": "timestampForQueuedPayload",
          "outputs": [
            {
              "internalType": "uint256",
              "name": "",
              "type": "uint256"
            }
          ],
          "stateMutability": "view",
          "type": "function"
        },
        {
          "inputs": [
            {
              "internalType": "address",
              "name": "_wallet",
              "type": "address"
            },
            {
              "internalType": "address",
              "name": "_signer",
              "type": "address"
            }
          ],
          "name": "totalQueuedPayloads",
          "outputs": [
            {
              "internalType": "uint256",
              "name": "",
              "type": "uint256"
            }
          ],
          "stateMutability": "view",
          "type": "function"
        }
      ],
      "devdoc": {
        "kind": "dev",
        "methods": {},
        "version": 1
      },
      "evm": {
        "bytecode": {
          "linkReferences": {},
          "object": "6080604052348015600e575f5ffd5b506127168061001c5f395ff3fe608060405234801561000f575f5ffd5b5060043610610060575f3560e01c80630e159f8014610064578063898bd92114610094578063b00c8484146100c4578063b05f87db146100f4578063d834bcbf14610110578063ec08af3314610140575b5f5ffd5b61007e60048036038101906100799190611092565b610170565b60405161008b91906110fa565b60405180910390f35b6100ae60048036038101906100a99190611174565b61019a565b6040516100bb91906111e0565b60405180910390f35b6100de60048036038101906100d9919061121c565b6101fd565b6040516100eb91906111e0565b60405180910390f35b61010e60048036038101906101099190611276565b610265565b005b61012a60048036038101906101259190611340565b61050b565b60405161013791906111e0565b60405180910390f35b61015a60048036038101906101559190611390565b610541565b60405161016791906110fa565b60405180910390f35b5f602052825f5260405f20602052815f5260405f20602052805f5260405f205f9250925050505481565b5f5f5f6101a9338787876105c6565b91509150816101f15733866040517f904689fc0000000000000000000000000000000000000000000000000000000081526004016101e89291906113dd565b60405180910390fd5b80925050509392505050565b5f5f61021b8360200160208101906102159190611439565b85610873565b90505f6102308461022b90611976565b610917565b905081816040516020016102459291906119fc565b604051602081830303815290604052805190602001209250505092915050565b6102728585858585610b4b565b6102bb5784848484846040517f44b7a4050000000000000000000000000000000000000000000000000000000081526004016102b2959493929190611fee565b60405180910390fd5b5f6102cf846102c990611976565b87610d2c565b90505f5f5f8873ffffffffffffffffffffffffffffffffffffffff1673ffffffffffffffffffffffffffffffffffffffff1681526020019081526020015f205f8773ffffffffffffffffffffffffffffffffffffffff1673ffffffffffffffffffffffffffffffffffffffff1681526020019081526020015f205f8381526020019081526020015f20541461039f578585826040517f654c8bbf00000000000000000000000000000000000000000000000000000000815260040161039693929190612041565b60405180910390fd5b425f5f8873ffffffffffffffffffffffffffffffffffffffff1673ffffffffffffffffffffffffffffffffffffffff1681526020019081526020015f205f8773ffffffffffffffffffffffffffffffffffffffff1673ffffffffffffffffffffffffffffffffffffffff1681526020019081526020015f205f8381526020019081526020015f208190555060015f8773ffffffffffffffffffffffffffffffffffffffff1673ffffffffffffffffffffffffffffffffffffffff1681526020019081526020015f205f8673ffffffffffffffffffffffffffffffffffffffff1673ffffffffffffffffffffffffffffffffffffffff1681526020019081526020015f2081908060018154018082558091505060019003905f5260205f20015f90919091909150557faeb5575092e25ccd826d5de3515c096028bb338c1f304db40dc831c3746ee0ae868683426040516104fb9493929190612076565b60405180910390a1505050505050565b6001602052825f5260405f20602052815f5260405f20818154811061052e575f80fd5b905f5260205f20015f9250925050505481565b5f60015f8473ffffffffffffffffffffffffffffffffffffffff1673ffffffffffffffffffffffffffffffffffffffff1681526020019081526020015f205f8373ffffffffffffffffffffffffffffffffffffffff1673ffffffffffffffffffffffffffffffffffffffff1681526020019081526020015f2080549050905092915050565b5f5f5f5b84849050811015610869575f6105eb828787610d7d9290919263ffffffff16565b8160ff169150809350819250505060018103610760575f5f5f610619858a8a610d989290919263ffffffff16565b8096508194505050610636858a8a610db39290919263ffffffff16565b8162ffffff169150809650819350505061065b858a8a610dd39290919263ffffffff16565b8167ffffffffffffffff16915080965081925050505f5f5f8d73ffffffffffffffffffffffffffffffffffffffff1673ffffffffffffffffffffffffffffffffffffffff1681526020019081526020015f205f8573ffffffffffffffffffffffffffffffffffffffff1673ffffffffffffffffffffffffffffffffffffffff1681526020019081526020015f205f8c81526020019081526020015f205490505f811415801561070a5750818110155b8015610721575082814261071e91906120e6565b10155b1561072b57600197505b5f610737858585610df8565b90505f5f1b88036107485780610753565b6107528882610e2d565b5b97505050505050506105ca565b600381036107a9575f61077e838888610e419290919263ffffffff16565b80945081925050505f5f1b840361079557806107a0565b61079f8482610e2d565b5b935050506105ca565b6004810361082c575f6107c7838888610db39290919263ffffffff16565b8162ffffff16915080945081925050505f81846107e49190612119565b90505f5f6108048c8c8c8c8a9088926107ff93929190612154565b6105c6565b9150915082955087806108145750815b97506108208782610e2d565b965050505050506105ca565b806040517fb2505f7c00000000000000000000000000000000000000000000000000000000815260040161086091906110fa565b60405180910390fd5b5094509492505050565b5f7f8b73c3c69bb8fe3d512ecc4cf759cc79239f7b179b0ffacaa9a75d522b39400f7fd50a220b5983c5d6e86926072ffa8a3197ae49602ffc9dd0e60d62d561a2e1d57fc89efdaa54c0f20c7adf612882df0950f5a951637e0307cdcb4c672f298b8bc6856108e257466108e4565b5f5b856040516020016108f995949392919061218e565b60405160208183030381529060405280519060200120905092915050565b5f5f82610100015160405160200161092f9190612290565b6040516020818303038152906040528051906020012090505f60ff16835f015160ff16036109c7575f6109658460400151610e57565b90507f11e1e4079a79a66e4ade50033cfe2678cdd5341d2dfe5ef9513edb1a0be147a28185606001518660800151856040516020016109a89594939291906122a6565b6040516020818303038152906040528051906020012092505050610b46565b600160ff16835f015160ff1603610a36577fe19a3b94fc3c7ece3f890d98a99bc422615537a08dea0603fa8425867d87d4668360a001518051906020012082604051602001610a18939291906122f7565b60405160208183030381529060405280519060200120915050610b46565b600260ff16835f015160ff1603610a9e577f11fdeb7e8373a1aa96bfac8d0ea91526b2c5d15e5cee20e0543e780258f3e8e48360c0015182604051602001610a80939291906122f7565b60405160208183030381529060405280519060200120915050610b46565b600360ff16835f015160ff1603610b06577fe19a3b94fc3c7ece3f890d98a99bc422615537a08dea0603fa8425867d87d4668360e0015182604051602001610ae8939291906122f7565b60405160208183030381529060405280519060200120915050610b46565b825f01516040517f04818320000000000000000000000000000000000000000000000000000000008152600401610b3d919061233b565b60405180910390fd5b919050565b5f5f610b5787866101fd565b90505f8673ffffffffffffffffffffffffffffffffffffffff163b14610c42576320c13b0b60e01b7bffffffffffffffffffffffffffffffffffffffffffffffffffffffff19168673ffffffffffffffffffffffffffffffffffffffff16631626ba7e8387876040518463ffffffff1660e01b8152600401610bdb93929190612354565b602060405180830381865afa158015610bf6573d5f5f3e3d5ffd5b505050506040513d601f19601f82011682018060405250810190610c1a91906123d9565b7bffffffffffffffffffffffffffffffffffffffffffffffffffffffff191614915050610d23565b5f5f8585810190610c539190612404565b915091505f60ff82901c5f1c90505f7f7fffffffffffffffffffffffffffffffffffffffffffffffffffffffffffffff835f1c165f1b90505f601b83610c999190612442565b90505f6001878388866040515f8152602001604052604051610cbe9493929190612476565b6020604051602081039080840390855afa158015610cde573d5f5f3e3d5ffd5b5050506020604051035190508b73ffffffffffffffffffffffffffffffffffffffff168173ffffffffffffffffffffffffffffffffffffffff16149750505050505050505b95945050505050565b5f5f610d3c846020015184610ed1565b90505f610d4885610917565b90508181604051602001610d5d9291906119fc565b604051602081830303815290604052805190602001209250505092915050565b5f5f848301358060f81c925060018401915050935093915050565b5f5f848301358060601c925060148401915050935093915050565b5f5f8483013562ffffff8160e81c16925060038401915050935093915050565b5f5f8483013567ffffffffffffffff8160c01c16925060088401915050935093915050565b5f838383604051602001610e0e93929190612568565b6040516020818303038152906040528051906020012090509392505050565b5f825f528160205260405f20905092915050565b5f5f848301359150602083019050935093915050565b5f60605f5f90505b8351811015610ec0575f610e8c858381518110610e7f57610e7e6125af565b5b6020026020010151610f75565b90508281604051602001610ea192919061262e565b6040516020818303038152906040529250508080600101915050610e5f565b508080519060200120915050919050565b5f7f8b73c3c69bb8fe3d512ecc4cf759cc79239f7b179b0ffacaa9a75d522b39400f7f4aa45ca7ad825ceb1bf35643f0a58c295239df563b1b565c2485f96477c563187f2a80e1ef1d7842f27f2e6be0972bb708b9a135c38860dbe73c27c3486c34f4de85610f405746610f42565b5f5b85604051602001610f5795949392919061218e565b60405160208183030381529060405280519060200120905092915050565b5f7f0603985259a953da1f65a522f589c17bd1d0117ec1d3abb7c0788aef251ef437825f01518360200151846040015180519060200120856060015186608001518760a001518860c00151604051602001610fd7989796959493929190612664565b604051602081830303815290604052805190602001209050919050565b5f604051905090565b5f5ffd5b5f5ffd5b5f73ffffffffffffffffffffffffffffffffffffffff82169050919050565b5f61102e82611005565b9050919050565b61103e81611024565b8114611048575f5ffd5b50565b5f8135905061105981611035565b92915050565b5f819050919050565b6110718161105f565b811461107b575f5ffd5b50565b5f8135905061108c81611068565b92915050565b5f5f5f606084860312156110a9576110a8610ffd565b5b5f6110b68682870161104b565b93505060206110c78682870161104b565b92505060406110d88682870161107e565b9150509250925092565b5f819050919050565b6110f4816110e2565b82525050565b5f60208201905061110d5f8301846110eb565b92915050565b5f5ffd5b5f5ffd5b5f5ffd5b5f5f83601f84011261113457611133611113565b5b8235905067ffffffffffffffff81111561115157611150611117565b5b60208301915083600182028301111561116d5761116c61111b565b5b9250929050565b5f5f5f6040848603121561118b5761118a610ffd565b5b5f6111988682870161107e565b935050602084013567ffffffffffffffff8111156111b9576111b8611001565b5b6111c58682870161111f565b92509250509250925092565b6111da8161105f565b82525050565b5f6020820190506111f35f8301846111d1565b92915050565b5f5ffd5b5f6101208284031215611213576112126111f9565b5b81905092915050565b5f5f6040838503121561123257611231610ffd565b5b5f61123f8582860161104b565b925050602083013567ffffffffffffffff8111156112605761125f611001565b5b61126c858286016111fd565b9150509250929050565b5f5f5f5f5f6080868803121561128f5761128e610ffd565b5b5f61129c8882890161104b565b95505060206112ad8882890161104b565b945050604086013567ffffffffffffffff8111156112ce576112cd611001565b5b6112da888289016111fd565b935050606086013567ffffffffffffffff8111156112fb576112fa611001565b5b6113078882890161111f565b92509250509295509295909350565b61131f816110e2565b8114611329575f5ffd5b50565b5f8135905061133a81611316565b92915050565b5f5f5f6060848603121561135757611356610ffd565b5b5f6113648682870161104b565b93505060206113758682870161104b565b92505060406113868682870161132c565b9150509250925092565b5f5f604083850312156113a6576113a5610ffd565b5b5f6113b38582860161104b565b92505060206113c48582860161104b565b9150509250929050565b6113d781611024565b82525050565b5f6040820190506113f05f8301856113ce565b6113fd60208301846111d1565b9392505050565b5f8115159050919050565b61141881611404565b8114611422575f5ffd5b50565b5f813590506114338161140f565b92915050565b5f6020828403121561144e5761144d610ffd565b5b5f61145b84828501611425565b91505092915050565b5f5ffd5b5f601f19601f8301169050919050565b7f4e487b71000000000000000000000000000000000000000000000000000000005f52604160045260245ffd5b6114ae82611468565b810181811067ffffffffffffffff821117156114cd576114cc611478565b5b80604052505050565b5f6114df610ff4565b90506114eb82826114a5565b919050565b5f5ffd5b5f60ff82169050919050565b611509816114f4565b8114611513575f5ffd5b50565b5f8135905061152481611500565b92915050565b5f67ffffffffffffffff82111561154457611543611478565b5b602082029050602081019050919050565b5f5ffd5b5f67ffffffffffffffff82111561157357611572611478565b5b61157c82611468565b9050602081019050919050565b828183375f83830152505050565b5f6115a96115a484611559565b6114d6565b9050828152602081018484840111156115c5576115c4611555565b5b6115d0848285611589565b509392505050565b5f82601f8301126115ec576115eb611113565b5b81356115fc848260208601611597565b91505092915050565b5f60e0828403121561161a57611619611464565b5b61162460e06114d6565b90505f6116338482850161104b565b5f8301525060206116468482850161132c565b602083015250604082013567ffffffffffffffff81111561166a576116696114f0565b5b611676848285016115d8565b604083015250606061168a8482850161132c565b606083015250608061169e84828501611425565b60808301525060a06116b284828501611425565b60a08301525060c06116c68482850161132c565b60c08301525092915050565b5f6116e46116df8461152a565b6114d6565b905080838252602082019050602084028301858111156117075761170661111b565b5b835b8181101561174e57803567ffffffffffffffff81111561172c5761172b611113565b5b8086016117398982611605565b85526020850194505050602081019050611709565b5050509392505050565b5f82601f83011261176c5761176b611113565b5b813561177c8482602086016116d2565b91505092915050565b5f67ffffffffffffffff82111561179f5761179e611478565b5b602082029050602081019050919050565b5f6117c26117bd84611785565b6114d6565b905080838252602082019050602084028301858111156117e5576117e461111b565b5b835b8181101561180e57806117fa888261104b565b8452602084019350506020810190506117e7565b5050509392505050565b5f82601f83011261182c5761182b611113565b5b813561183c8482602086016117b0565b91505092915050565b5f610120828403121561185b5761185a611464565b5b6118666101206114d6565b90505f61187584828501611516565b5f83015250602061188884828501611425565b602083015250604082013567ffffffffffffffff8111156118ac576118ab6114f0565b5b6118b884828501611758565b60408301525060606118cc8482850161132c565b60608301525060806118e08482850161132c565b60808301525060a082013567ffffffffffffffff811115611904576119036114f0565b5b611910848285016115d8565b60a08301525060c06119248482850161107e565b60c08301525060e06119388482850161107e565b60e08301525061010082013567ffffffffffffffff81111561195d5761195c6114f0565b5b61196984828501611818565b6101008301525092915050565b5f6119813683611845565b9050919050565b5f81905092915050565b7f19010000000000000000000000000000000000000000000000000000000000005f82015250565b5f6119c6600283611988565b91506119d182611992565b600282019050919050565b5f819050919050565b6119f66119f18261105f565b6119dc565b82525050565b5f611a06826119ba565b9150611a1282856119e5565b602082019150611a2282846119e5565b6020820191508190509392505050565b5f611a406020840184611516565b905092915050565b611a51816114f4565b82525050565b5f611a656020840184611425565b905092915050565b611a7681611404565b82525050565b5f5ffd5b5f5ffd5b5f5ffd5b5f5f83356001602003843603038112611aa457611aa3611a84565b5b83810192508235915060208301925067ffffffffffffffff821115611acc57611acb611a7c565b5b602082023603831315611ae257611ae1611a80565b5b509250929050565b5f82825260208201905092915050565b5f819050919050565b5f611b11602084018461104b565b905092915050565b611b2281611024565b82525050565b5f611b36602084018461132c565b905092915050565b611b47816110e2565b82525050565b5f5f83356001602003843603038112611b6957611b68611a84565b5b83810192508235915060208301925067ffffffffffffffff821115611b9157611b90611a7c565b5b600182023603831315611ba757611ba6611a80565b5b509250929050565b5f82825260208201905092915050565b5f611bca8385611baf565b9350611bd7838584611589565b611be083611468565b840190509392505050565b5f60e08301611bfc5f840184611b03565b611c085f860182611b19565b50611c166020840184611b28565b611c236020860182611b3e565b50611c316040840184611b4d565b8583036040870152611c44838284611bbf565b92505050611c556060840184611b28565b611c626060860182611b3e565b50611c706080840184611a57565b611c7d6080860182611a6d565b50611c8b60a0840184611a57565b611c9860a0860182611a6d565b50611ca660c0840184611b28565b611cb360c0860182611b3e565b508091505092915050565b5f611cc98383611beb565b905092915050565b5f8235600160e003833603038112611cec57611ceb611a84565b5b82810191505092915050565b5f602082019050919050565b5f611d0f8385611aea565b935083602084028501611d2184611afa565b805f5b87811015611d64578484038952611d3b8284611cd1565b611d458582611cbe565b9450611d5083611cf8565b925060208a01995050600181019050611d24565b50829750879450505050509392505050565b5f611d84602084018461107e565b905092915050565b611d958161105f565b82525050565b5f5f83356001602003843603038112611db757611db6611a84565b5b83810192508235915060208301925067ffffffffffffffff821115611ddf57611dde611a7c565b5b602082023603831315611df557611df4611a80565b5b509250929050565b5f82825260208201905092915050565b5f819050919050565b5f611e218383611b19565b60208301905092915050565b5f602082019050919050565b5f611e448385611dfd565b9350611e4f82611e0d565b805f5b85811015611e8757611e648284611b03565b611e6e8882611e16565b9750611e7983611e2d565b925050600181019050611e52565b5085925050509392505050565b5f6101208301611ea65f840184611a32565b611eb25f860182611a48565b50611ec06020840184611a57565b611ecd6020860182611a6d565b50611edb6040840184611a88565b8583036040870152611eee838284611d04565b92505050611eff6060840184611b28565b611f0c6060860182611b3e565b50611f1a6080840184611b28565b611f276080860182611b3e565b50611f3560a0840184611b4d565b85830360a0870152611f48838284611bbf565b92505050611f5960c0840184611d76565b611f6660c0860182611d8c565b50611f7460e0840184611d76565b611f8160e0860182611d8c565b50611f90610100840184611d9b565b858303610100870152611fa4838284611e39565b925050508091505092915050565b5f82825260208201905092915050565b5f611fcd8385611fb2565b9350611fda838584611589565b611fe383611468565b840190509392505050565b5f6080820190506120015f8301886113ce565b61200e60208301876113ce565b81810360408301526120208186611e94565b90508181036060830152612035818486611fc2565b90509695505050505050565b5f6060820190506120545f8301866113ce565b61206160208301856113ce565b61206e60408301846111d1565b949350505050565b5f6080820190506120895f8301876113ce565b61209660208301866113ce565b6120a360408301856111d1565b6120b060608301846110eb565b95945050505050565b7f4e487b71000000000000000000000000000000000000000000000000000000005f52601160045260245ffd5b5f6120f0826110e2565b91506120fb836110e2565b9250828203905081811115612113576121126120b9565b5b92915050565b5f612123826110e2565b915061212e836110e2565b9250828201905080821115612146576121456120b9565b5b92915050565b5f5ffd5b5f5ffd5b5f5f858511156121675761216661214c565b5b8386111561217857612177612150565b5b6001850283019150848603905094509492505050565b5f60a0820190506121a15f8301886111d1565b6121ae60208301876111d1565b6121bb60408301866111d1565b6121c860608301856110eb565b6121d560808301846113ce565b9695505050505050565b5f81519050919050565b5f81905092915050565b5f819050602082019050919050565b61220b81611024565b82525050565b5f61221c8383612202565b60208301905092915050565b5f602082019050919050565b5f61223e826121df565b61224881856121e9565b9350612253836121f3565b805f5b8381101561228357815161226a8882612211565b975061227583612228565b925050600181019050612256565b5085935050505092915050565b5f61229b8284612234565b915081905092915050565b5f60a0820190506122b95f8301886111d1565b6122c660208301876111d1565b6122d360408301866110eb565b6122e060608301856110eb565b6122ed60808301846111d1565b9695505050505050565b5f60608201905061230a5f8301866111d1565b61231760208301856111d1565b61232460408301846111d1565b949350505050565b612335816114f4565b82525050565b5f60208201905061234e5f83018461232c565b92915050565b5f6040820190506123675f8301866111d1565b818103602083015261237a818486611fc2565b9050949350505050565b5f7fffffffff0000000000000000000000000000000000000000000000000000000082169050919050565b6123b881612384565b81146123c2575f5ffd5b50565b5f815190506123d3816123af565b92915050565b5f602082840312156123ee576123ed610ffd565b5b5f6123fb848285016123c5565b91505092915050565b5f5f6040838503121561241a57612419610ffd565b5b5f6124278582860161107e565b92505060206124388582860161107e565b9150509250929050565b5f61244c826114f4565b9150612457836114f4565b9250828201905060ff8111156124705761246f6120b9565b5b92915050565b5f6080820190506124895f8301876111d1565b612496602083018661232c565b6124a360408301856111d1565b6124b060608301846111d1565b95945050505050565b7f53657175656e6365207265636f76657279206c6561663a0a00000000000000005f82015250565b5f6124ed601883611988565b91506124f8826124b9565b601882019050919050565b5f8160601b9050919050565b5f61251982612503565b9050919050565b5f61252a8261250f565b9050919050565b61254261253d82611024565b612520565b82525050565b5f819050919050565b61256261255d826110e2565b612548565b82525050565b5f612572826124e1565b915061257e8286612531565b60148201915061258e8285612551565b60208201915061259e8284612551565b602082019150819050949350505050565b7f4e487b71000000000000000000000000000000000000000000000000000000005f52603260045260245ffd5b5f81519050919050565b5f81905092915050565b8281835e5f83830152505050565b5f612608826125dc565b61261281856125e6565b93506126228185602086016125f0565b80840191505092915050565b5f61263982856125fe565b915061264582846119e5565b6020820191508190509392505050565b61265e81611404565b82525050565b5f610100820190506126785f83018b6111d1565b612685602083018a6113ce565b61269260408301896110eb565b61269f60608301886111d1565b6126ac60808301876110eb565b6126b960a0830186612655565b6126c660c0830185612655565b6126d360e08301846110eb565b999850505050505050505056fea26469706673582212208a18b2782fae35c87051a619ae14c227545bdf88f9e0d44bca6d8d81731bbe0c64736f6c634300081c0033",
          "opcodes": "PUSH1 0x80 PUSH1 0x40 MSTORE CALLVALUE DUP1 ISZERO PUSH1 0xE JUMPI PUSH0 PUSH0 REVERT JUMPDEST POP PUSH2 0x2716 DUP1 PUSH2 0x1C PUSH0 CODECOPY PUSH0 RETURN INVALID PUSH1 0x80 PUSH1 0x40 MSTORE CALLVALUE DUP1 ISZERO PUSH2 0xF JUMPI PUSH0 PUSH0 REVERT JUMPDEST POP PUSH1 0x4 CALLDATASIZE LT PUSH2 0x60 JUMPI PUSH0 CALLDATALOAD PUSH1 0xE0 SHR DUP1 PUSH4 0xE159F80 EQ PUSH2 0x64 JUMPI DUP1 PUSH4 0x898BD921 EQ PUSH2 0x94 JUMPI DUP1 PUSH4 0xB00C8484 EQ PUSH2 0xC4 JUMPI DUP1 PUSH4 0xB05F87DB EQ PUSH2 0xF4 JUMPI DUP1 PUSH4 0xD834BCBF EQ PUSH2 0x110 JUMPI DUP1 PUSH4 0xEC08AF33 EQ PUSH2 0x140 JUMPI JUMPDEST PUSH0 PUSH0 REVERT JUMPDEST PUSH2 0x7E PUSH1 0x4 DUP1 CALLDATASIZE SUB DUP2 ADD SWAP1 PUSH2 0x79 SWAP2 SWAP1 PUSH2 0x1092 JUMP JUMPDEST PUSH2 0x170 JUMP JUMPDEST PUSH1 0x40 MLOAD PUSH2 0x8B SWAP2 SWAP1 PUSH2 0x10FA JUMP JUMPDEST PUSH1 0x40 MLOAD DUP1 SWAP2 SUB SWAP1 RETURN JUMPDEST PUSH2 0xAE PUSH1 0x4 DUP1 CALLDATASIZE SUB DUP2 ADD SWAP1 PUSH2 0xA9 SWAP2 SWAP1 PUSH2 0x1174 JUMP JUMPDEST PUSH2 0x19A JUMP JUMPDEST PUSH1 0x40 MLOAD PUSH2 0xBB SWAP2 SWAP1 PUSH2 0x11E0 JUMP JUMPDEST PUSH1 0x40 MLOAD DUP1 SWAP2 SUB SWAP1 RETURN JUMPDEST PUSH2 0xDE PUSH1 0x4 DUP1 CALLDATASIZE SUB DUP2 ADD SWAP1 PUSH2 0xD9 SWAP2 SWAP1 PUSH2 0x121C JUMP JUMPDEST PUSH2 0x1FD JUMP JUMPDEST PUSH1 0x40 MLOAD PUSH2 0xEB SWAP2 SWAP1 PUSH2 0x11E0 JUMP JUMPDEST PUSH1 0x40 MLOAD DUP1 SWAP2 SUB SWAP1 RETURN JUMPDEST PUSH2 0x10E PUSH1 0x4 DUP1 CALLDATASIZE SUB DUP2 ADD SWAP1 PUSH2 0x109 SWAP2 SWAP1 PUSH2 0x1276 JUMP JUMPDEST PUSH2 0x265 JUMP JUMPDEST STOP JUMPDEST PUSH2 0x12A PUSH1 0x4 DUP1 CALLDATASIZE SUB DUP2 ADD SWAP1 PUSH2 0x125 SWAP2 SWAP1 PUSH2 0x1340 JUMP JUMPDEST PUSH2 0x50B JUMP JUMPDEST PUSH1 0x40 MLOAD PUSH2 0x137 SWAP2 SWAP1 PUSH2 0x11E0 JUMP JUMPDEST PUSH1 0x40 MLOAD DUP1 SWAP2 SUB SWAP1 RETURN JUMPDEST PUSH2 0x15A PUSH1 0x4 DUP1 CALLDATASIZE SUB DUP2 ADD SWAP1 PUSH2 0x155 SWAP2 SWAP1 PUSH2 0x1390 JUMP JUMPDEST PUSH2 0x541 JUMP JUMPDEST PUSH1 0x40 MLOAD PUSH2 0x167 SWAP2 SWAP1 PUSH2 0x10FA JUMP JUMPDEST PUSH1 0x40 MLOAD DUP1 SWAP2 SUB SWAP1 RETURN JUMPDEST PUSH0 PUSH1 0x20 MSTORE DUP3 PUSH0 MSTORE PUSH1 0x40 PUSH0 KECCAK256 PUSH1 0x20 MSTORE DUP2 PUSH0 MSTORE PUSH1 0x40 PUSH0 KECCAK256 PUSH1 0x20 MSTORE DUP1 PUSH0 MSTORE PUSH1 0x40 PUSH0 KECCAK256 PUSH0 SWAP3 POP SWAP3 POP POP POP SLOAD DUP2 JUMP JUMPDEST PUSH0 PUSH0 PUSH0 PUSH2 0x1A9 CALLER DUP8 DUP8 DUP8 PUSH2 0x5C6 JUMP JUMPDEST SWAP2 POP SWAP2 POP DUP2 PUSH2 0x1F1 JUMPI CALLER DUP7 PUSH1 0x40 MLOAD PUSH32 0x904689FC00000000000000000000000000000000000000000000000000000000 DUP2 MSTORE PUSH1 0x4 ADD PUSH2 0x1E8 SWAP3 SWAP2 SWAP1 PUSH2 0x13DD JUMP JUMPDEST PUSH1 0x40 MLOAD DUP1 SWAP2 SUB SWAP1 REVERT JUMPDEST DUP1 SWAP3 POP POP POP SWAP4 SWAP3 POP POP POP JUMP JUMPDEST PUSH0 PUSH0 PUSH2 0x21B DUP4 PUSH1 0x20 ADD PUSH1 0x20 DUP2 ADD SWAP1 PUSH2 0x215 SWAP2 SWAP1 PUSH2 0x1439 JUMP JUMPDEST DUP6 PUSH2 0x873 JUMP JUMPDEST SWAP1 POP PUSH0 PUSH2 0x230 DUP5 PUSH2 0x22B SWAP1 PUSH2 0x1976 JUMP JUMPDEST PUSH2 0x917 JUMP JUMPDEST SWAP1 POP DUP2 DUP2 PUSH1 0x40 MLOAD PUSH1 0x20 ADD PUSH2 0x245 SWAP3 SWAP2 SWAP1 PUSH2 0x19FC JUMP JUMPDEST PUSH1 0x40 MLOAD PUSH1 0x20 DUP2 DUP4 SUB SUB DUP2 MSTORE SWAP1 PUSH1 0x40 MSTORE DUP1 MLOAD SWAP1 PUSH1 0x20 ADD KECCAK256 SWAP3 POP POP POP SWAP3 SWAP2 POP POP JUMP JUMPDEST PUSH2 0x272 DUP6 DUP6 DUP6 DUP6 DUP6 PUSH2 0xB4B JUMP JUMPDEST PUSH2 0x2BB JUMPI DUP5 DUP5 DUP5 DUP5 DUP5 PUSH1 0x40 MLOAD PUSH32 0x44B7A40500000000000000000000000000000000000000000000000000000000 DUP2 MSTORE PUSH1 0x4 ADD PUSH2 0x2B2 SWAP6 SWAP5 SWAP4 SWAP3 SWAP2 SWAP1 PUSH2 0x1FEE JUMP JUMPDEST PUSH1 0x40 MLOAD DUP1 SWAP2 SUB SWAP1 REVERT JUMPDEST PUSH0 PUSH2 0x2CF DUP5 PUSH2 0x2C9 SWAP1 PUSH2 0x1976 JUMP JUMPDEST DUP8 PUSH2 0xD2C JUMP JUMPDEST SWAP1 POP PUSH0 PUSH0 PUSH0 DUP9 PUSH20 0xFFFFFFFFFFFFFFFFFFFFFFFFFFFFFFFFFFFFFFFF AND PUSH20 0xFFFFFFFFFFFFFFFFFFFFFFFFFFFFFFFFFFFFFFFF AND DUP2 MSTORE PUSH1 0x20 ADD SWAP1 DUP2 MSTORE PUSH1 0x20 ADD PUSH0 KECCAK256 PUSH0 DUP8 PUSH20 0xFFFFFFFFFFFFFFFFFFFFFFFFFFFFFFFFFFFFFFFF AND PUSH20 0xFFFFFFFFFFFFFFFFFFFFFFFFFFFFFFFFFFFFFFFF AND DUP2 MSTORE PUSH1 0x20 ADD SWAP1 DUP2 MSTORE PUSH1 0x20 ADD PUSH0 KECCAK256 PUSH0 DUP4 DUP2 MSTORE PUSH1 0x20 ADD SWAP1 DUP2 MSTORE PUSH1 0x20 ADD PUSH0 KECCAK256 SLOAD EQ PUSH2 0x39F JUMPI DUP6 DUP6 DUP3 PUSH1 0x40 MLOAD PUSH32 0x654C8BBF00000000000000000000000000000000000000000000000000000000 DUP2 MSTORE PUSH1 0x4 ADD PUSH2 0x396 SWAP4 SWAP3 SWAP2 SWAP1 PUSH2 0x2041 JUMP JUMPDEST PUSH1 0x40 MLOAD DUP1 SWAP2 SUB SWAP1 REVERT JUMPDEST TIMESTAMP PUSH0 PUSH0 DUP9 PUSH20 0xFFFFFFFFFFFFFFFFFFFFFFFFFFFFFFFFFFFFFFFF AND PUSH20 0xFFFFFFFFFFFFFFFFFFFFFFFFFFFFFFFFFFFFFFFF AND DUP2 MSTORE PUSH1 0x20 ADD SWAP1 DUP2 MSTORE PUSH1 0x20 ADD PUSH0 KECCAK256 PUSH0 DUP8 PUSH20 0xFFFFFFFFFFFFFFFFFFFFFFFFFFFFFFFFFFFFFFFF AND PUSH20 0xFFFFFFFFFFFFFFFFFFFFFFFFFFFFFFFFFFFFFFFF AND DUP2 MSTORE PUSH1 0x20 ADD SWAP1 DUP2 MSTORE PUSH1 0x20 ADD PUSH0 KECCAK256 PUSH0 DUP4 DUP2 MSTORE PUSH1 0x20 ADD SWAP1 DUP2 MSTORE PUSH1 0x20 ADD PUSH0 KECCAK256 DUP2 SWAP1 SSTORE POP PUSH1 0x1 PUSH0 DUP8 PUSH20 0xFFFFFFFFFFFFFFFFFFFFFFFFFFFFFFFFFFFFFFFF AND PUSH20 0xFFFFFFFFFFFFFFFFFFFFFFFFFFFFFFFFFFFFFFFF AND DUP2 MSTORE PUSH1 0x20 ADD SWAP1 DUP2 MSTORE PUSH1 0x20 ADD PUSH0 KECCAK256 PUSH0 DUP7 PUSH20 0xFFFFFFFFFFFFFFFFFFFFFFFFFFFFFFFFFFFFFFFF AND PUSH20 0xFFFFFFFFFFFFFFFFFFFFFFFFFFFFFFFFFFFFFFFF AND DUP2 MSTORE PUSH1 0x20 ADD SWAP1 DUP2 MSTORE PUSH1 0x20 ADD PUSH0 KECCAK256 DUP2 SWAP1 DUP1 PUSH1 0x1 DUP2 SLOAD ADD DUP1 DUP3 SSTORE DUP1 SWAP2 POP POP PUSH1 0x1 SWAP1 SUB SWAP1 PUSH0 MSTORE PUSH1 0x20 PUSH0 KECCAK256 ADD PUSH0 SWAP1 SWAP2 SWAP1 SWAP2 SWAP1 SWAP2 POP SSTORE PUSH32 0xAEB5575092E25CCD826D5DE3515C096028BB338C1F304DB40DC831C3746EE0AE DUP7 DUP7 DUP4 TIMESTAMP PUSH1 0x40 MLOAD PUSH2 0x4FB SWAP5 SWAP4 SWAP3 SWAP2 SWAP1 PUSH2 0x2076 JUMP JUMPDEST PUSH1 0x40 MLOAD DUP1 SWAP2 SUB SWAP1 LOG1 POP POP POP POP POP POP JUMP JUMPDEST PUSH1 0x1 PUSH1 0x20 MSTORE DUP3 PUSH0 MSTORE PUSH1 0x40 PUSH0 KECCAK256 PUSH1 0x20 MSTORE DUP2 PUSH0 MSTORE PUSH1 0x40 PUSH0 KECCAK256 DUP2 DUP2 SLOAD DUP2 LT PUSH2 0x52E JUMPI PUSH0 DUP1 REVERT JUMPDEST SWAP1 PUSH0 MSTORE PUSH1 0x20 PUSH0 KECCAK256 ADD PUSH0 SWAP3 POP SWAP3 POP POP POP SLOAD DUP2 JUMP JUMPDEST PUSH0 PUSH1 0x1 PUSH0 DUP5 PUSH20 0xFFFFFFFFFFFFFFFFFFFFFFFFFFFFFFFFFFFFFFFF AND PUSH20 0xFFFFFFFFFFFFFFFFFFFFFFFFFFFFFFFFFFFFFFFF AND DUP2 MSTORE PUSH1 0x20 ADD SWAP1 DUP2 MSTORE PUSH1 0x20 ADD PUSH0 KECCAK256 PUSH0 DUP4 PUSH20 0xFFFFFFFFFFFFFFFFFFFFFFFFFFFFFFFFFFFFFFFF AND PUSH20 0xFFFFFFFFFFFFFFFFFFFFFFFFFFFFFFFFFFFFFFFF AND DUP2 MSTORE PUSH1 0x20 ADD SWAP1 DUP2 MSTORE PUSH1 0x20 ADD PUSH0 KECCAK256 DUP1 SLOAD SWAP1 POP SWAP1 POP SWAP3 SWAP2 POP POP JUMP JUMPDEST PUSH0 PUSH0 PUSH0 JUMPDEST DUP5 DUP5 SWAP1 POP DUP2 LT ISZERO PUSH2 0x869 JUMPI PUSH0 PUSH2 0x5EB DUP3 DUP8 DUP8 PUSH2 0xD7D SWAP3 SWAP1 SWAP2 SWAP3 PUSH4 0xFFFFFFFF AND JUMP JUMPDEST DUP2 PUSH1 0xFF AND SWAP2 POP DUP1 SWAP4 POP DUP2 SWAP3 POP POP POP PUSH1 0x1 DUP2 SUB PUSH2 0x760 JUMPI PUSH0 PUSH0 PUSH0 PUSH2 0x619 DUP6 DUP11 DUP11 PUSH2 0xD98 SWAP3 SWAP1 SWAP2 SWAP3 PUSH4 0xFFFFFFFF AND JUMP JUMPDEST DUP1 SWAP7 POP DUP2 SWAP5 POP POP POP PUSH2 0x636 DUP6 DUP11 DUP11 PUSH2 0xDB3 SWAP3 SWAP1 SWAP2 SWAP3 PUSH4 0xFFFFFFFF AND JUMP JUMPDEST DUP2 PUSH3 0xFFFFFF AND SWAP2 POP DUP1 SWAP7 POP DUP2 SWAP4 POP POP POP PUSH2 0x65B DUP6 DUP11 DUP11 PUSH2 0xDD3 SWAP3 SWAP1 SWAP2 SWAP3 PUSH4 0xFFFFFFFF AND JUMP JUMPDEST DUP2 PUSH8 0xFFFFFFFFFFFFFFFF AND SWAP2 POP DUP1 SWAP7 POP DUP2 SWAP3 POP POP POP PUSH0 PUSH0 PUSH0 DUP14 PUSH20 0xFFFFFFFFFFFFFFFFFFFFFFFFFFFFFFFFFFFFFFFF AND PUSH20 0xFFFFFFFFFFFFFFFFFFFFFFFFFFFFFFFFFFFFFFFF AND DUP2 MSTORE PUSH1 0x20 ADD SWAP1 DUP2 MSTORE PUSH1 0x20 ADD PUSH0 KECCAK256 PUSH0 DUP6 PUSH20 0xFFFFFFFFFFFFFFFFFFFFFFFFFFFFFFFFFFFFFFFF AND PUSH20 0xFFFFFFFFFFFFFFFFFFFFFFFFFFFFFFFFFFFFFFFF AND DUP2 MSTORE PUSH1 0x20 ADD SWAP1 DUP2 MSTORE PUSH1 0x20 ADD PUSH0 KECCAK256 PUSH0 DUP13 DUP2 MSTORE PUSH1 0x20 ADD SWAP1 DUP2 MSTORE PUSH1 0x20 ADD PUSH0 KECCAK256 SLOAD SWAP1 POP PUSH0 DUP2 EQ ISZERO DUP1 ISZERO PUSH2 0x70A JUMPI POP DUP2 DUP2 LT ISZERO JUMPDEST DUP1 ISZERO PUSH2 0x721 JUMPI POP DUP3 DUP2 TIMESTAMP PUSH2 0x71E SWAP2 SWAP1 PUSH2 0x20E6 JUMP JUMPDEST LT ISZERO JUMPDEST ISZERO PUSH2 0x72B JUMPI PUSH1 0x1 SWAP8 POP JUMPDEST PUSH0 PUSH2 0x737 DUP6 DUP6 DUP6 PUSH2 0xDF8 JUMP JUMPDEST SWAP1 POP PUSH0 PUSH0 SHL DUP9 SUB PUSH2 0x748 JUMPI DUP1 PUSH2 0x753 JUMP JUMPDEST PUSH2 0x752 DUP9 DUP3 PUSH2 0xE2D JUMP JUMPDEST JUMPDEST SWAP8 POP POP POP POP POP POP POP PUSH2 0x5CA JUMP JUMPDEST PUSH1 0x3 DUP2 SUB PUSH2 0x7A9 JUMPI PUSH0 PUSH2 0x77E DUP4 DUP9 DUP9 PUSH2 0xE41 SWAP3 SWAP1 SWAP2 SWAP3 PUSH4 0xFFFFFFFF AND JUMP JUMPDEST DUP1 SWAP5 POP DUP2 SWAP3 POP POP POP PUSH0 PUSH0 SHL DUP5 SUB PUSH2 0x795 JUMPI DUP1 PUSH2 0x7A0 JUMP JUMPDEST PUSH2 0x79F DUP5 DUP3 PUSH2 0xE2D JUMP JUMPDEST JUMPDEST SWAP4 POP POP POP PUSH2 0x5CA JUMP JUMPDEST PUSH1 0x4 DUP2 SUB PUSH2 0x82C JUMPI PUSH0 PUSH2 0x7C7 DUP4 DUP9 DUP9 PUSH2 0xDB3 SWAP3 SWAP1 SWAP2 SWAP3 PUSH4 0xFFFFFFFF AND JUMP JUMPDEST DUP2 PUSH3 0xFFFFFF AND SWAP2 POP DUP1 SWAP5 POP DUP2 SWAP3 POP POP POP PUSH0 DUP2 DUP5 PUSH2 0x7E4 SWAP2 SWAP1 PUSH2 0x2119 JUMP JUMPDEST SWAP1 POP PUSH0 PUSH0 PUSH2 0x804 DUP13 DUP13 DUP13 DUP13 DUP11 SWAP1 DUP9 SWAP3 PUSH2 0x7FF SWAP4 SWAP3 SWAP2 SWAP1 PUSH2 0x2154 JUMP JUMPDEST PUSH2 0x5C6 JUMP JUMPDEST SWAP2 POP SWAP2 POP DUP3 SWAP6 POP DUP8 DUP1 PUSH2 0x814 JUMPI POP DUP2 JUMPDEST SWAP8 POP PUSH2 0x820 DUP8 DUP3 PUSH2 0xE2D JUMP JUMPDEST SWAP7 POP POP POP POP POP POP PUSH2 0x5CA JUMP JUMPDEST DUP1 PUSH1 0x40 MLOAD PUSH32 0xB2505F7C00000000000000000000000000000000000000000000000000000000 DUP2 MSTORE PUSH1 0x4 ADD PUSH2 0x860 SWAP2 SWAP1 PUSH2 0x10FA JUMP JUMPDEST PUSH1 0x40 MLOAD DUP1 SWAP2 SUB SWAP1 REVERT JUMPDEST POP SWAP5 POP SWAP5 SWAP3 POP POP POP JUMP JUMPDEST PUSH0 PUSH32 0x8B73C3C69BB8FE3D512ECC4CF759CC79239F7B179B0FFACAA9A75D522B39400F PUSH32 0xD50A220B5983C5D6E86926072FFA8A3197AE49602FFC9DD0E60D62D561A2E1D5 PUSH32 0xC89EFDAA54C0F20C7ADF612882DF0950F5A951637E0307CDCB4C672F298B8BC6 DUP6 PUSH2 0x8E2 JUMPI CHAINID PUSH2 0x8E4 JUMP JUMPDEST PUSH0 JUMPDEST DUP6 PUSH1 0x40 MLOAD PUSH1 0x20 ADD PUSH2 0x8F9 SWAP6 SWAP5 SWAP4 SWAP3 SWAP2 SWAP1 PUSH2 0x218E JUMP JUMPDEST PUSH1 0x40 MLOAD PUSH1 0x20 DUP2 DUP4 SUB SUB DUP2 MSTORE SWAP1 PUSH1 0x40 MSTORE DUP1 MLOAD SWAP1 PUSH1 0x20 ADD KECCAK256 SWAP1 POP SWAP3 SWAP2 POP POP JUMP JUMPDEST PUSH0 PUSH0 DUP3 PUSH2 0x100 ADD MLOAD PUSH1 0x40 MLOAD PUSH1 0x20 ADD PUSH2 0x92F SWAP2 SWAP1 PUSH2 0x2290 JUMP JUMPDEST PUSH1 0x40 MLOAD PUSH1 0x20 DUP2 DUP4 SUB SUB DUP2 MSTORE SWAP1 PUSH1 0x40 MSTORE DUP1 MLOAD SWAP1 PUSH1 0x20 ADD KECCAK256 SWAP1 POP PUSH0 PUSH1 0xFF AND DUP4 PUSH0 ADD MLOAD PUSH1 0xFF AND SUB PUSH2 0x9C7 JUMPI PUSH0 PUSH2 0x965 DUP5 PUSH1 0x40 ADD MLOAD PUSH2 0xE57 JUMP JUMPDEST SWAP1 POP PUSH32 0x11E1E4079A79A66E4ADE50033CFE2678CDD5341D2DFE5EF9513EDB1A0BE147A2 DUP2 DUP6 PUSH1 0x60 ADD MLOAD DUP7 PUSH1 0x80 ADD MLOAD DUP6 PUSH1 0x40 MLOAD PUSH1 0x20 ADD PUSH2 0x9A8 SWAP6 SWAP5 SWAP4 SWAP3 SWAP2 SWAP1 PUSH2 0x22A6 JUMP JUMPDEST PUSH1 0x40 MLOAD PUSH1 0x20 DUP2 DUP4 SUB SUB DUP2 MSTORE SWAP1 PUSH1 0x40 MSTORE DUP1 MLOAD SWAP1 PUSH1 0x20 ADD KECCAK256 SWAP3 POP POP POP PUSH2 0xB46 JUMP JUMPDEST PUSH1 0x1 PUSH1 0xFF AND DUP4 PUSH0 ADD MLOAD PUSH1 0xFF AND SUB PUSH2 0xA36 JUMPI PUSH32 0xE19A3B94FC3C7ECE3F890D98A99BC422615537A08DEA0603FA8425867D87D466 DUP4 PUSH1 0xA0 ADD MLOAD DUP1 MLOAD SWAP1 PUSH1 0x20 ADD KECCAK256 DUP3 PUSH1 0x40 MLOAD PUSH1 0x20 ADD PUSH2 0xA18 SWAP4 SWAP3 SWAP2 SWAP1 PUSH2 0x22F7 JUMP JUMPDEST PUSH1 0x40 MLOAD PUSH1 0x20 DUP2 DUP4 SUB SUB DUP2 MSTORE SWAP1 PUSH1 0x40 MSTORE DUP1 MLOAD SWAP1 PUSH1 0x20 ADD KECCAK256 SWAP2 POP POP PUSH2 0xB46 JUMP JUMPDEST PUSH1 0x2 PUSH1 0xFF AND DUP4 PUSH0 ADD MLOAD PUSH1 0xFF AND SUB PUSH2 0xA9E JUMPI PUSH32 0x11FDEB7E8373A1AA96BFAC8D0EA91526B2C5D15E5CEE20E0543E780258F3E8E4 DUP4 PUSH1 0xC0 ADD MLOAD DUP3 PUSH1 0x40 MLOAD PUSH1 0x20 ADD PUSH2 0xA80 SWAP4 SWAP3 SWAP2 SWAP1 PUSH2 0x22F7 JUMP JUMPDEST PUSH1 0x40 MLOAD PUSH1 0x20 DUP2 DUP4 SUB SUB DUP2 MSTORE SWAP1 PUSH1 0x40 MSTORE DUP1 MLOAD SWAP1 PUSH1 0x20 ADD KECCAK256 SWAP2 POP POP PUSH2 0xB46 JUMP JUMPDEST PUSH1 0x3 PUSH1 0xFF AND DUP4 PUSH0 ADD MLOAD PUSH1 0xFF AND SUB PUSH2 0xB06 JUMPI PUSH32 0xE19A3B94FC3C7ECE3F890D98A99BC422615537A08DEA0603FA8425867D87D466 DUP4 PUSH1 0xE0 ADD MLOAD DUP3 PUSH1 0x40 MLOAD PUSH1 0x20 ADD PUSH2 0xAE8 SWAP4 SWAP3 SWAP2 SWAP1 PUSH2 0x22F7 JUMP JUMPDEST PUSH1 0x40 MLOAD PUSH1 0x20 DUP2 DUP4 SUB SUB DUP2 MSTORE SWAP1 PUSH1 0x40 MSTORE DUP1 MLOAD SWAP1 PUSH1 0x20 ADD KECCAK256 SWAP2 POP POP PUSH2 0xB46 JUMP JUMPDEST DUP3 PUSH0 ADD MLOAD PUSH1 0x40 MLOAD PUSH32 0x481832000000000000000000000000000000000000000000000000000000000 DUP2 MSTORE PUSH1 0x4 ADD PUSH2 0xB3D SWAP2 SWAP1 PUSH2 0x233B JUMP JUMPDEST PUSH1 0x40 MLOAD DUP1 SWAP2 SUB SWAP1 REVERT JUMPDEST SWAP2 SWAP1 POP JUMP JUMPDEST PUSH0 PUSH0 PUSH2 0xB57 DUP8 DUP7 PUSH2 0x1FD JUMP JUMPDEST SWAP1 POP PUSH0 DUP7 PUSH20 0xFFFFFFFFFFFFFFFFFFFFFFFFFFFFFFFFFFFFFFFF AND EXTCODESIZE EQ PUSH2 0xC42 JUMPI PUSH4 0x20C13B0B PUSH1 0xE0 SHL PUSH28 0xFFFFFFFFFFFFFFFFFFFFFFFFFFFFFFFFFFFFFFFFFFFFFFFFFFFFFFFF NOT AND DUP7 PUSH20 0xFFFFFFFFFFFFFFFFFFFFFFFFFFFFFFFFFFFFFFFF AND PUSH4 0x1626BA7E DUP4 DUP8 DUP8 PUSH1 0x40 MLOAD DUP5 PUSH4 0xFFFFFFFF AND PUSH1 0xE0 SHL DUP2 MSTORE PUSH1 0x4 ADD PUSH2 0xBDB SWAP4 SWAP3 SWAP2 SWAP1 PUSH2 0x2354 JUMP JUMPDEST PUSH1 0x20 PUSH1 0x40 MLOAD DUP1 DUP4 SUB DUP2 DUP7 GAS STATICCALL ISZERO DUP1 ISZERO PUSH2 0xBF6 JUMPI RETURNDATASIZE PUSH0 PUSH0 RETURNDATACOPY RETURNDATASIZE PUSH0 REVERT JUMPDEST POP POP POP POP PUSH1 0x40 MLOAD RETURNDATASIZE PUSH1 0x1F NOT PUSH1 0x1F DUP3 ADD AND DUP3 ADD DUP1 PUSH1 0x40 MSTORE POP DUP2 ADD SWAP1 PUSH2 0xC1A SWAP2 SWAP1 PUSH2 0x23D9 JUMP JUMPDEST PUSH28 0xFFFFFFFFFFFFFFFFFFFFFFFFFFFFFFFFFFFFFFFFFFFFFFFFFFFFFFFF NOT AND EQ SWAP2 POP POP PUSH2 0xD23 JUMP JUMPDEST PUSH0 PUSH0 DUP6 DUP6 DUP2 ADD SWAP1 PUSH2 0xC53 SWAP2 SWAP1 PUSH2 0x2404 JUMP JUMPDEST SWAP2 POP SWAP2 POP PUSH0 PUSH1 0xFF DUP3 SWAP1 SHR PUSH0 SHR SWAP1 POP PUSH0 PUSH32 0x7FFFFFFFFFFFFFFFFFFFFFFFFFFFFFFFFFFFFFFFFFFFFFFFFFFFFFFFFFFFFFFF DUP4 PUSH0 SHR AND PUSH0 SHL SWAP1 POP PUSH0 PUSH1 0x1B DUP4 PUSH2 0xC99 SWAP2 SWAP1 PUSH2 0x2442 JUMP JUMPDEST SWAP1 POP PUSH0 PUSH1 0x1 DUP8 DUP4 DUP9 DUP7 PUSH1 0x40 MLOAD PUSH0 DUP2 MSTORE PUSH1 0x20 ADD PUSH1 0x40 MSTORE PUSH1 0x40 MLOAD PUSH2 0xCBE SWAP5 SWAP4 SWAP3 SWAP2 SWAP1 PUSH2 0x2476 JUMP JUMPDEST PUSH1 0x20 PUSH1 0x40 MLOAD PUSH1 0x20 DUP2 SUB SWAP1 DUP1 DUP5 SUB SWAP1 DUP6 GAS STATICCALL ISZERO DUP1 ISZERO PUSH2 0xCDE JUMPI RETURNDATASIZE PUSH0 PUSH0 RETURNDATACOPY RETURNDATASIZE PUSH0 REVERT JUMPDEST POP POP POP PUSH1 0x20 PUSH1 0x40 MLOAD SUB MLOAD SWAP1 POP DUP12 PUSH20 0xFFFFFFFFFFFFFFFFFFFFFFFFFFFFFFFFFFFFFFFF AND DUP2 PUSH20 0xFFFFFFFFFFFFFFFFFFFFFFFFFFFFFFFFFFFFFFFF AND EQ SWAP8 POP POP POP POP POP POP POP POP JUMPDEST SWAP6 SWAP5 POP POP POP POP POP JUMP JUMPDEST PUSH0 PUSH0 PUSH2 0xD3C DUP5 PUSH1 0x20 ADD MLOAD DUP5 PUSH2 0xED1 JUMP JUMPDEST SWAP1 POP PUSH0 PUSH2 0xD48 DUP6 PUSH2 0x917 JUMP JUMPDEST SWAP1 POP DUP2 DUP2 PUSH1 0x40 MLOAD PUSH1 0x20 ADD PUSH2 0xD5D SWAP3 SWAP2 SWAP1 PUSH2 0x19FC JUMP JUMPDEST PUSH1 0x40 MLOAD PUSH1 0x20 DUP2 DUP4 SUB SUB DUP2 MSTORE SWAP1 PUSH1 0x40 MSTORE DUP1 MLOAD SWAP1 PUSH1 0x20 ADD KECCAK256 SWAP3 POP POP POP SWAP3 SWAP2 POP POP JUMP JUMPDEST PUSH0 PUSH0 DUP5 DUP4 ADD CALLDATALOAD DUP1 PUSH1 0xF8 SHR SWAP3 POP PUSH1 0x1 DUP5 ADD SWAP2 POP POP SWAP4 POP SWAP4 SWAP2 POP POP JUMP JUMPDEST PUSH0 PUSH0 DUP5 DUP4 ADD CALLDATALOAD DUP1 PUSH1 0x60 SHR SWAP3 POP PUSH1 0x14 DUP5 ADD SWAP2 POP POP SWAP4 POP SWAP4 SWAP2 POP POP JUMP JUMPDEST PUSH0 PUSH0 DUP5 DUP4 ADD CALLDATALOAD PUSH3 0xFFFFFF DUP2 PUSH1 0xE8 SHR AND SWAP3 POP PUSH1 0x3 DUP5 ADD SWAP2 POP POP SWAP4 POP SWAP4 SWAP2 POP POP JUMP JUMPDEST PUSH0 PUSH0 DUP5 DUP4 ADD CALLDATALOAD PUSH8 0xFFFFFFFFFFFFFFFF DUP2 PUSH1 0xC0 SHR AND SWAP3 POP PUSH1 0x8 DUP5 ADD SWAP2 POP POP SWAP4 POP SWAP4 SWAP2 POP POP JUMP JUMPDEST PUSH0 DUP4 DUP4 DUP4 PUSH1 0x40 MLOAD PUSH1 0x20 ADD PUSH2 0xE0E SWAP4 SWAP3 SWAP2 SWAP1 PUSH2 0x2568 JUMP JUMPDEST PUSH1 0x40 MLOAD PUSH1 0x20 DUP2 DUP4 SUB SUB DUP2 MSTORE SWAP1 PUSH1 0x40 MSTORE DUP1 MLOAD SWAP1 PUSH1 0x20 ADD KECCAK256 SWAP1 POP SWAP4 SWAP3 POP POP POP JUMP JUMPDEST PUSH0 DUP3 PUSH0 MSTORE DUP2 PUSH1 0x20 MSTORE PUSH1 0x40 PUSH0 KECCAK256 SWAP1 POP SWAP3 SWAP2 POP POP JUMP JUMPDEST PUSH0 PUSH0 DUP5 DUP4 ADD CALLDATALOAD SWAP2 POP PUSH1 0x20 DUP4 ADD SWAP1 POP SWAP4 POP SWAP4 SWAP2 POP POP JUMP JUMPDEST PUSH0 PUSH1 0x60 PUSH0 PUSH0 SWAP1 POP JUMPDEST DUP4 MLOAD DUP2 LT ISZERO PUSH2 0xEC0 JUMPI PUSH0 PUSH2 0xE8C DUP6 DUP4 DUP2 MLOAD DUP2 LT PUSH2 0xE7F JUMPI PUSH2 0xE7E PUSH2 0x25AF JUMP JUMPDEST JUMPDEST PUSH1 0x20 MUL PUSH1 0x20 ADD ADD MLOAD PUSH2 0xF75 JUMP JUMPDEST SWAP1 POP DUP3 DUP2 PUSH1 0x40 MLOAD PUSH1 0x20 ADD PUSH2 0xEA1 SWAP3 SWAP2 SWAP1 PUSH2 0x262E JUMP JUMPDEST PUSH1 0x40 MLOAD PUSH1 0x20 DUP2 DUP4 SUB SUB DUP2 MSTORE SWAP1 PUSH1 0x40 MSTORE SWAP3 POP POP DUP1 DUP1 PUSH1 0x1 ADD SWAP2 POP POP PUSH2 0xE5F JUMP JUMPDEST POP DUP1 DUP1 MLOAD SWAP1 PUSH1 0x20 ADD KECCAK256 SWAP2 POP POP SWAP2 SWAP1 POP JUMP JUMPDEST PUSH0 PUSH32 0x8B73C3C69BB8FE3D512ECC4CF759CC79239F7B179B0FFACAA9A75D522B39400F PUSH32 0x4AA45CA7AD825CEB1BF35643F0A58C295239DF563B1B565C2485F96477C56318 PUSH32 0x2A80E1EF1D7842F27F2E6BE0972BB708B9A135C38860DBE73C27C3486C34F4DE DUP6 PUSH2 0xF40 JUMPI CHAINID PUSH2 0xF42 JUMP JUMPDEST PUSH0 JUMPDEST DUP6 PUSH1 0x40 MLOAD PUSH1 0x20 ADD PUSH2 0xF57 SWAP6 SWAP5 SWAP4 SWAP3 SWAP2 SWAP1 PUSH2 0x218E JUMP JUMPDEST PUSH1 0x40 MLOAD PUSH1 0x20 DUP2 DUP4 SUB SUB DUP2 MSTORE SWAP1 PUSH1 0x40 MSTORE DUP1 MLOAD SWAP1 PUSH1 0x20 ADD KECCAK256 SWAP1 POP SWAP3 SWAP2 POP POP JUMP JUMPDEST PUSH0 PUSH32 0x603985259A953DA1F65A522F589C17BD1D0117EC1D3ABB7C0788AEF251EF437 DUP3 PUSH0 ADD MLOAD DUP4 PUSH1 0x20 ADD MLOAD DUP5 PUSH1 0x40 ADD MLOAD DUP1 MLOAD SWAP1 PUSH1 0x20 ADD KECCAK256 DUP6 PUSH1 0x60 ADD MLOAD DUP7 PUSH1 0x80 ADD MLOAD DUP8 PUSH1 0xA0 ADD MLOAD DUP9 PUSH1 0xC0 ADD MLOAD PUSH1 0x40 MLOAD PUSH1 0x20 ADD PUSH2 0xFD7 SWAP9 SWAP8 SWAP7 SWAP6 SWAP5 SWAP4 SWAP3 SWAP2 SWAP1 PUSH2 0x2664 JUMP JUMPDEST PUSH1 0x40 MLOAD PUSH1 0x20 DUP2 DUP4 SUB SUB DUP2 MSTORE SWAP1 PUSH1 0x40 MSTORE DUP1 MLOAD SWAP1 PUSH1 0x20 ADD KECCAK256 SWAP1 POP SWAP2 SWAP1 POP JUMP JUMPDEST PUSH0 PUSH1 0x40 MLOAD SWAP1 POP SWAP1 JUMP JUMPDEST PUSH0 PUSH0 REVERT JUMPDEST PUSH0 PUSH0 REVERT JUMPDEST PUSH0 PUSH20 0xFFFFFFFFFFFFFFFFFFFFFFFFFFFFFFFFFFFFFFFF DUP3 AND SWAP1 POP SWAP2 SWAP1 POP JUMP JUMPDEST PUSH0 PUSH2 0x102E DUP3 PUSH2 0x1005 JUMP JUMPDEST SWAP1 POP SWAP2 SWAP1 POP JUMP JUMPDEST PUSH2 0x103E DUP2 PUSH2 0x1024 JUMP JUMPDEST DUP2 EQ PUSH2 0x1048 JUMPI PUSH0 PUSH0 REVERT JUMPDEST POP JUMP JUMPDEST PUSH0 DUP2 CALLDATALOAD SWAP1 POP PUSH2 0x1059 DUP2 PUSH2 0x1035 JUMP JUMPDEST SWAP3 SWAP2 POP POP JUMP JUMPDEST PUSH0 DUP2 SWAP1 POP SWAP2 SWAP1 POP JUMP JUMPDEST PUSH2 0x1071 DUP2 PUSH2 0x105F JUMP JUMPDEST DUP2 EQ PUSH2 0x107B JUMPI PUSH0 PUSH0 REVERT JUMPDEST POP JUMP JUMPDEST PUSH0 DUP2 CALLDATALOAD SWAP1 POP PUSH2 0x108C DUP2 PUSH2 0x1068 JUMP JUMPDEST SWAP3 SWAP2 POP POP JUMP JUMPDEST PUSH0 PUSH0 PUSH0 PUSH1 0x60 DUP5 DUP7 SUB SLT ISZERO PUSH2 0x10A9 JUMPI PUSH2 0x10A8 PUSH2 0xFFD JUMP JUMPDEST JUMPDEST PUSH0 PUSH2 0x10B6 DUP7 DUP3 DUP8 ADD PUSH2 0x104B JUMP JUMPDEST SWAP4 POP POP PUSH1 0x20 PUSH2 0x10C7 DUP7 DUP3 DUP8 ADD PUSH2 0x104B JUMP JUMPDEST SWAP3 POP POP PUSH1 0x40 PUSH2 0x10D8 DUP7 DUP3 DUP8 ADD PUSH2 0x107E JUMP JUMPDEST SWAP2 POP POP SWAP3 POP SWAP3 POP SWAP3 JUMP JUMPDEST PUSH0 DUP2 SWAP1 POP SWAP2 SWAP1 POP JUMP JUMPDEST PUSH2 0x10F4 DUP2 PUSH2 0x10E2 JUMP JUMPDEST DUP3 MSTORE POP POP JUMP JUMPDEST PUSH0 PUSH1 0x20 DUP3 ADD SWAP1 POP PUSH2 0x110D PUSH0 DUP4 ADD DUP5 PUSH2 0x10EB JUMP JUMPDEST SWAP3 SWAP2 POP POP JUMP JUMPDEST PUSH0 PUSH0 REVERT JUMPDEST PUSH0 PUSH0 REVERT JUMPDEST PUSH0 PUSH0 REVERT JUMPDEST PUSH0 PUSH0 DUP4 PUSH1 0x1F DUP5 ADD SLT PUSH2 0x1134 JUMPI PUSH2 0x1133 PUSH2 0x1113 JUMP JUMPDEST JUMPDEST DUP3 CALLDATALOAD SWAP1 POP PUSH8 0xFFFFFFFFFFFFFFFF DUP2 GT ISZERO PUSH2 0x1151 JUMPI PUSH2 0x1150 PUSH2 0x1117 JUMP JUMPDEST JUMPDEST PUSH1 0x20 DUP4 ADD SWAP2 POP DUP4 PUSH1 0x1 DUP3 MUL DUP4 ADD GT ISZERO PUSH2 0x116D JUMPI PUSH2 0x116C PUSH2 0x111B JUMP JUMPDEST JUMPDEST SWAP3 POP SWAP3 SWAP1 POP JUMP JUMPDEST PUSH0 PUSH0 PUSH0 PUSH1 0x40 DUP5 DUP7 SUB SLT ISZERO PUSH2 0x118B JUMPI PUSH2 0x118A PUSH2 0xFFD JUMP JUMPDEST JUMPDEST PUSH0 PUSH2 0x1198 DUP7 DUP3 DUP8 ADD PUSH2 0x107E JUMP JUMPDEST SWAP4 POP POP PUSH1 0x20 DUP5 ADD CALLDATALOAD PUSH8 0xFFFFFFFFFFFFFFFF DUP2 GT ISZERO PUSH2 0x11B9 JUMPI PUSH2 0x11B8 PUSH2 0x1001 JUMP JUMPDEST JUMPDEST PUSH2 0x11C5 DUP7 DUP3 DUP8 ADD PUSH2 0x111F JUMP JUMPDEST SWAP3 POP SWAP3 POP POP SWAP3 POP SWAP3 POP SWAP3 JUMP JUMPDEST PUSH2 0x11DA DUP2 PUSH2 0x105F JUMP JUMPDEST DUP3 MSTORE POP POP JUMP JUMPDEST PUSH0 PUSH1 0x20 DUP3 ADD SWAP1 POP PUSH2 0x11F3 PUSH0 DUP4 ADD DUP5 PUSH2 0x11D1 JUMP JUMPDEST SWAP3 SWAP2 POP POP JUMP JUMPDEST PUSH0 PUSH0 REVERT JUMPDEST PUSH0 PUSH2 0x120 DUP3 DUP5 SUB SLT ISZERO PUSH2 0x1213 JUMPI PUSH2 0x1212 PUSH2 0x11F9 JUMP JUMPDEST JUMPDEST DUP2 SWAP1 POP SWAP3 SWAP2 POP POP JUMP JUMPDEST PUSH0 PUSH0 PUSH1 0x40 DUP4 DUP6 SUB SLT ISZERO PUSH2 0x1232 JUMPI PUSH2 0x1231 PUSH2 0xFFD JUMP JUMPDEST JUMPDEST PUSH0 PUSH2 0x123F DUP6 DUP3 DUP7 ADD PUSH2 0x104B JUMP JUMPDEST SWAP3 POP POP PUSH1 0x20 DUP4 ADD CALLDATALOAD PUSH8 0xFFFFFFFFFFFFFFFF DUP2 GT ISZERO PUSH2 0x1260 JUMPI PUSH2 0x125F PUSH2 0x1001 JUMP JUMPDEST JUMPDEST PUSH2 0x126C DUP6 DUP3 DUP7 ADD PUSH2 0x11FD JUMP JUMPDEST SWAP2 POP POP SWAP3 POP SWAP3 SWAP1 POP JUMP JUMPDEST PUSH0 PUSH0 PUSH0 PUSH0 PUSH0 PUSH1 0x80 DUP7 DUP9 SUB SLT ISZERO PUSH2 0x128F JUMPI PUSH2 0x128E PUSH2 0xFFD JUMP JUMPDEST JUMPDEST PUSH0 PUSH2 0x129C DUP9 DUP3 DUP10 ADD PUSH2 0x104B JUMP JUMPDEST SWAP6 POP POP PUSH1 0x20 PUSH2 0x12AD DUP9 DUP3 DUP10 ADD PUSH2 0x104B JUMP JUMPDEST SWAP5 POP POP PUSH1 0x40 DUP7 ADD CALLDATALOAD PUSH8 0xFFFFFFFFFFFFFFFF DUP2 GT ISZERO PUSH2 0x12CE JUMPI PUSH2 0x12CD PUSH2 0x1001 JUMP JUMPDEST JUMPDEST PUSH2 0x12DA DUP9 DUP3 DUP10 ADD PUSH2 0x11FD JUMP JUMPDEST SWAP4 POP POP PUSH1 0x60 DUP7 ADD CALLDATALOAD PUSH8 0xFFFFFFFFFFFFFFFF DUP2 GT ISZERO PUSH2 0x12FB JUMPI PUSH2 0x12FA PUSH2 0x1001 JUMP JUMPDEST JUMPDEST PUSH2 0x1307 DUP9 DUP3 DUP10 ADD PUSH2 0x111F JUMP JUMPDEST SWAP3 POP SWAP3 POP POP SWAP3 SWAP6 POP SWAP3 SWAP6 SWAP1 SWAP4 POP JUMP JUMPDEST PUSH2 0x131F DUP2 PUSH2 0x10E2 JUMP JUMPDEST DUP2 EQ PUSH2 0x1329 JUMPI PUSH0 PUSH0 REVERT JUMPDEST POP JUMP JUMPDEST PUSH0 DUP2 CALLDATALOAD SWAP1 POP PUSH2 0x133A DUP2 PUSH2 0x1316 JUMP JUMPDEST SWAP3 SWAP2 POP POP JUMP JUMPDEST PUSH0 PUSH0 PUSH0 PUSH1 0x60 DUP5 DUP7 SUB SLT ISZERO PUSH2 0x1357 JUMPI PUSH2 0x1356 PUSH2 0xFFD JUMP JUMPDEST JUMPDEST PUSH0 PUSH2 0x1364 DUP7 DUP3 DUP8 ADD PUSH2 0x104B JUMP JUMPDEST SWAP4 POP POP PUSH1 0x20 PUSH2 0x1375 DUP7 DUP3 DUP8 ADD PUSH2 0x104B JUMP JUMPDEST SWAP3 POP POP PUSH1 0x40 PUSH2 0x1386 DUP7 DUP3 DUP8 ADD PUSH2 0x132C JUMP JUMPDEST SWAP2 POP POP SWAP3 POP SWAP3 POP SWAP3 JUMP JUMPDEST PUSH0 PUSH0 PUSH1 0x40 DUP4 DUP6 SUB SLT ISZERO PUSH2 0x13A6 JUMPI PUSH2 0x13A5 PUSH2 0xFFD JUMP JUMPDEST JUMPDEST PUSH0 PUSH2 0x13B3 DUP6 DUP3 DUP7 ADD PUSH2 0x104B JUMP JUMPDEST SWAP3 POP POP PUSH1 0x20 PUSH2 0x13C4 DUP6 DUP3 DUP7 ADD PUSH2 0x104B JUMP JUMPDEST SWAP2 POP POP SWAP3 POP SWAP3 SWAP1 POP JUMP JUMPDEST PUSH2 0x13D7 DUP2 PUSH2 0x1024 JUMP JUMPDEST DUP3 MSTORE POP POP JUMP JUMPDEST PUSH0 PUSH1 0x40 DUP3 ADD SWAP1 POP PUSH2 0x13F0 PUSH0 DUP4 ADD DUP6 PUSH2 0x13CE JUMP JUMPDEST PUSH2 0x13FD PUSH1 0x20 DUP4 ADD DUP5 PUSH2 0x11D1 JUMP JUMPDEST SWAP4 SWAP3 POP POP POP JUMP JUMPDEST PUSH0 DUP2 ISZERO ISZERO SWAP1 POP SWAP2 SWAP1 POP JUMP JUMPDEST PUSH2 0x1418 DUP2 PUSH2 0x1404 JUMP JUMPDEST DUP2 EQ PUSH2 0x1422 JUMPI PUSH0 PUSH0 REVERT JUMPDEST POP JUMP JUMPDEST PUSH0 DUP2 CALLDATALOAD SWAP1 POP PUSH2 0x1433 DUP2 PUSH2 0x140F JUMP JUMPDEST SWAP3 SWAP2 POP POP JUMP JUMPDEST PUSH0 PUSH1 0x20 DUP3 DUP5 SUB SLT ISZERO PUSH2 0x144E JUMPI PUSH2 0x144D PUSH2 0xFFD JUMP JUMPDEST JUMPDEST PUSH0 PUSH2 0x145B DUP5 DUP3 DUP6 ADD PUSH2 0x1425 JUMP JUMPDEST SWAP2 POP POP SWAP3 SWAP2 POP POP JUMP JUMPDEST PUSH0 PUSH0 REVERT JUMPDEST PUSH0 PUSH1 0x1F NOT PUSH1 0x1F DUP4 ADD AND SWAP1 POP SWAP2 SWAP1 POP JUMP JUMPDEST PUSH32 0x4E487B7100000000000000000000000000000000000000000000000000000000 PUSH0 MSTORE PUSH1 0x41 PUSH1 0x4 MSTORE PUSH1 0x24 PUSH0 REVERT JUMPDEST PUSH2 0x14AE DUP3 PUSH2 0x1468 JUMP JUMPDEST DUP2 ADD DUP2 DUP2 LT PUSH8 0xFFFFFFFFFFFFFFFF DUP3 GT OR ISZERO PUSH2 0x14CD JUMPI PUSH2 0x14CC PUSH2 0x1478 JUMP JUMPDEST JUMPDEST DUP1 PUSH1 0x40 MSTORE POP POP POP JUMP JUMPDEST PUSH0 PUSH2 0x14DF PUSH2 0xFF4 JUMP JUMPDEST SWAP1 POP PUSH2 0x14EB DUP3 DUP3 PUSH2 0x14A5 JUMP JUMPDEST SWAP2 SWAP1 POP JUMP JUMPDEST PUSH0 PUSH0 REVERT JUMPDEST PUSH0 PUSH1 0xFF DUP3 AND SWAP1 POP SWAP2 SWAP1 POP JUMP JUMPDEST PUSH2 0x1509 DUP2 PUSH2 0x14F4 JUMP JUMPDEST DUP2 EQ PUSH2 0x1513 JUMPI PUSH0 PUSH0 REVERT JUMPDEST POP JUMP JUMPDEST PUSH0 DUP2 CALLDATALOAD SWAP1 POP PUSH2 0x1524 DUP2 PUSH2 0x1500 JUMP JUMPDEST SWAP3 SWAP2 POP POP JUMP JUMPDEST PUSH0 PUSH8 0xFFFFFFFFFFFFFFFF DUP3 GT ISZERO PUSH2 0x1544 JUMPI PUSH2 0x1543 PUSH2 0x1478 JUMP JUMPDEST JUMPDEST PUSH1 0x20 DUP3 MUL SWAP1 POP PUSH1 0x20 DUP2 ADD SWAP1 POP SWAP2 SWAP1 POP JUMP JUMPDEST PUSH0 PUSH0 REVERT JUMPDEST PUSH0 PUSH8 0xFFFFFFFFFFFFFFFF DUP3 GT ISZERO PUSH2 0x1573 JUMPI PUSH2 0x1572 PUSH2 0x1478 JUMP JUMPDEST JUMPDEST PUSH2 0x157C DUP3 PUSH2 0x1468 JUMP JUMPDEST SWAP1 POP PUSH1 0x20 DUP2 ADD SWAP1 POP SWAP2 SWAP1 POP JUMP JUMPDEST DUP3 DUP2 DUP4 CALLDATACOPY PUSH0 DUP4 DUP4 ADD MSTORE POP POP POP JUMP JUMPDEST PUSH0 PUSH2 0x15A9 PUSH2 0x15A4 DUP5 PUSH2 0x1559 JUMP JUMPDEST PUSH2 0x14D6 JUMP JUMPDEST SWAP1 POP DUP3 DUP2 MSTORE PUSH1 0x20 DUP2 ADD DUP5 DUP5 DUP5 ADD GT ISZERO PUSH2 0x15C5 JUMPI PUSH2 0x15C4 PUSH2 0x1555 JUMP JUMPDEST JUMPDEST PUSH2 0x15D0 DUP5 DUP3 DUP6 PUSH2 0x1589 JUMP JUMPDEST POP SWAP4 SWAP3 POP POP POP JUMP JUMPDEST PUSH0 DUP3 PUSH1 0x1F DUP4 ADD SLT PUSH2 0x15EC JUMPI PUSH2 0x15EB PUSH2 0x1113 JUMP JUMPDEST JUMPDEST DUP2 CALLDATALOAD PUSH2 0x15FC DUP5 DUP3 PUSH1 0x20 DUP7 ADD PUSH2 0x1597 JUMP JUMPDEST SWAP2 POP POP SWAP3 SWAP2 POP POP JUMP JUMPDEST PUSH0 PUSH1 0xE0 DUP3 DUP5 SUB SLT ISZERO PUSH2 0x161A JUMPI PUSH2 0x1619 PUSH2 0x1464 JUMP JUMPDEST JUMPDEST PUSH2 0x1624 PUSH1 0xE0 PUSH2 0x14D6 JUMP JUMPDEST SWAP1 POP PUSH0 PUSH2 0x1633 DUP5 DUP3 DUP6 ADD PUSH2 0x104B JUMP JUMPDEST PUSH0 DUP4 ADD MSTORE POP PUSH1 0x20 PUSH2 0x1646 DUP5 DUP3 DUP6 ADD PUSH2 0x132C JUMP JUMPDEST PUSH1 0x20 DUP4 ADD MSTORE POP PUSH1 0x40 DUP3 ADD CALLDATALOAD PUSH8 0xFFFFFFFFFFFFFFFF DUP2 GT ISZERO PUSH2 0x166A JUMPI PUSH2 0x1669 PUSH2 0x14F0 JUMP JUMPDEST JUMPDEST PUSH2 0x1676 DUP5 DUP3 DUP6 ADD PUSH2 0x15D8 JUMP JUMPDEST PUSH1 0x40 DUP4 ADD MSTORE POP PUSH1 0x60 PUSH2 0x168A DUP5 DUP3 DUP6 ADD PUSH2 0x132C JUMP JUMPDEST PUSH1 0x60 DUP4 ADD MSTORE POP PUSH1 0x80 PUSH2 0x169E DUP5 DUP3 DUP6 ADD PUSH2 0x1425 JUMP JUMPDEST PUSH1 0x80 DUP4 ADD MSTORE POP PUSH1 0xA0 PUSH2 0x16B2 DUP5 DUP3 DUP6 ADD PUSH2 0x1425 JUMP JUMPDEST PUSH1 0xA0 DUP4 ADD MSTORE POP PUSH1 0xC0 PUSH2 0x16C6 DUP5 DUP3 DUP6 ADD PUSH2 0x132C JUMP JUMPDEST PUSH1 0xC0 DUP4 ADD MSTORE POP SWAP3 SWAP2 POP POP JUMP JUMPDEST PUSH0 PUSH2 0x16E4 PUSH2 0x16DF DUP5 PUSH2 0x152A JUMP JUMPDEST PUSH2 0x14D6 JUMP JUMPDEST SWAP1 POP DUP1 DUP4 DUP3 MSTORE PUSH1 0x20 DUP3 ADD SWAP1 POP PUSH1 0x20 DUP5 MUL DUP4 ADD DUP6 DUP2 GT ISZERO PUSH2 0x1707 JUMPI PUSH2 0x1706 PUSH2 0x111B JUMP JUMPDEST JUMPDEST DUP4 JUMPDEST DUP2 DUP2 LT ISZERO PUSH2 0x174E JUMPI DUP1 CALLDATALOAD PUSH8 0xFFFFFFFFFFFFFFFF DUP2 GT ISZERO PUSH2 0x172C JUMPI PUSH2 0x172B PUSH2 0x1113 JUMP JUMPDEST JUMPDEST DUP1 DUP7 ADD PUSH2 0x1739 DUP10 DUP3 PUSH2 0x1605 JUMP JUMPDEST DUP6 MSTORE PUSH1 0x20 DUP6 ADD SWAP5 POP POP POP PUSH1 0x20 DUP2 ADD SWAP1 POP PUSH2 0x1709 JUMP JUMPDEST POP POP POP SWAP4 SWAP3 POP POP POP JUMP JUMPDEST PUSH0 DUP3 PUSH1 0x1F DUP4 ADD SLT PUSH2 0x176C JUMPI PUSH2 0x176B PUSH2 0x1113 JUMP JUMPDEST JUMPDEST DUP2 CALLDATALOAD PUSH2 0x177C DUP5 DUP3 PUSH1 0x20 DUP7 ADD PUSH2 0x16D2 JUMP JUMPDEST SWAP2 POP POP SWAP3 SWAP2 POP POP JUMP JUMPDEST PUSH0 PUSH8 0xFFFFFFFFFFFFFFFF DUP3 GT ISZERO PUSH2 0x179F JUMPI PUSH2 0x179E PUSH2 0x1478 JUMP JUMPDEST JUMPDEST PUSH1 0x20 DUP3 MUL SWAP1 POP PUSH1 0x20 DUP2 ADD SWAP1 POP SWAP2 SWAP1 POP JUMP JUMPDEST PUSH0 PUSH2 0x17C2 PUSH2 0x17BD DUP5 PUSH2 0x1785 JUMP JUMPDEST PUSH2 0x14D6 JUMP JUMPDEST SWAP1 POP DUP1 DUP4 DUP3 MSTORE PUSH1 0x20 DUP3 ADD SWAP1 POP PUSH1 0x20 DUP5 MUL DUP4 ADD DUP6 DUP2 GT ISZERO PUSH2 0x17E5 JUMPI PUSH2 0x17E4 PUSH2 0x111B JUMP JUMPDEST JUMPDEST DUP4 JUMPDEST DUP2 DUP2 LT ISZERO PUSH2 0x180E JUMPI DUP1 PUSH2 0x17FA DUP9 DUP3 PUSH2 0x104B JUMP JUMPDEST DUP5 MSTORE PUSH1 0x20 DUP5 ADD SWAP4 POP POP PUSH1 0x20 DUP2 ADD SWAP1 POP PUSH2 0x17E7 JUMP JUMPDEST POP POP POP SWAP4 SWAP3 POP POP POP JUMP JUMPDEST PUSH0 DUP3 PUSH1 0x1F DUP4 ADD SLT PUSH2 0x182C JUMPI PUSH2 0x182B PUSH2 0x1113 JUMP JUMPDEST JUMPDEST DUP2 CALLDATALOAD PUSH2 0x183C DUP5 DUP3 PUSH1 0x20 DUP7 ADD PUSH2 0x17B0 JUMP JUMPDEST SWAP2 POP POP SWAP3 SWAP2 POP POP JUMP JUMPDEST PUSH0 PUSH2 0x120 DUP3 DUP5 SUB SLT ISZERO PUSH2 0x185B JUMPI PUSH2 0x185A PUSH2 0x1464 JUMP JUMPDEST JUMPDEST PUSH2 0x1866 PUSH2 0x120 PUSH2 0x14D6 JUMP JUMPDEST SWAP1 POP PUSH0 PUSH2 0x1875 DUP5 DUP3 DUP6 ADD PUSH2 0x1516 JUMP JUMPDEST PUSH0 DUP4 ADD MSTORE POP PUSH1 0x20 PUSH2 0x1888 DUP5 DUP3 DUP6 ADD PUSH2 0x1425 JUMP JUMPDEST PUSH1 0x20 DUP4 ADD MSTORE POP PUSH1 0x40 DUP3 ADD CALLDATALOAD PUSH8 0xFFFFFFFFFFFFFFFF DUP2 GT ISZERO PUSH2 0x18AC JUMPI PUSH2 0x18AB PUSH2 0x14F0 JUMP JUMPDEST JUMPDEST PUSH2 0x18B8 DUP5 DUP3 DUP6 ADD PUSH2 0x1758 JUMP JUMPDEST PUSH1 0x40 DUP4 ADD MSTORE POP PUSH1 0x60 PUSH2 0x18CC DUP5 DUP3 DUP6 ADD PUSH2 0x132C JUMP JUMPDEST PUSH1 0x60 DUP4 ADD MSTORE POP PUSH1 0x80 PUSH2 0x18E0 DUP5 DUP3 DUP6 ADD PUSH2 0x132C JUMP JUMPDEST PUSH1 0x80 DUP4 ADD MSTORE POP PUSH1 0xA0 DUP3 ADD CALLDATALOAD PUSH8 0xFFFFFFFFFFFFFFFF DUP2 GT ISZERO PUSH2 0x1904 JUMPI PUSH2 0x1903 PUSH2 0x14F0 JUMP JUMPDEST JUMPDEST PUSH2 0x1910 DUP5 DUP3 DUP6 ADD PUSH2 0x15D8 JUMP JUMPDEST PUSH1 0xA0 DUP4 ADD MSTORE POP PUSH1 0xC0 PUSH2 0x1924 DUP5 DUP3 DUP6 ADD PUSH2 0x107E JUMP JUMPDEST PUSH1 0xC0 DUP4 ADD MSTORE POP PUSH1 0xE0 PUSH2 0x1938 DUP5 DUP3 DUP6 ADD PUSH2 0x107E JUMP JUMPDEST PUSH1 0xE0 DUP4 ADD MSTORE POP PUSH2 0x100 DUP3 ADD CALLDATALOAD PUSH8 0xFFFFFFFFFFFFFFFF DUP2 GT ISZERO PUSH2 0x195D JUMPI PUSH2 0x195C PUSH2 0x14F0 JUMP JUMPDEST JUMPDEST PUSH2 0x1969 DUP5 DUP3 DUP6 ADD PUSH2 0x1818 JUMP JUMPDEST PUSH2 0x100 DUP4 ADD MSTORE POP SWAP3 SWAP2 POP POP JUMP JUMPDEST PUSH0 PUSH2 0x1981 CALLDATASIZE DUP4 PUSH2 0x1845 JUMP JUMPDEST SWAP1 POP SWAP2 SWAP1 POP JUMP JUMPDEST PUSH0 DUP2 SWAP1 POP SWAP3 SWAP2 POP POP JUMP JUMPDEST PUSH32 0x1901000000000000000000000000000000000000000000000000000000000000 PUSH0 DUP3 ADD MSTORE POP JUMP JUMPDEST PUSH0 PUSH2 0x19C6 PUSH1 0x2 DUP4 PUSH2 0x1988 JUMP JUMPDEST SWAP2 POP PUSH2 0x19D1 DUP3 PUSH2 0x1992 JUMP JUMPDEST PUSH1 0x2 DUP3 ADD SWAP1 POP SWAP2 SWAP1 POP JUMP JUMPDEST PUSH0 DUP2 SWAP1 POP SWAP2 SWAP1 POP JUMP JUMPDEST PUSH2 0x19F6 PUSH2 0x19F1 DUP3 PUSH2 0x105F JUMP JUMPDEST PUSH2 0x19DC JUMP JUMPDEST DUP3 MSTORE POP POP JUMP JUMPDEST PUSH0 PUSH2 0x1A06 DUP3 PUSH2 0x19BA JUMP JUMPDEST SWAP2 POP PUSH2 0x1A12 DUP3 DUP6 PUSH2 0x19E5 JUMP JUMPDEST PUSH1 0x20 DUP3 ADD SWAP2 POP PUSH2 0x1A22 DUP3 DUP5 PUSH2 0x19E5 JUMP JUMPDEST PUSH1 0x20 DUP3 ADD SWAP2 POP DUP2 SWAP1 POP SWAP4 SWAP3 POP POP POP JUMP JUMPDEST PUSH0 PUSH2 0x1A40 PUSH1 0x20 DUP5 ADD DUP5 PUSH2 0x1516 JUMP JUMPDEST SWAP1 POP SWAP3 SWAP2 POP POP JUMP JUMPDEST PUSH2 0x1A51 DUP2 PUSH2 0x14F4 JUMP JUMPDEST DUP3 MSTORE POP POP JUMP JUMPDEST PUSH0 PUSH2 0x1A65 PUSH1 0x20 DUP5 ADD DUP5 PUSH2 0x1425 JUMP JUMPDEST SWAP1 POP SWAP3 SWAP2 POP POP JUMP JUMPDEST PUSH2 0x1A76 DUP2 PUSH2 0x1404 JUMP JUMPDEST DUP3 MSTORE POP POP JUMP JUMPDEST PUSH0 PUSH0 REVERT JUMPDEST PUSH0 PUSH0 REVERT JUMPDEST PUSH0 PUSH0 REVERT JUMPDEST PUSH0 PUSH0 DUP4 CALLDATALOAD PUSH1 0x1 PUSH1 0x20 SUB DUP5 CALLDATASIZE SUB SUB DUP2 SLT PUSH2 0x1AA4 JUMPI PUSH2 0x1AA3 PUSH2 0x1A84 JUMP JUMPDEST JUMPDEST DUP4 DUP2 ADD SWAP3 POP DUP3 CALLDATALOAD SWAP2 POP PUSH1 0x20 DUP4 ADD SWAP3 POP PUSH8 0xFFFFFFFFFFFFFFFF DUP3 GT ISZERO PUSH2 0x1ACC JUMPI PUSH2 0x1ACB PUSH2 0x1A7C JUMP JUMPDEST JUMPDEST PUSH1 0x20 DUP3 MUL CALLDATASIZE SUB DUP4 SGT ISZERO PUSH2 0x1AE2 JUMPI PUSH2 0x1AE1 PUSH2 0x1A80 JUMP JUMPDEST JUMPDEST POP SWAP3 POP SWAP3 SWAP1 POP JUMP JUMPDEST PUSH0 DUP3 DUP3 MSTORE PUSH1 0x20 DUP3 ADD SWAP1 POP SWAP3 SWAP2 POP POP JUMP JUMPDEST PUSH0 DUP2 SWAP1 POP SWAP2 SWAP1 POP JUMP JUMPDEST PUSH0 PUSH2 0x1B11 PUSH1 0x20 DUP5 ADD DUP5 PUSH2 0x104B JUMP JUMPDEST SWAP1 POP SWAP3 SWAP2 POP POP JUMP JUMPDEST PUSH2 0x1B22 DUP2 PUSH2 0x1024 JUMP JUMPDEST DUP3 MSTORE POP POP JUMP JUMPDEST PUSH0 PUSH2 0x1B36 PUSH1 0x20 DUP5 ADD DUP5 PUSH2 0x132C JUMP JUMPDEST SWAP1 POP SWAP3 SWAP2 POP POP JUMP JUMPDEST PUSH2 0x1B47 DUP2 PUSH2 0x10E2 JUMP JUMPDEST DUP3 MSTORE POP POP JUMP JUMPDEST PUSH0 PUSH0 DUP4 CALLDATALOAD PUSH1 0x1 PUSH1 0x20 SUB DUP5 CALLDATASIZE SUB SUB DUP2 SLT PUSH2 0x1B69 JUMPI PUSH2 0x1B68 PUSH2 0x1A84 JUMP JUMPDEST JUMPDEST DUP4 DUP2 ADD SWAP3 POP DUP3 CALLDATALOAD SWAP2 POP PUSH1 0x20 DUP4 ADD SWAP3 POP PUSH8 0xFFFFFFFFFFFFFFFF DUP3 GT ISZERO PUSH2 0x1B91 JUMPI PUSH2 0x1B90 PUSH2 0x1A7C JUMP JUMPDEST JUMPDEST PUSH1 0x1 DUP3 MUL CALLDATASIZE SUB DUP4 SGT ISZERO PUSH2 0x1BA7 JUMPI PUSH2 0x1BA6 PUSH2 0x1A80 JUMP JUMPDEST JUMPDEST POP SWAP3 POP SWAP3 SWAP1 POP JUMP JUMPDEST PUSH0 DUP3 DUP3 MSTORE PUSH1 0x20 DUP3 ADD SWAP1 POP SWAP3 SWAP2 POP POP JUMP JUMPDEST PUSH0 PUSH2 0x1BCA DUP4 DUP6 PUSH2 0x1BAF JUMP JUMPDEST SWAP4 POP PUSH2 0x1BD7 DUP4 DUP6 DUP5 PUSH2 0x1589 JUMP JUMPDEST PUSH2 0x1BE0 DUP4 PUSH2 0x1468 JUMP JUMPDEST DUP5 ADD SWAP1 POP SWAP4 SWAP3 POP POP POP JUMP JUMPDEST PUSH0 PUSH1 0xE0 DUP4 ADD PUSH2 0x1BFC PUSH0 DUP5 ADD DUP5 PUSH2 0x1B03 JUMP JUMPDEST PUSH2 0x1C08 PUSH0 DUP7 ADD DUP3 PUSH2 0x1B19 JUMP JUMPDEST POP PUSH2 0x1C16 PUSH1 0x20 DUP5 ADD DUP5 PUSH2 0x1B28 JUMP JUMPDEST PUSH2 0x1C23 PUSH1 0x20 DUP7 ADD DUP3 PUSH2 0x1B3E JUMP JUMPDEST POP PUSH2 0x1C31 PUSH1 0x40 DUP5 ADD DUP5 PUSH2 0x1B4D JUMP JUMPDEST DUP6 DUP4 SUB PUSH1 0x40 DUP8 ADD MSTORE PUSH2 0x1C44 DUP4 DUP3 DUP5 PUSH2 0x1BBF JUMP JUMPDEST SWAP3 POP POP POP PUSH2 0x1C55 PUSH1 0x60 DUP5 ADD DUP5 PUSH2 0x1B28 JUMP JUMPDEST PUSH2 0x1C62 PUSH1 0x60 DUP7 ADD DUP3 PUSH2 0x1B3E JUMP JUMPDEST POP PUSH2 0x1C70 PUSH1 0x80 DUP5 ADD DUP5 PUSH2 0x1A57 JUMP JUMPDEST PUSH2 0x1C7D PUSH1 0x80 DUP7 ADD DUP3 PUSH2 0x1A6D JUMP JUMPDEST POP PUSH2 0x1C8B PUSH1 0xA0 DUP5 ADD DUP5 PUSH2 0x1A57 JUMP JUMPDEST PUSH2 0x1C98 PUSH1 0xA0 DUP7 ADD DUP3 PUSH2 0x1A6D JUMP JUMPDEST POP PUSH2 0x1CA6 PUSH1 0xC0 DUP5 ADD DUP5 PUSH2 0x1B28 JUMP JUMPDEST PUSH2 0x1CB3 PUSH1 0xC0 DUP7 ADD DUP3 PUSH2 0x1B3E JUMP JUMPDEST POP DUP1 SWAP2 POP POP SWAP3 SWAP2 POP POP JUMP JUMPDEST PUSH0 PUSH2 0x1CC9 DUP4 DUP4 PUSH2 0x1BEB JUMP JUMPDEST SWAP1 POP SWAP3 SWAP2 POP POP JUMP JUMPDEST PUSH0 DUP3 CALLDATALOAD PUSH1 0x1 PUSH1 0xE0 SUB DUP4 CALLDATASIZE SUB SUB DUP2 SLT PUSH2 0x1CEC JUMPI PUSH2 0x1CEB PUSH2 0x1A84 JUMP JUMPDEST JUMPDEST DUP3 DUP2 ADD SWAP2 POP POP SWAP3 SWAP2 POP POP JUMP JUMPDEST PUSH0 PUSH1 0x20 DUP3 ADD SWAP1 POP SWAP2 SWAP1 POP JUMP JUMPDEST PUSH0 PUSH2 0x1D0F DUP4 DUP6 PUSH2 0x1AEA JUMP JUMPDEST SWAP4 POP DUP4 PUSH1 0x20 DUP5 MUL DUP6 ADD PUSH2 0x1D21 DUP5 PUSH2 0x1AFA JUMP JUMPDEST DUP1 PUSH0 JUMPDEST DUP8 DUP2 LT ISZERO PUSH2 0x1D64 JUMPI DUP5 DUP5 SUB DUP10 MSTORE PUSH2 0x1D3B DUP3 DUP5 PUSH2 0x1CD1 JUMP JUMPDEST PUSH2 0x1D45 DUP6 DUP3 PUSH2 0x1CBE JUMP JUMPDEST SWAP5 POP PUSH2 0x1D50 DUP4 PUSH2 0x1CF8 JUMP JUMPDEST SWAP3 POP PUSH1 0x20 DUP11 ADD SWAP10 POP POP PUSH1 0x1 DUP2 ADD SWAP1 POP PUSH2 0x1D24 JUMP JUMPDEST POP DUP3 SWAP8 POP DUP8 SWAP5 POP POP POP POP POP SWAP4 SWAP3 POP POP POP JUMP JUMPDEST PUSH0 PUSH2 0x1D84 PUSH1 0x20 DUP5 ADD DUP5 PUSH2 0x107E JUMP JUMPDEST SWAP1 POP SWAP3 SWAP2 POP POP JUMP JUMPDEST PUSH2 0x1D95 DUP2 PUSH2 0x105F JUMP JUMPDEST DUP3 MSTORE POP POP JUMP JUMPDEST PUSH0 PUSH0 DUP4 CALLDATALOAD PUSH1 0x1 PUSH1 0x20 SUB DUP5 CALLDATASIZE SUB SUB DUP2 SLT PUSH2 0x1DB7 JUMPI PUSH2 0x1DB6 PUSH2 0x1A84 JUMP JUMPDEST JUMPDEST DUP4 DUP2 ADD SWAP3 POP DUP3 CALLDATALOAD SWAP2 POP PUSH1 0x20 DUP4 ADD SWAP3 POP PUSH8 0xFFFFFFFFFFFFFFFF DUP3 GT ISZERO PUSH2 0x1DDF JUMPI PUSH2 0x1DDE PUSH2 0x1A7C JUMP JUMPDEST JUMPDEST PUSH1 0x20 DUP3 MUL CALLDATASIZE SUB DUP4 SGT ISZERO PUSH2 0x1DF5 JUMPI PUSH2 0x1DF4 PUSH2 0x1A80 JUMP JUMPDEST JUMPDEST POP SWAP3 POP SWAP3 SWAP1 POP JUMP JUMPDEST PUSH0 DUP3 DUP3 MSTORE PUSH1 0x20 DUP3 ADD SWAP1 POP SWAP3 SWAP2 POP POP JUMP JUMPDEST PUSH0 DUP2 SWAP1 POP SWAP2 SWAP1 POP JUMP JUMPDEST PUSH0 PUSH2 0x1E21 DUP4 DUP4 PUSH2 0x1B19 JUMP JUMPDEST PUSH1 0x20 DUP4 ADD SWAP1 POP SWAP3 SWAP2 POP POP JUMP JUMPDEST PUSH0 PUSH1 0x20 DUP3 ADD SWAP1 POP SWAP2 SWAP1 POP JUMP JUMPDEST PUSH0 PUSH2 0x1E44 DUP4 DUP6 PUSH2 0x1DFD JUMP JUMPDEST SWAP4 POP PUSH2 0x1E4F DUP3 PUSH2 0x1E0D JUMP JUMPDEST DUP1 PUSH0 JUMPDEST DUP6 DUP2 LT ISZERO PUSH2 0x1E87 JUMPI PUSH2 0x1E64 DUP3 DUP5 PUSH2 0x1B03 JUMP JUMPDEST PUSH2 0x1E6E DUP9 DUP3 PUSH2 0x1E16 JUMP JUMPDEST SWAP8 POP PUSH2 0x1E79 DUP4 PUSH2 0x1E2D JUMP JUMPDEST SWAP3 POP POP PUSH1 0x1 DUP2 ADD SWAP1 POP PUSH2 0x1E52 JUMP JUMPDEST POP DUP6 SWAP3 POP POP POP SWAP4 SWAP3 POP POP POP JUMP JUMPDEST PUSH0 PUSH2 0x120 DUP4 ADD PUSH2 0x1EA6 PUSH0 DUP5 ADD DUP5 PUSH2 0x1A32 JUMP JUMPDEST PUSH2 0x1EB2 PUSH0 DUP7 ADD DUP3 PUSH2 0x1A48 JUMP JUMPDEST POP PUSH2 0x1EC0 PUSH1 0x20 DUP5 ADD DUP5 PUSH2 0x1A57 JUMP JUMPDEST PUSH2 0x1ECD PUSH1 0x20 DUP7 ADD DUP3 PUSH2 0x1A6D JUMP JUMPDEST POP PUSH2 0x1EDB PUSH1 0x40 DUP5 ADD DUP5 PUSH2 0x1A88 JUMP JUMPDEST DUP6 DUP4 SUB PUSH1 0x40 DUP8 ADD MSTORE PUSH2 0x1EEE DUP4 DUP3 DUP5 PUSH2 0x1D04 JUMP JUMPDEST SWAP3 POP POP POP PUSH2 0x1EFF PUSH1 0x60 DUP5 ADD DUP5 PUSH2 0x1B28 JUMP JUMPDEST PUSH2 0x1F0C PUSH1 0x60 DUP7 ADD DUP3 PUSH2 0x1B3E JUMP JUMPDEST POP PUSH2 0x1F1A PUSH1 0x80 DUP5 ADD DUP5 PUSH2 0x1B28 JUMP JUMPDEST PUSH2 0x1F27 PUSH1 0x80 DUP7 ADD DUP3 PUSH2 0x1B3E JUMP JUMPDEST POP PUSH2 0x1F35 PUSH1 0xA0 DUP5 ADD DUP5 PUSH2 0x1B4D JUMP JUMPDEST DUP6 DUP4 SUB PUSH1 0xA0 DUP8 ADD MSTORE PUSH2 0x1F48 DUP4 DUP3 DUP5 PUSH2 0x1BBF JUMP JUMPDEST SWAP3 POP POP POP PUSH2 0x1F59 PUSH1 0xC0 DUP5 ADD DUP5 PUSH2 0x1D76 JUMP JUMPDEST PUSH2 0x1F66 PUSH1 0xC0 DUP7 ADD DUP3 PUSH2 0x1D8C JUMP JUMPDEST POP PUSH2 0x1F74 PUSH1 0xE0 DUP5 ADD DUP5 PUSH2 0x1D76 JUMP JUMPDEST PUSH2 0x1F81 PUSH1 0xE0 DUP7 ADD DUP3 PUSH2 0x1D8C JUMP JUMPDEST POP PUSH2 0x1F90 PUSH2 0x100 DUP5 ADD DUP5 PUSH2 0x1D9B JUMP JUMPDEST DUP6 DUP4 SUB PUSH2 0x100 DUP8 ADD MSTORE PUSH2 0x1FA4 DUP4 DUP3 DUP5 PUSH2 0x1E39 JUMP JUMPDEST SWAP3 POP POP POP DUP1 SWAP2 POP POP SWAP3 SWAP2 POP POP JUMP JUMPDEST PUSH0 DUP3 DUP3 MSTORE PUSH1 0x20 DUP3 ADD SWAP1 POP SWAP3 SWAP2 POP POP JUMP JUMPDEST PUSH0 PUSH2 0x1FCD DUP4 DUP6 PUSH2 0x1FB2 JUMP JUMPDEST SWAP4 POP PUSH2 0x1FDA DUP4 DUP6 DUP5 PUSH2 0x1589 JUMP JUMPDEST PUSH2 0x1FE3 DUP4 PUSH2 0x1468 JUMP JUMPDEST DUP5 ADD SWAP1 POP SWAP4 SWAP3 POP POP POP JUMP JUMPDEST PUSH0 PUSH1 0x80 DUP3 ADD SWAP1 POP PUSH2 0x2001 PUSH0 DUP4 ADD DUP9 PUSH2 0x13CE JUMP JUMPDEST PUSH2 0x200E PUSH1 0x20 DUP4 ADD DUP8 PUSH2 0x13CE JUMP JUMPDEST DUP2 DUP2 SUB PUSH1 0x40 DUP4 ADD MSTORE PUSH2 0x2020 DUP2 DUP7 PUSH2 0x1E94 JUMP JUMPDEST SWAP1 POP DUP2 DUP2 SUB PUSH1 0x60 DUP4 ADD MSTORE PUSH2 0x2035 DUP2 DUP5 DUP7 PUSH2 0x1FC2 JUMP JUMPDEST SWAP1 POP SWAP7 SWAP6 POP POP POP POP POP POP JUMP JUMPDEST PUSH0 PUSH1 0x60 DUP3 ADD SWAP1 POP PUSH2 0x2054 PUSH0 DUP4 ADD DUP7 PUSH2 0x13CE JUMP JUMPDEST PUSH2 0x2061 PUSH1 0x20 DUP4 ADD DUP6 PUSH2 0x13CE JUMP JUMPDEST PUSH2 0x206E PUSH1 0x40 DUP4 ADD DUP5 PUSH2 0x11D1 JUMP JUMPDEST SWAP5 SWAP4 POP POP POP POP JUMP JUMPDEST PUSH0 PUSH1 0x80 DUP3 ADD SWAP1 POP PUSH2 0x2089 PUSH0 DUP4 ADD DUP8 PUSH2 0x13CE JUMP JUMPDEST PUSH2 0x2096 PUSH1 0x20 DUP4 ADD DUP7 PUSH2 0x13CE JUMP JUMPDEST PUSH2 0x20A3 PUSH1 0x40 DUP4 ADD DUP6 PUSH2 0x11D1 JUMP JUMPDEST PUSH2 0x20B0 PUSH1 0x60 DUP4 ADD DUP5 PUSH2 0x10EB JUMP JUMPDEST SWAP6 SWAP5 POP POP POP POP POP JUMP JUMPDEST PUSH32 0x4E487B7100000000000000000000000000000000000000000000000000000000 PUSH0 MSTORE PUSH1 0x11 PUSH1 0x4 MSTORE PUSH1 0x24 PUSH0 REVERT JUMPDEST PUSH0 PUSH2 0x20F0 DUP3 PUSH2 0x10E2 JUMP JUMPDEST SWAP2 POP PUSH2 0x20FB DUP4 PUSH2 0x10E2 JUMP JUMPDEST SWAP3 POP DUP3 DUP3 SUB SWAP1 POP DUP2 DUP2 GT ISZERO PUSH2 0x2113 JUMPI PUSH2 0x2112 PUSH2 0x20B9 JUMP JUMPDEST JUMPDEST SWAP3 SWAP2 POP POP JUMP JUMPDEST PUSH0 PUSH2 0x2123 DUP3 PUSH2 0x10E2 JUMP JUMPDEST SWAP2 POP PUSH2 0x212E DUP4 PUSH2 0x10E2 JUMP JUMPDEST SWAP3 POP DUP3 DUP3 ADD SWAP1 POP DUP1 DUP3 GT ISZERO PUSH2 0x2146 JUMPI PUSH2 0x2145 PUSH2 0x20B9 JUMP JUMPDEST JUMPDEST SWAP3 SWAP2 POP POP JUMP JUMPDEST PUSH0 PUSH0 REVERT JUMPDEST PUSH0 PUSH0 REVERT JUMPDEST PUSH0 PUSH0 DUP6 DUP6 GT ISZERO PUSH2 0x2167 JUMPI PUSH2 0x2166 PUSH2 0x214C JUMP JUMPDEST JUMPDEST DUP4 DUP7 GT ISZERO PUSH2 0x2178 JUMPI PUSH2 0x2177 PUSH2 0x2150 JUMP JUMPDEST JUMPDEST PUSH1 0x1 DUP6 MUL DUP4 ADD SWAP2 POP DUP5 DUP7 SUB SWAP1 POP SWAP5 POP SWAP5 SWAP3 POP POP POP JUMP JUMPDEST PUSH0 PUSH1 0xA0 DUP3 ADD SWAP1 POP PUSH2 0x21A1 PUSH0 DUP4 ADD DUP9 PUSH2 0x11D1 JUMP JUMPDEST PUSH2 0x21AE PUSH1 0x20 DUP4 ADD DUP8 PUSH2 0x11D1 JUMP JUMPDEST PUSH2 0x21BB PUSH1 0x40 DUP4 ADD DUP7 PUSH2 0x11D1 JUMP JUMPDEST PUSH2 0x21C8 PUSH1 0x60 DUP4 ADD DUP6 PUSH2 0x10EB JUMP JUMPDEST PUSH2 0x21D5 PUSH1 0x80 DUP4 ADD DUP5 PUSH2 0x13CE JUMP JUMPDEST SWAP7 SWAP6 POP POP POP POP POP POP JUMP JUMPDEST PUSH0 DUP2 MLOAD SWAP1 POP SWAP2 SWAP1 POP JUMP JUMPDEST PUSH0 DUP2 SWAP1 POP SWAP3 SWAP2 POP POP JUMP JUMPDEST PUSH0 DUP2 SWAP1 POP PUSH1 0x20 DUP3 ADD SWAP1 POP SWAP2 SWAP1 POP JUMP JUMPDEST PUSH2 0x220B DUP2 PUSH2 0x1024 JUMP JUMPDEST DUP3 MSTORE POP POP JUMP JUMPDEST PUSH0 PUSH2 0x221C DUP4 DUP4 PUSH2 0x2202 JUMP JUMPDEST PUSH1 0x20 DUP4 ADD SWAP1 POP SWAP3 SWAP2 POP POP JUMP JUMPDEST PUSH0 PUSH1 0x20 DUP3 ADD SWAP1 POP SWAP2 SWAP1 POP JUMP JUMPDEST PUSH0 PUSH2 0x223E DUP3 PUSH2 0x21DF JUMP JUMPDEST PUSH2 0x2248 DUP2 DUP6 PUSH2 0x21E9 JUMP JUMPDEST SWAP4 POP PUSH2 0x2253 DUP4 PUSH2 0x21F3 JUMP JUMPDEST DUP1 PUSH0 JUMPDEST DUP4 DUP2 LT ISZERO PUSH2 0x2283 JUMPI DUP2 MLOAD PUSH2 0x226A DUP9 DUP3 PUSH2 0x2211 JUMP JUMPDEST SWAP8 POP PUSH2 0x2275 DUP4 PUSH2 0x2228 JUMP JUMPDEST SWAP3 POP POP PUSH1 0x1 DUP2 ADD SWAP1 POP PUSH2 0x2256 JUMP JUMPDEST POP DUP6 SWAP4 POP POP POP POP SWAP3 SWAP2 POP POP JUMP JUMPDEST PUSH0 PUSH2 0x229B DUP3 DUP5 PUSH2 0x2234 JUMP JUMPDEST SWAP2 POP DUP2 SWAP1 POP SWAP3 SWAP2 POP POP JUMP JUMPDEST PUSH0 PUSH1 0xA0 DUP3 ADD SWAP1 POP PUSH2 0x22B9 PUSH0 DUP4 ADD DUP9 PUSH2 0x11D1 JUMP JUMPDEST PUSH2 0x22C6 PUSH1 0x20 DUP4 ADD DUP8 PUSH2 0x11D1 JUMP JUMPDEST PUSH2 0x22D3 PUSH1 0x40 DUP4 ADD DUP7 PUSH2 0x10EB JUMP JUMPDEST PUSH2 0x22E0 PUSH1 0x60 DUP4 ADD DUP6 PUSH2 0x10EB JUMP JUMPDEST PUSH2 0x22ED PUSH1 0x80 DUP4 ADD DUP5 PUSH2 0x11D1 JUMP JUMPDEST SWAP7 SWAP6 POP POP POP POP POP POP JUMP JUMPDEST PUSH0 PUSH1 0x60 DUP3 ADD SWAP1 POP PUSH2 0x230A PUSH0 DUP4 ADD DUP7 PUSH2 0x11D1 JUMP JUMPDEST PUSH2 0x2317 PUSH1 0x20 DUP4 ADD DUP6 PUSH2 0x11D1 JUMP JUMPDEST PUSH2 0x2324 PUSH1 0x40 DUP4 ADD DUP5 PUSH2 0x11D1 JUMP JUMPDEST SWAP5 SWAP4 POP POP POP POP JUMP JUMPDEST PUSH2 0x2335 DUP2 PUSH2 0x14F4 JUMP JUMPDEST DUP3 MSTORE POP POP JUMP JUMPDEST PUSH0 PUSH1 0x20 DUP3 ADD SWAP1 POP PUSH2 0x234E PUSH0 DUP4 ADD DUP5 PUSH2 0x232C JUMP JUMPDEST SWAP3 SWAP2 POP POP JUMP JUMPDEST PUSH0 PUSH1 0x40 DUP3 ADD SWAP1 POP PUSH2 0x2367 PUSH0 DUP4 ADD DUP7 PUSH2 0x11D1 JUMP JUMPDEST DUP2 DUP2 SUB PUSH1 0x20 DUP4 ADD MSTORE PUSH2 0x237A DUP2 DUP5 DUP7 PUSH2 0x1FC2 JUMP JUMPDEST SWAP1 POP SWAP5 SWAP4 POP POP POP POP JUMP JUMPDEST PUSH0 PUSH32 0xFFFFFFFF00000000000000000000000000000000000000000000000000000000 DUP3 AND SWAP1 POP SWAP2 SWAP1 POP JUMP JUMPDEST PUSH2 0x23B8 DUP2 PUSH2 0x2384 JUMP JUMPDEST DUP2 EQ PUSH2 0x23C2 JUMPI PUSH0 PUSH0 REVERT JUMPDEST POP JUMP JUMPDEST PUSH0 DUP2 MLOAD SWAP1 POP PUSH2 0x23D3 DUP2 PUSH2 0x23AF JUMP JUMPDEST SWAP3 SWAP2 POP POP JUMP JUMPDEST PUSH0 PUSH1 0x20 DUP3 DUP5 SUB SLT ISZERO PUSH2 0x23EE JUMPI PUSH2 0x23ED PUSH2 0xFFD JUMP JUMPDEST JUMPDEST PUSH0 PUSH2 0x23FB DUP5 DUP3 DUP6 ADD PUSH2 0x23C5 JUMP JUMPDEST SWAP2 POP POP SWAP3 SWAP2 POP POP JUMP JUMPDEST PUSH0 PUSH0 PUSH1 0x40 DUP4 DUP6 SUB SLT ISZERO PUSH2 0x241A JUMPI PUSH2 0x2419 PUSH2 0xFFD JUMP JUMPDEST JUMPDEST PUSH0 PUSH2 0x2427 DUP6 DUP3 DUP7 ADD PUSH2 0x107E JUMP JUMPDEST SWAP3 POP POP PUSH1 0x20 PUSH2 0x2438 DUP6 DUP3 DUP7 ADD PUSH2 0x107E JUMP JUMPDEST SWAP2 POP POP SWAP3 POP SWAP3 SWAP1 POP JUMP JUMPDEST PUSH0 PUSH2 0x244C DUP3 PUSH2 0x14F4 JUMP JUMPDEST SWAP2 POP PUSH2 0x2457 DUP4 PUSH2 0x14F4 JUMP JUMPDEST SWAP3 POP DUP3 DUP3 ADD SWAP1 POP PUSH1 0xFF DUP2 GT ISZERO PUSH2 0x2470 JUMPI PUSH2 0x246F PUSH2 0x20B9 JUMP JUMPDEST JUMPDEST SWAP3 SWAP2 POP POP JUMP JUMPDEST PUSH0 PUSH1 0x80 DUP3 ADD SWAP1 POP PUSH2 0x2489 PUSH0 DUP4 ADD DUP8 PUSH2 0x11D1 JUMP JUMPDEST PUSH2 0x2496 PUSH1 0x20 DUP4 ADD DUP7 PUSH2 0x232C JUMP JUMPDEST PUSH2 0x24A3 PUSH1 0x40 DUP4 ADD DUP6 PUSH2 0x11D1 JUMP JUMPDEST PUSH2 0x24B0 PUSH1 0x60 DUP4 ADD DUP5 PUSH2 0x11D1 JUMP JUMPDEST SWAP6 SWAP5 POP POP POP POP POP JUMP JUMPDEST PUSH32 0x53657175656E6365207265636F76657279206C6561663A0A0000000000000000 PUSH0 DUP3 ADD MSTORE POP JUMP JUMPDEST PUSH0 PUSH2 0x24ED PUSH1 0x18 DUP4 PUSH2 0x1988 JUMP JUMPDEST SWAP2 POP PUSH2 0x24F8 DUP3 PUSH2 0x24B9 JUMP JUMPDEST PUSH1 0x18 DUP3 ADD SWAP1 POP SWAP2 SWAP1 POP JUMP JUMPDEST PUSH0 DUP2 PUSH1 0x60 SHL SWAP1 POP SWAP2 SWAP1 POP JUMP JUMPDEST PUSH0 PUSH2 0x2519 DUP3 PUSH2 0x2503 JUMP JUMPDEST SWAP1 POP SWAP2 SWAP1 POP JUMP JUMPDEST PUSH0 PUSH2 0x252A DUP3 PUSH2 0x250F JUMP JUMPDEST SWAP1 POP SWAP2 SWAP1 POP JUMP JUMPDEST PUSH2 0x2542 PUSH2 0x253D DUP3 PUSH2 0x1024 JUMP JUMPDEST PUSH2 0x2520 JUMP JUMPDEST DUP3 MSTORE POP POP JUMP JUMPDEST PUSH0 DUP2 SWAP1 POP SWAP2 SWAP1 POP JUMP JUMPDEST PUSH2 0x2562 PUSH2 0x255D DUP3 PUSH2 0x10E2 JUMP JUMPDEST PUSH2 0x2548 JUMP JUMPDEST DUP3 MSTORE POP POP JUMP JUMPDEST PUSH0 PUSH2 0x2572 DUP3 PUSH2 0x24E1 JUMP JUMPDEST SWAP2 POP PUSH2 0x257E DUP3 DUP7 PUSH2 0x2531 JUMP JUMPDEST PUSH1 0x14 DUP3 ADD SWAP2 POP PUSH2 0x258E DUP3 DUP6 PUSH2 0x2551 JUMP JUMPDEST PUSH1 0x20 DUP3 ADD SWAP2 POP PUSH2 0x259E DUP3 DUP5 PUSH2 0x2551 JUMP JUMPDEST PUSH1 0x20 DUP3 ADD SWAP2 POP DUP2 SWAP1 POP SWAP5 SWAP4 POP POP POP POP JUMP JUMPDEST PUSH32 0x4E487B7100000000000000000000000000000000000000000000000000000000 PUSH0 MSTORE PUSH1 0x32 PUSH1 0x4 MSTORE PUSH1 0x24 PUSH0 REVERT JUMPDEST PUSH0 DUP2 MLOAD SWAP1 POP SWAP2 SWAP1 POP JUMP JUMPDEST PUSH0 DUP2 SWAP1 POP SWAP3 SWAP2 POP POP JUMP JUMPDEST DUP3 DUP2 DUP4 MCOPY PUSH0 DUP4 DUP4 ADD MSTORE POP POP POP JUMP JUMPDEST PUSH0 PUSH2 0x2608 DUP3 PUSH2 0x25DC JUMP JUMPDEST PUSH2 0x2612 DUP2 DUP6 PUSH2 0x25E6 JUMP JUMPDEST SWAP4 POP PUSH2 0x2622 DUP2 DUP6 PUSH1 0x20 DUP7 ADD PUSH2 0x25F0 JUMP JUMPDEST DUP1 DUP5 ADD SWAP2 POP POP SWAP3 SWAP2 POP POP JUMP JUMPDEST PUSH0 PUSH2 0x2639 DUP3 DUP6 PUSH2 0x25FE JUMP JUMPDEST SWAP2 POP PUSH2 0x2645 DUP3 DUP5 PUSH2 0x19E5 JUMP JUMPDEST PUSH1 0x20 DUP3 ADD SWAP2 POP DUP2 SWAP1 POP SWAP4 SWAP3 POP POP POP JUMP JUMPDEST PUSH2 0x265E DUP2 PUSH2 0x1404 JUMP JUMPDEST DUP3 MSTORE POP POP JUMP JUMPDEST PUSH0 PUSH2 0x100 DUP3 ADD SWAP1 POP PUSH2 0x2678 PUSH0 DUP4 ADD DUP12 PUSH2 0x11D1 JUMP JUMPDEST PUSH2 0x2685 PUSH1 0x20 DUP4 ADD DUP11 PUSH2 0x13CE JUMP JUMPDEST PUSH2 0x2692 PUSH1 0x40 DUP4 ADD DUP10 PUSH2 0x10EB JUMP JUMPDEST PUSH2 0x269F PUSH1 0x60 DUP4 ADD DUP9 PUSH2 0x11D1 JUMP JUMPDEST PUSH2 0x26AC PUSH1 0x80 DUP4 ADD DUP8 PUSH2 0x10EB JUMP JUMPDEST PUSH2 0x26B9 PUSH1 0xA0 DUP4 ADD DUP7 PUSH2 0x2655 JUMP JUMPDEST PUSH2 0x26C6 PUSH1 0xC0 DUP4 ADD DUP6 PUSH2 0x2655 JUMP JUMPDEST PUSH2 0x26D3 PUSH1 0xE0 DUP4 ADD DUP5 PUSH2 0x10EB JUMP JUMPDEST SWAP10 SWAP9 POP POP POP POP POP POP POP POP POP JUMP INVALID LOG2 PUSH5 0x6970667358 0x22 SLT KECCAK256 DUP11 XOR 0xB2 PUSH25 0x2FAE35C87051A619AE14C227545BDF88F9E0D44BCA6D8D8173 SHL 0xBE 0xC PUSH5 0x736F6C6343 STOP ADDMOD SHR STOP CALLER "
        },
        "methodIdentifiers": {
          "queuePayload(address,address,(uint8,bool,(address,uint256,bytes,uint256,bool,bool,uint256)[],uint256,uint256,bytes,bytes32,bytes32,address[]),bytes)": "b05f87db",
          "queuedPayloadHashes(address,address,uint256)": "d834bcbf",
          "recoverSapientSignatureCompact(bytes32,bytes)": "898bd921",
          "recoveryPayloadHash(address,(uint8,bool,(address,uint256,bytes,uint256,bool,bool,uint256)[],uint256,uint256,bytes,bytes32,bytes32,address[]))": "b00c8484",
          "timestampForQueuedPayload(address,address,bytes32)": "0e159f80",
          "totalQueuedPayloads(address,address)": "ec08af33"
        }
      },
      "userdoc": {
        "kind": "user",
        "methods": {},
        "version": 1
      }
    }
  }
}