{"src/Stage7702Module.sol":{"Stage7702Module":{"abi":[{"type":"constructor","inputs":[{"name":"_entryPoint","type":"address","internalType":"address"},{"name":"_defaultCheckpointer","type":"address","internalType":"address"}],"stateMutability":"nonpayable"},{"type":"fallback","stateMutability":"payable"},{"type":"receive","stateMutability":"payable"},{"type":"function","name":"DEFAULT_CHECKPOINTER","inputs":[],"outputs":[{"name":"","type":"address","internalType":"address"}],"stateMutability":"view"},{"type":"function","name":"addHook","inputs":[{"name":"selector","type":"bytes4","internalType":"bytes4"},{"name":"implementation","type":"address","internalType":"address"}],"outputs":[],"stateMutability":"payable"},{"type":"function","name":"entrypoint","inputs":[],"outputs":[{"name":"","type":"address","internalType":"address"}],"stateMutability":"view"},{"type":"function","name":"execute","inputs":[{"name":"_payload","type":"bytes","internalType":"bytes"},{"name":"_signature","type":"bytes","internalType":"bytes"}],"outputs":[],"stateMutability":"payable"},{"type":"function","name":"executeUserOp","inputs":[{"name":"_payload","type":"bytes","internalType":"bytes"}],"outputs":[],"stateMutability":"nonpayable"},{"type":"function","name":"getStaticSignature","inputs":[{"name":"_hash","type":"bytes32","internalType":"bytes32"}],"outputs":[{"name":"","type":"address","internalType":"address"},{"name":"","type":"uint256","internalType":"uint256"}],"stateMutability":"view"},{"type":"function","name":"imageHash","inputs":[],"outputs":[{"name":"","type":"bytes32","internalType":"bytes32"}],"stateMutability":"view"},{"type":"function","name":"isValidSignature","inputs":[{"name":"_hash","type":"bytes32","internalType":"bytes32"},{"name":"_signature","type":"bytes","internalType":"bytes"}],"outputs":[{"name":"","type":"bytes4","internalType":"bytes4"}],"stateMutability":"view"},{"type":"function","name":"onERC1155BatchReceived","inputs":[{"name":"","type":"address","internalType":"address"},{"name":"","type":"address","internalType":"address"},{"name":"","type":"uint256[]","internalType":"uint256[]"},{"name":"","type":"uint256[]","internalType":"uint256[]"},{"name":"","type":"bytes","internalType":"bytes"}],"outputs":[{"name":"","type":"bytes4","internalType":"bytes4"}],"stateMutability":"pure"},{"type":"function","name":"onERC1155Received","inputs":[{"name":"","type":"address","internalType":"address"},{"name":"","type":"address","internalType":"address"},{"name":"","type":"uint256","internalType":"uint256"},{"name":"","type":"uint256","internalType":"uint256"},{"name":"","type":"bytes","internalType":"bytes"}],"outputs":[{"name":"","type":"bytes4","internalType":"bytes4"}],"stateMutability":"pure"},{"type":"function","name":"onERC721Received","inputs":[{"name":"","type":"address","internalType":"address"},{"name":"","type":"address","internalType":"address"},{"name":"","type":"uint256","internalType":"uint256"},{"name":"","type":"bytes","internalType":"bytes"}],"outputs":[{"name":"","type":"bytes4","internalType":"bytes4"}],"stateMutability":"pure"},{"type":"function","name":"readHook","inputs":[{"name":"selector","type":"bytes4","internalType":"bytes4"}],"outputs":[{"name":"","type":"address","internalType":"address"}],"stateMutability":"view"},{"type":"function","name":"readNonce","inputs":[{"name":"_space","type":"uint256","internalType":"uint256"}],"outputs":[{"name":"","type":"uint256","internalType":"uint256"}],"stateMutability":"view"},{"type":"function","name":"recoverPartialSignature","inputs":[{"name":"_payload","type":"tuple","internalType":"struct Payload.Decoded","components":[{"name":"kind","type":"uint8","internalType":"uint8"},{"name":"noChainId","type":"bool","internalType":"bool"},{"name":"calls","type":"tuple[]","internalType":"struct Payload.Call[]","components":[{"name":"to","type":"address","internalType":"address"},{"name":"value","type":"uint256","internalType":"uint256"},{"name":"data","type":"bytes","internalType":"bytes"},{"name":"gasLimit","type":"uint256","internalType":"uint256"},{"name":"delegateCall","type":"bool","internalType":"bool"},{"name":"onlyFallback","type":"bool","internalType":"bool"},{"name":"behaviorOnError","type":"uint256","internalType":"uint256"}]},{"name":"space","type":"uint256","internalType":"uint256"},{"name":"nonce","type":"uint256","internalType":"uint256"},{"name":"message","type":"bytes","internalType":"bytes"},{"name":"imageHash","type":"bytes32","internalType":"bytes32"},{"name":"digest","type":"bytes32","internalType":"bytes32"},{"name":"parentWallets","type":"address[]","internalType":"address[]"}]},{"name":"_signature","type":"bytes","internalType":"bytes"}],"outputs":[{"name":"threshold","type":"uint256","internalType":"uint256"},{"name":"weight","type":"uint256","internalType":"uint256"},{"name":"isValidImage","type":"bool","internalType":"bool"},{"name":"imageHash","type":"bytes32","internalType":"bytes32"},{"name":"checkpoint","type":"uint256","internalType":"uint256"},{"name":"opHash","type":"bytes32","internalType":"bytes32"}],"stateMutability":"view"},{"type":"function","name":"recoverSapientSignature","inputs":[{"name":"_payload","type":"tuple","internalType":"struct Payload.Decoded","components":[{"name":"kind","type":"uint8","internalType":"uint8"},{"name":"noChainId","type":"bool","internalType":"bool"},{"name":"calls","type":"tuple[]","internalType":"struct Payload.Call[]","components":[{"name":"to","type":"address","internalType":"address"},{"name":"value","type":"uint256","internalType":"uint256"},{"name":"data","type":"bytes","internalType":"bytes"},{"name":"gasLimit","type":"uint256","internalType":"uint256"},{"name":"delegateCall","type":"bool","internalType":"bool"},{"name":"onlyFallback","type":"bool","internalType":"bool"},{"name":"behaviorOnError","type":"uint256","internalType":"uint256"}]},{"name":"space","type":"uint256","internalType":"uint256"},{"name":"nonce","type":"uint256","internalType":"uint256"},{"name":"message","type":"bytes","internalType":"bytes"},{"name":"imageHash","type":"bytes32","internalType":"bytes32"},{"name":"digest","type":"bytes32","internalType":"bytes32"},{"name":"parentWallets","type":"address[]","internalType":"address[]"}]},{"name":"_signature","type":"bytes","internalType":"bytes"}],"outputs":[{"name":"","type":"bytes32","internalType":"bytes32"}],"stateMutability":"view"},{"type":"function","name":"removeHook","inputs":[{"name":"selector","type":"bytes4","internalType":"bytes4"}],"outputs":[],"stateMutability":"payable"},{"type":"function","name":"selfExecute","inputs":[{"name":"_payload","type":"bytes","internalType":"bytes"}],"outputs":[],"stateMutability":"payable"},{"type":"function","name":"setStaticSignature","inputs":[{"name":"_hash","type":"bytes32","internalType":"bytes32"},{"name":"_address","type":"address","internalType":"address"},{"name":"_timestamp","type":"uint96","internalType":"uint96"}],"outputs":[],"stateMutability":"nonpayable"},{"type":"function","name":"tokenReceived","inputs":[{"name":"","type":"address","internalType":"address"},{"name":"","type":"uint256","internalType":"uint256"},{"name":"","type":"bytes","internalType":"bytes"}],"outputs":[{"name":"","type":"bytes4","internalType":"bytes4"}],"stateMutability":"pure"},{"type":"function","name":"tokensReceived","inputs":[{"name":"operator","type":"address","internalType":"address"},{"name":"from","type":"address","internalType":"address"},{"name":"to","type":"address","internalType":"address"},{"name":"amount","type":"uint256","internalType":"uint256"},{"name":"data","type":"bytes","internalType":"bytes"},{"name":"operatorData","type":"bytes","internalType":"bytes"}],"outputs":[],"stateMutability":"nonpayable"},{"type":"function","name":"updateImageHash","inputs":[{"name":"_imageHash","type":"bytes32","internalType":"bytes32"}],"outputs":[],"stateMutability":"nonpayable"},{"type":"function","name":"validateUserOp","inputs":[{"name":"userOp","type":"tuple","internalType":"struct PackedUserOperation","components":[{"name":"sender","type":"address","internalType":"address"},{"name":"nonce","type":"uint256","internalType":"uint256"},{"name":"initCode","type":"bytes","internalType":"bytes"},{"name":"callData","type":"bytes","internalType":"bytes"},{"name":"accountGasLimits","type":"bytes32","internalType":"bytes32"},{"name":"preVerificationGas","type":"uint256","internalType":"uint256"},{"name":"gasFees","type":"bytes32","internalType":"bytes32"},{"name":"paymasterAndData","type":"bytes","internalType":"bytes"},{"name":"signature","type":"bytes","internalType":"bytes"}]},{"name":"userOpHash","type":"bytes32","internalType":"bytes32"},{"name":"missingAccountFunds","type":"uint256","internalType":"uint256"}],"outputs":[{"name":"validationData","type":"uint256","internalType":"uint256"}],"stateMutability":"nonpayable"},{"type":"event","name":"CallAborted","inputs":[{"name":"_opHash","type":"bytes32","indexed":true,"internalType":"bytes32"},{"name":"_index","type":"uint256","indexed":false,"internalType":"uint256"},{"name":"_returnData","type":"bytes","indexed":false,"internalType":"bytes"}],"anonymous":false},{"type":"event","name":"CallFailed","inputs":[{"name":"_opHash","type":"bytes32","indexed":true,"internalType":"bytes32"},{"name":"_index","type":"uint256","indexed":false,"internalType":"uint256"},{"name":"_returnData","type":"bytes","indexed":false,"internalType":"bytes"}],"anonymous":false},{"type":"event","name":"CallSkipped","inputs":[{"name":"_opHash","type":"bytes32","indexed":true,"internalType":"bytes32"},{"name":"_index","type":"uint256","indexed":false,"internalType":"uint256"}],"anonymous":false},{"type":"event","name":"CallSucceeded","inputs":[{"name":"_opHash","type":"bytes32","indexed":true,"internalType":"bytes32"},{"name":"_index","type":"uint256","indexed":false,"internalType":"uint256"}],"anonymous":false},{"type":"event","name":"DefinedHook","inputs":[{"name":"selector","type":"bytes4","indexed":false,"internalType":"bytes4"},{"name":"implementation","type":"address","indexed":false,"internalType":"address"}],"anonymous":false},{"type":"event","name":"ImageHashUpdated","inputs":[{"name":"newImageHash","type":"bytes32","indexed":false,"internalType":"bytes32"}],"anonymous":false},{"type":"event","name":"NonceChange","inputs":[{"name":"_space","type":"uint256","indexed":false,"internalType":"uint256"},{"name":"_newNonce","type":"uint256","indexed":false,"internalType":"uint256"}],"anonymous":false},{"type":"event","name":"StaticSignatureSet","inputs":[{"name":"_hash","type":"bytes32","indexed":false,"internalType":"bytes32"},{"name":"_address","type":"address","indexed":false,"internalType":"address"},{"name":"_timestamp","type":"uint96","indexed":false,"internalType":"uint96"}],"anonymous":false},{"type":"error","name":"BadNonce","inputs":[{"name":"_space","type":"uint256","internalType":"uint256"},{"name":"_provided","type":"uint256","internalType":"uint256"},{"name":"_current","type":"uint256","internalType":"uint256"}]},{"type":"error","name":"ChainedSignatureNestedInChainedSignature","inputs":[]},{"type":"error","name":"ERC4337Disabled","inputs":[]},{"type":"error","name":"HookAlreadyExists","inputs":[{"name":"selector","type":"bytes4","internalType":"bytes4"}]},{"type":"error","name":"HookDoesNotExist","inputs":[{"name":"selector","type":"bytes4","internalType":"bytes4"}]},{"type":"error","name":"ImageHashIsZero","inputs":[]},{"type":"error","name":"InvalidERC1271Signature","inputs":[{"name":"_opHash","type":"bytes32","internalType":"bytes32"},{"name":"_signer","type":"address","internalType":"address"},{"name":"_signature","type":"bytes","internalType":"bytes"}]},{"type":"error","name":"InvalidEntryPoint","inputs":[{"name":"_entrypoint","type":"address","internalType":"address"}]},{"type":"error","name":"InvalidKind","inputs":[{"name":"kind","type":"uint8","internalType":"uint8"}]},{"type":"error","name":"InvalidPackedLength","inputs":[]},{"type":"error","name":"InvalidSapientSignature","inputs":[{"name":"_payload","type":"tuple","internalType":"struct Payload.Decoded","components":[{"name":"kind","type":"uint8","internalType":"uint8"},{"name":"noChainId","type":"bool","internalType":"bool"},{"name":"calls","type":"tuple[]","internalType":"struct Payload.Call[]","components":[{"name":"to","type":"address","internalType":"address"},{"name":"value","type":"uint256","internalType":"uint256"},{"name":"data","type":"bytes","internalType":"bytes"},{"name":"gasLimit","type":"uint256","internalType":"uint256"},{"name":"delegateCall","type":"bool","internalType":"bool"},{"name":"onlyFallback","type":"bool","internalType":"bool"},{"name":"behaviorOnError","type":"uint256","internalType":"uint256"}]},{"name":"space","type":"uint256","internalType":"uint256"},{"name":"nonce","type":"uint256","internalType":"uint256"},{"name":"message","type":"bytes","internalType":"bytes"},{"name":"imageHash","type":"bytes32","internalType":"bytes32"},{"name":"digest","type":"bytes32","internalType":"bytes32"},{"name":"parentWallets","type":"address[]","internalType":"address[]"}]},{"name":"_signature","type":"bytes","internalType":"bytes"}]},{"type":"error","name":"InvalidSignature","inputs":[{"name":"_payload","type":"tuple","internalType":"struct Payload.Decoded","components":[{"name":"kind","type":"uint8","internalType":"uint8"},{"name":"noChainId","type":"bool","internalType":"bool"},{"name":"calls","type":"tuple[]","internalType":"struct Payload.Call[]","components":[{"name":"to","type":"address","internalType":"address"},{"name":"value","type":"uint256","internalType":"uint256"},{"name":"data","type":"bytes","internalType":"bytes"},{"name":"gasLimit","type":"uint256","internalType":"uint256"},{"name":"delegateCall","type":"bool","internalType":"bool"},{"name":"onlyFallback","type":"bool","internalType":"bool"},{"name":"behaviorOnError","type":"uint256","internalType":"uint256"}]},{"name":"space","type":"uint256","internalType":"uint256"},{"name":"nonce","type":"uint256","internalType":"uint256"},{"name":"message","type":"bytes","internalType":"bytes"},{"name":"imageHash","type":"bytes32","internalType":"bytes32"},{"name":"digest","type":"bytes32","internalType":"bytes32"},{"name":"parentWallets","type":"address[]","internalType":"address[]"}]},{"name":"_signature","type":"bytes","internalType":"bytes"}]},{"type":"error","name":"InvalidSignatureFlag","inputs":[{"name":"_flag","type":"uint256","internalType":"uint256"}]},{"type":"error","name":"InvalidSignatureWeight","inputs":[{"name":"_threshold","type":"uint256","internalType":"uint256"},{"name":"_weight","type":"uint256","internalType":"uint256"}]},{"type":"error","name":"InvalidStaticSignatureExpired","inputs":[{"name":"_opHash","type":"bytes32","internalType":"bytes32"},{"name":"_expires","type":"uint256","internalType":"uint256"}]},{"type":"error","name":"InvalidStaticSignatureWrongCaller","inputs":[{"name":"_opHash","type":"bytes32","internalType":"bytes32"},{"name":"_caller","type":"address","internalType":"address"},{"name":"_expectedCaller","type":"address","internalType":"address"}]},{"type":"error","name":"LowWeightChainedSignature","inputs":[{"name":"_signature","type":"bytes","internalType":"bytes"},{"name":"_threshold","type":"uint256","internalType":"uint256"},{"name":"_weight","type":"uint256","internalType":"uint256"}]},{"type":"error","name":"NotEnoughGas","inputs":[{"name":"_payload","type":"tuple","internalType":"struct Payload.Decoded","components":[{"name":"kind","type":"uint8","internalType":"uint8"},{"name":"noChainId","type":"bool","internalType":"bool"},{"name":"calls","type":"tuple[]","internalType":"struct Payload.Call[]","components":[{"name":"to","type":"address","internalType":"address"},{"name":"value","type":"uint256","internalType":"uint256"},{"name":"data","type":"bytes","internalType":"bytes"},{"name":"gasLimit","type":"uint256","internalType":"uint256"},{"name":"delegateCall","type":"bool","internalType":"bool"},{"name":"onlyFallback","type":"bool","internalType":"bool"},{"name":"behaviorOnError","type":"uint256","internalType":"uint256"}]},{"name":"space","type":"uint256","internalType":"uint256"},{"name":"nonce","type":"uint256","internalType":"uint256"},{"name":"message","type":"bytes","internalType":"bytes"},{"name":"imageHash","type":"bytes32","internalType":"bytes32"},{"name":"digest","type":"bytes32","internalType":"bytes32"},{"name":"parentWallets","type":"address[]","internalType":"address[]"}]},{"name":"_index","type":"uint256","internalType":"uint256"},{"name":"_gasLeft","type":"uint256","internalType":"uint256"}]},{"type":"error","name":"OnlySelf","inputs":[{"name":"_sender","type":"address","internalType":"address"}]},{"type":"error","name":"ReentrantCall","inputs":[]},{"type":"error","name":"Reverted","inputs":[{"name":"_payload","type":"tuple","internalType":"struct Payload.Decoded","components":[{"name":"kind","type":"uint8","internalType":"uint8"},{"name":"noChainId","type":"bool","internalType":"bool"},{"name":"calls","type":"tuple[]","internalType":"struct Payload.Call[]","components":[{"name":"to","type":"address","internalType":"address"},{"name":"value","type":"uint256","internalType":"uint256"},{"name":"data","type":"bytes","internalType":"bytes"},{"name":"gasLimit","type":"uint256","internalType":"uint256"},{"name":"delegateCall","type":"bool","internalType":"bool"},{"name":"onlyFallback","type":"bool","internalType":"bool"},{"name":"behaviorOnError","type":"uint256","internalType":"uint256"}]},{"name":"space","type":"uint256","internalType":"uint256"},{"name":"nonce","type":"uint256","internalType":"uint256"},{"name":"message","type":"bytes","internalType":"bytes"},{"name":"imageHash","type":"bytes32","internalType":"bytes32"},{"name":"digest","type":"bytes32","internalType":"bytes32"},{"name":"parentWallets","type":"address[]","internalType":"address[]"}]},{"name":"_index","type":"uint256","internalType":"uint256"},{"name":"_returnData","type":"bytes","internalType":"bytes"}]},{"type":"error","name":"UnusedSnapshot","inputs":[{"name":"_snapshot","type":"tuple","internalType":"struct Snapshot","components":[{"name":"imageHash","type":"bytes32","internalType":"bytes32"},{"name":"checkpoint","type":"uint256","internalType":"uint256"}]}]},{"type":"error","name":"WrongChainedCheckpointOrder","inputs":[{"name":"_nextCheckpoint","type":"uint256","internalType":"uint256"},{"name":"_checkpoint","type":"uint256","internalType":"uint256"}]}],"userdoc":{},"devdoc":{},"evm":{"bytecode":{"object":"60c03461008e57601f61403738819003918201601f19168301916001600160401b0383118484101761009357808492604094855283398101031261008e57610052602061004b836100a9565b92016100a9565b60805260a052604051613f7990816100be8239608051818181610df70152611cb3015260a0518181816110240152818161118b01526119a10152f35b600080fd5b634e487b7160e01b600052604160045260246000fd5b51906001600160a01b038216820361008e5756fe6080604052600436101561001e575b361561001c5761001c611d1f565b005b60003560e01c806223de291461017d57806313792a4a14610178578063150b7a02146101735780631626ba7e1461016e57806319822f7c146101695780631a9b2337146101645780631f6a1eb91461015f578063295614261461015a5780634fcf3eca1461015557806351605d8014610150578063540e3ad91461014b5780636ea44577146101465780638943ec02146101415780638c3f55631461013c57806392dcb3fc146101375780639c145aed14610132578063a65d69d41461012d578063ad55366b14610128578063b93ea7ad14610123578063bc197c811461011e578063f23a6e61146101195763f727ef1c0361000e576114b9565b61142c565b61135a565b6111fb565b6111af565b611140565b610fb1565b610f53565b610f17565b610e93565b610e64565b610dac565b610d73565b610c57565b610b70565b610a5f565b6109fc565b610947565b6108bf565b610832565b610735565b61023f565b6004359073ffffffffffffffffffffffffffffffffffffffff821682036101a557565b600080fd5b6024359073ffffffffffffffffffffffffffffffffffffffff821682036101a557565b6044359073ffffffffffffffffffffffffffffffffffffffff821682036101a557565b359073ffffffffffffffffffffffffffffffffffffffff821682036101a557565b9181601f840112156101a55782359167ffffffffffffffff83116101a557602083818601950101116101a557565b346101a55760c07ffffffffffffffffffffffffffffffffffffffffffffffffffffffffffffffffc3601126101a557610276610182565b5061027f6101aa565b506102886101cd565b5060843567ffffffffffffffff81116101a5576102a9903690600401610211565b505060a43567ffffffffffffffff81116101a55761001c903690600401610211565b7f4e487b7100000000000000000000000000000000000000000000000000000000600052604160045260246000fd5b60e0810190811067ffffffffffffffff82111761031657604052565b6102cb565b6040810190811067ffffffffffffffff82111761031657604052565b90601f7fffffffffffffffffffffffffffffffffffffffffffffffffffffffffffffffe0910116810190811067ffffffffffffffff82111761031657604052565b6040519061038760e083610337565b565b6040519061038761012083610337565b359060ff821682036101a557565b359081151582036101a557565b67ffffffffffffffff81116103165760051b60200190565b67ffffffffffffffff811161031657601f017fffffffffffffffffffffffffffffffffffffffffffffffffffffffffffffffe01660200190565b929192610412826103cc565b916104206040519384610337565b8294818452818301116101a5578281602093846000960137010152565b9080601f830112156101a55781602061045893359101610406565b90565b81601f820112156101a557803590610472826103b4565b926104806040519485610337565b82845260208085019360051b830101918183116101a55760208101935b8385106104ac57505050505090565b843567ffffffffffffffff81116101a557820160e07fffffffffffffffffffffffffffffffffffffffffffffffffffffffffffffffe082860301126101a5576104f3610378565b91610500602083016101f0565b83526040820135602084015260608201359267ffffffffffffffff84116101a55760e08361053588602080988198010161043d565b60408401526080810135606084015261055060a082016103a7565b608084015261056160c082016103a7565b60a0840152013560c082015281520194019361049d565b9080601f830112156101a557813561058f816103b4565b9261059d6040519485610337565b81845260208085019260051b8201019283116101a557602001905b8282106105c55750505090565b602080916105d2846101f0565b8152019101906105b8565b9060407ffffffffffffffffffffffffffffffffffffffffffffffffffffffffffffffffc8301126101a55760043567ffffffffffffffff81116101a5576101207ffffffffffffffffffffffffffffffffffffffffffffffffffffffffffffffffc82850301126101a55761064f610389565b9061065c81600401610399565b825261066a602482016103a7565b6020830152604481013567ffffffffffffffff81116101a5578460046106929284010161045b565b6040830152606481013560608301526084810135608083015260a481013567ffffffffffffffff81116101a5578460046106ce9284010161043d565b60a083015260c481013560c083015260e481013560e083015261010481013567ffffffffffffffff81116101a5576004859161070b930101610578565b610100820152916024359067ffffffffffffffff82116101a55761073191600401610211565b9091565b346101a557610743366105dd565b909161010081019261075e6107598551516115c1565b6115e1565b9160005b855180518210156107c557906107bf61079a6107808360019561165f565b5173ffffffffffffffffffffffffffffffffffffffff1690565b6107a4838861165f565b9073ffffffffffffffffffffffffffffffffffffffff169052565b01610762565b50508383866107da336107a48351518561165f565b526107e6818484611df1565b50156107f85760405160018152602090f35b61082e906040519384937ff58cc8b5000000000000000000000000000000000000000000000000000000008552600485016118ba565b0390fd5b346101a55760807ffffffffffffffffffffffffffffffffffffffffffffffffffffffffffffffffc3601126101a557610869610182565b506108726101aa565b5060643567ffffffffffffffff81116101a557610893903690600401610211565b505060206040517f150b7a02000000000000000000000000000000000000000000000000000000008152f35b346101a55760407ffffffffffffffffffffffffffffffffffffffffffffffffffffffffffffffffc3601126101a55760043560243567ffffffffffffffff81116101a55760209161091761091d923690600401610211565b916118df565b7fffffffff0000000000000000000000000000000000000000000000000000000060405191168152f35b346101a55760607ffffffffffffffffffffffffffffffffffffffffffffffffffffffffffffffffc3601126101a55760043567ffffffffffffffff81116101a5576101207ffffffffffffffffffffffffffffffffffffffffffffffffffffffffffffffffc82360301126101a5576109ca60209160243560443591600401611988565b604051908152f35b7fffffffff000000000000000000000000000000000000000000000000000000008116036101a557565b346101a55760207ffffffffffffffffffffffffffffffffffffffffffffffffffffffffffffffffc3601126101a5576020610a41600435610a3c816109d2565b612001565b73ffffffffffffffffffffffffffffffffffffffff60405191168152f35b60407ffffffffffffffffffffffffffffffffffffffffffffffffffffffffffffffffc3601126101a55760043567ffffffffffffffff81116101a557610aa9903690600401610211565b60243567ffffffffffffffff81116101a557610ac9903690600401610211565b9160027ffc6e07e3992c7c3694a921dc9e412b6cfe475380556756a19805a9e3ddfe2fde5414610b4657610b209360027ffc6e07e3992c7c3694a921dc9e412b6cfe475380556756a19805a9e3ddfe2fde55611af2565b60017ffc6e07e3992c7c3694a921dc9e412b6cfe475380556756a19805a9e3ddfe2fde55005b7f37ed32e80000000000000000000000000000000000000000000000000000000060005260046000fd5b346101a55760207ffffffffffffffffffffffffffffffffffffffffffffffffffffffffffffffffc3601126101a557600435303303610c29578015610bff576020817f307ed6bd941ee9fc80f369c94af5fa11e25bab5102a6140191756c5474a30bfa927fea7157fa25e3aa17d0ae2d5280fa4e24d421c61842aa85e45194e1145aa72bf855604051908152a1005b7f4294d1270000000000000000000000000000000000000000000000000000000060005260046000fd5b7fa19dbf00000000000000000000000000000000000000000000000000000000006000523360045260246000fd5b60207ffffffffffffffffffffffffffffffffffffffffffffffffffffffffffffffffc3601126101a557600435610c8d816109d2565b303303610c295773ffffffffffffffffffffffffffffffffffffffff610cb282612001565b1615610d185760407fffffffff000000000000000000000000000000000000000000000000000000007f0d7fc113eaf016db4681a1ba86d083ce3e0961f321062a75ac2b0aeb33deeed19216610d09600082612e46565b815190815260006020820152a1005b7fffffffff00000000000000000000000000000000000000000000000000000000907f1c3812cc000000000000000000000000000000000000000000000000000000006000521660045260246000fd5b60009103126101a557565b346101a55760007ffffffffffffffffffffffffffffffffffffffffffffffffffffffffffffffffc3601126101a55760206109ca611be8565b346101a55760007ffffffffffffffffffffffffffffffffffffffffffffffffffffffffffffffffc3601126101a557602060405173ffffffffffffffffffffffffffffffffffffffff7f0000000000000000000000000000000000000000000000000000000000000000168152f35b60207ffffffffffffffffffffffffffffffffffffffffffffffffffffffffffffffffc8201126101a5576004359067ffffffffffffffff82116101a55761073191600401610211565b610e6d36610e1b565b90303303610c2957610e8361001c925a92612136565b90610e8d8261284b565b906124b5565b346101a55760607ffffffffffffffffffffffffffffffffffffffffffffffffffffffffffffffffc3601126101a557610eca610182565b5060443567ffffffffffffffff81116101a557610eeb903690600401610211565b505060206040517f8943ec02000000000000000000000000000000000000000000000000000000008152f35b346101a55760207ffffffffffffffffffffffffffffffffffffffffffffffffffffffffffffffffc3601126101a55760206109ca6004356128d9565b346101a55760207ffffffffffffffffffffffffffffffffffffffffffffffffffffffffffffffffc3601126101a5576040610f8f60043561291f565b73ffffffffffffffffffffffffffffffffffffffff8351921682526020820152f35b346101a557610fbf36610e1b565b9060027ffc6e07e3992c7c3694a921dc9e412b6cfe475380556756a19805a9e3ddfe2fde5414610b465760027ffc6e07e3992c7c3694a921dc9e412b6cfe475380556756a19805a9e3ddfe2fde5573ffffffffffffffffffffffffffffffffffffffff7f00000000000000000000000000000000000000000000000000000000000000001680156111165733036110e857303b156101a5576110929160009160405193849283927f6ea4457700000000000000000000000000000000000000000000000000000000845260048401611cde565b038183305af180156110e3576110c85760017ffc6e07e3992c7c3694a921dc9e412b6cfe475380556756a19805a9e3ddfe2fde55005b806110d760006110dd93610337565b80610d68565b38610b20565b61192b565b7f1d6ddbf4000000000000000000000000000000000000000000000000000000006000523360045260246000fd5b7fd13d78350000000000000000000000000000000000000000000000000000000060005260046000fd5b346101a55760007ffffffffffffffffffffffffffffffffffffffffffffffffffffffffffffffffc3601126101a557602060405173ffffffffffffffffffffffffffffffffffffffff7f0000000000000000000000000000000000000000000000000000000000000000168152f35b346101a55760c06111cb6000806111c5366105dd565b91612a20565b929091906111d7611be8565b821490604051958652602086015260408501526060840152608083015260a0820152f35b60407ffffffffffffffffffffffffffffffffffffffffffffffffffffffffffffffffc3601126101a557600435611231816109d2565b6112396101aa565b90303303610c295773ffffffffffffffffffffffffffffffffffffffff61125f82612001565b166112d9577f0d7fc113eaf016db4681a1ba86d083ce3e0961f321062a75ac2b0aeb33deeed19173ffffffffffffffffffffffffffffffffffffffff7fffffffff000000000000000000000000000000000000000000000000000000006040931691166112cc8183612e46565b82519182526020820152a1005b7fffffffff00000000000000000000000000000000000000000000000000000000907f5b4d6d6a000000000000000000000000000000000000000000000000000000006000521660045260246000fd5b9181601f840112156101a55782359167ffffffffffffffff83116101a5576020808501948460051b0101116101a557565b346101a55760a07ffffffffffffffffffffffffffffffffffffffffffffffffffffffffffffffffc3601126101a557611391610182565b5061139a6101aa565b5060443567ffffffffffffffff81116101a5576113bb903690600401611329565b505060643567ffffffffffffffff81116101a5576113dd903690600401611329565b505060843567ffffffffffffffff81116101a5576113ff903690600401610211565b50506040517fbc197c81000000000000000000000000000000000000000000000000000000008152602090f35b346101a55760a07ffffffffffffffffffffffffffffffffffffffffffffffffffffffffffffffffc3601126101a557611463610182565b5061146c6101aa565b5060843567ffffffffffffffff81116101a55761148d903690600401610211565b505060206040517ff23a6e61000000000000000000000000000000000000000000000000000000008152f35b346101a55760607ffffffffffffffffffffffffffffffffffffffffffffffffffffffffffffffffc3601126101a5576004356114f36101aa565b604435916bffffffffffffffffffffffff83168093036101a557303303610c29578273ffffffffffffffffffffffffffffffffffffffff8361157e7febf265acfac1c01de588ed7ef49743b9c3ce8d6d1edeaf510a1f5453228515b1967fffffffffffffffffffffffffffffffffffffffff000000000000000000000000606097881b161785612dc2565b6040519384521660208301526040820152a1005b7f4e487b7100000000000000000000000000000000000000000000000000000000600052601160045260246000fd5b90600182018092116115cf57565b611592565b919082018092116115cf57565b906115eb826103b4565b6115f86040519182610337565b8281527fffffffffffffffffffffffffffffffffffffffffffffffffffffffffffffffe061162682946103b4565b0190602036910137565b7f4e487b7100000000000000000000000000000000000000000000000000000000600052603260045260246000fd5b80518210156116735760209160051b010190565b611630565b919082519283825260005b8481106116c25750507fffffffffffffffffffffffffffffffffffffffffffffffffffffffffffffffe0601f8460006020809697860101520116010190565b80602080928401015182828601015201611683565b9080602083519182815201916020808360051b8301019401926000915b83831061170357505050505090565b9091929394602080827fffffffffffffffffffffffffffffffffffffffffffffffffffffffffffffffe0856001950301865288519073ffffffffffffffffffffffffffffffffffffffff8251168152828201518382015260c080611776604085015160e0604086015260e0850190611678565b936060810151606085015260808101511515608085015260a0810151151560a08501520151910152970193019301919392906116f4565b906020808351928381520192019060005b8181106117cb5750505090565b825173ffffffffffffffffffffffffffffffffffffffff168452602093840193909201916001016117be565b805160ff1682526104589160208281015115159082015261010061185561182f604085015161012060408601526101208501906116d7565b606085015160608501526080850151608085015260a085015184820360a0860152611678565b9260c081015160c084015260e081015160e08401520151906101008184039101526117ad565b601f82602094937fffffffffffffffffffffffffffffffffffffffffffffffffffffffffffffffe0938186528686013760008582860101520116010190565b916118d161045894926040855260408501906117f7565b92602081850391015261187b565b906118fc92916118ed611fa6565b906003825260e0820152611df1565b5015611926577f1626ba7e0000000000000000000000000000000000000000000000000000000090565b600090565b6040513d6000823e3d90fd5b9035907fffffffffffffffffffffffffffffffffffffffffffffffffffffffffffffffe1813603018212156101a5570180359067ffffffffffffffff82116101a5576020019181360383136101a557565b909173ffffffffffffffffffffffffffffffffffffffff7f000000000000000000000000000000000000000000000000000000000000000016908115611116578133036110e85780611a3c575b5050611a2c7f1626ba7e0000000000000000000000000000000000000000000000000000000092610917836101007fffffffff00000000000000000000000000000000000000000000000000000000950190611937565b1603611a3757600090565b600190565b813b156101a5576040517fb760faf900000000000000000000000000000000000000000000000000000000815230600482015291600091839160249183915af19283156110e3576109177fffffffff0000000000000000000000000000000000000000000000000000000093611a2c937f1626ba7e0000000000000000000000000000000000000000000000000000000096611add575b50935050926119d5565b806110d76000611aec93610337565b38611ad3565b91939290611b01905a93612136565b9160608301516080840151611b15826128d9565b818103611bb457509060017f1f180c27086c7a39ea2a7b25239d1ab92348f07ca7bb59d1438fcf527568f881920190611b4e8282612e07565b604080519182526020820192909252a1611b69828685611df1565b929015611b7c57506103879394506124b5565b8361082e87926040519384937fa2b6d61b000000000000000000000000000000000000000000000000000000008552600485016118ba565b917f9b6514f40000000000000000000000000000000000000000000000000000000060005260045260245260445260646000fd5b7fea7157fa25e3aa17d0ae2d5280fa4e24d421c61842aa85e45194e1145aa72bf85480610458575060405160208101907f53657175656e6365207369676e65723a0a00000000000000000000000000000082527fffffffffffffffffffffffffffffffffffffffff0000000000000000000000003060601b1660318201526001604582015260458152611c7c606582610337565b519020600052600160205260406000206000526000602052604060002060005273ffffffffffffffffffffffffffffffffffffffff7f000000000000000000000000000000000000000000000000000000000000000016602052604060002090565b91602061045893818152019161187b565b3d15611d1a573d90611d00826103cc565b91611d0e6040519384610337565b82523d6000602084013e565b606090565b600436108015611d2c5750565b611d62906000357fffffffff00000000000000000000000000000000000000000000000000000000811691611db4575b50612001565b73ffffffffffffffffffffffffffffffffffffffff8116611d805750565b60008091604051368382378036810184815203915af4611d9e611cef565b9015611dac57602081519101f35b602081519101fd5b7fffffffff000000000000000000000000000000000000000000000000000000008092503660040360031b1b161638611d5c565b90156116735790565b611e24611dfe8484611de8565b357fff000000000000000000000000000000000000000000000000000000000000001690565b7f800000000000000000000000000000000000000000000000000000000000000080821614611ea75750611e5c926000928392612a20565b905091909192808210611e77575050611e7490613c38565b91565b7ffd41fcba0000000000000000000000000000000000000000000000000000000060005260045260245260446000fd5b7f0200000000000000000000000000000000000000000000000000000000000000908116146020820152611edd9250905061284b565b90611ee78261291f565b42811115611f74575073ffffffffffffffffffffffffffffffffffffffff81168015159081611f69575b50611f1d575060019190565b7f8945c3130000000000000000000000000000000000000000000000000000000060005260048390523360245273ffffffffffffffffffffffffffffffffffffffff1660445260646000fd5b905033141538611f11565b7ff95b6ab700000000000000000000000000000000000000000000000000000000600052600484905260245260446000fd5b60405190610120820182811067ffffffffffffffff821117610316576040526060610100836000815260006020820152826040820152600083820152600060808201528260a0820152600060c0820152600060e08201520152565b73ffffffffffffffffffffffffffffffffffffffff906040517fffffffff0000000000000000000000000000000000000000000000000000000060208201927fbe27a319efc8734e89e26ba4bc95f5c788584163b959f03fa04e2d7ab4b9a120845216604082015260408152612078606082610337565b519020541690565b9061208a826103b4565b6120976040519182610337565b8281527fffffffffffffffffffffffffffffffffffffffffffffffffffffffffffffffe06120c582946103b4565b019060005b8281106120d657505050565b6020906040516120e5816102fa565b60008152600083820152606060408201526000606082015260006080820152600060a0820152600060c0820152828285010152016120ca565b909392938483116101a55784116101a5578101920390565b9061213f611fa6565b6000815291600190803560f81c827fffffffffffffffffffffffffffffffffffffffffffffffffffffffffffffffff8183160161240e5750600060608601525b600761218e60ff831660011c90565b16806123bd575b5060108181160361238f575060015b6121ad81612080565b604086019081526000925b8284106121f55750505050036121cb5790565b7f0bdf80380000000000000000000000000000000000000000000000000000000060005260046000fd5b9293919290918082013560f81c9060010194908560018083160361236d575061223f3061222384875161165f565b519073ffffffffffffffffffffffffffffffffffffffff169052565b60028082161461234d575b6004808216146122ff575b6008808216146122ca575b906122b16122ab60c08461228b60108060019816146080612282888c5161165f565b51019015159052565b6122a160208083161460a0612282888c5161165f565b1660061c60031690565b60ff1690565b60c06122be83875161165f565b510152019291906121b8565b94600191906122b1906122ab9060c0908681013590602001999060606122f1878b5161165f565b510152939450505050612260565b94612347908381013560e81c9060030161234061232761231f84846115d4565b838c8961211e565b91906040612336888b5161165f565b5101923691610406565b90526115d4565b94612255565b9482810135906020019590602061236584875161165f565b51015261224a565b61238a96508381013560601c90601401969061222384875161165f565b61223f565b6020908116036123ac57600282019181013560f01c905b906121a4565b600182019181013560f81c906123a6565b612401919383929190928160031b7fffffffffffffffffffffffffffffffffffffffffffffffffffffffffffffffff6001821b019185013590610100031c16920190565b9290608086015238612195565b80830135606090811c90870152601401925061217f565b61243d604092959493956060835260608301906117f7565b9460208201520152565b9261045896959260c09592855260208501526040840152606083015260808201528160a08201520190611678565b604090610458939281528160208201520190611678565b6124a261045894926060835260608301906117f7565b9260208201526040818403910152611678565b916000604082019384515190825b8281106124d4575b50505050505050565b6124df81885161165f565b51936124ee60a0860151151590565b806127d2575b61279857506000936060810151801580158061278f575b61275757849061251e6080850151151590565b15612711576125c992612545855173ffffffffffffffffffffffffffffffffffffffff1690565b911561270b57505a905b6125c48b61259860608d01516040890151908c8b604051998a967f4c4e814c00000000000000000000000000000000000000000000000000000000602089015260248801612447565b037fffffffffffffffffffffffffffffffffffffffffffffffffffffffffffffffe08101855284610337565b612d95565b15612612575b50600190867f5a589b1d8062f33451d29cae3dabd9b2e36c62aee644178c600977ca8dda661a6040518061260885829190602083019252565b0390a25b016124c3565b60c0018051156126c2576001815114612683575160021461263357386125cf565b93505050507fc2c704302430fe0dc8d95f272e2f4e54bbbc51a3327fd5d75ab41f9fc8fd129b919250612664612da7565b9061267460405192839283612475565b0390a2388080808080806124cb565b508461082e612690612da7565b6040519384937f7f6b0bb10000000000000000000000000000000000000000000000000000000085526004850161248c565b50925060018093867f115f347c00e69f252cd6b63c4f81022a9564c6befe8aa719cb74640a4a306f0d6127036126f6612da7565b6040519182918683612475565b0390a261260c565b9061254f565b835161274c93925073ffffffffffffffffffffffffffffffffffffffff169160208501519160001461275157505a905b604085015192612d83565b6125c9565b90612741565b838861082e5a6040519384937f2139527400000000000000000000000000000000000000000000000000000000855260048501612425565b50815a1061250b565b9350600190867f9ae934bf8a986157c889a24c3b3fa85e74b7e4ee4b1f8fc6e7362cb4c1d19d8b6040518061270385829190602083019252565b5080156124f4565b90604051907fffffffffffffffffffffffffffffffffffffffff00000000000000000000000060208301937f53657175656e6365207369676e65723a0a000000000000000000000000000000855260601b166031830152604582015260458152612845606582610337565b51902090565b6128ad61284561286b612865602085015115153090612e85565b93612f80565b60405192839160208301958690916042927f19010000000000000000000000000000000000000000000000000000000000008352600283015260228201520190565b037fffffffffffffffffffffffffffffffffffffffffffffffffffffffffffffffe08101835282610337565b60405160208101917f8d0bf1fd623d628c741362c1289948e57b3e2905218c676d3e69abee36d6ae2e8352604082015260408152612918606082610337565b5190205490565b60405160208101917fc852adf5e97c2fc3b38f405671e91b7af1697ef0287577f227ef10494c2a8e86835260408201526040815261295e606082610337565b51902054906bffffffffffffffffffffffff8260601c921690565b604051906129868261031b565b60006020838281520152565b6003111561299c57565b7f4e487b7100000000000000000000000000000000000000000000000000000000600052602160045260246000fd5b908160409103126101a5576020604051916129e58361031b565b805183520151602082015290565b60409073ffffffffffffffffffffffffffffffffffffffff61045894931681528160208201520190611678565b909491939291853560f81c600190938190612a39612979565b92612a4382612992565b60018203612c4d575b50600180871614612bec575060028581161460208501526007600286901c1688820135600382901b6101008190039190911c600190911b7fffffffffffffffffffffffffffffffffffffffffffffffffffffffffffffffff01169101908096918196602016612abb9060051c90565b612ac4906115c1565b8a820135600382901b6101008190039190911c600190911b7fffffffffffffffffffffffffffffffffffffffffffffffffffffffffffffffff01169101959098899a81612b108461284b565b988993612b1c9361211e565b91612b26936133c2565b9098612b3a91600052602052604060002090565b90612b4d91600052602052604060002090565b9073ffffffffffffffffffffffffffffffffffffffff16612b7691600052602052604060002090565b94815190868215159283612be1575b505081612bd2575b50612b955750565b6040517fccbb534f000000000000000000000000000000000000000000000000000000008152815160048201526020909101516024820152604490fd5b90506020820151101538612b8d565b141591508638612b85565b909691939450612bfe81989398612992565b612c2357612c189581612c109361211e565b939092613175565b919394909293929190565b7ffdf132ad0000000000000000000000000000000000000000000000000000000060005260046000fd5b600097507fffffffffffffffffffffffffffffffffffffffffffffffffffffffffffffffc06040881601612a4c578981013560601c9750601401915087878a84612c9685612992565b60028503612ca7575b505050612a4c565b60038101965093945073ffffffffffffffffffffffffffffffffffffffff9381013560e81c92604092612d2c929091612cf791612cf0918a90612cea89836115d4565b9261211e565b3691610406565b83519586809481937fccce3bc800000000000000000000000000000000000000000000000000000000835230600484016129f3565b0392165afa80156110e357612d4a92600091612d54575b50936115d4565b9087388a81612c9f565b612d76915060403d604011612d7c575b612d6e8183610337565b8101906129cb565b38612d43565b503d612d64565b9160009391849360208451940192f190565b9160009291839260208351930191f490565b3d90604051916020818401016040528083526000602084013e565b60405160208101917fc852adf5e97c2fc3b38f405671e91b7af1697ef0287577f227ef10494c2a8e868352604082015260408152612e01606082610337565b51902055565b60405160208101917f8d0bf1fd623d628c741362c1289948e57b3e2905218c676d3e69abee36d6ae2e8352604082015260408152612e01606082610337565b60405160208101917fbe27a319efc8734e89e26ba4bc95f5c788584163b959f03fa04e2d7ab4b9a1208352604082015260408152612e01606082610337565b15612f35576000905b73ffffffffffffffffffffffffffffffffffffffff6040519160208301937f8b73c3c69bb8fe3d512ecc4cf759cc79239f7b179b0ffacaa9a75d522b39400f85527f4aa45ca7ad825ceb1bf35643f0a58c295239df563b1b565c2485f96477c5631860408501527f2a80e1ef1d7842f27f2e6be0972bb708b9a135c38860dbe73c27c3486c34f4de606085015260808401521660a082015260a0815261284560c082610337565b4690612e8e565b805160209091019060005b818110612f545750505090565b825173ffffffffffffffffffffffffffffffffffffffff16845260209384019390920191600101612f47565b610100810151604051612f9b816128ad602082018095612f3c565b51902090612faa815160ff1690565b60ff81168061302357505090612845612fc66040840151613c72565b926128ad60806060830151920151936040519485936020850197889094939260809260a08301967f11e1e4079a79a66e4ade50033cfe2678cdd5341d2dfe5ef9513edb1a0be147a284526020840152604083015260608201520152565b6001810361308157505060a001518051602091820120604080517fe19a3b94fc3c7ece3f890d98a99bc422615537a08dea0603fa8425867d87d4669381019384529081019190915260608101929092529061284581608081016128ad565b600281036130d757505060c00151604080517f11fdeb7e8373a1aa96bfac8d0ea91526b2c5d15e5cee20e0543e780258f3e8e46020820190815291810192909252606082019290925261284581608081016128ad565b60030361312b575060e00151604080517fe19a3b94fc3c7ece3f890d98a99bc422615537a08dea0603fa8425867d87d4666020820190815291810192909252606082019290925261284581608081016128ad565b7f048183200000000000000000000000000000000000000000000000000000000060005260ff1660045260246000fd5b9061243d906040939695949660608452606084019161187b565b9194929092600095600095600095600095600095613191611fa6565b60028152937fffffffffffffffffffffffffffffffffffffffffffffffffffffffffffffffff9460005b8281106131e8575050505050505080511515806131da575b612b955750565b5060208101518411156131d3565b600381019d50959b509399509197509290919061320c908b9085013560e81c6115d4565b9582870361334c578a6001915b7fffffffffffffffffffffffffffffffffffffffffffffffffffffffffffffffff8c0361331d575061325991613252898c93878961211e565b908b612a20565b9c939c9b929b9a919a99909a9b9d8e9d9e8f905b106132d75750928b8851146132ce575b808b101561329c57508a60c085015289929592959491949390936131bb565b7f37daf62b0000000000000000000000000000000000000000000000000000000060005260048b905260245260446000fd5b6000885261327d565b8d8f61082e6132e885858c8e61211e565b9390926040519485947fb006aba00000000000000000000000000000000000000000000000000000000086526004860161315b565b979899809b926133328b61333994888a61211e565b9086612a20565b50929d919c909b929a9092918e8e61326d565b8a600291613219565b908160209103126101a55751610458816109d2565b60409061045894928152816020820152019161187b565b73ffffffffffffffffffffffffffffffffffffffff61045895936060938352166020820152816040820152019161187b565b908160209103126101a5575190565b9391909360009460009460005b8181106133dd575050505050565b8481013560f881901c9860019092019788979692909160fc1c988915613bd1575060018914613b9157600289146139c45760038914613995576004891461391457600689146138745760058914613826576007891461375f576008891461370957600989146135e057600a891461347d577fb2505f7c00000000000000000000000000000000000000000000000000000000600052600489905260246000fd5b909192939495969750600389169788156135cf575b8381013560601c90601401909960021c60031660ff1684820135600382901b6101008190039190911c600190911b7fffffffffffffffffffffffffffffffffffffffffffffffffffffffffffffffff0116910190810190816134f591878761211e565b6040517f898bd9210000000000000000000000000000000000000000000000000000000081529391849161352d918a6004850161336a565b038373ffffffffffffffffffffffffffffffffffffffff8d1691815a93602094fa9182156110e3576135709360009361359c575b5060ff909a168091019a613ed3565b908015613596579061358a91600052602052604060002090565b955b93929190936133cf565b5061358a565b60ff9193506135c19060203d81116135c8575b6135b98183610337565b8101906133b3565b9290613561565b503d6135af565b8084013560f81c9850600101613492565b909192939495969750600389169788156136f8575b8381013560601c90601401909960021c60031660ff1684820135600382901b6101008190039190911c600190911b7fffffffffffffffffffffffffffffffffffffffffffffffffffffffffffffffff01169101908101908161365891878761211e565b6040517f13792a4a00000000000000000000000000000000000000000000000000000000815293918491613690918b600485016118ba565b038373ffffffffffffffffffffffffffffffffffffffff8d1691815a93602094fa9182156110e3576136d29360009361359c575060ff909a168091019a613ed3565b9080156136f257906136ec91600052602052604060002090565b9561358c565b506136ec565b8084013560f81c98506001016135f5565b98506020870197509495939492939192909182013561372786613e7a565b8114613737575b6136d290613e94565b7fffffffffffffffffffffffffffffffffffffffffffffffffffffffffffffffff985061372e565b975090919293949597600f16968715613814575b602060006137856137f29a9b86613dad565b9c9092918a6040516137c8816128ad8a82019485603c917f19457468657265756d205369676e6564204d6573736167653a0a3332000000008252601c8201520190565b51902092604051948594859094939260ff6060936080840197845216602083015260408201520152565b838052039060015afa156110e3576136d29060ff6000519a16809101996127da565b600189019883013560f81c9750613773565b98506020870197509495939492939192909182013580851461384c575b6136d290613e3b565b7fffffffffffffffffffffffffffffffffffffffffffffffffffffffffffffffff9850613843565b989091929394959662ffffff98506138966122ab600c8416603f9060021c1690565b918215613900575b60031680156138ef575b9081906138d3906138cb908781013560e81c906003019c168c01809c898961211e565b90898b6133c2565b9111156138e6575b906136d29291613df0565b998201996138db565b50600281019084013560f01c6138a8565b8482013560f81c925060019091019061389e565b97509761396a613977929394959697600f61397f93169085929190928160031b7fffffffffffffffffffffffffffffffffffffffffffffffffffffffffffffffff6001821b019185013590610100031c16920190565b929083018093868661211e565b9086886133c2565b906136ec92980198600052602052604060002090565b9850965093949293919290919080820135906020019680156136f257906136ec91600052602052604060002090565b90919293949596975060038916978815613b80575b8084013560601c99613a3891601401906139f89060021c6003166122ab565b9085929190928160031b7fffffffffffffffffffffffffffffffffffffffffffffffffffffffffffffffff6001821b019185013590610100031c16920190565b90810190613a9c60208c613a4e85858b8b61211e565b919073ffffffffffffffffffffffffffffffffffffffff8c604051968795869485937f1626ba7e0000000000000000000000000000000000000000000000000000000085526004850161336a565b0392165afa9081156110e3577f1626ba7e00000000000000000000000000000000000000000000000000000000917fffffffff0000000000000000000000000000000000000000000000000000000091600091613b52575b501603613b0e57509060ff6136d2929916809101996127da565b61082e613b1f8c938993898961211e565b906040519485947fb2fed7ae00000000000000000000000000000000000000000000000000000000865260048601613381565b613b73915060203d8111613b79575b613b6b8183610337565b810190613355565b38613af4565b503d613b61565b8381013560f81c98506001016139d9565b98600f91929394959697985016968715613bc0575b60148101976136d29160ff9091169084013560601c6127da565b8281013560f81c9750600101613ba6565b98509091929394959698600f16978815613c23575b5060206000613bf96137f29a9b86613dad565b9c90916040519384938c859094939260ff6060936080840197845216602083015260408201520152565b60018101995083013560f81c97506020613be6565b613c40611be8565b1490565b805160209091019060005b818110613c5c5750505090565b8251845260209384019390920191600101613c4f565b9081517fffffffffffffffffffffffffffffffffffffffffffffffffffffffffffffffe0613cb8613ca2836103b4565b92613cb06040519485610337565b8084526103b4565b0136602083013760005b8351811015613d945780613cd86001928661165f565b5173ffffffffffffffffffffffffffffffffffffffff81511690602081015190604081015160208151910120906060810151608082015115159060c060a08401511515930151936040519560208701977f0603985259a953da1f65a522f589c17bd1d0117ec1d3abb7c0788aef251ef437895260408801526060870152608086015260a085015260c084015260e08301526101008201526101008152613d8061012082610337565b519020613d8d828561165f565b5201613cc2565b50909150604051612845816128ad602082018095613c44565b8101916040602084359401359201601b7f7fffffffffffffffffffffffffffffffffffffffffffffffffffffffffffffff84169360ff1c0160ff81116115cf5791565b916040519160208301937f53657175656e6365206e657374656420636f6e6669673a0a0000000000000000855260388401526058830152607882015260788152612845609882610337565b60405160208101917f53657175656e636520737461746963206469676573743a0a00000000000000008352603882015260388152612845605882610337565b6128ad61284561286b612865600060208601511515612e85565b60405160208101917f53657175656e636520616e792061646472657373207375626469676573743a0a8352604082015260408152612845606082610337565b91604051917fffffffffffffffffffffffffffffffffffffffff00000000000000000000000060208401947f53657175656e63652073617069656e7420636f6e6669673a0a00000000000000865260601b166039840152604d830152606d820152606d8152612845608d8261033756fea2646970667358221220812e6ecee101f691b33ca5a35b93bddbaca809cb4f6cf6ee8fffbedcafa5141764736f6c634300081c0033","linkReferences":{}},"methodIdentifiers":{"DEFAULT_CHECKPOINTER()":"540e3ad9","addHook(bytes4,address)":"b93ea7ad","entrypoint()":"a65d69d4","execute(bytes,bytes)":"1f6a1eb9","executeUserOp(bytes)":"9c145aed","getStaticSignature(bytes32)":"92dcb3fc","imageHash()":"51605d80","isValidSignature(bytes32,bytes)":"1626ba7e","onERC1155BatchReceived(address,address,uint256[],uint256[],bytes)":"bc197c81","onERC1155Received(address,address,uint256,uint256,bytes)":"f23a6e61","onERC721Received(address,address,uint256,bytes)":"150b7a02","readHook(bytes4)":"1a9b2337","readNonce(uint256)":"8c3f5563","recoverPartialSignature((uint8,bool,(address,uint256,bytes,uint256,bool,bool,uint256)[],uint256,uint256,bytes,bytes32,bytes32,address[]),bytes)":"ad55366b","recoverSapientSignature((uint8,bool,(address,uint256,bytes,uint256,bool,bool,uint256)[],uint256,uint256,bytes,bytes32,bytes32,address[]),bytes)":"13792a4a","removeHook(bytes4)":"4fcf3eca","selfExecute(bytes)":"6ea44577","setStaticSignature(bytes32,address,uint96)":"f727ef1c","tokenReceived(address,uint256,bytes)":"8943ec02","tokensReceived(address,address,address,uint256,bytes,bytes)":"0023de29","updateImageHash(bytes32)":"29561426","validateUserOp((address,uint256,bytes,bytes,bytes32,uint256,bytes32,bytes,bytes),bytes32,uint256)":"19822f7c"}}}}}