{"src/modules/auth/Stage7702Auth.sol":{"Stage7702Auth":{"abi":[{"type":"constructor","inputs":[{"name":"_defaultCheckpointer","type":"address","internalType":"address"}],"stateMutability":"nonpayable"},{"type":"function","name":"DEFAULT_CHECKPOINTER","inputs":[],"outputs":[{"name":"","type":"address","internalType":"address"}],"stateMutability":"view"},{"type":"function","name":"getStaticSignature","inputs":[{"name":"_hash","type":"bytes32","internalType":"bytes32"}],"outputs":[{"name":"","type":"address","internalType":"address"},{"name":"","type":"uint256","internalType":"uint256"}],"stateMutability":"view"},{"type":"function","name":"imageHash","inputs":[],"outputs":[{"name":"","type":"bytes32","internalType":"bytes32"}],"stateMutability":"view"},{"type":"function","name":"isValidSignature","inputs":[{"name":"_hash","type":"bytes32","internalType":"bytes32"},{"name":"_signature","type":"bytes","internalType":"bytes"}],"outputs":[{"name":"","type":"bytes4","internalType":"bytes4"}],"stateMutability":"view"},{"type":"function","name":"recoverPartialSignature","inputs":[{"name":"_payload","type":"tuple","internalType":"struct Payload.Decoded","components":[{"name":"kind","type":"uint8","internalType":"uint8"},{"name":"noChainId","type":"bool","internalType":"bool"},{"name":"calls","type":"tuple[]","internalType":"struct Payload.Call[]","components":[{"name":"to","type":"address","internalType":"address"},{"name":"value","type":"uint256","internalType":"uint256"},{"name":"data","type":"bytes","internalType":"bytes"},{"name":"gasLimit","type":"uint256","internalType":"uint256"},{"name":"delegateCall","type":"bool","internalType":"bool"},{"name":"onlyFallback","type":"bool","internalType":"bool"},{"name":"behaviorOnError","type":"uint256","internalType":"uint256"}]},{"name":"space","type":"uint256","internalType":"uint256"},{"name":"nonce","type":"uint256","internalType":"uint256"},{"name":"message","type":"bytes","internalType":"bytes"},{"name":"imageHash","type":"bytes32","internalType":"bytes32"},{"name":"digest","type":"bytes32","internalType":"bytes32"},{"name":"parentWallets","type":"address[]","internalType":"address[]"}]},{"name":"_signature","type":"bytes","internalType":"bytes"}],"outputs":[{"name":"threshold","type":"uint256","internalType":"uint256"},{"name":"weight","type":"uint256","internalType":"uint256"},{"name":"isValidImage","type":"bool","internalType":"bool"},{"name":"imageHash","type":"bytes32","internalType":"bytes32"},{"name":"checkpoint","type":"uint256","internalType":"uint256"},{"name":"opHash","type":"bytes32","internalType":"bytes32"}],"stateMutability":"view"},{"type":"function","name":"recoverSapientSignature","inputs":[{"name":"_payload","type":"tuple","internalType":"struct Payload.Decoded","components":[{"name":"kind","type":"uint8","internalType":"uint8"},{"name":"noChainId","type":"bool","internalType":"bool"},{"name":"calls","type":"tuple[]","internalType":"struct Payload.Call[]","components":[{"name":"to","type":"address","internalType":"address"},{"name":"value","type":"uint256","internalType":"uint256"},{"name":"data","type":"bytes","internalType":"bytes"},{"name":"gasLimit","type":"uint256","internalType":"uint256"},{"name":"delegateCall","type":"bool","internalType":"bool"},{"name":"onlyFallback","type":"bool","internalType":"bool"},{"name":"behaviorOnError","type":"uint256","internalType":"uint256"}]},{"name":"space","type":"uint256","internalType":"uint256"},{"name":"nonce","type":"uint256","internalType":"uint256"},{"name":"message","type":"bytes","internalType":"bytes"},{"name":"imageHash","type":"bytes32","internalType":"bytes32"},{"name":"digest","type":"bytes32","internalType":"bytes32"},{"name":"parentWallets","type":"address[]","internalType":"address[]"}]},{"name":"_signature","type":"bytes","internalType":"bytes"}],"outputs":[{"name":"","type":"bytes32","internalType":"bytes32"}],"stateMutability":"view"},{"type":"function","name":"setStaticSignature","inputs":[{"name":"_hash","type":"bytes32","internalType":"bytes32"},{"name":"_address","type":"address","internalType":"address"},{"name":"_timestamp","type":"uint96","internalType":"uint96"}],"outputs":[],"stateMutability":"nonpayable"},{"type":"function","name":"updateImageHash","inputs":[{"name":"_imageHash","type":"bytes32","internalType":"bytes32"}],"outputs":[],"stateMutability":"nonpayable"},{"type":"event","name":"ImageHashUpdated","inputs":[{"name":"newImageHash","type":"bytes32","indexed":false,"internalType":"bytes32"}],"anonymous":false},{"type":"event","name":"StaticSignatureSet","inputs":[{"name":"_hash","type":"bytes32","indexed":false,"internalType":"bytes32"},{"name":"_address","type":"address","indexed":false,"internalType":"address"},{"name":"_timestamp","type":"uint96","indexed":false,"internalType":"uint96"}],"anonymous":false},{"type":"error","name":"ChainedSignatureNestedInChainedSignature","inputs":[]},{"type":"error","name":"ImageHashIsZero","inputs":[]},{"type":"error","name":"InvalidERC1271Signature","inputs":[{"name":"_opHash","type":"bytes32","internalType":"bytes32"},{"name":"_signer","type":"address","internalType":"address"},{"name":"_signature","type":"bytes","internalType":"bytes"}]},{"type":"error","name":"InvalidKind","inputs":[{"name":"kind","type":"uint8","internalType":"uint8"}]},{"type":"error","name":"InvalidSapientSignature","inputs":[{"name":"_payload","type":"tuple","internalType":"struct Payload.Decoded","components":[{"name":"kind","type":"uint8","internalType":"uint8"},{"name":"noChainId","type":"bool","internalType":"bool"},{"name":"calls","type":"tuple[]","internalType":"struct Payload.Call[]","components":[{"name":"to","type":"address","internalType":"address"},{"name":"value","type":"uint256","internalType":"uint256"},{"name":"data","type":"bytes","internalType":"bytes"},{"name":"gasLimit","type":"uint256","internalType":"uint256"},{"name":"delegateCall","type":"bool","internalType":"bool"},{"name":"onlyFallback","type":"bool","internalType":"bool"},{"name":"behaviorOnError","type":"uint256","internalType":"uint256"}]},{"name":"space","type":"uint256","internalType":"uint256"},{"name":"nonce","type":"uint256","internalType":"uint256"},{"name":"message","type":"bytes","internalType":"bytes"},{"name":"imageHash","type":"bytes32","internalType":"bytes32"},{"name":"digest","type":"bytes32","internalType":"bytes32"},{"name":"parentWallets","type":"address[]","internalType":"address[]"}]},{"name":"_signature","type":"bytes","internalType":"bytes"}]},{"type":"error","name":"InvalidSignatureFlag","inputs":[{"name":"_flag","type":"uint256","internalType":"uint256"}]},{"type":"error","name":"InvalidSignatureWeight","inputs":[{"name":"_threshold","type":"uint256","internalType":"uint256"},{"name":"_weight","type":"uint256","internalType":"uint256"}]},{"type":"error","name":"InvalidStaticSignatureExpired","inputs":[{"name":"_opHash","type":"bytes32","internalType":"bytes32"},{"name":"_expires","type":"uint256","internalType":"uint256"}]},{"type":"error","name":"InvalidStaticSignatureWrongCaller","inputs":[{"name":"_opHash","type":"bytes32","internalType":"bytes32"},{"name":"_caller","type":"address","internalType":"address"},{"name":"_expectedCaller","type":"address","internalType":"address"}]},{"type":"error","name":"LowWeightChainedSignature","inputs":[{"name":"_signature","type":"bytes","internalType":"bytes"},{"name":"_threshold","type":"uint256","internalType":"uint256"},{"name":"_weight","type":"uint256","internalType":"uint256"}]},{"type":"error","name":"OnlySelf","inputs":[{"name":"_sender","type":"address","internalType":"address"}]},{"type":"error","name":"UnusedSnapshot","inputs":[{"name":"_snapshot","type":"tuple","internalType":"struct Snapshot","components":[{"name":"imageHash","type":"bytes32","internalType":"bytes32"},{"name":"checkpoint","type":"uint256","internalType":"uint256"}]}]},{"type":"error","name":"WrongChainedCheckpointOrder","inputs":[{"name":"_nextCheckpoint","type":"uint256","internalType":"uint256"},{"name":"_checkpoint","type":"uint256","internalType":"uint256"}]}],"userdoc":{},"devdoc":{},"evm":{"bytecode":{"object":"60a034606d57601f61286e38819003918201601f19168301916001600160401b03831184841017607257808492602094604052833981010312606d57516001600160a01b0381168103606d576080526040516127e5908161008982396080518181816108480152610ef90152f35b600080fd5b634e487b7160e01b600052604160045260246000fdfe6080604052600436101561001257600080fd5b60003560e01c806313792a4a146100975780631626ba7e14610092578063295614261461008d57806351605d8014610088578063540e3ad91461008357806392dcb3fc1461007e578063ad55366b146100795763f727ef1c1461007457600080fd5b610916565b6108ca565b61086c565b6107fd565b6107bc565b6106d5565b61064d565b34610194576100a5366104f5565b90916101008101926100c06100bb855151610a86565b610aa6565b9160005b8551805182101561012757906101216100fc6100e283600195610b24565b5173ffffffffffffffffffffffffffffffffffffffff1690565b6101068388610b24565b9073ffffffffffffffffffffffffffffffffffffffff169052565b016100c4565b505083838661013c3361010683515185610b24565b52610148818484610f2d565b501561015a5760405160018152602090f35b610190906040519384937ff58cc8b500000000000000000000000000000000000000000000000000000000855260048501610cfb565b0390fd5b600080fd5b7f4e487b7100000000000000000000000000000000000000000000000000000000600052604160045260246000fd5b6040810190811067ffffffffffffffff8211176101e457604052565b610199565b90601f7fffffffffffffffffffffffffffffffffffffffffffffffffffffffffffffffe0910116810190811067ffffffffffffffff8211176101e457604052565b6040519061023960e0836101e9565b565b60405190610239610120836101e9565b359060ff8216820361019457565b3590811515820361019457565b67ffffffffffffffff81116101e45760051b60200190565b6024359073ffffffffffffffffffffffffffffffffffffffff8216820361019457565b359073ffffffffffffffffffffffffffffffffffffffff8216820361019457565b92919267ffffffffffffffff82116101e4576040519161030a60207fffffffffffffffffffffffffffffffffffffffffffffffffffffffffffffffe0601f84011601846101e9565b829481845281830111610194578281602093846000960137010152565b9080601f8301121561019457816020610342933591016102c2565b90565b81601f820112156101945780359061035c82610266565b9261036a60405194856101e9565b82845260208085019360051b830101918183116101945760208101935b83851061039657505050505090565b843567ffffffffffffffff811161019457820160e07fffffffffffffffffffffffffffffffffffffffffffffffffffffffffffffffe08286030112610194576103dd61022a565b916103ea602083016102a1565b83526040820135602084015260608201359267ffffffffffffffff84116101945760e08361041f886020809881980101610327565b60408401526080810135606084015261043a60a08201610259565b608084015261044b60c08201610259565b60a0840152013560c0820152815201940193610387565b9080601f8301121561019457813561047981610266565b9261048760405194856101e9565b81845260208085019260051b82010192831161019457602001905b8282106104af5750505090565b602080916104bc846102a1565b8152019101906104a2565b9181601f840112156101945782359167ffffffffffffffff8311610194576020838186019501011161019457565b9060407ffffffffffffffffffffffffffffffffffffffffffffffffffffffffffffffffc8301126101945760043567ffffffffffffffff8111610194576101207ffffffffffffffffffffffffffffffffffffffffffffffffffffffffffffffffc82850301126101945761056761023b565b906105748160040161024b565b825261058260248201610259565b6020830152604481013567ffffffffffffffff8111610194578460046105aa92840101610345565b6040830152606481013560608301526084810135608083015260a481013567ffffffffffffffff8111610194578460046105e692840101610327565b60a083015260c481013560c083015260e481013560e083015261010481013567ffffffffffffffff81116101945760048591610623930101610462565b610100820152916024359067ffffffffffffffff821161019457610649916004016104c7565b9091565b346101945760407ffffffffffffffffffffffffffffffffffffffffffffffffffffffffffffffffc3601126101945760043560243567ffffffffffffffff8111610194576020916106a56106ab9236906004016104c7565b91610de2565b7fffffffff0000000000000000000000000000000000000000000000000000000060405191168152f35b346101945760207ffffffffffffffffffffffffffffffffffffffffffffffffffffffffffffffffc3601126101945760043530330361078e578015610764576020817f307ed6bd941ee9fc80f369c94af5fa11e25bab5102a6140191756c5474a30bfa927fea7157fa25e3aa17d0ae2d5280fa4e24d421c61842aa85e45194e1145aa72bf855604051908152a1005b7f4294d1270000000000000000000000000000000000000000000000000000000060005260046000fd5b7fa19dbf00000000000000000000000000000000000000000000000000000000006000523360045260246000fd5b346101945760007ffffffffffffffffffffffffffffffffffffffffffffffffffffffffffffffffc3601126101945760206107f5610e2e565b604051908152f35b346101945760007ffffffffffffffffffffffffffffffffffffffffffffffffffffffffffffffffc36011261019457602060405173ffffffffffffffffffffffffffffffffffffffff7f0000000000000000000000000000000000000000000000000000000000000000168152f35b346101945760207ffffffffffffffffffffffffffffffffffffffffffffffffffffffffffffffffc3601126101945760406108a86004356111ae565b73ffffffffffffffffffffffffffffffffffffffff8351921682526020820152f35b346101945760c06108e66000806108e0366104f5565b91611300565b926108f2929192610e2e565b821490604051958652602086015260408501526060840152608083015260a0820152f35b346101945760607ffffffffffffffffffffffffffffffffffffffffffffffffffffffffffffffffc3601126101945760043561095061027e565b604435916bffffffffffffffffffffffff83168093036101945730330361078e577febf265acfac1c01de588ed7ef49743b9c3ce8d6d1edeaf510a1f5453228515b19273ffffffffffffffffffffffffffffffffffffffff60609360405160208101610a17826109eb88849190602060408401937fc852adf5e97c2fc3b38f405671e91b7af1697ef0287577f227ef10494c2a8e8681520152565b037fffffffffffffffffffffffffffffffffffffffffffffffffffffffffffffffe081018452836101e9565b847fffffffffffffffffffffffffffffffffffffffff00000000000000000000000084891b161791519020556040519384521660208301526040820152a1005b7f4e487b7100000000000000000000000000000000000000000000000000000000600052601160045260246000fd5b9060018201809211610a9457565b610a57565b91908201809211610a9457565b90610ab082610266565b610abd60405191826101e9565b8281527fffffffffffffffffffffffffffffffffffffffffffffffffffffffffffffffe0610aeb8294610266565b0190602036910137565b7f4e487b7100000000000000000000000000000000000000000000000000000000600052603260045260246000fd5b8051821015610b385760209160051b010190565b610af5565b919082519283825260005b848110610b875750507fffffffffffffffffffffffffffffffffffffffffffffffffffffffffffffffe0601f8460006020809697860101520116010190565b80602080928401015182828601015201610b48565b9080602083519182815201916020808360051b8301019401926000915b838310610bc857505050505090565b9091929394602080827fffffffffffffffffffffffffffffffffffffffffffffffffffffffffffffffe0856001950301865288519073ffffffffffffffffffffffffffffffffffffffff8251168152828201518382015260c080610c3b604085015160e0604086015260e0850190610b3d565b936060810151606085015260808101511515608085015260a0810151151560a0850152015191015297019301930191939290610bb9565b906020808351928381520192019060005b818110610c905750505090565b825173ffffffffffffffffffffffffffffffffffffffff16845260209384019390920191600101610c83565b601f82602094937fffffffffffffffffffffffffffffffffffffffffffffffffffffffffffffffe0938186528686013760008582860101520116010190565b91610dd4610342949260408552610d1860408601825160ff169052565b602081015115156060860152610100610d8d610d45604084015161012060808a0152610160890190610b9c565b606084015160a0890152608084015160c089015260a08401517fffffffffffffffffffffffffffffffffffffffffffffffffffffffffffffffc08983030160e08a0152610b3d565b9160c08101518288015260e081015161012088015201517fffffffffffffffffffffffffffffffffffffffffffffffffffffffffffffffc086830301610140870152610c72565b926020818503910152610cbc565b90610dff9291610df06110e2565b906003825260e0820152610f2d565b5015610e29577f1626ba7e0000000000000000000000000000000000000000000000000000000090565b600090565b7fea7157fa25e3aa17d0ae2d5280fa4e24d421c61842aa85e45194e1145aa72bf85480610342575060405160208101907f53657175656e6365207369676e65723a0a00000000000000000000000000000082527fffffffffffffffffffffffffffffffffffffffff0000000000000000000000003060601b1660318201526001604582015260458152610ec26065826101e9565b519020600052600160205260406000206000526000602052604060002060005273ffffffffffffffffffffffffffffffffffffffff7f000000000000000000000000000000000000000000000000000000000000000016602052604060002090565b9015610b385790565b610f60610f3a8484610f24565b357fff000000000000000000000000000000000000000000000000000000000000001690565b7f800000000000000000000000000000000000000000000000000000000000000080821614610fe35750610f98926000928392611300565b905091909192808210610fb3575050610faf610e2e565b1491565b7ffd41fcba0000000000000000000000000000000000000000000000000000000060005260045260245260446000fd5b7f020000000000000000000000000000000000000000000000000000000000000090811614602082015261101992509050611668565b90611023826111ae565b428111156110b0575073ffffffffffffffffffffffffffffffffffffffff811680151590816110a5575b50611059575060019190565b7f8945c3130000000000000000000000000000000000000000000000000000000060005260048390523360245273ffffffffffffffffffffffffffffffffffffffff1660445260646000fd5b90503314153861104d565b7ff95b6ab700000000000000000000000000000000000000000000000000000000600052600484905260245260446000fd5b60405190610120820182811067ffffffffffffffff8211176101e4576040526060610100836000815260006020820152826040820152600083820152600060808201528260a0820152600060c0820152600060e08201520152565b90604051907fffffffffffffffffffffffffffffffffffffffff00000000000000000000000060208301937f53657175656e6365207369676e65723a0a000000000000000000000000000000855260601b1660318301526045820152604581526111a86065826101e9565b51902090565b60405161121a816111ee6020820194859190602060408401937fc852adf5e97c2fc3b38f405671e91b7af1697ef0287577f227ef10494c2a8e8681520152565b037fffffffffffffffffffffffffffffffffffffffffffffffffffffffffffffffe081018352826101e9565b51902054906bffffffffffffffffffffffff8260601c921690565b60405190611242826101c8565b60006020838281520152565b6003111561125857565b7f4e487b7100000000000000000000000000000000000000000000000000000000600052602160045260246000fd5b90939293848311610194578411610194578101920390565b90816040910312610194576020604051916112b9836101c8565b805183520151602082015290565b60409073ffffffffffffffffffffffffffffffffffffffff61034294931681528160208201520190610b3d565b6040513d6000823e3d90fd5b909491939291853560f81c600190938190611319611235565b926113238261124e565b6001820361152d575b506001808716146114cc575060028581161460208501526007600286901c1688820135600382901b6101008190039190911c600190911b7fffffffffffffffffffffffffffffffffffffffffffffffffffffffffffffffff0116910190809691819660201661139b9060051c90565b6113a490610a86565b8a820135600382901b6101008190039190911c600190911b7fffffffffffffffffffffffffffffffffffffffffffffffffffffffffffffffff01169101959098899a816113f084611668565b9889936113fc93611287565b916114069361195e565b909861141a91600052602052604060002090565b9061142d91600052602052604060002090565b9073ffffffffffffffffffffffffffffffffffffffff1661145691600052602052604060002090565b948151908682151592836114c1575b5050816114b2575b506114755750565b6040517fccbb534f000000000000000000000000000000000000000000000000000000008152815160048201526020909101516024820152604490fd5b9050602082015110153861146d565b141591508638611465565b9096919394506114de8198939861124e565b611503576114f895816114f093611287565b9390926116ee565b919394909293929190565b7ffdf132ad0000000000000000000000000000000000000000000000000000000060005260046000fd5b600097507fffffffffffffffffffffffffffffffffffffffffffffffffffffffffffffffc0604088160161132c578981013560601c9750601401915087878a846115768561124e565b60028503611587575b50505061132c565b60038101965093945073ffffffffffffffffffffffffffffffffffffffff9381013560e81c9260409261160c9290916115d7916115d0918a906115ca8983610a99565b92611287565b36916102c2565b83519586809481937fccce3bc800000000000000000000000000000000000000000000000000000000835230600484016112c7565b0392165afa80156116635761162a92600091611634575b5093610a99565b9087388a8161157f565b611656915060403d60401161165c575b61164e81836101e9565b81019061129f565b38611623565b503d611644565b6112f4565b6111ee6111a86116886116826020850151151530906121da565b936122d5565b60405192839160208301958690916042927f19010000000000000000000000000000000000000000000000000000000000008352600283015260228201520190565b906116e49060409396959496606084526060840191610cbc565b9460208201520152565b919492909260009560009560009560009560009561170a6110e2565b60028152937fffffffffffffffffffffffffffffffffffffffffffffffffffffffffffffffff9460005b82811061176157505050505050508051151580611753575b6114755750565b50602081015184111561174c565b600381019d50959b5093995091975092909190611785908b9085013560e81c610a99565b958287036118c5578a6001915b7fffffffffffffffffffffffffffffffffffffffffffffffffffffffffffffffff8c0361189657506117d2916117cb898c938789611287565b908b611300565b9c939c9b929b9a919a99909a9b9d8e9d9e8f905b106118505750928b885114611847575b808b101561181557508a60c08501528992959295949194939093611734565b7f37daf62b0000000000000000000000000000000000000000000000000000000060005260048b905260245260446000fd5b600088526117f6565b8d8f61019061186185858c8e611287565b9390926040519485947fb006aba0000000000000000000000000000000000000000000000000000000008652600486016116ca565b979899809b926118ab8b6118b294888a611287565b9086611300565b50929d919c909b929a9092918e8e6117e6565b8a600291611792565b9081602091031261019457517fffffffff00000000000000000000000000000000000000000000000000000000811681036101945790565b604090610342949281528160208201520191610cbc565b73ffffffffffffffffffffffffffffffffffffffff610342959360609383521660208201528160408201520191610cbc565b90816020910312610194575190565b9391909360009460009460005b818110611979575050505050565b8481013560f881901c9860019092019788979692909160fc1c9889156121735750600189146121335760028914611f665760038914611f375760048914611eb65760068914611e105760058914611dc25760078914611cfb5760088914611ca55760098914611b7c57600a8914611a19577fb2505f7c00000000000000000000000000000000000000000000000000000000600052600489905260246000fd5b90919293949596975060038916978815611b6b575b8381013560601c90601401909960021c60031660ff1684820135600382901b6101008190039190911c600190911b7fffffffffffffffffffffffffffffffffffffffffffffffffffffffffffffffff011691019081019081611a91918787611287565b6040517f898bd92100000000000000000000000000000000000000000000000000000000815293918491611ac9918a60048501611906565b038373ffffffffffffffffffffffffffffffffffffffff8d1691815a93602094fa91821561166357611b0c93600093611b38575b5060ff909a168091019a6125d6565b908015611b325790611b2691600052602052604060002090565b955b939291909361196b565b50611b26565b60ff919350611b5d9060203d8111611b64575b611b5581836101e9565b81019061194f565b9290611afd565b503d611b4b565b8084013560f81c9850600101611a2e565b90919293949596975060038916978815611c94575b8381013560601c90601401909960021c60031660ff1684820135600382901b6101008190039190911c600190911b7fffffffffffffffffffffffffffffffffffffffffffffffffffffffffffffffff011691019081019081611bf4918787611287565b6040517f13792a4a00000000000000000000000000000000000000000000000000000000815293918491611c2c918b60048501610cfb565b038373ffffffffffffffffffffffffffffffffffffffff8d1691815a93602094fa91821561166357611c6e93600093611b38575060ff909a168091019a6125d6565b908015611c8e5790611c8891600052602052604060002090565b95611b28565b50611c88565b8084013560f81c9850600101611b91565b985060208701975094959394929391929091820135611cc38661257d565b8114611cd3575b611c6e90612597565b7fffffffffffffffffffffffffffffffffffffffffffffffffffffffffffffffff9850611cca565b975090919293949597600f16968715611db0575b60206000611d21611d8e9a9b866124b0565b9c9092918a604051611d64816111ee8a82019485603c917f19457468657265756d205369676e6564204d6573736167653a0a3332000000008252601c8201520190565b51902092604051948594859094939260ff6060936080840197845216602083015260408201520152565b838052039060015afa1561166357611c6e9060ff6000519a168091019961113d565b600189019883013560f81c9750611d0f565b985060208701975094959394929391929091820135808514611de8575b611c6e9061253e565b7fffffffffffffffffffffffffffffffffffffffffffffffffffffffffffffffff9850611ddf565b989091929394959662ffffff9850611e38611e32600c8416603f9060021c1690565b60ff1690565b918215611ea2575b6003168015611e91575b908190611e7590611e6d908781013560e81c906003019c168c01809c8989611287565b90898b61195e565b911115611e88575b90611c6e92916124f3565b99820199611e7d565b50600281019084013560f01c611e4a565b8482013560f81c9250600190910190611e40565b975097611f0c611f19929394959697600f611f2193169085929190928160031b7fffffffffffffffffffffffffffffffffffffffffffffffffffffffffffffffff6001821b019185013590610100031c16920190565b9290830180938686611287565b90868861195e565b90611c8892980198600052602052604060002090565b985096509394929391929091908082013590602001968015611c8e5790611c8891600052602052604060002090565b90919293949596975060038916978815612122575b8084013560601c99611fda9160140190611f9a9060021c600316611e32565b9085929190928160031b7fffffffffffffffffffffffffffffffffffffffffffffffffffffffffffffffff6001821b019185013590610100031c16920190565b9081019061203e60208c611ff085858b8b611287565b919073ffffffffffffffffffffffffffffffffffffffff8c604051968795869485937f1626ba7e00000000000000000000000000000000000000000000000000000000855260048501611906565b0392165afa908115611663577f1626ba7e00000000000000000000000000000000000000000000000000000000917fffffffff00000000000000000000000000000000000000000000000000000000916000916120f4575b5016036120b057509060ff611c6e9299168091019961113d565b6101906120c18c9389938989611287565b906040519485947fb2fed7ae0000000000000000000000000000000000000000000000000000000086526004860161191d565b612115915060203d811161211b575b61210d81836101e9565b8101906118ce565b38612096565b503d612103565b8381013560f81c9850600101611f7b565b98600f91929394959697985016968715612162575b6014810197611c6e9160ff9091169084013560601c61113d565b8281013560f81c9750600101612148565b98509091929394959698600f169788156121c5575b506020600061219b611d8e9a9b866124b0565b9c90916040519384938c859094939260ff6060936080840197845216602083015260408201520152565b60018101995083013560f81c97506020612188565b1561228a576000905b73ffffffffffffffffffffffffffffffffffffffff6040519160208301937f8b73c3c69bb8fe3d512ecc4cf759cc79239f7b179b0ffacaa9a75d522b39400f85527f4aa45ca7ad825ceb1bf35643f0a58c295239df563b1b565c2485f96477c5631860408501527f2a80e1ef1d7842f27f2e6be0972bb708b9a135c38860dbe73c27c3486c34f4de606085015260808401521660a082015260a081526111a860c0826101e9565b46906121e3565b805160209091019060005b8181106122a95750505090565b825173ffffffffffffffffffffffffffffffffffffffff1684526020938401939092019160010161229c565b6101008101516040516122f0816111ee602082018095612291565b519020906122ff815160ff1690565b60ff811680612378575050906111a861231b6040840151612674565b926111ee60806060830151920151936040519485936020850197889094939260809260a08301967f11e1e4079a79a66e4ade50033cfe2678cdd5341d2dfe5ef9513edb1a0be147a284526020840152604083015260608201520152565b600181036123d657505060a001518051602091820120604080517fe19a3b94fc3c7ece3f890d98a99bc422615537a08dea0603fa8425867d87d466938101938452908101919091526060810192909252906111a881608081016111ee565b6002810361242c57505060c00151604080517f11fdeb7e8373a1aa96bfac8d0ea91526b2c5d15e5cee20e0543e780258f3e8e4602082019081529181019290925260608201929092526111a881608081016111ee565b600303612480575060e00151604080517fe19a3b94fc3c7ece3f890d98a99bc422615537a08dea0603fa8425867d87d466602082019081529181019290925260608201929092526111a881608081016111ee565b7f048183200000000000000000000000000000000000000000000000000000000060005260ff1660045260246000fd5b8101916040602084359401359201601b7f7fffffffffffffffffffffffffffffffffffffffffffffffffffffffffffffff84169360ff1c0160ff8111610a945791565b916040519160208301937f53657175656e6365206e657374656420636f6e6669673a0a00000000000000008552603884015260588301526078820152607881526111a86098826101e9565b60405160208101917f53657175656e636520737461746963206469676573743a0a000000000000000083526038820152603881526111a86058826101e9565b6111ee6111a86116886116826000602086015115156121da565b60405160208101917f53657175656e636520616e792061646472657373207375626469676573743a0a83526040820152604081526111a86060826101e9565b91604051917fffffffffffffffffffffffffffffffffffffffff00000000000000000000000060208401947f53657175656e63652073617069656e7420636f6e6669673a0a00000000000000865260601b166039840152604d830152606d820152606d81526111a8608d826101e9565b805160209091019060005b81811061265e5750505090565b8251845260209384019390920191600101612651565b9081517fffffffffffffffffffffffffffffffffffffffffffffffffffffffffffffffe06126ba6126a483610266565b926126b260405194856101e9565b808452610266565b0136602083013760005b835181101561279657806126da60019286610b24565b5173ffffffffffffffffffffffffffffffffffffffff81511690602081015190604081015160208151910120906060810151608082015115159060c060a08401511515930151936040519560208701977f0603985259a953da1f65a522f589c17bd1d0117ec1d3abb7c0788aef251ef437895260408801526060870152608086015260a085015260c084015260e08301526101008201526101008152612782610120826101e9565b51902061278f8285610b24565b52016126c4565b509091506040516111a8816111ee60208201809561264656fea2646970667358221220395cfd4251fd0930cf053aaa023d47c599d46a1a928d8bac325fc9f19b22795d64736f6c634300081c0033","linkReferences":{}},"methodIdentifiers":{"DEFAULT_CHECKPOINTER()":"540e3ad9","getStaticSignature(bytes32)":"92dcb3fc","imageHash()":"51605d80","isValidSignature(bytes32,bytes)":"1626ba7e","recoverPartialSignature((uint8,bool,(address,uint256,bytes,uint256,bool,bool,uint256)[],uint256,uint256,bytes,bytes32,bytes32,address[]),bytes)":"ad55366b","recoverSapientSignature((uint8,bool,(address,uint256,bytes,uint256,bool,bool,uint256)[],uint256,uint256,bytes,bytes32,bytes32,address[]),bytes)":"13792a4a","setStaticSignature(bytes32,address,uint96)":"f727ef1c","updateImageHash(bytes32)":"29561426"}}}}}