{
	"contracts/BatchPayableHelper.sol": {
		"BatchPayableHelper": {
			"abi": [
				{
					"inputs": [],
					"name": "InvalidBatchRequest",
					"type": "error"
				},
				{
					"inputs": [
						{
							"internalType": "contract ISequenceMarketFunctions",
							"name": "market",
							"type": "address"
						},
						{
							"internalType": "uint256[]",
							"name": "requestIds",
							"type": "uint256[]"
						},
						{
							"internalType": "uint256[]",
							"name": "quantities",
							"type": "uint256[]"
						},
						{
							"internalType": "address[]",
							"name": "recipients",
							"type": "address[]"
						},
						{
							"internalType": "uint256[]",
							"name": "additionalFees",
							"type": "uint256[]"
						},
						{
							"internalType": "address[]",
							"name": "additionalFeeRecipients",
							"type": "address[]"
						}
					],
					"name": "acceptRequestBatch",
					"outputs": [],
					"stateMutability": "payable",
					"type": "function"
				},
				{
					"stateMutability": "payable",
					"type": "receive"
				}
			],
			"devdoc": {
				"kind": "dev",
				"methods": {
					"acceptRequestBatch(address,uint256[],uint256[],address[],uint256[],address[])": {
						"details": "Additional fees are applied to each request.",
						"params": {
							"additionalFeeRecipients": "The addresses to send the additional fees to.",
							"additionalFees": "The additional fees to pay.",
							"market": "The market to accept requests on.",
							"quantities": "The quantities of tokens to accept.",
							"recipients": "The recipients of the accepted tokens.",
							"requestIds": "The IDs of the requests."
						}
					}
				},
				"version": 1
			},
			"evm": {
				"bytecode": {
					"linkReferences": {},
					"object": "6080806040523461001657610360908161001c8239f35b600080fdfe6080604052600436101561001b575b361561001957600080fd5b005b60003560e01c638c7080c90361000e5760c03660031901126102b3576004356001600160a01b03811681036102b35760243567ffffffffffffffff81116102b35761006a9036906004016102d3565b909160443567ffffffffffffffff81116102b35761008c9036906004016102d3565b93909260643567ffffffffffffffff81116102b3576100af9036906004016102d3565b959060843567ffffffffffffffff81116102b3576100d19036906004016102d3565b9167ffffffffffffffff60a435116102b3576100f23660a4356004016102d3565b9490958181148015906102c9575b6102b85760005b818110610142574761011557005b600080808047818115610139575b3390f11561012d57005b6040513d6000823e3d90fd5b506108fc610123565b8a898d61016984610161818961015a828b4799610304565b3597610304565b359289610304565b35906001600160a01b03821682036102b3576001600160a01b038e163b156102b35760405163735eb90760e11b8152600481019490945260248401526001600160a01b0316604483015260a0606483015260a482018890526001600160fb1b0388116102b357818c60e48a60051b8c60c491808d84880137850191820160c086840301608487015252018c60005b8d811061027757506000949184900392849291506001600160a01b03165af1801561012d57610249575b50600019811461023357600101610107565b634e487b7160e01b600052601160045260246000fd5b67ffffffffffffffff81116102615760405238610221565b634e487b7160e01b600052604160045260246000fd5b90935091508235906001600160a01b03821682036102b3576001600160a01b03909116815284928f9260209283019291909101906001016101f7565b600080fd5b6355ca07b760e11b60805260046080fd5b508a811415610100565b9181601f840112156102b35782359167ffffffffffffffff83116102b3576020808501948460051b0101116102b357565b91908110156103145760051b0190565b634e487b7160e01b600052603260045260246000fdfea26469706673582212203d65e458361e6ed154313c1fee4d625f6539a08b82ac3d52e9e20033e8b8691c64736f6c63430008130033",
					"opcodes": "PUSH1 0x80 DUP1 PUSH1 0x40 MSTORE CALLVALUE PUSH2 0x16 JUMPI PUSH2 0x360 SWAP1 DUP2 PUSH2 0x1C DUP3 CODECOPY RETURN JUMPDEST PUSH1 0x0 DUP1 REVERT INVALID PUSH1 0x80 PUSH1 0x40 MSTORE PUSH1 0x4 CALLDATASIZE LT ISZERO PUSH2 0x1B JUMPI JUMPDEST CALLDATASIZE ISZERO PUSH2 0x19 JUMPI PUSH1 0x0 DUP1 REVERT JUMPDEST STOP JUMPDEST PUSH1 0x0 CALLDATALOAD PUSH1 0xE0 SHR PUSH4 0x8C7080C9 SUB PUSH2 0xE JUMPI PUSH1 0xC0 CALLDATASIZE PUSH1 0x3 NOT ADD SLT PUSH2 0x2B3 JUMPI PUSH1 0x4 CALLDATALOAD PUSH1 0x1 PUSH1 0x1 PUSH1 0xA0 SHL SUB DUP2 AND DUP2 SUB PUSH2 0x2B3 JUMPI PUSH1 0x24 CALLDATALOAD PUSH8 0xFFFFFFFFFFFFFFFF DUP2 GT PUSH2 0x2B3 JUMPI PUSH2 0x6A SWAP1 CALLDATASIZE SWAP1 PUSH1 0x4 ADD PUSH2 0x2D3 JUMP JUMPDEST SWAP1 SWAP2 PUSH1 0x44 CALLDATALOAD PUSH8 0xFFFFFFFFFFFFFFFF DUP2 GT PUSH2 0x2B3 JUMPI PUSH2 0x8C SWAP1 CALLDATASIZE SWAP1 PUSH1 0x4 ADD PUSH2 0x2D3 JUMP JUMPDEST SWAP4 SWAP1 SWAP3 PUSH1 0x64 CALLDATALOAD PUSH8 0xFFFFFFFFFFFFFFFF DUP2 GT PUSH2 0x2B3 JUMPI PUSH2 0xAF SWAP1 CALLDATASIZE SWAP1 PUSH1 0x4 ADD PUSH2 0x2D3 JUMP JUMPDEST SWAP6 SWAP1 PUSH1 0x84 CALLDATALOAD PUSH8 0xFFFFFFFFFFFFFFFF DUP2 GT PUSH2 0x2B3 JUMPI PUSH2 0xD1 SWAP1 CALLDATASIZE SWAP1 PUSH1 0x4 ADD PUSH2 0x2D3 JUMP JUMPDEST SWAP2 PUSH8 0xFFFFFFFFFFFFFFFF PUSH1 0xA4 CALLDATALOAD GT PUSH2 0x2B3 JUMPI PUSH2 0xF2 CALLDATASIZE PUSH1 0xA4 CALLDATALOAD PUSH1 0x4 ADD PUSH2 0x2D3 JUMP JUMPDEST SWAP5 SWAP1 SWAP6 DUP2 DUP2 EQ DUP1 ISZERO SWAP1 PUSH2 0x2C9 JUMPI JUMPDEST PUSH2 0x2B8 JUMPI PUSH1 0x0 JUMPDEST DUP2 DUP2 LT PUSH2 0x142 JUMPI SELFBALANCE PUSH2 0x115 JUMPI STOP JUMPDEST PUSH1 0x0 DUP1 DUP1 DUP1 SELFBALANCE DUP2 DUP2 ISZERO PUSH2 0x139 JUMPI JUMPDEST CALLER SWAP1 CALL ISZERO PUSH2 0x12D JUMPI STOP JUMPDEST PUSH1 0x40 MLOAD RETURNDATASIZE PUSH1 0x0 DUP3 RETURNDATACOPY RETURNDATASIZE SWAP1 REVERT JUMPDEST POP PUSH2 0x8FC PUSH2 0x123 JUMP JUMPDEST DUP11 DUP10 DUP14 PUSH2 0x169 DUP5 PUSH2 0x161 DUP2 DUP10 PUSH2 0x15A DUP3 DUP12 SELFBALANCE SWAP10 PUSH2 0x304 JUMP JUMPDEST CALLDATALOAD SWAP8 PUSH2 0x304 JUMP JUMPDEST CALLDATALOAD SWAP3 DUP10 PUSH2 0x304 JUMP JUMPDEST CALLDATALOAD SWAP1 PUSH1 0x1 PUSH1 0x1 PUSH1 0xA0 SHL SUB DUP3 AND DUP3 SUB PUSH2 0x2B3 JUMPI PUSH1 0x1 PUSH1 0x1 PUSH1 0xA0 SHL SUB DUP15 AND EXTCODESIZE ISZERO PUSH2 0x2B3 JUMPI PUSH1 0x40 MLOAD PUSH4 0x735EB907 PUSH1 0xE1 SHL DUP2 MSTORE PUSH1 0x4 DUP2 ADD SWAP5 SWAP1 SWAP5 MSTORE PUSH1 0x24 DUP5 ADD MSTORE PUSH1 0x1 PUSH1 0x1 PUSH1 0xA0 SHL SUB AND PUSH1 0x44 DUP4 ADD MSTORE PUSH1 0xA0 PUSH1 0x64 DUP4 ADD MSTORE PUSH1 0xA4 DUP3 ADD DUP9 SWAP1 MSTORE PUSH1 0x1 PUSH1 0x1 PUSH1 0xFB SHL SUB DUP9 GT PUSH2 0x2B3 JUMPI DUP2 DUP13 PUSH1 0xE4 DUP11 PUSH1 0x5 SHL DUP13 PUSH1 0xC4 SWAP2 DUP1 DUP14 DUP5 DUP9 ADD CALLDATACOPY DUP6 ADD SWAP2 DUP3 ADD PUSH1 0xC0 DUP7 DUP5 SUB ADD PUSH1 0x84 DUP8 ADD MSTORE MSTORE ADD DUP13 PUSH1 0x0 JUMPDEST DUP14 DUP2 LT PUSH2 0x277 JUMPI POP PUSH1 0x0 SWAP5 SWAP2 DUP5 SWAP1 SUB SWAP3 DUP5 SWAP3 SWAP2 POP PUSH1 0x1 PUSH1 0x1 PUSH1 0xA0 SHL SUB AND GAS CALL DUP1 ISZERO PUSH2 0x12D JUMPI PUSH2 0x249 JUMPI JUMPDEST POP PUSH1 0x0 NOT DUP2 EQ PUSH2 0x233 JUMPI PUSH1 0x1 ADD PUSH2 0x107 JUMP JUMPDEST PUSH4 0x4E487B71 PUSH1 0xE0 SHL PUSH1 0x0 MSTORE PUSH1 0x11 PUSH1 0x4 MSTORE PUSH1 0x24 PUSH1 0x0 REVERT JUMPDEST PUSH8 0xFFFFFFFFFFFFFFFF DUP2 GT PUSH2 0x261 JUMPI PUSH1 0x40 MSTORE CODESIZE PUSH2 0x221 JUMP JUMPDEST PUSH4 0x4E487B71 PUSH1 0xE0 SHL PUSH1 0x0 MSTORE PUSH1 0x41 PUSH1 0x4 MSTORE PUSH1 0x24 PUSH1 0x0 REVERT JUMPDEST SWAP1 SWAP4 POP SWAP2 POP DUP3 CALLDATALOAD SWAP1 PUSH1 0x1 PUSH1 0x1 PUSH1 0xA0 SHL SUB DUP3 AND DUP3 SUB PUSH2 0x2B3 JUMPI PUSH1 0x1 PUSH1 0x1 PUSH1 0xA0 SHL SUB SWAP1 SWAP2 AND DUP2 MSTORE DUP5 SWAP3 DUP16 SWAP3 PUSH1 0x20 SWAP3 DUP4 ADD SWAP3 SWAP2 SWAP1 SWAP2 ADD SWAP1 PUSH1 0x1 ADD PUSH2 0x1F7 JUMP JUMPDEST PUSH1 0x0 DUP1 REVERT JUMPDEST PUSH4 0x55CA07B7 PUSH1 0xE1 SHL PUSH1 0x80 MSTORE PUSH1 0x4 PUSH1 0x80 REVERT JUMPDEST POP DUP11 DUP2 EQ ISZERO PUSH2 0x100 JUMP JUMPDEST SWAP2 DUP2 PUSH1 0x1F DUP5 ADD SLT ISZERO PUSH2 0x2B3 JUMPI DUP3 CALLDATALOAD SWAP2 PUSH8 0xFFFFFFFFFFFFFFFF DUP4 GT PUSH2 0x2B3 JUMPI PUSH1 0x20 DUP1 DUP6 ADD SWAP5 DUP5 PUSH1 0x5 SHL ADD ADD GT PUSH2 0x2B3 JUMPI JUMP JUMPDEST SWAP2 SWAP1 DUP2 LT ISZERO PUSH2 0x314 JUMPI PUSH1 0x5 SHL ADD SWAP1 JUMP JUMPDEST PUSH4 0x4E487B71 PUSH1 0xE0 SHL PUSH1 0x0 MSTORE PUSH1 0x32 PUSH1 0x4 MSTORE PUSH1 0x24 PUSH1 0x0 REVERT INVALID LOG2 PUSH5 0x6970667358 0x22 SLT KECCAK256 RETURNDATASIZE PUSH6 0xE458361E6ED1 SLOAD BALANCE EXTCODECOPY 0x1F 0xEE 0x4D PUSH3 0x5F6539 LOG0 DUP12 DUP3 0xAC RETURNDATASIZE MSTORE 0xE9 0xE2 STOP CALLER 0xE8 0xB8 PUSH10 0x1C64736F6C6343000813 STOP CALLER "
				}
			},
			"userdoc": {
				"kind": "user",
				"methods": {
					"acceptRequestBatch(address,uint256[],uint256[],address[],uint256[],address[])": {
						"notice": "Accepts requests."
					}
				},
				"version": 1
			}
		}
	}
}