{
	"contracts/exchange/NiftyswapFactory20.sol": {
		"NiftyswapFactory20": {
			"abi": [
				{
					"inputs": [
						{
							"internalType": "address",
							"name": "_admin",
							"type": "address"
						}
					],
					"stateMutability": "nonpayable",
					"type": "constructor"
				},
				{
					"anonymous": false,
					"inputs": [
						{
							"indexed": true,
							"internalType": "address",
							"name": "metadataContract",
							"type": "address"
						}
					],
					"name": "MetadataContractChanged",
					"type": "event"
				},
				{
					"anonymous": false,
					"inputs": [
						{
							"indexed": true,
							"internalType": "address",
							"name": "token",
							"type": "address"
						},
						{
							"indexed": true,
							"internalType": "address",
							"name": "currency",
							"type": "address"
						},
						{
							"indexed": true,
							"internalType": "uint256",
							"name": "salt",
							"type": "uint256"
						},
						{
							"indexed": false,
							"internalType": "uint256",
							"name": "lpFee",
							"type": "uint256"
						},
						{
							"indexed": false,
							"internalType": "address",
							"name": "exchange",
							"type": "address"
						}
					],
					"name": "NewExchange",
					"type": "event"
				},
				{
					"anonymous": false,
					"inputs": [
						{
							"indexed": true,
							"internalType": "address",
							"name": "previousOwner",
							"type": "address"
						},
						{
							"indexed": true,
							"internalType": "address",
							"name": "newOwner",
							"type": "address"
						}
					],
					"name": "OwnershipTransferred",
					"type": "event"
				},
				{
					"inputs": [
						{
							"internalType": "address",
							"name": "_token",
							"type": "address"
						},
						{
							"internalType": "address",
							"name": "_currency",
							"type": "address"
						},
						{
							"internalType": "uint256",
							"name": "_lpFee",
							"type": "uint256"
						},
						{
							"internalType": "uint256",
							"name": "_instance",
							"type": "uint256"
						}
					],
					"name": "createExchange",
					"outputs": [],
					"stateMutability": "nonpayable",
					"type": "function"
				},
				{
					"inputs": [],
					"name": "getOwner",
					"outputs": [
						{
							"internalType": "address",
							"name": "",
							"type": "address"
						}
					],
					"stateMutability": "view",
					"type": "function"
				},
				{
					"inputs": [
						{
							"internalType": "address",
							"name": "_token",
							"type": "address"
						},
						{
							"internalType": "address",
							"name": "_currency",
							"type": "address"
						}
					],
					"name": "getPairExchanges",
					"outputs": [
						{
							"internalType": "address[]",
							"name": "",
							"type": "address[]"
						}
					],
					"stateMutability": "view",
					"type": "function"
				},
				{
					"inputs": [],
					"name": "metadataProvider",
					"outputs": [
						{
							"internalType": "contract IERC1155Metadata",
							"name": "",
							"type": "address"
						}
					],
					"stateMutability": "view",
					"type": "function"
				},
				{
					"inputs": [
						{
							"internalType": "contract IERC1155Metadata",
							"name": "_contract",
							"type": "address"
						}
					],
					"name": "setMetadataContract",
					"outputs": [],
					"stateMutability": "nonpayable",
					"type": "function"
				},
				{
					"inputs": [
						{
							"internalType": "address",
							"name": "",
							"type": "address"
						},
						{
							"internalType": "address",
							"name": "",
							"type": "address"
						},
						{
							"internalType": "uint256",
							"name": "",
							"type": "uint256"
						},
						{
							"internalType": "uint256",
							"name": "",
							"type": "uint256"
						}
					],
					"name": "tokensToExchange",
					"outputs": [
						{
							"internalType": "address",
							"name": "",
							"type": "address"
						}
					],
					"stateMutability": "view",
					"type": "function"
				},
				{
					"inputs": [
						{
							"internalType": "address",
							"name": "_newOwner",
							"type": "address"
						}
					],
					"name": "transferOwnership",
					"outputs": [],
					"stateMutability": "nonpayable",
					"type": "function"
				}
			],
			"evm": {
				"bytecode": {
					"linkReferences": {},
					"object": "608060405234801561001057600080fd5b506040516160123803806160128339818101604052602081101561003357600080fd5b5051600080546001600160a01b0319166001600160a01b03831690811782556040518392907f8be0079c531659141344cd1fd0a4f28419497f9722a3daafe3b4186f6b6457e0908290a35050615f848061008e6000396000f3fe608060405234801561001057600080fd5b506004361061007d5760003560e01c8063bcb9bfa71161005b578063bcb9bfa714610162578063d3d72d2a1461019e578063e5187f43146101a6578063f2fde38b146101cc5761007d565b8063893d20e814610082578063968bd691146100a65780639b307388146100e4575b600080fd5b61008a6101f2565b604080516001600160a01b039092168252519081900360200190f35b6100e2600480360360808110156100bc57600080fd5b506001600160a01b03813581169160208101359091169060408101359060600135610201565b005b610112600480360360408110156100fa57600080fd5b506001600160a01b03813581169160200135166103ae565b60408051602080825283518183015283519192839290830191858101910280838360005b8381101561014e578181015183820152602001610136565b505050509050019250505060405180910390f35b61008a6004803603608081101561017857600080fd5b506001600160a01b03813581169160208101359091169060408101359060600135610431565b61008a610466565b6100e2600480360360208110156101bc57600080fd5b50356001600160a01b0316610475565b6100e2600480360360208110156101e257600080fd5b50356001600160a01b031661050b565b6000546001600160a01b031690565b6001600160a01b038481166000908152600160209081526040808320878516845282528083208684528252808320858452909152902054161561028b576040805162461bcd60e51b815260206004820152600660248201527f4e46323023310000000000000000000000000000000000000000000000000000604482015290519081900360640190fd5b600084848460405161029c906105b6565b80846001600160a01b03168152602001836001600160a01b031681526020018281526020019350505050604051809103906000f0801580156102e2573d6000803e3d6000fd5b506001600160a01b0380871660008181526001602081815260408084208b87168086529083528185208b865283528185208a86528352818520805497891673ffffffffffffffffffffffffffffffffffffffff19988916811790915586865260028452828620828752845282862080549586018155865294839020909301805490961684179095558451898152908101929092528351949550869490937f86ced3b5b0ff3a7cb4c6f9b6ec3ee75869dcd58bebd573ce9e6feedc2b7ec2c8928290030190a45050505050565b6001600160a01b03808316600090815260026020908152604080832093851683529281529082902080548351818402810184019094528084526060939283018282801561042457602002820191906000526020600020905b81546001600160a01b03168152600190910190602001808311610406575b5050505050905092915050565b60016020908152600094855260408086208252938552838520815291845282842090915282529020546001600160a01b031681565b6003546001600160a01b031690565b6000546001600160a01b031633146104a85760405162461bcd60e51b815260040161049f90610621565b60405180910390fd5b6040516001600160a01b038216907f77a13e6b663954e04643194e292dcbc227c9e00893741047e969a5d206d4986990600090a26003805473ffffffffffffffffffffffffffffffffffffffff19166001600160a01b0392909216919091179055565b6000546001600160a01b031633146105355760405162461bcd60e51b815260040161049f90610621565b6001600160a01b03811661055b5760405162461bcd60e51b815260040161049f906105c4565b6000805473ffffffffffffffffffffffffffffffffffffffff19166001600160a01b0383811691821780845560405192939116917f8be0079c531659141344cd1fd0a4f28419497f9722a3daafe3b4186f6b6457e09190a350565b6158d0806200067f83390190565b6020808252602a908201527f4f776e61626c65237472616e736665724f776e6572736869703a20494e56414c60408201527f49445f4144445245535300000000000000000000000000000000000000000000606082015260800190565b60208082526026908201527f4f776e61626c65236f6e6c794f776e65723a2053454e4445525f49535f4e4f5460408201527f5f4f574e4552000000000000000000000000000000000000000000000000000060608201526080019056fe6101206040523480156200001257600080fd5b50604051620058d0380380620058d083398101604081905262000035916200028e565b336001600081905550806001600160a01b031663893d20e86040518163ffffffff1660e01b815260040160206040518083038186803b1580156200007857600080fd5b505afa925050508015620000ab575060408051601f3d908101601f19168201909252620000a8918101906200026a565b60015b620000d35760405162461bcd60e51b8152600401620000ca9062000345565b60405180910390fd5b50600380546001600160a01b0319166001600160a01b0383169081179091556040516000907ffca4bc097843727c93a8ab8d241a38481cccf8ec96dda1a342574712cfe8eb40908290a3506001600160a01b038316158015906200013f57506001600160a01b03821615155b6200015e5760405162461bcd60e51b8152600401620000ca9062000325565b6103e8811115620001835760405162461bcd60e51b8152600401620000ca9062000305565b33606090811b60c0526001600160601b031984821b81166080529083901b1660a0526103e881900360e0526040516301ffc9a760e01b81526001600160a01b038416906301ffc9a790620001e39063152a902d60e11b90600401620002f0565b60206040518083038186803b158015620001fc57600080fd5b505afa9250505080156200022f575060408051601f3d908101601f191682019092526200022c91810190620002ce565b60015b6200023a5762000244565b151560f81b610100525b50505062000363565b80516001600160a01b03811681146200026557600080fd5b919050565b6000602082840312156200027c578081fd5b62000287826200024d565b9392505050565b600080600060608486031215620002a3578182fd5b620002ae846200024d565b9250620002be602085016200024d565b9150604084015190509250925092565b600060208284031215620002e0578081fd5b8151801515811462000287578182fd5b6001600160e01b031991909116815260200190565b60208082526006908201526527229918119960d11b604082015260600190565b6020808252600690820152654e453230233160d01b604082015260600190565b602080825260049082015263444f233160e01b604082015260600190565b60805160601c60a05160601c60c05160601c60e0516101005160f81c6154bd62000413600039806115bd5250806108f65280610aa95280611b425250806105ac5280610eeb5250806109395280610e8a52806113d05280611753528061259c528061298a5280612da252806132c35250806106bc5280610b635280610f895280611125528061128c528061149452806115f85280612ddf528061324852806135fc52806137e952506154bd6000f3fe608060405234801561001057600080fd5b50600436106101ee5760003560e01c8063893d20e81161010f578063be571468116100a2578063e985e9c511610071578063e985e9c51461043d578063f23a6e6114610450578063f242432a14610463578063fca16c3b14610476576101ee565b8063be571468146103ee578063c7ed115e14610401578063d93e8aaa14610422578063e523d3fc14610435576101ee565b8063a9c2e36c116100de578063a9c2e36c146103a0578063aeaad208146103a8578063b5de3d14146103bb578063bc197c81146103ce576101ee565b8063893d20e81461035f578063a22cb46514610367578063a63138751461037a578063a7380f6e1461038d576101ee565b80632eb2c2d6116101875780634e1273f4116101565780634e1273f4146103135780636ee8e13414610326578063863ed3001461033957806389382ca01461034c576101ee565b80632eb2c2d6146102db5780633750a8bd146102f057806338b49e2d146102f857806346adf5ca1461030b576101ee565b806310fe9ae8116101c357806310fe9ae81461028057806314556a5614610295578063209b96c5146102a85780632bef5e38146102c8576101ee565b80628e09d81461020f578062fdd58e1461022d57806301ffc9a7146102405780630e89341c14610260575b60405162461bcd60e51b815260040161020690614c9a565b60405180910390fd5b610217610489565b6040516102249190615154565b60405180910390f35b61021761023b36600461418b565b61048f565b61025361024e366004614410565b6104ba565b6040516102249190614a21565b61027361026e3660046146e7565b6105a8565b6040516102249190614a41565b6102886106ba565b604051610224919061482a565b6102176102a3366004613fdd565b6106de565b6102bb6102b6366004614244565b6106fe565b60405161022491906148d4565b6102bb6102d6366004614244565b61079f565b6102ee6102e936600461404d565b610837565b005b6102176108f4565b610217610306366004613fdd565b61091c565b610288610937565b6102bb6103213660046141e3565b61095b565b61021761033436600461475c565b610a74565b6102bb610347366004614284565b610b0c565b6102ee61035a366004613fdd565b610c92565b610288610d58565b6102ee61037536600461415e565b610df3565b6102ee610388366004613fdd565b610e61565b61021761039b366004614787565b610eb4565b610288610ee9565b6102176103b6366004614787565b610f0d565b6102ee6103c9366004614717565b610f37565b6103e16103dc36600461404d565b6110cf565b6040516102249190614a2c565b6102bb6103fc366004614284565b61143d565b61041461040f36600461473b565b6115b8565b604051610224929190614896565b6102bb610430366004614328565b61170b565b610288611934565b61025361044b366004614015565b611943565b6103e161045e3660046140f7565b611971565b6102ee6104713660046140f7565b611a3e565b61021761048436600461475c565b611af4565b60045490565b6001600160a01b03821660009081526001602090815260408083208484529091529020545b92915050565b60006001600160e01b031982167f36372b0700000000000000000000000000000000000000000000000000000000148061050457506001600160e01b031982166301ffc9a760e01b145b8061053857506001600160e01b031982167fd9b67a2600000000000000000000000000000000000000000000000000000000145b8061056c57506001600160e01b031982167f4e2312e000000000000000000000000000000000000000000000000000000000145b806105a057506001600160e01b031982167f0e89341c00000000000000000000000000000000000000000000000000000000145b90505b919050565b60607f00000000000000000000000000000000000000000000000000000000000000006001600160a01b031663d3d72d2a6040518163ffffffff1660e01b815260040160206040518083038186803b15801561060357600080fd5b505afa158015610617573d6000803e3d6000fd5b505050506040513d601f19601f8201168201806040525081019061063b9190613ff9565b6001600160a01b0316630e89341c836040518263ffffffff1660e01b81526004016106669190615154565b60006040518083038186803b15801561067e57600080fd5b505afa158015610692573d6000803e3d6000fd5b505050506040513d6000823e601f3d908101601f191682016040526105a09190810190614674565b7f000000000000000000000000000000000000000000000000000000000000000090565b6001600160a01b0316600090815260086020526040902054612710900490565b606081818167ffffffffffffffff8111801561071957600080fd5b50604051908082528060200260200182016040528015610743578160200160208202803683370190505b50905060005b82811015610796576007600087878481811061076157fe5b9050602002013581526020019081526020016000205482828151811061078357fe5b6020908102919091010152600101610749565b50949350505050565b606081818167ffffffffffffffff811180156107ba57600080fd5b506040519080825280602002602001820160405280156107e4578160200160208202803683370190505b50905060005b82811015610796576006600087878481811061080257fe5b9050602002013581526020019081526020016000205482828151811061082457fe5b60209081029190910101526001016107ea565b336001600160a01b038616148061085357506108538533611943565b61088e5760405162461bcd60e51b815260040180806020018281038252602f815260200180615383602f913960400191505060405180910390fd5b6001600160a01b0384166108d35760405162461bcd60e51b81526004018080602001828103825260308152602001806152f76030913960400191505060405180910390fd5b6108df85858585611b77565b6108ed858585855a86611e12565b5050505050565b7f00000000000000000000000000000000000000000000000000000000000000006103e80390565b6001600160a01b031660009081526008602052604090205490565b7f000000000000000000000000000000000000000000000000000000000000000090565b6060815183511461099d5760405162461bcd60e51b815260040180806020018281038252602c815260200180615357602c913960400191505060405180910390fd5b6060835167ffffffffffffffff811180156109b757600080fd5b506040519080825280602002602001820160405280156109e1578160200160208202803683370190505b50905060005b8451811015610a6c5760016000868381518110610a0057fe5b60200260200101516001600160a01b03166001600160a01b031681526020019081526020016000206000858381518110610a3657fe5b6020026020010151815260200190815260200160002054828281518110610a5957fe5b60209081029190910101526001016109e7565b509392505050565b60008083118015610a855750600082115b610aa15760405162461bcd60e51b815260040161020690614cd1565b6000610acd857f000000000000000000000000000000000000000000000000000000000000000061200a565b90506000610adb828561200a565b90506000610af583610aef886103e861200a565b90612080565b9050808281610b0057fe5b04979650505050505050565b606083818167ffffffffffffffff81118015610b2757600080fd5b50604051908082528060200260200182016040528015610b51578160200160208202803683370190505b50905060005b82811015610c875760007f00000000000000000000000000000000000000000000000000000000000000006001600160a01b031662fdd58e308b8b86818110610b9c57fe5b905060200201356040518363ffffffff1660e01b8152600401610bc0929190614896565b60206040518083038186803b158015610bd857600080fd5b505afa158015610bec573d6000803e3d6000fd5b505050506040513d601f19601f82011682018060405250810190610c1091906146ff565b9050610c67898984818110610c2157fe5b90506020020135888885818110610c3457fe5b9050602002013583600760008e8e89818110610c4c57fe5b90506020020135815260200190815260200160002054610eb4565b838381518110610c7357fe5b602090810291909101015250600101610b57565b509695505050505050565b610c9a610d58565b6001600160a01b0316336001600160a01b031614610cca5760405162461bcd60e51b815260040161020690614aab565b6001600160a01b038116610cf05760405162461bcd60e51b815260040161020690614b19565b600380547fffffffffffffffffffffffff0000000000000000000000000000000000000000166001600160a01b0383811691821792839055604051919216907ffca4bc097843727c93a8ab8d241a38481cccf8ec96dda1a342574712cfe8eb4090600090a350565b600354604080517f893d20e800000000000000000000000000000000000000000000000000000000815290516000926001600160a01b03169163893d20e8916004808301926020929190829003018186803b158015610db657600080fd5b505afa158015610dca573d6000803e3d6000fd5b505050506040513d601f19601f82011682018060405250810190610dee9190613ff9565b905090565b3360008181526002602090815260408083206001600160a01b03871680855290835292819020805460ff1916861515908117909155815190815290519293927f17307eab39ab6107e8899845ad3d59bd9653f200f220920489ca2b5937696c31929181900390910190a35050565b6001600160a01b0381166000908152600860205260409020805461271080820690925504610eb07f000000000000000000000000000000000000000000000000000000000000000083836120da565b5050565b600080610ec2858585610a74565b90506000610ed087836115b8565b9150610ede90508282612255565b979650505050505050565b7f000000000000000000000000000000000000000000000000000000000000000090565b600080610f1b858585611af4565b90506000610f2987836115b8565b9150610ede90508282612080565b610f3f610d58565b6001600160a01b0316336001600160a01b031614610f6f5760405162461bcd60e51b815260040161020690614aab565b6040516301ffc9a760e01b81526000906001600160a01b037f000000000000000000000000000000000000000000000000000000000000000016906301ffc9a790610fc59063152a902d60e11b90600401614a2c565b60206040518083038186803b158015610fdd57600080fd5b505afa158015610ff1573d6000803e3d6000fd5b505050506040513d601f19601f8201168201806040525081019061101591906143f4565b905080156110355760405162461bcd60e51b815260040161020690614e52565b6109c48311156110575760405162461bcd60e51b81526004016102069061511d565b6004839055600580547fffffffffffffffffffffffff0000000000000000000000000000000000000000166001600160a01b0384169081179091556040517f02365318429bf1d603e8383b62068288a077545c5c9e709201d563b3f56ce2b3906110c2908690615154565b60405180910390a2505050565b600080828060200190518101906110e6919061442c565b90506001600160e01b031981167fade79c7a00000000000000000000000000000000000000000000000000000000141561124f57336001600160a01b037f000000000000000000000000000000000000000000000000000000000000000016146111625760405162461bcd60e51b815260040161020690614ec0565b61116a613d02565b8380602001905181019061117e919061459d565b8051909250600091506001600160a01b03161561119c57815161119e565b875b9050816060015151826040015151146111c95760405162461bcd60e51b815260040161020690614e1b565b60606111ea88888560200151866080015186886040015189606001516122b2565b9050816001600160a01b0316896001600160a01b03167fb57378559821141c0e7ae964206b7523234d19e5783ade99b3d665eee495c9978a8a858860400151896060015160405161123f9594939291906149b4565b60405180910390a350505061142a565b6001600160e01b031981167f82da2b7300000000000000000000000000000000000000000000000000000000141561130657336001600160a01b037f000000000000000000000000000000000000000000000000000000000000000016146112c95760405162461bcd60e51b815260040161020690614de4565b6112d1613d3a565b838060200190518101906112e59190614448565b905080915050611300878787846000015185602001516125d5565b5061142a565b6001600160e01b031981167f5c0bf259000000000000000000000000000000000000000000000000000000001415611393573330146113575760405162461bcd60e51b8152600401610206906150e6565b61135f613d54565b8380602001905181019061137391906144e1565b905080915050611300878787846000015185602001518660400151612a22565b6001600160e01b031981167fc8c323f900000000000000000000000000000000000000000000000000000000141561141257336001600160a01b037f0000000000000000000000000000000000000000000000000000000000000000161461140d5760405162461bcd60e51b815260040161020690614c63565b61142a565b60405162461bcd60e51b815260040161020690614e89565b5063bc197c8160e01b9695505050505050565b606083818167ffffffffffffffff8111801561145857600080fd5b50604051908082528060200260200182016040528015611482578160200160208202803683370190505b50905060005b82811015610c875760007f00000000000000000000000000000000000000000000000000000000000000006001600160a01b031662fdd58e308b8b868181106114cd57fe5b905060200201356040518363ffffffff1660e01b81526004016114f1929190614896565b60206040518083038186803b15801561150957600080fd5b505afa15801561151d573d6000803e3d6000fd5b505050506040513d601f19601f8201168201806040525081019061154191906146ff565b905061159889898481811061155257fe5b9050602002013588888581811061156557fe5b90506020020135600760008d8d8881811061157c57fe5b9050602002013581526020019081526020016000205484610f0d565b8383815181106115a457fe5b602090810291909101015250600101611488565b6000807f0000000000000000000000000000000000000000000000000000000000000000156116e35760405163152a902d60e11b81526001600160a01b037f00000000000000000000000000000000000000000000000000000000000000001690632a55205a9061162f908790879060040161515d565b604080518083038186803b15801561164657600080fd5b505afa925050508015611676575060408051601f3d908101601f19168201909252611673918101906141b6565b60015b6116ac576005546004546001600160a01b03909116906127109061169b90869061200a565b816116a257fe5b0491509150611704565b60006127106116bd876109c461200a565b816116c457fe5b049050828183116116d557826116d7565b815b94509450505050611704565b6005546004546001600160a01b03909116906127109061169b90869061200a565b9250929050565b60604285101561172d5760405162461bcd60e51b815260040161020690614ae2565b600088511161174e5760405162461bcd60e51b815260040161020690614d76565b61177a7f0000000000000000000000000000000000000000000000000000000000000000333089612ea3565b60006001600160a01b038516156117915784611793565b335b84518451919250889181146117ba5760405162461bcd60e51b815260040161020690614f9c565b60005b818110156118c05760008682815181106117d357fe5b602002602001015111156118b8576118078682815181106117f057fe5b60200260200101518461225590919063ffffffff16565b925061187b61183461271088848151811061181e57fe5b602002602001015161200a90919063ffffffff16565b600860008a858151811061184457fe5b60200260200101516001600160a01b03166001600160a01b031681526020019081526020016000205461208090919063ffffffff16565b6008600089848151811061188b57fe5b60200260200101516001600160a01b03166001600160a01b03168152602001908152602001600020819055505b6001016117bd565b5060606118d08c8c858c88613026565b9050836001600160a01b0316336001600160a01b03167f28fb4c13c000d11e44ba9e45029f385ed02ffeae62dc5704e2c0706a4dab5ecb8e8e858c8c60405161191d9594939291906149b4565b60405180910390a39b9a5050505050505050505050565b6005546001600160a01b031690565b6001600160a01b03918216600090815260026020908152604080832093909416825291909152205460ff1690565b6040805160018082528183019092526000916060919060208083019080368337505060408051600180825281830190925292935060609291506020808301908036833701905050905085826000815181106119c857fe5b60200260200101818152505084816000815181106119e257fe5b6020026020010181815250506119fb88888484886110cf565b6001600160e01b03191663bc197c8160e01b14611a2a5760405162461bcd60e51b815260040161020690614ef7565b5063f23a6e6160e01b979650505050505050565b336001600160a01b0386161480611a5a5750611a5a8533611943565b611a955760405162461bcd60e51b815260040180806020018281038252602a815260200180615267602a913960400191505060405180910390fd5b6001600160a01b038416611ada5760405162461bcd60e51b815260040180806020018281038252602b81526020018061523c602b913960400191505060405180910390fd5b611ae6858585856132fa565b6108ed858585855a866133db565b60008083118015611b055750600082115b611b215760405162461bcd60e51b81526004016102069061500a565b6000611b396103e8611b33868861200a565b9061200a565b90506000611b6b7f0000000000000000000000000000000000000000000000000000000000000000611b338689612255565b9050610c87828261354d565b8051825114611bb75760405162461bcd60e51b81526004018080602001828103825260358152602001806152c26035913960400191505060405180910390fd5b815160005b81811015611d3157611c33838281518110611bd357fe5b602002602001015160016000896001600160a01b03166001600160a01b031681526020019081526020016000206000878581518110611c0e57fe5b602002602001015181526020019081526020016000205461225590919063ffffffff16565b6001600160a01b03871660009081526001602052604081208651909190879085908110611c5c57fe5b6020026020010151815260200190815260200160002081905550611ce5838281518110611c8557fe5b602002602001015160016000886001600160a01b03166001600160a01b031681526020019081526020016000206000878581518110611cc057fe5b602002602001015181526020019081526020016000205461208090919063ffffffff16565b6001600160a01b03861660009081526001602052604081208651909190879085908110611d0e57fe5b602090810291909101810151825281019190915260400160002055600101611bbc565b50836001600160a01b0316856001600160a01b0316336001600160a01b03167f4a39dc06d4c0dbc64b70af90fd698a233a518aa5d07e595d983b8c0526c8f7fb8686604051808060200180602001838103835285818151815260200191508051906020019060200280838360005b83811015611db7578181015183820152602001611d9f565b50505050905001838103825284818151815260200191508051906020019060200280838360005b83811015611df6578181015183820152602001611dde565b5050505090500194505050505060405180910390a45050505050565b611e24856001600160a01b0316613593565b15612002576000856001600160a01b031663bc197c8184338a8989886040518763ffffffff1660e01b815260040180866001600160a01b03168152602001856001600160a01b03168152602001806020018060200180602001848103845287818151815260200191508051906020019060200280838360005b83811015611eb5578181015183820152602001611e9d565b50505050905001848103835286818151815260200191508051906020019060200280838360005b83811015611ef4578181015183820152602001611edc565b50505050905001848103825285818151815260200191508051906020019080838360005b83811015611f30578181015183820152602001611f18565b50505050905090810190601f168015611f5d5780820380516001836020036101000a031916815260200191505b5098505050505050505050602060405180830381600088803b158015611f8257600080fd5b5087f1158015611f96573d6000803e3d6000fd5b50505050506040513d6020811015611fad57600080fd5b505190506001600160e01b0319811663bc197c8160e01b146120005760405162461bcd60e51b815260040180806020018281038252603f8152602001806153e2603f913960400191505060405180910390fd5b505b505050505050565b600082612019575060006104b4565b8282028284828161202657fe5b0414612079576040805162461bcd60e51b815260206004820152601660248201527f536166654d617468236d756c3a204f564552464c4f5700000000000000000000604482015290519081900360640190fd5b9392505050565b600082820183811015612079576040805162461bcd60e51b815260206004820152601660248201527f536166654d617468236164643a204f564552464c4f5700000000000000000000604482015290519081900360640190fd5b604080516001600160a01b038481166024830152604480830185905283518084039091018152606490920183526020820180517bffffffffffffffffffffffffffffffffffffffffffffffffffffffff167fa9059cbb00000000000000000000000000000000000000000000000000000000178152925182516000946060949389169392918291908083835b602083106121855780518252601f199092019160209182019101612166565b6001836020036101000a0380198251168184511680821785525050505050509050019150506000604051808303816000865af19150503d80600081146121e7576040519150601f19603f3d011682016040523d82523d6000602084013e6121ec565b606091505b509150915081801561221a57508051158061221a575080806020019051602081101561221757600080fd5b50515b6108ed5760405162461bcd60e51b815260040180806020018281038252602d81526020018061545b602d913960400191505060405180910390fd5b6000828211156122ac576040805162461bcd60e51b815260206004820152601760248201527f536166654d617468237375623a20554e444552464c4f57000000000000000000604482015290519081900360640190fd5b50900390565b60606002600054141561230c576040805162461bcd60e51b815260206004820152601f60248201527f5265656e7472616e637947756172643a207265656e7472616e742063616c6c00604482015290519081900360640190fd5b60026000558751428610156123335760405162461bcd60e51b815260040161020690614d3f565b60008167ffffffffffffffff8111801561234c57600080fd5b50604051908082528060200260200182016040528015612376578160200160208202803683370190505b50925060606123848b6135ca565b905060005b838110156124e25760008c828151811061239f57fe5b6020026020010151905060008c83815181106123b757fe5b6020026020010151905060008484815181106123cf57fe5b60200260200101519050600082116123f95760405162461bcd60e51b815260040161020690614fd3565b6000838152600760205260408120549061241d846124178582612255565b84610a74565b905060008061242c87846115b8565b9092509050801561247f576124656124468261271061200a565b6001600160a01b03841660009081526008602052604090205490612080565b6001600160a01b0383166000908152600860205260409020555b61249361248c8483612255565b8b90612080565b995061249f8484612255565b6000888152600760205260409020556124b88382612255565b8c89815181106124c457fe5b60209081029190910101525050600190950194506123899350505050565b5060005b85518110156125765760008682815181106124fd57fe5b6020026020010151111561256e5761251a8682815181106117f057fe5b925061253161183461271088848151811061181e57fe5b6008600089848151811061254157fe5b60200260200101516001600160a01b03166001600160a01b03168152602001908152602001600020819055505b6001016124e6565b50888210156125975760405162461bcd60e51b815260040161020690614d08565b6125c27f000000000000000000000000000000000000000000000000000000000000000088846120da565b5050506001600055979650505050505050565b6002600054141561262d576040805162461bcd60e51b815260206004820152601f60248201527f5265656e7472616e637947756172643a207265656e7472616e742063616c6c00604482015290519081900360640190fd5b6002600055428110156126525760405162461bcd60e51b8152600401610206906150af565b8351600060608267ffffffffffffffff8111801561266f57600080fd5b50604051908082528060200260200182016040528015612699578160200160208202803683370190505b50905060608367ffffffffffffffff811180156126b557600080fd5b506040519080825280602002602001820160405280156126df578160200160208202803683370190505b50905060606126ed896135ca565b905060005b858110156129845760008a828151811061270857fe5b6020026020010151905060008a838151811061272057fe5b6020026020010151905060008a848151811061273857fe5b60200260200101511161275d5760405162461bcd60e51b815260040161020690614f2e565b6000811161277d5760405162461bcd60e51b815260040161020690615078565b60008281526006602052604090205480156128d95760008381526007602052604081205486519091908790879081106127b257fe5b602002602001015190506000806127e46127d5858861200a90919063ffffffff16565b6127df8589612255565b61354d565b91509150818f89815181106127f557fe5b6020026020010151101561281b5760405162461bcd60e51b815260040161020690614b50565b6128258483612080565b60008881526007602052604090205561283e8c83612080565b9b508361286186611b3384612854576000612857565b60015b869060ff16612255565b8161286857fe5b048b898151811061287557fe5b602002602001018181525050818a898151811061288e57fe5b6020026020010181815250506128c08b89815181106128a957fe5b60200260200101518661208090919063ffffffff16565b6000888152600660205260409020555061297992505050565b60008b85815181106128e757fe5b602002602001015190506103e88110156129135760405162461bcd60e51b815260040161020690614c2c565b600084815260076020526040902081905561292e8982612080565b60008581526006602052604090208290558851909950819089908790811061295257fe5b6020026020010181815250508087868151811061296b57fe5b602002602001018181525050505b5050506001016126f2565b506129b17f00000000000000000000000000000000000000000000000000000000000000008b3087612ea3565b6129cc8a8a856040518060200160405280600081525061387d565b896001600160a01b03167f403f9dc4582dae52d3eeb4a22d37540ffb13c32d964c92ec5ac0d3d5628da3168a8a85604051612a0993929190614971565b60405180910390a2505060016000555050505050505050565b60026000541415612a7a576040805162461bcd60e51b815260206004820152601f60248201527f5265656e7472616e637947756172643a207265656e7472616e742063616c6c00604482015290519081900360640190fd5b6002600055428111612a9e5760405162461bcd60e51b815260040161020690614bbe565b8451600060608267ffffffffffffffff81118015612abb57600080fd5b50604051908082528060200260200182016040528015612ae5578160200160208202803683370190505b50905060608367ffffffffffffffff81118015612b0157600080fd5b50604051908082528060200260200182016040528015612b3b57816020015b612b28613d75565b815260200190600190039081612b205790505b5090506060612b498a6135ca565b905060005b85811015612d915760008b8281518110612b6457fe5b6020026020010151905060008b8381518110612b7c57fe5b6020026020010151905060006006600084815260200190815260200160002054905060008111612bbe5760405162461bcd60e51b815260040161020690614bf5565b600083815260076020526040812054865190919081908190899089908110612be257fe5b60200260200101519050600080600080612bff8b8b878b8d613a4a565b6001600160a01b038216600090815260086020526040902054959c50939a50919750955093509150612c319082612080565b6001600160a01b0383166000908152600860205260409020558d5184908f908e908110612c5a57fe5b60200260200101516020018181525050828e8d81518110612c7757fe5b60200260200101516040018181525050888e8d81518110612c9457fe5b6020026020010151606001818152505050505050508e8781518110612cb557fe5b6020026020010151821015612cdc5760405162461bcd60e51b815260040161020690614f65565b8d8781518110612ce857fe5b6020026020010151811015612d0f5760405162461bcd60e51b815260040161020690614a74565b612d198486612255565b600087815260066020526040902055612d328383612255565b600087815260076020526040902055612d4b8b83612080565b9a50808a8881518110612d5a57fe5b60200260200101818152505081898881518110612d7357fe5b602090810291909101015152505060019094019350612b4e92505050565b50612d9d308b8b613b3f565b612dc87f00000000000000000000000000000000000000000000000000000000000000008c866120da565b604051631759616b60e11b81526001600160a01b037f00000000000000000000000000000000000000000000000000000000000000001690632eb2c2d690612e1a9030908f908f90899060040161483e565b600060405180830381600087803b158015612e3457600080fd5b505af1158015612e48573d6000803e3d6000fd5b505050508a6001600160a01b03167f3024a3223ce9e6a0b0324a52224694f329e7f092c1a7b74067b8f3cbfa1885718b8585604051612e89939291906148e7565b60405180910390a250506001600055505050505050505050565b604080516001600160a01b0385811660248301528481166044830152606480830185905283518084039091018152608490920183526020820180517bffffffffffffffffffffffffffffffffffffffffffffffffffffffff167f23b872dd0000000000000000000000000000000000000000000000000000000017815292518251600094606094938a169392918291908083835b60208310612f565780518252601f199092019160209182019101612f37565b6001836020036101000a0380198251168184511680821785525050505050509050019150506000604051808303816000865af19150503d8060008114612fb8576040519150601f19603f3d011682016040523d82523d6000602084013e612fbd565b606091505b5091509150818015612feb575080511580612feb5750808060200190516020811015612fe857600080fd5b50515b6120025760405162461bcd60e51b81526004018080602001828103825260318152602001806152916031913960400191505060405180910390fd5b606060026000541415613080576040805162461bcd60e51b815260206004820152601f60248201527f5265656e7472616e637947756172643a207265656e7472616e742063616c6c00604482015290519081900360640190fd5b6002600055428310156130a55760405162461bcd60e51b815260040161020690615041565b8551848167ffffffffffffffff811180156130bf57600080fd5b506040519080825280602002602001820160405280156130e9578160200160208202803683370190505b50925060606130f7896135ca565b905060005b838110156132305760008a828151811061311257fe5b6020026020010151905060008a838151811061312a57fe5b60200260200101519050600084848151811061314257fe5b602002602001015190506000821161316c5760405162461bcd60e51b815260040161020690614b87565b60008381526007602052604081205490613187848385611af4565b905060008061319687846115b8565b909250905080156131ca576131b06124468261271061200a565b6001600160a01b0383166000908152600860205260409020555b6131de816131d88c86612255565b90612255565b99506131ea8382612080565b8c89815181106131f657fe5b602090810291909101015261320b8484612080565b600097885260076020526040909720969096555050600190940193506130fc92505050565b50604051631759616b60e11b81526001600160a01b037f00000000000000000000000000000000000000000000000000000000000000001690632eb2c2d69061328390309089908e908e9060040161483e565b600060405180830381600087803b15801561329d57600080fd5b505af11580156132b1573d6000803e3d6000fd5b5050505060008211156132e9576132e97f000000000000000000000000000000000000000000000000000000000000000086846120da565b505050600160005595945050505050565b6001600160a01b03841660009081526001602090815260408083208584529091529020546133289082612255565b6001600160a01b03808616600090815260016020818152604080842088855282528084209590955592871682528252828120858252909152205461336c9082612080565b6001600160a01b038085166000818152600160209081526040808320888452825291829020949094558051868152938401859052805191939288169233927fc3d58168c5ae7397731d063d5bbf3d657854427343f4c083240f7aacaa2d0f62929181900390910190a450505050565b6133ed856001600160a01b0316613593565b15612002576000856001600160a01b031663f23a6e6184338a8989886040518763ffffffff1660e01b815260040180866001600160a01b03168152602001856001600160a01b0316815260200184815260200183815260200180602001828103825283818151815260200191508051906020019080838360005b8381101561347f578181015183820152602001613467565b50505050905090810190601f1680156134ac5780820380516001836020036101000a031916815260200191505b509650505050505050602060405180830381600088803b1580156134cf57600080fd5b5087f11580156134e3573d6000803e3d6000fd5b50505050506040513d60208110156134fa57600080fd5b505190506001600160e01b0319811663f23a6e6160e01b146120005760405162461bcd60e51b815260040180806020018281038252603a815260200180615421603a913960400191505060405180910390fd5b60008082848161355957fe5b061561357b57613574600184868161356d57fe5b0490612080565b6001613588565b82848161358457fe5b0460005b915091509250929050565b6000813f801580159061207957507fc5d2460186f7233c927e7db2dcc703c0e500b653ca82273b7bfad8045d85a470141592915050565b805160609060018114156136cc57604080516001808252818301909252606091602080830190803683370190505090507f00000000000000000000000000000000000000000000000000000000000000006001600160a01b031662fdd58e308660008151811061363657fe5b60200260200101516040518363ffffffff1660e01b815260040161365b929190614896565b60206040518083038186803b15801561367357600080fd5b505afa158015613687573d6000803e3d6000fd5b505050506040513d601f19601f820116820180604052508101906136ab91906146ff565b816000815181106136b857fe5b602090810291909101015291506105a39050565b60608167ffffffffffffffff811180156136e557600080fd5b5060405190808252806020026020018201604052801561370f578160200160208202803683370190505b509050308160008151811061372057fe5b6001600160a01b039092166020928302919091019091015260015b828110156137b85784818151811061374f57fe5b602002602001015185600183038151811061376657fe5b60200260200101511061378b5760405162461bcd60e51b815260040161020690614dad565b3082828151811061379857fe5b6001600160a01b039092166020928302919091019091015260010161373b565b506040517f4e1273f40000000000000000000000000000000000000000000000000000000081526001600160a01b037f00000000000000000000000000000000000000000000000000000000000000001690634e1273f49061382090849088906004016148af565b60006040518083038186803b15801561383857600080fd5b505afa15801561384c573d6000803e3d6000fd5b505050506040513d6000823e601f3d908101601f1916820160405261387491908101906142ed565b925050506105a3565b81518351146138bd5760405162461bcd60e51b81526004018080602001828103825260308152602001806153b26030913960400191505060405180910390fd5b825160005b81811015613960576139148482815181106138d957fe5b602002602001015160016000896001600160a01b03166001600160a01b031681526020019081526020016000206000888581518110611cc057fe5b6001600160a01b0387166000908152600160205260408120875190919088908590811061393d57fe5b6020908102919091018101518252810191909152604001600020556001016138c2565b50846001600160a01b031660006001600160a01b0316336001600160a01b03167f4a39dc06d4c0dbc64b70af90fd698a233a518aa5d07e595d983b8c0526c8f7fb8787604051808060200180602001838103835285818151815260200191508051906020019060200280838360005b838110156139e75781810151838201526020016139cf565b50505050905001838103825284818151815260200191508051906020019060200280838360005b83811015613a26578181015183820152602001613a0e565b5050505090500194505050505060405180910390a46108ed60008686865a87611e12565b6000808080808080613a5c8b8a61200a565b90506000613a6a8c8c61200a565b9050888181613a7557fe5b0695508515613b18576000613aa08a611b338c8581613a9057fe5b048f61225590919063ffffffff16565b90506000613ab48b611b338d8781613a9057fe5b90508015801590613ac457508115155b15613b1557613ad4888383610a74565b9650613ae08f886115b8565b9096509450613aef8786612255565b9650613afb8488612080565b93508a613b0a8661271061200a565b81613b1157fe5b0494505b50505b888281613b2157fe5b049750888181613b2d57fe5b04965050509550955095509550955095565b815181518114613b805760405162461bcd60e51b81526004018080602001828103825260308152602001806153276030913960400191505060405180910390fd5b60005b81811015613c2157613bd5838281518110613b9a57fe5b602002602001015160016000886001600160a01b03166001600160a01b031681526020019081526020016000206000878581518110611c0e57fe5b6001600160a01b03861660009081526001602052604081208651909190879085908110613bfe57fe5b602090810291909101810151825281019190915260400160002055600101613b83565b5060006001600160a01b0316846001600160a01b0316336001600160a01b03167f4a39dc06d4c0dbc64b70af90fd698a233a518aa5d07e595d983b8c0526c8f7fb8686604051808060200180602001838103835285818151815260200191508051906020019060200280838360005b83811015613ca8578181015183820152602001613c90565b50505050905001838103825284818151815260200191508051906020019060200280838360005b83811015613ce7578181015183820152602001613ccf565b5050505090500194505050505060405180910390a450505050565b6040518060a0016040528060006001600160a01b03168152602001600081526020016060815260200160608152602001600081525090565b604051806040016040528060608152602001600081525090565b60405180606001604052806060815260200160608152602001600081525090565b6040518060800160405280600081526020016000815260200160008152602001600081525090565b80356105a3816151ff565b80516105a3816151ff565b600082601f830112613dc3578081fd5b8135613dd6613dd18261518f565b61516b565b818152915060208083019084810181840286018201871015613df757600080fd5b60005b84811015613e1f578135613e0d816151ff565b84529282019290820190600101613dfa565b505050505092915050565b600082601f830112613e3a578081fd5b8151613e48613dd18261518f565b818152915060208083019084810181840286018201871015613e6957600080fd5b60005b84811015613e1f578151613e7f816151ff565b84529282019290820190600101613e6c565b60008083601f840112613ea2578182fd5b50813567ffffffffffffffff811115613eb9578182fd5b602083019150836020808302850101111561170457600080fd5b600082601f830112613ee3578081fd5b8135613ef1613dd18261518f565b818152915060208083019084810181840286018201871015613f1257600080fd5b60005b84811015613e1f57813584529282019290820190600101613f15565b600082601f830112613f41578081fd5b8151613f4f613dd18261518f565b818152915060208083019084810181840286018201871015613f7057600080fd5b60005b84811015613e1f57815184529282019290820190600101613f73565b600082601f830112613f9f578081fd5b8135613fad613dd1826151ad565b9150808252836020828501011115613fc457600080fd5b8060208401602084013760009082016020015292915050565b600060208284031215613fee578081fd5b8135612079816151ff565b60006020828403121561400a578081fd5b8151612079816151ff565b60008060408385031215614027578081fd5b8235614032816151ff565b91506020830135614042816151ff565b809150509250929050565b600080600080600060a08688031215614064578081fd5b853561406f816151ff565b9450602086013561407f816151ff565b9350604086013567ffffffffffffffff8082111561409b578283fd5b6140a789838a01613ed3565b945060608801359150808211156140bc578283fd5b6140c889838a01613ed3565b935060808801359150808211156140dd578283fd5b506140ea88828901613f8f565b9150509295509295909350565b600080600080600060a0868803121561410e578283fd5b8535614119816151ff565b94506020860135614129816151ff565b93506040860135925060608601359150608086013567ffffffffffffffff811115614152578182fd5b6140ea88828901613f8f565b60008060408385031215614170578182fd5b823561417b816151ff565b9150602083013561404281615217565b6000806040838503121561419d578182fd5b82356141a8816151ff565b946020939093013593505050565b600080604083850312156141c8578182fd5b82516141d3816151ff565b6020939093015192949293505050565b600080604083850312156141f5578182fd5b823567ffffffffffffffff8082111561420c578384fd5b61421886838701613db3565b9350602085013591508082111561422d578283fd5b5061423a85828601613ed3565b9150509250929050565b60008060208385031215614256578182fd5b823567ffffffffffffffff81111561426c578283fd5b61427885828601613e91565b90969095509350505050565b60008060008060408587031215614299578182fd5b843567ffffffffffffffff808211156142b0578384fd5b6142bc88838901613e91565b909650945060208701359150808211156142d4578384fd5b506142e187828801613e91565b95989497509550505050565b6000602082840312156142fe578081fd5b815167ffffffffffffffff811115614314578182fd5b61432084828501613f31565b949350505050565b600080600080600080600060e0888a031215614342578485fd5b873567ffffffffffffffff80821115614359578687fd5b6143658b838c01613ed3565b985060208a013591508082111561437a578687fd5b6143868b838c01613ed3565b975060408a0135965060608a013595506143a260808b01613d9d565b945060a08a01359150808211156143b7578384fd5b6143c38b838c01613db3565b935060c08a01359150808211156143d8578283fd5b506143e58a828b01613ed3565b91505092959891949750929550565b600060208284031215614405578081fd5b815161207981615217565b600060208284031215614421578081fd5b813561207981615225565b60006020828403121561443d578081fd5b815161207981615225565b6000806040838503121561445a578182fd5b825161446581615225565b602084015190925067ffffffffffffffff80821115614482578283fd5b9084019060408287031215614495578283fd5b6040516040810181811083821117156144aa57fe5b6040528251828111156144bb578485fd5b6144c788828601613f31565b825250602083015160208201528093505050509250929050565b600080604083850312156144f3578182fd5b82516144fe81615225565b602084015190925067ffffffffffffffff8082111561451b578283fd5b908401906060828703121561452e578283fd5b60405160608101818110838211171561454357fe5b604052825182811115614554578485fd5b61456088828601613f31565b825250602083015182811115614574578485fd5b61458088828601613f31565b602083015250604083015160408201528093505050509250929050565b600080604083850312156145af578182fd5b82516145ba81615225565b602084015190925067ffffffffffffffff808211156145d7578283fd5b9084019060a082870312156145ea578283fd5b60405160a0810181811083821117156145ff57fe5b60405261460b83613da8565b815260208301516020820152604083015182811115614628578485fd5b61463488828601613e2a565b60408301525060608301518281111561464b578485fd5b61465788828601613f31565b606083015250608083015160808201528093505050509250929050565b600060208284031215614685578081fd5b815167ffffffffffffffff81111561469b578182fd5b8201601f810184136146ab578182fd5b80516146b9613dd1826151ad565b8181528560208385010111156146cd578384fd5b6146de8260208301602086016151cf565b95945050505050565b6000602082840312156146f8578081fd5b5035919050565b600060208284031215614710578081fd5b5051919050565b60008060408385031215614729578182fd5b823591506020830135614042816151ff565b6000806040838503121561474d578182fd5b50508035926020909101359150565b600080600060608486031215614770578081fd5b505081359360208301359350604090920135919050565b6000806000806080858703121561479c578182fd5b5050823594602084013594506040840135936060013592509050565b6000815180845260208085019450808401835b838110156147f05781516001600160a01b0316875295820195908201906001016147cb565b509495945050505050565b6000815180845260208085019450808401835b838110156147f05781518752958201959082019060010161480e565b6001600160a01b0391909116815260200190565b60006001600160a01b03808716835280861660208401525060a0604083015261486a60a08301856147fb565b828103606084015261487c81856147fb565b838103608090940193909352508152602001949350505050565b6001600160a01b03929092168252602082015260400190565b6000604082526148c260408301856147b8565b82810360208401526146de81856147fb565b60006020825261207960208301846147fb565b600060608083526148fa818401876147fb565b60208482038186015261490d82886147fb565b915060408583038187015282875180855283850191508389019450865b818110156149615785518051845285810151868501528481015185850152870151878401529484019460809092019160010161492a565b50909a9950505050505050505050565b60006060825261498460608301866147fb565b828103602084015261499681866147fb565b905082810360408401526149aa81856147fb565b9695505050505050565b600060a082526149c760a08301886147fb565b82810360208401526149d981886147fb565b905082810360408401526149ed81876147fb565b90508281036060840152614a0181866147b8565b90508281036080840152614a1581856147fb565b98975050505050505050565b901515815260200190565b6001600160e01b031991909116815260200190565b6000602082528251806020840152614a608160408501602087016151cf565b601f01601f19169190910160400192915050565b60208082526007908201527f4e45323023313800000000000000000000000000000000000000000000000000604082015260600190565b60208082526004908201527f444f233200000000000000000000000000000000000000000000000000000000604082015260600190565b60208082526007908201527f4e45323023313900000000000000000000000000000000000000000000000000604082015260600190565b60208082526002908201527f4433000000000000000000000000000000000000000000000000000000000000604082015260600190565b60208082526007908201527f4e45323023313300000000000000000000000000000000000000000000000000604082015260600190565b60208082526006908201527f4e45323023340000000000000000000000000000000000000000000000000000604082015260600190565b60208082526007908201527f4e45323023313500000000000000000000000000000000000000000000000000604082015260600190565b60208082526007908201527f4e45323023313600000000000000000000000000000000000000000000000000604082015260600190565b60208082526007908201527f4e45323023313400000000000000000000000000000000000000000000000000604082015260600190565b60208082526007908201527f4e45323023323600000000000000000000000000000000000000000000000000604082015260600190565b60208082526007908201527f4e45323023323900000000000000000000000000000000000000000000000000604082015260600190565b60208082526006908201527f4e45323023390000000000000000000000000000000000000000000000000000604082015260600190565b60208082526006908201527f4e45323023380000000000000000000000000000000000000000000000000000604082015260600190565b60208082526006908201527f4e45323023360000000000000000000000000000000000000000000000000000604082015260600190565b60208082526007908201527f4e45323023323000000000000000000000000000000000000000000000000000604082015260600190565b60208082526007908201527f4e45323023333200000000000000000000000000000000000000000000000000604082015260600190565b60208082526007908201527f4e45323023323400000000000000000000000000000000000000000000000000604082015260600190565b60208082526007908201527f4e45323023323300000000000000000000000000000000000000000000000000604082015260600190565b60208082526007908201527f4e45323023333000000000000000000000000000000000000000000000000000604082015260600190565b60208082526007908201527f4e45323023323700000000000000000000000000000000000000000000000000604082015260600190565b60208082526007908201527f4e45323023323200000000000000000000000000000000000000000000000000604082015260600190565b60208082526007908201527f4e45323023323800000000000000000000000000000000000000000000000000604082015260600190565b60208082526007908201527f4e45323023313100000000000000000000000000000000000000000000000000604082015260600190565b60208082526007908201527f4e45323023313700000000000000000000000000000000000000000000000000604082015260600190565b60208082526007908201527f4e45323023323100000000000000000000000000000000000000000000000000604082015260600190565b60208082526006908201527f4e45323023370000000000000000000000000000000000000000000000000000604082015260600190565b60208082526006908201527f4e45323023350000000000000000000000000000000000000000000000000000604082015260600190565b60208082526006908201527f4e45323023330000000000000000000000000000000000000000000000000000604082015260600190565b60208082526007908201527f4e45323023313200000000000000000000000000000000000000000000000000604082015260600190565b60208082526007908201527f4e45323023313000000000000000000000000000000000000000000000000000604082015260600190565b60208082526007908201527f4e45323023323500000000000000000000000000000000000000000000000000604082015260600190565b60208082526007908201527f4e45323023333100000000000000000000000000000000000000000000000000604082015260600190565b90815260200190565b918252602082015260400190565b60405181810167ffffffffffffffff8111828210171561518757fe5b604052919050565b600067ffffffffffffffff8211156151a357fe5b5060209081020190565b600067ffffffffffffffff8211156151c157fe5b50601f01601f191660200190565b60005b838110156151ea5781810151838201526020016151d2565b838111156151f9576000848401525b50505050565b6001600160a01b038116811461521457600080fd5b50565b801515811461521457600080fd5b6001600160e01b03198116811461521457600080fdfe4552433131353523736166655472616e7366657246726f6d3a20494e56414c49445f524543495049454e544552433131353523736166655472616e7366657246726f6d3a20494e56414c49445f4f50455241544f525472616e7366657248656c7065723a3a7472616e7366657246726f6d3a207472616e7366657246726f6d206661696c656445524331313535235f7361666542617463685472616e7366657246726f6d3a20494e56414c49445f4152524159535f4c454e47544845524331313535237361666542617463685472616e7366657246726f6d3a20494e56414c49445f524543495049454e54455243313135354d696e744275726e2362617463684275726e3a20494e56414c49445f4152524159535f4c454e475448455243313135352362616c616e63654f6642617463683a20494e56414c49445f41525241595f4c454e47544845524331313535237361666542617463685472616e7366657246726f6d3a20494e56414c49445f4f50455241544f52455243313135354d696e744275726e2362617463684d696e743a20494e56414c49445f4152524159535f4c454e47544845524331313535235f63616c6c6f6e45524331313535426174636852656365697665643a20494e56414c49445f4f4e5f524543454956455f4d45535341474545524331313535235f63616c6c6f6e4552433131353552656365697665643a20494e56414c49445f4f4e5f524543454956455f4d4553534147455472616e7366657248656c7065723a3a736166655472616e736665723a207472616e73666572206661696c6564a26469706673582212202dc63d0c0e701b05bb7a2e01b5aebb63e707d1a3ef615a4f251537f1c65e678964736f6c63430007040033a2646970667358221220facf5ad0627762fb1d2754eeb047696edc1a412671e74278905d36838089ee9d64736f6c63430007040033",
					"opcodes": "PUSH1 0x80 PUSH1 0x40 MSTORE CALLVALUE DUP1 ISZERO PUSH2 0x10 JUMPI PUSH1 0x0 DUP1 REVERT JUMPDEST POP PUSH1 0x40 MLOAD PUSH2 0x6012 CODESIZE SUB DUP1 PUSH2 0x6012 DUP4 CODECOPY DUP2 DUP2 ADD PUSH1 0x40 MSTORE PUSH1 0x20 DUP2 LT ISZERO PUSH2 0x33 JUMPI PUSH1 0x0 DUP1 REVERT JUMPDEST POP MLOAD PUSH1 0x0 DUP1 SLOAD PUSH1 0x1 PUSH1 0x1 PUSH1 0xA0 SHL SUB NOT AND PUSH1 0x1 PUSH1 0x1 PUSH1 0xA0 SHL SUB DUP4 AND SWAP1 DUP2 OR DUP3 SSTORE PUSH1 0x40 MLOAD DUP4 SWAP3 SWAP1 PUSH32 0x8BE0079C531659141344CD1FD0A4F28419497F9722A3DAAFE3B4186F6B6457E0 SWAP1 DUP3 SWAP1 LOG3 POP POP PUSH2 0x5F84 DUP1 PUSH2 0x8E PUSH1 0x0 CODECOPY PUSH1 0x0 RETURN INVALID PUSH1 0x80 PUSH1 0x40 MSTORE CALLVALUE DUP1 ISZERO PUSH2 0x10 JUMPI PUSH1 0x0 DUP1 REVERT JUMPDEST POP PUSH1 0x4 CALLDATASIZE LT PUSH2 0x7D JUMPI PUSH1 0x0 CALLDATALOAD PUSH1 0xE0 SHR DUP1 PUSH4 0xBCB9BFA7 GT PUSH2 0x5B JUMPI DUP1 PUSH4 0xBCB9BFA7 EQ PUSH2 0x162 JUMPI DUP1 PUSH4 0xD3D72D2A EQ PUSH2 0x19E JUMPI DUP1 PUSH4 0xE5187F43 EQ PUSH2 0x1A6 JUMPI DUP1 PUSH4 0xF2FDE38B EQ PUSH2 0x1CC JUMPI PUSH2 0x7D JUMP JUMPDEST DUP1 PUSH4 0x893D20E8 EQ PUSH2 0x82 JUMPI DUP1 PUSH4 0x968BD691 EQ PUSH2 0xA6 JUMPI DUP1 PUSH4 0x9B307388 EQ PUSH2 0xE4 JUMPI JUMPDEST PUSH1 0x0 DUP1 REVERT JUMPDEST PUSH2 0x8A PUSH2 0x1F2 JUMP JUMPDEST PUSH1 0x40 DUP1 MLOAD PUSH1 0x1 PUSH1 0x1 PUSH1 0xA0 SHL SUB SWAP1 SWAP3 AND DUP3 MSTORE MLOAD SWAP1 DUP2 SWAP1 SUB PUSH1 0x20 ADD SWAP1 RETURN JUMPDEST PUSH2 0xE2 PUSH1 0x4 DUP1 CALLDATASIZE SUB PUSH1 0x80 DUP2 LT ISZERO PUSH2 0xBC JUMPI PUSH1 0x0 DUP1 REVERT JUMPDEST POP PUSH1 0x1 PUSH1 0x1 PUSH1 0xA0 SHL SUB DUP2 CALLDATALOAD DUP2 AND SWAP2 PUSH1 0x20 DUP2 ADD CALLDATALOAD SWAP1 SWAP2 AND SWAP1 PUSH1 0x40 DUP2 ADD CALLDATALOAD SWAP1 PUSH1 0x60 ADD CALLDATALOAD PUSH2 0x201 JUMP JUMPDEST STOP JUMPDEST PUSH2 0x112 PUSH1 0x4 DUP1 CALLDATASIZE SUB PUSH1 0x40 DUP2 LT ISZERO PUSH2 0xFA JUMPI PUSH1 0x0 DUP1 REVERT JUMPDEST POP PUSH1 0x1 PUSH1 0x1 PUSH1 0xA0 SHL SUB DUP2 CALLDATALOAD DUP2 AND SWAP2 PUSH1 0x20 ADD CALLDATALOAD AND PUSH2 0x3AE JUMP JUMPDEST PUSH1 0x40 DUP1 MLOAD PUSH1 0x20 DUP1 DUP3 MSTORE DUP4 MLOAD DUP2 DUP4 ADD MSTORE DUP4 MLOAD SWAP2 SWAP3 DUP4 SWAP3 SWAP1 DUP4 ADD SWAP2 DUP6 DUP2 ADD SWAP2 MUL DUP1 DUP4 DUP4 PUSH1 0x0 JUMPDEST DUP4 DUP2 LT ISZERO PUSH2 0x14E JUMPI DUP2 DUP2 ADD MLOAD DUP4 DUP3 ADD MSTORE PUSH1 0x20 ADD PUSH2 0x136 JUMP JUMPDEST POP POP POP POP SWAP1 POP ADD SWAP3 POP POP POP PUSH1 0x40 MLOAD DUP1 SWAP2 SUB SWAP1 RETURN JUMPDEST PUSH2 0x8A PUSH1 0x4 DUP1 CALLDATASIZE SUB PUSH1 0x80 DUP2 LT ISZERO PUSH2 0x178 JUMPI PUSH1 0x0 DUP1 REVERT JUMPDEST POP PUSH1 0x1 PUSH1 0x1 PUSH1 0xA0 SHL SUB DUP2 CALLDATALOAD DUP2 AND SWAP2 PUSH1 0x20 DUP2 ADD CALLDATALOAD SWAP1 SWAP2 AND SWAP1 PUSH1 0x40 DUP2 ADD CALLDATALOAD SWAP1 PUSH1 0x60 ADD CALLDATALOAD PUSH2 0x431 JUMP JUMPDEST PUSH2 0x8A PUSH2 0x466 JUMP JUMPDEST PUSH2 0xE2 PUSH1 0x4 DUP1 CALLDATASIZE SUB PUSH1 0x20 DUP2 LT ISZERO PUSH2 0x1BC JUMPI PUSH1 0x0 DUP1 REVERT JUMPDEST POP CALLDATALOAD PUSH1 0x1 PUSH1 0x1 PUSH1 0xA0 SHL SUB AND PUSH2 0x475 JUMP JUMPDEST PUSH2 0xE2 PUSH1 0x4 DUP1 CALLDATASIZE SUB PUSH1 0x20 DUP2 LT ISZERO PUSH2 0x1E2 JUMPI PUSH1 0x0 DUP1 REVERT JUMPDEST POP CALLDATALOAD PUSH1 0x1 PUSH1 0x1 PUSH1 0xA0 SHL SUB AND PUSH2 0x50B JUMP JUMPDEST PUSH1 0x0 SLOAD PUSH1 0x1 PUSH1 0x1 PUSH1 0xA0 SHL SUB AND SWAP1 JUMP JUMPDEST PUSH1 0x1 PUSH1 0x1 PUSH1 0xA0 SHL SUB DUP5 DUP2 AND PUSH1 0x0 SWAP1 DUP2 MSTORE PUSH1 0x1 PUSH1 0x20 SWAP1 DUP2 MSTORE PUSH1 0x40 DUP1 DUP4 KECCAK256 DUP8 DUP6 AND DUP5 MSTORE DUP3 MSTORE DUP1 DUP4 KECCAK256 DUP7 DUP5 MSTORE DUP3 MSTORE DUP1 DUP4 KECCAK256 DUP6 DUP5 MSTORE SWAP1 SWAP2 MSTORE SWAP1 KECCAK256 SLOAD AND ISZERO PUSH2 0x28B JUMPI PUSH1 0x40 DUP1 MLOAD PUSH3 0x461BCD PUSH1 0xE5 SHL DUP2 MSTORE PUSH1 0x20 PUSH1 0x4 DUP3 ADD MSTORE PUSH1 0x6 PUSH1 0x24 DUP3 ADD MSTORE PUSH32 0x4E46323023310000000000000000000000000000000000000000000000000000 PUSH1 0x44 DUP3 ADD MSTORE SWAP1 MLOAD SWAP1 DUP2 SWAP1 SUB PUSH1 0x64 ADD SWAP1 REVERT JUMPDEST PUSH1 0x0 DUP5 DUP5 DUP5 PUSH1 0x40 MLOAD PUSH2 0x29C SWAP1 PUSH2 0x5B6 JUMP JUMPDEST DUP1 DUP5 PUSH1 0x1 PUSH1 0x1 PUSH1 0xA0 SHL SUB AND DUP2 MSTORE PUSH1 0x20 ADD DUP4 PUSH1 0x1 PUSH1 0x1 PUSH1 0xA0 SHL SUB AND DUP2 MSTORE PUSH1 0x20 ADD DUP3 DUP2 MSTORE PUSH1 0x20 ADD SWAP4 POP POP POP POP PUSH1 0x40 MLOAD DUP1 SWAP2 SUB SWAP1 PUSH1 0x0 CREATE DUP1 ISZERO DUP1 ISZERO PUSH2 0x2E2 JUMPI RETURNDATASIZE PUSH1 0x0 DUP1 RETURNDATACOPY RETURNDATASIZE PUSH1 0x0 REVERT JUMPDEST POP PUSH1 0x1 PUSH1 0x1 PUSH1 0xA0 SHL SUB DUP1 DUP8 AND PUSH1 0x0 DUP2 DUP2 MSTORE PUSH1 0x1 PUSH1 0x20 DUP2 DUP2 MSTORE PUSH1 0x40 DUP1 DUP5 KECCAK256 DUP12 DUP8 AND DUP1 DUP7 MSTORE SWAP1 DUP4 MSTORE DUP2 DUP6 KECCAK256 DUP12 DUP7 MSTORE DUP4 MSTORE DUP2 DUP6 KECCAK256 DUP11 DUP7 MSTORE DUP4 MSTORE DUP2 DUP6 KECCAK256 DUP1 SLOAD SWAP8 DUP10 AND PUSH20 0xFFFFFFFFFFFFFFFFFFFFFFFFFFFFFFFFFFFFFFFF NOT SWAP9 DUP10 AND DUP2 OR SWAP1 SWAP2 SSTORE DUP7 DUP7 MSTORE PUSH1 0x2 DUP5 MSTORE DUP3 DUP7 KECCAK256 DUP3 DUP8 MSTORE DUP5 MSTORE DUP3 DUP7 KECCAK256 DUP1 SLOAD SWAP6 DUP7 ADD DUP2 SSTORE DUP7 MSTORE SWAP5 DUP4 SWAP1 KECCAK256 SWAP1 SWAP4 ADD DUP1 SLOAD SWAP1 SWAP7 AND DUP5 OR SWAP1 SWAP6 SSTORE DUP5 MLOAD DUP10 DUP2 MSTORE SWAP1 DUP2 ADD SWAP3 SWAP1 SWAP3 MSTORE DUP4 MLOAD SWAP5 SWAP6 POP DUP7 SWAP5 SWAP1 SWAP4 PUSH32 0x86CED3B5B0FF3A7CB4C6F9B6EC3EE75869DCD58BEBD573CE9E6FEEDC2B7EC2C8 SWAP3 DUP3 SWAP1 SUB ADD SWAP1 LOG4 POP POP POP POP POP JUMP JUMPDEST PUSH1 0x1 PUSH1 0x1 PUSH1 0xA0 SHL SUB DUP1 DUP4 AND PUSH1 0x0 SWAP1 DUP2 MSTORE PUSH1 0x2 PUSH1 0x20 SWAP1 DUP2 MSTORE PUSH1 0x40 DUP1 DUP4 KECCAK256 SWAP4 DUP6 AND DUP4 MSTORE SWAP3 DUP2 MSTORE SWAP1 DUP3 SWAP1 KECCAK256 DUP1 SLOAD DUP4 MLOAD DUP2 DUP5 MUL DUP2 ADD DUP5 ADD SWAP1 SWAP5 MSTORE DUP1 DUP5 MSTORE PUSH1 0x60 SWAP4 SWAP3 DUP4 ADD DUP3 DUP3 DUP1 ISZERO PUSH2 0x424 JUMPI PUSH1 0x20 MUL DUP3 ADD SWAP2 SWAP1 PUSH1 0x0 MSTORE PUSH1 0x20 PUSH1 0x0 KECCAK256 SWAP1 JUMPDEST DUP2 SLOAD PUSH1 0x1 PUSH1 0x1 PUSH1 0xA0 SHL SUB AND DUP2 MSTORE PUSH1 0x1 SWAP1 SWAP2 ADD SWAP1 PUSH1 0x20 ADD DUP1 DUP4 GT PUSH2 0x406 JUMPI JUMPDEST POP POP POP POP POP SWAP1 POP SWAP3 SWAP2 POP POP JUMP JUMPDEST PUSH1 0x1 PUSH1 0x20 SWAP1 DUP2 MSTORE PUSH1 0x0 SWAP5 DUP6 MSTORE PUSH1 0x40 DUP1 DUP7 KECCAK256 DUP3 MSTORE SWAP4 DUP6 MSTORE DUP4 DUP6 KECCAK256 DUP2 MSTORE SWAP2 DUP5 MSTORE DUP3 DUP5 KECCAK256 SWAP1 SWAP2 MSTORE DUP3 MSTORE SWAP1 KECCAK256 SLOAD PUSH1 0x1 PUSH1 0x1 PUSH1 0xA0 SHL SUB AND DUP2 JUMP JUMPDEST PUSH1 0x3 SLOAD PUSH1 0x1 PUSH1 0x1 PUSH1 0xA0 SHL SUB AND SWAP1 JUMP JUMPDEST PUSH1 0x0 SLOAD PUSH1 0x1 PUSH1 0x1 PUSH1 0xA0 SHL SUB AND CALLER EQ PUSH2 0x4A8 JUMPI PUSH1 0x40 MLOAD PUSH3 0x461BCD PUSH1 0xE5 SHL DUP2 MSTORE PUSH1 0x4 ADD PUSH2 0x49F SWAP1 PUSH2 0x621 JUMP JUMPDEST PUSH1 0x40 MLOAD DUP1 SWAP2 SUB SWAP1 REVERT JUMPDEST PUSH1 0x40 MLOAD PUSH1 0x1 PUSH1 0x1 PUSH1 0xA0 SHL SUB DUP3 AND SWAP1 PUSH32 0x77A13E6B663954E04643194E292DCBC227C9E00893741047E969A5D206D49869 SWAP1 PUSH1 0x0 SWAP1 LOG2 PUSH1 0x3 DUP1 SLOAD PUSH20 0xFFFFFFFFFFFFFFFFFFFFFFFFFFFFFFFFFFFFFFFF NOT AND PUSH1 0x1 PUSH1 0x1 PUSH1 0xA0 SHL SUB SWAP3 SWAP1 SWAP3 AND SWAP2 SWAP1 SWAP2 OR SWAP1 SSTORE JUMP JUMPDEST PUSH1 0x0 SLOAD PUSH1 0x1 PUSH1 0x1 PUSH1 0xA0 SHL SUB AND CALLER EQ PUSH2 0x535 JUMPI PUSH1 0x40 MLOAD PUSH3 0x461BCD PUSH1 0xE5 SHL DUP2 MSTORE PUSH1 0x4 ADD PUSH2 0x49F SWAP1 PUSH2 0x621 JUMP JUMPDEST PUSH1 0x1 PUSH1 0x1 PUSH1 0xA0 SHL SUB DUP2 AND PUSH2 0x55B JUMPI PUSH1 0x40 MLOAD PUSH3 0x461BCD PUSH1 0xE5 SHL DUP2 MSTORE PUSH1 0x4 ADD PUSH2 0x49F SWAP1 PUSH2 0x5C4 JUMP JUMPDEST PUSH1 0x0 DUP1 SLOAD PUSH20 0xFFFFFFFFFFFFFFFFFFFFFFFFFFFFFFFFFFFFFFFF NOT AND PUSH1 0x1 PUSH1 0x1 PUSH1 0xA0 SHL SUB DUP4 DUP2 AND SWAP2 DUP3 OR DUP1 DUP5 SSTORE PUSH1 0x40 MLOAD SWAP3 SWAP4 SWAP2 AND SWAP2 PUSH32 0x8BE0079C531659141344CD1FD0A4F28419497F9722A3DAAFE3B4186F6B6457E0 SWAP2 SWAP1 LOG3 POP JUMP JUMPDEST PUSH2 0x58D0 DUP1 PUSH3 0x67F DUP4 CODECOPY ADD SWAP1 JUMP JUMPDEST PUSH1 0x20 DUP1 DUP3 MSTORE PUSH1 0x2A SWAP1 DUP3 ADD MSTORE PUSH32 0x4F776E61626C65237472616E736665724F776E6572736869703A20494E56414C PUSH1 0x40 DUP3 ADD MSTORE PUSH32 0x49445F4144445245535300000000000000000000000000000000000000000000 PUSH1 0x60 DUP3 ADD MSTORE PUSH1 0x80 ADD SWAP1 JUMP JUMPDEST PUSH1 0x20 DUP1 DUP3 MSTORE PUSH1 0x26 SWAP1 DUP3 ADD MSTORE PUSH32 0x4F776E61626C65236F6E6C794F776E65723A2053454E4445525F49535F4E4F54 PUSH1 0x40 DUP3 ADD MSTORE PUSH32 0x5F4F574E45520000000000000000000000000000000000000000000000000000 PUSH1 0x60 DUP3 ADD MSTORE PUSH1 0x80 ADD SWAP1 JUMP INVALID PUSH2 0x120 PUSH1 0x40 MSTORE CALLVALUE DUP1 ISZERO PUSH3 0x12 JUMPI PUSH1 0x0 DUP1 REVERT JUMPDEST POP PUSH1 0x40 MLOAD PUSH3 0x58D0 CODESIZE SUB DUP1 PUSH3 0x58D0 DUP4 CODECOPY DUP2 ADD PUSH1 0x40 DUP2 SWAP1 MSTORE PUSH3 0x35 SWAP2 PUSH3 0x28E JUMP JUMPDEST CALLER PUSH1 0x1 PUSH1 0x0 DUP2 SWAP1 SSTORE POP DUP1 PUSH1 0x1 PUSH1 0x1 PUSH1 0xA0 SHL SUB AND PUSH4 0x893D20E8 PUSH1 0x40 MLOAD DUP2 PUSH4 0xFFFFFFFF AND PUSH1 0xE0 SHL DUP2 MSTORE PUSH1 0x4 ADD PUSH1 0x20 PUSH1 0x40 MLOAD DUP1 DUP4 SUB DUP2 DUP7 DUP1 EXTCODESIZE ISZERO DUP1 ISZERO PUSH3 0x78 JUMPI PUSH1 0x0 DUP1 REVERT JUMPDEST POP GAS STATICCALL SWAP3 POP POP POP DUP1 ISZERO PUSH3 0xAB JUMPI POP PUSH1 0x40 DUP1 MLOAD PUSH1 0x1F RETURNDATASIZE SWAP1 DUP2 ADD PUSH1 0x1F NOT AND DUP3 ADD SWAP1 SWAP3 MSTORE PUSH3 0xA8 SWAP2 DUP2 ADD SWAP1 PUSH3 0x26A JUMP JUMPDEST PUSH1 0x1 JUMPDEST PUSH3 0xD3 JUMPI PUSH1 0x40 MLOAD PUSH3 0x461BCD PUSH1 0xE5 SHL DUP2 MSTORE PUSH1 0x4 ADD PUSH3 0xCA SWAP1 PUSH3 0x345 JUMP JUMPDEST PUSH1 0x40 MLOAD DUP1 SWAP2 SUB SWAP1 REVERT JUMPDEST POP PUSH1 0x3 DUP1 SLOAD PUSH1 0x1 PUSH1 0x1 PUSH1 0xA0 SHL SUB NOT AND PUSH1 0x1 PUSH1 0x1 PUSH1 0xA0 SHL SUB DUP4 AND SWAP1 DUP2 OR SWAP1 SWAP2 SSTORE PUSH1 0x40 MLOAD PUSH1 0x0 SWAP1 PUSH32 0xFCA4BC097843727C93A8AB8D241A38481CCCF8EC96DDA1A342574712CFE8EB40 SWAP1 DUP3 SWAP1 LOG3 POP PUSH1 0x1 PUSH1 0x1 PUSH1 0xA0 SHL SUB DUP4 AND ISZERO DUP1 ISZERO SWAP1 PUSH3 0x13F JUMPI POP PUSH1 0x1 PUSH1 0x1 PUSH1 0xA0 SHL SUB DUP3 AND ISZERO ISZERO JUMPDEST PUSH3 0x15E JUMPI PUSH1 0x40 MLOAD PUSH3 0x461BCD PUSH1 0xE5 SHL DUP2 MSTORE PUSH1 0x4 ADD PUSH3 0xCA SWAP1 PUSH3 0x325 JUMP JUMPDEST PUSH2 0x3E8 DUP2 GT ISZERO PUSH3 0x183 JUMPI PUSH1 0x40 MLOAD PUSH3 0x461BCD PUSH1 0xE5 SHL DUP2 MSTORE PUSH1 0x4 ADD PUSH3 0xCA SWAP1 PUSH3 0x305 JUMP JUMPDEST CALLER PUSH1 0x60 SWAP1 DUP2 SHL PUSH1 0xC0 MSTORE PUSH1 0x1 PUSH1 0x1 PUSH1 0x60 SHL SUB NOT DUP5 DUP3 SHL DUP2 AND PUSH1 0x80 MSTORE SWAP1 DUP4 SWAP1 SHL AND PUSH1 0xA0 MSTORE PUSH2 0x3E8 DUP2 SWAP1 SUB PUSH1 0xE0 MSTORE PUSH1 0x40 MLOAD PUSH4 0x1FFC9A7 PUSH1 0xE0 SHL DUP2 MSTORE PUSH1 0x1 PUSH1 0x1 PUSH1 0xA0 SHL SUB DUP5 AND SWAP1 PUSH4 0x1FFC9A7 SWAP1 PUSH3 0x1E3 SWAP1 PUSH4 0x152A902D PUSH1 0xE1 SHL SWAP1 PUSH1 0x4 ADD PUSH3 0x2F0 JUMP JUMPDEST PUSH1 0x20 PUSH1 0x40 MLOAD DUP1 DUP4 SUB DUP2 DUP7 DUP1 EXTCODESIZE ISZERO DUP1 ISZERO PUSH3 0x1FC JUMPI PUSH1 0x0 DUP1 REVERT JUMPDEST POP GAS STATICCALL SWAP3 POP POP POP DUP1 ISZERO PUSH3 0x22F JUMPI POP PUSH1 0x40 DUP1 MLOAD PUSH1 0x1F RETURNDATASIZE SWAP1 DUP2 ADD PUSH1 0x1F NOT AND DUP3 ADD SWAP1 SWAP3 MSTORE PUSH3 0x22C SWAP2 DUP2 ADD SWAP1 PUSH3 0x2CE JUMP JUMPDEST PUSH1 0x1 JUMPDEST PUSH3 0x23A JUMPI PUSH3 0x244 JUMP JUMPDEST ISZERO ISZERO PUSH1 0xF8 SHL PUSH2 0x100 MSTORE JUMPDEST POP POP POP PUSH3 0x363 JUMP JUMPDEST DUP1 MLOAD PUSH1 0x1 PUSH1 0x1 PUSH1 0xA0 SHL SUB DUP2 AND DUP2 EQ PUSH3 0x265 JUMPI PUSH1 0x0 DUP1 REVERT JUMPDEST SWAP2 SWAP1 POP JUMP JUMPDEST PUSH1 0x0 PUSH1 0x20 DUP3 DUP5 SUB SLT ISZERO PUSH3 0x27C JUMPI DUP1 DUP2 REVERT JUMPDEST PUSH3 0x287 DUP3 PUSH3 0x24D JUMP JUMPDEST SWAP4 SWAP3 POP POP POP JUMP JUMPDEST PUSH1 0x0 DUP1 PUSH1 0x0 PUSH1 0x60 DUP5 DUP7 SUB SLT ISZERO PUSH3 0x2A3 JUMPI DUP2 DUP3 REVERT JUMPDEST PUSH3 0x2AE DUP5 PUSH3 0x24D JUMP JUMPDEST SWAP3 POP PUSH3 0x2BE PUSH1 0x20 DUP6 ADD PUSH3 0x24D JUMP JUMPDEST SWAP2 POP PUSH1 0x40 DUP5 ADD MLOAD SWAP1 POP SWAP3 POP SWAP3 POP SWAP3 JUMP JUMPDEST PUSH1 0x0 PUSH1 0x20 DUP3 DUP5 SUB SLT ISZERO PUSH3 0x2E0 JUMPI DUP1 DUP2 REVERT JUMPDEST DUP2 MLOAD DUP1 ISZERO ISZERO DUP2 EQ PUSH3 0x287 JUMPI DUP2 DUP3 REVERT JUMPDEST PUSH1 0x1 PUSH1 0x1 PUSH1 0xE0 SHL SUB NOT SWAP2 SWAP1 SWAP2 AND DUP2 MSTORE PUSH1 0x20 ADD SWAP1 JUMP JUMPDEST PUSH1 0x20 DUP1 DUP3 MSTORE PUSH1 0x6 SWAP1 DUP3 ADD MSTORE PUSH6 0x272299181199 PUSH1 0xD1 SHL PUSH1 0x40 DUP3 ADD MSTORE PUSH1 0x60 ADD SWAP1 JUMP JUMPDEST PUSH1 0x20 DUP1 DUP3 MSTORE PUSH1 0x6 SWAP1 DUP3 ADD MSTORE PUSH6 0x4E4532302331 PUSH1 0xD0 SHL PUSH1 0x40 DUP3 ADD MSTORE PUSH1 0x60 ADD SWAP1 JUMP JUMPDEST PUSH1 0x20 DUP1 DUP3 MSTORE PUSH1 0x4 SWAP1 DUP3 ADD MSTORE PUSH4 0x444F2331 PUSH1 0xE0 SHL PUSH1 0x40 DUP3 ADD MSTORE PUSH1 0x60 ADD SWAP1 JUMP JUMPDEST PUSH1 0x80 MLOAD PUSH1 0x60 SHR PUSH1 0xA0 MLOAD PUSH1 0x60 SHR PUSH1 0xC0 MLOAD PUSH1 0x60 SHR PUSH1 0xE0 MLOAD PUSH2 0x100 MLOAD PUSH1 0xF8 SHR PUSH2 0x54BD PUSH3 0x413 PUSH1 0x0 CODECOPY DUP1 PUSH2 0x15BD MSTORE POP DUP1 PUSH2 0x8F6 MSTORE DUP1 PUSH2 0xAA9 MSTORE DUP1 PUSH2 0x1B42 MSTORE POP DUP1 PUSH2 0x5AC MSTORE DUP1 PUSH2 0xEEB MSTORE POP DUP1 PUSH2 0x939 MSTORE DUP1 PUSH2 0xE8A MSTORE DUP1 PUSH2 0x13D0 MSTORE DUP1 PUSH2 0x1753 MSTORE DUP1 PUSH2 0x259C MSTORE DUP1 PUSH2 0x298A MSTORE DUP1 PUSH2 0x2DA2 MSTORE DUP1 PUSH2 0x32C3 MSTORE POP DUP1 PUSH2 0x6BC MSTORE DUP1 PUSH2 0xB63 MSTORE DUP1 PUSH2 0xF89 MSTORE DUP1 PUSH2 0x1125 MSTORE DUP1 PUSH2 0x128C MSTORE DUP1 PUSH2 0x1494 MSTORE DUP1 PUSH2 0x15F8 MSTORE DUP1 PUSH2 0x2DDF MSTORE DUP1 PUSH2 0x3248 MSTORE DUP1 PUSH2 0x35FC MSTORE DUP1 PUSH2 0x37E9 MSTORE POP PUSH2 0x54BD PUSH1 0x0 RETURN INVALID PUSH1 0x80 PUSH1 0x40 MSTORE CALLVALUE DUP1 ISZERO PUSH2 0x10 JUMPI PUSH1 0x0 DUP1 REVERT JUMPDEST POP PUSH1 0x4 CALLDATASIZE LT PUSH2 0x1EE JUMPI PUSH1 0x0 CALLDATALOAD PUSH1 0xE0 SHR DUP1 PUSH4 0x893D20E8 GT PUSH2 0x10F JUMPI DUP1 PUSH4 0xBE571468 GT PUSH2 0xA2 JUMPI DUP1 PUSH4 0xE985E9C5 GT PUSH2 0x71 JUMPI DUP1 PUSH4 0xE985E9C5 EQ PUSH2 0x43D JUMPI DUP1 PUSH4 0xF23A6E61 EQ PUSH2 0x450 JUMPI DUP1 PUSH4 0xF242432A EQ PUSH2 0x463 JUMPI DUP1 PUSH4 0xFCA16C3B EQ PUSH2 0x476 JUMPI PUSH2 0x1EE JUMP JUMPDEST DUP1 PUSH4 0xBE571468 EQ PUSH2 0x3EE JUMPI DUP1 PUSH4 0xC7ED115E EQ PUSH2 0x401 JUMPI DUP1 PUSH4 0xD93E8AAA EQ PUSH2 0x422 JUMPI DUP1 PUSH4 0xE523D3FC EQ PUSH2 0x435 JUMPI PUSH2 0x1EE JUMP JUMPDEST DUP1 PUSH4 0xA9C2E36C GT PUSH2 0xDE JUMPI DUP1 PUSH4 0xA9C2E36C EQ PUSH2 0x3A0 JUMPI DUP1 PUSH4 0xAEAAD208 EQ PUSH2 0x3A8 JUMPI DUP1 PUSH4 0xB5DE3D14 EQ PUSH2 0x3BB JUMPI DUP1 PUSH4 0xBC197C81 EQ PUSH2 0x3CE JUMPI PUSH2 0x1EE JUMP JUMPDEST DUP1 PUSH4 0x893D20E8 EQ PUSH2 0x35F JUMPI DUP1 PUSH4 0xA22CB465 EQ PUSH2 0x367 JUMPI DUP1 PUSH4 0xA6313875 EQ PUSH2 0x37A JUMPI DUP1 PUSH4 0xA7380F6E EQ PUSH2 0x38D JUMPI PUSH2 0x1EE JUMP JUMPDEST DUP1 PUSH4 0x2EB2C2D6 GT PUSH2 0x187 JUMPI DUP1 PUSH4 0x4E1273F4 GT PUSH2 0x156 JUMPI DUP1 PUSH4 0x4E1273F4 EQ PUSH2 0x313 JUMPI DUP1 PUSH4 0x6EE8E134 EQ PUSH2 0x326 JUMPI DUP1 PUSH4 0x863ED300 EQ PUSH2 0x339 JUMPI DUP1 PUSH4 0x89382CA0 EQ PUSH2 0x34C JUMPI PUSH2 0x1EE JUMP JUMPDEST DUP1 PUSH4 0x2EB2C2D6 EQ PUSH2 0x2DB JUMPI DUP1 PUSH4 0x3750A8BD EQ PUSH2 0x2F0 JUMPI DUP1 PUSH4 0x38B49E2D EQ PUSH2 0x2F8 JUMPI DUP1 PUSH4 0x46ADF5CA EQ PUSH2 0x30B JUMPI PUSH2 0x1EE JUMP JUMPDEST DUP1 PUSH4 0x10FE9AE8 GT PUSH2 0x1C3 JUMPI DUP1 PUSH4 0x10FE9AE8 EQ PUSH2 0x280 JUMPI DUP1 PUSH4 0x14556A56 EQ PUSH2 0x295 JUMPI DUP1 PUSH4 0x209B96C5 EQ PUSH2 0x2A8 JUMPI DUP1 PUSH4 0x2BEF5E38 EQ PUSH2 0x2C8 JUMPI PUSH2 0x1EE JUMP JUMPDEST DUP1 PUSH3 0x8E09D8 EQ PUSH2 0x20F JUMPI DUP1 PUSH3 0xFDD58E EQ PUSH2 0x22D JUMPI DUP1 PUSH4 0x1FFC9A7 EQ PUSH2 0x240 JUMPI DUP1 PUSH4 0xE89341C EQ PUSH2 0x260 JUMPI JUMPDEST PUSH1 0x40 MLOAD PUSH3 0x461BCD PUSH1 0xE5 SHL DUP2 MSTORE PUSH1 0x4 ADD PUSH2 0x206 SWAP1 PUSH2 0x4C9A JUMP JUMPDEST PUSH1 0x40 MLOAD DUP1 SWAP2 SUB SWAP1 REVERT JUMPDEST PUSH2 0x217 PUSH2 0x489 JUMP JUMPDEST PUSH1 0x40 MLOAD PUSH2 0x224 SWAP2 SWAP1 PUSH2 0x5154 JUMP JUMPDEST PUSH1 0x40 MLOAD DUP1 SWAP2 SUB SWAP1 RETURN JUMPDEST PUSH2 0x217 PUSH2 0x23B CALLDATASIZE PUSH1 0x4 PUSH2 0x418B JUMP JUMPDEST PUSH2 0x48F JUMP JUMPDEST PUSH2 0x253 PUSH2 0x24E CALLDATASIZE PUSH1 0x4 PUSH2 0x4410 JUMP JUMPDEST PUSH2 0x4BA JUMP JUMPDEST PUSH1 0x40 MLOAD PUSH2 0x224 SWAP2 SWAP1 PUSH2 0x4A21 JUMP JUMPDEST PUSH2 0x273 PUSH2 0x26E CALLDATASIZE PUSH1 0x4 PUSH2 0x46E7 JUMP JUMPDEST PUSH2 0x5A8 JUMP JUMPDEST PUSH1 0x40 MLOAD PUSH2 0x224 SWAP2 SWAP1 PUSH2 0x4A41 JUMP JUMPDEST PUSH2 0x288 PUSH2 0x6BA JUMP JUMPDEST PUSH1 0x40 MLOAD PUSH2 0x224 SWAP2 SWAP1 PUSH2 0x482A JUMP JUMPDEST PUSH2 0x217 PUSH2 0x2A3 CALLDATASIZE PUSH1 0x4 PUSH2 0x3FDD JUMP JUMPDEST PUSH2 0x6DE JUMP JUMPDEST PUSH2 0x2BB PUSH2 0x2B6 CALLDATASIZE PUSH1 0x4 PUSH2 0x4244 JUMP JUMPDEST PUSH2 0x6FE JUMP JUMPDEST PUSH1 0x40 MLOAD PUSH2 0x224 SWAP2 SWAP1 PUSH2 0x48D4 JUMP JUMPDEST PUSH2 0x2BB PUSH2 0x2D6 CALLDATASIZE PUSH1 0x4 PUSH2 0x4244 JUMP JUMPDEST PUSH2 0x79F JUMP JUMPDEST PUSH2 0x2EE PUSH2 0x2E9 CALLDATASIZE PUSH1 0x4 PUSH2 0x404D JUMP JUMPDEST PUSH2 0x837 JUMP JUMPDEST STOP JUMPDEST PUSH2 0x217 PUSH2 0x8F4 JUMP JUMPDEST PUSH2 0x217 PUSH2 0x306 CALLDATASIZE PUSH1 0x4 PUSH2 0x3FDD JUMP JUMPDEST PUSH2 0x91C JUMP JUMPDEST PUSH2 0x288 PUSH2 0x937 JUMP JUMPDEST PUSH2 0x2BB PUSH2 0x321 CALLDATASIZE PUSH1 0x4 PUSH2 0x41E3 JUMP JUMPDEST PUSH2 0x95B JUMP JUMPDEST PUSH2 0x217 PUSH2 0x334 CALLDATASIZE PUSH1 0x4 PUSH2 0x475C JUMP JUMPDEST PUSH2 0xA74 JUMP JUMPDEST PUSH2 0x2BB PUSH2 0x347 CALLDATASIZE PUSH1 0x4 PUSH2 0x4284 JUMP JUMPDEST PUSH2 0xB0C JUMP JUMPDEST PUSH2 0x2EE PUSH2 0x35A CALLDATASIZE PUSH1 0x4 PUSH2 0x3FDD JUMP JUMPDEST PUSH2 0xC92 JUMP JUMPDEST PUSH2 0x288 PUSH2 0xD58 JUMP JUMPDEST PUSH2 0x2EE PUSH2 0x375 CALLDATASIZE PUSH1 0x4 PUSH2 0x415E JUMP JUMPDEST PUSH2 0xDF3 JUMP JUMPDEST PUSH2 0x2EE PUSH2 0x388 CALLDATASIZE PUSH1 0x4 PUSH2 0x3FDD JUMP JUMPDEST PUSH2 0xE61 JUMP JUMPDEST PUSH2 0x217 PUSH2 0x39B CALLDATASIZE PUSH1 0x4 PUSH2 0x4787 JUMP JUMPDEST PUSH2 0xEB4 JUMP JUMPDEST PUSH2 0x288 PUSH2 0xEE9 JUMP JUMPDEST PUSH2 0x217 PUSH2 0x3B6 CALLDATASIZE PUSH1 0x4 PUSH2 0x4787 JUMP JUMPDEST PUSH2 0xF0D JUMP JUMPDEST PUSH2 0x2EE PUSH2 0x3C9 CALLDATASIZE PUSH1 0x4 PUSH2 0x4717 JUMP JUMPDEST PUSH2 0xF37 JUMP JUMPDEST PUSH2 0x3E1 PUSH2 0x3DC CALLDATASIZE PUSH1 0x4 PUSH2 0x404D JUMP JUMPDEST PUSH2 0x10CF JUMP JUMPDEST PUSH1 0x40 MLOAD PUSH2 0x224 SWAP2 SWAP1 PUSH2 0x4A2C JUMP JUMPDEST PUSH2 0x2BB PUSH2 0x3FC CALLDATASIZE PUSH1 0x4 PUSH2 0x4284 JUMP JUMPDEST PUSH2 0x143D JUMP JUMPDEST PUSH2 0x414 PUSH2 0x40F CALLDATASIZE PUSH1 0x4 PUSH2 0x473B JUMP JUMPDEST PUSH2 0x15B8 JUMP JUMPDEST PUSH1 0x40 MLOAD PUSH2 0x224 SWAP3 SWAP2 SWAP1 PUSH2 0x4896 JUMP JUMPDEST PUSH2 0x2BB PUSH2 0x430 CALLDATASIZE PUSH1 0x4 PUSH2 0x4328 JUMP JUMPDEST PUSH2 0x170B JUMP JUMPDEST PUSH2 0x288 PUSH2 0x1934 JUMP JUMPDEST PUSH2 0x253 PUSH2 0x44B CALLDATASIZE PUSH1 0x4 PUSH2 0x4015 JUMP JUMPDEST PUSH2 0x1943 JUMP JUMPDEST PUSH2 0x3E1 PUSH2 0x45E CALLDATASIZE PUSH1 0x4 PUSH2 0x40F7 JUMP JUMPDEST PUSH2 0x1971 JUMP JUMPDEST PUSH2 0x2EE PUSH2 0x471 CALLDATASIZE PUSH1 0x4 PUSH2 0x40F7 JUMP JUMPDEST PUSH2 0x1A3E JUMP JUMPDEST PUSH2 0x217 PUSH2 0x484 CALLDATASIZE PUSH1 0x4 PUSH2 0x475C JUMP JUMPDEST PUSH2 0x1AF4 JUMP JUMPDEST PUSH1 0x4 SLOAD SWAP1 JUMP JUMPDEST PUSH1 0x1 PUSH1 0x1 PUSH1 0xA0 SHL SUB DUP3 AND PUSH1 0x0 SWAP1 DUP2 MSTORE PUSH1 0x1 PUSH1 0x20 SWAP1 DUP2 MSTORE PUSH1 0x40 DUP1 DUP4 KECCAK256 DUP5 DUP5 MSTORE SWAP1 SWAP2 MSTORE SWAP1 KECCAK256 SLOAD JUMPDEST SWAP3 SWAP2 POP POP JUMP JUMPDEST PUSH1 0x0 PUSH1 0x1 PUSH1 0x1 PUSH1 0xE0 SHL SUB NOT DUP3 AND PUSH32 0x36372B0700000000000000000000000000000000000000000000000000000000 EQ DUP1 PUSH2 0x504 JUMPI POP PUSH1 0x1 PUSH1 0x1 PUSH1 0xE0 SHL SUB NOT DUP3 AND PUSH4 0x1FFC9A7 PUSH1 0xE0 SHL EQ JUMPDEST DUP1 PUSH2 0x538 JUMPI POP PUSH1 0x1 PUSH1 0x1 PUSH1 0xE0 SHL SUB NOT DUP3 AND PUSH32 0xD9B67A2600000000000000000000000000000000000000000000000000000000 EQ JUMPDEST DUP1 PUSH2 0x56C JUMPI POP PUSH1 0x1 PUSH1 0x1 PUSH1 0xE0 SHL SUB NOT DUP3 AND PUSH32 0x4E2312E000000000000000000000000000000000000000000000000000000000 EQ JUMPDEST DUP1 PUSH2 0x5A0 JUMPI POP PUSH1 0x1 PUSH1 0x1 PUSH1 0xE0 SHL SUB NOT DUP3 AND PUSH32 0xE89341C00000000000000000000000000000000000000000000000000000000 EQ JUMPDEST SWAP1 POP JUMPDEST SWAP2 SWAP1 POP JUMP JUMPDEST PUSH1 0x60 PUSH32 0x0 PUSH1 0x1 PUSH1 0x1 PUSH1 0xA0 SHL SUB AND PUSH4 0xD3D72D2A PUSH1 0x40 MLOAD DUP2 PUSH4 0xFFFFFFFF AND PUSH1 0xE0 SHL DUP2 MSTORE PUSH1 0x4 ADD PUSH1 0x20 PUSH1 0x40 MLOAD DUP1 DUP4 SUB DUP2 DUP7 DUP1 EXTCODESIZE ISZERO DUP1 ISZERO PUSH2 0x603 JUMPI PUSH1 0x0 DUP1 REVERT JUMPDEST POP GAS STATICCALL ISZERO DUP1 ISZERO PUSH2 0x617 JUMPI RETURNDATASIZE PUSH1 0x0 DUP1 RETURNDATACOPY RETURNDATASIZE PUSH1 0x0 REVERT JUMPDEST POP POP POP POP PUSH1 0x40 MLOAD RETURNDATASIZE PUSH1 0x1F NOT PUSH1 0x1F DUP3 ADD AND DUP3 ADD DUP1 PUSH1 0x40 MSTORE POP DUP2 ADD SWAP1 PUSH2 0x63B SWAP2 SWAP1 PUSH2 0x3FF9 JUMP JUMPDEST PUSH1 0x1 PUSH1 0x1 PUSH1 0xA0 SHL SUB AND PUSH4 0xE89341C DUP4 PUSH1 0x40 MLOAD DUP3 PUSH4 0xFFFFFFFF AND PUSH1 0xE0 SHL DUP2 MSTORE PUSH1 0x4 ADD PUSH2 0x666 SWAP2 SWAP1 PUSH2 0x5154 JUMP JUMPDEST PUSH1 0x0 PUSH1 0x40 MLOAD DUP1 DUP4 SUB DUP2 DUP7 DUP1 EXTCODESIZE ISZERO DUP1 ISZERO PUSH2 0x67E JUMPI PUSH1 0x0 DUP1 REVERT JUMPDEST POP GAS STATICCALL ISZERO DUP1 ISZERO PUSH2 0x692 JUMPI RETURNDATASIZE PUSH1 0x0 DUP1 RETURNDATACOPY RETURNDATASIZE PUSH1 0x0 REVERT JUMPDEST POP POP POP POP PUSH1 0x40 MLOAD RETURNDATASIZE PUSH1 0x0 DUP3 RETURNDATACOPY PUSH1 0x1F RETURNDATASIZE SWAP1 DUP2 ADD PUSH1 0x1F NOT AND DUP3 ADD PUSH1 0x40 MSTORE PUSH2 0x5A0 SWAP2 SWAP1 DUP2 ADD SWAP1 PUSH2 0x4674 JUMP JUMPDEST PUSH32 0x0 SWAP1 JUMP JUMPDEST PUSH1 0x1 PUSH1 0x1 PUSH1 0xA0 SHL SUB AND PUSH1 0x0 SWAP1 DUP2 MSTORE PUSH1 0x8 PUSH1 0x20 MSTORE PUSH1 0x40 SWAP1 KECCAK256 SLOAD PUSH2 0x2710 SWAP1 DIV SWAP1 JUMP JUMPDEST PUSH1 0x60 DUP2 DUP2 DUP2 PUSH8 0xFFFFFFFFFFFFFFFF DUP2 GT DUP1 ISZERO PUSH2 0x719 JUMPI PUSH1 0x0 DUP1 REVERT JUMPDEST POP PUSH1 0x40 MLOAD SWAP1 DUP1 DUP3 MSTORE DUP1 PUSH1 0x20 MUL PUSH1 0x20 ADD DUP3 ADD PUSH1 0x40 MSTORE DUP1 ISZERO PUSH2 0x743 JUMPI DUP2 PUSH1 0x20 ADD PUSH1 0x20 DUP3 MUL DUP1 CALLDATASIZE DUP4 CALLDATACOPY ADD SWAP1 POP JUMPDEST POP SWAP1 POP PUSH1 0x0 JUMPDEST DUP3 DUP2 LT ISZERO PUSH2 0x796 JUMPI PUSH1 0x7 PUSH1 0x0 DUP8 DUP8 DUP5 DUP2 DUP2 LT PUSH2 0x761 JUMPI INVALID JUMPDEST SWAP1 POP PUSH1 0x20 MUL ADD CALLDATALOAD DUP2 MSTORE PUSH1 0x20 ADD SWAP1 DUP2 MSTORE PUSH1 0x20 ADD PUSH1 0x0 KECCAK256 SLOAD DUP3 DUP3 DUP2 MLOAD DUP2 LT PUSH2 0x783 JUMPI INVALID JUMPDEST PUSH1 0x20 SWAP1 DUP2 MUL SWAP2 SWAP1 SWAP2 ADD ADD MSTORE PUSH1 0x1 ADD PUSH2 0x749 JUMP JUMPDEST POP SWAP5 SWAP4 POP POP POP POP JUMP JUMPDEST PUSH1 0x60 DUP2 DUP2 DUP2 PUSH8 0xFFFFFFFFFFFFFFFF DUP2 GT DUP1 ISZERO PUSH2 0x7BA JUMPI PUSH1 0x0 DUP1 REVERT JUMPDEST POP PUSH1 0x40 MLOAD SWAP1 DUP1 DUP3 MSTORE DUP1 PUSH1 0x20 MUL PUSH1 0x20 ADD DUP3 ADD PUSH1 0x40 MSTORE DUP1 ISZERO PUSH2 0x7E4 JUMPI DUP2 PUSH1 0x20 ADD PUSH1 0x20 DUP3 MUL DUP1 CALLDATASIZE DUP4 CALLDATACOPY ADD SWAP1 POP JUMPDEST POP SWAP1 POP PUSH1 0x0 JUMPDEST DUP3 DUP2 LT ISZERO PUSH2 0x796 JUMPI PUSH1 0x6 PUSH1 0x0 DUP8 DUP8 DUP5 DUP2 DUP2 LT PUSH2 0x802 JUMPI INVALID JUMPDEST SWAP1 POP PUSH1 0x20 MUL ADD CALLDATALOAD DUP2 MSTORE PUSH1 0x20 ADD SWAP1 DUP2 MSTORE PUSH1 0x20 ADD PUSH1 0x0 KECCAK256 SLOAD DUP3 DUP3 DUP2 MLOAD DUP2 LT PUSH2 0x824 JUMPI INVALID JUMPDEST PUSH1 0x20 SWAP1 DUP2 MUL SWAP2 SWAP1 SWAP2 ADD ADD MSTORE PUSH1 0x1 ADD PUSH2 0x7EA JUMP JUMPDEST CALLER PUSH1 0x1 PUSH1 0x1 PUSH1 0xA0 SHL SUB DUP7 AND EQ DUP1 PUSH2 0x853 JUMPI POP PUSH2 0x853 DUP6 CALLER PUSH2 0x1943 JUMP JUMPDEST PUSH2 0x88E JUMPI PUSH1 0x40 MLOAD PUSH3 0x461BCD PUSH1 0xE5 SHL DUP2 MSTORE PUSH1 0x4 ADD DUP1 DUP1 PUSH1 0x20 ADD DUP3 DUP2 SUB DUP3 MSTORE PUSH1 0x2F DUP2 MSTORE PUSH1 0x20 ADD DUP1 PUSH2 0x5383 PUSH1 0x2F SWAP2 CODECOPY PUSH1 0x40 ADD SWAP2 POP POP PUSH1 0x40 MLOAD DUP1 SWAP2 SUB SWAP1 REVERT JUMPDEST PUSH1 0x1 PUSH1 0x1 PUSH1 0xA0 SHL SUB DUP5 AND PUSH2 0x8D3 JUMPI PUSH1 0x40 MLOAD PUSH3 0x461BCD PUSH1 0xE5 SHL DUP2 MSTORE PUSH1 0x4 ADD DUP1 DUP1 PUSH1 0x20 ADD DUP3 DUP2 SUB DUP3 MSTORE PUSH1 0x30 DUP2 MSTORE PUSH1 0x20 ADD DUP1 PUSH2 0x52F7 PUSH1 0x30 SWAP2 CODECOPY PUSH1 0x40 ADD SWAP2 POP POP PUSH1 0x40 MLOAD DUP1 SWAP2 SUB SWAP1 REVERT JUMPDEST PUSH2 0x8DF DUP6 DUP6 DUP6 DUP6 PUSH2 0x1B77 JUMP JUMPDEST PUSH2 0x8ED DUP6 DUP6 DUP6 DUP6 GAS DUP7 PUSH2 0x1E12 JUMP JUMPDEST POP POP POP POP POP JUMP JUMPDEST PUSH32 0x0 PUSH2 0x3E8 SUB SWAP1 JUMP JUMPDEST PUSH1 0x1 PUSH1 0x1 PUSH1 0xA0 SHL SUB AND PUSH1 0x0 SWAP1 DUP2 MSTORE PUSH1 0x8 PUSH1 0x20 MSTORE PUSH1 0x40 SWAP1 KECCAK256 SLOAD SWAP1 JUMP JUMPDEST PUSH32 0x0 SWAP1 JUMP JUMPDEST PUSH1 0x60 DUP2 MLOAD DUP4 MLOAD EQ PUSH2 0x99D JUMPI PUSH1 0x40 MLOAD PUSH3 0x461BCD PUSH1 0xE5 SHL DUP2 MSTORE PUSH1 0x4 ADD DUP1 DUP1 PUSH1 0x20 ADD DUP3 DUP2 SUB DUP3 MSTORE PUSH1 0x2C DUP2 MSTORE PUSH1 0x20 ADD DUP1 PUSH2 0x5357 PUSH1 0x2C SWAP2 CODECOPY PUSH1 0x40 ADD SWAP2 POP POP PUSH1 0x40 MLOAD DUP1 SWAP2 SUB SWAP1 REVERT JUMPDEST PUSH1 0x60 DUP4 MLOAD PUSH8 0xFFFFFFFFFFFFFFFF DUP2 GT DUP1 ISZERO PUSH2 0x9B7 JUMPI PUSH1 0x0 DUP1 REVERT JUMPDEST POP PUSH1 0x40 MLOAD SWAP1 DUP1 DUP3 MSTORE DUP1 PUSH1 0x20 MUL PUSH1 0x20 ADD DUP3 ADD PUSH1 0x40 MSTORE DUP1 ISZERO PUSH2 0x9E1 JUMPI DUP2 PUSH1 0x20 ADD PUSH1 0x20 DUP3 MUL DUP1 CALLDATASIZE DUP4 CALLDATACOPY ADD SWAP1 POP JUMPDEST POP SWAP1 POP PUSH1 0x0 JUMPDEST DUP5 MLOAD DUP2 LT ISZERO PUSH2 0xA6C JUMPI PUSH1 0x1 PUSH1 0x0 DUP7 DUP4 DUP2 MLOAD DUP2 LT PUSH2 0xA00 JUMPI INVALID JUMPDEST PUSH1 0x20 MUL PUSH1 0x20 ADD ADD MLOAD PUSH1 0x1 PUSH1 0x1 PUSH1 0xA0 SHL SUB AND PUSH1 0x1 PUSH1 0x1 PUSH1 0xA0 SHL SUB AND DUP2 MSTORE PUSH1 0x20 ADD SWAP1 DUP2 MSTORE PUSH1 0x20 ADD PUSH1 0x0 KECCAK256 PUSH1 0x0 DUP6 DUP4 DUP2 MLOAD DUP2 LT PUSH2 0xA36 JUMPI INVALID JUMPDEST PUSH1 0x20 MUL PUSH1 0x20 ADD ADD MLOAD DUP2 MSTORE PUSH1 0x20 ADD SWAP1 DUP2 MSTORE PUSH1 0x20 ADD PUSH1 0x0 KECCAK256 SLOAD DUP3 DUP3 DUP2 MLOAD DUP2 LT PUSH2 0xA59 JUMPI INVALID JUMPDEST PUSH1 0x20 SWAP1 DUP2 MUL SWAP2 SWAP1 SWAP2 ADD ADD MSTORE PUSH1 0x1 ADD PUSH2 0x9E7 JUMP JUMPDEST POP SWAP4 SWAP3 POP POP POP JUMP JUMPDEST PUSH1 0x0 DUP1 DUP4 GT DUP1 ISZERO PUSH2 0xA85 JUMPI POP PUSH1 0x0 DUP3 GT JUMPDEST PUSH2 0xAA1 JUMPI PUSH1 0x40 MLOAD PUSH3 0x461BCD PUSH1 0xE5 SHL DUP2 MSTORE PUSH1 0x4 ADD PUSH2 0x206 SWAP1 PUSH2 0x4CD1 JUMP JUMPDEST PUSH1 0x0 PUSH2 0xACD DUP6 PUSH32 0x0 PUSH2 0x200A JUMP JUMPDEST SWAP1 POP PUSH1 0x0 PUSH2 0xADB DUP3 DUP6 PUSH2 0x200A JUMP JUMPDEST SWAP1 POP PUSH1 0x0 PUSH2 0xAF5 DUP4 PUSH2 0xAEF DUP9 PUSH2 0x3E8 PUSH2 0x200A JUMP JUMPDEST SWAP1 PUSH2 0x2080 JUMP JUMPDEST SWAP1 POP DUP1 DUP3 DUP2 PUSH2 0xB00 JUMPI INVALID JUMPDEST DIV SWAP8 SWAP7 POP POP POP POP POP POP POP JUMP JUMPDEST PUSH1 0x60 DUP4 DUP2 DUP2 PUSH8 0xFFFFFFFFFFFFFFFF DUP2 GT DUP1 ISZERO PUSH2 0xB27 JUMPI PUSH1 0x0 DUP1 REVERT JUMPDEST POP PUSH1 0x40 MLOAD SWAP1 DUP1 DUP3 MSTORE DUP1 PUSH1 0x20 MUL PUSH1 0x20 ADD DUP3 ADD PUSH1 0x40 MSTORE DUP1 ISZERO PUSH2 0xB51 JUMPI DUP2 PUSH1 0x20 ADD PUSH1 0x20 DUP3 MUL DUP1 CALLDATASIZE DUP4 CALLDATACOPY ADD SWAP1 POP JUMPDEST POP SWAP1 POP PUSH1 0x0 JUMPDEST DUP3 DUP2 LT ISZERO PUSH2 0xC87 JUMPI PUSH1 0x0 PUSH32 0x0 PUSH1 0x1 PUSH1 0x1 PUSH1 0xA0 SHL SUB AND PUSH3 0xFDD58E ADDRESS DUP12 DUP12 DUP7 DUP2 DUP2 LT PUSH2 0xB9C JUMPI INVALID JUMPDEST SWAP1 POP PUSH1 0x20 MUL ADD CALLDATALOAD PUSH1 0x40 MLOAD DUP4 PUSH4 0xFFFFFFFF AND PUSH1 0xE0 SHL DUP2 MSTORE PUSH1 0x4 ADD PUSH2 0xBC0 SWAP3 SWAP2 SWAP1 PUSH2 0x4896 JUMP JUMPDEST PUSH1 0x20 PUSH1 0x40 MLOAD DUP1 DUP4 SUB DUP2 DUP7 DUP1 EXTCODESIZE ISZERO DUP1 ISZERO PUSH2 0xBD8 JUMPI PUSH1 0x0 DUP1 REVERT JUMPDEST POP GAS STATICCALL ISZERO DUP1 ISZERO PUSH2 0xBEC JUMPI RETURNDATASIZE PUSH1 0x0 DUP1 RETURNDATACOPY RETURNDATASIZE PUSH1 0x0 REVERT JUMPDEST POP POP POP POP PUSH1 0x40 MLOAD RETURNDATASIZE PUSH1 0x1F NOT PUSH1 0x1F DUP3 ADD AND DUP3 ADD DUP1 PUSH1 0x40 MSTORE POP DUP2 ADD SWAP1 PUSH2 0xC10 SWAP2 SWAP1 PUSH2 0x46FF JUMP JUMPDEST SWAP1 POP PUSH2 0xC67 DUP10 DUP10 DUP5 DUP2 DUP2 LT PUSH2 0xC21 JUMPI INVALID JUMPDEST SWAP1 POP PUSH1 0x20 MUL ADD CALLDATALOAD DUP9 DUP9 DUP6 DUP2 DUP2 LT PUSH2 0xC34 JUMPI INVALID JUMPDEST SWAP1 POP PUSH1 0x20 MUL ADD CALLDATALOAD DUP4 PUSH1 0x7 PUSH1 0x0 DUP15 DUP15 DUP10 DUP2 DUP2 LT PUSH2 0xC4C JUMPI INVALID JUMPDEST SWAP1 POP PUSH1 0x20 MUL ADD CALLDATALOAD DUP2 MSTORE PUSH1 0x20 ADD SWAP1 DUP2 MSTORE PUSH1 0x20 ADD PUSH1 0x0 KECCAK256 SLOAD PUSH2 0xEB4 JUMP JUMPDEST DUP4 DUP4 DUP2 MLOAD DUP2 LT PUSH2 0xC73 JUMPI INVALID JUMPDEST PUSH1 0x20 SWAP1 DUP2 MUL SWAP2 SWAP1 SWAP2 ADD ADD MSTORE POP PUSH1 0x1 ADD PUSH2 0xB57 JUMP JUMPDEST POP SWAP7 SWAP6 POP POP POP POP POP POP JUMP JUMPDEST PUSH2 0xC9A PUSH2 0xD58 JUMP JUMPDEST PUSH1 0x1 PUSH1 0x1 PUSH1 0xA0 SHL SUB AND CALLER PUSH1 0x1 PUSH1 0x1 PUSH1 0xA0 SHL SUB AND EQ PUSH2 0xCCA JUMPI PUSH1 0x40 MLOAD PUSH3 0x461BCD PUSH1 0xE5 SHL DUP2 MSTORE PUSH1 0x4 ADD PUSH2 0x206 SWAP1 PUSH2 0x4AAB JUMP JUMPDEST PUSH1 0x1 PUSH1 0x1 PUSH1 0xA0 SHL SUB DUP2 AND PUSH2 0xCF0 JUMPI PUSH1 0x40 MLOAD PUSH3 0x461BCD PUSH1 0xE5 SHL DUP2 MSTORE PUSH1 0x4 ADD PUSH2 0x206 SWAP1 PUSH2 0x4B19 JUMP JUMPDEST PUSH1 0x3 DUP1 SLOAD PUSH32 0xFFFFFFFFFFFFFFFFFFFFFFFF0000000000000000000000000000000000000000 AND PUSH1 0x1 PUSH1 0x1 PUSH1 0xA0 SHL SUB DUP4 DUP2 AND SWAP2 DUP3 OR SWAP3 DUP4 SWAP1 SSTORE PUSH1 0x40 MLOAD SWAP2 SWAP3 AND SWAP1 PUSH32 0xFCA4BC097843727C93A8AB8D241A38481CCCF8EC96DDA1A342574712CFE8EB40 SWAP1 PUSH1 0x0 SWAP1 LOG3 POP JUMP JUMPDEST PUSH1 0x3 SLOAD PUSH1 0x40 DUP1 MLOAD PUSH32 0x893D20E800000000000000000000000000000000000000000000000000000000 DUP2 MSTORE SWAP1 MLOAD PUSH1 0x0 SWAP3 PUSH1 0x1 PUSH1 0x1 PUSH1 0xA0 SHL SUB AND SWAP2 PUSH4 0x893D20E8 SWAP2 PUSH1 0x4 DUP1 DUP4 ADD SWAP3 PUSH1 0x20 SWAP3 SWAP2 SWAP1 DUP3 SWAP1 SUB ADD DUP2 DUP7 DUP1 EXTCODESIZE ISZERO DUP1 ISZERO PUSH2 0xDB6 JUMPI PUSH1 0x0 DUP1 REVERT JUMPDEST POP GAS STATICCALL ISZERO DUP1 ISZERO PUSH2 0xDCA JUMPI RETURNDATASIZE PUSH1 0x0 DUP1 RETURNDATACOPY RETURNDATASIZE PUSH1 0x0 REVERT JUMPDEST POP POP POP POP PUSH1 0x40 MLOAD RETURNDATASIZE PUSH1 0x1F NOT PUSH1 0x1F DUP3 ADD AND DUP3 ADD DUP1 PUSH1 0x40 MSTORE POP DUP2 ADD SWAP1 PUSH2 0xDEE SWAP2 SWAP1 PUSH2 0x3FF9 JUMP JUMPDEST SWAP1 POP SWAP1 JUMP JUMPDEST CALLER PUSH1 0x0 DUP2 DUP2 MSTORE PUSH1 0x2 PUSH1 0x20 SWAP1 DUP2 MSTORE PUSH1 0x40 DUP1 DUP4 KECCAK256 PUSH1 0x1 PUSH1 0x1 PUSH1 0xA0 SHL SUB DUP8 AND DUP1 DUP6 MSTORE SWAP1 DUP4 MSTORE SWAP3 DUP2 SWAP1 KECCAK256 DUP1 SLOAD PUSH1 0xFF NOT AND DUP7 ISZERO ISZERO SWAP1 DUP2 OR SWAP1 SWAP2 SSTORE DUP2 MLOAD SWAP1 DUP2 MSTORE SWAP1 MLOAD SWAP3 SWAP4 SWAP3 PUSH32 0x17307EAB39AB6107E8899845AD3D59BD9653F200F220920489CA2B5937696C31 SWAP3 SWAP2 DUP2 SWAP1 SUB SWAP1 SWAP2 ADD SWAP1 LOG3 POP POP JUMP JUMPDEST PUSH1 0x1 PUSH1 0x1 PUSH1 0xA0 SHL SUB DUP2 AND PUSH1 0x0 SWAP1 DUP2 MSTORE PUSH1 0x8 PUSH1 0x20 MSTORE PUSH1 0x40 SWAP1 KECCAK256 DUP1 SLOAD PUSH2 0x2710 DUP1 DUP3 MOD SWAP1 SWAP3 SSTORE DIV PUSH2 0xEB0 PUSH32 0x0 DUP4 DUP4 PUSH2 0x20DA JUMP JUMPDEST POP POP JUMP JUMPDEST PUSH1 0x0 DUP1 PUSH2 0xEC2 DUP6 DUP6 DUP6 PUSH2 0xA74 JUMP JUMPDEST SWAP1 POP PUSH1 0x0 PUSH2 0xED0 DUP8 DUP4 PUSH2 0x15B8 JUMP JUMPDEST SWAP2 POP PUSH2 0xEDE SWAP1 POP DUP3 DUP3 PUSH2 0x2255 JUMP JUMPDEST SWAP8 SWAP7 POP POP POP POP POP POP POP JUMP JUMPDEST PUSH32 0x0 SWAP1 JUMP JUMPDEST PUSH1 0x0 DUP1 PUSH2 0xF1B DUP6 DUP6 DUP6 PUSH2 0x1AF4 JUMP JUMPDEST SWAP1 POP PUSH1 0x0 PUSH2 0xF29 DUP8 DUP4 PUSH2 0x15B8 JUMP JUMPDEST SWAP2 POP PUSH2 0xEDE SWAP1 POP DUP3 DUP3 PUSH2 0x2080 JUMP JUMPDEST PUSH2 0xF3F PUSH2 0xD58 JUMP JUMPDEST PUSH1 0x1 PUSH1 0x1 PUSH1 0xA0 SHL SUB AND CALLER PUSH1 0x1 PUSH1 0x1 PUSH1 0xA0 SHL SUB AND EQ PUSH2 0xF6F JUMPI PUSH1 0x40 MLOAD PUSH3 0x461BCD PUSH1 0xE5 SHL DUP2 MSTORE PUSH1 0x4 ADD PUSH2 0x206 SWAP1 PUSH2 0x4AAB JUMP JUMPDEST PUSH1 0x40 MLOAD PUSH4 0x1FFC9A7 PUSH1 0xE0 SHL DUP2 MSTORE PUSH1 0x0 SWAP1 PUSH1 0x1 PUSH1 0x1 PUSH1 0xA0 SHL SUB PUSH32 0x0 AND SWAP1 PUSH4 0x1FFC9A7 SWAP1 PUSH2 0xFC5 SWAP1 PUSH4 0x152A902D PUSH1 0xE1 SHL SWAP1 PUSH1 0x4 ADD PUSH2 0x4A2C JUMP JUMPDEST PUSH1 0x20 PUSH1 0x40 MLOAD DUP1 DUP4 SUB DUP2 DUP7 DUP1 EXTCODESIZE ISZERO DUP1 ISZERO PUSH2 0xFDD JUMPI PUSH1 0x0 DUP1 REVERT JUMPDEST POP GAS STATICCALL ISZERO DUP1 ISZERO PUSH2 0xFF1 JUMPI RETURNDATASIZE PUSH1 0x0 DUP1 RETURNDATACOPY RETURNDATASIZE PUSH1 0x0 REVERT JUMPDEST POP POP POP POP PUSH1 0x40 MLOAD RETURNDATASIZE PUSH1 0x1F NOT PUSH1 0x1F DUP3 ADD AND DUP3 ADD DUP1 PUSH1 0x40 MSTORE POP DUP2 ADD SWAP1 PUSH2 0x1015 SWAP2 SWAP1 PUSH2 0x43F4 JUMP JUMPDEST SWAP1 POP DUP1 ISZERO PUSH2 0x1035 JUMPI PUSH1 0x40 MLOAD PUSH3 0x461BCD PUSH1 0xE5 SHL DUP2 MSTORE PUSH1 0x4 ADD PUSH2 0x206 SWAP1 PUSH2 0x4E52 JUMP JUMPDEST PUSH2 0x9C4 DUP4 GT ISZERO PUSH2 0x1057 JUMPI PUSH1 0x40 MLOAD PUSH3 0x461BCD PUSH1 0xE5 SHL DUP2 MSTORE PUSH1 0x4 ADD PUSH2 0x206 SWAP1 PUSH2 0x511D JUMP JUMPDEST PUSH1 0x4 DUP4 SWAP1 SSTORE PUSH1 0x5 DUP1 SLOAD PUSH32 0xFFFFFFFFFFFFFFFFFFFFFFFF0000000000000000000000000000000000000000 AND PUSH1 0x1 PUSH1 0x1 PUSH1 0xA0 SHL SUB DUP5 AND SWAP1 DUP2 OR SWAP1 SWAP2 SSTORE PUSH1 0x40 MLOAD PUSH32 0x2365318429BF1D603E8383B62068288A077545C5C9E709201D563B3F56CE2B3 SWAP1 PUSH2 0x10C2 SWAP1 DUP7 SWAP1 PUSH2 0x5154 JUMP JUMPDEST PUSH1 0x40 MLOAD DUP1 SWAP2 SUB SWAP1 LOG2 POP POP POP JUMP JUMPDEST PUSH1 0x0 DUP1 DUP3 DUP1 PUSH1 0x20 ADD SWAP1 MLOAD DUP2 ADD SWAP1 PUSH2 0x10E6 SWAP2 SWAP1 PUSH2 0x442C JUMP JUMPDEST SWAP1 POP PUSH1 0x1 PUSH1 0x1 PUSH1 0xE0 SHL SUB NOT DUP2 AND PUSH32 0xADE79C7A00000000000000000000000000000000000000000000000000000000 EQ ISZERO PUSH2 0x124F JUMPI CALLER PUSH1 0x1 PUSH1 0x1 PUSH1 0xA0 SHL SUB PUSH32 0x0 AND EQ PUSH2 0x1162 JUMPI PUSH1 0x40 MLOAD PUSH3 0x461BCD PUSH1 0xE5 SHL DUP2 MSTORE PUSH1 0x4 ADD PUSH2 0x206 SWAP1 PUSH2 0x4EC0 JUMP JUMPDEST PUSH2 0x116A PUSH2 0x3D02 JUMP JUMPDEST DUP4 DUP1 PUSH1 0x20 ADD SWAP1 MLOAD DUP2 ADD SWAP1 PUSH2 0x117E SWAP2 SWAP1 PUSH2 0x459D JUMP JUMPDEST DUP1 MLOAD SWAP1 SWAP3 POP PUSH1 0x0 SWAP2 POP PUSH1 0x1 PUSH1 0x1 PUSH1 0xA0 SHL SUB AND ISZERO PUSH2 0x119C JUMPI DUP2 MLOAD PUSH2 0x119E JUMP JUMPDEST DUP8 JUMPDEST SWAP1 POP DUP2 PUSH1 0x60 ADD MLOAD MLOAD DUP3 PUSH1 0x40 ADD MLOAD MLOAD EQ PUSH2 0x11C9 JUMPI PUSH1 0x40 MLOAD PUSH3 0x461BCD PUSH1 0xE5 SHL DUP2 MSTORE PUSH1 0x4 ADD PUSH2 0x206 SWAP1 PUSH2 0x4E1B JUMP JUMPDEST PUSH1 0x60 PUSH2 0x11EA DUP9 DUP9 DUP6 PUSH1 0x20 ADD MLOAD DUP7 PUSH1 0x80 ADD MLOAD DUP7 DUP9 PUSH1 0x40 ADD MLOAD DUP10 PUSH1 0x60 ADD MLOAD PUSH2 0x22B2 JUMP JUMPDEST SWAP1 POP DUP2 PUSH1 0x1 PUSH1 0x1 PUSH1 0xA0 SHL SUB AND DUP10 PUSH1 0x1 PUSH1 0x1 PUSH1 0xA0 SHL SUB AND PUSH32 0xB57378559821141C0E7AE964206B7523234D19E5783ADE99B3D665EEE495C997 DUP11 DUP11 DUP6 DUP9 PUSH1 0x40 ADD MLOAD DUP10 PUSH1 0x60 ADD MLOAD PUSH1 0x40 MLOAD PUSH2 0x123F SWAP6 SWAP5 SWAP4 SWAP3 SWAP2 SWAP1 PUSH2 0x49B4 JUMP JUMPDEST PUSH1 0x40 MLOAD DUP1 SWAP2 SUB SWAP1 LOG3 POP POP POP PUSH2 0x142A JUMP JUMPDEST PUSH1 0x1 PUSH1 0x1 PUSH1 0xE0 SHL SUB NOT DUP2 AND PUSH32 0x82DA2B7300000000000000000000000000000000000000000000000000000000 EQ ISZERO PUSH2 0x1306 JUMPI CALLER PUSH1 0x1 PUSH1 0x1 PUSH1 0xA0 SHL SUB PUSH32 0x0 AND EQ PUSH2 0x12C9 JUMPI PUSH1 0x40 MLOAD PUSH3 0x461BCD PUSH1 0xE5 SHL DUP2 MSTORE PUSH1 0x4 ADD PUSH2 0x206 SWAP1 PUSH2 0x4DE4 JUMP JUMPDEST PUSH2 0x12D1 PUSH2 0x3D3A JUMP JUMPDEST DUP4 DUP1 PUSH1 0x20 ADD SWAP1 MLOAD DUP2 ADD SWAP1 PUSH2 0x12E5 SWAP2 SWAP1 PUSH2 0x4448 JUMP JUMPDEST SWAP1 POP DUP1 SWAP2 POP POP PUSH2 0x1300 DUP8 DUP8 DUP8 DUP5 PUSH1 0x0 ADD MLOAD DUP6 PUSH1 0x20 ADD MLOAD PUSH2 0x25D5 JUMP JUMPDEST POP PUSH2 0x142A JUMP JUMPDEST PUSH1 0x1 PUSH1 0x1 PUSH1 0xE0 SHL SUB NOT DUP2 AND PUSH32 0x5C0BF25900000000000000000000000000000000000000000000000000000000 EQ ISZERO PUSH2 0x1393 JUMPI CALLER ADDRESS EQ PUSH2 0x1357 JUMPI PUSH1 0x40 MLOAD PUSH3 0x461BCD PUSH1 0xE5 SHL DUP2 MSTORE PUSH1 0x4 ADD PUSH2 0x206 SWAP1 PUSH2 0x50E6 JUMP JUMPDEST PUSH2 0x135F PUSH2 0x3D54 JUMP JUMPDEST DUP4 DUP1 PUSH1 0x20 ADD SWAP1 MLOAD DUP2 ADD SWAP1 PUSH2 0x1373 SWAP2 SWAP1 PUSH2 0x44E1 JUMP JUMPDEST SWAP1 POP DUP1 SWAP2 POP POP PUSH2 0x1300 DUP8 DUP8 DUP8 DUP5 PUSH1 0x0 ADD MLOAD DUP6 PUSH1 0x20 ADD MLOAD DUP7 PUSH1 0x40 ADD MLOAD PUSH2 0x2A22 JUMP JUMPDEST PUSH1 0x1 PUSH1 0x1 PUSH1 0xE0 SHL SUB NOT DUP2 AND PUSH32 0xC8C323F900000000000000000000000000000000000000000000000000000000 EQ ISZERO PUSH2 0x1412 JUMPI CALLER PUSH1 0x1 PUSH1 0x1 PUSH1 0xA0 SHL SUB PUSH32 0x0 AND EQ PUSH2 0x140D JUMPI PUSH1 0x40 MLOAD PUSH3 0x461BCD PUSH1 0xE5 SHL DUP2 MSTORE PUSH1 0x4 ADD PUSH2 0x206 SWAP1 PUSH2 0x4C63 JUMP JUMPDEST PUSH2 0x142A JUMP JUMPDEST PUSH1 0x40 MLOAD PUSH3 0x461BCD PUSH1 0xE5 SHL DUP2 MSTORE PUSH1 0x4 ADD PUSH2 0x206 SWAP1 PUSH2 0x4E89 JUMP JUMPDEST POP PUSH4 0xBC197C81 PUSH1 0xE0 SHL SWAP7 SWAP6 POP POP POP POP POP POP JUMP JUMPDEST PUSH1 0x60 DUP4 DUP2 DUP2 PUSH8 0xFFFFFFFFFFFFFFFF DUP2 GT DUP1 ISZERO PUSH2 0x1458 JUMPI PUSH1 0x0 DUP1 REVERT JUMPDEST POP PUSH1 0x40 MLOAD SWAP1 DUP1 DUP3 MSTORE DUP1 PUSH1 0x20 MUL PUSH1 0x20 ADD DUP3 ADD PUSH1 0x40 MSTORE DUP1 ISZERO PUSH2 0x1482 JUMPI DUP2 PUSH1 0x20 ADD PUSH1 0x20 DUP3 MUL DUP1 CALLDATASIZE DUP4 CALLDATACOPY ADD SWAP1 POP JUMPDEST POP SWAP1 POP PUSH1 0x0 JUMPDEST DUP3 DUP2 LT ISZERO PUSH2 0xC87 JUMPI PUSH1 0x0 PUSH32 0x0 PUSH1 0x1 PUSH1 0x1 PUSH1 0xA0 SHL SUB AND PUSH3 0xFDD58E ADDRESS DUP12 DUP12 DUP7 DUP2 DUP2 LT PUSH2 0x14CD JUMPI INVALID JUMPDEST SWAP1 POP PUSH1 0x20 MUL ADD CALLDATALOAD PUSH1 0x40 MLOAD DUP4 PUSH4 0xFFFFFFFF AND PUSH1 0xE0 SHL DUP2 MSTORE PUSH1 0x4 ADD PUSH2 0x14F1 SWAP3 SWAP2 SWAP1 PUSH2 0x4896 JUMP JUMPDEST PUSH1 0x20 PUSH1 0x40 MLOAD DUP1 DUP4 SUB DUP2 DUP7 DUP1 EXTCODESIZE ISZERO DUP1 ISZERO PUSH2 0x1509 JUMPI PUSH1 0x0 DUP1 REVERT JUMPDEST POP GAS STATICCALL ISZERO DUP1 ISZERO PUSH2 0x151D JUMPI RETURNDATASIZE PUSH1 0x0 DUP1 RETURNDATACOPY RETURNDATASIZE PUSH1 0x0 REVERT JUMPDEST POP POP POP POP PUSH1 0x40 MLOAD RETURNDATASIZE PUSH1 0x1F NOT PUSH1 0x1F DUP3 ADD AND DUP3 ADD DUP1 PUSH1 0x40 MSTORE POP DUP2 ADD SWAP1 PUSH2 0x1541 SWAP2 SWAP1 PUSH2 0x46FF JUMP JUMPDEST SWAP1 POP PUSH2 0x1598 DUP10 DUP10 DUP5 DUP2 DUP2 LT PUSH2 0x1552 JUMPI INVALID JUMPDEST SWAP1 POP PUSH1 0x20 MUL ADD CALLDATALOAD DUP9 DUP9 DUP6 DUP2 DUP2 LT PUSH2 0x1565 JUMPI INVALID JUMPDEST SWAP1 POP PUSH1 0x20 MUL ADD CALLDATALOAD PUSH1 0x7 PUSH1 0x0 DUP14 DUP14 DUP9 DUP2 DUP2 LT PUSH2 0x157C JUMPI INVALID JUMPDEST SWAP1 POP PUSH1 0x20 MUL ADD CALLDATALOAD DUP2 MSTORE PUSH1 0x20 ADD SWAP1 DUP2 MSTORE PUSH1 0x20 ADD PUSH1 0x0 KECCAK256 SLOAD DUP5 PUSH2 0xF0D JUMP JUMPDEST DUP4 DUP4 DUP2 MLOAD DUP2 LT PUSH2 0x15A4 JUMPI INVALID JUMPDEST PUSH1 0x20 SWAP1 DUP2 MUL SWAP2 SWAP1 SWAP2 ADD ADD MSTORE POP PUSH1 0x1 ADD PUSH2 0x1488 JUMP JUMPDEST PUSH1 0x0 DUP1 PUSH32 0x0 ISZERO PUSH2 0x16E3 JUMPI PUSH1 0x40 MLOAD PUSH4 0x152A902D PUSH1 0xE1 SHL DUP2 MSTORE PUSH1 0x1 PUSH1 0x1 PUSH1 0xA0 SHL SUB PUSH32 0x0 AND SWAP1 PUSH4 0x2A55205A SWAP1 PUSH2 0x162F SWAP1 DUP8 SWAP1 DUP8 SWAP1 PUSH1 0x4 ADD PUSH2 0x515D JUMP JUMPDEST PUSH1 0x40 DUP1 MLOAD DUP1 DUP4 SUB DUP2 DUP7 DUP1 EXTCODESIZE ISZERO DUP1 ISZERO PUSH2 0x1646 JUMPI PUSH1 0x0 DUP1 REVERT JUMPDEST POP GAS STATICCALL SWAP3 POP POP POP DUP1 ISZERO PUSH2 0x1676 JUMPI POP PUSH1 0x40 DUP1 MLOAD PUSH1 0x1F RETURNDATASIZE SWAP1 DUP2 ADD PUSH1 0x1F NOT AND DUP3 ADD SWAP1 SWAP3 MSTORE PUSH2 0x1673 SWAP2 DUP2 ADD SWAP1 PUSH2 0x41B6 JUMP JUMPDEST PUSH1 0x1 JUMPDEST PUSH2 0x16AC JUMPI PUSH1 0x5 SLOAD PUSH1 0x4 SLOAD PUSH1 0x1 PUSH1 0x1 PUSH1 0xA0 SHL SUB SWAP1 SWAP2 AND SWAP1 PUSH2 0x2710 SWAP1 PUSH2 0x169B SWAP1 DUP7 SWAP1 PUSH2 0x200A JUMP JUMPDEST DUP2 PUSH2 0x16A2 JUMPI INVALID JUMPDEST DIV SWAP2 POP SWAP2 POP PUSH2 0x1704 JUMP JUMPDEST PUSH1 0x0 PUSH2 0x2710 PUSH2 0x16BD DUP8 PUSH2 0x9C4 PUSH2 0x200A JUMP JUMPDEST DUP2 PUSH2 0x16C4 JUMPI INVALID JUMPDEST DIV SWAP1 POP DUP3 DUP2 DUP4 GT PUSH2 0x16D5 JUMPI DUP3 PUSH2 0x16D7 JUMP JUMPDEST DUP2 JUMPDEST SWAP5 POP SWAP5 POP POP POP POP PUSH2 0x1704 JUMP JUMPDEST PUSH1 0x5 SLOAD PUSH1 0x4 SLOAD PUSH1 0x1 PUSH1 0x1 PUSH1 0xA0 SHL SUB SWAP1 SWAP2 AND SWAP1 PUSH2 0x2710 SWAP1 PUSH2 0x169B SWAP1 DUP7 SWAP1 PUSH2 0x200A JUMP JUMPDEST SWAP3 POP SWAP3 SWAP1 POP JUMP JUMPDEST PUSH1 0x60 TIMESTAMP DUP6 LT ISZERO PUSH2 0x172D JUMPI PUSH1 0x40 MLOAD PUSH3 0x461BCD PUSH1 0xE5 SHL DUP2 MSTORE PUSH1 0x4 ADD PUSH2 0x206 SWAP1 PUSH2 0x4AE2 JUMP JUMPDEST PUSH1 0x0 DUP9 MLOAD GT PUSH2 0x174E JUMPI PUSH1 0x40 MLOAD PUSH3 0x461BCD PUSH1 0xE5 SHL DUP2 MSTORE PUSH1 0x4 ADD PUSH2 0x206 SWAP1 PUSH2 0x4D76 JUMP JUMPDEST PUSH2 0x177A PUSH32 0x0 CALLER ADDRESS DUP10 PUSH2 0x2EA3 JUMP JUMPDEST PUSH1 0x0 PUSH1 0x1 PUSH1 0x1 PUSH1 0xA0 SHL SUB DUP6 AND ISZERO PUSH2 0x1791 JUMPI DUP5 PUSH2 0x1793 JUMP JUMPDEST CALLER JUMPDEST DUP5 MLOAD DUP5 MLOAD SWAP2 SWAP3 POP DUP9 SWAP2 DUP2 EQ PUSH2 0x17BA JUMPI PUSH1 0x40 MLOAD PUSH3 0x461BCD PUSH1 0xE5 SHL DUP2 MSTORE PUSH1 0x4 ADD PUSH2 0x206 SWAP1 PUSH2 0x4F9C JUMP JUMPDEST PUSH1 0x0 JUMPDEST DUP2 DUP2 LT ISZERO PUSH2 0x18C0 JUMPI PUSH1 0x0 DUP7 DUP3 DUP2 MLOAD DUP2 LT PUSH2 0x17D3 JUMPI INVALID JUMPDEST PUSH1 0x20 MUL PUSH1 0x20 ADD ADD MLOAD GT ISZERO PUSH2 0x18B8 JUMPI PUSH2 0x1807 DUP7 DUP3 DUP2 MLOAD DUP2 LT PUSH2 0x17F0 JUMPI INVALID JUMPDEST PUSH1 0x20 MUL PUSH1 0x20 ADD ADD MLOAD DUP5 PUSH2 0x2255 SWAP1 SWAP2 SWAP1 PUSH4 0xFFFFFFFF AND JUMP JUMPDEST SWAP3 POP PUSH2 0x187B PUSH2 0x1834 PUSH2 0x2710 DUP9 DUP5 DUP2 MLOAD DUP2 LT PUSH2 0x181E JUMPI INVALID JUMPDEST PUSH1 0x20 MUL PUSH1 0x20 ADD ADD MLOAD PUSH2 0x200A SWAP1 SWAP2 SWAP1 PUSH4 0xFFFFFFFF AND JUMP JUMPDEST PUSH1 0x8 PUSH1 0x0 DUP11 DUP6 DUP2 MLOAD DUP2 LT PUSH2 0x1844 JUMPI INVALID JUMPDEST PUSH1 0x20 MUL PUSH1 0x20 ADD ADD MLOAD PUSH1 0x1 PUSH1 0x1 PUSH1 0xA0 SHL SUB AND PUSH1 0x1 PUSH1 0x1 PUSH1 0xA0 SHL SUB AND DUP2 MSTORE PUSH1 0x20 ADD SWAP1 DUP2 MSTORE PUSH1 0x20 ADD PUSH1 0x0 KECCAK256 SLOAD PUSH2 0x2080 SWAP1 SWAP2 SWAP1 PUSH4 0xFFFFFFFF AND JUMP JUMPDEST PUSH1 0x8 PUSH1 0x0 DUP10 DUP5 DUP2 MLOAD DUP2 LT PUSH2 0x188B JUMPI INVALID JUMPDEST PUSH1 0x20 MUL PUSH1 0x20 ADD ADD MLOAD PUSH1 0x1 PUSH1 0x1 PUSH1 0xA0 SHL SUB AND PUSH1 0x1 PUSH1 0x1 PUSH1 0xA0 SHL SUB AND DUP2 MSTORE PUSH1 0x20 ADD SWAP1 DUP2 MSTORE PUSH1 0x20 ADD PUSH1 0x0 KECCAK256 DUP2 SWAP1 SSTORE POP JUMPDEST PUSH1 0x1 ADD PUSH2 0x17BD JUMP JUMPDEST POP PUSH1 0x60 PUSH2 0x18D0 DUP13 DUP13 DUP6 DUP13 DUP9 PUSH2 0x3026 JUMP JUMPDEST SWAP1 POP DUP4 PUSH1 0x1 PUSH1 0x1 PUSH1 0xA0 SHL SUB AND CALLER PUSH1 0x1 PUSH1 0x1 PUSH1 0xA0 SHL SUB AND PUSH32 0x28FB4C13C000D11E44BA9E45029F385ED02FFEAE62DC5704E2C0706A4DAB5ECB DUP15 DUP15 DUP6 DUP13 DUP13 PUSH1 0x40 MLOAD PUSH2 0x191D SWAP6 SWAP5 SWAP4 SWAP3 SWAP2 SWAP1 PUSH2 0x49B4 JUMP JUMPDEST PUSH1 0x40 MLOAD DUP1 SWAP2 SUB SWAP1 LOG3 SWAP12 SWAP11 POP POP POP POP POP POP POP POP POP POP POP JUMP JUMPDEST PUSH1 0x5 SLOAD PUSH1 0x1 PUSH1 0x1 PUSH1 0xA0 SHL SUB AND SWAP1 JUMP JUMPDEST PUSH1 0x1 PUSH1 0x1 PUSH1 0xA0 SHL SUB SWAP2 DUP3 AND PUSH1 0x0 SWAP1 DUP2 MSTORE PUSH1 0x2 PUSH1 0x20 SWAP1 DUP2 MSTORE PUSH1 0x40 DUP1 DUP4 KECCAK256 SWAP4 SWAP1 SWAP5 AND DUP3 MSTORE SWAP2 SWAP1 SWAP2 MSTORE KECCAK256 SLOAD PUSH1 0xFF AND SWAP1 JUMP JUMPDEST PUSH1 0x40 DUP1 MLOAD PUSH1 0x1 DUP1 DUP3 MSTORE DUP2 DUP4 ADD SWAP1 SWAP3 MSTORE PUSH1 0x0 SWAP2 PUSH1 0x60 SWAP2 SWAP1 PUSH1 0x20 DUP1 DUP4 ADD SWAP1 DUP1 CALLDATASIZE DUP4 CALLDATACOPY POP POP PUSH1 0x40 DUP1 MLOAD PUSH1 0x1 DUP1 DUP3 MSTORE DUP2 DUP4 ADD SWAP1 SWAP3 MSTORE SWAP3 SWAP4 POP PUSH1 0x60 SWAP3 SWAP2 POP PUSH1 0x20 DUP1 DUP4 ADD SWAP1 DUP1 CALLDATASIZE DUP4 CALLDATACOPY ADD SWAP1 POP POP SWAP1 POP DUP6 DUP3 PUSH1 0x0 DUP2 MLOAD DUP2 LT PUSH2 0x19C8 JUMPI INVALID JUMPDEST PUSH1 0x20 MUL PUSH1 0x20 ADD ADD DUP2 DUP2 MSTORE POP POP DUP5 DUP2 PUSH1 0x0 DUP2 MLOAD DUP2 LT PUSH2 0x19E2 JUMPI INVALID JUMPDEST PUSH1 0x20 MUL PUSH1 0x20 ADD ADD DUP2 DUP2 MSTORE POP POP PUSH2 0x19FB DUP9 DUP9 DUP5 DUP5 DUP9 PUSH2 0x10CF JUMP JUMPDEST PUSH1 0x1 PUSH1 0x1 PUSH1 0xE0 SHL SUB NOT AND PUSH4 0xBC197C81 PUSH1 0xE0 SHL EQ PUSH2 0x1A2A JUMPI PUSH1 0x40 MLOAD PUSH3 0x461BCD PUSH1 0xE5 SHL DUP2 MSTORE PUSH1 0x4 ADD PUSH2 0x206 SWAP1 PUSH2 0x4EF7 JUMP JUMPDEST POP PUSH4 0xF23A6E61 PUSH1 0xE0 SHL SWAP8 SWAP7 POP POP POP POP POP POP POP JUMP JUMPDEST CALLER PUSH1 0x1 PUSH1 0x1 PUSH1 0xA0 SHL SUB DUP7 AND EQ DUP1 PUSH2 0x1A5A JUMPI POP PUSH2 0x1A5A DUP6 CALLER PUSH2 0x1943 JUMP JUMPDEST PUSH2 0x1A95 JUMPI PUSH1 0x40 MLOAD PUSH3 0x461BCD PUSH1 0xE5 SHL DUP2 MSTORE PUSH1 0x4 ADD DUP1 DUP1 PUSH1 0x20 ADD DUP3 DUP2 SUB DUP3 MSTORE PUSH1 0x2A DUP2 MSTORE PUSH1 0x20 ADD DUP1 PUSH2 0x5267 PUSH1 0x2A SWAP2 CODECOPY PUSH1 0x40 ADD SWAP2 POP POP PUSH1 0x40 MLOAD DUP1 SWAP2 SUB SWAP1 REVERT JUMPDEST PUSH1 0x1 PUSH1 0x1 PUSH1 0xA0 SHL SUB DUP5 AND PUSH2 0x1ADA JUMPI PUSH1 0x40 MLOAD PUSH3 0x461BCD PUSH1 0xE5 SHL DUP2 MSTORE PUSH1 0x4 ADD DUP1 DUP1 PUSH1 0x20 ADD DUP3 DUP2 SUB DUP3 MSTORE PUSH1 0x2B DUP2 MSTORE PUSH1 0x20 ADD DUP1 PUSH2 0x523C PUSH1 0x2B SWAP2 CODECOPY PUSH1 0x40 ADD SWAP2 POP POP PUSH1 0x40 MLOAD DUP1 SWAP2 SUB SWAP1 REVERT JUMPDEST PUSH2 0x1AE6 DUP6 DUP6 DUP6 DUP6 PUSH2 0x32FA JUMP JUMPDEST PUSH2 0x8ED DUP6 DUP6 DUP6 DUP6 GAS DUP7 PUSH2 0x33DB JUMP JUMPDEST PUSH1 0x0 DUP1 DUP4 GT DUP1 ISZERO PUSH2 0x1B05 JUMPI POP PUSH1 0x0 DUP3 GT JUMPDEST PUSH2 0x1B21 JUMPI PUSH1 0x40 MLOAD PUSH3 0x461BCD PUSH1 0xE5 SHL DUP2 MSTORE PUSH1 0x4 ADD PUSH2 0x206 SWAP1 PUSH2 0x500A JUMP JUMPDEST PUSH1 0x0 PUSH2 0x1B39 PUSH2 0x3E8 PUSH2 0x1B33 DUP7 DUP9 PUSH2 0x200A JUMP JUMPDEST SWAP1 PUSH2 0x200A JUMP JUMPDEST SWAP1 POP PUSH1 0x0 PUSH2 0x1B6B PUSH32 0x0 PUSH2 0x1B33 DUP7 DUP10 PUSH2 0x2255 JUMP JUMPDEST SWAP1 POP PUSH2 0xC87 DUP3 DUP3 PUSH2 0x354D JUMP JUMPDEST DUP1 MLOAD DUP3 MLOAD EQ PUSH2 0x1BB7 JUMPI PUSH1 0x40 MLOAD PUSH3 0x461BCD PUSH1 0xE5 SHL DUP2 MSTORE PUSH1 0x4 ADD DUP1 DUP1 PUSH1 0x20 ADD DUP3 DUP2 SUB DUP3 MSTORE PUSH1 0x35 DUP2 MSTORE PUSH1 0x20 ADD DUP1 PUSH2 0x52C2 PUSH1 0x35 SWAP2 CODECOPY PUSH1 0x40 ADD SWAP2 POP POP PUSH1 0x40 MLOAD DUP1 SWAP2 SUB SWAP1 REVERT JUMPDEST DUP2 MLOAD PUSH1 0x0 JUMPDEST DUP2 DUP2 LT ISZERO PUSH2 0x1D31 JUMPI PUSH2 0x1C33 DUP4 DUP3 DUP2 MLOAD DUP2 LT PUSH2 0x1BD3 JUMPI INVALID JUMPDEST PUSH1 0x20 MUL PUSH1 0x20 ADD ADD MLOAD PUSH1 0x1 PUSH1 0x0 DUP10 PUSH1 0x1 PUSH1 0x1 PUSH1 0xA0 SHL SUB AND PUSH1 0x1 PUSH1 0x1 PUSH1 0xA0 SHL SUB AND DUP2 MSTORE PUSH1 0x20 ADD SWAP1 DUP2 MSTORE PUSH1 0x20 ADD PUSH1 0x0 KECCAK256 PUSH1 0x0 DUP8 DUP6 DUP2 MLOAD DUP2 LT PUSH2 0x1C0E JUMPI INVALID JUMPDEST PUSH1 0x20 MUL PUSH1 0x20 ADD ADD MLOAD DUP2 MSTORE PUSH1 0x20 ADD SWAP1 DUP2 MSTORE PUSH1 0x20 ADD PUSH1 0x0 KECCAK256 SLOAD PUSH2 0x2255 SWAP1 SWAP2 SWAP1 PUSH4 0xFFFFFFFF AND JUMP JUMPDEST PUSH1 0x1 PUSH1 0x1 PUSH1 0xA0 SHL SUB DUP8 AND PUSH1 0x0 SWAP1 DUP2 MSTORE PUSH1 0x1 PUSH1 0x20 MSTORE PUSH1 0x40 DUP2 KECCAK256 DUP7 MLOAD SWAP1 SWAP2 SWAP1 DUP8 SWAP1 DUP6 SWAP1 DUP2 LT PUSH2 0x1C5C JUMPI INVALID JUMPDEST PUSH1 0x20 MUL PUSH1 0x20 ADD ADD MLOAD DUP2 MSTORE PUSH1 0x20 ADD SWAP1 DUP2 MSTORE PUSH1 0x20 ADD PUSH1 0x0 KECCAK256 DUP2 SWAP1 SSTORE POP PUSH2 0x1CE5 DUP4 DUP3 DUP2 MLOAD DUP2 LT PUSH2 0x1C85 JUMPI INVALID JUMPDEST PUSH1 0x20 MUL PUSH1 0x20 ADD ADD MLOAD PUSH1 0x1 PUSH1 0x0 DUP9 PUSH1 0x1 PUSH1 0x1 PUSH1 0xA0 SHL SUB AND PUSH1 0x1 PUSH1 0x1 PUSH1 0xA0 SHL SUB AND DUP2 MSTORE PUSH1 0x20 ADD SWAP1 DUP2 MSTORE PUSH1 0x20 ADD PUSH1 0x0 KECCAK256 PUSH1 0x0 DUP8 DUP6 DUP2 MLOAD DUP2 LT PUSH2 0x1CC0 JUMPI INVALID JUMPDEST PUSH1 0x20 MUL PUSH1 0x20 ADD ADD MLOAD DUP2 MSTORE PUSH1 0x20 ADD SWAP1 DUP2 MSTORE PUSH1 0x20 ADD PUSH1 0x0 KECCAK256 SLOAD PUSH2 0x2080 SWAP1 SWAP2 SWAP1 PUSH4 0xFFFFFFFF AND JUMP JUMPDEST PUSH1 0x1 PUSH1 0x1 PUSH1 0xA0 SHL SUB DUP7 AND PUSH1 0x0 SWAP1 DUP2 MSTORE PUSH1 0x1 PUSH1 0x20 MSTORE PUSH1 0x40 DUP2 KECCAK256 DUP7 MLOAD SWAP1 SWAP2 SWAP1 DUP8 SWAP1 DUP6 SWAP1 DUP2 LT PUSH2 0x1D0E JUMPI INVALID JUMPDEST PUSH1 0x20 SWAP1 DUP2 MUL SWAP2 SWAP1 SWAP2 ADD DUP2 ADD MLOAD DUP3 MSTORE DUP2 ADD SWAP2 SWAP1 SWAP2 MSTORE PUSH1 0x40 ADD PUSH1 0x0 KECCAK256 SSTORE PUSH1 0x1 ADD PUSH2 0x1BBC JUMP JUMPDEST POP DUP4 PUSH1 0x1 PUSH1 0x1 PUSH1 0xA0 SHL SUB AND DUP6 PUSH1 0x1 PUSH1 0x1 PUSH1 0xA0 SHL SUB AND CALLER PUSH1 0x1 PUSH1 0x1 PUSH1 0xA0 SHL SUB AND PUSH32 0x4A39DC06D4C0DBC64B70AF90FD698A233A518AA5D07E595D983B8C0526C8F7FB DUP7 DUP7 PUSH1 0x40 MLOAD DUP1 DUP1 PUSH1 0x20 ADD DUP1 PUSH1 0x20 ADD DUP4 DUP2 SUB DUP4 MSTORE DUP6 DUP2 DUP2 MLOAD DUP2 MSTORE PUSH1 0x20 ADD SWAP2 POP DUP1 MLOAD SWAP1 PUSH1 0x20 ADD SWAP1 PUSH1 0x20 MUL DUP1 DUP4 DUP4 PUSH1 0x0 JUMPDEST DUP4 DUP2 LT ISZERO PUSH2 0x1DB7 JUMPI DUP2 DUP2 ADD MLOAD DUP4 DUP3 ADD MSTORE PUSH1 0x20 ADD PUSH2 0x1D9F JUMP JUMPDEST POP POP POP POP SWAP1 POP ADD DUP4 DUP2 SUB DUP3 MSTORE DUP5 DUP2 DUP2 MLOAD DUP2 MSTORE PUSH1 0x20 ADD SWAP2 POP DUP1 MLOAD SWAP1 PUSH1 0x20 ADD SWAP1 PUSH1 0x20 MUL DUP1 DUP4 DUP4 PUSH1 0x0 JUMPDEST DUP4 DUP2 LT ISZERO PUSH2 0x1DF6 JUMPI DUP2 DUP2 ADD MLOAD DUP4 DUP3 ADD MSTORE PUSH1 0x20 ADD PUSH2 0x1DDE JUMP JUMPDEST POP POP POP POP SWAP1 POP ADD SWAP5 POP POP POP POP POP PUSH1 0x40 MLOAD DUP1 SWAP2 SUB SWAP1 LOG4 POP POP POP POP POP JUMP JUMPDEST PUSH2 0x1E24 DUP6 PUSH1 0x1 PUSH1 0x1 PUSH1 0xA0 SHL SUB AND PUSH2 0x3593 JUMP JUMPDEST ISZERO PUSH2 0x2002 JUMPI PUSH1 0x0 DUP6 PUSH1 0x1 PUSH1 0x1 PUSH1 0xA0 SHL SUB AND PUSH4 0xBC197C81 DUP5 CALLER DUP11 DUP10 DUP10 DUP9 PUSH1 0x40 MLOAD DUP8 PUSH4 0xFFFFFFFF AND PUSH1 0xE0 SHL DUP2 MSTORE PUSH1 0x4 ADD DUP1 DUP7 PUSH1 0x1 PUSH1 0x1 PUSH1 0xA0 SHL SUB AND DUP2 MSTORE PUSH1 0x20 ADD DUP6 PUSH1 0x1 PUSH1 0x1 PUSH1 0xA0 SHL SUB AND DUP2 MSTORE PUSH1 0x20 ADD DUP1 PUSH1 0x20 ADD DUP1 PUSH1 0x20 ADD DUP1 PUSH1 0x20 ADD DUP5 DUP2 SUB DUP5 MSTORE DUP8 DUP2 DUP2 MLOAD DUP2 MSTORE PUSH1 0x20 ADD SWAP2 POP DUP1 MLOAD SWAP1 PUSH1 0x20 ADD SWAP1 PUSH1 0x20 MUL DUP1 DUP4 DUP4 PUSH1 0x0 JUMPDEST DUP4 DUP2 LT ISZERO PUSH2 0x1EB5 JUMPI DUP2 DUP2 ADD MLOAD DUP4 DUP3 ADD MSTORE PUSH1 0x20 ADD PUSH2 0x1E9D JUMP JUMPDEST POP POP POP POP SWAP1 POP ADD DUP5 DUP2 SUB DUP4 MSTORE DUP7 DUP2 DUP2 MLOAD DUP2 MSTORE PUSH1 0x20 ADD SWAP2 POP DUP1 MLOAD SWAP1 PUSH1 0x20 ADD SWAP1 PUSH1 0x20 MUL DUP1 DUP4 DUP4 PUSH1 0x0 JUMPDEST DUP4 DUP2 LT ISZERO PUSH2 0x1EF4 JUMPI DUP2 DUP2 ADD MLOAD DUP4 DUP3 ADD MSTORE PUSH1 0x20 ADD PUSH2 0x1EDC JUMP JUMPDEST POP POP POP POP SWAP1 POP ADD DUP5 DUP2 SUB DUP3 MSTORE DUP6 DUP2 DUP2 MLOAD DUP2 MSTORE PUSH1 0x20 ADD SWAP2 POP DUP1 MLOAD SWAP1 PUSH1 0x20 ADD SWAP1 DUP1 DUP4 DUP4 PUSH1 0x0 JUMPDEST DUP4 DUP2 LT ISZERO PUSH2 0x1F30 JUMPI DUP2 DUP2 ADD MLOAD DUP4 DUP3 ADD MSTORE PUSH1 0x20 ADD PUSH2 0x1F18 JUMP JUMPDEST POP POP POP POP SWAP1 POP SWAP1 DUP2 ADD SWAP1 PUSH1 0x1F AND DUP1 ISZERO PUSH2 0x1F5D JUMPI DUP1 DUP3 SUB DUP1 MLOAD PUSH1 0x1 DUP4 PUSH1 0x20 SUB PUSH2 0x100 EXP SUB NOT AND DUP2 MSTORE PUSH1 0x20 ADD SWAP2 POP JUMPDEST POP SWAP9 POP POP POP POP POP POP POP POP POP PUSH1 0x20 PUSH1 0x40 MLOAD DUP1 DUP4 SUB DUP2 PUSH1 0x0 DUP9 DUP1 EXTCODESIZE ISZERO DUP1 ISZERO PUSH2 0x1F82 JUMPI PUSH1 0x0 DUP1 REVERT JUMPDEST POP DUP8 CALL ISZERO DUP1 ISZERO PUSH2 0x1F96 JUMPI RETURNDATASIZE PUSH1 0x0 DUP1 RETURNDATACOPY RETURNDATASIZE PUSH1 0x0 REVERT JUMPDEST POP POP POP POP POP PUSH1 0x40 MLOAD RETURNDATASIZE PUSH1 0x20 DUP2 LT ISZERO PUSH2 0x1FAD JUMPI PUSH1 0x0 DUP1 REVERT JUMPDEST POP MLOAD SWAP1 POP PUSH1 0x1 PUSH1 0x1 PUSH1 0xE0 SHL SUB NOT DUP2 AND PUSH4 0xBC197C81 PUSH1 0xE0 SHL EQ PUSH2 0x2000 JUMPI PUSH1 0x40 MLOAD PUSH3 0x461BCD PUSH1 0xE5 SHL DUP2 MSTORE PUSH1 0x4 ADD DUP1 DUP1 PUSH1 0x20 ADD DUP3 DUP2 SUB DUP3 MSTORE PUSH1 0x3F DUP2 MSTORE PUSH1 0x20 ADD DUP1 PUSH2 0x53E2 PUSH1 0x3F SWAP2 CODECOPY PUSH1 0x40 ADD SWAP2 POP POP PUSH1 0x40 MLOAD DUP1 SWAP2 SUB SWAP1 REVERT JUMPDEST POP JUMPDEST POP POP POP POP POP POP JUMP JUMPDEST PUSH1 0x0 DUP3 PUSH2 0x2019 JUMPI POP PUSH1 0x0 PUSH2 0x4B4 JUMP JUMPDEST DUP3 DUP3 MUL DUP3 DUP5 DUP3 DUP2 PUSH2 0x2026 JUMPI INVALID JUMPDEST DIV EQ PUSH2 0x2079 JUMPI PUSH1 0x40 DUP1 MLOAD PUSH3 0x461BCD PUSH1 0xE5 SHL DUP2 MSTORE PUSH1 0x20 PUSH1 0x4 DUP3 ADD MSTORE PUSH1 0x16 PUSH1 0x24 DUP3 ADD MSTORE PUSH32 0x536166654D617468236D756C3A204F564552464C4F5700000000000000000000 PUSH1 0x44 DUP3 ADD MSTORE SWAP1 MLOAD SWAP1 DUP2 SWAP1 SUB PUSH1 0x64 ADD SWAP1 REVERT JUMPDEST SWAP4 SWAP3 POP POP POP JUMP JUMPDEST PUSH1 0x0 DUP3 DUP3 ADD DUP4 DUP2 LT ISZERO PUSH2 0x2079 JUMPI PUSH1 0x40 DUP1 MLOAD PUSH3 0x461BCD PUSH1 0xE5 SHL DUP2 MSTORE PUSH1 0x20 PUSH1 0x4 DUP3 ADD MSTORE PUSH1 0x16 PUSH1 0x24 DUP3 ADD MSTORE PUSH32 0x536166654D617468236164643A204F564552464C4F5700000000000000000000 PUSH1 0x44 DUP3 ADD MSTORE SWAP1 MLOAD SWAP1 DUP2 SWAP1 SUB PUSH1 0x64 ADD SWAP1 REVERT JUMPDEST PUSH1 0x40 DUP1 MLOAD PUSH1 0x1 PUSH1 0x1 PUSH1 0xA0 SHL SUB DUP5 DUP2 AND PUSH1 0x24 DUP4 ADD MSTORE PUSH1 0x44 DUP1 DUP4 ADD DUP6 SWAP1 MSTORE DUP4 MLOAD DUP1 DUP5 SUB SWAP1 SWAP2 ADD DUP2 MSTORE PUSH1 0x64 SWAP1 SWAP3 ADD DUP4 MSTORE PUSH1 0x20 DUP3 ADD DUP1 MLOAD PUSH28 0xFFFFFFFFFFFFFFFFFFFFFFFFFFFFFFFFFFFFFFFFFFFFFFFFFFFFFFFF AND PUSH32 0xA9059CBB00000000000000000000000000000000000000000000000000000000 OR DUP2 MSTORE SWAP3 MLOAD DUP3 MLOAD PUSH1 0x0 SWAP5 PUSH1 0x60 SWAP5 SWAP4 DUP10 AND SWAP4 SWAP3 SWAP2 DUP3 SWAP2 SWAP1 DUP1 DUP4 DUP4 JUMPDEST PUSH1 0x20 DUP4 LT PUSH2 0x2185 JUMPI DUP1 MLOAD DUP3 MSTORE PUSH1 0x1F NOT SWAP1 SWAP3 ADD SWAP2 PUSH1 0x20 SWAP2 DUP3 ADD SWAP2 ADD PUSH2 0x2166 JUMP JUMPDEST PUSH1 0x1 DUP4 PUSH1 0x20 SUB PUSH2 0x100 EXP SUB DUP1 NOT DUP3 MLOAD AND DUP2 DUP5 MLOAD AND DUP1 DUP3 OR DUP6 MSTORE POP POP POP POP POP POP SWAP1 POP ADD SWAP2 POP POP PUSH1 0x0 PUSH1 0x40 MLOAD DUP1 DUP4 SUB DUP2 PUSH1 0x0 DUP7 GAS CALL SWAP2 POP POP RETURNDATASIZE DUP1 PUSH1 0x0 DUP2 EQ PUSH2 0x21E7 JUMPI PUSH1 0x40 MLOAD SWAP2 POP PUSH1 0x1F NOT PUSH1 0x3F RETURNDATASIZE ADD AND DUP3 ADD PUSH1 0x40 MSTORE RETURNDATASIZE DUP3 MSTORE RETURNDATASIZE PUSH1 0x0 PUSH1 0x20 DUP5 ADD RETURNDATACOPY PUSH2 0x21EC JUMP JUMPDEST PUSH1 0x60 SWAP2 POP JUMPDEST POP SWAP2 POP SWAP2 POP DUP2 DUP1 ISZERO PUSH2 0x221A JUMPI POP DUP1 MLOAD ISZERO DUP1 PUSH2 0x221A JUMPI POP DUP1 DUP1 PUSH1 0x20 ADD SWAP1 MLOAD PUSH1 0x20 DUP2 LT ISZERO PUSH2 0x2217 JUMPI PUSH1 0x0 DUP1 REVERT JUMPDEST POP MLOAD JUMPDEST PUSH2 0x8ED JUMPI PUSH1 0x40 MLOAD PUSH3 0x461BCD PUSH1 0xE5 SHL DUP2 MSTORE PUSH1 0x4 ADD DUP1 DUP1 PUSH1 0x20 ADD DUP3 DUP2 SUB DUP3 MSTORE PUSH1 0x2D DUP2 MSTORE PUSH1 0x20 ADD DUP1 PUSH2 0x545B PUSH1 0x2D SWAP2 CODECOPY PUSH1 0x40 ADD SWAP2 POP POP PUSH1 0x40 MLOAD DUP1 SWAP2 SUB SWAP1 REVERT JUMPDEST PUSH1 0x0 DUP3 DUP3 GT ISZERO PUSH2 0x22AC JUMPI PUSH1 0x40 DUP1 MLOAD PUSH3 0x461BCD PUSH1 0xE5 SHL DUP2 MSTORE PUSH1 0x20 PUSH1 0x4 DUP3 ADD MSTORE PUSH1 0x17 PUSH1 0x24 DUP3 ADD MSTORE PUSH32 0x536166654D617468237375623A20554E444552464C4F57000000000000000000 PUSH1 0x44 DUP3 ADD MSTORE SWAP1 MLOAD SWAP1 DUP2 SWAP1 SUB PUSH1 0x64 ADD SWAP1 REVERT JUMPDEST POP SWAP1 SUB SWAP1 JUMP JUMPDEST PUSH1 0x60 PUSH1 0x2 PUSH1 0x0 SLOAD EQ ISZERO PUSH2 0x230C JUMPI PUSH1 0x40 DUP1 MLOAD PUSH3 0x461BCD PUSH1 0xE5 SHL DUP2 MSTORE PUSH1 0x20 PUSH1 0x4 DUP3 ADD MSTORE PUSH1 0x1F PUSH1 0x24 DUP3 ADD MSTORE PUSH32 0x5265656E7472616E637947756172643A207265656E7472616E742063616C6C00 PUSH1 0x44 DUP3 ADD MSTORE SWAP1 MLOAD SWAP1 DUP2 SWAP1 SUB PUSH1 0x64 ADD SWAP1 REVERT JUMPDEST PUSH1 0x2 PUSH1 0x0 SSTORE DUP8 MLOAD TIMESTAMP DUP7 LT ISZERO PUSH2 0x2333 JUMPI PUSH1 0x40 MLOAD PUSH3 0x461BCD PUSH1 0xE5 SHL DUP2 MSTORE PUSH1 0x4 ADD PUSH2 0x206 SWAP1 PUSH2 0x4D3F JUMP JUMPDEST PUSH1 0x0 DUP2 PUSH8 0xFFFFFFFFFFFFFFFF DUP2 GT DUP1 ISZERO PUSH2 0x234C JUMPI PUSH1 0x0 DUP1 REVERT JUMPDEST POP PUSH1 0x40 MLOAD SWAP1 DUP1 DUP3 MSTORE DUP1 PUSH1 0x20 MUL PUSH1 0x20 ADD DUP3 ADD PUSH1 0x40 MSTORE DUP1 ISZERO PUSH2 0x2376 JUMPI DUP2 PUSH1 0x20 ADD PUSH1 0x20 DUP3 MUL DUP1 CALLDATASIZE DUP4 CALLDATACOPY ADD SWAP1 POP JUMPDEST POP SWAP3 POP PUSH1 0x60 PUSH2 0x2384 DUP12 PUSH2 0x35CA JUMP JUMPDEST SWAP1 POP PUSH1 0x0 JUMPDEST DUP4 DUP2 LT ISZERO PUSH2 0x24E2 JUMPI PUSH1 0x0 DUP13 DUP3 DUP2 MLOAD DUP2 LT PUSH2 0x239F JUMPI INVALID JUMPDEST PUSH1 0x20 MUL PUSH1 0x20 ADD ADD MLOAD SWAP1 POP PUSH1 0x0 DUP13 DUP4 DUP2 MLOAD DUP2 LT PUSH2 0x23B7 JUMPI INVALID JUMPDEST PUSH1 0x20 MUL PUSH1 0x20 ADD ADD MLOAD SWAP1 POP PUSH1 0x0 DUP5 DUP5 DUP2 MLOAD DUP2 LT PUSH2 0x23CF JUMPI INVALID JUMPDEST PUSH1 0x20 MUL PUSH1 0x20 ADD ADD MLOAD SWAP1 POP PUSH1 0x0 DUP3 GT PUSH2 0x23F9 JUMPI PUSH1 0x40 MLOAD PUSH3 0x461BCD PUSH1 0xE5 SHL DUP2 MSTORE PUSH1 0x4 ADD PUSH2 0x206 SWAP1 PUSH2 0x4FD3 JUMP JUMPDEST PUSH1 0x0 DUP4 DUP2 MSTORE PUSH1 0x7 PUSH1 0x20 MSTORE PUSH1 0x40 DUP2 KECCAK256 SLOAD SWAP1 PUSH2 0x241D DUP5 PUSH2 0x2417 DUP6 DUP3 PUSH2 0x2255 JUMP JUMPDEST DUP5 PUSH2 0xA74 JUMP JUMPDEST SWAP1 POP PUSH1 0x0 DUP1 PUSH2 0x242C DUP8 DUP5 PUSH2 0x15B8 JUMP JUMPDEST SWAP1 SWAP3 POP SWAP1 POP DUP1 ISZERO PUSH2 0x247F JUMPI PUSH2 0x2465 PUSH2 0x2446 DUP3 PUSH2 0x2710 PUSH2 0x200A JUMP JUMPDEST PUSH1 0x1 PUSH1 0x1 PUSH1 0xA0 SHL SUB DUP5 AND PUSH1 0x0 SWAP1 DUP2 MSTORE PUSH1 0x8 PUSH1 0x20 MSTORE PUSH1 0x40 SWAP1 KECCAK256 SLOAD SWAP1 PUSH2 0x2080 JUMP JUMPDEST PUSH1 0x1 PUSH1 0x1 PUSH1 0xA0 SHL SUB DUP4 AND PUSH1 0x0 SWAP1 DUP2 MSTORE PUSH1 0x8 PUSH1 0x20 MSTORE PUSH1 0x40 SWAP1 KECCAK256 SSTORE JUMPDEST PUSH2 0x2493 PUSH2 0x248C DUP5 DUP4 PUSH2 0x2255 JUMP JUMPDEST DUP12 SWAP1 PUSH2 0x2080 JUMP JUMPDEST SWAP10 POP PUSH2 0x249F DUP5 DUP5 PUSH2 0x2255 JUMP JUMPDEST PUSH1 0x0 DUP9 DUP2 MSTORE PUSH1 0x7 PUSH1 0x20 MSTORE PUSH1 0x40 SWAP1 KECCAK256 SSTORE PUSH2 0x24B8 DUP4 DUP3 PUSH2 0x2255 JUMP JUMPDEST DUP13 DUP10 DUP2 MLOAD DUP2 LT PUSH2 0x24C4 JUMPI INVALID JUMPDEST PUSH1 0x20 SWAP1 DUP2 MUL SWAP2 SWAP1 SWAP2 ADD ADD MSTORE POP POP PUSH1 0x1 SWAP1 SWAP6 ADD SWAP5 POP PUSH2 0x2389 SWAP4 POP POP POP POP JUMP JUMPDEST POP PUSH1 0x0 JUMPDEST DUP6 MLOAD DUP2 LT ISZERO PUSH2 0x2576 JUMPI PUSH1 0x0 DUP7 DUP3 DUP2 MLOAD DUP2 LT PUSH2 0x24FD JUMPI INVALID JUMPDEST PUSH1 0x20 MUL PUSH1 0x20 ADD ADD MLOAD GT ISZERO PUSH2 0x256E JUMPI PUSH2 0x251A DUP7 DUP3 DUP2 MLOAD DUP2 LT PUSH2 0x17F0 JUMPI INVALID JUMPDEST SWAP3 POP PUSH2 0x2531 PUSH2 0x1834 PUSH2 0x2710 DUP9 DUP5 DUP2 MLOAD DUP2 LT PUSH2 0x181E JUMPI INVALID JUMPDEST PUSH1 0x8 PUSH1 0x0 DUP10 DUP5 DUP2 MLOAD DUP2 LT PUSH2 0x2541 JUMPI INVALID JUMPDEST PUSH1 0x20 MUL PUSH1 0x20 ADD ADD MLOAD PUSH1 0x1 PUSH1 0x1 PUSH1 0xA0 SHL SUB AND PUSH1 0x1 PUSH1 0x1 PUSH1 0xA0 SHL SUB AND DUP2 MSTORE PUSH1 0x20 ADD SWAP1 DUP2 MSTORE PUSH1 0x20 ADD PUSH1 0x0 KECCAK256 DUP2 SWAP1 SSTORE POP JUMPDEST PUSH1 0x1 ADD PUSH2 0x24E6 JUMP JUMPDEST POP DUP9 DUP3 LT ISZERO PUSH2 0x2597 JUMPI PUSH1 0x40 MLOAD PUSH3 0x461BCD PUSH1 0xE5 SHL DUP2 MSTORE PUSH1 0x4 ADD PUSH2 0x206 SWAP1 PUSH2 0x4D08 JUMP JUMPDEST PUSH2 0x25C2 PUSH32 0x0 DUP9 DUP5 PUSH2 0x20DA JUMP JUMPDEST POP POP POP PUSH1 0x1 PUSH1 0x0 SSTORE SWAP8 SWAP7 POP POP POP POP POP POP POP JUMP JUMPDEST PUSH1 0x2 PUSH1 0x0 SLOAD EQ ISZERO PUSH2 0x262D JUMPI PUSH1 0x40 DUP1 MLOAD PUSH3 0x461BCD PUSH1 0xE5 SHL DUP2 MSTORE PUSH1 0x20 PUSH1 0x4 DUP3 ADD MSTORE PUSH1 0x1F PUSH1 0x24 DUP3 ADD MSTORE PUSH32 0x5265656E7472616E637947756172643A207265656E7472616E742063616C6C00 PUSH1 0x44 DUP3 ADD MSTORE SWAP1 MLOAD SWAP1 DUP2 SWAP1 SUB PUSH1 0x64 ADD SWAP1 REVERT JUMPDEST PUSH1 0x2 PUSH1 0x0 SSTORE TIMESTAMP DUP2 LT ISZERO PUSH2 0x2652 JUMPI PUSH1 0x40 MLOAD PUSH3 0x461BCD PUSH1 0xE5 SHL DUP2 MSTORE PUSH1 0x4 ADD PUSH2 0x206 SWAP1 PUSH2 0x50AF JUMP JUMPDEST DUP4 MLOAD PUSH1 0x0 PUSH1 0x60 DUP3 PUSH8 0xFFFFFFFFFFFFFFFF DUP2 GT DUP1 ISZERO PUSH2 0x266F JUMPI PUSH1 0x0 DUP1 REVERT JUMPDEST POP PUSH1 0x40 MLOAD SWAP1 DUP1 DUP3 MSTORE DUP1 PUSH1 0x20 MUL PUSH1 0x20 ADD DUP3 ADD PUSH1 0x40 MSTORE DUP1 ISZERO PUSH2 0x2699 JUMPI DUP2 PUSH1 0x20 ADD PUSH1 0x20 DUP3 MUL DUP1 CALLDATASIZE DUP4 CALLDATACOPY ADD SWAP1 POP JUMPDEST POP SWAP1 POP PUSH1 0x60 DUP4 PUSH8 0xFFFFFFFFFFFFFFFF DUP2 GT DUP1 ISZERO PUSH2 0x26B5 JUMPI PUSH1 0x0 DUP1 REVERT JUMPDEST POP PUSH1 0x40 MLOAD SWAP1 DUP1 DUP3 MSTORE DUP1 PUSH1 0x20 MUL PUSH1 0x20 ADD DUP3 ADD PUSH1 0x40 MSTORE DUP1 ISZERO PUSH2 0x26DF JUMPI DUP2 PUSH1 0x20 ADD PUSH1 0x20 DUP3 MUL DUP1 CALLDATASIZE DUP4 CALLDATACOPY ADD SWAP1 POP JUMPDEST POP SWAP1 POP PUSH1 0x60 PUSH2 0x26ED DUP10 PUSH2 0x35CA JUMP JUMPDEST SWAP1 POP PUSH1 0x0 JUMPDEST DUP6 DUP2 LT ISZERO PUSH2 0x2984 JUMPI PUSH1 0x0 DUP11 DUP3 DUP2 MLOAD DUP2 LT PUSH2 0x2708 JUMPI INVALID JUMPDEST PUSH1 0x20 MUL PUSH1 0x20 ADD ADD MLOAD SWAP1 POP PUSH1 0x0 DUP11 DUP4 DUP2 MLOAD DUP2 LT PUSH2 0x2720 JUMPI INVALID JUMPDEST PUSH1 0x20 MUL PUSH1 0x20 ADD ADD MLOAD SWAP1 POP PUSH1 0x0 DUP11 DUP5 DUP2 MLOAD DUP2 LT PUSH2 0x2738 JUMPI INVALID JUMPDEST PUSH1 0x20 MUL PUSH1 0x20 ADD ADD MLOAD GT PUSH2 0x275D JUMPI PUSH1 0x40 MLOAD PUSH3 0x461BCD PUSH1 0xE5 SHL DUP2 MSTORE PUSH1 0x4 ADD PUSH2 0x206 SWAP1 PUSH2 0x4F2E JUMP JUMPDEST PUSH1 0x0 DUP2 GT PUSH2 0x277D JUMPI PUSH1 0x40 MLOAD PUSH3 0x461BCD PUSH1 0xE5 SHL DUP2 MSTORE PUSH1 0x4 ADD PUSH2 0x206 SWAP1 PUSH2 0x5078 JUMP JUMPDEST PUSH1 0x0 DUP3 DUP2 MSTORE PUSH1 0x6 PUSH1 0x20 MSTORE PUSH1 0x40 SWAP1 KECCAK256 SLOAD DUP1 ISZERO PUSH2 0x28D9 JUMPI PUSH1 0x0 DUP4 DUP2 MSTORE PUSH1 0x7 PUSH1 0x20 MSTORE PUSH1 0x40 DUP2 KECCAK256 SLOAD DUP7 MLOAD SWAP1 SWAP2 SWAP1 DUP8 SWAP1 DUP8 SWAP1 DUP2 LT PUSH2 0x27B2 JUMPI INVALID JUMPDEST PUSH1 0x20 MUL PUSH1 0x20 ADD ADD MLOAD SWAP1 POP PUSH1 0x0 DUP1 PUSH2 0x27E4 PUSH2 0x27D5 DUP6 DUP9 PUSH2 0x200A SWAP1 SWAP2 SWAP1 PUSH4 0xFFFFFFFF AND JUMP JUMPDEST PUSH2 0x27DF DUP6 DUP10 PUSH2 0x2255 JUMP JUMPDEST PUSH2 0x354D JUMP JUMPDEST SWAP2 POP SWAP2 POP DUP2 DUP16 DUP10 DUP2 MLOAD DUP2 LT PUSH2 0x27F5 JUMPI INVALID JUMPDEST PUSH1 0x20 MUL PUSH1 0x20 ADD ADD MLOAD LT ISZERO PUSH2 0x281B JUMPI PUSH1 0x40 MLOAD PUSH3 0x461BCD PUSH1 0xE5 SHL DUP2 MSTORE PUSH1 0x4 ADD PUSH2 0x206 SWAP1 PUSH2 0x4B50 JUMP JUMPDEST PUSH2 0x2825 DUP5 DUP4 PUSH2 0x2080 JUMP JUMPDEST PUSH1 0x0 DUP9 DUP2 MSTORE PUSH1 0x7 PUSH1 0x20 MSTORE PUSH1 0x40 SWAP1 KECCAK256 SSTORE PUSH2 0x283E DUP13 DUP4 PUSH2 0x2080 JUMP JUMPDEST SWAP12 POP DUP4 PUSH2 0x2861 DUP7 PUSH2 0x1B33 DUP5 PUSH2 0x2854 JUMPI PUSH1 0x0 PUSH2 0x2857 JUMP JUMPDEST PUSH1 0x1 JUMPDEST DUP7 SWAP1 PUSH1 0xFF AND PUSH2 0x2255 JUMP JUMPDEST DUP2 PUSH2 0x2868 JUMPI INVALID JUMPDEST DIV DUP12 DUP10 DUP2 MLOAD DUP2 LT PUSH2 0x2875 JUMPI INVALID JUMPDEST PUSH1 0x20 MUL PUSH1 0x20 ADD ADD DUP2 DUP2 MSTORE POP POP DUP2 DUP11 DUP10 DUP2 MLOAD DUP2 LT PUSH2 0x288E JUMPI INVALID JUMPDEST PUSH1 0x20 MUL PUSH1 0x20 ADD ADD DUP2 DUP2 MSTORE POP POP PUSH2 0x28C0 DUP12 DUP10 DUP2 MLOAD DUP2 LT PUSH2 0x28A9 JUMPI INVALID JUMPDEST PUSH1 0x20 MUL PUSH1 0x20 ADD ADD MLOAD DUP7 PUSH2 0x2080 SWAP1 SWAP2 SWAP1 PUSH4 0xFFFFFFFF AND JUMP JUMPDEST PUSH1 0x0 DUP9 DUP2 MSTORE PUSH1 0x6 PUSH1 0x20 MSTORE PUSH1 0x40 SWAP1 KECCAK256 SSTORE POP PUSH2 0x2979 SWAP3 POP POP POP JUMP JUMPDEST PUSH1 0x0 DUP12 DUP6 DUP2 MLOAD DUP2 LT PUSH2 0x28E7 JUMPI INVALID JUMPDEST PUSH1 0x20 MUL PUSH1 0x20 ADD ADD MLOAD SWAP1 POP PUSH2 0x3E8 DUP2 LT ISZERO PUSH2 0x2913 JUMPI PUSH1 0x40 MLOAD PUSH3 0x461BCD PUSH1 0xE5 SHL DUP2 MSTORE PUSH1 0x4 ADD PUSH2 0x206 SWAP1 PUSH2 0x4C2C JUMP JUMPDEST PUSH1 0x0 DUP5 DUP2 MSTORE PUSH1 0x7 PUSH1 0x20 MSTORE PUSH1 0x40 SWAP1 KECCAK256 DUP2 SWAP1 SSTORE PUSH2 0x292E DUP10 DUP3 PUSH2 0x2080 JUMP JUMPDEST PUSH1 0x0 DUP6 DUP2 MSTORE PUSH1 0x6 PUSH1 0x20 MSTORE PUSH1 0x40 SWAP1 KECCAK256 DUP3 SWAP1 SSTORE DUP9 MLOAD SWAP1 SWAP10 POP DUP2 SWAP1 DUP10 SWAP1 DUP8 SWAP1 DUP2 LT PUSH2 0x2952 JUMPI INVALID JUMPDEST PUSH1 0x20 MUL PUSH1 0x20 ADD ADD DUP2 DUP2 MSTORE POP POP DUP1 DUP8 DUP7 DUP2 MLOAD DUP2 LT PUSH2 0x296B JUMPI INVALID JUMPDEST PUSH1 0x20 MUL PUSH1 0x20 ADD ADD DUP2 DUP2 MSTORE POP POP POP JUMPDEST POP POP POP PUSH1 0x1 ADD PUSH2 0x26F2 JUMP JUMPDEST POP PUSH2 0x29B1 PUSH32 0x0 DUP12 ADDRESS DUP8 PUSH2 0x2EA3 JUMP JUMPDEST PUSH2 0x29CC DUP11 DUP11 DUP6 PUSH1 0x40 MLOAD DUP1 PUSH1 0x20 ADD PUSH1 0x40 MSTORE DUP1 PUSH1 0x0 DUP2 MSTORE POP PUSH2 0x387D JUMP JUMPDEST DUP10 PUSH1 0x1 PUSH1 0x1 PUSH1 0xA0 SHL SUB AND PUSH32 0x403F9DC4582DAE52D3EEB4A22D37540FFB13C32D964C92EC5AC0D3D5628DA316 DUP11 DUP11 DUP6 PUSH1 0x40 MLOAD PUSH2 0x2A09 SWAP4 SWAP3 SWAP2 SWAP1 PUSH2 0x4971 JUMP JUMPDEST PUSH1 0x40 MLOAD DUP1 SWAP2 SUB SWAP1 LOG2 POP POP PUSH1 0x1 PUSH1 0x0 SSTORE POP POP POP POP POP POP POP POP JUMP JUMPDEST PUSH1 0x2 PUSH1 0x0 SLOAD EQ ISZERO PUSH2 0x2A7A JUMPI PUSH1 0x40 DUP1 MLOAD PUSH3 0x461BCD PUSH1 0xE5 SHL DUP2 MSTORE PUSH1 0x20 PUSH1 0x4 DUP3 ADD MSTORE PUSH1 0x1F PUSH1 0x24 DUP3 ADD MSTORE PUSH32 0x5265656E7472616E637947756172643A207265656E7472616E742063616C6C00 PUSH1 0x44 DUP3 ADD MSTORE SWAP1 MLOAD SWAP1 DUP2 SWAP1 SUB PUSH1 0x64 ADD SWAP1 REVERT JUMPDEST PUSH1 0x2 PUSH1 0x0 SSTORE TIMESTAMP DUP2 GT PUSH2 0x2A9E JUMPI PUSH1 0x40 MLOAD PUSH3 0x461BCD PUSH1 0xE5 SHL DUP2 MSTORE PUSH1 0x4 ADD PUSH2 0x206 SWAP1 PUSH2 0x4BBE JUMP JUMPDEST DUP5 MLOAD PUSH1 0x0 PUSH1 0x60 DUP3 PUSH8 0xFFFFFFFFFFFFFFFF DUP2 GT DUP1 ISZERO PUSH2 0x2ABB JUMPI PUSH1 0x0 DUP1 REVERT JUMPDEST POP PUSH1 0x40 MLOAD SWAP1 DUP1 DUP3 MSTORE DUP1 PUSH1 0x20 MUL PUSH1 0x20 ADD DUP3 ADD PUSH1 0x40 MSTORE DUP1 ISZERO PUSH2 0x2AE5 JUMPI DUP2 PUSH1 0x20 ADD PUSH1 0x20 DUP3 MUL DUP1 CALLDATASIZE DUP4 CALLDATACOPY ADD SWAP1 POP JUMPDEST POP SWAP1 POP PUSH1 0x60 DUP4 PUSH8 0xFFFFFFFFFFFFFFFF DUP2 GT DUP1 ISZERO PUSH2 0x2B01 JUMPI PUSH1 0x0 DUP1 REVERT JUMPDEST POP PUSH1 0x40 MLOAD SWAP1 DUP1 DUP3 MSTORE DUP1 PUSH1 0x20 MUL PUSH1 0x20 ADD DUP3 ADD PUSH1 0x40 MSTORE DUP1 ISZERO PUSH2 0x2B3B JUMPI DUP2 PUSH1 0x20 ADD JUMPDEST PUSH2 0x2B28 PUSH2 0x3D75 JUMP JUMPDEST DUP2 MSTORE PUSH1 0x20 ADD SWAP1 PUSH1 0x1 SWAP1 SUB SWAP1 DUP2 PUSH2 0x2B20 JUMPI SWAP1 POP JUMPDEST POP SWAP1 POP PUSH1 0x60 PUSH2 0x2B49 DUP11 PUSH2 0x35CA JUMP JUMPDEST SWAP1 POP PUSH1 0x0 JUMPDEST DUP6 DUP2 LT ISZERO PUSH2 0x2D91 JUMPI PUSH1 0x0 DUP12 DUP3 DUP2 MLOAD DUP2 LT PUSH2 0x2B64 JUMPI INVALID JUMPDEST PUSH1 0x20 MUL PUSH1 0x20 ADD ADD MLOAD SWAP1 POP PUSH1 0x0 DUP12 DUP4 DUP2 MLOAD DUP2 LT PUSH2 0x2B7C JUMPI INVALID JUMPDEST PUSH1 0x20 MUL PUSH1 0x20 ADD ADD MLOAD SWAP1 POP PUSH1 0x0 PUSH1 0x6 PUSH1 0x0 DUP5 DUP2 MSTORE PUSH1 0x20 ADD SWAP1 DUP2 MSTORE PUSH1 0x20 ADD PUSH1 0x0 KECCAK256 SLOAD SWAP1 POP PUSH1 0x0 DUP2 GT PUSH2 0x2BBE JUMPI PUSH1 0x40 MLOAD PUSH3 0x461BCD PUSH1 0xE5 SHL DUP2 MSTORE PUSH1 0x4 ADD PUSH2 0x206 SWAP1 PUSH2 0x4BF5 JUMP JUMPDEST PUSH1 0x0 DUP4 DUP2 MSTORE PUSH1 0x7 PUSH1 0x20 MSTORE PUSH1 0x40 DUP2 KECCAK256 SLOAD DUP7 MLOAD SWAP1 SWAP2 SWAP1 DUP2 SWAP1 DUP2 SWAP1 DUP10 SWAP1 DUP10 SWAP1 DUP2 LT PUSH2 0x2BE2 JUMPI INVALID JUMPDEST PUSH1 0x20 MUL PUSH1 0x20 ADD ADD MLOAD SWAP1 POP PUSH1 0x0 DUP1 PUSH1 0x0 DUP1 PUSH2 0x2BFF DUP12 DUP12 DUP8 DUP12 DUP14 PUSH2 0x3A4A JUMP JUMPDEST PUSH1 0x1 PUSH1 0x1 PUSH1 0xA0 SHL SUB DUP3 AND PUSH1 0x0 SWAP1 DUP2 MSTORE PUSH1 0x8 PUSH1 0x20 MSTORE PUSH1 0x40 SWAP1 KECCAK256 SLOAD SWAP6 SWAP13 POP SWAP4 SWAP11 POP SWAP2 SWAP8 POP SWAP6 POP SWAP4 POP SWAP2 POP PUSH2 0x2C31 SWAP1 DUP3 PUSH2 0x2080 JUMP JUMPDEST PUSH1 0x1 PUSH1 0x1 PUSH1 0xA0 SHL SUB DUP4 AND PUSH1 0x0 SWAP1 DUP2 MSTORE PUSH1 0x8 PUSH1 0x20 MSTORE PUSH1 0x40 SWAP1 KECCAK256 SSTORE DUP14 MLOAD DUP5 SWAP1 DUP16 SWAP1 DUP15 SWAP1 DUP2 LT PUSH2 0x2C5A JUMPI INVALID JUMPDEST PUSH1 0x20 MUL PUSH1 0x20 ADD ADD MLOAD PUSH1 0x20 ADD DUP2 DUP2 MSTORE POP POP DUP3 DUP15 DUP14 DUP2 MLOAD DUP2 LT PUSH2 0x2C77 JUMPI INVALID JUMPDEST PUSH1 0x20 MUL PUSH1 0x20 ADD ADD MLOAD PUSH1 0x40 ADD DUP2 DUP2 MSTORE POP POP DUP9 DUP15 DUP14 DUP2 MLOAD DUP2 LT PUSH2 0x2C94 JUMPI INVALID JUMPDEST PUSH1 0x20 MUL PUSH1 0x20 ADD ADD MLOAD PUSH1 0x60 ADD DUP2 DUP2 MSTORE POP POP POP POP POP POP POP DUP15 DUP8 DUP2 MLOAD DUP2 LT PUSH2 0x2CB5 JUMPI INVALID JUMPDEST PUSH1 0x20 MUL PUSH1 0x20 ADD ADD MLOAD DUP3 LT ISZERO PUSH2 0x2CDC JUMPI PUSH1 0x40 MLOAD PUSH3 0x461BCD PUSH1 0xE5 SHL DUP2 MSTORE PUSH1 0x4 ADD PUSH2 0x206 SWAP1 PUSH2 0x4F65 JUMP JUMPDEST DUP14 DUP8 DUP2 MLOAD DUP2 LT PUSH2 0x2CE8 JUMPI INVALID JUMPDEST PUSH1 0x20 MUL PUSH1 0x20 ADD ADD MLOAD DUP2 LT ISZERO PUSH2 0x2D0F JUMPI PUSH1 0x40 MLOAD PUSH3 0x461BCD PUSH1 0xE5 SHL DUP2 MSTORE PUSH1 0x4 ADD PUSH2 0x206 SWAP1 PUSH2 0x4A74 JUMP JUMPDEST PUSH2 0x2D19 DUP5 DUP7 PUSH2 0x2255 JUMP JUMPDEST PUSH1 0x0 DUP8 DUP2 MSTORE PUSH1 0x6 PUSH1 0x20 MSTORE PUSH1 0x40 SWAP1 KECCAK256 SSTORE PUSH2 0x2D32 DUP4 DUP4 PUSH2 0x2255 JUMP JUMPDEST PUSH1 0x0 DUP8 DUP2 MSTORE PUSH1 0x7 PUSH1 0x20 MSTORE PUSH1 0x40 SWAP1 KECCAK256 SSTORE PUSH2 0x2D4B DUP12 DUP4 PUSH2 0x2080 JUMP JUMPDEST SWAP11 POP DUP1 DUP11 DUP9 DUP2 MLOAD DUP2 LT PUSH2 0x2D5A JUMPI INVALID JUMPDEST PUSH1 0x20 MUL PUSH1 0x20 ADD ADD DUP2 DUP2 MSTORE POP POP DUP2 DUP10 DUP9 DUP2 MLOAD DUP2 LT PUSH2 0x2D73 JUMPI INVALID JUMPDEST PUSH1 0x20 SWAP1 DUP2 MUL SWAP2 SWAP1 SWAP2 ADD ADD MLOAD MSTORE POP POP PUSH1 0x1 SWAP1 SWAP5 ADD SWAP4 POP PUSH2 0x2B4E SWAP3 POP POP POP JUMP JUMPDEST POP PUSH2 0x2D9D ADDRESS DUP12 DUP12 PUSH2 0x3B3F JUMP JUMPDEST PUSH2 0x2DC8 PUSH32 0x0 DUP13 DUP7 PUSH2 0x20DA JUMP JUMPDEST PUSH1 0x40 MLOAD PUSH4 0x1759616B PUSH1 0xE1 SHL DUP2 MSTORE PUSH1 0x1 PUSH1 0x1 PUSH1 0xA0 SHL SUB PUSH32 0x0 AND SWAP1 PUSH4 0x2EB2C2D6 SWAP1 PUSH2 0x2E1A SWAP1 ADDRESS SWAP1 DUP16 SWAP1 DUP16 SWAP1 DUP10 SWAP1 PUSH1 0x4 ADD PUSH2 0x483E JUMP JUMPDEST PUSH1 0x0 PUSH1 0x40 MLOAD DUP1 DUP4 SUB DUP2 PUSH1 0x0 DUP8 DUP1 EXTCODESIZE ISZERO DUP1 ISZERO PUSH2 0x2E34 JUMPI PUSH1 0x0 DUP1 REVERT JUMPDEST POP GAS CALL ISZERO DUP1 ISZERO PUSH2 0x2E48 JUMPI RETURNDATASIZE PUSH1 0x0 DUP1 RETURNDATACOPY RETURNDATASIZE PUSH1 0x0 REVERT JUMPDEST POP POP POP POP DUP11 PUSH1 0x1 PUSH1 0x1 PUSH1 0xA0 SHL SUB AND PUSH32 0x3024A3223CE9E6A0B0324A52224694F329E7F092C1A7B74067B8F3CBFA188571 DUP12 DUP6 DUP6 PUSH1 0x40 MLOAD PUSH2 0x2E89 SWAP4 SWAP3 SWAP2 SWAP1 PUSH2 0x48E7 JUMP JUMPDEST PUSH1 0x40 MLOAD DUP1 SWAP2 SUB SWAP1 LOG2 POP POP PUSH1 0x1 PUSH1 0x0 SSTORE POP POP POP POP POP POP POP POP POP JUMP JUMPDEST PUSH1 0x40 DUP1 MLOAD PUSH1 0x1 PUSH1 0x1 PUSH1 0xA0 SHL SUB DUP6 DUP2 AND PUSH1 0x24 DUP4 ADD MSTORE DUP5 DUP2 AND PUSH1 0x44 DUP4 ADD MSTORE PUSH1 0x64 DUP1 DUP4 ADD DUP6 SWAP1 MSTORE DUP4 MLOAD DUP1 DUP5 SUB SWAP1 SWAP2 ADD DUP2 MSTORE PUSH1 0x84 SWAP1 SWAP3 ADD DUP4 MSTORE PUSH1 0x20 DUP3 ADD DUP1 MLOAD PUSH28 0xFFFFFFFFFFFFFFFFFFFFFFFFFFFFFFFFFFFFFFFFFFFFFFFFFFFFFFFF AND PUSH32 0x23B872DD00000000000000000000000000000000000000000000000000000000 OR DUP2 MSTORE SWAP3 MLOAD DUP3 MLOAD PUSH1 0x0 SWAP5 PUSH1 0x60 SWAP5 SWAP4 DUP11 AND SWAP4 SWAP3 SWAP2 DUP3 SWAP2 SWAP1 DUP1 DUP4 DUP4 JUMPDEST PUSH1 0x20 DUP4 LT PUSH2 0x2F56 JUMPI DUP1 MLOAD DUP3 MSTORE PUSH1 0x1F NOT SWAP1 SWAP3 ADD SWAP2 PUSH1 0x20 SWAP2 DUP3 ADD SWAP2 ADD PUSH2 0x2F37 JUMP JUMPDEST PUSH1 0x1 DUP4 PUSH1 0x20 SUB PUSH2 0x100 EXP SUB DUP1 NOT DUP3 MLOAD AND DUP2 DUP5 MLOAD AND DUP1 DUP3 OR DUP6 MSTORE POP POP POP POP POP POP SWAP1 POP ADD SWAP2 POP POP PUSH1 0x0 PUSH1 0x40 MLOAD DUP1 DUP4 SUB DUP2 PUSH1 0x0 DUP7 GAS CALL SWAP2 POP POP RETURNDATASIZE DUP1 PUSH1 0x0 DUP2 EQ PUSH2 0x2FB8 JUMPI PUSH1 0x40 MLOAD SWAP2 POP PUSH1 0x1F NOT PUSH1 0x3F RETURNDATASIZE ADD AND DUP3 ADD PUSH1 0x40 MSTORE RETURNDATASIZE DUP3 MSTORE RETURNDATASIZE PUSH1 0x0 PUSH1 0x20 DUP5 ADD RETURNDATACOPY PUSH2 0x2FBD JUMP JUMPDEST PUSH1 0x60 SWAP2 POP JUMPDEST POP SWAP2 POP SWAP2 POP DUP2 DUP1 ISZERO PUSH2 0x2FEB JUMPI POP DUP1 MLOAD ISZERO DUP1 PUSH2 0x2FEB JUMPI POP DUP1 DUP1 PUSH1 0x20 ADD SWAP1 MLOAD PUSH1 0x20 DUP2 LT ISZERO PUSH2 0x2FE8 JUMPI PUSH1 0x0 DUP1 REVERT JUMPDEST POP MLOAD JUMPDEST PUSH2 0x2002 JUMPI PUSH1 0x40 MLOAD PUSH3 0x461BCD PUSH1 0xE5 SHL DUP2 MSTORE PUSH1 0x4 ADD DUP1 DUP1 PUSH1 0x20 ADD DUP3 DUP2 SUB DUP3 MSTORE PUSH1 0x31 DUP2 MSTORE PUSH1 0x20 ADD DUP1 PUSH2 0x5291 PUSH1 0x31 SWAP2 CODECOPY PUSH1 0x40 ADD SWAP2 POP POP PUSH1 0x40 MLOAD DUP1 SWAP2 SUB SWAP1 REVERT JUMPDEST PUSH1 0x60 PUSH1 0x2 PUSH1 0x0 SLOAD EQ ISZERO PUSH2 0x3080 JUMPI PUSH1 0x40 DUP1 MLOAD PUSH3 0x461BCD PUSH1 0xE5 SHL DUP2 MSTORE PUSH1 0x20 PUSH1 0x4 DUP3 ADD MSTORE PUSH1 0x1F PUSH1 0x24 DUP3 ADD MSTORE PUSH32 0x5265656E7472616E637947756172643A207265656E7472616E742063616C6C00 PUSH1 0x44 DUP3 ADD MSTORE SWAP1 MLOAD SWAP1 DUP2 SWAP1 SUB PUSH1 0x64 ADD SWAP1 REVERT JUMPDEST PUSH1 0x2 PUSH1 0x0 SSTORE TIMESTAMP DUP4 LT ISZERO PUSH2 0x30A5 JUMPI PUSH1 0x40 MLOAD PUSH3 0x461BCD PUSH1 0xE5 SHL DUP2 MSTORE PUSH1 0x4 ADD PUSH2 0x206 SWAP1 PUSH2 0x5041 JUMP JUMPDEST DUP6 MLOAD DUP5 DUP2 PUSH8 0xFFFFFFFFFFFFFFFF DUP2 GT DUP1 ISZERO PUSH2 0x30BF JUMPI PUSH1 0x0 DUP1 REVERT JUMPDEST POP PUSH1 0x40 MLOAD SWAP1 DUP1 DUP3 MSTORE DUP1 PUSH1 0x20 MUL PUSH1 0x20 ADD DUP3 ADD PUSH1 0x40 MSTORE DUP1 ISZERO PUSH2 0x30E9 JUMPI DUP2 PUSH1 0x20 ADD PUSH1 0x20 DUP3 MUL DUP1 CALLDATASIZE DUP4 CALLDATACOPY ADD SWAP1 POP JUMPDEST POP SWAP3 POP PUSH1 0x60 PUSH2 0x30F7 DUP10 PUSH2 0x35CA JUMP JUMPDEST SWAP1 POP PUSH1 0x0 JUMPDEST DUP4 DUP2 LT ISZERO PUSH2 0x3230 JUMPI PUSH1 0x0 DUP11 DUP3 DUP2 MLOAD DUP2 LT PUSH2 0x3112 JUMPI INVALID JUMPDEST PUSH1 0x20 MUL PUSH1 0x20 ADD ADD MLOAD SWAP1 POP PUSH1 0x0 DUP11 DUP4 DUP2 MLOAD DUP2 LT PUSH2 0x312A JUMPI INVALID JUMPDEST PUSH1 0x20 MUL PUSH1 0x20 ADD ADD MLOAD SWAP1 POP PUSH1 0x0 DUP5 DUP5 DUP2 MLOAD DUP2 LT PUSH2 0x3142 JUMPI INVALID JUMPDEST PUSH1 0x20 MUL PUSH1 0x20 ADD ADD MLOAD SWAP1 POP PUSH1 0x0 DUP3 GT PUSH2 0x316C JUMPI PUSH1 0x40 MLOAD PUSH3 0x461BCD PUSH1 0xE5 SHL DUP2 MSTORE PUSH1 0x4 ADD PUSH2 0x206 SWAP1 PUSH2 0x4B87 JUMP JUMPDEST PUSH1 0x0 DUP4 DUP2 MSTORE PUSH1 0x7 PUSH1 0x20 MSTORE PUSH1 0x40 DUP2 KECCAK256 SLOAD SWAP1 PUSH2 0x3187 DUP5 DUP4 DUP6 PUSH2 0x1AF4 JUMP JUMPDEST SWAP1 POP PUSH1 0x0 DUP1 PUSH2 0x3196 DUP8 DUP5 PUSH2 0x15B8 JUMP JUMPDEST SWAP1 SWAP3 POP SWAP1 POP DUP1 ISZERO PUSH2 0x31CA JUMPI PUSH2 0x31B0 PUSH2 0x2446 DUP3 PUSH2 0x2710 PUSH2 0x200A JUMP JUMPDEST PUSH1 0x1 PUSH1 0x1 PUSH1 0xA0 SHL SUB DUP4 AND PUSH1 0x0 SWAP1 DUP2 MSTORE PUSH1 0x8 PUSH1 0x20 MSTORE PUSH1 0x40 SWAP1 KECCAK256 SSTORE JUMPDEST PUSH2 0x31DE DUP2 PUSH2 0x31D8 DUP13 DUP7 PUSH2 0x2255 JUMP JUMPDEST SWAP1 PUSH2 0x2255 JUMP JUMPDEST SWAP10 POP PUSH2 0x31EA DUP4 DUP3 PUSH2 0x2080 JUMP JUMPDEST DUP13 DUP10 DUP2 MLOAD DUP2 LT PUSH2 0x31F6 JUMPI INVALID JUMPDEST PUSH1 0x20 SWAP1 DUP2 MUL SWAP2 SWAP1 SWAP2 ADD ADD MSTORE PUSH2 0x320B DUP5 DUP5 PUSH2 0x2080 JUMP JUMPDEST PUSH1 0x0 SWAP8 DUP9 MSTORE PUSH1 0x7 PUSH1 0x20 MSTORE PUSH1 0x40 SWAP1 SWAP8 KECCAK256 SWAP7 SWAP1 SWAP7 SSTORE POP POP PUSH1 0x1 SWAP1 SWAP5 ADD SWAP4 POP PUSH2 0x30FC SWAP3 POP POP POP JUMP JUMPDEST POP PUSH1 0x40 MLOAD PUSH4 0x1759616B PUSH1 0xE1 SHL DUP2 MSTORE PUSH1 0x1 PUSH1 0x1 PUSH1 0xA0 SHL SUB PUSH32 0x0 AND SWAP1 PUSH4 0x2EB2C2D6 SWAP1 PUSH2 0x3283 SWAP1 ADDRESS SWAP1 DUP10 SWAP1 DUP15 SWAP1 DUP15 SWAP1 PUSH1 0x4 ADD PUSH2 0x483E JUMP JUMPDEST PUSH1 0x0 PUSH1 0x40 MLOAD DUP1 DUP4 SUB DUP2 PUSH1 0x0 DUP8 DUP1 EXTCODESIZE ISZERO DUP1 ISZERO PUSH2 0x329D JUMPI PUSH1 0x0 DUP1 REVERT JUMPDEST POP GAS CALL ISZERO DUP1 ISZERO PUSH2 0x32B1 JUMPI RETURNDATASIZE PUSH1 0x0 DUP1 RETURNDATACOPY RETURNDATASIZE PUSH1 0x0 REVERT JUMPDEST POP POP POP POP PUSH1 0x0 DUP3 GT ISZERO PUSH2 0x32E9 JUMPI PUSH2 0x32E9 PUSH32 0x0 DUP7 DUP5 PUSH2 0x20DA JUMP JUMPDEST POP POP POP PUSH1 0x1 PUSH1 0x0 SSTORE SWAP6 SWAP5 POP POP POP POP POP JUMP JUMPDEST PUSH1 0x1 PUSH1 0x1 PUSH1 0xA0 SHL SUB DUP5 AND PUSH1 0x0 SWAP1 DUP2 MSTORE PUSH1 0x1 PUSH1 0x20 SWAP1 DUP2 MSTORE PUSH1 0x40 DUP1 DUP4 KECCAK256 DUP6 DUP5 MSTORE SWAP1 SWAP2 MSTORE SWAP1 KECCAK256 SLOAD PUSH2 0x3328 SWAP1 DUP3 PUSH2 0x2255 JUMP JUMPDEST PUSH1 0x1 PUSH1 0x1 PUSH1 0xA0 SHL SUB DUP1 DUP7 AND PUSH1 0x0 SWAP1 DUP2 MSTORE PUSH1 0x1 PUSH1 0x20 DUP2 DUP2 MSTORE PUSH1 0x40 DUP1 DUP5 KECCAK256 DUP9 DUP6 MSTORE DUP3 MSTORE DUP1 DUP5 KECCAK256 SWAP6 SWAP1 SWAP6 SSTORE SWAP3 DUP8 AND DUP3 MSTORE DUP3 MSTORE DUP3 DUP2 KECCAK256 DUP6 DUP3 MSTORE SWAP1 SWAP2 MSTORE KECCAK256 SLOAD PUSH2 0x336C SWAP1 DUP3 PUSH2 0x2080 JUMP JUMPDEST PUSH1 0x1 PUSH1 0x1 PUSH1 0xA0 SHL SUB DUP1 DUP6 AND PUSH1 0x0 DUP2 DUP2 MSTORE PUSH1 0x1 PUSH1 0x20 SWAP1 DUP2 MSTORE PUSH1 0x40 DUP1 DUP4 KECCAK256 DUP9 DUP5 MSTORE DUP3 MSTORE SWAP2 DUP3 SWAP1 KECCAK256 SWAP5 SWAP1 SWAP5 SSTORE DUP1 MLOAD DUP7 DUP2 MSTORE SWAP4 DUP5 ADD DUP6 SWAP1 MSTORE DUP1 MLOAD SWAP2 SWAP4 SWAP3 DUP9 AND SWAP3 CALLER SWAP3 PUSH32 0xC3D58168C5AE7397731D063D5BBF3D657854427343F4C083240F7AACAA2D0F62 SWAP3 SWAP2 DUP2 SWAP1 SUB SWAP1 SWAP2 ADD SWAP1 LOG4 POP POP POP POP JUMP JUMPDEST PUSH2 0x33ED DUP6 PUSH1 0x1 PUSH1 0x1 PUSH1 0xA0 SHL SUB AND PUSH2 0x3593 JUMP JUMPDEST ISZERO PUSH2 0x2002 JUMPI PUSH1 0x0 DUP6 PUSH1 0x1 PUSH1 0x1 PUSH1 0xA0 SHL SUB AND PUSH4 0xF23A6E61 DUP5 CALLER DUP11 DUP10 DUP10 DUP9 PUSH1 0x40 MLOAD DUP8 PUSH4 0xFFFFFFFF AND PUSH1 0xE0 SHL DUP2 MSTORE PUSH1 0x4 ADD DUP1 DUP7 PUSH1 0x1 PUSH1 0x1 PUSH1 0xA0 SHL SUB AND DUP2 MSTORE PUSH1 0x20 ADD DUP6 PUSH1 0x1 PUSH1 0x1 PUSH1 0xA0 SHL SUB AND DUP2 MSTORE PUSH1 0x20 ADD DUP5 DUP2 MSTORE PUSH1 0x20 ADD DUP4 DUP2 MSTORE PUSH1 0x20 ADD DUP1 PUSH1 0x20 ADD DUP3 DUP2 SUB DUP3 MSTORE DUP4 DUP2 DUP2 MLOAD DUP2 MSTORE PUSH1 0x20 ADD SWAP2 POP DUP1 MLOAD SWAP1 PUSH1 0x20 ADD SWAP1 DUP1 DUP4 DUP4 PUSH1 0x0 JUMPDEST DUP4 DUP2 LT ISZERO PUSH2 0x347F JUMPI DUP2 DUP2 ADD MLOAD DUP4 DUP3 ADD MSTORE PUSH1 0x20 ADD PUSH2 0x3467 JUMP JUMPDEST POP POP POP POP SWAP1 POP SWAP1 DUP2 ADD SWAP1 PUSH1 0x1F AND DUP1 ISZERO PUSH2 0x34AC JUMPI DUP1 DUP3 SUB DUP1 MLOAD PUSH1 0x1 DUP4 PUSH1 0x20 SUB PUSH2 0x100 EXP SUB NOT AND DUP2 MSTORE PUSH1 0x20 ADD SWAP2 POP JUMPDEST POP SWAP7 POP POP POP POP POP POP POP PUSH1 0x20 PUSH1 0x40 MLOAD DUP1 DUP4 SUB DUP2 PUSH1 0x0 DUP9 DUP1 EXTCODESIZE ISZERO DUP1 ISZERO PUSH2 0x34CF JUMPI PUSH1 0x0 DUP1 REVERT JUMPDEST POP DUP8 CALL ISZERO DUP1 ISZERO PUSH2 0x34E3 JUMPI RETURNDATASIZE PUSH1 0x0 DUP1 RETURNDATACOPY RETURNDATASIZE PUSH1 0x0 REVERT JUMPDEST POP POP POP POP POP PUSH1 0x40 MLOAD RETURNDATASIZE PUSH1 0x20 DUP2 LT ISZERO PUSH2 0x34FA JUMPI PUSH1 0x0 DUP1 REVERT JUMPDEST POP MLOAD SWAP1 POP PUSH1 0x1 PUSH1 0x1 PUSH1 0xE0 SHL SUB NOT DUP2 AND PUSH4 0xF23A6E61 PUSH1 0xE0 SHL EQ PUSH2 0x2000 JUMPI PUSH1 0x40 MLOAD PUSH3 0x461BCD PUSH1 0xE5 SHL DUP2 MSTORE PUSH1 0x4 ADD DUP1 DUP1 PUSH1 0x20 ADD DUP3 DUP2 SUB DUP3 MSTORE PUSH1 0x3A DUP2 MSTORE PUSH1 0x20 ADD DUP1 PUSH2 0x5421 PUSH1 0x3A SWAP2 CODECOPY PUSH1 0x40 ADD SWAP2 POP POP PUSH1 0x40 MLOAD DUP1 SWAP2 SUB SWAP1 REVERT JUMPDEST PUSH1 0x0 DUP1 DUP3 DUP5 DUP2 PUSH2 0x3559 JUMPI INVALID JUMPDEST MOD ISZERO PUSH2 0x357B JUMPI PUSH2 0x3574 PUSH1 0x1 DUP5 DUP7 DUP2 PUSH2 0x356D JUMPI INVALID JUMPDEST DIV SWAP1 PUSH2 0x2080 JUMP JUMPDEST PUSH1 0x1 PUSH2 0x3588 JUMP JUMPDEST DUP3 DUP5 DUP2 PUSH2 0x3584 JUMPI INVALID JUMPDEST DIV PUSH1 0x0 JUMPDEST SWAP2 POP SWAP2 POP SWAP3 POP SWAP3 SWAP1 POP JUMP JUMPDEST PUSH1 0x0 DUP2 EXTCODEHASH DUP1 ISZERO DUP1 ISZERO SWAP1 PUSH2 0x2079 JUMPI POP PUSH32 0xC5D2460186F7233C927E7DB2DCC703C0E500B653CA82273B7BFAD8045D85A470 EQ ISZERO SWAP3 SWAP2 POP POP JUMP JUMPDEST DUP1 MLOAD PUSH1 0x60 SWAP1 PUSH1 0x1 DUP2 EQ ISZERO PUSH2 0x36CC JUMPI PUSH1 0x40 DUP1 MLOAD PUSH1 0x1 DUP1 DUP3 MSTORE DUP2 DUP4 ADD SWAP1 SWAP3 MSTORE PUSH1 0x60 SWAP2 PUSH1 0x20 DUP1 DUP4 ADD SWAP1 DUP1 CALLDATASIZE DUP4 CALLDATACOPY ADD SWAP1 POP POP SWAP1 POP PUSH32 0x0 PUSH1 0x1 PUSH1 0x1 PUSH1 0xA0 SHL SUB AND PUSH3 0xFDD58E ADDRESS DUP7 PUSH1 0x0 DUP2 MLOAD DUP2 LT PUSH2 0x3636 JUMPI INVALID JUMPDEST PUSH1 0x20 MUL PUSH1 0x20 ADD ADD MLOAD PUSH1 0x40 MLOAD DUP4 PUSH4 0xFFFFFFFF AND PUSH1 0xE0 SHL DUP2 MSTORE PUSH1 0x4 ADD PUSH2 0x365B SWAP3 SWAP2 SWAP1 PUSH2 0x4896 JUMP JUMPDEST PUSH1 0x20 PUSH1 0x40 MLOAD DUP1 DUP4 SUB DUP2 DUP7 DUP1 EXTCODESIZE ISZERO DUP1 ISZERO PUSH2 0x3673 JUMPI PUSH1 0x0 DUP1 REVERT JUMPDEST POP GAS STATICCALL ISZERO DUP1 ISZERO PUSH2 0x3687 JUMPI RETURNDATASIZE PUSH1 0x0 DUP1 RETURNDATACOPY RETURNDATASIZE PUSH1 0x0 REVERT JUMPDEST POP POP POP POP PUSH1 0x40 MLOAD RETURNDATASIZE PUSH1 0x1F NOT PUSH1 0x1F DUP3 ADD AND DUP3 ADD DUP1 PUSH1 0x40 MSTORE POP DUP2 ADD SWAP1 PUSH2 0x36AB SWAP2 SWAP1 PUSH2 0x46FF JUMP JUMPDEST DUP2 PUSH1 0x0 DUP2 MLOAD DUP2 LT PUSH2 0x36B8 JUMPI INVALID JUMPDEST PUSH1 0x20 SWAP1 DUP2 MUL SWAP2 SWAP1 SWAP2 ADD ADD MSTORE SWAP2 POP PUSH2 0x5A3 SWAP1 POP JUMP JUMPDEST PUSH1 0x60 DUP2 PUSH8 0xFFFFFFFFFFFFFFFF DUP2 GT DUP1 ISZERO PUSH2 0x36E5 JUMPI PUSH1 0x0 DUP1 REVERT JUMPDEST POP PUSH1 0x40 MLOAD SWAP1 DUP1 DUP3 MSTORE DUP1 PUSH1 0x20 MUL PUSH1 0x20 ADD DUP3 ADD PUSH1 0x40 MSTORE DUP1 ISZERO PUSH2 0x370F JUMPI DUP2 PUSH1 0x20 ADD PUSH1 0x20 DUP3 MUL DUP1 CALLDATASIZE DUP4 CALLDATACOPY ADD SWAP1 POP JUMPDEST POP SWAP1 POP ADDRESS DUP2 PUSH1 0x0 DUP2 MLOAD DUP2 LT PUSH2 0x3720 JUMPI INVALID JUMPDEST PUSH1 0x1 PUSH1 0x1 PUSH1 0xA0 SHL SUB SWAP1 SWAP3 AND PUSH1 0x20 SWAP3 DUP4 MUL SWAP2 SWAP1 SWAP2 ADD SWAP1 SWAP2 ADD MSTORE PUSH1 0x1 JUMPDEST DUP3 DUP2 LT ISZERO PUSH2 0x37B8 JUMPI DUP5 DUP2 DUP2 MLOAD DUP2 LT PUSH2 0x374F JUMPI INVALID JUMPDEST PUSH1 0x20 MUL PUSH1 0x20 ADD ADD MLOAD DUP6 PUSH1 0x1 DUP4 SUB DUP2 MLOAD DUP2 LT PUSH2 0x3766 JUMPI INVALID JUMPDEST PUSH1 0x20 MUL PUSH1 0x20 ADD ADD MLOAD LT PUSH2 0x378B JUMPI PUSH1 0x40 MLOAD PUSH3 0x461BCD PUSH1 0xE5 SHL DUP2 MSTORE PUSH1 0x4 ADD PUSH2 0x206 SWAP1 PUSH2 0x4DAD JUMP JUMPDEST ADDRESS DUP3 DUP3 DUP2 MLOAD DUP2 LT PUSH2 0x3798 JUMPI INVALID JUMPDEST PUSH1 0x1 PUSH1 0x1 PUSH1 0xA0 SHL SUB SWAP1 SWAP3 AND PUSH1 0x20 SWAP3 DUP4 MUL SWAP2 SWAP1 SWAP2 ADD SWAP1 SWAP2 ADD MSTORE PUSH1 0x1 ADD PUSH2 0x373B JUMP JUMPDEST POP PUSH1 0x40 MLOAD PUSH32 0x4E1273F400000000000000000000000000000000000000000000000000000000 DUP2 MSTORE PUSH1 0x1 PUSH1 0x1 PUSH1 0xA0 SHL SUB PUSH32 0x0 AND SWAP1 PUSH4 0x4E1273F4 SWAP1 PUSH2 0x3820 SWAP1 DUP5 SWAP1 DUP9 SWAP1 PUSH1 0x4 ADD PUSH2 0x48AF JUMP JUMPDEST PUSH1 0x0 PUSH1 0x40 MLOAD DUP1 DUP4 SUB DUP2 DUP7 DUP1 EXTCODESIZE ISZERO DUP1 ISZERO PUSH2 0x3838 JUMPI PUSH1 0x0 DUP1 REVERT JUMPDEST POP GAS STATICCALL ISZERO DUP1 ISZERO PUSH2 0x384C JUMPI RETURNDATASIZE PUSH1 0x0 DUP1 RETURNDATACOPY RETURNDATASIZE PUSH1 0x0 REVERT JUMPDEST POP POP POP POP PUSH1 0x40 MLOAD RETURNDATASIZE PUSH1 0x0 DUP3 RETURNDATACOPY PUSH1 0x1F RETURNDATASIZE SWAP1 DUP2 ADD PUSH1 0x1F NOT AND DUP3 ADD PUSH1 0x40 MSTORE PUSH2 0x3874 SWAP2 SWAP1 DUP2 ADD SWAP1 PUSH2 0x42ED JUMP JUMPDEST SWAP3 POP POP POP PUSH2 0x5A3 JUMP JUMPDEST DUP2 MLOAD DUP4 MLOAD EQ PUSH2 0x38BD JUMPI PUSH1 0x40 MLOAD PUSH3 0x461BCD PUSH1 0xE5 SHL DUP2 MSTORE PUSH1 0x4 ADD DUP1 DUP1 PUSH1 0x20 ADD DUP3 DUP2 SUB DUP3 MSTORE PUSH1 0x30 DUP2 MSTORE PUSH1 0x20 ADD DUP1 PUSH2 0x53B2 PUSH1 0x30 SWAP2 CODECOPY PUSH1 0x40 ADD SWAP2 POP POP PUSH1 0x40 MLOAD DUP1 SWAP2 SUB SWAP1 REVERT JUMPDEST DUP3 MLOAD PUSH1 0x0 JUMPDEST DUP2 DUP2 LT ISZERO PUSH2 0x3960 JUMPI PUSH2 0x3914 DUP5 DUP3 DUP2 MLOAD DUP2 LT PUSH2 0x38D9 JUMPI INVALID JUMPDEST PUSH1 0x20 MUL PUSH1 0x20 ADD ADD MLOAD PUSH1 0x1 PUSH1 0x0 DUP10 PUSH1 0x1 PUSH1 0x1 PUSH1 0xA0 SHL SUB AND PUSH1 0x1 PUSH1 0x1 PUSH1 0xA0 SHL SUB AND DUP2 MSTORE PUSH1 0x20 ADD SWAP1 DUP2 MSTORE PUSH1 0x20 ADD PUSH1 0x0 KECCAK256 PUSH1 0x0 DUP9 DUP6 DUP2 MLOAD DUP2 LT PUSH2 0x1CC0 JUMPI INVALID JUMPDEST PUSH1 0x1 PUSH1 0x1 PUSH1 0xA0 SHL SUB DUP8 AND PUSH1 0x0 SWAP1 DUP2 MSTORE PUSH1 0x1 PUSH1 0x20 MSTORE PUSH1 0x40 DUP2 KECCAK256 DUP8 MLOAD SWAP1 SWAP2 SWAP1 DUP9 SWAP1 DUP6 SWAP1 DUP2 LT PUSH2 0x393D JUMPI INVALID JUMPDEST PUSH1 0x20 SWAP1 DUP2 MUL SWAP2 SWAP1 SWAP2 ADD DUP2 ADD MLOAD DUP3 MSTORE DUP2 ADD SWAP2 SWAP1 SWAP2 MSTORE PUSH1 0x40 ADD PUSH1 0x0 KECCAK256 SSTORE PUSH1 0x1 ADD PUSH2 0x38C2 JUMP JUMPDEST POP DUP5 PUSH1 0x1 PUSH1 0x1 PUSH1 0xA0 SHL SUB AND PUSH1 0x0 PUSH1 0x1 PUSH1 0x1 PUSH1 0xA0 SHL SUB AND CALLER PUSH1 0x1 PUSH1 0x1 PUSH1 0xA0 SHL SUB AND PUSH32 0x4A39DC06D4C0DBC64B70AF90FD698A233A518AA5D07E595D983B8C0526C8F7FB DUP8 DUP8 PUSH1 0x40 MLOAD DUP1 DUP1 PUSH1 0x20 ADD DUP1 PUSH1 0x20 ADD DUP4 DUP2 SUB DUP4 MSTORE DUP6 DUP2 DUP2 MLOAD DUP2 MSTORE PUSH1 0x20 ADD SWAP2 POP DUP1 MLOAD SWAP1 PUSH1 0x20 ADD SWAP1 PUSH1 0x20 MUL DUP1 DUP4 DUP4 PUSH1 0x0 JUMPDEST DUP4 DUP2 LT ISZERO PUSH2 0x39E7 JUMPI DUP2 DUP2 ADD MLOAD DUP4 DUP3 ADD MSTORE PUSH1 0x20 ADD PUSH2 0x39CF JUMP JUMPDEST POP POP POP POP SWAP1 POP ADD DUP4 DUP2 SUB DUP3 MSTORE DUP5 DUP2 DUP2 MLOAD DUP2 MSTORE PUSH1 0x20 ADD SWAP2 POP DUP1 MLOAD SWAP1 PUSH1 0x20 ADD SWAP1 PUSH1 0x20 MUL DUP1 DUP4 DUP4 PUSH1 0x0 JUMPDEST DUP4 DUP2 LT ISZERO PUSH2 0x3A26 JUMPI DUP2 DUP2 ADD MLOAD DUP4 DUP3 ADD MSTORE PUSH1 0x20 ADD PUSH2 0x3A0E JUMP JUMPDEST POP POP POP POP SWAP1 POP ADD SWAP5 POP POP POP POP POP PUSH1 0x40 MLOAD DUP1 SWAP2 SUB SWAP1 LOG4 PUSH2 0x8ED PUSH1 0x0 DUP7 DUP7 DUP7 GAS DUP8 PUSH2 0x1E12 JUMP JUMPDEST PUSH1 0x0 DUP1 DUP1 DUP1 DUP1 DUP1 DUP1 PUSH2 0x3A5C DUP12 DUP11 PUSH2 0x200A JUMP JUMPDEST SWAP1 POP PUSH1 0x0 PUSH2 0x3A6A DUP13 DUP13 PUSH2 0x200A JUMP JUMPDEST SWAP1 POP DUP9 DUP2 DUP2 PUSH2 0x3A75 JUMPI INVALID JUMPDEST MOD SWAP6 POP DUP6 ISZERO PUSH2 0x3B18 JUMPI PUSH1 0x0 PUSH2 0x3AA0 DUP11 PUSH2 0x1B33 DUP13 DUP6 DUP2 PUSH2 0x3A90 JUMPI INVALID JUMPDEST DIV DUP16 PUSH2 0x2255 SWAP1 SWAP2 SWAP1 PUSH4 0xFFFFFFFF AND JUMP JUMPDEST SWAP1 POP PUSH1 0x0 PUSH2 0x3AB4 DUP12 PUSH2 0x1B33 DUP14 DUP8 DUP2 PUSH2 0x3A90 JUMPI INVALID JUMPDEST SWAP1 POP DUP1 ISZERO DUP1 ISZERO SWAP1 PUSH2 0x3AC4 JUMPI POP DUP2 ISZERO ISZERO JUMPDEST ISZERO PUSH2 0x3B15 JUMPI PUSH2 0x3AD4 DUP9 DUP4 DUP4 PUSH2 0xA74 JUMP JUMPDEST SWAP7 POP PUSH2 0x3AE0 DUP16 DUP9 PUSH2 0x15B8 JUMP JUMPDEST SWAP1 SWAP7 POP SWAP5 POP PUSH2 0x3AEF DUP8 DUP7 PUSH2 0x2255 JUMP JUMPDEST SWAP7 POP PUSH2 0x3AFB DUP5 DUP9 PUSH2 0x2080 JUMP JUMPDEST SWAP4 POP DUP11 PUSH2 0x3B0A DUP7 PUSH2 0x2710 PUSH2 0x200A JUMP JUMPDEST DUP2 PUSH2 0x3B11 JUMPI INVALID JUMPDEST DIV SWAP5 POP JUMPDEST POP POP JUMPDEST DUP9 DUP3 DUP2 PUSH2 0x3B21 JUMPI INVALID JUMPDEST DIV SWAP8 POP DUP9 DUP2 DUP2 PUSH2 0x3B2D JUMPI INVALID JUMPDEST DIV SWAP7 POP POP POP SWAP6 POP SWAP6 POP SWAP6 POP SWAP6 POP SWAP6 POP SWAP6 JUMP JUMPDEST DUP2 MLOAD DUP2 MLOAD DUP2 EQ PUSH2 0x3B80 JUMPI PUSH1 0x40 MLOAD PUSH3 0x461BCD PUSH1 0xE5 SHL DUP2 MSTORE PUSH1 0x4 ADD DUP1 DUP1 PUSH1 0x20 ADD DUP3 DUP2 SUB DUP3 MSTORE PUSH1 0x30 DUP2 MSTORE PUSH1 0x20 ADD DUP1 PUSH2 0x5327 PUSH1 0x30 SWAP2 CODECOPY PUSH1 0x40 ADD SWAP2 POP POP PUSH1 0x40 MLOAD DUP1 SWAP2 SUB SWAP1 REVERT JUMPDEST PUSH1 0x0 JUMPDEST DUP2 DUP2 LT ISZERO PUSH2 0x3C21 JUMPI PUSH2 0x3BD5 DUP4 DUP3 DUP2 MLOAD DUP2 LT PUSH2 0x3B9A JUMPI INVALID JUMPDEST PUSH1 0x20 MUL PUSH1 0x20 ADD ADD MLOAD PUSH1 0x1 PUSH1 0x0 DUP9 PUSH1 0x1 PUSH1 0x1 PUSH1 0xA0 SHL SUB AND PUSH1 0x1 PUSH1 0x1 PUSH1 0xA0 SHL SUB AND DUP2 MSTORE PUSH1 0x20 ADD SWAP1 DUP2 MSTORE PUSH1 0x20 ADD PUSH1 0x0 KECCAK256 PUSH1 0x0 DUP8 DUP6 DUP2 MLOAD DUP2 LT PUSH2 0x1C0E JUMPI INVALID JUMPDEST PUSH1 0x1 PUSH1 0x1 PUSH1 0xA0 SHL SUB DUP7 AND PUSH1 0x0 SWAP1 DUP2 MSTORE PUSH1 0x1 PUSH1 0x20 MSTORE PUSH1 0x40 DUP2 KECCAK256 DUP7 MLOAD SWAP1 SWAP2 SWAP1 DUP8 SWAP1 DUP6 SWAP1 DUP2 LT PUSH2 0x3BFE JUMPI INVALID JUMPDEST PUSH1 0x20 SWAP1 DUP2 MUL SWAP2 SWAP1 SWAP2 ADD DUP2 ADD MLOAD DUP3 MSTORE DUP2 ADD SWAP2 SWAP1 SWAP2 MSTORE PUSH1 0x40 ADD PUSH1 0x0 KECCAK256 SSTORE PUSH1 0x1 ADD PUSH2 0x3B83 JUMP JUMPDEST POP PUSH1 0x0 PUSH1 0x1 PUSH1 0x1 PUSH1 0xA0 SHL SUB AND DUP5 PUSH1 0x1 PUSH1 0x1 PUSH1 0xA0 SHL SUB AND CALLER PUSH1 0x1 PUSH1 0x1 PUSH1 0xA0 SHL SUB AND PUSH32 0x4A39DC06D4C0DBC64B70AF90FD698A233A518AA5D07E595D983B8C0526C8F7FB DUP7 DUP7 PUSH1 0x40 MLOAD DUP1 DUP1 PUSH1 0x20 ADD DUP1 PUSH1 0x20 ADD DUP4 DUP2 SUB DUP4 MSTORE DUP6 DUP2 DUP2 MLOAD DUP2 MSTORE PUSH1 0x20 ADD SWAP2 POP DUP1 MLOAD SWAP1 PUSH1 0x20 ADD SWAP1 PUSH1 0x20 MUL DUP1 DUP4 DUP4 PUSH1 0x0 JUMPDEST DUP4 DUP2 LT ISZERO PUSH2 0x3CA8 JUMPI DUP2 DUP2 ADD MLOAD DUP4 DUP3 ADD MSTORE PUSH1 0x20 ADD PUSH2 0x3C90 JUMP JUMPDEST POP POP POP POP SWAP1 POP ADD DUP4 DUP2 SUB DUP3 MSTORE DUP5 DUP2 DUP2 MLOAD DUP2 MSTORE PUSH1 0x20 ADD SWAP2 POP DUP1 MLOAD SWAP1 PUSH1 0x20 ADD SWAP1 PUSH1 0x20 MUL DUP1 DUP4 DUP4 PUSH1 0x0 JUMPDEST DUP4 DUP2 LT ISZERO PUSH2 0x3CE7 JUMPI DUP2 DUP2 ADD MLOAD DUP4 DUP3 ADD MSTORE PUSH1 0x20 ADD PUSH2 0x3CCF JUMP JUMPDEST POP POP POP POP SWAP1 POP ADD SWAP5 POP POP POP POP POP PUSH1 0x40 MLOAD DUP1 SWAP2 SUB SWAP1 LOG4 POP POP POP POP JUMP JUMPDEST PUSH1 0x40 MLOAD DUP1 PUSH1 0xA0 ADD PUSH1 0x40 MSTORE DUP1 PUSH1 0x0 PUSH1 0x1 PUSH1 0x1 PUSH1 0xA0 SHL SUB AND DUP2 MSTORE PUSH1 0x20 ADD PUSH1 0x0 DUP2 MSTORE PUSH1 0x20 ADD PUSH1 0x60 DUP2 MSTORE PUSH1 0x20 ADD PUSH1 0x60 DUP2 MSTORE PUSH1 0x20 ADD PUSH1 0x0 DUP2 MSTORE POP SWAP1 JUMP JUMPDEST PUSH1 0x40 MLOAD DUP1 PUSH1 0x40 ADD PUSH1 0x40 MSTORE DUP1 PUSH1 0x60 DUP2 MSTORE PUSH1 0x20 ADD PUSH1 0x0 DUP2 MSTORE POP SWAP1 JUMP JUMPDEST PUSH1 0x40 MLOAD DUP1 PUSH1 0x60 ADD PUSH1 0x40 MSTORE DUP1 PUSH1 0x60 DUP2 MSTORE PUSH1 0x20 ADD PUSH1 0x60 DUP2 MSTORE PUSH1 0x20 ADD PUSH1 0x0 DUP2 MSTORE POP SWAP1 JUMP JUMPDEST PUSH1 0x40 MLOAD DUP1 PUSH1 0x80 ADD PUSH1 0x40 MSTORE DUP1 PUSH1 0x0 DUP2 MSTORE PUSH1 0x20 ADD PUSH1 0x0 DUP2 MSTORE PUSH1 0x20 ADD PUSH1 0x0 DUP2 MSTORE PUSH1 0x20 ADD PUSH1 0x0 DUP2 MSTORE POP SWAP1 JUMP JUMPDEST DUP1 CALLDATALOAD PUSH2 0x5A3 DUP2 PUSH2 0x51FF JUMP JUMPDEST DUP1 MLOAD PUSH2 0x5A3 DUP2 PUSH2 0x51FF JUMP JUMPDEST PUSH1 0x0 DUP3 PUSH1 0x1F DUP4 ADD SLT PUSH2 0x3DC3 JUMPI DUP1 DUP2 REVERT JUMPDEST DUP2 CALLDATALOAD PUSH2 0x3DD6 PUSH2 0x3DD1 DUP3 PUSH2 0x518F JUMP JUMPDEST PUSH2 0x516B JUMP JUMPDEST DUP2 DUP2 MSTORE SWAP2 POP PUSH1 0x20 DUP1 DUP4 ADD SWAP1 DUP5 DUP2 ADD DUP2 DUP5 MUL DUP7 ADD DUP3 ADD DUP8 LT ISZERO PUSH2 0x3DF7 JUMPI PUSH1 0x0 DUP1 REVERT JUMPDEST PUSH1 0x0 JUMPDEST DUP5 DUP2 LT ISZERO PUSH2 0x3E1F JUMPI DUP2 CALLDATALOAD PUSH2 0x3E0D DUP2 PUSH2 0x51FF JUMP JUMPDEST DUP5 MSTORE SWAP3 DUP3 ADD SWAP3 SWAP1 DUP3 ADD SWAP1 PUSH1 0x1 ADD PUSH2 0x3DFA JUMP JUMPDEST POP POP POP POP POP SWAP3 SWAP2 POP POP JUMP JUMPDEST PUSH1 0x0 DUP3 PUSH1 0x1F DUP4 ADD SLT PUSH2 0x3E3A JUMPI DUP1 DUP2 REVERT JUMPDEST DUP2 MLOAD PUSH2 0x3E48 PUSH2 0x3DD1 DUP3 PUSH2 0x518F JUMP JUMPDEST DUP2 DUP2 MSTORE SWAP2 POP PUSH1 0x20 DUP1 DUP4 ADD SWAP1 DUP5 DUP2 ADD DUP2 DUP5 MUL DUP7 ADD DUP3 ADD DUP8 LT ISZERO PUSH2 0x3E69 JUMPI PUSH1 0x0 DUP1 REVERT JUMPDEST PUSH1 0x0 JUMPDEST DUP5 DUP2 LT ISZERO PUSH2 0x3E1F JUMPI DUP2 MLOAD PUSH2 0x3E7F DUP2 PUSH2 0x51FF JUMP JUMPDEST DUP5 MSTORE SWAP3 DUP3 ADD SWAP3 SWAP1 DUP3 ADD SWAP1 PUSH1 0x1 ADD PUSH2 0x3E6C JUMP JUMPDEST PUSH1 0x0 DUP1 DUP4 PUSH1 0x1F DUP5 ADD SLT PUSH2 0x3EA2 JUMPI DUP2 DUP3 REVERT JUMPDEST POP DUP2 CALLDATALOAD PUSH8 0xFFFFFFFFFFFFFFFF DUP2 GT ISZERO PUSH2 0x3EB9 JUMPI DUP2 DUP3 REVERT JUMPDEST PUSH1 0x20 DUP4 ADD SWAP2 POP DUP4 PUSH1 0x20 DUP1 DUP4 MUL DUP6 ADD ADD GT ISZERO PUSH2 0x1704 JUMPI PUSH1 0x0 DUP1 REVERT JUMPDEST PUSH1 0x0 DUP3 PUSH1 0x1F DUP4 ADD SLT PUSH2 0x3EE3 JUMPI DUP1 DUP2 REVERT JUMPDEST DUP2 CALLDATALOAD PUSH2 0x3EF1 PUSH2 0x3DD1 DUP3 PUSH2 0x518F JUMP JUMPDEST DUP2 DUP2 MSTORE SWAP2 POP PUSH1 0x20 DUP1 DUP4 ADD SWAP1 DUP5 DUP2 ADD DUP2 DUP5 MUL DUP7 ADD DUP3 ADD DUP8 LT ISZERO PUSH2 0x3F12 JUMPI PUSH1 0x0 DUP1 REVERT JUMPDEST PUSH1 0x0 JUMPDEST DUP5 DUP2 LT ISZERO PUSH2 0x3E1F JUMPI DUP2 CALLDATALOAD DUP5 MSTORE SWAP3 DUP3 ADD SWAP3 SWAP1 DUP3 ADD SWAP1 PUSH1 0x1 ADD PUSH2 0x3F15 JUMP JUMPDEST PUSH1 0x0 DUP3 PUSH1 0x1F DUP4 ADD SLT PUSH2 0x3F41 JUMPI DUP1 DUP2 REVERT JUMPDEST DUP2 MLOAD PUSH2 0x3F4F PUSH2 0x3DD1 DUP3 PUSH2 0x518F JUMP JUMPDEST DUP2 DUP2 MSTORE SWAP2 POP PUSH1 0x20 DUP1 DUP4 ADD SWAP1 DUP5 DUP2 ADD DUP2 DUP5 MUL DUP7 ADD DUP3 ADD DUP8 LT ISZERO PUSH2 0x3F70 JUMPI PUSH1 0x0 DUP1 REVERT JUMPDEST PUSH1 0x0 JUMPDEST DUP5 DUP2 LT ISZERO PUSH2 0x3E1F JUMPI DUP2 MLOAD DUP5 MSTORE SWAP3 DUP3 ADD SWAP3 SWAP1 DUP3 ADD SWAP1 PUSH1 0x1 ADD PUSH2 0x3F73 JUMP JUMPDEST PUSH1 0x0 DUP3 PUSH1 0x1F DUP4 ADD SLT PUSH2 0x3F9F JUMPI DUP1 DUP2 REVERT JUMPDEST DUP2 CALLDATALOAD PUSH2 0x3FAD PUSH2 0x3DD1 DUP3 PUSH2 0x51AD JUMP JUMPDEST SWAP2 POP DUP1 DUP3 MSTORE DUP4 PUSH1 0x20 DUP3 DUP6 ADD ADD GT ISZERO PUSH2 0x3FC4 JUMPI PUSH1 0x0 DUP1 REVERT JUMPDEST DUP1 PUSH1 0x20 DUP5 ADD PUSH1 0x20 DUP5 ADD CALLDATACOPY PUSH1 0x0 SWAP1 DUP3 ADD PUSH1 0x20 ADD MSTORE SWAP3 SWAP2 POP POP JUMP JUMPDEST PUSH1 0x0 PUSH1 0x20 DUP3 DUP5 SUB SLT ISZERO PUSH2 0x3FEE JUMPI DUP1 DUP2 REVERT JUMPDEST DUP2 CALLDATALOAD PUSH2 0x2079 DUP2 PUSH2 0x51FF JUMP JUMPDEST PUSH1 0x0 PUSH1 0x20 DUP3 DUP5 SUB SLT ISZERO PUSH2 0x400A JUMPI DUP1 DUP2 REVERT JUMPDEST DUP2 MLOAD PUSH2 0x2079 DUP2 PUSH2 0x51FF JUMP JUMPDEST PUSH1 0x0 DUP1 PUSH1 0x40 DUP4 DUP6 SUB SLT ISZERO PUSH2 0x4027 JUMPI DUP1 DUP2 REVERT JUMPDEST DUP3 CALLDATALOAD PUSH2 0x4032 DUP2 PUSH2 0x51FF JUMP JUMPDEST SWAP2 POP PUSH1 0x20 DUP4 ADD CALLDATALOAD PUSH2 0x4042 DUP2 PUSH2 0x51FF JUMP JUMPDEST DUP1 SWAP2 POP POP SWAP3 POP SWAP3 SWAP1 POP JUMP JUMPDEST PUSH1 0x0 DUP1 PUSH1 0x0 DUP1 PUSH1 0x0 PUSH1 0xA0 DUP7 DUP9 SUB SLT ISZERO PUSH2 0x4064 JUMPI DUP1 DUP2 REVERT JUMPDEST DUP6 CALLDATALOAD PUSH2 0x406F DUP2 PUSH2 0x51FF JUMP JUMPDEST SWAP5 POP PUSH1 0x20 DUP7 ADD CALLDATALOAD PUSH2 0x407F DUP2 PUSH2 0x51FF JUMP JUMPDEST SWAP4 POP PUSH1 0x40 DUP7 ADD CALLDATALOAD PUSH8 0xFFFFFFFFFFFFFFFF DUP1 DUP3 GT ISZERO PUSH2 0x409B JUMPI DUP3 DUP4 REVERT JUMPDEST PUSH2 0x40A7 DUP10 DUP4 DUP11 ADD PUSH2 0x3ED3 JUMP JUMPDEST SWAP5 POP PUSH1 0x60 DUP9 ADD CALLDATALOAD SWAP2 POP DUP1 DUP3 GT ISZERO PUSH2 0x40BC JUMPI DUP3 DUP4 REVERT JUMPDEST PUSH2 0x40C8 DUP10 DUP4 DUP11 ADD PUSH2 0x3ED3 JUMP JUMPDEST SWAP4 POP PUSH1 0x80 DUP9 ADD CALLDATALOAD SWAP2 POP DUP1 DUP3 GT ISZERO PUSH2 0x40DD JUMPI DUP3 DUP4 REVERT JUMPDEST POP PUSH2 0x40EA DUP9 DUP3 DUP10 ADD PUSH2 0x3F8F JUMP JUMPDEST SWAP2 POP POP SWAP3 SWAP6 POP SWAP3 SWAP6 SWAP1 SWAP4 POP JUMP JUMPDEST PUSH1 0x0 DUP1 PUSH1 0x0 DUP1 PUSH1 0x0 PUSH1 0xA0 DUP7 DUP9 SUB SLT ISZERO PUSH2 0x410E JUMPI DUP3 DUP4 REVERT JUMPDEST DUP6 CALLDATALOAD PUSH2 0x4119 DUP2 PUSH2 0x51FF JUMP JUMPDEST SWAP5 POP PUSH1 0x20 DUP7 ADD CALLDATALOAD PUSH2 0x4129 DUP2 PUSH2 0x51FF JUMP JUMPDEST SWAP4 POP PUSH1 0x40 DUP7 ADD CALLDATALOAD SWAP3 POP PUSH1 0x60 DUP7 ADD CALLDATALOAD SWAP2 POP PUSH1 0x80 DUP7 ADD CALLDATALOAD PUSH8 0xFFFFFFFFFFFFFFFF DUP2 GT ISZERO PUSH2 0x4152 JUMPI DUP2 DUP3 REVERT JUMPDEST PUSH2 0x40EA DUP9 DUP3 DUP10 ADD PUSH2 0x3F8F JUMP JUMPDEST PUSH1 0x0 DUP1 PUSH1 0x40 DUP4 DUP6 SUB SLT ISZERO PUSH2 0x4170 JUMPI DUP2 DUP3 REVERT JUMPDEST DUP3 CALLDATALOAD PUSH2 0x417B DUP2 PUSH2 0x51FF JUMP JUMPDEST SWAP2 POP PUSH1 0x20 DUP4 ADD CALLDATALOAD PUSH2 0x4042 DUP2 PUSH2 0x5217 JUMP JUMPDEST PUSH1 0x0 DUP1 PUSH1 0x40 DUP4 DUP6 SUB SLT ISZERO PUSH2 0x419D JUMPI DUP2 DUP3 REVERT JUMPDEST DUP3 CALLDATALOAD PUSH2 0x41A8 DUP2 PUSH2 0x51FF JUMP JUMPDEST SWAP5 PUSH1 0x20 SWAP4 SWAP1 SWAP4 ADD CALLDATALOAD SWAP4 POP POP POP JUMP JUMPDEST PUSH1 0x0 DUP1 PUSH1 0x40 DUP4 DUP6 SUB SLT ISZERO PUSH2 0x41C8 JUMPI DUP2 DUP3 REVERT JUMPDEST DUP3 MLOAD PUSH2 0x41D3 DUP2 PUSH2 0x51FF JUMP JUMPDEST PUSH1 0x20 SWAP4 SWAP1 SWAP4 ADD MLOAD SWAP3 SWAP5 SWAP3 SWAP4 POP POP POP JUMP JUMPDEST PUSH1 0x0 DUP1 PUSH1 0x40 DUP4 DUP6 SUB SLT ISZERO PUSH2 0x41F5 JUMPI DUP2 DUP3 REVERT JUMPDEST DUP3 CALLDATALOAD PUSH8 0xFFFFFFFFFFFFFFFF DUP1 DUP3 GT ISZERO PUSH2 0x420C JUMPI DUP4 DUP5 REVERT JUMPDEST PUSH2 0x4218 DUP7 DUP4 DUP8 ADD PUSH2 0x3DB3 JUMP JUMPDEST SWAP4 POP PUSH1 0x20 DUP6 ADD CALLDATALOAD SWAP2 POP DUP1 DUP3 GT ISZERO PUSH2 0x422D JUMPI DUP3 DUP4 REVERT JUMPDEST POP PUSH2 0x423A DUP6 DUP3 DUP7 ADD PUSH2 0x3ED3 JUMP JUMPDEST SWAP2 POP POP SWAP3 POP SWAP3 SWAP1 POP JUMP JUMPDEST PUSH1 0x0 DUP1 PUSH1 0x20 DUP4 DUP6 SUB SLT ISZERO PUSH2 0x4256 JUMPI DUP2 DUP3 REVERT JUMPDEST DUP3 CALLDATALOAD PUSH8 0xFFFFFFFFFFFFFFFF DUP2 GT ISZERO PUSH2 0x426C JUMPI DUP3 DUP4 REVERT JUMPDEST PUSH2 0x4278 DUP6 DUP3 DUP7 ADD PUSH2 0x3E91 JUMP JUMPDEST SWAP1 SWAP7 SWAP1 SWAP6 POP SWAP4 POP POP POP POP JUMP JUMPDEST PUSH1 0x0 DUP1 PUSH1 0x0 DUP1 PUSH1 0x40 DUP6 DUP8 SUB SLT ISZERO PUSH2 0x4299 JUMPI DUP2 DUP3 REVERT JUMPDEST DUP5 CALLDATALOAD PUSH8 0xFFFFFFFFFFFFFFFF DUP1 DUP3 GT ISZERO PUSH2 0x42B0 JUMPI DUP4 DUP5 REVERT JUMPDEST PUSH2 0x42BC DUP9 DUP4 DUP10 ADD PUSH2 0x3E91 JUMP JUMPDEST SWAP1 SWAP7 POP SWAP5 POP PUSH1 0x20 DUP8 ADD CALLDATALOAD SWAP2 POP DUP1 DUP3 GT ISZERO PUSH2 0x42D4 JUMPI DUP4 DUP5 REVERT JUMPDEST POP PUSH2 0x42E1 DUP8 DUP3 DUP9 ADD PUSH2 0x3E91 JUMP JUMPDEST SWAP6 SWAP9 SWAP5 SWAP8 POP SWAP6 POP POP POP POP JUMP JUMPDEST PUSH1 0x0 PUSH1 0x20 DUP3 DUP5 SUB SLT ISZERO PUSH2 0x42FE JUMPI DUP1 DUP2 REVERT JUMPDEST DUP2 MLOAD PUSH8 0xFFFFFFFFFFFFFFFF DUP2 GT ISZERO PUSH2 0x4314 JUMPI DUP2 DUP3 REVERT JUMPDEST PUSH2 0x4320 DUP5 DUP3 DUP6 ADD PUSH2 0x3F31 JUMP JUMPDEST SWAP5 SWAP4 POP POP POP POP JUMP JUMPDEST PUSH1 0x0 DUP1 PUSH1 0x0 DUP1 PUSH1 0x0 DUP1 PUSH1 0x0 PUSH1 0xE0 DUP9 DUP11 SUB SLT ISZERO PUSH2 0x4342 JUMPI DUP5 DUP6 REVERT JUMPDEST DUP8 CALLDATALOAD PUSH8 0xFFFFFFFFFFFFFFFF DUP1 DUP3 GT ISZERO PUSH2 0x4359 JUMPI DUP7 DUP8 REVERT JUMPDEST PUSH2 0x4365 DUP12 DUP4 DUP13 ADD PUSH2 0x3ED3 JUMP JUMPDEST SWAP9 POP PUSH1 0x20 DUP11 ADD CALLDATALOAD SWAP2 POP DUP1 DUP3 GT ISZERO PUSH2 0x437A JUMPI DUP7 DUP8 REVERT JUMPDEST PUSH2 0x4386 DUP12 DUP4 DUP13 ADD PUSH2 0x3ED3 JUMP JUMPDEST SWAP8 POP PUSH1 0x40 DUP11 ADD CALLDATALOAD SWAP7 POP PUSH1 0x60 DUP11 ADD CALLDATALOAD SWAP6 POP PUSH2 0x43A2 PUSH1 0x80 DUP12 ADD PUSH2 0x3D9D JUMP JUMPDEST SWAP5 POP PUSH1 0xA0 DUP11 ADD CALLDATALOAD SWAP2 POP DUP1 DUP3 GT ISZERO PUSH2 0x43B7 JUMPI DUP4 DUP5 REVERT JUMPDEST PUSH2 0x43C3 DUP12 DUP4 DUP13 ADD PUSH2 0x3DB3 JUMP JUMPDEST SWAP4 POP PUSH1 0xC0 DUP11 ADD CALLDATALOAD SWAP2 POP DUP1 DUP3 GT ISZERO PUSH2 0x43D8 JUMPI DUP3 DUP4 REVERT JUMPDEST POP PUSH2 0x43E5 DUP11 DUP3 DUP12 ADD PUSH2 0x3ED3 JUMP JUMPDEST SWAP2 POP POP SWAP3 SWAP6 SWAP9 SWAP2 SWAP5 SWAP8 POP SWAP3 SWAP6 POP JUMP JUMPDEST PUSH1 0x0 PUSH1 0x20 DUP3 DUP5 SUB SLT ISZERO PUSH2 0x4405 JUMPI DUP1 DUP2 REVERT JUMPDEST DUP2 MLOAD PUSH2 0x2079 DUP2 PUSH2 0x5217 JUMP JUMPDEST PUSH1 0x0 PUSH1 0x20 DUP3 DUP5 SUB SLT ISZERO PUSH2 0x4421 JUMPI DUP1 DUP2 REVERT JUMPDEST DUP2 CALLDATALOAD PUSH2 0x2079 DUP2 PUSH2 0x5225 JUMP JUMPDEST PUSH1 0x0 PUSH1 0x20 DUP3 DUP5 SUB SLT ISZERO PUSH2 0x443D JUMPI DUP1 DUP2 REVERT JUMPDEST DUP2 MLOAD PUSH2 0x2079 DUP2 PUSH2 0x5225 JUMP JUMPDEST PUSH1 0x0 DUP1 PUSH1 0x40 DUP4 DUP6 SUB SLT ISZERO PUSH2 0x445A JUMPI DUP2 DUP3 REVERT JUMPDEST DUP3 MLOAD PUSH2 0x4465 DUP2 PUSH2 0x5225 JUMP JUMPDEST PUSH1 0x20 DUP5 ADD MLOAD SWAP1 SWAP3 POP PUSH8 0xFFFFFFFFFFFFFFFF DUP1 DUP3 GT ISZERO PUSH2 0x4482 JUMPI DUP3 DUP4 REVERT JUMPDEST SWAP1 DUP5 ADD SWAP1 PUSH1 0x40 DUP3 DUP8 SUB SLT ISZERO PUSH2 0x4495 JUMPI DUP3 DUP4 REVERT JUMPDEST PUSH1 0x40 MLOAD PUSH1 0x40 DUP2 ADD DUP2 DUP2 LT DUP4 DUP3 GT OR ISZERO PUSH2 0x44AA JUMPI INVALID JUMPDEST PUSH1 0x40 MSTORE DUP3 MLOAD DUP3 DUP2 GT ISZERO PUSH2 0x44BB JUMPI DUP5 DUP6 REVERT JUMPDEST PUSH2 0x44C7 DUP9 DUP3 DUP7 ADD PUSH2 0x3F31 JUMP JUMPDEST DUP3 MSTORE POP PUSH1 0x20 DUP4 ADD MLOAD PUSH1 0x20 DUP3 ADD MSTORE DUP1 SWAP4 POP POP POP POP SWAP3 POP SWAP3 SWAP1 POP JUMP JUMPDEST PUSH1 0x0 DUP1 PUSH1 0x40 DUP4 DUP6 SUB SLT ISZERO PUSH2 0x44F3 JUMPI DUP2 DUP3 REVERT JUMPDEST DUP3 MLOAD PUSH2 0x44FE DUP2 PUSH2 0x5225 JUMP JUMPDEST PUSH1 0x20 DUP5 ADD MLOAD SWAP1 SWAP3 POP PUSH8 0xFFFFFFFFFFFFFFFF DUP1 DUP3 GT ISZERO PUSH2 0x451B JUMPI DUP3 DUP4 REVERT JUMPDEST SWAP1 DUP5 ADD SWAP1 PUSH1 0x60 DUP3 DUP8 SUB SLT ISZERO PUSH2 0x452E JUMPI DUP3 DUP4 REVERT JUMPDEST PUSH1 0x40 MLOAD PUSH1 0x60 DUP2 ADD DUP2 DUP2 LT DUP4 DUP3 GT OR ISZERO PUSH2 0x4543 JUMPI INVALID JUMPDEST PUSH1 0x40 MSTORE DUP3 MLOAD DUP3 DUP2 GT ISZERO PUSH2 0x4554 JUMPI DUP5 DUP6 REVERT JUMPDEST PUSH2 0x4560 DUP9 DUP3 DUP7 ADD PUSH2 0x3F31 JUMP JUMPDEST DUP3 MSTORE POP PUSH1 0x20 DUP4 ADD MLOAD DUP3 DUP2 GT ISZERO PUSH2 0x4574 JUMPI DUP5 DUP6 REVERT JUMPDEST PUSH2 0x4580 DUP9 DUP3 DUP7 ADD PUSH2 0x3F31 JUMP JUMPDEST PUSH1 0x20 DUP4 ADD MSTORE POP PUSH1 0x40 DUP4 ADD MLOAD PUSH1 0x40 DUP3 ADD MSTORE DUP1 SWAP4 POP POP POP POP SWAP3 POP SWAP3 SWAP1 POP JUMP JUMPDEST PUSH1 0x0 DUP1 PUSH1 0x40 DUP4 DUP6 SUB SLT ISZERO PUSH2 0x45AF JUMPI DUP2 DUP3 REVERT JUMPDEST DUP3 MLOAD PUSH2 0x45BA DUP2 PUSH2 0x5225 JUMP JUMPDEST PUSH1 0x20 DUP5 ADD MLOAD SWAP1 SWAP3 POP PUSH8 0xFFFFFFFFFFFFFFFF DUP1 DUP3 GT ISZERO PUSH2 0x45D7 JUMPI DUP3 DUP4 REVERT JUMPDEST SWAP1 DUP5 ADD SWAP1 PUSH1 0xA0 DUP3 DUP8 SUB SLT ISZERO PUSH2 0x45EA JUMPI DUP3 DUP4 REVERT JUMPDEST PUSH1 0x40 MLOAD PUSH1 0xA0 DUP2 ADD DUP2 DUP2 LT DUP4 DUP3 GT OR ISZERO PUSH2 0x45FF JUMPI INVALID JUMPDEST PUSH1 0x40 MSTORE PUSH2 0x460B DUP4 PUSH2 0x3DA8 JUMP JUMPDEST DUP2 MSTORE PUSH1 0x20 DUP4 ADD MLOAD PUSH1 0x20 DUP3 ADD MSTORE PUSH1 0x40 DUP4 ADD MLOAD DUP3 DUP2 GT ISZERO PUSH2 0x4628 JUMPI DUP5 DUP6 REVERT JUMPDEST PUSH2 0x4634 DUP9 DUP3 DUP7 ADD PUSH2 0x3E2A JUMP JUMPDEST PUSH1 0x40 DUP4 ADD MSTORE POP PUSH1 0x60 DUP4 ADD MLOAD DUP3 DUP2 GT ISZERO PUSH2 0x464B JUMPI DUP5 DUP6 REVERT JUMPDEST PUSH2 0x4657 DUP9 DUP3 DUP7 ADD PUSH2 0x3F31 JUMP JUMPDEST PUSH1 0x60 DUP4 ADD MSTORE POP PUSH1 0x80 DUP4 ADD MLOAD PUSH1 0x80 DUP3 ADD MSTORE DUP1 SWAP4 POP POP POP POP SWAP3 POP SWAP3 SWAP1 POP JUMP JUMPDEST PUSH1 0x0 PUSH1 0x20 DUP3 DUP5 SUB SLT ISZERO PUSH2 0x4685 JUMPI DUP1 DUP2 REVERT JUMPDEST DUP2 MLOAD PUSH8 0xFFFFFFFFFFFFFFFF DUP2 GT ISZERO PUSH2 0x469B JUMPI DUP2 DUP3 REVERT JUMPDEST DUP3 ADD PUSH1 0x1F DUP2 ADD DUP5 SGT PUSH2 0x46AB JUMPI DUP2 DUP3 REVERT JUMPDEST DUP1 MLOAD PUSH2 0x46B9 PUSH2 0x3DD1 DUP3 PUSH2 0x51AD JUMP JUMPDEST DUP2 DUP2 MSTORE DUP6 PUSH1 0x20 DUP4 DUP6 ADD ADD GT ISZERO PUSH2 0x46CD JUMPI DUP4 DUP5 REVERT JUMPDEST PUSH2 0x46DE DUP3 PUSH1 0x20 DUP4 ADD PUSH1 0x20 DUP7 ADD PUSH2 0x51CF JUMP JUMPDEST SWAP6 SWAP5 POP POP POP POP POP JUMP JUMPDEST PUSH1 0x0 PUSH1 0x20 DUP3 DUP5 SUB SLT ISZERO PUSH2 0x46F8 JUMPI DUP1 DUP2 REVERT JUMPDEST POP CALLDATALOAD SWAP2 SWAP1 POP JUMP JUMPDEST PUSH1 0x0 PUSH1 0x20 DUP3 DUP5 SUB SLT ISZERO PUSH2 0x4710 JUMPI DUP1 DUP2 REVERT JUMPDEST POP MLOAD SWAP2 SWAP1 POP JUMP JUMPDEST PUSH1 0x0 DUP1 PUSH1 0x40 DUP4 DUP6 SUB SLT ISZERO PUSH2 0x4729 JUMPI DUP2 DUP3 REVERT JUMPDEST DUP3 CALLDATALOAD SWAP2 POP PUSH1 0x20 DUP4 ADD CALLDATALOAD PUSH2 0x4042 DUP2 PUSH2 0x51FF JUMP JUMPDEST PUSH1 0x0 DUP1 PUSH1 0x40 DUP4 DUP6 SUB SLT ISZERO PUSH2 0x474D JUMPI DUP2 DUP3 REVERT JUMPDEST POP POP DUP1 CALLDATALOAD SWAP3 PUSH1 0x20 SWAP1 SWAP2 ADD CALLDATALOAD SWAP2 POP JUMP JUMPDEST PUSH1 0x0 DUP1 PUSH1 0x0 PUSH1 0x60 DUP5 DUP7 SUB SLT ISZERO PUSH2 0x4770 JUMPI DUP1 DUP2 REVERT JUMPDEST POP POP DUP2 CALLDATALOAD SWAP4 PUSH1 0x20 DUP4 ADD CALLDATALOAD SWAP4 POP PUSH1 0x40 SWAP1 SWAP3 ADD CALLDATALOAD SWAP2 SWAP1 POP JUMP JUMPDEST PUSH1 0x0 DUP1 PUSH1 0x0 DUP1 PUSH1 0x80 DUP6 DUP8 SUB SLT ISZERO PUSH2 0x479C JUMPI DUP2 DUP3 REVERT JUMPDEST POP POP DUP3 CALLDATALOAD SWAP5 PUSH1 0x20 DUP5 ADD CALLDATALOAD SWAP5 POP PUSH1 0x40 DUP5 ADD CALLDATALOAD SWAP4 PUSH1 0x60 ADD CALLDATALOAD SWAP3 POP SWAP1 POP JUMP JUMPDEST PUSH1 0x0 DUP2 MLOAD DUP1 DUP5 MSTORE PUSH1 0x20 DUP1 DUP6 ADD SWAP5 POP DUP1 DUP5 ADD DUP4 JUMPDEST DUP4 DUP2 LT ISZERO PUSH2 0x47F0 JUMPI DUP2 MLOAD PUSH1 0x1 PUSH1 0x1 PUSH1 0xA0 SHL SUB AND DUP8 MSTORE SWAP6 DUP3 ADD SWAP6 SWAP1 DUP3 ADD SWAP1 PUSH1 0x1 ADD PUSH2 0x47CB JUMP JUMPDEST POP SWAP5 SWAP6 SWAP5 POP POP POP POP POP JUMP JUMPDEST PUSH1 0x0 DUP2 MLOAD DUP1 DUP5 MSTORE PUSH1 0x20 DUP1 DUP6 ADD SWAP5 POP DUP1 DUP5 ADD DUP4 JUMPDEST DUP4 DUP2 LT ISZERO PUSH2 0x47F0 JUMPI DUP2 MLOAD DUP8 MSTORE SWAP6 DUP3 ADD SWAP6 SWAP1 DUP3 ADD SWAP1 PUSH1 0x1 ADD PUSH2 0x480E JUMP JUMPDEST PUSH1 0x1 PUSH1 0x1 PUSH1 0xA0 SHL SUB SWAP2 SWAP1 SWAP2 AND DUP2 MSTORE PUSH1 0x20 ADD SWAP1 JUMP JUMPDEST PUSH1 0x0 PUSH1 0x1 PUSH1 0x1 PUSH1 0xA0 SHL SUB DUP1 DUP8 AND DUP4 MSTORE DUP1 DUP7 AND PUSH1 0x20 DUP5 ADD MSTORE POP PUSH1 0xA0 PUSH1 0x40 DUP4 ADD MSTORE PUSH2 0x486A PUSH1 0xA0 DUP4 ADD DUP6 PUSH2 0x47FB JUMP JUMPDEST DUP3 DUP2 SUB PUSH1 0x60 DUP5 ADD MSTORE PUSH2 0x487C DUP2 DUP6 PUSH2 0x47FB JUMP JUMPDEST DUP4 DUP2 SUB PUSH1 0x80 SWAP1 SWAP5 ADD SWAP4 SWAP1 SWAP4 MSTORE POP DUP2 MSTORE PUSH1 0x20 ADD SWAP5 SWAP4 POP POP POP POP JUMP JUMPDEST PUSH1 0x1 PUSH1 0x1 PUSH1 0xA0 SHL SUB SWAP3 SWAP1 SWAP3 AND DUP3 MSTORE PUSH1 0x20 DUP3 ADD MSTORE PUSH1 0x40 ADD SWAP1 JUMP JUMPDEST PUSH1 0x0 PUSH1 0x40 DUP3 MSTORE PUSH2 0x48C2 PUSH1 0x40 DUP4 ADD DUP6 PUSH2 0x47B8 JUMP JUMPDEST DUP3 DUP2 SUB PUSH1 0x20 DUP5 ADD MSTORE PUSH2 0x46DE DUP2 DUP6 PUSH2 0x47FB JUMP JUMPDEST PUSH1 0x0 PUSH1 0x20 DUP3 MSTORE PUSH2 0x2079 PUSH1 0x20 DUP4 ADD DUP5 PUSH2 0x47FB JUMP JUMPDEST PUSH1 0x0 PUSH1 0x60 DUP1 DUP4 MSTORE PUSH2 0x48FA DUP2 DUP5 ADD DUP8 PUSH2 0x47FB JUMP JUMPDEST PUSH1 0x20 DUP5 DUP3 SUB DUP2 DUP7 ADD MSTORE PUSH2 0x490D DUP3 DUP9 PUSH2 0x47FB JUMP JUMPDEST SWAP2 POP PUSH1 0x40 DUP6 DUP4 SUB DUP2 DUP8 ADD MSTORE DUP3 DUP8 MLOAD DUP1 DUP6 MSTORE DUP4 DUP6 ADD SWAP2 POP DUP4 DUP10 ADD SWAP5 POP DUP7 JUMPDEST DUP2 DUP2 LT ISZERO PUSH2 0x4961 JUMPI DUP6 MLOAD DUP1 MLOAD DUP5 MSTORE DUP6 DUP2 ADD MLOAD DUP7 DUP6 ADD MSTORE DUP5 DUP2 ADD MLOAD DUP6 DUP6 ADD MSTORE DUP8 ADD MLOAD DUP8 DUP5 ADD MSTORE SWAP5 DUP5 ADD SWAP5 PUSH1 0x80 SWAP1 SWAP3 ADD SWAP2 PUSH1 0x1 ADD PUSH2 0x492A JUMP JUMPDEST POP SWAP1 SWAP11 SWAP10 POP POP POP POP POP POP POP POP POP POP JUMP JUMPDEST PUSH1 0x0 PUSH1 0x60 DUP3 MSTORE PUSH2 0x4984 PUSH1 0x60 DUP4 ADD DUP7 PUSH2 0x47FB JUMP JUMPDEST DUP3 DUP2 SUB PUSH1 0x20 DUP5 ADD MSTORE PUSH2 0x4996 DUP2 DUP7 PUSH2 0x47FB JUMP JUMPDEST SWAP1 POP DUP3 DUP2 SUB PUSH1 0x40 DUP5 ADD MSTORE PUSH2 0x49AA DUP2 DUP6 PUSH2 0x47FB JUMP JUMPDEST SWAP7 SWAP6 POP POP POP POP POP POP JUMP JUMPDEST PUSH1 0x0 PUSH1 0xA0 DUP3 MSTORE PUSH2 0x49C7 PUSH1 0xA0 DUP4 ADD DUP9 PUSH2 0x47FB JUMP JUMPDEST DUP3 DUP2 SUB PUSH1 0x20 DUP5 ADD MSTORE PUSH2 0x49D9 DUP2 DUP9 PUSH2 0x47FB JUMP JUMPDEST SWAP1 POP DUP3 DUP2 SUB PUSH1 0x40 DUP5 ADD MSTORE PUSH2 0x49ED DUP2 DUP8 PUSH2 0x47FB JUMP JUMPDEST SWAP1 POP DUP3 DUP2 SUB PUSH1 0x60 DUP5 ADD MSTORE PUSH2 0x4A01 DUP2 DUP7 PUSH2 0x47B8 JUMP JUMPDEST SWAP1 POP DUP3 DUP2 SUB PUSH1 0x80 DUP5 ADD MSTORE PUSH2 0x4A15 DUP2 DUP6 PUSH2 0x47FB JUMP JUMPDEST SWAP9 SWAP8 POP POP POP POP POP POP POP POP JUMP JUMPDEST SWAP1 ISZERO ISZERO DUP2 MSTORE PUSH1 0x20 ADD SWAP1 JUMP JUMPDEST PUSH1 0x1 PUSH1 0x1 PUSH1 0xE0 SHL SUB NOT SWAP2 SWAP1 SWAP2 AND DUP2 MSTORE PUSH1 0x20 ADD SWAP1 JUMP JUMPDEST PUSH1 0x0 PUSH1 0x20 DUP3 MSTORE DUP3 MLOAD DUP1 PUSH1 0x20 DUP5 ADD MSTORE PUSH2 0x4A60 DUP2 PUSH1 0x40 DUP6 ADD PUSH1 0x20 DUP8 ADD PUSH2 0x51CF JUMP JUMPDEST PUSH1 0x1F ADD PUSH1 0x1F NOT AND SWAP2 SWAP1 SWAP2 ADD PUSH1 0x40 ADD SWAP3 SWAP2 POP POP JUMP JUMPDEST PUSH1 0x20 DUP1 DUP3 MSTORE PUSH1 0x7 SWAP1 DUP3 ADD MSTORE PUSH32 0x4E45323023313800000000000000000000000000000000000000000000000000 PUSH1 0x40 DUP3 ADD MSTORE PUSH1 0x60 ADD SWAP1 JUMP JUMPDEST PUSH1 0x20 DUP1 DUP3 MSTORE PUSH1 0x4 SWAP1 DUP3 ADD MSTORE PUSH32 0x444F233200000000000000000000000000000000000000000000000000000000 PUSH1 0x40 DUP3 ADD MSTORE PUSH1 0x60 ADD SWAP1 JUMP JUMPDEST PUSH1 0x20 DUP1 DUP3 MSTORE PUSH1 0x7 SWAP1 DUP3 ADD MSTORE PUSH32 0x4E45323023313900000000000000000000000000000000000000000000000000 PUSH1 0x40 DUP3 ADD MSTORE PUSH1 0x60 ADD SWAP1 JUMP JUMPDEST PUSH1 0x20 DUP1 DUP3 MSTORE PUSH1 0x2 SWAP1 DUP3 ADD MSTORE PUSH32 0x4433000000000000000000000000000000000000000000000000000000000000 PUSH1 0x40 DUP3 ADD MSTORE PUSH1 0x60 ADD SWAP1 JUMP JUMPDEST PUSH1 0x20 DUP1 DUP3 MSTORE PUSH1 0x7 SWAP1 DUP3 ADD MSTORE PUSH32 0x4E45323023313300000000000000000000000000000000000000000000000000 PUSH1 0x40 DUP3 ADD MSTORE PUSH1 0x60 ADD SWAP1 JUMP JUMPDEST PUSH1 0x20 DUP1 DUP3 MSTORE PUSH1 0x6 SWAP1 DUP3 ADD MSTORE PUSH32 0x4E45323023340000000000000000000000000000000000000000000000000000 PUSH1 0x40 DUP3 ADD MSTORE PUSH1 0x60 ADD SWAP1 JUMP JUMPDEST PUSH1 0x20 DUP1 DUP3 MSTORE PUSH1 0x7 SWAP1 DUP3 ADD MSTORE PUSH32 0x4E45323023313500000000000000000000000000000000000000000000000000 PUSH1 0x40 DUP3 ADD MSTORE PUSH1 0x60 ADD SWAP1 JUMP JUMPDEST PUSH1 0x20 DUP1 DUP3 MSTORE PUSH1 0x7 SWAP1 DUP3 ADD MSTORE PUSH32 0x4E45323023313600000000000000000000000000000000000000000000000000 PUSH1 0x40 DUP3 ADD MSTORE PUSH1 0x60 ADD SWAP1 JUMP JUMPDEST PUSH1 0x20 DUP1 DUP3 MSTORE PUSH1 0x7 SWAP1 DUP3 ADD MSTORE PUSH32 0x4E45323023313400000000000000000000000000000000000000000000000000 PUSH1 0x40 DUP3 ADD MSTORE PUSH1 0x60 ADD SWAP1 JUMP JUMPDEST PUSH1 0x20 DUP1 DUP3 MSTORE PUSH1 0x7 SWAP1 DUP3 ADD MSTORE PUSH32 0x4E45323023323600000000000000000000000000000000000000000000000000 PUSH1 0x40 DUP3 ADD MSTORE PUSH1 0x60 ADD SWAP1 JUMP JUMPDEST PUSH1 0x20 DUP1 DUP3 MSTORE PUSH1 0x7 SWAP1 DUP3 ADD MSTORE PUSH32 0x4E45323023323900000000000000000000000000000000000000000000000000 PUSH1 0x40 DUP3 ADD MSTORE PUSH1 0x60 ADD SWAP1 JUMP JUMPDEST PUSH1 0x20 DUP1 DUP3 MSTORE PUSH1 0x6 SWAP1 DUP3 ADD MSTORE PUSH32 0x4E45323023390000000000000000000000000000000000000000000000000000 PUSH1 0x40 DUP3 ADD MSTORE PUSH1 0x60 ADD SWAP1 JUMP JUMPDEST PUSH1 0x20 DUP1 DUP3 MSTORE PUSH1 0x6 SWAP1 DUP3 ADD MSTORE PUSH32 0x4E45323023380000000000000000000000000000000000000000000000000000 PUSH1 0x40 DUP3 ADD MSTORE PUSH1 0x60 ADD SWAP1 JUMP JUMPDEST PUSH1 0x20 DUP1 DUP3 MSTORE PUSH1 0x6 SWAP1 DUP3 ADD MSTORE PUSH32 0x4E45323023360000000000000000000000000000000000000000000000000000 PUSH1 0x40 DUP3 ADD MSTORE PUSH1 0x60 ADD SWAP1 JUMP JUMPDEST PUSH1 0x20 DUP1 DUP3 MSTORE PUSH1 0x7 SWAP1 DUP3 ADD MSTORE PUSH32 0x4E45323023323000000000000000000000000000000000000000000000000000 PUSH1 0x40 DUP3 ADD MSTORE PUSH1 0x60 ADD SWAP1 JUMP JUMPDEST PUSH1 0x20 DUP1 DUP3 MSTORE PUSH1 0x7 SWAP1 DUP3 ADD MSTORE PUSH32 0x4E45323023333200000000000000000000000000000000000000000000000000 PUSH1 0x40 DUP3 ADD MSTORE PUSH1 0x60 ADD SWAP1 JUMP JUMPDEST PUSH1 0x20 DUP1 DUP3 MSTORE PUSH1 0x7 SWAP1 DUP3 ADD MSTORE PUSH32 0x4E45323023323400000000000000000000000000000000000000000000000000 PUSH1 0x40 DUP3 ADD MSTORE PUSH1 0x60 ADD SWAP1 JUMP JUMPDEST PUSH1 0x20 DUP1 DUP3 MSTORE PUSH1 0x7 SWAP1 DUP3 ADD MSTORE PUSH32 0x4E45323023323300000000000000000000000000000000000000000000000000 PUSH1 0x40 DUP3 ADD MSTORE PUSH1 0x60 ADD SWAP1 JUMP JUMPDEST PUSH1 0x20 DUP1 DUP3 MSTORE PUSH1 0x7 SWAP1 DUP3 ADD MSTORE PUSH32 0x4E45323023333000000000000000000000000000000000000000000000000000 PUSH1 0x40 DUP3 ADD MSTORE PUSH1 0x60 ADD SWAP1 JUMP JUMPDEST PUSH1 0x20 DUP1 DUP3 MSTORE PUSH1 0x7 SWAP1 DUP3 ADD MSTORE PUSH32 0x4E45323023323700000000000000000000000000000000000000000000000000 PUSH1 0x40 DUP3 ADD MSTORE PUSH1 0x60 ADD SWAP1 JUMP JUMPDEST PUSH1 0x20 DUP1 DUP3 MSTORE PUSH1 0x7 SWAP1 DUP3 ADD MSTORE PUSH32 0x4E45323023323200000000000000000000000000000000000000000000000000 PUSH1 0x40 DUP3 ADD MSTORE PUSH1 0x60 ADD SWAP1 JUMP JUMPDEST PUSH1 0x20 DUP1 DUP3 MSTORE PUSH1 0x7 SWAP1 DUP3 ADD MSTORE PUSH32 0x4E45323023323800000000000000000000000000000000000000000000000000 PUSH1 0x40 DUP3 ADD MSTORE PUSH1 0x60 ADD SWAP1 JUMP JUMPDEST PUSH1 0x20 DUP1 DUP3 MSTORE PUSH1 0x7 SWAP1 DUP3 ADD MSTORE PUSH32 0x4E45323023313100000000000000000000000000000000000000000000000000 PUSH1 0x40 DUP3 ADD MSTORE PUSH1 0x60 ADD SWAP1 JUMP JUMPDEST PUSH1 0x20 DUP1 DUP3 MSTORE PUSH1 0x7 SWAP1 DUP3 ADD MSTORE PUSH32 0x4E45323023313700000000000000000000000000000000000000000000000000 PUSH1 0x40 DUP3 ADD MSTORE PUSH1 0x60 ADD SWAP1 JUMP JUMPDEST PUSH1 0x20 DUP1 DUP3 MSTORE PUSH1 0x7 SWAP1 DUP3 ADD MSTORE PUSH32 0x4E45323023323100000000000000000000000000000000000000000000000000 PUSH1 0x40 DUP3 ADD MSTORE PUSH1 0x60 ADD SWAP1 JUMP JUMPDEST PUSH1 0x20 DUP1 DUP3 MSTORE PUSH1 0x6 SWAP1 DUP3 ADD MSTORE PUSH32 0x4E45323023370000000000000000000000000000000000000000000000000000 PUSH1 0x40 DUP3 ADD MSTORE PUSH1 0x60 ADD SWAP1 JUMP JUMPDEST PUSH1 0x20 DUP1 DUP3 MSTORE PUSH1 0x6 SWAP1 DUP3 ADD MSTORE PUSH32 0x4E45323023350000000000000000000000000000000000000000000000000000 PUSH1 0x40 DUP3 ADD MSTORE PUSH1 0x60 ADD SWAP1 JUMP JUMPDEST PUSH1 0x20 DUP1 DUP3 MSTORE PUSH1 0x6 SWAP1 DUP3 ADD MSTORE PUSH32 0x4E45323023330000000000000000000000000000000000000000000000000000 PUSH1 0x40 DUP3 ADD MSTORE PUSH1 0x60 ADD SWAP1 JUMP JUMPDEST PUSH1 0x20 DUP1 DUP3 MSTORE PUSH1 0x7 SWAP1 DUP3 ADD MSTORE PUSH32 0x4E45323023313200000000000000000000000000000000000000000000000000 PUSH1 0x40 DUP3 ADD MSTORE PUSH1 0x60 ADD SWAP1 JUMP JUMPDEST PUSH1 0x20 DUP1 DUP3 MSTORE PUSH1 0x7 SWAP1 DUP3 ADD MSTORE PUSH32 0x4E45323023313000000000000000000000000000000000000000000000000000 PUSH1 0x40 DUP3 ADD MSTORE PUSH1 0x60 ADD SWAP1 JUMP JUMPDEST PUSH1 0x20 DUP1 DUP3 MSTORE PUSH1 0x7 SWAP1 DUP3 ADD MSTORE PUSH32 0x4E45323023323500000000000000000000000000000000000000000000000000 PUSH1 0x40 DUP3 ADD MSTORE PUSH1 0x60 ADD SWAP1 JUMP JUMPDEST PUSH1 0x20 DUP1 DUP3 MSTORE PUSH1 0x7 SWAP1 DUP3 ADD MSTORE PUSH32 0x4E45323023333100000000000000000000000000000000000000000000000000 PUSH1 0x40 DUP3 ADD MSTORE PUSH1 0x60 ADD SWAP1 JUMP JUMPDEST SWAP1 DUP2 MSTORE PUSH1 0x20 ADD SWAP1 JUMP JUMPDEST SWAP2 DUP3 MSTORE PUSH1 0x20 DUP3 ADD MSTORE PUSH1 0x40 ADD SWAP1 JUMP JUMPDEST PUSH1 0x40 MLOAD DUP2 DUP2 ADD PUSH8 0xFFFFFFFFFFFFFFFF DUP2 GT DUP3 DUP3 LT OR ISZERO PUSH2 0x5187 JUMPI INVALID JUMPDEST PUSH1 0x40 MSTORE SWAP2 SWAP1 POP JUMP JUMPDEST PUSH1 0x0 PUSH8 0xFFFFFFFFFFFFFFFF DUP3 GT ISZERO PUSH2 0x51A3 JUMPI INVALID JUMPDEST POP PUSH1 0x20 SWAP1 DUP2 MUL ADD SWAP1 JUMP JUMPDEST PUSH1 0x0 PUSH8 0xFFFFFFFFFFFFFFFF DUP3 GT ISZERO PUSH2 0x51C1 JUMPI INVALID JUMPDEST POP PUSH1 0x1F ADD PUSH1 0x1F NOT AND PUSH1 0x20 ADD SWAP1 JUMP JUMPDEST PUSH1 0x0 JUMPDEST DUP4 DUP2 LT ISZERO PUSH2 0x51EA JUMPI DUP2 DUP2 ADD MLOAD DUP4 DUP3 ADD MSTORE PUSH1 0x20 ADD PUSH2 0x51D2 JUMP JUMPDEST DUP4 DUP2 GT ISZERO PUSH2 0x51F9 JUMPI PUSH1 0x0 DUP5 DUP5 ADD MSTORE JUMPDEST POP POP POP POP JUMP JUMPDEST PUSH1 0x1 PUSH1 0x1 PUSH1 0xA0 SHL SUB DUP2 AND DUP2 EQ PUSH2 0x5214 JUMPI PUSH1 0x0 DUP1 REVERT JUMPDEST POP JUMP JUMPDEST DUP1 ISZERO ISZERO DUP2 EQ PUSH2 0x5214 JUMPI PUSH1 0x0 DUP1 REVERT JUMPDEST PUSH1 0x1 PUSH1 0x1 PUSH1 0xE0 SHL SUB NOT DUP2 AND DUP2 EQ PUSH2 0x5214 JUMPI PUSH1 0x0 DUP1 REVERT INVALID GASLIMIT MSTORE NUMBER BALANCE BALANCE CALLDATALOAD CALLDATALOAD 0x23 PUSH20 0x6166655472616E7366657246726F6D3A20494E56 COINBASE 0x4C 0x49 DIFFICULTY 0x5F MSTORE GASLIMIT NUMBER 0x49 POP 0x49 GASLIMIT 0x4E SLOAD GASLIMIT MSTORE NUMBER BALANCE BALANCE CALLDATALOAD CALLDATALOAD 0x23 PUSH20 0x6166655472616E7366657246726F6D3A20494E56 COINBASE 0x4C 0x49 DIFFICULTY 0x5F 0x4F POP GASLIMIT MSTORE COINBASE SLOAD 0x4F MSTORE SLOAD PUSH19 0x616E7366657248656C7065723A3A7472616E73 PUSH7 0x657246726F6D3A KECCAK256 PUSH21 0x72616E7366657246726F6D206661696C6564455243 BALANCE BALANCE CALLDATALOAD CALLDATALOAD 0x23 0x5F PUSH20 0x61666542617463685472616E7366657246726F6D GASPRICE KECCAK256 0x49 0x4E JUMP COINBASE 0x4C 0x49 DIFFICULTY 0x5F COINBASE MSTORE MSTORE COINBASE MSIZE MSTORE8 0x5F 0x4C GASLIMIT 0x4E SELFBALANCE SLOAD 0x48 GASLIMIT MSTORE NUMBER BALANCE BALANCE CALLDATALOAD CALLDATALOAD 0x23 PUSH20 0x61666542617463685472616E7366657246726F6D GASPRICE KECCAK256 0x49 0x4E JUMP COINBASE 0x4C 0x49 DIFFICULTY 0x5F MSTORE GASLIMIT NUMBER 0x49 POP 0x49 GASLIMIT 0x4E SLOAD GASLIMIT MSTORE NUMBER BALANCE BALANCE CALLDATALOAD CALLDATALOAD 0x4D PUSH10 0x6E744275726E23626174 PUSH4 0x68427572 PUSH15 0x3A20494E56414C49445F4152524159 MSTORE8 0x5F 0x4C GASLIMIT 0x4E SELFBALANCE SLOAD 0x48 GASLIMIT MSTORE NUMBER BALANCE BALANCE CALLDATALOAD CALLDATALOAD 0x23 PUSH3 0x616C61 PUSH15 0x63654F6642617463683A20494E5641 0x4C 0x49 DIFFICULTY 0x5F COINBASE MSTORE MSTORE COINBASE MSIZE 0x5F 0x4C GASLIMIT 0x4E SELFBALANCE SLOAD 0x48 GASLIMIT MSTORE NUMBER BALANCE BALANCE CALLDATALOAD CALLDATALOAD 0x23 PUSH20 0x61666542617463685472616E7366657246726F6D GASPRICE KECCAK256 0x49 0x4E JUMP COINBASE 0x4C 0x49 DIFFICULTY 0x5F 0x4F POP GASLIMIT MSTORE COINBASE SLOAD 0x4F MSTORE GASLIMIT MSTORE NUMBER BALANCE BALANCE CALLDATALOAD CALLDATALOAD 0x4D PUSH10 0x6E744275726E23626174 PUSH4 0x684D696E PUSH21 0x3A20494E56414C49445F4152524159535F4C454E47 SLOAD 0x48 GASLIMIT MSTORE NUMBER BALANCE BALANCE CALLDATALOAD CALLDATALOAD 0x23 0x5F PUSH4 0x616C6C6F PUSH15 0x455243313135354261746368526563 PUSH6 0x697665643A20 0x49 0x4E JUMP COINBASE 0x4C 0x49 DIFFICULTY 0x5F 0x4F 0x4E 0x5F MSTORE GASLIMIT NUMBER GASLIMIT 0x49 JUMP GASLIMIT 0x5F 0x4D GASLIMIT MSTORE8 MSTORE8 COINBASE SELFBALANCE GASLIMIT GASLIMIT MSTORE NUMBER BALANCE BALANCE CALLDATALOAD CALLDATALOAD 0x23 0x5F PUSH4 0x616C6C6F PUSH15 0x455243313135355265636569766564 GASPRICE KECCAK256 0x49 0x4E JUMP COINBASE 0x4C 0x49 DIFFICULTY 0x5F 0x4F 0x4E 0x5F MSTORE GASLIMIT NUMBER GASLIMIT 0x49 JUMP GASLIMIT 0x5F 0x4D GASLIMIT MSTORE8 MSTORE8 COINBASE SELFBALANCE GASLIMIT SLOAD PUSH19 0x616E7366657248656C7065723A3A7361666554 PUSH19 0x616E736665723A207472616E73666572206661 PUSH10 0x6C6564A2646970667358 0x22 SLT KECCAK256 0x2D 0xC6 RETURNDATASIZE 0xC 0xE PUSH17 0x1B05BB7A2E01B5AEBB63E707D1A3EF615A 0x4F 0x25 ISZERO CALLDATACOPY CALL 0xC6 0x5E PUSH8 0x8964736F6C634300 SMOD DIV STOP CALLER LOG2 PUSH5 0x6970667358 0x22 SLT KECCAK256 STATICCALL 0xCF GAS 0xD0 PUSH3 0x7762FB SAR 0x27 SLOAD 0xEE 0xB0 SELFBALANCE PUSH10 0x6EDC1A412671E7427890 0x5D CALLDATASIZE DUP4 DUP1 DUP10 0xEE SWAP14 PUSH5 0x736F6C6343 STOP SMOD DIV STOP CALLER "
				}
			}
		}
	}
}