{"src/CREATE4.sol":{"CREATE4":{"abi":[{"type":"function","name":"deploy","inputs":[{"name":"proof","type":"bytes32[]","internalType":"bytes32[]"},{"name":"initCode","type":"bytes","internalType":"bytes"},{"name":"nextChainid","type":"uint64","internalType":"uint64"},{"name":"salt","type":"bytes32","internalType":"bytes32"}],"outputs":[{"name":"","type":"address","internalType":"address"}],"stateMutability":"payable"},{"type":"function","name":"deployFallback","inputs":[{"name":"gapLeafPrefix","type":"bytes32","internalType":"bytes32"},{"name":"gapLeafHash","type":"bytes32","internalType":"bytes32"},{"name":"gapProof","type":"bytes32[]","internalType":"bytes32[]"},{"name":"proof","type":"bytes32[]","internalType":"bytes32[]"},{"name":"initCode","type":"bytes","internalType":"bytes"},{"name":"salt","type":"bytes32","internalType":"bytes32"}],"outputs":[{"name":"","type":"address","internalType":"address"}],"stateMutability":"payable"},{"type":"error","name":"ChainIdOverflow","inputs":[]},{"type":"error","name":"ErrorCreatingContract","inputs":[]},{"type":"error","name":"ErrorCreatingProxy","inputs":[]},{"type":"error","name":"GapCannotBeFallback","inputs":[]},{"type":"error","name":"InvalidProvidedGap","inputs":[]},{"type":"error","name":"MismatchedProof","inputs":[]},{"type":"error","name":"TargetAlreadyExists","inputs":[]}],"userdoc":{},"devdoc":{},"evm":{"bytecode":{"object":"6080604052348015600f57600080fd5b50610dfc8061001f6000396000f3fe6080604052600436106100295760003560e01c80638a056fe61461002e5780639e0fae721461005e575b600080fd5b610048600480360381019061004391906108bf565b61008e565b60405161005591906109ef565b60405180910390f35b61007860048036038101906100739190610a4a565b610394565b60405161008591906109ef565b60405180910390f35b60008060008061009d8d6104c1565b92509250925060008160ff16146100e0576040517f0b64774d00000000000000000000000000000000000000000000000000000000815260040160405180910390fd5b8167ffffffffffffffff168367ffffffffffffffff16101561015b578267ffffffffffffffff164611158061011f57508167ffffffffffffffff164610155b15610156576040517fb9a53f7600000000000000000000000000000000000000000000000000000000815260040160405180910390fd5b61021c565b8167ffffffffffffffff168367ffffffffffffffff1611156101d7578167ffffffffffffffff16461015801561019b57508267ffffffffffffffff164611155b156101d2576040517fb9a53f7600000000000000000000000000000000000000000000000000000000815260040160405180910390fd5b61021b565b8267ffffffffffffffff16460361021a576040517fb9a53f7600000000000000000000000000000000000000000000000000000000815260040160405180910390fd5b5b5b60006102288e8e6104fa565b905060005b8c8c905081101561026a5761025b828e8e8481811061024f5761024e610af1565b5b90506020020135610511565b9150808060010191505061022d565b506000888860405161027d929190610b5f565b604051809103902090506000610296600080600161053f565b905060006102a482846104fa565b905060005b8d8d90508110156102e6576102d7828f8f848181106102cb576102ca610af1565b5b90506020020135610511565b915080806001019150506102a9565b50808414610320576040517f46c0ed6f00000000000000000000000000000000000000000000000000000000815260040160405180910390fd5b600061032c828b6104fa565b905061037d818d8d8080601f016020809104026020016040519081016040528093929190818152602001838380828437600081840152601f19601f8201169050808301925050505050505034610571565b985050505050505050509998505050505050505050565b60008085856040516103a7929190610b5f565b6040518091039020905067ffffffffffffffff80164611156103f5576040517ff53a1c1000000000000000000000000000000000000000000000000000000000815260040160405180910390fd5b60006104034686600061053f565b9050600061041182846104fa565b905060005b8a8a905081101561045357610444828c8c8481811061043857610437610af1565b5b90506020020135610511565b91508080600101915050610416565b50600061046082876104fa565b90506104b1818a8a8080601f016020809104026020016040519081016040528093929190818152602001838380828437600081840152601f19601f8201169050808301925050505050505034610571565b9450505050509695505050505050565b6000806000808460001c905067ffffffffffffffff8116935067ffffffffffffffff604082901c16925060f881901c9150509193909250565b600082600052816020526040600020905092915050565b60008183101561052c5761052583836104fa565b9050610539565b61053682846104fa565b90505b92915050565b60008367ffffffffffffffff1660408467ffffffffffffffff16901b60f88460ff16901b171760001b90509392505050565b6000806040518060400160405280601081526020017f67363d3d37363d34f03d5260086018f30000000000000000000000000000000081525090506105b585610731565b915060006105c2836107b9565b146105f9576040517fcd43efa100000000000000000000000000000000000000000000000000000000815260040160405180910390fd5b6000858251602084016000f59050600073ffffffffffffffffffffffffffffffffffffffff168173ffffffffffffffffffffffffffffffffffffffff160361066d576040517fbbd2fe8700000000000000000000000000000000000000000000000000000000815260040160405180910390fd5b60008173ffffffffffffffffffffffffffffffffffffffff1685876040516106959190610bde565b60006040518083038185875af1925050503d80600081146106d2576040519150601f19603f3d011682016040523d82523d6000602084013e6106d7565b606091505b505090508015806106f0575060006106ee856107b9565b145b15610727576040517f53de54b900000000000000000000000000000000000000000000000000000000815260040160405180910390fd5b5050509392505050565b60008030837f21c35dbe1b344a2488cf3321d6ce542f8e9f305544ff09e4993a62319a497c1f60001b60405160200161076c93929190610cb5565b6040516020818303038152906040528051906020012060001c9050806040516020016107989190610d95565b6040516020818303038152906040528051906020012060001c915050919050565b6000813b9050919050565b600080fd5b600080fd5b6000819050919050565b6107e1816107ce565b81146107ec57600080fd5b50565b6000813590506107fe816107d8565b92915050565b600080fd5b600080fd5b600080fd5b60008083601f84011261082957610828610804565b5b8235905067ffffffffffffffff81111561084657610845610809565b5b6020830191508360208202830111156108625761086161080e565b5b9250929050565b60008083601f84011261087f5761087e610804565b5b8235905067ffffffffffffffff81111561089c5761089b610809565b5b6020830191508360018202830111156108b8576108b761080e565b5b9250929050565b600080600080600080600080600060c08a8c0312156108e1576108e06107c4565b5b60006108ef8c828d016107ef565b99505060206109008c828d016107ef565b98505060408a013567ffffffffffffffff811115610921576109206107c9565b5b61092d8c828d01610813565b975097505060608a013567ffffffffffffffff8111156109505761094f6107c9565b5b61095c8c828d01610813565b955095505060808a013567ffffffffffffffff81111561097f5761097e6107c9565b5b61098b8c828d01610869565b935093505060a061099e8c828d016107ef565b9150509295985092959850929598565b600073ffffffffffffffffffffffffffffffffffffffff82169050919050565b60006109d9826109ae565b9050919050565b6109e9816109ce565b82525050565b6000602082019050610a0460008301846109e0565b92915050565b600067ffffffffffffffff82169050919050565b610a2781610a0a565b8114610a3257600080fd5b50565b600081359050610a4481610a1e565b92915050565b60008060008060008060808789031215610a6757610a666107c4565b5b600087013567ffffffffffffffff811115610a8557610a846107c9565b5b610a9189828a01610813565b9650965050602087013567ffffffffffffffff811115610ab457610ab36107c9565b5b610ac089828a01610869565b94509450506040610ad389828a01610a35565b9250506060610ae489828a016107ef565b9150509295509295509295565b7f4e487b7100000000000000000000000000000000000000000000000000000000600052603260045260246000fd5b600081905092915050565b82818337600083830152505050565b6000610b468385610b20565b9350610b53838584610b2b565b82840190509392505050565b6000610b6c828486610b3a565b91508190509392505050565b600081519050919050565b60005b83811015610ba1578082015181840152602081019050610b86565b60008484015250505050565b6000610bb882610b78565b610bc28185610b20565b9350610bd2818560208601610b83565b80840191505092915050565b6000610bea8284610bad565b915081905092915050565b600081905092915050565b7fff00000000000000000000000000000000000000000000000000000000000000600082015250565b6000610c36600183610bf5565b9150610c4182610c00565b600182019050919050565b60008160601b9050919050565b6000610c6482610c4c565b9050919050565b6000610c7682610c59565b9050919050565b610c8e610c89826109ce565b610c6b565b82525050565b6000819050919050565b610caf610caa826107ce565b610c94565b82525050565b6000610cc082610c29565b9150610ccc8286610c7d565b601482019150610cdc8285610c9e565b602082019150610cec8284610c9e565b602082019150819050949350505050565b7fd694000000000000000000000000000000000000000000000000000000000000600082015250565b6000610d33600283610bf5565b9150610d3e82610cfd565b600282019050919050565b7f0100000000000000000000000000000000000000000000000000000000000000600082015250565b6000610d7f600183610bf5565b9150610d8a82610d49565b600182019050919050565b6000610da082610d26565b9150610dac8284610c7d565b601482019150610dbb82610d72565b91508190509291505056fea2646970667358221220b6543196c2728a38a7cf36ff9a42878d75ee90398bf09bbcffe3d141149c9b7964736f6c634300081e0033","linkReferences":{}},"methodIdentifiers":{"deploy(bytes32[],bytes,uint64,bytes32)":"9e0fae72","deployFallback(bytes32,bytes32,bytes32[],bytes32[],bytes,bytes32)":"8a056fe6"}}}}}