{
  "src/tokens/ERC20/presets/items/ERC20ItemsFactory.sol": {
    "ERC20ItemsFactory": {
      "abi": [
        {
          "inputs": [
            {
              "internalType": "address",
              "name": "factoryOwner",
              "type": "address"
            }
          ],
          "stateMutability": "nonpayable",
          "type": "constructor"
        },
        {
          "anonymous": false,
          "inputs": [
            {
              "indexed": false,
              "internalType": "address",
              "name": "proxyAddr",
              "type": "address"
            }
          ],
          "name": "ERC20ItemsDeployed",
          "type": "event"
        },
        {
          "anonymous": false,
          "inputs": [
            {
              "indexed": true,
              "internalType": "address",
              "name": "previousOwner",
              "type": "address"
            },
            {
              "indexed": true,
              "internalType": "address",
              "name": "newOwner",
              "type": "address"
            }
          ],
          "name": "OwnershipTransferred",
          "type": "event"
        },
        {
          "inputs": [],
          "name": "beacon",
          "outputs": [
            {
              "internalType": "contract UpgradeableBeacon",
              "name": "",
              "type": "address"
            }
          ],
          "stateMutability": "view",
          "type": "function"
        },
        {
          "inputs": [
            {
              "internalType": "address",
              "name": "proxyOwner",
              "type": "address"
            },
            {
              "internalType": "address",
              "name": "tokenOwner",
              "type": "address"
            },
            {
              "internalType": "string",
              "name": "name",
              "type": "string"
            },
            {
              "internalType": "string",
              "name": "symbol",
              "type": "string"
            },
            {
              "internalType": "uint8",
              "name": "decimals",
              "type": "uint8"
            },
            {
              "internalType": "address",
              "name": "implicitModeValidator",
              "type": "address"
            },
            {
              "internalType": "bytes32",
              "name": "implicitModeProjectId",
              "type": "bytes32"
            }
          ],
          "name": "deploy",
          "outputs": [
            {
              "internalType": "address",
              "name": "proxyAddr",
              "type": "address"
            }
          ],
          "stateMutability": "nonpayable",
          "type": "function"
        },
        {
          "inputs": [
            {
              "internalType": "address",
              "name": "proxyOwner",
              "type": "address"
            },
            {
              "internalType": "address",
              "name": "tokenOwner",
              "type": "address"
            },
            {
              "internalType": "string",
              "name": "name",
              "type": "string"
            },
            {
              "internalType": "string",
              "name": "symbol",
              "type": "string"
            },
            {
              "internalType": "uint8",
              "name": "decimals",
              "type": "uint8"
            },
            {
              "internalType": "address",
              "name": "implicitModeValidator",
              "type": "address"
            },
            {
              "internalType": "bytes32",
              "name": "implicitModeProjectId",
              "type": "bytes32"
            }
          ],
          "name": "determineAddress",
          "outputs": [
            {
              "internalType": "address",
              "name": "proxyAddr",
              "type": "address"
            }
          ],
          "stateMutability": "view",
          "type": "function"
        },
        {
          "inputs": [],
          "name": "owner",
          "outputs": [
            {
              "internalType": "address",
              "name": "",
              "type": "address"
            }
          ],
          "stateMutability": "view",
          "type": "function"
        },
        {
          "inputs": [],
          "name": "renounceOwnership",
          "outputs": [],
          "stateMutability": "nonpayable",
          "type": "function"
        },
        {
          "inputs": [
            {
              "internalType": "address",
              "name": "newOwner",
              "type": "address"
            }
          ],
          "name": "transferOwnership",
          "outputs": [],
          "stateMutability": "nonpayable",
          "type": "function"
        },
        {
          "inputs": [
            {
              "internalType": "address",
              "name": "implementation",
              "type": "address"
            }
          ],
          "name": "upgradeBeacon",
          "outputs": [],
          "stateMutability": "nonpayable",
          "type": "function"
        }
      ],
      "devdoc": {
        "events": {
          "ERC20ItemsDeployed(address)": {
            "params": {
              "proxyAddr": "The address of the deployed proxy."
            }
          }
        },
        "kind": "dev",
        "methods": {
          "constructor": {
            "params": {
              "factoryOwner": "The owner of the ERC-20 Items Factory"
            }
          },
          "deploy(address,address,string,string,uint8,address,bytes32)": {
            "params": {
              "decimals": "The decimals of the ERC-20 Items proxy",
              "implicitModeProjectId": "The implicit mode project id",
              "implicitModeValidator": "The implicit mode validator address",
              "name": "The name of the ERC-20 Items proxy",
              "proxyOwner": "The owner of the ERC-20 Items proxy",
              "symbol": "The symbol of the ERC-20 Items proxy",
              "tokenOwner": "The owner of the ERC-20 Items implementation"
            },
            "returns": {
              "proxyAddr": "The address of the ERC-20 Items Proxy"
            }
          },
          "determineAddress(address,address,string,string,uint8,address,bytes32)": {
            "params": {
              "decimals": "The decimals of the ERC-20 Items proxy",
              "implicitModeProjectId": "The implicit mode project id",
              "implicitModeValidator": "The implicit mode validator address",
              "name": "The name of the ERC-20 Items proxy",
              "proxyOwner": "The owner of the ERC-20 Items proxy",
              "symbol": "The symbol of the ERC-20 Items proxy",
              "tokenOwner": "The owner of the ERC-20 Items implementation"
            },
            "returns": {
              "proxyAddr": "The address of the ERC-20 Items Proxy"
            }
          },
          "owner()": {
            "details": "Returns the address of the current owner."
          },
          "renounceOwnership()": {
            "details": "Leaves the contract without owner. It will not be possible to call `onlyOwner` functions. Can only be called by the current owner. NOTE: Renouncing ownership will leave the contract without an owner, thereby disabling any functionality that is only available to the owner."
          },
          "transferOwnership(address)": {
            "details": "Transfers ownership of the contract to a new account (`newOwner`). Can only be called by the current owner."
          },
          "upgradeBeacon(address)": {
            "params": {
              "implementation": "The new beacon implementation."
            }
          }
        },
        "version": 1
      },
      "evm": {
        "bytecode": {
          "linkReferences": {},
          "object": "60806040523461002f576100196100146100fa565b610169565b610021610034565b6126a261039782396126a290f35b61003a565b60405190565b600080fd5b601f801991011690565b634e487b7160e01b600052604160045260246000fd5b906100699061003f565b810190811060018060401b0382111761008157604052565b610049565b90610099610092610034565b928361005f565b565b600080fd5b60018060a01b031690565b6100b4906100a0565b90565b6100c0816100ab565b036100c757565b600080fd5b905051906100d9826100b7565b565b906020828203126100f5576100f2916000016100cc565b90565b61009b565b6101186170bb8038038061010d81610086565b9283398101906100db565b90565b60000190565b610129610034565b3d6000823e3d90fd5b90565b61014961014461014e926100a0565b610132565b6100a0565b90565b61015a90610135565b90565b61016690610151565b90565b6101716101ca565b610179610034565b613be0810181811060018060401b038211176101c5576101a18291613be0612a39843961011b565b03906000f09081156101c0576101b96101be9261015d565b610265565b565b610121565b610049565b6101d26101d4565b565b6101e46101df6102c7565b610335565b565b6101ef906100ab565b9052565b9190610207906000602085019401906101e6565b565b60001b90565b9061022060018060a01b0391610209565b9181191691161790565b61023390610135565b90565b61023f9061022a565b90565b90565b9061025a61025561026192610236565b610242565b825461020f565b9055565b61026d610034565b90610aa2820182811060018060401b038211176102bd57829161029791610aa261661985396101f3565b03906000f09081156102b8576102b16102b6926001610245565b610335565b565b610121565b610049565b600090565b6102cf6102c2565b503390565b60001c90565b60018060a01b031690565b6102f16102f6916102d4565b6102da565b90565b61030390546102e5565b90565b61030f90610151565b90565b90565b9061032a61032561033192610306565b610312565b825461020f565b9055565b61033f60006102f9565b61034a826000610315565b9061037e6103787f8be0079c531659141344cd1fd0a4f28419497f9722a3daafe3b4186f6b6457e093610306565b91610306565b91610387610034565b806103918161011b565b0390a356fe60806040526004361015610013575b610537565b61001e60003561008d565b80631bce45831461008857806359659e9014610083578063715018a61461007e5780638cfd4e5e146100795780638da5cb5b14610074578063f13b273d1461006f5763f2fde38b0361000e57610504565b6104c8565b610493565b610457565b61021f565b6101ea565b610108565b60e01c90565b60405190565b600080fd5b600080fd5b600080fd5b60018060a01b031690565b6100bc906100a8565b90565b6100c8816100b3565b036100cf57565b600080fd5b905035906100e1826100bf565b565b906020828203126100fd576100fa916000016100d4565b90565b61009e565b60000190565b346101365761012061011b3660046100e3565b610635565b610128610093565b8061013281610102565b0390f35b610099565b600091031261014657565b61009e565b1c90565b60018060a01b031690565b61016a90600861016f930261014b565b61014f565b90565b9061017d915461015a565b90565b61018d6001600090610172565b90565b90565b6101a76101a26101ac926100a8565b610190565b6100a8565b90565b6101b890610193565b90565b6101c4906101af565b90565b6101d0906101bb565b9052565b91906101e8906000602085019401906101c7565b565b3461021a576101fa36600461013b565b610216610205610180565b61020d610093565b918291826101d4565b0390f35b610099565b3461024d5761022f36600461013b565b610237610691565b61023f610093565b8061024981610102565b0390f35b610099565b600080fd5b600080fd5b601f801991011690565b634e487b7160e01b600052604160045260246000fd5b906102869061025c565b810190811067ffffffffffffffff8211176102a057604052565b610266565b906102b86102b1610093565b928361027c565b565b67ffffffffffffffff81116102d8576102d460209161025c565b0190565b610266565b90826000939282370152565b909291926102fe6102f9826102ba565b6102a5565b9381855260208501908284011161031a57610318926102dd565b565b610257565b9080601f8301121561033d5781602061033a933591016102e9565b90565b610252565b60ff1690565b61035181610342565b0361035857565b600080fd5b9050359061036a82610348565b565b90565b6103788161036c565b0361037f57565b600080fd5b905035906103918261036f565b565b60e08183031261042f576103aa82600083016100d4565b926103b883602084016100d4565b92604083013567ffffffffffffffff811161042a57816103d991850161031f565b92606081013567ffffffffffffffff811161042557826103fa91830161031f565b9261042261040b846080850161035d565b936104198160a086016100d4565b9360c001610384565b90565b6100a3565b6100a3565b61009e565b61043d906100b3565b9052565b919061045590600060208501940190610434565b565b3461048e5761048a61047961046d366004610393565b959490949391936107bb565b610481610093565b91829182610441565b0390f35b610099565b346104c3576104a336600461013b565b6104bf6104ae61084d565b6104b6610093565b91829182610441565b0390f35b610099565b346104ff576104fb6104ea6104de366004610393565b95949094939193610887565b6104f2610093565b91829182610441565b0390f35b610099565b346105325761051c6105173660046100e3565b610ab2565b610524610093565b8061052e81610102565b0390f35b610099565b600080fd5b61054d90610548610b40565b6105a2565b565b60001c90565b6105616105669161054f565b61014f565b90565b6105739054610555565b90565b600080fd5b60e01b90565b600091031261058c57565b61009e565b610599610093565b3d6000823e3d90fd5b6105b46105af6001610569565b6101bb565b90633659cfe690823b15610630576105ec926105e1600080946105d5610093565b9687958694859361057b565b835260048301610441565b03925af1801561062b576105fe575b50565b61061e9060003d8111610624575b610616818361027c565b810190610581565b386105fb565b503d61060c565b610591565b610576565b61063e9061053c565b565b610648610b40565b61065061067d565b565b90565b61066961066461066e92610652565b610190565b6100a8565b90565b61067a90610655565b90565b61068f61068a6000610671565b610bbc565b565b610699610640565b565b600090565b5190565b60209181520190565b60005b8381106106c1575050906000910152565b8060209183015181850152016106b0565b6106f16106fa6020936106ff936106e8816106a0565b938480936106a4565b958691016106ad565b61025c565b0190565b61070c90610342565b9052565b6107199061036c565b9052565b919461076f61076460a095610756610779956107809a9c9b999c61074960c08a019260008b0190610434565b88820360208a01526106d2565b9086820360408801526106d2565b986060850190610703565b6080830190610434565b0190610710565b565b60200190565b5190565b9061079e610799836102ba565b6102a5565b918252565b6107ad600061078c565b90565b6107b86107a3565b90565b949361081e966107fc94956107ed936107d261069b565b509496929091926107e1610093565b9788966020880161071d565b6020820181038252038261027c565b61080e61080882610788565b91610782565b20906108186107b0565b91610ccc565b90565b60018060a01b031690565b61083861083d9161054f565b610821565b90565b61084a905461082c565b90565b61085561069b565b506108606000610840565b90565b61086c90610193565b90565b61087890610863565b90565b610884906101af565b90565b6108ee9096919293959661089961069b565b50836108cc86916108bd8a8a8d9089926108b1610093565b9788966020880161071d565b6020820181038252038261027c565b6108de6108d882610788565b91610782565b20906108e86107b0565b91610e2c565b956109006108fb8861086f565b61087b565b92639c14f29890949695919295843b156109bf5760009661093594889461094093610929610093565b9b8c9a8b998a9861057b565b88526004880161071d565b03925af180156109ba5761098d575b50806109877f2f7aebcaa1b6e607137fc80962355832b79ed6710cc89acb7987434d1e4d1b249161097e610093565b91829182610441565b0390a190565b6109ad9060003d81116109b3575b6109a5818361027c565b810190610581565b3861094f565b503d61099b565b610591565b610576565b6109d5906109d0610b40565b610a81565b565b60207f6464726573730000000000000000000000000000000000000000000000000000917f4f776e61626c653a206e6577206f776e657220697320746865207a65726f206160008201520152565b610a3260266040926106a4565b610a3b816109d7565b0190565b610a559060208101906000818303910152610a25565b90565b15610a5f57565b610a67610093565b62461bcd60e51b815280610a7d60048201610a3f565b0390fd5b610ab090610aab81610aa4610a9e610a996000610671565b6100b3565b916100b3565b1415610a58565b610bbc565b565b610abb906109c4565b565b60007f4f776e61626c653a2063616c6c6572206973206e6f7420746865206f776e6572910152565b610af1602080926106a4565b610afa81610abd565b0190565b610b149060208101906000818303910152610ae5565b90565b15610b1e57565b610b26610093565b62461bcd60e51b815280610b3c60048201610afe565b0390fd5b610b6a610b4b61084d565b610b64610b5e610b59610f6b565b6100b3565b916100b3565b14610b17565b565b60001b90565b90610b8360018060a01b0391610b6c565b9181191691161790565b610b96906101af565b90565b90565b90610bb1610bac610bb892610b8d565b610b99565b8254610b72565b9055565b610bc66000610840565b610bd1826000610b9c565b90610c05610bff7f8be0079c531659141344cd1fd0a4f28419497f9722a3daafe3b4186f6b6457e093610b8d565b91610b8d565b91610c0e610093565b80610c1881610102565b0390a3565b90565b610c2c610c319161036c565b610c1d565b9052565b60601b90565b610c4490610c35565b90565b610c5090610c3b565b90565b610c5f610c64916100b3565b610c47565b9052565b905090565b610c92610c8992602092610c8081610788565b94858093610c68565b938491016106ad565b0190565b60148093610cba602084610cb2610cc296610cc99b9a98610c20565b018092610c53565b018092610c53565b0190610c6d565b90565b610d5f9291610d09610d1892610ce061069b565b509193610cf5610cf06001610569565b6101bb565b610cfd610093565b95869460208601610c96565b6020820181038252038261027c565b610d2a610d2482610788565b91610782565b2061148a610d3a602082016102a5565b908082526111e36020830139610d58610d5282610788565b91610782565b2090610f84565b90565b90565b610d79610d74610d7e92610652565b610190565b610d62565b90565b610d8a90610193565b90565b610d9690610d81565b90565b610da290610193565b90565b610dae90610d99565b90565b610dba906101af565b90565b60209181520190565b610de5610dee602093610df393610ddc81610788565b93848093610dbd565b958691016106ad565b61025c565b0190565b610e1c610e29949293610e1260608401956000850190610434565b6020830190610434565b6040818403910152610dc6565b90565b610ebc9093929193610e3c61069b565b50610e7c8591610e6d610e57610e526001610569565b6101bb565b8690610e61610093565b95869460208601610c96565b6020820181038252038261027c565b610e8e610e8882610788565b91610782565b2061148a610e9e602082016102a5565b908082526111e36020830139610eb76000929192610d65565b611130565b92610ed6610ed1610ecc86610d8d565b610da5565b610db1565b63cf7a1d779190610eef610eea6001610569565b6101bb565b9392813b15610f66576000610f1791610f228296610f0b610093565b9889978896879561057b565b855260048501610df7565b03925af18015610f6157610f34575b50565b610f549060003d8111610f5a575b610f4c818361027c565b810190610581565b38610f31565b503d610f42565b610591565b610576565b610f7361069b565b503390565b610f81906101af565b90565b90610fa291610f9161069b565b5090610f9c30610f78565b916111b9565b90565b60007f437265617465323a20696e73756666696369656e742062616c616e6365000000910152565b610fda601d6020926106a4565b610fe381610fa5565b0190565b610ffd9060208101906000818303910152610fcd565b90565b1561100757565b61100f610093565b62461bcd60e51b81528061102560048201610fe7565b0390fd5b60007f437265617465323a2062797465636f6465206c656e677468206973207a65726f910152565b61105d602080926106a4565b61106681611029565b0190565b6110809060208101906000818303910152611051565b90565b1561108a57565b611092610093565b62461bcd60e51b8152806110a86004820161106a565b0390fd5b60007f437265617465323a204661696c6564206f6e206465706c6f7900000000000000910152565b6110e160196020926106a4565b6110ea816110ac565b0190565b61110490602081019060008183039101526110d4565b90565b1561110e57565b611116610093565b62461bcd60e51b81528061112c600482016110ee565b0390fd5b91909161113b61069b565b5061116261114830610f78565b3161115b61115584610d62565b91610d62565b1015611000565b61118861116e83610788565b61118161117b6000610d65565b91610d62565b1415611083565b60208251920190f5906111b7826111b06111aa6111a56000610671565b6100b3565b916100b3565b1415611107565b565b90605592600b926111c861069b565b50604051926040840152602083015281520160ff8153209056fe608060405234601c57600e6020565b61145e61002c823961145e90f35b6026565b60405190565b600080fdfe6080604052361561006b5761006b565b90565b60018060a01b031690565b90565b61003461002f6100399261000f565b61001d565b610012565b90565b61004590610020565b90565b61005190610012565b90565b606090565b63ffffffff60e01b1690565b60000190565b61007361017e565b61008e610088610083600061003c565b610048565b91610048565b0361046c5761009b610054565b5063ffffffff60e01b600035166100c16100bb63cf7a1d7760e01b610059565b91610059565b146100e357600063f92ee8a960e01b8152806100df60048201610065565b0390fd5b6100eb610401565b602081519101f35b600090565b90565b90565b60001b90565b61011861011361011d926100f8565b6100fe565b6100fb565b90565b6101497fb53127684a568b3173ae13b9f8a6016e243e63b6e8ee1178d6a717850b5d6103610104565b90565b60001c90565b60018060a01b031690565b61016961016e9161014c565b610152565b90565b61017b905461015d565b90565b6101866100f3565b506101a2600061019c610197610120565b6105a2565b01610171565b90565b90565b90565b6101bf6101ba6101c4926101a5565b61001d565b6101a8565b90565b60405190565b600080fd5b600080fd5b909392938483116101f75784116101f2576001820201920390565b6101d2565b6101cd565b91565b600080fd5b600080fd5b61021290610012565b90565b61021e81610209565b0361022557565b600080fd5b9050359061023782610215565b565b600080fd5b600080fd5b601f801991011690565b634e487b7160e01b600052604160045260246000fd5b9061026d90610243565b810190811067ffffffffffffffff82111761028757604052565b61024d565b9061029f6102986101c7565b9283610263565b565b67ffffffffffffffff81116102bf576102bb602091610243565b0190565b61024d565b90826000939282370152565b909291926102e56102e0826102a1565b61028c565b93818552602085019082840111610301576102ff926102c4565b565b61023e565b9080601f8301121561032457816020610321933591016102d0565b90565b610239565b9160608383031261037657610341826000850161022a565b9261034f836020830161022a565b92604082013567ffffffffffffffff81116103715761036e9201610306565b90565b610204565b6101ff565b61038f61038a61039492610012565b61001d565b610012565b90565b6103a09061037b565b90565b6103ac90610397565b90565b67ffffffffffffffff81116103cd576103c9602091610243565b0190565b61024d565b906103e46103df836103af565b61028c565b918252565b6103f360006103d2565b90565b6103fe6103e9565b90565b610409610054565b506104126105cd565b61046161045761045161044761043f61043960003661043160046101ab565b9080926101d7565b906101fc565b810190610329565b93919290926103a3565b916103a3565b91909190916105ec565b6104696103f6565b90565b3361048661048061047b61017e565b610048565b91610048565b1460001461059d57610496610054565b5063ffffffff60e01b60003516806104bd6104b7631b2ce7f360e11b610059565b91610059565b146000146104d757506104ce610817565b5b602081519101f35b806104f16104eb63278f794360e11b610059565b91610059565b1460001461050857506105026107c1565b5b6104cf565b8061052261051c6308f2839760e41b610059565b91610059565b146000146105395750610533610723565b5b610503565b8061055361054d6303e1469160e61b610059565b91610059565b1460001461056a57506105646106bf565b5b610534565b61058361057d635c60da1b60e01b610059565b91610059565b146000146105985761059361067a565b610565565b61064a565b61064a565b90565b6105b96105b46105be9261000f565b61001d565b6101a8565b90565b156105c857565b600080fd5b6105ea346105e46105de60006105a5565b916101a8565b146105c1565b565b91906105f661087a565b61061161060b610606600061003c565b610048565b91610048565b0361062d5761062261062b936108b2565b9060009161098d565b565b600063f92ee8a960e01b81528061064660048201610065565b0390fd5b610652610aa6565b610ae7565b61066090610048565b9052565b919061067890600060208501940190610657565b565b610682610054565b5061068b6105cd565b6106ad6106bc610699610aa6565b6106a16101c7565b92839160208301610664565b60208201810382520382610263565b90565b6106c7610054565b506106d06105cd565b6106f26107016106de61017e565b6106e66101c7565b92839160208301610664565b60208201810382520382610263565b90565b9060208282031261071e5761071b9160000161022a565b90565b6101ff565b61072b610054565b506107346105cd565b61077061076b61076661075e61075860003661075060046101ab565b9080926101d7565b906101fc565b810190610704565b6103a3565b6108b2565b6107786103f6565b90565b9190916040818403126107bc57610795836000830161022a565b92602082013567ffffffffffffffff81116107b7576107b49201610306565b90565b610204565b6101ff565b6107c9610054565b5061080c6108036107fc6107f46107ee6000366107e660046101ab565b9080926101d7565b906101fc565b81019061077b565b91906103a3565b90600191610b0a565b6108146103f6565b90565b61081f610054565b506108286105cd565b61086f61085f61085a61085261084c60003661084460046101ab565b9080926101d7565b906101fc565b810190610704565b6103a3565b6108676103f6565b600091610b0a565b6108776103f6565b90565b6108826100f3565b5061088b61017e565b90565b9160206108b09294936108a960408201966000830190610657565b0190610657565b565b6108fd906108be61017e565b817f7e644d79422f17c01e4894b5f4f588d331ebfa28653d42ae832dc59e38c9798f916108f56108ec6101c7565b9283928361088e565b0390a1610c4d565b565b61090890610397565b90565b5190565b6109189061037b565b90565b6109249061090f565b90565b61093090610397565b90565b60e01b90565b61094281610048565b0361094957565b600080fd5b9050519061095b82610939565b565b90602082820312610977576109749160000161094e565b90565b6101ff565b6109846101c7565b3d6000823e3d90fd5b9161099783610e30565b826109c27f1cf3b03a6cf19fa2baba4df148e9dcabedea7f8a5c07840e207e5c089be95d3e916108ff565b906109cb6101c7565b806109d581610065565b0390a26109e18261090b565b6109f46109ee60006105a5565b916101a8565b11908115610a9e575b50610a07575b5050565b6020610a1d610a18610a339461091b565b610927565b635c60da1b90610a2b6101c7565b948592610933565b82528180610a4360048201610065565b03915afa908115610a9957610a6192600092610a69575b5090610f65565b503880610a03565b610a8b91925060203d8111610a92575b610a838183610263565b81019061095d565b9038610a5a565b503d610a79565b61097c565b9050386109fd565b610aae6100f3565b50610ab7610f85565b80610ad3610acd610ac8600061003c565b610048565b91610048565b03610ae45750610ae1610f99565b90565b90565b60008091368280378136915af43d6000803e600014610b05573d6000f35b3d6000fd5b91610b148361102f565b610b1d8261090b565b610b30610b2a60006105a5565b916101a8565b11908115610b54575b50610b43575b5050565b610b4c91610f65565b503880610b3f565b905038610b39565b60209181520190565b60207f6464726573730000000000000000000000000000000000000000000000000000917f455243313936373a206e65772061646d696e20697320746865207a65726f206160008201520152565b610bc06026604092610b5c565b610bc981610b65565b0190565b610be39060208101906000818303910152610bb3565b90565b15610bed57565b610bf56101c7565b62461bcd60e51b815280610c0b60048201610bcd565b0390fd5b90610c2060018060a01b03916100fe565b9181191691161790565b90565b90610c42610c3d610c49926108ff565b610c2a565b8254610c0f565b9055565b610c8f90610c7781610c70610c6a610c65600061003c565b610048565b91610048565b1415610be6565b6000610c89610c84610120565b6105a2565b01610c2d565b565b60207f7472616374000000000000000000000000000000000000000000000000000000917f455243313936373a206e657720626561636f6e206973206e6f74206120636f6e60008201520152565b610cec6025604092610b5c565b610cf581610c91565b0190565b610d0f9060208101906000818303910152610cdf565b90565b15610d1957565b610d216101c7565b62461bcd60e51b815280610d3760048201610cf9565b0390fd5b60207f73206e6f74206120636f6e747261637400000000000000000000000000000000917f455243313936373a20626561636f6e20696d706c656d656e746174696f6e206960008201520152565b610d966030604092610b5c565b610d9f81610d3b565b0190565b610db99060208101906000818303910152610d89565b90565b15610dc357565b610dcb6101c7565b62461bcd60e51b815280610de160048201610da3565b0390fd5b90565b610dfc610df7610e0192610de5565b6100fe565b6100fb565b90565b610e2d7fa3f0ad74e5423aebfd80d3ef4346578335a9a72aeaee59ff6cb3582b35133d50610de8565b90565b610e6e90610e45610e408261107f565b610d12565b6020610e58610e538361091b565b610927565b635c60da1b90610e666101c7565b948592610933565b82528180610e7e60048201610065565b03915afa8015610eee57610ea1610ea691610ebe94600091610ec0575b5061107f565b610dbc565b6000610eb8610eb3610e04565b6105a2565b01610c2d565b565b610ee1915060203d8111610ee7575b610ed98183610263565b81019061095d565b38610e9b565b503d610ecf565b61097c565b60207f206661696c656400000000000000000000000000000000000000000000000000917f416464726573733a206c6f772d6c6576656c2064656c65676174652063616c6c60008201520152565b610f4b60276103d2565b90610f5860208301610ef3565b565b610f62610f41565b90565b90610f8291610f72610054565b5090610f7c610f5a565b916110e2565b90565b610f8d6100f3565b50610f96611160565b90565b610fa16100f3565b50610fd56020610fbf610fba610fb5611187565b61091b565b610927565b635c60da1b90610fcd6101c7565b938492610933565b82528180610fe560048201610065565b03915afa90811561102a57600091610ffc575b5090565b61101d915060203d8111611023575b6110158183610263565b81019061095d565b38610ff8565b503d61100b565b61097c565b61103881611258565b6110627fbc7cd75a20ee27fd9adebab32041f755214dbc6bffa90cc0225b39da2e5c2d3b916108ff565b9061106b6101c7565b8061107581610065565b0390a2565b600090565b61108761107a565b503b61109c61109660006105a5565b916101a8565b1190565b906110b26110ad836102a1565b61028c565b918252565b3d6000146110d4576110c83d6110a0565b903d6000602084013e5b565b6110dc610054565b906110d2565b9091600080611112946110f3610054565b508490602081019051915af4916111086110b7565b909290919261130b565b90565b90565b61112c61112761113192611115565b6100fe565b6100fb565b90565b61115d7f360894a13ba1a3210667c828492db98dca3e2076cc3735a920a3ca505d382bbc611118565b90565b6111686100f3565b50611184600061117e611179611134565b6105a2565b01610171565b90565b61118f6100f3565b506111ab60006111a56111a0610e04565b6105a2565b01610171565b90565b60207f6f74206120636f6e747261637400000000000000000000000000000000000000917f455243313936373a206e657720696d706c656d656e746174696f6e206973206e60008201520152565b611209602d604092610b5c565b611212816111ae565b0190565b61122c90602081019060008183039101526111fc565b90565b1561123657565b61123e6101c7565b62461bcd60e51b81528061125460048201611216565b0390fd5b6112859061126d6112688261107f565b61122f565b600061127f61127a611134565b6105a2565b01610c2d565b565b60007f416464726573733a2063616c6c20746f206e6f6e2d636f6e7472616374000000910152565b6112bc601d602092610b5c565b6112c581611287565b0190565b6112df90602081019060008183039101526112af565b90565b156112e957565b6112f16101c7565b62461bcd60e51b815280611307600482016112c9565b0390fd5b919290611316610054565b5060001461135c57506113288261090b565b61133b61133560006105a5565b916101a8565b14611345575b5090565b6113516113569161107f565b6112e2565b38611341565b826113d5565b5190565b60005b83811061137a575050906000910152565b806020918301518185015201611369565b6113aa6113b36020936113b8936113a181611362565b93848093610b5c565b95869101611366565b610243565b0190565b6113d2916020820191600081840391015261138b565b90565b906113df8261090b565b6113f26113ec60006105a5565b916101a8565b116000146114035750805190602001fd5b6114249061140f6101c7565b91829162461bcd60e51b8352600483016113bc565b0390fdfea2646970667358221220fb1899e61f38faa78bfbab79b8dc2fa613357c2fce2699411f9fee80b624365564736f6c634300081b0033a2646970667358221220cd646062cb417292f6d2898e5ada0fe14e78d8b561e44329e18b3e3630edc17d64736f6c634300081b003360c06040523461003957610011610049565b61001961003e565b6137ba610426823960805181612a1c015260a0518161175401526137ba90f35b610044565b60405190565b600080fd5b610051610057565b3360a052565b61005f610061565b565b61006961006b565b565b610073610121565b565b601f801991011690565b634e487b7160e01b600052604160045260246000fd5b9061009f90610075565b810190811060018060401b038211176100b757604052565b61007f565b906100cf6100c861003e565b9283610095565b565b60018060401b0381116100ed576100e9602091610075565b0190565b61007f565b906101046100ff836100d1565b6100bc565b918252565b61011360006100f2565b90565b61011e610109565b90565b61013a61012c610116565b610134610116565b90610140565b33608052565b9061014a9161014c565b565b9061015691610158565b565b9061016291610164565b565b9061016e91610170565b565b9061017a9161017c565b565b9061018691610188565b565b9061019291610194565b565b9061019e916101a0565b565b906101aa9161040d565b565b5190565b634e487b7160e01b600052602260045260246000fd5b90600160028304921680156101e6575b60208310146101e157565b6101b0565b91607f16916101d6565b600052602060002090565b601f602091010490565b1b90565b9190600861022591029161021f60001984610205565b92610205565b9181191691161790565b90565b90565b61024961024461024e9261022f565b610232565b61022f565b90565b90565b919061026a61026561027293610235565b610251565b908354610209565b9055565b600090565b61028d91610287610276565b91610254565b565b5b81811061029b575050565b806102a9600060019361027b565b01610290565b9190601f81116102bf575b505050565b6102cb6102f0936101f0565b9060206102d7846101fb565b830193106102f8575b6102e9906101fb565b019061028f565b3880806102ba565b91506102e9819290506102e0565b1c90565b9061031b9060001990600802610306565b191690565b8161032a9161030a565b906002021790565b9061033c816101ac565b9060018060401b0382116103fc5761035e8261035885546101c6565b856102af565b602090601f83116001146103935791809161038293600092610387575b5050610320565b90555b565b9091500151388061037b565b601f198316916103a2856101f0565b9260005b8181106103e4575091600293918560019694106103ca575b50505002019055610385565b6103da910151601f84169061030a565b90553880806103be565b919360206001819287870151815501950192016103a6565b61007f565b9061040b91610332565b565b9061041c610423926003610401565b6004610401565b56fe60806040526004361015610013575b610dcf565b61001e6000356101cd565b806301ffc9a7146101c857806306fdde03146101c3578063095ea7b3146101be5780630bb310de146101b957806318160ddd146101b457806323b872dd146101af578063248a9ca3146101aa5780632f2ff15d146101a5578063313ce567146101a057806336568abe1461019b578063395093511461019657806340c10f191461019157806342966c681461018c5780635a4462151461018757806370a08231146101825780639010d07c1461017d57806391d148541461017857806395d89b41146101735780639c14f2981461016e5780639d043a6614610169578063a217fddf14610164578063a457c2d71461015f578063a9059cbb1461015a578063ca15c87314610155578063d547741f14610150578063dd62ed3e1461014b5763ed4c2ac70361000e57610d9c565b610d66565b610d04565b610ccf565b610c99565b610c63565b610c2e565b610bbb565b610aec565b6109fe565b6109c8565b610992565b61090c565b6108d8565b610761565b61070e565b6106d8565b6106a4565b61066f565b610612565b6105af565b610510565b6104a0565b61044a565b6103ef565b61032a565b61025f565b60e01c90565b60405190565b600080fd5b600080fd5b600080fd5b63ffffffff60e01b1690565b6101fd816101e8565b0361020457565b600080fd5b90503590610216826101f4565b565b906020828203126102325761022f91600001610209565b90565b6101de565b151590565b61024590610237565b9052565b919061025d9060006020850194019061023c565b565b3461028f5761028b61027a610275366004610218565b610dd9565b6102826101d3565b91829182610249565b0390f35b6101d9565b600091031261029f57565b6101de565b5190565b60209181520190565b60005b8381106102c5575050906000910152565b8060209183015181850152016102b4565b601f801991011690565b6102ff61030860209361030d936102f6816102a4565b938480936102a8565b958691016102b1565b6102d6565b0190565b61032791602082019160008184039101526102e0565b90565b3461035a5761033a366004610294565b610356610345610f52565b61034d6101d3565b91829182610311565b0390f35b6101d9565b60018060a01b031690565b6103739061035f565b90565b61037f8161036a565b0361038657565b600080fd5b9050359061039882610376565b565b90565b6103a68161039a565b036103ad57565b600080fd5b905035906103bf8261039d565b565b91906040838203126103ea57806103de6103e7926000860161038b565b936020016103b2565b90565b6101de565b346104205761041c61040b6104053660046103c1565b90610f68565b6104136101d3565b91829182610249565b0390f35b6101d9565b9060208282031261043f5761043c9160000161038b565b90565b6101de565b60000190565b346104785761046261045d366004610425565b61105f565b61046a6101d3565b8061047481610444565b0390f35b6101d9565b6104869061039a565b9052565b919061049e9060006020850194019061047d565b565b346104d0576104b0366004610294565b6104cc6104bb611099565b6104c36101d3565b9182918261048a565b0390f35b6101d9565b909160608284031261050b576105086104f1846000850161038b565b936104ff816020860161038b565b936040016103b2565b90565b6101de565b346105415761053d61052c6105263660046104d5565b916110af565b6105346101d3565b91829182610249565b0390f35b6101d9565b90565b61055281610546565b0361055957565b600080fd5b9050359061056b82610549565b565b90602082820312610587576105849160000161055e565b90565b6101de565b61059590610546565b9052565b91906105ad9060006020850194019061058c565b565b346105df576105db6105ca6105c536600461056d565b61112b565b6105d26101d3565b91829182610599565b0390f35b6101d9565b919060408382031261060d578061060161060a926000860161055e565b9360200161038b565b90565b6101de565b346106415761062b6106253660046105e4565b90611176565b6106336101d3565b8061063d81610444565b0390f35b6101d9565b60ff1690565b61065590610646565b9052565b919061066d9060006020850194019061064c565b565b3461069f5761067f366004610294565b61069b61068a6111ae565b6106926101d3565b91829182610659565b0390f35b6101d9565b346106d3576106bd6106b73660046105e4565b9061126e565b6106c56101d3565b806106cf81610444565b0390f35b6101d9565b34610709576107056106f46106ee3660046103c1565b906112d8565b6106fc6101d3565b91829182610249565b0390f35b6101d9565b3461073d576107276107213660046103c1565b90611359565b61072f6101d3565b8061073981610444565b0390f35b6101d9565b9060208282031261075c57610759916000016103b2565b90565b6101de565b3461078f57610779610774366004610742565b611365565b6107816101d3565b8061078b81610444565b0390f35b6101d9565b600080fd5b600080fd5b634e487b7160e01b600052604160045260246000fd5b906107be906102d6565b810190811067ffffffffffffffff8211176107d857604052565b61079e565b906107f06107e96101d3565b92836107b4565b565b67ffffffffffffffff81116108105761080c6020916102d6565b0190565b61079e565b90826000939282370152565b90929192610836610831826107f2565b6107dd565b938185526020850190828401116108525761085092610815565b565b610799565b9080601f830112156108755781602061087293359101610821565b90565b610794565b9190916040818403126108d357600081013567ffffffffffffffff81116108ce57836108a7918301610857565b92602082013567ffffffffffffffff81116108c9576108c69201610857565b90565b6101e3565b6101e3565b6101de565b34610907576108f16108eb36600461087a565b906115ae565b6108f96101d3565b8061090381610444565b0390f35b6101d9565b3461093c57610938610927610922366004610425565b6115ea565b61092f6101d3565b9182918261048a565b0390f35b6101d9565b919060408382031261096a578061095e610967926000860161055e565b936020016103b2565b90565b6101de565b6109789061036a565b9052565b91906109909060006020850194019061096f565b565b346109c3576109bf6109ae6109a8366004610941565b90611629565b6109b66101d3565b9182918261097c565b0390f35b6101d9565b346109f9576109f56109e46109de3660046105e4565b90611690565b6109ec6101d3565b91829182610249565b0390f35b6101d9565b34610a2e57610a0e366004610294565b610a2a610a196116bb565b610a216101d3565b91829182610311565b0390f35b6101d9565b610a3c81610646565b03610a4357565b600080fd5b90503590610a5582610a33565b565b909160c082840312610ae757610a70836000840161038b565b92602083013567ffffffffffffffff8111610ae25781610a91918501610857565b92604081013567ffffffffffffffff8111610add5782610ab2918301610857565b92610ada610ac38460608501610a48565b93610ad1816080860161038b565b9360a00161055e565b90565b6101e3565b6101e3565b6101de565b34610b2157610b0b610aff366004610a57565b94939093929192611745565b610b136101d3565b80610b1d81610444565b0390f35b6101d9565b600080fd5b908160c0910312610b395790565b610b26565b908160e0910312610b4c5790565b610b26565b91606083830312610bb657610b69826000850161038b565b92602081013567ffffffffffffffff8111610bb15783610b8a918301610b2b565b92604082013567ffffffffffffffff8111610bac57610ba99201610b3e565b90565b6101e3565b6101e3565b6101de565b34610bec57610be8610bd7610bd1366004610b51565b91611b3a565b610bdf6101d3565b91829182610599565b0390f35b6101d9565b90565b60001b90565b610c0e610c09610c1392610bf1565b610bf4565b610546565b90565b610c206000610bfa565b90565b610c2b610c16565b90565b34610c5e57610c3e366004610294565b610c5a610c49610c23565b610c516101d3565b91829182610599565b0390f35b6101d9565b34610c9457610c90610c7f610c793660046103c1565b90611c93565b610c876101d3565b91829182610249565b0390f35b6101d9565b34610cca57610cc6610cb5610caf3660046103c1565b90611ce7565b610cbd6101d3565b91829182610249565b0390f35b6101d9565b34610cff57610cfb610cea610ce536600461056d565b611d09565b610cf26101d3565b9182918261048a565b0390f35b6101d9565b34610d3357610d1d610d173660046105e4565b90611d59565b610d256101d3565b80610d2f81610444565b0390f35b6101d9565b9190604083820312610d615780610d55610d5e926000860161038b565b9360200161038b565b90565b6101de565b34610d9757610d93610d82610d7c366004610d38565b90611d7d565b610d8a6101d3565b9182918261048a565b0390f35b6101d9565b34610dca57610db4610daf36600461056d565b611e10565b610dbc6101d3565b80610dc681610444565b0390f35b6101d9565b600080fd5b600090565b610de1610dd4565b506306a15b4360e21b610dfc610df6836101e8565b916101e8565b148015610e20575b908115610e10575b5090565b610e1a9150611e1b565b38610e0c565b50610e2a81611e1b565b610e04565b606090565b634e487b7160e01b600052602260045260246000fd5b9060016002830492168015610e6a575b6020831014610e6557565b610e34565b91607f1691610e5a565b60209181520190565b600052602060002090565b9060009291805490610ea3610e9c83610e4a565b8094610e74565b91600181169081600014610efc5750600114610ebf575b505050565b610ecc9192939450610e7d565b916000925b818410610ee45750500190388080610eba565b60018160209295939554848601520191019290610ed1565b92949550505060ff1916825215156020020190388080610eba565b90610f2191610e88565b90565b90610f44610f3d92610f346101d3565b93848092610f17565b03836107b4565b565b610f4f90610f24565b90565b610f5a610e2f565b50610f656009610f46565b90565b610f8591610f74610dd4565b50610f7d611e83565b91909161202c565b600190565b7f70649ec320b507febad3e8ef750e5f580b9ae32f9f50d4c7b121332c8197153090565b610fc790610fc2610fbd610f8a565b6120ea565b61104a565b565b90565b610fe0610fdb610fe59261035f565b610fc9565b61035f565b90565b610ff190610fcc565b90565b610ffd90610fe8565b90565b9061101160018060a01b0391610bf4565b9181191691161790565b61102490610fe8565b90565b90565b9061103f61103a6110469261101b565b611027565b8254611000565b9055565b61105661105d91610ff4565b600761102a565b565b61106890610fae565b565b600090565b60001c90565b90565b6110846110899161106f565b611075565b90565b6110969054611078565b90565b6110a161106a565b506110ac600261108c565b90565b916110d9926110bc610dd4565b506110d16110c8611e83565b82908491612182565b9190916123f6565b600190565b600090565b6110ec90610546565b90565b906110f9906110e3565b600052602052604060002090565b90565b61111661111b9161106f565b611107565b90565b611128905461110a565b90565b600161114461114a9261113c6110de565b5060056110ef565b0161111e565b90565b906111689161116361115e8261112b565b6120ea565b61116a565b565b906111749161250c565b565b906111809161114d565b565b600090565b60ff1690565b61119961119e9161106f565b611187565b90565b6111ab905461118d565b90565b6111b6611182565b506111c1600b6111a1565b90565b60207f20726f6c657320666f722073656c660000000000000000000000000000000000917f416363657373436f6e74726f6c3a2063616e206f6e6c792072656e6f756e636560008201520152565b61121f602f6040926102a8565b611228816111c4565b0190565b6112429060208101906000818303910152611212565b90565b1561124c57565b6112546101d3565b62461bcd60e51b81528061126a6004820161122c565b0390fd5b9061129b916112968261129061128a611285611e83565b61036a565b9161036a565b14611245565b612536565b565b634e487b7160e01b600052601160045260246000fd5b6112c26112c89193929361039a565b9261039a565b82018092116112d357565b61129d565b611308916112e4610dd4565b506113026112f0611e83565b916112fd83948094611d7d565b6112b3565b9161202c565b600190565b7f9f2df0fed2c77648de5860a4cc508cd0818c85b8b8a1ab4ceeef8d981c8956a690565b9061134b9161134661134161130d565b6120ea565b61134d565b565b90611357916125e4565b565b9061136391611331565b565b61136f90336127fe565b565b9061138b91611386611381610c16565b6120ea565b611596565b565b601f602091010490565b1b90565b919060086113b79102916113b160001984611397565b92611397565b9181191691161790565b6113d56113d06113da9261039a565b610fc9565b61039a565b90565b90565b91906113f66113f16113fe936113c1565b6113dd565b90835461139b565b9055565b6114149161140e61106a565b916113e0565b565b5b818110611422575050565b806114306000600193611402565b01611417565b9190601f8111611446575b505050565b61145261147793610e7d565b90602061145e8461138d565b8301931061147f575b6114709061138d565b0190611416565b388080611441565b915061147081929050611467565b1c90565b906114a2906000199060080261148d565b191690565b816114b191611491565b906002021790565b906114c3816102a4565b9067ffffffffffffffff8211611585576114e7826114e18554610e4a565b85611436565b602090601f831160011461151c5791809161150b93600092611510575b50506114a7565b90555b565b90915001513880611504565b601f1983169161152b85610e7d565b9260005b81811061156d57509160029391856001969410611553575b5050500201905561150e565b611563910151601f841690611491565b9055388080611547565b9193602060018192878701518155019501920161152f565b61079e565b90611594916114b9565b565b906115a56115ac92600961158a565b600a61158a565b565b906115b891611371565b565b6115c390610fcc565b90565b6115cf906115ba565b90565b906115dc906115c6565b600052602052604060002090565b611601611606916115f961106a565b5060006115d2565b61108c565b90565b600090565b90611618906110e3565b600052602052604060002090565b90565b9061164961164461164e9361163c611609565b50600661160e565b611626565b61291d565b90565b9061165b906115c6565b600052602052604060002090565b60ff1690565b61167b6116809161106f565b611669565b90565b61168d905461166f565b90565b6116b89160006116ad6116b3936116a5610dd4565b5060056110ef565b01611651565b611683565b90565b6116c3610e2f565b506116ce600a610f46565b90565b60101c90565b6116e36116e8916116d1565b611669565b90565b6116f590546116d7565b90565b60101b90565b9061170c62ff0000916116f8565b9181191691161790565b61171f90610237565b90565b90565b9061173a61173561174192611716565b611722565b82546116fe565b9055565b9394909192943361177e6117787f000000000000000000000000000000000000000000000000000000000000000061036a565b9161036a565b141580156117d7575b6117ba576117ac9561179f9486949091929394612a0f565b6117a761130d565b61250c565b6117b86001600b611725565b565b600063f92ee8a960e01b8152806117d360048201610444565b0390fd5b506117e2600b6116eb565b611787565b60018060a01b031690565b6117fe6118039161106f565b6117e7565b90565b61181090546117f2565b90565b61181c906115ba565b90565b60e01b90565b9050519061183282610549565b565b9060208282031261184e5761184b91600001611825565b90565b6101de565b5061186290602081019061038b565b90565b61186e9061036a565b9052565b50611881906020810190610209565b90565b61188d906101e8565b9052565b506118a090602081019061055e565b90565b6118ac90610546565b9052565b600080fd5b600080fd5b600080fd5b903560016020038236030381121561190057016020813591019167ffffffffffffffff82116118fb5760018202360383136118f657565b6118b5565b6118b0565b6118ba565b60209181520190565b9190611928816119218161192d95611905565b8095610815565b6102d6565b0190565b9035600160400382360303811215611947570190565b6118ba565b903560016020038236030381121561198d57016020813591019167ffffffffffffffff821161198857600182023603831361198357565b6118b5565b6118b0565b6118ba565b91906119ac816119a5816119b195610e74565b8095610815565b6102d6565b0190565b67ffffffffffffffff1690565b6119cb816119b5565b036119d257565b600080fd5b905035906119e4826119c2565b565b506119f59060208101906119d7565b90565b611a01906119b5565b9052565b90611a43906020611a3b611a3160408401611a23600088018861194c565b908683036000880152611992565b94828101906119e6565b9101906119f8565b90565b611af091611ae2611ad760c08301611a6e611a646000870187611853565b6000860190611865565b611a88611a7e6020870187611872565b6020860190611884565b611aa2611a986040870187611891565b60408601906118a3565b611abc611ab26060870187611891565b60608601906118a3565b611ac960808601866118bf565b90858303608087015261190e565b9260a0810190611931565b9060a0818403910152611a05565b90565b939290611b1f604091611b2794611b12606089019260008a019061096f565b8782036020890152611a46565b94019061058c565b565b611b316101d3565b3d6000823e3d90fd5b9150602090611b476110de565b50611b5a611b556007611806565b611813565b611b86633808a90b949294611b91611b72600861111e565b611b7a6101d3565b9788968795869561181f565b855260048501611af3565b03915afa908115611bd657600091611ba8575b5090565b611bc9915060203d8111611bcf575b611bc181836107b4565b810190611834565b38611ba4565b503d611bb7565b611b29565b60207f207a65726f000000000000000000000000000000000000000000000000000000917f45524332303a2064656372656173656420616c6c6f77616e63652062656c6f7760008201520152565b611c3660256040926102a8565b611c3f81611bdb565b0190565b611c599060208101906000818303910152611c29565b90565b15611c6357565b611c6b6101d3565b62461bcd60e51b815280611c8160048201611c43565b0390fd5b90611c90910361039a565b90565b611ce291611c9f610dd4565b50611cdc611cab611e83565b91611cb7838590611d7d565b92611cd584611cce611cc88561039a565b9161039a565b1015611c5c565b9392611c85565b9161202c565b600190565b611d0491611cf3610dd4565b50611cfc611e83565b9190916123f6565b600190565b611d28611d23611d2d92611d1b61106a565b50600661160e565b611626565b612acb565b90565b90611d4b91611d46611d418261112b565b6120ea565b611d4d565b565b90611d5791612536565b565b90611d6391611d30565b565b90611d6f906115c6565b600052602052604060002090565b611da291611d98611d9d92611d9061106a565b506001611d65565b6115d2565b61108c565b90565b611dbe90611db9611db4610f8a565b6120ea565b611e03565b565b90611dcd60001991610bf4565b9181191691161790565b611de09061106f565b90565b90611df8611df3611dff926110e3565b611dd7565b8254611dc0565b9055565b611e0e906008611de3565b565b611e1990611da5565b565b611e23610dd4565b5080611e3e611e386336372b0760e01b6101e8565b916101e8565b148015611e62575b908115611e52575b5090565b611e5c9150612aeb565b38611e4e565b5080611e7d611e7763a219a02560e01b6101e8565b916101e8565b14611e46565b611e8b611609565b503390565b611ea4611e9f611ea992610bf1565b610fc9565b61035f565b90565b611eb590611e90565b90565b60207f7265737300000000000000000000000000000000000000000000000000000000917f45524332303a20617070726f76652066726f6d20746865207a65726f2061646460008201520152565b611f1360246040926102a8565b611f1c81611eb8565b0190565b611f369060208101906000818303910152611f06565b90565b15611f4057565b611f486101d3565b62461bcd60e51b815280611f5e60048201611f20565b0390fd5b60207f7373000000000000000000000000000000000000000000000000000000000000917f45524332303a20617070726f766520746f20746865207a65726f20616464726560008201520152565b611fbd60226040926102a8565b611fc681611f62565b0190565b611fe09060208101906000818303910152611fb0565b90565b15611fea57565b611ff26101d3565b62461bcd60e51b81528061200860048201611fca565b0390fd5b9061202161201c612028926113c1565b6113dd565b8254611dc0565b9055565b9190916120558161204e6120486120436000611eac565b61036a565b9161036a565b1415611f39565b61207b8361207461206e6120696000611eac565b61036a565b9161036a565b1415611fe3565b61209a8261209561208e60018590611d65565b86906115d2565b61200c565b9190916120e56120d36120cd7f8c5be1e5ebec7d5bd14f71427d1e84f3dd0314c0f7b2291e5b200ac8c7c3b925936115c6565b936115c6565b936120dc6101d3565b9182918261048a565b0390a3565b6120fc906120f6611e83565b90612c13565b565b60007f45524332303a20696e73756666696369656e7420616c6c6f77616e6365000000910152565b612133601d6020926102a8565b61213c816120fe565b0190565b6121569060208101906000818303910152612126565b90565b1561216057565b6121686101d3565b62461bcd60e51b81528061217e60048201612140565b0390fd5b61218d818390611d7d565b90816121a361219d60001961039a565b9161039a565b036121af575b50505050565b6121e1936121db916121d4846121cd6121c78561039a565b9161039a565b1015612159565b9392611c85565b9161202c565b388080806121a9565b60207f6472657373000000000000000000000000000000000000000000000000000000917f45524332303a207472616e736665722066726f6d20746865207a65726f20616460008201520152565b61224560256040926102a8565b61224e816121ea565b0190565b6122689060208101906000818303910152612238565b90565b1561227257565b61227a6101d3565b62461bcd60e51b81528061229060048201612252565b0390fd5b60207f6573730000000000000000000000000000000000000000000000000000000000917f45524332303a207472616e7366657220746f20746865207a65726f206164647260008201520152565b6122ef60236040926102a8565b6122f881612294565b0190565b61231290602081019060008183039101526122e2565b90565b1561231c57565b6123246101d3565b62461bcd60e51b81528061233a600482016122fc565b0390fd5b60207f616c616e63650000000000000000000000000000000000000000000000000000917f45524332303a207472616e7366657220616d6f756e742065786365656473206260008201520152565b61239960266040926102a8565b6123a28161233e565b0190565b6123bc906020810190600081830391015261238c565b90565b156123c657565b6123ce6101d3565b62461bcd60e51b8152806123e4600482016123a6565b0390fd5b906123f3910161039a565b90565b91909161241f8161241861241261240d6000611eac565b61036a565b9161036a565b141561226b565b6124458361243e6124386124336000611eac565b61036a565b9161036a565b1415612315565b61249461248361245f61245a600085906115d2565b61108c565b61247c8161247561246f8861039a565b9161039a565b10156123bf565b8490611c85565b61248f600084906115d2565b61200c565b6124bc826124b66124a7600087906115d2565b916124b18361108c565b6123e8565b9061200c565b9190916125076124f56124ef7fddf252ad1be2c89b69c2b068fc378daa952ba7f163c4a11628f55a4df523b3ef936115c6565b936115c6565b936124fe6101d3565b9182918261048a565b0390a3565b9061252e61252961253393612522818590612ccc565b600661160e565b611626565b612db3565b50565b9061255861255361255d9361254c818590612dee565b600661160e565b611626565b612e88565b50565b60007f45524332303a206d696e7420746f20746865207a65726f206164647265737300910152565b612595601f6020926102a8565b61259e81612560565b0190565b6125b89060208101906000818303910152612588565b90565b156125c257565b6125ca6101d3565b62461bcd60e51b8152806125e0600482016125a2565b0390fd5b9061260b826126046125fe6125f96000611eac565b61036a565b9161036a565b14156125bb565b6126286126218261261c600261108c565b6112b3565b600261200c565b6126508161264a61263b600086906115d2565b916126458361108c565b6123e8565b9061200c565b61265a6000611eac565b9190916126a561269361268d7fddf252ad1be2c89b69c2b068fc378daa952ba7f163c4a11628f55a4df523b3ef936115c6565b936115c6565b9361269c6101d3565b9182918261048a565b0390a3565b60207f7300000000000000000000000000000000000000000000000000000000000000917f45524332303a206275726e2066726f6d20746865207a65726f2061646472657360008201520152565b61270560216040926102a8565b61270e816126aa565b0190565b61272890602081019060008183039101526126f8565b90565b1561273257565b61273a6101d3565b62461bcd60e51b81528061275060048201612712565b0390fd5b60207f6365000000000000000000000000000000000000000000000000000000000000917f45524332303a206275726e20616d6f756e7420657863656564732062616c616e60008201520152565b6127af60226040926102a8565b6127b881612754565b0190565b6127d290602081019060008183039101526127a2565b90565b156127dc57565b6127e46101d3565b62461bcd60e51b8152806127fa600482016127bc565b0390fd5b6128248161281d6128176128126000611eac565b61036a565b9161036a565b141561272b565b61287361286261283e612839600085906115d2565b61108c565b61285b8161285461284e8861039a565b9161039a565b10156127d5565b8490611c85565b61286e600084906115d2565b61200c565b61289061288983612884600261108c565b611c85565b600261200c565b9061289b6000611eac565b90916128e56128d36128cd7fddf252ad1be2c89b69c2b068fc378daa952ba7f163c4a11628f55a4df523b3ef936115c6565b936115c6565b936128dc6101d3565b9182918261048a565b0390a3565b90565b6128f96128fe9161106f565b6113c1565b90565b61291561291061291a9261039a565b610fc9565b61035f565b90565b6129496129446129539361293f600061294e95612938611609565b50016128ea565b612f37565b6128ed565b612901565b6115ba565b90565b60081c90565b61296861296d91612956565b611669565b90565b61297a905461295c565b90565b9061298960ff91610bf4565b9181191691161790565b6129a76129a26129ac92610646565b610fc9565b610646565b90565b90565b906129c76129c26129ce92612993565b6129af565b825461297d565b9055565b60081b90565b906129e561ff00916129d2565b9181191691161790565b90612a046129ff612a0b92611716565b611722565b82546129d8565b9055565b9190949233612a46612a407f000000000000000000000000000000000000000000000000000000000000000061036a565b9161036a565b14158015612abb575b612a9e57612a6f612a7692612a68612a9098600961158a565b600a61158a565b600b6129b2565b612a88612a81610c16565b829061250c565b919091612f59565b612a9c6001600b6129ef565b565b600063f92ee8a960e01b815280612ab760048201610444565b0390fd5b50612ac6600b612970565b612a4f565b612ae36000612ae892612adc61106a565b50016128ea565b612f76565b90565b612af3610dd4565b50612afd81612f8e565b908115612b09575b5090565b612b139150612fce565b38612b05565b90565b612b30612b2b612b3592612b19565b610fc9565b61039a565b90565b905090565b60007f416363657373436f6e74726f6c3a206163636f756e7420000000000000000000910152565b612b7160178092612b38565b612b7a81612b3d565b0190565b612ba3612b9a92602092612b91816102a4565b94858093612b38565b938491016102b1565b0190565b60007f206973206d697373696e6720726f6c6520000000000000000000000000000000910152565b612bdb60118092612b38565b612be481612ba7565b0190565b612c02612c0d9392612bfc612c0793612b65565b90612b7e565b612bcf565b90612b7e565b90565b90565b90612c28612c22838390611690565b15610237565b612c30575050565b612ca891612c86612c5f612c4f612c49612c8b95613056565b936128ed565b612c596020612b1c565b906132e3565b91612c77612c6b6101d3565b93849260208401612be8565b602082018103825203826107b4565b612c10565b612c936101d3565b91829162461bcd60e51b835260048301610311565b0390fd5b90612cc1612cbc612cc892611716565b611722565b825461297d565b9055565b612ce0612cda828490611690565b15610237565b612ce9575b5050565b612d0c6001612d076000612cff600586906110ef565b018590611651565b612cac565b90612d15611e83565b90612d52612d4c612d467f2f8788117e7eff1d82e926ec794901d17c78024a50270940304540a733656f0d956110e3565b926115c6565b926115c6565b92612d5b6101d3565b80612d6581610444565b0390a43880612ce5565b612d7890610fcc565b90565b612d8f612d8a612d949261035f565b610fc9565b61039a565b90565b612dab612da6612db09261039a565b610bf4565b610546565b90565b90612de6612de0612ddb612dd66000612deb96612dce610dd4565b500194612d6f565b612d7b565b612d97565b916128ea565b6134d9565b90565b612df9818390611690565b612e02575b5050565b612e256000612e206000612e18600586906110ef565b018590611651565b612cac565b90612e2e611e83565b90612e6b612e65612e5f7ff6391f5c32d9c69d2a47ea670b442974b53935d1edc7fd64eb21e047a839171b956110e3565b926115c6565b926115c6565b92612e746101d3565b80612e7e81610444565b0390a43880612dfe565b90612ebb612eb5612eb0612eab6000612ec096612ea3610dd4565b500194612d6f565b612d7b565b612d97565b916128ea565b6135be565b90565b634e487b7160e01b600052603260045260246000fd5b5490565b600052602060002090565b612ef181612ed9565b821015612f0c57612f03600191612edd565b91020190600090565b612ec3565b612f21906008612f26930261148d565b611107565b90565b90612f349154612f11565b90565b612f56916000612f5092612f496110de565b5001612ee8565b90612f29565b90565b90612f6f612f749392612f6a610f8a565b61250c565b6136c8565b565b6000612f8b91612f8461106a565b5001612ed9565b90565b612f96610dd4565b5080612fb1612fab635a05180f60e01b6101e8565b916101e8565b14908115612fbe575b5090565b612fc891506136e8565b38612fba565b612fd6610dd4565b5080612ff1612feb634e821d3360e11b6101e8565b916101e8565b14908115612ffe575b5090565b6130089150612f8e565b38612ffa565b90565b61302561302061302a9261300e565b610fc9565b610646565b90565b6130376014613011565b90565b61304e61304961305392610646565b610fc9565b61039a565b90565b61307361306e61308992613068610e2f565b50612d6f565b612d7b565b61308361307e61302d565b61303a565b906132e3565b90565b90565b6130a361309e6130a89261308c565b610fc9565b61039a565b90565b6130ba6130c09193929361039a565b9261039a565b916130cc83820261039a565b9281840414901517156130db57565b61129d565b67ffffffffffffffff81116130fe576130fa6020916102d6565b0190565b61079e565b90613115613110836130e0565b6107dd565b918252565b369037565b9061314461312c83613103565b9260208061313a86936130e0565b920191039061311a565b565b600360fc1b90565b5190565b9061315c8261314e565b81101561316e57600160209102010190565b612ec3565b61318761318261318c92610bf1565b610fc9565b61039a565b90565b600f60fb1b90565b90565b6131ae6131a96131b392613197565b610fc9565b61039a565b90565b6131bf9061039a565b600081146131ce576001900390565b61129d565b6f181899199a1a9b1b9c1cb0b131b232b360811b90565b6131f26131d3565b90565b90565b61320c613207613211926131f5565b610fc9565b61039a565b90565b60f81b90565b90565b61323161322c6132369261321a565b610fc9565b610646565b90565b6132589061325261324c61325d94610646565b9161039a565b9061148d565b61039a565b90565b60007f537472696e67733a20686578206c656e67746820696e73756666696369656e74910152565b613294602080926102a8565b61329d81613260565b0190565b6132b79060208101906000818303910152613288565b90565b156132c157565b6132c96101d3565b62461bcd60e51b8152806132df600482016132a1565b0390fd5b91906132ed610e2f565b5061338761337761332361331e61330e6002613309879161308f565b6130ab565b613318600261308f565b906112b3565b61311f565b9261332c613146565b6133458561333f60009360001a93613173565b90613152565b5361334e61318f565b6133678561336160019360001a9361319a565b90613152565b53613372600261308f565b6130ab565b613381600161319a565b906112b3565b925b8361339d613397600161319a565b9161039a565b1115613404576133ab6131ea565b816133b6600f6131f8565b169160108310156133ff576133d26133f3926133f9941a613214565b6133e28591889060001a92613152565b536133ed600461321d565b90613239565b936131b6565b92613389565b612ec3565b61342c9293506134279061342161341b6000613173565b9161039a565b146132ba565b612c10565b90565b90565b600052602060002090565b5490565b61344a8161343d565b8210156134655761345c600191613432565b91020190600090565b612ec3565b919061348061347b613488936110e3565b611dd7565b90835461139b565b9055565b90815491680100000000000000008310156134bc57826134b49160016134ba95018155613441565b9061346a565b565b61079e565b906134cb906110e3565b600052602052604060002090565b6134e1610dd4565b506134f66134f0828490613728565b15610237565b6000146135395761352f6135349261351a6135136000850161342f565b829061348c565b600161352860008501612ed9565b93016134c1565b61200c565b600190565b5050600090565b61354f6135559193929361039a565b9261039a565b820391821161356057565b61129d565b634e487b7160e01b600052603160045260246000fd5b61358d916135876110de565b9161346a565b565b6135988161343d565b80156135b95760019003906135b66135b08383613441565b9061357b565b55565b613565565b6135c6610dd4565b506135dd6135d86001830184906134c1565b61108c565b90816135f26135ec6000613173565b9161039a565b14156000146136c05761367292600161366d928461361b6000966136158561319a565b90613540565b613638613629888501612ed9565b6136328661319a565b90613540565b8061364b6136458461039a565b9161039a565b03613677575b50505061366761366286830161342f565b61358f565b016134c1565b611402565b600190565b6136b8926136aa6136966136906136b3948c8901612ee8565b90612f29565b936136a485918c8901612ee8565b9061346a565b918585016134c1565b61200c565b388080613651565b505050600090565b906136df6136d86136e693610ff4565b600761102a565b6008611de3565b565b6136f0610dd4565b508061370b613705637965db0b60e01b6101e8565b916101e8565b14908115613718575b5090565b613722915061375e565b38613714565b6137469160016137419261373a610dd4565b50016134c1565b61108c565b6137596137536000613173565b9161039a565b141590565b613766610dd4565b5061378061377a6301ffc9a760e01b6101e8565b916101e8565b149056fea2646970667358221220f054ac8ddca73df07efe925c9789862ccbc82a4159f335f2a7d7ebc0d6f5098764736f6c634300081b003360806040523461002f576100196100146100fa565b61011b565b610021610034565b610722610380823961072290f35b61003a565b60405190565b600080fd5b601f801991011690565b634e487b7160e01b600052604160045260246000fd5b906100699061003f565b810190811060018060401b0382111761008157604052565b610049565b90610099610092610034565b928361005f565b565b600080fd5b60018060a01b031690565b6100b4906100a0565b90565b6100c0816100ab565b036100c757565b600080fd5b905051906100d9826100b7565b565b906020828203126100f5576100f2916000016100cc565b90565b61009b565b610118610aa28038038061010d81610086565b9283398101906100db565b90565b61012c9061012761012e565b61026e565b565b61013e610139610291565b6102d6565b565b60209181520190565b60207f6e206973206e6f74206120636f6e747261637400000000000000000000000000917f5570677261646561626c65426561636f6e3a20696d706c656d656e746174696f60008201520152565b6101a46033604092610140565b6101ad81610149565b0190565b6101c79060208101906000818303910152610197565b90565b156101d157565b6101d9610034565b62461bcd60e51b8152806101ef600482016101b1565b0390fd5b60001b90565b9061020a60018060a01b03916101f3565b9181191691161790565b90565b61022b610226610230926100a0565b610214565b6100a0565b90565b61023c90610217565b90565b61024890610233565b90565b90565b9061026361025e61026a9261023f565b61024b565b82546101f9565b9055565b61028a9061028361027e8261035e565b6101ca565b600161024e565b565b600090565b61029961028c565b503390565b60001c90565b60018060a01b031690565b6102bb6102c09161029e565b6102a4565b90565b6102cd90546102af565b90565b60000190565b6102e060006102c3565b6102eb82600061024e565b9061031f6103197f8be0079c531659141344cd1fd0a4f28419497f9722a3daafe3b4186f6b6457e09361023f565b9161023f565b91610328610034565b80610332816102d0565b0390a3565b600090565b90565b90565b61035661035161035b9261033f565b610214565b61033c565b90565b610366610337565b503b61037b6103756000610342565b9161033c565b119056fe60806040526004361015610013575b610219565b61001e60003561006d565b80633659cfe6146100685780635c60da1b14610063578063715018a61461005e5780638da5cb5b146100595763f2fde38b0361000e576101e6565b6101b1565b61017e565b610149565b6100e3565b60e01c90565b60405190565b600080fd5b600080fd5b60018060a01b031690565b61009790610083565b90565b6100a38161008e565b036100aa57565b600080fd5b905035906100bc8261009a565b565b906020828203126100d8576100d5916000016100af565b90565b61007e565b60000190565b34610111576100fb6100f63660046100be565b6102b3565b610103610073565b8061010d816100dd565b0390f35b610079565b600091031261012157565b61007e565b61012f9061008e565b9052565b919061014790600060208501940190610126565b565b3461017957610159366004610116565b6101756101646102f5565b61016c610073565b91829182610133565b0390f35b610079565b346101ac5761018e366004610116565b61019661035c565b61019e610073565b806101a8816100dd565b0390f35b610079565b346101e1576101c1366004610116565b6101dd6101cc610366565b6101d4610073565b91829182610133565b0390f35b610079565b34610214576101fe6101f93660046100be565b610473565b610206610073565b80610210816100dd565b0390f35b610079565b600080fd5b61022f9061022a610501565b610268565b565b90565b61024861024361024d92610083565b610231565b610083565b90565b61025990610234565b90565b61026590610250565b90565b6102718161061b565b61029b7fbc7cd75a20ee27fd9adebab32041f755214dbc6bffa90cc0225b39da2e5c2d3b9161025c565b906102a4610073565b806102ae816100dd565b0390a2565b6102bc9061021e565b565b600090565b60001c90565b60018060a01b031690565b6102e06102e5916102c3565b6102c9565b90565b6102f290546102d4565b90565b6102fd6102be565b5061030860016102e8565b90565b610313610501565b61031b610348565b565b90565b61033461032f6103399261031d565b610231565b610083565b90565b61034590610320565b90565b61035a610355600061033c565b610639565b565b61036461030b565b565b61036e6102be565b5061037960006102e8565b90565b61038d90610388610501565b610442565b565b60209181520190565b60207f6464726573730000000000000000000000000000000000000000000000000000917f4f776e61626c653a206e6577206f776e657220697320746865207a65726f206160008201520152565b6103f3602660409261038f565b6103fc81610398565b0190565b61041690602081019060008183039101526103e6565b90565b1561042057565b610428610073565b62461bcd60e51b81528061043e60048201610400565b0390fd5b6104719061046c8161046561045f61045a600061033c565b61008e565b9161008e565b1415610419565b610639565b565b61047c9061037c565b565b60007f4f776e61626c653a2063616c6c6572206973206e6f7420746865206f776e6572910152565b6104b26020809261038f565b6104bb8161047e565b0190565b6104d590602081019060008183039101526104a6565b90565b156104df57565b6104e7610073565b62461bcd60e51b8152806104fd600482016104bf565b0390fd5b61052b61050c610366565b61052561051f61051a61069a565b61008e565b9161008e565b146104d8565b565b60207f6e206973206e6f74206120636f6e747261637400000000000000000000000000917f5570677261646561626c65426561636f6e3a20696d706c656d656e746174696f60008201520152565b610588603360409261038f565b6105918161052d565b0190565b6105ab906020810190600081830391015261057b565b90565b156105b557565b6105bd610073565b62461bcd60e51b8152806105d360048201610595565b0390fd5b60001b90565b906105ee60018060a01b03916105d7565b9181191691161790565b90565b9061061061060b6106179261025c565b6105f8565b82546105dd565b9055565b6106379061063061062b826106cb565b6105ae565b60016105fb565b565b61064360006102e8565b61064e8260006105fb565b9061068261067c7f8be0079c531659141344cd1fd0a4f28419497f9722a3daafe3b4186f6b6457e09361025c565b9161025c565b9161068b610073565b80610695816100dd565b0390a3565b6106a26102be565b503390565b600090565b90565b6106c36106be6106c89261031d565b610231565b6106ac565b90565b6106d36106a7565b503b6106e86106e260006106af565b916106ac565b119056fea26469706673582212203fbf94b3aa182e7120f7ee578f52eecce106fbe2a323e7e4f1511d9f27768ead64736f6c634300081b0033",
          "opcodes": "PUSH1 0x80 PUSH1 0x40 MSTORE CALLVALUE PUSH2 0x2F JUMPI PUSH2 0x19 PUSH2 0x14 PUSH2 0xFA JUMP JUMPDEST PUSH2 0x169 JUMP JUMPDEST PUSH2 0x21 PUSH2 0x34 JUMP JUMPDEST PUSH2 0x26A2 PUSH2 0x397 DUP3 CODECOPY PUSH2 0x26A2 SWAP1 RETURN JUMPDEST PUSH2 0x3A JUMP JUMPDEST PUSH1 0x40 MLOAD SWAP1 JUMP JUMPDEST PUSH1 0x0 DUP1 REVERT JUMPDEST PUSH1 0x1F DUP1 NOT SWAP2 ADD AND SWAP1 JUMP JUMPDEST PUSH4 0x4E487B71 PUSH1 0xE0 SHL PUSH1 0x0 MSTORE PUSH1 0x41 PUSH1 0x4 MSTORE PUSH1 0x24 PUSH1 0x0 REVERT JUMPDEST SWAP1 PUSH2 0x69 SWAP1 PUSH2 0x3F JUMP JUMPDEST DUP2 ADD SWAP1 DUP2 LT PUSH1 0x1 DUP1 PUSH1 0x40 SHL SUB DUP3 GT OR PUSH2 0x81 JUMPI PUSH1 0x40 MSTORE JUMP JUMPDEST PUSH2 0x49 JUMP JUMPDEST SWAP1 PUSH2 0x99 PUSH2 0x92 PUSH2 0x34 JUMP JUMPDEST SWAP3 DUP4 PUSH2 0x5F JUMP JUMPDEST JUMP JUMPDEST PUSH1 0x0 DUP1 REVERT JUMPDEST PUSH1 0x1 DUP1 PUSH1 0xA0 SHL SUB AND SWAP1 JUMP JUMPDEST PUSH2 0xB4 SWAP1 PUSH2 0xA0 JUMP JUMPDEST SWAP1 JUMP JUMPDEST PUSH2 0xC0 DUP2 PUSH2 0xAB JUMP JUMPDEST SUB PUSH2 0xC7 JUMPI JUMP JUMPDEST PUSH1 0x0 DUP1 REVERT JUMPDEST SWAP1 POP MLOAD SWAP1 PUSH2 0xD9 DUP3 PUSH2 0xB7 JUMP JUMPDEST JUMP JUMPDEST SWAP1 PUSH1 0x20 DUP3 DUP3 SUB SLT PUSH2 0xF5 JUMPI PUSH2 0xF2 SWAP2 PUSH1 0x0 ADD PUSH2 0xCC JUMP JUMPDEST SWAP1 JUMP JUMPDEST PUSH2 0x9B JUMP JUMPDEST PUSH2 0x118 PUSH2 0x70BB DUP1 CODESIZE SUB DUP1 PUSH2 0x10D DUP2 PUSH2 0x86 JUMP JUMPDEST SWAP3 DUP4 CODECOPY DUP2 ADD SWAP1 PUSH2 0xDB JUMP JUMPDEST SWAP1 JUMP JUMPDEST PUSH1 0x0 ADD SWAP1 JUMP JUMPDEST PUSH2 0x129 PUSH2 0x34 JUMP JUMPDEST RETURNDATASIZE PUSH1 0x0 DUP3 RETURNDATACOPY RETURNDATASIZE SWAP1 REVERT JUMPDEST SWAP1 JUMP JUMPDEST PUSH2 0x149 PUSH2 0x144 PUSH2 0x14E SWAP3 PUSH2 0xA0 JUMP JUMPDEST PUSH2 0x132 JUMP JUMPDEST PUSH2 0xA0 JUMP JUMPDEST SWAP1 JUMP JUMPDEST PUSH2 0x15A SWAP1 PUSH2 0x135 JUMP JUMPDEST SWAP1 JUMP JUMPDEST PUSH2 0x166 SWAP1 PUSH2 0x151 JUMP JUMPDEST SWAP1 JUMP JUMPDEST PUSH2 0x171 PUSH2 0x1CA JUMP JUMPDEST PUSH2 0x179 PUSH2 0x34 JUMP JUMPDEST PUSH2 0x3BE0 DUP2 ADD DUP2 DUP2 LT PUSH1 0x1 DUP1 PUSH1 0x40 SHL SUB DUP3 GT OR PUSH2 0x1C5 JUMPI PUSH2 0x1A1 DUP3 SWAP2 PUSH2 0x3BE0 PUSH2 0x2A39 DUP5 CODECOPY PUSH2 0x11B JUMP JUMPDEST SUB SWAP1 PUSH1 0x0 CREATE SWAP1 DUP2 ISZERO PUSH2 0x1C0 JUMPI PUSH2 0x1B9 PUSH2 0x1BE SWAP3 PUSH2 0x15D JUMP JUMPDEST PUSH2 0x265 JUMP JUMPDEST JUMP JUMPDEST PUSH2 0x121 JUMP JUMPDEST PUSH2 0x49 JUMP JUMPDEST PUSH2 0x1D2 PUSH2 0x1D4 JUMP JUMPDEST JUMP JUMPDEST PUSH2 0x1E4 PUSH2 0x1DF PUSH2 0x2C7 JUMP JUMPDEST PUSH2 0x335 JUMP JUMPDEST JUMP JUMPDEST PUSH2 0x1EF SWAP1 PUSH2 0xAB JUMP JUMPDEST SWAP1 MSTORE JUMP JUMPDEST SWAP2 SWAP1 PUSH2 0x207 SWAP1 PUSH1 0x0 PUSH1 0x20 DUP6 ADD SWAP5 ADD SWAP1 PUSH2 0x1E6 JUMP JUMPDEST JUMP JUMPDEST PUSH1 0x0 SHL SWAP1 JUMP JUMPDEST SWAP1 PUSH2 0x220 PUSH1 0x1 DUP1 PUSH1 0xA0 SHL SUB SWAP2 PUSH2 0x209 JUMP JUMPDEST SWAP2 DUP2 NOT AND SWAP2 AND OR SWAP1 JUMP JUMPDEST PUSH2 0x233 SWAP1 PUSH2 0x135 JUMP JUMPDEST SWAP1 JUMP JUMPDEST PUSH2 0x23F SWAP1 PUSH2 0x22A JUMP JUMPDEST SWAP1 JUMP JUMPDEST SWAP1 JUMP JUMPDEST SWAP1 PUSH2 0x25A PUSH2 0x255 PUSH2 0x261 SWAP3 PUSH2 0x236 JUMP JUMPDEST PUSH2 0x242 JUMP JUMPDEST DUP3 SLOAD PUSH2 0x20F JUMP JUMPDEST SWAP1 SSTORE JUMP JUMPDEST PUSH2 0x26D PUSH2 0x34 JUMP JUMPDEST SWAP1 PUSH2 0xAA2 DUP3 ADD DUP3 DUP2 LT PUSH1 0x1 DUP1 PUSH1 0x40 SHL SUB DUP3 GT OR PUSH2 0x2BD JUMPI DUP3 SWAP2 PUSH2 0x297 SWAP2 PUSH2 0xAA2 PUSH2 0x6619 DUP6 CODECOPY PUSH2 0x1F3 JUMP JUMPDEST SUB SWAP1 PUSH1 0x0 CREATE SWAP1 DUP2 ISZERO PUSH2 0x2B8 JUMPI PUSH2 0x2B1 PUSH2 0x2B6 SWAP3 PUSH1 0x1 PUSH2 0x245 JUMP JUMPDEST PUSH2 0x335 JUMP JUMPDEST JUMP JUMPDEST PUSH2 0x121 JUMP JUMPDEST PUSH2 0x49 JUMP JUMPDEST PUSH1 0x0 SWAP1 JUMP JUMPDEST PUSH2 0x2CF PUSH2 0x2C2 JUMP JUMPDEST POP CALLER SWAP1 JUMP JUMPDEST PUSH1 0x0 SHR SWAP1 JUMP JUMPDEST PUSH1 0x1 DUP1 PUSH1 0xA0 SHL SUB AND SWAP1 JUMP JUMPDEST PUSH2 0x2F1 PUSH2 0x2F6 SWAP2 PUSH2 0x2D4 JUMP JUMPDEST PUSH2 0x2DA JUMP JUMPDEST SWAP1 JUMP JUMPDEST PUSH2 0x303 SWAP1 SLOAD PUSH2 0x2E5 JUMP JUMPDEST SWAP1 JUMP JUMPDEST PUSH2 0x30F SWAP1 PUSH2 0x151 JUMP JUMPDEST SWAP1 JUMP JUMPDEST SWAP1 JUMP JUMPDEST SWAP1 PUSH2 0x32A PUSH2 0x325 PUSH2 0x331 SWAP3 PUSH2 0x306 JUMP JUMPDEST PUSH2 0x312 JUMP JUMPDEST DUP3 SLOAD PUSH2 0x20F JUMP JUMPDEST SWAP1 SSTORE JUMP JUMPDEST PUSH2 0x33F PUSH1 0x0 PUSH2 0x2F9 JUMP JUMPDEST PUSH2 0x34A DUP3 PUSH1 0x0 PUSH2 0x315 JUMP JUMPDEST SWAP1 PUSH2 0x37E PUSH2 0x378 PUSH32 0x8BE0079C531659141344CD1FD0A4F28419497F9722A3DAAFE3B4186F6B6457E0 SWAP4 PUSH2 0x306 JUMP JUMPDEST SWAP2 PUSH2 0x306 JUMP JUMPDEST SWAP2 PUSH2 0x387 PUSH2 0x34 JUMP JUMPDEST DUP1 PUSH2 0x391 DUP2 PUSH2 0x11B JUMP JUMPDEST SUB SWAP1 LOG3 JUMP INVALID PUSH1 0x80 PUSH1 0x40 MSTORE PUSH1 0x4 CALLDATASIZE LT ISZERO PUSH2 0x13 JUMPI JUMPDEST PUSH2 0x537 JUMP JUMPDEST PUSH2 0x1E PUSH1 0x0 CALLDATALOAD PUSH2 0x8D JUMP JUMPDEST DUP1 PUSH4 0x1BCE4583 EQ PUSH2 0x88 JUMPI DUP1 PUSH4 0x59659E90 EQ PUSH2 0x83 JUMPI DUP1 PUSH4 0x715018A6 EQ PUSH2 0x7E JUMPI DUP1 PUSH4 0x8CFD4E5E EQ PUSH2 0x79 JUMPI DUP1 PUSH4 0x8DA5CB5B EQ PUSH2 0x74 JUMPI DUP1 PUSH4 0xF13B273D EQ PUSH2 0x6F JUMPI PUSH4 0xF2FDE38B SUB PUSH2 0xE JUMPI PUSH2 0x504 JUMP JUMPDEST PUSH2 0x4C8 JUMP JUMPDEST PUSH2 0x493 JUMP JUMPDEST PUSH2 0x457 JUMP JUMPDEST PUSH2 0x21F JUMP JUMPDEST PUSH2 0x1EA JUMP JUMPDEST PUSH2 0x108 JUMP JUMPDEST PUSH1 0xE0 SHR SWAP1 JUMP JUMPDEST PUSH1 0x40 MLOAD SWAP1 JUMP JUMPDEST PUSH1 0x0 DUP1 REVERT JUMPDEST PUSH1 0x0 DUP1 REVERT JUMPDEST PUSH1 0x0 DUP1 REVERT JUMPDEST PUSH1 0x1 DUP1 PUSH1 0xA0 SHL SUB AND SWAP1 JUMP JUMPDEST PUSH2 0xBC SWAP1 PUSH2 0xA8 JUMP JUMPDEST SWAP1 JUMP JUMPDEST PUSH2 0xC8 DUP2 PUSH2 0xB3 JUMP JUMPDEST SUB PUSH2 0xCF JUMPI JUMP JUMPDEST PUSH1 0x0 DUP1 REVERT JUMPDEST SWAP1 POP CALLDATALOAD SWAP1 PUSH2 0xE1 DUP3 PUSH2 0xBF JUMP JUMPDEST JUMP JUMPDEST SWAP1 PUSH1 0x20 DUP3 DUP3 SUB SLT PUSH2 0xFD JUMPI PUSH2 0xFA SWAP2 PUSH1 0x0 ADD PUSH2 0xD4 JUMP JUMPDEST SWAP1 JUMP JUMPDEST PUSH2 0x9E JUMP JUMPDEST PUSH1 0x0 ADD SWAP1 JUMP JUMPDEST CALLVALUE PUSH2 0x136 JUMPI PUSH2 0x120 PUSH2 0x11B CALLDATASIZE PUSH1 0x4 PUSH2 0xE3 JUMP JUMPDEST PUSH2 0x635 JUMP JUMPDEST PUSH2 0x128 PUSH2 0x93 JUMP JUMPDEST DUP1 PUSH2 0x132 DUP2 PUSH2 0x102 JUMP JUMPDEST SUB SWAP1 RETURN JUMPDEST PUSH2 0x99 JUMP JUMPDEST PUSH1 0x0 SWAP2 SUB SLT PUSH2 0x146 JUMPI JUMP JUMPDEST PUSH2 0x9E JUMP JUMPDEST SHR SWAP1 JUMP JUMPDEST PUSH1 0x1 DUP1 PUSH1 0xA0 SHL SUB AND SWAP1 JUMP JUMPDEST PUSH2 0x16A SWAP1 PUSH1 0x8 PUSH2 0x16F SWAP4 MUL PUSH2 0x14B JUMP JUMPDEST PUSH2 0x14F JUMP JUMPDEST SWAP1 JUMP JUMPDEST SWAP1 PUSH2 0x17D SWAP2 SLOAD PUSH2 0x15A JUMP JUMPDEST SWAP1 JUMP JUMPDEST PUSH2 0x18D PUSH1 0x1 PUSH1 0x0 SWAP1 PUSH2 0x172 JUMP JUMPDEST SWAP1 JUMP JUMPDEST SWAP1 JUMP JUMPDEST PUSH2 0x1A7 PUSH2 0x1A2 PUSH2 0x1AC SWAP3 PUSH2 0xA8 JUMP JUMPDEST PUSH2 0x190 JUMP JUMPDEST PUSH2 0xA8 JUMP JUMPDEST SWAP1 JUMP JUMPDEST PUSH2 0x1B8 SWAP1 PUSH2 0x193 JUMP JUMPDEST SWAP1 JUMP JUMPDEST PUSH2 0x1C4 SWAP1 PUSH2 0x1AF JUMP JUMPDEST SWAP1 JUMP JUMPDEST PUSH2 0x1D0 SWAP1 PUSH2 0x1BB JUMP JUMPDEST SWAP1 MSTORE JUMP JUMPDEST SWAP2 SWAP1 PUSH2 0x1E8 SWAP1 PUSH1 0x0 PUSH1 0x20 DUP6 ADD SWAP5 ADD SWAP1 PUSH2 0x1C7 JUMP JUMPDEST JUMP JUMPDEST CALLVALUE PUSH2 0x21A JUMPI PUSH2 0x1FA CALLDATASIZE PUSH1 0x4 PUSH2 0x13B JUMP JUMPDEST PUSH2 0x216 PUSH2 0x205 PUSH2 0x180 JUMP JUMPDEST PUSH2 0x20D PUSH2 0x93 JUMP JUMPDEST SWAP2 DUP3 SWAP2 DUP3 PUSH2 0x1D4 JUMP JUMPDEST SUB SWAP1 RETURN JUMPDEST PUSH2 0x99 JUMP JUMPDEST CALLVALUE PUSH2 0x24D JUMPI PUSH2 0x22F CALLDATASIZE PUSH1 0x4 PUSH2 0x13B JUMP JUMPDEST PUSH2 0x237 PUSH2 0x691 JUMP JUMPDEST PUSH2 0x23F PUSH2 0x93 JUMP JUMPDEST DUP1 PUSH2 0x249 DUP2 PUSH2 0x102 JUMP JUMPDEST SUB SWAP1 RETURN JUMPDEST PUSH2 0x99 JUMP JUMPDEST PUSH1 0x0 DUP1 REVERT JUMPDEST PUSH1 0x0 DUP1 REVERT JUMPDEST PUSH1 0x1F DUP1 NOT SWAP2 ADD AND SWAP1 JUMP JUMPDEST PUSH4 0x4E487B71 PUSH1 0xE0 SHL PUSH1 0x0 MSTORE PUSH1 0x41 PUSH1 0x4 MSTORE PUSH1 0x24 PUSH1 0x0 REVERT JUMPDEST SWAP1 PUSH2 0x286 SWAP1 PUSH2 0x25C JUMP JUMPDEST DUP2 ADD SWAP1 DUP2 LT PUSH8 0xFFFFFFFFFFFFFFFF DUP3 GT OR PUSH2 0x2A0 JUMPI PUSH1 0x40 MSTORE JUMP JUMPDEST PUSH2 0x266 JUMP JUMPDEST SWAP1 PUSH2 0x2B8 PUSH2 0x2B1 PUSH2 0x93 JUMP JUMPDEST SWAP3 DUP4 PUSH2 0x27C JUMP JUMPDEST JUMP JUMPDEST PUSH8 0xFFFFFFFFFFFFFFFF DUP2 GT PUSH2 0x2D8 JUMPI PUSH2 0x2D4 PUSH1 0x20 SWAP2 PUSH2 0x25C JUMP JUMPDEST ADD SWAP1 JUMP JUMPDEST PUSH2 0x266 JUMP JUMPDEST SWAP1 DUP3 PUSH1 0x0 SWAP4 SWAP3 DUP3 CALLDATACOPY ADD MSTORE JUMP JUMPDEST SWAP1 SWAP3 SWAP2 SWAP3 PUSH2 0x2FE PUSH2 0x2F9 DUP3 PUSH2 0x2BA JUMP JUMPDEST PUSH2 0x2A5 JUMP JUMPDEST SWAP4 DUP2 DUP6 MSTORE PUSH1 0x20 DUP6 ADD SWAP1 DUP3 DUP5 ADD GT PUSH2 0x31A JUMPI PUSH2 0x318 SWAP3 PUSH2 0x2DD JUMP JUMPDEST JUMP JUMPDEST PUSH2 0x257 JUMP JUMPDEST SWAP1 DUP1 PUSH1 0x1F DUP4 ADD SLT ISZERO PUSH2 0x33D JUMPI DUP2 PUSH1 0x20 PUSH2 0x33A SWAP4 CALLDATALOAD SWAP2 ADD PUSH2 0x2E9 JUMP JUMPDEST SWAP1 JUMP JUMPDEST PUSH2 0x252 JUMP JUMPDEST PUSH1 0xFF AND SWAP1 JUMP JUMPDEST PUSH2 0x351 DUP2 PUSH2 0x342 JUMP JUMPDEST SUB PUSH2 0x358 JUMPI JUMP JUMPDEST PUSH1 0x0 DUP1 REVERT JUMPDEST SWAP1 POP CALLDATALOAD SWAP1 PUSH2 0x36A DUP3 PUSH2 0x348 JUMP JUMPDEST JUMP JUMPDEST SWAP1 JUMP JUMPDEST PUSH2 0x378 DUP2 PUSH2 0x36C JUMP JUMPDEST SUB PUSH2 0x37F JUMPI JUMP JUMPDEST PUSH1 0x0 DUP1 REVERT JUMPDEST SWAP1 POP CALLDATALOAD SWAP1 PUSH2 0x391 DUP3 PUSH2 0x36F JUMP JUMPDEST JUMP JUMPDEST PUSH1 0xE0 DUP2 DUP4 SUB SLT PUSH2 0x42F JUMPI PUSH2 0x3AA DUP3 PUSH1 0x0 DUP4 ADD PUSH2 0xD4 JUMP JUMPDEST SWAP3 PUSH2 0x3B8 DUP4 PUSH1 0x20 DUP5 ADD PUSH2 0xD4 JUMP JUMPDEST SWAP3 PUSH1 0x40 DUP4 ADD CALLDATALOAD PUSH8 0xFFFFFFFFFFFFFFFF DUP2 GT PUSH2 0x42A JUMPI DUP2 PUSH2 0x3D9 SWAP2 DUP6 ADD PUSH2 0x31F JUMP JUMPDEST SWAP3 PUSH1 0x60 DUP2 ADD CALLDATALOAD PUSH8 0xFFFFFFFFFFFFFFFF DUP2 GT PUSH2 0x425 JUMPI DUP3 PUSH2 0x3FA SWAP2 DUP4 ADD PUSH2 0x31F JUMP JUMPDEST SWAP3 PUSH2 0x422 PUSH2 0x40B DUP5 PUSH1 0x80 DUP6 ADD PUSH2 0x35D JUMP JUMPDEST SWAP4 PUSH2 0x419 DUP2 PUSH1 0xA0 DUP7 ADD PUSH2 0xD4 JUMP JUMPDEST SWAP4 PUSH1 0xC0 ADD PUSH2 0x384 JUMP JUMPDEST SWAP1 JUMP JUMPDEST PUSH2 0xA3 JUMP JUMPDEST PUSH2 0xA3 JUMP JUMPDEST PUSH2 0x9E JUMP JUMPDEST PUSH2 0x43D SWAP1 PUSH2 0xB3 JUMP JUMPDEST SWAP1 MSTORE JUMP JUMPDEST SWAP2 SWAP1 PUSH2 0x455 SWAP1 PUSH1 0x0 PUSH1 0x20 DUP6 ADD SWAP5 ADD SWAP1 PUSH2 0x434 JUMP JUMPDEST JUMP JUMPDEST CALLVALUE PUSH2 0x48E JUMPI PUSH2 0x48A PUSH2 0x479 PUSH2 0x46D CALLDATASIZE PUSH1 0x4 PUSH2 0x393 JUMP JUMPDEST SWAP6 SWAP5 SWAP1 SWAP5 SWAP4 SWAP2 SWAP4 PUSH2 0x7BB JUMP JUMPDEST PUSH2 0x481 PUSH2 0x93 JUMP JUMPDEST SWAP2 DUP3 SWAP2 DUP3 PUSH2 0x441 JUMP JUMPDEST SUB SWAP1 RETURN JUMPDEST PUSH2 0x99 JUMP JUMPDEST CALLVALUE PUSH2 0x4C3 JUMPI PUSH2 0x4A3 CALLDATASIZE PUSH1 0x4 PUSH2 0x13B JUMP JUMPDEST PUSH2 0x4BF PUSH2 0x4AE PUSH2 0x84D JUMP JUMPDEST PUSH2 0x4B6 PUSH2 0x93 JUMP JUMPDEST SWAP2 DUP3 SWAP2 DUP3 PUSH2 0x441 JUMP JUMPDEST SUB SWAP1 RETURN JUMPDEST PUSH2 0x99 JUMP JUMPDEST CALLVALUE PUSH2 0x4FF JUMPI PUSH2 0x4FB PUSH2 0x4EA PUSH2 0x4DE CALLDATASIZE PUSH1 0x4 PUSH2 0x393 JUMP JUMPDEST SWAP6 SWAP5 SWAP1 SWAP5 SWAP4 SWAP2 SWAP4 PUSH2 0x887 JUMP JUMPDEST PUSH2 0x4F2 PUSH2 0x93 JUMP JUMPDEST SWAP2 DUP3 SWAP2 DUP3 PUSH2 0x441 JUMP JUMPDEST SUB SWAP1 RETURN JUMPDEST PUSH2 0x99 JUMP JUMPDEST CALLVALUE PUSH2 0x532 JUMPI PUSH2 0x51C PUSH2 0x517 CALLDATASIZE PUSH1 0x4 PUSH2 0xE3 JUMP JUMPDEST PUSH2 0xAB2 JUMP JUMPDEST PUSH2 0x524 PUSH2 0x93 JUMP JUMPDEST DUP1 PUSH2 0x52E DUP2 PUSH2 0x102 JUMP JUMPDEST SUB SWAP1 RETURN JUMPDEST PUSH2 0x99 JUMP JUMPDEST PUSH1 0x0 DUP1 REVERT JUMPDEST PUSH2 0x54D SWAP1 PUSH2 0x548 PUSH2 0xB40 JUMP JUMPDEST PUSH2 0x5A2 JUMP JUMPDEST JUMP JUMPDEST PUSH1 0x0 SHR SWAP1 JUMP JUMPDEST PUSH2 0x561 PUSH2 0x566 SWAP2 PUSH2 0x54F JUMP JUMPDEST PUSH2 0x14F JUMP JUMPDEST SWAP1 JUMP JUMPDEST PUSH2 0x573 SWAP1 SLOAD PUSH2 0x555 JUMP JUMPDEST SWAP1 JUMP JUMPDEST PUSH1 0x0 DUP1 REVERT JUMPDEST PUSH1 0xE0 SHL SWAP1 JUMP JUMPDEST PUSH1 0x0 SWAP2 SUB SLT PUSH2 0x58C JUMPI JUMP JUMPDEST PUSH2 0x9E JUMP JUMPDEST PUSH2 0x599 PUSH2 0x93 JUMP JUMPDEST RETURNDATASIZE PUSH1 0x0 DUP3 RETURNDATACOPY RETURNDATASIZE SWAP1 REVERT JUMPDEST PUSH2 0x5B4 PUSH2 0x5AF PUSH1 0x1 PUSH2 0x569 JUMP JUMPDEST PUSH2 0x1BB JUMP JUMPDEST SWAP1 PUSH4 0x3659CFE6 SWAP1 DUP3 EXTCODESIZE ISZERO PUSH2 0x630 JUMPI PUSH2 0x5EC SWAP3 PUSH2 0x5E1 PUSH1 0x0 DUP1 SWAP5 PUSH2 0x5D5 PUSH2 0x93 JUMP JUMPDEST SWAP7 DUP8 SWAP6 DUP7 SWAP5 DUP6 SWAP4 PUSH2 0x57B JUMP JUMPDEST DUP4 MSTORE PUSH1 0x4 DUP4 ADD PUSH2 0x441 JUMP JUMPDEST SUB SWAP3 GAS CALL DUP1 ISZERO PUSH2 0x62B JUMPI PUSH2 0x5FE JUMPI JUMPDEST POP JUMP JUMPDEST PUSH2 0x61E SWAP1 PUSH1 0x0 RETURNDATASIZE DUP2 GT PUSH2 0x624 JUMPI JUMPDEST PUSH2 0x616 DUP2 DUP4 PUSH2 0x27C JUMP JUMPDEST DUP2 ADD SWAP1 PUSH2 0x581 JUMP JUMPDEST CODESIZE PUSH2 0x5FB JUMP JUMPDEST POP RETURNDATASIZE PUSH2 0x60C JUMP JUMPDEST PUSH2 0x591 JUMP JUMPDEST PUSH2 0x576 JUMP JUMPDEST PUSH2 0x63E SWAP1 PUSH2 0x53C JUMP JUMPDEST JUMP JUMPDEST PUSH2 0x648 PUSH2 0xB40 JUMP JUMPDEST PUSH2 0x650 PUSH2 0x67D JUMP JUMPDEST JUMP JUMPDEST SWAP1 JUMP JUMPDEST PUSH2 0x669 PUSH2 0x664 PUSH2 0x66E SWAP3 PUSH2 0x652 JUMP JUMPDEST PUSH2 0x190 JUMP JUMPDEST PUSH2 0xA8 JUMP JUMPDEST SWAP1 JUMP JUMPDEST PUSH2 0x67A SWAP1 PUSH2 0x655 JUMP JUMPDEST SWAP1 JUMP JUMPDEST PUSH2 0x68F PUSH2 0x68A PUSH1 0x0 PUSH2 0x671 JUMP JUMPDEST PUSH2 0xBBC JUMP JUMPDEST JUMP JUMPDEST PUSH2 0x699 PUSH2 0x640 JUMP JUMPDEST JUMP JUMPDEST PUSH1 0x0 SWAP1 JUMP JUMPDEST MLOAD SWAP1 JUMP JUMPDEST PUSH1 0x20 SWAP2 DUP2 MSTORE ADD SWAP1 JUMP JUMPDEST PUSH1 0x0 JUMPDEST DUP4 DUP2 LT PUSH2 0x6C1 JUMPI POP POP SWAP1 PUSH1 0x0 SWAP2 ADD MSTORE JUMP JUMPDEST DUP1 PUSH1 0x20 SWAP2 DUP4 ADD MLOAD DUP2 DUP6 ADD MSTORE ADD PUSH2 0x6B0 JUMP JUMPDEST PUSH2 0x6F1 PUSH2 0x6FA PUSH1 0x20 SWAP4 PUSH2 0x6FF SWAP4 PUSH2 0x6E8 DUP2 PUSH2 0x6A0 JUMP JUMPDEST SWAP4 DUP5 DUP1 SWAP4 PUSH2 0x6A4 JUMP JUMPDEST SWAP6 DUP7 SWAP2 ADD PUSH2 0x6AD JUMP JUMPDEST PUSH2 0x25C JUMP JUMPDEST ADD SWAP1 JUMP JUMPDEST PUSH2 0x70C SWAP1 PUSH2 0x342 JUMP JUMPDEST SWAP1 MSTORE JUMP JUMPDEST PUSH2 0x719 SWAP1 PUSH2 0x36C JUMP JUMPDEST SWAP1 MSTORE JUMP JUMPDEST SWAP2 SWAP5 PUSH2 0x76F PUSH2 0x764 PUSH1 0xA0 SWAP6 PUSH2 0x756 PUSH2 0x779 SWAP6 PUSH2 0x780 SWAP11 SWAP13 SWAP12 SWAP10 SWAP13 PUSH2 0x749 PUSH1 0xC0 DUP11 ADD SWAP3 PUSH1 0x0 DUP12 ADD SWAP1 PUSH2 0x434 JUMP JUMPDEST DUP9 DUP3 SUB PUSH1 0x20 DUP11 ADD MSTORE PUSH2 0x6D2 JUMP JUMPDEST SWAP1 DUP7 DUP3 SUB PUSH1 0x40 DUP9 ADD MSTORE PUSH2 0x6D2 JUMP JUMPDEST SWAP9 PUSH1 0x60 DUP6 ADD SWAP1 PUSH2 0x703 JUMP JUMPDEST PUSH1 0x80 DUP4 ADD SWAP1 PUSH2 0x434 JUMP JUMPDEST ADD SWAP1 PUSH2 0x710 JUMP JUMPDEST JUMP JUMPDEST PUSH1 0x20 ADD SWAP1 JUMP JUMPDEST MLOAD SWAP1 JUMP JUMPDEST SWAP1 PUSH2 0x79E PUSH2 0x799 DUP4 PUSH2 0x2BA JUMP JUMPDEST PUSH2 0x2A5 JUMP JUMPDEST SWAP2 DUP3 MSTORE JUMP JUMPDEST PUSH2 0x7AD PUSH1 0x0 PUSH2 0x78C JUMP JUMPDEST SWAP1 JUMP JUMPDEST PUSH2 0x7B8 PUSH2 0x7A3 JUMP JUMPDEST SWAP1 JUMP JUMPDEST SWAP5 SWAP4 PUSH2 0x81E SWAP7 PUSH2 0x7FC SWAP5 SWAP6 PUSH2 0x7ED SWAP4 PUSH2 0x7D2 PUSH2 0x69B JUMP JUMPDEST POP SWAP5 SWAP7 SWAP3 SWAP1 SWAP2 SWAP3 PUSH2 0x7E1 PUSH2 0x93 JUMP JUMPDEST SWAP8 DUP9 SWAP7 PUSH1 0x20 DUP9 ADD PUSH2 0x71D JUMP JUMPDEST PUSH1 0x20 DUP3 ADD DUP2 SUB DUP3 MSTORE SUB DUP3 PUSH2 0x27C JUMP JUMPDEST PUSH2 0x80E PUSH2 0x808 DUP3 PUSH2 0x788 JUMP JUMPDEST SWAP2 PUSH2 0x782 JUMP JUMPDEST KECCAK256 SWAP1 PUSH2 0x818 PUSH2 0x7B0 JUMP JUMPDEST SWAP2 PUSH2 0xCCC JUMP JUMPDEST SWAP1 JUMP JUMPDEST PUSH1 0x1 DUP1 PUSH1 0xA0 SHL SUB AND SWAP1 JUMP JUMPDEST PUSH2 0x838 PUSH2 0x83D SWAP2 PUSH2 0x54F JUMP JUMPDEST PUSH2 0x821 JUMP JUMPDEST SWAP1 JUMP JUMPDEST PUSH2 0x84A SWAP1 SLOAD PUSH2 0x82C JUMP JUMPDEST SWAP1 JUMP JUMPDEST PUSH2 0x855 PUSH2 0x69B JUMP JUMPDEST POP PUSH2 0x860 PUSH1 0x0 PUSH2 0x840 JUMP JUMPDEST SWAP1 JUMP JUMPDEST PUSH2 0x86C SWAP1 PUSH2 0x193 JUMP JUMPDEST SWAP1 JUMP JUMPDEST PUSH2 0x878 SWAP1 PUSH2 0x863 JUMP JUMPDEST SWAP1 JUMP JUMPDEST PUSH2 0x884 SWAP1 PUSH2 0x1AF JUMP JUMPDEST SWAP1 JUMP JUMPDEST PUSH2 0x8EE SWAP1 SWAP7 SWAP2 SWAP3 SWAP4 SWAP6 SWAP7 PUSH2 0x899 PUSH2 0x69B JUMP JUMPDEST POP DUP4 PUSH2 0x8CC DUP7 SWAP2 PUSH2 0x8BD DUP11 DUP11 DUP14 SWAP1 DUP10 SWAP3 PUSH2 0x8B1 PUSH2 0x93 JUMP JUMPDEST SWAP8 DUP9 SWAP7 PUSH1 0x20 DUP9 ADD PUSH2 0x71D JUMP JUMPDEST PUSH1 0x20 DUP3 ADD DUP2 SUB DUP3 MSTORE SUB DUP3 PUSH2 0x27C JUMP JUMPDEST PUSH2 0x8DE PUSH2 0x8D8 DUP3 PUSH2 0x788 JUMP JUMPDEST SWAP2 PUSH2 0x782 JUMP JUMPDEST KECCAK256 SWAP1 PUSH2 0x8E8 PUSH2 0x7B0 JUMP JUMPDEST SWAP2 PUSH2 0xE2C JUMP JUMPDEST SWAP6 PUSH2 0x900 PUSH2 0x8FB DUP9 PUSH2 0x86F JUMP JUMPDEST PUSH2 0x87B JUMP JUMPDEST SWAP3 PUSH4 0x9C14F298 SWAP1 SWAP5 SWAP7 SWAP6 SWAP2 SWAP3 SWAP6 DUP5 EXTCODESIZE ISZERO PUSH2 0x9BF JUMPI PUSH1 0x0 SWAP7 PUSH2 0x935 SWAP5 DUP9 SWAP5 PUSH2 0x940 SWAP4 PUSH2 0x929 PUSH2 0x93 JUMP JUMPDEST SWAP12 DUP13 SWAP11 DUP12 SWAP10 DUP11 SWAP9 PUSH2 0x57B JUMP JUMPDEST DUP9 MSTORE PUSH1 0x4 DUP9 ADD PUSH2 0x71D JUMP JUMPDEST SUB SWAP3 GAS CALL DUP1 ISZERO PUSH2 0x9BA JUMPI PUSH2 0x98D JUMPI JUMPDEST POP DUP1 PUSH2 0x987 PUSH32 0x2F7AEBCAA1B6E607137FC80962355832B79ED6710CC89ACB7987434D1E4D1B24 SWAP2 PUSH2 0x97E PUSH2 0x93 JUMP JUMPDEST SWAP2 DUP3 SWAP2 DUP3 PUSH2 0x441 JUMP JUMPDEST SUB SWAP1 LOG1 SWAP1 JUMP JUMPDEST PUSH2 0x9AD SWAP1 PUSH1 0x0 RETURNDATASIZE DUP2 GT PUSH2 0x9B3 JUMPI JUMPDEST PUSH2 0x9A5 DUP2 DUP4 PUSH2 0x27C JUMP JUMPDEST DUP2 ADD SWAP1 PUSH2 0x581 JUMP JUMPDEST CODESIZE PUSH2 0x94F JUMP JUMPDEST POP RETURNDATASIZE PUSH2 0x99B JUMP JUMPDEST PUSH2 0x591 JUMP JUMPDEST PUSH2 0x576 JUMP JUMPDEST PUSH2 0x9D5 SWAP1 PUSH2 0x9D0 PUSH2 0xB40 JUMP JUMPDEST PUSH2 0xA81 JUMP JUMPDEST JUMP JUMPDEST PUSH1 0x20 PUSH32 0x6464726573730000000000000000000000000000000000000000000000000000 SWAP2 PUSH32 0x4F776E61626C653A206E6577206F776E657220697320746865207A65726F2061 PUSH1 0x0 DUP3 ADD MSTORE ADD MSTORE JUMP JUMPDEST PUSH2 0xA32 PUSH1 0x26 PUSH1 0x40 SWAP3 PUSH2 0x6A4 JUMP JUMPDEST PUSH2 0xA3B DUP2 PUSH2 0x9D7 JUMP JUMPDEST ADD SWAP1 JUMP JUMPDEST PUSH2 0xA55 SWAP1 PUSH1 0x20 DUP2 ADD SWAP1 PUSH1 0x0 DUP2 DUP4 SUB SWAP2 ADD MSTORE PUSH2 0xA25 JUMP JUMPDEST SWAP1 JUMP JUMPDEST ISZERO PUSH2 0xA5F JUMPI JUMP JUMPDEST PUSH2 0xA67 PUSH2 0x93 JUMP JUMPDEST PUSH3 0x461BCD PUSH1 0xE5 SHL DUP2 MSTORE DUP1 PUSH2 0xA7D PUSH1 0x4 DUP3 ADD PUSH2 0xA3F JUMP JUMPDEST SUB SWAP1 REVERT JUMPDEST PUSH2 0xAB0 SWAP1 PUSH2 0xAAB DUP2 PUSH2 0xAA4 PUSH2 0xA9E PUSH2 0xA99 PUSH1 0x0 PUSH2 0x671 JUMP JUMPDEST PUSH2 0xB3 JUMP JUMPDEST SWAP2 PUSH2 0xB3 JUMP JUMPDEST EQ ISZERO PUSH2 0xA58 JUMP JUMPDEST PUSH2 0xBBC JUMP JUMPDEST JUMP JUMPDEST PUSH2 0xABB SWAP1 PUSH2 0x9C4 JUMP JUMPDEST JUMP JUMPDEST PUSH1 0x0 PUSH32 0x4F776E61626C653A2063616C6C6572206973206E6F7420746865206F776E6572 SWAP2 ADD MSTORE JUMP JUMPDEST PUSH2 0xAF1 PUSH1 0x20 DUP1 SWAP3 PUSH2 0x6A4 JUMP JUMPDEST PUSH2 0xAFA DUP2 PUSH2 0xABD JUMP JUMPDEST ADD SWAP1 JUMP JUMPDEST PUSH2 0xB14 SWAP1 PUSH1 0x20 DUP2 ADD SWAP1 PUSH1 0x0 DUP2 DUP4 SUB SWAP2 ADD MSTORE PUSH2 0xAE5 JUMP JUMPDEST SWAP1 JUMP JUMPDEST ISZERO PUSH2 0xB1E JUMPI JUMP JUMPDEST PUSH2 0xB26 PUSH2 0x93 JUMP JUMPDEST PUSH3 0x461BCD PUSH1 0xE5 SHL DUP2 MSTORE DUP1 PUSH2 0xB3C PUSH1 0x4 DUP3 ADD PUSH2 0xAFE JUMP JUMPDEST SUB SWAP1 REVERT JUMPDEST PUSH2 0xB6A PUSH2 0xB4B PUSH2 0x84D JUMP JUMPDEST PUSH2 0xB64 PUSH2 0xB5E PUSH2 0xB59 PUSH2 0xF6B JUMP JUMPDEST PUSH2 0xB3 JUMP JUMPDEST SWAP2 PUSH2 0xB3 JUMP JUMPDEST EQ PUSH2 0xB17 JUMP JUMPDEST JUMP JUMPDEST PUSH1 0x0 SHL SWAP1 JUMP JUMPDEST SWAP1 PUSH2 0xB83 PUSH1 0x1 DUP1 PUSH1 0xA0 SHL SUB SWAP2 PUSH2 0xB6C JUMP JUMPDEST SWAP2 DUP2 NOT AND SWAP2 AND OR SWAP1 JUMP JUMPDEST PUSH2 0xB96 SWAP1 PUSH2 0x1AF JUMP JUMPDEST SWAP1 JUMP JUMPDEST SWAP1 JUMP JUMPDEST SWAP1 PUSH2 0xBB1 PUSH2 0xBAC PUSH2 0xBB8 SWAP3 PUSH2 0xB8D JUMP JUMPDEST PUSH2 0xB99 JUMP JUMPDEST DUP3 SLOAD PUSH2 0xB72 JUMP JUMPDEST SWAP1 SSTORE JUMP JUMPDEST PUSH2 0xBC6 PUSH1 0x0 PUSH2 0x840 JUMP JUMPDEST PUSH2 0xBD1 DUP3 PUSH1 0x0 PUSH2 0xB9C JUMP JUMPDEST SWAP1 PUSH2 0xC05 PUSH2 0xBFF PUSH32 0x8BE0079C531659141344CD1FD0A4F28419497F9722A3DAAFE3B4186F6B6457E0 SWAP4 PUSH2 0xB8D JUMP JUMPDEST SWAP2 PUSH2 0xB8D JUMP JUMPDEST SWAP2 PUSH2 0xC0E PUSH2 0x93 JUMP JUMPDEST DUP1 PUSH2 0xC18 DUP2 PUSH2 0x102 JUMP JUMPDEST SUB SWAP1 LOG3 JUMP JUMPDEST SWAP1 JUMP JUMPDEST PUSH2 0xC2C PUSH2 0xC31 SWAP2 PUSH2 0x36C JUMP JUMPDEST PUSH2 0xC1D JUMP JUMPDEST SWAP1 MSTORE JUMP JUMPDEST PUSH1 0x60 SHL SWAP1 JUMP JUMPDEST PUSH2 0xC44 SWAP1 PUSH2 0xC35 JUMP JUMPDEST SWAP1 JUMP JUMPDEST PUSH2 0xC50 SWAP1 PUSH2 0xC3B JUMP JUMPDEST SWAP1 JUMP JUMPDEST PUSH2 0xC5F PUSH2 0xC64 SWAP2 PUSH2 0xB3 JUMP JUMPDEST PUSH2 0xC47 JUMP JUMPDEST SWAP1 MSTORE JUMP JUMPDEST SWAP1 POP SWAP1 JUMP JUMPDEST PUSH2 0xC92 PUSH2 0xC89 SWAP3 PUSH1 0x20 SWAP3 PUSH2 0xC80 DUP2 PUSH2 0x788 JUMP JUMPDEST SWAP5 DUP6 DUP1 SWAP4 PUSH2 0xC68 JUMP JUMPDEST SWAP4 DUP5 SWAP2 ADD PUSH2 0x6AD JUMP JUMPDEST ADD SWAP1 JUMP JUMPDEST PUSH1 0x14 DUP1 SWAP4 PUSH2 0xCBA PUSH1 0x20 DUP5 PUSH2 0xCB2 PUSH2 0xCC2 SWAP7 PUSH2 0xCC9 SWAP12 SWAP11 SWAP9 PUSH2 0xC20 JUMP JUMPDEST ADD DUP1 SWAP3 PUSH2 0xC53 JUMP JUMPDEST ADD DUP1 SWAP3 PUSH2 0xC53 JUMP JUMPDEST ADD SWAP1 PUSH2 0xC6D JUMP JUMPDEST SWAP1 JUMP JUMPDEST PUSH2 0xD5F SWAP3 SWAP2 PUSH2 0xD09 PUSH2 0xD18 SWAP3 PUSH2 0xCE0 PUSH2 0x69B JUMP JUMPDEST POP SWAP2 SWAP4 PUSH2 0xCF5 PUSH2 0xCF0 PUSH1 0x1 PUSH2 0x569 JUMP JUMPDEST PUSH2 0x1BB JUMP JUMPDEST PUSH2 0xCFD PUSH2 0x93 JUMP JUMPDEST SWAP6 DUP7 SWAP5 PUSH1 0x20 DUP7 ADD PUSH2 0xC96 JUMP JUMPDEST PUSH1 0x20 DUP3 ADD DUP2 SUB DUP3 MSTORE SUB DUP3 PUSH2 0x27C JUMP JUMPDEST PUSH2 0xD2A PUSH2 0xD24 DUP3 PUSH2 0x788 JUMP JUMPDEST SWAP2 PUSH2 0x782 JUMP JUMPDEST KECCAK256 PUSH2 0x148A PUSH2 0xD3A PUSH1 0x20 DUP3 ADD PUSH2 0x2A5 JUMP JUMPDEST SWAP1 DUP1 DUP3 MSTORE PUSH2 0x11E3 PUSH1 0x20 DUP4 ADD CODECOPY PUSH2 0xD58 PUSH2 0xD52 DUP3 PUSH2 0x788 JUMP JUMPDEST SWAP2 PUSH2 0x782 JUMP JUMPDEST KECCAK256 SWAP1 PUSH2 0xF84 JUMP JUMPDEST SWAP1 JUMP JUMPDEST SWAP1 JUMP JUMPDEST PUSH2 0xD79 PUSH2 0xD74 PUSH2 0xD7E SWAP3 PUSH2 0x652 JUMP JUMPDEST PUSH2 0x190 JUMP JUMPDEST PUSH2 0xD62 JUMP JUMPDEST SWAP1 JUMP JUMPDEST PUSH2 0xD8A SWAP1 PUSH2 0x193 JUMP JUMPDEST SWAP1 JUMP JUMPDEST PUSH2 0xD96 SWAP1 PUSH2 0xD81 JUMP JUMPDEST SWAP1 JUMP JUMPDEST PUSH2 0xDA2 SWAP1 PUSH2 0x193 JUMP JUMPDEST SWAP1 JUMP JUMPDEST PUSH2 0xDAE SWAP1 PUSH2 0xD99 JUMP JUMPDEST SWAP1 JUMP JUMPDEST PUSH2 0xDBA SWAP1 PUSH2 0x1AF JUMP JUMPDEST SWAP1 JUMP JUMPDEST PUSH1 0x20 SWAP2 DUP2 MSTORE ADD SWAP1 JUMP JUMPDEST PUSH2 0xDE5 PUSH2 0xDEE PUSH1 0x20 SWAP4 PUSH2 0xDF3 SWAP4 PUSH2 0xDDC DUP2 PUSH2 0x788 JUMP JUMPDEST SWAP4 DUP5 DUP1 SWAP4 PUSH2 0xDBD JUMP JUMPDEST SWAP6 DUP7 SWAP2 ADD PUSH2 0x6AD JUMP JUMPDEST PUSH2 0x25C JUMP JUMPDEST ADD SWAP1 JUMP JUMPDEST PUSH2 0xE1C PUSH2 0xE29 SWAP5 SWAP3 SWAP4 PUSH2 0xE12 PUSH1 0x60 DUP5 ADD SWAP6 PUSH1 0x0 DUP6 ADD SWAP1 PUSH2 0x434 JUMP JUMPDEST PUSH1 0x20 DUP4 ADD SWAP1 PUSH2 0x434 JUMP JUMPDEST PUSH1 0x40 DUP2 DUP5 SUB SWAP2 ADD MSTORE PUSH2 0xDC6 JUMP JUMPDEST SWAP1 JUMP JUMPDEST PUSH2 0xEBC SWAP1 SWAP4 SWAP3 SWAP2 SWAP4 PUSH2 0xE3C PUSH2 0x69B JUMP JUMPDEST POP PUSH2 0xE7C DUP6 SWAP2 PUSH2 0xE6D PUSH2 0xE57 PUSH2 0xE52 PUSH1 0x1 PUSH2 0x569 JUMP JUMPDEST PUSH2 0x1BB JUMP JUMPDEST DUP7 SWAP1 PUSH2 0xE61 PUSH2 0x93 JUMP JUMPDEST SWAP6 DUP7 SWAP5 PUSH1 0x20 DUP7 ADD PUSH2 0xC96 JUMP JUMPDEST PUSH1 0x20 DUP3 ADD DUP2 SUB DUP3 MSTORE SUB DUP3 PUSH2 0x27C JUMP JUMPDEST PUSH2 0xE8E PUSH2 0xE88 DUP3 PUSH2 0x788 JUMP JUMPDEST SWAP2 PUSH2 0x782 JUMP JUMPDEST KECCAK256 PUSH2 0x148A PUSH2 0xE9E PUSH1 0x20 DUP3 ADD PUSH2 0x2A5 JUMP JUMPDEST SWAP1 DUP1 DUP3 MSTORE PUSH2 0x11E3 PUSH1 0x20 DUP4 ADD CODECOPY PUSH2 0xEB7 PUSH1 0x0 SWAP3 SWAP2 SWAP3 PUSH2 0xD65 JUMP JUMPDEST PUSH2 0x1130 JUMP JUMPDEST SWAP3 PUSH2 0xED6 PUSH2 0xED1 PUSH2 0xECC DUP7 PUSH2 0xD8D JUMP JUMPDEST PUSH2 0xDA5 JUMP JUMPDEST PUSH2 0xDB1 JUMP JUMPDEST PUSH4 0xCF7A1D77 SWAP2 SWAP1 PUSH2 0xEEF PUSH2 0xEEA PUSH1 0x1 PUSH2 0x569 JUMP JUMPDEST PUSH2 0x1BB JUMP JUMPDEST SWAP4 SWAP3 DUP2 EXTCODESIZE ISZERO PUSH2 0xF66 JUMPI PUSH1 0x0 PUSH2 0xF17 SWAP2 PUSH2 0xF22 DUP3 SWAP7 PUSH2 0xF0B PUSH2 0x93 JUMP JUMPDEST SWAP9 DUP10 SWAP8 DUP9 SWAP7 DUP8 SWAP6 PUSH2 0x57B JUMP JUMPDEST DUP6 MSTORE PUSH1 0x4 DUP6 ADD PUSH2 0xDF7 JUMP JUMPDEST SUB SWAP3 GAS CALL DUP1 ISZERO PUSH2 0xF61 JUMPI PUSH2 0xF34 JUMPI JUMPDEST POP JUMP JUMPDEST PUSH2 0xF54 SWAP1 PUSH1 0x0 RETURNDATASIZE DUP2 GT PUSH2 0xF5A JUMPI JUMPDEST PUSH2 0xF4C DUP2 DUP4 PUSH2 0x27C JUMP JUMPDEST DUP2 ADD SWAP1 PUSH2 0x581 JUMP JUMPDEST CODESIZE PUSH2 0xF31 JUMP JUMPDEST POP RETURNDATASIZE PUSH2 0xF42 JUMP JUMPDEST PUSH2 0x591 JUMP JUMPDEST PUSH2 0x576 JUMP JUMPDEST PUSH2 0xF73 PUSH2 0x69B JUMP JUMPDEST POP CALLER SWAP1 JUMP JUMPDEST PUSH2 0xF81 SWAP1 PUSH2 0x1AF JUMP JUMPDEST SWAP1 JUMP JUMPDEST SWAP1 PUSH2 0xFA2 SWAP2 PUSH2 0xF91 PUSH2 0x69B JUMP JUMPDEST POP SWAP1 PUSH2 0xF9C ADDRESS PUSH2 0xF78 JUMP JUMPDEST SWAP2 PUSH2 0x11B9 JUMP JUMPDEST SWAP1 JUMP JUMPDEST PUSH1 0x0 PUSH32 0x437265617465323A20696E73756666696369656E742062616C616E6365000000 SWAP2 ADD MSTORE JUMP JUMPDEST PUSH2 0xFDA PUSH1 0x1D PUSH1 0x20 SWAP3 PUSH2 0x6A4 JUMP JUMPDEST PUSH2 0xFE3 DUP2 PUSH2 0xFA5 JUMP JUMPDEST ADD SWAP1 JUMP JUMPDEST PUSH2 0xFFD SWAP1 PUSH1 0x20 DUP2 ADD SWAP1 PUSH1 0x0 DUP2 DUP4 SUB SWAP2 ADD MSTORE PUSH2 0xFCD JUMP JUMPDEST SWAP1 JUMP JUMPDEST ISZERO PUSH2 0x1007 JUMPI JUMP JUMPDEST PUSH2 0x100F PUSH2 0x93 JUMP JUMPDEST PUSH3 0x461BCD PUSH1 0xE5 SHL DUP2 MSTORE DUP1 PUSH2 0x1025 PUSH1 0x4 DUP3 ADD PUSH2 0xFE7 JUMP JUMPDEST SUB SWAP1 REVERT JUMPDEST PUSH1 0x0 PUSH32 0x437265617465323A2062797465636F6465206C656E677468206973207A65726F SWAP2 ADD MSTORE JUMP JUMPDEST PUSH2 0x105D PUSH1 0x20 DUP1 SWAP3 PUSH2 0x6A4 JUMP JUMPDEST PUSH2 0x1066 DUP2 PUSH2 0x1029 JUMP JUMPDEST ADD SWAP1 JUMP JUMPDEST PUSH2 0x1080 SWAP1 PUSH1 0x20 DUP2 ADD SWAP1 PUSH1 0x0 DUP2 DUP4 SUB SWAP2 ADD MSTORE PUSH2 0x1051 JUMP JUMPDEST SWAP1 JUMP JUMPDEST ISZERO PUSH2 0x108A JUMPI JUMP JUMPDEST PUSH2 0x1092 PUSH2 0x93 JUMP JUMPDEST PUSH3 0x461BCD PUSH1 0xE5 SHL DUP2 MSTORE DUP1 PUSH2 0x10A8 PUSH1 0x4 DUP3 ADD PUSH2 0x106A JUMP JUMPDEST SUB SWAP1 REVERT JUMPDEST PUSH1 0x0 PUSH32 0x437265617465323A204661696C6564206F6E206465706C6F7900000000000000 SWAP2 ADD MSTORE JUMP JUMPDEST PUSH2 0x10E1 PUSH1 0x19 PUSH1 0x20 SWAP3 PUSH2 0x6A4 JUMP JUMPDEST PUSH2 0x10EA DUP2 PUSH2 0x10AC JUMP JUMPDEST ADD SWAP1 JUMP JUMPDEST PUSH2 0x1104 SWAP1 PUSH1 0x20 DUP2 ADD SWAP1 PUSH1 0x0 DUP2 DUP4 SUB SWAP2 ADD MSTORE PUSH2 0x10D4 JUMP JUMPDEST SWAP1 JUMP JUMPDEST ISZERO PUSH2 0x110E JUMPI JUMP JUMPDEST PUSH2 0x1116 PUSH2 0x93 JUMP JUMPDEST PUSH3 0x461BCD PUSH1 0xE5 SHL DUP2 MSTORE DUP1 PUSH2 0x112C PUSH1 0x4 DUP3 ADD PUSH2 0x10EE JUMP JUMPDEST SUB SWAP1 REVERT JUMPDEST SWAP2 SWAP1 SWAP2 PUSH2 0x113B PUSH2 0x69B JUMP JUMPDEST POP PUSH2 0x1162 PUSH2 0x1148 ADDRESS PUSH2 0xF78 JUMP JUMPDEST BALANCE PUSH2 0x115B PUSH2 0x1155 DUP5 PUSH2 0xD62 JUMP JUMPDEST SWAP2 PUSH2 0xD62 JUMP JUMPDEST LT ISZERO PUSH2 0x1000 JUMP JUMPDEST PUSH2 0x1188 PUSH2 0x116E DUP4 PUSH2 0x788 JUMP JUMPDEST PUSH2 0x1181 PUSH2 0x117B PUSH1 0x0 PUSH2 0xD65 JUMP JUMPDEST SWAP2 PUSH2 0xD62 JUMP JUMPDEST EQ ISZERO PUSH2 0x1083 JUMP JUMPDEST PUSH1 0x20 DUP3 MLOAD SWAP3 ADD SWAP1 CREATE2 SWAP1 PUSH2 0x11B7 DUP3 PUSH2 0x11B0 PUSH2 0x11AA PUSH2 0x11A5 PUSH1 0x0 PUSH2 0x671 JUMP JUMPDEST PUSH2 0xB3 JUMP JUMPDEST SWAP2 PUSH2 0xB3 JUMP JUMPDEST EQ ISZERO PUSH2 0x1107 JUMP JUMPDEST JUMP JUMPDEST SWAP1 PUSH1 0x55 SWAP3 PUSH1 0xB SWAP3 PUSH2 0x11C8 PUSH2 0x69B JUMP JUMPDEST POP PUSH1 0x40 MLOAD SWAP3 PUSH1 0x40 DUP5 ADD MSTORE PUSH1 0x20 DUP4 ADD MSTORE DUP2 MSTORE ADD PUSH1 0xFF DUP2 MSTORE8 KECCAK256 SWAP1 JUMP INVALID PUSH1 0x80 PUSH1 0x40 MSTORE CALLVALUE PUSH1 0x1C JUMPI PUSH1 0xE PUSH1 0x20 JUMP JUMPDEST PUSH2 0x145E PUSH2 0x2C DUP3 CODECOPY PUSH2 0x145E SWAP1 RETURN JUMPDEST PUSH1 0x26 JUMP JUMPDEST PUSH1 0x40 MLOAD SWAP1 JUMP JUMPDEST PUSH1 0x0 DUP1 REVERT INVALID PUSH1 0x80 PUSH1 0x40 MSTORE CALLDATASIZE ISZERO PUSH2 0x6B JUMPI PUSH2 0x6B JUMP JUMPDEST SWAP1 JUMP JUMPDEST PUSH1 0x1 DUP1 PUSH1 0xA0 SHL SUB AND SWAP1 JUMP JUMPDEST SWAP1 JUMP JUMPDEST PUSH2 0x34 PUSH2 0x2F PUSH2 0x39 SWAP3 PUSH2 0xF JUMP JUMPDEST PUSH2 0x1D JUMP JUMPDEST PUSH2 0x12 JUMP JUMPDEST SWAP1 JUMP JUMPDEST PUSH2 0x45 SWAP1 PUSH2 0x20 JUMP JUMPDEST SWAP1 JUMP JUMPDEST PUSH2 0x51 SWAP1 PUSH2 0x12 JUMP JUMPDEST SWAP1 JUMP JUMPDEST PUSH1 0x60 SWAP1 JUMP JUMPDEST PUSH4 0xFFFFFFFF PUSH1 0xE0 SHL AND SWAP1 JUMP JUMPDEST PUSH1 0x0 ADD SWAP1 JUMP JUMPDEST PUSH2 0x73 PUSH2 0x17E JUMP JUMPDEST PUSH2 0x8E PUSH2 0x88 PUSH2 0x83 PUSH1 0x0 PUSH2 0x3C JUMP JUMPDEST PUSH2 0x48 JUMP JUMPDEST SWAP2 PUSH2 0x48 JUMP JUMPDEST SUB PUSH2 0x46C JUMPI PUSH2 0x9B PUSH2 0x54 JUMP JUMPDEST POP PUSH4 0xFFFFFFFF PUSH1 0xE0 SHL PUSH1 0x0 CALLDATALOAD AND PUSH2 0xC1 PUSH2 0xBB PUSH4 0xCF7A1D77 PUSH1 0xE0 SHL PUSH2 0x59 JUMP JUMPDEST SWAP2 PUSH2 0x59 JUMP JUMPDEST EQ PUSH2 0xE3 JUMPI PUSH1 0x0 PUSH4 0xF92EE8A9 PUSH1 0xE0 SHL DUP2 MSTORE DUP1 PUSH2 0xDF PUSH1 0x4 DUP3 ADD PUSH2 0x65 JUMP JUMPDEST SUB SWAP1 REVERT JUMPDEST PUSH2 0xEB PUSH2 0x401 JUMP JUMPDEST PUSH1 0x20 DUP2 MLOAD SWAP2 ADD RETURN JUMPDEST PUSH1 0x0 SWAP1 JUMP JUMPDEST SWAP1 JUMP JUMPDEST SWAP1 JUMP JUMPDEST PUSH1 0x0 SHL SWAP1 JUMP JUMPDEST PUSH2 0x118 PUSH2 0x113 PUSH2 0x11D SWAP3 PUSH2 0xF8 JUMP JUMPDEST PUSH2 0xFE JUMP JUMPDEST PUSH2 0xFB JUMP JUMPDEST SWAP1 JUMP JUMPDEST PUSH2 0x149 PUSH32 0xB53127684A568B3173AE13B9F8A6016E243E63B6E8EE1178D6A717850B5D6103 PUSH2 0x104 JUMP JUMPDEST SWAP1 JUMP JUMPDEST PUSH1 0x0 SHR SWAP1 JUMP JUMPDEST PUSH1 0x1 DUP1 PUSH1 0xA0 SHL SUB AND SWAP1 JUMP JUMPDEST PUSH2 0x169 PUSH2 0x16E SWAP2 PUSH2 0x14C JUMP JUMPDEST PUSH2 0x152 JUMP JUMPDEST SWAP1 JUMP JUMPDEST PUSH2 0x17B SWAP1 SLOAD PUSH2 0x15D JUMP JUMPDEST SWAP1 JUMP JUMPDEST PUSH2 0x186 PUSH2 0xF3 JUMP JUMPDEST POP PUSH2 0x1A2 PUSH1 0x0 PUSH2 0x19C PUSH2 0x197 PUSH2 0x120 JUMP JUMPDEST PUSH2 0x5A2 JUMP JUMPDEST ADD PUSH2 0x171 JUMP JUMPDEST SWAP1 JUMP JUMPDEST SWAP1 JUMP JUMPDEST SWAP1 JUMP JUMPDEST PUSH2 0x1BF PUSH2 0x1BA PUSH2 0x1C4 SWAP3 PUSH2 0x1A5 JUMP JUMPDEST PUSH2 0x1D JUMP JUMPDEST PUSH2 0x1A8 JUMP JUMPDEST SWAP1 JUMP JUMPDEST PUSH1 0x40 MLOAD SWAP1 JUMP JUMPDEST PUSH1 0x0 DUP1 REVERT JUMPDEST PUSH1 0x0 DUP1 REVERT JUMPDEST SWAP1 SWAP4 SWAP3 SWAP4 DUP5 DUP4 GT PUSH2 0x1F7 JUMPI DUP5 GT PUSH2 0x1F2 JUMPI PUSH1 0x1 DUP3 MUL ADD SWAP3 SUB SWAP1 JUMP JUMPDEST PUSH2 0x1D2 JUMP JUMPDEST PUSH2 0x1CD JUMP JUMPDEST SWAP2 JUMP JUMPDEST PUSH1 0x0 DUP1 REVERT JUMPDEST PUSH1 0x0 DUP1 REVERT JUMPDEST PUSH2 0x212 SWAP1 PUSH2 0x12 JUMP JUMPDEST SWAP1 JUMP JUMPDEST PUSH2 0x21E DUP2 PUSH2 0x209 JUMP JUMPDEST SUB PUSH2 0x225 JUMPI JUMP JUMPDEST PUSH1 0x0 DUP1 REVERT JUMPDEST SWAP1 POP CALLDATALOAD SWAP1 PUSH2 0x237 DUP3 PUSH2 0x215 JUMP JUMPDEST JUMP JUMPDEST PUSH1 0x0 DUP1 REVERT JUMPDEST PUSH1 0x0 DUP1 REVERT JUMPDEST PUSH1 0x1F DUP1 NOT SWAP2 ADD AND SWAP1 JUMP JUMPDEST PUSH4 0x4E487B71 PUSH1 0xE0 SHL PUSH1 0x0 MSTORE PUSH1 0x41 PUSH1 0x4 MSTORE PUSH1 0x24 PUSH1 0x0 REVERT JUMPDEST SWAP1 PUSH2 0x26D SWAP1 PUSH2 0x243 JUMP JUMPDEST DUP2 ADD SWAP1 DUP2 LT PUSH8 0xFFFFFFFFFFFFFFFF DUP3 GT OR PUSH2 0x287 JUMPI PUSH1 0x40 MSTORE JUMP JUMPDEST PUSH2 0x24D JUMP JUMPDEST SWAP1 PUSH2 0x29F PUSH2 0x298 PUSH2 0x1C7 JUMP JUMPDEST SWAP3 DUP4 PUSH2 0x263 JUMP JUMPDEST JUMP JUMPDEST PUSH8 0xFFFFFFFFFFFFFFFF DUP2 GT PUSH2 0x2BF JUMPI PUSH2 0x2BB PUSH1 0x20 SWAP2 PUSH2 0x243 JUMP JUMPDEST ADD SWAP1 JUMP JUMPDEST PUSH2 0x24D JUMP JUMPDEST SWAP1 DUP3 PUSH1 0x0 SWAP4 SWAP3 DUP3 CALLDATACOPY ADD MSTORE JUMP JUMPDEST SWAP1 SWAP3 SWAP2 SWAP3 PUSH2 0x2E5 PUSH2 0x2E0 DUP3 PUSH2 0x2A1 JUMP JUMPDEST PUSH2 0x28C JUMP JUMPDEST SWAP4 DUP2 DUP6 MSTORE PUSH1 0x20 DUP6 ADD SWAP1 DUP3 DUP5 ADD GT PUSH2 0x301 JUMPI PUSH2 0x2FF SWAP3 PUSH2 0x2C4 JUMP JUMPDEST JUMP JUMPDEST PUSH2 0x23E JUMP JUMPDEST SWAP1 DUP1 PUSH1 0x1F DUP4 ADD SLT ISZERO PUSH2 0x324 JUMPI DUP2 PUSH1 0x20 PUSH2 0x321 SWAP4 CALLDATALOAD SWAP2 ADD PUSH2 0x2D0 JUMP JUMPDEST SWAP1 JUMP JUMPDEST PUSH2 0x239 JUMP JUMPDEST SWAP2 PUSH1 0x60 DUP4 DUP4 SUB SLT PUSH2 0x376 JUMPI PUSH2 0x341 DUP3 PUSH1 0x0 DUP6 ADD PUSH2 0x22A JUMP JUMPDEST SWAP3 PUSH2 0x34F DUP4 PUSH1 0x20 DUP4 ADD PUSH2 0x22A JUMP JUMPDEST SWAP3 PUSH1 0x40 DUP3 ADD CALLDATALOAD PUSH8 0xFFFFFFFFFFFFFFFF DUP2 GT PUSH2 0x371 JUMPI PUSH2 0x36E SWAP3 ADD PUSH2 0x306 JUMP JUMPDEST SWAP1 JUMP JUMPDEST PUSH2 0x204 JUMP JUMPDEST PUSH2 0x1FF JUMP JUMPDEST PUSH2 0x38F PUSH2 0x38A PUSH2 0x394 SWAP3 PUSH2 0x12 JUMP JUMPDEST PUSH2 0x1D JUMP JUMPDEST PUSH2 0x12 JUMP JUMPDEST SWAP1 JUMP JUMPDEST PUSH2 0x3A0 SWAP1 PUSH2 0x37B JUMP JUMPDEST SWAP1 JUMP JUMPDEST PUSH2 0x3AC SWAP1 PUSH2 0x397 JUMP JUMPDEST SWAP1 JUMP JUMPDEST PUSH8 0xFFFFFFFFFFFFFFFF DUP2 GT PUSH2 0x3CD JUMPI PUSH2 0x3C9 PUSH1 0x20 SWAP2 PUSH2 0x243 JUMP JUMPDEST ADD SWAP1 JUMP JUMPDEST PUSH2 0x24D JUMP JUMPDEST SWAP1 PUSH2 0x3E4 PUSH2 0x3DF DUP4 PUSH2 0x3AF JUMP JUMPDEST PUSH2 0x28C JUMP JUMPDEST SWAP2 DUP3 MSTORE JUMP JUMPDEST PUSH2 0x3F3 PUSH1 0x0 PUSH2 0x3D2 JUMP JUMPDEST SWAP1 JUMP JUMPDEST PUSH2 0x3FE PUSH2 0x3E9 JUMP JUMPDEST SWAP1 JUMP JUMPDEST PUSH2 0x409 PUSH2 0x54 JUMP JUMPDEST POP PUSH2 0x412 PUSH2 0x5CD JUMP JUMPDEST PUSH2 0x461 PUSH2 0x457 PUSH2 0x451 PUSH2 0x447 PUSH2 0x43F PUSH2 0x439 PUSH1 0x0 CALLDATASIZE PUSH2 0x431 PUSH1 0x4 PUSH2 0x1AB JUMP JUMPDEST SWAP1 DUP1 SWAP3 PUSH2 0x1D7 JUMP JUMPDEST SWAP1 PUSH2 0x1FC JUMP JUMPDEST DUP2 ADD SWAP1 PUSH2 0x329 JUMP JUMPDEST SWAP4 SWAP2 SWAP3 SWAP1 SWAP3 PUSH2 0x3A3 JUMP JUMPDEST SWAP2 PUSH2 0x3A3 JUMP JUMPDEST SWAP2 SWAP1 SWAP2 SWAP1 SWAP2 PUSH2 0x5EC JUMP JUMPDEST PUSH2 0x469 PUSH2 0x3F6 JUMP JUMPDEST SWAP1 JUMP JUMPDEST CALLER PUSH2 0x486 PUSH2 0x480 PUSH2 0x47B PUSH2 0x17E JUMP JUMPDEST PUSH2 0x48 JUMP JUMPDEST SWAP2 PUSH2 0x48 JUMP JUMPDEST EQ PUSH1 0x0 EQ PUSH2 0x59D JUMPI PUSH2 0x496 PUSH2 0x54 JUMP JUMPDEST POP PUSH4 0xFFFFFFFF PUSH1 0xE0 SHL PUSH1 0x0 CALLDATALOAD AND DUP1 PUSH2 0x4BD PUSH2 0x4B7 PUSH4 0x1B2CE7F3 PUSH1 0xE1 SHL PUSH2 0x59 JUMP JUMPDEST SWAP2 PUSH2 0x59 JUMP JUMPDEST EQ PUSH1 0x0 EQ PUSH2 0x4D7 JUMPI POP PUSH2 0x4CE PUSH2 0x817 JUMP JUMPDEST JUMPDEST PUSH1 0x20 DUP2 MLOAD SWAP2 ADD RETURN JUMPDEST DUP1 PUSH2 0x4F1 PUSH2 0x4EB PUSH4 0x278F7943 PUSH1 0xE1 SHL PUSH2 0x59 JUMP JUMPDEST SWAP2 PUSH2 0x59 JUMP JUMPDEST EQ PUSH1 0x0 EQ PUSH2 0x508 JUMPI POP PUSH2 0x502 PUSH2 0x7C1 JUMP JUMPDEST JUMPDEST PUSH2 0x4CF JUMP JUMPDEST DUP1 PUSH2 0x522 PUSH2 0x51C PUSH4 0x8F28397 PUSH1 0xE4 SHL PUSH2 0x59 JUMP JUMPDEST SWAP2 PUSH2 0x59 JUMP JUMPDEST EQ PUSH1 0x0 EQ PUSH2 0x539 JUMPI POP PUSH2 0x533 PUSH2 0x723 JUMP JUMPDEST JUMPDEST PUSH2 0x503 JUMP JUMPDEST DUP1 PUSH2 0x553 PUSH2 0x54D PUSH4 0x3E14691 PUSH1 0xE6 SHL PUSH2 0x59 JUMP JUMPDEST SWAP2 PUSH2 0x59 JUMP JUMPDEST EQ PUSH1 0x0 EQ PUSH2 0x56A JUMPI POP PUSH2 0x564 PUSH2 0x6BF JUMP JUMPDEST JUMPDEST PUSH2 0x534 JUMP JUMPDEST PUSH2 0x583 PUSH2 0x57D PUSH4 0x5C60DA1B PUSH1 0xE0 SHL PUSH2 0x59 JUMP JUMPDEST SWAP2 PUSH2 0x59 JUMP JUMPDEST EQ PUSH1 0x0 EQ PUSH2 0x598 JUMPI PUSH2 0x593 PUSH2 0x67A JUMP JUMPDEST PUSH2 0x565 JUMP JUMPDEST PUSH2 0x64A JUMP JUMPDEST PUSH2 0x64A JUMP JUMPDEST SWAP1 JUMP JUMPDEST PUSH2 0x5B9 PUSH2 0x5B4 PUSH2 0x5BE SWAP3 PUSH2 0xF JUMP JUMPDEST PUSH2 0x1D JUMP JUMPDEST PUSH2 0x1A8 JUMP JUMPDEST SWAP1 JUMP JUMPDEST ISZERO PUSH2 0x5C8 JUMPI JUMP JUMPDEST PUSH1 0x0 DUP1 REVERT JUMPDEST PUSH2 0x5EA CALLVALUE PUSH2 0x5E4 PUSH2 0x5DE PUSH1 0x0 PUSH2 0x5A5 JUMP JUMPDEST SWAP2 PUSH2 0x1A8 JUMP JUMPDEST EQ PUSH2 0x5C1 JUMP JUMPDEST JUMP JUMPDEST SWAP2 SWAP1 PUSH2 0x5F6 PUSH2 0x87A JUMP JUMPDEST PUSH2 0x611 PUSH2 0x60B PUSH2 0x606 PUSH1 0x0 PUSH2 0x3C JUMP JUMPDEST PUSH2 0x48 JUMP JUMPDEST SWAP2 PUSH2 0x48 JUMP JUMPDEST SUB PUSH2 0x62D JUMPI PUSH2 0x622 PUSH2 0x62B SWAP4 PUSH2 0x8B2 JUMP JUMPDEST SWAP1 PUSH1 0x0 SWAP2 PUSH2 0x98D JUMP JUMPDEST JUMP JUMPDEST PUSH1 0x0 PUSH4 0xF92EE8A9 PUSH1 0xE0 SHL DUP2 MSTORE DUP1 PUSH2 0x646 PUSH1 0x4 DUP3 ADD PUSH2 0x65 JUMP JUMPDEST SUB SWAP1 REVERT JUMPDEST PUSH2 0x652 PUSH2 0xAA6 JUMP JUMPDEST PUSH2 0xAE7 JUMP JUMPDEST PUSH2 0x660 SWAP1 PUSH2 0x48 JUMP JUMPDEST SWAP1 MSTORE JUMP JUMPDEST SWAP2 SWAP1 PUSH2 0x678 SWAP1 PUSH1 0x0 PUSH1 0x20 DUP6 ADD SWAP5 ADD SWAP1 PUSH2 0x657 JUMP JUMPDEST JUMP JUMPDEST PUSH2 0x682 PUSH2 0x54 JUMP JUMPDEST POP PUSH2 0x68B PUSH2 0x5CD JUMP JUMPDEST PUSH2 0x6AD PUSH2 0x6BC PUSH2 0x699 PUSH2 0xAA6 JUMP JUMPDEST PUSH2 0x6A1 PUSH2 0x1C7 JUMP JUMPDEST SWAP3 DUP4 SWAP2 PUSH1 0x20 DUP4 ADD PUSH2 0x664 JUMP JUMPDEST PUSH1 0x20 DUP3 ADD DUP2 SUB DUP3 MSTORE SUB DUP3 PUSH2 0x263 JUMP JUMPDEST SWAP1 JUMP JUMPDEST PUSH2 0x6C7 PUSH2 0x54 JUMP JUMPDEST POP PUSH2 0x6D0 PUSH2 0x5CD JUMP JUMPDEST PUSH2 0x6F2 PUSH2 0x701 PUSH2 0x6DE PUSH2 0x17E JUMP JUMPDEST PUSH2 0x6E6 PUSH2 0x1C7 JUMP JUMPDEST SWAP3 DUP4 SWAP2 PUSH1 0x20 DUP4 ADD PUSH2 0x664 JUMP JUMPDEST PUSH1 0x20 DUP3 ADD DUP2 SUB DUP3 MSTORE SUB DUP3 PUSH2 0x263 JUMP JUMPDEST SWAP1 JUMP JUMPDEST SWAP1 PUSH1 0x20 DUP3 DUP3 SUB SLT PUSH2 0x71E JUMPI PUSH2 0x71B SWAP2 PUSH1 0x0 ADD PUSH2 0x22A JUMP JUMPDEST SWAP1 JUMP JUMPDEST PUSH2 0x1FF JUMP JUMPDEST PUSH2 0x72B PUSH2 0x54 JUMP JUMPDEST POP PUSH2 0x734 PUSH2 0x5CD JUMP JUMPDEST PUSH2 0x770 PUSH2 0x76B PUSH2 0x766 PUSH2 0x75E PUSH2 0x758 PUSH1 0x0 CALLDATASIZE PUSH2 0x750 PUSH1 0x4 PUSH2 0x1AB JUMP JUMPDEST SWAP1 DUP1 SWAP3 PUSH2 0x1D7 JUMP JUMPDEST SWAP1 PUSH2 0x1FC JUMP JUMPDEST DUP2 ADD SWAP1 PUSH2 0x704 JUMP JUMPDEST PUSH2 0x3A3 JUMP JUMPDEST PUSH2 0x8B2 JUMP JUMPDEST PUSH2 0x778 PUSH2 0x3F6 JUMP JUMPDEST SWAP1 JUMP JUMPDEST SWAP2 SWAP1 SWAP2 PUSH1 0x40 DUP2 DUP5 SUB SLT PUSH2 0x7BC JUMPI PUSH2 0x795 DUP4 PUSH1 0x0 DUP4 ADD PUSH2 0x22A JUMP JUMPDEST SWAP3 PUSH1 0x20 DUP3 ADD CALLDATALOAD PUSH8 0xFFFFFFFFFFFFFFFF DUP2 GT PUSH2 0x7B7 JUMPI PUSH2 0x7B4 SWAP3 ADD PUSH2 0x306 JUMP JUMPDEST SWAP1 JUMP JUMPDEST PUSH2 0x204 JUMP JUMPDEST PUSH2 0x1FF JUMP JUMPDEST PUSH2 0x7C9 PUSH2 0x54 JUMP JUMPDEST POP PUSH2 0x80C PUSH2 0x803 PUSH2 0x7FC PUSH2 0x7F4 PUSH2 0x7EE PUSH1 0x0 CALLDATASIZE PUSH2 0x7E6 PUSH1 0x4 PUSH2 0x1AB JUMP JUMPDEST SWAP1 DUP1 SWAP3 PUSH2 0x1D7 JUMP JUMPDEST SWAP1 PUSH2 0x1FC JUMP JUMPDEST DUP2 ADD SWAP1 PUSH2 0x77B JUMP JUMPDEST SWAP2 SWAP1 PUSH2 0x3A3 JUMP JUMPDEST SWAP1 PUSH1 0x1 SWAP2 PUSH2 0xB0A JUMP JUMPDEST PUSH2 0x814 PUSH2 0x3F6 JUMP JUMPDEST SWAP1 JUMP JUMPDEST PUSH2 0x81F PUSH2 0x54 JUMP JUMPDEST POP PUSH2 0x828 PUSH2 0x5CD JUMP JUMPDEST PUSH2 0x86F PUSH2 0x85F PUSH2 0x85A PUSH2 0x852 PUSH2 0x84C PUSH1 0x0 CALLDATASIZE PUSH2 0x844 PUSH1 0x4 PUSH2 0x1AB JUMP JUMPDEST SWAP1 DUP1 SWAP3 PUSH2 0x1D7 JUMP JUMPDEST SWAP1 PUSH2 0x1FC JUMP JUMPDEST DUP2 ADD SWAP1 PUSH2 0x704 JUMP JUMPDEST PUSH2 0x3A3 JUMP JUMPDEST PUSH2 0x867 PUSH2 0x3F6 JUMP JUMPDEST PUSH1 0x0 SWAP2 PUSH2 0xB0A JUMP JUMPDEST PUSH2 0x877 PUSH2 0x3F6 JUMP JUMPDEST SWAP1 JUMP JUMPDEST PUSH2 0x882 PUSH2 0xF3 JUMP JUMPDEST POP PUSH2 0x88B PUSH2 0x17E JUMP JUMPDEST SWAP1 JUMP JUMPDEST SWAP2 PUSH1 0x20 PUSH2 0x8B0 SWAP3 SWAP5 SWAP4 PUSH2 0x8A9 PUSH1 0x40 DUP3 ADD SWAP7 PUSH1 0x0 DUP4 ADD SWAP1 PUSH2 0x657 JUMP JUMPDEST ADD SWAP1 PUSH2 0x657 JUMP JUMPDEST JUMP JUMPDEST PUSH2 0x8FD SWAP1 PUSH2 0x8BE PUSH2 0x17E JUMP JUMPDEST DUP2 PUSH32 0x7E644D79422F17C01E4894B5F4F588D331EBFA28653D42AE832DC59E38C9798F SWAP2 PUSH2 0x8F5 PUSH2 0x8EC PUSH2 0x1C7 JUMP JUMPDEST SWAP3 DUP4 SWAP3 DUP4 PUSH2 0x88E JUMP JUMPDEST SUB SWAP1 LOG1 PUSH2 0xC4D JUMP JUMPDEST JUMP JUMPDEST PUSH2 0x908 SWAP1 PUSH2 0x397 JUMP JUMPDEST SWAP1 JUMP JUMPDEST MLOAD SWAP1 JUMP JUMPDEST PUSH2 0x918 SWAP1 PUSH2 0x37B JUMP JUMPDEST SWAP1 JUMP JUMPDEST PUSH2 0x924 SWAP1 PUSH2 0x90F JUMP JUMPDEST SWAP1 JUMP JUMPDEST PUSH2 0x930 SWAP1 PUSH2 0x397 JUMP JUMPDEST SWAP1 JUMP JUMPDEST PUSH1 0xE0 SHL SWAP1 JUMP JUMPDEST PUSH2 0x942 DUP2 PUSH2 0x48 JUMP JUMPDEST SUB PUSH2 0x949 JUMPI JUMP JUMPDEST PUSH1 0x0 DUP1 REVERT JUMPDEST SWAP1 POP MLOAD SWAP1 PUSH2 0x95B DUP3 PUSH2 0x939 JUMP JUMPDEST JUMP JUMPDEST SWAP1 PUSH1 0x20 DUP3 DUP3 SUB SLT PUSH2 0x977 JUMPI PUSH2 0x974 SWAP2 PUSH1 0x0 ADD PUSH2 0x94E JUMP JUMPDEST SWAP1 JUMP JUMPDEST PUSH2 0x1FF JUMP JUMPDEST PUSH2 0x984 PUSH2 0x1C7 JUMP JUMPDEST RETURNDATASIZE PUSH1 0x0 DUP3 RETURNDATACOPY RETURNDATASIZE SWAP1 REVERT JUMPDEST SWAP2 PUSH2 0x997 DUP4 PUSH2 0xE30 JUMP JUMPDEST DUP3 PUSH2 0x9C2 PUSH32 0x1CF3B03A6CF19FA2BABA4DF148E9DCABEDEA7F8A5C07840E207E5C089BE95D3E SWAP2 PUSH2 0x8FF JUMP JUMPDEST SWAP1 PUSH2 0x9CB PUSH2 0x1C7 JUMP JUMPDEST DUP1 PUSH2 0x9D5 DUP2 PUSH2 0x65 JUMP JUMPDEST SUB SWAP1 LOG2 PUSH2 0x9E1 DUP3 PUSH2 0x90B JUMP JUMPDEST PUSH2 0x9F4 PUSH2 0x9EE PUSH1 0x0 PUSH2 0x5A5 JUMP JUMPDEST SWAP2 PUSH2 0x1A8 JUMP JUMPDEST GT SWAP1 DUP2 ISZERO PUSH2 0xA9E JUMPI JUMPDEST POP PUSH2 0xA07 JUMPI JUMPDEST POP POP JUMP JUMPDEST PUSH1 0x20 PUSH2 0xA1D PUSH2 0xA18 PUSH2 0xA33 SWAP5 PUSH2 0x91B JUMP JUMPDEST PUSH2 0x927 JUMP JUMPDEST PUSH4 0x5C60DA1B SWAP1 PUSH2 0xA2B PUSH2 0x1C7 JUMP JUMPDEST SWAP5 DUP6 SWAP3 PUSH2 0x933 JUMP JUMPDEST DUP3 MSTORE DUP2 DUP1 PUSH2 0xA43 PUSH1 0x4 DUP3 ADD PUSH2 0x65 JUMP JUMPDEST SUB SWAP2 GAS STATICCALL SWAP1 DUP2 ISZERO PUSH2 0xA99 JUMPI PUSH2 0xA61 SWAP3 PUSH1 0x0 SWAP3 PUSH2 0xA69 JUMPI JUMPDEST POP SWAP1 PUSH2 0xF65 JUMP JUMPDEST POP CODESIZE DUP1 PUSH2 0xA03 JUMP JUMPDEST PUSH2 0xA8B SWAP2 SWAP3 POP PUSH1 0x20 RETURNDATASIZE DUP2 GT PUSH2 0xA92 JUMPI JUMPDEST PUSH2 0xA83 DUP2 DUP4 PUSH2 0x263 JUMP JUMPDEST DUP2 ADD SWAP1 PUSH2 0x95D JUMP JUMPDEST SWAP1 CODESIZE PUSH2 0xA5A JUMP JUMPDEST POP RETURNDATASIZE PUSH2 0xA79 JUMP JUMPDEST PUSH2 0x97C JUMP JUMPDEST SWAP1 POP CODESIZE PUSH2 0x9FD JUMP JUMPDEST PUSH2 0xAAE PUSH2 0xF3 JUMP JUMPDEST POP PUSH2 0xAB7 PUSH2 0xF85 JUMP JUMPDEST DUP1 PUSH2 0xAD3 PUSH2 0xACD PUSH2 0xAC8 PUSH1 0x0 PUSH2 0x3C JUMP JUMPDEST PUSH2 0x48 JUMP JUMPDEST SWAP2 PUSH2 0x48 JUMP JUMPDEST SUB PUSH2 0xAE4 JUMPI POP PUSH2 0xAE1 PUSH2 0xF99 JUMP JUMPDEST SWAP1 JUMP JUMPDEST SWAP1 JUMP JUMPDEST PUSH1 0x0 DUP1 SWAP2 CALLDATASIZE DUP3 DUP1 CALLDATACOPY DUP2 CALLDATASIZE SWAP2 GAS DELEGATECALL RETURNDATASIZE PUSH1 0x0 DUP1 RETURNDATACOPY PUSH1 0x0 EQ PUSH2 0xB05 JUMPI RETURNDATASIZE PUSH1 0x0 RETURN JUMPDEST RETURNDATASIZE PUSH1 0x0 REVERT JUMPDEST SWAP2 PUSH2 0xB14 DUP4 PUSH2 0x102F JUMP JUMPDEST PUSH2 0xB1D DUP3 PUSH2 0x90B JUMP JUMPDEST PUSH2 0xB30 PUSH2 0xB2A PUSH1 0x0 PUSH2 0x5A5 JUMP JUMPDEST SWAP2 PUSH2 0x1A8 JUMP JUMPDEST GT SWAP1 DUP2 ISZERO PUSH2 0xB54 JUMPI JUMPDEST POP PUSH2 0xB43 JUMPI JUMPDEST POP POP JUMP JUMPDEST PUSH2 0xB4C SWAP2 PUSH2 0xF65 JUMP JUMPDEST POP CODESIZE DUP1 PUSH2 0xB3F JUMP JUMPDEST SWAP1 POP CODESIZE PUSH2 0xB39 JUMP JUMPDEST PUSH1 0x20 SWAP2 DUP2 MSTORE ADD SWAP1 JUMP JUMPDEST PUSH1 0x20 PUSH32 0x6464726573730000000000000000000000000000000000000000000000000000 SWAP2 PUSH32 0x455243313936373A206E65772061646D696E20697320746865207A65726F2061 PUSH1 0x0 DUP3 ADD MSTORE ADD MSTORE JUMP JUMPDEST PUSH2 0xBC0 PUSH1 0x26 PUSH1 0x40 SWAP3 PUSH2 0xB5C JUMP JUMPDEST PUSH2 0xBC9 DUP2 PUSH2 0xB65 JUMP JUMPDEST ADD SWAP1 JUMP JUMPDEST PUSH2 0xBE3 SWAP1 PUSH1 0x20 DUP2 ADD SWAP1 PUSH1 0x0 DUP2 DUP4 SUB SWAP2 ADD MSTORE PUSH2 0xBB3 JUMP JUMPDEST SWAP1 JUMP JUMPDEST ISZERO PUSH2 0xBED JUMPI JUMP JUMPDEST PUSH2 0xBF5 PUSH2 0x1C7 JUMP JUMPDEST PUSH3 0x461BCD PUSH1 0xE5 SHL DUP2 MSTORE DUP1 PUSH2 0xC0B PUSH1 0x4 DUP3 ADD PUSH2 0xBCD JUMP JUMPDEST SUB SWAP1 REVERT JUMPDEST SWAP1 PUSH2 0xC20 PUSH1 0x1 DUP1 PUSH1 0xA0 SHL SUB SWAP2 PUSH2 0xFE JUMP JUMPDEST SWAP2 DUP2 NOT AND SWAP2 AND OR SWAP1 JUMP JUMPDEST SWAP1 JUMP JUMPDEST SWAP1 PUSH2 0xC42 PUSH2 0xC3D PUSH2 0xC49 SWAP3 PUSH2 0x8FF JUMP JUMPDEST PUSH2 0xC2A JUMP JUMPDEST DUP3 SLOAD PUSH2 0xC0F JUMP JUMPDEST SWAP1 SSTORE JUMP JUMPDEST PUSH2 0xC8F SWAP1 PUSH2 0xC77 DUP2 PUSH2 0xC70 PUSH2 0xC6A PUSH2 0xC65 PUSH1 0x0 PUSH2 0x3C JUMP JUMPDEST PUSH2 0x48 JUMP JUMPDEST SWAP2 PUSH2 0x48 JUMP JUMPDEST EQ ISZERO PUSH2 0xBE6 JUMP JUMPDEST PUSH1 0x0 PUSH2 0xC89 PUSH2 0xC84 PUSH2 0x120 JUMP JUMPDEST PUSH2 0x5A2 JUMP JUMPDEST ADD PUSH2 0xC2D JUMP JUMPDEST JUMP JUMPDEST PUSH1 0x20 PUSH32 0x7472616374000000000000000000000000000000000000000000000000000000 SWAP2 PUSH32 0x455243313936373A206E657720626561636F6E206973206E6F74206120636F6E PUSH1 0x0 DUP3 ADD MSTORE ADD MSTORE JUMP JUMPDEST PUSH2 0xCEC PUSH1 0x25 PUSH1 0x40 SWAP3 PUSH2 0xB5C JUMP JUMPDEST PUSH2 0xCF5 DUP2 PUSH2 0xC91 JUMP JUMPDEST ADD SWAP1 JUMP JUMPDEST PUSH2 0xD0F SWAP1 PUSH1 0x20 DUP2 ADD SWAP1 PUSH1 0x0 DUP2 DUP4 SUB SWAP2 ADD MSTORE PUSH2 0xCDF JUMP JUMPDEST SWAP1 JUMP JUMPDEST ISZERO PUSH2 0xD19 JUMPI JUMP JUMPDEST PUSH2 0xD21 PUSH2 0x1C7 JUMP JUMPDEST PUSH3 0x461BCD PUSH1 0xE5 SHL DUP2 MSTORE DUP1 PUSH2 0xD37 PUSH1 0x4 DUP3 ADD PUSH2 0xCF9 JUMP JUMPDEST SUB SWAP1 REVERT JUMPDEST PUSH1 0x20 PUSH32 0x73206E6F74206120636F6E747261637400000000000000000000000000000000 SWAP2 PUSH32 0x455243313936373A20626561636F6E20696D706C656D656E746174696F6E2069 PUSH1 0x0 DUP3 ADD MSTORE ADD MSTORE JUMP JUMPDEST PUSH2 0xD96 PUSH1 0x30 PUSH1 0x40 SWAP3 PUSH2 0xB5C JUMP JUMPDEST PUSH2 0xD9F DUP2 PUSH2 0xD3B JUMP JUMPDEST ADD SWAP1 JUMP JUMPDEST PUSH2 0xDB9 SWAP1 PUSH1 0x20 DUP2 ADD SWAP1 PUSH1 0x0 DUP2 DUP4 SUB SWAP2 ADD MSTORE PUSH2 0xD89 JUMP JUMPDEST SWAP1 JUMP JUMPDEST ISZERO PUSH2 0xDC3 JUMPI JUMP JUMPDEST PUSH2 0xDCB PUSH2 0x1C7 JUMP JUMPDEST PUSH3 0x461BCD PUSH1 0xE5 SHL DUP2 MSTORE DUP1 PUSH2 0xDE1 PUSH1 0x4 DUP3 ADD PUSH2 0xDA3 JUMP JUMPDEST SUB SWAP1 REVERT JUMPDEST SWAP1 JUMP JUMPDEST PUSH2 0xDFC PUSH2 0xDF7 PUSH2 0xE01 SWAP3 PUSH2 0xDE5 JUMP JUMPDEST PUSH2 0xFE JUMP JUMPDEST PUSH2 0xFB JUMP JUMPDEST SWAP1 JUMP JUMPDEST PUSH2 0xE2D PUSH32 0xA3F0AD74E5423AEBFD80D3EF4346578335A9A72AEAEE59FF6CB3582B35133D50 PUSH2 0xDE8 JUMP JUMPDEST SWAP1 JUMP JUMPDEST PUSH2 0xE6E SWAP1 PUSH2 0xE45 PUSH2 0xE40 DUP3 PUSH2 0x107F JUMP JUMPDEST PUSH2 0xD12 JUMP JUMPDEST PUSH1 0x20 PUSH2 0xE58 PUSH2 0xE53 DUP4 PUSH2 0x91B JUMP JUMPDEST PUSH2 0x927 JUMP JUMPDEST PUSH4 0x5C60DA1B SWAP1 PUSH2 0xE66 PUSH2 0x1C7 JUMP JUMPDEST SWAP5 DUP6 SWAP3 PUSH2 0x933 JUMP JUMPDEST DUP3 MSTORE DUP2 DUP1 PUSH2 0xE7E PUSH1 0x4 DUP3 ADD PUSH2 0x65 JUMP JUMPDEST SUB SWAP2 GAS STATICCALL DUP1 ISZERO PUSH2 0xEEE JUMPI PUSH2 0xEA1 PUSH2 0xEA6 SWAP2 PUSH2 0xEBE SWAP5 PUSH1 0x0 SWAP2 PUSH2 0xEC0 JUMPI JUMPDEST POP PUSH2 0x107F JUMP JUMPDEST PUSH2 0xDBC JUMP JUMPDEST PUSH1 0x0 PUSH2 0xEB8 PUSH2 0xEB3 PUSH2 0xE04 JUMP JUMPDEST PUSH2 0x5A2 JUMP JUMPDEST ADD PUSH2 0xC2D JUMP JUMPDEST JUMP JUMPDEST PUSH2 0xEE1 SWAP2 POP PUSH1 0x20 RETURNDATASIZE DUP2 GT PUSH2 0xEE7 JUMPI JUMPDEST PUSH2 0xED9 DUP2 DUP4 PUSH2 0x263 JUMP JUMPDEST DUP2 ADD SWAP1 PUSH2 0x95D JUMP JUMPDEST CODESIZE PUSH2 0xE9B JUMP JUMPDEST POP RETURNDATASIZE PUSH2 0xECF JUMP JUMPDEST PUSH2 0x97C JUMP JUMPDEST PUSH1 0x20 PUSH32 0x206661696C656400000000000000000000000000000000000000000000000000 SWAP2 PUSH32 0x416464726573733A206C6F772D6C6576656C2064656C65676174652063616C6C PUSH1 0x0 DUP3 ADD MSTORE ADD MSTORE JUMP JUMPDEST PUSH2 0xF4B PUSH1 0x27 PUSH2 0x3D2 JUMP JUMPDEST SWAP1 PUSH2 0xF58 PUSH1 0x20 DUP4 ADD PUSH2 0xEF3 JUMP JUMPDEST JUMP JUMPDEST PUSH2 0xF62 PUSH2 0xF41 JUMP JUMPDEST SWAP1 JUMP JUMPDEST SWAP1 PUSH2 0xF82 SWAP2 PUSH2 0xF72 PUSH2 0x54 JUMP JUMPDEST POP SWAP1 PUSH2 0xF7C PUSH2 0xF5A JUMP JUMPDEST SWAP2 PUSH2 0x10E2 JUMP JUMPDEST SWAP1 JUMP JUMPDEST PUSH2 0xF8D PUSH2 0xF3 JUMP JUMPDEST POP PUSH2 0xF96 PUSH2 0x1160 JUMP JUMPDEST SWAP1 JUMP JUMPDEST PUSH2 0xFA1 PUSH2 0xF3 JUMP JUMPDEST POP PUSH2 0xFD5 PUSH1 0x20 PUSH2 0xFBF PUSH2 0xFBA PUSH2 0xFB5 PUSH2 0x1187 JUMP JUMPDEST PUSH2 0x91B JUMP JUMPDEST PUSH2 0x927 JUMP JUMPDEST PUSH4 0x5C60DA1B SWAP1 PUSH2 0xFCD PUSH2 0x1C7 JUMP JUMPDEST SWAP4 DUP5 SWAP3 PUSH2 0x933 JUMP JUMPDEST DUP3 MSTORE DUP2 DUP1 PUSH2 0xFE5 PUSH1 0x4 DUP3 ADD PUSH2 0x65 JUMP JUMPDEST SUB SWAP2 GAS STATICCALL SWAP1 DUP2 ISZERO PUSH2 0x102A JUMPI PUSH1 0x0 SWAP2 PUSH2 0xFFC JUMPI JUMPDEST POP SWAP1 JUMP JUMPDEST PUSH2 0x101D SWAP2 POP PUSH1 0x20 RETURNDATASIZE DUP2 GT PUSH2 0x1023 JUMPI JUMPDEST PUSH2 0x1015 DUP2 DUP4 PUSH2 0x263 JUMP JUMPDEST DUP2 ADD SWAP1 PUSH2 0x95D JUMP JUMPDEST CODESIZE PUSH2 0xFF8 JUMP JUMPDEST POP RETURNDATASIZE PUSH2 0x100B JUMP JUMPDEST PUSH2 0x97C JUMP JUMPDEST PUSH2 0x1038 DUP2 PUSH2 0x1258 JUMP JUMPDEST PUSH2 0x1062 PUSH32 0xBC7CD75A20EE27FD9ADEBAB32041F755214DBC6BFFA90CC0225B39DA2E5C2D3B SWAP2 PUSH2 0x8FF JUMP JUMPDEST SWAP1 PUSH2 0x106B PUSH2 0x1C7 JUMP JUMPDEST DUP1 PUSH2 0x1075 DUP2 PUSH2 0x65 JUMP JUMPDEST SUB SWAP1 LOG2 JUMP JUMPDEST PUSH1 0x0 SWAP1 JUMP JUMPDEST PUSH2 0x1087 PUSH2 0x107A JUMP JUMPDEST POP EXTCODESIZE PUSH2 0x109C PUSH2 0x1096 PUSH1 0x0 PUSH2 0x5A5 JUMP JUMPDEST SWAP2 PUSH2 0x1A8 JUMP JUMPDEST GT SWAP1 JUMP JUMPDEST SWAP1 PUSH2 0x10B2 PUSH2 0x10AD DUP4 PUSH2 0x2A1 JUMP JUMPDEST PUSH2 0x28C JUMP JUMPDEST SWAP2 DUP3 MSTORE JUMP JUMPDEST RETURNDATASIZE PUSH1 0x0 EQ PUSH2 0x10D4 JUMPI PUSH2 0x10C8 RETURNDATASIZE PUSH2 0x10A0 JUMP JUMPDEST SWAP1 RETURNDATASIZE PUSH1 0x0 PUSH1 0x20 DUP5 ADD RETURNDATACOPY JUMPDEST JUMP JUMPDEST PUSH2 0x10DC PUSH2 0x54 JUMP JUMPDEST SWAP1 PUSH2 0x10D2 JUMP JUMPDEST SWAP1 SWAP2 PUSH1 0x0 DUP1 PUSH2 0x1112 SWAP5 PUSH2 0x10F3 PUSH2 0x54 JUMP JUMPDEST POP DUP5 SWAP1 PUSH1 0x20 DUP2 ADD SWAP1 MLOAD SWAP2 GAS DELEGATECALL SWAP2 PUSH2 0x1108 PUSH2 0x10B7 JUMP JUMPDEST SWAP1 SWAP3 SWAP1 SWAP2 SWAP3 PUSH2 0x130B JUMP JUMPDEST SWAP1 JUMP JUMPDEST SWAP1 JUMP JUMPDEST PUSH2 0x112C PUSH2 0x1127 PUSH2 0x1131 SWAP3 PUSH2 0x1115 JUMP JUMPDEST PUSH2 0xFE JUMP JUMPDEST PUSH2 0xFB JUMP JUMPDEST SWAP1 JUMP JUMPDEST PUSH2 0x115D PUSH32 0x360894A13BA1A3210667C828492DB98DCA3E2076CC3735A920A3CA505D382BBC PUSH2 0x1118 JUMP JUMPDEST SWAP1 JUMP JUMPDEST PUSH2 0x1168 PUSH2 0xF3 JUMP JUMPDEST POP PUSH2 0x1184 PUSH1 0x0 PUSH2 0x117E PUSH2 0x1179 PUSH2 0x1134 JUMP JUMPDEST PUSH2 0x5A2 JUMP JUMPDEST ADD PUSH2 0x171 JUMP JUMPDEST SWAP1 JUMP JUMPDEST PUSH2 0x118F PUSH2 0xF3 JUMP JUMPDEST POP PUSH2 0x11AB PUSH1 0x0 PUSH2 0x11A5 PUSH2 0x11A0 PUSH2 0xE04 JUMP JUMPDEST PUSH2 0x5A2 JUMP JUMPDEST ADD PUSH2 0x171 JUMP JUMPDEST SWAP1 JUMP JUMPDEST PUSH1 0x20 PUSH32 0x6F74206120636F6E747261637400000000000000000000000000000000000000 SWAP2 PUSH32 0x455243313936373A206E657720696D706C656D656E746174696F6E206973206E PUSH1 0x0 DUP3 ADD MSTORE ADD MSTORE JUMP JUMPDEST PUSH2 0x1209 PUSH1 0x2D PUSH1 0x40 SWAP3 PUSH2 0xB5C JUMP JUMPDEST PUSH2 0x1212 DUP2 PUSH2 0x11AE JUMP JUMPDEST ADD SWAP1 JUMP JUMPDEST PUSH2 0x122C SWAP1 PUSH1 0x20 DUP2 ADD SWAP1 PUSH1 0x0 DUP2 DUP4 SUB SWAP2 ADD MSTORE PUSH2 0x11FC JUMP JUMPDEST SWAP1 JUMP JUMPDEST ISZERO PUSH2 0x1236 JUMPI JUMP JUMPDEST PUSH2 0x123E PUSH2 0x1C7 JUMP JUMPDEST PUSH3 0x461BCD PUSH1 0xE5 SHL DUP2 MSTORE DUP1 PUSH2 0x1254 PUSH1 0x4 DUP3 ADD PUSH2 0x1216 JUMP JUMPDEST SUB SWAP1 REVERT JUMPDEST PUSH2 0x1285 SWAP1 PUSH2 0x126D PUSH2 0x1268 DUP3 PUSH2 0x107F JUMP JUMPDEST PUSH2 0x122F JUMP JUMPDEST PUSH1 0x0 PUSH2 0x127F PUSH2 0x127A PUSH2 0x1134 JUMP JUMPDEST PUSH2 0x5A2 JUMP JUMPDEST ADD PUSH2 0xC2D JUMP JUMPDEST JUMP JUMPDEST PUSH1 0x0 PUSH32 0x416464726573733A2063616C6C20746F206E6F6E2D636F6E7472616374000000 SWAP2 ADD MSTORE JUMP JUMPDEST PUSH2 0x12BC PUSH1 0x1D PUSH1 0x20 SWAP3 PUSH2 0xB5C JUMP JUMPDEST PUSH2 0x12C5 DUP2 PUSH2 0x1287 JUMP JUMPDEST ADD SWAP1 JUMP JUMPDEST PUSH2 0x12DF SWAP1 PUSH1 0x20 DUP2 ADD SWAP1 PUSH1 0x0 DUP2 DUP4 SUB SWAP2 ADD MSTORE PUSH2 0x12AF JUMP JUMPDEST SWAP1 JUMP JUMPDEST ISZERO PUSH2 0x12E9 JUMPI JUMP JUMPDEST PUSH2 0x12F1 PUSH2 0x1C7 JUMP JUMPDEST PUSH3 0x461BCD PUSH1 0xE5 SHL DUP2 MSTORE DUP1 PUSH2 0x1307 PUSH1 0x4 DUP3 ADD PUSH2 0x12C9 JUMP JUMPDEST SUB SWAP1 REVERT JUMPDEST SWAP2 SWAP3 SWAP1 PUSH2 0x1316 PUSH2 0x54 JUMP JUMPDEST POP PUSH1 0x0 EQ PUSH2 0x135C JUMPI POP PUSH2 0x1328 DUP3 PUSH2 0x90B JUMP JUMPDEST PUSH2 0x133B PUSH2 0x1335 PUSH1 0x0 PUSH2 0x5A5 JUMP JUMPDEST SWAP2 PUSH2 0x1A8 JUMP JUMPDEST EQ PUSH2 0x1345 JUMPI JUMPDEST POP SWAP1 JUMP JUMPDEST PUSH2 0x1351 PUSH2 0x1356 SWAP2 PUSH2 0x107F JUMP JUMPDEST PUSH2 0x12E2 JUMP JUMPDEST CODESIZE PUSH2 0x1341 JUMP JUMPDEST DUP3 PUSH2 0x13D5 JUMP JUMPDEST MLOAD SWAP1 JUMP JUMPDEST PUSH1 0x0 JUMPDEST DUP4 DUP2 LT PUSH2 0x137A JUMPI POP POP SWAP1 PUSH1 0x0 SWAP2 ADD MSTORE JUMP JUMPDEST DUP1 PUSH1 0x20 SWAP2 DUP4 ADD MLOAD DUP2 DUP6 ADD MSTORE ADD PUSH2 0x1369 JUMP JUMPDEST PUSH2 0x13AA PUSH2 0x13B3 PUSH1 0x20 SWAP4 PUSH2 0x13B8 SWAP4 PUSH2 0x13A1 DUP2 PUSH2 0x1362 JUMP JUMPDEST SWAP4 DUP5 DUP1 SWAP4 PUSH2 0xB5C JUMP JUMPDEST SWAP6 DUP7 SWAP2 ADD PUSH2 0x1366 JUMP JUMPDEST PUSH2 0x243 JUMP JUMPDEST ADD SWAP1 JUMP JUMPDEST PUSH2 0x13D2 SWAP2 PUSH1 0x20 DUP3 ADD SWAP2 PUSH1 0x0 DUP2 DUP5 SUB SWAP2 ADD MSTORE PUSH2 0x138B JUMP JUMPDEST SWAP1 JUMP JUMPDEST SWAP1 PUSH2 0x13DF DUP3 PUSH2 0x90B JUMP JUMPDEST PUSH2 0x13F2 PUSH2 0x13EC PUSH1 0x0 PUSH2 0x5A5 JUMP JUMPDEST SWAP2 PUSH2 0x1A8 JUMP JUMPDEST GT PUSH1 0x0 EQ PUSH2 0x1403 JUMPI POP DUP1 MLOAD SWAP1 PUSH1 0x20 ADD REVERT JUMPDEST PUSH2 0x1424 SWAP1 PUSH2 0x140F PUSH2 0x1C7 JUMP JUMPDEST SWAP2 DUP3 SWAP2 PUSH3 0x461BCD PUSH1 0xE5 SHL DUP4 MSTORE PUSH1 0x4 DUP4 ADD PUSH2 0x13BC JUMP JUMPDEST SUB SWAP1 REVERT INVALID LOG2 PUSH5 0x6970667358 0x22 SLT KECCAK256 0xFB XOR SWAP10 0xE6 0x1F CODESIZE STATICCALL 0xA7 DUP12 0xFB 0xAB PUSH26 0xB8DC2FA613357C2FCE2699411F9FEE80B624365564736F6C6343 STOP ADDMOD SHL STOP CALLER LOG2 PUSH5 0x6970667358 0x22 SLT KECCAK256 0xCD PUSH5 0x6062CB4172 SWAP3 0xF6 0xD2 DUP10 DUP15 GAS 0xDA 0xF 0xE1 0x4E PUSH25 0xD8B561E44329E18B3E3630EDC17D64736F6C634300081B0033 PUSH1 0xC0 PUSH1 0x40 MSTORE CALLVALUE PUSH2 0x39 JUMPI PUSH2 0x11 PUSH2 0x49 JUMP JUMPDEST PUSH2 0x19 PUSH2 0x3E JUMP JUMPDEST PUSH2 0x37BA PUSH2 0x426 DUP3 CODECOPY PUSH1 0x80 MLOAD DUP2 PUSH2 0x2A1C ADD MSTORE PUSH1 0xA0 MLOAD DUP2 PUSH2 0x1754 ADD MSTORE PUSH2 0x37BA SWAP1 RETURN JUMPDEST PUSH2 0x44 JUMP JUMPDEST PUSH1 0x40 MLOAD SWAP1 JUMP JUMPDEST PUSH1 0x0 DUP1 REVERT JUMPDEST PUSH2 0x51 PUSH2 0x57 JUMP JUMPDEST CALLER PUSH1 0xA0 MSTORE JUMP JUMPDEST PUSH2 0x5F PUSH2 0x61 JUMP JUMPDEST JUMP JUMPDEST PUSH2 0x69 PUSH2 0x6B JUMP JUMPDEST JUMP JUMPDEST PUSH2 0x73 PUSH2 0x121 JUMP JUMPDEST JUMP JUMPDEST PUSH1 0x1F DUP1 NOT SWAP2 ADD AND SWAP1 JUMP JUMPDEST PUSH4 0x4E487B71 PUSH1 0xE0 SHL PUSH1 0x0 MSTORE PUSH1 0x41 PUSH1 0x4 MSTORE PUSH1 0x24 PUSH1 0x0 REVERT JUMPDEST SWAP1 PUSH2 0x9F SWAP1 PUSH2 0x75 JUMP JUMPDEST DUP2 ADD SWAP1 DUP2 LT PUSH1 0x1 DUP1 PUSH1 0x40 SHL SUB DUP3 GT OR PUSH2 0xB7 JUMPI PUSH1 0x40 MSTORE JUMP JUMPDEST PUSH2 0x7F JUMP JUMPDEST SWAP1 PUSH2 0xCF PUSH2 0xC8 PUSH2 0x3E JUMP JUMPDEST SWAP3 DUP4 PUSH2 0x95 JUMP JUMPDEST JUMP JUMPDEST PUSH1 0x1 DUP1 PUSH1 0x40 SHL SUB DUP2 GT PUSH2 0xED JUMPI PUSH2 0xE9 PUSH1 0x20 SWAP2 PUSH2 0x75 JUMP JUMPDEST ADD SWAP1 JUMP JUMPDEST PUSH2 0x7F JUMP JUMPDEST SWAP1 PUSH2 0x104 PUSH2 0xFF DUP4 PUSH2 0xD1 JUMP JUMPDEST PUSH2 0xBC JUMP JUMPDEST SWAP2 DUP3 MSTORE JUMP JUMPDEST PUSH2 0x113 PUSH1 0x0 PUSH2 0xF2 JUMP JUMPDEST SWAP1 JUMP JUMPDEST PUSH2 0x11E PUSH2 0x109 JUMP JUMPDEST SWAP1 JUMP JUMPDEST PUSH2 0x13A PUSH2 0x12C PUSH2 0x116 JUMP JUMPDEST PUSH2 0x134 PUSH2 0x116 JUMP JUMPDEST SWAP1 PUSH2 0x140 JUMP JUMPDEST CALLER PUSH1 0x80 MSTORE JUMP JUMPDEST SWAP1 PUSH2 0x14A SWAP2 PUSH2 0x14C JUMP JUMPDEST JUMP JUMPDEST SWAP1 PUSH2 0x156 SWAP2 PUSH2 0x158 JUMP JUMPDEST JUMP JUMPDEST SWAP1 PUSH2 0x162 SWAP2 PUSH2 0x164 JUMP JUMPDEST JUMP JUMPDEST SWAP1 PUSH2 0x16E SWAP2 PUSH2 0x170 JUMP JUMPDEST JUMP JUMPDEST SWAP1 PUSH2 0x17A SWAP2 PUSH2 0x17C JUMP JUMPDEST JUMP JUMPDEST SWAP1 PUSH2 0x186 SWAP2 PUSH2 0x188 JUMP JUMPDEST JUMP JUMPDEST SWAP1 PUSH2 0x192 SWAP2 PUSH2 0x194 JUMP JUMPDEST JUMP JUMPDEST SWAP1 PUSH2 0x19E SWAP2 PUSH2 0x1A0 JUMP JUMPDEST JUMP JUMPDEST SWAP1 PUSH2 0x1AA SWAP2 PUSH2 0x40D JUMP JUMPDEST JUMP JUMPDEST MLOAD SWAP1 JUMP JUMPDEST PUSH4 0x4E487B71 PUSH1 0xE0 SHL PUSH1 0x0 MSTORE PUSH1 0x22 PUSH1 0x4 MSTORE PUSH1 0x24 PUSH1 0x0 REVERT JUMPDEST SWAP1 PUSH1 0x1 PUSH1 0x2 DUP4 DIV SWAP3 AND DUP1 ISZERO PUSH2 0x1E6 JUMPI JUMPDEST PUSH1 0x20 DUP4 LT EQ PUSH2 0x1E1 JUMPI JUMP JUMPDEST PUSH2 0x1B0 JUMP JUMPDEST SWAP2 PUSH1 0x7F AND SWAP2 PUSH2 0x1D6 JUMP JUMPDEST PUSH1 0x0 MSTORE PUSH1 0x20 PUSH1 0x0 KECCAK256 SWAP1 JUMP JUMPDEST PUSH1 0x1F PUSH1 0x20 SWAP2 ADD DIV SWAP1 JUMP JUMPDEST SHL SWAP1 JUMP JUMPDEST SWAP2 SWAP1 PUSH1 0x8 PUSH2 0x225 SWAP2 MUL SWAP2 PUSH2 0x21F PUSH1 0x0 NOT DUP5 PUSH2 0x205 JUMP JUMPDEST SWAP3 PUSH2 0x205 JUMP JUMPDEST SWAP2 DUP2 NOT AND SWAP2 AND OR SWAP1 JUMP JUMPDEST SWAP1 JUMP JUMPDEST SWAP1 JUMP JUMPDEST PUSH2 0x249 PUSH2 0x244 PUSH2 0x24E SWAP3 PUSH2 0x22F JUMP JUMPDEST PUSH2 0x232 JUMP JUMPDEST PUSH2 0x22F JUMP JUMPDEST SWAP1 JUMP JUMPDEST SWAP1 JUMP JUMPDEST SWAP2 SWAP1 PUSH2 0x26A PUSH2 0x265 PUSH2 0x272 SWAP4 PUSH2 0x235 JUMP JUMPDEST PUSH2 0x251 JUMP JUMPDEST SWAP1 DUP4 SLOAD PUSH2 0x209 JUMP JUMPDEST SWAP1 SSTORE JUMP JUMPDEST PUSH1 0x0 SWAP1 JUMP JUMPDEST PUSH2 0x28D SWAP2 PUSH2 0x287 PUSH2 0x276 JUMP JUMPDEST SWAP2 PUSH2 0x254 JUMP JUMPDEST JUMP JUMPDEST JUMPDEST DUP2 DUP2 LT PUSH2 0x29B JUMPI POP POP JUMP JUMPDEST DUP1 PUSH2 0x2A9 PUSH1 0x0 PUSH1 0x1 SWAP4 PUSH2 0x27B JUMP JUMPDEST ADD PUSH2 0x290 JUMP JUMPDEST SWAP2 SWAP1 PUSH1 0x1F DUP2 GT PUSH2 0x2BF JUMPI JUMPDEST POP POP POP JUMP JUMPDEST PUSH2 0x2CB PUSH2 0x2F0 SWAP4 PUSH2 0x1F0 JUMP JUMPDEST SWAP1 PUSH1 0x20 PUSH2 0x2D7 DUP5 PUSH2 0x1FB JUMP JUMPDEST DUP4 ADD SWAP4 LT PUSH2 0x2F8 JUMPI JUMPDEST PUSH2 0x2E9 SWAP1 PUSH2 0x1FB JUMP JUMPDEST ADD SWAP1 PUSH2 0x28F JUMP JUMPDEST CODESIZE DUP1 DUP1 PUSH2 0x2BA JUMP JUMPDEST SWAP2 POP PUSH2 0x2E9 DUP2 SWAP3 SWAP1 POP PUSH2 0x2E0 JUMP JUMPDEST SHR SWAP1 JUMP JUMPDEST SWAP1 PUSH2 0x31B SWAP1 PUSH1 0x0 NOT SWAP1 PUSH1 0x8 MUL PUSH2 0x306 JUMP JUMPDEST NOT AND SWAP1 JUMP JUMPDEST DUP2 PUSH2 0x32A SWAP2 PUSH2 0x30A JUMP JUMPDEST SWAP1 PUSH1 0x2 MUL OR SWAP1 JUMP JUMPDEST SWAP1 PUSH2 0x33C DUP2 PUSH2 0x1AC JUMP JUMPDEST SWAP1 PUSH1 0x1 DUP1 PUSH1 0x40 SHL SUB DUP3 GT PUSH2 0x3FC JUMPI PUSH2 0x35E DUP3 PUSH2 0x358 DUP6 SLOAD PUSH2 0x1C6 JUMP JUMPDEST DUP6 PUSH2 0x2AF JUMP JUMPDEST PUSH1 0x20 SWAP1 PUSH1 0x1F DUP4 GT PUSH1 0x1 EQ PUSH2 0x393 JUMPI SWAP2 DUP1 SWAP2 PUSH2 0x382 SWAP4 PUSH1 0x0 SWAP3 PUSH2 0x387 JUMPI JUMPDEST POP POP PUSH2 0x320 JUMP JUMPDEST SWAP1 SSTORE JUMPDEST JUMP JUMPDEST SWAP1 SWAP2 POP ADD MLOAD CODESIZE DUP1 PUSH2 0x37B JUMP JUMPDEST PUSH1 0x1F NOT DUP4 AND SWAP2 PUSH2 0x3A2 DUP6 PUSH2 0x1F0 JUMP JUMPDEST SWAP3 PUSH1 0x0 JUMPDEST DUP2 DUP2 LT PUSH2 0x3E4 JUMPI POP SWAP2 PUSH1 0x2 SWAP4 SWAP2 DUP6 PUSH1 0x1 SWAP7 SWAP5 LT PUSH2 0x3CA JUMPI JUMPDEST POP POP POP MUL ADD SWAP1 SSTORE PUSH2 0x385 JUMP JUMPDEST PUSH2 0x3DA SWAP2 ADD MLOAD PUSH1 0x1F DUP5 AND SWAP1 PUSH2 0x30A JUMP JUMPDEST SWAP1 SSTORE CODESIZE DUP1 DUP1 PUSH2 0x3BE JUMP JUMPDEST SWAP2 SWAP4 PUSH1 0x20 PUSH1 0x1 DUP2 SWAP3 DUP8 DUP8 ADD MLOAD DUP2 SSTORE ADD SWAP6 ADD SWAP3 ADD PUSH2 0x3A6 JUMP JUMPDEST PUSH2 0x7F JUMP JUMPDEST SWAP1 PUSH2 0x40B SWAP2 PUSH2 0x332 JUMP JUMPDEST JUMP JUMPDEST SWAP1 PUSH2 0x41C PUSH2 0x423 SWAP3 PUSH1 0x3 PUSH2 0x401 JUMP JUMPDEST PUSH1 0x4 PUSH2 0x401 JUMP JUMPDEST JUMP INVALID PUSH1 0x80 PUSH1 0x40 MSTORE PUSH1 0x4 CALLDATASIZE LT ISZERO PUSH2 0x13 JUMPI JUMPDEST PUSH2 0xDCF JUMP JUMPDEST PUSH2 0x1E PUSH1 0x0 CALLDATALOAD PUSH2 0x1CD JUMP JUMPDEST DUP1 PUSH4 0x1FFC9A7 EQ PUSH2 0x1C8 JUMPI DUP1 PUSH4 0x6FDDE03 EQ PUSH2 0x1C3 JUMPI DUP1 PUSH4 0x95EA7B3 EQ PUSH2 0x1BE JUMPI DUP1 PUSH4 0xBB310DE EQ PUSH2 0x1B9 JUMPI DUP1 PUSH4 0x18160DDD EQ PUSH2 0x1B4 JUMPI DUP1 PUSH4 0x23B872DD EQ PUSH2 0x1AF JUMPI DUP1 PUSH4 0x248A9CA3 EQ PUSH2 0x1AA JUMPI DUP1 PUSH4 0x2F2FF15D EQ PUSH2 0x1A5 JUMPI DUP1 PUSH4 0x313CE567 EQ PUSH2 0x1A0 JUMPI DUP1 PUSH4 0x36568ABE EQ PUSH2 0x19B JUMPI DUP1 PUSH4 0x39509351 EQ PUSH2 0x196 JUMPI DUP1 PUSH4 0x40C10F19 EQ PUSH2 0x191 JUMPI DUP1 PUSH4 0x42966C68 EQ PUSH2 0x18C JUMPI DUP1 PUSH4 0x5A446215 EQ PUSH2 0x187 JUMPI DUP1 PUSH4 0x70A08231 EQ PUSH2 0x182 JUMPI DUP1 PUSH4 0x9010D07C EQ PUSH2 0x17D JUMPI DUP1 PUSH4 0x91D14854 EQ PUSH2 0x178 JUMPI DUP1 PUSH4 0x95D89B41 EQ PUSH2 0x173 JUMPI DUP1 PUSH4 0x9C14F298 EQ PUSH2 0x16E JUMPI DUP1 PUSH4 0x9D043A66 EQ PUSH2 0x169 JUMPI DUP1 PUSH4 0xA217FDDF EQ PUSH2 0x164 JUMPI DUP1 PUSH4 0xA457C2D7 EQ PUSH2 0x15F JUMPI DUP1 PUSH4 0xA9059CBB EQ PUSH2 0x15A JUMPI DUP1 PUSH4 0xCA15C873 EQ PUSH2 0x155 JUMPI DUP1 PUSH4 0xD547741F EQ PUSH2 0x150 JUMPI DUP1 PUSH4 0xDD62ED3E EQ PUSH2 0x14B JUMPI PUSH4 0xED4C2AC7 SUB PUSH2 0xE JUMPI PUSH2 0xD9C JUMP JUMPDEST PUSH2 0xD66 JUMP JUMPDEST PUSH2 0xD04 JUMP JUMPDEST PUSH2 0xCCF JUMP JUMPDEST PUSH2 0xC99 JUMP JUMPDEST PUSH2 0xC63 JUMP JUMPDEST PUSH2 0xC2E JUMP JUMPDEST PUSH2 0xBBB JUMP JUMPDEST PUSH2 0xAEC JUMP JUMPDEST PUSH2 0x9FE JUMP JUMPDEST PUSH2 0x9C8 JUMP JUMPDEST PUSH2 0x992 JUMP JUMPDEST PUSH2 0x90C JUMP JUMPDEST PUSH2 0x8D8 JUMP JUMPDEST PUSH2 0x761 JUMP JUMPDEST PUSH2 0x70E JUMP JUMPDEST PUSH2 0x6D8 JUMP JUMPDEST PUSH2 0x6A4 JUMP JUMPDEST PUSH2 0x66F JUMP JUMPDEST PUSH2 0x612 JUMP JUMPDEST PUSH2 0x5AF JUMP JUMPDEST PUSH2 0x510 JUMP JUMPDEST PUSH2 0x4A0 JUMP JUMPDEST PUSH2 0x44A JUMP JUMPDEST PUSH2 0x3EF JUMP JUMPDEST PUSH2 0x32A JUMP JUMPDEST PUSH2 0x25F JUMP JUMPDEST PUSH1 0xE0 SHR SWAP1 JUMP JUMPDEST PUSH1 0x40 MLOAD SWAP1 JUMP JUMPDEST PUSH1 0x0 DUP1 REVERT JUMPDEST PUSH1 0x0 DUP1 REVERT JUMPDEST PUSH1 0x0 DUP1 REVERT JUMPDEST PUSH4 0xFFFFFFFF PUSH1 0xE0 SHL AND SWAP1 JUMP JUMPDEST PUSH2 0x1FD DUP2 PUSH2 0x1E8 JUMP JUMPDEST SUB PUSH2 0x204 JUMPI JUMP JUMPDEST PUSH1 0x0 DUP1 REVERT JUMPDEST SWAP1 POP CALLDATALOAD SWAP1 PUSH2 0x216 DUP3 PUSH2 0x1F4 JUMP JUMPDEST JUMP JUMPDEST SWAP1 PUSH1 0x20 DUP3 DUP3 SUB SLT PUSH2 0x232 JUMPI PUSH2 0x22F SWAP2 PUSH1 0x0 ADD PUSH2 0x209 JUMP JUMPDEST SWAP1 JUMP JUMPDEST PUSH2 0x1DE JUMP JUMPDEST ISZERO ISZERO SWAP1 JUMP JUMPDEST PUSH2 0x245 SWAP1 PUSH2 0x237 JUMP JUMPDEST SWAP1 MSTORE JUMP JUMPDEST SWAP2 SWAP1 PUSH2 0x25D SWAP1 PUSH1 0x0 PUSH1 0x20 DUP6 ADD SWAP5 ADD SWAP1 PUSH2 0x23C JUMP JUMPDEST JUMP JUMPDEST CALLVALUE PUSH2 0x28F JUMPI PUSH2 0x28B PUSH2 0x27A PUSH2 0x275 CALLDATASIZE PUSH1 0x4 PUSH2 0x218 JUMP JUMPDEST PUSH2 0xDD9 JUMP JUMPDEST PUSH2 0x282 PUSH2 0x1D3 JUMP JUMPDEST SWAP2 DUP3 SWAP2 DUP3 PUSH2 0x249 JUMP JUMPDEST SUB SWAP1 RETURN JUMPDEST PUSH2 0x1D9 JUMP JUMPDEST PUSH1 0x0 SWAP2 SUB SLT PUSH2 0x29F JUMPI JUMP JUMPDEST PUSH2 0x1DE JUMP JUMPDEST MLOAD SWAP1 JUMP JUMPDEST PUSH1 0x20 SWAP2 DUP2 MSTORE ADD SWAP1 JUMP JUMPDEST PUSH1 0x0 JUMPDEST DUP4 DUP2 LT PUSH2 0x2C5 JUMPI POP POP SWAP1 PUSH1 0x0 SWAP2 ADD MSTORE JUMP JUMPDEST DUP1 PUSH1 0x20 SWAP2 DUP4 ADD MLOAD DUP2 DUP6 ADD MSTORE ADD PUSH2 0x2B4 JUMP JUMPDEST PUSH1 0x1F DUP1 NOT SWAP2 ADD AND SWAP1 JUMP JUMPDEST PUSH2 0x2FF PUSH2 0x308 PUSH1 0x20 SWAP4 PUSH2 0x30D SWAP4 PUSH2 0x2F6 DUP2 PUSH2 0x2A4 JUMP JUMPDEST SWAP4 DUP5 DUP1 SWAP4 PUSH2 0x2A8 JUMP JUMPDEST SWAP6 DUP7 SWAP2 ADD PUSH2 0x2B1 JUMP JUMPDEST PUSH2 0x2D6 JUMP JUMPDEST ADD SWAP1 JUMP JUMPDEST PUSH2 0x327 SWAP2 PUSH1 0x20 DUP3 ADD SWAP2 PUSH1 0x0 DUP2 DUP5 SUB SWAP2 ADD MSTORE PUSH2 0x2E0 JUMP JUMPDEST SWAP1 JUMP JUMPDEST CALLVALUE PUSH2 0x35A JUMPI PUSH2 0x33A CALLDATASIZE PUSH1 0x4 PUSH2 0x294 JUMP JUMPDEST PUSH2 0x356 PUSH2 0x345 PUSH2 0xF52 JUMP JUMPDEST PUSH2 0x34D PUSH2 0x1D3 JUMP JUMPDEST SWAP2 DUP3 SWAP2 DUP3 PUSH2 0x311 JUMP JUMPDEST SUB SWAP1 RETURN JUMPDEST PUSH2 0x1D9 JUMP JUMPDEST PUSH1 0x1 DUP1 PUSH1 0xA0 SHL SUB AND SWAP1 JUMP JUMPDEST PUSH2 0x373 SWAP1 PUSH2 0x35F JUMP JUMPDEST SWAP1 JUMP JUMPDEST PUSH2 0x37F DUP2 PUSH2 0x36A JUMP JUMPDEST SUB PUSH2 0x386 JUMPI JUMP JUMPDEST PUSH1 0x0 DUP1 REVERT JUMPDEST SWAP1 POP CALLDATALOAD SWAP1 PUSH2 0x398 DUP3 PUSH2 0x376 JUMP JUMPDEST JUMP JUMPDEST SWAP1 JUMP JUMPDEST PUSH2 0x3A6 DUP2 PUSH2 0x39A JUMP JUMPDEST SUB PUSH2 0x3AD JUMPI JUMP JUMPDEST PUSH1 0x0 DUP1 REVERT JUMPDEST SWAP1 POP CALLDATALOAD SWAP1 PUSH2 0x3BF DUP3 PUSH2 0x39D JUMP JUMPDEST JUMP JUMPDEST SWAP2 SWAP1 PUSH1 0x40 DUP4 DUP3 SUB SLT PUSH2 0x3EA JUMPI DUP1 PUSH2 0x3DE PUSH2 0x3E7 SWAP3 PUSH1 0x0 DUP7 ADD PUSH2 0x38B JUMP JUMPDEST SWAP4 PUSH1 0x20 ADD PUSH2 0x3B2 JUMP JUMPDEST SWAP1 JUMP JUMPDEST PUSH2 0x1DE JUMP JUMPDEST CALLVALUE PUSH2 0x420 JUMPI PUSH2 0x41C PUSH2 0x40B PUSH2 0x405 CALLDATASIZE PUSH1 0x4 PUSH2 0x3C1 JUMP JUMPDEST SWAP1 PUSH2 0xF68 JUMP JUMPDEST PUSH2 0x413 PUSH2 0x1D3 JUMP JUMPDEST SWAP2 DUP3 SWAP2 DUP3 PUSH2 0x249 JUMP JUMPDEST SUB SWAP1 RETURN JUMPDEST PUSH2 0x1D9 JUMP JUMPDEST SWAP1 PUSH1 0x20 DUP3 DUP3 SUB SLT PUSH2 0x43F JUMPI PUSH2 0x43C SWAP2 PUSH1 0x0 ADD PUSH2 0x38B JUMP JUMPDEST SWAP1 JUMP JUMPDEST PUSH2 0x1DE JUMP JUMPDEST PUSH1 0x0 ADD SWAP1 JUMP JUMPDEST CALLVALUE PUSH2 0x478 JUMPI PUSH2 0x462 PUSH2 0x45D CALLDATASIZE PUSH1 0x4 PUSH2 0x425 JUMP JUMPDEST PUSH2 0x105F JUMP JUMPDEST PUSH2 0x46A PUSH2 0x1D3 JUMP JUMPDEST DUP1 PUSH2 0x474 DUP2 PUSH2 0x444 JUMP JUMPDEST SUB SWAP1 RETURN JUMPDEST PUSH2 0x1D9 JUMP JUMPDEST PUSH2 0x486 SWAP1 PUSH2 0x39A JUMP JUMPDEST SWAP1 MSTORE JUMP JUMPDEST SWAP2 SWAP1 PUSH2 0x49E SWAP1 PUSH1 0x0 PUSH1 0x20 DUP6 ADD SWAP5 ADD SWAP1 PUSH2 0x47D JUMP JUMPDEST JUMP JUMPDEST CALLVALUE PUSH2 0x4D0 JUMPI PUSH2 0x4B0 CALLDATASIZE PUSH1 0x4 PUSH2 0x294 JUMP JUMPDEST PUSH2 0x4CC PUSH2 0x4BB PUSH2 0x1099 JUMP JUMPDEST PUSH2 0x4C3 PUSH2 0x1D3 JUMP JUMPDEST SWAP2 DUP3 SWAP2 DUP3 PUSH2 0x48A JUMP JUMPDEST SUB SWAP1 RETURN JUMPDEST PUSH2 0x1D9 JUMP JUMPDEST SWAP1 SWAP2 PUSH1 0x60 DUP3 DUP5 SUB SLT PUSH2 0x50B JUMPI PUSH2 0x508 PUSH2 0x4F1 DUP5 PUSH1 0x0 DUP6 ADD PUSH2 0x38B JUMP JUMPDEST SWAP4 PUSH2 0x4FF DUP2 PUSH1 0x20 DUP7 ADD PUSH2 0x38B JUMP JUMPDEST SWAP4 PUSH1 0x40 ADD PUSH2 0x3B2 JUMP JUMPDEST SWAP1 JUMP JUMPDEST PUSH2 0x1DE JUMP JUMPDEST CALLVALUE PUSH2 0x541 JUMPI PUSH2 0x53D PUSH2 0x52C PUSH2 0x526 CALLDATASIZE PUSH1 0x4 PUSH2 0x4D5 JUMP JUMPDEST SWAP2 PUSH2 0x10AF JUMP JUMPDEST PUSH2 0x534 PUSH2 0x1D3 JUMP JUMPDEST SWAP2 DUP3 SWAP2 DUP3 PUSH2 0x249 JUMP JUMPDEST SUB SWAP1 RETURN JUMPDEST PUSH2 0x1D9 JUMP JUMPDEST SWAP1 JUMP JUMPDEST PUSH2 0x552 DUP2 PUSH2 0x546 JUMP JUMPDEST SUB PUSH2 0x559 JUMPI JUMP JUMPDEST PUSH1 0x0 DUP1 REVERT JUMPDEST SWAP1 POP CALLDATALOAD SWAP1 PUSH2 0x56B DUP3 PUSH2 0x549 JUMP JUMPDEST JUMP JUMPDEST SWAP1 PUSH1 0x20 DUP3 DUP3 SUB SLT PUSH2 0x587 JUMPI PUSH2 0x584 SWAP2 PUSH1 0x0 ADD PUSH2 0x55E JUMP JUMPDEST SWAP1 JUMP JUMPDEST PUSH2 0x1DE JUMP JUMPDEST PUSH2 0x595 SWAP1 PUSH2 0x546 JUMP JUMPDEST SWAP1 MSTORE JUMP JUMPDEST SWAP2 SWAP1 PUSH2 0x5AD SWAP1 PUSH1 0x0 PUSH1 0x20 DUP6 ADD SWAP5 ADD SWAP1 PUSH2 0x58C JUMP JUMPDEST JUMP JUMPDEST CALLVALUE PUSH2 0x5DF JUMPI PUSH2 0x5DB PUSH2 0x5CA PUSH2 0x5C5 CALLDATASIZE PUSH1 0x4 PUSH2 0x56D JUMP JUMPDEST PUSH2 0x112B JUMP JUMPDEST PUSH2 0x5D2 PUSH2 0x1D3 JUMP JUMPDEST SWAP2 DUP3 SWAP2 DUP3 PUSH2 0x599 JUMP JUMPDEST SUB SWAP1 RETURN JUMPDEST PUSH2 0x1D9 JUMP JUMPDEST SWAP2 SWAP1 PUSH1 0x40 DUP4 DUP3 SUB SLT PUSH2 0x60D JUMPI DUP1 PUSH2 0x601 PUSH2 0x60A SWAP3 PUSH1 0x0 DUP7 ADD PUSH2 0x55E JUMP JUMPDEST SWAP4 PUSH1 0x20 ADD PUSH2 0x38B JUMP JUMPDEST SWAP1 JUMP JUMPDEST PUSH2 0x1DE JUMP JUMPDEST CALLVALUE PUSH2 0x641 JUMPI PUSH2 0x62B PUSH2 0x625 CALLDATASIZE PUSH1 0x4 PUSH2 0x5E4 JUMP JUMPDEST SWAP1 PUSH2 0x1176 JUMP JUMPDEST PUSH2 0x633 PUSH2 0x1D3 JUMP JUMPDEST DUP1 PUSH2 0x63D DUP2 PUSH2 0x444 JUMP JUMPDEST SUB SWAP1 RETURN JUMPDEST PUSH2 0x1D9 JUMP JUMPDEST PUSH1 0xFF AND SWAP1 JUMP JUMPDEST PUSH2 0x655 SWAP1 PUSH2 0x646 JUMP JUMPDEST SWAP1 MSTORE JUMP JUMPDEST SWAP2 SWAP1 PUSH2 0x66D SWAP1 PUSH1 0x0 PUSH1 0x20 DUP6 ADD SWAP5 ADD SWAP1 PUSH2 0x64C JUMP JUMPDEST JUMP JUMPDEST CALLVALUE PUSH2 0x69F JUMPI PUSH2 0x67F CALLDATASIZE PUSH1 0x4 PUSH2 0x294 JUMP JUMPDEST PUSH2 0x69B PUSH2 0x68A PUSH2 0x11AE JUMP JUMPDEST PUSH2 0x692 PUSH2 0x1D3 JUMP JUMPDEST SWAP2 DUP3 SWAP2 DUP3 PUSH2 0x659 JUMP JUMPDEST SUB SWAP1 RETURN JUMPDEST PUSH2 0x1D9 JUMP JUMPDEST CALLVALUE PUSH2 0x6D3 JUMPI PUSH2 0x6BD PUSH2 0x6B7 CALLDATASIZE PUSH1 0x4 PUSH2 0x5E4 JUMP JUMPDEST SWAP1 PUSH2 0x126E JUMP JUMPDEST PUSH2 0x6C5 PUSH2 0x1D3 JUMP JUMPDEST DUP1 PUSH2 0x6CF DUP2 PUSH2 0x444 JUMP JUMPDEST SUB SWAP1 RETURN JUMPDEST PUSH2 0x1D9 JUMP JUMPDEST CALLVALUE PUSH2 0x709 JUMPI PUSH2 0x705 PUSH2 0x6F4 PUSH2 0x6EE CALLDATASIZE PUSH1 0x4 PUSH2 0x3C1 JUMP JUMPDEST SWAP1 PUSH2 0x12D8 JUMP JUMPDEST PUSH2 0x6FC PUSH2 0x1D3 JUMP JUMPDEST SWAP2 DUP3 SWAP2 DUP3 PUSH2 0x249 JUMP JUMPDEST SUB SWAP1 RETURN JUMPDEST PUSH2 0x1D9 JUMP JUMPDEST CALLVALUE PUSH2 0x73D JUMPI PUSH2 0x727 PUSH2 0x721 CALLDATASIZE PUSH1 0x4 PUSH2 0x3C1 JUMP JUMPDEST SWAP1 PUSH2 0x1359 JUMP JUMPDEST PUSH2 0x72F PUSH2 0x1D3 JUMP JUMPDEST DUP1 PUSH2 0x739 DUP2 PUSH2 0x444 JUMP JUMPDEST SUB SWAP1 RETURN JUMPDEST PUSH2 0x1D9 JUMP JUMPDEST SWAP1 PUSH1 0x20 DUP3 DUP3 SUB SLT PUSH2 0x75C JUMPI PUSH2 0x759 SWAP2 PUSH1 0x0 ADD PUSH2 0x3B2 JUMP JUMPDEST SWAP1 JUMP JUMPDEST PUSH2 0x1DE JUMP JUMPDEST CALLVALUE PUSH2 0x78F JUMPI PUSH2 0x779 PUSH2 0x774 CALLDATASIZE PUSH1 0x4 PUSH2 0x742 JUMP JUMPDEST PUSH2 0x1365 JUMP JUMPDEST PUSH2 0x781 PUSH2 0x1D3 JUMP JUMPDEST DUP1 PUSH2 0x78B DUP2 PUSH2 0x444 JUMP JUMPDEST SUB SWAP1 RETURN JUMPDEST PUSH2 0x1D9 JUMP JUMPDEST PUSH1 0x0 DUP1 REVERT JUMPDEST PUSH1 0x0 DUP1 REVERT JUMPDEST PUSH4 0x4E487B71 PUSH1 0xE0 SHL PUSH1 0x0 MSTORE PUSH1 0x41 PUSH1 0x4 MSTORE PUSH1 0x24 PUSH1 0x0 REVERT JUMPDEST SWAP1 PUSH2 0x7BE SWAP1 PUSH2 0x2D6 JUMP JUMPDEST DUP2 ADD SWAP1 DUP2 LT PUSH8 0xFFFFFFFFFFFFFFFF DUP3 GT OR PUSH2 0x7D8 JUMPI PUSH1 0x40 MSTORE JUMP JUMPDEST PUSH2 0x79E JUMP JUMPDEST SWAP1 PUSH2 0x7F0 PUSH2 0x7E9 PUSH2 0x1D3 JUMP JUMPDEST SWAP3 DUP4 PUSH2 0x7B4 JUMP JUMPDEST JUMP JUMPDEST PUSH8 0xFFFFFFFFFFFFFFFF DUP2 GT PUSH2 0x810 JUMPI PUSH2 0x80C PUSH1 0x20 SWAP2 PUSH2 0x2D6 JUMP JUMPDEST ADD SWAP1 JUMP JUMPDEST PUSH2 0x79E JUMP JUMPDEST SWAP1 DUP3 PUSH1 0x0 SWAP4 SWAP3 DUP3 CALLDATACOPY ADD MSTORE JUMP JUMPDEST SWAP1 SWAP3 SWAP2 SWAP3 PUSH2 0x836 PUSH2 0x831 DUP3 PUSH2 0x7F2 JUMP JUMPDEST PUSH2 0x7DD JUMP JUMPDEST SWAP4 DUP2 DUP6 MSTORE PUSH1 0x20 DUP6 ADD SWAP1 DUP3 DUP5 ADD GT PUSH2 0x852 JUMPI PUSH2 0x850 SWAP3 PUSH2 0x815 JUMP JUMPDEST JUMP JUMPDEST PUSH2 0x799 JUMP JUMPDEST SWAP1 DUP1 PUSH1 0x1F DUP4 ADD SLT ISZERO PUSH2 0x875 JUMPI DUP2 PUSH1 0x20 PUSH2 0x872 SWAP4 CALLDATALOAD SWAP2 ADD PUSH2 0x821 JUMP JUMPDEST SWAP1 JUMP JUMPDEST PUSH2 0x794 JUMP JUMPDEST SWAP2 SWAP1 SWAP2 PUSH1 0x40 DUP2 DUP5 SUB SLT PUSH2 0x8D3 JUMPI PUSH1 0x0 DUP2 ADD CALLDATALOAD PUSH8 0xFFFFFFFFFFFFFFFF DUP2 GT PUSH2 0x8CE JUMPI DUP4 PUSH2 0x8A7 SWAP2 DUP4 ADD PUSH2 0x857 JUMP JUMPDEST SWAP3 PUSH1 0x20 DUP3 ADD CALLDATALOAD PUSH8 0xFFFFFFFFFFFFFFFF DUP2 GT PUSH2 0x8C9 JUMPI PUSH2 0x8C6 SWAP3 ADD PUSH2 0x857 JUMP JUMPDEST SWAP1 JUMP JUMPDEST PUSH2 0x1E3 JUMP JUMPDEST PUSH2 0x1E3 JUMP JUMPDEST PUSH2 0x1DE JUMP JUMPDEST CALLVALUE PUSH2 0x907 JUMPI PUSH2 0x8F1 PUSH2 0x8EB CALLDATASIZE PUSH1 0x4 PUSH2 0x87A JUMP JUMPDEST SWAP1 PUSH2 0x15AE JUMP JUMPDEST PUSH2 0x8F9 PUSH2 0x1D3 JUMP JUMPDEST DUP1 PUSH2 0x903 DUP2 PUSH2 0x444 JUMP JUMPDEST SUB SWAP1 RETURN JUMPDEST PUSH2 0x1D9 JUMP JUMPDEST CALLVALUE PUSH2 0x93C JUMPI PUSH2 0x938 PUSH2 0x927 PUSH2 0x922 CALLDATASIZE PUSH1 0x4 PUSH2 0x425 JUMP JUMPDEST PUSH2 0x15EA JUMP JUMPDEST PUSH2 0x92F PUSH2 0x1D3 JUMP JUMPDEST SWAP2 DUP3 SWAP2 DUP3 PUSH2 0x48A JUMP JUMPDEST SUB SWAP1 RETURN JUMPDEST PUSH2 0x1D9 JUMP JUMPDEST SWAP2 SWAP1 PUSH1 0x40 DUP4 DUP3 SUB SLT PUSH2 0x96A JUMPI DUP1 PUSH2 0x95E PUSH2 0x967 SWAP3 PUSH1 0x0 DUP7 ADD PUSH2 0x55E JUMP JUMPDEST SWAP4 PUSH1 0x20 ADD PUSH2 0x3B2 JUMP JUMPDEST SWAP1 JUMP JUMPDEST PUSH2 0x1DE JUMP JUMPDEST PUSH2 0x978 SWAP1 PUSH2 0x36A JUMP JUMPDEST SWAP1 MSTORE JUMP JUMPDEST SWAP2 SWAP1 PUSH2 0x990 SWAP1 PUSH1 0x0 PUSH1 0x20 DUP6 ADD SWAP5 ADD SWAP1 PUSH2 0x96F JUMP JUMPDEST JUMP JUMPDEST CALLVALUE PUSH2 0x9C3 JUMPI PUSH2 0x9BF PUSH2 0x9AE PUSH2 0x9A8 CALLDATASIZE PUSH1 0x4 PUSH2 0x941 JUMP JUMPDEST SWAP1 PUSH2 0x1629 JUMP JUMPDEST PUSH2 0x9B6 PUSH2 0x1D3 JUMP JUMPDEST SWAP2 DUP3 SWAP2 DUP3 PUSH2 0x97C JUMP JUMPDEST SUB SWAP1 RETURN JUMPDEST PUSH2 0x1D9 JUMP JUMPDEST CALLVALUE PUSH2 0x9F9 JUMPI PUSH2 0x9F5 PUSH2 0x9E4 PUSH2 0x9DE CALLDATASIZE PUSH1 0x4 PUSH2 0x5E4 JUMP JUMPDEST SWAP1 PUSH2 0x1690 JUMP JUMPDEST PUSH2 0x9EC PUSH2 0x1D3 JUMP JUMPDEST SWAP2 DUP3 SWAP2 DUP3 PUSH2 0x249 JUMP JUMPDEST SUB SWAP1 RETURN JUMPDEST PUSH2 0x1D9 JUMP JUMPDEST CALLVALUE PUSH2 0xA2E JUMPI PUSH2 0xA0E CALLDATASIZE PUSH1 0x4 PUSH2 0x294 JUMP JUMPDEST PUSH2 0xA2A PUSH2 0xA19 PUSH2 0x16BB JUMP JUMPDEST PUSH2 0xA21 PUSH2 0x1D3 JUMP JUMPDEST SWAP2 DUP3 SWAP2 DUP3 PUSH2 0x311 JUMP JUMPDEST SUB SWAP1 RETURN JUMPDEST PUSH2 0x1D9 JUMP JUMPDEST PUSH2 0xA3C DUP2 PUSH2 0x646 JUMP JUMPDEST SUB PUSH2 0xA43 JUMPI JUMP JUMPDEST PUSH1 0x0 DUP1 REVERT JUMPDEST SWAP1 POP CALLDATALOAD SWAP1 PUSH2 0xA55 DUP3 PUSH2 0xA33 JUMP JUMPDEST JUMP JUMPDEST SWAP1 SWAP2 PUSH1 0xC0 DUP3 DUP5 SUB SLT PUSH2 0xAE7 JUMPI PUSH2 0xA70 DUP4 PUSH1 0x0 DUP5 ADD PUSH2 0x38B JUMP JUMPDEST SWAP3 PUSH1 0x20 DUP4 ADD CALLDATALOAD PUSH8 0xFFFFFFFFFFFFFFFF DUP2 GT PUSH2 0xAE2 JUMPI DUP2 PUSH2 0xA91 SWAP2 DUP6 ADD PUSH2 0x857 JUMP JUMPDEST SWAP3 PUSH1 0x40 DUP2 ADD CALLDATALOAD PUSH8 0xFFFFFFFFFFFFFFFF DUP2 GT PUSH2 0xADD JUMPI DUP3 PUSH2 0xAB2 SWAP2 DUP4 ADD PUSH2 0x857 JUMP JUMPDEST SWAP3 PUSH2 0xADA PUSH2 0xAC3 DUP5 PUSH1 0x60 DUP6 ADD PUSH2 0xA48 JUMP JUMPDEST SWAP4 PUSH2 0xAD1 DUP2 PUSH1 0x80 DUP7 ADD PUSH2 0x38B JUMP JUMPDEST SWAP4 PUSH1 0xA0 ADD PUSH2 0x55E JUMP JUMPDEST SWAP1 JUMP JUMPDEST PUSH2 0x1E3 JUMP JUMPDEST PUSH2 0x1E3 JUMP JUMPDEST PUSH2 0x1DE JUMP JUMPDEST CALLVALUE PUSH2 0xB21 JUMPI PUSH2 0xB0B PUSH2 0xAFF CALLDATASIZE PUSH1 0x4 PUSH2 0xA57 JUMP JUMPDEST SWAP5 SWAP4 SWAP1 SWAP4 SWAP3 SWAP2 SWAP3 PUSH2 0x1745 JUMP JUMPDEST PUSH2 0xB13 PUSH2 0x1D3 JUMP JUMPDEST DUP1 PUSH2 0xB1D DUP2 PUSH2 0x444 JUMP JUMPDEST SUB SWAP1 RETURN JUMPDEST PUSH2 0x1D9 JUMP JUMPDEST PUSH1 0x0 DUP1 REVERT JUMPDEST SWAP1 DUP2 PUSH1 0xC0 SWAP2 SUB SLT PUSH2 0xB39 JUMPI SWAP1 JUMP JUMPDEST PUSH2 0xB26 JUMP JUMPDEST SWAP1 DUP2 PUSH1 0xE0 SWAP2 SUB SLT PUSH2 0xB4C JUMPI SWAP1 JUMP JUMPDEST PUSH2 0xB26 JUMP JUMPDEST SWAP2 PUSH1 0x60 DUP4 DUP4 SUB SLT PUSH2 0xBB6 JUMPI PUSH2 0xB69 DUP3 PUSH1 0x0 DUP6 ADD PUSH2 0x38B JUMP JUMPDEST SWAP3 PUSH1 0x20 DUP2 ADD CALLDATALOAD PUSH8 0xFFFFFFFFFFFFFFFF DUP2 GT PUSH2 0xBB1 JUMPI DUP4 PUSH2 0xB8A SWAP2 DUP4 ADD PUSH2 0xB2B JUMP JUMPDEST SWAP3 PUSH1 0x40 DUP3 ADD CALLDATALOAD PUSH8 0xFFFFFFFFFFFFFFFF DUP2 GT PUSH2 0xBAC JUMPI PUSH2 0xBA9 SWAP3 ADD PUSH2 0xB3E JUMP JUMPDEST SWAP1 JUMP JUMPDEST PUSH2 0x1E3 JUMP JUMPDEST PUSH2 0x1E3 JUMP JUMPDEST PUSH2 0x1DE JUMP JUMPDEST CALLVALUE PUSH2 0xBEC JUMPI PUSH2 0xBE8 PUSH2 0xBD7 PUSH2 0xBD1 CALLDATASIZE PUSH1 0x4 PUSH2 0xB51 JUMP JUMPDEST SWAP2 PUSH2 0x1B3A JUMP JUMPDEST PUSH2 0xBDF PUSH2 0x1D3 JUMP JUMPDEST SWAP2 DUP3 SWAP2 DUP3 PUSH2 0x599 JUMP JUMPDEST SUB SWAP1 RETURN JUMPDEST PUSH2 0x1D9 JUMP JUMPDEST SWAP1 JUMP JUMPDEST PUSH1 0x0 SHL SWAP1 JUMP JUMPDEST PUSH2 0xC0E PUSH2 0xC09 PUSH2 0xC13 SWAP3 PUSH2 0xBF1 JUMP JUMPDEST PUSH2 0xBF4 JUMP JUMPDEST PUSH2 0x546 JUMP JUMPDEST SWAP1 JUMP JUMPDEST PUSH2 0xC20 PUSH1 0x0 PUSH2 0xBFA JUMP JUMPDEST SWAP1 JUMP JUMPDEST PUSH2 0xC2B PUSH2 0xC16 JUMP JUMPDEST SWAP1 JUMP JUMPDEST CALLVALUE PUSH2 0xC5E JUMPI PUSH2 0xC3E CALLDATASIZE PUSH1 0x4 PUSH2 0x294 JUMP JUMPDEST PUSH2 0xC5A PUSH2 0xC49 PUSH2 0xC23 JUMP JUMPDEST PUSH2 0xC51 PUSH2 0x1D3 JUMP JUMPDEST SWAP2 DUP3 SWAP2 DUP3 PUSH2 0x599 JUMP JUMPDEST SUB SWAP1 RETURN JUMPDEST PUSH2 0x1D9 JUMP JUMPDEST CALLVALUE PUSH2 0xC94 JUMPI PUSH2 0xC90 PUSH2 0xC7F PUSH2 0xC79 CALLDATASIZE PUSH1 0x4 PUSH2 0x3C1 JUMP JUMPDEST SWAP1 PUSH2 0x1C93 JUMP JUMPDEST PUSH2 0xC87 PUSH2 0x1D3 JUMP JUMPDEST SWAP2 DUP3 SWAP2 DUP3 PUSH2 0x249 JUMP JUMPDEST SUB SWAP1 RETURN JUMPDEST PUSH2 0x1D9 JUMP JUMPDEST CALLVALUE PUSH2 0xCCA JUMPI PUSH2 0xCC6 PUSH2 0xCB5 PUSH2 0xCAF CALLDATASIZE PUSH1 0x4 PUSH2 0x3C1 JUMP JUMPDEST SWAP1 PUSH2 0x1CE7 JUMP JUMPDEST PUSH2 0xCBD PUSH2 0x1D3 JUMP JUMPDEST SWAP2 DUP3 SWAP2 DUP3 PUSH2 0x249 JUMP JUMPDEST SUB SWAP1 RETURN JUMPDEST PUSH2 0x1D9 JUMP JUMPDEST CALLVALUE PUSH2 0xCFF JUMPI PUSH2 0xCFB PUSH2 0xCEA PUSH2 0xCE5 CALLDATASIZE PUSH1 0x4 PUSH2 0x56D JUMP JUMPDEST PUSH2 0x1D09 JUMP JUMPDEST PUSH2 0xCF2 PUSH2 0x1D3 JUMP JUMPDEST SWAP2 DUP3 SWAP2 DUP3 PUSH2 0x48A JUMP JUMPDEST SUB SWAP1 RETURN JUMPDEST PUSH2 0x1D9 JUMP JUMPDEST CALLVALUE PUSH2 0xD33 JUMPI PUSH2 0xD1D PUSH2 0xD17 CALLDATASIZE PUSH1 0x4 PUSH2 0x5E4 JUMP JUMPDEST SWAP1 PUSH2 0x1D59 JUMP JUMPDEST PUSH2 0xD25 PUSH2 0x1D3 JUMP JUMPDEST DUP1 PUSH2 0xD2F DUP2 PUSH2 0x444 JUMP JUMPDEST SUB SWAP1 RETURN JUMPDEST PUSH2 0x1D9 JUMP JUMPDEST SWAP2 SWAP1 PUSH1 0x40 DUP4 DUP3 SUB SLT PUSH2 0xD61 JUMPI DUP1 PUSH2 0xD55 PUSH2 0xD5E SWAP3 PUSH1 0x0 DUP7 ADD PUSH2 0x38B JUMP JUMPDEST SWAP4 PUSH1 0x20 ADD PUSH2 0x38B JUMP JUMPDEST SWAP1 JUMP JUMPDEST PUSH2 0x1DE JUMP JUMPDEST CALLVALUE PUSH2 0xD97 JUMPI PUSH2 0xD93 PUSH2 0xD82 PUSH2 0xD7C CALLDATASIZE PUSH1 0x4 PUSH2 0xD38 JUMP JUMPDEST SWAP1 PUSH2 0x1D7D JUMP JUMPDEST PUSH2 0xD8A PUSH2 0x1D3 JUMP JUMPDEST SWAP2 DUP3 SWAP2 DUP3 PUSH2 0x48A JUMP JUMPDEST SUB SWAP1 RETURN JUMPDEST PUSH2 0x1D9 JUMP JUMPDEST CALLVALUE PUSH2 0xDCA JUMPI PUSH2 0xDB4 PUSH2 0xDAF CALLDATASIZE PUSH1 0x4 PUSH2 0x56D JUMP JUMPDEST PUSH2 0x1E10 JUMP JUMPDEST PUSH2 0xDBC PUSH2 0x1D3 JUMP JUMPDEST DUP1 PUSH2 0xDC6 DUP2 PUSH2 0x444 JUMP JUMPDEST SUB SWAP1 RETURN JUMPDEST PUSH2 0x1D9 JUMP JUMPDEST PUSH1 0x0 DUP1 REVERT JUMPDEST PUSH1 0x0 SWAP1 JUMP JUMPDEST PUSH2 0xDE1 PUSH2 0xDD4 JUMP JUMPDEST POP PUSH4 0x6A15B43 PUSH1 0xE2 SHL PUSH2 0xDFC PUSH2 0xDF6 DUP4 PUSH2 0x1E8 JUMP JUMPDEST SWAP2 PUSH2 0x1E8 JUMP JUMPDEST EQ DUP1 ISZERO PUSH2 0xE20 JUMPI JUMPDEST SWAP1 DUP2 ISZERO PUSH2 0xE10 JUMPI JUMPDEST POP SWAP1 JUMP JUMPDEST PUSH2 0xE1A SWAP2 POP PUSH2 0x1E1B JUMP JUMPDEST CODESIZE PUSH2 0xE0C JUMP JUMPDEST POP PUSH2 0xE2A DUP2 PUSH2 0x1E1B JUMP JUMPDEST PUSH2 0xE04 JUMP JUMPDEST PUSH1 0x60 SWAP1 JUMP JUMPDEST PUSH4 0x4E487B71 PUSH1 0xE0 SHL PUSH1 0x0 MSTORE PUSH1 0x22 PUSH1 0x4 MSTORE PUSH1 0x24 PUSH1 0x0 REVERT JUMPDEST SWAP1 PUSH1 0x1 PUSH1 0x2 DUP4 DIV SWAP3 AND DUP1 ISZERO PUSH2 0xE6A JUMPI JUMPDEST PUSH1 0x20 DUP4 LT EQ PUSH2 0xE65 JUMPI JUMP JUMPDEST PUSH2 0xE34 JUMP JUMPDEST SWAP2 PUSH1 0x7F AND SWAP2 PUSH2 0xE5A JUMP JUMPDEST PUSH1 0x20 SWAP2 DUP2 MSTORE ADD SWAP1 JUMP JUMPDEST PUSH1 0x0 MSTORE PUSH1 0x20 PUSH1 0x0 KECCAK256 SWAP1 JUMP JUMPDEST SWAP1 PUSH1 0x0 SWAP3 SWAP2 DUP1 SLOAD SWAP1 PUSH2 0xEA3 PUSH2 0xE9C DUP4 PUSH2 0xE4A JUMP JUMPDEST DUP1 SWAP5 PUSH2 0xE74 JUMP JUMPDEST SWAP2 PUSH1 0x1 DUP2 AND SWAP1 DUP2 PUSH1 0x0 EQ PUSH2 0xEFC JUMPI POP PUSH1 0x1 EQ PUSH2 0xEBF JUMPI JUMPDEST POP POP POP JUMP JUMPDEST PUSH2 0xECC SWAP2 SWAP3 SWAP4 SWAP5 POP PUSH2 0xE7D JUMP JUMPDEST SWAP2 PUSH1 0x0 SWAP3 JUMPDEST DUP2 DUP5 LT PUSH2 0xEE4 JUMPI POP POP ADD SWAP1 CODESIZE DUP1 DUP1 PUSH2 0xEBA JUMP JUMPDEST PUSH1 0x1 DUP2 PUSH1 0x20 SWAP3 SWAP6 SWAP4 SWAP6 SLOAD DUP5 DUP7 ADD MSTORE ADD SWAP2 ADD SWAP3 SWAP1 PUSH2 0xED1 JUMP JUMPDEST SWAP3 SWAP5 SWAP6 POP POP POP PUSH1 0xFF NOT AND DUP3 MSTORE ISZERO ISZERO PUSH1 0x20 MUL ADD SWAP1 CODESIZE DUP1 DUP1 PUSH2 0xEBA JUMP JUMPDEST SWAP1 PUSH2 0xF21 SWAP2 PUSH2 0xE88 JUMP JUMPDEST SWAP1 JUMP JUMPDEST SWAP1 PUSH2 0xF44 PUSH2 0xF3D SWAP3 PUSH2 0xF34 PUSH2 0x1D3 JUMP JUMPDEST SWAP4 DUP5 DUP1 SWAP3 PUSH2 0xF17 JUMP JUMPDEST SUB DUP4 PUSH2 0x7B4 JUMP JUMPDEST JUMP JUMPDEST PUSH2 0xF4F SWAP1 PUSH2 0xF24 JUMP JUMPDEST SWAP1 JUMP JUMPDEST PUSH2 0xF5A PUSH2 0xE2F JUMP JUMPDEST POP PUSH2 0xF65 PUSH1 0x9 PUSH2 0xF46 JUMP JUMPDEST SWAP1 JUMP JUMPDEST PUSH2 0xF85 SWAP2 PUSH2 0xF74 PUSH2 0xDD4 JUMP JUMPDEST POP PUSH2 0xF7D PUSH2 0x1E83 JUMP JUMPDEST SWAP2 SWAP1 SWAP2 PUSH2 0x202C JUMP JUMPDEST PUSH1 0x1 SWAP1 JUMP JUMPDEST PUSH32 0x70649EC320B507FEBAD3E8EF750E5F580B9AE32F9F50D4C7B121332C81971530 SWAP1 JUMP JUMPDEST PUSH2 0xFC7 SWAP1 PUSH2 0xFC2 PUSH2 0xFBD PUSH2 0xF8A JUMP JUMPDEST PUSH2 0x20EA JUMP JUMPDEST PUSH2 0x104A JUMP JUMPDEST JUMP JUMPDEST SWAP1 JUMP JUMPDEST PUSH2 0xFE0 PUSH2 0xFDB PUSH2 0xFE5 SWAP3 PUSH2 0x35F JUMP JUMPDEST PUSH2 0xFC9 JUMP JUMPDEST PUSH2 0x35F JUMP JUMPDEST SWAP1 JUMP JUMPDEST PUSH2 0xFF1 SWAP1 PUSH2 0xFCC JUMP JUMPDEST SWAP1 JUMP JUMPDEST PUSH2 0xFFD SWAP1 PUSH2 0xFE8 JUMP JUMPDEST SWAP1 JUMP JUMPDEST SWAP1 PUSH2 0x1011 PUSH1 0x1 DUP1 PUSH1 0xA0 SHL SUB SWAP2 PUSH2 0xBF4 JUMP JUMPDEST SWAP2 DUP2 NOT AND SWAP2 AND OR SWAP1 JUMP JUMPDEST PUSH2 0x1024 SWAP1 PUSH2 0xFE8 JUMP JUMPDEST SWAP1 JUMP JUMPDEST SWAP1 JUMP JUMPDEST SWAP1 PUSH2 0x103F PUSH2 0x103A PUSH2 0x1046 SWAP3 PUSH2 0x101B JUMP JUMPDEST PUSH2 0x1027 JUMP JUMPDEST DUP3 SLOAD PUSH2 0x1000 JUMP JUMPDEST SWAP1 SSTORE JUMP JUMPDEST PUSH2 0x1056 PUSH2 0x105D SWAP2 PUSH2 0xFF4 JUMP JUMPDEST PUSH1 0x7 PUSH2 0x102A JUMP JUMPDEST JUMP JUMPDEST PUSH2 0x1068 SWAP1 PUSH2 0xFAE JUMP JUMPDEST JUMP JUMPDEST PUSH1 0x0 SWAP1 JUMP JUMPDEST PUSH1 0x0 SHR SWAP1 JUMP JUMPDEST SWAP1 JUMP JUMPDEST PUSH2 0x1084 PUSH2 0x1089 SWAP2 PUSH2 0x106F JUMP JUMPDEST PUSH2 0x1075 JUMP JUMPDEST SWAP1 JUMP JUMPDEST PUSH2 0x1096 SWAP1 SLOAD PUSH2 0x1078 JUMP JUMPDEST SWAP1 JUMP JUMPDEST PUSH2 0x10A1 PUSH2 0x106A JUMP JUMPDEST POP PUSH2 0x10AC PUSH1 0x2 PUSH2 0x108C JUMP JUMPDEST SWAP1 JUMP JUMPDEST SWAP2 PUSH2 0x10D9 SWAP3 PUSH2 0x10BC PUSH2 0xDD4 JUMP JUMPDEST POP PUSH2 0x10D1 PUSH2 0x10C8 PUSH2 0x1E83 JUMP JUMPDEST DUP3 SWAP1 DUP5 SWAP2 PUSH2 0x2182 JUMP JUMPDEST SWAP2 SWAP1 SWAP2 PUSH2 0x23F6 JUMP JUMPDEST PUSH1 0x1 SWAP1 JUMP JUMPDEST PUSH1 0x0 SWAP1 JUMP JUMPDEST PUSH2 0x10EC SWAP1 PUSH2 0x546 JUMP JUMPDEST SWAP1 JUMP JUMPDEST SWAP1 PUSH2 0x10F9 SWAP1 PUSH2 0x10E3 JUMP JUMPDEST PUSH1 0x0 MSTORE PUSH1 0x20 MSTORE PUSH1 0x40 PUSH1 0x0 KECCAK256 SWAP1 JUMP JUMPDEST SWAP1 JUMP JUMPDEST PUSH2 0x1116 PUSH2 0x111B SWAP2 PUSH2 0x106F JUMP JUMPDEST PUSH2 0x1107 JUMP JUMPDEST SWAP1 JUMP JUMPDEST PUSH2 0x1128 SWAP1 SLOAD PUSH2 0x110A JUMP JUMPDEST SWAP1 JUMP JUMPDEST PUSH1 0x1 PUSH2 0x1144 PUSH2 0x114A SWAP3 PUSH2 0x113C PUSH2 0x10DE JUMP JUMPDEST POP PUSH1 0x5 PUSH2 0x10EF JUMP JUMPDEST ADD PUSH2 0x111E JUMP JUMPDEST SWAP1 JUMP JUMPDEST SWAP1 PUSH2 0x1168 SWAP2 PUSH2 0x1163 PUSH2 0x115E DUP3 PUSH2 0x112B JUMP JUMPDEST PUSH2 0x20EA JUMP JUMPDEST PUSH2 0x116A JUMP JUMPDEST JUMP JUMPDEST SWAP1 PUSH2 0x1174 SWAP2 PUSH2 0x250C JUMP JUMPDEST JUMP JUMPDEST SWAP1 PUSH2 0x1180 SWAP2 PUSH2 0x114D JUMP JUMPDEST JUMP JUMPDEST PUSH1 0x0 SWAP1 JUMP JUMPDEST PUSH1 0xFF AND SWAP1 JUMP JUMPDEST PUSH2 0x1199 PUSH2 0x119E SWAP2 PUSH2 0x106F JUMP JUMPDEST PUSH2 0x1187 JUMP JUMPDEST SWAP1 JUMP JUMPDEST PUSH2 0x11AB SWAP1 SLOAD PUSH2 0x118D JUMP JUMPDEST SWAP1 JUMP JUMPDEST PUSH2 0x11B6 PUSH2 0x1182 JUMP JUMPDEST POP PUSH2 0x11C1 PUSH1 0xB PUSH2 0x11A1 JUMP JUMPDEST SWAP1 JUMP JUMPDEST PUSH1 0x20 PUSH32 0x20726F6C657320666F722073656C660000000000000000000000000000000000 SWAP2 PUSH32 0x416363657373436F6E74726F6C3A2063616E206F6E6C792072656E6F756E6365 PUSH1 0x0 DUP3 ADD MSTORE ADD MSTORE JUMP JUMPDEST PUSH2 0x121F PUSH1 0x2F PUSH1 0x40 SWAP3 PUSH2 0x2A8 JUMP JUMPDEST PUSH2 0x1228 DUP2 PUSH2 0x11C4 JUMP JUMPDEST ADD SWAP1 JUMP JUMPDEST PUSH2 0x1242 SWAP1 PUSH1 0x20 DUP2 ADD SWAP1 PUSH1 0x0 DUP2 DUP4 SUB SWAP2 ADD MSTORE PUSH2 0x1212 JUMP JUMPDEST SWAP1 JUMP JUMPDEST ISZERO PUSH2 0x124C JUMPI JUMP JUMPDEST PUSH2 0x1254 PUSH2 0x1D3 JUMP JUMPDEST PUSH3 0x461BCD PUSH1 0xE5 SHL DUP2 MSTORE DUP1 PUSH2 0x126A PUSH1 0x4 DUP3 ADD PUSH2 0x122C JUMP JUMPDEST SUB SWAP1 REVERT JUMPDEST SWAP1 PUSH2 0x129B SWAP2 PUSH2 0x1296 DUP3 PUSH2 0x1290 PUSH2 0x128A PUSH2 0x1285 PUSH2 0x1E83 JUMP JUMPDEST PUSH2 0x36A JUMP JUMPDEST SWAP2 PUSH2 0x36A JUMP JUMPDEST EQ PUSH2 0x1245 JUMP JUMPDEST PUSH2 0x2536 JUMP JUMPDEST JUMP JUMPDEST PUSH4 0x4E487B71 PUSH1 0xE0 SHL PUSH1 0x0 MSTORE PUSH1 0x11 PUSH1 0x4 MSTORE PUSH1 0x24 PUSH1 0x0 REVERT JUMPDEST PUSH2 0x12C2 PUSH2 0x12C8 SWAP2 SWAP4 SWAP3 SWAP4 PUSH2 0x39A JUMP JUMPDEST SWAP3 PUSH2 0x39A JUMP JUMPDEST DUP3 ADD DUP1 SWAP3 GT PUSH2 0x12D3 JUMPI JUMP JUMPDEST PUSH2 0x129D JUMP JUMPDEST PUSH2 0x1308 SWAP2 PUSH2 0x12E4 PUSH2 0xDD4 JUMP JUMPDEST POP PUSH2 0x1302 PUSH2 0x12F0 PUSH2 0x1E83 JUMP JUMPDEST SWAP2 PUSH2 0x12FD DUP4 SWAP5 DUP1 SWAP5 PUSH2 0x1D7D JUMP JUMPDEST PUSH2 0x12B3 JUMP JUMPDEST SWAP2 PUSH2 0x202C JUMP JUMPDEST PUSH1 0x1 SWAP1 JUMP JUMPDEST PUSH32 0x9F2DF0FED2C77648DE5860A4CC508CD0818C85B8B8A1AB4CEEEF8D981C8956A6 SWAP1 JUMP JUMPDEST SWAP1 PUSH2 0x134B SWAP2 PUSH2 0x1346 PUSH2 0x1341 PUSH2 0x130D JUMP JUMPDEST PUSH2 0x20EA JUMP JUMPDEST PUSH2 0x134D JUMP JUMPDEST JUMP JUMPDEST SWAP1 PUSH2 0x1357 SWAP2 PUSH2 0x25E4 JUMP JUMPDEST JUMP JUMPDEST SWAP1 PUSH2 0x1363 SWAP2 PUSH2 0x1331 JUMP JUMPDEST JUMP JUMPDEST PUSH2 0x136F SWAP1 CALLER PUSH2 0x27FE JUMP JUMPDEST JUMP JUMPDEST SWAP1 PUSH2 0x138B SWAP2 PUSH2 0x1386 PUSH2 0x1381 PUSH2 0xC16 JUMP JUMPDEST PUSH2 0x20EA JUMP JUMPDEST PUSH2 0x1596 JUMP JUMPDEST JUMP JUMPDEST PUSH1 0x1F PUSH1 0x20 SWAP2 ADD DIV SWAP1 JUMP JUMPDEST SHL SWAP1 JUMP JUMPDEST SWAP2 SWAP1 PUSH1 0x8 PUSH2 0x13B7 SWAP2 MUL SWAP2 PUSH2 0x13B1 PUSH1 0x0 NOT DUP5 PUSH2 0x1397 JUMP JUMPDEST SWAP3 PUSH2 0x1397 JUMP JUMPDEST SWAP2 DUP2 NOT AND SWAP2 AND OR SWAP1 JUMP JUMPDEST PUSH2 0x13D5 PUSH2 0x13D0 PUSH2 0x13DA SWAP3 PUSH2 0x39A JUMP JUMPDEST PUSH2 0xFC9 JUMP JUMPDEST PUSH2 0x39A JUMP JUMPDEST SWAP1 JUMP JUMPDEST SWAP1 JUMP JUMPDEST SWAP2 SWAP1 PUSH2 0x13F6 PUSH2 0x13F1 PUSH2 0x13FE SWAP4 PUSH2 0x13C1 JUMP JUMPDEST PUSH2 0x13DD JUMP JUMPDEST SWAP1 DUP4 SLOAD PUSH2 0x139B JUMP JUMPDEST SWAP1 SSTORE JUMP JUMPDEST PUSH2 0x1414 SWAP2 PUSH2 0x140E PUSH2 0x106A JUMP JUMPDEST SWAP2 PUSH2 0x13E0 JUMP JUMPDEST JUMP JUMPDEST JUMPDEST DUP2 DUP2 LT PUSH2 0x1422 JUMPI POP POP JUMP JUMPDEST DUP1 PUSH2 0x1430 PUSH1 0x0 PUSH1 0x1 SWAP4 PUSH2 0x1402 JUMP JUMPDEST ADD PUSH2 0x1417 JUMP JUMPDEST SWAP2 SWAP1 PUSH1 0x1F DUP2 GT PUSH2 0x1446 JUMPI JUMPDEST POP POP POP JUMP JUMPDEST PUSH2 0x1452 PUSH2 0x1477 SWAP4 PUSH2 0xE7D JUMP JUMPDEST SWAP1 PUSH1 0x20 PUSH2 0x145E DUP5 PUSH2 0x138D JUMP JUMPDEST DUP4 ADD SWAP4 LT PUSH2 0x147F JUMPI JUMPDEST PUSH2 0x1470 SWAP1 PUSH2 0x138D JUMP JUMPDEST ADD SWAP1 PUSH2 0x1416 JUMP JUMPDEST CODESIZE DUP1 DUP1 PUSH2 0x1441 JUMP JUMPDEST SWAP2 POP PUSH2 0x1470 DUP2 SWAP3 SWAP1 POP PUSH2 0x1467 JUMP JUMPDEST SHR SWAP1 JUMP JUMPDEST SWAP1 PUSH2 0x14A2 SWAP1 PUSH1 0x0 NOT SWAP1 PUSH1 0x8 MUL PUSH2 0x148D JUMP JUMPDEST NOT AND SWAP1 JUMP JUMPDEST DUP2 PUSH2 0x14B1 SWAP2 PUSH2 0x1491 JUMP JUMPDEST SWAP1 PUSH1 0x2 MUL OR SWAP1 JUMP JUMPDEST SWAP1 PUSH2 0x14C3 DUP2 PUSH2 0x2A4 JUMP JUMPDEST SWAP1 PUSH8 0xFFFFFFFFFFFFFFFF DUP3 GT PUSH2 0x1585 JUMPI PUSH2 0x14E7 DUP3 PUSH2 0x14E1 DUP6 SLOAD PUSH2 0xE4A JUMP JUMPDEST DUP6 PUSH2 0x1436 JUMP JUMPDEST PUSH1 0x20 SWAP1 PUSH1 0x1F DUP4 GT PUSH1 0x1 EQ PUSH2 0x151C JUMPI SWAP2 DUP1 SWAP2 PUSH2 0x150B SWAP4 PUSH1 0x0 SWAP3 PUSH2 0x1510 JUMPI JUMPDEST POP POP PUSH2 0x14A7 JUMP JUMPDEST SWAP1 SSTORE JUMPDEST JUMP JUMPDEST SWAP1 SWAP2 POP ADD MLOAD CODESIZE DUP1 PUSH2 0x1504 JUMP JUMPDEST PUSH1 0x1F NOT DUP4 AND SWAP2 PUSH2 0x152B DUP6 PUSH2 0xE7D JUMP JUMPDEST SWAP3 PUSH1 0x0 JUMPDEST DUP2 DUP2 LT PUSH2 0x156D JUMPI POP SWAP2 PUSH1 0x2 SWAP4 SWAP2 DUP6 PUSH1 0x1 SWAP7 SWAP5 LT PUSH2 0x1553 JUMPI JUMPDEST POP POP POP MUL ADD SWAP1 SSTORE PUSH2 0x150E JUMP JUMPDEST PUSH2 0x1563 SWAP2 ADD MLOAD PUSH1 0x1F DUP5 AND SWAP1 PUSH2 0x1491 JUMP JUMPDEST SWAP1 SSTORE CODESIZE DUP1 DUP1 PUSH2 0x1547 JUMP JUMPDEST SWAP2 SWAP4 PUSH1 0x20 PUSH1 0x1 DUP2 SWAP3 DUP8 DUP8 ADD MLOAD DUP2 SSTORE ADD SWAP6 ADD SWAP3 ADD PUSH2 0x152F JUMP JUMPDEST PUSH2 0x79E JUMP JUMPDEST SWAP1 PUSH2 0x1594 SWAP2 PUSH2 0x14B9 JUMP JUMPDEST JUMP JUMPDEST SWAP1 PUSH2 0x15A5 PUSH2 0x15AC SWAP3 PUSH1 0x9 PUSH2 0x158A JUMP JUMPDEST PUSH1 0xA PUSH2 0x158A JUMP JUMPDEST JUMP JUMPDEST SWAP1 PUSH2 0x15B8 SWAP2 PUSH2 0x1371 JUMP JUMPDEST JUMP JUMPDEST PUSH2 0x15C3 SWAP1 PUSH2 0xFCC JUMP JUMPDEST SWAP1 JUMP JUMPDEST PUSH2 0x15CF SWAP1 PUSH2 0x15BA JUMP JUMPDEST SWAP1 JUMP JUMPDEST SWAP1 PUSH2 0x15DC SWAP1 PUSH2 0x15C6 JUMP JUMPDEST PUSH1 0x0 MSTORE PUSH1 0x20 MSTORE PUSH1 0x40 PUSH1 0x0 KECCAK256 SWAP1 JUMP JUMPDEST PUSH2 0x1601 PUSH2 0x1606 SWAP2 PUSH2 0x15F9 PUSH2 0x106A JUMP JUMPDEST POP PUSH1 0x0 PUSH2 0x15D2 JUMP JUMPDEST PUSH2 0x108C JUMP JUMPDEST SWAP1 JUMP JUMPDEST PUSH1 0x0 SWAP1 JUMP JUMPDEST SWAP1 PUSH2 0x1618 SWAP1 PUSH2 0x10E3 JUMP JUMPDEST PUSH1 0x0 MSTORE PUSH1 0x20 MSTORE PUSH1 0x40 PUSH1 0x0 KECCAK256 SWAP1 JUMP JUMPDEST SWAP1 JUMP JUMPDEST SWAP1 PUSH2 0x1649 PUSH2 0x1644 PUSH2 0x164E SWAP4 PUSH2 0x163C PUSH2 0x1609 JUMP JUMPDEST POP PUSH1 0x6 PUSH2 0x160E JUMP JUMPDEST PUSH2 0x1626 JUMP JUMPDEST PUSH2 0x291D JUMP JUMPDEST SWAP1 JUMP JUMPDEST SWAP1 PUSH2 0x165B SWAP1 PUSH2 0x15C6 JUMP JUMPDEST PUSH1 0x0 MSTORE PUSH1 0x20 MSTORE PUSH1 0x40 PUSH1 0x0 KECCAK256 SWAP1 JUMP JUMPDEST PUSH1 0xFF AND SWAP1 JUMP JUMPDEST PUSH2 0x167B PUSH2 0x1680 SWAP2 PUSH2 0x106F JUMP JUMPDEST PUSH2 0x1669 JUMP JUMPDEST SWAP1 JUMP JUMPDEST PUSH2 0x168D SWAP1 SLOAD PUSH2 0x166F JUMP JUMPDEST SWAP1 JUMP JUMPDEST PUSH2 0x16B8 SWAP2 PUSH1 0x0 PUSH2 0x16AD PUSH2 0x16B3 SWAP4 PUSH2 0x16A5 PUSH2 0xDD4 JUMP JUMPDEST POP PUSH1 0x5 PUSH2 0x10EF JUMP JUMPDEST ADD PUSH2 0x1651 JUMP JUMPDEST PUSH2 0x1683 JUMP JUMPDEST SWAP1 JUMP JUMPDEST PUSH2 0x16C3 PUSH2 0xE2F JUMP JUMPDEST POP PUSH2 0x16CE PUSH1 0xA PUSH2 0xF46 JUMP JUMPDEST SWAP1 JUMP JUMPDEST PUSH1 0x10 SHR SWAP1 JUMP JUMPDEST PUSH2 0x16E3 PUSH2 0x16E8 SWAP2 PUSH2 0x16D1 JUMP JUMPDEST PUSH2 0x1669 JUMP JUMPDEST SWAP1 JUMP JUMPDEST PUSH2 0x16F5 SWAP1 SLOAD PUSH2 0x16D7 JUMP JUMPDEST SWAP1 JUMP JUMPDEST PUSH1 0x10 SHL SWAP1 JUMP JUMPDEST SWAP1 PUSH2 0x170C PUSH3 0xFF0000 SWAP2 PUSH2 0x16F8 JUMP JUMPDEST SWAP2 DUP2 NOT AND SWAP2 AND OR SWAP1 JUMP JUMPDEST PUSH2 0x171F SWAP1 PUSH2 0x237 JUMP JUMPDEST SWAP1 JUMP JUMPDEST SWAP1 JUMP JUMPDEST SWAP1 PUSH2 0x173A PUSH2 0x1735 PUSH2 0x1741 SWAP3 PUSH2 0x1716 JUMP JUMPDEST PUSH2 0x1722 JUMP JUMPDEST DUP3 SLOAD PUSH2 0x16FE JUMP JUMPDEST SWAP1 SSTORE JUMP JUMPDEST SWAP4 SWAP5 SWAP1 SWAP2 SWAP3 SWAP5 CALLER PUSH2 0x177E PUSH2 0x1778 PUSH32 0x0 PUSH2 0x36A JUMP JUMPDEST SWAP2 PUSH2 0x36A JUMP JUMPDEST EQ ISZERO DUP1 ISZERO PUSH2 0x17D7 JUMPI JUMPDEST PUSH2 0x17BA JUMPI PUSH2 0x17AC SWAP6 PUSH2 0x179F SWAP5 DUP7 SWAP5 SWAP1 SWAP2 SWAP3 SWAP4 SWAP5 PUSH2 0x2A0F JUMP JUMPDEST PUSH2 0x17A7 PUSH2 0x130D JUMP JUMPDEST PUSH2 0x250C JUMP JUMPDEST PUSH2 0x17B8 PUSH1 0x1 PUSH1 0xB PUSH2 0x1725 JUMP JUMPDEST JUMP JUMPDEST PUSH1 0x0 PUSH4 0xF92EE8A9 PUSH1 0xE0 SHL DUP2 MSTORE DUP1 PUSH2 0x17D3 PUSH1 0x4 DUP3 ADD PUSH2 0x444 JUMP JUMPDEST SUB SWAP1 REVERT JUMPDEST POP PUSH2 0x17E2 PUSH1 0xB PUSH2 0x16EB JUMP JUMPDEST PUSH2 0x1787 JUMP JUMPDEST PUSH1 0x1 DUP1 PUSH1 0xA0 SHL SUB AND SWAP1 JUMP JUMPDEST PUSH2 0x17FE PUSH2 0x1803 SWAP2 PUSH2 0x106F JUMP JUMPDEST PUSH2 0x17E7 JUMP JUMPDEST SWAP1 JUMP JUMPDEST PUSH2 0x1810 SWAP1 SLOAD PUSH2 0x17F2 JUMP JUMPDEST SWAP1 JUMP JUMPDEST PUSH2 0x181C SWAP1 PUSH2 0x15BA JUMP JUMPDEST SWAP1 JUMP JUMPDEST PUSH1 0xE0 SHL SWAP1 JUMP JUMPDEST SWAP1 POP MLOAD SWAP1 PUSH2 0x1832 DUP3 PUSH2 0x549 JUMP JUMPDEST JUMP JUMPDEST SWAP1 PUSH1 0x20 DUP3 DUP3 SUB SLT PUSH2 0x184E JUMPI PUSH2 0x184B SWAP2 PUSH1 0x0 ADD PUSH2 0x1825 JUMP JUMPDEST SWAP1 JUMP JUMPDEST PUSH2 0x1DE JUMP JUMPDEST POP PUSH2 0x1862 SWAP1 PUSH1 0x20 DUP2 ADD SWAP1 PUSH2 0x38B JUMP JUMPDEST SWAP1 JUMP JUMPDEST PUSH2 0x186E SWAP1 PUSH2 0x36A JUMP JUMPDEST SWAP1 MSTORE JUMP JUMPDEST POP PUSH2 0x1881 SWAP1 PUSH1 0x20 DUP2 ADD SWAP1 PUSH2 0x209 JUMP JUMPDEST SWAP1 JUMP JUMPDEST PUSH2 0x188D SWAP1 PUSH2 0x1E8 JUMP JUMPDEST SWAP1 MSTORE JUMP JUMPDEST POP PUSH2 0x18A0 SWAP1 PUSH1 0x20 DUP2 ADD SWAP1 PUSH2 0x55E JUMP JUMPDEST SWAP1 JUMP JUMPDEST PUSH2 0x18AC SWAP1 PUSH2 0x546 JUMP JUMPDEST SWAP1 MSTORE JUMP JUMPDEST PUSH1 0x0 DUP1 REVERT JUMPDEST PUSH1 0x0 DUP1 REVERT JUMPDEST PUSH1 0x0 DUP1 REVERT JUMPDEST SWAP1 CALLDATALOAD PUSH1 0x1 PUSH1 0x20 SUB DUP3 CALLDATASIZE SUB SUB DUP2 SLT ISZERO PUSH2 0x1900 JUMPI ADD PUSH1 0x20 DUP2 CALLDATALOAD SWAP2 ADD SWAP2 PUSH8 0xFFFFFFFFFFFFFFFF DUP3 GT PUSH2 0x18FB JUMPI PUSH1 0x1 DUP3 MUL CALLDATASIZE SUB DUP4 SGT PUSH2 0x18F6 JUMPI JUMP JUMPDEST PUSH2 0x18B5 JUMP JUMPDEST PUSH2 0x18B0 JUMP JUMPDEST PUSH2 0x18BA JUMP JUMPDEST PUSH1 0x20 SWAP2 DUP2 MSTORE ADD SWAP1 JUMP JUMPDEST SWAP2 SWAP1 PUSH2 0x1928 DUP2 PUSH2 0x1921 DUP2 PUSH2 0x192D SWAP6 PUSH2 0x1905 JUMP JUMPDEST DUP1 SWAP6 PUSH2 0x815 JUMP JUMPDEST PUSH2 0x2D6 JUMP JUMPDEST ADD SWAP1 JUMP JUMPDEST SWAP1 CALLDATALOAD PUSH1 0x1 PUSH1 0x40 SUB DUP3 CALLDATASIZE SUB SUB DUP2 SLT ISZERO PUSH2 0x1947 JUMPI ADD SWAP1 JUMP JUMPDEST PUSH2 0x18BA JUMP JUMPDEST SWAP1 CALLDATALOAD PUSH1 0x1 PUSH1 0x20 SUB DUP3 CALLDATASIZE SUB SUB DUP2 SLT ISZERO PUSH2 0x198D JUMPI ADD PUSH1 0x20 DUP2 CALLDATALOAD SWAP2 ADD SWAP2 PUSH8 0xFFFFFFFFFFFFFFFF DUP3 GT PUSH2 0x1988 JUMPI PUSH1 0x1 DUP3 MUL CALLDATASIZE SUB DUP4 SGT PUSH2 0x1983 JUMPI JUMP JUMPDEST PUSH2 0x18B5 JUMP JUMPDEST PUSH2 0x18B0 JUMP JUMPDEST PUSH2 0x18BA JUMP JUMPDEST SWAP2 SWAP1 PUSH2 0x19AC DUP2 PUSH2 0x19A5 DUP2 PUSH2 0x19B1 SWAP6 PUSH2 0xE74 JUMP JUMPDEST DUP1 SWAP6 PUSH2 0x815 JUMP JUMPDEST PUSH2 0x2D6 JUMP JUMPDEST ADD SWAP1 JUMP JUMPDEST PUSH8 0xFFFFFFFFFFFFFFFF AND SWAP1 JUMP JUMPDEST PUSH2 0x19CB DUP2 PUSH2 0x19B5 JUMP JUMPDEST SUB PUSH2 0x19D2 JUMPI JUMP JUMPDEST PUSH1 0x0 DUP1 REVERT JUMPDEST SWAP1 POP CALLDATALOAD SWAP1 PUSH2 0x19E4 DUP3 PUSH2 0x19C2 JUMP JUMPDEST JUMP JUMPDEST POP PUSH2 0x19F5 SWAP1 PUSH1 0x20 DUP2 ADD SWAP1 PUSH2 0x19D7 JUMP JUMPDEST SWAP1 JUMP JUMPDEST PUSH2 0x1A01 SWAP1 PUSH2 0x19B5 JUMP JUMPDEST SWAP1 MSTORE JUMP JUMPDEST SWAP1 PUSH2 0x1A43 SWAP1 PUSH1 0x20 PUSH2 0x1A3B PUSH2 0x1A31 PUSH1 0x40 DUP5 ADD PUSH2 0x1A23 PUSH1 0x0 DUP9 ADD DUP9 PUSH2 0x194C JUMP JUMPDEST SWAP1 DUP7 DUP4 SUB PUSH1 0x0 DUP9 ADD MSTORE PUSH2 0x1992 JUMP JUMPDEST SWAP5 DUP3 DUP2 ADD SWAP1 PUSH2 0x19E6 JUMP JUMPDEST SWAP2 ADD SWAP1 PUSH2 0x19F8 JUMP JUMPDEST SWAP1 JUMP JUMPDEST PUSH2 0x1AF0 SWAP2 PUSH2 0x1AE2 PUSH2 0x1AD7 PUSH1 0xC0 DUP4 ADD PUSH2 0x1A6E PUSH2 0x1A64 PUSH1 0x0 DUP8 ADD DUP8 PUSH2 0x1853 JUMP JUMPDEST PUSH1 0x0 DUP7 ADD SWAP1 PUSH2 0x1865 JUMP JUMPDEST PUSH2 0x1A88 PUSH2 0x1A7E PUSH1 0x20 DUP8 ADD DUP8 PUSH2 0x1872 JUMP JUMPDEST PUSH1 0x20 DUP7 ADD SWAP1 PUSH2 0x1884 JUMP JUMPDEST PUSH2 0x1AA2 PUSH2 0x1A98 PUSH1 0x40 DUP8 ADD DUP8 PUSH2 0x1891 JUMP JUMPDEST PUSH1 0x40 DUP7 ADD SWAP1 PUSH2 0x18A3 JUMP JUMPDEST PUSH2 0x1ABC PUSH2 0x1AB2 PUSH1 0x60 DUP8 ADD DUP8 PUSH2 0x1891 JUMP JUMPDEST PUSH1 0x60 DUP7 ADD SWAP1 PUSH2 0x18A3 JUMP JUMPDEST PUSH2 0x1AC9 PUSH1 0x80 DUP7 ADD DUP7 PUSH2 0x18BF JUMP JUMPDEST SWAP1 DUP6 DUP4 SUB PUSH1 0x80 DUP8 ADD MSTORE PUSH2 0x190E JUMP JUMPDEST SWAP3 PUSH1 0xA0 DUP2 ADD SWAP1 PUSH2 0x1931 JUMP JUMPDEST SWAP1 PUSH1 0xA0 DUP2 DUP5 SUB SWAP2 ADD MSTORE PUSH2 0x1A05 JUMP JUMPDEST SWAP1 JUMP JUMPDEST SWAP4 SWAP3 SWAP1 PUSH2 0x1B1F PUSH1 0x40 SWAP2 PUSH2 0x1B27 SWAP5 PUSH2 0x1B12 PUSH1 0x60 DUP10 ADD SWAP3 PUSH1 0x0 DUP11 ADD SWAP1 PUSH2 0x96F JUMP JUMPDEST DUP8 DUP3 SUB PUSH1 0x20 DUP10 ADD MSTORE PUSH2 0x1A46 JUMP JUMPDEST SWAP5 ADD SWAP1 PUSH2 0x58C JUMP JUMPDEST JUMP JUMPDEST PUSH2 0x1B31 PUSH2 0x1D3 JUMP JUMPDEST RETURNDATASIZE PUSH1 0x0 DUP3 RETURNDATACOPY RETURNDATASIZE SWAP1 REVERT JUMPDEST SWAP2 POP PUSH1 0x20 SWAP1 PUSH2 0x1B47 PUSH2 0x10DE JUMP JUMPDEST POP PUSH2 0x1B5A PUSH2 0x1B55 PUSH1 0x7 PUSH2 0x1806 JUMP JUMPDEST PUSH2 0x1813 JUMP JUMPDEST PUSH2 0x1B86 PUSH4 0x3808A90B SWAP5 SWAP3 SWAP5 PUSH2 0x1B91 PUSH2 0x1B72 PUSH1 0x8 PUSH2 0x111E JUMP JUMPDEST PUSH2 0x1B7A PUSH2 0x1D3 JUMP JUMPDEST SWAP8 DUP9 SWAP7 DUP8 SWAP6 DUP7 SWAP6 PUSH2 0x181F JUMP JUMPDEST DUP6 MSTORE PUSH1 0x4 DUP6 ADD PUSH2 0x1AF3 JUMP JUMPDEST SUB SWAP2 GAS STATICCALL SWAP1 DUP2 ISZERO PUSH2 0x1BD6 JUMPI PUSH1 0x0 SWAP2 PUSH2 0x1BA8 JUMPI JUMPDEST POP SWAP1 JUMP JUMPDEST PUSH2 0x1BC9 SWAP2 POP PUSH1 0x20 RETURNDATASIZE DUP2 GT PUSH2 0x1BCF JUMPI JUMPDEST PUSH2 0x1BC1 DUP2 DUP4 PUSH2 0x7B4 JUMP JUMPDEST DUP2 ADD SWAP1 PUSH2 0x1834 JUMP JUMPDEST CODESIZE PUSH2 0x1BA4 JUMP JUMPDEST POP RETURNDATASIZE PUSH2 0x1BB7 JUMP JUMPDEST PUSH2 0x1B29 JUMP JUMPDEST PUSH1 0x20 PUSH32 0x207A65726F000000000000000000000000000000000000000000000000000000 SWAP2 PUSH32 0x45524332303A2064656372656173656420616C6C6F77616E63652062656C6F77 PUSH1 0x0 DUP3 ADD MSTORE ADD MSTORE JUMP JUMPDEST PUSH2 0x1C36 PUSH1 0x25 PUSH1 0x40 SWAP3 PUSH2 0x2A8 JUMP JUMPDEST PUSH2 0x1C3F DUP2 PUSH2 0x1BDB JUMP JUMPDEST ADD SWAP1 JUMP JUMPDEST PUSH2 0x1C59 SWAP1 PUSH1 0x20 DUP2 ADD SWAP1 PUSH1 0x0 DUP2 DUP4 SUB SWAP2 ADD MSTORE PUSH2 0x1C29 JUMP JUMPDEST SWAP1 JUMP JUMPDEST ISZERO PUSH2 0x1C63 JUMPI JUMP JUMPDEST PUSH2 0x1C6B PUSH2 0x1D3 JUMP JUMPDEST PUSH3 0x461BCD PUSH1 0xE5 SHL DUP2 MSTORE DUP1 PUSH2 0x1C81 PUSH1 0x4 DUP3 ADD PUSH2 0x1C43 JUMP JUMPDEST SUB SWAP1 REVERT JUMPDEST SWAP1 PUSH2 0x1C90 SWAP2 SUB PUSH2 0x39A JUMP JUMPDEST SWAP1 JUMP JUMPDEST PUSH2 0x1CE2 SWAP2 PUSH2 0x1C9F PUSH2 0xDD4 JUMP JUMPDEST POP PUSH2 0x1CDC PUSH2 0x1CAB PUSH2 0x1E83 JUMP JUMPDEST SWAP2 PUSH2 0x1CB7 DUP4 DUP6 SWAP1 PUSH2 0x1D7D JUMP JUMPDEST SWAP3 PUSH2 0x1CD5 DUP5 PUSH2 0x1CCE PUSH2 0x1CC8 DUP6 PUSH2 0x39A JUMP JUMPDEST SWAP2 PUSH2 0x39A JUMP JUMPDEST LT ISZERO PUSH2 0x1C5C JUMP JUMPDEST SWAP4 SWAP3 PUSH2 0x1C85 JUMP JUMPDEST SWAP2 PUSH2 0x202C JUMP JUMPDEST PUSH1 0x1 SWAP1 JUMP JUMPDEST PUSH2 0x1D04 SWAP2 PUSH2 0x1CF3 PUSH2 0xDD4 JUMP JUMPDEST POP PUSH2 0x1CFC PUSH2 0x1E83 JUMP JUMPDEST SWAP2 SWAP1 SWAP2 PUSH2 0x23F6 JUMP JUMPDEST PUSH1 0x1 SWAP1 JUMP JUMPDEST PUSH2 0x1D28 PUSH2 0x1D23 PUSH2 0x1D2D SWAP3 PUSH2 0x1D1B PUSH2 0x106A JUMP JUMPDEST POP PUSH1 0x6 PUSH2 0x160E JUMP JUMPDEST PUSH2 0x1626 JUMP JUMPDEST PUSH2 0x2ACB JUMP JUMPDEST SWAP1 JUMP JUMPDEST SWAP1 PUSH2 0x1D4B SWAP2 PUSH2 0x1D46 PUSH2 0x1D41 DUP3 PUSH2 0x112B JUMP JUMPDEST PUSH2 0x20EA JUMP JUMPDEST PUSH2 0x1D4D JUMP JUMPDEST JUMP JUMPDEST SWAP1 PUSH2 0x1D57 SWAP2 PUSH2 0x2536 JUMP JUMPDEST JUMP JUMPDEST SWAP1 PUSH2 0x1D63 SWAP2 PUSH2 0x1D30 JUMP JUMPDEST JUMP JUMPDEST SWAP1 PUSH2 0x1D6F SWAP1 PUSH2 0x15C6 JUMP JUMPDEST PUSH1 0x0 MSTORE PUSH1 0x20 MSTORE PUSH1 0x40 PUSH1 0x0 KECCAK256 SWAP1 JUMP JUMPDEST PUSH2 0x1DA2 SWAP2 PUSH2 0x1D98 PUSH2 0x1D9D SWAP3 PUSH2 0x1D90 PUSH2 0x106A JUMP JUMPDEST POP PUSH1 0x1 PUSH2 0x1D65 JUMP JUMPDEST PUSH2 0x15D2 JUMP JUMPDEST PUSH2 0x108C JUMP JUMPDEST SWAP1 JUMP JUMPDEST PUSH2 0x1DBE SWAP1 PUSH2 0x1DB9 PUSH2 0x1DB4 PUSH2 0xF8A JUMP JUMPDEST PUSH2 0x20EA JUMP JUMPDEST PUSH2 0x1E03 JUMP JUMPDEST JUMP JUMPDEST SWAP1 PUSH2 0x1DCD PUSH1 0x0 NOT SWAP2 PUSH2 0xBF4 JUMP JUMPDEST SWAP2 DUP2 NOT AND SWAP2 AND OR SWAP1 JUMP JUMPDEST PUSH2 0x1DE0 SWAP1 PUSH2 0x106F JUMP JUMPDEST SWAP1 JUMP JUMPDEST SWAP1 PUSH2 0x1DF8 PUSH2 0x1DF3 PUSH2 0x1DFF SWAP3 PUSH2 0x10E3 JUMP JUMPDEST PUSH2 0x1DD7 JUMP JUMPDEST DUP3 SLOAD PUSH2 0x1DC0 JUMP JUMPDEST SWAP1 SSTORE JUMP JUMPDEST PUSH2 0x1E0E SWAP1 PUSH1 0x8 PUSH2 0x1DE3 JUMP JUMPDEST JUMP JUMPDEST PUSH2 0x1E19 SWAP1 PUSH2 0x1DA5 JUMP JUMPDEST JUMP JUMPDEST PUSH2 0x1E23 PUSH2 0xDD4 JUMP JUMPDEST POP DUP1 PUSH2 0x1E3E PUSH2 0x1E38 PUSH4 0x36372B07 PUSH1 0xE0 SHL PUSH2 0x1E8 JUMP JUMPDEST SWAP2 PUSH2 0x1E8 JUMP JUMPDEST EQ DUP1 ISZERO PUSH2 0x1E62 JUMPI JUMPDEST SWAP1 DUP2 ISZERO PUSH2 0x1E52 JUMPI JUMPDEST POP SWAP1 JUMP JUMPDEST PUSH2 0x1E5C SWAP2 POP PUSH2 0x2AEB JUMP JUMPDEST CODESIZE PUSH2 0x1E4E JUMP JUMPDEST POP DUP1 PUSH2 0x1E7D PUSH2 0x1E77 PUSH4 0xA219A025 PUSH1 0xE0 SHL PUSH2 0x1E8 JUMP JUMPDEST SWAP2 PUSH2 0x1E8 JUMP JUMPDEST EQ PUSH2 0x1E46 JUMP JUMPDEST PUSH2 0x1E8B PUSH2 0x1609 JUMP JUMPDEST POP CALLER SWAP1 JUMP JUMPDEST PUSH2 0x1EA4 PUSH2 0x1E9F PUSH2 0x1EA9 SWAP3 PUSH2 0xBF1 JUMP JUMPDEST PUSH2 0xFC9 JUMP JUMPDEST PUSH2 0x35F JUMP JUMPDEST SWAP1 JUMP JUMPDEST PUSH2 0x1EB5 SWAP1 PUSH2 0x1E90 JUMP JUMPDEST SWAP1 JUMP JUMPDEST PUSH1 0x20 PUSH32 0x7265737300000000000000000000000000000000000000000000000000000000 SWAP2 PUSH32 0x45524332303A20617070726F76652066726F6D20746865207A65726F20616464 PUSH1 0x0 DUP3 ADD MSTORE ADD MSTORE JUMP JUMPDEST PUSH2 0x1F13 PUSH1 0x24 PUSH1 0x40 SWAP3 PUSH2 0x2A8 JUMP JUMPDEST PUSH2 0x1F1C DUP2 PUSH2 0x1EB8 JUMP JUMPDEST ADD SWAP1 JUMP JUMPDEST PUSH2 0x1F36 SWAP1 PUSH1 0x20 DUP2 ADD SWAP1 PUSH1 0x0 DUP2 DUP4 SUB SWAP2 ADD MSTORE PUSH2 0x1F06 JUMP JUMPDEST SWAP1 JUMP JUMPDEST ISZERO PUSH2 0x1F40 JUMPI JUMP JUMPDEST PUSH2 0x1F48 PUSH2 0x1D3 JUMP JUMPDEST PUSH3 0x461BCD PUSH1 0xE5 SHL DUP2 MSTORE DUP1 PUSH2 0x1F5E PUSH1 0x4 DUP3 ADD PUSH2 0x1F20 JUMP JUMPDEST SUB SWAP1 REVERT JUMPDEST PUSH1 0x20 PUSH32 0x7373000000000000000000000000000000000000000000000000000000000000 SWAP2 PUSH32 0x45524332303A20617070726F766520746F20746865207A65726F206164647265 PUSH1 0x0 DUP3 ADD MSTORE ADD MSTORE JUMP JUMPDEST PUSH2 0x1FBD PUSH1 0x22 PUSH1 0x40 SWAP3 PUSH2 0x2A8 JUMP JUMPDEST PUSH2 0x1FC6 DUP2 PUSH2 0x1F62 JUMP JUMPDEST ADD SWAP1 JUMP JUMPDEST PUSH2 0x1FE0 SWAP1 PUSH1 0x20 DUP2 ADD SWAP1 PUSH1 0x0 DUP2 DUP4 SUB SWAP2 ADD MSTORE PUSH2 0x1FB0 JUMP JUMPDEST SWAP1 JUMP JUMPDEST ISZERO PUSH2 0x1FEA JUMPI JUMP JUMPDEST PUSH2 0x1FF2 PUSH2 0x1D3 JUMP JUMPDEST PUSH3 0x461BCD PUSH1 0xE5 SHL DUP2 MSTORE DUP1 PUSH2 0x2008 PUSH1 0x4 DUP3 ADD PUSH2 0x1FCA JUMP JUMPDEST SUB SWAP1 REVERT JUMPDEST SWAP1 PUSH2 0x2021 PUSH2 0x201C PUSH2 0x2028 SWAP3 PUSH2 0x13C1 JUMP JUMPDEST PUSH2 0x13DD JUMP JUMPDEST DUP3 SLOAD PUSH2 0x1DC0 JUMP JUMPDEST SWAP1 SSTORE JUMP JUMPDEST SWAP2 SWAP1 SWAP2 PUSH2 0x2055 DUP2 PUSH2 0x204E PUSH2 0x2048 PUSH2 0x2043 PUSH1 0x0 PUSH2 0x1EAC JUMP JUMPDEST PUSH2 0x36A JUMP JUMPDEST SWAP2 PUSH2 0x36A JUMP JUMPDEST EQ ISZERO PUSH2 0x1F39 JUMP JUMPDEST PUSH2 0x207B DUP4 PUSH2 0x2074 PUSH2 0x206E PUSH2 0x2069 PUSH1 0x0 PUSH2 0x1EAC JUMP JUMPDEST PUSH2 0x36A JUMP JUMPDEST SWAP2 PUSH2 0x36A JUMP JUMPDEST EQ ISZERO PUSH2 0x1FE3 JUMP JUMPDEST PUSH2 0x209A DUP3 PUSH2 0x2095 PUSH2 0x208E PUSH1 0x1 DUP6 SWAP1 PUSH2 0x1D65 JUMP JUMPDEST DUP7 SWAP1 PUSH2 0x15D2 JUMP JUMPDEST PUSH2 0x200C JUMP JUMPDEST SWAP2 SWAP1 SWAP2 PUSH2 0x20E5 PUSH2 0x20D3 PUSH2 0x20CD PUSH32 0x8C5BE1E5EBEC7D5BD14F71427D1E84F3DD0314C0F7B2291E5B200AC8C7C3B925 SWAP4 PUSH2 0x15C6 JUMP JUMPDEST SWAP4 PUSH2 0x15C6 JUMP JUMPDEST SWAP4 PUSH2 0x20DC PUSH2 0x1D3 JUMP JUMPDEST SWAP2 DUP3 SWAP2 DUP3 PUSH2 0x48A JUMP JUMPDEST SUB SWAP1 LOG3 JUMP JUMPDEST PUSH2 0x20FC SWAP1 PUSH2 0x20F6 PUSH2 0x1E83 JUMP JUMPDEST SWAP1 PUSH2 0x2C13 JUMP JUMPDEST JUMP JUMPDEST PUSH1 0x0 PUSH32 0x45524332303A20696E73756666696369656E7420616C6C6F77616E6365000000 SWAP2 ADD MSTORE JUMP JUMPDEST PUSH2 0x2133 PUSH1 0x1D PUSH1 0x20 SWAP3 PUSH2 0x2A8 JUMP JUMPDEST PUSH2 0x213C DUP2 PUSH2 0x20FE JUMP JUMPDEST ADD SWAP1 JUMP JUMPDEST PUSH2 0x2156 SWAP1 PUSH1 0x20 DUP2 ADD SWAP1 PUSH1 0x0 DUP2 DUP4 SUB SWAP2 ADD MSTORE PUSH2 0x2126 JUMP JUMPDEST SWAP1 JUMP JUMPDEST ISZERO PUSH2 0x2160 JUMPI JUMP JUMPDEST PUSH2 0x2168 PUSH2 0x1D3 JUMP JUMPDEST PUSH3 0x461BCD PUSH1 0xE5 SHL DUP2 MSTORE DUP1 PUSH2 0x217E PUSH1 0x4 DUP3 ADD PUSH2 0x2140 JUMP JUMPDEST SUB SWAP1 REVERT JUMPDEST PUSH2 0x218D DUP2 DUP4 SWAP1 PUSH2 0x1D7D JUMP JUMPDEST SWAP1 DUP2 PUSH2 0x21A3 PUSH2 0x219D PUSH1 0x0 NOT PUSH2 0x39A JUMP JUMPDEST SWAP2 PUSH2 0x39A JUMP JUMPDEST SUB PUSH2 0x21AF JUMPI JUMPDEST POP POP POP POP JUMP JUMPDEST PUSH2 0x21E1 SWAP4 PUSH2 0x21DB SWAP2 PUSH2 0x21D4 DUP5 PUSH2 0x21CD PUSH2 0x21C7 DUP6 PUSH2 0x39A JUMP JUMPDEST SWAP2 PUSH2 0x39A JUMP JUMPDEST LT ISZERO PUSH2 0x2159 JUMP JUMPDEST SWAP4 SWAP3 PUSH2 0x1C85 JUMP JUMPDEST SWAP2 PUSH2 0x202C JUMP JUMPDEST CODESIZE DUP1 DUP1 DUP1 PUSH2 0x21A9 JUMP JUMPDEST PUSH1 0x20 PUSH32 0x6472657373000000000000000000000000000000000000000000000000000000 SWAP2 PUSH32 0x45524332303A207472616E736665722066726F6D20746865207A65726F206164 PUSH1 0x0 DUP3 ADD MSTORE ADD MSTORE JUMP JUMPDEST PUSH2 0x2245 PUSH1 0x25 PUSH1 0x40 SWAP3 PUSH2 0x2A8 JUMP JUMPDEST PUSH2 0x224E DUP2 PUSH2 0x21EA JUMP JUMPDEST ADD SWAP1 JUMP JUMPDEST PUSH2 0x2268 SWAP1 PUSH1 0x20 DUP2 ADD SWAP1 PUSH1 0x0 DUP2 DUP4 SUB SWAP2 ADD MSTORE PUSH2 0x2238 JUMP JUMPDEST SWAP1 JUMP JUMPDEST ISZERO PUSH2 0x2272 JUMPI JUMP JUMPDEST PUSH2 0x227A PUSH2 0x1D3 JUMP JUMPDEST PUSH3 0x461BCD PUSH1 0xE5 SHL DUP2 MSTORE DUP1 PUSH2 0x2290 PUSH1 0x4 DUP3 ADD PUSH2 0x2252 JUMP JUMPDEST SUB SWAP1 REVERT JUMPDEST PUSH1 0x20 PUSH32 0x6573730000000000000000000000000000000000000000000000000000000000 SWAP2 PUSH32 0x45524332303A207472616E7366657220746F20746865207A65726F2061646472 PUSH1 0x0 DUP3 ADD MSTORE ADD MSTORE JUMP JUMPDEST PUSH2 0x22EF PUSH1 0x23 PUSH1 0x40 SWAP3 PUSH2 0x2A8 JUMP JUMPDEST PUSH2 0x22F8 DUP2 PUSH2 0x2294 JUMP JUMPDEST ADD SWAP1 JUMP JUMPDEST PUSH2 0x2312 SWAP1 PUSH1 0x20 DUP2 ADD SWAP1 PUSH1 0x0 DUP2 DUP4 SUB SWAP2 ADD MSTORE PUSH2 0x22E2 JUMP JUMPDEST SWAP1 JUMP JUMPDEST ISZERO PUSH2 0x231C JUMPI JUMP JUMPDEST PUSH2 0x2324 PUSH2 0x1D3 JUMP JUMPDEST PUSH3 0x461BCD PUSH1 0xE5 SHL DUP2 MSTORE DUP1 PUSH2 0x233A PUSH1 0x4 DUP3 ADD PUSH2 0x22FC JUMP JUMPDEST SUB SWAP1 REVERT JUMPDEST PUSH1 0x20 PUSH32 0x616C616E63650000000000000000000000000000000000000000000000000000 SWAP2 PUSH32 0x45524332303A207472616E7366657220616D6F756E7420657863656564732062 PUSH1 0x0 DUP3 ADD MSTORE ADD MSTORE JUMP JUMPDEST PUSH2 0x2399 PUSH1 0x26 PUSH1 0x40 SWAP3 PUSH2 0x2A8 JUMP JUMPDEST PUSH2 0x23A2 DUP2 PUSH2 0x233E JUMP JUMPDEST ADD SWAP1 JUMP JUMPDEST PUSH2 0x23BC SWAP1 PUSH1 0x20 DUP2 ADD SWAP1 PUSH1 0x0 DUP2 DUP4 SUB SWAP2 ADD MSTORE PUSH2 0x238C JUMP JUMPDEST SWAP1 JUMP JUMPDEST ISZERO PUSH2 0x23C6 JUMPI JUMP JUMPDEST PUSH2 0x23CE PUSH2 0x1D3 JUMP JUMPDEST PUSH3 0x461BCD PUSH1 0xE5 SHL DUP2 MSTORE DUP1 PUSH2 0x23E4 PUSH1 0x4 DUP3 ADD PUSH2 0x23A6 JUMP JUMPDEST SUB SWAP1 REVERT JUMPDEST SWAP1 PUSH2 0x23F3 SWAP2 ADD PUSH2 0x39A JUMP JUMPDEST SWAP1 JUMP JUMPDEST SWAP2 SWAP1 SWAP2 PUSH2 0x241F DUP2 PUSH2 0x2418 PUSH2 0x2412 PUSH2 0x240D PUSH1 0x0 PUSH2 0x1EAC JUMP JUMPDEST PUSH2 0x36A JUMP JUMPDEST SWAP2 PUSH2 0x36A JUMP JUMPDEST EQ ISZERO PUSH2 0x226B JUMP JUMPDEST PUSH2 0x2445 DUP4 PUSH2 0x243E PUSH2 0x2438 PUSH2 0x2433 PUSH1 0x0 PUSH2 0x1EAC JUMP JUMPDEST PUSH2 0x36A JUMP JUMPDEST SWAP2 PUSH2 0x36A JUMP JUMPDEST EQ ISZERO PUSH2 0x2315 JUMP JUMPDEST PUSH2 0x2494 PUSH2 0x2483 PUSH2 0x245F PUSH2 0x245A PUSH1 0x0 DUP6 SWAP1 PUSH2 0x15D2 JUMP JUMPDEST PUSH2 0x108C JUMP JUMPDEST PUSH2 0x247C DUP2 PUSH2 0x2475 PUSH2 0x246F DUP9 PUSH2 0x39A JUMP JUMPDEST SWAP2 PUSH2 0x39A JUMP JUMPDEST LT ISZERO PUSH2 0x23BF JUMP JUMPDEST DUP5 SWAP1 PUSH2 0x1C85 JUMP JUMPDEST PUSH2 0x248F PUSH1 0x0 DUP5 SWAP1 PUSH2 0x15D2 JUMP JUMPDEST PUSH2 0x200C JUMP JUMPDEST PUSH2 0x24BC DUP3 PUSH2 0x24B6 PUSH2 0x24A7 PUSH1 0x0 DUP8 SWAP1 PUSH2 0x15D2 JUMP JUMPDEST SWAP2 PUSH2 0x24B1 DUP4 PUSH2 0x108C JUMP JUMPDEST PUSH2 0x23E8 JUMP JUMPDEST SWAP1 PUSH2 0x200C JUMP JUMPDEST SWAP2 SWAP1 SWAP2 PUSH2 0x2507 PUSH2 0x24F5 PUSH2 0x24EF PUSH32 0xDDF252AD1BE2C89B69C2B068FC378DAA952BA7F163C4A11628F55A4DF523B3EF SWAP4 PUSH2 0x15C6 JUMP JUMPDEST SWAP4 PUSH2 0x15C6 JUMP JUMPDEST SWAP4 PUSH2 0x24FE PUSH2 0x1D3 JUMP JUMPDEST SWAP2 DUP3 SWAP2 DUP3 PUSH2 0x48A JUMP JUMPDEST SUB SWAP1 LOG3 JUMP JUMPDEST SWAP1 PUSH2 0x252E PUSH2 0x2529 PUSH2 0x2533 SWAP4 PUSH2 0x2522 DUP2 DUP6 SWAP1 PUSH2 0x2CCC JUMP JUMPDEST PUSH1 0x6 PUSH2 0x160E JUMP JUMPDEST PUSH2 0x1626 JUMP JUMPDEST PUSH2 0x2DB3 JUMP JUMPDEST POP JUMP JUMPDEST SWAP1 PUSH2 0x2558 PUSH2 0x2553 PUSH2 0x255D SWAP4 PUSH2 0x254C DUP2 DUP6 SWAP1 PUSH2 0x2DEE JUMP JUMPDEST PUSH1 0x6 PUSH2 0x160E JUMP JUMPDEST PUSH2 0x1626 JUMP JUMPDEST PUSH2 0x2E88 JUMP JUMPDEST POP JUMP JUMPDEST PUSH1 0x0 PUSH32 0x45524332303A206D696E7420746F20746865207A65726F206164647265737300 SWAP2 ADD MSTORE JUMP JUMPDEST PUSH2 0x2595 PUSH1 0x1F PUSH1 0x20 SWAP3 PUSH2 0x2A8 JUMP JUMPDEST PUSH2 0x259E DUP2 PUSH2 0x2560 JUMP JUMPDEST ADD SWAP1 JUMP JUMPDEST PUSH2 0x25B8 SWAP1 PUSH1 0x20 DUP2 ADD SWAP1 PUSH1 0x0 DUP2 DUP4 SUB SWAP2 ADD MSTORE PUSH2 0x2588 JUMP JUMPDEST SWAP1 JUMP JUMPDEST ISZERO PUSH2 0x25C2 JUMPI JUMP JUMPDEST PUSH2 0x25CA PUSH2 0x1D3 JUMP JUMPDEST PUSH3 0x461BCD PUSH1 0xE5 SHL DUP2 MSTORE DUP1 PUSH2 0x25E0 PUSH1 0x4 DUP3 ADD PUSH2 0x25A2 JUMP JUMPDEST SUB SWAP1 REVERT JUMPDEST SWAP1 PUSH2 0x260B DUP3 PUSH2 0x2604 PUSH2 0x25FE PUSH2 0x25F9 PUSH1 0x0 PUSH2 0x1EAC JUMP JUMPDEST PUSH2 0x36A JUMP JUMPDEST SWAP2 PUSH2 0x36A JUMP JUMPDEST EQ ISZERO PUSH2 0x25BB JUMP JUMPDEST PUSH2 0x2628 PUSH2 0x2621 DUP3 PUSH2 0x261C PUSH1 0x2 PUSH2 0x108C JUMP JUMPDEST PUSH2 0x12B3 JUMP JUMPDEST PUSH1 0x2 PUSH2 0x200C JUMP JUMPDEST PUSH2 0x2650 DUP2 PUSH2 0x264A PUSH2 0x263B PUSH1 0x0 DUP7 SWAP1 PUSH2 0x15D2 JUMP JUMPDEST SWAP2 PUSH2 0x2645 DUP4 PUSH2 0x108C JUMP JUMPDEST PUSH2 0x23E8 JUMP JUMPDEST SWAP1 PUSH2 0x200C JUMP JUMPDEST PUSH2 0x265A PUSH1 0x0 PUSH2 0x1EAC JUMP JUMPDEST SWAP2 SWAP1 SWAP2 PUSH2 0x26A5 PUSH2 0x2693 PUSH2 0x268D PUSH32 0xDDF252AD1BE2C89B69C2B068FC378DAA952BA7F163C4A11628F55A4DF523B3EF SWAP4 PUSH2 0x15C6 JUMP JUMPDEST SWAP4 PUSH2 0x15C6 JUMP JUMPDEST SWAP4 PUSH2 0x269C PUSH2 0x1D3 JUMP JUMPDEST SWAP2 DUP3 SWAP2 DUP3 PUSH2 0x48A JUMP JUMPDEST SUB SWAP1 LOG3 JUMP JUMPDEST PUSH1 0x20 PUSH32 0x7300000000000000000000000000000000000000000000000000000000000000 SWAP2 PUSH32 0x45524332303A206275726E2066726F6D20746865207A65726F20616464726573 PUSH1 0x0 DUP3 ADD MSTORE ADD MSTORE JUMP JUMPDEST PUSH2 0x2705 PUSH1 0x21 PUSH1 0x40 SWAP3 PUSH2 0x2A8 JUMP JUMPDEST PUSH2 0x270E DUP2 PUSH2 0x26AA JUMP JUMPDEST ADD SWAP1 JUMP JUMPDEST PUSH2 0x2728 SWAP1 PUSH1 0x20 DUP2 ADD SWAP1 PUSH1 0x0 DUP2 DUP4 SUB SWAP2 ADD MSTORE PUSH2 0x26F8 JUMP JUMPDEST SWAP1 JUMP JUMPDEST ISZERO PUSH2 0x2732 JUMPI JUMP JUMPDEST PUSH2 0x273A PUSH2 0x1D3 JUMP JUMPDEST PUSH3 0x461BCD PUSH1 0xE5 SHL DUP2 MSTORE DUP1 PUSH2 0x2750 PUSH1 0x4 DUP3 ADD PUSH2 0x2712 JUMP JUMPDEST SUB SWAP1 REVERT JUMPDEST PUSH1 0x20 PUSH32 0x6365000000000000000000000000000000000000000000000000000000000000 SWAP2 PUSH32 0x45524332303A206275726E20616D6F756E7420657863656564732062616C616E PUSH1 0x0 DUP3 ADD MSTORE ADD MSTORE JUMP JUMPDEST PUSH2 0x27AF PUSH1 0x22 PUSH1 0x40 SWAP3 PUSH2 0x2A8 JUMP JUMPDEST PUSH2 0x27B8 DUP2 PUSH2 0x2754 JUMP JUMPDEST ADD SWAP1 JUMP JUMPDEST PUSH2 0x27D2 SWAP1 PUSH1 0x20 DUP2 ADD SWAP1 PUSH1 0x0 DUP2 DUP4 SUB SWAP2 ADD MSTORE PUSH2 0x27A2 JUMP JUMPDEST SWAP1 JUMP JUMPDEST ISZERO PUSH2 0x27DC JUMPI JUMP JUMPDEST PUSH2 0x27E4 PUSH2 0x1D3 JUMP JUMPDEST PUSH3 0x461BCD PUSH1 0xE5 SHL DUP2 MSTORE DUP1 PUSH2 0x27FA PUSH1 0x4 DUP3 ADD PUSH2 0x27BC JUMP JUMPDEST SUB SWAP1 REVERT JUMPDEST PUSH2 0x2824 DUP2 PUSH2 0x281D PUSH2 0x2817 PUSH2 0x2812 PUSH1 0x0 PUSH2 0x1EAC JUMP JUMPDEST PUSH2 0x36A JUMP JUMPDEST SWAP2 PUSH2 0x36A JUMP JUMPDEST EQ ISZERO PUSH2 0x272B JUMP JUMPDEST PUSH2 0x2873 PUSH2 0x2862 PUSH2 0x283E PUSH2 0x2839 PUSH1 0x0 DUP6 SWAP1 PUSH2 0x15D2 JUMP JUMPDEST PUSH2 0x108C JUMP JUMPDEST PUSH2 0x285B DUP2 PUSH2 0x2854 PUSH2 0x284E DUP9 PUSH2 0x39A JUMP JUMPDEST SWAP2 PUSH2 0x39A JUMP JUMPDEST LT ISZERO PUSH2 0x27D5 JUMP JUMPDEST DUP5 SWAP1 PUSH2 0x1C85 JUMP JUMPDEST PUSH2 0x286E PUSH1 0x0 DUP5 SWAP1 PUSH2 0x15D2 JUMP JUMPDEST PUSH2 0x200C JUMP JUMPDEST PUSH2 0x2890 PUSH2 0x2889 DUP4 PUSH2 0x2884 PUSH1 0x2 PUSH2 0x108C JUMP JUMPDEST PUSH2 0x1C85 JUMP JUMPDEST PUSH1 0x2 PUSH2 0x200C JUMP JUMPDEST SWAP1 PUSH2 0x289B PUSH1 0x0 PUSH2 0x1EAC JUMP JUMPDEST SWAP1 SWAP2 PUSH2 0x28E5 PUSH2 0x28D3 PUSH2 0x28CD PUSH32 0xDDF252AD1BE2C89B69C2B068FC378DAA952BA7F163C4A11628F55A4DF523B3EF SWAP4 PUSH2 0x15C6 JUMP JUMPDEST SWAP4 PUSH2 0x15C6 JUMP JUMPDEST SWAP4 PUSH2 0x28DC PUSH2 0x1D3 JUMP JUMPDEST SWAP2 DUP3 SWAP2 DUP3 PUSH2 0x48A JUMP JUMPDEST SUB SWAP1 LOG3 JUMP JUMPDEST SWAP1 JUMP JUMPDEST PUSH2 0x28F9 PUSH2 0x28FE SWAP2 PUSH2 0x106F JUMP JUMPDEST PUSH2 0x13C1 JUMP JUMPDEST SWAP1 JUMP JUMPDEST PUSH2 0x2915 PUSH2 0x2910 PUSH2 0x291A SWAP3 PUSH2 0x39A JUMP JUMPDEST PUSH2 0xFC9 JUMP JUMPDEST PUSH2 0x35F JUMP JUMPDEST SWAP1 JUMP JUMPDEST PUSH2 0x2949 PUSH2 0x2944 PUSH2 0x2953 SWAP4 PUSH2 0x293F PUSH1 0x0 PUSH2 0x294E SWAP6 PUSH2 0x2938 PUSH2 0x1609 JUMP JUMPDEST POP ADD PUSH2 0x28EA JUMP JUMPDEST PUSH2 0x2F37 JUMP JUMPDEST PUSH2 0x28ED JUMP JUMPDEST PUSH2 0x2901 JUMP JUMPDEST PUSH2 0x15BA JUMP JUMPDEST SWAP1 JUMP JUMPDEST PUSH1 0x8 SHR SWAP1 JUMP JUMPDEST PUSH2 0x2968 PUSH2 0x296D SWAP2 PUSH2 0x2956 JUMP JUMPDEST PUSH2 0x1669 JUMP JUMPDEST SWAP1 JUMP JUMPDEST PUSH2 0x297A SWAP1 SLOAD PUSH2 0x295C JUMP JUMPDEST SWAP1 JUMP JUMPDEST SWAP1 PUSH2 0x2989 PUSH1 0xFF SWAP2 PUSH2 0xBF4 JUMP JUMPDEST SWAP2 DUP2 NOT AND SWAP2 AND OR SWAP1 JUMP JUMPDEST PUSH2 0x29A7 PUSH2 0x29A2 PUSH2 0x29AC SWAP3 PUSH2 0x646 JUMP JUMPDEST PUSH2 0xFC9 JUMP JUMPDEST PUSH2 0x646 JUMP JUMPDEST SWAP1 JUMP JUMPDEST SWAP1 JUMP JUMPDEST SWAP1 PUSH2 0x29C7 PUSH2 0x29C2 PUSH2 0x29CE SWAP3 PUSH2 0x2993 JUMP JUMPDEST PUSH2 0x29AF JUMP JUMPDEST DUP3 SLOAD PUSH2 0x297D JUMP JUMPDEST SWAP1 SSTORE JUMP JUMPDEST PUSH1 0x8 SHL SWAP1 JUMP JUMPDEST SWAP1 PUSH2 0x29E5 PUSH2 0xFF00 SWAP2 PUSH2 0x29D2 JUMP JUMPDEST SWAP2 DUP2 NOT AND SWAP2 AND OR SWAP1 JUMP JUMPDEST SWAP1 PUSH2 0x2A04 PUSH2 0x29FF PUSH2 0x2A0B SWAP3 PUSH2 0x1716 JUMP JUMPDEST PUSH2 0x1722 JUMP JUMPDEST DUP3 SLOAD PUSH2 0x29D8 JUMP JUMPDEST SWAP1 SSTORE JUMP JUMPDEST SWAP2 SWAP1 SWAP5 SWAP3 CALLER PUSH2 0x2A46 PUSH2 0x2A40 PUSH32 0x0 PUSH2 0x36A JUMP JUMPDEST SWAP2 PUSH2 0x36A JUMP JUMPDEST EQ ISZERO DUP1 ISZERO PUSH2 0x2ABB JUMPI JUMPDEST PUSH2 0x2A9E JUMPI PUSH2 0x2A6F PUSH2 0x2A76 SWAP3 PUSH2 0x2A68 PUSH2 0x2A90 SWAP9 PUSH1 0x9 PUSH2 0x158A JUMP JUMPDEST PUSH1 0xA PUSH2 0x158A JUMP JUMPDEST PUSH1 0xB PUSH2 0x29B2 JUMP JUMPDEST PUSH2 0x2A88 PUSH2 0x2A81 PUSH2 0xC16 JUMP JUMPDEST DUP3 SWAP1 PUSH2 0x250C JUMP JUMPDEST SWAP2 SWAP1 SWAP2 PUSH2 0x2F59 JUMP JUMPDEST PUSH2 0x2A9C PUSH1 0x1 PUSH1 0xB PUSH2 0x29EF JUMP JUMPDEST JUMP JUMPDEST PUSH1 0x0 PUSH4 0xF92EE8A9 PUSH1 0xE0 SHL DUP2 MSTORE DUP1 PUSH2 0x2AB7 PUSH1 0x4 DUP3 ADD PUSH2 0x444 JUMP JUMPDEST SUB SWAP1 REVERT JUMPDEST POP PUSH2 0x2AC6 PUSH1 0xB PUSH2 0x2970 JUMP JUMPDEST PUSH2 0x2A4F JUMP JUMPDEST PUSH2 0x2AE3 PUSH1 0x0 PUSH2 0x2AE8 SWAP3 PUSH2 0x2ADC PUSH2 0x106A JUMP JUMPDEST POP ADD PUSH2 0x28EA JUMP JUMPDEST PUSH2 0x2F76 JUMP JUMPDEST SWAP1 JUMP JUMPDEST PUSH2 0x2AF3 PUSH2 0xDD4 JUMP JUMPDEST POP PUSH2 0x2AFD DUP2 PUSH2 0x2F8E JUMP JUMPDEST SWAP1 DUP2 ISZERO PUSH2 0x2B09 JUMPI JUMPDEST POP SWAP1 JUMP JUMPDEST PUSH2 0x2B13 SWAP2 POP PUSH2 0x2FCE JUMP JUMPDEST CODESIZE PUSH2 0x2B05 JUMP JUMPDEST SWAP1 JUMP JUMPDEST PUSH2 0x2B30 PUSH2 0x2B2B PUSH2 0x2B35 SWAP3 PUSH2 0x2B19 JUMP JUMPDEST PUSH2 0xFC9 JUMP JUMPDEST PUSH2 0x39A JUMP JUMPDEST SWAP1 JUMP JUMPDEST SWAP1 POP SWAP1 JUMP JUMPDEST PUSH1 0x0 PUSH32 0x416363657373436F6E74726F6C3A206163636F756E7420000000000000000000 SWAP2 ADD MSTORE JUMP JUMPDEST PUSH2 0x2B71 PUSH1 0x17 DUP1 SWAP3 PUSH2 0x2B38 JUMP JUMPDEST PUSH2 0x2B7A DUP2 PUSH2 0x2B3D JUMP JUMPDEST ADD SWAP1 JUMP JUMPDEST PUSH2 0x2BA3 PUSH2 0x2B9A SWAP3 PUSH1 0x20 SWAP3 PUSH2 0x2B91 DUP2 PUSH2 0x2A4 JUMP JUMPDEST SWAP5 DUP6 DUP1 SWAP4 PUSH2 0x2B38 JUMP JUMPDEST SWAP4 DUP5 SWAP2 ADD PUSH2 0x2B1 JUMP JUMPDEST ADD SWAP1 JUMP JUMPDEST PUSH1 0x0 PUSH32 0x206973206D697373696E6720726F6C6520000000000000000000000000000000 SWAP2 ADD MSTORE JUMP JUMPDEST PUSH2 0x2BDB PUSH1 0x11 DUP1 SWAP3 PUSH2 0x2B38 JUMP JUMPDEST PUSH2 0x2BE4 DUP2 PUSH2 0x2BA7 JUMP JUMPDEST ADD SWAP1 JUMP JUMPDEST PUSH2 0x2C02 PUSH2 0x2C0D SWAP4 SWAP3 PUSH2 0x2BFC PUSH2 0x2C07 SWAP4 PUSH2 0x2B65 JUMP JUMPDEST SWAP1 PUSH2 0x2B7E JUMP JUMPDEST PUSH2 0x2BCF JUMP JUMPDEST SWAP1 PUSH2 0x2B7E JUMP JUMPDEST SWAP1 JUMP JUMPDEST SWAP1 JUMP JUMPDEST SWAP1 PUSH2 0x2C28 PUSH2 0x2C22 DUP4 DUP4 SWAP1 PUSH2 0x1690 JUMP JUMPDEST ISZERO PUSH2 0x237 JUMP JUMPDEST PUSH2 0x2C30 JUMPI POP POP JUMP JUMPDEST PUSH2 0x2CA8 SWAP2 PUSH2 0x2C86 PUSH2 0x2C5F PUSH2 0x2C4F PUSH2 0x2C49 PUSH2 0x2C8B SWAP6 PUSH2 0x3056 JUMP JUMPDEST SWAP4 PUSH2 0x28ED JUMP JUMPDEST PUSH2 0x2C59 PUSH1 0x20 PUSH2 0x2B1C JUMP JUMPDEST SWAP1 PUSH2 0x32E3 JUMP JUMPDEST SWAP2 PUSH2 0x2C77 PUSH2 0x2C6B PUSH2 0x1D3 JUMP JUMPDEST SWAP4 DUP5 SWAP3 PUSH1 0x20 DUP5 ADD PUSH2 0x2BE8 JUMP JUMPDEST PUSH1 0x20 DUP3 ADD DUP2 SUB DUP3 MSTORE SUB DUP3 PUSH2 0x7B4 JUMP JUMPDEST PUSH2 0x2C10 JUMP JUMPDEST PUSH2 0x2C93 PUSH2 0x1D3 JUMP JUMPDEST SWAP2 DUP3 SWAP2 PUSH3 0x461BCD PUSH1 0xE5 SHL DUP4 MSTORE PUSH1 0x4 DUP4 ADD PUSH2 0x311 JUMP JUMPDEST SUB SWAP1 REVERT JUMPDEST SWAP1 PUSH2 0x2CC1 PUSH2 0x2CBC PUSH2 0x2CC8 SWAP3 PUSH2 0x1716 JUMP JUMPDEST PUSH2 0x1722 JUMP JUMPDEST DUP3 SLOAD PUSH2 0x297D JUMP JUMPDEST SWAP1 SSTORE JUMP JUMPDEST PUSH2 0x2CE0 PUSH2 0x2CDA DUP3 DUP5 SWAP1 PUSH2 0x1690 JUMP JUMPDEST ISZERO PUSH2 0x237 JUMP JUMPDEST PUSH2 0x2CE9 JUMPI JUMPDEST POP POP JUMP JUMPDEST PUSH2 0x2D0C PUSH1 0x1 PUSH2 0x2D07 PUSH1 0x0 PUSH2 0x2CFF PUSH1 0x5 DUP7 SWAP1 PUSH2 0x10EF JUMP JUMPDEST ADD DUP6 SWAP1 PUSH2 0x1651 JUMP JUMPDEST PUSH2 0x2CAC JUMP JUMPDEST SWAP1 PUSH2 0x2D15 PUSH2 0x1E83 JUMP JUMPDEST SWAP1 PUSH2 0x2D52 PUSH2 0x2D4C PUSH2 0x2D46 PUSH32 0x2F8788117E7EFF1D82E926EC794901D17C78024A50270940304540A733656F0D SWAP6 PUSH2 0x10E3 JUMP JUMPDEST SWAP3 PUSH2 0x15C6 JUMP JUMPDEST SWAP3 PUSH2 0x15C6 JUMP JUMPDEST SWAP3 PUSH2 0x2D5B PUSH2 0x1D3 JUMP JUMPDEST DUP1 PUSH2 0x2D65 DUP2 PUSH2 0x444 JUMP JUMPDEST SUB SWAP1 LOG4 CODESIZE DUP1 PUSH2 0x2CE5 JUMP JUMPDEST PUSH2 0x2D78 SWAP1 PUSH2 0xFCC JUMP JUMPDEST SWAP1 JUMP JUMPDEST PUSH2 0x2D8F PUSH2 0x2D8A PUSH2 0x2D94 SWAP3 PUSH2 0x35F JUMP JUMPDEST PUSH2 0xFC9 JUMP JUMPDEST PUSH2 0x39A JUMP JUMPDEST SWAP1 JUMP JUMPDEST PUSH2 0x2DAB PUSH2 0x2DA6 PUSH2 0x2DB0 SWAP3 PUSH2 0x39A JUMP JUMPDEST PUSH2 0xBF4 JUMP JUMPDEST PUSH2 0x546 JUMP JUMPDEST SWAP1 JUMP JUMPDEST SWAP1 PUSH2 0x2DE6 PUSH2 0x2DE0 PUSH2 0x2DDB PUSH2 0x2DD6 PUSH1 0x0 PUSH2 0x2DEB SWAP7 PUSH2 0x2DCE PUSH2 0xDD4 JUMP JUMPDEST POP ADD SWAP5 PUSH2 0x2D6F JUMP JUMPDEST PUSH2 0x2D7B JUMP JUMPDEST PUSH2 0x2D97 JUMP JUMPDEST SWAP2 PUSH2 0x28EA JUMP JUMPDEST PUSH2 0x34D9 JUMP JUMPDEST SWAP1 JUMP JUMPDEST PUSH2 0x2DF9 DUP2 DUP4 SWAP1 PUSH2 0x1690 JUMP JUMPDEST PUSH2 0x2E02 JUMPI JUMPDEST POP POP JUMP JUMPDEST PUSH2 0x2E25 PUSH1 0x0 PUSH2 0x2E20 PUSH1 0x0 PUSH2 0x2E18 PUSH1 0x5 DUP7 SWAP1 PUSH2 0x10EF JUMP JUMPDEST ADD DUP6 SWAP1 PUSH2 0x1651 JUMP JUMPDEST PUSH2 0x2CAC JUMP JUMPDEST SWAP1 PUSH2 0x2E2E PUSH2 0x1E83 JUMP JUMPDEST SWAP1 PUSH2 0x2E6B PUSH2 0x2E65 PUSH2 0x2E5F PUSH32 0xF6391F5C32D9C69D2A47EA670B442974B53935D1EDC7FD64EB21E047A839171B SWAP6 PUSH2 0x10E3 JUMP JUMPDEST SWAP3 PUSH2 0x15C6 JUMP JUMPDEST SWAP3 PUSH2 0x15C6 JUMP JUMPDEST SWAP3 PUSH2 0x2E74 PUSH2 0x1D3 JUMP JUMPDEST DUP1 PUSH2 0x2E7E DUP2 PUSH2 0x444 JUMP JUMPDEST SUB SWAP1 LOG4 CODESIZE DUP1 PUSH2 0x2DFE JUMP JUMPDEST SWAP1 PUSH2 0x2EBB PUSH2 0x2EB5 PUSH2 0x2EB0 PUSH2 0x2EAB PUSH1 0x0 PUSH2 0x2EC0 SWAP7 PUSH2 0x2EA3 PUSH2 0xDD4 JUMP JUMPDEST POP ADD SWAP5 PUSH2 0x2D6F JUMP JUMPDEST PUSH2 0x2D7B JUMP JUMPDEST PUSH2 0x2D97 JUMP JUMPDEST SWAP2 PUSH2 0x28EA JUMP JUMPDEST PUSH2 0x35BE JUMP JUMPDEST SWAP1 JUMP JUMPDEST PUSH4 0x4E487B71 PUSH1 0xE0 SHL PUSH1 0x0 MSTORE PUSH1 0x32 PUSH1 0x4 MSTORE PUSH1 0x24 PUSH1 0x0 REVERT JUMPDEST SLOAD SWAP1 JUMP JUMPDEST PUSH1 0x0 MSTORE PUSH1 0x20 PUSH1 0x0 KECCAK256 SWAP1 JUMP JUMPDEST PUSH2 0x2EF1 DUP2 PUSH2 0x2ED9 JUMP JUMPDEST DUP3 LT ISZERO PUSH2 0x2F0C JUMPI PUSH2 0x2F03 PUSH1 0x1 SWAP2 PUSH2 0x2EDD JUMP JUMPDEST SWAP2 MUL ADD SWAP1 PUSH1 0x0 SWAP1 JUMP JUMPDEST PUSH2 0x2EC3 JUMP JUMPDEST PUSH2 0x2F21 SWAP1 PUSH1 0x8 PUSH2 0x2F26 SWAP4 MUL PUSH2 0x148D JUMP JUMPDEST PUSH2 0x1107 JUMP JUMPDEST SWAP1 JUMP JUMPDEST SWAP1 PUSH2 0x2F34 SWAP2 SLOAD PUSH2 0x2F11 JUMP JUMPDEST SWAP1 JUMP JUMPDEST PUSH2 0x2F56 SWAP2 PUSH1 0x0 PUSH2 0x2F50 SWAP3 PUSH2 0x2F49 PUSH2 0x10DE JUMP JUMPDEST POP ADD PUSH2 0x2EE8 JUMP JUMPDEST SWAP1 PUSH2 0x2F29 JUMP JUMPDEST SWAP1 JUMP JUMPDEST SWAP1 PUSH2 0x2F6F PUSH2 0x2F74 SWAP4 SWAP3 PUSH2 0x2F6A PUSH2 0xF8A JUMP JUMPDEST PUSH2 0x250C JUMP JUMPDEST PUSH2 0x36C8 JUMP JUMPDEST JUMP JUMPDEST PUSH1 0x0 PUSH2 0x2F8B SWAP2 PUSH2 0x2F84 PUSH2 0x106A JUMP JUMPDEST POP ADD PUSH2 0x2ED9 JUMP JUMPDEST SWAP1 JUMP JUMPDEST PUSH2 0x2F96 PUSH2 0xDD4 JUMP JUMPDEST POP DUP1 PUSH2 0x2FB1 PUSH2 0x2FAB PUSH4 0x5A05180F PUSH1 0xE0 SHL PUSH2 0x1E8 JUMP JUMPDEST SWAP2 PUSH2 0x1E8 JUMP JUMPDEST EQ SWAP1 DUP2 ISZERO PUSH2 0x2FBE JUMPI JUMPDEST POP SWAP1 JUMP JUMPDEST PUSH2 0x2FC8 SWAP2 POP PUSH2 0x36E8 JUMP JUMPDEST CODESIZE PUSH2 0x2FBA JUMP JUMPDEST PUSH2 0x2FD6 PUSH2 0xDD4 JUMP JUMPDEST POP DUP1 PUSH2 0x2FF1 PUSH2 0x2FEB PUSH4 0x4E821D33 PUSH1 0xE1 SHL PUSH2 0x1E8 JUMP JUMPDEST SWAP2 PUSH2 0x1E8 JUMP JUMPDEST EQ SWAP1 DUP2 ISZERO PUSH2 0x2FFE JUMPI JUMPDEST POP SWAP1 JUMP JUMPDEST PUSH2 0x3008 SWAP2 POP PUSH2 0x2F8E JUMP JUMPDEST CODESIZE PUSH2 0x2FFA JUMP JUMPDEST SWAP1 JUMP JUMPDEST PUSH2 0x3025 PUSH2 0x3020 PUSH2 0x302A SWAP3 PUSH2 0x300E JUMP JUMPDEST PUSH2 0xFC9 JUMP JUMPDEST PUSH2 0x646 JUMP JUMPDEST SWAP1 JUMP JUMPDEST PUSH2 0x3037 PUSH1 0x14 PUSH2 0x3011 JUMP JUMPDEST SWAP1 JUMP JUMPDEST PUSH2 0x304E PUSH2 0x3049 PUSH2 0x3053 SWAP3 PUSH2 0x646 JUMP JUMPDEST PUSH2 0xFC9 JUMP JUMPDEST PUSH2 0x39A JUMP JUMPDEST SWAP1 JUMP JUMPDEST PUSH2 0x3073 PUSH2 0x306E PUSH2 0x3089 SWAP3 PUSH2 0x3068 PUSH2 0xE2F JUMP JUMPDEST POP PUSH2 0x2D6F JUMP JUMPDEST PUSH2 0x2D7B JUMP JUMPDEST PUSH2 0x3083 PUSH2 0x307E PUSH2 0x302D JUMP JUMPDEST PUSH2 0x303A JUMP JUMPDEST SWAP1 PUSH2 0x32E3 JUMP JUMPDEST SWAP1 JUMP JUMPDEST SWAP1 JUMP JUMPDEST PUSH2 0x30A3 PUSH2 0x309E PUSH2 0x30A8 SWAP3 PUSH2 0x308C JUMP JUMPDEST PUSH2 0xFC9 JUMP JUMPDEST PUSH2 0x39A JUMP JUMPDEST SWAP1 JUMP JUMPDEST PUSH2 0x30BA PUSH2 0x30C0 SWAP2 SWAP4 SWAP3 SWAP4 PUSH2 0x39A JUMP JUMPDEST SWAP3 PUSH2 0x39A JUMP JUMPDEST SWAP2 PUSH2 0x30CC DUP4 DUP3 MUL PUSH2 0x39A JUMP JUMPDEST SWAP3 DUP2 DUP5 DIV EQ SWAP1 ISZERO OR ISZERO PUSH2 0x30DB JUMPI JUMP JUMPDEST PUSH2 0x129D JUMP JUMPDEST PUSH8 0xFFFFFFFFFFFFFFFF DUP2 GT PUSH2 0x30FE JUMPI PUSH2 0x30FA PUSH1 0x20 SWAP2 PUSH2 0x2D6 JUMP JUMPDEST ADD SWAP1 JUMP JUMPDEST PUSH2 0x79E JUMP JUMPDEST SWAP1 PUSH2 0x3115 PUSH2 0x3110 DUP4 PUSH2 0x30E0 JUMP JUMPDEST PUSH2 0x7DD JUMP JUMPDEST SWAP2 DUP3 MSTORE JUMP JUMPDEST CALLDATASIZE SWAP1 CALLDATACOPY JUMP JUMPDEST SWAP1 PUSH2 0x3144 PUSH2 0x312C DUP4 PUSH2 0x3103 JUMP JUMPDEST SWAP3 PUSH1 0x20 DUP1 PUSH2 0x313A DUP7 SWAP4 PUSH2 0x30E0 JUMP JUMPDEST SWAP3 ADD SWAP2 SUB SWAP1 PUSH2 0x311A JUMP JUMPDEST JUMP JUMPDEST PUSH1 0x3 PUSH1 0xFC SHL SWAP1 JUMP JUMPDEST MLOAD SWAP1 JUMP JUMPDEST SWAP1 PUSH2 0x315C DUP3 PUSH2 0x314E JUMP JUMPDEST DUP2 LT ISZERO PUSH2 0x316E JUMPI PUSH1 0x1 PUSH1 0x20 SWAP2 MUL ADD ADD SWAP1 JUMP JUMPDEST PUSH2 0x2EC3 JUMP JUMPDEST PUSH2 0x3187 PUSH2 0x3182 PUSH2 0x318C SWAP3 PUSH2 0xBF1 JUMP JUMPDEST PUSH2 0xFC9 JUMP JUMPDEST PUSH2 0x39A JUMP JUMPDEST SWAP1 JUMP JUMPDEST PUSH1 0xF PUSH1 0xFB SHL SWAP1 JUMP JUMPDEST SWAP1 JUMP JUMPDEST PUSH2 0x31AE PUSH2 0x31A9 PUSH2 0x31B3 SWAP3 PUSH2 0x3197 JUMP JUMPDEST PUSH2 0xFC9 JUMP JUMPDEST PUSH2 0x39A JUMP JUMPDEST SWAP1 JUMP JUMPDEST PUSH2 0x31BF SWAP1 PUSH2 0x39A JUMP JUMPDEST PUSH1 0x0 DUP2 EQ PUSH2 0x31CE JUMPI PUSH1 0x1 SWAP1 SUB SWAP1 JUMP JUMPDEST PUSH2 0x129D JUMP JUMPDEST PUSH16 0x181899199A1A9B1B9C1CB0B131B232B3 PUSH1 0x81 SHL SWAP1 JUMP JUMPDEST PUSH2 0x31F2 PUSH2 0x31D3 JUMP JUMPDEST SWAP1 JUMP JUMPDEST SWAP1 JUMP JUMPDEST PUSH2 0x320C PUSH2 0x3207 PUSH2 0x3211 SWAP3 PUSH2 0x31F5 JUMP JUMPDEST PUSH2 0xFC9 JUMP JUMPDEST PUSH2 0x39A JUMP JUMPDEST SWAP1 JUMP JUMPDEST PUSH1 0xF8 SHL SWAP1 JUMP JUMPDEST SWAP1 JUMP JUMPDEST PUSH2 0x3231 PUSH2 0x322C PUSH2 0x3236 SWAP3 PUSH2 0x321A JUMP JUMPDEST PUSH2 0xFC9 JUMP JUMPDEST PUSH2 0x646 JUMP JUMPDEST SWAP1 JUMP JUMPDEST PUSH2 0x3258 SWAP1 PUSH2 0x3252 PUSH2 0x324C PUSH2 0x325D SWAP5 PUSH2 0x646 JUMP JUMPDEST SWAP2 PUSH2 0x39A JUMP JUMPDEST SWAP1 PUSH2 0x148D JUMP JUMPDEST PUSH2 0x39A JUMP JUMPDEST SWAP1 JUMP JUMPDEST PUSH1 0x0 PUSH32 0x537472696E67733A20686578206C656E67746820696E73756666696369656E74 SWAP2 ADD MSTORE JUMP JUMPDEST PUSH2 0x3294 PUSH1 0x20 DUP1 SWAP3 PUSH2 0x2A8 JUMP JUMPDEST PUSH2 0x329D DUP2 PUSH2 0x3260 JUMP JUMPDEST ADD SWAP1 JUMP JUMPDEST PUSH2 0x32B7 SWAP1 PUSH1 0x20 DUP2 ADD SWAP1 PUSH1 0x0 DUP2 DUP4 SUB SWAP2 ADD MSTORE PUSH2 0x3288 JUMP JUMPDEST SWAP1 JUMP JUMPDEST ISZERO PUSH2 0x32C1 JUMPI JUMP JUMPDEST PUSH2 0x32C9 PUSH2 0x1D3 JUMP JUMPDEST PUSH3 0x461BCD PUSH1 0xE5 SHL DUP2 MSTORE DUP1 PUSH2 0x32DF PUSH1 0x4 DUP3 ADD PUSH2 0x32A1 JUMP JUMPDEST SUB SWAP1 REVERT JUMPDEST SWAP2 SWAP1 PUSH2 0x32ED PUSH2 0xE2F JUMP JUMPDEST POP PUSH2 0x3387 PUSH2 0x3377 PUSH2 0x3323 PUSH2 0x331E PUSH2 0x330E PUSH1 0x2 PUSH2 0x3309 DUP8 SWAP2 PUSH2 0x308F JUMP JUMPDEST PUSH2 0x30AB JUMP JUMPDEST PUSH2 0x3318 PUSH1 0x2 PUSH2 0x308F JUMP JUMPDEST SWAP1 PUSH2 0x12B3 JUMP JUMPDEST PUSH2 0x311F JUMP JUMPDEST SWAP3 PUSH2 0x332C PUSH2 0x3146 JUMP JUMPDEST PUSH2 0x3345 DUP6 PUSH2 0x333F PUSH1 0x0 SWAP4 PUSH1 0x0 BYTE SWAP4 PUSH2 0x3173 JUMP JUMPDEST SWAP1 PUSH2 0x3152 JUMP JUMPDEST MSTORE8 PUSH2 0x334E PUSH2 0x318F JUMP JUMPDEST PUSH2 0x3367 DUP6 PUSH2 0x3361 PUSH1 0x1 SWAP4 PUSH1 0x0 BYTE SWAP4 PUSH2 0x319A JUMP JUMPDEST SWAP1 PUSH2 0x3152 JUMP JUMPDEST MSTORE8 PUSH2 0x3372 PUSH1 0x2 PUSH2 0x308F JUMP JUMPDEST PUSH2 0x30AB JUMP JUMPDEST PUSH2 0x3381 PUSH1 0x1 PUSH2 0x319A JUMP JUMPDEST SWAP1 PUSH2 0x12B3 JUMP JUMPDEST SWAP3 JUMPDEST DUP4 PUSH2 0x339D PUSH2 0x3397 PUSH1 0x1 PUSH2 0x319A JUMP JUMPDEST SWAP2 PUSH2 0x39A JUMP JUMPDEST GT ISZERO PUSH2 0x3404 JUMPI PUSH2 0x33AB PUSH2 0x31EA JUMP JUMPDEST DUP2 PUSH2 0x33B6 PUSH1 0xF PUSH2 0x31F8 JUMP JUMPDEST AND SWAP2 PUSH1 0x10 DUP4 LT ISZERO PUSH2 0x33FF JUMPI PUSH2 0x33D2 PUSH2 0x33F3 SWAP3 PUSH2 0x33F9 SWAP5 BYTE PUSH2 0x3214 JUMP JUMPDEST PUSH2 0x33E2 DUP6 SWAP2 DUP9 SWAP1 PUSH1 0x0 BYTE SWAP3 PUSH2 0x3152 JUMP JUMPDEST MSTORE8 PUSH2 0x33ED PUSH1 0x4 PUSH2 0x321D JUMP JUMPDEST SWAP1 PUSH2 0x3239 JUMP JUMPDEST SWAP4 PUSH2 0x31B6 JUMP JUMPDEST SWAP3 PUSH2 0x3389 JUMP JUMPDEST PUSH2 0x2EC3 JUMP JUMPDEST PUSH2 0x342C SWAP3 SWAP4 POP PUSH2 0x3427 SWAP1 PUSH2 0x3421 PUSH2 0x341B PUSH1 0x0 PUSH2 0x3173 JUMP JUMPDEST SWAP2 PUSH2 0x39A JUMP JUMPDEST EQ PUSH2 0x32BA JUMP JUMPDEST PUSH2 0x2C10 JUMP JUMPDEST SWAP1 JUMP JUMPDEST SWAP1 JUMP JUMPDEST PUSH1 0x0 MSTORE PUSH1 0x20 PUSH1 0x0 KECCAK256 SWAP1 JUMP JUMPDEST SLOAD SWAP1 JUMP JUMPDEST PUSH2 0x344A DUP2 PUSH2 0x343D JUMP JUMPDEST DUP3 LT ISZERO PUSH2 0x3465 JUMPI PUSH2 0x345C PUSH1 0x1 SWAP2 PUSH2 0x3432 JUMP JUMPDEST SWAP2 MUL ADD SWAP1 PUSH1 0x0 SWAP1 JUMP JUMPDEST PUSH2 0x2EC3 JUMP JUMPDEST SWAP2 SWAP1 PUSH2 0x3480 PUSH2 0x347B PUSH2 0x3488 SWAP4 PUSH2 0x10E3 JUMP JUMPDEST PUSH2 0x1DD7 JUMP JUMPDEST SWAP1 DUP4 SLOAD PUSH2 0x139B JUMP JUMPDEST SWAP1 SSTORE JUMP JUMPDEST SWAP1 DUP2 SLOAD SWAP2 PUSH9 0x10000000000000000 DUP4 LT ISZERO PUSH2 0x34BC JUMPI DUP3 PUSH2 0x34B4 SWAP2 PUSH1 0x1 PUSH2 0x34BA SWAP6 ADD DUP2 SSTORE PUSH2 0x3441 JUMP JUMPDEST SWAP1 PUSH2 0x346A JUMP JUMPDEST JUMP JUMPDEST PUSH2 0x79E JUMP JUMPDEST SWAP1 PUSH2 0x34CB SWAP1 PUSH2 0x10E3 JUMP JUMPDEST PUSH1 0x0 MSTORE PUSH1 0x20 MSTORE PUSH1 0x40 PUSH1 0x0 KECCAK256 SWAP1 JUMP JUMPDEST PUSH2 0x34E1 PUSH2 0xDD4 JUMP JUMPDEST POP PUSH2 0x34F6 PUSH2 0x34F0 DUP3 DUP5 SWAP1 PUSH2 0x3728 JUMP JUMPDEST ISZERO PUSH2 0x237 JUMP JUMPDEST PUSH1 0x0 EQ PUSH2 0x3539 JUMPI PUSH2 0x352F PUSH2 0x3534 SWAP3 PUSH2 0x351A PUSH2 0x3513 PUSH1 0x0 DUP6 ADD PUSH2 0x342F JUMP JUMPDEST DUP3 SWAP1 PUSH2 0x348C JUMP JUMPDEST PUSH1 0x1 PUSH2 0x3528 PUSH1 0x0 DUP6 ADD PUSH2 0x2ED9 JUMP JUMPDEST SWAP4 ADD PUSH2 0x34C1 JUMP JUMPDEST PUSH2 0x200C JUMP JUMPDEST PUSH1 0x1 SWAP1 JUMP JUMPDEST POP POP PUSH1 0x0 SWAP1 JUMP JUMPDEST PUSH2 0x354F PUSH2 0x3555 SWAP2 SWAP4 SWAP3 SWAP4 PUSH2 0x39A JUMP JUMPDEST SWAP3 PUSH2 0x39A JUMP JUMPDEST DUP3 SUB SWAP2 DUP3 GT PUSH2 0x3560 JUMPI JUMP JUMPDEST PUSH2 0x129D JUMP JUMPDEST PUSH4 0x4E487B71 PUSH1 0xE0 SHL PUSH1 0x0 MSTORE PUSH1 0x31 PUSH1 0x4 MSTORE PUSH1 0x24 PUSH1 0x0 REVERT JUMPDEST PUSH2 0x358D SWAP2 PUSH2 0x3587 PUSH2 0x10DE JUMP JUMPDEST SWAP2 PUSH2 0x346A JUMP JUMPDEST JUMP JUMPDEST PUSH2 0x3598 DUP2 PUSH2 0x343D JUMP JUMPDEST DUP1 ISZERO PUSH2 0x35B9 JUMPI PUSH1 0x1 SWAP1 SUB SWAP1 PUSH2 0x35B6 PUSH2 0x35B0 DUP4 DUP4 PUSH2 0x3441 JUMP JUMPDEST SWAP1 PUSH2 0x357B JUMP JUMPDEST SSTORE JUMP JUMPDEST PUSH2 0x3565 JUMP JUMPDEST PUSH2 0x35C6 PUSH2 0xDD4 JUMP JUMPDEST POP PUSH2 0x35DD PUSH2 0x35D8 PUSH1 0x1 DUP4 ADD DUP5 SWAP1 PUSH2 0x34C1 JUMP JUMPDEST PUSH2 0x108C JUMP JUMPDEST SWAP1 DUP2 PUSH2 0x35F2 PUSH2 0x35EC PUSH1 0x0 PUSH2 0x3173 JUMP JUMPDEST SWAP2 PUSH2 0x39A JUMP JUMPDEST EQ ISZERO PUSH1 0x0 EQ PUSH2 0x36C0 JUMPI PUSH2 0x3672 SWAP3 PUSH1 0x1 PUSH2 0x366D SWAP3 DUP5 PUSH2 0x361B PUSH1 0x0 SWAP7 PUSH2 0x3615 DUP6 PUSH2 0x319A JUMP JUMPDEST SWAP1 PUSH2 0x3540 JUMP JUMPDEST PUSH2 0x3638 PUSH2 0x3629 DUP9 DUP6 ADD PUSH2 0x2ED9 JUMP JUMPDEST PUSH2 0x3632 DUP7 PUSH2 0x319A JUMP JUMPDEST SWAP1 PUSH2 0x3540 JUMP JUMPDEST DUP1 PUSH2 0x364B PUSH2 0x3645 DUP5 PUSH2 0x39A JUMP JUMPDEST SWAP2 PUSH2 0x39A JUMP JUMPDEST SUB PUSH2 0x3677 JUMPI JUMPDEST POP POP POP PUSH2 0x3667 PUSH2 0x3662 DUP7 DUP4 ADD PUSH2 0x342F JUMP JUMPDEST PUSH2 0x358F JUMP JUMPDEST ADD PUSH2 0x34C1 JUMP JUMPDEST PUSH2 0x1402 JUMP JUMPDEST PUSH1 0x1 SWAP1 JUMP JUMPDEST PUSH2 0x36B8 SWAP3 PUSH2 0x36AA PUSH2 0x3696 PUSH2 0x3690 PUSH2 0x36B3 SWAP5 DUP13 DUP10 ADD PUSH2 0x2EE8 JUMP JUMPDEST SWAP1 PUSH2 0x2F29 JUMP JUMPDEST SWAP4 PUSH2 0x36A4 DUP6 SWAP2 DUP13 DUP10 ADD PUSH2 0x2EE8 JUMP JUMPDEST SWAP1 PUSH2 0x346A JUMP JUMPDEST SWAP2 DUP6 DUP6 ADD PUSH2 0x34C1 JUMP JUMPDEST PUSH2 0x200C JUMP JUMPDEST CODESIZE DUP1 DUP1 PUSH2 0x3651 JUMP JUMPDEST POP POP POP PUSH1 0x0 SWAP1 JUMP JUMPDEST SWAP1 PUSH2 0x36DF PUSH2 0x36D8 PUSH2 0x36E6 SWAP4 PUSH2 0xFF4 JUMP JUMPDEST PUSH1 0x7 PUSH2 0x102A JUMP JUMPDEST PUSH1 0x8 PUSH2 0x1DE3 JUMP JUMPDEST JUMP JUMPDEST PUSH2 0x36F0 PUSH2 0xDD4 JUMP JUMPDEST POP DUP1 PUSH2 0x370B PUSH2 0x3705 PUSH4 0x7965DB0B PUSH1 0xE0 SHL PUSH2 0x1E8 JUMP JUMPDEST SWAP2 PUSH2 0x1E8 JUMP JUMPDEST EQ SWAP1 DUP2 ISZERO PUSH2 0x3718 JUMPI JUMPDEST POP SWAP1 JUMP JUMPDEST PUSH2 0x3722 SWAP2 POP PUSH2 0x375E JUMP JUMPDEST CODESIZE PUSH2 0x3714 JUMP JUMPDEST PUSH2 0x3746 SWAP2 PUSH1 0x1 PUSH2 0x3741 SWAP3 PUSH2 0x373A PUSH2 0xDD4 JUMP JUMPDEST POP ADD PUSH2 0x34C1 JUMP JUMPDEST PUSH2 0x108C JUMP JUMPDEST PUSH2 0x3759 PUSH2 0x3753 PUSH1 0x0 PUSH2 0x3173 JUMP JUMPDEST SWAP2 PUSH2 0x39A JUMP JUMPDEST EQ ISZERO SWAP1 JUMP JUMPDEST PUSH2 0x3766 PUSH2 0xDD4 JUMP JUMPDEST POP PUSH2 0x3780 PUSH2 0x377A PUSH4 0x1FFC9A7 PUSH1 0xE0 SHL PUSH2 0x1E8 JUMP JUMPDEST SWAP2 PUSH2 0x1E8 JUMP JUMPDEST EQ SWAP1 JUMP INVALID LOG2 PUSH5 0x6970667358 0x22 SLT KECCAK256 CREATE SLOAD 0xAC DUP14 0xDC 0xA7 RETURNDATASIZE CREATE PUSH31 0xFE925C9789862CCBC82A4159F335F2A7D7EBC0D6F5098764736F6C63430008 SHL STOP CALLER PUSH1 0x80 PUSH1 0x40 MSTORE CALLVALUE PUSH2 0x2F JUMPI PUSH2 0x19 PUSH2 0x14 PUSH2 0xFA JUMP JUMPDEST PUSH2 0x11B JUMP JUMPDEST PUSH2 0x21 PUSH2 0x34 JUMP JUMPDEST PUSH2 0x722 PUSH2 0x380 DUP3 CODECOPY PUSH2 0x722 SWAP1 RETURN JUMPDEST PUSH2 0x3A JUMP JUMPDEST PUSH1 0x40 MLOAD SWAP1 JUMP JUMPDEST PUSH1 0x0 DUP1 REVERT JUMPDEST PUSH1 0x1F DUP1 NOT SWAP2 ADD AND SWAP1 JUMP JUMPDEST PUSH4 0x4E487B71 PUSH1 0xE0 SHL PUSH1 0x0 MSTORE PUSH1 0x41 PUSH1 0x4 MSTORE PUSH1 0x24 PUSH1 0x0 REVERT JUMPDEST SWAP1 PUSH2 0x69 SWAP1 PUSH2 0x3F JUMP JUMPDEST DUP2 ADD SWAP1 DUP2 LT PUSH1 0x1 DUP1 PUSH1 0x40 SHL SUB DUP3 GT OR PUSH2 0x81 JUMPI PUSH1 0x40 MSTORE JUMP JUMPDEST PUSH2 0x49 JUMP JUMPDEST SWAP1 PUSH2 0x99 PUSH2 0x92 PUSH2 0x34 JUMP JUMPDEST SWAP3 DUP4 PUSH2 0x5F JUMP JUMPDEST JUMP JUMPDEST PUSH1 0x0 DUP1 REVERT JUMPDEST PUSH1 0x1 DUP1 PUSH1 0xA0 SHL SUB AND SWAP1 JUMP JUMPDEST PUSH2 0xB4 SWAP1 PUSH2 0xA0 JUMP JUMPDEST SWAP1 JUMP JUMPDEST PUSH2 0xC0 DUP2 PUSH2 0xAB JUMP JUMPDEST SUB PUSH2 0xC7 JUMPI JUMP JUMPDEST PUSH1 0x0 DUP1 REVERT JUMPDEST SWAP1 POP MLOAD SWAP1 PUSH2 0xD9 DUP3 PUSH2 0xB7 JUMP JUMPDEST JUMP JUMPDEST SWAP1 PUSH1 0x20 DUP3 DUP3 SUB SLT PUSH2 0xF5 JUMPI PUSH2 0xF2 SWAP2 PUSH1 0x0 ADD PUSH2 0xCC JUMP JUMPDEST SWAP1 JUMP JUMPDEST PUSH2 0x9B JUMP JUMPDEST PUSH2 0x118 PUSH2 0xAA2 DUP1 CODESIZE SUB DUP1 PUSH2 0x10D DUP2 PUSH2 0x86 JUMP JUMPDEST SWAP3 DUP4 CODECOPY DUP2 ADD SWAP1 PUSH2 0xDB JUMP JUMPDEST SWAP1 JUMP JUMPDEST PUSH2 0x12C SWAP1 PUSH2 0x127 PUSH2 0x12E JUMP JUMPDEST PUSH2 0x26E JUMP JUMPDEST JUMP JUMPDEST PUSH2 0x13E PUSH2 0x139 PUSH2 0x291 JUMP JUMPDEST PUSH2 0x2D6 JUMP JUMPDEST JUMP JUMPDEST PUSH1 0x20 SWAP2 DUP2 MSTORE ADD SWAP1 JUMP JUMPDEST PUSH1 0x20 PUSH32 0x6E206973206E6F74206120636F6E747261637400000000000000000000000000 SWAP2 PUSH32 0x5570677261646561626C65426561636F6E3A20696D706C656D656E746174696F PUSH1 0x0 DUP3 ADD MSTORE ADD MSTORE JUMP JUMPDEST PUSH2 0x1A4 PUSH1 0x33 PUSH1 0x40 SWAP3 PUSH2 0x140 JUMP JUMPDEST PUSH2 0x1AD DUP2 PUSH2 0x149 JUMP JUMPDEST ADD SWAP1 JUMP JUMPDEST PUSH2 0x1C7 SWAP1 PUSH1 0x20 DUP2 ADD SWAP1 PUSH1 0x0 DUP2 DUP4 SUB SWAP2 ADD MSTORE PUSH2 0x197 JUMP JUMPDEST SWAP1 JUMP JUMPDEST ISZERO PUSH2 0x1D1 JUMPI JUMP JUMPDEST PUSH2 0x1D9 PUSH2 0x34 JUMP JUMPDEST PUSH3 0x461BCD PUSH1 0xE5 SHL DUP2 MSTORE DUP1 PUSH2 0x1EF PUSH1 0x4 DUP3 ADD PUSH2 0x1B1 JUMP JUMPDEST SUB SWAP1 REVERT JUMPDEST PUSH1 0x0 SHL SWAP1 JUMP JUMPDEST SWAP1 PUSH2 0x20A PUSH1 0x1 DUP1 PUSH1 0xA0 SHL SUB SWAP2 PUSH2 0x1F3 JUMP JUMPDEST SWAP2 DUP2 NOT AND SWAP2 AND OR SWAP1 JUMP JUMPDEST SWAP1 JUMP JUMPDEST PUSH2 0x22B PUSH2 0x226 PUSH2 0x230 SWAP3 PUSH2 0xA0 JUMP JUMPDEST PUSH2 0x214 JUMP JUMPDEST PUSH2 0xA0 JUMP JUMPDEST SWAP1 JUMP JUMPDEST PUSH2 0x23C SWAP1 PUSH2 0x217 JUMP JUMPDEST SWAP1 JUMP JUMPDEST PUSH2 0x248 SWAP1 PUSH2 0x233 JUMP JUMPDEST SWAP1 JUMP JUMPDEST SWAP1 JUMP JUMPDEST SWAP1 PUSH2 0x263 PUSH2 0x25E PUSH2 0x26A SWAP3 PUSH2 0x23F JUMP JUMPDEST PUSH2 0x24B JUMP JUMPDEST DUP3 SLOAD PUSH2 0x1F9 JUMP JUMPDEST SWAP1 SSTORE JUMP JUMPDEST PUSH2 0x28A SWAP1 PUSH2 0x283 PUSH2 0x27E DUP3 PUSH2 0x35E JUMP JUMPDEST PUSH2 0x1CA JUMP JUMPDEST PUSH1 0x1 PUSH2 0x24E JUMP JUMPDEST JUMP JUMPDEST PUSH1 0x0 SWAP1 JUMP JUMPDEST PUSH2 0x299 PUSH2 0x28C JUMP JUMPDEST POP CALLER SWAP1 JUMP JUMPDEST PUSH1 0x0 SHR SWAP1 JUMP JUMPDEST PUSH1 0x1 DUP1 PUSH1 0xA0 SHL SUB AND SWAP1 JUMP JUMPDEST PUSH2 0x2BB PUSH2 0x2C0 SWAP2 PUSH2 0x29E JUMP JUMPDEST PUSH2 0x2A4 JUMP JUMPDEST SWAP1 JUMP JUMPDEST PUSH2 0x2CD SWAP1 SLOAD PUSH2 0x2AF JUMP JUMPDEST SWAP1 JUMP JUMPDEST PUSH1 0x0 ADD SWAP1 JUMP JUMPDEST PUSH2 0x2E0 PUSH1 0x0 PUSH2 0x2C3 JUMP JUMPDEST PUSH2 0x2EB DUP3 PUSH1 0x0 PUSH2 0x24E JUMP JUMPDEST SWAP1 PUSH2 0x31F PUSH2 0x319 PUSH32 0x8BE0079C531659141344CD1FD0A4F28419497F9722A3DAAFE3B4186F6B6457E0 SWAP4 PUSH2 0x23F JUMP JUMPDEST SWAP2 PUSH2 0x23F JUMP JUMPDEST SWAP2 PUSH2 0x328 PUSH2 0x34 JUMP JUMPDEST DUP1 PUSH2 0x332 DUP2 PUSH2 0x2D0 JUMP JUMPDEST SUB SWAP1 LOG3 JUMP JUMPDEST PUSH1 0x0 SWAP1 JUMP JUMPDEST SWAP1 JUMP JUMPDEST SWAP1 JUMP JUMPDEST PUSH2 0x356 PUSH2 0x351 PUSH2 0x35B SWAP3 PUSH2 0x33F JUMP JUMPDEST PUSH2 0x214 JUMP JUMPDEST PUSH2 0x33C JUMP JUMPDEST SWAP1 JUMP JUMPDEST PUSH2 0x366 PUSH2 0x337 JUMP JUMPDEST POP EXTCODESIZE PUSH2 0x37B PUSH2 0x375 PUSH1 0x0 PUSH2 0x342 JUMP JUMPDEST SWAP2 PUSH2 0x33C JUMP JUMPDEST GT SWAP1 JUMP INVALID PUSH1 0x80 PUSH1 0x40 MSTORE PUSH1 0x4 CALLDATASIZE LT ISZERO PUSH2 0x13 JUMPI JUMPDEST PUSH2 0x219 JUMP JUMPDEST PUSH2 0x1E PUSH1 0x0 CALLDATALOAD PUSH2 0x6D JUMP JUMPDEST DUP1 PUSH4 0x3659CFE6 EQ PUSH2 0x68 JUMPI DUP1 PUSH4 0x5C60DA1B EQ PUSH2 0x63 JUMPI DUP1 PUSH4 0x715018A6 EQ PUSH2 0x5E JUMPI DUP1 PUSH4 0x8DA5CB5B EQ PUSH2 0x59 JUMPI PUSH4 0xF2FDE38B SUB PUSH2 0xE JUMPI PUSH2 0x1E6 JUMP JUMPDEST PUSH2 0x1B1 JUMP JUMPDEST PUSH2 0x17E JUMP JUMPDEST PUSH2 0x149 JUMP JUMPDEST PUSH2 0xE3 JUMP JUMPDEST PUSH1 0xE0 SHR SWAP1 JUMP JUMPDEST PUSH1 0x40 MLOAD SWAP1 JUMP JUMPDEST PUSH1 0x0 DUP1 REVERT JUMPDEST PUSH1 0x0 DUP1 REVERT JUMPDEST PUSH1 0x1 DUP1 PUSH1 0xA0 SHL SUB AND SWAP1 JUMP JUMPDEST PUSH2 0x97 SWAP1 PUSH2 0x83 JUMP JUMPDEST SWAP1 JUMP JUMPDEST PUSH2 0xA3 DUP2 PUSH2 0x8E JUMP JUMPDEST SUB PUSH2 0xAA JUMPI JUMP JUMPDEST PUSH1 0x0 DUP1 REVERT JUMPDEST SWAP1 POP CALLDATALOAD SWAP1 PUSH2 0xBC DUP3 PUSH2 0x9A JUMP JUMPDEST JUMP JUMPDEST SWAP1 PUSH1 0x20 DUP3 DUP3 SUB SLT PUSH2 0xD8 JUMPI PUSH2 0xD5 SWAP2 PUSH1 0x0 ADD PUSH2 0xAF JUMP JUMPDEST SWAP1 JUMP JUMPDEST PUSH2 0x7E JUMP JUMPDEST PUSH1 0x0 ADD SWAP1 JUMP JUMPDEST CALLVALUE PUSH2 0x111 JUMPI PUSH2 0xFB PUSH2 0xF6 CALLDATASIZE PUSH1 0x4 PUSH2 0xBE JUMP JUMPDEST PUSH2 0x2B3 JUMP JUMPDEST PUSH2 0x103 PUSH2 0x73 JUMP JUMPDEST DUP1 PUSH2 0x10D DUP2 PUSH2 0xDD JUMP JUMPDEST SUB SWAP1 RETURN JUMPDEST PUSH2 0x79 JUMP JUMPDEST PUSH1 0x0 SWAP2 SUB SLT PUSH2 0x121 JUMPI JUMP JUMPDEST PUSH2 0x7E JUMP JUMPDEST PUSH2 0x12F SWAP1 PUSH2 0x8E JUMP JUMPDEST SWAP1 MSTORE JUMP JUMPDEST SWAP2 SWAP1 PUSH2 0x147 SWAP1 PUSH1 0x0 PUSH1 0x20 DUP6 ADD SWAP5 ADD SWAP1 PUSH2 0x126 JUMP JUMPDEST JUMP JUMPDEST CALLVALUE PUSH2 0x179 JUMPI PUSH2 0x159 CALLDATASIZE PUSH1 0x4 PUSH2 0x116 JUMP JUMPDEST PUSH2 0x175 PUSH2 0x164 PUSH2 0x2F5 JUMP JUMPDEST PUSH2 0x16C PUSH2 0x73 JUMP JUMPDEST SWAP2 DUP3 SWAP2 DUP3 PUSH2 0x133 JUMP JUMPDEST SUB SWAP1 RETURN JUMPDEST PUSH2 0x79 JUMP JUMPDEST CALLVALUE PUSH2 0x1AC JUMPI PUSH2 0x18E CALLDATASIZE PUSH1 0x4 PUSH2 0x116 JUMP JUMPDEST PUSH2 0x196 PUSH2 0x35C JUMP JUMPDEST PUSH2 0x19E PUSH2 0x73 JUMP JUMPDEST DUP1 PUSH2 0x1A8 DUP2 PUSH2 0xDD JUMP JUMPDEST SUB SWAP1 RETURN JUMPDEST PUSH2 0x79 JUMP JUMPDEST CALLVALUE PUSH2 0x1E1 JUMPI PUSH2 0x1C1 CALLDATASIZE PUSH1 0x4 PUSH2 0x116 JUMP JUMPDEST PUSH2 0x1DD PUSH2 0x1CC PUSH2 0x366 JUMP JUMPDEST PUSH2 0x1D4 PUSH2 0x73 JUMP JUMPDEST SWAP2 DUP3 SWAP2 DUP3 PUSH2 0x133 JUMP JUMPDEST SUB SWAP1 RETURN JUMPDEST PUSH2 0x79 JUMP JUMPDEST CALLVALUE PUSH2 0x214 JUMPI PUSH2 0x1FE PUSH2 0x1F9 CALLDATASIZE PUSH1 0x4 PUSH2 0xBE JUMP JUMPDEST PUSH2 0x473 JUMP JUMPDEST PUSH2 0x206 PUSH2 0x73 JUMP JUMPDEST DUP1 PUSH2 0x210 DUP2 PUSH2 0xDD JUMP JUMPDEST SUB SWAP1 RETURN JUMPDEST PUSH2 0x79 JUMP JUMPDEST PUSH1 0x0 DUP1 REVERT JUMPDEST PUSH2 0x22F SWAP1 PUSH2 0x22A PUSH2 0x501 JUMP JUMPDEST PUSH2 0x268 JUMP JUMPDEST JUMP JUMPDEST SWAP1 JUMP JUMPDEST PUSH2 0x248 PUSH2 0x243 PUSH2 0x24D SWAP3 PUSH2 0x83 JUMP JUMPDEST PUSH2 0x231 JUMP JUMPDEST PUSH2 0x83 JUMP JUMPDEST SWAP1 JUMP JUMPDEST PUSH2 0x259 SWAP1 PUSH2 0x234 JUMP JUMPDEST SWAP1 JUMP JUMPDEST PUSH2 0x265 SWAP1 PUSH2 0x250 JUMP JUMPDEST SWAP1 JUMP JUMPDEST PUSH2 0x271 DUP2 PUSH2 0x61B JUMP JUMPDEST PUSH2 0x29B PUSH32 0xBC7CD75A20EE27FD9ADEBAB32041F755214DBC6BFFA90CC0225B39DA2E5C2D3B SWAP2 PUSH2 0x25C JUMP JUMPDEST SWAP1 PUSH2 0x2A4 PUSH2 0x73 JUMP JUMPDEST DUP1 PUSH2 0x2AE DUP2 PUSH2 0xDD JUMP JUMPDEST SUB SWAP1 LOG2 JUMP JUMPDEST PUSH2 0x2BC SWAP1 PUSH2 0x21E JUMP JUMPDEST JUMP JUMPDEST PUSH1 0x0 SWAP1 JUMP JUMPDEST PUSH1 0x0 SHR SWAP1 JUMP JUMPDEST PUSH1 0x1 DUP1 PUSH1 0xA0 SHL SUB AND SWAP1 JUMP JUMPDEST PUSH2 0x2E0 PUSH2 0x2E5 SWAP2 PUSH2 0x2C3 JUMP JUMPDEST PUSH2 0x2C9 JUMP JUMPDEST SWAP1 JUMP JUMPDEST PUSH2 0x2F2 SWAP1 SLOAD PUSH2 0x2D4 JUMP JUMPDEST SWAP1 JUMP JUMPDEST PUSH2 0x2FD PUSH2 0x2BE JUMP JUMPDEST POP PUSH2 0x308 PUSH1 0x1 PUSH2 0x2E8 JUMP JUMPDEST SWAP1 JUMP JUMPDEST PUSH2 0x313 PUSH2 0x501 JUMP JUMPDEST PUSH2 0x31B PUSH2 0x348 JUMP JUMPDEST JUMP JUMPDEST SWAP1 JUMP JUMPDEST PUSH2 0x334 PUSH2 0x32F PUSH2 0x339 SWAP3 PUSH2 0x31D JUMP JUMPDEST PUSH2 0x231 JUMP JUMPDEST PUSH2 0x83 JUMP JUMPDEST SWAP1 JUMP JUMPDEST PUSH2 0x345 SWAP1 PUSH2 0x320 JUMP JUMPDEST SWAP1 JUMP JUMPDEST PUSH2 0x35A PUSH2 0x355 PUSH1 0x0 PUSH2 0x33C JUMP JUMPDEST PUSH2 0x639 JUMP JUMPDEST JUMP JUMPDEST PUSH2 0x364 PUSH2 0x30B JUMP JUMPDEST JUMP JUMPDEST PUSH2 0x36E PUSH2 0x2BE JUMP JUMPDEST POP PUSH2 0x379 PUSH1 0x0 PUSH2 0x2E8 JUMP JUMPDEST SWAP1 JUMP JUMPDEST PUSH2 0x38D SWAP1 PUSH2 0x388 PUSH2 0x501 JUMP JUMPDEST PUSH2 0x442 JUMP JUMPDEST JUMP JUMPDEST PUSH1 0x20 SWAP2 DUP2 MSTORE ADD SWAP1 JUMP JUMPDEST PUSH1 0x20 PUSH32 0x6464726573730000000000000000000000000000000000000000000000000000 SWAP2 PUSH32 0x4F776E61626C653A206E6577206F776E657220697320746865207A65726F2061 PUSH1 0x0 DUP3 ADD MSTORE ADD MSTORE JUMP JUMPDEST PUSH2 0x3F3 PUSH1 0x26 PUSH1 0x40 SWAP3 PUSH2 0x38F JUMP JUMPDEST PUSH2 0x3FC DUP2 PUSH2 0x398 JUMP JUMPDEST ADD SWAP1 JUMP JUMPDEST PUSH2 0x416 SWAP1 PUSH1 0x20 DUP2 ADD SWAP1 PUSH1 0x0 DUP2 DUP4 SUB SWAP2 ADD MSTORE PUSH2 0x3E6 JUMP JUMPDEST SWAP1 JUMP JUMPDEST ISZERO PUSH2 0x420 JUMPI JUMP JUMPDEST PUSH2 0x428 PUSH2 0x73 JUMP JUMPDEST PUSH3 0x461BCD PUSH1 0xE5 SHL DUP2 MSTORE DUP1 PUSH2 0x43E PUSH1 0x4 DUP3 ADD PUSH2 0x400 JUMP JUMPDEST SUB SWAP1 REVERT JUMPDEST PUSH2 0x471 SWAP1 PUSH2 0x46C DUP2 PUSH2 0x465 PUSH2 0x45F PUSH2 0x45A PUSH1 0x0 PUSH2 0x33C JUMP JUMPDEST PUSH2 0x8E JUMP JUMPDEST SWAP2 PUSH2 0x8E JUMP JUMPDEST EQ ISZERO PUSH2 0x419 JUMP JUMPDEST PUSH2 0x639 JUMP JUMPDEST JUMP JUMPDEST PUSH2 0x47C SWAP1 PUSH2 0x37C JUMP JUMPDEST JUMP JUMPDEST PUSH1 0x0 PUSH32 0x4F776E61626C653A2063616C6C6572206973206E6F7420746865206F776E6572 SWAP2 ADD MSTORE JUMP JUMPDEST PUSH2 0x4B2 PUSH1 0x20 DUP1 SWAP3 PUSH2 0x38F JUMP JUMPDEST PUSH2 0x4BB DUP2 PUSH2 0x47E JUMP JUMPDEST ADD SWAP1 JUMP JUMPDEST PUSH2 0x4D5 SWAP1 PUSH1 0x20 DUP2 ADD SWAP1 PUSH1 0x0 DUP2 DUP4 SUB SWAP2 ADD MSTORE PUSH2 0x4A6 JUMP JUMPDEST SWAP1 JUMP JUMPDEST ISZERO PUSH2 0x4DF JUMPI JUMP JUMPDEST PUSH2 0x4E7 PUSH2 0x73 JUMP JUMPDEST PUSH3 0x461BCD PUSH1 0xE5 SHL DUP2 MSTORE DUP1 PUSH2 0x4FD PUSH1 0x4 DUP3 ADD PUSH2 0x4BF JUMP JUMPDEST SUB SWAP1 REVERT JUMPDEST PUSH2 0x52B PUSH2 0x50C PUSH2 0x366 JUMP JUMPDEST PUSH2 0x525 PUSH2 0x51F PUSH2 0x51A PUSH2 0x69A JUMP JUMPDEST PUSH2 0x8E JUMP JUMPDEST SWAP2 PUSH2 0x8E JUMP JUMPDEST EQ PUSH2 0x4D8 JUMP JUMPDEST JUMP JUMPDEST PUSH1 0x20 PUSH32 0x6E206973206E6F74206120636F6E747261637400000000000000000000000000 SWAP2 PUSH32 0x5570677261646561626C65426561636F6E3A20696D706C656D656E746174696F PUSH1 0x0 DUP3 ADD MSTORE ADD MSTORE JUMP JUMPDEST PUSH2 0x588 PUSH1 0x33 PUSH1 0x40 SWAP3 PUSH2 0x38F JUMP JUMPDEST PUSH2 0x591 DUP2 PUSH2 0x52D JUMP JUMPDEST ADD SWAP1 JUMP JUMPDEST PUSH2 0x5AB SWAP1 PUSH1 0x20 DUP2 ADD SWAP1 PUSH1 0x0 DUP2 DUP4 SUB SWAP2 ADD MSTORE PUSH2 0x57B JUMP JUMPDEST SWAP1 JUMP JUMPDEST ISZERO PUSH2 0x5B5 JUMPI JUMP JUMPDEST PUSH2 0x5BD PUSH2 0x73 JUMP JUMPDEST PUSH3 0x461BCD PUSH1 0xE5 SHL DUP2 MSTORE DUP1 PUSH2 0x5D3 PUSH1 0x4 DUP3 ADD PUSH2 0x595 JUMP JUMPDEST SUB SWAP1 REVERT JUMPDEST PUSH1 0x0 SHL SWAP1 JUMP JUMPDEST SWAP1 PUSH2 0x5EE PUSH1 0x1 DUP1 PUSH1 0xA0 SHL SUB SWAP2 PUSH2 0x5D7 JUMP JUMPDEST SWAP2 DUP2 NOT AND SWAP2 AND OR SWAP1 JUMP JUMPDEST SWAP1 JUMP JUMPDEST SWAP1 PUSH2 0x610 PUSH2 0x60B PUSH2 0x617 SWAP3 PUSH2 0x25C JUMP JUMPDEST PUSH2 0x5F8 JUMP JUMPDEST DUP3 SLOAD PUSH2 0x5DD JUMP JUMPDEST SWAP1 SSTORE JUMP JUMPDEST PUSH2 0x637 SWAP1 PUSH2 0x630 PUSH2 0x62B DUP3 PUSH2 0x6CB JUMP JUMPDEST PUSH2 0x5AE JUMP JUMPDEST PUSH1 0x1 PUSH2 0x5FB JUMP JUMPDEST JUMP JUMPDEST PUSH2 0x643 PUSH1 0x0 PUSH2 0x2E8 JUMP JUMPDEST PUSH2 0x64E DUP3 PUSH1 0x0 PUSH2 0x5FB JUMP JUMPDEST SWAP1 PUSH2 0x682 PUSH2 0x67C PUSH32 0x8BE0079C531659141344CD1FD0A4F28419497F9722A3DAAFE3B4186F6B6457E0 SWAP4 PUSH2 0x25C JUMP JUMPDEST SWAP2 PUSH2 0x25C JUMP JUMPDEST SWAP2 PUSH2 0x68B PUSH2 0x73 JUMP JUMPDEST DUP1 PUSH2 0x695 DUP2 PUSH2 0xDD JUMP JUMPDEST SUB SWAP1 LOG3 JUMP JUMPDEST PUSH2 0x6A2 PUSH2 0x2BE JUMP JUMPDEST POP CALLER SWAP1 JUMP JUMPDEST PUSH1 0x0 SWAP1 JUMP JUMPDEST SWAP1 JUMP JUMPDEST PUSH2 0x6C3 PUSH2 0x6BE PUSH2 0x6C8 SWAP3 PUSH2 0x31D JUMP JUMPDEST PUSH2 0x231 JUMP JUMPDEST PUSH2 0x6AC JUMP JUMPDEST SWAP1 JUMP JUMPDEST PUSH2 0x6D3 PUSH2 0x6A7 JUMP JUMPDEST POP EXTCODESIZE PUSH2 0x6E8 PUSH2 0x6E2 PUSH1 0x0 PUSH2 0x6AF JUMP JUMPDEST SWAP2 PUSH2 0x6AC JUMP JUMPDEST GT SWAP1 JUMP INVALID LOG2 PUSH5 0x6970667358 0x22 SLT KECCAK256 EXTCODEHASH 0xBF SWAP5 0xB3 0xAA XOR 0x2E PUSH18 0x20F7EE578F52EECCE106FBE2A323E7E4F151 SAR SWAP16 0x27 PUSH23 0x8EAD64736F6C634300081B003300000000000000000000 "
        },
        "methodIdentifiers": {
          "beacon()": "59659e90",
          "deploy(address,address,string,string,uint8,address,bytes32)": "f13b273d",
          "determineAddress(address,address,string,string,uint8,address,bytes32)": "8cfd4e5e",
          "owner()": "8da5cb5b",
          "renounceOwnership()": "715018a6",
          "transferOwnership(address)": "f2fde38b",
          "upgradeBeacon(address)": "1bce4583"
        }
      },
      "userdoc": {
        "events": {
          "ERC20ItemsDeployed(address)": {
            "notice": "Event emitted when a new ERC-20 Items proxy contract is deployed."
          }
        },
        "kind": "user",
        "methods": {
          "constructor": {
            "notice": "Creates an ERC-20 Items Factory."
          },
          "deploy(address,address,string,string,uint8,address,bytes32)": {
            "notice": "Creates an ERC-20 Items proxy."
          },
          "determineAddress(address,address,string,string,uint8,address,bytes32)": {
            "notice": "Computes the address of a proxy instance."
          },
          "upgradeBeacon(address)": {
            "notice": "Upgrades the beacon implementation."
          }
        },
        "notice": "Deployer of ERC-20 Items proxies.",
        "version": 1
      }
    }
  }
}