{
  "src/tokens/ERC20/presets/items/ERC20Items.sol": {
    "ERC20Items": {
      "abi": [
        {
          "inputs": [],
          "stateMutability": "nonpayable",
          "type": "constructor"
        },
        {
          "inputs": [],
          "name": "InvalidInitialization",
          "type": "error"
        },
        {
          "inputs": [],
          "name": "InvalidInitialization",
          "type": "error"
        },
        {
          "anonymous": false,
          "inputs": [
            {
              "indexed": true,
              "internalType": "address",
              "name": "owner",
              "type": "address"
            },
            {
              "indexed": true,
              "internalType": "address",
              "name": "spender",
              "type": "address"
            },
            {
              "indexed": false,
              "internalType": "uint256",
              "name": "value",
              "type": "uint256"
            }
          ],
          "name": "Approval",
          "type": "event"
        },
        {
          "anonymous": false,
          "inputs": [
            {
              "indexed": true,
              "internalType": "bytes32",
              "name": "role",
              "type": "bytes32"
            },
            {
              "indexed": true,
              "internalType": "bytes32",
              "name": "previousAdminRole",
              "type": "bytes32"
            },
            {
              "indexed": true,
              "internalType": "bytes32",
              "name": "newAdminRole",
              "type": "bytes32"
            }
          ],
          "name": "RoleAdminChanged",
          "type": "event"
        },
        {
          "anonymous": false,
          "inputs": [
            {
              "indexed": true,
              "internalType": "bytes32",
              "name": "role",
              "type": "bytes32"
            },
            {
              "indexed": true,
              "internalType": "address",
              "name": "account",
              "type": "address"
            },
            {
              "indexed": true,
              "internalType": "address",
              "name": "sender",
              "type": "address"
            }
          ],
          "name": "RoleGranted",
          "type": "event"
        },
        {
          "anonymous": false,
          "inputs": [
            {
              "indexed": true,
              "internalType": "bytes32",
              "name": "role",
              "type": "bytes32"
            },
            {
              "indexed": true,
              "internalType": "address",
              "name": "account",
              "type": "address"
            },
            {
              "indexed": true,
              "internalType": "address",
              "name": "sender",
              "type": "address"
            }
          ],
          "name": "RoleRevoked",
          "type": "event"
        },
        {
          "anonymous": false,
          "inputs": [
            {
              "indexed": true,
              "internalType": "address",
              "name": "from",
              "type": "address"
            },
            {
              "indexed": true,
              "internalType": "address",
              "name": "to",
              "type": "address"
            },
            {
              "indexed": false,
              "internalType": "uint256",
              "name": "value",
              "type": "uint256"
            }
          ],
          "name": "Transfer",
          "type": "event"
        },
        {
          "inputs": [],
          "name": "DEFAULT_ADMIN_ROLE",
          "outputs": [
            {
              "internalType": "bytes32",
              "name": "",
              "type": "bytes32"
            }
          ],
          "stateMutability": "view",
          "type": "function"
        },
        {
          "inputs": [
            {
              "internalType": "address",
              "name": "wallet",
              "type": "address"
            },
            {
              "components": [
                {
                  "internalType": "address",
                  "name": "approvedSigner",
                  "type": "address"
                },
                {
                  "internalType": "bytes4",
                  "name": "identityType",
                  "type": "bytes4"
                },
                {
                  "internalType": "bytes32",
                  "name": "issuerHash",
                  "type": "bytes32"
                },
                {
                  "internalType": "bytes32",
                  "name": "audienceHash",
                  "type": "bytes32"
                },
                {
                  "internalType": "bytes",
                  "name": "applicationData",
                  "type": "bytes"
                },
                {
                  "components": [
                    {
                      "internalType": "string",
                      "name": "redirectUrl",
                      "type": "string"
                    },
                    {
                      "internalType": "uint64",
                      "name": "issuedAt",
                      "type": "uint64"
                    }
                  ],
                  "internalType": "struct AuthData",
                  "name": "authData",
                  "type": "tuple"
                }
              ],
              "internalType": "struct Attestation",
              "name": "attestation",
              "type": "tuple"
            },
            {
              "components": [
                {
                  "internalType": "address",
                  "name": "to",
                  "type": "address"
                },
                {
                  "internalType": "uint256",
                  "name": "value",
                  "type": "uint256"
                },
                {
                  "internalType": "bytes",
                  "name": "data",
                  "type": "bytes"
                },
                {
                  "internalType": "uint256",
                  "name": "gasLimit",
                  "type": "uint256"
                },
                {
                  "internalType": "bool",
                  "name": "delegateCall",
                  "type": "bool"
                },
                {
                  "internalType": "bool",
                  "name": "onlyFallback",
                  "type": "bool"
                },
                {
                  "internalType": "uint256",
                  "name": "behaviorOnError",
                  "type": "uint256"
                }
              ],
              "internalType": "struct Payload.Call",
              "name": "call",
              "type": "tuple"
            }
          ],
          "name": "acceptImplicitRequest",
          "outputs": [
            {
              "internalType": "bytes32",
              "name": "",
              "type": "bytes32"
            }
          ],
          "stateMutability": "view",
          "type": "function"
        },
        {
          "inputs": [
            {
              "internalType": "address",
              "name": "owner",
              "type": "address"
            },
            {
              "internalType": "address",
              "name": "spender",
              "type": "address"
            }
          ],
          "name": "allowance",
          "outputs": [
            {
              "internalType": "uint256",
              "name": "",
              "type": "uint256"
            }
          ],
          "stateMutability": "view",
          "type": "function"
        },
        {
          "inputs": [
            {
              "internalType": "address",
              "name": "spender",
              "type": "address"
            },
            {
              "internalType": "uint256",
              "name": "amount",
              "type": "uint256"
            }
          ],
          "name": "approve",
          "outputs": [
            {
              "internalType": "bool",
              "name": "",
              "type": "bool"
            }
          ],
          "stateMutability": "nonpayable",
          "type": "function"
        },
        {
          "inputs": [
            {
              "internalType": "address",
              "name": "account",
              "type": "address"
            }
          ],
          "name": "balanceOf",
          "outputs": [
            {
              "internalType": "uint256",
              "name": "",
              "type": "uint256"
            }
          ],
          "stateMutability": "view",
          "type": "function"
        },
        {
          "inputs": [
            {
              "internalType": "uint256",
              "name": "amount",
              "type": "uint256"
            }
          ],
          "name": "burn",
          "outputs": [],
          "stateMutability": "nonpayable",
          "type": "function"
        },
        {
          "inputs": [],
          "name": "decimals",
          "outputs": [
            {
              "internalType": "uint8",
              "name": "",
              "type": "uint8"
            }
          ],
          "stateMutability": "view",
          "type": "function"
        },
        {
          "inputs": [
            {
              "internalType": "address",
              "name": "spender",
              "type": "address"
            },
            {
              "internalType": "uint256",
              "name": "subtractedValue",
              "type": "uint256"
            }
          ],
          "name": "decreaseAllowance",
          "outputs": [
            {
              "internalType": "bool",
              "name": "",
              "type": "bool"
            }
          ],
          "stateMutability": "nonpayable",
          "type": "function"
        },
        {
          "inputs": [
            {
              "internalType": "bytes32",
              "name": "role",
              "type": "bytes32"
            }
          ],
          "name": "getRoleAdmin",
          "outputs": [
            {
              "internalType": "bytes32",
              "name": "",
              "type": "bytes32"
            }
          ],
          "stateMutability": "view",
          "type": "function"
        },
        {
          "inputs": [
            {
              "internalType": "bytes32",
              "name": "role",
              "type": "bytes32"
            },
            {
              "internalType": "uint256",
              "name": "index",
              "type": "uint256"
            }
          ],
          "name": "getRoleMember",
          "outputs": [
            {
              "internalType": "address",
              "name": "",
              "type": "address"
            }
          ],
          "stateMutability": "view",
          "type": "function"
        },
        {
          "inputs": [
            {
              "internalType": "bytes32",
              "name": "role",
              "type": "bytes32"
            }
          ],
          "name": "getRoleMemberCount",
          "outputs": [
            {
              "internalType": "uint256",
              "name": "",
              "type": "uint256"
            }
          ],
          "stateMutability": "view",
          "type": "function"
        },
        {
          "inputs": [
            {
              "internalType": "bytes32",
              "name": "role",
              "type": "bytes32"
            },
            {
              "internalType": "address",
              "name": "account",
              "type": "address"
            }
          ],
          "name": "grantRole",
          "outputs": [],
          "stateMutability": "nonpayable",
          "type": "function"
        },
        {
          "inputs": [
            {
              "internalType": "bytes32",
              "name": "role",
              "type": "bytes32"
            },
            {
              "internalType": "address",
              "name": "account",
              "type": "address"
            }
          ],
          "name": "hasRole",
          "outputs": [
            {
              "internalType": "bool",
              "name": "",
              "type": "bool"
            }
          ],
          "stateMutability": "view",
          "type": "function"
        },
        {
          "inputs": [
            {
              "internalType": "address",
              "name": "spender",
              "type": "address"
            },
            {
              "internalType": "uint256",
              "name": "addedValue",
              "type": "uint256"
            }
          ],
          "name": "increaseAllowance",
          "outputs": [
            {
              "internalType": "bool",
              "name": "",
              "type": "bool"
            }
          ],
          "stateMutability": "nonpayable",
          "type": "function"
        },
        {
          "inputs": [
            {
              "internalType": "address",
              "name": "owner",
              "type": "address"
            },
            {
              "internalType": "string",
              "name": "tokenName",
              "type": "string"
            },
            {
              "internalType": "string",
              "name": "tokenSymbol",
              "type": "string"
            },
            {
              "internalType": "uint8",
              "name": "tokenDecimals",
              "type": "uint8"
            },
            {
              "internalType": "address",
              "name": "implicitModeValidator",
              "type": "address"
            },
            {
              "internalType": "bytes32",
              "name": "implicitModeProjectId",
              "type": "bytes32"
            }
          ],
          "name": "initialize",
          "outputs": [],
          "stateMutability": "nonpayable",
          "type": "function"
        },
        {
          "inputs": [
            {
              "internalType": "address",
              "name": "to",
              "type": "address"
            },
            {
              "internalType": "uint256",
              "name": "amount",
              "type": "uint256"
            }
          ],
          "name": "mint",
          "outputs": [],
          "stateMutability": "nonpayable",
          "type": "function"
        },
        {
          "inputs": [],
          "name": "name",
          "outputs": [
            {
              "internalType": "string",
              "name": "",
              "type": "string"
            }
          ],
          "stateMutability": "view",
          "type": "function"
        },
        {
          "inputs": [
            {
              "internalType": "bytes32",
              "name": "role",
              "type": "bytes32"
            },
            {
              "internalType": "address",
              "name": "account",
              "type": "address"
            }
          ],
          "name": "renounceRole",
          "outputs": [],
          "stateMutability": "nonpayable",
          "type": "function"
        },
        {
          "inputs": [
            {
              "internalType": "bytes32",
              "name": "role",
              "type": "bytes32"
            },
            {
              "internalType": "address",
              "name": "account",
              "type": "address"
            }
          ],
          "name": "revokeRole",
          "outputs": [],
          "stateMutability": "nonpayable",
          "type": "function"
        },
        {
          "inputs": [
            {
              "internalType": "bytes32",
              "name": "projectId",
              "type": "bytes32"
            }
          ],
          "name": "setImplicitModeProjectId",
          "outputs": [],
          "stateMutability": "nonpayable",
          "type": "function"
        },
        {
          "inputs": [
            {
              "internalType": "address",
              "name": "validator",
              "type": "address"
            }
          ],
          "name": "setImplicitModeValidator",
          "outputs": [],
          "stateMutability": "nonpayable",
          "type": "function"
        },
        {
          "inputs": [
            {
              "internalType": "string",
              "name": "tokenName",
              "type": "string"
            },
            {
              "internalType": "string",
              "name": "tokenSymbol",
              "type": "string"
            }
          ],
          "name": "setNameAndSymbol",
          "outputs": [],
          "stateMutability": "nonpayable",
          "type": "function"
        },
        {
          "inputs": [
            {
              "internalType": "bytes4",
              "name": "interfaceId",
              "type": "bytes4"
            }
          ],
          "name": "supportsInterface",
          "outputs": [
            {
              "internalType": "bool",
              "name": "",
              "type": "bool"
            }
          ],
          "stateMutability": "view",
          "type": "function"
        },
        {
          "inputs": [],
          "name": "symbol",
          "outputs": [
            {
              "internalType": "string",
              "name": "",
              "type": "string"
            }
          ],
          "stateMutability": "view",
          "type": "function"
        },
        {
          "inputs": [],
          "name": "totalSupply",
          "outputs": [
            {
              "internalType": "uint256",
              "name": "",
              "type": "uint256"
            }
          ],
          "stateMutability": "view",
          "type": "function"
        },
        {
          "inputs": [
            {
              "internalType": "address",
              "name": "to",
              "type": "address"
            },
            {
              "internalType": "uint256",
              "name": "amount",
              "type": "uint256"
            }
          ],
          "name": "transfer",
          "outputs": [
            {
              "internalType": "bool",
              "name": "",
              "type": "bool"
            }
          ],
          "stateMutability": "nonpayable",
          "type": "function"
        },
        {
          "inputs": [
            {
              "internalType": "address",
              "name": "from",
              "type": "address"
            },
            {
              "internalType": "address",
              "name": "to",
              "type": "address"
            },
            {
              "internalType": "uint256",
              "name": "amount",
              "type": "uint256"
            }
          ],
          "name": "transferFrom",
          "outputs": [
            {
              "internalType": "bool",
              "name": "",
              "type": "bool"
            }
          ],
          "stateMutability": "nonpayable",
          "type": "function"
        }
      ],
      "devdoc": {
        "events": {
          "Approval(address,address,uint256)": {
            "details": "Emitted when the allowance of a `spender` for an `owner` is set by a call to {approve}. `value` is the new allowance."
          },
          "RoleAdminChanged(bytes32,bytes32,bytes32)": {
            "details": "Emitted when `newAdminRole` is set as ``role``'s admin role, replacing `previousAdminRole` `DEFAULT_ADMIN_ROLE` is the starting admin for all roles, despite {RoleAdminChanged} not being emitted signaling this. _Available since v3.1._"
          },
          "RoleGranted(bytes32,address,address)": {
            "details": "Emitted when `account` is granted `role`. `sender` is the account that originated the contract call, an admin role bearer except when using {AccessControl-_setupRole}."
          },
          "RoleRevoked(bytes32,address,address)": {
            "details": "Emitted when `account` is revoked `role`. `sender` is the account that originated the contract call:   - if using `revokeRole`, it is the admin role bearer   - if using `renounceRole`, it is the role bearer (i.e. `account`)"
          },
          "Transfer(address,address,uint256)": {
            "details": "Emitted when `value` tokens are moved from one account (`from`) to another (`to`). Note that `value` may be zero."
          }
        },
        "kind": "dev",
        "methods": {
          "acceptImplicitRequest(address,(address,bytes4,bytes32,bytes32,bytes,(string,uint64)),(address,uint256,bytes,uint256,bool,bool,uint256))": {
            "params": {
              "attestation": "The attestation data",
              "call": "The call to validate",
              "wallet": "The wallet's address"
            },
            "returns": {
              "_0": "The hash of the implicit request if valid"
            }
          },
          "allowance(address,address)": {
            "details": "See {IERC20-allowance}."
          },
          "approve(address,uint256)": {
            "details": "See {IERC20-approve}. NOTE: If `amount` is the maximum `uint256`, the allowance is not updated on `transferFrom`. This is semantically equivalent to an infinite approval. Requirements: - `spender` cannot be the zero address."
          },
          "balanceOf(address)": {
            "details": "See {IERC20-balanceOf}."
          },
          "burn(uint256)": {
            "params": {
              "amount": "Amount of tokens to burn"
            }
          },
          "decreaseAllowance(address,uint256)": {
            "details": "Atomically decreases the allowance granted to `spender` by the caller. This is an alternative to {approve} that can be used as a mitigation for problems described in {IERC20-approve}. Emits an {Approval} event indicating the updated allowance. Requirements: - `spender` cannot be the zero address. - `spender` must have allowance for the caller of at least `subtractedValue`."
          },
          "getRoleAdmin(bytes32)": {
            "details": "Returns the admin role that controls `role`. See {grantRole} and {revokeRole}. To change a role's admin, use {_setRoleAdmin}."
          },
          "getRoleMember(bytes32,uint256)": {
            "details": "Returns one of the accounts that have `role`. `index` must be a value between 0 and {getRoleMemberCount}, non-inclusive. Role bearers are not sorted in any particular way, and their ordering may change at any point. WARNING: When using {getRoleMember} and {getRoleMemberCount}, make sure you perform all queries on the same block. See the following https://forum.openzeppelin.com/t/iterating-over-elements-on-enumerableset-in-openzeppelin-contracts/2296[forum post] for more information."
          },
          "getRoleMemberCount(bytes32)": {
            "details": "Returns the number of accounts that have `role`. Can be used together with {getRoleMember} to enumerate all bearers of a role."
          },
          "grantRole(bytes32,address)": {
            "details": "Grants `role` to `account`. If `account` had not been already granted `role`, emits a {RoleGranted} event. Requirements: - the caller must have ``role``'s admin role. May emit a {RoleGranted} event."
          },
          "hasRole(bytes32,address)": {
            "details": "Returns `true` if `account` has been granted `role`."
          },
          "increaseAllowance(address,uint256)": {
            "details": "Atomically increases the allowance granted to `spender` by the caller. This is an alternative to {approve} that can be used as a mitigation for problems described in {IERC20-approve}. Emits an {Approval} event indicating the updated allowance. Requirements: - `spender` cannot be the zero address."
          },
          "initialize(address,string,string,uint8,address,bytes32)": {
            "details": "This should be called immediately after deployment.",
            "params": {
              "implicitModeProjectId": "The implicit mode project id",
              "implicitModeValidator": "The implicit mode validator address",
              "owner": "The owner of the contract",
              "tokenDecimals": "Number of decimals",
              "tokenName": "Name of the token",
              "tokenSymbol": "Symbol of the token"
            }
          },
          "mint(address,uint256)": {
            "params": {
              "amount": "Amount of tokens to mint.",
              "to": "Address to mint tokens to."
            }
          },
          "renounceRole(bytes32,address)": {
            "details": "Revokes `role` from the calling account. Roles are often managed via {grantRole} and {revokeRole}: this function's purpose is to provide a mechanism for accounts to lose their privileges if they are compromised (such as when a trusted device is misplaced). If the calling account had been revoked `role`, emits a {RoleRevoked} event. Requirements: - the caller must be `account`. May emit a {RoleRevoked} event."
          },
          "revokeRole(bytes32,address)": {
            "details": "Revokes `role` from `account`. If `account` had been granted `role`, emits a {RoleRevoked} event. Requirements: - the caller must have ``role``'s admin role. May emit a {RoleRevoked} event."
          },
          "setImplicitModeProjectId(bytes32)": {
            "params": {
              "projectId": "The project id."
            }
          },
          "setImplicitModeValidator(address)": {
            "params": {
              "validator": "The validator address."
            }
          },
          "setNameAndSymbol(string,string)": {
            "params": {
              "tokenName": "Name of token.",
              "tokenSymbol": "Symbol of token."
            }
          },
          "supportsInterface(bytes4)": {
            "params": {
              "interfaceId": "Interface id"
            },
            "returns": {
              "_0": "True if supported"
            }
          },
          "totalSupply()": {
            "details": "See {IERC20-totalSupply}."
          },
          "transfer(address,uint256)": {
            "details": "See {IERC20-transfer}. Requirements: - `to` cannot be the zero address. - the caller must have a balance of at least `amount`."
          },
          "transferFrom(address,address,uint256)": {
            "details": "See {IERC20-transferFrom}. Emits an {Approval} event indicating the updated allowance. This is not required by the EIP. See the note at the beginning of {ERC20}. NOTE: Does not update the allowance if the current allowance is the maximum `uint256`. Requirements: - `from` and `to` cannot be the zero address. - `from` must have a balance of at least `amount`. - the caller must have allowance for ``from``'s tokens of at least `amount`."
          }
        },
        "version": 1
      },
      "evm": {
        "bytecode": {
          "linkReferences": {},
          "object": "60c06040523461003957610011610049565b61001961003e565b6137ba610426823960805181612a1c015260a0518161175401526137ba90f35b610044565b60405190565b600080fd5b610051610057565b3360a052565b61005f610061565b565b61006961006b565b565b610073610121565b565b601f801991011690565b634e487b7160e01b600052604160045260246000fd5b9061009f90610075565b810190811060018060401b038211176100b757604052565b61007f565b906100cf6100c861003e565b9283610095565b565b60018060401b0381116100ed576100e9602091610075565b0190565b61007f565b906101046100ff836100d1565b6100bc565b918252565b61011360006100f2565b90565b61011e610109565b90565b61013a61012c610116565b610134610116565b90610140565b33608052565b9061014a9161014c565b565b9061015691610158565b565b9061016291610164565b565b9061016e91610170565b565b9061017a9161017c565b565b9061018691610188565b565b9061019291610194565b565b9061019e916101a0565b565b906101aa9161040d565b565b5190565b634e487b7160e01b600052602260045260246000fd5b90600160028304921680156101e6575b60208310146101e157565b6101b0565b91607f16916101d6565b600052602060002090565b601f602091010490565b1b90565b9190600861022591029161021f60001984610205565b92610205565b9181191691161790565b90565b90565b61024961024461024e9261022f565b610232565b61022f565b90565b90565b919061026a61026561027293610235565b610251565b908354610209565b9055565b600090565b61028d91610287610276565b91610254565b565b5b81811061029b575050565b806102a9600060019361027b565b01610290565b9190601f81116102bf575b505050565b6102cb6102f0936101f0565b9060206102d7846101fb565b830193106102f8575b6102e9906101fb565b019061028f565b3880806102ba565b91506102e9819290506102e0565b1c90565b9061031b9060001990600802610306565b191690565b8161032a9161030a565b906002021790565b9061033c816101ac565b9060018060401b0382116103fc5761035e8261035885546101c6565b856102af565b602090601f83116001146103935791809161038293600092610387575b5050610320565b90555b565b9091500151388061037b565b601f198316916103a2856101f0565b9260005b8181106103e4575091600293918560019694106103ca575b50505002019055610385565b6103da910151601f84169061030a565b90553880806103be565b919360206001819287870151815501950192016103a6565b61007f565b9061040b91610332565b565b9061041c610423926003610401565b6004610401565b56fe60806040526004361015610013575b610dcf565b61001e6000356101cd565b806301ffc9a7146101c857806306fdde03146101c3578063095ea7b3146101be5780630bb310de146101b957806318160ddd146101b457806323b872dd146101af578063248a9ca3146101aa5780632f2ff15d146101a5578063313ce567146101a057806336568abe1461019b578063395093511461019657806340c10f191461019157806342966c681461018c5780635a4462151461018757806370a08231146101825780639010d07c1461017d57806391d148541461017857806395d89b41146101735780639c14f2981461016e5780639d043a6614610169578063a217fddf14610164578063a457c2d71461015f578063a9059cbb1461015a578063ca15c87314610155578063d547741f14610150578063dd62ed3e1461014b5763ed4c2ac70361000e57610d9c565b610d66565b610d04565b610ccf565b610c99565b610c63565b610c2e565b610bbb565b610aec565b6109fe565b6109c8565b610992565b61090c565b6108d8565b610761565b61070e565b6106d8565b6106a4565b61066f565b610612565b6105af565b610510565b6104a0565b61044a565b6103ef565b61032a565b61025f565b60e01c90565b60405190565b600080fd5b600080fd5b600080fd5b63ffffffff60e01b1690565b6101fd816101e8565b0361020457565b600080fd5b90503590610216826101f4565b565b906020828203126102325761022f91600001610209565b90565b6101de565b151590565b61024590610237565b9052565b919061025d9060006020850194019061023c565b565b3461028f5761028b61027a610275366004610218565b610dd9565b6102826101d3565b91829182610249565b0390f35b6101d9565b600091031261029f57565b6101de565b5190565b60209181520190565b60005b8381106102c5575050906000910152565b8060209183015181850152016102b4565b601f801991011690565b6102ff61030860209361030d936102f6816102a4565b938480936102a8565b958691016102b1565b6102d6565b0190565b61032791602082019160008184039101526102e0565b90565b3461035a5761033a366004610294565b610356610345610f52565b61034d6101d3565b91829182610311565b0390f35b6101d9565b60018060a01b031690565b6103739061035f565b90565b61037f8161036a565b0361038657565b600080fd5b9050359061039882610376565b565b90565b6103a68161039a565b036103ad57565b600080fd5b905035906103bf8261039d565b565b91906040838203126103ea57806103de6103e7926000860161038b565b936020016103b2565b90565b6101de565b346104205761041c61040b6104053660046103c1565b90610f68565b6104136101d3565b91829182610249565b0390f35b6101d9565b9060208282031261043f5761043c9160000161038b565b90565b6101de565b60000190565b346104785761046261045d366004610425565b61105f565b61046a6101d3565b8061047481610444565b0390f35b6101d9565b6104869061039a565b9052565b919061049e9060006020850194019061047d565b565b346104d0576104b0366004610294565b6104cc6104bb611099565b6104c36101d3565b9182918261048a565b0390f35b6101d9565b909160608284031261050b576105086104f1846000850161038b565b936104ff816020860161038b565b936040016103b2565b90565b6101de565b346105415761053d61052c6105263660046104d5565b916110af565b6105346101d3565b91829182610249565b0390f35b6101d9565b90565b61055281610546565b0361055957565b600080fd5b9050359061056b82610549565b565b90602082820312610587576105849160000161055e565b90565b6101de565b61059590610546565b9052565b91906105ad9060006020850194019061058c565b565b346105df576105db6105ca6105c536600461056d565b61112b565b6105d26101d3565b91829182610599565b0390f35b6101d9565b919060408382031261060d578061060161060a926000860161055e565b9360200161038b565b90565b6101de565b346106415761062b6106253660046105e4565b90611176565b6106336101d3565b8061063d81610444565b0390f35b6101d9565b60ff1690565b61065590610646565b9052565b919061066d9060006020850194019061064c565b565b3461069f5761067f366004610294565b61069b61068a6111ae565b6106926101d3565b91829182610659565b0390f35b6101d9565b346106d3576106bd6106b73660046105e4565b9061126e565b6106c56101d3565b806106cf81610444565b0390f35b6101d9565b34610709576107056106f46106ee3660046103c1565b906112d8565b6106fc6101d3565b91829182610249565b0390f35b6101d9565b3461073d576107276107213660046103c1565b90611359565b61072f6101d3565b8061073981610444565b0390f35b6101d9565b9060208282031261075c57610759916000016103b2565b90565b6101de565b3461078f57610779610774366004610742565b611365565b6107816101d3565b8061078b81610444565b0390f35b6101d9565b600080fd5b600080fd5b634e487b7160e01b600052604160045260246000fd5b906107be906102d6565b810190811067ffffffffffffffff8211176107d857604052565b61079e565b906107f06107e96101d3565b92836107b4565b565b67ffffffffffffffff81116108105761080c6020916102d6565b0190565b61079e565b90826000939282370152565b90929192610836610831826107f2565b6107dd565b938185526020850190828401116108525761085092610815565b565b610799565b9080601f830112156108755781602061087293359101610821565b90565b610794565b9190916040818403126108d357600081013567ffffffffffffffff81116108ce57836108a7918301610857565b92602082013567ffffffffffffffff81116108c9576108c69201610857565b90565b6101e3565b6101e3565b6101de565b34610907576108f16108eb36600461087a565b906115ae565b6108f96101d3565b8061090381610444565b0390f35b6101d9565b3461093c57610938610927610922366004610425565b6115ea565b61092f6101d3565b9182918261048a565b0390f35b6101d9565b919060408382031261096a578061095e610967926000860161055e565b936020016103b2565b90565b6101de565b6109789061036a565b9052565b91906109909060006020850194019061096f565b565b346109c3576109bf6109ae6109a8366004610941565b90611629565b6109b66101d3565b9182918261097c565b0390f35b6101d9565b346109f9576109f56109e46109de3660046105e4565b90611690565b6109ec6101d3565b91829182610249565b0390f35b6101d9565b34610a2e57610a0e366004610294565b610a2a610a196116bb565b610a216101d3565b91829182610311565b0390f35b6101d9565b610a3c81610646565b03610a4357565b600080fd5b90503590610a5582610a33565b565b909160c082840312610ae757610a70836000840161038b565b92602083013567ffffffffffffffff8111610ae25781610a91918501610857565b92604081013567ffffffffffffffff8111610add5782610ab2918301610857565b92610ada610ac38460608501610a48565b93610ad1816080860161038b565b9360a00161055e565b90565b6101e3565b6101e3565b6101de565b34610b2157610b0b610aff366004610a57565b94939093929192611745565b610b136101d3565b80610b1d81610444565b0390f35b6101d9565b600080fd5b908160c0910312610b395790565b610b26565b908160e0910312610b4c5790565b610b26565b91606083830312610bb657610b69826000850161038b565b92602081013567ffffffffffffffff8111610bb15783610b8a918301610b2b565b92604082013567ffffffffffffffff8111610bac57610ba99201610b3e565b90565b6101e3565b6101e3565b6101de565b34610bec57610be8610bd7610bd1366004610b51565b91611b3a565b610bdf6101d3565b91829182610599565b0390f35b6101d9565b90565b60001b90565b610c0e610c09610c1392610bf1565b610bf4565b610546565b90565b610c206000610bfa565b90565b610c2b610c16565b90565b34610c5e57610c3e366004610294565b610c5a610c49610c23565b610c516101d3565b91829182610599565b0390f35b6101d9565b34610c9457610c90610c7f610c793660046103c1565b90611c93565b610c876101d3565b91829182610249565b0390f35b6101d9565b34610cca57610cc6610cb5610caf3660046103c1565b90611ce7565b610cbd6101d3565b91829182610249565b0390f35b6101d9565b34610cff57610cfb610cea610ce536600461056d565b611d09565b610cf26101d3565b9182918261048a565b0390f35b6101d9565b34610d3357610d1d610d173660046105e4565b90611d59565b610d256101d3565b80610d2f81610444565b0390f35b6101d9565b9190604083820312610d615780610d55610d5e926000860161038b565b9360200161038b565b90565b6101de565b34610d9757610d93610d82610d7c366004610d38565b90611d7d565b610d8a6101d3565b9182918261048a565b0390f35b6101d9565b34610dca57610db4610daf36600461056d565b611e10565b610dbc6101d3565b80610dc681610444565b0390f35b6101d9565b600080fd5b600090565b610de1610dd4565b506306a15b4360e21b610dfc610df6836101e8565b916101e8565b148015610e20575b908115610e10575b5090565b610e1a9150611e1b565b38610e0c565b50610e2a81611e1b565b610e04565b606090565b634e487b7160e01b600052602260045260246000fd5b9060016002830492168015610e6a575b6020831014610e6557565b610e34565b91607f1691610e5a565b60209181520190565b600052602060002090565b9060009291805490610ea3610e9c83610e4a565b8094610e74565b91600181169081600014610efc5750600114610ebf575b505050565b610ecc9192939450610e7d565b916000925b818410610ee45750500190388080610eba565b60018160209295939554848601520191019290610ed1565b92949550505060ff1916825215156020020190388080610eba565b90610f2191610e88565b90565b90610f44610f3d92610f346101d3565b93848092610f17565b03836107b4565b565b610f4f90610f24565b90565b610f5a610e2f565b50610f656009610f46565b90565b610f8591610f74610dd4565b50610f7d611e83565b91909161202c565b600190565b7f70649ec320b507febad3e8ef750e5f580b9ae32f9f50d4c7b121332c8197153090565b610fc790610fc2610fbd610f8a565b6120ea565b61104a565b565b90565b610fe0610fdb610fe59261035f565b610fc9565b61035f565b90565b610ff190610fcc565b90565b610ffd90610fe8565b90565b9061101160018060a01b0391610bf4565b9181191691161790565b61102490610fe8565b90565b90565b9061103f61103a6110469261101b565b611027565b8254611000565b9055565b61105661105d91610ff4565b600761102a565b565b61106890610fae565b565b600090565b60001c90565b90565b6110846110899161106f565b611075565b90565b6110969054611078565b90565b6110a161106a565b506110ac600261108c565b90565b916110d9926110bc610dd4565b506110d16110c8611e83565b82908491612182565b9190916123f6565b600190565b600090565b6110ec90610546565b90565b906110f9906110e3565b600052602052604060002090565b90565b61111661111b9161106f565b611107565b90565b611128905461110a565b90565b600161114461114a9261113c6110de565b5060056110ef565b0161111e565b90565b906111689161116361115e8261112b565b6120ea565b61116a565b565b906111749161250c565b565b906111809161114d565b565b600090565b60ff1690565b61119961119e9161106f565b611187565b90565b6111ab905461118d565b90565b6111b6611182565b506111c1600b6111a1565b90565b60207f20726f6c657320666f722073656c660000000000000000000000000000000000917f416363657373436f6e74726f6c3a2063616e206f6e6c792072656e6f756e636560008201520152565b61121f602f6040926102a8565b611228816111c4565b0190565b6112429060208101906000818303910152611212565b90565b1561124c57565b6112546101d3565b62461bcd60e51b81528061126a6004820161122c565b0390fd5b9061129b916112968261129061128a611285611e83565b61036a565b9161036a565b14611245565b612536565b565b634e487b7160e01b600052601160045260246000fd5b6112c26112c89193929361039a565b9261039a565b82018092116112d357565b61129d565b611308916112e4610dd4565b506113026112f0611e83565b916112fd83948094611d7d565b6112b3565b9161202c565b600190565b7f9f2df0fed2c77648de5860a4cc508cd0818c85b8b8a1ab4ceeef8d981c8956a690565b9061134b9161134661134161130d565b6120ea565b61134d565b565b90611357916125e4565b565b9061136391611331565b565b61136f90336127fe565b565b9061138b91611386611381610c16565b6120ea565b611596565b565b601f602091010490565b1b90565b919060086113b79102916113b160001984611397565b92611397565b9181191691161790565b6113d56113d06113da9261039a565b610fc9565b61039a565b90565b90565b91906113f66113f16113fe936113c1565b6113dd565b90835461139b565b9055565b6114149161140e61106a565b916113e0565b565b5b818110611422575050565b806114306000600193611402565b01611417565b9190601f8111611446575b505050565b61145261147793610e7d565b90602061145e8461138d565b8301931061147f575b6114709061138d565b0190611416565b388080611441565b915061147081929050611467565b1c90565b906114a2906000199060080261148d565b191690565b816114b191611491565b906002021790565b906114c3816102a4565b9067ffffffffffffffff8211611585576114e7826114e18554610e4a565b85611436565b602090601f831160011461151c5791809161150b93600092611510575b50506114a7565b90555b565b90915001513880611504565b601f1983169161152b85610e7d565b9260005b81811061156d57509160029391856001969410611553575b5050500201905561150e565b611563910151601f841690611491565b9055388080611547565b9193602060018192878701518155019501920161152f565b61079e565b90611594916114b9565b565b906115a56115ac92600961158a565b600a61158a565b565b906115b891611371565b565b6115c390610fcc565b90565b6115cf906115ba565b90565b906115dc906115c6565b600052602052604060002090565b611601611606916115f961106a565b5060006115d2565b61108c565b90565b600090565b90611618906110e3565b600052602052604060002090565b90565b9061164961164461164e9361163c611609565b50600661160e565b611626565b61291d565b90565b9061165b906115c6565b600052602052604060002090565b60ff1690565b61167b6116809161106f565b611669565b90565b61168d905461166f565b90565b6116b89160006116ad6116b3936116a5610dd4565b5060056110ef565b01611651565b611683565b90565b6116c3610e2f565b506116ce600a610f46565b90565b60101c90565b6116e36116e8916116d1565b611669565b90565b6116f590546116d7565b90565b60101b90565b9061170c62ff0000916116f8565b9181191691161790565b61171f90610237565b90565b90565b9061173a61173561174192611716565b611722565b82546116fe565b9055565b9394909192943361177e6117787f000000000000000000000000000000000000000000000000000000000000000061036a565b9161036a565b141580156117d7575b6117ba576117ac9561179f9486949091929394612a0f565b6117a761130d565b61250c565b6117b86001600b611725565b565b600063f92ee8a960e01b8152806117d360048201610444565b0390fd5b506117e2600b6116eb565b611787565b60018060a01b031690565b6117fe6118039161106f565b6117e7565b90565b61181090546117f2565b90565b61181c906115ba565b90565b60e01b90565b9050519061183282610549565b565b9060208282031261184e5761184b91600001611825565b90565b6101de565b5061186290602081019061038b565b90565b61186e9061036a565b9052565b50611881906020810190610209565b90565b61188d906101e8565b9052565b506118a090602081019061055e565b90565b6118ac90610546565b9052565b600080fd5b600080fd5b600080fd5b903560016020038236030381121561190057016020813591019167ffffffffffffffff82116118fb5760018202360383136118f657565b6118b5565b6118b0565b6118ba565b60209181520190565b9190611928816119218161192d95611905565b8095610815565b6102d6565b0190565b9035600160400382360303811215611947570190565b6118ba565b903560016020038236030381121561198d57016020813591019167ffffffffffffffff821161198857600182023603831361198357565b6118b5565b6118b0565b6118ba565b91906119ac816119a5816119b195610e74565b8095610815565b6102d6565b0190565b67ffffffffffffffff1690565b6119cb816119b5565b036119d257565b600080fd5b905035906119e4826119c2565b565b506119f59060208101906119d7565b90565b611a01906119b5565b9052565b90611a43906020611a3b611a3160408401611a23600088018861194c565b908683036000880152611992565b94828101906119e6565b9101906119f8565b90565b611af091611ae2611ad760c08301611a6e611a646000870187611853565b6000860190611865565b611a88611a7e6020870187611872565b6020860190611884565b611aa2611a986040870187611891565b60408601906118a3565b611abc611ab26060870187611891565b60608601906118a3565b611ac960808601866118bf565b90858303608087015261190e565b9260a0810190611931565b9060a0818403910152611a05565b90565b939290611b1f604091611b2794611b12606089019260008a019061096f565b8782036020890152611a46565b94019061058c565b565b611b316101d3565b3d6000823e3d90fd5b9150602090611b476110de565b50611b5a611b556007611806565b611813565b611b86633808a90b949294611b91611b72600861111e565b611b7a6101d3565b9788968795869561181f565b855260048501611af3565b03915afa908115611bd657600091611ba8575b5090565b611bc9915060203d8111611bcf575b611bc181836107b4565b810190611834565b38611ba4565b503d611bb7565b611b29565b60207f207a65726f000000000000000000000000000000000000000000000000000000917f45524332303a2064656372656173656420616c6c6f77616e63652062656c6f7760008201520152565b611c3660256040926102a8565b611c3f81611bdb565b0190565b611c599060208101906000818303910152611c29565b90565b15611c6357565b611c6b6101d3565b62461bcd60e51b815280611c8160048201611c43565b0390fd5b90611c90910361039a565b90565b611ce291611c9f610dd4565b50611cdc611cab611e83565b91611cb7838590611d7d565b92611cd584611cce611cc88561039a565b9161039a565b1015611c5c565b9392611c85565b9161202c565b600190565b611d0491611cf3610dd4565b50611cfc611e83565b9190916123f6565b600190565b611d28611d23611d2d92611d1b61106a565b50600661160e565b611626565b612acb565b90565b90611d4b91611d46611d418261112b565b6120ea565b611d4d565b565b90611d5791612536565b565b90611d6391611d30565b565b90611d6f906115c6565b600052602052604060002090565b611da291611d98611d9d92611d9061106a565b506001611d65565b6115d2565b61108c565b90565b611dbe90611db9611db4610f8a565b6120ea565b611e03565b565b90611dcd60001991610bf4565b9181191691161790565b611de09061106f565b90565b90611df8611df3611dff926110e3565b611dd7565b8254611dc0565b9055565b611e0e906008611de3565b565b611e1990611da5565b565b611e23610dd4565b5080611e3e611e386336372b0760e01b6101e8565b916101e8565b148015611e62575b908115611e52575b5090565b611e5c9150612aeb565b38611e4e565b5080611e7d611e7763a219a02560e01b6101e8565b916101e8565b14611e46565b611e8b611609565b503390565b611ea4611e9f611ea992610bf1565b610fc9565b61035f565b90565b611eb590611e90565b90565b60207f7265737300000000000000000000000000000000000000000000000000000000917f45524332303a20617070726f76652066726f6d20746865207a65726f2061646460008201520152565b611f1360246040926102a8565b611f1c81611eb8565b0190565b611f369060208101906000818303910152611f06565b90565b15611f4057565b611f486101d3565b62461bcd60e51b815280611f5e60048201611f20565b0390fd5b60207f7373000000000000000000000000000000000000000000000000000000000000917f45524332303a20617070726f766520746f20746865207a65726f20616464726560008201520152565b611fbd60226040926102a8565b611fc681611f62565b0190565b611fe09060208101906000818303910152611fb0565b90565b15611fea57565b611ff26101d3565b62461bcd60e51b81528061200860048201611fca565b0390fd5b9061202161201c612028926113c1565b6113dd565b8254611dc0565b9055565b9190916120558161204e6120486120436000611eac565b61036a565b9161036a565b1415611f39565b61207b8361207461206e6120696000611eac565b61036a565b9161036a565b1415611fe3565b61209a8261209561208e60018590611d65565b86906115d2565b61200c565b9190916120e56120d36120cd7f8c5be1e5ebec7d5bd14f71427d1e84f3dd0314c0f7b2291e5b200ac8c7c3b925936115c6565b936115c6565b936120dc6101d3565b9182918261048a565b0390a3565b6120fc906120f6611e83565b90612c13565b565b60007f45524332303a20696e73756666696369656e7420616c6c6f77616e6365000000910152565b612133601d6020926102a8565b61213c816120fe565b0190565b6121569060208101906000818303910152612126565b90565b1561216057565b6121686101d3565b62461bcd60e51b81528061217e60048201612140565b0390fd5b61218d818390611d7d565b90816121a361219d60001961039a565b9161039a565b036121af575b50505050565b6121e1936121db916121d4846121cd6121c78561039a565b9161039a565b1015612159565b9392611c85565b9161202c565b388080806121a9565b60207f6472657373000000000000000000000000000000000000000000000000000000917f45524332303a207472616e736665722066726f6d20746865207a65726f20616460008201520152565b61224560256040926102a8565b61224e816121ea565b0190565b6122689060208101906000818303910152612238565b90565b1561227257565b61227a6101d3565b62461bcd60e51b81528061229060048201612252565b0390fd5b60207f6573730000000000000000000000000000000000000000000000000000000000917f45524332303a207472616e7366657220746f20746865207a65726f206164647260008201520152565b6122ef60236040926102a8565b6122f881612294565b0190565b61231290602081019060008183039101526122e2565b90565b1561231c57565b6123246101d3565b62461bcd60e51b81528061233a600482016122fc565b0390fd5b60207f616c616e63650000000000000000000000000000000000000000000000000000917f45524332303a207472616e7366657220616d6f756e742065786365656473206260008201520152565b61239960266040926102a8565b6123a28161233e565b0190565b6123bc906020810190600081830391015261238c565b90565b156123c657565b6123ce6101d3565b62461bcd60e51b8152806123e4600482016123a6565b0390fd5b906123f3910161039a565b90565b91909161241f8161241861241261240d6000611eac565b61036a565b9161036a565b141561226b565b6124458361243e6124386124336000611eac565b61036a565b9161036a565b1415612315565b61249461248361245f61245a600085906115d2565b61108c565b61247c8161247561246f8861039a565b9161039a565b10156123bf565b8490611c85565b61248f600084906115d2565b61200c565b6124bc826124b66124a7600087906115d2565b916124b18361108c565b6123e8565b9061200c565b9190916125076124f56124ef7fddf252ad1be2c89b69c2b068fc378daa952ba7f163c4a11628f55a4df523b3ef936115c6565b936115c6565b936124fe6101d3565b9182918261048a565b0390a3565b9061252e61252961253393612522818590612ccc565b600661160e565b611626565b612db3565b50565b9061255861255361255d9361254c818590612dee565b600661160e565b611626565b612e88565b50565b60007f45524332303a206d696e7420746f20746865207a65726f206164647265737300910152565b612595601f6020926102a8565b61259e81612560565b0190565b6125b89060208101906000818303910152612588565b90565b156125c257565b6125ca6101d3565b62461bcd60e51b8152806125e0600482016125a2565b0390fd5b9061260b826126046125fe6125f96000611eac565b61036a565b9161036a565b14156125bb565b6126286126218261261c600261108c565b6112b3565b600261200c565b6126508161264a61263b600086906115d2565b916126458361108c565b6123e8565b9061200c565b61265a6000611eac565b9190916126a561269361268d7fddf252ad1be2c89b69c2b068fc378daa952ba7f163c4a11628f55a4df523b3ef936115c6565b936115c6565b9361269c6101d3565b9182918261048a565b0390a3565b60207f7300000000000000000000000000000000000000000000000000000000000000917f45524332303a206275726e2066726f6d20746865207a65726f2061646472657360008201520152565b61270560216040926102a8565b61270e816126aa565b0190565b61272890602081019060008183039101526126f8565b90565b1561273257565b61273a6101d3565b62461bcd60e51b81528061275060048201612712565b0390fd5b60207f6365000000000000000000000000000000000000000000000000000000000000917f45524332303a206275726e20616d6f756e7420657863656564732062616c616e60008201520152565b6127af60226040926102a8565b6127b881612754565b0190565b6127d290602081019060008183039101526127a2565b90565b156127dc57565b6127e46101d3565b62461bcd60e51b8152806127fa600482016127bc565b0390fd5b6128248161281d6128176128126000611eac565b61036a565b9161036a565b141561272b565b61287361286261283e612839600085906115d2565b61108c565b61285b8161285461284e8861039a565b9161039a565b10156127d5565b8490611c85565b61286e600084906115d2565b61200c565b61289061288983612884600261108c565b611c85565b600261200c565b9061289b6000611eac565b90916128e56128d36128cd7fddf252ad1be2c89b69c2b068fc378daa952ba7f163c4a11628f55a4df523b3ef936115c6565b936115c6565b936128dc6101d3565b9182918261048a565b0390a3565b90565b6128f96128fe9161106f565b6113c1565b90565b61291561291061291a9261039a565b610fc9565b61035f565b90565b6129496129446129539361293f600061294e95612938611609565b50016128ea565b612f37565b6128ed565b612901565b6115ba565b90565b60081c90565b61296861296d91612956565b611669565b90565b61297a905461295c565b90565b9061298960ff91610bf4565b9181191691161790565b6129a76129a26129ac92610646565b610fc9565b610646565b90565b90565b906129c76129c26129ce92612993565b6129af565b825461297d565b9055565b60081b90565b906129e561ff00916129d2565b9181191691161790565b90612a046129ff612a0b92611716565b611722565b82546129d8565b9055565b9190949233612a46612a407f000000000000000000000000000000000000000000000000000000000000000061036a565b9161036a565b14158015612abb575b612a9e57612a6f612a7692612a68612a9098600961158a565b600a61158a565b600b6129b2565b612a88612a81610c16565b829061250c565b919091612f59565b612a9c6001600b6129ef565b565b600063f92ee8a960e01b815280612ab760048201610444565b0390fd5b50612ac6600b612970565b612a4f565b612ae36000612ae892612adc61106a565b50016128ea565b612f76565b90565b612af3610dd4565b50612afd81612f8e565b908115612b09575b5090565b612b139150612fce565b38612b05565b90565b612b30612b2b612b3592612b19565b610fc9565b61039a565b90565b905090565b60007f416363657373436f6e74726f6c3a206163636f756e7420000000000000000000910152565b612b7160178092612b38565b612b7a81612b3d565b0190565b612ba3612b9a92602092612b91816102a4565b94858093612b38565b938491016102b1565b0190565b60007f206973206d697373696e6720726f6c6520000000000000000000000000000000910152565b612bdb60118092612b38565b612be481612ba7565b0190565b612c02612c0d9392612bfc612c0793612b65565b90612b7e565b612bcf565b90612b7e565b90565b90565b90612c28612c22838390611690565b15610237565b612c30575050565b612ca891612c86612c5f612c4f612c49612c8b95613056565b936128ed565b612c596020612b1c565b906132e3565b91612c77612c6b6101d3565b93849260208401612be8565b602082018103825203826107b4565b612c10565b612c936101d3565b91829162461bcd60e51b835260048301610311565b0390fd5b90612cc1612cbc612cc892611716565b611722565b825461297d565b9055565b612ce0612cda828490611690565b15610237565b612ce9575b5050565b612d0c6001612d076000612cff600586906110ef565b018590611651565b612cac565b90612d15611e83565b90612d52612d4c612d467f2f8788117e7eff1d82e926ec794901d17c78024a50270940304540a733656f0d956110e3565b926115c6565b926115c6565b92612d5b6101d3565b80612d6581610444565b0390a43880612ce5565b612d7890610fcc565b90565b612d8f612d8a612d949261035f565b610fc9565b61039a565b90565b612dab612da6612db09261039a565b610bf4565b610546565b90565b90612de6612de0612ddb612dd66000612deb96612dce610dd4565b500194612d6f565b612d7b565b612d97565b916128ea565b6134d9565b90565b612df9818390611690565b612e02575b5050565b612e256000612e206000612e18600586906110ef565b018590611651565b612cac565b90612e2e611e83565b90612e6b612e65612e5f7ff6391f5c32d9c69d2a47ea670b442974b53935d1edc7fd64eb21e047a839171b956110e3565b926115c6565b926115c6565b92612e746101d3565b80612e7e81610444565b0390a43880612dfe565b90612ebb612eb5612eb0612eab6000612ec096612ea3610dd4565b500194612d6f565b612d7b565b612d97565b916128ea565b6135be565b90565b634e487b7160e01b600052603260045260246000fd5b5490565b600052602060002090565b612ef181612ed9565b821015612f0c57612f03600191612edd565b91020190600090565b612ec3565b612f21906008612f26930261148d565b611107565b90565b90612f349154612f11565b90565b612f56916000612f5092612f496110de565b5001612ee8565b90612f29565b90565b90612f6f612f749392612f6a610f8a565b61250c565b6136c8565b565b6000612f8b91612f8461106a565b5001612ed9565b90565b612f96610dd4565b5080612fb1612fab635a05180f60e01b6101e8565b916101e8565b14908115612fbe575b5090565b612fc891506136e8565b38612fba565b612fd6610dd4565b5080612ff1612feb634e821d3360e11b6101e8565b916101e8565b14908115612ffe575b5090565b6130089150612f8e565b38612ffa565b90565b61302561302061302a9261300e565b610fc9565b610646565b90565b6130376014613011565b90565b61304e61304961305392610646565b610fc9565b61039a565b90565b61307361306e61308992613068610e2f565b50612d6f565b612d7b565b61308361307e61302d565b61303a565b906132e3565b90565b90565b6130a361309e6130a89261308c565b610fc9565b61039a565b90565b6130ba6130c09193929361039a565b9261039a565b916130cc83820261039a565b9281840414901517156130db57565b61129d565b67ffffffffffffffff81116130fe576130fa6020916102d6565b0190565b61079e565b90613115613110836130e0565b6107dd565b918252565b369037565b9061314461312c83613103565b9260208061313a86936130e0565b920191039061311a565b565b600360fc1b90565b5190565b9061315c8261314e565b81101561316e57600160209102010190565b612ec3565b61318761318261318c92610bf1565b610fc9565b61039a565b90565b600f60fb1b90565b90565b6131ae6131a96131b392613197565b610fc9565b61039a565b90565b6131bf9061039a565b600081146131ce576001900390565b61129d565b6f181899199a1a9b1b9c1cb0b131b232b360811b90565b6131f26131d3565b90565b90565b61320c613207613211926131f5565b610fc9565b61039a565b90565b60f81b90565b90565b61323161322c6132369261321a565b610fc9565b610646565b90565b6132589061325261324c61325d94610646565b9161039a565b9061148d565b61039a565b90565b60007f537472696e67733a20686578206c656e67746820696e73756666696369656e74910152565b613294602080926102a8565b61329d81613260565b0190565b6132b79060208101906000818303910152613288565b90565b156132c157565b6132c96101d3565b62461bcd60e51b8152806132df600482016132a1565b0390fd5b91906132ed610e2f565b5061338761337761332361331e61330e6002613309879161308f565b6130ab565b613318600261308f565b906112b3565b61311f565b9261332c613146565b6133458561333f60009360001a93613173565b90613152565b5361334e61318f565b6133678561336160019360001a9361319a565b90613152565b53613372600261308f565b6130ab565b613381600161319a565b906112b3565b925b8361339d613397600161319a565b9161039a565b1115613404576133ab6131ea565b816133b6600f6131f8565b169160108310156133ff576133d26133f3926133f9941a613214565b6133e28591889060001a92613152565b536133ed600461321d565b90613239565b936131b6565b92613389565b612ec3565b61342c9293506134279061342161341b6000613173565b9161039a565b146132ba565b612c10565b90565b90565b600052602060002090565b5490565b61344a8161343d565b8210156134655761345c600191613432565b91020190600090565b612ec3565b919061348061347b613488936110e3565b611dd7565b90835461139b565b9055565b90815491680100000000000000008310156134bc57826134b49160016134ba95018155613441565b9061346a565b565b61079e565b906134cb906110e3565b600052602052604060002090565b6134e1610dd4565b506134f66134f0828490613728565b15610237565b6000146135395761352f6135349261351a6135136000850161342f565b829061348c565b600161352860008501612ed9565b93016134c1565b61200c565b600190565b5050600090565b61354f6135559193929361039a565b9261039a565b820391821161356057565b61129d565b634e487b7160e01b600052603160045260246000fd5b61358d916135876110de565b9161346a565b565b6135988161343d565b80156135b95760019003906135b66135b08383613441565b9061357b565b55565b613565565b6135c6610dd4565b506135dd6135d86001830184906134c1565b61108c565b90816135f26135ec6000613173565b9161039a565b14156000146136c05761367292600161366d928461361b6000966136158561319a565b90613540565b613638613629888501612ed9565b6136328661319a565b90613540565b8061364b6136458461039a565b9161039a565b03613677575b50505061366761366286830161342f565b61358f565b016134c1565b611402565b600190565b6136b8926136aa6136966136906136b3948c8901612ee8565b90612f29565b936136a485918c8901612ee8565b9061346a565b918585016134c1565b61200c565b388080613651565b505050600090565b906136df6136d86136e693610ff4565b600761102a565b6008611de3565b565b6136f0610dd4565b508061370b613705637965db0b60e01b6101e8565b916101e8565b14908115613718575b5090565b613722915061375e565b38613714565b6137469160016137419261373a610dd4565b50016134c1565b61108c565b6137596137536000613173565b9161039a565b141590565b613766610dd4565b5061378061377a6301ffc9a760e01b6101e8565b916101e8565b149056fea2646970667358221220f054ac8ddca73df07efe925c9789862ccbc82a4159f335f2a7d7ebc0d6f5098764736f6c634300081b0033",
          "opcodes": "PUSH1 0xC0 PUSH1 0x40 MSTORE CALLVALUE PUSH2 0x39 JUMPI PUSH2 0x11 PUSH2 0x49 JUMP JUMPDEST PUSH2 0x19 PUSH2 0x3E JUMP JUMPDEST PUSH2 0x37BA PUSH2 0x426 DUP3 CODECOPY PUSH1 0x80 MLOAD DUP2 PUSH2 0x2A1C ADD MSTORE PUSH1 0xA0 MLOAD DUP2 PUSH2 0x1754 ADD MSTORE PUSH2 0x37BA SWAP1 RETURN JUMPDEST PUSH2 0x44 JUMP JUMPDEST PUSH1 0x40 MLOAD SWAP1 JUMP JUMPDEST PUSH1 0x0 DUP1 REVERT JUMPDEST PUSH2 0x51 PUSH2 0x57 JUMP JUMPDEST CALLER PUSH1 0xA0 MSTORE JUMP JUMPDEST PUSH2 0x5F PUSH2 0x61 JUMP JUMPDEST JUMP JUMPDEST PUSH2 0x69 PUSH2 0x6B JUMP JUMPDEST JUMP JUMPDEST PUSH2 0x73 PUSH2 0x121 JUMP JUMPDEST JUMP JUMPDEST PUSH1 0x1F DUP1 NOT SWAP2 ADD AND SWAP1 JUMP JUMPDEST PUSH4 0x4E487B71 PUSH1 0xE0 SHL PUSH1 0x0 MSTORE PUSH1 0x41 PUSH1 0x4 MSTORE PUSH1 0x24 PUSH1 0x0 REVERT JUMPDEST SWAP1 PUSH2 0x9F SWAP1 PUSH2 0x75 JUMP JUMPDEST DUP2 ADD SWAP1 DUP2 LT PUSH1 0x1 DUP1 PUSH1 0x40 SHL SUB DUP3 GT OR PUSH2 0xB7 JUMPI PUSH1 0x40 MSTORE JUMP JUMPDEST PUSH2 0x7F JUMP JUMPDEST SWAP1 PUSH2 0xCF PUSH2 0xC8 PUSH2 0x3E JUMP JUMPDEST SWAP3 DUP4 PUSH2 0x95 JUMP JUMPDEST JUMP JUMPDEST PUSH1 0x1 DUP1 PUSH1 0x40 SHL SUB DUP2 GT PUSH2 0xED JUMPI PUSH2 0xE9 PUSH1 0x20 SWAP2 PUSH2 0x75 JUMP JUMPDEST ADD SWAP1 JUMP JUMPDEST PUSH2 0x7F JUMP JUMPDEST SWAP1 PUSH2 0x104 PUSH2 0xFF DUP4 PUSH2 0xD1 JUMP JUMPDEST PUSH2 0xBC JUMP JUMPDEST SWAP2 DUP3 MSTORE JUMP JUMPDEST PUSH2 0x113 PUSH1 0x0 PUSH2 0xF2 JUMP JUMPDEST SWAP1 JUMP JUMPDEST PUSH2 0x11E PUSH2 0x109 JUMP JUMPDEST SWAP1 JUMP JUMPDEST PUSH2 0x13A PUSH2 0x12C PUSH2 0x116 JUMP JUMPDEST PUSH2 0x134 PUSH2 0x116 JUMP JUMPDEST SWAP1 PUSH2 0x140 JUMP JUMPDEST CALLER PUSH1 0x80 MSTORE JUMP JUMPDEST SWAP1 PUSH2 0x14A SWAP2 PUSH2 0x14C JUMP JUMPDEST JUMP JUMPDEST SWAP1 PUSH2 0x156 SWAP2 PUSH2 0x158 JUMP JUMPDEST JUMP JUMPDEST SWAP1 PUSH2 0x162 SWAP2 PUSH2 0x164 JUMP JUMPDEST JUMP JUMPDEST SWAP1 PUSH2 0x16E SWAP2 PUSH2 0x170 JUMP JUMPDEST JUMP JUMPDEST SWAP1 PUSH2 0x17A SWAP2 PUSH2 0x17C JUMP JUMPDEST JUMP JUMPDEST SWAP1 PUSH2 0x186 SWAP2 PUSH2 0x188 JUMP JUMPDEST JUMP JUMPDEST SWAP1 PUSH2 0x192 SWAP2 PUSH2 0x194 JUMP JUMPDEST JUMP JUMPDEST SWAP1 PUSH2 0x19E SWAP2 PUSH2 0x1A0 JUMP JUMPDEST JUMP JUMPDEST SWAP1 PUSH2 0x1AA SWAP2 PUSH2 0x40D JUMP JUMPDEST JUMP JUMPDEST MLOAD SWAP1 JUMP JUMPDEST PUSH4 0x4E487B71 PUSH1 0xE0 SHL PUSH1 0x0 MSTORE PUSH1 0x22 PUSH1 0x4 MSTORE PUSH1 0x24 PUSH1 0x0 REVERT JUMPDEST SWAP1 PUSH1 0x1 PUSH1 0x2 DUP4 DIV SWAP3 AND DUP1 ISZERO PUSH2 0x1E6 JUMPI JUMPDEST PUSH1 0x20 DUP4 LT EQ PUSH2 0x1E1 JUMPI JUMP JUMPDEST PUSH2 0x1B0 JUMP JUMPDEST SWAP2 PUSH1 0x7F AND SWAP2 PUSH2 0x1D6 JUMP JUMPDEST PUSH1 0x0 MSTORE PUSH1 0x20 PUSH1 0x0 KECCAK256 SWAP1 JUMP JUMPDEST PUSH1 0x1F PUSH1 0x20 SWAP2 ADD DIV SWAP1 JUMP JUMPDEST SHL SWAP1 JUMP JUMPDEST SWAP2 SWAP1 PUSH1 0x8 PUSH2 0x225 SWAP2 MUL SWAP2 PUSH2 0x21F PUSH1 0x0 NOT DUP5 PUSH2 0x205 JUMP JUMPDEST SWAP3 PUSH2 0x205 JUMP JUMPDEST SWAP2 DUP2 NOT AND SWAP2 AND OR SWAP1 JUMP JUMPDEST SWAP1 JUMP JUMPDEST SWAP1 JUMP JUMPDEST PUSH2 0x249 PUSH2 0x244 PUSH2 0x24E SWAP3 PUSH2 0x22F JUMP JUMPDEST PUSH2 0x232 JUMP JUMPDEST PUSH2 0x22F JUMP JUMPDEST SWAP1 JUMP JUMPDEST SWAP1 JUMP JUMPDEST SWAP2 SWAP1 PUSH2 0x26A PUSH2 0x265 PUSH2 0x272 SWAP4 PUSH2 0x235 JUMP JUMPDEST PUSH2 0x251 JUMP JUMPDEST SWAP1 DUP4 SLOAD PUSH2 0x209 JUMP JUMPDEST SWAP1 SSTORE JUMP JUMPDEST PUSH1 0x0 SWAP1 JUMP JUMPDEST PUSH2 0x28D SWAP2 PUSH2 0x287 PUSH2 0x276 JUMP JUMPDEST SWAP2 PUSH2 0x254 JUMP JUMPDEST JUMP JUMPDEST JUMPDEST DUP2 DUP2 LT PUSH2 0x29B JUMPI POP POP JUMP JUMPDEST DUP1 PUSH2 0x2A9 PUSH1 0x0 PUSH1 0x1 SWAP4 PUSH2 0x27B JUMP JUMPDEST ADD PUSH2 0x290 JUMP JUMPDEST SWAP2 SWAP1 PUSH1 0x1F DUP2 GT PUSH2 0x2BF JUMPI JUMPDEST POP POP POP JUMP JUMPDEST PUSH2 0x2CB PUSH2 0x2F0 SWAP4 PUSH2 0x1F0 JUMP JUMPDEST SWAP1 PUSH1 0x20 PUSH2 0x2D7 DUP5 PUSH2 0x1FB JUMP JUMPDEST DUP4 ADD SWAP4 LT PUSH2 0x2F8 JUMPI JUMPDEST PUSH2 0x2E9 SWAP1 PUSH2 0x1FB JUMP JUMPDEST ADD SWAP1 PUSH2 0x28F JUMP JUMPDEST CODESIZE DUP1 DUP1 PUSH2 0x2BA JUMP JUMPDEST SWAP2 POP PUSH2 0x2E9 DUP2 SWAP3 SWAP1 POP PUSH2 0x2E0 JUMP JUMPDEST SHR SWAP1 JUMP JUMPDEST SWAP1 PUSH2 0x31B SWAP1 PUSH1 0x0 NOT SWAP1 PUSH1 0x8 MUL PUSH2 0x306 JUMP JUMPDEST NOT AND SWAP1 JUMP JUMPDEST DUP2 PUSH2 0x32A SWAP2 PUSH2 0x30A JUMP JUMPDEST SWAP1 PUSH1 0x2 MUL OR SWAP1 JUMP JUMPDEST SWAP1 PUSH2 0x33C DUP2 PUSH2 0x1AC JUMP JUMPDEST SWAP1 PUSH1 0x1 DUP1 PUSH1 0x40 SHL SUB DUP3 GT PUSH2 0x3FC JUMPI PUSH2 0x35E DUP3 PUSH2 0x358 DUP6 SLOAD PUSH2 0x1C6 JUMP JUMPDEST DUP6 PUSH2 0x2AF JUMP JUMPDEST PUSH1 0x20 SWAP1 PUSH1 0x1F DUP4 GT PUSH1 0x1 EQ PUSH2 0x393 JUMPI SWAP2 DUP1 SWAP2 PUSH2 0x382 SWAP4 PUSH1 0x0 SWAP3 PUSH2 0x387 JUMPI JUMPDEST POP POP PUSH2 0x320 JUMP JUMPDEST SWAP1 SSTORE JUMPDEST JUMP JUMPDEST SWAP1 SWAP2 POP ADD MLOAD CODESIZE DUP1 PUSH2 0x37B JUMP JUMPDEST PUSH1 0x1F NOT DUP4 AND SWAP2 PUSH2 0x3A2 DUP6 PUSH2 0x1F0 JUMP JUMPDEST SWAP3 PUSH1 0x0 JUMPDEST DUP2 DUP2 LT PUSH2 0x3E4 JUMPI POP SWAP2 PUSH1 0x2 SWAP4 SWAP2 DUP6 PUSH1 0x1 SWAP7 SWAP5 LT PUSH2 0x3CA JUMPI JUMPDEST POP POP POP MUL ADD SWAP1 SSTORE PUSH2 0x385 JUMP JUMPDEST PUSH2 0x3DA SWAP2 ADD MLOAD PUSH1 0x1F DUP5 AND SWAP1 PUSH2 0x30A JUMP JUMPDEST SWAP1 SSTORE CODESIZE DUP1 DUP1 PUSH2 0x3BE JUMP JUMPDEST SWAP2 SWAP4 PUSH1 0x20 PUSH1 0x1 DUP2 SWAP3 DUP8 DUP8 ADD MLOAD DUP2 SSTORE ADD SWAP6 ADD SWAP3 ADD PUSH2 0x3A6 JUMP JUMPDEST PUSH2 0x7F JUMP JUMPDEST SWAP1 PUSH2 0x40B SWAP2 PUSH2 0x332 JUMP JUMPDEST JUMP JUMPDEST SWAP1 PUSH2 0x41C PUSH2 0x423 SWAP3 PUSH1 0x3 PUSH2 0x401 JUMP JUMPDEST PUSH1 0x4 PUSH2 0x401 JUMP JUMPDEST JUMP INVALID PUSH1 0x80 PUSH1 0x40 MSTORE PUSH1 0x4 CALLDATASIZE LT ISZERO PUSH2 0x13 JUMPI JUMPDEST PUSH2 0xDCF JUMP JUMPDEST PUSH2 0x1E PUSH1 0x0 CALLDATALOAD PUSH2 0x1CD JUMP JUMPDEST DUP1 PUSH4 0x1FFC9A7 EQ PUSH2 0x1C8 JUMPI DUP1 PUSH4 0x6FDDE03 EQ PUSH2 0x1C3 JUMPI DUP1 PUSH4 0x95EA7B3 EQ PUSH2 0x1BE JUMPI DUP1 PUSH4 0xBB310DE EQ PUSH2 0x1B9 JUMPI DUP1 PUSH4 0x18160DDD EQ PUSH2 0x1B4 JUMPI DUP1 PUSH4 0x23B872DD EQ PUSH2 0x1AF JUMPI DUP1 PUSH4 0x248A9CA3 EQ PUSH2 0x1AA JUMPI DUP1 PUSH4 0x2F2FF15D EQ PUSH2 0x1A5 JUMPI DUP1 PUSH4 0x313CE567 EQ PUSH2 0x1A0 JUMPI DUP1 PUSH4 0x36568ABE EQ PUSH2 0x19B JUMPI DUP1 PUSH4 0x39509351 EQ PUSH2 0x196 JUMPI DUP1 PUSH4 0x40C10F19 EQ PUSH2 0x191 JUMPI DUP1 PUSH4 0x42966C68 EQ PUSH2 0x18C JUMPI DUP1 PUSH4 0x5A446215 EQ PUSH2 0x187 JUMPI DUP1 PUSH4 0x70A08231 EQ PUSH2 0x182 JUMPI DUP1 PUSH4 0x9010D07C EQ PUSH2 0x17D JUMPI DUP1 PUSH4 0x91D14854 EQ PUSH2 0x178 JUMPI DUP1 PUSH4 0x95D89B41 EQ PUSH2 0x173 JUMPI DUP1 PUSH4 0x9C14F298 EQ PUSH2 0x16E JUMPI DUP1 PUSH4 0x9D043A66 EQ PUSH2 0x169 JUMPI DUP1 PUSH4 0xA217FDDF EQ PUSH2 0x164 JUMPI DUP1 PUSH4 0xA457C2D7 EQ PUSH2 0x15F JUMPI DUP1 PUSH4 0xA9059CBB EQ PUSH2 0x15A JUMPI DUP1 PUSH4 0xCA15C873 EQ PUSH2 0x155 JUMPI DUP1 PUSH4 0xD547741F EQ PUSH2 0x150 JUMPI DUP1 PUSH4 0xDD62ED3E EQ PUSH2 0x14B JUMPI PUSH4 0xED4C2AC7 SUB PUSH2 0xE JUMPI PUSH2 0xD9C JUMP JUMPDEST PUSH2 0xD66 JUMP JUMPDEST PUSH2 0xD04 JUMP JUMPDEST PUSH2 0xCCF JUMP JUMPDEST PUSH2 0xC99 JUMP JUMPDEST PUSH2 0xC63 JUMP JUMPDEST PUSH2 0xC2E JUMP JUMPDEST PUSH2 0xBBB JUMP JUMPDEST PUSH2 0xAEC JUMP JUMPDEST PUSH2 0x9FE JUMP JUMPDEST PUSH2 0x9C8 JUMP JUMPDEST PUSH2 0x992 JUMP JUMPDEST PUSH2 0x90C JUMP JUMPDEST PUSH2 0x8D8 JUMP JUMPDEST PUSH2 0x761 JUMP JUMPDEST PUSH2 0x70E JUMP JUMPDEST PUSH2 0x6D8 JUMP JUMPDEST PUSH2 0x6A4 JUMP JUMPDEST PUSH2 0x66F JUMP JUMPDEST PUSH2 0x612 JUMP JUMPDEST PUSH2 0x5AF JUMP JUMPDEST PUSH2 0x510 JUMP JUMPDEST PUSH2 0x4A0 JUMP JUMPDEST PUSH2 0x44A JUMP JUMPDEST PUSH2 0x3EF JUMP JUMPDEST PUSH2 0x32A JUMP JUMPDEST PUSH2 0x25F JUMP JUMPDEST PUSH1 0xE0 SHR SWAP1 JUMP JUMPDEST PUSH1 0x40 MLOAD SWAP1 JUMP JUMPDEST PUSH1 0x0 DUP1 REVERT JUMPDEST PUSH1 0x0 DUP1 REVERT JUMPDEST PUSH1 0x0 DUP1 REVERT JUMPDEST PUSH4 0xFFFFFFFF PUSH1 0xE0 SHL AND SWAP1 JUMP JUMPDEST PUSH2 0x1FD DUP2 PUSH2 0x1E8 JUMP JUMPDEST SUB PUSH2 0x204 JUMPI JUMP JUMPDEST PUSH1 0x0 DUP1 REVERT JUMPDEST SWAP1 POP CALLDATALOAD SWAP1 PUSH2 0x216 DUP3 PUSH2 0x1F4 JUMP JUMPDEST JUMP JUMPDEST SWAP1 PUSH1 0x20 DUP3 DUP3 SUB SLT PUSH2 0x232 JUMPI PUSH2 0x22F SWAP2 PUSH1 0x0 ADD PUSH2 0x209 JUMP JUMPDEST SWAP1 JUMP JUMPDEST PUSH2 0x1DE JUMP JUMPDEST ISZERO ISZERO SWAP1 JUMP JUMPDEST PUSH2 0x245 SWAP1 PUSH2 0x237 JUMP JUMPDEST SWAP1 MSTORE JUMP JUMPDEST SWAP2 SWAP1 PUSH2 0x25D SWAP1 PUSH1 0x0 PUSH1 0x20 DUP6 ADD SWAP5 ADD SWAP1 PUSH2 0x23C JUMP JUMPDEST JUMP JUMPDEST CALLVALUE PUSH2 0x28F JUMPI PUSH2 0x28B PUSH2 0x27A PUSH2 0x275 CALLDATASIZE PUSH1 0x4 PUSH2 0x218 JUMP JUMPDEST PUSH2 0xDD9 JUMP JUMPDEST PUSH2 0x282 PUSH2 0x1D3 JUMP JUMPDEST SWAP2 DUP3 SWAP2 DUP3 PUSH2 0x249 JUMP JUMPDEST SUB SWAP1 RETURN JUMPDEST PUSH2 0x1D9 JUMP JUMPDEST PUSH1 0x0 SWAP2 SUB SLT PUSH2 0x29F JUMPI JUMP JUMPDEST PUSH2 0x1DE JUMP JUMPDEST MLOAD SWAP1 JUMP JUMPDEST PUSH1 0x20 SWAP2 DUP2 MSTORE ADD SWAP1 JUMP JUMPDEST PUSH1 0x0 JUMPDEST DUP4 DUP2 LT PUSH2 0x2C5 JUMPI POP POP SWAP1 PUSH1 0x0 SWAP2 ADD MSTORE JUMP JUMPDEST DUP1 PUSH1 0x20 SWAP2 DUP4 ADD MLOAD DUP2 DUP6 ADD MSTORE ADD PUSH2 0x2B4 JUMP JUMPDEST PUSH1 0x1F DUP1 NOT SWAP2 ADD AND SWAP1 JUMP JUMPDEST PUSH2 0x2FF PUSH2 0x308 PUSH1 0x20 SWAP4 PUSH2 0x30D SWAP4 PUSH2 0x2F6 DUP2 PUSH2 0x2A4 JUMP JUMPDEST SWAP4 DUP5 DUP1 SWAP4 PUSH2 0x2A8 JUMP JUMPDEST SWAP6 DUP7 SWAP2 ADD PUSH2 0x2B1 JUMP JUMPDEST PUSH2 0x2D6 JUMP JUMPDEST ADD SWAP1 JUMP JUMPDEST PUSH2 0x327 SWAP2 PUSH1 0x20 DUP3 ADD SWAP2 PUSH1 0x0 DUP2 DUP5 SUB SWAP2 ADD MSTORE PUSH2 0x2E0 JUMP JUMPDEST SWAP1 JUMP JUMPDEST CALLVALUE PUSH2 0x35A JUMPI PUSH2 0x33A CALLDATASIZE PUSH1 0x4 PUSH2 0x294 JUMP JUMPDEST PUSH2 0x356 PUSH2 0x345 PUSH2 0xF52 JUMP JUMPDEST PUSH2 0x34D PUSH2 0x1D3 JUMP JUMPDEST SWAP2 DUP3 SWAP2 DUP3 PUSH2 0x311 JUMP JUMPDEST SUB SWAP1 RETURN JUMPDEST PUSH2 0x1D9 JUMP JUMPDEST PUSH1 0x1 DUP1 PUSH1 0xA0 SHL SUB AND SWAP1 JUMP JUMPDEST PUSH2 0x373 SWAP1 PUSH2 0x35F JUMP JUMPDEST SWAP1 JUMP JUMPDEST PUSH2 0x37F DUP2 PUSH2 0x36A JUMP JUMPDEST SUB PUSH2 0x386 JUMPI JUMP JUMPDEST PUSH1 0x0 DUP1 REVERT JUMPDEST SWAP1 POP CALLDATALOAD SWAP1 PUSH2 0x398 DUP3 PUSH2 0x376 JUMP JUMPDEST JUMP JUMPDEST SWAP1 JUMP JUMPDEST PUSH2 0x3A6 DUP2 PUSH2 0x39A JUMP JUMPDEST SUB PUSH2 0x3AD JUMPI JUMP JUMPDEST PUSH1 0x0 DUP1 REVERT JUMPDEST SWAP1 POP CALLDATALOAD SWAP1 PUSH2 0x3BF DUP3 PUSH2 0x39D JUMP JUMPDEST JUMP JUMPDEST SWAP2 SWAP1 PUSH1 0x40 DUP4 DUP3 SUB SLT PUSH2 0x3EA JUMPI DUP1 PUSH2 0x3DE PUSH2 0x3E7 SWAP3 PUSH1 0x0 DUP7 ADD PUSH2 0x38B JUMP JUMPDEST SWAP4 PUSH1 0x20 ADD PUSH2 0x3B2 JUMP JUMPDEST SWAP1 JUMP JUMPDEST PUSH2 0x1DE JUMP JUMPDEST CALLVALUE PUSH2 0x420 JUMPI PUSH2 0x41C PUSH2 0x40B PUSH2 0x405 CALLDATASIZE PUSH1 0x4 PUSH2 0x3C1 JUMP JUMPDEST SWAP1 PUSH2 0xF68 JUMP JUMPDEST PUSH2 0x413 PUSH2 0x1D3 JUMP JUMPDEST SWAP2 DUP3 SWAP2 DUP3 PUSH2 0x249 JUMP JUMPDEST SUB SWAP1 RETURN JUMPDEST PUSH2 0x1D9 JUMP JUMPDEST SWAP1 PUSH1 0x20 DUP3 DUP3 SUB SLT PUSH2 0x43F JUMPI PUSH2 0x43C SWAP2 PUSH1 0x0 ADD PUSH2 0x38B JUMP JUMPDEST SWAP1 JUMP JUMPDEST PUSH2 0x1DE JUMP JUMPDEST PUSH1 0x0 ADD SWAP1 JUMP JUMPDEST CALLVALUE PUSH2 0x478 JUMPI PUSH2 0x462 PUSH2 0x45D CALLDATASIZE PUSH1 0x4 PUSH2 0x425 JUMP JUMPDEST PUSH2 0x105F JUMP JUMPDEST PUSH2 0x46A PUSH2 0x1D3 JUMP JUMPDEST DUP1 PUSH2 0x474 DUP2 PUSH2 0x444 JUMP JUMPDEST SUB SWAP1 RETURN JUMPDEST PUSH2 0x1D9 JUMP JUMPDEST PUSH2 0x486 SWAP1 PUSH2 0x39A JUMP JUMPDEST SWAP1 MSTORE JUMP JUMPDEST SWAP2 SWAP1 PUSH2 0x49E SWAP1 PUSH1 0x0 PUSH1 0x20 DUP6 ADD SWAP5 ADD SWAP1 PUSH2 0x47D JUMP JUMPDEST JUMP JUMPDEST CALLVALUE PUSH2 0x4D0 JUMPI PUSH2 0x4B0 CALLDATASIZE PUSH1 0x4 PUSH2 0x294 JUMP JUMPDEST PUSH2 0x4CC PUSH2 0x4BB PUSH2 0x1099 JUMP JUMPDEST PUSH2 0x4C3 PUSH2 0x1D3 JUMP JUMPDEST SWAP2 DUP3 SWAP2 DUP3 PUSH2 0x48A JUMP JUMPDEST SUB SWAP1 RETURN JUMPDEST PUSH2 0x1D9 JUMP JUMPDEST SWAP1 SWAP2 PUSH1 0x60 DUP3 DUP5 SUB SLT PUSH2 0x50B JUMPI PUSH2 0x508 PUSH2 0x4F1 DUP5 PUSH1 0x0 DUP6 ADD PUSH2 0x38B JUMP JUMPDEST SWAP4 PUSH2 0x4FF DUP2 PUSH1 0x20 DUP7 ADD PUSH2 0x38B JUMP JUMPDEST SWAP4 PUSH1 0x40 ADD PUSH2 0x3B2 JUMP JUMPDEST SWAP1 JUMP JUMPDEST PUSH2 0x1DE JUMP JUMPDEST CALLVALUE PUSH2 0x541 JUMPI PUSH2 0x53D PUSH2 0x52C PUSH2 0x526 CALLDATASIZE PUSH1 0x4 PUSH2 0x4D5 JUMP JUMPDEST SWAP2 PUSH2 0x10AF JUMP JUMPDEST PUSH2 0x534 PUSH2 0x1D3 JUMP JUMPDEST SWAP2 DUP3 SWAP2 DUP3 PUSH2 0x249 JUMP JUMPDEST SUB SWAP1 RETURN JUMPDEST PUSH2 0x1D9 JUMP JUMPDEST SWAP1 JUMP JUMPDEST PUSH2 0x552 DUP2 PUSH2 0x546 JUMP JUMPDEST SUB PUSH2 0x559 JUMPI JUMP JUMPDEST PUSH1 0x0 DUP1 REVERT JUMPDEST SWAP1 POP CALLDATALOAD SWAP1 PUSH2 0x56B DUP3 PUSH2 0x549 JUMP JUMPDEST JUMP JUMPDEST SWAP1 PUSH1 0x20 DUP3 DUP3 SUB SLT PUSH2 0x587 JUMPI PUSH2 0x584 SWAP2 PUSH1 0x0 ADD PUSH2 0x55E JUMP JUMPDEST SWAP1 JUMP JUMPDEST PUSH2 0x1DE JUMP JUMPDEST PUSH2 0x595 SWAP1 PUSH2 0x546 JUMP JUMPDEST SWAP1 MSTORE JUMP JUMPDEST SWAP2 SWAP1 PUSH2 0x5AD SWAP1 PUSH1 0x0 PUSH1 0x20 DUP6 ADD SWAP5 ADD SWAP1 PUSH2 0x58C JUMP JUMPDEST JUMP JUMPDEST CALLVALUE PUSH2 0x5DF JUMPI PUSH2 0x5DB PUSH2 0x5CA PUSH2 0x5C5 CALLDATASIZE PUSH1 0x4 PUSH2 0x56D JUMP JUMPDEST PUSH2 0x112B JUMP JUMPDEST PUSH2 0x5D2 PUSH2 0x1D3 JUMP JUMPDEST SWAP2 DUP3 SWAP2 DUP3 PUSH2 0x599 JUMP JUMPDEST SUB SWAP1 RETURN JUMPDEST PUSH2 0x1D9 JUMP JUMPDEST SWAP2 SWAP1 PUSH1 0x40 DUP4 DUP3 SUB SLT PUSH2 0x60D JUMPI DUP1 PUSH2 0x601 PUSH2 0x60A SWAP3 PUSH1 0x0 DUP7 ADD PUSH2 0x55E JUMP JUMPDEST SWAP4 PUSH1 0x20 ADD PUSH2 0x38B JUMP JUMPDEST SWAP1 JUMP JUMPDEST PUSH2 0x1DE JUMP JUMPDEST CALLVALUE PUSH2 0x641 JUMPI PUSH2 0x62B PUSH2 0x625 CALLDATASIZE PUSH1 0x4 PUSH2 0x5E4 JUMP JUMPDEST SWAP1 PUSH2 0x1176 JUMP JUMPDEST PUSH2 0x633 PUSH2 0x1D3 JUMP JUMPDEST DUP1 PUSH2 0x63D DUP2 PUSH2 0x444 JUMP JUMPDEST SUB SWAP1 RETURN JUMPDEST PUSH2 0x1D9 JUMP JUMPDEST PUSH1 0xFF AND SWAP1 JUMP JUMPDEST PUSH2 0x655 SWAP1 PUSH2 0x646 JUMP JUMPDEST SWAP1 MSTORE JUMP JUMPDEST SWAP2 SWAP1 PUSH2 0x66D SWAP1 PUSH1 0x0 PUSH1 0x20 DUP6 ADD SWAP5 ADD SWAP1 PUSH2 0x64C JUMP JUMPDEST JUMP JUMPDEST CALLVALUE PUSH2 0x69F JUMPI PUSH2 0x67F CALLDATASIZE PUSH1 0x4 PUSH2 0x294 JUMP JUMPDEST PUSH2 0x69B PUSH2 0x68A PUSH2 0x11AE JUMP JUMPDEST PUSH2 0x692 PUSH2 0x1D3 JUMP JUMPDEST SWAP2 DUP3 SWAP2 DUP3 PUSH2 0x659 JUMP JUMPDEST SUB SWAP1 RETURN JUMPDEST PUSH2 0x1D9 JUMP JUMPDEST CALLVALUE PUSH2 0x6D3 JUMPI PUSH2 0x6BD PUSH2 0x6B7 CALLDATASIZE PUSH1 0x4 PUSH2 0x5E4 JUMP JUMPDEST SWAP1 PUSH2 0x126E JUMP JUMPDEST PUSH2 0x6C5 PUSH2 0x1D3 JUMP JUMPDEST DUP1 PUSH2 0x6CF DUP2 PUSH2 0x444 JUMP JUMPDEST SUB SWAP1 RETURN JUMPDEST PUSH2 0x1D9 JUMP JUMPDEST CALLVALUE PUSH2 0x709 JUMPI PUSH2 0x705 PUSH2 0x6F4 PUSH2 0x6EE CALLDATASIZE PUSH1 0x4 PUSH2 0x3C1 JUMP JUMPDEST SWAP1 PUSH2 0x12D8 JUMP JUMPDEST PUSH2 0x6FC PUSH2 0x1D3 JUMP JUMPDEST SWAP2 DUP3 SWAP2 DUP3 PUSH2 0x249 JUMP JUMPDEST SUB SWAP1 RETURN JUMPDEST PUSH2 0x1D9 JUMP JUMPDEST CALLVALUE PUSH2 0x73D JUMPI PUSH2 0x727 PUSH2 0x721 CALLDATASIZE PUSH1 0x4 PUSH2 0x3C1 JUMP JUMPDEST SWAP1 PUSH2 0x1359 JUMP JUMPDEST PUSH2 0x72F PUSH2 0x1D3 JUMP JUMPDEST DUP1 PUSH2 0x739 DUP2 PUSH2 0x444 JUMP JUMPDEST SUB SWAP1 RETURN JUMPDEST PUSH2 0x1D9 JUMP JUMPDEST SWAP1 PUSH1 0x20 DUP3 DUP3 SUB SLT PUSH2 0x75C JUMPI PUSH2 0x759 SWAP2 PUSH1 0x0 ADD PUSH2 0x3B2 JUMP JUMPDEST SWAP1 JUMP JUMPDEST PUSH2 0x1DE JUMP JUMPDEST CALLVALUE PUSH2 0x78F JUMPI PUSH2 0x779 PUSH2 0x774 CALLDATASIZE PUSH1 0x4 PUSH2 0x742 JUMP JUMPDEST PUSH2 0x1365 JUMP JUMPDEST PUSH2 0x781 PUSH2 0x1D3 JUMP JUMPDEST DUP1 PUSH2 0x78B DUP2 PUSH2 0x444 JUMP JUMPDEST SUB SWAP1 RETURN JUMPDEST PUSH2 0x1D9 JUMP JUMPDEST PUSH1 0x0 DUP1 REVERT JUMPDEST PUSH1 0x0 DUP1 REVERT JUMPDEST PUSH4 0x4E487B71 PUSH1 0xE0 SHL PUSH1 0x0 MSTORE PUSH1 0x41 PUSH1 0x4 MSTORE PUSH1 0x24 PUSH1 0x0 REVERT JUMPDEST SWAP1 PUSH2 0x7BE SWAP1 PUSH2 0x2D6 JUMP JUMPDEST DUP2 ADD SWAP1 DUP2 LT PUSH8 0xFFFFFFFFFFFFFFFF DUP3 GT OR PUSH2 0x7D8 JUMPI PUSH1 0x40 MSTORE JUMP JUMPDEST PUSH2 0x79E JUMP JUMPDEST SWAP1 PUSH2 0x7F0 PUSH2 0x7E9 PUSH2 0x1D3 JUMP JUMPDEST SWAP3 DUP4 PUSH2 0x7B4 JUMP JUMPDEST JUMP JUMPDEST PUSH8 0xFFFFFFFFFFFFFFFF DUP2 GT PUSH2 0x810 JUMPI PUSH2 0x80C PUSH1 0x20 SWAP2 PUSH2 0x2D6 JUMP JUMPDEST ADD SWAP1 JUMP JUMPDEST PUSH2 0x79E JUMP JUMPDEST SWAP1 DUP3 PUSH1 0x0 SWAP4 SWAP3 DUP3 CALLDATACOPY ADD MSTORE JUMP JUMPDEST SWAP1 SWAP3 SWAP2 SWAP3 PUSH2 0x836 PUSH2 0x831 DUP3 PUSH2 0x7F2 JUMP JUMPDEST PUSH2 0x7DD JUMP JUMPDEST SWAP4 DUP2 DUP6 MSTORE PUSH1 0x20 DUP6 ADD SWAP1 DUP3 DUP5 ADD GT PUSH2 0x852 JUMPI PUSH2 0x850 SWAP3 PUSH2 0x815 JUMP JUMPDEST JUMP JUMPDEST PUSH2 0x799 JUMP JUMPDEST SWAP1 DUP1 PUSH1 0x1F DUP4 ADD SLT ISZERO PUSH2 0x875 JUMPI DUP2 PUSH1 0x20 PUSH2 0x872 SWAP4 CALLDATALOAD SWAP2 ADD PUSH2 0x821 JUMP JUMPDEST SWAP1 JUMP JUMPDEST PUSH2 0x794 JUMP JUMPDEST SWAP2 SWAP1 SWAP2 PUSH1 0x40 DUP2 DUP5 SUB SLT PUSH2 0x8D3 JUMPI PUSH1 0x0 DUP2 ADD CALLDATALOAD PUSH8 0xFFFFFFFFFFFFFFFF DUP2 GT PUSH2 0x8CE JUMPI DUP4 PUSH2 0x8A7 SWAP2 DUP4 ADD PUSH2 0x857 JUMP JUMPDEST SWAP3 PUSH1 0x20 DUP3 ADD CALLDATALOAD PUSH8 0xFFFFFFFFFFFFFFFF DUP2 GT PUSH2 0x8C9 JUMPI PUSH2 0x8C6 SWAP3 ADD PUSH2 0x857 JUMP JUMPDEST SWAP1 JUMP JUMPDEST PUSH2 0x1E3 JUMP JUMPDEST PUSH2 0x1E3 JUMP JUMPDEST PUSH2 0x1DE JUMP JUMPDEST CALLVALUE PUSH2 0x907 JUMPI PUSH2 0x8F1 PUSH2 0x8EB CALLDATASIZE PUSH1 0x4 PUSH2 0x87A JUMP JUMPDEST SWAP1 PUSH2 0x15AE JUMP JUMPDEST PUSH2 0x8F9 PUSH2 0x1D3 JUMP JUMPDEST DUP1 PUSH2 0x903 DUP2 PUSH2 0x444 JUMP JUMPDEST SUB SWAP1 RETURN JUMPDEST PUSH2 0x1D9 JUMP JUMPDEST CALLVALUE PUSH2 0x93C JUMPI PUSH2 0x938 PUSH2 0x927 PUSH2 0x922 CALLDATASIZE PUSH1 0x4 PUSH2 0x425 JUMP JUMPDEST PUSH2 0x15EA JUMP JUMPDEST PUSH2 0x92F PUSH2 0x1D3 JUMP JUMPDEST SWAP2 DUP3 SWAP2 DUP3 PUSH2 0x48A JUMP JUMPDEST SUB SWAP1 RETURN JUMPDEST PUSH2 0x1D9 JUMP JUMPDEST SWAP2 SWAP1 PUSH1 0x40 DUP4 DUP3 SUB SLT PUSH2 0x96A JUMPI DUP1 PUSH2 0x95E PUSH2 0x967 SWAP3 PUSH1 0x0 DUP7 ADD PUSH2 0x55E JUMP JUMPDEST SWAP4 PUSH1 0x20 ADD PUSH2 0x3B2 JUMP JUMPDEST SWAP1 JUMP JUMPDEST PUSH2 0x1DE JUMP JUMPDEST PUSH2 0x978 SWAP1 PUSH2 0x36A JUMP JUMPDEST SWAP1 MSTORE JUMP JUMPDEST SWAP2 SWAP1 PUSH2 0x990 SWAP1 PUSH1 0x0 PUSH1 0x20 DUP6 ADD SWAP5 ADD SWAP1 PUSH2 0x96F JUMP JUMPDEST JUMP JUMPDEST CALLVALUE PUSH2 0x9C3 JUMPI PUSH2 0x9BF PUSH2 0x9AE PUSH2 0x9A8 CALLDATASIZE PUSH1 0x4 PUSH2 0x941 JUMP JUMPDEST SWAP1 PUSH2 0x1629 JUMP JUMPDEST PUSH2 0x9B6 PUSH2 0x1D3 JUMP JUMPDEST SWAP2 DUP3 SWAP2 DUP3 PUSH2 0x97C JUMP JUMPDEST SUB SWAP1 RETURN JUMPDEST PUSH2 0x1D9 JUMP JUMPDEST CALLVALUE PUSH2 0x9F9 JUMPI PUSH2 0x9F5 PUSH2 0x9E4 PUSH2 0x9DE CALLDATASIZE PUSH1 0x4 PUSH2 0x5E4 JUMP JUMPDEST SWAP1 PUSH2 0x1690 JUMP JUMPDEST PUSH2 0x9EC PUSH2 0x1D3 JUMP JUMPDEST SWAP2 DUP3 SWAP2 DUP3 PUSH2 0x249 JUMP JUMPDEST SUB SWAP1 RETURN JUMPDEST PUSH2 0x1D9 JUMP JUMPDEST CALLVALUE PUSH2 0xA2E JUMPI PUSH2 0xA0E CALLDATASIZE PUSH1 0x4 PUSH2 0x294 JUMP JUMPDEST PUSH2 0xA2A PUSH2 0xA19 PUSH2 0x16BB JUMP JUMPDEST PUSH2 0xA21 PUSH2 0x1D3 JUMP JUMPDEST SWAP2 DUP3 SWAP2 DUP3 PUSH2 0x311 JUMP JUMPDEST SUB SWAP1 RETURN JUMPDEST PUSH2 0x1D9 JUMP JUMPDEST PUSH2 0xA3C DUP2 PUSH2 0x646 JUMP JUMPDEST SUB PUSH2 0xA43 JUMPI JUMP JUMPDEST PUSH1 0x0 DUP1 REVERT JUMPDEST SWAP1 POP CALLDATALOAD SWAP1 PUSH2 0xA55 DUP3 PUSH2 0xA33 JUMP JUMPDEST JUMP JUMPDEST SWAP1 SWAP2 PUSH1 0xC0 DUP3 DUP5 SUB SLT PUSH2 0xAE7 JUMPI PUSH2 0xA70 DUP4 PUSH1 0x0 DUP5 ADD PUSH2 0x38B JUMP JUMPDEST SWAP3 PUSH1 0x20 DUP4 ADD CALLDATALOAD PUSH8 0xFFFFFFFFFFFFFFFF DUP2 GT PUSH2 0xAE2 JUMPI DUP2 PUSH2 0xA91 SWAP2 DUP6 ADD PUSH2 0x857 JUMP JUMPDEST SWAP3 PUSH1 0x40 DUP2 ADD CALLDATALOAD PUSH8 0xFFFFFFFFFFFFFFFF DUP2 GT PUSH2 0xADD JUMPI DUP3 PUSH2 0xAB2 SWAP2 DUP4 ADD PUSH2 0x857 JUMP JUMPDEST SWAP3 PUSH2 0xADA PUSH2 0xAC3 DUP5 PUSH1 0x60 DUP6 ADD PUSH2 0xA48 JUMP JUMPDEST SWAP4 PUSH2 0xAD1 DUP2 PUSH1 0x80 DUP7 ADD PUSH2 0x38B JUMP JUMPDEST SWAP4 PUSH1 0xA0 ADD PUSH2 0x55E JUMP JUMPDEST SWAP1 JUMP JUMPDEST PUSH2 0x1E3 JUMP JUMPDEST PUSH2 0x1E3 JUMP JUMPDEST PUSH2 0x1DE JUMP JUMPDEST CALLVALUE PUSH2 0xB21 JUMPI PUSH2 0xB0B PUSH2 0xAFF CALLDATASIZE PUSH1 0x4 PUSH2 0xA57 JUMP JUMPDEST SWAP5 SWAP4 SWAP1 SWAP4 SWAP3 SWAP2 SWAP3 PUSH2 0x1745 JUMP JUMPDEST PUSH2 0xB13 PUSH2 0x1D3 JUMP JUMPDEST DUP1 PUSH2 0xB1D DUP2 PUSH2 0x444 JUMP JUMPDEST SUB SWAP1 RETURN JUMPDEST PUSH2 0x1D9 JUMP JUMPDEST PUSH1 0x0 DUP1 REVERT JUMPDEST SWAP1 DUP2 PUSH1 0xC0 SWAP2 SUB SLT PUSH2 0xB39 JUMPI SWAP1 JUMP JUMPDEST PUSH2 0xB26 JUMP JUMPDEST SWAP1 DUP2 PUSH1 0xE0 SWAP2 SUB SLT PUSH2 0xB4C JUMPI SWAP1 JUMP JUMPDEST PUSH2 0xB26 JUMP JUMPDEST SWAP2 PUSH1 0x60 DUP4 DUP4 SUB SLT PUSH2 0xBB6 JUMPI PUSH2 0xB69 DUP3 PUSH1 0x0 DUP6 ADD PUSH2 0x38B JUMP JUMPDEST SWAP3 PUSH1 0x20 DUP2 ADD CALLDATALOAD PUSH8 0xFFFFFFFFFFFFFFFF DUP2 GT PUSH2 0xBB1 JUMPI DUP4 PUSH2 0xB8A SWAP2 DUP4 ADD PUSH2 0xB2B JUMP JUMPDEST SWAP3 PUSH1 0x40 DUP3 ADD CALLDATALOAD PUSH8 0xFFFFFFFFFFFFFFFF DUP2 GT PUSH2 0xBAC JUMPI PUSH2 0xBA9 SWAP3 ADD PUSH2 0xB3E JUMP JUMPDEST SWAP1 JUMP JUMPDEST PUSH2 0x1E3 JUMP JUMPDEST PUSH2 0x1E3 JUMP JUMPDEST PUSH2 0x1DE JUMP JUMPDEST CALLVALUE PUSH2 0xBEC JUMPI PUSH2 0xBE8 PUSH2 0xBD7 PUSH2 0xBD1 CALLDATASIZE PUSH1 0x4 PUSH2 0xB51 JUMP JUMPDEST SWAP2 PUSH2 0x1B3A JUMP JUMPDEST PUSH2 0xBDF PUSH2 0x1D3 JUMP JUMPDEST SWAP2 DUP3 SWAP2 DUP3 PUSH2 0x599 JUMP JUMPDEST SUB SWAP1 RETURN JUMPDEST PUSH2 0x1D9 JUMP JUMPDEST SWAP1 JUMP JUMPDEST PUSH1 0x0 SHL SWAP1 JUMP JUMPDEST PUSH2 0xC0E PUSH2 0xC09 PUSH2 0xC13 SWAP3 PUSH2 0xBF1 JUMP JUMPDEST PUSH2 0xBF4 JUMP JUMPDEST PUSH2 0x546 JUMP JUMPDEST SWAP1 JUMP JUMPDEST PUSH2 0xC20 PUSH1 0x0 PUSH2 0xBFA JUMP JUMPDEST SWAP1 JUMP JUMPDEST PUSH2 0xC2B PUSH2 0xC16 JUMP JUMPDEST SWAP1 JUMP JUMPDEST CALLVALUE PUSH2 0xC5E JUMPI PUSH2 0xC3E CALLDATASIZE PUSH1 0x4 PUSH2 0x294 JUMP JUMPDEST PUSH2 0xC5A PUSH2 0xC49 PUSH2 0xC23 JUMP JUMPDEST PUSH2 0xC51 PUSH2 0x1D3 JUMP JUMPDEST SWAP2 DUP3 SWAP2 DUP3 PUSH2 0x599 JUMP JUMPDEST SUB SWAP1 RETURN JUMPDEST PUSH2 0x1D9 JUMP JUMPDEST CALLVALUE PUSH2 0xC94 JUMPI PUSH2 0xC90 PUSH2 0xC7F PUSH2 0xC79 CALLDATASIZE PUSH1 0x4 PUSH2 0x3C1 JUMP JUMPDEST SWAP1 PUSH2 0x1C93 JUMP JUMPDEST PUSH2 0xC87 PUSH2 0x1D3 JUMP JUMPDEST SWAP2 DUP3 SWAP2 DUP3 PUSH2 0x249 JUMP JUMPDEST SUB SWAP1 RETURN JUMPDEST PUSH2 0x1D9 JUMP JUMPDEST CALLVALUE PUSH2 0xCCA JUMPI PUSH2 0xCC6 PUSH2 0xCB5 PUSH2 0xCAF CALLDATASIZE PUSH1 0x4 PUSH2 0x3C1 JUMP JUMPDEST SWAP1 PUSH2 0x1CE7 JUMP JUMPDEST PUSH2 0xCBD PUSH2 0x1D3 JUMP JUMPDEST SWAP2 DUP3 SWAP2 DUP3 PUSH2 0x249 JUMP JUMPDEST SUB SWAP1 RETURN JUMPDEST PUSH2 0x1D9 JUMP JUMPDEST CALLVALUE PUSH2 0xCFF JUMPI PUSH2 0xCFB PUSH2 0xCEA PUSH2 0xCE5 CALLDATASIZE PUSH1 0x4 PUSH2 0x56D JUMP JUMPDEST PUSH2 0x1D09 JUMP JUMPDEST PUSH2 0xCF2 PUSH2 0x1D3 JUMP JUMPDEST SWAP2 DUP3 SWAP2 DUP3 PUSH2 0x48A JUMP JUMPDEST SUB SWAP1 RETURN JUMPDEST PUSH2 0x1D9 JUMP JUMPDEST CALLVALUE PUSH2 0xD33 JUMPI PUSH2 0xD1D PUSH2 0xD17 CALLDATASIZE PUSH1 0x4 PUSH2 0x5E4 JUMP JUMPDEST SWAP1 PUSH2 0x1D59 JUMP JUMPDEST PUSH2 0xD25 PUSH2 0x1D3 JUMP JUMPDEST DUP1 PUSH2 0xD2F DUP2 PUSH2 0x444 JUMP JUMPDEST SUB SWAP1 RETURN JUMPDEST PUSH2 0x1D9 JUMP JUMPDEST SWAP2 SWAP1 PUSH1 0x40 DUP4 DUP3 SUB SLT PUSH2 0xD61 JUMPI DUP1 PUSH2 0xD55 PUSH2 0xD5E SWAP3 PUSH1 0x0 DUP7 ADD PUSH2 0x38B JUMP JUMPDEST SWAP4 PUSH1 0x20 ADD PUSH2 0x38B JUMP JUMPDEST SWAP1 JUMP JUMPDEST PUSH2 0x1DE JUMP JUMPDEST CALLVALUE PUSH2 0xD97 JUMPI PUSH2 0xD93 PUSH2 0xD82 PUSH2 0xD7C CALLDATASIZE PUSH1 0x4 PUSH2 0xD38 JUMP JUMPDEST SWAP1 PUSH2 0x1D7D JUMP JUMPDEST PUSH2 0xD8A PUSH2 0x1D3 JUMP JUMPDEST SWAP2 DUP3 SWAP2 DUP3 PUSH2 0x48A JUMP JUMPDEST SUB SWAP1 RETURN JUMPDEST PUSH2 0x1D9 JUMP JUMPDEST CALLVALUE PUSH2 0xDCA JUMPI PUSH2 0xDB4 PUSH2 0xDAF CALLDATASIZE PUSH1 0x4 PUSH2 0x56D JUMP JUMPDEST PUSH2 0x1E10 JUMP JUMPDEST PUSH2 0xDBC PUSH2 0x1D3 JUMP JUMPDEST DUP1 PUSH2 0xDC6 DUP2 PUSH2 0x444 JUMP JUMPDEST SUB SWAP1 RETURN JUMPDEST PUSH2 0x1D9 JUMP JUMPDEST PUSH1 0x0 DUP1 REVERT JUMPDEST PUSH1 0x0 SWAP1 JUMP JUMPDEST PUSH2 0xDE1 PUSH2 0xDD4 JUMP JUMPDEST POP PUSH4 0x6A15B43 PUSH1 0xE2 SHL PUSH2 0xDFC PUSH2 0xDF6 DUP4 PUSH2 0x1E8 JUMP JUMPDEST SWAP2 PUSH2 0x1E8 JUMP JUMPDEST EQ DUP1 ISZERO PUSH2 0xE20 JUMPI JUMPDEST SWAP1 DUP2 ISZERO PUSH2 0xE10 JUMPI JUMPDEST POP SWAP1 JUMP JUMPDEST PUSH2 0xE1A SWAP2 POP PUSH2 0x1E1B JUMP JUMPDEST CODESIZE PUSH2 0xE0C JUMP JUMPDEST POP PUSH2 0xE2A DUP2 PUSH2 0x1E1B JUMP JUMPDEST PUSH2 0xE04 JUMP JUMPDEST PUSH1 0x60 SWAP1 JUMP JUMPDEST PUSH4 0x4E487B71 PUSH1 0xE0 SHL PUSH1 0x0 MSTORE PUSH1 0x22 PUSH1 0x4 MSTORE PUSH1 0x24 PUSH1 0x0 REVERT JUMPDEST SWAP1 PUSH1 0x1 PUSH1 0x2 DUP4 DIV SWAP3 AND DUP1 ISZERO PUSH2 0xE6A JUMPI JUMPDEST PUSH1 0x20 DUP4 LT EQ PUSH2 0xE65 JUMPI JUMP JUMPDEST PUSH2 0xE34 JUMP JUMPDEST SWAP2 PUSH1 0x7F AND SWAP2 PUSH2 0xE5A JUMP JUMPDEST PUSH1 0x20 SWAP2 DUP2 MSTORE ADD SWAP1 JUMP JUMPDEST PUSH1 0x0 MSTORE PUSH1 0x20 PUSH1 0x0 KECCAK256 SWAP1 JUMP JUMPDEST SWAP1 PUSH1 0x0 SWAP3 SWAP2 DUP1 SLOAD SWAP1 PUSH2 0xEA3 PUSH2 0xE9C DUP4 PUSH2 0xE4A JUMP JUMPDEST DUP1 SWAP5 PUSH2 0xE74 JUMP JUMPDEST SWAP2 PUSH1 0x1 DUP2 AND SWAP1 DUP2 PUSH1 0x0 EQ PUSH2 0xEFC JUMPI POP PUSH1 0x1 EQ PUSH2 0xEBF JUMPI JUMPDEST POP POP POP JUMP JUMPDEST PUSH2 0xECC SWAP2 SWAP3 SWAP4 SWAP5 POP PUSH2 0xE7D JUMP JUMPDEST SWAP2 PUSH1 0x0 SWAP3 JUMPDEST DUP2 DUP5 LT PUSH2 0xEE4 JUMPI POP POP ADD SWAP1 CODESIZE DUP1 DUP1 PUSH2 0xEBA JUMP JUMPDEST PUSH1 0x1 DUP2 PUSH1 0x20 SWAP3 SWAP6 SWAP4 SWAP6 SLOAD DUP5 DUP7 ADD MSTORE ADD SWAP2 ADD SWAP3 SWAP1 PUSH2 0xED1 JUMP JUMPDEST SWAP3 SWAP5 SWAP6 POP POP POP PUSH1 0xFF NOT AND DUP3 MSTORE ISZERO ISZERO PUSH1 0x20 MUL ADD SWAP1 CODESIZE DUP1 DUP1 PUSH2 0xEBA JUMP JUMPDEST SWAP1 PUSH2 0xF21 SWAP2 PUSH2 0xE88 JUMP JUMPDEST SWAP1 JUMP JUMPDEST SWAP1 PUSH2 0xF44 PUSH2 0xF3D SWAP3 PUSH2 0xF34 PUSH2 0x1D3 JUMP JUMPDEST SWAP4 DUP5 DUP1 SWAP3 PUSH2 0xF17 JUMP JUMPDEST SUB DUP4 PUSH2 0x7B4 JUMP JUMPDEST JUMP JUMPDEST PUSH2 0xF4F SWAP1 PUSH2 0xF24 JUMP JUMPDEST SWAP1 JUMP JUMPDEST PUSH2 0xF5A PUSH2 0xE2F JUMP JUMPDEST POP PUSH2 0xF65 PUSH1 0x9 PUSH2 0xF46 JUMP JUMPDEST SWAP1 JUMP JUMPDEST PUSH2 0xF85 SWAP2 PUSH2 0xF74 PUSH2 0xDD4 JUMP JUMPDEST POP PUSH2 0xF7D PUSH2 0x1E83 JUMP JUMPDEST SWAP2 SWAP1 SWAP2 PUSH2 0x202C JUMP JUMPDEST PUSH1 0x1 SWAP1 JUMP JUMPDEST PUSH32 0x70649EC320B507FEBAD3E8EF750E5F580B9AE32F9F50D4C7B121332C81971530 SWAP1 JUMP JUMPDEST PUSH2 0xFC7 SWAP1 PUSH2 0xFC2 PUSH2 0xFBD PUSH2 0xF8A JUMP JUMPDEST PUSH2 0x20EA JUMP JUMPDEST PUSH2 0x104A JUMP JUMPDEST JUMP JUMPDEST SWAP1 JUMP JUMPDEST PUSH2 0xFE0 PUSH2 0xFDB PUSH2 0xFE5 SWAP3 PUSH2 0x35F JUMP JUMPDEST PUSH2 0xFC9 JUMP JUMPDEST PUSH2 0x35F JUMP JUMPDEST SWAP1 JUMP JUMPDEST PUSH2 0xFF1 SWAP1 PUSH2 0xFCC JUMP JUMPDEST SWAP1 JUMP JUMPDEST PUSH2 0xFFD SWAP1 PUSH2 0xFE8 JUMP JUMPDEST SWAP1 JUMP JUMPDEST SWAP1 PUSH2 0x1011 PUSH1 0x1 DUP1 PUSH1 0xA0 SHL SUB SWAP2 PUSH2 0xBF4 JUMP JUMPDEST SWAP2 DUP2 NOT AND SWAP2 AND OR SWAP1 JUMP JUMPDEST PUSH2 0x1024 SWAP1 PUSH2 0xFE8 JUMP JUMPDEST SWAP1 JUMP JUMPDEST SWAP1 JUMP JUMPDEST SWAP1 PUSH2 0x103F PUSH2 0x103A PUSH2 0x1046 SWAP3 PUSH2 0x101B JUMP JUMPDEST PUSH2 0x1027 JUMP JUMPDEST DUP3 SLOAD PUSH2 0x1000 JUMP JUMPDEST SWAP1 SSTORE JUMP JUMPDEST PUSH2 0x1056 PUSH2 0x105D SWAP2 PUSH2 0xFF4 JUMP JUMPDEST PUSH1 0x7 PUSH2 0x102A JUMP JUMPDEST JUMP JUMPDEST PUSH2 0x1068 SWAP1 PUSH2 0xFAE JUMP JUMPDEST JUMP JUMPDEST PUSH1 0x0 SWAP1 JUMP JUMPDEST PUSH1 0x0 SHR SWAP1 JUMP JUMPDEST SWAP1 JUMP JUMPDEST PUSH2 0x1084 PUSH2 0x1089 SWAP2 PUSH2 0x106F JUMP JUMPDEST PUSH2 0x1075 JUMP JUMPDEST SWAP1 JUMP JUMPDEST PUSH2 0x1096 SWAP1 SLOAD PUSH2 0x1078 JUMP JUMPDEST SWAP1 JUMP JUMPDEST PUSH2 0x10A1 PUSH2 0x106A JUMP JUMPDEST POP PUSH2 0x10AC PUSH1 0x2 PUSH2 0x108C JUMP JUMPDEST SWAP1 JUMP JUMPDEST SWAP2 PUSH2 0x10D9 SWAP3 PUSH2 0x10BC PUSH2 0xDD4 JUMP JUMPDEST POP PUSH2 0x10D1 PUSH2 0x10C8 PUSH2 0x1E83 JUMP JUMPDEST DUP3 SWAP1 DUP5 SWAP2 PUSH2 0x2182 JUMP JUMPDEST SWAP2 SWAP1 SWAP2 PUSH2 0x23F6 JUMP JUMPDEST PUSH1 0x1 SWAP1 JUMP JUMPDEST PUSH1 0x0 SWAP1 JUMP JUMPDEST PUSH2 0x10EC SWAP1 PUSH2 0x546 JUMP JUMPDEST SWAP1 JUMP JUMPDEST SWAP1 PUSH2 0x10F9 SWAP1 PUSH2 0x10E3 JUMP JUMPDEST PUSH1 0x0 MSTORE PUSH1 0x20 MSTORE PUSH1 0x40 PUSH1 0x0 KECCAK256 SWAP1 JUMP JUMPDEST SWAP1 JUMP JUMPDEST PUSH2 0x1116 PUSH2 0x111B SWAP2 PUSH2 0x106F JUMP JUMPDEST PUSH2 0x1107 JUMP JUMPDEST SWAP1 JUMP JUMPDEST PUSH2 0x1128 SWAP1 SLOAD PUSH2 0x110A JUMP JUMPDEST SWAP1 JUMP JUMPDEST PUSH1 0x1 PUSH2 0x1144 PUSH2 0x114A SWAP3 PUSH2 0x113C PUSH2 0x10DE JUMP JUMPDEST POP PUSH1 0x5 PUSH2 0x10EF JUMP JUMPDEST ADD PUSH2 0x111E JUMP JUMPDEST SWAP1 JUMP JUMPDEST SWAP1 PUSH2 0x1168 SWAP2 PUSH2 0x1163 PUSH2 0x115E DUP3 PUSH2 0x112B JUMP JUMPDEST PUSH2 0x20EA JUMP JUMPDEST PUSH2 0x116A JUMP JUMPDEST JUMP JUMPDEST SWAP1 PUSH2 0x1174 SWAP2 PUSH2 0x250C JUMP JUMPDEST JUMP JUMPDEST SWAP1 PUSH2 0x1180 SWAP2 PUSH2 0x114D JUMP JUMPDEST JUMP JUMPDEST PUSH1 0x0 SWAP1 JUMP JUMPDEST PUSH1 0xFF AND SWAP1 JUMP JUMPDEST PUSH2 0x1199 PUSH2 0x119E SWAP2 PUSH2 0x106F JUMP JUMPDEST PUSH2 0x1187 JUMP JUMPDEST SWAP1 JUMP JUMPDEST PUSH2 0x11AB SWAP1 SLOAD PUSH2 0x118D JUMP JUMPDEST SWAP1 JUMP JUMPDEST PUSH2 0x11B6 PUSH2 0x1182 JUMP JUMPDEST POP PUSH2 0x11C1 PUSH1 0xB PUSH2 0x11A1 JUMP JUMPDEST SWAP1 JUMP JUMPDEST PUSH1 0x20 PUSH32 0x20726F6C657320666F722073656C660000000000000000000000000000000000 SWAP2 PUSH32 0x416363657373436F6E74726F6C3A2063616E206F6E6C792072656E6F756E6365 PUSH1 0x0 DUP3 ADD MSTORE ADD MSTORE JUMP JUMPDEST PUSH2 0x121F PUSH1 0x2F PUSH1 0x40 SWAP3 PUSH2 0x2A8 JUMP JUMPDEST PUSH2 0x1228 DUP2 PUSH2 0x11C4 JUMP JUMPDEST ADD SWAP1 JUMP JUMPDEST PUSH2 0x1242 SWAP1 PUSH1 0x20 DUP2 ADD SWAP1 PUSH1 0x0 DUP2 DUP4 SUB SWAP2 ADD MSTORE PUSH2 0x1212 JUMP JUMPDEST SWAP1 JUMP JUMPDEST ISZERO PUSH2 0x124C JUMPI JUMP JUMPDEST PUSH2 0x1254 PUSH2 0x1D3 JUMP JUMPDEST PUSH3 0x461BCD PUSH1 0xE5 SHL DUP2 MSTORE DUP1 PUSH2 0x126A PUSH1 0x4 DUP3 ADD PUSH2 0x122C JUMP JUMPDEST SUB SWAP1 REVERT JUMPDEST SWAP1 PUSH2 0x129B SWAP2 PUSH2 0x1296 DUP3 PUSH2 0x1290 PUSH2 0x128A PUSH2 0x1285 PUSH2 0x1E83 JUMP JUMPDEST PUSH2 0x36A JUMP JUMPDEST SWAP2 PUSH2 0x36A JUMP JUMPDEST EQ PUSH2 0x1245 JUMP JUMPDEST PUSH2 0x2536 JUMP JUMPDEST JUMP JUMPDEST PUSH4 0x4E487B71 PUSH1 0xE0 SHL PUSH1 0x0 MSTORE PUSH1 0x11 PUSH1 0x4 MSTORE PUSH1 0x24 PUSH1 0x0 REVERT JUMPDEST PUSH2 0x12C2 PUSH2 0x12C8 SWAP2 SWAP4 SWAP3 SWAP4 PUSH2 0x39A JUMP JUMPDEST SWAP3 PUSH2 0x39A JUMP JUMPDEST DUP3 ADD DUP1 SWAP3 GT PUSH2 0x12D3 JUMPI JUMP JUMPDEST PUSH2 0x129D JUMP JUMPDEST PUSH2 0x1308 SWAP2 PUSH2 0x12E4 PUSH2 0xDD4 JUMP JUMPDEST POP PUSH2 0x1302 PUSH2 0x12F0 PUSH2 0x1E83 JUMP JUMPDEST SWAP2 PUSH2 0x12FD DUP4 SWAP5 DUP1 SWAP5 PUSH2 0x1D7D JUMP JUMPDEST PUSH2 0x12B3 JUMP JUMPDEST SWAP2 PUSH2 0x202C JUMP JUMPDEST PUSH1 0x1 SWAP1 JUMP JUMPDEST PUSH32 0x9F2DF0FED2C77648DE5860A4CC508CD0818C85B8B8A1AB4CEEEF8D981C8956A6 SWAP1 JUMP JUMPDEST SWAP1 PUSH2 0x134B SWAP2 PUSH2 0x1346 PUSH2 0x1341 PUSH2 0x130D JUMP JUMPDEST PUSH2 0x20EA JUMP JUMPDEST PUSH2 0x134D JUMP JUMPDEST JUMP JUMPDEST SWAP1 PUSH2 0x1357 SWAP2 PUSH2 0x25E4 JUMP JUMPDEST JUMP JUMPDEST SWAP1 PUSH2 0x1363 SWAP2 PUSH2 0x1331 JUMP JUMPDEST JUMP JUMPDEST PUSH2 0x136F SWAP1 CALLER PUSH2 0x27FE JUMP JUMPDEST JUMP JUMPDEST SWAP1 PUSH2 0x138B SWAP2 PUSH2 0x1386 PUSH2 0x1381 PUSH2 0xC16 JUMP JUMPDEST PUSH2 0x20EA JUMP JUMPDEST PUSH2 0x1596 JUMP JUMPDEST JUMP JUMPDEST PUSH1 0x1F PUSH1 0x20 SWAP2 ADD DIV SWAP1 JUMP JUMPDEST SHL SWAP1 JUMP JUMPDEST SWAP2 SWAP1 PUSH1 0x8 PUSH2 0x13B7 SWAP2 MUL SWAP2 PUSH2 0x13B1 PUSH1 0x0 NOT DUP5 PUSH2 0x1397 JUMP JUMPDEST SWAP3 PUSH2 0x1397 JUMP JUMPDEST SWAP2 DUP2 NOT AND SWAP2 AND OR SWAP1 JUMP JUMPDEST PUSH2 0x13D5 PUSH2 0x13D0 PUSH2 0x13DA SWAP3 PUSH2 0x39A JUMP JUMPDEST PUSH2 0xFC9 JUMP JUMPDEST PUSH2 0x39A JUMP JUMPDEST SWAP1 JUMP JUMPDEST SWAP1 JUMP JUMPDEST SWAP2 SWAP1 PUSH2 0x13F6 PUSH2 0x13F1 PUSH2 0x13FE SWAP4 PUSH2 0x13C1 JUMP JUMPDEST PUSH2 0x13DD JUMP JUMPDEST SWAP1 DUP4 SLOAD PUSH2 0x139B JUMP JUMPDEST SWAP1 SSTORE JUMP JUMPDEST PUSH2 0x1414 SWAP2 PUSH2 0x140E PUSH2 0x106A JUMP JUMPDEST SWAP2 PUSH2 0x13E0 JUMP JUMPDEST JUMP JUMPDEST JUMPDEST DUP2 DUP2 LT PUSH2 0x1422 JUMPI POP POP JUMP JUMPDEST DUP1 PUSH2 0x1430 PUSH1 0x0 PUSH1 0x1 SWAP4 PUSH2 0x1402 JUMP JUMPDEST ADD PUSH2 0x1417 JUMP JUMPDEST SWAP2 SWAP1 PUSH1 0x1F DUP2 GT PUSH2 0x1446 JUMPI JUMPDEST POP POP POP JUMP JUMPDEST PUSH2 0x1452 PUSH2 0x1477 SWAP4 PUSH2 0xE7D JUMP JUMPDEST SWAP1 PUSH1 0x20 PUSH2 0x145E DUP5 PUSH2 0x138D JUMP JUMPDEST DUP4 ADD SWAP4 LT PUSH2 0x147F JUMPI JUMPDEST PUSH2 0x1470 SWAP1 PUSH2 0x138D JUMP JUMPDEST ADD SWAP1 PUSH2 0x1416 JUMP JUMPDEST CODESIZE DUP1 DUP1 PUSH2 0x1441 JUMP JUMPDEST SWAP2 POP PUSH2 0x1470 DUP2 SWAP3 SWAP1 POP PUSH2 0x1467 JUMP JUMPDEST SHR SWAP1 JUMP JUMPDEST SWAP1 PUSH2 0x14A2 SWAP1 PUSH1 0x0 NOT SWAP1 PUSH1 0x8 MUL PUSH2 0x148D JUMP JUMPDEST NOT AND SWAP1 JUMP JUMPDEST DUP2 PUSH2 0x14B1 SWAP2 PUSH2 0x1491 JUMP JUMPDEST SWAP1 PUSH1 0x2 MUL OR SWAP1 JUMP JUMPDEST SWAP1 PUSH2 0x14C3 DUP2 PUSH2 0x2A4 JUMP JUMPDEST SWAP1 PUSH8 0xFFFFFFFFFFFFFFFF DUP3 GT PUSH2 0x1585 JUMPI PUSH2 0x14E7 DUP3 PUSH2 0x14E1 DUP6 SLOAD PUSH2 0xE4A JUMP JUMPDEST DUP6 PUSH2 0x1436 JUMP JUMPDEST PUSH1 0x20 SWAP1 PUSH1 0x1F DUP4 GT PUSH1 0x1 EQ PUSH2 0x151C JUMPI SWAP2 DUP1 SWAP2 PUSH2 0x150B SWAP4 PUSH1 0x0 SWAP3 PUSH2 0x1510 JUMPI JUMPDEST POP POP PUSH2 0x14A7 JUMP JUMPDEST SWAP1 SSTORE JUMPDEST JUMP JUMPDEST SWAP1 SWAP2 POP ADD MLOAD CODESIZE DUP1 PUSH2 0x1504 JUMP JUMPDEST PUSH1 0x1F NOT DUP4 AND SWAP2 PUSH2 0x152B DUP6 PUSH2 0xE7D JUMP JUMPDEST SWAP3 PUSH1 0x0 JUMPDEST DUP2 DUP2 LT PUSH2 0x156D JUMPI POP SWAP2 PUSH1 0x2 SWAP4 SWAP2 DUP6 PUSH1 0x1 SWAP7 SWAP5 LT PUSH2 0x1553 JUMPI JUMPDEST POP POP POP MUL ADD SWAP1 SSTORE PUSH2 0x150E JUMP JUMPDEST PUSH2 0x1563 SWAP2 ADD MLOAD PUSH1 0x1F DUP5 AND SWAP1 PUSH2 0x1491 JUMP JUMPDEST SWAP1 SSTORE CODESIZE DUP1 DUP1 PUSH2 0x1547 JUMP JUMPDEST SWAP2 SWAP4 PUSH1 0x20 PUSH1 0x1 DUP2 SWAP3 DUP8 DUP8 ADD MLOAD DUP2 SSTORE ADD SWAP6 ADD SWAP3 ADD PUSH2 0x152F JUMP JUMPDEST PUSH2 0x79E JUMP JUMPDEST SWAP1 PUSH2 0x1594 SWAP2 PUSH2 0x14B9 JUMP JUMPDEST JUMP JUMPDEST SWAP1 PUSH2 0x15A5 PUSH2 0x15AC SWAP3 PUSH1 0x9 PUSH2 0x158A JUMP JUMPDEST PUSH1 0xA PUSH2 0x158A JUMP JUMPDEST JUMP JUMPDEST SWAP1 PUSH2 0x15B8 SWAP2 PUSH2 0x1371 JUMP JUMPDEST JUMP JUMPDEST PUSH2 0x15C3 SWAP1 PUSH2 0xFCC JUMP JUMPDEST SWAP1 JUMP JUMPDEST PUSH2 0x15CF SWAP1 PUSH2 0x15BA JUMP JUMPDEST SWAP1 JUMP JUMPDEST SWAP1 PUSH2 0x15DC SWAP1 PUSH2 0x15C6 JUMP JUMPDEST PUSH1 0x0 MSTORE PUSH1 0x20 MSTORE PUSH1 0x40 PUSH1 0x0 KECCAK256 SWAP1 JUMP JUMPDEST PUSH2 0x1601 PUSH2 0x1606 SWAP2 PUSH2 0x15F9 PUSH2 0x106A JUMP JUMPDEST POP PUSH1 0x0 PUSH2 0x15D2 JUMP JUMPDEST PUSH2 0x108C JUMP JUMPDEST SWAP1 JUMP JUMPDEST PUSH1 0x0 SWAP1 JUMP JUMPDEST SWAP1 PUSH2 0x1618 SWAP1 PUSH2 0x10E3 JUMP JUMPDEST PUSH1 0x0 MSTORE PUSH1 0x20 MSTORE PUSH1 0x40 PUSH1 0x0 KECCAK256 SWAP1 JUMP JUMPDEST SWAP1 JUMP JUMPDEST SWAP1 PUSH2 0x1649 PUSH2 0x1644 PUSH2 0x164E SWAP4 PUSH2 0x163C PUSH2 0x1609 JUMP JUMPDEST POP PUSH1 0x6 PUSH2 0x160E JUMP JUMPDEST PUSH2 0x1626 JUMP JUMPDEST PUSH2 0x291D JUMP JUMPDEST SWAP1 JUMP JUMPDEST SWAP1 PUSH2 0x165B SWAP1 PUSH2 0x15C6 JUMP JUMPDEST PUSH1 0x0 MSTORE PUSH1 0x20 MSTORE PUSH1 0x40 PUSH1 0x0 KECCAK256 SWAP1 JUMP JUMPDEST PUSH1 0xFF AND SWAP1 JUMP JUMPDEST PUSH2 0x167B PUSH2 0x1680 SWAP2 PUSH2 0x106F JUMP JUMPDEST PUSH2 0x1669 JUMP JUMPDEST SWAP1 JUMP JUMPDEST PUSH2 0x168D SWAP1 SLOAD PUSH2 0x166F JUMP JUMPDEST SWAP1 JUMP JUMPDEST PUSH2 0x16B8 SWAP2 PUSH1 0x0 PUSH2 0x16AD PUSH2 0x16B3 SWAP4 PUSH2 0x16A5 PUSH2 0xDD4 JUMP JUMPDEST POP PUSH1 0x5 PUSH2 0x10EF JUMP JUMPDEST ADD PUSH2 0x1651 JUMP JUMPDEST PUSH2 0x1683 JUMP JUMPDEST SWAP1 JUMP JUMPDEST PUSH2 0x16C3 PUSH2 0xE2F JUMP JUMPDEST POP PUSH2 0x16CE PUSH1 0xA PUSH2 0xF46 JUMP JUMPDEST SWAP1 JUMP JUMPDEST PUSH1 0x10 SHR SWAP1 JUMP JUMPDEST PUSH2 0x16E3 PUSH2 0x16E8 SWAP2 PUSH2 0x16D1 JUMP JUMPDEST PUSH2 0x1669 JUMP JUMPDEST SWAP1 JUMP JUMPDEST PUSH2 0x16F5 SWAP1 SLOAD PUSH2 0x16D7 JUMP JUMPDEST SWAP1 JUMP JUMPDEST PUSH1 0x10 SHL SWAP1 JUMP JUMPDEST SWAP1 PUSH2 0x170C PUSH3 0xFF0000 SWAP2 PUSH2 0x16F8 JUMP JUMPDEST SWAP2 DUP2 NOT AND SWAP2 AND OR SWAP1 JUMP JUMPDEST PUSH2 0x171F SWAP1 PUSH2 0x237 JUMP JUMPDEST SWAP1 JUMP JUMPDEST SWAP1 JUMP JUMPDEST SWAP1 PUSH2 0x173A PUSH2 0x1735 PUSH2 0x1741 SWAP3 PUSH2 0x1716 JUMP JUMPDEST PUSH2 0x1722 JUMP JUMPDEST DUP3 SLOAD PUSH2 0x16FE JUMP JUMPDEST SWAP1 SSTORE JUMP JUMPDEST SWAP4 SWAP5 SWAP1 SWAP2 SWAP3 SWAP5 CALLER PUSH2 0x177E PUSH2 0x1778 PUSH32 0x0 PUSH2 0x36A JUMP JUMPDEST SWAP2 PUSH2 0x36A JUMP JUMPDEST EQ ISZERO DUP1 ISZERO PUSH2 0x17D7 JUMPI JUMPDEST PUSH2 0x17BA JUMPI PUSH2 0x17AC SWAP6 PUSH2 0x179F SWAP5 DUP7 SWAP5 SWAP1 SWAP2 SWAP3 SWAP4 SWAP5 PUSH2 0x2A0F JUMP JUMPDEST PUSH2 0x17A7 PUSH2 0x130D JUMP JUMPDEST PUSH2 0x250C JUMP JUMPDEST PUSH2 0x17B8 PUSH1 0x1 PUSH1 0xB PUSH2 0x1725 JUMP JUMPDEST JUMP JUMPDEST PUSH1 0x0 PUSH4 0xF92EE8A9 PUSH1 0xE0 SHL DUP2 MSTORE DUP1 PUSH2 0x17D3 PUSH1 0x4 DUP3 ADD PUSH2 0x444 JUMP JUMPDEST SUB SWAP1 REVERT JUMPDEST POP PUSH2 0x17E2 PUSH1 0xB PUSH2 0x16EB JUMP JUMPDEST PUSH2 0x1787 JUMP JUMPDEST PUSH1 0x1 DUP1 PUSH1 0xA0 SHL SUB AND SWAP1 JUMP JUMPDEST PUSH2 0x17FE PUSH2 0x1803 SWAP2 PUSH2 0x106F JUMP JUMPDEST PUSH2 0x17E7 JUMP JUMPDEST SWAP1 JUMP JUMPDEST PUSH2 0x1810 SWAP1 SLOAD PUSH2 0x17F2 JUMP JUMPDEST SWAP1 JUMP JUMPDEST PUSH2 0x181C SWAP1 PUSH2 0x15BA JUMP JUMPDEST SWAP1 JUMP JUMPDEST PUSH1 0xE0 SHL SWAP1 JUMP JUMPDEST SWAP1 POP MLOAD SWAP1 PUSH2 0x1832 DUP3 PUSH2 0x549 JUMP JUMPDEST JUMP JUMPDEST SWAP1 PUSH1 0x20 DUP3 DUP3 SUB SLT PUSH2 0x184E JUMPI PUSH2 0x184B SWAP2 PUSH1 0x0 ADD PUSH2 0x1825 JUMP JUMPDEST SWAP1 JUMP JUMPDEST PUSH2 0x1DE JUMP JUMPDEST POP PUSH2 0x1862 SWAP1 PUSH1 0x20 DUP2 ADD SWAP1 PUSH2 0x38B JUMP JUMPDEST SWAP1 JUMP JUMPDEST PUSH2 0x186E SWAP1 PUSH2 0x36A JUMP JUMPDEST SWAP1 MSTORE JUMP JUMPDEST POP PUSH2 0x1881 SWAP1 PUSH1 0x20 DUP2 ADD SWAP1 PUSH2 0x209 JUMP JUMPDEST SWAP1 JUMP JUMPDEST PUSH2 0x188D SWAP1 PUSH2 0x1E8 JUMP JUMPDEST SWAP1 MSTORE JUMP JUMPDEST POP PUSH2 0x18A0 SWAP1 PUSH1 0x20 DUP2 ADD SWAP1 PUSH2 0x55E JUMP JUMPDEST SWAP1 JUMP JUMPDEST PUSH2 0x18AC SWAP1 PUSH2 0x546 JUMP JUMPDEST SWAP1 MSTORE JUMP JUMPDEST PUSH1 0x0 DUP1 REVERT JUMPDEST PUSH1 0x0 DUP1 REVERT JUMPDEST PUSH1 0x0 DUP1 REVERT JUMPDEST SWAP1 CALLDATALOAD PUSH1 0x1 PUSH1 0x20 SUB DUP3 CALLDATASIZE SUB SUB DUP2 SLT ISZERO PUSH2 0x1900 JUMPI ADD PUSH1 0x20 DUP2 CALLDATALOAD SWAP2 ADD SWAP2 PUSH8 0xFFFFFFFFFFFFFFFF DUP3 GT PUSH2 0x18FB JUMPI PUSH1 0x1 DUP3 MUL CALLDATASIZE SUB DUP4 SGT PUSH2 0x18F6 JUMPI JUMP JUMPDEST PUSH2 0x18B5 JUMP JUMPDEST PUSH2 0x18B0 JUMP JUMPDEST PUSH2 0x18BA JUMP JUMPDEST PUSH1 0x20 SWAP2 DUP2 MSTORE ADD SWAP1 JUMP JUMPDEST SWAP2 SWAP1 PUSH2 0x1928 DUP2 PUSH2 0x1921 DUP2 PUSH2 0x192D SWAP6 PUSH2 0x1905 JUMP JUMPDEST DUP1 SWAP6 PUSH2 0x815 JUMP JUMPDEST PUSH2 0x2D6 JUMP JUMPDEST ADD SWAP1 JUMP JUMPDEST SWAP1 CALLDATALOAD PUSH1 0x1 PUSH1 0x40 SUB DUP3 CALLDATASIZE SUB SUB DUP2 SLT ISZERO PUSH2 0x1947 JUMPI ADD SWAP1 JUMP JUMPDEST PUSH2 0x18BA JUMP JUMPDEST SWAP1 CALLDATALOAD PUSH1 0x1 PUSH1 0x20 SUB DUP3 CALLDATASIZE SUB SUB DUP2 SLT ISZERO PUSH2 0x198D JUMPI ADD PUSH1 0x20 DUP2 CALLDATALOAD SWAP2 ADD SWAP2 PUSH8 0xFFFFFFFFFFFFFFFF DUP3 GT PUSH2 0x1988 JUMPI PUSH1 0x1 DUP3 MUL CALLDATASIZE SUB DUP4 SGT PUSH2 0x1983 JUMPI JUMP JUMPDEST PUSH2 0x18B5 JUMP JUMPDEST PUSH2 0x18B0 JUMP JUMPDEST PUSH2 0x18BA JUMP JUMPDEST SWAP2 SWAP1 PUSH2 0x19AC DUP2 PUSH2 0x19A5 DUP2 PUSH2 0x19B1 SWAP6 PUSH2 0xE74 JUMP JUMPDEST DUP1 SWAP6 PUSH2 0x815 JUMP JUMPDEST PUSH2 0x2D6 JUMP JUMPDEST ADD SWAP1 JUMP JUMPDEST PUSH8 0xFFFFFFFFFFFFFFFF AND SWAP1 JUMP JUMPDEST PUSH2 0x19CB DUP2 PUSH2 0x19B5 JUMP JUMPDEST SUB PUSH2 0x19D2 JUMPI JUMP JUMPDEST PUSH1 0x0 DUP1 REVERT JUMPDEST SWAP1 POP CALLDATALOAD SWAP1 PUSH2 0x19E4 DUP3 PUSH2 0x19C2 JUMP JUMPDEST JUMP JUMPDEST POP PUSH2 0x19F5 SWAP1 PUSH1 0x20 DUP2 ADD SWAP1 PUSH2 0x19D7 JUMP JUMPDEST SWAP1 JUMP JUMPDEST PUSH2 0x1A01 SWAP1 PUSH2 0x19B5 JUMP JUMPDEST SWAP1 MSTORE JUMP JUMPDEST SWAP1 PUSH2 0x1A43 SWAP1 PUSH1 0x20 PUSH2 0x1A3B PUSH2 0x1A31 PUSH1 0x40 DUP5 ADD PUSH2 0x1A23 PUSH1 0x0 DUP9 ADD DUP9 PUSH2 0x194C JUMP JUMPDEST SWAP1 DUP7 DUP4 SUB PUSH1 0x0 DUP9 ADD MSTORE PUSH2 0x1992 JUMP JUMPDEST SWAP5 DUP3 DUP2 ADD SWAP1 PUSH2 0x19E6 JUMP JUMPDEST SWAP2 ADD SWAP1 PUSH2 0x19F8 JUMP JUMPDEST SWAP1 JUMP JUMPDEST PUSH2 0x1AF0 SWAP2 PUSH2 0x1AE2 PUSH2 0x1AD7 PUSH1 0xC0 DUP4 ADD PUSH2 0x1A6E PUSH2 0x1A64 PUSH1 0x0 DUP8 ADD DUP8 PUSH2 0x1853 JUMP JUMPDEST PUSH1 0x0 DUP7 ADD SWAP1 PUSH2 0x1865 JUMP JUMPDEST PUSH2 0x1A88 PUSH2 0x1A7E PUSH1 0x20 DUP8 ADD DUP8 PUSH2 0x1872 JUMP JUMPDEST PUSH1 0x20 DUP7 ADD SWAP1 PUSH2 0x1884 JUMP JUMPDEST PUSH2 0x1AA2 PUSH2 0x1A98 PUSH1 0x40 DUP8 ADD DUP8 PUSH2 0x1891 JUMP JUMPDEST PUSH1 0x40 DUP7 ADD SWAP1 PUSH2 0x18A3 JUMP JUMPDEST PUSH2 0x1ABC PUSH2 0x1AB2 PUSH1 0x60 DUP8 ADD DUP8 PUSH2 0x1891 JUMP JUMPDEST PUSH1 0x60 DUP7 ADD SWAP1 PUSH2 0x18A3 JUMP JUMPDEST PUSH2 0x1AC9 PUSH1 0x80 DUP7 ADD DUP7 PUSH2 0x18BF JUMP JUMPDEST SWAP1 DUP6 DUP4 SUB PUSH1 0x80 DUP8 ADD MSTORE PUSH2 0x190E JUMP JUMPDEST SWAP3 PUSH1 0xA0 DUP2 ADD SWAP1 PUSH2 0x1931 JUMP JUMPDEST SWAP1 PUSH1 0xA0 DUP2 DUP5 SUB SWAP2 ADD MSTORE PUSH2 0x1A05 JUMP JUMPDEST SWAP1 JUMP JUMPDEST SWAP4 SWAP3 SWAP1 PUSH2 0x1B1F PUSH1 0x40 SWAP2 PUSH2 0x1B27 SWAP5 PUSH2 0x1B12 PUSH1 0x60 DUP10 ADD SWAP3 PUSH1 0x0 DUP11 ADD SWAP1 PUSH2 0x96F JUMP JUMPDEST DUP8 DUP3 SUB PUSH1 0x20 DUP10 ADD MSTORE PUSH2 0x1A46 JUMP JUMPDEST SWAP5 ADD SWAP1 PUSH2 0x58C JUMP JUMPDEST JUMP JUMPDEST PUSH2 0x1B31 PUSH2 0x1D3 JUMP JUMPDEST RETURNDATASIZE PUSH1 0x0 DUP3 RETURNDATACOPY RETURNDATASIZE SWAP1 REVERT JUMPDEST SWAP2 POP PUSH1 0x20 SWAP1 PUSH2 0x1B47 PUSH2 0x10DE JUMP JUMPDEST POP PUSH2 0x1B5A PUSH2 0x1B55 PUSH1 0x7 PUSH2 0x1806 JUMP JUMPDEST PUSH2 0x1813 JUMP JUMPDEST PUSH2 0x1B86 PUSH4 0x3808A90B SWAP5 SWAP3 SWAP5 PUSH2 0x1B91 PUSH2 0x1B72 PUSH1 0x8 PUSH2 0x111E JUMP JUMPDEST PUSH2 0x1B7A PUSH2 0x1D3 JUMP JUMPDEST SWAP8 DUP9 SWAP7 DUP8 SWAP6 DUP7 SWAP6 PUSH2 0x181F JUMP JUMPDEST DUP6 MSTORE PUSH1 0x4 DUP6 ADD PUSH2 0x1AF3 JUMP JUMPDEST SUB SWAP2 GAS STATICCALL SWAP1 DUP2 ISZERO PUSH2 0x1BD6 JUMPI PUSH1 0x0 SWAP2 PUSH2 0x1BA8 JUMPI JUMPDEST POP SWAP1 JUMP JUMPDEST PUSH2 0x1BC9 SWAP2 POP PUSH1 0x20 RETURNDATASIZE DUP2 GT PUSH2 0x1BCF JUMPI JUMPDEST PUSH2 0x1BC1 DUP2 DUP4 PUSH2 0x7B4 JUMP JUMPDEST DUP2 ADD SWAP1 PUSH2 0x1834 JUMP JUMPDEST CODESIZE PUSH2 0x1BA4 JUMP JUMPDEST POP RETURNDATASIZE PUSH2 0x1BB7 JUMP JUMPDEST PUSH2 0x1B29 JUMP JUMPDEST PUSH1 0x20 PUSH32 0x207A65726F000000000000000000000000000000000000000000000000000000 SWAP2 PUSH32 0x45524332303A2064656372656173656420616C6C6F77616E63652062656C6F77 PUSH1 0x0 DUP3 ADD MSTORE ADD MSTORE JUMP JUMPDEST PUSH2 0x1C36 PUSH1 0x25 PUSH1 0x40 SWAP3 PUSH2 0x2A8 JUMP JUMPDEST PUSH2 0x1C3F DUP2 PUSH2 0x1BDB JUMP JUMPDEST ADD SWAP1 JUMP JUMPDEST PUSH2 0x1C59 SWAP1 PUSH1 0x20 DUP2 ADD SWAP1 PUSH1 0x0 DUP2 DUP4 SUB SWAP2 ADD MSTORE PUSH2 0x1C29 JUMP JUMPDEST SWAP1 JUMP JUMPDEST ISZERO PUSH2 0x1C63 JUMPI JUMP JUMPDEST PUSH2 0x1C6B PUSH2 0x1D3 JUMP JUMPDEST PUSH3 0x461BCD PUSH1 0xE5 SHL DUP2 MSTORE DUP1 PUSH2 0x1C81 PUSH1 0x4 DUP3 ADD PUSH2 0x1C43 JUMP JUMPDEST SUB SWAP1 REVERT JUMPDEST SWAP1 PUSH2 0x1C90 SWAP2 SUB PUSH2 0x39A JUMP JUMPDEST SWAP1 JUMP JUMPDEST PUSH2 0x1CE2 SWAP2 PUSH2 0x1C9F PUSH2 0xDD4 JUMP JUMPDEST POP PUSH2 0x1CDC PUSH2 0x1CAB PUSH2 0x1E83 JUMP JUMPDEST SWAP2 PUSH2 0x1CB7 DUP4 DUP6 SWAP1 PUSH2 0x1D7D JUMP JUMPDEST SWAP3 PUSH2 0x1CD5 DUP5 PUSH2 0x1CCE PUSH2 0x1CC8 DUP6 PUSH2 0x39A JUMP JUMPDEST SWAP2 PUSH2 0x39A JUMP JUMPDEST LT ISZERO PUSH2 0x1C5C JUMP JUMPDEST SWAP4 SWAP3 PUSH2 0x1C85 JUMP JUMPDEST SWAP2 PUSH2 0x202C JUMP JUMPDEST PUSH1 0x1 SWAP1 JUMP JUMPDEST PUSH2 0x1D04 SWAP2 PUSH2 0x1CF3 PUSH2 0xDD4 JUMP JUMPDEST POP PUSH2 0x1CFC PUSH2 0x1E83 JUMP JUMPDEST SWAP2 SWAP1 SWAP2 PUSH2 0x23F6 JUMP JUMPDEST PUSH1 0x1 SWAP1 JUMP JUMPDEST PUSH2 0x1D28 PUSH2 0x1D23 PUSH2 0x1D2D SWAP3 PUSH2 0x1D1B PUSH2 0x106A JUMP JUMPDEST POP PUSH1 0x6 PUSH2 0x160E JUMP JUMPDEST PUSH2 0x1626 JUMP JUMPDEST PUSH2 0x2ACB JUMP JUMPDEST SWAP1 JUMP JUMPDEST SWAP1 PUSH2 0x1D4B SWAP2 PUSH2 0x1D46 PUSH2 0x1D41 DUP3 PUSH2 0x112B JUMP JUMPDEST PUSH2 0x20EA JUMP JUMPDEST PUSH2 0x1D4D JUMP JUMPDEST JUMP JUMPDEST SWAP1 PUSH2 0x1D57 SWAP2 PUSH2 0x2536 JUMP JUMPDEST JUMP JUMPDEST SWAP1 PUSH2 0x1D63 SWAP2 PUSH2 0x1D30 JUMP JUMPDEST JUMP JUMPDEST SWAP1 PUSH2 0x1D6F SWAP1 PUSH2 0x15C6 JUMP JUMPDEST PUSH1 0x0 MSTORE PUSH1 0x20 MSTORE PUSH1 0x40 PUSH1 0x0 KECCAK256 SWAP1 JUMP JUMPDEST PUSH2 0x1DA2 SWAP2 PUSH2 0x1D98 PUSH2 0x1D9D SWAP3 PUSH2 0x1D90 PUSH2 0x106A JUMP JUMPDEST POP PUSH1 0x1 PUSH2 0x1D65 JUMP JUMPDEST PUSH2 0x15D2 JUMP JUMPDEST PUSH2 0x108C JUMP JUMPDEST SWAP1 JUMP JUMPDEST PUSH2 0x1DBE SWAP1 PUSH2 0x1DB9 PUSH2 0x1DB4 PUSH2 0xF8A JUMP JUMPDEST PUSH2 0x20EA JUMP JUMPDEST PUSH2 0x1E03 JUMP JUMPDEST JUMP JUMPDEST SWAP1 PUSH2 0x1DCD PUSH1 0x0 NOT SWAP2 PUSH2 0xBF4 JUMP JUMPDEST SWAP2 DUP2 NOT AND SWAP2 AND OR SWAP1 JUMP JUMPDEST PUSH2 0x1DE0 SWAP1 PUSH2 0x106F JUMP JUMPDEST SWAP1 JUMP JUMPDEST SWAP1 PUSH2 0x1DF8 PUSH2 0x1DF3 PUSH2 0x1DFF SWAP3 PUSH2 0x10E3 JUMP JUMPDEST PUSH2 0x1DD7 JUMP JUMPDEST DUP3 SLOAD PUSH2 0x1DC0 JUMP JUMPDEST SWAP1 SSTORE JUMP JUMPDEST PUSH2 0x1E0E SWAP1 PUSH1 0x8 PUSH2 0x1DE3 JUMP JUMPDEST JUMP JUMPDEST PUSH2 0x1E19 SWAP1 PUSH2 0x1DA5 JUMP JUMPDEST JUMP JUMPDEST PUSH2 0x1E23 PUSH2 0xDD4 JUMP JUMPDEST POP DUP1 PUSH2 0x1E3E PUSH2 0x1E38 PUSH4 0x36372B07 PUSH1 0xE0 SHL PUSH2 0x1E8 JUMP JUMPDEST SWAP2 PUSH2 0x1E8 JUMP JUMPDEST EQ DUP1 ISZERO PUSH2 0x1E62 JUMPI JUMPDEST SWAP1 DUP2 ISZERO PUSH2 0x1E52 JUMPI JUMPDEST POP SWAP1 JUMP JUMPDEST PUSH2 0x1E5C SWAP2 POP PUSH2 0x2AEB JUMP JUMPDEST CODESIZE PUSH2 0x1E4E JUMP JUMPDEST POP DUP1 PUSH2 0x1E7D PUSH2 0x1E77 PUSH4 0xA219A025 PUSH1 0xE0 SHL PUSH2 0x1E8 JUMP JUMPDEST SWAP2 PUSH2 0x1E8 JUMP JUMPDEST EQ PUSH2 0x1E46 JUMP JUMPDEST PUSH2 0x1E8B PUSH2 0x1609 JUMP JUMPDEST POP CALLER SWAP1 JUMP JUMPDEST PUSH2 0x1EA4 PUSH2 0x1E9F PUSH2 0x1EA9 SWAP3 PUSH2 0xBF1 JUMP JUMPDEST PUSH2 0xFC9 JUMP JUMPDEST PUSH2 0x35F JUMP JUMPDEST SWAP1 JUMP JUMPDEST PUSH2 0x1EB5 SWAP1 PUSH2 0x1E90 JUMP JUMPDEST SWAP1 JUMP JUMPDEST PUSH1 0x20 PUSH32 0x7265737300000000000000000000000000000000000000000000000000000000 SWAP2 PUSH32 0x45524332303A20617070726F76652066726F6D20746865207A65726F20616464 PUSH1 0x0 DUP3 ADD MSTORE ADD MSTORE JUMP JUMPDEST PUSH2 0x1F13 PUSH1 0x24 PUSH1 0x40 SWAP3 PUSH2 0x2A8 JUMP JUMPDEST PUSH2 0x1F1C DUP2 PUSH2 0x1EB8 JUMP JUMPDEST ADD SWAP1 JUMP JUMPDEST PUSH2 0x1F36 SWAP1 PUSH1 0x20 DUP2 ADD SWAP1 PUSH1 0x0 DUP2 DUP4 SUB SWAP2 ADD MSTORE PUSH2 0x1F06 JUMP JUMPDEST SWAP1 JUMP JUMPDEST ISZERO PUSH2 0x1F40 JUMPI JUMP JUMPDEST PUSH2 0x1F48 PUSH2 0x1D3 JUMP JUMPDEST PUSH3 0x461BCD PUSH1 0xE5 SHL DUP2 MSTORE DUP1 PUSH2 0x1F5E PUSH1 0x4 DUP3 ADD PUSH2 0x1F20 JUMP JUMPDEST SUB SWAP1 REVERT JUMPDEST PUSH1 0x20 PUSH32 0x7373000000000000000000000000000000000000000000000000000000000000 SWAP2 PUSH32 0x45524332303A20617070726F766520746F20746865207A65726F206164647265 PUSH1 0x0 DUP3 ADD MSTORE ADD MSTORE JUMP JUMPDEST PUSH2 0x1FBD PUSH1 0x22 PUSH1 0x40 SWAP3 PUSH2 0x2A8 JUMP JUMPDEST PUSH2 0x1FC6 DUP2 PUSH2 0x1F62 JUMP JUMPDEST ADD SWAP1 JUMP JUMPDEST PUSH2 0x1FE0 SWAP1 PUSH1 0x20 DUP2 ADD SWAP1 PUSH1 0x0 DUP2 DUP4 SUB SWAP2 ADD MSTORE PUSH2 0x1FB0 JUMP JUMPDEST SWAP1 JUMP JUMPDEST ISZERO PUSH2 0x1FEA JUMPI JUMP JUMPDEST PUSH2 0x1FF2 PUSH2 0x1D3 JUMP JUMPDEST PUSH3 0x461BCD PUSH1 0xE5 SHL DUP2 MSTORE DUP1 PUSH2 0x2008 PUSH1 0x4 DUP3 ADD PUSH2 0x1FCA JUMP JUMPDEST SUB SWAP1 REVERT JUMPDEST SWAP1 PUSH2 0x2021 PUSH2 0x201C PUSH2 0x2028 SWAP3 PUSH2 0x13C1 JUMP JUMPDEST PUSH2 0x13DD JUMP JUMPDEST DUP3 SLOAD PUSH2 0x1DC0 JUMP JUMPDEST SWAP1 SSTORE JUMP JUMPDEST SWAP2 SWAP1 SWAP2 PUSH2 0x2055 DUP2 PUSH2 0x204E PUSH2 0x2048 PUSH2 0x2043 PUSH1 0x0 PUSH2 0x1EAC JUMP JUMPDEST PUSH2 0x36A JUMP JUMPDEST SWAP2 PUSH2 0x36A JUMP JUMPDEST EQ ISZERO PUSH2 0x1F39 JUMP JUMPDEST PUSH2 0x207B DUP4 PUSH2 0x2074 PUSH2 0x206E PUSH2 0x2069 PUSH1 0x0 PUSH2 0x1EAC JUMP JUMPDEST PUSH2 0x36A JUMP JUMPDEST SWAP2 PUSH2 0x36A JUMP JUMPDEST EQ ISZERO PUSH2 0x1FE3 JUMP JUMPDEST PUSH2 0x209A DUP3 PUSH2 0x2095 PUSH2 0x208E PUSH1 0x1 DUP6 SWAP1 PUSH2 0x1D65 JUMP JUMPDEST DUP7 SWAP1 PUSH2 0x15D2 JUMP JUMPDEST PUSH2 0x200C JUMP JUMPDEST SWAP2 SWAP1 SWAP2 PUSH2 0x20E5 PUSH2 0x20D3 PUSH2 0x20CD PUSH32 0x8C5BE1E5EBEC7D5BD14F71427D1E84F3DD0314C0F7B2291E5B200AC8C7C3B925 SWAP4 PUSH2 0x15C6 JUMP JUMPDEST SWAP4 PUSH2 0x15C6 JUMP JUMPDEST SWAP4 PUSH2 0x20DC PUSH2 0x1D3 JUMP JUMPDEST SWAP2 DUP3 SWAP2 DUP3 PUSH2 0x48A JUMP JUMPDEST SUB SWAP1 LOG3 JUMP JUMPDEST PUSH2 0x20FC SWAP1 PUSH2 0x20F6 PUSH2 0x1E83 JUMP JUMPDEST SWAP1 PUSH2 0x2C13 JUMP JUMPDEST JUMP JUMPDEST PUSH1 0x0 PUSH32 0x45524332303A20696E73756666696369656E7420616C6C6F77616E6365000000 SWAP2 ADD MSTORE JUMP JUMPDEST PUSH2 0x2133 PUSH1 0x1D PUSH1 0x20 SWAP3 PUSH2 0x2A8 JUMP JUMPDEST PUSH2 0x213C DUP2 PUSH2 0x20FE JUMP JUMPDEST ADD SWAP1 JUMP JUMPDEST PUSH2 0x2156 SWAP1 PUSH1 0x20 DUP2 ADD SWAP1 PUSH1 0x0 DUP2 DUP4 SUB SWAP2 ADD MSTORE PUSH2 0x2126 JUMP JUMPDEST SWAP1 JUMP JUMPDEST ISZERO PUSH2 0x2160 JUMPI JUMP JUMPDEST PUSH2 0x2168 PUSH2 0x1D3 JUMP JUMPDEST PUSH3 0x461BCD PUSH1 0xE5 SHL DUP2 MSTORE DUP1 PUSH2 0x217E PUSH1 0x4 DUP3 ADD PUSH2 0x2140 JUMP JUMPDEST SUB SWAP1 REVERT JUMPDEST PUSH2 0x218D DUP2 DUP4 SWAP1 PUSH2 0x1D7D JUMP JUMPDEST SWAP1 DUP2 PUSH2 0x21A3 PUSH2 0x219D PUSH1 0x0 NOT PUSH2 0x39A JUMP JUMPDEST SWAP2 PUSH2 0x39A JUMP JUMPDEST SUB PUSH2 0x21AF JUMPI JUMPDEST POP POP POP POP JUMP JUMPDEST PUSH2 0x21E1 SWAP4 PUSH2 0x21DB SWAP2 PUSH2 0x21D4 DUP5 PUSH2 0x21CD PUSH2 0x21C7 DUP6 PUSH2 0x39A JUMP JUMPDEST SWAP2 PUSH2 0x39A JUMP JUMPDEST LT ISZERO PUSH2 0x2159 JUMP JUMPDEST SWAP4 SWAP3 PUSH2 0x1C85 JUMP JUMPDEST SWAP2 PUSH2 0x202C JUMP JUMPDEST CODESIZE DUP1 DUP1 DUP1 PUSH2 0x21A9 JUMP JUMPDEST PUSH1 0x20 PUSH32 0x6472657373000000000000000000000000000000000000000000000000000000 SWAP2 PUSH32 0x45524332303A207472616E736665722066726F6D20746865207A65726F206164 PUSH1 0x0 DUP3 ADD MSTORE ADD MSTORE JUMP JUMPDEST PUSH2 0x2245 PUSH1 0x25 PUSH1 0x40 SWAP3 PUSH2 0x2A8 JUMP JUMPDEST PUSH2 0x224E DUP2 PUSH2 0x21EA JUMP JUMPDEST ADD SWAP1 JUMP JUMPDEST PUSH2 0x2268 SWAP1 PUSH1 0x20 DUP2 ADD SWAP1 PUSH1 0x0 DUP2 DUP4 SUB SWAP2 ADD MSTORE PUSH2 0x2238 JUMP JUMPDEST SWAP1 JUMP JUMPDEST ISZERO PUSH2 0x2272 JUMPI JUMP JUMPDEST PUSH2 0x227A PUSH2 0x1D3 JUMP JUMPDEST PUSH3 0x461BCD PUSH1 0xE5 SHL DUP2 MSTORE DUP1 PUSH2 0x2290 PUSH1 0x4 DUP3 ADD PUSH2 0x2252 JUMP JUMPDEST SUB SWAP1 REVERT JUMPDEST PUSH1 0x20 PUSH32 0x6573730000000000000000000000000000000000000000000000000000000000 SWAP2 PUSH32 0x45524332303A207472616E7366657220746F20746865207A65726F2061646472 PUSH1 0x0 DUP3 ADD MSTORE ADD MSTORE JUMP JUMPDEST PUSH2 0x22EF PUSH1 0x23 PUSH1 0x40 SWAP3 PUSH2 0x2A8 JUMP JUMPDEST PUSH2 0x22F8 DUP2 PUSH2 0x2294 JUMP JUMPDEST ADD SWAP1 JUMP JUMPDEST PUSH2 0x2312 SWAP1 PUSH1 0x20 DUP2 ADD SWAP1 PUSH1 0x0 DUP2 DUP4 SUB SWAP2 ADD MSTORE PUSH2 0x22E2 JUMP JUMPDEST SWAP1 JUMP JUMPDEST ISZERO PUSH2 0x231C JUMPI JUMP JUMPDEST PUSH2 0x2324 PUSH2 0x1D3 JUMP JUMPDEST PUSH3 0x461BCD PUSH1 0xE5 SHL DUP2 MSTORE DUP1 PUSH2 0x233A PUSH1 0x4 DUP3 ADD PUSH2 0x22FC JUMP JUMPDEST SUB SWAP1 REVERT JUMPDEST PUSH1 0x20 PUSH32 0x616C616E63650000000000000000000000000000000000000000000000000000 SWAP2 PUSH32 0x45524332303A207472616E7366657220616D6F756E7420657863656564732062 PUSH1 0x0 DUP3 ADD MSTORE ADD MSTORE JUMP JUMPDEST PUSH2 0x2399 PUSH1 0x26 PUSH1 0x40 SWAP3 PUSH2 0x2A8 JUMP JUMPDEST PUSH2 0x23A2 DUP2 PUSH2 0x233E JUMP JUMPDEST ADD SWAP1 JUMP JUMPDEST PUSH2 0x23BC SWAP1 PUSH1 0x20 DUP2 ADD SWAP1 PUSH1 0x0 DUP2 DUP4 SUB SWAP2 ADD MSTORE PUSH2 0x238C JUMP JUMPDEST SWAP1 JUMP JUMPDEST ISZERO PUSH2 0x23C6 JUMPI JUMP JUMPDEST PUSH2 0x23CE PUSH2 0x1D3 JUMP JUMPDEST PUSH3 0x461BCD PUSH1 0xE5 SHL DUP2 MSTORE DUP1 PUSH2 0x23E4 PUSH1 0x4 DUP3 ADD PUSH2 0x23A6 JUMP JUMPDEST SUB SWAP1 REVERT JUMPDEST SWAP1 PUSH2 0x23F3 SWAP2 ADD PUSH2 0x39A JUMP JUMPDEST SWAP1 JUMP JUMPDEST SWAP2 SWAP1 SWAP2 PUSH2 0x241F DUP2 PUSH2 0x2418 PUSH2 0x2412 PUSH2 0x240D PUSH1 0x0 PUSH2 0x1EAC JUMP JUMPDEST PUSH2 0x36A JUMP JUMPDEST SWAP2 PUSH2 0x36A JUMP JUMPDEST EQ ISZERO PUSH2 0x226B JUMP JUMPDEST PUSH2 0x2445 DUP4 PUSH2 0x243E PUSH2 0x2438 PUSH2 0x2433 PUSH1 0x0 PUSH2 0x1EAC JUMP JUMPDEST PUSH2 0x36A JUMP JUMPDEST SWAP2 PUSH2 0x36A JUMP JUMPDEST EQ ISZERO PUSH2 0x2315 JUMP JUMPDEST PUSH2 0x2494 PUSH2 0x2483 PUSH2 0x245F PUSH2 0x245A PUSH1 0x0 DUP6 SWAP1 PUSH2 0x15D2 JUMP JUMPDEST PUSH2 0x108C JUMP JUMPDEST PUSH2 0x247C DUP2 PUSH2 0x2475 PUSH2 0x246F DUP9 PUSH2 0x39A JUMP JUMPDEST SWAP2 PUSH2 0x39A JUMP JUMPDEST LT ISZERO PUSH2 0x23BF JUMP JUMPDEST DUP5 SWAP1 PUSH2 0x1C85 JUMP JUMPDEST PUSH2 0x248F PUSH1 0x0 DUP5 SWAP1 PUSH2 0x15D2 JUMP JUMPDEST PUSH2 0x200C JUMP JUMPDEST PUSH2 0x24BC DUP3 PUSH2 0x24B6 PUSH2 0x24A7 PUSH1 0x0 DUP8 SWAP1 PUSH2 0x15D2 JUMP JUMPDEST SWAP2 PUSH2 0x24B1 DUP4 PUSH2 0x108C JUMP JUMPDEST PUSH2 0x23E8 JUMP JUMPDEST SWAP1 PUSH2 0x200C JUMP JUMPDEST SWAP2 SWAP1 SWAP2 PUSH2 0x2507 PUSH2 0x24F5 PUSH2 0x24EF PUSH32 0xDDF252AD1BE2C89B69C2B068FC378DAA952BA7F163C4A11628F55A4DF523B3EF SWAP4 PUSH2 0x15C6 JUMP JUMPDEST SWAP4 PUSH2 0x15C6 JUMP JUMPDEST SWAP4 PUSH2 0x24FE PUSH2 0x1D3 JUMP JUMPDEST SWAP2 DUP3 SWAP2 DUP3 PUSH2 0x48A JUMP JUMPDEST SUB SWAP1 LOG3 JUMP JUMPDEST SWAP1 PUSH2 0x252E PUSH2 0x2529 PUSH2 0x2533 SWAP4 PUSH2 0x2522 DUP2 DUP6 SWAP1 PUSH2 0x2CCC JUMP JUMPDEST PUSH1 0x6 PUSH2 0x160E JUMP JUMPDEST PUSH2 0x1626 JUMP JUMPDEST PUSH2 0x2DB3 JUMP JUMPDEST POP JUMP JUMPDEST SWAP1 PUSH2 0x2558 PUSH2 0x2553 PUSH2 0x255D SWAP4 PUSH2 0x254C DUP2 DUP6 SWAP1 PUSH2 0x2DEE JUMP JUMPDEST PUSH1 0x6 PUSH2 0x160E JUMP JUMPDEST PUSH2 0x1626 JUMP JUMPDEST PUSH2 0x2E88 JUMP JUMPDEST POP JUMP JUMPDEST PUSH1 0x0 PUSH32 0x45524332303A206D696E7420746F20746865207A65726F206164647265737300 SWAP2 ADD MSTORE JUMP JUMPDEST PUSH2 0x2595 PUSH1 0x1F PUSH1 0x20 SWAP3 PUSH2 0x2A8 JUMP JUMPDEST PUSH2 0x259E DUP2 PUSH2 0x2560 JUMP JUMPDEST ADD SWAP1 JUMP JUMPDEST PUSH2 0x25B8 SWAP1 PUSH1 0x20 DUP2 ADD SWAP1 PUSH1 0x0 DUP2 DUP4 SUB SWAP2 ADD MSTORE PUSH2 0x2588 JUMP JUMPDEST SWAP1 JUMP JUMPDEST ISZERO PUSH2 0x25C2 JUMPI JUMP JUMPDEST PUSH2 0x25CA PUSH2 0x1D3 JUMP JUMPDEST PUSH3 0x461BCD PUSH1 0xE5 SHL DUP2 MSTORE DUP1 PUSH2 0x25E0 PUSH1 0x4 DUP3 ADD PUSH2 0x25A2 JUMP JUMPDEST SUB SWAP1 REVERT JUMPDEST SWAP1 PUSH2 0x260B DUP3 PUSH2 0x2604 PUSH2 0x25FE PUSH2 0x25F9 PUSH1 0x0 PUSH2 0x1EAC JUMP JUMPDEST PUSH2 0x36A JUMP JUMPDEST SWAP2 PUSH2 0x36A JUMP JUMPDEST EQ ISZERO PUSH2 0x25BB JUMP JUMPDEST PUSH2 0x2628 PUSH2 0x2621 DUP3 PUSH2 0x261C PUSH1 0x2 PUSH2 0x108C JUMP JUMPDEST PUSH2 0x12B3 JUMP JUMPDEST PUSH1 0x2 PUSH2 0x200C JUMP JUMPDEST PUSH2 0x2650 DUP2 PUSH2 0x264A PUSH2 0x263B PUSH1 0x0 DUP7 SWAP1 PUSH2 0x15D2 JUMP JUMPDEST SWAP2 PUSH2 0x2645 DUP4 PUSH2 0x108C JUMP JUMPDEST PUSH2 0x23E8 JUMP JUMPDEST SWAP1 PUSH2 0x200C JUMP JUMPDEST PUSH2 0x265A PUSH1 0x0 PUSH2 0x1EAC JUMP JUMPDEST SWAP2 SWAP1 SWAP2 PUSH2 0x26A5 PUSH2 0x2693 PUSH2 0x268D PUSH32 0xDDF252AD1BE2C89B69C2B068FC378DAA952BA7F163C4A11628F55A4DF523B3EF SWAP4 PUSH2 0x15C6 JUMP JUMPDEST SWAP4 PUSH2 0x15C6 JUMP JUMPDEST SWAP4 PUSH2 0x269C PUSH2 0x1D3 JUMP JUMPDEST SWAP2 DUP3 SWAP2 DUP3 PUSH2 0x48A JUMP JUMPDEST SUB SWAP1 LOG3 JUMP JUMPDEST PUSH1 0x20 PUSH32 0x7300000000000000000000000000000000000000000000000000000000000000 SWAP2 PUSH32 0x45524332303A206275726E2066726F6D20746865207A65726F20616464726573 PUSH1 0x0 DUP3 ADD MSTORE ADD MSTORE JUMP JUMPDEST PUSH2 0x2705 PUSH1 0x21 PUSH1 0x40 SWAP3 PUSH2 0x2A8 JUMP JUMPDEST PUSH2 0x270E DUP2 PUSH2 0x26AA JUMP JUMPDEST ADD SWAP1 JUMP JUMPDEST PUSH2 0x2728 SWAP1 PUSH1 0x20 DUP2 ADD SWAP1 PUSH1 0x0 DUP2 DUP4 SUB SWAP2 ADD MSTORE PUSH2 0x26F8 JUMP JUMPDEST SWAP1 JUMP JUMPDEST ISZERO PUSH2 0x2732 JUMPI JUMP JUMPDEST PUSH2 0x273A PUSH2 0x1D3 JUMP JUMPDEST PUSH3 0x461BCD PUSH1 0xE5 SHL DUP2 MSTORE DUP1 PUSH2 0x2750 PUSH1 0x4 DUP3 ADD PUSH2 0x2712 JUMP JUMPDEST SUB SWAP1 REVERT JUMPDEST PUSH1 0x20 PUSH32 0x6365000000000000000000000000000000000000000000000000000000000000 SWAP2 PUSH32 0x45524332303A206275726E20616D6F756E7420657863656564732062616C616E PUSH1 0x0 DUP3 ADD MSTORE ADD MSTORE JUMP JUMPDEST PUSH2 0x27AF PUSH1 0x22 PUSH1 0x40 SWAP3 PUSH2 0x2A8 JUMP JUMPDEST PUSH2 0x27B8 DUP2 PUSH2 0x2754 JUMP JUMPDEST ADD SWAP1 JUMP JUMPDEST PUSH2 0x27D2 SWAP1 PUSH1 0x20 DUP2 ADD SWAP1 PUSH1 0x0 DUP2 DUP4 SUB SWAP2 ADD MSTORE PUSH2 0x27A2 JUMP JUMPDEST SWAP1 JUMP JUMPDEST ISZERO PUSH2 0x27DC JUMPI JUMP JUMPDEST PUSH2 0x27E4 PUSH2 0x1D3 JUMP JUMPDEST PUSH3 0x461BCD PUSH1 0xE5 SHL DUP2 MSTORE DUP1 PUSH2 0x27FA PUSH1 0x4 DUP3 ADD PUSH2 0x27BC JUMP JUMPDEST SUB SWAP1 REVERT JUMPDEST PUSH2 0x2824 DUP2 PUSH2 0x281D PUSH2 0x2817 PUSH2 0x2812 PUSH1 0x0 PUSH2 0x1EAC JUMP JUMPDEST PUSH2 0x36A JUMP JUMPDEST SWAP2 PUSH2 0x36A JUMP JUMPDEST EQ ISZERO PUSH2 0x272B JUMP JUMPDEST PUSH2 0x2873 PUSH2 0x2862 PUSH2 0x283E PUSH2 0x2839 PUSH1 0x0 DUP6 SWAP1 PUSH2 0x15D2 JUMP JUMPDEST PUSH2 0x108C JUMP JUMPDEST PUSH2 0x285B DUP2 PUSH2 0x2854 PUSH2 0x284E DUP9 PUSH2 0x39A JUMP JUMPDEST SWAP2 PUSH2 0x39A JUMP JUMPDEST LT ISZERO PUSH2 0x27D5 JUMP JUMPDEST DUP5 SWAP1 PUSH2 0x1C85 JUMP JUMPDEST PUSH2 0x286E PUSH1 0x0 DUP5 SWAP1 PUSH2 0x15D2 JUMP JUMPDEST PUSH2 0x200C JUMP JUMPDEST PUSH2 0x2890 PUSH2 0x2889 DUP4 PUSH2 0x2884 PUSH1 0x2 PUSH2 0x108C JUMP JUMPDEST PUSH2 0x1C85 JUMP JUMPDEST PUSH1 0x2 PUSH2 0x200C JUMP JUMPDEST SWAP1 PUSH2 0x289B PUSH1 0x0 PUSH2 0x1EAC JUMP JUMPDEST SWAP1 SWAP2 PUSH2 0x28E5 PUSH2 0x28D3 PUSH2 0x28CD PUSH32 0xDDF252AD1BE2C89B69C2B068FC378DAA952BA7F163C4A11628F55A4DF523B3EF SWAP4 PUSH2 0x15C6 JUMP JUMPDEST SWAP4 PUSH2 0x15C6 JUMP JUMPDEST SWAP4 PUSH2 0x28DC PUSH2 0x1D3 JUMP JUMPDEST SWAP2 DUP3 SWAP2 DUP3 PUSH2 0x48A JUMP JUMPDEST SUB SWAP1 LOG3 JUMP JUMPDEST SWAP1 JUMP JUMPDEST PUSH2 0x28F9 PUSH2 0x28FE SWAP2 PUSH2 0x106F JUMP JUMPDEST PUSH2 0x13C1 JUMP JUMPDEST SWAP1 JUMP JUMPDEST PUSH2 0x2915 PUSH2 0x2910 PUSH2 0x291A SWAP3 PUSH2 0x39A JUMP JUMPDEST PUSH2 0xFC9 JUMP JUMPDEST PUSH2 0x35F JUMP JUMPDEST SWAP1 JUMP JUMPDEST PUSH2 0x2949 PUSH2 0x2944 PUSH2 0x2953 SWAP4 PUSH2 0x293F PUSH1 0x0 PUSH2 0x294E SWAP6 PUSH2 0x2938 PUSH2 0x1609 JUMP JUMPDEST POP ADD PUSH2 0x28EA JUMP JUMPDEST PUSH2 0x2F37 JUMP JUMPDEST PUSH2 0x28ED JUMP JUMPDEST PUSH2 0x2901 JUMP JUMPDEST PUSH2 0x15BA JUMP JUMPDEST SWAP1 JUMP JUMPDEST PUSH1 0x8 SHR SWAP1 JUMP JUMPDEST PUSH2 0x2968 PUSH2 0x296D SWAP2 PUSH2 0x2956 JUMP JUMPDEST PUSH2 0x1669 JUMP JUMPDEST SWAP1 JUMP JUMPDEST PUSH2 0x297A SWAP1 SLOAD PUSH2 0x295C JUMP JUMPDEST SWAP1 JUMP JUMPDEST SWAP1 PUSH2 0x2989 PUSH1 0xFF SWAP2 PUSH2 0xBF4 JUMP JUMPDEST SWAP2 DUP2 NOT AND SWAP2 AND OR SWAP1 JUMP JUMPDEST PUSH2 0x29A7 PUSH2 0x29A2 PUSH2 0x29AC SWAP3 PUSH2 0x646 JUMP JUMPDEST PUSH2 0xFC9 JUMP JUMPDEST PUSH2 0x646 JUMP JUMPDEST SWAP1 JUMP JUMPDEST SWAP1 JUMP JUMPDEST SWAP1 PUSH2 0x29C7 PUSH2 0x29C2 PUSH2 0x29CE SWAP3 PUSH2 0x2993 JUMP JUMPDEST PUSH2 0x29AF JUMP JUMPDEST DUP3 SLOAD PUSH2 0x297D JUMP JUMPDEST SWAP1 SSTORE JUMP JUMPDEST PUSH1 0x8 SHL SWAP1 JUMP JUMPDEST SWAP1 PUSH2 0x29E5 PUSH2 0xFF00 SWAP2 PUSH2 0x29D2 JUMP JUMPDEST SWAP2 DUP2 NOT AND SWAP2 AND OR SWAP1 JUMP JUMPDEST SWAP1 PUSH2 0x2A04 PUSH2 0x29FF PUSH2 0x2A0B SWAP3 PUSH2 0x1716 JUMP JUMPDEST PUSH2 0x1722 JUMP JUMPDEST DUP3 SLOAD PUSH2 0x29D8 JUMP JUMPDEST SWAP1 SSTORE JUMP JUMPDEST SWAP2 SWAP1 SWAP5 SWAP3 CALLER PUSH2 0x2A46 PUSH2 0x2A40 PUSH32 0x0 PUSH2 0x36A JUMP JUMPDEST SWAP2 PUSH2 0x36A JUMP JUMPDEST EQ ISZERO DUP1 ISZERO PUSH2 0x2ABB JUMPI JUMPDEST PUSH2 0x2A9E JUMPI PUSH2 0x2A6F PUSH2 0x2A76 SWAP3 PUSH2 0x2A68 PUSH2 0x2A90 SWAP9 PUSH1 0x9 PUSH2 0x158A JUMP JUMPDEST PUSH1 0xA PUSH2 0x158A JUMP JUMPDEST PUSH1 0xB PUSH2 0x29B2 JUMP JUMPDEST PUSH2 0x2A88 PUSH2 0x2A81 PUSH2 0xC16 JUMP JUMPDEST DUP3 SWAP1 PUSH2 0x250C JUMP JUMPDEST SWAP2 SWAP1 SWAP2 PUSH2 0x2F59 JUMP JUMPDEST PUSH2 0x2A9C PUSH1 0x1 PUSH1 0xB PUSH2 0x29EF JUMP JUMPDEST JUMP JUMPDEST PUSH1 0x0 PUSH4 0xF92EE8A9 PUSH1 0xE0 SHL DUP2 MSTORE DUP1 PUSH2 0x2AB7 PUSH1 0x4 DUP3 ADD PUSH2 0x444 JUMP JUMPDEST SUB SWAP1 REVERT JUMPDEST POP PUSH2 0x2AC6 PUSH1 0xB PUSH2 0x2970 JUMP JUMPDEST PUSH2 0x2A4F JUMP JUMPDEST PUSH2 0x2AE3 PUSH1 0x0 PUSH2 0x2AE8 SWAP3 PUSH2 0x2ADC PUSH2 0x106A JUMP JUMPDEST POP ADD PUSH2 0x28EA JUMP JUMPDEST PUSH2 0x2F76 JUMP JUMPDEST SWAP1 JUMP JUMPDEST PUSH2 0x2AF3 PUSH2 0xDD4 JUMP JUMPDEST POP PUSH2 0x2AFD DUP2 PUSH2 0x2F8E JUMP JUMPDEST SWAP1 DUP2 ISZERO PUSH2 0x2B09 JUMPI JUMPDEST POP SWAP1 JUMP JUMPDEST PUSH2 0x2B13 SWAP2 POP PUSH2 0x2FCE JUMP JUMPDEST CODESIZE PUSH2 0x2B05 JUMP JUMPDEST SWAP1 JUMP JUMPDEST PUSH2 0x2B30 PUSH2 0x2B2B PUSH2 0x2B35 SWAP3 PUSH2 0x2B19 JUMP JUMPDEST PUSH2 0xFC9 JUMP JUMPDEST PUSH2 0x39A JUMP JUMPDEST SWAP1 JUMP JUMPDEST SWAP1 POP SWAP1 JUMP JUMPDEST PUSH1 0x0 PUSH32 0x416363657373436F6E74726F6C3A206163636F756E7420000000000000000000 SWAP2 ADD MSTORE JUMP JUMPDEST PUSH2 0x2B71 PUSH1 0x17 DUP1 SWAP3 PUSH2 0x2B38 JUMP JUMPDEST PUSH2 0x2B7A DUP2 PUSH2 0x2B3D JUMP JUMPDEST ADD SWAP1 JUMP JUMPDEST PUSH2 0x2BA3 PUSH2 0x2B9A SWAP3 PUSH1 0x20 SWAP3 PUSH2 0x2B91 DUP2 PUSH2 0x2A4 JUMP JUMPDEST SWAP5 DUP6 DUP1 SWAP4 PUSH2 0x2B38 JUMP JUMPDEST SWAP4 DUP5 SWAP2 ADD PUSH2 0x2B1 JUMP JUMPDEST ADD SWAP1 JUMP JUMPDEST PUSH1 0x0 PUSH32 0x206973206D697373696E6720726F6C6520000000000000000000000000000000 SWAP2 ADD MSTORE JUMP JUMPDEST PUSH2 0x2BDB PUSH1 0x11 DUP1 SWAP3 PUSH2 0x2B38 JUMP JUMPDEST PUSH2 0x2BE4 DUP2 PUSH2 0x2BA7 JUMP JUMPDEST ADD SWAP1 JUMP JUMPDEST PUSH2 0x2C02 PUSH2 0x2C0D SWAP4 SWAP3 PUSH2 0x2BFC PUSH2 0x2C07 SWAP4 PUSH2 0x2B65 JUMP JUMPDEST SWAP1 PUSH2 0x2B7E JUMP JUMPDEST PUSH2 0x2BCF JUMP JUMPDEST SWAP1 PUSH2 0x2B7E JUMP JUMPDEST SWAP1 JUMP JUMPDEST SWAP1 JUMP JUMPDEST SWAP1 PUSH2 0x2C28 PUSH2 0x2C22 DUP4 DUP4 SWAP1 PUSH2 0x1690 JUMP JUMPDEST ISZERO PUSH2 0x237 JUMP JUMPDEST PUSH2 0x2C30 JUMPI POP POP JUMP JUMPDEST PUSH2 0x2CA8 SWAP2 PUSH2 0x2C86 PUSH2 0x2C5F PUSH2 0x2C4F PUSH2 0x2C49 PUSH2 0x2C8B SWAP6 PUSH2 0x3056 JUMP JUMPDEST SWAP4 PUSH2 0x28ED JUMP JUMPDEST PUSH2 0x2C59 PUSH1 0x20 PUSH2 0x2B1C JUMP JUMPDEST SWAP1 PUSH2 0x32E3 JUMP JUMPDEST SWAP2 PUSH2 0x2C77 PUSH2 0x2C6B PUSH2 0x1D3 JUMP JUMPDEST SWAP4 DUP5 SWAP3 PUSH1 0x20 DUP5 ADD PUSH2 0x2BE8 JUMP JUMPDEST PUSH1 0x20 DUP3 ADD DUP2 SUB DUP3 MSTORE SUB DUP3 PUSH2 0x7B4 JUMP JUMPDEST PUSH2 0x2C10 JUMP JUMPDEST PUSH2 0x2C93 PUSH2 0x1D3 JUMP JUMPDEST SWAP2 DUP3 SWAP2 PUSH3 0x461BCD PUSH1 0xE5 SHL DUP4 MSTORE PUSH1 0x4 DUP4 ADD PUSH2 0x311 JUMP JUMPDEST SUB SWAP1 REVERT JUMPDEST SWAP1 PUSH2 0x2CC1 PUSH2 0x2CBC PUSH2 0x2CC8 SWAP3 PUSH2 0x1716 JUMP JUMPDEST PUSH2 0x1722 JUMP JUMPDEST DUP3 SLOAD PUSH2 0x297D JUMP JUMPDEST SWAP1 SSTORE JUMP JUMPDEST PUSH2 0x2CE0 PUSH2 0x2CDA DUP3 DUP5 SWAP1 PUSH2 0x1690 JUMP JUMPDEST ISZERO PUSH2 0x237 JUMP JUMPDEST PUSH2 0x2CE9 JUMPI JUMPDEST POP POP JUMP JUMPDEST PUSH2 0x2D0C PUSH1 0x1 PUSH2 0x2D07 PUSH1 0x0 PUSH2 0x2CFF PUSH1 0x5 DUP7 SWAP1 PUSH2 0x10EF JUMP JUMPDEST ADD DUP6 SWAP1 PUSH2 0x1651 JUMP JUMPDEST PUSH2 0x2CAC JUMP JUMPDEST SWAP1 PUSH2 0x2D15 PUSH2 0x1E83 JUMP JUMPDEST SWAP1 PUSH2 0x2D52 PUSH2 0x2D4C PUSH2 0x2D46 PUSH32 0x2F8788117E7EFF1D82E926EC794901D17C78024A50270940304540A733656F0D SWAP6 PUSH2 0x10E3 JUMP JUMPDEST SWAP3 PUSH2 0x15C6 JUMP JUMPDEST SWAP3 PUSH2 0x15C6 JUMP JUMPDEST SWAP3 PUSH2 0x2D5B PUSH2 0x1D3 JUMP JUMPDEST DUP1 PUSH2 0x2D65 DUP2 PUSH2 0x444 JUMP JUMPDEST SUB SWAP1 LOG4 CODESIZE DUP1 PUSH2 0x2CE5 JUMP JUMPDEST PUSH2 0x2D78 SWAP1 PUSH2 0xFCC JUMP JUMPDEST SWAP1 JUMP JUMPDEST PUSH2 0x2D8F PUSH2 0x2D8A PUSH2 0x2D94 SWAP3 PUSH2 0x35F JUMP JUMPDEST PUSH2 0xFC9 JUMP JUMPDEST PUSH2 0x39A JUMP JUMPDEST SWAP1 JUMP JUMPDEST PUSH2 0x2DAB PUSH2 0x2DA6 PUSH2 0x2DB0 SWAP3 PUSH2 0x39A JUMP JUMPDEST PUSH2 0xBF4 JUMP JUMPDEST PUSH2 0x546 JUMP JUMPDEST SWAP1 JUMP JUMPDEST SWAP1 PUSH2 0x2DE6 PUSH2 0x2DE0 PUSH2 0x2DDB PUSH2 0x2DD6 PUSH1 0x0 PUSH2 0x2DEB SWAP7 PUSH2 0x2DCE PUSH2 0xDD4 JUMP JUMPDEST POP ADD SWAP5 PUSH2 0x2D6F JUMP JUMPDEST PUSH2 0x2D7B JUMP JUMPDEST PUSH2 0x2D97 JUMP JUMPDEST SWAP2 PUSH2 0x28EA JUMP JUMPDEST PUSH2 0x34D9 JUMP JUMPDEST SWAP1 JUMP JUMPDEST PUSH2 0x2DF9 DUP2 DUP4 SWAP1 PUSH2 0x1690 JUMP JUMPDEST PUSH2 0x2E02 JUMPI JUMPDEST POP POP JUMP JUMPDEST PUSH2 0x2E25 PUSH1 0x0 PUSH2 0x2E20 PUSH1 0x0 PUSH2 0x2E18 PUSH1 0x5 DUP7 SWAP1 PUSH2 0x10EF JUMP JUMPDEST ADD DUP6 SWAP1 PUSH2 0x1651 JUMP JUMPDEST PUSH2 0x2CAC JUMP JUMPDEST SWAP1 PUSH2 0x2E2E PUSH2 0x1E83 JUMP JUMPDEST SWAP1 PUSH2 0x2E6B PUSH2 0x2E65 PUSH2 0x2E5F PUSH32 0xF6391F5C32D9C69D2A47EA670B442974B53935D1EDC7FD64EB21E047A839171B SWAP6 PUSH2 0x10E3 JUMP JUMPDEST SWAP3 PUSH2 0x15C6 JUMP JUMPDEST SWAP3 PUSH2 0x15C6 JUMP JUMPDEST SWAP3 PUSH2 0x2E74 PUSH2 0x1D3 JUMP JUMPDEST DUP1 PUSH2 0x2E7E DUP2 PUSH2 0x444 JUMP JUMPDEST SUB SWAP1 LOG4 CODESIZE DUP1 PUSH2 0x2DFE JUMP JUMPDEST SWAP1 PUSH2 0x2EBB PUSH2 0x2EB5 PUSH2 0x2EB0 PUSH2 0x2EAB PUSH1 0x0 PUSH2 0x2EC0 SWAP7 PUSH2 0x2EA3 PUSH2 0xDD4 JUMP JUMPDEST POP ADD SWAP5 PUSH2 0x2D6F JUMP JUMPDEST PUSH2 0x2D7B JUMP JUMPDEST PUSH2 0x2D97 JUMP JUMPDEST SWAP2 PUSH2 0x28EA JUMP JUMPDEST PUSH2 0x35BE JUMP JUMPDEST SWAP1 JUMP JUMPDEST PUSH4 0x4E487B71 PUSH1 0xE0 SHL PUSH1 0x0 MSTORE PUSH1 0x32 PUSH1 0x4 MSTORE PUSH1 0x24 PUSH1 0x0 REVERT JUMPDEST SLOAD SWAP1 JUMP JUMPDEST PUSH1 0x0 MSTORE PUSH1 0x20 PUSH1 0x0 KECCAK256 SWAP1 JUMP JUMPDEST PUSH2 0x2EF1 DUP2 PUSH2 0x2ED9 JUMP JUMPDEST DUP3 LT ISZERO PUSH2 0x2F0C JUMPI PUSH2 0x2F03 PUSH1 0x1 SWAP2 PUSH2 0x2EDD JUMP JUMPDEST SWAP2 MUL ADD SWAP1 PUSH1 0x0 SWAP1 JUMP JUMPDEST PUSH2 0x2EC3 JUMP JUMPDEST PUSH2 0x2F21 SWAP1 PUSH1 0x8 PUSH2 0x2F26 SWAP4 MUL PUSH2 0x148D JUMP JUMPDEST PUSH2 0x1107 JUMP JUMPDEST SWAP1 JUMP JUMPDEST SWAP1 PUSH2 0x2F34 SWAP2 SLOAD PUSH2 0x2F11 JUMP JUMPDEST SWAP1 JUMP JUMPDEST PUSH2 0x2F56 SWAP2 PUSH1 0x0 PUSH2 0x2F50 SWAP3 PUSH2 0x2F49 PUSH2 0x10DE JUMP JUMPDEST POP ADD PUSH2 0x2EE8 JUMP JUMPDEST SWAP1 PUSH2 0x2F29 JUMP JUMPDEST SWAP1 JUMP JUMPDEST SWAP1 PUSH2 0x2F6F PUSH2 0x2F74 SWAP4 SWAP3 PUSH2 0x2F6A PUSH2 0xF8A JUMP JUMPDEST PUSH2 0x250C JUMP JUMPDEST PUSH2 0x36C8 JUMP JUMPDEST JUMP JUMPDEST PUSH1 0x0 PUSH2 0x2F8B SWAP2 PUSH2 0x2F84 PUSH2 0x106A JUMP JUMPDEST POP ADD PUSH2 0x2ED9 JUMP JUMPDEST SWAP1 JUMP JUMPDEST PUSH2 0x2F96 PUSH2 0xDD4 JUMP JUMPDEST POP DUP1 PUSH2 0x2FB1 PUSH2 0x2FAB PUSH4 0x5A05180F PUSH1 0xE0 SHL PUSH2 0x1E8 JUMP JUMPDEST SWAP2 PUSH2 0x1E8 JUMP JUMPDEST EQ SWAP1 DUP2 ISZERO PUSH2 0x2FBE JUMPI JUMPDEST POP SWAP1 JUMP JUMPDEST PUSH2 0x2FC8 SWAP2 POP PUSH2 0x36E8 JUMP JUMPDEST CODESIZE PUSH2 0x2FBA JUMP JUMPDEST PUSH2 0x2FD6 PUSH2 0xDD4 JUMP JUMPDEST POP DUP1 PUSH2 0x2FF1 PUSH2 0x2FEB PUSH4 0x4E821D33 PUSH1 0xE1 SHL PUSH2 0x1E8 JUMP JUMPDEST SWAP2 PUSH2 0x1E8 JUMP JUMPDEST EQ SWAP1 DUP2 ISZERO PUSH2 0x2FFE JUMPI JUMPDEST POP SWAP1 JUMP JUMPDEST PUSH2 0x3008 SWAP2 POP PUSH2 0x2F8E JUMP JUMPDEST CODESIZE PUSH2 0x2FFA JUMP JUMPDEST SWAP1 JUMP JUMPDEST PUSH2 0x3025 PUSH2 0x3020 PUSH2 0x302A SWAP3 PUSH2 0x300E JUMP JUMPDEST PUSH2 0xFC9 JUMP JUMPDEST PUSH2 0x646 JUMP JUMPDEST SWAP1 JUMP JUMPDEST PUSH2 0x3037 PUSH1 0x14 PUSH2 0x3011 JUMP JUMPDEST SWAP1 JUMP JUMPDEST PUSH2 0x304E PUSH2 0x3049 PUSH2 0x3053 SWAP3 PUSH2 0x646 JUMP JUMPDEST PUSH2 0xFC9 JUMP JUMPDEST PUSH2 0x39A JUMP JUMPDEST SWAP1 JUMP JUMPDEST PUSH2 0x3073 PUSH2 0x306E PUSH2 0x3089 SWAP3 PUSH2 0x3068 PUSH2 0xE2F JUMP JUMPDEST POP PUSH2 0x2D6F JUMP JUMPDEST PUSH2 0x2D7B JUMP JUMPDEST PUSH2 0x3083 PUSH2 0x307E PUSH2 0x302D JUMP JUMPDEST PUSH2 0x303A JUMP JUMPDEST SWAP1 PUSH2 0x32E3 JUMP JUMPDEST SWAP1 JUMP JUMPDEST SWAP1 JUMP JUMPDEST PUSH2 0x30A3 PUSH2 0x309E PUSH2 0x30A8 SWAP3 PUSH2 0x308C JUMP JUMPDEST PUSH2 0xFC9 JUMP JUMPDEST PUSH2 0x39A JUMP JUMPDEST SWAP1 JUMP JUMPDEST PUSH2 0x30BA PUSH2 0x30C0 SWAP2 SWAP4 SWAP3 SWAP4 PUSH2 0x39A JUMP JUMPDEST SWAP3 PUSH2 0x39A JUMP JUMPDEST SWAP2 PUSH2 0x30CC DUP4 DUP3 MUL PUSH2 0x39A JUMP JUMPDEST SWAP3 DUP2 DUP5 DIV EQ SWAP1 ISZERO OR ISZERO PUSH2 0x30DB JUMPI JUMP JUMPDEST PUSH2 0x129D JUMP JUMPDEST PUSH8 0xFFFFFFFFFFFFFFFF DUP2 GT PUSH2 0x30FE JUMPI PUSH2 0x30FA PUSH1 0x20 SWAP2 PUSH2 0x2D6 JUMP JUMPDEST ADD SWAP1 JUMP JUMPDEST PUSH2 0x79E JUMP JUMPDEST SWAP1 PUSH2 0x3115 PUSH2 0x3110 DUP4 PUSH2 0x30E0 JUMP JUMPDEST PUSH2 0x7DD JUMP JUMPDEST SWAP2 DUP3 MSTORE JUMP JUMPDEST CALLDATASIZE SWAP1 CALLDATACOPY JUMP JUMPDEST SWAP1 PUSH2 0x3144 PUSH2 0x312C DUP4 PUSH2 0x3103 JUMP JUMPDEST SWAP3 PUSH1 0x20 DUP1 PUSH2 0x313A DUP7 SWAP4 PUSH2 0x30E0 JUMP JUMPDEST SWAP3 ADD SWAP2 SUB SWAP1 PUSH2 0x311A JUMP JUMPDEST JUMP JUMPDEST PUSH1 0x3 PUSH1 0xFC SHL SWAP1 JUMP JUMPDEST MLOAD SWAP1 JUMP JUMPDEST SWAP1 PUSH2 0x315C DUP3 PUSH2 0x314E JUMP JUMPDEST DUP2 LT ISZERO PUSH2 0x316E JUMPI PUSH1 0x1 PUSH1 0x20 SWAP2 MUL ADD ADD SWAP1 JUMP JUMPDEST PUSH2 0x2EC3 JUMP JUMPDEST PUSH2 0x3187 PUSH2 0x3182 PUSH2 0x318C SWAP3 PUSH2 0xBF1 JUMP JUMPDEST PUSH2 0xFC9 JUMP JUMPDEST PUSH2 0x39A JUMP JUMPDEST SWAP1 JUMP JUMPDEST PUSH1 0xF PUSH1 0xFB SHL SWAP1 JUMP JUMPDEST SWAP1 JUMP JUMPDEST PUSH2 0x31AE PUSH2 0x31A9 PUSH2 0x31B3 SWAP3 PUSH2 0x3197 JUMP JUMPDEST PUSH2 0xFC9 JUMP JUMPDEST PUSH2 0x39A JUMP JUMPDEST SWAP1 JUMP JUMPDEST PUSH2 0x31BF SWAP1 PUSH2 0x39A JUMP JUMPDEST PUSH1 0x0 DUP2 EQ PUSH2 0x31CE JUMPI PUSH1 0x1 SWAP1 SUB SWAP1 JUMP JUMPDEST PUSH2 0x129D JUMP JUMPDEST PUSH16 0x181899199A1A9B1B9C1CB0B131B232B3 PUSH1 0x81 SHL SWAP1 JUMP JUMPDEST PUSH2 0x31F2 PUSH2 0x31D3 JUMP JUMPDEST SWAP1 JUMP JUMPDEST SWAP1 JUMP JUMPDEST PUSH2 0x320C PUSH2 0x3207 PUSH2 0x3211 SWAP3 PUSH2 0x31F5 JUMP JUMPDEST PUSH2 0xFC9 JUMP JUMPDEST PUSH2 0x39A JUMP JUMPDEST SWAP1 JUMP JUMPDEST PUSH1 0xF8 SHL SWAP1 JUMP JUMPDEST SWAP1 JUMP JUMPDEST PUSH2 0x3231 PUSH2 0x322C PUSH2 0x3236 SWAP3 PUSH2 0x321A JUMP JUMPDEST PUSH2 0xFC9 JUMP JUMPDEST PUSH2 0x646 JUMP JUMPDEST SWAP1 JUMP JUMPDEST PUSH2 0x3258 SWAP1 PUSH2 0x3252 PUSH2 0x324C PUSH2 0x325D SWAP5 PUSH2 0x646 JUMP JUMPDEST SWAP2 PUSH2 0x39A JUMP JUMPDEST SWAP1 PUSH2 0x148D JUMP JUMPDEST PUSH2 0x39A JUMP JUMPDEST SWAP1 JUMP JUMPDEST PUSH1 0x0 PUSH32 0x537472696E67733A20686578206C656E67746820696E73756666696369656E74 SWAP2 ADD MSTORE JUMP JUMPDEST PUSH2 0x3294 PUSH1 0x20 DUP1 SWAP3 PUSH2 0x2A8 JUMP JUMPDEST PUSH2 0x329D DUP2 PUSH2 0x3260 JUMP JUMPDEST ADD SWAP1 JUMP JUMPDEST PUSH2 0x32B7 SWAP1 PUSH1 0x20 DUP2 ADD SWAP1 PUSH1 0x0 DUP2 DUP4 SUB SWAP2 ADD MSTORE PUSH2 0x3288 JUMP JUMPDEST SWAP1 JUMP JUMPDEST ISZERO PUSH2 0x32C1 JUMPI JUMP JUMPDEST PUSH2 0x32C9 PUSH2 0x1D3 JUMP JUMPDEST PUSH3 0x461BCD PUSH1 0xE5 SHL DUP2 MSTORE DUP1 PUSH2 0x32DF PUSH1 0x4 DUP3 ADD PUSH2 0x32A1 JUMP JUMPDEST SUB SWAP1 REVERT JUMPDEST SWAP2 SWAP1 PUSH2 0x32ED PUSH2 0xE2F JUMP JUMPDEST POP PUSH2 0x3387 PUSH2 0x3377 PUSH2 0x3323 PUSH2 0x331E PUSH2 0x330E PUSH1 0x2 PUSH2 0x3309 DUP8 SWAP2 PUSH2 0x308F JUMP JUMPDEST PUSH2 0x30AB JUMP JUMPDEST PUSH2 0x3318 PUSH1 0x2 PUSH2 0x308F JUMP JUMPDEST SWAP1 PUSH2 0x12B3 JUMP JUMPDEST PUSH2 0x311F JUMP JUMPDEST SWAP3 PUSH2 0x332C PUSH2 0x3146 JUMP JUMPDEST PUSH2 0x3345 DUP6 PUSH2 0x333F PUSH1 0x0 SWAP4 PUSH1 0x0 BYTE SWAP4 PUSH2 0x3173 JUMP JUMPDEST SWAP1 PUSH2 0x3152 JUMP JUMPDEST MSTORE8 PUSH2 0x334E PUSH2 0x318F JUMP JUMPDEST PUSH2 0x3367 DUP6 PUSH2 0x3361 PUSH1 0x1 SWAP4 PUSH1 0x0 BYTE SWAP4 PUSH2 0x319A JUMP JUMPDEST SWAP1 PUSH2 0x3152 JUMP JUMPDEST MSTORE8 PUSH2 0x3372 PUSH1 0x2 PUSH2 0x308F JUMP JUMPDEST PUSH2 0x30AB JUMP JUMPDEST PUSH2 0x3381 PUSH1 0x1 PUSH2 0x319A JUMP JUMPDEST SWAP1 PUSH2 0x12B3 JUMP JUMPDEST SWAP3 JUMPDEST DUP4 PUSH2 0x339D PUSH2 0x3397 PUSH1 0x1 PUSH2 0x319A JUMP JUMPDEST SWAP2 PUSH2 0x39A JUMP JUMPDEST GT ISZERO PUSH2 0x3404 JUMPI PUSH2 0x33AB PUSH2 0x31EA JUMP JUMPDEST DUP2 PUSH2 0x33B6 PUSH1 0xF PUSH2 0x31F8 JUMP JUMPDEST AND SWAP2 PUSH1 0x10 DUP4 LT ISZERO PUSH2 0x33FF JUMPI PUSH2 0x33D2 PUSH2 0x33F3 SWAP3 PUSH2 0x33F9 SWAP5 BYTE PUSH2 0x3214 JUMP JUMPDEST PUSH2 0x33E2 DUP6 SWAP2 DUP9 SWAP1 PUSH1 0x0 BYTE SWAP3 PUSH2 0x3152 JUMP JUMPDEST MSTORE8 PUSH2 0x33ED PUSH1 0x4 PUSH2 0x321D JUMP JUMPDEST SWAP1 PUSH2 0x3239 JUMP JUMPDEST SWAP4 PUSH2 0x31B6 JUMP JUMPDEST SWAP3 PUSH2 0x3389 JUMP JUMPDEST PUSH2 0x2EC3 JUMP JUMPDEST PUSH2 0x342C SWAP3 SWAP4 POP PUSH2 0x3427 SWAP1 PUSH2 0x3421 PUSH2 0x341B PUSH1 0x0 PUSH2 0x3173 JUMP JUMPDEST SWAP2 PUSH2 0x39A JUMP JUMPDEST EQ PUSH2 0x32BA JUMP JUMPDEST PUSH2 0x2C10 JUMP JUMPDEST SWAP1 JUMP JUMPDEST SWAP1 JUMP JUMPDEST PUSH1 0x0 MSTORE PUSH1 0x20 PUSH1 0x0 KECCAK256 SWAP1 JUMP JUMPDEST SLOAD SWAP1 JUMP JUMPDEST PUSH2 0x344A DUP2 PUSH2 0x343D JUMP JUMPDEST DUP3 LT ISZERO PUSH2 0x3465 JUMPI PUSH2 0x345C PUSH1 0x1 SWAP2 PUSH2 0x3432 JUMP JUMPDEST SWAP2 MUL ADD SWAP1 PUSH1 0x0 SWAP1 JUMP JUMPDEST PUSH2 0x2EC3 JUMP JUMPDEST SWAP2 SWAP1 PUSH2 0x3480 PUSH2 0x347B PUSH2 0x3488 SWAP4 PUSH2 0x10E3 JUMP JUMPDEST PUSH2 0x1DD7 JUMP JUMPDEST SWAP1 DUP4 SLOAD PUSH2 0x139B JUMP JUMPDEST SWAP1 SSTORE JUMP JUMPDEST SWAP1 DUP2 SLOAD SWAP2 PUSH9 0x10000000000000000 DUP4 LT ISZERO PUSH2 0x34BC JUMPI DUP3 PUSH2 0x34B4 SWAP2 PUSH1 0x1 PUSH2 0x34BA SWAP6 ADD DUP2 SSTORE PUSH2 0x3441 JUMP JUMPDEST SWAP1 PUSH2 0x346A JUMP JUMPDEST JUMP JUMPDEST PUSH2 0x79E JUMP JUMPDEST SWAP1 PUSH2 0x34CB SWAP1 PUSH2 0x10E3 JUMP JUMPDEST PUSH1 0x0 MSTORE PUSH1 0x20 MSTORE PUSH1 0x40 PUSH1 0x0 KECCAK256 SWAP1 JUMP JUMPDEST PUSH2 0x34E1 PUSH2 0xDD4 JUMP JUMPDEST POP PUSH2 0x34F6 PUSH2 0x34F0 DUP3 DUP5 SWAP1 PUSH2 0x3728 JUMP JUMPDEST ISZERO PUSH2 0x237 JUMP JUMPDEST PUSH1 0x0 EQ PUSH2 0x3539 JUMPI PUSH2 0x352F PUSH2 0x3534 SWAP3 PUSH2 0x351A PUSH2 0x3513 PUSH1 0x0 DUP6 ADD PUSH2 0x342F JUMP JUMPDEST DUP3 SWAP1 PUSH2 0x348C JUMP JUMPDEST PUSH1 0x1 PUSH2 0x3528 PUSH1 0x0 DUP6 ADD PUSH2 0x2ED9 JUMP JUMPDEST SWAP4 ADD PUSH2 0x34C1 JUMP JUMPDEST PUSH2 0x200C JUMP JUMPDEST PUSH1 0x1 SWAP1 JUMP JUMPDEST POP POP PUSH1 0x0 SWAP1 JUMP JUMPDEST PUSH2 0x354F PUSH2 0x3555 SWAP2 SWAP4 SWAP3 SWAP4 PUSH2 0x39A JUMP JUMPDEST SWAP3 PUSH2 0x39A JUMP JUMPDEST DUP3 SUB SWAP2 DUP3 GT PUSH2 0x3560 JUMPI JUMP JUMPDEST PUSH2 0x129D JUMP JUMPDEST PUSH4 0x4E487B71 PUSH1 0xE0 SHL PUSH1 0x0 MSTORE PUSH1 0x31 PUSH1 0x4 MSTORE PUSH1 0x24 PUSH1 0x0 REVERT JUMPDEST PUSH2 0x358D SWAP2 PUSH2 0x3587 PUSH2 0x10DE JUMP JUMPDEST SWAP2 PUSH2 0x346A JUMP JUMPDEST JUMP JUMPDEST PUSH2 0x3598 DUP2 PUSH2 0x343D JUMP JUMPDEST DUP1 ISZERO PUSH2 0x35B9 JUMPI PUSH1 0x1 SWAP1 SUB SWAP1 PUSH2 0x35B6 PUSH2 0x35B0 DUP4 DUP4 PUSH2 0x3441 JUMP JUMPDEST SWAP1 PUSH2 0x357B JUMP JUMPDEST SSTORE JUMP JUMPDEST PUSH2 0x3565 JUMP JUMPDEST PUSH2 0x35C6 PUSH2 0xDD4 JUMP JUMPDEST POP PUSH2 0x35DD PUSH2 0x35D8 PUSH1 0x1 DUP4 ADD DUP5 SWAP1 PUSH2 0x34C1 JUMP JUMPDEST PUSH2 0x108C JUMP JUMPDEST SWAP1 DUP2 PUSH2 0x35F2 PUSH2 0x35EC PUSH1 0x0 PUSH2 0x3173 JUMP JUMPDEST SWAP2 PUSH2 0x39A JUMP JUMPDEST EQ ISZERO PUSH1 0x0 EQ PUSH2 0x36C0 JUMPI PUSH2 0x3672 SWAP3 PUSH1 0x1 PUSH2 0x366D SWAP3 DUP5 PUSH2 0x361B PUSH1 0x0 SWAP7 PUSH2 0x3615 DUP6 PUSH2 0x319A JUMP JUMPDEST SWAP1 PUSH2 0x3540 JUMP JUMPDEST PUSH2 0x3638 PUSH2 0x3629 DUP9 DUP6 ADD PUSH2 0x2ED9 JUMP JUMPDEST PUSH2 0x3632 DUP7 PUSH2 0x319A JUMP JUMPDEST SWAP1 PUSH2 0x3540 JUMP JUMPDEST DUP1 PUSH2 0x364B PUSH2 0x3645 DUP5 PUSH2 0x39A JUMP JUMPDEST SWAP2 PUSH2 0x39A JUMP JUMPDEST SUB PUSH2 0x3677 JUMPI JUMPDEST POP POP POP PUSH2 0x3667 PUSH2 0x3662 DUP7 DUP4 ADD PUSH2 0x342F JUMP JUMPDEST PUSH2 0x358F JUMP JUMPDEST ADD PUSH2 0x34C1 JUMP JUMPDEST PUSH2 0x1402 JUMP JUMPDEST PUSH1 0x1 SWAP1 JUMP JUMPDEST PUSH2 0x36B8 SWAP3 PUSH2 0x36AA PUSH2 0x3696 PUSH2 0x3690 PUSH2 0x36B3 SWAP5 DUP13 DUP10 ADD PUSH2 0x2EE8 JUMP JUMPDEST SWAP1 PUSH2 0x2F29 JUMP JUMPDEST SWAP4 PUSH2 0x36A4 DUP6 SWAP2 DUP13 DUP10 ADD PUSH2 0x2EE8 JUMP JUMPDEST SWAP1 PUSH2 0x346A JUMP JUMPDEST SWAP2 DUP6 DUP6 ADD PUSH2 0x34C1 JUMP JUMPDEST PUSH2 0x200C JUMP JUMPDEST CODESIZE DUP1 DUP1 PUSH2 0x3651 JUMP JUMPDEST POP POP POP PUSH1 0x0 SWAP1 JUMP JUMPDEST SWAP1 PUSH2 0x36DF PUSH2 0x36D8 PUSH2 0x36E6 SWAP4 PUSH2 0xFF4 JUMP JUMPDEST PUSH1 0x7 PUSH2 0x102A JUMP JUMPDEST PUSH1 0x8 PUSH2 0x1DE3 JUMP JUMPDEST JUMP JUMPDEST PUSH2 0x36F0 PUSH2 0xDD4 JUMP JUMPDEST POP DUP1 PUSH2 0x370B PUSH2 0x3705 PUSH4 0x7965DB0B PUSH1 0xE0 SHL PUSH2 0x1E8 JUMP JUMPDEST SWAP2 PUSH2 0x1E8 JUMP JUMPDEST EQ SWAP1 DUP2 ISZERO PUSH2 0x3718 JUMPI JUMPDEST POP SWAP1 JUMP JUMPDEST PUSH2 0x3722 SWAP2 POP PUSH2 0x375E JUMP JUMPDEST CODESIZE PUSH2 0x3714 JUMP JUMPDEST PUSH2 0x3746 SWAP2 PUSH1 0x1 PUSH2 0x3741 SWAP3 PUSH2 0x373A PUSH2 0xDD4 JUMP JUMPDEST POP ADD PUSH2 0x34C1 JUMP JUMPDEST PUSH2 0x108C JUMP JUMPDEST PUSH2 0x3759 PUSH2 0x3753 PUSH1 0x0 PUSH2 0x3173 JUMP JUMPDEST SWAP2 PUSH2 0x39A JUMP JUMPDEST EQ ISZERO SWAP1 JUMP JUMPDEST PUSH2 0x3766 PUSH2 0xDD4 JUMP JUMPDEST POP PUSH2 0x3780 PUSH2 0x377A PUSH4 0x1FFC9A7 PUSH1 0xE0 SHL PUSH2 0x1E8 JUMP JUMPDEST SWAP2 PUSH2 0x1E8 JUMP JUMPDEST EQ SWAP1 JUMP INVALID LOG2 PUSH5 0x6970667358 0x22 SLT KECCAK256 CREATE SLOAD 0xAC DUP14 0xDC 0xA7 RETURNDATASIZE CREATE PUSH31 0xFE925C9789862CCBC82A4159F335F2A7D7EBC0D6F5098764736F6C63430008 SHL STOP CALLER "
        },
        "methodIdentifiers": {
          "DEFAULT_ADMIN_ROLE()": "a217fddf",
          "acceptImplicitRequest(address,(address,bytes4,bytes32,bytes32,bytes,(string,uint64)),(address,uint256,bytes,uint256,bool,bool,uint256))": "9d043a66",
          "allowance(address,address)": "dd62ed3e",
          "approve(address,uint256)": "095ea7b3",
          "balanceOf(address)": "70a08231",
          "burn(uint256)": "42966c68",
          "decimals()": "313ce567",
          "decreaseAllowance(address,uint256)": "a457c2d7",
          "getRoleAdmin(bytes32)": "248a9ca3",
          "getRoleMember(bytes32,uint256)": "9010d07c",
          "getRoleMemberCount(bytes32)": "ca15c873",
          "grantRole(bytes32,address)": "2f2ff15d",
          "hasRole(bytes32,address)": "91d14854",
          "increaseAllowance(address,uint256)": "39509351",
          "initialize(address,string,string,uint8,address,bytes32)": "9c14f298",
          "mint(address,uint256)": "40c10f19",
          "name()": "06fdde03",
          "renounceRole(bytes32,address)": "36568abe",
          "revokeRole(bytes32,address)": "d547741f",
          "setImplicitModeProjectId(bytes32)": "ed4c2ac7",
          "setImplicitModeValidator(address)": "0bb310de",
          "setNameAndSymbol(string,string)": "5a446215",
          "supportsInterface(bytes4)": "01ffc9a7",
          "symbol()": "95d89b41",
          "totalSupply()": "18160ddd",
          "transfer(address,uint256)": "a9059cbb",
          "transferFrom(address,address,uint256)": "23b872dd"
        }
      },
      "userdoc": {
        "errors": {
          "InvalidInitialization()": [
            {
              "notice": "Invalid initialization error."
            }
          ]
        },
        "kind": "user",
        "methods": {
          "acceptImplicitRequest(address,(address,bytes4,bytes32,bytes32,bytes,(string,uint64)),(address,uint256,bytes,uint256,bool,bool,uint256))": {
            "notice": "Determines if an implicit request is valid"
          },
          "burn(uint256)": {
            "notice": "Allows the owner of the token to burn their tokens."
          },
          "decimals()": {
            "notice": "Override the ERC20 decimals function."
          },
          "initialize(address,string,string,uint8,address,bytes32)": {
            "notice": "Initialize contract."
          },
          "mint(address,uint256)": {
            "notice": "Mint tokens.This function can only be called by a items."
          },
          "name()": {
            "notice": "Override the ERC20 name function."
          },
          "setImplicitModeProjectId(bytes32)": {
            "notice": "Updates the settings for implicit mode validation.Only callable by an address with the project admin role."
          },
          "setImplicitModeValidator(address)": {
            "notice": "Updates the validator for implicit mode validation.Only callable by an address with the project admin role."
          },
          "setNameAndSymbol(string,string)": {
            "notice": "Set name and symbol of token."
          },
          "supportsInterface(bytes4)": {
            "notice": "Check interface support."
          },
          "symbol()": {
            "notice": "Override the ERC20 symbol function."
          }
        },
        "notice": "A ready made implementation of ERC-20 capable of minting when role provided.",
        "version": 1
      }
    }
  }
}