{
  "src/tokens/ERC721/presets/items/ERC721ItemsFactory.sol": {
    "ERC721ItemsFactory": {
      "abi": [
        {
          "inputs": [
            {
              "internalType": "address",
              "name": "factoryOwner",
              "type": "address"
            }
          ],
          "stateMutability": "nonpayable",
          "type": "constructor"
        },
        {
          "anonymous": false,
          "inputs": [
            {
              "indexed": false,
              "internalType": "address",
              "name": "proxyAddr",
              "type": "address"
            }
          ],
          "name": "ERC721ItemsDeployed",
          "type": "event"
        },
        {
          "anonymous": false,
          "inputs": [
            {
              "indexed": true,
              "internalType": "address",
              "name": "previousOwner",
              "type": "address"
            },
            {
              "indexed": true,
              "internalType": "address",
              "name": "newOwner",
              "type": "address"
            }
          ],
          "name": "OwnershipTransferred",
          "type": "event"
        },
        {
          "inputs": [],
          "name": "beacon",
          "outputs": [
            {
              "internalType": "contract UpgradeableBeacon",
              "name": "",
              "type": "address"
            }
          ],
          "stateMutability": "view",
          "type": "function"
        },
        {
          "inputs": [
            {
              "internalType": "address",
              "name": "proxyOwner",
              "type": "address"
            },
            {
              "internalType": "address",
              "name": "tokenOwner",
              "type": "address"
            },
            {
              "internalType": "string",
              "name": "name",
              "type": "string"
            },
            {
              "internalType": "string",
              "name": "symbol",
              "type": "string"
            },
            {
              "internalType": "string",
              "name": "baseURI",
              "type": "string"
            },
            {
              "internalType": "string",
              "name": "contractURI",
              "type": "string"
            },
            {
              "internalType": "address",
              "name": "royaltyReceiver",
              "type": "address"
            },
            {
              "internalType": "uint96",
              "name": "royaltyFeeNumerator",
              "type": "uint96"
            },
            {
              "internalType": "address",
              "name": "implicitModeValidator",
              "type": "address"
            },
            {
              "internalType": "bytes32",
              "name": "implicitModeProjectId",
              "type": "bytes32"
            }
          ],
          "name": "deploy",
          "outputs": [
            {
              "internalType": "address",
              "name": "proxyAddr",
              "type": "address"
            }
          ],
          "stateMutability": "nonpayable",
          "type": "function"
        },
        {
          "inputs": [
            {
              "internalType": "address",
              "name": "proxyOwner",
              "type": "address"
            },
            {
              "internalType": "address",
              "name": "tokenOwner",
              "type": "address"
            },
            {
              "internalType": "string",
              "name": "name",
              "type": "string"
            },
            {
              "internalType": "string",
              "name": "symbol",
              "type": "string"
            },
            {
              "internalType": "string",
              "name": "baseURI",
              "type": "string"
            },
            {
              "internalType": "string",
              "name": "contractURI",
              "type": "string"
            },
            {
              "internalType": "address",
              "name": "royaltyReceiver",
              "type": "address"
            },
            {
              "internalType": "uint96",
              "name": "royaltyFeeNumerator",
              "type": "uint96"
            },
            {
              "internalType": "address",
              "name": "implicitModeValidator",
              "type": "address"
            },
            {
              "internalType": "bytes32",
              "name": "implicitModeProjectId",
              "type": "bytes32"
            }
          ],
          "name": "determineAddress",
          "outputs": [
            {
              "internalType": "address",
              "name": "proxyAddr",
              "type": "address"
            }
          ],
          "stateMutability": "view",
          "type": "function"
        },
        {
          "inputs": [],
          "name": "owner",
          "outputs": [
            {
              "internalType": "address",
              "name": "",
              "type": "address"
            }
          ],
          "stateMutability": "view",
          "type": "function"
        },
        {
          "inputs": [],
          "name": "renounceOwnership",
          "outputs": [],
          "stateMutability": "nonpayable",
          "type": "function"
        },
        {
          "inputs": [
            {
              "internalType": "address",
              "name": "newOwner",
              "type": "address"
            }
          ],
          "name": "transferOwnership",
          "outputs": [],
          "stateMutability": "nonpayable",
          "type": "function"
        },
        {
          "inputs": [
            {
              "internalType": "address",
              "name": "implementation",
              "type": "address"
            }
          ],
          "name": "upgradeBeacon",
          "outputs": [],
          "stateMutability": "nonpayable",
          "type": "function"
        }
      ],
      "devdoc": {
        "events": {
          "ERC721ItemsDeployed(address)": {
            "params": {
              "proxyAddr": "The address of the deployed proxy."
            }
          }
        },
        "kind": "dev",
        "methods": {
          "constructor": {
            "params": {
              "factoryOwner": "The owner of the ERC-721 Items Factory"
            }
          },
          "deploy(address,address,string,string,string,string,address,uint96,address,bytes32)": {
            "params": {
              "baseURI": "The base URI of the ERC-721 Items proxy",
              "contractURI": "The contract URI of the ERC-721 Items proxy",
              "implicitModeProjectId": "The implicit mode project id",
              "implicitModeValidator": "The implicit mode validator address",
              "name": "The name of the ERC-721 Items proxy",
              "proxyOwner": "The owner of the ERC-721 Items proxy",
              "royaltyFeeNumerator": "The royalty fee numerator in basis points (e.g. 15% would be 1500)",
              "royaltyReceiver": "Address of who should be sent the royalty payment",
              "symbol": "The symbol of the ERC-721 Items proxy",
              "tokenOwner": "The owner of the ERC-721 Items implementation"
            },
            "returns": {
              "proxyAddr": "The address of the ERC-721 Items Proxy"
            }
          },
          "determineAddress(address,address,string,string,string,string,address,uint96,address,bytes32)": {
            "params": {
              "baseURI": "The base URI of the ERC-721 Items proxy",
              "contractURI": "The contract URI of the ERC-721 Items proxy",
              "implicitModeProjectId": "The implicit mode project id",
              "implicitModeValidator": "The implicit mode validator address",
              "name": "The name of the ERC-721 Items proxy",
              "proxyOwner": "The owner of the ERC-721 Items proxy",
              "royaltyFeeNumerator": "The royalty fee numerator in basis points (e.g. 15% would be 1500)",
              "royaltyReceiver": "Address of who should be sent the royalty payment",
              "symbol": "The symbol of the ERC-721 Items proxy",
              "tokenOwner": "The owner of the ERC-721 Items implementation"
            },
            "returns": {
              "proxyAddr": "The address of the ERC-721 Items Proxy"
            }
          },
          "owner()": {
            "details": "Returns the address of the current owner."
          },
          "renounceOwnership()": {
            "details": "Leaves the contract without owner. It will not be possible to call `onlyOwner` functions. Can only be called by the current owner. NOTE: Renouncing ownership will leave the contract without an owner, thereby disabling any functionality that is only available to the owner."
          },
          "transferOwnership(address)": {
            "details": "Transfers ownership of the contract to a new account (`newOwner`). Can only be called by the current owner."
          },
          "upgradeBeacon(address)": {
            "params": {
              "implementation": "The new beacon implementation."
            }
          }
        },
        "version": 1
      },
      "evm": {
        "bytecode": {
          "linkReferences": {},
          "object": "60806040523461002f576100196100146100fa565b610169565b610021610034565b612762610397823961276290f35b61003a565b60405190565b600080fd5b601f801991011690565b634e487b7160e01b600052604160045260246000fd5b906100699061003f565b810190811060018060401b0382111761008157604052565b610049565b90610099610092610034565b928361005f565b565b600080fd5b60018060a01b031690565b6100b4906100a0565b90565b6100c0816100ab565b036100c757565b600080fd5b905051906100d9826100b7565b565b906020828203126100f5576100f2916000016100cc565b90565b61009b565b6101186177378038038061010d81610086565b9283398101906100db565b90565b60000190565b610129610034565b3d6000823e3d90fd5b90565b61014961014461014e926100a0565b610132565b6100a0565b90565b61015a90610135565b90565b61016690610151565b90565b6101716101ca565b610179610034565b61419c810181811060018060401b038211176101c5576101a1829161419c612af9843961011b565b03906000f09081156101c0576101b96101be9261015d565b610265565b565b610121565b610049565b6101d26101d4565b565b6101e46101df6102c7565b610335565b565b6101ef906100ab565b9052565b9190610207906000602085019401906101e6565b565b60001b90565b9061022060018060a01b0391610209565b9181191691161790565b61023390610135565b90565b61023f9061022a565b90565b90565b9061025a61025561026192610236565b610242565b825461020f565b9055565b61026d610034565b90610aa2820182811060018060401b038211176102bd57829161029791610aa2616c9585396101f3565b03906000f09081156102b8576102b16102b6926001610245565b610335565b565b610121565b610049565b600090565b6102cf6102c2565b503390565b60001c90565b60018060a01b031690565b6102f16102f6916102d4565b6102da565b90565b61030390546102e5565b90565b61030f90610151565b90565b90565b9061032a61032561033192610306565b610312565b825461020f565b9055565b61033f60006102f9565b61034a826000610315565b9061037e6103787f8be0079c531659141344cd1fd0a4f28419497f9722a3daafe3b4186f6b6457e093610306565b91610306565b91610387610034565b806103918161011b565b0390a356fe60806040526004361015610013575b6105ab565b61001e60003561008d565b80630defbce9146100885780631bce45831461008357806359659e901461007e578063715018a6146100795780638bdb5fd2146100745780638da5cb5b1461006f5763f2fde38b0361000e57610578565b610543565b610501565b6104ce565b610499565b6103b7565b610350565b60e01c90565b60405190565b600080fd5b600080fd5b600080fd5b60018060a01b031690565b6100bc906100a8565b90565b6100c8816100b3565b036100cf57565b600080fd5b905035906100e1826100bf565b565b600080fd5b600080fd5b601f801991011690565b634e487b7160e01b600052604160045260246000fd5b90610117906100ed565b810190811067ffffffffffffffff82111761013157604052565b6100f7565b90610149610142610093565b928361010d565b565b67ffffffffffffffff8111610169576101656020916100ed565b0190565b6100f7565b90826000939282370152565b9092919261018f61018a8261014b565b610136565b938185526020850190828401116101ab576101a99261016e565b565b6100e8565b9080601f830112156101ce578160206101cb9335910161017a565b90565b6100e3565b6bffffffffffffffffffffffff1690565b6101ed816101d3565b036101f457565b600080fd5b90503590610206826101e4565b565b90565b61021481610208565b0361021b57565b600080fd5b9050359061022d8261020b565b565b610140818303126103285761024782600083016100d4565b9261025583602084016100d4565b92604083013567ffffffffffffffff811161032357816102769185016101b0565b92606081013567ffffffffffffffff811161031e57826102979183016101b0565b92608082013567ffffffffffffffff811161031957836102b89184016101b0565b9260a083013567ffffffffffffffff811161031457816102d99185016101b0565b926102e78260c083016100d4565b926103116102f88460e085016101f9565b936103078161010086016100d4565b9361012001610220565b90565b6100a3565b6100a3565b6100a3565b6100a3565b61009e565b610336906100b3565b9052565b919061034e9060006020850194019061032d565b565b3461038d5761038961037861036636600461022f565b98979097969196959295949394610756565b610380610093565b9182918261033a565b0390f35b610099565b906020828203126103ac576103a9916000016100d4565b90565b61009e565b60000190565b346103e5576103cf6103ca366004610392565b61096f565b6103d7610093565b806103e1816103b1565b0390f35b610099565b60009103126103f557565b61009e565b1c90565b60018060a01b031690565b61041990600861041e93026103fa565b6103fe565b90565b9061042c9154610409565b90565b61043c6001600090610421565b90565b90565b61045661045161045b926100a8565b61043f565b6100a8565b90565b61046790610442565b90565b6104739061045e565b90565b61047f9061046a565b9052565b919061049790600060208501940190610476565b565b346104c9576104a93660046103ea565b6104c56104b461042f565b6104bc610093565b91829182610483565b0390f35b610099565b346104fc576104de3660046103ea565b6104e66109cb565b6104ee610093565b806104f8816103b1565b0390f35b610099565b3461053e5761053a61052961051736600461022f565b989790979691969592959493946109d5565b610531610093565b9182918261033a565b0390f35b610099565b34610573576105533660046103ea565b61056f61055e610a6e565b610566610093565b9182918261033a565b0390f35b610099565b346105a65761059061058b366004610392565b610b72565b610598610093565b806105a2816103b1565b0390f35b610099565b600080fd5b600090565b5190565b60209181520190565b60005b8381106105d6575050906000910152565b8060209183015181850152016105c5565b61060661060f602093610614936105fd816105b5565b938480936105b9565b958691016105c2565b6100ed565b0190565b610621906101d3565b9052565b61062e90610208565b9052565b946106a56106b0916106976106c4976106896101009b9f9e9c969861067a6106cb9f9a6106ba9a8e61066d610120820193600083019061032d565b60208184039101526105e7565b908c60408184039101526105e7565b908a820360608c01526105e7565b9088820360808a01526105e7565b9a60a087019061032d565b60c0850190610618565b60e083019061032d565b0190610625565b565b60200190565b5190565b906106e96106e48361014b565b610136565b918252565b6106f860006106d7565b90565b6107036106ee565b90565b61070f90610442565b90565b61071b90610706565b90565b6107279061045e565b90565b600080fd5b60e01b90565b600091031261074057565b61009e565b61074d610093565b3d6000823e3d90fd5b6107c990846107a7856107988c8e9f809c9a9f9d9b98999d6107766105b0565b508a9496928d8d8c90919293949561078c610093565b9a8b9960208b01610632565b6020820181038252038261010d565b6107b96107b3826106d3565b916106cd565b20906107c36106fb565b91610cf6565b986107db6107d68b610712565b61071e565b95634c62cd9b93979992949598919091873b1561089d57600099610813978b9761081e96610807610093565b9e8f9d8e9c8d9b61072f565b8b5260048b01610632565b03925af180156108985761086b575b50806108657fd8ad75647a93de9d8d617559d87f1c27bc23fb6237b94054baf34aafbe85ad039161085c610093565b9182918261033a565b0390a190565b61088b9060003d8111610891575b610883818361010d565b810190610735565b3861082d565b503d610879565b610745565b61072a565b6108b3906108ae610eb8565b6108dc565b565b60001c90565b6108c76108cc916108b5565b6103fe565b90565b6108d990546108bb565b90565b6108ee6108e960016108cf565b61046a565b90633659cfe690823b1561096a576109269261091b6000809461090f610093565b9687958694859361072f565b83526004830161033a565b03925af1801561096557610938575b50565b6109589060003d811161095e575b610950818361010d565b810190610735565b38610935565b503d610946565b610745565b61072a565b610978906108a2565b565b610982610eb8565b61098a6109b7565b565b90565b6109a361099e6109a89261098c565b61043f565b6100a8565b90565b6109b49061098f565b90565b6109c96109c460006109ab565b610f34565b565b6109d361097a565b565b979096610a1d96610a3f9a9396610a0e9695996109f06105b0565b50979995909192939495610a02610093565b9a8b9960208b01610632565b6020820181038252038261010d565b610a2f610a29826106d3565b916106cd565b2090610a396106fb565b91610f95565b90565b60018060a01b031690565b610a59610a5e916108b5565b610a42565b90565b610a6b9054610a4d565b90565b610a766105b0565b50610a816000610a61565b90565b610a9590610a90610eb8565b610b41565b565b60207f6464726573730000000000000000000000000000000000000000000000000000917f4f776e61626c653a206e6577206f776e657220697320746865207a65726f206160008201520152565b610af260266040926105b9565b610afb81610a97565b0190565b610b159060208101906000818303910152610ae5565b90565b15610b1f57565b610b27610093565b62461bcd60e51b815280610b3d60048201610aff565b0390fd5b610b7090610b6b81610b64610b5e610b5960006109ab565b6100b3565b916100b3565b1415610b18565b610f34565b565b610b7b90610a84565b565b90565b610b8c610b9191610208565b610b7d565b9052565b60601b90565b610ba490610b95565b90565b610bb090610b9b565b90565b610bbf610bc4916100b3565b610ba7565b9052565b905090565b610bf2610be992602092610be0816106d3565b94858093610bc8565b938491016105c2565b0190565b60148093610c1a602084610c12610c2296610c299b9a98610b80565b018092610bb3565b018092610bb3565b0190610bcd565b90565b90565b610c43610c3e610c489261098c565b61043f565b610c2c565b90565b610c5490610442565b90565b610c6090610c4b565b90565b610c6c90610442565b90565b610c7890610c63565b90565b610c849061045e565b90565b60209181520190565b610caf610cb8602093610cbd93610ca6816106d3565b93848093610c87565b958691016105c2565b6100ed565b0190565b610ce6610cf3949293610cdc6060840195600085019061032d565b602083019061032d565b6040818403910152610c90565b90565b610d869093929193610d066105b0565b50610d468591610d37610d21610d1c60016108cf565b61046a565b8690610d2b610093565b95869460208601610bf6565b6020820181038252038261010d565b610d58610d52826106d3565b916106cd565b2061148a610d6860208201610136565b908082526112a36020830139610d816000929192610c2f565b6111c2565b92610da0610d9b610d9686610c57565b610c6f565b610c7b565b63cf7a1d779190610db9610db460016108cf565b61046a565b9392813b15610e30576000610de191610dec8296610dd5610093565b9889978896879561072f565b855260048501610cc1565b03925af18015610e2b57610dfe575b50565b610e1e9060003d8111610e24575b610e16818361010d565b810190610735565b38610dfb565b503d610e0c565b610745565b61072a565b60007f4f776e61626c653a2063616c6c6572206973206e6f7420746865206f776e6572910152565b610e69602080926105b9565b610e7281610e35565b0190565b610e8c9060208101906000818303910152610e5d565b90565b15610e9657565b610e9e610093565b62461bcd60e51b815280610eb460048201610e76565b0390fd5b610ee2610ec3610a6e565b610edc610ed6610ed161124b565b6100b3565b916100b3565b14610e8f565b565b60001b90565b90610efb60018060a01b0391610ee4565b9181191691161790565b610f0e9061045e565b90565b90565b90610f29610f24610f3092610f05565b610f11565b8254610eea565b9055565b610f3e6000610a61565b610f49826000610f14565b90610f7d610f777f8be0079c531659141344cd1fd0a4f28419497f9722a3daafe3b4186f6b6457e093610f05565b91610f05565b91610f86610093565b80610f90816103b1565b0390a3565b6110289291610fd2610fe192610fa96105b0565b509193610fbe610fb960016108cf565b61046a565b610fc6610093565b95869460208601610bf6565b6020820181038252038261010d565b610ff3610fed826106d3565b916106cd565b2061148a61100360208201610136565b908082526112a3602083013961102161101b826106d3565b916106cd565b2090611258565b90565b6110349061045e565b90565b60007f437265617465323a20696e73756666696369656e742062616c616e6365000000910152565b61106c601d6020926105b9565b61107581611037565b0190565b61108f906020810190600081830391015261105f565b90565b1561109957565b6110a1610093565b62461bcd60e51b8152806110b760048201611079565b0390fd5b60007f437265617465323a2062797465636f6465206c656e677468206973207a65726f910152565b6110ef602080926105b9565b6110f8816110bb565b0190565b61111290602081019060008183039101526110e3565b90565b1561111c57565b611124610093565b62461bcd60e51b81528061113a600482016110fc565b0390fd5b60007f437265617465323a204661696c6564206f6e206465706c6f7900000000000000910152565b61117360196020926105b9565b61117c8161113e565b0190565b6111969060208101906000818303910152611166565b90565b156111a057565b6111a8610093565b62461bcd60e51b8152806111be60048201611180565b0390fd5b9190916111cd6105b0565b506111f46111da3061102b565b316111ed6111e784610c2c565b91610c2c565b1015611092565b61121a611200836106d3565b61121361120d6000610c2f565b91610c2c565b1415611115565b60208251920190f5906112498261124261123c61123760006109ab565b6100b3565b916100b3565b1415611199565b565b6112536105b0565b503390565b90611276916112656105b0565b50906112703061102b565b91611279565b90565b90605592600b926112886105b0565b50604051926040840152602083015281520160ff8153209056fe608060405234601c57600e6020565b61145e61002c823961145e90f35b6026565b60405190565b600080fdfe6080604052361561006b5761006b565b90565b60018060a01b031690565b90565b61003461002f6100399261000f565b61001d565b610012565b90565b61004590610020565b90565b61005190610012565b90565b606090565b63ffffffff60e01b1690565b60000190565b61007361017e565b61008e610088610083600061003c565b610048565b91610048565b0361046c5761009b610054565b5063ffffffff60e01b600035166100c16100bb63cf7a1d7760e01b610059565b91610059565b146100e357600063f92ee8a960e01b8152806100df60048201610065565b0390fd5b6100eb610401565b602081519101f35b600090565b90565b90565b60001b90565b61011861011361011d926100f8565b6100fe565b6100fb565b90565b6101497fb53127684a568b3173ae13b9f8a6016e243e63b6e8ee1178d6a717850b5d6103610104565b90565b60001c90565b60018060a01b031690565b61016961016e9161014c565b610152565b90565b61017b905461015d565b90565b6101866100f3565b506101a2600061019c610197610120565b6105a2565b01610171565b90565b90565b90565b6101bf6101ba6101c4926101a5565b61001d565b6101a8565b90565b60405190565b600080fd5b600080fd5b909392938483116101f75784116101f2576001820201920390565b6101d2565b6101cd565b91565b600080fd5b600080fd5b61021290610012565b90565b61021e81610209565b0361022557565b600080fd5b9050359061023782610215565b565b600080fd5b600080fd5b601f801991011690565b634e487b7160e01b600052604160045260246000fd5b9061026d90610243565b810190811067ffffffffffffffff82111761028757604052565b61024d565b9061029f6102986101c7565b9283610263565b565b67ffffffffffffffff81116102bf576102bb602091610243565b0190565b61024d565b90826000939282370152565b909291926102e56102e0826102a1565b61028c565b93818552602085019082840111610301576102ff926102c4565b565b61023e565b9080601f8301121561032457816020610321933591016102d0565b90565b610239565b9160608383031261037657610341826000850161022a565b9261034f836020830161022a565b92604082013567ffffffffffffffff81116103715761036e9201610306565b90565b610204565b6101ff565b61038f61038a61039492610012565b61001d565b610012565b90565b6103a09061037b565b90565b6103ac90610397565b90565b67ffffffffffffffff81116103cd576103c9602091610243565b0190565b61024d565b906103e46103df836103af565b61028c565b918252565b6103f360006103d2565b90565b6103fe6103e9565b90565b610409610054565b506104126105cd565b61046161045761045161044761043f61043960003661043160046101ab565b9080926101d7565b906101fc565b810190610329565b93919290926103a3565b916103a3565b91909190916105ec565b6104696103f6565b90565b3361048661048061047b61017e565b610048565b91610048565b1460001461059d57610496610054565b5063ffffffff60e01b60003516806104bd6104b7631b2ce7f360e11b610059565b91610059565b146000146104d757506104ce610817565b5b602081519101f35b806104f16104eb63278f794360e11b610059565b91610059565b1460001461050857506105026107c1565b5b6104cf565b8061052261051c6308f2839760e41b610059565b91610059565b146000146105395750610533610723565b5b610503565b8061055361054d6303e1469160e61b610059565b91610059565b1460001461056a57506105646106bf565b5b610534565b61058361057d635c60da1b60e01b610059565b91610059565b146000146105985761059361067a565b610565565b61064a565b61064a565b90565b6105b96105b46105be9261000f565b61001d565b6101a8565b90565b156105c857565b600080fd5b6105ea346105e46105de60006105a5565b916101a8565b146105c1565b565b91906105f661087a565b61061161060b610606600061003c565b610048565b91610048565b0361062d5761062261062b936108b2565b9060009161098d565b565b600063f92ee8a960e01b81528061064660048201610065565b0390fd5b610652610aa6565b610ae7565b61066090610048565b9052565b919061067890600060208501940190610657565b565b610682610054565b5061068b6105cd565b6106ad6106bc610699610aa6565b6106a16101c7565b92839160208301610664565b60208201810382520382610263565b90565b6106c7610054565b506106d06105cd565b6106f26107016106de61017e565b6106e66101c7565b92839160208301610664565b60208201810382520382610263565b90565b9060208282031261071e5761071b9160000161022a565b90565b6101ff565b61072b610054565b506107346105cd565b61077061076b61076661075e61075860003661075060046101ab565b9080926101d7565b906101fc565b810190610704565b6103a3565b6108b2565b6107786103f6565b90565b9190916040818403126107bc57610795836000830161022a565b92602082013567ffffffffffffffff81116107b7576107b49201610306565b90565b610204565b6101ff565b6107c9610054565b5061080c6108036107fc6107f46107ee6000366107e660046101ab565b9080926101d7565b906101fc565b81019061077b565b91906103a3565b90600191610b0a565b6108146103f6565b90565b61081f610054565b506108286105cd565b61086f61085f61085a61085261084c60003661084460046101ab565b9080926101d7565b906101fc565b810190610704565b6103a3565b6108676103f6565b600091610b0a565b6108776103f6565b90565b6108826100f3565b5061088b61017e565b90565b9160206108b09294936108a960408201966000830190610657565b0190610657565b565b6108fd906108be61017e565b817f7e644d79422f17c01e4894b5f4f588d331ebfa28653d42ae832dc59e38c9798f916108f56108ec6101c7565b9283928361088e565b0390a1610c4d565b565b61090890610397565b90565b5190565b6109189061037b565b90565b6109249061090f565b90565b61093090610397565b90565b60e01b90565b61094281610048565b0361094957565b600080fd5b9050519061095b82610939565b565b90602082820312610977576109749160000161094e565b90565b6101ff565b6109846101c7565b3d6000823e3d90fd5b9161099783610e30565b826109c27f1cf3b03a6cf19fa2baba4df148e9dcabedea7f8a5c07840e207e5c089be95d3e916108ff565b906109cb6101c7565b806109d581610065565b0390a26109e18261090b565b6109f46109ee60006105a5565b916101a8565b11908115610a9e575b50610a07575b5050565b6020610a1d610a18610a339461091b565b610927565b635c60da1b90610a2b6101c7565b948592610933565b82528180610a4360048201610065565b03915afa908115610a9957610a6192600092610a69575b5090610f65565b503880610a03565b610a8b91925060203d8111610a92575b610a838183610263565b81019061095d565b9038610a5a565b503d610a79565b61097c565b9050386109fd565b610aae6100f3565b50610ab7610f85565b80610ad3610acd610ac8600061003c565b610048565b91610048565b03610ae45750610ae1610f99565b90565b90565b60008091368280378136915af43d6000803e600014610b05573d6000f35b3d6000fd5b91610b148361102f565b610b1d8261090b565b610b30610b2a60006105a5565b916101a8565b11908115610b54575b50610b43575b5050565b610b4c91610f65565b503880610b3f565b905038610b39565b60209181520190565b60207f6464726573730000000000000000000000000000000000000000000000000000917f455243313936373a206e65772061646d696e20697320746865207a65726f206160008201520152565b610bc06026604092610b5c565b610bc981610b65565b0190565b610be39060208101906000818303910152610bb3565b90565b15610bed57565b610bf56101c7565b62461bcd60e51b815280610c0b60048201610bcd565b0390fd5b90610c2060018060a01b03916100fe565b9181191691161790565b90565b90610c42610c3d610c49926108ff565b610c2a565b8254610c0f565b9055565b610c8f90610c7781610c70610c6a610c65600061003c565b610048565b91610048565b1415610be6565b6000610c89610c84610120565b6105a2565b01610c2d565b565b60207f7472616374000000000000000000000000000000000000000000000000000000917f455243313936373a206e657720626561636f6e206973206e6f74206120636f6e60008201520152565b610cec6025604092610b5c565b610cf581610c91565b0190565b610d0f9060208101906000818303910152610cdf565b90565b15610d1957565b610d216101c7565b62461bcd60e51b815280610d3760048201610cf9565b0390fd5b60207f73206e6f74206120636f6e747261637400000000000000000000000000000000917f455243313936373a20626561636f6e20696d706c656d656e746174696f6e206960008201520152565b610d966030604092610b5c565b610d9f81610d3b565b0190565b610db99060208101906000818303910152610d89565b90565b15610dc357565b610dcb6101c7565b62461bcd60e51b815280610de160048201610da3565b0390fd5b90565b610dfc610df7610e0192610de5565b6100fe565b6100fb565b90565b610e2d7fa3f0ad74e5423aebfd80d3ef4346578335a9a72aeaee59ff6cb3582b35133d50610de8565b90565b610e6e90610e45610e408261107f565b610d12565b6020610e58610e538361091b565b610927565b635c60da1b90610e666101c7565b948592610933565b82528180610e7e60048201610065565b03915afa8015610eee57610ea1610ea691610ebe94600091610ec0575b5061107f565b610dbc565b6000610eb8610eb3610e04565b6105a2565b01610c2d565b565b610ee1915060203d8111610ee7575b610ed98183610263565b81019061095d565b38610e9b565b503d610ecf565b61097c565b60207f206661696c656400000000000000000000000000000000000000000000000000917f416464726573733a206c6f772d6c6576656c2064656c65676174652063616c6c60008201520152565b610f4b60276103d2565b90610f5860208301610ef3565b565b610f62610f41565b90565b90610f8291610f72610054565b5090610f7c610f5a565b916110e2565b90565b610f8d6100f3565b50610f96611160565b90565b610fa16100f3565b50610fd56020610fbf610fba610fb5611187565b61091b565b610927565b635c60da1b90610fcd6101c7565b938492610933565b82528180610fe560048201610065565b03915afa90811561102a57600091610ffc575b5090565b61101d915060203d8111611023575b6110158183610263565b81019061095d565b38610ff8565b503d61100b565b61097c565b61103881611258565b6110627fbc7cd75a20ee27fd9adebab32041f755214dbc6bffa90cc0225b39da2e5c2d3b916108ff565b9061106b6101c7565b8061107581610065565b0390a2565b600090565b61108761107a565b503b61109c61109660006105a5565b916101a8565b1190565b906110b26110ad836102a1565b61028c565b918252565b3d6000146110d4576110c83d6110a0565b903d6000602084013e5b565b6110dc610054565b906110d2565b9091600080611112946110f3610054565b508490602081019051915af4916111086110b7565b909290919261130b565b90565b90565b61112c61112761113192611115565b6100fe565b6100fb565b90565b61115d7f360894a13ba1a3210667c828492db98dca3e2076cc3735a920a3ca505d382bbc611118565b90565b6111686100f3565b50611184600061117e611179611134565b6105a2565b01610171565b90565b61118f6100f3565b506111ab60006111a56111a0610e04565b6105a2565b01610171565b90565b60207f6f74206120636f6e747261637400000000000000000000000000000000000000917f455243313936373a206e657720696d706c656d656e746174696f6e206973206e60008201520152565b611209602d604092610b5c565b611212816111ae565b0190565b61122c90602081019060008183039101526111fc565b90565b1561123657565b61123e6101c7565b62461bcd60e51b81528061125460048201611216565b0390fd5b6112859061126d6112688261107f565b61122f565b600061127f61127a611134565b6105a2565b01610c2d565b565b60007f416464726573733a2063616c6c20746f206e6f6e2d636f6e7472616374000000910152565b6112bc601d602092610b5c565b6112c581611287565b0190565b6112df90602081019060008183039101526112af565b90565b156112e957565b6112f16101c7565b62461bcd60e51b815280611307600482016112c9565b0390fd5b919290611316610054565b5060001461135c57506113288261090b565b61133b61133560006105a5565b916101a8565b14611345575b5090565b6113516113569161107f565b6112e2565b38611341565b826113d5565b5190565b60005b83811061137a575050906000910152565b806020918301518185015201611369565b6113aa6113b36020936113b8936113a181611362565b93848093610b5c565b95869101611366565b610243565b0190565b6113d2916020820191600081840391015261138b565b90565b906113df8261090b565b6113f26113ec60006105a5565b916101a8565b116000146114035750805190602001fd5b6114249061140f6101c7565b91829162461bcd60e51b8352600483016113bc565b0390fdfea2646970667358221220fb1899e61f38faa78bfbab79b8dc2fa613357c2fce2699411f9fee80b624365564736f6c634300081b0033a26469706673582212203b72369d1d46611771220d986b45a922fa914be16aa4d3dbc40e20507531653264736f6c634300081b003360a060405234602b57600e603a565b6014602f565b61415b610041823960805181611ef7015261415b90f35b6035565b60405190565b600080fd5b3360805256fe60806040526004361015610013575b61134c565b61001e60003561026d565b806301ffc9a71461026857806304634d8d1461026357806306fdde031461025e578063081812fc14610259578063095ea7b3146102545780630bb310de1461024f57806318160ddd1461024a57806323b872dd14610245578063248a9ca3146102405780632a55205a1461023b5780632e73e0fd146102365780632f2ff15d1461023157806336568abe1461022c57806340c10f191461022757806342842e0e1461022257806342966c681461021d5780634c62cd9b146102185780635944c753146102135780635a4462151461020e5780636352211e1461020957806370a08231146102045780637e518ec8146101ff5780639010d07c146101fa57806391d14854146101f5578063938e3d7b146101f057806395d89b41146101eb5780639d043a66146101e6578063a217fddf146101e1578063a22cb465146101dc578063b88d4fde146101d7578063c87b56dd146101d2578063ca15c873146101cd578063d547741f146101c8578063dc8e92ea146101c3578063e8a3d485146101be578063e985e9c5146101b95763ed4c2ac70361000e57611319565b6112e3565b611280565b61124d565b61114c565b611117565b6110e2565b6110b5565b610fd7565b610f50565b610edd565b610e13565b610de0565b610daa565b610d74565b610d13565b610ca8565b610c73565b610c3f565b610bad565b610b35565b61092b565b610901565b6108cd565b610899565b610865565b610803565b6107cc565b610745565b6106b2565b610642565b6105ec565b6105a3565b610540565b6104a2565b6103d8565b6102ff565b60e01c90565b60405190565b600080fd5b600080fd5b600080fd5b63ffffffff60e01b1690565b61029d81610288565b036102a457565b600080fd5b905035906102b682610294565b565b906020828203126102d2576102cf916000016102a9565b90565b61027e565b151590565b6102e5906102d7565b9052565b91906102fd906000602085019401906102dc565b565b3461032f5761032b61031a6103153660046102b8565b611356565b610322610273565b918291826102e9565b0390f35b610279565b60018060a01b031690565b61034890610334565b90565b6103548161033f565b0361035b57565b600080fd5b9050359061036d8261034b565b565b6bffffffffffffffffffffffff1690565b6103898161036f565b0361039057565b600080fd5b905035906103a282610380565b565b91906040838203126103cd57806103c16103ca9260008601610360565b93602001610395565b90565b61027e565b60000190565b34610407576103f16103eb3660046103a4565b906113e2565b6103f9610273565b80610403816103d2565b0390f35b610279565b600091031261041757565b61027e565b5190565b60209181520190565b60005b83811061043d575050906000910152565b80602091830151818501520161042c565b601f801991011690565b6104776104806020936104859361046e8161041c565b93848093610420565b95869101610429565b61044e565b0190565b61049f9160208201916000818403910152610458565b90565b346104d2576104b236600461040c565b6104ce6104bd611511565b6104c5610273565b91829182610489565b0390f35b610279565b90565b6104e3816104d7565b036104ea57565b600080fd5b905035906104fc826104da565b565b9060208282031261051857610515916000016104ef565b90565b61027e565b6105269061033f565b9052565b919061053e9060006020850194019061051d565b565b346105705761056c61055b6105563660046104fe565b61152c565b610563610273565b9182918261052a565b0390f35b610279565b919060408382031261059e578061059261059b9260008601610360565b936020016104ef565b90565b61027e565b6105b76105b1366004610575565b9061156f565b6105bf610273565b806105c9816103d2565b0390f35b906020828203126105e7576105e491600001610360565b90565b61027e565b3461061a576106046105ff3660046105cd565b611653565b61060c610273565b80610616816103d2565b0390f35b610279565b610628906104d7565b9052565b91906106409060006020850194019061061f565b565b346106725761065236600461040c565b61066e61065d61168d565b610665610273565b9182918261062c565b0390f35b610279565b90916060828403126106ad576106aa6106938460008501610360565b936106a18160208601610360565b936040016104ef565b90565b61027e565b6106c66106c0366004610677565b916116a3565b6106ce610273565b806106d8816103d2565b0390f35b90565b6106e8816106dc565b036106ef57565b600080fd5b90503590610701826106df565b565b9060208282031261071d5761071a916000016106f4565b90565b61027e565b61072b906106dc565b9052565b919061074390600060208501940190610722565b565b346107755761077161076061075b366004610703565b6117ed565b610768610273565b9182918261072f565b0390f35b610279565b91906040838203126107a357806107976107a092600086016104ef565b936020016104ef565b90565b61027e565b9160206107ca9294936107c36040820196600083019061051d565b019061061f565b565b346107fe576107e56107df36600461077a565b906119f6565b906107fa6107f1610273565b928392836107a8565b0390f35b610279565b346108325761081c610816366004610575565b90611c60565b610824610273565b8061082e816103d2565b0390f35b610279565b9190604083820312610860578061085461085d92600086016106f4565b93602001610360565b90565b61027e565b346108945761087e610878366004610837565b90611c95565b610886610273565b80610890816103d2565b0390f35b610279565b346108c8576108b26108ac366004610837565b90611d4b565b6108ba610273565b806108c4816103d2565b0390f35b610279565b346108fc576108e66108e0366004610575565b90611df7565b6108ee610273565b806108f8816103d2565b0390f35b610279565b61091561090f366004610677565b91611e32565b61091d610273565b80610927816103d2565b0390f35b346109595761094361093e3660046104fe565b611e6d565b61094b610273565b80610955816103d2565b0390f35b610279565b600080fd5b600080fd5b634e487b7160e01b600052604160045260246000fd5b906109889061044e565b810190811067ffffffffffffffff8211176109a257604052565b610968565b906109ba6109b3610273565b928361097e565b565b67ffffffffffffffff81116109da576109d660209161044e565b0190565b610968565b90826000939282370152565b90929192610a006109fb826109bc565b6109a7565b93818552602085019082840111610a1c57610a1a926109df565b565b610963565b9080601f83011215610a3f57816020610a3c933591016109eb565b90565b61095e565b909161012082840312610b3057610a5e8360008401610360565b92602083013567ffffffffffffffff8111610b2b5781610a7f918501610a21565b92604081013567ffffffffffffffff8111610b265782610aa0918301610a21565b92606082013567ffffffffffffffff8111610b215783610ac1918401610a21565b92608083013567ffffffffffffffff8111610b1c5781610ae2918501610a21565b92610af08260a08301610360565b92610b19610b018460c08501610395565b93610b0f8160e08601610360565b93610100016106f4565b90565b610283565b610283565b610283565b610283565b61027e565b34610b6d57610b57610b48366004610a44565b97969096959195949294611ee5565b610b5f610273565b80610b69816103d2565b0390f35b610279565b9091606082840312610ba857610ba5610b8e84600085016104ef565b93610b9c8160208601610360565b93604001610395565b90565b61027e565b34610bdc57610bc6610bc0366004610b72565b91611fc0565b610bce610273565b80610bd8816103d2565b0390f35b610279565b919091604081840312610c3a57600081013567ffffffffffffffff8111610c355783610c0e918301610a21565b92602082013567ffffffffffffffff8111610c3057610c2d9201610a21565b90565b610283565b610283565b61027e565b34610c6e57610c58610c52366004610be1565b9061220f565b610c60610273565b80610c6a816103d2565b0390f35b610279565b34610ca357610c9f610c8e610c893660046104fe565b61221b565b610c96610273565b9182918261052a565b0390f35b610279565b34610cd857610cd4610cc3610cbe3660046105cd565b612244565b610ccb610273565b9182918261062c565b0390f35b610279565b90602082820312610d0e57600082013567ffffffffffffffff8111610d0957610d069201610a21565b90565b610283565b61027e565b34610d4157610d2b610d26366004610cdd565b6122aa565b610d33610273565b80610d3d816103d2565b0390f35b610279565b9190604083820312610d6f5780610d63610d6c92600086016106f4565b936020016104ef565b90565b61027e565b34610da557610da1610d90610d8a366004610d46565b906122d0565b610d98610273565b9182918261052a565b0390f35b610279565b34610ddb57610dd7610dc6610dc0366004610837565b90612328565b610dce610273565b918291826102e9565b0390f35b610279565b34610e0e57610df8610df3366004610cdd565b61237b565b610e00610273565b80610e0a816103d2565b0390f35b610279565b34610e4357610e2336600461040c565b610e3f610e2e612386565b610e36610273565b91829182610489565b0390f35b610279565b600080fd5b908160c0910312610e5b5790565b610e48565b908160e0910312610e6e5790565b610e48565b91606083830312610ed857610e8b8260008501610360565b92602081013567ffffffffffffffff8111610ed35783610eac918301610e4d565b92604082013567ffffffffffffffff8111610ece57610ecb9201610e60565b90565b610283565b610283565b61027e565b34610f0e57610f0a610ef9610ef3366004610e73565b916126ef565b610f01610273565b9182918261072f565b0390f35b610279565b90565b60001b90565b610f30610f2b610f3592610f13565b610f16565b6106dc565b90565b610f426000610f1c565b90565b610f4d610f38565b90565b34610f8057610f6036600461040c565b610f7c610f6b610f45565b610f73610273565b9182918261072f565b0390f35b610279565b610f8e816102d7565b03610f9557565b600080fd5b90503590610fa782610f85565b565b9190604083820312610fd25780610fc6610fcf9260008601610360565b93602001610f9a565b90565b61027e565b3461100657610ff0610fea366004610fa9565b90612790565b610ff8610273565b80611002816103d2565b0390f35b610279565b600080fd5b600080fd5b909182601f8301121561104f5781359167ffffffffffffffff831161104a57602001926001830284011161104557565b611010565b61100b565b61095e565b906080828203126110b05761106c8160008401610360565b9261107a8260208501610360565b9261108883604083016104ef565b92606082013567ffffffffffffffff81116110ab576110a79201611015565b9091565b610283565b61027e565b6110cc6110c3366004611054565b93929092612847565b6110d4610273565b806110de816103d2565b0390f35b346111125761110e6110fd6110f83660046104fe565b6128a7565b611105610273565b91829182610489565b0390f35b610279565b346111475761114361113261112d366004610703565b612940565b61113a610273565b9182918261062c565b0390f35b610279565b3461117b5761116561115f366004610837565b90612990565b61116d610273565b80611177816103d2565b0390f35b610279565b67ffffffffffffffff81116111985760208091020190565b610968565b909291926111b26111ad82611180565b6109a7565b93818552602080860192028301928184116111ef57915b8383106111d65750505050565b602080916111e484866104ef565b8152019201916111c9565b611010565b9080601f830112156112125781602061120f9335910161119d565b90565b61095e565b9060208282031261124857600082013567ffffffffffffffff81116112435761124092016111f4565b90565b610283565b61027e565b3461127b57611265611260366004611217565b6129e3565b61126d610273565b80611277816103d2565b0390f35b610279565b346112b05761129036600461040c565b6112ac61129b612a43565b6112a3610273565b91829182610489565b0390f35b610279565b91906040838203126112de57806112d26112db9260008601610360565b93602001610360565b90565b61027e565b34611314576113106112ff6112f93660046112b5565b90612a59565b611307610273565b918291826102e9565b0390f35b610279565b346113475761133161132c366004610703565b612ad2565b611339610273565b80611343816103d2565b0390f35b610279565b600080fd5b600090565b61135e611351565b506376a4e23960e01b61137961137383610288565b91610288565b14908115611386575b5090565b6113909150612add565b38611382565b7f6db4061a20ca83a3be756ee172bd37a029093ac5afe4ce968c6d5435b43cb01190565b906113d4916113cf6113ca611396565b612b21565b6113d6565b565b906113e091612d3b565b565b906113ec916113ba565b565b606090565b634e487b7160e01b600052602260045260246000fd5b9060016002830492168015611429575b602083101461142457565b6113f3565b91607f1691611419565b60209181520190565b600052602060002090565b906000929180549061146261145b83611409565b8094611433565b916001811690816000146114bb575060011461147e575b505050565b61148b919293945061143c565b916000925b8184106114a35750500190388080611479565b60018160209295939554848601520191019290611490565b92949550505060ff1916825215156020020190388080611479565b906114e091611447565b90565b906115036114fc926114f3610273565b938480926114d6565b038361097e565b565b61150e906114e3565b90565b6115196113ee565b506115246007611505565b90565b600090565b611534611527565b5080600052673ec412a9852d173d60c11b601c526020600020810101805460601b15611561576001015490565b63ceea21b66000526004601cfd5b61157c9133919091612db5565b565b7f70649ec320b507febad3e8ef750e5f580b9ae32f9f50d4c7b121332c8197153090565b6115bb906115b66115b161157e565b612b21565b61163e565b565b90565b6115d46115cf6115d992610334565b6115bd565b610334565b90565b6115e5906115c0565b90565b6115f1906115dc565b90565b9061160560018060a01b0391610f16565b9181191691161790565b611618906115dc565b90565b90565b9061163361162e61163a9261160f565b61161b565b82546115f4565b9055565b61164a611651916115e8565b600461161e565b565b61165c906115a2565b565b600090565b60001c90565b90565b61167861167d91611663565b611669565b90565b61168a905461166c565b90565b61169561165e565b506116a0600c611680565b90565b9060001960601c918216908216918360005233673ec412a9852d173d60c11b17601c5260206000208401840190815480911683811481021561178b57508260005281600101548033148433141715611773575b611767575b838318189055601c600c206001815403905581600052601c600c2060018154019063ffffffff821684021561175257557fddf252ad1be2c89b69c2b068fc378daa952ba7f163c4a11628f55a4df523b3ef600038a4565b67ea553b3401336cea841560021b526004601cfd5b600082600101556116fb565b6030600c20546116f657634b6e7f186000526004601cfd5b67ceea21b6a1148100901560021b526004601cfd5b600090565b6117ae906106dc565b90565b906117bb906117a5565b600052602052604060002090565b90565b6117d86117dd91611663565b6117c9565b90565b6117ea90546117cc565b90565b600161180661180c926117fe6117a0565b5060026117b1565b016117e0565b90565b61182361181e611828926104d7565b6115bd565b6104d7565b90565b906118359061180f565b600052602052604060002090565b60018060a01b031690565b61185a61185f91611663565b611843565b90565b61186c905461184e565b90565b906118799061033f565b9052565b60a01c90565b6bffffffffffffffffffffffff1690565b6118a06118a59161187d565b611883565b90565b6118b29054611894565b90565b906118bf9061036f565b9052565b6118cd60406109a7565b90565b906119076118fe60006118e16118c3565b946118f86118f0838301611862565b83880161186f565b016118a8565b602084016118b5565b565b611912906118d0565b90565b61191f905161033f565b90565b61193661193161193b92610f13565b6115bd565b610334565b90565b61194790611922565b90565b611954905161036f565b90565b61196b6119666119709261036f565b6115bd565b6104d7565b90565b634e487b7160e01b600052601160045260246000fd5b61199861199e919392936104d7565b926104d7565b916119aa8382026104d7565b9281840414901517156119b957565b611973565b634e487b7160e01b600052601260045260246000fd5b6119e06119e6916104d7565b916104d7565b9081156119f1570490565b6119be565b611a19611a1e91939293611a08611527565b50611a1161165e565b50600161182b565b611909565b91611a2b60008401611915565b611a46611a40611a3b600061193e565b61033f565b9161033f565b14611a93575b6000611a88611a72611a8f93611a6c611a676020890161194a565b611957565b90611989565b611a82611a7d612e7c565b611957565b906119d4565b9301611915565b9190565b9150611a8f6000611a88611a72611aa983611909565b959350505050611a4c565b7f9f2df0fed2c77648de5860a4cc508cd0818c85b8b8a1ab4ceeef8d981c8956a690565b90611af291611aed611ae8611ab4565b612b21565b611b9b565b565b611b08611b03611b0d92610f13565b6115bd565b6104d7565b90565b6001611b1c91016104d7565b90565b611b28906104d7565b6000198114611b375760010190565b611973565b90611b4960001991610f16565b9181191691161790565b90565b90611b6b611b66611b729261180f565b611b53565b8254611b3c565b9055565b611b85611b8b919392936104d7565b926104d7565b8201809211611b9657565b611973565b9190611ba76000611af4565b915b82611bbc611bb6846104d7565b916104d7565b1015611c3d575b611bd5611bd0600b611680565b612e93565b15611bfb57611bf6611bef611bea600b611680565b611b1f565b600b611b56565b611bc3565b9091611c3690611c1585611c0f600b611680565b90612ec0565b611c31611c2a611c25600b611680565b611b1f565b600b611b56565b611b10565b9190611ba9565b9250611c5e9150611c5790611c52600c611680565b611b76565b600c611b56565b565b90611c6a91611ad8565b565b90611c8791611c82611c7d826117ed565b612b21565b611c89565b565b90611c9391612f59565b565b90611c9f91611c6c565b565b60207f20726f6c657320666f722073656c660000000000000000000000000000000000917f416363657373436f6e74726f6c3a2063616e206f6e6c792072656e6f756e636560008201520152565b611cfc602f604092610420565b611d0581611ca1565b0190565b611d1f9060208101906000818303910152611cef565b90565b15611d2957565b611d31610273565b62461bcd60e51b815280611d4760048201611d09565b0390fd5b90611d7891611d7382611d6d611d67611d62612f83565b61033f565b9161033f565b14611d22565b612f90565b565b90611d9491611d8f611d8a611ab4565b612b21565b611d96565b565b90611da091612ec0565b611dbc611db5611db0600c611680565b611b1f565b600c611b56565b5b611dcf611dca600b611680565b612e93565b15611df557611df0611de9611de4600b611680565b611b1f565b600b611b56565b611dbd565b565b90611e0191611d7a565b565b90611e15611e10836109bc565b6109a7565b918252565b611e246000611e03565b90565b611e2f611e1a565b90565b91611e3f838383916116a3565b611e4882612fba565b611e52575b505050565b611e659291611e5f611e27565b92612fc7565b388080611e4d565b611e779033613058565b565b60ff1690565b611e8b611e9091611663565b611e79565b90565b611e9d9054611e7f565b90565b90611eac60ff91610f16565b9181191691161790565b611ebf906102d7565b90565b90565b90611eda611ed5611ee192611eb6565b611ec2565b8254611ea0565b9055565b96979091929594939733611f21611f1b7f000000000000000000000000000000000000000000000000000000000000000061033f565b9161033f565b14158015611f84575b611f6757611f5998611f4c97611f47958a95909192939495613122565b612d3b565b611f54611ab4565b612f59565b611f656001600a611ec5565b565b600063f92ee8a960e01b815280611f80600482016103d2565b0390fd5b50611f8f600a611e93565b611f2a565b90611faf9291611faa611fa5611396565b612b21565b611fb1565b565b91611fbe92919091613217565b565b90611fcb9291611f94565b565b7fe02a0315b383857ac496e9d2b2546a699afaeb4e5e83a1fdef64376d0b74e5a590565b9061200b91612006612001611fcd565b612b21565b6121f7565b565b601f602091010490565b1b90565b9190600861203791029161203160001984612017565b92612017565b9181191691161790565b919061205761205261205f9361180f565b611b53565b90835461201b565b9055565b6120759161206f61165e565b91612041565b565b5b818110612083575050565b806120916000600193612063565b01612078565b9190601f81116120a7575b505050565b6120b36120d89361143c565b9060206120bf8461200d565b830193106120e0575b6120d19061200d565b0190612077565b3880806120a2565b91506120d1819290506120c8565b1c90565b9061210390600019906008026120ee565b191690565b81612112916120f2565b906002021790565b906121248161041c565b9067ffffffffffffffff82116121e657612148826121428554611409565b85612097565b602090601f831160011461217d5791809161216c93600092612171575b5050612108565b90555b565b90915001513880612165565b601f1983169161218c8561143c565b9260005b8181106121ce575091600293918560019694106121b4575b5050500201905561216f565b6121c4910151601f8416906120f2565b90553880806121a8565b91936020600181928787015181550195019201612190565b610968565b906121f59161211a565b565b9061220661220d9260076121eb565b60086121eb565b565b9061221991611ff1565b565b61222d90612227611527565b5061329a565b90811561223657565b63ceea21b66000526004601cfd5b61224c61165e565b50801561227457673ec412a9852d173d60c11b601c5260005263ffffffff601c600c20541690565b638f4eb6046000526004601cfd5b61229b90612296612291611fcd565b612b21565b61229d565b565b6122a89060066121eb565b565b6122b390612282565b565b906122bf906117a5565b600052602052604060002090565b90565b906122f06122eb6122f5936122e3611527565b5060036122b5565b6122cd565b6132fb565b90565b612301906115c0565b90565b61230d906122f8565b90565b9061231a90612304565b600052602052604060002090565b61235091600061234561234b9361233d611351565b5060026117b1565b01612310565b611e93565b90565b61236c90612367612362611fcd565b612b21565b61236e565b565b6123799060096121eb565b565b61238490612353565b565b61238e6113ee565b506123996008611505565b90565b60018060a01b031690565b6123b36123b891611663565b61239c565b90565b6123c590546123a7565b90565b6123d1906122f8565b90565b60e01b90565b905051906123e7826106df565b565b9060208282031261240357612400916000016123da565b90565b61027e565b50612417906020810190610360565b90565b6124239061033f565b9052565b506124369060208101906102a9565b90565b61244290610288565b9052565b506124559060208101906106f4565b90565b612461906106dc565b9052565b600080fd5b600080fd5b600080fd5b90356001602003823603038112156124b557016020813591019167ffffffffffffffff82116124b05760018202360383136124ab57565b61246a565b612465565b61246f565b60209181520190565b91906124dd816124d6816124e2956124ba565b80956109df565b61044e565b0190565b90356001604003823603038112156124fc570190565b61246f565b903560016020038236030381121561254257016020813591019167ffffffffffffffff821161253d57600182023603831361253857565b61246a565b612465565b61246f565b91906125618161255a8161256695611433565b80956109df565b61044e565b0190565b67ffffffffffffffff1690565b6125808161256a565b0361258757565b600080fd5b9050359061259982612577565b565b506125aa90602081019061258c565b90565b6125b69061256a565b9052565b906125f89060206125f06125e6604084016125d86000880188612501565b908683036000880152612547565b948281019061259b565b9101906125ad565b90565b6126a59161269761268c60c083016126236126196000870187612408565b600086019061241a565b61263d6126336020870187612427565b6020860190612439565b61265761264d6040870187612446565b6040860190612458565b6126716126676060870187612446565b6060860190612458565b61267e6080860186612474565b9085830360808701526124c3565b9260a08101906124e6565b9060a08184039101526125ba565b90565b9392906126d46040916126dc946126c7606089019260008a019061051d565b87820360208901526125fb565b940190610722565b565b6126e6610273565b3d6000823e3d90fd5b91506020906126fc6117a0565b5061270f61270a60046123bb565b6123c8565b61273b633808a90b94929461274661272760056117e0565b61272f610273565b978896879586956123d4565b8552600485016126a8565b03915afa90811561278b5760009161275d575b5090565b61277e915060203d8111612784575b612776818361097e565b8101906123e9565b38612759565b503d61276c565b6126de565b90151581601c52670a5a2e7a0000000060085233600052806030600c205560005260601b60601c337f17307eab39ab6107e8899845ad3d59bd9653f200f220920489ca2b5937696c3160206000a3565b67ffffffffffffffff81116127fe576127fa60209161044e565b0190565b610968565b90929192612818612813826127e0565b6109a7565b9381855260208501908284011161283457612832926109df565b565b610963565b612844913691612803565b90565b92919092612857818584916116a3565b61286084612fba565b61286c575b5050505050565b6128829461287c91949293612839565b92612fc7565b3880808080612865565b90565b6128999054611409565b90565b6128a4611e1a565b90565b6128af6113ee565b506128c26128bc82612e93565b156102d7565b612923576128d86128d3600661288c565b61288f565b6128eb6128e56000611af4565b916104d7565b1415600014612915576129119061290c612906600692613334565b91611505565b61338f565b5b90565b5061291e61289c565b612912565b600063677510db60e11b81528061293c600482016103d2565b0390fd5b61295f61295a6129649261295261165e565b5060036122b5565b6122cd565b6133bf565b90565b906129829161297d612978826117ed565b612b21565b612984565b565b9061298e91612f90565b565b9061299a91612967565b565b5190565b634e487b7160e01b600052603260045260246000fd5b906129c08261299c565b8110156129d1576020809102010190565b6129a0565b6129e090516104d7565b90565b906129ed8261299c565b906129f86000611af4565b5b80612a0c612a06856104d7565b916104d7565b1015612a3d57612a3890612a3333612a2d612a288885906129b6565b6129d6565b90613058565b611b10565b6129f9565b50915050565b612a4b6113ee565b50612a566009611505565b90565b90612a62611351565b50601c52670a5a2e7a000000006008526000526030600c205490565b612a9790612a92612a8d61157e565b612b21565b612ac5565b565b612aa290611663565b90565b90612aba612ab5612ac1926117a5565b612a99565b8254611b3c565b9055565b612ad0906005612aa5565b565b612adb90612a7e565b565b612ae5611351565b50612aef816133df565b8015612b12575b908115612b02575b5090565b612b0c915061346c565b38612afe565b50612b1c81613406565b612af6565b612b3390612b2d612f83565b90613591565b565b60207f2073616c65507269636500000000000000000000000000000000000000000000917f455243323938313a20726f79616c7479206665652077696c6c2065786365656460008201520152565b612b90602a604092610420565b612b9981612b35565b0190565b612bb39060208101906000818303910152612b83565b90565b15612bbd57565b612bc5610273565b62461bcd60e51b815280612bdb60048201612b9d565b0390fd5b60007f455243323938313a20696e76616c696420726563656976657200000000000000910152565b612c146019602092610420565b612c1d81612bdf565b0190565b612c379060208101906000818303910152612c07565b90565b15612c4157565b612c49610273565b62461bcd60e51b815280612c5f60048201612c21565b0390fd5b612c6d60406109a7565b90565b90565b90612c88612c83612c8f92612304565b612c70565b82546115f4565b9055565b60a01b90565b90612cb36bffffffffffffffffffffffff60a01b91612c93565b9181191691161790565b612cd1612ccc612cd69261036f565b6115bd565b61036f565b90565b90565b90612cf1612cec612cf892612cbd565b612cd9565b8254612c99565b9055565b90612d2760206000612d2d94612d1f828201612d19848801611915565b90612c73565b01920161194a565b90612cdc565b565b90612d3991612cfc565b565b90612dac612db392612d6783612d60612d5a612d55612e7c565b61036f565b9161036f565b1115612bb6565b612d8d81612d86612d80612d7b600061193e565b61033f565b9161033f565b1415612c3a565b91612da3612d99612c63565b936000850161186f565b602083016118b5565b6000612d2f565b565b9060001960601c9081169181168360005280673ec412a9852d173d60c11b17601c5260206000208401840191825416918215612e4a57818385931490151715612e24575b600101557f8c5be1e5ebec7d5bd14f71427d1e84f3dd0314c0f7b2291e5b200ac8c7c3b925600038a4565b9050816000526030600c205415612e3c578290612df9565b634b6e7f186000526004601cfd5b63ceea21b66000526004601cfd5b600090565b90565b612e74612e6f612e7992612e5d565b6115bd565b61036f565b90565b612e84612e58565b50612e90612710612e60565b90565b612e9b611351565b5080600052673ec412a9852d173d60c11b601c5260206000208101015460601b151590565b60601b60601c81600052673ec412a9852d173d60c11b601c5260206000208201820180548060601b612f4b578217905580600052601c600c2060018154019063ffffffff8216830215612f36575560007fddf252ad1be2c89b69c2b068fc378daa952ba7f163c4a11628f55a4df523b3ef8138a4565b67ea553b3401336cea831560021b526004601cfd5b63c991cbb16000526004601cfd5b90612f7b612f76612f8093612f6f81859061362a565b60036122b5565b6122cd565b613711565b50565b612f8b611527565b503390565b90612fb2612fad612fb793612fa681859061374c565b60036122b5565b6122cd565b6137e6565b50565b612fc2611351565b503b90565b9160209160a460405195869363150b7a0296878652338787015260601b60601c6040860152606085015260808085015280518091818060a0880152613044575b505001906000601c8401915af115613034575b60e01b90510361302657565b63d1a57ed66000526004601cfd5b3d1561301a57503d6000823e3d90fd5b818760c08801920160045afa508038613007565b6130618261221b565b5060601b60601c8160005280673ec412a9852d173d60c11b17601c52602060002082018201908154918260601b60601c918215613114578260005281600101549081811484821417901517156130fc575b60009383916130f1575b189055601c600c20600181540390557fddf252ad1be2c89b69c2b068fc378daa952ba7f163c4a11628f55a4df523b3ef8238a4565b8483600101556130bc565b6030600c20546130b257634b6e7f186000526004601cfd5b63ceea21b66000526004601cfd5b9261314c906131456131539461313e6131919a989560076121eb565b60086121eb565b60066121eb565b60096121eb565b61316561315e610f38565b8290612f59565b613177613170611fcd565b8290612f59565b613189613182611396565b8290612f59565b919091613821565b565b60007f455243323938313a20496e76616c696420706172616d65746572730000000000910152565b6131c8601b602092610420565b6131d181613193565b0190565b6131eb90602081019060008183039101526131bb565b90565b156131f557565b6131fd610273565b62461bcd60e51b815280613213600482016131d5565b0390fd5b6132939061328c61329894936132478561324061323a613235612e7c565b61036f565b9161036f565b1115612bb6565b61326d8161326661326061325b600061193e565b61033f565b9161033f565b14156131ee565b93613283613279612c63565b956000870161186f565b602085016118b5565b600161182b565b612d2f565b565b6132a2611527565b5080600052673ec412a9852d173d60c11b601c5260206000208101015460601b60601c90565b90565b6132d76132dc91611663565b61180f565b90565b6132f36132ee6132f8926104d7565b6115bd565b610334565b90565b6133276133226133319361331d600061332c95613316611527565b50016132c8565b61389c565b6132cb565b6132df565b6122f8565b90565b9061333d6113ee565b506080604051019160208301604052600083528290600a6000198092955b019481810660300186530493841561337a5790600a919080929161335b565b93505082602091039203918252565b90565b90565b6133bc916133b16133ab6133b7936133a56113ee565b50613389565b91613389565b906138c3565b61338c565b90565b6133d760006133dc926133d061165e565b50016132c8565b613945565b90565b6133e7611351565b5060e01c635b5e139f8114906301ffc9a76380ac58cd82149114171790565b61340e611351565b506134188161395d565b801561345d575b8015613442575b908115613432575b5090565b61343c915061399d565b3861342e565b50600061345761345183610288565b91610288565b14613426565b506134678161399d565b61341f565b613474611351565b5061347e8161399d565b90811561348a575b5090565b61349491506139dd565b38613486565b90565b6134b16134ac6134b69261349a565b6115bd565b6104d7565b90565b905090565b60007f416363657373436f6e74726f6c3a206163636f756e7420000000000000000000910152565b6134f2601780926134b9565b6134fb816134be565b0190565b61352461351b926020926135128161041c565b948580936134b9565b93849101610429565b0190565b60007f206973206d697373696e6720726f6c6520000000000000000000000000000000910152565b61355c601180926134b9565b61356581613528565b0190565b61358361358e939261357d613588936134e6565b906134ff565b613550565b906134ff565b90565b906135a66135a0838390612328565b156102d7565b6135ae575050565b613626916136046135dd6135cd6135c761360995613a6b565b936132cb565b6135d7602061349d565b90613c84565b916135f56135e9610273565b93849260208401613569565b6020820181038252038261097e565b61338c565b613611610273565b91829162461bcd60e51b835260048301610489565b0390fd5b61363e613638828490612328565b156102d7565b613647575b5050565b61366a6001613665600061365d600286906117b1565b018590612310565b611ec5565b90613673612f83565b906136b06136aa6136a47f2f8788117e7eff1d82e926ec794901d17c78024a50270940304540a733656f0d956117a5565b92612304565b92612304565b926136b9610273565b806136c3816103d2565b0390a43880613643565b6136d6906115c0565b90565b6136ed6136e86136f292610334565b6115bd565b6104d7565b90565b61370961370461370e926104d7565b610f16565b6106dc565b90565b9061374461373e61373961373460006137499661372c611351565b5001946136cd565b6136d9565b6136f5565b916132c8565b613e7a565b90565b613757818390612328565b613760575b5050565b613783600061377e6000613776600286906117b1565b018590612310565b611ec5565b9061378c612f83565b906137c96137c36137bd7ff6391f5c32d9c69d2a47ea670b442974b53935d1edc7fd64eb21e047a839171b956117a5565b92612304565b92612304565b926137d2610273565b806137dc816103d2565b0390a4388061375c565b9061381961381361380e613809600061381e96613801611351565b5001946136cd565b6136d9565b6136f5565b916132c8565b613f5f565b90565b9061383761383c939261383261157e565b612f59565b614069565b565b5490565b600052602060002090565b6138568161383e565b82101561387157613868600191613842565b91020190600090565b6129a0565b61388690600861388b93026120ee565b6117c9565b90565b906138999154613876565b90565b6138bb9160006138b5926138ae6117a0565b500161384d565b9061388e565b90565b606090565b9190916138ce6138be565b5060405192601f1980835193818060208701165b80830151818a0152019081156138fd578190915082906138e2565b505050815191838601828060208601165b80840151818401520191821561392b57828091935050839061390e565b505050506020910180828501019060008252845201604052565b600061395a9161395361165e565b500161383e565b90565b613965611351565b508061398061397a63152a902d60e11b610288565b91610288565b1490811561398d575b5090565b6139979150614089565b38613989565b6139a5611351565b50806139c06139ba635a05180f60e01b610288565b91610288565b149081156139cd575b5090565b6139d791506140af565b386139c9565b6139e5611351565b5080613a006139fa634e821d3360e11b610288565b91610288565b14908115613a0d575b5090565b613a179150613406565b38613a09565b90565b60ff1690565b613a3a613a35613a3f92613a1d565b6115bd565b613a20565b90565b613a4c6014613a26565b90565b613a63613a5e613a6892613a20565b6115bd565b6104d7565b90565b613a88613a83613a9e92613a7d6113ee565b506136cd565b6136d9565b613a98613a93613a42565b613a4f565b90613c84565b90565b90565b613ab8613ab3613abd92613aa1565b6115bd565b6104d7565b90565b90613ad2613acd836127e0565b6109a7565b918252565b369037565b90613b01613ae983613ac0565b92602080613af786936127e0565b9201910390613ad7565b565b600360fc1b90565b5190565b90613b1982613b0b565b811015613b2b57600160209102010190565b6129a0565b600f60fb1b90565b90565b613b4f613b4a613b5492613b38565b6115bd565b6104d7565b90565b613b60906104d7565b60008114613b6f576001900390565b611973565b6f181899199a1a9b1b9c1cb0b131b232b360811b90565b613b93613b74565b90565b90565b613bad613ba8613bb292613b96565b6115bd565b6104d7565b90565b60f81b90565b90565b613bd2613bcd613bd792613bbb565b6115bd565b613a20565b90565b613bf990613bf3613bed613bfe94613a20565b916104d7565b906120ee565b6104d7565b90565b60007f537472696e67733a20686578206c656e67746820696e73756666696369656e74910152565b613c3560208092610420565b613c3e81613c01565b0190565b613c589060208101906000818303910152613c29565b90565b15613c6257565b613c6a610273565b62461bcd60e51b815280613c8060048201613c42565b0390fd5b9190613c8e6113ee565b50613d28613d18613cc4613cbf613caf6002613caa8791613aa4565b611989565b613cb96002613aa4565b90611b76565b613adc565b92613ccd613b03565b613ce685613ce060009360001a93611af4565b90613b0f565b53613cef613b30565b613d0885613d0260019360001a93613b3b565b90613b0f565b53613d136002613aa4565b611989565b613d226001613b3b565b90611b76565b925b83613d3e613d386001613b3b565b916104d7565b1115613da557613d4c613b8b565b81613d57600f613b99565b16916010831015613da057613d73613d9492613d9a941a613bb5565b613d838591889060001a92613b0f565b53613d8e6004613bbe565b90613bda565b93613b57565b92613d2a565b6129a0565b613dcd929350613dc890613dc2613dbc6000611af4565b916104d7565b14613c5b565b61338c565b90565b90565b600052602060002090565b5490565b613deb81613dde565b821015613e0657613dfd600191613dd3565b91020190600090565b6129a0565b9190613e21613e1c613e29936117a5565b612a99565b90835461201b565b9055565b9081549168010000000000000000831015613e5d5782613e55916001613e5b95018155613de2565b90613e0b565b565b610968565b90613e6c906117a5565b600052602052604060002090565b613e82611351565b50613e97613e918284906140ef565b156102d7565b600014613eda57613ed0613ed592613ebb613eb460008501613dd0565b8290613e2d565b6001613ec96000850161383e565b9301613e62565b611b56565b600190565b5050600090565b613ef0613ef6919392936104d7565b926104d7565b8203918211613f0157565b611973565b634e487b7160e01b600052603160045260246000fd5b613f2e91613f286117a0565b91613e0b565b565b613f3981613dde565b8015613f5a576001900390613f57613f518383613de2565b90613f1c565b55565b613f06565b613f67611351565b50613f7e613f79600183018490613e62565b611680565b9081613f93613f8d6000611af4565b916104d7565b14156000146140615761401392600161400e9284613fbc600096613fb685613b3b565b90613ee1565b613fd9613fca88850161383e565b613fd386613b3b565b90613ee1565b80613fec613fe6846104d7565b916104d7565b03614018575b505050614008614003868301613dd0565b613f30565b01613e62565b612063565b600190565b6140599261404b614037614031614054948c890161384d565b9061388e565b9361404585918c890161384d565b90613e0b565b91858501613e62565b611b56565b388080613ff2565b505050600090565b90614080614079614087936115e8565b600461161e565b6005612aa5565b565b614091611351565b506140ab6140a56301ffc9a760e01b610288565b91610288565b1490565b6140b7611351565b50806140d26140cc637965db0b60e01b610288565b91610288565b149081156140df575b5090565b6140e9915061395d565b386140db565b61410d91600161410892614101611351565b5001613e62565b611680565b61412061411a6000611af4565b916104d7565b14159056fea264697066735822122029a6d041f14c226b015d09bed1f38d00ed477c06417cdefc834389f375cb9b8964736f6c634300081b003360806040523461002f576100196100146100fa565b61011b565b610021610034565b610722610380823961072290f35b61003a565b60405190565b600080fd5b601f801991011690565b634e487b7160e01b600052604160045260246000fd5b906100699061003f565b810190811060018060401b0382111761008157604052565b610049565b90610099610092610034565b928361005f565b565b600080fd5b60018060a01b031690565b6100b4906100a0565b90565b6100c0816100ab565b036100c757565b600080fd5b905051906100d9826100b7565b565b906020828203126100f5576100f2916000016100cc565b90565b61009b565b610118610aa28038038061010d81610086565b9283398101906100db565b90565b61012c9061012761012e565b61026e565b565b61013e610139610291565b6102d6565b565b60209181520190565b60207f6e206973206e6f74206120636f6e747261637400000000000000000000000000917f5570677261646561626c65426561636f6e3a20696d706c656d656e746174696f60008201520152565b6101a46033604092610140565b6101ad81610149565b0190565b6101c79060208101906000818303910152610197565b90565b156101d157565b6101d9610034565b62461bcd60e51b8152806101ef600482016101b1565b0390fd5b60001b90565b9061020a60018060a01b03916101f3565b9181191691161790565b90565b61022b610226610230926100a0565b610214565b6100a0565b90565b61023c90610217565b90565b61024890610233565b90565b90565b9061026361025e61026a9261023f565b61024b565b82546101f9565b9055565b61028a9061028361027e8261035e565b6101ca565b600161024e565b565b600090565b61029961028c565b503390565b60001c90565b60018060a01b031690565b6102bb6102c09161029e565b6102a4565b90565b6102cd90546102af565b90565b60000190565b6102e060006102c3565b6102eb82600061024e565b9061031f6103197f8be0079c531659141344cd1fd0a4f28419497f9722a3daafe3b4186f6b6457e09361023f565b9161023f565b91610328610034565b80610332816102d0565b0390a3565b600090565b90565b90565b61035661035161035b9261033f565b610214565b61033c565b90565b610366610337565b503b61037b6103756000610342565b9161033c565b119056fe60806040526004361015610013575b610219565b61001e60003561006d565b80633659cfe6146100685780635c60da1b14610063578063715018a61461005e5780638da5cb5b146100595763f2fde38b0361000e576101e6565b6101b1565b61017e565b610149565b6100e3565b60e01c90565b60405190565b600080fd5b600080fd5b60018060a01b031690565b61009790610083565b90565b6100a38161008e565b036100aa57565b600080fd5b905035906100bc8261009a565b565b906020828203126100d8576100d5916000016100af565b90565b61007e565b60000190565b34610111576100fb6100f63660046100be565b6102b3565b610103610073565b8061010d816100dd565b0390f35b610079565b600091031261012157565b61007e565b61012f9061008e565b9052565b919061014790600060208501940190610126565b565b3461017957610159366004610116565b6101756101646102f5565b61016c610073565b91829182610133565b0390f35b610079565b346101ac5761018e366004610116565b61019661035c565b61019e610073565b806101a8816100dd565b0390f35b610079565b346101e1576101c1366004610116565b6101dd6101cc610366565b6101d4610073565b91829182610133565b0390f35b610079565b34610214576101fe6101f93660046100be565b610473565b610206610073565b80610210816100dd565b0390f35b610079565b600080fd5b61022f9061022a610501565b610268565b565b90565b61024861024361024d92610083565b610231565b610083565b90565b61025990610234565b90565b61026590610250565b90565b6102718161061b565b61029b7fbc7cd75a20ee27fd9adebab32041f755214dbc6bffa90cc0225b39da2e5c2d3b9161025c565b906102a4610073565b806102ae816100dd565b0390a2565b6102bc9061021e565b565b600090565b60001c90565b60018060a01b031690565b6102e06102e5916102c3565b6102c9565b90565b6102f290546102d4565b90565b6102fd6102be565b5061030860016102e8565b90565b610313610501565b61031b610348565b565b90565b61033461032f6103399261031d565b610231565b610083565b90565b61034590610320565b90565b61035a610355600061033c565b610639565b565b61036461030b565b565b61036e6102be565b5061037960006102e8565b90565b61038d90610388610501565b610442565b565b60209181520190565b60207f6464726573730000000000000000000000000000000000000000000000000000917f4f776e61626c653a206e6577206f776e657220697320746865207a65726f206160008201520152565b6103f3602660409261038f565b6103fc81610398565b0190565b61041690602081019060008183039101526103e6565b90565b1561042057565b610428610073565b62461bcd60e51b81528061043e60048201610400565b0390fd5b6104719061046c8161046561045f61045a600061033c565b61008e565b9161008e565b1415610419565b610639565b565b61047c9061037c565b565b60007f4f776e61626c653a2063616c6c6572206973206e6f7420746865206f776e6572910152565b6104b26020809261038f565b6104bb8161047e565b0190565b6104d590602081019060008183039101526104a6565b90565b156104df57565b6104e7610073565b62461bcd60e51b8152806104fd600482016104bf565b0390fd5b61052b61050c610366565b61052561051f61051a61069a565b61008e565b9161008e565b146104d8565b565b60207f6e206973206e6f74206120636f6e747261637400000000000000000000000000917f5570677261646561626c65426561636f6e3a20696d706c656d656e746174696f60008201520152565b610588603360409261038f565b6105918161052d565b0190565b6105ab906020810190600081830391015261057b565b90565b156105b557565b6105bd610073565b62461bcd60e51b8152806105d360048201610595565b0390fd5b60001b90565b906105ee60018060a01b03916105d7565b9181191691161790565b90565b9061061061060b6106179261025c565b6105f8565b82546105dd565b9055565b6106379061063061062b826106cb565b6105ae565b60016105fb565b565b61064360006102e8565b61064e8260006105fb565b9061068261067c7f8be0079c531659141344cd1fd0a4f28419497f9722a3daafe3b4186f6b6457e09361025c565b9161025c565b9161068b610073565b80610695816100dd565b0390a3565b6106a26102be565b503390565b600090565b90565b6106c36106be6106c89261031d565b610231565b6106ac565b90565b6106d36106a7565b503b6106e86106e260006106af565b916106ac565b119056fea26469706673582212203fbf94b3aa182e7120f7ee578f52eecce106fbe2a323e7e4f1511d9f27768ead64736f6c634300081b0033",
          "opcodes": "PUSH1 0x80 PUSH1 0x40 MSTORE CALLVALUE PUSH2 0x2F JUMPI PUSH2 0x19 PUSH2 0x14 PUSH2 0xFA JUMP JUMPDEST PUSH2 0x169 JUMP JUMPDEST PUSH2 0x21 PUSH2 0x34 JUMP JUMPDEST PUSH2 0x2762 PUSH2 0x397 DUP3 CODECOPY PUSH2 0x2762 SWAP1 RETURN JUMPDEST PUSH2 0x3A JUMP JUMPDEST PUSH1 0x40 MLOAD SWAP1 JUMP JUMPDEST PUSH1 0x0 DUP1 REVERT JUMPDEST PUSH1 0x1F DUP1 NOT SWAP2 ADD AND SWAP1 JUMP JUMPDEST PUSH4 0x4E487B71 PUSH1 0xE0 SHL PUSH1 0x0 MSTORE PUSH1 0x41 PUSH1 0x4 MSTORE PUSH1 0x24 PUSH1 0x0 REVERT JUMPDEST SWAP1 PUSH2 0x69 SWAP1 PUSH2 0x3F JUMP JUMPDEST DUP2 ADD SWAP1 DUP2 LT PUSH1 0x1 DUP1 PUSH1 0x40 SHL SUB DUP3 GT OR PUSH2 0x81 JUMPI PUSH1 0x40 MSTORE JUMP JUMPDEST PUSH2 0x49 JUMP JUMPDEST SWAP1 PUSH2 0x99 PUSH2 0x92 PUSH2 0x34 JUMP JUMPDEST SWAP3 DUP4 PUSH2 0x5F JUMP JUMPDEST JUMP JUMPDEST PUSH1 0x0 DUP1 REVERT JUMPDEST PUSH1 0x1 DUP1 PUSH1 0xA0 SHL SUB AND SWAP1 JUMP JUMPDEST PUSH2 0xB4 SWAP1 PUSH2 0xA0 JUMP JUMPDEST SWAP1 JUMP JUMPDEST PUSH2 0xC0 DUP2 PUSH2 0xAB JUMP JUMPDEST SUB PUSH2 0xC7 JUMPI JUMP JUMPDEST PUSH1 0x0 DUP1 REVERT JUMPDEST SWAP1 POP MLOAD SWAP1 PUSH2 0xD9 DUP3 PUSH2 0xB7 JUMP JUMPDEST JUMP JUMPDEST SWAP1 PUSH1 0x20 DUP3 DUP3 SUB SLT PUSH2 0xF5 JUMPI PUSH2 0xF2 SWAP2 PUSH1 0x0 ADD PUSH2 0xCC JUMP JUMPDEST SWAP1 JUMP JUMPDEST PUSH2 0x9B JUMP JUMPDEST PUSH2 0x118 PUSH2 0x7737 DUP1 CODESIZE SUB DUP1 PUSH2 0x10D DUP2 PUSH2 0x86 JUMP JUMPDEST SWAP3 DUP4 CODECOPY DUP2 ADD SWAP1 PUSH2 0xDB JUMP JUMPDEST SWAP1 JUMP JUMPDEST PUSH1 0x0 ADD SWAP1 JUMP JUMPDEST PUSH2 0x129 PUSH2 0x34 JUMP JUMPDEST RETURNDATASIZE PUSH1 0x0 DUP3 RETURNDATACOPY RETURNDATASIZE SWAP1 REVERT JUMPDEST SWAP1 JUMP JUMPDEST PUSH2 0x149 PUSH2 0x144 PUSH2 0x14E SWAP3 PUSH2 0xA0 JUMP JUMPDEST PUSH2 0x132 JUMP JUMPDEST PUSH2 0xA0 JUMP JUMPDEST SWAP1 JUMP JUMPDEST PUSH2 0x15A SWAP1 PUSH2 0x135 JUMP JUMPDEST SWAP1 JUMP JUMPDEST PUSH2 0x166 SWAP1 PUSH2 0x151 JUMP JUMPDEST SWAP1 JUMP JUMPDEST PUSH2 0x171 PUSH2 0x1CA JUMP JUMPDEST PUSH2 0x179 PUSH2 0x34 JUMP JUMPDEST PUSH2 0x419C DUP2 ADD DUP2 DUP2 LT PUSH1 0x1 DUP1 PUSH1 0x40 SHL SUB DUP3 GT OR PUSH2 0x1C5 JUMPI PUSH2 0x1A1 DUP3 SWAP2 PUSH2 0x419C PUSH2 0x2AF9 DUP5 CODECOPY PUSH2 0x11B JUMP JUMPDEST SUB SWAP1 PUSH1 0x0 CREATE SWAP1 DUP2 ISZERO PUSH2 0x1C0 JUMPI PUSH2 0x1B9 PUSH2 0x1BE SWAP3 PUSH2 0x15D JUMP JUMPDEST PUSH2 0x265 JUMP JUMPDEST JUMP JUMPDEST PUSH2 0x121 JUMP JUMPDEST PUSH2 0x49 JUMP JUMPDEST PUSH2 0x1D2 PUSH2 0x1D4 JUMP JUMPDEST JUMP JUMPDEST PUSH2 0x1E4 PUSH2 0x1DF PUSH2 0x2C7 JUMP JUMPDEST PUSH2 0x335 JUMP JUMPDEST JUMP JUMPDEST PUSH2 0x1EF SWAP1 PUSH2 0xAB JUMP JUMPDEST SWAP1 MSTORE JUMP JUMPDEST SWAP2 SWAP1 PUSH2 0x207 SWAP1 PUSH1 0x0 PUSH1 0x20 DUP6 ADD SWAP5 ADD SWAP1 PUSH2 0x1E6 JUMP JUMPDEST JUMP JUMPDEST PUSH1 0x0 SHL SWAP1 JUMP JUMPDEST SWAP1 PUSH2 0x220 PUSH1 0x1 DUP1 PUSH1 0xA0 SHL SUB SWAP2 PUSH2 0x209 JUMP JUMPDEST SWAP2 DUP2 NOT AND SWAP2 AND OR SWAP1 JUMP JUMPDEST PUSH2 0x233 SWAP1 PUSH2 0x135 JUMP JUMPDEST SWAP1 JUMP JUMPDEST PUSH2 0x23F SWAP1 PUSH2 0x22A JUMP JUMPDEST SWAP1 JUMP JUMPDEST SWAP1 JUMP JUMPDEST SWAP1 PUSH2 0x25A PUSH2 0x255 PUSH2 0x261 SWAP3 PUSH2 0x236 JUMP JUMPDEST PUSH2 0x242 JUMP JUMPDEST DUP3 SLOAD PUSH2 0x20F JUMP JUMPDEST SWAP1 SSTORE JUMP JUMPDEST PUSH2 0x26D PUSH2 0x34 JUMP JUMPDEST SWAP1 PUSH2 0xAA2 DUP3 ADD DUP3 DUP2 LT PUSH1 0x1 DUP1 PUSH1 0x40 SHL SUB DUP3 GT OR PUSH2 0x2BD JUMPI DUP3 SWAP2 PUSH2 0x297 SWAP2 PUSH2 0xAA2 PUSH2 0x6C95 DUP6 CODECOPY PUSH2 0x1F3 JUMP JUMPDEST SUB SWAP1 PUSH1 0x0 CREATE SWAP1 DUP2 ISZERO PUSH2 0x2B8 JUMPI PUSH2 0x2B1 PUSH2 0x2B6 SWAP3 PUSH1 0x1 PUSH2 0x245 JUMP JUMPDEST PUSH2 0x335 JUMP JUMPDEST JUMP JUMPDEST PUSH2 0x121 JUMP JUMPDEST PUSH2 0x49 JUMP JUMPDEST PUSH1 0x0 SWAP1 JUMP JUMPDEST PUSH2 0x2CF PUSH2 0x2C2 JUMP JUMPDEST POP CALLER SWAP1 JUMP JUMPDEST PUSH1 0x0 SHR SWAP1 JUMP JUMPDEST PUSH1 0x1 DUP1 PUSH1 0xA0 SHL SUB AND SWAP1 JUMP JUMPDEST PUSH2 0x2F1 PUSH2 0x2F6 SWAP2 PUSH2 0x2D4 JUMP JUMPDEST PUSH2 0x2DA JUMP JUMPDEST SWAP1 JUMP JUMPDEST PUSH2 0x303 SWAP1 SLOAD PUSH2 0x2E5 JUMP JUMPDEST SWAP1 JUMP JUMPDEST PUSH2 0x30F SWAP1 PUSH2 0x151 JUMP JUMPDEST SWAP1 JUMP JUMPDEST SWAP1 JUMP JUMPDEST SWAP1 PUSH2 0x32A PUSH2 0x325 PUSH2 0x331 SWAP3 PUSH2 0x306 JUMP JUMPDEST PUSH2 0x312 JUMP JUMPDEST DUP3 SLOAD PUSH2 0x20F JUMP JUMPDEST SWAP1 SSTORE JUMP JUMPDEST PUSH2 0x33F PUSH1 0x0 PUSH2 0x2F9 JUMP JUMPDEST PUSH2 0x34A DUP3 PUSH1 0x0 PUSH2 0x315 JUMP JUMPDEST SWAP1 PUSH2 0x37E PUSH2 0x378 PUSH32 0x8BE0079C531659141344CD1FD0A4F28419497F9722A3DAAFE3B4186F6B6457E0 SWAP4 PUSH2 0x306 JUMP JUMPDEST SWAP2 PUSH2 0x306 JUMP JUMPDEST SWAP2 PUSH2 0x387 PUSH2 0x34 JUMP JUMPDEST DUP1 PUSH2 0x391 DUP2 PUSH2 0x11B JUMP JUMPDEST SUB SWAP1 LOG3 JUMP INVALID PUSH1 0x80 PUSH1 0x40 MSTORE PUSH1 0x4 CALLDATASIZE LT ISZERO PUSH2 0x13 JUMPI JUMPDEST PUSH2 0x5AB JUMP JUMPDEST PUSH2 0x1E PUSH1 0x0 CALLDATALOAD PUSH2 0x8D JUMP JUMPDEST DUP1 PUSH4 0xDEFBCE9 EQ PUSH2 0x88 JUMPI DUP1 PUSH4 0x1BCE4583 EQ PUSH2 0x83 JUMPI DUP1 PUSH4 0x59659E90 EQ PUSH2 0x7E JUMPI DUP1 PUSH4 0x715018A6 EQ PUSH2 0x79 JUMPI DUP1 PUSH4 0x8BDB5FD2 EQ PUSH2 0x74 JUMPI DUP1 PUSH4 0x8DA5CB5B EQ PUSH2 0x6F JUMPI PUSH4 0xF2FDE38B SUB PUSH2 0xE JUMPI PUSH2 0x578 JUMP JUMPDEST PUSH2 0x543 JUMP JUMPDEST PUSH2 0x501 JUMP JUMPDEST PUSH2 0x4CE JUMP JUMPDEST PUSH2 0x499 JUMP JUMPDEST PUSH2 0x3B7 JUMP JUMPDEST PUSH2 0x350 JUMP JUMPDEST PUSH1 0xE0 SHR SWAP1 JUMP JUMPDEST PUSH1 0x40 MLOAD SWAP1 JUMP JUMPDEST PUSH1 0x0 DUP1 REVERT JUMPDEST PUSH1 0x0 DUP1 REVERT JUMPDEST PUSH1 0x0 DUP1 REVERT JUMPDEST PUSH1 0x1 DUP1 PUSH1 0xA0 SHL SUB AND SWAP1 JUMP JUMPDEST PUSH2 0xBC SWAP1 PUSH2 0xA8 JUMP JUMPDEST SWAP1 JUMP JUMPDEST PUSH2 0xC8 DUP2 PUSH2 0xB3 JUMP JUMPDEST SUB PUSH2 0xCF JUMPI JUMP JUMPDEST PUSH1 0x0 DUP1 REVERT JUMPDEST SWAP1 POP CALLDATALOAD SWAP1 PUSH2 0xE1 DUP3 PUSH2 0xBF JUMP JUMPDEST JUMP JUMPDEST PUSH1 0x0 DUP1 REVERT JUMPDEST PUSH1 0x0 DUP1 REVERT JUMPDEST PUSH1 0x1F DUP1 NOT SWAP2 ADD AND SWAP1 JUMP JUMPDEST PUSH4 0x4E487B71 PUSH1 0xE0 SHL PUSH1 0x0 MSTORE PUSH1 0x41 PUSH1 0x4 MSTORE PUSH1 0x24 PUSH1 0x0 REVERT JUMPDEST SWAP1 PUSH2 0x117 SWAP1 PUSH2 0xED JUMP JUMPDEST DUP2 ADD SWAP1 DUP2 LT PUSH8 0xFFFFFFFFFFFFFFFF DUP3 GT OR PUSH2 0x131 JUMPI PUSH1 0x40 MSTORE JUMP JUMPDEST PUSH2 0xF7 JUMP JUMPDEST SWAP1 PUSH2 0x149 PUSH2 0x142 PUSH2 0x93 JUMP JUMPDEST SWAP3 DUP4 PUSH2 0x10D JUMP JUMPDEST JUMP JUMPDEST PUSH8 0xFFFFFFFFFFFFFFFF DUP2 GT PUSH2 0x169 JUMPI PUSH2 0x165 PUSH1 0x20 SWAP2 PUSH2 0xED JUMP JUMPDEST ADD SWAP1 JUMP JUMPDEST PUSH2 0xF7 JUMP JUMPDEST SWAP1 DUP3 PUSH1 0x0 SWAP4 SWAP3 DUP3 CALLDATACOPY ADD MSTORE JUMP JUMPDEST SWAP1 SWAP3 SWAP2 SWAP3 PUSH2 0x18F PUSH2 0x18A DUP3 PUSH2 0x14B JUMP JUMPDEST PUSH2 0x136 JUMP JUMPDEST SWAP4 DUP2 DUP6 MSTORE PUSH1 0x20 DUP6 ADD SWAP1 DUP3 DUP5 ADD GT PUSH2 0x1AB JUMPI PUSH2 0x1A9 SWAP3 PUSH2 0x16E JUMP JUMPDEST JUMP JUMPDEST PUSH2 0xE8 JUMP JUMPDEST SWAP1 DUP1 PUSH1 0x1F DUP4 ADD SLT ISZERO PUSH2 0x1CE JUMPI DUP2 PUSH1 0x20 PUSH2 0x1CB SWAP4 CALLDATALOAD SWAP2 ADD PUSH2 0x17A JUMP JUMPDEST SWAP1 JUMP JUMPDEST PUSH2 0xE3 JUMP JUMPDEST PUSH12 0xFFFFFFFFFFFFFFFFFFFFFFFF AND SWAP1 JUMP JUMPDEST PUSH2 0x1ED DUP2 PUSH2 0x1D3 JUMP JUMPDEST SUB PUSH2 0x1F4 JUMPI JUMP JUMPDEST PUSH1 0x0 DUP1 REVERT JUMPDEST SWAP1 POP CALLDATALOAD SWAP1 PUSH2 0x206 DUP3 PUSH2 0x1E4 JUMP JUMPDEST JUMP JUMPDEST SWAP1 JUMP JUMPDEST PUSH2 0x214 DUP2 PUSH2 0x208 JUMP JUMPDEST SUB PUSH2 0x21B JUMPI JUMP JUMPDEST PUSH1 0x0 DUP1 REVERT JUMPDEST SWAP1 POP CALLDATALOAD SWAP1 PUSH2 0x22D DUP3 PUSH2 0x20B JUMP JUMPDEST JUMP JUMPDEST PUSH2 0x140 DUP2 DUP4 SUB SLT PUSH2 0x328 JUMPI PUSH2 0x247 DUP3 PUSH1 0x0 DUP4 ADD PUSH2 0xD4 JUMP JUMPDEST SWAP3 PUSH2 0x255 DUP4 PUSH1 0x20 DUP5 ADD PUSH2 0xD4 JUMP JUMPDEST SWAP3 PUSH1 0x40 DUP4 ADD CALLDATALOAD PUSH8 0xFFFFFFFFFFFFFFFF DUP2 GT PUSH2 0x323 JUMPI DUP2 PUSH2 0x276 SWAP2 DUP6 ADD PUSH2 0x1B0 JUMP JUMPDEST SWAP3 PUSH1 0x60 DUP2 ADD CALLDATALOAD PUSH8 0xFFFFFFFFFFFFFFFF DUP2 GT PUSH2 0x31E JUMPI DUP3 PUSH2 0x297 SWAP2 DUP4 ADD PUSH2 0x1B0 JUMP JUMPDEST SWAP3 PUSH1 0x80 DUP3 ADD CALLDATALOAD PUSH8 0xFFFFFFFFFFFFFFFF DUP2 GT PUSH2 0x319 JUMPI DUP4 PUSH2 0x2B8 SWAP2 DUP5 ADD PUSH2 0x1B0 JUMP JUMPDEST SWAP3 PUSH1 0xA0 DUP4 ADD CALLDATALOAD PUSH8 0xFFFFFFFFFFFFFFFF DUP2 GT PUSH2 0x314 JUMPI DUP2 PUSH2 0x2D9 SWAP2 DUP6 ADD PUSH2 0x1B0 JUMP JUMPDEST SWAP3 PUSH2 0x2E7 DUP3 PUSH1 0xC0 DUP4 ADD PUSH2 0xD4 JUMP JUMPDEST SWAP3 PUSH2 0x311 PUSH2 0x2F8 DUP5 PUSH1 0xE0 DUP6 ADD PUSH2 0x1F9 JUMP JUMPDEST SWAP4 PUSH2 0x307 DUP2 PUSH2 0x100 DUP7 ADD PUSH2 0xD4 JUMP JUMPDEST SWAP4 PUSH2 0x120 ADD PUSH2 0x220 JUMP JUMPDEST SWAP1 JUMP JUMPDEST PUSH2 0xA3 JUMP JUMPDEST PUSH2 0xA3 JUMP JUMPDEST PUSH2 0xA3 JUMP JUMPDEST PUSH2 0xA3 JUMP JUMPDEST PUSH2 0x9E JUMP JUMPDEST PUSH2 0x336 SWAP1 PUSH2 0xB3 JUMP JUMPDEST SWAP1 MSTORE JUMP JUMPDEST SWAP2 SWAP1 PUSH2 0x34E SWAP1 PUSH1 0x0 PUSH1 0x20 DUP6 ADD SWAP5 ADD SWAP1 PUSH2 0x32D JUMP JUMPDEST JUMP JUMPDEST CALLVALUE PUSH2 0x38D JUMPI PUSH2 0x389 PUSH2 0x378 PUSH2 0x366 CALLDATASIZE PUSH1 0x4 PUSH2 0x22F JUMP JUMPDEST SWAP9 SWAP8 SWAP1 SWAP8 SWAP7 SWAP2 SWAP7 SWAP6 SWAP3 SWAP6 SWAP5 SWAP4 SWAP5 PUSH2 0x756 JUMP JUMPDEST PUSH2 0x380 PUSH2 0x93 JUMP JUMPDEST SWAP2 DUP3 SWAP2 DUP3 PUSH2 0x33A JUMP JUMPDEST SUB SWAP1 RETURN JUMPDEST PUSH2 0x99 JUMP JUMPDEST SWAP1 PUSH1 0x20 DUP3 DUP3 SUB SLT PUSH2 0x3AC JUMPI PUSH2 0x3A9 SWAP2 PUSH1 0x0 ADD PUSH2 0xD4 JUMP JUMPDEST SWAP1 JUMP JUMPDEST PUSH2 0x9E JUMP JUMPDEST PUSH1 0x0 ADD SWAP1 JUMP JUMPDEST CALLVALUE PUSH2 0x3E5 JUMPI PUSH2 0x3CF PUSH2 0x3CA CALLDATASIZE PUSH1 0x4 PUSH2 0x392 JUMP JUMPDEST PUSH2 0x96F JUMP JUMPDEST PUSH2 0x3D7 PUSH2 0x93 JUMP JUMPDEST DUP1 PUSH2 0x3E1 DUP2 PUSH2 0x3B1 JUMP JUMPDEST SUB SWAP1 RETURN JUMPDEST PUSH2 0x99 JUMP JUMPDEST PUSH1 0x0 SWAP2 SUB SLT PUSH2 0x3F5 JUMPI JUMP JUMPDEST PUSH2 0x9E JUMP JUMPDEST SHR SWAP1 JUMP JUMPDEST PUSH1 0x1 DUP1 PUSH1 0xA0 SHL SUB AND SWAP1 JUMP JUMPDEST PUSH2 0x419 SWAP1 PUSH1 0x8 PUSH2 0x41E SWAP4 MUL PUSH2 0x3FA JUMP JUMPDEST PUSH2 0x3FE JUMP JUMPDEST SWAP1 JUMP JUMPDEST SWAP1 PUSH2 0x42C SWAP2 SLOAD PUSH2 0x409 JUMP JUMPDEST SWAP1 JUMP JUMPDEST PUSH2 0x43C PUSH1 0x1 PUSH1 0x0 SWAP1 PUSH2 0x421 JUMP JUMPDEST SWAP1 JUMP JUMPDEST SWAP1 JUMP JUMPDEST PUSH2 0x456 PUSH2 0x451 PUSH2 0x45B SWAP3 PUSH2 0xA8 JUMP JUMPDEST PUSH2 0x43F JUMP JUMPDEST PUSH2 0xA8 JUMP JUMPDEST SWAP1 JUMP JUMPDEST PUSH2 0x467 SWAP1 PUSH2 0x442 JUMP JUMPDEST SWAP1 JUMP JUMPDEST PUSH2 0x473 SWAP1 PUSH2 0x45E JUMP JUMPDEST SWAP1 JUMP JUMPDEST PUSH2 0x47F SWAP1 PUSH2 0x46A JUMP JUMPDEST SWAP1 MSTORE JUMP JUMPDEST SWAP2 SWAP1 PUSH2 0x497 SWAP1 PUSH1 0x0 PUSH1 0x20 DUP6 ADD SWAP5 ADD SWAP1 PUSH2 0x476 JUMP JUMPDEST JUMP JUMPDEST CALLVALUE PUSH2 0x4C9 JUMPI PUSH2 0x4A9 CALLDATASIZE PUSH1 0x4 PUSH2 0x3EA JUMP JUMPDEST PUSH2 0x4C5 PUSH2 0x4B4 PUSH2 0x42F JUMP JUMPDEST PUSH2 0x4BC PUSH2 0x93 JUMP JUMPDEST SWAP2 DUP3 SWAP2 DUP3 PUSH2 0x483 JUMP JUMPDEST SUB SWAP1 RETURN JUMPDEST PUSH2 0x99 JUMP JUMPDEST CALLVALUE PUSH2 0x4FC JUMPI PUSH2 0x4DE CALLDATASIZE PUSH1 0x4 PUSH2 0x3EA JUMP JUMPDEST PUSH2 0x4E6 PUSH2 0x9CB JUMP JUMPDEST PUSH2 0x4EE PUSH2 0x93 JUMP JUMPDEST DUP1 PUSH2 0x4F8 DUP2 PUSH2 0x3B1 JUMP JUMPDEST SUB SWAP1 RETURN JUMPDEST PUSH2 0x99 JUMP JUMPDEST CALLVALUE PUSH2 0x53E JUMPI PUSH2 0x53A PUSH2 0x529 PUSH2 0x517 CALLDATASIZE PUSH1 0x4 PUSH2 0x22F JUMP JUMPDEST SWAP9 SWAP8 SWAP1 SWAP8 SWAP7 SWAP2 SWAP7 SWAP6 SWAP3 SWAP6 SWAP5 SWAP4 SWAP5 PUSH2 0x9D5 JUMP JUMPDEST PUSH2 0x531 PUSH2 0x93 JUMP JUMPDEST SWAP2 DUP3 SWAP2 DUP3 PUSH2 0x33A JUMP JUMPDEST SUB SWAP1 RETURN JUMPDEST PUSH2 0x99 JUMP JUMPDEST CALLVALUE PUSH2 0x573 JUMPI PUSH2 0x553 CALLDATASIZE PUSH1 0x4 PUSH2 0x3EA JUMP JUMPDEST PUSH2 0x56F PUSH2 0x55E PUSH2 0xA6E JUMP JUMPDEST PUSH2 0x566 PUSH2 0x93 JUMP JUMPDEST SWAP2 DUP3 SWAP2 DUP3 PUSH2 0x33A JUMP JUMPDEST SUB SWAP1 RETURN JUMPDEST PUSH2 0x99 JUMP JUMPDEST CALLVALUE PUSH2 0x5A6 JUMPI PUSH2 0x590 PUSH2 0x58B CALLDATASIZE PUSH1 0x4 PUSH2 0x392 JUMP JUMPDEST PUSH2 0xB72 JUMP JUMPDEST PUSH2 0x598 PUSH2 0x93 JUMP JUMPDEST DUP1 PUSH2 0x5A2 DUP2 PUSH2 0x3B1 JUMP JUMPDEST SUB SWAP1 RETURN JUMPDEST PUSH2 0x99 JUMP JUMPDEST PUSH1 0x0 DUP1 REVERT JUMPDEST PUSH1 0x0 SWAP1 JUMP JUMPDEST MLOAD SWAP1 JUMP JUMPDEST PUSH1 0x20 SWAP2 DUP2 MSTORE ADD SWAP1 JUMP JUMPDEST PUSH1 0x0 JUMPDEST DUP4 DUP2 LT PUSH2 0x5D6 JUMPI POP POP SWAP1 PUSH1 0x0 SWAP2 ADD MSTORE JUMP JUMPDEST DUP1 PUSH1 0x20 SWAP2 DUP4 ADD MLOAD DUP2 DUP6 ADD MSTORE ADD PUSH2 0x5C5 JUMP JUMPDEST PUSH2 0x606 PUSH2 0x60F PUSH1 0x20 SWAP4 PUSH2 0x614 SWAP4 PUSH2 0x5FD DUP2 PUSH2 0x5B5 JUMP JUMPDEST SWAP4 DUP5 DUP1 SWAP4 PUSH2 0x5B9 JUMP JUMPDEST SWAP6 DUP7 SWAP2 ADD PUSH2 0x5C2 JUMP JUMPDEST PUSH2 0xED JUMP JUMPDEST ADD SWAP1 JUMP JUMPDEST PUSH2 0x621 SWAP1 PUSH2 0x1D3 JUMP JUMPDEST SWAP1 MSTORE JUMP JUMPDEST PUSH2 0x62E SWAP1 PUSH2 0x208 JUMP JUMPDEST SWAP1 MSTORE JUMP JUMPDEST SWAP5 PUSH2 0x6A5 PUSH2 0x6B0 SWAP2 PUSH2 0x697 PUSH2 0x6C4 SWAP8 PUSH2 0x689 PUSH2 0x100 SWAP12 SWAP16 SWAP15 SWAP13 SWAP7 SWAP9 PUSH2 0x67A PUSH2 0x6CB SWAP16 SWAP11 PUSH2 0x6BA SWAP11 DUP15 PUSH2 0x66D PUSH2 0x120 DUP3 ADD SWAP4 PUSH1 0x0 DUP4 ADD SWAP1 PUSH2 0x32D JUMP JUMPDEST PUSH1 0x20 DUP2 DUP5 SUB SWAP2 ADD MSTORE PUSH2 0x5E7 JUMP JUMPDEST SWAP1 DUP13 PUSH1 0x40 DUP2 DUP5 SUB SWAP2 ADD MSTORE PUSH2 0x5E7 JUMP JUMPDEST SWAP1 DUP11 DUP3 SUB PUSH1 0x60 DUP13 ADD MSTORE PUSH2 0x5E7 JUMP JUMPDEST SWAP1 DUP9 DUP3 SUB PUSH1 0x80 DUP11 ADD MSTORE PUSH2 0x5E7 JUMP JUMPDEST SWAP11 PUSH1 0xA0 DUP8 ADD SWAP1 PUSH2 0x32D JUMP JUMPDEST PUSH1 0xC0 DUP6 ADD SWAP1 PUSH2 0x618 JUMP JUMPDEST PUSH1 0xE0 DUP4 ADD SWAP1 PUSH2 0x32D JUMP JUMPDEST ADD SWAP1 PUSH2 0x625 JUMP JUMPDEST JUMP JUMPDEST PUSH1 0x20 ADD SWAP1 JUMP JUMPDEST MLOAD SWAP1 JUMP JUMPDEST SWAP1 PUSH2 0x6E9 PUSH2 0x6E4 DUP4 PUSH2 0x14B JUMP JUMPDEST PUSH2 0x136 JUMP JUMPDEST SWAP2 DUP3 MSTORE JUMP JUMPDEST PUSH2 0x6F8 PUSH1 0x0 PUSH2 0x6D7 JUMP JUMPDEST SWAP1 JUMP JUMPDEST PUSH2 0x703 PUSH2 0x6EE JUMP JUMPDEST SWAP1 JUMP JUMPDEST PUSH2 0x70F SWAP1 PUSH2 0x442 JUMP JUMPDEST SWAP1 JUMP JUMPDEST PUSH2 0x71B SWAP1 PUSH2 0x706 JUMP JUMPDEST SWAP1 JUMP JUMPDEST PUSH2 0x727 SWAP1 PUSH2 0x45E JUMP JUMPDEST SWAP1 JUMP JUMPDEST PUSH1 0x0 DUP1 REVERT JUMPDEST PUSH1 0xE0 SHL SWAP1 JUMP JUMPDEST PUSH1 0x0 SWAP2 SUB SLT PUSH2 0x740 JUMPI JUMP JUMPDEST PUSH2 0x9E JUMP JUMPDEST PUSH2 0x74D PUSH2 0x93 JUMP JUMPDEST RETURNDATASIZE PUSH1 0x0 DUP3 RETURNDATACOPY RETURNDATASIZE SWAP1 REVERT JUMPDEST PUSH2 0x7C9 SWAP1 DUP5 PUSH2 0x7A7 DUP6 PUSH2 0x798 DUP13 DUP15 SWAP16 DUP1 SWAP13 SWAP11 SWAP16 SWAP14 SWAP12 SWAP9 SWAP10 SWAP14 PUSH2 0x776 PUSH2 0x5B0 JUMP JUMPDEST POP DUP11 SWAP5 SWAP7 SWAP3 DUP14 DUP14 DUP13 SWAP1 SWAP2 SWAP3 SWAP4 SWAP5 SWAP6 PUSH2 0x78C PUSH2 0x93 JUMP JUMPDEST SWAP11 DUP12 SWAP10 PUSH1 0x20 DUP12 ADD PUSH2 0x632 JUMP JUMPDEST PUSH1 0x20 DUP3 ADD DUP2 SUB DUP3 MSTORE SUB DUP3 PUSH2 0x10D JUMP JUMPDEST PUSH2 0x7B9 PUSH2 0x7B3 DUP3 PUSH2 0x6D3 JUMP JUMPDEST SWAP2 PUSH2 0x6CD JUMP JUMPDEST KECCAK256 SWAP1 PUSH2 0x7C3 PUSH2 0x6FB JUMP JUMPDEST SWAP2 PUSH2 0xCF6 JUMP JUMPDEST SWAP9 PUSH2 0x7DB PUSH2 0x7D6 DUP12 PUSH2 0x712 JUMP JUMPDEST PUSH2 0x71E JUMP JUMPDEST SWAP6 PUSH4 0x4C62CD9B SWAP4 SWAP8 SWAP10 SWAP3 SWAP5 SWAP6 SWAP9 SWAP2 SWAP1 SWAP2 DUP8 EXTCODESIZE ISZERO PUSH2 0x89D JUMPI PUSH1 0x0 SWAP10 PUSH2 0x813 SWAP8 DUP12 SWAP8 PUSH2 0x81E SWAP7 PUSH2 0x807 PUSH2 0x93 JUMP JUMPDEST SWAP15 DUP16 SWAP14 DUP15 SWAP13 DUP14 SWAP12 PUSH2 0x72F JUMP JUMPDEST DUP12 MSTORE PUSH1 0x4 DUP12 ADD PUSH2 0x632 JUMP JUMPDEST SUB SWAP3 GAS CALL DUP1 ISZERO PUSH2 0x898 JUMPI PUSH2 0x86B JUMPI JUMPDEST POP DUP1 PUSH2 0x865 PUSH32 0xD8AD75647A93DE9D8D617559D87F1C27BC23FB6237B94054BAF34AAFBE85AD03 SWAP2 PUSH2 0x85C PUSH2 0x93 JUMP JUMPDEST SWAP2 DUP3 SWAP2 DUP3 PUSH2 0x33A JUMP JUMPDEST SUB SWAP1 LOG1 SWAP1 JUMP JUMPDEST PUSH2 0x88B SWAP1 PUSH1 0x0 RETURNDATASIZE DUP2 GT PUSH2 0x891 JUMPI JUMPDEST PUSH2 0x883 DUP2 DUP4 PUSH2 0x10D JUMP JUMPDEST DUP2 ADD SWAP1 PUSH2 0x735 JUMP JUMPDEST CODESIZE PUSH2 0x82D JUMP JUMPDEST POP RETURNDATASIZE PUSH2 0x879 JUMP JUMPDEST PUSH2 0x745 JUMP JUMPDEST PUSH2 0x72A JUMP JUMPDEST PUSH2 0x8B3 SWAP1 PUSH2 0x8AE PUSH2 0xEB8 JUMP JUMPDEST PUSH2 0x8DC JUMP JUMPDEST JUMP JUMPDEST PUSH1 0x0 SHR SWAP1 JUMP JUMPDEST PUSH2 0x8C7 PUSH2 0x8CC SWAP2 PUSH2 0x8B5 JUMP JUMPDEST PUSH2 0x3FE JUMP JUMPDEST SWAP1 JUMP JUMPDEST PUSH2 0x8D9 SWAP1 SLOAD PUSH2 0x8BB JUMP JUMPDEST SWAP1 JUMP JUMPDEST PUSH2 0x8EE PUSH2 0x8E9 PUSH1 0x1 PUSH2 0x8CF JUMP JUMPDEST PUSH2 0x46A JUMP JUMPDEST SWAP1 PUSH4 0x3659CFE6 SWAP1 DUP3 EXTCODESIZE ISZERO PUSH2 0x96A JUMPI PUSH2 0x926 SWAP3 PUSH2 0x91B PUSH1 0x0 DUP1 SWAP5 PUSH2 0x90F PUSH2 0x93 JUMP JUMPDEST SWAP7 DUP8 SWAP6 DUP7 SWAP5 DUP6 SWAP4 PUSH2 0x72F JUMP JUMPDEST DUP4 MSTORE PUSH1 0x4 DUP4 ADD PUSH2 0x33A JUMP JUMPDEST SUB SWAP3 GAS CALL DUP1 ISZERO PUSH2 0x965 JUMPI PUSH2 0x938 JUMPI JUMPDEST POP JUMP JUMPDEST PUSH2 0x958 SWAP1 PUSH1 0x0 RETURNDATASIZE DUP2 GT PUSH2 0x95E JUMPI JUMPDEST PUSH2 0x950 DUP2 DUP4 PUSH2 0x10D JUMP JUMPDEST DUP2 ADD SWAP1 PUSH2 0x735 JUMP JUMPDEST CODESIZE PUSH2 0x935 JUMP JUMPDEST POP RETURNDATASIZE PUSH2 0x946 JUMP JUMPDEST PUSH2 0x745 JUMP JUMPDEST PUSH2 0x72A JUMP JUMPDEST PUSH2 0x978 SWAP1 PUSH2 0x8A2 JUMP JUMPDEST JUMP JUMPDEST PUSH2 0x982 PUSH2 0xEB8 JUMP JUMPDEST PUSH2 0x98A PUSH2 0x9B7 JUMP JUMPDEST JUMP JUMPDEST SWAP1 JUMP JUMPDEST PUSH2 0x9A3 PUSH2 0x99E PUSH2 0x9A8 SWAP3 PUSH2 0x98C JUMP JUMPDEST PUSH2 0x43F JUMP JUMPDEST PUSH2 0xA8 JUMP JUMPDEST SWAP1 JUMP JUMPDEST PUSH2 0x9B4 SWAP1 PUSH2 0x98F JUMP JUMPDEST SWAP1 JUMP JUMPDEST PUSH2 0x9C9 PUSH2 0x9C4 PUSH1 0x0 PUSH2 0x9AB JUMP JUMPDEST PUSH2 0xF34 JUMP JUMPDEST JUMP JUMPDEST PUSH2 0x9D3 PUSH2 0x97A JUMP JUMPDEST JUMP JUMPDEST SWAP8 SWAP1 SWAP7 PUSH2 0xA1D SWAP7 PUSH2 0xA3F SWAP11 SWAP4 SWAP7 PUSH2 0xA0E SWAP7 SWAP6 SWAP10 PUSH2 0x9F0 PUSH2 0x5B0 JUMP JUMPDEST POP SWAP8 SWAP10 SWAP6 SWAP1 SWAP2 SWAP3 SWAP4 SWAP5 SWAP6 PUSH2 0xA02 PUSH2 0x93 JUMP JUMPDEST SWAP11 DUP12 SWAP10 PUSH1 0x20 DUP12 ADD PUSH2 0x632 JUMP JUMPDEST PUSH1 0x20 DUP3 ADD DUP2 SUB DUP3 MSTORE SUB DUP3 PUSH2 0x10D JUMP JUMPDEST PUSH2 0xA2F PUSH2 0xA29 DUP3 PUSH2 0x6D3 JUMP JUMPDEST SWAP2 PUSH2 0x6CD JUMP JUMPDEST KECCAK256 SWAP1 PUSH2 0xA39 PUSH2 0x6FB JUMP JUMPDEST SWAP2 PUSH2 0xF95 JUMP JUMPDEST SWAP1 JUMP JUMPDEST PUSH1 0x1 DUP1 PUSH1 0xA0 SHL SUB AND SWAP1 JUMP JUMPDEST PUSH2 0xA59 PUSH2 0xA5E SWAP2 PUSH2 0x8B5 JUMP JUMPDEST PUSH2 0xA42 JUMP JUMPDEST SWAP1 JUMP JUMPDEST PUSH2 0xA6B SWAP1 SLOAD PUSH2 0xA4D JUMP JUMPDEST SWAP1 JUMP JUMPDEST PUSH2 0xA76 PUSH2 0x5B0 JUMP JUMPDEST POP PUSH2 0xA81 PUSH1 0x0 PUSH2 0xA61 JUMP JUMPDEST SWAP1 JUMP JUMPDEST PUSH2 0xA95 SWAP1 PUSH2 0xA90 PUSH2 0xEB8 JUMP JUMPDEST PUSH2 0xB41 JUMP JUMPDEST JUMP JUMPDEST PUSH1 0x20 PUSH32 0x6464726573730000000000000000000000000000000000000000000000000000 SWAP2 PUSH32 0x4F776E61626C653A206E6577206F776E657220697320746865207A65726F2061 PUSH1 0x0 DUP3 ADD MSTORE ADD MSTORE JUMP JUMPDEST PUSH2 0xAF2 PUSH1 0x26 PUSH1 0x40 SWAP3 PUSH2 0x5B9 JUMP JUMPDEST PUSH2 0xAFB DUP2 PUSH2 0xA97 JUMP JUMPDEST ADD SWAP1 JUMP JUMPDEST PUSH2 0xB15 SWAP1 PUSH1 0x20 DUP2 ADD SWAP1 PUSH1 0x0 DUP2 DUP4 SUB SWAP2 ADD MSTORE PUSH2 0xAE5 JUMP JUMPDEST SWAP1 JUMP JUMPDEST ISZERO PUSH2 0xB1F JUMPI JUMP JUMPDEST PUSH2 0xB27 PUSH2 0x93 JUMP JUMPDEST PUSH3 0x461BCD PUSH1 0xE5 SHL DUP2 MSTORE DUP1 PUSH2 0xB3D PUSH1 0x4 DUP3 ADD PUSH2 0xAFF JUMP JUMPDEST SUB SWAP1 REVERT JUMPDEST PUSH2 0xB70 SWAP1 PUSH2 0xB6B DUP2 PUSH2 0xB64 PUSH2 0xB5E PUSH2 0xB59 PUSH1 0x0 PUSH2 0x9AB JUMP JUMPDEST PUSH2 0xB3 JUMP JUMPDEST SWAP2 PUSH2 0xB3 JUMP JUMPDEST EQ ISZERO PUSH2 0xB18 JUMP JUMPDEST PUSH2 0xF34 JUMP JUMPDEST JUMP JUMPDEST PUSH2 0xB7B SWAP1 PUSH2 0xA84 JUMP JUMPDEST JUMP JUMPDEST SWAP1 JUMP JUMPDEST PUSH2 0xB8C PUSH2 0xB91 SWAP2 PUSH2 0x208 JUMP JUMPDEST PUSH2 0xB7D JUMP JUMPDEST SWAP1 MSTORE JUMP JUMPDEST PUSH1 0x60 SHL SWAP1 JUMP JUMPDEST PUSH2 0xBA4 SWAP1 PUSH2 0xB95 JUMP JUMPDEST SWAP1 JUMP JUMPDEST PUSH2 0xBB0 SWAP1 PUSH2 0xB9B JUMP JUMPDEST SWAP1 JUMP JUMPDEST PUSH2 0xBBF PUSH2 0xBC4 SWAP2 PUSH2 0xB3 JUMP JUMPDEST PUSH2 0xBA7 JUMP JUMPDEST SWAP1 MSTORE JUMP JUMPDEST SWAP1 POP SWAP1 JUMP JUMPDEST PUSH2 0xBF2 PUSH2 0xBE9 SWAP3 PUSH1 0x20 SWAP3 PUSH2 0xBE0 DUP2 PUSH2 0x6D3 JUMP JUMPDEST SWAP5 DUP6 DUP1 SWAP4 PUSH2 0xBC8 JUMP JUMPDEST SWAP4 DUP5 SWAP2 ADD PUSH2 0x5C2 JUMP JUMPDEST ADD SWAP1 JUMP JUMPDEST PUSH1 0x14 DUP1 SWAP4 PUSH2 0xC1A PUSH1 0x20 DUP5 PUSH2 0xC12 PUSH2 0xC22 SWAP7 PUSH2 0xC29 SWAP12 SWAP11 SWAP9 PUSH2 0xB80 JUMP JUMPDEST ADD DUP1 SWAP3 PUSH2 0xBB3 JUMP JUMPDEST ADD DUP1 SWAP3 PUSH2 0xBB3 JUMP JUMPDEST ADD SWAP1 PUSH2 0xBCD JUMP JUMPDEST SWAP1 JUMP JUMPDEST SWAP1 JUMP JUMPDEST PUSH2 0xC43 PUSH2 0xC3E PUSH2 0xC48 SWAP3 PUSH2 0x98C JUMP JUMPDEST PUSH2 0x43F JUMP JUMPDEST PUSH2 0xC2C JUMP JUMPDEST SWAP1 JUMP JUMPDEST PUSH2 0xC54 SWAP1 PUSH2 0x442 JUMP JUMPDEST SWAP1 JUMP JUMPDEST PUSH2 0xC60 SWAP1 PUSH2 0xC4B JUMP JUMPDEST SWAP1 JUMP JUMPDEST PUSH2 0xC6C SWAP1 PUSH2 0x442 JUMP JUMPDEST SWAP1 JUMP JUMPDEST PUSH2 0xC78 SWAP1 PUSH2 0xC63 JUMP JUMPDEST SWAP1 JUMP JUMPDEST PUSH2 0xC84 SWAP1 PUSH2 0x45E JUMP JUMPDEST SWAP1 JUMP JUMPDEST PUSH1 0x20 SWAP2 DUP2 MSTORE ADD SWAP1 JUMP JUMPDEST PUSH2 0xCAF PUSH2 0xCB8 PUSH1 0x20 SWAP4 PUSH2 0xCBD SWAP4 PUSH2 0xCA6 DUP2 PUSH2 0x6D3 JUMP JUMPDEST SWAP4 DUP5 DUP1 SWAP4 PUSH2 0xC87 JUMP JUMPDEST SWAP6 DUP7 SWAP2 ADD PUSH2 0x5C2 JUMP JUMPDEST PUSH2 0xED JUMP JUMPDEST ADD SWAP1 JUMP JUMPDEST PUSH2 0xCE6 PUSH2 0xCF3 SWAP5 SWAP3 SWAP4 PUSH2 0xCDC PUSH1 0x60 DUP5 ADD SWAP6 PUSH1 0x0 DUP6 ADD SWAP1 PUSH2 0x32D JUMP JUMPDEST PUSH1 0x20 DUP4 ADD SWAP1 PUSH2 0x32D JUMP JUMPDEST PUSH1 0x40 DUP2 DUP5 SUB SWAP2 ADD MSTORE PUSH2 0xC90 JUMP JUMPDEST SWAP1 JUMP JUMPDEST PUSH2 0xD86 SWAP1 SWAP4 SWAP3 SWAP2 SWAP4 PUSH2 0xD06 PUSH2 0x5B0 JUMP JUMPDEST POP PUSH2 0xD46 DUP6 SWAP2 PUSH2 0xD37 PUSH2 0xD21 PUSH2 0xD1C PUSH1 0x1 PUSH2 0x8CF JUMP JUMPDEST PUSH2 0x46A JUMP JUMPDEST DUP7 SWAP1 PUSH2 0xD2B PUSH2 0x93 JUMP JUMPDEST SWAP6 DUP7 SWAP5 PUSH1 0x20 DUP7 ADD PUSH2 0xBF6 JUMP JUMPDEST PUSH1 0x20 DUP3 ADD DUP2 SUB DUP3 MSTORE SUB DUP3 PUSH2 0x10D JUMP JUMPDEST PUSH2 0xD58 PUSH2 0xD52 DUP3 PUSH2 0x6D3 JUMP JUMPDEST SWAP2 PUSH2 0x6CD JUMP JUMPDEST KECCAK256 PUSH2 0x148A PUSH2 0xD68 PUSH1 0x20 DUP3 ADD PUSH2 0x136 JUMP JUMPDEST SWAP1 DUP1 DUP3 MSTORE PUSH2 0x12A3 PUSH1 0x20 DUP4 ADD CODECOPY PUSH2 0xD81 PUSH1 0x0 SWAP3 SWAP2 SWAP3 PUSH2 0xC2F JUMP JUMPDEST PUSH2 0x11C2 JUMP JUMPDEST SWAP3 PUSH2 0xDA0 PUSH2 0xD9B PUSH2 0xD96 DUP7 PUSH2 0xC57 JUMP JUMPDEST PUSH2 0xC6F JUMP JUMPDEST PUSH2 0xC7B JUMP JUMPDEST PUSH4 0xCF7A1D77 SWAP2 SWAP1 PUSH2 0xDB9 PUSH2 0xDB4 PUSH1 0x1 PUSH2 0x8CF JUMP JUMPDEST PUSH2 0x46A JUMP JUMPDEST SWAP4 SWAP3 DUP2 EXTCODESIZE ISZERO PUSH2 0xE30 JUMPI PUSH1 0x0 PUSH2 0xDE1 SWAP2 PUSH2 0xDEC DUP3 SWAP7 PUSH2 0xDD5 PUSH2 0x93 JUMP JUMPDEST SWAP9 DUP10 SWAP8 DUP9 SWAP7 DUP8 SWAP6 PUSH2 0x72F JUMP JUMPDEST DUP6 MSTORE PUSH1 0x4 DUP6 ADD PUSH2 0xCC1 JUMP JUMPDEST SUB SWAP3 GAS CALL DUP1 ISZERO PUSH2 0xE2B JUMPI PUSH2 0xDFE JUMPI JUMPDEST POP JUMP JUMPDEST PUSH2 0xE1E SWAP1 PUSH1 0x0 RETURNDATASIZE DUP2 GT PUSH2 0xE24 JUMPI JUMPDEST PUSH2 0xE16 DUP2 DUP4 PUSH2 0x10D JUMP JUMPDEST DUP2 ADD SWAP1 PUSH2 0x735 JUMP JUMPDEST CODESIZE PUSH2 0xDFB JUMP JUMPDEST POP RETURNDATASIZE PUSH2 0xE0C JUMP JUMPDEST PUSH2 0x745 JUMP JUMPDEST PUSH2 0x72A JUMP JUMPDEST PUSH1 0x0 PUSH32 0x4F776E61626C653A2063616C6C6572206973206E6F7420746865206F776E6572 SWAP2 ADD MSTORE JUMP JUMPDEST PUSH2 0xE69 PUSH1 0x20 DUP1 SWAP3 PUSH2 0x5B9 JUMP JUMPDEST PUSH2 0xE72 DUP2 PUSH2 0xE35 JUMP JUMPDEST ADD SWAP1 JUMP JUMPDEST PUSH2 0xE8C SWAP1 PUSH1 0x20 DUP2 ADD SWAP1 PUSH1 0x0 DUP2 DUP4 SUB SWAP2 ADD MSTORE PUSH2 0xE5D JUMP JUMPDEST SWAP1 JUMP JUMPDEST ISZERO PUSH2 0xE96 JUMPI JUMP JUMPDEST PUSH2 0xE9E PUSH2 0x93 JUMP JUMPDEST PUSH3 0x461BCD PUSH1 0xE5 SHL DUP2 MSTORE DUP1 PUSH2 0xEB4 PUSH1 0x4 DUP3 ADD PUSH2 0xE76 JUMP JUMPDEST SUB SWAP1 REVERT JUMPDEST PUSH2 0xEE2 PUSH2 0xEC3 PUSH2 0xA6E JUMP JUMPDEST PUSH2 0xEDC PUSH2 0xED6 PUSH2 0xED1 PUSH2 0x124B JUMP JUMPDEST PUSH2 0xB3 JUMP JUMPDEST SWAP2 PUSH2 0xB3 JUMP JUMPDEST EQ PUSH2 0xE8F JUMP JUMPDEST JUMP JUMPDEST PUSH1 0x0 SHL SWAP1 JUMP JUMPDEST SWAP1 PUSH2 0xEFB PUSH1 0x1 DUP1 PUSH1 0xA0 SHL SUB SWAP2 PUSH2 0xEE4 JUMP JUMPDEST SWAP2 DUP2 NOT AND SWAP2 AND OR SWAP1 JUMP JUMPDEST PUSH2 0xF0E SWAP1 PUSH2 0x45E JUMP JUMPDEST SWAP1 JUMP JUMPDEST SWAP1 JUMP JUMPDEST SWAP1 PUSH2 0xF29 PUSH2 0xF24 PUSH2 0xF30 SWAP3 PUSH2 0xF05 JUMP JUMPDEST PUSH2 0xF11 JUMP JUMPDEST DUP3 SLOAD PUSH2 0xEEA JUMP JUMPDEST SWAP1 SSTORE JUMP JUMPDEST PUSH2 0xF3E PUSH1 0x0 PUSH2 0xA61 JUMP JUMPDEST PUSH2 0xF49 DUP3 PUSH1 0x0 PUSH2 0xF14 JUMP JUMPDEST SWAP1 PUSH2 0xF7D PUSH2 0xF77 PUSH32 0x8BE0079C531659141344CD1FD0A4F28419497F9722A3DAAFE3B4186F6B6457E0 SWAP4 PUSH2 0xF05 JUMP JUMPDEST SWAP2 PUSH2 0xF05 JUMP JUMPDEST SWAP2 PUSH2 0xF86 PUSH2 0x93 JUMP JUMPDEST DUP1 PUSH2 0xF90 DUP2 PUSH2 0x3B1 JUMP JUMPDEST SUB SWAP1 LOG3 JUMP JUMPDEST PUSH2 0x1028 SWAP3 SWAP2 PUSH2 0xFD2 PUSH2 0xFE1 SWAP3 PUSH2 0xFA9 PUSH2 0x5B0 JUMP JUMPDEST POP SWAP2 SWAP4 PUSH2 0xFBE PUSH2 0xFB9 PUSH1 0x1 PUSH2 0x8CF JUMP JUMPDEST PUSH2 0x46A JUMP JUMPDEST PUSH2 0xFC6 PUSH2 0x93 JUMP JUMPDEST SWAP6 DUP7 SWAP5 PUSH1 0x20 DUP7 ADD PUSH2 0xBF6 JUMP JUMPDEST PUSH1 0x20 DUP3 ADD DUP2 SUB DUP3 MSTORE SUB DUP3 PUSH2 0x10D JUMP JUMPDEST PUSH2 0xFF3 PUSH2 0xFED DUP3 PUSH2 0x6D3 JUMP JUMPDEST SWAP2 PUSH2 0x6CD JUMP JUMPDEST KECCAK256 PUSH2 0x148A PUSH2 0x1003 PUSH1 0x20 DUP3 ADD PUSH2 0x136 JUMP JUMPDEST SWAP1 DUP1 DUP3 MSTORE PUSH2 0x12A3 PUSH1 0x20 DUP4 ADD CODECOPY PUSH2 0x1021 PUSH2 0x101B DUP3 PUSH2 0x6D3 JUMP JUMPDEST SWAP2 PUSH2 0x6CD JUMP JUMPDEST KECCAK256 SWAP1 PUSH2 0x1258 JUMP JUMPDEST SWAP1 JUMP JUMPDEST PUSH2 0x1034 SWAP1 PUSH2 0x45E JUMP JUMPDEST SWAP1 JUMP JUMPDEST PUSH1 0x0 PUSH32 0x437265617465323A20696E73756666696369656E742062616C616E6365000000 SWAP2 ADD MSTORE JUMP JUMPDEST PUSH2 0x106C PUSH1 0x1D PUSH1 0x20 SWAP3 PUSH2 0x5B9 JUMP JUMPDEST PUSH2 0x1075 DUP2 PUSH2 0x1037 JUMP JUMPDEST ADD SWAP1 JUMP JUMPDEST PUSH2 0x108F SWAP1 PUSH1 0x20 DUP2 ADD SWAP1 PUSH1 0x0 DUP2 DUP4 SUB SWAP2 ADD MSTORE PUSH2 0x105F JUMP JUMPDEST SWAP1 JUMP JUMPDEST ISZERO PUSH2 0x1099 JUMPI JUMP JUMPDEST PUSH2 0x10A1 PUSH2 0x93 JUMP JUMPDEST PUSH3 0x461BCD PUSH1 0xE5 SHL DUP2 MSTORE DUP1 PUSH2 0x10B7 PUSH1 0x4 DUP3 ADD PUSH2 0x1079 JUMP JUMPDEST SUB SWAP1 REVERT JUMPDEST PUSH1 0x0 PUSH32 0x437265617465323A2062797465636F6465206C656E677468206973207A65726F SWAP2 ADD MSTORE JUMP JUMPDEST PUSH2 0x10EF PUSH1 0x20 DUP1 SWAP3 PUSH2 0x5B9 JUMP JUMPDEST PUSH2 0x10F8 DUP2 PUSH2 0x10BB JUMP JUMPDEST ADD SWAP1 JUMP JUMPDEST PUSH2 0x1112 SWAP1 PUSH1 0x20 DUP2 ADD SWAP1 PUSH1 0x0 DUP2 DUP4 SUB SWAP2 ADD MSTORE PUSH2 0x10E3 JUMP JUMPDEST SWAP1 JUMP JUMPDEST ISZERO PUSH2 0x111C JUMPI JUMP JUMPDEST PUSH2 0x1124 PUSH2 0x93 JUMP JUMPDEST PUSH3 0x461BCD PUSH1 0xE5 SHL DUP2 MSTORE DUP1 PUSH2 0x113A PUSH1 0x4 DUP3 ADD PUSH2 0x10FC JUMP JUMPDEST SUB SWAP1 REVERT JUMPDEST PUSH1 0x0 PUSH32 0x437265617465323A204661696C6564206F6E206465706C6F7900000000000000 SWAP2 ADD MSTORE JUMP JUMPDEST PUSH2 0x1173 PUSH1 0x19 PUSH1 0x20 SWAP3 PUSH2 0x5B9 JUMP JUMPDEST PUSH2 0x117C DUP2 PUSH2 0x113E JUMP JUMPDEST ADD SWAP1 JUMP JUMPDEST PUSH2 0x1196 SWAP1 PUSH1 0x20 DUP2 ADD SWAP1 PUSH1 0x0 DUP2 DUP4 SUB SWAP2 ADD MSTORE PUSH2 0x1166 JUMP JUMPDEST SWAP1 JUMP JUMPDEST ISZERO PUSH2 0x11A0 JUMPI JUMP JUMPDEST PUSH2 0x11A8 PUSH2 0x93 JUMP JUMPDEST PUSH3 0x461BCD PUSH1 0xE5 SHL DUP2 MSTORE DUP1 PUSH2 0x11BE PUSH1 0x4 DUP3 ADD PUSH2 0x1180 JUMP JUMPDEST SUB SWAP1 REVERT JUMPDEST SWAP2 SWAP1 SWAP2 PUSH2 0x11CD PUSH2 0x5B0 JUMP JUMPDEST POP PUSH2 0x11F4 PUSH2 0x11DA ADDRESS PUSH2 0x102B JUMP JUMPDEST BALANCE PUSH2 0x11ED PUSH2 0x11E7 DUP5 PUSH2 0xC2C JUMP JUMPDEST SWAP2 PUSH2 0xC2C JUMP JUMPDEST LT ISZERO PUSH2 0x1092 JUMP JUMPDEST PUSH2 0x121A PUSH2 0x1200 DUP4 PUSH2 0x6D3 JUMP JUMPDEST PUSH2 0x1213 PUSH2 0x120D PUSH1 0x0 PUSH2 0xC2F JUMP JUMPDEST SWAP2 PUSH2 0xC2C JUMP JUMPDEST EQ ISZERO PUSH2 0x1115 JUMP JUMPDEST PUSH1 0x20 DUP3 MLOAD SWAP3 ADD SWAP1 CREATE2 SWAP1 PUSH2 0x1249 DUP3 PUSH2 0x1242 PUSH2 0x123C PUSH2 0x1237 PUSH1 0x0 PUSH2 0x9AB JUMP JUMPDEST PUSH2 0xB3 JUMP JUMPDEST SWAP2 PUSH2 0xB3 JUMP JUMPDEST EQ ISZERO PUSH2 0x1199 JUMP JUMPDEST JUMP JUMPDEST PUSH2 0x1253 PUSH2 0x5B0 JUMP JUMPDEST POP CALLER SWAP1 JUMP JUMPDEST SWAP1 PUSH2 0x1276 SWAP2 PUSH2 0x1265 PUSH2 0x5B0 JUMP JUMPDEST POP SWAP1 PUSH2 0x1270 ADDRESS PUSH2 0x102B JUMP JUMPDEST SWAP2 PUSH2 0x1279 JUMP JUMPDEST SWAP1 JUMP JUMPDEST SWAP1 PUSH1 0x55 SWAP3 PUSH1 0xB SWAP3 PUSH2 0x1288 PUSH2 0x5B0 JUMP JUMPDEST POP PUSH1 0x40 MLOAD SWAP3 PUSH1 0x40 DUP5 ADD MSTORE PUSH1 0x20 DUP4 ADD MSTORE DUP2 MSTORE ADD PUSH1 0xFF DUP2 MSTORE8 KECCAK256 SWAP1 JUMP INVALID PUSH1 0x80 PUSH1 0x40 MSTORE CALLVALUE PUSH1 0x1C JUMPI PUSH1 0xE PUSH1 0x20 JUMP JUMPDEST PUSH2 0x145E PUSH2 0x2C DUP3 CODECOPY PUSH2 0x145E SWAP1 RETURN JUMPDEST PUSH1 0x26 JUMP JUMPDEST PUSH1 0x40 MLOAD SWAP1 JUMP JUMPDEST PUSH1 0x0 DUP1 REVERT INVALID PUSH1 0x80 PUSH1 0x40 MSTORE CALLDATASIZE ISZERO PUSH2 0x6B JUMPI PUSH2 0x6B JUMP JUMPDEST SWAP1 JUMP JUMPDEST PUSH1 0x1 DUP1 PUSH1 0xA0 SHL SUB AND SWAP1 JUMP JUMPDEST SWAP1 JUMP JUMPDEST PUSH2 0x34 PUSH2 0x2F PUSH2 0x39 SWAP3 PUSH2 0xF JUMP JUMPDEST PUSH2 0x1D JUMP JUMPDEST PUSH2 0x12 JUMP JUMPDEST SWAP1 JUMP JUMPDEST PUSH2 0x45 SWAP1 PUSH2 0x20 JUMP JUMPDEST SWAP1 JUMP JUMPDEST PUSH2 0x51 SWAP1 PUSH2 0x12 JUMP JUMPDEST SWAP1 JUMP JUMPDEST PUSH1 0x60 SWAP1 JUMP JUMPDEST PUSH4 0xFFFFFFFF PUSH1 0xE0 SHL AND SWAP1 JUMP JUMPDEST PUSH1 0x0 ADD SWAP1 JUMP JUMPDEST PUSH2 0x73 PUSH2 0x17E JUMP JUMPDEST PUSH2 0x8E PUSH2 0x88 PUSH2 0x83 PUSH1 0x0 PUSH2 0x3C JUMP JUMPDEST PUSH2 0x48 JUMP JUMPDEST SWAP2 PUSH2 0x48 JUMP JUMPDEST SUB PUSH2 0x46C JUMPI PUSH2 0x9B PUSH2 0x54 JUMP JUMPDEST POP PUSH4 0xFFFFFFFF PUSH1 0xE0 SHL PUSH1 0x0 CALLDATALOAD AND PUSH2 0xC1 PUSH2 0xBB PUSH4 0xCF7A1D77 PUSH1 0xE0 SHL PUSH2 0x59 JUMP JUMPDEST SWAP2 PUSH2 0x59 JUMP JUMPDEST EQ PUSH2 0xE3 JUMPI PUSH1 0x0 PUSH4 0xF92EE8A9 PUSH1 0xE0 SHL DUP2 MSTORE DUP1 PUSH2 0xDF PUSH1 0x4 DUP3 ADD PUSH2 0x65 JUMP JUMPDEST SUB SWAP1 REVERT JUMPDEST PUSH2 0xEB PUSH2 0x401 JUMP JUMPDEST PUSH1 0x20 DUP2 MLOAD SWAP2 ADD RETURN JUMPDEST PUSH1 0x0 SWAP1 JUMP JUMPDEST SWAP1 JUMP JUMPDEST SWAP1 JUMP JUMPDEST PUSH1 0x0 SHL SWAP1 JUMP JUMPDEST PUSH2 0x118 PUSH2 0x113 PUSH2 0x11D SWAP3 PUSH2 0xF8 JUMP JUMPDEST PUSH2 0xFE JUMP JUMPDEST PUSH2 0xFB JUMP JUMPDEST SWAP1 JUMP JUMPDEST PUSH2 0x149 PUSH32 0xB53127684A568B3173AE13B9F8A6016E243E63B6E8EE1178D6A717850B5D6103 PUSH2 0x104 JUMP JUMPDEST SWAP1 JUMP JUMPDEST PUSH1 0x0 SHR SWAP1 JUMP JUMPDEST PUSH1 0x1 DUP1 PUSH1 0xA0 SHL SUB AND SWAP1 JUMP JUMPDEST PUSH2 0x169 PUSH2 0x16E SWAP2 PUSH2 0x14C JUMP JUMPDEST PUSH2 0x152 JUMP JUMPDEST SWAP1 JUMP JUMPDEST PUSH2 0x17B SWAP1 SLOAD PUSH2 0x15D JUMP JUMPDEST SWAP1 JUMP JUMPDEST PUSH2 0x186 PUSH2 0xF3 JUMP JUMPDEST POP PUSH2 0x1A2 PUSH1 0x0 PUSH2 0x19C PUSH2 0x197 PUSH2 0x120 JUMP JUMPDEST PUSH2 0x5A2 JUMP JUMPDEST ADD PUSH2 0x171 JUMP JUMPDEST SWAP1 JUMP JUMPDEST SWAP1 JUMP JUMPDEST SWAP1 JUMP JUMPDEST PUSH2 0x1BF PUSH2 0x1BA PUSH2 0x1C4 SWAP3 PUSH2 0x1A5 JUMP JUMPDEST PUSH2 0x1D JUMP JUMPDEST PUSH2 0x1A8 JUMP JUMPDEST SWAP1 JUMP JUMPDEST PUSH1 0x40 MLOAD SWAP1 JUMP JUMPDEST PUSH1 0x0 DUP1 REVERT JUMPDEST PUSH1 0x0 DUP1 REVERT JUMPDEST SWAP1 SWAP4 SWAP3 SWAP4 DUP5 DUP4 GT PUSH2 0x1F7 JUMPI DUP5 GT PUSH2 0x1F2 JUMPI PUSH1 0x1 DUP3 MUL ADD SWAP3 SUB SWAP1 JUMP JUMPDEST PUSH2 0x1D2 JUMP JUMPDEST PUSH2 0x1CD JUMP JUMPDEST SWAP2 JUMP JUMPDEST PUSH1 0x0 DUP1 REVERT JUMPDEST PUSH1 0x0 DUP1 REVERT JUMPDEST PUSH2 0x212 SWAP1 PUSH2 0x12 JUMP JUMPDEST SWAP1 JUMP JUMPDEST PUSH2 0x21E DUP2 PUSH2 0x209 JUMP JUMPDEST SUB PUSH2 0x225 JUMPI JUMP JUMPDEST PUSH1 0x0 DUP1 REVERT JUMPDEST SWAP1 POP CALLDATALOAD SWAP1 PUSH2 0x237 DUP3 PUSH2 0x215 JUMP JUMPDEST JUMP JUMPDEST PUSH1 0x0 DUP1 REVERT JUMPDEST PUSH1 0x0 DUP1 REVERT JUMPDEST PUSH1 0x1F DUP1 NOT SWAP2 ADD AND SWAP1 JUMP JUMPDEST PUSH4 0x4E487B71 PUSH1 0xE0 SHL PUSH1 0x0 MSTORE PUSH1 0x41 PUSH1 0x4 MSTORE PUSH1 0x24 PUSH1 0x0 REVERT JUMPDEST SWAP1 PUSH2 0x26D SWAP1 PUSH2 0x243 JUMP JUMPDEST DUP2 ADD SWAP1 DUP2 LT PUSH8 0xFFFFFFFFFFFFFFFF DUP3 GT OR PUSH2 0x287 JUMPI PUSH1 0x40 MSTORE JUMP JUMPDEST PUSH2 0x24D JUMP JUMPDEST SWAP1 PUSH2 0x29F PUSH2 0x298 PUSH2 0x1C7 JUMP JUMPDEST SWAP3 DUP4 PUSH2 0x263 JUMP JUMPDEST JUMP JUMPDEST PUSH8 0xFFFFFFFFFFFFFFFF DUP2 GT PUSH2 0x2BF JUMPI PUSH2 0x2BB PUSH1 0x20 SWAP2 PUSH2 0x243 JUMP JUMPDEST ADD SWAP1 JUMP JUMPDEST PUSH2 0x24D JUMP JUMPDEST SWAP1 DUP3 PUSH1 0x0 SWAP4 SWAP3 DUP3 CALLDATACOPY ADD MSTORE JUMP JUMPDEST SWAP1 SWAP3 SWAP2 SWAP3 PUSH2 0x2E5 PUSH2 0x2E0 DUP3 PUSH2 0x2A1 JUMP JUMPDEST PUSH2 0x28C JUMP JUMPDEST SWAP4 DUP2 DUP6 MSTORE PUSH1 0x20 DUP6 ADD SWAP1 DUP3 DUP5 ADD GT PUSH2 0x301 JUMPI PUSH2 0x2FF SWAP3 PUSH2 0x2C4 JUMP JUMPDEST JUMP JUMPDEST PUSH2 0x23E JUMP JUMPDEST SWAP1 DUP1 PUSH1 0x1F DUP4 ADD SLT ISZERO PUSH2 0x324 JUMPI DUP2 PUSH1 0x20 PUSH2 0x321 SWAP4 CALLDATALOAD SWAP2 ADD PUSH2 0x2D0 JUMP JUMPDEST SWAP1 JUMP JUMPDEST PUSH2 0x239 JUMP JUMPDEST SWAP2 PUSH1 0x60 DUP4 DUP4 SUB SLT PUSH2 0x376 JUMPI PUSH2 0x341 DUP3 PUSH1 0x0 DUP6 ADD PUSH2 0x22A JUMP JUMPDEST SWAP3 PUSH2 0x34F DUP4 PUSH1 0x20 DUP4 ADD PUSH2 0x22A JUMP JUMPDEST SWAP3 PUSH1 0x40 DUP3 ADD CALLDATALOAD PUSH8 0xFFFFFFFFFFFFFFFF DUP2 GT PUSH2 0x371 JUMPI PUSH2 0x36E SWAP3 ADD PUSH2 0x306 JUMP JUMPDEST SWAP1 JUMP JUMPDEST PUSH2 0x204 JUMP JUMPDEST PUSH2 0x1FF JUMP JUMPDEST PUSH2 0x38F PUSH2 0x38A PUSH2 0x394 SWAP3 PUSH2 0x12 JUMP JUMPDEST PUSH2 0x1D JUMP JUMPDEST PUSH2 0x12 JUMP JUMPDEST SWAP1 JUMP JUMPDEST PUSH2 0x3A0 SWAP1 PUSH2 0x37B JUMP JUMPDEST SWAP1 JUMP JUMPDEST PUSH2 0x3AC SWAP1 PUSH2 0x397 JUMP JUMPDEST SWAP1 JUMP JUMPDEST PUSH8 0xFFFFFFFFFFFFFFFF DUP2 GT PUSH2 0x3CD JUMPI PUSH2 0x3C9 PUSH1 0x20 SWAP2 PUSH2 0x243 JUMP JUMPDEST ADD SWAP1 JUMP JUMPDEST PUSH2 0x24D JUMP JUMPDEST SWAP1 PUSH2 0x3E4 PUSH2 0x3DF DUP4 PUSH2 0x3AF JUMP JUMPDEST PUSH2 0x28C JUMP JUMPDEST SWAP2 DUP3 MSTORE JUMP JUMPDEST PUSH2 0x3F3 PUSH1 0x0 PUSH2 0x3D2 JUMP JUMPDEST SWAP1 JUMP JUMPDEST PUSH2 0x3FE PUSH2 0x3E9 JUMP JUMPDEST SWAP1 JUMP JUMPDEST PUSH2 0x409 PUSH2 0x54 JUMP JUMPDEST POP PUSH2 0x412 PUSH2 0x5CD JUMP JUMPDEST PUSH2 0x461 PUSH2 0x457 PUSH2 0x451 PUSH2 0x447 PUSH2 0x43F PUSH2 0x439 PUSH1 0x0 CALLDATASIZE PUSH2 0x431 PUSH1 0x4 PUSH2 0x1AB JUMP JUMPDEST SWAP1 DUP1 SWAP3 PUSH2 0x1D7 JUMP JUMPDEST SWAP1 PUSH2 0x1FC JUMP JUMPDEST DUP2 ADD SWAP1 PUSH2 0x329 JUMP JUMPDEST SWAP4 SWAP2 SWAP3 SWAP1 SWAP3 PUSH2 0x3A3 JUMP JUMPDEST SWAP2 PUSH2 0x3A3 JUMP JUMPDEST SWAP2 SWAP1 SWAP2 SWAP1 SWAP2 PUSH2 0x5EC JUMP JUMPDEST PUSH2 0x469 PUSH2 0x3F6 JUMP JUMPDEST SWAP1 JUMP JUMPDEST CALLER PUSH2 0x486 PUSH2 0x480 PUSH2 0x47B PUSH2 0x17E JUMP JUMPDEST PUSH2 0x48 JUMP JUMPDEST SWAP2 PUSH2 0x48 JUMP JUMPDEST EQ PUSH1 0x0 EQ PUSH2 0x59D JUMPI PUSH2 0x496 PUSH2 0x54 JUMP JUMPDEST POP PUSH4 0xFFFFFFFF PUSH1 0xE0 SHL PUSH1 0x0 CALLDATALOAD AND DUP1 PUSH2 0x4BD PUSH2 0x4B7 PUSH4 0x1B2CE7F3 PUSH1 0xE1 SHL PUSH2 0x59 JUMP JUMPDEST SWAP2 PUSH2 0x59 JUMP JUMPDEST EQ PUSH1 0x0 EQ PUSH2 0x4D7 JUMPI POP PUSH2 0x4CE PUSH2 0x817 JUMP JUMPDEST JUMPDEST PUSH1 0x20 DUP2 MLOAD SWAP2 ADD RETURN JUMPDEST DUP1 PUSH2 0x4F1 PUSH2 0x4EB PUSH4 0x278F7943 PUSH1 0xE1 SHL PUSH2 0x59 JUMP JUMPDEST SWAP2 PUSH2 0x59 JUMP JUMPDEST EQ PUSH1 0x0 EQ PUSH2 0x508 JUMPI POP PUSH2 0x502 PUSH2 0x7C1 JUMP JUMPDEST JUMPDEST PUSH2 0x4CF JUMP JUMPDEST DUP1 PUSH2 0x522 PUSH2 0x51C PUSH4 0x8F28397 PUSH1 0xE4 SHL PUSH2 0x59 JUMP JUMPDEST SWAP2 PUSH2 0x59 JUMP JUMPDEST EQ PUSH1 0x0 EQ PUSH2 0x539 JUMPI POP PUSH2 0x533 PUSH2 0x723 JUMP JUMPDEST JUMPDEST PUSH2 0x503 JUMP JUMPDEST DUP1 PUSH2 0x553 PUSH2 0x54D PUSH4 0x3E14691 PUSH1 0xE6 SHL PUSH2 0x59 JUMP JUMPDEST SWAP2 PUSH2 0x59 JUMP JUMPDEST EQ PUSH1 0x0 EQ PUSH2 0x56A JUMPI POP PUSH2 0x564 PUSH2 0x6BF JUMP JUMPDEST JUMPDEST PUSH2 0x534 JUMP JUMPDEST PUSH2 0x583 PUSH2 0x57D PUSH4 0x5C60DA1B PUSH1 0xE0 SHL PUSH2 0x59 JUMP JUMPDEST SWAP2 PUSH2 0x59 JUMP JUMPDEST EQ PUSH1 0x0 EQ PUSH2 0x598 JUMPI PUSH2 0x593 PUSH2 0x67A JUMP JUMPDEST PUSH2 0x565 JUMP JUMPDEST PUSH2 0x64A JUMP JUMPDEST PUSH2 0x64A JUMP JUMPDEST SWAP1 JUMP JUMPDEST PUSH2 0x5B9 PUSH2 0x5B4 PUSH2 0x5BE SWAP3 PUSH2 0xF JUMP JUMPDEST PUSH2 0x1D JUMP JUMPDEST PUSH2 0x1A8 JUMP JUMPDEST SWAP1 JUMP JUMPDEST ISZERO PUSH2 0x5C8 JUMPI JUMP JUMPDEST PUSH1 0x0 DUP1 REVERT JUMPDEST PUSH2 0x5EA CALLVALUE PUSH2 0x5E4 PUSH2 0x5DE PUSH1 0x0 PUSH2 0x5A5 JUMP JUMPDEST SWAP2 PUSH2 0x1A8 JUMP JUMPDEST EQ PUSH2 0x5C1 JUMP JUMPDEST JUMP JUMPDEST SWAP2 SWAP1 PUSH2 0x5F6 PUSH2 0x87A JUMP JUMPDEST PUSH2 0x611 PUSH2 0x60B PUSH2 0x606 PUSH1 0x0 PUSH2 0x3C JUMP JUMPDEST PUSH2 0x48 JUMP JUMPDEST SWAP2 PUSH2 0x48 JUMP JUMPDEST SUB PUSH2 0x62D JUMPI PUSH2 0x622 PUSH2 0x62B SWAP4 PUSH2 0x8B2 JUMP JUMPDEST SWAP1 PUSH1 0x0 SWAP2 PUSH2 0x98D JUMP JUMPDEST JUMP JUMPDEST PUSH1 0x0 PUSH4 0xF92EE8A9 PUSH1 0xE0 SHL DUP2 MSTORE DUP1 PUSH2 0x646 PUSH1 0x4 DUP3 ADD PUSH2 0x65 JUMP JUMPDEST SUB SWAP1 REVERT JUMPDEST PUSH2 0x652 PUSH2 0xAA6 JUMP JUMPDEST PUSH2 0xAE7 JUMP JUMPDEST PUSH2 0x660 SWAP1 PUSH2 0x48 JUMP JUMPDEST SWAP1 MSTORE JUMP JUMPDEST SWAP2 SWAP1 PUSH2 0x678 SWAP1 PUSH1 0x0 PUSH1 0x20 DUP6 ADD SWAP5 ADD SWAP1 PUSH2 0x657 JUMP JUMPDEST JUMP JUMPDEST PUSH2 0x682 PUSH2 0x54 JUMP JUMPDEST POP PUSH2 0x68B PUSH2 0x5CD JUMP JUMPDEST PUSH2 0x6AD PUSH2 0x6BC PUSH2 0x699 PUSH2 0xAA6 JUMP JUMPDEST PUSH2 0x6A1 PUSH2 0x1C7 JUMP JUMPDEST SWAP3 DUP4 SWAP2 PUSH1 0x20 DUP4 ADD PUSH2 0x664 JUMP JUMPDEST PUSH1 0x20 DUP3 ADD DUP2 SUB DUP3 MSTORE SUB DUP3 PUSH2 0x263 JUMP JUMPDEST SWAP1 JUMP JUMPDEST PUSH2 0x6C7 PUSH2 0x54 JUMP JUMPDEST POP PUSH2 0x6D0 PUSH2 0x5CD JUMP JUMPDEST PUSH2 0x6F2 PUSH2 0x701 PUSH2 0x6DE PUSH2 0x17E JUMP JUMPDEST PUSH2 0x6E6 PUSH2 0x1C7 JUMP JUMPDEST SWAP3 DUP4 SWAP2 PUSH1 0x20 DUP4 ADD PUSH2 0x664 JUMP JUMPDEST PUSH1 0x20 DUP3 ADD DUP2 SUB DUP3 MSTORE SUB DUP3 PUSH2 0x263 JUMP JUMPDEST SWAP1 JUMP JUMPDEST SWAP1 PUSH1 0x20 DUP3 DUP3 SUB SLT PUSH2 0x71E JUMPI PUSH2 0x71B SWAP2 PUSH1 0x0 ADD PUSH2 0x22A JUMP JUMPDEST SWAP1 JUMP JUMPDEST PUSH2 0x1FF JUMP JUMPDEST PUSH2 0x72B PUSH2 0x54 JUMP JUMPDEST POP PUSH2 0x734 PUSH2 0x5CD JUMP JUMPDEST PUSH2 0x770 PUSH2 0x76B PUSH2 0x766 PUSH2 0x75E PUSH2 0x758 PUSH1 0x0 CALLDATASIZE PUSH2 0x750 PUSH1 0x4 PUSH2 0x1AB JUMP JUMPDEST SWAP1 DUP1 SWAP3 PUSH2 0x1D7 JUMP JUMPDEST SWAP1 PUSH2 0x1FC JUMP JUMPDEST DUP2 ADD SWAP1 PUSH2 0x704 JUMP JUMPDEST PUSH2 0x3A3 JUMP JUMPDEST PUSH2 0x8B2 JUMP JUMPDEST PUSH2 0x778 PUSH2 0x3F6 JUMP JUMPDEST SWAP1 JUMP JUMPDEST SWAP2 SWAP1 SWAP2 PUSH1 0x40 DUP2 DUP5 SUB SLT PUSH2 0x7BC JUMPI PUSH2 0x795 DUP4 PUSH1 0x0 DUP4 ADD PUSH2 0x22A JUMP JUMPDEST SWAP3 PUSH1 0x20 DUP3 ADD CALLDATALOAD PUSH8 0xFFFFFFFFFFFFFFFF DUP2 GT PUSH2 0x7B7 JUMPI PUSH2 0x7B4 SWAP3 ADD PUSH2 0x306 JUMP JUMPDEST SWAP1 JUMP JUMPDEST PUSH2 0x204 JUMP JUMPDEST PUSH2 0x1FF JUMP JUMPDEST PUSH2 0x7C9 PUSH2 0x54 JUMP JUMPDEST POP PUSH2 0x80C PUSH2 0x803 PUSH2 0x7FC PUSH2 0x7F4 PUSH2 0x7EE PUSH1 0x0 CALLDATASIZE PUSH2 0x7E6 PUSH1 0x4 PUSH2 0x1AB JUMP JUMPDEST SWAP1 DUP1 SWAP3 PUSH2 0x1D7 JUMP JUMPDEST SWAP1 PUSH2 0x1FC JUMP JUMPDEST DUP2 ADD SWAP1 PUSH2 0x77B JUMP JUMPDEST SWAP2 SWAP1 PUSH2 0x3A3 JUMP JUMPDEST SWAP1 PUSH1 0x1 SWAP2 PUSH2 0xB0A JUMP JUMPDEST PUSH2 0x814 PUSH2 0x3F6 JUMP JUMPDEST SWAP1 JUMP JUMPDEST PUSH2 0x81F PUSH2 0x54 JUMP JUMPDEST POP PUSH2 0x828 PUSH2 0x5CD JUMP JUMPDEST PUSH2 0x86F PUSH2 0x85F PUSH2 0x85A PUSH2 0x852 PUSH2 0x84C PUSH1 0x0 CALLDATASIZE PUSH2 0x844 PUSH1 0x4 PUSH2 0x1AB JUMP JUMPDEST SWAP1 DUP1 SWAP3 PUSH2 0x1D7 JUMP JUMPDEST SWAP1 PUSH2 0x1FC JUMP JUMPDEST DUP2 ADD SWAP1 PUSH2 0x704 JUMP JUMPDEST PUSH2 0x3A3 JUMP JUMPDEST PUSH2 0x867 PUSH2 0x3F6 JUMP JUMPDEST PUSH1 0x0 SWAP2 PUSH2 0xB0A JUMP JUMPDEST PUSH2 0x877 PUSH2 0x3F6 JUMP JUMPDEST SWAP1 JUMP JUMPDEST PUSH2 0x882 PUSH2 0xF3 JUMP JUMPDEST POP PUSH2 0x88B PUSH2 0x17E JUMP JUMPDEST SWAP1 JUMP JUMPDEST SWAP2 PUSH1 0x20 PUSH2 0x8B0 SWAP3 SWAP5 SWAP4 PUSH2 0x8A9 PUSH1 0x40 DUP3 ADD SWAP7 PUSH1 0x0 DUP4 ADD SWAP1 PUSH2 0x657 JUMP JUMPDEST ADD SWAP1 PUSH2 0x657 JUMP JUMPDEST JUMP JUMPDEST PUSH2 0x8FD SWAP1 PUSH2 0x8BE PUSH2 0x17E JUMP JUMPDEST DUP2 PUSH32 0x7E644D79422F17C01E4894B5F4F588D331EBFA28653D42AE832DC59E38C9798F SWAP2 PUSH2 0x8F5 PUSH2 0x8EC PUSH2 0x1C7 JUMP JUMPDEST SWAP3 DUP4 SWAP3 DUP4 PUSH2 0x88E JUMP JUMPDEST SUB SWAP1 LOG1 PUSH2 0xC4D JUMP JUMPDEST JUMP JUMPDEST PUSH2 0x908 SWAP1 PUSH2 0x397 JUMP JUMPDEST SWAP1 JUMP JUMPDEST MLOAD SWAP1 JUMP JUMPDEST PUSH2 0x918 SWAP1 PUSH2 0x37B JUMP JUMPDEST SWAP1 JUMP JUMPDEST PUSH2 0x924 SWAP1 PUSH2 0x90F JUMP JUMPDEST SWAP1 JUMP JUMPDEST PUSH2 0x930 SWAP1 PUSH2 0x397 JUMP JUMPDEST SWAP1 JUMP JUMPDEST PUSH1 0xE0 SHL SWAP1 JUMP JUMPDEST PUSH2 0x942 DUP2 PUSH2 0x48 JUMP JUMPDEST SUB PUSH2 0x949 JUMPI JUMP JUMPDEST PUSH1 0x0 DUP1 REVERT JUMPDEST SWAP1 POP MLOAD SWAP1 PUSH2 0x95B DUP3 PUSH2 0x939 JUMP JUMPDEST JUMP JUMPDEST SWAP1 PUSH1 0x20 DUP3 DUP3 SUB SLT PUSH2 0x977 JUMPI PUSH2 0x974 SWAP2 PUSH1 0x0 ADD PUSH2 0x94E JUMP JUMPDEST SWAP1 JUMP JUMPDEST PUSH2 0x1FF JUMP JUMPDEST PUSH2 0x984 PUSH2 0x1C7 JUMP JUMPDEST RETURNDATASIZE PUSH1 0x0 DUP3 RETURNDATACOPY RETURNDATASIZE SWAP1 REVERT JUMPDEST SWAP2 PUSH2 0x997 DUP4 PUSH2 0xE30 JUMP JUMPDEST DUP3 PUSH2 0x9C2 PUSH32 0x1CF3B03A6CF19FA2BABA4DF148E9DCABEDEA7F8A5C07840E207E5C089BE95D3E SWAP2 PUSH2 0x8FF JUMP JUMPDEST SWAP1 PUSH2 0x9CB PUSH2 0x1C7 JUMP JUMPDEST DUP1 PUSH2 0x9D5 DUP2 PUSH2 0x65 JUMP JUMPDEST SUB SWAP1 LOG2 PUSH2 0x9E1 DUP3 PUSH2 0x90B JUMP JUMPDEST PUSH2 0x9F4 PUSH2 0x9EE PUSH1 0x0 PUSH2 0x5A5 JUMP JUMPDEST SWAP2 PUSH2 0x1A8 JUMP JUMPDEST GT SWAP1 DUP2 ISZERO PUSH2 0xA9E JUMPI JUMPDEST POP PUSH2 0xA07 JUMPI JUMPDEST POP POP JUMP JUMPDEST PUSH1 0x20 PUSH2 0xA1D PUSH2 0xA18 PUSH2 0xA33 SWAP5 PUSH2 0x91B JUMP JUMPDEST PUSH2 0x927 JUMP JUMPDEST PUSH4 0x5C60DA1B SWAP1 PUSH2 0xA2B PUSH2 0x1C7 JUMP JUMPDEST SWAP5 DUP6 SWAP3 PUSH2 0x933 JUMP JUMPDEST DUP3 MSTORE DUP2 DUP1 PUSH2 0xA43 PUSH1 0x4 DUP3 ADD PUSH2 0x65 JUMP JUMPDEST SUB SWAP2 GAS STATICCALL SWAP1 DUP2 ISZERO PUSH2 0xA99 JUMPI PUSH2 0xA61 SWAP3 PUSH1 0x0 SWAP3 PUSH2 0xA69 JUMPI JUMPDEST POP SWAP1 PUSH2 0xF65 JUMP JUMPDEST POP CODESIZE DUP1 PUSH2 0xA03 JUMP JUMPDEST PUSH2 0xA8B SWAP2 SWAP3 POP PUSH1 0x20 RETURNDATASIZE DUP2 GT PUSH2 0xA92 JUMPI JUMPDEST PUSH2 0xA83 DUP2 DUP4 PUSH2 0x263 JUMP JUMPDEST DUP2 ADD SWAP1 PUSH2 0x95D JUMP JUMPDEST SWAP1 CODESIZE PUSH2 0xA5A JUMP JUMPDEST POP RETURNDATASIZE PUSH2 0xA79 JUMP JUMPDEST PUSH2 0x97C JUMP JUMPDEST SWAP1 POP CODESIZE PUSH2 0x9FD JUMP JUMPDEST PUSH2 0xAAE PUSH2 0xF3 JUMP JUMPDEST POP PUSH2 0xAB7 PUSH2 0xF85 JUMP JUMPDEST DUP1 PUSH2 0xAD3 PUSH2 0xACD PUSH2 0xAC8 PUSH1 0x0 PUSH2 0x3C JUMP JUMPDEST PUSH2 0x48 JUMP JUMPDEST SWAP2 PUSH2 0x48 JUMP JUMPDEST SUB PUSH2 0xAE4 JUMPI POP PUSH2 0xAE1 PUSH2 0xF99 JUMP JUMPDEST SWAP1 JUMP JUMPDEST SWAP1 JUMP JUMPDEST PUSH1 0x0 DUP1 SWAP2 CALLDATASIZE DUP3 DUP1 CALLDATACOPY DUP2 CALLDATASIZE SWAP2 GAS DELEGATECALL RETURNDATASIZE PUSH1 0x0 DUP1 RETURNDATACOPY PUSH1 0x0 EQ PUSH2 0xB05 JUMPI RETURNDATASIZE PUSH1 0x0 RETURN JUMPDEST RETURNDATASIZE PUSH1 0x0 REVERT JUMPDEST SWAP2 PUSH2 0xB14 DUP4 PUSH2 0x102F JUMP JUMPDEST PUSH2 0xB1D DUP3 PUSH2 0x90B JUMP JUMPDEST PUSH2 0xB30 PUSH2 0xB2A PUSH1 0x0 PUSH2 0x5A5 JUMP JUMPDEST SWAP2 PUSH2 0x1A8 JUMP JUMPDEST GT SWAP1 DUP2 ISZERO PUSH2 0xB54 JUMPI JUMPDEST POP PUSH2 0xB43 JUMPI JUMPDEST POP POP JUMP JUMPDEST PUSH2 0xB4C SWAP2 PUSH2 0xF65 JUMP JUMPDEST POP CODESIZE DUP1 PUSH2 0xB3F JUMP JUMPDEST SWAP1 POP CODESIZE PUSH2 0xB39 JUMP JUMPDEST PUSH1 0x20 SWAP2 DUP2 MSTORE ADD SWAP1 JUMP JUMPDEST PUSH1 0x20 PUSH32 0x6464726573730000000000000000000000000000000000000000000000000000 SWAP2 PUSH32 0x455243313936373A206E65772061646D696E20697320746865207A65726F2061 PUSH1 0x0 DUP3 ADD MSTORE ADD MSTORE JUMP JUMPDEST PUSH2 0xBC0 PUSH1 0x26 PUSH1 0x40 SWAP3 PUSH2 0xB5C JUMP JUMPDEST PUSH2 0xBC9 DUP2 PUSH2 0xB65 JUMP JUMPDEST ADD SWAP1 JUMP JUMPDEST PUSH2 0xBE3 SWAP1 PUSH1 0x20 DUP2 ADD SWAP1 PUSH1 0x0 DUP2 DUP4 SUB SWAP2 ADD MSTORE PUSH2 0xBB3 JUMP JUMPDEST SWAP1 JUMP JUMPDEST ISZERO PUSH2 0xBED JUMPI JUMP JUMPDEST PUSH2 0xBF5 PUSH2 0x1C7 JUMP JUMPDEST PUSH3 0x461BCD PUSH1 0xE5 SHL DUP2 MSTORE DUP1 PUSH2 0xC0B PUSH1 0x4 DUP3 ADD PUSH2 0xBCD JUMP JUMPDEST SUB SWAP1 REVERT JUMPDEST SWAP1 PUSH2 0xC20 PUSH1 0x1 DUP1 PUSH1 0xA0 SHL SUB SWAP2 PUSH2 0xFE JUMP JUMPDEST SWAP2 DUP2 NOT AND SWAP2 AND OR SWAP1 JUMP JUMPDEST SWAP1 JUMP JUMPDEST SWAP1 PUSH2 0xC42 PUSH2 0xC3D PUSH2 0xC49 SWAP3 PUSH2 0x8FF JUMP JUMPDEST PUSH2 0xC2A JUMP JUMPDEST DUP3 SLOAD PUSH2 0xC0F JUMP JUMPDEST SWAP1 SSTORE JUMP JUMPDEST PUSH2 0xC8F SWAP1 PUSH2 0xC77 DUP2 PUSH2 0xC70 PUSH2 0xC6A PUSH2 0xC65 PUSH1 0x0 PUSH2 0x3C JUMP JUMPDEST PUSH2 0x48 JUMP JUMPDEST SWAP2 PUSH2 0x48 JUMP JUMPDEST EQ ISZERO PUSH2 0xBE6 JUMP JUMPDEST PUSH1 0x0 PUSH2 0xC89 PUSH2 0xC84 PUSH2 0x120 JUMP JUMPDEST PUSH2 0x5A2 JUMP JUMPDEST ADD PUSH2 0xC2D JUMP JUMPDEST JUMP JUMPDEST PUSH1 0x20 PUSH32 0x7472616374000000000000000000000000000000000000000000000000000000 SWAP2 PUSH32 0x455243313936373A206E657720626561636F6E206973206E6F74206120636F6E PUSH1 0x0 DUP3 ADD MSTORE ADD MSTORE JUMP JUMPDEST PUSH2 0xCEC PUSH1 0x25 PUSH1 0x40 SWAP3 PUSH2 0xB5C JUMP JUMPDEST PUSH2 0xCF5 DUP2 PUSH2 0xC91 JUMP JUMPDEST ADD SWAP1 JUMP JUMPDEST PUSH2 0xD0F SWAP1 PUSH1 0x20 DUP2 ADD SWAP1 PUSH1 0x0 DUP2 DUP4 SUB SWAP2 ADD MSTORE PUSH2 0xCDF JUMP JUMPDEST SWAP1 JUMP JUMPDEST ISZERO PUSH2 0xD19 JUMPI JUMP JUMPDEST PUSH2 0xD21 PUSH2 0x1C7 JUMP JUMPDEST PUSH3 0x461BCD PUSH1 0xE5 SHL DUP2 MSTORE DUP1 PUSH2 0xD37 PUSH1 0x4 DUP3 ADD PUSH2 0xCF9 JUMP JUMPDEST SUB SWAP1 REVERT JUMPDEST PUSH1 0x20 PUSH32 0x73206E6F74206120636F6E747261637400000000000000000000000000000000 SWAP2 PUSH32 0x455243313936373A20626561636F6E20696D706C656D656E746174696F6E2069 PUSH1 0x0 DUP3 ADD MSTORE ADD MSTORE JUMP JUMPDEST PUSH2 0xD96 PUSH1 0x30 PUSH1 0x40 SWAP3 PUSH2 0xB5C JUMP JUMPDEST PUSH2 0xD9F DUP2 PUSH2 0xD3B JUMP JUMPDEST ADD SWAP1 JUMP JUMPDEST PUSH2 0xDB9 SWAP1 PUSH1 0x20 DUP2 ADD SWAP1 PUSH1 0x0 DUP2 DUP4 SUB SWAP2 ADD MSTORE PUSH2 0xD89 JUMP JUMPDEST SWAP1 JUMP JUMPDEST ISZERO PUSH2 0xDC3 JUMPI JUMP JUMPDEST PUSH2 0xDCB PUSH2 0x1C7 JUMP JUMPDEST PUSH3 0x461BCD PUSH1 0xE5 SHL DUP2 MSTORE DUP1 PUSH2 0xDE1 PUSH1 0x4 DUP3 ADD PUSH2 0xDA3 JUMP JUMPDEST SUB SWAP1 REVERT JUMPDEST SWAP1 JUMP JUMPDEST PUSH2 0xDFC PUSH2 0xDF7 PUSH2 0xE01 SWAP3 PUSH2 0xDE5 JUMP JUMPDEST PUSH2 0xFE JUMP JUMPDEST PUSH2 0xFB JUMP JUMPDEST SWAP1 JUMP JUMPDEST PUSH2 0xE2D PUSH32 0xA3F0AD74E5423AEBFD80D3EF4346578335A9A72AEAEE59FF6CB3582B35133D50 PUSH2 0xDE8 JUMP JUMPDEST SWAP1 JUMP JUMPDEST PUSH2 0xE6E SWAP1 PUSH2 0xE45 PUSH2 0xE40 DUP3 PUSH2 0x107F JUMP JUMPDEST PUSH2 0xD12 JUMP JUMPDEST PUSH1 0x20 PUSH2 0xE58 PUSH2 0xE53 DUP4 PUSH2 0x91B JUMP JUMPDEST PUSH2 0x927 JUMP JUMPDEST PUSH4 0x5C60DA1B SWAP1 PUSH2 0xE66 PUSH2 0x1C7 JUMP JUMPDEST SWAP5 DUP6 SWAP3 PUSH2 0x933 JUMP JUMPDEST DUP3 MSTORE DUP2 DUP1 PUSH2 0xE7E PUSH1 0x4 DUP3 ADD PUSH2 0x65 JUMP JUMPDEST SUB SWAP2 GAS STATICCALL DUP1 ISZERO PUSH2 0xEEE JUMPI PUSH2 0xEA1 PUSH2 0xEA6 SWAP2 PUSH2 0xEBE SWAP5 PUSH1 0x0 SWAP2 PUSH2 0xEC0 JUMPI JUMPDEST POP PUSH2 0x107F JUMP JUMPDEST PUSH2 0xDBC JUMP JUMPDEST PUSH1 0x0 PUSH2 0xEB8 PUSH2 0xEB3 PUSH2 0xE04 JUMP JUMPDEST PUSH2 0x5A2 JUMP JUMPDEST ADD PUSH2 0xC2D JUMP JUMPDEST JUMP JUMPDEST PUSH2 0xEE1 SWAP2 POP PUSH1 0x20 RETURNDATASIZE DUP2 GT PUSH2 0xEE7 JUMPI JUMPDEST PUSH2 0xED9 DUP2 DUP4 PUSH2 0x263 JUMP JUMPDEST DUP2 ADD SWAP1 PUSH2 0x95D JUMP JUMPDEST CODESIZE PUSH2 0xE9B JUMP JUMPDEST POP RETURNDATASIZE PUSH2 0xECF JUMP JUMPDEST PUSH2 0x97C JUMP JUMPDEST PUSH1 0x20 PUSH32 0x206661696C656400000000000000000000000000000000000000000000000000 SWAP2 PUSH32 0x416464726573733A206C6F772D6C6576656C2064656C65676174652063616C6C PUSH1 0x0 DUP3 ADD MSTORE ADD MSTORE JUMP JUMPDEST PUSH2 0xF4B PUSH1 0x27 PUSH2 0x3D2 JUMP JUMPDEST SWAP1 PUSH2 0xF58 PUSH1 0x20 DUP4 ADD PUSH2 0xEF3 JUMP JUMPDEST JUMP JUMPDEST PUSH2 0xF62 PUSH2 0xF41 JUMP JUMPDEST SWAP1 JUMP JUMPDEST SWAP1 PUSH2 0xF82 SWAP2 PUSH2 0xF72 PUSH2 0x54 JUMP JUMPDEST POP SWAP1 PUSH2 0xF7C PUSH2 0xF5A JUMP JUMPDEST SWAP2 PUSH2 0x10E2 JUMP JUMPDEST SWAP1 JUMP JUMPDEST PUSH2 0xF8D PUSH2 0xF3 JUMP JUMPDEST POP PUSH2 0xF96 PUSH2 0x1160 JUMP JUMPDEST SWAP1 JUMP JUMPDEST PUSH2 0xFA1 PUSH2 0xF3 JUMP JUMPDEST POP PUSH2 0xFD5 PUSH1 0x20 PUSH2 0xFBF PUSH2 0xFBA PUSH2 0xFB5 PUSH2 0x1187 JUMP JUMPDEST PUSH2 0x91B JUMP JUMPDEST PUSH2 0x927 JUMP JUMPDEST PUSH4 0x5C60DA1B SWAP1 PUSH2 0xFCD PUSH2 0x1C7 JUMP JUMPDEST SWAP4 DUP5 SWAP3 PUSH2 0x933 JUMP JUMPDEST DUP3 MSTORE DUP2 DUP1 PUSH2 0xFE5 PUSH1 0x4 DUP3 ADD PUSH2 0x65 JUMP JUMPDEST SUB SWAP2 GAS STATICCALL SWAP1 DUP2 ISZERO PUSH2 0x102A JUMPI PUSH1 0x0 SWAP2 PUSH2 0xFFC JUMPI JUMPDEST POP SWAP1 JUMP JUMPDEST PUSH2 0x101D SWAP2 POP PUSH1 0x20 RETURNDATASIZE DUP2 GT PUSH2 0x1023 JUMPI JUMPDEST PUSH2 0x1015 DUP2 DUP4 PUSH2 0x263 JUMP JUMPDEST DUP2 ADD SWAP1 PUSH2 0x95D JUMP JUMPDEST CODESIZE PUSH2 0xFF8 JUMP JUMPDEST POP RETURNDATASIZE PUSH2 0x100B JUMP JUMPDEST PUSH2 0x97C JUMP JUMPDEST PUSH2 0x1038 DUP2 PUSH2 0x1258 JUMP JUMPDEST PUSH2 0x1062 PUSH32 0xBC7CD75A20EE27FD9ADEBAB32041F755214DBC6BFFA90CC0225B39DA2E5C2D3B SWAP2 PUSH2 0x8FF JUMP JUMPDEST SWAP1 PUSH2 0x106B PUSH2 0x1C7 JUMP JUMPDEST DUP1 PUSH2 0x1075 DUP2 PUSH2 0x65 JUMP JUMPDEST SUB SWAP1 LOG2 JUMP JUMPDEST PUSH1 0x0 SWAP1 JUMP JUMPDEST PUSH2 0x1087 PUSH2 0x107A JUMP JUMPDEST POP EXTCODESIZE PUSH2 0x109C PUSH2 0x1096 PUSH1 0x0 PUSH2 0x5A5 JUMP JUMPDEST SWAP2 PUSH2 0x1A8 JUMP JUMPDEST GT SWAP1 JUMP JUMPDEST SWAP1 PUSH2 0x10B2 PUSH2 0x10AD DUP4 PUSH2 0x2A1 JUMP JUMPDEST PUSH2 0x28C JUMP JUMPDEST SWAP2 DUP3 MSTORE JUMP JUMPDEST RETURNDATASIZE PUSH1 0x0 EQ PUSH2 0x10D4 JUMPI PUSH2 0x10C8 RETURNDATASIZE PUSH2 0x10A0 JUMP JUMPDEST SWAP1 RETURNDATASIZE PUSH1 0x0 PUSH1 0x20 DUP5 ADD RETURNDATACOPY JUMPDEST JUMP JUMPDEST PUSH2 0x10DC PUSH2 0x54 JUMP JUMPDEST SWAP1 PUSH2 0x10D2 JUMP JUMPDEST SWAP1 SWAP2 PUSH1 0x0 DUP1 PUSH2 0x1112 SWAP5 PUSH2 0x10F3 PUSH2 0x54 JUMP JUMPDEST POP DUP5 SWAP1 PUSH1 0x20 DUP2 ADD SWAP1 MLOAD SWAP2 GAS DELEGATECALL SWAP2 PUSH2 0x1108 PUSH2 0x10B7 JUMP JUMPDEST SWAP1 SWAP3 SWAP1 SWAP2 SWAP3 PUSH2 0x130B JUMP JUMPDEST SWAP1 JUMP JUMPDEST SWAP1 JUMP JUMPDEST PUSH2 0x112C PUSH2 0x1127 PUSH2 0x1131 SWAP3 PUSH2 0x1115 JUMP JUMPDEST PUSH2 0xFE JUMP JUMPDEST PUSH2 0xFB JUMP JUMPDEST SWAP1 JUMP JUMPDEST PUSH2 0x115D PUSH32 0x360894A13BA1A3210667C828492DB98DCA3E2076CC3735A920A3CA505D382BBC PUSH2 0x1118 JUMP JUMPDEST SWAP1 JUMP JUMPDEST PUSH2 0x1168 PUSH2 0xF3 JUMP JUMPDEST POP PUSH2 0x1184 PUSH1 0x0 PUSH2 0x117E PUSH2 0x1179 PUSH2 0x1134 JUMP JUMPDEST PUSH2 0x5A2 JUMP JUMPDEST ADD PUSH2 0x171 JUMP JUMPDEST SWAP1 JUMP JUMPDEST PUSH2 0x118F PUSH2 0xF3 JUMP JUMPDEST POP PUSH2 0x11AB PUSH1 0x0 PUSH2 0x11A5 PUSH2 0x11A0 PUSH2 0xE04 JUMP JUMPDEST PUSH2 0x5A2 JUMP JUMPDEST ADD PUSH2 0x171 JUMP JUMPDEST SWAP1 JUMP JUMPDEST PUSH1 0x20 PUSH32 0x6F74206120636F6E747261637400000000000000000000000000000000000000 SWAP2 PUSH32 0x455243313936373A206E657720696D706C656D656E746174696F6E206973206E PUSH1 0x0 DUP3 ADD MSTORE ADD MSTORE JUMP JUMPDEST PUSH2 0x1209 PUSH1 0x2D PUSH1 0x40 SWAP3 PUSH2 0xB5C JUMP JUMPDEST PUSH2 0x1212 DUP2 PUSH2 0x11AE JUMP JUMPDEST ADD SWAP1 JUMP JUMPDEST PUSH2 0x122C SWAP1 PUSH1 0x20 DUP2 ADD SWAP1 PUSH1 0x0 DUP2 DUP4 SUB SWAP2 ADD MSTORE PUSH2 0x11FC JUMP JUMPDEST SWAP1 JUMP JUMPDEST ISZERO PUSH2 0x1236 JUMPI JUMP JUMPDEST PUSH2 0x123E PUSH2 0x1C7 JUMP JUMPDEST PUSH3 0x461BCD PUSH1 0xE5 SHL DUP2 MSTORE DUP1 PUSH2 0x1254 PUSH1 0x4 DUP3 ADD PUSH2 0x1216 JUMP JUMPDEST SUB SWAP1 REVERT JUMPDEST PUSH2 0x1285 SWAP1 PUSH2 0x126D PUSH2 0x1268 DUP3 PUSH2 0x107F JUMP JUMPDEST PUSH2 0x122F JUMP JUMPDEST PUSH1 0x0 PUSH2 0x127F PUSH2 0x127A PUSH2 0x1134 JUMP JUMPDEST PUSH2 0x5A2 JUMP JUMPDEST ADD PUSH2 0xC2D JUMP JUMPDEST JUMP JUMPDEST PUSH1 0x0 PUSH32 0x416464726573733A2063616C6C20746F206E6F6E2D636F6E7472616374000000 SWAP2 ADD MSTORE JUMP JUMPDEST PUSH2 0x12BC PUSH1 0x1D PUSH1 0x20 SWAP3 PUSH2 0xB5C JUMP JUMPDEST PUSH2 0x12C5 DUP2 PUSH2 0x1287 JUMP JUMPDEST ADD SWAP1 JUMP JUMPDEST PUSH2 0x12DF SWAP1 PUSH1 0x20 DUP2 ADD SWAP1 PUSH1 0x0 DUP2 DUP4 SUB SWAP2 ADD MSTORE PUSH2 0x12AF JUMP JUMPDEST SWAP1 JUMP JUMPDEST ISZERO PUSH2 0x12E9 JUMPI JUMP JUMPDEST PUSH2 0x12F1 PUSH2 0x1C7 JUMP JUMPDEST PUSH3 0x461BCD PUSH1 0xE5 SHL DUP2 MSTORE DUP1 PUSH2 0x1307 PUSH1 0x4 DUP3 ADD PUSH2 0x12C9 JUMP JUMPDEST SUB SWAP1 REVERT JUMPDEST SWAP2 SWAP3 SWAP1 PUSH2 0x1316 PUSH2 0x54 JUMP JUMPDEST POP PUSH1 0x0 EQ PUSH2 0x135C JUMPI POP PUSH2 0x1328 DUP3 PUSH2 0x90B JUMP JUMPDEST PUSH2 0x133B PUSH2 0x1335 PUSH1 0x0 PUSH2 0x5A5 JUMP JUMPDEST SWAP2 PUSH2 0x1A8 JUMP JUMPDEST EQ PUSH2 0x1345 JUMPI JUMPDEST POP SWAP1 JUMP JUMPDEST PUSH2 0x1351 PUSH2 0x1356 SWAP2 PUSH2 0x107F JUMP JUMPDEST PUSH2 0x12E2 JUMP JUMPDEST CODESIZE PUSH2 0x1341 JUMP JUMPDEST DUP3 PUSH2 0x13D5 JUMP JUMPDEST MLOAD SWAP1 JUMP JUMPDEST PUSH1 0x0 JUMPDEST DUP4 DUP2 LT PUSH2 0x137A JUMPI POP POP SWAP1 PUSH1 0x0 SWAP2 ADD MSTORE JUMP JUMPDEST DUP1 PUSH1 0x20 SWAP2 DUP4 ADD MLOAD DUP2 DUP6 ADD MSTORE ADD PUSH2 0x1369 JUMP JUMPDEST PUSH2 0x13AA PUSH2 0x13B3 PUSH1 0x20 SWAP4 PUSH2 0x13B8 SWAP4 PUSH2 0x13A1 DUP2 PUSH2 0x1362 JUMP JUMPDEST SWAP4 DUP5 DUP1 SWAP4 PUSH2 0xB5C JUMP JUMPDEST SWAP6 DUP7 SWAP2 ADD PUSH2 0x1366 JUMP JUMPDEST PUSH2 0x243 JUMP JUMPDEST ADD SWAP1 JUMP JUMPDEST PUSH2 0x13D2 SWAP2 PUSH1 0x20 DUP3 ADD SWAP2 PUSH1 0x0 DUP2 DUP5 SUB SWAP2 ADD MSTORE PUSH2 0x138B JUMP JUMPDEST SWAP1 JUMP JUMPDEST SWAP1 PUSH2 0x13DF DUP3 PUSH2 0x90B JUMP JUMPDEST PUSH2 0x13F2 PUSH2 0x13EC PUSH1 0x0 PUSH2 0x5A5 JUMP JUMPDEST SWAP2 PUSH2 0x1A8 JUMP JUMPDEST GT PUSH1 0x0 EQ PUSH2 0x1403 JUMPI POP DUP1 MLOAD SWAP1 PUSH1 0x20 ADD REVERT JUMPDEST PUSH2 0x1424 SWAP1 PUSH2 0x140F PUSH2 0x1C7 JUMP JUMPDEST SWAP2 DUP3 SWAP2 PUSH3 0x461BCD PUSH1 0xE5 SHL DUP4 MSTORE PUSH1 0x4 DUP4 ADD PUSH2 0x13BC JUMP JUMPDEST SUB SWAP1 REVERT INVALID LOG2 PUSH5 0x6970667358 0x22 SLT KECCAK256 0xFB XOR SWAP10 0xE6 0x1F CODESIZE STATICCALL 0xA7 DUP12 0xFB 0xAB PUSH26 0xB8DC2FA613357C2FCE2699411F9FEE80B624365564736F6C6343 STOP ADDMOD SHL STOP CALLER LOG2 PUSH5 0x6970667358 0x22 SLT KECCAK256 EXTCODESIZE PUSH19 0x369D1D46611771220D986B45A922FA914BE16A LOG4 0xD3 0xDB 0xC4 0xE KECCAK256 POP PUSH22 0x31653264736F6C634300081B003360A060405234602B JUMPI PUSH1 0xE PUSH1 0x3A JUMP JUMPDEST PUSH1 0x14 PUSH1 0x2F JUMP JUMPDEST PUSH2 0x415B PUSH2 0x41 DUP3 CODECOPY PUSH1 0x80 MLOAD DUP2 PUSH2 0x1EF7 ADD MSTORE PUSH2 0x415B SWAP1 RETURN JUMPDEST PUSH1 0x35 JUMP JUMPDEST PUSH1 0x40 MLOAD SWAP1 JUMP JUMPDEST PUSH1 0x0 DUP1 REVERT JUMPDEST CALLER PUSH1 0x80 MSTORE JUMP INVALID PUSH1 0x80 PUSH1 0x40 MSTORE PUSH1 0x4 CALLDATASIZE LT ISZERO PUSH2 0x13 JUMPI JUMPDEST PUSH2 0x134C JUMP JUMPDEST PUSH2 0x1E PUSH1 0x0 CALLDATALOAD PUSH2 0x26D JUMP JUMPDEST DUP1 PUSH4 0x1FFC9A7 EQ PUSH2 0x268 JUMPI DUP1 PUSH4 0x4634D8D EQ PUSH2 0x263 JUMPI DUP1 PUSH4 0x6FDDE03 EQ PUSH2 0x25E JUMPI DUP1 PUSH4 0x81812FC EQ PUSH2 0x259 JUMPI DUP1 PUSH4 0x95EA7B3 EQ PUSH2 0x254 JUMPI DUP1 PUSH4 0xBB310DE EQ PUSH2 0x24F JUMPI DUP1 PUSH4 0x18160DDD EQ PUSH2 0x24A JUMPI DUP1 PUSH4 0x23B872DD EQ PUSH2 0x245 JUMPI DUP1 PUSH4 0x248A9CA3 EQ PUSH2 0x240 JUMPI DUP1 PUSH4 0x2A55205A EQ PUSH2 0x23B JUMPI DUP1 PUSH4 0x2E73E0FD EQ PUSH2 0x236 JUMPI DUP1 PUSH4 0x2F2FF15D EQ PUSH2 0x231 JUMPI DUP1 PUSH4 0x36568ABE EQ PUSH2 0x22C JUMPI DUP1 PUSH4 0x40C10F19 EQ PUSH2 0x227 JUMPI DUP1 PUSH4 0x42842E0E EQ PUSH2 0x222 JUMPI DUP1 PUSH4 0x42966C68 EQ PUSH2 0x21D JUMPI DUP1 PUSH4 0x4C62CD9B EQ PUSH2 0x218 JUMPI DUP1 PUSH4 0x5944C753 EQ PUSH2 0x213 JUMPI DUP1 PUSH4 0x5A446215 EQ PUSH2 0x20E JUMPI DUP1 PUSH4 0x6352211E EQ PUSH2 0x209 JUMPI DUP1 PUSH4 0x70A08231 EQ PUSH2 0x204 JUMPI DUP1 PUSH4 0x7E518EC8 EQ PUSH2 0x1FF JUMPI DUP1 PUSH4 0x9010D07C EQ PUSH2 0x1FA JUMPI DUP1 PUSH4 0x91D14854 EQ PUSH2 0x1F5 JUMPI DUP1 PUSH4 0x938E3D7B EQ PUSH2 0x1F0 JUMPI DUP1 PUSH4 0x95D89B41 EQ PUSH2 0x1EB JUMPI DUP1 PUSH4 0x9D043A66 EQ PUSH2 0x1E6 JUMPI DUP1 PUSH4 0xA217FDDF EQ PUSH2 0x1E1 JUMPI DUP1 PUSH4 0xA22CB465 EQ PUSH2 0x1DC JUMPI DUP1 PUSH4 0xB88D4FDE EQ PUSH2 0x1D7 JUMPI DUP1 PUSH4 0xC87B56DD EQ PUSH2 0x1D2 JUMPI DUP1 PUSH4 0xCA15C873 EQ PUSH2 0x1CD JUMPI DUP1 PUSH4 0xD547741F EQ PUSH2 0x1C8 JUMPI DUP1 PUSH4 0xDC8E92EA EQ PUSH2 0x1C3 JUMPI DUP1 PUSH4 0xE8A3D485 EQ PUSH2 0x1BE JUMPI DUP1 PUSH4 0xE985E9C5 EQ PUSH2 0x1B9 JUMPI PUSH4 0xED4C2AC7 SUB PUSH2 0xE JUMPI PUSH2 0x1319 JUMP JUMPDEST PUSH2 0x12E3 JUMP JUMPDEST PUSH2 0x1280 JUMP JUMPDEST PUSH2 0x124D JUMP JUMPDEST PUSH2 0x114C JUMP JUMPDEST PUSH2 0x1117 JUMP JUMPDEST PUSH2 0x10E2 JUMP JUMPDEST PUSH2 0x10B5 JUMP JUMPDEST PUSH2 0xFD7 JUMP JUMPDEST PUSH2 0xF50 JUMP JUMPDEST PUSH2 0xEDD JUMP JUMPDEST PUSH2 0xE13 JUMP JUMPDEST PUSH2 0xDE0 JUMP JUMPDEST PUSH2 0xDAA JUMP JUMPDEST PUSH2 0xD74 JUMP JUMPDEST PUSH2 0xD13 JUMP JUMPDEST PUSH2 0xCA8 JUMP JUMPDEST PUSH2 0xC73 JUMP JUMPDEST PUSH2 0xC3F JUMP JUMPDEST PUSH2 0xBAD JUMP JUMPDEST PUSH2 0xB35 JUMP JUMPDEST PUSH2 0x92B JUMP JUMPDEST PUSH2 0x901 JUMP JUMPDEST PUSH2 0x8CD JUMP JUMPDEST PUSH2 0x899 JUMP JUMPDEST PUSH2 0x865 JUMP JUMPDEST PUSH2 0x803 JUMP JUMPDEST PUSH2 0x7CC JUMP JUMPDEST PUSH2 0x745 JUMP JUMPDEST PUSH2 0x6B2 JUMP JUMPDEST PUSH2 0x642 JUMP JUMPDEST PUSH2 0x5EC JUMP JUMPDEST PUSH2 0x5A3 JUMP JUMPDEST PUSH2 0x540 JUMP JUMPDEST PUSH2 0x4A2 JUMP JUMPDEST PUSH2 0x3D8 JUMP JUMPDEST PUSH2 0x2FF JUMP JUMPDEST PUSH1 0xE0 SHR SWAP1 JUMP JUMPDEST PUSH1 0x40 MLOAD SWAP1 JUMP JUMPDEST PUSH1 0x0 DUP1 REVERT JUMPDEST PUSH1 0x0 DUP1 REVERT JUMPDEST PUSH1 0x0 DUP1 REVERT JUMPDEST PUSH4 0xFFFFFFFF PUSH1 0xE0 SHL AND SWAP1 JUMP JUMPDEST PUSH2 0x29D DUP2 PUSH2 0x288 JUMP JUMPDEST SUB PUSH2 0x2A4 JUMPI JUMP JUMPDEST PUSH1 0x0 DUP1 REVERT JUMPDEST SWAP1 POP CALLDATALOAD SWAP1 PUSH2 0x2B6 DUP3 PUSH2 0x294 JUMP JUMPDEST JUMP JUMPDEST SWAP1 PUSH1 0x20 DUP3 DUP3 SUB SLT PUSH2 0x2D2 JUMPI PUSH2 0x2CF SWAP2 PUSH1 0x0 ADD PUSH2 0x2A9 JUMP JUMPDEST SWAP1 JUMP JUMPDEST PUSH2 0x27E JUMP JUMPDEST ISZERO ISZERO SWAP1 JUMP JUMPDEST PUSH2 0x2E5 SWAP1 PUSH2 0x2D7 JUMP JUMPDEST SWAP1 MSTORE JUMP JUMPDEST SWAP2 SWAP1 PUSH2 0x2FD SWAP1 PUSH1 0x0 PUSH1 0x20 DUP6 ADD SWAP5 ADD SWAP1 PUSH2 0x2DC JUMP JUMPDEST JUMP JUMPDEST CALLVALUE PUSH2 0x32F JUMPI PUSH2 0x32B PUSH2 0x31A PUSH2 0x315 CALLDATASIZE PUSH1 0x4 PUSH2 0x2B8 JUMP JUMPDEST PUSH2 0x1356 JUMP JUMPDEST PUSH2 0x322 PUSH2 0x273 JUMP JUMPDEST SWAP2 DUP3 SWAP2 DUP3 PUSH2 0x2E9 JUMP JUMPDEST SUB SWAP1 RETURN JUMPDEST PUSH2 0x279 JUMP JUMPDEST PUSH1 0x1 DUP1 PUSH1 0xA0 SHL SUB AND SWAP1 JUMP JUMPDEST PUSH2 0x348 SWAP1 PUSH2 0x334 JUMP JUMPDEST SWAP1 JUMP JUMPDEST PUSH2 0x354 DUP2 PUSH2 0x33F JUMP JUMPDEST SUB PUSH2 0x35B JUMPI JUMP JUMPDEST PUSH1 0x0 DUP1 REVERT JUMPDEST SWAP1 POP CALLDATALOAD SWAP1 PUSH2 0x36D DUP3 PUSH2 0x34B JUMP JUMPDEST JUMP JUMPDEST PUSH12 0xFFFFFFFFFFFFFFFFFFFFFFFF AND SWAP1 JUMP JUMPDEST PUSH2 0x389 DUP2 PUSH2 0x36F JUMP JUMPDEST SUB PUSH2 0x390 JUMPI JUMP JUMPDEST PUSH1 0x0 DUP1 REVERT JUMPDEST SWAP1 POP CALLDATALOAD SWAP1 PUSH2 0x3A2 DUP3 PUSH2 0x380 JUMP JUMPDEST JUMP JUMPDEST SWAP2 SWAP1 PUSH1 0x40 DUP4 DUP3 SUB SLT PUSH2 0x3CD JUMPI DUP1 PUSH2 0x3C1 PUSH2 0x3CA SWAP3 PUSH1 0x0 DUP7 ADD PUSH2 0x360 JUMP JUMPDEST SWAP4 PUSH1 0x20 ADD PUSH2 0x395 JUMP JUMPDEST SWAP1 JUMP JUMPDEST PUSH2 0x27E JUMP JUMPDEST PUSH1 0x0 ADD SWAP1 JUMP JUMPDEST CALLVALUE PUSH2 0x407 JUMPI PUSH2 0x3F1 PUSH2 0x3EB CALLDATASIZE PUSH1 0x4 PUSH2 0x3A4 JUMP JUMPDEST SWAP1 PUSH2 0x13E2 JUMP JUMPDEST PUSH2 0x3F9 PUSH2 0x273 JUMP JUMPDEST DUP1 PUSH2 0x403 DUP2 PUSH2 0x3D2 JUMP JUMPDEST SUB SWAP1 RETURN JUMPDEST PUSH2 0x279 JUMP JUMPDEST PUSH1 0x0 SWAP2 SUB SLT PUSH2 0x417 JUMPI JUMP JUMPDEST PUSH2 0x27E JUMP JUMPDEST MLOAD SWAP1 JUMP JUMPDEST PUSH1 0x20 SWAP2 DUP2 MSTORE ADD SWAP1 JUMP JUMPDEST PUSH1 0x0 JUMPDEST DUP4 DUP2 LT PUSH2 0x43D JUMPI POP POP SWAP1 PUSH1 0x0 SWAP2 ADD MSTORE JUMP JUMPDEST DUP1 PUSH1 0x20 SWAP2 DUP4 ADD MLOAD DUP2 DUP6 ADD MSTORE ADD PUSH2 0x42C JUMP JUMPDEST PUSH1 0x1F DUP1 NOT SWAP2 ADD AND SWAP1 JUMP JUMPDEST PUSH2 0x477 PUSH2 0x480 PUSH1 0x20 SWAP4 PUSH2 0x485 SWAP4 PUSH2 0x46E DUP2 PUSH2 0x41C JUMP JUMPDEST SWAP4 DUP5 DUP1 SWAP4 PUSH2 0x420 JUMP JUMPDEST SWAP6 DUP7 SWAP2 ADD PUSH2 0x429 JUMP JUMPDEST PUSH2 0x44E JUMP JUMPDEST ADD SWAP1 JUMP JUMPDEST PUSH2 0x49F SWAP2 PUSH1 0x20 DUP3 ADD SWAP2 PUSH1 0x0 DUP2 DUP5 SUB SWAP2 ADD MSTORE PUSH2 0x458 JUMP JUMPDEST SWAP1 JUMP JUMPDEST CALLVALUE PUSH2 0x4D2 JUMPI PUSH2 0x4B2 CALLDATASIZE PUSH1 0x4 PUSH2 0x40C JUMP JUMPDEST PUSH2 0x4CE PUSH2 0x4BD PUSH2 0x1511 JUMP JUMPDEST PUSH2 0x4C5 PUSH2 0x273 JUMP JUMPDEST SWAP2 DUP3 SWAP2 DUP3 PUSH2 0x489 JUMP JUMPDEST SUB SWAP1 RETURN JUMPDEST PUSH2 0x279 JUMP JUMPDEST SWAP1 JUMP JUMPDEST PUSH2 0x4E3 DUP2 PUSH2 0x4D7 JUMP JUMPDEST SUB PUSH2 0x4EA JUMPI JUMP JUMPDEST PUSH1 0x0 DUP1 REVERT JUMPDEST SWAP1 POP CALLDATALOAD SWAP1 PUSH2 0x4FC DUP3 PUSH2 0x4DA JUMP JUMPDEST JUMP JUMPDEST SWAP1 PUSH1 0x20 DUP3 DUP3 SUB SLT PUSH2 0x518 JUMPI PUSH2 0x515 SWAP2 PUSH1 0x0 ADD PUSH2 0x4EF JUMP JUMPDEST SWAP1 JUMP JUMPDEST PUSH2 0x27E JUMP JUMPDEST PUSH2 0x526 SWAP1 PUSH2 0x33F JUMP JUMPDEST SWAP1 MSTORE JUMP JUMPDEST SWAP2 SWAP1 PUSH2 0x53E SWAP1 PUSH1 0x0 PUSH1 0x20 DUP6 ADD SWAP5 ADD SWAP1 PUSH2 0x51D JUMP JUMPDEST JUMP JUMPDEST CALLVALUE PUSH2 0x570 JUMPI PUSH2 0x56C PUSH2 0x55B PUSH2 0x556 CALLDATASIZE PUSH1 0x4 PUSH2 0x4FE JUMP JUMPDEST PUSH2 0x152C JUMP JUMPDEST PUSH2 0x563 PUSH2 0x273 JUMP JUMPDEST SWAP2 DUP3 SWAP2 DUP3 PUSH2 0x52A JUMP JUMPDEST SUB SWAP1 RETURN JUMPDEST PUSH2 0x279 JUMP JUMPDEST SWAP2 SWAP1 PUSH1 0x40 DUP4 DUP3 SUB SLT PUSH2 0x59E JUMPI DUP1 PUSH2 0x592 PUSH2 0x59B SWAP3 PUSH1 0x0 DUP7 ADD PUSH2 0x360 JUMP JUMPDEST SWAP4 PUSH1 0x20 ADD PUSH2 0x4EF JUMP JUMPDEST SWAP1 JUMP JUMPDEST PUSH2 0x27E JUMP JUMPDEST PUSH2 0x5B7 PUSH2 0x5B1 CALLDATASIZE PUSH1 0x4 PUSH2 0x575 JUMP JUMPDEST SWAP1 PUSH2 0x156F JUMP JUMPDEST PUSH2 0x5BF PUSH2 0x273 JUMP JUMPDEST DUP1 PUSH2 0x5C9 DUP2 PUSH2 0x3D2 JUMP JUMPDEST SUB SWAP1 RETURN JUMPDEST SWAP1 PUSH1 0x20 DUP3 DUP3 SUB SLT PUSH2 0x5E7 JUMPI PUSH2 0x5E4 SWAP2 PUSH1 0x0 ADD PUSH2 0x360 JUMP JUMPDEST SWAP1 JUMP JUMPDEST PUSH2 0x27E JUMP JUMPDEST CALLVALUE PUSH2 0x61A JUMPI PUSH2 0x604 PUSH2 0x5FF CALLDATASIZE PUSH1 0x4 PUSH2 0x5CD JUMP JUMPDEST PUSH2 0x1653 JUMP JUMPDEST PUSH2 0x60C PUSH2 0x273 JUMP JUMPDEST DUP1 PUSH2 0x616 DUP2 PUSH2 0x3D2 JUMP JUMPDEST SUB SWAP1 RETURN JUMPDEST PUSH2 0x279 JUMP JUMPDEST PUSH2 0x628 SWAP1 PUSH2 0x4D7 JUMP JUMPDEST SWAP1 MSTORE JUMP JUMPDEST SWAP2 SWAP1 PUSH2 0x640 SWAP1 PUSH1 0x0 PUSH1 0x20 DUP6 ADD SWAP5 ADD SWAP1 PUSH2 0x61F JUMP JUMPDEST JUMP JUMPDEST CALLVALUE PUSH2 0x672 JUMPI PUSH2 0x652 CALLDATASIZE PUSH1 0x4 PUSH2 0x40C JUMP JUMPDEST PUSH2 0x66E PUSH2 0x65D PUSH2 0x168D JUMP JUMPDEST PUSH2 0x665 PUSH2 0x273 JUMP JUMPDEST SWAP2 DUP3 SWAP2 DUP3 PUSH2 0x62C JUMP JUMPDEST SUB SWAP1 RETURN JUMPDEST PUSH2 0x279 JUMP JUMPDEST SWAP1 SWAP2 PUSH1 0x60 DUP3 DUP5 SUB SLT PUSH2 0x6AD JUMPI PUSH2 0x6AA PUSH2 0x693 DUP5 PUSH1 0x0 DUP6 ADD PUSH2 0x360 JUMP JUMPDEST SWAP4 PUSH2 0x6A1 DUP2 PUSH1 0x20 DUP7 ADD PUSH2 0x360 JUMP JUMPDEST SWAP4 PUSH1 0x40 ADD PUSH2 0x4EF JUMP JUMPDEST SWAP1 JUMP JUMPDEST PUSH2 0x27E JUMP JUMPDEST PUSH2 0x6C6 PUSH2 0x6C0 CALLDATASIZE PUSH1 0x4 PUSH2 0x677 JUMP JUMPDEST SWAP2 PUSH2 0x16A3 JUMP JUMPDEST PUSH2 0x6CE PUSH2 0x273 JUMP JUMPDEST DUP1 PUSH2 0x6D8 DUP2 PUSH2 0x3D2 JUMP JUMPDEST SUB SWAP1 RETURN JUMPDEST SWAP1 JUMP JUMPDEST PUSH2 0x6E8 DUP2 PUSH2 0x6DC JUMP JUMPDEST SUB PUSH2 0x6EF JUMPI JUMP JUMPDEST PUSH1 0x0 DUP1 REVERT JUMPDEST SWAP1 POP CALLDATALOAD SWAP1 PUSH2 0x701 DUP3 PUSH2 0x6DF JUMP JUMPDEST JUMP JUMPDEST SWAP1 PUSH1 0x20 DUP3 DUP3 SUB SLT PUSH2 0x71D JUMPI PUSH2 0x71A SWAP2 PUSH1 0x0 ADD PUSH2 0x6F4 JUMP JUMPDEST SWAP1 JUMP JUMPDEST PUSH2 0x27E JUMP JUMPDEST PUSH2 0x72B SWAP1 PUSH2 0x6DC JUMP JUMPDEST SWAP1 MSTORE JUMP JUMPDEST SWAP2 SWAP1 PUSH2 0x743 SWAP1 PUSH1 0x0 PUSH1 0x20 DUP6 ADD SWAP5 ADD SWAP1 PUSH2 0x722 JUMP JUMPDEST JUMP JUMPDEST CALLVALUE PUSH2 0x775 JUMPI PUSH2 0x771 PUSH2 0x760 PUSH2 0x75B CALLDATASIZE PUSH1 0x4 PUSH2 0x703 JUMP JUMPDEST PUSH2 0x17ED JUMP JUMPDEST PUSH2 0x768 PUSH2 0x273 JUMP JUMPDEST SWAP2 DUP3 SWAP2 DUP3 PUSH2 0x72F JUMP JUMPDEST SUB SWAP1 RETURN JUMPDEST PUSH2 0x279 JUMP JUMPDEST SWAP2 SWAP1 PUSH1 0x40 DUP4 DUP3 SUB SLT PUSH2 0x7A3 JUMPI DUP1 PUSH2 0x797 PUSH2 0x7A0 SWAP3 PUSH1 0x0 DUP7 ADD PUSH2 0x4EF JUMP JUMPDEST SWAP4 PUSH1 0x20 ADD PUSH2 0x4EF JUMP JUMPDEST SWAP1 JUMP JUMPDEST PUSH2 0x27E JUMP JUMPDEST SWAP2 PUSH1 0x20 PUSH2 0x7CA SWAP3 SWAP5 SWAP4 PUSH2 0x7C3 PUSH1 0x40 DUP3 ADD SWAP7 PUSH1 0x0 DUP4 ADD SWAP1 PUSH2 0x51D JUMP JUMPDEST ADD SWAP1 PUSH2 0x61F JUMP JUMPDEST JUMP JUMPDEST CALLVALUE PUSH2 0x7FE JUMPI PUSH2 0x7E5 PUSH2 0x7DF CALLDATASIZE PUSH1 0x4 PUSH2 0x77A JUMP JUMPDEST SWAP1 PUSH2 0x19F6 JUMP JUMPDEST SWAP1 PUSH2 0x7FA PUSH2 0x7F1 PUSH2 0x273 JUMP JUMPDEST SWAP3 DUP4 SWAP3 DUP4 PUSH2 0x7A8 JUMP JUMPDEST SUB SWAP1 RETURN JUMPDEST PUSH2 0x279 JUMP JUMPDEST CALLVALUE PUSH2 0x832 JUMPI PUSH2 0x81C PUSH2 0x816 CALLDATASIZE PUSH1 0x4 PUSH2 0x575 JUMP JUMPDEST SWAP1 PUSH2 0x1C60 JUMP JUMPDEST PUSH2 0x824 PUSH2 0x273 JUMP JUMPDEST DUP1 PUSH2 0x82E DUP2 PUSH2 0x3D2 JUMP JUMPDEST SUB SWAP1 RETURN JUMPDEST PUSH2 0x279 JUMP JUMPDEST SWAP2 SWAP1 PUSH1 0x40 DUP4 DUP3 SUB SLT PUSH2 0x860 JUMPI DUP1 PUSH2 0x854 PUSH2 0x85D SWAP3 PUSH1 0x0 DUP7 ADD PUSH2 0x6F4 JUMP JUMPDEST SWAP4 PUSH1 0x20 ADD PUSH2 0x360 JUMP JUMPDEST SWAP1 JUMP JUMPDEST PUSH2 0x27E JUMP JUMPDEST CALLVALUE PUSH2 0x894 JUMPI PUSH2 0x87E PUSH2 0x878 CALLDATASIZE PUSH1 0x4 PUSH2 0x837 JUMP JUMPDEST SWAP1 PUSH2 0x1C95 JUMP JUMPDEST PUSH2 0x886 PUSH2 0x273 JUMP JUMPDEST DUP1 PUSH2 0x890 DUP2 PUSH2 0x3D2 JUMP JUMPDEST SUB SWAP1 RETURN JUMPDEST PUSH2 0x279 JUMP JUMPDEST CALLVALUE PUSH2 0x8C8 JUMPI PUSH2 0x8B2 PUSH2 0x8AC CALLDATASIZE PUSH1 0x4 PUSH2 0x837 JUMP JUMPDEST SWAP1 PUSH2 0x1D4B JUMP JUMPDEST PUSH2 0x8BA PUSH2 0x273 JUMP JUMPDEST DUP1 PUSH2 0x8C4 DUP2 PUSH2 0x3D2 JUMP JUMPDEST SUB SWAP1 RETURN JUMPDEST PUSH2 0x279 JUMP JUMPDEST CALLVALUE PUSH2 0x8FC JUMPI PUSH2 0x8E6 PUSH2 0x8E0 CALLDATASIZE PUSH1 0x4 PUSH2 0x575 JUMP JUMPDEST SWAP1 PUSH2 0x1DF7 JUMP JUMPDEST PUSH2 0x8EE PUSH2 0x273 JUMP JUMPDEST DUP1 PUSH2 0x8F8 DUP2 PUSH2 0x3D2 JUMP JUMPDEST SUB SWAP1 RETURN JUMPDEST PUSH2 0x279 JUMP JUMPDEST PUSH2 0x915 PUSH2 0x90F CALLDATASIZE PUSH1 0x4 PUSH2 0x677 JUMP JUMPDEST SWAP2 PUSH2 0x1E32 JUMP JUMPDEST PUSH2 0x91D PUSH2 0x273 JUMP JUMPDEST DUP1 PUSH2 0x927 DUP2 PUSH2 0x3D2 JUMP JUMPDEST SUB SWAP1 RETURN JUMPDEST CALLVALUE PUSH2 0x959 JUMPI PUSH2 0x943 PUSH2 0x93E CALLDATASIZE PUSH1 0x4 PUSH2 0x4FE JUMP JUMPDEST PUSH2 0x1E6D JUMP JUMPDEST PUSH2 0x94B PUSH2 0x273 JUMP JUMPDEST DUP1 PUSH2 0x955 DUP2 PUSH2 0x3D2 JUMP JUMPDEST SUB SWAP1 RETURN JUMPDEST PUSH2 0x279 JUMP JUMPDEST PUSH1 0x0 DUP1 REVERT JUMPDEST PUSH1 0x0 DUP1 REVERT JUMPDEST PUSH4 0x4E487B71 PUSH1 0xE0 SHL PUSH1 0x0 MSTORE PUSH1 0x41 PUSH1 0x4 MSTORE PUSH1 0x24 PUSH1 0x0 REVERT JUMPDEST SWAP1 PUSH2 0x988 SWAP1 PUSH2 0x44E JUMP JUMPDEST DUP2 ADD SWAP1 DUP2 LT PUSH8 0xFFFFFFFFFFFFFFFF DUP3 GT OR PUSH2 0x9A2 JUMPI PUSH1 0x40 MSTORE JUMP JUMPDEST PUSH2 0x968 JUMP JUMPDEST SWAP1 PUSH2 0x9BA PUSH2 0x9B3 PUSH2 0x273 JUMP JUMPDEST SWAP3 DUP4 PUSH2 0x97E JUMP JUMPDEST JUMP JUMPDEST PUSH8 0xFFFFFFFFFFFFFFFF DUP2 GT PUSH2 0x9DA JUMPI PUSH2 0x9D6 PUSH1 0x20 SWAP2 PUSH2 0x44E JUMP JUMPDEST ADD SWAP1 JUMP JUMPDEST PUSH2 0x968 JUMP JUMPDEST SWAP1 DUP3 PUSH1 0x0 SWAP4 SWAP3 DUP3 CALLDATACOPY ADD MSTORE JUMP JUMPDEST SWAP1 SWAP3 SWAP2 SWAP3 PUSH2 0xA00 PUSH2 0x9FB DUP3 PUSH2 0x9BC JUMP JUMPDEST PUSH2 0x9A7 JUMP JUMPDEST SWAP4 DUP2 DUP6 MSTORE PUSH1 0x20 DUP6 ADD SWAP1 DUP3 DUP5 ADD GT PUSH2 0xA1C JUMPI PUSH2 0xA1A SWAP3 PUSH2 0x9DF JUMP JUMPDEST JUMP JUMPDEST PUSH2 0x963 JUMP JUMPDEST SWAP1 DUP1 PUSH1 0x1F DUP4 ADD SLT ISZERO PUSH2 0xA3F JUMPI DUP2 PUSH1 0x20 PUSH2 0xA3C SWAP4 CALLDATALOAD SWAP2 ADD PUSH2 0x9EB JUMP JUMPDEST SWAP1 JUMP JUMPDEST PUSH2 0x95E JUMP JUMPDEST SWAP1 SWAP2 PUSH2 0x120 DUP3 DUP5 SUB SLT PUSH2 0xB30 JUMPI PUSH2 0xA5E DUP4 PUSH1 0x0 DUP5 ADD PUSH2 0x360 JUMP JUMPDEST SWAP3 PUSH1 0x20 DUP4 ADD CALLDATALOAD PUSH8 0xFFFFFFFFFFFFFFFF DUP2 GT PUSH2 0xB2B JUMPI DUP2 PUSH2 0xA7F SWAP2 DUP6 ADD PUSH2 0xA21 JUMP JUMPDEST SWAP3 PUSH1 0x40 DUP2 ADD CALLDATALOAD PUSH8 0xFFFFFFFFFFFFFFFF DUP2 GT PUSH2 0xB26 JUMPI DUP3 PUSH2 0xAA0 SWAP2 DUP4 ADD PUSH2 0xA21 JUMP JUMPDEST SWAP3 PUSH1 0x60 DUP3 ADD CALLDATALOAD PUSH8 0xFFFFFFFFFFFFFFFF DUP2 GT PUSH2 0xB21 JUMPI DUP4 PUSH2 0xAC1 SWAP2 DUP5 ADD PUSH2 0xA21 JUMP JUMPDEST SWAP3 PUSH1 0x80 DUP4 ADD CALLDATALOAD PUSH8 0xFFFFFFFFFFFFFFFF DUP2 GT PUSH2 0xB1C JUMPI DUP2 PUSH2 0xAE2 SWAP2 DUP6 ADD PUSH2 0xA21 JUMP JUMPDEST SWAP3 PUSH2 0xAF0 DUP3 PUSH1 0xA0 DUP4 ADD PUSH2 0x360 JUMP JUMPDEST SWAP3 PUSH2 0xB19 PUSH2 0xB01 DUP5 PUSH1 0xC0 DUP6 ADD PUSH2 0x395 JUMP JUMPDEST SWAP4 PUSH2 0xB0F DUP2 PUSH1 0xE0 DUP7 ADD PUSH2 0x360 JUMP JUMPDEST SWAP4 PUSH2 0x100 ADD PUSH2 0x6F4 JUMP JUMPDEST SWAP1 JUMP JUMPDEST PUSH2 0x283 JUMP JUMPDEST PUSH2 0x283 JUMP JUMPDEST PUSH2 0x283 JUMP JUMPDEST PUSH2 0x283 JUMP JUMPDEST PUSH2 0x27E JUMP JUMPDEST CALLVALUE PUSH2 0xB6D JUMPI PUSH2 0xB57 PUSH2 0xB48 CALLDATASIZE PUSH1 0x4 PUSH2 0xA44 JUMP JUMPDEST SWAP8 SWAP7 SWAP1 SWAP7 SWAP6 SWAP2 SWAP6 SWAP5 SWAP3 SWAP5 PUSH2 0x1EE5 JUMP JUMPDEST PUSH2 0xB5F PUSH2 0x273 JUMP JUMPDEST DUP1 PUSH2 0xB69 DUP2 PUSH2 0x3D2 JUMP JUMPDEST SUB SWAP1 RETURN JUMPDEST PUSH2 0x279 JUMP JUMPDEST SWAP1 SWAP2 PUSH1 0x60 DUP3 DUP5 SUB SLT PUSH2 0xBA8 JUMPI PUSH2 0xBA5 PUSH2 0xB8E DUP5 PUSH1 0x0 DUP6 ADD PUSH2 0x4EF JUMP JUMPDEST SWAP4 PUSH2 0xB9C DUP2 PUSH1 0x20 DUP7 ADD PUSH2 0x360 JUMP JUMPDEST SWAP4 PUSH1 0x40 ADD PUSH2 0x395 JUMP JUMPDEST SWAP1 JUMP JUMPDEST PUSH2 0x27E JUMP JUMPDEST CALLVALUE PUSH2 0xBDC JUMPI PUSH2 0xBC6 PUSH2 0xBC0 CALLDATASIZE PUSH1 0x4 PUSH2 0xB72 JUMP JUMPDEST SWAP2 PUSH2 0x1FC0 JUMP JUMPDEST PUSH2 0xBCE PUSH2 0x273 JUMP JUMPDEST DUP1 PUSH2 0xBD8 DUP2 PUSH2 0x3D2 JUMP JUMPDEST SUB SWAP1 RETURN JUMPDEST PUSH2 0x279 JUMP JUMPDEST SWAP2 SWAP1 SWAP2 PUSH1 0x40 DUP2 DUP5 SUB SLT PUSH2 0xC3A JUMPI PUSH1 0x0 DUP2 ADD CALLDATALOAD PUSH8 0xFFFFFFFFFFFFFFFF DUP2 GT PUSH2 0xC35 JUMPI DUP4 PUSH2 0xC0E SWAP2 DUP4 ADD PUSH2 0xA21 JUMP JUMPDEST SWAP3 PUSH1 0x20 DUP3 ADD CALLDATALOAD PUSH8 0xFFFFFFFFFFFFFFFF DUP2 GT PUSH2 0xC30 JUMPI PUSH2 0xC2D SWAP3 ADD PUSH2 0xA21 JUMP JUMPDEST SWAP1 JUMP JUMPDEST PUSH2 0x283 JUMP JUMPDEST PUSH2 0x283 JUMP JUMPDEST PUSH2 0x27E JUMP JUMPDEST CALLVALUE PUSH2 0xC6E JUMPI PUSH2 0xC58 PUSH2 0xC52 CALLDATASIZE PUSH1 0x4 PUSH2 0xBE1 JUMP JUMPDEST SWAP1 PUSH2 0x220F JUMP JUMPDEST PUSH2 0xC60 PUSH2 0x273 JUMP JUMPDEST DUP1 PUSH2 0xC6A DUP2 PUSH2 0x3D2 JUMP JUMPDEST SUB SWAP1 RETURN JUMPDEST PUSH2 0x279 JUMP JUMPDEST CALLVALUE PUSH2 0xCA3 JUMPI PUSH2 0xC9F PUSH2 0xC8E PUSH2 0xC89 CALLDATASIZE PUSH1 0x4 PUSH2 0x4FE JUMP JUMPDEST PUSH2 0x221B JUMP JUMPDEST PUSH2 0xC96 PUSH2 0x273 JUMP JUMPDEST SWAP2 DUP3 SWAP2 DUP3 PUSH2 0x52A JUMP JUMPDEST SUB SWAP1 RETURN JUMPDEST PUSH2 0x279 JUMP JUMPDEST CALLVALUE PUSH2 0xCD8 JUMPI PUSH2 0xCD4 PUSH2 0xCC3 PUSH2 0xCBE CALLDATASIZE PUSH1 0x4 PUSH2 0x5CD JUMP JUMPDEST PUSH2 0x2244 JUMP JUMPDEST PUSH2 0xCCB PUSH2 0x273 JUMP JUMPDEST SWAP2 DUP3 SWAP2 DUP3 PUSH2 0x62C JUMP JUMPDEST SUB SWAP1 RETURN JUMPDEST PUSH2 0x279 JUMP JUMPDEST SWAP1 PUSH1 0x20 DUP3 DUP3 SUB SLT PUSH2 0xD0E JUMPI PUSH1 0x0 DUP3 ADD CALLDATALOAD PUSH8 0xFFFFFFFFFFFFFFFF DUP2 GT PUSH2 0xD09 JUMPI PUSH2 0xD06 SWAP3 ADD PUSH2 0xA21 JUMP JUMPDEST SWAP1 JUMP JUMPDEST PUSH2 0x283 JUMP JUMPDEST PUSH2 0x27E JUMP JUMPDEST CALLVALUE PUSH2 0xD41 JUMPI PUSH2 0xD2B PUSH2 0xD26 CALLDATASIZE PUSH1 0x4 PUSH2 0xCDD JUMP JUMPDEST PUSH2 0x22AA JUMP JUMPDEST PUSH2 0xD33 PUSH2 0x273 JUMP JUMPDEST DUP1 PUSH2 0xD3D DUP2 PUSH2 0x3D2 JUMP JUMPDEST SUB SWAP1 RETURN JUMPDEST PUSH2 0x279 JUMP JUMPDEST SWAP2 SWAP1 PUSH1 0x40 DUP4 DUP3 SUB SLT PUSH2 0xD6F JUMPI DUP1 PUSH2 0xD63 PUSH2 0xD6C SWAP3 PUSH1 0x0 DUP7 ADD PUSH2 0x6F4 JUMP JUMPDEST SWAP4 PUSH1 0x20 ADD PUSH2 0x4EF JUMP JUMPDEST SWAP1 JUMP JUMPDEST PUSH2 0x27E JUMP JUMPDEST CALLVALUE PUSH2 0xDA5 JUMPI PUSH2 0xDA1 PUSH2 0xD90 PUSH2 0xD8A CALLDATASIZE PUSH1 0x4 PUSH2 0xD46 JUMP JUMPDEST SWAP1 PUSH2 0x22D0 JUMP JUMPDEST PUSH2 0xD98 PUSH2 0x273 JUMP JUMPDEST SWAP2 DUP3 SWAP2 DUP3 PUSH2 0x52A JUMP JUMPDEST SUB SWAP1 RETURN JUMPDEST PUSH2 0x279 JUMP JUMPDEST CALLVALUE PUSH2 0xDDB JUMPI PUSH2 0xDD7 PUSH2 0xDC6 PUSH2 0xDC0 CALLDATASIZE PUSH1 0x4 PUSH2 0x837 JUMP JUMPDEST SWAP1 PUSH2 0x2328 JUMP JUMPDEST PUSH2 0xDCE PUSH2 0x273 JUMP JUMPDEST SWAP2 DUP3 SWAP2 DUP3 PUSH2 0x2E9 JUMP JUMPDEST SUB SWAP1 RETURN JUMPDEST PUSH2 0x279 JUMP JUMPDEST CALLVALUE PUSH2 0xE0E JUMPI PUSH2 0xDF8 PUSH2 0xDF3 CALLDATASIZE PUSH1 0x4 PUSH2 0xCDD JUMP JUMPDEST PUSH2 0x237B JUMP JUMPDEST PUSH2 0xE00 PUSH2 0x273 JUMP JUMPDEST DUP1 PUSH2 0xE0A DUP2 PUSH2 0x3D2 JUMP JUMPDEST SUB SWAP1 RETURN JUMPDEST PUSH2 0x279 JUMP JUMPDEST CALLVALUE PUSH2 0xE43 JUMPI PUSH2 0xE23 CALLDATASIZE PUSH1 0x4 PUSH2 0x40C JUMP JUMPDEST PUSH2 0xE3F PUSH2 0xE2E PUSH2 0x2386 JUMP JUMPDEST PUSH2 0xE36 PUSH2 0x273 JUMP JUMPDEST SWAP2 DUP3 SWAP2 DUP3 PUSH2 0x489 JUMP JUMPDEST SUB SWAP1 RETURN JUMPDEST PUSH2 0x279 JUMP JUMPDEST PUSH1 0x0 DUP1 REVERT JUMPDEST SWAP1 DUP2 PUSH1 0xC0 SWAP2 SUB SLT PUSH2 0xE5B JUMPI SWAP1 JUMP JUMPDEST PUSH2 0xE48 JUMP JUMPDEST SWAP1 DUP2 PUSH1 0xE0 SWAP2 SUB SLT PUSH2 0xE6E JUMPI SWAP1 JUMP JUMPDEST PUSH2 0xE48 JUMP JUMPDEST SWAP2 PUSH1 0x60 DUP4 DUP4 SUB SLT PUSH2 0xED8 JUMPI PUSH2 0xE8B DUP3 PUSH1 0x0 DUP6 ADD PUSH2 0x360 JUMP JUMPDEST SWAP3 PUSH1 0x20 DUP2 ADD CALLDATALOAD PUSH8 0xFFFFFFFFFFFFFFFF DUP2 GT PUSH2 0xED3 JUMPI DUP4 PUSH2 0xEAC SWAP2 DUP4 ADD PUSH2 0xE4D JUMP JUMPDEST SWAP3 PUSH1 0x40 DUP3 ADD CALLDATALOAD PUSH8 0xFFFFFFFFFFFFFFFF DUP2 GT PUSH2 0xECE JUMPI PUSH2 0xECB SWAP3 ADD PUSH2 0xE60 JUMP JUMPDEST SWAP1 JUMP JUMPDEST PUSH2 0x283 JUMP JUMPDEST PUSH2 0x283 JUMP JUMPDEST PUSH2 0x27E JUMP JUMPDEST CALLVALUE PUSH2 0xF0E JUMPI PUSH2 0xF0A PUSH2 0xEF9 PUSH2 0xEF3 CALLDATASIZE PUSH1 0x4 PUSH2 0xE73 JUMP JUMPDEST SWAP2 PUSH2 0x26EF JUMP JUMPDEST PUSH2 0xF01 PUSH2 0x273 JUMP JUMPDEST SWAP2 DUP3 SWAP2 DUP3 PUSH2 0x72F JUMP JUMPDEST SUB SWAP1 RETURN JUMPDEST PUSH2 0x279 JUMP JUMPDEST SWAP1 JUMP JUMPDEST PUSH1 0x0 SHL SWAP1 JUMP JUMPDEST PUSH2 0xF30 PUSH2 0xF2B PUSH2 0xF35 SWAP3 PUSH2 0xF13 JUMP JUMPDEST PUSH2 0xF16 JUMP JUMPDEST PUSH2 0x6DC JUMP JUMPDEST SWAP1 JUMP JUMPDEST PUSH2 0xF42 PUSH1 0x0 PUSH2 0xF1C JUMP JUMPDEST SWAP1 JUMP JUMPDEST PUSH2 0xF4D PUSH2 0xF38 JUMP JUMPDEST SWAP1 JUMP JUMPDEST CALLVALUE PUSH2 0xF80 JUMPI PUSH2 0xF60 CALLDATASIZE PUSH1 0x4 PUSH2 0x40C JUMP JUMPDEST PUSH2 0xF7C PUSH2 0xF6B PUSH2 0xF45 JUMP JUMPDEST PUSH2 0xF73 PUSH2 0x273 JUMP JUMPDEST SWAP2 DUP3 SWAP2 DUP3 PUSH2 0x72F JUMP JUMPDEST SUB SWAP1 RETURN JUMPDEST PUSH2 0x279 JUMP JUMPDEST PUSH2 0xF8E DUP2 PUSH2 0x2D7 JUMP JUMPDEST SUB PUSH2 0xF95 JUMPI JUMP JUMPDEST PUSH1 0x0 DUP1 REVERT JUMPDEST SWAP1 POP CALLDATALOAD SWAP1 PUSH2 0xFA7 DUP3 PUSH2 0xF85 JUMP JUMPDEST JUMP JUMPDEST SWAP2 SWAP1 PUSH1 0x40 DUP4 DUP3 SUB SLT PUSH2 0xFD2 JUMPI DUP1 PUSH2 0xFC6 PUSH2 0xFCF SWAP3 PUSH1 0x0 DUP7 ADD PUSH2 0x360 JUMP JUMPDEST SWAP4 PUSH1 0x20 ADD PUSH2 0xF9A JUMP JUMPDEST SWAP1 JUMP JUMPDEST PUSH2 0x27E JUMP JUMPDEST CALLVALUE PUSH2 0x1006 JUMPI PUSH2 0xFF0 PUSH2 0xFEA CALLDATASIZE PUSH1 0x4 PUSH2 0xFA9 JUMP JUMPDEST SWAP1 PUSH2 0x2790 JUMP JUMPDEST PUSH2 0xFF8 PUSH2 0x273 JUMP JUMPDEST DUP1 PUSH2 0x1002 DUP2 PUSH2 0x3D2 JUMP JUMPDEST SUB SWAP1 RETURN JUMPDEST PUSH2 0x279 JUMP JUMPDEST PUSH1 0x0 DUP1 REVERT JUMPDEST PUSH1 0x0 DUP1 REVERT JUMPDEST SWAP1 SWAP2 DUP3 PUSH1 0x1F DUP4 ADD SLT ISZERO PUSH2 0x104F JUMPI DUP2 CALLDATALOAD SWAP2 PUSH8 0xFFFFFFFFFFFFFFFF DUP4 GT PUSH2 0x104A JUMPI PUSH1 0x20 ADD SWAP3 PUSH1 0x1 DUP4 MUL DUP5 ADD GT PUSH2 0x1045 JUMPI JUMP JUMPDEST PUSH2 0x1010 JUMP JUMPDEST PUSH2 0x100B JUMP JUMPDEST PUSH2 0x95E JUMP JUMPDEST SWAP1 PUSH1 0x80 DUP3 DUP3 SUB SLT PUSH2 0x10B0 JUMPI PUSH2 0x106C DUP2 PUSH1 0x0 DUP5 ADD PUSH2 0x360 JUMP JUMPDEST SWAP3 PUSH2 0x107A DUP3 PUSH1 0x20 DUP6 ADD PUSH2 0x360 JUMP JUMPDEST SWAP3 PUSH2 0x1088 DUP4 PUSH1 0x40 DUP4 ADD PUSH2 0x4EF JUMP JUMPDEST SWAP3 PUSH1 0x60 DUP3 ADD CALLDATALOAD PUSH8 0xFFFFFFFFFFFFFFFF DUP2 GT PUSH2 0x10AB JUMPI PUSH2 0x10A7 SWAP3 ADD PUSH2 0x1015 JUMP JUMPDEST SWAP1 SWAP2 JUMP JUMPDEST PUSH2 0x283 JUMP JUMPDEST PUSH2 0x27E JUMP JUMPDEST PUSH2 0x10CC PUSH2 0x10C3 CALLDATASIZE PUSH1 0x4 PUSH2 0x1054 JUMP JUMPDEST SWAP4 SWAP3 SWAP1 SWAP3 PUSH2 0x2847 JUMP JUMPDEST PUSH2 0x10D4 PUSH2 0x273 JUMP JUMPDEST DUP1 PUSH2 0x10DE DUP2 PUSH2 0x3D2 JUMP JUMPDEST SUB SWAP1 RETURN JUMPDEST CALLVALUE PUSH2 0x1112 JUMPI PUSH2 0x110E PUSH2 0x10FD PUSH2 0x10F8 CALLDATASIZE PUSH1 0x4 PUSH2 0x4FE JUMP JUMPDEST PUSH2 0x28A7 JUMP JUMPDEST PUSH2 0x1105 PUSH2 0x273 JUMP JUMPDEST SWAP2 DUP3 SWAP2 DUP3 PUSH2 0x489 JUMP JUMPDEST SUB SWAP1 RETURN JUMPDEST PUSH2 0x279 JUMP JUMPDEST CALLVALUE PUSH2 0x1147 JUMPI PUSH2 0x1143 PUSH2 0x1132 PUSH2 0x112D CALLDATASIZE PUSH1 0x4 PUSH2 0x703 JUMP JUMPDEST PUSH2 0x2940 JUMP JUMPDEST PUSH2 0x113A PUSH2 0x273 JUMP JUMPDEST SWAP2 DUP3 SWAP2 DUP3 PUSH2 0x62C JUMP JUMPDEST SUB SWAP1 RETURN JUMPDEST PUSH2 0x279 JUMP JUMPDEST CALLVALUE PUSH2 0x117B JUMPI PUSH2 0x1165 PUSH2 0x115F CALLDATASIZE PUSH1 0x4 PUSH2 0x837 JUMP JUMPDEST SWAP1 PUSH2 0x2990 JUMP JUMPDEST PUSH2 0x116D PUSH2 0x273 JUMP JUMPDEST DUP1 PUSH2 0x1177 DUP2 PUSH2 0x3D2 JUMP JUMPDEST SUB SWAP1 RETURN JUMPDEST PUSH2 0x279 JUMP JUMPDEST PUSH8 0xFFFFFFFFFFFFFFFF DUP2 GT PUSH2 0x1198 JUMPI PUSH1 0x20 DUP1 SWAP2 MUL ADD SWAP1 JUMP JUMPDEST PUSH2 0x968 JUMP JUMPDEST SWAP1 SWAP3 SWAP2 SWAP3 PUSH2 0x11B2 PUSH2 0x11AD DUP3 PUSH2 0x1180 JUMP JUMPDEST PUSH2 0x9A7 JUMP JUMPDEST SWAP4 DUP2 DUP6 MSTORE PUSH1 0x20 DUP1 DUP7 ADD SWAP3 MUL DUP4 ADD SWAP3 DUP2 DUP5 GT PUSH2 0x11EF JUMPI SWAP2 JUMPDEST DUP4 DUP4 LT PUSH2 0x11D6 JUMPI POP POP POP POP JUMP JUMPDEST PUSH1 0x20 DUP1 SWAP2 PUSH2 0x11E4 DUP5 DUP7 PUSH2 0x4EF JUMP JUMPDEST DUP2 MSTORE ADD SWAP3 ADD SWAP2 PUSH2 0x11C9 JUMP JUMPDEST PUSH2 0x1010 JUMP JUMPDEST SWAP1 DUP1 PUSH1 0x1F DUP4 ADD SLT ISZERO PUSH2 0x1212 JUMPI DUP2 PUSH1 0x20 PUSH2 0x120F SWAP4 CALLDATALOAD SWAP2 ADD PUSH2 0x119D JUMP JUMPDEST SWAP1 JUMP JUMPDEST PUSH2 0x95E JUMP JUMPDEST SWAP1 PUSH1 0x20 DUP3 DUP3 SUB SLT PUSH2 0x1248 JUMPI PUSH1 0x0 DUP3 ADD CALLDATALOAD PUSH8 0xFFFFFFFFFFFFFFFF DUP2 GT PUSH2 0x1243 JUMPI PUSH2 0x1240 SWAP3 ADD PUSH2 0x11F4 JUMP JUMPDEST SWAP1 JUMP JUMPDEST PUSH2 0x283 JUMP JUMPDEST PUSH2 0x27E JUMP JUMPDEST CALLVALUE PUSH2 0x127B JUMPI PUSH2 0x1265 PUSH2 0x1260 CALLDATASIZE PUSH1 0x4 PUSH2 0x1217 JUMP JUMPDEST PUSH2 0x29E3 JUMP JUMPDEST PUSH2 0x126D PUSH2 0x273 JUMP JUMPDEST DUP1 PUSH2 0x1277 DUP2 PUSH2 0x3D2 JUMP JUMPDEST SUB SWAP1 RETURN JUMPDEST PUSH2 0x279 JUMP JUMPDEST CALLVALUE PUSH2 0x12B0 JUMPI PUSH2 0x1290 CALLDATASIZE PUSH1 0x4 PUSH2 0x40C JUMP JUMPDEST PUSH2 0x12AC PUSH2 0x129B PUSH2 0x2A43 JUMP JUMPDEST PUSH2 0x12A3 PUSH2 0x273 JUMP JUMPDEST SWAP2 DUP3 SWAP2 DUP3 PUSH2 0x489 JUMP JUMPDEST SUB SWAP1 RETURN JUMPDEST PUSH2 0x279 JUMP JUMPDEST SWAP2 SWAP1 PUSH1 0x40 DUP4 DUP3 SUB SLT PUSH2 0x12DE JUMPI DUP1 PUSH2 0x12D2 PUSH2 0x12DB SWAP3 PUSH1 0x0 DUP7 ADD PUSH2 0x360 JUMP JUMPDEST SWAP4 PUSH1 0x20 ADD PUSH2 0x360 JUMP JUMPDEST SWAP1 JUMP JUMPDEST PUSH2 0x27E JUMP JUMPDEST CALLVALUE PUSH2 0x1314 JUMPI PUSH2 0x1310 PUSH2 0x12FF PUSH2 0x12F9 CALLDATASIZE PUSH1 0x4 PUSH2 0x12B5 JUMP JUMPDEST SWAP1 PUSH2 0x2A59 JUMP JUMPDEST PUSH2 0x1307 PUSH2 0x273 JUMP JUMPDEST SWAP2 DUP3 SWAP2 DUP3 PUSH2 0x2E9 JUMP JUMPDEST SUB SWAP1 RETURN JUMPDEST PUSH2 0x279 JUMP JUMPDEST CALLVALUE PUSH2 0x1347 JUMPI PUSH2 0x1331 PUSH2 0x132C CALLDATASIZE PUSH1 0x4 PUSH2 0x703 JUMP JUMPDEST PUSH2 0x2AD2 JUMP JUMPDEST PUSH2 0x1339 PUSH2 0x273 JUMP JUMPDEST DUP1 PUSH2 0x1343 DUP2 PUSH2 0x3D2 JUMP JUMPDEST SUB SWAP1 RETURN JUMPDEST PUSH2 0x279 JUMP JUMPDEST PUSH1 0x0 DUP1 REVERT JUMPDEST PUSH1 0x0 SWAP1 JUMP JUMPDEST PUSH2 0x135E PUSH2 0x1351 JUMP JUMPDEST POP PUSH4 0x76A4E239 PUSH1 0xE0 SHL PUSH2 0x1379 PUSH2 0x1373 DUP4 PUSH2 0x288 JUMP JUMPDEST SWAP2 PUSH2 0x288 JUMP JUMPDEST EQ SWAP1 DUP2 ISZERO PUSH2 0x1386 JUMPI JUMPDEST POP SWAP1 JUMP JUMPDEST PUSH2 0x1390 SWAP2 POP PUSH2 0x2ADD JUMP JUMPDEST CODESIZE PUSH2 0x1382 JUMP JUMPDEST PUSH32 0x6DB4061A20CA83A3BE756EE172BD37A029093AC5AFE4CE968C6D5435B43CB011 SWAP1 JUMP JUMPDEST SWAP1 PUSH2 0x13D4 SWAP2 PUSH2 0x13CF PUSH2 0x13CA PUSH2 0x1396 JUMP JUMPDEST PUSH2 0x2B21 JUMP JUMPDEST PUSH2 0x13D6 JUMP JUMPDEST JUMP JUMPDEST SWAP1 PUSH2 0x13E0 SWAP2 PUSH2 0x2D3B JUMP JUMPDEST JUMP JUMPDEST SWAP1 PUSH2 0x13EC SWAP2 PUSH2 0x13BA JUMP JUMPDEST JUMP JUMPDEST PUSH1 0x60 SWAP1 JUMP JUMPDEST PUSH4 0x4E487B71 PUSH1 0xE0 SHL PUSH1 0x0 MSTORE PUSH1 0x22 PUSH1 0x4 MSTORE PUSH1 0x24 PUSH1 0x0 REVERT JUMPDEST SWAP1 PUSH1 0x1 PUSH1 0x2 DUP4 DIV SWAP3 AND DUP1 ISZERO PUSH2 0x1429 JUMPI JUMPDEST PUSH1 0x20 DUP4 LT EQ PUSH2 0x1424 JUMPI JUMP JUMPDEST PUSH2 0x13F3 JUMP JUMPDEST SWAP2 PUSH1 0x7F AND SWAP2 PUSH2 0x1419 JUMP JUMPDEST PUSH1 0x20 SWAP2 DUP2 MSTORE ADD SWAP1 JUMP JUMPDEST PUSH1 0x0 MSTORE PUSH1 0x20 PUSH1 0x0 KECCAK256 SWAP1 JUMP JUMPDEST SWAP1 PUSH1 0x0 SWAP3 SWAP2 DUP1 SLOAD SWAP1 PUSH2 0x1462 PUSH2 0x145B DUP4 PUSH2 0x1409 JUMP JUMPDEST DUP1 SWAP5 PUSH2 0x1433 JUMP JUMPDEST SWAP2 PUSH1 0x1 DUP2 AND SWAP1 DUP2 PUSH1 0x0 EQ PUSH2 0x14BB JUMPI POP PUSH1 0x1 EQ PUSH2 0x147E JUMPI JUMPDEST POP POP POP JUMP JUMPDEST PUSH2 0x148B SWAP2 SWAP3 SWAP4 SWAP5 POP PUSH2 0x143C JUMP JUMPDEST SWAP2 PUSH1 0x0 SWAP3 JUMPDEST DUP2 DUP5 LT PUSH2 0x14A3 JUMPI POP POP ADD SWAP1 CODESIZE DUP1 DUP1 PUSH2 0x1479 JUMP JUMPDEST PUSH1 0x1 DUP2 PUSH1 0x20 SWAP3 SWAP6 SWAP4 SWAP6 SLOAD DUP5 DUP7 ADD MSTORE ADD SWAP2 ADD SWAP3 SWAP1 PUSH2 0x1490 JUMP JUMPDEST SWAP3 SWAP5 SWAP6 POP POP POP PUSH1 0xFF NOT AND DUP3 MSTORE ISZERO ISZERO PUSH1 0x20 MUL ADD SWAP1 CODESIZE DUP1 DUP1 PUSH2 0x1479 JUMP JUMPDEST SWAP1 PUSH2 0x14E0 SWAP2 PUSH2 0x1447 JUMP JUMPDEST SWAP1 JUMP JUMPDEST SWAP1 PUSH2 0x1503 PUSH2 0x14FC SWAP3 PUSH2 0x14F3 PUSH2 0x273 JUMP JUMPDEST SWAP4 DUP5 DUP1 SWAP3 PUSH2 0x14D6 JUMP JUMPDEST SUB DUP4 PUSH2 0x97E JUMP JUMPDEST JUMP JUMPDEST PUSH2 0x150E SWAP1 PUSH2 0x14E3 JUMP JUMPDEST SWAP1 JUMP JUMPDEST PUSH2 0x1519 PUSH2 0x13EE JUMP JUMPDEST POP PUSH2 0x1524 PUSH1 0x7 PUSH2 0x1505 JUMP JUMPDEST SWAP1 JUMP JUMPDEST PUSH1 0x0 SWAP1 JUMP JUMPDEST PUSH2 0x1534 PUSH2 0x1527 JUMP JUMPDEST POP DUP1 PUSH1 0x0 MSTORE PUSH8 0x3EC412A9852D173D PUSH1 0xC1 SHL PUSH1 0x1C MSTORE PUSH1 0x20 PUSH1 0x0 KECCAK256 DUP2 ADD ADD DUP1 SLOAD PUSH1 0x60 SHL ISZERO PUSH2 0x1561 JUMPI PUSH1 0x1 ADD SLOAD SWAP1 JUMP JUMPDEST PUSH4 0xCEEA21B6 PUSH1 0x0 MSTORE PUSH1 0x4 PUSH1 0x1C REVERT JUMPDEST PUSH2 0x157C SWAP2 CALLER SWAP2 SWAP1 SWAP2 PUSH2 0x2DB5 JUMP JUMPDEST JUMP JUMPDEST PUSH32 0x70649EC320B507FEBAD3E8EF750E5F580B9AE32F9F50D4C7B121332C81971530 SWAP1 JUMP JUMPDEST PUSH2 0x15BB SWAP1 PUSH2 0x15B6 PUSH2 0x15B1 PUSH2 0x157E JUMP JUMPDEST PUSH2 0x2B21 JUMP JUMPDEST PUSH2 0x163E JUMP JUMPDEST JUMP JUMPDEST SWAP1 JUMP JUMPDEST PUSH2 0x15D4 PUSH2 0x15CF PUSH2 0x15D9 SWAP3 PUSH2 0x334 JUMP JUMPDEST PUSH2 0x15BD JUMP JUMPDEST PUSH2 0x334 JUMP JUMPDEST SWAP1 JUMP JUMPDEST PUSH2 0x15E5 SWAP1 PUSH2 0x15C0 JUMP JUMPDEST SWAP1 JUMP JUMPDEST PUSH2 0x15F1 SWAP1 PUSH2 0x15DC JUMP JUMPDEST SWAP1 JUMP JUMPDEST SWAP1 PUSH2 0x1605 PUSH1 0x1 DUP1 PUSH1 0xA0 SHL SUB SWAP2 PUSH2 0xF16 JUMP JUMPDEST SWAP2 DUP2 NOT AND SWAP2 AND OR SWAP1 JUMP JUMPDEST PUSH2 0x1618 SWAP1 PUSH2 0x15DC JUMP JUMPDEST SWAP1 JUMP JUMPDEST SWAP1 JUMP JUMPDEST SWAP1 PUSH2 0x1633 PUSH2 0x162E PUSH2 0x163A SWAP3 PUSH2 0x160F JUMP JUMPDEST PUSH2 0x161B JUMP JUMPDEST DUP3 SLOAD PUSH2 0x15F4 JUMP JUMPDEST SWAP1 SSTORE JUMP JUMPDEST PUSH2 0x164A PUSH2 0x1651 SWAP2 PUSH2 0x15E8 JUMP JUMPDEST PUSH1 0x4 PUSH2 0x161E JUMP JUMPDEST JUMP JUMPDEST PUSH2 0x165C SWAP1 PUSH2 0x15A2 JUMP JUMPDEST JUMP JUMPDEST PUSH1 0x0 SWAP1 JUMP JUMPDEST PUSH1 0x0 SHR SWAP1 JUMP JUMPDEST SWAP1 JUMP JUMPDEST PUSH2 0x1678 PUSH2 0x167D SWAP2 PUSH2 0x1663 JUMP JUMPDEST PUSH2 0x1669 JUMP JUMPDEST SWAP1 JUMP JUMPDEST PUSH2 0x168A SWAP1 SLOAD PUSH2 0x166C JUMP JUMPDEST SWAP1 JUMP JUMPDEST PUSH2 0x1695 PUSH2 0x165E JUMP JUMPDEST POP PUSH2 0x16A0 PUSH1 0xC PUSH2 0x1680 JUMP JUMPDEST SWAP1 JUMP JUMPDEST SWAP1 PUSH1 0x0 NOT PUSH1 0x60 SHR SWAP2 DUP3 AND SWAP1 DUP3 AND SWAP2 DUP4 PUSH1 0x0 MSTORE CALLER PUSH8 0x3EC412A9852D173D PUSH1 0xC1 SHL OR PUSH1 0x1C MSTORE PUSH1 0x20 PUSH1 0x0 KECCAK256 DUP5 ADD DUP5 ADD SWAP1 DUP2 SLOAD DUP1 SWAP2 AND DUP4 DUP2 EQ DUP2 MUL ISZERO PUSH2 0x178B JUMPI POP DUP3 PUSH1 0x0 MSTORE DUP2 PUSH1 0x1 ADD SLOAD DUP1 CALLER EQ DUP5 CALLER EQ OR ISZERO PUSH2 0x1773 JUMPI JUMPDEST PUSH2 0x1767 JUMPI JUMPDEST DUP4 DUP4 XOR XOR SWAP1 SSTORE PUSH1 0x1C PUSH1 0xC KECCAK256 PUSH1 0x1 DUP2 SLOAD SUB SWAP1 SSTORE DUP2 PUSH1 0x0 MSTORE PUSH1 0x1C PUSH1 0xC KECCAK256 PUSH1 0x1 DUP2 SLOAD ADD SWAP1 PUSH4 0xFFFFFFFF DUP3 AND DUP5 MUL ISZERO PUSH2 0x1752 JUMPI SSTORE PUSH32 0xDDF252AD1BE2C89B69C2B068FC378DAA952BA7F163C4A11628F55A4DF523B3EF PUSH1 0x0 CODESIZE LOG4 JUMP JUMPDEST PUSH8 0xEA553B3401336CEA DUP5 ISZERO PUSH1 0x2 SHL MSTORE PUSH1 0x4 PUSH1 0x1C REVERT JUMPDEST PUSH1 0x0 DUP3 PUSH1 0x1 ADD SSTORE PUSH2 0x16FB JUMP JUMPDEST PUSH1 0x30 PUSH1 0xC KECCAK256 SLOAD PUSH2 0x16F6 JUMPI PUSH4 0x4B6E7F18 PUSH1 0x0 MSTORE PUSH1 0x4 PUSH1 0x1C REVERT JUMPDEST PUSH8 0xCEEA21B6A1148100 SWAP1 ISZERO PUSH1 0x2 SHL MSTORE PUSH1 0x4 PUSH1 0x1C REVERT JUMPDEST PUSH1 0x0 SWAP1 JUMP JUMPDEST PUSH2 0x17AE SWAP1 PUSH2 0x6DC JUMP JUMPDEST SWAP1 JUMP JUMPDEST SWAP1 PUSH2 0x17BB SWAP1 PUSH2 0x17A5 JUMP JUMPDEST PUSH1 0x0 MSTORE PUSH1 0x20 MSTORE PUSH1 0x40 PUSH1 0x0 KECCAK256 SWAP1 JUMP JUMPDEST SWAP1 JUMP JUMPDEST PUSH2 0x17D8 PUSH2 0x17DD SWAP2 PUSH2 0x1663 JUMP JUMPDEST PUSH2 0x17C9 JUMP JUMPDEST SWAP1 JUMP JUMPDEST PUSH2 0x17EA SWAP1 SLOAD PUSH2 0x17CC JUMP JUMPDEST SWAP1 JUMP JUMPDEST PUSH1 0x1 PUSH2 0x1806 PUSH2 0x180C SWAP3 PUSH2 0x17FE PUSH2 0x17A0 JUMP JUMPDEST POP PUSH1 0x2 PUSH2 0x17B1 JUMP JUMPDEST ADD PUSH2 0x17E0 JUMP JUMPDEST SWAP1 JUMP JUMPDEST PUSH2 0x1823 PUSH2 0x181E PUSH2 0x1828 SWAP3 PUSH2 0x4D7 JUMP JUMPDEST PUSH2 0x15BD JUMP JUMPDEST PUSH2 0x4D7 JUMP JUMPDEST SWAP1 JUMP JUMPDEST SWAP1 PUSH2 0x1835 SWAP1 PUSH2 0x180F JUMP JUMPDEST PUSH1 0x0 MSTORE PUSH1 0x20 MSTORE PUSH1 0x40 PUSH1 0x0 KECCAK256 SWAP1 JUMP JUMPDEST PUSH1 0x1 DUP1 PUSH1 0xA0 SHL SUB AND SWAP1 JUMP JUMPDEST PUSH2 0x185A PUSH2 0x185F SWAP2 PUSH2 0x1663 JUMP JUMPDEST PUSH2 0x1843 JUMP JUMPDEST SWAP1 JUMP JUMPDEST PUSH2 0x186C SWAP1 SLOAD PUSH2 0x184E JUMP JUMPDEST SWAP1 JUMP JUMPDEST SWAP1 PUSH2 0x1879 SWAP1 PUSH2 0x33F JUMP JUMPDEST SWAP1 MSTORE JUMP JUMPDEST PUSH1 0xA0 SHR SWAP1 JUMP JUMPDEST PUSH12 0xFFFFFFFFFFFFFFFFFFFFFFFF AND SWAP1 JUMP JUMPDEST PUSH2 0x18A0 PUSH2 0x18A5 SWAP2 PUSH2 0x187D JUMP JUMPDEST PUSH2 0x1883 JUMP JUMPDEST SWAP1 JUMP JUMPDEST PUSH2 0x18B2 SWAP1 SLOAD PUSH2 0x1894 JUMP JUMPDEST SWAP1 JUMP JUMPDEST SWAP1 PUSH2 0x18BF SWAP1 PUSH2 0x36F JUMP JUMPDEST SWAP1 MSTORE JUMP JUMPDEST PUSH2 0x18CD PUSH1 0x40 PUSH2 0x9A7 JUMP JUMPDEST SWAP1 JUMP JUMPDEST SWAP1 PUSH2 0x1907 PUSH2 0x18FE PUSH1 0x0 PUSH2 0x18E1 PUSH2 0x18C3 JUMP JUMPDEST SWAP5 PUSH2 0x18F8 PUSH2 0x18F0 DUP4 DUP4 ADD PUSH2 0x1862 JUMP JUMPDEST DUP4 DUP9 ADD PUSH2 0x186F JUMP JUMPDEST ADD PUSH2 0x18A8 JUMP JUMPDEST PUSH1 0x20 DUP5 ADD PUSH2 0x18B5 JUMP JUMPDEST JUMP JUMPDEST PUSH2 0x1912 SWAP1 PUSH2 0x18D0 JUMP JUMPDEST SWAP1 JUMP JUMPDEST PUSH2 0x191F SWAP1 MLOAD PUSH2 0x33F JUMP JUMPDEST SWAP1 JUMP JUMPDEST PUSH2 0x1936 PUSH2 0x1931 PUSH2 0x193B SWAP3 PUSH2 0xF13 JUMP JUMPDEST PUSH2 0x15BD JUMP JUMPDEST PUSH2 0x334 JUMP JUMPDEST SWAP1 JUMP JUMPDEST PUSH2 0x1947 SWAP1 PUSH2 0x1922 JUMP JUMPDEST SWAP1 JUMP JUMPDEST PUSH2 0x1954 SWAP1 MLOAD PUSH2 0x36F JUMP JUMPDEST SWAP1 JUMP JUMPDEST PUSH2 0x196B PUSH2 0x1966 PUSH2 0x1970 SWAP3 PUSH2 0x36F JUMP JUMPDEST PUSH2 0x15BD JUMP JUMPDEST PUSH2 0x4D7 JUMP JUMPDEST SWAP1 JUMP JUMPDEST PUSH4 0x4E487B71 PUSH1 0xE0 SHL PUSH1 0x0 MSTORE PUSH1 0x11 PUSH1 0x4 MSTORE PUSH1 0x24 PUSH1 0x0 REVERT JUMPDEST PUSH2 0x1998 PUSH2 0x199E SWAP2 SWAP4 SWAP3 SWAP4 PUSH2 0x4D7 JUMP JUMPDEST SWAP3 PUSH2 0x4D7 JUMP JUMPDEST SWAP2 PUSH2 0x19AA DUP4 DUP3 MUL PUSH2 0x4D7 JUMP JUMPDEST SWAP3 DUP2 DUP5 DIV EQ SWAP1 ISZERO OR ISZERO PUSH2 0x19B9 JUMPI JUMP JUMPDEST PUSH2 0x1973 JUMP JUMPDEST PUSH4 0x4E487B71 PUSH1 0xE0 SHL PUSH1 0x0 MSTORE PUSH1 0x12 PUSH1 0x4 MSTORE PUSH1 0x24 PUSH1 0x0 REVERT JUMPDEST PUSH2 0x19E0 PUSH2 0x19E6 SWAP2 PUSH2 0x4D7 JUMP JUMPDEST SWAP2 PUSH2 0x4D7 JUMP JUMPDEST SWAP1 DUP2 ISZERO PUSH2 0x19F1 JUMPI DIV SWAP1 JUMP JUMPDEST PUSH2 0x19BE JUMP JUMPDEST PUSH2 0x1A19 PUSH2 0x1A1E SWAP2 SWAP4 SWAP3 SWAP4 PUSH2 0x1A08 PUSH2 0x1527 JUMP JUMPDEST POP PUSH2 0x1A11 PUSH2 0x165E JUMP JUMPDEST POP PUSH1 0x1 PUSH2 0x182B JUMP JUMPDEST PUSH2 0x1909 JUMP JUMPDEST SWAP2 PUSH2 0x1A2B PUSH1 0x0 DUP5 ADD PUSH2 0x1915 JUMP JUMPDEST PUSH2 0x1A46 PUSH2 0x1A40 PUSH2 0x1A3B PUSH1 0x0 PUSH2 0x193E JUMP JUMPDEST PUSH2 0x33F JUMP JUMPDEST SWAP2 PUSH2 0x33F JUMP JUMPDEST EQ PUSH2 0x1A93 JUMPI JUMPDEST PUSH1 0x0 PUSH2 0x1A88 PUSH2 0x1A72 PUSH2 0x1A8F SWAP4 PUSH2 0x1A6C PUSH2 0x1A67 PUSH1 0x20 DUP10 ADD PUSH2 0x194A JUMP JUMPDEST PUSH2 0x1957 JUMP JUMPDEST SWAP1 PUSH2 0x1989 JUMP JUMPDEST PUSH2 0x1A82 PUSH2 0x1A7D PUSH2 0x2E7C JUMP JUMPDEST PUSH2 0x1957 JUMP JUMPDEST SWAP1 PUSH2 0x19D4 JUMP JUMPDEST SWAP4 ADD PUSH2 0x1915 JUMP JUMPDEST SWAP2 SWAP1 JUMP JUMPDEST SWAP2 POP PUSH2 0x1A8F PUSH1 0x0 PUSH2 0x1A88 PUSH2 0x1A72 PUSH2 0x1AA9 DUP4 PUSH2 0x1909 JUMP JUMPDEST SWAP6 SWAP4 POP POP POP POP PUSH2 0x1A4C JUMP JUMPDEST PUSH32 0x9F2DF0FED2C77648DE5860A4CC508CD0818C85B8B8A1AB4CEEEF8D981C8956A6 SWAP1 JUMP JUMPDEST SWAP1 PUSH2 0x1AF2 SWAP2 PUSH2 0x1AED PUSH2 0x1AE8 PUSH2 0x1AB4 JUMP JUMPDEST PUSH2 0x2B21 JUMP JUMPDEST PUSH2 0x1B9B JUMP JUMPDEST JUMP JUMPDEST PUSH2 0x1B08 PUSH2 0x1B03 PUSH2 0x1B0D SWAP3 PUSH2 0xF13 JUMP JUMPDEST PUSH2 0x15BD JUMP JUMPDEST PUSH2 0x4D7 JUMP JUMPDEST SWAP1 JUMP JUMPDEST PUSH1 0x1 PUSH2 0x1B1C SWAP2 ADD PUSH2 0x4D7 JUMP JUMPDEST SWAP1 JUMP JUMPDEST PUSH2 0x1B28 SWAP1 PUSH2 0x4D7 JUMP JUMPDEST PUSH1 0x0 NOT DUP2 EQ PUSH2 0x1B37 JUMPI PUSH1 0x1 ADD SWAP1 JUMP JUMPDEST PUSH2 0x1973 JUMP JUMPDEST SWAP1 PUSH2 0x1B49 PUSH1 0x0 NOT SWAP2 PUSH2 0xF16 JUMP JUMPDEST SWAP2 DUP2 NOT AND SWAP2 AND OR SWAP1 JUMP JUMPDEST SWAP1 JUMP JUMPDEST SWAP1 PUSH2 0x1B6B PUSH2 0x1B66 PUSH2 0x1B72 SWAP3 PUSH2 0x180F JUMP JUMPDEST PUSH2 0x1B53 JUMP JUMPDEST DUP3 SLOAD PUSH2 0x1B3C JUMP JUMPDEST SWAP1 SSTORE JUMP JUMPDEST PUSH2 0x1B85 PUSH2 0x1B8B SWAP2 SWAP4 SWAP3 SWAP4 PUSH2 0x4D7 JUMP JUMPDEST SWAP3 PUSH2 0x4D7 JUMP JUMPDEST DUP3 ADD DUP1 SWAP3 GT PUSH2 0x1B96 JUMPI JUMP JUMPDEST PUSH2 0x1973 JUMP JUMPDEST SWAP2 SWAP1 PUSH2 0x1BA7 PUSH1 0x0 PUSH2 0x1AF4 JUMP JUMPDEST SWAP2 JUMPDEST DUP3 PUSH2 0x1BBC PUSH2 0x1BB6 DUP5 PUSH2 0x4D7 JUMP JUMPDEST SWAP2 PUSH2 0x4D7 JUMP JUMPDEST LT ISZERO PUSH2 0x1C3D JUMPI JUMPDEST PUSH2 0x1BD5 PUSH2 0x1BD0 PUSH1 0xB PUSH2 0x1680 JUMP JUMPDEST PUSH2 0x2E93 JUMP JUMPDEST ISZERO PUSH2 0x1BFB JUMPI PUSH2 0x1BF6 PUSH2 0x1BEF PUSH2 0x1BEA PUSH1 0xB PUSH2 0x1680 JUMP JUMPDEST PUSH2 0x1B1F JUMP JUMPDEST PUSH1 0xB PUSH2 0x1B56 JUMP JUMPDEST PUSH2 0x1BC3 JUMP JUMPDEST SWAP1 SWAP2 PUSH2 0x1C36 SWAP1 PUSH2 0x1C15 DUP6 PUSH2 0x1C0F PUSH1 0xB PUSH2 0x1680 JUMP JUMPDEST SWAP1 PUSH2 0x2EC0 JUMP JUMPDEST PUSH2 0x1C31 PUSH2 0x1C2A PUSH2 0x1C25 PUSH1 0xB PUSH2 0x1680 JUMP JUMPDEST PUSH2 0x1B1F JUMP JUMPDEST PUSH1 0xB PUSH2 0x1B56 JUMP JUMPDEST PUSH2 0x1B10 JUMP JUMPDEST SWAP2 SWAP1 PUSH2 0x1BA9 JUMP JUMPDEST SWAP3 POP PUSH2 0x1C5E SWAP2 POP PUSH2 0x1C57 SWAP1 PUSH2 0x1C52 PUSH1 0xC PUSH2 0x1680 JUMP JUMPDEST PUSH2 0x1B76 JUMP JUMPDEST PUSH1 0xC PUSH2 0x1B56 JUMP JUMPDEST JUMP JUMPDEST SWAP1 PUSH2 0x1C6A SWAP2 PUSH2 0x1AD8 JUMP JUMPDEST JUMP JUMPDEST SWAP1 PUSH2 0x1C87 SWAP2 PUSH2 0x1C82 PUSH2 0x1C7D DUP3 PUSH2 0x17ED JUMP JUMPDEST PUSH2 0x2B21 JUMP JUMPDEST PUSH2 0x1C89 JUMP JUMPDEST JUMP JUMPDEST SWAP1 PUSH2 0x1C93 SWAP2 PUSH2 0x2F59 JUMP JUMPDEST JUMP JUMPDEST SWAP1 PUSH2 0x1C9F SWAP2 PUSH2 0x1C6C JUMP JUMPDEST JUMP JUMPDEST PUSH1 0x20 PUSH32 0x20726F6C657320666F722073656C660000000000000000000000000000000000 SWAP2 PUSH32 0x416363657373436F6E74726F6C3A2063616E206F6E6C792072656E6F756E6365 PUSH1 0x0 DUP3 ADD MSTORE ADD MSTORE JUMP JUMPDEST PUSH2 0x1CFC PUSH1 0x2F PUSH1 0x40 SWAP3 PUSH2 0x420 JUMP JUMPDEST PUSH2 0x1D05 DUP2 PUSH2 0x1CA1 JUMP JUMPDEST ADD SWAP1 JUMP JUMPDEST PUSH2 0x1D1F SWAP1 PUSH1 0x20 DUP2 ADD SWAP1 PUSH1 0x0 DUP2 DUP4 SUB SWAP2 ADD MSTORE PUSH2 0x1CEF JUMP JUMPDEST SWAP1 JUMP JUMPDEST ISZERO PUSH2 0x1D29 JUMPI JUMP JUMPDEST PUSH2 0x1D31 PUSH2 0x273 JUMP JUMPDEST PUSH3 0x461BCD PUSH1 0xE5 SHL DUP2 MSTORE DUP1 PUSH2 0x1D47 PUSH1 0x4 DUP3 ADD PUSH2 0x1D09 JUMP JUMPDEST SUB SWAP1 REVERT JUMPDEST SWAP1 PUSH2 0x1D78 SWAP2 PUSH2 0x1D73 DUP3 PUSH2 0x1D6D PUSH2 0x1D67 PUSH2 0x1D62 PUSH2 0x2F83 JUMP JUMPDEST PUSH2 0x33F JUMP JUMPDEST SWAP2 PUSH2 0x33F JUMP JUMPDEST EQ PUSH2 0x1D22 JUMP JUMPDEST PUSH2 0x2F90 JUMP JUMPDEST JUMP JUMPDEST SWAP1 PUSH2 0x1D94 SWAP2 PUSH2 0x1D8F PUSH2 0x1D8A PUSH2 0x1AB4 JUMP JUMPDEST PUSH2 0x2B21 JUMP JUMPDEST PUSH2 0x1D96 JUMP JUMPDEST JUMP JUMPDEST SWAP1 PUSH2 0x1DA0 SWAP2 PUSH2 0x2EC0 JUMP JUMPDEST PUSH2 0x1DBC PUSH2 0x1DB5 PUSH2 0x1DB0 PUSH1 0xC PUSH2 0x1680 JUMP JUMPDEST PUSH2 0x1B1F JUMP JUMPDEST PUSH1 0xC PUSH2 0x1B56 JUMP JUMPDEST JUMPDEST PUSH2 0x1DCF PUSH2 0x1DCA PUSH1 0xB PUSH2 0x1680 JUMP JUMPDEST PUSH2 0x2E93 JUMP JUMPDEST ISZERO PUSH2 0x1DF5 JUMPI PUSH2 0x1DF0 PUSH2 0x1DE9 PUSH2 0x1DE4 PUSH1 0xB PUSH2 0x1680 JUMP JUMPDEST PUSH2 0x1B1F JUMP JUMPDEST PUSH1 0xB PUSH2 0x1B56 JUMP JUMPDEST PUSH2 0x1DBD JUMP JUMPDEST JUMP JUMPDEST SWAP1 PUSH2 0x1E01 SWAP2 PUSH2 0x1D7A JUMP JUMPDEST JUMP JUMPDEST SWAP1 PUSH2 0x1E15 PUSH2 0x1E10 DUP4 PUSH2 0x9BC JUMP JUMPDEST PUSH2 0x9A7 JUMP JUMPDEST SWAP2 DUP3 MSTORE JUMP JUMPDEST PUSH2 0x1E24 PUSH1 0x0 PUSH2 0x1E03 JUMP JUMPDEST SWAP1 JUMP JUMPDEST PUSH2 0x1E2F PUSH2 0x1E1A JUMP JUMPDEST SWAP1 JUMP JUMPDEST SWAP2 PUSH2 0x1E3F DUP4 DUP4 DUP4 SWAP2 PUSH2 0x16A3 JUMP JUMPDEST PUSH2 0x1E48 DUP3 PUSH2 0x2FBA JUMP JUMPDEST PUSH2 0x1E52 JUMPI JUMPDEST POP POP POP JUMP JUMPDEST PUSH2 0x1E65 SWAP3 SWAP2 PUSH2 0x1E5F PUSH2 0x1E27 JUMP JUMPDEST SWAP3 PUSH2 0x2FC7 JUMP JUMPDEST CODESIZE DUP1 DUP1 PUSH2 0x1E4D JUMP JUMPDEST PUSH2 0x1E77 SWAP1 CALLER PUSH2 0x3058 JUMP JUMPDEST JUMP JUMPDEST PUSH1 0xFF AND SWAP1 JUMP JUMPDEST PUSH2 0x1E8B PUSH2 0x1E90 SWAP2 PUSH2 0x1663 JUMP JUMPDEST PUSH2 0x1E79 JUMP JUMPDEST SWAP1 JUMP JUMPDEST PUSH2 0x1E9D SWAP1 SLOAD PUSH2 0x1E7F JUMP JUMPDEST SWAP1 JUMP JUMPDEST SWAP1 PUSH2 0x1EAC PUSH1 0xFF SWAP2 PUSH2 0xF16 JUMP JUMPDEST SWAP2 DUP2 NOT AND SWAP2 AND OR SWAP1 JUMP JUMPDEST PUSH2 0x1EBF SWAP1 PUSH2 0x2D7 JUMP JUMPDEST SWAP1 JUMP JUMPDEST SWAP1 JUMP JUMPDEST SWAP1 PUSH2 0x1EDA PUSH2 0x1ED5 PUSH2 0x1EE1 SWAP3 PUSH2 0x1EB6 JUMP JUMPDEST PUSH2 0x1EC2 JUMP JUMPDEST DUP3 SLOAD PUSH2 0x1EA0 JUMP JUMPDEST SWAP1 SSTORE JUMP JUMPDEST SWAP7 SWAP8 SWAP1 SWAP2 SWAP3 SWAP6 SWAP5 SWAP4 SWAP8 CALLER PUSH2 0x1F21 PUSH2 0x1F1B PUSH32 0x0 PUSH2 0x33F JUMP JUMPDEST SWAP2 PUSH2 0x33F JUMP JUMPDEST EQ ISZERO DUP1 ISZERO PUSH2 0x1F84 JUMPI JUMPDEST PUSH2 0x1F67 JUMPI PUSH2 0x1F59 SWAP9 PUSH2 0x1F4C SWAP8 PUSH2 0x1F47 SWAP6 DUP11 SWAP6 SWAP1 SWAP2 SWAP3 SWAP4 SWAP5 SWAP6 PUSH2 0x3122 JUMP JUMPDEST PUSH2 0x2D3B JUMP JUMPDEST PUSH2 0x1F54 PUSH2 0x1AB4 JUMP JUMPDEST PUSH2 0x2F59 JUMP JUMPDEST PUSH2 0x1F65 PUSH1 0x1 PUSH1 0xA PUSH2 0x1EC5 JUMP JUMPDEST JUMP JUMPDEST PUSH1 0x0 PUSH4 0xF92EE8A9 PUSH1 0xE0 SHL DUP2 MSTORE DUP1 PUSH2 0x1F80 PUSH1 0x4 DUP3 ADD PUSH2 0x3D2 JUMP JUMPDEST SUB SWAP1 REVERT JUMPDEST POP PUSH2 0x1F8F PUSH1 0xA PUSH2 0x1E93 JUMP JUMPDEST PUSH2 0x1F2A JUMP JUMPDEST SWAP1 PUSH2 0x1FAF SWAP3 SWAP2 PUSH2 0x1FAA PUSH2 0x1FA5 PUSH2 0x1396 JUMP JUMPDEST PUSH2 0x2B21 JUMP JUMPDEST PUSH2 0x1FB1 JUMP JUMPDEST JUMP JUMPDEST SWAP2 PUSH2 0x1FBE SWAP3 SWAP2 SWAP1 SWAP2 PUSH2 0x3217 JUMP JUMPDEST JUMP JUMPDEST SWAP1 PUSH2 0x1FCB SWAP3 SWAP2 PUSH2 0x1F94 JUMP JUMPDEST JUMP JUMPDEST PUSH32 0xE02A0315B383857AC496E9D2B2546A699AFAEB4E5E83A1FDEF64376D0B74E5A5 SWAP1 JUMP JUMPDEST SWAP1 PUSH2 0x200B SWAP2 PUSH2 0x2006 PUSH2 0x2001 PUSH2 0x1FCD JUMP JUMPDEST PUSH2 0x2B21 JUMP JUMPDEST PUSH2 0x21F7 JUMP JUMPDEST JUMP JUMPDEST PUSH1 0x1F PUSH1 0x20 SWAP2 ADD DIV SWAP1 JUMP JUMPDEST SHL SWAP1 JUMP JUMPDEST SWAP2 SWAP1 PUSH1 0x8 PUSH2 0x2037 SWAP2 MUL SWAP2 PUSH2 0x2031 PUSH1 0x0 NOT DUP5 PUSH2 0x2017 JUMP JUMPDEST SWAP3 PUSH2 0x2017 JUMP JUMPDEST SWAP2 DUP2 NOT AND SWAP2 AND OR SWAP1 JUMP JUMPDEST SWAP2 SWAP1 PUSH2 0x2057 PUSH2 0x2052 PUSH2 0x205F SWAP4 PUSH2 0x180F JUMP JUMPDEST PUSH2 0x1B53 JUMP JUMPDEST SWAP1 DUP4 SLOAD PUSH2 0x201B JUMP JUMPDEST SWAP1 SSTORE JUMP JUMPDEST PUSH2 0x2075 SWAP2 PUSH2 0x206F PUSH2 0x165E JUMP JUMPDEST SWAP2 PUSH2 0x2041 JUMP JUMPDEST JUMP JUMPDEST JUMPDEST DUP2 DUP2 LT PUSH2 0x2083 JUMPI POP POP JUMP JUMPDEST DUP1 PUSH2 0x2091 PUSH1 0x0 PUSH1 0x1 SWAP4 PUSH2 0x2063 JUMP JUMPDEST ADD PUSH2 0x2078 JUMP JUMPDEST SWAP2 SWAP1 PUSH1 0x1F DUP2 GT PUSH2 0x20A7 JUMPI JUMPDEST POP POP POP JUMP JUMPDEST PUSH2 0x20B3 PUSH2 0x20D8 SWAP4 PUSH2 0x143C JUMP JUMPDEST SWAP1 PUSH1 0x20 PUSH2 0x20BF DUP5 PUSH2 0x200D JUMP JUMPDEST DUP4 ADD SWAP4 LT PUSH2 0x20E0 JUMPI JUMPDEST PUSH2 0x20D1 SWAP1 PUSH2 0x200D JUMP JUMPDEST ADD SWAP1 PUSH2 0x2077 JUMP JUMPDEST CODESIZE DUP1 DUP1 PUSH2 0x20A2 JUMP JUMPDEST SWAP2 POP PUSH2 0x20D1 DUP2 SWAP3 SWAP1 POP PUSH2 0x20C8 JUMP JUMPDEST SHR SWAP1 JUMP JUMPDEST SWAP1 PUSH2 0x2103 SWAP1 PUSH1 0x0 NOT SWAP1 PUSH1 0x8 MUL PUSH2 0x20EE JUMP JUMPDEST NOT AND SWAP1 JUMP JUMPDEST DUP2 PUSH2 0x2112 SWAP2 PUSH2 0x20F2 JUMP JUMPDEST SWAP1 PUSH1 0x2 MUL OR SWAP1 JUMP JUMPDEST SWAP1 PUSH2 0x2124 DUP2 PUSH2 0x41C JUMP JUMPDEST SWAP1 PUSH8 0xFFFFFFFFFFFFFFFF DUP3 GT PUSH2 0x21E6 JUMPI PUSH2 0x2148 DUP3 PUSH2 0x2142 DUP6 SLOAD PUSH2 0x1409 JUMP JUMPDEST DUP6 PUSH2 0x2097 JUMP JUMPDEST PUSH1 0x20 SWAP1 PUSH1 0x1F DUP4 GT PUSH1 0x1 EQ PUSH2 0x217D JUMPI SWAP2 DUP1 SWAP2 PUSH2 0x216C SWAP4 PUSH1 0x0 SWAP3 PUSH2 0x2171 JUMPI JUMPDEST POP POP PUSH2 0x2108 JUMP JUMPDEST SWAP1 SSTORE JUMPDEST JUMP JUMPDEST SWAP1 SWAP2 POP ADD MLOAD CODESIZE DUP1 PUSH2 0x2165 JUMP JUMPDEST PUSH1 0x1F NOT DUP4 AND SWAP2 PUSH2 0x218C DUP6 PUSH2 0x143C JUMP JUMPDEST SWAP3 PUSH1 0x0 JUMPDEST DUP2 DUP2 LT PUSH2 0x21CE JUMPI POP SWAP2 PUSH1 0x2 SWAP4 SWAP2 DUP6 PUSH1 0x1 SWAP7 SWAP5 LT PUSH2 0x21B4 JUMPI JUMPDEST POP POP POP MUL ADD SWAP1 SSTORE PUSH2 0x216F JUMP JUMPDEST PUSH2 0x21C4 SWAP2 ADD MLOAD PUSH1 0x1F DUP5 AND SWAP1 PUSH2 0x20F2 JUMP JUMPDEST SWAP1 SSTORE CODESIZE DUP1 DUP1 PUSH2 0x21A8 JUMP JUMPDEST SWAP2 SWAP4 PUSH1 0x20 PUSH1 0x1 DUP2 SWAP3 DUP8 DUP8 ADD MLOAD DUP2 SSTORE ADD SWAP6 ADD SWAP3 ADD PUSH2 0x2190 JUMP JUMPDEST PUSH2 0x968 JUMP JUMPDEST SWAP1 PUSH2 0x21F5 SWAP2 PUSH2 0x211A JUMP JUMPDEST JUMP JUMPDEST SWAP1 PUSH2 0x2206 PUSH2 0x220D SWAP3 PUSH1 0x7 PUSH2 0x21EB JUMP JUMPDEST PUSH1 0x8 PUSH2 0x21EB JUMP JUMPDEST JUMP JUMPDEST SWAP1 PUSH2 0x2219 SWAP2 PUSH2 0x1FF1 JUMP JUMPDEST JUMP JUMPDEST PUSH2 0x222D SWAP1 PUSH2 0x2227 PUSH2 0x1527 JUMP JUMPDEST POP PUSH2 0x329A JUMP JUMPDEST SWAP1 DUP2 ISZERO PUSH2 0x2236 JUMPI JUMP JUMPDEST PUSH4 0xCEEA21B6 PUSH1 0x0 MSTORE PUSH1 0x4 PUSH1 0x1C REVERT JUMPDEST PUSH2 0x224C PUSH2 0x165E JUMP JUMPDEST POP DUP1 ISZERO PUSH2 0x2274 JUMPI PUSH8 0x3EC412A9852D173D PUSH1 0xC1 SHL PUSH1 0x1C MSTORE PUSH1 0x0 MSTORE PUSH4 0xFFFFFFFF PUSH1 0x1C PUSH1 0xC KECCAK256 SLOAD AND SWAP1 JUMP JUMPDEST PUSH4 0x8F4EB604 PUSH1 0x0 MSTORE PUSH1 0x4 PUSH1 0x1C REVERT JUMPDEST PUSH2 0x229B SWAP1 PUSH2 0x2296 PUSH2 0x2291 PUSH2 0x1FCD JUMP JUMPDEST PUSH2 0x2B21 JUMP JUMPDEST PUSH2 0x229D JUMP JUMPDEST JUMP JUMPDEST PUSH2 0x22A8 SWAP1 PUSH1 0x6 PUSH2 0x21EB JUMP JUMPDEST JUMP JUMPDEST PUSH2 0x22B3 SWAP1 PUSH2 0x2282 JUMP JUMPDEST JUMP JUMPDEST SWAP1 PUSH2 0x22BF SWAP1 PUSH2 0x17A5 JUMP JUMPDEST PUSH1 0x0 MSTORE PUSH1 0x20 MSTORE PUSH1 0x40 PUSH1 0x0 KECCAK256 SWAP1 JUMP JUMPDEST SWAP1 JUMP JUMPDEST SWAP1 PUSH2 0x22F0 PUSH2 0x22EB PUSH2 0x22F5 SWAP4 PUSH2 0x22E3 PUSH2 0x1527 JUMP JUMPDEST POP PUSH1 0x3 PUSH2 0x22B5 JUMP JUMPDEST PUSH2 0x22CD JUMP JUMPDEST PUSH2 0x32FB JUMP JUMPDEST SWAP1 JUMP JUMPDEST PUSH2 0x2301 SWAP1 PUSH2 0x15C0 JUMP JUMPDEST SWAP1 JUMP JUMPDEST PUSH2 0x230D SWAP1 PUSH2 0x22F8 JUMP JUMPDEST SWAP1 JUMP JUMPDEST SWAP1 PUSH2 0x231A SWAP1 PUSH2 0x2304 JUMP JUMPDEST PUSH1 0x0 MSTORE PUSH1 0x20 MSTORE PUSH1 0x40 PUSH1 0x0 KECCAK256 SWAP1 JUMP JUMPDEST PUSH2 0x2350 SWAP2 PUSH1 0x0 PUSH2 0x2345 PUSH2 0x234B SWAP4 PUSH2 0x233D PUSH2 0x1351 JUMP JUMPDEST POP PUSH1 0x2 PUSH2 0x17B1 JUMP JUMPDEST ADD PUSH2 0x2310 JUMP JUMPDEST PUSH2 0x1E93 JUMP JUMPDEST SWAP1 JUMP JUMPDEST PUSH2 0x236C SWAP1 PUSH2 0x2367 PUSH2 0x2362 PUSH2 0x1FCD JUMP JUMPDEST PUSH2 0x2B21 JUMP JUMPDEST PUSH2 0x236E JUMP JUMPDEST JUMP JUMPDEST PUSH2 0x2379 SWAP1 PUSH1 0x9 PUSH2 0x21EB JUMP JUMPDEST JUMP JUMPDEST PUSH2 0x2384 SWAP1 PUSH2 0x2353 JUMP JUMPDEST JUMP JUMPDEST PUSH2 0x238E PUSH2 0x13EE JUMP JUMPDEST POP PUSH2 0x2399 PUSH1 0x8 PUSH2 0x1505 JUMP JUMPDEST SWAP1 JUMP JUMPDEST PUSH1 0x1 DUP1 PUSH1 0xA0 SHL SUB AND SWAP1 JUMP JUMPDEST PUSH2 0x23B3 PUSH2 0x23B8 SWAP2 PUSH2 0x1663 JUMP JUMPDEST PUSH2 0x239C JUMP JUMPDEST SWAP1 JUMP JUMPDEST PUSH2 0x23C5 SWAP1 SLOAD PUSH2 0x23A7 JUMP JUMPDEST SWAP1 JUMP JUMPDEST PUSH2 0x23D1 SWAP1 PUSH2 0x22F8 JUMP JUMPDEST SWAP1 JUMP JUMPDEST PUSH1 0xE0 SHL SWAP1 JUMP JUMPDEST SWAP1 POP MLOAD SWAP1 PUSH2 0x23E7 DUP3 PUSH2 0x6DF JUMP JUMPDEST JUMP JUMPDEST SWAP1 PUSH1 0x20 DUP3 DUP3 SUB SLT PUSH2 0x2403 JUMPI PUSH2 0x2400 SWAP2 PUSH1 0x0 ADD PUSH2 0x23DA JUMP JUMPDEST SWAP1 JUMP JUMPDEST PUSH2 0x27E JUMP JUMPDEST POP PUSH2 0x2417 SWAP1 PUSH1 0x20 DUP2 ADD SWAP1 PUSH2 0x360 JUMP JUMPDEST SWAP1 JUMP JUMPDEST PUSH2 0x2423 SWAP1 PUSH2 0x33F JUMP JUMPDEST SWAP1 MSTORE JUMP JUMPDEST POP PUSH2 0x2436 SWAP1 PUSH1 0x20 DUP2 ADD SWAP1 PUSH2 0x2A9 JUMP JUMPDEST SWAP1 JUMP JUMPDEST PUSH2 0x2442 SWAP1 PUSH2 0x288 JUMP JUMPDEST SWAP1 MSTORE JUMP JUMPDEST POP PUSH2 0x2455 SWAP1 PUSH1 0x20 DUP2 ADD SWAP1 PUSH2 0x6F4 JUMP JUMPDEST SWAP1 JUMP JUMPDEST PUSH2 0x2461 SWAP1 PUSH2 0x6DC JUMP JUMPDEST SWAP1 MSTORE JUMP JUMPDEST PUSH1 0x0 DUP1 REVERT JUMPDEST PUSH1 0x0 DUP1 REVERT JUMPDEST PUSH1 0x0 DUP1 REVERT JUMPDEST SWAP1 CALLDATALOAD PUSH1 0x1 PUSH1 0x20 SUB DUP3 CALLDATASIZE SUB SUB DUP2 SLT ISZERO PUSH2 0x24B5 JUMPI ADD PUSH1 0x20 DUP2 CALLDATALOAD SWAP2 ADD SWAP2 PUSH8 0xFFFFFFFFFFFFFFFF DUP3 GT PUSH2 0x24B0 JUMPI PUSH1 0x1 DUP3 MUL CALLDATASIZE SUB DUP4 SGT PUSH2 0x24AB JUMPI JUMP JUMPDEST PUSH2 0x246A JUMP JUMPDEST PUSH2 0x2465 JUMP JUMPDEST PUSH2 0x246F JUMP JUMPDEST PUSH1 0x20 SWAP2 DUP2 MSTORE ADD SWAP1 JUMP JUMPDEST SWAP2 SWAP1 PUSH2 0x24DD DUP2 PUSH2 0x24D6 DUP2 PUSH2 0x24E2 SWAP6 PUSH2 0x24BA JUMP JUMPDEST DUP1 SWAP6 PUSH2 0x9DF JUMP JUMPDEST PUSH2 0x44E JUMP JUMPDEST ADD SWAP1 JUMP JUMPDEST SWAP1 CALLDATALOAD PUSH1 0x1 PUSH1 0x40 SUB DUP3 CALLDATASIZE SUB SUB DUP2 SLT ISZERO PUSH2 0x24FC JUMPI ADD SWAP1 JUMP JUMPDEST PUSH2 0x246F JUMP JUMPDEST SWAP1 CALLDATALOAD PUSH1 0x1 PUSH1 0x20 SUB DUP3 CALLDATASIZE SUB SUB DUP2 SLT ISZERO PUSH2 0x2542 JUMPI ADD PUSH1 0x20 DUP2 CALLDATALOAD SWAP2 ADD SWAP2 PUSH8 0xFFFFFFFFFFFFFFFF DUP3 GT PUSH2 0x253D JUMPI PUSH1 0x1 DUP3 MUL CALLDATASIZE SUB DUP4 SGT PUSH2 0x2538 JUMPI JUMP JUMPDEST PUSH2 0x246A JUMP JUMPDEST PUSH2 0x2465 JUMP JUMPDEST PUSH2 0x246F JUMP JUMPDEST SWAP2 SWAP1 PUSH2 0x2561 DUP2 PUSH2 0x255A DUP2 PUSH2 0x2566 SWAP6 PUSH2 0x1433 JUMP JUMPDEST DUP1 SWAP6 PUSH2 0x9DF JUMP JUMPDEST PUSH2 0x44E JUMP JUMPDEST ADD SWAP1 JUMP JUMPDEST PUSH8 0xFFFFFFFFFFFFFFFF AND SWAP1 JUMP JUMPDEST PUSH2 0x2580 DUP2 PUSH2 0x256A JUMP JUMPDEST SUB PUSH2 0x2587 JUMPI JUMP JUMPDEST PUSH1 0x0 DUP1 REVERT JUMPDEST SWAP1 POP CALLDATALOAD SWAP1 PUSH2 0x2599 DUP3 PUSH2 0x2577 JUMP JUMPDEST JUMP JUMPDEST POP PUSH2 0x25AA SWAP1 PUSH1 0x20 DUP2 ADD SWAP1 PUSH2 0x258C JUMP JUMPDEST SWAP1 JUMP JUMPDEST PUSH2 0x25B6 SWAP1 PUSH2 0x256A JUMP JUMPDEST SWAP1 MSTORE JUMP JUMPDEST SWAP1 PUSH2 0x25F8 SWAP1 PUSH1 0x20 PUSH2 0x25F0 PUSH2 0x25E6 PUSH1 0x40 DUP5 ADD PUSH2 0x25D8 PUSH1 0x0 DUP9 ADD DUP9 PUSH2 0x2501 JUMP JUMPDEST SWAP1 DUP7 DUP4 SUB PUSH1 0x0 DUP9 ADD MSTORE PUSH2 0x2547 JUMP JUMPDEST SWAP5 DUP3 DUP2 ADD SWAP1 PUSH2 0x259B JUMP JUMPDEST SWAP2 ADD SWAP1 PUSH2 0x25AD JUMP JUMPDEST SWAP1 JUMP JUMPDEST PUSH2 0x26A5 SWAP2 PUSH2 0x2697 PUSH2 0x268C PUSH1 0xC0 DUP4 ADD PUSH2 0x2623 PUSH2 0x2619 PUSH1 0x0 DUP8 ADD DUP8 PUSH2 0x2408 JUMP JUMPDEST PUSH1 0x0 DUP7 ADD SWAP1 PUSH2 0x241A JUMP JUMPDEST PUSH2 0x263D PUSH2 0x2633 PUSH1 0x20 DUP8 ADD DUP8 PUSH2 0x2427 JUMP JUMPDEST PUSH1 0x20 DUP7 ADD SWAP1 PUSH2 0x2439 JUMP JUMPDEST PUSH2 0x2657 PUSH2 0x264D PUSH1 0x40 DUP8 ADD DUP8 PUSH2 0x2446 JUMP JUMPDEST PUSH1 0x40 DUP7 ADD SWAP1 PUSH2 0x2458 JUMP JUMPDEST PUSH2 0x2671 PUSH2 0x2667 PUSH1 0x60 DUP8 ADD DUP8 PUSH2 0x2446 JUMP JUMPDEST PUSH1 0x60 DUP7 ADD SWAP1 PUSH2 0x2458 JUMP JUMPDEST PUSH2 0x267E PUSH1 0x80 DUP7 ADD DUP7 PUSH2 0x2474 JUMP JUMPDEST SWAP1 DUP6 DUP4 SUB PUSH1 0x80 DUP8 ADD MSTORE PUSH2 0x24C3 JUMP JUMPDEST SWAP3 PUSH1 0xA0 DUP2 ADD SWAP1 PUSH2 0x24E6 JUMP JUMPDEST SWAP1 PUSH1 0xA0 DUP2 DUP5 SUB SWAP2 ADD MSTORE PUSH2 0x25BA JUMP JUMPDEST SWAP1 JUMP JUMPDEST SWAP4 SWAP3 SWAP1 PUSH2 0x26D4 PUSH1 0x40 SWAP2 PUSH2 0x26DC SWAP5 PUSH2 0x26C7 PUSH1 0x60 DUP10 ADD SWAP3 PUSH1 0x0 DUP11 ADD SWAP1 PUSH2 0x51D JUMP JUMPDEST DUP8 DUP3 SUB PUSH1 0x20 DUP10 ADD MSTORE PUSH2 0x25FB JUMP JUMPDEST SWAP5 ADD SWAP1 PUSH2 0x722 JUMP JUMPDEST JUMP JUMPDEST PUSH2 0x26E6 PUSH2 0x273 JUMP JUMPDEST RETURNDATASIZE PUSH1 0x0 DUP3 RETURNDATACOPY RETURNDATASIZE SWAP1 REVERT JUMPDEST SWAP2 POP PUSH1 0x20 SWAP1 PUSH2 0x26FC PUSH2 0x17A0 JUMP JUMPDEST POP PUSH2 0x270F PUSH2 0x270A PUSH1 0x4 PUSH2 0x23BB JUMP JUMPDEST PUSH2 0x23C8 JUMP JUMPDEST PUSH2 0x273B PUSH4 0x3808A90B SWAP5 SWAP3 SWAP5 PUSH2 0x2746 PUSH2 0x2727 PUSH1 0x5 PUSH2 0x17E0 JUMP JUMPDEST PUSH2 0x272F PUSH2 0x273 JUMP JUMPDEST SWAP8 DUP9 SWAP7 DUP8 SWAP6 DUP7 SWAP6 PUSH2 0x23D4 JUMP JUMPDEST DUP6 MSTORE PUSH1 0x4 DUP6 ADD PUSH2 0x26A8 JUMP JUMPDEST SUB SWAP2 GAS STATICCALL SWAP1 DUP2 ISZERO PUSH2 0x278B JUMPI PUSH1 0x0 SWAP2 PUSH2 0x275D JUMPI JUMPDEST POP SWAP1 JUMP JUMPDEST PUSH2 0x277E SWAP2 POP PUSH1 0x20 RETURNDATASIZE DUP2 GT PUSH2 0x2784 JUMPI JUMPDEST PUSH2 0x2776 DUP2 DUP4 PUSH2 0x97E JUMP JUMPDEST DUP2 ADD SWAP1 PUSH2 0x23E9 JUMP JUMPDEST CODESIZE PUSH2 0x2759 JUMP JUMPDEST POP RETURNDATASIZE PUSH2 0x276C JUMP JUMPDEST PUSH2 0x26DE JUMP JUMPDEST SWAP1 ISZERO ISZERO DUP2 PUSH1 0x1C MSTORE PUSH8 0xA5A2E7A00000000 PUSH1 0x8 MSTORE CALLER PUSH1 0x0 MSTORE DUP1 PUSH1 0x30 PUSH1 0xC KECCAK256 SSTORE PUSH1 0x0 MSTORE PUSH1 0x60 SHL PUSH1 0x60 SHR CALLER PUSH32 0x17307EAB39AB6107E8899845AD3D59BD9653F200F220920489CA2B5937696C31 PUSH1 0x20 PUSH1 0x0 LOG3 JUMP JUMPDEST PUSH8 0xFFFFFFFFFFFFFFFF DUP2 GT PUSH2 0x27FE JUMPI PUSH2 0x27FA PUSH1 0x20 SWAP2 PUSH2 0x44E JUMP JUMPDEST ADD SWAP1 JUMP JUMPDEST PUSH2 0x968 JUMP JUMPDEST SWAP1 SWAP3 SWAP2 SWAP3 PUSH2 0x2818 PUSH2 0x2813 DUP3 PUSH2 0x27E0 JUMP JUMPDEST PUSH2 0x9A7 JUMP JUMPDEST SWAP4 DUP2 DUP6 MSTORE PUSH1 0x20 DUP6 ADD SWAP1 DUP3 DUP5 ADD GT PUSH2 0x2834 JUMPI PUSH2 0x2832 SWAP3 PUSH2 0x9DF JUMP JUMPDEST JUMP JUMPDEST PUSH2 0x963 JUMP JUMPDEST PUSH2 0x2844 SWAP2 CALLDATASIZE SWAP2 PUSH2 0x2803 JUMP JUMPDEST SWAP1 JUMP JUMPDEST SWAP3 SWAP2 SWAP1 SWAP3 PUSH2 0x2857 DUP2 DUP6 DUP5 SWAP2 PUSH2 0x16A3 JUMP JUMPDEST PUSH2 0x2860 DUP5 PUSH2 0x2FBA JUMP JUMPDEST PUSH2 0x286C JUMPI JUMPDEST POP POP POP POP POP JUMP JUMPDEST PUSH2 0x2882 SWAP5 PUSH2 0x287C SWAP2 SWAP5 SWAP3 SWAP4 PUSH2 0x2839 JUMP JUMPDEST SWAP3 PUSH2 0x2FC7 JUMP JUMPDEST CODESIZE DUP1 DUP1 DUP1 DUP1 PUSH2 0x2865 JUMP JUMPDEST SWAP1 JUMP JUMPDEST PUSH2 0x2899 SWAP1 SLOAD PUSH2 0x1409 JUMP JUMPDEST SWAP1 JUMP JUMPDEST PUSH2 0x28A4 PUSH2 0x1E1A JUMP JUMPDEST SWAP1 JUMP JUMPDEST PUSH2 0x28AF PUSH2 0x13EE JUMP JUMPDEST POP PUSH2 0x28C2 PUSH2 0x28BC DUP3 PUSH2 0x2E93 JUMP JUMPDEST ISZERO PUSH2 0x2D7 JUMP JUMPDEST PUSH2 0x2923 JUMPI PUSH2 0x28D8 PUSH2 0x28D3 PUSH1 0x6 PUSH2 0x288C JUMP JUMPDEST PUSH2 0x288F JUMP JUMPDEST PUSH2 0x28EB PUSH2 0x28E5 PUSH1 0x0 PUSH2 0x1AF4 JUMP JUMPDEST SWAP2 PUSH2 0x4D7 JUMP JUMPDEST EQ ISZERO PUSH1 0x0 EQ PUSH2 0x2915 JUMPI PUSH2 0x2911 SWAP1 PUSH2 0x290C PUSH2 0x2906 PUSH1 0x6 SWAP3 PUSH2 0x3334 JUMP JUMPDEST SWAP2 PUSH2 0x1505 JUMP JUMPDEST PUSH2 0x338F JUMP JUMPDEST JUMPDEST SWAP1 JUMP JUMPDEST POP PUSH2 0x291E PUSH2 0x289C JUMP JUMPDEST PUSH2 0x2912 JUMP JUMPDEST PUSH1 0x0 PUSH4 0x677510DB PUSH1 0xE1 SHL DUP2 MSTORE DUP1 PUSH2 0x293C PUSH1 0x4 DUP3 ADD PUSH2 0x3D2 JUMP JUMPDEST SUB SWAP1 REVERT JUMPDEST PUSH2 0x295F PUSH2 0x295A PUSH2 0x2964 SWAP3 PUSH2 0x2952 PUSH2 0x165E JUMP JUMPDEST POP PUSH1 0x3 PUSH2 0x22B5 JUMP JUMPDEST PUSH2 0x22CD JUMP JUMPDEST PUSH2 0x33BF JUMP JUMPDEST SWAP1 JUMP JUMPDEST SWAP1 PUSH2 0x2982 SWAP2 PUSH2 0x297D PUSH2 0x2978 DUP3 PUSH2 0x17ED JUMP JUMPDEST PUSH2 0x2B21 JUMP JUMPDEST PUSH2 0x2984 JUMP JUMPDEST JUMP JUMPDEST SWAP1 PUSH2 0x298E SWAP2 PUSH2 0x2F90 JUMP JUMPDEST JUMP JUMPDEST SWAP1 PUSH2 0x299A SWAP2 PUSH2 0x2967 JUMP JUMPDEST JUMP JUMPDEST MLOAD SWAP1 JUMP JUMPDEST PUSH4 0x4E487B71 PUSH1 0xE0 SHL PUSH1 0x0 MSTORE PUSH1 0x32 PUSH1 0x4 MSTORE PUSH1 0x24 PUSH1 0x0 REVERT JUMPDEST SWAP1 PUSH2 0x29C0 DUP3 PUSH2 0x299C JUMP JUMPDEST DUP2 LT ISZERO PUSH2 0x29D1 JUMPI PUSH1 0x20 DUP1 SWAP2 MUL ADD ADD SWAP1 JUMP JUMPDEST PUSH2 0x29A0 JUMP JUMPDEST PUSH2 0x29E0 SWAP1 MLOAD PUSH2 0x4D7 JUMP JUMPDEST SWAP1 JUMP JUMPDEST SWAP1 PUSH2 0x29ED DUP3 PUSH2 0x299C JUMP JUMPDEST SWAP1 PUSH2 0x29F8 PUSH1 0x0 PUSH2 0x1AF4 JUMP JUMPDEST JUMPDEST DUP1 PUSH2 0x2A0C PUSH2 0x2A06 DUP6 PUSH2 0x4D7 JUMP JUMPDEST SWAP2 PUSH2 0x4D7 JUMP JUMPDEST LT ISZERO PUSH2 0x2A3D JUMPI PUSH2 0x2A38 SWAP1 PUSH2 0x2A33 CALLER PUSH2 0x2A2D PUSH2 0x2A28 DUP9 DUP6 SWAP1 PUSH2 0x29B6 JUMP JUMPDEST PUSH2 0x29D6 JUMP JUMPDEST SWAP1 PUSH2 0x3058 JUMP JUMPDEST PUSH2 0x1B10 JUMP JUMPDEST PUSH2 0x29F9 JUMP JUMPDEST POP SWAP2 POP POP JUMP JUMPDEST PUSH2 0x2A4B PUSH2 0x13EE JUMP JUMPDEST POP PUSH2 0x2A56 PUSH1 0x9 PUSH2 0x1505 JUMP JUMPDEST SWAP1 JUMP JUMPDEST SWAP1 PUSH2 0x2A62 PUSH2 0x1351 JUMP JUMPDEST POP PUSH1 0x1C MSTORE PUSH8 0xA5A2E7A00000000 PUSH1 0x8 MSTORE PUSH1 0x0 MSTORE PUSH1 0x30 PUSH1 0xC KECCAK256 SLOAD SWAP1 JUMP JUMPDEST PUSH2 0x2A97 SWAP1 PUSH2 0x2A92 PUSH2 0x2A8D PUSH2 0x157E JUMP JUMPDEST PUSH2 0x2B21 JUMP JUMPDEST PUSH2 0x2AC5 JUMP JUMPDEST JUMP JUMPDEST PUSH2 0x2AA2 SWAP1 PUSH2 0x1663 JUMP JUMPDEST SWAP1 JUMP JUMPDEST SWAP1 PUSH2 0x2ABA PUSH2 0x2AB5 PUSH2 0x2AC1 SWAP3 PUSH2 0x17A5 JUMP JUMPDEST PUSH2 0x2A99 JUMP JUMPDEST DUP3 SLOAD PUSH2 0x1B3C JUMP JUMPDEST SWAP1 SSTORE JUMP JUMPDEST PUSH2 0x2AD0 SWAP1 PUSH1 0x5 PUSH2 0x2AA5 JUMP JUMPDEST JUMP JUMPDEST PUSH2 0x2ADB SWAP1 PUSH2 0x2A7E JUMP JUMPDEST JUMP JUMPDEST PUSH2 0x2AE5 PUSH2 0x1351 JUMP JUMPDEST POP PUSH2 0x2AEF DUP2 PUSH2 0x33DF JUMP JUMPDEST DUP1 ISZERO PUSH2 0x2B12 JUMPI JUMPDEST SWAP1 DUP2 ISZERO PUSH2 0x2B02 JUMPI JUMPDEST POP SWAP1 JUMP JUMPDEST PUSH2 0x2B0C SWAP2 POP PUSH2 0x346C JUMP JUMPDEST CODESIZE PUSH2 0x2AFE JUMP JUMPDEST POP PUSH2 0x2B1C DUP2 PUSH2 0x3406 JUMP JUMPDEST PUSH2 0x2AF6 JUMP JUMPDEST PUSH2 0x2B33 SWAP1 PUSH2 0x2B2D PUSH2 0x2F83 JUMP JUMPDEST SWAP1 PUSH2 0x3591 JUMP JUMPDEST JUMP JUMPDEST PUSH1 0x20 PUSH32 0x2073616C65507269636500000000000000000000000000000000000000000000 SWAP2 PUSH32 0x455243323938313A20726F79616C7479206665652077696C6C20657863656564 PUSH1 0x0 DUP3 ADD MSTORE ADD MSTORE JUMP JUMPDEST PUSH2 0x2B90 PUSH1 0x2A PUSH1 0x40 SWAP3 PUSH2 0x420 JUMP JUMPDEST PUSH2 0x2B99 DUP2 PUSH2 0x2B35 JUMP JUMPDEST ADD SWAP1 JUMP JUMPDEST PUSH2 0x2BB3 SWAP1 PUSH1 0x20 DUP2 ADD SWAP1 PUSH1 0x0 DUP2 DUP4 SUB SWAP2 ADD MSTORE PUSH2 0x2B83 JUMP JUMPDEST SWAP1 JUMP JUMPDEST ISZERO PUSH2 0x2BBD JUMPI JUMP JUMPDEST PUSH2 0x2BC5 PUSH2 0x273 JUMP JUMPDEST PUSH3 0x461BCD PUSH1 0xE5 SHL DUP2 MSTORE DUP1 PUSH2 0x2BDB PUSH1 0x4 DUP3 ADD PUSH2 0x2B9D JUMP JUMPDEST SUB SWAP1 REVERT JUMPDEST PUSH1 0x0 PUSH32 0x455243323938313A20696E76616C696420726563656976657200000000000000 SWAP2 ADD MSTORE JUMP JUMPDEST PUSH2 0x2C14 PUSH1 0x19 PUSH1 0x20 SWAP3 PUSH2 0x420 JUMP JUMPDEST PUSH2 0x2C1D DUP2 PUSH2 0x2BDF JUMP JUMPDEST ADD SWAP1 JUMP JUMPDEST PUSH2 0x2C37 SWAP1 PUSH1 0x20 DUP2 ADD SWAP1 PUSH1 0x0 DUP2 DUP4 SUB SWAP2 ADD MSTORE PUSH2 0x2C07 JUMP JUMPDEST SWAP1 JUMP JUMPDEST ISZERO PUSH2 0x2C41 JUMPI JUMP JUMPDEST PUSH2 0x2C49 PUSH2 0x273 JUMP JUMPDEST PUSH3 0x461BCD PUSH1 0xE5 SHL DUP2 MSTORE DUP1 PUSH2 0x2C5F PUSH1 0x4 DUP3 ADD PUSH2 0x2C21 JUMP JUMPDEST SUB SWAP1 REVERT JUMPDEST PUSH2 0x2C6D PUSH1 0x40 PUSH2 0x9A7 JUMP JUMPDEST SWAP1 JUMP JUMPDEST SWAP1 JUMP JUMPDEST SWAP1 PUSH2 0x2C88 PUSH2 0x2C83 PUSH2 0x2C8F SWAP3 PUSH2 0x2304 JUMP JUMPDEST PUSH2 0x2C70 JUMP JUMPDEST DUP3 SLOAD PUSH2 0x15F4 JUMP JUMPDEST SWAP1 SSTORE JUMP JUMPDEST PUSH1 0xA0 SHL SWAP1 JUMP JUMPDEST SWAP1 PUSH2 0x2CB3 PUSH12 0xFFFFFFFFFFFFFFFFFFFFFFFF PUSH1 0xA0 SHL SWAP2 PUSH2 0x2C93 JUMP JUMPDEST SWAP2 DUP2 NOT AND SWAP2 AND OR SWAP1 JUMP JUMPDEST PUSH2 0x2CD1 PUSH2 0x2CCC PUSH2 0x2CD6 SWAP3 PUSH2 0x36F JUMP JUMPDEST PUSH2 0x15BD JUMP JUMPDEST PUSH2 0x36F JUMP JUMPDEST SWAP1 JUMP JUMPDEST SWAP1 JUMP JUMPDEST SWAP1 PUSH2 0x2CF1 PUSH2 0x2CEC PUSH2 0x2CF8 SWAP3 PUSH2 0x2CBD JUMP JUMPDEST PUSH2 0x2CD9 JUMP JUMPDEST DUP3 SLOAD PUSH2 0x2C99 JUMP JUMPDEST SWAP1 SSTORE JUMP JUMPDEST SWAP1 PUSH2 0x2D27 PUSH1 0x20 PUSH1 0x0 PUSH2 0x2D2D SWAP5 PUSH2 0x2D1F DUP3 DUP3 ADD PUSH2 0x2D19 DUP5 DUP9 ADD PUSH2 0x1915 JUMP JUMPDEST SWAP1 PUSH2 0x2C73 JUMP JUMPDEST ADD SWAP3 ADD PUSH2 0x194A JUMP JUMPDEST SWAP1 PUSH2 0x2CDC JUMP JUMPDEST JUMP JUMPDEST SWAP1 PUSH2 0x2D39 SWAP2 PUSH2 0x2CFC JUMP JUMPDEST JUMP JUMPDEST SWAP1 PUSH2 0x2DAC PUSH2 0x2DB3 SWAP3 PUSH2 0x2D67 DUP4 PUSH2 0x2D60 PUSH2 0x2D5A PUSH2 0x2D55 PUSH2 0x2E7C JUMP JUMPDEST PUSH2 0x36F JUMP JUMPDEST SWAP2 PUSH2 0x36F JUMP JUMPDEST GT ISZERO PUSH2 0x2BB6 JUMP JUMPDEST PUSH2 0x2D8D DUP2 PUSH2 0x2D86 PUSH2 0x2D80 PUSH2 0x2D7B PUSH1 0x0 PUSH2 0x193E JUMP JUMPDEST PUSH2 0x33F JUMP JUMPDEST SWAP2 PUSH2 0x33F JUMP JUMPDEST EQ ISZERO PUSH2 0x2C3A JUMP JUMPDEST SWAP2 PUSH2 0x2DA3 PUSH2 0x2D99 PUSH2 0x2C63 JUMP JUMPDEST SWAP4 PUSH1 0x0 DUP6 ADD PUSH2 0x186F JUMP JUMPDEST PUSH1 0x20 DUP4 ADD PUSH2 0x18B5 JUMP JUMPDEST PUSH1 0x0 PUSH2 0x2D2F JUMP JUMPDEST JUMP JUMPDEST SWAP1 PUSH1 0x0 NOT PUSH1 0x60 SHR SWAP1 DUP2 AND SWAP2 DUP2 AND DUP4 PUSH1 0x0 MSTORE DUP1 PUSH8 0x3EC412A9852D173D PUSH1 0xC1 SHL OR PUSH1 0x1C MSTORE PUSH1 0x20 PUSH1 0x0 KECCAK256 DUP5 ADD DUP5 ADD SWAP2 DUP3 SLOAD AND SWAP2 DUP3 ISZERO PUSH2 0x2E4A JUMPI DUP2 DUP4 DUP6 SWAP4 EQ SWAP1 ISZERO OR ISZERO PUSH2 0x2E24 JUMPI JUMPDEST PUSH1 0x1 ADD SSTORE PUSH32 0x8C5BE1E5EBEC7D5BD14F71427D1E84F3DD0314C0F7B2291E5B200AC8C7C3B925 PUSH1 0x0 CODESIZE LOG4 JUMP JUMPDEST SWAP1 POP DUP2 PUSH1 0x0 MSTORE PUSH1 0x30 PUSH1 0xC KECCAK256 SLOAD ISZERO PUSH2 0x2E3C JUMPI DUP3 SWAP1 PUSH2 0x2DF9 JUMP JUMPDEST PUSH4 0x4B6E7F18 PUSH1 0x0 MSTORE PUSH1 0x4 PUSH1 0x1C REVERT JUMPDEST PUSH4 0xCEEA21B6 PUSH1 0x0 MSTORE PUSH1 0x4 PUSH1 0x1C REVERT JUMPDEST PUSH1 0x0 SWAP1 JUMP JUMPDEST SWAP1 JUMP JUMPDEST PUSH2 0x2E74 PUSH2 0x2E6F PUSH2 0x2E79 SWAP3 PUSH2 0x2E5D JUMP JUMPDEST PUSH2 0x15BD JUMP JUMPDEST PUSH2 0x36F JUMP JUMPDEST SWAP1 JUMP JUMPDEST PUSH2 0x2E84 PUSH2 0x2E58 JUMP JUMPDEST POP PUSH2 0x2E90 PUSH2 0x2710 PUSH2 0x2E60 JUMP JUMPDEST SWAP1 JUMP JUMPDEST PUSH2 0x2E9B PUSH2 0x1351 JUMP JUMPDEST POP DUP1 PUSH1 0x0 MSTORE PUSH8 0x3EC412A9852D173D PUSH1 0xC1 SHL PUSH1 0x1C MSTORE PUSH1 0x20 PUSH1 0x0 KECCAK256 DUP2 ADD ADD SLOAD PUSH1 0x60 SHL ISZERO ISZERO SWAP1 JUMP JUMPDEST PUSH1 0x60 SHL PUSH1 0x60 SHR DUP2 PUSH1 0x0 MSTORE PUSH8 0x3EC412A9852D173D PUSH1 0xC1 SHL PUSH1 0x1C MSTORE PUSH1 0x20 PUSH1 0x0 KECCAK256 DUP3 ADD DUP3 ADD DUP1 SLOAD DUP1 PUSH1 0x60 SHL PUSH2 0x2F4B JUMPI DUP3 OR SWAP1 SSTORE DUP1 PUSH1 0x0 MSTORE PUSH1 0x1C PUSH1 0xC KECCAK256 PUSH1 0x1 DUP2 SLOAD ADD SWAP1 PUSH4 0xFFFFFFFF DUP3 AND DUP4 MUL ISZERO PUSH2 0x2F36 JUMPI SSTORE PUSH1 0x0 PUSH32 0xDDF252AD1BE2C89B69C2B068FC378DAA952BA7F163C4A11628F55A4DF523B3EF DUP2 CODESIZE LOG4 JUMP JUMPDEST PUSH8 0xEA553B3401336CEA DUP4 ISZERO PUSH1 0x2 SHL MSTORE PUSH1 0x4 PUSH1 0x1C REVERT JUMPDEST PUSH4 0xC991CBB1 PUSH1 0x0 MSTORE PUSH1 0x4 PUSH1 0x1C REVERT JUMPDEST SWAP1 PUSH2 0x2F7B PUSH2 0x2F76 PUSH2 0x2F80 SWAP4 PUSH2 0x2F6F DUP2 DUP6 SWAP1 PUSH2 0x362A JUMP JUMPDEST PUSH1 0x3 PUSH2 0x22B5 JUMP JUMPDEST PUSH2 0x22CD JUMP JUMPDEST PUSH2 0x3711 JUMP JUMPDEST POP JUMP JUMPDEST PUSH2 0x2F8B PUSH2 0x1527 JUMP JUMPDEST POP CALLER SWAP1 JUMP JUMPDEST SWAP1 PUSH2 0x2FB2 PUSH2 0x2FAD PUSH2 0x2FB7 SWAP4 PUSH2 0x2FA6 DUP2 DUP6 SWAP1 PUSH2 0x374C JUMP JUMPDEST PUSH1 0x3 PUSH2 0x22B5 JUMP JUMPDEST PUSH2 0x22CD JUMP JUMPDEST PUSH2 0x37E6 JUMP JUMPDEST POP JUMP JUMPDEST PUSH2 0x2FC2 PUSH2 0x1351 JUMP JUMPDEST POP EXTCODESIZE SWAP1 JUMP JUMPDEST SWAP2 PUSH1 0x20 SWAP2 PUSH1 0xA4 PUSH1 0x40 MLOAD SWAP6 DUP7 SWAP4 PUSH4 0x150B7A02 SWAP7 DUP8 DUP7 MSTORE CALLER DUP8 DUP8 ADD MSTORE PUSH1 0x60 SHL PUSH1 0x60 SHR PUSH1 0x40 DUP7 ADD MSTORE PUSH1 0x60 DUP6 ADD MSTORE PUSH1 0x80 DUP1 DUP6 ADD MSTORE DUP1 MLOAD DUP1 SWAP2 DUP2 DUP1 PUSH1 0xA0 DUP9 ADD MSTORE PUSH2 0x3044 JUMPI JUMPDEST POP POP ADD SWAP1 PUSH1 0x0 PUSH1 0x1C DUP5 ADD SWAP2 GAS CALL ISZERO PUSH2 0x3034 JUMPI JUMPDEST PUSH1 0xE0 SHL SWAP1 MLOAD SUB PUSH2 0x3026 JUMPI JUMP JUMPDEST PUSH4 0xD1A57ED6 PUSH1 0x0 MSTORE PUSH1 0x4 PUSH1 0x1C REVERT JUMPDEST RETURNDATASIZE ISZERO PUSH2 0x301A JUMPI POP RETURNDATASIZE PUSH1 0x0 DUP3 RETURNDATACOPY RETURNDATASIZE SWAP1 REVERT JUMPDEST DUP2 DUP8 PUSH1 0xC0 DUP9 ADD SWAP3 ADD PUSH1 0x4 GAS STATICCALL POP DUP1 CODESIZE PUSH2 0x3007 JUMP JUMPDEST PUSH2 0x3061 DUP3 PUSH2 0x221B JUMP JUMPDEST POP PUSH1 0x60 SHL PUSH1 0x60 SHR DUP2 PUSH1 0x0 MSTORE DUP1 PUSH8 0x3EC412A9852D173D PUSH1 0xC1 SHL OR PUSH1 0x1C MSTORE PUSH1 0x20 PUSH1 0x0 KECCAK256 DUP3 ADD DUP3 ADD SWAP1 DUP2 SLOAD SWAP2 DUP3 PUSH1 0x60 SHL PUSH1 0x60 SHR SWAP2 DUP3 ISZERO PUSH2 0x3114 JUMPI DUP3 PUSH1 0x0 MSTORE DUP2 PUSH1 0x1 ADD SLOAD SWAP1 DUP2 DUP2 EQ DUP5 DUP3 EQ OR SWAP1 ISZERO OR ISZERO PUSH2 0x30FC JUMPI JUMPDEST PUSH1 0x0 SWAP4 DUP4 SWAP2 PUSH2 0x30F1 JUMPI JUMPDEST XOR SWAP1 SSTORE PUSH1 0x1C PUSH1 0xC KECCAK256 PUSH1 0x1 DUP2 SLOAD SUB SWAP1 SSTORE PUSH32 0xDDF252AD1BE2C89B69C2B068FC378DAA952BA7F163C4A11628F55A4DF523B3EF DUP3 CODESIZE LOG4 JUMP JUMPDEST DUP5 DUP4 PUSH1 0x1 ADD SSTORE PUSH2 0x30BC JUMP JUMPDEST PUSH1 0x30 PUSH1 0xC KECCAK256 SLOAD PUSH2 0x30B2 JUMPI PUSH4 0x4B6E7F18 PUSH1 0x0 MSTORE PUSH1 0x4 PUSH1 0x1C REVERT JUMPDEST PUSH4 0xCEEA21B6 PUSH1 0x0 MSTORE PUSH1 0x4 PUSH1 0x1C REVERT JUMPDEST SWAP3 PUSH2 0x314C SWAP1 PUSH2 0x3145 PUSH2 0x3153 SWAP5 PUSH2 0x313E PUSH2 0x3191 SWAP11 SWAP9 SWAP6 PUSH1 0x7 PUSH2 0x21EB JUMP JUMPDEST PUSH1 0x8 PUSH2 0x21EB JUMP JUMPDEST PUSH1 0x6 PUSH2 0x21EB JUMP JUMPDEST PUSH1 0x9 PUSH2 0x21EB JUMP JUMPDEST PUSH2 0x3165 PUSH2 0x315E PUSH2 0xF38 JUMP JUMPDEST DUP3 SWAP1 PUSH2 0x2F59 JUMP JUMPDEST PUSH2 0x3177 PUSH2 0x3170 PUSH2 0x1FCD JUMP JUMPDEST DUP3 SWAP1 PUSH2 0x2F59 JUMP JUMPDEST PUSH2 0x3189 PUSH2 0x3182 PUSH2 0x1396 JUMP JUMPDEST DUP3 SWAP1 PUSH2 0x2F59 JUMP JUMPDEST SWAP2 SWAP1 SWAP2 PUSH2 0x3821 JUMP JUMPDEST JUMP JUMPDEST PUSH1 0x0 PUSH32 0x455243323938313A20496E76616C696420706172616D65746572730000000000 SWAP2 ADD MSTORE JUMP JUMPDEST PUSH2 0x31C8 PUSH1 0x1B PUSH1 0x20 SWAP3 PUSH2 0x420 JUMP JUMPDEST PUSH2 0x31D1 DUP2 PUSH2 0x3193 JUMP JUMPDEST ADD SWAP1 JUMP JUMPDEST PUSH2 0x31EB SWAP1 PUSH1 0x20 DUP2 ADD SWAP1 PUSH1 0x0 DUP2 DUP4 SUB SWAP2 ADD MSTORE PUSH2 0x31BB JUMP JUMPDEST SWAP1 JUMP JUMPDEST ISZERO PUSH2 0x31F5 JUMPI JUMP JUMPDEST PUSH2 0x31FD PUSH2 0x273 JUMP JUMPDEST PUSH3 0x461BCD PUSH1 0xE5 SHL DUP2 MSTORE DUP1 PUSH2 0x3213 PUSH1 0x4 DUP3 ADD PUSH2 0x31D5 JUMP JUMPDEST SUB SWAP1 REVERT JUMPDEST PUSH2 0x3293 SWAP1 PUSH2 0x328C PUSH2 0x3298 SWAP5 SWAP4 PUSH2 0x3247 DUP6 PUSH2 0x3240 PUSH2 0x323A PUSH2 0x3235 PUSH2 0x2E7C JUMP JUMPDEST PUSH2 0x36F JUMP JUMPDEST SWAP2 PUSH2 0x36F JUMP JUMPDEST GT ISZERO PUSH2 0x2BB6 JUMP JUMPDEST PUSH2 0x326D DUP2 PUSH2 0x3266 PUSH2 0x3260 PUSH2 0x325B PUSH1 0x0 PUSH2 0x193E JUMP JUMPDEST PUSH2 0x33F JUMP JUMPDEST SWAP2 PUSH2 0x33F JUMP JUMPDEST EQ ISZERO PUSH2 0x31EE JUMP JUMPDEST SWAP4 PUSH2 0x3283 PUSH2 0x3279 PUSH2 0x2C63 JUMP JUMPDEST SWAP6 PUSH1 0x0 DUP8 ADD PUSH2 0x186F JUMP JUMPDEST PUSH1 0x20 DUP6 ADD PUSH2 0x18B5 JUMP JUMPDEST PUSH1 0x1 PUSH2 0x182B JUMP JUMPDEST PUSH2 0x2D2F JUMP JUMPDEST JUMP JUMPDEST PUSH2 0x32A2 PUSH2 0x1527 JUMP JUMPDEST POP DUP1 PUSH1 0x0 MSTORE PUSH8 0x3EC412A9852D173D PUSH1 0xC1 SHL PUSH1 0x1C MSTORE PUSH1 0x20 PUSH1 0x0 KECCAK256 DUP2 ADD ADD SLOAD PUSH1 0x60 SHL PUSH1 0x60 SHR SWAP1 JUMP JUMPDEST SWAP1 JUMP JUMPDEST PUSH2 0x32D7 PUSH2 0x32DC SWAP2 PUSH2 0x1663 JUMP JUMPDEST PUSH2 0x180F JUMP JUMPDEST SWAP1 JUMP JUMPDEST PUSH2 0x32F3 PUSH2 0x32EE PUSH2 0x32F8 SWAP3 PUSH2 0x4D7 JUMP JUMPDEST PUSH2 0x15BD JUMP JUMPDEST PUSH2 0x334 JUMP JUMPDEST SWAP1 JUMP JUMPDEST PUSH2 0x3327 PUSH2 0x3322 PUSH2 0x3331 SWAP4 PUSH2 0x331D PUSH1 0x0 PUSH2 0x332C SWAP6 PUSH2 0x3316 PUSH2 0x1527 JUMP JUMPDEST POP ADD PUSH2 0x32C8 JUMP JUMPDEST PUSH2 0x389C JUMP JUMPDEST PUSH2 0x32CB JUMP JUMPDEST PUSH2 0x32DF JUMP JUMPDEST PUSH2 0x22F8 JUMP JUMPDEST SWAP1 JUMP JUMPDEST SWAP1 PUSH2 0x333D PUSH2 0x13EE JUMP JUMPDEST POP PUSH1 0x80 PUSH1 0x40 MLOAD ADD SWAP2 PUSH1 0x20 DUP4 ADD PUSH1 0x40 MSTORE PUSH1 0x0 DUP4 MSTORE DUP3 SWAP1 PUSH1 0xA PUSH1 0x0 NOT DUP1 SWAP3 SWAP6 JUMPDEST ADD SWAP5 DUP2 DUP2 MOD PUSH1 0x30 ADD DUP7 MSTORE8 DIV SWAP4 DUP5 ISZERO PUSH2 0x337A JUMPI SWAP1 PUSH1 0xA SWAP2 SWAP1 DUP1 SWAP3 SWAP2 PUSH2 0x335B JUMP JUMPDEST SWAP4 POP POP DUP3 PUSH1 0x20 SWAP2 SUB SWAP3 SUB SWAP2 DUP3 MSTORE JUMP JUMPDEST SWAP1 JUMP JUMPDEST SWAP1 JUMP JUMPDEST PUSH2 0x33BC SWAP2 PUSH2 0x33B1 PUSH2 0x33AB PUSH2 0x33B7 SWAP4 PUSH2 0x33A5 PUSH2 0x13EE JUMP JUMPDEST POP PUSH2 0x3389 JUMP JUMPDEST SWAP2 PUSH2 0x3389 JUMP JUMPDEST SWAP1 PUSH2 0x38C3 JUMP JUMPDEST PUSH2 0x338C JUMP JUMPDEST SWAP1 JUMP JUMPDEST PUSH2 0x33D7 PUSH1 0x0 PUSH2 0x33DC SWAP3 PUSH2 0x33D0 PUSH2 0x165E JUMP JUMPDEST POP ADD PUSH2 0x32C8 JUMP JUMPDEST PUSH2 0x3945 JUMP JUMPDEST SWAP1 JUMP JUMPDEST PUSH2 0x33E7 PUSH2 0x1351 JUMP JUMPDEST POP PUSH1 0xE0 SHR PUSH4 0x5B5E139F DUP2 EQ SWAP1 PUSH4 0x1FFC9A7 PUSH4 0x80AC58CD DUP3 EQ SWAP2 EQ OR OR SWAP1 JUMP JUMPDEST PUSH2 0x340E PUSH2 0x1351 JUMP JUMPDEST POP PUSH2 0x3418 DUP2 PUSH2 0x395D JUMP JUMPDEST DUP1 ISZERO PUSH2 0x345D JUMPI JUMPDEST DUP1 ISZERO PUSH2 0x3442 JUMPI JUMPDEST SWAP1 DUP2 ISZERO PUSH2 0x3432 JUMPI JUMPDEST POP SWAP1 JUMP JUMPDEST PUSH2 0x343C SWAP2 POP PUSH2 0x399D JUMP JUMPDEST CODESIZE PUSH2 0x342E JUMP JUMPDEST POP PUSH1 0x0 PUSH2 0x3457 PUSH2 0x3451 DUP4 PUSH2 0x288 JUMP JUMPDEST SWAP2 PUSH2 0x288 JUMP JUMPDEST EQ PUSH2 0x3426 JUMP JUMPDEST POP PUSH2 0x3467 DUP2 PUSH2 0x399D JUMP JUMPDEST PUSH2 0x341F JUMP JUMPDEST PUSH2 0x3474 PUSH2 0x1351 JUMP JUMPDEST POP PUSH2 0x347E DUP2 PUSH2 0x399D JUMP JUMPDEST SWAP1 DUP2 ISZERO PUSH2 0x348A JUMPI JUMPDEST POP SWAP1 JUMP JUMPDEST PUSH2 0x3494 SWAP2 POP PUSH2 0x39DD JUMP JUMPDEST CODESIZE PUSH2 0x3486 JUMP JUMPDEST SWAP1 JUMP JUMPDEST PUSH2 0x34B1 PUSH2 0x34AC PUSH2 0x34B6 SWAP3 PUSH2 0x349A JUMP JUMPDEST PUSH2 0x15BD JUMP JUMPDEST PUSH2 0x4D7 JUMP JUMPDEST SWAP1 JUMP JUMPDEST SWAP1 POP SWAP1 JUMP JUMPDEST PUSH1 0x0 PUSH32 0x416363657373436F6E74726F6C3A206163636F756E7420000000000000000000 SWAP2 ADD MSTORE JUMP JUMPDEST PUSH2 0x34F2 PUSH1 0x17 DUP1 SWAP3 PUSH2 0x34B9 JUMP JUMPDEST PUSH2 0x34FB DUP2 PUSH2 0x34BE JUMP JUMPDEST ADD SWAP1 JUMP JUMPDEST PUSH2 0x3524 PUSH2 0x351B SWAP3 PUSH1 0x20 SWAP3 PUSH2 0x3512 DUP2 PUSH2 0x41C JUMP JUMPDEST SWAP5 DUP6 DUP1 SWAP4 PUSH2 0x34B9 JUMP JUMPDEST SWAP4 DUP5 SWAP2 ADD PUSH2 0x429 JUMP JUMPDEST ADD SWAP1 JUMP JUMPDEST PUSH1 0x0 PUSH32 0x206973206D697373696E6720726F6C6520000000000000000000000000000000 SWAP2 ADD MSTORE JUMP JUMPDEST PUSH2 0x355C PUSH1 0x11 DUP1 SWAP3 PUSH2 0x34B9 JUMP JUMPDEST PUSH2 0x3565 DUP2 PUSH2 0x3528 JUMP JUMPDEST ADD SWAP1 JUMP JUMPDEST PUSH2 0x3583 PUSH2 0x358E SWAP4 SWAP3 PUSH2 0x357D PUSH2 0x3588 SWAP4 PUSH2 0x34E6 JUMP JUMPDEST SWAP1 PUSH2 0x34FF JUMP JUMPDEST PUSH2 0x3550 JUMP JUMPDEST SWAP1 PUSH2 0x34FF JUMP JUMPDEST SWAP1 JUMP JUMPDEST SWAP1 PUSH2 0x35A6 PUSH2 0x35A0 DUP4 DUP4 SWAP1 PUSH2 0x2328 JUMP JUMPDEST ISZERO PUSH2 0x2D7 JUMP JUMPDEST PUSH2 0x35AE JUMPI POP POP JUMP JUMPDEST PUSH2 0x3626 SWAP2 PUSH2 0x3604 PUSH2 0x35DD PUSH2 0x35CD PUSH2 0x35C7 PUSH2 0x3609 SWAP6 PUSH2 0x3A6B JUMP JUMPDEST SWAP4 PUSH2 0x32CB JUMP JUMPDEST PUSH2 0x35D7 PUSH1 0x20 PUSH2 0x349D JUMP JUMPDEST SWAP1 PUSH2 0x3C84 JUMP JUMPDEST SWAP2 PUSH2 0x35F5 PUSH2 0x35E9 PUSH2 0x273 JUMP JUMPDEST SWAP4 DUP5 SWAP3 PUSH1 0x20 DUP5 ADD PUSH2 0x3569 JUMP JUMPDEST PUSH1 0x20 DUP3 ADD DUP2 SUB DUP3 MSTORE SUB DUP3 PUSH2 0x97E JUMP JUMPDEST PUSH2 0x338C JUMP JUMPDEST PUSH2 0x3611 PUSH2 0x273 JUMP JUMPDEST SWAP2 DUP3 SWAP2 PUSH3 0x461BCD PUSH1 0xE5 SHL DUP4 MSTORE PUSH1 0x4 DUP4 ADD PUSH2 0x489 JUMP JUMPDEST SUB SWAP1 REVERT JUMPDEST PUSH2 0x363E PUSH2 0x3638 DUP3 DUP5 SWAP1 PUSH2 0x2328 JUMP JUMPDEST ISZERO PUSH2 0x2D7 JUMP JUMPDEST PUSH2 0x3647 JUMPI JUMPDEST POP POP JUMP JUMPDEST PUSH2 0x366A PUSH1 0x1 PUSH2 0x3665 PUSH1 0x0 PUSH2 0x365D PUSH1 0x2 DUP7 SWAP1 PUSH2 0x17B1 JUMP JUMPDEST ADD DUP6 SWAP1 PUSH2 0x2310 JUMP JUMPDEST PUSH2 0x1EC5 JUMP JUMPDEST SWAP1 PUSH2 0x3673 PUSH2 0x2F83 JUMP JUMPDEST SWAP1 PUSH2 0x36B0 PUSH2 0x36AA PUSH2 0x36A4 PUSH32 0x2F8788117E7EFF1D82E926EC794901D17C78024A50270940304540A733656F0D SWAP6 PUSH2 0x17A5 JUMP JUMPDEST SWAP3 PUSH2 0x2304 JUMP JUMPDEST SWAP3 PUSH2 0x2304 JUMP JUMPDEST SWAP3 PUSH2 0x36B9 PUSH2 0x273 JUMP JUMPDEST DUP1 PUSH2 0x36C3 DUP2 PUSH2 0x3D2 JUMP JUMPDEST SUB SWAP1 LOG4 CODESIZE DUP1 PUSH2 0x3643 JUMP JUMPDEST PUSH2 0x36D6 SWAP1 PUSH2 0x15C0 JUMP JUMPDEST SWAP1 JUMP JUMPDEST PUSH2 0x36ED PUSH2 0x36E8 PUSH2 0x36F2 SWAP3 PUSH2 0x334 JUMP JUMPDEST PUSH2 0x15BD JUMP JUMPDEST PUSH2 0x4D7 JUMP JUMPDEST SWAP1 JUMP JUMPDEST PUSH2 0x3709 PUSH2 0x3704 PUSH2 0x370E SWAP3 PUSH2 0x4D7 JUMP JUMPDEST PUSH2 0xF16 JUMP JUMPDEST PUSH2 0x6DC JUMP JUMPDEST SWAP1 JUMP JUMPDEST SWAP1 PUSH2 0x3744 PUSH2 0x373E PUSH2 0x3739 PUSH2 0x3734 PUSH1 0x0 PUSH2 0x3749 SWAP7 PUSH2 0x372C PUSH2 0x1351 JUMP JUMPDEST POP ADD SWAP5 PUSH2 0x36CD JUMP JUMPDEST PUSH2 0x36D9 JUMP JUMPDEST PUSH2 0x36F5 JUMP JUMPDEST SWAP2 PUSH2 0x32C8 JUMP JUMPDEST PUSH2 0x3E7A JUMP JUMPDEST SWAP1 JUMP JUMPDEST PUSH2 0x3757 DUP2 DUP4 SWAP1 PUSH2 0x2328 JUMP JUMPDEST PUSH2 0x3760 JUMPI JUMPDEST POP POP JUMP JUMPDEST PUSH2 0x3783 PUSH1 0x0 PUSH2 0x377E PUSH1 0x0 PUSH2 0x3776 PUSH1 0x2 DUP7 SWAP1 PUSH2 0x17B1 JUMP JUMPDEST ADD DUP6 SWAP1 PUSH2 0x2310 JUMP JUMPDEST PUSH2 0x1EC5 JUMP JUMPDEST SWAP1 PUSH2 0x378C PUSH2 0x2F83 JUMP JUMPDEST SWAP1 PUSH2 0x37C9 PUSH2 0x37C3 PUSH2 0x37BD PUSH32 0xF6391F5C32D9C69D2A47EA670B442974B53935D1EDC7FD64EB21E047A839171B SWAP6 PUSH2 0x17A5 JUMP JUMPDEST SWAP3 PUSH2 0x2304 JUMP JUMPDEST SWAP3 PUSH2 0x2304 JUMP JUMPDEST SWAP3 PUSH2 0x37D2 PUSH2 0x273 JUMP JUMPDEST DUP1 PUSH2 0x37DC DUP2 PUSH2 0x3D2 JUMP JUMPDEST SUB SWAP1 LOG4 CODESIZE DUP1 PUSH2 0x375C JUMP JUMPDEST SWAP1 PUSH2 0x3819 PUSH2 0x3813 PUSH2 0x380E PUSH2 0x3809 PUSH1 0x0 PUSH2 0x381E SWAP7 PUSH2 0x3801 PUSH2 0x1351 JUMP JUMPDEST POP ADD SWAP5 PUSH2 0x36CD JUMP JUMPDEST PUSH2 0x36D9 JUMP JUMPDEST PUSH2 0x36F5 JUMP JUMPDEST SWAP2 PUSH2 0x32C8 JUMP JUMPDEST PUSH2 0x3F5F JUMP JUMPDEST SWAP1 JUMP JUMPDEST SWAP1 PUSH2 0x3837 PUSH2 0x383C SWAP4 SWAP3 PUSH2 0x3832 PUSH2 0x157E JUMP JUMPDEST PUSH2 0x2F59 JUMP JUMPDEST PUSH2 0x4069 JUMP JUMPDEST JUMP JUMPDEST SLOAD SWAP1 JUMP JUMPDEST PUSH1 0x0 MSTORE PUSH1 0x20 PUSH1 0x0 KECCAK256 SWAP1 JUMP JUMPDEST PUSH2 0x3856 DUP2 PUSH2 0x383E JUMP JUMPDEST DUP3 LT ISZERO PUSH2 0x3871 JUMPI PUSH2 0x3868 PUSH1 0x1 SWAP2 PUSH2 0x3842 JUMP JUMPDEST SWAP2 MUL ADD SWAP1 PUSH1 0x0 SWAP1 JUMP JUMPDEST PUSH2 0x29A0 JUMP JUMPDEST PUSH2 0x3886 SWAP1 PUSH1 0x8 PUSH2 0x388B SWAP4 MUL PUSH2 0x20EE JUMP JUMPDEST PUSH2 0x17C9 JUMP JUMPDEST SWAP1 JUMP JUMPDEST SWAP1 PUSH2 0x3899 SWAP2 SLOAD PUSH2 0x3876 JUMP JUMPDEST SWAP1 JUMP JUMPDEST PUSH2 0x38BB SWAP2 PUSH1 0x0 PUSH2 0x38B5 SWAP3 PUSH2 0x38AE PUSH2 0x17A0 JUMP JUMPDEST POP ADD PUSH2 0x384D JUMP JUMPDEST SWAP1 PUSH2 0x388E JUMP JUMPDEST SWAP1 JUMP JUMPDEST PUSH1 0x60 SWAP1 JUMP JUMPDEST SWAP2 SWAP1 SWAP2 PUSH2 0x38CE PUSH2 0x38BE JUMP JUMPDEST POP PUSH1 0x40 MLOAD SWAP3 PUSH1 0x1F NOT DUP1 DUP4 MLOAD SWAP4 DUP2 DUP1 PUSH1 0x20 DUP8 ADD AND JUMPDEST DUP1 DUP4 ADD MLOAD DUP2 DUP11 ADD MSTORE ADD SWAP1 DUP2 ISZERO PUSH2 0x38FD JUMPI DUP2 SWAP1 SWAP2 POP DUP3 SWAP1 PUSH2 0x38E2 JUMP JUMPDEST POP POP POP DUP2 MLOAD SWAP2 DUP4 DUP7 ADD DUP3 DUP1 PUSH1 0x20 DUP7 ADD AND JUMPDEST DUP1 DUP5 ADD MLOAD DUP2 DUP5 ADD MSTORE ADD SWAP2 DUP3 ISZERO PUSH2 0x392B JUMPI DUP3 DUP1 SWAP2 SWAP4 POP POP DUP4 SWAP1 PUSH2 0x390E JUMP JUMPDEST POP POP POP POP PUSH1 0x20 SWAP2 ADD DUP1 DUP3 DUP6 ADD ADD SWAP1 PUSH1 0x0 DUP3 MSTORE DUP5 MSTORE ADD PUSH1 0x40 MSTORE JUMP JUMPDEST PUSH1 0x0 PUSH2 0x395A SWAP2 PUSH2 0x3953 PUSH2 0x165E JUMP JUMPDEST POP ADD PUSH2 0x383E JUMP JUMPDEST SWAP1 JUMP JUMPDEST PUSH2 0x3965 PUSH2 0x1351 JUMP JUMPDEST POP DUP1 PUSH2 0x3980 PUSH2 0x397A PUSH4 0x152A902D PUSH1 0xE1 SHL PUSH2 0x288 JUMP JUMPDEST SWAP2 PUSH2 0x288 JUMP JUMPDEST EQ SWAP1 DUP2 ISZERO PUSH2 0x398D JUMPI JUMPDEST POP SWAP1 JUMP JUMPDEST PUSH2 0x3997 SWAP2 POP PUSH2 0x4089 JUMP JUMPDEST CODESIZE PUSH2 0x3989 JUMP JUMPDEST PUSH2 0x39A5 PUSH2 0x1351 JUMP JUMPDEST POP DUP1 PUSH2 0x39C0 PUSH2 0x39BA PUSH4 0x5A05180F PUSH1 0xE0 SHL PUSH2 0x288 JUMP JUMPDEST SWAP2 PUSH2 0x288 JUMP JUMPDEST EQ SWAP1 DUP2 ISZERO PUSH2 0x39CD JUMPI JUMPDEST POP SWAP1 JUMP JUMPDEST PUSH2 0x39D7 SWAP2 POP PUSH2 0x40AF JUMP JUMPDEST CODESIZE PUSH2 0x39C9 JUMP JUMPDEST PUSH2 0x39E5 PUSH2 0x1351 JUMP JUMPDEST POP DUP1 PUSH2 0x3A00 PUSH2 0x39FA PUSH4 0x4E821D33 PUSH1 0xE1 SHL PUSH2 0x288 JUMP JUMPDEST SWAP2 PUSH2 0x288 JUMP JUMPDEST EQ SWAP1 DUP2 ISZERO PUSH2 0x3A0D JUMPI JUMPDEST POP SWAP1 JUMP JUMPDEST PUSH2 0x3A17 SWAP2 POP PUSH2 0x3406 JUMP JUMPDEST CODESIZE PUSH2 0x3A09 JUMP JUMPDEST SWAP1 JUMP JUMPDEST PUSH1 0xFF AND SWAP1 JUMP JUMPDEST PUSH2 0x3A3A PUSH2 0x3A35 PUSH2 0x3A3F SWAP3 PUSH2 0x3A1D JUMP JUMPDEST PUSH2 0x15BD JUMP JUMPDEST PUSH2 0x3A20 JUMP JUMPDEST SWAP1 JUMP JUMPDEST PUSH2 0x3A4C PUSH1 0x14 PUSH2 0x3A26 JUMP JUMPDEST SWAP1 JUMP JUMPDEST PUSH2 0x3A63 PUSH2 0x3A5E PUSH2 0x3A68 SWAP3 PUSH2 0x3A20 JUMP JUMPDEST PUSH2 0x15BD JUMP JUMPDEST PUSH2 0x4D7 JUMP JUMPDEST SWAP1 JUMP JUMPDEST PUSH2 0x3A88 PUSH2 0x3A83 PUSH2 0x3A9E SWAP3 PUSH2 0x3A7D PUSH2 0x13EE JUMP JUMPDEST POP PUSH2 0x36CD JUMP JUMPDEST PUSH2 0x36D9 JUMP JUMPDEST PUSH2 0x3A98 PUSH2 0x3A93 PUSH2 0x3A42 JUMP JUMPDEST PUSH2 0x3A4F JUMP JUMPDEST SWAP1 PUSH2 0x3C84 JUMP JUMPDEST SWAP1 JUMP JUMPDEST SWAP1 JUMP JUMPDEST PUSH2 0x3AB8 PUSH2 0x3AB3 PUSH2 0x3ABD SWAP3 PUSH2 0x3AA1 JUMP JUMPDEST PUSH2 0x15BD JUMP JUMPDEST PUSH2 0x4D7 JUMP JUMPDEST SWAP1 JUMP JUMPDEST SWAP1 PUSH2 0x3AD2 PUSH2 0x3ACD DUP4 PUSH2 0x27E0 JUMP JUMPDEST PUSH2 0x9A7 JUMP JUMPDEST SWAP2 DUP3 MSTORE JUMP JUMPDEST CALLDATASIZE SWAP1 CALLDATACOPY JUMP JUMPDEST SWAP1 PUSH2 0x3B01 PUSH2 0x3AE9 DUP4 PUSH2 0x3AC0 JUMP JUMPDEST SWAP3 PUSH1 0x20 DUP1 PUSH2 0x3AF7 DUP7 SWAP4 PUSH2 0x27E0 JUMP JUMPDEST SWAP3 ADD SWAP2 SUB SWAP1 PUSH2 0x3AD7 JUMP JUMPDEST JUMP JUMPDEST PUSH1 0x3 PUSH1 0xFC SHL SWAP1 JUMP JUMPDEST MLOAD SWAP1 JUMP JUMPDEST SWAP1 PUSH2 0x3B19 DUP3 PUSH2 0x3B0B JUMP JUMPDEST DUP2 LT ISZERO PUSH2 0x3B2B JUMPI PUSH1 0x1 PUSH1 0x20 SWAP2 MUL ADD ADD SWAP1 JUMP JUMPDEST PUSH2 0x29A0 JUMP JUMPDEST PUSH1 0xF PUSH1 0xFB SHL SWAP1 JUMP JUMPDEST SWAP1 JUMP JUMPDEST PUSH2 0x3B4F PUSH2 0x3B4A PUSH2 0x3B54 SWAP3 PUSH2 0x3B38 JUMP JUMPDEST PUSH2 0x15BD JUMP JUMPDEST PUSH2 0x4D7 JUMP JUMPDEST SWAP1 JUMP JUMPDEST PUSH2 0x3B60 SWAP1 PUSH2 0x4D7 JUMP JUMPDEST PUSH1 0x0 DUP2 EQ PUSH2 0x3B6F JUMPI PUSH1 0x1 SWAP1 SUB SWAP1 JUMP JUMPDEST PUSH2 0x1973 JUMP JUMPDEST PUSH16 0x181899199A1A9B1B9C1CB0B131B232B3 PUSH1 0x81 SHL SWAP1 JUMP JUMPDEST PUSH2 0x3B93 PUSH2 0x3B74 JUMP JUMPDEST SWAP1 JUMP JUMPDEST SWAP1 JUMP JUMPDEST PUSH2 0x3BAD PUSH2 0x3BA8 PUSH2 0x3BB2 SWAP3 PUSH2 0x3B96 JUMP JUMPDEST PUSH2 0x15BD JUMP JUMPDEST PUSH2 0x4D7 JUMP JUMPDEST SWAP1 JUMP JUMPDEST PUSH1 0xF8 SHL SWAP1 JUMP JUMPDEST SWAP1 JUMP JUMPDEST PUSH2 0x3BD2 PUSH2 0x3BCD PUSH2 0x3BD7 SWAP3 PUSH2 0x3BBB JUMP JUMPDEST PUSH2 0x15BD JUMP JUMPDEST PUSH2 0x3A20 JUMP JUMPDEST SWAP1 JUMP JUMPDEST PUSH2 0x3BF9 SWAP1 PUSH2 0x3BF3 PUSH2 0x3BED PUSH2 0x3BFE SWAP5 PUSH2 0x3A20 JUMP JUMPDEST SWAP2 PUSH2 0x4D7 JUMP JUMPDEST SWAP1 PUSH2 0x20EE JUMP JUMPDEST PUSH2 0x4D7 JUMP JUMPDEST SWAP1 JUMP JUMPDEST PUSH1 0x0 PUSH32 0x537472696E67733A20686578206C656E67746820696E73756666696369656E74 SWAP2 ADD MSTORE JUMP JUMPDEST PUSH2 0x3C35 PUSH1 0x20 DUP1 SWAP3 PUSH2 0x420 JUMP JUMPDEST PUSH2 0x3C3E DUP2 PUSH2 0x3C01 JUMP JUMPDEST ADD SWAP1 JUMP JUMPDEST PUSH2 0x3C58 SWAP1 PUSH1 0x20 DUP2 ADD SWAP1 PUSH1 0x0 DUP2 DUP4 SUB SWAP2 ADD MSTORE PUSH2 0x3C29 JUMP JUMPDEST SWAP1 JUMP JUMPDEST ISZERO PUSH2 0x3C62 JUMPI JUMP JUMPDEST PUSH2 0x3C6A PUSH2 0x273 JUMP JUMPDEST PUSH3 0x461BCD PUSH1 0xE5 SHL DUP2 MSTORE DUP1 PUSH2 0x3C80 PUSH1 0x4 DUP3 ADD PUSH2 0x3C42 JUMP JUMPDEST SUB SWAP1 REVERT JUMPDEST SWAP2 SWAP1 PUSH2 0x3C8E PUSH2 0x13EE JUMP JUMPDEST POP PUSH2 0x3D28 PUSH2 0x3D18 PUSH2 0x3CC4 PUSH2 0x3CBF PUSH2 0x3CAF PUSH1 0x2 PUSH2 0x3CAA DUP8 SWAP2 PUSH2 0x3AA4 JUMP JUMPDEST PUSH2 0x1989 JUMP JUMPDEST PUSH2 0x3CB9 PUSH1 0x2 PUSH2 0x3AA4 JUMP JUMPDEST SWAP1 PUSH2 0x1B76 JUMP JUMPDEST PUSH2 0x3ADC JUMP JUMPDEST SWAP3 PUSH2 0x3CCD PUSH2 0x3B03 JUMP JUMPDEST PUSH2 0x3CE6 DUP6 PUSH2 0x3CE0 PUSH1 0x0 SWAP4 PUSH1 0x0 BYTE SWAP4 PUSH2 0x1AF4 JUMP JUMPDEST SWAP1 PUSH2 0x3B0F JUMP JUMPDEST MSTORE8 PUSH2 0x3CEF PUSH2 0x3B30 JUMP JUMPDEST PUSH2 0x3D08 DUP6 PUSH2 0x3D02 PUSH1 0x1 SWAP4 PUSH1 0x0 BYTE SWAP4 PUSH2 0x3B3B JUMP JUMPDEST SWAP1 PUSH2 0x3B0F JUMP JUMPDEST MSTORE8 PUSH2 0x3D13 PUSH1 0x2 PUSH2 0x3AA4 JUMP JUMPDEST PUSH2 0x1989 JUMP JUMPDEST PUSH2 0x3D22 PUSH1 0x1 PUSH2 0x3B3B JUMP JUMPDEST SWAP1 PUSH2 0x1B76 JUMP JUMPDEST SWAP3 JUMPDEST DUP4 PUSH2 0x3D3E PUSH2 0x3D38 PUSH1 0x1 PUSH2 0x3B3B JUMP JUMPDEST SWAP2 PUSH2 0x4D7 JUMP JUMPDEST GT ISZERO PUSH2 0x3DA5 JUMPI PUSH2 0x3D4C PUSH2 0x3B8B JUMP JUMPDEST DUP2 PUSH2 0x3D57 PUSH1 0xF PUSH2 0x3B99 JUMP JUMPDEST AND SWAP2 PUSH1 0x10 DUP4 LT ISZERO PUSH2 0x3DA0 JUMPI PUSH2 0x3D73 PUSH2 0x3D94 SWAP3 PUSH2 0x3D9A SWAP5 BYTE PUSH2 0x3BB5 JUMP JUMPDEST PUSH2 0x3D83 DUP6 SWAP2 DUP9 SWAP1 PUSH1 0x0 BYTE SWAP3 PUSH2 0x3B0F JUMP JUMPDEST MSTORE8 PUSH2 0x3D8E PUSH1 0x4 PUSH2 0x3BBE JUMP JUMPDEST SWAP1 PUSH2 0x3BDA JUMP JUMPDEST SWAP4 PUSH2 0x3B57 JUMP JUMPDEST SWAP3 PUSH2 0x3D2A JUMP JUMPDEST PUSH2 0x29A0 JUMP JUMPDEST PUSH2 0x3DCD SWAP3 SWAP4 POP PUSH2 0x3DC8 SWAP1 PUSH2 0x3DC2 PUSH2 0x3DBC PUSH1 0x0 PUSH2 0x1AF4 JUMP JUMPDEST SWAP2 PUSH2 0x4D7 JUMP JUMPDEST EQ PUSH2 0x3C5B JUMP JUMPDEST PUSH2 0x338C JUMP JUMPDEST SWAP1 JUMP JUMPDEST SWAP1 JUMP JUMPDEST PUSH1 0x0 MSTORE PUSH1 0x20 PUSH1 0x0 KECCAK256 SWAP1 JUMP JUMPDEST SLOAD SWAP1 JUMP JUMPDEST PUSH2 0x3DEB DUP2 PUSH2 0x3DDE JUMP JUMPDEST DUP3 LT ISZERO PUSH2 0x3E06 JUMPI PUSH2 0x3DFD PUSH1 0x1 SWAP2 PUSH2 0x3DD3 JUMP JUMPDEST SWAP2 MUL ADD SWAP1 PUSH1 0x0 SWAP1 JUMP JUMPDEST PUSH2 0x29A0 JUMP JUMPDEST SWAP2 SWAP1 PUSH2 0x3E21 PUSH2 0x3E1C PUSH2 0x3E29 SWAP4 PUSH2 0x17A5 JUMP JUMPDEST PUSH2 0x2A99 JUMP JUMPDEST SWAP1 DUP4 SLOAD PUSH2 0x201B JUMP JUMPDEST SWAP1 SSTORE JUMP JUMPDEST SWAP1 DUP2 SLOAD SWAP2 PUSH9 0x10000000000000000 DUP4 LT ISZERO PUSH2 0x3E5D JUMPI DUP3 PUSH2 0x3E55 SWAP2 PUSH1 0x1 PUSH2 0x3E5B SWAP6 ADD DUP2 SSTORE PUSH2 0x3DE2 JUMP JUMPDEST SWAP1 PUSH2 0x3E0B JUMP JUMPDEST JUMP JUMPDEST PUSH2 0x968 JUMP JUMPDEST SWAP1 PUSH2 0x3E6C SWAP1 PUSH2 0x17A5 JUMP JUMPDEST PUSH1 0x0 MSTORE PUSH1 0x20 MSTORE PUSH1 0x40 PUSH1 0x0 KECCAK256 SWAP1 JUMP JUMPDEST PUSH2 0x3E82 PUSH2 0x1351 JUMP JUMPDEST POP PUSH2 0x3E97 PUSH2 0x3E91 DUP3 DUP5 SWAP1 PUSH2 0x40EF JUMP JUMPDEST ISZERO PUSH2 0x2D7 JUMP JUMPDEST PUSH1 0x0 EQ PUSH2 0x3EDA JUMPI PUSH2 0x3ED0 PUSH2 0x3ED5 SWAP3 PUSH2 0x3EBB PUSH2 0x3EB4 PUSH1 0x0 DUP6 ADD PUSH2 0x3DD0 JUMP JUMPDEST DUP3 SWAP1 PUSH2 0x3E2D JUMP JUMPDEST PUSH1 0x1 PUSH2 0x3EC9 PUSH1 0x0 DUP6 ADD PUSH2 0x383E JUMP JUMPDEST SWAP4 ADD PUSH2 0x3E62 JUMP JUMPDEST PUSH2 0x1B56 JUMP JUMPDEST PUSH1 0x1 SWAP1 JUMP JUMPDEST POP POP PUSH1 0x0 SWAP1 JUMP JUMPDEST PUSH2 0x3EF0 PUSH2 0x3EF6 SWAP2 SWAP4 SWAP3 SWAP4 PUSH2 0x4D7 JUMP JUMPDEST SWAP3 PUSH2 0x4D7 JUMP JUMPDEST DUP3 SUB SWAP2 DUP3 GT PUSH2 0x3F01 JUMPI JUMP JUMPDEST PUSH2 0x1973 JUMP JUMPDEST PUSH4 0x4E487B71 PUSH1 0xE0 SHL PUSH1 0x0 MSTORE PUSH1 0x31 PUSH1 0x4 MSTORE PUSH1 0x24 PUSH1 0x0 REVERT JUMPDEST PUSH2 0x3F2E SWAP2 PUSH2 0x3F28 PUSH2 0x17A0 JUMP JUMPDEST SWAP2 PUSH2 0x3E0B JUMP JUMPDEST JUMP JUMPDEST PUSH2 0x3F39 DUP2 PUSH2 0x3DDE JUMP JUMPDEST DUP1 ISZERO PUSH2 0x3F5A JUMPI PUSH1 0x1 SWAP1 SUB SWAP1 PUSH2 0x3F57 PUSH2 0x3F51 DUP4 DUP4 PUSH2 0x3DE2 JUMP JUMPDEST SWAP1 PUSH2 0x3F1C JUMP JUMPDEST SSTORE JUMP JUMPDEST PUSH2 0x3F06 JUMP JUMPDEST PUSH2 0x3F67 PUSH2 0x1351 JUMP JUMPDEST POP PUSH2 0x3F7E PUSH2 0x3F79 PUSH1 0x1 DUP4 ADD DUP5 SWAP1 PUSH2 0x3E62 JUMP JUMPDEST PUSH2 0x1680 JUMP JUMPDEST SWAP1 DUP2 PUSH2 0x3F93 PUSH2 0x3F8D PUSH1 0x0 PUSH2 0x1AF4 JUMP JUMPDEST SWAP2 PUSH2 0x4D7 JUMP JUMPDEST EQ ISZERO PUSH1 0x0 EQ PUSH2 0x4061 JUMPI PUSH2 0x4013 SWAP3 PUSH1 0x1 PUSH2 0x400E SWAP3 DUP5 PUSH2 0x3FBC PUSH1 0x0 SWAP7 PUSH2 0x3FB6 DUP6 PUSH2 0x3B3B JUMP JUMPDEST SWAP1 PUSH2 0x3EE1 JUMP JUMPDEST PUSH2 0x3FD9 PUSH2 0x3FCA DUP9 DUP6 ADD PUSH2 0x383E JUMP JUMPDEST PUSH2 0x3FD3 DUP7 PUSH2 0x3B3B JUMP JUMPDEST SWAP1 PUSH2 0x3EE1 JUMP JUMPDEST DUP1 PUSH2 0x3FEC PUSH2 0x3FE6 DUP5 PUSH2 0x4D7 JUMP JUMPDEST SWAP2 PUSH2 0x4D7 JUMP JUMPDEST SUB PUSH2 0x4018 JUMPI JUMPDEST POP POP POP PUSH2 0x4008 PUSH2 0x4003 DUP7 DUP4 ADD PUSH2 0x3DD0 JUMP JUMPDEST PUSH2 0x3F30 JUMP JUMPDEST ADD PUSH2 0x3E62 JUMP JUMPDEST PUSH2 0x2063 JUMP JUMPDEST PUSH1 0x1 SWAP1 JUMP JUMPDEST PUSH2 0x4059 SWAP3 PUSH2 0x404B PUSH2 0x4037 PUSH2 0x4031 PUSH2 0x4054 SWAP5 DUP13 DUP10 ADD PUSH2 0x384D JUMP JUMPDEST SWAP1 PUSH2 0x388E JUMP JUMPDEST SWAP4 PUSH2 0x4045 DUP6 SWAP2 DUP13 DUP10 ADD PUSH2 0x384D JUMP JUMPDEST SWAP1 PUSH2 0x3E0B JUMP JUMPDEST SWAP2 DUP6 DUP6 ADD PUSH2 0x3E62 JUMP JUMPDEST PUSH2 0x1B56 JUMP JUMPDEST CODESIZE DUP1 DUP1 PUSH2 0x3FF2 JUMP JUMPDEST POP POP POP PUSH1 0x0 SWAP1 JUMP JUMPDEST SWAP1 PUSH2 0x4080 PUSH2 0x4079 PUSH2 0x4087 SWAP4 PUSH2 0x15E8 JUMP JUMPDEST PUSH1 0x4 PUSH2 0x161E JUMP JUMPDEST PUSH1 0x5 PUSH2 0x2AA5 JUMP JUMPDEST JUMP JUMPDEST PUSH2 0x4091 PUSH2 0x1351 JUMP JUMPDEST POP PUSH2 0x40AB PUSH2 0x40A5 PUSH4 0x1FFC9A7 PUSH1 0xE0 SHL PUSH2 0x288 JUMP JUMPDEST SWAP2 PUSH2 0x288 JUMP JUMPDEST EQ SWAP1 JUMP JUMPDEST PUSH2 0x40B7 PUSH2 0x1351 JUMP JUMPDEST POP DUP1 PUSH2 0x40D2 PUSH2 0x40CC PUSH4 0x7965DB0B PUSH1 0xE0 SHL PUSH2 0x288 JUMP JUMPDEST SWAP2 PUSH2 0x288 JUMP JUMPDEST EQ SWAP1 DUP2 ISZERO PUSH2 0x40DF JUMPI JUMPDEST POP SWAP1 JUMP JUMPDEST PUSH2 0x40E9 SWAP2 POP PUSH2 0x395D JUMP JUMPDEST CODESIZE PUSH2 0x40DB JUMP JUMPDEST PUSH2 0x410D SWAP2 PUSH1 0x1 PUSH2 0x4108 SWAP3 PUSH2 0x4101 PUSH2 0x1351 JUMP JUMPDEST POP ADD PUSH2 0x3E62 JUMP JUMPDEST PUSH2 0x1680 JUMP JUMPDEST PUSH2 0x4120 PUSH2 0x411A PUSH1 0x0 PUSH2 0x1AF4 JUMP JUMPDEST SWAP2 PUSH2 0x4D7 JUMP JUMPDEST EQ ISZERO SWAP1 JUMP INVALID LOG2 PUSH5 0x6970667358 0x22 SLT KECCAK256 0x29 0xA6 0xD0 COINBASE CALL 0x4C 0x22 PUSH12 0x15D09BED1F38D00ED477C06 COINBASE PUSH29 0xDEFC834389F375CB9B8964736F6C634300081B00336080604052346100 0x2F JUMPI PUSH2 0x19 PUSH2 0x14 PUSH2 0xFA JUMP JUMPDEST PUSH2 0x11B JUMP JUMPDEST PUSH2 0x21 PUSH2 0x34 JUMP JUMPDEST PUSH2 0x722 PUSH2 0x380 DUP3 CODECOPY PUSH2 0x722 SWAP1 RETURN JUMPDEST PUSH2 0x3A JUMP JUMPDEST PUSH1 0x40 MLOAD SWAP1 JUMP JUMPDEST PUSH1 0x0 DUP1 REVERT JUMPDEST PUSH1 0x1F DUP1 NOT SWAP2 ADD AND SWAP1 JUMP JUMPDEST PUSH4 0x4E487B71 PUSH1 0xE0 SHL PUSH1 0x0 MSTORE PUSH1 0x41 PUSH1 0x4 MSTORE PUSH1 0x24 PUSH1 0x0 REVERT JUMPDEST SWAP1 PUSH2 0x69 SWAP1 PUSH2 0x3F JUMP JUMPDEST DUP2 ADD SWAP1 DUP2 LT PUSH1 0x1 DUP1 PUSH1 0x40 SHL SUB DUP3 GT OR PUSH2 0x81 JUMPI PUSH1 0x40 MSTORE JUMP JUMPDEST PUSH2 0x49 JUMP JUMPDEST SWAP1 PUSH2 0x99 PUSH2 0x92 PUSH2 0x34 JUMP JUMPDEST SWAP3 DUP4 PUSH2 0x5F JUMP JUMPDEST JUMP JUMPDEST PUSH1 0x0 DUP1 REVERT JUMPDEST PUSH1 0x1 DUP1 PUSH1 0xA0 SHL SUB AND SWAP1 JUMP JUMPDEST PUSH2 0xB4 SWAP1 PUSH2 0xA0 JUMP JUMPDEST SWAP1 JUMP JUMPDEST PUSH2 0xC0 DUP2 PUSH2 0xAB JUMP JUMPDEST SUB PUSH2 0xC7 JUMPI JUMP JUMPDEST PUSH1 0x0 DUP1 REVERT JUMPDEST SWAP1 POP MLOAD SWAP1 PUSH2 0xD9 DUP3 PUSH2 0xB7 JUMP JUMPDEST JUMP JUMPDEST SWAP1 PUSH1 0x20 DUP3 DUP3 SUB SLT PUSH2 0xF5 JUMPI PUSH2 0xF2 SWAP2 PUSH1 0x0 ADD PUSH2 0xCC JUMP JUMPDEST SWAP1 JUMP JUMPDEST PUSH2 0x9B JUMP JUMPDEST PUSH2 0x118 PUSH2 0xAA2 DUP1 CODESIZE SUB DUP1 PUSH2 0x10D DUP2 PUSH2 0x86 JUMP JUMPDEST SWAP3 DUP4 CODECOPY DUP2 ADD SWAP1 PUSH2 0xDB JUMP JUMPDEST SWAP1 JUMP JUMPDEST PUSH2 0x12C SWAP1 PUSH2 0x127 PUSH2 0x12E JUMP JUMPDEST PUSH2 0x26E JUMP JUMPDEST JUMP JUMPDEST PUSH2 0x13E PUSH2 0x139 PUSH2 0x291 JUMP JUMPDEST PUSH2 0x2D6 JUMP JUMPDEST JUMP JUMPDEST PUSH1 0x20 SWAP2 DUP2 MSTORE ADD SWAP1 JUMP JUMPDEST PUSH1 0x20 PUSH32 0x6E206973206E6F74206120636F6E747261637400000000000000000000000000 SWAP2 PUSH32 0x5570677261646561626C65426561636F6E3A20696D706C656D656E746174696F PUSH1 0x0 DUP3 ADD MSTORE ADD MSTORE JUMP JUMPDEST PUSH2 0x1A4 PUSH1 0x33 PUSH1 0x40 SWAP3 PUSH2 0x140 JUMP JUMPDEST PUSH2 0x1AD DUP2 PUSH2 0x149 JUMP JUMPDEST ADD SWAP1 JUMP JUMPDEST PUSH2 0x1C7 SWAP1 PUSH1 0x20 DUP2 ADD SWAP1 PUSH1 0x0 DUP2 DUP4 SUB SWAP2 ADD MSTORE PUSH2 0x197 JUMP JUMPDEST SWAP1 JUMP JUMPDEST ISZERO PUSH2 0x1D1 JUMPI JUMP JUMPDEST PUSH2 0x1D9 PUSH2 0x34 JUMP JUMPDEST PUSH3 0x461BCD PUSH1 0xE5 SHL DUP2 MSTORE DUP1 PUSH2 0x1EF PUSH1 0x4 DUP3 ADD PUSH2 0x1B1 JUMP JUMPDEST SUB SWAP1 REVERT JUMPDEST PUSH1 0x0 SHL SWAP1 JUMP JUMPDEST SWAP1 PUSH2 0x20A PUSH1 0x1 DUP1 PUSH1 0xA0 SHL SUB SWAP2 PUSH2 0x1F3 JUMP JUMPDEST SWAP2 DUP2 NOT AND SWAP2 AND OR SWAP1 JUMP JUMPDEST SWAP1 JUMP JUMPDEST PUSH2 0x22B PUSH2 0x226 PUSH2 0x230 SWAP3 PUSH2 0xA0 JUMP JUMPDEST PUSH2 0x214 JUMP JUMPDEST PUSH2 0xA0 JUMP JUMPDEST SWAP1 JUMP JUMPDEST PUSH2 0x23C SWAP1 PUSH2 0x217 JUMP JUMPDEST SWAP1 JUMP JUMPDEST PUSH2 0x248 SWAP1 PUSH2 0x233 JUMP JUMPDEST SWAP1 JUMP JUMPDEST SWAP1 JUMP JUMPDEST SWAP1 PUSH2 0x263 PUSH2 0x25E PUSH2 0x26A SWAP3 PUSH2 0x23F JUMP JUMPDEST PUSH2 0x24B JUMP JUMPDEST DUP3 SLOAD PUSH2 0x1F9 JUMP JUMPDEST SWAP1 SSTORE JUMP JUMPDEST PUSH2 0x28A SWAP1 PUSH2 0x283 PUSH2 0x27E DUP3 PUSH2 0x35E JUMP JUMPDEST PUSH2 0x1CA JUMP JUMPDEST PUSH1 0x1 PUSH2 0x24E JUMP JUMPDEST JUMP JUMPDEST PUSH1 0x0 SWAP1 JUMP JUMPDEST PUSH2 0x299 PUSH2 0x28C JUMP JUMPDEST POP CALLER SWAP1 JUMP JUMPDEST PUSH1 0x0 SHR SWAP1 JUMP JUMPDEST PUSH1 0x1 DUP1 PUSH1 0xA0 SHL SUB AND SWAP1 JUMP JUMPDEST PUSH2 0x2BB PUSH2 0x2C0 SWAP2 PUSH2 0x29E JUMP JUMPDEST PUSH2 0x2A4 JUMP JUMPDEST SWAP1 JUMP JUMPDEST PUSH2 0x2CD SWAP1 SLOAD PUSH2 0x2AF JUMP JUMPDEST SWAP1 JUMP JUMPDEST PUSH1 0x0 ADD SWAP1 JUMP JUMPDEST PUSH2 0x2E0 PUSH1 0x0 PUSH2 0x2C3 JUMP JUMPDEST PUSH2 0x2EB DUP3 PUSH1 0x0 PUSH2 0x24E JUMP JUMPDEST SWAP1 PUSH2 0x31F PUSH2 0x319 PUSH32 0x8BE0079C531659141344CD1FD0A4F28419497F9722A3DAAFE3B4186F6B6457E0 SWAP4 PUSH2 0x23F JUMP JUMPDEST SWAP2 PUSH2 0x23F JUMP JUMPDEST SWAP2 PUSH2 0x328 PUSH2 0x34 JUMP JUMPDEST DUP1 PUSH2 0x332 DUP2 PUSH2 0x2D0 JUMP JUMPDEST SUB SWAP1 LOG3 JUMP JUMPDEST PUSH1 0x0 SWAP1 JUMP JUMPDEST SWAP1 JUMP JUMPDEST SWAP1 JUMP JUMPDEST PUSH2 0x356 PUSH2 0x351 PUSH2 0x35B SWAP3 PUSH2 0x33F JUMP JUMPDEST PUSH2 0x214 JUMP JUMPDEST PUSH2 0x33C JUMP JUMPDEST SWAP1 JUMP JUMPDEST PUSH2 0x366 PUSH2 0x337 JUMP JUMPDEST POP EXTCODESIZE PUSH2 0x37B PUSH2 0x375 PUSH1 0x0 PUSH2 0x342 JUMP JUMPDEST SWAP2 PUSH2 0x33C JUMP JUMPDEST GT SWAP1 JUMP INVALID PUSH1 0x80 PUSH1 0x40 MSTORE PUSH1 0x4 CALLDATASIZE LT ISZERO PUSH2 0x13 JUMPI JUMPDEST PUSH2 0x219 JUMP JUMPDEST PUSH2 0x1E PUSH1 0x0 CALLDATALOAD PUSH2 0x6D JUMP JUMPDEST DUP1 PUSH4 0x3659CFE6 EQ PUSH2 0x68 JUMPI DUP1 PUSH4 0x5C60DA1B EQ PUSH2 0x63 JUMPI DUP1 PUSH4 0x715018A6 EQ PUSH2 0x5E JUMPI DUP1 PUSH4 0x8DA5CB5B EQ PUSH2 0x59 JUMPI PUSH4 0xF2FDE38B SUB PUSH2 0xE JUMPI PUSH2 0x1E6 JUMP JUMPDEST PUSH2 0x1B1 JUMP JUMPDEST PUSH2 0x17E JUMP JUMPDEST PUSH2 0x149 JUMP JUMPDEST PUSH2 0xE3 JUMP JUMPDEST PUSH1 0xE0 SHR SWAP1 JUMP JUMPDEST PUSH1 0x40 MLOAD SWAP1 JUMP JUMPDEST PUSH1 0x0 DUP1 REVERT JUMPDEST PUSH1 0x0 DUP1 REVERT JUMPDEST PUSH1 0x1 DUP1 PUSH1 0xA0 SHL SUB AND SWAP1 JUMP JUMPDEST PUSH2 0x97 SWAP1 PUSH2 0x83 JUMP JUMPDEST SWAP1 JUMP JUMPDEST PUSH2 0xA3 DUP2 PUSH2 0x8E JUMP JUMPDEST SUB PUSH2 0xAA JUMPI JUMP JUMPDEST PUSH1 0x0 DUP1 REVERT JUMPDEST SWAP1 POP CALLDATALOAD SWAP1 PUSH2 0xBC DUP3 PUSH2 0x9A JUMP JUMPDEST JUMP JUMPDEST SWAP1 PUSH1 0x20 DUP3 DUP3 SUB SLT PUSH2 0xD8 JUMPI PUSH2 0xD5 SWAP2 PUSH1 0x0 ADD PUSH2 0xAF JUMP JUMPDEST SWAP1 JUMP JUMPDEST PUSH2 0x7E JUMP JUMPDEST PUSH1 0x0 ADD SWAP1 JUMP JUMPDEST CALLVALUE PUSH2 0x111 JUMPI PUSH2 0xFB PUSH2 0xF6 CALLDATASIZE PUSH1 0x4 PUSH2 0xBE JUMP JUMPDEST PUSH2 0x2B3 JUMP JUMPDEST PUSH2 0x103 PUSH2 0x73 JUMP JUMPDEST DUP1 PUSH2 0x10D DUP2 PUSH2 0xDD JUMP JUMPDEST SUB SWAP1 RETURN JUMPDEST PUSH2 0x79 JUMP JUMPDEST PUSH1 0x0 SWAP2 SUB SLT PUSH2 0x121 JUMPI JUMP JUMPDEST PUSH2 0x7E JUMP JUMPDEST PUSH2 0x12F SWAP1 PUSH2 0x8E JUMP JUMPDEST SWAP1 MSTORE JUMP JUMPDEST SWAP2 SWAP1 PUSH2 0x147 SWAP1 PUSH1 0x0 PUSH1 0x20 DUP6 ADD SWAP5 ADD SWAP1 PUSH2 0x126 JUMP JUMPDEST JUMP JUMPDEST CALLVALUE PUSH2 0x179 JUMPI PUSH2 0x159 CALLDATASIZE PUSH1 0x4 PUSH2 0x116 JUMP JUMPDEST PUSH2 0x175 PUSH2 0x164 PUSH2 0x2F5 JUMP JUMPDEST PUSH2 0x16C PUSH2 0x73 JUMP JUMPDEST SWAP2 DUP3 SWAP2 DUP3 PUSH2 0x133 JUMP JUMPDEST SUB SWAP1 RETURN JUMPDEST PUSH2 0x79 JUMP JUMPDEST CALLVALUE PUSH2 0x1AC JUMPI PUSH2 0x18E CALLDATASIZE PUSH1 0x4 PUSH2 0x116 JUMP JUMPDEST PUSH2 0x196 PUSH2 0x35C JUMP JUMPDEST PUSH2 0x19E PUSH2 0x73 JUMP JUMPDEST DUP1 PUSH2 0x1A8 DUP2 PUSH2 0xDD JUMP JUMPDEST SUB SWAP1 RETURN JUMPDEST PUSH2 0x79 JUMP JUMPDEST CALLVALUE PUSH2 0x1E1 JUMPI PUSH2 0x1C1 CALLDATASIZE PUSH1 0x4 PUSH2 0x116 JUMP JUMPDEST PUSH2 0x1DD PUSH2 0x1CC PUSH2 0x366 JUMP JUMPDEST PUSH2 0x1D4 PUSH2 0x73 JUMP JUMPDEST SWAP2 DUP3 SWAP2 DUP3 PUSH2 0x133 JUMP JUMPDEST SUB SWAP1 RETURN JUMPDEST PUSH2 0x79 JUMP JUMPDEST CALLVALUE PUSH2 0x214 JUMPI PUSH2 0x1FE PUSH2 0x1F9 CALLDATASIZE PUSH1 0x4 PUSH2 0xBE JUMP JUMPDEST PUSH2 0x473 JUMP JUMPDEST PUSH2 0x206 PUSH2 0x73 JUMP JUMPDEST DUP1 PUSH2 0x210 DUP2 PUSH2 0xDD JUMP JUMPDEST SUB SWAP1 RETURN JUMPDEST PUSH2 0x79 JUMP JUMPDEST PUSH1 0x0 DUP1 REVERT JUMPDEST PUSH2 0x22F SWAP1 PUSH2 0x22A PUSH2 0x501 JUMP JUMPDEST PUSH2 0x268 JUMP JUMPDEST JUMP JUMPDEST SWAP1 JUMP JUMPDEST PUSH2 0x248 PUSH2 0x243 PUSH2 0x24D SWAP3 PUSH2 0x83 JUMP JUMPDEST PUSH2 0x231 JUMP JUMPDEST PUSH2 0x83 JUMP JUMPDEST SWAP1 JUMP JUMPDEST PUSH2 0x259 SWAP1 PUSH2 0x234 JUMP JUMPDEST SWAP1 JUMP JUMPDEST PUSH2 0x265 SWAP1 PUSH2 0x250 JUMP JUMPDEST SWAP1 JUMP JUMPDEST PUSH2 0x271 DUP2 PUSH2 0x61B JUMP JUMPDEST PUSH2 0x29B PUSH32 0xBC7CD75A20EE27FD9ADEBAB32041F755214DBC6BFFA90CC0225B39DA2E5C2D3B SWAP2 PUSH2 0x25C JUMP JUMPDEST SWAP1 PUSH2 0x2A4 PUSH2 0x73 JUMP JUMPDEST DUP1 PUSH2 0x2AE DUP2 PUSH2 0xDD JUMP JUMPDEST SUB SWAP1 LOG2 JUMP JUMPDEST PUSH2 0x2BC SWAP1 PUSH2 0x21E JUMP JUMPDEST JUMP JUMPDEST PUSH1 0x0 SWAP1 JUMP JUMPDEST PUSH1 0x0 SHR SWAP1 JUMP JUMPDEST PUSH1 0x1 DUP1 PUSH1 0xA0 SHL SUB AND SWAP1 JUMP JUMPDEST PUSH2 0x2E0 PUSH2 0x2E5 SWAP2 PUSH2 0x2C3 JUMP JUMPDEST PUSH2 0x2C9 JUMP JUMPDEST SWAP1 JUMP JUMPDEST PUSH2 0x2F2 SWAP1 SLOAD PUSH2 0x2D4 JUMP JUMPDEST SWAP1 JUMP JUMPDEST PUSH2 0x2FD PUSH2 0x2BE JUMP JUMPDEST POP PUSH2 0x308 PUSH1 0x1 PUSH2 0x2E8 JUMP JUMPDEST SWAP1 JUMP JUMPDEST PUSH2 0x313 PUSH2 0x501 JUMP JUMPDEST PUSH2 0x31B PUSH2 0x348 JUMP JUMPDEST JUMP JUMPDEST SWAP1 JUMP JUMPDEST PUSH2 0x334 PUSH2 0x32F PUSH2 0x339 SWAP3 PUSH2 0x31D JUMP JUMPDEST PUSH2 0x231 JUMP JUMPDEST PUSH2 0x83 JUMP JUMPDEST SWAP1 JUMP JUMPDEST PUSH2 0x345 SWAP1 PUSH2 0x320 JUMP JUMPDEST SWAP1 JUMP JUMPDEST PUSH2 0x35A PUSH2 0x355 PUSH1 0x0 PUSH2 0x33C JUMP JUMPDEST PUSH2 0x639 JUMP JUMPDEST JUMP JUMPDEST PUSH2 0x364 PUSH2 0x30B JUMP JUMPDEST JUMP JUMPDEST PUSH2 0x36E PUSH2 0x2BE JUMP JUMPDEST POP PUSH2 0x379 PUSH1 0x0 PUSH2 0x2E8 JUMP JUMPDEST SWAP1 JUMP JUMPDEST PUSH2 0x38D SWAP1 PUSH2 0x388 PUSH2 0x501 JUMP JUMPDEST PUSH2 0x442 JUMP JUMPDEST JUMP JUMPDEST PUSH1 0x20 SWAP2 DUP2 MSTORE ADD SWAP1 JUMP JUMPDEST PUSH1 0x20 PUSH32 0x6464726573730000000000000000000000000000000000000000000000000000 SWAP2 PUSH32 0x4F776E61626C653A206E6577206F776E657220697320746865207A65726F2061 PUSH1 0x0 DUP3 ADD MSTORE ADD MSTORE JUMP JUMPDEST PUSH2 0x3F3 PUSH1 0x26 PUSH1 0x40 SWAP3 PUSH2 0x38F JUMP JUMPDEST PUSH2 0x3FC DUP2 PUSH2 0x398 JUMP JUMPDEST ADD SWAP1 JUMP JUMPDEST PUSH2 0x416 SWAP1 PUSH1 0x20 DUP2 ADD SWAP1 PUSH1 0x0 DUP2 DUP4 SUB SWAP2 ADD MSTORE PUSH2 0x3E6 JUMP JUMPDEST SWAP1 JUMP JUMPDEST ISZERO PUSH2 0x420 JUMPI JUMP JUMPDEST PUSH2 0x428 PUSH2 0x73 JUMP JUMPDEST PUSH3 0x461BCD PUSH1 0xE5 SHL DUP2 MSTORE DUP1 PUSH2 0x43E PUSH1 0x4 DUP3 ADD PUSH2 0x400 JUMP JUMPDEST SUB SWAP1 REVERT JUMPDEST PUSH2 0x471 SWAP1 PUSH2 0x46C DUP2 PUSH2 0x465 PUSH2 0x45F PUSH2 0x45A PUSH1 0x0 PUSH2 0x33C JUMP JUMPDEST PUSH2 0x8E JUMP JUMPDEST SWAP2 PUSH2 0x8E JUMP JUMPDEST EQ ISZERO PUSH2 0x419 JUMP JUMPDEST PUSH2 0x639 JUMP JUMPDEST JUMP JUMPDEST PUSH2 0x47C SWAP1 PUSH2 0x37C JUMP JUMPDEST JUMP JUMPDEST PUSH1 0x0 PUSH32 0x4F776E61626C653A2063616C6C6572206973206E6F7420746865206F776E6572 SWAP2 ADD MSTORE JUMP JUMPDEST PUSH2 0x4B2 PUSH1 0x20 DUP1 SWAP3 PUSH2 0x38F JUMP JUMPDEST PUSH2 0x4BB DUP2 PUSH2 0x47E JUMP JUMPDEST ADD SWAP1 JUMP JUMPDEST PUSH2 0x4D5 SWAP1 PUSH1 0x20 DUP2 ADD SWAP1 PUSH1 0x0 DUP2 DUP4 SUB SWAP2 ADD MSTORE PUSH2 0x4A6 JUMP JUMPDEST SWAP1 JUMP JUMPDEST ISZERO PUSH2 0x4DF JUMPI JUMP JUMPDEST PUSH2 0x4E7 PUSH2 0x73 JUMP JUMPDEST PUSH3 0x461BCD PUSH1 0xE5 SHL DUP2 MSTORE DUP1 PUSH2 0x4FD PUSH1 0x4 DUP3 ADD PUSH2 0x4BF JUMP JUMPDEST SUB SWAP1 REVERT JUMPDEST PUSH2 0x52B PUSH2 0x50C PUSH2 0x366 JUMP JUMPDEST PUSH2 0x525 PUSH2 0x51F PUSH2 0x51A PUSH2 0x69A JUMP JUMPDEST PUSH2 0x8E JUMP JUMPDEST SWAP2 PUSH2 0x8E JUMP JUMPDEST EQ PUSH2 0x4D8 JUMP JUMPDEST JUMP JUMPDEST PUSH1 0x20 PUSH32 0x6E206973206E6F74206120636F6E747261637400000000000000000000000000 SWAP2 PUSH32 0x5570677261646561626C65426561636F6E3A20696D706C656D656E746174696F PUSH1 0x0 DUP3 ADD MSTORE ADD MSTORE JUMP JUMPDEST PUSH2 0x588 PUSH1 0x33 PUSH1 0x40 SWAP3 PUSH2 0x38F JUMP JUMPDEST PUSH2 0x591 DUP2 PUSH2 0x52D JUMP JUMPDEST ADD SWAP1 JUMP JUMPDEST PUSH2 0x5AB SWAP1 PUSH1 0x20 DUP2 ADD SWAP1 PUSH1 0x0 DUP2 DUP4 SUB SWAP2 ADD MSTORE PUSH2 0x57B JUMP JUMPDEST SWAP1 JUMP JUMPDEST ISZERO PUSH2 0x5B5 JUMPI JUMP JUMPDEST PUSH2 0x5BD PUSH2 0x73 JUMP JUMPDEST PUSH3 0x461BCD PUSH1 0xE5 SHL DUP2 MSTORE DUP1 PUSH2 0x5D3 PUSH1 0x4 DUP3 ADD PUSH2 0x595 JUMP JUMPDEST SUB SWAP1 REVERT JUMPDEST PUSH1 0x0 SHL SWAP1 JUMP JUMPDEST SWAP1 PUSH2 0x5EE PUSH1 0x1 DUP1 PUSH1 0xA0 SHL SUB SWAP2 PUSH2 0x5D7 JUMP JUMPDEST SWAP2 DUP2 NOT AND SWAP2 AND OR SWAP1 JUMP JUMPDEST SWAP1 JUMP JUMPDEST SWAP1 PUSH2 0x610 PUSH2 0x60B PUSH2 0x617 SWAP3 PUSH2 0x25C JUMP JUMPDEST PUSH2 0x5F8 JUMP JUMPDEST DUP3 SLOAD PUSH2 0x5DD JUMP JUMPDEST SWAP1 SSTORE JUMP JUMPDEST PUSH2 0x637 SWAP1 PUSH2 0x630 PUSH2 0x62B DUP3 PUSH2 0x6CB JUMP JUMPDEST PUSH2 0x5AE JUMP JUMPDEST PUSH1 0x1 PUSH2 0x5FB JUMP JUMPDEST JUMP JUMPDEST PUSH2 0x643 PUSH1 0x0 PUSH2 0x2E8 JUMP JUMPDEST PUSH2 0x64E DUP3 PUSH1 0x0 PUSH2 0x5FB JUMP JUMPDEST SWAP1 PUSH2 0x682 PUSH2 0x67C PUSH32 0x8BE0079C531659141344CD1FD0A4F28419497F9722A3DAAFE3B4186F6B6457E0 SWAP4 PUSH2 0x25C JUMP JUMPDEST SWAP2 PUSH2 0x25C JUMP JUMPDEST SWAP2 PUSH2 0x68B PUSH2 0x73 JUMP JUMPDEST DUP1 PUSH2 0x695 DUP2 PUSH2 0xDD JUMP JUMPDEST SUB SWAP1 LOG3 JUMP JUMPDEST PUSH2 0x6A2 PUSH2 0x2BE JUMP JUMPDEST POP CALLER SWAP1 JUMP JUMPDEST PUSH1 0x0 SWAP1 JUMP JUMPDEST SWAP1 JUMP JUMPDEST PUSH2 0x6C3 PUSH2 0x6BE PUSH2 0x6C8 SWAP3 PUSH2 0x31D JUMP JUMPDEST PUSH2 0x231 JUMP JUMPDEST PUSH2 0x6AC JUMP JUMPDEST SWAP1 JUMP JUMPDEST PUSH2 0x6D3 PUSH2 0x6A7 JUMP JUMPDEST POP EXTCODESIZE PUSH2 0x6E8 PUSH2 0x6E2 PUSH1 0x0 PUSH2 0x6AF JUMP JUMPDEST SWAP2 PUSH2 0x6AC JUMP JUMPDEST GT SWAP1 JUMP INVALID LOG2 PUSH5 0x6970667358 0x22 SLT KECCAK256 EXTCODEHASH 0xBF SWAP5 0xB3 0xAA XOR 0x2E PUSH18 0x20F7EE578F52EECCE106FBE2A323E7E4F151 SAR SWAP16 0x27 PUSH23 0x8EAD64736F6C634300081B003300000000000000000000 "
        },
        "methodIdentifiers": {
          "beacon()": "59659e90",
          "deploy(address,address,string,string,string,string,address,uint96,address,bytes32)": "0defbce9",
          "determineAddress(address,address,string,string,string,string,address,uint96,address,bytes32)": "8bdb5fd2",
          "owner()": "8da5cb5b",
          "renounceOwnership()": "715018a6",
          "transferOwnership(address)": "f2fde38b",
          "upgradeBeacon(address)": "1bce4583"
        }
      },
      "userdoc": {
        "events": {
          "ERC721ItemsDeployed(address)": {
            "notice": "Event emitted when a new ERC-721 Items proxy contract is deployed."
          }
        },
        "kind": "user",
        "methods": {
          "constructor": {
            "notice": "Creates an ERC-721 Items Factory."
          },
          "deploy(address,address,string,string,string,string,address,uint96,address,bytes32)": {
            "notice": "Creates an ERC-721 Items proxy."
          },
          "determineAddress(address,address,string,string,string,string,address,uint96,address,bytes32)": {
            "notice": "Computes the address of a proxy instance."
          },
          "upgradeBeacon(address)": {
            "notice": "Upgrades the beacon implementation."
          }
        },
        "notice": "Deployer of ERC-721 Items proxies.",
        "version": 1
      }
    }
  }
}