{
  "lib/openzeppelin-contracts/contracts/proxy/beacon/UpgradeableBeacon.sol": {
    "UpgradeableBeacon": {
      "abi": [
        {
          "inputs": [
            {
              "internalType": "address",
              "name": "implementation_",
              "type": "address"
            }
          ],
          "stateMutability": "nonpayable",
          "type": "constructor"
        },
        {
          "anonymous": false,
          "inputs": [
            {
              "indexed": true,
              "internalType": "address",
              "name": "previousOwner",
              "type": "address"
            },
            {
              "indexed": true,
              "internalType": "address",
              "name": "newOwner",
              "type": "address"
            }
          ],
          "name": "OwnershipTransferred",
          "type": "event"
        },
        {
          "anonymous": false,
          "inputs": [
            {
              "indexed": true,
              "internalType": "address",
              "name": "implementation",
              "type": "address"
            }
          ],
          "name": "Upgraded",
          "type": "event"
        },
        {
          "inputs": [],
          "name": "implementation",
          "outputs": [
            {
              "internalType": "address",
              "name": "",
              "type": "address"
            }
          ],
          "stateMutability": "view",
          "type": "function"
        },
        {
          "inputs": [],
          "name": "owner",
          "outputs": [
            {
              "internalType": "address",
              "name": "",
              "type": "address"
            }
          ],
          "stateMutability": "view",
          "type": "function"
        },
        {
          "inputs": [],
          "name": "renounceOwnership",
          "outputs": [],
          "stateMutability": "nonpayable",
          "type": "function"
        },
        {
          "inputs": [
            {
              "internalType": "address",
              "name": "newOwner",
              "type": "address"
            }
          ],
          "name": "transferOwnership",
          "outputs": [],
          "stateMutability": "nonpayable",
          "type": "function"
        },
        {
          "inputs": [
            {
              "internalType": "address",
              "name": "newImplementation",
              "type": "address"
            }
          ],
          "name": "upgradeTo",
          "outputs": [],
          "stateMutability": "nonpayable",
          "type": "function"
        }
      ],
      "devdoc": {
        "details": "This contract is used in conjunction with one or more instances of {BeaconProxy} to determine their implementation contract, which is where they will delegate all function calls. An owner is able to change the implementation the beacon points to, thus upgrading the proxies that use this beacon.",
        "events": {
          "Upgraded(address)": {
            "details": "Emitted when the implementation returned by the beacon is changed."
          }
        },
        "kind": "dev",
        "methods": {
          "constructor": {
            "details": "Sets the address of the initial implementation, and the deployer account as the owner who can upgrade the beacon."
          },
          "implementation()": {
            "details": "Returns the current implementation address."
          },
          "owner()": {
            "details": "Returns the address of the current owner."
          },
          "renounceOwnership()": {
            "details": "Leaves the contract without owner. It will not be possible to call `onlyOwner` functions. Can only be called by the current owner. NOTE: Renouncing ownership will leave the contract without an owner, thereby disabling any functionality that is only available to the owner."
          },
          "transferOwnership(address)": {
            "details": "Transfers ownership of the contract to a new account (`newOwner`). Can only be called by the current owner."
          },
          "upgradeTo(address)": {
            "details": "Upgrades the beacon to a new implementation. Emits an {Upgraded} event. Requirements: - msg.sender must be the owner of the contract. - `newImplementation` must be a contract."
          }
        },
        "version": 1
      },
      "evm": {
        "bytecode": {
          "linkReferences": {},
          "object": "60806040523461002f576100196100146100fa565b61011b565b610021610034565b610722610380823961072290f35b61003a565b60405190565b600080fd5b601f801991011690565b634e487b7160e01b600052604160045260246000fd5b906100699061003f565b810190811060018060401b0382111761008157604052565b610049565b90610099610092610034565b928361005f565b565b600080fd5b60018060a01b031690565b6100b4906100a0565b90565b6100c0816100ab565b036100c757565b600080fd5b905051906100d9826100b7565b565b906020828203126100f5576100f2916000016100cc565b90565b61009b565b610118610aa28038038061010d81610086565b9283398101906100db565b90565b61012c9061012761012e565b61026e565b565b61013e610139610291565b6102d6565b565b60209181520190565b60207f6e206973206e6f74206120636f6e747261637400000000000000000000000000917f5570677261646561626c65426561636f6e3a20696d706c656d656e746174696f60008201520152565b6101a46033604092610140565b6101ad81610149565b0190565b6101c79060208101906000818303910152610197565b90565b156101d157565b6101d9610034565b62461bcd60e51b8152806101ef600482016101b1565b0390fd5b60001b90565b9061020a60018060a01b03916101f3565b9181191691161790565b90565b61022b610226610230926100a0565b610214565b6100a0565b90565b61023c90610217565b90565b61024890610233565b90565b90565b9061026361025e61026a9261023f565b61024b565b82546101f9565b9055565b61028a9061028361027e8261035e565b6101ca565b600161024e565b565b600090565b61029961028c565b503390565b60001c90565b60018060a01b031690565b6102bb6102c09161029e565b6102a4565b90565b6102cd90546102af565b90565b60000190565b6102e060006102c3565b6102eb82600061024e565b9061031f6103197f8be0079c531659141344cd1fd0a4f28419497f9722a3daafe3b4186f6b6457e09361023f565b9161023f565b91610328610034565b80610332816102d0565b0390a3565b600090565b90565b90565b61035661035161035b9261033f565b610214565b61033c565b90565b610366610337565b503b61037b6103756000610342565b9161033c565b119056fe60806040526004361015610013575b610219565b61001e60003561006d565b80633659cfe6146100685780635c60da1b14610063578063715018a61461005e5780638da5cb5b146100595763f2fde38b0361000e576101e6565b6101b1565b61017e565b610149565b6100e3565b60e01c90565b60405190565b600080fd5b600080fd5b60018060a01b031690565b61009790610083565b90565b6100a38161008e565b036100aa57565b600080fd5b905035906100bc8261009a565b565b906020828203126100d8576100d5916000016100af565b90565b61007e565b60000190565b34610111576100fb6100f63660046100be565b6102b3565b610103610073565b8061010d816100dd565b0390f35b610079565b600091031261012157565b61007e565b61012f9061008e565b9052565b919061014790600060208501940190610126565b565b3461017957610159366004610116565b6101756101646102f5565b61016c610073565b91829182610133565b0390f35b610079565b346101ac5761018e366004610116565b61019661035c565b61019e610073565b806101a8816100dd565b0390f35b610079565b346101e1576101c1366004610116565b6101dd6101cc610366565b6101d4610073565b91829182610133565b0390f35b610079565b34610214576101fe6101f93660046100be565b610473565b610206610073565b80610210816100dd565b0390f35b610079565b600080fd5b61022f9061022a610501565b610268565b565b90565b61024861024361024d92610083565b610231565b610083565b90565b61025990610234565b90565b61026590610250565b90565b6102718161061b565b61029b7fbc7cd75a20ee27fd9adebab32041f755214dbc6bffa90cc0225b39da2e5c2d3b9161025c565b906102a4610073565b806102ae816100dd565b0390a2565b6102bc9061021e565b565b600090565b60001c90565b60018060a01b031690565b6102e06102e5916102c3565b6102c9565b90565b6102f290546102d4565b90565b6102fd6102be565b5061030860016102e8565b90565b610313610501565b61031b610348565b565b90565b61033461032f6103399261031d565b610231565b610083565b90565b61034590610320565b90565b61035a610355600061033c565b610639565b565b61036461030b565b565b61036e6102be565b5061037960006102e8565b90565b61038d90610388610501565b610442565b565b60209181520190565b60207f6464726573730000000000000000000000000000000000000000000000000000917f4f776e61626c653a206e6577206f776e657220697320746865207a65726f206160008201520152565b6103f3602660409261038f565b6103fc81610398565b0190565b61041690602081019060008183039101526103e6565b90565b1561042057565b610428610073565b62461bcd60e51b81528061043e60048201610400565b0390fd5b6104719061046c8161046561045f61045a600061033c565b61008e565b9161008e565b1415610419565b610639565b565b61047c9061037c565b565b60007f4f776e61626c653a2063616c6c6572206973206e6f7420746865206f776e6572910152565b6104b26020809261038f565b6104bb8161047e565b0190565b6104d590602081019060008183039101526104a6565b90565b156104df57565b6104e7610073565b62461bcd60e51b8152806104fd600482016104bf565b0390fd5b61052b61050c610366565b61052561051f61051a61069a565b61008e565b9161008e565b146104d8565b565b60207f6e206973206e6f74206120636f6e747261637400000000000000000000000000917f5570677261646561626c65426561636f6e3a20696d706c656d656e746174696f60008201520152565b610588603360409261038f565b6105918161052d565b0190565b6105ab906020810190600081830391015261057b565b90565b156105b557565b6105bd610073565b62461bcd60e51b8152806105d360048201610595565b0390fd5b60001b90565b906105ee60018060a01b03916105d7565b9181191691161790565b90565b9061061061060b6106179261025c565b6105f8565b82546105dd565b9055565b6106379061063061062b826106cb565b6105ae565b60016105fb565b565b61064360006102e8565b61064e8260006105fb565b9061068261067c7f8be0079c531659141344cd1fd0a4f28419497f9722a3daafe3b4186f6b6457e09361025c565b9161025c565b9161068b610073565b80610695816100dd565b0390a3565b6106a26102be565b503390565b600090565b90565b6106c36106be6106c89261031d565b610231565b6106ac565b90565b6106d36106a7565b503b6106e86106e260006106af565b916106ac565b119056fea26469706673582212203fbf94b3aa182e7120f7ee578f52eecce106fbe2a323e7e4f1511d9f27768ead64736f6c634300081b0033",
          "opcodes": "PUSH1 0x80 PUSH1 0x40 MSTORE CALLVALUE PUSH2 0x2F JUMPI PUSH2 0x19 PUSH2 0x14 PUSH2 0xFA JUMP JUMPDEST PUSH2 0x11B JUMP JUMPDEST PUSH2 0x21 PUSH2 0x34 JUMP JUMPDEST PUSH2 0x722 PUSH2 0x380 DUP3 CODECOPY PUSH2 0x722 SWAP1 RETURN JUMPDEST PUSH2 0x3A JUMP JUMPDEST PUSH1 0x40 MLOAD SWAP1 JUMP JUMPDEST PUSH1 0x0 DUP1 REVERT JUMPDEST PUSH1 0x1F DUP1 NOT SWAP2 ADD AND SWAP1 JUMP JUMPDEST PUSH4 0x4E487B71 PUSH1 0xE0 SHL PUSH1 0x0 MSTORE PUSH1 0x41 PUSH1 0x4 MSTORE PUSH1 0x24 PUSH1 0x0 REVERT JUMPDEST SWAP1 PUSH2 0x69 SWAP1 PUSH2 0x3F JUMP JUMPDEST DUP2 ADD SWAP1 DUP2 LT PUSH1 0x1 DUP1 PUSH1 0x40 SHL SUB DUP3 GT OR PUSH2 0x81 JUMPI PUSH1 0x40 MSTORE JUMP JUMPDEST PUSH2 0x49 JUMP JUMPDEST SWAP1 PUSH2 0x99 PUSH2 0x92 PUSH2 0x34 JUMP JUMPDEST SWAP3 DUP4 PUSH2 0x5F JUMP JUMPDEST JUMP JUMPDEST PUSH1 0x0 DUP1 REVERT JUMPDEST PUSH1 0x1 DUP1 PUSH1 0xA0 SHL SUB AND SWAP1 JUMP JUMPDEST PUSH2 0xB4 SWAP1 PUSH2 0xA0 JUMP JUMPDEST SWAP1 JUMP JUMPDEST PUSH2 0xC0 DUP2 PUSH2 0xAB JUMP JUMPDEST SUB PUSH2 0xC7 JUMPI JUMP JUMPDEST PUSH1 0x0 DUP1 REVERT JUMPDEST SWAP1 POP MLOAD SWAP1 PUSH2 0xD9 DUP3 PUSH2 0xB7 JUMP JUMPDEST JUMP JUMPDEST SWAP1 PUSH1 0x20 DUP3 DUP3 SUB SLT PUSH2 0xF5 JUMPI PUSH2 0xF2 SWAP2 PUSH1 0x0 ADD PUSH2 0xCC JUMP JUMPDEST SWAP1 JUMP JUMPDEST PUSH2 0x9B JUMP JUMPDEST PUSH2 0x118 PUSH2 0xAA2 DUP1 CODESIZE SUB DUP1 PUSH2 0x10D DUP2 PUSH2 0x86 JUMP JUMPDEST SWAP3 DUP4 CODECOPY DUP2 ADD SWAP1 PUSH2 0xDB JUMP JUMPDEST SWAP1 JUMP JUMPDEST PUSH2 0x12C SWAP1 PUSH2 0x127 PUSH2 0x12E JUMP JUMPDEST PUSH2 0x26E JUMP JUMPDEST JUMP JUMPDEST PUSH2 0x13E PUSH2 0x139 PUSH2 0x291 JUMP JUMPDEST PUSH2 0x2D6 JUMP JUMPDEST JUMP JUMPDEST PUSH1 0x20 SWAP2 DUP2 MSTORE ADD SWAP1 JUMP JUMPDEST PUSH1 0x20 PUSH32 0x6E206973206E6F74206120636F6E747261637400000000000000000000000000 SWAP2 PUSH32 0x5570677261646561626C65426561636F6E3A20696D706C656D656E746174696F PUSH1 0x0 DUP3 ADD MSTORE ADD MSTORE JUMP JUMPDEST PUSH2 0x1A4 PUSH1 0x33 PUSH1 0x40 SWAP3 PUSH2 0x140 JUMP JUMPDEST PUSH2 0x1AD DUP2 PUSH2 0x149 JUMP JUMPDEST ADD SWAP1 JUMP JUMPDEST PUSH2 0x1C7 SWAP1 PUSH1 0x20 DUP2 ADD SWAP1 PUSH1 0x0 DUP2 DUP4 SUB SWAP2 ADD MSTORE PUSH2 0x197 JUMP JUMPDEST SWAP1 JUMP JUMPDEST ISZERO PUSH2 0x1D1 JUMPI JUMP JUMPDEST PUSH2 0x1D9 PUSH2 0x34 JUMP JUMPDEST PUSH3 0x461BCD PUSH1 0xE5 SHL DUP2 MSTORE DUP1 PUSH2 0x1EF PUSH1 0x4 DUP3 ADD PUSH2 0x1B1 JUMP JUMPDEST SUB SWAP1 REVERT JUMPDEST PUSH1 0x0 SHL SWAP1 JUMP JUMPDEST SWAP1 PUSH2 0x20A PUSH1 0x1 DUP1 PUSH1 0xA0 SHL SUB SWAP2 PUSH2 0x1F3 JUMP JUMPDEST SWAP2 DUP2 NOT AND SWAP2 AND OR SWAP1 JUMP JUMPDEST SWAP1 JUMP JUMPDEST PUSH2 0x22B PUSH2 0x226 PUSH2 0x230 SWAP3 PUSH2 0xA0 JUMP JUMPDEST PUSH2 0x214 JUMP JUMPDEST PUSH2 0xA0 JUMP JUMPDEST SWAP1 JUMP JUMPDEST PUSH2 0x23C SWAP1 PUSH2 0x217 JUMP JUMPDEST SWAP1 JUMP JUMPDEST PUSH2 0x248 SWAP1 PUSH2 0x233 JUMP JUMPDEST SWAP1 JUMP JUMPDEST SWAP1 JUMP JUMPDEST SWAP1 PUSH2 0x263 PUSH2 0x25E PUSH2 0x26A SWAP3 PUSH2 0x23F JUMP JUMPDEST PUSH2 0x24B JUMP JUMPDEST DUP3 SLOAD PUSH2 0x1F9 JUMP JUMPDEST SWAP1 SSTORE JUMP JUMPDEST PUSH2 0x28A SWAP1 PUSH2 0x283 PUSH2 0x27E DUP3 PUSH2 0x35E JUMP JUMPDEST PUSH2 0x1CA JUMP JUMPDEST PUSH1 0x1 PUSH2 0x24E JUMP JUMPDEST JUMP JUMPDEST PUSH1 0x0 SWAP1 JUMP JUMPDEST PUSH2 0x299 PUSH2 0x28C JUMP JUMPDEST POP CALLER SWAP1 JUMP JUMPDEST PUSH1 0x0 SHR SWAP1 JUMP JUMPDEST PUSH1 0x1 DUP1 PUSH1 0xA0 SHL SUB AND SWAP1 JUMP JUMPDEST PUSH2 0x2BB PUSH2 0x2C0 SWAP2 PUSH2 0x29E JUMP JUMPDEST PUSH2 0x2A4 JUMP JUMPDEST SWAP1 JUMP JUMPDEST PUSH2 0x2CD SWAP1 SLOAD PUSH2 0x2AF JUMP JUMPDEST SWAP1 JUMP JUMPDEST PUSH1 0x0 ADD SWAP1 JUMP JUMPDEST PUSH2 0x2E0 PUSH1 0x0 PUSH2 0x2C3 JUMP JUMPDEST PUSH2 0x2EB DUP3 PUSH1 0x0 PUSH2 0x24E JUMP JUMPDEST SWAP1 PUSH2 0x31F PUSH2 0x319 PUSH32 0x8BE0079C531659141344CD1FD0A4F28419497F9722A3DAAFE3B4186F6B6457E0 SWAP4 PUSH2 0x23F JUMP JUMPDEST SWAP2 PUSH2 0x23F JUMP JUMPDEST SWAP2 PUSH2 0x328 PUSH2 0x34 JUMP JUMPDEST DUP1 PUSH2 0x332 DUP2 PUSH2 0x2D0 JUMP JUMPDEST SUB SWAP1 LOG3 JUMP JUMPDEST PUSH1 0x0 SWAP1 JUMP JUMPDEST SWAP1 JUMP JUMPDEST SWAP1 JUMP JUMPDEST PUSH2 0x356 PUSH2 0x351 PUSH2 0x35B SWAP3 PUSH2 0x33F JUMP JUMPDEST PUSH2 0x214 JUMP JUMPDEST PUSH2 0x33C JUMP JUMPDEST SWAP1 JUMP JUMPDEST PUSH2 0x366 PUSH2 0x337 JUMP JUMPDEST POP EXTCODESIZE PUSH2 0x37B PUSH2 0x375 PUSH1 0x0 PUSH2 0x342 JUMP JUMPDEST SWAP2 PUSH2 0x33C JUMP JUMPDEST GT SWAP1 JUMP INVALID PUSH1 0x80 PUSH1 0x40 MSTORE PUSH1 0x4 CALLDATASIZE LT ISZERO PUSH2 0x13 JUMPI JUMPDEST PUSH2 0x219 JUMP JUMPDEST PUSH2 0x1E PUSH1 0x0 CALLDATALOAD PUSH2 0x6D JUMP JUMPDEST DUP1 PUSH4 0x3659CFE6 EQ PUSH2 0x68 JUMPI DUP1 PUSH4 0x5C60DA1B EQ PUSH2 0x63 JUMPI DUP1 PUSH4 0x715018A6 EQ PUSH2 0x5E JUMPI DUP1 PUSH4 0x8DA5CB5B EQ PUSH2 0x59 JUMPI PUSH4 0xF2FDE38B SUB PUSH2 0xE JUMPI PUSH2 0x1E6 JUMP JUMPDEST PUSH2 0x1B1 JUMP JUMPDEST PUSH2 0x17E JUMP JUMPDEST PUSH2 0x149 JUMP JUMPDEST PUSH2 0xE3 JUMP JUMPDEST PUSH1 0xE0 SHR SWAP1 JUMP JUMPDEST PUSH1 0x40 MLOAD SWAP1 JUMP JUMPDEST PUSH1 0x0 DUP1 REVERT JUMPDEST PUSH1 0x0 DUP1 REVERT JUMPDEST PUSH1 0x1 DUP1 PUSH1 0xA0 SHL SUB AND SWAP1 JUMP JUMPDEST PUSH2 0x97 SWAP1 PUSH2 0x83 JUMP JUMPDEST SWAP1 JUMP JUMPDEST PUSH2 0xA3 DUP2 PUSH2 0x8E JUMP JUMPDEST SUB PUSH2 0xAA JUMPI JUMP JUMPDEST PUSH1 0x0 DUP1 REVERT JUMPDEST SWAP1 POP CALLDATALOAD SWAP1 PUSH2 0xBC DUP3 PUSH2 0x9A JUMP JUMPDEST JUMP JUMPDEST SWAP1 PUSH1 0x20 DUP3 DUP3 SUB SLT PUSH2 0xD8 JUMPI PUSH2 0xD5 SWAP2 PUSH1 0x0 ADD PUSH2 0xAF JUMP JUMPDEST SWAP1 JUMP JUMPDEST PUSH2 0x7E JUMP JUMPDEST PUSH1 0x0 ADD SWAP1 JUMP JUMPDEST CALLVALUE PUSH2 0x111 JUMPI PUSH2 0xFB PUSH2 0xF6 CALLDATASIZE PUSH1 0x4 PUSH2 0xBE JUMP JUMPDEST PUSH2 0x2B3 JUMP JUMPDEST PUSH2 0x103 PUSH2 0x73 JUMP JUMPDEST DUP1 PUSH2 0x10D DUP2 PUSH2 0xDD JUMP JUMPDEST SUB SWAP1 RETURN JUMPDEST PUSH2 0x79 JUMP JUMPDEST PUSH1 0x0 SWAP2 SUB SLT PUSH2 0x121 JUMPI JUMP JUMPDEST PUSH2 0x7E JUMP JUMPDEST PUSH2 0x12F SWAP1 PUSH2 0x8E JUMP JUMPDEST SWAP1 MSTORE JUMP JUMPDEST SWAP2 SWAP1 PUSH2 0x147 SWAP1 PUSH1 0x0 PUSH1 0x20 DUP6 ADD SWAP5 ADD SWAP1 PUSH2 0x126 JUMP JUMPDEST JUMP JUMPDEST CALLVALUE PUSH2 0x179 JUMPI PUSH2 0x159 CALLDATASIZE PUSH1 0x4 PUSH2 0x116 JUMP JUMPDEST PUSH2 0x175 PUSH2 0x164 PUSH2 0x2F5 JUMP JUMPDEST PUSH2 0x16C PUSH2 0x73 JUMP JUMPDEST SWAP2 DUP3 SWAP2 DUP3 PUSH2 0x133 JUMP JUMPDEST SUB SWAP1 RETURN JUMPDEST PUSH2 0x79 JUMP JUMPDEST CALLVALUE PUSH2 0x1AC JUMPI PUSH2 0x18E CALLDATASIZE PUSH1 0x4 PUSH2 0x116 JUMP JUMPDEST PUSH2 0x196 PUSH2 0x35C JUMP JUMPDEST PUSH2 0x19E PUSH2 0x73 JUMP JUMPDEST DUP1 PUSH2 0x1A8 DUP2 PUSH2 0xDD JUMP JUMPDEST SUB SWAP1 RETURN JUMPDEST PUSH2 0x79 JUMP JUMPDEST CALLVALUE PUSH2 0x1E1 JUMPI PUSH2 0x1C1 CALLDATASIZE PUSH1 0x4 PUSH2 0x116 JUMP JUMPDEST PUSH2 0x1DD PUSH2 0x1CC PUSH2 0x366 JUMP JUMPDEST PUSH2 0x1D4 PUSH2 0x73 JUMP JUMPDEST SWAP2 DUP3 SWAP2 DUP3 PUSH2 0x133 JUMP JUMPDEST SUB SWAP1 RETURN JUMPDEST PUSH2 0x79 JUMP JUMPDEST CALLVALUE PUSH2 0x214 JUMPI PUSH2 0x1FE PUSH2 0x1F9 CALLDATASIZE PUSH1 0x4 PUSH2 0xBE JUMP JUMPDEST PUSH2 0x473 JUMP JUMPDEST PUSH2 0x206 PUSH2 0x73 JUMP JUMPDEST DUP1 PUSH2 0x210 DUP2 PUSH2 0xDD JUMP JUMPDEST SUB SWAP1 RETURN JUMPDEST PUSH2 0x79 JUMP JUMPDEST PUSH1 0x0 DUP1 REVERT JUMPDEST PUSH2 0x22F SWAP1 PUSH2 0x22A PUSH2 0x501 JUMP JUMPDEST PUSH2 0x268 JUMP JUMPDEST JUMP JUMPDEST SWAP1 JUMP JUMPDEST PUSH2 0x248 PUSH2 0x243 PUSH2 0x24D SWAP3 PUSH2 0x83 JUMP JUMPDEST PUSH2 0x231 JUMP JUMPDEST PUSH2 0x83 JUMP JUMPDEST SWAP1 JUMP JUMPDEST PUSH2 0x259 SWAP1 PUSH2 0x234 JUMP JUMPDEST SWAP1 JUMP JUMPDEST PUSH2 0x265 SWAP1 PUSH2 0x250 JUMP JUMPDEST SWAP1 JUMP JUMPDEST PUSH2 0x271 DUP2 PUSH2 0x61B JUMP JUMPDEST PUSH2 0x29B PUSH32 0xBC7CD75A20EE27FD9ADEBAB32041F755214DBC6BFFA90CC0225B39DA2E5C2D3B SWAP2 PUSH2 0x25C JUMP JUMPDEST SWAP1 PUSH2 0x2A4 PUSH2 0x73 JUMP JUMPDEST DUP1 PUSH2 0x2AE DUP2 PUSH2 0xDD JUMP JUMPDEST SUB SWAP1 LOG2 JUMP JUMPDEST PUSH2 0x2BC SWAP1 PUSH2 0x21E JUMP JUMPDEST JUMP JUMPDEST PUSH1 0x0 SWAP1 JUMP JUMPDEST PUSH1 0x0 SHR SWAP1 JUMP JUMPDEST PUSH1 0x1 DUP1 PUSH1 0xA0 SHL SUB AND SWAP1 JUMP JUMPDEST PUSH2 0x2E0 PUSH2 0x2E5 SWAP2 PUSH2 0x2C3 JUMP JUMPDEST PUSH2 0x2C9 JUMP JUMPDEST SWAP1 JUMP JUMPDEST PUSH2 0x2F2 SWAP1 SLOAD PUSH2 0x2D4 JUMP JUMPDEST SWAP1 JUMP JUMPDEST PUSH2 0x2FD PUSH2 0x2BE JUMP JUMPDEST POP PUSH2 0x308 PUSH1 0x1 PUSH2 0x2E8 JUMP JUMPDEST SWAP1 JUMP JUMPDEST PUSH2 0x313 PUSH2 0x501 JUMP JUMPDEST PUSH2 0x31B PUSH2 0x348 JUMP JUMPDEST JUMP JUMPDEST SWAP1 JUMP JUMPDEST PUSH2 0x334 PUSH2 0x32F PUSH2 0x339 SWAP3 PUSH2 0x31D JUMP JUMPDEST PUSH2 0x231 JUMP JUMPDEST PUSH2 0x83 JUMP JUMPDEST SWAP1 JUMP JUMPDEST PUSH2 0x345 SWAP1 PUSH2 0x320 JUMP JUMPDEST SWAP1 JUMP JUMPDEST PUSH2 0x35A PUSH2 0x355 PUSH1 0x0 PUSH2 0x33C JUMP JUMPDEST PUSH2 0x639 JUMP JUMPDEST JUMP JUMPDEST PUSH2 0x364 PUSH2 0x30B JUMP JUMPDEST JUMP JUMPDEST PUSH2 0x36E PUSH2 0x2BE JUMP JUMPDEST POP PUSH2 0x379 PUSH1 0x0 PUSH2 0x2E8 JUMP JUMPDEST SWAP1 JUMP JUMPDEST PUSH2 0x38D SWAP1 PUSH2 0x388 PUSH2 0x501 JUMP JUMPDEST PUSH2 0x442 JUMP JUMPDEST JUMP JUMPDEST PUSH1 0x20 SWAP2 DUP2 MSTORE ADD SWAP1 JUMP JUMPDEST PUSH1 0x20 PUSH32 0x6464726573730000000000000000000000000000000000000000000000000000 SWAP2 PUSH32 0x4F776E61626C653A206E6577206F776E657220697320746865207A65726F2061 PUSH1 0x0 DUP3 ADD MSTORE ADD MSTORE JUMP JUMPDEST PUSH2 0x3F3 PUSH1 0x26 PUSH1 0x40 SWAP3 PUSH2 0x38F JUMP JUMPDEST PUSH2 0x3FC DUP2 PUSH2 0x398 JUMP JUMPDEST ADD SWAP1 JUMP JUMPDEST PUSH2 0x416 SWAP1 PUSH1 0x20 DUP2 ADD SWAP1 PUSH1 0x0 DUP2 DUP4 SUB SWAP2 ADD MSTORE PUSH2 0x3E6 JUMP JUMPDEST SWAP1 JUMP JUMPDEST ISZERO PUSH2 0x420 JUMPI JUMP JUMPDEST PUSH2 0x428 PUSH2 0x73 JUMP JUMPDEST PUSH3 0x461BCD PUSH1 0xE5 SHL DUP2 MSTORE DUP1 PUSH2 0x43E PUSH1 0x4 DUP3 ADD PUSH2 0x400 JUMP JUMPDEST SUB SWAP1 REVERT JUMPDEST PUSH2 0x471 SWAP1 PUSH2 0x46C DUP2 PUSH2 0x465 PUSH2 0x45F PUSH2 0x45A PUSH1 0x0 PUSH2 0x33C JUMP JUMPDEST PUSH2 0x8E JUMP JUMPDEST SWAP2 PUSH2 0x8E JUMP JUMPDEST EQ ISZERO PUSH2 0x419 JUMP JUMPDEST PUSH2 0x639 JUMP JUMPDEST JUMP JUMPDEST PUSH2 0x47C SWAP1 PUSH2 0x37C JUMP JUMPDEST JUMP JUMPDEST PUSH1 0x0 PUSH32 0x4F776E61626C653A2063616C6C6572206973206E6F7420746865206F776E6572 SWAP2 ADD MSTORE JUMP JUMPDEST PUSH2 0x4B2 PUSH1 0x20 DUP1 SWAP3 PUSH2 0x38F JUMP JUMPDEST PUSH2 0x4BB DUP2 PUSH2 0x47E JUMP JUMPDEST ADD SWAP1 JUMP JUMPDEST PUSH2 0x4D5 SWAP1 PUSH1 0x20 DUP2 ADD SWAP1 PUSH1 0x0 DUP2 DUP4 SUB SWAP2 ADD MSTORE PUSH2 0x4A6 JUMP JUMPDEST SWAP1 JUMP JUMPDEST ISZERO PUSH2 0x4DF JUMPI JUMP JUMPDEST PUSH2 0x4E7 PUSH2 0x73 JUMP JUMPDEST PUSH3 0x461BCD PUSH1 0xE5 SHL DUP2 MSTORE DUP1 PUSH2 0x4FD PUSH1 0x4 DUP3 ADD PUSH2 0x4BF JUMP JUMPDEST SUB SWAP1 REVERT JUMPDEST PUSH2 0x52B PUSH2 0x50C PUSH2 0x366 JUMP JUMPDEST PUSH2 0x525 PUSH2 0x51F PUSH2 0x51A PUSH2 0x69A JUMP JUMPDEST PUSH2 0x8E JUMP JUMPDEST SWAP2 PUSH2 0x8E JUMP JUMPDEST EQ PUSH2 0x4D8 JUMP JUMPDEST JUMP JUMPDEST PUSH1 0x20 PUSH32 0x6E206973206E6F74206120636F6E747261637400000000000000000000000000 SWAP2 PUSH32 0x5570677261646561626C65426561636F6E3A20696D706C656D656E746174696F PUSH1 0x0 DUP3 ADD MSTORE ADD MSTORE JUMP JUMPDEST PUSH2 0x588 PUSH1 0x33 PUSH1 0x40 SWAP3 PUSH2 0x38F JUMP JUMPDEST PUSH2 0x591 DUP2 PUSH2 0x52D JUMP JUMPDEST ADD SWAP1 JUMP JUMPDEST PUSH2 0x5AB SWAP1 PUSH1 0x20 DUP2 ADD SWAP1 PUSH1 0x0 DUP2 DUP4 SUB SWAP2 ADD MSTORE PUSH2 0x57B JUMP JUMPDEST SWAP1 JUMP JUMPDEST ISZERO PUSH2 0x5B5 JUMPI JUMP JUMPDEST PUSH2 0x5BD PUSH2 0x73 JUMP JUMPDEST PUSH3 0x461BCD PUSH1 0xE5 SHL DUP2 MSTORE DUP1 PUSH2 0x5D3 PUSH1 0x4 DUP3 ADD PUSH2 0x595 JUMP JUMPDEST SUB SWAP1 REVERT JUMPDEST PUSH1 0x0 SHL SWAP1 JUMP JUMPDEST SWAP1 PUSH2 0x5EE PUSH1 0x1 DUP1 PUSH1 0xA0 SHL SUB SWAP2 PUSH2 0x5D7 JUMP JUMPDEST SWAP2 DUP2 NOT AND SWAP2 AND OR SWAP1 JUMP JUMPDEST SWAP1 JUMP JUMPDEST SWAP1 PUSH2 0x610 PUSH2 0x60B PUSH2 0x617 SWAP3 PUSH2 0x25C JUMP JUMPDEST PUSH2 0x5F8 JUMP JUMPDEST DUP3 SLOAD PUSH2 0x5DD JUMP JUMPDEST SWAP1 SSTORE JUMP JUMPDEST PUSH2 0x637 SWAP1 PUSH2 0x630 PUSH2 0x62B DUP3 PUSH2 0x6CB JUMP JUMPDEST PUSH2 0x5AE JUMP JUMPDEST PUSH1 0x1 PUSH2 0x5FB JUMP JUMPDEST JUMP JUMPDEST PUSH2 0x643 PUSH1 0x0 PUSH2 0x2E8 JUMP JUMPDEST PUSH2 0x64E DUP3 PUSH1 0x0 PUSH2 0x5FB JUMP JUMPDEST SWAP1 PUSH2 0x682 PUSH2 0x67C PUSH32 0x8BE0079C531659141344CD1FD0A4F28419497F9722A3DAAFE3B4186F6B6457E0 SWAP4 PUSH2 0x25C JUMP JUMPDEST SWAP2 PUSH2 0x25C JUMP JUMPDEST SWAP2 PUSH2 0x68B PUSH2 0x73 JUMP JUMPDEST DUP1 PUSH2 0x695 DUP2 PUSH2 0xDD JUMP JUMPDEST SUB SWAP1 LOG3 JUMP JUMPDEST PUSH2 0x6A2 PUSH2 0x2BE JUMP JUMPDEST POP CALLER SWAP1 JUMP JUMPDEST PUSH1 0x0 SWAP1 JUMP JUMPDEST SWAP1 JUMP JUMPDEST PUSH2 0x6C3 PUSH2 0x6BE PUSH2 0x6C8 SWAP3 PUSH2 0x31D JUMP JUMPDEST PUSH2 0x231 JUMP JUMPDEST PUSH2 0x6AC JUMP JUMPDEST SWAP1 JUMP JUMPDEST PUSH2 0x6D3 PUSH2 0x6A7 JUMP JUMPDEST POP EXTCODESIZE PUSH2 0x6E8 PUSH2 0x6E2 PUSH1 0x0 PUSH2 0x6AF JUMP JUMPDEST SWAP2 PUSH2 0x6AC JUMP JUMPDEST GT SWAP1 JUMP INVALID LOG2 PUSH5 0x6970667358 0x22 SLT KECCAK256 EXTCODEHASH 0xBF SWAP5 0xB3 0xAA XOR 0x2E PUSH18 0x20F7EE578F52EECCE106FBE2A323E7E4F151 SAR SWAP16 0x27 PUSH23 0x8EAD64736F6C634300081B003300000000000000000000 "
        },
        "methodIdentifiers": {
          "implementation()": "5c60da1b",
          "owner()": "8da5cb5b",
          "renounceOwnership()": "715018a6",
          "transferOwnership(address)": "f2fde38b",
          "upgradeTo(address)": "3659cfe6"
        }
      },
      "userdoc": {
        "kind": "user",
        "methods": {},
        "version": 1
      }
    }
  }
}