{
  "src/tokens/ERC721/utility/sale/ERC721Sale.sol": {
    "ERC721Sale": {
      "abi": [
        {
          "inputs": [
            {
              "internalType": "address",
              "name": "currency",
              "type": "address"
            },
            {
              "internalType": "uint256",
              "name": "expected",
              "type": "uint256"
            },
            {
              "internalType": "uint256",
              "name": "actual",
              "type": "uint256"
            }
          ],
          "name": "InsufficientPayment",
          "type": "error"
        },
        {
          "inputs": [
            {
              "internalType": "uint256",
              "name": "remainingSupply",
              "type": "uint256"
            },
            {
              "internalType": "uint256",
              "name": "amount",
              "type": "uint256"
            }
          ],
          "name": "InsufficientSupply",
          "type": "error"
        },
        {
          "inputs": [],
          "name": "InvalidInitialization",
          "type": "error"
        },
        {
          "inputs": [],
          "name": "InvalidSaleDetails",
          "type": "error"
        },
        {
          "inputs": [
            {
              "internalType": "bytes32",
              "name": "root",
              "type": "bytes32"
            },
            {
              "internalType": "bytes32[]",
              "name": "proof",
              "type": "bytes32[]"
            },
            {
              "internalType": "address",
              "name": "addr",
              "type": "address"
            },
            {
              "internalType": "bytes32",
              "name": "salt",
              "type": "bytes32"
            }
          ],
          "name": "MerkleProofInvalid",
          "type": "error"
        },
        {
          "inputs": [],
          "name": "SaleInactive",
          "type": "error"
        },
        {
          "inputs": [],
          "name": "WithdrawFailed",
          "type": "error"
        },
        {
          "anonymous": false,
          "inputs": [
            {
              "indexed": false,
              "internalType": "address",
              "name": "to",
              "type": "address"
            },
            {
              "indexed": false,
              "internalType": "uint256",
              "name": "amount",
              "type": "uint256"
            }
          ],
          "name": "ItemsMinted",
          "type": "event"
        },
        {
          "anonymous": false,
          "inputs": [
            {
              "indexed": true,
              "internalType": "bytes32",
              "name": "role",
              "type": "bytes32"
            },
            {
              "indexed": true,
              "internalType": "bytes32",
              "name": "previousAdminRole",
              "type": "bytes32"
            },
            {
              "indexed": true,
              "internalType": "bytes32",
              "name": "newAdminRole",
              "type": "bytes32"
            }
          ],
          "name": "RoleAdminChanged",
          "type": "event"
        },
        {
          "anonymous": false,
          "inputs": [
            {
              "indexed": true,
              "internalType": "bytes32",
              "name": "role",
              "type": "bytes32"
            },
            {
              "indexed": true,
              "internalType": "address",
              "name": "account",
              "type": "address"
            },
            {
              "indexed": true,
              "internalType": "address",
              "name": "sender",
              "type": "address"
            }
          ],
          "name": "RoleGranted",
          "type": "event"
        },
        {
          "anonymous": false,
          "inputs": [
            {
              "indexed": true,
              "internalType": "bytes32",
              "name": "role",
              "type": "bytes32"
            },
            {
              "indexed": true,
              "internalType": "address",
              "name": "account",
              "type": "address"
            },
            {
              "indexed": true,
              "internalType": "address",
              "name": "sender",
              "type": "address"
            }
          ],
          "name": "RoleRevoked",
          "type": "event"
        },
        {
          "anonymous": false,
          "inputs": [
            {
              "indexed": false,
              "internalType": "uint256",
              "name": "remainingSupply",
              "type": "uint256"
            },
            {
              "indexed": false,
              "internalType": "uint256",
              "name": "cost",
              "type": "uint256"
            },
            {
              "indexed": false,
              "internalType": "address",
              "name": "paymentToken",
              "type": "address"
            },
            {
              "indexed": false,
              "internalType": "uint64",
              "name": "startTime",
              "type": "uint64"
            },
            {
              "indexed": false,
              "internalType": "uint64",
              "name": "endTime",
              "type": "uint64"
            },
            {
              "indexed": false,
              "internalType": "bytes32",
              "name": "merkleRoot",
              "type": "bytes32"
            }
          ],
          "name": "SaleDetailsUpdated",
          "type": "event"
        },
        {
          "inputs": [],
          "name": "DEFAULT_ADMIN_ROLE",
          "outputs": [
            {
              "internalType": "bytes32",
              "name": "",
              "type": "bytes32"
            }
          ],
          "stateMutability": "view",
          "type": "function"
        },
        {
          "inputs": [
            {
              "internalType": "address",
              "name": "wallet",
              "type": "address"
            },
            {
              "components": [
                {
                  "internalType": "address",
                  "name": "approvedSigner",
                  "type": "address"
                },
                {
                  "internalType": "bytes4",
                  "name": "identityType",
                  "type": "bytes4"
                },
                {
                  "internalType": "bytes32",
                  "name": "issuerHash",
                  "type": "bytes32"
                },
                {
                  "internalType": "bytes32",
                  "name": "audienceHash",
                  "type": "bytes32"
                },
                {
                  "internalType": "bytes",
                  "name": "applicationData",
                  "type": "bytes"
                },
                {
                  "components": [
                    {
                      "internalType": "string",
                      "name": "redirectUrl",
                      "type": "string"
                    },
                    {
                      "internalType": "uint64",
                      "name": "issuedAt",
                      "type": "uint64"
                    }
                  ],
                  "internalType": "struct AuthData",
                  "name": "authData",
                  "type": "tuple"
                }
              ],
              "internalType": "struct Attestation",
              "name": "attestation",
              "type": "tuple"
            },
            {
              "components": [
                {
                  "internalType": "address",
                  "name": "to",
                  "type": "address"
                },
                {
                  "internalType": "uint256",
                  "name": "value",
                  "type": "uint256"
                },
                {
                  "internalType": "bytes",
                  "name": "data",
                  "type": "bytes"
                },
                {
                  "internalType": "uint256",
                  "name": "gasLimit",
                  "type": "uint256"
                },
                {
                  "internalType": "bool",
                  "name": "delegateCall",
                  "type": "bool"
                },
                {
                  "internalType": "bool",
                  "name": "onlyFallback",
                  "type": "bool"
                },
                {
                  "internalType": "uint256",
                  "name": "behaviorOnError",
                  "type": "uint256"
                }
              ],
              "internalType": "struct Payload.Call",
              "name": "call",
              "type": "tuple"
            }
          ],
          "name": "acceptImplicitRequest",
          "outputs": [
            {
              "internalType": "bytes32",
              "name": "",
              "type": "bytes32"
            }
          ],
          "stateMutability": "view",
          "type": "function"
        },
        {
          "inputs": [
            {
              "internalType": "bytes32",
              "name": "root",
              "type": "bytes32"
            },
            {
              "internalType": "bytes32[]",
              "name": "proof",
              "type": "bytes32[]"
            },
            {
              "internalType": "address",
              "name": "addr",
              "type": "address"
            },
            {
              "internalType": "bytes32",
              "name": "salt",
              "type": "bytes32"
            }
          ],
          "name": "checkMerkleProof",
          "outputs": [
            {
              "internalType": "bool",
              "name": "",
              "type": "bool"
            }
          ],
          "stateMutability": "view",
          "type": "function"
        },
        {
          "inputs": [
            {
              "internalType": "bytes32",
              "name": "role",
              "type": "bytes32"
            }
          ],
          "name": "getRoleAdmin",
          "outputs": [
            {
              "internalType": "bytes32",
              "name": "",
              "type": "bytes32"
            }
          ],
          "stateMutability": "view",
          "type": "function"
        },
        {
          "inputs": [
            {
              "internalType": "bytes32",
              "name": "role",
              "type": "bytes32"
            },
            {
              "internalType": "uint256",
              "name": "index",
              "type": "uint256"
            }
          ],
          "name": "getRoleMember",
          "outputs": [
            {
              "internalType": "address",
              "name": "",
              "type": "address"
            }
          ],
          "stateMutability": "view",
          "type": "function"
        },
        {
          "inputs": [
            {
              "internalType": "bytes32",
              "name": "role",
              "type": "bytes32"
            }
          ],
          "name": "getRoleMemberCount",
          "outputs": [
            {
              "internalType": "uint256",
              "name": "",
              "type": "uint256"
            }
          ],
          "stateMutability": "view",
          "type": "function"
        },
        {
          "inputs": [
            {
              "internalType": "bytes32",
              "name": "role",
              "type": "bytes32"
            },
            {
              "internalType": "address",
              "name": "account",
              "type": "address"
            }
          ],
          "name": "grantRole",
          "outputs": [],
          "stateMutability": "nonpayable",
          "type": "function"
        },
        {
          "inputs": [
            {
              "internalType": "bytes32",
              "name": "role",
              "type": "bytes32"
            },
            {
              "internalType": "address",
              "name": "account",
              "type": "address"
            }
          ],
          "name": "hasRole",
          "outputs": [
            {
              "internalType": "bool",
              "name": "",
              "type": "bool"
            }
          ],
          "stateMutability": "view",
          "type": "function"
        },
        {
          "inputs": [
            {
              "internalType": "address",
              "name": "owner",
              "type": "address"
            },
            {
              "internalType": "address",
              "name": "items",
              "type": "address"
            },
            {
              "internalType": "address",
              "name": "implicitModeValidator",
              "type": "address"
            },
            {
              "internalType": "bytes32",
              "name": "implicitModeProjectId",
              "type": "bytes32"
            }
          ],
          "name": "initialize",
          "outputs": [],
          "stateMutability": "nonpayable",
          "type": "function"
        },
        {
          "inputs": [],
          "name": "itemsContract",
          "outputs": [
            {
              "internalType": "address",
              "name": "",
              "type": "address"
            }
          ],
          "stateMutability": "view",
          "type": "function"
        },
        {
          "inputs": [
            {
              "internalType": "address",
              "name": "to",
              "type": "address"
            },
            {
              "internalType": "uint256",
              "name": "amount",
              "type": "uint256"
            },
            {
              "internalType": "address",
              "name": "paymentToken",
              "type": "address"
            },
            {
              "internalType": "uint256",
              "name": "maxTotal",
              "type": "uint256"
            },
            {
              "internalType": "bytes32[]",
              "name": "proof",
              "type": "bytes32[]"
            }
          ],
          "name": "mint",
          "outputs": [],
          "stateMutability": "payable",
          "type": "function"
        },
        {
          "inputs": [
            {
              "internalType": "bytes32",
              "name": "role",
              "type": "bytes32"
            },
            {
              "internalType": "address",
              "name": "account",
              "type": "address"
            }
          ],
          "name": "renounceRole",
          "outputs": [],
          "stateMutability": "nonpayable",
          "type": "function"
        },
        {
          "inputs": [
            {
              "internalType": "bytes32",
              "name": "role",
              "type": "bytes32"
            },
            {
              "internalType": "address",
              "name": "account",
              "type": "address"
            }
          ],
          "name": "revokeRole",
          "outputs": [],
          "stateMutability": "nonpayable",
          "type": "function"
        },
        {
          "inputs": [],
          "name": "saleDetails",
          "outputs": [
            {
              "components": [
                {
                  "internalType": "uint256",
                  "name": "remainingSupply",
                  "type": "uint256"
                },
                {
                  "internalType": "uint256",
                  "name": "cost",
                  "type": "uint256"
                },
                {
                  "internalType": "address",
                  "name": "paymentToken",
                  "type": "address"
                },
                {
                  "internalType": "uint64",
                  "name": "startTime",
                  "type": "uint64"
                },
                {
                  "internalType": "uint64",
                  "name": "endTime",
                  "type": "uint64"
                },
                {
                  "internalType": "bytes32",
                  "name": "merkleRoot",
                  "type": "bytes32"
                }
              ],
              "internalType": "struct IERC721SaleFunctions.SaleDetails",
              "name": "",
              "type": "tuple"
            }
          ],
          "stateMutability": "view",
          "type": "function"
        },
        {
          "inputs": [
            {
              "internalType": "bytes32",
              "name": "projectId",
              "type": "bytes32"
            }
          ],
          "name": "setImplicitModeProjectId",
          "outputs": [],
          "stateMutability": "nonpayable",
          "type": "function"
        },
        {
          "inputs": [
            {
              "internalType": "address",
              "name": "validator",
              "type": "address"
            }
          ],
          "name": "setImplicitModeValidator",
          "outputs": [],
          "stateMutability": "nonpayable",
          "type": "function"
        },
        {
          "inputs": [
            {
              "internalType": "uint256",
              "name": "remainingSupply",
              "type": "uint256"
            },
            {
              "internalType": "uint256",
              "name": "cost",
              "type": "uint256"
            },
            {
              "internalType": "address",
              "name": "paymentToken",
              "type": "address"
            },
            {
              "internalType": "uint64",
              "name": "startTime",
              "type": "uint64"
            },
            {
              "internalType": "uint64",
              "name": "endTime",
              "type": "uint64"
            },
            {
              "internalType": "bytes32",
              "name": "merkleRoot",
              "type": "bytes32"
            }
          ],
          "name": "setSaleDetails",
          "outputs": [],
          "stateMutability": "nonpayable",
          "type": "function"
        },
        {
          "inputs": [
            {
              "internalType": "bytes4",
              "name": "interfaceId",
              "type": "bytes4"
            }
          ],
          "name": "supportsInterface",
          "outputs": [
            {
              "internalType": "bool",
              "name": "",
              "type": "bool"
            }
          ],
          "stateMutability": "view",
          "type": "function"
        },
        {
          "inputs": [
            {
              "internalType": "address",
              "name": "token",
              "type": "address"
            },
            {
              "internalType": "address",
              "name": "to",
              "type": "address"
            },
            {
              "internalType": "uint256",
              "name": "value",
              "type": "uint256"
            }
          ],
          "name": "withdrawERC20",
          "outputs": [],
          "stateMutability": "nonpayable",
          "type": "function"
        },
        {
          "inputs": [
            {
              "internalType": "address",
              "name": "to",
              "type": "address"
            },
            {
              "internalType": "uint256",
              "name": "value",
              "type": "uint256"
            }
          ],
          "name": "withdrawETH",
          "outputs": [],
          "stateMutability": "nonpayable",
          "type": "function"
        }
      ],
      "devdoc": {
        "errors": {
          "InsufficientPayment(address,uint256,uint256)": [
            {
              "params": {
                "actual": "Actual amount of tokens.",
                "currency": "Currency address. address(0) indicates ETH.",
                "expected": "Expected amount of tokens."
              }
            }
          ],
          "InsufficientSupply(uint256,uint256)": [
            {
              "params": {
                "amount": "Amount to mint.",
                "remainingSupply": "Remaining supply."
              }
            }
          ],
          "MerkleProofInvalid(bytes32,bytes32[],address,bytes32)": [
            {
              "params": {
                "addr": "Address to check.",
                "proof": "Merkle proof.",
                "root": "Merkle root.",
                "salt": "Salt used to generate the merkle leaf."
              }
            }
          ]
        },
        "events": {
          "RoleAdminChanged(bytes32,bytes32,bytes32)": {
            "details": "Emitted when `newAdminRole` is set as ``role``'s admin role, replacing `previousAdminRole` `DEFAULT_ADMIN_ROLE` is the starting admin for all roles, despite {RoleAdminChanged} not being emitted signaling this. _Available since v3.1._"
          },
          "RoleGranted(bytes32,address,address)": {
            "details": "Emitted when `account` is granted `role`. `sender` is the account that originated the contract call, an admin role bearer except when using {AccessControl-_setupRole}."
          },
          "RoleRevoked(bytes32,address,address)": {
            "details": "Emitted when `account` is revoked `role`. `sender` is the account that originated the contract call:   - if using `revokeRole`, it is the admin role bearer   - if using `renounceRole`, it is the role bearer (i.e. `account`)"
          }
        },
        "kind": "dev",
        "methods": {
          "acceptImplicitRequest(address,(address,bytes4,bytes32,bytes32,bytes,(string,uint64)),(address,uint256,bytes,uint256,bool,bool,uint256))": {
            "params": {
              "attestation": "The attestation data",
              "call": "The call to validate",
              "wallet": "The wallet's address"
            },
            "returns": {
              "_0": "The hash of the implicit request if valid"
            }
          },
          "checkMerkleProof(bytes32,bytes32[],address,bytes32)": {
            "params": {
              "addr": "Address to check.",
              "proof": "Merkle proof.",
              "root": "Merkle root.",
              "salt": "Salt used to generate the merkle leaf."
            },
            "returns": {
              "_0": "True if the proof is valid and has not yet been used by {addr}."
            }
          },
          "getRoleAdmin(bytes32)": {
            "details": "Returns the admin role that controls `role`. See {grantRole} and {revokeRole}. To change a role's admin, use {_setRoleAdmin}."
          },
          "getRoleMember(bytes32,uint256)": {
            "details": "Returns one of the accounts that have `role`. `index` must be a value between 0 and {getRoleMemberCount}, non-inclusive. Role bearers are not sorted in any particular way, and their ordering may change at any point. WARNING: When using {getRoleMember} and {getRoleMemberCount}, make sure you perform all queries on the same block. See the following https://forum.openzeppelin.com/t/iterating-over-elements-on-enumerableset-in-openzeppelin-contracts/2296[forum post] for more information."
          },
          "getRoleMemberCount(bytes32)": {
            "details": "Returns the number of accounts that have `role`. Can be used together with {getRoleMember} to enumerate all bearers of a role."
          },
          "grantRole(bytes32,address)": {
            "details": "Grants `role` to `account`. If `account` had not been already granted `role`, emits a {RoleGranted} event. Requirements: - the caller must have ``role``'s admin role. May emit a {RoleGranted} event."
          },
          "hasRole(bytes32,address)": {
            "details": "Returns `true` if `account` has been granted `role`."
          },
          "initialize(address,address,address,bytes32)": {
            "details": "This should be called immediately after deployment.",
            "params": {
              "implicitModeProjectId": "Implicit session project id",
              "implicitModeValidator": "Implicit session validator address",
              "items": "The ERC-721 Items contract address",
              "owner": "The owner of the contract"
            }
          },
          "mint(address,uint256,address,uint256,bytes32[])": {
            "details": "An empty proof is supplied when no proof is required.`paymentToken` must match the `paymentToken` in the sale details.",
            "params": {
              "amount": "Amount of tokens to mint.",
              "maxTotal": "Maximum amount of payment tokens.",
              "paymentToken": "ERC20 token address to accept payment in. address(0) indicates ETH.",
              "proof": "Merkle proof for allowlist minting.",
              "to": "Address to mint tokens to."
            }
          },
          "renounceRole(bytes32,address)": {
            "details": "Revokes `role` from the calling account. Roles are often managed via {grantRole} and {revokeRole}: this function's purpose is to provide a mechanism for accounts to lose their privileges if they are compromised (such as when a trusted device is misplaced). If the calling account had been revoked `role`, emits a {RoleRevoked} event. Requirements: - the caller must be `account`. May emit a {RoleRevoked} event."
          },
          "revokeRole(bytes32,address)": {
            "details": "Revokes `role` from `account`. If `account` had been granted `role`, emits a {RoleRevoked} event. Requirements: - the caller must have ``role``'s admin role. May emit a {RoleRevoked} event."
          },
          "saleDetails()": {
            "returns": {
              "_0": "Sale details."
            }
          },
          "setImplicitModeProjectId(bytes32)": {
            "params": {
              "projectId": "The project id."
            }
          },
          "setImplicitModeValidator(address)": {
            "params": {
              "validator": "The validator address."
            }
          },
          "setSaleDetails(uint256,uint256,address,uint64,uint64,bytes32)": {
            "details": "A zero end time indicates an inactive sale.",
            "params": {
              "cost": "The amount of payment tokens to accept for each token minted.",
              "endTime": "The end time of the sale. Tokens cannot be minted after this time.",
              "merkleRoot": "The merkle root for allowlist minting.",
              "paymentToken": "The ERC20 token address to accept payment in. address(0) indicates ETH.",
              "remainingSupply": "The remaining number of tokens that can be minted by the items contract. 0 indicates unlimited supply.",
              "startTime": "The start time of the sale. Tokens cannot be minted before this time."
            }
          },
          "supportsInterface(bytes4)": {
            "params": {
              "interfaceId": "Interface id"
            },
            "returns": {
              "_0": "True if supported"
            }
          },
          "withdrawERC20(address,address,uint256)": {
            "params": {
              "to": "Address to withdraw to.",
              "token": "The ERC20 token address.",
              "value": "Amount to withdraw."
            }
          },
          "withdrawETH(address,uint256)": {
            "params": {
              "to": "Address to withdraw to.",
              "value": "Amount to withdraw."
            }
          }
        },
        "version": 1
      },
      "evm": {
        "bytecode": {
          "linkReferences": {},
          "object": "608060405234601c57600e6020565b613afe61002c8239613afe90f35b6026565b60405190565b600080fdfe60806040526004361015610013575b610ba7565b61001e60003561015d565b806301ffc9a7146101585780630668d0bb146101535780630bb310de1461014e578063248a9ca3146101495780632f2ff15d146101445780633474a4a61461013f57806336568abe1461013a57806344004cc1146101355780634782f7791461013057806363acc14d1461012b5780638c17030f146101265780639010d07c1461012157806391d148541461011c5780639d043a6614610117578063a217fddf14610112578063a971e8421461010d578063bad4366114610108578063ca15c87314610103578063d547741f146100fe5763ed4c2ac70361000e57610b74565b610b40565b610b0b565b610aaf565b610a17565b6109e2565b61096f565b6108a4565b61086e565b6107e3565b610723565b6106a8565b610646565b6105d7565b6105a2565b610499565b610436565b61039a565b61034b565b6101ef565b60e01c90565b60405190565b600080fd5b600080fd5b600080fd5b63ffffffff60e01b1690565b61018d81610178565b0361019457565b600080fd5b905035906101a682610184565b565b906020828203126101c2576101bf91600001610199565b90565b61016e565b151590565b6101d5906101c7565b9052565b91906101ed906000602085019401906101cc565b565b3461021f5761021b61020a6102053660046101a8565b610bb1565b610212610163565b918291826101d9565b0390f35b610169565b60018060a01b031690565b61023890610224565b90565b6102448161022f565b0361024b57565b600080fd5b9050359061025d8261023b565b565b90565b61026b8161025f565b0361027257565b600080fd5b9050359061028482610262565b565b600080fd5b600080fd5b600080fd5b909182601f830112156102cf5781359167ffffffffffffffff83116102ca5760200192602083028401116102c557565b610290565b61028b565b610286565b91909160a081840312610340576102ee8360008301610250565b926102fc8160208401610277565b9261030a8260408501610250565b926103188360608301610277565b92608082013567ffffffffffffffff811161033b576103379201610295565b9091565b610173565b61016e565b60000190565b6103656103593660046102d4565b94939093929192610d21565b61036d610163565b8061037781610345565b0390f35b906020828203126103955761039291600001610250565b90565b61016e565b346103c8576103b26103ad36600461037b565b610f69565b6103ba610163565b806103c481610345565b0390f35b610169565b90565b6103d9816103cd565b036103e057565b600080fd5b905035906103f2826103d0565b565b9060208282031261040e5761040b916000016103e5565b90565b61016e565b61041c906103cd565b9052565b919061043490600060208501940190610413565b565b346104665761046261045161044c3660046103f4565b610fc7565b610459610163565b91829182610420565b0390f35b610169565b9190604083820312610494578061048861049192600086016103e5565b93602001610250565b90565b61016e565b346104c8576104b26104ac36600461046b565b90611012565b6104ba610163565b806104c481610345565b0390f35b610169565b60009103126104d857565b61016e565b6104e69061025f565b9052565b6104f39061022f565b9052565b67ffffffffffffffff1690565b61050d906104f7565b9052565b61051a906103cd565b9052565b9060a08061058a93610538600082015160008601906104dd565b61054a602082015160208601906104dd565b61055c604082015160408601906104ea565b61056e60608201516060860190610504565b61058060808201516080860190610504565b0151910190610511565b565b91906105a090600060c0850194019061051e565b565b346105d2576105b23660046104cd565b6105ce6105bd61122e565b6105c5610163565b9182918261058c565b0390f35b610169565b34610606576105f06105ea36600461046b565b906112f7565b6105f8610163565b8061060281610345565b0390f35b610169565b90916060828403126106415761063e6106278460008501610250565b936106358160208601610250565b93604001610277565b90565b61016e565b346106755761065f61065936600461060b565b91611396565b610667610163565b8061067181610345565b0390f35b610169565b91906040838203126106a357806106976106a09260008601610250565b93602001610277565b90565b61016e565b346106d7576106c16106bb36600461067a565b9061149c565b6106c9610163565b806106d381610345565b0390f35b610169565b60808183031261071e576106f38260008301610250565b9261071b6107048460208501610250565b936107128160408601610250565b936060016103e5565b90565b61016e565b346107555761073f6107363660046106dc565b9291909161158a565b610747610163565b8061075181610345565b0390f35b610169565b610763816104f7565b0361076a57565b600080fd5b9050359061077c8261075a565b565b909160c0828403126107de576107978360008401610277565b926107a58160208501610277565b926107b38260408301610250565b926107db6107c4846060850161076f565b936107d2816080860161076f565b9360a0016103e5565b90565b61016e565b34610818576108026107f636600461077e565b94939093929192611a34565b61080a610163565b8061081481610345565b0390f35b610169565b9190604083820312610846578061083a61084392600086016103e5565b93602001610277565b90565b61016e565b6108549061022f565b9052565b919061086c9060006020850194019061084b565b565b3461089f5761089b61088a61088436600461081d565b90611a64565b610892610163565b91829182610858565b0390f35b610169565b346108d5576108d16108c06108ba36600461046b565b90611aa4565b6108c8610163565b918291826101d9565b0390f35b610169565b600080fd5b908160c09103126108ed5790565b6108da565b908160e09103126109005790565b6108da565b9160608383031261096a5761091d8260008501610250565b92602081013567ffffffffffffffff8111610965578361093e9183016108df565b92604082013567ffffffffffffffff81116109605761095d92016108f2565b90565b610173565b610173565b61016e565b346109a05761099c61098b610985366004610905565b91611dc7565b610993610163565b91829182610420565b0390f35b610169565b90565b60001b90565b6109c26109bd6109c7926109a5565b6109a8565b6103cd565b90565b6109d460006109ae565b90565b6109df6109ca565b90565b34610a12576109f23660046104cd565b610a0e6109fd6109d7565b610a05610163565b91829182610420565b0390f35b610169565b34610a4757610a273660046104cd565b610a43610a32611e68565b610a3a610163565b91829182610858565b0390f35b610169565b91608083830312610aaa57610a6482600085016103e5565b9260208101359167ffffffffffffffff8311610aa557610a8984610aa2948401610295565b939094610a998160408601610250565b936060016103e5565b90565b610173565b61016e565b34610ae357610adf610ace610ac5366004610a4c565b93929092611fa4565b610ad6610163565b918291826101d9565b0390f35b610169565b610af19061025f565b9052565b9190610b0990600060208501940190610ae8565b565b34610b3b57610b37610b26610b213660046103f4565b61204c565b610b2e610163565b91829182610af5565b0390f35b610169565b34610b6f57610b59610b5336600461046b565b9061209c565b610b61610163565b80610b6b81610345565b0390f35b610169565b34610ba257610b8c610b873660046103f4565b6120d0565b610b94610163565b80610b9e81610345565b0390f35b610169565b600080fd5b600090565b610bb9610bac565b5080610bd4610bce635f05bb8960e11b610178565b91610178565b148015610bf8575b908115610be8575b5090565b610bf29150612115565b38610be4565b50610c02816120db565b610bdc565b60081c90565b60018060a01b031690565b610c24610c2991610c07565b610c0d565b90565b610c369054610c18565b90565b90565b610c50610c4b610c5592610224565b610c39565b610224565b90565b610c6190610c3c565b90565b610c6d90610c58565b90565b610c7990610c3c565b90565b610c8590610c70565b90565b600080fd5b601f801991011690565b634e487b7160e01b600052604160045260246000fd5b90610cb790610c8d565b810190811067ffffffffffffffff821117610cd157604052565b610c97565b60e01b90565b6000910312610ce757565b61016e565b916020610d0e929493610d076040820196600083019061084b565b0190610ae8565b565b610d18610163565b3d6000823e3d90fd5b93610d34939591958693909192936122b6565b610d4e610d49610d446005610c2c565b610c64565b610c7c565b632e73e0fd828492803b15610eae57610d7b60008094610d86610d6f610163565b97889687958694610cd6565b845260048401610cec565b03925af19081610e81575b5015600014610e7c576001610dde575b5b907ff32d98590495ee51bacb93809409a188e7ab8268b70b4c969d9da3a883c539f791610dd9610dd0610163565b92839283610cec565b0390a1565b610df8610df3610dee6005610c2c565b610c64565b610c7c565b6340c10f19828492803b15610e7757610e2560008094610e30610e19610163565b97889687958694610cd6565b845260048401610cec565b03925af18015610e7257610e45575b50610da1565b610e659060003d8111610e6b575b610e5d8183610cad565b810190610cdc565b38610e3f565b503d610e53565b610d10565b610c88565b610da2565b610ea19060003d8111610ea7575b610e998183610cad565b810190610cdc565b38610d91565b503d610e8f565b610c88565b7f70649ec320b507febad3e8ef750e5f580b9ae32f9f50d4c7b121332c8197153090565b610ef090610eeb610ee6610eb3565b61251a565b610f54565b565b610efb90610c3c565b90565b610f0790610ef2565b90565b90610f1b60018060a01b03916109a8565b9181191691161790565b610f2e90610ef2565b90565b90565b90610f49610f44610f5092610f25565b610f31565b8254610f0a565b9055565b610f60610f6791610efe565b6003610f34565b565b610f7290610ed7565b565b600090565b610f82906103cd565b90565b90610f8f90610f79565b600052602052604060002090565b60001c90565b90565b610fb2610fb791610f9d565b610fa3565b90565b610fc49054610fa6565b90565b6001610fe0610fe692610fd8610f74565b506000610f85565b01610fba565b90565b9061100491610fff610ffa82610fc7565b61251a565b611006565b565b906110109161252e565b565b9061101c91610fe9565b565b9061103161102a610163565b9283610cad565b565b61103d60c061101e565b90565b600090565b600090565b600090565b600090565b61105c611033565b90602080808080808761106d611040565b815201611078611040565b815201611083611045565b81520161108e61104a565b81520161109961104a565b8152016110a461104f565b81525050565b6110b2611054565b90565b90565b6110c46110c991610f9d565b6110b5565b90565b6110d690546110b8565b90565b906110e39061025f565b9052565b6110f36110f891610f9d565b610c0d565b90565b61110590546110e7565b90565b906111129061022f565b9052565b60a01c90565b67ffffffffffffffff1690565b61113561113a91611116565b61111c565b90565b6111479054611129565b90565b90611154906104f7565b9052565b61116461116991610f9d565b61111c565b90565b6111769054611158565b90565b90611183906103cd565b9052565b906112206112176004611198611033565b946111b16111a8600083016110cc565b600088016110d9565b6111c96111c0600183016110cc565b602088016110d9565b6111e16111d8600283016110fb565b60408801611108565b6111f96111f06002830161113d565b6060880161114a565b6112116112086003830161116c565b6080880161114a565b01610fba565b60a08401611179565b565b61122b90611187565b90565b6112366110aa565b506112416006611222565b90565b60209181520190565b60207f20726f6c657320666f722073656c660000000000000000000000000000000000917f416363657373436f6e74726f6c3a2063616e206f6e6c792072656e6f756e636560008201520152565b6112a8602f604092611244565b6112b18161124d565b0190565b6112cb906020810190600081830391015261129b565b90565b156112d557565b6112dd610163565b62461bcd60e51b8152806112f3600482016112b5565b0390fd5b906113249161131f8261131961131361130e612558565b61022f565b9161022f565b146112ce565b612565565b565b7f5d8e12c39142ff96d79d04d15d1ba1269e4fe57bb9d26f43523628b34ba108ec90565b90611365929161136061135b611326565b61251a565b61137f565b565b61137090610c3c565b90565b61137c90611367565b90565b9161138c61139493611373565b9190916125c0565b565b906113a1929161134a565b565b906113bd916113b86113b3611326565b61251a565b61144a565b565b905090565b6113d0600080926113bf565b0190565b6113dd906113c4565b90565b67ffffffffffffffff81116113fe576113fa602091610c8d565b0190565b610c97565b90611415611410836113e0565b61101e565b918252565b606090565b3d60001461143c576114303d611403565b903d6000602084013e5b565b61144461141a565b9061143a565b60006114799281929061145b610163565b9081611466816113d4565b03925af161147261141f565b50156101c7565b61147f57565b6000631d42c86760e21b81528061149860048201610345565b0390fd5b906114a6916113a3565b565b60ff1690565b6114ba6114bf91610f9d565b6114a8565b90565b6114cc90546114ae565b90565b60081b90565b906114e8610100600160a81b03916114cf565b9181191691161790565b6114fb90610c70565b90565b90565b9061151661151161151d926114f2565b6114fe565b82546114d5565b9055565b7f4c02318d8c3aadc98ccf18aebbf3126f651e0c3f6a1de5ff8edcf6724a2ad5c290565b9061155160ff916109a8565b9181191691161790565b611564906101c7565b90565b90565b9061157f61157a6115869261155b565b611567565b8254611545565b9055565b92909261159760056114c2565b6115f5576115a96115e7946005611501565b6115bb6115b46109ca565b829061252e565b6115cd6115c6611521565b829061252e565b6115df6115d8611326565b829061252e565b91909161260b565b6115f36001600561156a565b565b600063f92ee8a960e01b81528061160e60048201610345565b0390fd5b90611630959493929161162b611626611521565b61251a565b6118fd565b565b61164661164161164b926104f7565b610c39565b61025f565b90565b61166261165d611667926109a5565b610c39565b61025f565b90565b61167460c061101e565b90565b611681905161025f565b90565b90611691600019916109a8565b9181191691161790565b6116af6116aa6116b49261025f565b610c39565b61025f565b90565b90565b906116cf6116ca6116d69261169b565b6116b7565b8254611684565b9055565b6116e4905161022f565b90565b906116fc6116f7611703926114f2565b6114fe565b8254610f0a565b9055565b61171190516104f7565b90565b60a01b90565b9061173067ffffffffffffffff60a01b91611714565b9181191691161790565b61174e611749611753926104f7565b610c39565b6104f7565b90565b90565b9061176e6117696117759261173a565b611756565b825461171a565b9055565b9061178c67ffffffffffffffff916109a8565b9181191691161790565b906117ab6117a66117b29261173a565b611756565b8254611779565b9055565b6117c090516103cd565b90565b6117cc90610f9d565b90565b906117e46117df6117eb92610f79565b6117c3565b8254611684565b9055565b9061188060a06004611886946118146000820161180e60008801611677565b906116ba565b61182d6001820161182760208801611677565b906116ba565b61184660028201611840604088016116da565b906116e7565b61185f6002820161185960608801611707565b90611759565b6118786003820161187260808801611707565b90611796565b0192016117b6565b906117cf565b565b90611892916117ef565b565b61189d906104f7565b9052565b91946118ea6118f4929897956118e060a0966118d66118fb9a6118cc60c08a019e60008b0190610ae8565b6020890190610ae8565b604087019061084b565b6060850190611894565b6080830190611894565b0190610413565b565b91939092948161191561190f886104f7565b916104f7565b108015611a19575b6119fc578261193561192f600061164e565b9161025f565b146119df57826119a16119da9461199a876119918a6119888d61197f8b936119768c9761196d61196361166a565b9b60008d016110d9565b60208b016110d9565b60408901611108565b6060870161114a565b6080850161114a565b60a08301611179565b6006611888565b9394959190917fabec13ca1773eed55d54d2f64593c33fa520ee45cac73a162f13928a2ebee233966119d1610163565b968796876118a1565b0390a1565b60006310ba94e960e31b8152806119f860048201610345565b0390fd5b60006310ba94e960e31b815280611a1560048201610345565b0390fd5b5081611a2d611a274261025f565b91611632565b111561191d565b90611a429594939291611612565b565b600090565b90611a5390610f79565b600052602052604060002090565b90565b90611a84611a7f611a8993611a77611a44565b506001611a49565b611a61565b61265b565b90565b90611a96906114f2565b600052602052604060002090565b611acb916000611ac0611ac693611ab9610bac565b5082610f85565b01611a8c565b6114c2565b90565b60018060a01b031690565b611ae5611aea91610f9d565b611ace565b90565b611af79054611ad9565b90565b611b0390610c70565b90565b90505190611b13826103d0565b565b90602082820312611b2f57611b2c91600001611b06565b90565b61016e565b50611b43906020810190610250565b90565b50611b55906020810190610199565b90565b611b6190610178565b9052565b50611b749060208101906103e5565b90565b600080fd5b600080fd5b600080fd5b9035600160200382360303811215611bc757016020813591019167ffffffffffffffff8211611bc2576001820236038313611bbd57565b611b7c565b611b77565b611b81565b60209181520190565b90826000939282370152565b9190611bfb81611bf481611c0095611bcc565b8095611bd5565b610c8d565b0190565b9035600160400382360303811215611c1a570190565b611b81565b9035600160200382360303811215611c6057016020813591019167ffffffffffffffff8211611c5b576001820236038313611c5657565b611b7c565b611b77565b611b81565b60209181520190565b9190611c8881611c8181611c8d95611c65565b8095611bd5565b610c8d565b0190565b50611ca090602081019061076f565b90565b90611ce1906020611cd9611ccf60408401611cc16000880188611c1f565b908683036000880152611c6e565b9482810190611c91565b910190610504565b90565b611d8e91611d80611d7560c08301611d0c611d026000870187611b34565b60008601906104ea565b611d26611d1c6020870187611b46565b6020860190611b58565b611d40611d366040870187611b65565b6040860190610511565b611d5a611d506060870187611b65565b6060860190610511565b611d676080860186611b86565b908583036080870152611be1565b9260a0810190611c04565b9060a0818403910152611ca3565b90565b939290611dbd604091611dc594611db0606089019260008a019061084b565b8782036020890152611ce4565b940190610413565b565b9150602090611dd4610f74565b50611de7611de26003611aed565b611afa565b611e13633808a90b949294611e1e611dff6004610fba565b611e07610163565b97889687958695610cd6565b855260048501611d91565b03915afa908115611e6357600091611e35575b5090565b611e56915060203d8111611e5c575b611e4e8183610cad565b810190611b15565b38611e31565b503d611e44565b610d10565b611e70611a44565b50611e7b6005610c2c565b90565b90611e88906114f2565b600052602052604060002090565b90611ea090610f79565b600052602052604060002090565b60601b90565b611ebd90611eae565b90565b611ec990611eb4565b90565b611ed8611edd9161022f565b611ec0565b9052565b90565b611ef0611ef5916103cd565b611ee1565b9052565b601481611f0c611f149360209695611ecc565b018092611ee4565b0190565b60200190565b5190565b67ffffffffffffffff8111611f3a5760208091020190565b610c97565b90929192611f54611f4f82611f22565b61101e565b9381855260208086019202830192818411611f9157915b838310611f785750505050565b60208091611f8684866103e5565b815201920191611f6b565b610290565b611fa1913691611f3f565b90565b9093929192611fb1610bac565b50611fd9611fd3611fce611fc760028790611e7e565b8590611e96565b6114c2565b156101c7565b9485611fe8575b505050505090565b61203d95509061201f6120389392959294612010612004610163565b93849260208401611ef9565b60208201810382520382610cad565b61203161202b82611f1e565b91611f18565b2093611f96565b612694565b3880808080611fe0565b600090565b61206b6120666120709261205e612047565b506001611a49565b611a61565b6126be565b90565b9061208e9161208961208482610fc7565b61251a565b612090565b565b9061209a91612565565b565b906120a691612073565b565b6120c1906120bc6120b7610eb3565b61251a565b6120c3565b565b6120ce9060046117cf565b565b6120d9906120a8565b565b6120e3610bac565b50806120f86120f26000610178565b91610178565b14908115612105575b5090565b61210f91506126de565b38612101565b61211d610bac565b50612127816126de565b908115612133575b5090565b61213d915061271e565b3861212f565b91602061216592949361215e60408201966000830190610ae8565b0190610ae8565b565b634e487b7160e01b600052601160045260246000fd5b61218c6121929193929361025f565b9261025f565b820391821161219d57565b612167565b600090565b6121b66121bc9193929361025f565b9261025f565b916121c883820261025f565b9281840414901517156121d757565b612167565b6121e59061164e565b9052565b60409061221361221a94969593966122096060840198600085019061084b565b6020830190610ae8565b01906121dc565b565b60409061224661224d949695939661223c6060840198600085019061084b565b6020830190610ae8565b0190610ae8565b565b61226361225e612268926109a5565b610c39565b610224565b90565b6122749061224f565b90565b61228090610c70565b90565b6040906122ad6122b494969593966122a36060840198600085019061084b565b60208301906121dc565b0190610ae8565b565b91939290926122f06122cb600260060161113d565b6122ea6122e46122de600360060161116c565b92611632565b91611632565b9061275e565b6124fd5761230160006006016110cc565b61231361230d8561025f565b9161025f565b106124d0578291612361916123426123739561233c600060060191612337836110cc565b61217d565b906116ba565b61234f6004600601610fba565b9190339161235b6121a2565b93612855565b61236e60016006016110cc565b6121a7565b918161239361238d61238860026006016110fb565b61022f565b9161022f565b036124a257806123ab6123a58561025f565b9161025f565b1061247f5750806123cd6123c76123c2600061226b565b61022f565b9161022f565b1460001461241257346123e86123e28461025f565b9161025f565b036123f25750505b565b61240e346000938493630f55e7df60e11b85526004850161221c565b0390fd5b9034612427612421600061164e565b9161025f565b1160001461245c57612439600061226b565b600090612458346000938493630f55e7df60e11b855260048501612283565b0390fd5b61246861247a92611373565b903361247330612277565b9192612928565b6123f0565b8261249e8391926000938493630f55e7df60e11b85526004850161221c565b0390fd5b826124b060026006016110fb565b6124cc600080938493630f55e7df60e11b8552600485016121e9565b0390fd5b826124de60006006016110cc565b6124f96000928392639e4c446160e01b845260048401612143565b0390fd5b6000630fe219dd60e21b81528061251660048201610345565b0390fd5b61252c90612526612558565b90612ae4565b565b9061255061254b61255593612544818590612b7d565b6001611a49565b611a61565b612c63565b50565b612560611a44565b503390565b9061258761258261258c9361257b818590612c9e565b6001611a49565b611a61565b612d37565b50565b61259890610c70565b90565b63ffffffff1690565b6125b86125b36125bd9261259b565b610cd6565b610178565b90565b916126046004926125f561260995936125dc63a9059cbb6125a4565b926125e5610163565b9687946020860190815201610cec565b60208201810382520383610cad565b612ee5565b565b90612621612626939261261c610eb3565b61252e565b612f52565b565b90565b61263761263c91610f9d565b61169b565b90565b61265361264e6126589261025f565b610c39565b610224565b90565b6126876126826126919361267d600061268c95612676611a44565b5001612628565b612fea565b61262b565b61263f565b610c70565b90565b6126ae6126ba92936126b4926126a8610bac565b5061303f565b926103cd565b916103cd565b1490565b6126d660006126db926126cf612047565b5001612628565b6130aa565b90565b6126e6610bac565b50806127016126fb635a05180f60e01b610178565b91610178565b1490811561270e575b5090565b61271891506130c2565b3861270a565b612726610bac565b508061274161273b634e821d3360e11b610178565b91610178565b1490811561274e575b5090565b61275891506120db565b3861274a565b612766610bac565b508161277b612775600061164e565b9161025f565b149081156127ae575b50908115612791575b5090565b90506127a66127a0429261025f565b9161025f565b10153861278d565b90506127c36127bd429261025f565b9161025f565b1038612784565b60209181520190565b600080fd5b9037565b9091826127e8916127ca565b9160018060fb1b03811161280b578291602061280792029384916127d8565b0190565b6127d3565b9061284161284c916128539698979560609561283460808701936000880190610413565b85830360208701526127dc565b96604083019061084b565b0190610413565b565b92938361287361286d61286860006109ae565b6103cd565b916103cd565b03612880575b5050505050565b61289861289285848689918693611fa4565b156101c7565b6128c857505050906128b96128be926128b46001936002611e7e565b611e96565b61156a565b3880808080612879565b846128f1918593949190916128db610163565b9586956304cb8cd560e31b875260048701612810565b0390fd5b60409061291f61292694969593966129156060840198600085019061084b565b602083019061084b565b0190610ae8565b565b612975939161296160049461297093946129456323b872dd6125a4565b93919091612951610163565b97889560208701908152016128f5565b60208201810382520383610cad565b612ee5565b565b90565b61298e61298961299392612977565b610c39565b61025f565b90565b905090565b60007f416363657373436f6e74726f6c3a206163636f756e7420000000000000000000910152565b6129cf60178092612996565b6129d88161299b565b0190565b5190565b60005b8381106129f4575050906000910152565b8060209183015181850152016129e3565b612a2a612a2192602092612a18816129dc565b94858093612996565b938491016129e0565b0190565b60007f206973206d697373696e6720726f6c6520000000000000000000000000000000910152565b612a6260118092612996565b612a6b81612a2e565b0190565b612a89612a949392612a83612a8e936129c3565b90612a05565b612a56565b90612a05565b90565b90565b612ab9612ac2602093612ac793612ab0816129dc565b93848093611244565b958691016129e0565b610c8d565b0190565b612ae19160208201916000818403910152612a9a565b90565b90612af9612af3838390611aa4565b156101c7565b612b01575050565b612b7991612b57612b30612b20612b1a612b5c95613155565b9361262b565b612b2a602061297a565b90613378565b91612b48612b3c610163565b93849260208401612a6f565b60208201810382520382610cad565b612a97565b612b64610163565b91829162461bcd60e51b835260048301612acb565b0390fd5b612b91612b8b828490611aa4565b156101c7565b612b9a575b5050565b612bbc6001612bb76000612baf818690610f85565b018590611a8c565b61156a565b90612bc5612558565b90612c02612bfc612bf67f2f8788117e7eff1d82e926ec794901d17c78024a50270940304540a733656f0d95610f79565b926114f2565b926114f2565b92612c0b610163565b80612c1581610345565b0390a43880612b96565b612c2890610c3c565b90565b612c3f612c3a612c4492610224565b610c39565b61025f565b90565b612c5b612c56612c609261025f565b6109a8565b6103cd565b90565b90612c96612c90612c8b612c866000612c9b96612c7e610bac565b500194612c1f565b612c2b565b612c47565b91612628565b613598565b90565b612ca9818390611aa4565b612cb2575b5050565b612cd46000612ccf6000612cc7818690610f85565b018590611a8c565b61156a565b90612cdd612558565b90612d1a612d14612d0e7ff6391f5c32d9c69d2a47ea670b442974b53935d1edc7fd64eb21e047a839171b95610f79565b926114f2565b926114f2565b92612d23610163565b80612d2d81610345565b0390a43880612cae565b90612d6a612d64612d5f612d5a6000612d6f96612d52610bac565b500194612c1f565b612c2b565b612c47565b91612628565b61368e565b90565b67ffffffffffffffff8111612d9057612d8c602091610c8d565b0190565b610c97565b90612da7612da283612d72565b61101e565b918252565b60007f5361666545524332303a206c6f772d6c6576656c2063616c6c206661696c6564910152565b612dde6020612d95565b90612deb60208301612dac565b565b612df5612dd4565b90565b612e01816101c7565b03612e0857565b600080fd5b90505190612e1a82612df8565b565b90602082820312612e3657612e3391600001612e0d565b90565b61016e565b60207f6f74207375636365656400000000000000000000000000000000000000000000917f5361666545524332303a204552433230206f7065726174696f6e20646964206e60008201520152565b612e96602a604092611244565b612e9f81612e3b565b0190565b612eb99060208101906000818303910152612e89565b90565b15612ec357565b612ecb610163565b62461bcd60e51b815280612ee160048201612ea3565b0390fd5b612f2f91612ef5612f049261258f565b90612efe612ded565b91613798565b612f0d81611f1e565b612f20612f1a600061164e565b9161025f565b14908115612f31575b50612ebc565b565b612f4c91506020612f4182611f1e565b818301019101612e1c565b38612f29565b90612f69612f62612f7093610efe565b6003610f34565b60046117cf565b565b634e487b7160e01b600052603260045260246000fd5b5490565b600052602060002090565b612fa081612f88565b821015612fbb57612fb2600191612f8c565b91020190600090565b612f72565b1c90565b612fd4906008612fd99302612fc0565b610fa3565b90565b90612fe79154612fc4565b90565b61300991600061300392612ffc610f74565b5001612f97565b90612fdc565b90565b6001613018910161025f565b90565b5190565b906130298261301b565b81101561303a576020809102010190565b612f72565b9190613049610f74565b50613054600061164e565b905b8161307161306b6130668761301b565b61025f565b9161025f565b10156130a35761309761309d9161309161308c87869061301f565b6117b6565b906137bb565b9161300c565b90613056565b9192505090565b60006130bf916130b8612047565b5001612f88565b90565b6130ca610bac565b50806130e56130df637965db0b60e01b610178565b91610178565b149081156130f2575b5090565b6130fc91506137fb565b386130ee565b606090565b90565b60ff1690565b61312461311f61312992613107565b610c39565b61310a565b90565b6131366014613110565b90565b61314d6131486131529261310a565b610c39565b61025f565b90565b61317261316d61318892613167613102565b50612c1f565b612c2b565b61318261317d61312c565b613139565b90613378565b90565b90565b6131a261319d6131a79261318b565b610c39565b61025f565b90565b6131b96131bf9193929361025f565b9261025f565b82018092116131ca57565b612167565b369037565b906131f96131e183611403565b926020806131ef86936113e0565b92019103906131cf565b565b600360fc1b90565b9061320d82611f1e565b81101561321f57600160209102010190565b612f72565b600f60fb1b90565b90565b61324361323e6132489261322c565b610c39565b61025f565b90565b6132549061025f565b60008114613263576001900390565b612167565b6f181899199a1a9b1b9c1cb0b131b232b360811b90565b613287613268565b90565b90565b6132a161329c6132a69261328a565b610c39565b61025f565b90565b60f81b90565b90565b6132c66132c16132cb926132af565b610c39565b61310a565b90565b6132ed906132e76132e16132f29461310a565b9161025f565b90612fc0565b61025f565b90565b60007f537472696e67733a20686578206c656e67746820696e73756666696369656e74910152565b61332960208092611244565b613332816132f5565b0190565b61334c906020810190600081830391015261331d565b90565b1561335657565b61335e610163565b62461bcd60e51b81528061337460048201613336565b0390fd5b9190613382613102565b5061341c61340c6133b86133b36133a3600261339e879161318e565b6121a7565b6133ad600261318e565b906131aa565b6131d4565b926133c16131fb565b6133da856133d460009360001a9361164e565b90613203565b536133e3613224565b6133fc856133f660019360001a9361322f565b90613203565b53613407600261318e565b6121a7565b613416600161322f565b906131aa565b925b8361343261342c600161322f565b9161025f565b11156134995761344061327f565b8161344b600f61328d565b16916010831015613494576134676134889261348e941a6132a9565b6134778591889060001a92613203565b5361348260046132b2565b906132ce565b9361324b565b9261341e565b612f72565b6134c19293506134bc906134b66134b0600061164e565b9161025f565b1461334f565b612a97565b90565b90565b600052602060002090565b5490565b6134df816134d2565b8210156134fa576134f16001916134c7565b91020190600090565b612f72565b1b90565b9190600861351f910291613519600019846134ff565b926134ff565b9181191691161790565b919061353f61353a61354793610f79565b6117c3565b908354613503565b9055565b908154916801000000000000000083101561357b5782613573916001613579950181556134d6565b90613529565b565b610c97565b9061358a90610f79565b600052602052604060002090565b6135a0610bac565b506135b56135af828490613821565b156101c7565b6000146135f8576135ee6135f3926135d96135d2600085016134c4565b829061354b565b60016135e760008501612f88565b9301613580565b6116ba565b600190565b5050600090565b634e487b7160e01b600052603160045260246000fd5b61362791613621610f74565b91613529565b565b613632816134d2565b801561365357600190039061365061364a83836134d6565b90613615565b55565b6135ff565b919061366e6136696136769361169b565b6116b7565b908354613503565b9055565b61368c91613686612047565b91613658565b565b613696610bac565b506136ad6136a8600183018490613580565b6110cc565b90816136c26136bc600061164e565b9161025f565b14156000146137905761374292600161373d92846136eb6000966136e58561322f565b9061217d565b6137086136f9888501612f88565b6137028661322f565b9061217d565b8061371b6137158461025f565b9161025f565b03613747575b5050506137376137328683016134c4565b613629565b01613580565b61367a565b600190565b6137889261377a613766613760613783948c8901612f97565b90612fdc565b9361377485918c8901612f97565b90613529565b91858501613580565b6116ba565b388080613721565b505050600090565b906137b892916137a661141a565b50906137b2600061164e565b9161390d565b90565b6137c3610f74565b50806137d76137d1846103cd565b916103cd565b106000146137ed57906137e991613967565b5b90565b6137f691613967565b6137ea565b613803610bac565b5061381d6138176301ffc9a760e01b610178565b91610178565b1490565b61383f91600161383a92613833610bac565b5001613580565b6110cc565b61385261384c600061164e565b9161025f565b141590565b61386090610c70565b90565b60207f722063616c6c0000000000000000000000000000000000000000000000000000917f416464726573733a20696e73756666696369656e742062616c616e636520666f60008201520152565b6138be6026604092611244565b6138c781613863565b0190565b6138e190602081019060008183039101526138b1565b90565b156138eb57565b6138f3610163565b62461bcd60e51b815280613909600482016138cb565b0390fd5b9160008091613964959361391f61141a565b5061394661392c30613857565b3161393f6139398561025f565b9161025f565b10156138e4565b8591602082019151925af19161395a61141f565b9092909192613a02565b90565b61396f610f74565b50600052602052604060002090565b60007f416464726573733a2063616c6c20746f206e6f6e2d636f6e7472616374000000910152565b6139b3601d602092611244565b6139bc8161397e565b0190565b6139d690602081019060008183039101526139a6565b90565b156139e057565b6139e8610163565b62461bcd60e51b8152806139fe600482016139c0565b0390fd5b919290613a0d61141a565b50600014613a535750613a1f82611f1e565b613a32613a2c600061164e565b9161025f565b14613a3c575b5090565b613a48613a4d91613aa7565b6139d9565b38613a38565b8290613a5e82611f1e565b613a71613a6b600061164e565b9161025f565b11600014613a825750805190602001fd5b613aa390613a8e610163565b91829162461bcd60e51b835260048301612acb565b0390fd5b613aaf610bac565b503b613ac4613abe600061164e565b9161025f565b119056fea2646970667358221220c204633b23276edd95aa322dbea2171da8b640438f81199e08fb87ec1d64aa7f64736f6c634300081b0033",
          "opcodes": "PUSH1 0x80 PUSH1 0x40 MSTORE CALLVALUE PUSH1 0x1C JUMPI PUSH1 0xE PUSH1 0x20 JUMP JUMPDEST PUSH2 0x3AFE PUSH2 0x2C DUP3 CODECOPY PUSH2 0x3AFE SWAP1 RETURN JUMPDEST PUSH1 0x26 JUMP JUMPDEST PUSH1 0x40 MLOAD SWAP1 JUMP JUMPDEST PUSH1 0x0 DUP1 REVERT INVALID PUSH1 0x80 PUSH1 0x40 MSTORE PUSH1 0x4 CALLDATASIZE LT ISZERO PUSH2 0x13 JUMPI JUMPDEST PUSH2 0xBA7 JUMP JUMPDEST PUSH2 0x1E PUSH1 0x0 CALLDATALOAD PUSH2 0x15D JUMP JUMPDEST DUP1 PUSH4 0x1FFC9A7 EQ PUSH2 0x158 JUMPI DUP1 PUSH4 0x668D0BB EQ PUSH2 0x153 JUMPI DUP1 PUSH4 0xBB310DE EQ PUSH2 0x14E JUMPI DUP1 PUSH4 0x248A9CA3 EQ PUSH2 0x149 JUMPI DUP1 PUSH4 0x2F2FF15D EQ PUSH2 0x144 JUMPI DUP1 PUSH4 0x3474A4A6 EQ PUSH2 0x13F JUMPI DUP1 PUSH4 0x36568ABE EQ PUSH2 0x13A JUMPI DUP1 PUSH4 0x44004CC1 EQ PUSH2 0x135 JUMPI DUP1 PUSH4 0x4782F779 EQ PUSH2 0x130 JUMPI DUP1 PUSH4 0x63ACC14D EQ PUSH2 0x12B JUMPI DUP1 PUSH4 0x8C17030F EQ PUSH2 0x126 JUMPI DUP1 PUSH4 0x9010D07C EQ PUSH2 0x121 JUMPI DUP1 PUSH4 0x91D14854 EQ PUSH2 0x11C JUMPI DUP1 PUSH4 0x9D043A66 EQ PUSH2 0x117 JUMPI DUP1 PUSH4 0xA217FDDF EQ PUSH2 0x112 JUMPI DUP1 PUSH4 0xA971E842 EQ PUSH2 0x10D JUMPI DUP1 PUSH4 0xBAD43661 EQ PUSH2 0x108 JUMPI DUP1 PUSH4 0xCA15C873 EQ PUSH2 0x103 JUMPI DUP1 PUSH4 0xD547741F EQ PUSH2 0xFE JUMPI PUSH4 0xED4C2AC7 SUB PUSH2 0xE JUMPI PUSH2 0xB74 JUMP JUMPDEST PUSH2 0xB40 JUMP JUMPDEST PUSH2 0xB0B JUMP JUMPDEST PUSH2 0xAAF JUMP JUMPDEST PUSH2 0xA17 JUMP JUMPDEST PUSH2 0x9E2 JUMP JUMPDEST PUSH2 0x96F JUMP JUMPDEST PUSH2 0x8A4 JUMP JUMPDEST PUSH2 0x86E JUMP JUMPDEST PUSH2 0x7E3 JUMP JUMPDEST PUSH2 0x723 JUMP JUMPDEST PUSH2 0x6A8 JUMP JUMPDEST PUSH2 0x646 JUMP JUMPDEST PUSH2 0x5D7 JUMP JUMPDEST PUSH2 0x5A2 JUMP JUMPDEST PUSH2 0x499 JUMP JUMPDEST PUSH2 0x436 JUMP JUMPDEST PUSH2 0x39A JUMP JUMPDEST PUSH2 0x34B JUMP JUMPDEST PUSH2 0x1EF JUMP JUMPDEST PUSH1 0xE0 SHR SWAP1 JUMP JUMPDEST PUSH1 0x40 MLOAD SWAP1 JUMP JUMPDEST PUSH1 0x0 DUP1 REVERT JUMPDEST PUSH1 0x0 DUP1 REVERT JUMPDEST PUSH1 0x0 DUP1 REVERT JUMPDEST PUSH4 0xFFFFFFFF PUSH1 0xE0 SHL AND SWAP1 JUMP JUMPDEST PUSH2 0x18D DUP2 PUSH2 0x178 JUMP JUMPDEST SUB PUSH2 0x194 JUMPI JUMP JUMPDEST PUSH1 0x0 DUP1 REVERT JUMPDEST SWAP1 POP CALLDATALOAD SWAP1 PUSH2 0x1A6 DUP3 PUSH2 0x184 JUMP JUMPDEST JUMP JUMPDEST SWAP1 PUSH1 0x20 DUP3 DUP3 SUB SLT PUSH2 0x1C2 JUMPI PUSH2 0x1BF SWAP2 PUSH1 0x0 ADD PUSH2 0x199 JUMP JUMPDEST SWAP1 JUMP JUMPDEST PUSH2 0x16E JUMP JUMPDEST ISZERO ISZERO SWAP1 JUMP JUMPDEST PUSH2 0x1D5 SWAP1 PUSH2 0x1C7 JUMP JUMPDEST SWAP1 MSTORE JUMP JUMPDEST SWAP2 SWAP1 PUSH2 0x1ED SWAP1 PUSH1 0x0 PUSH1 0x20 DUP6 ADD SWAP5 ADD SWAP1 PUSH2 0x1CC JUMP JUMPDEST JUMP JUMPDEST CALLVALUE PUSH2 0x21F JUMPI PUSH2 0x21B PUSH2 0x20A PUSH2 0x205 CALLDATASIZE PUSH1 0x4 PUSH2 0x1A8 JUMP JUMPDEST PUSH2 0xBB1 JUMP JUMPDEST PUSH2 0x212 PUSH2 0x163 JUMP JUMPDEST SWAP2 DUP3 SWAP2 DUP3 PUSH2 0x1D9 JUMP JUMPDEST SUB SWAP1 RETURN JUMPDEST PUSH2 0x169 JUMP JUMPDEST PUSH1 0x1 DUP1 PUSH1 0xA0 SHL SUB AND SWAP1 JUMP JUMPDEST PUSH2 0x238 SWAP1 PUSH2 0x224 JUMP JUMPDEST SWAP1 JUMP JUMPDEST PUSH2 0x244 DUP2 PUSH2 0x22F JUMP JUMPDEST SUB PUSH2 0x24B JUMPI JUMP JUMPDEST PUSH1 0x0 DUP1 REVERT JUMPDEST SWAP1 POP CALLDATALOAD SWAP1 PUSH2 0x25D DUP3 PUSH2 0x23B JUMP JUMPDEST JUMP JUMPDEST SWAP1 JUMP JUMPDEST PUSH2 0x26B DUP2 PUSH2 0x25F JUMP JUMPDEST SUB PUSH2 0x272 JUMPI JUMP JUMPDEST PUSH1 0x0 DUP1 REVERT JUMPDEST SWAP1 POP CALLDATALOAD SWAP1 PUSH2 0x284 DUP3 PUSH2 0x262 JUMP JUMPDEST JUMP JUMPDEST PUSH1 0x0 DUP1 REVERT JUMPDEST PUSH1 0x0 DUP1 REVERT JUMPDEST PUSH1 0x0 DUP1 REVERT JUMPDEST SWAP1 SWAP2 DUP3 PUSH1 0x1F DUP4 ADD SLT ISZERO PUSH2 0x2CF JUMPI DUP2 CALLDATALOAD SWAP2 PUSH8 0xFFFFFFFFFFFFFFFF DUP4 GT PUSH2 0x2CA JUMPI PUSH1 0x20 ADD SWAP3 PUSH1 0x20 DUP4 MUL DUP5 ADD GT PUSH2 0x2C5 JUMPI JUMP JUMPDEST PUSH2 0x290 JUMP JUMPDEST PUSH2 0x28B JUMP JUMPDEST PUSH2 0x286 JUMP JUMPDEST SWAP2 SWAP1 SWAP2 PUSH1 0xA0 DUP2 DUP5 SUB SLT PUSH2 0x340 JUMPI PUSH2 0x2EE DUP4 PUSH1 0x0 DUP4 ADD PUSH2 0x250 JUMP JUMPDEST SWAP3 PUSH2 0x2FC DUP2 PUSH1 0x20 DUP5 ADD PUSH2 0x277 JUMP JUMPDEST SWAP3 PUSH2 0x30A DUP3 PUSH1 0x40 DUP6 ADD PUSH2 0x250 JUMP JUMPDEST SWAP3 PUSH2 0x318 DUP4 PUSH1 0x60 DUP4 ADD PUSH2 0x277 JUMP JUMPDEST SWAP3 PUSH1 0x80 DUP3 ADD CALLDATALOAD PUSH8 0xFFFFFFFFFFFFFFFF DUP2 GT PUSH2 0x33B JUMPI PUSH2 0x337 SWAP3 ADD PUSH2 0x295 JUMP JUMPDEST SWAP1 SWAP2 JUMP JUMPDEST PUSH2 0x173 JUMP JUMPDEST PUSH2 0x16E JUMP JUMPDEST PUSH1 0x0 ADD SWAP1 JUMP JUMPDEST PUSH2 0x365 PUSH2 0x359 CALLDATASIZE PUSH1 0x4 PUSH2 0x2D4 JUMP JUMPDEST SWAP5 SWAP4 SWAP1 SWAP4 SWAP3 SWAP2 SWAP3 PUSH2 0xD21 JUMP JUMPDEST PUSH2 0x36D PUSH2 0x163 JUMP JUMPDEST DUP1 PUSH2 0x377 DUP2 PUSH2 0x345 JUMP JUMPDEST SUB SWAP1 RETURN JUMPDEST SWAP1 PUSH1 0x20 DUP3 DUP3 SUB SLT PUSH2 0x395 JUMPI PUSH2 0x392 SWAP2 PUSH1 0x0 ADD PUSH2 0x250 JUMP JUMPDEST SWAP1 JUMP JUMPDEST PUSH2 0x16E JUMP JUMPDEST CALLVALUE PUSH2 0x3C8 JUMPI PUSH2 0x3B2 PUSH2 0x3AD CALLDATASIZE PUSH1 0x4 PUSH2 0x37B JUMP JUMPDEST PUSH2 0xF69 JUMP JUMPDEST PUSH2 0x3BA PUSH2 0x163 JUMP JUMPDEST DUP1 PUSH2 0x3C4 DUP2 PUSH2 0x345 JUMP JUMPDEST SUB SWAP1 RETURN JUMPDEST PUSH2 0x169 JUMP JUMPDEST SWAP1 JUMP JUMPDEST PUSH2 0x3D9 DUP2 PUSH2 0x3CD JUMP JUMPDEST SUB PUSH2 0x3E0 JUMPI JUMP JUMPDEST PUSH1 0x0 DUP1 REVERT JUMPDEST SWAP1 POP CALLDATALOAD SWAP1 PUSH2 0x3F2 DUP3 PUSH2 0x3D0 JUMP JUMPDEST JUMP JUMPDEST SWAP1 PUSH1 0x20 DUP3 DUP3 SUB SLT PUSH2 0x40E JUMPI PUSH2 0x40B SWAP2 PUSH1 0x0 ADD PUSH2 0x3E5 JUMP JUMPDEST SWAP1 JUMP JUMPDEST PUSH2 0x16E JUMP JUMPDEST PUSH2 0x41C SWAP1 PUSH2 0x3CD JUMP JUMPDEST SWAP1 MSTORE JUMP JUMPDEST SWAP2 SWAP1 PUSH2 0x434 SWAP1 PUSH1 0x0 PUSH1 0x20 DUP6 ADD SWAP5 ADD SWAP1 PUSH2 0x413 JUMP JUMPDEST JUMP JUMPDEST CALLVALUE PUSH2 0x466 JUMPI PUSH2 0x462 PUSH2 0x451 PUSH2 0x44C CALLDATASIZE PUSH1 0x4 PUSH2 0x3F4 JUMP JUMPDEST PUSH2 0xFC7 JUMP JUMPDEST PUSH2 0x459 PUSH2 0x163 JUMP JUMPDEST SWAP2 DUP3 SWAP2 DUP3 PUSH2 0x420 JUMP JUMPDEST SUB SWAP1 RETURN JUMPDEST PUSH2 0x169 JUMP JUMPDEST SWAP2 SWAP1 PUSH1 0x40 DUP4 DUP3 SUB SLT PUSH2 0x494 JUMPI DUP1 PUSH2 0x488 PUSH2 0x491 SWAP3 PUSH1 0x0 DUP7 ADD PUSH2 0x3E5 JUMP JUMPDEST SWAP4 PUSH1 0x20 ADD PUSH2 0x250 JUMP JUMPDEST SWAP1 JUMP JUMPDEST PUSH2 0x16E JUMP JUMPDEST CALLVALUE PUSH2 0x4C8 JUMPI PUSH2 0x4B2 PUSH2 0x4AC CALLDATASIZE PUSH1 0x4 PUSH2 0x46B JUMP JUMPDEST SWAP1 PUSH2 0x1012 JUMP JUMPDEST PUSH2 0x4BA PUSH2 0x163 JUMP JUMPDEST DUP1 PUSH2 0x4C4 DUP2 PUSH2 0x345 JUMP JUMPDEST SUB SWAP1 RETURN JUMPDEST PUSH2 0x169 JUMP JUMPDEST PUSH1 0x0 SWAP2 SUB SLT PUSH2 0x4D8 JUMPI JUMP JUMPDEST PUSH2 0x16E JUMP JUMPDEST PUSH2 0x4E6 SWAP1 PUSH2 0x25F JUMP JUMPDEST SWAP1 MSTORE JUMP JUMPDEST PUSH2 0x4F3 SWAP1 PUSH2 0x22F JUMP JUMPDEST SWAP1 MSTORE JUMP JUMPDEST PUSH8 0xFFFFFFFFFFFFFFFF AND SWAP1 JUMP JUMPDEST PUSH2 0x50D SWAP1 PUSH2 0x4F7 JUMP JUMPDEST SWAP1 MSTORE JUMP JUMPDEST PUSH2 0x51A SWAP1 PUSH2 0x3CD JUMP JUMPDEST SWAP1 MSTORE JUMP JUMPDEST SWAP1 PUSH1 0xA0 DUP1 PUSH2 0x58A SWAP4 PUSH2 0x538 PUSH1 0x0 DUP3 ADD MLOAD PUSH1 0x0 DUP7 ADD SWAP1 PUSH2 0x4DD JUMP JUMPDEST PUSH2 0x54A PUSH1 0x20 DUP3 ADD MLOAD PUSH1 0x20 DUP7 ADD SWAP1 PUSH2 0x4DD JUMP JUMPDEST PUSH2 0x55C PUSH1 0x40 DUP3 ADD MLOAD PUSH1 0x40 DUP7 ADD SWAP1 PUSH2 0x4EA JUMP JUMPDEST PUSH2 0x56E PUSH1 0x60 DUP3 ADD MLOAD PUSH1 0x60 DUP7 ADD SWAP1 PUSH2 0x504 JUMP JUMPDEST PUSH2 0x580 PUSH1 0x80 DUP3 ADD MLOAD PUSH1 0x80 DUP7 ADD SWAP1 PUSH2 0x504 JUMP JUMPDEST ADD MLOAD SWAP2 ADD SWAP1 PUSH2 0x511 JUMP JUMPDEST JUMP JUMPDEST SWAP2 SWAP1 PUSH2 0x5A0 SWAP1 PUSH1 0x0 PUSH1 0xC0 DUP6 ADD SWAP5 ADD SWAP1 PUSH2 0x51E JUMP JUMPDEST JUMP JUMPDEST CALLVALUE PUSH2 0x5D2 JUMPI PUSH2 0x5B2 CALLDATASIZE PUSH1 0x4 PUSH2 0x4CD JUMP JUMPDEST PUSH2 0x5CE PUSH2 0x5BD PUSH2 0x122E JUMP JUMPDEST PUSH2 0x5C5 PUSH2 0x163 JUMP JUMPDEST SWAP2 DUP3 SWAP2 DUP3 PUSH2 0x58C JUMP JUMPDEST SUB SWAP1 RETURN JUMPDEST PUSH2 0x169 JUMP JUMPDEST CALLVALUE PUSH2 0x606 JUMPI PUSH2 0x5F0 PUSH2 0x5EA CALLDATASIZE PUSH1 0x4 PUSH2 0x46B JUMP JUMPDEST SWAP1 PUSH2 0x12F7 JUMP JUMPDEST PUSH2 0x5F8 PUSH2 0x163 JUMP JUMPDEST DUP1 PUSH2 0x602 DUP2 PUSH2 0x345 JUMP JUMPDEST SUB SWAP1 RETURN JUMPDEST PUSH2 0x169 JUMP JUMPDEST SWAP1 SWAP2 PUSH1 0x60 DUP3 DUP5 SUB SLT PUSH2 0x641 JUMPI PUSH2 0x63E PUSH2 0x627 DUP5 PUSH1 0x0 DUP6 ADD PUSH2 0x250 JUMP JUMPDEST SWAP4 PUSH2 0x635 DUP2 PUSH1 0x20 DUP7 ADD PUSH2 0x250 JUMP JUMPDEST SWAP4 PUSH1 0x40 ADD PUSH2 0x277 JUMP JUMPDEST SWAP1 JUMP JUMPDEST PUSH2 0x16E JUMP JUMPDEST CALLVALUE PUSH2 0x675 JUMPI PUSH2 0x65F PUSH2 0x659 CALLDATASIZE PUSH1 0x4 PUSH2 0x60B JUMP JUMPDEST SWAP2 PUSH2 0x1396 JUMP JUMPDEST PUSH2 0x667 PUSH2 0x163 JUMP JUMPDEST DUP1 PUSH2 0x671 DUP2 PUSH2 0x345 JUMP JUMPDEST SUB SWAP1 RETURN JUMPDEST PUSH2 0x169 JUMP JUMPDEST SWAP2 SWAP1 PUSH1 0x40 DUP4 DUP3 SUB SLT PUSH2 0x6A3 JUMPI DUP1 PUSH2 0x697 PUSH2 0x6A0 SWAP3 PUSH1 0x0 DUP7 ADD PUSH2 0x250 JUMP JUMPDEST SWAP4 PUSH1 0x20 ADD PUSH2 0x277 JUMP JUMPDEST SWAP1 JUMP JUMPDEST PUSH2 0x16E JUMP JUMPDEST CALLVALUE PUSH2 0x6D7 JUMPI PUSH2 0x6C1 PUSH2 0x6BB CALLDATASIZE PUSH1 0x4 PUSH2 0x67A JUMP JUMPDEST SWAP1 PUSH2 0x149C JUMP JUMPDEST PUSH2 0x6C9 PUSH2 0x163 JUMP JUMPDEST DUP1 PUSH2 0x6D3 DUP2 PUSH2 0x345 JUMP JUMPDEST SUB SWAP1 RETURN JUMPDEST PUSH2 0x169 JUMP JUMPDEST PUSH1 0x80 DUP2 DUP4 SUB SLT PUSH2 0x71E JUMPI PUSH2 0x6F3 DUP3 PUSH1 0x0 DUP4 ADD PUSH2 0x250 JUMP JUMPDEST SWAP3 PUSH2 0x71B PUSH2 0x704 DUP5 PUSH1 0x20 DUP6 ADD PUSH2 0x250 JUMP JUMPDEST SWAP4 PUSH2 0x712 DUP2 PUSH1 0x40 DUP7 ADD PUSH2 0x250 JUMP JUMPDEST SWAP4 PUSH1 0x60 ADD PUSH2 0x3E5 JUMP JUMPDEST SWAP1 JUMP JUMPDEST PUSH2 0x16E JUMP JUMPDEST CALLVALUE PUSH2 0x755 JUMPI PUSH2 0x73F PUSH2 0x736 CALLDATASIZE PUSH1 0x4 PUSH2 0x6DC JUMP JUMPDEST SWAP3 SWAP2 SWAP1 SWAP2 PUSH2 0x158A JUMP JUMPDEST PUSH2 0x747 PUSH2 0x163 JUMP JUMPDEST DUP1 PUSH2 0x751 DUP2 PUSH2 0x345 JUMP JUMPDEST SUB SWAP1 RETURN JUMPDEST PUSH2 0x169 JUMP JUMPDEST PUSH2 0x763 DUP2 PUSH2 0x4F7 JUMP JUMPDEST SUB PUSH2 0x76A JUMPI JUMP JUMPDEST PUSH1 0x0 DUP1 REVERT JUMPDEST SWAP1 POP CALLDATALOAD SWAP1 PUSH2 0x77C DUP3 PUSH2 0x75A JUMP JUMPDEST JUMP JUMPDEST SWAP1 SWAP2 PUSH1 0xC0 DUP3 DUP5 SUB SLT PUSH2 0x7DE JUMPI PUSH2 0x797 DUP4 PUSH1 0x0 DUP5 ADD PUSH2 0x277 JUMP JUMPDEST SWAP3 PUSH2 0x7A5 DUP2 PUSH1 0x20 DUP6 ADD PUSH2 0x277 JUMP JUMPDEST SWAP3 PUSH2 0x7B3 DUP3 PUSH1 0x40 DUP4 ADD PUSH2 0x250 JUMP JUMPDEST SWAP3 PUSH2 0x7DB PUSH2 0x7C4 DUP5 PUSH1 0x60 DUP6 ADD PUSH2 0x76F JUMP JUMPDEST SWAP4 PUSH2 0x7D2 DUP2 PUSH1 0x80 DUP7 ADD PUSH2 0x76F JUMP JUMPDEST SWAP4 PUSH1 0xA0 ADD PUSH2 0x3E5 JUMP JUMPDEST SWAP1 JUMP JUMPDEST PUSH2 0x16E JUMP JUMPDEST CALLVALUE PUSH2 0x818 JUMPI PUSH2 0x802 PUSH2 0x7F6 CALLDATASIZE PUSH1 0x4 PUSH2 0x77E JUMP JUMPDEST SWAP5 SWAP4 SWAP1 SWAP4 SWAP3 SWAP2 SWAP3 PUSH2 0x1A34 JUMP JUMPDEST PUSH2 0x80A PUSH2 0x163 JUMP JUMPDEST DUP1 PUSH2 0x814 DUP2 PUSH2 0x345 JUMP JUMPDEST SUB SWAP1 RETURN JUMPDEST PUSH2 0x169 JUMP JUMPDEST SWAP2 SWAP1 PUSH1 0x40 DUP4 DUP3 SUB SLT PUSH2 0x846 JUMPI DUP1 PUSH2 0x83A PUSH2 0x843 SWAP3 PUSH1 0x0 DUP7 ADD PUSH2 0x3E5 JUMP JUMPDEST SWAP4 PUSH1 0x20 ADD PUSH2 0x277 JUMP JUMPDEST SWAP1 JUMP JUMPDEST PUSH2 0x16E JUMP JUMPDEST PUSH2 0x854 SWAP1 PUSH2 0x22F JUMP JUMPDEST SWAP1 MSTORE JUMP JUMPDEST SWAP2 SWAP1 PUSH2 0x86C SWAP1 PUSH1 0x0 PUSH1 0x20 DUP6 ADD SWAP5 ADD SWAP1 PUSH2 0x84B JUMP JUMPDEST JUMP JUMPDEST CALLVALUE PUSH2 0x89F JUMPI PUSH2 0x89B PUSH2 0x88A PUSH2 0x884 CALLDATASIZE PUSH1 0x4 PUSH2 0x81D JUMP JUMPDEST SWAP1 PUSH2 0x1A64 JUMP JUMPDEST PUSH2 0x892 PUSH2 0x163 JUMP JUMPDEST SWAP2 DUP3 SWAP2 DUP3 PUSH2 0x858 JUMP JUMPDEST SUB SWAP1 RETURN JUMPDEST PUSH2 0x169 JUMP JUMPDEST CALLVALUE PUSH2 0x8D5 JUMPI PUSH2 0x8D1 PUSH2 0x8C0 PUSH2 0x8BA CALLDATASIZE PUSH1 0x4 PUSH2 0x46B JUMP JUMPDEST SWAP1 PUSH2 0x1AA4 JUMP JUMPDEST PUSH2 0x8C8 PUSH2 0x163 JUMP JUMPDEST SWAP2 DUP3 SWAP2 DUP3 PUSH2 0x1D9 JUMP JUMPDEST SUB SWAP1 RETURN JUMPDEST PUSH2 0x169 JUMP JUMPDEST PUSH1 0x0 DUP1 REVERT JUMPDEST SWAP1 DUP2 PUSH1 0xC0 SWAP2 SUB SLT PUSH2 0x8ED JUMPI SWAP1 JUMP JUMPDEST PUSH2 0x8DA JUMP JUMPDEST SWAP1 DUP2 PUSH1 0xE0 SWAP2 SUB SLT PUSH2 0x900 JUMPI SWAP1 JUMP JUMPDEST PUSH2 0x8DA JUMP JUMPDEST SWAP2 PUSH1 0x60 DUP4 DUP4 SUB SLT PUSH2 0x96A JUMPI PUSH2 0x91D DUP3 PUSH1 0x0 DUP6 ADD PUSH2 0x250 JUMP JUMPDEST SWAP3 PUSH1 0x20 DUP2 ADD CALLDATALOAD PUSH8 0xFFFFFFFFFFFFFFFF DUP2 GT PUSH2 0x965 JUMPI DUP4 PUSH2 0x93E SWAP2 DUP4 ADD PUSH2 0x8DF JUMP JUMPDEST SWAP3 PUSH1 0x40 DUP3 ADD CALLDATALOAD PUSH8 0xFFFFFFFFFFFFFFFF DUP2 GT PUSH2 0x960 JUMPI PUSH2 0x95D SWAP3 ADD PUSH2 0x8F2 JUMP JUMPDEST SWAP1 JUMP JUMPDEST PUSH2 0x173 JUMP JUMPDEST PUSH2 0x173 JUMP JUMPDEST PUSH2 0x16E JUMP JUMPDEST CALLVALUE PUSH2 0x9A0 JUMPI PUSH2 0x99C PUSH2 0x98B PUSH2 0x985 CALLDATASIZE PUSH1 0x4 PUSH2 0x905 JUMP JUMPDEST SWAP2 PUSH2 0x1DC7 JUMP JUMPDEST PUSH2 0x993 PUSH2 0x163 JUMP JUMPDEST SWAP2 DUP3 SWAP2 DUP3 PUSH2 0x420 JUMP JUMPDEST SUB SWAP1 RETURN JUMPDEST PUSH2 0x169 JUMP JUMPDEST SWAP1 JUMP JUMPDEST PUSH1 0x0 SHL SWAP1 JUMP JUMPDEST PUSH2 0x9C2 PUSH2 0x9BD PUSH2 0x9C7 SWAP3 PUSH2 0x9A5 JUMP JUMPDEST PUSH2 0x9A8 JUMP JUMPDEST PUSH2 0x3CD JUMP JUMPDEST SWAP1 JUMP JUMPDEST PUSH2 0x9D4 PUSH1 0x0 PUSH2 0x9AE JUMP JUMPDEST SWAP1 JUMP JUMPDEST PUSH2 0x9DF PUSH2 0x9CA JUMP JUMPDEST SWAP1 JUMP JUMPDEST CALLVALUE PUSH2 0xA12 JUMPI PUSH2 0x9F2 CALLDATASIZE PUSH1 0x4 PUSH2 0x4CD JUMP JUMPDEST PUSH2 0xA0E PUSH2 0x9FD PUSH2 0x9D7 JUMP JUMPDEST PUSH2 0xA05 PUSH2 0x163 JUMP JUMPDEST SWAP2 DUP3 SWAP2 DUP3 PUSH2 0x420 JUMP JUMPDEST SUB SWAP1 RETURN JUMPDEST PUSH2 0x169 JUMP JUMPDEST CALLVALUE PUSH2 0xA47 JUMPI PUSH2 0xA27 CALLDATASIZE PUSH1 0x4 PUSH2 0x4CD JUMP JUMPDEST PUSH2 0xA43 PUSH2 0xA32 PUSH2 0x1E68 JUMP JUMPDEST PUSH2 0xA3A PUSH2 0x163 JUMP JUMPDEST SWAP2 DUP3 SWAP2 DUP3 PUSH2 0x858 JUMP JUMPDEST SUB SWAP1 RETURN JUMPDEST PUSH2 0x169 JUMP JUMPDEST SWAP2 PUSH1 0x80 DUP4 DUP4 SUB SLT PUSH2 0xAAA JUMPI PUSH2 0xA64 DUP3 PUSH1 0x0 DUP6 ADD PUSH2 0x3E5 JUMP JUMPDEST SWAP3 PUSH1 0x20 DUP2 ADD CALLDATALOAD SWAP2 PUSH8 0xFFFFFFFFFFFFFFFF DUP4 GT PUSH2 0xAA5 JUMPI PUSH2 0xA89 DUP5 PUSH2 0xAA2 SWAP5 DUP5 ADD PUSH2 0x295 JUMP JUMPDEST SWAP4 SWAP1 SWAP5 PUSH2 0xA99 DUP2 PUSH1 0x40 DUP7 ADD PUSH2 0x250 JUMP JUMPDEST SWAP4 PUSH1 0x60 ADD PUSH2 0x3E5 JUMP JUMPDEST SWAP1 JUMP JUMPDEST PUSH2 0x173 JUMP JUMPDEST PUSH2 0x16E JUMP JUMPDEST CALLVALUE PUSH2 0xAE3 JUMPI PUSH2 0xADF PUSH2 0xACE PUSH2 0xAC5 CALLDATASIZE PUSH1 0x4 PUSH2 0xA4C JUMP JUMPDEST SWAP4 SWAP3 SWAP1 SWAP3 PUSH2 0x1FA4 JUMP JUMPDEST PUSH2 0xAD6 PUSH2 0x163 JUMP JUMPDEST SWAP2 DUP3 SWAP2 DUP3 PUSH2 0x1D9 JUMP JUMPDEST SUB SWAP1 RETURN JUMPDEST PUSH2 0x169 JUMP JUMPDEST PUSH2 0xAF1 SWAP1 PUSH2 0x25F JUMP JUMPDEST SWAP1 MSTORE JUMP JUMPDEST SWAP2 SWAP1 PUSH2 0xB09 SWAP1 PUSH1 0x0 PUSH1 0x20 DUP6 ADD SWAP5 ADD SWAP1 PUSH2 0xAE8 JUMP JUMPDEST JUMP JUMPDEST CALLVALUE PUSH2 0xB3B JUMPI PUSH2 0xB37 PUSH2 0xB26 PUSH2 0xB21 CALLDATASIZE PUSH1 0x4 PUSH2 0x3F4 JUMP JUMPDEST PUSH2 0x204C JUMP JUMPDEST PUSH2 0xB2E PUSH2 0x163 JUMP JUMPDEST SWAP2 DUP3 SWAP2 DUP3 PUSH2 0xAF5 JUMP JUMPDEST SUB SWAP1 RETURN JUMPDEST PUSH2 0x169 JUMP JUMPDEST CALLVALUE PUSH2 0xB6F JUMPI PUSH2 0xB59 PUSH2 0xB53 CALLDATASIZE PUSH1 0x4 PUSH2 0x46B JUMP JUMPDEST SWAP1 PUSH2 0x209C JUMP JUMPDEST PUSH2 0xB61 PUSH2 0x163 JUMP JUMPDEST DUP1 PUSH2 0xB6B DUP2 PUSH2 0x345 JUMP JUMPDEST SUB SWAP1 RETURN JUMPDEST PUSH2 0x169 JUMP JUMPDEST CALLVALUE PUSH2 0xBA2 JUMPI PUSH2 0xB8C PUSH2 0xB87 CALLDATASIZE PUSH1 0x4 PUSH2 0x3F4 JUMP JUMPDEST PUSH2 0x20D0 JUMP JUMPDEST PUSH2 0xB94 PUSH2 0x163 JUMP JUMPDEST DUP1 PUSH2 0xB9E DUP2 PUSH2 0x345 JUMP JUMPDEST SUB SWAP1 RETURN JUMPDEST PUSH2 0x169 JUMP JUMPDEST PUSH1 0x0 DUP1 REVERT JUMPDEST PUSH1 0x0 SWAP1 JUMP JUMPDEST PUSH2 0xBB9 PUSH2 0xBAC JUMP JUMPDEST POP DUP1 PUSH2 0xBD4 PUSH2 0xBCE PUSH4 0x5F05BB89 PUSH1 0xE1 SHL PUSH2 0x178 JUMP JUMPDEST SWAP2 PUSH2 0x178 JUMP JUMPDEST EQ DUP1 ISZERO PUSH2 0xBF8 JUMPI JUMPDEST SWAP1 DUP2 ISZERO PUSH2 0xBE8 JUMPI JUMPDEST POP SWAP1 JUMP JUMPDEST PUSH2 0xBF2 SWAP2 POP PUSH2 0x2115 JUMP JUMPDEST CODESIZE PUSH2 0xBE4 JUMP JUMPDEST POP PUSH2 0xC02 DUP2 PUSH2 0x20DB JUMP JUMPDEST PUSH2 0xBDC JUMP JUMPDEST PUSH1 0x8 SHR SWAP1 JUMP JUMPDEST PUSH1 0x1 DUP1 PUSH1 0xA0 SHL SUB AND SWAP1 JUMP JUMPDEST PUSH2 0xC24 PUSH2 0xC29 SWAP2 PUSH2 0xC07 JUMP JUMPDEST PUSH2 0xC0D JUMP JUMPDEST SWAP1 JUMP JUMPDEST PUSH2 0xC36 SWAP1 SLOAD PUSH2 0xC18 JUMP JUMPDEST SWAP1 JUMP JUMPDEST SWAP1 JUMP JUMPDEST PUSH2 0xC50 PUSH2 0xC4B PUSH2 0xC55 SWAP3 PUSH2 0x224 JUMP JUMPDEST PUSH2 0xC39 JUMP JUMPDEST PUSH2 0x224 JUMP JUMPDEST SWAP1 JUMP JUMPDEST PUSH2 0xC61 SWAP1 PUSH2 0xC3C JUMP JUMPDEST SWAP1 JUMP JUMPDEST PUSH2 0xC6D SWAP1 PUSH2 0xC58 JUMP JUMPDEST SWAP1 JUMP JUMPDEST PUSH2 0xC79 SWAP1 PUSH2 0xC3C JUMP JUMPDEST SWAP1 JUMP JUMPDEST PUSH2 0xC85 SWAP1 PUSH2 0xC70 JUMP JUMPDEST SWAP1 JUMP JUMPDEST PUSH1 0x0 DUP1 REVERT JUMPDEST PUSH1 0x1F DUP1 NOT SWAP2 ADD AND SWAP1 JUMP JUMPDEST PUSH4 0x4E487B71 PUSH1 0xE0 SHL PUSH1 0x0 MSTORE PUSH1 0x41 PUSH1 0x4 MSTORE PUSH1 0x24 PUSH1 0x0 REVERT JUMPDEST SWAP1 PUSH2 0xCB7 SWAP1 PUSH2 0xC8D JUMP JUMPDEST DUP2 ADD SWAP1 DUP2 LT PUSH8 0xFFFFFFFFFFFFFFFF DUP3 GT OR PUSH2 0xCD1 JUMPI PUSH1 0x40 MSTORE JUMP JUMPDEST PUSH2 0xC97 JUMP JUMPDEST PUSH1 0xE0 SHL SWAP1 JUMP JUMPDEST PUSH1 0x0 SWAP2 SUB SLT PUSH2 0xCE7 JUMPI JUMP JUMPDEST PUSH2 0x16E JUMP JUMPDEST SWAP2 PUSH1 0x20 PUSH2 0xD0E SWAP3 SWAP5 SWAP4 PUSH2 0xD07 PUSH1 0x40 DUP3 ADD SWAP7 PUSH1 0x0 DUP4 ADD SWAP1 PUSH2 0x84B JUMP JUMPDEST ADD SWAP1 PUSH2 0xAE8 JUMP JUMPDEST JUMP JUMPDEST PUSH2 0xD18 PUSH2 0x163 JUMP JUMPDEST RETURNDATASIZE PUSH1 0x0 DUP3 RETURNDATACOPY RETURNDATASIZE SWAP1 REVERT JUMPDEST SWAP4 PUSH2 0xD34 SWAP4 SWAP6 SWAP2 SWAP6 DUP7 SWAP4 SWAP1 SWAP2 SWAP3 SWAP4 PUSH2 0x22B6 JUMP JUMPDEST PUSH2 0xD4E PUSH2 0xD49 PUSH2 0xD44 PUSH1 0x5 PUSH2 0xC2C JUMP JUMPDEST PUSH2 0xC64 JUMP JUMPDEST PUSH2 0xC7C JUMP JUMPDEST PUSH4 0x2E73E0FD DUP3 DUP5 SWAP3 DUP1 EXTCODESIZE ISZERO PUSH2 0xEAE JUMPI PUSH2 0xD7B PUSH1 0x0 DUP1 SWAP5 PUSH2 0xD86 PUSH2 0xD6F PUSH2 0x163 JUMP JUMPDEST SWAP8 DUP9 SWAP7 DUP8 SWAP6 DUP7 SWAP5 PUSH2 0xCD6 JUMP JUMPDEST DUP5 MSTORE PUSH1 0x4 DUP5 ADD PUSH2 0xCEC JUMP JUMPDEST SUB SWAP3 GAS CALL SWAP1 DUP2 PUSH2 0xE81 JUMPI JUMPDEST POP ISZERO PUSH1 0x0 EQ PUSH2 0xE7C JUMPI PUSH1 0x1 PUSH2 0xDDE JUMPI JUMPDEST JUMPDEST SWAP1 PUSH32 0xF32D98590495EE51BACB93809409A188E7AB8268B70B4C969D9DA3A883C539F7 SWAP2 PUSH2 0xDD9 PUSH2 0xDD0 PUSH2 0x163 JUMP JUMPDEST SWAP3 DUP4 SWAP3 DUP4 PUSH2 0xCEC JUMP JUMPDEST SUB SWAP1 LOG1 JUMP JUMPDEST PUSH2 0xDF8 PUSH2 0xDF3 PUSH2 0xDEE PUSH1 0x5 PUSH2 0xC2C JUMP JUMPDEST PUSH2 0xC64 JUMP JUMPDEST PUSH2 0xC7C JUMP JUMPDEST PUSH4 0x40C10F19 DUP3 DUP5 SWAP3 DUP1 EXTCODESIZE ISZERO PUSH2 0xE77 JUMPI PUSH2 0xE25 PUSH1 0x0 DUP1 SWAP5 PUSH2 0xE30 PUSH2 0xE19 PUSH2 0x163 JUMP JUMPDEST SWAP8 DUP9 SWAP7 DUP8 SWAP6 DUP7 SWAP5 PUSH2 0xCD6 JUMP JUMPDEST DUP5 MSTORE PUSH1 0x4 DUP5 ADD PUSH2 0xCEC JUMP JUMPDEST SUB SWAP3 GAS CALL DUP1 ISZERO PUSH2 0xE72 JUMPI PUSH2 0xE45 JUMPI JUMPDEST POP PUSH2 0xDA1 JUMP JUMPDEST PUSH2 0xE65 SWAP1 PUSH1 0x0 RETURNDATASIZE DUP2 GT PUSH2 0xE6B JUMPI JUMPDEST PUSH2 0xE5D DUP2 DUP4 PUSH2 0xCAD JUMP JUMPDEST DUP2 ADD SWAP1 PUSH2 0xCDC JUMP JUMPDEST CODESIZE PUSH2 0xE3F JUMP JUMPDEST POP RETURNDATASIZE PUSH2 0xE53 JUMP JUMPDEST PUSH2 0xD10 JUMP JUMPDEST PUSH2 0xC88 JUMP JUMPDEST PUSH2 0xDA2 JUMP JUMPDEST PUSH2 0xEA1 SWAP1 PUSH1 0x0 RETURNDATASIZE DUP2 GT PUSH2 0xEA7 JUMPI JUMPDEST PUSH2 0xE99 DUP2 DUP4 PUSH2 0xCAD JUMP JUMPDEST DUP2 ADD SWAP1 PUSH2 0xCDC JUMP JUMPDEST CODESIZE PUSH2 0xD91 JUMP JUMPDEST POP RETURNDATASIZE PUSH2 0xE8F JUMP JUMPDEST PUSH2 0xC88 JUMP JUMPDEST PUSH32 0x70649EC320B507FEBAD3E8EF750E5F580B9AE32F9F50D4C7B121332C81971530 SWAP1 JUMP JUMPDEST PUSH2 0xEF0 SWAP1 PUSH2 0xEEB PUSH2 0xEE6 PUSH2 0xEB3 JUMP JUMPDEST PUSH2 0x251A JUMP JUMPDEST PUSH2 0xF54 JUMP JUMPDEST JUMP JUMPDEST PUSH2 0xEFB SWAP1 PUSH2 0xC3C JUMP JUMPDEST SWAP1 JUMP JUMPDEST PUSH2 0xF07 SWAP1 PUSH2 0xEF2 JUMP JUMPDEST SWAP1 JUMP JUMPDEST SWAP1 PUSH2 0xF1B PUSH1 0x1 DUP1 PUSH1 0xA0 SHL SUB SWAP2 PUSH2 0x9A8 JUMP JUMPDEST SWAP2 DUP2 NOT AND SWAP2 AND OR SWAP1 JUMP JUMPDEST PUSH2 0xF2E SWAP1 PUSH2 0xEF2 JUMP JUMPDEST SWAP1 JUMP JUMPDEST SWAP1 JUMP JUMPDEST SWAP1 PUSH2 0xF49 PUSH2 0xF44 PUSH2 0xF50 SWAP3 PUSH2 0xF25 JUMP JUMPDEST PUSH2 0xF31 JUMP JUMPDEST DUP3 SLOAD PUSH2 0xF0A JUMP JUMPDEST SWAP1 SSTORE JUMP JUMPDEST PUSH2 0xF60 PUSH2 0xF67 SWAP2 PUSH2 0xEFE JUMP JUMPDEST PUSH1 0x3 PUSH2 0xF34 JUMP JUMPDEST JUMP JUMPDEST PUSH2 0xF72 SWAP1 PUSH2 0xED7 JUMP JUMPDEST JUMP JUMPDEST PUSH1 0x0 SWAP1 JUMP JUMPDEST PUSH2 0xF82 SWAP1 PUSH2 0x3CD JUMP JUMPDEST SWAP1 JUMP JUMPDEST SWAP1 PUSH2 0xF8F SWAP1 PUSH2 0xF79 JUMP JUMPDEST PUSH1 0x0 MSTORE PUSH1 0x20 MSTORE PUSH1 0x40 PUSH1 0x0 KECCAK256 SWAP1 JUMP JUMPDEST PUSH1 0x0 SHR SWAP1 JUMP JUMPDEST SWAP1 JUMP JUMPDEST PUSH2 0xFB2 PUSH2 0xFB7 SWAP2 PUSH2 0xF9D JUMP JUMPDEST PUSH2 0xFA3 JUMP JUMPDEST SWAP1 JUMP JUMPDEST PUSH2 0xFC4 SWAP1 SLOAD PUSH2 0xFA6 JUMP JUMPDEST SWAP1 JUMP JUMPDEST PUSH1 0x1 PUSH2 0xFE0 PUSH2 0xFE6 SWAP3 PUSH2 0xFD8 PUSH2 0xF74 JUMP JUMPDEST POP PUSH1 0x0 PUSH2 0xF85 JUMP JUMPDEST ADD PUSH2 0xFBA JUMP JUMPDEST SWAP1 JUMP JUMPDEST SWAP1 PUSH2 0x1004 SWAP2 PUSH2 0xFFF PUSH2 0xFFA DUP3 PUSH2 0xFC7 JUMP JUMPDEST PUSH2 0x251A JUMP JUMPDEST PUSH2 0x1006 JUMP JUMPDEST JUMP JUMPDEST SWAP1 PUSH2 0x1010 SWAP2 PUSH2 0x252E JUMP JUMPDEST JUMP JUMPDEST SWAP1 PUSH2 0x101C SWAP2 PUSH2 0xFE9 JUMP JUMPDEST JUMP JUMPDEST SWAP1 PUSH2 0x1031 PUSH2 0x102A PUSH2 0x163 JUMP JUMPDEST SWAP3 DUP4 PUSH2 0xCAD JUMP JUMPDEST JUMP JUMPDEST PUSH2 0x103D PUSH1 0xC0 PUSH2 0x101E JUMP JUMPDEST SWAP1 JUMP JUMPDEST PUSH1 0x0 SWAP1 JUMP JUMPDEST PUSH1 0x0 SWAP1 JUMP JUMPDEST PUSH1 0x0 SWAP1 JUMP JUMPDEST PUSH1 0x0 SWAP1 JUMP JUMPDEST PUSH2 0x105C PUSH2 0x1033 JUMP JUMPDEST SWAP1 PUSH1 0x20 DUP1 DUP1 DUP1 DUP1 DUP1 DUP8 PUSH2 0x106D PUSH2 0x1040 JUMP JUMPDEST DUP2 MSTORE ADD PUSH2 0x1078 PUSH2 0x1040 JUMP JUMPDEST DUP2 MSTORE ADD PUSH2 0x1083 PUSH2 0x1045 JUMP JUMPDEST DUP2 MSTORE ADD PUSH2 0x108E PUSH2 0x104A JUMP JUMPDEST DUP2 MSTORE ADD PUSH2 0x1099 PUSH2 0x104A JUMP JUMPDEST DUP2 MSTORE ADD PUSH2 0x10A4 PUSH2 0x104F JUMP JUMPDEST DUP2 MSTORE POP POP JUMP JUMPDEST PUSH2 0x10B2 PUSH2 0x1054 JUMP JUMPDEST SWAP1 JUMP JUMPDEST SWAP1 JUMP JUMPDEST PUSH2 0x10C4 PUSH2 0x10C9 SWAP2 PUSH2 0xF9D JUMP JUMPDEST PUSH2 0x10B5 JUMP JUMPDEST SWAP1 JUMP JUMPDEST PUSH2 0x10D6 SWAP1 SLOAD PUSH2 0x10B8 JUMP JUMPDEST SWAP1 JUMP JUMPDEST SWAP1 PUSH2 0x10E3 SWAP1 PUSH2 0x25F JUMP JUMPDEST SWAP1 MSTORE JUMP JUMPDEST PUSH2 0x10F3 PUSH2 0x10F8 SWAP2 PUSH2 0xF9D JUMP JUMPDEST PUSH2 0xC0D JUMP JUMPDEST SWAP1 JUMP JUMPDEST PUSH2 0x1105 SWAP1 SLOAD PUSH2 0x10E7 JUMP JUMPDEST SWAP1 JUMP JUMPDEST SWAP1 PUSH2 0x1112 SWAP1 PUSH2 0x22F JUMP JUMPDEST SWAP1 MSTORE JUMP JUMPDEST PUSH1 0xA0 SHR SWAP1 JUMP JUMPDEST PUSH8 0xFFFFFFFFFFFFFFFF AND SWAP1 JUMP JUMPDEST PUSH2 0x1135 PUSH2 0x113A SWAP2 PUSH2 0x1116 JUMP JUMPDEST PUSH2 0x111C JUMP JUMPDEST SWAP1 JUMP JUMPDEST PUSH2 0x1147 SWAP1 SLOAD PUSH2 0x1129 JUMP JUMPDEST SWAP1 JUMP JUMPDEST SWAP1 PUSH2 0x1154 SWAP1 PUSH2 0x4F7 JUMP JUMPDEST SWAP1 MSTORE JUMP JUMPDEST PUSH2 0x1164 PUSH2 0x1169 SWAP2 PUSH2 0xF9D JUMP JUMPDEST PUSH2 0x111C JUMP JUMPDEST SWAP1 JUMP JUMPDEST PUSH2 0x1176 SWAP1 SLOAD PUSH2 0x1158 JUMP JUMPDEST SWAP1 JUMP JUMPDEST SWAP1 PUSH2 0x1183 SWAP1 PUSH2 0x3CD JUMP JUMPDEST SWAP1 MSTORE JUMP JUMPDEST SWAP1 PUSH2 0x1220 PUSH2 0x1217 PUSH1 0x4 PUSH2 0x1198 PUSH2 0x1033 JUMP JUMPDEST SWAP5 PUSH2 0x11B1 PUSH2 0x11A8 PUSH1 0x0 DUP4 ADD PUSH2 0x10CC JUMP JUMPDEST PUSH1 0x0 DUP9 ADD PUSH2 0x10D9 JUMP JUMPDEST PUSH2 0x11C9 PUSH2 0x11C0 PUSH1 0x1 DUP4 ADD PUSH2 0x10CC JUMP JUMPDEST PUSH1 0x20 DUP9 ADD PUSH2 0x10D9 JUMP JUMPDEST PUSH2 0x11E1 PUSH2 0x11D8 PUSH1 0x2 DUP4 ADD PUSH2 0x10FB JUMP JUMPDEST PUSH1 0x40 DUP9 ADD PUSH2 0x1108 JUMP JUMPDEST PUSH2 0x11F9 PUSH2 0x11F0 PUSH1 0x2 DUP4 ADD PUSH2 0x113D JUMP JUMPDEST PUSH1 0x60 DUP9 ADD PUSH2 0x114A JUMP JUMPDEST PUSH2 0x1211 PUSH2 0x1208 PUSH1 0x3 DUP4 ADD PUSH2 0x116C JUMP JUMPDEST PUSH1 0x80 DUP9 ADD PUSH2 0x114A JUMP JUMPDEST ADD PUSH2 0xFBA JUMP JUMPDEST PUSH1 0xA0 DUP5 ADD PUSH2 0x1179 JUMP JUMPDEST JUMP JUMPDEST PUSH2 0x122B SWAP1 PUSH2 0x1187 JUMP JUMPDEST SWAP1 JUMP JUMPDEST PUSH2 0x1236 PUSH2 0x10AA JUMP JUMPDEST POP PUSH2 0x1241 PUSH1 0x6 PUSH2 0x1222 JUMP JUMPDEST SWAP1 JUMP JUMPDEST PUSH1 0x20 SWAP2 DUP2 MSTORE ADD SWAP1 JUMP JUMPDEST PUSH1 0x20 PUSH32 0x20726F6C657320666F722073656C660000000000000000000000000000000000 SWAP2 PUSH32 0x416363657373436F6E74726F6C3A2063616E206F6E6C792072656E6F756E6365 PUSH1 0x0 DUP3 ADD MSTORE ADD MSTORE JUMP JUMPDEST PUSH2 0x12A8 PUSH1 0x2F PUSH1 0x40 SWAP3 PUSH2 0x1244 JUMP JUMPDEST PUSH2 0x12B1 DUP2 PUSH2 0x124D JUMP JUMPDEST ADD SWAP1 JUMP JUMPDEST PUSH2 0x12CB SWAP1 PUSH1 0x20 DUP2 ADD SWAP1 PUSH1 0x0 DUP2 DUP4 SUB SWAP2 ADD MSTORE PUSH2 0x129B JUMP JUMPDEST SWAP1 JUMP JUMPDEST ISZERO PUSH2 0x12D5 JUMPI JUMP JUMPDEST PUSH2 0x12DD PUSH2 0x163 JUMP JUMPDEST PUSH3 0x461BCD PUSH1 0xE5 SHL DUP2 MSTORE DUP1 PUSH2 0x12F3 PUSH1 0x4 DUP3 ADD PUSH2 0x12B5 JUMP JUMPDEST SUB SWAP1 REVERT JUMPDEST SWAP1 PUSH2 0x1324 SWAP2 PUSH2 0x131F DUP3 PUSH2 0x1319 PUSH2 0x1313 PUSH2 0x130E PUSH2 0x2558 JUMP JUMPDEST PUSH2 0x22F JUMP JUMPDEST SWAP2 PUSH2 0x22F JUMP JUMPDEST EQ PUSH2 0x12CE JUMP JUMPDEST PUSH2 0x2565 JUMP JUMPDEST JUMP JUMPDEST PUSH32 0x5D8E12C39142FF96D79D04D15D1BA1269E4FE57BB9D26F43523628B34BA108EC SWAP1 JUMP JUMPDEST SWAP1 PUSH2 0x1365 SWAP3 SWAP2 PUSH2 0x1360 PUSH2 0x135B PUSH2 0x1326 JUMP JUMPDEST PUSH2 0x251A JUMP JUMPDEST PUSH2 0x137F JUMP JUMPDEST JUMP JUMPDEST PUSH2 0x1370 SWAP1 PUSH2 0xC3C JUMP JUMPDEST SWAP1 JUMP JUMPDEST PUSH2 0x137C SWAP1 PUSH2 0x1367 JUMP JUMPDEST SWAP1 JUMP JUMPDEST SWAP2 PUSH2 0x138C PUSH2 0x1394 SWAP4 PUSH2 0x1373 JUMP JUMPDEST SWAP2 SWAP1 SWAP2 PUSH2 0x25C0 JUMP JUMPDEST JUMP JUMPDEST SWAP1 PUSH2 0x13A1 SWAP3 SWAP2 PUSH2 0x134A JUMP JUMPDEST JUMP JUMPDEST SWAP1 PUSH2 0x13BD SWAP2 PUSH2 0x13B8 PUSH2 0x13B3 PUSH2 0x1326 JUMP JUMPDEST PUSH2 0x251A JUMP JUMPDEST PUSH2 0x144A JUMP JUMPDEST JUMP JUMPDEST SWAP1 POP SWAP1 JUMP JUMPDEST PUSH2 0x13D0 PUSH1 0x0 DUP1 SWAP3 PUSH2 0x13BF JUMP JUMPDEST ADD SWAP1 JUMP JUMPDEST PUSH2 0x13DD SWAP1 PUSH2 0x13C4 JUMP JUMPDEST SWAP1 JUMP JUMPDEST PUSH8 0xFFFFFFFFFFFFFFFF DUP2 GT PUSH2 0x13FE JUMPI PUSH2 0x13FA PUSH1 0x20 SWAP2 PUSH2 0xC8D JUMP JUMPDEST ADD SWAP1 JUMP JUMPDEST PUSH2 0xC97 JUMP JUMPDEST SWAP1 PUSH2 0x1415 PUSH2 0x1410 DUP4 PUSH2 0x13E0 JUMP JUMPDEST PUSH2 0x101E JUMP JUMPDEST SWAP2 DUP3 MSTORE JUMP JUMPDEST PUSH1 0x60 SWAP1 JUMP JUMPDEST RETURNDATASIZE PUSH1 0x0 EQ PUSH2 0x143C JUMPI PUSH2 0x1430 RETURNDATASIZE PUSH2 0x1403 JUMP JUMPDEST SWAP1 RETURNDATASIZE PUSH1 0x0 PUSH1 0x20 DUP5 ADD RETURNDATACOPY JUMPDEST JUMP JUMPDEST PUSH2 0x1444 PUSH2 0x141A JUMP JUMPDEST SWAP1 PUSH2 0x143A JUMP JUMPDEST PUSH1 0x0 PUSH2 0x1479 SWAP3 DUP2 SWAP3 SWAP1 PUSH2 0x145B PUSH2 0x163 JUMP JUMPDEST SWAP1 DUP2 PUSH2 0x1466 DUP2 PUSH2 0x13D4 JUMP JUMPDEST SUB SWAP3 GAS CALL PUSH2 0x1472 PUSH2 0x141F JUMP JUMPDEST POP ISZERO PUSH2 0x1C7 JUMP JUMPDEST PUSH2 0x147F JUMPI JUMP JUMPDEST PUSH1 0x0 PUSH4 0x1D42C867 PUSH1 0xE2 SHL DUP2 MSTORE DUP1 PUSH2 0x1498 PUSH1 0x4 DUP3 ADD PUSH2 0x345 JUMP JUMPDEST SUB SWAP1 REVERT JUMPDEST SWAP1 PUSH2 0x14A6 SWAP2 PUSH2 0x13A3 JUMP JUMPDEST JUMP JUMPDEST PUSH1 0xFF AND SWAP1 JUMP JUMPDEST PUSH2 0x14BA PUSH2 0x14BF SWAP2 PUSH2 0xF9D JUMP JUMPDEST PUSH2 0x14A8 JUMP JUMPDEST SWAP1 JUMP JUMPDEST PUSH2 0x14CC SWAP1 SLOAD PUSH2 0x14AE JUMP JUMPDEST SWAP1 JUMP JUMPDEST PUSH1 0x8 SHL SWAP1 JUMP JUMPDEST SWAP1 PUSH2 0x14E8 PUSH2 0x100 PUSH1 0x1 PUSH1 0xA8 SHL SUB SWAP2 PUSH2 0x14CF JUMP JUMPDEST SWAP2 DUP2 NOT AND SWAP2 AND OR SWAP1 JUMP JUMPDEST PUSH2 0x14FB SWAP1 PUSH2 0xC70 JUMP JUMPDEST SWAP1 JUMP JUMPDEST SWAP1 JUMP JUMPDEST SWAP1 PUSH2 0x1516 PUSH2 0x1511 PUSH2 0x151D SWAP3 PUSH2 0x14F2 JUMP JUMPDEST PUSH2 0x14FE JUMP JUMPDEST DUP3 SLOAD PUSH2 0x14D5 JUMP JUMPDEST SWAP1 SSTORE JUMP JUMPDEST PUSH32 0x4C02318D8C3AADC98CCF18AEBBF3126F651E0C3F6A1DE5FF8EDCF6724A2AD5C2 SWAP1 JUMP JUMPDEST SWAP1 PUSH2 0x1551 PUSH1 0xFF SWAP2 PUSH2 0x9A8 JUMP JUMPDEST SWAP2 DUP2 NOT AND SWAP2 AND OR SWAP1 JUMP JUMPDEST PUSH2 0x1564 SWAP1 PUSH2 0x1C7 JUMP JUMPDEST SWAP1 JUMP JUMPDEST SWAP1 JUMP JUMPDEST SWAP1 PUSH2 0x157F PUSH2 0x157A PUSH2 0x1586 SWAP3 PUSH2 0x155B JUMP JUMPDEST PUSH2 0x1567 JUMP JUMPDEST DUP3 SLOAD PUSH2 0x1545 JUMP JUMPDEST SWAP1 SSTORE JUMP JUMPDEST SWAP3 SWAP1 SWAP3 PUSH2 0x1597 PUSH1 0x5 PUSH2 0x14C2 JUMP JUMPDEST PUSH2 0x15F5 JUMPI PUSH2 0x15A9 PUSH2 0x15E7 SWAP5 PUSH1 0x5 PUSH2 0x1501 JUMP JUMPDEST PUSH2 0x15BB PUSH2 0x15B4 PUSH2 0x9CA JUMP JUMPDEST DUP3 SWAP1 PUSH2 0x252E JUMP JUMPDEST PUSH2 0x15CD PUSH2 0x15C6 PUSH2 0x1521 JUMP JUMPDEST DUP3 SWAP1 PUSH2 0x252E JUMP JUMPDEST PUSH2 0x15DF PUSH2 0x15D8 PUSH2 0x1326 JUMP JUMPDEST DUP3 SWAP1 PUSH2 0x252E JUMP JUMPDEST SWAP2 SWAP1 SWAP2 PUSH2 0x260B JUMP JUMPDEST PUSH2 0x15F3 PUSH1 0x1 PUSH1 0x5 PUSH2 0x156A JUMP JUMPDEST JUMP JUMPDEST PUSH1 0x0 PUSH4 0xF92EE8A9 PUSH1 0xE0 SHL DUP2 MSTORE DUP1 PUSH2 0x160E PUSH1 0x4 DUP3 ADD PUSH2 0x345 JUMP JUMPDEST SUB SWAP1 REVERT JUMPDEST SWAP1 PUSH2 0x1630 SWAP6 SWAP5 SWAP4 SWAP3 SWAP2 PUSH2 0x162B PUSH2 0x1626 PUSH2 0x1521 JUMP JUMPDEST PUSH2 0x251A JUMP JUMPDEST PUSH2 0x18FD JUMP JUMPDEST JUMP JUMPDEST PUSH2 0x1646 PUSH2 0x1641 PUSH2 0x164B SWAP3 PUSH2 0x4F7 JUMP JUMPDEST PUSH2 0xC39 JUMP JUMPDEST PUSH2 0x25F JUMP JUMPDEST SWAP1 JUMP JUMPDEST PUSH2 0x1662 PUSH2 0x165D PUSH2 0x1667 SWAP3 PUSH2 0x9A5 JUMP JUMPDEST PUSH2 0xC39 JUMP JUMPDEST PUSH2 0x25F JUMP JUMPDEST SWAP1 JUMP JUMPDEST PUSH2 0x1674 PUSH1 0xC0 PUSH2 0x101E JUMP JUMPDEST SWAP1 JUMP JUMPDEST PUSH2 0x1681 SWAP1 MLOAD PUSH2 0x25F JUMP JUMPDEST SWAP1 JUMP JUMPDEST SWAP1 PUSH2 0x1691 PUSH1 0x0 NOT SWAP2 PUSH2 0x9A8 JUMP JUMPDEST SWAP2 DUP2 NOT AND SWAP2 AND OR SWAP1 JUMP JUMPDEST PUSH2 0x16AF PUSH2 0x16AA PUSH2 0x16B4 SWAP3 PUSH2 0x25F JUMP JUMPDEST PUSH2 0xC39 JUMP JUMPDEST PUSH2 0x25F JUMP JUMPDEST SWAP1 JUMP JUMPDEST SWAP1 JUMP JUMPDEST SWAP1 PUSH2 0x16CF PUSH2 0x16CA PUSH2 0x16D6 SWAP3 PUSH2 0x169B JUMP JUMPDEST PUSH2 0x16B7 JUMP JUMPDEST DUP3 SLOAD PUSH2 0x1684 JUMP JUMPDEST SWAP1 SSTORE JUMP JUMPDEST PUSH2 0x16E4 SWAP1 MLOAD PUSH2 0x22F JUMP JUMPDEST SWAP1 JUMP JUMPDEST SWAP1 PUSH2 0x16FC PUSH2 0x16F7 PUSH2 0x1703 SWAP3 PUSH2 0x14F2 JUMP JUMPDEST PUSH2 0x14FE JUMP JUMPDEST DUP3 SLOAD PUSH2 0xF0A JUMP JUMPDEST SWAP1 SSTORE JUMP JUMPDEST PUSH2 0x1711 SWAP1 MLOAD PUSH2 0x4F7 JUMP JUMPDEST SWAP1 JUMP JUMPDEST PUSH1 0xA0 SHL SWAP1 JUMP JUMPDEST SWAP1 PUSH2 0x1730 PUSH8 0xFFFFFFFFFFFFFFFF PUSH1 0xA0 SHL SWAP2 PUSH2 0x1714 JUMP JUMPDEST SWAP2 DUP2 NOT AND SWAP2 AND OR SWAP1 JUMP JUMPDEST PUSH2 0x174E PUSH2 0x1749 PUSH2 0x1753 SWAP3 PUSH2 0x4F7 JUMP JUMPDEST PUSH2 0xC39 JUMP JUMPDEST PUSH2 0x4F7 JUMP JUMPDEST SWAP1 JUMP JUMPDEST SWAP1 JUMP JUMPDEST SWAP1 PUSH2 0x176E PUSH2 0x1769 PUSH2 0x1775 SWAP3 PUSH2 0x173A JUMP JUMPDEST PUSH2 0x1756 JUMP JUMPDEST DUP3 SLOAD PUSH2 0x171A JUMP JUMPDEST SWAP1 SSTORE JUMP JUMPDEST SWAP1 PUSH2 0x178C PUSH8 0xFFFFFFFFFFFFFFFF SWAP2 PUSH2 0x9A8 JUMP JUMPDEST SWAP2 DUP2 NOT AND SWAP2 AND OR SWAP1 JUMP JUMPDEST SWAP1 PUSH2 0x17AB PUSH2 0x17A6 PUSH2 0x17B2 SWAP3 PUSH2 0x173A JUMP JUMPDEST PUSH2 0x1756 JUMP JUMPDEST DUP3 SLOAD PUSH2 0x1779 JUMP JUMPDEST SWAP1 SSTORE JUMP JUMPDEST PUSH2 0x17C0 SWAP1 MLOAD PUSH2 0x3CD JUMP JUMPDEST SWAP1 JUMP JUMPDEST PUSH2 0x17CC SWAP1 PUSH2 0xF9D JUMP JUMPDEST SWAP1 JUMP JUMPDEST SWAP1 PUSH2 0x17E4 PUSH2 0x17DF PUSH2 0x17EB SWAP3 PUSH2 0xF79 JUMP JUMPDEST PUSH2 0x17C3 JUMP JUMPDEST DUP3 SLOAD PUSH2 0x1684 JUMP JUMPDEST SWAP1 SSTORE JUMP JUMPDEST SWAP1 PUSH2 0x1880 PUSH1 0xA0 PUSH1 0x4 PUSH2 0x1886 SWAP5 PUSH2 0x1814 PUSH1 0x0 DUP3 ADD PUSH2 0x180E PUSH1 0x0 DUP9 ADD PUSH2 0x1677 JUMP JUMPDEST SWAP1 PUSH2 0x16BA JUMP JUMPDEST PUSH2 0x182D PUSH1 0x1 DUP3 ADD PUSH2 0x1827 PUSH1 0x20 DUP9 ADD PUSH2 0x1677 JUMP JUMPDEST SWAP1 PUSH2 0x16BA JUMP JUMPDEST PUSH2 0x1846 PUSH1 0x2 DUP3 ADD PUSH2 0x1840 PUSH1 0x40 DUP9 ADD PUSH2 0x16DA JUMP JUMPDEST SWAP1 PUSH2 0x16E7 JUMP JUMPDEST PUSH2 0x185F PUSH1 0x2 DUP3 ADD PUSH2 0x1859 PUSH1 0x60 DUP9 ADD PUSH2 0x1707 JUMP JUMPDEST SWAP1 PUSH2 0x1759 JUMP JUMPDEST PUSH2 0x1878 PUSH1 0x3 DUP3 ADD PUSH2 0x1872 PUSH1 0x80 DUP9 ADD PUSH2 0x1707 JUMP JUMPDEST SWAP1 PUSH2 0x1796 JUMP JUMPDEST ADD SWAP3 ADD PUSH2 0x17B6 JUMP JUMPDEST SWAP1 PUSH2 0x17CF JUMP JUMPDEST JUMP JUMPDEST SWAP1 PUSH2 0x1892 SWAP2 PUSH2 0x17EF JUMP JUMPDEST JUMP JUMPDEST PUSH2 0x189D SWAP1 PUSH2 0x4F7 JUMP JUMPDEST SWAP1 MSTORE JUMP JUMPDEST SWAP2 SWAP5 PUSH2 0x18EA PUSH2 0x18F4 SWAP3 SWAP9 SWAP8 SWAP6 PUSH2 0x18E0 PUSH1 0xA0 SWAP7 PUSH2 0x18D6 PUSH2 0x18FB SWAP11 PUSH2 0x18CC PUSH1 0xC0 DUP11 ADD SWAP15 PUSH1 0x0 DUP12 ADD SWAP1 PUSH2 0xAE8 JUMP JUMPDEST PUSH1 0x20 DUP10 ADD SWAP1 PUSH2 0xAE8 JUMP JUMPDEST PUSH1 0x40 DUP8 ADD SWAP1 PUSH2 0x84B JUMP JUMPDEST PUSH1 0x60 DUP6 ADD SWAP1 PUSH2 0x1894 JUMP JUMPDEST PUSH1 0x80 DUP4 ADD SWAP1 PUSH2 0x1894 JUMP JUMPDEST ADD SWAP1 PUSH2 0x413 JUMP JUMPDEST JUMP JUMPDEST SWAP2 SWAP4 SWAP1 SWAP3 SWAP5 DUP2 PUSH2 0x1915 PUSH2 0x190F DUP9 PUSH2 0x4F7 JUMP JUMPDEST SWAP2 PUSH2 0x4F7 JUMP JUMPDEST LT DUP1 ISZERO PUSH2 0x1A19 JUMPI JUMPDEST PUSH2 0x19FC JUMPI DUP3 PUSH2 0x1935 PUSH2 0x192F PUSH1 0x0 PUSH2 0x164E JUMP JUMPDEST SWAP2 PUSH2 0x25F JUMP JUMPDEST EQ PUSH2 0x19DF JUMPI DUP3 PUSH2 0x19A1 PUSH2 0x19DA SWAP5 PUSH2 0x199A DUP8 PUSH2 0x1991 DUP11 PUSH2 0x1988 DUP14 PUSH2 0x197F DUP12 SWAP4 PUSH2 0x1976 DUP13 SWAP8 PUSH2 0x196D PUSH2 0x1963 PUSH2 0x166A JUMP JUMPDEST SWAP12 PUSH1 0x0 DUP14 ADD PUSH2 0x10D9 JUMP JUMPDEST PUSH1 0x20 DUP12 ADD PUSH2 0x10D9 JUMP JUMPDEST PUSH1 0x40 DUP10 ADD PUSH2 0x1108 JUMP JUMPDEST PUSH1 0x60 DUP8 ADD PUSH2 0x114A JUMP JUMPDEST PUSH1 0x80 DUP6 ADD PUSH2 0x114A JUMP JUMPDEST PUSH1 0xA0 DUP4 ADD PUSH2 0x1179 JUMP JUMPDEST PUSH1 0x6 PUSH2 0x1888 JUMP JUMPDEST SWAP4 SWAP5 SWAP6 SWAP2 SWAP1 SWAP2 PUSH32 0xABEC13CA1773EED55D54D2F64593C33FA520EE45CAC73A162F13928A2EBEE233 SWAP7 PUSH2 0x19D1 PUSH2 0x163 JUMP JUMPDEST SWAP7 DUP8 SWAP7 DUP8 PUSH2 0x18A1 JUMP JUMPDEST SUB SWAP1 LOG1 JUMP JUMPDEST PUSH1 0x0 PUSH4 0x10BA94E9 PUSH1 0xE3 SHL DUP2 MSTORE DUP1 PUSH2 0x19F8 PUSH1 0x4 DUP3 ADD PUSH2 0x345 JUMP JUMPDEST SUB SWAP1 REVERT JUMPDEST PUSH1 0x0 PUSH4 0x10BA94E9 PUSH1 0xE3 SHL DUP2 MSTORE DUP1 PUSH2 0x1A15 PUSH1 0x4 DUP3 ADD PUSH2 0x345 JUMP JUMPDEST SUB SWAP1 REVERT JUMPDEST POP DUP2 PUSH2 0x1A2D PUSH2 0x1A27 TIMESTAMP PUSH2 0x25F JUMP JUMPDEST SWAP2 PUSH2 0x1632 JUMP JUMPDEST GT ISZERO PUSH2 0x191D JUMP JUMPDEST SWAP1 PUSH2 0x1A42 SWAP6 SWAP5 SWAP4 SWAP3 SWAP2 PUSH2 0x1612 JUMP JUMPDEST JUMP JUMPDEST PUSH1 0x0 SWAP1 JUMP JUMPDEST SWAP1 PUSH2 0x1A53 SWAP1 PUSH2 0xF79 JUMP JUMPDEST PUSH1 0x0 MSTORE PUSH1 0x20 MSTORE PUSH1 0x40 PUSH1 0x0 KECCAK256 SWAP1 JUMP JUMPDEST SWAP1 JUMP JUMPDEST SWAP1 PUSH2 0x1A84 PUSH2 0x1A7F PUSH2 0x1A89 SWAP4 PUSH2 0x1A77 PUSH2 0x1A44 JUMP JUMPDEST POP PUSH1 0x1 PUSH2 0x1A49 JUMP JUMPDEST PUSH2 0x1A61 JUMP JUMPDEST PUSH2 0x265B JUMP JUMPDEST SWAP1 JUMP JUMPDEST SWAP1 PUSH2 0x1A96 SWAP1 PUSH2 0x14F2 JUMP JUMPDEST PUSH1 0x0 MSTORE PUSH1 0x20 MSTORE PUSH1 0x40 PUSH1 0x0 KECCAK256 SWAP1 JUMP JUMPDEST PUSH2 0x1ACB SWAP2 PUSH1 0x0 PUSH2 0x1AC0 PUSH2 0x1AC6 SWAP4 PUSH2 0x1AB9 PUSH2 0xBAC JUMP JUMPDEST POP DUP3 PUSH2 0xF85 JUMP JUMPDEST ADD PUSH2 0x1A8C JUMP JUMPDEST PUSH2 0x14C2 JUMP JUMPDEST SWAP1 JUMP JUMPDEST PUSH1 0x1 DUP1 PUSH1 0xA0 SHL SUB AND SWAP1 JUMP JUMPDEST PUSH2 0x1AE5 PUSH2 0x1AEA SWAP2 PUSH2 0xF9D JUMP JUMPDEST PUSH2 0x1ACE JUMP JUMPDEST SWAP1 JUMP JUMPDEST PUSH2 0x1AF7 SWAP1 SLOAD PUSH2 0x1AD9 JUMP JUMPDEST SWAP1 JUMP JUMPDEST PUSH2 0x1B03 SWAP1 PUSH2 0xC70 JUMP JUMPDEST SWAP1 JUMP JUMPDEST SWAP1 POP MLOAD SWAP1 PUSH2 0x1B13 DUP3 PUSH2 0x3D0 JUMP JUMPDEST JUMP JUMPDEST SWAP1 PUSH1 0x20 DUP3 DUP3 SUB SLT PUSH2 0x1B2F JUMPI PUSH2 0x1B2C SWAP2 PUSH1 0x0 ADD PUSH2 0x1B06 JUMP JUMPDEST SWAP1 JUMP JUMPDEST PUSH2 0x16E JUMP JUMPDEST POP PUSH2 0x1B43 SWAP1 PUSH1 0x20 DUP2 ADD SWAP1 PUSH2 0x250 JUMP JUMPDEST SWAP1 JUMP JUMPDEST POP PUSH2 0x1B55 SWAP1 PUSH1 0x20 DUP2 ADD SWAP1 PUSH2 0x199 JUMP JUMPDEST SWAP1 JUMP JUMPDEST PUSH2 0x1B61 SWAP1 PUSH2 0x178 JUMP JUMPDEST SWAP1 MSTORE JUMP JUMPDEST POP PUSH2 0x1B74 SWAP1 PUSH1 0x20 DUP2 ADD SWAP1 PUSH2 0x3E5 JUMP JUMPDEST SWAP1 JUMP JUMPDEST PUSH1 0x0 DUP1 REVERT JUMPDEST PUSH1 0x0 DUP1 REVERT JUMPDEST PUSH1 0x0 DUP1 REVERT JUMPDEST SWAP1 CALLDATALOAD PUSH1 0x1 PUSH1 0x20 SUB DUP3 CALLDATASIZE SUB SUB DUP2 SLT ISZERO PUSH2 0x1BC7 JUMPI ADD PUSH1 0x20 DUP2 CALLDATALOAD SWAP2 ADD SWAP2 PUSH8 0xFFFFFFFFFFFFFFFF DUP3 GT PUSH2 0x1BC2 JUMPI PUSH1 0x1 DUP3 MUL CALLDATASIZE SUB DUP4 SGT PUSH2 0x1BBD JUMPI JUMP JUMPDEST PUSH2 0x1B7C JUMP JUMPDEST PUSH2 0x1B77 JUMP JUMPDEST PUSH2 0x1B81 JUMP JUMPDEST PUSH1 0x20 SWAP2 DUP2 MSTORE ADD SWAP1 JUMP JUMPDEST SWAP1 DUP3 PUSH1 0x0 SWAP4 SWAP3 DUP3 CALLDATACOPY ADD MSTORE JUMP JUMPDEST SWAP2 SWAP1 PUSH2 0x1BFB DUP2 PUSH2 0x1BF4 DUP2 PUSH2 0x1C00 SWAP6 PUSH2 0x1BCC JUMP JUMPDEST DUP1 SWAP6 PUSH2 0x1BD5 JUMP JUMPDEST PUSH2 0xC8D JUMP JUMPDEST ADD SWAP1 JUMP JUMPDEST SWAP1 CALLDATALOAD PUSH1 0x1 PUSH1 0x40 SUB DUP3 CALLDATASIZE SUB SUB DUP2 SLT ISZERO PUSH2 0x1C1A JUMPI ADD SWAP1 JUMP JUMPDEST PUSH2 0x1B81 JUMP JUMPDEST SWAP1 CALLDATALOAD PUSH1 0x1 PUSH1 0x20 SUB DUP3 CALLDATASIZE SUB SUB DUP2 SLT ISZERO PUSH2 0x1C60 JUMPI ADD PUSH1 0x20 DUP2 CALLDATALOAD SWAP2 ADD SWAP2 PUSH8 0xFFFFFFFFFFFFFFFF DUP3 GT PUSH2 0x1C5B JUMPI PUSH1 0x1 DUP3 MUL CALLDATASIZE SUB DUP4 SGT PUSH2 0x1C56 JUMPI JUMP JUMPDEST PUSH2 0x1B7C JUMP JUMPDEST PUSH2 0x1B77 JUMP JUMPDEST PUSH2 0x1B81 JUMP JUMPDEST PUSH1 0x20 SWAP2 DUP2 MSTORE ADD SWAP1 JUMP JUMPDEST SWAP2 SWAP1 PUSH2 0x1C88 DUP2 PUSH2 0x1C81 DUP2 PUSH2 0x1C8D SWAP6 PUSH2 0x1C65 JUMP JUMPDEST DUP1 SWAP6 PUSH2 0x1BD5 JUMP JUMPDEST PUSH2 0xC8D JUMP JUMPDEST ADD SWAP1 JUMP JUMPDEST POP PUSH2 0x1CA0 SWAP1 PUSH1 0x20 DUP2 ADD SWAP1 PUSH2 0x76F JUMP JUMPDEST SWAP1 JUMP JUMPDEST SWAP1 PUSH2 0x1CE1 SWAP1 PUSH1 0x20 PUSH2 0x1CD9 PUSH2 0x1CCF PUSH1 0x40 DUP5 ADD PUSH2 0x1CC1 PUSH1 0x0 DUP9 ADD DUP9 PUSH2 0x1C1F JUMP JUMPDEST SWAP1 DUP7 DUP4 SUB PUSH1 0x0 DUP9 ADD MSTORE PUSH2 0x1C6E JUMP JUMPDEST SWAP5 DUP3 DUP2 ADD SWAP1 PUSH2 0x1C91 JUMP JUMPDEST SWAP2 ADD SWAP1 PUSH2 0x504 JUMP JUMPDEST SWAP1 JUMP JUMPDEST PUSH2 0x1D8E SWAP2 PUSH2 0x1D80 PUSH2 0x1D75 PUSH1 0xC0 DUP4 ADD PUSH2 0x1D0C PUSH2 0x1D02 PUSH1 0x0 DUP8 ADD DUP8 PUSH2 0x1B34 JUMP JUMPDEST PUSH1 0x0 DUP7 ADD SWAP1 PUSH2 0x4EA JUMP JUMPDEST PUSH2 0x1D26 PUSH2 0x1D1C PUSH1 0x20 DUP8 ADD DUP8 PUSH2 0x1B46 JUMP JUMPDEST PUSH1 0x20 DUP7 ADD SWAP1 PUSH2 0x1B58 JUMP JUMPDEST PUSH2 0x1D40 PUSH2 0x1D36 PUSH1 0x40 DUP8 ADD DUP8 PUSH2 0x1B65 JUMP JUMPDEST PUSH1 0x40 DUP7 ADD SWAP1 PUSH2 0x511 JUMP JUMPDEST PUSH2 0x1D5A PUSH2 0x1D50 PUSH1 0x60 DUP8 ADD DUP8 PUSH2 0x1B65 JUMP JUMPDEST PUSH1 0x60 DUP7 ADD SWAP1 PUSH2 0x511 JUMP JUMPDEST PUSH2 0x1D67 PUSH1 0x80 DUP7 ADD DUP7 PUSH2 0x1B86 JUMP JUMPDEST SWAP1 DUP6 DUP4 SUB PUSH1 0x80 DUP8 ADD MSTORE PUSH2 0x1BE1 JUMP JUMPDEST SWAP3 PUSH1 0xA0 DUP2 ADD SWAP1 PUSH2 0x1C04 JUMP JUMPDEST SWAP1 PUSH1 0xA0 DUP2 DUP5 SUB SWAP2 ADD MSTORE PUSH2 0x1CA3 JUMP JUMPDEST SWAP1 JUMP JUMPDEST SWAP4 SWAP3 SWAP1 PUSH2 0x1DBD PUSH1 0x40 SWAP2 PUSH2 0x1DC5 SWAP5 PUSH2 0x1DB0 PUSH1 0x60 DUP10 ADD SWAP3 PUSH1 0x0 DUP11 ADD SWAP1 PUSH2 0x84B JUMP JUMPDEST DUP8 DUP3 SUB PUSH1 0x20 DUP10 ADD MSTORE PUSH2 0x1CE4 JUMP JUMPDEST SWAP5 ADD SWAP1 PUSH2 0x413 JUMP JUMPDEST JUMP JUMPDEST SWAP2 POP PUSH1 0x20 SWAP1 PUSH2 0x1DD4 PUSH2 0xF74 JUMP JUMPDEST POP PUSH2 0x1DE7 PUSH2 0x1DE2 PUSH1 0x3 PUSH2 0x1AED JUMP JUMPDEST PUSH2 0x1AFA JUMP JUMPDEST PUSH2 0x1E13 PUSH4 0x3808A90B SWAP5 SWAP3 SWAP5 PUSH2 0x1E1E PUSH2 0x1DFF PUSH1 0x4 PUSH2 0xFBA JUMP JUMPDEST PUSH2 0x1E07 PUSH2 0x163 JUMP JUMPDEST SWAP8 DUP9 SWAP7 DUP8 SWAP6 DUP7 SWAP6 PUSH2 0xCD6 JUMP JUMPDEST DUP6 MSTORE PUSH1 0x4 DUP6 ADD PUSH2 0x1D91 JUMP JUMPDEST SUB SWAP2 GAS STATICCALL SWAP1 DUP2 ISZERO PUSH2 0x1E63 JUMPI PUSH1 0x0 SWAP2 PUSH2 0x1E35 JUMPI JUMPDEST POP SWAP1 JUMP JUMPDEST PUSH2 0x1E56 SWAP2 POP PUSH1 0x20 RETURNDATASIZE DUP2 GT PUSH2 0x1E5C JUMPI JUMPDEST PUSH2 0x1E4E DUP2 DUP4 PUSH2 0xCAD JUMP JUMPDEST DUP2 ADD SWAP1 PUSH2 0x1B15 JUMP JUMPDEST CODESIZE PUSH2 0x1E31 JUMP JUMPDEST POP RETURNDATASIZE PUSH2 0x1E44 JUMP JUMPDEST PUSH2 0xD10 JUMP JUMPDEST PUSH2 0x1E70 PUSH2 0x1A44 JUMP JUMPDEST POP PUSH2 0x1E7B PUSH1 0x5 PUSH2 0xC2C JUMP JUMPDEST SWAP1 JUMP JUMPDEST SWAP1 PUSH2 0x1E88 SWAP1 PUSH2 0x14F2 JUMP JUMPDEST PUSH1 0x0 MSTORE PUSH1 0x20 MSTORE PUSH1 0x40 PUSH1 0x0 KECCAK256 SWAP1 JUMP JUMPDEST SWAP1 PUSH2 0x1EA0 SWAP1 PUSH2 0xF79 JUMP JUMPDEST PUSH1 0x0 MSTORE PUSH1 0x20 MSTORE PUSH1 0x40 PUSH1 0x0 KECCAK256 SWAP1 JUMP JUMPDEST PUSH1 0x60 SHL SWAP1 JUMP JUMPDEST PUSH2 0x1EBD SWAP1 PUSH2 0x1EAE JUMP JUMPDEST SWAP1 JUMP JUMPDEST PUSH2 0x1EC9 SWAP1 PUSH2 0x1EB4 JUMP JUMPDEST SWAP1 JUMP JUMPDEST PUSH2 0x1ED8 PUSH2 0x1EDD SWAP2 PUSH2 0x22F JUMP JUMPDEST PUSH2 0x1EC0 JUMP JUMPDEST SWAP1 MSTORE JUMP JUMPDEST SWAP1 JUMP JUMPDEST PUSH2 0x1EF0 PUSH2 0x1EF5 SWAP2 PUSH2 0x3CD JUMP JUMPDEST PUSH2 0x1EE1 JUMP JUMPDEST SWAP1 MSTORE JUMP JUMPDEST PUSH1 0x14 DUP2 PUSH2 0x1F0C PUSH2 0x1F14 SWAP4 PUSH1 0x20 SWAP7 SWAP6 PUSH2 0x1ECC JUMP JUMPDEST ADD DUP1 SWAP3 PUSH2 0x1EE4 JUMP JUMPDEST ADD SWAP1 JUMP JUMPDEST PUSH1 0x20 ADD SWAP1 JUMP JUMPDEST MLOAD SWAP1 JUMP JUMPDEST PUSH8 0xFFFFFFFFFFFFFFFF DUP2 GT PUSH2 0x1F3A JUMPI PUSH1 0x20 DUP1 SWAP2 MUL ADD SWAP1 JUMP JUMPDEST PUSH2 0xC97 JUMP JUMPDEST SWAP1 SWAP3 SWAP2 SWAP3 PUSH2 0x1F54 PUSH2 0x1F4F DUP3 PUSH2 0x1F22 JUMP JUMPDEST PUSH2 0x101E JUMP JUMPDEST SWAP4 DUP2 DUP6 MSTORE PUSH1 0x20 DUP1 DUP7 ADD SWAP3 MUL DUP4 ADD SWAP3 DUP2 DUP5 GT PUSH2 0x1F91 JUMPI SWAP2 JUMPDEST DUP4 DUP4 LT PUSH2 0x1F78 JUMPI POP POP POP POP JUMP JUMPDEST PUSH1 0x20 DUP1 SWAP2 PUSH2 0x1F86 DUP5 DUP7 PUSH2 0x3E5 JUMP JUMPDEST DUP2 MSTORE ADD SWAP3 ADD SWAP2 PUSH2 0x1F6B JUMP JUMPDEST PUSH2 0x290 JUMP JUMPDEST PUSH2 0x1FA1 SWAP2 CALLDATASIZE SWAP2 PUSH2 0x1F3F JUMP JUMPDEST SWAP1 JUMP JUMPDEST SWAP1 SWAP4 SWAP3 SWAP2 SWAP3 PUSH2 0x1FB1 PUSH2 0xBAC JUMP JUMPDEST POP PUSH2 0x1FD9 PUSH2 0x1FD3 PUSH2 0x1FCE PUSH2 0x1FC7 PUSH1 0x2 DUP8 SWAP1 PUSH2 0x1E7E JUMP JUMPDEST DUP6 SWAP1 PUSH2 0x1E96 JUMP JUMPDEST PUSH2 0x14C2 JUMP JUMPDEST ISZERO PUSH2 0x1C7 JUMP JUMPDEST SWAP5 DUP6 PUSH2 0x1FE8 JUMPI JUMPDEST POP POP POP POP POP SWAP1 JUMP JUMPDEST PUSH2 0x203D SWAP6 POP SWAP1 PUSH2 0x201F PUSH2 0x2038 SWAP4 SWAP3 SWAP6 SWAP3 SWAP5 PUSH2 0x2010 PUSH2 0x2004 PUSH2 0x163 JUMP JUMPDEST SWAP4 DUP5 SWAP3 PUSH1 0x20 DUP5 ADD PUSH2 0x1EF9 JUMP JUMPDEST PUSH1 0x20 DUP3 ADD DUP2 SUB DUP3 MSTORE SUB DUP3 PUSH2 0xCAD JUMP JUMPDEST PUSH2 0x2031 PUSH2 0x202B DUP3 PUSH2 0x1F1E JUMP JUMPDEST SWAP2 PUSH2 0x1F18 JUMP JUMPDEST KECCAK256 SWAP4 PUSH2 0x1F96 JUMP JUMPDEST PUSH2 0x2694 JUMP JUMPDEST CODESIZE DUP1 DUP1 DUP1 DUP1 PUSH2 0x1FE0 JUMP JUMPDEST PUSH1 0x0 SWAP1 JUMP JUMPDEST PUSH2 0x206B PUSH2 0x2066 PUSH2 0x2070 SWAP3 PUSH2 0x205E PUSH2 0x2047 JUMP JUMPDEST POP PUSH1 0x1 PUSH2 0x1A49 JUMP JUMPDEST PUSH2 0x1A61 JUMP JUMPDEST PUSH2 0x26BE JUMP JUMPDEST SWAP1 JUMP JUMPDEST SWAP1 PUSH2 0x208E SWAP2 PUSH2 0x2089 PUSH2 0x2084 DUP3 PUSH2 0xFC7 JUMP JUMPDEST PUSH2 0x251A JUMP JUMPDEST PUSH2 0x2090 JUMP JUMPDEST JUMP JUMPDEST SWAP1 PUSH2 0x209A SWAP2 PUSH2 0x2565 JUMP JUMPDEST JUMP JUMPDEST SWAP1 PUSH2 0x20A6 SWAP2 PUSH2 0x2073 JUMP JUMPDEST JUMP JUMPDEST PUSH2 0x20C1 SWAP1 PUSH2 0x20BC PUSH2 0x20B7 PUSH2 0xEB3 JUMP JUMPDEST PUSH2 0x251A JUMP JUMPDEST PUSH2 0x20C3 JUMP JUMPDEST JUMP JUMPDEST PUSH2 0x20CE SWAP1 PUSH1 0x4 PUSH2 0x17CF JUMP JUMPDEST JUMP JUMPDEST PUSH2 0x20D9 SWAP1 PUSH2 0x20A8 JUMP JUMPDEST JUMP JUMPDEST PUSH2 0x20E3 PUSH2 0xBAC JUMP JUMPDEST POP DUP1 PUSH2 0x20F8 PUSH2 0x20F2 PUSH1 0x0 PUSH2 0x178 JUMP JUMPDEST SWAP2 PUSH2 0x178 JUMP JUMPDEST EQ SWAP1 DUP2 ISZERO PUSH2 0x2105 JUMPI JUMPDEST POP SWAP1 JUMP JUMPDEST PUSH2 0x210F SWAP2 POP PUSH2 0x26DE JUMP JUMPDEST CODESIZE PUSH2 0x2101 JUMP JUMPDEST PUSH2 0x211D PUSH2 0xBAC JUMP JUMPDEST POP PUSH2 0x2127 DUP2 PUSH2 0x26DE JUMP JUMPDEST SWAP1 DUP2 ISZERO PUSH2 0x2133 JUMPI JUMPDEST POP SWAP1 JUMP JUMPDEST PUSH2 0x213D SWAP2 POP PUSH2 0x271E JUMP JUMPDEST CODESIZE PUSH2 0x212F JUMP JUMPDEST SWAP2 PUSH1 0x20 PUSH2 0x2165 SWAP3 SWAP5 SWAP4 PUSH2 0x215E PUSH1 0x40 DUP3 ADD SWAP7 PUSH1 0x0 DUP4 ADD SWAP1 PUSH2 0xAE8 JUMP JUMPDEST ADD SWAP1 PUSH2 0xAE8 JUMP JUMPDEST JUMP JUMPDEST PUSH4 0x4E487B71 PUSH1 0xE0 SHL PUSH1 0x0 MSTORE PUSH1 0x11 PUSH1 0x4 MSTORE PUSH1 0x24 PUSH1 0x0 REVERT JUMPDEST PUSH2 0x218C PUSH2 0x2192 SWAP2 SWAP4 SWAP3 SWAP4 PUSH2 0x25F JUMP JUMPDEST SWAP3 PUSH2 0x25F JUMP JUMPDEST DUP3 SUB SWAP2 DUP3 GT PUSH2 0x219D JUMPI JUMP JUMPDEST PUSH2 0x2167 JUMP JUMPDEST PUSH1 0x0 SWAP1 JUMP JUMPDEST PUSH2 0x21B6 PUSH2 0x21BC SWAP2 SWAP4 SWAP3 SWAP4 PUSH2 0x25F JUMP JUMPDEST SWAP3 PUSH2 0x25F JUMP JUMPDEST SWAP2 PUSH2 0x21C8 DUP4 DUP3 MUL PUSH2 0x25F JUMP JUMPDEST SWAP3 DUP2 DUP5 DIV EQ SWAP1 ISZERO OR ISZERO PUSH2 0x21D7 JUMPI JUMP JUMPDEST PUSH2 0x2167 JUMP JUMPDEST PUSH2 0x21E5 SWAP1 PUSH2 0x164E JUMP JUMPDEST SWAP1 MSTORE JUMP JUMPDEST PUSH1 0x40 SWAP1 PUSH2 0x2213 PUSH2 0x221A SWAP5 SWAP7 SWAP6 SWAP4 SWAP7 PUSH2 0x2209 PUSH1 0x60 DUP5 ADD SWAP9 PUSH1 0x0 DUP6 ADD SWAP1 PUSH2 0x84B JUMP JUMPDEST PUSH1 0x20 DUP4 ADD SWAP1 PUSH2 0xAE8 JUMP JUMPDEST ADD SWAP1 PUSH2 0x21DC JUMP JUMPDEST JUMP JUMPDEST PUSH1 0x40 SWAP1 PUSH2 0x2246 PUSH2 0x224D SWAP5 SWAP7 SWAP6 SWAP4 SWAP7 PUSH2 0x223C PUSH1 0x60 DUP5 ADD SWAP9 PUSH1 0x0 DUP6 ADD SWAP1 PUSH2 0x84B JUMP JUMPDEST PUSH1 0x20 DUP4 ADD SWAP1 PUSH2 0xAE8 JUMP JUMPDEST ADD SWAP1 PUSH2 0xAE8 JUMP JUMPDEST JUMP JUMPDEST PUSH2 0x2263 PUSH2 0x225E PUSH2 0x2268 SWAP3 PUSH2 0x9A5 JUMP JUMPDEST PUSH2 0xC39 JUMP JUMPDEST PUSH2 0x224 JUMP JUMPDEST SWAP1 JUMP JUMPDEST PUSH2 0x2274 SWAP1 PUSH2 0x224F JUMP JUMPDEST SWAP1 JUMP JUMPDEST PUSH2 0x2280 SWAP1 PUSH2 0xC70 JUMP JUMPDEST SWAP1 JUMP JUMPDEST PUSH1 0x40 SWAP1 PUSH2 0x22AD PUSH2 0x22B4 SWAP5 SWAP7 SWAP6 SWAP4 SWAP7 PUSH2 0x22A3 PUSH1 0x60 DUP5 ADD SWAP9 PUSH1 0x0 DUP6 ADD SWAP1 PUSH2 0x84B JUMP JUMPDEST PUSH1 0x20 DUP4 ADD SWAP1 PUSH2 0x21DC JUMP JUMPDEST ADD SWAP1 PUSH2 0xAE8 JUMP JUMPDEST JUMP JUMPDEST SWAP2 SWAP4 SWAP3 SWAP1 SWAP3 PUSH2 0x22F0 PUSH2 0x22CB PUSH1 0x2 PUSH1 0x6 ADD PUSH2 0x113D JUMP JUMPDEST PUSH2 0x22EA PUSH2 0x22E4 PUSH2 0x22DE PUSH1 0x3 PUSH1 0x6 ADD PUSH2 0x116C JUMP JUMPDEST SWAP3 PUSH2 0x1632 JUMP JUMPDEST SWAP2 PUSH2 0x1632 JUMP JUMPDEST SWAP1 PUSH2 0x275E JUMP JUMPDEST PUSH2 0x24FD JUMPI PUSH2 0x2301 PUSH1 0x0 PUSH1 0x6 ADD PUSH2 0x10CC JUMP JUMPDEST PUSH2 0x2313 PUSH2 0x230D DUP6 PUSH2 0x25F JUMP JUMPDEST SWAP2 PUSH2 0x25F JUMP JUMPDEST LT PUSH2 0x24D0 JUMPI DUP3 SWAP2 PUSH2 0x2361 SWAP2 PUSH2 0x2342 PUSH2 0x2373 SWAP6 PUSH2 0x233C PUSH1 0x0 PUSH1 0x6 ADD SWAP2 PUSH2 0x2337 DUP4 PUSH2 0x10CC JUMP JUMPDEST PUSH2 0x217D JUMP JUMPDEST SWAP1 PUSH2 0x16BA JUMP JUMPDEST PUSH2 0x234F PUSH1 0x4 PUSH1 0x6 ADD PUSH2 0xFBA JUMP JUMPDEST SWAP2 SWAP1 CALLER SWAP2 PUSH2 0x235B PUSH2 0x21A2 JUMP JUMPDEST SWAP4 PUSH2 0x2855 JUMP JUMPDEST PUSH2 0x236E PUSH1 0x1 PUSH1 0x6 ADD PUSH2 0x10CC JUMP JUMPDEST PUSH2 0x21A7 JUMP JUMPDEST SWAP2 DUP2 PUSH2 0x2393 PUSH2 0x238D PUSH2 0x2388 PUSH1 0x2 PUSH1 0x6 ADD PUSH2 0x10FB JUMP JUMPDEST PUSH2 0x22F JUMP JUMPDEST SWAP2 PUSH2 0x22F JUMP JUMPDEST SUB PUSH2 0x24A2 JUMPI DUP1 PUSH2 0x23AB PUSH2 0x23A5 DUP6 PUSH2 0x25F JUMP JUMPDEST SWAP2 PUSH2 0x25F JUMP JUMPDEST LT PUSH2 0x247F JUMPI POP DUP1 PUSH2 0x23CD PUSH2 0x23C7 PUSH2 0x23C2 PUSH1 0x0 PUSH2 0x226B JUMP JUMPDEST PUSH2 0x22F JUMP JUMPDEST SWAP2 PUSH2 0x22F JUMP JUMPDEST EQ PUSH1 0x0 EQ PUSH2 0x2412 JUMPI CALLVALUE PUSH2 0x23E8 PUSH2 0x23E2 DUP5 PUSH2 0x25F JUMP JUMPDEST SWAP2 PUSH2 0x25F JUMP JUMPDEST SUB PUSH2 0x23F2 JUMPI POP POP JUMPDEST JUMP JUMPDEST PUSH2 0x240E CALLVALUE PUSH1 0x0 SWAP4 DUP5 SWAP4 PUSH4 0xF55E7DF PUSH1 0xE1 SHL DUP6 MSTORE PUSH1 0x4 DUP6 ADD PUSH2 0x221C JUMP JUMPDEST SUB SWAP1 REVERT JUMPDEST SWAP1 CALLVALUE PUSH2 0x2427 PUSH2 0x2421 PUSH1 0x0 PUSH2 0x164E JUMP JUMPDEST SWAP2 PUSH2 0x25F JUMP JUMPDEST GT PUSH1 0x0 EQ PUSH2 0x245C JUMPI PUSH2 0x2439 PUSH1 0x0 PUSH2 0x226B JUMP JUMPDEST PUSH1 0x0 SWAP1 PUSH2 0x2458 CALLVALUE PUSH1 0x0 SWAP4 DUP5 SWAP4 PUSH4 0xF55E7DF PUSH1 0xE1 SHL DUP6 MSTORE PUSH1 0x4 DUP6 ADD PUSH2 0x2283 JUMP JUMPDEST SUB SWAP1 REVERT JUMPDEST PUSH2 0x2468 PUSH2 0x247A SWAP3 PUSH2 0x1373 JUMP JUMPDEST SWAP1 CALLER PUSH2 0x2473 ADDRESS PUSH2 0x2277 JUMP JUMPDEST SWAP2 SWAP3 PUSH2 0x2928 JUMP JUMPDEST PUSH2 0x23F0 JUMP JUMPDEST DUP3 PUSH2 0x249E DUP4 SWAP2 SWAP3 PUSH1 0x0 SWAP4 DUP5 SWAP4 PUSH4 0xF55E7DF PUSH1 0xE1 SHL DUP6 MSTORE PUSH1 0x4 DUP6 ADD PUSH2 0x221C JUMP JUMPDEST SUB SWAP1 REVERT JUMPDEST DUP3 PUSH2 0x24B0 PUSH1 0x2 PUSH1 0x6 ADD PUSH2 0x10FB JUMP JUMPDEST PUSH2 0x24CC PUSH1 0x0 DUP1 SWAP4 DUP5 SWAP4 PUSH4 0xF55E7DF PUSH1 0xE1 SHL DUP6 MSTORE PUSH1 0x4 DUP6 ADD PUSH2 0x21E9 JUMP JUMPDEST SUB SWAP1 REVERT JUMPDEST DUP3 PUSH2 0x24DE PUSH1 0x0 PUSH1 0x6 ADD PUSH2 0x10CC JUMP JUMPDEST PUSH2 0x24F9 PUSH1 0x0 SWAP3 DUP4 SWAP3 PUSH4 0x9E4C4461 PUSH1 0xE0 SHL DUP5 MSTORE PUSH1 0x4 DUP5 ADD PUSH2 0x2143 JUMP JUMPDEST SUB SWAP1 REVERT JUMPDEST PUSH1 0x0 PUSH4 0xFE219DD PUSH1 0xE2 SHL DUP2 MSTORE DUP1 PUSH2 0x2516 PUSH1 0x4 DUP3 ADD PUSH2 0x345 JUMP JUMPDEST SUB SWAP1 REVERT JUMPDEST PUSH2 0x252C SWAP1 PUSH2 0x2526 PUSH2 0x2558 JUMP JUMPDEST SWAP1 PUSH2 0x2AE4 JUMP JUMPDEST JUMP JUMPDEST SWAP1 PUSH2 0x2550 PUSH2 0x254B PUSH2 0x2555 SWAP4 PUSH2 0x2544 DUP2 DUP6 SWAP1 PUSH2 0x2B7D JUMP JUMPDEST PUSH1 0x1 PUSH2 0x1A49 JUMP JUMPDEST PUSH2 0x1A61 JUMP JUMPDEST PUSH2 0x2C63 JUMP JUMPDEST POP JUMP JUMPDEST PUSH2 0x2560 PUSH2 0x1A44 JUMP JUMPDEST POP CALLER SWAP1 JUMP JUMPDEST SWAP1 PUSH2 0x2587 PUSH2 0x2582 PUSH2 0x258C SWAP4 PUSH2 0x257B DUP2 DUP6 SWAP1 PUSH2 0x2C9E JUMP JUMPDEST PUSH1 0x1 PUSH2 0x1A49 JUMP JUMPDEST PUSH2 0x1A61 JUMP JUMPDEST PUSH2 0x2D37 JUMP JUMPDEST POP JUMP JUMPDEST PUSH2 0x2598 SWAP1 PUSH2 0xC70 JUMP JUMPDEST SWAP1 JUMP JUMPDEST PUSH4 0xFFFFFFFF AND SWAP1 JUMP JUMPDEST PUSH2 0x25B8 PUSH2 0x25B3 PUSH2 0x25BD SWAP3 PUSH2 0x259B JUMP JUMPDEST PUSH2 0xCD6 JUMP JUMPDEST PUSH2 0x178 JUMP JUMPDEST SWAP1 JUMP JUMPDEST SWAP2 PUSH2 0x2604 PUSH1 0x4 SWAP3 PUSH2 0x25F5 PUSH2 0x2609 SWAP6 SWAP4 PUSH2 0x25DC PUSH4 0xA9059CBB PUSH2 0x25A4 JUMP JUMPDEST SWAP3 PUSH2 0x25E5 PUSH2 0x163 JUMP JUMPDEST SWAP7 DUP8 SWAP5 PUSH1 0x20 DUP7 ADD SWAP1 DUP2 MSTORE ADD PUSH2 0xCEC JUMP JUMPDEST PUSH1 0x20 DUP3 ADD DUP2 SUB DUP3 MSTORE SUB DUP4 PUSH2 0xCAD JUMP JUMPDEST PUSH2 0x2EE5 JUMP JUMPDEST JUMP JUMPDEST SWAP1 PUSH2 0x2621 PUSH2 0x2626 SWAP4 SWAP3 PUSH2 0x261C PUSH2 0xEB3 JUMP JUMPDEST PUSH2 0x252E JUMP JUMPDEST PUSH2 0x2F52 JUMP JUMPDEST JUMP JUMPDEST SWAP1 JUMP JUMPDEST PUSH2 0x2637 PUSH2 0x263C SWAP2 PUSH2 0xF9D JUMP JUMPDEST PUSH2 0x169B JUMP JUMPDEST SWAP1 JUMP JUMPDEST PUSH2 0x2653 PUSH2 0x264E PUSH2 0x2658 SWAP3 PUSH2 0x25F JUMP JUMPDEST PUSH2 0xC39 JUMP JUMPDEST PUSH2 0x224 JUMP JUMPDEST SWAP1 JUMP JUMPDEST PUSH2 0x2687 PUSH2 0x2682 PUSH2 0x2691 SWAP4 PUSH2 0x267D PUSH1 0x0 PUSH2 0x268C SWAP6 PUSH2 0x2676 PUSH2 0x1A44 JUMP JUMPDEST POP ADD PUSH2 0x2628 JUMP JUMPDEST PUSH2 0x2FEA JUMP JUMPDEST PUSH2 0x262B JUMP JUMPDEST PUSH2 0x263F JUMP JUMPDEST PUSH2 0xC70 JUMP JUMPDEST SWAP1 JUMP JUMPDEST PUSH2 0x26AE PUSH2 0x26BA SWAP3 SWAP4 PUSH2 0x26B4 SWAP3 PUSH2 0x26A8 PUSH2 0xBAC JUMP JUMPDEST POP PUSH2 0x303F JUMP JUMPDEST SWAP3 PUSH2 0x3CD JUMP JUMPDEST SWAP2 PUSH2 0x3CD JUMP JUMPDEST EQ SWAP1 JUMP JUMPDEST PUSH2 0x26D6 PUSH1 0x0 PUSH2 0x26DB SWAP3 PUSH2 0x26CF PUSH2 0x2047 JUMP JUMPDEST POP ADD PUSH2 0x2628 JUMP JUMPDEST PUSH2 0x30AA JUMP JUMPDEST SWAP1 JUMP JUMPDEST PUSH2 0x26E6 PUSH2 0xBAC JUMP JUMPDEST POP DUP1 PUSH2 0x2701 PUSH2 0x26FB PUSH4 0x5A05180F PUSH1 0xE0 SHL PUSH2 0x178 JUMP JUMPDEST SWAP2 PUSH2 0x178 JUMP JUMPDEST EQ SWAP1 DUP2 ISZERO PUSH2 0x270E JUMPI JUMPDEST POP SWAP1 JUMP JUMPDEST PUSH2 0x2718 SWAP2 POP PUSH2 0x30C2 JUMP JUMPDEST CODESIZE PUSH2 0x270A JUMP JUMPDEST PUSH2 0x2726 PUSH2 0xBAC JUMP JUMPDEST POP DUP1 PUSH2 0x2741 PUSH2 0x273B PUSH4 0x4E821D33 PUSH1 0xE1 SHL PUSH2 0x178 JUMP JUMPDEST SWAP2 PUSH2 0x178 JUMP JUMPDEST EQ SWAP1 DUP2 ISZERO PUSH2 0x274E JUMPI JUMPDEST POP SWAP1 JUMP JUMPDEST PUSH2 0x2758 SWAP2 POP PUSH2 0x20DB JUMP JUMPDEST CODESIZE PUSH2 0x274A JUMP JUMPDEST PUSH2 0x2766 PUSH2 0xBAC JUMP JUMPDEST POP DUP2 PUSH2 0x277B PUSH2 0x2775 PUSH1 0x0 PUSH2 0x164E JUMP JUMPDEST SWAP2 PUSH2 0x25F JUMP JUMPDEST EQ SWAP1 DUP2 ISZERO PUSH2 0x27AE JUMPI JUMPDEST POP SWAP1 DUP2 ISZERO PUSH2 0x2791 JUMPI JUMPDEST POP SWAP1 JUMP JUMPDEST SWAP1 POP PUSH2 0x27A6 PUSH2 0x27A0 TIMESTAMP SWAP3 PUSH2 0x25F JUMP JUMPDEST SWAP2 PUSH2 0x25F JUMP JUMPDEST LT ISZERO CODESIZE PUSH2 0x278D JUMP JUMPDEST SWAP1 POP PUSH2 0x27C3 PUSH2 0x27BD TIMESTAMP SWAP3 PUSH2 0x25F JUMP JUMPDEST SWAP2 PUSH2 0x25F JUMP JUMPDEST LT CODESIZE PUSH2 0x2784 JUMP JUMPDEST PUSH1 0x20 SWAP2 DUP2 MSTORE ADD SWAP1 JUMP JUMPDEST PUSH1 0x0 DUP1 REVERT JUMPDEST SWAP1 CALLDATACOPY JUMP JUMPDEST SWAP1 SWAP2 DUP3 PUSH2 0x27E8 SWAP2 PUSH2 0x27CA JUMP JUMPDEST SWAP2 PUSH1 0x1 DUP1 PUSH1 0xFB SHL SUB DUP2 GT PUSH2 0x280B JUMPI DUP3 SWAP2 PUSH1 0x20 PUSH2 0x2807 SWAP3 MUL SWAP4 DUP5 SWAP2 PUSH2 0x27D8 JUMP JUMPDEST ADD SWAP1 JUMP JUMPDEST PUSH2 0x27D3 JUMP JUMPDEST SWAP1 PUSH2 0x2841 PUSH2 0x284C SWAP2 PUSH2 0x2853 SWAP7 SWAP9 SWAP8 SWAP6 PUSH1 0x60 SWAP6 PUSH2 0x2834 PUSH1 0x80 DUP8 ADD SWAP4 PUSH1 0x0 DUP9 ADD SWAP1 PUSH2 0x413 JUMP JUMPDEST DUP6 DUP4 SUB PUSH1 0x20 DUP8 ADD MSTORE PUSH2 0x27DC JUMP JUMPDEST SWAP7 PUSH1 0x40 DUP4 ADD SWAP1 PUSH2 0x84B JUMP JUMPDEST ADD SWAP1 PUSH2 0x413 JUMP JUMPDEST JUMP JUMPDEST SWAP3 SWAP4 DUP4 PUSH2 0x2873 PUSH2 0x286D PUSH2 0x2868 PUSH1 0x0 PUSH2 0x9AE JUMP JUMPDEST PUSH2 0x3CD JUMP JUMPDEST SWAP2 PUSH2 0x3CD JUMP JUMPDEST SUB PUSH2 0x2880 JUMPI JUMPDEST POP POP POP POP POP JUMP JUMPDEST PUSH2 0x2898 PUSH2 0x2892 DUP6 DUP5 DUP7 DUP10 SWAP2 DUP7 SWAP4 PUSH2 0x1FA4 JUMP JUMPDEST ISZERO PUSH2 0x1C7 JUMP JUMPDEST PUSH2 0x28C8 JUMPI POP POP POP SWAP1 PUSH2 0x28B9 PUSH2 0x28BE SWAP3 PUSH2 0x28B4 PUSH1 0x1 SWAP4 PUSH1 0x2 PUSH2 0x1E7E JUMP JUMPDEST PUSH2 0x1E96 JUMP JUMPDEST PUSH2 0x156A JUMP JUMPDEST CODESIZE DUP1 DUP1 DUP1 DUP1 PUSH2 0x2879 JUMP JUMPDEST DUP5 PUSH2 0x28F1 SWAP2 DUP6 SWAP4 SWAP5 SWAP2 SWAP1 SWAP2 PUSH2 0x28DB PUSH2 0x163 JUMP JUMPDEST SWAP6 DUP7 SWAP6 PUSH4 0x4CB8CD5 PUSH1 0xE3 SHL DUP8 MSTORE PUSH1 0x4 DUP8 ADD PUSH2 0x2810 JUMP JUMPDEST SUB SWAP1 REVERT JUMPDEST PUSH1 0x40 SWAP1 PUSH2 0x291F PUSH2 0x2926 SWAP5 SWAP7 SWAP6 SWAP4 SWAP7 PUSH2 0x2915 PUSH1 0x60 DUP5 ADD SWAP9 PUSH1 0x0 DUP6 ADD SWAP1 PUSH2 0x84B JUMP JUMPDEST PUSH1 0x20 DUP4 ADD SWAP1 PUSH2 0x84B JUMP JUMPDEST ADD SWAP1 PUSH2 0xAE8 JUMP JUMPDEST JUMP JUMPDEST PUSH2 0x2975 SWAP4 SWAP2 PUSH2 0x2961 PUSH1 0x4 SWAP5 PUSH2 0x2970 SWAP4 SWAP5 PUSH2 0x2945 PUSH4 0x23B872DD PUSH2 0x25A4 JUMP JUMPDEST SWAP4 SWAP2 SWAP1 SWAP2 PUSH2 0x2951 PUSH2 0x163 JUMP JUMPDEST SWAP8 DUP9 SWAP6 PUSH1 0x20 DUP8 ADD SWAP1 DUP2 MSTORE ADD PUSH2 0x28F5 JUMP JUMPDEST PUSH1 0x20 DUP3 ADD DUP2 SUB DUP3 MSTORE SUB DUP4 PUSH2 0xCAD JUMP JUMPDEST PUSH2 0x2EE5 JUMP JUMPDEST JUMP JUMPDEST SWAP1 JUMP JUMPDEST PUSH2 0x298E PUSH2 0x2989 PUSH2 0x2993 SWAP3 PUSH2 0x2977 JUMP JUMPDEST PUSH2 0xC39 JUMP JUMPDEST PUSH2 0x25F JUMP JUMPDEST SWAP1 JUMP JUMPDEST SWAP1 POP SWAP1 JUMP JUMPDEST PUSH1 0x0 PUSH32 0x416363657373436F6E74726F6C3A206163636F756E7420000000000000000000 SWAP2 ADD MSTORE JUMP JUMPDEST PUSH2 0x29CF PUSH1 0x17 DUP1 SWAP3 PUSH2 0x2996 JUMP JUMPDEST PUSH2 0x29D8 DUP2 PUSH2 0x299B JUMP JUMPDEST ADD SWAP1 JUMP JUMPDEST MLOAD SWAP1 JUMP JUMPDEST PUSH1 0x0 JUMPDEST DUP4 DUP2 LT PUSH2 0x29F4 JUMPI POP POP SWAP1 PUSH1 0x0 SWAP2 ADD MSTORE JUMP JUMPDEST DUP1 PUSH1 0x20 SWAP2 DUP4 ADD MLOAD DUP2 DUP6 ADD MSTORE ADD PUSH2 0x29E3 JUMP JUMPDEST PUSH2 0x2A2A PUSH2 0x2A21 SWAP3 PUSH1 0x20 SWAP3 PUSH2 0x2A18 DUP2 PUSH2 0x29DC JUMP JUMPDEST SWAP5 DUP6 DUP1 SWAP4 PUSH2 0x2996 JUMP JUMPDEST SWAP4 DUP5 SWAP2 ADD PUSH2 0x29E0 JUMP JUMPDEST ADD SWAP1 JUMP JUMPDEST PUSH1 0x0 PUSH32 0x206973206D697373696E6720726F6C6520000000000000000000000000000000 SWAP2 ADD MSTORE JUMP JUMPDEST PUSH2 0x2A62 PUSH1 0x11 DUP1 SWAP3 PUSH2 0x2996 JUMP JUMPDEST PUSH2 0x2A6B DUP2 PUSH2 0x2A2E JUMP JUMPDEST ADD SWAP1 JUMP JUMPDEST PUSH2 0x2A89 PUSH2 0x2A94 SWAP4 SWAP3 PUSH2 0x2A83 PUSH2 0x2A8E SWAP4 PUSH2 0x29C3 JUMP JUMPDEST SWAP1 PUSH2 0x2A05 JUMP JUMPDEST PUSH2 0x2A56 JUMP JUMPDEST SWAP1 PUSH2 0x2A05 JUMP JUMPDEST SWAP1 JUMP JUMPDEST SWAP1 JUMP JUMPDEST PUSH2 0x2AB9 PUSH2 0x2AC2 PUSH1 0x20 SWAP4 PUSH2 0x2AC7 SWAP4 PUSH2 0x2AB0 DUP2 PUSH2 0x29DC JUMP JUMPDEST SWAP4 DUP5 DUP1 SWAP4 PUSH2 0x1244 JUMP JUMPDEST SWAP6 DUP7 SWAP2 ADD PUSH2 0x29E0 JUMP JUMPDEST PUSH2 0xC8D JUMP JUMPDEST ADD SWAP1 JUMP JUMPDEST PUSH2 0x2AE1 SWAP2 PUSH1 0x20 DUP3 ADD SWAP2 PUSH1 0x0 DUP2 DUP5 SUB SWAP2 ADD MSTORE PUSH2 0x2A9A JUMP JUMPDEST SWAP1 JUMP JUMPDEST SWAP1 PUSH2 0x2AF9 PUSH2 0x2AF3 DUP4 DUP4 SWAP1 PUSH2 0x1AA4 JUMP JUMPDEST ISZERO PUSH2 0x1C7 JUMP JUMPDEST PUSH2 0x2B01 JUMPI POP POP JUMP JUMPDEST PUSH2 0x2B79 SWAP2 PUSH2 0x2B57 PUSH2 0x2B30 PUSH2 0x2B20 PUSH2 0x2B1A PUSH2 0x2B5C SWAP6 PUSH2 0x3155 JUMP JUMPDEST SWAP4 PUSH2 0x262B JUMP JUMPDEST PUSH2 0x2B2A PUSH1 0x20 PUSH2 0x297A JUMP JUMPDEST SWAP1 PUSH2 0x3378 JUMP JUMPDEST SWAP2 PUSH2 0x2B48 PUSH2 0x2B3C PUSH2 0x163 JUMP JUMPDEST SWAP4 DUP5 SWAP3 PUSH1 0x20 DUP5 ADD PUSH2 0x2A6F JUMP JUMPDEST PUSH1 0x20 DUP3 ADD DUP2 SUB DUP3 MSTORE SUB DUP3 PUSH2 0xCAD JUMP JUMPDEST PUSH2 0x2A97 JUMP JUMPDEST PUSH2 0x2B64 PUSH2 0x163 JUMP JUMPDEST SWAP2 DUP3 SWAP2 PUSH3 0x461BCD PUSH1 0xE5 SHL DUP4 MSTORE PUSH1 0x4 DUP4 ADD PUSH2 0x2ACB JUMP JUMPDEST SUB SWAP1 REVERT JUMPDEST PUSH2 0x2B91 PUSH2 0x2B8B DUP3 DUP5 SWAP1 PUSH2 0x1AA4 JUMP JUMPDEST ISZERO PUSH2 0x1C7 JUMP JUMPDEST PUSH2 0x2B9A JUMPI JUMPDEST POP POP JUMP JUMPDEST PUSH2 0x2BBC PUSH1 0x1 PUSH2 0x2BB7 PUSH1 0x0 PUSH2 0x2BAF DUP2 DUP7 SWAP1 PUSH2 0xF85 JUMP JUMPDEST ADD DUP6 SWAP1 PUSH2 0x1A8C JUMP JUMPDEST PUSH2 0x156A JUMP JUMPDEST SWAP1 PUSH2 0x2BC5 PUSH2 0x2558 JUMP JUMPDEST SWAP1 PUSH2 0x2C02 PUSH2 0x2BFC PUSH2 0x2BF6 PUSH32 0x2F8788117E7EFF1D82E926EC794901D17C78024A50270940304540A733656F0D SWAP6 PUSH2 0xF79 JUMP JUMPDEST SWAP3 PUSH2 0x14F2 JUMP JUMPDEST SWAP3 PUSH2 0x14F2 JUMP JUMPDEST SWAP3 PUSH2 0x2C0B PUSH2 0x163 JUMP JUMPDEST DUP1 PUSH2 0x2C15 DUP2 PUSH2 0x345 JUMP JUMPDEST SUB SWAP1 LOG4 CODESIZE DUP1 PUSH2 0x2B96 JUMP JUMPDEST PUSH2 0x2C28 SWAP1 PUSH2 0xC3C JUMP JUMPDEST SWAP1 JUMP JUMPDEST PUSH2 0x2C3F PUSH2 0x2C3A PUSH2 0x2C44 SWAP3 PUSH2 0x224 JUMP JUMPDEST PUSH2 0xC39 JUMP JUMPDEST PUSH2 0x25F JUMP JUMPDEST SWAP1 JUMP JUMPDEST PUSH2 0x2C5B PUSH2 0x2C56 PUSH2 0x2C60 SWAP3 PUSH2 0x25F JUMP JUMPDEST PUSH2 0x9A8 JUMP JUMPDEST PUSH2 0x3CD JUMP JUMPDEST SWAP1 JUMP JUMPDEST SWAP1 PUSH2 0x2C96 PUSH2 0x2C90 PUSH2 0x2C8B PUSH2 0x2C86 PUSH1 0x0 PUSH2 0x2C9B SWAP7 PUSH2 0x2C7E PUSH2 0xBAC JUMP JUMPDEST POP ADD SWAP5 PUSH2 0x2C1F JUMP JUMPDEST PUSH2 0x2C2B JUMP JUMPDEST PUSH2 0x2C47 JUMP JUMPDEST SWAP2 PUSH2 0x2628 JUMP JUMPDEST PUSH2 0x3598 JUMP JUMPDEST SWAP1 JUMP JUMPDEST PUSH2 0x2CA9 DUP2 DUP4 SWAP1 PUSH2 0x1AA4 JUMP JUMPDEST PUSH2 0x2CB2 JUMPI JUMPDEST POP POP JUMP JUMPDEST PUSH2 0x2CD4 PUSH1 0x0 PUSH2 0x2CCF PUSH1 0x0 PUSH2 0x2CC7 DUP2 DUP7 SWAP1 PUSH2 0xF85 JUMP JUMPDEST ADD DUP6 SWAP1 PUSH2 0x1A8C JUMP JUMPDEST PUSH2 0x156A JUMP JUMPDEST SWAP1 PUSH2 0x2CDD PUSH2 0x2558 JUMP JUMPDEST SWAP1 PUSH2 0x2D1A PUSH2 0x2D14 PUSH2 0x2D0E PUSH32 0xF6391F5C32D9C69D2A47EA670B442974B53935D1EDC7FD64EB21E047A839171B SWAP6 PUSH2 0xF79 JUMP JUMPDEST SWAP3 PUSH2 0x14F2 JUMP JUMPDEST SWAP3 PUSH2 0x14F2 JUMP JUMPDEST SWAP3 PUSH2 0x2D23 PUSH2 0x163 JUMP JUMPDEST DUP1 PUSH2 0x2D2D DUP2 PUSH2 0x345 JUMP JUMPDEST SUB SWAP1 LOG4 CODESIZE DUP1 PUSH2 0x2CAE JUMP JUMPDEST SWAP1 PUSH2 0x2D6A PUSH2 0x2D64 PUSH2 0x2D5F PUSH2 0x2D5A PUSH1 0x0 PUSH2 0x2D6F SWAP7 PUSH2 0x2D52 PUSH2 0xBAC JUMP JUMPDEST POP ADD SWAP5 PUSH2 0x2C1F JUMP JUMPDEST PUSH2 0x2C2B JUMP JUMPDEST PUSH2 0x2C47 JUMP JUMPDEST SWAP2 PUSH2 0x2628 JUMP JUMPDEST PUSH2 0x368E JUMP JUMPDEST SWAP1 JUMP JUMPDEST PUSH8 0xFFFFFFFFFFFFFFFF DUP2 GT PUSH2 0x2D90 JUMPI PUSH2 0x2D8C PUSH1 0x20 SWAP2 PUSH2 0xC8D JUMP JUMPDEST ADD SWAP1 JUMP JUMPDEST PUSH2 0xC97 JUMP JUMPDEST SWAP1 PUSH2 0x2DA7 PUSH2 0x2DA2 DUP4 PUSH2 0x2D72 JUMP JUMPDEST PUSH2 0x101E JUMP JUMPDEST SWAP2 DUP3 MSTORE JUMP JUMPDEST PUSH1 0x0 PUSH32 0x5361666545524332303A206C6F772D6C6576656C2063616C6C206661696C6564 SWAP2 ADD MSTORE JUMP JUMPDEST PUSH2 0x2DDE PUSH1 0x20 PUSH2 0x2D95 JUMP JUMPDEST SWAP1 PUSH2 0x2DEB PUSH1 0x20 DUP4 ADD PUSH2 0x2DAC JUMP JUMPDEST JUMP JUMPDEST PUSH2 0x2DF5 PUSH2 0x2DD4 JUMP JUMPDEST SWAP1 JUMP JUMPDEST PUSH2 0x2E01 DUP2 PUSH2 0x1C7 JUMP JUMPDEST SUB PUSH2 0x2E08 JUMPI JUMP JUMPDEST PUSH1 0x0 DUP1 REVERT JUMPDEST SWAP1 POP MLOAD SWAP1 PUSH2 0x2E1A DUP3 PUSH2 0x2DF8 JUMP JUMPDEST JUMP JUMPDEST SWAP1 PUSH1 0x20 DUP3 DUP3 SUB SLT PUSH2 0x2E36 JUMPI PUSH2 0x2E33 SWAP2 PUSH1 0x0 ADD PUSH2 0x2E0D JUMP JUMPDEST SWAP1 JUMP JUMPDEST PUSH2 0x16E JUMP JUMPDEST PUSH1 0x20 PUSH32 0x6F74207375636365656400000000000000000000000000000000000000000000 SWAP2 PUSH32 0x5361666545524332303A204552433230206F7065726174696F6E20646964206E PUSH1 0x0 DUP3 ADD MSTORE ADD MSTORE JUMP JUMPDEST PUSH2 0x2E96 PUSH1 0x2A PUSH1 0x40 SWAP3 PUSH2 0x1244 JUMP JUMPDEST PUSH2 0x2E9F DUP2 PUSH2 0x2E3B JUMP JUMPDEST ADD SWAP1 JUMP JUMPDEST PUSH2 0x2EB9 SWAP1 PUSH1 0x20 DUP2 ADD SWAP1 PUSH1 0x0 DUP2 DUP4 SUB SWAP2 ADD MSTORE PUSH2 0x2E89 JUMP JUMPDEST SWAP1 JUMP JUMPDEST ISZERO PUSH2 0x2EC3 JUMPI JUMP JUMPDEST PUSH2 0x2ECB PUSH2 0x163 JUMP JUMPDEST PUSH3 0x461BCD PUSH1 0xE5 SHL DUP2 MSTORE DUP1 PUSH2 0x2EE1 PUSH1 0x4 DUP3 ADD PUSH2 0x2EA3 JUMP JUMPDEST SUB SWAP1 REVERT JUMPDEST PUSH2 0x2F2F SWAP2 PUSH2 0x2EF5 PUSH2 0x2F04 SWAP3 PUSH2 0x258F JUMP JUMPDEST SWAP1 PUSH2 0x2EFE PUSH2 0x2DED JUMP JUMPDEST SWAP2 PUSH2 0x3798 JUMP JUMPDEST PUSH2 0x2F0D DUP2 PUSH2 0x1F1E JUMP JUMPDEST PUSH2 0x2F20 PUSH2 0x2F1A PUSH1 0x0 PUSH2 0x164E JUMP JUMPDEST SWAP2 PUSH2 0x25F JUMP JUMPDEST EQ SWAP1 DUP2 ISZERO PUSH2 0x2F31 JUMPI JUMPDEST POP PUSH2 0x2EBC JUMP JUMPDEST JUMP JUMPDEST PUSH2 0x2F4C SWAP2 POP PUSH1 0x20 PUSH2 0x2F41 DUP3 PUSH2 0x1F1E JUMP JUMPDEST DUP2 DUP4 ADD ADD SWAP2 ADD PUSH2 0x2E1C JUMP JUMPDEST CODESIZE PUSH2 0x2F29 JUMP JUMPDEST SWAP1 PUSH2 0x2F69 PUSH2 0x2F62 PUSH2 0x2F70 SWAP4 PUSH2 0xEFE JUMP JUMPDEST PUSH1 0x3 PUSH2 0xF34 JUMP JUMPDEST PUSH1 0x4 PUSH2 0x17CF JUMP JUMPDEST JUMP JUMPDEST PUSH4 0x4E487B71 PUSH1 0xE0 SHL PUSH1 0x0 MSTORE PUSH1 0x32 PUSH1 0x4 MSTORE PUSH1 0x24 PUSH1 0x0 REVERT JUMPDEST SLOAD SWAP1 JUMP JUMPDEST PUSH1 0x0 MSTORE PUSH1 0x20 PUSH1 0x0 KECCAK256 SWAP1 JUMP JUMPDEST PUSH2 0x2FA0 DUP2 PUSH2 0x2F88 JUMP JUMPDEST DUP3 LT ISZERO PUSH2 0x2FBB JUMPI PUSH2 0x2FB2 PUSH1 0x1 SWAP2 PUSH2 0x2F8C JUMP JUMPDEST SWAP2 MUL ADD SWAP1 PUSH1 0x0 SWAP1 JUMP JUMPDEST PUSH2 0x2F72 JUMP JUMPDEST SHR SWAP1 JUMP JUMPDEST PUSH2 0x2FD4 SWAP1 PUSH1 0x8 PUSH2 0x2FD9 SWAP4 MUL PUSH2 0x2FC0 JUMP JUMPDEST PUSH2 0xFA3 JUMP JUMPDEST SWAP1 JUMP JUMPDEST SWAP1 PUSH2 0x2FE7 SWAP2 SLOAD PUSH2 0x2FC4 JUMP JUMPDEST SWAP1 JUMP JUMPDEST PUSH2 0x3009 SWAP2 PUSH1 0x0 PUSH2 0x3003 SWAP3 PUSH2 0x2FFC PUSH2 0xF74 JUMP JUMPDEST POP ADD PUSH2 0x2F97 JUMP JUMPDEST SWAP1 PUSH2 0x2FDC JUMP JUMPDEST SWAP1 JUMP JUMPDEST PUSH1 0x1 PUSH2 0x3018 SWAP2 ADD PUSH2 0x25F JUMP JUMPDEST SWAP1 JUMP JUMPDEST MLOAD SWAP1 JUMP JUMPDEST SWAP1 PUSH2 0x3029 DUP3 PUSH2 0x301B JUMP JUMPDEST DUP2 LT ISZERO PUSH2 0x303A JUMPI PUSH1 0x20 DUP1 SWAP2 MUL ADD ADD SWAP1 JUMP JUMPDEST PUSH2 0x2F72 JUMP JUMPDEST SWAP2 SWAP1 PUSH2 0x3049 PUSH2 0xF74 JUMP JUMPDEST POP PUSH2 0x3054 PUSH1 0x0 PUSH2 0x164E JUMP JUMPDEST SWAP1 JUMPDEST DUP2 PUSH2 0x3071 PUSH2 0x306B PUSH2 0x3066 DUP8 PUSH2 0x301B JUMP JUMPDEST PUSH2 0x25F JUMP JUMPDEST SWAP2 PUSH2 0x25F JUMP JUMPDEST LT ISZERO PUSH2 0x30A3 JUMPI PUSH2 0x3097 PUSH2 0x309D SWAP2 PUSH2 0x3091 PUSH2 0x308C DUP8 DUP7 SWAP1 PUSH2 0x301F JUMP JUMPDEST PUSH2 0x17B6 JUMP JUMPDEST SWAP1 PUSH2 0x37BB JUMP JUMPDEST SWAP2 PUSH2 0x300C JUMP JUMPDEST SWAP1 PUSH2 0x3056 JUMP JUMPDEST SWAP2 SWAP3 POP POP SWAP1 JUMP JUMPDEST PUSH1 0x0 PUSH2 0x30BF SWAP2 PUSH2 0x30B8 PUSH2 0x2047 JUMP JUMPDEST POP ADD PUSH2 0x2F88 JUMP JUMPDEST SWAP1 JUMP JUMPDEST PUSH2 0x30CA PUSH2 0xBAC JUMP JUMPDEST POP DUP1 PUSH2 0x30E5 PUSH2 0x30DF PUSH4 0x7965DB0B PUSH1 0xE0 SHL PUSH2 0x178 JUMP JUMPDEST SWAP2 PUSH2 0x178 JUMP JUMPDEST EQ SWAP1 DUP2 ISZERO PUSH2 0x30F2 JUMPI JUMPDEST POP SWAP1 JUMP JUMPDEST PUSH2 0x30FC SWAP2 POP PUSH2 0x37FB JUMP JUMPDEST CODESIZE PUSH2 0x30EE JUMP JUMPDEST PUSH1 0x60 SWAP1 JUMP JUMPDEST SWAP1 JUMP JUMPDEST PUSH1 0xFF AND SWAP1 JUMP JUMPDEST PUSH2 0x3124 PUSH2 0x311F PUSH2 0x3129 SWAP3 PUSH2 0x3107 JUMP JUMPDEST PUSH2 0xC39 JUMP JUMPDEST PUSH2 0x310A JUMP JUMPDEST SWAP1 JUMP JUMPDEST PUSH2 0x3136 PUSH1 0x14 PUSH2 0x3110 JUMP JUMPDEST SWAP1 JUMP JUMPDEST PUSH2 0x314D PUSH2 0x3148 PUSH2 0x3152 SWAP3 PUSH2 0x310A JUMP JUMPDEST PUSH2 0xC39 JUMP JUMPDEST PUSH2 0x25F JUMP JUMPDEST SWAP1 JUMP JUMPDEST PUSH2 0x3172 PUSH2 0x316D PUSH2 0x3188 SWAP3 PUSH2 0x3167 PUSH2 0x3102 JUMP JUMPDEST POP PUSH2 0x2C1F JUMP JUMPDEST PUSH2 0x2C2B JUMP JUMPDEST PUSH2 0x3182 PUSH2 0x317D PUSH2 0x312C JUMP JUMPDEST PUSH2 0x3139 JUMP JUMPDEST SWAP1 PUSH2 0x3378 JUMP JUMPDEST SWAP1 JUMP JUMPDEST SWAP1 JUMP JUMPDEST PUSH2 0x31A2 PUSH2 0x319D PUSH2 0x31A7 SWAP3 PUSH2 0x318B JUMP JUMPDEST PUSH2 0xC39 JUMP JUMPDEST PUSH2 0x25F JUMP JUMPDEST SWAP1 JUMP JUMPDEST PUSH2 0x31B9 PUSH2 0x31BF SWAP2 SWAP4 SWAP3 SWAP4 PUSH2 0x25F JUMP JUMPDEST SWAP3 PUSH2 0x25F JUMP JUMPDEST DUP3 ADD DUP1 SWAP3 GT PUSH2 0x31CA JUMPI JUMP JUMPDEST PUSH2 0x2167 JUMP JUMPDEST CALLDATASIZE SWAP1 CALLDATACOPY JUMP JUMPDEST SWAP1 PUSH2 0x31F9 PUSH2 0x31E1 DUP4 PUSH2 0x1403 JUMP JUMPDEST SWAP3 PUSH1 0x20 DUP1 PUSH2 0x31EF DUP7 SWAP4 PUSH2 0x13E0 JUMP JUMPDEST SWAP3 ADD SWAP2 SUB SWAP1 PUSH2 0x31CF JUMP JUMPDEST JUMP JUMPDEST PUSH1 0x3 PUSH1 0xFC SHL SWAP1 JUMP JUMPDEST SWAP1 PUSH2 0x320D DUP3 PUSH2 0x1F1E JUMP JUMPDEST DUP2 LT ISZERO PUSH2 0x321F JUMPI PUSH1 0x1 PUSH1 0x20 SWAP2 MUL ADD ADD SWAP1 JUMP JUMPDEST PUSH2 0x2F72 JUMP JUMPDEST PUSH1 0xF PUSH1 0xFB SHL SWAP1 JUMP JUMPDEST SWAP1 JUMP JUMPDEST PUSH2 0x3243 PUSH2 0x323E PUSH2 0x3248 SWAP3 PUSH2 0x322C JUMP JUMPDEST PUSH2 0xC39 JUMP JUMPDEST PUSH2 0x25F JUMP JUMPDEST SWAP1 JUMP JUMPDEST PUSH2 0x3254 SWAP1 PUSH2 0x25F JUMP JUMPDEST PUSH1 0x0 DUP2 EQ PUSH2 0x3263 JUMPI PUSH1 0x1 SWAP1 SUB SWAP1 JUMP JUMPDEST PUSH2 0x2167 JUMP JUMPDEST PUSH16 0x181899199A1A9B1B9C1CB0B131B232B3 PUSH1 0x81 SHL SWAP1 JUMP JUMPDEST PUSH2 0x3287 PUSH2 0x3268 JUMP JUMPDEST SWAP1 JUMP JUMPDEST SWAP1 JUMP JUMPDEST PUSH2 0x32A1 PUSH2 0x329C PUSH2 0x32A6 SWAP3 PUSH2 0x328A JUMP JUMPDEST PUSH2 0xC39 JUMP JUMPDEST PUSH2 0x25F JUMP JUMPDEST SWAP1 JUMP JUMPDEST PUSH1 0xF8 SHL SWAP1 JUMP JUMPDEST SWAP1 JUMP JUMPDEST PUSH2 0x32C6 PUSH2 0x32C1 PUSH2 0x32CB SWAP3 PUSH2 0x32AF JUMP JUMPDEST PUSH2 0xC39 JUMP JUMPDEST PUSH2 0x310A JUMP JUMPDEST SWAP1 JUMP JUMPDEST PUSH2 0x32ED SWAP1 PUSH2 0x32E7 PUSH2 0x32E1 PUSH2 0x32F2 SWAP5 PUSH2 0x310A JUMP JUMPDEST SWAP2 PUSH2 0x25F JUMP JUMPDEST SWAP1 PUSH2 0x2FC0 JUMP JUMPDEST PUSH2 0x25F JUMP JUMPDEST SWAP1 JUMP JUMPDEST PUSH1 0x0 PUSH32 0x537472696E67733A20686578206C656E67746820696E73756666696369656E74 SWAP2 ADD MSTORE JUMP JUMPDEST PUSH2 0x3329 PUSH1 0x20 DUP1 SWAP3 PUSH2 0x1244 JUMP JUMPDEST PUSH2 0x3332 DUP2 PUSH2 0x32F5 JUMP JUMPDEST ADD SWAP1 JUMP JUMPDEST PUSH2 0x334C SWAP1 PUSH1 0x20 DUP2 ADD SWAP1 PUSH1 0x0 DUP2 DUP4 SUB SWAP2 ADD MSTORE PUSH2 0x331D JUMP JUMPDEST SWAP1 JUMP JUMPDEST ISZERO PUSH2 0x3356 JUMPI JUMP JUMPDEST PUSH2 0x335E PUSH2 0x163 JUMP JUMPDEST PUSH3 0x461BCD PUSH1 0xE5 SHL DUP2 MSTORE DUP1 PUSH2 0x3374 PUSH1 0x4 DUP3 ADD PUSH2 0x3336 JUMP JUMPDEST SUB SWAP1 REVERT JUMPDEST SWAP2 SWAP1 PUSH2 0x3382 PUSH2 0x3102 JUMP JUMPDEST POP PUSH2 0x341C PUSH2 0x340C PUSH2 0x33B8 PUSH2 0x33B3 PUSH2 0x33A3 PUSH1 0x2 PUSH2 0x339E DUP8 SWAP2 PUSH2 0x318E JUMP JUMPDEST PUSH2 0x21A7 JUMP JUMPDEST PUSH2 0x33AD PUSH1 0x2 PUSH2 0x318E JUMP JUMPDEST SWAP1 PUSH2 0x31AA JUMP JUMPDEST PUSH2 0x31D4 JUMP JUMPDEST SWAP3 PUSH2 0x33C1 PUSH2 0x31FB JUMP JUMPDEST PUSH2 0x33DA DUP6 PUSH2 0x33D4 PUSH1 0x0 SWAP4 PUSH1 0x0 BYTE SWAP4 PUSH2 0x164E JUMP JUMPDEST SWAP1 PUSH2 0x3203 JUMP JUMPDEST MSTORE8 PUSH2 0x33E3 PUSH2 0x3224 JUMP JUMPDEST PUSH2 0x33FC DUP6 PUSH2 0x33F6 PUSH1 0x1 SWAP4 PUSH1 0x0 BYTE SWAP4 PUSH2 0x322F JUMP JUMPDEST SWAP1 PUSH2 0x3203 JUMP JUMPDEST MSTORE8 PUSH2 0x3407 PUSH1 0x2 PUSH2 0x318E JUMP JUMPDEST PUSH2 0x21A7 JUMP JUMPDEST PUSH2 0x3416 PUSH1 0x1 PUSH2 0x322F JUMP JUMPDEST SWAP1 PUSH2 0x31AA JUMP JUMPDEST SWAP3 JUMPDEST DUP4 PUSH2 0x3432 PUSH2 0x342C PUSH1 0x1 PUSH2 0x322F JUMP JUMPDEST SWAP2 PUSH2 0x25F JUMP JUMPDEST GT ISZERO PUSH2 0x3499 JUMPI PUSH2 0x3440 PUSH2 0x327F JUMP JUMPDEST DUP2 PUSH2 0x344B PUSH1 0xF PUSH2 0x328D JUMP JUMPDEST AND SWAP2 PUSH1 0x10 DUP4 LT ISZERO PUSH2 0x3494 JUMPI PUSH2 0x3467 PUSH2 0x3488 SWAP3 PUSH2 0x348E SWAP5 BYTE PUSH2 0x32A9 JUMP JUMPDEST PUSH2 0x3477 DUP6 SWAP2 DUP9 SWAP1 PUSH1 0x0 BYTE SWAP3 PUSH2 0x3203 JUMP JUMPDEST MSTORE8 PUSH2 0x3482 PUSH1 0x4 PUSH2 0x32B2 JUMP JUMPDEST SWAP1 PUSH2 0x32CE JUMP JUMPDEST SWAP4 PUSH2 0x324B JUMP JUMPDEST SWAP3 PUSH2 0x341E JUMP JUMPDEST PUSH2 0x2F72 JUMP JUMPDEST PUSH2 0x34C1 SWAP3 SWAP4 POP PUSH2 0x34BC SWAP1 PUSH2 0x34B6 PUSH2 0x34B0 PUSH1 0x0 PUSH2 0x164E JUMP JUMPDEST SWAP2 PUSH2 0x25F JUMP JUMPDEST EQ PUSH2 0x334F JUMP JUMPDEST PUSH2 0x2A97 JUMP JUMPDEST SWAP1 JUMP JUMPDEST SWAP1 JUMP JUMPDEST PUSH1 0x0 MSTORE PUSH1 0x20 PUSH1 0x0 KECCAK256 SWAP1 JUMP JUMPDEST SLOAD SWAP1 JUMP JUMPDEST PUSH2 0x34DF DUP2 PUSH2 0x34D2 JUMP JUMPDEST DUP3 LT ISZERO PUSH2 0x34FA JUMPI PUSH2 0x34F1 PUSH1 0x1 SWAP2 PUSH2 0x34C7 JUMP JUMPDEST SWAP2 MUL ADD SWAP1 PUSH1 0x0 SWAP1 JUMP JUMPDEST PUSH2 0x2F72 JUMP JUMPDEST SHL SWAP1 JUMP JUMPDEST SWAP2 SWAP1 PUSH1 0x8 PUSH2 0x351F SWAP2 MUL SWAP2 PUSH2 0x3519 PUSH1 0x0 NOT DUP5 PUSH2 0x34FF JUMP JUMPDEST SWAP3 PUSH2 0x34FF JUMP JUMPDEST SWAP2 DUP2 NOT AND SWAP2 AND OR SWAP1 JUMP JUMPDEST SWAP2 SWAP1 PUSH2 0x353F PUSH2 0x353A PUSH2 0x3547 SWAP4 PUSH2 0xF79 JUMP JUMPDEST PUSH2 0x17C3 JUMP JUMPDEST SWAP1 DUP4 SLOAD PUSH2 0x3503 JUMP JUMPDEST SWAP1 SSTORE JUMP JUMPDEST SWAP1 DUP2 SLOAD SWAP2 PUSH9 0x10000000000000000 DUP4 LT ISZERO PUSH2 0x357B JUMPI DUP3 PUSH2 0x3573 SWAP2 PUSH1 0x1 PUSH2 0x3579 SWAP6 ADD DUP2 SSTORE PUSH2 0x34D6 JUMP JUMPDEST SWAP1 PUSH2 0x3529 JUMP JUMPDEST JUMP JUMPDEST PUSH2 0xC97 JUMP JUMPDEST SWAP1 PUSH2 0x358A SWAP1 PUSH2 0xF79 JUMP JUMPDEST PUSH1 0x0 MSTORE PUSH1 0x20 MSTORE PUSH1 0x40 PUSH1 0x0 KECCAK256 SWAP1 JUMP JUMPDEST PUSH2 0x35A0 PUSH2 0xBAC JUMP JUMPDEST POP PUSH2 0x35B5 PUSH2 0x35AF DUP3 DUP5 SWAP1 PUSH2 0x3821 JUMP JUMPDEST ISZERO PUSH2 0x1C7 JUMP JUMPDEST PUSH1 0x0 EQ PUSH2 0x35F8 JUMPI PUSH2 0x35EE PUSH2 0x35F3 SWAP3 PUSH2 0x35D9 PUSH2 0x35D2 PUSH1 0x0 DUP6 ADD PUSH2 0x34C4 JUMP JUMPDEST DUP3 SWAP1 PUSH2 0x354B JUMP JUMPDEST PUSH1 0x1 PUSH2 0x35E7 PUSH1 0x0 DUP6 ADD PUSH2 0x2F88 JUMP JUMPDEST SWAP4 ADD PUSH2 0x3580 JUMP JUMPDEST PUSH2 0x16BA JUMP JUMPDEST PUSH1 0x1 SWAP1 JUMP JUMPDEST POP POP PUSH1 0x0 SWAP1 JUMP JUMPDEST PUSH4 0x4E487B71 PUSH1 0xE0 SHL PUSH1 0x0 MSTORE PUSH1 0x31 PUSH1 0x4 MSTORE PUSH1 0x24 PUSH1 0x0 REVERT JUMPDEST PUSH2 0x3627 SWAP2 PUSH2 0x3621 PUSH2 0xF74 JUMP JUMPDEST SWAP2 PUSH2 0x3529 JUMP JUMPDEST JUMP JUMPDEST PUSH2 0x3632 DUP2 PUSH2 0x34D2 JUMP JUMPDEST DUP1 ISZERO PUSH2 0x3653 JUMPI PUSH1 0x1 SWAP1 SUB SWAP1 PUSH2 0x3650 PUSH2 0x364A DUP4 DUP4 PUSH2 0x34D6 JUMP JUMPDEST SWAP1 PUSH2 0x3615 JUMP JUMPDEST SSTORE JUMP JUMPDEST PUSH2 0x35FF JUMP JUMPDEST SWAP2 SWAP1 PUSH2 0x366E PUSH2 0x3669 PUSH2 0x3676 SWAP4 PUSH2 0x169B JUMP JUMPDEST PUSH2 0x16B7 JUMP JUMPDEST SWAP1 DUP4 SLOAD PUSH2 0x3503 JUMP JUMPDEST SWAP1 SSTORE JUMP JUMPDEST PUSH2 0x368C SWAP2 PUSH2 0x3686 PUSH2 0x2047 JUMP JUMPDEST SWAP2 PUSH2 0x3658 JUMP JUMPDEST JUMP JUMPDEST PUSH2 0x3696 PUSH2 0xBAC JUMP JUMPDEST POP PUSH2 0x36AD PUSH2 0x36A8 PUSH1 0x1 DUP4 ADD DUP5 SWAP1 PUSH2 0x3580 JUMP JUMPDEST PUSH2 0x10CC JUMP JUMPDEST SWAP1 DUP2 PUSH2 0x36C2 PUSH2 0x36BC PUSH1 0x0 PUSH2 0x164E JUMP JUMPDEST SWAP2 PUSH2 0x25F JUMP JUMPDEST EQ ISZERO PUSH1 0x0 EQ PUSH2 0x3790 JUMPI PUSH2 0x3742 SWAP3 PUSH1 0x1 PUSH2 0x373D SWAP3 DUP5 PUSH2 0x36EB PUSH1 0x0 SWAP7 PUSH2 0x36E5 DUP6 PUSH2 0x322F JUMP JUMPDEST SWAP1 PUSH2 0x217D JUMP JUMPDEST PUSH2 0x3708 PUSH2 0x36F9 DUP9 DUP6 ADD PUSH2 0x2F88 JUMP JUMPDEST PUSH2 0x3702 DUP7 PUSH2 0x322F JUMP JUMPDEST SWAP1 PUSH2 0x217D JUMP JUMPDEST DUP1 PUSH2 0x371B PUSH2 0x3715 DUP5 PUSH2 0x25F JUMP JUMPDEST SWAP2 PUSH2 0x25F JUMP JUMPDEST SUB PUSH2 0x3747 JUMPI JUMPDEST POP POP POP PUSH2 0x3737 PUSH2 0x3732 DUP7 DUP4 ADD PUSH2 0x34C4 JUMP JUMPDEST PUSH2 0x3629 JUMP JUMPDEST ADD PUSH2 0x3580 JUMP JUMPDEST PUSH2 0x367A JUMP JUMPDEST PUSH1 0x1 SWAP1 JUMP JUMPDEST PUSH2 0x3788 SWAP3 PUSH2 0x377A PUSH2 0x3766 PUSH2 0x3760 PUSH2 0x3783 SWAP5 DUP13 DUP10 ADD PUSH2 0x2F97 JUMP JUMPDEST SWAP1 PUSH2 0x2FDC JUMP JUMPDEST SWAP4 PUSH2 0x3774 DUP6 SWAP2 DUP13 DUP10 ADD PUSH2 0x2F97 JUMP JUMPDEST SWAP1 PUSH2 0x3529 JUMP JUMPDEST SWAP2 DUP6 DUP6 ADD PUSH2 0x3580 JUMP JUMPDEST PUSH2 0x16BA JUMP JUMPDEST CODESIZE DUP1 DUP1 PUSH2 0x3721 JUMP JUMPDEST POP POP POP PUSH1 0x0 SWAP1 JUMP JUMPDEST SWAP1 PUSH2 0x37B8 SWAP3 SWAP2 PUSH2 0x37A6 PUSH2 0x141A JUMP JUMPDEST POP SWAP1 PUSH2 0x37B2 PUSH1 0x0 PUSH2 0x164E JUMP JUMPDEST SWAP2 PUSH2 0x390D JUMP JUMPDEST SWAP1 JUMP JUMPDEST PUSH2 0x37C3 PUSH2 0xF74 JUMP JUMPDEST POP DUP1 PUSH2 0x37D7 PUSH2 0x37D1 DUP5 PUSH2 0x3CD JUMP JUMPDEST SWAP2 PUSH2 0x3CD JUMP JUMPDEST LT PUSH1 0x0 EQ PUSH2 0x37ED JUMPI SWAP1 PUSH2 0x37E9 SWAP2 PUSH2 0x3967 JUMP JUMPDEST JUMPDEST SWAP1 JUMP JUMPDEST PUSH2 0x37F6 SWAP2 PUSH2 0x3967 JUMP JUMPDEST PUSH2 0x37EA JUMP JUMPDEST PUSH2 0x3803 PUSH2 0xBAC JUMP JUMPDEST POP PUSH2 0x381D PUSH2 0x3817 PUSH4 0x1FFC9A7 PUSH1 0xE0 SHL PUSH2 0x178 JUMP JUMPDEST SWAP2 PUSH2 0x178 JUMP JUMPDEST EQ SWAP1 JUMP JUMPDEST PUSH2 0x383F SWAP2 PUSH1 0x1 PUSH2 0x383A SWAP3 PUSH2 0x3833 PUSH2 0xBAC JUMP JUMPDEST POP ADD PUSH2 0x3580 JUMP JUMPDEST PUSH2 0x10CC JUMP JUMPDEST PUSH2 0x3852 PUSH2 0x384C PUSH1 0x0 PUSH2 0x164E JUMP JUMPDEST SWAP2 PUSH2 0x25F JUMP JUMPDEST EQ ISZERO SWAP1 JUMP JUMPDEST PUSH2 0x3860 SWAP1 PUSH2 0xC70 JUMP JUMPDEST SWAP1 JUMP JUMPDEST PUSH1 0x20 PUSH32 0x722063616C6C0000000000000000000000000000000000000000000000000000 SWAP2 PUSH32 0x416464726573733A20696E73756666696369656E742062616C616E636520666F PUSH1 0x0 DUP3 ADD MSTORE ADD MSTORE JUMP JUMPDEST PUSH2 0x38BE PUSH1 0x26 PUSH1 0x40 SWAP3 PUSH2 0x1244 JUMP JUMPDEST PUSH2 0x38C7 DUP2 PUSH2 0x3863 JUMP JUMPDEST ADD SWAP1 JUMP JUMPDEST PUSH2 0x38E1 SWAP1 PUSH1 0x20 DUP2 ADD SWAP1 PUSH1 0x0 DUP2 DUP4 SUB SWAP2 ADD MSTORE PUSH2 0x38B1 JUMP JUMPDEST SWAP1 JUMP JUMPDEST ISZERO PUSH2 0x38EB JUMPI JUMP JUMPDEST PUSH2 0x38F3 PUSH2 0x163 JUMP JUMPDEST PUSH3 0x461BCD PUSH1 0xE5 SHL DUP2 MSTORE DUP1 PUSH2 0x3909 PUSH1 0x4 DUP3 ADD PUSH2 0x38CB JUMP JUMPDEST SUB SWAP1 REVERT JUMPDEST SWAP2 PUSH1 0x0 DUP1 SWAP2 PUSH2 0x3964 SWAP6 SWAP4 PUSH2 0x391F PUSH2 0x141A JUMP JUMPDEST POP PUSH2 0x3946 PUSH2 0x392C ADDRESS PUSH2 0x3857 JUMP JUMPDEST BALANCE PUSH2 0x393F PUSH2 0x3939 DUP6 PUSH2 0x25F JUMP JUMPDEST SWAP2 PUSH2 0x25F JUMP JUMPDEST LT ISZERO PUSH2 0x38E4 JUMP JUMPDEST DUP6 SWAP2 PUSH1 0x20 DUP3 ADD SWAP2 MLOAD SWAP3 GAS CALL SWAP2 PUSH2 0x395A PUSH2 0x141F JUMP JUMPDEST SWAP1 SWAP3 SWAP1 SWAP2 SWAP3 PUSH2 0x3A02 JUMP JUMPDEST SWAP1 JUMP JUMPDEST PUSH2 0x396F PUSH2 0xF74 JUMP JUMPDEST POP PUSH1 0x0 MSTORE PUSH1 0x20 MSTORE PUSH1 0x40 PUSH1 0x0 KECCAK256 SWAP1 JUMP JUMPDEST PUSH1 0x0 PUSH32 0x416464726573733A2063616C6C20746F206E6F6E2D636F6E7472616374000000 SWAP2 ADD MSTORE JUMP JUMPDEST PUSH2 0x39B3 PUSH1 0x1D PUSH1 0x20 SWAP3 PUSH2 0x1244 JUMP JUMPDEST PUSH2 0x39BC DUP2 PUSH2 0x397E JUMP JUMPDEST ADD SWAP1 JUMP JUMPDEST PUSH2 0x39D6 SWAP1 PUSH1 0x20 DUP2 ADD SWAP1 PUSH1 0x0 DUP2 DUP4 SUB SWAP2 ADD MSTORE PUSH2 0x39A6 JUMP JUMPDEST SWAP1 JUMP JUMPDEST ISZERO PUSH2 0x39E0 JUMPI JUMP JUMPDEST PUSH2 0x39E8 PUSH2 0x163 JUMP JUMPDEST PUSH3 0x461BCD PUSH1 0xE5 SHL DUP2 MSTORE DUP1 PUSH2 0x39FE PUSH1 0x4 DUP3 ADD PUSH2 0x39C0 JUMP JUMPDEST SUB SWAP1 REVERT JUMPDEST SWAP2 SWAP3 SWAP1 PUSH2 0x3A0D PUSH2 0x141A JUMP JUMPDEST POP PUSH1 0x0 EQ PUSH2 0x3A53 JUMPI POP PUSH2 0x3A1F DUP3 PUSH2 0x1F1E JUMP JUMPDEST PUSH2 0x3A32 PUSH2 0x3A2C PUSH1 0x0 PUSH2 0x164E JUMP JUMPDEST SWAP2 PUSH2 0x25F JUMP JUMPDEST EQ PUSH2 0x3A3C JUMPI JUMPDEST POP SWAP1 JUMP JUMPDEST PUSH2 0x3A48 PUSH2 0x3A4D SWAP2 PUSH2 0x3AA7 JUMP JUMPDEST PUSH2 0x39D9 JUMP JUMPDEST CODESIZE PUSH2 0x3A38 JUMP JUMPDEST DUP3 SWAP1 PUSH2 0x3A5E DUP3 PUSH2 0x1F1E JUMP JUMPDEST PUSH2 0x3A71 PUSH2 0x3A6B PUSH1 0x0 PUSH2 0x164E JUMP JUMPDEST SWAP2 PUSH2 0x25F JUMP JUMPDEST GT PUSH1 0x0 EQ PUSH2 0x3A82 JUMPI POP DUP1 MLOAD SWAP1 PUSH1 0x20 ADD REVERT JUMPDEST PUSH2 0x3AA3 SWAP1 PUSH2 0x3A8E PUSH2 0x163 JUMP JUMPDEST SWAP2 DUP3 SWAP2 PUSH3 0x461BCD PUSH1 0xE5 SHL DUP4 MSTORE PUSH1 0x4 DUP4 ADD PUSH2 0x2ACB JUMP JUMPDEST SUB SWAP1 REVERT JUMPDEST PUSH2 0x3AAF PUSH2 0xBAC JUMP JUMPDEST POP EXTCODESIZE PUSH2 0x3AC4 PUSH2 0x3ABE PUSH1 0x0 PUSH2 0x164E JUMP JUMPDEST SWAP2 PUSH2 0x25F JUMP JUMPDEST GT SWAP1 JUMP INVALID LOG2 PUSH5 0x6970667358 0x22 SLT KECCAK256 0xC2 DIV PUSH4 0x3B23276E 0xDD SWAP6 0xAA ORIGIN 0x2D 0xBE LOG2 OR SAR 0xA8 0xB6 BLOCKHASH NUMBER DUP16 DUP2 NOT SWAP15 ADDMOD 0xFB DUP8 0xEC SAR PUSH5 0xAA7F64736F PUSH13 0x634300081B0033000000000000 "
        },
        "methodIdentifiers": {
          "DEFAULT_ADMIN_ROLE()": "a217fddf",
          "acceptImplicitRequest(address,(address,bytes4,bytes32,bytes32,bytes,(string,uint64)),(address,uint256,bytes,uint256,bool,bool,uint256))": "9d043a66",
          "checkMerkleProof(bytes32,bytes32[],address,bytes32)": "bad43661",
          "getRoleAdmin(bytes32)": "248a9ca3",
          "getRoleMember(bytes32,uint256)": "9010d07c",
          "getRoleMemberCount(bytes32)": "ca15c873",
          "grantRole(bytes32,address)": "2f2ff15d",
          "hasRole(bytes32,address)": "91d14854",
          "initialize(address,address,address,bytes32)": "63acc14d",
          "itemsContract()": "a971e842",
          "mint(address,uint256,address,uint256,bytes32[])": "0668d0bb",
          "renounceRole(bytes32,address)": "36568abe",
          "revokeRole(bytes32,address)": "d547741f",
          "saleDetails()": "3474a4a6",
          "setImplicitModeProjectId(bytes32)": "ed4c2ac7",
          "setImplicitModeValidator(address)": "0bb310de",
          "setSaleDetails(uint256,uint256,address,uint64,uint64,bytes32)": "8c17030f",
          "supportsInterface(bytes4)": "01ffc9a7",
          "withdrawERC20(address,address,uint256)": "44004cc1",
          "withdrawETH(address,uint256)": "4782f779"
        }
      },
      "userdoc": {
        "errors": {
          "InsufficientPayment(address,uint256,uint256)": [
            {
              "notice": "Insufficient tokens for payment."
            }
          ],
          "InsufficientSupply(uint256,uint256)": [
            {
              "notice": "Insufficient supply."
            }
          ],
          "InvalidInitialization()": [
            {
              "notice": "Contract already initialized."
            }
          ],
          "InvalidSaleDetails()": [
            {
              "notice": "Sale details supplied are invalid."
            }
          ],
          "MerkleProofInvalid(bytes32,bytes32[],address,bytes32)": [
            {
              "notice": "Thrown when the merkle proof is invalid or has already been used."
            }
          ],
          "SaleInactive()": [
            {
              "notice": "Sale is not active."
            }
          ],
          "WithdrawFailed()": [
            {
              "notice": "Withdraw failed error."
            }
          ]
        },
        "kind": "user",
        "methods": {
          "acceptImplicitRequest(address,(address,bytes4,bytes32,bytes32,bytes,(string,uint64)),(address,uint256,bytes,uint256,bool,bool,uint256))": {
            "notice": "Determines if an implicit request is valid"
          },
          "checkMerkleProof(bytes32,bytes32[],address,bytes32)": {
            "notice": "Checks if the given merkle proof is valid."
          },
          "initialize(address,address,address,bytes32)": {
            "notice": "Initialize the contract."
          },
          "mint(address,uint256,address,uint256,bytes32[])": {
            "notice": "Mint tokens.Sale must be active for all tokens."
          },
          "saleDetails()": {
            "notice": "Get sale details."
          },
          "setImplicitModeProjectId(bytes32)": {
            "notice": "Updates the settings for implicit mode validation.Only callable by an address with the project admin role."
          },
          "setImplicitModeValidator(address)": {
            "notice": "Updates the validator for implicit mode validation.Only callable by an address with the project admin role."
          },
          "setSaleDetails(uint256,uint256,address,uint64,uint64,bytes32)": {
            "notice": "Set the sale details."
          },
          "supportsInterface(bytes4)": {
            "notice": "Check interface support."
          },
          "withdrawERC20(address,address,uint256)": {
            "notice": "Withdraws ERC20 tokens owned by this contract.Only callable by an address with the withdraw role."
          },
          "withdrawETH(address,uint256)": {
            "notice": "Withdraws ETH owned by this sale contract.Only callable by an address with the withdraw role."
          }
        },
        "notice": "An ERC-721 token contract with primary sale mechanisms.",
        "version": 1
      }
    }
  }
}