{"src/UniversalSigValidator.sol":{"UniversalSigValidator":{"abi":[{"type":"function","name":"isValidSig","inputs":[{"name":"_signer","type":"address","internalType":"address"},{"name":"_hash","type":"bytes32","internalType":"bytes32"},{"name":"_signature","type":"bytes","internalType":"bytes"}],"outputs":[{"name":"","type":"bool","internalType":"bool"}],"stateMutability":"nonpayable"},{"type":"function","name":"isValidSigImpl","inputs":[{"name":"_signer","type":"address","internalType":"address"},{"name":"_hash","type":"bytes32","internalType":"bytes32"},{"name":"_signature","type":"bytes","internalType":"bytes"},{"name":"allowSideEffects","type":"bool","internalType":"bool"},{"name":"tryPrepare","type":"bool","internalType":"bool"}],"outputs":[{"name":"","type":"bool","internalType":"bool"}],"stateMutability":"nonpayable"},{"type":"function","name":"isValidSigWithSideEffects","inputs":[{"name":"_signer","type":"address","internalType":"address"},{"name":"_hash","type":"bytes32","internalType":"bytes32"},{"name":"_signature","type":"bytes","internalType":"bytes"}],"outputs":[{"name":"","type":"bool","internalType":"bool"}],"stateMutability":"nonpayable"},{"type":"error","name":"ERC1271Revert","inputs":[{"name":"error","type":"bytes","internalType":"bytes"}]},{"type":"error","name":"ERC6492DeployFailed","inputs":[{"name":"error","type":"bytes","internalType":"bytes"}]}],"userdoc":{},"devdoc":{},"evm":{"bytecode":{"object":"6080604052348015600e575f5ffd5b506111788061001c5f395ff3fe608060405234801561000f575f5ffd5b506004361061003f575f3560e01c806376be4cea146100435780638f0684301461007357806398ef1ed8146100a3575b5f5ffd5b61005d600480360381019061005891906108e1565b6100d3565b60405161006a9190610986565b60405180910390f35b61008d6004803603810190610088919061099f565b6105fe565b60405161009a9190610986565b60405180910390f35b6100bd60048036038101906100b8919061099f565b61068d565b6040516100ca9190610986565b60405180910390f35b5f5f8773ffffffffffffffffffffffffffffffffffffffff163b905060605f7f64926492649264926492649264926492649264926492649264926492649264925f1b888860208b8b90506101279190610a46565b908b8b90509261013993929190610a81565b906101449190610ad1565b1490508015610250575f606089895f9060208d8d90506101649190610a46565b9261017193929190610a81565b81019061017e9190610ca2565b8096508193508294505050505f8514806101955750865b15610249575f5f8373ffffffffffffffffffffffffffffffffffffffff16836040516101c19190610d7c565b5f604051808303815f865af19150503d805f81146101fa576040519150601f19603f3d011682016040523d82523d5f602084013e6101ff565b606091505b50915091508161024657806040517f9d0d6e2d00000000000000000000000000000000000000000000000000000000815260040161023d9190610dda565b60405180910390fd5b50505b5050610297565b87878080601f0160208091040260200160405190810160405280939291908181526020018383808284375f81840152601f19601f8201169050808301925050505050505091505b80806102a257505f83115b1561046c578973ffffffffffffffffffffffffffffffffffffffff16631626ba7e8a846040518363ffffffff1660e01b81526004016102e2929190610e09565b602060405180830381865afa92505050801561031c57506040513d601f19601f820116820180604052508101906103199190610e8c565b60015b6103b9573d805f811461034a576040519150601f19603f3d011682016040523d82523d5f602084013e61034f565b606091505b508515801561035d57505f84115b1561037c576103718b8b8b8b8b60016100d3565b9450505050506105f4565b806040517f6f2a95990000000000000000000000000000000000000000000000000000000081526004016103b09190610dda565b60405180910390fd5b5f631626ba7e60e01b7bffffffffffffffffffffffffffffffffffffffffffffffffffffffff1916827bffffffffffffffffffffffffffffffffffffffffffffffffffffffff191614905080158015610410575086155b801561041b57505f85115b1561043b5761042f8c8c8c8c8c60016100d3565b955050505050506105f4565b5f851480156104475750825b8015610451575087155b1561045f57805f526001601ffd5b80955050505050506105f4565b604188889050146104b2576040517f08c379a00000000000000000000000000000000000000000000000000000000081526004016104a990610f37565b60405180910390fd5b5f88885f906020926104c693929190610a81565b906104d19190610ad1565b90505f89896020906040926104e893929190610a81565b906104f39190610ad1565b90505f8a8a604081811061050a57610509610f55565b5b9050013560f81c60f81b60f81c9050601b8160ff16141580156105315750601c8160ff1614155b15610571576040517f08c379a000000000000000000000000000000000000000000000000000000000815260040161056890610ff2565b60405180910390fd5b8c73ffffffffffffffffffffffffffffffffffffffff1660018d8386866040515f81526020016040526040516105aa949392919061102b565b6020604051602081039080840390855afa1580156105ca573d5f5f3e3d5ffd5b5050506020604051035173ffffffffffffffffffffffffffffffffffffffff161496505050505050505b9695505050505050565b5f3073ffffffffffffffffffffffffffffffffffffffff166376be4cea8686868660015f6040518763ffffffff1660e01b8152600401610643969594939291906110a9565b6020604051808303815f875af115801561065f573d5f5f3e3d5ffd5b505050506040513d601f19601f820116820180604052508101906106839190611117565b9050949350505050565b5f3073ffffffffffffffffffffffffffffffffffffffff166376be4cea868686865f5f6040518763ffffffff1660e01b81526004016106d1969594939291906110a9565b6020604051808303815f875af192505050801561070c57506040513d601f19601f820116820180604052508101906107099190611117565b60015b6107a0573d805f811461073a576040519150601f19603f3d011682016040523d82523d5f602084013e61073f565b606091505b505f815190506001810361079c57600160f81b825f8151811061076557610764610f55565b5b602001015160f81c60f81b7effffffffffffffffffffffffffffffffffffffffffffffffffffffffffffff191614925050506107a5565b8082fd5b809150505b949350505050565b5f604051905090565b5f5ffd5b5f5ffd5b5f73ffffffffffffffffffffffffffffffffffffffff82169050919050565b5f6107e7826107be565b9050919050565b6107f7816107dd565b8114610801575f5ffd5b50565b5f81359050610812816107ee565b92915050565b5f819050919050565b61082a81610818565b8114610834575f5ffd5b50565b5f8135905061084581610821565b92915050565b5f5ffd5b5f5ffd5b5f5ffd5b5f5f83601f84011261086c5761086b61084b565b5b8235905067ffffffffffffffff8111156108895761088861084f565b5b6020830191508360018202830111156108a5576108a4610853565b5b9250929050565b5f8115159050919050565b6108c0816108ac565b81146108ca575f5ffd5b50565b5f813590506108db816108b7565b92915050565b5f5f5f5f5f5f60a087890312156108fb576108fa6107b6565b5b5f61090889828a01610804565b965050602061091989828a01610837565b955050604087013567ffffffffffffffff81111561093a576109396107ba565b5b61094689828a01610857565b9450945050606061095989828a016108cd565b925050608061096a89828a016108cd565b9150509295509295509295565b610980816108ac565b82525050565b5f6020820190506109995f830184610977565b92915050565b5f5f5f5f606085870312156109b7576109b66107b6565b5b5f6109c487828801610804565b94505060206109d587828801610837565b935050604085013567ffffffffffffffff8111156109f6576109f56107ba565b5b610a0287828801610857565b925092505092959194509250565b5f819050919050565b7f4e487b71000000000000000000000000000000000000000000000000000000005f52601160045260245ffd5b5f610a5082610a10565b9150610a5b83610a10565b9250828203905081811115610a7357610a72610a19565b5b92915050565b5f5ffd5b5f5ffd5b5f5f85851115610a9457610a93610a79565b5b83861115610aa557610aa4610a7d565b5b6001850283019150848603905094509492505050565b5f82905092915050565b5f82821b905092915050565b5f610adc8383610abb565b82610ae78135610818565b92506020821015610b2757610b227fffffffffffffffffffffffffffffffffffffffffffffffffffffffffffffffff83602003600802610ac5565b831692505b505092915050565b5f610b39826107be565b9050919050565b610b4981610b2f565b8114610b53575f5ffd5b50565b5f81359050610b6481610b40565b92915050565b5f5ffd5b5f601f19601f8301169050919050565b7f4e487b71000000000000000000000000000000000000000000000000000000005f52604160045260245ffd5b610bb482610b6e565b810181811067ffffffffffffffff82111715610bd357610bd2610b7e565b5b80604052505050565b5f610be56107ad565b9050610bf18282610bab565b919050565b5f67ffffffffffffffff821115610c1057610c0f610b7e565b5b610c1982610b6e565b9050602081019050919050565b828183375f83830152505050565b5f610c46610c4184610bf6565b610bdc565b905082815260208101848484011115610c6257610c61610b6a565b5b610c6d848285610c26565b509392505050565b5f82601f830112610c8957610c8861084b565b5b8135610c99848260208601610c34565b91505092915050565b5f5f5f60608486031215610cb957610cb86107b6565b5b5f610cc686828701610b56565b935050602084013567ffffffffffffffff811115610ce757610ce66107ba565b5b610cf386828701610c75565b925050604084013567ffffffffffffffff811115610d1457610d136107ba565b5b610d2086828701610c75565b9150509250925092565b5f81519050919050565b5f81905092915050565b8281835e5f83830152505050565b5f610d5682610d2a565b610d608185610d34565b9350610d70818560208601610d3e565b80840191505092915050565b5f610d878284610d4c565b915081905092915050565b5f82825260208201905092915050565b5f610dac82610d2a565b610db68185610d92565b9350610dc6818560208601610d3e565b610dcf81610b6e565b840191505092915050565b5f6020820190508181035f830152610df28184610da2565b905092915050565b610e0381610818565b82525050565b5f604082019050610e1c5f830185610dfa565b8181036020830152610e2e8184610da2565b90509392505050565b5f7fffffffff0000000000000000000000000000000000000000000000000000000082169050919050565b610e6b81610e37565b8114610e75575f5ffd5b50565b5f81519050610e8681610e62565b92915050565b5f60208284031215610ea157610ea06107b6565b5b5f610eae84828501610e78565b91505092915050565b5f82825260208201905092915050565b7f5369676e617475726556616c696461746f72237265636f7665725369676e65725f8201527f3a20696e76616c6964207369676e6174757265206c656e677468000000000000602082015250565b5f610f21603a83610eb7565b9150610f2c82610ec7565b604082019050919050565b5f6020820190508181035f830152610f4e81610f15565b9050919050565b7f4e487b71000000000000000000000000000000000000000000000000000000005f52603260045260245ffd5b7f5369676e617475726556616c696461746f723a20696e76616c6964207369676e5f8201527f617475726520762076616c756500000000000000000000000000000000000000602082015250565b5f610fdc602d83610eb7565b9150610fe782610f82565b604082019050919050565b5f6020820190508181035f83015261100981610fd0565b9050919050565b5f60ff82169050919050565b61102581611010565b82525050565b5f60808201905061103e5f830187610dfa565b61104b602083018661101c565b6110586040830185610dfa565b6110656060830184610dfa565b95945050505050565b611077816107dd565b82525050565b5f6110888385610d92565b9350611095838584610c26565b61109e83610b6e565b840190509392505050565b5f60a0820190506110bc5f83018961106e565b6110c96020830188610dfa565b81810360408301526110dc81868861107d565b90506110eb6060830185610977565b6110f86080830184610977565b979650505050505050565b5f81519050611111816108b7565b92915050565b5f6020828403121561112c5761112b6107b6565b5b5f61113984828501611103565b9150509291505056fea264697066735822122013fa0aa06cd670d1c717d90c89285add0297091568408d0a8e0040290e77093464736f6c634300081e0033","linkReferences":{}},"methodIdentifiers":{"isValidSig(address,bytes32,bytes)":"98ef1ed8","isValidSigImpl(address,bytes32,bytes,bool,bool)":"76be4cea","isValidSigWithSideEffects(address,bytes32,bytes)":"8f068430"}}}}}