{
  "src/tokens/ERC1155/utility/holder/ERC1155Holder.sol": {
    "ERC1155Holder": {
      "abi": [
        {
          "inputs": [],
          "name": "InvalidClaimant",
          "type": "error"
        },
        {
          "anonymous": false,
          "inputs": [
            {
              "indexed": false,
              "internalType": "address",
              "name": "claimant",
              "type": "address"
            },
            {
              "indexed": false,
              "internalType": "address",
              "name": "tokenAddress",
              "type": "address"
            },
            {
              "indexed": false,
              "internalType": "uint256",
              "name": "tokenId",
              "type": "uint256"
            },
            {
              "indexed": false,
              "internalType": "uint256",
              "name": "amount",
              "type": "uint256"
            }
          ],
          "name": "ClaimAdded",
          "type": "event"
        },
        {
          "anonymous": false,
          "inputs": [
            {
              "indexed": false,
              "internalType": "address",
              "name": "claimant",
              "type": "address"
            },
            {
              "indexed": false,
              "internalType": "address",
              "name": "tokenAddress",
              "type": "address"
            },
            {
              "indexed": false,
              "internalType": "uint256[]",
              "name": "tokenIds",
              "type": "uint256[]"
            },
            {
              "indexed": false,
              "internalType": "uint256[]",
              "name": "amounts",
              "type": "uint256[]"
            }
          ],
          "name": "ClaimAddedBatch",
          "type": "event"
        },
        {
          "anonymous": false,
          "inputs": [
            {
              "indexed": false,
              "internalType": "address",
              "name": "claimant",
              "type": "address"
            },
            {
              "indexed": false,
              "internalType": "address",
              "name": "tokenAddress",
              "type": "address"
            },
            {
              "indexed": false,
              "internalType": "uint256",
              "name": "tokenId",
              "type": "uint256"
            },
            {
              "indexed": false,
              "internalType": "uint256",
              "name": "amount",
              "type": "uint256"
            }
          ],
          "name": "Claimed",
          "type": "event"
        },
        {
          "anonymous": false,
          "inputs": [
            {
              "indexed": false,
              "internalType": "address",
              "name": "claimant",
              "type": "address"
            },
            {
              "indexed": false,
              "internalType": "address",
              "name": "tokenAddress",
              "type": "address"
            },
            {
              "indexed": false,
              "internalType": "uint256[]",
              "name": "tokenIds",
              "type": "uint256[]"
            },
            {
              "indexed": false,
              "internalType": "uint256[]",
              "name": "amounts",
              "type": "uint256[]"
            }
          ],
          "name": "ClaimedBatch",
          "type": "event"
        },
        {
          "inputs": [
            {
              "internalType": "address",
              "name": "claimant",
              "type": "address"
            },
            {
              "internalType": "address",
              "name": "tokenAddress",
              "type": "address"
            },
            {
              "internalType": "uint256",
              "name": "tokenId",
              "type": "uint256"
            }
          ],
          "name": "claim",
          "outputs": [],
          "stateMutability": "nonpayable",
          "type": "function"
        },
        {
          "inputs": [
            {
              "internalType": "address",
              "name": "claimant",
              "type": "address"
            },
            {
              "internalType": "address",
              "name": "tokenAddress",
              "type": "address"
            },
            {
              "internalType": "uint256[]",
              "name": "tokenIds",
              "type": "uint256[]"
            }
          ],
          "name": "claimBatch",
          "outputs": [],
          "stateMutability": "nonpayable",
          "type": "function"
        },
        {
          "inputs": [
            {
              "internalType": "address",
              "name": "",
              "type": "address"
            },
            {
              "internalType": "address",
              "name": "",
              "type": "address"
            },
            {
              "internalType": "uint256",
              "name": "",
              "type": "uint256"
            }
          ],
          "name": "claims",
          "outputs": [
            {
              "internalType": "uint256",
              "name": "",
              "type": "uint256"
            }
          ],
          "stateMutability": "view",
          "type": "function"
        },
        {
          "inputs": [
            {
              "internalType": "address",
              "name": "",
              "type": "address"
            },
            {
              "internalType": "address",
              "name": "",
              "type": "address"
            },
            {
              "internalType": "uint256[]",
              "name": "tokenIds",
              "type": "uint256[]"
            },
            {
              "internalType": "uint256[]",
              "name": "amounts",
              "type": "uint256[]"
            },
            {
              "internalType": "bytes",
              "name": "claimData",
              "type": "bytes"
            }
          ],
          "name": "onERC1155BatchReceived",
          "outputs": [
            {
              "internalType": "bytes4",
              "name": "",
              "type": "bytes4"
            }
          ],
          "stateMutability": "nonpayable",
          "type": "function"
        },
        {
          "inputs": [
            {
              "internalType": "address",
              "name": "",
              "type": "address"
            },
            {
              "internalType": "address",
              "name": "",
              "type": "address"
            },
            {
              "internalType": "uint256",
              "name": "tokenId",
              "type": "uint256"
            },
            {
              "internalType": "uint256",
              "name": "amount",
              "type": "uint256"
            },
            {
              "internalType": "bytes",
              "name": "claimData",
              "type": "bytes"
            }
          ],
          "name": "onERC1155Received",
          "outputs": [
            {
              "internalType": "bytes4",
              "name": "",
              "type": "bytes4"
            }
          ],
          "stateMutability": "nonpayable",
          "type": "function"
        },
        {
          "inputs": [
            {
              "internalType": "bytes4",
              "name": "interfaceId",
              "type": "bytes4"
            }
          ],
          "name": "supportsInterface",
          "outputs": [
            {
              "internalType": "bool",
              "name": "",
              "type": "bool"
            }
          ],
          "stateMutability": "view",
          "type": "function"
        }
      ],
      "devdoc": {
        "errors": {
          "InvalidClaimant()": [
            {
              "details": "Error thrown when the claimant is invalid."
            }
          ]
        },
        "events": {
          "ClaimAdded(address,address,uint256,uint256)": {
            "details": "Emitted when a claim is added."
          },
          "ClaimAddedBatch(address,address,uint256[],uint256[])": {
            "details": "Emitted when a batch of claims is added."
          },
          "Claimed(address,address,uint256,uint256)": {
            "details": "Emitted when a claim is claimed."
          },
          "ClaimedBatch(address,address,uint256[],uint256[])": {
            "details": "Emitted when a batch of claims is claimed."
          }
        },
        "kind": "dev",
        "methods": {
          "claim(address,address,uint256)": {
            "details": "Claims a token.",
            "params": {
              "claimant": "The claimant.",
              "tokenAddress": "The token address.",
              "tokenId": "The token id."
            }
          },
          "claimBatch(address,address,uint256[])": {
            "details": "Claims a batch of tokens.",
            "params": {
              "claimant": "The claimant.",
              "tokenAddress": "The token address.",
              "tokenIds": "The token ids."
            }
          },
          "onERC1155BatchReceived(address,address,uint256[],uint256[],bytes)": {
            "details": "Handles the receipt of a multiple ERC1155 token types. This function is called at the end of a `safeBatchTransferFrom` after the balances have been updated. NOTE: To accept the transfer(s), this must return `bytes4(keccak256(\"onERC1155BatchReceived(address,address,uint256[],uint256[],bytes)\"))` (i.e. 0xbc197c81, or its own function selector).",
            "params": {
              "claimData": "The encoded claimant."
            },
            "returns": {
              "_0": "`bytes4(keccak256(\"onERC1155BatchReceived(address,address,uint256[],uint256[],bytes)\"))` if transfer is allowed"
            }
          },
          "onERC1155Received(address,address,uint256,uint256,bytes)": {
            "details": "Handles the receipt of a single ERC1155 token type. This function is called at the end of a `safeTransferFrom` after the balance has been updated. NOTE: To accept the transfer, this must return `bytes4(keccak256(\"onERC1155Received(address,address,uint256,uint256,bytes)\"))` (i.e. 0xf23a6e61, or its own function selector).",
            "params": {
              "claimData": "The encoded claimant."
            },
            "returns": {
              "_0": "`bytes4(keccak256(\"onERC1155Received(address,address,uint256,uint256,bytes)\"))` if transfer is allowed"
            }
          },
          "supportsInterface(bytes4)": {
            "details": "Returns true if this contract implements the interface defined by `interfaceId`. See the corresponding https://eips.ethereum.org/EIPS/eip-165#how-interfaces-are-identified[EIP section] to learn more about how these ids are created. This function call must use less than 30 000 gas."
          }
        },
        "stateVariables": {
          "claims": {
            "details": "claimant -> tokenAddress -> tokenId -> amount"
          }
        },
        "version": 1
      },
      "evm": {
        "bytecode": {
          "linkReferences": {},
          "object": "608060405234601c57600e6020565b6112af61002c82396112af90f35b6026565b60405190565b600080fdfe60806040526004361015610013575b610722565b61001e60003561007d565b806301ffc9a7146100785780633f2e7821146100735780638f98c8fb1461006e578063996cba6814610069578063bc197c81146100645763f23a6e610361000e576106e6565b610636565b6104b9565b610485565b6102f8565b61010f565b60e01c90565b60405190565b600080fd5b600080fd5b600080fd5b63ffffffff60e01b1690565b6100ad81610098565b036100b457565b600080fd5b905035906100c6826100a4565b565b906020828203126100e2576100df916000016100b9565b90565b61008e565b151590565b6100f5906100e7565b9052565b919061010d906000602085019401906100ec565b565b3461013f5761013b61012a6101253660046100c8565b61072c565b610132610083565b918291826100f9565b0390f35b610089565b60018060a01b031690565b61015890610144565b90565b6101648161014f565b0361016b57565b600080fd5b9050359061017d8261015b565b565b90565b61018b8161017f565b0361019257565b600080fd5b905035906101a482610182565b565b90916060828403126101dc576101d96101c28460008501610170565b936101d08160208601610170565b93604001610197565b90565b61008e565b90565b6101f86101f36101fd92610144565b6101e1565b610144565b90565b610209906101e4565b90565b61021590610200565b90565b906102229061020c565b600052602052604060002090565b9061023a9061020c565b600052602052604060002090565b61025c6102576102619261017f565b6101e1565b61017f565b90565b9061026e90610248565b600052602052604060002090565b1c90565b90565b610293906008610298930261027c565b610280565b90565b906102a69154610283565b90565b906102d2926102c86102cd926102c3600095600096610218565b610230565b610264565b61029b565b90565b6102de9061017f565b9052565b91906102f6906000602085019401906102d5565b565b346103295761032561031461030e3660046101a6565b916102a9565b61031c610083565b918291826102e2565b0390f35b610089565b600080fd5b601f801991011690565b634e487b7160e01b600052604160045260246000fd5b9061035d90610333565b810190811067ffffffffffffffff82111761037757604052565b61033d565b9061038f610388610083565b9283610353565b565b67ffffffffffffffff81116103a95760208091020190565b61033d565b600080fd5b909291926103c86103c382610391565b61037c565b938185526020808601920283019281841161040557915b8383106103ec5750505050565b602080916103fa8486610197565b8152019201916103df565b6103ae565b9080601f8301121561042857816020610425933591016103b3565b90565b61032e565b9160608383031261047a576104458260008501610170565b926104538360208301610170565b92604082013567ffffffffffffffff811161047557610472920161040a565b90565b610093565b61008e565b60000190565b346104b45761049e61049836600461042d565b91610a7a565b6104a6610083565b806104b08161047f565b0390f35b610089565b346104e8576104d26104cc3660046101a6565b91610cbd565b6104da610083565b806104e48161047f565b0390f35b610089565b600080fd5b909182601f8301121561052c5781359167ffffffffffffffff831161052757602001926020830284011161052257565b6103ae565b6104ed565b61032e565b909182601f8301121561056b5781359167ffffffffffffffff831161056657602001926001830284011161056157565b6103ae565b6104ed565b61032e565b9160a08383031261060e576105888260008501610170565b926105968360208301610170565b92604082013567ffffffffffffffff811161060957816105b79184016104f2565b929093606082013567ffffffffffffffff811161060457836105da9184016104f2565b929093608082013567ffffffffffffffff81116105ff576105fb9201610531565b9091565b610093565b610093565b610093565b61008e565b61061c90610098565b9052565b919061063490600060208501940190610613565b565b346106705761066c61065b61064c366004610570565b96959095949194939293610f38565b610663610083565b91829182610620565b0390f35b610089565b91909160a0818403126106e15761068f8360008301610170565b9261069d8160208401610170565b926106ab8260408501610197565b926106b98360608301610197565b92608082013567ffffffffffffffff81116106dc576106d89201610531565b9091565b610093565b61008e565b3461071d576107196107086106fc366004610675565b94939093929192611044565b610710610083565b91829182610620565b0390f35b610089565b600080fd5b600090565b610734610727565b508061074f610749630271189760e51b610098565b91610098565b1490811561075c575b5090565b90506107776107716301ffc9a760e01b610098565b91610098565b1438610758565b5190565b9061079461078f83610391565b61037c565b918252565b369037565b906107c36107ab83610782565b926020806107b98693610391565b9201910390610799565b565b90565b6107dc6107d76107e1926107c5565b6101e1565b61017f565b90565b60016107f0910161017f565b90565b634e487b7160e01b600052603260045260246000fd5b906108138261077e565b811015610824576020809102010190565b6107f3565b610833905161017f565b90565b60001c90565b61084861084d91610836565b610280565b90565b61085a905461083c565b90565b906108679061017f565b9052565b1b90565b9190600861088b9102916108856000198461086b565b9261086b565b9181191691161790565b90565b91906108ae6108a96108b693610248565b610895565b90835461086f565b9055565b600090565b6108d1916108cb6108ba565b91610898565b565b6108dc9061014f565b9052565b60209181520190565b60200190565b6108f89061017f565b9052565b90610909816020936108ef565b0190565b60200190565b9061093061092a6109238461077e565b80936108e0565b926108e9565b9060005b8181106109415750505090565b90919261095a61095460019286516108fc565b9461090d565b9101919091610934565b929061099b9161098e6109a99694610984608088019460008901906108d3565b60208701906108d3565b8482036040860152610913565b916060818403910152610913565b90565b6109b5906101e4565b90565b6109c1906109ac565b90565b6109cd90610200565b90565b6109d990610200565b90565b600080fd5b60e01b90565b60009103126109f257565b61008e565b60209181520190565b610a0c600080926109f7565b0190565b92610a669491610a4a91610a3d610a5895610a3360a089019460008a01906108d3565b60208801906108d3565b8582036040870152610913565b908382036060850152610913565b906080818303910152610a00565b90565b610a71610083565b3d6000823e3d90fd5b610a8b610a868461077e565b61079e565b610a9560006107c8565b5b80610ab1610aab610aa68861077e565b61017f565b9161017f565b1015610b4f57610b4a90610b0a610af8610af3610ada610ad360008990610218565b8990610230565b610aed610ae88b8790610809565b610829565b90610264565b610850565b610b058591849092610809565b61085d565b610b456000610b40610b27610b20838990610218565b8990610230565b610b3a610b358b8790610809565b610829565b90610264565b6108bf565b6107e4565b610a96565b5091610b9b610ba09183818791610b93887f52afae05d11477135f8797c76d1235e9ca8bfec06367627f38f22ff5019379a394610b8a610083565b94859485610964565b0390a16109b8565b6109c4565b632eb2c2d692610baf306109d0565b929490823b15610c2857600094610be48692610bd994610bcd610083565b998a98899788966109e1565b865260048601610a10565b03925af18015610c2357610bf6575b50565b610c169060003d8111610c1c575b610c0e8183610353565b8101906109e7565b38610bf3565b503d610c04565b610a69565b6109dc565b610c63610c6a94610c59606094989795610c4f608086019a60008701906108d3565b60208501906108d3565b60408301906102d5565b01906102d5565b565b9193610ca3610cad9294610c99610cba97610c8f60a088019860008901906108d3565b60208701906108d3565b60408501906102d5565b60608301906102d5565b6080818303910152610a00565b90565b610d5d610d58610ceb610ce6610cdf610cd860008790610218565b8790610230565b8790610264565b610850565b93610d156000610d10610d09610d02838990610218565b8590610230565b8990610264565b6108bf565b83818791610d50887f2f6639d24651730c7bf57c95ddbf96d66d11477e4ec626876f92c22e5f365e6894610d47610083565b94859485610c2d565b0390a16109b8565b6109c4565b63f242432a92610d6c306109d0565b929490823b15610de557600094610da18692610d9694610d8a610083565b998a98899788966109e1565b865260048601610c6c565b03925af18015610de057610db3575b50565b610dd39060003d8111610dd9575b610dcb8183610353565b8101906109e7565b38610db0565b503d610dc1565b610a69565b6109dc565b600090565b5090565b9190811015610e03576020020190565b6107f3565b35610e1281610182565b90565b634e487b7160e01b600052601160045260246000fd5b610e3a610e409193929361017f565b9261017f565b8201809211610e4b57565b610e15565b60001b90565b90610e6360001991610e50565b9181191691161790565b90610e82610e7d610e8992610248565b610895565b8254610e56565b9055565b600080fd5b9037565b909182610ea2916108e0565b9160018060fb1b038111610ec55782916020610ec19202938491610e92565b0190565b610e8d565b949293610f109694610ef5610f0294610eeb60808a019560008b01906108d3565b60208901906108d3565b8683036040880152610e96565b926060818503910152610e96565b90565b63ffffffff1690565b610f30610f2b610f3592610f13565b6109e1565b610098565b90565b50509394610f50919395610f4a610dea565b506111af565b933391610f5d60006107c8565b5b80610f7b610f75610f70898990610def565b61017f565b9161017f565b1015610ff057610feb90610fe6610f9c610f9785878591610df3565b610e08565b610fe0610fd1610fb7610fb08d6000610218565b8a90610230565b610fcb610fc68d8d8991610df3565b610e08565b90610264565b91610fdb83610850565b610e2b565b90610e6d565b6107e4565b610f5e565b50906110319293959394959190917f8bc34feed688351319653dd43606ecff95d859489d6a570f0dc355c98a00722596611028610083565b96879687610eca565b0390a161104163bc197c81610f1c565b90565b5050919261105b9193611055610dea565b506111af565b6110d2339161109c8561109661108761108061107960008790610218565b8890610230565b8890610264565b9161109183610850565b610e2b565b90610e6d565b9192937f13805c88d507c700be6b306c02e8a12f22987364d2fadeff7d4fa5392508fdbf946110c9610083565b94859485610c2d565b0390a16110e263f23a6e61610f1c565b90565b600090565b5090565b90565b61110561110061110a926110ee565b6101e1565b61017f565b90565b90565b61112461111f6111299261110d565b6101e1565b61017f565b90565b61113590610144565b90565b6111418161112c565b0361114857565b600080fd5b9050359061115a82611138565b565b90602082820312611176576111739160000161114d565b90565b61008e565b61118490610200565b90565b61119b6111966111a0926107c5565b6101e1565b610144565b90565b6111ac90611187565b90565b6111b76110e5565b916111c38282906110ea565b6111d66111d060146110f1565b9161017f565b1460001461122e57506014915060003760005160601c5b806112096112036111fe60006111a3565b61014f565b9161014f565b146112115790565b6000636defbeed60e11b81528061122a6004820161047f565b0390fd5b9061123a8183906110ea565b61124d6112476020611110565b9161017f565b1461125a575b50506111ed565b61127292509061126d919081019061115c565b61117b565b388061125356fea264697066735822122053fe3202c90166dfc5f174690e2f90e7bb621873ff493562423af78ab974dbb564736f6c634300081b0033",
          "opcodes": "PUSH1 0x80 PUSH1 0x40 MSTORE CALLVALUE PUSH1 0x1C JUMPI PUSH1 0xE PUSH1 0x20 JUMP JUMPDEST PUSH2 0x12AF PUSH2 0x2C DUP3 CODECOPY PUSH2 0x12AF SWAP1 RETURN JUMPDEST PUSH1 0x26 JUMP JUMPDEST PUSH1 0x40 MLOAD SWAP1 JUMP JUMPDEST PUSH1 0x0 DUP1 REVERT INVALID PUSH1 0x80 PUSH1 0x40 MSTORE PUSH1 0x4 CALLDATASIZE LT ISZERO PUSH2 0x13 JUMPI JUMPDEST PUSH2 0x722 JUMP JUMPDEST PUSH2 0x1E PUSH1 0x0 CALLDATALOAD PUSH2 0x7D JUMP JUMPDEST DUP1 PUSH4 0x1FFC9A7 EQ PUSH2 0x78 JUMPI DUP1 PUSH4 0x3F2E7821 EQ PUSH2 0x73 JUMPI DUP1 PUSH4 0x8F98C8FB EQ PUSH2 0x6E JUMPI DUP1 PUSH4 0x996CBA68 EQ PUSH2 0x69 JUMPI DUP1 PUSH4 0xBC197C81 EQ PUSH2 0x64 JUMPI PUSH4 0xF23A6E61 SUB PUSH2 0xE JUMPI PUSH2 0x6E6 JUMP JUMPDEST PUSH2 0x636 JUMP JUMPDEST PUSH2 0x4B9 JUMP JUMPDEST PUSH2 0x485 JUMP JUMPDEST PUSH2 0x2F8 JUMP JUMPDEST PUSH2 0x10F JUMP JUMPDEST PUSH1 0xE0 SHR SWAP1 JUMP JUMPDEST PUSH1 0x40 MLOAD SWAP1 JUMP JUMPDEST PUSH1 0x0 DUP1 REVERT JUMPDEST PUSH1 0x0 DUP1 REVERT JUMPDEST PUSH1 0x0 DUP1 REVERT JUMPDEST PUSH4 0xFFFFFFFF PUSH1 0xE0 SHL AND SWAP1 JUMP JUMPDEST PUSH2 0xAD DUP2 PUSH2 0x98 JUMP JUMPDEST SUB PUSH2 0xB4 JUMPI JUMP JUMPDEST PUSH1 0x0 DUP1 REVERT JUMPDEST SWAP1 POP CALLDATALOAD SWAP1 PUSH2 0xC6 DUP3 PUSH2 0xA4 JUMP JUMPDEST JUMP JUMPDEST SWAP1 PUSH1 0x20 DUP3 DUP3 SUB SLT PUSH2 0xE2 JUMPI PUSH2 0xDF SWAP2 PUSH1 0x0 ADD PUSH2 0xB9 JUMP JUMPDEST SWAP1 JUMP JUMPDEST PUSH2 0x8E JUMP JUMPDEST ISZERO ISZERO SWAP1 JUMP JUMPDEST PUSH2 0xF5 SWAP1 PUSH2 0xE7 JUMP JUMPDEST SWAP1 MSTORE JUMP JUMPDEST SWAP2 SWAP1 PUSH2 0x10D SWAP1 PUSH1 0x0 PUSH1 0x20 DUP6 ADD SWAP5 ADD SWAP1 PUSH2 0xEC JUMP JUMPDEST JUMP JUMPDEST CALLVALUE PUSH2 0x13F JUMPI PUSH2 0x13B PUSH2 0x12A PUSH2 0x125 CALLDATASIZE PUSH1 0x4 PUSH2 0xC8 JUMP JUMPDEST PUSH2 0x72C JUMP JUMPDEST PUSH2 0x132 PUSH2 0x83 JUMP JUMPDEST SWAP2 DUP3 SWAP2 DUP3 PUSH2 0xF9 JUMP JUMPDEST SUB SWAP1 RETURN JUMPDEST PUSH2 0x89 JUMP JUMPDEST PUSH1 0x1 DUP1 PUSH1 0xA0 SHL SUB AND SWAP1 JUMP JUMPDEST PUSH2 0x158 SWAP1 PUSH2 0x144 JUMP JUMPDEST SWAP1 JUMP JUMPDEST PUSH2 0x164 DUP2 PUSH2 0x14F JUMP JUMPDEST SUB PUSH2 0x16B JUMPI JUMP JUMPDEST PUSH1 0x0 DUP1 REVERT JUMPDEST SWAP1 POP CALLDATALOAD SWAP1 PUSH2 0x17D DUP3 PUSH2 0x15B JUMP JUMPDEST JUMP JUMPDEST SWAP1 JUMP JUMPDEST PUSH2 0x18B DUP2 PUSH2 0x17F JUMP JUMPDEST SUB PUSH2 0x192 JUMPI JUMP JUMPDEST PUSH1 0x0 DUP1 REVERT JUMPDEST SWAP1 POP CALLDATALOAD SWAP1 PUSH2 0x1A4 DUP3 PUSH2 0x182 JUMP JUMPDEST JUMP JUMPDEST SWAP1 SWAP2 PUSH1 0x60 DUP3 DUP5 SUB SLT PUSH2 0x1DC JUMPI PUSH2 0x1D9 PUSH2 0x1C2 DUP5 PUSH1 0x0 DUP6 ADD PUSH2 0x170 JUMP JUMPDEST SWAP4 PUSH2 0x1D0 DUP2 PUSH1 0x20 DUP7 ADD PUSH2 0x170 JUMP JUMPDEST SWAP4 PUSH1 0x40 ADD PUSH2 0x197 JUMP JUMPDEST SWAP1 JUMP JUMPDEST PUSH2 0x8E JUMP JUMPDEST SWAP1 JUMP JUMPDEST PUSH2 0x1F8 PUSH2 0x1F3 PUSH2 0x1FD SWAP3 PUSH2 0x144 JUMP JUMPDEST PUSH2 0x1E1 JUMP JUMPDEST PUSH2 0x144 JUMP JUMPDEST SWAP1 JUMP JUMPDEST PUSH2 0x209 SWAP1 PUSH2 0x1E4 JUMP JUMPDEST SWAP1 JUMP JUMPDEST PUSH2 0x215 SWAP1 PUSH2 0x200 JUMP JUMPDEST SWAP1 JUMP JUMPDEST SWAP1 PUSH2 0x222 SWAP1 PUSH2 0x20C JUMP JUMPDEST PUSH1 0x0 MSTORE PUSH1 0x20 MSTORE PUSH1 0x40 PUSH1 0x0 KECCAK256 SWAP1 JUMP JUMPDEST SWAP1 PUSH2 0x23A SWAP1 PUSH2 0x20C JUMP JUMPDEST PUSH1 0x0 MSTORE PUSH1 0x20 MSTORE PUSH1 0x40 PUSH1 0x0 KECCAK256 SWAP1 JUMP JUMPDEST PUSH2 0x25C PUSH2 0x257 PUSH2 0x261 SWAP3 PUSH2 0x17F JUMP JUMPDEST PUSH2 0x1E1 JUMP JUMPDEST PUSH2 0x17F JUMP JUMPDEST SWAP1 JUMP JUMPDEST SWAP1 PUSH2 0x26E SWAP1 PUSH2 0x248 JUMP JUMPDEST PUSH1 0x0 MSTORE PUSH1 0x20 MSTORE PUSH1 0x40 PUSH1 0x0 KECCAK256 SWAP1 JUMP JUMPDEST SHR SWAP1 JUMP JUMPDEST SWAP1 JUMP JUMPDEST PUSH2 0x293 SWAP1 PUSH1 0x8 PUSH2 0x298 SWAP4 MUL PUSH2 0x27C JUMP JUMPDEST PUSH2 0x280 JUMP JUMPDEST SWAP1 JUMP JUMPDEST SWAP1 PUSH2 0x2A6 SWAP2 SLOAD PUSH2 0x283 JUMP JUMPDEST SWAP1 JUMP JUMPDEST SWAP1 PUSH2 0x2D2 SWAP3 PUSH2 0x2C8 PUSH2 0x2CD SWAP3 PUSH2 0x2C3 PUSH1 0x0 SWAP6 PUSH1 0x0 SWAP7 PUSH2 0x218 JUMP JUMPDEST PUSH2 0x230 JUMP JUMPDEST PUSH2 0x264 JUMP JUMPDEST PUSH2 0x29B JUMP JUMPDEST SWAP1 JUMP JUMPDEST PUSH2 0x2DE SWAP1 PUSH2 0x17F JUMP JUMPDEST SWAP1 MSTORE JUMP JUMPDEST SWAP2 SWAP1 PUSH2 0x2F6 SWAP1 PUSH1 0x0 PUSH1 0x20 DUP6 ADD SWAP5 ADD SWAP1 PUSH2 0x2D5 JUMP JUMPDEST JUMP JUMPDEST CALLVALUE PUSH2 0x329 JUMPI PUSH2 0x325 PUSH2 0x314 PUSH2 0x30E CALLDATASIZE PUSH1 0x4 PUSH2 0x1A6 JUMP JUMPDEST SWAP2 PUSH2 0x2A9 JUMP JUMPDEST PUSH2 0x31C PUSH2 0x83 JUMP JUMPDEST SWAP2 DUP3 SWAP2 DUP3 PUSH2 0x2E2 JUMP JUMPDEST SUB SWAP1 RETURN JUMPDEST PUSH2 0x89 JUMP JUMPDEST PUSH1 0x0 DUP1 REVERT JUMPDEST PUSH1 0x1F DUP1 NOT SWAP2 ADD AND SWAP1 JUMP JUMPDEST PUSH4 0x4E487B71 PUSH1 0xE0 SHL PUSH1 0x0 MSTORE PUSH1 0x41 PUSH1 0x4 MSTORE PUSH1 0x24 PUSH1 0x0 REVERT JUMPDEST SWAP1 PUSH2 0x35D SWAP1 PUSH2 0x333 JUMP JUMPDEST DUP2 ADD SWAP1 DUP2 LT PUSH8 0xFFFFFFFFFFFFFFFF DUP3 GT OR PUSH2 0x377 JUMPI PUSH1 0x40 MSTORE JUMP JUMPDEST PUSH2 0x33D JUMP JUMPDEST SWAP1 PUSH2 0x38F PUSH2 0x388 PUSH2 0x83 JUMP JUMPDEST SWAP3 DUP4 PUSH2 0x353 JUMP JUMPDEST JUMP JUMPDEST PUSH8 0xFFFFFFFFFFFFFFFF DUP2 GT PUSH2 0x3A9 JUMPI PUSH1 0x20 DUP1 SWAP2 MUL ADD SWAP1 JUMP JUMPDEST PUSH2 0x33D JUMP JUMPDEST PUSH1 0x0 DUP1 REVERT JUMPDEST SWAP1 SWAP3 SWAP2 SWAP3 PUSH2 0x3C8 PUSH2 0x3C3 DUP3 PUSH2 0x391 JUMP JUMPDEST PUSH2 0x37C JUMP JUMPDEST SWAP4 DUP2 DUP6 MSTORE PUSH1 0x20 DUP1 DUP7 ADD SWAP3 MUL DUP4 ADD SWAP3 DUP2 DUP5 GT PUSH2 0x405 JUMPI SWAP2 JUMPDEST DUP4 DUP4 LT PUSH2 0x3EC JUMPI POP POP POP POP JUMP JUMPDEST PUSH1 0x20 DUP1 SWAP2 PUSH2 0x3FA DUP5 DUP7 PUSH2 0x197 JUMP JUMPDEST DUP2 MSTORE ADD SWAP3 ADD SWAP2 PUSH2 0x3DF JUMP JUMPDEST PUSH2 0x3AE JUMP JUMPDEST SWAP1 DUP1 PUSH1 0x1F DUP4 ADD SLT ISZERO PUSH2 0x428 JUMPI DUP2 PUSH1 0x20 PUSH2 0x425 SWAP4 CALLDATALOAD SWAP2 ADD PUSH2 0x3B3 JUMP JUMPDEST SWAP1 JUMP JUMPDEST PUSH2 0x32E JUMP JUMPDEST SWAP2 PUSH1 0x60 DUP4 DUP4 SUB SLT PUSH2 0x47A JUMPI PUSH2 0x445 DUP3 PUSH1 0x0 DUP6 ADD PUSH2 0x170 JUMP JUMPDEST SWAP3 PUSH2 0x453 DUP4 PUSH1 0x20 DUP4 ADD PUSH2 0x170 JUMP JUMPDEST SWAP3 PUSH1 0x40 DUP3 ADD CALLDATALOAD PUSH8 0xFFFFFFFFFFFFFFFF DUP2 GT PUSH2 0x475 JUMPI PUSH2 0x472 SWAP3 ADD PUSH2 0x40A JUMP JUMPDEST SWAP1 JUMP JUMPDEST PUSH2 0x93 JUMP JUMPDEST PUSH2 0x8E JUMP JUMPDEST PUSH1 0x0 ADD SWAP1 JUMP JUMPDEST CALLVALUE PUSH2 0x4B4 JUMPI PUSH2 0x49E PUSH2 0x498 CALLDATASIZE PUSH1 0x4 PUSH2 0x42D JUMP JUMPDEST SWAP2 PUSH2 0xA7A JUMP JUMPDEST PUSH2 0x4A6 PUSH2 0x83 JUMP JUMPDEST DUP1 PUSH2 0x4B0 DUP2 PUSH2 0x47F JUMP JUMPDEST SUB SWAP1 RETURN JUMPDEST PUSH2 0x89 JUMP JUMPDEST CALLVALUE PUSH2 0x4E8 JUMPI PUSH2 0x4D2 PUSH2 0x4CC CALLDATASIZE PUSH1 0x4 PUSH2 0x1A6 JUMP JUMPDEST SWAP2 PUSH2 0xCBD JUMP JUMPDEST PUSH2 0x4DA PUSH2 0x83 JUMP JUMPDEST DUP1 PUSH2 0x4E4 DUP2 PUSH2 0x47F JUMP JUMPDEST SUB SWAP1 RETURN JUMPDEST PUSH2 0x89 JUMP JUMPDEST PUSH1 0x0 DUP1 REVERT JUMPDEST SWAP1 SWAP2 DUP3 PUSH1 0x1F DUP4 ADD SLT ISZERO PUSH2 0x52C JUMPI DUP2 CALLDATALOAD SWAP2 PUSH8 0xFFFFFFFFFFFFFFFF DUP4 GT PUSH2 0x527 JUMPI PUSH1 0x20 ADD SWAP3 PUSH1 0x20 DUP4 MUL DUP5 ADD GT PUSH2 0x522 JUMPI JUMP JUMPDEST PUSH2 0x3AE JUMP JUMPDEST PUSH2 0x4ED JUMP JUMPDEST PUSH2 0x32E JUMP JUMPDEST SWAP1 SWAP2 DUP3 PUSH1 0x1F DUP4 ADD SLT ISZERO PUSH2 0x56B JUMPI DUP2 CALLDATALOAD SWAP2 PUSH8 0xFFFFFFFFFFFFFFFF DUP4 GT PUSH2 0x566 JUMPI PUSH1 0x20 ADD SWAP3 PUSH1 0x1 DUP4 MUL DUP5 ADD GT PUSH2 0x561 JUMPI JUMP JUMPDEST PUSH2 0x3AE JUMP JUMPDEST PUSH2 0x4ED JUMP JUMPDEST PUSH2 0x32E JUMP JUMPDEST SWAP2 PUSH1 0xA0 DUP4 DUP4 SUB SLT PUSH2 0x60E JUMPI PUSH2 0x588 DUP3 PUSH1 0x0 DUP6 ADD PUSH2 0x170 JUMP JUMPDEST SWAP3 PUSH2 0x596 DUP4 PUSH1 0x20 DUP4 ADD PUSH2 0x170 JUMP JUMPDEST SWAP3 PUSH1 0x40 DUP3 ADD CALLDATALOAD PUSH8 0xFFFFFFFFFFFFFFFF DUP2 GT PUSH2 0x609 JUMPI DUP2 PUSH2 0x5B7 SWAP2 DUP5 ADD PUSH2 0x4F2 JUMP JUMPDEST SWAP3 SWAP1 SWAP4 PUSH1 0x60 DUP3 ADD CALLDATALOAD PUSH8 0xFFFFFFFFFFFFFFFF DUP2 GT PUSH2 0x604 JUMPI DUP4 PUSH2 0x5DA SWAP2 DUP5 ADD PUSH2 0x4F2 JUMP JUMPDEST SWAP3 SWAP1 SWAP4 PUSH1 0x80 DUP3 ADD CALLDATALOAD PUSH8 0xFFFFFFFFFFFFFFFF DUP2 GT PUSH2 0x5FF JUMPI PUSH2 0x5FB SWAP3 ADD PUSH2 0x531 JUMP JUMPDEST SWAP1 SWAP2 JUMP JUMPDEST PUSH2 0x93 JUMP JUMPDEST PUSH2 0x93 JUMP JUMPDEST PUSH2 0x93 JUMP JUMPDEST PUSH2 0x8E JUMP JUMPDEST PUSH2 0x61C SWAP1 PUSH2 0x98 JUMP JUMPDEST SWAP1 MSTORE JUMP JUMPDEST SWAP2 SWAP1 PUSH2 0x634 SWAP1 PUSH1 0x0 PUSH1 0x20 DUP6 ADD SWAP5 ADD SWAP1 PUSH2 0x613 JUMP JUMPDEST JUMP JUMPDEST CALLVALUE PUSH2 0x670 JUMPI PUSH2 0x66C PUSH2 0x65B PUSH2 0x64C CALLDATASIZE PUSH1 0x4 PUSH2 0x570 JUMP JUMPDEST SWAP7 SWAP6 SWAP1 SWAP6 SWAP5 SWAP2 SWAP5 SWAP4 SWAP3 SWAP4 PUSH2 0xF38 JUMP JUMPDEST PUSH2 0x663 PUSH2 0x83 JUMP JUMPDEST SWAP2 DUP3 SWAP2 DUP3 PUSH2 0x620 JUMP JUMPDEST SUB SWAP1 RETURN JUMPDEST PUSH2 0x89 JUMP JUMPDEST SWAP2 SWAP1 SWAP2 PUSH1 0xA0 DUP2 DUP5 SUB SLT PUSH2 0x6E1 JUMPI PUSH2 0x68F DUP4 PUSH1 0x0 DUP4 ADD PUSH2 0x170 JUMP JUMPDEST SWAP3 PUSH2 0x69D DUP2 PUSH1 0x20 DUP5 ADD PUSH2 0x170 JUMP JUMPDEST SWAP3 PUSH2 0x6AB DUP3 PUSH1 0x40 DUP6 ADD PUSH2 0x197 JUMP JUMPDEST SWAP3 PUSH2 0x6B9 DUP4 PUSH1 0x60 DUP4 ADD PUSH2 0x197 JUMP JUMPDEST SWAP3 PUSH1 0x80 DUP3 ADD CALLDATALOAD PUSH8 0xFFFFFFFFFFFFFFFF DUP2 GT PUSH2 0x6DC JUMPI PUSH2 0x6D8 SWAP3 ADD PUSH2 0x531 JUMP JUMPDEST SWAP1 SWAP2 JUMP JUMPDEST PUSH2 0x93 JUMP JUMPDEST PUSH2 0x8E JUMP JUMPDEST CALLVALUE PUSH2 0x71D JUMPI PUSH2 0x719 PUSH2 0x708 PUSH2 0x6FC CALLDATASIZE PUSH1 0x4 PUSH2 0x675 JUMP JUMPDEST SWAP5 SWAP4 SWAP1 SWAP4 SWAP3 SWAP2 SWAP3 PUSH2 0x1044 JUMP JUMPDEST PUSH2 0x710 PUSH2 0x83 JUMP JUMPDEST SWAP2 DUP3 SWAP2 DUP3 PUSH2 0x620 JUMP JUMPDEST SUB SWAP1 RETURN JUMPDEST PUSH2 0x89 JUMP JUMPDEST PUSH1 0x0 DUP1 REVERT JUMPDEST PUSH1 0x0 SWAP1 JUMP JUMPDEST PUSH2 0x734 PUSH2 0x727 JUMP JUMPDEST POP DUP1 PUSH2 0x74F PUSH2 0x749 PUSH4 0x2711897 PUSH1 0xE5 SHL PUSH2 0x98 JUMP JUMPDEST SWAP2 PUSH2 0x98 JUMP JUMPDEST EQ SWAP1 DUP2 ISZERO PUSH2 0x75C JUMPI JUMPDEST POP SWAP1 JUMP JUMPDEST SWAP1 POP PUSH2 0x777 PUSH2 0x771 PUSH4 0x1FFC9A7 PUSH1 0xE0 SHL PUSH2 0x98 JUMP JUMPDEST SWAP2 PUSH2 0x98 JUMP JUMPDEST EQ CODESIZE PUSH2 0x758 JUMP JUMPDEST MLOAD SWAP1 JUMP JUMPDEST SWAP1 PUSH2 0x794 PUSH2 0x78F DUP4 PUSH2 0x391 JUMP JUMPDEST PUSH2 0x37C JUMP JUMPDEST SWAP2 DUP3 MSTORE JUMP JUMPDEST CALLDATASIZE SWAP1 CALLDATACOPY JUMP JUMPDEST SWAP1 PUSH2 0x7C3 PUSH2 0x7AB DUP4 PUSH2 0x782 JUMP JUMPDEST SWAP3 PUSH1 0x20 DUP1 PUSH2 0x7B9 DUP7 SWAP4 PUSH2 0x391 JUMP JUMPDEST SWAP3 ADD SWAP2 SUB SWAP1 PUSH2 0x799 JUMP JUMPDEST JUMP JUMPDEST SWAP1 JUMP JUMPDEST PUSH2 0x7DC PUSH2 0x7D7 PUSH2 0x7E1 SWAP3 PUSH2 0x7C5 JUMP JUMPDEST PUSH2 0x1E1 JUMP JUMPDEST PUSH2 0x17F JUMP JUMPDEST SWAP1 JUMP JUMPDEST PUSH1 0x1 PUSH2 0x7F0 SWAP2 ADD PUSH2 0x17F JUMP JUMPDEST SWAP1 JUMP JUMPDEST PUSH4 0x4E487B71 PUSH1 0xE0 SHL PUSH1 0x0 MSTORE PUSH1 0x32 PUSH1 0x4 MSTORE PUSH1 0x24 PUSH1 0x0 REVERT JUMPDEST SWAP1 PUSH2 0x813 DUP3 PUSH2 0x77E JUMP JUMPDEST DUP2 LT ISZERO PUSH2 0x824 JUMPI PUSH1 0x20 DUP1 SWAP2 MUL ADD ADD SWAP1 JUMP JUMPDEST PUSH2 0x7F3 JUMP JUMPDEST PUSH2 0x833 SWAP1 MLOAD PUSH2 0x17F JUMP JUMPDEST SWAP1 JUMP JUMPDEST PUSH1 0x0 SHR SWAP1 JUMP JUMPDEST PUSH2 0x848 PUSH2 0x84D SWAP2 PUSH2 0x836 JUMP JUMPDEST PUSH2 0x280 JUMP JUMPDEST SWAP1 JUMP JUMPDEST PUSH2 0x85A SWAP1 SLOAD PUSH2 0x83C JUMP JUMPDEST SWAP1 JUMP JUMPDEST SWAP1 PUSH2 0x867 SWAP1 PUSH2 0x17F JUMP JUMPDEST SWAP1 MSTORE JUMP JUMPDEST SHL SWAP1 JUMP JUMPDEST SWAP2 SWAP1 PUSH1 0x8 PUSH2 0x88B SWAP2 MUL SWAP2 PUSH2 0x885 PUSH1 0x0 NOT DUP5 PUSH2 0x86B JUMP JUMPDEST SWAP3 PUSH2 0x86B JUMP JUMPDEST SWAP2 DUP2 NOT AND SWAP2 AND OR SWAP1 JUMP JUMPDEST SWAP1 JUMP JUMPDEST SWAP2 SWAP1 PUSH2 0x8AE PUSH2 0x8A9 PUSH2 0x8B6 SWAP4 PUSH2 0x248 JUMP JUMPDEST PUSH2 0x895 JUMP JUMPDEST SWAP1 DUP4 SLOAD PUSH2 0x86F JUMP JUMPDEST SWAP1 SSTORE JUMP JUMPDEST PUSH1 0x0 SWAP1 JUMP JUMPDEST PUSH2 0x8D1 SWAP2 PUSH2 0x8CB PUSH2 0x8BA JUMP JUMPDEST SWAP2 PUSH2 0x898 JUMP JUMPDEST JUMP JUMPDEST PUSH2 0x8DC SWAP1 PUSH2 0x14F JUMP JUMPDEST SWAP1 MSTORE JUMP JUMPDEST PUSH1 0x20 SWAP2 DUP2 MSTORE ADD SWAP1 JUMP JUMPDEST PUSH1 0x20 ADD SWAP1 JUMP JUMPDEST PUSH2 0x8F8 SWAP1 PUSH2 0x17F JUMP JUMPDEST SWAP1 MSTORE JUMP JUMPDEST SWAP1 PUSH2 0x909 DUP2 PUSH1 0x20 SWAP4 PUSH2 0x8EF JUMP JUMPDEST ADD SWAP1 JUMP JUMPDEST PUSH1 0x20 ADD SWAP1 JUMP JUMPDEST SWAP1 PUSH2 0x930 PUSH2 0x92A PUSH2 0x923 DUP5 PUSH2 0x77E JUMP JUMPDEST DUP1 SWAP4 PUSH2 0x8E0 JUMP JUMPDEST SWAP3 PUSH2 0x8E9 JUMP JUMPDEST SWAP1 PUSH1 0x0 JUMPDEST DUP2 DUP2 LT PUSH2 0x941 JUMPI POP POP POP SWAP1 JUMP JUMPDEST SWAP1 SWAP2 SWAP3 PUSH2 0x95A PUSH2 0x954 PUSH1 0x1 SWAP3 DUP7 MLOAD PUSH2 0x8FC JUMP JUMPDEST SWAP5 PUSH2 0x90D JUMP JUMPDEST SWAP2 ADD SWAP2 SWAP1 SWAP2 PUSH2 0x934 JUMP JUMPDEST SWAP3 SWAP1 PUSH2 0x99B SWAP2 PUSH2 0x98E PUSH2 0x9A9 SWAP7 SWAP5 PUSH2 0x984 PUSH1 0x80 DUP9 ADD SWAP5 PUSH1 0x0 DUP10 ADD SWAP1 PUSH2 0x8D3 JUMP JUMPDEST PUSH1 0x20 DUP8 ADD SWAP1 PUSH2 0x8D3 JUMP JUMPDEST DUP5 DUP3 SUB PUSH1 0x40 DUP7 ADD MSTORE PUSH2 0x913 JUMP JUMPDEST SWAP2 PUSH1 0x60 DUP2 DUP5 SUB SWAP2 ADD MSTORE PUSH2 0x913 JUMP JUMPDEST SWAP1 JUMP JUMPDEST PUSH2 0x9B5 SWAP1 PUSH2 0x1E4 JUMP JUMPDEST SWAP1 JUMP JUMPDEST PUSH2 0x9C1 SWAP1 PUSH2 0x9AC JUMP JUMPDEST SWAP1 JUMP JUMPDEST PUSH2 0x9CD SWAP1 PUSH2 0x200 JUMP JUMPDEST SWAP1 JUMP JUMPDEST PUSH2 0x9D9 SWAP1 PUSH2 0x200 JUMP JUMPDEST SWAP1 JUMP JUMPDEST PUSH1 0x0 DUP1 REVERT JUMPDEST PUSH1 0xE0 SHL SWAP1 JUMP JUMPDEST PUSH1 0x0 SWAP2 SUB SLT PUSH2 0x9F2 JUMPI JUMP JUMPDEST PUSH2 0x8E JUMP JUMPDEST PUSH1 0x20 SWAP2 DUP2 MSTORE ADD SWAP1 JUMP JUMPDEST PUSH2 0xA0C PUSH1 0x0 DUP1 SWAP3 PUSH2 0x9F7 JUMP JUMPDEST ADD SWAP1 JUMP JUMPDEST SWAP3 PUSH2 0xA66 SWAP5 SWAP2 PUSH2 0xA4A SWAP2 PUSH2 0xA3D PUSH2 0xA58 SWAP6 PUSH2 0xA33 PUSH1 0xA0 DUP10 ADD SWAP5 PUSH1 0x0 DUP11 ADD SWAP1 PUSH2 0x8D3 JUMP JUMPDEST PUSH1 0x20 DUP9 ADD SWAP1 PUSH2 0x8D3 JUMP JUMPDEST DUP6 DUP3 SUB PUSH1 0x40 DUP8 ADD MSTORE PUSH2 0x913 JUMP JUMPDEST SWAP1 DUP4 DUP3 SUB PUSH1 0x60 DUP6 ADD MSTORE PUSH2 0x913 JUMP JUMPDEST SWAP1 PUSH1 0x80 DUP2 DUP4 SUB SWAP2 ADD MSTORE PUSH2 0xA00 JUMP JUMPDEST SWAP1 JUMP JUMPDEST PUSH2 0xA71 PUSH2 0x83 JUMP JUMPDEST RETURNDATASIZE PUSH1 0x0 DUP3 RETURNDATACOPY RETURNDATASIZE SWAP1 REVERT JUMPDEST PUSH2 0xA8B PUSH2 0xA86 DUP5 PUSH2 0x77E JUMP JUMPDEST PUSH2 0x79E JUMP JUMPDEST PUSH2 0xA95 PUSH1 0x0 PUSH2 0x7C8 JUMP JUMPDEST JUMPDEST DUP1 PUSH2 0xAB1 PUSH2 0xAAB PUSH2 0xAA6 DUP9 PUSH2 0x77E JUMP JUMPDEST PUSH2 0x17F JUMP JUMPDEST SWAP2 PUSH2 0x17F JUMP JUMPDEST LT ISZERO PUSH2 0xB4F JUMPI PUSH2 0xB4A SWAP1 PUSH2 0xB0A PUSH2 0xAF8 PUSH2 0xAF3 PUSH2 0xADA PUSH2 0xAD3 PUSH1 0x0 DUP10 SWAP1 PUSH2 0x218 JUMP JUMPDEST DUP10 SWAP1 PUSH2 0x230 JUMP JUMPDEST PUSH2 0xAED PUSH2 0xAE8 DUP12 DUP8 SWAP1 PUSH2 0x809 JUMP JUMPDEST PUSH2 0x829 JUMP JUMPDEST SWAP1 PUSH2 0x264 JUMP JUMPDEST PUSH2 0x850 JUMP JUMPDEST PUSH2 0xB05 DUP6 SWAP2 DUP5 SWAP1 SWAP3 PUSH2 0x809 JUMP JUMPDEST PUSH2 0x85D JUMP JUMPDEST PUSH2 0xB45 PUSH1 0x0 PUSH2 0xB40 PUSH2 0xB27 PUSH2 0xB20 DUP4 DUP10 SWAP1 PUSH2 0x218 JUMP JUMPDEST DUP10 SWAP1 PUSH2 0x230 JUMP JUMPDEST PUSH2 0xB3A PUSH2 0xB35 DUP12 DUP8 SWAP1 PUSH2 0x809 JUMP JUMPDEST PUSH2 0x829 JUMP JUMPDEST SWAP1 PUSH2 0x264 JUMP JUMPDEST PUSH2 0x8BF JUMP JUMPDEST PUSH2 0x7E4 JUMP JUMPDEST PUSH2 0xA96 JUMP JUMPDEST POP SWAP2 PUSH2 0xB9B PUSH2 0xBA0 SWAP2 DUP4 DUP2 DUP8 SWAP2 PUSH2 0xB93 DUP9 PUSH32 0x52AFAE05D11477135F8797C76D1235E9CA8BFEC06367627F38F22FF5019379A3 SWAP5 PUSH2 0xB8A PUSH2 0x83 JUMP JUMPDEST SWAP5 DUP6 SWAP5 DUP6 PUSH2 0x964 JUMP JUMPDEST SUB SWAP1 LOG1 PUSH2 0x9B8 JUMP JUMPDEST PUSH2 0x9C4 JUMP JUMPDEST PUSH4 0x2EB2C2D6 SWAP3 PUSH2 0xBAF ADDRESS PUSH2 0x9D0 JUMP JUMPDEST SWAP3 SWAP5 SWAP1 DUP3 EXTCODESIZE ISZERO PUSH2 0xC28 JUMPI PUSH1 0x0 SWAP5 PUSH2 0xBE4 DUP7 SWAP3 PUSH2 0xBD9 SWAP5 PUSH2 0xBCD PUSH2 0x83 JUMP JUMPDEST SWAP10 DUP11 SWAP9 DUP10 SWAP8 DUP9 SWAP7 PUSH2 0x9E1 JUMP JUMPDEST DUP7 MSTORE PUSH1 0x4 DUP7 ADD PUSH2 0xA10 JUMP JUMPDEST SUB SWAP3 GAS CALL DUP1 ISZERO PUSH2 0xC23 JUMPI PUSH2 0xBF6 JUMPI JUMPDEST POP JUMP JUMPDEST PUSH2 0xC16 SWAP1 PUSH1 0x0 RETURNDATASIZE DUP2 GT PUSH2 0xC1C JUMPI JUMPDEST PUSH2 0xC0E DUP2 DUP4 PUSH2 0x353 JUMP JUMPDEST DUP2 ADD SWAP1 PUSH2 0x9E7 JUMP JUMPDEST CODESIZE PUSH2 0xBF3 JUMP JUMPDEST POP RETURNDATASIZE PUSH2 0xC04 JUMP JUMPDEST PUSH2 0xA69 JUMP JUMPDEST PUSH2 0x9DC JUMP JUMPDEST PUSH2 0xC63 PUSH2 0xC6A SWAP5 PUSH2 0xC59 PUSH1 0x60 SWAP5 SWAP9 SWAP8 SWAP6 PUSH2 0xC4F PUSH1 0x80 DUP7 ADD SWAP11 PUSH1 0x0 DUP8 ADD SWAP1 PUSH2 0x8D3 JUMP JUMPDEST PUSH1 0x20 DUP6 ADD SWAP1 PUSH2 0x8D3 JUMP JUMPDEST PUSH1 0x40 DUP4 ADD SWAP1 PUSH2 0x2D5 JUMP JUMPDEST ADD SWAP1 PUSH2 0x2D5 JUMP JUMPDEST JUMP JUMPDEST SWAP2 SWAP4 PUSH2 0xCA3 PUSH2 0xCAD SWAP3 SWAP5 PUSH2 0xC99 PUSH2 0xCBA SWAP8 PUSH2 0xC8F PUSH1 0xA0 DUP9 ADD SWAP9 PUSH1 0x0 DUP10 ADD SWAP1 PUSH2 0x8D3 JUMP JUMPDEST PUSH1 0x20 DUP8 ADD SWAP1 PUSH2 0x8D3 JUMP JUMPDEST PUSH1 0x40 DUP6 ADD SWAP1 PUSH2 0x2D5 JUMP JUMPDEST PUSH1 0x60 DUP4 ADD SWAP1 PUSH2 0x2D5 JUMP JUMPDEST PUSH1 0x80 DUP2 DUP4 SUB SWAP2 ADD MSTORE PUSH2 0xA00 JUMP JUMPDEST SWAP1 JUMP JUMPDEST PUSH2 0xD5D PUSH2 0xD58 PUSH2 0xCEB PUSH2 0xCE6 PUSH2 0xCDF PUSH2 0xCD8 PUSH1 0x0 DUP8 SWAP1 PUSH2 0x218 JUMP JUMPDEST DUP8 SWAP1 PUSH2 0x230 JUMP JUMPDEST DUP8 SWAP1 PUSH2 0x264 JUMP JUMPDEST PUSH2 0x850 JUMP JUMPDEST SWAP4 PUSH2 0xD15 PUSH1 0x0 PUSH2 0xD10 PUSH2 0xD09 PUSH2 0xD02 DUP4 DUP10 SWAP1 PUSH2 0x218 JUMP JUMPDEST DUP6 SWAP1 PUSH2 0x230 JUMP JUMPDEST DUP10 SWAP1 PUSH2 0x264 JUMP JUMPDEST PUSH2 0x8BF JUMP JUMPDEST DUP4 DUP2 DUP8 SWAP2 PUSH2 0xD50 DUP9 PUSH32 0x2F6639D24651730C7BF57C95DDBF96D66D11477E4EC626876F92C22E5F365E68 SWAP5 PUSH2 0xD47 PUSH2 0x83 JUMP JUMPDEST SWAP5 DUP6 SWAP5 DUP6 PUSH2 0xC2D JUMP JUMPDEST SUB SWAP1 LOG1 PUSH2 0x9B8 JUMP JUMPDEST PUSH2 0x9C4 JUMP JUMPDEST PUSH4 0xF242432A SWAP3 PUSH2 0xD6C ADDRESS PUSH2 0x9D0 JUMP JUMPDEST SWAP3 SWAP5 SWAP1 DUP3 EXTCODESIZE ISZERO PUSH2 0xDE5 JUMPI PUSH1 0x0 SWAP5 PUSH2 0xDA1 DUP7 SWAP3 PUSH2 0xD96 SWAP5 PUSH2 0xD8A PUSH2 0x83 JUMP JUMPDEST SWAP10 DUP11 SWAP9 DUP10 SWAP8 DUP9 SWAP7 PUSH2 0x9E1 JUMP JUMPDEST DUP7 MSTORE PUSH1 0x4 DUP7 ADD PUSH2 0xC6C JUMP JUMPDEST SUB SWAP3 GAS CALL DUP1 ISZERO PUSH2 0xDE0 JUMPI PUSH2 0xDB3 JUMPI JUMPDEST POP JUMP JUMPDEST PUSH2 0xDD3 SWAP1 PUSH1 0x0 RETURNDATASIZE DUP2 GT PUSH2 0xDD9 JUMPI JUMPDEST PUSH2 0xDCB DUP2 DUP4 PUSH2 0x353 JUMP JUMPDEST DUP2 ADD SWAP1 PUSH2 0x9E7 JUMP JUMPDEST CODESIZE PUSH2 0xDB0 JUMP JUMPDEST POP RETURNDATASIZE PUSH2 0xDC1 JUMP JUMPDEST PUSH2 0xA69 JUMP JUMPDEST PUSH2 0x9DC JUMP JUMPDEST PUSH1 0x0 SWAP1 JUMP JUMPDEST POP SWAP1 JUMP JUMPDEST SWAP2 SWAP1 DUP2 LT ISZERO PUSH2 0xE03 JUMPI PUSH1 0x20 MUL ADD SWAP1 JUMP JUMPDEST PUSH2 0x7F3 JUMP JUMPDEST CALLDATALOAD PUSH2 0xE12 DUP2 PUSH2 0x182 JUMP JUMPDEST SWAP1 JUMP JUMPDEST PUSH4 0x4E487B71 PUSH1 0xE0 SHL PUSH1 0x0 MSTORE PUSH1 0x11 PUSH1 0x4 MSTORE PUSH1 0x24 PUSH1 0x0 REVERT JUMPDEST PUSH2 0xE3A PUSH2 0xE40 SWAP2 SWAP4 SWAP3 SWAP4 PUSH2 0x17F JUMP JUMPDEST SWAP3 PUSH2 0x17F JUMP JUMPDEST DUP3 ADD DUP1 SWAP3 GT PUSH2 0xE4B JUMPI JUMP JUMPDEST PUSH2 0xE15 JUMP JUMPDEST PUSH1 0x0 SHL SWAP1 JUMP JUMPDEST SWAP1 PUSH2 0xE63 PUSH1 0x0 NOT SWAP2 PUSH2 0xE50 JUMP JUMPDEST SWAP2 DUP2 NOT AND SWAP2 AND OR SWAP1 JUMP JUMPDEST SWAP1 PUSH2 0xE82 PUSH2 0xE7D PUSH2 0xE89 SWAP3 PUSH2 0x248 JUMP JUMPDEST PUSH2 0x895 JUMP JUMPDEST DUP3 SLOAD PUSH2 0xE56 JUMP JUMPDEST SWAP1 SSTORE JUMP JUMPDEST PUSH1 0x0 DUP1 REVERT JUMPDEST SWAP1 CALLDATACOPY JUMP JUMPDEST SWAP1 SWAP2 DUP3 PUSH2 0xEA2 SWAP2 PUSH2 0x8E0 JUMP JUMPDEST SWAP2 PUSH1 0x1 DUP1 PUSH1 0xFB SHL SUB DUP2 GT PUSH2 0xEC5 JUMPI DUP3 SWAP2 PUSH1 0x20 PUSH2 0xEC1 SWAP3 MUL SWAP4 DUP5 SWAP2 PUSH2 0xE92 JUMP JUMPDEST ADD SWAP1 JUMP JUMPDEST PUSH2 0xE8D JUMP JUMPDEST SWAP5 SWAP3 SWAP4 PUSH2 0xF10 SWAP7 SWAP5 PUSH2 0xEF5 PUSH2 0xF02 SWAP5 PUSH2 0xEEB PUSH1 0x80 DUP11 ADD SWAP6 PUSH1 0x0 DUP12 ADD SWAP1 PUSH2 0x8D3 JUMP JUMPDEST PUSH1 0x20 DUP10 ADD SWAP1 PUSH2 0x8D3 JUMP JUMPDEST DUP7 DUP4 SUB PUSH1 0x40 DUP9 ADD MSTORE PUSH2 0xE96 JUMP JUMPDEST SWAP3 PUSH1 0x60 DUP2 DUP6 SUB SWAP2 ADD MSTORE PUSH2 0xE96 JUMP JUMPDEST SWAP1 JUMP JUMPDEST PUSH4 0xFFFFFFFF AND SWAP1 JUMP JUMPDEST PUSH2 0xF30 PUSH2 0xF2B PUSH2 0xF35 SWAP3 PUSH2 0xF13 JUMP JUMPDEST PUSH2 0x9E1 JUMP JUMPDEST PUSH2 0x98 JUMP JUMPDEST SWAP1 JUMP JUMPDEST POP POP SWAP4 SWAP5 PUSH2 0xF50 SWAP2 SWAP4 SWAP6 PUSH2 0xF4A PUSH2 0xDEA JUMP JUMPDEST POP PUSH2 0x11AF JUMP JUMPDEST SWAP4 CALLER SWAP2 PUSH2 0xF5D PUSH1 0x0 PUSH2 0x7C8 JUMP JUMPDEST JUMPDEST DUP1 PUSH2 0xF7B PUSH2 0xF75 PUSH2 0xF70 DUP10 DUP10 SWAP1 PUSH2 0xDEF JUMP JUMPDEST PUSH2 0x17F JUMP JUMPDEST SWAP2 PUSH2 0x17F JUMP JUMPDEST LT ISZERO PUSH2 0xFF0 JUMPI PUSH2 0xFEB SWAP1 PUSH2 0xFE6 PUSH2 0xF9C PUSH2 0xF97 DUP6 DUP8 DUP6 SWAP2 PUSH2 0xDF3 JUMP JUMPDEST PUSH2 0xE08 JUMP JUMPDEST PUSH2 0xFE0 PUSH2 0xFD1 PUSH2 0xFB7 PUSH2 0xFB0 DUP14 PUSH1 0x0 PUSH2 0x218 JUMP JUMPDEST DUP11 SWAP1 PUSH2 0x230 JUMP JUMPDEST PUSH2 0xFCB PUSH2 0xFC6 DUP14 DUP14 DUP10 SWAP2 PUSH2 0xDF3 JUMP JUMPDEST PUSH2 0xE08 JUMP JUMPDEST SWAP1 PUSH2 0x264 JUMP JUMPDEST SWAP2 PUSH2 0xFDB DUP4 PUSH2 0x850 JUMP JUMPDEST PUSH2 0xE2B JUMP JUMPDEST SWAP1 PUSH2 0xE6D JUMP JUMPDEST PUSH2 0x7E4 JUMP JUMPDEST PUSH2 0xF5E JUMP JUMPDEST POP SWAP1 PUSH2 0x1031 SWAP3 SWAP4 SWAP6 SWAP4 SWAP5 SWAP6 SWAP2 SWAP1 SWAP2 PUSH32 0x8BC34FEED688351319653DD43606ECFF95D859489D6A570F0DC355C98A007225 SWAP7 PUSH2 0x1028 PUSH2 0x83 JUMP JUMPDEST SWAP7 DUP8 SWAP7 DUP8 PUSH2 0xECA JUMP JUMPDEST SUB SWAP1 LOG1 PUSH2 0x1041 PUSH4 0xBC197C81 PUSH2 0xF1C JUMP JUMPDEST SWAP1 JUMP JUMPDEST POP POP SWAP2 SWAP3 PUSH2 0x105B SWAP2 SWAP4 PUSH2 0x1055 PUSH2 0xDEA JUMP JUMPDEST POP PUSH2 0x11AF JUMP JUMPDEST PUSH2 0x10D2 CALLER SWAP2 PUSH2 0x109C DUP6 PUSH2 0x1096 PUSH2 0x1087 PUSH2 0x1080 PUSH2 0x1079 PUSH1 0x0 DUP8 SWAP1 PUSH2 0x218 JUMP JUMPDEST DUP9 SWAP1 PUSH2 0x230 JUMP JUMPDEST DUP9 SWAP1 PUSH2 0x264 JUMP JUMPDEST SWAP2 PUSH2 0x1091 DUP4 PUSH2 0x850 JUMP JUMPDEST PUSH2 0xE2B JUMP JUMPDEST SWAP1 PUSH2 0xE6D JUMP JUMPDEST SWAP2 SWAP3 SWAP4 PUSH32 0x13805C88D507C700BE6B306C02E8A12F22987364D2FADEFF7D4FA5392508FDBF SWAP5 PUSH2 0x10C9 PUSH2 0x83 JUMP JUMPDEST SWAP5 DUP6 SWAP5 DUP6 PUSH2 0xC2D JUMP JUMPDEST SUB SWAP1 LOG1 PUSH2 0x10E2 PUSH4 0xF23A6E61 PUSH2 0xF1C JUMP JUMPDEST SWAP1 JUMP JUMPDEST PUSH1 0x0 SWAP1 JUMP JUMPDEST POP SWAP1 JUMP JUMPDEST SWAP1 JUMP JUMPDEST PUSH2 0x1105 PUSH2 0x1100 PUSH2 0x110A SWAP3 PUSH2 0x10EE JUMP JUMPDEST PUSH2 0x1E1 JUMP JUMPDEST PUSH2 0x17F JUMP JUMPDEST SWAP1 JUMP JUMPDEST SWAP1 JUMP JUMPDEST PUSH2 0x1124 PUSH2 0x111F PUSH2 0x1129 SWAP3 PUSH2 0x110D JUMP JUMPDEST PUSH2 0x1E1 JUMP JUMPDEST PUSH2 0x17F JUMP JUMPDEST SWAP1 JUMP JUMPDEST PUSH2 0x1135 SWAP1 PUSH2 0x144 JUMP JUMPDEST SWAP1 JUMP JUMPDEST PUSH2 0x1141 DUP2 PUSH2 0x112C JUMP JUMPDEST SUB PUSH2 0x1148 JUMPI JUMP JUMPDEST PUSH1 0x0 DUP1 REVERT JUMPDEST SWAP1 POP CALLDATALOAD SWAP1 PUSH2 0x115A DUP3 PUSH2 0x1138 JUMP JUMPDEST JUMP JUMPDEST SWAP1 PUSH1 0x20 DUP3 DUP3 SUB SLT PUSH2 0x1176 JUMPI PUSH2 0x1173 SWAP2 PUSH1 0x0 ADD PUSH2 0x114D JUMP JUMPDEST SWAP1 JUMP JUMPDEST PUSH2 0x8E JUMP JUMPDEST PUSH2 0x1184 SWAP1 PUSH2 0x200 JUMP JUMPDEST SWAP1 JUMP JUMPDEST PUSH2 0x119B PUSH2 0x1196 PUSH2 0x11A0 SWAP3 PUSH2 0x7C5 JUMP JUMPDEST PUSH2 0x1E1 JUMP JUMPDEST PUSH2 0x144 JUMP JUMPDEST SWAP1 JUMP JUMPDEST PUSH2 0x11AC SWAP1 PUSH2 0x1187 JUMP JUMPDEST SWAP1 JUMP JUMPDEST PUSH2 0x11B7 PUSH2 0x10E5 JUMP JUMPDEST SWAP2 PUSH2 0x11C3 DUP3 DUP3 SWAP1 PUSH2 0x10EA JUMP JUMPDEST PUSH2 0x11D6 PUSH2 0x11D0 PUSH1 0x14 PUSH2 0x10F1 JUMP JUMPDEST SWAP2 PUSH2 0x17F JUMP JUMPDEST EQ PUSH1 0x0 EQ PUSH2 0x122E JUMPI POP PUSH1 0x14 SWAP2 POP PUSH1 0x0 CALLDATACOPY PUSH1 0x0 MLOAD PUSH1 0x60 SHR JUMPDEST DUP1 PUSH2 0x1209 PUSH2 0x1203 PUSH2 0x11FE PUSH1 0x0 PUSH2 0x11A3 JUMP JUMPDEST PUSH2 0x14F JUMP JUMPDEST SWAP2 PUSH2 0x14F JUMP JUMPDEST EQ PUSH2 0x1211 JUMPI SWAP1 JUMP JUMPDEST PUSH1 0x0 PUSH4 0x6DEFBEED PUSH1 0xE1 SHL DUP2 MSTORE DUP1 PUSH2 0x122A PUSH1 0x4 DUP3 ADD PUSH2 0x47F JUMP JUMPDEST SUB SWAP1 REVERT JUMPDEST SWAP1 PUSH2 0x123A DUP2 DUP4 SWAP1 PUSH2 0x10EA JUMP JUMPDEST PUSH2 0x124D PUSH2 0x1247 PUSH1 0x20 PUSH2 0x1110 JUMP JUMPDEST SWAP2 PUSH2 0x17F JUMP JUMPDEST EQ PUSH2 0x125A JUMPI JUMPDEST POP POP PUSH2 0x11ED JUMP JUMPDEST PUSH2 0x1272 SWAP3 POP SWAP1 PUSH2 0x126D SWAP2 SWAP1 DUP2 ADD SWAP1 PUSH2 0x115C JUMP JUMPDEST PUSH2 0x117B JUMP JUMPDEST CODESIZE DUP1 PUSH2 0x1253 JUMP INVALID LOG2 PUSH5 0x6970667358 0x22 SLT KECCAK256 MSTORE8 INVALID ORIGIN MUL 0xC9 ADD PUSH7 0xDFC5F174690E2F SWAP1 0xE7 0xBB PUSH3 0x1873FF BLOBHASH CALLDATALOAD PUSH3 0x423AF7 DUP11 0xB9 PUSH21 0xDBB564736F6C634300081B00330000000000000000 "
        },
        "methodIdentifiers": {
          "claim(address,address,uint256)": "996cba68",
          "claimBatch(address,address,uint256[])": "8f98c8fb",
          "claims(address,address,uint256)": "3f2e7821",
          "onERC1155BatchReceived(address,address,uint256[],uint256[],bytes)": "bc197c81",
          "onERC1155Received(address,address,uint256,uint256,bytes)": "f23a6e61",
          "supportsInterface(bytes4)": "01ffc9a7"
        }
      },
      "userdoc": {
        "kind": "user",
        "methods": {},
        "notice": "An ERC-1155 contract that allows permissive minting.",
        "version": 1
      }
    }
  }
}