{"abi":[{"type":"function","name":"getBalance","inputs":[{"name":"_token","type":"address","internalType":"address"}],"outputs":[{"name":"","type":"uint256","internalType":"uint256"}],"stateMutability":"view"},{"type":"function","name":"handleSequenceDelegateCall","inputs":[{"name":"","type":"bytes32","internalType":"bytes32"},{"name":"","type":"uint256","internalType":"uint256"},{"name":"","type":"uint256","internalType":"uint256"},{"name":"","type":"uint256","internalType":"uint256"},{"name":"","type":"uint256","internalType":"uint256"},{"name":"_data","type":"bytes","internalType":"bytes"}],"outputs":[],"stateMutability":"nonpayable"},{"type":"function","name":"sweep","inputs":[{"name":"_token","type":"address","internalType":"address"},{"name":"_recipient","type":"address","internalType":"address"}],"outputs":[],"stateMutability":"payable"},{"type":"event","name":"Sweep","inputs":[{"name":"token","type":"address","indexed":true,"internalType":"address"},{"name":"recipient","type":"address","indexed":true,"internalType":"address"},{"name":"amount","type":"uint256","indexed":false,"internalType":"uint256"}],"anonymous":false},{"type":"error","name":"InvalidDelegatedSelector","inputs":[{"name":"selector","type":"bytes4","internalType":"bytes4"}]},{"type":"error","name":"NativeTransferFailed","inputs":[]},{"type":"error","name":"NotDelegateCall","inputs":[]},{"type":"error","name":"SafeERC20FailedOperation","inputs":[{"name":"token","type":"address","internalType":"address"}]}],"bytecode":{"object":"0x60a08060405234602f57306080526105df9081610034823960805181818160960152818161029e01526103830152f35b5f80fdfe60806040526004361015610011575f80fd5b5f3560e01c80634c4e814c1461024f578063b8dc491b146100695763f8b2cb4f1461003a575f80fd5b3461006557602036600319011261006557602061005d6100586102d9565b610517565b604051908152f35b5f80fd5b60403660031901126100655761007d6102d9565b6024356001600160a01b038116919082900361006557307f00000000000000000000000000000000000000000000000000000000000000006001600160a01b031614610240576001600160a01b03168061015857475f80808084875af13d15610153573d6001600160401b03811161013f5760405190610107601f8201601f1916602001836104f6565b81525f60203d92013e5b156101305760205f51602061058a5f395f51905f5291604051908152a3005b633d2cec6f60e21b5f5260045ffd5b634e487b7160e01b5f52604160045260245ffd5b610111565b6040516370a0823160e01b8152306004820152602081602481855afa908115610203575f9161020e575b5060205f6040518281019063a9059cbb60e01b8252866024820152846044820152604481526101b26064826104f6565b519082865af115610203575f513d6101fa5750813b155b6101e75760205f51602061058a5f395f51905f5291604051908152a3005b50635274afe760e01b5f5260045260245ffd5b600114156101c9565b6040513d5f823e3d90fd5b90506020813d602011610238575b81610229602093836104f6565b81010312610065575183610182565b3d915061021c565b6327844c6960e11b5f5260045ffd5b346100655760c03660031901126100655760a4356001600160401b03811161006557366023820112156100655780600401356001600160401b03811161006557366024828401011161006557307f00000000000000000000000000000000000000000000000000000000000000006001600160a01b0316146102405760246102d79201610303565b005b600435906001600160a01b038216820361006557565b35906001600160a01b038216820361006557565b9190915f60048410156104dc575b6001600160e01b0319169263b8dc491b60e01b841461033d578363fbdc730160e01b5f5260045260245ffd5b8091929350600411610065576040908201829003600319011261006557610372602461036b600484016102ef565b92016102ef565b6001600160a01b03908116918116907f0000000000000000000000000000000000000000000000000000000000000000163014610240578061041257475f80808084875af13d1561040d573d6001600160401b03811161013f57604051906103e4601f8201601f1916602001836104f6565b81525f60203d92013e5b156101305760205f51602061058a5f395f51905f5291604051908152a3565b6103ee565b6040516370a0823160e01b8152306004820152602081602481855afa908115610203575f916104aa575b5060205f6040518281019063a9059cbb60e01b82528660248201528460448201526044815261046c6064826104f6565b519082865af115610203575f513d6104a15750813b155b6101e75760205f51602061058a5f395f51905f5291604051908152a3565b60011415610483565b90506020813d6020116104d4575b816104c5602093836104f6565b8101031261006557515f61043c565b3d91506104b8565b50826004116100655780356001600160e01b031916610311565b90601f801991011681019081106001600160401b0382111761013f57604052565b6001600160a01b03168061052b5750333190565b6020602491604051928380926370a0823160e01b82523360048301525afa908115610203575f9161055a575090565b90506020813d602011610581575b81610575602093836104f6565b81010312610065575190565b3d915061056856feed679328aebf74ede77ae09efcf36e90244f83643dadac1c2d9f0b21a46f6ab7a26469706673582212201f57fb38711b2859acc72675db8e0f54febe5b12f94b3cbd1332853845dae29664736f6c634300081e0033","linkReferences":{}},"methodIdentifiers":{"getBalance(address)":"f8b2cb4f","handleSequenceDelegateCall(bytes32,uint256,uint256,uint256,uint256,bytes)":"4c4e814c","sweep(address,address)":"b8dc491b"},"id":31}