{"src/extensions/sessions/SessionSig.sol":{"SessionSig":{"abi":[{"type":"function","name":"hashCallWithReplayProtection","inputs":[{"name":"payload","type":"tuple","internalType":"struct Payload.Decoded","components":[{"name":"kind","type":"uint8","internalType":"uint8"},{"name":"noChainId","type":"bool","internalType":"bool"},{"name":"calls","type":"tuple[]","internalType":"struct Payload.Call[]","components":[{"name":"to","type":"address","internalType":"address"},{"name":"value","type":"uint256","internalType":"uint256"},{"name":"data","type":"bytes","internalType":"bytes"},{"name":"gasLimit","type":"uint256","internalType":"uint256"},{"name":"delegateCall","type":"bool","internalType":"bool"},{"name":"onlyFallback","type":"bool","internalType":"bool"},{"name":"behaviorOnError","type":"uint256","internalType":"uint256"}]},{"name":"space","type":"uint256","internalType":"uint256"},{"name":"nonce","type":"uint256","internalType":"uint256"},{"name":"message","type":"bytes","internalType":"bytes"},{"name":"imageHash","type":"bytes32","internalType":"bytes32"},{"name":"digest","type":"bytes32","internalType":"bytes32"},{"name":"parentWallets","type":"address[]","internalType":"address[]"}]},{"name":"callIdx","type":"uint256","internalType":"uint256"}],"outputs":[{"name":"callHash","type":"bytes32","internalType":"bytes32"}],"stateMutability":"view"}],"userdoc":{},"devdoc":{},"evm":{"bytecode":{"object":"60808060405234601957610443908161001f823930815050f35b600080fdfe608080604052600436101561001357600080fd5b60003560e01c633b0d14751461002857600080fd5b60407ffffffffffffffffffffffffffffffffffffffffffffffffffffffffffffffffc3601126103555760043567ffffffffffffffff811161035557803603906101207ffffffffffffffffffffffffffffffffffffffffffffffffffffffffffffffffc830112610355576024356024820135801515810361035557156103b8576000925b7fffffffffffffffffffffffffffffffffffffffffffffffffffffffffffffffdd60448401359101811215610355578201600481013567ffffffffffffffff8111610355578060051b3603602483011361035557821015610389576024600583901b820101357ffffffffffffffffffffffffffffffffffffffffffffffffffffffffffffffefd368390030181121561035557600491010160e07fffffffffffffffffffffffffffffffffffffffffffffffffffffffffffffffe082360301126103555760e0850185811067ffffffffffffffff82111761035a57604052602081013573ffffffffffffffffffffffffffffffffffffffff81168103610355578552602085019060408101358252606081013567ffffffffffffffff8111610355576020908201019536601f880112156103555786359167ffffffffffffffff831161035a576040519261022960207fffffffffffffffffffffffffffffffffffffffffffffffffffffffffffffffe0601f84011601856103bf565b8084526020840190366020828c0101116103555760208160009282809d01853786010152836040840152608082013580606085015261026a60a08401610400565b9182608086015273ffffffffffffffffffffffffffffffffffffffff60e061029460c08701610400565b958660a08901520135958660c08201525116965195519020604051958b8701977f0603985259a953da1f65a522f589c17bd1d0117ec1d3abb7c0788aef251ef437895260408801526060870152608086015260a0850152151560c0840152151560e08301526101008201526101008152610310610120826103bf565b519020906084604051938685019586526064810135604086015201356060840152608083015260a082015260a0815261034a60c0826103bf565b519020604051908152f35b600080fd5b7f4e487b7100000000000000000000000000000000000000000000000000000000600052604160045260246000fd5b7f4e487b7100000000000000000000000000000000000000000000000000000000600052603260045260246000fd5b46926100ad565b90601f7fffffffffffffffffffffffffffffffffffffffffffffffffffffffffffffffe0910116810190811067ffffffffffffffff82111761035a57604052565b359081151582036103555756fea2646970667358221220d3492448219beda12a9aa9616904ffae4ab970cc00c2879da1df6483ec4945df64736f6c634300081c0033","linkReferences":{}},"methodIdentifiers":{"hashCallWithReplayProtection(Payload.Decoded,uint256)":"3b0d1475"}}}}}