{"src/extensions/sessions/SessionManager.sol":{"SessionManager":{"abi":[{"type":"function","name":"MAX_SPACE","inputs":[],"outputs":[{"name":"","type":"uint256","internalType":"uint256"}],"stateMutability":"view"},{"type":"function","name":"VALUE_TRACKING_ADDRESS","inputs":[],"outputs":[{"name":"","type":"address","internalType":"address"}],"stateMutability":"view"},{"type":"function","name":"getLimitUsage","inputs":[{"name":"wallet","type":"address","internalType":"address"},{"name":"usageHash","type":"bytes32","internalType":"bytes32"}],"outputs":[{"name":"","type":"uint256","internalType":"uint256"}],"stateMutability":"view"},{"type":"function","name":"incrementUsageLimit","inputs":[{"name":"limits","type":"tuple[]","internalType":"struct UsageLimit[]","components":[{"name":"usageHash","type":"bytes32","internalType":"bytes32"},{"name":"usageAmount","type":"uint256","internalType":"uint256"}]}],"outputs":[],"stateMutability":"nonpayable"},{"type":"function","name":"recoverSapientSignature","inputs":[{"name":"payload","type":"tuple","internalType":"struct Payload.Decoded","components":[{"name":"kind","type":"uint8","internalType":"uint8"},{"name":"noChainId","type":"bool","internalType":"bool"},{"name":"calls","type":"tuple[]","internalType":"struct Payload.Call[]","components":[{"name":"to","type":"address","internalType":"address"},{"name":"value","type":"uint256","internalType":"uint256"},{"name":"data","type":"bytes","internalType":"bytes"},{"name":"gasLimit","type":"uint256","internalType":"uint256"},{"name":"delegateCall","type":"bool","internalType":"bool"},{"name":"onlyFallback","type":"bool","internalType":"bool"},{"name":"behaviorOnError","type":"uint256","internalType":"uint256"}]},{"name":"space","type":"uint256","internalType":"uint256"},{"name":"nonce","type":"uint256","internalType":"uint256"},{"name":"message","type":"bytes","internalType":"bytes"},{"name":"imageHash","type":"bytes32","internalType":"bytes32"},{"name":"digest","type":"bytes32","internalType":"bytes32"},{"name":"parentWallets","type":"address[]","internalType":"address[]"}]},{"name":"encodedSignature","type":"bytes","internalType":"bytes"}],"outputs":[{"name":"","type":"bytes32","internalType":"bytes32"}],"stateMutability":"view"},{"type":"function","name":"validatePermission","inputs":[{"name":"permission","type":"tuple","internalType":"struct Permission","components":[{"name":"target","type":"address","internalType":"address"},{"name":"rules","type":"tuple[]","internalType":"struct ParameterRule[]","components":[{"name":"cumulative","type":"bool","internalType":"bool"},{"name":"operation","type":"uint8","internalType":"enum ParameterOperation"},{"name":"value","type":"bytes32","internalType":"bytes32"},{"name":"offset","type":"uint256","internalType":"uint256"},{"name":"mask","type":"bytes32","internalType":"bytes32"}]}]},{"name":"call","type":"tuple","internalType":"struct Payload.Call","components":[{"name":"to","type":"address","internalType":"address"},{"name":"value","type":"uint256","internalType":"uint256"},{"name":"data","type":"bytes","internalType":"bytes"},{"name":"gasLimit","type":"uint256","internalType":"uint256"},{"name":"delegateCall","type":"bool","internalType":"bool"},{"name":"onlyFallback","type":"bool","internalType":"bool"},{"name":"behaviorOnError","type":"uint256","internalType":"uint256"}]},{"name":"wallet","type":"address","internalType":"address"},{"name":"signer","type":"address","internalType":"address"},{"name":"usageLimits","type":"tuple[]","internalType":"struct UsageLimit[]","components":[{"name":"usageHash","type":"bytes32","internalType":"bytes32"},{"name":"usageAmount","type":"uint256","internalType":"uint256"}]}],"outputs":[{"name":"","type":"bool","internalType":"bool"},{"name":"newUsageLimits","type":"tuple[]","internalType":"struct UsageLimit[]","components":[{"name":"usageHash","type":"bytes32","internalType":"bytes32"},{"name":"usageAmount","type":"uint256","internalType":"uint256"}]}],"stateMutability":"view"},{"type":"event","name":"LimitUsageUpdated","inputs":[{"name":"wallet","type":"address","indexed":false,"internalType":"address"},{"name":"usageHash","type":"bytes32","indexed":false,"internalType":"bytes32"},{"name":"usageAmount","type":"uint256","indexed":false,"internalType":"uint256"}],"anonymous":false},{"type":"error","name":"BlacklistedAddress","inputs":[{"name":"target","type":"address","internalType":"address"}]},{"type":"error","name":"InvalidAttestation","inputs":[]},{"type":"error","name":"InvalidBehavior","inputs":[]},{"type":"error","name":"InvalidBlacklist","inputs":[]},{"type":"error","name":"InvalidBlacklistUnsorted","inputs":[]},{"type":"error","name":"InvalidCallsLength","inputs":[]},{"type":"error","name":"InvalidChainId","inputs":[{"name":"invalidChainId","type":"uint256","internalType":"uint256"}]},{"type":"error","name":"InvalidDelegateCall","inputs":[]},{"type":"error","name":"InvalidIdentitySigner","inputs":[]},{"type":"error","name":"InvalidImplicitResult","inputs":[]},{"type":"error","name":"InvalidLimitUsageIncrement","inputs":[]},{"type":"error","name":"InvalidNodeType","inputs":[{"name":"flag","type":"uint256","internalType":"uint256"}]},{"type":"error","name":"InvalidPayloadKind","inputs":[]},{"type":"error","name":"InvalidPermission","inputs":[]},{"type":"error","name":"InvalidSelfCall","inputs":[]},{"type":"error","name":"InvalidSessionSigner","inputs":[{"name":"invalidSigner","type":"address","internalType":"address"}]},{"type":"error","name":"InvalidSpace","inputs":[{"name":"space","type":"uint256","internalType":"uint256"}]},{"type":"error","name":"InvalidValue","inputs":[]},{"type":"error","name":"MissingPermission","inputs":[]},{"type":"error","name":"SessionExpired","inputs":[{"name":"deadline","type":"uint256","internalType":"uint256"}]}],"userdoc":{},"devdoc":{},"evm":{"bytecode":{"object":"6080806040523460155761355c908161001b8239f35b600080fdfe6080604052600436101561001257600080fd5b60003560e01c806313792a4a1461007757806323b3713e14610072578063313dade71461006d57806342de1418146100685780638c946df4146100635763f916f3b21461005e57600080fd5b6106a6565b610662565b6105b6565b6103ef565b610194565b3461014a5760407ffffffffffffffffffffffffffffffffffffffffffffffffffffffffffffffffc36011261014a5760043567ffffffffffffffff811161014a576101207ffffffffffffffffffffffffffffffffffffffffffffffffffffffffffffffffc823603011261014a5760243567ffffffffffffffff811161014a573660238201121561014a57806004013567ffffffffffffffff811161014a57366024828401011161014a576101469260246101369301906004016109ba565b6040519081529081906020820190565b0390f35b600080fd5b73ffffffffffffffffffffffffffffffffffffffff81160361014a57565b6044359061017a8261014f565b565b6064359061017a8261014f565b359061017a8261014f565b3461014a5760407ffffffffffffffffffffffffffffffffffffffffffffffffffffffffffffffffc36011261014a576004356101cf8161014f565b73ffffffffffffffffffffffffffffffffffffffff602435911660005260006020526040600020906000526020526020604060002054604051908152f35b7f4e487b7100000000000000000000000000000000000000000000000000000000600052604160045260246000fd5b6040810190811067ffffffffffffffff82111761025857604052565b61020d565b60a0810190811067ffffffffffffffff82111761025857604052565b90601f7fffffffffffffffffffffffffffffffffffffffffffffffffffffffffffffffe0910116810190811067ffffffffffffffff82111761025857604052565b6040519061017a604083610279565b6040519061017a60e083610279565b67ffffffffffffffff81116102585760051b60200190565b8015150361014a57565b359061017a826102f0565b908160e091031261014a5790565b81601f8201121561014a5780359061032a826102d8565b926103386040519485610279565b82845260208085019360061b8301019181831161014a57602001925b828410610362575050505090565b60408483031261014a576020604091825161037c8161023c565b863581528287013583820152815201930192610354565b906020808351928381520192019060005b8181106103b15750505090565b82518051855260209081015181860152604090940193909201916001016103a4565b6040906103ec9392151581528160208201520190610393565b90565b3461014a5760a07ffffffffffffffffffffffffffffffffffffffffffffffffffffffffffffffffc36011261014a5760043567ffffffffffffffff811161014a5760407ffffffffffffffffffffffffffffffffffffffffffffffffffffffffffffffffc823603011261014a57604051906104698261023c565b80600401356104778161014f565b825260248101359067ffffffffffffffff821161014a57013660238201121561014a5760048101356104a8816102d8565b916104b66040519384610279565b8183526020600460a08286019402830101019036821161014a57602401915b81831061055057505050602082015260243567ffffffffffffffff811161014a57610504903690600401610305565b9061050d61016d565b61051561017c565b906084359367ffffffffffffffff851161014a5761053a610540953690600401610313565b93611075565b90610146604051928392836103d3565b60a08336031261014a57604051906105678261025d565b8335610572816102f0565b8252602084013590600482101561014a57826020928360a09501526040860135604082015260608601356060820152608086013560808201528152019201916104d5565b3461014a5760207ffffffffffffffffffffffffffffffffffffffffffffffffffffffffffffffffc36011261014a5760043567ffffffffffffffff811161014a573660238201121561014a57806004013567ffffffffffffffff811161014a573660248260061b8401011161014a57602461063192016113be565b005b7f4e487b7100000000000000000000000000000000000000000000000000000000600052601160045260246000fd5b3461014a5760007ffffffffffffffffffffffffffffffffffffffffffffffffffffffffffffffffc36011261014a57602069fffffffffffffffffffe604051908152f35b3461014a5760007ffffffffffffffffffffffffffffffffffffffffffffffffffffffffffffffffc36011261014a57602060405173eeeeeeeeeeeeeeeeeeeeeeeeeeeeeeeeeeeeeeee8152f35b3560ff8116810361014a5790565b9035907fffffffffffffffffffffffffffffffffffffffffffffffffffffffffffffffe18136030182121561014a570180359067ffffffffffffffff821161014a57602001918160051b3603831361014a57565b604051906060820182811067ffffffffffffffff821117610258576040526000604083828152606060208201520152565b90610790826102d8565b61079d6040519182610279565b8281527fffffffffffffffffffffffffffffffffffffffffffffffffffffffffffffffe06107cb82946102d8565b019060005b8281106107dc57505050565b6020906107e7610755565b828285010152016107d0565b7f4e487b7100000000000000000000000000000000000000000000000000000000600052603260045260246000fd5b901561085b578035907fffffffffffffffffffffffffffffffffffffffffffffffffffffffffffffff218136030182121561014a570190565b6107f3565b919081101561085b5760051b810135907fffffffffffffffffffffffffffffffffffffffffffffffffffffffffffffff218136030182121561014a570190565b356103ec816102f0565b356103ec8161014f565b805182101561085b5760209160051b010190565b604051906108d58261023c565b60006020838281520152565b604051906108f0602083610279565b600080835282815b82811061090457505050565b60209061090f6108c8565b828285010152016108f8565b90610925826102d8565b6109326040519182610279565b8281527fffffffffffffffffffffffffffffffffffffffffffffffffffffffffffffffe061096082946102d8565b019060005b82811061097157505050565b60209061097c6108c8565b82828501015201610965565b7fffffffffffffffffffffffffffffffffffffffffffffffffffffffffffffffff81146109b55760010190565b610633565b919060ff6109c7846106f3565b16610ee257606083013569fffffffffffffffffffe8111610eb4575060408301916109f28385610701565b905015610e8a57610a06918495939561168f565b91610a1b610a148583610701565b9050610786565b9060009460808501955b610a2f8284610701565b9050811015610dd157610a4c81610a468486610701565b90610860565b610a58608082016108a0565b610da75733610a82610a69836108aa565b73ffffffffffffffffffffffffffffffffffffffff1690565b14610d7d57600260c082013514610d5357610a9e8289516108b4565b51805115610ae85760019291816060610ad16020610ae295015173ffffffffffffffffffffffffffffffffffffffff1690565b9101519060408b0151923390611fbf565b01610a25565b91959392969050610af7610755565b96602083019460005b8751811015610d3257610b34610a69610b19838b6108b4565b515173ffffffffffffffffffffffffffffffffffffffff1690565b15610bfb57610b46610b19828a6108b4565b73ffffffffffffffffffffffffffffffffffffffff610b7c610a698a5173ffffffffffffffffffffffffffffffffffffffff1690565b911614610b8b57600101610b00565b9097929850610be4610bf59295968a600196610bdb60406060610bcf610bb28f8a906108b4565b51965b5173ffffffffffffffffffffffffffffffffffffffff1690565b94015192015160ff1690565b9133888c611a40565b610bee82896108b4565b52866108b4565b50610ae2565b90979298610be4908a600196610bdb60406060610bcf8d610c53610bf59b9e9f610c39905173ffffffffffffffffffffffffffffffffffffffff1690565b73ffffffffffffffffffffffffffffffffffffffff168952565b610c5b6108e1565b6020890152610d29610c81825173ffffffffffffffffffffffffffffffffffffffff1690565b855173ffffffffffffffffffffffffffffffffffffffff9091166020820190815273eeeeeeeeeeeeeeeeeeeeeeeeeeeeeeeeeeeeeeee604083015290610cf281606081015b037fffffffffffffffffffffffffffffffffffffffffffffffffffffffffffffffe08101835282610279565b5190203373ffffffffffffffffffffffffffffffffffffffff16600052600060205260406000209060005260205260406000205490565b84890152610bb5565b90979298610be4908a600196610bdb60406060610bcf610bf5999c9d610bb5565b7fc8103a190000000000000000000000000000000000000000000000000000000060005260046000fd5b7f540733ea0000000000000000000000000000000000000000000000000000000060005260046000fd5b7faa25f2ad0000000000000000000000000000000000000000000000000000000060005260046000fd5b50919093929450610de28151610786565b9260009260005b8351811015610e64576020610dfe82866108b4565b5101515115801590610e4d575b610e18575b600101610de9565b93610e45600191610e2987876108b4565b51610e34828a6108b4565b52610e3f81896108b4565b50610988565b949050610e10565b506040610e5a82866108b4565b5101511515610e0b565b50610e819250610e7b9195610e8695948552610701565b90610822565b612255565b5190565b7f542f0af50000000000000000000000000000000000000000000000000000000060005260046000fd5b7fdce5eceb0000000000000000000000000000000000000000000000000000000060005260045260245b6000fd5b7f720521200000000000000000000000000000000000000000000000000000000060005260046000fd5b90600182018092116109b557565b919082018092116109b557565b9035907fffffffffffffffffffffffffffffffffffffffffffffffffffffffffffffffe18136030182121561014a570180359067ffffffffffffffff821161014a5760200191813603831361014a57565b60041115610f8257565b7f4e487b7100000000000000000000000000000000000000000000000000000000600052602160045260246000fd5b9392919073ffffffffffffffffffffffffffffffffffffffff16845260606020850152602060a085019173ffffffffffffffffffffffffffffffffffffffff81511660608701520151604060808601528051809252602060c0860191019160005b81811061102457505060409150930152565b909183518051151582526020810151906004821015610f825782608060a092602094856001970152604081015160408401526060810151606084015201516080820152019401910192919092611012565b949091929394611099815173ffffffffffffffffffffffffffffffffffffffff1690565b73ffffffffffffffffffffffffffffffffffffffff6110ba610a69866108aa565b9116036113a3578551926110dd6110d8602084019586515190610f1a565b61091b565b9460005b885181101561111457806110f76001928b6108b4565b51611102828a6108b4565b5261110d81896108b4565b50016110e1565b50909294919395875160005b885180518210156113925781611135916108b4565b516111596111466040890189610f27565b5060608301519081013591602090910190565b506080820151169061116b8151151590565b61123e575b60208101805161117f81610f78565b61118881610f78565b6111ae575060400151036111a0576001905b01611120565b506000989750505050505050565b600381516111bb81610f78565b6111c481610f78565b036111db575060400151106111a05760019061119a565b600181516111e881610f78565b6111f181610f78565b03611208575060400151146111a05760019061119a565b6002905161121581610f78565b61121e81610f78565b1461122e575b505060019061119a565b60400151116111a0573880611224565b9691989795929093998a610cc66112618c6040519283918c602084019687610fb1565b519020966000936112706108c8565b9c60005b875181101561137a5761128781896108b4565b51511561132d578a611299828a6108b4565b5151146112a857600101611274565b6020949e50879a9198939c9d96506112c6906112db939c96986108b4565b519284840151915b82156112e6575b50610f1a565b918291015290611170565b6113259192506113168b73ffffffffffffffffffffffffffffffffffffffff166000526000602052604060002090565b90600052602052604060002090565b5490386112d5565b6020949e506112db929b95509761137489899c99959e9f98939a61136e906113536102ba565b978c895260008a8a01528861136883836108b4565b526108b4565b50610f0c565b976112ce565b5096946020939d929b9c956112db929b95979a6112ce565b505083525060019650909450505050565b509250505060009190565b919081101561085b5760061b0190565b60005b8281106113cd57505050565b60206113da8285856113ae565b013561141f6113ea8386866113ae565b353373ffffffffffffffffffffffffffffffffffffffff16600052600060205260406000209060005260205260406000205490565b1161149957807f42063b8d32ac0a88f94053143bb30a789b3d5dfabb27d6c8a54e23d4fef30851606061145560019487876113ae565b3560206114638589896113ae565b0135336000526000602052604060002082600052602052806040600020556040519133835260208301526040820152a1016113c1565b7e2a700a0000000000000000000000000000000000000000000000000000000060005260046000fd5b604051906114cf8261025d565b6060608083600081526000602082015282604082015282808201520152565b9093929384831161014a57841161014a578101920390565b604051906115138261023c565b6000602083606081520152565b6040519060c0820182811067ffffffffffffffff8211176102585760405281600081526000602082015260006040820152600060608201526060608082015260a0611569611506565b910152565b90611578826102d8565b6115856040519182610279565b8281527fffffffffffffffffffffffffffffffffffffffffffffffffffffffffffffffe06115b382946102d8565b019060005b8281106115c457505050565b6020906115cf611520565b828285010152016115b8565b6040513d6000823e3d90fd5b604051906080820182811067ffffffffffffffff82111761025857604052816000815260006020820152600060408201526060611569611520565b9061162c826102d8565b6116396040519182610279565b8281527fffffffffffffffffffffffffffffffffffffffffffffffffffffffffffffffe061166782946102d8565b019060005b82811061167857505050565b6020906116836115e7565b8282850101520161166c565b9162ffffff9261169d6114c2565b50600091833560e81c60039516906116d46116cc6116c66116be858a610f1a565b89858a6114ee565b90612596565b939097610f1a565b602087019473ffffffffffffffffffffffffffffffffffffffff61170c875173ffffffffffffffffffffffffffffffffffffffff1690565b16156119ea5750600181019392919086013560f81c9061172b8261156e565b9560005b8884821061191e575050505015159081611915575b506118eb576117566040820182610701565b93905061176284611622565b94608087019586526000935b85851061177f575050505050505090565b61179b61178a6115e7565b918381013560f81c91600190910190565b608082161515835295908251156118cb57607f1684518110156118a15760006117da61180f986117cd602094896108b4565b5160608701525b86612b37565b9a9092916117e8878c612cbe565b92604051948594859094939260ff6060936080840197845216602083015260408201520152565b838052039060015afa1561189c5761184a610a69600051610bb56020860191829073ffffffffffffffffffffffffffffffffffffffff169052565b1561186b57611863816001938a519061136883836108b4565b50019361176e565b7fc1e84ed600000000000000000000000000000000000000000000000000000000600052610ede6024906000600452565b6115db565b7fbd8ba84d0000000000000000000000000000000000000000000000000000000060005260046000fd5b60006117da61180f986118e6602094604088019060ff169052565b6117d4565b7feb6252040000000000000000000000000000000000000000000000000000000060005260046000fd5b90501538611744565b906020600061193d6119539a8761194696611937611520565b50612a81565b8d959195612b37565b9c9092916117e888612b7a565b838052039060015afa1561189c5760005173ffffffffffffffffffffffffffffffffffffffff61199a610a69865173ffffffffffffffffffffffffffffffffffffffff1690565b9116036119c0576001916119ae828b6108b4565b526119b9818a6108b4565b500161172f565b7f9e5c658b0000000000000000000000000000000000000000000000000000000060005260046000fd5b807f9e5c658b0000000000000000000000000000000000000000000000000000000060049252fd5b60405190611a1f8261025d565b60606080836000815260006020820152600060408201526000838201520152565b939594909192611a4e610755565b50611a57611a12565b9660005b8151811015611d2257611a71610b1982846108b4565b73ffffffffffffffffffffffffffffffffffffffff808516911614611a9857600101611a5b565b90611aa992939495969798506108b4565b51945b73ffffffffffffffffffffffffffffffffffffffff611adf875173ffffffffffffffffffffffffffffffffffffffff1690565b1615611cde57602086015180151580611cd4575b611ca75750606086015167ffffffffffffffff1680151580611c94575b611c5d575083610a46826040611b27940190610701565b92611b34608085016108a0565b610da757611b41846108aa565b73ffffffffffffffffffffffffffffffffffffffff163014611c4857506080850160ff815151931692831015611c1e57611b8f92611b7f91516108b4565b5190602087019484865193611075565b9015611bf45760209252013580611bdd575b5060408083015191015110611bb35790565b7faa7feadc0000000000000000000000000000000000000000000000000000000060005260046000fd5b611bec60408401918251610f1a565b905238611ba1565b7f868a64de0000000000000000000000000000000000000000000000000000000060005260046000fd5b7f3f904dc00000000000000000000000000000000000000000000000000000000060005260046000fd5b9350505091506114995760200135611bb35790565b7fb1bbfdd50000000000000000000000000000000000000000000000000000000060005267ffffffffffffffff1660045260246000fd5b5067ffffffffffffffff81164211611b10565b7f331003b30000000000000000000000000000000000000000000000000000000060005260045260246000fd5b5046811415611af3565b7fc1e84ed60000000000000000000000000000000000000000000000000000000060005273ffffffffffffffffffffffffffffffffffffffff821660045260246000fd5b505090919293959495611aac565b9081602091031261014a575190565b60005b838110611d525750506000910152565b8181015183820152602001611d42565b907fffffffffffffffffffffffffffffffffffffffffffffffffffffffffffffffe0601f602093611d9e81518092818752878088019101611d3f565b0116010190565b601f82602094937fffffffffffffffffffffffffffffffffffffffffffffffffffffffffffffffe0938186528686013760008582860101520116010190565b9073ffffffffffffffffffffffffffffffffffffffff8235611e058161014f565b1681526020820135602082015260408201357fffffffffffffffffffffffffffffffffffffffffffffffffffffffffffffffe18336030181121561014a57820160208135910167ffffffffffffffff821161014a57813603811361014a57611e7d60c09291839260e0604087015260e0860191611da5565b9360608101356060850152611ea0611e97608083016102fa565b15156080860152565b611eb8611eaf60a083016102fa565b151560a0860152565b013591015290565b73ffffffffffffffffffffffffffffffffffffffff6103ec94921681526060602082015273ffffffffffffffffffffffffffffffffffffffff83511660608201527fffffffff000000000000000000000000000000000000000000000000000000006020840151166080820152604083015160a0820152606083015160c082015260a0611f5d608085015160c060e0850152610120840190611d62565b930151927fffffffffffffffffffffffffffffffffffffffffffffffffffffffffffffffa082820301610100830152602067ffffffffffffffff81611fab8751604086526040860190611d62565b960151169101526040818403910152611de4565b92939091611fe4610a69865173ffffffffffffffffffffffffffffffffffffffff1690565b73ffffffffffffffffffffffffffffffffffffffff82160361219c5761200c608085016108a0565b610da75761201a8282612e23565b61215957506120319061202c846108aa565b612e23565b61210b576020820135611bb357602082612053610a69610a69612089966108aa565b60405180809681947f9d043a66000000000000000000000000000000000000000000000000000000008352898860048501611ec0565b03915afa91821561189c576000926120d8575b506120a79192612eee565b036120ae57565b7f0881ad5d0000000000000000000000000000000000000000000000000000000060005260046000fd5b6120a792506120fe9060203d602011612104575b6120f68183610279565b810190611d30565b9161209c565b503d6120ec565b610ede612117836108aa565b7fd33f19e70000000000000000000000000000000000000000000000000000000060005273ffffffffffffffffffffffffffffffffffffffff16600452602490565b7fd33f19e70000000000000000000000000000000000000000000000000000000060005273ffffffffffffffffffffffffffffffffffffffff1660045260246000fd5b7fc1e84ed60000000000000000000000000000000000000000000000000000000060005273ffffffffffffffffffffffffffffffffffffffff1660045260246000fd5b9060206103ec928181520190610393565b92919267ffffffffffffffff82116102585760405191612238601f82017fffffffffffffffffffffffffffffffffffffffffffffffffffffffffffffffe01660200184610279565b82948184528183011161014a578281602093846000960137010152565b8151909190156124b257612268826108aa565b73ffffffffffffffffffffffffffffffffffffffff1630148015906124a3575b8015612491575b61149957600092835b82518510156122ed576122bb9060206122b187866108b4565b5101515190610f1a565b9360406122c882856108b4565b5101516122d9575b60010193612298565b936122e5600191610988565b9490506122d0565b6122f99193945061091b565b60009081935b83518510156124265760005b602061231787876108b4565b51015151811015612364578061235d61234060019360206123388b8b6108b4565b5101516108b4565b519561234b81610988565b9661235682886108b4565b52856108b4565b500161230b565b509493600190604061237682876108b4565b510151612386575b0193946122ff565b612420612396610b1983886108b4565b6040516123e281610cc6602082019485602073eeeeeeeeeeeeeeeeeeeeeeeeeeeeeeeeeeeeeeee9193929373ffffffffffffffffffffffffffffffffffffffff60408201951681520152565b5190209460406123f284896108b4565b5101516123fd6102ba565b968752602087015261240e81610988565b9561241982876108b4565b52846108b4565b5061237e565b949350612483925061247c915060405161246e81610cc660208201947f42de1418000000000000000000000000000000000000000000000000000000008652602483016121df565b519020926040810190610f27565b36916121f0565b602081519101200361149957565b5061249e60a083016108a0565b61228f565b50600160c08301351415612288565b506124bc906108aa565b73ffffffffffffffffffffffffffffffffffffffff16301461149957565b906124e4826102d8565b6124f16040519182610279565b8281527fffffffffffffffffffffffffffffffffffffffffffffffffffffffffffffffe061251f82946102d8565b019060005b82811061253057505050565b60209061253b611a12565b82828501015201612524565b90612551826102d8565b61255e6040519182610279565b8281527fffffffffffffffffffffffffffffffffffffffffffffffffffffffffffffffe061258c82946102d8565b0190602036910137565b9161259f6114c2565b600093849081906125b2605e87046124da565b91606085019283525b8681106125cb5750505152929150565b8181013560fc81901c97916001019060f81c8189156129d25750600189146129a057600289146127fb57600389146126ca575060048814612635577f0ad9979000000000000000000000000000000000000000000000000000000000600052600488905260246000fd5b90919293949596506020860173ffffffffffffffffffffffffffffffffffffffff612674825173ffffffffffffffffffffffffffffffffffffffff1690565b166119c0578382013560601c815260149091019061269a9061269590610bb5565b61311f565b865180156126c457906126b591600052602052604060002090565b86525b959493929190956125bb565b506126b5565b989091929394959697506118eb57600f60019816600f81146127ea575b81906126f281612547565b604089019081526000805b83821061274557505050506127178261271d9285876114ee565b906130ab565b8651801561273f579061273891600052602052604060002090565b86526126b8565b50612738565b61277c958881013560601c9060140196906127618486516108b4565b9073ffffffffffffffffffffffffffffffffffffffff169052565b73ffffffffffffffffffffffffffffffffffffffff806127a0610bb58587516108b4565b92169116106127c0578b6127b8610bb58385516108b4565b9101906126fd565b7f83f928070000000000000000000000000000000000000000000000000000000060005260046000fd5b50600281019083013560f01c6126e7565b61285e96985061285661286792600f6116c6939c96979a95989c169087929190928160031b7fffffffffffffffffffffffffffffffffffffffffffffffffffffffffffffffff6001821b019185013590610100031c16920190565b979088610f1a565b809787876114ee565b93909593612989575b6020860173ffffffffffffffffffffffffffffffffffffffff6128a7825173ffffffffffffffffffffffffffffffffffffffff1690565b1661291f575b5060005b606087015180518210156128ee57906128e76128cf826001946108b4565b519b8a516128dc82610988565b9d61136883836108b4565b50016128b1565b50509290969593919794865180151560001461291857612738915190600052602052604060002090565b5051612738565b60208901612944610a69825173ffffffffffffffffffffffffffffffffffffffff1690565b6119c057612969612983925173ffffffffffffffffffffffffffffffffffffffff1690565b73ffffffffffffffffffffffffffffffffffffffff169052565b386128ad565b916118eb5760019160408601516040890152612870565b50855196975094959394929391929091602082019184013590801561273f579061273891600052602052604060002090565b929394959697985050506129e4611a12565b8184018035606090811c8352601482013560208401526034820135604084015260549091013560c01c9082015294612a20605c83018486612fa0565b8093916080890152612a339185876114ee565b612a3c91613056565b8751612a759291908015612a7b5790612a5d91600052602052604060002090565b88528551612a6a82610988565b9761136883836108b4565b506126b8565b50612a5d565b612b2c91939293612b2662ffffff612b016018612a9c611520565b987fffffffff000000000000000000000000000000000000000000000000000000006014888301803560601c8d5201351660208b01520160208682013591019060408a015260208682013591019060608a01528560039092919283013560e81c920190565b911690612b1c61247c612b148484610f1a565b8387896114ee565b6080890152610f1a565b91613183565b929060a08201529190565b8101916040602084359401359201601b7f7fffffffffffffffffffffffffffffffffffffffffffffffffffffffffffffff84169360ff1c0160ff81116109b55791565b73ffffffffffffffffffffffffffffffffffffffff81511690612c9d7fffffffff00000000000000000000000000000000000000000000000000000000602083015116610cc67fffffff0000000000000000000000000000000000000000000000000000000000604085015194606081015190608081015191612c8c6008602360a062ffffff87511695015180517fffffffffffffffff00000000000000000000000000000000000000000000000060208251930151916040519a8b9460e81b166020850152612c538151809260208888019101611d3f565b83019160c01b168382015203017fffffffffffffffffffffffffffffffffffffffffffffffffffffffffffffffe8810187520185610279565b604051978896602088019a8b6131ce565b51902090565b9080601f8301121561014a578160206103ec933591016121f0565b6020810135612ccc816102f0565b15612db3576000915b6060820135612cf182610a466080860135956040810190610701565b60e08136031261014a57612d036102c9565b92612d0d82610189565b84526020820135602085015260408201359167ffffffffffffffff831161014a57612c9d9460c0612d8592612d48610cc69636908301612ca3565b604084015260608101356060840152612d63608082016102fa565b6080840152612d7460a082016102fa565b60a0840152013560c0820152613286565b90604051958694602086019889939160a0959391855260208501526040840152606083015260808201520190565b4691612cd5565b907fffffffffffffffffffffffffffffffffffffffffffffffffffffffffffffffff82019182136001166109b557565b90600182019160006001841291129080158216911516176109b557565b919091600083820193841291129080158216911516176109b557565b600082517fffffffffffffffffffffffffffffffffffffffffffffffffffffffffffffffff81019081136001166109b557905b81811315612e675750505050600090565b80820360008212838212811690848313901516176109b557612e8d906002900582612e07565b90612e9b610bb583876108b4565b73ffffffffffffffffffffffffffffffffffffffff8581169116808203612ec85750505050505050600190565b1015612edd5750612ed890612dea565b612e56565b9150612ee890612dba565b90612e56565b9060405160208101907f616363657074496d706c69636974526571756573740000000000000000000000825260158152612f29603582610279565b5190209160406060820151910151907fffffffffffffffffffffffffffffffffffffffff000000000000000000000000604051936020850195865260601b1660408401526054830152607482015260748152612c9d609482610279565b60405190612f938261023c565b6060602083600081520152565b60018301939281013560f81c612fb5816102d8565b92612fc36040519485610279565b8184527fffffffffffffffffffffffffffffffffffffffffffffffffffffffffffffffe0612ff0836102d8565b0160005b8181106130375750506000925b82841061301057505050509190565b9091929561302160019184846133d8565b979061302d82886108b4565b5201929190613001565b60209061304695939495612f86565b8282890101520193929193612ff4565b90612c9d60016020926040519381859282840197600089526021850137820101828101600081525003017fffffffffffffffffffffffffffffffffffffffffffffffffffffffffffffffe08101835282610279565b90612c9d600160209260405193818592828401977f030000000000000000000000000000000000000000000000000000000000000089526021850137820101828101600081525003017fffffffffffffffffffffffffffffffffffffffffffffffffffffffffffffffe08101835282610279565b6040517fffffffffffffffffffffffffffffffffffffffff00000000000000000000000060208201927f0400000000000000000000000000000000000000000000000000000000000000845260601b16602182015260158152612c9d603582610279565b929161318d611506565b9060038101908581013560e81c019460038601918281116109b55761247c6003936131bb92600b97856114ee565b83528501013560c01c6020820152920190565b9390927fffffffff00000000000000000000000000000000000000000000000000000000605b989796937fffffffffffffffffffffffffffffffffffffffff0000000000000000000000007fffffff00000000000000000000000000000000000000000000000000000000009660601b1687521660148601526018850152603884015260e81b16605882015261326d8251809360208785019101611d3f565b016132818251809360208685019101611d3f565b010190565b73ffffffffffffffffffffffffffffffffffffffff81511690602081015190604081015160208151910120906060810151608082015115159060c060a08401511515930151936040519560208701977f0603985259a953da1f65a522f589c17bd1d0117ec1d3abb7c0788aef251ef437895260408801526060870152608086015260a085015260c084015260e08301526101008201526101008152612c9d61012082610279565b90613337826102d8565b6133446040519182610279565b8281527fffffffffffffffffffffffffffffffffffffffffffffffffffffffffffffffe061337282946102d8565b019060005b82811061338357505050565b6020906040516133928161025d565b6000815260008382015260006040820152600060608201526000608082015282828501015201613377565b60ff166004811015610f825790565b6004821015610f825752565b60ff9392915061342d61341d6134006133ef612f86565b948481013560601c91601490910190565b73ffffffffffffffffffffffffffffffffffffffff909116855290565b8281013560f81c91600190910190565b94166134388161332d565b602084019081526000925b82841061345257505050509190565b9091929561350b6134ed6134cf6134a56134c28b60206134bb6134b36134ae8c61348a60019c8e60019092919283013560f81c920190565b98909161349d888f8516151592516108b4565b519015159052565b60011c607f1690565b6133bd565b928b516108b4565b51016133cc565b8581013591602090910190565b9060406134dd8c89516108b4565b5101528481013591602090910190565b9060606134fb8b88516108b4565b5101528381013591602090910190565b9790608061351a8387516108b4565b5101520192919061344356fea2646970667358221220f8f235e0fd626f6b9c1b58a4c9cb03206a71f69c588f120d6f7dff677aa2561364736f6c634300081c0033","linkReferences":{}},"methodIdentifiers":{"MAX_SPACE()":"8c946df4","VALUE_TRACKING_ADDRESS()":"f916f3b2","getLimitUsage(address,bytes32)":"23b3713e","incrementUsageLimit((bytes32,uint256)[])":"42de1418","recoverSapientSignature((uint8,bool,(address,uint256,bytes,uint256,bool,bool,uint256)[],uint256,uint256,bytes,bytes32,bytes32,address[]),bytes)":"13792a4a","validatePermission((address,(bool,uint8,bytes32,uint256,bytes32)[]),(address,uint256,bytes,uint256,bool,bool,uint256),address,address,(bytes32,uint256)[])":"313dade7"}}}}}