{"src/modules/Hooks.sol":{"Hooks":{"abi":[{"type":"fallback","stateMutability":"payable"},{"type":"receive","stateMutability":"payable"},{"type":"function","name":"addHook","inputs":[{"name":"selector","type":"bytes4","internalType":"bytes4"},{"name":"implementation","type":"address","internalType":"address"}],"outputs":[],"stateMutability":"payable"},{"type":"function","name":"onERC1155BatchReceived","inputs":[{"name":"","type":"address","internalType":"address"},{"name":"","type":"address","internalType":"address"},{"name":"","type":"uint256[]","internalType":"uint256[]"},{"name":"","type":"uint256[]","internalType":"uint256[]"},{"name":"","type":"bytes","internalType":"bytes"}],"outputs":[{"name":"","type":"bytes4","internalType":"bytes4"}],"stateMutability":"pure"},{"type":"function","name":"onERC1155Received","inputs":[{"name":"","type":"address","internalType":"address"},{"name":"","type":"address","internalType":"address"},{"name":"","type":"uint256","internalType":"uint256"},{"name":"","type":"uint256","internalType":"uint256"},{"name":"","type":"bytes","internalType":"bytes"}],"outputs":[{"name":"","type":"bytes4","internalType":"bytes4"}],"stateMutability":"pure"},{"type":"function","name":"onERC721Received","inputs":[{"name":"","type":"address","internalType":"address"},{"name":"","type":"address","internalType":"address"},{"name":"","type":"uint256","internalType":"uint256"},{"name":"","type":"bytes","internalType":"bytes"}],"outputs":[{"name":"","type":"bytes4","internalType":"bytes4"}],"stateMutability":"pure"},{"type":"function","name":"readHook","inputs":[{"name":"selector","type":"bytes4","internalType":"bytes4"}],"outputs":[{"name":"","type":"address","internalType":"address"}],"stateMutability":"view"},{"type":"function","name":"removeHook","inputs":[{"name":"selector","type":"bytes4","internalType":"bytes4"}],"outputs":[],"stateMutability":"payable"},{"type":"function","name":"tokenReceived","inputs":[{"name":"","type":"address","internalType":"address"},{"name":"","type":"uint256","internalType":"uint256"},{"name":"","type":"bytes","internalType":"bytes"}],"outputs":[{"name":"","type":"bytes4","internalType":"bytes4"}],"stateMutability":"pure"},{"type":"function","name":"tokensReceived","inputs":[{"name":"operator","type":"address","internalType":"address"},{"name":"from","type":"address","internalType":"address"},{"name":"to","type":"address","internalType":"address"},{"name":"amount","type":"uint256","internalType":"uint256"},{"name":"data","type":"bytes","internalType":"bytes"},{"name":"operatorData","type":"bytes","internalType":"bytes"}],"outputs":[],"stateMutability":"nonpayable"},{"type":"event","name":"DefinedHook","inputs":[{"name":"selector","type":"bytes4","indexed":false,"internalType":"bytes4"},{"name":"implementation","type":"address","indexed":false,"internalType":"address"}],"anonymous":false},{"type":"error","name":"HookAlreadyExists","inputs":[{"name":"selector","type":"bytes4","internalType":"bytes4"}]},{"type":"error","name":"HookDoesNotExist","inputs":[{"name":"selector","type":"bytes4","internalType":"bytes4"}]},{"type":"error","name":"OnlySelf","inputs":[{"name":"_sender","type":"address","internalType":"address"}]}],"userdoc":{},"devdoc":{},"evm":{"bytecode":{"object":"60808060405234601557610a4d908161001b8239f35b600080fdfe6080604052600436101561001e575b361561001c5761001c6108ce565b005b60003560e01c806223de291461009d578063150b7a02146100985780631a9b2337146100935780634fcf3eca1461008e5780638943ec0214610089578063b93ea7ad14610084578063bc197c811461007f5763f23a6e610361000e5761076e565b61069c565b610506565b610482565b6102e0565b610281565b6101c5565b346101295760c07ffffffffffffffffffffffffffffffffffffffffffffffffffffffffffffffffc360112610129576100d461012e565b506100dd610151565b506100e6610174565b5060843567ffffffffffffffff811161012957610107903690600401610197565b505060a43567ffffffffffffffff81116101295761001c903690600401610197565b600080fd5b6004359073ffffffffffffffffffffffffffffffffffffffff8216820361012957565b6024359073ffffffffffffffffffffffffffffffffffffffff8216820361012957565b6044359073ffffffffffffffffffffffffffffffffffffffff8216820361012957565b9181601f840112156101295782359167ffffffffffffffff8311610129576020838186019501011161012957565b346101295760807ffffffffffffffffffffffffffffffffffffffffffffffffffffffffffffffffc360112610129576101fc61012e565b50610205610151565b5060643567ffffffffffffffff811161012957610226903690600401610197565b505060206040517f150b7a02000000000000000000000000000000000000000000000000000000008152f35b600435907fffffffff000000000000000000000000000000000000000000000000000000008216820361012957565b346101295760207ffffffffffffffffffffffffffffffffffffffffffffffffffffffffffffffffc3601126101295760206102c26102bd610252565b610997565b73ffffffffffffffffffffffffffffffffffffffff60405191168152f35b60207ffffffffffffffffffffffffffffffffffffffffffffffffffffffffffffffffc36011261012957610312610252565b3033036104545773ffffffffffffffffffffffffffffffffffffffff61033782610997565b16156104045760407fffffffff000000000000000000000000000000000000000000000000000000007f0d7fc113eaf016db4681a1ba86d083ce3e0961f321062a75ac2b0aeb33deeed192166000825160208101906103f1816103c586859190602060408401937fbe27a319efc8734e89e26ba4bc95f5c788584163b959f03fa04e2d7ab4b9a12081520152565b037fffffffffffffffffffffffffffffffffffffffffffffffffffffffffffffffe0810183528261082a565b51902055815190815260006020820152a1005b7fffffffff00000000000000000000000000000000000000000000000000000000907f1c3812cc000000000000000000000000000000000000000000000000000000006000521660045260246000fd5b7fa19dbf00000000000000000000000000000000000000000000000000000000006000523360045260246000fd5b346101295760607ffffffffffffffffffffffffffffffffffffffffffffffffffffffffffffffffc360112610129576104b961012e565b5060443567ffffffffffffffff8111610129576104da903690600401610197565b505060206040517f8943ec02000000000000000000000000000000000000000000000000000000008152f35b60407ffffffffffffffffffffffffffffffffffffffffffffffffffffffffffffffffc36011261012957610538610252565b610540610151565b903033036104545773ffffffffffffffffffffffffffffffffffffffff61056682610997565b1661061b577f0d7fc113eaf016db4681a1ba86d083ce3e0961f321062a75ac2b0aeb33deeed19173ffffffffffffffffffffffffffffffffffffffff7fffffffff00000000000000000000000000000000000000000000000000000000604093169116808351602081019061060a816103c587859190602060408401937fbe27a319efc8734e89e26ba4bc95f5c788584163b959f03fa04e2d7ab4b9a12081520152565b5190205582519182526020820152a1005b7fffffffff00000000000000000000000000000000000000000000000000000000907f5b4d6d6a000000000000000000000000000000000000000000000000000000006000521660045260246000fd5b9181601f840112156101295782359167ffffffffffffffff8311610129576020808501948460051b01011161012957565b346101295760a07ffffffffffffffffffffffffffffffffffffffffffffffffffffffffffffffffc360112610129576106d361012e565b506106dc610151565b5060443567ffffffffffffffff8111610129576106fd90369060040161066b565b505060643567ffffffffffffffff81116101295761071f90369060040161066b565b505060843567ffffffffffffffff811161012957610741903690600401610197565b50506040517fbc197c81000000000000000000000000000000000000000000000000000000008152602090f35b346101295760a07ffffffffffffffffffffffffffffffffffffffffffffffffffffffffffffffffc360112610129576107a561012e565b506107ae610151565b5060843567ffffffffffffffff8111610129576107cf903690600401610197565b505060206040517ff23a6e61000000000000000000000000000000000000000000000000000000008152f35b7f4e487b7100000000000000000000000000000000000000000000000000000000600052604160045260246000fd5b90601f7fffffffffffffffffffffffffffffffffffffffffffffffffffffffffffffffe0910116810190811067ffffffffffffffff82111761086b57604052565b6107fb565b3d156108c9573d9067ffffffffffffffff821161086b57604051916108bd60207fffffffffffffffffffffffffffffffffffffffffffffffffffffffffffffffe0601f840116018461082a565b82523d6000602084013e565b606090565b6004361080156108db5750565b610911906000357fffffffff00000000000000000000000000000000000000000000000000000000811691610963575b50610997565b73ffffffffffffffffffffffffffffffffffffffff811661092f5750565b60008091604051368382378036810184815203915af461094d610870565b901561095b57602081519101f35b602081519101fd5b7fffffffff000000000000000000000000000000000000000000000000000000008092503660040360031b1b16163861090b565b73ffffffffffffffffffffffffffffffffffffffff90604051610a0f816103c57fffffffff00000000000000000000000000000000000000000000000000000000602083019516859190602060408401937fbe27a319efc8734e89e26ba4bc95f5c788584163b959f03fa04e2d7ab4b9a12081520152565b51902054169056fea26469706673582212208de1a11ac777efd7f3934419136c2b779ff6b122c61739d81b855e1b035844fd64736f6c634300081c0033","linkReferences":{}},"methodIdentifiers":{"addHook(bytes4,address)":"b93ea7ad","onERC1155BatchReceived(address,address,uint256[],uint256[],bytes)":"bc197c81","onERC1155Received(address,address,uint256,uint256,bytes)":"f23a6e61","onERC721Received(address,address,uint256,bytes)":"150b7a02","readHook(bytes4)":"1a9b2337","removeHook(bytes4)":"4fcf3eca","tokenReceived(address,uint256,bytes)":"8943ec02","tokensReceived(address,address,address,uint256,bytes,bytes)":"0023de29"}}}}}