{"src/modules/auth/Stage2Auth.sol":{"Stage2Auth":{"abi":[{"type":"function","name":"getImplementation","inputs":[],"outputs":[{"name":"","type":"address","internalType":"address"}],"stateMutability":"view"},{"type":"function","name":"getStaticSignature","inputs":[{"name":"_hash","type":"bytes32","internalType":"bytes32"}],"outputs":[{"name":"","type":"address","internalType":"address"},{"name":"","type":"uint256","internalType":"uint256"}],"stateMutability":"view"},{"type":"function","name":"imageHash","inputs":[],"outputs":[{"name":"","type":"bytes32","internalType":"bytes32"}],"stateMutability":"view"},{"type":"function","name":"isValidSignature","inputs":[{"name":"_hash","type":"bytes32","internalType":"bytes32"},{"name":"_signature","type":"bytes","internalType":"bytes"}],"outputs":[{"name":"","type":"bytes4","internalType":"bytes4"}],"stateMutability":"view"},{"type":"function","name":"recoverPartialSignature","inputs":[{"name":"_payload","type":"tuple","internalType":"struct Payload.Decoded","components":[{"name":"kind","type":"uint8","internalType":"uint8"},{"name":"noChainId","type":"bool","internalType":"bool"},{"name":"calls","type":"tuple[]","internalType":"struct Payload.Call[]","components":[{"name":"to","type":"address","internalType":"address"},{"name":"value","type":"uint256","internalType":"uint256"},{"name":"data","type":"bytes","internalType":"bytes"},{"name":"gasLimit","type":"uint256","internalType":"uint256"},{"name":"delegateCall","type":"bool","internalType":"bool"},{"name":"onlyFallback","type":"bool","internalType":"bool"},{"name":"behaviorOnError","type":"uint256","internalType":"uint256"}]},{"name":"space","type":"uint256","internalType":"uint256"},{"name":"nonce","type":"uint256","internalType":"uint256"},{"name":"message","type":"bytes","internalType":"bytes"},{"name":"imageHash","type":"bytes32","internalType":"bytes32"},{"name":"digest","type":"bytes32","internalType":"bytes32"},{"name":"parentWallets","type":"address[]","internalType":"address[]"}]},{"name":"_signature","type":"bytes","internalType":"bytes"}],"outputs":[{"name":"threshold","type":"uint256","internalType":"uint256"},{"name":"weight","type":"uint256","internalType":"uint256"},{"name":"isValidImage","type":"bool","internalType":"bool"},{"name":"imageHash","type":"bytes32","internalType":"bytes32"},{"name":"checkpoint","type":"uint256","internalType":"uint256"},{"name":"opHash","type":"bytes32","internalType":"bytes32"}],"stateMutability":"view"},{"type":"function","name":"recoverSapientSignature","inputs":[{"name":"_payload","type":"tuple","internalType":"struct Payload.Decoded","components":[{"name":"kind","type":"uint8","internalType":"uint8"},{"name":"noChainId","type":"bool","internalType":"bool"},{"name":"calls","type":"tuple[]","internalType":"struct Payload.Call[]","components":[{"name":"to","type":"address","internalType":"address"},{"name":"value","type":"uint256","internalType":"uint256"},{"name":"data","type":"bytes","internalType":"bytes"},{"name":"gasLimit","type":"uint256","internalType":"uint256"},{"name":"delegateCall","type":"bool","internalType":"bool"},{"name":"onlyFallback","type":"bool","internalType":"bool"},{"name":"behaviorOnError","type":"uint256","internalType":"uint256"}]},{"name":"space","type":"uint256","internalType":"uint256"},{"name":"nonce","type":"uint256","internalType":"uint256"},{"name":"message","type":"bytes","internalType":"bytes"},{"name":"imageHash","type":"bytes32","internalType":"bytes32"},{"name":"digest","type":"bytes32","internalType":"bytes32"},{"name":"parentWallets","type":"address[]","internalType":"address[]"}]},{"name":"_signature","type":"bytes","internalType":"bytes"}],"outputs":[{"name":"","type":"bytes32","internalType":"bytes32"}],"stateMutability":"view"},{"type":"function","name":"setStaticSignature","inputs":[{"name":"_hash","type":"bytes32","internalType":"bytes32"},{"name":"_address","type":"address","internalType":"address"},{"name":"_timestamp","type":"uint96","internalType":"uint96"}],"outputs":[],"stateMutability":"nonpayable"},{"type":"function","name":"updateImageHash","inputs":[{"name":"_imageHash","type":"bytes32","internalType":"bytes32"}],"outputs":[],"stateMutability":"nonpayable"},{"type":"function","name":"updateImplementation","inputs":[{"name":"_implementation","type":"address","internalType":"address"}],"outputs":[],"stateMutability":"payable"},{"type":"event","name":"ImageHashUpdated","inputs":[{"name":"newImageHash","type":"bytes32","indexed":false,"internalType":"bytes32"}],"anonymous":false},{"type":"event","name":"ImplementationUpdated","inputs":[{"name":"newImplementation","type":"address","indexed":false,"internalType":"address"}],"anonymous":false},{"type":"event","name":"StaticSignatureSet","inputs":[{"name":"_hash","type":"bytes32","indexed":false,"internalType":"bytes32"},{"name":"_address","type":"address","indexed":false,"internalType":"address"},{"name":"_timestamp","type":"uint96","indexed":false,"internalType":"uint96"}],"anonymous":false},{"type":"error","name":"ImageHashIsZero","inputs":[]},{"type":"error","name":"InvalidERC1271Signature","inputs":[{"name":"_opHash","type":"bytes32","internalType":"bytes32"},{"name":"_signer","type":"address","internalType":"address"},{"name":"_signature","type":"bytes","internalType":"bytes"}]},{"type":"error","name":"InvalidKind","inputs":[{"name":"kind","type":"uint8","internalType":"uint8"}]},{"type":"error","name":"InvalidSapientSignature","inputs":[{"name":"_payload","type":"tuple","internalType":"struct Payload.Decoded","components":[{"name":"kind","type":"uint8","internalType":"uint8"},{"name":"noChainId","type":"bool","internalType":"bool"},{"name":"calls","type":"tuple[]","internalType":"struct Payload.Call[]","components":[{"name":"to","type":"address","internalType":"address"},{"name":"value","type":"uint256","internalType":"uint256"},{"name":"data","type":"bytes","internalType":"bytes"},{"name":"gasLimit","type":"uint256","internalType":"uint256"},{"name":"delegateCall","type":"bool","internalType":"bool"},{"name":"onlyFallback","type":"bool","internalType":"bool"},{"name":"behaviorOnError","type":"uint256","internalType":"uint256"}]},{"name":"space","type":"uint256","internalType":"uint256"},{"name":"nonce","type":"uint256","internalType":"uint256"},{"name":"message","type":"bytes","internalType":"bytes"},{"name":"imageHash","type":"bytes32","internalType":"bytes32"},{"name":"digest","type":"bytes32","internalType":"bytes32"},{"name":"parentWallets","type":"address[]","internalType":"address[]"}]},{"name":"_signature","type":"bytes","internalType":"bytes"}]},{"type":"error","name":"InvalidSignatureFlag","inputs":[{"name":"_flag","type":"uint256","internalType":"uint256"}]},{"type":"error","name":"InvalidSignatureWeight","inputs":[{"name":"_threshold","type":"uint256","internalType":"uint256"},{"name":"_weight","type":"uint256","internalType":"uint256"}]},{"type":"error","name":"InvalidStaticSignatureExpired","inputs":[{"name":"_opHash","type":"bytes32","internalType":"bytes32"},{"name":"_expires","type":"uint256","internalType":"uint256"}]},{"type":"error","name":"InvalidStaticSignatureWrongCaller","inputs":[{"name":"_opHash","type":"bytes32","internalType":"bytes32"},{"name":"_caller","type":"address","internalType":"address"},{"name":"_expectedCaller","type":"address","internalType":"address"}]},{"type":"error","name":"LowWeightChainedSignature","inputs":[{"name":"_signature","type":"bytes","internalType":"bytes"},{"name":"_threshold","type":"uint256","internalType":"uint256"},{"name":"_weight","type":"uint256","internalType":"uint256"}]},{"type":"error","name":"OnlySelf","inputs":[{"name":"_sender","type":"address","internalType":"address"}]},{"type":"error","name":"UnusedSnapshot","inputs":[{"name":"_snapshot","type":"tuple","internalType":"struct Snapshot","components":[{"name":"imageHash","type":"bytes32","internalType":"bytes32"},{"name":"checkpoint","type":"uint256","internalType":"uint256"}]}]},{"type":"error","name":"WrongChainedCheckpointOrder","inputs":[{"name":"_nextCheckpoint","type":"uint256","internalType":"uint256"},{"name":"_checkpoint","type":"uint256","internalType":"uint256"}]}],"userdoc":{},"devdoc":{},"evm":{"bytecode":{"object":"60808060405234601557612719908161001b8239f35b600080fdfe6080604052600436101561001257600080fd5b60003560e01c8063025b22bc146100a757806313792a4a146100a25780631626ba7e1461009d578063295614261461009857806351605d801461009357806392dcb3fc1461008e578063aaf10f4214610089578063ad55366b146100845763f727ef1c1461007f57600080fd5b6109c3565b610977565b610926565b6108c8565b61086d565b6107b4565b61072c565b61062f565b60207ffffffffffffffffffffffffffffffffffffffffffffffffffffffffffffffffc360112610153576100d9610158565b303303610125578073ffffffffffffffffffffffffffffffffffffffff913055166080527f310ba5f1d2ed074b51e2eccd052a47ae9ab7c6b800d1fca3db3999d6a592ca0360206080a1005b7fa19dbf00000000000000000000000000000000000000000000000000000000006000523360045260246000fd5b600080fd5b6004359073ffffffffffffffffffffffffffffffffffffffff8216820361015357565b6024359073ffffffffffffffffffffffffffffffffffffffff8216820361015357565b359073ffffffffffffffffffffffffffffffffffffffff8216820361015357565b7f4e487b7100000000000000000000000000000000000000000000000000000000600052604160045260246000fd5b6040810190811067ffffffffffffffff82111761020a57604052565b6101bf565b90601f7fffffffffffffffffffffffffffffffffffffffffffffffffffffffffffffffe0910116810190811067ffffffffffffffff82111761020a57604052565b6040519061025f60e08361020f565b565b6040519061025f6101208361020f565b359060ff8216820361015357565b3590811515820361015357565b67ffffffffffffffff811161020a5760051b60200190565b92919267ffffffffffffffff821161020a57604051916102ec60207fffffffffffffffffffffffffffffffffffffffffffffffffffffffffffffffe0601f840116018461020f565b829481845281830111610153578281602093846000960137010152565b9080601f8301121561015357816020610324933591016102a4565b90565b81601f820112156101535780359061033e8261028c565b9261034c604051948561020f565b82845260208085019360051b830101918183116101535760208101935b83851061037857505050505090565b843567ffffffffffffffff811161015357820160e07fffffffffffffffffffffffffffffffffffffffffffffffffffffffffffffffe08286030112610153576103bf610250565b916103cc6020830161019e565b83526040820135602084015260608201359267ffffffffffffffff84116101535760e083610401886020809881980101610309565b60408401526080810135606084015261041c60a0820161027f565b608084015261042d60c0820161027f565b60a0840152013560c0820152815201940193610369565b9080601f8301121561015357813561045b8161028c565b92610469604051948561020f565b81845260208085019260051b82010192831161015357602001905b8282106104915750505090565b6020809161049e8461019e565b815201910190610484565b9181601f840112156101535782359167ffffffffffffffff8311610153576020838186019501011161015357565b9060407ffffffffffffffffffffffffffffffffffffffffffffffffffffffffffffffffc8301126101535760043567ffffffffffffffff8111610153576101207ffffffffffffffffffffffffffffffffffffffffffffffffffffffffffffffffc828503011261015357610549610261565b9061055681600401610271565b82526105646024820161027f565b6020830152604481013567ffffffffffffffff81116101535784600461058c92840101610327565b6040830152606481013560608301526084810135608083015260a481013567ffffffffffffffff8111610153578460046105c892840101610309565b60a083015260c481013560c083015260e481013560e083015261010481013567ffffffffffffffff81116101535760048591610605930101610444565b610100820152916024359067ffffffffffffffff82116101535761062b916004016104a9565b9091565b346101535761063d366104d7565b9091610100810192610658610653855151610b33565b610b53565b9160005b855180518210156106bf57906106b961069461067a83600195610bd1565b5173ffffffffffffffffffffffffffffffffffffffff1690565b61069e8388610bd1565b9073ffffffffffffffffffffffffffffffffffffffff169052565b0161065c565b50508383866106d43361069e83515185610bd1565b526106e0818484610ee4565b50156106f25760405160018152602090f35b610728906040519384937ff58cc8b500000000000000000000000000000000000000000000000000000000855260048501610da8565b0390fd5b346101535760407ffffffffffffffffffffffffffffffffffffffffffffffffffffffffffffffffc3601126101535760043560243567ffffffffffffffff81116101535760209161078461078a9236906004016104a9565b91610e8f565b7fffffffff0000000000000000000000000000000000000000000000000000000060405191168152f35b346101535760207ffffffffffffffffffffffffffffffffffffffffffffffffffffffffffffffffc36011261015357600435303303610125578015610843576020817f307ed6bd941ee9fc80f369c94af5fa11e25bab5102a6140191756c5474a30bfa927fea7157fa25e3aa17d0ae2d5280fa4e24d421c61842aa85e45194e1145aa72bf855604051908152a1005b7f4294d1270000000000000000000000000000000000000000000000000000000060005260046000fd5b346101535760007ffffffffffffffffffffffffffffffffffffffffffffffffffffffffffffffffc3601126101535760207fea7157fa25e3aa17d0ae2d5280fa4e24d421c61842aa85e45194e1145aa72bf854604051908152f35b346101535760207ffffffffffffffffffffffffffffffffffffffffffffffffffffffffffffffffc3601126101535760406109046004356110c9565b73ffffffffffffffffffffffffffffffffffffffff8351921682526020820152f35b346101535760007ffffffffffffffffffffffffffffffffffffffffffffffffffffffffffffffffc360112610153576020305473ffffffffffffffffffffffffffffffffffffffff60405191168152f35b346101535760c061099360008061098d366104d7565b916111e2565b9261099f8392936114f5565b906040519586526020860152151560408501526060840152608083015260a0820152f35b346101535760607ffffffffffffffffffffffffffffffffffffffffffffffffffffffffffffffffc360112610153576004356109fd61017b565b604435916bffffffffffffffffffffffff831680930361015357303303610125577febf265acfac1c01de588ed7ef49743b9c3ce8d6d1edeaf510a1f5453228515b19273ffffffffffffffffffffffffffffffffffffffff60609360405160208101610ac482610a9888849190602060408401937fc852adf5e97c2fc3b38f405671e91b7af1697ef0287577f227ef10494c2a8e8681520152565b037fffffffffffffffffffffffffffffffffffffffffffffffffffffffffffffffe0810184528361020f565b847fffffffffffffffffffffffffffffffffffffffff00000000000000000000000084891b161791519020556040519384521660208301526040820152a1005b7f4e487b7100000000000000000000000000000000000000000000000000000000600052601160045260246000fd5b9060018201809211610b4157565b610b04565b91908201809211610b4157565b90610b5d8261028c565b610b6a604051918261020f565b8281527fffffffffffffffffffffffffffffffffffffffffffffffffffffffffffffffe0610b98829461028c565b0190602036910137565b7f4e487b7100000000000000000000000000000000000000000000000000000000600052603260045260246000fd5b8051821015610be55760209160051b010190565b610ba2565b919082519283825260005b848110610c345750507fffffffffffffffffffffffffffffffffffffffffffffffffffffffffffffffe0601f8460006020809697860101520116010190565b80602080928401015182828601015201610bf5565b9080602083519182815201916020808360051b8301019401926000915b838310610c7557505050505090565b9091929394602080827fffffffffffffffffffffffffffffffffffffffffffffffffffffffffffffffe0856001950301865288519073ffffffffffffffffffffffffffffffffffffffff8251168152828201518382015260c080610ce8604085015160e0604086015260e0850190610bea565b936060810151606085015260808101511515608085015260a0810151151560a0850152015191015297019301930191939290610c66565b906020808351928381520192019060005b818110610d3d5750505090565b825173ffffffffffffffffffffffffffffffffffffffff16845260209384019390920191600101610d30565b601f82602094937fffffffffffffffffffffffffffffffffffffffffffffffffffffffffffffffe0938186528686013760008582860101520116010190565b91610e81610324949260408552610dc560408601825160ff169052565b602081015115156060860152610100610e3a610df2604084015161012060808a0152610160890190610c49565b606084015160a0890152608084015160c089015260a08401517fffffffffffffffffffffffffffffffffffffffffffffffffffffffffffffffc08983030160e08a0152610bea565b9160c08101518288015260e081015161012088015201517fffffffffffffffffffffffffffffffffffffffffffffffffffffffffffffffc086830301610140870152610d1f565b926020818503910152610d69565b90610eac9291610e9d61106e565b906003825260e0820152610ee4565b5015610ed6577f1626ba7e0000000000000000000000000000000000000000000000000000000090565b600090565b9015610be55790565b91907f800000000000000000000000000000000000000000000000000000000000000080610f3b610f158585610edb565b357fff000000000000000000000000000000000000000000000000000000000000001690565b1614610f9a576000918291610f4f946111e2565b905091909192808210610f6a575050610f67906114f5565b91565b7ffd41fcba0000000000000000000000000000000000000000000000000000000060005260045260245260446000fd5b5050610fa59061152a565b90610faf826110c9565b4281111561103c575073ffffffffffffffffffffffffffffffffffffffff81168015159081611031575b50610fe5575060019190565b7f8945c3130000000000000000000000000000000000000000000000000000000060005260048390523360245273ffffffffffffffffffffffffffffffffffffffff1660445260646000fd5b905033141538610fd9565b7ff95b6ab700000000000000000000000000000000000000000000000000000000600052600484905260245260446000fd5b60405190610120820182811067ffffffffffffffff82111761020a576040526060610100836000815260006020820152826040820152600083820152600060808201528260a0820152600060c0820152600060e08201520152565b604051611135816111096020820194859190602060408401937fc852adf5e97c2fc3b38f405671e91b7af1697ef0287577f227ef10494c2a8e8681520152565b037fffffffffffffffffffffffffffffffffffffffffffffffffffffffffffffffe0810183528261020f565b51902054906bffffffffffffffffffffffff8260601c921690565b6040519061115d826101ee565b60006020838281520152565b90939293848311610153578411610153578101920390565b908160409103126101535760206040519161119b836101ee565b805183520151602082015290565b60409073ffffffffffffffffffffffffffffffffffffffff61032494931681528160208201520190610bea565b6040513d6000823e3d90fd5b909491939291853560f81c600190938190876111fc611150565b93604080891614806114d7575b6113d5575b5050506001808616146113af5760028581161460208501526007600286901c1688820135600382901b6101008190039190911c600190911b7fffffffffffffffffffffffffffffffffffffffffffffffffffffffffffffffff0116910190809691819660201661127e9060051c90565b61128790610b33565b8a820135600382901b6101008190039190911c600190911b7fffffffffffffffffffffffffffffffffffffffffffffffffffffffffffffffff01169101959098899a816112d38461152a565b9889936112df93611169565b916112e993611827565b90986112fd91600052602052604060002090565b9061131091600052602052604060002090565b9073ffffffffffffffffffffffffffffffffffffffff1661133991600052602052604060002090565b948151908682151592836113a4575b505081611395575b506113585750565b6040517fccbb534f000000000000000000000000000000000000000000000000000000008152815160048201526020909101516024820152604490fd5b90506020820151101538611350565b141591508638611348565b866113ca97929495506113c29398611169565b9390926115b6565b919394909293929190565b8a81013560601c985060140192509087908a908490156113f9575b5082915061120e565b60038101955073ffffffffffffffffffffffffffffffffffffffff945081013560e81c9260409261147c9290916114479161144091899061143a8983610b46565b92611169565b36916102a4565b83519586809481937fccce3bc800000000000000000000000000000000000000000000000000000000835230600484016111a9565b0392165afa80156114d25761149a926000916114a3575b5092610b46565b863889816113f0565b6114c5915060403d6040116114cb575b6114bd818361020f565b810190611181565b38611493565b503d6114b3565b6111d6565b5073ffffffffffffffffffffffffffffffffffffffff891615611209565b8015159081611502575090565b90507fea7157fa25e3aa17d0ae2d5280fa4e24d421c61842aa85e45194e1145aa72bf8541490565b61110961158c61154a6115446020850151151530906120a3565b9361219e565b60405192839160208301958690916042927f19010000000000000000000000000000000000000000000000000000000000008352600283015260228201520190565b51902090565b906115ac9060409396959496606084526060840191610d69565b9460208201520152565b91949290926000956000956000956000956000956115d261106e565b60028152937fffffffffffffffffffffffffffffffffffffffffffffffffffffffffffffffff9460005b8281106116295750505050505050805115158061161b575b6113585750565b506020810151841115611614565b600381019d50959b509399509197509290919061164d908b9085013560e81c610b46565b958a6000848903611791575089915b7fffffffffffffffffffffffffffffffffffffffffffffffffffffffffffffffff8c0361176157509060016116968961169d948789611169565b908b6111e2565b9c939c9b929b9a919a99909a9b9d8e9d9e8f905b1061171b5750928b885114611712575b808b10156116e057508a60c085015289929592959491949390936115fc565b7f37daf62b0000000000000000000000000000000000000000000000000000000060005260048b905260245260446000fd5b600088526116c1565b8d8f61072861172c85858c8e611169565b9390926040519485947fb006aba000000000000000000000000000000000000000000000000000000000865260048601611592565b9798999a9160016117778b61177e94888a611169565b90866111e2565b50929d919c909b929a9092918e8e6116b1565b9161165c565b9081602091031261015357517fffffffff00000000000000000000000000000000000000000000000000000000811681036101535790565b604090610324949281528160208201520191610d69565b73ffffffffffffffffffffffffffffffffffffffff610324959360609383521660208201528160408201520191610d69565b90816020910312610153575190565b9391909360009460009460005b818110611842575050505050565b8481013560f881901c9860019092019788979692909160fc1c98891561203c575060018914611ffc5760028914611e2f5760038914611e005760048914611d7f5760068914611cd95760058914611c8b5760078914611bc45760088914611b6e5760098914611a4557600a89146118e2577fb2505f7c00000000000000000000000000000000000000000000000000000000600052600489905260246000fd5b90919293949596975060038916978815611a34575b8381013560601c90601401909960021c60031660ff1684820135600382901b6101008190039190911c600190911b7fffffffffffffffffffffffffffffffffffffffffffffffffffffffffffffffff01169101908101908161195a918787611169565b6040517f898bd92100000000000000000000000000000000000000000000000000000000815293918491611992918a600485016117cf565b038373ffffffffffffffffffffffffffffffffffffffff8d1691815a93602094fa9182156114d2576119d593600093611a01575b5060ff909a168091019a61250a565b9080156119fb57906119ef91600052602052604060002090565b955b9392919093611834565b506119ef565b60ff919350611a269060203d8111611a2d575b611a1e818361020f565b810190611818565b92906119c6565b503d611a14565b8084013560f81c98506001016118f7565b90919293949596975060038916978815611b5d575b8381013560601c90601401909960021c60031660ff1684820135600382901b6101008190039190911c600190911b7fffffffffffffffffffffffffffffffffffffffffffffffffffffffffffffffff011691019081019081611abd918787611169565b6040517f13792a4a00000000000000000000000000000000000000000000000000000000815293918491611af5918b60048501610da8565b038373ffffffffffffffffffffffffffffffffffffffff8d1691815a93602094fa9182156114d257611b3793600093611a01575060ff909a168091019a61250a565b908015611b575790611b5191600052602052604060002090565b956119f1565b50611b51565b8084013560f81c9850600101611a5a565b985060208701975094959394929391929091820135611b8c866124b1565b8114611b9c575b611b37906124cb565b7fffffffffffffffffffffffffffffffffffffffffffffffffffffffffffffffff9850611b93565b975090919293949597600f16968715611c79575b60206000611bea611c579a9b86612379565b9c9092918a604051611c2d816111098a82019485603c917f19457468657265756d205369676e6564204d6573736167653a0a3332000000008252601c8201520190565b51902092604051948594859094939260ff6060936080840197845216602083015260408201520152565b838052039060015afa156114d257611b379060ff6000519a16809101996123bc565b600189019883013560f81c9750611bd8565b985060208701975094959394929391929091820135808514611cb1575b611b3790612472565b7fffffffffffffffffffffffffffffffffffffffffffffffffffffffffffffffff9850611ca8565b989091929394959662ffffff9850611d01611cfb600c8416603f9060021c1690565b60ff1690565b918215611d6b575b6003168015611d5a575b908190611d3e90611d36908781013560e81c906003019c168c01809c8989611169565b90898b611827565b911115611d51575b90611b379291612427565b99820199611d46565b50600281019084013560f01c611d13565b8482013560f81c9250600190910190611d09565b975097611dd5611de2929394959697600f611dea93169085929190928160031b7fffffffffffffffffffffffffffffffffffffffffffffffffffffffffffffffff6001821b019185013590610100031c16920190565b9290830180938686611169565b908688611827565b90611b5192980198600052602052604060002090565b985096509394929391929091908082013590602001968015611b575790611b5191600052602052604060002090565b90919293949596975060038916978815611feb575b8084013560601c99611ea39160140190611e639060021c600316611cfb565b9085929190928160031b7fffffffffffffffffffffffffffffffffffffffffffffffffffffffffffffffff6001821b019185013590610100031c16920190565b90810190611f0760208c611eb985858b8b611169565b919073ffffffffffffffffffffffffffffffffffffffff8c604051968795869485937f1626ba7e000000000000000000000000000000000000000000000000000000008552600485016117cf565b0392165afa9081156114d2577f1626ba7e00000000000000000000000000000000000000000000000000000000917fffffffff0000000000000000000000000000000000000000000000000000000091600091611fbd575b501603611f7957509060ff611b37929916809101996123bc565b610728611f8a8c9389938989611169565b906040519485947fb2fed7ae000000000000000000000000000000000000000000000000000000008652600486016117e6565b611fde915060203d8111611fe4575b611fd6818361020f565b810190611797565b38611f5f565b503d611fcc565b8381013560f81c9850600101611e44565b98600f9192939495969798501696871561202b575b6014810197611b379160ff9091169084013560601c6123bc565b8281013560f81c9750600101612011565b98509091929394959698600f1697881561208e575b5060206000612064611c579a9b86612379565b9c90916040519384938c859094939260ff6060936080840197845216602083015260408201520152565b60018101995083013560f81c97506020612051565b15612153576000905b73ffffffffffffffffffffffffffffffffffffffff6040519160208301937f8b73c3c69bb8fe3d512ecc4cf759cc79239f7b179b0ffacaa9a75d522b39400f85527f4aa45ca7ad825ceb1bf35643f0a58c295239df563b1b565c2485f96477c5631860408501527f2a80e1ef1d7842f27f2e6be0972bb708b9a135c38860dbe73c27c3486c34f4de606085015260808401521660a082015260a0815261158c60c08261020f565b46906120ac565b805160209091019060005b8181106121725750505090565b825173ffffffffffffffffffffffffffffffffffffffff16845260209384019390920191600101612165565b6101008101516040516121b98161110960208201809561215a565b519020906121c8815160ff1690565b60ff8116806122415750509061158c6121e460408401516125a8565b9261110960806060830151920151936040519485936020850197889094939260809260a08301967f11e1e4079a79a66e4ade50033cfe2678cdd5341d2dfe5ef9513edb1a0be147a284526020840152604083015260608201520152565b6001810361229f57505060a001518051602091820120604080517fe19a3b94fc3c7ece3f890d98a99bc422615537a08dea0603fa8425867d87d4669381019384529081019190915260608101929092529061158c8160808101611109565b600281036122f557505060c00151604080517f11fdeb7e8373a1aa96bfac8d0ea91526b2c5d15e5cee20e0543e780258f3e8e46020820190815291810192909252606082019290925261158c8160808101611109565b600303612349575060e00151604080517fe19a3b94fc3c7ece3f890d98a99bc422615537a08dea0603fa8425867d87d4666020820190815291810192909252606082019290925261158c8160808101611109565b7f048183200000000000000000000000000000000000000000000000000000000060005260ff1660045260246000fd5b8101916040602084359401359201601b7f7fffffffffffffffffffffffffffffffffffffffffffffffffffffffffffffff84169360ff1c0160ff8111610b415791565b90604051907fffffffffffffffffffffffffffffffffffffffff00000000000000000000000060208301937f53657175656e6365207369676e65723a0a000000000000000000000000000000855260601b16603183015260458201526045815261158c60658261020f565b916040519160208301937f53657175656e6365206e657374656420636f6e6669673a0a000000000000000085526038840152605883015260788201526078815261158c60988261020f565b60405160208101917f53657175656e636520737461746963206469676573743a0a0000000000000000835260388201526038815261158c60588261020f565b61110961158c61154a6115446000602086015115156120a3565b60405160208101917f53657175656e636520616e792061646472657373207375626469676573743a0a835260408201526040815261158c60608261020f565b91604051917fffffffffffffffffffffffffffffffffffffffff00000000000000000000000060208401947f53657175656e63652073617069656e7420636f6e6669673a0a00000000000000865260601b166039840152604d830152606d820152606d815261158c608d8261020f565b805160209091019060005b8181106125925750505090565b8251845260209384019390920191600101612585565b9081517fffffffffffffffffffffffffffffffffffffffffffffffffffffffffffffffe06125ee6125d88361028c565b926125e6604051948561020f565b80845261028c565b0136602083013760005b83518110156126ca578061260e60019286610bd1565b5173ffffffffffffffffffffffffffffffffffffffff81511690602081015190604081015160208151910120906060810151608082015115159060c060a08401511515930151936040519560208701977f0603985259a953da1f65a522f589c17bd1d0117ec1d3abb7c0788aef251ef437895260408801526060870152608086015260a085015260c084015260e083015261010082015261010081526126b66101208261020f565b5190206126c38285610bd1565b52016125f8565b5090915060405161158c8161110960208201809561257a56fea26469706673582212202cbb3b03c4e8ebd5bdd37b24b2f5962e405ab577fe3c167b8b02226a65c089c864736f6c634300081c0033","linkReferences":{}},"methodIdentifiers":{"getImplementation()":"aaf10f42","getStaticSignature(bytes32)":"92dcb3fc","imageHash()":"51605d80","isValidSignature(bytes32,bytes)":"1626ba7e","recoverPartialSignature((uint8,bool,(address,uint256,bytes,uint256,bool,bool,uint256)[],uint256,uint256,bytes,bytes32,bytes32,address[]),bytes)":"ad55366b","recoverSapientSignature((uint8,bool,(address,uint256,bytes,uint256,bool,bool,uint256)[],uint256,uint256,bytes,bytes32,bytes32,address[]),bytes)":"13792a4a","setStaticSignature(bytes32,address,uint96)":"f727ef1c","updateImageHash(bytes32)":"29561426","updateImplementation(address)":"025b22bc"}}}}}