{
	"src/modules/auth/Stage2Auth.sol": {
		"Stage2Auth": {
			"abi": [
				{
					"inputs": [],
					"name": "ImageHashIsZero",
					"type": "error"
				},
				{
					"inputs": [
						{
							"internalType": "bytes32",
							"name": "_opHash",
							"type": "bytes32"
						},
						{
							"internalType": "address",
							"name": "_signer",
							"type": "address"
						},
						{
							"internalType": "bytes",
							"name": "_signature",
							"type": "bytes"
						}
					],
					"name": "InvalidERC1271Signature",
					"type": "error"
				},
				{
					"inputs": [
						{
							"internalType": "uint8",
							"name": "kind",
							"type": "uint8"
						}
					],
					"name": "InvalidKind",
					"type": "error"
				},
				{
					"inputs": [
						{
							"components": [
								{
									"internalType": "uint8",
									"name": "kind",
									"type": "uint8"
								},
								{
									"internalType": "bool",
									"name": "noChainId",
									"type": "bool"
								},
								{
									"components": [
										{
											"internalType": "address",
											"name": "to",
											"type": "address"
										},
										{
											"internalType": "uint256",
											"name": "value",
											"type": "uint256"
										},
										{
											"internalType": "bytes",
											"name": "data",
											"type": "bytes"
										},
										{
											"internalType": "uint256",
											"name": "gasLimit",
											"type": "uint256"
										},
										{
											"internalType": "bool",
											"name": "delegateCall",
											"type": "bool"
										},
										{
											"internalType": "bool",
											"name": "onlyFallback",
											"type": "bool"
										},
										{
											"internalType": "uint256",
											"name": "behaviorOnError",
											"type": "uint256"
										}
									],
									"internalType": "struct Payload.Call[]",
									"name": "calls",
									"type": "tuple[]"
								},
								{
									"internalType": "uint256",
									"name": "space",
									"type": "uint256"
								},
								{
									"internalType": "uint256",
									"name": "nonce",
									"type": "uint256"
								},
								{
									"internalType": "bytes",
									"name": "message",
									"type": "bytes"
								},
								{
									"internalType": "bytes32",
									"name": "imageHash",
									"type": "bytes32"
								},
								{
									"internalType": "bytes32",
									"name": "digest",
									"type": "bytes32"
								},
								{
									"internalType": "address[]",
									"name": "parentWallets",
									"type": "address[]"
								}
							],
							"internalType": "struct Payload.Decoded",
							"name": "_payload",
							"type": "tuple"
						},
						{
							"internalType": "bytes",
							"name": "_signature",
							"type": "bytes"
						}
					],
					"name": "InvalidSapientSignature",
					"type": "error"
				},
				{
					"inputs": [
						{
							"internalType": "uint256",
							"name": "_flag",
							"type": "uint256"
						}
					],
					"name": "InvalidSignatureFlag",
					"type": "error"
				},
				{
					"inputs": [
						{
							"internalType": "uint256",
							"name": "_threshold",
							"type": "uint256"
						},
						{
							"internalType": "uint256",
							"name": "_weight",
							"type": "uint256"
						}
					],
					"name": "InvalidSignatureWeight",
					"type": "error"
				},
				{
					"inputs": [
						{
							"internalType": "bytes32",
							"name": "_opHash",
							"type": "bytes32"
						},
						{
							"internalType": "uint256",
							"name": "_expires",
							"type": "uint256"
						}
					],
					"name": "InvalidStaticSignatureExpired",
					"type": "error"
				},
				{
					"inputs": [
						{
							"internalType": "bytes32",
							"name": "_opHash",
							"type": "bytes32"
						},
						{
							"internalType": "address",
							"name": "_caller",
							"type": "address"
						},
						{
							"internalType": "address",
							"name": "_expectedCaller",
							"type": "address"
						}
					],
					"name": "InvalidStaticSignatureWrongCaller",
					"type": "error"
				},
				{
					"inputs": [
						{
							"internalType": "bytes",
							"name": "_signature",
							"type": "bytes"
						},
						{
							"internalType": "uint256",
							"name": "_threshold",
							"type": "uint256"
						},
						{
							"internalType": "uint256",
							"name": "_weight",
							"type": "uint256"
						}
					],
					"name": "LowWeightChainedSignature",
					"type": "error"
				},
				{
					"inputs": [
						{
							"internalType": "address",
							"name": "_sender",
							"type": "address"
						}
					],
					"name": "OnlySelf",
					"type": "error"
				},
				{
					"inputs": [
						{
							"components": [
								{
									"internalType": "bytes32",
									"name": "imageHash",
									"type": "bytes32"
								},
								{
									"internalType": "uint256",
									"name": "checkpoint",
									"type": "uint256"
								}
							],
							"internalType": "struct Snapshot",
							"name": "_snapshot",
							"type": "tuple"
						}
					],
					"name": "UnusedSnapshot",
					"type": "error"
				},
				{
					"inputs": [
						{
							"internalType": "uint256",
							"name": "_nextCheckpoint",
							"type": "uint256"
						},
						{
							"internalType": "uint256",
							"name": "_checkpoint",
							"type": "uint256"
						}
					],
					"name": "WrongChainedCheckpointOrder",
					"type": "error"
				},
				{
					"anonymous": false,
					"inputs": [
						{
							"indexed": false,
							"internalType": "bytes32",
							"name": "newImageHash",
							"type": "bytes32"
						}
					],
					"name": "ImageHashUpdated",
					"type": "event"
				},
				{
					"anonymous": false,
					"inputs": [
						{
							"indexed": false,
							"internalType": "address",
							"name": "newImplementation",
							"type": "address"
						}
					],
					"name": "ImplementationUpdated",
					"type": "event"
				},
				{
					"anonymous": false,
					"inputs": [
						{
							"indexed": false,
							"internalType": "bytes32",
							"name": "_hash",
							"type": "bytes32"
						},
						{
							"indexed": false,
							"internalType": "address",
							"name": "_address",
							"type": "address"
						},
						{
							"indexed": false,
							"internalType": "uint96",
							"name": "_timestamp",
							"type": "uint96"
						}
					],
					"name": "StaticSignatureSet",
					"type": "event"
				},
				{
					"inputs": [],
					"name": "getImplementation",
					"outputs": [
						{
							"internalType": "address",
							"name": "",
							"type": "address"
						}
					],
					"stateMutability": "view",
					"type": "function"
				},
				{
					"inputs": [
						{
							"internalType": "bytes32",
							"name": "_hash",
							"type": "bytes32"
						}
					],
					"name": "getStaticSignature",
					"outputs": [
						{
							"internalType": "address",
							"name": "",
							"type": "address"
						},
						{
							"internalType": "uint256",
							"name": "",
							"type": "uint256"
						}
					],
					"stateMutability": "view",
					"type": "function"
				},
				{
					"inputs": [],
					"name": "imageHash",
					"outputs": [
						{
							"internalType": "bytes32",
							"name": "",
							"type": "bytes32"
						}
					],
					"stateMutability": "view",
					"type": "function"
				},
				{
					"inputs": [
						{
							"internalType": "bytes32",
							"name": "_hash",
							"type": "bytes32"
						},
						{
							"internalType": "bytes",
							"name": "_signature",
							"type": "bytes"
						}
					],
					"name": "isValidSignature",
					"outputs": [
						{
							"internalType": "bytes4",
							"name": "",
							"type": "bytes4"
						}
					],
					"stateMutability": "view",
					"type": "function"
				},
				{
					"inputs": [
						{
							"components": [
								{
									"internalType": "uint8",
									"name": "kind",
									"type": "uint8"
								},
								{
									"internalType": "bool",
									"name": "noChainId",
									"type": "bool"
								},
								{
									"components": [
										{
											"internalType": "address",
											"name": "to",
											"type": "address"
										},
										{
											"internalType": "uint256",
											"name": "value",
											"type": "uint256"
										},
										{
											"internalType": "bytes",
											"name": "data",
											"type": "bytes"
										},
										{
											"internalType": "uint256",
											"name": "gasLimit",
											"type": "uint256"
										},
										{
											"internalType": "bool",
											"name": "delegateCall",
											"type": "bool"
										},
										{
											"internalType": "bool",
											"name": "onlyFallback",
											"type": "bool"
										},
										{
											"internalType": "uint256",
											"name": "behaviorOnError",
											"type": "uint256"
										}
									],
									"internalType": "struct Payload.Call[]",
									"name": "calls",
									"type": "tuple[]"
								},
								{
									"internalType": "uint256",
									"name": "space",
									"type": "uint256"
								},
								{
									"internalType": "uint256",
									"name": "nonce",
									"type": "uint256"
								},
								{
									"internalType": "bytes",
									"name": "message",
									"type": "bytes"
								},
								{
									"internalType": "bytes32",
									"name": "imageHash",
									"type": "bytes32"
								},
								{
									"internalType": "bytes32",
									"name": "digest",
									"type": "bytes32"
								},
								{
									"internalType": "address[]",
									"name": "parentWallets",
									"type": "address[]"
								}
							],
							"internalType": "struct Payload.Decoded",
							"name": "_payload",
							"type": "tuple"
						},
						{
							"internalType": "bytes",
							"name": "_signature",
							"type": "bytes"
						}
					],
					"name": "recoverPartialSignature",
					"outputs": [
						{
							"internalType": "uint256",
							"name": "threshold",
							"type": "uint256"
						},
						{
							"internalType": "uint256",
							"name": "weight",
							"type": "uint256"
						},
						{
							"internalType": "bool",
							"name": "isValidImage",
							"type": "bool"
						},
						{
							"internalType": "bytes32",
							"name": "imageHash",
							"type": "bytes32"
						},
						{
							"internalType": "uint256",
							"name": "checkpoint",
							"type": "uint256"
						},
						{
							"internalType": "bytes32",
							"name": "opHash",
							"type": "bytes32"
						}
					],
					"stateMutability": "view",
					"type": "function"
				},
				{
					"inputs": [
						{
							"components": [
								{
									"internalType": "uint8",
									"name": "kind",
									"type": "uint8"
								},
								{
									"internalType": "bool",
									"name": "noChainId",
									"type": "bool"
								},
								{
									"components": [
										{
											"internalType": "address",
											"name": "to",
											"type": "address"
										},
										{
											"internalType": "uint256",
											"name": "value",
											"type": "uint256"
										},
										{
											"internalType": "bytes",
											"name": "data",
											"type": "bytes"
										},
										{
											"internalType": "uint256",
											"name": "gasLimit",
											"type": "uint256"
										},
										{
											"internalType": "bool",
											"name": "delegateCall",
											"type": "bool"
										},
										{
											"internalType": "bool",
											"name": "onlyFallback",
											"type": "bool"
										},
										{
											"internalType": "uint256",
											"name": "behaviorOnError",
											"type": "uint256"
										}
									],
									"internalType": "struct Payload.Call[]",
									"name": "calls",
									"type": "tuple[]"
								},
								{
									"internalType": "uint256",
									"name": "space",
									"type": "uint256"
								},
								{
									"internalType": "uint256",
									"name": "nonce",
									"type": "uint256"
								},
								{
									"internalType": "bytes",
									"name": "message",
									"type": "bytes"
								},
								{
									"internalType": "bytes32",
									"name": "imageHash",
									"type": "bytes32"
								},
								{
									"internalType": "bytes32",
									"name": "digest",
									"type": "bytes32"
								},
								{
									"internalType": "address[]",
									"name": "parentWallets",
									"type": "address[]"
								}
							],
							"internalType": "struct Payload.Decoded",
							"name": "_payload",
							"type": "tuple"
						},
						{
							"internalType": "bytes",
							"name": "_signature",
							"type": "bytes"
						}
					],
					"name": "recoverSapientSignature",
					"outputs": [
						{
							"internalType": "bytes32",
							"name": "",
							"type": "bytes32"
						}
					],
					"stateMutability": "view",
					"type": "function"
				},
				{
					"inputs": [
						{
							"internalType": "bytes32",
							"name": "_hash",
							"type": "bytes32"
						},
						{
							"internalType": "address",
							"name": "_address",
							"type": "address"
						},
						{
							"internalType": "uint96",
							"name": "_timestamp",
							"type": "uint96"
						}
					],
					"name": "setStaticSignature",
					"outputs": [],
					"stateMutability": "nonpayable",
					"type": "function"
				},
				{
					"inputs": [
						{
							"internalType": "bytes32",
							"name": "_imageHash",
							"type": "bytes32"
						}
					],
					"name": "updateImageHash",
					"outputs": [],
					"stateMutability": "nonpayable",
					"type": "function"
				},
				{
					"inputs": [
						{
							"internalType": "address",
							"name": "_implementation",
							"type": "address"
						}
					],
					"name": "updateImplementation",
					"outputs": [],
					"stateMutability": "payable",
					"type": "function"
				}
			],
			"devdoc": {
				"kind": "dev",
				"methods": {
					"isValidSignature(bytes32,bytes)": {
						"details": "MUST return the correct magic value if the signature provided is valid for the provided hash   > The bytes4 magic value to return when signature is valid is 0x20c13b0b : bytes4(keccak256(\"isValidSignature(bytes,bytes)\")   > This function MAY modify Ethereum's state",
						"params": {
							"_hash": "keccak256 hash that was signed",
							"_signature": "Signature byte array associated with _data"
						},
						"returns": {
							"_0": "Magic value 0x20c13b0b if the signature is valid and 0x0 otherwise"
						}
					}
				},
				"version": 1
			},
			"evm": {
				"bytecode": {
					"linkReferences": {},
					"object": "6080604052348015600e575f5ffd5b50613bb88061001c5f395ff3fe608060405260043610610085575f3560e01c806351605d801161005857806351605d801461014557806392dcb3fc1461016f578063aaf10f42146101ac578063ad55366b146101d6578063f727ef1c1461021757610085565b8063025b22bc1461008957806313792a4a146100a55780631626ba7e146100e1578063295614261461011d575b5f5ffd5b6100a3600480360381019061009e9190612342565b61023f565b005b3480156100b0575f5ffd5b506100cb60048036038101906100c6919061297b565b6102bb565b6040516100d89190612a03565b60405180910390f35b3480156100ec575f5ffd5b5061010760048036038101906101029190612a1c565b61046a565b6040516101149190612ab3565b60405180910390f35b348015610128575f5ffd5b50610143600480360381019061013e9190612acc565b6104ac565b005b348015610150575f5ffd5b50610159610528565b6040516101669190612a03565b60405180910390f35b34801561017a575f5ffd5b5061019560048036038101906101909190612acc565b610559565b6040516101a3929190612b15565b60405180910390f35b3480156101b7575f5ffd5b506101c061056d565b6040516101cd9190612b3c565b60405180910390f35b3480156101e1575f5ffd5b506101fc60048036038101906101f7919061297b565b61057b565b60405161020e96959493929190612b64565b60405180910390f35b348015610222575f5ffd5b5061023d60048036038101906102389190612c04565b6105b9565b005b3073ffffffffffffffffffffffffffffffffffffffff163373ffffffffffffffffffffffffffffffffffffffff16146102af57336040517fa19dbf000000000000000000000000000000000000000000000000000000000081526004016102a69190612b3c565b60405180910390fd5b6102b881610682565b50565b5f5f6001856101000151516102d09190612c81565b67ffffffffffffffff8111156102e9576102e8612381565b5b6040519080825280602002602001820160405280156103175781602001602082028036833780820191505090505b5090505f5f90505b856101000151518110156103a757856101000151818151811061034557610344612cb4565b5b60200260200101518282815181106103605761035f612cb4565b5b602002602001019073ffffffffffffffffffffffffffffffffffffffff16908173ffffffffffffffffffffffffffffffffffffffff1681525050808060010191505061031f565b50338186610100015151815181106103c2576103c1612cb4565b5b602002602001019073ffffffffffffffffffffffffffffffffffffffff16908173ffffffffffffffffffffffffffffffffffffffff1681525050808561010001819052505f6104128686866106c5565b5090508061045b578585856040517ff58cc8b500000000000000000000000000000000000000000000000000000000815260040161045293929190613094565b60405180910390fd5b60015f1b925050509392505050565b5f5f610475856108b5565b90505f6104838286866106c5565b50905080610498575f60e01b925050506104a5565b6320c13b0b60e01b925050505b9392505050565b3073ffffffffffffffffffffffffffffffffffffffff163373ffffffffffffffffffffffffffffffffffffffff161461051c57336040517fa19dbf000000000000000000000000000000000000000000000000000000000081526004016105139190612b3c565b60405180910390fd5b610525816108de565b50565b5f6105547fea7157fa25e3aa17d0ae2d5280fa4e24d421c61842aa85e45194e1145aa72bf85f1b61097f565b905090565b5f5f61056483610989565b91509150915091565b5f6105766109da565b905090565b5f5f5f5f5f5f61058e8989895f5f6109e2565b809550819650829750839950849a5050505050506105ab83610d1f565b935093975093979195509350565b3073ffffffffffffffffffffffffffffffffffffffff163373ffffffffffffffffffffffffffffffffffffffff161461062957336040517fa19dbf000000000000000000000000000000000000000000000000000000000081526004016106209190612b3c565b60405180910390fd5b6106428383836bffffffffffffffffffffffff16610d62565b7febf265acfac1c01de588ed7ef49743b9c3ce8d6d1edeaf510a1f5453228515b1838383604051610675939291906130da565b60405180910390a1505050565b61068b81610dc0565b7f310ba5f1d2ed074b51e2eccd052a47ae9ab7c6b800d1fca3db3999d6a592ca03816040516106ba9190612b3c565b60405180910390a150565b5f5f5f84845f8181106106db576106da612cb4565b5b9050013560f81c60f81b9050608060f81b608060f81b82167effffffffffffffffffffffffffffffffffffffffffffffffffffffffffffff1916036108345761072386610dc6565b91505f5f61073084610989565b9150915042811161077a5783816040517ff95b6ab700000000000000000000000000000000000000000000000000000000815260040161077192919061310f565b60405180910390fd5b5f73ffffffffffffffffffffffffffffffffffffffff168273ffffffffffffffffffffffffffffffffffffffff16141580156107e257503373ffffffffffffffffffffffffffffffffffffffff168273ffffffffffffffffffffffffffffffffffffffff1614155b15610828578333836040517f8945c31300000000000000000000000000000000000000000000000000000000815260040161081f93929190613136565b60405180910390fd5b600194505050506108ad565b5f5f5f6108448989895f5f6109e2565b9050809850819450829550839650505050508282101561089d5782826040517ffd41fcba00000000000000000000000000000000000000000000000000000000815260040161089492919061316b565b60405180910390fd5b6108a681610d1f565b9550505050505b935093915050565b6108bd612274565b6003815f019060ff16908160ff1681525050818160e0018181525050919050565b5f5f1b8103610919576040517f4294d12700000000000000000000000000000000000000000000000000000000815260040160405180910390fd5b6109457fea7157fa25e3aa17d0ae2d5280fa4e24d421c61842aa85e45194e1145aa72bf85f1b82610e16565b7f307ed6bd941ee9fc80f369c94af5fa11e25bab5102a6140191756c5474a30bfa816040516109749190612a03565b60405180910390a150565b5f81549050919050565b5f5f5f6109b87fc852adf5e97c2fc3b38f405671e91b7af1697ef0287577f227ef10494c2a8e865f1b85610e1d565b5f1c9050606081901c816bffffffffffffffffffffffff169250925050915091565b5f3054905090565b5f5f5f5f5f5f5f6109f38b8b610e55565b915060ff169150610a026122bf565b6040808416148015610a3f57505f73ffffffffffffffffffffffffffffffffffffffff168973ffffffffffffffffffffffffffffffffffffffff16145b15610b7b57610a59828d8d610e6b9290919263ffffffff16565b809350819a50505089610b7a575f610a7c838e8e610e9c9290919263ffffffff16565b8162ffffff16915080945081925050505f8d8d85908487610a9d9190612c81565b92610aaa9392919061319a565b8080601f0160208091040260200160405190810160405280939291908181526020018383808284375f81840152601f19601f8201169050808301925050505050505090508a73ffffffffffffffffffffffffffffffffffffffff1663ccce3bc830836040518363ffffffff1660e01b8152600401610b2992919061320c565b6040805180830381865afa158015610b43573d5f5f3e3d5ffd5b505050506040513d601f19601f82011682018060405250810190610b6791906132af565b92508184610b759190612c81565b935050505b5b600180841603610bb457610ba28d8a838f8f87908092610b9d9392919061319a565b610ebc565b97509750975097509750505050610d12565b6002808416148d60200190151590811515815250505f6002601c8516901c9050610bf083828f8f61111e9190939291909392919063ffffffff16565b8094508197505050505f6001600560208616901c610c0e9190612c81565b9050610c2c83828f8f61111e9190939291909392919063ffffffff16565b809450819a50505050610c3e8d610dc6565b9350610c5c8d858e8e86908092610c579392919061319a565b61114b565b8097508198505050610c7086895f1b611cbf565b9550610c7e86865f1b611cbf565b9550610ca2868a73ffffffffffffffffffffffffffffffffffffffff165f1b611cbf565b95505f5f1b815f015114158015610cbc575085815f015114155b8015610ccc575080602001518511155b15610d0e57806040517fccbb534f000000000000000000000000000000000000000000000000000000008152600401610d059190613307565b60405180910390fd5b5050505b9550955095509550959050565b5f5f5f1b8214158015610d5b5750610d587fea7157fa25e3aa17d0ae2d5280fa4e24d421c61842aa85e45194e1145aa72bf85f1b61097f565b82145b9050919050565b610dbb7fc852adf5e97c2fc3b38f405671e91b7af1697ef0287577f227ef10494c2a8e865f1b846bffffffffffffffffffffffff841660608673ffffffffffffffffffffffffffffffffffffffff16901b175f1b611cd3565b505050565b80305550565b5f5f610dd6836020015130611d08565b90505f610de284611dac565b90508181604051602001610df7929190613394565b6040516020818303038152906040528051906020012092505050919050565b8082555050565b5f5f8383604051602001610e329291906133ca565b604051602081830303815290604052805190602001209050805491505092915050565b5f5f83358060f81c925060019150509250929050565b5f5f8483013573ffffffffffffffffffffffffffffffffffffffff8160601c16925060148401915050935093915050565b5f5f8483013562ffffff8160e81c16925060038401915050935093915050565b5f5f5f5f5f610ec9612274565b6002815f019060ff16908160ff16815250505f5f7fffffffffffffffffffffffffffffffffffffffffffffffffffffffffffffffff90505b898990508210156110b3575f5f610f23848d8d610e9c9290919263ffffffff16565b8162ffffff16915080955081925050508381610f3f9190612c81565b9150505f8b8b90508214610f53575f610f55565b8d5b90507fffffffffffffffffffffffffffffffffffffffffffffffffffffffffffffffff8303610fb557610f9c8f8d8d87908692610f949392919061319a565b6001856109e2565b809a50819b50829c50839d50849e505050505050610fe5565b610fd3858d8d87908692610fcb9392919061319a565b6001856109e2565b50809a50819b50829c50839d50505050505b89891015611040578b8b85908492610fff9392919061319a565b8b8b6040517fb006aba000000000000000000000000000000000000000000000000000000000815260040161103794939291906133f1565b60405180910390fd5b819350878d5f015103611059575f5f1b8d5f0181815250505b82871061109f5786836040517f37daf62b00000000000000000000000000000000000000000000000000000000815260040161109692919061316b565b60405180910390fd5b878560c00181815250508692505050610f01565b5f5f1b8b5f0151141580156110cc57508a602001518511155b1561110e578a6040517fccbb534f0000000000000000000000000000000000000000000000000000000081526004016111059190613307565b60405180910390fd5b5050509550955095509550959050565b5f5f858401356008840261010003600180866008021b0382821c1693508486019250505094509492505050565b5f5f5f5b84849050811015611cb5575f611170828787611fe09290919263ffffffff16565b8160ff16915080935081925050505f600460f08316901c90505f81036112c8575f600f831690505f8160ff16036111bf576111b6848989611fe09290919263ffffffff16565b80955081925050505b5f5f6111d6868b8b611ffb9290919263ffffffff16565b80975081935050506111f3868b8b611ffb9290919263ffffffff16565b80975081925050505f60ff82901c5f1c90505f7f7fffffffffffffffffffffffffffffffffffffffffffffffffffffffffffffff835f1c165f1b90505f601b830190505f60018f8388866040515f8152602001604052604051611259949392919061343e565b6020604051602081039080840390855afa158015611279573d5f5f3e3d5ffd5b5050506020604051035190508660ff168c019b505f61129b828960ff16612011565b90505f5f1b8c036112ac57806112b7565b6112b68c82611cbf565b5b9b505050505050505050505061114f565b60018103611353575f600f831690505f8160ff16036112ff576112f6848989611fe09290919263ffffffff16565b80955081925050505b5f611315858a8a610e6b9290919263ffffffff16565b80965081925050505f61132b828460ff16612011565b90505f5f1b870361133c5780611347565b6113468782611cbf565b5b9650505050505061114f565b60028103611552575f6003831690505f8160ff160361138a57611381848989611fe09290919263ffffffff16565b80955081925050505b5f6113a0858a8a610e6b9290919263ffffffff16565b80965081925050505f6002600c861660ff16901c60ff1690505f6113d687838d8d61111e9190939291909392919063ffffffff16565b80985081925050505f81880190506320c13b0b60e01b7bffffffffffffffffffffffffffffffffffffffffffffffffffffffff19168473ffffffffffffffffffffffffffffffffffffffff16631626ba7e8f8f8f8d90879261143a9392919061319a565b6040518463ffffffff1660e01b815260040161145893929190613481565b602060405180830381865afa158015611473573d5f5f3e3d5ffd5b505050506040513d601f19601f8201168201806040525081019061149791906134db565b7bffffffffffffffffffffffffffffffffffffffffffffffffffffffff19161461150e578c848d8d8b9085926114cf9392919061319a565b6040517fb2fed7ae0000000000000000000000000000000000000000000000000000000081526004016115059493929190613506565b60405180910390fd5b8097508460ff168a0199505f611527858760ff16612011565b90505f5f1b8a036115385780611543565b6115428a82611cbf565b5b9950505050505050505061114f565b6003810361159c575f611570848989611ffb9290919263ffffffff16565b80955081925050505f5f1b85036115875780611592565b6115918582611cbf565b5b945050505061114f565b6004810361161b575f600f831660ff1690505f6115cb85838b8b61111e9190939291909392919063ffffffff16565b80965081925050505f81860190505f5f6115f78e8e8e8e8c9088926115f29392919061319a565b61114b565b91509150829750818a01995061160d8982611cbf565b98505050505050505061114f565b6006810361172b575f6002600c841660ff16901c60ff1690505f810361165f57611650848989611fe09290919263ffffffff16565b8160ff16915080955081925050505b5f6003841660ff1690505f810361169557611685858a8a6120439290919263ffffffff16565b8161ffff16915080965081925050505b5f6116ab868b8b610e9c9290919263ffffffff16565b8162ffffff16915080975081925050505f81870190505f5f6116df8f8f8f8f8d9088926116da9392919061319a565b61114b565b915091508298508482106116f357858b019a505b5f6116ff828789612062565b90505f5f1b8b03611710578061171b565b61171a8b82611cbf565b5b9a5050505050505050505061114f565b600581036117ad575f611749848989611ffb9290919263ffffffff16565b809550819250505088810361177c577fffffffffffffffffffffffffffffffffffffffffffffffffffffffffffffffff95505b5f61178682612097565b90505f5f1b860361179757806117a2565b6117a18682611cbf565b5b95505050505061114f565b60078103611913575f600f831690505f8160ff16036117e4576117db848989611fe09290919263ffffffff16565b80955081925050505b5f5f6117fb868b8b611ffb9290919263ffffffff16565b8097508193505050611818868b8b611ffb9290919263ffffffff16565b80975081925050505f60ff82901c5f1c90505f7f7fffffffffffffffffffffffffffffffffffffffffffffffffffffffffffffff835f1c165f1b90505f601b830190505f60018f60405160200161186f919061358e565b604051602081830303815290604052805190602001208388866040515f81526020016040526040516118a4949392919061343e565b6020604051602081039080840390855afa1580156118c4573d5f5f3e3d5ffd5b5050506020604051035190508660ff168c019b505f6118e6828960ff16612011565b90505f5f1b8c036118f75780611902565b6119018c82611cbf565b5b9b505050505050505050505061114f565b600881036119ac575f611931848989611ffb9290919263ffffffff16565b80955081925050505f61194d5f8c6120c690919063ffffffff16565b905080820361197a577fffffffffffffffffffffffffffffffffffffffffffffffffffffffffffffffff96505b5f61198483612117565b90505f5f1b870361199557806119a0565b61199f8782611cbf565b5b9650505050505061114f565b60098103611b12575f6003831690505f8160ff16036119e3576119da848989611fe09290919263ffffffff16565b80955081925050505b5f6119f9858a8a610e6b9290919263ffffffff16565b80965081925050505f5f6002600c871660ff16901c60ff169050611a2f87828d8d61111e9190939291909392919063ffffffff16565b8098508193505050505f81870190505f8373ffffffffffffffffffffffffffffffffffffffff166313792a4a8f8e8e8c908792611a6e9392919061319a565b6040518463ffffffff1660e01b8152600401611a8c939291906135b3565b602060405180830381865afa158015611aa7573d5f5f3e3d5ffd5b505050506040513d601f19601f82011682018060405250810190611acb91906135ea565b90508197508460ff168a0199505f611ae7858760ff1684612146565b90505f5f1b8a03611af85780611b03565b611b028a82611cbf565b5b9950505050505050505061114f565b600a8103611c78575f6003831690505f8160ff1603611b4957611b40848989611fe09290919263ffffffff16565b80955081925050505b5f611b5f858a8a610e6b9290919263ffffffff16565b80965081925050505f6002600c861660ff16901c60ff1690505f611b9587838d8d61111e9190939291909392919063ffffffff16565b80985081925050505f81880190505f8473ffffffffffffffffffffffffffffffffffffffff1663898bd9218f8f8f8d908792611bd39392919061319a565b6040518463ffffffff1660e01b8152600401611bf193929190613481565b602060405180830381865afa158015611c0c573d5f5f3e3d5ffd5b505050506040513d601f19601f82011682018060405250810190611c3091906135ea565b90508198508560ff168b019a505f611c4c868860ff1684612146565b90505f5f1b8b03611c5d5780611c68565b611c678b82611cbf565b5b9a5050505050505050505061114f565b806040517fb2505f7c000000000000000000000000000000000000000000000000000000008152600401611cac9190613615565b60405180910390fd5b5094509492505050565b5f825f528160205260405f20905092915050565b5f8383604051602001611ce79291906133ca565b60405160208183030381529060405280519060200120905081815550505050565b5f7f8b73c3c69bb8fe3d512ecc4cf759cc79239f7b179b0ffacaa9a75d522b39400f7f4aa45ca7ad825ceb1bf35643f0a58c295239df563b1b565c2485f96477c563187f2a80e1ef1d7842f27f2e6be0972bb708b9a135c38860dbe73c27c3486c34f4de85611d775746611d79565b5f5b85604051602001611d8e95949392919061362e565b60405160208183030381529060405280519060200120905092915050565b5f5f826101000151604051602001611dc4919061370b565b6040516020818303038152906040528051906020012090505f60ff16835f015160ff1603611e5c575f611dfa846040015161217b565b90507f11e1e4079a79a66e4ade50033cfe2678cdd5341d2dfe5ef9513edb1a0be147a2818560600151866080015185604051602001611e3d959493929190613721565b6040516020818303038152906040528051906020012092505050611fdb565b600160ff16835f015160ff1603611ecb577fe19a3b94fc3c7ece3f890d98a99bc422615537a08dea0603fa8425867d87d4668360a001518051906020012082604051602001611ead93929190613772565b60405160208183030381529060405280519060200120915050611fdb565b600260ff16835f015160ff1603611f33577f11fdeb7e8373a1aa96bfac8d0ea91526b2c5d15e5cee20e0543e780258f3e8e48360c0015182604051602001611f1593929190613772565b60405160208183030381529060405280519060200120915050611fdb565b600360ff16835f015160ff1603611f9b577fe19a3b94fc3c7ece3f890d98a99bc422615537a08dea0603fa8425867d87d4668360e0015182604051602001611f7d93929190613772565b60405160208183030381529060405280519060200120915050611fdb565b825f01516040517f04818320000000000000000000000000000000000000000000000000000000008152600401611fd291906137a7565b60405180910390fd5b919050565b5f5f848301358060f81c925060018401915050935093915050565b5f5f848301359150602083019050935093915050565b5f828260405160200161202592919061386f565b60405160208183030381529060405280519060200120905092915050565b5f5f8483013561ffff8160f01c16925060028401915050935093915050565b5f838383604051602001612078939291906138ef565b6040516020818303038152906040528051906020012090509392505050565b5f816040516020016120a99190613980565b604051602081830303815290604052805190602001209050919050565b5f5f6120d6846020015184611d08565b90505f6120e285611dac565b905081816040516020016120f7929190613394565b604051602081830303815290604052805190602001209250505092915050565b5f8160405160200161212991906139ef565b604051602081830303815290604052805190602001209050919050565b5f83838360405160200161215c93929190613a5e565b6040516020818303038152906040528051906020012090509392505050565b5f60605f5f90505b83518110156121e4575f6121b08583815181106121a3576121a2612cb4565b5b60200260200101516121f5565b905082816040516020016121c5929190613adf565b6040516020818303038152906040529250508080600101915050612183565b508080519060200120915050919050565b5f7f0603985259a953da1f65a522f589c17bd1d0117ec1d3abb7c0788aef251ef437825f01518360200151846040015180519060200120856060015186608001518760a001518860c00151604051602001612257989796959493929190613b06565b604051602081830303815290604052805190602001209050919050565b6040518061012001604052805f60ff1681526020015f15158152602001606081526020015f81526020015f8152602001606081526020015f81526020015f8152602001606081525090565b60405180604001604052805f81526020015f81525090565b5f604051905090565b5f5ffd5b5f5ffd5b5f73ffffffffffffffffffffffffffffffffffffffff82169050919050565b5f612311826122e8565b9050919050565b61232181612307565b811461232b575f5ffd5b50565b5f8135905061233c81612318565b92915050565b5f60208284031215612357576123566122e0565b5b5f6123648482850161232e565b91505092915050565b5f5ffd5b5f601f19601f8301169050919050565b7f4e487b71000000000000000000000000000000000000000000000000000000005f52604160045260245ffd5b6123b782612371565b810181811067ffffffffffffffff821117156123d6576123d5612381565b5b80604052505050565b5f6123e86122d7565b90506123f482826123ae565b919050565b5f5ffd5b5f60ff82169050919050565b612412816123fd565b811461241c575f5ffd5b50565b5f8135905061242d81612409565b92915050565b5f8115159050919050565b61244781612433565b8114612451575f5ffd5b50565b5f813590506124628161243e565b92915050565b5f5ffd5b5f67ffffffffffffffff82111561248657612485612381565b5b602082029050602081019050919050565b5f5ffd5b5f819050919050565b6124ad8161249b565b81146124b7575f5ffd5b50565b5f813590506124c8816124a4565b92915050565b5f5ffd5b5f67ffffffffffffffff8211156124ec576124eb612381565b5b6124f582612371565b9050602081019050919050565b828183375f83830152505050565b5f61252261251d846124d2565b6123df565b90508281526020810184848401111561253e5761253d6124ce565b5b612549848285612502565b509392505050565b5f82601f83011261256557612564612468565b5b8135612575848260208601612510565b91505092915050565b5f60e082840312156125935761259261236d565b5b61259d60e06123df565b90505f6125ac8482850161232e565b5f8301525060206125bf848285016124ba565b602083015250604082013567ffffffffffffffff8111156125e3576125e26123f9565b5b6125ef84828501612551565b6040830152506060612603848285016124ba565b606083015250608061261784828501612454565b60808301525060a061262b84828501612454565b60a08301525060c061263f848285016124ba565b60c08301525092915050565b5f61265d6126588461246c565b6123df565b905080838252602082019050602084028301858111156126805761267f612497565b5b835b818110156126c757803567ffffffffffffffff8111156126a5576126a4612468565b5b8086016126b2898261257e565b85526020850194505050602081019050612682565b5050509392505050565b5f82601f8301126126e5576126e4612468565b5b81356126f584826020860161264b565b91505092915050565b5f819050919050565b612710816126fe565b811461271a575f5ffd5b50565b5f8135905061272b81612707565b92915050565b5f67ffffffffffffffff82111561274b5761274a612381565b5b602082029050602081019050919050565b5f61276e61276984612731565b6123df565b9050808382526020820190506020840283018581111561279157612790612497565b5b835b818110156127ba57806127a6888261232e565b845260208401935050602081019050612793565b5050509392505050565b5f82601f8301126127d8576127d7612468565b5b81356127e884826020860161275c565b91505092915050565b5f61012082840312156128075761280661236d565b5b6128126101206123df565b90505f6128218482850161241f565b5f83015250602061283484828501612454565b602083015250604082013567ffffffffffffffff811115612858576128576123f9565b5b612864848285016126d1565b6040830152506060612878848285016124ba565b606083015250608061288c848285016124ba565b60808301525060a082013567ffffffffffffffff8111156128b0576128af6123f9565b5b6128bc84828501612551565b60a08301525060c06128d08482850161271d565b60c08301525060e06128e48482850161271d565b60e08301525061010082013567ffffffffffffffff811115612909576129086123f9565b5b612915848285016127c4565b6101008301525092915050565b5f5ffd5b5f5f83601f84011261293b5761293a612468565b5b8235905067ffffffffffffffff81111561295857612957612922565b5b60208301915083600182028301111561297457612973612497565b5b9250929050565b5f5f5f60408486031215612992576129916122e0565b5b5f84013567ffffffffffffffff8111156129af576129ae6122e4565b5b6129bb868287016127f1565b935050602084013567ffffffffffffffff8111156129dc576129db6122e4565b5b6129e886828701612926565b92509250509250925092565b6129fd816126fe565b82525050565b5f602082019050612a165f8301846129f4565b92915050565b5f5f5f60408486031215612a3357612a326122e0565b5b5f612a408682870161271d565b935050602084013567ffffffffffffffff811115612a6157612a606122e4565b5b612a6d86828701612926565b92509250509250925092565b5f7fffffffff0000000000000000000000000000000000000000000000000000000082169050919050565b612aad81612a79565b82525050565b5f602082019050612ac65f830184612aa4565b92915050565b5f60208284031215612ae157612ae06122e0565b5b5f612aee8482850161271d565b91505092915050565b612b0081612307565b82525050565b612b0f8161249b565b82525050565b5f604082019050612b285f830185612af7565b612b356020830184612b06565b9392505050565b5f602082019050612b4f5f830184612af7565b92915050565b612b5e81612433565b82525050565b5f60c082019050612b775f830189612b06565b612b846020830188612b06565b612b916040830187612b55565b612b9e60608301866129f4565b612bab6080830185612b06565b612bb860a08301846129f4565b979650505050505050565b5f6bffffffffffffffffffffffff82169050919050565b612be381612bc3565b8114612bed575f5ffd5b50565b5f81359050612bfe81612bda565b92915050565b5f5f5f60608486031215612c1b57612c1a6122e0565b5b5f612c288682870161271d565b9350506020612c398682870161232e565b9250506040612c4a86828701612bf0565b9150509250925092565b7f4e487b71000000000000000000000000000000000000000000000000000000005f52601160045260245ffd5b5f612c8b8261249b565b9150612c968361249b565b9250828201905080821115612cae57612cad612c54565b5b92915050565b7f4e487b71000000000000000000000000000000000000000000000000000000005f52603260045260245ffd5b612cea816123fd565b82525050565b612cf981612433565b82525050565b5f81519050919050565b5f82825260208201905092915050565b5f819050602082019050919050565b612d3181612307565b82525050565b612d408161249b565b82525050565b5f81519050919050565b5f82825260208201905092915050565b8281835e5f83830152505050565b5f612d7882612d46565b612d828185612d50565b9350612d92818560208601612d60565b612d9b81612371565b840191505092915050565b5f60e083015f830151612dbb5f860182612d28565b506020830151612dce6020860182612d37565b5060408301518482036040860152612de68282612d6e565b9150506060830151612dfb6060860182612d37565b506080830151612e0e6080860182612cf0565b5060a0830151612e2160a0860182612cf0565b5060c0830151612e3460c0860182612d37565b508091505092915050565b5f612e4a8383612da6565b905092915050565b5f602082019050919050565b5f612e6882612cff565b612e728185612d09565b935083602082028501612e8485612d19565b805f5b85811015612ebf5784840389528151612ea08582612e3f565b9450612eab83612e52565b925060208a01995050600181019050612e87565b50829750879550505050505092915050565b612eda816126fe565b82525050565b5f81519050919050565b5f82825260208201905092915050565b5f819050602082019050919050565b5f612f148383612d28565b60208301905092915050565b5f602082019050919050565b5f612f3682612ee0565b612f408185612eea565b9350612f4b83612efa565b805f5b83811015612f7b578151612f628882612f09565b9750612f6d83612f20565b925050600181019050612f4e565b5085935050505092915050565b5f61012083015f830151612f9e5f860182612ce1565b506020830151612fb16020860182612cf0565b5060408301518482036040860152612fc98282612e5e565b9150506060830151612fde6060860182612d37565b506080830151612ff16080860182612d37565b5060a083015184820360a08601526130098282612d6e565b91505060c083015161301e60c0860182612ed1565b5060e083015161303160e0860182612ed1565b5061010083015184820361010086015261304b8282612f2c565b9150508091505092915050565b5f82825260208201905092915050565b5f6130738385613058565b9350613080838584612502565b61308983612371565b840190509392505050565b5f6040820190508181035f8301526130ac8186612f88565b905081810360208301526130c1818486613068565b9050949350505050565b6130d481612bc3565b82525050565b5f6060820190506130ed5f8301866129f4565b6130fa6020830185612af7565b61310760408301846130cb565b949350505050565b5f6040820190506131225f8301856129f4565b61312f6020830184612b06565b9392505050565b5f6060820190506131495f8301866129f4565b6131566020830185612af7565b6131636040830184612af7565b949350505050565b5f60408201905061317e5f830185612b06565b61318b6020830184612b06565b9392505050565b5f5ffd5b5f5ffd5b5f5f858511156131ad576131ac613192565b5b838611156131be576131bd613196565b5b6001850283019150848603905094509492505050565b5f6131de82612d46565b6131e88185613058565b93506131f8818560208601612d60565b61320181612371565b840191505092915050565b5f60408201905061321f5f830185612af7565b818103602083015261323181846131d4565b90509392505050565b5f8151905061324881612707565b92915050565b5f8151905061325c816124a4565b92915050565b5f604082840312156132775761327661236d565b5b61328160406123df565b90505f6132908482850161323a565b5f8301525060206132a38482850161324e565b60208301525092915050565b5f604082840312156132c4576132c36122e0565b5b5f6132d184828501613262565b91505092915050565b604082015f8201516132ee5f850182612ed1565b5060208201516133016020850182612d37565b50505050565b5f60408201905061331a5f8301846132da565b92915050565b5f81905092915050565b7f19010000000000000000000000000000000000000000000000000000000000005f82015250565b5f61335e600283613320565b91506133698261332a565b600282019050919050565b5f819050919050565b61338e613389826126fe565b613374565b82525050565b5f61339e82613352565b91506133aa828561337d565b6020820191506133ba828461337d565b6020820191508190509392505050565b5f6040820190506133dd5f8301856129f4565b6133ea60208301846129f4565b9392505050565b5f6060820190508181035f83015261340a818688613068565b90506134196020830185612b06565b6134266040830184612b06565b95945050505050565b613438816123fd565b82525050565b5f6080820190506134515f8301876129f4565b61345e602083018661342f565b61346b60408301856129f4565b61347860608301846129f4565b95945050505050565b5f6040820190506134945f8301866129f4565b81810360208301526134a7818486613068565b9050949350505050565b6134ba81612a79565b81146134c4575f5ffd5b50565b5f815190506134d5816134b1565b92915050565b5f602082840312156134f0576134ef6122e0565b5b5f6134fd848285016134c7565b91505092915050565b5f6060820190506135195f8301876129f4565b6135266020830186612af7565b8181036040830152613539818486613068565b905095945050505050565b7f19457468657265756d205369676e6564204d6573736167653a0a3332000000005f82015250565b5f613578601c83613320565b915061358382613544565b601c82019050919050565b5f6135988261356c565b91506135a4828461337d565b60208201915081905092915050565b5f6040820190508181035f8301526135cb8186612f88565b905081810360208301526135e0818486613068565b9050949350505050565b5f602082840312156135ff576135fe6122e0565b5b5f61360c8482850161323a565b91505092915050565b5f6020820190506136285f830184612b06565b92915050565b5f60a0820190506136415f8301886129f4565b61364e60208301876129f4565b61365b60408301866129f4565b6136686060830185612b06565b6136756080830184612af7565b9695505050505050565b5f81905092915050565b61369281612307565b82525050565b5f6136a38383613689565b60208301905092915050565b5f6136b982612ee0565b6136c3818561367f565b93506136ce83612efa565b805f5b838110156136fe5781516136e58882613698565b97506136f083612f20565b9250506001810190506136d1565b5085935050505092915050565b5f61371682846136af565b915081905092915050565b5f60a0820190506137345f8301886129f4565b61374160208301876129f4565b61374e6040830186612b06565b61375b6060830185612b06565b61376860808301846129f4565b9695505050505050565b5f6060820190506137855f8301866129f4565b61379260208301856129f4565b61379f60408301846129f4565b949350505050565b5f6020820190506137ba5f83018461342f565b92915050565b7f53657175656e6365207369676e65723a0a0000000000000000000000000000005f82015250565b5f6137f4601183613320565b91506137ff826137c0565b601182019050919050565b5f8160601b9050919050565b5f6138208261380a565b9050919050565b5f61383182613816565b9050919050565b61384961384482612307565b613827565b82525050565b5f819050919050565b6138696138648261249b565b61384f565b82525050565b5f613879826137e8565b91506138858285613838565b6014820191506138958284613858565b6020820191508190509392505050565b7f53657175656e6365206e657374656420636f6e6669673a0a00000000000000005f82015250565b5f6138d9601883613320565b91506138e4826138a5565b601882019050919050565b5f6138f9826138cd565b9150613905828661337d565b6020820191506139158285613858565b6020820191506139258284613858565b602082019150819050949350505050565b7f53657175656e636520737461746963206469676573743a0a00000000000000005f82015250565b5f61396a601883613320565b915061397582613936565b601882019050919050565b5f61398a8261395e565b9150613996828461337d565b60208201915081905092915050565b7f53657175656e636520616e792061646472657373207375626469676573743a0a5f82015250565b5f6139d9602083613320565b91506139e4826139a5565b602082019050919050565b5f6139f9826139cd565b9150613a05828461337d565b60208201915081905092915050565b7f53657175656e63652073617069656e7420636f6e6669673a0a000000000000005f82015250565b5f613a48601983613320565b9150613a5382613a14565b601982019050919050565b5f613a6882613a3c565b9150613a748286613838565b601482019150613a848285613858565b602082019150613a94828461337d565b602082019150819050949350505050565b5f81905092915050565b5f613ab982612d46565b613ac38185613aa5565b9350613ad3818560208601612d60565b80840191505092915050565b5f613aea8285613aaf565b9150613af6828461337d565b6020820191508190509392505050565b5f61010082019050613b1a5f83018b6129f4565b613b27602083018a612af7565b613b346040830189612b06565b613b4160608301886129f4565b613b4e6080830187612b06565b613b5b60a0830186612b55565b613b6860c0830185612b55565b613b7560e0830184612b06565b999850505050505050505056fea26469706673582212209f489f615f10e46dd8b204a31451393ca86f5f06bf3a391b7765de0941c53f0e64736f6c634300081c0033",
					"opcodes": "PUSH1 0x80 PUSH1 0x40 MSTORE CALLVALUE DUP1 ISZERO PUSH1 0xE JUMPI PUSH0 PUSH0 REVERT JUMPDEST POP PUSH2 0x3BB8 DUP1 PUSH2 0x1C PUSH0 CODECOPY PUSH0 RETURN INVALID PUSH1 0x80 PUSH1 0x40 MSTORE PUSH1 0x4 CALLDATASIZE LT PUSH2 0x85 JUMPI PUSH0 CALLDATALOAD PUSH1 0xE0 SHR DUP1 PUSH4 0x51605D80 GT PUSH2 0x58 JUMPI DUP1 PUSH4 0x51605D80 EQ PUSH2 0x145 JUMPI DUP1 PUSH4 0x92DCB3FC EQ PUSH2 0x16F JUMPI DUP1 PUSH4 0xAAF10F42 EQ PUSH2 0x1AC JUMPI DUP1 PUSH4 0xAD55366B EQ PUSH2 0x1D6 JUMPI DUP1 PUSH4 0xF727EF1C EQ PUSH2 0x217 JUMPI PUSH2 0x85 JUMP JUMPDEST DUP1 PUSH4 0x25B22BC EQ PUSH2 0x89 JUMPI DUP1 PUSH4 0x13792A4A EQ PUSH2 0xA5 JUMPI DUP1 PUSH4 0x1626BA7E EQ PUSH2 0xE1 JUMPI DUP1 PUSH4 0x29561426 EQ PUSH2 0x11D JUMPI JUMPDEST PUSH0 PUSH0 REVERT JUMPDEST PUSH2 0xA3 PUSH1 0x4 DUP1 CALLDATASIZE SUB DUP2 ADD SWAP1 PUSH2 0x9E SWAP2 SWAP1 PUSH2 0x2342 JUMP JUMPDEST PUSH2 0x23F JUMP JUMPDEST STOP JUMPDEST CALLVALUE DUP1 ISZERO PUSH2 0xB0 JUMPI PUSH0 PUSH0 REVERT JUMPDEST POP PUSH2 0xCB PUSH1 0x4 DUP1 CALLDATASIZE SUB DUP2 ADD SWAP1 PUSH2 0xC6 SWAP2 SWAP1 PUSH2 0x297B JUMP JUMPDEST PUSH2 0x2BB JUMP JUMPDEST PUSH1 0x40 MLOAD PUSH2 0xD8 SWAP2 SWAP1 PUSH2 0x2A03 JUMP JUMPDEST PUSH1 0x40 MLOAD DUP1 SWAP2 SUB SWAP1 RETURN JUMPDEST CALLVALUE DUP1 ISZERO PUSH2 0xEC JUMPI PUSH0 PUSH0 REVERT JUMPDEST POP PUSH2 0x107 PUSH1 0x4 DUP1 CALLDATASIZE SUB DUP2 ADD SWAP1 PUSH2 0x102 SWAP2 SWAP1 PUSH2 0x2A1C JUMP JUMPDEST PUSH2 0x46A JUMP JUMPDEST PUSH1 0x40 MLOAD PUSH2 0x114 SWAP2 SWAP1 PUSH2 0x2AB3 JUMP JUMPDEST PUSH1 0x40 MLOAD DUP1 SWAP2 SUB SWAP1 RETURN JUMPDEST CALLVALUE DUP1 ISZERO PUSH2 0x128 JUMPI PUSH0 PUSH0 REVERT JUMPDEST POP PUSH2 0x143 PUSH1 0x4 DUP1 CALLDATASIZE SUB DUP2 ADD SWAP1 PUSH2 0x13E SWAP2 SWAP1 PUSH2 0x2ACC JUMP JUMPDEST PUSH2 0x4AC JUMP JUMPDEST STOP JUMPDEST CALLVALUE DUP1 ISZERO PUSH2 0x150 JUMPI PUSH0 PUSH0 REVERT JUMPDEST POP PUSH2 0x159 PUSH2 0x528 JUMP JUMPDEST PUSH1 0x40 MLOAD PUSH2 0x166 SWAP2 SWAP1 PUSH2 0x2A03 JUMP JUMPDEST PUSH1 0x40 MLOAD DUP1 SWAP2 SUB SWAP1 RETURN JUMPDEST CALLVALUE DUP1 ISZERO PUSH2 0x17A JUMPI PUSH0 PUSH0 REVERT JUMPDEST POP PUSH2 0x195 PUSH1 0x4 DUP1 CALLDATASIZE SUB DUP2 ADD SWAP1 PUSH2 0x190 SWAP2 SWAP1 PUSH2 0x2ACC JUMP JUMPDEST PUSH2 0x559 JUMP JUMPDEST PUSH1 0x40 MLOAD PUSH2 0x1A3 SWAP3 SWAP2 SWAP1 PUSH2 0x2B15 JUMP JUMPDEST PUSH1 0x40 MLOAD DUP1 SWAP2 SUB SWAP1 RETURN JUMPDEST CALLVALUE DUP1 ISZERO PUSH2 0x1B7 JUMPI PUSH0 PUSH0 REVERT JUMPDEST POP PUSH2 0x1C0 PUSH2 0x56D JUMP JUMPDEST PUSH1 0x40 MLOAD PUSH2 0x1CD SWAP2 SWAP1 PUSH2 0x2B3C JUMP JUMPDEST PUSH1 0x40 MLOAD DUP1 SWAP2 SUB SWAP1 RETURN JUMPDEST CALLVALUE DUP1 ISZERO PUSH2 0x1E1 JUMPI PUSH0 PUSH0 REVERT JUMPDEST POP PUSH2 0x1FC PUSH1 0x4 DUP1 CALLDATASIZE SUB DUP2 ADD SWAP1 PUSH2 0x1F7 SWAP2 SWAP1 PUSH2 0x297B JUMP JUMPDEST PUSH2 0x57B JUMP JUMPDEST PUSH1 0x40 MLOAD PUSH2 0x20E SWAP7 SWAP6 SWAP5 SWAP4 SWAP3 SWAP2 SWAP1 PUSH2 0x2B64 JUMP JUMPDEST PUSH1 0x40 MLOAD DUP1 SWAP2 SUB SWAP1 RETURN JUMPDEST CALLVALUE DUP1 ISZERO PUSH2 0x222 JUMPI PUSH0 PUSH0 REVERT JUMPDEST POP PUSH2 0x23D PUSH1 0x4 DUP1 CALLDATASIZE SUB DUP2 ADD SWAP1 PUSH2 0x238 SWAP2 SWAP1 PUSH2 0x2C04 JUMP JUMPDEST PUSH2 0x5B9 JUMP JUMPDEST STOP JUMPDEST ADDRESS PUSH20 0xFFFFFFFFFFFFFFFFFFFFFFFFFFFFFFFFFFFFFFFF AND CALLER PUSH20 0xFFFFFFFFFFFFFFFFFFFFFFFFFFFFFFFFFFFFFFFF AND EQ PUSH2 0x2AF JUMPI CALLER PUSH1 0x40 MLOAD PUSH32 0xA19DBF0000000000000000000000000000000000000000000000000000000000 DUP2 MSTORE PUSH1 0x4 ADD PUSH2 0x2A6 SWAP2 SWAP1 PUSH2 0x2B3C JUMP JUMPDEST PUSH1 0x40 MLOAD DUP1 SWAP2 SUB SWAP1 REVERT JUMPDEST PUSH2 0x2B8 DUP2 PUSH2 0x682 JUMP JUMPDEST POP JUMP JUMPDEST PUSH0 PUSH0 PUSH1 0x1 DUP6 PUSH2 0x100 ADD MLOAD MLOAD PUSH2 0x2D0 SWAP2 SWAP1 PUSH2 0x2C81 JUMP JUMPDEST PUSH8 0xFFFFFFFFFFFFFFFF DUP2 GT ISZERO PUSH2 0x2E9 JUMPI PUSH2 0x2E8 PUSH2 0x2381 JUMP JUMPDEST JUMPDEST PUSH1 0x40 MLOAD SWAP1 DUP1 DUP3 MSTORE DUP1 PUSH1 0x20 MUL PUSH1 0x20 ADD DUP3 ADD PUSH1 0x40 MSTORE DUP1 ISZERO PUSH2 0x317 JUMPI DUP2 PUSH1 0x20 ADD PUSH1 0x20 DUP3 MUL DUP1 CALLDATASIZE DUP4 CALLDATACOPY DUP1 DUP3 ADD SWAP2 POP POP SWAP1 POP JUMPDEST POP SWAP1 POP PUSH0 PUSH0 SWAP1 POP JUMPDEST DUP6 PUSH2 0x100 ADD MLOAD MLOAD DUP2 LT ISZERO PUSH2 0x3A7 JUMPI DUP6 PUSH2 0x100 ADD MLOAD DUP2 DUP2 MLOAD DUP2 LT PUSH2 0x345 JUMPI PUSH2 0x344 PUSH2 0x2CB4 JUMP JUMPDEST JUMPDEST PUSH1 0x20 MUL PUSH1 0x20 ADD ADD MLOAD DUP3 DUP3 DUP2 MLOAD DUP2 LT PUSH2 0x360 JUMPI PUSH2 0x35F PUSH2 0x2CB4 JUMP JUMPDEST JUMPDEST PUSH1 0x20 MUL PUSH1 0x20 ADD ADD SWAP1 PUSH20 0xFFFFFFFFFFFFFFFFFFFFFFFFFFFFFFFFFFFFFFFF AND SWAP1 DUP2 PUSH20 0xFFFFFFFFFFFFFFFFFFFFFFFFFFFFFFFFFFFFFFFF AND DUP2 MSTORE POP POP DUP1 DUP1 PUSH1 0x1 ADD SWAP2 POP POP PUSH2 0x31F JUMP JUMPDEST POP CALLER DUP2 DUP7 PUSH2 0x100 ADD MLOAD MLOAD DUP2 MLOAD DUP2 LT PUSH2 0x3C2 JUMPI PUSH2 0x3C1 PUSH2 0x2CB4 JUMP JUMPDEST JUMPDEST PUSH1 0x20 MUL PUSH1 0x20 ADD ADD SWAP1 PUSH20 0xFFFFFFFFFFFFFFFFFFFFFFFFFFFFFFFFFFFFFFFF AND SWAP1 DUP2 PUSH20 0xFFFFFFFFFFFFFFFFFFFFFFFFFFFFFFFFFFFFFFFF AND DUP2 MSTORE POP POP DUP1 DUP6 PUSH2 0x100 ADD DUP2 SWAP1 MSTORE POP PUSH0 PUSH2 0x412 DUP7 DUP7 DUP7 PUSH2 0x6C5 JUMP JUMPDEST POP SWAP1 POP DUP1 PUSH2 0x45B JUMPI DUP6 DUP6 DUP6 PUSH1 0x40 MLOAD PUSH32 0xF58CC8B500000000000000000000000000000000000000000000000000000000 DUP2 MSTORE PUSH1 0x4 ADD PUSH2 0x452 SWAP4 SWAP3 SWAP2 SWAP1 PUSH2 0x3094 JUMP JUMPDEST PUSH1 0x40 MLOAD DUP1 SWAP2 SUB SWAP1 REVERT JUMPDEST PUSH1 0x1 PUSH0 SHL SWAP3 POP POP POP SWAP4 SWAP3 POP POP POP JUMP JUMPDEST PUSH0 PUSH0 PUSH2 0x475 DUP6 PUSH2 0x8B5 JUMP JUMPDEST SWAP1 POP PUSH0 PUSH2 0x483 DUP3 DUP7 DUP7 PUSH2 0x6C5 JUMP JUMPDEST POP SWAP1 POP DUP1 PUSH2 0x498 JUMPI PUSH0 PUSH1 0xE0 SHL SWAP3 POP POP POP PUSH2 0x4A5 JUMP JUMPDEST PUSH4 0x20C13B0B PUSH1 0xE0 SHL SWAP3 POP POP POP JUMPDEST SWAP4 SWAP3 POP POP POP JUMP JUMPDEST ADDRESS PUSH20 0xFFFFFFFFFFFFFFFFFFFFFFFFFFFFFFFFFFFFFFFF AND CALLER PUSH20 0xFFFFFFFFFFFFFFFFFFFFFFFFFFFFFFFFFFFFFFFF AND EQ PUSH2 0x51C JUMPI CALLER PUSH1 0x40 MLOAD PUSH32 0xA19DBF0000000000000000000000000000000000000000000000000000000000 DUP2 MSTORE PUSH1 0x4 ADD PUSH2 0x513 SWAP2 SWAP1 PUSH2 0x2B3C JUMP JUMPDEST PUSH1 0x40 MLOAD DUP1 SWAP2 SUB SWAP1 REVERT JUMPDEST PUSH2 0x525 DUP2 PUSH2 0x8DE JUMP JUMPDEST POP JUMP JUMPDEST PUSH0 PUSH2 0x554 PUSH32 0xEA7157FA25E3AA17D0AE2D5280FA4E24D421C61842AA85E45194E1145AA72BF8 PUSH0 SHL PUSH2 0x97F JUMP JUMPDEST SWAP1 POP SWAP1 JUMP JUMPDEST PUSH0 PUSH0 PUSH2 0x564 DUP4 PUSH2 0x989 JUMP JUMPDEST SWAP2 POP SWAP2 POP SWAP2 POP SWAP2 JUMP JUMPDEST PUSH0 PUSH2 0x576 PUSH2 0x9DA JUMP JUMPDEST SWAP1 POP SWAP1 JUMP JUMPDEST PUSH0 PUSH0 PUSH0 PUSH0 PUSH0 PUSH0 PUSH2 0x58E DUP10 DUP10 DUP10 PUSH0 PUSH0 PUSH2 0x9E2 JUMP JUMPDEST DUP1 SWAP6 POP DUP2 SWAP7 POP DUP3 SWAP8 POP DUP4 SWAP10 POP DUP5 SWAP11 POP POP POP POP POP POP PUSH2 0x5AB DUP4 PUSH2 0xD1F JUMP JUMPDEST SWAP4 POP SWAP4 SWAP8 POP SWAP4 SWAP8 SWAP2 SWAP6 POP SWAP4 POP JUMP JUMPDEST ADDRESS PUSH20 0xFFFFFFFFFFFFFFFFFFFFFFFFFFFFFFFFFFFFFFFF AND CALLER PUSH20 0xFFFFFFFFFFFFFFFFFFFFFFFFFFFFFFFFFFFFFFFF AND EQ PUSH2 0x629 JUMPI CALLER PUSH1 0x40 MLOAD PUSH32 0xA19DBF0000000000000000000000000000000000000000000000000000000000 DUP2 MSTORE PUSH1 0x4 ADD PUSH2 0x620 SWAP2 SWAP1 PUSH2 0x2B3C JUMP JUMPDEST PUSH1 0x40 MLOAD DUP1 SWAP2 SUB SWAP1 REVERT JUMPDEST PUSH2 0x642 DUP4 DUP4 DUP4 PUSH12 0xFFFFFFFFFFFFFFFFFFFFFFFF AND PUSH2 0xD62 JUMP JUMPDEST PUSH32 0xEBF265ACFAC1C01DE588ED7EF49743B9C3CE8D6D1EDEAF510A1F5453228515B1 DUP4 DUP4 DUP4 PUSH1 0x40 MLOAD PUSH2 0x675 SWAP4 SWAP3 SWAP2 SWAP1 PUSH2 0x30DA JUMP JUMPDEST PUSH1 0x40 MLOAD DUP1 SWAP2 SUB SWAP1 LOG1 POP POP POP JUMP JUMPDEST PUSH2 0x68B DUP2 PUSH2 0xDC0 JUMP JUMPDEST PUSH32 0x310BA5F1D2ED074B51E2ECCD052A47AE9AB7C6B800D1FCA3DB3999D6A592CA03 DUP2 PUSH1 0x40 MLOAD PUSH2 0x6BA SWAP2 SWAP1 PUSH2 0x2B3C JUMP JUMPDEST PUSH1 0x40 MLOAD DUP1 SWAP2 SUB SWAP1 LOG1 POP JUMP JUMPDEST PUSH0 PUSH0 PUSH0 DUP5 DUP5 PUSH0 DUP2 DUP2 LT PUSH2 0x6DB JUMPI PUSH2 0x6DA PUSH2 0x2CB4 JUMP JUMPDEST JUMPDEST SWAP1 POP ADD CALLDATALOAD PUSH1 0xF8 SHR PUSH1 0xF8 SHL SWAP1 POP PUSH1 0x80 PUSH1 0xF8 SHL PUSH1 0x80 PUSH1 0xF8 SHL DUP3 AND PUSH31 0xFFFFFFFFFFFFFFFFFFFFFFFFFFFFFFFFFFFFFFFFFFFFFFFFFFFFFFFFFFFFFF NOT AND SUB PUSH2 0x834 JUMPI PUSH2 0x723 DUP7 PUSH2 0xDC6 JUMP JUMPDEST SWAP2 POP PUSH0 PUSH0 PUSH2 0x730 DUP5 PUSH2 0x989 JUMP JUMPDEST SWAP2 POP SWAP2 POP TIMESTAMP DUP2 GT PUSH2 0x77A JUMPI DUP4 DUP2 PUSH1 0x40 MLOAD PUSH32 0xF95B6AB700000000000000000000000000000000000000000000000000000000 DUP2 MSTORE PUSH1 0x4 ADD PUSH2 0x771 SWAP3 SWAP2 SWAP1 PUSH2 0x310F JUMP JUMPDEST PUSH1 0x40 MLOAD DUP1 SWAP2 SUB SWAP1 REVERT JUMPDEST PUSH0 PUSH20 0xFFFFFFFFFFFFFFFFFFFFFFFFFFFFFFFFFFFFFFFF AND DUP3 PUSH20 0xFFFFFFFFFFFFFFFFFFFFFFFFFFFFFFFFFFFFFFFF AND EQ ISZERO DUP1 ISZERO PUSH2 0x7E2 JUMPI POP CALLER PUSH20 0xFFFFFFFFFFFFFFFFFFFFFFFFFFFFFFFFFFFFFFFF AND DUP3 PUSH20 0xFFFFFFFFFFFFFFFFFFFFFFFFFFFFFFFFFFFFFFFF AND EQ ISZERO JUMPDEST ISZERO PUSH2 0x828 JUMPI DUP4 CALLER DUP4 PUSH1 0x40 MLOAD PUSH32 0x8945C31300000000000000000000000000000000000000000000000000000000 DUP2 MSTORE PUSH1 0x4 ADD PUSH2 0x81F SWAP4 SWAP3 SWAP2 SWAP1 PUSH2 0x3136 JUMP JUMPDEST PUSH1 0x40 MLOAD DUP1 SWAP2 SUB SWAP1 REVERT JUMPDEST PUSH1 0x1 SWAP5 POP POP POP POP PUSH2 0x8AD JUMP JUMPDEST PUSH0 PUSH0 PUSH0 PUSH2 0x844 DUP10 DUP10 DUP10 PUSH0 PUSH0 PUSH2 0x9E2 JUMP JUMPDEST SWAP1 POP DUP1 SWAP9 POP DUP2 SWAP5 POP DUP3 SWAP6 POP DUP4 SWAP7 POP POP POP POP POP DUP3 DUP3 LT ISZERO PUSH2 0x89D JUMPI DUP3 DUP3 PUSH1 0x40 MLOAD PUSH32 0xFD41FCBA00000000000000000000000000000000000000000000000000000000 DUP2 MSTORE PUSH1 0x4 ADD PUSH2 0x894 SWAP3 SWAP2 SWAP1 PUSH2 0x316B JUMP JUMPDEST PUSH1 0x40 MLOAD DUP1 SWAP2 SUB SWAP1 REVERT JUMPDEST PUSH2 0x8A6 DUP2 PUSH2 0xD1F JUMP JUMPDEST SWAP6 POP POP POP POP POP JUMPDEST SWAP4 POP SWAP4 SWAP2 POP POP JUMP JUMPDEST PUSH2 0x8BD PUSH2 0x2274 JUMP JUMPDEST PUSH1 0x3 DUP2 PUSH0 ADD SWAP1 PUSH1 0xFF AND SWAP1 DUP2 PUSH1 0xFF AND DUP2 MSTORE POP POP DUP2 DUP2 PUSH1 0xE0 ADD DUP2 DUP2 MSTORE POP POP SWAP2 SWAP1 POP JUMP JUMPDEST PUSH0 PUSH0 SHL DUP2 SUB PUSH2 0x919 JUMPI PUSH1 0x40 MLOAD PUSH32 0x4294D12700000000000000000000000000000000000000000000000000000000 DUP2 MSTORE PUSH1 0x4 ADD PUSH1 0x40 MLOAD DUP1 SWAP2 SUB SWAP1 REVERT JUMPDEST PUSH2 0x945 PUSH32 0xEA7157FA25E3AA17D0AE2D5280FA4E24D421C61842AA85E45194E1145AA72BF8 PUSH0 SHL DUP3 PUSH2 0xE16 JUMP JUMPDEST PUSH32 0x307ED6BD941EE9FC80F369C94AF5FA11E25BAB5102A6140191756C5474A30BFA DUP2 PUSH1 0x40 MLOAD PUSH2 0x974 SWAP2 SWAP1 PUSH2 0x2A03 JUMP JUMPDEST PUSH1 0x40 MLOAD DUP1 SWAP2 SUB SWAP1 LOG1 POP JUMP JUMPDEST PUSH0 DUP2 SLOAD SWAP1 POP SWAP2 SWAP1 POP JUMP JUMPDEST PUSH0 PUSH0 PUSH0 PUSH2 0x9B8 PUSH32 0xC852ADF5E97C2FC3B38F405671E91B7AF1697EF0287577F227EF10494C2A8E86 PUSH0 SHL DUP6 PUSH2 0xE1D JUMP JUMPDEST PUSH0 SHR SWAP1 POP PUSH1 0x60 DUP2 SWAP1 SHR DUP2 PUSH12 0xFFFFFFFFFFFFFFFFFFFFFFFF AND SWAP3 POP SWAP3 POP POP SWAP2 POP SWAP2 JUMP JUMPDEST PUSH0 ADDRESS SLOAD SWAP1 POP SWAP1 JUMP JUMPDEST PUSH0 PUSH0 PUSH0 PUSH0 PUSH0 PUSH0 PUSH0 PUSH2 0x9F3 DUP12 DUP12 PUSH2 0xE55 JUMP JUMPDEST SWAP2 POP PUSH1 0xFF AND SWAP2 POP PUSH2 0xA02 PUSH2 0x22BF JUMP JUMPDEST PUSH1 0x40 DUP1 DUP5 AND EQ DUP1 ISZERO PUSH2 0xA3F JUMPI POP PUSH0 PUSH20 0xFFFFFFFFFFFFFFFFFFFFFFFFFFFFFFFFFFFFFFFF AND DUP10 PUSH20 0xFFFFFFFFFFFFFFFFFFFFFFFFFFFFFFFFFFFFFFFF AND EQ JUMPDEST ISZERO PUSH2 0xB7B JUMPI PUSH2 0xA59 DUP3 DUP14 DUP14 PUSH2 0xE6B SWAP3 SWAP1 SWAP2 SWAP3 PUSH4 0xFFFFFFFF AND JUMP JUMPDEST DUP1 SWAP4 POP DUP2 SWAP11 POP POP POP DUP10 PUSH2 0xB7A JUMPI PUSH0 PUSH2 0xA7C DUP4 DUP15 DUP15 PUSH2 0xE9C SWAP3 SWAP1 SWAP2 SWAP3 PUSH4 0xFFFFFFFF AND JUMP JUMPDEST DUP2 PUSH3 0xFFFFFF AND SWAP2 POP DUP1 SWAP5 POP DUP2 SWAP3 POP POP POP PUSH0 DUP14 DUP14 DUP6 SWAP1 DUP5 DUP8 PUSH2 0xA9D SWAP2 SWAP1 PUSH2 0x2C81 JUMP JUMPDEST SWAP3 PUSH2 0xAAA SWAP4 SWAP3 SWAP2 SWAP1 PUSH2 0x319A JUMP JUMPDEST DUP1 DUP1 PUSH1 0x1F ADD PUSH1 0x20 DUP1 SWAP2 DIV MUL PUSH1 0x20 ADD PUSH1 0x40 MLOAD SWAP1 DUP2 ADD PUSH1 0x40 MSTORE DUP1 SWAP4 SWAP3 SWAP2 SWAP1 DUP2 DUP2 MSTORE PUSH1 0x20 ADD DUP4 DUP4 DUP1 DUP3 DUP5 CALLDATACOPY PUSH0 DUP2 DUP5 ADD MSTORE PUSH1 0x1F NOT PUSH1 0x1F DUP3 ADD AND SWAP1 POP DUP1 DUP4 ADD SWAP3 POP POP POP POP POP POP POP SWAP1 POP DUP11 PUSH20 0xFFFFFFFFFFFFFFFFFFFFFFFFFFFFFFFFFFFFFFFF AND PUSH4 0xCCCE3BC8 ADDRESS DUP4 PUSH1 0x40 MLOAD DUP4 PUSH4 0xFFFFFFFF AND PUSH1 0xE0 SHL DUP2 MSTORE PUSH1 0x4 ADD PUSH2 0xB29 SWAP3 SWAP2 SWAP1 PUSH2 0x320C JUMP JUMPDEST PUSH1 0x40 DUP1 MLOAD DUP1 DUP4 SUB DUP2 DUP7 GAS STATICCALL ISZERO DUP1 ISZERO PUSH2 0xB43 JUMPI RETURNDATASIZE PUSH0 PUSH0 RETURNDATACOPY RETURNDATASIZE PUSH0 REVERT JUMPDEST POP POP POP POP PUSH1 0x40 MLOAD RETURNDATASIZE PUSH1 0x1F NOT PUSH1 0x1F DUP3 ADD AND DUP3 ADD DUP1 PUSH1 0x40 MSTORE POP DUP2 ADD SWAP1 PUSH2 0xB67 SWAP2 SWAP1 PUSH2 0x32AF JUMP JUMPDEST SWAP3 POP DUP2 DUP5 PUSH2 0xB75 SWAP2 SWAP1 PUSH2 0x2C81 JUMP JUMPDEST SWAP4 POP POP POP JUMPDEST JUMPDEST PUSH1 0x1 DUP1 DUP5 AND SUB PUSH2 0xBB4 JUMPI PUSH2 0xBA2 DUP14 DUP11 DUP4 DUP16 DUP16 DUP8 SWAP1 DUP1 SWAP3 PUSH2 0xB9D SWAP4 SWAP3 SWAP2 SWAP1 PUSH2 0x319A JUMP JUMPDEST PUSH2 0xEBC JUMP JUMPDEST SWAP8 POP SWAP8 POP SWAP8 POP SWAP8 POP SWAP8 POP POP POP POP PUSH2 0xD12 JUMP JUMPDEST PUSH1 0x2 DUP1 DUP5 AND EQ DUP14 PUSH1 0x20 ADD SWAP1 ISZERO ISZERO SWAP1 DUP2 ISZERO ISZERO DUP2 MSTORE POP POP PUSH0 PUSH1 0x2 PUSH1 0x1C DUP6 AND SWAP1 SHR SWAP1 POP PUSH2 0xBF0 DUP4 DUP3 DUP16 DUP16 PUSH2 0x111E SWAP2 SWAP1 SWAP4 SWAP3 SWAP2 SWAP1 SWAP4 SWAP3 SWAP2 SWAP1 PUSH4 0xFFFFFFFF AND JUMP JUMPDEST DUP1 SWAP5 POP DUP2 SWAP8 POP POP POP POP PUSH0 PUSH1 0x1 PUSH1 0x5 PUSH1 0x20 DUP7 AND SWAP1 SHR PUSH2 0xC0E SWAP2 SWAP1 PUSH2 0x2C81 JUMP JUMPDEST SWAP1 POP PUSH2 0xC2C DUP4 DUP3 DUP16 DUP16 PUSH2 0x111E SWAP2 SWAP1 SWAP4 SWAP3 SWAP2 SWAP1 SWAP4 SWAP3 SWAP2 SWAP1 PUSH4 0xFFFFFFFF AND JUMP JUMPDEST DUP1 SWAP5 POP DUP2 SWAP11 POP POP POP POP PUSH2 0xC3E DUP14 PUSH2 0xDC6 JUMP JUMPDEST SWAP4 POP PUSH2 0xC5C DUP14 DUP6 DUP15 DUP15 DUP7 SWAP1 DUP1 SWAP3 PUSH2 0xC57 SWAP4 SWAP3 SWAP2 SWAP1 PUSH2 0x319A JUMP JUMPDEST PUSH2 0x114B JUMP JUMPDEST DUP1 SWAP8 POP DUP2 SWAP9 POP POP POP PUSH2 0xC70 DUP7 DUP10 PUSH0 SHL PUSH2 0x1CBF JUMP JUMPDEST SWAP6 POP PUSH2 0xC7E DUP7 DUP7 PUSH0 SHL PUSH2 0x1CBF JUMP JUMPDEST SWAP6 POP PUSH2 0xCA2 DUP7 DUP11 PUSH20 0xFFFFFFFFFFFFFFFFFFFFFFFFFFFFFFFFFFFFFFFF AND PUSH0 SHL PUSH2 0x1CBF JUMP JUMPDEST SWAP6 POP PUSH0 PUSH0 SHL DUP2 PUSH0 ADD MLOAD EQ ISZERO DUP1 ISZERO PUSH2 0xCBC JUMPI POP DUP6 DUP2 PUSH0 ADD MLOAD EQ ISZERO JUMPDEST DUP1 ISZERO PUSH2 0xCCC JUMPI POP DUP1 PUSH1 0x20 ADD MLOAD DUP6 GT ISZERO JUMPDEST ISZERO PUSH2 0xD0E JUMPI DUP1 PUSH1 0x40 MLOAD PUSH32 0xCCBB534F00000000000000000000000000000000000000000000000000000000 DUP2 MSTORE PUSH1 0x4 ADD PUSH2 0xD05 SWAP2 SWAP1 PUSH2 0x3307 JUMP JUMPDEST PUSH1 0x40 MLOAD DUP1 SWAP2 SUB SWAP1 REVERT JUMPDEST POP POP POP JUMPDEST SWAP6 POP SWAP6 POP SWAP6 POP SWAP6 POP SWAP6 SWAP1 POP JUMP JUMPDEST PUSH0 PUSH0 PUSH0 SHL DUP3 EQ ISZERO DUP1 ISZERO PUSH2 0xD5B JUMPI POP PUSH2 0xD58 PUSH32 0xEA7157FA25E3AA17D0AE2D5280FA4E24D421C61842AA85E45194E1145AA72BF8 PUSH0 SHL PUSH2 0x97F JUMP JUMPDEST DUP3 EQ JUMPDEST SWAP1 POP SWAP2 SWAP1 POP JUMP JUMPDEST PUSH2 0xDBB PUSH32 0xC852ADF5E97C2FC3B38F405671E91B7AF1697EF0287577F227EF10494C2A8E86 PUSH0 SHL DUP5 PUSH12 0xFFFFFFFFFFFFFFFFFFFFFFFF DUP5 AND PUSH1 0x60 DUP7 PUSH20 0xFFFFFFFFFFFFFFFFFFFFFFFFFFFFFFFFFFFFFFFF AND SWAP1 SHL OR PUSH0 SHL PUSH2 0x1CD3 JUMP JUMPDEST POP POP POP JUMP JUMPDEST DUP1 ADDRESS SSTORE POP JUMP JUMPDEST PUSH0 PUSH0 PUSH2 0xDD6 DUP4 PUSH1 0x20 ADD MLOAD ADDRESS PUSH2 0x1D08 JUMP JUMPDEST SWAP1 POP PUSH0 PUSH2 0xDE2 DUP5 PUSH2 0x1DAC JUMP JUMPDEST SWAP1 POP DUP2 DUP2 PUSH1 0x40 MLOAD PUSH1 0x20 ADD PUSH2 0xDF7 SWAP3 SWAP2 SWAP1 PUSH2 0x3394 JUMP JUMPDEST PUSH1 0x40 MLOAD PUSH1 0x20 DUP2 DUP4 SUB SUB DUP2 MSTORE SWAP1 PUSH1 0x40 MSTORE DUP1 MLOAD SWAP1 PUSH1 0x20 ADD KECCAK256 SWAP3 POP POP POP SWAP2 SWAP1 POP JUMP JUMPDEST DUP1 DUP3 SSTORE POP POP JUMP JUMPDEST PUSH0 PUSH0 DUP4 DUP4 PUSH1 0x40 MLOAD PUSH1 0x20 ADD PUSH2 0xE32 SWAP3 SWAP2 SWAP1 PUSH2 0x33CA JUMP JUMPDEST PUSH1 0x40 MLOAD PUSH1 0x20 DUP2 DUP4 SUB SUB DUP2 MSTORE SWAP1 PUSH1 0x40 MSTORE DUP1 MLOAD SWAP1 PUSH1 0x20 ADD KECCAK256 SWAP1 POP DUP1 SLOAD SWAP2 POP POP SWAP3 SWAP2 POP POP JUMP JUMPDEST PUSH0 PUSH0 DUP4 CALLDATALOAD DUP1 PUSH1 0xF8 SHR SWAP3 POP PUSH1 0x1 SWAP2 POP POP SWAP3 POP SWAP3 SWAP1 POP JUMP JUMPDEST PUSH0 PUSH0 DUP5 DUP4 ADD CALLDATALOAD PUSH20 0xFFFFFFFFFFFFFFFFFFFFFFFFFFFFFFFFFFFFFFFF DUP2 PUSH1 0x60 SHR AND SWAP3 POP PUSH1 0x14 DUP5 ADD SWAP2 POP POP SWAP4 POP SWAP4 SWAP2 POP POP JUMP JUMPDEST PUSH0 PUSH0 DUP5 DUP4 ADD CALLDATALOAD PUSH3 0xFFFFFF DUP2 PUSH1 0xE8 SHR AND SWAP3 POP PUSH1 0x3 DUP5 ADD SWAP2 POP POP SWAP4 POP SWAP4 SWAP2 POP POP JUMP JUMPDEST PUSH0 PUSH0 PUSH0 PUSH0 PUSH0 PUSH2 0xEC9 PUSH2 0x2274 JUMP JUMPDEST PUSH1 0x2 DUP2 PUSH0 ADD SWAP1 PUSH1 0xFF AND SWAP1 DUP2 PUSH1 0xFF AND DUP2 MSTORE POP POP PUSH0 PUSH0 PUSH32 0xFFFFFFFFFFFFFFFFFFFFFFFFFFFFFFFFFFFFFFFFFFFFFFFFFFFFFFFFFFFFFFFF SWAP1 POP JUMPDEST DUP10 DUP10 SWAP1 POP DUP3 LT ISZERO PUSH2 0x10B3 JUMPI PUSH0 PUSH0 PUSH2 0xF23 DUP5 DUP14 DUP14 PUSH2 0xE9C SWAP3 SWAP1 SWAP2 SWAP3 PUSH4 0xFFFFFFFF AND JUMP JUMPDEST DUP2 PUSH3 0xFFFFFF AND SWAP2 POP DUP1 SWAP6 POP DUP2 SWAP3 POP POP POP DUP4 DUP2 PUSH2 0xF3F SWAP2 SWAP1 PUSH2 0x2C81 JUMP JUMPDEST SWAP2 POP POP PUSH0 DUP12 DUP12 SWAP1 POP DUP3 EQ PUSH2 0xF53 JUMPI PUSH0 PUSH2 0xF55 JUMP JUMPDEST DUP14 JUMPDEST SWAP1 POP PUSH32 0xFFFFFFFFFFFFFFFFFFFFFFFFFFFFFFFFFFFFFFFFFFFFFFFFFFFFFFFFFFFFFFFF DUP4 SUB PUSH2 0xFB5 JUMPI PUSH2 0xF9C DUP16 DUP14 DUP14 DUP8 SWAP1 DUP7 SWAP3 PUSH2 0xF94 SWAP4 SWAP3 SWAP2 SWAP1 PUSH2 0x319A JUMP JUMPDEST PUSH1 0x1 DUP6 PUSH2 0x9E2 JUMP JUMPDEST DUP1 SWAP11 POP DUP2 SWAP12 POP DUP3 SWAP13 POP DUP4 SWAP14 POP DUP5 SWAP15 POP POP POP POP POP POP PUSH2 0xFE5 JUMP JUMPDEST PUSH2 0xFD3 DUP6 DUP14 DUP14 DUP8 SWAP1 DUP7 SWAP3 PUSH2 0xFCB SWAP4 SWAP3 SWAP2 SWAP1 PUSH2 0x319A JUMP JUMPDEST PUSH1 0x1 DUP6 PUSH2 0x9E2 JUMP JUMPDEST POP DUP1 SWAP11 POP DUP2 SWAP12 POP DUP3 SWAP13 POP DUP4 SWAP14 POP POP POP POP POP JUMPDEST DUP10 DUP10 LT ISZERO PUSH2 0x1040 JUMPI DUP12 DUP12 DUP6 SWAP1 DUP5 SWAP3 PUSH2 0xFFF SWAP4 SWAP3 SWAP2 SWAP1 PUSH2 0x319A JUMP JUMPDEST DUP12 DUP12 PUSH1 0x40 MLOAD PUSH32 0xB006ABA000000000000000000000000000000000000000000000000000000000 DUP2 MSTORE PUSH1 0x4 ADD PUSH2 0x1037 SWAP5 SWAP4 SWAP3 SWAP2 SWAP1 PUSH2 0x33F1 JUMP JUMPDEST PUSH1 0x40 MLOAD DUP1 SWAP2 SUB SWAP1 REVERT JUMPDEST DUP2 SWAP4 POP DUP8 DUP14 PUSH0 ADD MLOAD SUB PUSH2 0x1059 JUMPI PUSH0 PUSH0 SHL DUP14 PUSH0 ADD DUP2 DUP2 MSTORE POP POP JUMPDEST DUP3 DUP8 LT PUSH2 0x109F JUMPI DUP7 DUP4 PUSH1 0x40 MLOAD PUSH32 0x37DAF62B00000000000000000000000000000000000000000000000000000000 DUP2 MSTORE PUSH1 0x4 ADD PUSH2 0x1096 SWAP3 SWAP2 SWAP1 PUSH2 0x316B JUMP JUMPDEST PUSH1 0x40 MLOAD DUP1 SWAP2 SUB SWAP1 REVERT JUMPDEST DUP8 DUP6 PUSH1 0xC0 ADD DUP2 DUP2 MSTORE POP POP DUP7 SWAP3 POP POP POP PUSH2 0xF01 JUMP JUMPDEST PUSH0 PUSH0 SHL DUP12 PUSH0 ADD MLOAD EQ ISZERO DUP1 ISZERO PUSH2 0x10CC JUMPI POP DUP11 PUSH1 0x20 ADD MLOAD DUP6 GT ISZERO JUMPDEST ISZERO PUSH2 0x110E JUMPI DUP11 PUSH1 0x40 MLOAD PUSH32 0xCCBB534F00000000000000000000000000000000000000000000000000000000 DUP2 MSTORE PUSH1 0x4 ADD PUSH2 0x1105 SWAP2 SWAP1 PUSH2 0x3307 JUMP JUMPDEST PUSH1 0x40 MLOAD DUP1 SWAP2 SUB SWAP1 REVERT JUMPDEST POP POP POP SWAP6 POP SWAP6 POP SWAP6 POP SWAP6 POP SWAP6 SWAP1 POP JUMP JUMPDEST PUSH0 PUSH0 DUP6 DUP5 ADD CALLDATALOAD PUSH1 0x8 DUP5 MUL PUSH2 0x100 SUB PUSH1 0x1 DUP1 DUP7 PUSH1 0x8 MUL SHL SUB DUP3 DUP3 SHR AND SWAP4 POP DUP5 DUP7 ADD SWAP3 POP POP POP SWAP5 POP SWAP5 SWAP3 POP POP POP JUMP JUMPDEST PUSH0 PUSH0 PUSH0 JUMPDEST DUP5 DUP5 SWAP1 POP DUP2 LT ISZERO PUSH2 0x1CB5 JUMPI PUSH0 PUSH2 0x1170 DUP3 DUP8 DUP8 PUSH2 0x1FE0 SWAP3 SWAP1 SWAP2 SWAP3 PUSH4 0xFFFFFFFF AND JUMP JUMPDEST DUP2 PUSH1 0xFF AND SWAP2 POP DUP1 SWAP4 POP DUP2 SWAP3 POP POP POP PUSH0 PUSH1 0x4 PUSH1 0xF0 DUP4 AND SWAP1 SHR SWAP1 POP PUSH0 DUP2 SUB PUSH2 0x12C8 JUMPI PUSH0 PUSH1 0xF DUP4 AND SWAP1 POP PUSH0 DUP2 PUSH1 0xFF AND SUB PUSH2 0x11BF JUMPI PUSH2 0x11B6 DUP5 DUP10 DUP10 PUSH2 0x1FE0 SWAP3 SWAP1 SWAP2 SWAP3 PUSH4 0xFFFFFFFF AND JUMP JUMPDEST DUP1 SWAP6 POP DUP2 SWAP3 POP POP POP JUMPDEST PUSH0 PUSH0 PUSH2 0x11D6 DUP7 DUP12 DUP12 PUSH2 0x1FFB SWAP3 SWAP1 SWAP2 SWAP3 PUSH4 0xFFFFFFFF AND JUMP JUMPDEST DUP1 SWAP8 POP DUP2 SWAP4 POP POP POP PUSH2 0x11F3 DUP7 DUP12 DUP12 PUSH2 0x1FFB SWAP3 SWAP1 SWAP2 SWAP3 PUSH4 0xFFFFFFFF AND JUMP JUMPDEST DUP1 SWAP8 POP DUP2 SWAP3 POP POP POP PUSH0 PUSH1 0xFF DUP3 SWAP1 SHR PUSH0 SHR SWAP1 POP PUSH0 PUSH32 0x7FFFFFFFFFFFFFFFFFFFFFFFFFFFFFFFFFFFFFFFFFFFFFFFFFFFFFFFFFFFFFFF DUP4 PUSH0 SHR AND PUSH0 SHL SWAP1 POP PUSH0 PUSH1 0x1B DUP4 ADD SWAP1 POP PUSH0 PUSH1 0x1 DUP16 DUP4 DUP9 DUP7 PUSH1 0x40 MLOAD PUSH0 DUP2 MSTORE PUSH1 0x20 ADD PUSH1 0x40 MSTORE PUSH1 0x40 MLOAD PUSH2 0x1259 SWAP5 SWAP4 SWAP3 SWAP2 SWAP1 PUSH2 0x343E JUMP JUMPDEST PUSH1 0x20 PUSH1 0x40 MLOAD PUSH1 0x20 DUP2 SUB SWAP1 DUP1 DUP5 SUB SWAP1 DUP6 GAS STATICCALL ISZERO DUP1 ISZERO PUSH2 0x1279 JUMPI RETURNDATASIZE PUSH0 PUSH0 RETURNDATACOPY RETURNDATASIZE PUSH0 REVERT JUMPDEST POP POP POP PUSH1 0x20 PUSH1 0x40 MLOAD SUB MLOAD SWAP1 POP DUP7 PUSH1 0xFF AND DUP13 ADD SWAP12 POP PUSH0 PUSH2 0x129B DUP3 DUP10 PUSH1 0xFF AND PUSH2 0x2011 JUMP JUMPDEST SWAP1 POP PUSH0 PUSH0 SHL DUP13 SUB PUSH2 0x12AC JUMPI DUP1 PUSH2 0x12B7 JUMP JUMPDEST PUSH2 0x12B6 DUP13 DUP3 PUSH2 0x1CBF JUMP JUMPDEST JUMPDEST SWAP12 POP POP POP POP POP POP POP POP POP POP POP PUSH2 0x114F JUMP JUMPDEST PUSH1 0x1 DUP2 SUB PUSH2 0x1353 JUMPI PUSH0 PUSH1 0xF DUP4 AND SWAP1 POP PUSH0 DUP2 PUSH1 0xFF AND SUB PUSH2 0x12FF JUMPI PUSH2 0x12F6 DUP5 DUP10 DUP10 PUSH2 0x1FE0 SWAP3 SWAP1 SWAP2 SWAP3 PUSH4 0xFFFFFFFF AND JUMP JUMPDEST DUP1 SWAP6 POP DUP2 SWAP3 POP POP POP JUMPDEST PUSH0 PUSH2 0x1315 DUP6 DUP11 DUP11 PUSH2 0xE6B SWAP3 SWAP1 SWAP2 SWAP3 PUSH4 0xFFFFFFFF AND JUMP JUMPDEST DUP1 SWAP7 POP DUP2 SWAP3 POP POP POP PUSH0 PUSH2 0x132B DUP3 DUP5 PUSH1 0xFF AND PUSH2 0x2011 JUMP JUMPDEST SWAP1 POP PUSH0 PUSH0 SHL DUP8 SUB PUSH2 0x133C JUMPI DUP1 PUSH2 0x1347 JUMP JUMPDEST PUSH2 0x1346 DUP8 DUP3 PUSH2 0x1CBF JUMP JUMPDEST JUMPDEST SWAP7 POP POP POP POP POP POP PUSH2 0x114F JUMP JUMPDEST PUSH1 0x2 DUP2 SUB PUSH2 0x1552 JUMPI PUSH0 PUSH1 0x3 DUP4 AND SWAP1 POP PUSH0 DUP2 PUSH1 0xFF AND SUB PUSH2 0x138A JUMPI PUSH2 0x1381 DUP5 DUP10 DUP10 PUSH2 0x1FE0 SWAP3 SWAP1 SWAP2 SWAP3 PUSH4 0xFFFFFFFF AND JUMP JUMPDEST DUP1 SWAP6 POP DUP2 SWAP3 POP POP POP JUMPDEST PUSH0 PUSH2 0x13A0 DUP6 DUP11 DUP11 PUSH2 0xE6B SWAP3 SWAP1 SWAP2 SWAP3 PUSH4 0xFFFFFFFF AND JUMP JUMPDEST DUP1 SWAP7 POP DUP2 SWAP3 POP POP POP PUSH0 PUSH1 0x2 PUSH1 0xC DUP7 AND PUSH1 0xFF AND SWAP1 SHR PUSH1 0xFF AND SWAP1 POP PUSH0 PUSH2 0x13D6 DUP8 DUP4 DUP14 DUP14 PUSH2 0x111E SWAP2 SWAP1 SWAP4 SWAP3 SWAP2 SWAP1 SWAP4 SWAP3 SWAP2 SWAP1 PUSH4 0xFFFFFFFF AND JUMP JUMPDEST DUP1 SWAP9 POP DUP2 SWAP3 POP POP POP PUSH0 DUP2 DUP9 ADD SWAP1 POP PUSH4 0x20C13B0B PUSH1 0xE0 SHL PUSH28 0xFFFFFFFFFFFFFFFFFFFFFFFFFFFFFFFFFFFFFFFFFFFFFFFFFFFFFFFF NOT AND DUP5 PUSH20 0xFFFFFFFFFFFFFFFFFFFFFFFFFFFFFFFFFFFFFFFF AND PUSH4 0x1626BA7E DUP16 DUP16 DUP16 DUP14 SWAP1 DUP8 SWAP3 PUSH2 0x143A SWAP4 SWAP3 SWAP2 SWAP1 PUSH2 0x319A JUMP JUMPDEST PUSH1 0x40 MLOAD DUP5 PUSH4 0xFFFFFFFF AND PUSH1 0xE0 SHL DUP2 MSTORE PUSH1 0x4 ADD PUSH2 0x1458 SWAP4 SWAP3 SWAP2 SWAP1 PUSH2 0x3481 JUMP JUMPDEST PUSH1 0x20 PUSH1 0x40 MLOAD DUP1 DUP4 SUB DUP2 DUP7 GAS STATICCALL ISZERO DUP1 ISZERO PUSH2 0x1473 JUMPI RETURNDATASIZE PUSH0 PUSH0 RETURNDATACOPY RETURNDATASIZE PUSH0 REVERT JUMPDEST POP POP POP POP PUSH1 0x40 MLOAD RETURNDATASIZE PUSH1 0x1F NOT PUSH1 0x1F DUP3 ADD AND DUP3 ADD DUP1 PUSH1 0x40 MSTORE POP DUP2 ADD SWAP1 PUSH2 0x1497 SWAP2 SWAP1 PUSH2 0x34DB JUMP JUMPDEST PUSH28 0xFFFFFFFFFFFFFFFFFFFFFFFFFFFFFFFFFFFFFFFFFFFFFFFFFFFFFFFF NOT AND EQ PUSH2 0x150E JUMPI DUP13 DUP5 DUP14 DUP14 DUP12 SWAP1 DUP6 SWAP3 PUSH2 0x14CF SWAP4 SWAP3 SWAP2 SWAP1 PUSH2 0x319A JUMP JUMPDEST PUSH1 0x40 MLOAD PUSH32 0xB2FED7AE00000000000000000000000000000000000000000000000000000000 DUP2 MSTORE PUSH1 0x4 ADD PUSH2 0x1505 SWAP5 SWAP4 SWAP3 SWAP2 SWAP1 PUSH2 0x3506 JUMP JUMPDEST PUSH1 0x40 MLOAD DUP1 SWAP2 SUB SWAP1 REVERT JUMPDEST DUP1 SWAP8 POP DUP5 PUSH1 0xFF AND DUP11 ADD SWAP10 POP PUSH0 PUSH2 0x1527 DUP6 DUP8 PUSH1 0xFF AND PUSH2 0x2011 JUMP JUMPDEST SWAP1 POP PUSH0 PUSH0 SHL DUP11 SUB PUSH2 0x1538 JUMPI DUP1 PUSH2 0x1543 JUMP JUMPDEST PUSH2 0x1542 DUP11 DUP3 PUSH2 0x1CBF JUMP JUMPDEST JUMPDEST SWAP10 POP POP POP POP POP POP POP POP POP PUSH2 0x114F JUMP JUMPDEST PUSH1 0x3 DUP2 SUB PUSH2 0x159C JUMPI PUSH0 PUSH2 0x1570 DUP5 DUP10 DUP10 PUSH2 0x1FFB SWAP3 SWAP1 SWAP2 SWAP3 PUSH4 0xFFFFFFFF AND JUMP JUMPDEST DUP1 SWAP6 POP DUP2 SWAP3 POP POP POP PUSH0 PUSH0 SHL DUP6 SUB PUSH2 0x1587 JUMPI DUP1 PUSH2 0x1592 JUMP JUMPDEST PUSH2 0x1591 DUP6 DUP3 PUSH2 0x1CBF JUMP JUMPDEST JUMPDEST SWAP5 POP POP POP POP PUSH2 0x114F JUMP JUMPDEST PUSH1 0x4 DUP2 SUB PUSH2 0x161B JUMPI PUSH0 PUSH1 0xF DUP4 AND PUSH1 0xFF AND SWAP1 POP PUSH0 PUSH2 0x15CB DUP6 DUP4 DUP12 DUP12 PUSH2 0x111E SWAP2 SWAP1 SWAP4 SWAP3 SWAP2 SWAP1 SWAP4 SWAP3 SWAP2 SWAP1 PUSH4 0xFFFFFFFF AND JUMP JUMPDEST DUP1 SWAP7 POP DUP2 SWAP3 POP POP POP PUSH0 DUP2 DUP7 ADD SWAP1 POP PUSH0 PUSH0 PUSH2 0x15F7 DUP15 DUP15 DUP15 DUP15 DUP13 SWAP1 DUP9 SWAP3 PUSH2 0x15F2 SWAP4 SWAP3 SWAP2 SWAP1 PUSH2 0x319A JUMP JUMPDEST PUSH2 0x114B JUMP JUMPDEST SWAP2 POP SWAP2 POP DUP3 SWAP8 POP DUP2 DUP11 ADD SWAP10 POP PUSH2 0x160D DUP10 DUP3 PUSH2 0x1CBF JUMP JUMPDEST SWAP9 POP POP POP POP POP POP POP POP PUSH2 0x114F JUMP JUMPDEST PUSH1 0x6 DUP2 SUB PUSH2 0x172B JUMPI PUSH0 PUSH1 0x2 PUSH1 0xC DUP5 AND PUSH1 0xFF AND SWAP1 SHR PUSH1 0xFF AND SWAP1 POP PUSH0 DUP2 SUB PUSH2 0x165F JUMPI PUSH2 0x1650 DUP5 DUP10 DUP10 PUSH2 0x1FE0 SWAP3 SWAP1 SWAP2 SWAP3 PUSH4 0xFFFFFFFF AND JUMP JUMPDEST DUP2 PUSH1 0xFF AND SWAP2 POP DUP1 SWAP6 POP DUP2 SWAP3 POP POP POP JUMPDEST PUSH0 PUSH1 0x3 DUP5 AND PUSH1 0xFF AND SWAP1 POP PUSH0 DUP2 SUB PUSH2 0x1695 JUMPI PUSH2 0x1685 DUP6 DUP11 DUP11 PUSH2 0x2043 SWAP3 SWAP1 SWAP2 SWAP3 PUSH4 0xFFFFFFFF AND JUMP JUMPDEST DUP2 PUSH2 0xFFFF AND SWAP2 POP DUP1 SWAP7 POP DUP2 SWAP3 POP POP POP JUMPDEST PUSH0 PUSH2 0x16AB DUP7 DUP12 DUP12 PUSH2 0xE9C SWAP3 SWAP1 SWAP2 SWAP3 PUSH4 0xFFFFFFFF AND JUMP JUMPDEST DUP2 PUSH3 0xFFFFFF AND SWAP2 POP DUP1 SWAP8 POP DUP2 SWAP3 POP POP POP PUSH0 DUP2 DUP8 ADD SWAP1 POP PUSH0 PUSH0 PUSH2 0x16DF DUP16 DUP16 DUP16 DUP16 DUP14 SWAP1 DUP9 SWAP3 PUSH2 0x16DA SWAP4 SWAP3 SWAP2 SWAP1 PUSH2 0x319A JUMP JUMPDEST PUSH2 0x114B JUMP JUMPDEST SWAP2 POP SWAP2 POP DUP3 SWAP9 POP DUP5 DUP3 LT PUSH2 0x16F3 JUMPI DUP6 DUP12 ADD SWAP11 POP JUMPDEST PUSH0 PUSH2 0x16FF DUP3 DUP8 DUP10 PUSH2 0x2062 JUMP JUMPDEST SWAP1 POP PUSH0 PUSH0 SHL DUP12 SUB PUSH2 0x1710 JUMPI DUP1 PUSH2 0x171B JUMP JUMPDEST PUSH2 0x171A DUP12 DUP3 PUSH2 0x1CBF JUMP JUMPDEST JUMPDEST SWAP11 POP POP POP POP POP POP POP POP POP POP PUSH2 0x114F JUMP JUMPDEST PUSH1 0x5 DUP2 SUB PUSH2 0x17AD JUMPI PUSH0 PUSH2 0x1749 DUP5 DUP10 DUP10 PUSH2 0x1FFB SWAP3 SWAP1 SWAP2 SWAP3 PUSH4 0xFFFFFFFF AND JUMP JUMPDEST DUP1 SWAP6 POP DUP2 SWAP3 POP POP POP DUP9 DUP2 SUB PUSH2 0x177C JUMPI PUSH32 0xFFFFFFFFFFFFFFFFFFFFFFFFFFFFFFFFFFFFFFFFFFFFFFFFFFFFFFFFFFFFFFFF SWAP6 POP JUMPDEST PUSH0 PUSH2 0x1786 DUP3 PUSH2 0x2097 JUMP JUMPDEST SWAP1 POP PUSH0 PUSH0 SHL DUP7 SUB PUSH2 0x1797 JUMPI DUP1 PUSH2 0x17A2 JUMP JUMPDEST PUSH2 0x17A1 DUP7 DUP3 PUSH2 0x1CBF JUMP JUMPDEST JUMPDEST SWAP6 POP POP POP POP POP PUSH2 0x114F JUMP JUMPDEST PUSH1 0x7 DUP2 SUB PUSH2 0x1913 JUMPI PUSH0 PUSH1 0xF DUP4 AND SWAP1 POP PUSH0 DUP2 PUSH1 0xFF AND SUB PUSH2 0x17E4 JUMPI PUSH2 0x17DB DUP5 DUP10 DUP10 PUSH2 0x1FE0 SWAP3 SWAP1 SWAP2 SWAP3 PUSH4 0xFFFFFFFF AND JUMP JUMPDEST DUP1 SWAP6 POP DUP2 SWAP3 POP POP POP JUMPDEST PUSH0 PUSH0 PUSH2 0x17FB DUP7 DUP12 DUP12 PUSH2 0x1FFB SWAP3 SWAP1 SWAP2 SWAP3 PUSH4 0xFFFFFFFF AND JUMP JUMPDEST DUP1 SWAP8 POP DUP2 SWAP4 POP POP POP PUSH2 0x1818 DUP7 DUP12 DUP12 PUSH2 0x1FFB SWAP3 SWAP1 SWAP2 SWAP3 PUSH4 0xFFFFFFFF AND JUMP JUMPDEST DUP1 SWAP8 POP DUP2 SWAP3 POP POP POP PUSH0 PUSH1 0xFF DUP3 SWAP1 SHR PUSH0 SHR SWAP1 POP PUSH0 PUSH32 0x7FFFFFFFFFFFFFFFFFFFFFFFFFFFFFFFFFFFFFFFFFFFFFFFFFFFFFFFFFFFFFFF DUP4 PUSH0 SHR AND PUSH0 SHL SWAP1 POP PUSH0 PUSH1 0x1B DUP4 ADD SWAP1 POP PUSH0 PUSH1 0x1 DUP16 PUSH1 0x40 MLOAD PUSH1 0x20 ADD PUSH2 0x186F SWAP2 SWAP1 PUSH2 0x358E JUMP JUMPDEST PUSH1 0x40 MLOAD PUSH1 0x20 DUP2 DUP4 SUB SUB DUP2 MSTORE SWAP1 PUSH1 0x40 MSTORE DUP1 MLOAD SWAP1 PUSH1 0x20 ADD KECCAK256 DUP4 DUP9 DUP7 PUSH1 0x40 MLOAD PUSH0 DUP2 MSTORE PUSH1 0x20 ADD PUSH1 0x40 MSTORE PUSH1 0x40 MLOAD PUSH2 0x18A4 SWAP5 SWAP4 SWAP3 SWAP2 SWAP1 PUSH2 0x343E JUMP JUMPDEST PUSH1 0x20 PUSH1 0x40 MLOAD PUSH1 0x20 DUP2 SUB SWAP1 DUP1 DUP5 SUB SWAP1 DUP6 GAS STATICCALL ISZERO DUP1 ISZERO PUSH2 0x18C4 JUMPI RETURNDATASIZE PUSH0 PUSH0 RETURNDATACOPY RETURNDATASIZE PUSH0 REVERT JUMPDEST POP POP POP PUSH1 0x20 PUSH1 0x40 MLOAD SUB MLOAD SWAP1 POP DUP7 PUSH1 0xFF AND DUP13 ADD SWAP12 POP PUSH0 PUSH2 0x18E6 DUP3 DUP10 PUSH1 0xFF AND PUSH2 0x2011 JUMP JUMPDEST SWAP1 POP PUSH0 PUSH0 SHL DUP13 SUB PUSH2 0x18F7 JUMPI DUP1 PUSH2 0x1902 JUMP JUMPDEST PUSH2 0x1901 DUP13 DUP3 PUSH2 0x1CBF JUMP JUMPDEST JUMPDEST SWAP12 POP POP POP POP POP POP POP POP POP POP POP PUSH2 0x114F JUMP JUMPDEST PUSH1 0x8 DUP2 SUB PUSH2 0x19AC JUMPI PUSH0 PUSH2 0x1931 DUP5 DUP10 DUP10 PUSH2 0x1FFB SWAP3 SWAP1 SWAP2 SWAP3 PUSH4 0xFFFFFFFF AND JUMP JUMPDEST DUP1 SWAP6 POP DUP2 SWAP3 POP POP POP PUSH0 PUSH2 0x194D PUSH0 DUP13 PUSH2 0x20C6 SWAP1 SWAP2 SWAP1 PUSH4 0xFFFFFFFF AND JUMP JUMPDEST SWAP1 POP DUP1 DUP3 SUB PUSH2 0x197A JUMPI PUSH32 0xFFFFFFFFFFFFFFFFFFFFFFFFFFFFFFFFFFFFFFFFFFFFFFFFFFFFFFFFFFFFFFFF SWAP7 POP JUMPDEST PUSH0 PUSH2 0x1984 DUP4 PUSH2 0x2117 JUMP JUMPDEST SWAP1 POP PUSH0 PUSH0 SHL DUP8 SUB PUSH2 0x1995 JUMPI DUP1 PUSH2 0x19A0 JUMP JUMPDEST PUSH2 0x199F DUP8 DUP3 PUSH2 0x1CBF JUMP JUMPDEST JUMPDEST SWAP7 POP POP POP POP POP POP PUSH2 0x114F JUMP JUMPDEST PUSH1 0x9 DUP2 SUB PUSH2 0x1B12 JUMPI PUSH0 PUSH1 0x3 DUP4 AND SWAP1 POP PUSH0 DUP2 PUSH1 0xFF AND SUB PUSH2 0x19E3 JUMPI PUSH2 0x19DA DUP5 DUP10 DUP10 PUSH2 0x1FE0 SWAP3 SWAP1 SWAP2 SWAP3 PUSH4 0xFFFFFFFF AND JUMP JUMPDEST DUP1 SWAP6 POP DUP2 SWAP3 POP POP POP JUMPDEST PUSH0 PUSH2 0x19F9 DUP6 DUP11 DUP11 PUSH2 0xE6B SWAP3 SWAP1 SWAP2 SWAP3 PUSH4 0xFFFFFFFF AND JUMP JUMPDEST DUP1 SWAP7 POP DUP2 SWAP3 POP POP POP PUSH0 PUSH0 PUSH1 0x2 PUSH1 0xC DUP8 AND PUSH1 0xFF AND SWAP1 SHR PUSH1 0xFF AND SWAP1 POP PUSH2 0x1A2F DUP8 DUP3 DUP14 DUP14 PUSH2 0x111E SWAP2 SWAP1 SWAP4 SWAP3 SWAP2 SWAP1 SWAP4 SWAP3 SWAP2 SWAP1 PUSH4 0xFFFFFFFF AND JUMP JUMPDEST DUP1 SWAP9 POP DUP2 SWAP4 POP POP POP POP PUSH0 DUP2 DUP8 ADD SWAP1 POP PUSH0 DUP4 PUSH20 0xFFFFFFFFFFFFFFFFFFFFFFFFFFFFFFFFFFFFFFFF AND PUSH4 0x13792A4A DUP16 DUP15 DUP15 DUP13 SWAP1 DUP8 SWAP3 PUSH2 0x1A6E SWAP4 SWAP3 SWAP2 SWAP1 PUSH2 0x319A JUMP JUMPDEST PUSH1 0x40 MLOAD DUP5 PUSH4 0xFFFFFFFF AND PUSH1 0xE0 SHL DUP2 MSTORE PUSH1 0x4 ADD PUSH2 0x1A8C SWAP4 SWAP3 SWAP2 SWAP1 PUSH2 0x35B3 JUMP JUMPDEST PUSH1 0x20 PUSH1 0x40 MLOAD DUP1 DUP4 SUB DUP2 DUP7 GAS STATICCALL ISZERO DUP1 ISZERO PUSH2 0x1AA7 JUMPI RETURNDATASIZE PUSH0 PUSH0 RETURNDATACOPY RETURNDATASIZE PUSH0 REVERT JUMPDEST POP POP POP POP PUSH1 0x40 MLOAD RETURNDATASIZE PUSH1 0x1F NOT PUSH1 0x1F DUP3 ADD AND DUP3 ADD DUP1 PUSH1 0x40 MSTORE POP DUP2 ADD SWAP1 PUSH2 0x1ACB SWAP2 SWAP1 PUSH2 0x35EA JUMP JUMPDEST SWAP1 POP DUP2 SWAP8 POP DUP5 PUSH1 0xFF AND DUP11 ADD SWAP10 POP PUSH0 PUSH2 0x1AE7 DUP6 DUP8 PUSH1 0xFF AND DUP5 PUSH2 0x2146 JUMP JUMPDEST SWAP1 POP PUSH0 PUSH0 SHL DUP11 SUB PUSH2 0x1AF8 JUMPI DUP1 PUSH2 0x1B03 JUMP JUMPDEST PUSH2 0x1B02 DUP11 DUP3 PUSH2 0x1CBF JUMP JUMPDEST JUMPDEST SWAP10 POP POP POP POP POP POP POP POP POP PUSH2 0x114F JUMP JUMPDEST PUSH1 0xA DUP2 SUB PUSH2 0x1C78 JUMPI PUSH0 PUSH1 0x3 DUP4 AND SWAP1 POP PUSH0 DUP2 PUSH1 0xFF AND SUB PUSH2 0x1B49 JUMPI PUSH2 0x1B40 DUP5 DUP10 DUP10 PUSH2 0x1FE0 SWAP3 SWAP1 SWAP2 SWAP3 PUSH4 0xFFFFFFFF AND JUMP JUMPDEST DUP1 SWAP6 POP DUP2 SWAP3 POP POP POP JUMPDEST PUSH0 PUSH2 0x1B5F DUP6 DUP11 DUP11 PUSH2 0xE6B SWAP3 SWAP1 SWAP2 SWAP3 PUSH4 0xFFFFFFFF AND JUMP JUMPDEST DUP1 SWAP7 POP DUP2 SWAP3 POP POP POP PUSH0 PUSH1 0x2 PUSH1 0xC DUP7 AND PUSH1 0xFF AND SWAP1 SHR PUSH1 0xFF AND SWAP1 POP PUSH0 PUSH2 0x1B95 DUP8 DUP4 DUP14 DUP14 PUSH2 0x111E SWAP2 SWAP1 SWAP4 SWAP3 SWAP2 SWAP1 SWAP4 SWAP3 SWAP2 SWAP1 PUSH4 0xFFFFFFFF AND JUMP JUMPDEST DUP1 SWAP9 POP DUP2 SWAP3 POP POP POP PUSH0 DUP2 DUP9 ADD SWAP1 POP PUSH0 DUP5 PUSH20 0xFFFFFFFFFFFFFFFFFFFFFFFFFFFFFFFFFFFFFFFF AND PUSH4 0x898BD921 DUP16 DUP16 DUP16 DUP14 SWAP1 DUP8 SWAP3 PUSH2 0x1BD3 SWAP4 SWAP3 SWAP2 SWAP1 PUSH2 0x319A JUMP JUMPDEST PUSH1 0x40 MLOAD DUP5 PUSH4 0xFFFFFFFF AND PUSH1 0xE0 SHL DUP2 MSTORE PUSH1 0x4 ADD PUSH2 0x1BF1 SWAP4 SWAP3 SWAP2 SWAP1 PUSH2 0x3481 JUMP JUMPDEST PUSH1 0x20 PUSH1 0x40 MLOAD DUP1 DUP4 SUB DUP2 DUP7 GAS STATICCALL ISZERO DUP1 ISZERO PUSH2 0x1C0C JUMPI RETURNDATASIZE PUSH0 PUSH0 RETURNDATACOPY RETURNDATASIZE PUSH0 REVERT JUMPDEST POP POP POP POP PUSH1 0x40 MLOAD RETURNDATASIZE PUSH1 0x1F NOT PUSH1 0x1F DUP3 ADD AND DUP3 ADD DUP1 PUSH1 0x40 MSTORE POP DUP2 ADD SWAP1 PUSH2 0x1C30 SWAP2 SWAP1 PUSH2 0x35EA JUMP JUMPDEST SWAP1 POP DUP2 SWAP9 POP DUP6 PUSH1 0xFF AND DUP12 ADD SWAP11 POP PUSH0 PUSH2 0x1C4C DUP7 DUP9 PUSH1 0xFF AND DUP5 PUSH2 0x2146 JUMP JUMPDEST SWAP1 POP PUSH0 PUSH0 SHL DUP12 SUB PUSH2 0x1C5D JUMPI DUP1 PUSH2 0x1C68 JUMP JUMPDEST PUSH2 0x1C67 DUP12 DUP3 PUSH2 0x1CBF JUMP JUMPDEST JUMPDEST SWAP11 POP POP POP POP POP POP POP POP POP POP PUSH2 0x114F JUMP JUMPDEST DUP1 PUSH1 0x40 MLOAD PUSH32 0xB2505F7C00000000000000000000000000000000000000000000000000000000 DUP2 MSTORE PUSH1 0x4 ADD PUSH2 0x1CAC SWAP2 SWAP1 PUSH2 0x3615 JUMP JUMPDEST PUSH1 0x40 MLOAD DUP1 SWAP2 SUB SWAP1 REVERT JUMPDEST POP SWAP5 POP SWAP5 SWAP3 POP POP POP JUMP JUMPDEST PUSH0 DUP3 PUSH0 MSTORE DUP2 PUSH1 0x20 MSTORE PUSH1 0x40 PUSH0 KECCAK256 SWAP1 POP SWAP3 SWAP2 POP POP JUMP JUMPDEST PUSH0 DUP4 DUP4 PUSH1 0x40 MLOAD PUSH1 0x20 ADD PUSH2 0x1CE7 SWAP3 SWAP2 SWAP1 PUSH2 0x33CA JUMP JUMPDEST PUSH1 0x40 MLOAD PUSH1 0x20 DUP2 DUP4 SUB SUB DUP2 MSTORE SWAP1 PUSH1 0x40 MSTORE DUP1 MLOAD SWAP1 PUSH1 0x20 ADD KECCAK256 SWAP1 POP DUP2 DUP2 SSTORE POP POP POP POP JUMP JUMPDEST PUSH0 PUSH32 0x8B73C3C69BB8FE3D512ECC4CF759CC79239F7B179B0FFACAA9A75D522B39400F PUSH32 0x4AA45CA7AD825CEB1BF35643F0A58C295239DF563B1B565C2485F96477C56318 PUSH32 0x2A80E1EF1D7842F27F2E6BE0972BB708B9A135C38860DBE73C27C3486C34F4DE DUP6 PUSH2 0x1D77 JUMPI CHAINID PUSH2 0x1D79 JUMP JUMPDEST PUSH0 JUMPDEST DUP6 PUSH1 0x40 MLOAD PUSH1 0x20 ADD PUSH2 0x1D8E SWAP6 SWAP5 SWAP4 SWAP3 SWAP2 SWAP1 PUSH2 0x362E JUMP JUMPDEST PUSH1 0x40 MLOAD PUSH1 0x20 DUP2 DUP4 SUB SUB DUP2 MSTORE SWAP1 PUSH1 0x40 MSTORE DUP1 MLOAD SWAP1 PUSH1 0x20 ADD KECCAK256 SWAP1 POP SWAP3 SWAP2 POP POP JUMP JUMPDEST PUSH0 PUSH0 DUP3 PUSH2 0x100 ADD MLOAD PUSH1 0x40 MLOAD PUSH1 0x20 ADD PUSH2 0x1DC4 SWAP2 SWAP1 PUSH2 0x370B JUMP JUMPDEST PUSH1 0x40 MLOAD PUSH1 0x20 DUP2 DUP4 SUB SUB DUP2 MSTORE SWAP1 PUSH1 0x40 MSTORE DUP1 MLOAD SWAP1 PUSH1 0x20 ADD KECCAK256 SWAP1 POP PUSH0 PUSH1 0xFF AND DUP4 PUSH0 ADD MLOAD PUSH1 0xFF AND SUB PUSH2 0x1E5C JUMPI PUSH0 PUSH2 0x1DFA DUP5 PUSH1 0x40 ADD MLOAD PUSH2 0x217B JUMP JUMPDEST SWAP1 POP PUSH32 0x11E1E4079A79A66E4ADE50033CFE2678CDD5341D2DFE5EF9513EDB1A0BE147A2 DUP2 DUP6 PUSH1 0x60 ADD MLOAD DUP7 PUSH1 0x80 ADD MLOAD DUP6 PUSH1 0x40 MLOAD PUSH1 0x20 ADD PUSH2 0x1E3D SWAP6 SWAP5 SWAP4 SWAP3 SWAP2 SWAP1 PUSH2 0x3721 JUMP JUMPDEST PUSH1 0x40 MLOAD PUSH1 0x20 DUP2 DUP4 SUB SUB DUP2 MSTORE SWAP1 PUSH1 0x40 MSTORE DUP1 MLOAD SWAP1 PUSH1 0x20 ADD KECCAK256 SWAP3 POP POP POP PUSH2 0x1FDB JUMP JUMPDEST PUSH1 0x1 PUSH1 0xFF AND DUP4 PUSH0 ADD MLOAD PUSH1 0xFF AND SUB PUSH2 0x1ECB JUMPI PUSH32 0xE19A3B94FC3C7ECE3F890D98A99BC422615537A08DEA0603FA8425867D87D466 DUP4 PUSH1 0xA0 ADD MLOAD DUP1 MLOAD SWAP1 PUSH1 0x20 ADD KECCAK256 DUP3 PUSH1 0x40 MLOAD PUSH1 0x20 ADD PUSH2 0x1EAD SWAP4 SWAP3 SWAP2 SWAP1 PUSH2 0x3772 JUMP JUMPDEST PUSH1 0x40 MLOAD PUSH1 0x20 DUP2 DUP4 SUB SUB DUP2 MSTORE SWAP1 PUSH1 0x40 MSTORE DUP1 MLOAD SWAP1 PUSH1 0x20 ADD KECCAK256 SWAP2 POP POP PUSH2 0x1FDB JUMP JUMPDEST PUSH1 0x2 PUSH1 0xFF AND DUP4 PUSH0 ADD MLOAD PUSH1 0xFF AND SUB PUSH2 0x1F33 JUMPI PUSH32 0x11FDEB7E8373A1AA96BFAC8D0EA91526B2C5D15E5CEE20E0543E780258F3E8E4 DUP4 PUSH1 0xC0 ADD MLOAD DUP3 PUSH1 0x40 MLOAD PUSH1 0x20 ADD PUSH2 0x1F15 SWAP4 SWAP3 SWAP2 SWAP1 PUSH2 0x3772 JUMP JUMPDEST PUSH1 0x40 MLOAD PUSH1 0x20 DUP2 DUP4 SUB SUB DUP2 MSTORE SWAP1 PUSH1 0x40 MSTORE DUP1 MLOAD SWAP1 PUSH1 0x20 ADD KECCAK256 SWAP2 POP POP PUSH2 0x1FDB JUMP JUMPDEST PUSH1 0x3 PUSH1 0xFF AND DUP4 PUSH0 ADD MLOAD PUSH1 0xFF AND SUB PUSH2 0x1F9B JUMPI PUSH32 0xE19A3B94FC3C7ECE3F890D98A99BC422615537A08DEA0603FA8425867D87D466 DUP4 PUSH1 0xE0 ADD MLOAD DUP3 PUSH1 0x40 MLOAD PUSH1 0x20 ADD PUSH2 0x1F7D SWAP4 SWAP3 SWAP2 SWAP1 PUSH2 0x3772 JUMP JUMPDEST PUSH1 0x40 MLOAD PUSH1 0x20 DUP2 DUP4 SUB SUB DUP2 MSTORE SWAP1 PUSH1 0x40 MSTORE DUP1 MLOAD SWAP1 PUSH1 0x20 ADD KECCAK256 SWAP2 POP POP PUSH2 0x1FDB JUMP JUMPDEST DUP3 PUSH0 ADD MLOAD PUSH1 0x40 MLOAD PUSH32 0x481832000000000000000000000000000000000000000000000000000000000 DUP2 MSTORE PUSH1 0x4 ADD PUSH2 0x1FD2 SWAP2 SWAP1 PUSH2 0x37A7 JUMP JUMPDEST PUSH1 0x40 MLOAD DUP1 SWAP2 SUB SWAP1 REVERT JUMPDEST SWAP2 SWAP1 POP JUMP JUMPDEST PUSH0 PUSH0 DUP5 DUP4 ADD CALLDATALOAD DUP1 PUSH1 0xF8 SHR SWAP3 POP PUSH1 0x1 DUP5 ADD SWAP2 POP POP SWAP4 POP SWAP4 SWAP2 POP POP JUMP JUMPDEST PUSH0 PUSH0 DUP5 DUP4 ADD CALLDATALOAD SWAP2 POP PUSH1 0x20 DUP4 ADD SWAP1 POP SWAP4 POP SWAP4 SWAP2 POP POP JUMP JUMPDEST PUSH0 DUP3 DUP3 PUSH1 0x40 MLOAD PUSH1 0x20 ADD PUSH2 0x2025 SWAP3 SWAP2 SWAP1 PUSH2 0x386F JUMP JUMPDEST PUSH1 0x40 MLOAD PUSH1 0x20 DUP2 DUP4 SUB SUB DUP2 MSTORE SWAP1 PUSH1 0x40 MSTORE DUP1 MLOAD SWAP1 PUSH1 0x20 ADD KECCAK256 SWAP1 POP SWAP3 SWAP2 POP POP JUMP JUMPDEST PUSH0 PUSH0 DUP5 DUP4 ADD CALLDATALOAD PUSH2 0xFFFF DUP2 PUSH1 0xF0 SHR AND SWAP3 POP PUSH1 0x2 DUP5 ADD SWAP2 POP POP SWAP4 POP SWAP4 SWAP2 POP POP JUMP JUMPDEST PUSH0 DUP4 DUP4 DUP4 PUSH1 0x40 MLOAD PUSH1 0x20 ADD PUSH2 0x2078 SWAP4 SWAP3 SWAP2 SWAP1 PUSH2 0x38EF JUMP JUMPDEST PUSH1 0x40 MLOAD PUSH1 0x20 DUP2 DUP4 SUB SUB DUP2 MSTORE SWAP1 PUSH1 0x40 MSTORE DUP1 MLOAD SWAP1 PUSH1 0x20 ADD KECCAK256 SWAP1 POP SWAP4 SWAP3 POP POP POP JUMP JUMPDEST PUSH0 DUP2 PUSH1 0x40 MLOAD PUSH1 0x20 ADD PUSH2 0x20A9 SWAP2 SWAP1 PUSH2 0x3980 JUMP JUMPDEST PUSH1 0x40 MLOAD PUSH1 0x20 DUP2 DUP4 SUB SUB DUP2 MSTORE SWAP1 PUSH1 0x40 MSTORE DUP1 MLOAD SWAP1 PUSH1 0x20 ADD KECCAK256 SWAP1 POP SWAP2 SWAP1 POP JUMP JUMPDEST PUSH0 PUSH0 PUSH2 0x20D6 DUP5 PUSH1 0x20 ADD MLOAD DUP5 PUSH2 0x1D08 JUMP JUMPDEST SWAP1 POP PUSH0 PUSH2 0x20E2 DUP6 PUSH2 0x1DAC JUMP JUMPDEST SWAP1 POP DUP2 DUP2 PUSH1 0x40 MLOAD PUSH1 0x20 ADD PUSH2 0x20F7 SWAP3 SWAP2 SWAP1 PUSH2 0x3394 JUMP JUMPDEST PUSH1 0x40 MLOAD PUSH1 0x20 DUP2 DUP4 SUB SUB DUP2 MSTORE SWAP1 PUSH1 0x40 MSTORE DUP1 MLOAD SWAP1 PUSH1 0x20 ADD KECCAK256 SWAP3 POP POP POP SWAP3 SWAP2 POP POP JUMP JUMPDEST PUSH0 DUP2 PUSH1 0x40 MLOAD PUSH1 0x20 ADD PUSH2 0x2129 SWAP2 SWAP1 PUSH2 0x39EF JUMP JUMPDEST PUSH1 0x40 MLOAD PUSH1 0x20 DUP2 DUP4 SUB SUB DUP2 MSTORE SWAP1 PUSH1 0x40 MSTORE DUP1 MLOAD SWAP1 PUSH1 0x20 ADD KECCAK256 SWAP1 POP SWAP2 SWAP1 POP JUMP JUMPDEST PUSH0 DUP4 DUP4 DUP4 PUSH1 0x40 MLOAD PUSH1 0x20 ADD PUSH2 0x215C SWAP4 SWAP3 SWAP2 SWAP1 PUSH2 0x3A5E JUMP JUMPDEST PUSH1 0x40 MLOAD PUSH1 0x20 DUP2 DUP4 SUB SUB DUP2 MSTORE SWAP1 PUSH1 0x40 MSTORE DUP1 MLOAD SWAP1 PUSH1 0x20 ADD KECCAK256 SWAP1 POP SWAP4 SWAP3 POP POP POP JUMP JUMPDEST PUSH0 PUSH1 0x60 PUSH0 PUSH0 SWAP1 POP JUMPDEST DUP4 MLOAD DUP2 LT ISZERO PUSH2 0x21E4 JUMPI PUSH0 PUSH2 0x21B0 DUP6 DUP4 DUP2 MLOAD DUP2 LT PUSH2 0x21A3 JUMPI PUSH2 0x21A2 PUSH2 0x2CB4 JUMP JUMPDEST JUMPDEST PUSH1 0x20 MUL PUSH1 0x20 ADD ADD MLOAD PUSH2 0x21F5 JUMP JUMPDEST SWAP1 POP DUP3 DUP2 PUSH1 0x40 MLOAD PUSH1 0x20 ADD PUSH2 0x21C5 SWAP3 SWAP2 SWAP1 PUSH2 0x3ADF JUMP JUMPDEST PUSH1 0x40 MLOAD PUSH1 0x20 DUP2 DUP4 SUB SUB DUP2 MSTORE SWAP1 PUSH1 0x40 MSTORE SWAP3 POP POP DUP1 DUP1 PUSH1 0x1 ADD SWAP2 POP POP PUSH2 0x2183 JUMP JUMPDEST POP DUP1 DUP1 MLOAD SWAP1 PUSH1 0x20 ADD KECCAK256 SWAP2 POP POP SWAP2 SWAP1 POP JUMP JUMPDEST PUSH0 PUSH32 0x603985259A953DA1F65A522F589C17BD1D0117EC1D3ABB7C0788AEF251EF437 DUP3 PUSH0 ADD MLOAD DUP4 PUSH1 0x20 ADD MLOAD DUP5 PUSH1 0x40 ADD MLOAD DUP1 MLOAD SWAP1 PUSH1 0x20 ADD KECCAK256 DUP6 PUSH1 0x60 ADD MLOAD DUP7 PUSH1 0x80 ADD MLOAD DUP8 PUSH1 0xA0 ADD MLOAD DUP9 PUSH1 0xC0 ADD MLOAD PUSH1 0x40 MLOAD PUSH1 0x20 ADD PUSH2 0x2257 SWAP9 SWAP8 SWAP7 SWAP6 SWAP5 SWAP4 SWAP3 SWAP2 SWAP1 PUSH2 0x3B06 JUMP JUMPDEST PUSH1 0x40 MLOAD PUSH1 0x20 DUP2 DUP4 SUB SUB DUP2 MSTORE SWAP1 PUSH1 0x40 MSTORE DUP1 MLOAD SWAP1 PUSH1 0x20 ADD KECCAK256 SWAP1 POP SWAP2 SWAP1 POP JUMP JUMPDEST PUSH1 0x40 MLOAD DUP1 PUSH2 0x120 ADD PUSH1 0x40 MSTORE DUP1 PUSH0 PUSH1 0xFF AND DUP2 MSTORE PUSH1 0x20 ADD PUSH0 ISZERO ISZERO DUP2 MSTORE PUSH1 0x20 ADD PUSH1 0x60 DUP2 MSTORE PUSH1 0x20 ADD PUSH0 DUP2 MSTORE PUSH1 0x20 ADD PUSH0 DUP2 MSTORE PUSH1 0x20 ADD PUSH1 0x60 DUP2 MSTORE PUSH1 0x20 ADD PUSH0 DUP2 MSTORE PUSH1 0x20 ADD PUSH0 DUP2 MSTORE PUSH1 0x20 ADD PUSH1 0x60 DUP2 MSTORE POP SWAP1 JUMP JUMPDEST PUSH1 0x40 MLOAD DUP1 PUSH1 0x40 ADD PUSH1 0x40 MSTORE DUP1 PUSH0 DUP2 MSTORE PUSH1 0x20 ADD PUSH0 DUP2 MSTORE POP SWAP1 JUMP JUMPDEST PUSH0 PUSH1 0x40 MLOAD SWAP1 POP SWAP1 JUMP JUMPDEST PUSH0 PUSH0 REVERT JUMPDEST PUSH0 PUSH0 REVERT JUMPDEST PUSH0 PUSH20 0xFFFFFFFFFFFFFFFFFFFFFFFFFFFFFFFFFFFFFFFF DUP3 AND SWAP1 POP SWAP2 SWAP1 POP JUMP JUMPDEST PUSH0 PUSH2 0x2311 DUP3 PUSH2 0x22E8 JUMP JUMPDEST SWAP1 POP SWAP2 SWAP1 POP JUMP JUMPDEST PUSH2 0x2321 DUP2 PUSH2 0x2307 JUMP JUMPDEST DUP2 EQ PUSH2 0x232B JUMPI PUSH0 PUSH0 REVERT JUMPDEST POP JUMP JUMPDEST PUSH0 DUP2 CALLDATALOAD SWAP1 POP PUSH2 0x233C DUP2 PUSH2 0x2318 JUMP JUMPDEST SWAP3 SWAP2 POP POP JUMP JUMPDEST PUSH0 PUSH1 0x20 DUP3 DUP5 SUB SLT ISZERO PUSH2 0x2357 JUMPI PUSH2 0x2356 PUSH2 0x22E0 JUMP JUMPDEST JUMPDEST PUSH0 PUSH2 0x2364 DUP5 DUP3 DUP6 ADD PUSH2 0x232E JUMP JUMPDEST SWAP2 POP POP SWAP3 SWAP2 POP POP JUMP JUMPDEST PUSH0 PUSH0 REVERT JUMPDEST PUSH0 PUSH1 0x1F NOT PUSH1 0x1F DUP4 ADD AND SWAP1 POP SWAP2 SWAP1 POP JUMP JUMPDEST PUSH32 0x4E487B7100000000000000000000000000000000000000000000000000000000 PUSH0 MSTORE PUSH1 0x41 PUSH1 0x4 MSTORE PUSH1 0x24 PUSH0 REVERT JUMPDEST PUSH2 0x23B7 DUP3 PUSH2 0x2371 JUMP JUMPDEST DUP2 ADD DUP2 DUP2 LT PUSH8 0xFFFFFFFFFFFFFFFF DUP3 GT OR ISZERO PUSH2 0x23D6 JUMPI PUSH2 0x23D5 PUSH2 0x2381 JUMP JUMPDEST JUMPDEST DUP1 PUSH1 0x40 MSTORE POP POP POP JUMP JUMPDEST PUSH0 PUSH2 0x23E8 PUSH2 0x22D7 JUMP JUMPDEST SWAP1 POP PUSH2 0x23F4 DUP3 DUP3 PUSH2 0x23AE JUMP JUMPDEST SWAP2 SWAP1 POP JUMP JUMPDEST PUSH0 PUSH0 REVERT JUMPDEST PUSH0 PUSH1 0xFF DUP3 AND SWAP1 POP SWAP2 SWAP1 POP JUMP JUMPDEST PUSH2 0x2412 DUP2 PUSH2 0x23FD JUMP JUMPDEST DUP2 EQ PUSH2 0x241C JUMPI PUSH0 PUSH0 REVERT JUMPDEST POP JUMP JUMPDEST PUSH0 DUP2 CALLDATALOAD SWAP1 POP PUSH2 0x242D DUP2 PUSH2 0x2409 JUMP JUMPDEST SWAP3 SWAP2 POP POP JUMP JUMPDEST PUSH0 DUP2 ISZERO ISZERO SWAP1 POP SWAP2 SWAP1 POP JUMP JUMPDEST PUSH2 0x2447 DUP2 PUSH2 0x2433 JUMP JUMPDEST DUP2 EQ PUSH2 0x2451 JUMPI PUSH0 PUSH0 REVERT JUMPDEST POP JUMP JUMPDEST PUSH0 DUP2 CALLDATALOAD SWAP1 POP PUSH2 0x2462 DUP2 PUSH2 0x243E JUMP JUMPDEST SWAP3 SWAP2 POP POP JUMP JUMPDEST PUSH0 PUSH0 REVERT JUMPDEST PUSH0 PUSH8 0xFFFFFFFFFFFFFFFF DUP3 GT ISZERO PUSH2 0x2486 JUMPI PUSH2 0x2485 PUSH2 0x2381 JUMP JUMPDEST JUMPDEST PUSH1 0x20 DUP3 MUL SWAP1 POP PUSH1 0x20 DUP2 ADD SWAP1 POP SWAP2 SWAP1 POP JUMP JUMPDEST PUSH0 PUSH0 REVERT JUMPDEST PUSH0 DUP2 SWAP1 POP SWAP2 SWAP1 POP JUMP JUMPDEST PUSH2 0x24AD DUP2 PUSH2 0x249B JUMP JUMPDEST DUP2 EQ PUSH2 0x24B7 JUMPI PUSH0 PUSH0 REVERT JUMPDEST POP JUMP JUMPDEST PUSH0 DUP2 CALLDATALOAD SWAP1 POP PUSH2 0x24C8 DUP2 PUSH2 0x24A4 JUMP JUMPDEST SWAP3 SWAP2 POP POP JUMP JUMPDEST PUSH0 PUSH0 REVERT JUMPDEST PUSH0 PUSH8 0xFFFFFFFFFFFFFFFF DUP3 GT ISZERO PUSH2 0x24EC JUMPI PUSH2 0x24EB PUSH2 0x2381 JUMP JUMPDEST JUMPDEST PUSH2 0x24F5 DUP3 PUSH2 0x2371 JUMP JUMPDEST SWAP1 POP PUSH1 0x20 DUP2 ADD SWAP1 POP SWAP2 SWAP1 POP JUMP JUMPDEST DUP3 DUP2 DUP4 CALLDATACOPY PUSH0 DUP4 DUP4 ADD MSTORE POP POP POP JUMP JUMPDEST PUSH0 PUSH2 0x2522 PUSH2 0x251D DUP5 PUSH2 0x24D2 JUMP JUMPDEST PUSH2 0x23DF JUMP JUMPDEST SWAP1 POP DUP3 DUP2 MSTORE PUSH1 0x20 DUP2 ADD DUP5 DUP5 DUP5 ADD GT ISZERO PUSH2 0x253E JUMPI PUSH2 0x253D PUSH2 0x24CE JUMP JUMPDEST JUMPDEST PUSH2 0x2549 DUP5 DUP3 DUP6 PUSH2 0x2502 JUMP JUMPDEST POP SWAP4 SWAP3 POP POP POP JUMP JUMPDEST PUSH0 DUP3 PUSH1 0x1F DUP4 ADD SLT PUSH2 0x2565 JUMPI PUSH2 0x2564 PUSH2 0x2468 JUMP JUMPDEST JUMPDEST DUP2 CALLDATALOAD PUSH2 0x2575 DUP5 DUP3 PUSH1 0x20 DUP7 ADD PUSH2 0x2510 JUMP JUMPDEST SWAP2 POP POP SWAP3 SWAP2 POP POP JUMP JUMPDEST PUSH0 PUSH1 0xE0 DUP3 DUP5 SUB SLT ISZERO PUSH2 0x2593 JUMPI PUSH2 0x2592 PUSH2 0x236D JUMP JUMPDEST JUMPDEST PUSH2 0x259D PUSH1 0xE0 PUSH2 0x23DF JUMP JUMPDEST SWAP1 POP PUSH0 PUSH2 0x25AC DUP5 DUP3 DUP6 ADD PUSH2 0x232E JUMP JUMPDEST PUSH0 DUP4 ADD MSTORE POP PUSH1 0x20 PUSH2 0x25BF DUP5 DUP3 DUP6 ADD PUSH2 0x24BA JUMP JUMPDEST PUSH1 0x20 DUP4 ADD MSTORE POP PUSH1 0x40 DUP3 ADD CALLDATALOAD PUSH8 0xFFFFFFFFFFFFFFFF DUP2 GT ISZERO PUSH2 0x25E3 JUMPI PUSH2 0x25E2 PUSH2 0x23F9 JUMP JUMPDEST JUMPDEST PUSH2 0x25EF DUP5 DUP3 DUP6 ADD PUSH2 0x2551 JUMP JUMPDEST PUSH1 0x40 DUP4 ADD MSTORE POP PUSH1 0x60 PUSH2 0x2603 DUP5 DUP3 DUP6 ADD PUSH2 0x24BA JUMP JUMPDEST PUSH1 0x60 DUP4 ADD MSTORE POP PUSH1 0x80 PUSH2 0x2617 DUP5 DUP3 DUP6 ADD PUSH2 0x2454 JUMP JUMPDEST PUSH1 0x80 DUP4 ADD MSTORE POP PUSH1 0xA0 PUSH2 0x262B DUP5 DUP3 DUP6 ADD PUSH2 0x2454 JUMP JUMPDEST PUSH1 0xA0 DUP4 ADD MSTORE POP PUSH1 0xC0 PUSH2 0x263F DUP5 DUP3 DUP6 ADD PUSH2 0x24BA JUMP JUMPDEST PUSH1 0xC0 DUP4 ADD MSTORE POP SWAP3 SWAP2 POP POP JUMP JUMPDEST PUSH0 PUSH2 0x265D PUSH2 0x2658 DUP5 PUSH2 0x246C JUMP JUMPDEST PUSH2 0x23DF JUMP JUMPDEST SWAP1 POP DUP1 DUP4 DUP3 MSTORE PUSH1 0x20 DUP3 ADD SWAP1 POP PUSH1 0x20 DUP5 MUL DUP4 ADD DUP6 DUP2 GT ISZERO PUSH2 0x2680 JUMPI PUSH2 0x267F PUSH2 0x2497 JUMP JUMPDEST JUMPDEST DUP4 JUMPDEST DUP2 DUP2 LT ISZERO PUSH2 0x26C7 JUMPI DUP1 CALLDATALOAD PUSH8 0xFFFFFFFFFFFFFFFF DUP2 GT ISZERO PUSH2 0x26A5 JUMPI PUSH2 0x26A4 PUSH2 0x2468 JUMP JUMPDEST JUMPDEST DUP1 DUP7 ADD PUSH2 0x26B2 DUP10 DUP3 PUSH2 0x257E JUMP JUMPDEST DUP6 MSTORE PUSH1 0x20 DUP6 ADD SWAP5 POP POP POP PUSH1 0x20 DUP2 ADD SWAP1 POP PUSH2 0x2682 JUMP JUMPDEST POP POP POP SWAP4 SWAP3 POP POP POP JUMP JUMPDEST PUSH0 DUP3 PUSH1 0x1F DUP4 ADD SLT PUSH2 0x26E5 JUMPI PUSH2 0x26E4 PUSH2 0x2468 JUMP JUMPDEST JUMPDEST DUP2 CALLDATALOAD PUSH2 0x26F5 DUP5 DUP3 PUSH1 0x20 DUP7 ADD PUSH2 0x264B JUMP JUMPDEST SWAP2 POP POP SWAP3 SWAP2 POP POP JUMP JUMPDEST PUSH0 DUP2 SWAP1 POP SWAP2 SWAP1 POP JUMP JUMPDEST PUSH2 0x2710 DUP2 PUSH2 0x26FE JUMP JUMPDEST DUP2 EQ PUSH2 0x271A JUMPI PUSH0 PUSH0 REVERT JUMPDEST POP JUMP JUMPDEST PUSH0 DUP2 CALLDATALOAD SWAP1 POP PUSH2 0x272B DUP2 PUSH2 0x2707 JUMP JUMPDEST SWAP3 SWAP2 POP POP JUMP JUMPDEST PUSH0 PUSH8 0xFFFFFFFFFFFFFFFF DUP3 GT ISZERO PUSH2 0x274B JUMPI PUSH2 0x274A PUSH2 0x2381 JUMP JUMPDEST JUMPDEST PUSH1 0x20 DUP3 MUL SWAP1 POP PUSH1 0x20 DUP2 ADD SWAP1 POP SWAP2 SWAP1 POP JUMP JUMPDEST PUSH0 PUSH2 0x276E PUSH2 0x2769 DUP5 PUSH2 0x2731 JUMP JUMPDEST PUSH2 0x23DF JUMP JUMPDEST SWAP1 POP DUP1 DUP4 DUP3 MSTORE PUSH1 0x20 DUP3 ADD SWAP1 POP PUSH1 0x20 DUP5 MUL DUP4 ADD DUP6 DUP2 GT ISZERO PUSH2 0x2791 JUMPI PUSH2 0x2790 PUSH2 0x2497 JUMP JUMPDEST JUMPDEST DUP4 JUMPDEST DUP2 DUP2 LT ISZERO PUSH2 0x27BA JUMPI DUP1 PUSH2 0x27A6 DUP9 DUP3 PUSH2 0x232E JUMP JUMPDEST DUP5 MSTORE PUSH1 0x20 DUP5 ADD SWAP4 POP POP PUSH1 0x20 DUP2 ADD SWAP1 POP PUSH2 0x2793 JUMP JUMPDEST POP POP POP SWAP4 SWAP3 POP POP POP JUMP JUMPDEST PUSH0 DUP3 PUSH1 0x1F DUP4 ADD SLT PUSH2 0x27D8 JUMPI PUSH2 0x27D7 PUSH2 0x2468 JUMP JUMPDEST JUMPDEST DUP2 CALLDATALOAD PUSH2 0x27E8 DUP5 DUP3 PUSH1 0x20 DUP7 ADD PUSH2 0x275C JUMP JUMPDEST SWAP2 POP POP SWAP3 SWAP2 POP POP JUMP JUMPDEST PUSH0 PUSH2 0x120 DUP3 DUP5 SUB SLT ISZERO PUSH2 0x2807 JUMPI PUSH2 0x2806 PUSH2 0x236D JUMP JUMPDEST JUMPDEST PUSH2 0x2812 PUSH2 0x120 PUSH2 0x23DF JUMP JUMPDEST SWAP1 POP PUSH0 PUSH2 0x2821 DUP5 DUP3 DUP6 ADD PUSH2 0x241F JUMP JUMPDEST PUSH0 DUP4 ADD MSTORE POP PUSH1 0x20 PUSH2 0x2834 DUP5 DUP3 DUP6 ADD PUSH2 0x2454 JUMP JUMPDEST PUSH1 0x20 DUP4 ADD MSTORE POP PUSH1 0x40 DUP3 ADD CALLDATALOAD PUSH8 0xFFFFFFFFFFFFFFFF DUP2 GT ISZERO PUSH2 0x2858 JUMPI PUSH2 0x2857 PUSH2 0x23F9 JUMP JUMPDEST JUMPDEST PUSH2 0x2864 DUP5 DUP3 DUP6 ADD PUSH2 0x26D1 JUMP JUMPDEST PUSH1 0x40 DUP4 ADD MSTORE POP PUSH1 0x60 PUSH2 0x2878 DUP5 DUP3 DUP6 ADD PUSH2 0x24BA JUMP JUMPDEST PUSH1 0x60 DUP4 ADD MSTORE POP PUSH1 0x80 PUSH2 0x288C DUP5 DUP3 DUP6 ADD PUSH2 0x24BA JUMP JUMPDEST PUSH1 0x80 DUP4 ADD MSTORE POP PUSH1 0xA0 DUP3 ADD CALLDATALOAD PUSH8 0xFFFFFFFFFFFFFFFF DUP2 GT ISZERO PUSH2 0x28B0 JUMPI PUSH2 0x28AF PUSH2 0x23F9 JUMP JUMPDEST JUMPDEST PUSH2 0x28BC DUP5 DUP3 DUP6 ADD PUSH2 0x2551 JUMP JUMPDEST PUSH1 0xA0 DUP4 ADD MSTORE POP PUSH1 0xC0 PUSH2 0x28D0 DUP5 DUP3 DUP6 ADD PUSH2 0x271D JUMP JUMPDEST PUSH1 0xC0 DUP4 ADD MSTORE POP PUSH1 0xE0 PUSH2 0x28E4 DUP5 DUP3 DUP6 ADD PUSH2 0x271D JUMP JUMPDEST PUSH1 0xE0 DUP4 ADD MSTORE POP PUSH2 0x100 DUP3 ADD CALLDATALOAD PUSH8 0xFFFFFFFFFFFFFFFF DUP2 GT ISZERO PUSH2 0x2909 JUMPI PUSH2 0x2908 PUSH2 0x23F9 JUMP JUMPDEST JUMPDEST PUSH2 0x2915 DUP5 DUP3 DUP6 ADD PUSH2 0x27C4 JUMP JUMPDEST PUSH2 0x100 DUP4 ADD MSTORE POP SWAP3 SWAP2 POP POP JUMP JUMPDEST PUSH0 PUSH0 REVERT JUMPDEST PUSH0 PUSH0 DUP4 PUSH1 0x1F DUP5 ADD SLT PUSH2 0x293B JUMPI PUSH2 0x293A PUSH2 0x2468 JUMP JUMPDEST JUMPDEST DUP3 CALLDATALOAD SWAP1 POP PUSH8 0xFFFFFFFFFFFFFFFF DUP2 GT ISZERO PUSH2 0x2958 JUMPI PUSH2 0x2957 PUSH2 0x2922 JUMP JUMPDEST JUMPDEST PUSH1 0x20 DUP4 ADD SWAP2 POP DUP4 PUSH1 0x1 DUP3 MUL DUP4 ADD GT ISZERO PUSH2 0x2974 JUMPI PUSH2 0x2973 PUSH2 0x2497 JUMP JUMPDEST JUMPDEST SWAP3 POP SWAP3 SWAP1 POP JUMP JUMPDEST PUSH0 PUSH0 PUSH0 PUSH1 0x40 DUP5 DUP7 SUB SLT ISZERO PUSH2 0x2992 JUMPI PUSH2 0x2991 PUSH2 0x22E0 JUMP JUMPDEST JUMPDEST PUSH0 DUP5 ADD CALLDATALOAD PUSH8 0xFFFFFFFFFFFFFFFF DUP2 GT ISZERO PUSH2 0x29AF JUMPI PUSH2 0x29AE PUSH2 0x22E4 JUMP JUMPDEST JUMPDEST PUSH2 0x29BB DUP7 DUP3 DUP8 ADD PUSH2 0x27F1 JUMP JUMPDEST SWAP4 POP POP PUSH1 0x20 DUP5 ADD CALLDATALOAD PUSH8 0xFFFFFFFFFFFFFFFF DUP2 GT ISZERO PUSH2 0x29DC JUMPI PUSH2 0x29DB PUSH2 0x22E4 JUMP JUMPDEST JUMPDEST PUSH2 0x29E8 DUP7 DUP3 DUP8 ADD PUSH2 0x2926 JUMP JUMPDEST SWAP3 POP SWAP3 POP POP SWAP3 POP SWAP3 POP SWAP3 JUMP JUMPDEST PUSH2 0x29FD DUP2 PUSH2 0x26FE JUMP JUMPDEST DUP3 MSTORE POP POP JUMP JUMPDEST PUSH0 PUSH1 0x20 DUP3 ADD SWAP1 POP PUSH2 0x2A16 PUSH0 DUP4 ADD DUP5 PUSH2 0x29F4 JUMP JUMPDEST SWAP3 SWAP2 POP POP JUMP JUMPDEST PUSH0 PUSH0 PUSH0 PUSH1 0x40 DUP5 DUP7 SUB SLT ISZERO PUSH2 0x2A33 JUMPI PUSH2 0x2A32 PUSH2 0x22E0 JUMP JUMPDEST JUMPDEST PUSH0 PUSH2 0x2A40 DUP7 DUP3 DUP8 ADD PUSH2 0x271D JUMP JUMPDEST SWAP4 POP POP PUSH1 0x20 DUP5 ADD CALLDATALOAD PUSH8 0xFFFFFFFFFFFFFFFF DUP2 GT ISZERO PUSH2 0x2A61 JUMPI PUSH2 0x2A60 PUSH2 0x22E4 JUMP JUMPDEST JUMPDEST PUSH2 0x2A6D DUP7 DUP3 DUP8 ADD PUSH2 0x2926 JUMP JUMPDEST SWAP3 POP SWAP3 POP POP SWAP3 POP SWAP3 POP SWAP3 JUMP JUMPDEST PUSH0 PUSH32 0xFFFFFFFF00000000000000000000000000000000000000000000000000000000 DUP3 AND SWAP1 POP SWAP2 SWAP1 POP JUMP JUMPDEST PUSH2 0x2AAD DUP2 PUSH2 0x2A79 JUMP JUMPDEST DUP3 MSTORE POP POP JUMP JUMPDEST PUSH0 PUSH1 0x20 DUP3 ADD SWAP1 POP PUSH2 0x2AC6 PUSH0 DUP4 ADD DUP5 PUSH2 0x2AA4 JUMP JUMPDEST SWAP3 SWAP2 POP POP JUMP JUMPDEST PUSH0 PUSH1 0x20 DUP3 DUP5 SUB SLT ISZERO PUSH2 0x2AE1 JUMPI PUSH2 0x2AE0 PUSH2 0x22E0 JUMP JUMPDEST JUMPDEST PUSH0 PUSH2 0x2AEE DUP5 DUP3 DUP6 ADD PUSH2 0x271D JUMP JUMPDEST SWAP2 POP POP SWAP3 SWAP2 POP POP JUMP JUMPDEST PUSH2 0x2B00 DUP2 PUSH2 0x2307 JUMP JUMPDEST DUP3 MSTORE POP POP JUMP JUMPDEST PUSH2 0x2B0F DUP2 PUSH2 0x249B JUMP JUMPDEST DUP3 MSTORE POP POP JUMP JUMPDEST PUSH0 PUSH1 0x40 DUP3 ADD SWAP1 POP PUSH2 0x2B28 PUSH0 DUP4 ADD DUP6 PUSH2 0x2AF7 JUMP JUMPDEST PUSH2 0x2B35 PUSH1 0x20 DUP4 ADD DUP5 PUSH2 0x2B06 JUMP JUMPDEST SWAP4 SWAP3 POP POP POP JUMP JUMPDEST PUSH0 PUSH1 0x20 DUP3 ADD SWAP1 POP PUSH2 0x2B4F PUSH0 DUP4 ADD DUP5 PUSH2 0x2AF7 JUMP JUMPDEST SWAP3 SWAP2 POP POP JUMP JUMPDEST PUSH2 0x2B5E DUP2 PUSH2 0x2433 JUMP JUMPDEST DUP3 MSTORE POP POP JUMP JUMPDEST PUSH0 PUSH1 0xC0 DUP3 ADD SWAP1 POP PUSH2 0x2B77 PUSH0 DUP4 ADD DUP10 PUSH2 0x2B06 JUMP JUMPDEST PUSH2 0x2B84 PUSH1 0x20 DUP4 ADD DUP9 PUSH2 0x2B06 JUMP JUMPDEST PUSH2 0x2B91 PUSH1 0x40 DUP4 ADD DUP8 PUSH2 0x2B55 JUMP JUMPDEST PUSH2 0x2B9E PUSH1 0x60 DUP4 ADD DUP7 PUSH2 0x29F4 JUMP JUMPDEST PUSH2 0x2BAB PUSH1 0x80 DUP4 ADD DUP6 PUSH2 0x2B06 JUMP JUMPDEST PUSH2 0x2BB8 PUSH1 0xA0 DUP4 ADD DUP5 PUSH2 0x29F4 JUMP JUMPDEST SWAP8 SWAP7 POP POP POP POP POP POP POP JUMP JUMPDEST PUSH0 PUSH12 0xFFFFFFFFFFFFFFFFFFFFFFFF DUP3 AND SWAP1 POP SWAP2 SWAP1 POP JUMP JUMPDEST PUSH2 0x2BE3 DUP2 PUSH2 0x2BC3 JUMP JUMPDEST DUP2 EQ PUSH2 0x2BED JUMPI PUSH0 PUSH0 REVERT JUMPDEST POP JUMP JUMPDEST PUSH0 DUP2 CALLDATALOAD SWAP1 POP PUSH2 0x2BFE DUP2 PUSH2 0x2BDA JUMP JUMPDEST SWAP3 SWAP2 POP POP JUMP JUMPDEST PUSH0 PUSH0 PUSH0 PUSH1 0x60 DUP5 DUP7 SUB SLT ISZERO PUSH2 0x2C1B JUMPI PUSH2 0x2C1A PUSH2 0x22E0 JUMP JUMPDEST JUMPDEST PUSH0 PUSH2 0x2C28 DUP7 DUP3 DUP8 ADD PUSH2 0x271D JUMP JUMPDEST SWAP4 POP POP PUSH1 0x20 PUSH2 0x2C39 DUP7 DUP3 DUP8 ADD PUSH2 0x232E JUMP JUMPDEST SWAP3 POP POP PUSH1 0x40 PUSH2 0x2C4A DUP7 DUP3 DUP8 ADD PUSH2 0x2BF0 JUMP JUMPDEST SWAP2 POP POP SWAP3 POP SWAP3 POP SWAP3 JUMP JUMPDEST PUSH32 0x4E487B7100000000000000000000000000000000000000000000000000000000 PUSH0 MSTORE PUSH1 0x11 PUSH1 0x4 MSTORE PUSH1 0x24 PUSH0 REVERT JUMPDEST PUSH0 PUSH2 0x2C8B DUP3 PUSH2 0x249B JUMP JUMPDEST SWAP2 POP PUSH2 0x2C96 DUP4 PUSH2 0x249B JUMP JUMPDEST SWAP3 POP DUP3 DUP3 ADD SWAP1 POP DUP1 DUP3 GT ISZERO PUSH2 0x2CAE JUMPI PUSH2 0x2CAD PUSH2 0x2C54 JUMP JUMPDEST JUMPDEST SWAP3 SWAP2 POP POP JUMP JUMPDEST PUSH32 0x4E487B7100000000000000000000000000000000000000000000000000000000 PUSH0 MSTORE PUSH1 0x32 PUSH1 0x4 MSTORE PUSH1 0x24 PUSH0 REVERT JUMPDEST PUSH2 0x2CEA DUP2 PUSH2 0x23FD JUMP JUMPDEST DUP3 MSTORE POP POP JUMP JUMPDEST PUSH2 0x2CF9 DUP2 PUSH2 0x2433 JUMP JUMPDEST DUP3 MSTORE POP POP JUMP JUMPDEST PUSH0 DUP2 MLOAD SWAP1 POP SWAP2 SWAP1 POP JUMP JUMPDEST PUSH0 DUP3 DUP3 MSTORE PUSH1 0x20 DUP3 ADD SWAP1 POP SWAP3 SWAP2 POP POP JUMP JUMPDEST PUSH0 DUP2 SWAP1 POP PUSH1 0x20 DUP3 ADD SWAP1 POP SWAP2 SWAP1 POP JUMP JUMPDEST PUSH2 0x2D31 DUP2 PUSH2 0x2307 JUMP JUMPDEST DUP3 MSTORE POP POP JUMP JUMPDEST PUSH2 0x2D40 DUP2 PUSH2 0x249B JUMP JUMPDEST DUP3 MSTORE POP POP JUMP JUMPDEST PUSH0 DUP2 MLOAD SWAP1 POP SWAP2 SWAP1 POP JUMP JUMPDEST PUSH0 DUP3 DUP3 MSTORE PUSH1 0x20 DUP3 ADD SWAP1 POP SWAP3 SWAP2 POP POP JUMP JUMPDEST DUP3 DUP2 DUP4 MCOPY PUSH0 DUP4 DUP4 ADD MSTORE POP POP POP JUMP JUMPDEST PUSH0 PUSH2 0x2D78 DUP3 PUSH2 0x2D46 JUMP JUMPDEST PUSH2 0x2D82 DUP2 DUP6 PUSH2 0x2D50 JUMP JUMPDEST SWAP4 POP PUSH2 0x2D92 DUP2 DUP6 PUSH1 0x20 DUP7 ADD PUSH2 0x2D60 JUMP JUMPDEST PUSH2 0x2D9B DUP2 PUSH2 0x2371 JUMP JUMPDEST DUP5 ADD SWAP2 POP POP SWAP3 SWAP2 POP POP JUMP JUMPDEST PUSH0 PUSH1 0xE0 DUP4 ADD PUSH0 DUP4 ADD MLOAD PUSH2 0x2DBB PUSH0 DUP7 ADD DUP3 PUSH2 0x2D28 JUMP JUMPDEST POP PUSH1 0x20 DUP4 ADD MLOAD PUSH2 0x2DCE PUSH1 0x20 DUP7 ADD DUP3 PUSH2 0x2D37 JUMP JUMPDEST POP PUSH1 0x40 DUP4 ADD MLOAD DUP5 DUP3 SUB PUSH1 0x40 DUP7 ADD MSTORE PUSH2 0x2DE6 DUP3 DUP3 PUSH2 0x2D6E JUMP JUMPDEST SWAP2 POP POP PUSH1 0x60 DUP4 ADD MLOAD PUSH2 0x2DFB PUSH1 0x60 DUP7 ADD DUP3 PUSH2 0x2D37 JUMP JUMPDEST POP PUSH1 0x80 DUP4 ADD MLOAD PUSH2 0x2E0E PUSH1 0x80 DUP7 ADD DUP3 PUSH2 0x2CF0 JUMP JUMPDEST POP PUSH1 0xA0 DUP4 ADD MLOAD PUSH2 0x2E21 PUSH1 0xA0 DUP7 ADD DUP3 PUSH2 0x2CF0 JUMP JUMPDEST POP PUSH1 0xC0 DUP4 ADD MLOAD PUSH2 0x2E34 PUSH1 0xC0 DUP7 ADD DUP3 PUSH2 0x2D37 JUMP JUMPDEST POP DUP1 SWAP2 POP POP SWAP3 SWAP2 POP POP JUMP JUMPDEST PUSH0 PUSH2 0x2E4A DUP4 DUP4 PUSH2 0x2DA6 JUMP JUMPDEST SWAP1 POP SWAP3 SWAP2 POP POP JUMP JUMPDEST PUSH0 PUSH1 0x20 DUP3 ADD SWAP1 POP SWAP2 SWAP1 POP JUMP JUMPDEST PUSH0 PUSH2 0x2E68 DUP3 PUSH2 0x2CFF JUMP JUMPDEST PUSH2 0x2E72 DUP2 DUP6 PUSH2 0x2D09 JUMP JUMPDEST SWAP4 POP DUP4 PUSH1 0x20 DUP3 MUL DUP6 ADD PUSH2 0x2E84 DUP6 PUSH2 0x2D19 JUMP JUMPDEST DUP1 PUSH0 JUMPDEST DUP6 DUP2 LT ISZERO PUSH2 0x2EBF JUMPI DUP5 DUP5 SUB DUP10 MSTORE DUP2 MLOAD PUSH2 0x2EA0 DUP6 DUP3 PUSH2 0x2E3F JUMP JUMPDEST SWAP5 POP PUSH2 0x2EAB DUP4 PUSH2 0x2E52 JUMP JUMPDEST SWAP3 POP PUSH1 0x20 DUP11 ADD SWAP10 POP POP PUSH1 0x1 DUP2 ADD SWAP1 POP PUSH2 0x2E87 JUMP JUMPDEST POP DUP3 SWAP8 POP DUP8 SWAP6 POP POP POP POP POP POP SWAP3 SWAP2 POP POP JUMP JUMPDEST PUSH2 0x2EDA DUP2 PUSH2 0x26FE JUMP JUMPDEST DUP3 MSTORE POP POP JUMP JUMPDEST PUSH0 DUP2 MLOAD SWAP1 POP SWAP2 SWAP1 POP JUMP JUMPDEST PUSH0 DUP3 DUP3 MSTORE PUSH1 0x20 DUP3 ADD SWAP1 POP SWAP3 SWAP2 POP POP JUMP JUMPDEST PUSH0 DUP2 SWAP1 POP PUSH1 0x20 DUP3 ADD SWAP1 POP SWAP2 SWAP1 POP JUMP JUMPDEST PUSH0 PUSH2 0x2F14 DUP4 DUP4 PUSH2 0x2D28 JUMP JUMPDEST PUSH1 0x20 DUP4 ADD SWAP1 POP SWAP3 SWAP2 POP POP JUMP JUMPDEST PUSH0 PUSH1 0x20 DUP3 ADD SWAP1 POP SWAP2 SWAP1 POP JUMP JUMPDEST PUSH0 PUSH2 0x2F36 DUP3 PUSH2 0x2EE0 JUMP JUMPDEST PUSH2 0x2F40 DUP2 DUP6 PUSH2 0x2EEA JUMP JUMPDEST SWAP4 POP PUSH2 0x2F4B DUP4 PUSH2 0x2EFA JUMP JUMPDEST DUP1 PUSH0 JUMPDEST DUP4 DUP2 LT ISZERO PUSH2 0x2F7B JUMPI DUP2 MLOAD PUSH2 0x2F62 DUP9 DUP3 PUSH2 0x2F09 JUMP JUMPDEST SWAP8 POP PUSH2 0x2F6D DUP4 PUSH2 0x2F20 JUMP JUMPDEST SWAP3 POP POP PUSH1 0x1 DUP2 ADD SWAP1 POP PUSH2 0x2F4E JUMP JUMPDEST POP DUP6 SWAP4 POP POP POP POP SWAP3 SWAP2 POP POP JUMP JUMPDEST PUSH0 PUSH2 0x120 DUP4 ADD PUSH0 DUP4 ADD MLOAD PUSH2 0x2F9E PUSH0 DUP7 ADD DUP3 PUSH2 0x2CE1 JUMP JUMPDEST POP PUSH1 0x20 DUP4 ADD MLOAD PUSH2 0x2FB1 PUSH1 0x20 DUP7 ADD DUP3 PUSH2 0x2CF0 JUMP JUMPDEST POP PUSH1 0x40 DUP4 ADD MLOAD DUP5 DUP3 SUB PUSH1 0x40 DUP7 ADD MSTORE PUSH2 0x2FC9 DUP3 DUP3 PUSH2 0x2E5E JUMP JUMPDEST SWAP2 POP POP PUSH1 0x60 DUP4 ADD MLOAD PUSH2 0x2FDE PUSH1 0x60 DUP7 ADD DUP3 PUSH2 0x2D37 JUMP JUMPDEST POP PUSH1 0x80 DUP4 ADD MLOAD PUSH2 0x2FF1 PUSH1 0x80 DUP7 ADD DUP3 PUSH2 0x2D37 JUMP JUMPDEST POP PUSH1 0xA0 DUP4 ADD MLOAD DUP5 DUP3 SUB PUSH1 0xA0 DUP7 ADD MSTORE PUSH2 0x3009 DUP3 DUP3 PUSH2 0x2D6E JUMP JUMPDEST SWAP2 POP POP PUSH1 0xC0 DUP4 ADD MLOAD PUSH2 0x301E PUSH1 0xC0 DUP7 ADD DUP3 PUSH2 0x2ED1 JUMP JUMPDEST POP PUSH1 0xE0 DUP4 ADD MLOAD PUSH2 0x3031 PUSH1 0xE0 DUP7 ADD DUP3 PUSH2 0x2ED1 JUMP JUMPDEST POP PUSH2 0x100 DUP4 ADD MLOAD DUP5 DUP3 SUB PUSH2 0x100 DUP7 ADD MSTORE PUSH2 0x304B DUP3 DUP3 PUSH2 0x2F2C JUMP JUMPDEST SWAP2 POP POP DUP1 SWAP2 POP POP SWAP3 SWAP2 POP POP JUMP JUMPDEST PUSH0 DUP3 DUP3 MSTORE PUSH1 0x20 DUP3 ADD SWAP1 POP SWAP3 SWAP2 POP POP JUMP JUMPDEST PUSH0 PUSH2 0x3073 DUP4 DUP6 PUSH2 0x3058 JUMP JUMPDEST SWAP4 POP PUSH2 0x3080 DUP4 DUP6 DUP5 PUSH2 0x2502 JUMP JUMPDEST PUSH2 0x3089 DUP4 PUSH2 0x2371 JUMP JUMPDEST DUP5 ADD SWAP1 POP SWAP4 SWAP3 POP POP POP JUMP JUMPDEST PUSH0 PUSH1 0x40 DUP3 ADD SWAP1 POP DUP2 DUP2 SUB PUSH0 DUP4 ADD MSTORE PUSH2 0x30AC DUP2 DUP7 PUSH2 0x2F88 JUMP JUMPDEST SWAP1 POP DUP2 DUP2 SUB PUSH1 0x20 DUP4 ADD MSTORE PUSH2 0x30C1 DUP2 DUP5 DUP7 PUSH2 0x3068 JUMP JUMPDEST SWAP1 POP SWAP5 SWAP4 POP POP POP POP JUMP JUMPDEST PUSH2 0x30D4 DUP2 PUSH2 0x2BC3 JUMP JUMPDEST DUP3 MSTORE POP POP JUMP JUMPDEST PUSH0 PUSH1 0x60 DUP3 ADD SWAP1 POP PUSH2 0x30ED PUSH0 DUP4 ADD DUP7 PUSH2 0x29F4 JUMP JUMPDEST PUSH2 0x30FA PUSH1 0x20 DUP4 ADD DUP6 PUSH2 0x2AF7 JUMP JUMPDEST PUSH2 0x3107 PUSH1 0x40 DUP4 ADD DUP5 PUSH2 0x30CB JUMP JUMPDEST SWAP5 SWAP4 POP POP POP POP JUMP JUMPDEST PUSH0 PUSH1 0x40 DUP3 ADD SWAP1 POP PUSH2 0x3122 PUSH0 DUP4 ADD DUP6 PUSH2 0x29F4 JUMP JUMPDEST PUSH2 0x312F PUSH1 0x20 DUP4 ADD DUP5 PUSH2 0x2B06 JUMP JUMPDEST SWAP4 SWAP3 POP POP POP JUMP JUMPDEST PUSH0 PUSH1 0x60 DUP3 ADD SWAP1 POP PUSH2 0x3149 PUSH0 DUP4 ADD DUP7 PUSH2 0x29F4 JUMP JUMPDEST PUSH2 0x3156 PUSH1 0x20 DUP4 ADD DUP6 PUSH2 0x2AF7 JUMP JUMPDEST PUSH2 0x3163 PUSH1 0x40 DUP4 ADD DUP5 PUSH2 0x2AF7 JUMP JUMPDEST SWAP5 SWAP4 POP POP POP POP JUMP JUMPDEST PUSH0 PUSH1 0x40 DUP3 ADD SWAP1 POP PUSH2 0x317E PUSH0 DUP4 ADD DUP6 PUSH2 0x2B06 JUMP JUMPDEST PUSH2 0x318B PUSH1 0x20 DUP4 ADD DUP5 PUSH2 0x2B06 JUMP JUMPDEST SWAP4 SWAP3 POP POP POP JUMP JUMPDEST PUSH0 PUSH0 REVERT JUMPDEST PUSH0 PUSH0 REVERT JUMPDEST PUSH0 PUSH0 DUP6 DUP6 GT ISZERO PUSH2 0x31AD JUMPI PUSH2 0x31AC PUSH2 0x3192 JUMP JUMPDEST JUMPDEST DUP4 DUP7 GT ISZERO PUSH2 0x31BE JUMPI PUSH2 0x31BD PUSH2 0x3196 JUMP JUMPDEST JUMPDEST PUSH1 0x1 DUP6 MUL DUP4 ADD SWAP2 POP DUP5 DUP7 SUB SWAP1 POP SWAP5 POP SWAP5 SWAP3 POP POP POP JUMP JUMPDEST PUSH0 PUSH2 0x31DE DUP3 PUSH2 0x2D46 JUMP JUMPDEST PUSH2 0x31E8 DUP2 DUP6 PUSH2 0x3058 JUMP JUMPDEST SWAP4 POP PUSH2 0x31F8 DUP2 DUP6 PUSH1 0x20 DUP7 ADD PUSH2 0x2D60 JUMP JUMPDEST PUSH2 0x3201 DUP2 PUSH2 0x2371 JUMP JUMPDEST DUP5 ADD SWAP2 POP POP SWAP3 SWAP2 POP POP JUMP JUMPDEST PUSH0 PUSH1 0x40 DUP3 ADD SWAP1 POP PUSH2 0x321F PUSH0 DUP4 ADD DUP6 PUSH2 0x2AF7 JUMP JUMPDEST DUP2 DUP2 SUB PUSH1 0x20 DUP4 ADD MSTORE PUSH2 0x3231 DUP2 DUP5 PUSH2 0x31D4 JUMP JUMPDEST SWAP1 POP SWAP4 SWAP3 POP POP POP JUMP JUMPDEST PUSH0 DUP2 MLOAD SWAP1 POP PUSH2 0x3248 DUP2 PUSH2 0x2707 JUMP JUMPDEST SWAP3 SWAP2 POP POP JUMP JUMPDEST PUSH0 DUP2 MLOAD SWAP1 POP PUSH2 0x325C DUP2 PUSH2 0x24A4 JUMP JUMPDEST SWAP3 SWAP2 POP POP JUMP JUMPDEST PUSH0 PUSH1 0x40 DUP3 DUP5 SUB SLT ISZERO PUSH2 0x3277 JUMPI PUSH2 0x3276 PUSH2 0x236D JUMP JUMPDEST JUMPDEST PUSH2 0x3281 PUSH1 0x40 PUSH2 0x23DF JUMP JUMPDEST SWAP1 POP PUSH0 PUSH2 0x3290 DUP5 DUP3 DUP6 ADD PUSH2 0x323A JUMP JUMPDEST PUSH0 DUP4 ADD MSTORE POP PUSH1 0x20 PUSH2 0x32A3 DUP5 DUP3 DUP6 ADD PUSH2 0x324E JUMP JUMPDEST PUSH1 0x20 DUP4 ADD MSTORE POP SWAP3 SWAP2 POP POP JUMP JUMPDEST PUSH0 PUSH1 0x40 DUP3 DUP5 SUB SLT ISZERO PUSH2 0x32C4 JUMPI PUSH2 0x32C3 PUSH2 0x22E0 JUMP JUMPDEST JUMPDEST PUSH0 PUSH2 0x32D1 DUP5 DUP3 DUP6 ADD PUSH2 0x3262 JUMP JUMPDEST SWAP2 POP POP SWAP3 SWAP2 POP POP JUMP JUMPDEST PUSH1 0x40 DUP3 ADD PUSH0 DUP3 ADD MLOAD PUSH2 0x32EE PUSH0 DUP6 ADD DUP3 PUSH2 0x2ED1 JUMP JUMPDEST POP PUSH1 0x20 DUP3 ADD MLOAD PUSH2 0x3301 PUSH1 0x20 DUP6 ADD DUP3 PUSH2 0x2D37 JUMP JUMPDEST POP POP POP POP JUMP JUMPDEST PUSH0 PUSH1 0x40 DUP3 ADD SWAP1 POP PUSH2 0x331A PUSH0 DUP4 ADD DUP5 PUSH2 0x32DA JUMP JUMPDEST SWAP3 SWAP2 POP POP JUMP JUMPDEST PUSH0 DUP2 SWAP1 POP SWAP3 SWAP2 POP POP JUMP JUMPDEST PUSH32 0x1901000000000000000000000000000000000000000000000000000000000000 PUSH0 DUP3 ADD MSTORE POP JUMP JUMPDEST PUSH0 PUSH2 0x335E PUSH1 0x2 DUP4 PUSH2 0x3320 JUMP JUMPDEST SWAP2 POP PUSH2 0x3369 DUP3 PUSH2 0x332A JUMP JUMPDEST PUSH1 0x2 DUP3 ADD SWAP1 POP SWAP2 SWAP1 POP JUMP JUMPDEST PUSH0 DUP2 SWAP1 POP SWAP2 SWAP1 POP JUMP JUMPDEST PUSH2 0x338E PUSH2 0x3389 DUP3 PUSH2 0x26FE JUMP JUMPDEST PUSH2 0x3374 JUMP JUMPDEST DUP3 MSTORE POP POP JUMP JUMPDEST PUSH0 PUSH2 0x339E DUP3 PUSH2 0x3352 JUMP JUMPDEST SWAP2 POP PUSH2 0x33AA DUP3 DUP6 PUSH2 0x337D JUMP JUMPDEST PUSH1 0x20 DUP3 ADD SWAP2 POP PUSH2 0x33BA DUP3 DUP5 PUSH2 0x337D JUMP JUMPDEST PUSH1 0x20 DUP3 ADD SWAP2 POP DUP2 SWAP1 POP SWAP4 SWAP3 POP POP POP JUMP JUMPDEST PUSH0 PUSH1 0x40 DUP3 ADD SWAP1 POP PUSH2 0x33DD PUSH0 DUP4 ADD DUP6 PUSH2 0x29F4 JUMP JUMPDEST PUSH2 0x33EA PUSH1 0x20 DUP4 ADD DUP5 PUSH2 0x29F4 JUMP JUMPDEST SWAP4 SWAP3 POP POP POP JUMP JUMPDEST PUSH0 PUSH1 0x60 DUP3 ADD SWAP1 POP DUP2 DUP2 SUB PUSH0 DUP4 ADD MSTORE PUSH2 0x340A DUP2 DUP7 DUP9 PUSH2 0x3068 JUMP JUMPDEST SWAP1 POP PUSH2 0x3419 PUSH1 0x20 DUP4 ADD DUP6 PUSH2 0x2B06 JUMP JUMPDEST PUSH2 0x3426 PUSH1 0x40 DUP4 ADD DUP5 PUSH2 0x2B06 JUMP JUMPDEST SWAP6 SWAP5 POP POP POP POP POP JUMP JUMPDEST PUSH2 0x3438 DUP2 PUSH2 0x23FD JUMP JUMPDEST DUP3 MSTORE POP POP JUMP JUMPDEST PUSH0 PUSH1 0x80 DUP3 ADD SWAP1 POP PUSH2 0x3451 PUSH0 DUP4 ADD DUP8 PUSH2 0x29F4 JUMP JUMPDEST PUSH2 0x345E PUSH1 0x20 DUP4 ADD DUP7 PUSH2 0x342F JUMP JUMPDEST PUSH2 0x346B PUSH1 0x40 DUP4 ADD DUP6 PUSH2 0x29F4 JUMP JUMPDEST PUSH2 0x3478 PUSH1 0x60 DUP4 ADD DUP5 PUSH2 0x29F4 JUMP JUMPDEST SWAP6 SWAP5 POP POP POP POP POP JUMP JUMPDEST PUSH0 PUSH1 0x40 DUP3 ADD SWAP1 POP PUSH2 0x3494 PUSH0 DUP4 ADD DUP7 PUSH2 0x29F4 JUMP JUMPDEST DUP2 DUP2 SUB PUSH1 0x20 DUP4 ADD MSTORE PUSH2 0x34A7 DUP2 DUP5 DUP7 PUSH2 0x3068 JUMP JUMPDEST SWAP1 POP SWAP5 SWAP4 POP POP POP POP JUMP JUMPDEST PUSH2 0x34BA DUP2 PUSH2 0x2A79 JUMP JUMPDEST DUP2 EQ PUSH2 0x34C4 JUMPI PUSH0 PUSH0 REVERT JUMPDEST POP JUMP JUMPDEST PUSH0 DUP2 MLOAD SWAP1 POP PUSH2 0x34D5 DUP2 PUSH2 0x34B1 JUMP JUMPDEST SWAP3 SWAP2 POP POP JUMP JUMPDEST PUSH0 PUSH1 0x20 DUP3 DUP5 SUB SLT ISZERO PUSH2 0x34F0 JUMPI PUSH2 0x34EF PUSH2 0x22E0 JUMP JUMPDEST JUMPDEST PUSH0 PUSH2 0x34FD DUP5 DUP3 DUP6 ADD PUSH2 0x34C7 JUMP JUMPDEST SWAP2 POP POP SWAP3 SWAP2 POP POP JUMP JUMPDEST PUSH0 PUSH1 0x60 DUP3 ADD SWAP1 POP PUSH2 0x3519 PUSH0 DUP4 ADD DUP8 PUSH2 0x29F4 JUMP JUMPDEST PUSH2 0x3526 PUSH1 0x20 DUP4 ADD DUP7 PUSH2 0x2AF7 JUMP JUMPDEST DUP2 DUP2 SUB PUSH1 0x40 DUP4 ADD MSTORE PUSH2 0x3539 DUP2 DUP5 DUP7 PUSH2 0x3068 JUMP JUMPDEST SWAP1 POP SWAP6 SWAP5 POP POP POP POP POP JUMP JUMPDEST PUSH32 0x19457468657265756D205369676E6564204D6573736167653A0A333200000000 PUSH0 DUP3 ADD MSTORE POP JUMP JUMPDEST PUSH0 PUSH2 0x3578 PUSH1 0x1C DUP4 PUSH2 0x3320 JUMP JUMPDEST SWAP2 POP PUSH2 0x3583 DUP3 PUSH2 0x3544 JUMP JUMPDEST PUSH1 0x1C DUP3 ADD SWAP1 POP SWAP2 SWAP1 POP JUMP JUMPDEST PUSH0 PUSH2 0x3598 DUP3 PUSH2 0x356C JUMP JUMPDEST SWAP2 POP PUSH2 0x35A4 DUP3 DUP5 PUSH2 0x337D JUMP JUMPDEST PUSH1 0x20 DUP3 ADD SWAP2 POP DUP2 SWAP1 POP SWAP3 SWAP2 POP POP JUMP JUMPDEST PUSH0 PUSH1 0x40 DUP3 ADD SWAP1 POP DUP2 DUP2 SUB PUSH0 DUP4 ADD MSTORE PUSH2 0x35CB DUP2 DUP7 PUSH2 0x2F88 JUMP JUMPDEST SWAP1 POP DUP2 DUP2 SUB PUSH1 0x20 DUP4 ADD MSTORE PUSH2 0x35E0 DUP2 DUP5 DUP7 PUSH2 0x3068 JUMP JUMPDEST SWAP1 POP SWAP5 SWAP4 POP POP POP POP JUMP JUMPDEST PUSH0 PUSH1 0x20 DUP3 DUP5 SUB SLT ISZERO PUSH2 0x35FF JUMPI PUSH2 0x35FE PUSH2 0x22E0 JUMP JUMPDEST JUMPDEST PUSH0 PUSH2 0x360C DUP5 DUP3 DUP6 ADD PUSH2 0x323A JUMP JUMPDEST SWAP2 POP POP SWAP3 SWAP2 POP POP JUMP JUMPDEST PUSH0 PUSH1 0x20 DUP3 ADD SWAP1 POP PUSH2 0x3628 PUSH0 DUP4 ADD DUP5 PUSH2 0x2B06 JUMP JUMPDEST SWAP3 SWAP2 POP POP JUMP JUMPDEST PUSH0 PUSH1 0xA0 DUP3 ADD SWAP1 POP PUSH2 0x3641 PUSH0 DUP4 ADD DUP9 PUSH2 0x29F4 JUMP JUMPDEST PUSH2 0x364E PUSH1 0x20 DUP4 ADD DUP8 PUSH2 0x29F4 JUMP JUMPDEST PUSH2 0x365B PUSH1 0x40 DUP4 ADD DUP7 PUSH2 0x29F4 JUMP JUMPDEST PUSH2 0x3668 PUSH1 0x60 DUP4 ADD DUP6 PUSH2 0x2B06 JUMP JUMPDEST PUSH2 0x3675 PUSH1 0x80 DUP4 ADD DUP5 PUSH2 0x2AF7 JUMP JUMPDEST SWAP7 SWAP6 POP POP POP POP POP POP JUMP JUMPDEST PUSH0 DUP2 SWAP1 POP SWAP3 SWAP2 POP POP JUMP JUMPDEST PUSH2 0x3692 DUP2 PUSH2 0x2307 JUMP JUMPDEST DUP3 MSTORE POP POP JUMP JUMPDEST PUSH0 PUSH2 0x36A3 DUP4 DUP4 PUSH2 0x3689 JUMP JUMPDEST PUSH1 0x20 DUP4 ADD SWAP1 POP SWAP3 SWAP2 POP POP JUMP JUMPDEST PUSH0 PUSH2 0x36B9 DUP3 PUSH2 0x2EE0 JUMP JUMPDEST PUSH2 0x36C3 DUP2 DUP6 PUSH2 0x367F JUMP JUMPDEST SWAP4 POP PUSH2 0x36CE DUP4 PUSH2 0x2EFA JUMP JUMPDEST DUP1 PUSH0 JUMPDEST DUP4 DUP2 LT ISZERO PUSH2 0x36FE JUMPI DUP2 MLOAD PUSH2 0x36E5 DUP9 DUP3 PUSH2 0x3698 JUMP JUMPDEST SWAP8 POP PUSH2 0x36F0 DUP4 PUSH2 0x2F20 JUMP JUMPDEST SWAP3 POP POP PUSH1 0x1 DUP2 ADD SWAP1 POP PUSH2 0x36D1 JUMP JUMPDEST POP DUP6 SWAP4 POP POP POP POP SWAP3 SWAP2 POP POP JUMP JUMPDEST PUSH0 PUSH2 0x3716 DUP3 DUP5 PUSH2 0x36AF JUMP JUMPDEST SWAP2 POP DUP2 SWAP1 POP SWAP3 SWAP2 POP POP JUMP JUMPDEST PUSH0 PUSH1 0xA0 DUP3 ADD SWAP1 POP PUSH2 0x3734 PUSH0 DUP4 ADD DUP9 PUSH2 0x29F4 JUMP JUMPDEST PUSH2 0x3741 PUSH1 0x20 DUP4 ADD DUP8 PUSH2 0x29F4 JUMP JUMPDEST PUSH2 0x374E PUSH1 0x40 DUP4 ADD DUP7 PUSH2 0x2B06 JUMP JUMPDEST PUSH2 0x375B PUSH1 0x60 DUP4 ADD DUP6 PUSH2 0x2B06 JUMP JUMPDEST PUSH2 0x3768 PUSH1 0x80 DUP4 ADD DUP5 PUSH2 0x29F4 JUMP JUMPDEST SWAP7 SWAP6 POP POP POP POP POP POP JUMP JUMPDEST PUSH0 PUSH1 0x60 DUP3 ADD SWAP1 POP PUSH2 0x3785 PUSH0 DUP4 ADD DUP7 PUSH2 0x29F4 JUMP JUMPDEST PUSH2 0x3792 PUSH1 0x20 DUP4 ADD DUP6 PUSH2 0x29F4 JUMP JUMPDEST PUSH2 0x379F PUSH1 0x40 DUP4 ADD DUP5 PUSH2 0x29F4 JUMP JUMPDEST SWAP5 SWAP4 POP POP POP POP JUMP JUMPDEST PUSH0 PUSH1 0x20 DUP3 ADD SWAP1 POP PUSH2 0x37BA PUSH0 DUP4 ADD DUP5 PUSH2 0x342F JUMP JUMPDEST SWAP3 SWAP2 POP POP JUMP JUMPDEST PUSH32 0x53657175656E6365207369676E65723A0A000000000000000000000000000000 PUSH0 DUP3 ADD MSTORE POP JUMP JUMPDEST PUSH0 PUSH2 0x37F4 PUSH1 0x11 DUP4 PUSH2 0x3320 JUMP JUMPDEST SWAP2 POP PUSH2 0x37FF DUP3 PUSH2 0x37C0 JUMP JUMPDEST PUSH1 0x11 DUP3 ADD SWAP1 POP SWAP2 SWAP1 POP JUMP JUMPDEST PUSH0 DUP2 PUSH1 0x60 SHL SWAP1 POP SWAP2 SWAP1 POP JUMP JUMPDEST PUSH0 PUSH2 0x3820 DUP3 PUSH2 0x380A JUMP JUMPDEST SWAP1 POP SWAP2 SWAP1 POP JUMP JUMPDEST PUSH0 PUSH2 0x3831 DUP3 PUSH2 0x3816 JUMP JUMPDEST SWAP1 POP SWAP2 SWAP1 POP JUMP JUMPDEST PUSH2 0x3849 PUSH2 0x3844 DUP3 PUSH2 0x2307 JUMP JUMPDEST PUSH2 0x3827 JUMP JUMPDEST DUP3 MSTORE POP POP JUMP JUMPDEST PUSH0 DUP2 SWAP1 POP SWAP2 SWAP1 POP JUMP JUMPDEST PUSH2 0x3869 PUSH2 0x3864 DUP3 PUSH2 0x249B JUMP JUMPDEST PUSH2 0x384F JUMP JUMPDEST DUP3 MSTORE POP POP JUMP JUMPDEST PUSH0 PUSH2 0x3879 DUP3 PUSH2 0x37E8 JUMP JUMPDEST SWAP2 POP PUSH2 0x3885 DUP3 DUP6 PUSH2 0x3838 JUMP JUMPDEST PUSH1 0x14 DUP3 ADD SWAP2 POP PUSH2 0x3895 DUP3 DUP5 PUSH2 0x3858 JUMP JUMPDEST PUSH1 0x20 DUP3 ADD SWAP2 POP DUP2 SWAP1 POP SWAP4 SWAP3 POP POP POP JUMP JUMPDEST PUSH32 0x53657175656E6365206E657374656420636F6E6669673A0A0000000000000000 PUSH0 DUP3 ADD MSTORE POP JUMP JUMPDEST PUSH0 PUSH2 0x38D9 PUSH1 0x18 DUP4 PUSH2 0x3320 JUMP JUMPDEST SWAP2 POP PUSH2 0x38E4 DUP3 PUSH2 0x38A5 JUMP JUMPDEST PUSH1 0x18 DUP3 ADD SWAP1 POP SWAP2 SWAP1 POP JUMP JUMPDEST PUSH0 PUSH2 0x38F9 DUP3 PUSH2 0x38CD JUMP JUMPDEST SWAP2 POP PUSH2 0x3905 DUP3 DUP7 PUSH2 0x337D JUMP JUMPDEST PUSH1 0x20 DUP3 ADD SWAP2 POP PUSH2 0x3915 DUP3 DUP6 PUSH2 0x3858 JUMP JUMPDEST PUSH1 0x20 DUP3 ADD SWAP2 POP PUSH2 0x3925 DUP3 DUP5 PUSH2 0x3858 JUMP JUMPDEST PUSH1 0x20 DUP3 ADD SWAP2 POP DUP2 SWAP1 POP SWAP5 SWAP4 POP POP POP POP JUMP JUMPDEST PUSH32 0x53657175656E636520737461746963206469676573743A0A0000000000000000 PUSH0 DUP3 ADD MSTORE POP JUMP JUMPDEST PUSH0 PUSH2 0x396A PUSH1 0x18 DUP4 PUSH2 0x3320 JUMP JUMPDEST SWAP2 POP PUSH2 0x3975 DUP3 PUSH2 0x3936 JUMP JUMPDEST PUSH1 0x18 DUP3 ADD SWAP1 POP SWAP2 SWAP1 POP JUMP JUMPDEST PUSH0 PUSH2 0x398A DUP3 PUSH2 0x395E JUMP JUMPDEST SWAP2 POP PUSH2 0x3996 DUP3 DUP5 PUSH2 0x337D JUMP JUMPDEST PUSH1 0x20 DUP3 ADD SWAP2 POP DUP2 SWAP1 POP SWAP3 SWAP2 POP POP JUMP JUMPDEST PUSH32 0x53657175656E636520616E792061646472657373207375626469676573743A0A PUSH0 DUP3 ADD MSTORE POP JUMP JUMPDEST PUSH0 PUSH2 0x39D9 PUSH1 0x20 DUP4 PUSH2 0x3320 JUMP JUMPDEST SWAP2 POP PUSH2 0x39E4 DUP3 PUSH2 0x39A5 JUMP JUMPDEST PUSH1 0x20 DUP3 ADD SWAP1 POP SWAP2 SWAP1 POP JUMP JUMPDEST PUSH0 PUSH2 0x39F9 DUP3 PUSH2 0x39CD JUMP JUMPDEST SWAP2 POP PUSH2 0x3A05 DUP3 DUP5 PUSH2 0x337D JUMP JUMPDEST PUSH1 0x20 DUP3 ADD SWAP2 POP DUP2 SWAP1 POP SWAP3 SWAP2 POP POP JUMP JUMPDEST PUSH32 0x53657175656E63652073617069656E7420636F6E6669673A0A00000000000000 PUSH0 DUP3 ADD MSTORE POP JUMP JUMPDEST PUSH0 PUSH2 0x3A48 PUSH1 0x19 DUP4 PUSH2 0x3320 JUMP JUMPDEST SWAP2 POP PUSH2 0x3A53 DUP3 PUSH2 0x3A14 JUMP JUMPDEST PUSH1 0x19 DUP3 ADD SWAP1 POP SWAP2 SWAP1 POP JUMP JUMPDEST PUSH0 PUSH2 0x3A68 DUP3 PUSH2 0x3A3C JUMP JUMPDEST SWAP2 POP PUSH2 0x3A74 DUP3 DUP7 PUSH2 0x3838 JUMP JUMPDEST PUSH1 0x14 DUP3 ADD SWAP2 POP PUSH2 0x3A84 DUP3 DUP6 PUSH2 0x3858 JUMP JUMPDEST PUSH1 0x20 DUP3 ADD SWAP2 POP PUSH2 0x3A94 DUP3 DUP5 PUSH2 0x337D JUMP JUMPDEST PUSH1 0x20 DUP3 ADD SWAP2 POP DUP2 SWAP1 POP SWAP5 SWAP4 POP POP POP POP JUMP JUMPDEST PUSH0 DUP2 SWAP1 POP SWAP3 SWAP2 POP POP JUMP JUMPDEST PUSH0 PUSH2 0x3AB9 DUP3 PUSH2 0x2D46 JUMP JUMPDEST PUSH2 0x3AC3 DUP2 DUP6 PUSH2 0x3AA5 JUMP JUMPDEST SWAP4 POP PUSH2 0x3AD3 DUP2 DUP6 PUSH1 0x20 DUP7 ADD PUSH2 0x2D60 JUMP JUMPDEST DUP1 DUP5 ADD SWAP2 POP POP SWAP3 SWAP2 POP POP JUMP JUMPDEST PUSH0 PUSH2 0x3AEA DUP3 DUP6 PUSH2 0x3AAF JUMP JUMPDEST SWAP2 POP PUSH2 0x3AF6 DUP3 DUP5 PUSH2 0x337D JUMP JUMPDEST PUSH1 0x20 DUP3 ADD SWAP2 POP DUP2 SWAP1 POP SWAP4 SWAP3 POP POP POP JUMP JUMPDEST PUSH0 PUSH2 0x100 DUP3 ADD SWAP1 POP PUSH2 0x3B1A PUSH0 DUP4 ADD DUP12 PUSH2 0x29F4 JUMP JUMPDEST PUSH2 0x3B27 PUSH1 0x20 DUP4 ADD DUP11 PUSH2 0x2AF7 JUMP JUMPDEST PUSH2 0x3B34 PUSH1 0x40 DUP4 ADD DUP10 PUSH2 0x2B06 JUMP JUMPDEST PUSH2 0x3B41 PUSH1 0x60 DUP4 ADD DUP9 PUSH2 0x29F4 JUMP JUMPDEST PUSH2 0x3B4E PUSH1 0x80 DUP4 ADD DUP8 PUSH2 0x2B06 JUMP JUMPDEST PUSH2 0x3B5B PUSH1 0xA0 DUP4 ADD DUP7 PUSH2 0x2B55 JUMP JUMPDEST PUSH2 0x3B68 PUSH1 0xC0 DUP4 ADD DUP6 PUSH2 0x2B55 JUMP JUMPDEST PUSH2 0x3B75 PUSH1 0xE0 DUP4 ADD DUP5 PUSH2 0x2B06 JUMP JUMPDEST SWAP10 SWAP9 POP POP POP POP POP POP POP POP POP JUMP INVALID LOG2 PUSH5 0x6970667358 0x22 SLT KECCAK256 SWAP16 BASEFEE SWAP16 PUSH2 0x5F10 0xE4 PUSH14 0xD8B204A31451393CA86F5F06BF3A CODECOPY SHL PUSH24 0x65DE0941C53F0E64736F6C634300081C0033000000000000 "
				}
			},
			"userdoc": {
				"kind": "user",
				"methods": {
					"isValidSignature(bytes32,bytes)": {
						"notice": "Verifies whether the provided signature is valid with respect to the provided hash"
					},
					"recoverSapientSignature((uint8,bool,(address,uint256,bytes,uint256,bool,bool,uint256)[],uint256,uint256,bytes,bytes32,bytes32,address[]),bytes)": {
						"notice": "Recovers the root hash of a given signature"
					}
				},
				"version": 1
			}
		}
	}
}