{
	"src/Stage2Module.sol": {
		"Stage2Module": {
			"abi": [
				{
					"inputs": [
						{
							"internalType": "uint256",
							"name": "_space",
							"type": "uint256"
						},
						{
							"internalType": "uint256",
							"name": "_provided",
							"type": "uint256"
						},
						{
							"internalType": "uint256",
							"name": "_current",
							"type": "uint256"
						}
					],
					"name": "BadNonce",
					"type": "error"
				},
				{
					"inputs": [
						{
							"internalType": "bytes4",
							"name": "signature",
							"type": "bytes4"
						}
					],
					"name": "HookAlreadyExists",
					"type": "error"
				},
				{
					"inputs": [
						{
							"internalType": "bytes4",
							"name": "signature",
							"type": "bytes4"
						}
					],
					"name": "HookDoesNotExist",
					"type": "error"
				},
				{
					"inputs": [],
					"name": "ImageHashIsZero",
					"type": "error"
				},
				{
					"inputs": [
						{
							"internalType": "bytes32",
							"name": "_opHash",
							"type": "bytes32"
						},
						{
							"internalType": "address",
							"name": "_signer",
							"type": "address"
						},
						{
							"internalType": "bytes",
							"name": "_signature",
							"type": "bytes"
						}
					],
					"name": "InvalidERC1271Signature",
					"type": "error"
				},
				{
					"inputs": [
						{
							"internalType": "uint8",
							"name": "kind",
							"type": "uint8"
						}
					],
					"name": "InvalidKind",
					"type": "error"
				},
				{
					"inputs": [
						{
							"components": [
								{
									"internalType": "uint8",
									"name": "kind",
									"type": "uint8"
								},
								{
									"internalType": "bool",
									"name": "noChainId",
									"type": "bool"
								},
								{
									"components": [
										{
											"internalType": "address",
											"name": "to",
											"type": "address"
										},
										{
											"internalType": "uint256",
											"name": "value",
											"type": "uint256"
										},
										{
											"internalType": "bytes",
											"name": "data",
											"type": "bytes"
										},
										{
											"internalType": "uint256",
											"name": "gasLimit",
											"type": "uint256"
										},
										{
											"internalType": "bool",
											"name": "delegateCall",
											"type": "bool"
										},
										{
											"internalType": "bool",
											"name": "onlyFallback",
											"type": "bool"
										},
										{
											"internalType": "uint256",
											"name": "behaviorOnError",
											"type": "uint256"
										}
									],
									"internalType": "struct Payload.Call[]",
									"name": "calls",
									"type": "tuple[]"
								},
								{
									"internalType": "uint256",
									"name": "space",
									"type": "uint256"
								},
								{
									"internalType": "uint256",
									"name": "nonce",
									"type": "uint256"
								},
								{
									"internalType": "bytes",
									"name": "message",
									"type": "bytes"
								},
								{
									"internalType": "bytes32",
									"name": "imageHash",
									"type": "bytes32"
								},
								{
									"internalType": "bytes32",
									"name": "digest",
									"type": "bytes32"
								},
								{
									"internalType": "address[]",
									"name": "parentWallets",
									"type": "address[]"
								}
							],
							"internalType": "struct Payload.Decoded",
							"name": "_payload",
							"type": "tuple"
						},
						{
							"internalType": "bytes",
							"name": "_signature",
							"type": "bytes"
						}
					],
					"name": "InvalidSapientSignature",
					"type": "error"
				},
				{
					"inputs": [
						{
							"components": [
								{
									"internalType": "uint8",
									"name": "kind",
									"type": "uint8"
								},
								{
									"internalType": "bool",
									"name": "noChainId",
									"type": "bool"
								},
								{
									"components": [
										{
											"internalType": "address",
											"name": "to",
											"type": "address"
										},
										{
											"internalType": "uint256",
											"name": "value",
											"type": "uint256"
										},
										{
											"internalType": "bytes",
											"name": "data",
											"type": "bytes"
										},
										{
											"internalType": "uint256",
											"name": "gasLimit",
											"type": "uint256"
										},
										{
											"internalType": "bool",
											"name": "delegateCall",
											"type": "bool"
										},
										{
											"internalType": "bool",
											"name": "onlyFallback",
											"type": "bool"
										},
										{
											"internalType": "uint256",
											"name": "behaviorOnError",
											"type": "uint256"
										}
									],
									"internalType": "struct Payload.Call[]",
									"name": "calls",
									"type": "tuple[]"
								},
								{
									"internalType": "uint256",
									"name": "space",
									"type": "uint256"
								},
								{
									"internalType": "uint256",
									"name": "nonce",
									"type": "uint256"
								},
								{
									"internalType": "bytes",
									"name": "message",
									"type": "bytes"
								},
								{
									"internalType": "bytes32",
									"name": "imageHash",
									"type": "bytes32"
								},
								{
									"internalType": "bytes32",
									"name": "digest",
									"type": "bytes32"
								},
								{
									"internalType": "address[]",
									"name": "parentWallets",
									"type": "address[]"
								}
							],
							"internalType": "struct Payload.Decoded",
							"name": "_payload",
							"type": "tuple"
						},
						{
							"internalType": "bytes",
							"name": "_signature",
							"type": "bytes"
						}
					],
					"name": "InvalidSignature",
					"type": "error"
				},
				{
					"inputs": [
						{
							"internalType": "uint256",
							"name": "_flag",
							"type": "uint256"
						}
					],
					"name": "InvalidSignatureFlag",
					"type": "error"
				},
				{
					"inputs": [
						{
							"internalType": "uint256",
							"name": "_threshold",
							"type": "uint256"
						},
						{
							"internalType": "uint256",
							"name": "_weight",
							"type": "uint256"
						}
					],
					"name": "InvalidSignatureWeight",
					"type": "error"
				},
				{
					"inputs": [
						{
							"internalType": "bytes32",
							"name": "_opHash",
							"type": "bytes32"
						},
						{
							"internalType": "uint256",
							"name": "_expires",
							"type": "uint256"
						}
					],
					"name": "InvalidStaticSignatureExpired",
					"type": "error"
				},
				{
					"inputs": [
						{
							"internalType": "bytes32",
							"name": "_opHash",
							"type": "bytes32"
						},
						{
							"internalType": "address",
							"name": "_caller",
							"type": "address"
						},
						{
							"internalType": "address",
							"name": "_expectedCaller",
							"type": "address"
						}
					],
					"name": "InvalidStaticSignatureWrongCaller",
					"type": "error"
				},
				{
					"inputs": [
						{
							"internalType": "bytes",
							"name": "_signature",
							"type": "bytes"
						},
						{
							"internalType": "uint256",
							"name": "_threshold",
							"type": "uint256"
						},
						{
							"internalType": "uint256",
							"name": "_weight",
							"type": "uint256"
						}
					],
					"name": "LowWeightChainedSignature",
					"type": "error"
				},
				{
					"inputs": [
						{
							"components": [
								{
									"internalType": "uint8",
									"name": "kind",
									"type": "uint8"
								},
								{
									"internalType": "bool",
									"name": "noChainId",
									"type": "bool"
								},
								{
									"components": [
										{
											"internalType": "address",
											"name": "to",
											"type": "address"
										},
										{
											"internalType": "uint256",
											"name": "value",
											"type": "uint256"
										},
										{
											"internalType": "bytes",
											"name": "data",
											"type": "bytes"
										},
										{
											"internalType": "uint256",
											"name": "gasLimit",
											"type": "uint256"
										},
										{
											"internalType": "bool",
											"name": "delegateCall",
											"type": "bool"
										},
										{
											"internalType": "bool",
											"name": "onlyFallback",
											"type": "bool"
										},
										{
											"internalType": "uint256",
											"name": "behaviorOnError",
											"type": "uint256"
										}
									],
									"internalType": "struct Payload.Call[]",
									"name": "calls",
									"type": "tuple[]"
								},
								{
									"internalType": "uint256",
									"name": "space",
									"type": "uint256"
								},
								{
									"internalType": "uint256",
									"name": "nonce",
									"type": "uint256"
								},
								{
									"internalType": "bytes",
									"name": "message",
									"type": "bytes"
								},
								{
									"internalType": "bytes32",
									"name": "imageHash",
									"type": "bytes32"
								},
								{
									"internalType": "bytes32",
									"name": "digest",
									"type": "bytes32"
								},
								{
									"internalType": "address[]",
									"name": "parentWallets",
									"type": "address[]"
								}
							],
							"internalType": "struct Payload.Decoded",
							"name": "_payload",
							"type": "tuple"
						},
						{
							"internalType": "uint256",
							"name": "_index",
							"type": "uint256"
						},
						{
							"internalType": "uint256",
							"name": "_gasLeft",
							"type": "uint256"
						}
					],
					"name": "NotEnoughGas",
					"type": "error"
				},
				{
					"inputs": [
						{
							"internalType": "address",
							"name": "_sender",
							"type": "address"
						}
					],
					"name": "OnlySelf",
					"type": "error"
				},
				{
					"inputs": [
						{
							"components": [
								{
									"internalType": "uint8",
									"name": "kind",
									"type": "uint8"
								},
								{
									"internalType": "bool",
									"name": "noChainId",
									"type": "bool"
								},
								{
									"components": [
										{
											"internalType": "address",
											"name": "to",
											"type": "address"
										},
										{
											"internalType": "uint256",
											"name": "value",
											"type": "uint256"
										},
										{
											"internalType": "bytes",
											"name": "data",
											"type": "bytes"
										},
										{
											"internalType": "uint256",
											"name": "gasLimit",
											"type": "uint256"
										},
										{
											"internalType": "bool",
											"name": "delegateCall",
											"type": "bool"
										},
										{
											"internalType": "bool",
											"name": "onlyFallback",
											"type": "bool"
										},
										{
											"internalType": "uint256",
											"name": "behaviorOnError",
											"type": "uint256"
										}
									],
									"internalType": "struct Payload.Call[]",
									"name": "calls",
									"type": "tuple[]"
								},
								{
									"internalType": "uint256",
									"name": "space",
									"type": "uint256"
								},
								{
									"internalType": "uint256",
									"name": "nonce",
									"type": "uint256"
								},
								{
									"internalType": "bytes",
									"name": "message",
									"type": "bytes"
								},
								{
									"internalType": "bytes32",
									"name": "imageHash",
									"type": "bytes32"
								},
								{
									"internalType": "bytes32",
									"name": "digest",
									"type": "bytes32"
								},
								{
									"internalType": "address[]",
									"name": "parentWallets",
									"type": "address[]"
								}
							],
							"internalType": "struct Payload.Decoded",
							"name": "_payload",
							"type": "tuple"
						},
						{
							"internalType": "uint256",
							"name": "_index",
							"type": "uint256"
						},
						{
							"internalType": "bytes",
							"name": "_returnData",
							"type": "bytes"
						}
					],
					"name": "Reverted",
					"type": "error"
				},
				{
					"inputs": [
						{
							"components": [
								{
									"internalType": "bytes32",
									"name": "imageHash",
									"type": "bytes32"
								},
								{
									"internalType": "uint256",
									"name": "checkpoint",
									"type": "uint256"
								}
							],
							"internalType": "struct Snapshot",
							"name": "_snapshot",
							"type": "tuple"
						}
					],
					"name": "UnusedSnapshot",
					"type": "error"
				},
				{
					"inputs": [
						{
							"internalType": "uint256",
							"name": "_nextCheckpoint",
							"type": "uint256"
						},
						{
							"internalType": "uint256",
							"name": "_checkpoint",
							"type": "uint256"
						}
					],
					"name": "WrongChainedCheckpointOrder",
					"type": "error"
				},
				{
					"anonymous": false,
					"inputs": [
						{
							"indexed": false,
							"internalType": "bytes32",
							"name": "_opHash",
							"type": "bytes32"
						},
						{
							"indexed": false,
							"internalType": "uint256",
							"name": "_index",
							"type": "uint256"
						},
						{
							"indexed": false,
							"internalType": "bytes",
							"name": "_returnData",
							"type": "bytes"
						}
					],
					"name": "CallAborted",
					"type": "event"
				},
				{
					"anonymous": false,
					"inputs": [
						{
							"indexed": false,
							"internalType": "bytes32",
							"name": "_opHash",
							"type": "bytes32"
						},
						{
							"indexed": false,
							"internalType": "uint256",
							"name": "_index",
							"type": "uint256"
						},
						{
							"indexed": false,
							"internalType": "bytes",
							"name": "_returnData",
							"type": "bytes"
						}
					],
					"name": "CallFailed",
					"type": "event"
				},
				{
					"anonymous": false,
					"inputs": [
						{
							"indexed": false,
							"internalType": "bytes32",
							"name": "_opHash",
							"type": "bytes32"
						},
						{
							"indexed": false,
							"internalType": "uint256",
							"name": "_index",
							"type": "uint256"
						}
					],
					"name": "CallSkipped",
					"type": "event"
				},
				{
					"anonymous": false,
					"inputs": [
						{
							"indexed": false,
							"internalType": "bytes32",
							"name": "_opHash",
							"type": "bytes32"
						},
						{
							"indexed": false,
							"internalType": "uint256",
							"name": "_index",
							"type": "uint256"
						}
					],
					"name": "CallSucceeded",
					"type": "event"
				},
				{
					"anonymous": false,
					"inputs": [
						{
							"indexed": false,
							"internalType": "bytes4",
							"name": "signature",
							"type": "bytes4"
						},
						{
							"indexed": false,
							"internalType": "address",
							"name": "implementation",
							"type": "address"
						}
					],
					"name": "DefinedHook",
					"type": "event"
				},
				{
					"anonymous": false,
					"inputs": [
						{
							"indexed": false,
							"internalType": "bytes32",
							"name": "newImageHash",
							"type": "bytes32"
						}
					],
					"name": "ImageHashUpdated",
					"type": "event"
				},
				{
					"anonymous": false,
					"inputs": [
						{
							"indexed": false,
							"internalType": "address",
							"name": "newImplementation",
							"type": "address"
						}
					],
					"name": "ImplementationUpdated",
					"type": "event"
				},
				{
					"anonymous": false,
					"inputs": [
						{
							"indexed": false,
							"internalType": "uint256",
							"name": "_space",
							"type": "uint256"
						},
						{
							"indexed": false,
							"internalType": "uint256",
							"name": "_newNonce",
							"type": "uint256"
						}
					],
					"name": "NonceChange",
					"type": "event"
				},
				{
					"anonymous": false,
					"inputs": [
						{
							"indexed": false,
							"internalType": "bytes32",
							"name": "_hash",
							"type": "bytes32"
						},
						{
							"indexed": false,
							"internalType": "address",
							"name": "_address",
							"type": "address"
						},
						{
							"indexed": false,
							"internalType": "uint96",
							"name": "_timestamp",
							"type": "uint96"
						}
					],
					"name": "StaticSignatureSet",
					"type": "event"
				},
				{
					"stateMutability": "payable",
					"type": "fallback"
				},
				{
					"inputs": [
						{
							"internalType": "bytes4",
							"name": "signature",
							"type": "bytes4"
						},
						{
							"internalType": "address",
							"name": "implementation",
							"type": "address"
						}
					],
					"name": "addHook",
					"outputs": [],
					"stateMutability": "payable",
					"type": "function"
				},
				{
					"inputs": [
						{
							"internalType": "bytes",
							"name": "_payload",
							"type": "bytes"
						},
						{
							"internalType": "bytes",
							"name": "_signature",
							"type": "bytes"
						}
					],
					"name": "execute",
					"outputs": [],
					"stateMutability": "payable",
					"type": "function"
				},
				{
					"inputs": [],
					"name": "getImplementation",
					"outputs": [
						{
							"internalType": "address",
							"name": "",
							"type": "address"
						}
					],
					"stateMutability": "view",
					"type": "function"
				},
				{
					"inputs": [
						{
							"internalType": "bytes32",
							"name": "_hash",
							"type": "bytes32"
						}
					],
					"name": "getStaticSignature",
					"outputs": [
						{
							"internalType": "address",
							"name": "",
							"type": "address"
						},
						{
							"internalType": "uint256",
							"name": "",
							"type": "uint256"
						}
					],
					"stateMutability": "view",
					"type": "function"
				},
				{
					"inputs": [],
					"name": "imageHash",
					"outputs": [
						{
							"internalType": "bytes32",
							"name": "",
							"type": "bytes32"
						}
					],
					"stateMutability": "view",
					"type": "function"
				},
				{
					"inputs": [
						{
							"internalType": "bytes32",
							"name": "_hash",
							"type": "bytes32"
						},
						{
							"internalType": "bytes",
							"name": "_signature",
							"type": "bytes"
						}
					],
					"name": "isValidSignature",
					"outputs": [
						{
							"internalType": "bytes4",
							"name": "",
							"type": "bytes4"
						}
					],
					"stateMutability": "view",
					"type": "function"
				},
				{
					"inputs": [
						{
							"internalType": "address",
							"name": "",
							"type": "address"
						},
						{
							"internalType": "address",
							"name": "",
							"type": "address"
						},
						{
							"internalType": "uint256[]",
							"name": "",
							"type": "uint256[]"
						},
						{
							"internalType": "uint256[]",
							"name": "",
							"type": "uint256[]"
						},
						{
							"internalType": "bytes",
							"name": "",
							"type": "bytes"
						}
					],
					"name": "onERC1155BatchReceived",
					"outputs": [
						{
							"internalType": "bytes4",
							"name": "",
							"type": "bytes4"
						}
					],
					"stateMutability": "pure",
					"type": "function"
				},
				{
					"inputs": [
						{
							"internalType": "address",
							"name": "",
							"type": "address"
						},
						{
							"internalType": "address",
							"name": "",
							"type": "address"
						},
						{
							"internalType": "uint256",
							"name": "",
							"type": "uint256"
						},
						{
							"internalType": "uint256",
							"name": "",
							"type": "uint256"
						},
						{
							"internalType": "bytes",
							"name": "",
							"type": "bytes"
						}
					],
					"name": "onERC1155Received",
					"outputs": [
						{
							"internalType": "bytes4",
							"name": "",
							"type": "bytes4"
						}
					],
					"stateMutability": "pure",
					"type": "function"
				},
				{
					"inputs": [
						{
							"internalType": "address",
							"name": "",
							"type": "address"
						},
						{
							"internalType": "address",
							"name": "",
							"type": "address"
						},
						{
							"internalType": "uint256",
							"name": "",
							"type": "uint256"
						},
						{
							"internalType": "bytes",
							"name": "",
							"type": "bytes"
						}
					],
					"name": "onERC721Received",
					"outputs": [
						{
							"internalType": "bytes4",
							"name": "",
							"type": "bytes4"
						}
					],
					"stateMutability": "pure",
					"type": "function"
				},
				{
					"inputs": [
						{
							"internalType": "bytes4",
							"name": "signature",
							"type": "bytes4"
						}
					],
					"name": "readHook",
					"outputs": [
						{
							"internalType": "address",
							"name": "",
							"type": "address"
						}
					],
					"stateMutability": "view",
					"type": "function"
				},
				{
					"inputs": [
						{
							"internalType": "uint256",
							"name": "_space",
							"type": "uint256"
						}
					],
					"name": "readNonce",
					"outputs": [
						{
							"internalType": "uint256",
							"name": "",
							"type": "uint256"
						}
					],
					"stateMutability": "view",
					"type": "function"
				},
				{
					"inputs": [
						{
							"components": [
								{
									"internalType": "uint8",
									"name": "kind",
									"type": "uint8"
								},
								{
									"internalType": "bool",
									"name": "noChainId",
									"type": "bool"
								},
								{
									"components": [
										{
											"internalType": "address",
											"name": "to",
											"type": "address"
										},
										{
											"internalType": "uint256",
											"name": "value",
											"type": "uint256"
										},
										{
											"internalType": "bytes",
											"name": "data",
											"type": "bytes"
										},
										{
											"internalType": "uint256",
											"name": "gasLimit",
											"type": "uint256"
										},
										{
											"internalType": "bool",
											"name": "delegateCall",
											"type": "bool"
										},
										{
											"internalType": "bool",
											"name": "onlyFallback",
											"type": "bool"
										},
										{
											"internalType": "uint256",
											"name": "behaviorOnError",
											"type": "uint256"
										}
									],
									"internalType": "struct Payload.Call[]",
									"name": "calls",
									"type": "tuple[]"
								},
								{
									"internalType": "uint256",
									"name": "space",
									"type": "uint256"
								},
								{
									"internalType": "uint256",
									"name": "nonce",
									"type": "uint256"
								},
								{
									"internalType": "bytes",
									"name": "message",
									"type": "bytes"
								},
								{
									"internalType": "bytes32",
									"name": "imageHash",
									"type": "bytes32"
								},
								{
									"internalType": "bytes32",
									"name": "digest",
									"type": "bytes32"
								},
								{
									"internalType": "address[]",
									"name": "parentWallets",
									"type": "address[]"
								}
							],
							"internalType": "struct Payload.Decoded",
							"name": "_payload",
							"type": "tuple"
						},
						{
							"internalType": "bytes",
							"name": "_signature",
							"type": "bytes"
						}
					],
					"name": "recoverPartialSignature",
					"outputs": [
						{
							"internalType": "uint256",
							"name": "threshold",
							"type": "uint256"
						},
						{
							"internalType": "uint256",
							"name": "weight",
							"type": "uint256"
						},
						{
							"internalType": "bool",
							"name": "isValidImage",
							"type": "bool"
						},
						{
							"internalType": "bytes32",
							"name": "imageHash",
							"type": "bytes32"
						},
						{
							"internalType": "uint256",
							"name": "checkpoint",
							"type": "uint256"
						},
						{
							"internalType": "bytes32",
							"name": "opHash",
							"type": "bytes32"
						}
					],
					"stateMutability": "view",
					"type": "function"
				},
				{
					"inputs": [
						{
							"components": [
								{
									"internalType": "uint8",
									"name": "kind",
									"type": "uint8"
								},
								{
									"internalType": "bool",
									"name": "noChainId",
									"type": "bool"
								},
								{
									"components": [
										{
											"internalType": "address",
											"name": "to",
											"type": "address"
										},
										{
											"internalType": "uint256",
											"name": "value",
											"type": "uint256"
										},
										{
											"internalType": "bytes",
											"name": "data",
											"type": "bytes"
										},
										{
											"internalType": "uint256",
											"name": "gasLimit",
											"type": "uint256"
										},
										{
											"internalType": "bool",
											"name": "delegateCall",
											"type": "bool"
										},
										{
											"internalType": "bool",
											"name": "onlyFallback",
											"type": "bool"
										},
										{
											"internalType": "uint256",
											"name": "behaviorOnError",
											"type": "uint256"
										}
									],
									"internalType": "struct Payload.Call[]",
									"name": "calls",
									"type": "tuple[]"
								},
								{
									"internalType": "uint256",
									"name": "space",
									"type": "uint256"
								},
								{
									"internalType": "uint256",
									"name": "nonce",
									"type": "uint256"
								},
								{
									"internalType": "bytes",
									"name": "message",
									"type": "bytes"
								},
								{
									"internalType": "bytes32",
									"name": "imageHash",
									"type": "bytes32"
								},
								{
									"internalType": "bytes32",
									"name": "digest",
									"type": "bytes32"
								},
								{
									"internalType": "address[]",
									"name": "parentWallets",
									"type": "address[]"
								}
							],
							"internalType": "struct Payload.Decoded",
							"name": "_payload",
							"type": "tuple"
						},
						{
							"internalType": "bytes",
							"name": "_signature",
							"type": "bytes"
						}
					],
					"name": "recoverSapientSignature",
					"outputs": [
						{
							"internalType": "bytes32",
							"name": "",
							"type": "bytes32"
						}
					],
					"stateMutability": "view",
					"type": "function"
				},
				{
					"inputs": [
						{
							"internalType": "bytes4",
							"name": "signature",
							"type": "bytes4"
						}
					],
					"name": "removeHook",
					"outputs": [],
					"stateMutability": "payable",
					"type": "function"
				},
				{
					"inputs": [
						{
							"internalType": "bytes",
							"name": "_payload",
							"type": "bytes"
						}
					],
					"name": "selfExecute",
					"outputs": [],
					"stateMutability": "payable",
					"type": "function"
				},
				{
					"inputs": [
						{
							"internalType": "bytes32",
							"name": "_hash",
							"type": "bytes32"
						},
						{
							"internalType": "address",
							"name": "_address",
							"type": "address"
						},
						{
							"internalType": "uint96",
							"name": "_timestamp",
							"type": "uint96"
						}
					],
					"name": "setStaticSignature",
					"outputs": [],
					"stateMutability": "nonpayable",
					"type": "function"
				},
				{
					"inputs": [
						{
							"internalType": "address",
							"name": "",
							"type": "address"
						},
						{
							"internalType": "uint256",
							"name": "",
							"type": "uint256"
						},
						{
							"internalType": "bytes",
							"name": "",
							"type": "bytes"
						}
					],
					"name": "tokenReceived",
					"outputs": [],
					"stateMutability": "nonpayable",
					"type": "function"
				},
				{
					"inputs": [
						{
							"internalType": "bytes32",
							"name": "_imageHash",
							"type": "bytes32"
						}
					],
					"name": "updateImageHash",
					"outputs": [],
					"stateMutability": "nonpayable",
					"type": "function"
				},
				{
					"inputs": [
						{
							"internalType": "address",
							"name": "_implementation",
							"type": "address"
						}
					],
					"name": "updateImplementation",
					"outputs": [],
					"stateMutability": "payable",
					"type": "function"
				},
				{
					"stateMutability": "payable",
					"type": "receive"
				}
			],
			"devdoc": {
				"kind": "dev",
				"methods": {
					"isValidSignature(bytes32,bytes)": {
						"details": "MUST return the correct magic value if the signature provided is valid for the provided hash   > The bytes4 magic value to return when signature is valid is 0x20c13b0b : bytes4(keccak256(\"isValidSignature(bytes,bytes)\")   > This function MAY modify Ethereum's state",
						"params": {
							"_hash": "keccak256 hash that was signed",
							"_signature": "Signature byte array associated with _data"
						},
						"returns": {
							"_0": "Magic value 0x20c13b0b if the signature is valid and 0x0 otherwise"
						}
					}
				},
				"version": 1
			},
			"evm": {
				"bytecode": {
					"linkReferences": {},
					"object": "6080604052348015600e575f5ffd5b5061537c8061001c5f395ff3fe608060405260043610610117575f3560e01c80636ea445771161009f578063ad55366b11610063578063ad55366b14610475578063b93ea7ad146104b6578063bc197c81146104d2578063f23a6e611461050e578063f727ef1c1461054a5761011e565b80636ea445771461038e5780638943ec02146103aa5780638c3f5563146103d257806392dcb3fc1461040e578063aaf10f421461044b5761011e565b80631a9b2337116100e65780631a9b2337146102c85780631f6a1eb91461030457806329561426146103205780634fcf3eca1461034857806351605d80146103645761011e565b8063025b22bc146101f857806313792a4a14610214578063150b7a02146102505780631626ba7e1461028c5761011e565b3661011e57005b60045f369050106101f6575f61013f5f369061013a9190613487565b610572565b90505f73ffffffffffffffffffffffffffffffffffffffff168173ffffffffffffffffffffffffffffffffffffffff16146101f4575f5f8273ffffffffffffffffffffffffffffffffffffffff165f3660405161019d929190613521565b5f60405180830381855af49150503d805f81146101d5576040519150601f19603f3d011682016040523d82523d5f602084013e6101da565b606091505b5091509150816101ec57805160208201fd5b805160208201f35b505b005b610212600480360381019061020d91906135a4565b6105c7565b005b34801561021f575f5ffd5b5061023a60048036038101906102359190613bcf565b610643565b6040516102479190613c57565b60405180910390f35b34801561025b575f5ffd5b5061027660048036038101906102719190613c70565b6107f2565b6040516102839190613d03565b60405180910390f35b348015610297575f5ffd5b506102b260048036038101906102ad9190613d1c565b610806565b6040516102bf9190613d03565b60405180910390f35b3480156102d3575f5ffd5b506102ee60048036038101906102e99190613da3565b610848565b6040516102fb9190613ddd565b60405180910390f35b61031e60048036038101906103199190613df6565b610859565b005b34801561032b575f5ffd5b5061034660048036038101906103419190613e74565b6108e8565b005b610362600480360381019061035d9190613da3565b610964565b005b34801561036f575f5ffd5b50610378610a59565b6040516103859190613c57565b60405180910390f35b6103a860048036038101906103a39190613e9f565b610a8a565b005b3480156103b5575f5ffd5b506103d060048036038101906103cb9190613eea565b610b29565b005b3480156103dd575f5ffd5b506103f860048036038101906103f39190613f5b565b610b2f565b6040516104059190613f95565b60405180910390f35b348015610419575f5ffd5b50610434600480360381019061042f9190613e74565b610b67565b604051610442929190613fae565b60405180910390f35b348015610456575f5ffd5b5061045f610b7b565b60405161046c9190613ddd565b60405180910390f35b348015610480575f5ffd5b5061049b60048036038101906104969190613bcf565b610b89565b6040516104ad96959493929190613fe4565b60405180910390f35b6104d060048036038101906104cb9190614043565b610bc7565b005b3480156104dd575f5ffd5b506104f860048036038101906104f391906140d6565b610cbd565b6040516105059190613d03565b60405180910390f35b348015610519575f5ffd5b50610534600480360381019061052f91906141ad565b610cd4565b6040516105419190613d03565b60405180910390f35b348015610555575f5ffd5b50610570600480360381019061056b9190614284565b610ce9565b005b5f6105be7fbe27a319efc8734e89e26ba4bc95f5c788584163b959f03fa04e2d7ab4b9a1205f1b837bffffffffffffffffffffffffffffffffffffffffffffffffffffffff1916610db2565b5f1c9050919050565b3073ffffffffffffffffffffffffffffffffffffffff163373ffffffffffffffffffffffffffffffffffffffff161461063757336040517fa19dbf0000000000000000000000000000000000000000000000000000000000815260040161062e9190613ddd565b60405180910390fd5b61064081610dea565b50565b5f5f6001856101000151516106589190614301565b67ffffffffffffffff811115610671576106706135e3565b5b60405190808252806020026020018201604052801561069f5781602001602082028036833780820191505090505b5090505f5f90505b8561010001515181101561072f5785610100015181815181106106cd576106cc614334565b5b60200260200101518282815181106106e8576106e7614334565b5b602002602001019073ffffffffffffffffffffffffffffffffffffffff16908173ffffffffffffffffffffffffffffffffffffffff168152505080806001019150506106a7565b503381866101000151518151811061074a57610749614334565b5b602002602001019073ffffffffffffffffffffffffffffffffffffffff16908173ffffffffffffffffffffffffffffffffffffffff1681525050808561010001819052505f61079a868686610e2d565b509050806107e3578585856040517ff58cc8b50000000000000000000000000000000000000000000000000000000081526004016107da93929190614714565b60405180910390fd5b60015f1b925050509392505050565b5f63150b7a0260e01b905095945050505050565b5f5f6108118561101d565b90505f61081f828686610e2d565b50905080610834575f60e01b92505050610841565b6320c13b0b60e01b925050505b9392505050565b5f61085282610572565b9050919050565b5f5a90505f6108688686611046565b905061087c816060015182608001516114e8565b5f5f610889838787610e2d565b91509150816108d3578286866040517fa2b6d61b0000000000000000000000000000000000000000000000000000000081526004016108ca93929190614714565b60405180910390fd5b6108de84828561158c565b5050505050505050565b3073ffffffffffffffffffffffffffffffffffffffff163373ffffffffffffffffffffffffffffffffffffffff161461095857336040517fa19dbf0000000000000000000000000000000000000000000000000000000000815260040161094f9190613ddd565b60405180910390fd5b610961816118bc565b50565b3073ffffffffffffffffffffffffffffffffffffffff163373ffffffffffffffffffffffffffffffffffffffff16146109d457336040517fa19dbf000000000000000000000000000000000000000000000000000000000081526004016109cb9190613ddd565b60405180910390fd5b5f73ffffffffffffffffffffffffffffffffffffffff166109f482610572565b73ffffffffffffffffffffffffffffffffffffffff1603610a4c57806040517f1c3812cc000000000000000000000000000000000000000000000000000000008152600401610a439190613d03565b60405180910390fd5b610a56815f61195d565b50565b5f610a857fea7157fa25e3aa17d0ae2d5280fa4e24d421c61842aa85e45194e1145aa72bf85f1b6119fe565b905090565b3073ffffffffffffffffffffffffffffffffffffffff163373ffffffffffffffffffffffffffffffffffffffff1614610afa57336040517fa19dbf00000000000000000000000000000000000000000000000000000000008152600401610af19190613ddd565b60405180910390fd5b5f5a90505f610b098484611046565b90505f610b1582611a08565b9050610b2283828461158c565b5050505050565b50505050565b5f610b5e7f8d0bf1fd623d628c741362c1289948e57b3e2905218c676d3e69abee36d6ae2e5f1b835f1b610db2565b5f1c9050919050565b5f5f610b7283611a58565b91509150915091565b5f610b84611aa9565b905090565b5f5f5f5f5f5f610b9c8989895f5f611ab1565b809550819650829750839950849a505050505050610bb983611dee565b935093975093979195509350565b3073ffffffffffffffffffffffffffffffffffffffff163373ffffffffffffffffffffffffffffffffffffffff1614610c3757336040517fa19dbf00000000000000000000000000000000000000000000000000000000008152600401610c2e9190613ddd565b60405180910390fd5b5f73ffffffffffffffffffffffffffffffffffffffff16610c5783610572565b73ffffffffffffffffffffffffffffffffffffffff1614610caf57816040517f5b4d6d6a000000000000000000000000000000000000000000000000000000008152600401610ca69190613d03565b60405180910390fd5b610cb9828261195d565b5050565b5f63bc197c8160e01b905098975050505050505050565b5f63f23a6e6160e01b90509695505050505050565b3073ffffffffffffffffffffffffffffffffffffffff163373ffffffffffffffffffffffffffffffffffffffff1614610d5957336040517fa19dbf00000000000000000000000000000000000000000000000000000000008152600401610d509190613ddd565b60405180910390fd5b610d728383836bffffffffffffffffffffffff16611dff565b7febf265acfac1c01de588ed7ef49743b9c3ce8d6d1edeaf510a1f5453228515b1838383604051610da59392919061475a565b60405180910390a1505050565b5f5f8383604051602001610dc792919061478f565b604051602081830303815290604052805190602001209050805491505092915050565b610df381611e5d565b7f310ba5f1d2ed074b51e2eccd052a47ae9ab7c6b800d1fca3db3999d6a592ca0381604051610e229190613ddd565b60405180910390a150565b5f5f5f84845f818110610e4357610e42614334565b5b9050013560f81c60f81b9050608060f81b608060f81b82167effffffffffffffffffffffffffffffffffffffffffffffffffffffffffffff191603610f9c57610e8b86611a08565b91505f5f610e9884611a58565b91509150428111610ee25783816040517ff95b6ab7000000000000000000000000000000000000000000000000000000008152600401610ed99291906147b6565b60405180910390fd5b5f73ffffffffffffffffffffffffffffffffffffffff168273ffffffffffffffffffffffffffffffffffffffff1614158015610f4a57503373ffffffffffffffffffffffffffffffffffffffff168273ffffffffffffffffffffffffffffffffffffffff1614155b15610f90578333836040517f8945c313000000000000000000000000000000000000000000000000000000008152600401610f87939291906147dd565b60405180910390fd5b60019450505050611015565b5f5f5f610fac8989895f5f611ab1565b905080985081945082955083965050505050828210156110055782826040517ffd41fcba000000000000000000000000000000000000000000000000000000008152600401610ffc929190614812565b60405180910390fd5b61100e81611dee565b9550505050505b935093915050565b611025613392565b6003815f019060ff16908160ff1681525050818160e0018181525050919050565b61104e613392565b5f815f019060ff16908160ff16815250505f5f61106b8585611e63565b915060ff16915060018083160361108b575f8360600181815250506110c7565b6110a0818686611e799290919263ffffffff16565b8173ffffffffffffffffffffffffffffffffffffffff169150846060018193508281525050505b5f6007600184901c1690505f811115611104576110f682828888611eaa9190939291909392919063ffffffff16565b856080018194508281525050505b5f6010808516036111185760019050611170565b60208085160361114b57611137838888611ed79290919263ffffffff16565b8161ffff169150809450819250505061116f565b611160838888611ef69290919263ffffffff16565b8160ff16915080945081925050505b5b8067ffffffffffffffff81111561118a576111896135e3565b5b6040519080825280602002602001820160405280156111c357816020015b6111b06133dd565b8152602001906001900390816111a85790505b5085604001819052505f5f90505b818110156114dd575f6111ef858a8a611ef69290919263ffffffff16565b8096508192505050600180821660ff160361125e57308760400151838151811061121c5761121b614334565b5b60200260200101515f019073ffffffffffffffffffffffffffffffffffffffff16908173ffffffffffffffffffffffffffffffffffffffff16815250506112ca565b611273858a8a611f119290919263ffffffff16565b8860400151848151811061128a57611289614334565b5b60200260200101515f018197508273ffffffffffffffffffffffffffffffffffffffff1673ffffffffffffffffffffffffffffffffffffffff1681525050505b600280821660ff1603611318576112ec858a8a611f429290919263ffffffff16565b8860400151848151811061130357611302614334565b5b60200260200101516020018197508281525050505b600480821660ff16036113e0575f61133b868b8b611f589290919263ffffffff16565b8162ffffff169150809750819250505089898790838961135b9190614301565b9261136893929190614841565b8080601f0160208091040260200160405190810160405280939291908181526020018383808284375f81840152601f19601f82011690508083019250505050505050886040015184815181106113c1576113c0614334565b5b60200260200101516040018190525080866113dc9190614301565b9550505b600880821660ff160361142e57611402858a8a611f429290919263ffffffff16565b8860400151848151811061141957611418614334565b5b60200260200101516060018197508281525050505b601080821660ff16148760400151838151811061144e5761144d614334565b5b60200260200101516080019015159081151581525050602080821660ff16148760400151838151811061148457611483614334565b5b602002602001015160a0019015159081151581525050600660c0821660ff16901c60ff16876040015183815181106114bf576114be614334565b5b602002602001015160c00181815250505080806001019150506111d1565b505050505092915050565b5f6114f283610b2f565b905081811461153c578282826040517f9b6514f40000000000000000000000000000000000000000000000000000000081526004016115339392919061487b565b60405180910390fd5b5f60018301905061154d8482611f78565b7f1f180c27086c7a39ea2a7b25239d1ab92348f07ca7bb59d1438fcf527568f881848260405161157e929190614812565b60405180910390a150505050565b5f5f90505f82604001515190505f5f90505b818110156118b4575f846040015182815181106115be576115bd614334565b5b602002602001015190508060a0015180156115d7575083155b1561161b577f9ae934bf8a986157c889a24c3b3fa85e74b7e4ee4b1f8fc6e7362cb4c1d19d8b868360405161160d9291906147b6565b60405180910390a1506118a7565b5f93505f816060015190505f81141580156116355750805a105b1561167b5785835a6040517f21395274000000000000000000000000000000000000000000000000000000008152600401611672939291906148b0565b60405180910390fd5b5f82608001511561173057611729835f01515f841461169a578361169c565b5a5b634c4e814c60e01b8b8d898b8e606001518b604001516040516024016116c796959493929190614924565b604051602081830303815290604052907bffffffffffffffffffffffffffffffffffffffffffffffffffffffff19166020820180517bffffffffffffffffffffffffffffffffffffffffffffffffffffffff8381831617835250505050611fad565b9050611758565b611755835f015184602001515f8514611749578461174b565b5a5b8660400151611fc2565b90505b8061186a575f60ff168360c00151036117b957600195507f115f347c00e69f252cd6b63c4f81022a9564c6befe8aa719cb74640a4a306f0d888561179a611fd9565b6040516117a99392919061498a565b60405180910390a15050506118a7565b600160ff168360c00151036118105786846117d2611fd9565b6040517f7f6b0bb1000000000000000000000000000000000000000000000000000000008152600401611807939291906149c6565b60405180910390fd5b600260ff168360c0015103611869577fc2c704302430fe0dc8d95f272e2f4e54bbbc51a3327fd5d75ab41f9fc8fd129b888561184a611fd9565b6040516118599392919061498a565b60405180910390a15050506118b4565b5b7f5a589b1d8062f33451d29cae3dabd9b2e36c62aee644178c600977ca8dda661a888560405161189b9291906147b6565b60405180910390a15050505b808060010191505061159e565b505050505050565b5f5f1b81036118f7576040517f4294d12700000000000000000000000000000000000000000000000000000000815260040160405180910390fd5b6119237fea7157fa25e3aa17d0ae2d5280fa4e24d421c61842aa85e45194e1145aa72bf85f1b82611ff7565b7f307ed6bd941ee9fc80f369c94af5fa11e25bab5102a6140191756c5474a30bfa816040516119529190613c57565b60405180910390a150565b6119c17fbe27a319efc8734e89e26ba4bc95f5c788584163b959f03fa04e2d7ab4b9a1205f1b837bffffffffffffffffffffffffffffffffffffffffffffffffffffffff19168373ffffffffffffffffffffffffffffffffffffffff165f1b611ffe565b7f0d7fc113eaf016db4681a1ba86d083ce3e0961f321062a75ac2b0aeb33deeed182826040516119f2929190614a09565b60405180910390a15050565b5f81549050919050565b5f5f611a18836020015130612033565b90505f611a24846120d7565b90508181604051602001611a39929190614aa4565b6040516020818303038152906040528051906020012092505050919050565b5f5f5f611a877fc852adf5e97c2fc3b38f405671e91b7af1697ef0287577f227ef10494c2a8e865f1b85610db2565b5f1c9050606081901c816bffffffffffffffffffffffff169250925050915091565b5f3054905090565b5f5f5f5f5f5f5f611ac28b8b611e63565b915060ff169150611ad161342e565b6040808416148015611b0e57505f73ffffffffffffffffffffffffffffffffffffffff168973ffffffffffffffffffffffffffffffffffffffff16145b15611c4a57611b28828d8d611f119290919263ffffffff16565b809350819a50505089611c49575f611b4b838e8e611f589290919263ffffffff16565b8162ffffff16915080945081925050505f8d8d85908487611b6c9190614301565b92611b7993929190614841565b8080601f0160208091040260200160405190810160405280939291908181526020018383808284375f81840152601f19601f8201169050808301925050505050505090508a73ffffffffffffffffffffffffffffffffffffffff1663ccce3bc830836040518363ffffffff1660e01b8152600401611bf8929190614ada565b6040805180830381865afa158015611c12573d5f5f3e3d5ffd5b505050506040513d601f19601f82011682018060405250810190611c369190614b7d565b92508184611c449190614301565b935050505b5b600180841603611c8357611c718d8a838f8f87908092611c6c93929190614841565b61230b565b97509750975097509750505050611de1565b6002808416148d60200190151590811515815250505f6002601c8516901c9050611cbf83828f8f611eaa9190939291909392919063ffffffff16565b8094508197505050505f6001600560208616901c611cdd9190614301565b9050611cfb83828f8f611eaa9190939291909392919063ffffffff16565b809450819a50505050611d0d8d611a08565b9350611d2b8d858e8e86908092611d2693929190614841565b61256d565b8097508198505050611d3f86895f1b6130e1565b9550611d4d86865f1b6130e1565b9550611d71868a73ffffffffffffffffffffffffffffffffffffffff165f1b6130e1565b95505f5f1b815f015114158015611d8b575085815f015114155b8015611d9b575080602001518511155b15611ddd57806040517fccbb534f000000000000000000000000000000000000000000000000000000008152600401611dd49190614bd5565b60405180910390fd5b5050505b9550955095509550959050565b5f611df8826130f5565b9050919050565b611e587fc852adf5e97c2fc3b38f405671e91b7af1697ef0287577f227ef10494c2a8e865f1b846bffffffffffffffffffffffff841660608673ffffffffffffffffffffffffffffffffffffffff16901b175f1b611ffe565b505050565b80305550565b5f5f83358060f81c925060019150509250929050565b5f5f8483013573ffffffffffffffffffffffffffffffffffffffff8160601c16925060148401915050935093915050565b5f5f858401356008840261010003600180866008021b0382821c1693508486019250505094509492505050565b5f5f8483013561ffff8160f01c16925060028401915050935093915050565b5f5f848301358060f81c925060018401915050935093915050565b5f5f8483013573ffffffffffffffffffffffffffffffffffffffff8160601c16925060148401915050935093915050565b5f5f848301359150602083019050935093915050565b5f5f8483013562ffffff8160e81c16925060038401915050935093915050565b611fa97f8d0bf1fd623d628c741362c1289948e57b3e2905218c676d3e69abee36d6ae2e5f1b835f1b835f1b611ffe565b5050565b5f5f5f8351602085018787f490509392505050565b5f5f5f835160208501878988f19050949350505050565b60603d604051915060208201818101604052818352815f823e505090565b8082555050565b5f838360405160200161201292919061478f565b60405160208183030381529060405280519060200120905081815550505050565b5f7f8b73c3c69bb8fe3d512ecc4cf759cc79239f7b179b0ffacaa9a75d522b39400f7f4aa45ca7ad825ceb1bf35643f0a58c295239df563b1b565c2485f96477c563187f2a80e1ef1d7842f27f2e6be0972bb708b9a135c38860dbe73c27c3486c34f4de856120a257466120a4565b5f5b856040516020016120b9959493929190614bee565b60405160208183030381529060405280519060200120905092915050565b5f5f8261010001516040516020016120ef9190614ccb565b6040516020818303038152906040528051906020012090505f60ff16835f015160ff1603612187575f6121258460400151613138565b90507f11e1e4079a79a66e4ade50033cfe2678cdd5341d2dfe5ef9513edb1a0be147a2818560600151866080015185604051602001612168959493929190614ce1565b6040516020818303038152906040528051906020012092505050612306565b600160ff16835f015160ff16036121f6577fe19a3b94fc3c7ece3f890d98a99bc422615537a08dea0603fa8425867d87d4668360a0015180519060200120826040516020016121d893929190614d32565b60405160208183030381529060405280519060200120915050612306565b600260ff16835f015160ff160361225e577f11fdeb7e8373a1aa96bfac8d0ea91526b2c5d15e5cee20e0543e780258f3e8e48360c001518260405160200161224093929190614d32565b60405160208183030381529060405280519060200120915050612306565b600360ff16835f015160ff16036122c6577fe19a3b94fc3c7ece3f890d98a99bc422615537a08dea0603fa8425867d87d4668360e00151826040516020016122a893929190614d32565b60405160208183030381529060405280519060200120915050612306565b825f01516040517f048183200000000000000000000000000000000000000000000000000000000081526004016122fd9190614d76565b60405180910390fd5b919050565b5f5f5f5f5f612318613392565b6002815f019060ff16908160ff16815250505f5f7fffffffffffffffffffffffffffffffffffffffffffffffffffffffffffffffff90505b89899050821015612502575f5f612372848d8d611f589290919263ffffffff16565b8162ffffff1691508095508192505050838161238e9190614301565b9150505f8b8b905082146123a2575f6123a4565b8d5b90507fffffffffffffffffffffffffffffffffffffffffffffffffffffffffffffffff8303612404576123eb8f8d8d879086926123e393929190614841565b600185611ab1565b809a50819b50829c50839d50849e505050505050612434565b612422858d8d8790869261241a93929190614841565b600185611ab1565b50809a50819b50829c50839d50505050505b8989101561248f578b8b8590849261244e93929190614841565b8b8b6040517fb006aba00000000000000000000000000000000000000000000000000000000081526004016124869493929190614d8f565b60405180910390fd5b819350878d5f0151036124a8575f5f1b8d5f0181815250505b8287106124ee5786836040517f37daf62b0000000000000000000000000000000000000000000000000000000081526004016124e5929190614812565b60405180910390fd5b878560c00181815250508692505050612350565b5f5f1b8b5f01511415801561251b57508a602001518511155b1561255d578a6040517fccbb534f0000000000000000000000000000000000000000000000000000000081526004016125549190614bd5565b60405180910390fd5b5050509550955095509550959050565b5f5f5f5b848490508110156130d7575f612592828787611ef69290919263ffffffff16565b8160ff16915080935081925050505f600460f08316901c90505f81036126ea575f600f831690505f8160ff16036125e1576125d8848989611ef69290919263ffffffff16565b80955081925050505b5f5f6125f8868b8b6131b29290919263ffffffff16565b8097508193505050612615868b8b6131b29290919263ffffffff16565b80975081925050505f60ff82901c5f1c90505f7f7fffffffffffffffffffffffffffffffffffffffffffffffffffffffffffffff835f1c165f1b90505f601b830190505f60018f8388866040515f815260200160405260405161267b9493929190614dcd565b6020604051602081039080840390855afa15801561269b573d5f5f3e3d5ffd5b5050506020604051035190508660ff168c019b505f6126bd828960ff166131c8565b90505f5f1b8c036126ce57806126d9565b6126d88c826130e1565b5b9b5050505050505050505050612571565b60018103612775575f600f831690505f8160ff160361272157612718848989611ef69290919263ffffffff16565b80955081925050505b5f612737858a8a611f119290919263ffffffff16565b80965081925050505f61274d828460ff166131c8565b90505f5f1b870361275e5780612769565b61276887826130e1565b5b96505050505050612571565b60028103612974575f6003831690505f8160ff16036127ac576127a3848989611ef69290919263ffffffff16565b80955081925050505b5f6127c2858a8a611f119290919263ffffffff16565b80965081925050505f6002600c861660ff16901c60ff1690505f6127f887838d8d611eaa9190939291909392919063ffffffff16565b80985081925050505f81880190506320c13b0b60e01b7bffffffffffffffffffffffffffffffffffffffffffffffffffffffff19168473ffffffffffffffffffffffffffffffffffffffff16631626ba7e8f8f8f8d90879261285c93929190614841565b6040518463ffffffff1660e01b815260040161287a93929190614e10565b602060405180830381865afa158015612895573d5f5f3e3d5ffd5b505050506040513d601f19601f820116820180604052508101906128b99190614e54565b7bffffffffffffffffffffffffffffffffffffffffffffffffffffffff191614612930578c848d8d8b9085926128f193929190614841565b6040517fb2fed7ae0000000000000000000000000000000000000000000000000000000081526004016129279493929190614e7f565b60405180910390fd5b8097508460ff168a0199505f612949858760ff166131c8565b90505f5f1b8a0361295a5780612965565b6129648a826130e1565b5b99505050505050505050612571565b600381036129be575f6129928489896131b29290919263ffffffff16565b80955081925050505f5f1b85036129a957806129b4565b6129b385826130e1565b5b9450505050612571565b60048103612a3d575f600f831660ff1690505f6129ed85838b8b611eaa9190939291909392919063ffffffff16565b80965081925050505f81860190505f5f612a198e8e8e8e8c908892612a1493929190614841565b61256d565b91509150829750818a019950612a2f89826130e1565b985050505050505050612571565b60068103612b4d575f6002600c841660ff16901c60ff1690505f8103612a8157612a72848989611ef69290919263ffffffff16565b8160ff16915080955081925050505b5f6003841660ff1690505f8103612ab757612aa7858a8a611ed79290919263ffffffff16565b8161ffff16915080965081925050505b5f612acd868b8b611f589290919263ffffffff16565b8162ffffff16915080975081925050505f81870190505f5f612b018f8f8f8f8d908892612afc93929190614841565b61256d565b91509150829850848210612b1557858b019a505b5f612b218287896131fa565b90505f5f1b8b03612b325780612b3d565b612b3c8b826130e1565b5b9a50505050505050505050612571565b60058103612bcf575f612b6b8489896131b29290919263ffffffff16565b8095508192505050888103612b9e577fffffffffffffffffffffffffffffffffffffffffffffffffffffffffffffffff95505b5f612ba88261322f565b90505f5f1b8603612bb95780612bc4565b612bc386826130e1565b5b955050505050612571565b60078103612d35575f600f831690505f8160ff1603612c0657612bfd848989611ef69290919263ffffffff16565b80955081925050505b5f5f612c1d868b8b6131b29290919263ffffffff16565b8097508193505050612c3a868b8b6131b29290919263ffffffff16565b80975081925050505f60ff82901c5f1c90505f7f7fffffffffffffffffffffffffffffffffffffffffffffffffffffffffffffff835f1c165f1b90505f601b830190505f60018f604051602001612c919190614f07565b604051602081830303815290604052805190602001208388866040515f8152602001604052604051612cc69493929190614dcd565b6020604051602081039080840390855afa158015612ce6573d5f5f3e3d5ffd5b5050506020604051035190508660ff168c019b505f612d08828960ff166131c8565b90505f5f1b8c03612d195780612d24565b612d238c826130e1565b5b9b5050505050505050505050612571565b60088103612dce575f612d538489896131b29290919263ffffffff16565b80955081925050505f612d6f5f8c61325e90919063ffffffff16565b9050808203612d9c577fffffffffffffffffffffffffffffffffffffffffffffffffffffffffffffffff96505b5f612da6836132af565b90505f5f1b8703612db75780612dc2565b612dc187826130e1565b5b96505050505050612571565b60098103612f34575f6003831690505f8160ff1603612e0557612dfc848989611ef69290919263ffffffff16565b80955081925050505b5f612e1b858a8a611f119290919263ffffffff16565b80965081925050505f5f6002600c871660ff16901c60ff169050612e5187828d8d611eaa9190939291909392919063ffffffff16565b8098508193505050505f81870190505f8373ffffffffffffffffffffffffffffffffffffffff166313792a4a8f8e8e8c908792612e9093929190614841565b6040518463ffffffff1660e01b8152600401612eae93929190614f2c565b602060405180830381865afa158015612ec9573d5f5f3e3d5ffd5b505050506040513d601f19601f82011682018060405250810190612eed9190614f63565b90508197508460ff168a0199505f612f09858760ff16846132de565b90505f5f1b8a03612f1a5780612f25565b612f248a826130e1565b5b99505050505050505050612571565b600a810361309a575f6003831690505f8160ff1603612f6b57612f62848989611ef69290919263ffffffff16565b80955081925050505b5f612f81858a8a611f119290919263ffffffff16565b80965081925050505f6002600c861660ff16901c60ff1690505f612fb787838d8d611eaa9190939291909392919063ffffffff16565b80985081925050505f81880190505f8473ffffffffffffffffffffffffffffffffffffffff1663898bd9218f8f8f8d908792612ff593929190614841565b6040518463ffffffff1660e01b815260040161301393929190614e10565b602060405180830381865afa15801561302e573d5f5f3e3d5ffd5b505050506040513d601f19601f820116820180604052508101906130529190614f63565b90508198508560ff168b019a505f61306e868860ff16846132de565b90505f5f1b8b0361307f578061308a565b6130898b826130e1565b5b9a50505050505050505050612571565b806040517fb2505f7c0000000000000000000000000000000000000000000000000000000081526004016130ce9190613f95565b60405180910390fd5b5094509492505050565b5f825f528160205260405f20905092915050565b5f5f5f1b8214158015613131575061312e7fea7157fa25e3aa17d0ae2d5280fa4e24d421c61842aa85e45194e1145aa72bf85f1b6119fe565b82145b9050919050565b5f60605f5f90505b83518110156131a1575f61316d8583815181106131605761315f614334565b5b6020026020010151613313565b90508281604051602001613182929190614fbe565b6040516020818303038152906040529250508080600101915050613140565b508080519060200120915050919050565b5f5f848301359150602083019050935093915050565b5f82826040516020016131dc929190615094565b60405160208183030381529060405280519060200120905092915050565b5f83838360405160200161321093929190615114565b6040516020818303038152906040528051906020012090509392505050565b5f8160405160200161324191906151a5565b604051602081830303815290604052805190602001209050919050565b5f5f61326e846020015184612033565b90505f61327a856120d7565b9050818160405160200161328f929190614aa4565b604051602081830303815290604052805190602001209250505092915050565b5f816040516020016132c19190615214565b604051602081830303815290604052805190602001209050919050565b5f8383836040516020016132f493929190615283565b6040516020818303038152906040528051906020012090509392505050565b5f7f0603985259a953da1f65a522f589c17bd1d0117ec1d3abb7c0788aef251ef437825f01518360200151846040015180519060200120856060015186608001518760a001518860c001516040516020016133759897969594939291906152ca565b604051602081830303815290604052805190602001209050919050565b6040518061012001604052805f60ff1681526020015f15158152602001606081526020015f81526020015f8152602001606081526020015f81526020015f8152602001606081525090565b6040518060e001604052805f73ffffffffffffffffffffffffffffffffffffffff1681526020015f8152602001606081526020015f81526020015f151581526020015f151581526020015f81525090565b60405180604001604052805f81526020015f81525090565b5f82905092915050565b5f7fffffffff0000000000000000000000000000000000000000000000000000000082169050919050565b5f82821b905092915050565b5f6134928383613446565b8261349d8135613450565b925060048210156134dd576134d87fffffffff000000000000000000000000000000000000000000000000000000008360040360080261347b565b831692505b505092915050565b5f81905092915050565b828183375f83830152505050565b5f61350883856134e5565b93506135158385846134ef565b82840190509392505050565b5f61352d8284866134fd565b91508190509392505050565b5f604051905090565b5f5ffd5b5f5ffd5b5f73ffffffffffffffffffffffffffffffffffffffff82169050919050565b5f6135738261354a565b9050919050565b61358381613569565b811461358d575f5ffd5b50565b5f8135905061359e8161357a565b92915050565b5f602082840312156135b9576135b8613542565b5b5f6135c684828501613590565b91505092915050565b5f5ffd5b5f601f19601f8301169050919050565b7f4e487b71000000000000000000000000000000000000000000000000000000005f52604160045260245ffd5b613619826135d3565b810181811067ffffffffffffffff82111715613638576136376135e3565b5b80604052505050565b5f61364a613539565b90506136568282613610565b919050565b5f5ffd5b5f60ff82169050919050565b6136748161365f565b811461367e575f5ffd5b50565b5f8135905061368f8161366b565b92915050565b5f8115159050919050565b6136a981613695565b81146136b3575f5ffd5b50565b5f813590506136c4816136a0565b92915050565b5f5ffd5b5f67ffffffffffffffff8211156136e8576136e76135e3565b5b602082029050602081019050919050565b5f5ffd5b5f819050919050565b61370f816136fd565b8114613719575f5ffd5b50565b5f8135905061372a81613706565b92915050565b5f5ffd5b5f67ffffffffffffffff82111561374e5761374d6135e3565b5b613757826135d3565b9050602081019050919050565b5f61377661377184613734565b613641565b90508281526020810184848401111561379257613791613730565b5b61379d8482856134ef565b509392505050565b5f82601f8301126137b9576137b86136ca565b5b81356137c9848260208601613764565b91505092915050565b5f60e082840312156137e7576137e66135cf565b5b6137f160e0613641565b90505f61380084828501613590565b5f8301525060206138138482850161371c565b602083015250604082013567ffffffffffffffff8111156138375761383661365b565b5b613843848285016137a5565b60408301525060606138578482850161371c565b606083015250608061386b848285016136b6565b60808301525060a061387f848285016136b6565b60a08301525060c06138938482850161371c565b60c08301525092915050565b5f6138b16138ac846136ce565b613641565b905080838252602082019050602084028301858111156138d4576138d36136f9565b5b835b8181101561391b57803567ffffffffffffffff8111156138f9576138f86136ca565b5b80860161390689826137d2565b855260208501945050506020810190506138d6565b5050509392505050565b5f82601f830112613939576139386136ca565b5b813561394984826020860161389f565b91505092915050565b5f819050919050565b61396481613952565b811461396e575f5ffd5b50565b5f8135905061397f8161395b565b92915050565b5f67ffffffffffffffff82111561399f5761399e6135e3565b5b602082029050602081019050919050565b5f6139c26139bd84613985565b613641565b905080838252602082019050602084028301858111156139e5576139e46136f9565b5b835b81811015613a0e57806139fa8882613590565b8452602084019350506020810190506139e7565b5050509392505050565b5f82601f830112613a2c57613a2b6136ca565b5b8135613a3c8482602086016139b0565b91505092915050565b5f6101208284031215613a5b57613a5a6135cf565b5b613a66610120613641565b90505f613a7584828501613681565b5f830152506020613a88848285016136b6565b602083015250604082013567ffffffffffffffff811115613aac57613aab61365b565b5b613ab884828501613925565b6040830152506060613acc8482850161371c565b6060830152506080613ae08482850161371c565b60808301525060a082013567ffffffffffffffff811115613b0457613b0361365b565b5b613b10848285016137a5565b60a08301525060c0613b2484828501613971565b60c08301525060e0613b3884828501613971565b60e08301525061010082013567ffffffffffffffff811115613b5d57613b5c61365b565b5b613b6984828501613a18565b6101008301525092915050565b5f5ffd5b5f5f83601f840112613b8f57613b8e6136ca565b5b8235905067ffffffffffffffff811115613bac57613bab613b76565b5b602083019150836001820283011115613bc857613bc76136f9565b5b9250929050565b5f5f5f60408486031215613be657613be5613542565b5b5f84013567ffffffffffffffff811115613c0357613c02613546565b5b613c0f86828701613a45565b935050602084013567ffffffffffffffff811115613c3057613c2f613546565b5b613c3c86828701613b7a565b92509250509250925092565b613c5181613952565b82525050565b5f602082019050613c6a5f830184613c48565b92915050565b5f5f5f5f5f60808688031215613c8957613c88613542565b5b5f613c9688828901613590565b9550506020613ca788828901613590565b9450506040613cb88882890161371c565b935050606086013567ffffffffffffffff811115613cd957613cd8613546565b5b613ce588828901613b7a565b92509250509295509295909350565b613cfd81613450565b82525050565b5f602082019050613d165f830184613cf4565b92915050565b5f5f5f60408486031215613d3357613d32613542565b5b5f613d4086828701613971565b935050602084013567ffffffffffffffff811115613d6157613d60613546565b5b613d6d86828701613b7a565b92509250509250925092565b613d8281613450565b8114613d8c575f5ffd5b50565b5f81359050613d9d81613d79565b92915050565b5f60208284031215613db857613db7613542565b5b5f613dc584828501613d8f565b91505092915050565b613dd781613569565b82525050565b5f602082019050613df05f830184613dce565b92915050565b5f5f5f5f60408587031215613e0e57613e0d613542565b5b5f85013567ffffffffffffffff811115613e2b57613e2a613546565b5b613e3787828801613b7a565b9450945050602085013567ffffffffffffffff811115613e5a57613e59613546565b5b613e6687828801613b7a565b925092505092959194509250565b5f60208284031215613e8957613e88613542565b5b5f613e9684828501613971565b91505092915050565b5f5f60208385031215613eb557613eb4613542565b5b5f83013567ffffffffffffffff811115613ed257613ed1613546565b5b613ede85828601613b7a565b92509250509250929050565b5f5f5f5f60608587031215613f0257613f01613542565b5b5f613f0f87828801613590565b9450506020613f208782880161371c565b935050604085013567ffffffffffffffff811115613f4157613f40613546565b5b613f4d87828801613b7a565b925092505092959194509250565b5f60208284031215613f7057613f6f613542565b5b5f613f7d8482850161371c565b91505092915050565b613f8f816136fd565b82525050565b5f602082019050613fa85f830184613f86565b92915050565b5f604082019050613fc15f830185613dce565b613fce6020830184613f86565b9392505050565b613fde81613695565b82525050565b5f60c082019050613ff75f830189613f86565b6140046020830188613f86565b6140116040830187613fd5565b61401e6060830186613c48565b61402b6080830185613f86565b61403860a0830184613c48565b979650505050505050565b5f5f6040838503121561405957614058613542565b5b5f61406685828601613d8f565b925050602061407785828601613590565b9150509250929050565b5f5f83601f840112614096576140956136ca565b5b8235905067ffffffffffffffff8111156140b3576140b2613b76565b5b6020830191508360208202830111156140cf576140ce6136f9565b5b9250929050565b5f5f5f5f5f5f5f5f60a0898b0312156140f2576140f1613542565b5b5f6140ff8b828c01613590565b98505060206141108b828c01613590565b975050604089013567ffffffffffffffff81111561413157614130613546565b5b61413d8b828c01614081565b9650965050606089013567ffffffffffffffff8111156141605761415f613546565b5b61416c8b828c01614081565b9450945050608089013567ffffffffffffffff81111561418f5761418e613546565b5b61419b8b828c01613b7a565b92509250509295985092959890939650565b5f5f5f5f5f5f60a087890312156141c7576141c6613542565b5b5f6141d489828a01613590565b96505060206141e589828a01613590565b95505060406141f689828a0161371c565b945050606061420789828a0161371c565b935050608087013567ffffffffffffffff81111561422857614227613546565b5b61423489828a01613b7a565b92509250509295509295509295565b5f6bffffffffffffffffffffffff82169050919050565b61426381614243565b811461426d575f5ffd5b50565b5f8135905061427e8161425a565b92915050565b5f5f5f6060848603121561429b5761429a613542565b5b5f6142a886828701613971565b93505060206142b986828701613590565b92505060406142ca86828701614270565b9150509250925092565b7f4e487b71000000000000000000000000000000000000000000000000000000005f52601160045260245ffd5b5f61430b826136fd565b9150614316836136fd565b925082820190508082111561432e5761432d6142d4565b5b92915050565b7f4e487b71000000000000000000000000000000000000000000000000000000005f52603260045260245ffd5b61436a8161365f565b82525050565b61437981613695565b82525050565b5f81519050919050565b5f82825260208201905092915050565b5f819050602082019050919050565b6143b181613569565b82525050565b6143c0816136fd565b82525050565b5f81519050919050565b5f82825260208201905092915050565b8281835e5f83830152505050565b5f6143f8826143c6565b61440281856143d0565b93506144128185602086016143e0565b61441b816135d3565b840191505092915050565b5f60e083015f83015161443b5f8601826143a8565b50602083015161444e60208601826143b7565b506040830151848203604086015261446682826143ee565b915050606083015161447b60608601826143b7565b50608083015161448e6080860182614370565b5060a08301516144a160a0860182614370565b5060c08301516144b460c08601826143b7565b508091505092915050565b5f6144ca8383614426565b905092915050565b5f602082019050919050565b5f6144e88261437f565b6144f28185614389565b93508360208202850161450485614399565b805f5b8581101561453f578484038952815161452085826144bf565b945061452b836144d2565b925060208a01995050600181019050614507565b50829750879550505050505092915050565b61455a81613952565b82525050565b5f81519050919050565b5f82825260208201905092915050565b5f819050602082019050919050565b5f61459483836143a8565b60208301905092915050565b5f602082019050919050565b5f6145b682614560565b6145c0818561456a565b93506145cb8361457a565b805f5b838110156145fb5781516145e28882614589565b97506145ed836145a0565b9250506001810190506145ce565b5085935050505092915050565b5f61012083015f83015161461e5f860182614361565b5060208301516146316020860182614370565b506040830151848203604086015261464982826144de565b915050606083015161465e60608601826143b7565b50608083015161467160808601826143b7565b5060a083015184820360a086015261468982826143ee565b91505060c083015161469e60c0860182614551565b5060e08301516146b160e0860182614551565b506101008301518482036101008601526146cb82826145ac565b9150508091505092915050565b5f82825260208201905092915050565b5f6146f383856146d8565b93506147008385846134ef565b614709836135d3565b840190509392505050565b5f6040820190508181035f83015261472c8186614608565b905081810360208301526147418184866146e8565b9050949350505050565b61475481614243565b82525050565b5f60608201905061476d5f830186613c48565b61477a6020830185613dce565b614787604083018461474b565b949350505050565b5f6040820190506147a25f830185613c48565b6147af6020830184613c48565b9392505050565b5f6040820190506147c95f830185613c48565b6147d66020830184613f86565b9392505050565b5f6060820190506147f05f830186613c48565b6147fd6020830185613dce565b61480a6040830184613dce565b949350505050565b5f6040820190506148255f830185613f86565b6148326020830184613f86565b9392505050565b5f5ffd5b5f5ffd5b5f5f8585111561485457614853614839565b5b838611156148655761486461483d565b5b6001850283019150848603905094509492505050565b5f60608201905061488e5f830186613f86565b61489b6020830185613f86565b6148a86040830184613f86565b949350505050565b5f6060820190508181035f8301526148c88186614608565b90506148d76020830185613f86565b6148e46040830184613f86565b949350505050565b5f6148f6826143c6565b61490081856146d8565b93506149108185602086016143e0565b614919816135d3565b840191505092915050565b5f60c0820190506149375f830189613c48565b6149446020830188613f86565b6149516040830187613f86565b61495e6060830186613f86565b61496b6080830185613f86565b81810360a083015261497d81846148ec565b9050979650505050505050565b5f60608201905061499d5f830186613c48565b6149aa6020830185613f86565b81810360408301526149bc81846148ec565b9050949350505050565b5f6060820190508181035f8301526149de8186614608565b90506149ed6020830185613f86565b81810360408301526149ff81846148ec565b9050949350505050565b5f604082019050614a1c5f830185613cf4565b614a296020830184613dce565b9392505050565b5f81905092915050565b7f19010000000000000000000000000000000000000000000000000000000000005f82015250565b5f614a6e600283614a30565b9150614a7982614a3a565b600282019050919050565b5f819050919050565b614a9e614a9982613952565b614a84565b82525050565b5f614aae82614a62565b9150614aba8285614a8d565b602082019150614aca8284614a8d565b6020820191508190509392505050565b5f604082019050614aed5f830185613dce565b8181036020830152614aff81846148ec565b90509392505050565b5f81519050614b168161395b565b92915050565b5f81519050614b2a81613706565b92915050565b5f60408284031215614b4557614b446135cf565b5b614b4f6040613641565b90505f614b5e84828501614b08565b5f830152506020614b7184828501614b1c565b60208301525092915050565b5f60408284031215614b9257614b91613542565b5b5f614b9f84828501614b30565b91505092915050565b604082015f820151614bbc5f850182614551565b506020820151614bcf60208501826143b7565b50505050565b5f604082019050614be85f830184614ba8565b92915050565b5f60a082019050614c015f830188613c48565b614c0e6020830187613c48565b614c1b6040830186613c48565b614c286060830185613f86565b614c356080830184613dce565b9695505050505050565b5f81905092915050565b614c5281613569565b82525050565b5f614c638383614c49565b60208301905092915050565b5f614c7982614560565b614c838185614c3f565b9350614c8e8361457a565b805f5b83811015614cbe578151614ca58882614c58565b9750614cb0836145a0565b925050600181019050614c91565b5085935050505092915050565b5f614cd68284614c6f565b915081905092915050565b5f60a082019050614cf45f830188613c48565b614d016020830187613c48565b614d0e6040830186613f86565b614d1b6060830185613f86565b614d286080830184613c48565b9695505050505050565b5f606082019050614d455f830186613c48565b614d526020830185613c48565b614d5f6040830184613c48565b949350505050565b614d708161365f565b82525050565b5f602082019050614d895f830184614d67565b92915050565b5f6060820190508181035f830152614da88186886146e8565b9050614db76020830185613f86565b614dc46040830184613f86565b95945050505050565b5f608082019050614de05f830187613c48565b614ded6020830186614d67565b614dfa6040830185613c48565b614e076060830184613c48565b95945050505050565b5f604082019050614e235f830186613c48565b8181036020830152614e368184866146e8565b9050949350505050565b5f81519050614e4e81613d79565b92915050565b5f60208284031215614e6957614e68613542565b5b5f614e7684828501614e40565b91505092915050565b5f606082019050614e925f830187613c48565b614e9f6020830186613dce565b8181036040830152614eb28184866146e8565b905095945050505050565b7f19457468657265756d205369676e6564204d6573736167653a0a3332000000005f82015250565b5f614ef1601c83614a30565b9150614efc82614ebd565b601c82019050919050565b5f614f1182614ee5565b9150614f1d8284614a8d565b60208201915081905092915050565b5f6040820190508181035f830152614f448186614608565b90508181036020830152614f598184866146e8565b9050949350505050565b5f60208284031215614f7857614f77613542565b5b5f614f8584828501614b08565b91505092915050565b5f614f98826143c6565b614fa281856134e5565b9350614fb28185602086016143e0565b80840191505092915050565b5f614fc98285614f8e565b9150614fd58284614a8d565b6020820191508190509392505050565b7f53657175656e6365207369676e65723a0a0000000000000000000000000000005f82015250565b5f615019601183614a30565b915061502482614fe5565b601182019050919050565b5f8160601b9050919050565b5f6150458261502f565b9050919050565b5f6150568261503b565b9050919050565b61506e61506982613569565b61504c565b82525050565b5f819050919050565b61508e615089826136fd565b615074565b82525050565b5f61509e8261500d565b91506150aa828561505d565b6014820191506150ba828461507d565b6020820191508190509392505050565b7f53657175656e6365206e657374656420636f6e6669673a0a00000000000000005f82015250565b5f6150fe601883614a30565b9150615109826150ca565b601882019050919050565b5f61511e826150f2565b915061512a8286614a8d565b60208201915061513a828561507d565b60208201915061514a828461507d565b602082019150819050949350505050565b7f53657175656e636520737461746963206469676573743a0a00000000000000005f82015250565b5f61518f601883614a30565b915061519a8261515b565b601882019050919050565b5f6151af82615183565b91506151bb8284614a8d565b60208201915081905092915050565b7f53657175656e636520616e792061646472657373207375626469676573743a0a5f82015250565b5f6151fe602083614a30565b9150615209826151ca565b602082019050919050565b5f61521e826151f2565b915061522a8284614a8d565b60208201915081905092915050565b7f53657175656e63652073617069656e7420636f6e6669673a0a000000000000005f82015250565b5f61526d601983614a30565b915061527882615239565b601982019050919050565b5f61528d82615261565b9150615299828661505d565b6014820191506152a9828561507d565b6020820191506152b98284614a8d565b602082019150819050949350505050565b5f610100820190506152de5f83018b613c48565b6152eb602083018a613dce565b6152f86040830189613f86565b6153056060830188613c48565b6153126080830187613f86565b61531f60a0830186613fd5565b61532c60c0830185613fd5565b61533960e0830184613f86565b999850505050505050505056fea264697066735822122019b5533fc4cbee24a73438e1a10df64732fe25b8872932ba010c1d5c7babb5eb64736f6c634300081c0033",
					"opcodes": "PUSH1 0x80 PUSH1 0x40 MSTORE CALLVALUE DUP1 ISZERO PUSH1 0xE JUMPI PUSH0 PUSH0 REVERT JUMPDEST POP PUSH2 0x537C DUP1 PUSH2 0x1C PUSH0 CODECOPY PUSH0 RETURN INVALID PUSH1 0x80 PUSH1 0x40 MSTORE PUSH1 0x4 CALLDATASIZE LT PUSH2 0x117 JUMPI PUSH0 CALLDATALOAD PUSH1 0xE0 SHR DUP1 PUSH4 0x6EA44577 GT PUSH2 0x9F JUMPI DUP1 PUSH4 0xAD55366B GT PUSH2 0x63 JUMPI DUP1 PUSH4 0xAD55366B EQ PUSH2 0x475 JUMPI DUP1 PUSH4 0xB93EA7AD EQ PUSH2 0x4B6 JUMPI DUP1 PUSH4 0xBC197C81 EQ PUSH2 0x4D2 JUMPI DUP1 PUSH4 0xF23A6E61 EQ PUSH2 0x50E JUMPI DUP1 PUSH4 0xF727EF1C EQ PUSH2 0x54A JUMPI PUSH2 0x11E JUMP JUMPDEST DUP1 PUSH4 0x6EA44577 EQ PUSH2 0x38E JUMPI DUP1 PUSH4 0x8943EC02 EQ PUSH2 0x3AA JUMPI DUP1 PUSH4 0x8C3F5563 EQ PUSH2 0x3D2 JUMPI DUP1 PUSH4 0x92DCB3FC EQ PUSH2 0x40E JUMPI DUP1 PUSH4 0xAAF10F42 EQ PUSH2 0x44B JUMPI PUSH2 0x11E JUMP JUMPDEST DUP1 PUSH4 0x1A9B2337 GT PUSH2 0xE6 JUMPI DUP1 PUSH4 0x1A9B2337 EQ PUSH2 0x2C8 JUMPI DUP1 PUSH4 0x1F6A1EB9 EQ PUSH2 0x304 JUMPI DUP1 PUSH4 0x29561426 EQ PUSH2 0x320 JUMPI DUP1 PUSH4 0x4FCF3ECA EQ PUSH2 0x348 JUMPI DUP1 PUSH4 0x51605D80 EQ PUSH2 0x364 JUMPI PUSH2 0x11E JUMP JUMPDEST DUP1 PUSH4 0x25B22BC EQ PUSH2 0x1F8 JUMPI DUP1 PUSH4 0x13792A4A EQ PUSH2 0x214 JUMPI DUP1 PUSH4 0x150B7A02 EQ PUSH2 0x250 JUMPI DUP1 PUSH4 0x1626BA7E EQ PUSH2 0x28C JUMPI PUSH2 0x11E JUMP JUMPDEST CALLDATASIZE PUSH2 0x11E JUMPI STOP JUMPDEST PUSH1 0x4 PUSH0 CALLDATASIZE SWAP1 POP LT PUSH2 0x1F6 JUMPI PUSH0 PUSH2 0x13F PUSH0 CALLDATASIZE SWAP1 PUSH2 0x13A SWAP2 SWAP1 PUSH2 0x3487 JUMP JUMPDEST PUSH2 0x572 JUMP JUMPDEST SWAP1 POP PUSH0 PUSH20 0xFFFFFFFFFFFFFFFFFFFFFFFFFFFFFFFFFFFFFFFF AND DUP2 PUSH20 0xFFFFFFFFFFFFFFFFFFFFFFFFFFFFFFFFFFFFFFFF AND EQ PUSH2 0x1F4 JUMPI PUSH0 PUSH0 DUP3 PUSH20 0xFFFFFFFFFFFFFFFFFFFFFFFFFFFFFFFFFFFFFFFF AND PUSH0 CALLDATASIZE PUSH1 0x40 MLOAD PUSH2 0x19D SWAP3 SWAP2 SWAP1 PUSH2 0x3521 JUMP JUMPDEST PUSH0 PUSH1 0x40 MLOAD DUP1 DUP4 SUB DUP2 DUP6 GAS DELEGATECALL SWAP2 POP POP RETURNDATASIZE DUP1 PUSH0 DUP2 EQ PUSH2 0x1D5 JUMPI PUSH1 0x40 MLOAD SWAP2 POP PUSH1 0x1F NOT PUSH1 0x3F RETURNDATASIZE ADD AND DUP3 ADD PUSH1 0x40 MSTORE RETURNDATASIZE DUP3 MSTORE RETURNDATASIZE PUSH0 PUSH1 0x20 DUP5 ADD RETURNDATACOPY PUSH2 0x1DA JUMP JUMPDEST PUSH1 0x60 SWAP2 POP JUMPDEST POP SWAP2 POP SWAP2 POP DUP2 PUSH2 0x1EC JUMPI DUP1 MLOAD PUSH1 0x20 DUP3 ADD REVERT JUMPDEST DUP1 MLOAD PUSH1 0x20 DUP3 ADD RETURN JUMPDEST POP JUMPDEST STOP JUMPDEST PUSH2 0x212 PUSH1 0x4 DUP1 CALLDATASIZE SUB DUP2 ADD SWAP1 PUSH2 0x20D SWAP2 SWAP1 PUSH2 0x35A4 JUMP JUMPDEST PUSH2 0x5C7 JUMP JUMPDEST STOP JUMPDEST CALLVALUE DUP1 ISZERO PUSH2 0x21F JUMPI PUSH0 PUSH0 REVERT JUMPDEST POP PUSH2 0x23A PUSH1 0x4 DUP1 CALLDATASIZE SUB DUP2 ADD SWAP1 PUSH2 0x235 SWAP2 SWAP1 PUSH2 0x3BCF JUMP JUMPDEST PUSH2 0x643 JUMP JUMPDEST PUSH1 0x40 MLOAD PUSH2 0x247 SWAP2 SWAP1 PUSH2 0x3C57 JUMP JUMPDEST PUSH1 0x40 MLOAD DUP1 SWAP2 SUB SWAP1 RETURN JUMPDEST CALLVALUE DUP1 ISZERO PUSH2 0x25B JUMPI PUSH0 PUSH0 REVERT JUMPDEST POP PUSH2 0x276 PUSH1 0x4 DUP1 CALLDATASIZE SUB DUP2 ADD SWAP1 PUSH2 0x271 SWAP2 SWAP1 PUSH2 0x3C70 JUMP JUMPDEST PUSH2 0x7F2 JUMP JUMPDEST PUSH1 0x40 MLOAD PUSH2 0x283 SWAP2 SWAP1 PUSH2 0x3D03 JUMP JUMPDEST PUSH1 0x40 MLOAD DUP1 SWAP2 SUB SWAP1 RETURN JUMPDEST CALLVALUE DUP1 ISZERO PUSH2 0x297 JUMPI PUSH0 PUSH0 REVERT JUMPDEST POP PUSH2 0x2B2 PUSH1 0x4 DUP1 CALLDATASIZE SUB DUP2 ADD SWAP1 PUSH2 0x2AD SWAP2 SWAP1 PUSH2 0x3D1C JUMP JUMPDEST PUSH2 0x806 JUMP JUMPDEST PUSH1 0x40 MLOAD PUSH2 0x2BF SWAP2 SWAP1 PUSH2 0x3D03 JUMP JUMPDEST PUSH1 0x40 MLOAD DUP1 SWAP2 SUB SWAP1 RETURN JUMPDEST CALLVALUE DUP1 ISZERO PUSH2 0x2D3 JUMPI PUSH0 PUSH0 REVERT JUMPDEST POP PUSH2 0x2EE PUSH1 0x4 DUP1 CALLDATASIZE SUB DUP2 ADD SWAP1 PUSH2 0x2E9 SWAP2 SWAP1 PUSH2 0x3DA3 JUMP JUMPDEST PUSH2 0x848 JUMP JUMPDEST PUSH1 0x40 MLOAD PUSH2 0x2FB SWAP2 SWAP1 PUSH2 0x3DDD JUMP JUMPDEST PUSH1 0x40 MLOAD DUP1 SWAP2 SUB SWAP1 RETURN JUMPDEST PUSH2 0x31E PUSH1 0x4 DUP1 CALLDATASIZE SUB DUP2 ADD SWAP1 PUSH2 0x319 SWAP2 SWAP1 PUSH2 0x3DF6 JUMP JUMPDEST PUSH2 0x859 JUMP JUMPDEST STOP JUMPDEST CALLVALUE DUP1 ISZERO PUSH2 0x32B JUMPI PUSH0 PUSH0 REVERT JUMPDEST POP PUSH2 0x346 PUSH1 0x4 DUP1 CALLDATASIZE SUB DUP2 ADD SWAP1 PUSH2 0x341 SWAP2 SWAP1 PUSH2 0x3E74 JUMP JUMPDEST PUSH2 0x8E8 JUMP JUMPDEST STOP JUMPDEST PUSH2 0x362 PUSH1 0x4 DUP1 CALLDATASIZE SUB DUP2 ADD SWAP1 PUSH2 0x35D SWAP2 SWAP1 PUSH2 0x3DA3 JUMP JUMPDEST PUSH2 0x964 JUMP JUMPDEST STOP JUMPDEST CALLVALUE DUP1 ISZERO PUSH2 0x36F JUMPI PUSH0 PUSH0 REVERT JUMPDEST POP PUSH2 0x378 PUSH2 0xA59 JUMP JUMPDEST PUSH1 0x40 MLOAD PUSH2 0x385 SWAP2 SWAP1 PUSH2 0x3C57 JUMP JUMPDEST PUSH1 0x40 MLOAD DUP1 SWAP2 SUB SWAP1 RETURN JUMPDEST PUSH2 0x3A8 PUSH1 0x4 DUP1 CALLDATASIZE SUB DUP2 ADD SWAP1 PUSH2 0x3A3 SWAP2 SWAP1 PUSH2 0x3E9F JUMP JUMPDEST PUSH2 0xA8A JUMP JUMPDEST STOP JUMPDEST CALLVALUE DUP1 ISZERO PUSH2 0x3B5 JUMPI PUSH0 PUSH0 REVERT JUMPDEST POP PUSH2 0x3D0 PUSH1 0x4 DUP1 CALLDATASIZE SUB DUP2 ADD SWAP1 PUSH2 0x3CB SWAP2 SWAP1 PUSH2 0x3EEA JUMP JUMPDEST PUSH2 0xB29 JUMP JUMPDEST STOP JUMPDEST CALLVALUE DUP1 ISZERO PUSH2 0x3DD JUMPI PUSH0 PUSH0 REVERT JUMPDEST POP PUSH2 0x3F8 PUSH1 0x4 DUP1 CALLDATASIZE SUB DUP2 ADD SWAP1 PUSH2 0x3F3 SWAP2 SWAP1 PUSH2 0x3F5B JUMP JUMPDEST PUSH2 0xB2F JUMP JUMPDEST PUSH1 0x40 MLOAD PUSH2 0x405 SWAP2 SWAP1 PUSH2 0x3F95 JUMP JUMPDEST PUSH1 0x40 MLOAD DUP1 SWAP2 SUB SWAP1 RETURN JUMPDEST CALLVALUE DUP1 ISZERO PUSH2 0x419 JUMPI PUSH0 PUSH0 REVERT JUMPDEST POP PUSH2 0x434 PUSH1 0x4 DUP1 CALLDATASIZE SUB DUP2 ADD SWAP1 PUSH2 0x42F SWAP2 SWAP1 PUSH2 0x3E74 JUMP JUMPDEST PUSH2 0xB67 JUMP JUMPDEST PUSH1 0x40 MLOAD PUSH2 0x442 SWAP3 SWAP2 SWAP1 PUSH2 0x3FAE JUMP JUMPDEST PUSH1 0x40 MLOAD DUP1 SWAP2 SUB SWAP1 RETURN JUMPDEST CALLVALUE DUP1 ISZERO PUSH2 0x456 JUMPI PUSH0 PUSH0 REVERT JUMPDEST POP PUSH2 0x45F PUSH2 0xB7B JUMP JUMPDEST PUSH1 0x40 MLOAD PUSH2 0x46C SWAP2 SWAP1 PUSH2 0x3DDD JUMP JUMPDEST PUSH1 0x40 MLOAD DUP1 SWAP2 SUB SWAP1 RETURN JUMPDEST CALLVALUE DUP1 ISZERO PUSH2 0x480 JUMPI PUSH0 PUSH0 REVERT JUMPDEST POP PUSH2 0x49B PUSH1 0x4 DUP1 CALLDATASIZE SUB DUP2 ADD SWAP1 PUSH2 0x496 SWAP2 SWAP1 PUSH2 0x3BCF JUMP JUMPDEST PUSH2 0xB89 JUMP JUMPDEST PUSH1 0x40 MLOAD PUSH2 0x4AD SWAP7 SWAP6 SWAP5 SWAP4 SWAP3 SWAP2 SWAP1 PUSH2 0x3FE4 JUMP JUMPDEST PUSH1 0x40 MLOAD DUP1 SWAP2 SUB SWAP1 RETURN JUMPDEST PUSH2 0x4D0 PUSH1 0x4 DUP1 CALLDATASIZE SUB DUP2 ADD SWAP1 PUSH2 0x4CB SWAP2 SWAP1 PUSH2 0x4043 JUMP JUMPDEST PUSH2 0xBC7 JUMP JUMPDEST STOP JUMPDEST CALLVALUE DUP1 ISZERO PUSH2 0x4DD JUMPI PUSH0 PUSH0 REVERT JUMPDEST POP PUSH2 0x4F8 PUSH1 0x4 DUP1 CALLDATASIZE SUB DUP2 ADD SWAP1 PUSH2 0x4F3 SWAP2 SWAP1 PUSH2 0x40D6 JUMP JUMPDEST PUSH2 0xCBD JUMP JUMPDEST PUSH1 0x40 MLOAD PUSH2 0x505 SWAP2 SWAP1 PUSH2 0x3D03 JUMP JUMPDEST PUSH1 0x40 MLOAD DUP1 SWAP2 SUB SWAP1 RETURN JUMPDEST CALLVALUE DUP1 ISZERO PUSH2 0x519 JUMPI PUSH0 PUSH0 REVERT JUMPDEST POP PUSH2 0x534 PUSH1 0x4 DUP1 CALLDATASIZE SUB DUP2 ADD SWAP1 PUSH2 0x52F SWAP2 SWAP1 PUSH2 0x41AD JUMP JUMPDEST PUSH2 0xCD4 JUMP JUMPDEST PUSH1 0x40 MLOAD PUSH2 0x541 SWAP2 SWAP1 PUSH2 0x3D03 JUMP JUMPDEST PUSH1 0x40 MLOAD DUP1 SWAP2 SUB SWAP1 RETURN JUMPDEST CALLVALUE DUP1 ISZERO PUSH2 0x555 JUMPI PUSH0 PUSH0 REVERT JUMPDEST POP PUSH2 0x570 PUSH1 0x4 DUP1 CALLDATASIZE SUB DUP2 ADD SWAP1 PUSH2 0x56B SWAP2 SWAP1 PUSH2 0x4284 JUMP JUMPDEST PUSH2 0xCE9 JUMP JUMPDEST STOP JUMPDEST PUSH0 PUSH2 0x5BE PUSH32 0xBE27A319EFC8734E89E26BA4BC95F5C788584163B959F03FA04E2D7AB4B9A120 PUSH0 SHL DUP4 PUSH28 0xFFFFFFFFFFFFFFFFFFFFFFFFFFFFFFFFFFFFFFFFFFFFFFFFFFFFFFFF NOT AND PUSH2 0xDB2 JUMP JUMPDEST PUSH0 SHR SWAP1 POP SWAP2 SWAP1 POP JUMP JUMPDEST ADDRESS PUSH20 0xFFFFFFFFFFFFFFFFFFFFFFFFFFFFFFFFFFFFFFFF AND CALLER PUSH20 0xFFFFFFFFFFFFFFFFFFFFFFFFFFFFFFFFFFFFFFFF AND EQ PUSH2 0x637 JUMPI CALLER PUSH1 0x40 MLOAD PUSH32 0xA19DBF0000000000000000000000000000000000000000000000000000000000 DUP2 MSTORE PUSH1 0x4 ADD PUSH2 0x62E SWAP2 SWAP1 PUSH2 0x3DDD JUMP JUMPDEST PUSH1 0x40 MLOAD DUP1 SWAP2 SUB SWAP1 REVERT JUMPDEST PUSH2 0x640 DUP2 PUSH2 0xDEA JUMP JUMPDEST POP JUMP JUMPDEST PUSH0 PUSH0 PUSH1 0x1 DUP6 PUSH2 0x100 ADD MLOAD MLOAD PUSH2 0x658 SWAP2 SWAP1 PUSH2 0x4301 JUMP JUMPDEST PUSH8 0xFFFFFFFFFFFFFFFF DUP2 GT ISZERO PUSH2 0x671 JUMPI PUSH2 0x670 PUSH2 0x35E3 JUMP JUMPDEST JUMPDEST PUSH1 0x40 MLOAD SWAP1 DUP1 DUP3 MSTORE DUP1 PUSH1 0x20 MUL PUSH1 0x20 ADD DUP3 ADD PUSH1 0x40 MSTORE DUP1 ISZERO PUSH2 0x69F JUMPI DUP2 PUSH1 0x20 ADD PUSH1 0x20 DUP3 MUL DUP1 CALLDATASIZE DUP4 CALLDATACOPY DUP1 DUP3 ADD SWAP2 POP POP SWAP1 POP JUMPDEST POP SWAP1 POP PUSH0 PUSH0 SWAP1 POP JUMPDEST DUP6 PUSH2 0x100 ADD MLOAD MLOAD DUP2 LT ISZERO PUSH2 0x72F JUMPI DUP6 PUSH2 0x100 ADD MLOAD DUP2 DUP2 MLOAD DUP2 LT PUSH2 0x6CD JUMPI PUSH2 0x6CC PUSH2 0x4334 JUMP JUMPDEST JUMPDEST PUSH1 0x20 MUL PUSH1 0x20 ADD ADD MLOAD DUP3 DUP3 DUP2 MLOAD DUP2 LT PUSH2 0x6E8 JUMPI PUSH2 0x6E7 PUSH2 0x4334 JUMP JUMPDEST JUMPDEST PUSH1 0x20 MUL PUSH1 0x20 ADD ADD SWAP1 PUSH20 0xFFFFFFFFFFFFFFFFFFFFFFFFFFFFFFFFFFFFFFFF AND SWAP1 DUP2 PUSH20 0xFFFFFFFFFFFFFFFFFFFFFFFFFFFFFFFFFFFFFFFF AND DUP2 MSTORE POP POP DUP1 DUP1 PUSH1 0x1 ADD SWAP2 POP POP PUSH2 0x6A7 JUMP JUMPDEST POP CALLER DUP2 DUP7 PUSH2 0x100 ADD MLOAD MLOAD DUP2 MLOAD DUP2 LT PUSH2 0x74A JUMPI PUSH2 0x749 PUSH2 0x4334 JUMP JUMPDEST JUMPDEST PUSH1 0x20 MUL PUSH1 0x20 ADD ADD SWAP1 PUSH20 0xFFFFFFFFFFFFFFFFFFFFFFFFFFFFFFFFFFFFFFFF AND SWAP1 DUP2 PUSH20 0xFFFFFFFFFFFFFFFFFFFFFFFFFFFFFFFFFFFFFFFF AND DUP2 MSTORE POP POP DUP1 DUP6 PUSH2 0x100 ADD DUP2 SWAP1 MSTORE POP PUSH0 PUSH2 0x79A DUP7 DUP7 DUP7 PUSH2 0xE2D JUMP JUMPDEST POP SWAP1 POP DUP1 PUSH2 0x7E3 JUMPI DUP6 DUP6 DUP6 PUSH1 0x40 MLOAD PUSH32 0xF58CC8B500000000000000000000000000000000000000000000000000000000 DUP2 MSTORE PUSH1 0x4 ADD PUSH2 0x7DA SWAP4 SWAP3 SWAP2 SWAP1 PUSH2 0x4714 JUMP JUMPDEST PUSH1 0x40 MLOAD DUP1 SWAP2 SUB SWAP1 REVERT JUMPDEST PUSH1 0x1 PUSH0 SHL SWAP3 POP POP POP SWAP4 SWAP3 POP POP POP JUMP JUMPDEST PUSH0 PUSH4 0x150B7A02 PUSH1 0xE0 SHL SWAP1 POP SWAP6 SWAP5 POP POP POP POP POP JUMP JUMPDEST PUSH0 PUSH0 PUSH2 0x811 DUP6 PUSH2 0x101D JUMP JUMPDEST SWAP1 POP PUSH0 PUSH2 0x81F DUP3 DUP7 DUP7 PUSH2 0xE2D JUMP JUMPDEST POP SWAP1 POP DUP1 PUSH2 0x834 JUMPI PUSH0 PUSH1 0xE0 SHL SWAP3 POP POP POP PUSH2 0x841 JUMP JUMPDEST PUSH4 0x20C13B0B PUSH1 0xE0 SHL SWAP3 POP POP POP JUMPDEST SWAP4 SWAP3 POP POP POP JUMP JUMPDEST PUSH0 PUSH2 0x852 DUP3 PUSH2 0x572 JUMP JUMPDEST SWAP1 POP SWAP2 SWAP1 POP JUMP JUMPDEST PUSH0 GAS SWAP1 POP PUSH0 PUSH2 0x868 DUP7 DUP7 PUSH2 0x1046 JUMP JUMPDEST SWAP1 POP PUSH2 0x87C DUP2 PUSH1 0x60 ADD MLOAD DUP3 PUSH1 0x80 ADD MLOAD PUSH2 0x14E8 JUMP JUMPDEST PUSH0 PUSH0 PUSH2 0x889 DUP4 DUP8 DUP8 PUSH2 0xE2D JUMP JUMPDEST SWAP2 POP SWAP2 POP DUP2 PUSH2 0x8D3 JUMPI DUP3 DUP7 DUP7 PUSH1 0x40 MLOAD PUSH32 0xA2B6D61B00000000000000000000000000000000000000000000000000000000 DUP2 MSTORE PUSH1 0x4 ADD PUSH2 0x8CA SWAP4 SWAP3 SWAP2 SWAP1 PUSH2 0x4714 JUMP JUMPDEST PUSH1 0x40 MLOAD DUP1 SWAP2 SUB SWAP1 REVERT JUMPDEST PUSH2 0x8DE DUP5 DUP3 DUP6 PUSH2 0x158C JUMP JUMPDEST POP POP POP POP POP POP POP POP JUMP JUMPDEST ADDRESS PUSH20 0xFFFFFFFFFFFFFFFFFFFFFFFFFFFFFFFFFFFFFFFF AND CALLER PUSH20 0xFFFFFFFFFFFFFFFFFFFFFFFFFFFFFFFFFFFFFFFF AND EQ PUSH2 0x958 JUMPI CALLER PUSH1 0x40 MLOAD PUSH32 0xA19DBF0000000000000000000000000000000000000000000000000000000000 DUP2 MSTORE PUSH1 0x4 ADD PUSH2 0x94F SWAP2 SWAP1 PUSH2 0x3DDD JUMP JUMPDEST PUSH1 0x40 MLOAD DUP1 SWAP2 SUB SWAP1 REVERT JUMPDEST PUSH2 0x961 DUP2 PUSH2 0x18BC JUMP JUMPDEST POP JUMP JUMPDEST ADDRESS PUSH20 0xFFFFFFFFFFFFFFFFFFFFFFFFFFFFFFFFFFFFFFFF AND CALLER PUSH20 0xFFFFFFFFFFFFFFFFFFFFFFFFFFFFFFFFFFFFFFFF AND EQ PUSH2 0x9D4 JUMPI CALLER PUSH1 0x40 MLOAD PUSH32 0xA19DBF0000000000000000000000000000000000000000000000000000000000 DUP2 MSTORE PUSH1 0x4 ADD PUSH2 0x9CB SWAP2 SWAP1 PUSH2 0x3DDD JUMP JUMPDEST PUSH1 0x40 MLOAD DUP1 SWAP2 SUB SWAP1 REVERT JUMPDEST PUSH0 PUSH20 0xFFFFFFFFFFFFFFFFFFFFFFFFFFFFFFFFFFFFFFFF AND PUSH2 0x9F4 DUP3 PUSH2 0x572 JUMP JUMPDEST PUSH20 0xFFFFFFFFFFFFFFFFFFFFFFFFFFFFFFFFFFFFFFFF AND SUB PUSH2 0xA4C JUMPI DUP1 PUSH1 0x40 MLOAD PUSH32 0x1C3812CC00000000000000000000000000000000000000000000000000000000 DUP2 MSTORE PUSH1 0x4 ADD PUSH2 0xA43 SWAP2 SWAP1 PUSH2 0x3D03 JUMP JUMPDEST PUSH1 0x40 MLOAD DUP1 SWAP2 SUB SWAP1 REVERT JUMPDEST PUSH2 0xA56 DUP2 PUSH0 PUSH2 0x195D JUMP JUMPDEST POP JUMP JUMPDEST PUSH0 PUSH2 0xA85 PUSH32 0xEA7157FA25E3AA17D0AE2D5280FA4E24D421C61842AA85E45194E1145AA72BF8 PUSH0 SHL PUSH2 0x19FE JUMP JUMPDEST SWAP1 POP SWAP1 JUMP JUMPDEST ADDRESS PUSH20 0xFFFFFFFFFFFFFFFFFFFFFFFFFFFFFFFFFFFFFFFF AND CALLER PUSH20 0xFFFFFFFFFFFFFFFFFFFFFFFFFFFFFFFFFFFFFFFF AND EQ PUSH2 0xAFA JUMPI CALLER PUSH1 0x40 MLOAD PUSH32 0xA19DBF0000000000000000000000000000000000000000000000000000000000 DUP2 MSTORE PUSH1 0x4 ADD PUSH2 0xAF1 SWAP2 SWAP1 PUSH2 0x3DDD JUMP JUMPDEST PUSH1 0x40 MLOAD DUP1 SWAP2 SUB SWAP1 REVERT JUMPDEST PUSH0 GAS SWAP1 POP PUSH0 PUSH2 0xB09 DUP5 DUP5 PUSH2 0x1046 JUMP JUMPDEST SWAP1 POP PUSH0 PUSH2 0xB15 DUP3 PUSH2 0x1A08 JUMP JUMPDEST SWAP1 POP PUSH2 0xB22 DUP4 DUP3 DUP5 PUSH2 0x158C JUMP JUMPDEST POP POP POP POP POP JUMP JUMPDEST POP POP POP POP JUMP JUMPDEST PUSH0 PUSH2 0xB5E PUSH32 0x8D0BF1FD623D628C741362C1289948E57B3E2905218C676D3E69ABEE36D6AE2E PUSH0 SHL DUP4 PUSH0 SHL PUSH2 0xDB2 JUMP JUMPDEST PUSH0 SHR SWAP1 POP SWAP2 SWAP1 POP JUMP JUMPDEST PUSH0 PUSH0 PUSH2 0xB72 DUP4 PUSH2 0x1A58 JUMP JUMPDEST SWAP2 POP SWAP2 POP SWAP2 POP SWAP2 JUMP JUMPDEST PUSH0 PUSH2 0xB84 PUSH2 0x1AA9 JUMP JUMPDEST SWAP1 POP SWAP1 JUMP JUMPDEST PUSH0 PUSH0 PUSH0 PUSH0 PUSH0 PUSH0 PUSH2 0xB9C DUP10 DUP10 DUP10 PUSH0 PUSH0 PUSH2 0x1AB1 JUMP JUMPDEST DUP1 SWAP6 POP DUP2 SWAP7 POP DUP3 SWAP8 POP DUP4 SWAP10 POP DUP5 SWAP11 POP POP POP POP POP POP PUSH2 0xBB9 DUP4 PUSH2 0x1DEE JUMP JUMPDEST SWAP4 POP SWAP4 SWAP8 POP SWAP4 SWAP8 SWAP2 SWAP6 POP SWAP4 POP JUMP JUMPDEST ADDRESS PUSH20 0xFFFFFFFFFFFFFFFFFFFFFFFFFFFFFFFFFFFFFFFF AND CALLER PUSH20 0xFFFFFFFFFFFFFFFFFFFFFFFFFFFFFFFFFFFFFFFF AND EQ PUSH2 0xC37 JUMPI CALLER PUSH1 0x40 MLOAD PUSH32 0xA19DBF0000000000000000000000000000000000000000000000000000000000 DUP2 MSTORE PUSH1 0x4 ADD PUSH2 0xC2E SWAP2 SWAP1 PUSH2 0x3DDD JUMP JUMPDEST PUSH1 0x40 MLOAD DUP1 SWAP2 SUB SWAP1 REVERT JUMPDEST PUSH0 PUSH20 0xFFFFFFFFFFFFFFFFFFFFFFFFFFFFFFFFFFFFFFFF AND PUSH2 0xC57 DUP4 PUSH2 0x572 JUMP JUMPDEST PUSH20 0xFFFFFFFFFFFFFFFFFFFFFFFFFFFFFFFFFFFFFFFF AND EQ PUSH2 0xCAF JUMPI DUP2 PUSH1 0x40 MLOAD PUSH32 0x5B4D6D6A00000000000000000000000000000000000000000000000000000000 DUP2 MSTORE PUSH1 0x4 ADD PUSH2 0xCA6 SWAP2 SWAP1 PUSH2 0x3D03 JUMP JUMPDEST PUSH1 0x40 MLOAD DUP1 SWAP2 SUB SWAP1 REVERT JUMPDEST PUSH2 0xCB9 DUP3 DUP3 PUSH2 0x195D JUMP JUMPDEST POP POP JUMP JUMPDEST PUSH0 PUSH4 0xBC197C81 PUSH1 0xE0 SHL SWAP1 POP SWAP9 SWAP8 POP POP POP POP POP POP POP POP JUMP JUMPDEST PUSH0 PUSH4 0xF23A6E61 PUSH1 0xE0 SHL SWAP1 POP SWAP7 SWAP6 POP POP POP POP POP POP JUMP JUMPDEST ADDRESS PUSH20 0xFFFFFFFFFFFFFFFFFFFFFFFFFFFFFFFFFFFFFFFF AND CALLER PUSH20 0xFFFFFFFFFFFFFFFFFFFFFFFFFFFFFFFFFFFFFFFF AND EQ PUSH2 0xD59 JUMPI CALLER PUSH1 0x40 MLOAD PUSH32 0xA19DBF0000000000000000000000000000000000000000000000000000000000 DUP2 MSTORE PUSH1 0x4 ADD PUSH2 0xD50 SWAP2 SWAP1 PUSH2 0x3DDD JUMP JUMPDEST PUSH1 0x40 MLOAD DUP1 SWAP2 SUB SWAP1 REVERT JUMPDEST PUSH2 0xD72 DUP4 DUP4 DUP4 PUSH12 0xFFFFFFFFFFFFFFFFFFFFFFFF AND PUSH2 0x1DFF JUMP JUMPDEST PUSH32 0xEBF265ACFAC1C01DE588ED7EF49743B9C3CE8D6D1EDEAF510A1F5453228515B1 DUP4 DUP4 DUP4 PUSH1 0x40 MLOAD PUSH2 0xDA5 SWAP4 SWAP3 SWAP2 SWAP1 PUSH2 0x475A JUMP JUMPDEST PUSH1 0x40 MLOAD DUP1 SWAP2 SUB SWAP1 LOG1 POP POP POP JUMP JUMPDEST PUSH0 PUSH0 DUP4 DUP4 PUSH1 0x40 MLOAD PUSH1 0x20 ADD PUSH2 0xDC7 SWAP3 SWAP2 SWAP1 PUSH2 0x478F JUMP JUMPDEST PUSH1 0x40 MLOAD PUSH1 0x20 DUP2 DUP4 SUB SUB DUP2 MSTORE SWAP1 PUSH1 0x40 MSTORE DUP1 MLOAD SWAP1 PUSH1 0x20 ADD KECCAK256 SWAP1 POP DUP1 SLOAD SWAP2 POP POP SWAP3 SWAP2 POP POP JUMP JUMPDEST PUSH2 0xDF3 DUP2 PUSH2 0x1E5D JUMP JUMPDEST PUSH32 0x310BA5F1D2ED074B51E2ECCD052A47AE9AB7C6B800D1FCA3DB3999D6A592CA03 DUP2 PUSH1 0x40 MLOAD PUSH2 0xE22 SWAP2 SWAP1 PUSH2 0x3DDD JUMP JUMPDEST PUSH1 0x40 MLOAD DUP1 SWAP2 SUB SWAP1 LOG1 POP JUMP JUMPDEST PUSH0 PUSH0 PUSH0 DUP5 DUP5 PUSH0 DUP2 DUP2 LT PUSH2 0xE43 JUMPI PUSH2 0xE42 PUSH2 0x4334 JUMP JUMPDEST JUMPDEST SWAP1 POP ADD CALLDATALOAD PUSH1 0xF8 SHR PUSH1 0xF8 SHL SWAP1 POP PUSH1 0x80 PUSH1 0xF8 SHL PUSH1 0x80 PUSH1 0xF8 SHL DUP3 AND PUSH31 0xFFFFFFFFFFFFFFFFFFFFFFFFFFFFFFFFFFFFFFFFFFFFFFFFFFFFFFFFFFFFFF NOT AND SUB PUSH2 0xF9C JUMPI PUSH2 0xE8B DUP7 PUSH2 0x1A08 JUMP JUMPDEST SWAP2 POP PUSH0 PUSH0 PUSH2 0xE98 DUP5 PUSH2 0x1A58 JUMP JUMPDEST SWAP2 POP SWAP2 POP TIMESTAMP DUP2 GT PUSH2 0xEE2 JUMPI DUP4 DUP2 PUSH1 0x40 MLOAD PUSH32 0xF95B6AB700000000000000000000000000000000000000000000000000000000 DUP2 MSTORE PUSH1 0x4 ADD PUSH2 0xED9 SWAP3 SWAP2 SWAP1 PUSH2 0x47B6 JUMP JUMPDEST PUSH1 0x40 MLOAD DUP1 SWAP2 SUB SWAP1 REVERT JUMPDEST PUSH0 PUSH20 0xFFFFFFFFFFFFFFFFFFFFFFFFFFFFFFFFFFFFFFFF AND DUP3 PUSH20 0xFFFFFFFFFFFFFFFFFFFFFFFFFFFFFFFFFFFFFFFF AND EQ ISZERO DUP1 ISZERO PUSH2 0xF4A JUMPI POP CALLER PUSH20 0xFFFFFFFFFFFFFFFFFFFFFFFFFFFFFFFFFFFFFFFF AND DUP3 PUSH20 0xFFFFFFFFFFFFFFFFFFFFFFFFFFFFFFFFFFFFFFFF AND EQ ISZERO JUMPDEST ISZERO PUSH2 0xF90 JUMPI DUP4 CALLER DUP4 PUSH1 0x40 MLOAD PUSH32 0x8945C31300000000000000000000000000000000000000000000000000000000 DUP2 MSTORE PUSH1 0x4 ADD PUSH2 0xF87 SWAP4 SWAP3 SWAP2 SWAP1 PUSH2 0x47DD JUMP JUMPDEST PUSH1 0x40 MLOAD DUP1 SWAP2 SUB SWAP1 REVERT JUMPDEST PUSH1 0x1 SWAP5 POP POP POP POP PUSH2 0x1015 JUMP JUMPDEST PUSH0 PUSH0 PUSH0 PUSH2 0xFAC DUP10 DUP10 DUP10 PUSH0 PUSH0 PUSH2 0x1AB1 JUMP JUMPDEST SWAP1 POP DUP1 SWAP9 POP DUP2 SWAP5 POP DUP3 SWAP6 POP DUP4 SWAP7 POP POP POP POP POP DUP3 DUP3 LT ISZERO PUSH2 0x1005 JUMPI DUP3 DUP3 PUSH1 0x40 MLOAD PUSH32 0xFD41FCBA00000000000000000000000000000000000000000000000000000000 DUP2 MSTORE PUSH1 0x4 ADD PUSH2 0xFFC SWAP3 SWAP2 SWAP1 PUSH2 0x4812 JUMP JUMPDEST PUSH1 0x40 MLOAD DUP1 SWAP2 SUB SWAP1 REVERT JUMPDEST PUSH2 0x100E DUP2 PUSH2 0x1DEE JUMP JUMPDEST SWAP6 POP POP POP POP POP JUMPDEST SWAP4 POP SWAP4 SWAP2 POP POP JUMP JUMPDEST PUSH2 0x1025 PUSH2 0x3392 JUMP JUMPDEST PUSH1 0x3 DUP2 PUSH0 ADD SWAP1 PUSH1 0xFF AND SWAP1 DUP2 PUSH1 0xFF AND DUP2 MSTORE POP POP DUP2 DUP2 PUSH1 0xE0 ADD DUP2 DUP2 MSTORE POP POP SWAP2 SWAP1 POP JUMP JUMPDEST PUSH2 0x104E PUSH2 0x3392 JUMP JUMPDEST PUSH0 DUP2 PUSH0 ADD SWAP1 PUSH1 0xFF AND SWAP1 DUP2 PUSH1 0xFF AND DUP2 MSTORE POP POP PUSH0 PUSH0 PUSH2 0x106B DUP6 DUP6 PUSH2 0x1E63 JUMP JUMPDEST SWAP2 POP PUSH1 0xFF AND SWAP2 POP PUSH1 0x1 DUP1 DUP4 AND SUB PUSH2 0x108B JUMPI PUSH0 DUP4 PUSH1 0x60 ADD DUP2 DUP2 MSTORE POP POP PUSH2 0x10C7 JUMP JUMPDEST PUSH2 0x10A0 DUP2 DUP7 DUP7 PUSH2 0x1E79 SWAP3 SWAP1 SWAP2 SWAP3 PUSH4 0xFFFFFFFF AND JUMP JUMPDEST DUP2 PUSH20 0xFFFFFFFFFFFFFFFFFFFFFFFFFFFFFFFFFFFFFFFF AND SWAP2 POP DUP5 PUSH1 0x60 ADD DUP2 SWAP4 POP DUP3 DUP2 MSTORE POP POP POP JUMPDEST PUSH0 PUSH1 0x7 PUSH1 0x1 DUP5 SWAP1 SHR AND SWAP1 POP PUSH0 DUP2 GT ISZERO PUSH2 0x1104 JUMPI PUSH2 0x10F6 DUP3 DUP3 DUP9 DUP9 PUSH2 0x1EAA SWAP2 SWAP1 SWAP4 SWAP3 SWAP2 SWAP1 SWAP4 SWAP3 SWAP2 SWAP1 PUSH4 0xFFFFFFFF AND JUMP JUMPDEST DUP6 PUSH1 0x80 ADD DUP2 SWAP5 POP DUP3 DUP2 MSTORE POP POP POP JUMPDEST PUSH0 PUSH1 0x10 DUP1 DUP6 AND SUB PUSH2 0x1118 JUMPI PUSH1 0x1 SWAP1 POP PUSH2 0x1170 JUMP JUMPDEST PUSH1 0x20 DUP1 DUP6 AND SUB PUSH2 0x114B JUMPI PUSH2 0x1137 DUP4 DUP9 DUP9 PUSH2 0x1ED7 SWAP3 SWAP1 SWAP2 SWAP3 PUSH4 0xFFFFFFFF AND JUMP JUMPDEST DUP2 PUSH2 0xFFFF AND SWAP2 POP DUP1 SWAP5 POP DUP2 SWAP3 POP POP POP PUSH2 0x116F JUMP JUMPDEST PUSH2 0x1160 DUP4 DUP9 DUP9 PUSH2 0x1EF6 SWAP3 SWAP1 SWAP2 SWAP3 PUSH4 0xFFFFFFFF AND JUMP JUMPDEST DUP2 PUSH1 0xFF AND SWAP2 POP DUP1 SWAP5 POP DUP2 SWAP3 POP POP POP JUMPDEST JUMPDEST DUP1 PUSH8 0xFFFFFFFFFFFFFFFF DUP2 GT ISZERO PUSH2 0x118A JUMPI PUSH2 0x1189 PUSH2 0x35E3 JUMP JUMPDEST JUMPDEST PUSH1 0x40 MLOAD SWAP1 DUP1 DUP3 MSTORE DUP1 PUSH1 0x20 MUL PUSH1 0x20 ADD DUP3 ADD PUSH1 0x40 MSTORE DUP1 ISZERO PUSH2 0x11C3 JUMPI DUP2 PUSH1 0x20 ADD JUMPDEST PUSH2 0x11B0 PUSH2 0x33DD JUMP JUMPDEST DUP2 MSTORE PUSH1 0x20 ADD SWAP1 PUSH1 0x1 SWAP1 SUB SWAP1 DUP2 PUSH2 0x11A8 JUMPI SWAP1 POP JUMPDEST POP DUP6 PUSH1 0x40 ADD DUP2 SWAP1 MSTORE POP PUSH0 PUSH0 SWAP1 POP JUMPDEST DUP2 DUP2 LT ISZERO PUSH2 0x14DD JUMPI PUSH0 PUSH2 0x11EF DUP6 DUP11 DUP11 PUSH2 0x1EF6 SWAP3 SWAP1 SWAP2 SWAP3 PUSH4 0xFFFFFFFF AND JUMP JUMPDEST DUP1 SWAP7 POP DUP2 SWAP3 POP POP POP PUSH1 0x1 DUP1 DUP3 AND PUSH1 0xFF AND SUB PUSH2 0x125E JUMPI ADDRESS DUP8 PUSH1 0x40 ADD MLOAD DUP4 DUP2 MLOAD DUP2 LT PUSH2 0x121C JUMPI PUSH2 0x121B PUSH2 0x4334 JUMP JUMPDEST JUMPDEST PUSH1 0x20 MUL PUSH1 0x20 ADD ADD MLOAD PUSH0 ADD SWAP1 PUSH20 0xFFFFFFFFFFFFFFFFFFFFFFFFFFFFFFFFFFFFFFFF AND SWAP1 DUP2 PUSH20 0xFFFFFFFFFFFFFFFFFFFFFFFFFFFFFFFFFFFFFFFF AND DUP2 MSTORE POP POP PUSH2 0x12CA JUMP JUMPDEST PUSH2 0x1273 DUP6 DUP11 DUP11 PUSH2 0x1F11 SWAP3 SWAP1 SWAP2 SWAP3 PUSH4 0xFFFFFFFF AND JUMP JUMPDEST DUP9 PUSH1 0x40 ADD MLOAD DUP5 DUP2 MLOAD DUP2 LT PUSH2 0x128A JUMPI PUSH2 0x1289 PUSH2 0x4334 JUMP JUMPDEST JUMPDEST PUSH1 0x20 MUL PUSH1 0x20 ADD ADD MLOAD PUSH0 ADD DUP2 SWAP8 POP DUP3 PUSH20 0xFFFFFFFFFFFFFFFFFFFFFFFFFFFFFFFFFFFFFFFF AND PUSH20 0xFFFFFFFFFFFFFFFFFFFFFFFFFFFFFFFFFFFFFFFF AND DUP2 MSTORE POP POP POP JUMPDEST PUSH1 0x2 DUP1 DUP3 AND PUSH1 0xFF AND SUB PUSH2 0x1318 JUMPI PUSH2 0x12EC DUP6 DUP11 DUP11 PUSH2 0x1F42 SWAP3 SWAP1 SWAP2 SWAP3 PUSH4 0xFFFFFFFF AND JUMP JUMPDEST DUP9 PUSH1 0x40 ADD MLOAD DUP5 DUP2 MLOAD DUP2 LT PUSH2 0x1303 JUMPI PUSH2 0x1302 PUSH2 0x4334 JUMP JUMPDEST JUMPDEST PUSH1 0x20 MUL PUSH1 0x20 ADD ADD MLOAD PUSH1 0x20 ADD DUP2 SWAP8 POP DUP3 DUP2 MSTORE POP POP POP JUMPDEST PUSH1 0x4 DUP1 DUP3 AND PUSH1 0xFF AND SUB PUSH2 0x13E0 JUMPI PUSH0 PUSH2 0x133B DUP7 DUP12 DUP12 PUSH2 0x1F58 SWAP3 SWAP1 SWAP2 SWAP3 PUSH4 0xFFFFFFFF AND JUMP JUMPDEST DUP2 PUSH3 0xFFFFFF AND SWAP2 POP DUP1 SWAP8 POP DUP2 SWAP3 POP POP POP DUP10 DUP10 DUP8 SWAP1 DUP4 DUP10 PUSH2 0x135B SWAP2 SWAP1 PUSH2 0x4301 JUMP JUMPDEST SWAP3 PUSH2 0x1368 SWAP4 SWAP3 SWAP2 SWAP1 PUSH2 0x4841 JUMP JUMPDEST DUP1 DUP1 PUSH1 0x1F ADD PUSH1 0x20 DUP1 SWAP2 DIV MUL PUSH1 0x20 ADD PUSH1 0x40 MLOAD SWAP1 DUP2 ADD PUSH1 0x40 MSTORE DUP1 SWAP4 SWAP3 SWAP2 SWAP1 DUP2 DUP2 MSTORE PUSH1 0x20 ADD DUP4 DUP4 DUP1 DUP3 DUP5 CALLDATACOPY PUSH0 DUP2 DUP5 ADD MSTORE PUSH1 0x1F NOT PUSH1 0x1F DUP3 ADD AND SWAP1 POP DUP1 DUP4 ADD SWAP3 POP POP POP POP POP POP POP DUP9 PUSH1 0x40 ADD MLOAD DUP5 DUP2 MLOAD DUP2 LT PUSH2 0x13C1 JUMPI PUSH2 0x13C0 PUSH2 0x4334 JUMP JUMPDEST JUMPDEST PUSH1 0x20 MUL PUSH1 0x20 ADD ADD MLOAD PUSH1 0x40 ADD DUP2 SWAP1 MSTORE POP DUP1 DUP7 PUSH2 0x13DC SWAP2 SWAP1 PUSH2 0x4301 JUMP JUMPDEST SWAP6 POP POP JUMPDEST PUSH1 0x8 DUP1 DUP3 AND PUSH1 0xFF AND SUB PUSH2 0x142E JUMPI PUSH2 0x1402 DUP6 DUP11 DUP11 PUSH2 0x1F42 SWAP3 SWAP1 SWAP2 SWAP3 PUSH4 0xFFFFFFFF AND JUMP JUMPDEST DUP9 PUSH1 0x40 ADD MLOAD DUP5 DUP2 MLOAD DUP2 LT PUSH2 0x1419 JUMPI PUSH2 0x1418 PUSH2 0x4334 JUMP JUMPDEST JUMPDEST PUSH1 0x20 MUL PUSH1 0x20 ADD ADD MLOAD PUSH1 0x60 ADD DUP2 SWAP8 POP DUP3 DUP2 MSTORE POP POP POP JUMPDEST PUSH1 0x10 DUP1 DUP3 AND PUSH1 0xFF AND EQ DUP8 PUSH1 0x40 ADD MLOAD DUP4 DUP2 MLOAD DUP2 LT PUSH2 0x144E JUMPI PUSH2 0x144D PUSH2 0x4334 JUMP JUMPDEST JUMPDEST PUSH1 0x20 MUL PUSH1 0x20 ADD ADD MLOAD PUSH1 0x80 ADD SWAP1 ISZERO ISZERO SWAP1 DUP2 ISZERO ISZERO DUP2 MSTORE POP POP PUSH1 0x20 DUP1 DUP3 AND PUSH1 0xFF AND EQ DUP8 PUSH1 0x40 ADD MLOAD DUP4 DUP2 MLOAD DUP2 LT PUSH2 0x1484 JUMPI PUSH2 0x1483 PUSH2 0x4334 JUMP JUMPDEST JUMPDEST PUSH1 0x20 MUL PUSH1 0x20 ADD ADD MLOAD PUSH1 0xA0 ADD SWAP1 ISZERO ISZERO SWAP1 DUP2 ISZERO ISZERO DUP2 MSTORE POP POP PUSH1 0x6 PUSH1 0xC0 DUP3 AND PUSH1 0xFF AND SWAP1 SHR PUSH1 0xFF AND DUP8 PUSH1 0x40 ADD MLOAD DUP4 DUP2 MLOAD DUP2 LT PUSH2 0x14BF JUMPI PUSH2 0x14BE PUSH2 0x4334 JUMP JUMPDEST JUMPDEST PUSH1 0x20 MUL PUSH1 0x20 ADD ADD MLOAD PUSH1 0xC0 ADD DUP2 DUP2 MSTORE POP POP POP DUP1 DUP1 PUSH1 0x1 ADD SWAP2 POP POP PUSH2 0x11D1 JUMP JUMPDEST POP POP POP POP POP SWAP3 SWAP2 POP POP JUMP JUMPDEST PUSH0 PUSH2 0x14F2 DUP4 PUSH2 0xB2F JUMP JUMPDEST SWAP1 POP DUP2 DUP2 EQ PUSH2 0x153C JUMPI DUP3 DUP3 DUP3 PUSH1 0x40 MLOAD PUSH32 0x9B6514F400000000000000000000000000000000000000000000000000000000 DUP2 MSTORE PUSH1 0x4 ADD PUSH2 0x1533 SWAP4 SWAP3 SWAP2 SWAP1 PUSH2 0x487B JUMP JUMPDEST PUSH1 0x40 MLOAD DUP1 SWAP2 SUB SWAP1 REVERT JUMPDEST PUSH0 PUSH1 0x1 DUP4 ADD SWAP1 POP PUSH2 0x154D DUP5 DUP3 PUSH2 0x1F78 JUMP JUMPDEST PUSH32 0x1F180C27086C7A39EA2A7B25239D1AB92348F07CA7BB59D1438FCF527568F881 DUP5 DUP3 PUSH1 0x40 MLOAD PUSH2 0x157E SWAP3 SWAP2 SWAP1 PUSH2 0x4812 JUMP JUMPDEST PUSH1 0x40 MLOAD DUP1 SWAP2 SUB SWAP1 LOG1 POP POP POP POP JUMP JUMPDEST PUSH0 PUSH0 SWAP1 POP PUSH0 DUP3 PUSH1 0x40 ADD MLOAD MLOAD SWAP1 POP PUSH0 PUSH0 SWAP1 POP JUMPDEST DUP2 DUP2 LT ISZERO PUSH2 0x18B4 JUMPI PUSH0 DUP5 PUSH1 0x40 ADD MLOAD DUP3 DUP2 MLOAD DUP2 LT PUSH2 0x15BE JUMPI PUSH2 0x15BD PUSH2 0x4334 JUMP JUMPDEST JUMPDEST PUSH1 0x20 MUL PUSH1 0x20 ADD ADD MLOAD SWAP1 POP DUP1 PUSH1 0xA0 ADD MLOAD DUP1 ISZERO PUSH2 0x15D7 JUMPI POP DUP4 ISZERO JUMPDEST ISZERO PUSH2 0x161B JUMPI PUSH32 0x9AE934BF8A986157C889A24C3B3FA85E74B7E4EE4B1F8FC6E7362CB4C1D19D8B DUP7 DUP4 PUSH1 0x40 MLOAD PUSH2 0x160D SWAP3 SWAP2 SWAP1 PUSH2 0x47B6 JUMP JUMPDEST PUSH1 0x40 MLOAD DUP1 SWAP2 SUB SWAP1 LOG1 POP PUSH2 0x18A7 JUMP JUMPDEST PUSH0 SWAP4 POP PUSH0 DUP2 PUSH1 0x60 ADD MLOAD SWAP1 POP PUSH0 DUP2 EQ ISZERO DUP1 ISZERO PUSH2 0x1635 JUMPI POP DUP1 GAS LT JUMPDEST ISZERO PUSH2 0x167B JUMPI DUP6 DUP4 GAS PUSH1 0x40 MLOAD PUSH32 0x2139527400000000000000000000000000000000000000000000000000000000 DUP2 MSTORE PUSH1 0x4 ADD PUSH2 0x1672 SWAP4 SWAP3 SWAP2 SWAP1 PUSH2 0x48B0 JUMP JUMPDEST PUSH1 0x40 MLOAD DUP1 SWAP2 SUB SWAP1 REVERT JUMPDEST PUSH0 DUP3 PUSH1 0x80 ADD MLOAD ISZERO PUSH2 0x1730 JUMPI PUSH2 0x1729 DUP4 PUSH0 ADD MLOAD PUSH0 DUP5 EQ PUSH2 0x169A JUMPI DUP4 PUSH2 0x169C JUMP JUMPDEST GAS JUMPDEST PUSH4 0x4C4E814C PUSH1 0xE0 SHL DUP12 DUP14 DUP10 DUP12 DUP15 PUSH1 0x60 ADD MLOAD DUP12 PUSH1 0x40 ADD MLOAD PUSH1 0x40 MLOAD PUSH1 0x24 ADD PUSH2 0x16C7 SWAP7 SWAP6 SWAP5 SWAP4 SWAP3 SWAP2 SWAP1 PUSH2 0x4924 JUMP JUMPDEST PUSH1 0x40 MLOAD PUSH1 0x20 DUP2 DUP4 SUB SUB DUP2 MSTORE SWAP1 PUSH1 0x40 MSTORE SWAP1 PUSH28 0xFFFFFFFFFFFFFFFFFFFFFFFFFFFFFFFFFFFFFFFFFFFFFFFFFFFFFFFF NOT AND PUSH1 0x20 DUP3 ADD DUP1 MLOAD PUSH28 0xFFFFFFFFFFFFFFFFFFFFFFFFFFFFFFFFFFFFFFFFFFFFFFFFFFFFFFFF DUP4 DUP2 DUP4 AND OR DUP4 MSTORE POP POP POP POP PUSH2 0x1FAD JUMP JUMPDEST SWAP1 POP PUSH2 0x1758 JUMP JUMPDEST PUSH2 0x1755 DUP4 PUSH0 ADD MLOAD DUP5 PUSH1 0x20 ADD MLOAD PUSH0 DUP6 EQ PUSH2 0x1749 JUMPI DUP5 PUSH2 0x174B JUMP JUMPDEST GAS JUMPDEST DUP7 PUSH1 0x40 ADD MLOAD PUSH2 0x1FC2 JUMP JUMPDEST SWAP1 POP JUMPDEST DUP1 PUSH2 0x186A JUMPI PUSH0 PUSH1 0xFF AND DUP4 PUSH1 0xC0 ADD MLOAD SUB PUSH2 0x17B9 JUMPI PUSH1 0x1 SWAP6 POP PUSH32 0x115F347C00E69F252CD6B63C4F81022A9564C6BEFE8AA719CB74640A4A306F0D DUP9 DUP6 PUSH2 0x179A PUSH2 0x1FD9 JUMP JUMPDEST PUSH1 0x40 MLOAD PUSH2 0x17A9 SWAP4 SWAP3 SWAP2 SWAP1 PUSH2 0x498A JUMP JUMPDEST PUSH1 0x40 MLOAD DUP1 SWAP2 SUB SWAP1 LOG1 POP POP POP PUSH2 0x18A7 JUMP JUMPDEST PUSH1 0x1 PUSH1 0xFF AND DUP4 PUSH1 0xC0 ADD MLOAD SUB PUSH2 0x1810 JUMPI DUP7 DUP5 PUSH2 0x17D2 PUSH2 0x1FD9 JUMP JUMPDEST PUSH1 0x40 MLOAD PUSH32 0x7F6B0BB100000000000000000000000000000000000000000000000000000000 DUP2 MSTORE PUSH1 0x4 ADD PUSH2 0x1807 SWAP4 SWAP3 SWAP2 SWAP1 PUSH2 0x49C6 JUMP JUMPDEST PUSH1 0x40 MLOAD DUP1 SWAP2 SUB SWAP1 REVERT JUMPDEST PUSH1 0x2 PUSH1 0xFF AND DUP4 PUSH1 0xC0 ADD MLOAD SUB PUSH2 0x1869 JUMPI PUSH32 0xC2C704302430FE0DC8D95F272E2F4E54BBBC51A3327FD5D75AB41F9FC8FD129B DUP9 DUP6 PUSH2 0x184A PUSH2 0x1FD9 JUMP JUMPDEST PUSH1 0x40 MLOAD PUSH2 0x1859 SWAP4 SWAP3 SWAP2 SWAP1 PUSH2 0x498A JUMP JUMPDEST PUSH1 0x40 MLOAD DUP1 SWAP2 SUB SWAP1 LOG1 POP POP POP PUSH2 0x18B4 JUMP JUMPDEST JUMPDEST PUSH32 0x5A589B1D8062F33451D29CAE3DABD9B2E36C62AEE644178C600977CA8DDA661A DUP9 DUP6 PUSH1 0x40 MLOAD PUSH2 0x189B SWAP3 SWAP2 SWAP1 PUSH2 0x47B6 JUMP JUMPDEST PUSH1 0x40 MLOAD DUP1 SWAP2 SUB SWAP1 LOG1 POP POP POP JUMPDEST DUP1 DUP1 PUSH1 0x1 ADD SWAP2 POP POP PUSH2 0x159E JUMP JUMPDEST POP POP POP POP POP POP JUMP JUMPDEST PUSH0 PUSH0 SHL DUP2 SUB PUSH2 0x18F7 JUMPI PUSH1 0x40 MLOAD PUSH32 0x4294D12700000000000000000000000000000000000000000000000000000000 DUP2 MSTORE PUSH1 0x4 ADD PUSH1 0x40 MLOAD DUP1 SWAP2 SUB SWAP1 REVERT JUMPDEST PUSH2 0x1923 PUSH32 0xEA7157FA25E3AA17D0AE2D5280FA4E24D421C61842AA85E45194E1145AA72BF8 PUSH0 SHL DUP3 PUSH2 0x1FF7 JUMP JUMPDEST PUSH32 0x307ED6BD941EE9FC80F369C94AF5FA11E25BAB5102A6140191756C5474A30BFA DUP2 PUSH1 0x40 MLOAD PUSH2 0x1952 SWAP2 SWAP1 PUSH2 0x3C57 JUMP JUMPDEST PUSH1 0x40 MLOAD DUP1 SWAP2 SUB SWAP1 LOG1 POP JUMP JUMPDEST PUSH2 0x19C1 PUSH32 0xBE27A319EFC8734E89E26BA4BC95F5C788584163B959F03FA04E2D7AB4B9A120 PUSH0 SHL DUP4 PUSH28 0xFFFFFFFFFFFFFFFFFFFFFFFFFFFFFFFFFFFFFFFFFFFFFFFFFFFFFFFF NOT AND DUP4 PUSH20 0xFFFFFFFFFFFFFFFFFFFFFFFFFFFFFFFFFFFFFFFF AND PUSH0 SHL PUSH2 0x1FFE JUMP JUMPDEST PUSH32 0xD7FC113EAF016DB4681A1BA86D083CE3E0961F321062A75AC2B0AEB33DEEED1 DUP3 DUP3 PUSH1 0x40 MLOAD PUSH2 0x19F2 SWAP3 SWAP2 SWAP1 PUSH2 0x4A09 JUMP JUMPDEST PUSH1 0x40 MLOAD DUP1 SWAP2 SUB SWAP1 LOG1 POP POP JUMP JUMPDEST PUSH0 DUP2 SLOAD SWAP1 POP SWAP2 SWAP1 POP JUMP JUMPDEST PUSH0 PUSH0 PUSH2 0x1A18 DUP4 PUSH1 0x20 ADD MLOAD ADDRESS PUSH2 0x2033 JUMP JUMPDEST SWAP1 POP PUSH0 PUSH2 0x1A24 DUP5 PUSH2 0x20D7 JUMP JUMPDEST SWAP1 POP DUP2 DUP2 PUSH1 0x40 MLOAD PUSH1 0x20 ADD PUSH2 0x1A39 SWAP3 SWAP2 SWAP1 PUSH2 0x4AA4 JUMP JUMPDEST PUSH1 0x40 MLOAD PUSH1 0x20 DUP2 DUP4 SUB SUB DUP2 MSTORE SWAP1 PUSH1 0x40 MSTORE DUP1 MLOAD SWAP1 PUSH1 0x20 ADD KECCAK256 SWAP3 POP POP POP SWAP2 SWAP1 POP JUMP JUMPDEST PUSH0 PUSH0 PUSH0 PUSH2 0x1A87 PUSH32 0xC852ADF5E97C2FC3B38F405671E91B7AF1697EF0287577F227EF10494C2A8E86 PUSH0 SHL DUP6 PUSH2 0xDB2 JUMP JUMPDEST PUSH0 SHR SWAP1 POP PUSH1 0x60 DUP2 SWAP1 SHR DUP2 PUSH12 0xFFFFFFFFFFFFFFFFFFFFFFFF AND SWAP3 POP SWAP3 POP POP SWAP2 POP SWAP2 JUMP JUMPDEST PUSH0 ADDRESS SLOAD SWAP1 POP SWAP1 JUMP JUMPDEST PUSH0 PUSH0 PUSH0 PUSH0 PUSH0 PUSH0 PUSH0 PUSH2 0x1AC2 DUP12 DUP12 PUSH2 0x1E63 JUMP JUMPDEST SWAP2 POP PUSH1 0xFF AND SWAP2 POP PUSH2 0x1AD1 PUSH2 0x342E JUMP JUMPDEST PUSH1 0x40 DUP1 DUP5 AND EQ DUP1 ISZERO PUSH2 0x1B0E JUMPI POP PUSH0 PUSH20 0xFFFFFFFFFFFFFFFFFFFFFFFFFFFFFFFFFFFFFFFF AND DUP10 PUSH20 0xFFFFFFFFFFFFFFFFFFFFFFFFFFFFFFFFFFFFFFFF AND EQ JUMPDEST ISZERO PUSH2 0x1C4A JUMPI PUSH2 0x1B28 DUP3 DUP14 DUP14 PUSH2 0x1F11 SWAP3 SWAP1 SWAP2 SWAP3 PUSH4 0xFFFFFFFF AND JUMP JUMPDEST DUP1 SWAP4 POP DUP2 SWAP11 POP POP POP DUP10 PUSH2 0x1C49 JUMPI PUSH0 PUSH2 0x1B4B DUP4 DUP15 DUP15 PUSH2 0x1F58 SWAP3 SWAP1 SWAP2 SWAP3 PUSH4 0xFFFFFFFF AND JUMP JUMPDEST DUP2 PUSH3 0xFFFFFF AND SWAP2 POP DUP1 SWAP5 POP DUP2 SWAP3 POP POP POP PUSH0 DUP14 DUP14 DUP6 SWAP1 DUP5 DUP8 PUSH2 0x1B6C SWAP2 SWAP1 PUSH2 0x4301 JUMP JUMPDEST SWAP3 PUSH2 0x1B79 SWAP4 SWAP3 SWAP2 SWAP1 PUSH2 0x4841 JUMP JUMPDEST DUP1 DUP1 PUSH1 0x1F ADD PUSH1 0x20 DUP1 SWAP2 DIV MUL PUSH1 0x20 ADD PUSH1 0x40 MLOAD SWAP1 DUP2 ADD PUSH1 0x40 MSTORE DUP1 SWAP4 SWAP3 SWAP2 SWAP1 DUP2 DUP2 MSTORE PUSH1 0x20 ADD DUP4 DUP4 DUP1 DUP3 DUP5 CALLDATACOPY PUSH0 DUP2 DUP5 ADD MSTORE PUSH1 0x1F NOT PUSH1 0x1F DUP3 ADD AND SWAP1 POP DUP1 DUP4 ADD SWAP3 POP POP POP POP POP POP POP SWAP1 POP DUP11 PUSH20 0xFFFFFFFFFFFFFFFFFFFFFFFFFFFFFFFFFFFFFFFF AND PUSH4 0xCCCE3BC8 ADDRESS DUP4 PUSH1 0x40 MLOAD DUP4 PUSH4 0xFFFFFFFF AND PUSH1 0xE0 SHL DUP2 MSTORE PUSH1 0x4 ADD PUSH2 0x1BF8 SWAP3 SWAP2 SWAP1 PUSH2 0x4ADA JUMP JUMPDEST PUSH1 0x40 DUP1 MLOAD DUP1 DUP4 SUB DUP2 DUP7 GAS STATICCALL ISZERO DUP1 ISZERO PUSH2 0x1C12 JUMPI RETURNDATASIZE PUSH0 PUSH0 RETURNDATACOPY RETURNDATASIZE PUSH0 REVERT JUMPDEST POP POP POP POP PUSH1 0x40 MLOAD RETURNDATASIZE PUSH1 0x1F NOT PUSH1 0x1F DUP3 ADD AND DUP3 ADD DUP1 PUSH1 0x40 MSTORE POP DUP2 ADD SWAP1 PUSH2 0x1C36 SWAP2 SWAP1 PUSH2 0x4B7D JUMP JUMPDEST SWAP3 POP DUP2 DUP5 PUSH2 0x1C44 SWAP2 SWAP1 PUSH2 0x4301 JUMP JUMPDEST SWAP4 POP POP POP JUMPDEST JUMPDEST PUSH1 0x1 DUP1 DUP5 AND SUB PUSH2 0x1C83 JUMPI PUSH2 0x1C71 DUP14 DUP11 DUP4 DUP16 DUP16 DUP8 SWAP1 DUP1 SWAP3 PUSH2 0x1C6C SWAP4 SWAP3 SWAP2 SWAP1 PUSH2 0x4841 JUMP JUMPDEST PUSH2 0x230B JUMP JUMPDEST SWAP8 POP SWAP8 POP SWAP8 POP SWAP8 POP SWAP8 POP POP POP POP PUSH2 0x1DE1 JUMP JUMPDEST PUSH1 0x2 DUP1 DUP5 AND EQ DUP14 PUSH1 0x20 ADD SWAP1 ISZERO ISZERO SWAP1 DUP2 ISZERO ISZERO DUP2 MSTORE POP POP PUSH0 PUSH1 0x2 PUSH1 0x1C DUP6 AND SWAP1 SHR SWAP1 POP PUSH2 0x1CBF DUP4 DUP3 DUP16 DUP16 PUSH2 0x1EAA SWAP2 SWAP1 SWAP4 SWAP3 SWAP2 SWAP1 SWAP4 SWAP3 SWAP2 SWAP1 PUSH4 0xFFFFFFFF AND JUMP JUMPDEST DUP1 SWAP5 POP DUP2 SWAP8 POP POP POP POP PUSH0 PUSH1 0x1 PUSH1 0x5 PUSH1 0x20 DUP7 AND SWAP1 SHR PUSH2 0x1CDD SWAP2 SWAP1 PUSH2 0x4301 JUMP JUMPDEST SWAP1 POP PUSH2 0x1CFB DUP4 DUP3 DUP16 DUP16 PUSH2 0x1EAA SWAP2 SWAP1 SWAP4 SWAP3 SWAP2 SWAP1 SWAP4 SWAP3 SWAP2 SWAP1 PUSH4 0xFFFFFFFF AND JUMP JUMPDEST DUP1 SWAP5 POP DUP2 SWAP11 POP POP POP POP PUSH2 0x1D0D DUP14 PUSH2 0x1A08 JUMP JUMPDEST SWAP4 POP PUSH2 0x1D2B DUP14 DUP6 DUP15 DUP15 DUP7 SWAP1 DUP1 SWAP3 PUSH2 0x1D26 SWAP4 SWAP3 SWAP2 SWAP1 PUSH2 0x4841 JUMP JUMPDEST PUSH2 0x256D JUMP JUMPDEST DUP1 SWAP8 POP DUP2 SWAP9 POP POP POP PUSH2 0x1D3F DUP7 DUP10 PUSH0 SHL PUSH2 0x30E1 JUMP JUMPDEST SWAP6 POP PUSH2 0x1D4D DUP7 DUP7 PUSH0 SHL PUSH2 0x30E1 JUMP JUMPDEST SWAP6 POP PUSH2 0x1D71 DUP7 DUP11 PUSH20 0xFFFFFFFFFFFFFFFFFFFFFFFFFFFFFFFFFFFFFFFF AND PUSH0 SHL PUSH2 0x30E1 JUMP JUMPDEST SWAP6 POP PUSH0 PUSH0 SHL DUP2 PUSH0 ADD MLOAD EQ ISZERO DUP1 ISZERO PUSH2 0x1D8B JUMPI POP DUP6 DUP2 PUSH0 ADD MLOAD EQ ISZERO JUMPDEST DUP1 ISZERO PUSH2 0x1D9B JUMPI POP DUP1 PUSH1 0x20 ADD MLOAD DUP6 GT ISZERO JUMPDEST ISZERO PUSH2 0x1DDD JUMPI DUP1 PUSH1 0x40 MLOAD PUSH32 0xCCBB534F00000000000000000000000000000000000000000000000000000000 DUP2 MSTORE PUSH1 0x4 ADD PUSH2 0x1DD4 SWAP2 SWAP1 PUSH2 0x4BD5 JUMP JUMPDEST PUSH1 0x40 MLOAD DUP1 SWAP2 SUB SWAP1 REVERT JUMPDEST POP POP POP JUMPDEST SWAP6 POP SWAP6 POP SWAP6 POP SWAP6 POP SWAP6 SWAP1 POP JUMP JUMPDEST PUSH0 PUSH2 0x1DF8 DUP3 PUSH2 0x30F5 JUMP JUMPDEST SWAP1 POP SWAP2 SWAP1 POP JUMP JUMPDEST PUSH2 0x1E58 PUSH32 0xC852ADF5E97C2FC3B38F405671E91B7AF1697EF0287577F227EF10494C2A8E86 PUSH0 SHL DUP5 PUSH12 0xFFFFFFFFFFFFFFFFFFFFFFFF DUP5 AND PUSH1 0x60 DUP7 PUSH20 0xFFFFFFFFFFFFFFFFFFFFFFFFFFFFFFFFFFFFFFFF AND SWAP1 SHL OR PUSH0 SHL PUSH2 0x1FFE JUMP JUMPDEST POP POP POP JUMP JUMPDEST DUP1 ADDRESS SSTORE POP JUMP JUMPDEST PUSH0 PUSH0 DUP4 CALLDATALOAD DUP1 PUSH1 0xF8 SHR SWAP3 POP PUSH1 0x1 SWAP2 POP POP SWAP3 POP SWAP3 SWAP1 POP JUMP JUMPDEST PUSH0 PUSH0 DUP5 DUP4 ADD CALLDATALOAD PUSH20 0xFFFFFFFFFFFFFFFFFFFFFFFFFFFFFFFFFFFFFFFF DUP2 PUSH1 0x60 SHR AND SWAP3 POP PUSH1 0x14 DUP5 ADD SWAP2 POP POP SWAP4 POP SWAP4 SWAP2 POP POP JUMP JUMPDEST PUSH0 PUSH0 DUP6 DUP5 ADD CALLDATALOAD PUSH1 0x8 DUP5 MUL PUSH2 0x100 SUB PUSH1 0x1 DUP1 DUP7 PUSH1 0x8 MUL SHL SUB DUP3 DUP3 SHR AND SWAP4 POP DUP5 DUP7 ADD SWAP3 POP POP POP SWAP5 POP SWAP5 SWAP3 POP POP POP JUMP JUMPDEST PUSH0 PUSH0 DUP5 DUP4 ADD CALLDATALOAD PUSH2 0xFFFF DUP2 PUSH1 0xF0 SHR AND SWAP3 POP PUSH1 0x2 DUP5 ADD SWAP2 POP POP SWAP4 POP SWAP4 SWAP2 POP POP JUMP JUMPDEST PUSH0 PUSH0 DUP5 DUP4 ADD CALLDATALOAD DUP1 PUSH1 0xF8 SHR SWAP3 POP PUSH1 0x1 DUP5 ADD SWAP2 POP POP SWAP4 POP SWAP4 SWAP2 POP POP JUMP JUMPDEST PUSH0 PUSH0 DUP5 DUP4 ADD CALLDATALOAD PUSH20 0xFFFFFFFFFFFFFFFFFFFFFFFFFFFFFFFFFFFFFFFF DUP2 PUSH1 0x60 SHR AND SWAP3 POP PUSH1 0x14 DUP5 ADD SWAP2 POP POP SWAP4 POP SWAP4 SWAP2 POP POP JUMP JUMPDEST PUSH0 PUSH0 DUP5 DUP4 ADD CALLDATALOAD SWAP2 POP PUSH1 0x20 DUP4 ADD SWAP1 POP SWAP4 POP SWAP4 SWAP2 POP POP JUMP JUMPDEST PUSH0 PUSH0 DUP5 DUP4 ADD CALLDATALOAD PUSH3 0xFFFFFF DUP2 PUSH1 0xE8 SHR AND SWAP3 POP PUSH1 0x3 DUP5 ADD SWAP2 POP POP SWAP4 POP SWAP4 SWAP2 POP POP JUMP JUMPDEST PUSH2 0x1FA9 PUSH32 0x8D0BF1FD623D628C741362C1289948E57B3E2905218C676D3E69ABEE36D6AE2E PUSH0 SHL DUP4 PUSH0 SHL DUP4 PUSH0 SHL PUSH2 0x1FFE JUMP JUMPDEST POP POP JUMP JUMPDEST PUSH0 PUSH0 PUSH0 DUP4 MLOAD PUSH1 0x20 DUP6 ADD DUP8 DUP8 DELEGATECALL SWAP1 POP SWAP4 SWAP3 POP POP POP JUMP JUMPDEST PUSH0 PUSH0 PUSH0 DUP4 MLOAD PUSH1 0x20 DUP6 ADD DUP8 DUP10 DUP9 CALL SWAP1 POP SWAP5 SWAP4 POP POP POP POP JUMP JUMPDEST PUSH1 0x60 RETURNDATASIZE PUSH1 0x40 MLOAD SWAP2 POP PUSH1 0x20 DUP3 ADD DUP2 DUP2 ADD PUSH1 0x40 MSTORE DUP2 DUP4 MSTORE DUP2 PUSH0 DUP3 RETURNDATACOPY POP POP SWAP1 JUMP JUMPDEST DUP1 DUP3 SSTORE POP POP JUMP JUMPDEST PUSH0 DUP4 DUP4 PUSH1 0x40 MLOAD PUSH1 0x20 ADD PUSH2 0x2012 SWAP3 SWAP2 SWAP1 PUSH2 0x478F JUMP JUMPDEST PUSH1 0x40 MLOAD PUSH1 0x20 DUP2 DUP4 SUB SUB DUP2 MSTORE SWAP1 PUSH1 0x40 MSTORE DUP1 MLOAD SWAP1 PUSH1 0x20 ADD KECCAK256 SWAP1 POP DUP2 DUP2 SSTORE POP POP POP POP JUMP JUMPDEST PUSH0 PUSH32 0x8B73C3C69BB8FE3D512ECC4CF759CC79239F7B179B0FFACAA9A75D522B39400F PUSH32 0x4AA45CA7AD825CEB1BF35643F0A58C295239DF563B1B565C2485F96477C56318 PUSH32 0x2A80E1EF1D7842F27F2E6BE0972BB708B9A135C38860DBE73C27C3486C34F4DE DUP6 PUSH2 0x20A2 JUMPI CHAINID PUSH2 0x20A4 JUMP JUMPDEST PUSH0 JUMPDEST DUP6 PUSH1 0x40 MLOAD PUSH1 0x20 ADD PUSH2 0x20B9 SWAP6 SWAP5 SWAP4 SWAP3 SWAP2 SWAP1 PUSH2 0x4BEE JUMP JUMPDEST PUSH1 0x40 MLOAD PUSH1 0x20 DUP2 DUP4 SUB SUB DUP2 MSTORE SWAP1 PUSH1 0x40 MSTORE DUP1 MLOAD SWAP1 PUSH1 0x20 ADD KECCAK256 SWAP1 POP SWAP3 SWAP2 POP POP JUMP JUMPDEST PUSH0 PUSH0 DUP3 PUSH2 0x100 ADD MLOAD PUSH1 0x40 MLOAD PUSH1 0x20 ADD PUSH2 0x20EF SWAP2 SWAP1 PUSH2 0x4CCB JUMP JUMPDEST PUSH1 0x40 MLOAD PUSH1 0x20 DUP2 DUP4 SUB SUB DUP2 MSTORE SWAP1 PUSH1 0x40 MSTORE DUP1 MLOAD SWAP1 PUSH1 0x20 ADD KECCAK256 SWAP1 POP PUSH0 PUSH1 0xFF AND DUP4 PUSH0 ADD MLOAD PUSH1 0xFF AND SUB PUSH2 0x2187 JUMPI PUSH0 PUSH2 0x2125 DUP5 PUSH1 0x40 ADD MLOAD PUSH2 0x3138 JUMP JUMPDEST SWAP1 POP PUSH32 0x11E1E4079A79A66E4ADE50033CFE2678CDD5341D2DFE5EF9513EDB1A0BE147A2 DUP2 DUP6 PUSH1 0x60 ADD MLOAD DUP7 PUSH1 0x80 ADD MLOAD DUP6 PUSH1 0x40 MLOAD PUSH1 0x20 ADD PUSH2 0x2168 SWAP6 SWAP5 SWAP4 SWAP3 SWAP2 SWAP1 PUSH2 0x4CE1 JUMP JUMPDEST PUSH1 0x40 MLOAD PUSH1 0x20 DUP2 DUP4 SUB SUB DUP2 MSTORE SWAP1 PUSH1 0x40 MSTORE DUP1 MLOAD SWAP1 PUSH1 0x20 ADD KECCAK256 SWAP3 POP POP POP PUSH2 0x2306 JUMP JUMPDEST PUSH1 0x1 PUSH1 0xFF AND DUP4 PUSH0 ADD MLOAD PUSH1 0xFF AND SUB PUSH2 0x21F6 JUMPI PUSH32 0xE19A3B94FC3C7ECE3F890D98A99BC422615537A08DEA0603FA8425867D87D466 DUP4 PUSH1 0xA0 ADD MLOAD DUP1 MLOAD SWAP1 PUSH1 0x20 ADD KECCAK256 DUP3 PUSH1 0x40 MLOAD PUSH1 0x20 ADD PUSH2 0x21D8 SWAP4 SWAP3 SWAP2 SWAP1 PUSH2 0x4D32 JUMP JUMPDEST PUSH1 0x40 MLOAD PUSH1 0x20 DUP2 DUP4 SUB SUB DUP2 MSTORE SWAP1 PUSH1 0x40 MSTORE DUP1 MLOAD SWAP1 PUSH1 0x20 ADD KECCAK256 SWAP2 POP POP PUSH2 0x2306 JUMP JUMPDEST PUSH1 0x2 PUSH1 0xFF AND DUP4 PUSH0 ADD MLOAD PUSH1 0xFF AND SUB PUSH2 0x225E JUMPI PUSH32 0x11FDEB7E8373A1AA96BFAC8D0EA91526B2C5D15E5CEE20E0543E780258F3E8E4 DUP4 PUSH1 0xC0 ADD MLOAD DUP3 PUSH1 0x40 MLOAD PUSH1 0x20 ADD PUSH2 0x2240 SWAP4 SWAP3 SWAP2 SWAP1 PUSH2 0x4D32 JUMP JUMPDEST PUSH1 0x40 MLOAD PUSH1 0x20 DUP2 DUP4 SUB SUB DUP2 MSTORE SWAP1 PUSH1 0x40 MSTORE DUP1 MLOAD SWAP1 PUSH1 0x20 ADD KECCAK256 SWAP2 POP POP PUSH2 0x2306 JUMP JUMPDEST PUSH1 0x3 PUSH1 0xFF AND DUP4 PUSH0 ADD MLOAD PUSH1 0xFF AND SUB PUSH2 0x22C6 JUMPI PUSH32 0xE19A3B94FC3C7ECE3F890D98A99BC422615537A08DEA0603FA8425867D87D466 DUP4 PUSH1 0xE0 ADD MLOAD DUP3 PUSH1 0x40 MLOAD PUSH1 0x20 ADD PUSH2 0x22A8 SWAP4 SWAP3 SWAP2 SWAP1 PUSH2 0x4D32 JUMP JUMPDEST PUSH1 0x40 MLOAD PUSH1 0x20 DUP2 DUP4 SUB SUB DUP2 MSTORE SWAP1 PUSH1 0x40 MSTORE DUP1 MLOAD SWAP1 PUSH1 0x20 ADD KECCAK256 SWAP2 POP POP PUSH2 0x2306 JUMP JUMPDEST DUP3 PUSH0 ADD MLOAD PUSH1 0x40 MLOAD PUSH32 0x481832000000000000000000000000000000000000000000000000000000000 DUP2 MSTORE PUSH1 0x4 ADD PUSH2 0x22FD SWAP2 SWAP1 PUSH2 0x4D76 JUMP JUMPDEST PUSH1 0x40 MLOAD DUP1 SWAP2 SUB SWAP1 REVERT JUMPDEST SWAP2 SWAP1 POP JUMP JUMPDEST PUSH0 PUSH0 PUSH0 PUSH0 PUSH0 PUSH2 0x2318 PUSH2 0x3392 JUMP JUMPDEST PUSH1 0x2 DUP2 PUSH0 ADD SWAP1 PUSH1 0xFF AND SWAP1 DUP2 PUSH1 0xFF AND DUP2 MSTORE POP POP PUSH0 PUSH0 PUSH32 0xFFFFFFFFFFFFFFFFFFFFFFFFFFFFFFFFFFFFFFFFFFFFFFFFFFFFFFFFFFFFFFFF SWAP1 POP JUMPDEST DUP10 DUP10 SWAP1 POP DUP3 LT ISZERO PUSH2 0x2502 JUMPI PUSH0 PUSH0 PUSH2 0x2372 DUP5 DUP14 DUP14 PUSH2 0x1F58 SWAP3 SWAP1 SWAP2 SWAP3 PUSH4 0xFFFFFFFF AND JUMP JUMPDEST DUP2 PUSH3 0xFFFFFF AND SWAP2 POP DUP1 SWAP6 POP DUP2 SWAP3 POP POP POP DUP4 DUP2 PUSH2 0x238E SWAP2 SWAP1 PUSH2 0x4301 JUMP JUMPDEST SWAP2 POP POP PUSH0 DUP12 DUP12 SWAP1 POP DUP3 EQ PUSH2 0x23A2 JUMPI PUSH0 PUSH2 0x23A4 JUMP JUMPDEST DUP14 JUMPDEST SWAP1 POP PUSH32 0xFFFFFFFFFFFFFFFFFFFFFFFFFFFFFFFFFFFFFFFFFFFFFFFFFFFFFFFFFFFFFFFF DUP4 SUB PUSH2 0x2404 JUMPI PUSH2 0x23EB DUP16 DUP14 DUP14 DUP8 SWAP1 DUP7 SWAP3 PUSH2 0x23E3 SWAP4 SWAP3 SWAP2 SWAP1 PUSH2 0x4841 JUMP JUMPDEST PUSH1 0x1 DUP6 PUSH2 0x1AB1 JUMP JUMPDEST DUP1 SWAP11 POP DUP2 SWAP12 POP DUP3 SWAP13 POP DUP4 SWAP14 POP DUP5 SWAP15 POP POP POP POP POP POP PUSH2 0x2434 JUMP JUMPDEST PUSH2 0x2422 DUP6 DUP14 DUP14 DUP8 SWAP1 DUP7 SWAP3 PUSH2 0x241A SWAP4 SWAP3 SWAP2 SWAP1 PUSH2 0x4841 JUMP JUMPDEST PUSH1 0x1 DUP6 PUSH2 0x1AB1 JUMP JUMPDEST POP DUP1 SWAP11 POP DUP2 SWAP12 POP DUP3 SWAP13 POP DUP4 SWAP14 POP POP POP POP POP JUMPDEST DUP10 DUP10 LT ISZERO PUSH2 0x248F JUMPI DUP12 DUP12 DUP6 SWAP1 DUP5 SWAP3 PUSH2 0x244E SWAP4 SWAP3 SWAP2 SWAP1 PUSH2 0x4841 JUMP JUMPDEST DUP12 DUP12 PUSH1 0x40 MLOAD PUSH32 0xB006ABA000000000000000000000000000000000000000000000000000000000 DUP2 MSTORE PUSH1 0x4 ADD PUSH2 0x2486 SWAP5 SWAP4 SWAP3 SWAP2 SWAP1 PUSH2 0x4D8F JUMP JUMPDEST PUSH1 0x40 MLOAD DUP1 SWAP2 SUB SWAP1 REVERT JUMPDEST DUP2 SWAP4 POP DUP8 DUP14 PUSH0 ADD MLOAD SUB PUSH2 0x24A8 JUMPI PUSH0 PUSH0 SHL DUP14 PUSH0 ADD DUP2 DUP2 MSTORE POP POP JUMPDEST DUP3 DUP8 LT PUSH2 0x24EE JUMPI DUP7 DUP4 PUSH1 0x40 MLOAD PUSH32 0x37DAF62B00000000000000000000000000000000000000000000000000000000 DUP2 MSTORE PUSH1 0x4 ADD PUSH2 0x24E5 SWAP3 SWAP2 SWAP1 PUSH2 0x4812 JUMP JUMPDEST PUSH1 0x40 MLOAD DUP1 SWAP2 SUB SWAP1 REVERT JUMPDEST DUP8 DUP6 PUSH1 0xC0 ADD DUP2 DUP2 MSTORE POP POP DUP7 SWAP3 POP POP POP PUSH2 0x2350 JUMP JUMPDEST PUSH0 PUSH0 SHL DUP12 PUSH0 ADD MLOAD EQ ISZERO DUP1 ISZERO PUSH2 0x251B JUMPI POP DUP11 PUSH1 0x20 ADD MLOAD DUP6 GT ISZERO JUMPDEST ISZERO PUSH2 0x255D JUMPI DUP11 PUSH1 0x40 MLOAD PUSH32 0xCCBB534F00000000000000000000000000000000000000000000000000000000 DUP2 MSTORE PUSH1 0x4 ADD PUSH2 0x2554 SWAP2 SWAP1 PUSH2 0x4BD5 JUMP JUMPDEST PUSH1 0x40 MLOAD DUP1 SWAP2 SUB SWAP1 REVERT JUMPDEST POP POP POP SWAP6 POP SWAP6 POP SWAP6 POP SWAP6 POP SWAP6 SWAP1 POP JUMP JUMPDEST PUSH0 PUSH0 PUSH0 JUMPDEST DUP5 DUP5 SWAP1 POP DUP2 LT ISZERO PUSH2 0x30D7 JUMPI PUSH0 PUSH2 0x2592 DUP3 DUP8 DUP8 PUSH2 0x1EF6 SWAP3 SWAP1 SWAP2 SWAP3 PUSH4 0xFFFFFFFF AND JUMP JUMPDEST DUP2 PUSH1 0xFF AND SWAP2 POP DUP1 SWAP4 POP DUP2 SWAP3 POP POP POP PUSH0 PUSH1 0x4 PUSH1 0xF0 DUP4 AND SWAP1 SHR SWAP1 POP PUSH0 DUP2 SUB PUSH2 0x26EA JUMPI PUSH0 PUSH1 0xF DUP4 AND SWAP1 POP PUSH0 DUP2 PUSH1 0xFF AND SUB PUSH2 0x25E1 JUMPI PUSH2 0x25D8 DUP5 DUP10 DUP10 PUSH2 0x1EF6 SWAP3 SWAP1 SWAP2 SWAP3 PUSH4 0xFFFFFFFF AND JUMP JUMPDEST DUP1 SWAP6 POP DUP2 SWAP3 POP POP POP JUMPDEST PUSH0 PUSH0 PUSH2 0x25F8 DUP7 DUP12 DUP12 PUSH2 0x31B2 SWAP3 SWAP1 SWAP2 SWAP3 PUSH4 0xFFFFFFFF AND JUMP JUMPDEST DUP1 SWAP8 POP DUP2 SWAP4 POP POP POP PUSH2 0x2615 DUP7 DUP12 DUP12 PUSH2 0x31B2 SWAP3 SWAP1 SWAP2 SWAP3 PUSH4 0xFFFFFFFF AND JUMP JUMPDEST DUP1 SWAP8 POP DUP2 SWAP3 POP POP POP PUSH0 PUSH1 0xFF DUP3 SWAP1 SHR PUSH0 SHR SWAP1 POP PUSH0 PUSH32 0x7FFFFFFFFFFFFFFFFFFFFFFFFFFFFFFFFFFFFFFFFFFFFFFFFFFFFFFFFFFFFFFF DUP4 PUSH0 SHR AND PUSH0 SHL SWAP1 POP PUSH0 PUSH1 0x1B DUP4 ADD SWAP1 POP PUSH0 PUSH1 0x1 DUP16 DUP4 DUP9 DUP7 PUSH1 0x40 MLOAD PUSH0 DUP2 MSTORE PUSH1 0x20 ADD PUSH1 0x40 MSTORE PUSH1 0x40 MLOAD PUSH2 0x267B SWAP5 SWAP4 SWAP3 SWAP2 SWAP1 PUSH2 0x4DCD JUMP JUMPDEST PUSH1 0x20 PUSH1 0x40 MLOAD PUSH1 0x20 DUP2 SUB SWAP1 DUP1 DUP5 SUB SWAP1 DUP6 GAS STATICCALL ISZERO DUP1 ISZERO PUSH2 0x269B JUMPI RETURNDATASIZE PUSH0 PUSH0 RETURNDATACOPY RETURNDATASIZE PUSH0 REVERT JUMPDEST POP POP POP PUSH1 0x20 PUSH1 0x40 MLOAD SUB MLOAD SWAP1 POP DUP7 PUSH1 0xFF AND DUP13 ADD SWAP12 POP PUSH0 PUSH2 0x26BD DUP3 DUP10 PUSH1 0xFF AND PUSH2 0x31C8 JUMP JUMPDEST SWAP1 POP PUSH0 PUSH0 SHL DUP13 SUB PUSH2 0x26CE JUMPI DUP1 PUSH2 0x26D9 JUMP JUMPDEST PUSH2 0x26D8 DUP13 DUP3 PUSH2 0x30E1 JUMP JUMPDEST JUMPDEST SWAP12 POP POP POP POP POP POP POP POP POP POP POP PUSH2 0x2571 JUMP JUMPDEST PUSH1 0x1 DUP2 SUB PUSH2 0x2775 JUMPI PUSH0 PUSH1 0xF DUP4 AND SWAP1 POP PUSH0 DUP2 PUSH1 0xFF AND SUB PUSH2 0x2721 JUMPI PUSH2 0x2718 DUP5 DUP10 DUP10 PUSH2 0x1EF6 SWAP3 SWAP1 SWAP2 SWAP3 PUSH4 0xFFFFFFFF AND JUMP JUMPDEST DUP1 SWAP6 POP DUP2 SWAP3 POP POP POP JUMPDEST PUSH0 PUSH2 0x2737 DUP6 DUP11 DUP11 PUSH2 0x1F11 SWAP3 SWAP1 SWAP2 SWAP3 PUSH4 0xFFFFFFFF AND JUMP JUMPDEST DUP1 SWAP7 POP DUP2 SWAP3 POP POP POP PUSH0 PUSH2 0x274D DUP3 DUP5 PUSH1 0xFF AND PUSH2 0x31C8 JUMP JUMPDEST SWAP1 POP PUSH0 PUSH0 SHL DUP8 SUB PUSH2 0x275E JUMPI DUP1 PUSH2 0x2769 JUMP JUMPDEST PUSH2 0x2768 DUP8 DUP3 PUSH2 0x30E1 JUMP JUMPDEST JUMPDEST SWAP7 POP POP POP POP POP POP PUSH2 0x2571 JUMP JUMPDEST PUSH1 0x2 DUP2 SUB PUSH2 0x2974 JUMPI PUSH0 PUSH1 0x3 DUP4 AND SWAP1 POP PUSH0 DUP2 PUSH1 0xFF AND SUB PUSH2 0x27AC JUMPI PUSH2 0x27A3 DUP5 DUP10 DUP10 PUSH2 0x1EF6 SWAP3 SWAP1 SWAP2 SWAP3 PUSH4 0xFFFFFFFF AND JUMP JUMPDEST DUP1 SWAP6 POP DUP2 SWAP3 POP POP POP JUMPDEST PUSH0 PUSH2 0x27C2 DUP6 DUP11 DUP11 PUSH2 0x1F11 SWAP3 SWAP1 SWAP2 SWAP3 PUSH4 0xFFFFFFFF AND JUMP JUMPDEST DUP1 SWAP7 POP DUP2 SWAP3 POP POP POP PUSH0 PUSH1 0x2 PUSH1 0xC DUP7 AND PUSH1 0xFF AND SWAP1 SHR PUSH1 0xFF AND SWAP1 POP PUSH0 PUSH2 0x27F8 DUP8 DUP4 DUP14 DUP14 PUSH2 0x1EAA SWAP2 SWAP1 SWAP4 SWAP3 SWAP2 SWAP1 SWAP4 SWAP3 SWAP2 SWAP1 PUSH4 0xFFFFFFFF AND JUMP JUMPDEST DUP1 SWAP9 POP DUP2 SWAP3 POP POP POP PUSH0 DUP2 DUP9 ADD SWAP1 POP PUSH4 0x20C13B0B PUSH1 0xE0 SHL PUSH28 0xFFFFFFFFFFFFFFFFFFFFFFFFFFFFFFFFFFFFFFFFFFFFFFFFFFFFFFFF NOT AND DUP5 PUSH20 0xFFFFFFFFFFFFFFFFFFFFFFFFFFFFFFFFFFFFFFFF AND PUSH4 0x1626BA7E DUP16 DUP16 DUP16 DUP14 SWAP1 DUP8 SWAP3 PUSH2 0x285C SWAP4 SWAP3 SWAP2 SWAP1 PUSH2 0x4841 JUMP JUMPDEST PUSH1 0x40 MLOAD DUP5 PUSH4 0xFFFFFFFF AND PUSH1 0xE0 SHL DUP2 MSTORE PUSH1 0x4 ADD PUSH2 0x287A SWAP4 SWAP3 SWAP2 SWAP1 PUSH2 0x4E10 JUMP JUMPDEST PUSH1 0x20 PUSH1 0x40 MLOAD DUP1 DUP4 SUB DUP2 DUP7 GAS STATICCALL ISZERO DUP1 ISZERO PUSH2 0x2895 JUMPI RETURNDATASIZE PUSH0 PUSH0 RETURNDATACOPY RETURNDATASIZE PUSH0 REVERT JUMPDEST POP POP POP POP PUSH1 0x40 MLOAD RETURNDATASIZE PUSH1 0x1F NOT PUSH1 0x1F DUP3 ADD AND DUP3 ADD DUP1 PUSH1 0x40 MSTORE POP DUP2 ADD SWAP1 PUSH2 0x28B9 SWAP2 SWAP1 PUSH2 0x4E54 JUMP JUMPDEST PUSH28 0xFFFFFFFFFFFFFFFFFFFFFFFFFFFFFFFFFFFFFFFFFFFFFFFFFFFFFFFF NOT AND EQ PUSH2 0x2930 JUMPI DUP13 DUP5 DUP14 DUP14 DUP12 SWAP1 DUP6 SWAP3 PUSH2 0x28F1 SWAP4 SWAP3 SWAP2 SWAP1 PUSH2 0x4841 JUMP JUMPDEST PUSH1 0x40 MLOAD PUSH32 0xB2FED7AE00000000000000000000000000000000000000000000000000000000 DUP2 MSTORE PUSH1 0x4 ADD PUSH2 0x2927 SWAP5 SWAP4 SWAP3 SWAP2 SWAP1 PUSH2 0x4E7F JUMP JUMPDEST PUSH1 0x40 MLOAD DUP1 SWAP2 SUB SWAP1 REVERT JUMPDEST DUP1 SWAP8 POP DUP5 PUSH1 0xFF AND DUP11 ADD SWAP10 POP PUSH0 PUSH2 0x2949 DUP6 DUP8 PUSH1 0xFF AND PUSH2 0x31C8 JUMP JUMPDEST SWAP1 POP PUSH0 PUSH0 SHL DUP11 SUB PUSH2 0x295A JUMPI DUP1 PUSH2 0x2965 JUMP JUMPDEST PUSH2 0x2964 DUP11 DUP3 PUSH2 0x30E1 JUMP JUMPDEST JUMPDEST SWAP10 POP POP POP POP POP POP POP POP POP PUSH2 0x2571 JUMP JUMPDEST PUSH1 0x3 DUP2 SUB PUSH2 0x29BE JUMPI PUSH0 PUSH2 0x2992 DUP5 DUP10 DUP10 PUSH2 0x31B2 SWAP3 SWAP1 SWAP2 SWAP3 PUSH4 0xFFFFFFFF AND JUMP JUMPDEST DUP1 SWAP6 POP DUP2 SWAP3 POP POP POP PUSH0 PUSH0 SHL DUP6 SUB PUSH2 0x29A9 JUMPI DUP1 PUSH2 0x29B4 JUMP JUMPDEST PUSH2 0x29B3 DUP6 DUP3 PUSH2 0x30E1 JUMP JUMPDEST JUMPDEST SWAP5 POP POP POP POP PUSH2 0x2571 JUMP JUMPDEST PUSH1 0x4 DUP2 SUB PUSH2 0x2A3D JUMPI PUSH0 PUSH1 0xF DUP4 AND PUSH1 0xFF AND SWAP1 POP PUSH0 PUSH2 0x29ED DUP6 DUP4 DUP12 DUP12 PUSH2 0x1EAA SWAP2 SWAP1 SWAP4 SWAP3 SWAP2 SWAP1 SWAP4 SWAP3 SWAP2 SWAP1 PUSH4 0xFFFFFFFF AND JUMP JUMPDEST DUP1 SWAP7 POP DUP2 SWAP3 POP POP POP PUSH0 DUP2 DUP7 ADD SWAP1 POP PUSH0 PUSH0 PUSH2 0x2A19 DUP15 DUP15 DUP15 DUP15 DUP13 SWAP1 DUP9 SWAP3 PUSH2 0x2A14 SWAP4 SWAP3 SWAP2 SWAP1 PUSH2 0x4841 JUMP JUMPDEST PUSH2 0x256D JUMP JUMPDEST SWAP2 POP SWAP2 POP DUP3 SWAP8 POP DUP2 DUP11 ADD SWAP10 POP PUSH2 0x2A2F DUP10 DUP3 PUSH2 0x30E1 JUMP JUMPDEST SWAP9 POP POP POP POP POP POP POP POP PUSH2 0x2571 JUMP JUMPDEST PUSH1 0x6 DUP2 SUB PUSH2 0x2B4D JUMPI PUSH0 PUSH1 0x2 PUSH1 0xC DUP5 AND PUSH1 0xFF AND SWAP1 SHR PUSH1 0xFF AND SWAP1 POP PUSH0 DUP2 SUB PUSH2 0x2A81 JUMPI PUSH2 0x2A72 DUP5 DUP10 DUP10 PUSH2 0x1EF6 SWAP3 SWAP1 SWAP2 SWAP3 PUSH4 0xFFFFFFFF AND JUMP JUMPDEST DUP2 PUSH1 0xFF AND SWAP2 POP DUP1 SWAP6 POP DUP2 SWAP3 POP POP POP JUMPDEST PUSH0 PUSH1 0x3 DUP5 AND PUSH1 0xFF AND SWAP1 POP PUSH0 DUP2 SUB PUSH2 0x2AB7 JUMPI PUSH2 0x2AA7 DUP6 DUP11 DUP11 PUSH2 0x1ED7 SWAP3 SWAP1 SWAP2 SWAP3 PUSH4 0xFFFFFFFF AND JUMP JUMPDEST DUP2 PUSH2 0xFFFF AND SWAP2 POP DUP1 SWAP7 POP DUP2 SWAP3 POP POP POP JUMPDEST PUSH0 PUSH2 0x2ACD DUP7 DUP12 DUP12 PUSH2 0x1F58 SWAP3 SWAP1 SWAP2 SWAP3 PUSH4 0xFFFFFFFF AND JUMP JUMPDEST DUP2 PUSH3 0xFFFFFF AND SWAP2 POP DUP1 SWAP8 POP DUP2 SWAP3 POP POP POP PUSH0 DUP2 DUP8 ADD SWAP1 POP PUSH0 PUSH0 PUSH2 0x2B01 DUP16 DUP16 DUP16 DUP16 DUP14 SWAP1 DUP9 SWAP3 PUSH2 0x2AFC SWAP4 SWAP3 SWAP2 SWAP1 PUSH2 0x4841 JUMP JUMPDEST PUSH2 0x256D JUMP JUMPDEST SWAP2 POP SWAP2 POP DUP3 SWAP9 POP DUP5 DUP3 LT PUSH2 0x2B15 JUMPI DUP6 DUP12 ADD SWAP11 POP JUMPDEST PUSH0 PUSH2 0x2B21 DUP3 DUP8 DUP10 PUSH2 0x31FA JUMP JUMPDEST SWAP1 POP PUSH0 PUSH0 SHL DUP12 SUB PUSH2 0x2B32 JUMPI DUP1 PUSH2 0x2B3D JUMP JUMPDEST PUSH2 0x2B3C DUP12 DUP3 PUSH2 0x30E1 JUMP JUMPDEST JUMPDEST SWAP11 POP POP POP POP POP POP POP POP POP POP PUSH2 0x2571 JUMP JUMPDEST PUSH1 0x5 DUP2 SUB PUSH2 0x2BCF JUMPI PUSH0 PUSH2 0x2B6B DUP5 DUP10 DUP10 PUSH2 0x31B2 SWAP3 SWAP1 SWAP2 SWAP3 PUSH4 0xFFFFFFFF AND JUMP JUMPDEST DUP1 SWAP6 POP DUP2 SWAP3 POP POP POP DUP9 DUP2 SUB PUSH2 0x2B9E JUMPI PUSH32 0xFFFFFFFFFFFFFFFFFFFFFFFFFFFFFFFFFFFFFFFFFFFFFFFFFFFFFFFFFFFFFFFF SWAP6 POP JUMPDEST PUSH0 PUSH2 0x2BA8 DUP3 PUSH2 0x322F JUMP JUMPDEST SWAP1 POP PUSH0 PUSH0 SHL DUP7 SUB PUSH2 0x2BB9 JUMPI DUP1 PUSH2 0x2BC4 JUMP JUMPDEST PUSH2 0x2BC3 DUP7 DUP3 PUSH2 0x30E1 JUMP JUMPDEST JUMPDEST SWAP6 POP POP POP POP POP PUSH2 0x2571 JUMP JUMPDEST PUSH1 0x7 DUP2 SUB PUSH2 0x2D35 JUMPI PUSH0 PUSH1 0xF DUP4 AND SWAP1 POP PUSH0 DUP2 PUSH1 0xFF AND SUB PUSH2 0x2C06 JUMPI PUSH2 0x2BFD DUP5 DUP10 DUP10 PUSH2 0x1EF6 SWAP3 SWAP1 SWAP2 SWAP3 PUSH4 0xFFFFFFFF AND JUMP JUMPDEST DUP1 SWAP6 POP DUP2 SWAP3 POP POP POP JUMPDEST PUSH0 PUSH0 PUSH2 0x2C1D DUP7 DUP12 DUP12 PUSH2 0x31B2 SWAP3 SWAP1 SWAP2 SWAP3 PUSH4 0xFFFFFFFF AND JUMP JUMPDEST DUP1 SWAP8 POP DUP2 SWAP4 POP POP POP PUSH2 0x2C3A DUP7 DUP12 DUP12 PUSH2 0x31B2 SWAP3 SWAP1 SWAP2 SWAP3 PUSH4 0xFFFFFFFF AND JUMP JUMPDEST DUP1 SWAP8 POP DUP2 SWAP3 POP POP POP PUSH0 PUSH1 0xFF DUP3 SWAP1 SHR PUSH0 SHR SWAP1 POP PUSH0 PUSH32 0x7FFFFFFFFFFFFFFFFFFFFFFFFFFFFFFFFFFFFFFFFFFFFFFFFFFFFFFFFFFFFFFF DUP4 PUSH0 SHR AND PUSH0 SHL SWAP1 POP PUSH0 PUSH1 0x1B DUP4 ADD SWAP1 POP PUSH0 PUSH1 0x1 DUP16 PUSH1 0x40 MLOAD PUSH1 0x20 ADD PUSH2 0x2C91 SWAP2 SWAP1 PUSH2 0x4F07 JUMP JUMPDEST PUSH1 0x40 MLOAD PUSH1 0x20 DUP2 DUP4 SUB SUB DUP2 MSTORE SWAP1 PUSH1 0x40 MSTORE DUP1 MLOAD SWAP1 PUSH1 0x20 ADD KECCAK256 DUP4 DUP9 DUP7 PUSH1 0x40 MLOAD PUSH0 DUP2 MSTORE PUSH1 0x20 ADD PUSH1 0x40 MSTORE PUSH1 0x40 MLOAD PUSH2 0x2CC6 SWAP5 SWAP4 SWAP3 SWAP2 SWAP1 PUSH2 0x4DCD JUMP JUMPDEST PUSH1 0x20 PUSH1 0x40 MLOAD PUSH1 0x20 DUP2 SUB SWAP1 DUP1 DUP5 SUB SWAP1 DUP6 GAS STATICCALL ISZERO DUP1 ISZERO PUSH2 0x2CE6 JUMPI RETURNDATASIZE PUSH0 PUSH0 RETURNDATACOPY RETURNDATASIZE PUSH0 REVERT JUMPDEST POP POP POP PUSH1 0x20 PUSH1 0x40 MLOAD SUB MLOAD SWAP1 POP DUP7 PUSH1 0xFF AND DUP13 ADD SWAP12 POP PUSH0 PUSH2 0x2D08 DUP3 DUP10 PUSH1 0xFF AND PUSH2 0x31C8 JUMP JUMPDEST SWAP1 POP PUSH0 PUSH0 SHL DUP13 SUB PUSH2 0x2D19 JUMPI DUP1 PUSH2 0x2D24 JUMP JUMPDEST PUSH2 0x2D23 DUP13 DUP3 PUSH2 0x30E1 JUMP JUMPDEST JUMPDEST SWAP12 POP POP POP POP POP POP POP POP POP POP POP PUSH2 0x2571 JUMP JUMPDEST PUSH1 0x8 DUP2 SUB PUSH2 0x2DCE JUMPI PUSH0 PUSH2 0x2D53 DUP5 DUP10 DUP10 PUSH2 0x31B2 SWAP3 SWAP1 SWAP2 SWAP3 PUSH4 0xFFFFFFFF AND JUMP JUMPDEST DUP1 SWAP6 POP DUP2 SWAP3 POP POP POP PUSH0 PUSH2 0x2D6F PUSH0 DUP13 PUSH2 0x325E SWAP1 SWAP2 SWAP1 PUSH4 0xFFFFFFFF AND JUMP JUMPDEST SWAP1 POP DUP1 DUP3 SUB PUSH2 0x2D9C JUMPI PUSH32 0xFFFFFFFFFFFFFFFFFFFFFFFFFFFFFFFFFFFFFFFFFFFFFFFFFFFFFFFFFFFFFFFF SWAP7 POP JUMPDEST PUSH0 PUSH2 0x2DA6 DUP4 PUSH2 0x32AF JUMP JUMPDEST SWAP1 POP PUSH0 PUSH0 SHL DUP8 SUB PUSH2 0x2DB7 JUMPI DUP1 PUSH2 0x2DC2 JUMP JUMPDEST PUSH2 0x2DC1 DUP8 DUP3 PUSH2 0x30E1 JUMP JUMPDEST JUMPDEST SWAP7 POP POP POP POP POP POP PUSH2 0x2571 JUMP JUMPDEST PUSH1 0x9 DUP2 SUB PUSH2 0x2F34 JUMPI PUSH0 PUSH1 0x3 DUP4 AND SWAP1 POP PUSH0 DUP2 PUSH1 0xFF AND SUB PUSH2 0x2E05 JUMPI PUSH2 0x2DFC DUP5 DUP10 DUP10 PUSH2 0x1EF6 SWAP3 SWAP1 SWAP2 SWAP3 PUSH4 0xFFFFFFFF AND JUMP JUMPDEST DUP1 SWAP6 POP DUP2 SWAP3 POP POP POP JUMPDEST PUSH0 PUSH2 0x2E1B DUP6 DUP11 DUP11 PUSH2 0x1F11 SWAP3 SWAP1 SWAP2 SWAP3 PUSH4 0xFFFFFFFF AND JUMP JUMPDEST DUP1 SWAP7 POP DUP2 SWAP3 POP POP POP PUSH0 PUSH0 PUSH1 0x2 PUSH1 0xC DUP8 AND PUSH1 0xFF AND SWAP1 SHR PUSH1 0xFF AND SWAP1 POP PUSH2 0x2E51 DUP8 DUP3 DUP14 DUP14 PUSH2 0x1EAA SWAP2 SWAP1 SWAP4 SWAP3 SWAP2 SWAP1 SWAP4 SWAP3 SWAP2 SWAP1 PUSH4 0xFFFFFFFF AND JUMP JUMPDEST DUP1 SWAP9 POP DUP2 SWAP4 POP POP POP POP PUSH0 DUP2 DUP8 ADD SWAP1 POP PUSH0 DUP4 PUSH20 0xFFFFFFFFFFFFFFFFFFFFFFFFFFFFFFFFFFFFFFFF AND PUSH4 0x13792A4A DUP16 DUP15 DUP15 DUP13 SWAP1 DUP8 SWAP3 PUSH2 0x2E90 SWAP4 SWAP3 SWAP2 SWAP1 PUSH2 0x4841 JUMP JUMPDEST PUSH1 0x40 MLOAD DUP5 PUSH4 0xFFFFFFFF AND PUSH1 0xE0 SHL DUP2 MSTORE PUSH1 0x4 ADD PUSH2 0x2EAE SWAP4 SWAP3 SWAP2 SWAP1 PUSH2 0x4F2C JUMP JUMPDEST PUSH1 0x20 PUSH1 0x40 MLOAD DUP1 DUP4 SUB DUP2 DUP7 GAS STATICCALL ISZERO DUP1 ISZERO PUSH2 0x2EC9 JUMPI RETURNDATASIZE PUSH0 PUSH0 RETURNDATACOPY RETURNDATASIZE PUSH0 REVERT JUMPDEST POP POP POP POP PUSH1 0x40 MLOAD RETURNDATASIZE PUSH1 0x1F NOT PUSH1 0x1F DUP3 ADD AND DUP3 ADD DUP1 PUSH1 0x40 MSTORE POP DUP2 ADD SWAP1 PUSH2 0x2EED SWAP2 SWAP1 PUSH2 0x4F63 JUMP JUMPDEST SWAP1 POP DUP2 SWAP8 POP DUP5 PUSH1 0xFF AND DUP11 ADD SWAP10 POP PUSH0 PUSH2 0x2F09 DUP6 DUP8 PUSH1 0xFF AND DUP5 PUSH2 0x32DE JUMP JUMPDEST SWAP1 POP PUSH0 PUSH0 SHL DUP11 SUB PUSH2 0x2F1A JUMPI DUP1 PUSH2 0x2F25 JUMP JUMPDEST PUSH2 0x2F24 DUP11 DUP3 PUSH2 0x30E1 JUMP JUMPDEST JUMPDEST SWAP10 POP POP POP POP POP POP POP POP POP PUSH2 0x2571 JUMP JUMPDEST PUSH1 0xA DUP2 SUB PUSH2 0x309A JUMPI PUSH0 PUSH1 0x3 DUP4 AND SWAP1 POP PUSH0 DUP2 PUSH1 0xFF AND SUB PUSH2 0x2F6B JUMPI PUSH2 0x2F62 DUP5 DUP10 DUP10 PUSH2 0x1EF6 SWAP3 SWAP1 SWAP2 SWAP3 PUSH4 0xFFFFFFFF AND JUMP JUMPDEST DUP1 SWAP6 POP DUP2 SWAP3 POP POP POP JUMPDEST PUSH0 PUSH2 0x2F81 DUP6 DUP11 DUP11 PUSH2 0x1F11 SWAP3 SWAP1 SWAP2 SWAP3 PUSH4 0xFFFFFFFF AND JUMP JUMPDEST DUP1 SWAP7 POP DUP2 SWAP3 POP POP POP PUSH0 PUSH1 0x2 PUSH1 0xC DUP7 AND PUSH1 0xFF AND SWAP1 SHR PUSH1 0xFF AND SWAP1 POP PUSH0 PUSH2 0x2FB7 DUP8 DUP4 DUP14 DUP14 PUSH2 0x1EAA SWAP2 SWAP1 SWAP4 SWAP3 SWAP2 SWAP1 SWAP4 SWAP3 SWAP2 SWAP1 PUSH4 0xFFFFFFFF AND JUMP JUMPDEST DUP1 SWAP9 POP DUP2 SWAP3 POP POP POP PUSH0 DUP2 DUP9 ADD SWAP1 POP PUSH0 DUP5 PUSH20 0xFFFFFFFFFFFFFFFFFFFFFFFFFFFFFFFFFFFFFFFF AND PUSH4 0x898BD921 DUP16 DUP16 DUP16 DUP14 SWAP1 DUP8 SWAP3 PUSH2 0x2FF5 SWAP4 SWAP3 SWAP2 SWAP1 PUSH2 0x4841 JUMP JUMPDEST PUSH1 0x40 MLOAD DUP5 PUSH4 0xFFFFFFFF AND PUSH1 0xE0 SHL DUP2 MSTORE PUSH1 0x4 ADD PUSH2 0x3013 SWAP4 SWAP3 SWAP2 SWAP1 PUSH2 0x4E10 JUMP JUMPDEST PUSH1 0x20 PUSH1 0x40 MLOAD DUP1 DUP4 SUB DUP2 DUP7 GAS STATICCALL ISZERO DUP1 ISZERO PUSH2 0x302E JUMPI RETURNDATASIZE PUSH0 PUSH0 RETURNDATACOPY RETURNDATASIZE PUSH0 REVERT JUMPDEST POP POP POP POP PUSH1 0x40 MLOAD RETURNDATASIZE PUSH1 0x1F NOT PUSH1 0x1F DUP3 ADD AND DUP3 ADD DUP1 PUSH1 0x40 MSTORE POP DUP2 ADD SWAP1 PUSH2 0x3052 SWAP2 SWAP1 PUSH2 0x4F63 JUMP JUMPDEST SWAP1 POP DUP2 SWAP9 POP DUP6 PUSH1 0xFF AND DUP12 ADD SWAP11 POP PUSH0 PUSH2 0x306E DUP7 DUP9 PUSH1 0xFF AND DUP5 PUSH2 0x32DE JUMP JUMPDEST SWAP1 POP PUSH0 PUSH0 SHL DUP12 SUB PUSH2 0x307F JUMPI DUP1 PUSH2 0x308A JUMP JUMPDEST PUSH2 0x3089 DUP12 DUP3 PUSH2 0x30E1 JUMP JUMPDEST JUMPDEST SWAP11 POP POP POP POP POP POP POP POP POP POP PUSH2 0x2571 JUMP JUMPDEST DUP1 PUSH1 0x40 MLOAD PUSH32 0xB2505F7C00000000000000000000000000000000000000000000000000000000 DUP2 MSTORE PUSH1 0x4 ADD PUSH2 0x30CE SWAP2 SWAP1 PUSH2 0x3F95 JUMP JUMPDEST PUSH1 0x40 MLOAD DUP1 SWAP2 SUB SWAP1 REVERT JUMPDEST POP SWAP5 POP SWAP5 SWAP3 POP POP POP JUMP JUMPDEST PUSH0 DUP3 PUSH0 MSTORE DUP2 PUSH1 0x20 MSTORE PUSH1 0x40 PUSH0 KECCAK256 SWAP1 POP SWAP3 SWAP2 POP POP JUMP JUMPDEST PUSH0 PUSH0 PUSH0 SHL DUP3 EQ ISZERO DUP1 ISZERO PUSH2 0x3131 JUMPI POP PUSH2 0x312E PUSH32 0xEA7157FA25E3AA17D0AE2D5280FA4E24D421C61842AA85E45194E1145AA72BF8 PUSH0 SHL PUSH2 0x19FE JUMP JUMPDEST DUP3 EQ JUMPDEST SWAP1 POP SWAP2 SWAP1 POP JUMP JUMPDEST PUSH0 PUSH1 0x60 PUSH0 PUSH0 SWAP1 POP JUMPDEST DUP4 MLOAD DUP2 LT ISZERO PUSH2 0x31A1 JUMPI PUSH0 PUSH2 0x316D DUP6 DUP4 DUP2 MLOAD DUP2 LT PUSH2 0x3160 JUMPI PUSH2 0x315F PUSH2 0x4334 JUMP JUMPDEST JUMPDEST PUSH1 0x20 MUL PUSH1 0x20 ADD ADD MLOAD PUSH2 0x3313 JUMP JUMPDEST SWAP1 POP DUP3 DUP2 PUSH1 0x40 MLOAD PUSH1 0x20 ADD PUSH2 0x3182 SWAP3 SWAP2 SWAP1 PUSH2 0x4FBE JUMP JUMPDEST PUSH1 0x40 MLOAD PUSH1 0x20 DUP2 DUP4 SUB SUB DUP2 MSTORE SWAP1 PUSH1 0x40 MSTORE SWAP3 POP POP DUP1 DUP1 PUSH1 0x1 ADD SWAP2 POP POP PUSH2 0x3140 JUMP JUMPDEST POP DUP1 DUP1 MLOAD SWAP1 PUSH1 0x20 ADD KECCAK256 SWAP2 POP POP SWAP2 SWAP1 POP JUMP JUMPDEST PUSH0 PUSH0 DUP5 DUP4 ADD CALLDATALOAD SWAP2 POP PUSH1 0x20 DUP4 ADD SWAP1 POP SWAP4 POP SWAP4 SWAP2 POP POP JUMP JUMPDEST PUSH0 DUP3 DUP3 PUSH1 0x40 MLOAD PUSH1 0x20 ADD PUSH2 0x31DC SWAP3 SWAP2 SWAP1 PUSH2 0x5094 JUMP JUMPDEST PUSH1 0x40 MLOAD PUSH1 0x20 DUP2 DUP4 SUB SUB DUP2 MSTORE SWAP1 PUSH1 0x40 MSTORE DUP1 MLOAD SWAP1 PUSH1 0x20 ADD KECCAK256 SWAP1 POP SWAP3 SWAP2 POP POP JUMP JUMPDEST PUSH0 DUP4 DUP4 DUP4 PUSH1 0x40 MLOAD PUSH1 0x20 ADD PUSH2 0x3210 SWAP4 SWAP3 SWAP2 SWAP1 PUSH2 0x5114 JUMP JUMPDEST PUSH1 0x40 MLOAD PUSH1 0x20 DUP2 DUP4 SUB SUB DUP2 MSTORE SWAP1 PUSH1 0x40 MSTORE DUP1 MLOAD SWAP1 PUSH1 0x20 ADD KECCAK256 SWAP1 POP SWAP4 SWAP3 POP POP POP JUMP JUMPDEST PUSH0 DUP2 PUSH1 0x40 MLOAD PUSH1 0x20 ADD PUSH2 0x3241 SWAP2 SWAP1 PUSH2 0x51A5 JUMP JUMPDEST PUSH1 0x40 MLOAD PUSH1 0x20 DUP2 DUP4 SUB SUB DUP2 MSTORE SWAP1 PUSH1 0x40 MSTORE DUP1 MLOAD SWAP1 PUSH1 0x20 ADD KECCAK256 SWAP1 POP SWAP2 SWAP1 POP JUMP JUMPDEST PUSH0 PUSH0 PUSH2 0x326E DUP5 PUSH1 0x20 ADD MLOAD DUP5 PUSH2 0x2033 JUMP JUMPDEST SWAP1 POP PUSH0 PUSH2 0x327A DUP6 PUSH2 0x20D7 JUMP JUMPDEST SWAP1 POP DUP2 DUP2 PUSH1 0x40 MLOAD PUSH1 0x20 ADD PUSH2 0x328F SWAP3 SWAP2 SWAP1 PUSH2 0x4AA4 JUMP JUMPDEST PUSH1 0x40 MLOAD PUSH1 0x20 DUP2 DUP4 SUB SUB DUP2 MSTORE SWAP1 PUSH1 0x40 MSTORE DUP1 MLOAD SWAP1 PUSH1 0x20 ADD KECCAK256 SWAP3 POP POP POP SWAP3 SWAP2 POP POP JUMP JUMPDEST PUSH0 DUP2 PUSH1 0x40 MLOAD PUSH1 0x20 ADD PUSH2 0x32C1 SWAP2 SWAP1 PUSH2 0x5214 JUMP JUMPDEST PUSH1 0x40 MLOAD PUSH1 0x20 DUP2 DUP4 SUB SUB DUP2 MSTORE SWAP1 PUSH1 0x40 MSTORE DUP1 MLOAD SWAP1 PUSH1 0x20 ADD KECCAK256 SWAP1 POP SWAP2 SWAP1 POP JUMP JUMPDEST PUSH0 DUP4 DUP4 DUP4 PUSH1 0x40 MLOAD PUSH1 0x20 ADD PUSH2 0x32F4 SWAP4 SWAP3 SWAP2 SWAP1 PUSH2 0x5283 JUMP JUMPDEST PUSH1 0x40 MLOAD PUSH1 0x20 DUP2 DUP4 SUB SUB DUP2 MSTORE SWAP1 PUSH1 0x40 MSTORE DUP1 MLOAD SWAP1 PUSH1 0x20 ADD KECCAK256 SWAP1 POP SWAP4 SWAP3 POP POP POP JUMP JUMPDEST PUSH0 PUSH32 0x603985259A953DA1F65A522F589C17BD1D0117EC1D3ABB7C0788AEF251EF437 DUP3 PUSH0 ADD MLOAD DUP4 PUSH1 0x20 ADD MLOAD DUP5 PUSH1 0x40 ADD MLOAD DUP1 MLOAD SWAP1 PUSH1 0x20 ADD KECCAK256 DUP6 PUSH1 0x60 ADD MLOAD DUP7 PUSH1 0x80 ADD MLOAD DUP8 PUSH1 0xA0 ADD MLOAD DUP9 PUSH1 0xC0 ADD MLOAD PUSH1 0x40 MLOAD PUSH1 0x20 ADD PUSH2 0x3375 SWAP9 SWAP8 SWAP7 SWAP6 SWAP5 SWAP4 SWAP3 SWAP2 SWAP1 PUSH2 0x52CA JUMP JUMPDEST PUSH1 0x40 MLOAD PUSH1 0x20 DUP2 DUP4 SUB SUB DUP2 MSTORE SWAP1 PUSH1 0x40 MSTORE DUP1 MLOAD SWAP1 PUSH1 0x20 ADD KECCAK256 SWAP1 POP SWAP2 SWAP1 POP JUMP JUMPDEST PUSH1 0x40 MLOAD DUP1 PUSH2 0x120 ADD PUSH1 0x40 MSTORE DUP1 PUSH0 PUSH1 0xFF AND DUP2 MSTORE PUSH1 0x20 ADD PUSH0 ISZERO ISZERO DUP2 MSTORE PUSH1 0x20 ADD PUSH1 0x60 DUP2 MSTORE PUSH1 0x20 ADD PUSH0 DUP2 MSTORE PUSH1 0x20 ADD PUSH0 DUP2 MSTORE PUSH1 0x20 ADD PUSH1 0x60 DUP2 MSTORE PUSH1 0x20 ADD PUSH0 DUP2 MSTORE PUSH1 0x20 ADD PUSH0 DUP2 MSTORE PUSH1 0x20 ADD PUSH1 0x60 DUP2 MSTORE POP SWAP1 JUMP JUMPDEST PUSH1 0x40 MLOAD DUP1 PUSH1 0xE0 ADD PUSH1 0x40 MSTORE DUP1 PUSH0 PUSH20 0xFFFFFFFFFFFFFFFFFFFFFFFFFFFFFFFFFFFFFFFF AND DUP2 MSTORE PUSH1 0x20 ADD PUSH0 DUP2 MSTORE PUSH1 0x20 ADD PUSH1 0x60 DUP2 MSTORE PUSH1 0x20 ADD PUSH0 DUP2 MSTORE PUSH1 0x20 ADD PUSH0 ISZERO ISZERO DUP2 MSTORE PUSH1 0x20 ADD PUSH0 ISZERO ISZERO DUP2 MSTORE PUSH1 0x20 ADD PUSH0 DUP2 MSTORE POP SWAP1 JUMP JUMPDEST PUSH1 0x40 MLOAD DUP1 PUSH1 0x40 ADD PUSH1 0x40 MSTORE DUP1 PUSH0 DUP2 MSTORE PUSH1 0x20 ADD PUSH0 DUP2 MSTORE POP SWAP1 JUMP JUMPDEST PUSH0 DUP3 SWAP1 POP SWAP3 SWAP2 POP POP JUMP JUMPDEST PUSH0 PUSH32 0xFFFFFFFF00000000000000000000000000000000000000000000000000000000 DUP3 AND SWAP1 POP SWAP2 SWAP1 POP JUMP JUMPDEST PUSH0 DUP3 DUP3 SHL SWAP1 POP SWAP3 SWAP2 POP POP JUMP JUMPDEST PUSH0 PUSH2 0x3492 DUP4 DUP4 PUSH2 0x3446 JUMP JUMPDEST DUP3 PUSH2 0x349D DUP2 CALLDATALOAD PUSH2 0x3450 JUMP JUMPDEST SWAP3 POP PUSH1 0x4 DUP3 LT ISZERO PUSH2 0x34DD JUMPI PUSH2 0x34D8 PUSH32 0xFFFFFFFF00000000000000000000000000000000000000000000000000000000 DUP4 PUSH1 0x4 SUB PUSH1 0x8 MUL PUSH2 0x347B JUMP JUMPDEST DUP4 AND SWAP3 POP JUMPDEST POP POP SWAP3 SWAP2 POP POP JUMP JUMPDEST PUSH0 DUP2 SWAP1 POP SWAP3 SWAP2 POP POP JUMP JUMPDEST DUP3 DUP2 DUP4 CALLDATACOPY PUSH0 DUP4 DUP4 ADD MSTORE POP POP POP JUMP JUMPDEST PUSH0 PUSH2 0x3508 DUP4 DUP6 PUSH2 0x34E5 JUMP JUMPDEST SWAP4 POP PUSH2 0x3515 DUP4 DUP6 DUP5 PUSH2 0x34EF JUMP JUMPDEST DUP3 DUP5 ADD SWAP1 POP SWAP4 SWAP3 POP POP POP JUMP JUMPDEST PUSH0 PUSH2 0x352D DUP3 DUP5 DUP7 PUSH2 0x34FD JUMP JUMPDEST SWAP2 POP DUP2 SWAP1 POP SWAP4 SWAP3 POP POP POP JUMP JUMPDEST PUSH0 PUSH1 0x40 MLOAD SWAP1 POP SWAP1 JUMP JUMPDEST PUSH0 PUSH0 REVERT JUMPDEST PUSH0 PUSH0 REVERT JUMPDEST PUSH0 PUSH20 0xFFFFFFFFFFFFFFFFFFFFFFFFFFFFFFFFFFFFFFFF DUP3 AND SWAP1 POP SWAP2 SWAP1 POP JUMP JUMPDEST PUSH0 PUSH2 0x3573 DUP3 PUSH2 0x354A JUMP JUMPDEST SWAP1 POP SWAP2 SWAP1 POP JUMP JUMPDEST PUSH2 0x3583 DUP2 PUSH2 0x3569 JUMP JUMPDEST DUP2 EQ PUSH2 0x358D JUMPI PUSH0 PUSH0 REVERT JUMPDEST POP JUMP JUMPDEST PUSH0 DUP2 CALLDATALOAD SWAP1 POP PUSH2 0x359E DUP2 PUSH2 0x357A JUMP JUMPDEST SWAP3 SWAP2 POP POP JUMP JUMPDEST PUSH0 PUSH1 0x20 DUP3 DUP5 SUB SLT ISZERO PUSH2 0x35B9 JUMPI PUSH2 0x35B8 PUSH2 0x3542 JUMP JUMPDEST JUMPDEST PUSH0 PUSH2 0x35C6 DUP5 DUP3 DUP6 ADD PUSH2 0x3590 JUMP JUMPDEST SWAP2 POP POP SWAP3 SWAP2 POP POP JUMP JUMPDEST PUSH0 PUSH0 REVERT JUMPDEST PUSH0 PUSH1 0x1F NOT PUSH1 0x1F DUP4 ADD AND SWAP1 POP SWAP2 SWAP1 POP JUMP JUMPDEST PUSH32 0x4E487B7100000000000000000000000000000000000000000000000000000000 PUSH0 MSTORE PUSH1 0x41 PUSH1 0x4 MSTORE PUSH1 0x24 PUSH0 REVERT JUMPDEST PUSH2 0x3619 DUP3 PUSH2 0x35D3 JUMP JUMPDEST DUP2 ADD DUP2 DUP2 LT PUSH8 0xFFFFFFFFFFFFFFFF DUP3 GT OR ISZERO PUSH2 0x3638 JUMPI PUSH2 0x3637 PUSH2 0x35E3 JUMP JUMPDEST JUMPDEST DUP1 PUSH1 0x40 MSTORE POP POP POP JUMP JUMPDEST PUSH0 PUSH2 0x364A PUSH2 0x3539 JUMP JUMPDEST SWAP1 POP PUSH2 0x3656 DUP3 DUP3 PUSH2 0x3610 JUMP JUMPDEST SWAP2 SWAP1 POP JUMP JUMPDEST PUSH0 PUSH0 REVERT JUMPDEST PUSH0 PUSH1 0xFF DUP3 AND SWAP1 POP SWAP2 SWAP1 POP JUMP JUMPDEST PUSH2 0x3674 DUP2 PUSH2 0x365F JUMP JUMPDEST DUP2 EQ PUSH2 0x367E JUMPI PUSH0 PUSH0 REVERT JUMPDEST POP JUMP JUMPDEST PUSH0 DUP2 CALLDATALOAD SWAP1 POP PUSH2 0x368F DUP2 PUSH2 0x366B JUMP JUMPDEST SWAP3 SWAP2 POP POP JUMP JUMPDEST PUSH0 DUP2 ISZERO ISZERO SWAP1 POP SWAP2 SWAP1 POP JUMP JUMPDEST PUSH2 0x36A9 DUP2 PUSH2 0x3695 JUMP JUMPDEST DUP2 EQ PUSH2 0x36B3 JUMPI PUSH0 PUSH0 REVERT JUMPDEST POP JUMP JUMPDEST PUSH0 DUP2 CALLDATALOAD SWAP1 POP PUSH2 0x36C4 DUP2 PUSH2 0x36A0 JUMP JUMPDEST SWAP3 SWAP2 POP POP JUMP JUMPDEST PUSH0 PUSH0 REVERT JUMPDEST PUSH0 PUSH8 0xFFFFFFFFFFFFFFFF DUP3 GT ISZERO PUSH2 0x36E8 JUMPI PUSH2 0x36E7 PUSH2 0x35E3 JUMP JUMPDEST JUMPDEST PUSH1 0x20 DUP3 MUL SWAP1 POP PUSH1 0x20 DUP2 ADD SWAP1 POP SWAP2 SWAP1 POP JUMP JUMPDEST PUSH0 PUSH0 REVERT JUMPDEST PUSH0 DUP2 SWAP1 POP SWAP2 SWAP1 POP JUMP JUMPDEST PUSH2 0x370F DUP2 PUSH2 0x36FD JUMP JUMPDEST DUP2 EQ PUSH2 0x3719 JUMPI PUSH0 PUSH0 REVERT JUMPDEST POP JUMP JUMPDEST PUSH0 DUP2 CALLDATALOAD SWAP1 POP PUSH2 0x372A DUP2 PUSH2 0x3706 JUMP JUMPDEST SWAP3 SWAP2 POP POP JUMP JUMPDEST PUSH0 PUSH0 REVERT JUMPDEST PUSH0 PUSH8 0xFFFFFFFFFFFFFFFF DUP3 GT ISZERO PUSH2 0x374E JUMPI PUSH2 0x374D PUSH2 0x35E3 JUMP JUMPDEST JUMPDEST PUSH2 0x3757 DUP3 PUSH2 0x35D3 JUMP JUMPDEST SWAP1 POP PUSH1 0x20 DUP2 ADD SWAP1 POP SWAP2 SWAP1 POP JUMP JUMPDEST PUSH0 PUSH2 0x3776 PUSH2 0x3771 DUP5 PUSH2 0x3734 JUMP JUMPDEST PUSH2 0x3641 JUMP JUMPDEST SWAP1 POP DUP3 DUP2 MSTORE PUSH1 0x20 DUP2 ADD DUP5 DUP5 DUP5 ADD GT ISZERO PUSH2 0x3792 JUMPI PUSH2 0x3791 PUSH2 0x3730 JUMP JUMPDEST JUMPDEST PUSH2 0x379D DUP5 DUP3 DUP6 PUSH2 0x34EF JUMP JUMPDEST POP SWAP4 SWAP3 POP POP POP JUMP JUMPDEST PUSH0 DUP3 PUSH1 0x1F DUP4 ADD SLT PUSH2 0x37B9 JUMPI PUSH2 0x37B8 PUSH2 0x36CA JUMP JUMPDEST JUMPDEST DUP2 CALLDATALOAD PUSH2 0x37C9 DUP5 DUP3 PUSH1 0x20 DUP7 ADD PUSH2 0x3764 JUMP JUMPDEST SWAP2 POP POP SWAP3 SWAP2 POP POP JUMP JUMPDEST PUSH0 PUSH1 0xE0 DUP3 DUP5 SUB SLT ISZERO PUSH2 0x37E7 JUMPI PUSH2 0x37E6 PUSH2 0x35CF JUMP JUMPDEST JUMPDEST PUSH2 0x37F1 PUSH1 0xE0 PUSH2 0x3641 JUMP JUMPDEST SWAP1 POP PUSH0 PUSH2 0x3800 DUP5 DUP3 DUP6 ADD PUSH2 0x3590 JUMP JUMPDEST PUSH0 DUP4 ADD MSTORE POP PUSH1 0x20 PUSH2 0x3813 DUP5 DUP3 DUP6 ADD PUSH2 0x371C JUMP JUMPDEST PUSH1 0x20 DUP4 ADD MSTORE POP PUSH1 0x40 DUP3 ADD CALLDATALOAD PUSH8 0xFFFFFFFFFFFFFFFF DUP2 GT ISZERO PUSH2 0x3837 JUMPI PUSH2 0x3836 PUSH2 0x365B JUMP JUMPDEST JUMPDEST PUSH2 0x3843 DUP5 DUP3 DUP6 ADD PUSH2 0x37A5 JUMP JUMPDEST PUSH1 0x40 DUP4 ADD MSTORE POP PUSH1 0x60 PUSH2 0x3857 DUP5 DUP3 DUP6 ADD PUSH2 0x371C JUMP JUMPDEST PUSH1 0x60 DUP4 ADD MSTORE POP PUSH1 0x80 PUSH2 0x386B DUP5 DUP3 DUP6 ADD PUSH2 0x36B6 JUMP JUMPDEST PUSH1 0x80 DUP4 ADD MSTORE POP PUSH1 0xA0 PUSH2 0x387F DUP5 DUP3 DUP6 ADD PUSH2 0x36B6 JUMP JUMPDEST PUSH1 0xA0 DUP4 ADD MSTORE POP PUSH1 0xC0 PUSH2 0x3893 DUP5 DUP3 DUP6 ADD PUSH2 0x371C JUMP JUMPDEST PUSH1 0xC0 DUP4 ADD MSTORE POP SWAP3 SWAP2 POP POP JUMP JUMPDEST PUSH0 PUSH2 0x38B1 PUSH2 0x38AC DUP5 PUSH2 0x36CE JUMP JUMPDEST PUSH2 0x3641 JUMP JUMPDEST SWAP1 POP DUP1 DUP4 DUP3 MSTORE PUSH1 0x20 DUP3 ADD SWAP1 POP PUSH1 0x20 DUP5 MUL DUP4 ADD DUP6 DUP2 GT ISZERO PUSH2 0x38D4 JUMPI PUSH2 0x38D3 PUSH2 0x36F9 JUMP JUMPDEST JUMPDEST DUP4 JUMPDEST DUP2 DUP2 LT ISZERO PUSH2 0x391B JUMPI DUP1 CALLDATALOAD PUSH8 0xFFFFFFFFFFFFFFFF DUP2 GT ISZERO PUSH2 0x38F9 JUMPI PUSH2 0x38F8 PUSH2 0x36CA JUMP JUMPDEST JUMPDEST DUP1 DUP7 ADD PUSH2 0x3906 DUP10 DUP3 PUSH2 0x37D2 JUMP JUMPDEST DUP6 MSTORE PUSH1 0x20 DUP6 ADD SWAP5 POP POP POP PUSH1 0x20 DUP2 ADD SWAP1 POP PUSH2 0x38D6 JUMP JUMPDEST POP POP POP SWAP4 SWAP3 POP POP POP JUMP JUMPDEST PUSH0 DUP3 PUSH1 0x1F DUP4 ADD SLT PUSH2 0x3939 JUMPI PUSH2 0x3938 PUSH2 0x36CA JUMP JUMPDEST JUMPDEST DUP2 CALLDATALOAD PUSH2 0x3949 DUP5 DUP3 PUSH1 0x20 DUP7 ADD PUSH2 0x389F JUMP JUMPDEST SWAP2 POP POP SWAP3 SWAP2 POP POP JUMP JUMPDEST PUSH0 DUP2 SWAP1 POP SWAP2 SWAP1 POP JUMP JUMPDEST PUSH2 0x3964 DUP2 PUSH2 0x3952 JUMP JUMPDEST DUP2 EQ PUSH2 0x396E JUMPI PUSH0 PUSH0 REVERT JUMPDEST POP JUMP JUMPDEST PUSH0 DUP2 CALLDATALOAD SWAP1 POP PUSH2 0x397F DUP2 PUSH2 0x395B JUMP JUMPDEST SWAP3 SWAP2 POP POP JUMP JUMPDEST PUSH0 PUSH8 0xFFFFFFFFFFFFFFFF DUP3 GT ISZERO PUSH2 0x399F JUMPI PUSH2 0x399E PUSH2 0x35E3 JUMP JUMPDEST JUMPDEST PUSH1 0x20 DUP3 MUL SWAP1 POP PUSH1 0x20 DUP2 ADD SWAP1 POP SWAP2 SWAP1 POP JUMP JUMPDEST PUSH0 PUSH2 0x39C2 PUSH2 0x39BD DUP5 PUSH2 0x3985 JUMP JUMPDEST PUSH2 0x3641 JUMP JUMPDEST SWAP1 POP DUP1 DUP4 DUP3 MSTORE PUSH1 0x20 DUP3 ADD SWAP1 POP PUSH1 0x20 DUP5 MUL DUP4 ADD DUP6 DUP2 GT ISZERO PUSH2 0x39E5 JUMPI PUSH2 0x39E4 PUSH2 0x36F9 JUMP JUMPDEST JUMPDEST DUP4 JUMPDEST DUP2 DUP2 LT ISZERO PUSH2 0x3A0E JUMPI DUP1 PUSH2 0x39FA DUP9 DUP3 PUSH2 0x3590 JUMP JUMPDEST DUP5 MSTORE PUSH1 0x20 DUP5 ADD SWAP4 POP POP PUSH1 0x20 DUP2 ADD SWAP1 POP PUSH2 0x39E7 JUMP JUMPDEST POP POP POP SWAP4 SWAP3 POP POP POP JUMP JUMPDEST PUSH0 DUP3 PUSH1 0x1F DUP4 ADD SLT PUSH2 0x3A2C JUMPI PUSH2 0x3A2B PUSH2 0x36CA JUMP JUMPDEST JUMPDEST DUP2 CALLDATALOAD PUSH2 0x3A3C DUP5 DUP3 PUSH1 0x20 DUP7 ADD PUSH2 0x39B0 JUMP JUMPDEST SWAP2 POP POP SWAP3 SWAP2 POP POP JUMP JUMPDEST PUSH0 PUSH2 0x120 DUP3 DUP5 SUB SLT ISZERO PUSH2 0x3A5B JUMPI PUSH2 0x3A5A PUSH2 0x35CF JUMP JUMPDEST JUMPDEST PUSH2 0x3A66 PUSH2 0x120 PUSH2 0x3641 JUMP JUMPDEST SWAP1 POP PUSH0 PUSH2 0x3A75 DUP5 DUP3 DUP6 ADD PUSH2 0x3681 JUMP JUMPDEST PUSH0 DUP4 ADD MSTORE POP PUSH1 0x20 PUSH2 0x3A88 DUP5 DUP3 DUP6 ADD PUSH2 0x36B6 JUMP JUMPDEST PUSH1 0x20 DUP4 ADD MSTORE POP PUSH1 0x40 DUP3 ADD CALLDATALOAD PUSH8 0xFFFFFFFFFFFFFFFF DUP2 GT ISZERO PUSH2 0x3AAC JUMPI PUSH2 0x3AAB PUSH2 0x365B JUMP JUMPDEST JUMPDEST PUSH2 0x3AB8 DUP5 DUP3 DUP6 ADD PUSH2 0x3925 JUMP JUMPDEST PUSH1 0x40 DUP4 ADD MSTORE POP PUSH1 0x60 PUSH2 0x3ACC DUP5 DUP3 DUP6 ADD PUSH2 0x371C JUMP JUMPDEST PUSH1 0x60 DUP4 ADD MSTORE POP PUSH1 0x80 PUSH2 0x3AE0 DUP5 DUP3 DUP6 ADD PUSH2 0x371C JUMP JUMPDEST PUSH1 0x80 DUP4 ADD MSTORE POP PUSH1 0xA0 DUP3 ADD CALLDATALOAD PUSH8 0xFFFFFFFFFFFFFFFF DUP2 GT ISZERO PUSH2 0x3B04 JUMPI PUSH2 0x3B03 PUSH2 0x365B JUMP JUMPDEST JUMPDEST PUSH2 0x3B10 DUP5 DUP3 DUP6 ADD PUSH2 0x37A5 JUMP JUMPDEST PUSH1 0xA0 DUP4 ADD MSTORE POP PUSH1 0xC0 PUSH2 0x3B24 DUP5 DUP3 DUP6 ADD PUSH2 0x3971 JUMP JUMPDEST PUSH1 0xC0 DUP4 ADD MSTORE POP PUSH1 0xE0 PUSH2 0x3B38 DUP5 DUP3 DUP6 ADD PUSH2 0x3971 JUMP JUMPDEST PUSH1 0xE0 DUP4 ADD MSTORE POP PUSH2 0x100 DUP3 ADD CALLDATALOAD PUSH8 0xFFFFFFFFFFFFFFFF DUP2 GT ISZERO PUSH2 0x3B5D JUMPI PUSH2 0x3B5C PUSH2 0x365B JUMP JUMPDEST JUMPDEST PUSH2 0x3B69 DUP5 DUP3 DUP6 ADD PUSH2 0x3A18 JUMP JUMPDEST PUSH2 0x100 DUP4 ADD MSTORE POP SWAP3 SWAP2 POP POP JUMP JUMPDEST PUSH0 PUSH0 REVERT JUMPDEST PUSH0 PUSH0 DUP4 PUSH1 0x1F DUP5 ADD SLT PUSH2 0x3B8F JUMPI PUSH2 0x3B8E PUSH2 0x36CA JUMP JUMPDEST JUMPDEST DUP3 CALLDATALOAD SWAP1 POP PUSH8 0xFFFFFFFFFFFFFFFF DUP2 GT ISZERO PUSH2 0x3BAC JUMPI PUSH2 0x3BAB PUSH2 0x3B76 JUMP JUMPDEST JUMPDEST PUSH1 0x20 DUP4 ADD SWAP2 POP DUP4 PUSH1 0x1 DUP3 MUL DUP4 ADD GT ISZERO PUSH2 0x3BC8 JUMPI PUSH2 0x3BC7 PUSH2 0x36F9 JUMP JUMPDEST JUMPDEST SWAP3 POP SWAP3 SWAP1 POP JUMP JUMPDEST PUSH0 PUSH0 PUSH0 PUSH1 0x40 DUP5 DUP7 SUB SLT ISZERO PUSH2 0x3BE6 JUMPI PUSH2 0x3BE5 PUSH2 0x3542 JUMP JUMPDEST JUMPDEST PUSH0 DUP5 ADD CALLDATALOAD PUSH8 0xFFFFFFFFFFFFFFFF DUP2 GT ISZERO PUSH2 0x3C03 JUMPI PUSH2 0x3C02 PUSH2 0x3546 JUMP JUMPDEST JUMPDEST PUSH2 0x3C0F DUP7 DUP3 DUP8 ADD PUSH2 0x3A45 JUMP JUMPDEST SWAP4 POP POP PUSH1 0x20 DUP5 ADD CALLDATALOAD PUSH8 0xFFFFFFFFFFFFFFFF DUP2 GT ISZERO PUSH2 0x3C30 JUMPI PUSH2 0x3C2F PUSH2 0x3546 JUMP JUMPDEST JUMPDEST PUSH2 0x3C3C DUP7 DUP3 DUP8 ADD PUSH2 0x3B7A JUMP JUMPDEST SWAP3 POP SWAP3 POP POP SWAP3 POP SWAP3 POP SWAP3 JUMP JUMPDEST PUSH2 0x3C51 DUP2 PUSH2 0x3952 JUMP JUMPDEST DUP3 MSTORE POP POP JUMP JUMPDEST PUSH0 PUSH1 0x20 DUP3 ADD SWAP1 POP PUSH2 0x3C6A PUSH0 DUP4 ADD DUP5 PUSH2 0x3C48 JUMP JUMPDEST SWAP3 SWAP2 POP POP JUMP JUMPDEST PUSH0 PUSH0 PUSH0 PUSH0 PUSH0 PUSH1 0x80 DUP7 DUP9 SUB SLT ISZERO PUSH2 0x3C89 JUMPI PUSH2 0x3C88 PUSH2 0x3542 JUMP JUMPDEST JUMPDEST PUSH0 PUSH2 0x3C96 DUP9 DUP3 DUP10 ADD PUSH2 0x3590 JUMP JUMPDEST SWAP6 POP POP PUSH1 0x20 PUSH2 0x3CA7 DUP9 DUP3 DUP10 ADD PUSH2 0x3590 JUMP JUMPDEST SWAP5 POP POP PUSH1 0x40 PUSH2 0x3CB8 DUP9 DUP3 DUP10 ADD PUSH2 0x371C JUMP JUMPDEST SWAP4 POP POP PUSH1 0x60 DUP7 ADD CALLDATALOAD PUSH8 0xFFFFFFFFFFFFFFFF DUP2 GT ISZERO PUSH2 0x3CD9 JUMPI PUSH2 0x3CD8 PUSH2 0x3546 JUMP JUMPDEST JUMPDEST PUSH2 0x3CE5 DUP9 DUP3 DUP10 ADD PUSH2 0x3B7A JUMP JUMPDEST SWAP3 POP SWAP3 POP POP SWAP3 SWAP6 POP SWAP3 SWAP6 SWAP1 SWAP4 POP JUMP JUMPDEST PUSH2 0x3CFD DUP2 PUSH2 0x3450 JUMP JUMPDEST DUP3 MSTORE POP POP JUMP JUMPDEST PUSH0 PUSH1 0x20 DUP3 ADD SWAP1 POP PUSH2 0x3D16 PUSH0 DUP4 ADD DUP5 PUSH2 0x3CF4 JUMP JUMPDEST SWAP3 SWAP2 POP POP JUMP JUMPDEST PUSH0 PUSH0 PUSH0 PUSH1 0x40 DUP5 DUP7 SUB SLT ISZERO PUSH2 0x3D33 JUMPI PUSH2 0x3D32 PUSH2 0x3542 JUMP JUMPDEST JUMPDEST PUSH0 PUSH2 0x3D40 DUP7 DUP3 DUP8 ADD PUSH2 0x3971 JUMP JUMPDEST SWAP4 POP POP PUSH1 0x20 DUP5 ADD CALLDATALOAD PUSH8 0xFFFFFFFFFFFFFFFF DUP2 GT ISZERO PUSH2 0x3D61 JUMPI PUSH2 0x3D60 PUSH2 0x3546 JUMP JUMPDEST JUMPDEST PUSH2 0x3D6D DUP7 DUP3 DUP8 ADD PUSH2 0x3B7A JUMP JUMPDEST SWAP3 POP SWAP3 POP POP SWAP3 POP SWAP3 POP SWAP3 JUMP JUMPDEST PUSH2 0x3D82 DUP2 PUSH2 0x3450 JUMP JUMPDEST DUP2 EQ PUSH2 0x3D8C JUMPI PUSH0 PUSH0 REVERT JUMPDEST POP JUMP JUMPDEST PUSH0 DUP2 CALLDATALOAD SWAP1 POP PUSH2 0x3D9D DUP2 PUSH2 0x3D79 JUMP JUMPDEST SWAP3 SWAP2 POP POP JUMP JUMPDEST PUSH0 PUSH1 0x20 DUP3 DUP5 SUB SLT ISZERO PUSH2 0x3DB8 JUMPI PUSH2 0x3DB7 PUSH2 0x3542 JUMP JUMPDEST JUMPDEST PUSH0 PUSH2 0x3DC5 DUP5 DUP3 DUP6 ADD PUSH2 0x3D8F JUMP JUMPDEST SWAP2 POP POP SWAP3 SWAP2 POP POP JUMP JUMPDEST PUSH2 0x3DD7 DUP2 PUSH2 0x3569 JUMP JUMPDEST DUP3 MSTORE POP POP JUMP JUMPDEST PUSH0 PUSH1 0x20 DUP3 ADD SWAP1 POP PUSH2 0x3DF0 PUSH0 DUP4 ADD DUP5 PUSH2 0x3DCE JUMP JUMPDEST SWAP3 SWAP2 POP POP JUMP JUMPDEST PUSH0 PUSH0 PUSH0 PUSH0 PUSH1 0x40 DUP6 DUP8 SUB SLT ISZERO PUSH2 0x3E0E JUMPI PUSH2 0x3E0D PUSH2 0x3542 JUMP JUMPDEST JUMPDEST PUSH0 DUP6 ADD CALLDATALOAD PUSH8 0xFFFFFFFFFFFFFFFF DUP2 GT ISZERO PUSH2 0x3E2B JUMPI PUSH2 0x3E2A PUSH2 0x3546 JUMP JUMPDEST JUMPDEST PUSH2 0x3E37 DUP8 DUP3 DUP9 ADD PUSH2 0x3B7A JUMP JUMPDEST SWAP5 POP SWAP5 POP POP PUSH1 0x20 DUP6 ADD CALLDATALOAD PUSH8 0xFFFFFFFFFFFFFFFF DUP2 GT ISZERO PUSH2 0x3E5A JUMPI PUSH2 0x3E59 PUSH2 0x3546 JUMP JUMPDEST JUMPDEST PUSH2 0x3E66 DUP8 DUP3 DUP9 ADD PUSH2 0x3B7A JUMP JUMPDEST SWAP3 POP SWAP3 POP POP SWAP3 SWAP6 SWAP2 SWAP5 POP SWAP3 POP JUMP JUMPDEST PUSH0 PUSH1 0x20 DUP3 DUP5 SUB SLT ISZERO PUSH2 0x3E89 JUMPI PUSH2 0x3E88 PUSH2 0x3542 JUMP JUMPDEST JUMPDEST PUSH0 PUSH2 0x3E96 DUP5 DUP3 DUP6 ADD PUSH2 0x3971 JUMP JUMPDEST SWAP2 POP POP SWAP3 SWAP2 POP POP JUMP JUMPDEST PUSH0 PUSH0 PUSH1 0x20 DUP4 DUP6 SUB SLT ISZERO PUSH2 0x3EB5 JUMPI PUSH2 0x3EB4 PUSH2 0x3542 JUMP JUMPDEST JUMPDEST PUSH0 DUP4 ADD CALLDATALOAD PUSH8 0xFFFFFFFFFFFFFFFF DUP2 GT ISZERO PUSH2 0x3ED2 JUMPI PUSH2 0x3ED1 PUSH2 0x3546 JUMP JUMPDEST JUMPDEST PUSH2 0x3EDE DUP6 DUP3 DUP7 ADD PUSH2 0x3B7A JUMP JUMPDEST SWAP3 POP SWAP3 POP POP SWAP3 POP SWAP3 SWAP1 POP JUMP JUMPDEST PUSH0 PUSH0 PUSH0 PUSH0 PUSH1 0x60 DUP6 DUP8 SUB SLT ISZERO PUSH2 0x3F02 JUMPI PUSH2 0x3F01 PUSH2 0x3542 JUMP JUMPDEST JUMPDEST PUSH0 PUSH2 0x3F0F DUP8 DUP3 DUP9 ADD PUSH2 0x3590 JUMP JUMPDEST SWAP5 POP POP PUSH1 0x20 PUSH2 0x3F20 DUP8 DUP3 DUP9 ADD PUSH2 0x371C JUMP JUMPDEST SWAP4 POP POP PUSH1 0x40 DUP6 ADD CALLDATALOAD PUSH8 0xFFFFFFFFFFFFFFFF DUP2 GT ISZERO PUSH2 0x3F41 JUMPI PUSH2 0x3F40 PUSH2 0x3546 JUMP JUMPDEST JUMPDEST PUSH2 0x3F4D DUP8 DUP3 DUP9 ADD PUSH2 0x3B7A JUMP JUMPDEST SWAP3 POP SWAP3 POP POP SWAP3 SWAP6 SWAP2 SWAP5 POP SWAP3 POP JUMP JUMPDEST PUSH0 PUSH1 0x20 DUP3 DUP5 SUB SLT ISZERO PUSH2 0x3F70 JUMPI PUSH2 0x3F6F PUSH2 0x3542 JUMP JUMPDEST JUMPDEST PUSH0 PUSH2 0x3F7D DUP5 DUP3 DUP6 ADD PUSH2 0x371C JUMP JUMPDEST SWAP2 POP POP SWAP3 SWAP2 POP POP JUMP JUMPDEST PUSH2 0x3F8F DUP2 PUSH2 0x36FD JUMP JUMPDEST DUP3 MSTORE POP POP JUMP JUMPDEST PUSH0 PUSH1 0x20 DUP3 ADD SWAP1 POP PUSH2 0x3FA8 PUSH0 DUP4 ADD DUP5 PUSH2 0x3F86 JUMP JUMPDEST SWAP3 SWAP2 POP POP JUMP JUMPDEST PUSH0 PUSH1 0x40 DUP3 ADD SWAP1 POP PUSH2 0x3FC1 PUSH0 DUP4 ADD DUP6 PUSH2 0x3DCE JUMP JUMPDEST PUSH2 0x3FCE PUSH1 0x20 DUP4 ADD DUP5 PUSH2 0x3F86 JUMP JUMPDEST SWAP4 SWAP3 POP POP POP JUMP JUMPDEST PUSH2 0x3FDE DUP2 PUSH2 0x3695 JUMP JUMPDEST DUP3 MSTORE POP POP JUMP JUMPDEST PUSH0 PUSH1 0xC0 DUP3 ADD SWAP1 POP PUSH2 0x3FF7 PUSH0 DUP4 ADD DUP10 PUSH2 0x3F86 JUMP JUMPDEST PUSH2 0x4004 PUSH1 0x20 DUP4 ADD DUP9 PUSH2 0x3F86 JUMP JUMPDEST PUSH2 0x4011 PUSH1 0x40 DUP4 ADD DUP8 PUSH2 0x3FD5 JUMP JUMPDEST PUSH2 0x401E PUSH1 0x60 DUP4 ADD DUP7 PUSH2 0x3C48 JUMP JUMPDEST PUSH2 0x402B PUSH1 0x80 DUP4 ADD DUP6 PUSH2 0x3F86 JUMP JUMPDEST PUSH2 0x4038 PUSH1 0xA0 DUP4 ADD DUP5 PUSH2 0x3C48 JUMP JUMPDEST SWAP8 SWAP7 POP POP POP POP POP POP POP JUMP JUMPDEST PUSH0 PUSH0 PUSH1 0x40 DUP4 DUP6 SUB SLT ISZERO PUSH2 0x4059 JUMPI PUSH2 0x4058 PUSH2 0x3542 JUMP JUMPDEST JUMPDEST PUSH0 PUSH2 0x4066 DUP6 DUP3 DUP7 ADD PUSH2 0x3D8F JUMP JUMPDEST SWAP3 POP POP PUSH1 0x20 PUSH2 0x4077 DUP6 DUP3 DUP7 ADD PUSH2 0x3590 JUMP JUMPDEST SWAP2 POP POP SWAP3 POP SWAP3 SWAP1 POP JUMP JUMPDEST PUSH0 PUSH0 DUP4 PUSH1 0x1F DUP5 ADD SLT PUSH2 0x4096 JUMPI PUSH2 0x4095 PUSH2 0x36CA JUMP JUMPDEST JUMPDEST DUP3 CALLDATALOAD SWAP1 POP PUSH8 0xFFFFFFFFFFFFFFFF DUP2 GT ISZERO PUSH2 0x40B3 JUMPI PUSH2 0x40B2 PUSH2 0x3B76 JUMP JUMPDEST JUMPDEST PUSH1 0x20 DUP4 ADD SWAP2 POP DUP4 PUSH1 0x20 DUP3 MUL DUP4 ADD GT ISZERO PUSH2 0x40CF JUMPI PUSH2 0x40CE PUSH2 0x36F9 JUMP JUMPDEST JUMPDEST SWAP3 POP SWAP3 SWAP1 POP JUMP JUMPDEST PUSH0 PUSH0 PUSH0 PUSH0 PUSH0 PUSH0 PUSH0 PUSH0 PUSH1 0xA0 DUP10 DUP12 SUB SLT ISZERO PUSH2 0x40F2 JUMPI PUSH2 0x40F1 PUSH2 0x3542 JUMP JUMPDEST JUMPDEST PUSH0 PUSH2 0x40FF DUP12 DUP3 DUP13 ADD PUSH2 0x3590 JUMP JUMPDEST SWAP9 POP POP PUSH1 0x20 PUSH2 0x4110 DUP12 DUP3 DUP13 ADD PUSH2 0x3590 JUMP JUMPDEST SWAP8 POP POP PUSH1 0x40 DUP10 ADD CALLDATALOAD PUSH8 0xFFFFFFFFFFFFFFFF DUP2 GT ISZERO PUSH2 0x4131 JUMPI PUSH2 0x4130 PUSH2 0x3546 JUMP JUMPDEST JUMPDEST PUSH2 0x413D DUP12 DUP3 DUP13 ADD PUSH2 0x4081 JUMP JUMPDEST SWAP7 POP SWAP7 POP POP PUSH1 0x60 DUP10 ADD CALLDATALOAD PUSH8 0xFFFFFFFFFFFFFFFF DUP2 GT ISZERO PUSH2 0x4160 JUMPI PUSH2 0x415F PUSH2 0x3546 JUMP JUMPDEST JUMPDEST PUSH2 0x416C DUP12 DUP3 DUP13 ADD PUSH2 0x4081 JUMP JUMPDEST SWAP5 POP SWAP5 POP POP PUSH1 0x80 DUP10 ADD CALLDATALOAD PUSH8 0xFFFFFFFFFFFFFFFF DUP2 GT ISZERO PUSH2 0x418F JUMPI PUSH2 0x418E PUSH2 0x3546 JUMP JUMPDEST JUMPDEST PUSH2 0x419B DUP12 DUP3 DUP13 ADD PUSH2 0x3B7A JUMP JUMPDEST SWAP3 POP SWAP3 POP POP SWAP3 SWAP6 SWAP9 POP SWAP3 SWAP6 SWAP9 SWAP1 SWAP4 SWAP7 POP JUMP JUMPDEST PUSH0 PUSH0 PUSH0 PUSH0 PUSH0 PUSH0 PUSH1 0xA0 DUP8 DUP10 SUB SLT ISZERO PUSH2 0x41C7 JUMPI PUSH2 0x41C6 PUSH2 0x3542 JUMP JUMPDEST JUMPDEST PUSH0 PUSH2 0x41D4 DUP10 DUP3 DUP11 ADD PUSH2 0x3590 JUMP JUMPDEST SWAP7 POP POP PUSH1 0x20 PUSH2 0x41E5 DUP10 DUP3 DUP11 ADD PUSH2 0x3590 JUMP JUMPDEST SWAP6 POP POP PUSH1 0x40 PUSH2 0x41F6 DUP10 DUP3 DUP11 ADD PUSH2 0x371C JUMP JUMPDEST SWAP5 POP POP PUSH1 0x60 PUSH2 0x4207 DUP10 DUP3 DUP11 ADD PUSH2 0x371C JUMP JUMPDEST SWAP4 POP POP PUSH1 0x80 DUP8 ADD CALLDATALOAD PUSH8 0xFFFFFFFFFFFFFFFF DUP2 GT ISZERO PUSH2 0x4228 JUMPI PUSH2 0x4227 PUSH2 0x3546 JUMP JUMPDEST JUMPDEST PUSH2 0x4234 DUP10 DUP3 DUP11 ADD PUSH2 0x3B7A JUMP JUMPDEST SWAP3 POP SWAP3 POP POP SWAP3 SWAP6 POP SWAP3 SWAP6 POP SWAP3 SWAP6 JUMP JUMPDEST PUSH0 PUSH12 0xFFFFFFFFFFFFFFFFFFFFFFFF DUP3 AND SWAP1 POP SWAP2 SWAP1 POP JUMP JUMPDEST PUSH2 0x4263 DUP2 PUSH2 0x4243 JUMP JUMPDEST DUP2 EQ PUSH2 0x426D JUMPI PUSH0 PUSH0 REVERT JUMPDEST POP JUMP JUMPDEST PUSH0 DUP2 CALLDATALOAD SWAP1 POP PUSH2 0x427E DUP2 PUSH2 0x425A JUMP JUMPDEST SWAP3 SWAP2 POP POP JUMP JUMPDEST PUSH0 PUSH0 PUSH0 PUSH1 0x60 DUP5 DUP7 SUB SLT ISZERO PUSH2 0x429B JUMPI PUSH2 0x429A PUSH2 0x3542 JUMP JUMPDEST JUMPDEST PUSH0 PUSH2 0x42A8 DUP7 DUP3 DUP8 ADD PUSH2 0x3971 JUMP JUMPDEST SWAP4 POP POP PUSH1 0x20 PUSH2 0x42B9 DUP7 DUP3 DUP8 ADD PUSH2 0x3590 JUMP JUMPDEST SWAP3 POP POP PUSH1 0x40 PUSH2 0x42CA DUP7 DUP3 DUP8 ADD PUSH2 0x4270 JUMP JUMPDEST SWAP2 POP POP SWAP3 POP SWAP3 POP SWAP3 JUMP JUMPDEST PUSH32 0x4E487B7100000000000000000000000000000000000000000000000000000000 PUSH0 MSTORE PUSH1 0x11 PUSH1 0x4 MSTORE PUSH1 0x24 PUSH0 REVERT JUMPDEST PUSH0 PUSH2 0x430B DUP3 PUSH2 0x36FD JUMP JUMPDEST SWAP2 POP PUSH2 0x4316 DUP4 PUSH2 0x36FD JUMP JUMPDEST SWAP3 POP DUP3 DUP3 ADD SWAP1 POP DUP1 DUP3 GT ISZERO PUSH2 0x432E JUMPI PUSH2 0x432D PUSH2 0x42D4 JUMP JUMPDEST JUMPDEST SWAP3 SWAP2 POP POP JUMP JUMPDEST PUSH32 0x4E487B7100000000000000000000000000000000000000000000000000000000 PUSH0 MSTORE PUSH1 0x32 PUSH1 0x4 MSTORE PUSH1 0x24 PUSH0 REVERT JUMPDEST PUSH2 0x436A DUP2 PUSH2 0x365F JUMP JUMPDEST DUP3 MSTORE POP POP JUMP JUMPDEST PUSH2 0x4379 DUP2 PUSH2 0x3695 JUMP JUMPDEST DUP3 MSTORE POP POP JUMP JUMPDEST PUSH0 DUP2 MLOAD SWAP1 POP SWAP2 SWAP1 POP JUMP JUMPDEST PUSH0 DUP3 DUP3 MSTORE PUSH1 0x20 DUP3 ADD SWAP1 POP SWAP3 SWAP2 POP POP JUMP JUMPDEST PUSH0 DUP2 SWAP1 POP PUSH1 0x20 DUP3 ADD SWAP1 POP SWAP2 SWAP1 POP JUMP JUMPDEST PUSH2 0x43B1 DUP2 PUSH2 0x3569 JUMP JUMPDEST DUP3 MSTORE POP POP JUMP JUMPDEST PUSH2 0x43C0 DUP2 PUSH2 0x36FD JUMP JUMPDEST DUP3 MSTORE POP POP JUMP JUMPDEST PUSH0 DUP2 MLOAD SWAP1 POP SWAP2 SWAP1 POP JUMP JUMPDEST PUSH0 DUP3 DUP3 MSTORE PUSH1 0x20 DUP3 ADD SWAP1 POP SWAP3 SWAP2 POP POP JUMP JUMPDEST DUP3 DUP2 DUP4 MCOPY PUSH0 DUP4 DUP4 ADD MSTORE POP POP POP JUMP JUMPDEST PUSH0 PUSH2 0x43F8 DUP3 PUSH2 0x43C6 JUMP JUMPDEST PUSH2 0x4402 DUP2 DUP6 PUSH2 0x43D0 JUMP JUMPDEST SWAP4 POP PUSH2 0x4412 DUP2 DUP6 PUSH1 0x20 DUP7 ADD PUSH2 0x43E0 JUMP JUMPDEST PUSH2 0x441B DUP2 PUSH2 0x35D3 JUMP JUMPDEST DUP5 ADD SWAP2 POP POP SWAP3 SWAP2 POP POP JUMP JUMPDEST PUSH0 PUSH1 0xE0 DUP4 ADD PUSH0 DUP4 ADD MLOAD PUSH2 0x443B PUSH0 DUP7 ADD DUP3 PUSH2 0x43A8 JUMP JUMPDEST POP PUSH1 0x20 DUP4 ADD MLOAD PUSH2 0x444E PUSH1 0x20 DUP7 ADD DUP3 PUSH2 0x43B7 JUMP JUMPDEST POP PUSH1 0x40 DUP4 ADD MLOAD DUP5 DUP3 SUB PUSH1 0x40 DUP7 ADD MSTORE PUSH2 0x4466 DUP3 DUP3 PUSH2 0x43EE JUMP JUMPDEST SWAP2 POP POP PUSH1 0x60 DUP4 ADD MLOAD PUSH2 0x447B PUSH1 0x60 DUP7 ADD DUP3 PUSH2 0x43B7 JUMP JUMPDEST POP PUSH1 0x80 DUP4 ADD MLOAD PUSH2 0x448E PUSH1 0x80 DUP7 ADD DUP3 PUSH2 0x4370 JUMP JUMPDEST POP PUSH1 0xA0 DUP4 ADD MLOAD PUSH2 0x44A1 PUSH1 0xA0 DUP7 ADD DUP3 PUSH2 0x4370 JUMP JUMPDEST POP PUSH1 0xC0 DUP4 ADD MLOAD PUSH2 0x44B4 PUSH1 0xC0 DUP7 ADD DUP3 PUSH2 0x43B7 JUMP JUMPDEST POP DUP1 SWAP2 POP POP SWAP3 SWAP2 POP POP JUMP JUMPDEST PUSH0 PUSH2 0x44CA DUP4 DUP4 PUSH2 0x4426 JUMP JUMPDEST SWAP1 POP SWAP3 SWAP2 POP POP JUMP JUMPDEST PUSH0 PUSH1 0x20 DUP3 ADD SWAP1 POP SWAP2 SWAP1 POP JUMP JUMPDEST PUSH0 PUSH2 0x44E8 DUP3 PUSH2 0x437F JUMP JUMPDEST PUSH2 0x44F2 DUP2 DUP6 PUSH2 0x4389 JUMP JUMPDEST SWAP4 POP DUP4 PUSH1 0x20 DUP3 MUL DUP6 ADD PUSH2 0x4504 DUP6 PUSH2 0x4399 JUMP JUMPDEST DUP1 PUSH0 JUMPDEST DUP6 DUP2 LT ISZERO PUSH2 0x453F JUMPI DUP5 DUP5 SUB DUP10 MSTORE DUP2 MLOAD PUSH2 0x4520 DUP6 DUP3 PUSH2 0x44BF JUMP JUMPDEST SWAP5 POP PUSH2 0x452B DUP4 PUSH2 0x44D2 JUMP JUMPDEST SWAP3 POP PUSH1 0x20 DUP11 ADD SWAP10 POP POP PUSH1 0x1 DUP2 ADD SWAP1 POP PUSH2 0x4507 JUMP JUMPDEST POP DUP3 SWAP8 POP DUP8 SWAP6 POP POP POP POP POP POP SWAP3 SWAP2 POP POP JUMP JUMPDEST PUSH2 0x455A DUP2 PUSH2 0x3952 JUMP JUMPDEST DUP3 MSTORE POP POP JUMP JUMPDEST PUSH0 DUP2 MLOAD SWAP1 POP SWAP2 SWAP1 POP JUMP JUMPDEST PUSH0 DUP3 DUP3 MSTORE PUSH1 0x20 DUP3 ADD SWAP1 POP SWAP3 SWAP2 POP POP JUMP JUMPDEST PUSH0 DUP2 SWAP1 POP PUSH1 0x20 DUP3 ADD SWAP1 POP SWAP2 SWAP1 POP JUMP JUMPDEST PUSH0 PUSH2 0x4594 DUP4 DUP4 PUSH2 0x43A8 JUMP JUMPDEST PUSH1 0x20 DUP4 ADD SWAP1 POP SWAP3 SWAP2 POP POP JUMP JUMPDEST PUSH0 PUSH1 0x20 DUP3 ADD SWAP1 POP SWAP2 SWAP1 POP JUMP JUMPDEST PUSH0 PUSH2 0x45B6 DUP3 PUSH2 0x4560 JUMP JUMPDEST PUSH2 0x45C0 DUP2 DUP6 PUSH2 0x456A JUMP JUMPDEST SWAP4 POP PUSH2 0x45CB DUP4 PUSH2 0x457A JUMP JUMPDEST DUP1 PUSH0 JUMPDEST DUP4 DUP2 LT ISZERO PUSH2 0x45FB JUMPI DUP2 MLOAD PUSH2 0x45E2 DUP9 DUP3 PUSH2 0x4589 JUMP JUMPDEST SWAP8 POP PUSH2 0x45ED DUP4 PUSH2 0x45A0 JUMP JUMPDEST SWAP3 POP POP PUSH1 0x1 DUP2 ADD SWAP1 POP PUSH2 0x45CE JUMP JUMPDEST POP DUP6 SWAP4 POP POP POP POP SWAP3 SWAP2 POP POP JUMP JUMPDEST PUSH0 PUSH2 0x120 DUP4 ADD PUSH0 DUP4 ADD MLOAD PUSH2 0x461E PUSH0 DUP7 ADD DUP3 PUSH2 0x4361 JUMP JUMPDEST POP PUSH1 0x20 DUP4 ADD MLOAD PUSH2 0x4631 PUSH1 0x20 DUP7 ADD DUP3 PUSH2 0x4370 JUMP JUMPDEST POP PUSH1 0x40 DUP4 ADD MLOAD DUP5 DUP3 SUB PUSH1 0x40 DUP7 ADD MSTORE PUSH2 0x4649 DUP3 DUP3 PUSH2 0x44DE JUMP JUMPDEST SWAP2 POP POP PUSH1 0x60 DUP4 ADD MLOAD PUSH2 0x465E PUSH1 0x60 DUP7 ADD DUP3 PUSH2 0x43B7 JUMP JUMPDEST POP PUSH1 0x80 DUP4 ADD MLOAD PUSH2 0x4671 PUSH1 0x80 DUP7 ADD DUP3 PUSH2 0x43B7 JUMP JUMPDEST POP PUSH1 0xA0 DUP4 ADD MLOAD DUP5 DUP3 SUB PUSH1 0xA0 DUP7 ADD MSTORE PUSH2 0x4689 DUP3 DUP3 PUSH2 0x43EE JUMP JUMPDEST SWAP2 POP POP PUSH1 0xC0 DUP4 ADD MLOAD PUSH2 0x469E PUSH1 0xC0 DUP7 ADD DUP3 PUSH2 0x4551 JUMP JUMPDEST POP PUSH1 0xE0 DUP4 ADD MLOAD PUSH2 0x46B1 PUSH1 0xE0 DUP7 ADD DUP3 PUSH2 0x4551 JUMP JUMPDEST POP PUSH2 0x100 DUP4 ADD MLOAD DUP5 DUP3 SUB PUSH2 0x100 DUP7 ADD MSTORE PUSH2 0x46CB DUP3 DUP3 PUSH2 0x45AC JUMP JUMPDEST SWAP2 POP POP DUP1 SWAP2 POP POP SWAP3 SWAP2 POP POP JUMP JUMPDEST PUSH0 DUP3 DUP3 MSTORE PUSH1 0x20 DUP3 ADD SWAP1 POP SWAP3 SWAP2 POP POP JUMP JUMPDEST PUSH0 PUSH2 0x46F3 DUP4 DUP6 PUSH2 0x46D8 JUMP JUMPDEST SWAP4 POP PUSH2 0x4700 DUP4 DUP6 DUP5 PUSH2 0x34EF JUMP JUMPDEST PUSH2 0x4709 DUP4 PUSH2 0x35D3 JUMP JUMPDEST DUP5 ADD SWAP1 POP SWAP4 SWAP3 POP POP POP JUMP JUMPDEST PUSH0 PUSH1 0x40 DUP3 ADD SWAP1 POP DUP2 DUP2 SUB PUSH0 DUP4 ADD MSTORE PUSH2 0x472C DUP2 DUP7 PUSH2 0x4608 JUMP JUMPDEST SWAP1 POP DUP2 DUP2 SUB PUSH1 0x20 DUP4 ADD MSTORE PUSH2 0x4741 DUP2 DUP5 DUP7 PUSH2 0x46E8 JUMP JUMPDEST SWAP1 POP SWAP5 SWAP4 POP POP POP POP JUMP JUMPDEST PUSH2 0x4754 DUP2 PUSH2 0x4243 JUMP JUMPDEST DUP3 MSTORE POP POP JUMP JUMPDEST PUSH0 PUSH1 0x60 DUP3 ADD SWAP1 POP PUSH2 0x476D PUSH0 DUP4 ADD DUP7 PUSH2 0x3C48 JUMP JUMPDEST PUSH2 0x477A PUSH1 0x20 DUP4 ADD DUP6 PUSH2 0x3DCE JUMP JUMPDEST PUSH2 0x4787 PUSH1 0x40 DUP4 ADD DUP5 PUSH2 0x474B JUMP JUMPDEST SWAP5 SWAP4 POP POP POP POP JUMP JUMPDEST PUSH0 PUSH1 0x40 DUP3 ADD SWAP1 POP PUSH2 0x47A2 PUSH0 DUP4 ADD DUP6 PUSH2 0x3C48 JUMP JUMPDEST PUSH2 0x47AF PUSH1 0x20 DUP4 ADD DUP5 PUSH2 0x3C48 JUMP JUMPDEST SWAP4 SWAP3 POP POP POP JUMP JUMPDEST PUSH0 PUSH1 0x40 DUP3 ADD SWAP1 POP PUSH2 0x47C9 PUSH0 DUP4 ADD DUP6 PUSH2 0x3C48 JUMP JUMPDEST PUSH2 0x47D6 PUSH1 0x20 DUP4 ADD DUP5 PUSH2 0x3F86 JUMP JUMPDEST SWAP4 SWAP3 POP POP POP JUMP JUMPDEST PUSH0 PUSH1 0x60 DUP3 ADD SWAP1 POP PUSH2 0x47F0 PUSH0 DUP4 ADD DUP7 PUSH2 0x3C48 JUMP JUMPDEST PUSH2 0x47FD PUSH1 0x20 DUP4 ADD DUP6 PUSH2 0x3DCE JUMP JUMPDEST PUSH2 0x480A PUSH1 0x40 DUP4 ADD DUP5 PUSH2 0x3DCE JUMP JUMPDEST SWAP5 SWAP4 POP POP POP POP JUMP JUMPDEST PUSH0 PUSH1 0x40 DUP3 ADD SWAP1 POP PUSH2 0x4825 PUSH0 DUP4 ADD DUP6 PUSH2 0x3F86 JUMP JUMPDEST PUSH2 0x4832 PUSH1 0x20 DUP4 ADD DUP5 PUSH2 0x3F86 JUMP JUMPDEST SWAP4 SWAP3 POP POP POP JUMP JUMPDEST PUSH0 PUSH0 REVERT JUMPDEST PUSH0 PUSH0 REVERT JUMPDEST PUSH0 PUSH0 DUP6 DUP6 GT ISZERO PUSH2 0x4854 JUMPI PUSH2 0x4853 PUSH2 0x4839 JUMP JUMPDEST JUMPDEST DUP4 DUP7 GT ISZERO PUSH2 0x4865 JUMPI PUSH2 0x4864 PUSH2 0x483D JUMP JUMPDEST JUMPDEST PUSH1 0x1 DUP6 MUL DUP4 ADD SWAP2 POP DUP5 DUP7 SUB SWAP1 POP SWAP5 POP SWAP5 SWAP3 POP POP POP JUMP JUMPDEST PUSH0 PUSH1 0x60 DUP3 ADD SWAP1 POP PUSH2 0x488E PUSH0 DUP4 ADD DUP7 PUSH2 0x3F86 JUMP JUMPDEST PUSH2 0x489B PUSH1 0x20 DUP4 ADD DUP6 PUSH2 0x3F86 JUMP JUMPDEST PUSH2 0x48A8 PUSH1 0x40 DUP4 ADD DUP5 PUSH2 0x3F86 JUMP JUMPDEST SWAP5 SWAP4 POP POP POP POP JUMP JUMPDEST PUSH0 PUSH1 0x60 DUP3 ADD SWAP1 POP DUP2 DUP2 SUB PUSH0 DUP4 ADD MSTORE PUSH2 0x48C8 DUP2 DUP7 PUSH2 0x4608 JUMP JUMPDEST SWAP1 POP PUSH2 0x48D7 PUSH1 0x20 DUP4 ADD DUP6 PUSH2 0x3F86 JUMP JUMPDEST PUSH2 0x48E4 PUSH1 0x40 DUP4 ADD DUP5 PUSH2 0x3F86 JUMP JUMPDEST SWAP5 SWAP4 POP POP POP POP JUMP JUMPDEST PUSH0 PUSH2 0x48F6 DUP3 PUSH2 0x43C6 JUMP JUMPDEST PUSH2 0x4900 DUP2 DUP6 PUSH2 0x46D8 JUMP JUMPDEST SWAP4 POP PUSH2 0x4910 DUP2 DUP6 PUSH1 0x20 DUP7 ADD PUSH2 0x43E0 JUMP JUMPDEST PUSH2 0x4919 DUP2 PUSH2 0x35D3 JUMP JUMPDEST DUP5 ADD SWAP2 POP POP SWAP3 SWAP2 POP POP JUMP JUMPDEST PUSH0 PUSH1 0xC0 DUP3 ADD SWAP1 POP PUSH2 0x4937 PUSH0 DUP4 ADD DUP10 PUSH2 0x3C48 JUMP JUMPDEST PUSH2 0x4944 PUSH1 0x20 DUP4 ADD DUP9 PUSH2 0x3F86 JUMP JUMPDEST PUSH2 0x4951 PUSH1 0x40 DUP4 ADD DUP8 PUSH2 0x3F86 JUMP JUMPDEST PUSH2 0x495E PUSH1 0x60 DUP4 ADD DUP7 PUSH2 0x3F86 JUMP JUMPDEST PUSH2 0x496B PUSH1 0x80 DUP4 ADD DUP6 PUSH2 0x3F86 JUMP JUMPDEST DUP2 DUP2 SUB PUSH1 0xA0 DUP4 ADD MSTORE PUSH2 0x497D DUP2 DUP5 PUSH2 0x48EC JUMP JUMPDEST SWAP1 POP SWAP8 SWAP7 POP POP POP POP POP POP POP JUMP JUMPDEST PUSH0 PUSH1 0x60 DUP3 ADD SWAP1 POP PUSH2 0x499D PUSH0 DUP4 ADD DUP7 PUSH2 0x3C48 JUMP JUMPDEST PUSH2 0x49AA PUSH1 0x20 DUP4 ADD DUP6 PUSH2 0x3F86 JUMP JUMPDEST DUP2 DUP2 SUB PUSH1 0x40 DUP4 ADD MSTORE PUSH2 0x49BC DUP2 DUP5 PUSH2 0x48EC JUMP JUMPDEST SWAP1 POP SWAP5 SWAP4 POP POP POP POP JUMP JUMPDEST PUSH0 PUSH1 0x60 DUP3 ADD SWAP1 POP DUP2 DUP2 SUB PUSH0 DUP4 ADD MSTORE PUSH2 0x49DE DUP2 DUP7 PUSH2 0x4608 JUMP JUMPDEST SWAP1 POP PUSH2 0x49ED PUSH1 0x20 DUP4 ADD DUP6 PUSH2 0x3F86 JUMP JUMPDEST DUP2 DUP2 SUB PUSH1 0x40 DUP4 ADD MSTORE PUSH2 0x49FF DUP2 DUP5 PUSH2 0x48EC JUMP JUMPDEST SWAP1 POP SWAP5 SWAP4 POP POP POP POP JUMP JUMPDEST PUSH0 PUSH1 0x40 DUP3 ADD SWAP1 POP PUSH2 0x4A1C PUSH0 DUP4 ADD DUP6 PUSH2 0x3CF4 JUMP JUMPDEST PUSH2 0x4A29 PUSH1 0x20 DUP4 ADD DUP5 PUSH2 0x3DCE JUMP JUMPDEST SWAP4 SWAP3 POP POP POP JUMP JUMPDEST PUSH0 DUP2 SWAP1 POP SWAP3 SWAP2 POP POP JUMP JUMPDEST PUSH32 0x1901000000000000000000000000000000000000000000000000000000000000 PUSH0 DUP3 ADD MSTORE POP JUMP JUMPDEST PUSH0 PUSH2 0x4A6E PUSH1 0x2 DUP4 PUSH2 0x4A30 JUMP JUMPDEST SWAP2 POP PUSH2 0x4A79 DUP3 PUSH2 0x4A3A JUMP JUMPDEST PUSH1 0x2 DUP3 ADD SWAP1 POP SWAP2 SWAP1 POP JUMP JUMPDEST PUSH0 DUP2 SWAP1 POP SWAP2 SWAP1 POP JUMP JUMPDEST PUSH2 0x4A9E PUSH2 0x4A99 DUP3 PUSH2 0x3952 JUMP JUMPDEST PUSH2 0x4A84 JUMP JUMPDEST DUP3 MSTORE POP POP JUMP JUMPDEST PUSH0 PUSH2 0x4AAE DUP3 PUSH2 0x4A62 JUMP JUMPDEST SWAP2 POP PUSH2 0x4ABA DUP3 DUP6 PUSH2 0x4A8D JUMP JUMPDEST PUSH1 0x20 DUP3 ADD SWAP2 POP PUSH2 0x4ACA DUP3 DUP5 PUSH2 0x4A8D JUMP JUMPDEST PUSH1 0x20 DUP3 ADD SWAP2 POP DUP2 SWAP1 POP SWAP4 SWAP3 POP POP POP JUMP JUMPDEST PUSH0 PUSH1 0x40 DUP3 ADD SWAP1 POP PUSH2 0x4AED PUSH0 DUP4 ADD DUP6 PUSH2 0x3DCE JUMP JUMPDEST DUP2 DUP2 SUB PUSH1 0x20 DUP4 ADD MSTORE PUSH2 0x4AFF DUP2 DUP5 PUSH2 0x48EC JUMP JUMPDEST SWAP1 POP SWAP4 SWAP3 POP POP POP JUMP JUMPDEST PUSH0 DUP2 MLOAD SWAP1 POP PUSH2 0x4B16 DUP2 PUSH2 0x395B JUMP JUMPDEST SWAP3 SWAP2 POP POP JUMP JUMPDEST PUSH0 DUP2 MLOAD SWAP1 POP PUSH2 0x4B2A DUP2 PUSH2 0x3706 JUMP JUMPDEST SWAP3 SWAP2 POP POP JUMP JUMPDEST PUSH0 PUSH1 0x40 DUP3 DUP5 SUB SLT ISZERO PUSH2 0x4B45 JUMPI PUSH2 0x4B44 PUSH2 0x35CF JUMP JUMPDEST JUMPDEST PUSH2 0x4B4F PUSH1 0x40 PUSH2 0x3641 JUMP JUMPDEST SWAP1 POP PUSH0 PUSH2 0x4B5E DUP5 DUP3 DUP6 ADD PUSH2 0x4B08 JUMP JUMPDEST PUSH0 DUP4 ADD MSTORE POP PUSH1 0x20 PUSH2 0x4B71 DUP5 DUP3 DUP6 ADD PUSH2 0x4B1C JUMP JUMPDEST PUSH1 0x20 DUP4 ADD MSTORE POP SWAP3 SWAP2 POP POP JUMP JUMPDEST PUSH0 PUSH1 0x40 DUP3 DUP5 SUB SLT ISZERO PUSH2 0x4B92 JUMPI PUSH2 0x4B91 PUSH2 0x3542 JUMP JUMPDEST JUMPDEST PUSH0 PUSH2 0x4B9F DUP5 DUP3 DUP6 ADD PUSH2 0x4B30 JUMP JUMPDEST SWAP2 POP POP SWAP3 SWAP2 POP POP JUMP JUMPDEST PUSH1 0x40 DUP3 ADD PUSH0 DUP3 ADD MLOAD PUSH2 0x4BBC PUSH0 DUP6 ADD DUP3 PUSH2 0x4551 JUMP JUMPDEST POP PUSH1 0x20 DUP3 ADD MLOAD PUSH2 0x4BCF PUSH1 0x20 DUP6 ADD DUP3 PUSH2 0x43B7 JUMP JUMPDEST POP POP POP POP JUMP JUMPDEST PUSH0 PUSH1 0x40 DUP3 ADD SWAP1 POP PUSH2 0x4BE8 PUSH0 DUP4 ADD DUP5 PUSH2 0x4BA8 JUMP JUMPDEST SWAP3 SWAP2 POP POP JUMP JUMPDEST PUSH0 PUSH1 0xA0 DUP3 ADD SWAP1 POP PUSH2 0x4C01 PUSH0 DUP4 ADD DUP9 PUSH2 0x3C48 JUMP JUMPDEST PUSH2 0x4C0E PUSH1 0x20 DUP4 ADD DUP8 PUSH2 0x3C48 JUMP JUMPDEST PUSH2 0x4C1B PUSH1 0x40 DUP4 ADD DUP7 PUSH2 0x3C48 JUMP JUMPDEST PUSH2 0x4C28 PUSH1 0x60 DUP4 ADD DUP6 PUSH2 0x3F86 JUMP JUMPDEST PUSH2 0x4C35 PUSH1 0x80 DUP4 ADD DUP5 PUSH2 0x3DCE JUMP JUMPDEST SWAP7 SWAP6 POP POP POP POP POP POP JUMP JUMPDEST PUSH0 DUP2 SWAP1 POP SWAP3 SWAP2 POP POP JUMP JUMPDEST PUSH2 0x4C52 DUP2 PUSH2 0x3569 JUMP JUMPDEST DUP3 MSTORE POP POP JUMP JUMPDEST PUSH0 PUSH2 0x4C63 DUP4 DUP4 PUSH2 0x4C49 JUMP JUMPDEST PUSH1 0x20 DUP4 ADD SWAP1 POP SWAP3 SWAP2 POP POP JUMP JUMPDEST PUSH0 PUSH2 0x4C79 DUP3 PUSH2 0x4560 JUMP JUMPDEST PUSH2 0x4C83 DUP2 DUP6 PUSH2 0x4C3F JUMP JUMPDEST SWAP4 POP PUSH2 0x4C8E DUP4 PUSH2 0x457A JUMP JUMPDEST DUP1 PUSH0 JUMPDEST DUP4 DUP2 LT ISZERO PUSH2 0x4CBE JUMPI DUP2 MLOAD PUSH2 0x4CA5 DUP9 DUP3 PUSH2 0x4C58 JUMP JUMPDEST SWAP8 POP PUSH2 0x4CB0 DUP4 PUSH2 0x45A0 JUMP JUMPDEST SWAP3 POP POP PUSH1 0x1 DUP2 ADD SWAP1 POP PUSH2 0x4C91 JUMP JUMPDEST POP DUP6 SWAP4 POP POP POP POP SWAP3 SWAP2 POP POP JUMP JUMPDEST PUSH0 PUSH2 0x4CD6 DUP3 DUP5 PUSH2 0x4C6F JUMP JUMPDEST SWAP2 POP DUP2 SWAP1 POP SWAP3 SWAP2 POP POP JUMP JUMPDEST PUSH0 PUSH1 0xA0 DUP3 ADD SWAP1 POP PUSH2 0x4CF4 PUSH0 DUP4 ADD DUP9 PUSH2 0x3C48 JUMP JUMPDEST PUSH2 0x4D01 PUSH1 0x20 DUP4 ADD DUP8 PUSH2 0x3C48 JUMP JUMPDEST PUSH2 0x4D0E PUSH1 0x40 DUP4 ADD DUP7 PUSH2 0x3F86 JUMP JUMPDEST PUSH2 0x4D1B PUSH1 0x60 DUP4 ADD DUP6 PUSH2 0x3F86 JUMP JUMPDEST PUSH2 0x4D28 PUSH1 0x80 DUP4 ADD DUP5 PUSH2 0x3C48 JUMP JUMPDEST SWAP7 SWAP6 POP POP POP POP POP POP JUMP JUMPDEST PUSH0 PUSH1 0x60 DUP3 ADD SWAP1 POP PUSH2 0x4D45 PUSH0 DUP4 ADD DUP7 PUSH2 0x3C48 JUMP JUMPDEST PUSH2 0x4D52 PUSH1 0x20 DUP4 ADD DUP6 PUSH2 0x3C48 JUMP JUMPDEST PUSH2 0x4D5F PUSH1 0x40 DUP4 ADD DUP5 PUSH2 0x3C48 JUMP JUMPDEST SWAP5 SWAP4 POP POP POP POP JUMP JUMPDEST PUSH2 0x4D70 DUP2 PUSH2 0x365F JUMP JUMPDEST DUP3 MSTORE POP POP JUMP JUMPDEST PUSH0 PUSH1 0x20 DUP3 ADD SWAP1 POP PUSH2 0x4D89 PUSH0 DUP4 ADD DUP5 PUSH2 0x4D67 JUMP JUMPDEST SWAP3 SWAP2 POP POP JUMP JUMPDEST PUSH0 PUSH1 0x60 DUP3 ADD SWAP1 POP DUP2 DUP2 SUB PUSH0 DUP4 ADD MSTORE PUSH2 0x4DA8 DUP2 DUP7 DUP9 PUSH2 0x46E8 JUMP JUMPDEST SWAP1 POP PUSH2 0x4DB7 PUSH1 0x20 DUP4 ADD DUP6 PUSH2 0x3F86 JUMP JUMPDEST PUSH2 0x4DC4 PUSH1 0x40 DUP4 ADD DUP5 PUSH2 0x3F86 JUMP JUMPDEST SWAP6 SWAP5 POP POP POP POP POP JUMP JUMPDEST PUSH0 PUSH1 0x80 DUP3 ADD SWAP1 POP PUSH2 0x4DE0 PUSH0 DUP4 ADD DUP8 PUSH2 0x3C48 JUMP JUMPDEST PUSH2 0x4DED PUSH1 0x20 DUP4 ADD DUP7 PUSH2 0x4D67 JUMP JUMPDEST PUSH2 0x4DFA PUSH1 0x40 DUP4 ADD DUP6 PUSH2 0x3C48 JUMP JUMPDEST PUSH2 0x4E07 PUSH1 0x60 DUP4 ADD DUP5 PUSH2 0x3C48 JUMP JUMPDEST SWAP6 SWAP5 POP POP POP POP POP JUMP JUMPDEST PUSH0 PUSH1 0x40 DUP3 ADD SWAP1 POP PUSH2 0x4E23 PUSH0 DUP4 ADD DUP7 PUSH2 0x3C48 JUMP JUMPDEST DUP2 DUP2 SUB PUSH1 0x20 DUP4 ADD MSTORE PUSH2 0x4E36 DUP2 DUP5 DUP7 PUSH2 0x46E8 JUMP JUMPDEST SWAP1 POP SWAP5 SWAP4 POP POP POP POP JUMP JUMPDEST PUSH0 DUP2 MLOAD SWAP1 POP PUSH2 0x4E4E DUP2 PUSH2 0x3D79 JUMP JUMPDEST SWAP3 SWAP2 POP POP JUMP JUMPDEST PUSH0 PUSH1 0x20 DUP3 DUP5 SUB SLT ISZERO PUSH2 0x4E69 JUMPI PUSH2 0x4E68 PUSH2 0x3542 JUMP JUMPDEST JUMPDEST PUSH0 PUSH2 0x4E76 DUP5 DUP3 DUP6 ADD PUSH2 0x4E40 JUMP JUMPDEST SWAP2 POP POP SWAP3 SWAP2 POP POP JUMP JUMPDEST PUSH0 PUSH1 0x60 DUP3 ADD SWAP1 POP PUSH2 0x4E92 PUSH0 DUP4 ADD DUP8 PUSH2 0x3C48 JUMP JUMPDEST PUSH2 0x4E9F PUSH1 0x20 DUP4 ADD DUP7 PUSH2 0x3DCE JUMP JUMPDEST DUP2 DUP2 SUB PUSH1 0x40 DUP4 ADD MSTORE PUSH2 0x4EB2 DUP2 DUP5 DUP7 PUSH2 0x46E8 JUMP JUMPDEST SWAP1 POP SWAP6 SWAP5 POP POP POP POP POP JUMP JUMPDEST PUSH32 0x19457468657265756D205369676E6564204D6573736167653A0A333200000000 PUSH0 DUP3 ADD MSTORE POP JUMP JUMPDEST PUSH0 PUSH2 0x4EF1 PUSH1 0x1C DUP4 PUSH2 0x4A30 JUMP JUMPDEST SWAP2 POP PUSH2 0x4EFC DUP3 PUSH2 0x4EBD JUMP JUMPDEST PUSH1 0x1C DUP3 ADD SWAP1 POP SWAP2 SWAP1 POP JUMP JUMPDEST PUSH0 PUSH2 0x4F11 DUP3 PUSH2 0x4EE5 JUMP JUMPDEST SWAP2 POP PUSH2 0x4F1D DUP3 DUP5 PUSH2 0x4A8D JUMP JUMPDEST PUSH1 0x20 DUP3 ADD SWAP2 POP DUP2 SWAP1 POP SWAP3 SWAP2 POP POP JUMP JUMPDEST PUSH0 PUSH1 0x40 DUP3 ADD SWAP1 POP DUP2 DUP2 SUB PUSH0 DUP4 ADD MSTORE PUSH2 0x4F44 DUP2 DUP7 PUSH2 0x4608 JUMP JUMPDEST SWAP1 POP DUP2 DUP2 SUB PUSH1 0x20 DUP4 ADD MSTORE PUSH2 0x4F59 DUP2 DUP5 DUP7 PUSH2 0x46E8 JUMP JUMPDEST SWAP1 POP SWAP5 SWAP4 POP POP POP POP JUMP JUMPDEST PUSH0 PUSH1 0x20 DUP3 DUP5 SUB SLT ISZERO PUSH2 0x4F78 JUMPI PUSH2 0x4F77 PUSH2 0x3542 JUMP JUMPDEST JUMPDEST PUSH0 PUSH2 0x4F85 DUP5 DUP3 DUP6 ADD PUSH2 0x4B08 JUMP JUMPDEST SWAP2 POP POP SWAP3 SWAP2 POP POP JUMP JUMPDEST PUSH0 PUSH2 0x4F98 DUP3 PUSH2 0x43C6 JUMP JUMPDEST PUSH2 0x4FA2 DUP2 DUP6 PUSH2 0x34E5 JUMP JUMPDEST SWAP4 POP PUSH2 0x4FB2 DUP2 DUP6 PUSH1 0x20 DUP7 ADD PUSH2 0x43E0 JUMP JUMPDEST DUP1 DUP5 ADD SWAP2 POP POP SWAP3 SWAP2 POP POP JUMP JUMPDEST PUSH0 PUSH2 0x4FC9 DUP3 DUP6 PUSH2 0x4F8E JUMP JUMPDEST SWAP2 POP PUSH2 0x4FD5 DUP3 DUP5 PUSH2 0x4A8D JUMP JUMPDEST PUSH1 0x20 DUP3 ADD SWAP2 POP DUP2 SWAP1 POP SWAP4 SWAP3 POP POP POP JUMP JUMPDEST PUSH32 0x53657175656E6365207369676E65723A0A000000000000000000000000000000 PUSH0 DUP3 ADD MSTORE POP JUMP JUMPDEST PUSH0 PUSH2 0x5019 PUSH1 0x11 DUP4 PUSH2 0x4A30 JUMP JUMPDEST SWAP2 POP PUSH2 0x5024 DUP3 PUSH2 0x4FE5 JUMP JUMPDEST PUSH1 0x11 DUP3 ADD SWAP1 POP SWAP2 SWAP1 POP JUMP JUMPDEST PUSH0 DUP2 PUSH1 0x60 SHL SWAP1 POP SWAP2 SWAP1 POP JUMP JUMPDEST PUSH0 PUSH2 0x5045 DUP3 PUSH2 0x502F JUMP JUMPDEST SWAP1 POP SWAP2 SWAP1 POP JUMP JUMPDEST PUSH0 PUSH2 0x5056 DUP3 PUSH2 0x503B JUMP JUMPDEST SWAP1 POP SWAP2 SWAP1 POP JUMP JUMPDEST PUSH2 0x506E PUSH2 0x5069 DUP3 PUSH2 0x3569 JUMP JUMPDEST PUSH2 0x504C JUMP JUMPDEST DUP3 MSTORE POP POP JUMP JUMPDEST PUSH0 DUP2 SWAP1 POP SWAP2 SWAP1 POP JUMP JUMPDEST PUSH2 0x508E PUSH2 0x5089 DUP3 PUSH2 0x36FD JUMP JUMPDEST PUSH2 0x5074 JUMP JUMPDEST DUP3 MSTORE POP POP JUMP JUMPDEST PUSH0 PUSH2 0x509E DUP3 PUSH2 0x500D JUMP JUMPDEST SWAP2 POP PUSH2 0x50AA DUP3 DUP6 PUSH2 0x505D JUMP JUMPDEST PUSH1 0x14 DUP3 ADD SWAP2 POP PUSH2 0x50BA DUP3 DUP5 PUSH2 0x507D JUMP JUMPDEST PUSH1 0x20 DUP3 ADD SWAP2 POP DUP2 SWAP1 POP SWAP4 SWAP3 POP POP POP JUMP JUMPDEST PUSH32 0x53657175656E6365206E657374656420636F6E6669673A0A0000000000000000 PUSH0 DUP3 ADD MSTORE POP JUMP JUMPDEST PUSH0 PUSH2 0x50FE PUSH1 0x18 DUP4 PUSH2 0x4A30 JUMP JUMPDEST SWAP2 POP PUSH2 0x5109 DUP3 PUSH2 0x50CA JUMP JUMPDEST PUSH1 0x18 DUP3 ADD SWAP1 POP SWAP2 SWAP1 POP JUMP JUMPDEST PUSH0 PUSH2 0x511E DUP3 PUSH2 0x50F2 JUMP JUMPDEST SWAP2 POP PUSH2 0x512A DUP3 DUP7 PUSH2 0x4A8D JUMP JUMPDEST PUSH1 0x20 DUP3 ADD SWAP2 POP PUSH2 0x513A DUP3 DUP6 PUSH2 0x507D JUMP JUMPDEST PUSH1 0x20 DUP3 ADD SWAP2 POP PUSH2 0x514A DUP3 DUP5 PUSH2 0x507D JUMP JUMPDEST PUSH1 0x20 DUP3 ADD SWAP2 POP DUP2 SWAP1 POP SWAP5 SWAP4 POP POP POP POP JUMP JUMPDEST PUSH32 0x53657175656E636520737461746963206469676573743A0A0000000000000000 PUSH0 DUP3 ADD MSTORE POP JUMP JUMPDEST PUSH0 PUSH2 0x518F PUSH1 0x18 DUP4 PUSH2 0x4A30 JUMP JUMPDEST SWAP2 POP PUSH2 0x519A DUP3 PUSH2 0x515B JUMP JUMPDEST PUSH1 0x18 DUP3 ADD SWAP1 POP SWAP2 SWAP1 POP JUMP JUMPDEST PUSH0 PUSH2 0x51AF DUP3 PUSH2 0x5183 JUMP JUMPDEST SWAP2 POP PUSH2 0x51BB DUP3 DUP5 PUSH2 0x4A8D JUMP JUMPDEST PUSH1 0x20 DUP3 ADD SWAP2 POP DUP2 SWAP1 POP SWAP3 SWAP2 POP POP JUMP JUMPDEST PUSH32 0x53657175656E636520616E792061646472657373207375626469676573743A0A PUSH0 DUP3 ADD MSTORE POP JUMP JUMPDEST PUSH0 PUSH2 0x51FE PUSH1 0x20 DUP4 PUSH2 0x4A30 JUMP JUMPDEST SWAP2 POP PUSH2 0x5209 DUP3 PUSH2 0x51CA JUMP JUMPDEST PUSH1 0x20 DUP3 ADD SWAP1 POP SWAP2 SWAP1 POP JUMP JUMPDEST PUSH0 PUSH2 0x521E DUP3 PUSH2 0x51F2 JUMP JUMPDEST SWAP2 POP PUSH2 0x522A DUP3 DUP5 PUSH2 0x4A8D JUMP JUMPDEST PUSH1 0x20 DUP3 ADD SWAP2 POP DUP2 SWAP1 POP SWAP3 SWAP2 POP POP JUMP JUMPDEST PUSH32 0x53657175656E63652073617069656E7420636F6E6669673A0A00000000000000 PUSH0 DUP3 ADD MSTORE POP JUMP JUMPDEST PUSH0 PUSH2 0x526D PUSH1 0x19 DUP4 PUSH2 0x4A30 JUMP JUMPDEST SWAP2 POP PUSH2 0x5278 DUP3 PUSH2 0x5239 JUMP JUMPDEST PUSH1 0x19 DUP3 ADD SWAP1 POP SWAP2 SWAP1 POP JUMP JUMPDEST PUSH0 PUSH2 0x528D DUP3 PUSH2 0x5261 JUMP JUMPDEST SWAP2 POP PUSH2 0x5299 DUP3 DUP7 PUSH2 0x505D JUMP JUMPDEST PUSH1 0x14 DUP3 ADD SWAP2 POP PUSH2 0x52A9 DUP3 DUP6 PUSH2 0x507D JUMP JUMPDEST PUSH1 0x20 DUP3 ADD SWAP2 POP PUSH2 0x52B9 DUP3 DUP5 PUSH2 0x4A8D JUMP JUMPDEST PUSH1 0x20 DUP3 ADD SWAP2 POP DUP2 SWAP1 POP SWAP5 SWAP4 POP POP POP POP JUMP JUMPDEST PUSH0 PUSH2 0x100 DUP3 ADD SWAP1 POP PUSH2 0x52DE PUSH0 DUP4 ADD DUP12 PUSH2 0x3C48 JUMP JUMPDEST PUSH2 0x52EB PUSH1 0x20 DUP4 ADD DUP11 PUSH2 0x3DCE JUMP JUMPDEST PUSH2 0x52F8 PUSH1 0x40 DUP4 ADD DUP10 PUSH2 0x3F86 JUMP JUMPDEST PUSH2 0x5305 PUSH1 0x60 DUP4 ADD DUP9 PUSH2 0x3C48 JUMP JUMPDEST PUSH2 0x5312 PUSH1 0x80 DUP4 ADD DUP8 PUSH2 0x3F86 JUMP JUMPDEST PUSH2 0x531F PUSH1 0xA0 DUP4 ADD DUP7 PUSH2 0x3FD5 JUMP JUMPDEST PUSH2 0x532C PUSH1 0xC0 DUP4 ADD DUP6 PUSH2 0x3FD5 JUMP JUMPDEST PUSH2 0x5339 PUSH1 0xE0 DUP4 ADD DUP5 PUSH2 0x3F86 JUMP JUMPDEST SWAP10 SWAP9 POP POP POP POP POP POP POP POP POP JUMP INVALID LOG2 PUSH5 0x6970667358 0x22 SLT KECCAK256 NOT 0xB5 MSTORE8 EXTCODEHASH 0xC4 0xCB 0xEE 0x24 0xA7 CALLVALUE CODESIZE 0xE1 LOG1 0xD 0xF6 SELFBALANCE ORIGIN INVALID 0x25 0xB8 DUP8 0x29 ORIGIN 0xBA ADD 0xC SAR TLOAD PUSH28 0xABB5EB64736F6C634300081C00330000000000000000000000000000 "
				}
			},
			"userdoc": {
				"kind": "user",
				"methods": {
					"isValidSignature(bytes32,bytes)": {
						"notice": "Verifies whether the provided signature is valid with respect to the provided hash"
					},
					"recoverSapientSignature((uint8,bool,(address,uint256,bytes,uint256,bool,bool,uint256)[],uint256,uint256,bytes,bytes32,bytes32,address[]),bytes)": {
						"notice": "Recovers the root hash of a given signature"
					}
				},
				"version": 1
			}
		}
	}
}