{"src/modules/Nonce.sol":{"Nonce":{"abi":[{"type":"function","name":"readNonce","inputs":[{"name":"_space","type":"uint256","internalType":"uint256"}],"outputs":[{"name":"","type":"uint256","internalType":"uint256"}],"stateMutability":"view"},{"type":"event","name":"NonceChange","inputs":[{"name":"_space","type":"uint256","indexed":false,"internalType":"uint256"},{"name":"_newNonce","type":"uint256","indexed":false,"internalType":"uint256"}],"anonymous":false},{"type":"error","name":"BadNonce","inputs":[{"name":"_space","type":"uint256","internalType":"uint256"},{"name":"_provided","type":"uint256","internalType":"uint256"},{"name":"_current","type":"uint256","internalType":"uint256"}]}],"userdoc":{},"devdoc":{},"evm":{"bytecode":{"object":"60808060405234601557610112908161001b8239f35b600080fdfe60806004361015600e57600080fd5b60003560e01c638c3f556314602257600080fd5b3460d75760207ffffffffffffffffffffffffffffffffffffffffffffffffffffffffffffffffc36011260d757602081017f8d0bf1fd623d628c741362c1289948e57b3e2905218c676d3e69abee36d6ae2e8152600435604083015260408252606082019082821067ffffffffffffffff83111760a85760209282604052519020548152f35b7f4e487b7100000000000000000000000000000000000000000000000000000000600052604160045260246000fd5b600080fdfea2646970667358221220c1edfc2bf4fca17e5582ce0f566a12faf0a6c201bb0821466544cf6f28f8697f64736f6c634300081c0033","linkReferences":{}},"methodIdentifiers":{"readNonce(uint256)":"8c3f5563"}}}}}