{
  "lib/signals-implicit-mode/lib/sequence-v3/src/modules/Payload.sol": {
    "Payload": {
      "abi": [
        {
          "inputs": [
            {
              "internalType": "uint8",
              "name": "kind",
              "type": "uint8"
            }
          ],
          "name": "InvalidKind",
          "type": "error"
        },
        {
          "inputs": [],
          "name": "BEHAVIOR_ABORT_ON_ERROR",
          "outputs": [
            {
              "internalType": "uint8",
              "name": "",
              "type": "uint8"
            }
          ],
          "stateMutability": "view",
          "type": "function"
        },
        {
          "inputs": [],
          "name": "BEHAVIOR_IGNORE_ERROR",
          "outputs": [
            {
              "internalType": "uint8",
              "name": "",
              "type": "uint8"
            }
          ],
          "stateMutability": "view",
          "type": "function"
        },
        {
          "inputs": [],
          "name": "BEHAVIOR_REVERT_ON_ERROR",
          "outputs": [
            {
              "internalType": "uint8",
              "name": "",
              "type": "uint8"
            }
          ],
          "stateMutability": "view",
          "type": "function"
        },
        {
          "inputs": [],
          "name": "KIND_CONFIG_UPDATE",
          "outputs": [
            {
              "internalType": "uint8",
              "name": "",
              "type": "uint8"
            }
          ],
          "stateMutability": "view",
          "type": "function"
        },
        {
          "inputs": [],
          "name": "KIND_DIGEST",
          "outputs": [
            {
              "internalType": "uint8",
              "name": "",
              "type": "uint8"
            }
          ],
          "stateMutability": "view",
          "type": "function"
        },
        {
          "inputs": [],
          "name": "KIND_MESSAGE",
          "outputs": [
            {
              "internalType": "uint8",
              "name": "",
              "type": "uint8"
            }
          ],
          "stateMutability": "view",
          "type": "function"
        },
        {
          "inputs": [],
          "name": "KIND_TRANSACTIONS",
          "outputs": [
            {
              "internalType": "uint8",
              "name": "",
              "type": "uint8"
            }
          ],
          "stateMutability": "view",
          "type": "function"
        }
      ],
      "devdoc": {
        "author": "Agustin Aguilar, Michael Standen, William Hua",
        "kind": "dev",
        "methods": {},
        "stateVariables": {
          "CALLS_TYPEHASH": {
            "details": "keccak256(\"Calls(Call[] calls,uint256 space,uint256 nonce,address[] wallets)Call(address to,uint256 value,bytes data,uint256 gasLimit,bool delegateCall,bool onlyFallback,uint256 behaviorOnError)\")"
          },
          "CALL_TYPEHASH": {
            "details": "keccak256(\"Call(address to,uint256 value,bytes data,uint256 gasLimit,bool delegateCall,bool onlyFallback,uint256 behaviorOnError)\")"
          },
          "CONFIG_UPDATE_TYPEHASH": {
            "details": "keccak256(\"ConfigUpdate(bytes32 imageHash,address[] wallets)\")"
          },
          "EIP712_DOMAIN_NAME_SEQUENCE": {
            "details": "keccak256(\"Sequence Wallet\")"
          },
          "EIP712_DOMAIN_TYPEHASH": {
            "details": "keccak256(\"EIP712Domain(string name,string version,uint256 chainId,address verifyingContract)\")"
          },
          "EIP712_DOMAIN_VERSION_SEQUENCE": {
            "details": "keccak256(\"3\")"
          },
          "MESSAGE_TYPEHASH": {
            "details": "keccak256(\"Message(bytes message,address[] wallets)\")"
          }
        },
        "title": "Payload",
        "version": 1
      },
      "evm": {
        "bytecode": {
          "linkReferences": {},
          "object": "608060405234602057600e6024565b61036661003082393081505061036690f35b602a565b60405190565b600080fdfe60806040526004361015610013575b61032b565b61001e60003561008d565b80630739d59a14610088578063075a3d2d146100835780633d5c1f9b1461007e578063420b0c25146100795780634a7d2aa0146100745780634e5f57151461006f5763b570180a0361000e57610300565b61029e565b61025b565b610218565b6101d5565b610173565b610111565b60e01c90565b60405190565b600080fd5b60009103126100a957565b610099565b90565b60ff1690565b90565b6100ce6100c96100d3926100ae565b6100b7565b6100b1565b90565b6100e060026100ba565b90565b6100eb6100d6565b90565b6100f7906100b1565b9052565b919061010f906000602085019401906100ee565b565b61011c36600461009e565b6101386101276100e3565b61012f610093565b918291826100fb565b0390f35b90565b61015361014e6101589261013c565b6100b7565b6100b1565b90565b610165600061013f565b90565b61017061015b565b90565b61017e36600461009e565b61019a610189610168565b610191610093565b918291826100fb565b0390f35b90565b6101b56101b06101ba9261019e565b6100b7565b6100b1565b90565b6101c760016101a1565b90565b6101d26101bd565b90565b6101e036600461009e565b6101fc6101eb6101ca565b6101f3610093565b918291826100fb565b0390f35b61020a60026100ba565b90565b610215610200565b90565b61022336600461009e565b61023f61022e61020d565b610236610093565b918291826100fb565b0390f35b61024d600061013f565b90565b610258610243565b90565b61026636600461009e565b610282610271610250565b610279610093565b918291826100fb565b0390f35b61029060016101a1565b90565b61029b610286565b90565b6102a936600461009e565b6102c56102b4610293565b6102bc610093565b918291826100fb565b0390f35b90565b6102e06102db6102e5926102c9565b6100b7565b6100b1565b90565b6102f260036102cc565b90565b6102fd6102e8565b90565b61030b36600461009e565b6103276103166102f5565b61031e610093565b918291826100fb565b0390f35b600080fdfea2646970667358221220714f957bdbb5bed9ebb923b2f3ca9dcba81930f3a808fefe68fd60002a4b772364736f6c634300081b0033",
          "opcodes": "PUSH1 0x80 PUSH1 0x40 MSTORE CALLVALUE PUSH1 0x20 JUMPI PUSH1 0xE PUSH1 0x24 JUMP JUMPDEST PUSH2 0x366 PUSH2 0x30 DUP3 CODECOPY ADDRESS DUP2 POP POP PUSH2 0x366 SWAP1 RETURN JUMPDEST PUSH1 0x2A JUMP JUMPDEST PUSH1 0x40 MLOAD SWAP1 JUMP JUMPDEST PUSH1 0x0 DUP1 REVERT INVALID PUSH1 0x80 PUSH1 0x40 MSTORE PUSH1 0x4 CALLDATASIZE LT ISZERO PUSH2 0x13 JUMPI JUMPDEST PUSH2 0x32B JUMP JUMPDEST PUSH2 0x1E PUSH1 0x0 CALLDATALOAD PUSH2 0x8D JUMP JUMPDEST DUP1 PUSH4 0x739D59A EQ PUSH2 0x88 JUMPI DUP1 PUSH4 0x75A3D2D EQ PUSH2 0x83 JUMPI DUP1 PUSH4 0x3D5C1F9B EQ PUSH2 0x7E JUMPI DUP1 PUSH4 0x420B0C25 EQ PUSH2 0x79 JUMPI DUP1 PUSH4 0x4A7D2AA0 EQ PUSH2 0x74 JUMPI DUP1 PUSH4 0x4E5F5715 EQ PUSH2 0x6F JUMPI PUSH4 0xB570180A SUB PUSH2 0xE JUMPI PUSH2 0x300 JUMP JUMPDEST PUSH2 0x29E JUMP JUMPDEST PUSH2 0x25B JUMP JUMPDEST PUSH2 0x218 JUMP JUMPDEST PUSH2 0x1D5 JUMP JUMPDEST PUSH2 0x173 JUMP JUMPDEST PUSH2 0x111 JUMP JUMPDEST PUSH1 0xE0 SHR SWAP1 JUMP JUMPDEST PUSH1 0x40 MLOAD SWAP1 JUMP JUMPDEST PUSH1 0x0 DUP1 REVERT JUMPDEST PUSH1 0x0 SWAP2 SUB SLT PUSH2 0xA9 JUMPI JUMP JUMPDEST PUSH2 0x99 JUMP JUMPDEST SWAP1 JUMP JUMPDEST PUSH1 0xFF AND SWAP1 JUMP JUMPDEST SWAP1 JUMP JUMPDEST PUSH2 0xCE PUSH2 0xC9 PUSH2 0xD3 SWAP3 PUSH2 0xAE JUMP JUMPDEST PUSH2 0xB7 JUMP JUMPDEST PUSH2 0xB1 JUMP JUMPDEST SWAP1 JUMP JUMPDEST PUSH2 0xE0 PUSH1 0x2 PUSH2 0xBA JUMP JUMPDEST SWAP1 JUMP JUMPDEST PUSH2 0xEB PUSH2 0xD6 JUMP JUMPDEST SWAP1 JUMP JUMPDEST PUSH2 0xF7 SWAP1 PUSH2 0xB1 JUMP JUMPDEST SWAP1 MSTORE JUMP JUMPDEST SWAP2 SWAP1 PUSH2 0x10F SWAP1 PUSH1 0x0 PUSH1 0x20 DUP6 ADD SWAP5 ADD SWAP1 PUSH2 0xEE JUMP JUMPDEST JUMP JUMPDEST PUSH2 0x11C CALLDATASIZE PUSH1 0x4 PUSH2 0x9E JUMP JUMPDEST PUSH2 0x138 PUSH2 0x127 PUSH2 0xE3 JUMP JUMPDEST PUSH2 0x12F PUSH2 0x93 JUMP JUMPDEST SWAP2 DUP3 SWAP2 DUP3 PUSH2 0xFB JUMP JUMPDEST SUB SWAP1 RETURN JUMPDEST SWAP1 JUMP JUMPDEST PUSH2 0x153 PUSH2 0x14E PUSH2 0x158 SWAP3 PUSH2 0x13C JUMP JUMPDEST PUSH2 0xB7 JUMP JUMPDEST PUSH2 0xB1 JUMP JUMPDEST SWAP1 JUMP JUMPDEST PUSH2 0x165 PUSH1 0x0 PUSH2 0x13F JUMP JUMPDEST SWAP1 JUMP JUMPDEST PUSH2 0x170 PUSH2 0x15B JUMP JUMPDEST SWAP1 JUMP JUMPDEST PUSH2 0x17E CALLDATASIZE PUSH1 0x4 PUSH2 0x9E JUMP JUMPDEST PUSH2 0x19A PUSH2 0x189 PUSH2 0x168 JUMP JUMPDEST PUSH2 0x191 PUSH2 0x93 JUMP JUMPDEST SWAP2 DUP3 SWAP2 DUP3 PUSH2 0xFB JUMP JUMPDEST SUB SWAP1 RETURN JUMPDEST SWAP1 JUMP JUMPDEST PUSH2 0x1B5 PUSH2 0x1B0 PUSH2 0x1BA SWAP3 PUSH2 0x19E JUMP JUMPDEST PUSH2 0xB7 JUMP JUMPDEST PUSH2 0xB1 JUMP JUMPDEST SWAP1 JUMP JUMPDEST PUSH2 0x1C7 PUSH1 0x1 PUSH2 0x1A1 JUMP JUMPDEST SWAP1 JUMP JUMPDEST PUSH2 0x1D2 PUSH2 0x1BD JUMP JUMPDEST SWAP1 JUMP JUMPDEST PUSH2 0x1E0 CALLDATASIZE PUSH1 0x4 PUSH2 0x9E JUMP JUMPDEST PUSH2 0x1FC PUSH2 0x1EB PUSH2 0x1CA JUMP JUMPDEST PUSH2 0x1F3 PUSH2 0x93 JUMP JUMPDEST SWAP2 DUP3 SWAP2 DUP3 PUSH2 0xFB JUMP JUMPDEST SUB SWAP1 RETURN JUMPDEST PUSH2 0x20A PUSH1 0x2 PUSH2 0xBA JUMP JUMPDEST SWAP1 JUMP JUMPDEST PUSH2 0x215 PUSH2 0x200 JUMP JUMPDEST SWAP1 JUMP JUMPDEST PUSH2 0x223 CALLDATASIZE PUSH1 0x4 PUSH2 0x9E JUMP JUMPDEST PUSH2 0x23F PUSH2 0x22E PUSH2 0x20D JUMP JUMPDEST PUSH2 0x236 PUSH2 0x93 JUMP JUMPDEST SWAP2 DUP3 SWAP2 DUP3 PUSH2 0xFB JUMP JUMPDEST SUB SWAP1 RETURN JUMPDEST PUSH2 0x24D PUSH1 0x0 PUSH2 0x13F JUMP JUMPDEST SWAP1 JUMP JUMPDEST PUSH2 0x258 PUSH2 0x243 JUMP JUMPDEST SWAP1 JUMP JUMPDEST PUSH2 0x266 CALLDATASIZE PUSH1 0x4 PUSH2 0x9E JUMP JUMPDEST PUSH2 0x282 PUSH2 0x271 PUSH2 0x250 JUMP JUMPDEST PUSH2 0x279 PUSH2 0x93 JUMP JUMPDEST SWAP2 DUP3 SWAP2 DUP3 PUSH2 0xFB JUMP JUMPDEST SUB SWAP1 RETURN JUMPDEST PUSH2 0x290 PUSH1 0x1 PUSH2 0x1A1 JUMP JUMPDEST SWAP1 JUMP JUMPDEST PUSH2 0x29B PUSH2 0x286 JUMP JUMPDEST SWAP1 JUMP JUMPDEST PUSH2 0x2A9 CALLDATASIZE PUSH1 0x4 PUSH2 0x9E JUMP JUMPDEST PUSH2 0x2C5 PUSH2 0x2B4 PUSH2 0x293 JUMP JUMPDEST PUSH2 0x2BC PUSH2 0x93 JUMP JUMPDEST SWAP2 DUP3 SWAP2 DUP3 PUSH2 0xFB JUMP JUMPDEST SUB SWAP1 RETURN JUMPDEST SWAP1 JUMP JUMPDEST PUSH2 0x2E0 PUSH2 0x2DB PUSH2 0x2E5 SWAP3 PUSH2 0x2C9 JUMP JUMPDEST PUSH2 0xB7 JUMP JUMPDEST PUSH2 0xB1 JUMP JUMPDEST SWAP1 JUMP JUMPDEST PUSH2 0x2F2 PUSH1 0x3 PUSH2 0x2CC JUMP JUMPDEST SWAP1 JUMP JUMPDEST PUSH2 0x2FD PUSH2 0x2E8 JUMP JUMPDEST SWAP1 JUMP JUMPDEST PUSH2 0x30B CALLDATASIZE PUSH1 0x4 PUSH2 0x9E JUMP JUMPDEST PUSH2 0x327 PUSH2 0x316 PUSH2 0x2F5 JUMP JUMPDEST PUSH2 0x31E PUSH2 0x93 JUMP JUMPDEST SWAP2 DUP3 SWAP2 DUP3 PUSH2 0xFB JUMP JUMPDEST SUB SWAP1 RETURN JUMPDEST PUSH1 0x0 DUP1 REVERT INVALID LOG2 PUSH5 0x6970667358 0x22 SLT KECCAK256 PUSH18 0x4F957BDBB5BED9EBB923B2F3CA9DCBA81930 RETURN 0xA8 ADDMOD INVALID INVALID PUSH9 0xFD60002A4B77236473 PUSH16 0x6C634300081B00330000000000000000 "
        },
        "methodIdentifiers": {
          "BEHAVIOR_ABORT_ON_ERROR()": "420b0c25",
          "BEHAVIOR_IGNORE_ERROR()": "4a7d2aa0",
          "BEHAVIOR_REVERT_ON_ERROR()": "4e5f5715",
          "KIND_CONFIG_UPDATE()": "0739d59a",
          "KIND_DIGEST()": "b570180a",
          "KIND_MESSAGE()": "3d5c1f9b",
          "KIND_TRANSACTIONS()": "075a3d2d"
        }
      },
      "userdoc": {
        "errors": {
          "InvalidKind(uint8)": [
            {
              "notice": "Error thrown when the kind is invalid"
            }
          ]
        },
        "kind": "user",
        "methods": {
          "BEHAVIOR_ABORT_ON_ERROR()": {
            "notice": "Behavior on error: abort on error"
          },
          "BEHAVIOR_IGNORE_ERROR()": {
            "notice": "Behavior on error: ignore error"
          },
          "BEHAVIOR_REVERT_ON_ERROR()": {
            "notice": "Behavior on error: revert on error"
          },
          "KIND_CONFIG_UPDATE()": {
            "notice": "Kind of config update"
          },
          "KIND_DIGEST()": {
            "notice": "Kind of message"
          },
          "KIND_MESSAGE()": {
            "notice": "Kind of digest"
          },
          "KIND_TRANSACTIONS()": {
            "notice": "Kind of transaction"
          }
        },
        "notice": "Library for encoding and decoding payloads",
        "version": 1
      }
    }
  }
}