{
  "src/tokens/ERC1155/utility/sale/ERC1155SaleFactory.sol": {
    "ERC1155SaleFactory": {
      "abi": [
        {
          "inputs": [
            {
              "internalType": "address",
              "name": "factoryOwner",
              "type": "address"
            }
          ],
          "stateMutability": "nonpayable",
          "type": "constructor"
        },
        {
          "anonymous": false,
          "inputs": [
            {
              "indexed": false,
              "internalType": "address",
              "name": "proxyAddr",
              "type": "address"
            }
          ],
          "name": "ERC1155SaleDeployed",
          "type": "event"
        },
        {
          "anonymous": false,
          "inputs": [
            {
              "indexed": true,
              "internalType": "address",
              "name": "previousOwner",
              "type": "address"
            },
            {
              "indexed": true,
              "internalType": "address",
              "name": "newOwner",
              "type": "address"
            }
          ],
          "name": "OwnershipTransferred",
          "type": "event"
        },
        {
          "inputs": [],
          "name": "beacon",
          "outputs": [
            {
              "internalType": "contract UpgradeableBeacon",
              "name": "",
              "type": "address"
            }
          ],
          "stateMutability": "view",
          "type": "function"
        },
        {
          "inputs": [
            {
              "internalType": "uint256",
              "name": "nonce",
              "type": "uint256"
            },
            {
              "internalType": "address",
              "name": "proxyOwner",
              "type": "address"
            },
            {
              "internalType": "address",
              "name": "tokenOwner",
              "type": "address"
            },
            {
              "internalType": "address",
              "name": "items",
              "type": "address"
            },
            {
              "internalType": "address",
              "name": "implicitModeValidator",
              "type": "address"
            },
            {
              "internalType": "bytes32",
              "name": "implicitModeProjectId",
              "type": "bytes32"
            }
          ],
          "name": "deploy",
          "outputs": [
            {
              "internalType": "address",
              "name": "proxyAddr",
              "type": "address"
            }
          ],
          "stateMutability": "nonpayable",
          "type": "function"
        },
        {
          "inputs": [
            {
              "internalType": "uint256",
              "name": "nonce",
              "type": "uint256"
            },
            {
              "internalType": "address",
              "name": "proxyOwner",
              "type": "address"
            },
            {
              "internalType": "address",
              "name": "tokenOwner",
              "type": "address"
            },
            {
              "internalType": "address",
              "name": "items",
              "type": "address"
            },
            {
              "internalType": "address",
              "name": "implicitModeValidator",
              "type": "address"
            },
            {
              "internalType": "bytes32",
              "name": "implicitModeProjectId",
              "type": "bytes32"
            }
          ],
          "name": "determineAddress",
          "outputs": [
            {
              "internalType": "address",
              "name": "proxyAddr",
              "type": "address"
            }
          ],
          "stateMutability": "view",
          "type": "function"
        },
        {
          "inputs": [],
          "name": "owner",
          "outputs": [
            {
              "internalType": "address",
              "name": "",
              "type": "address"
            }
          ],
          "stateMutability": "view",
          "type": "function"
        },
        {
          "inputs": [],
          "name": "renounceOwnership",
          "outputs": [],
          "stateMutability": "nonpayable",
          "type": "function"
        },
        {
          "inputs": [
            {
              "internalType": "address",
              "name": "newOwner",
              "type": "address"
            }
          ],
          "name": "transferOwnership",
          "outputs": [],
          "stateMutability": "nonpayable",
          "type": "function"
        },
        {
          "inputs": [
            {
              "internalType": "address",
              "name": "implementation",
              "type": "address"
            }
          ],
          "name": "upgradeBeacon",
          "outputs": [],
          "stateMutability": "nonpayable",
          "type": "function"
        }
      ],
      "devdoc": {
        "events": {
          "ERC1155SaleDeployed(address)": {
            "params": {
              "proxyAddr": "The address of the deployed proxy."
            }
          }
        },
        "kind": "dev",
        "methods": {
          "constructor": {
            "params": {
              "factoryOwner": "The owner of the ERC-1155 Sale Factory"
            }
          },
          "deploy(uint256,address,address,address,address,bytes32)": {
            "params": {
              "implicitModeProjectId": "The implicit mode project id",
              "implicitModeValidator": "The implicit mode validator address",
              "items": "The ERC-1155 Items contract address",
              "nonce": "Nonce for randomizing the deployment address.",
              "proxyOwner": "The owner of the ERC-1155 Sale proxy",
              "tokenOwner": "The owner of the ERC-1155 Sale implementation"
            },
            "returns": {
              "proxyAddr": "The address of the ERC-1155 Sale Proxy"
            }
          },
          "determineAddress(uint256,address,address,address,address,bytes32)": {
            "params": {
              "implicitModeProjectId": "The implicit mode project id",
              "implicitModeValidator": "The implicit mode validator address",
              "items": "The ERC-1155 Items contract address",
              "nonce": "Nonce for randomizing the deployment address.",
              "proxyOwner": "The owner of the ERC-1155 Sale proxy",
              "tokenOwner": "The owner of the ERC-1155 Sale implementation"
            },
            "returns": {
              "proxyAddr": "The address of the ERC-1155 Sale Proxy"
            }
          },
          "owner()": {
            "details": "Returns the address of the current owner."
          },
          "renounceOwnership()": {
            "details": "Leaves the contract without owner. It will not be possible to call `onlyOwner` functions. Can only be called by the current owner. NOTE: Renouncing ownership will leave the contract without an owner, thereby disabling any functionality that is only available to the owner."
          },
          "transferOwnership(address)": {
            "details": "Transfers ownership of the contract to a new account (`newOwner`). Can only be called by the current owner."
          },
          "upgradeBeacon(address)": {
            "params": {
              "implementation": "The new beacon implementation."
            }
          }
        },
        "version": 1
      },
      "evm": {
        "bytecode": {
          "linkReferences": {},
          "object": "60806040523461002f576100196100146100fa565b610169565b610021610034565b6125d461039782396125d490f35b61003a565b60405190565b600080fd5b601f801991011690565b634e487b7160e01b600052604160045260246000fd5b906100699061003f565b810190811060018060401b0382111761008157604052565b610049565b90610099610092610034565b928361005f565b565b600080fd5b60018060a01b031690565b6100b4906100a0565b90565b6100c0816100ab565b036100c757565b600080fd5b905051906100d9826100b7565b565b906020828203126100f5576100f2916000016100cc565b90565b61009b565b6101186183af8038038061010d81610086565b9283398101906100db565b90565b60000190565b610129610034565b3d6000823e3d90fd5b90565b61014961014461014e926100a0565b610132565b6100a0565b90565b61015a90610135565b90565b61016690610151565b90565b6101716101ca565b610179610034565b614fa2810181811060018060401b038211176101c5576101a18291614fa261296b843961011b565b03906000f09081156101c0576101b96101be9261015d565b610265565b565b610121565b610049565b6101d26101d4565b565b6101e46101df6102c7565b610335565b565b6101ef906100ab565b9052565b9190610207906000602085019401906101e6565b565b60001b90565b9061022060018060a01b0391610209565b9181191691161790565b61023390610135565b90565b61023f9061022a565b90565b90565b9061025a61025561026192610236565b610242565b825461020f565b9055565b61026d610034565b90610aa2820182811060018060401b038211176102bd57829161029791610aa261790d85396101f3565b03906000f09081156102b8576102b16102b6926001610245565b610335565b565b610121565b610049565b600090565b6102cf6102c2565b503390565b60001c90565b60018060a01b031690565b6102f16102f6916102d4565b6102da565b90565b61030390546102e5565b90565b61030f90610151565b90565b90565b9061032a61032561033192610306565b610312565b825461020f565b9055565b61033f60006102f9565b61034a826000610315565b9061037e6103787f8be0079c531659141344cd1fd0a4f28419497f9722a3daafe3b4186f6b6457e093610306565b91610306565b91610387610034565b806103918161011b565b0390a356fe60806040526004361015610013575b610403565b61001e60003561008d565b80631a4b671d146100885780631bce45831461008357806359659e901461007e57806369b3934d14610079578063715018a6146100745780638da5cb5b1461006f5763f2fde38b0361000e576103d0565b61039b565b610368565b61032c565b6102f7565b610215565b6101b4565b60e01c90565b60405190565b600080fd5b600080fd5b90565b6100af816100a3565b036100b657565b600080fd5b905035906100c8826100a6565b565b60018060a01b031690565b6100de906100ca565b90565b6100ea816100d5565b036100f157565b600080fd5b90503590610103826100e1565b565b90565b61011181610105565b0361011857565b600080fd5b9050359061012a82610108565b565b909160c08284031261018c5761014583600084016100bb565b9261015381602085016100f6565b9261016182604083016100f6565b9261018961017284606085016100f6565b9361018081608086016100f6565b9360a00161011d565b90565b61009e565b61019a906100d5565b9052565b91906101b290600060208501940190610191565b565b346101eb576101e76101d66101ca36600461012c565b9493909392919261052f565b6101de610093565b9182918261019e565b0390f35b610099565b9060208282031261020a57610207916000016100f6565b90565b61009e565b60000190565b346102435761022d6102283660046101f0565b61068c565b610235610093565b8061023f8161020f565b0390f35b610099565b600091031261025357565b61009e565b1c90565b60018060a01b031690565b61027790600861027c9302610258565b61025c565b90565b9061028a9154610267565b90565b61029a600160009061027f565b90565b90565b6102b46102af6102b9926100ca565b61029d565b6100ca565b90565b6102c5906102a0565b90565b6102d1906102bc565b90565b6102dd906102c8565b9052565b91906102f5906000602085019401906102d4565b565b3461032757610307366004610248565b61032361031261028d565b61031a610093565b918291826102e1565b0390f35b610099565b346103635761035f61034e61034236600461012c565b949390939291926106fa565b610356610093565b9182918261019e565b0390f35b610099565b3461039657610378366004610248565b61038061087f565b610388610093565b806103928161020f565b0390f35b610099565b346103cb576103ab366004610248565b6103c76103b66108b5565b6103be610093565b9182918261019e565b0390f35b610099565b346103fe576103e86103e33660046101f0565b6109c2565b6103f0610093565b806103fa8161020f565b0390f35b610099565b600080fd5b600090565b610416906100a3565b9052565b61042390610105565b9052565b909594926104739461046261046c9261045860809661044e60a088019c600089019061040d565b6020870190610191565b6040850190610191565b6060830190610191565b019061041a565b565b601f801991011690565b634e487b7160e01b600052604160045260246000fd5b9061049f90610475565b810190811067ffffffffffffffff8211176104b957604052565b61047f565b60200190565b5190565b906104db6104d4610093565b9283610495565b565b67ffffffffffffffff81116104fb576104f7602091610475565b0190565b61047f565b9061051261050d836104dd565b6104c8565b918252565b6105216000610500565b90565b61052c610517565b90565b61056e9291946105909661055f92610545610408565b509395919091610553610093565b96879560208701610427565b60208201810382520382610495565b61058061057a826104c4565b916104be565b209061058a610524565b91610aa1565b90565b6105a49061059f610bba565b6105f9565b565b60001c90565b6105b86105bd916105a6565b61025c565b90565b6105ca90546105ac565b90565b600080fd5b60e01b90565b60009103126105e357565b61009e565b6105f0610093565b3d6000823e3d90fd5b61060b61060660016105c0565b6102c8565b90633659cfe690823b1561068757610643926106386000809461062c610093565b968795869485936105d2565b83526004830161019e565b03925af1801561068257610655575b50565b6106759060003d811161067b575b61066d8183610495565b8101906105d8565b38610652565b503d610663565b6105e8565b6105cd565b61069590610593565b565b6106a0906102a0565b90565b6106ac90610697565b90565b6106b8906102bc565b90565b6106f16106f8946106e76060949897956106dd608086019a6000870190610191565b6020850190610191565b6040830190610191565b019061041a565b565b9061075c9193929361070a610408565b5061073a859161072b86898b9161071f610093565b96879560208701610427565b60208201810382520382610495565b61074c610746826104c4565b916104be565b2090610756610524565b91610cad565b9361076e610769866106a3565b6106af565b906363acc14d93929490823b15610829576000946107aa869261079f94610793610093565b998a98899788966105d2565b8652600486016106bb565b03925af18015610824576107f7575b50806107f17f346f0211197dd599e2e2a8c828f6e7dc39e8a49171ce0a728428e8b778c61eea916107e8610093565b9182918261019e565b0390a190565b6108179060003d811161081d575b61080f8183610495565b8101906105d8565b386107b9565b503d610805565b6105e8565b6105cd565b610836610bba565b61083e61086b565b565b90565b61085761085261085c92610840565b61029d565b6100ca565b90565b61086890610843565b90565b61087d610878600061085f565b610e3c565b565b61088761082e565b565b60018060a01b031690565b6108a06108a5916105a6565b610889565b90565b6108b29054610894565b90565b6108bd610408565b506108c860006108a8565b90565b6108dc906108d7610bba565b610991565b565b60209181520190565b60207f6464726573730000000000000000000000000000000000000000000000000000917f4f776e61626c653a206e6577206f776e657220697320746865207a65726f206160008201520152565b61094260266040926108de565b61094b816108e7565b0190565b6109659060208101906000818303910152610935565b90565b1561096f57565b610977610093565b62461bcd60e51b81528061098d6004820161094f565b0390fd5b6109c0906109bb816109b46109ae6109a9600061085f565b6100d5565b916100d5565b1415610968565b610e3c565b565b6109cb906108cb565b565b90565b6109dc6109e191610105565b6109cd565b9052565b60601b90565b6109f4906109e5565b90565b610a00906109eb565b90565b610a0f610a14916100d5565b6109f7565b9052565b905090565b60005b838110610a31575050906000910152565b806020918301518185015201610a20565b610a67610a5e92602092610a55816104c4565b94858093610a18565b93849101610a1d565b0190565b60148093610a8f602084610a87610a9796610a9e9b9a986109d0565b018092610a03565b018092610a03565b0190610a42565b90565b610b349291610ade610aed92610ab5610408565b509193610aca610ac560016105c0565b6102c8565b610ad2610093565b95869460208601610a6b565b60208201810382520382610495565b610aff610af9826104c4565b916104be565b2061148a610b0f602082016104c8565b908082526111156020830139610b2d610b27826104c4565b916104be565b2090610ea9565b90565b60007f4f776e61626c653a2063616c6c6572206973206e6f7420746865206f776e6572910152565b610b6b602080926108de565b610b7481610b37565b0190565b610b8e9060208101906000818303910152610b5f565b90565b15610b9857565b610ba0610093565b62461bcd60e51b815280610bb660048201610b78565b0390fd5b610be4610bc56108b5565b610bde610bd8610bd3610eca565b6100d5565b916100d5565b14610b91565b565b610bfa610bf5610bff92610840565b61029d565b6100a3565b90565b610c0b906102a0565b90565b610c1790610c02565b90565b610c23906102a0565b90565b610c2f90610c1a565b90565b610c3b906102bc565b90565b60209181520190565b610c66610c6f602093610c7493610c5d816104c4565b93848093610c3e565b95869101610a1d565b610475565b0190565b610c9d610caa949293610c9360608401956000850190610191565b6020830190610191565b6040818403910152610c47565b90565b610d3d9093929193610cbd610408565b50610cfd8591610cee610cd8610cd360016105c0565b6102c8565b8690610ce2610093565b95869460208601610a6b565b60208201810382520382610495565b610d0f610d09826104c4565b916104be565b2061148a610d1f602082016104c8565b908082526111156020830139610d386000929192610be6565b611062565b92610d57610d52610d4d86610c0e565b610c26565b610c32565b63cf7a1d779190610d70610d6b60016105c0565b6102c8565b9392813b15610de7576000610d9891610da38296610d8c610093565b988997889687956105d2565b855260048501610c78565b03925af18015610de257610db5575b50565b610dd59060003d8111610ddb575b610dcd8183610495565b8101906105d8565b38610db2565b503d610dc3565b6105e8565b6105cd565b60001b90565b90610e0360018060a01b0391610dec565b9181191691161790565b610e16906102bc565b90565b90565b90610e31610e2c610e3892610e0d565b610e19565b8254610df2565b9055565b610e4660006108a8565b610e51826000610e1c565b90610e85610e7f7f8be0079c531659141344cd1fd0a4f28419497f9722a3daafe3b4186f6b6457e093610e0d565b91610e0d565b91610e8e610093565b80610e988161020f565b0390a3565b610ea6906102bc565b90565b90610ec791610eb6610408565b5090610ec130610e9d565b916110eb565b90565b610ed2610408565b503390565b60007f437265617465323a20696e73756666696369656e742062616c616e6365000000910152565b610f0c601d6020926108de565b610f1581610ed7565b0190565b610f2f9060208101906000818303910152610eff565b90565b15610f3957565b610f41610093565b62461bcd60e51b815280610f5760048201610f19565b0390fd5b60007f437265617465323a2062797465636f6465206c656e677468206973207a65726f910152565b610f8f602080926108de565b610f9881610f5b565b0190565b610fb29060208101906000818303910152610f83565b90565b15610fbc57565b610fc4610093565b62461bcd60e51b815280610fda60048201610f9c565b0390fd5b60007f437265617465323a204661696c6564206f6e206465706c6f7900000000000000910152565b61101360196020926108de565b61101c81610fde565b0190565b6110369060208101906000818303910152611006565b90565b1561104057565b611048610093565b62461bcd60e51b81528061105e60048201611020565b0390fd5b91909161106d610408565b5061109461107a30610e9d565b3161108d611087846100a3565b916100a3565b1015610f32565b6110ba6110a0836104c4565b6110b36110ad6000610be6565b916100a3565b1415610fb5565b60208251920190f5906110e9826110e26110dc6110d7600061085f565b6100d5565b916100d5565b1415611039565b565b90605592600b926110fa610408565b50604051926040840152602083015281520160ff8153209056fe608060405234601c57600e6020565b61145e61002c823961145e90f35b6026565b60405190565b600080fdfe6080604052361561006b5761006b565b90565b60018060a01b031690565b90565b61003461002f6100399261000f565b61001d565b610012565b90565b61004590610020565b90565b61005190610012565b90565b606090565b63ffffffff60e01b1690565b60000190565b61007361017e565b61008e610088610083600061003c565b610048565b91610048565b0361046c5761009b610054565b5063ffffffff60e01b600035166100c16100bb63cf7a1d7760e01b610059565b91610059565b146100e357600063f92ee8a960e01b8152806100df60048201610065565b0390fd5b6100eb610401565b602081519101f35b600090565b90565b90565b60001b90565b61011861011361011d926100f8565b6100fe565b6100fb565b90565b6101497fb53127684a568b3173ae13b9f8a6016e243e63b6e8ee1178d6a717850b5d6103610104565b90565b60001c90565b60018060a01b031690565b61016961016e9161014c565b610152565b90565b61017b905461015d565b90565b6101866100f3565b506101a2600061019c610197610120565b6105a2565b01610171565b90565b90565b90565b6101bf6101ba6101c4926101a5565b61001d565b6101a8565b90565b60405190565b600080fd5b600080fd5b909392938483116101f75784116101f2576001820201920390565b6101d2565b6101cd565b91565b600080fd5b600080fd5b61021290610012565b90565b61021e81610209565b0361022557565b600080fd5b9050359061023782610215565b565b600080fd5b600080fd5b601f801991011690565b634e487b7160e01b600052604160045260246000fd5b9061026d90610243565b810190811067ffffffffffffffff82111761028757604052565b61024d565b9061029f6102986101c7565b9283610263565b565b67ffffffffffffffff81116102bf576102bb602091610243565b0190565b61024d565b90826000939282370152565b909291926102e56102e0826102a1565b61028c565b93818552602085019082840111610301576102ff926102c4565b565b61023e565b9080601f8301121561032457816020610321933591016102d0565b90565b610239565b9160608383031261037657610341826000850161022a565b9261034f836020830161022a565b92604082013567ffffffffffffffff81116103715761036e9201610306565b90565b610204565b6101ff565b61038f61038a61039492610012565b61001d565b610012565b90565b6103a09061037b565b90565b6103ac90610397565b90565b67ffffffffffffffff81116103cd576103c9602091610243565b0190565b61024d565b906103e46103df836103af565b61028c565b918252565b6103f360006103d2565b90565b6103fe6103e9565b90565b610409610054565b506104126105cd565b61046161045761045161044761043f61043960003661043160046101ab565b9080926101d7565b906101fc565b810190610329565b93919290926103a3565b916103a3565b91909190916105ec565b6104696103f6565b90565b3361048661048061047b61017e565b610048565b91610048565b1460001461059d57610496610054565b5063ffffffff60e01b60003516806104bd6104b7631b2ce7f360e11b610059565b91610059565b146000146104d757506104ce610817565b5b602081519101f35b806104f16104eb63278f794360e11b610059565b91610059565b1460001461050857506105026107c1565b5b6104cf565b8061052261051c6308f2839760e41b610059565b91610059565b146000146105395750610533610723565b5b610503565b8061055361054d6303e1469160e61b610059565b91610059565b1460001461056a57506105646106bf565b5b610534565b61058361057d635c60da1b60e01b610059565b91610059565b146000146105985761059361067a565b610565565b61064a565b61064a565b90565b6105b96105b46105be9261000f565b61001d565b6101a8565b90565b156105c857565b600080fd5b6105ea346105e46105de60006105a5565b916101a8565b146105c1565b565b91906105f661087a565b61061161060b610606600061003c565b610048565b91610048565b0361062d5761062261062b936108b2565b9060009161098d565b565b600063f92ee8a960e01b81528061064660048201610065565b0390fd5b610652610aa6565b610ae7565b61066090610048565b9052565b919061067890600060208501940190610657565b565b610682610054565b5061068b6105cd565b6106ad6106bc610699610aa6565b6106a16101c7565b92839160208301610664565b60208201810382520382610263565b90565b6106c7610054565b506106d06105cd565b6106f26107016106de61017e565b6106e66101c7565b92839160208301610664565b60208201810382520382610263565b90565b9060208282031261071e5761071b9160000161022a565b90565b6101ff565b61072b610054565b506107346105cd565b61077061076b61076661075e61075860003661075060046101ab565b9080926101d7565b906101fc565b810190610704565b6103a3565b6108b2565b6107786103f6565b90565b9190916040818403126107bc57610795836000830161022a565b92602082013567ffffffffffffffff81116107b7576107b49201610306565b90565b610204565b6101ff565b6107c9610054565b5061080c6108036107fc6107f46107ee6000366107e660046101ab565b9080926101d7565b906101fc565b81019061077b565b91906103a3565b90600191610b0a565b6108146103f6565b90565b61081f610054565b506108286105cd565b61086f61085f61085a61085261084c60003661084460046101ab565b9080926101d7565b906101fc565b810190610704565b6103a3565b6108676103f6565b600091610b0a565b6108776103f6565b90565b6108826100f3565b5061088b61017e565b90565b9160206108b09294936108a960408201966000830190610657565b0190610657565b565b6108fd906108be61017e565b817f7e644d79422f17c01e4894b5f4f588d331ebfa28653d42ae832dc59e38c9798f916108f56108ec6101c7565b9283928361088e565b0390a1610c4d565b565b61090890610397565b90565b5190565b6109189061037b565b90565b6109249061090f565b90565b61093090610397565b90565b60e01b90565b61094281610048565b0361094957565b600080fd5b9050519061095b82610939565b565b90602082820312610977576109749160000161094e565b90565b6101ff565b6109846101c7565b3d6000823e3d90fd5b9161099783610e30565b826109c27f1cf3b03a6cf19fa2baba4df148e9dcabedea7f8a5c07840e207e5c089be95d3e916108ff565b906109cb6101c7565b806109d581610065565b0390a26109e18261090b565b6109f46109ee60006105a5565b916101a8565b11908115610a9e575b50610a07575b5050565b6020610a1d610a18610a339461091b565b610927565b635c60da1b90610a2b6101c7565b948592610933565b82528180610a4360048201610065565b03915afa908115610a9957610a6192600092610a69575b5090610f65565b503880610a03565b610a8b91925060203d8111610a92575b610a838183610263565b81019061095d565b9038610a5a565b503d610a79565b61097c565b9050386109fd565b610aae6100f3565b50610ab7610f85565b80610ad3610acd610ac8600061003c565b610048565b91610048565b03610ae45750610ae1610f99565b90565b90565b60008091368280378136915af43d6000803e600014610b05573d6000f35b3d6000fd5b91610b148361102f565b610b1d8261090b565b610b30610b2a60006105a5565b916101a8565b11908115610b54575b50610b43575b5050565b610b4c91610f65565b503880610b3f565b905038610b39565b60209181520190565b60207f6464726573730000000000000000000000000000000000000000000000000000917f455243313936373a206e65772061646d696e20697320746865207a65726f206160008201520152565b610bc06026604092610b5c565b610bc981610b65565b0190565b610be39060208101906000818303910152610bb3565b90565b15610bed57565b610bf56101c7565b62461bcd60e51b815280610c0b60048201610bcd565b0390fd5b90610c2060018060a01b03916100fe565b9181191691161790565b90565b90610c42610c3d610c49926108ff565b610c2a565b8254610c0f565b9055565b610c8f90610c7781610c70610c6a610c65600061003c565b610048565b91610048565b1415610be6565b6000610c89610c84610120565b6105a2565b01610c2d565b565b60207f7472616374000000000000000000000000000000000000000000000000000000917f455243313936373a206e657720626561636f6e206973206e6f74206120636f6e60008201520152565b610cec6025604092610b5c565b610cf581610c91565b0190565b610d0f9060208101906000818303910152610cdf565b90565b15610d1957565b610d216101c7565b62461bcd60e51b815280610d3760048201610cf9565b0390fd5b60207f73206e6f74206120636f6e747261637400000000000000000000000000000000917f455243313936373a20626561636f6e20696d706c656d656e746174696f6e206960008201520152565b610d966030604092610b5c565b610d9f81610d3b565b0190565b610db99060208101906000818303910152610d89565b90565b15610dc357565b610dcb6101c7565b62461bcd60e51b815280610de160048201610da3565b0390fd5b90565b610dfc610df7610e0192610de5565b6100fe565b6100fb565b90565b610e2d7fa3f0ad74e5423aebfd80d3ef4346578335a9a72aeaee59ff6cb3582b35133d50610de8565b90565b610e6e90610e45610e408261107f565b610d12565b6020610e58610e538361091b565b610927565b635c60da1b90610e666101c7565b948592610933565b82528180610e7e60048201610065565b03915afa8015610eee57610ea1610ea691610ebe94600091610ec0575b5061107f565b610dbc565b6000610eb8610eb3610e04565b6105a2565b01610c2d565b565b610ee1915060203d8111610ee7575b610ed98183610263565b81019061095d565b38610e9b565b503d610ecf565b61097c565b60207f206661696c656400000000000000000000000000000000000000000000000000917f416464726573733a206c6f772d6c6576656c2064656c65676174652063616c6c60008201520152565b610f4b60276103d2565b90610f5860208301610ef3565b565b610f62610f41565b90565b90610f8291610f72610054565b5090610f7c610f5a565b916110e2565b90565b610f8d6100f3565b50610f96611160565b90565b610fa16100f3565b50610fd56020610fbf610fba610fb5611187565b61091b565b610927565b635c60da1b90610fcd6101c7565b938492610933565b82528180610fe560048201610065565b03915afa90811561102a57600091610ffc575b5090565b61101d915060203d8111611023575b6110158183610263565b81019061095d565b38610ff8565b503d61100b565b61097c565b61103881611258565b6110627fbc7cd75a20ee27fd9adebab32041f755214dbc6bffa90cc0225b39da2e5c2d3b916108ff565b9061106b6101c7565b8061107581610065565b0390a2565b600090565b61108761107a565b503b61109c61109660006105a5565b916101a8565b1190565b906110b26110ad836102a1565b61028c565b918252565b3d6000146110d4576110c83d6110a0565b903d6000602084013e5b565b6110dc610054565b906110d2565b9091600080611112946110f3610054565b508490602081019051915af4916111086110b7565b909290919261130b565b90565b90565b61112c61112761113192611115565b6100fe565b6100fb565b90565b61115d7f360894a13ba1a3210667c828492db98dca3e2076cc3735a920a3ca505d382bbc611118565b90565b6111686100f3565b50611184600061117e611179611134565b6105a2565b01610171565b90565b61118f6100f3565b506111ab60006111a56111a0610e04565b6105a2565b01610171565b90565b60207f6f74206120636f6e747261637400000000000000000000000000000000000000917f455243313936373a206e657720696d706c656d656e746174696f6e206973206e60008201520152565b611209602d604092610b5c565b611212816111ae565b0190565b61122c90602081019060008183039101526111fc565b90565b1561123657565b61123e6101c7565b62461bcd60e51b81528061125460048201611216565b0390fd5b6112859061126d6112688261107f565b61122f565b600061127f61127a611134565b6105a2565b01610c2d565b565b60007f416464726573733a2063616c6c20746f206e6f6e2d636f6e7472616374000000910152565b6112bc601d602092610b5c565b6112c581611287565b0190565b6112df90602081019060008183039101526112af565b90565b156112e957565b6112f16101c7565b62461bcd60e51b815280611307600482016112c9565b0390fd5b919290611316610054565b5060001461135c57506113288261090b565b61133b61133560006105a5565b916101a8565b14611345575b5090565b6113516113569161107f565b6112e2565b38611341565b826113d5565b5190565b60005b83811061137a575050906000910152565b806020918301518185015201611369565b6113aa6113b36020936113b8936113a181611362565b93848093610b5c565b95869101611366565b610243565b0190565b6113d2916020820191600081840391015261138b565b90565b906113df8261090b565b6113f26113ec60006105a5565b916101a8565b116000146114035750805190602001fd5b6114249061140f6101c7565b91829162461bcd60e51b8352600483016113bc565b0390fdfea2646970667358221220fb1899e61f38faa78bfbab79b8dc2fa613357c2fce2699411f9fee80b624365564736f6c634300081b0033a2646970667358221220e4017702d245f60c5abf556451ec1816e94c2280e9885e04b6e2f912ad89e01364736f6c634300081b0033608060405234601c57600e6020565b614f7661002c8239614f7690f35b6026565b60405190565b600080fdfe60a06040526004361015610013575b6112a5565b61001e6000356101ad565b806301ffc9a7146101a85780630869678c146101a35780630bb310de1461019e578063119cd50c14610199578063248a9ca3146101945780632f2ff15d1461018f5780633013ce291461018a57806336568abe1461018557806344004cc1146101805780634782f7791461017b5780634f651ccd1461017657806360e606f61461017157806363acc14d1461016c5780636a326ab1146101675780639010d07c1461016257806391d148541461015d5780639d043a6614610158578063a217fddf14610153578063bad436611461014e578063c81ee65014610149578063ca15c87314610144578063d547741f1461013f578063ed4c2ac71461013a578063f07f04ff146101355763ff81434e0361000e5761126f565b611105565b610f54565b610f20565b610eeb565b610e8e565b610de4565b610d4c565b610cd9565b610c0e565b610bd8565b610b77565b610b40565b610ac6565b6107e9565b61072c565b6106ca565b61065b565b610626565b6105cf565b61056c565b6104d1565b6103f8565b610363565b61023f565b60e01c90565b60405190565b600080fd5b600080fd5b600080fd5b63ffffffff60e01b1690565b6101dd816101c8565b036101e457565b600080fd5b905035906101f6826101d4565b565b906020828203126102125761020f916000016101e9565b90565b6101be565b151590565b61022590610217565b9052565b919061023d9060006020850194019061021c565b565b3461026f5761026b61025a6102553660046101f8565b6112af565b6102626101b3565b91829182610229565b0390f35b6101b9565b90565b61028081610274565b0361028757565b600080fd5b9050359061029982610277565b565b906020828203126102b5576102b29160000161028c565b90565b6101be565b6102c390610274565b9052565b67ffffffffffffffff1690565b6102dd906102c7565b9052565b90565b6102ed906102e1565b9052565b9060808061034b9361030b600082015160008601906102ba565b61031d602082015160208601906102ba565b61032f604082015160408601906102d4565b610341606082015160608601906102d4565b01519101906102e4565b565b919061036190600060a085019401906102f1565b565b346103935761038f61037e61037936600461029b565b611509565b6103866101b3565b9182918261034d565b0390f35b6101b9565b60018060a01b031690565b6103ac90610398565b90565b6103b8816103a3565b036103bf57565b600080fd5b905035906103d1826103af565b565b906020828203126103ed576103ea916000016103c4565b90565b6101be565b60000190565b346104265761041061040b3660046103d3565b6115fa565b6104186101b3565b80610422816103f2565b0390f35b6101b9565b600091031261043657565b6101be565b9060c0806104b993610455600082015160008601906102ba565b610467602082015160208601906102ba565b610479604082015160408601906102ba565b61048b606082015160608601906102ba565b61049d608082015160808601906102d4565b6104af60a082015160a08601906102d4565b01519101906102e4565b565b91906104cf90600060e0850194019061043b565b565b34610501576104e136600461042b565b6104fd6104ec61173e565b6104f46101b3565b918291826104bb565b0390f35b6101b9565b61050f816102e1565b0361051657565b600080fd5b9050359061052882610506565b565b90602082820312610544576105419160000161051b565b90565b6101be565b610552906102e1565b9052565b919061056a90600060208501940190610549565b565b3461059c5761059861058761058236600461052a565b61177d565b61058f6101b3565b91829182610556565b0390f35b6101b9565b91906040838203126105ca57806105be6105c7926000860161051b565b936020016103c4565b90565b6101be565b346105fe576105e86105e23660046105a1565b906117c8565b6105f06101b3565b806105fa816103f2565b0390f35b6101b9565b61060c906103a3565b9052565b919061062490600060208501940190610603565b565b346106565761063636600461042b565b610652610641611805565b6106496101b3565b91829182610610565b0390f35b6101b9565b3461068a5761067461066e3660046105a1565b906118ce565b61067c6101b3565b80610686816103f2565b0390f35b6101b9565b90916060828403126106c5576106c26106ab84600085016103c4565b936106b981602086016103c4565b9360400161028c565b90565b6101be565b346106f9576106e36106dd36600461068f565b9161196d565b6106eb6101b3565b806106f5816103f2565b0390f35b6101b9565b9190604083820312610727578061071b61072492600086016103c4565b9360200161028c565b90565b6101be565b3461075b5761074561073f3660046106fe565b90611a50565b61074d6101b3565b80610757816103f2565b0390f35b6101b9565b610769816102c7565b0361077057565b600080fd5b9050359061078282610760565b565b909160c0828403126107e45761079d836000840161028c565b926107ab816020850161028c565b926107b9826040830161028c565b926107e16107ca8460608501610775565b936107d88160808601610775565b9360a00161051b565b90565b6101be565b3461081e576108086107fc366004610784565b94939093929192611e42565b6108106101b3565b8061081a816103f2565b0390f35b6101b9565b600080fd5b601f801991011690565b634e487b7160e01b600052604160045260246000fd5b9061085290610828565b810190811067ffffffffffffffff82111761086c57604052565b610832565b9061088461087d6101b3565b9283610848565b565b67ffffffffffffffff811161089e5760208091020190565b610832565b600080fd5b909291926108bd6108b882610886565b610871565b93818552602080860192028301928184116108fa57915b8383106108e15750505050565b602080916108ef848661028c565b8152019201916108d4565b6108a3565b9080601f8301121561091d5781602061091a933591016108a8565b90565b610823565b600080fd5b67ffffffffffffffff811161094557610941602091610828565b0190565b610832565b90826000939282370152565b9092919261096b61096682610927565b610871565b93818552602085019082840111610987576109859261094a565b565b610922565b9080601f830112156109aa578160206109a793359101610956565b90565b610823565b600080fd5b909182601f830112156109ee5781359167ffffffffffffffff83116109e95760200192602083028401116109e457565b6108a3565b6109af565b610823565b9060e082820312610ac157610a0b81600084016103c4565b92602083013567ffffffffffffffff8111610abc5782610a2c9185016108ff565b92604081013567ffffffffffffffff8111610ab75783610a4d9183016108ff565b92606082013567ffffffffffffffff8111610ab25781610a6e91840161098c565b92610a7c82608085016103c4565b92610a8a8360a0830161028c565b9260c082013567ffffffffffffffff8111610aad57610aa992016109b4565b9091565b6101c3565b6101c3565b6101c3565b6101c3565b6101be565b610ae3610ad43660046109f3565b96959095949194939293612038565b610aeb6101b3565b80610af5816103f2565b0390f35b608081830312610b3b57610b1082600083016103c4565b92610b38610b2184602085016103c4565b93610b2f81604086016103c4565b9360600161051b565b90565b6101be565b34610b7257610b5c610b53366004610af9565b92919091612231565b610b646101b3565b80610b6e816103f2565b0390f35b6101b9565b34610ba557610b8f610b8a3660046103d3565b612301565b610b976101b3565b80610ba1816103f2565b0390f35b6101b9565b9190604083820312610bd35780610bc7610bd0926000860161051b565b9360200161028c565b90565b6101be565b34610c0957610c05610bf4610bee366004610baa565b90612327565b610bfc6101b3565b91829182610610565b0390f35b6101b9565b34610c3f57610c3b610c2a610c243660046105a1565b90612367565b610c326101b3565b91829182610229565b0390f35b6101b9565b600080fd5b908160c0910312610c575790565b610c44565b908160e0910312610c6a5790565b610c44565b91606083830312610cd457610c8782600085016103c4565b92602081013567ffffffffffffffff8111610ccf5783610ca8918301610c49565b92604082013567ffffffffffffffff8111610cca57610cc79201610c5c565b90565b6101c3565b6101c3565b6101be565b34610d0a57610d06610cf5610cef366004610c6f565b9161268b565b610cfd6101b3565b91829182610556565b0390f35b6101b9565b90565b60001b90565b610d2c610d27610d3192610d0f565b610d12565b6102e1565b90565b610d3e6000610d18565b90565b610d49610d34565b90565b34610d7c57610d5c36600461042b565b610d78610d67610d41565b610d6f6101b3565b91829182610556565b0390f35b6101b9565b91608083830312610ddf57610d99826000850161051b565b9260208101359167ffffffffffffffff8311610dda57610dbe84610dd79484016109b4565b939094610dce81604086016103c4565b9360600161051b565b90565b6101c3565b6101be565b34610e1857610e14610e03610dfa366004610d81565b9392909261284e565b610e0b6101b3565b91829182610229565b0390f35b6101b9565b60e081830312610e8957610e34826000830161028c565b92610e42836020840161028c565b92610e50816040850161028c565b92610e5e826060830161028c565b92610e86610e6f8460808501610775565b93610e7d8160a08601610775565b9360c00161051b565b90565b6101be565b34610ec357610ead610ea1366004610e1d565b95949094939193612b95565b610eb56101b3565b80610ebf816103f2565b0390f35b6101b9565b610ed190610274565b9052565b9190610ee990600060208501940190610ec8565b565b34610f1b57610f17610f06610f0136600461052a565b612bab565b610f0e6101b3565b91829182610ed5565b0390f35b6101b9565b34610f4f57610f39610f333660046105a1565b90612bfb565b610f416101b3565b80610f4b816103f2565b0390f35b6101b9565b34610f8257610f6c610f6736600461052a565b612c2f565b610f746101b3565b80610f7e816103f2565b0390f35b6101b9565b909182601f83011215610fc15781359167ffffffffffffffff8311610fbc576020019260208302840111610fb757565b6108a3565b6109af565b610823565b909182601f830112156110005781359167ffffffffffffffff8311610ffb576020019260208302840111610ff657565b6108a3565b6109af565b610823565b909160c08284031261110057600082013567ffffffffffffffff81116110fb5783611031918401610f87565b929093602082013567ffffffffffffffff81116110f65781611054918401610f87565b929093604082013567ffffffffffffffff81116110f15783611077918401610f87565b929093606082013567ffffffffffffffff81116110ec578161109a918401610fc6565b929093608082013567ffffffffffffffff81116110e757836110bd918401610fc6565b92909360a082013567ffffffffffffffff81116110e2576110de92016109b4565b9091565b6101c3565b6101c3565b6101c3565b6101c3565b6101c3565b6101c3565b6101be565b346111435761112d611118366004611005565b9a99909998919897929796939695949561315e565b6111356101b3565b8061113f816103f2565b0390f35b6101b9565b9060208282031261117a57600082013567ffffffffffffffff8111611175576111719201610f87565b9091565b6101c3565b6101be565b5190565b60209181520190565b60200190565b906080806111ec936111ac600082015160008601906102ba565b6111be602082015160208601906102ba565b6111d0604082015160408601906102d4565b6111e2606082015160608601906102d4565b01519101906102e4565b565b906111fb8160a093611192565b0190565b60200190565b9061122261121c6112158461117f565b8093611183565b9261118c565b9060005b8181106112335750505090565b90919261124c61124660019286516111ee565b946111ff565b9101919091611226565b61126c9160208201916000818403910152611205565b90565b346112a05761129c61128b611285366004611148565b90613223565b6112936101b3565b91829182611256565b0390f35b6101b9565b600080fd5b600090565b6112b76112aa565b5063b681391160e01b6112d26112cc836101c8565b916101c8565b1480156112f6575b9081156112e6575b5090565b6112f091506132fb565b386112e2565b50611300816132c1565b6112da565b61130f60a0610871565b90565b600090565b600090565b600090565b611329611305565b9060208080808086611339611312565b815201611344611312565b81520161134f611317565b81520161135a611317565b81520161136561131c565b81525050565b611373611321565b90565b90565b61138d61138861139292610274565b611376565b610274565b90565b9061139f90611379565b600052602052604060002090565b60001c90565b90565b6113c26113c7916113ad565b6113b3565b90565b6113d490546113b6565b90565b906113e190610274565b9052565b67ffffffffffffffff1690565b6113fe611403916113ad565b6113e5565b90565b61141090546113f2565b90565b9061141d906102c7565b9052565b60401c90565b61143361143891611421565b6113e5565b90565b6114459054611427565b90565b90565b61145761145c916113ad565b611448565b90565b611469905461144b565b90565b90611476906102e1565b9052565b906114fb6114f2600361148b611305565b946114a461149b600083016113ca565b600088016113d7565b6114bc6114b3600183016113ca565b602088016113d7565b6114d46114cb60028301611406565b60408801611413565b6114ec6114e36002830161143b565b60608801611413565b0161145f565b6080840161146c565b565b6115069061147a565b90565b6115206115259161151861136b565b50600d611395565b6114fd565b90565b7f70649ec320b507febad3e8ef750e5f580b9ae32f9f50d4c7b121332c8197153090565b6115659061156061155b611528565b613329565b6115e5565b565b61157b61157661158092610398565b611376565b610398565b90565b61158c90611567565b90565b61159890611583565b90565b906115ac60018060a01b0391610d12565b9181191691161790565b6115bf90611583565b90565b90565b906115da6115d56115e1926115b6565b6115c2565b825461159b565b9055565b6115f16115f89161158f565b60036115c5565b565b6116039061154c565b565b61160f60e0610871565b90565b61161a611605565b9060208080808080808861162c611312565b815201611637611312565b815201611642611312565b81520161164d611312565b815201611658611317565b815201611663611317565b81520161166e61131c565b81525050565b61167c611612565b90565b906117306117276005611690611605565b946116a96116a0600083016113ca565b600088016113d7565b6116c16116b8600183016113ca565b602088016113d7565b6116d96116d0600283016113ca565b604088016113d7565b6116f16116e8600383016113ca565b606088016113d7565b61170961170060048301611406565b60808801611413565b6117216117186004830161143b565b60a08801611413565b0161145f565b60c0840161146c565b565b61173b9061167f565b90565b611746611674565b506117516007611732565b90565b600090565b611762906102e1565b90565b9061176f90611759565b600052602052604060002090565b600161179661179c9261178e611754565b506000611765565b0161145f565b90565b906117ba916117b56117b08261177d565b613329565b6117bc565b565b906117c69161333d565b565b906117d29161179f565b565b600090565b60018060a01b031690565b6117f06117f5916113ad565b6117d9565b90565b61180290546117e4565b90565b61180d6117d4565b5061181860066117f8565b90565b60209181520190565b60207f20726f6c657320666f722073656c660000000000000000000000000000000000917f416363657373436f6e74726f6c3a2063616e206f6e6c792072656e6f756e636560008201520152565b61187f602f60409261181b565b61188881611824565b0190565b6118a29060208101906000818303910152611872565b90565b156118ac57565b6118b46101b3565b62461bcd60e51b8152806118ca6004820161188c565b0390fd5b906118fb916118f6826118f06118ea6118e5613367565b6103a3565b916103a3565b146118a5565b613374565b565b7f5d8e12c39142ff96d79d04d15d1ba1269e4fe57bb9d26f43523628b34ba108ec90565b9061193c92916119376119326118fd565b613329565b611956565b565b61194790611567565b90565b6119539061193e565b90565b9161196361196b9361194a565b9190916133f3565b565b906119789291611921565b565b906119949161198f61198a6118fd565b613329565b6119fe565b565b905090565b6119a760008092611996565b0190565b6119b49061199b565b90565b906119c96119c483610927565b610871565b918252565b606090565b3d6000146119f0576119e43d6119b7565b903d6000602084013e5b565b6119f86119ce565b906119ee565b6000611a2d92819290611a0f6101b3565b9081611a1a816119ab565b03925af1611a266119d3565b5015610217565b611a3357565b6000631d42c86760e21b815280611a4c600482016103f2565b0390fd5b90611a5a9161197a565b565b7f4c02318d8c3aadc98ccf18aebbf3126f651e0c3f6a1de5ff8edcf6724a2ad5c290565b90611a9e9594939291611a99611a94611a5c565b613329565b611d0e565b565b611ab4611aaf611ab9926102c7565b611376565b610274565b90565b611ad0611acb611ad592610d0f565b611376565b610274565b90565b611ae260a0610871565b90565b611aef9051610274565b90565b90611aff60001991610d12565b9181191691161790565b90565b90611b21611b1c611b2892611379565b611b09565b8254611af2565b9055565b611b3690516102c7565b90565b90611b4c67ffffffffffffffff91610d12565b9181191691161790565b611b6a611b65611b6f926102c7565b611376565b6102c7565b90565b90565b90611b8a611b85611b9192611b56565b611b72565b8254611b39565b9055565b60401b90565b90611bb66fffffffffffffffff000000000000000091611b95565b9181191691161790565b90611bd5611bd0611bdc92611b56565b611b72565b8254611b9b565b9055565b611bea90516102e1565b90565b611bf6906113ad565b90565b90611c0e611c09611c1592611759565b611bed565b8254611af2565b9055565b90611c9160806003611c9794611c3e60008201611c3860008801611ae5565b90611b0c565b611c5760018201611c5160208801611ae5565b90611b0c565b611c7060028201611c6a60408801611b2c565b90611b75565b611c8960028201611c8360608801611b2c565b90611bc0565b019201611be0565b90611bf9565b565b90611ca391611c19565b565b611cae906102c7565b9052565b9194611cfb611d0592989795611cf160a096611ce7611d0c9a611cdd60c08a019e60008b0190610ec8565b6020890190610ec8565b6040870190610ec8565b6060850190611ca5565b6080830190611ca5565b0190610549565b565b919390929481611d26611d20886102c7565b916102c7565b108015611e27575b611e0a5784611d46611d406000611abc565b91610274565b14611ded57611de892611daf85611d9e88611d958b611d8c8991611d838a95611d7a611d70611ad8565b9960008b016113d7565b602089016113d7565b60408701611413565b60608501611413565b6080830161146c565b611daa600d8490611395565b611c99565b9394959190917f8ced76aee4b96a1e218e7903610fc7d648023d9075677163a5b31396cb280f9696611ddf6101b3565b96879687611cb2565b0390a1565b60006310ba94e960e31b815280611e06600482016103f2565b0390fd5b60006310ba94e960e31b815280611e23600482016103f2565b0390fd5b5081611e3b611e3542610274565b91611aa0565b1115611d2e565b90611e509594939291611a80565b565b5190565b60081c90565b611e68611e6d91611e56565b6117d9565b90565b611e7a9054611e5c565b90565b611e8690611567565b90565b611e9290611e7d565b90565b611e9e90611567565b90565b611eaa90611e95565b90565b600080fd5b60e01b90565b6000910312611ec357565b6101be565b60209181520190565b60200190565b90611ee4816020936102ba565b0190565b60200190565b90611f0b611f05611efe84611e52565b8093611ec8565b92611ed1565b9060005b818110611f1c5750505090565b909192611f35611f2f6001928651611ed7565b94611ee8565b9101919091611f0f565b5190565b60209181520190565b60005b838110611f60575050906000910152565b806020918301518185015201611f4f565b611f90611f99602093611f9e93611f8781611f3f565b93848093611f43565b95869101611f4c565b610828565b0190565b92611fce611fdc92611fea9694611fc160808801926000890190610603565b8682036020880152611eee565b908482036040860152611eee565b916060818403910152611f71565b90565b611ff56101b3565b3d6000823e3d90fd5b9161203593916120279161201a60608601926000870190610603565b8482036020860152611eee565b916040818403910152611eee565b90565b949293919596909661204988611e52565b61206361205d6120588a611e52565b610274565b91610274565b036121565761207993889388909192939461360d565b61209361208e6120896005611e70565b611e89565b611ea1565b63b48ab8b690839086938690823b15612151576000946120d186926120c6946120ba6101b3565b998a9889978896611eb2565b865260048601611fa2565b03925af1801561214c5761211f575b5091909161211a7f23519238b590c499a2abcf44a33b5f431ac6ca51c22fad26bc2c3d08b97eaa21936121116101b3565b93849384611ffe565b0390a1565b61213f9060003d8111612145575b6121378183610848565b810190611eb8565b386120e0565b503d61212d565b611fed565b611ead565b600063340bc4c960e01b81528061216f600482016103f2565b0390fd5b60ff1690565b61218561218a916113ad565b612173565b90565b6121979054612179565b90565b60081b90565b906121b3610100600160a81b039161219a565b9181191691161790565b6121c690611e95565b90565b90565b906121e16121dc6121e8926121bd565b6121c9565b82546121a0565b9055565b906121f860ff91610d12565b9181191691161790565b61220b90610217565b90565b90565b9061222661222161222d92612202565b61220e565b82546121ec565b9055565b92909261223e600561218d565b61229c5761225061228e9460056121cc565b61226261225b610d34565b829061333d565b61227461226d611a5c565b829061333d565b61228661227f6118fd565b829061333d565b919091613b0e565b61229a60016005612211565b565b600063f92ee8a960e01b8152806122b5600482016103f2565b0390fd5b6122d2906122cd6122c8611a5c565b613329565b6122f4565b565b906122e96122e46122f0926121bd565b6121c9565b825461159b565b9055565b6122ff9060066122d4565b565b61230a906122b9565b565b9061231690611759565b600052602052604060002090565b90565b9061234761234261234c9361233a6117d4565b50600161230c565b612324565b613b5e565b90565b90612359906121bd565b600052602052604060002090565b61238e9160006123836123899361237c6112aa565b5082611765565b0161234f565b61218d565b90565b60018060a01b031690565b6123a86123ad916113ad565b612391565b90565b6123ba905461239c565b90565b6123c690611e95565b90565b905051906123d682610506565b565b906020828203126123f2576123ef916000016123c9565b90565b6101be565b506124069060208101906103c4565b90565b612412906103a3565b9052565b506124259060208101906101e9565b90565b612431906101c8565b9052565b5061244490602081019061051b565b90565b600080fd5b600080fd5b600080fd5b903560016020038236030381121561249757016020813591019167ffffffffffffffff821161249257600182023603831361248d57565b61244c565b612447565b612451565b60209181520190565b91906124bf816124b8816124c49561249c565b809561094a565b610828565b0190565b90356001604003823603038112156124de570190565b612451565b903560016020038236030381121561252457016020813591019167ffffffffffffffff821161251f57600182023603831361251a57565b61244c565b612447565b612451565b60209181520190565b919061254c816125458161255195612529565b809561094a565b610828565b0190565b50612564906020810190610775565b90565b906125a590602061259d6125936040840161258560008801886124e3565b908683036000880152612532565b9482810190612555565b9101906102d4565b90565b6126529161264461263960c083016125d06125c660008701876123f7565b6000860190612409565b6125ea6125e06020870187612416565b6020860190612428565b6126046125fa6040870187612435565b60408601906102e4565b61261e6126146060870187612435565b60608601906102e4565b61262b6080860186612456565b9085830360808701526124a5565b9260a08101906124c8565b9060a0818403910152612567565b90565b93929061268160409161268994612674606089019260008a0190610603565b87820360208901526125a8565b940190610549565b565b9150602090612698611754565b506126ab6126a660036123b0565b6123bd565b6126d7633808a90b9492946126e26126c3600461145f565b6126cb6101b3565b97889687958695611eb2565b855260048501612655565b03915afa908115612727576000916126f9575b5090565b61271a915060203d8111612720575b6127128183610848565b8101906123d8565b386126f5565b503d612708565b611fed565b90612736906121bd565b600052602052604060002090565b9061274e90611759565b600052602052604060002090565b60601b90565b61276b9061275c565b90565b61277790612762565b90565b61278661278b916103a3565b61276e565b9052565b90565b61279e6127a3916102e1565b61278f565b9052565b6014816127ba6127c2936020969561277a565b018092612792565b0190565b60200190565b67ffffffffffffffff81116127e45760208091020190565b610832565b909291926127fe6127f9826127cc565b610871565b938185526020808601920283019281841161283b57915b8383106128225750505050565b60208091612830848661051b565b815201920191612815565b6108a3565b61284b9136916127e9565b90565b909392919261285b6112aa565b5061288361287d6128786128716002879061272c565b8590612744565b61218d565b15610217565b9485612892575b505050505090565b6128e79550906128c96128e293929592946128ba6128ae6101b3565b938492602084016127a7565b60208201810382520382610848565b6128db6128d582611f3f565b916127c6565b2093612840565b613b97565b388080808061288a565b9061291096959493929161290b612906611a5c565b613329565b612a46565b565b61291c60e0610871565b90565b906129c960c060056129cf946129446000820161293e60008801611ae5565b90611b0c565b61295d6001820161295760208801611ae5565b90611b0c565b6129766002820161297060408801611ae5565b90611b0c565b61298f6003820161298960608801611ae5565b90611b0c565b6129a8600482016129a260808801611b2c565b90611b75565b6129c1600482016129bb60a08801611b2c565b90611bc0565b019201611be0565b90611bf9565b565b906129db9161291f565b565b949290979695939160e0860198600087016129f791610ec8565b60208601612a0491610ec8565b60408501612a1191610ec8565b60608401612a1e91610ec8565b60808301612a2b91611ca5565b60a08201612a3891611ca5565b60c001612a4491610549565b565b92959093919480612a5f612a59856102c7565b916102c7565b108015612b7a575b612b5d5786612a7f612a796000611abc565b91610274565b14612b405783612b016000612afa88612af187612ae8888f8f612ad6612b3b9f928f92612acd90612ac4612adf969b91939597999b612abc612912565b9e8f016113d7565b60208d016113d7565b60408b016113d7565b606089016113d7565b60808701611413565b60a08501611413565b60c0830161146c565b60076129d1565b949596929091927f099eb0c4bcb0e32c2243e81b424e1960f39d7ac2fe1598742f19aa8aec203acb97612b326101b3565b978897886129dd565b0390a1565b60006310ba94e960e31b815280612b59600482016103f2565b0390fd5b60006310ba94e960e31b815280612b76600482016103f2565b0390fd5b5080612b8e612b8842610274565b91611aa0565b1115612a67565b90612ba49695949392916128f1565b565b600090565b612bca612bc5612bcf92612bbd612ba6565b50600161230c565b612324565b613bc1565b90565b90612bed91612be8612be38261177d565b613329565b612bef565b565b90612bf991613374565b565b90612c0591612bd2565b565b612c2090612c1b612c16611528565b613329565b612c22565b565b612c2d906004611bf9565b565b612c3890612c07565b565b90612c5e9b9a999897969594939291612c59612c54611a5c565b613329565b612cf7565b565b5090565b5090565b5090565b6001612c789101610274565b90565b634e487b7160e01b600052603260045260246000fd5b9190811015612ca1576020020190565b612c7b565b35612cb081610277565b90565b9190811015612cc3576020020190565b612c7b565b35612cd281610760565b90565b9190811015612ce5576020020190565b612c7b565b35612cf481610506565b90565b909a9599969398949291979a612d0e828290612c60565b612d2a612d24612d1f8c8790612c60565b610274565b91610274565b1415801561312f575b80156130ff575b80156130cf575b80156130a0575b61308357612d54612ba6565b91612d5f6000611abc565b5b80612d7d612d77612d72858790612c60565b610274565b91610274565b101561307357612d97612d9283858491612c91565b612ca6565b9381612dac612da66000611abc565b91610274565b14159081613057575b5061303a57838e8e612dfb612df5612df0612deb8d8f9b612ddd612de2919d89908c91612cb3565b612cc8565b95908991612cb3565b612cc8565b6102c7565b916102c7565b1090811561300a575b50612fed57612e1d612e188e898591612c91565b612ca6565b612e30612e2a6000611abc565b91610274565b14612fd0578d8f918d8f918d8f918d8f918d8f9187828d90612e5192612c91565b612e5a90612ca6565b898d85612e6692612c91565b612e6f90612ca6565b8d8d8d888390612e7e92612cb3565b612e8790612cc8565b90898390612e9492612cb3565b612e9d90612cc8565b918b908b612eaa92612cd5565b612eb390612cea565b92612ebc611ad8565b946000860190612ecb916113d7565b6020850190612ed9916113d7565b6040840190612ee791611413565b6060830190612ef591611413565b6080820190612f039161146c565b600d82612f0f91611395565b90612f1991611c99565b96908b90612f2692612c91565b612f2f90612ca6565b96908a90612f3c92612c91565b612f4590612ca6565b96908990612f5292612cb3565b612f5b90612cc8565b96908890612f6892612cb3565b612f7190612cc8565b91908790612f7e92612cd5565b612f8790612cea565b907f8ced76aee4b96a1e218e7903610fc7d648023d9075677163a5b31396cb280f9695612fb26101b3565b958695612fbf9587611cb2565b0390a1612fcb90612c6c565b612d60565b60006310ba94e960e31b815280612fe9600482016103f2565b0390fd5b60006310ba94e960e31b815280613006600482016103f2565b0390fd5b613020915061301b908b8591612cb3565b612cc8565b61303261302c42610274565b91611aa0565b11158f612e04565b600063340bc4c960e01b815280613053600482016103f2565b0390fd5b905061306b61306586610274565b91610274565b101538612db5565b5050505050505050505050505050565b60006310ba94e960e31b81528061309c600482016103f2565b0390fd5b506130ac828290612c60565b6130c86130c26130bd8b8b90612c68565b610274565b91610274565b1415612d48565b508b6130f86130f26130ed6130e5868690612c60565b938a90612c64565b610274565b91610274565b1415612d41565b508a61312861312261311d613115868690612c60565b938990612c64565b610274565b91610274565b1415612d3a565b5061313b828290612c60565b61315761315161314c8d8890612c60565b610274565b91610274565b1415612d33565b906131729b9a999897969594939291612c3a565b565b606090565b67ffffffffffffffff81116131915760208091020190565b610832565b906131a86131a383613179565b610871565b918252565b6131b5611321565b90565b60005b8281106131c757505050565b6020906131d26131ad565b81840152016131bb565b906132016131e983613196565b926020806131f78693613179565b92019103906131b8565b565b9061320d8261117f565b81101561321e576020809102010190565b612c7b565b61322b613174565b5061323f61323a828490612c60565b6131dc565b9161324a6000611abc565b5b8061326861326261325d868690612c60565b610274565b91610274565b10156132bb576132b6906132af613294600d61328e61328988888791612c91565b612ca6565b90611395565b8661329f84926114fd565b6132a98383613203565b52613203565b5150612c6c565b61324b565b50505090565b6132c96112aa565b50806132de6132d860006101c8565b916101c8565b149081156132eb575b5090565b6132f59150613be1565b386132e7565b6133036112aa565b5061330d81613be1565b908115613319575b5090565b6133239150613c21565b38613315565b61333b90613335613367565b90613da9565b565b9061335f61335a61336493613353818590613e42565b600161230c565b612324565b613f0c565b50565b61336f6117d4565b503390565b9061339661339161339b9361338a818590613f47565b600161230c565b612324565b613fe0565b50565b6133a790611e95565b90565b63ffffffff1690565b6133c76133c26133cc926133aa565b611eb2565b6101c8565b90565b9160206133f19294936133ea60408201966000830190610603565b0190610ec8565b565b9161343760049261342861343c959361340f63a9059cbb6133b3565b926134186101b3565b96879460208601908152016133cf565b60208201810382520383610848565b61418e565b565b9061344882611e52565b811015613459576020809102010190565b612c7b565b91602061348092949361347960408201966000830190610ec8565b0190610ec8565b565b61349661349161349b92610274565b610d12565b6102e1565b90565b634e487b7160e01b600052601160045260246000fd5b6134c36134c991939293610274565b92610274565b916134d5838202610274565b9281840414901517156134e457565b61349e565b6134f86134fe91939293610274565b92610274565b820180921161350957565b61349e565b61351d61352391939293610274565b92610274565b820391821161352e57565b61349e565b61353c90611abc565b9052565b60409061356a613571949695939661356060608401986000850190610603565b6020830190610ec8565b0190613533565b565b60409061359d6135a4949695939661359360608401986000850190610603565b6020830190610ec8565b0190610ec8565b565b6135ba6135b56135bf92610d0f565b611376565b610398565b90565b6135cb906135a6565b90565b6135d790611e95565b90565b60409061360461360b94969593966135fa60608401986000850190610603565b6020830190613533565b0190610ec8565b565b93959190949560805261361e612ba6565b90613627612ba6565b95613630612ba6565b9561363b6007611732565b9461366f61364b60808801611b2c565b61366961366361365d60a08b01611b2c565b92611aa0565b91611aa0565b906141fb565b9360009761367b612ba6565b995b8a61369861369261368d88611e52565b610274565b91610274565b1015613978576136b16136ac868d9061343e565b611ae5565b978b6136c66136c06000611abc565b91610274565b1415908161395c575b5061393f57876136e76136e28d8961343e565b611ae5565b9a6136fc6136f7600d8490611395565b6114fd565b61372f61370b60408301611b2c565b61372961372361371d60608601611b2c565b92611aa0565b91611aa0565b906141fb565b60001461386b57505061374460008b01611ae5565b61375661375083610274565b91610274565b118015613846575b801561383f575b613820575061377760036007016113ca565b6137896137838c610274565b91610274565b106137f35760019b8960400161379e90611ae5565b8b6137a8916134b4565b6137b1916134e9565b99806007600301906137c2826113ca565b906137cc9161350e565b6137d591611b0c565b6137ea916137e4915b906134e9565b9a612c6c565b999a989a61367d565b8961380160036007016113ca565b61381c6000928392639e4c446160e01b84526004840161345e565b0390fd5b61383b9060009182916235acf560e41b835260048301610ed5565b0390fd5b5087613765565b5061385360208b01611ae5565b61386561385f83610274565b91610274565b1061375e565b61387d919e916020829e949e01611ae5565b61388f61388985610274565b91610274565b1061391357918f6138e66137ea95938f6138d96000886138d361390e976138e0956138bf60806137e49e01611be0565b916080516138cd3393613482565b936142f2565b01611ae5565b85906134b4565b906134e9565b9d61390860016138f88593600d611395565b0191613903836113ca565b61350e565b90611b0c565b6137de565b6139206020849201611ae5565b61393b6000928392639e4c446160e01b84526004840161345e565b0390fd5b600063340bc4c960e01b815280613958600482016103f2565b0390fd5b905061397061396a8a610274565b91610274565b1015386136cf565b5097945097509893505050613ae0575b5050816139a66139a061399b60066117f8565b6103a3565b916103a3565b03613ab557806139be6139b885610274565b91610274565b10613a925750806139e06139da6139d560006135c2565b6103a3565b916103a3565b14600014613a2557346139fb6139f584610274565b91610274565b03613a055750505b565b613a21346000938493630f55e7df60e11b855260048501613573565b0390fd5b9034613a3a613a346000611abc565b91610274565b11600014613a6f57613a4c60006135c2565b600090613a6b346000938493630f55e7df60e11b8552600485016135da565b0390fd5b613a7b613a8d9261194a565b9033613a86306135ce565b91926143c5565b613a03565b82613ab18391926000938493630f55e7df60e11b855260048501613573565b0390fd5b82613ac060066117f8565b613adc600080938493630f55e7df60e11b855260048501613540565b0390fd5b613aef60c0613b079301611be0565b90608051903391613b01600019613482565b936142f2565b3880613988565b90613b24613b299392613b1f611528565b61333d565b614414565b565b90565b613b3a613b3f916113ad565b611379565b90565b613b56613b51613b5b92610274565b611376565b610398565b90565b613b8a613b85613b9493613b806000613b8f95613b796117d4565b5001613b2b565b614496565b613b2e565b613b42565b611e95565b90565b613bb1613bbd9293613bb792613bab6112aa565b506144dc565b926102e1565b916102e1565b1490565b613bd96000613bde92613bd2612ba6565b5001613b2b565b614547565b90565b613be96112aa565b5080613c04613bfe635a05180f60e01b6101c8565b916101c8565b14908115613c11575b5090565b613c1b915061455f565b38613c0d565b613c296112aa565b5080613c44613c3e634e821d3360e11b6101c8565b916101c8565b14908115613c51575b5090565b613c5b91506132c1565b38613c4d565b90565b613c78613c73613c7d92613c61565b611376565b610274565b90565b905090565b60007f416363657373436f6e74726f6c3a206163636f756e7420000000000000000000910152565b613cb960178092613c80565b613cc281613c85565b0190565b5190565b613cef613ce692602092613cdd81613cc6565b94858093613c80565b93849101611f4c565b0190565b60007f206973206d697373696e6720726f6c6520000000000000000000000000000000910152565b613d2760118092613c80565b613d3081613cf3565b0190565b613d4e613d599392613d48613d5393613cad565b90613cca565b613d1b565b90613cca565b90565b90565b613d7e613d87602093613d8c93613d7581613cc6565b9384809361181b565b95869101611f4c565b610828565b0190565b613da69160208201916000818403910152613d5f565b90565b90613dbe613db8838390612367565b15610217565b613dc6575050565b613e3e91613e1c613df5613de5613ddf613e21956145f2565b93613b2e565b613def6020613c64565b906147f0565b91613e0d613e016101b3565b93849260208401613d34565b60208201810382520382610848565b613d5c565b613e296101b3565b91829162461bcd60e51b835260048301613d90565b0390fd5b613e56613e50828490612367565b15610217565b613e5f575b5050565b613e816001613e7c6000613e74818690611765565b01859061234f565b612211565b90613e8a613367565b90613ec7613ec1613ebb7f2f8788117e7eff1d82e926ec794901d17c78024a50270940304540a733656f0d95611759565b926121bd565b926121bd565b92613ed06101b3565b80613eda816103f2565b0390a43880613e5b565b613eed90611567565b90565b613f04613eff613f0992610398565b611376565b610274565b90565b90613f3f613f39613f34613f2f6000613f4496613f276112aa565b500194613ee4565b613ef0565b613482565b91613b2b565b614a10565b90565b613f52818390612367565b613f5b575b5050565b613f7d6000613f786000613f70818690611765565b01859061234f565b612211565b90613f86613367565b90613fc3613fbd613fb77ff6391f5c32d9c69d2a47ea670b442974b53935d1edc7fd64eb21e047a839171b95611759565b926121bd565b926121bd565b92613fcc6101b3565b80613fd6816103f2565b0390a43880613f57565b9061401361400d614008614003600061401896613ffb6112aa565b500194613ee4565b613ef0565b613482565b91613b2b565b614b06565b90565b67ffffffffffffffff811161403957614035602091610828565b0190565b610832565b9061405061404b8361401b565b610871565b918252565b60007f5361666545524332303a206c6f772d6c6576656c2063616c6c206661696c6564910152565b614087602061403e565b9061409460208301614055565b565b61409e61407d565b90565b6140aa81610217565b036140b157565b600080fd5b905051906140c3826140a1565b565b906020828203126140df576140dc916000016140b6565b90565b6101be565b60207f6f74207375636365656400000000000000000000000000000000000000000000917f5361666545524332303a204552433230206f7065726174696f6e20646964206e60008201520152565b61413f602a60409261181b565b614148816140e4565b0190565b6141629060208101906000818303910152614132565b90565b1561416c57565b6141746101b3565b62461bcd60e51b81528061418a6004820161414c565b0390fd5b6141d89161419e6141ad9261339e565b906141a7614096565b91614c10565b6141b681611f3f565b6141c96141c36000611abc565b91610274565b149081156141da575b50614165565b565b6141f5915060206141ea82611f3f565b8183010191016140c5565b386141d2565b6142036112aa565b50816142186142126000611abc565b91610274565b1490811561424b575b5090811561422e575b5090565b905061424361423d4292610274565b91610274565b10153861422a565b905061426061425a4292610274565b91610274565b1038614221565b60209181520190565b600080fd5b9037565b90918261428591614267565b9160018060fb1b0381116142a857829160206142a49202938491614275565b0190565b614270565b906142de6142e9916142f0969897956060956142d160808701936000880190610549565b8583036020870152614279565b966040830190610603565b0190610549565b565b92938361431061430a6143056000610d18565b6102e1565b916102e1565b0361431d575b5050505050565b61433561432f8584868991869361284e565b15610217565b614365575050509061435661435b92614351600193600261272c565b612744565b612211565b3880808080614316565b8461438e918593949190916143786101b3565b9586956304cb8cd560e31b8752600487016142ad565b0390fd5b6040906143bc6143c394969593966143b260608401986000850190610603565b6020830190610603565b0190610ec8565b565b61441293916143fe60049461440d93946143e26323b872dd6133b3565b939190916143ee6101b3565b9788956020870190815201614392565b60208201810382520383610848565b61418e565b565b9061442b6144246144329361158f565b60036115c5565b6004611bf9565b565b5490565b600052602060002090565b61444c81614434565b8210156144675761445e600191614438565b91020190600090565b612c7b565b1c90565b614480906008614485930261446c565b611448565b90565b906144939154614470565b90565b6144b59160006144af926144a8611754565b5001614443565b90614488565b90565b5190565b906144c6826144b8565b8110156144d7576020809102010190565b612c7b565b91906144e6611754565b506144f16000611abc565b905b8161450e614508614503876144b8565b610274565b91610274565b10156145405761453461453a9161452e6145298786906144bc565b611be0565b90614c33565b91612c6c565b906144f3565b9192505090565b600061455c91614555612ba6565b5001614434565b90565b6145676112aa565b508061458261457c637965db0b60e01b6101c8565b916101c8565b1490811561458f575b5090565b6145999150614c73565b3861458b565b606090565b90565b60ff1690565b6145c16145bc6145c6926145a4565b611376565b6145a7565b90565b6145d360146145ad565b90565b6145ea6145e56145ef926145a7565b611376565b610274565b90565b61460f61460a6146259261460461459f565b50613ee4565b613ef0565b61461f61461a6145c9565b6145d6565b906147f0565b90565b90565b61463f61463a61464492614628565b611376565b610274565b90565b369037565b90614671614659836119b7565b926020806146678693610927565b9201910390614647565b565b600360fc1b90565b9061468582611f3f565b81101561469757600160209102010190565b612c7b565b600f60fb1b90565b90565b6146bb6146b66146c0926146a4565b611376565b610274565b90565b6146cc90610274565b600081146146db576001900390565b61349e565b6f181899199a1a9b1b9c1cb0b131b232b360811b90565b6146ff6146e0565b90565b90565b61471961471461471e92614702565b611376565b610274565b90565b60f81b90565b90565b61473e61473961474392614727565b611376565b6145a7565b90565b6147659061475f61475961476a946145a7565b91610274565b9061446c565b610274565b90565b60007f537472696e67733a20686578206c656e67746820696e73756666696369656e74910152565b6147a16020809261181b565b6147aa8161476d565b0190565b6147c49060208101906000818303910152614795565b90565b156147ce57565b6147d66101b3565b62461bcd60e51b8152806147ec600482016147ae565b0390fd5b91906147fa61459f565b5061489461488461483061482b61481b6002614816879161462b565b6134b4565b614825600261462b565b906134e9565b61464c565b92614839614673565b6148528561484c60009360001a93611abc565b9061467b565b5361485b61469c565b6148748561486e60019360001a936146a7565b9061467b565b5361487f600261462b565b6134b4565b61488e60016146a7565b906134e9565b925b836148aa6148a460016146a7565b91610274565b1115614911576148b86146f7565b816148c3600f614705565b1691601083101561490c576148df61490092614906941a614721565b6148ef8591889060001a9261467b565b536148fa600461472a565b90614746565b936146c3565b92614896565b612c7b565b6149399293506149349061492e6149286000611abc565b91610274565b146147c7565b613d5c565b90565b90565b600052602060002090565b5490565b6149578161494a565b8210156149725761496960019161493f565b91020190600090565b612c7b565b1b90565b9190600861499791029161499160001984614977565b92614977565b9181191691161790565b91906149b76149b26149bf93611759565b611bed565b90835461497b565b9055565b90815491680100000000000000008310156149f357826149eb9160016149f19501815561494e565b906149a1565b565b610832565b90614a0290611759565b600052602052604060002090565b614a186112aa565b50614a2d614a27828490614c99565b15610217565b600014614a7057614a66614a6b92614a51614a4a6000850161493c565b82906149c3565b6001614a5f60008501614434565b93016149f8565b611b0c565b600190565b5050600090565b634e487b7160e01b600052603160045260246000fd5b614a9f91614a99611754565b916149a1565b565b614aaa8161494a565b8015614acb576001900390614ac8614ac2838361494e565b90614a8d565b55565b614a77565b9190614ae6614ae1614aee93611379565b611b09565b90835461497b565b9055565b614b0491614afe612ba6565b91614ad0565b565b614b0e6112aa565b50614b25614b206001830184906149f8565b6113ca565b9081614b3a614b346000611abc565b91610274565b1415600014614c0857614bba926001614bb59284614b63600096614b5d856146a7565b9061350e565b614b80614b71888501614434565b614b7a866146a7565b9061350e565b80614b93614b8d84610274565b91610274565b03614bbf575b505050614baf614baa86830161493c565b614aa1565b016149f8565b614af2565b600190565b614c0092614bf2614bde614bd8614bfb948c8901614443565b90614488565b93614bec85918c8901614443565b906149a1565b918585016149f8565b611b0c565b388080614b99565b505050600090565b90614c309291614c1e6119ce565b5090614c2a6000611abc565b91614d85565b90565b614c3b611754565b5080614c4f614c49846102e1565b916102e1565b10600014614c655790614c6191614ddf565b5b90565b614c6e91614ddf565b614c62565b614c7b6112aa565b50614c95614c8f6301ffc9a760e01b6101c8565b916101c8565b1490565b614cb7916001614cb292614cab6112aa565b50016149f8565b6113ca565b614cca614cc46000611abc565b91610274565b141590565b614cd890611e95565b90565b60207f722063616c6c0000000000000000000000000000000000000000000000000000917f416464726573733a20696e73756666696369656e742062616c616e636520666f60008201520152565b614d36602660409261181b565b614d3f81614cdb565b0190565b614d599060208101906000818303910152614d29565b90565b15614d6357565b614d6b6101b3565b62461bcd60e51b815280614d8160048201614d43565b0390fd5b9160008091614ddc9593614d976119ce565b50614dbe614da430614ccf565b31614db7614db185610274565b91610274565b1015614d5c565b8591602082019151925af191614dd26119d3565b9092909192614e7a565b90565b614de7611754565b50600052602052604060002090565b60007f416464726573733a2063616c6c20746f206e6f6e2d636f6e7472616374000000910152565b614e2b601d60209261181b565b614e3481614df6565b0190565b614e4e9060208101906000818303910152614e1e565b90565b15614e5857565b614e606101b3565b62461bcd60e51b815280614e7660048201614e38565b0390fd5b919290614e856119ce565b50600014614ecb5750614e9782611f3f565b614eaa614ea46000611abc565b91610274565b14614eb4575b5090565b614ec0614ec591614f1f565b614e51565b38614eb0565b8290614ed682611f3f565b614ee9614ee36000611abc565b91610274565b11600014614efa5750805190602001fd5b614f1b90614f066101b3565b91829162461bcd60e51b835260048301613d90565b0390fd5b614f276112aa565b503b614f3c614f366000611abc565b91610274565b119056fea26469706673582212209b133d36303e49007373f2ed22cf983ed518061b7d81d902daa498b0e0d6ef5764736f6c634300081b003360806040523461002f576100196100146100fa565b61011b565b610021610034565b610722610380823961072290f35b61003a565b60405190565b600080fd5b601f801991011690565b634e487b7160e01b600052604160045260246000fd5b906100699061003f565b810190811060018060401b0382111761008157604052565b610049565b90610099610092610034565b928361005f565b565b600080fd5b60018060a01b031690565b6100b4906100a0565b90565b6100c0816100ab565b036100c757565b600080fd5b905051906100d9826100b7565b565b906020828203126100f5576100f2916000016100cc565b90565b61009b565b610118610aa28038038061010d81610086565b9283398101906100db565b90565b61012c9061012761012e565b61026e565b565b61013e610139610291565b6102d6565b565b60209181520190565b60207f6e206973206e6f74206120636f6e747261637400000000000000000000000000917f5570677261646561626c65426561636f6e3a20696d706c656d656e746174696f60008201520152565b6101a46033604092610140565b6101ad81610149565b0190565b6101c79060208101906000818303910152610197565b90565b156101d157565b6101d9610034565b62461bcd60e51b8152806101ef600482016101b1565b0390fd5b60001b90565b9061020a60018060a01b03916101f3565b9181191691161790565b90565b61022b610226610230926100a0565b610214565b6100a0565b90565b61023c90610217565b90565b61024890610233565b90565b90565b9061026361025e61026a9261023f565b61024b565b82546101f9565b9055565b61028a9061028361027e8261035e565b6101ca565b600161024e565b565b600090565b61029961028c565b503390565b60001c90565b60018060a01b031690565b6102bb6102c09161029e565b6102a4565b90565b6102cd90546102af565b90565b60000190565b6102e060006102c3565b6102eb82600061024e565b9061031f6103197f8be0079c531659141344cd1fd0a4f28419497f9722a3daafe3b4186f6b6457e09361023f565b9161023f565b91610328610034565b80610332816102d0565b0390a3565b600090565b90565b90565b61035661035161035b9261033f565b610214565b61033c565b90565b610366610337565b503b61037b6103756000610342565b9161033c565b119056fe60806040526004361015610013575b610219565b61001e60003561006d565b80633659cfe6146100685780635c60da1b14610063578063715018a61461005e5780638da5cb5b146100595763f2fde38b0361000e576101e6565b6101b1565b61017e565b610149565b6100e3565b60e01c90565b60405190565b600080fd5b600080fd5b60018060a01b031690565b61009790610083565b90565b6100a38161008e565b036100aa57565b600080fd5b905035906100bc8261009a565b565b906020828203126100d8576100d5916000016100af565b90565b61007e565b60000190565b34610111576100fb6100f63660046100be565b6102b3565b610103610073565b8061010d816100dd565b0390f35b610079565b600091031261012157565b61007e565b61012f9061008e565b9052565b919061014790600060208501940190610126565b565b3461017957610159366004610116565b6101756101646102f5565b61016c610073565b91829182610133565b0390f35b610079565b346101ac5761018e366004610116565b61019661035c565b61019e610073565b806101a8816100dd565b0390f35b610079565b346101e1576101c1366004610116565b6101dd6101cc610366565b6101d4610073565b91829182610133565b0390f35b610079565b34610214576101fe6101f93660046100be565b610473565b610206610073565b80610210816100dd565b0390f35b610079565b600080fd5b61022f9061022a610501565b610268565b565b90565b61024861024361024d92610083565b610231565b610083565b90565b61025990610234565b90565b61026590610250565b90565b6102718161061b565b61029b7fbc7cd75a20ee27fd9adebab32041f755214dbc6bffa90cc0225b39da2e5c2d3b9161025c565b906102a4610073565b806102ae816100dd565b0390a2565b6102bc9061021e565b565b600090565b60001c90565b60018060a01b031690565b6102e06102e5916102c3565b6102c9565b90565b6102f290546102d4565b90565b6102fd6102be565b5061030860016102e8565b90565b610313610501565b61031b610348565b565b90565b61033461032f6103399261031d565b610231565b610083565b90565b61034590610320565b90565b61035a610355600061033c565b610639565b565b61036461030b565b565b61036e6102be565b5061037960006102e8565b90565b61038d90610388610501565b610442565b565b60209181520190565b60207f6464726573730000000000000000000000000000000000000000000000000000917f4f776e61626c653a206e6577206f776e657220697320746865207a65726f206160008201520152565b6103f3602660409261038f565b6103fc81610398565b0190565b61041690602081019060008183039101526103e6565b90565b1561042057565b610428610073565b62461bcd60e51b81528061043e60048201610400565b0390fd5b6104719061046c8161046561045f61045a600061033c565b61008e565b9161008e565b1415610419565b610639565b565b61047c9061037c565b565b60007f4f776e61626c653a2063616c6c6572206973206e6f7420746865206f776e6572910152565b6104b26020809261038f565b6104bb8161047e565b0190565b6104d590602081019060008183039101526104a6565b90565b156104df57565b6104e7610073565b62461bcd60e51b8152806104fd600482016104bf565b0390fd5b61052b61050c610366565b61052561051f61051a61069a565b61008e565b9161008e565b146104d8565b565b60207f6e206973206e6f74206120636f6e747261637400000000000000000000000000917f5570677261646561626c65426561636f6e3a20696d706c656d656e746174696f60008201520152565b610588603360409261038f565b6105918161052d565b0190565b6105ab906020810190600081830391015261057b565b90565b156105b557565b6105bd610073565b62461bcd60e51b8152806105d360048201610595565b0390fd5b60001b90565b906105ee60018060a01b03916105d7565b9181191691161790565b90565b9061061061060b6106179261025c565b6105f8565b82546105dd565b9055565b6106379061063061062b826106cb565b6105ae565b60016105fb565b565b61064360006102e8565b61064e8260006105fb565b9061068261067c7f8be0079c531659141344cd1fd0a4f28419497f9722a3daafe3b4186f6b6457e09361025c565b9161025c565b9161068b610073565b80610695816100dd565b0390a3565b6106a26102be565b503390565b600090565b90565b6106c36106be6106c89261031d565b610231565b6106ac565b90565b6106d36106a7565b503b6106e86106e260006106af565b916106ac565b119056fea26469706673582212203fbf94b3aa182e7120f7ee578f52eecce106fbe2a323e7e4f1511d9f27768ead64736f6c634300081b0033",
          "opcodes": "PUSH1 0x80 PUSH1 0x40 MSTORE CALLVALUE PUSH2 0x2F JUMPI PUSH2 0x19 PUSH2 0x14 PUSH2 0xFA JUMP JUMPDEST PUSH2 0x169 JUMP JUMPDEST PUSH2 0x21 PUSH2 0x34 JUMP JUMPDEST PUSH2 0x25D4 PUSH2 0x397 DUP3 CODECOPY PUSH2 0x25D4 SWAP1 RETURN JUMPDEST PUSH2 0x3A JUMP JUMPDEST PUSH1 0x40 MLOAD SWAP1 JUMP JUMPDEST PUSH1 0x0 DUP1 REVERT JUMPDEST PUSH1 0x1F DUP1 NOT SWAP2 ADD AND SWAP1 JUMP JUMPDEST PUSH4 0x4E487B71 PUSH1 0xE0 SHL PUSH1 0x0 MSTORE PUSH1 0x41 PUSH1 0x4 MSTORE PUSH1 0x24 PUSH1 0x0 REVERT JUMPDEST SWAP1 PUSH2 0x69 SWAP1 PUSH2 0x3F JUMP JUMPDEST DUP2 ADD SWAP1 DUP2 LT PUSH1 0x1 DUP1 PUSH1 0x40 SHL SUB DUP3 GT OR PUSH2 0x81 JUMPI PUSH1 0x40 MSTORE JUMP JUMPDEST PUSH2 0x49 JUMP JUMPDEST SWAP1 PUSH2 0x99 PUSH2 0x92 PUSH2 0x34 JUMP JUMPDEST SWAP3 DUP4 PUSH2 0x5F JUMP JUMPDEST JUMP JUMPDEST PUSH1 0x0 DUP1 REVERT JUMPDEST PUSH1 0x1 DUP1 PUSH1 0xA0 SHL SUB AND SWAP1 JUMP JUMPDEST PUSH2 0xB4 SWAP1 PUSH2 0xA0 JUMP JUMPDEST SWAP1 JUMP JUMPDEST PUSH2 0xC0 DUP2 PUSH2 0xAB JUMP JUMPDEST SUB PUSH2 0xC7 JUMPI JUMP JUMPDEST PUSH1 0x0 DUP1 REVERT JUMPDEST SWAP1 POP MLOAD SWAP1 PUSH2 0xD9 DUP3 PUSH2 0xB7 JUMP JUMPDEST JUMP JUMPDEST SWAP1 PUSH1 0x20 DUP3 DUP3 SUB SLT PUSH2 0xF5 JUMPI PUSH2 0xF2 SWAP2 PUSH1 0x0 ADD PUSH2 0xCC JUMP JUMPDEST SWAP1 JUMP JUMPDEST PUSH2 0x9B JUMP JUMPDEST PUSH2 0x118 PUSH2 0x83AF DUP1 CODESIZE SUB DUP1 PUSH2 0x10D DUP2 PUSH2 0x86 JUMP JUMPDEST SWAP3 DUP4 CODECOPY DUP2 ADD SWAP1 PUSH2 0xDB JUMP JUMPDEST SWAP1 JUMP JUMPDEST PUSH1 0x0 ADD SWAP1 JUMP JUMPDEST PUSH2 0x129 PUSH2 0x34 JUMP JUMPDEST RETURNDATASIZE PUSH1 0x0 DUP3 RETURNDATACOPY RETURNDATASIZE SWAP1 REVERT JUMPDEST SWAP1 JUMP JUMPDEST PUSH2 0x149 PUSH2 0x144 PUSH2 0x14E SWAP3 PUSH2 0xA0 JUMP JUMPDEST PUSH2 0x132 JUMP JUMPDEST PUSH2 0xA0 JUMP JUMPDEST SWAP1 JUMP JUMPDEST PUSH2 0x15A SWAP1 PUSH2 0x135 JUMP JUMPDEST SWAP1 JUMP JUMPDEST PUSH2 0x166 SWAP1 PUSH2 0x151 JUMP JUMPDEST SWAP1 JUMP JUMPDEST PUSH2 0x171 PUSH2 0x1CA JUMP JUMPDEST PUSH2 0x179 PUSH2 0x34 JUMP JUMPDEST PUSH2 0x4FA2 DUP2 ADD DUP2 DUP2 LT PUSH1 0x1 DUP1 PUSH1 0x40 SHL SUB DUP3 GT OR PUSH2 0x1C5 JUMPI PUSH2 0x1A1 DUP3 SWAP2 PUSH2 0x4FA2 PUSH2 0x296B DUP5 CODECOPY PUSH2 0x11B JUMP JUMPDEST SUB SWAP1 PUSH1 0x0 CREATE SWAP1 DUP2 ISZERO PUSH2 0x1C0 JUMPI PUSH2 0x1B9 PUSH2 0x1BE SWAP3 PUSH2 0x15D JUMP JUMPDEST PUSH2 0x265 JUMP JUMPDEST JUMP JUMPDEST PUSH2 0x121 JUMP JUMPDEST PUSH2 0x49 JUMP JUMPDEST PUSH2 0x1D2 PUSH2 0x1D4 JUMP JUMPDEST JUMP JUMPDEST PUSH2 0x1E4 PUSH2 0x1DF PUSH2 0x2C7 JUMP JUMPDEST PUSH2 0x335 JUMP JUMPDEST JUMP JUMPDEST PUSH2 0x1EF SWAP1 PUSH2 0xAB JUMP JUMPDEST SWAP1 MSTORE JUMP JUMPDEST SWAP2 SWAP1 PUSH2 0x207 SWAP1 PUSH1 0x0 PUSH1 0x20 DUP6 ADD SWAP5 ADD SWAP1 PUSH2 0x1E6 JUMP JUMPDEST JUMP JUMPDEST PUSH1 0x0 SHL SWAP1 JUMP JUMPDEST SWAP1 PUSH2 0x220 PUSH1 0x1 DUP1 PUSH1 0xA0 SHL SUB SWAP2 PUSH2 0x209 JUMP JUMPDEST SWAP2 DUP2 NOT AND SWAP2 AND OR SWAP1 JUMP JUMPDEST PUSH2 0x233 SWAP1 PUSH2 0x135 JUMP JUMPDEST SWAP1 JUMP JUMPDEST PUSH2 0x23F SWAP1 PUSH2 0x22A JUMP JUMPDEST SWAP1 JUMP JUMPDEST SWAP1 JUMP JUMPDEST SWAP1 PUSH2 0x25A PUSH2 0x255 PUSH2 0x261 SWAP3 PUSH2 0x236 JUMP JUMPDEST PUSH2 0x242 JUMP JUMPDEST DUP3 SLOAD PUSH2 0x20F JUMP JUMPDEST SWAP1 SSTORE JUMP JUMPDEST PUSH2 0x26D PUSH2 0x34 JUMP JUMPDEST SWAP1 PUSH2 0xAA2 DUP3 ADD DUP3 DUP2 LT PUSH1 0x1 DUP1 PUSH1 0x40 SHL SUB DUP3 GT OR PUSH2 0x2BD JUMPI DUP3 SWAP2 PUSH2 0x297 SWAP2 PUSH2 0xAA2 PUSH2 0x790D DUP6 CODECOPY PUSH2 0x1F3 JUMP JUMPDEST SUB SWAP1 PUSH1 0x0 CREATE SWAP1 DUP2 ISZERO PUSH2 0x2B8 JUMPI PUSH2 0x2B1 PUSH2 0x2B6 SWAP3 PUSH1 0x1 PUSH2 0x245 JUMP JUMPDEST PUSH2 0x335 JUMP JUMPDEST JUMP JUMPDEST PUSH2 0x121 JUMP JUMPDEST PUSH2 0x49 JUMP JUMPDEST PUSH1 0x0 SWAP1 JUMP JUMPDEST PUSH2 0x2CF PUSH2 0x2C2 JUMP JUMPDEST POP CALLER SWAP1 JUMP JUMPDEST PUSH1 0x0 SHR SWAP1 JUMP JUMPDEST PUSH1 0x1 DUP1 PUSH1 0xA0 SHL SUB AND SWAP1 JUMP JUMPDEST PUSH2 0x2F1 PUSH2 0x2F6 SWAP2 PUSH2 0x2D4 JUMP JUMPDEST PUSH2 0x2DA JUMP JUMPDEST SWAP1 JUMP JUMPDEST PUSH2 0x303 SWAP1 SLOAD PUSH2 0x2E5 JUMP JUMPDEST SWAP1 JUMP JUMPDEST PUSH2 0x30F SWAP1 PUSH2 0x151 JUMP JUMPDEST SWAP1 JUMP JUMPDEST SWAP1 JUMP JUMPDEST SWAP1 PUSH2 0x32A PUSH2 0x325 PUSH2 0x331 SWAP3 PUSH2 0x306 JUMP JUMPDEST PUSH2 0x312 JUMP JUMPDEST DUP3 SLOAD PUSH2 0x20F JUMP JUMPDEST SWAP1 SSTORE JUMP JUMPDEST PUSH2 0x33F PUSH1 0x0 PUSH2 0x2F9 JUMP JUMPDEST PUSH2 0x34A DUP3 PUSH1 0x0 PUSH2 0x315 JUMP JUMPDEST SWAP1 PUSH2 0x37E PUSH2 0x378 PUSH32 0x8BE0079C531659141344CD1FD0A4F28419497F9722A3DAAFE3B4186F6B6457E0 SWAP4 PUSH2 0x306 JUMP JUMPDEST SWAP2 PUSH2 0x306 JUMP JUMPDEST SWAP2 PUSH2 0x387 PUSH2 0x34 JUMP JUMPDEST DUP1 PUSH2 0x391 DUP2 PUSH2 0x11B JUMP JUMPDEST SUB SWAP1 LOG3 JUMP INVALID PUSH1 0x80 PUSH1 0x40 MSTORE PUSH1 0x4 CALLDATASIZE LT ISZERO PUSH2 0x13 JUMPI JUMPDEST PUSH2 0x403 JUMP JUMPDEST PUSH2 0x1E PUSH1 0x0 CALLDATALOAD PUSH2 0x8D JUMP JUMPDEST DUP1 PUSH4 0x1A4B671D EQ PUSH2 0x88 JUMPI DUP1 PUSH4 0x1BCE4583 EQ PUSH2 0x83 JUMPI DUP1 PUSH4 0x59659E90 EQ PUSH2 0x7E JUMPI DUP1 PUSH4 0x69B3934D EQ PUSH2 0x79 JUMPI DUP1 PUSH4 0x715018A6 EQ PUSH2 0x74 JUMPI DUP1 PUSH4 0x8DA5CB5B EQ PUSH2 0x6F JUMPI PUSH4 0xF2FDE38B SUB PUSH2 0xE JUMPI PUSH2 0x3D0 JUMP JUMPDEST PUSH2 0x39B JUMP JUMPDEST PUSH2 0x368 JUMP JUMPDEST PUSH2 0x32C JUMP JUMPDEST PUSH2 0x2F7 JUMP JUMPDEST PUSH2 0x215 JUMP JUMPDEST PUSH2 0x1B4 JUMP JUMPDEST PUSH1 0xE0 SHR SWAP1 JUMP JUMPDEST PUSH1 0x40 MLOAD SWAP1 JUMP JUMPDEST PUSH1 0x0 DUP1 REVERT JUMPDEST PUSH1 0x0 DUP1 REVERT JUMPDEST SWAP1 JUMP JUMPDEST PUSH2 0xAF DUP2 PUSH2 0xA3 JUMP JUMPDEST SUB PUSH2 0xB6 JUMPI JUMP JUMPDEST PUSH1 0x0 DUP1 REVERT JUMPDEST SWAP1 POP CALLDATALOAD SWAP1 PUSH2 0xC8 DUP3 PUSH2 0xA6 JUMP JUMPDEST JUMP JUMPDEST PUSH1 0x1 DUP1 PUSH1 0xA0 SHL SUB AND SWAP1 JUMP JUMPDEST PUSH2 0xDE SWAP1 PUSH2 0xCA JUMP JUMPDEST SWAP1 JUMP JUMPDEST PUSH2 0xEA DUP2 PUSH2 0xD5 JUMP JUMPDEST SUB PUSH2 0xF1 JUMPI JUMP JUMPDEST PUSH1 0x0 DUP1 REVERT JUMPDEST SWAP1 POP CALLDATALOAD SWAP1 PUSH2 0x103 DUP3 PUSH2 0xE1 JUMP JUMPDEST JUMP JUMPDEST SWAP1 JUMP JUMPDEST PUSH2 0x111 DUP2 PUSH2 0x105 JUMP JUMPDEST SUB PUSH2 0x118 JUMPI JUMP JUMPDEST PUSH1 0x0 DUP1 REVERT JUMPDEST SWAP1 POP CALLDATALOAD SWAP1 PUSH2 0x12A DUP3 PUSH2 0x108 JUMP JUMPDEST JUMP JUMPDEST SWAP1 SWAP2 PUSH1 0xC0 DUP3 DUP5 SUB SLT PUSH2 0x18C JUMPI PUSH2 0x145 DUP4 PUSH1 0x0 DUP5 ADD PUSH2 0xBB JUMP JUMPDEST SWAP3 PUSH2 0x153 DUP2 PUSH1 0x20 DUP6 ADD PUSH2 0xF6 JUMP JUMPDEST SWAP3 PUSH2 0x161 DUP3 PUSH1 0x40 DUP4 ADD PUSH2 0xF6 JUMP JUMPDEST SWAP3 PUSH2 0x189 PUSH2 0x172 DUP5 PUSH1 0x60 DUP6 ADD PUSH2 0xF6 JUMP JUMPDEST SWAP4 PUSH2 0x180 DUP2 PUSH1 0x80 DUP7 ADD PUSH2 0xF6 JUMP JUMPDEST SWAP4 PUSH1 0xA0 ADD PUSH2 0x11D JUMP JUMPDEST SWAP1 JUMP JUMPDEST PUSH2 0x9E JUMP JUMPDEST PUSH2 0x19A SWAP1 PUSH2 0xD5 JUMP JUMPDEST SWAP1 MSTORE JUMP JUMPDEST SWAP2 SWAP1 PUSH2 0x1B2 SWAP1 PUSH1 0x0 PUSH1 0x20 DUP6 ADD SWAP5 ADD SWAP1 PUSH2 0x191 JUMP JUMPDEST JUMP JUMPDEST CALLVALUE PUSH2 0x1EB JUMPI PUSH2 0x1E7 PUSH2 0x1D6 PUSH2 0x1CA CALLDATASIZE PUSH1 0x4 PUSH2 0x12C JUMP JUMPDEST SWAP5 SWAP4 SWAP1 SWAP4 SWAP3 SWAP2 SWAP3 PUSH2 0x52F JUMP JUMPDEST PUSH2 0x1DE PUSH2 0x93 JUMP JUMPDEST SWAP2 DUP3 SWAP2 DUP3 PUSH2 0x19E JUMP JUMPDEST SUB SWAP1 RETURN JUMPDEST PUSH2 0x99 JUMP JUMPDEST SWAP1 PUSH1 0x20 DUP3 DUP3 SUB SLT PUSH2 0x20A JUMPI PUSH2 0x207 SWAP2 PUSH1 0x0 ADD PUSH2 0xF6 JUMP JUMPDEST SWAP1 JUMP JUMPDEST PUSH2 0x9E JUMP JUMPDEST PUSH1 0x0 ADD SWAP1 JUMP JUMPDEST CALLVALUE PUSH2 0x243 JUMPI PUSH2 0x22D PUSH2 0x228 CALLDATASIZE PUSH1 0x4 PUSH2 0x1F0 JUMP JUMPDEST PUSH2 0x68C JUMP JUMPDEST PUSH2 0x235 PUSH2 0x93 JUMP JUMPDEST DUP1 PUSH2 0x23F DUP2 PUSH2 0x20F JUMP JUMPDEST SUB SWAP1 RETURN JUMPDEST PUSH2 0x99 JUMP JUMPDEST PUSH1 0x0 SWAP2 SUB SLT PUSH2 0x253 JUMPI JUMP JUMPDEST PUSH2 0x9E JUMP JUMPDEST SHR SWAP1 JUMP JUMPDEST PUSH1 0x1 DUP1 PUSH1 0xA0 SHL SUB AND SWAP1 JUMP JUMPDEST PUSH2 0x277 SWAP1 PUSH1 0x8 PUSH2 0x27C SWAP4 MUL PUSH2 0x258 JUMP JUMPDEST PUSH2 0x25C JUMP JUMPDEST SWAP1 JUMP JUMPDEST SWAP1 PUSH2 0x28A SWAP2 SLOAD PUSH2 0x267 JUMP JUMPDEST SWAP1 JUMP JUMPDEST PUSH2 0x29A PUSH1 0x1 PUSH1 0x0 SWAP1 PUSH2 0x27F JUMP JUMPDEST SWAP1 JUMP JUMPDEST SWAP1 JUMP JUMPDEST PUSH2 0x2B4 PUSH2 0x2AF PUSH2 0x2B9 SWAP3 PUSH2 0xCA JUMP JUMPDEST PUSH2 0x29D JUMP JUMPDEST PUSH2 0xCA JUMP JUMPDEST SWAP1 JUMP JUMPDEST PUSH2 0x2C5 SWAP1 PUSH2 0x2A0 JUMP JUMPDEST SWAP1 JUMP JUMPDEST PUSH2 0x2D1 SWAP1 PUSH2 0x2BC JUMP JUMPDEST SWAP1 JUMP JUMPDEST PUSH2 0x2DD SWAP1 PUSH2 0x2C8 JUMP JUMPDEST SWAP1 MSTORE JUMP JUMPDEST SWAP2 SWAP1 PUSH2 0x2F5 SWAP1 PUSH1 0x0 PUSH1 0x20 DUP6 ADD SWAP5 ADD SWAP1 PUSH2 0x2D4 JUMP JUMPDEST JUMP JUMPDEST CALLVALUE PUSH2 0x327 JUMPI PUSH2 0x307 CALLDATASIZE PUSH1 0x4 PUSH2 0x248 JUMP JUMPDEST PUSH2 0x323 PUSH2 0x312 PUSH2 0x28D JUMP JUMPDEST PUSH2 0x31A PUSH2 0x93 JUMP JUMPDEST SWAP2 DUP3 SWAP2 DUP3 PUSH2 0x2E1 JUMP JUMPDEST SUB SWAP1 RETURN JUMPDEST PUSH2 0x99 JUMP JUMPDEST CALLVALUE PUSH2 0x363 JUMPI PUSH2 0x35F PUSH2 0x34E PUSH2 0x342 CALLDATASIZE PUSH1 0x4 PUSH2 0x12C JUMP JUMPDEST SWAP5 SWAP4 SWAP1 SWAP4 SWAP3 SWAP2 SWAP3 PUSH2 0x6FA JUMP JUMPDEST PUSH2 0x356 PUSH2 0x93 JUMP JUMPDEST SWAP2 DUP3 SWAP2 DUP3 PUSH2 0x19E JUMP JUMPDEST SUB SWAP1 RETURN JUMPDEST PUSH2 0x99 JUMP JUMPDEST CALLVALUE PUSH2 0x396 JUMPI PUSH2 0x378 CALLDATASIZE PUSH1 0x4 PUSH2 0x248 JUMP JUMPDEST PUSH2 0x380 PUSH2 0x87F JUMP JUMPDEST PUSH2 0x388 PUSH2 0x93 JUMP JUMPDEST DUP1 PUSH2 0x392 DUP2 PUSH2 0x20F JUMP JUMPDEST SUB SWAP1 RETURN JUMPDEST PUSH2 0x99 JUMP JUMPDEST CALLVALUE PUSH2 0x3CB JUMPI PUSH2 0x3AB CALLDATASIZE PUSH1 0x4 PUSH2 0x248 JUMP JUMPDEST PUSH2 0x3C7 PUSH2 0x3B6 PUSH2 0x8B5 JUMP JUMPDEST PUSH2 0x3BE PUSH2 0x93 JUMP JUMPDEST SWAP2 DUP3 SWAP2 DUP3 PUSH2 0x19E JUMP JUMPDEST SUB SWAP1 RETURN JUMPDEST PUSH2 0x99 JUMP JUMPDEST CALLVALUE PUSH2 0x3FE JUMPI PUSH2 0x3E8 PUSH2 0x3E3 CALLDATASIZE PUSH1 0x4 PUSH2 0x1F0 JUMP JUMPDEST PUSH2 0x9C2 JUMP JUMPDEST PUSH2 0x3F0 PUSH2 0x93 JUMP JUMPDEST DUP1 PUSH2 0x3FA DUP2 PUSH2 0x20F JUMP JUMPDEST SUB SWAP1 RETURN JUMPDEST PUSH2 0x99 JUMP JUMPDEST PUSH1 0x0 DUP1 REVERT JUMPDEST PUSH1 0x0 SWAP1 JUMP JUMPDEST PUSH2 0x416 SWAP1 PUSH2 0xA3 JUMP JUMPDEST SWAP1 MSTORE JUMP JUMPDEST PUSH2 0x423 SWAP1 PUSH2 0x105 JUMP JUMPDEST SWAP1 MSTORE JUMP JUMPDEST SWAP1 SWAP6 SWAP5 SWAP3 PUSH2 0x473 SWAP5 PUSH2 0x462 PUSH2 0x46C SWAP3 PUSH2 0x458 PUSH1 0x80 SWAP7 PUSH2 0x44E PUSH1 0xA0 DUP9 ADD SWAP13 PUSH1 0x0 DUP10 ADD SWAP1 PUSH2 0x40D JUMP JUMPDEST PUSH1 0x20 DUP8 ADD SWAP1 PUSH2 0x191 JUMP JUMPDEST PUSH1 0x40 DUP6 ADD SWAP1 PUSH2 0x191 JUMP JUMPDEST PUSH1 0x60 DUP4 ADD SWAP1 PUSH2 0x191 JUMP JUMPDEST ADD SWAP1 PUSH2 0x41A JUMP JUMPDEST JUMP JUMPDEST PUSH1 0x1F DUP1 NOT SWAP2 ADD AND SWAP1 JUMP JUMPDEST PUSH4 0x4E487B71 PUSH1 0xE0 SHL PUSH1 0x0 MSTORE PUSH1 0x41 PUSH1 0x4 MSTORE PUSH1 0x24 PUSH1 0x0 REVERT JUMPDEST SWAP1 PUSH2 0x49F SWAP1 PUSH2 0x475 JUMP JUMPDEST DUP2 ADD SWAP1 DUP2 LT PUSH8 0xFFFFFFFFFFFFFFFF DUP3 GT OR PUSH2 0x4B9 JUMPI PUSH1 0x40 MSTORE JUMP JUMPDEST PUSH2 0x47F JUMP JUMPDEST PUSH1 0x20 ADD SWAP1 JUMP JUMPDEST MLOAD SWAP1 JUMP JUMPDEST SWAP1 PUSH2 0x4DB PUSH2 0x4D4 PUSH2 0x93 JUMP JUMPDEST SWAP3 DUP4 PUSH2 0x495 JUMP JUMPDEST JUMP JUMPDEST PUSH8 0xFFFFFFFFFFFFFFFF DUP2 GT PUSH2 0x4FB JUMPI PUSH2 0x4F7 PUSH1 0x20 SWAP2 PUSH2 0x475 JUMP JUMPDEST ADD SWAP1 JUMP JUMPDEST PUSH2 0x47F JUMP JUMPDEST SWAP1 PUSH2 0x512 PUSH2 0x50D DUP4 PUSH2 0x4DD JUMP JUMPDEST PUSH2 0x4C8 JUMP JUMPDEST SWAP2 DUP3 MSTORE JUMP JUMPDEST PUSH2 0x521 PUSH1 0x0 PUSH2 0x500 JUMP JUMPDEST SWAP1 JUMP JUMPDEST PUSH2 0x52C PUSH2 0x517 JUMP JUMPDEST SWAP1 JUMP JUMPDEST PUSH2 0x56E SWAP3 SWAP2 SWAP5 PUSH2 0x590 SWAP7 PUSH2 0x55F SWAP3 PUSH2 0x545 PUSH2 0x408 JUMP JUMPDEST POP SWAP4 SWAP6 SWAP2 SWAP1 SWAP2 PUSH2 0x553 PUSH2 0x93 JUMP JUMPDEST SWAP7 DUP8 SWAP6 PUSH1 0x20 DUP8 ADD PUSH2 0x427 JUMP JUMPDEST PUSH1 0x20 DUP3 ADD DUP2 SUB DUP3 MSTORE SUB DUP3 PUSH2 0x495 JUMP JUMPDEST PUSH2 0x580 PUSH2 0x57A DUP3 PUSH2 0x4C4 JUMP JUMPDEST SWAP2 PUSH2 0x4BE JUMP JUMPDEST KECCAK256 SWAP1 PUSH2 0x58A PUSH2 0x524 JUMP JUMPDEST SWAP2 PUSH2 0xAA1 JUMP JUMPDEST SWAP1 JUMP JUMPDEST PUSH2 0x5A4 SWAP1 PUSH2 0x59F PUSH2 0xBBA JUMP JUMPDEST PUSH2 0x5F9 JUMP JUMPDEST JUMP JUMPDEST PUSH1 0x0 SHR SWAP1 JUMP JUMPDEST PUSH2 0x5B8 PUSH2 0x5BD SWAP2 PUSH2 0x5A6 JUMP JUMPDEST PUSH2 0x25C JUMP JUMPDEST SWAP1 JUMP JUMPDEST PUSH2 0x5CA SWAP1 SLOAD PUSH2 0x5AC JUMP JUMPDEST SWAP1 JUMP JUMPDEST PUSH1 0x0 DUP1 REVERT JUMPDEST PUSH1 0xE0 SHL SWAP1 JUMP JUMPDEST PUSH1 0x0 SWAP2 SUB SLT PUSH2 0x5E3 JUMPI JUMP JUMPDEST PUSH2 0x9E JUMP JUMPDEST PUSH2 0x5F0 PUSH2 0x93 JUMP JUMPDEST RETURNDATASIZE PUSH1 0x0 DUP3 RETURNDATACOPY RETURNDATASIZE SWAP1 REVERT JUMPDEST PUSH2 0x60B PUSH2 0x606 PUSH1 0x1 PUSH2 0x5C0 JUMP JUMPDEST PUSH2 0x2C8 JUMP JUMPDEST SWAP1 PUSH4 0x3659CFE6 SWAP1 DUP3 EXTCODESIZE ISZERO PUSH2 0x687 JUMPI PUSH2 0x643 SWAP3 PUSH2 0x638 PUSH1 0x0 DUP1 SWAP5 PUSH2 0x62C PUSH2 0x93 JUMP JUMPDEST SWAP7 DUP8 SWAP6 DUP7 SWAP5 DUP6 SWAP4 PUSH2 0x5D2 JUMP JUMPDEST DUP4 MSTORE PUSH1 0x4 DUP4 ADD PUSH2 0x19E JUMP JUMPDEST SUB SWAP3 GAS CALL DUP1 ISZERO PUSH2 0x682 JUMPI PUSH2 0x655 JUMPI JUMPDEST POP JUMP JUMPDEST PUSH2 0x675 SWAP1 PUSH1 0x0 RETURNDATASIZE DUP2 GT PUSH2 0x67B JUMPI JUMPDEST PUSH2 0x66D DUP2 DUP4 PUSH2 0x495 JUMP JUMPDEST DUP2 ADD SWAP1 PUSH2 0x5D8 JUMP JUMPDEST CODESIZE PUSH2 0x652 JUMP JUMPDEST POP RETURNDATASIZE PUSH2 0x663 JUMP JUMPDEST PUSH2 0x5E8 JUMP JUMPDEST PUSH2 0x5CD JUMP JUMPDEST PUSH2 0x695 SWAP1 PUSH2 0x593 JUMP JUMPDEST JUMP JUMPDEST PUSH2 0x6A0 SWAP1 PUSH2 0x2A0 JUMP JUMPDEST SWAP1 JUMP JUMPDEST PUSH2 0x6AC SWAP1 PUSH2 0x697 JUMP JUMPDEST SWAP1 JUMP JUMPDEST PUSH2 0x6B8 SWAP1 PUSH2 0x2BC JUMP JUMPDEST SWAP1 JUMP JUMPDEST PUSH2 0x6F1 PUSH2 0x6F8 SWAP5 PUSH2 0x6E7 PUSH1 0x60 SWAP5 SWAP9 SWAP8 SWAP6 PUSH2 0x6DD PUSH1 0x80 DUP7 ADD SWAP11 PUSH1 0x0 DUP8 ADD SWAP1 PUSH2 0x191 JUMP JUMPDEST PUSH1 0x20 DUP6 ADD SWAP1 PUSH2 0x191 JUMP JUMPDEST PUSH1 0x40 DUP4 ADD SWAP1 PUSH2 0x191 JUMP JUMPDEST ADD SWAP1 PUSH2 0x41A JUMP JUMPDEST JUMP JUMPDEST SWAP1 PUSH2 0x75C SWAP2 SWAP4 SWAP3 SWAP4 PUSH2 0x70A PUSH2 0x408 JUMP JUMPDEST POP PUSH2 0x73A DUP6 SWAP2 PUSH2 0x72B DUP7 DUP10 DUP12 SWAP2 PUSH2 0x71F PUSH2 0x93 JUMP JUMPDEST SWAP7 DUP8 SWAP6 PUSH1 0x20 DUP8 ADD PUSH2 0x427 JUMP JUMPDEST PUSH1 0x20 DUP3 ADD DUP2 SUB DUP3 MSTORE SUB DUP3 PUSH2 0x495 JUMP JUMPDEST PUSH2 0x74C PUSH2 0x746 DUP3 PUSH2 0x4C4 JUMP JUMPDEST SWAP2 PUSH2 0x4BE JUMP JUMPDEST KECCAK256 SWAP1 PUSH2 0x756 PUSH2 0x524 JUMP JUMPDEST SWAP2 PUSH2 0xCAD JUMP JUMPDEST SWAP4 PUSH2 0x76E PUSH2 0x769 DUP7 PUSH2 0x6A3 JUMP JUMPDEST PUSH2 0x6AF JUMP JUMPDEST SWAP1 PUSH4 0x63ACC14D SWAP4 SWAP3 SWAP5 SWAP1 DUP3 EXTCODESIZE ISZERO PUSH2 0x829 JUMPI PUSH1 0x0 SWAP5 PUSH2 0x7AA DUP7 SWAP3 PUSH2 0x79F SWAP5 PUSH2 0x793 PUSH2 0x93 JUMP JUMPDEST SWAP10 DUP11 SWAP9 DUP10 SWAP8 DUP9 SWAP7 PUSH2 0x5D2 JUMP JUMPDEST DUP7 MSTORE PUSH1 0x4 DUP7 ADD PUSH2 0x6BB JUMP JUMPDEST SUB SWAP3 GAS CALL DUP1 ISZERO PUSH2 0x824 JUMPI PUSH2 0x7F7 JUMPI JUMPDEST POP DUP1 PUSH2 0x7F1 PUSH32 0x346F0211197DD599E2E2A8C828F6E7DC39E8A49171CE0A728428E8B778C61EEA SWAP2 PUSH2 0x7E8 PUSH2 0x93 JUMP JUMPDEST SWAP2 DUP3 SWAP2 DUP3 PUSH2 0x19E JUMP JUMPDEST SUB SWAP1 LOG1 SWAP1 JUMP JUMPDEST PUSH2 0x817 SWAP1 PUSH1 0x0 RETURNDATASIZE DUP2 GT PUSH2 0x81D JUMPI JUMPDEST PUSH2 0x80F DUP2 DUP4 PUSH2 0x495 JUMP JUMPDEST DUP2 ADD SWAP1 PUSH2 0x5D8 JUMP JUMPDEST CODESIZE PUSH2 0x7B9 JUMP JUMPDEST POP RETURNDATASIZE PUSH2 0x805 JUMP JUMPDEST PUSH2 0x5E8 JUMP JUMPDEST PUSH2 0x5CD JUMP JUMPDEST PUSH2 0x836 PUSH2 0xBBA JUMP JUMPDEST PUSH2 0x83E PUSH2 0x86B JUMP JUMPDEST JUMP JUMPDEST SWAP1 JUMP JUMPDEST PUSH2 0x857 PUSH2 0x852 PUSH2 0x85C SWAP3 PUSH2 0x840 JUMP JUMPDEST PUSH2 0x29D JUMP JUMPDEST PUSH2 0xCA JUMP JUMPDEST SWAP1 JUMP JUMPDEST PUSH2 0x868 SWAP1 PUSH2 0x843 JUMP JUMPDEST SWAP1 JUMP JUMPDEST PUSH2 0x87D PUSH2 0x878 PUSH1 0x0 PUSH2 0x85F JUMP JUMPDEST PUSH2 0xE3C JUMP JUMPDEST JUMP JUMPDEST PUSH2 0x887 PUSH2 0x82E JUMP JUMPDEST JUMP JUMPDEST PUSH1 0x1 DUP1 PUSH1 0xA0 SHL SUB AND SWAP1 JUMP JUMPDEST PUSH2 0x8A0 PUSH2 0x8A5 SWAP2 PUSH2 0x5A6 JUMP JUMPDEST PUSH2 0x889 JUMP JUMPDEST SWAP1 JUMP JUMPDEST PUSH2 0x8B2 SWAP1 SLOAD PUSH2 0x894 JUMP JUMPDEST SWAP1 JUMP JUMPDEST PUSH2 0x8BD PUSH2 0x408 JUMP JUMPDEST POP PUSH2 0x8C8 PUSH1 0x0 PUSH2 0x8A8 JUMP JUMPDEST SWAP1 JUMP JUMPDEST PUSH2 0x8DC SWAP1 PUSH2 0x8D7 PUSH2 0xBBA JUMP JUMPDEST PUSH2 0x991 JUMP JUMPDEST JUMP JUMPDEST PUSH1 0x20 SWAP2 DUP2 MSTORE ADD SWAP1 JUMP JUMPDEST PUSH1 0x20 PUSH32 0x6464726573730000000000000000000000000000000000000000000000000000 SWAP2 PUSH32 0x4F776E61626C653A206E6577206F776E657220697320746865207A65726F2061 PUSH1 0x0 DUP3 ADD MSTORE ADD MSTORE JUMP JUMPDEST PUSH2 0x942 PUSH1 0x26 PUSH1 0x40 SWAP3 PUSH2 0x8DE JUMP JUMPDEST PUSH2 0x94B DUP2 PUSH2 0x8E7 JUMP JUMPDEST ADD SWAP1 JUMP JUMPDEST PUSH2 0x965 SWAP1 PUSH1 0x20 DUP2 ADD SWAP1 PUSH1 0x0 DUP2 DUP4 SUB SWAP2 ADD MSTORE PUSH2 0x935 JUMP JUMPDEST SWAP1 JUMP JUMPDEST ISZERO PUSH2 0x96F JUMPI JUMP JUMPDEST PUSH2 0x977 PUSH2 0x93 JUMP JUMPDEST PUSH3 0x461BCD PUSH1 0xE5 SHL DUP2 MSTORE DUP1 PUSH2 0x98D PUSH1 0x4 DUP3 ADD PUSH2 0x94F JUMP JUMPDEST SUB SWAP1 REVERT JUMPDEST PUSH2 0x9C0 SWAP1 PUSH2 0x9BB DUP2 PUSH2 0x9B4 PUSH2 0x9AE PUSH2 0x9A9 PUSH1 0x0 PUSH2 0x85F JUMP JUMPDEST PUSH2 0xD5 JUMP JUMPDEST SWAP2 PUSH2 0xD5 JUMP JUMPDEST EQ ISZERO PUSH2 0x968 JUMP JUMPDEST PUSH2 0xE3C JUMP JUMPDEST JUMP JUMPDEST PUSH2 0x9CB SWAP1 PUSH2 0x8CB JUMP JUMPDEST JUMP JUMPDEST SWAP1 JUMP JUMPDEST PUSH2 0x9DC PUSH2 0x9E1 SWAP2 PUSH2 0x105 JUMP JUMPDEST PUSH2 0x9CD JUMP JUMPDEST SWAP1 MSTORE JUMP JUMPDEST PUSH1 0x60 SHL SWAP1 JUMP JUMPDEST PUSH2 0x9F4 SWAP1 PUSH2 0x9E5 JUMP JUMPDEST SWAP1 JUMP JUMPDEST PUSH2 0xA00 SWAP1 PUSH2 0x9EB JUMP JUMPDEST SWAP1 JUMP JUMPDEST PUSH2 0xA0F PUSH2 0xA14 SWAP2 PUSH2 0xD5 JUMP JUMPDEST PUSH2 0x9F7 JUMP JUMPDEST SWAP1 MSTORE JUMP JUMPDEST SWAP1 POP SWAP1 JUMP JUMPDEST PUSH1 0x0 JUMPDEST DUP4 DUP2 LT PUSH2 0xA31 JUMPI POP POP SWAP1 PUSH1 0x0 SWAP2 ADD MSTORE JUMP JUMPDEST DUP1 PUSH1 0x20 SWAP2 DUP4 ADD MLOAD DUP2 DUP6 ADD MSTORE ADD PUSH2 0xA20 JUMP JUMPDEST PUSH2 0xA67 PUSH2 0xA5E SWAP3 PUSH1 0x20 SWAP3 PUSH2 0xA55 DUP2 PUSH2 0x4C4 JUMP JUMPDEST SWAP5 DUP6 DUP1 SWAP4 PUSH2 0xA18 JUMP JUMPDEST SWAP4 DUP5 SWAP2 ADD PUSH2 0xA1D JUMP JUMPDEST ADD SWAP1 JUMP JUMPDEST PUSH1 0x14 DUP1 SWAP4 PUSH2 0xA8F PUSH1 0x20 DUP5 PUSH2 0xA87 PUSH2 0xA97 SWAP7 PUSH2 0xA9E SWAP12 SWAP11 SWAP9 PUSH2 0x9D0 JUMP JUMPDEST ADD DUP1 SWAP3 PUSH2 0xA03 JUMP JUMPDEST ADD DUP1 SWAP3 PUSH2 0xA03 JUMP JUMPDEST ADD SWAP1 PUSH2 0xA42 JUMP JUMPDEST SWAP1 JUMP JUMPDEST PUSH2 0xB34 SWAP3 SWAP2 PUSH2 0xADE PUSH2 0xAED SWAP3 PUSH2 0xAB5 PUSH2 0x408 JUMP JUMPDEST POP SWAP2 SWAP4 PUSH2 0xACA PUSH2 0xAC5 PUSH1 0x1 PUSH2 0x5C0 JUMP JUMPDEST PUSH2 0x2C8 JUMP JUMPDEST PUSH2 0xAD2 PUSH2 0x93 JUMP JUMPDEST SWAP6 DUP7 SWAP5 PUSH1 0x20 DUP7 ADD PUSH2 0xA6B JUMP JUMPDEST PUSH1 0x20 DUP3 ADD DUP2 SUB DUP3 MSTORE SUB DUP3 PUSH2 0x495 JUMP JUMPDEST PUSH2 0xAFF PUSH2 0xAF9 DUP3 PUSH2 0x4C4 JUMP JUMPDEST SWAP2 PUSH2 0x4BE JUMP JUMPDEST KECCAK256 PUSH2 0x148A PUSH2 0xB0F PUSH1 0x20 DUP3 ADD PUSH2 0x4C8 JUMP JUMPDEST SWAP1 DUP1 DUP3 MSTORE PUSH2 0x1115 PUSH1 0x20 DUP4 ADD CODECOPY PUSH2 0xB2D PUSH2 0xB27 DUP3 PUSH2 0x4C4 JUMP JUMPDEST SWAP2 PUSH2 0x4BE JUMP JUMPDEST KECCAK256 SWAP1 PUSH2 0xEA9 JUMP JUMPDEST SWAP1 JUMP JUMPDEST PUSH1 0x0 PUSH32 0x4F776E61626C653A2063616C6C6572206973206E6F7420746865206F776E6572 SWAP2 ADD MSTORE JUMP JUMPDEST PUSH2 0xB6B PUSH1 0x20 DUP1 SWAP3 PUSH2 0x8DE JUMP JUMPDEST PUSH2 0xB74 DUP2 PUSH2 0xB37 JUMP JUMPDEST ADD SWAP1 JUMP JUMPDEST PUSH2 0xB8E SWAP1 PUSH1 0x20 DUP2 ADD SWAP1 PUSH1 0x0 DUP2 DUP4 SUB SWAP2 ADD MSTORE PUSH2 0xB5F JUMP JUMPDEST SWAP1 JUMP JUMPDEST ISZERO PUSH2 0xB98 JUMPI JUMP JUMPDEST PUSH2 0xBA0 PUSH2 0x93 JUMP JUMPDEST PUSH3 0x461BCD PUSH1 0xE5 SHL DUP2 MSTORE DUP1 PUSH2 0xBB6 PUSH1 0x4 DUP3 ADD PUSH2 0xB78 JUMP JUMPDEST SUB SWAP1 REVERT JUMPDEST PUSH2 0xBE4 PUSH2 0xBC5 PUSH2 0x8B5 JUMP JUMPDEST PUSH2 0xBDE PUSH2 0xBD8 PUSH2 0xBD3 PUSH2 0xECA JUMP JUMPDEST PUSH2 0xD5 JUMP JUMPDEST SWAP2 PUSH2 0xD5 JUMP JUMPDEST EQ PUSH2 0xB91 JUMP JUMPDEST JUMP JUMPDEST PUSH2 0xBFA PUSH2 0xBF5 PUSH2 0xBFF SWAP3 PUSH2 0x840 JUMP JUMPDEST PUSH2 0x29D JUMP JUMPDEST PUSH2 0xA3 JUMP JUMPDEST SWAP1 JUMP JUMPDEST PUSH2 0xC0B SWAP1 PUSH2 0x2A0 JUMP JUMPDEST SWAP1 JUMP JUMPDEST PUSH2 0xC17 SWAP1 PUSH2 0xC02 JUMP JUMPDEST SWAP1 JUMP JUMPDEST PUSH2 0xC23 SWAP1 PUSH2 0x2A0 JUMP JUMPDEST SWAP1 JUMP JUMPDEST PUSH2 0xC2F SWAP1 PUSH2 0xC1A JUMP JUMPDEST SWAP1 JUMP JUMPDEST PUSH2 0xC3B SWAP1 PUSH2 0x2BC JUMP JUMPDEST SWAP1 JUMP JUMPDEST PUSH1 0x20 SWAP2 DUP2 MSTORE ADD SWAP1 JUMP JUMPDEST PUSH2 0xC66 PUSH2 0xC6F PUSH1 0x20 SWAP4 PUSH2 0xC74 SWAP4 PUSH2 0xC5D DUP2 PUSH2 0x4C4 JUMP JUMPDEST SWAP4 DUP5 DUP1 SWAP4 PUSH2 0xC3E JUMP JUMPDEST SWAP6 DUP7 SWAP2 ADD PUSH2 0xA1D JUMP JUMPDEST PUSH2 0x475 JUMP JUMPDEST ADD SWAP1 JUMP JUMPDEST PUSH2 0xC9D PUSH2 0xCAA SWAP5 SWAP3 SWAP4 PUSH2 0xC93 PUSH1 0x60 DUP5 ADD SWAP6 PUSH1 0x0 DUP6 ADD SWAP1 PUSH2 0x191 JUMP JUMPDEST PUSH1 0x20 DUP4 ADD SWAP1 PUSH2 0x191 JUMP JUMPDEST PUSH1 0x40 DUP2 DUP5 SUB SWAP2 ADD MSTORE PUSH2 0xC47 JUMP JUMPDEST SWAP1 JUMP JUMPDEST PUSH2 0xD3D SWAP1 SWAP4 SWAP3 SWAP2 SWAP4 PUSH2 0xCBD PUSH2 0x408 JUMP JUMPDEST POP PUSH2 0xCFD DUP6 SWAP2 PUSH2 0xCEE PUSH2 0xCD8 PUSH2 0xCD3 PUSH1 0x1 PUSH2 0x5C0 JUMP JUMPDEST PUSH2 0x2C8 JUMP JUMPDEST DUP7 SWAP1 PUSH2 0xCE2 PUSH2 0x93 JUMP JUMPDEST SWAP6 DUP7 SWAP5 PUSH1 0x20 DUP7 ADD PUSH2 0xA6B JUMP JUMPDEST PUSH1 0x20 DUP3 ADD DUP2 SUB DUP3 MSTORE SUB DUP3 PUSH2 0x495 JUMP JUMPDEST PUSH2 0xD0F PUSH2 0xD09 DUP3 PUSH2 0x4C4 JUMP JUMPDEST SWAP2 PUSH2 0x4BE JUMP JUMPDEST KECCAK256 PUSH2 0x148A PUSH2 0xD1F PUSH1 0x20 DUP3 ADD PUSH2 0x4C8 JUMP JUMPDEST SWAP1 DUP1 DUP3 MSTORE PUSH2 0x1115 PUSH1 0x20 DUP4 ADD CODECOPY PUSH2 0xD38 PUSH1 0x0 SWAP3 SWAP2 SWAP3 PUSH2 0xBE6 JUMP JUMPDEST PUSH2 0x1062 JUMP JUMPDEST SWAP3 PUSH2 0xD57 PUSH2 0xD52 PUSH2 0xD4D DUP7 PUSH2 0xC0E JUMP JUMPDEST PUSH2 0xC26 JUMP JUMPDEST PUSH2 0xC32 JUMP JUMPDEST PUSH4 0xCF7A1D77 SWAP2 SWAP1 PUSH2 0xD70 PUSH2 0xD6B PUSH1 0x1 PUSH2 0x5C0 JUMP JUMPDEST PUSH2 0x2C8 JUMP JUMPDEST SWAP4 SWAP3 DUP2 EXTCODESIZE ISZERO PUSH2 0xDE7 JUMPI PUSH1 0x0 PUSH2 0xD98 SWAP2 PUSH2 0xDA3 DUP3 SWAP7 PUSH2 0xD8C PUSH2 0x93 JUMP JUMPDEST SWAP9 DUP10 SWAP8 DUP9 SWAP7 DUP8 SWAP6 PUSH2 0x5D2 JUMP JUMPDEST DUP6 MSTORE PUSH1 0x4 DUP6 ADD PUSH2 0xC78 JUMP JUMPDEST SUB SWAP3 GAS CALL DUP1 ISZERO PUSH2 0xDE2 JUMPI PUSH2 0xDB5 JUMPI JUMPDEST POP JUMP JUMPDEST PUSH2 0xDD5 SWAP1 PUSH1 0x0 RETURNDATASIZE DUP2 GT PUSH2 0xDDB JUMPI JUMPDEST PUSH2 0xDCD DUP2 DUP4 PUSH2 0x495 JUMP JUMPDEST DUP2 ADD SWAP1 PUSH2 0x5D8 JUMP JUMPDEST CODESIZE PUSH2 0xDB2 JUMP JUMPDEST POP RETURNDATASIZE PUSH2 0xDC3 JUMP JUMPDEST PUSH2 0x5E8 JUMP JUMPDEST PUSH2 0x5CD JUMP JUMPDEST PUSH1 0x0 SHL SWAP1 JUMP JUMPDEST SWAP1 PUSH2 0xE03 PUSH1 0x1 DUP1 PUSH1 0xA0 SHL SUB SWAP2 PUSH2 0xDEC JUMP JUMPDEST SWAP2 DUP2 NOT AND SWAP2 AND OR SWAP1 JUMP JUMPDEST PUSH2 0xE16 SWAP1 PUSH2 0x2BC JUMP JUMPDEST SWAP1 JUMP JUMPDEST SWAP1 JUMP JUMPDEST SWAP1 PUSH2 0xE31 PUSH2 0xE2C PUSH2 0xE38 SWAP3 PUSH2 0xE0D JUMP JUMPDEST PUSH2 0xE19 JUMP JUMPDEST DUP3 SLOAD PUSH2 0xDF2 JUMP JUMPDEST SWAP1 SSTORE JUMP JUMPDEST PUSH2 0xE46 PUSH1 0x0 PUSH2 0x8A8 JUMP JUMPDEST PUSH2 0xE51 DUP3 PUSH1 0x0 PUSH2 0xE1C JUMP JUMPDEST SWAP1 PUSH2 0xE85 PUSH2 0xE7F PUSH32 0x8BE0079C531659141344CD1FD0A4F28419497F9722A3DAAFE3B4186F6B6457E0 SWAP4 PUSH2 0xE0D JUMP JUMPDEST SWAP2 PUSH2 0xE0D JUMP JUMPDEST SWAP2 PUSH2 0xE8E PUSH2 0x93 JUMP JUMPDEST DUP1 PUSH2 0xE98 DUP2 PUSH2 0x20F JUMP JUMPDEST SUB SWAP1 LOG3 JUMP JUMPDEST PUSH2 0xEA6 SWAP1 PUSH2 0x2BC JUMP JUMPDEST SWAP1 JUMP JUMPDEST SWAP1 PUSH2 0xEC7 SWAP2 PUSH2 0xEB6 PUSH2 0x408 JUMP JUMPDEST POP SWAP1 PUSH2 0xEC1 ADDRESS PUSH2 0xE9D JUMP JUMPDEST SWAP2 PUSH2 0x10EB JUMP JUMPDEST SWAP1 JUMP JUMPDEST PUSH2 0xED2 PUSH2 0x408 JUMP JUMPDEST POP CALLER SWAP1 JUMP JUMPDEST PUSH1 0x0 PUSH32 0x437265617465323A20696E73756666696369656E742062616C616E6365000000 SWAP2 ADD MSTORE JUMP JUMPDEST PUSH2 0xF0C PUSH1 0x1D PUSH1 0x20 SWAP3 PUSH2 0x8DE JUMP JUMPDEST PUSH2 0xF15 DUP2 PUSH2 0xED7 JUMP JUMPDEST ADD SWAP1 JUMP JUMPDEST PUSH2 0xF2F SWAP1 PUSH1 0x20 DUP2 ADD SWAP1 PUSH1 0x0 DUP2 DUP4 SUB SWAP2 ADD MSTORE PUSH2 0xEFF JUMP JUMPDEST SWAP1 JUMP JUMPDEST ISZERO PUSH2 0xF39 JUMPI JUMP JUMPDEST PUSH2 0xF41 PUSH2 0x93 JUMP JUMPDEST PUSH3 0x461BCD PUSH1 0xE5 SHL DUP2 MSTORE DUP1 PUSH2 0xF57 PUSH1 0x4 DUP3 ADD PUSH2 0xF19 JUMP JUMPDEST SUB SWAP1 REVERT JUMPDEST PUSH1 0x0 PUSH32 0x437265617465323A2062797465636F6465206C656E677468206973207A65726F SWAP2 ADD MSTORE JUMP JUMPDEST PUSH2 0xF8F PUSH1 0x20 DUP1 SWAP3 PUSH2 0x8DE JUMP JUMPDEST PUSH2 0xF98 DUP2 PUSH2 0xF5B JUMP JUMPDEST ADD SWAP1 JUMP JUMPDEST PUSH2 0xFB2 SWAP1 PUSH1 0x20 DUP2 ADD SWAP1 PUSH1 0x0 DUP2 DUP4 SUB SWAP2 ADD MSTORE PUSH2 0xF83 JUMP JUMPDEST SWAP1 JUMP JUMPDEST ISZERO PUSH2 0xFBC JUMPI JUMP JUMPDEST PUSH2 0xFC4 PUSH2 0x93 JUMP JUMPDEST PUSH3 0x461BCD PUSH1 0xE5 SHL DUP2 MSTORE DUP1 PUSH2 0xFDA PUSH1 0x4 DUP3 ADD PUSH2 0xF9C JUMP JUMPDEST SUB SWAP1 REVERT JUMPDEST PUSH1 0x0 PUSH32 0x437265617465323A204661696C6564206F6E206465706C6F7900000000000000 SWAP2 ADD MSTORE JUMP JUMPDEST PUSH2 0x1013 PUSH1 0x19 PUSH1 0x20 SWAP3 PUSH2 0x8DE JUMP JUMPDEST PUSH2 0x101C DUP2 PUSH2 0xFDE JUMP JUMPDEST ADD SWAP1 JUMP JUMPDEST PUSH2 0x1036 SWAP1 PUSH1 0x20 DUP2 ADD SWAP1 PUSH1 0x0 DUP2 DUP4 SUB SWAP2 ADD MSTORE PUSH2 0x1006 JUMP JUMPDEST SWAP1 JUMP JUMPDEST ISZERO PUSH2 0x1040 JUMPI JUMP JUMPDEST PUSH2 0x1048 PUSH2 0x93 JUMP JUMPDEST PUSH3 0x461BCD PUSH1 0xE5 SHL DUP2 MSTORE DUP1 PUSH2 0x105E PUSH1 0x4 DUP3 ADD PUSH2 0x1020 JUMP JUMPDEST SUB SWAP1 REVERT JUMPDEST SWAP2 SWAP1 SWAP2 PUSH2 0x106D PUSH2 0x408 JUMP JUMPDEST POP PUSH2 0x1094 PUSH2 0x107A ADDRESS PUSH2 0xE9D JUMP JUMPDEST BALANCE PUSH2 0x108D PUSH2 0x1087 DUP5 PUSH2 0xA3 JUMP JUMPDEST SWAP2 PUSH2 0xA3 JUMP JUMPDEST LT ISZERO PUSH2 0xF32 JUMP JUMPDEST PUSH2 0x10BA PUSH2 0x10A0 DUP4 PUSH2 0x4C4 JUMP JUMPDEST PUSH2 0x10B3 PUSH2 0x10AD PUSH1 0x0 PUSH2 0xBE6 JUMP JUMPDEST SWAP2 PUSH2 0xA3 JUMP JUMPDEST EQ ISZERO PUSH2 0xFB5 JUMP JUMPDEST PUSH1 0x20 DUP3 MLOAD SWAP3 ADD SWAP1 CREATE2 SWAP1 PUSH2 0x10E9 DUP3 PUSH2 0x10E2 PUSH2 0x10DC PUSH2 0x10D7 PUSH1 0x0 PUSH2 0x85F JUMP JUMPDEST PUSH2 0xD5 JUMP JUMPDEST SWAP2 PUSH2 0xD5 JUMP JUMPDEST EQ ISZERO PUSH2 0x1039 JUMP JUMPDEST JUMP JUMPDEST SWAP1 PUSH1 0x55 SWAP3 PUSH1 0xB SWAP3 PUSH2 0x10FA PUSH2 0x408 JUMP JUMPDEST POP PUSH1 0x40 MLOAD SWAP3 PUSH1 0x40 DUP5 ADD MSTORE PUSH1 0x20 DUP4 ADD MSTORE DUP2 MSTORE ADD PUSH1 0xFF DUP2 MSTORE8 KECCAK256 SWAP1 JUMP INVALID PUSH1 0x80 PUSH1 0x40 MSTORE CALLVALUE PUSH1 0x1C JUMPI PUSH1 0xE PUSH1 0x20 JUMP JUMPDEST PUSH2 0x145E PUSH2 0x2C DUP3 CODECOPY PUSH2 0x145E SWAP1 RETURN JUMPDEST PUSH1 0x26 JUMP JUMPDEST PUSH1 0x40 MLOAD SWAP1 JUMP JUMPDEST PUSH1 0x0 DUP1 REVERT INVALID PUSH1 0x80 PUSH1 0x40 MSTORE CALLDATASIZE ISZERO PUSH2 0x6B JUMPI PUSH2 0x6B JUMP JUMPDEST SWAP1 JUMP JUMPDEST PUSH1 0x1 DUP1 PUSH1 0xA0 SHL SUB AND SWAP1 JUMP JUMPDEST SWAP1 JUMP JUMPDEST PUSH2 0x34 PUSH2 0x2F PUSH2 0x39 SWAP3 PUSH2 0xF JUMP JUMPDEST PUSH2 0x1D JUMP JUMPDEST PUSH2 0x12 JUMP JUMPDEST SWAP1 JUMP JUMPDEST PUSH2 0x45 SWAP1 PUSH2 0x20 JUMP JUMPDEST SWAP1 JUMP JUMPDEST PUSH2 0x51 SWAP1 PUSH2 0x12 JUMP JUMPDEST SWAP1 JUMP JUMPDEST PUSH1 0x60 SWAP1 JUMP JUMPDEST PUSH4 0xFFFFFFFF PUSH1 0xE0 SHL AND SWAP1 JUMP JUMPDEST PUSH1 0x0 ADD SWAP1 JUMP JUMPDEST PUSH2 0x73 PUSH2 0x17E JUMP JUMPDEST PUSH2 0x8E PUSH2 0x88 PUSH2 0x83 PUSH1 0x0 PUSH2 0x3C JUMP JUMPDEST PUSH2 0x48 JUMP JUMPDEST SWAP2 PUSH2 0x48 JUMP JUMPDEST SUB PUSH2 0x46C JUMPI PUSH2 0x9B PUSH2 0x54 JUMP JUMPDEST POP PUSH4 0xFFFFFFFF PUSH1 0xE0 SHL PUSH1 0x0 CALLDATALOAD AND PUSH2 0xC1 PUSH2 0xBB PUSH4 0xCF7A1D77 PUSH1 0xE0 SHL PUSH2 0x59 JUMP JUMPDEST SWAP2 PUSH2 0x59 JUMP JUMPDEST EQ PUSH2 0xE3 JUMPI PUSH1 0x0 PUSH4 0xF92EE8A9 PUSH1 0xE0 SHL DUP2 MSTORE DUP1 PUSH2 0xDF PUSH1 0x4 DUP3 ADD PUSH2 0x65 JUMP JUMPDEST SUB SWAP1 REVERT JUMPDEST PUSH2 0xEB PUSH2 0x401 JUMP JUMPDEST PUSH1 0x20 DUP2 MLOAD SWAP2 ADD RETURN JUMPDEST PUSH1 0x0 SWAP1 JUMP JUMPDEST SWAP1 JUMP JUMPDEST SWAP1 JUMP JUMPDEST PUSH1 0x0 SHL SWAP1 JUMP JUMPDEST PUSH2 0x118 PUSH2 0x113 PUSH2 0x11D SWAP3 PUSH2 0xF8 JUMP JUMPDEST PUSH2 0xFE JUMP JUMPDEST PUSH2 0xFB JUMP JUMPDEST SWAP1 JUMP JUMPDEST PUSH2 0x149 PUSH32 0xB53127684A568B3173AE13B9F8A6016E243E63B6E8EE1178D6A717850B5D6103 PUSH2 0x104 JUMP JUMPDEST SWAP1 JUMP JUMPDEST PUSH1 0x0 SHR SWAP1 JUMP JUMPDEST PUSH1 0x1 DUP1 PUSH1 0xA0 SHL SUB AND SWAP1 JUMP JUMPDEST PUSH2 0x169 PUSH2 0x16E SWAP2 PUSH2 0x14C JUMP JUMPDEST PUSH2 0x152 JUMP JUMPDEST SWAP1 JUMP JUMPDEST PUSH2 0x17B SWAP1 SLOAD PUSH2 0x15D JUMP JUMPDEST SWAP1 JUMP JUMPDEST PUSH2 0x186 PUSH2 0xF3 JUMP JUMPDEST POP PUSH2 0x1A2 PUSH1 0x0 PUSH2 0x19C PUSH2 0x197 PUSH2 0x120 JUMP JUMPDEST PUSH2 0x5A2 JUMP JUMPDEST ADD PUSH2 0x171 JUMP JUMPDEST SWAP1 JUMP JUMPDEST SWAP1 JUMP JUMPDEST SWAP1 JUMP JUMPDEST PUSH2 0x1BF PUSH2 0x1BA PUSH2 0x1C4 SWAP3 PUSH2 0x1A5 JUMP JUMPDEST PUSH2 0x1D JUMP JUMPDEST PUSH2 0x1A8 JUMP JUMPDEST SWAP1 JUMP JUMPDEST PUSH1 0x40 MLOAD SWAP1 JUMP JUMPDEST PUSH1 0x0 DUP1 REVERT JUMPDEST PUSH1 0x0 DUP1 REVERT JUMPDEST SWAP1 SWAP4 SWAP3 SWAP4 DUP5 DUP4 GT PUSH2 0x1F7 JUMPI DUP5 GT PUSH2 0x1F2 JUMPI PUSH1 0x1 DUP3 MUL ADD SWAP3 SUB SWAP1 JUMP JUMPDEST PUSH2 0x1D2 JUMP JUMPDEST PUSH2 0x1CD JUMP JUMPDEST SWAP2 JUMP JUMPDEST PUSH1 0x0 DUP1 REVERT JUMPDEST PUSH1 0x0 DUP1 REVERT JUMPDEST PUSH2 0x212 SWAP1 PUSH2 0x12 JUMP JUMPDEST SWAP1 JUMP JUMPDEST PUSH2 0x21E DUP2 PUSH2 0x209 JUMP JUMPDEST SUB PUSH2 0x225 JUMPI JUMP JUMPDEST PUSH1 0x0 DUP1 REVERT JUMPDEST SWAP1 POP CALLDATALOAD SWAP1 PUSH2 0x237 DUP3 PUSH2 0x215 JUMP JUMPDEST JUMP JUMPDEST PUSH1 0x0 DUP1 REVERT JUMPDEST PUSH1 0x0 DUP1 REVERT JUMPDEST PUSH1 0x1F DUP1 NOT SWAP2 ADD AND SWAP1 JUMP JUMPDEST PUSH4 0x4E487B71 PUSH1 0xE0 SHL PUSH1 0x0 MSTORE PUSH1 0x41 PUSH1 0x4 MSTORE PUSH1 0x24 PUSH1 0x0 REVERT JUMPDEST SWAP1 PUSH2 0x26D SWAP1 PUSH2 0x243 JUMP JUMPDEST DUP2 ADD SWAP1 DUP2 LT PUSH8 0xFFFFFFFFFFFFFFFF DUP3 GT OR PUSH2 0x287 JUMPI PUSH1 0x40 MSTORE JUMP JUMPDEST PUSH2 0x24D JUMP JUMPDEST SWAP1 PUSH2 0x29F PUSH2 0x298 PUSH2 0x1C7 JUMP JUMPDEST SWAP3 DUP4 PUSH2 0x263 JUMP JUMPDEST JUMP JUMPDEST PUSH8 0xFFFFFFFFFFFFFFFF DUP2 GT PUSH2 0x2BF JUMPI PUSH2 0x2BB PUSH1 0x20 SWAP2 PUSH2 0x243 JUMP JUMPDEST ADD SWAP1 JUMP JUMPDEST PUSH2 0x24D JUMP JUMPDEST SWAP1 DUP3 PUSH1 0x0 SWAP4 SWAP3 DUP3 CALLDATACOPY ADD MSTORE JUMP JUMPDEST SWAP1 SWAP3 SWAP2 SWAP3 PUSH2 0x2E5 PUSH2 0x2E0 DUP3 PUSH2 0x2A1 JUMP JUMPDEST PUSH2 0x28C JUMP JUMPDEST SWAP4 DUP2 DUP6 MSTORE PUSH1 0x20 DUP6 ADD SWAP1 DUP3 DUP5 ADD GT PUSH2 0x301 JUMPI PUSH2 0x2FF SWAP3 PUSH2 0x2C4 JUMP JUMPDEST JUMP JUMPDEST PUSH2 0x23E JUMP JUMPDEST SWAP1 DUP1 PUSH1 0x1F DUP4 ADD SLT ISZERO PUSH2 0x324 JUMPI DUP2 PUSH1 0x20 PUSH2 0x321 SWAP4 CALLDATALOAD SWAP2 ADD PUSH2 0x2D0 JUMP JUMPDEST SWAP1 JUMP JUMPDEST PUSH2 0x239 JUMP JUMPDEST SWAP2 PUSH1 0x60 DUP4 DUP4 SUB SLT PUSH2 0x376 JUMPI PUSH2 0x341 DUP3 PUSH1 0x0 DUP6 ADD PUSH2 0x22A JUMP JUMPDEST SWAP3 PUSH2 0x34F DUP4 PUSH1 0x20 DUP4 ADD PUSH2 0x22A JUMP JUMPDEST SWAP3 PUSH1 0x40 DUP3 ADD CALLDATALOAD PUSH8 0xFFFFFFFFFFFFFFFF DUP2 GT PUSH2 0x371 JUMPI PUSH2 0x36E SWAP3 ADD PUSH2 0x306 JUMP JUMPDEST SWAP1 JUMP JUMPDEST PUSH2 0x204 JUMP JUMPDEST PUSH2 0x1FF JUMP JUMPDEST PUSH2 0x38F PUSH2 0x38A PUSH2 0x394 SWAP3 PUSH2 0x12 JUMP JUMPDEST PUSH2 0x1D JUMP JUMPDEST PUSH2 0x12 JUMP JUMPDEST SWAP1 JUMP JUMPDEST PUSH2 0x3A0 SWAP1 PUSH2 0x37B JUMP JUMPDEST SWAP1 JUMP JUMPDEST PUSH2 0x3AC SWAP1 PUSH2 0x397 JUMP JUMPDEST SWAP1 JUMP JUMPDEST PUSH8 0xFFFFFFFFFFFFFFFF DUP2 GT PUSH2 0x3CD JUMPI PUSH2 0x3C9 PUSH1 0x20 SWAP2 PUSH2 0x243 JUMP JUMPDEST ADD SWAP1 JUMP JUMPDEST PUSH2 0x24D JUMP JUMPDEST SWAP1 PUSH2 0x3E4 PUSH2 0x3DF DUP4 PUSH2 0x3AF JUMP JUMPDEST PUSH2 0x28C JUMP JUMPDEST SWAP2 DUP3 MSTORE JUMP JUMPDEST PUSH2 0x3F3 PUSH1 0x0 PUSH2 0x3D2 JUMP JUMPDEST SWAP1 JUMP JUMPDEST PUSH2 0x3FE PUSH2 0x3E9 JUMP JUMPDEST SWAP1 JUMP JUMPDEST PUSH2 0x409 PUSH2 0x54 JUMP JUMPDEST POP PUSH2 0x412 PUSH2 0x5CD JUMP JUMPDEST PUSH2 0x461 PUSH2 0x457 PUSH2 0x451 PUSH2 0x447 PUSH2 0x43F PUSH2 0x439 PUSH1 0x0 CALLDATASIZE PUSH2 0x431 PUSH1 0x4 PUSH2 0x1AB JUMP JUMPDEST SWAP1 DUP1 SWAP3 PUSH2 0x1D7 JUMP JUMPDEST SWAP1 PUSH2 0x1FC JUMP JUMPDEST DUP2 ADD SWAP1 PUSH2 0x329 JUMP JUMPDEST SWAP4 SWAP2 SWAP3 SWAP1 SWAP3 PUSH2 0x3A3 JUMP JUMPDEST SWAP2 PUSH2 0x3A3 JUMP JUMPDEST SWAP2 SWAP1 SWAP2 SWAP1 SWAP2 PUSH2 0x5EC JUMP JUMPDEST PUSH2 0x469 PUSH2 0x3F6 JUMP JUMPDEST SWAP1 JUMP JUMPDEST CALLER PUSH2 0x486 PUSH2 0x480 PUSH2 0x47B PUSH2 0x17E JUMP JUMPDEST PUSH2 0x48 JUMP JUMPDEST SWAP2 PUSH2 0x48 JUMP JUMPDEST EQ PUSH1 0x0 EQ PUSH2 0x59D JUMPI PUSH2 0x496 PUSH2 0x54 JUMP JUMPDEST POP PUSH4 0xFFFFFFFF PUSH1 0xE0 SHL PUSH1 0x0 CALLDATALOAD AND DUP1 PUSH2 0x4BD PUSH2 0x4B7 PUSH4 0x1B2CE7F3 PUSH1 0xE1 SHL PUSH2 0x59 JUMP JUMPDEST SWAP2 PUSH2 0x59 JUMP JUMPDEST EQ PUSH1 0x0 EQ PUSH2 0x4D7 JUMPI POP PUSH2 0x4CE PUSH2 0x817 JUMP JUMPDEST JUMPDEST PUSH1 0x20 DUP2 MLOAD SWAP2 ADD RETURN JUMPDEST DUP1 PUSH2 0x4F1 PUSH2 0x4EB PUSH4 0x278F7943 PUSH1 0xE1 SHL PUSH2 0x59 JUMP JUMPDEST SWAP2 PUSH2 0x59 JUMP JUMPDEST EQ PUSH1 0x0 EQ PUSH2 0x508 JUMPI POP PUSH2 0x502 PUSH2 0x7C1 JUMP JUMPDEST JUMPDEST PUSH2 0x4CF JUMP JUMPDEST DUP1 PUSH2 0x522 PUSH2 0x51C PUSH4 0x8F28397 PUSH1 0xE4 SHL PUSH2 0x59 JUMP JUMPDEST SWAP2 PUSH2 0x59 JUMP JUMPDEST EQ PUSH1 0x0 EQ PUSH2 0x539 JUMPI POP PUSH2 0x533 PUSH2 0x723 JUMP JUMPDEST JUMPDEST PUSH2 0x503 JUMP JUMPDEST DUP1 PUSH2 0x553 PUSH2 0x54D PUSH4 0x3E14691 PUSH1 0xE6 SHL PUSH2 0x59 JUMP JUMPDEST SWAP2 PUSH2 0x59 JUMP JUMPDEST EQ PUSH1 0x0 EQ PUSH2 0x56A JUMPI POP PUSH2 0x564 PUSH2 0x6BF JUMP JUMPDEST JUMPDEST PUSH2 0x534 JUMP JUMPDEST PUSH2 0x583 PUSH2 0x57D PUSH4 0x5C60DA1B PUSH1 0xE0 SHL PUSH2 0x59 JUMP JUMPDEST SWAP2 PUSH2 0x59 JUMP JUMPDEST EQ PUSH1 0x0 EQ PUSH2 0x598 JUMPI PUSH2 0x593 PUSH2 0x67A JUMP JUMPDEST PUSH2 0x565 JUMP JUMPDEST PUSH2 0x64A JUMP JUMPDEST PUSH2 0x64A JUMP JUMPDEST SWAP1 JUMP JUMPDEST PUSH2 0x5B9 PUSH2 0x5B4 PUSH2 0x5BE SWAP3 PUSH2 0xF JUMP JUMPDEST PUSH2 0x1D JUMP JUMPDEST PUSH2 0x1A8 JUMP JUMPDEST SWAP1 JUMP JUMPDEST ISZERO PUSH2 0x5C8 JUMPI JUMP JUMPDEST PUSH1 0x0 DUP1 REVERT JUMPDEST PUSH2 0x5EA CALLVALUE PUSH2 0x5E4 PUSH2 0x5DE PUSH1 0x0 PUSH2 0x5A5 JUMP JUMPDEST SWAP2 PUSH2 0x1A8 JUMP JUMPDEST EQ PUSH2 0x5C1 JUMP JUMPDEST JUMP JUMPDEST SWAP2 SWAP1 PUSH2 0x5F6 PUSH2 0x87A JUMP JUMPDEST PUSH2 0x611 PUSH2 0x60B PUSH2 0x606 PUSH1 0x0 PUSH2 0x3C JUMP JUMPDEST PUSH2 0x48 JUMP JUMPDEST SWAP2 PUSH2 0x48 JUMP JUMPDEST SUB PUSH2 0x62D JUMPI PUSH2 0x622 PUSH2 0x62B SWAP4 PUSH2 0x8B2 JUMP JUMPDEST SWAP1 PUSH1 0x0 SWAP2 PUSH2 0x98D JUMP JUMPDEST JUMP JUMPDEST PUSH1 0x0 PUSH4 0xF92EE8A9 PUSH1 0xE0 SHL DUP2 MSTORE DUP1 PUSH2 0x646 PUSH1 0x4 DUP3 ADD PUSH2 0x65 JUMP JUMPDEST SUB SWAP1 REVERT JUMPDEST PUSH2 0x652 PUSH2 0xAA6 JUMP JUMPDEST PUSH2 0xAE7 JUMP JUMPDEST PUSH2 0x660 SWAP1 PUSH2 0x48 JUMP JUMPDEST SWAP1 MSTORE JUMP JUMPDEST SWAP2 SWAP1 PUSH2 0x678 SWAP1 PUSH1 0x0 PUSH1 0x20 DUP6 ADD SWAP5 ADD SWAP1 PUSH2 0x657 JUMP JUMPDEST JUMP JUMPDEST PUSH2 0x682 PUSH2 0x54 JUMP JUMPDEST POP PUSH2 0x68B PUSH2 0x5CD JUMP JUMPDEST PUSH2 0x6AD PUSH2 0x6BC PUSH2 0x699 PUSH2 0xAA6 JUMP JUMPDEST PUSH2 0x6A1 PUSH2 0x1C7 JUMP JUMPDEST SWAP3 DUP4 SWAP2 PUSH1 0x20 DUP4 ADD PUSH2 0x664 JUMP JUMPDEST PUSH1 0x20 DUP3 ADD DUP2 SUB DUP3 MSTORE SUB DUP3 PUSH2 0x263 JUMP JUMPDEST SWAP1 JUMP JUMPDEST PUSH2 0x6C7 PUSH2 0x54 JUMP JUMPDEST POP PUSH2 0x6D0 PUSH2 0x5CD JUMP JUMPDEST PUSH2 0x6F2 PUSH2 0x701 PUSH2 0x6DE PUSH2 0x17E JUMP JUMPDEST PUSH2 0x6E6 PUSH2 0x1C7 JUMP JUMPDEST SWAP3 DUP4 SWAP2 PUSH1 0x20 DUP4 ADD PUSH2 0x664 JUMP JUMPDEST PUSH1 0x20 DUP3 ADD DUP2 SUB DUP3 MSTORE SUB DUP3 PUSH2 0x263 JUMP JUMPDEST SWAP1 JUMP JUMPDEST SWAP1 PUSH1 0x20 DUP3 DUP3 SUB SLT PUSH2 0x71E JUMPI PUSH2 0x71B SWAP2 PUSH1 0x0 ADD PUSH2 0x22A JUMP JUMPDEST SWAP1 JUMP JUMPDEST PUSH2 0x1FF JUMP JUMPDEST PUSH2 0x72B PUSH2 0x54 JUMP JUMPDEST POP PUSH2 0x734 PUSH2 0x5CD JUMP JUMPDEST PUSH2 0x770 PUSH2 0x76B PUSH2 0x766 PUSH2 0x75E PUSH2 0x758 PUSH1 0x0 CALLDATASIZE PUSH2 0x750 PUSH1 0x4 PUSH2 0x1AB JUMP JUMPDEST SWAP1 DUP1 SWAP3 PUSH2 0x1D7 JUMP JUMPDEST SWAP1 PUSH2 0x1FC JUMP JUMPDEST DUP2 ADD SWAP1 PUSH2 0x704 JUMP JUMPDEST PUSH2 0x3A3 JUMP JUMPDEST PUSH2 0x8B2 JUMP JUMPDEST PUSH2 0x778 PUSH2 0x3F6 JUMP JUMPDEST SWAP1 JUMP JUMPDEST SWAP2 SWAP1 SWAP2 PUSH1 0x40 DUP2 DUP5 SUB SLT PUSH2 0x7BC JUMPI PUSH2 0x795 DUP4 PUSH1 0x0 DUP4 ADD PUSH2 0x22A JUMP JUMPDEST SWAP3 PUSH1 0x20 DUP3 ADD CALLDATALOAD PUSH8 0xFFFFFFFFFFFFFFFF DUP2 GT PUSH2 0x7B7 JUMPI PUSH2 0x7B4 SWAP3 ADD PUSH2 0x306 JUMP JUMPDEST SWAP1 JUMP JUMPDEST PUSH2 0x204 JUMP JUMPDEST PUSH2 0x1FF JUMP JUMPDEST PUSH2 0x7C9 PUSH2 0x54 JUMP JUMPDEST POP PUSH2 0x80C PUSH2 0x803 PUSH2 0x7FC PUSH2 0x7F4 PUSH2 0x7EE PUSH1 0x0 CALLDATASIZE PUSH2 0x7E6 PUSH1 0x4 PUSH2 0x1AB JUMP JUMPDEST SWAP1 DUP1 SWAP3 PUSH2 0x1D7 JUMP JUMPDEST SWAP1 PUSH2 0x1FC JUMP JUMPDEST DUP2 ADD SWAP1 PUSH2 0x77B JUMP JUMPDEST SWAP2 SWAP1 PUSH2 0x3A3 JUMP JUMPDEST SWAP1 PUSH1 0x1 SWAP2 PUSH2 0xB0A JUMP JUMPDEST PUSH2 0x814 PUSH2 0x3F6 JUMP JUMPDEST SWAP1 JUMP JUMPDEST PUSH2 0x81F PUSH2 0x54 JUMP JUMPDEST POP PUSH2 0x828 PUSH2 0x5CD JUMP JUMPDEST PUSH2 0x86F PUSH2 0x85F PUSH2 0x85A PUSH2 0x852 PUSH2 0x84C PUSH1 0x0 CALLDATASIZE PUSH2 0x844 PUSH1 0x4 PUSH2 0x1AB JUMP JUMPDEST SWAP1 DUP1 SWAP3 PUSH2 0x1D7 JUMP JUMPDEST SWAP1 PUSH2 0x1FC JUMP JUMPDEST DUP2 ADD SWAP1 PUSH2 0x704 JUMP JUMPDEST PUSH2 0x3A3 JUMP JUMPDEST PUSH2 0x867 PUSH2 0x3F6 JUMP JUMPDEST PUSH1 0x0 SWAP2 PUSH2 0xB0A JUMP JUMPDEST PUSH2 0x877 PUSH2 0x3F6 JUMP JUMPDEST SWAP1 JUMP JUMPDEST PUSH2 0x882 PUSH2 0xF3 JUMP JUMPDEST POP PUSH2 0x88B PUSH2 0x17E JUMP JUMPDEST SWAP1 JUMP JUMPDEST SWAP2 PUSH1 0x20 PUSH2 0x8B0 SWAP3 SWAP5 SWAP4 PUSH2 0x8A9 PUSH1 0x40 DUP3 ADD SWAP7 PUSH1 0x0 DUP4 ADD SWAP1 PUSH2 0x657 JUMP JUMPDEST ADD SWAP1 PUSH2 0x657 JUMP JUMPDEST JUMP JUMPDEST PUSH2 0x8FD SWAP1 PUSH2 0x8BE PUSH2 0x17E JUMP JUMPDEST DUP2 PUSH32 0x7E644D79422F17C01E4894B5F4F588D331EBFA28653D42AE832DC59E38C9798F SWAP2 PUSH2 0x8F5 PUSH2 0x8EC PUSH2 0x1C7 JUMP JUMPDEST SWAP3 DUP4 SWAP3 DUP4 PUSH2 0x88E JUMP JUMPDEST SUB SWAP1 LOG1 PUSH2 0xC4D JUMP JUMPDEST JUMP JUMPDEST PUSH2 0x908 SWAP1 PUSH2 0x397 JUMP JUMPDEST SWAP1 JUMP JUMPDEST MLOAD SWAP1 JUMP JUMPDEST PUSH2 0x918 SWAP1 PUSH2 0x37B JUMP JUMPDEST SWAP1 JUMP JUMPDEST PUSH2 0x924 SWAP1 PUSH2 0x90F JUMP JUMPDEST SWAP1 JUMP JUMPDEST PUSH2 0x930 SWAP1 PUSH2 0x397 JUMP JUMPDEST SWAP1 JUMP JUMPDEST PUSH1 0xE0 SHL SWAP1 JUMP JUMPDEST PUSH2 0x942 DUP2 PUSH2 0x48 JUMP JUMPDEST SUB PUSH2 0x949 JUMPI JUMP JUMPDEST PUSH1 0x0 DUP1 REVERT JUMPDEST SWAP1 POP MLOAD SWAP1 PUSH2 0x95B DUP3 PUSH2 0x939 JUMP JUMPDEST JUMP JUMPDEST SWAP1 PUSH1 0x20 DUP3 DUP3 SUB SLT PUSH2 0x977 JUMPI PUSH2 0x974 SWAP2 PUSH1 0x0 ADD PUSH2 0x94E JUMP JUMPDEST SWAP1 JUMP JUMPDEST PUSH2 0x1FF JUMP JUMPDEST PUSH2 0x984 PUSH2 0x1C7 JUMP JUMPDEST RETURNDATASIZE PUSH1 0x0 DUP3 RETURNDATACOPY RETURNDATASIZE SWAP1 REVERT JUMPDEST SWAP2 PUSH2 0x997 DUP4 PUSH2 0xE30 JUMP JUMPDEST DUP3 PUSH2 0x9C2 PUSH32 0x1CF3B03A6CF19FA2BABA4DF148E9DCABEDEA7F8A5C07840E207E5C089BE95D3E SWAP2 PUSH2 0x8FF JUMP JUMPDEST SWAP1 PUSH2 0x9CB PUSH2 0x1C7 JUMP JUMPDEST DUP1 PUSH2 0x9D5 DUP2 PUSH2 0x65 JUMP JUMPDEST SUB SWAP1 LOG2 PUSH2 0x9E1 DUP3 PUSH2 0x90B JUMP JUMPDEST PUSH2 0x9F4 PUSH2 0x9EE PUSH1 0x0 PUSH2 0x5A5 JUMP JUMPDEST SWAP2 PUSH2 0x1A8 JUMP JUMPDEST GT SWAP1 DUP2 ISZERO PUSH2 0xA9E JUMPI JUMPDEST POP PUSH2 0xA07 JUMPI JUMPDEST POP POP JUMP JUMPDEST PUSH1 0x20 PUSH2 0xA1D PUSH2 0xA18 PUSH2 0xA33 SWAP5 PUSH2 0x91B JUMP JUMPDEST PUSH2 0x927 JUMP JUMPDEST PUSH4 0x5C60DA1B SWAP1 PUSH2 0xA2B PUSH2 0x1C7 JUMP JUMPDEST SWAP5 DUP6 SWAP3 PUSH2 0x933 JUMP JUMPDEST DUP3 MSTORE DUP2 DUP1 PUSH2 0xA43 PUSH1 0x4 DUP3 ADD PUSH2 0x65 JUMP JUMPDEST SUB SWAP2 GAS STATICCALL SWAP1 DUP2 ISZERO PUSH2 0xA99 JUMPI PUSH2 0xA61 SWAP3 PUSH1 0x0 SWAP3 PUSH2 0xA69 JUMPI JUMPDEST POP SWAP1 PUSH2 0xF65 JUMP JUMPDEST POP CODESIZE DUP1 PUSH2 0xA03 JUMP JUMPDEST PUSH2 0xA8B SWAP2 SWAP3 POP PUSH1 0x20 RETURNDATASIZE DUP2 GT PUSH2 0xA92 JUMPI JUMPDEST PUSH2 0xA83 DUP2 DUP4 PUSH2 0x263 JUMP JUMPDEST DUP2 ADD SWAP1 PUSH2 0x95D JUMP JUMPDEST SWAP1 CODESIZE PUSH2 0xA5A JUMP JUMPDEST POP RETURNDATASIZE PUSH2 0xA79 JUMP JUMPDEST PUSH2 0x97C JUMP JUMPDEST SWAP1 POP CODESIZE PUSH2 0x9FD JUMP JUMPDEST PUSH2 0xAAE PUSH2 0xF3 JUMP JUMPDEST POP PUSH2 0xAB7 PUSH2 0xF85 JUMP JUMPDEST DUP1 PUSH2 0xAD3 PUSH2 0xACD PUSH2 0xAC8 PUSH1 0x0 PUSH2 0x3C JUMP JUMPDEST PUSH2 0x48 JUMP JUMPDEST SWAP2 PUSH2 0x48 JUMP JUMPDEST SUB PUSH2 0xAE4 JUMPI POP PUSH2 0xAE1 PUSH2 0xF99 JUMP JUMPDEST SWAP1 JUMP JUMPDEST SWAP1 JUMP JUMPDEST PUSH1 0x0 DUP1 SWAP2 CALLDATASIZE DUP3 DUP1 CALLDATACOPY DUP2 CALLDATASIZE SWAP2 GAS DELEGATECALL RETURNDATASIZE PUSH1 0x0 DUP1 RETURNDATACOPY PUSH1 0x0 EQ PUSH2 0xB05 JUMPI RETURNDATASIZE PUSH1 0x0 RETURN JUMPDEST RETURNDATASIZE PUSH1 0x0 REVERT JUMPDEST SWAP2 PUSH2 0xB14 DUP4 PUSH2 0x102F JUMP JUMPDEST PUSH2 0xB1D DUP3 PUSH2 0x90B JUMP JUMPDEST PUSH2 0xB30 PUSH2 0xB2A PUSH1 0x0 PUSH2 0x5A5 JUMP JUMPDEST SWAP2 PUSH2 0x1A8 JUMP JUMPDEST GT SWAP1 DUP2 ISZERO PUSH2 0xB54 JUMPI JUMPDEST POP PUSH2 0xB43 JUMPI JUMPDEST POP POP JUMP JUMPDEST PUSH2 0xB4C SWAP2 PUSH2 0xF65 JUMP JUMPDEST POP CODESIZE DUP1 PUSH2 0xB3F JUMP JUMPDEST SWAP1 POP CODESIZE PUSH2 0xB39 JUMP JUMPDEST PUSH1 0x20 SWAP2 DUP2 MSTORE ADD SWAP1 JUMP JUMPDEST PUSH1 0x20 PUSH32 0x6464726573730000000000000000000000000000000000000000000000000000 SWAP2 PUSH32 0x455243313936373A206E65772061646D696E20697320746865207A65726F2061 PUSH1 0x0 DUP3 ADD MSTORE ADD MSTORE JUMP JUMPDEST PUSH2 0xBC0 PUSH1 0x26 PUSH1 0x40 SWAP3 PUSH2 0xB5C JUMP JUMPDEST PUSH2 0xBC9 DUP2 PUSH2 0xB65 JUMP JUMPDEST ADD SWAP1 JUMP JUMPDEST PUSH2 0xBE3 SWAP1 PUSH1 0x20 DUP2 ADD SWAP1 PUSH1 0x0 DUP2 DUP4 SUB SWAP2 ADD MSTORE PUSH2 0xBB3 JUMP JUMPDEST SWAP1 JUMP JUMPDEST ISZERO PUSH2 0xBED JUMPI JUMP JUMPDEST PUSH2 0xBF5 PUSH2 0x1C7 JUMP JUMPDEST PUSH3 0x461BCD PUSH1 0xE5 SHL DUP2 MSTORE DUP1 PUSH2 0xC0B PUSH1 0x4 DUP3 ADD PUSH2 0xBCD JUMP JUMPDEST SUB SWAP1 REVERT JUMPDEST SWAP1 PUSH2 0xC20 PUSH1 0x1 DUP1 PUSH1 0xA0 SHL SUB SWAP2 PUSH2 0xFE JUMP JUMPDEST SWAP2 DUP2 NOT AND SWAP2 AND OR SWAP1 JUMP JUMPDEST SWAP1 JUMP JUMPDEST SWAP1 PUSH2 0xC42 PUSH2 0xC3D PUSH2 0xC49 SWAP3 PUSH2 0x8FF JUMP JUMPDEST PUSH2 0xC2A JUMP JUMPDEST DUP3 SLOAD PUSH2 0xC0F JUMP JUMPDEST SWAP1 SSTORE JUMP JUMPDEST PUSH2 0xC8F SWAP1 PUSH2 0xC77 DUP2 PUSH2 0xC70 PUSH2 0xC6A PUSH2 0xC65 PUSH1 0x0 PUSH2 0x3C JUMP JUMPDEST PUSH2 0x48 JUMP JUMPDEST SWAP2 PUSH2 0x48 JUMP JUMPDEST EQ ISZERO PUSH2 0xBE6 JUMP JUMPDEST PUSH1 0x0 PUSH2 0xC89 PUSH2 0xC84 PUSH2 0x120 JUMP JUMPDEST PUSH2 0x5A2 JUMP JUMPDEST ADD PUSH2 0xC2D JUMP JUMPDEST JUMP JUMPDEST PUSH1 0x20 PUSH32 0x7472616374000000000000000000000000000000000000000000000000000000 SWAP2 PUSH32 0x455243313936373A206E657720626561636F6E206973206E6F74206120636F6E PUSH1 0x0 DUP3 ADD MSTORE ADD MSTORE JUMP JUMPDEST PUSH2 0xCEC PUSH1 0x25 PUSH1 0x40 SWAP3 PUSH2 0xB5C JUMP JUMPDEST PUSH2 0xCF5 DUP2 PUSH2 0xC91 JUMP JUMPDEST ADD SWAP1 JUMP JUMPDEST PUSH2 0xD0F SWAP1 PUSH1 0x20 DUP2 ADD SWAP1 PUSH1 0x0 DUP2 DUP4 SUB SWAP2 ADD MSTORE PUSH2 0xCDF JUMP JUMPDEST SWAP1 JUMP JUMPDEST ISZERO PUSH2 0xD19 JUMPI JUMP JUMPDEST PUSH2 0xD21 PUSH2 0x1C7 JUMP JUMPDEST PUSH3 0x461BCD PUSH1 0xE5 SHL DUP2 MSTORE DUP1 PUSH2 0xD37 PUSH1 0x4 DUP3 ADD PUSH2 0xCF9 JUMP JUMPDEST SUB SWAP1 REVERT JUMPDEST PUSH1 0x20 PUSH32 0x73206E6F74206120636F6E747261637400000000000000000000000000000000 SWAP2 PUSH32 0x455243313936373A20626561636F6E20696D706C656D656E746174696F6E2069 PUSH1 0x0 DUP3 ADD MSTORE ADD MSTORE JUMP JUMPDEST PUSH2 0xD96 PUSH1 0x30 PUSH1 0x40 SWAP3 PUSH2 0xB5C JUMP JUMPDEST PUSH2 0xD9F DUP2 PUSH2 0xD3B JUMP JUMPDEST ADD SWAP1 JUMP JUMPDEST PUSH2 0xDB9 SWAP1 PUSH1 0x20 DUP2 ADD SWAP1 PUSH1 0x0 DUP2 DUP4 SUB SWAP2 ADD MSTORE PUSH2 0xD89 JUMP JUMPDEST SWAP1 JUMP JUMPDEST ISZERO PUSH2 0xDC3 JUMPI JUMP JUMPDEST PUSH2 0xDCB PUSH2 0x1C7 JUMP JUMPDEST PUSH3 0x461BCD PUSH1 0xE5 SHL DUP2 MSTORE DUP1 PUSH2 0xDE1 PUSH1 0x4 DUP3 ADD PUSH2 0xDA3 JUMP JUMPDEST SUB SWAP1 REVERT JUMPDEST SWAP1 JUMP JUMPDEST PUSH2 0xDFC PUSH2 0xDF7 PUSH2 0xE01 SWAP3 PUSH2 0xDE5 JUMP JUMPDEST PUSH2 0xFE JUMP JUMPDEST PUSH2 0xFB JUMP JUMPDEST SWAP1 JUMP JUMPDEST PUSH2 0xE2D PUSH32 0xA3F0AD74E5423AEBFD80D3EF4346578335A9A72AEAEE59FF6CB3582B35133D50 PUSH2 0xDE8 JUMP JUMPDEST SWAP1 JUMP JUMPDEST PUSH2 0xE6E SWAP1 PUSH2 0xE45 PUSH2 0xE40 DUP3 PUSH2 0x107F JUMP JUMPDEST PUSH2 0xD12 JUMP JUMPDEST PUSH1 0x20 PUSH2 0xE58 PUSH2 0xE53 DUP4 PUSH2 0x91B JUMP JUMPDEST PUSH2 0x927 JUMP JUMPDEST PUSH4 0x5C60DA1B SWAP1 PUSH2 0xE66 PUSH2 0x1C7 JUMP JUMPDEST SWAP5 DUP6 SWAP3 PUSH2 0x933 JUMP JUMPDEST DUP3 MSTORE DUP2 DUP1 PUSH2 0xE7E PUSH1 0x4 DUP3 ADD PUSH2 0x65 JUMP JUMPDEST SUB SWAP2 GAS STATICCALL DUP1 ISZERO PUSH2 0xEEE JUMPI PUSH2 0xEA1 PUSH2 0xEA6 SWAP2 PUSH2 0xEBE SWAP5 PUSH1 0x0 SWAP2 PUSH2 0xEC0 JUMPI JUMPDEST POP PUSH2 0x107F JUMP JUMPDEST PUSH2 0xDBC JUMP JUMPDEST PUSH1 0x0 PUSH2 0xEB8 PUSH2 0xEB3 PUSH2 0xE04 JUMP JUMPDEST PUSH2 0x5A2 JUMP JUMPDEST ADD PUSH2 0xC2D JUMP JUMPDEST JUMP JUMPDEST PUSH2 0xEE1 SWAP2 POP PUSH1 0x20 RETURNDATASIZE DUP2 GT PUSH2 0xEE7 JUMPI JUMPDEST PUSH2 0xED9 DUP2 DUP4 PUSH2 0x263 JUMP JUMPDEST DUP2 ADD SWAP1 PUSH2 0x95D JUMP JUMPDEST CODESIZE PUSH2 0xE9B JUMP JUMPDEST POP RETURNDATASIZE PUSH2 0xECF JUMP JUMPDEST PUSH2 0x97C JUMP JUMPDEST PUSH1 0x20 PUSH32 0x206661696C656400000000000000000000000000000000000000000000000000 SWAP2 PUSH32 0x416464726573733A206C6F772D6C6576656C2064656C65676174652063616C6C PUSH1 0x0 DUP3 ADD MSTORE ADD MSTORE JUMP JUMPDEST PUSH2 0xF4B PUSH1 0x27 PUSH2 0x3D2 JUMP JUMPDEST SWAP1 PUSH2 0xF58 PUSH1 0x20 DUP4 ADD PUSH2 0xEF3 JUMP JUMPDEST JUMP JUMPDEST PUSH2 0xF62 PUSH2 0xF41 JUMP JUMPDEST SWAP1 JUMP JUMPDEST SWAP1 PUSH2 0xF82 SWAP2 PUSH2 0xF72 PUSH2 0x54 JUMP JUMPDEST POP SWAP1 PUSH2 0xF7C PUSH2 0xF5A JUMP JUMPDEST SWAP2 PUSH2 0x10E2 JUMP JUMPDEST SWAP1 JUMP JUMPDEST PUSH2 0xF8D PUSH2 0xF3 JUMP JUMPDEST POP PUSH2 0xF96 PUSH2 0x1160 JUMP JUMPDEST SWAP1 JUMP JUMPDEST PUSH2 0xFA1 PUSH2 0xF3 JUMP JUMPDEST POP PUSH2 0xFD5 PUSH1 0x20 PUSH2 0xFBF PUSH2 0xFBA PUSH2 0xFB5 PUSH2 0x1187 JUMP JUMPDEST PUSH2 0x91B JUMP JUMPDEST PUSH2 0x927 JUMP JUMPDEST PUSH4 0x5C60DA1B SWAP1 PUSH2 0xFCD PUSH2 0x1C7 JUMP JUMPDEST SWAP4 DUP5 SWAP3 PUSH2 0x933 JUMP JUMPDEST DUP3 MSTORE DUP2 DUP1 PUSH2 0xFE5 PUSH1 0x4 DUP3 ADD PUSH2 0x65 JUMP JUMPDEST SUB SWAP2 GAS STATICCALL SWAP1 DUP2 ISZERO PUSH2 0x102A JUMPI PUSH1 0x0 SWAP2 PUSH2 0xFFC JUMPI JUMPDEST POP SWAP1 JUMP JUMPDEST PUSH2 0x101D SWAP2 POP PUSH1 0x20 RETURNDATASIZE DUP2 GT PUSH2 0x1023 JUMPI JUMPDEST PUSH2 0x1015 DUP2 DUP4 PUSH2 0x263 JUMP JUMPDEST DUP2 ADD SWAP1 PUSH2 0x95D JUMP JUMPDEST CODESIZE PUSH2 0xFF8 JUMP JUMPDEST POP RETURNDATASIZE PUSH2 0x100B JUMP JUMPDEST PUSH2 0x97C JUMP JUMPDEST PUSH2 0x1038 DUP2 PUSH2 0x1258 JUMP JUMPDEST PUSH2 0x1062 PUSH32 0xBC7CD75A20EE27FD9ADEBAB32041F755214DBC6BFFA90CC0225B39DA2E5C2D3B SWAP2 PUSH2 0x8FF JUMP JUMPDEST SWAP1 PUSH2 0x106B PUSH2 0x1C7 JUMP JUMPDEST DUP1 PUSH2 0x1075 DUP2 PUSH2 0x65 JUMP JUMPDEST SUB SWAP1 LOG2 JUMP JUMPDEST PUSH1 0x0 SWAP1 JUMP JUMPDEST PUSH2 0x1087 PUSH2 0x107A JUMP JUMPDEST POP EXTCODESIZE PUSH2 0x109C PUSH2 0x1096 PUSH1 0x0 PUSH2 0x5A5 JUMP JUMPDEST SWAP2 PUSH2 0x1A8 JUMP JUMPDEST GT SWAP1 JUMP JUMPDEST SWAP1 PUSH2 0x10B2 PUSH2 0x10AD DUP4 PUSH2 0x2A1 JUMP JUMPDEST PUSH2 0x28C JUMP JUMPDEST SWAP2 DUP3 MSTORE JUMP JUMPDEST RETURNDATASIZE PUSH1 0x0 EQ PUSH2 0x10D4 JUMPI PUSH2 0x10C8 RETURNDATASIZE PUSH2 0x10A0 JUMP JUMPDEST SWAP1 RETURNDATASIZE PUSH1 0x0 PUSH1 0x20 DUP5 ADD RETURNDATACOPY JUMPDEST JUMP JUMPDEST PUSH2 0x10DC PUSH2 0x54 JUMP JUMPDEST SWAP1 PUSH2 0x10D2 JUMP JUMPDEST SWAP1 SWAP2 PUSH1 0x0 DUP1 PUSH2 0x1112 SWAP5 PUSH2 0x10F3 PUSH2 0x54 JUMP JUMPDEST POP DUP5 SWAP1 PUSH1 0x20 DUP2 ADD SWAP1 MLOAD SWAP2 GAS DELEGATECALL SWAP2 PUSH2 0x1108 PUSH2 0x10B7 JUMP JUMPDEST SWAP1 SWAP3 SWAP1 SWAP2 SWAP3 PUSH2 0x130B JUMP JUMPDEST SWAP1 JUMP JUMPDEST SWAP1 JUMP JUMPDEST PUSH2 0x112C PUSH2 0x1127 PUSH2 0x1131 SWAP3 PUSH2 0x1115 JUMP JUMPDEST PUSH2 0xFE JUMP JUMPDEST PUSH2 0xFB JUMP JUMPDEST SWAP1 JUMP JUMPDEST PUSH2 0x115D PUSH32 0x360894A13BA1A3210667C828492DB98DCA3E2076CC3735A920A3CA505D382BBC PUSH2 0x1118 JUMP JUMPDEST SWAP1 JUMP JUMPDEST PUSH2 0x1168 PUSH2 0xF3 JUMP JUMPDEST POP PUSH2 0x1184 PUSH1 0x0 PUSH2 0x117E PUSH2 0x1179 PUSH2 0x1134 JUMP JUMPDEST PUSH2 0x5A2 JUMP JUMPDEST ADD PUSH2 0x171 JUMP JUMPDEST SWAP1 JUMP JUMPDEST PUSH2 0x118F PUSH2 0xF3 JUMP JUMPDEST POP PUSH2 0x11AB PUSH1 0x0 PUSH2 0x11A5 PUSH2 0x11A0 PUSH2 0xE04 JUMP JUMPDEST PUSH2 0x5A2 JUMP JUMPDEST ADD PUSH2 0x171 JUMP JUMPDEST SWAP1 JUMP JUMPDEST PUSH1 0x20 PUSH32 0x6F74206120636F6E747261637400000000000000000000000000000000000000 SWAP2 PUSH32 0x455243313936373A206E657720696D706C656D656E746174696F6E206973206E PUSH1 0x0 DUP3 ADD MSTORE ADD MSTORE JUMP JUMPDEST PUSH2 0x1209 PUSH1 0x2D PUSH1 0x40 SWAP3 PUSH2 0xB5C JUMP JUMPDEST PUSH2 0x1212 DUP2 PUSH2 0x11AE JUMP JUMPDEST ADD SWAP1 JUMP JUMPDEST PUSH2 0x122C SWAP1 PUSH1 0x20 DUP2 ADD SWAP1 PUSH1 0x0 DUP2 DUP4 SUB SWAP2 ADD MSTORE PUSH2 0x11FC JUMP JUMPDEST SWAP1 JUMP JUMPDEST ISZERO PUSH2 0x1236 JUMPI JUMP JUMPDEST PUSH2 0x123E PUSH2 0x1C7 JUMP JUMPDEST PUSH3 0x461BCD PUSH1 0xE5 SHL DUP2 MSTORE DUP1 PUSH2 0x1254 PUSH1 0x4 DUP3 ADD PUSH2 0x1216 JUMP JUMPDEST SUB SWAP1 REVERT JUMPDEST PUSH2 0x1285 SWAP1 PUSH2 0x126D PUSH2 0x1268 DUP3 PUSH2 0x107F JUMP JUMPDEST PUSH2 0x122F JUMP JUMPDEST PUSH1 0x0 PUSH2 0x127F PUSH2 0x127A PUSH2 0x1134 JUMP JUMPDEST PUSH2 0x5A2 JUMP JUMPDEST ADD PUSH2 0xC2D JUMP JUMPDEST JUMP JUMPDEST PUSH1 0x0 PUSH32 0x416464726573733A2063616C6C20746F206E6F6E2D636F6E7472616374000000 SWAP2 ADD MSTORE JUMP JUMPDEST PUSH2 0x12BC PUSH1 0x1D PUSH1 0x20 SWAP3 PUSH2 0xB5C JUMP JUMPDEST PUSH2 0x12C5 DUP2 PUSH2 0x1287 JUMP JUMPDEST ADD SWAP1 JUMP JUMPDEST PUSH2 0x12DF SWAP1 PUSH1 0x20 DUP2 ADD SWAP1 PUSH1 0x0 DUP2 DUP4 SUB SWAP2 ADD MSTORE PUSH2 0x12AF JUMP JUMPDEST SWAP1 JUMP JUMPDEST ISZERO PUSH2 0x12E9 JUMPI JUMP JUMPDEST PUSH2 0x12F1 PUSH2 0x1C7 JUMP JUMPDEST PUSH3 0x461BCD PUSH1 0xE5 SHL DUP2 MSTORE DUP1 PUSH2 0x1307 PUSH1 0x4 DUP3 ADD PUSH2 0x12C9 JUMP JUMPDEST SUB SWAP1 REVERT JUMPDEST SWAP2 SWAP3 SWAP1 PUSH2 0x1316 PUSH2 0x54 JUMP JUMPDEST POP PUSH1 0x0 EQ PUSH2 0x135C JUMPI POP PUSH2 0x1328 DUP3 PUSH2 0x90B JUMP JUMPDEST PUSH2 0x133B PUSH2 0x1335 PUSH1 0x0 PUSH2 0x5A5 JUMP JUMPDEST SWAP2 PUSH2 0x1A8 JUMP JUMPDEST EQ PUSH2 0x1345 JUMPI JUMPDEST POP SWAP1 JUMP JUMPDEST PUSH2 0x1351 PUSH2 0x1356 SWAP2 PUSH2 0x107F JUMP JUMPDEST PUSH2 0x12E2 JUMP JUMPDEST CODESIZE PUSH2 0x1341 JUMP JUMPDEST DUP3 PUSH2 0x13D5 JUMP JUMPDEST MLOAD SWAP1 JUMP JUMPDEST PUSH1 0x0 JUMPDEST DUP4 DUP2 LT PUSH2 0x137A JUMPI POP POP SWAP1 PUSH1 0x0 SWAP2 ADD MSTORE JUMP JUMPDEST DUP1 PUSH1 0x20 SWAP2 DUP4 ADD MLOAD DUP2 DUP6 ADD MSTORE ADD PUSH2 0x1369 JUMP JUMPDEST PUSH2 0x13AA PUSH2 0x13B3 PUSH1 0x20 SWAP4 PUSH2 0x13B8 SWAP4 PUSH2 0x13A1 DUP2 PUSH2 0x1362 JUMP JUMPDEST SWAP4 DUP5 DUP1 SWAP4 PUSH2 0xB5C JUMP JUMPDEST SWAP6 DUP7 SWAP2 ADD PUSH2 0x1366 JUMP JUMPDEST PUSH2 0x243 JUMP JUMPDEST ADD SWAP1 JUMP JUMPDEST PUSH2 0x13D2 SWAP2 PUSH1 0x20 DUP3 ADD SWAP2 PUSH1 0x0 DUP2 DUP5 SUB SWAP2 ADD MSTORE PUSH2 0x138B JUMP JUMPDEST SWAP1 JUMP JUMPDEST SWAP1 PUSH2 0x13DF DUP3 PUSH2 0x90B JUMP JUMPDEST PUSH2 0x13F2 PUSH2 0x13EC PUSH1 0x0 PUSH2 0x5A5 JUMP JUMPDEST SWAP2 PUSH2 0x1A8 JUMP JUMPDEST GT PUSH1 0x0 EQ PUSH2 0x1403 JUMPI POP DUP1 MLOAD SWAP1 PUSH1 0x20 ADD REVERT JUMPDEST PUSH2 0x1424 SWAP1 PUSH2 0x140F PUSH2 0x1C7 JUMP JUMPDEST SWAP2 DUP3 SWAP2 PUSH3 0x461BCD PUSH1 0xE5 SHL DUP4 MSTORE PUSH1 0x4 DUP4 ADD PUSH2 0x13BC JUMP JUMPDEST SUB SWAP1 REVERT INVALID LOG2 PUSH5 0x6970667358 0x22 SLT KECCAK256 0xFB XOR SWAP10 0xE6 0x1F CODESIZE STATICCALL 0xA7 DUP12 0xFB 0xAB PUSH26 0xB8DC2FA613357C2FCE2699411F9FEE80B624365564736F6C6343 STOP ADDMOD SHL STOP CALLER LOG2 PUSH5 0x6970667358 0x22 SLT KECCAK256 0xE4 ADD PUSH24 0x2D245F60C5ABF556451EC1816E94C2280E9885E04B6E2F9 SLT 0xAD DUP10 0xE0 SGT PUSH5 0x736F6C6343 STOP ADDMOD SHL STOP CALLER PUSH1 0x80 PUSH1 0x40 MSTORE CALLVALUE PUSH1 0x1C JUMPI PUSH1 0xE PUSH1 0x20 JUMP JUMPDEST PUSH2 0x4F76 PUSH2 0x2C DUP3 CODECOPY PUSH2 0x4F76 SWAP1 RETURN JUMPDEST PUSH1 0x26 JUMP JUMPDEST PUSH1 0x40 MLOAD SWAP1 JUMP JUMPDEST PUSH1 0x0 DUP1 REVERT INVALID PUSH1 0xA0 PUSH1 0x40 MSTORE PUSH1 0x4 CALLDATASIZE LT ISZERO PUSH2 0x13 JUMPI JUMPDEST PUSH2 0x12A5 JUMP JUMPDEST PUSH2 0x1E PUSH1 0x0 CALLDATALOAD PUSH2 0x1AD JUMP JUMPDEST DUP1 PUSH4 0x1FFC9A7 EQ PUSH2 0x1A8 JUMPI DUP1 PUSH4 0x869678C EQ PUSH2 0x1A3 JUMPI DUP1 PUSH4 0xBB310DE EQ PUSH2 0x19E JUMPI DUP1 PUSH4 0x119CD50C EQ PUSH2 0x199 JUMPI DUP1 PUSH4 0x248A9CA3 EQ PUSH2 0x194 JUMPI DUP1 PUSH4 0x2F2FF15D EQ PUSH2 0x18F JUMPI DUP1 PUSH4 0x3013CE29 EQ PUSH2 0x18A JUMPI DUP1 PUSH4 0x36568ABE EQ PUSH2 0x185 JUMPI DUP1 PUSH4 0x44004CC1 EQ PUSH2 0x180 JUMPI DUP1 PUSH4 0x4782F779 EQ PUSH2 0x17B JUMPI DUP1 PUSH4 0x4F651CCD EQ PUSH2 0x176 JUMPI DUP1 PUSH4 0x60E606F6 EQ PUSH2 0x171 JUMPI DUP1 PUSH4 0x63ACC14D EQ PUSH2 0x16C JUMPI DUP1 PUSH4 0x6A326AB1 EQ PUSH2 0x167 JUMPI DUP1 PUSH4 0x9010D07C EQ PUSH2 0x162 JUMPI DUP1 PUSH4 0x91D14854 EQ PUSH2 0x15D JUMPI DUP1 PUSH4 0x9D043A66 EQ PUSH2 0x158 JUMPI DUP1 PUSH4 0xA217FDDF EQ PUSH2 0x153 JUMPI DUP1 PUSH4 0xBAD43661 EQ PUSH2 0x14E JUMPI DUP1 PUSH4 0xC81EE650 EQ PUSH2 0x149 JUMPI DUP1 PUSH4 0xCA15C873 EQ PUSH2 0x144 JUMPI DUP1 PUSH4 0xD547741F EQ PUSH2 0x13F JUMPI DUP1 PUSH4 0xED4C2AC7 EQ PUSH2 0x13A JUMPI DUP1 PUSH4 0xF07F04FF EQ PUSH2 0x135 JUMPI PUSH4 0xFF81434E SUB PUSH2 0xE JUMPI PUSH2 0x126F JUMP JUMPDEST PUSH2 0x1105 JUMP JUMPDEST PUSH2 0xF54 JUMP JUMPDEST PUSH2 0xF20 JUMP JUMPDEST PUSH2 0xEEB JUMP JUMPDEST PUSH2 0xE8E JUMP JUMPDEST PUSH2 0xDE4 JUMP JUMPDEST PUSH2 0xD4C JUMP JUMPDEST PUSH2 0xCD9 JUMP JUMPDEST PUSH2 0xC0E JUMP JUMPDEST PUSH2 0xBD8 JUMP JUMPDEST PUSH2 0xB77 JUMP JUMPDEST PUSH2 0xB40 JUMP JUMPDEST PUSH2 0xAC6 JUMP JUMPDEST PUSH2 0x7E9 JUMP JUMPDEST PUSH2 0x72C JUMP JUMPDEST PUSH2 0x6CA JUMP JUMPDEST PUSH2 0x65B JUMP JUMPDEST PUSH2 0x626 JUMP JUMPDEST PUSH2 0x5CF JUMP JUMPDEST PUSH2 0x56C JUMP JUMPDEST PUSH2 0x4D1 JUMP JUMPDEST PUSH2 0x3F8 JUMP JUMPDEST PUSH2 0x363 JUMP JUMPDEST PUSH2 0x23F JUMP JUMPDEST PUSH1 0xE0 SHR SWAP1 JUMP JUMPDEST PUSH1 0x40 MLOAD SWAP1 JUMP JUMPDEST PUSH1 0x0 DUP1 REVERT JUMPDEST PUSH1 0x0 DUP1 REVERT JUMPDEST PUSH1 0x0 DUP1 REVERT JUMPDEST PUSH4 0xFFFFFFFF PUSH1 0xE0 SHL AND SWAP1 JUMP JUMPDEST PUSH2 0x1DD DUP2 PUSH2 0x1C8 JUMP JUMPDEST SUB PUSH2 0x1E4 JUMPI JUMP JUMPDEST PUSH1 0x0 DUP1 REVERT JUMPDEST SWAP1 POP CALLDATALOAD SWAP1 PUSH2 0x1F6 DUP3 PUSH2 0x1D4 JUMP JUMPDEST JUMP JUMPDEST SWAP1 PUSH1 0x20 DUP3 DUP3 SUB SLT PUSH2 0x212 JUMPI PUSH2 0x20F SWAP2 PUSH1 0x0 ADD PUSH2 0x1E9 JUMP JUMPDEST SWAP1 JUMP JUMPDEST PUSH2 0x1BE JUMP JUMPDEST ISZERO ISZERO SWAP1 JUMP JUMPDEST PUSH2 0x225 SWAP1 PUSH2 0x217 JUMP JUMPDEST SWAP1 MSTORE JUMP JUMPDEST SWAP2 SWAP1 PUSH2 0x23D SWAP1 PUSH1 0x0 PUSH1 0x20 DUP6 ADD SWAP5 ADD SWAP1 PUSH2 0x21C JUMP JUMPDEST JUMP JUMPDEST CALLVALUE PUSH2 0x26F JUMPI PUSH2 0x26B PUSH2 0x25A PUSH2 0x255 CALLDATASIZE PUSH1 0x4 PUSH2 0x1F8 JUMP JUMPDEST PUSH2 0x12AF JUMP JUMPDEST PUSH2 0x262 PUSH2 0x1B3 JUMP JUMPDEST SWAP2 DUP3 SWAP2 DUP3 PUSH2 0x229 JUMP JUMPDEST SUB SWAP1 RETURN JUMPDEST PUSH2 0x1B9 JUMP JUMPDEST SWAP1 JUMP JUMPDEST PUSH2 0x280 DUP2 PUSH2 0x274 JUMP JUMPDEST SUB PUSH2 0x287 JUMPI JUMP JUMPDEST PUSH1 0x0 DUP1 REVERT JUMPDEST SWAP1 POP CALLDATALOAD SWAP1 PUSH2 0x299 DUP3 PUSH2 0x277 JUMP JUMPDEST JUMP JUMPDEST SWAP1 PUSH1 0x20 DUP3 DUP3 SUB SLT PUSH2 0x2B5 JUMPI PUSH2 0x2B2 SWAP2 PUSH1 0x0 ADD PUSH2 0x28C JUMP JUMPDEST SWAP1 JUMP JUMPDEST PUSH2 0x1BE JUMP JUMPDEST PUSH2 0x2C3 SWAP1 PUSH2 0x274 JUMP JUMPDEST SWAP1 MSTORE JUMP JUMPDEST PUSH8 0xFFFFFFFFFFFFFFFF AND SWAP1 JUMP JUMPDEST PUSH2 0x2DD SWAP1 PUSH2 0x2C7 JUMP JUMPDEST SWAP1 MSTORE JUMP JUMPDEST SWAP1 JUMP JUMPDEST PUSH2 0x2ED SWAP1 PUSH2 0x2E1 JUMP JUMPDEST SWAP1 MSTORE JUMP JUMPDEST SWAP1 PUSH1 0x80 DUP1 PUSH2 0x34B SWAP4 PUSH2 0x30B PUSH1 0x0 DUP3 ADD MLOAD PUSH1 0x0 DUP7 ADD SWAP1 PUSH2 0x2BA JUMP JUMPDEST PUSH2 0x31D PUSH1 0x20 DUP3 ADD MLOAD PUSH1 0x20 DUP7 ADD SWAP1 PUSH2 0x2BA JUMP JUMPDEST PUSH2 0x32F PUSH1 0x40 DUP3 ADD MLOAD PUSH1 0x40 DUP7 ADD SWAP1 PUSH2 0x2D4 JUMP JUMPDEST PUSH2 0x341 PUSH1 0x60 DUP3 ADD MLOAD PUSH1 0x60 DUP7 ADD SWAP1 PUSH2 0x2D4 JUMP JUMPDEST ADD MLOAD SWAP2 ADD SWAP1 PUSH2 0x2E4 JUMP JUMPDEST JUMP JUMPDEST SWAP2 SWAP1 PUSH2 0x361 SWAP1 PUSH1 0x0 PUSH1 0xA0 DUP6 ADD SWAP5 ADD SWAP1 PUSH2 0x2F1 JUMP JUMPDEST JUMP JUMPDEST CALLVALUE PUSH2 0x393 JUMPI PUSH2 0x38F PUSH2 0x37E PUSH2 0x379 CALLDATASIZE PUSH1 0x4 PUSH2 0x29B JUMP JUMPDEST PUSH2 0x1509 JUMP JUMPDEST PUSH2 0x386 PUSH2 0x1B3 JUMP JUMPDEST SWAP2 DUP3 SWAP2 DUP3 PUSH2 0x34D JUMP JUMPDEST SUB SWAP1 RETURN JUMPDEST PUSH2 0x1B9 JUMP JUMPDEST PUSH1 0x1 DUP1 PUSH1 0xA0 SHL SUB AND SWAP1 JUMP JUMPDEST PUSH2 0x3AC SWAP1 PUSH2 0x398 JUMP JUMPDEST SWAP1 JUMP JUMPDEST PUSH2 0x3B8 DUP2 PUSH2 0x3A3 JUMP JUMPDEST SUB PUSH2 0x3BF JUMPI JUMP JUMPDEST PUSH1 0x0 DUP1 REVERT JUMPDEST SWAP1 POP CALLDATALOAD SWAP1 PUSH2 0x3D1 DUP3 PUSH2 0x3AF JUMP JUMPDEST JUMP JUMPDEST SWAP1 PUSH1 0x20 DUP3 DUP3 SUB SLT PUSH2 0x3ED JUMPI PUSH2 0x3EA SWAP2 PUSH1 0x0 ADD PUSH2 0x3C4 JUMP JUMPDEST SWAP1 JUMP JUMPDEST PUSH2 0x1BE JUMP JUMPDEST PUSH1 0x0 ADD SWAP1 JUMP JUMPDEST CALLVALUE PUSH2 0x426 JUMPI PUSH2 0x410 PUSH2 0x40B CALLDATASIZE PUSH1 0x4 PUSH2 0x3D3 JUMP JUMPDEST PUSH2 0x15FA JUMP JUMPDEST PUSH2 0x418 PUSH2 0x1B3 JUMP JUMPDEST DUP1 PUSH2 0x422 DUP2 PUSH2 0x3F2 JUMP JUMPDEST SUB SWAP1 RETURN JUMPDEST PUSH2 0x1B9 JUMP JUMPDEST PUSH1 0x0 SWAP2 SUB SLT PUSH2 0x436 JUMPI JUMP JUMPDEST PUSH2 0x1BE JUMP JUMPDEST SWAP1 PUSH1 0xC0 DUP1 PUSH2 0x4B9 SWAP4 PUSH2 0x455 PUSH1 0x0 DUP3 ADD MLOAD PUSH1 0x0 DUP7 ADD SWAP1 PUSH2 0x2BA JUMP JUMPDEST PUSH2 0x467 PUSH1 0x20 DUP3 ADD MLOAD PUSH1 0x20 DUP7 ADD SWAP1 PUSH2 0x2BA JUMP JUMPDEST PUSH2 0x479 PUSH1 0x40 DUP3 ADD MLOAD PUSH1 0x40 DUP7 ADD SWAP1 PUSH2 0x2BA JUMP JUMPDEST PUSH2 0x48B PUSH1 0x60 DUP3 ADD MLOAD PUSH1 0x60 DUP7 ADD SWAP1 PUSH2 0x2BA JUMP JUMPDEST PUSH2 0x49D PUSH1 0x80 DUP3 ADD MLOAD PUSH1 0x80 DUP7 ADD SWAP1 PUSH2 0x2D4 JUMP JUMPDEST PUSH2 0x4AF PUSH1 0xA0 DUP3 ADD MLOAD PUSH1 0xA0 DUP7 ADD SWAP1 PUSH2 0x2D4 JUMP JUMPDEST ADD MLOAD SWAP2 ADD SWAP1 PUSH2 0x2E4 JUMP JUMPDEST JUMP JUMPDEST SWAP2 SWAP1 PUSH2 0x4CF SWAP1 PUSH1 0x0 PUSH1 0xE0 DUP6 ADD SWAP5 ADD SWAP1 PUSH2 0x43B JUMP JUMPDEST JUMP JUMPDEST CALLVALUE PUSH2 0x501 JUMPI PUSH2 0x4E1 CALLDATASIZE PUSH1 0x4 PUSH2 0x42B JUMP JUMPDEST PUSH2 0x4FD PUSH2 0x4EC PUSH2 0x173E JUMP JUMPDEST PUSH2 0x4F4 PUSH2 0x1B3 JUMP JUMPDEST SWAP2 DUP3 SWAP2 DUP3 PUSH2 0x4BB JUMP JUMPDEST SUB SWAP1 RETURN JUMPDEST PUSH2 0x1B9 JUMP JUMPDEST PUSH2 0x50F DUP2 PUSH2 0x2E1 JUMP JUMPDEST SUB PUSH2 0x516 JUMPI JUMP JUMPDEST PUSH1 0x0 DUP1 REVERT JUMPDEST SWAP1 POP CALLDATALOAD SWAP1 PUSH2 0x528 DUP3 PUSH2 0x506 JUMP JUMPDEST JUMP JUMPDEST SWAP1 PUSH1 0x20 DUP3 DUP3 SUB SLT PUSH2 0x544 JUMPI PUSH2 0x541 SWAP2 PUSH1 0x0 ADD PUSH2 0x51B JUMP JUMPDEST SWAP1 JUMP JUMPDEST PUSH2 0x1BE JUMP JUMPDEST PUSH2 0x552 SWAP1 PUSH2 0x2E1 JUMP JUMPDEST SWAP1 MSTORE JUMP JUMPDEST SWAP2 SWAP1 PUSH2 0x56A SWAP1 PUSH1 0x0 PUSH1 0x20 DUP6 ADD SWAP5 ADD SWAP1 PUSH2 0x549 JUMP JUMPDEST JUMP JUMPDEST CALLVALUE PUSH2 0x59C JUMPI PUSH2 0x598 PUSH2 0x587 PUSH2 0x582 CALLDATASIZE PUSH1 0x4 PUSH2 0x52A JUMP JUMPDEST PUSH2 0x177D JUMP JUMPDEST PUSH2 0x58F PUSH2 0x1B3 JUMP JUMPDEST SWAP2 DUP3 SWAP2 DUP3 PUSH2 0x556 JUMP JUMPDEST SUB SWAP1 RETURN JUMPDEST PUSH2 0x1B9 JUMP JUMPDEST SWAP2 SWAP1 PUSH1 0x40 DUP4 DUP3 SUB SLT PUSH2 0x5CA JUMPI DUP1 PUSH2 0x5BE PUSH2 0x5C7 SWAP3 PUSH1 0x0 DUP7 ADD PUSH2 0x51B JUMP JUMPDEST SWAP4 PUSH1 0x20 ADD PUSH2 0x3C4 JUMP JUMPDEST SWAP1 JUMP JUMPDEST PUSH2 0x1BE JUMP JUMPDEST CALLVALUE PUSH2 0x5FE JUMPI PUSH2 0x5E8 PUSH2 0x5E2 CALLDATASIZE PUSH1 0x4 PUSH2 0x5A1 JUMP JUMPDEST SWAP1 PUSH2 0x17C8 JUMP JUMPDEST PUSH2 0x5F0 PUSH2 0x1B3 JUMP JUMPDEST DUP1 PUSH2 0x5FA DUP2 PUSH2 0x3F2 JUMP JUMPDEST SUB SWAP1 RETURN JUMPDEST PUSH2 0x1B9 JUMP JUMPDEST PUSH2 0x60C SWAP1 PUSH2 0x3A3 JUMP JUMPDEST SWAP1 MSTORE JUMP JUMPDEST SWAP2 SWAP1 PUSH2 0x624 SWAP1 PUSH1 0x0 PUSH1 0x20 DUP6 ADD SWAP5 ADD SWAP1 PUSH2 0x603 JUMP JUMPDEST JUMP JUMPDEST CALLVALUE PUSH2 0x656 JUMPI PUSH2 0x636 CALLDATASIZE PUSH1 0x4 PUSH2 0x42B JUMP JUMPDEST PUSH2 0x652 PUSH2 0x641 PUSH2 0x1805 JUMP JUMPDEST PUSH2 0x649 PUSH2 0x1B3 JUMP JUMPDEST SWAP2 DUP3 SWAP2 DUP3 PUSH2 0x610 JUMP JUMPDEST SUB SWAP1 RETURN JUMPDEST PUSH2 0x1B9 JUMP JUMPDEST CALLVALUE PUSH2 0x68A JUMPI PUSH2 0x674 PUSH2 0x66E CALLDATASIZE PUSH1 0x4 PUSH2 0x5A1 JUMP JUMPDEST SWAP1 PUSH2 0x18CE JUMP JUMPDEST PUSH2 0x67C PUSH2 0x1B3 JUMP JUMPDEST DUP1 PUSH2 0x686 DUP2 PUSH2 0x3F2 JUMP JUMPDEST SUB SWAP1 RETURN JUMPDEST PUSH2 0x1B9 JUMP JUMPDEST SWAP1 SWAP2 PUSH1 0x60 DUP3 DUP5 SUB SLT PUSH2 0x6C5 JUMPI PUSH2 0x6C2 PUSH2 0x6AB DUP5 PUSH1 0x0 DUP6 ADD PUSH2 0x3C4 JUMP JUMPDEST SWAP4 PUSH2 0x6B9 DUP2 PUSH1 0x20 DUP7 ADD PUSH2 0x3C4 JUMP JUMPDEST SWAP4 PUSH1 0x40 ADD PUSH2 0x28C JUMP JUMPDEST SWAP1 JUMP JUMPDEST PUSH2 0x1BE JUMP JUMPDEST CALLVALUE PUSH2 0x6F9 JUMPI PUSH2 0x6E3 PUSH2 0x6DD CALLDATASIZE PUSH1 0x4 PUSH2 0x68F JUMP JUMPDEST SWAP2 PUSH2 0x196D JUMP JUMPDEST PUSH2 0x6EB PUSH2 0x1B3 JUMP JUMPDEST DUP1 PUSH2 0x6F5 DUP2 PUSH2 0x3F2 JUMP JUMPDEST SUB SWAP1 RETURN JUMPDEST PUSH2 0x1B9 JUMP JUMPDEST SWAP2 SWAP1 PUSH1 0x40 DUP4 DUP3 SUB SLT PUSH2 0x727 JUMPI DUP1 PUSH2 0x71B PUSH2 0x724 SWAP3 PUSH1 0x0 DUP7 ADD PUSH2 0x3C4 JUMP JUMPDEST SWAP4 PUSH1 0x20 ADD PUSH2 0x28C JUMP JUMPDEST SWAP1 JUMP JUMPDEST PUSH2 0x1BE JUMP JUMPDEST CALLVALUE PUSH2 0x75B JUMPI PUSH2 0x745 PUSH2 0x73F CALLDATASIZE PUSH1 0x4 PUSH2 0x6FE JUMP JUMPDEST SWAP1 PUSH2 0x1A50 JUMP JUMPDEST PUSH2 0x74D PUSH2 0x1B3 JUMP JUMPDEST DUP1 PUSH2 0x757 DUP2 PUSH2 0x3F2 JUMP JUMPDEST SUB SWAP1 RETURN JUMPDEST PUSH2 0x1B9 JUMP JUMPDEST PUSH2 0x769 DUP2 PUSH2 0x2C7 JUMP JUMPDEST SUB PUSH2 0x770 JUMPI JUMP JUMPDEST PUSH1 0x0 DUP1 REVERT JUMPDEST SWAP1 POP CALLDATALOAD SWAP1 PUSH2 0x782 DUP3 PUSH2 0x760 JUMP JUMPDEST JUMP JUMPDEST SWAP1 SWAP2 PUSH1 0xC0 DUP3 DUP5 SUB SLT PUSH2 0x7E4 JUMPI PUSH2 0x79D DUP4 PUSH1 0x0 DUP5 ADD PUSH2 0x28C JUMP JUMPDEST SWAP3 PUSH2 0x7AB DUP2 PUSH1 0x20 DUP6 ADD PUSH2 0x28C JUMP JUMPDEST SWAP3 PUSH2 0x7B9 DUP3 PUSH1 0x40 DUP4 ADD PUSH2 0x28C JUMP JUMPDEST SWAP3 PUSH2 0x7E1 PUSH2 0x7CA DUP5 PUSH1 0x60 DUP6 ADD PUSH2 0x775 JUMP JUMPDEST SWAP4 PUSH2 0x7D8 DUP2 PUSH1 0x80 DUP7 ADD PUSH2 0x775 JUMP JUMPDEST SWAP4 PUSH1 0xA0 ADD PUSH2 0x51B JUMP JUMPDEST SWAP1 JUMP JUMPDEST PUSH2 0x1BE JUMP JUMPDEST CALLVALUE PUSH2 0x81E JUMPI PUSH2 0x808 PUSH2 0x7FC CALLDATASIZE PUSH1 0x4 PUSH2 0x784 JUMP JUMPDEST SWAP5 SWAP4 SWAP1 SWAP4 SWAP3 SWAP2 SWAP3 PUSH2 0x1E42 JUMP JUMPDEST PUSH2 0x810 PUSH2 0x1B3 JUMP JUMPDEST DUP1 PUSH2 0x81A DUP2 PUSH2 0x3F2 JUMP JUMPDEST SUB SWAP1 RETURN JUMPDEST PUSH2 0x1B9 JUMP JUMPDEST PUSH1 0x0 DUP1 REVERT JUMPDEST PUSH1 0x1F DUP1 NOT SWAP2 ADD AND SWAP1 JUMP JUMPDEST PUSH4 0x4E487B71 PUSH1 0xE0 SHL PUSH1 0x0 MSTORE PUSH1 0x41 PUSH1 0x4 MSTORE PUSH1 0x24 PUSH1 0x0 REVERT JUMPDEST SWAP1 PUSH2 0x852 SWAP1 PUSH2 0x828 JUMP JUMPDEST DUP2 ADD SWAP1 DUP2 LT PUSH8 0xFFFFFFFFFFFFFFFF DUP3 GT OR PUSH2 0x86C JUMPI PUSH1 0x40 MSTORE JUMP JUMPDEST PUSH2 0x832 JUMP JUMPDEST SWAP1 PUSH2 0x884 PUSH2 0x87D PUSH2 0x1B3 JUMP JUMPDEST SWAP3 DUP4 PUSH2 0x848 JUMP JUMPDEST JUMP JUMPDEST PUSH8 0xFFFFFFFFFFFFFFFF DUP2 GT PUSH2 0x89E JUMPI PUSH1 0x20 DUP1 SWAP2 MUL ADD SWAP1 JUMP JUMPDEST PUSH2 0x832 JUMP JUMPDEST PUSH1 0x0 DUP1 REVERT JUMPDEST SWAP1 SWAP3 SWAP2 SWAP3 PUSH2 0x8BD PUSH2 0x8B8 DUP3 PUSH2 0x886 JUMP JUMPDEST PUSH2 0x871 JUMP JUMPDEST SWAP4 DUP2 DUP6 MSTORE PUSH1 0x20 DUP1 DUP7 ADD SWAP3 MUL DUP4 ADD SWAP3 DUP2 DUP5 GT PUSH2 0x8FA JUMPI SWAP2 JUMPDEST DUP4 DUP4 LT PUSH2 0x8E1 JUMPI POP POP POP POP JUMP JUMPDEST PUSH1 0x20 DUP1 SWAP2 PUSH2 0x8EF DUP5 DUP7 PUSH2 0x28C JUMP JUMPDEST DUP2 MSTORE ADD SWAP3 ADD SWAP2 PUSH2 0x8D4 JUMP JUMPDEST PUSH2 0x8A3 JUMP JUMPDEST SWAP1 DUP1 PUSH1 0x1F DUP4 ADD SLT ISZERO PUSH2 0x91D JUMPI DUP2 PUSH1 0x20 PUSH2 0x91A SWAP4 CALLDATALOAD SWAP2 ADD PUSH2 0x8A8 JUMP JUMPDEST SWAP1 JUMP JUMPDEST PUSH2 0x823 JUMP JUMPDEST PUSH1 0x0 DUP1 REVERT JUMPDEST PUSH8 0xFFFFFFFFFFFFFFFF DUP2 GT PUSH2 0x945 JUMPI PUSH2 0x941 PUSH1 0x20 SWAP2 PUSH2 0x828 JUMP JUMPDEST ADD SWAP1 JUMP JUMPDEST PUSH2 0x832 JUMP JUMPDEST SWAP1 DUP3 PUSH1 0x0 SWAP4 SWAP3 DUP3 CALLDATACOPY ADD MSTORE JUMP JUMPDEST SWAP1 SWAP3 SWAP2 SWAP3 PUSH2 0x96B PUSH2 0x966 DUP3 PUSH2 0x927 JUMP JUMPDEST PUSH2 0x871 JUMP JUMPDEST SWAP4 DUP2 DUP6 MSTORE PUSH1 0x20 DUP6 ADD SWAP1 DUP3 DUP5 ADD GT PUSH2 0x987 JUMPI PUSH2 0x985 SWAP3 PUSH2 0x94A JUMP JUMPDEST JUMP JUMPDEST PUSH2 0x922 JUMP JUMPDEST SWAP1 DUP1 PUSH1 0x1F DUP4 ADD SLT ISZERO PUSH2 0x9AA JUMPI DUP2 PUSH1 0x20 PUSH2 0x9A7 SWAP4 CALLDATALOAD SWAP2 ADD PUSH2 0x956 JUMP JUMPDEST SWAP1 JUMP JUMPDEST PUSH2 0x823 JUMP JUMPDEST PUSH1 0x0 DUP1 REVERT JUMPDEST SWAP1 SWAP2 DUP3 PUSH1 0x1F DUP4 ADD SLT ISZERO PUSH2 0x9EE JUMPI DUP2 CALLDATALOAD SWAP2 PUSH8 0xFFFFFFFFFFFFFFFF DUP4 GT PUSH2 0x9E9 JUMPI PUSH1 0x20 ADD SWAP3 PUSH1 0x20 DUP4 MUL DUP5 ADD GT PUSH2 0x9E4 JUMPI JUMP JUMPDEST PUSH2 0x8A3 JUMP JUMPDEST PUSH2 0x9AF JUMP JUMPDEST PUSH2 0x823 JUMP JUMPDEST SWAP1 PUSH1 0xE0 DUP3 DUP3 SUB SLT PUSH2 0xAC1 JUMPI PUSH2 0xA0B DUP2 PUSH1 0x0 DUP5 ADD PUSH2 0x3C4 JUMP JUMPDEST SWAP3 PUSH1 0x20 DUP4 ADD CALLDATALOAD PUSH8 0xFFFFFFFFFFFFFFFF DUP2 GT PUSH2 0xABC JUMPI DUP3 PUSH2 0xA2C SWAP2 DUP6 ADD PUSH2 0x8FF JUMP JUMPDEST SWAP3 PUSH1 0x40 DUP2 ADD CALLDATALOAD PUSH8 0xFFFFFFFFFFFFFFFF DUP2 GT PUSH2 0xAB7 JUMPI DUP4 PUSH2 0xA4D SWAP2 DUP4 ADD PUSH2 0x8FF JUMP JUMPDEST SWAP3 PUSH1 0x60 DUP3 ADD CALLDATALOAD PUSH8 0xFFFFFFFFFFFFFFFF DUP2 GT PUSH2 0xAB2 JUMPI DUP2 PUSH2 0xA6E SWAP2 DUP5 ADD PUSH2 0x98C JUMP JUMPDEST SWAP3 PUSH2 0xA7C DUP3 PUSH1 0x80 DUP6 ADD PUSH2 0x3C4 JUMP JUMPDEST SWAP3 PUSH2 0xA8A DUP4 PUSH1 0xA0 DUP4 ADD PUSH2 0x28C JUMP JUMPDEST SWAP3 PUSH1 0xC0 DUP3 ADD CALLDATALOAD PUSH8 0xFFFFFFFFFFFFFFFF DUP2 GT PUSH2 0xAAD JUMPI PUSH2 0xAA9 SWAP3 ADD PUSH2 0x9B4 JUMP JUMPDEST SWAP1 SWAP2 JUMP JUMPDEST PUSH2 0x1C3 JUMP JUMPDEST PUSH2 0x1C3 JUMP JUMPDEST PUSH2 0x1C3 JUMP JUMPDEST PUSH2 0x1C3 JUMP JUMPDEST PUSH2 0x1BE JUMP JUMPDEST PUSH2 0xAE3 PUSH2 0xAD4 CALLDATASIZE PUSH1 0x4 PUSH2 0x9F3 JUMP JUMPDEST SWAP7 SWAP6 SWAP1 SWAP6 SWAP5 SWAP2 SWAP5 SWAP4 SWAP3 SWAP4 PUSH2 0x2038 JUMP JUMPDEST PUSH2 0xAEB PUSH2 0x1B3 JUMP JUMPDEST DUP1 PUSH2 0xAF5 DUP2 PUSH2 0x3F2 JUMP JUMPDEST SUB SWAP1 RETURN JUMPDEST PUSH1 0x80 DUP2 DUP4 SUB SLT PUSH2 0xB3B JUMPI PUSH2 0xB10 DUP3 PUSH1 0x0 DUP4 ADD PUSH2 0x3C4 JUMP JUMPDEST SWAP3 PUSH2 0xB38 PUSH2 0xB21 DUP5 PUSH1 0x20 DUP6 ADD PUSH2 0x3C4 JUMP JUMPDEST SWAP4 PUSH2 0xB2F DUP2 PUSH1 0x40 DUP7 ADD PUSH2 0x3C4 JUMP JUMPDEST SWAP4 PUSH1 0x60 ADD PUSH2 0x51B JUMP JUMPDEST SWAP1 JUMP JUMPDEST PUSH2 0x1BE JUMP JUMPDEST CALLVALUE PUSH2 0xB72 JUMPI PUSH2 0xB5C PUSH2 0xB53 CALLDATASIZE PUSH1 0x4 PUSH2 0xAF9 JUMP JUMPDEST SWAP3 SWAP2 SWAP1 SWAP2 PUSH2 0x2231 JUMP JUMPDEST PUSH2 0xB64 PUSH2 0x1B3 JUMP JUMPDEST DUP1 PUSH2 0xB6E DUP2 PUSH2 0x3F2 JUMP JUMPDEST SUB SWAP1 RETURN JUMPDEST PUSH2 0x1B9 JUMP JUMPDEST CALLVALUE PUSH2 0xBA5 JUMPI PUSH2 0xB8F PUSH2 0xB8A CALLDATASIZE PUSH1 0x4 PUSH2 0x3D3 JUMP JUMPDEST PUSH2 0x2301 JUMP JUMPDEST PUSH2 0xB97 PUSH2 0x1B3 JUMP JUMPDEST DUP1 PUSH2 0xBA1 DUP2 PUSH2 0x3F2 JUMP JUMPDEST SUB SWAP1 RETURN JUMPDEST PUSH2 0x1B9 JUMP JUMPDEST SWAP2 SWAP1 PUSH1 0x40 DUP4 DUP3 SUB SLT PUSH2 0xBD3 JUMPI DUP1 PUSH2 0xBC7 PUSH2 0xBD0 SWAP3 PUSH1 0x0 DUP7 ADD PUSH2 0x51B JUMP JUMPDEST SWAP4 PUSH1 0x20 ADD PUSH2 0x28C JUMP JUMPDEST SWAP1 JUMP JUMPDEST PUSH2 0x1BE JUMP JUMPDEST CALLVALUE PUSH2 0xC09 JUMPI PUSH2 0xC05 PUSH2 0xBF4 PUSH2 0xBEE CALLDATASIZE PUSH1 0x4 PUSH2 0xBAA JUMP JUMPDEST SWAP1 PUSH2 0x2327 JUMP JUMPDEST PUSH2 0xBFC PUSH2 0x1B3 JUMP JUMPDEST SWAP2 DUP3 SWAP2 DUP3 PUSH2 0x610 JUMP JUMPDEST SUB SWAP1 RETURN JUMPDEST PUSH2 0x1B9 JUMP JUMPDEST CALLVALUE PUSH2 0xC3F JUMPI PUSH2 0xC3B PUSH2 0xC2A PUSH2 0xC24 CALLDATASIZE PUSH1 0x4 PUSH2 0x5A1 JUMP JUMPDEST SWAP1 PUSH2 0x2367 JUMP JUMPDEST PUSH2 0xC32 PUSH2 0x1B3 JUMP JUMPDEST SWAP2 DUP3 SWAP2 DUP3 PUSH2 0x229 JUMP JUMPDEST SUB SWAP1 RETURN JUMPDEST PUSH2 0x1B9 JUMP JUMPDEST PUSH1 0x0 DUP1 REVERT JUMPDEST SWAP1 DUP2 PUSH1 0xC0 SWAP2 SUB SLT PUSH2 0xC57 JUMPI SWAP1 JUMP JUMPDEST PUSH2 0xC44 JUMP JUMPDEST SWAP1 DUP2 PUSH1 0xE0 SWAP2 SUB SLT PUSH2 0xC6A JUMPI SWAP1 JUMP JUMPDEST PUSH2 0xC44 JUMP JUMPDEST SWAP2 PUSH1 0x60 DUP4 DUP4 SUB SLT PUSH2 0xCD4 JUMPI PUSH2 0xC87 DUP3 PUSH1 0x0 DUP6 ADD PUSH2 0x3C4 JUMP JUMPDEST SWAP3 PUSH1 0x20 DUP2 ADD CALLDATALOAD PUSH8 0xFFFFFFFFFFFFFFFF DUP2 GT PUSH2 0xCCF JUMPI DUP4 PUSH2 0xCA8 SWAP2 DUP4 ADD PUSH2 0xC49 JUMP JUMPDEST SWAP3 PUSH1 0x40 DUP3 ADD CALLDATALOAD PUSH8 0xFFFFFFFFFFFFFFFF DUP2 GT PUSH2 0xCCA JUMPI PUSH2 0xCC7 SWAP3 ADD PUSH2 0xC5C JUMP JUMPDEST SWAP1 JUMP JUMPDEST PUSH2 0x1C3 JUMP JUMPDEST PUSH2 0x1C3 JUMP JUMPDEST PUSH2 0x1BE JUMP JUMPDEST CALLVALUE PUSH2 0xD0A JUMPI PUSH2 0xD06 PUSH2 0xCF5 PUSH2 0xCEF CALLDATASIZE PUSH1 0x4 PUSH2 0xC6F JUMP JUMPDEST SWAP2 PUSH2 0x268B JUMP JUMPDEST PUSH2 0xCFD PUSH2 0x1B3 JUMP JUMPDEST SWAP2 DUP3 SWAP2 DUP3 PUSH2 0x556 JUMP JUMPDEST SUB SWAP1 RETURN JUMPDEST PUSH2 0x1B9 JUMP JUMPDEST SWAP1 JUMP JUMPDEST PUSH1 0x0 SHL SWAP1 JUMP JUMPDEST PUSH2 0xD2C PUSH2 0xD27 PUSH2 0xD31 SWAP3 PUSH2 0xD0F JUMP JUMPDEST PUSH2 0xD12 JUMP JUMPDEST PUSH2 0x2E1 JUMP JUMPDEST SWAP1 JUMP JUMPDEST PUSH2 0xD3E PUSH1 0x0 PUSH2 0xD18 JUMP JUMPDEST SWAP1 JUMP JUMPDEST PUSH2 0xD49 PUSH2 0xD34 JUMP JUMPDEST SWAP1 JUMP JUMPDEST CALLVALUE PUSH2 0xD7C JUMPI PUSH2 0xD5C CALLDATASIZE PUSH1 0x4 PUSH2 0x42B JUMP JUMPDEST PUSH2 0xD78 PUSH2 0xD67 PUSH2 0xD41 JUMP JUMPDEST PUSH2 0xD6F PUSH2 0x1B3 JUMP JUMPDEST SWAP2 DUP3 SWAP2 DUP3 PUSH2 0x556 JUMP JUMPDEST SUB SWAP1 RETURN JUMPDEST PUSH2 0x1B9 JUMP JUMPDEST SWAP2 PUSH1 0x80 DUP4 DUP4 SUB SLT PUSH2 0xDDF JUMPI PUSH2 0xD99 DUP3 PUSH1 0x0 DUP6 ADD PUSH2 0x51B JUMP JUMPDEST SWAP3 PUSH1 0x20 DUP2 ADD CALLDATALOAD SWAP2 PUSH8 0xFFFFFFFFFFFFFFFF DUP4 GT PUSH2 0xDDA JUMPI PUSH2 0xDBE DUP5 PUSH2 0xDD7 SWAP5 DUP5 ADD PUSH2 0x9B4 JUMP JUMPDEST SWAP4 SWAP1 SWAP5 PUSH2 0xDCE DUP2 PUSH1 0x40 DUP7 ADD PUSH2 0x3C4 JUMP JUMPDEST SWAP4 PUSH1 0x60 ADD PUSH2 0x51B JUMP JUMPDEST SWAP1 JUMP JUMPDEST PUSH2 0x1C3 JUMP JUMPDEST PUSH2 0x1BE JUMP JUMPDEST CALLVALUE PUSH2 0xE18 JUMPI PUSH2 0xE14 PUSH2 0xE03 PUSH2 0xDFA CALLDATASIZE PUSH1 0x4 PUSH2 0xD81 JUMP JUMPDEST SWAP4 SWAP3 SWAP1 SWAP3 PUSH2 0x284E JUMP JUMPDEST PUSH2 0xE0B PUSH2 0x1B3 JUMP JUMPDEST SWAP2 DUP3 SWAP2 DUP3 PUSH2 0x229 JUMP JUMPDEST SUB SWAP1 RETURN JUMPDEST PUSH2 0x1B9 JUMP JUMPDEST PUSH1 0xE0 DUP2 DUP4 SUB SLT PUSH2 0xE89 JUMPI PUSH2 0xE34 DUP3 PUSH1 0x0 DUP4 ADD PUSH2 0x28C JUMP JUMPDEST SWAP3 PUSH2 0xE42 DUP4 PUSH1 0x20 DUP5 ADD PUSH2 0x28C JUMP JUMPDEST SWAP3 PUSH2 0xE50 DUP2 PUSH1 0x40 DUP6 ADD PUSH2 0x28C JUMP JUMPDEST SWAP3 PUSH2 0xE5E DUP3 PUSH1 0x60 DUP4 ADD PUSH2 0x28C JUMP JUMPDEST SWAP3 PUSH2 0xE86 PUSH2 0xE6F DUP5 PUSH1 0x80 DUP6 ADD PUSH2 0x775 JUMP JUMPDEST SWAP4 PUSH2 0xE7D DUP2 PUSH1 0xA0 DUP7 ADD PUSH2 0x775 JUMP JUMPDEST SWAP4 PUSH1 0xC0 ADD PUSH2 0x51B JUMP JUMPDEST SWAP1 JUMP JUMPDEST PUSH2 0x1BE JUMP JUMPDEST CALLVALUE PUSH2 0xEC3 JUMPI PUSH2 0xEAD PUSH2 0xEA1 CALLDATASIZE PUSH1 0x4 PUSH2 0xE1D JUMP JUMPDEST SWAP6 SWAP5 SWAP1 SWAP5 SWAP4 SWAP2 SWAP4 PUSH2 0x2B95 JUMP JUMPDEST PUSH2 0xEB5 PUSH2 0x1B3 JUMP JUMPDEST DUP1 PUSH2 0xEBF DUP2 PUSH2 0x3F2 JUMP JUMPDEST SUB SWAP1 RETURN JUMPDEST PUSH2 0x1B9 JUMP JUMPDEST PUSH2 0xED1 SWAP1 PUSH2 0x274 JUMP JUMPDEST SWAP1 MSTORE JUMP JUMPDEST SWAP2 SWAP1 PUSH2 0xEE9 SWAP1 PUSH1 0x0 PUSH1 0x20 DUP6 ADD SWAP5 ADD SWAP1 PUSH2 0xEC8 JUMP JUMPDEST JUMP JUMPDEST CALLVALUE PUSH2 0xF1B JUMPI PUSH2 0xF17 PUSH2 0xF06 PUSH2 0xF01 CALLDATASIZE PUSH1 0x4 PUSH2 0x52A JUMP JUMPDEST PUSH2 0x2BAB JUMP JUMPDEST PUSH2 0xF0E PUSH2 0x1B3 JUMP JUMPDEST SWAP2 DUP3 SWAP2 DUP3 PUSH2 0xED5 JUMP JUMPDEST SUB SWAP1 RETURN JUMPDEST PUSH2 0x1B9 JUMP JUMPDEST CALLVALUE PUSH2 0xF4F JUMPI PUSH2 0xF39 PUSH2 0xF33 CALLDATASIZE PUSH1 0x4 PUSH2 0x5A1 JUMP JUMPDEST SWAP1 PUSH2 0x2BFB JUMP JUMPDEST PUSH2 0xF41 PUSH2 0x1B3 JUMP JUMPDEST DUP1 PUSH2 0xF4B DUP2 PUSH2 0x3F2 JUMP JUMPDEST SUB SWAP1 RETURN JUMPDEST PUSH2 0x1B9 JUMP JUMPDEST CALLVALUE PUSH2 0xF82 JUMPI PUSH2 0xF6C PUSH2 0xF67 CALLDATASIZE PUSH1 0x4 PUSH2 0x52A JUMP JUMPDEST PUSH2 0x2C2F JUMP JUMPDEST PUSH2 0xF74 PUSH2 0x1B3 JUMP JUMPDEST DUP1 PUSH2 0xF7E DUP2 PUSH2 0x3F2 JUMP JUMPDEST SUB SWAP1 RETURN JUMPDEST PUSH2 0x1B9 JUMP JUMPDEST SWAP1 SWAP2 DUP3 PUSH1 0x1F DUP4 ADD SLT ISZERO PUSH2 0xFC1 JUMPI DUP2 CALLDATALOAD SWAP2 PUSH8 0xFFFFFFFFFFFFFFFF DUP4 GT PUSH2 0xFBC JUMPI PUSH1 0x20 ADD SWAP3 PUSH1 0x20 DUP4 MUL DUP5 ADD GT PUSH2 0xFB7 JUMPI JUMP JUMPDEST PUSH2 0x8A3 JUMP JUMPDEST PUSH2 0x9AF JUMP JUMPDEST PUSH2 0x823 JUMP JUMPDEST SWAP1 SWAP2 DUP3 PUSH1 0x1F DUP4 ADD SLT ISZERO PUSH2 0x1000 JUMPI DUP2 CALLDATALOAD SWAP2 PUSH8 0xFFFFFFFFFFFFFFFF DUP4 GT PUSH2 0xFFB JUMPI PUSH1 0x20 ADD SWAP3 PUSH1 0x20 DUP4 MUL DUP5 ADD GT PUSH2 0xFF6 JUMPI JUMP JUMPDEST PUSH2 0x8A3 JUMP JUMPDEST PUSH2 0x9AF JUMP JUMPDEST PUSH2 0x823 JUMP JUMPDEST SWAP1 SWAP2 PUSH1 0xC0 DUP3 DUP5 SUB SLT PUSH2 0x1100 JUMPI PUSH1 0x0 DUP3 ADD CALLDATALOAD PUSH8 0xFFFFFFFFFFFFFFFF DUP2 GT PUSH2 0x10FB JUMPI DUP4 PUSH2 0x1031 SWAP2 DUP5 ADD PUSH2 0xF87 JUMP JUMPDEST SWAP3 SWAP1 SWAP4 PUSH1 0x20 DUP3 ADD CALLDATALOAD PUSH8 0xFFFFFFFFFFFFFFFF DUP2 GT PUSH2 0x10F6 JUMPI DUP2 PUSH2 0x1054 SWAP2 DUP5 ADD PUSH2 0xF87 JUMP JUMPDEST SWAP3 SWAP1 SWAP4 PUSH1 0x40 DUP3 ADD CALLDATALOAD PUSH8 0xFFFFFFFFFFFFFFFF DUP2 GT PUSH2 0x10F1 JUMPI DUP4 PUSH2 0x1077 SWAP2 DUP5 ADD PUSH2 0xF87 JUMP JUMPDEST SWAP3 SWAP1 SWAP4 PUSH1 0x60 DUP3 ADD CALLDATALOAD PUSH8 0xFFFFFFFFFFFFFFFF DUP2 GT PUSH2 0x10EC JUMPI DUP2 PUSH2 0x109A SWAP2 DUP5 ADD PUSH2 0xFC6 JUMP JUMPDEST SWAP3 SWAP1 SWAP4 PUSH1 0x80 DUP3 ADD CALLDATALOAD PUSH8 0xFFFFFFFFFFFFFFFF DUP2 GT PUSH2 0x10E7 JUMPI DUP4 PUSH2 0x10BD SWAP2 DUP5 ADD PUSH2 0xFC6 JUMP JUMPDEST SWAP3 SWAP1 SWAP4 PUSH1 0xA0 DUP3 ADD CALLDATALOAD PUSH8 0xFFFFFFFFFFFFFFFF DUP2 GT PUSH2 0x10E2 JUMPI PUSH2 0x10DE SWAP3 ADD PUSH2 0x9B4 JUMP JUMPDEST SWAP1 SWAP2 JUMP JUMPDEST PUSH2 0x1C3 JUMP JUMPDEST PUSH2 0x1C3 JUMP JUMPDEST PUSH2 0x1C3 JUMP JUMPDEST PUSH2 0x1C3 JUMP JUMPDEST PUSH2 0x1C3 JUMP JUMPDEST PUSH2 0x1C3 JUMP JUMPDEST PUSH2 0x1BE JUMP JUMPDEST CALLVALUE PUSH2 0x1143 JUMPI PUSH2 0x112D PUSH2 0x1118 CALLDATASIZE PUSH1 0x4 PUSH2 0x1005 JUMP JUMPDEST SWAP11 SWAP10 SWAP1 SWAP10 SWAP9 SWAP2 SWAP9 SWAP8 SWAP3 SWAP8 SWAP7 SWAP4 SWAP7 SWAP6 SWAP5 SWAP6 PUSH2 0x315E JUMP JUMPDEST PUSH2 0x1135 PUSH2 0x1B3 JUMP JUMPDEST DUP1 PUSH2 0x113F DUP2 PUSH2 0x3F2 JUMP JUMPDEST SUB SWAP1 RETURN JUMPDEST PUSH2 0x1B9 JUMP JUMPDEST SWAP1 PUSH1 0x20 DUP3 DUP3 SUB SLT PUSH2 0x117A JUMPI PUSH1 0x0 DUP3 ADD CALLDATALOAD PUSH8 0xFFFFFFFFFFFFFFFF DUP2 GT PUSH2 0x1175 JUMPI PUSH2 0x1171 SWAP3 ADD PUSH2 0xF87 JUMP JUMPDEST SWAP1 SWAP2 JUMP JUMPDEST PUSH2 0x1C3 JUMP JUMPDEST PUSH2 0x1BE JUMP JUMPDEST MLOAD SWAP1 JUMP JUMPDEST PUSH1 0x20 SWAP2 DUP2 MSTORE ADD SWAP1 JUMP JUMPDEST PUSH1 0x20 ADD SWAP1 JUMP JUMPDEST SWAP1 PUSH1 0x80 DUP1 PUSH2 0x11EC SWAP4 PUSH2 0x11AC PUSH1 0x0 DUP3 ADD MLOAD PUSH1 0x0 DUP7 ADD SWAP1 PUSH2 0x2BA JUMP JUMPDEST PUSH2 0x11BE PUSH1 0x20 DUP3 ADD MLOAD PUSH1 0x20 DUP7 ADD SWAP1 PUSH2 0x2BA JUMP JUMPDEST PUSH2 0x11D0 PUSH1 0x40 DUP3 ADD MLOAD PUSH1 0x40 DUP7 ADD SWAP1 PUSH2 0x2D4 JUMP JUMPDEST PUSH2 0x11E2 PUSH1 0x60 DUP3 ADD MLOAD PUSH1 0x60 DUP7 ADD SWAP1 PUSH2 0x2D4 JUMP JUMPDEST ADD MLOAD SWAP2 ADD SWAP1 PUSH2 0x2E4 JUMP JUMPDEST JUMP JUMPDEST SWAP1 PUSH2 0x11FB DUP2 PUSH1 0xA0 SWAP4 PUSH2 0x1192 JUMP JUMPDEST ADD SWAP1 JUMP JUMPDEST PUSH1 0x20 ADD SWAP1 JUMP JUMPDEST SWAP1 PUSH2 0x1222 PUSH2 0x121C PUSH2 0x1215 DUP5 PUSH2 0x117F JUMP JUMPDEST DUP1 SWAP4 PUSH2 0x1183 JUMP JUMPDEST SWAP3 PUSH2 0x118C JUMP JUMPDEST SWAP1 PUSH1 0x0 JUMPDEST DUP2 DUP2 LT PUSH2 0x1233 JUMPI POP POP POP SWAP1 JUMP JUMPDEST SWAP1 SWAP2 SWAP3 PUSH2 0x124C PUSH2 0x1246 PUSH1 0x1 SWAP3 DUP7 MLOAD PUSH2 0x11EE JUMP JUMPDEST SWAP5 PUSH2 0x11FF JUMP JUMPDEST SWAP2 ADD SWAP2 SWAP1 SWAP2 PUSH2 0x1226 JUMP JUMPDEST PUSH2 0x126C SWAP2 PUSH1 0x20 DUP3 ADD SWAP2 PUSH1 0x0 DUP2 DUP5 SUB SWAP2 ADD MSTORE PUSH2 0x1205 JUMP JUMPDEST SWAP1 JUMP JUMPDEST CALLVALUE PUSH2 0x12A0 JUMPI PUSH2 0x129C PUSH2 0x128B PUSH2 0x1285 CALLDATASIZE PUSH1 0x4 PUSH2 0x1148 JUMP JUMPDEST SWAP1 PUSH2 0x3223 JUMP JUMPDEST PUSH2 0x1293 PUSH2 0x1B3 JUMP JUMPDEST SWAP2 DUP3 SWAP2 DUP3 PUSH2 0x1256 JUMP JUMPDEST SUB SWAP1 RETURN JUMPDEST PUSH2 0x1B9 JUMP JUMPDEST PUSH1 0x0 DUP1 REVERT JUMPDEST PUSH1 0x0 SWAP1 JUMP JUMPDEST PUSH2 0x12B7 PUSH2 0x12AA JUMP JUMPDEST POP PUSH4 0xB6813911 PUSH1 0xE0 SHL PUSH2 0x12D2 PUSH2 0x12CC DUP4 PUSH2 0x1C8 JUMP JUMPDEST SWAP2 PUSH2 0x1C8 JUMP JUMPDEST EQ DUP1 ISZERO PUSH2 0x12F6 JUMPI JUMPDEST SWAP1 DUP2 ISZERO PUSH2 0x12E6 JUMPI JUMPDEST POP SWAP1 JUMP JUMPDEST PUSH2 0x12F0 SWAP2 POP PUSH2 0x32FB JUMP JUMPDEST CODESIZE PUSH2 0x12E2 JUMP JUMPDEST POP PUSH2 0x1300 DUP2 PUSH2 0x32C1 JUMP JUMPDEST PUSH2 0x12DA JUMP JUMPDEST PUSH2 0x130F PUSH1 0xA0 PUSH2 0x871 JUMP JUMPDEST SWAP1 JUMP JUMPDEST PUSH1 0x0 SWAP1 JUMP JUMPDEST PUSH1 0x0 SWAP1 JUMP JUMPDEST PUSH1 0x0 SWAP1 JUMP JUMPDEST PUSH2 0x1329 PUSH2 0x1305 JUMP JUMPDEST SWAP1 PUSH1 0x20 DUP1 DUP1 DUP1 DUP1 DUP7 PUSH2 0x1339 PUSH2 0x1312 JUMP JUMPDEST DUP2 MSTORE ADD PUSH2 0x1344 PUSH2 0x1312 JUMP JUMPDEST DUP2 MSTORE ADD PUSH2 0x134F PUSH2 0x1317 JUMP JUMPDEST DUP2 MSTORE ADD PUSH2 0x135A PUSH2 0x1317 JUMP JUMPDEST DUP2 MSTORE ADD PUSH2 0x1365 PUSH2 0x131C JUMP JUMPDEST DUP2 MSTORE POP POP JUMP JUMPDEST PUSH2 0x1373 PUSH2 0x1321 JUMP JUMPDEST SWAP1 JUMP JUMPDEST SWAP1 JUMP JUMPDEST PUSH2 0x138D PUSH2 0x1388 PUSH2 0x1392 SWAP3 PUSH2 0x274 JUMP JUMPDEST PUSH2 0x1376 JUMP JUMPDEST PUSH2 0x274 JUMP JUMPDEST SWAP1 JUMP JUMPDEST SWAP1 PUSH2 0x139F SWAP1 PUSH2 0x1379 JUMP JUMPDEST PUSH1 0x0 MSTORE PUSH1 0x20 MSTORE PUSH1 0x40 PUSH1 0x0 KECCAK256 SWAP1 JUMP JUMPDEST PUSH1 0x0 SHR SWAP1 JUMP JUMPDEST SWAP1 JUMP JUMPDEST PUSH2 0x13C2 PUSH2 0x13C7 SWAP2 PUSH2 0x13AD JUMP JUMPDEST PUSH2 0x13B3 JUMP JUMPDEST SWAP1 JUMP JUMPDEST PUSH2 0x13D4 SWAP1 SLOAD PUSH2 0x13B6 JUMP JUMPDEST SWAP1 JUMP JUMPDEST SWAP1 PUSH2 0x13E1 SWAP1 PUSH2 0x274 JUMP JUMPDEST SWAP1 MSTORE JUMP JUMPDEST PUSH8 0xFFFFFFFFFFFFFFFF AND SWAP1 JUMP JUMPDEST PUSH2 0x13FE PUSH2 0x1403 SWAP2 PUSH2 0x13AD JUMP JUMPDEST PUSH2 0x13E5 JUMP JUMPDEST SWAP1 JUMP JUMPDEST PUSH2 0x1410 SWAP1 SLOAD PUSH2 0x13F2 JUMP JUMPDEST SWAP1 JUMP JUMPDEST SWAP1 PUSH2 0x141D SWAP1 PUSH2 0x2C7 JUMP JUMPDEST SWAP1 MSTORE JUMP JUMPDEST PUSH1 0x40 SHR SWAP1 JUMP JUMPDEST PUSH2 0x1433 PUSH2 0x1438 SWAP2 PUSH2 0x1421 JUMP JUMPDEST PUSH2 0x13E5 JUMP JUMPDEST SWAP1 JUMP JUMPDEST PUSH2 0x1445 SWAP1 SLOAD PUSH2 0x1427 JUMP JUMPDEST SWAP1 JUMP JUMPDEST SWAP1 JUMP JUMPDEST PUSH2 0x1457 PUSH2 0x145C SWAP2 PUSH2 0x13AD JUMP JUMPDEST PUSH2 0x1448 JUMP JUMPDEST SWAP1 JUMP JUMPDEST PUSH2 0x1469 SWAP1 SLOAD PUSH2 0x144B JUMP JUMPDEST SWAP1 JUMP JUMPDEST SWAP1 PUSH2 0x1476 SWAP1 PUSH2 0x2E1 JUMP JUMPDEST SWAP1 MSTORE JUMP JUMPDEST SWAP1 PUSH2 0x14FB PUSH2 0x14F2 PUSH1 0x3 PUSH2 0x148B PUSH2 0x1305 JUMP JUMPDEST SWAP5 PUSH2 0x14A4 PUSH2 0x149B PUSH1 0x0 DUP4 ADD PUSH2 0x13CA JUMP JUMPDEST PUSH1 0x0 DUP9 ADD PUSH2 0x13D7 JUMP JUMPDEST PUSH2 0x14BC PUSH2 0x14B3 PUSH1 0x1 DUP4 ADD PUSH2 0x13CA JUMP JUMPDEST PUSH1 0x20 DUP9 ADD PUSH2 0x13D7 JUMP JUMPDEST PUSH2 0x14D4 PUSH2 0x14CB PUSH1 0x2 DUP4 ADD PUSH2 0x1406 JUMP JUMPDEST PUSH1 0x40 DUP9 ADD PUSH2 0x1413 JUMP JUMPDEST PUSH2 0x14EC PUSH2 0x14E3 PUSH1 0x2 DUP4 ADD PUSH2 0x143B JUMP JUMPDEST PUSH1 0x60 DUP9 ADD PUSH2 0x1413 JUMP JUMPDEST ADD PUSH2 0x145F JUMP JUMPDEST PUSH1 0x80 DUP5 ADD PUSH2 0x146C JUMP JUMPDEST JUMP JUMPDEST PUSH2 0x1506 SWAP1 PUSH2 0x147A JUMP JUMPDEST SWAP1 JUMP JUMPDEST PUSH2 0x1520 PUSH2 0x1525 SWAP2 PUSH2 0x1518 PUSH2 0x136B JUMP JUMPDEST POP PUSH1 0xD PUSH2 0x1395 JUMP JUMPDEST PUSH2 0x14FD JUMP JUMPDEST SWAP1 JUMP JUMPDEST PUSH32 0x70649EC320B507FEBAD3E8EF750E5F580B9AE32F9F50D4C7B121332C81971530 SWAP1 JUMP JUMPDEST PUSH2 0x1565 SWAP1 PUSH2 0x1560 PUSH2 0x155B PUSH2 0x1528 JUMP JUMPDEST PUSH2 0x3329 JUMP JUMPDEST PUSH2 0x15E5 JUMP JUMPDEST JUMP JUMPDEST PUSH2 0x157B PUSH2 0x1576 PUSH2 0x1580 SWAP3 PUSH2 0x398 JUMP JUMPDEST PUSH2 0x1376 JUMP JUMPDEST PUSH2 0x398 JUMP JUMPDEST SWAP1 JUMP JUMPDEST PUSH2 0x158C SWAP1 PUSH2 0x1567 JUMP JUMPDEST SWAP1 JUMP JUMPDEST PUSH2 0x1598 SWAP1 PUSH2 0x1583 JUMP JUMPDEST SWAP1 JUMP JUMPDEST SWAP1 PUSH2 0x15AC PUSH1 0x1 DUP1 PUSH1 0xA0 SHL SUB SWAP2 PUSH2 0xD12 JUMP JUMPDEST SWAP2 DUP2 NOT AND SWAP2 AND OR SWAP1 JUMP JUMPDEST PUSH2 0x15BF SWAP1 PUSH2 0x1583 JUMP JUMPDEST SWAP1 JUMP JUMPDEST SWAP1 JUMP JUMPDEST SWAP1 PUSH2 0x15DA PUSH2 0x15D5 PUSH2 0x15E1 SWAP3 PUSH2 0x15B6 JUMP JUMPDEST PUSH2 0x15C2 JUMP JUMPDEST DUP3 SLOAD PUSH2 0x159B JUMP JUMPDEST SWAP1 SSTORE JUMP JUMPDEST PUSH2 0x15F1 PUSH2 0x15F8 SWAP2 PUSH2 0x158F JUMP JUMPDEST PUSH1 0x3 PUSH2 0x15C5 JUMP JUMPDEST JUMP JUMPDEST PUSH2 0x1603 SWAP1 PUSH2 0x154C JUMP JUMPDEST JUMP JUMPDEST PUSH2 0x160F PUSH1 0xE0 PUSH2 0x871 JUMP JUMPDEST SWAP1 JUMP JUMPDEST PUSH2 0x161A PUSH2 0x1605 JUMP JUMPDEST SWAP1 PUSH1 0x20 DUP1 DUP1 DUP1 DUP1 DUP1 DUP1 DUP9 PUSH2 0x162C PUSH2 0x1312 JUMP JUMPDEST DUP2 MSTORE ADD PUSH2 0x1637 PUSH2 0x1312 JUMP JUMPDEST DUP2 MSTORE ADD PUSH2 0x1642 PUSH2 0x1312 JUMP JUMPDEST DUP2 MSTORE ADD PUSH2 0x164D PUSH2 0x1312 JUMP JUMPDEST DUP2 MSTORE ADD PUSH2 0x1658 PUSH2 0x1317 JUMP JUMPDEST DUP2 MSTORE ADD PUSH2 0x1663 PUSH2 0x1317 JUMP JUMPDEST DUP2 MSTORE ADD PUSH2 0x166E PUSH2 0x131C JUMP JUMPDEST DUP2 MSTORE POP POP JUMP JUMPDEST PUSH2 0x167C PUSH2 0x1612 JUMP JUMPDEST SWAP1 JUMP JUMPDEST SWAP1 PUSH2 0x1730 PUSH2 0x1727 PUSH1 0x5 PUSH2 0x1690 PUSH2 0x1605 JUMP JUMPDEST SWAP5 PUSH2 0x16A9 PUSH2 0x16A0 PUSH1 0x0 DUP4 ADD PUSH2 0x13CA JUMP JUMPDEST PUSH1 0x0 DUP9 ADD PUSH2 0x13D7 JUMP JUMPDEST PUSH2 0x16C1 PUSH2 0x16B8 PUSH1 0x1 DUP4 ADD PUSH2 0x13CA JUMP JUMPDEST PUSH1 0x20 DUP9 ADD PUSH2 0x13D7 JUMP JUMPDEST PUSH2 0x16D9 PUSH2 0x16D0 PUSH1 0x2 DUP4 ADD PUSH2 0x13CA JUMP JUMPDEST PUSH1 0x40 DUP9 ADD PUSH2 0x13D7 JUMP JUMPDEST PUSH2 0x16F1 PUSH2 0x16E8 PUSH1 0x3 DUP4 ADD PUSH2 0x13CA JUMP JUMPDEST PUSH1 0x60 DUP9 ADD PUSH2 0x13D7 JUMP JUMPDEST PUSH2 0x1709 PUSH2 0x1700 PUSH1 0x4 DUP4 ADD PUSH2 0x1406 JUMP JUMPDEST PUSH1 0x80 DUP9 ADD PUSH2 0x1413 JUMP JUMPDEST PUSH2 0x1721 PUSH2 0x1718 PUSH1 0x4 DUP4 ADD PUSH2 0x143B JUMP JUMPDEST PUSH1 0xA0 DUP9 ADD PUSH2 0x1413 JUMP JUMPDEST ADD PUSH2 0x145F JUMP JUMPDEST PUSH1 0xC0 DUP5 ADD PUSH2 0x146C JUMP JUMPDEST JUMP JUMPDEST PUSH2 0x173B SWAP1 PUSH2 0x167F JUMP JUMPDEST SWAP1 JUMP JUMPDEST PUSH2 0x1746 PUSH2 0x1674 JUMP JUMPDEST POP PUSH2 0x1751 PUSH1 0x7 PUSH2 0x1732 JUMP JUMPDEST SWAP1 JUMP JUMPDEST PUSH1 0x0 SWAP1 JUMP JUMPDEST PUSH2 0x1762 SWAP1 PUSH2 0x2E1 JUMP JUMPDEST SWAP1 JUMP JUMPDEST SWAP1 PUSH2 0x176F SWAP1 PUSH2 0x1759 JUMP JUMPDEST PUSH1 0x0 MSTORE PUSH1 0x20 MSTORE PUSH1 0x40 PUSH1 0x0 KECCAK256 SWAP1 JUMP JUMPDEST PUSH1 0x1 PUSH2 0x1796 PUSH2 0x179C SWAP3 PUSH2 0x178E PUSH2 0x1754 JUMP JUMPDEST POP PUSH1 0x0 PUSH2 0x1765 JUMP JUMPDEST ADD PUSH2 0x145F JUMP JUMPDEST SWAP1 JUMP JUMPDEST SWAP1 PUSH2 0x17BA SWAP2 PUSH2 0x17B5 PUSH2 0x17B0 DUP3 PUSH2 0x177D JUMP JUMPDEST PUSH2 0x3329 JUMP JUMPDEST PUSH2 0x17BC JUMP JUMPDEST JUMP JUMPDEST SWAP1 PUSH2 0x17C6 SWAP2 PUSH2 0x333D JUMP JUMPDEST JUMP JUMPDEST SWAP1 PUSH2 0x17D2 SWAP2 PUSH2 0x179F JUMP JUMPDEST JUMP JUMPDEST PUSH1 0x0 SWAP1 JUMP JUMPDEST PUSH1 0x1 DUP1 PUSH1 0xA0 SHL SUB AND SWAP1 JUMP JUMPDEST PUSH2 0x17F0 PUSH2 0x17F5 SWAP2 PUSH2 0x13AD JUMP JUMPDEST PUSH2 0x17D9 JUMP JUMPDEST SWAP1 JUMP JUMPDEST PUSH2 0x1802 SWAP1 SLOAD PUSH2 0x17E4 JUMP JUMPDEST SWAP1 JUMP JUMPDEST PUSH2 0x180D PUSH2 0x17D4 JUMP JUMPDEST POP PUSH2 0x1818 PUSH1 0x6 PUSH2 0x17F8 JUMP JUMPDEST SWAP1 JUMP JUMPDEST PUSH1 0x20 SWAP2 DUP2 MSTORE ADD SWAP1 JUMP JUMPDEST PUSH1 0x20 PUSH32 0x20726F6C657320666F722073656C660000000000000000000000000000000000 SWAP2 PUSH32 0x416363657373436F6E74726F6C3A2063616E206F6E6C792072656E6F756E6365 PUSH1 0x0 DUP3 ADD MSTORE ADD MSTORE JUMP JUMPDEST PUSH2 0x187F PUSH1 0x2F PUSH1 0x40 SWAP3 PUSH2 0x181B JUMP JUMPDEST PUSH2 0x1888 DUP2 PUSH2 0x1824 JUMP JUMPDEST ADD SWAP1 JUMP JUMPDEST PUSH2 0x18A2 SWAP1 PUSH1 0x20 DUP2 ADD SWAP1 PUSH1 0x0 DUP2 DUP4 SUB SWAP2 ADD MSTORE PUSH2 0x1872 JUMP JUMPDEST SWAP1 JUMP JUMPDEST ISZERO PUSH2 0x18AC JUMPI JUMP JUMPDEST PUSH2 0x18B4 PUSH2 0x1B3 JUMP JUMPDEST PUSH3 0x461BCD PUSH1 0xE5 SHL DUP2 MSTORE DUP1 PUSH2 0x18CA PUSH1 0x4 DUP3 ADD PUSH2 0x188C JUMP JUMPDEST SUB SWAP1 REVERT JUMPDEST SWAP1 PUSH2 0x18FB SWAP2 PUSH2 0x18F6 DUP3 PUSH2 0x18F0 PUSH2 0x18EA PUSH2 0x18E5 PUSH2 0x3367 JUMP JUMPDEST PUSH2 0x3A3 JUMP JUMPDEST SWAP2 PUSH2 0x3A3 JUMP JUMPDEST EQ PUSH2 0x18A5 JUMP JUMPDEST PUSH2 0x3374 JUMP JUMPDEST JUMP JUMPDEST PUSH32 0x5D8E12C39142FF96D79D04D15D1BA1269E4FE57BB9D26F43523628B34BA108EC SWAP1 JUMP JUMPDEST SWAP1 PUSH2 0x193C SWAP3 SWAP2 PUSH2 0x1937 PUSH2 0x1932 PUSH2 0x18FD JUMP JUMPDEST PUSH2 0x3329 JUMP JUMPDEST PUSH2 0x1956 JUMP JUMPDEST JUMP JUMPDEST PUSH2 0x1947 SWAP1 PUSH2 0x1567 JUMP JUMPDEST SWAP1 JUMP JUMPDEST PUSH2 0x1953 SWAP1 PUSH2 0x193E JUMP JUMPDEST SWAP1 JUMP JUMPDEST SWAP2 PUSH2 0x1963 PUSH2 0x196B SWAP4 PUSH2 0x194A JUMP JUMPDEST SWAP2 SWAP1 SWAP2 PUSH2 0x33F3 JUMP JUMPDEST JUMP JUMPDEST SWAP1 PUSH2 0x1978 SWAP3 SWAP2 PUSH2 0x1921 JUMP JUMPDEST JUMP JUMPDEST SWAP1 PUSH2 0x1994 SWAP2 PUSH2 0x198F PUSH2 0x198A PUSH2 0x18FD JUMP JUMPDEST PUSH2 0x3329 JUMP JUMPDEST PUSH2 0x19FE JUMP JUMPDEST JUMP JUMPDEST SWAP1 POP SWAP1 JUMP JUMPDEST PUSH2 0x19A7 PUSH1 0x0 DUP1 SWAP3 PUSH2 0x1996 JUMP JUMPDEST ADD SWAP1 JUMP JUMPDEST PUSH2 0x19B4 SWAP1 PUSH2 0x199B JUMP JUMPDEST SWAP1 JUMP JUMPDEST SWAP1 PUSH2 0x19C9 PUSH2 0x19C4 DUP4 PUSH2 0x927 JUMP JUMPDEST PUSH2 0x871 JUMP JUMPDEST SWAP2 DUP3 MSTORE JUMP JUMPDEST PUSH1 0x60 SWAP1 JUMP JUMPDEST RETURNDATASIZE PUSH1 0x0 EQ PUSH2 0x19F0 JUMPI PUSH2 0x19E4 RETURNDATASIZE PUSH2 0x19B7 JUMP JUMPDEST SWAP1 RETURNDATASIZE PUSH1 0x0 PUSH1 0x20 DUP5 ADD RETURNDATACOPY JUMPDEST JUMP JUMPDEST PUSH2 0x19F8 PUSH2 0x19CE JUMP JUMPDEST SWAP1 PUSH2 0x19EE JUMP JUMPDEST PUSH1 0x0 PUSH2 0x1A2D SWAP3 DUP2 SWAP3 SWAP1 PUSH2 0x1A0F PUSH2 0x1B3 JUMP JUMPDEST SWAP1 DUP2 PUSH2 0x1A1A DUP2 PUSH2 0x19AB JUMP JUMPDEST SUB SWAP3 GAS CALL PUSH2 0x1A26 PUSH2 0x19D3 JUMP JUMPDEST POP ISZERO PUSH2 0x217 JUMP JUMPDEST PUSH2 0x1A33 JUMPI JUMP JUMPDEST PUSH1 0x0 PUSH4 0x1D42C867 PUSH1 0xE2 SHL DUP2 MSTORE DUP1 PUSH2 0x1A4C PUSH1 0x4 DUP3 ADD PUSH2 0x3F2 JUMP JUMPDEST SUB SWAP1 REVERT JUMPDEST SWAP1 PUSH2 0x1A5A SWAP2 PUSH2 0x197A JUMP JUMPDEST JUMP JUMPDEST PUSH32 0x4C02318D8C3AADC98CCF18AEBBF3126F651E0C3F6A1DE5FF8EDCF6724A2AD5C2 SWAP1 JUMP JUMPDEST SWAP1 PUSH2 0x1A9E SWAP6 SWAP5 SWAP4 SWAP3 SWAP2 PUSH2 0x1A99 PUSH2 0x1A94 PUSH2 0x1A5C JUMP JUMPDEST PUSH2 0x3329 JUMP JUMPDEST PUSH2 0x1D0E JUMP JUMPDEST JUMP JUMPDEST PUSH2 0x1AB4 PUSH2 0x1AAF PUSH2 0x1AB9 SWAP3 PUSH2 0x2C7 JUMP JUMPDEST PUSH2 0x1376 JUMP JUMPDEST PUSH2 0x274 JUMP JUMPDEST SWAP1 JUMP JUMPDEST PUSH2 0x1AD0 PUSH2 0x1ACB PUSH2 0x1AD5 SWAP3 PUSH2 0xD0F JUMP JUMPDEST PUSH2 0x1376 JUMP JUMPDEST PUSH2 0x274 JUMP JUMPDEST SWAP1 JUMP JUMPDEST PUSH2 0x1AE2 PUSH1 0xA0 PUSH2 0x871 JUMP JUMPDEST SWAP1 JUMP JUMPDEST PUSH2 0x1AEF SWAP1 MLOAD PUSH2 0x274 JUMP JUMPDEST SWAP1 JUMP JUMPDEST SWAP1 PUSH2 0x1AFF PUSH1 0x0 NOT SWAP2 PUSH2 0xD12 JUMP JUMPDEST SWAP2 DUP2 NOT AND SWAP2 AND OR SWAP1 JUMP JUMPDEST SWAP1 JUMP JUMPDEST SWAP1 PUSH2 0x1B21 PUSH2 0x1B1C PUSH2 0x1B28 SWAP3 PUSH2 0x1379 JUMP JUMPDEST PUSH2 0x1B09 JUMP JUMPDEST DUP3 SLOAD PUSH2 0x1AF2 JUMP JUMPDEST SWAP1 SSTORE JUMP JUMPDEST PUSH2 0x1B36 SWAP1 MLOAD PUSH2 0x2C7 JUMP JUMPDEST SWAP1 JUMP JUMPDEST SWAP1 PUSH2 0x1B4C PUSH8 0xFFFFFFFFFFFFFFFF SWAP2 PUSH2 0xD12 JUMP JUMPDEST SWAP2 DUP2 NOT AND SWAP2 AND OR SWAP1 JUMP JUMPDEST PUSH2 0x1B6A PUSH2 0x1B65 PUSH2 0x1B6F SWAP3 PUSH2 0x2C7 JUMP JUMPDEST PUSH2 0x1376 JUMP JUMPDEST PUSH2 0x2C7 JUMP JUMPDEST SWAP1 JUMP JUMPDEST SWAP1 JUMP JUMPDEST SWAP1 PUSH2 0x1B8A PUSH2 0x1B85 PUSH2 0x1B91 SWAP3 PUSH2 0x1B56 JUMP JUMPDEST PUSH2 0x1B72 JUMP JUMPDEST DUP3 SLOAD PUSH2 0x1B39 JUMP JUMPDEST SWAP1 SSTORE JUMP JUMPDEST PUSH1 0x40 SHL SWAP1 JUMP JUMPDEST SWAP1 PUSH2 0x1BB6 PUSH16 0xFFFFFFFFFFFFFFFF0000000000000000 SWAP2 PUSH2 0x1B95 JUMP JUMPDEST SWAP2 DUP2 NOT AND SWAP2 AND OR SWAP1 JUMP JUMPDEST SWAP1 PUSH2 0x1BD5 PUSH2 0x1BD0 PUSH2 0x1BDC SWAP3 PUSH2 0x1B56 JUMP JUMPDEST PUSH2 0x1B72 JUMP JUMPDEST DUP3 SLOAD PUSH2 0x1B9B JUMP JUMPDEST SWAP1 SSTORE JUMP JUMPDEST PUSH2 0x1BEA SWAP1 MLOAD PUSH2 0x2E1 JUMP JUMPDEST SWAP1 JUMP JUMPDEST PUSH2 0x1BF6 SWAP1 PUSH2 0x13AD JUMP JUMPDEST SWAP1 JUMP JUMPDEST SWAP1 PUSH2 0x1C0E PUSH2 0x1C09 PUSH2 0x1C15 SWAP3 PUSH2 0x1759 JUMP JUMPDEST PUSH2 0x1BED JUMP JUMPDEST DUP3 SLOAD PUSH2 0x1AF2 JUMP JUMPDEST SWAP1 SSTORE JUMP JUMPDEST SWAP1 PUSH2 0x1C91 PUSH1 0x80 PUSH1 0x3 PUSH2 0x1C97 SWAP5 PUSH2 0x1C3E PUSH1 0x0 DUP3 ADD PUSH2 0x1C38 PUSH1 0x0 DUP9 ADD PUSH2 0x1AE5 JUMP JUMPDEST SWAP1 PUSH2 0x1B0C JUMP JUMPDEST PUSH2 0x1C57 PUSH1 0x1 DUP3 ADD PUSH2 0x1C51 PUSH1 0x20 DUP9 ADD PUSH2 0x1AE5 JUMP JUMPDEST SWAP1 PUSH2 0x1B0C JUMP JUMPDEST PUSH2 0x1C70 PUSH1 0x2 DUP3 ADD PUSH2 0x1C6A PUSH1 0x40 DUP9 ADD PUSH2 0x1B2C JUMP JUMPDEST SWAP1 PUSH2 0x1B75 JUMP JUMPDEST PUSH2 0x1C89 PUSH1 0x2 DUP3 ADD PUSH2 0x1C83 PUSH1 0x60 DUP9 ADD PUSH2 0x1B2C JUMP JUMPDEST SWAP1 PUSH2 0x1BC0 JUMP JUMPDEST ADD SWAP3 ADD PUSH2 0x1BE0 JUMP JUMPDEST SWAP1 PUSH2 0x1BF9 JUMP JUMPDEST JUMP JUMPDEST SWAP1 PUSH2 0x1CA3 SWAP2 PUSH2 0x1C19 JUMP JUMPDEST JUMP JUMPDEST PUSH2 0x1CAE SWAP1 PUSH2 0x2C7 JUMP JUMPDEST SWAP1 MSTORE JUMP JUMPDEST SWAP2 SWAP5 PUSH2 0x1CFB PUSH2 0x1D05 SWAP3 SWAP9 SWAP8 SWAP6 PUSH2 0x1CF1 PUSH1 0xA0 SWAP7 PUSH2 0x1CE7 PUSH2 0x1D0C SWAP11 PUSH2 0x1CDD PUSH1 0xC0 DUP11 ADD SWAP15 PUSH1 0x0 DUP12 ADD SWAP1 PUSH2 0xEC8 JUMP JUMPDEST PUSH1 0x20 DUP10 ADD SWAP1 PUSH2 0xEC8 JUMP JUMPDEST PUSH1 0x40 DUP8 ADD SWAP1 PUSH2 0xEC8 JUMP JUMPDEST PUSH1 0x60 DUP6 ADD SWAP1 PUSH2 0x1CA5 JUMP JUMPDEST PUSH1 0x80 DUP4 ADD SWAP1 PUSH2 0x1CA5 JUMP JUMPDEST ADD SWAP1 PUSH2 0x549 JUMP JUMPDEST JUMP JUMPDEST SWAP2 SWAP4 SWAP1 SWAP3 SWAP5 DUP2 PUSH2 0x1D26 PUSH2 0x1D20 DUP9 PUSH2 0x2C7 JUMP JUMPDEST SWAP2 PUSH2 0x2C7 JUMP JUMPDEST LT DUP1 ISZERO PUSH2 0x1E27 JUMPI JUMPDEST PUSH2 0x1E0A JUMPI DUP5 PUSH2 0x1D46 PUSH2 0x1D40 PUSH1 0x0 PUSH2 0x1ABC JUMP JUMPDEST SWAP2 PUSH2 0x274 JUMP JUMPDEST EQ PUSH2 0x1DED JUMPI PUSH2 0x1DE8 SWAP3 PUSH2 0x1DAF DUP6 PUSH2 0x1D9E DUP9 PUSH2 0x1D95 DUP12 PUSH2 0x1D8C DUP10 SWAP2 PUSH2 0x1D83 DUP11 SWAP6 PUSH2 0x1D7A PUSH2 0x1D70 PUSH2 0x1AD8 JUMP JUMPDEST SWAP10 PUSH1 0x0 DUP12 ADD PUSH2 0x13D7 JUMP JUMPDEST PUSH1 0x20 DUP10 ADD PUSH2 0x13D7 JUMP JUMPDEST PUSH1 0x40 DUP8 ADD PUSH2 0x1413 JUMP JUMPDEST PUSH1 0x60 DUP6 ADD PUSH2 0x1413 JUMP JUMPDEST PUSH1 0x80 DUP4 ADD PUSH2 0x146C JUMP JUMPDEST PUSH2 0x1DAA PUSH1 0xD DUP5 SWAP1 PUSH2 0x1395 JUMP JUMPDEST PUSH2 0x1C99 JUMP JUMPDEST SWAP4 SWAP5 SWAP6 SWAP2 SWAP1 SWAP2 PUSH32 0x8CED76AEE4B96A1E218E7903610FC7D648023D9075677163A5B31396CB280F96 SWAP7 PUSH2 0x1DDF PUSH2 0x1B3 JUMP JUMPDEST SWAP7 DUP8 SWAP7 DUP8 PUSH2 0x1CB2 JUMP JUMPDEST SUB SWAP1 LOG1 JUMP JUMPDEST PUSH1 0x0 PUSH4 0x10BA94E9 PUSH1 0xE3 SHL DUP2 MSTORE DUP1 PUSH2 0x1E06 PUSH1 0x4 DUP3 ADD PUSH2 0x3F2 JUMP JUMPDEST SUB SWAP1 REVERT JUMPDEST PUSH1 0x0 PUSH4 0x10BA94E9 PUSH1 0xE3 SHL DUP2 MSTORE DUP1 PUSH2 0x1E23 PUSH1 0x4 DUP3 ADD PUSH2 0x3F2 JUMP JUMPDEST SUB SWAP1 REVERT JUMPDEST POP DUP2 PUSH2 0x1E3B PUSH2 0x1E35 TIMESTAMP PUSH2 0x274 JUMP JUMPDEST SWAP2 PUSH2 0x1AA0 JUMP JUMPDEST GT ISZERO PUSH2 0x1D2E JUMP JUMPDEST SWAP1 PUSH2 0x1E50 SWAP6 SWAP5 SWAP4 SWAP3 SWAP2 PUSH2 0x1A80 JUMP JUMPDEST JUMP JUMPDEST MLOAD SWAP1 JUMP JUMPDEST PUSH1 0x8 SHR SWAP1 JUMP JUMPDEST PUSH2 0x1E68 PUSH2 0x1E6D SWAP2 PUSH2 0x1E56 JUMP JUMPDEST PUSH2 0x17D9 JUMP JUMPDEST SWAP1 JUMP JUMPDEST PUSH2 0x1E7A SWAP1 SLOAD PUSH2 0x1E5C JUMP JUMPDEST SWAP1 JUMP JUMPDEST PUSH2 0x1E86 SWAP1 PUSH2 0x1567 JUMP JUMPDEST SWAP1 JUMP JUMPDEST PUSH2 0x1E92 SWAP1 PUSH2 0x1E7D JUMP JUMPDEST SWAP1 JUMP JUMPDEST PUSH2 0x1E9E SWAP1 PUSH2 0x1567 JUMP JUMPDEST SWAP1 JUMP JUMPDEST PUSH2 0x1EAA SWAP1 PUSH2 0x1E95 JUMP JUMPDEST SWAP1 JUMP JUMPDEST PUSH1 0x0 DUP1 REVERT JUMPDEST PUSH1 0xE0 SHL SWAP1 JUMP JUMPDEST PUSH1 0x0 SWAP2 SUB SLT PUSH2 0x1EC3 JUMPI JUMP JUMPDEST PUSH2 0x1BE JUMP JUMPDEST PUSH1 0x20 SWAP2 DUP2 MSTORE ADD SWAP1 JUMP JUMPDEST PUSH1 0x20 ADD SWAP1 JUMP JUMPDEST SWAP1 PUSH2 0x1EE4 DUP2 PUSH1 0x20 SWAP4 PUSH2 0x2BA JUMP JUMPDEST ADD SWAP1 JUMP JUMPDEST PUSH1 0x20 ADD SWAP1 JUMP JUMPDEST SWAP1 PUSH2 0x1F0B PUSH2 0x1F05 PUSH2 0x1EFE DUP5 PUSH2 0x1E52 JUMP JUMPDEST DUP1 SWAP4 PUSH2 0x1EC8 JUMP JUMPDEST SWAP3 PUSH2 0x1ED1 JUMP JUMPDEST SWAP1 PUSH1 0x0 JUMPDEST DUP2 DUP2 LT PUSH2 0x1F1C JUMPI POP POP POP SWAP1 JUMP JUMPDEST SWAP1 SWAP2 SWAP3 PUSH2 0x1F35 PUSH2 0x1F2F PUSH1 0x1 SWAP3 DUP7 MLOAD PUSH2 0x1ED7 JUMP JUMPDEST SWAP5 PUSH2 0x1EE8 JUMP JUMPDEST SWAP2 ADD SWAP2 SWAP1 SWAP2 PUSH2 0x1F0F JUMP JUMPDEST MLOAD SWAP1 JUMP JUMPDEST PUSH1 0x20 SWAP2 DUP2 MSTORE ADD SWAP1 JUMP JUMPDEST PUSH1 0x0 JUMPDEST DUP4 DUP2 LT PUSH2 0x1F60 JUMPI POP POP SWAP1 PUSH1 0x0 SWAP2 ADD MSTORE JUMP JUMPDEST DUP1 PUSH1 0x20 SWAP2 DUP4 ADD MLOAD DUP2 DUP6 ADD MSTORE ADD PUSH2 0x1F4F JUMP JUMPDEST PUSH2 0x1F90 PUSH2 0x1F99 PUSH1 0x20 SWAP4 PUSH2 0x1F9E SWAP4 PUSH2 0x1F87 DUP2 PUSH2 0x1F3F JUMP JUMPDEST SWAP4 DUP5 DUP1 SWAP4 PUSH2 0x1F43 JUMP JUMPDEST SWAP6 DUP7 SWAP2 ADD PUSH2 0x1F4C JUMP JUMPDEST PUSH2 0x828 JUMP JUMPDEST ADD SWAP1 JUMP JUMPDEST SWAP3 PUSH2 0x1FCE PUSH2 0x1FDC SWAP3 PUSH2 0x1FEA SWAP7 SWAP5 PUSH2 0x1FC1 PUSH1 0x80 DUP9 ADD SWAP3 PUSH1 0x0 DUP10 ADD SWAP1 PUSH2 0x603 JUMP JUMPDEST DUP7 DUP3 SUB PUSH1 0x20 DUP9 ADD MSTORE PUSH2 0x1EEE JUMP JUMPDEST SWAP1 DUP5 DUP3 SUB PUSH1 0x40 DUP7 ADD MSTORE PUSH2 0x1EEE JUMP JUMPDEST SWAP2 PUSH1 0x60 DUP2 DUP5 SUB SWAP2 ADD MSTORE PUSH2 0x1F71 JUMP JUMPDEST SWAP1 JUMP JUMPDEST PUSH2 0x1FF5 PUSH2 0x1B3 JUMP JUMPDEST RETURNDATASIZE PUSH1 0x0 DUP3 RETURNDATACOPY RETURNDATASIZE SWAP1 REVERT JUMPDEST SWAP2 PUSH2 0x2035 SWAP4 SWAP2 PUSH2 0x2027 SWAP2 PUSH2 0x201A PUSH1 0x60 DUP7 ADD SWAP3 PUSH1 0x0 DUP8 ADD SWAP1 PUSH2 0x603 JUMP JUMPDEST DUP5 DUP3 SUB PUSH1 0x20 DUP7 ADD MSTORE PUSH2 0x1EEE JUMP JUMPDEST SWAP2 PUSH1 0x40 DUP2 DUP5 SUB SWAP2 ADD MSTORE PUSH2 0x1EEE JUMP JUMPDEST SWAP1 JUMP JUMPDEST SWAP5 SWAP3 SWAP4 SWAP2 SWAP6 SWAP7 SWAP1 SWAP7 PUSH2 0x2049 DUP9 PUSH2 0x1E52 JUMP JUMPDEST PUSH2 0x2063 PUSH2 0x205D PUSH2 0x2058 DUP11 PUSH2 0x1E52 JUMP JUMPDEST PUSH2 0x274 JUMP JUMPDEST SWAP2 PUSH2 0x274 JUMP JUMPDEST SUB PUSH2 0x2156 JUMPI PUSH2 0x2079 SWAP4 DUP9 SWAP4 DUP9 SWAP1 SWAP2 SWAP3 SWAP4 SWAP5 PUSH2 0x360D JUMP JUMPDEST PUSH2 0x2093 PUSH2 0x208E PUSH2 0x2089 PUSH1 0x5 PUSH2 0x1E70 JUMP JUMPDEST PUSH2 0x1E89 JUMP JUMPDEST PUSH2 0x1EA1 JUMP JUMPDEST PUSH4 0xB48AB8B6 SWAP1 DUP4 SWAP1 DUP7 SWAP4 DUP7 SWAP1 DUP3 EXTCODESIZE ISZERO PUSH2 0x2151 JUMPI PUSH1 0x0 SWAP5 PUSH2 0x20D1 DUP7 SWAP3 PUSH2 0x20C6 SWAP5 PUSH2 0x20BA PUSH2 0x1B3 JUMP JUMPDEST SWAP10 DUP11 SWAP9 DUP10 SWAP8 DUP9 SWAP7 PUSH2 0x1EB2 JUMP JUMPDEST DUP7 MSTORE PUSH1 0x4 DUP7 ADD PUSH2 0x1FA2 JUMP JUMPDEST SUB SWAP3 GAS CALL DUP1 ISZERO PUSH2 0x214C JUMPI PUSH2 0x211F JUMPI JUMPDEST POP SWAP2 SWAP1 SWAP2 PUSH2 0x211A PUSH32 0x23519238B590C499A2ABCF44A33B5F431AC6CA51C22FAD26BC2C3D08B97EAA21 SWAP4 PUSH2 0x2111 PUSH2 0x1B3 JUMP JUMPDEST SWAP4 DUP5 SWAP4 DUP5 PUSH2 0x1FFE JUMP JUMPDEST SUB SWAP1 LOG1 JUMP JUMPDEST PUSH2 0x213F SWAP1 PUSH1 0x0 RETURNDATASIZE DUP2 GT PUSH2 0x2145 JUMPI JUMPDEST PUSH2 0x2137 DUP2 DUP4 PUSH2 0x848 JUMP JUMPDEST DUP2 ADD SWAP1 PUSH2 0x1EB8 JUMP JUMPDEST CODESIZE PUSH2 0x20E0 JUMP JUMPDEST POP RETURNDATASIZE PUSH2 0x212D JUMP JUMPDEST PUSH2 0x1FED JUMP JUMPDEST PUSH2 0x1EAD JUMP JUMPDEST PUSH1 0x0 PUSH4 0x340BC4C9 PUSH1 0xE0 SHL DUP2 MSTORE DUP1 PUSH2 0x216F PUSH1 0x4 DUP3 ADD PUSH2 0x3F2 JUMP JUMPDEST SUB SWAP1 REVERT JUMPDEST PUSH1 0xFF AND SWAP1 JUMP JUMPDEST PUSH2 0x2185 PUSH2 0x218A SWAP2 PUSH2 0x13AD JUMP JUMPDEST PUSH2 0x2173 JUMP JUMPDEST SWAP1 JUMP JUMPDEST PUSH2 0x2197 SWAP1 SLOAD PUSH2 0x2179 JUMP JUMPDEST SWAP1 JUMP JUMPDEST PUSH1 0x8 SHL SWAP1 JUMP JUMPDEST SWAP1 PUSH2 0x21B3 PUSH2 0x100 PUSH1 0x1 PUSH1 0xA8 SHL SUB SWAP2 PUSH2 0x219A JUMP JUMPDEST SWAP2 DUP2 NOT AND SWAP2 AND OR SWAP1 JUMP JUMPDEST PUSH2 0x21C6 SWAP1 PUSH2 0x1E95 JUMP JUMPDEST SWAP1 JUMP JUMPDEST SWAP1 JUMP JUMPDEST SWAP1 PUSH2 0x21E1 PUSH2 0x21DC PUSH2 0x21E8 SWAP3 PUSH2 0x21BD JUMP JUMPDEST PUSH2 0x21C9 JUMP JUMPDEST DUP3 SLOAD PUSH2 0x21A0 JUMP JUMPDEST SWAP1 SSTORE JUMP JUMPDEST SWAP1 PUSH2 0x21F8 PUSH1 0xFF SWAP2 PUSH2 0xD12 JUMP JUMPDEST SWAP2 DUP2 NOT AND SWAP2 AND OR SWAP1 JUMP JUMPDEST PUSH2 0x220B SWAP1 PUSH2 0x217 JUMP JUMPDEST SWAP1 JUMP JUMPDEST SWAP1 JUMP JUMPDEST SWAP1 PUSH2 0x2226 PUSH2 0x2221 PUSH2 0x222D SWAP3 PUSH2 0x2202 JUMP JUMPDEST PUSH2 0x220E JUMP JUMPDEST DUP3 SLOAD PUSH2 0x21EC JUMP JUMPDEST SWAP1 SSTORE JUMP JUMPDEST SWAP3 SWAP1 SWAP3 PUSH2 0x223E PUSH1 0x5 PUSH2 0x218D JUMP JUMPDEST PUSH2 0x229C JUMPI PUSH2 0x2250 PUSH2 0x228E SWAP5 PUSH1 0x5 PUSH2 0x21CC JUMP JUMPDEST PUSH2 0x2262 PUSH2 0x225B PUSH2 0xD34 JUMP JUMPDEST DUP3 SWAP1 PUSH2 0x333D JUMP JUMPDEST PUSH2 0x2274 PUSH2 0x226D PUSH2 0x1A5C JUMP JUMPDEST DUP3 SWAP1 PUSH2 0x333D JUMP JUMPDEST PUSH2 0x2286 PUSH2 0x227F PUSH2 0x18FD JUMP JUMPDEST DUP3 SWAP1 PUSH2 0x333D JUMP JUMPDEST SWAP2 SWAP1 SWAP2 PUSH2 0x3B0E JUMP JUMPDEST PUSH2 0x229A PUSH1 0x1 PUSH1 0x5 PUSH2 0x2211 JUMP JUMPDEST JUMP JUMPDEST PUSH1 0x0 PUSH4 0xF92EE8A9 PUSH1 0xE0 SHL DUP2 MSTORE DUP1 PUSH2 0x22B5 PUSH1 0x4 DUP3 ADD PUSH2 0x3F2 JUMP JUMPDEST SUB SWAP1 REVERT JUMPDEST PUSH2 0x22D2 SWAP1 PUSH2 0x22CD PUSH2 0x22C8 PUSH2 0x1A5C JUMP JUMPDEST PUSH2 0x3329 JUMP JUMPDEST PUSH2 0x22F4 JUMP JUMPDEST JUMP JUMPDEST SWAP1 PUSH2 0x22E9 PUSH2 0x22E4 PUSH2 0x22F0 SWAP3 PUSH2 0x21BD JUMP JUMPDEST PUSH2 0x21C9 JUMP JUMPDEST DUP3 SLOAD PUSH2 0x159B JUMP JUMPDEST SWAP1 SSTORE JUMP JUMPDEST PUSH2 0x22FF SWAP1 PUSH1 0x6 PUSH2 0x22D4 JUMP JUMPDEST JUMP JUMPDEST PUSH2 0x230A SWAP1 PUSH2 0x22B9 JUMP JUMPDEST JUMP JUMPDEST SWAP1 PUSH2 0x2316 SWAP1 PUSH2 0x1759 JUMP JUMPDEST PUSH1 0x0 MSTORE PUSH1 0x20 MSTORE PUSH1 0x40 PUSH1 0x0 KECCAK256 SWAP1 JUMP JUMPDEST SWAP1 JUMP JUMPDEST SWAP1 PUSH2 0x2347 PUSH2 0x2342 PUSH2 0x234C SWAP4 PUSH2 0x233A PUSH2 0x17D4 JUMP JUMPDEST POP PUSH1 0x1 PUSH2 0x230C JUMP JUMPDEST PUSH2 0x2324 JUMP JUMPDEST PUSH2 0x3B5E JUMP JUMPDEST SWAP1 JUMP JUMPDEST SWAP1 PUSH2 0x2359 SWAP1 PUSH2 0x21BD JUMP JUMPDEST PUSH1 0x0 MSTORE PUSH1 0x20 MSTORE PUSH1 0x40 PUSH1 0x0 KECCAK256 SWAP1 JUMP JUMPDEST PUSH2 0x238E SWAP2 PUSH1 0x0 PUSH2 0x2383 PUSH2 0x2389 SWAP4 PUSH2 0x237C PUSH2 0x12AA JUMP JUMPDEST POP DUP3 PUSH2 0x1765 JUMP JUMPDEST ADD PUSH2 0x234F JUMP JUMPDEST PUSH2 0x218D JUMP JUMPDEST SWAP1 JUMP JUMPDEST PUSH1 0x1 DUP1 PUSH1 0xA0 SHL SUB AND SWAP1 JUMP JUMPDEST PUSH2 0x23A8 PUSH2 0x23AD SWAP2 PUSH2 0x13AD JUMP JUMPDEST PUSH2 0x2391 JUMP JUMPDEST SWAP1 JUMP JUMPDEST PUSH2 0x23BA SWAP1 SLOAD PUSH2 0x239C JUMP JUMPDEST SWAP1 JUMP JUMPDEST PUSH2 0x23C6 SWAP1 PUSH2 0x1E95 JUMP JUMPDEST SWAP1 JUMP JUMPDEST SWAP1 POP MLOAD SWAP1 PUSH2 0x23D6 DUP3 PUSH2 0x506 JUMP JUMPDEST JUMP JUMPDEST SWAP1 PUSH1 0x20 DUP3 DUP3 SUB SLT PUSH2 0x23F2 JUMPI PUSH2 0x23EF SWAP2 PUSH1 0x0 ADD PUSH2 0x23C9 JUMP JUMPDEST SWAP1 JUMP JUMPDEST PUSH2 0x1BE JUMP JUMPDEST POP PUSH2 0x2406 SWAP1 PUSH1 0x20 DUP2 ADD SWAP1 PUSH2 0x3C4 JUMP JUMPDEST SWAP1 JUMP JUMPDEST PUSH2 0x2412 SWAP1 PUSH2 0x3A3 JUMP JUMPDEST SWAP1 MSTORE JUMP JUMPDEST POP PUSH2 0x2425 SWAP1 PUSH1 0x20 DUP2 ADD SWAP1 PUSH2 0x1E9 JUMP JUMPDEST SWAP1 JUMP JUMPDEST PUSH2 0x2431 SWAP1 PUSH2 0x1C8 JUMP JUMPDEST SWAP1 MSTORE JUMP JUMPDEST POP PUSH2 0x2444 SWAP1 PUSH1 0x20 DUP2 ADD SWAP1 PUSH2 0x51B JUMP JUMPDEST SWAP1 JUMP JUMPDEST PUSH1 0x0 DUP1 REVERT JUMPDEST PUSH1 0x0 DUP1 REVERT JUMPDEST PUSH1 0x0 DUP1 REVERT JUMPDEST SWAP1 CALLDATALOAD PUSH1 0x1 PUSH1 0x20 SUB DUP3 CALLDATASIZE SUB SUB DUP2 SLT ISZERO PUSH2 0x2497 JUMPI ADD PUSH1 0x20 DUP2 CALLDATALOAD SWAP2 ADD SWAP2 PUSH8 0xFFFFFFFFFFFFFFFF DUP3 GT PUSH2 0x2492 JUMPI PUSH1 0x1 DUP3 MUL CALLDATASIZE SUB DUP4 SGT PUSH2 0x248D JUMPI JUMP JUMPDEST PUSH2 0x244C JUMP JUMPDEST PUSH2 0x2447 JUMP JUMPDEST PUSH2 0x2451 JUMP JUMPDEST PUSH1 0x20 SWAP2 DUP2 MSTORE ADD SWAP1 JUMP JUMPDEST SWAP2 SWAP1 PUSH2 0x24BF DUP2 PUSH2 0x24B8 DUP2 PUSH2 0x24C4 SWAP6 PUSH2 0x249C JUMP JUMPDEST DUP1 SWAP6 PUSH2 0x94A JUMP JUMPDEST PUSH2 0x828 JUMP JUMPDEST ADD SWAP1 JUMP JUMPDEST SWAP1 CALLDATALOAD PUSH1 0x1 PUSH1 0x40 SUB DUP3 CALLDATASIZE SUB SUB DUP2 SLT ISZERO PUSH2 0x24DE JUMPI ADD SWAP1 JUMP JUMPDEST PUSH2 0x2451 JUMP JUMPDEST SWAP1 CALLDATALOAD PUSH1 0x1 PUSH1 0x20 SUB DUP3 CALLDATASIZE SUB SUB DUP2 SLT ISZERO PUSH2 0x2524 JUMPI ADD PUSH1 0x20 DUP2 CALLDATALOAD SWAP2 ADD SWAP2 PUSH8 0xFFFFFFFFFFFFFFFF DUP3 GT PUSH2 0x251F JUMPI PUSH1 0x1 DUP3 MUL CALLDATASIZE SUB DUP4 SGT PUSH2 0x251A JUMPI JUMP JUMPDEST PUSH2 0x244C JUMP JUMPDEST PUSH2 0x2447 JUMP JUMPDEST PUSH2 0x2451 JUMP JUMPDEST PUSH1 0x20 SWAP2 DUP2 MSTORE ADD SWAP1 JUMP JUMPDEST SWAP2 SWAP1 PUSH2 0x254C DUP2 PUSH2 0x2545 DUP2 PUSH2 0x2551 SWAP6 PUSH2 0x2529 JUMP JUMPDEST DUP1 SWAP6 PUSH2 0x94A JUMP JUMPDEST PUSH2 0x828 JUMP JUMPDEST ADD SWAP1 JUMP JUMPDEST POP PUSH2 0x2564 SWAP1 PUSH1 0x20 DUP2 ADD SWAP1 PUSH2 0x775 JUMP JUMPDEST SWAP1 JUMP JUMPDEST SWAP1 PUSH2 0x25A5 SWAP1 PUSH1 0x20 PUSH2 0x259D PUSH2 0x2593 PUSH1 0x40 DUP5 ADD PUSH2 0x2585 PUSH1 0x0 DUP9 ADD DUP9 PUSH2 0x24E3 JUMP JUMPDEST SWAP1 DUP7 DUP4 SUB PUSH1 0x0 DUP9 ADD MSTORE PUSH2 0x2532 JUMP JUMPDEST SWAP5 DUP3 DUP2 ADD SWAP1 PUSH2 0x2555 JUMP JUMPDEST SWAP2 ADD SWAP1 PUSH2 0x2D4 JUMP JUMPDEST SWAP1 JUMP JUMPDEST PUSH2 0x2652 SWAP2 PUSH2 0x2644 PUSH2 0x2639 PUSH1 0xC0 DUP4 ADD PUSH2 0x25D0 PUSH2 0x25C6 PUSH1 0x0 DUP8 ADD DUP8 PUSH2 0x23F7 JUMP JUMPDEST PUSH1 0x0 DUP7 ADD SWAP1 PUSH2 0x2409 JUMP JUMPDEST PUSH2 0x25EA PUSH2 0x25E0 PUSH1 0x20 DUP8 ADD DUP8 PUSH2 0x2416 JUMP JUMPDEST PUSH1 0x20 DUP7 ADD SWAP1 PUSH2 0x2428 JUMP JUMPDEST PUSH2 0x2604 PUSH2 0x25FA PUSH1 0x40 DUP8 ADD DUP8 PUSH2 0x2435 JUMP JUMPDEST PUSH1 0x40 DUP7 ADD SWAP1 PUSH2 0x2E4 JUMP JUMPDEST PUSH2 0x261E PUSH2 0x2614 PUSH1 0x60 DUP8 ADD DUP8 PUSH2 0x2435 JUMP JUMPDEST PUSH1 0x60 DUP7 ADD SWAP1 PUSH2 0x2E4 JUMP JUMPDEST PUSH2 0x262B PUSH1 0x80 DUP7 ADD DUP7 PUSH2 0x2456 JUMP JUMPDEST SWAP1 DUP6 DUP4 SUB PUSH1 0x80 DUP8 ADD MSTORE PUSH2 0x24A5 JUMP JUMPDEST SWAP3 PUSH1 0xA0 DUP2 ADD SWAP1 PUSH2 0x24C8 JUMP JUMPDEST SWAP1 PUSH1 0xA0 DUP2 DUP5 SUB SWAP2 ADD MSTORE PUSH2 0x2567 JUMP JUMPDEST SWAP1 JUMP JUMPDEST SWAP4 SWAP3 SWAP1 PUSH2 0x2681 PUSH1 0x40 SWAP2 PUSH2 0x2689 SWAP5 PUSH2 0x2674 PUSH1 0x60 DUP10 ADD SWAP3 PUSH1 0x0 DUP11 ADD SWAP1 PUSH2 0x603 JUMP JUMPDEST DUP8 DUP3 SUB PUSH1 0x20 DUP10 ADD MSTORE PUSH2 0x25A8 JUMP JUMPDEST SWAP5 ADD SWAP1 PUSH2 0x549 JUMP JUMPDEST JUMP JUMPDEST SWAP2 POP PUSH1 0x20 SWAP1 PUSH2 0x2698 PUSH2 0x1754 JUMP JUMPDEST POP PUSH2 0x26AB PUSH2 0x26A6 PUSH1 0x3 PUSH2 0x23B0 JUMP JUMPDEST PUSH2 0x23BD JUMP JUMPDEST PUSH2 0x26D7 PUSH4 0x3808A90B SWAP5 SWAP3 SWAP5 PUSH2 0x26E2 PUSH2 0x26C3 PUSH1 0x4 PUSH2 0x145F JUMP JUMPDEST PUSH2 0x26CB PUSH2 0x1B3 JUMP JUMPDEST SWAP8 DUP9 SWAP7 DUP8 SWAP6 DUP7 SWAP6 PUSH2 0x1EB2 JUMP JUMPDEST DUP6 MSTORE PUSH1 0x4 DUP6 ADD PUSH2 0x2655 JUMP JUMPDEST SUB SWAP2 GAS STATICCALL SWAP1 DUP2 ISZERO PUSH2 0x2727 JUMPI PUSH1 0x0 SWAP2 PUSH2 0x26F9 JUMPI JUMPDEST POP SWAP1 JUMP JUMPDEST PUSH2 0x271A SWAP2 POP PUSH1 0x20 RETURNDATASIZE DUP2 GT PUSH2 0x2720 JUMPI JUMPDEST PUSH2 0x2712 DUP2 DUP4 PUSH2 0x848 JUMP JUMPDEST DUP2 ADD SWAP1 PUSH2 0x23D8 JUMP JUMPDEST CODESIZE PUSH2 0x26F5 JUMP JUMPDEST POP RETURNDATASIZE PUSH2 0x2708 JUMP JUMPDEST PUSH2 0x1FED JUMP JUMPDEST SWAP1 PUSH2 0x2736 SWAP1 PUSH2 0x21BD JUMP JUMPDEST PUSH1 0x0 MSTORE PUSH1 0x20 MSTORE PUSH1 0x40 PUSH1 0x0 KECCAK256 SWAP1 JUMP JUMPDEST SWAP1 PUSH2 0x274E SWAP1 PUSH2 0x1759 JUMP JUMPDEST PUSH1 0x0 MSTORE PUSH1 0x20 MSTORE PUSH1 0x40 PUSH1 0x0 KECCAK256 SWAP1 JUMP JUMPDEST PUSH1 0x60 SHL SWAP1 JUMP JUMPDEST PUSH2 0x276B SWAP1 PUSH2 0x275C JUMP JUMPDEST SWAP1 JUMP JUMPDEST PUSH2 0x2777 SWAP1 PUSH2 0x2762 JUMP JUMPDEST SWAP1 JUMP JUMPDEST PUSH2 0x2786 PUSH2 0x278B SWAP2 PUSH2 0x3A3 JUMP JUMPDEST PUSH2 0x276E JUMP JUMPDEST SWAP1 MSTORE JUMP JUMPDEST SWAP1 JUMP JUMPDEST PUSH2 0x279E PUSH2 0x27A3 SWAP2 PUSH2 0x2E1 JUMP JUMPDEST PUSH2 0x278F JUMP JUMPDEST SWAP1 MSTORE JUMP JUMPDEST PUSH1 0x14 DUP2 PUSH2 0x27BA PUSH2 0x27C2 SWAP4 PUSH1 0x20 SWAP7 SWAP6 PUSH2 0x277A JUMP JUMPDEST ADD DUP1 SWAP3 PUSH2 0x2792 JUMP JUMPDEST ADD SWAP1 JUMP JUMPDEST PUSH1 0x20 ADD SWAP1 JUMP JUMPDEST PUSH8 0xFFFFFFFFFFFFFFFF DUP2 GT PUSH2 0x27E4 JUMPI PUSH1 0x20 DUP1 SWAP2 MUL ADD SWAP1 JUMP JUMPDEST PUSH2 0x832 JUMP JUMPDEST SWAP1 SWAP3 SWAP2 SWAP3 PUSH2 0x27FE PUSH2 0x27F9 DUP3 PUSH2 0x27CC JUMP JUMPDEST PUSH2 0x871 JUMP JUMPDEST SWAP4 DUP2 DUP6 MSTORE PUSH1 0x20 DUP1 DUP7 ADD SWAP3 MUL DUP4 ADD SWAP3 DUP2 DUP5 GT PUSH2 0x283B JUMPI SWAP2 JUMPDEST DUP4 DUP4 LT PUSH2 0x2822 JUMPI POP POP POP POP JUMP JUMPDEST PUSH1 0x20 DUP1 SWAP2 PUSH2 0x2830 DUP5 DUP7 PUSH2 0x51B JUMP JUMPDEST DUP2 MSTORE ADD SWAP3 ADD SWAP2 PUSH2 0x2815 JUMP JUMPDEST PUSH2 0x8A3 JUMP JUMPDEST PUSH2 0x284B SWAP2 CALLDATASIZE SWAP2 PUSH2 0x27E9 JUMP JUMPDEST SWAP1 JUMP JUMPDEST SWAP1 SWAP4 SWAP3 SWAP2 SWAP3 PUSH2 0x285B PUSH2 0x12AA JUMP JUMPDEST POP PUSH2 0x2883 PUSH2 0x287D PUSH2 0x2878 PUSH2 0x2871 PUSH1 0x2 DUP8 SWAP1 PUSH2 0x272C JUMP JUMPDEST DUP6 SWAP1 PUSH2 0x2744 JUMP JUMPDEST PUSH2 0x218D JUMP JUMPDEST ISZERO PUSH2 0x217 JUMP JUMPDEST SWAP5 DUP6 PUSH2 0x2892 JUMPI JUMPDEST POP POP POP POP POP SWAP1 JUMP JUMPDEST PUSH2 0x28E7 SWAP6 POP SWAP1 PUSH2 0x28C9 PUSH2 0x28E2 SWAP4 SWAP3 SWAP6 SWAP3 SWAP5 PUSH2 0x28BA PUSH2 0x28AE PUSH2 0x1B3 JUMP JUMPDEST SWAP4 DUP5 SWAP3 PUSH1 0x20 DUP5 ADD PUSH2 0x27A7 JUMP JUMPDEST PUSH1 0x20 DUP3 ADD DUP2 SUB DUP3 MSTORE SUB DUP3 PUSH2 0x848 JUMP JUMPDEST PUSH2 0x28DB PUSH2 0x28D5 DUP3 PUSH2 0x1F3F JUMP JUMPDEST SWAP2 PUSH2 0x27C6 JUMP JUMPDEST KECCAK256 SWAP4 PUSH2 0x2840 JUMP JUMPDEST PUSH2 0x3B97 JUMP JUMPDEST CODESIZE DUP1 DUP1 DUP1 DUP1 PUSH2 0x288A JUMP JUMPDEST SWAP1 PUSH2 0x2910 SWAP7 SWAP6 SWAP5 SWAP4 SWAP3 SWAP2 PUSH2 0x290B PUSH2 0x2906 PUSH2 0x1A5C JUMP JUMPDEST PUSH2 0x3329 JUMP JUMPDEST PUSH2 0x2A46 JUMP JUMPDEST JUMP JUMPDEST PUSH2 0x291C PUSH1 0xE0 PUSH2 0x871 JUMP JUMPDEST SWAP1 JUMP JUMPDEST SWAP1 PUSH2 0x29C9 PUSH1 0xC0 PUSH1 0x5 PUSH2 0x29CF SWAP5 PUSH2 0x2944 PUSH1 0x0 DUP3 ADD PUSH2 0x293E PUSH1 0x0 DUP9 ADD PUSH2 0x1AE5 JUMP JUMPDEST SWAP1 PUSH2 0x1B0C JUMP JUMPDEST PUSH2 0x295D PUSH1 0x1 DUP3 ADD PUSH2 0x2957 PUSH1 0x20 DUP9 ADD PUSH2 0x1AE5 JUMP JUMPDEST SWAP1 PUSH2 0x1B0C JUMP JUMPDEST PUSH2 0x2976 PUSH1 0x2 DUP3 ADD PUSH2 0x2970 PUSH1 0x40 DUP9 ADD PUSH2 0x1AE5 JUMP JUMPDEST SWAP1 PUSH2 0x1B0C JUMP JUMPDEST PUSH2 0x298F PUSH1 0x3 DUP3 ADD PUSH2 0x2989 PUSH1 0x60 DUP9 ADD PUSH2 0x1AE5 JUMP JUMPDEST SWAP1 PUSH2 0x1B0C JUMP JUMPDEST PUSH2 0x29A8 PUSH1 0x4 DUP3 ADD PUSH2 0x29A2 PUSH1 0x80 DUP9 ADD PUSH2 0x1B2C JUMP JUMPDEST SWAP1 PUSH2 0x1B75 JUMP JUMPDEST PUSH2 0x29C1 PUSH1 0x4 DUP3 ADD PUSH2 0x29BB PUSH1 0xA0 DUP9 ADD PUSH2 0x1B2C JUMP JUMPDEST SWAP1 PUSH2 0x1BC0 JUMP JUMPDEST ADD SWAP3 ADD PUSH2 0x1BE0 JUMP JUMPDEST SWAP1 PUSH2 0x1BF9 JUMP JUMPDEST JUMP JUMPDEST SWAP1 PUSH2 0x29DB SWAP2 PUSH2 0x291F JUMP JUMPDEST JUMP JUMPDEST SWAP5 SWAP3 SWAP1 SWAP8 SWAP7 SWAP6 SWAP4 SWAP2 PUSH1 0xE0 DUP7 ADD SWAP9 PUSH1 0x0 DUP8 ADD PUSH2 0x29F7 SWAP2 PUSH2 0xEC8 JUMP JUMPDEST PUSH1 0x20 DUP7 ADD PUSH2 0x2A04 SWAP2 PUSH2 0xEC8 JUMP JUMPDEST PUSH1 0x40 DUP6 ADD PUSH2 0x2A11 SWAP2 PUSH2 0xEC8 JUMP JUMPDEST PUSH1 0x60 DUP5 ADD PUSH2 0x2A1E SWAP2 PUSH2 0xEC8 JUMP JUMPDEST PUSH1 0x80 DUP4 ADD PUSH2 0x2A2B SWAP2 PUSH2 0x1CA5 JUMP JUMPDEST PUSH1 0xA0 DUP3 ADD PUSH2 0x2A38 SWAP2 PUSH2 0x1CA5 JUMP JUMPDEST PUSH1 0xC0 ADD PUSH2 0x2A44 SWAP2 PUSH2 0x549 JUMP JUMPDEST JUMP JUMPDEST SWAP3 SWAP6 SWAP1 SWAP4 SWAP2 SWAP5 DUP1 PUSH2 0x2A5F PUSH2 0x2A59 DUP6 PUSH2 0x2C7 JUMP JUMPDEST SWAP2 PUSH2 0x2C7 JUMP JUMPDEST LT DUP1 ISZERO PUSH2 0x2B7A JUMPI JUMPDEST PUSH2 0x2B5D JUMPI DUP7 PUSH2 0x2A7F PUSH2 0x2A79 PUSH1 0x0 PUSH2 0x1ABC JUMP JUMPDEST SWAP2 PUSH2 0x274 JUMP JUMPDEST EQ PUSH2 0x2B40 JUMPI DUP4 PUSH2 0x2B01 PUSH1 0x0 PUSH2 0x2AFA DUP9 PUSH2 0x2AF1 DUP8 PUSH2 0x2AE8 DUP9 DUP16 DUP16 PUSH2 0x2AD6 PUSH2 0x2B3B SWAP16 SWAP3 DUP16 SWAP3 PUSH2 0x2ACD SWAP1 PUSH2 0x2AC4 PUSH2 0x2ADF SWAP7 SWAP12 SWAP2 SWAP4 SWAP6 SWAP8 SWAP10 SWAP12 PUSH2 0x2ABC PUSH2 0x2912 JUMP JUMPDEST SWAP15 DUP16 ADD PUSH2 0x13D7 JUMP JUMPDEST PUSH1 0x20 DUP14 ADD PUSH2 0x13D7 JUMP JUMPDEST PUSH1 0x40 DUP12 ADD PUSH2 0x13D7 JUMP JUMPDEST PUSH1 0x60 DUP10 ADD PUSH2 0x13D7 JUMP JUMPDEST PUSH1 0x80 DUP8 ADD PUSH2 0x1413 JUMP JUMPDEST PUSH1 0xA0 DUP6 ADD PUSH2 0x1413 JUMP JUMPDEST PUSH1 0xC0 DUP4 ADD PUSH2 0x146C JUMP JUMPDEST PUSH1 0x7 PUSH2 0x29D1 JUMP JUMPDEST SWAP5 SWAP6 SWAP7 SWAP3 SWAP1 SWAP2 SWAP3 PUSH32 0x99EB0C4BCB0E32C2243E81B424E1960F39D7AC2FE1598742F19AA8AEC203ACB SWAP8 PUSH2 0x2B32 PUSH2 0x1B3 JUMP JUMPDEST SWAP8 DUP9 SWAP8 DUP9 PUSH2 0x29DD JUMP JUMPDEST SUB SWAP1 LOG1 JUMP JUMPDEST PUSH1 0x0 PUSH4 0x10BA94E9 PUSH1 0xE3 SHL DUP2 MSTORE DUP1 PUSH2 0x2B59 PUSH1 0x4 DUP3 ADD PUSH2 0x3F2 JUMP JUMPDEST SUB SWAP1 REVERT JUMPDEST PUSH1 0x0 PUSH4 0x10BA94E9 PUSH1 0xE3 SHL DUP2 MSTORE DUP1 PUSH2 0x2B76 PUSH1 0x4 DUP3 ADD PUSH2 0x3F2 JUMP JUMPDEST SUB SWAP1 REVERT JUMPDEST POP DUP1 PUSH2 0x2B8E PUSH2 0x2B88 TIMESTAMP PUSH2 0x274 JUMP JUMPDEST SWAP2 PUSH2 0x1AA0 JUMP JUMPDEST GT ISZERO PUSH2 0x2A67 JUMP JUMPDEST SWAP1 PUSH2 0x2BA4 SWAP7 SWAP6 SWAP5 SWAP4 SWAP3 SWAP2 PUSH2 0x28F1 JUMP JUMPDEST JUMP JUMPDEST PUSH1 0x0 SWAP1 JUMP JUMPDEST PUSH2 0x2BCA PUSH2 0x2BC5 PUSH2 0x2BCF SWAP3 PUSH2 0x2BBD PUSH2 0x2BA6 JUMP JUMPDEST POP PUSH1 0x1 PUSH2 0x230C JUMP JUMPDEST PUSH2 0x2324 JUMP JUMPDEST PUSH2 0x3BC1 JUMP JUMPDEST SWAP1 JUMP JUMPDEST SWAP1 PUSH2 0x2BED SWAP2 PUSH2 0x2BE8 PUSH2 0x2BE3 DUP3 PUSH2 0x177D JUMP JUMPDEST PUSH2 0x3329 JUMP JUMPDEST PUSH2 0x2BEF JUMP JUMPDEST JUMP JUMPDEST SWAP1 PUSH2 0x2BF9 SWAP2 PUSH2 0x3374 JUMP JUMPDEST JUMP JUMPDEST SWAP1 PUSH2 0x2C05 SWAP2 PUSH2 0x2BD2 JUMP JUMPDEST JUMP JUMPDEST PUSH2 0x2C20 SWAP1 PUSH2 0x2C1B PUSH2 0x2C16 PUSH2 0x1528 JUMP JUMPDEST PUSH2 0x3329 JUMP JUMPDEST PUSH2 0x2C22 JUMP JUMPDEST JUMP JUMPDEST PUSH2 0x2C2D SWAP1 PUSH1 0x4 PUSH2 0x1BF9 JUMP JUMPDEST JUMP JUMPDEST PUSH2 0x2C38 SWAP1 PUSH2 0x2C07 JUMP JUMPDEST JUMP JUMPDEST SWAP1 PUSH2 0x2C5E SWAP12 SWAP11 SWAP10 SWAP9 SWAP8 SWAP7 SWAP6 SWAP5 SWAP4 SWAP3 SWAP2 PUSH2 0x2C59 PUSH2 0x2C54 PUSH2 0x1A5C JUMP JUMPDEST PUSH2 0x3329 JUMP JUMPDEST PUSH2 0x2CF7 JUMP JUMPDEST JUMP JUMPDEST POP SWAP1 JUMP JUMPDEST POP SWAP1 JUMP JUMPDEST POP SWAP1 JUMP JUMPDEST PUSH1 0x1 PUSH2 0x2C78 SWAP2 ADD PUSH2 0x274 JUMP JUMPDEST SWAP1 JUMP JUMPDEST PUSH4 0x4E487B71 PUSH1 0xE0 SHL PUSH1 0x0 MSTORE PUSH1 0x32 PUSH1 0x4 MSTORE PUSH1 0x24 PUSH1 0x0 REVERT JUMPDEST SWAP2 SWAP1 DUP2 LT ISZERO PUSH2 0x2CA1 JUMPI PUSH1 0x20 MUL ADD SWAP1 JUMP JUMPDEST PUSH2 0x2C7B JUMP JUMPDEST CALLDATALOAD PUSH2 0x2CB0 DUP2 PUSH2 0x277 JUMP JUMPDEST SWAP1 JUMP JUMPDEST SWAP2 SWAP1 DUP2 LT ISZERO PUSH2 0x2CC3 JUMPI PUSH1 0x20 MUL ADD SWAP1 JUMP JUMPDEST PUSH2 0x2C7B JUMP JUMPDEST CALLDATALOAD PUSH2 0x2CD2 DUP2 PUSH2 0x760 JUMP JUMPDEST SWAP1 JUMP JUMPDEST SWAP2 SWAP1 DUP2 LT ISZERO PUSH2 0x2CE5 JUMPI PUSH1 0x20 MUL ADD SWAP1 JUMP JUMPDEST PUSH2 0x2C7B JUMP JUMPDEST CALLDATALOAD PUSH2 0x2CF4 DUP2 PUSH2 0x506 JUMP JUMPDEST SWAP1 JUMP JUMPDEST SWAP1 SWAP11 SWAP6 SWAP10 SWAP7 SWAP4 SWAP9 SWAP5 SWAP3 SWAP2 SWAP8 SWAP11 PUSH2 0x2D0E DUP3 DUP3 SWAP1 PUSH2 0x2C60 JUMP JUMPDEST PUSH2 0x2D2A PUSH2 0x2D24 PUSH2 0x2D1F DUP13 DUP8 SWAP1 PUSH2 0x2C60 JUMP JUMPDEST PUSH2 0x274 JUMP JUMPDEST SWAP2 PUSH2 0x274 JUMP JUMPDEST EQ ISZERO DUP1 ISZERO PUSH2 0x312F JUMPI JUMPDEST DUP1 ISZERO PUSH2 0x30FF JUMPI JUMPDEST DUP1 ISZERO PUSH2 0x30CF JUMPI JUMPDEST DUP1 ISZERO PUSH2 0x30A0 JUMPI JUMPDEST PUSH2 0x3083 JUMPI PUSH2 0x2D54 PUSH2 0x2BA6 JUMP JUMPDEST SWAP2 PUSH2 0x2D5F PUSH1 0x0 PUSH2 0x1ABC JUMP JUMPDEST JUMPDEST DUP1 PUSH2 0x2D7D PUSH2 0x2D77 PUSH2 0x2D72 DUP6 DUP8 SWAP1 PUSH2 0x2C60 JUMP JUMPDEST PUSH2 0x274 JUMP JUMPDEST SWAP2 PUSH2 0x274 JUMP JUMPDEST LT ISZERO PUSH2 0x3073 JUMPI PUSH2 0x2D97 PUSH2 0x2D92 DUP4 DUP6 DUP5 SWAP2 PUSH2 0x2C91 JUMP JUMPDEST PUSH2 0x2CA6 JUMP JUMPDEST SWAP4 DUP2 PUSH2 0x2DAC PUSH2 0x2DA6 PUSH1 0x0 PUSH2 0x1ABC JUMP JUMPDEST SWAP2 PUSH2 0x274 JUMP JUMPDEST EQ ISZERO SWAP1 DUP2 PUSH2 0x3057 JUMPI JUMPDEST POP PUSH2 0x303A JUMPI DUP4 DUP15 DUP15 PUSH2 0x2DFB PUSH2 0x2DF5 PUSH2 0x2DF0 PUSH2 0x2DEB DUP14 DUP16 SWAP12 PUSH2 0x2DDD PUSH2 0x2DE2 SWAP2 SWAP14 DUP10 SWAP1 DUP13 SWAP2 PUSH2 0x2CB3 JUMP JUMPDEST PUSH2 0x2CC8 JUMP JUMPDEST SWAP6 SWAP1 DUP10 SWAP2 PUSH2 0x2CB3 JUMP JUMPDEST PUSH2 0x2CC8 JUMP JUMPDEST PUSH2 0x2C7 JUMP JUMPDEST SWAP2 PUSH2 0x2C7 JUMP JUMPDEST LT SWAP1 DUP2 ISZERO PUSH2 0x300A JUMPI JUMPDEST POP PUSH2 0x2FED JUMPI PUSH2 0x2E1D PUSH2 0x2E18 DUP15 DUP10 DUP6 SWAP2 PUSH2 0x2C91 JUMP JUMPDEST PUSH2 0x2CA6 JUMP JUMPDEST PUSH2 0x2E30 PUSH2 0x2E2A PUSH1 0x0 PUSH2 0x1ABC JUMP JUMPDEST SWAP2 PUSH2 0x274 JUMP JUMPDEST EQ PUSH2 0x2FD0 JUMPI DUP14 DUP16 SWAP2 DUP14 DUP16 SWAP2 DUP14 DUP16 SWAP2 DUP14 DUP16 SWAP2 DUP14 DUP16 SWAP2 DUP8 DUP3 DUP14 SWAP1 PUSH2 0x2E51 SWAP3 PUSH2 0x2C91 JUMP JUMPDEST PUSH2 0x2E5A SWAP1 PUSH2 0x2CA6 JUMP JUMPDEST DUP10 DUP14 DUP6 PUSH2 0x2E66 SWAP3 PUSH2 0x2C91 JUMP JUMPDEST PUSH2 0x2E6F SWAP1 PUSH2 0x2CA6 JUMP JUMPDEST DUP14 DUP14 DUP14 DUP9 DUP4 SWAP1 PUSH2 0x2E7E SWAP3 PUSH2 0x2CB3 JUMP JUMPDEST PUSH2 0x2E87 SWAP1 PUSH2 0x2CC8 JUMP JUMPDEST SWAP1 DUP10 DUP4 SWAP1 PUSH2 0x2E94 SWAP3 PUSH2 0x2CB3 JUMP JUMPDEST PUSH2 0x2E9D SWAP1 PUSH2 0x2CC8 JUMP JUMPDEST SWAP2 DUP12 SWAP1 DUP12 PUSH2 0x2EAA SWAP3 PUSH2 0x2CD5 JUMP JUMPDEST PUSH2 0x2EB3 SWAP1 PUSH2 0x2CEA JUMP JUMPDEST SWAP3 PUSH2 0x2EBC PUSH2 0x1AD8 JUMP JUMPDEST SWAP5 PUSH1 0x0 DUP7 ADD SWAP1 PUSH2 0x2ECB SWAP2 PUSH2 0x13D7 JUMP JUMPDEST PUSH1 0x20 DUP6 ADD SWAP1 PUSH2 0x2ED9 SWAP2 PUSH2 0x13D7 JUMP JUMPDEST PUSH1 0x40 DUP5 ADD SWAP1 PUSH2 0x2EE7 SWAP2 PUSH2 0x1413 JUMP JUMPDEST PUSH1 0x60 DUP4 ADD SWAP1 PUSH2 0x2EF5 SWAP2 PUSH2 0x1413 JUMP JUMPDEST PUSH1 0x80 DUP3 ADD SWAP1 PUSH2 0x2F03 SWAP2 PUSH2 0x146C JUMP JUMPDEST PUSH1 0xD DUP3 PUSH2 0x2F0F SWAP2 PUSH2 0x1395 JUMP JUMPDEST SWAP1 PUSH2 0x2F19 SWAP2 PUSH2 0x1C99 JUMP JUMPDEST SWAP7 SWAP1 DUP12 SWAP1 PUSH2 0x2F26 SWAP3 PUSH2 0x2C91 JUMP JUMPDEST PUSH2 0x2F2F SWAP1 PUSH2 0x2CA6 JUMP JUMPDEST SWAP7 SWAP1 DUP11 SWAP1 PUSH2 0x2F3C SWAP3 PUSH2 0x2C91 JUMP JUMPDEST PUSH2 0x2F45 SWAP1 PUSH2 0x2CA6 JUMP JUMPDEST SWAP7 SWAP1 DUP10 SWAP1 PUSH2 0x2F52 SWAP3 PUSH2 0x2CB3 JUMP JUMPDEST PUSH2 0x2F5B SWAP1 PUSH2 0x2CC8 JUMP JUMPDEST SWAP7 SWAP1 DUP9 SWAP1 PUSH2 0x2F68 SWAP3 PUSH2 0x2CB3 JUMP JUMPDEST PUSH2 0x2F71 SWAP1 PUSH2 0x2CC8 JUMP JUMPDEST SWAP2 SWAP1 DUP8 SWAP1 PUSH2 0x2F7E SWAP3 PUSH2 0x2CD5 JUMP JUMPDEST PUSH2 0x2F87 SWAP1 PUSH2 0x2CEA JUMP JUMPDEST SWAP1 PUSH32 0x8CED76AEE4B96A1E218E7903610FC7D648023D9075677163A5B31396CB280F96 SWAP6 PUSH2 0x2FB2 PUSH2 0x1B3 JUMP JUMPDEST SWAP6 DUP7 SWAP6 PUSH2 0x2FBF SWAP6 DUP8 PUSH2 0x1CB2 JUMP JUMPDEST SUB SWAP1 LOG1 PUSH2 0x2FCB SWAP1 PUSH2 0x2C6C JUMP JUMPDEST PUSH2 0x2D60 JUMP JUMPDEST PUSH1 0x0 PUSH4 0x10BA94E9 PUSH1 0xE3 SHL DUP2 MSTORE DUP1 PUSH2 0x2FE9 PUSH1 0x4 DUP3 ADD PUSH2 0x3F2 JUMP JUMPDEST SUB SWAP1 REVERT JUMPDEST PUSH1 0x0 PUSH4 0x10BA94E9 PUSH1 0xE3 SHL DUP2 MSTORE DUP1 PUSH2 0x3006 PUSH1 0x4 DUP3 ADD PUSH2 0x3F2 JUMP JUMPDEST SUB SWAP1 REVERT JUMPDEST PUSH2 0x3020 SWAP2 POP PUSH2 0x301B SWAP1 DUP12 DUP6 SWAP2 PUSH2 0x2CB3 JUMP JUMPDEST PUSH2 0x2CC8 JUMP JUMPDEST PUSH2 0x3032 PUSH2 0x302C TIMESTAMP PUSH2 0x274 JUMP JUMPDEST SWAP2 PUSH2 0x1AA0 JUMP JUMPDEST GT ISZERO DUP16 PUSH2 0x2E04 JUMP JUMPDEST PUSH1 0x0 PUSH4 0x340BC4C9 PUSH1 0xE0 SHL DUP2 MSTORE DUP1 PUSH2 0x3053 PUSH1 0x4 DUP3 ADD PUSH2 0x3F2 JUMP JUMPDEST SUB SWAP1 REVERT JUMPDEST SWAP1 POP PUSH2 0x306B PUSH2 0x3065 DUP7 PUSH2 0x274 JUMP JUMPDEST SWAP2 PUSH2 0x274 JUMP JUMPDEST LT ISZERO CODESIZE PUSH2 0x2DB5 JUMP JUMPDEST POP POP POP POP POP POP POP POP POP POP POP POP POP POP JUMP JUMPDEST PUSH1 0x0 PUSH4 0x10BA94E9 PUSH1 0xE3 SHL DUP2 MSTORE DUP1 PUSH2 0x309C PUSH1 0x4 DUP3 ADD PUSH2 0x3F2 JUMP JUMPDEST SUB SWAP1 REVERT JUMPDEST POP PUSH2 0x30AC DUP3 DUP3 SWAP1 PUSH2 0x2C60 JUMP JUMPDEST PUSH2 0x30C8 PUSH2 0x30C2 PUSH2 0x30BD DUP12 DUP12 SWAP1 PUSH2 0x2C68 JUMP JUMPDEST PUSH2 0x274 JUMP JUMPDEST SWAP2 PUSH2 0x274 JUMP JUMPDEST EQ ISZERO PUSH2 0x2D48 JUMP JUMPDEST POP DUP12 PUSH2 0x30F8 PUSH2 0x30F2 PUSH2 0x30ED PUSH2 0x30E5 DUP7 DUP7 SWAP1 PUSH2 0x2C60 JUMP JUMPDEST SWAP4 DUP11 SWAP1 PUSH2 0x2C64 JUMP JUMPDEST PUSH2 0x274 JUMP JUMPDEST SWAP2 PUSH2 0x274 JUMP JUMPDEST EQ ISZERO PUSH2 0x2D41 JUMP JUMPDEST POP DUP11 PUSH2 0x3128 PUSH2 0x3122 PUSH2 0x311D PUSH2 0x3115 DUP7 DUP7 SWAP1 PUSH2 0x2C60 JUMP JUMPDEST SWAP4 DUP10 SWAP1 PUSH2 0x2C64 JUMP JUMPDEST PUSH2 0x274 JUMP JUMPDEST SWAP2 PUSH2 0x274 JUMP JUMPDEST EQ ISZERO PUSH2 0x2D3A JUMP JUMPDEST POP PUSH2 0x313B DUP3 DUP3 SWAP1 PUSH2 0x2C60 JUMP JUMPDEST PUSH2 0x3157 PUSH2 0x3151 PUSH2 0x314C DUP14 DUP9 SWAP1 PUSH2 0x2C60 JUMP JUMPDEST PUSH2 0x274 JUMP JUMPDEST SWAP2 PUSH2 0x274 JUMP JUMPDEST EQ ISZERO PUSH2 0x2D33 JUMP JUMPDEST SWAP1 PUSH2 0x3172 SWAP12 SWAP11 SWAP10 SWAP9 SWAP8 SWAP7 SWAP6 SWAP5 SWAP4 SWAP3 SWAP2 PUSH2 0x2C3A JUMP JUMPDEST JUMP JUMPDEST PUSH1 0x60 SWAP1 JUMP JUMPDEST PUSH8 0xFFFFFFFFFFFFFFFF DUP2 GT PUSH2 0x3191 JUMPI PUSH1 0x20 DUP1 SWAP2 MUL ADD SWAP1 JUMP JUMPDEST PUSH2 0x832 JUMP JUMPDEST SWAP1 PUSH2 0x31A8 PUSH2 0x31A3 DUP4 PUSH2 0x3179 JUMP JUMPDEST PUSH2 0x871 JUMP JUMPDEST SWAP2 DUP3 MSTORE JUMP JUMPDEST PUSH2 0x31B5 PUSH2 0x1321 JUMP JUMPDEST SWAP1 JUMP JUMPDEST PUSH1 0x0 JUMPDEST DUP3 DUP2 LT PUSH2 0x31C7 JUMPI POP POP POP JUMP JUMPDEST PUSH1 0x20 SWAP1 PUSH2 0x31D2 PUSH2 0x31AD JUMP JUMPDEST DUP2 DUP5 ADD MSTORE ADD PUSH2 0x31BB JUMP JUMPDEST SWAP1 PUSH2 0x3201 PUSH2 0x31E9 DUP4 PUSH2 0x3196 JUMP JUMPDEST SWAP3 PUSH1 0x20 DUP1 PUSH2 0x31F7 DUP7 SWAP4 PUSH2 0x3179 JUMP JUMPDEST SWAP3 ADD SWAP2 SUB SWAP1 PUSH2 0x31B8 JUMP JUMPDEST JUMP JUMPDEST SWAP1 PUSH2 0x320D DUP3 PUSH2 0x117F JUMP JUMPDEST DUP2 LT ISZERO PUSH2 0x321E JUMPI PUSH1 0x20 DUP1 SWAP2 MUL ADD ADD SWAP1 JUMP JUMPDEST PUSH2 0x2C7B JUMP JUMPDEST PUSH2 0x322B PUSH2 0x3174 JUMP JUMPDEST POP PUSH2 0x323F PUSH2 0x323A DUP3 DUP5 SWAP1 PUSH2 0x2C60 JUMP JUMPDEST PUSH2 0x31DC JUMP JUMPDEST SWAP2 PUSH2 0x324A PUSH1 0x0 PUSH2 0x1ABC JUMP JUMPDEST JUMPDEST DUP1 PUSH2 0x3268 PUSH2 0x3262 PUSH2 0x325D DUP7 DUP7 SWAP1 PUSH2 0x2C60 JUMP JUMPDEST PUSH2 0x274 JUMP JUMPDEST SWAP2 PUSH2 0x274 JUMP JUMPDEST LT ISZERO PUSH2 0x32BB JUMPI PUSH2 0x32B6 SWAP1 PUSH2 0x32AF PUSH2 0x3294 PUSH1 0xD PUSH2 0x328E PUSH2 0x3289 DUP9 DUP9 DUP8 SWAP2 PUSH2 0x2C91 JUMP JUMPDEST PUSH2 0x2CA6 JUMP JUMPDEST SWAP1 PUSH2 0x1395 JUMP JUMPDEST DUP7 PUSH2 0x329F DUP5 SWAP3 PUSH2 0x14FD JUMP JUMPDEST PUSH2 0x32A9 DUP4 DUP4 PUSH2 0x3203 JUMP JUMPDEST MSTORE PUSH2 0x3203 JUMP JUMPDEST MLOAD POP PUSH2 0x2C6C JUMP JUMPDEST PUSH2 0x324B JUMP JUMPDEST POP POP POP SWAP1 JUMP JUMPDEST PUSH2 0x32C9 PUSH2 0x12AA JUMP JUMPDEST POP DUP1 PUSH2 0x32DE PUSH2 0x32D8 PUSH1 0x0 PUSH2 0x1C8 JUMP JUMPDEST SWAP2 PUSH2 0x1C8 JUMP JUMPDEST EQ SWAP1 DUP2 ISZERO PUSH2 0x32EB JUMPI JUMPDEST POP SWAP1 JUMP JUMPDEST PUSH2 0x32F5 SWAP2 POP PUSH2 0x3BE1 JUMP JUMPDEST CODESIZE PUSH2 0x32E7 JUMP JUMPDEST PUSH2 0x3303 PUSH2 0x12AA JUMP JUMPDEST POP PUSH2 0x330D DUP2 PUSH2 0x3BE1 JUMP JUMPDEST SWAP1 DUP2 ISZERO PUSH2 0x3319 JUMPI JUMPDEST POP SWAP1 JUMP JUMPDEST PUSH2 0x3323 SWAP2 POP PUSH2 0x3C21 JUMP JUMPDEST CODESIZE PUSH2 0x3315 JUMP JUMPDEST PUSH2 0x333B SWAP1 PUSH2 0x3335 PUSH2 0x3367 JUMP JUMPDEST SWAP1 PUSH2 0x3DA9 JUMP JUMPDEST JUMP JUMPDEST SWAP1 PUSH2 0x335F PUSH2 0x335A PUSH2 0x3364 SWAP4 PUSH2 0x3353 DUP2 DUP6 SWAP1 PUSH2 0x3E42 JUMP JUMPDEST PUSH1 0x1 PUSH2 0x230C JUMP JUMPDEST PUSH2 0x2324 JUMP JUMPDEST PUSH2 0x3F0C JUMP JUMPDEST POP JUMP JUMPDEST PUSH2 0x336F PUSH2 0x17D4 JUMP JUMPDEST POP CALLER SWAP1 JUMP JUMPDEST SWAP1 PUSH2 0x3396 PUSH2 0x3391 PUSH2 0x339B SWAP4 PUSH2 0x338A DUP2 DUP6 SWAP1 PUSH2 0x3F47 JUMP JUMPDEST PUSH1 0x1 PUSH2 0x230C JUMP JUMPDEST PUSH2 0x2324 JUMP JUMPDEST PUSH2 0x3FE0 JUMP JUMPDEST POP JUMP JUMPDEST PUSH2 0x33A7 SWAP1 PUSH2 0x1E95 JUMP JUMPDEST SWAP1 JUMP JUMPDEST PUSH4 0xFFFFFFFF AND SWAP1 JUMP JUMPDEST PUSH2 0x33C7 PUSH2 0x33C2 PUSH2 0x33CC SWAP3 PUSH2 0x33AA JUMP JUMPDEST PUSH2 0x1EB2 JUMP JUMPDEST PUSH2 0x1C8 JUMP JUMPDEST SWAP1 JUMP JUMPDEST SWAP2 PUSH1 0x20 PUSH2 0x33F1 SWAP3 SWAP5 SWAP4 PUSH2 0x33EA PUSH1 0x40 DUP3 ADD SWAP7 PUSH1 0x0 DUP4 ADD SWAP1 PUSH2 0x603 JUMP JUMPDEST ADD SWAP1 PUSH2 0xEC8 JUMP JUMPDEST JUMP JUMPDEST SWAP2 PUSH2 0x3437 PUSH1 0x4 SWAP3 PUSH2 0x3428 PUSH2 0x343C SWAP6 SWAP4 PUSH2 0x340F PUSH4 0xA9059CBB PUSH2 0x33B3 JUMP JUMPDEST SWAP3 PUSH2 0x3418 PUSH2 0x1B3 JUMP JUMPDEST SWAP7 DUP8 SWAP5 PUSH1 0x20 DUP7 ADD SWAP1 DUP2 MSTORE ADD PUSH2 0x33CF JUMP JUMPDEST PUSH1 0x20 DUP3 ADD DUP2 SUB DUP3 MSTORE SUB DUP4 PUSH2 0x848 JUMP JUMPDEST PUSH2 0x418E JUMP JUMPDEST JUMP JUMPDEST SWAP1 PUSH2 0x3448 DUP3 PUSH2 0x1E52 JUMP JUMPDEST DUP2 LT ISZERO PUSH2 0x3459 JUMPI PUSH1 0x20 DUP1 SWAP2 MUL ADD ADD SWAP1 JUMP JUMPDEST PUSH2 0x2C7B JUMP JUMPDEST SWAP2 PUSH1 0x20 PUSH2 0x3480 SWAP3 SWAP5 SWAP4 PUSH2 0x3479 PUSH1 0x40 DUP3 ADD SWAP7 PUSH1 0x0 DUP4 ADD SWAP1 PUSH2 0xEC8 JUMP JUMPDEST ADD SWAP1 PUSH2 0xEC8 JUMP JUMPDEST JUMP JUMPDEST PUSH2 0x3496 PUSH2 0x3491 PUSH2 0x349B SWAP3 PUSH2 0x274 JUMP JUMPDEST PUSH2 0xD12 JUMP JUMPDEST PUSH2 0x2E1 JUMP JUMPDEST SWAP1 JUMP JUMPDEST PUSH4 0x4E487B71 PUSH1 0xE0 SHL PUSH1 0x0 MSTORE PUSH1 0x11 PUSH1 0x4 MSTORE PUSH1 0x24 PUSH1 0x0 REVERT JUMPDEST PUSH2 0x34C3 PUSH2 0x34C9 SWAP2 SWAP4 SWAP3 SWAP4 PUSH2 0x274 JUMP JUMPDEST SWAP3 PUSH2 0x274 JUMP JUMPDEST SWAP2 PUSH2 0x34D5 DUP4 DUP3 MUL PUSH2 0x274 JUMP JUMPDEST SWAP3 DUP2 DUP5 DIV EQ SWAP1 ISZERO OR ISZERO PUSH2 0x34E4 JUMPI JUMP JUMPDEST PUSH2 0x349E JUMP JUMPDEST PUSH2 0x34F8 PUSH2 0x34FE SWAP2 SWAP4 SWAP3 SWAP4 PUSH2 0x274 JUMP JUMPDEST SWAP3 PUSH2 0x274 JUMP JUMPDEST DUP3 ADD DUP1 SWAP3 GT PUSH2 0x3509 JUMPI JUMP JUMPDEST PUSH2 0x349E JUMP JUMPDEST PUSH2 0x351D PUSH2 0x3523 SWAP2 SWAP4 SWAP3 SWAP4 PUSH2 0x274 JUMP JUMPDEST SWAP3 PUSH2 0x274 JUMP JUMPDEST DUP3 SUB SWAP2 DUP3 GT PUSH2 0x352E JUMPI JUMP JUMPDEST PUSH2 0x349E JUMP JUMPDEST PUSH2 0x353C SWAP1 PUSH2 0x1ABC JUMP JUMPDEST SWAP1 MSTORE JUMP JUMPDEST PUSH1 0x40 SWAP1 PUSH2 0x356A PUSH2 0x3571 SWAP5 SWAP7 SWAP6 SWAP4 SWAP7 PUSH2 0x3560 PUSH1 0x60 DUP5 ADD SWAP9 PUSH1 0x0 DUP6 ADD SWAP1 PUSH2 0x603 JUMP JUMPDEST PUSH1 0x20 DUP4 ADD SWAP1 PUSH2 0xEC8 JUMP JUMPDEST ADD SWAP1 PUSH2 0x3533 JUMP JUMPDEST JUMP JUMPDEST PUSH1 0x40 SWAP1 PUSH2 0x359D PUSH2 0x35A4 SWAP5 SWAP7 SWAP6 SWAP4 SWAP7 PUSH2 0x3593 PUSH1 0x60 DUP5 ADD SWAP9 PUSH1 0x0 DUP6 ADD SWAP1 PUSH2 0x603 JUMP JUMPDEST PUSH1 0x20 DUP4 ADD SWAP1 PUSH2 0xEC8 JUMP JUMPDEST ADD SWAP1 PUSH2 0xEC8 JUMP JUMPDEST JUMP JUMPDEST PUSH2 0x35BA PUSH2 0x35B5 PUSH2 0x35BF SWAP3 PUSH2 0xD0F JUMP JUMPDEST PUSH2 0x1376 JUMP JUMPDEST PUSH2 0x398 JUMP JUMPDEST SWAP1 JUMP JUMPDEST PUSH2 0x35CB SWAP1 PUSH2 0x35A6 JUMP JUMPDEST SWAP1 JUMP JUMPDEST PUSH2 0x35D7 SWAP1 PUSH2 0x1E95 JUMP JUMPDEST SWAP1 JUMP JUMPDEST PUSH1 0x40 SWAP1 PUSH2 0x3604 PUSH2 0x360B SWAP5 SWAP7 SWAP6 SWAP4 SWAP7 PUSH2 0x35FA PUSH1 0x60 DUP5 ADD SWAP9 PUSH1 0x0 DUP6 ADD SWAP1 PUSH2 0x603 JUMP JUMPDEST PUSH1 0x20 DUP4 ADD SWAP1 PUSH2 0x3533 JUMP JUMPDEST ADD SWAP1 PUSH2 0xEC8 JUMP JUMPDEST JUMP JUMPDEST SWAP4 SWAP6 SWAP2 SWAP1 SWAP5 SWAP6 PUSH1 0x80 MSTORE PUSH2 0x361E PUSH2 0x2BA6 JUMP JUMPDEST SWAP1 PUSH2 0x3627 PUSH2 0x2BA6 JUMP JUMPDEST SWAP6 PUSH2 0x3630 PUSH2 0x2BA6 JUMP JUMPDEST SWAP6 PUSH2 0x363B PUSH1 0x7 PUSH2 0x1732 JUMP JUMPDEST SWAP5 PUSH2 0x366F PUSH2 0x364B PUSH1 0x80 DUP9 ADD PUSH2 0x1B2C JUMP JUMPDEST PUSH2 0x3669 PUSH2 0x3663 PUSH2 0x365D PUSH1 0xA0 DUP12 ADD PUSH2 0x1B2C JUMP JUMPDEST SWAP3 PUSH2 0x1AA0 JUMP JUMPDEST SWAP2 PUSH2 0x1AA0 JUMP JUMPDEST SWAP1 PUSH2 0x41FB JUMP JUMPDEST SWAP4 PUSH1 0x0 SWAP8 PUSH2 0x367B PUSH2 0x2BA6 JUMP JUMPDEST SWAP10 JUMPDEST DUP11 PUSH2 0x3698 PUSH2 0x3692 PUSH2 0x368D DUP9 PUSH2 0x1E52 JUMP JUMPDEST PUSH2 0x274 JUMP JUMPDEST SWAP2 PUSH2 0x274 JUMP JUMPDEST LT ISZERO PUSH2 0x3978 JUMPI PUSH2 0x36B1 PUSH2 0x36AC DUP7 DUP14 SWAP1 PUSH2 0x343E JUMP JUMPDEST PUSH2 0x1AE5 JUMP JUMPDEST SWAP8 DUP12 PUSH2 0x36C6 PUSH2 0x36C0 PUSH1 0x0 PUSH2 0x1ABC JUMP JUMPDEST SWAP2 PUSH2 0x274 JUMP JUMPDEST EQ ISZERO SWAP1 DUP2 PUSH2 0x395C JUMPI JUMPDEST POP PUSH2 0x393F JUMPI DUP8 PUSH2 0x36E7 PUSH2 0x36E2 DUP14 DUP10 PUSH2 0x343E JUMP JUMPDEST PUSH2 0x1AE5 JUMP JUMPDEST SWAP11 PUSH2 0x36FC PUSH2 0x36F7 PUSH1 0xD DUP5 SWAP1 PUSH2 0x1395 JUMP JUMPDEST PUSH2 0x14FD JUMP JUMPDEST PUSH2 0x372F PUSH2 0x370B PUSH1 0x40 DUP4 ADD PUSH2 0x1B2C JUMP JUMPDEST PUSH2 0x3729 PUSH2 0x3723 PUSH2 0x371D PUSH1 0x60 DUP7 ADD PUSH2 0x1B2C JUMP JUMPDEST SWAP3 PUSH2 0x1AA0 JUMP JUMPDEST SWAP2 PUSH2 0x1AA0 JUMP JUMPDEST SWAP1 PUSH2 0x41FB JUMP JUMPDEST PUSH1 0x0 EQ PUSH2 0x386B JUMPI POP POP PUSH2 0x3744 PUSH1 0x0 DUP12 ADD PUSH2 0x1AE5 JUMP JUMPDEST PUSH2 0x3756 PUSH2 0x3750 DUP4 PUSH2 0x274 JUMP JUMPDEST SWAP2 PUSH2 0x274 JUMP JUMPDEST GT DUP1 ISZERO PUSH2 0x3846 JUMPI JUMPDEST DUP1 ISZERO PUSH2 0x383F JUMPI JUMPDEST PUSH2 0x3820 JUMPI POP PUSH2 0x3777 PUSH1 0x3 PUSH1 0x7 ADD PUSH2 0x13CA JUMP JUMPDEST PUSH2 0x3789 PUSH2 0x3783 DUP13 PUSH2 0x274 JUMP JUMPDEST SWAP2 PUSH2 0x274 JUMP JUMPDEST LT PUSH2 0x37F3 JUMPI PUSH1 0x1 SWAP12 DUP10 PUSH1 0x40 ADD PUSH2 0x379E SWAP1 PUSH2 0x1AE5 JUMP JUMPDEST DUP12 PUSH2 0x37A8 SWAP2 PUSH2 0x34B4 JUMP JUMPDEST PUSH2 0x37B1 SWAP2 PUSH2 0x34E9 JUMP JUMPDEST SWAP10 DUP1 PUSH1 0x7 PUSH1 0x3 ADD SWAP1 PUSH2 0x37C2 DUP3 PUSH2 0x13CA JUMP JUMPDEST SWAP1 PUSH2 0x37CC SWAP2 PUSH2 0x350E JUMP JUMPDEST PUSH2 0x37D5 SWAP2 PUSH2 0x1B0C JUMP JUMPDEST PUSH2 0x37EA SWAP2 PUSH2 0x37E4 SWAP2 JUMPDEST SWAP1 PUSH2 0x34E9 JUMP JUMPDEST SWAP11 PUSH2 0x2C6C JUMP JUMPDEST SWAP10 SWAP11 SWAP9 SWAP11 PUSH2 0x367D JUMP JUMPDEST DUP10 PUSH2 0x3801 PUSH1 0x3 PUSH1 0x7 ADD PUSH2 0x13CA JUMP JUMPDEST PUSH2 0x381C PUSH1 0x0 SWAP3 DUP4 SWAP3 PUSH4 0x9E4C4461 PUSH1 0xE0 SHL DUP5 MSTORE PUSH1 0x4 DUP5 ADD PUSH2 0x345E JUMP JUMPDEST SUB SWAP1 REVERT JUMPDEST PUSH2 0x383B SWAP1 PUSH1 0x0 SWAP2 DUP3 SWAP2 PUSH3 0x35ACF5 PUSH1 0xE4 SHL DUP4 MSTORE PUSH1 0x4 DUP4 ADD PUSH2 0xED5 JUMP JUMPDEST SUB SWAP1 REVERT JUMPDEST POP DUP8 PUSH2 0x3765 JUMP JUMPDEST POP PUSH2 0x3853 PUSH1 0x20 DUP12 ADD PUSH2 0x1AE5 JUMP JUMPDEST PUSH2 0x3865 PUSH2 0x385F DUP4 PUSH2 0x274 JUMP JUMPDEST SWAP2 PUSH2 0x274 JUMP JUMPDEST LT PUSH2 0x375E JUMP JUMPDEST PUSH2 0x387D SWAP2 SWAP15 SWAP2 PUSH1 0x20 DUP3 SWAP15 SWAP5 SWAP15 ADD PUSH2 0x1AE5 JUMP JUMPDEST PUSH2 0x388F PUSH2 0x3889 DUP6 PUSH2 0x274 JUMP JUMPDEST SWAP2 PUSH2 0x274 JUMP JUMPDEST LT PUSH2 0x3913 JUMPI SWAP2 DUP16 PUSH2 0x38E6 PUSH2 0x37EA SWAP6 SWAP4 DUP16 PUSH2 0x38D9 PUSH1 0x0 DUP9 PUSH2 0x38D3 PUSH2 0x390E SWAP8 PUSH2 0x38E0 SWAP6 PUSH2 0x38BF PUSH1 0x80 PUSH2 0x37E4 SWAP15 ADD PUSH2 0x1BE0 JUMP JUMPDEST SWAP2 PUSH1 0x80 MLOAD PUSH2 0x38CD CALLER SWAP4 PUSH2 0x3482 JUMP JUMPDEST SWAP4 PUSH2 0x42F2 JUMP JUMPDEST ADD PUSH2 0x1AE5 JUMP JUMPDEST DUP6 SWAP1 PUSH2 0x34B4 JUMP JUMPDEST SWAP1 PUSH2 0x34E9 JUMP JUMPDEST SWAP14 PUSH2 0x3908 PUSH1 0x1 PUSH2 0x38F8 DUP6 SWAP4 PUSH1 0xD PUSH2 0x1395 JUMP JUMPDEST ADD SWAP2 PUSH2 0x3903 DUP4 PUSH2 0x13CA JUMP JUMPDEST PUSH2 0x350E JUMP JUMPDEST SWAP1 PUSH2 0x1B0C JUMP JUMPDEST PUSH2 0x37DE JUMP JUMPDEST PUSH2 0x3920 PUSH1 0x20 DUP5 SWAP3 ADD PUSH2 0x1AE5 JUMP JUMPDEST PUSH2 0x393B PUSH1 0x0 SWAP3 DUP4 SWAP3 PUSH4 0x9E4C4461 PUSH1 0xE0 SHL DUP5 MSTORE PUSH1 0x4 DUP5 ADD PUSH2 0x345E JUMP JUMPDEST SUB SWAP1 REVERT JUMPDEST PUSH1 0x0 PUSH4 0x340BC4C9 PUSH1 0xE0 SHL DUP2 MSTORE DUP1 PUSH2 0x3958 PUSH1 0x4 DUP3 ADD PUSH2 0x3F2 JUMP JUMPDEST SUB SWAP1 REVERT JUMPDEST SWAP1 POP PUSH2 0x3970 PUSH2 0x396A DUP11 PUSH2 0x274 JUMP JUMPDEST SWAP2 PUSH2 0x274 JUMP JUMPDEST LT ISZERO CODESIZE PUSH2 0x36CF JUMP JUMPDEST POP SWAP8 SWAP5 POP SWAP8 POP SWAP9 SWAP4 POP POP POP PUSH2 0x3AE0 JUMPI JUMPDEST POP POP DUP2 PUSH2 0x39A6 PUSH2 0x39A0 PUSH2 0x399B PUSH1 0x6 PUSH2 0x17F8 JUMP JUMPDEST PUSH2 0x3A3 JUMP JUMPDEST SWAP2 PUSH2 0x3A3 JUMP JUMPDEST SUB PUSH2 0x3AB5 JUMPI DUP1 PUSH2 0x39BE PUSH2 0x39B8 DUP6 PUSH2 0x274 JUMP JUMPDEST SWAP2 PUSH2 0x274 JUMP JUMPDEST LT PUSH2 0x3A92 JUMPI POP DUP1 PUSH2 0x39E0 PUSH2 0x39DA PUSH2 0x39D5 PUSH1 0x0 PUSH2 0x35C2 JUMP JUMPDEST PUSH2 0x3A3 JUMP JUMPDEST SWAP2 PUSH2 0x3A3 JUMP JUMPDEST EQ PUSH1 0x0 EQ PUSH2 0x3A25 JUMPI CALLVALUE PUSH2 0x39FB PUSH2 0x39F5 DUP5 PUSH2 0x274 JUMP JUMPDEST SWAP2 PUSH2 0x274 JUMP JUMPDEST SUB PUSH2 0x3A05 JUMPI POP POP JUMPDEST JUMP JUMPDEST PUSH2 0x3A21 CALLVALUE PUSH1 0x0 SWAP4 DUP5 SWAP4 PUSH4 0xF55E7DF PUSH1 0xE1 SHL DUP6 MSTORE PUSH1 0x4 DUP6 ADD PUSH2 0x3573 JUMP JUMPDEST SUB SWAP1 REVERT JUMPDEST SWAP1 CALLVALUE PUSH2 0x3A3A PUSH2 0x3A34 PUSH1 0x0 PUSH2 0x1ABC JUMP JUMPDEST SWAP2 PUSH2 0x274 JUMP JUMPDEST GT PUSH1 0x0 EQ PUSH2 0x3A6F JUMPI PUSH2 0x3A4C PUSH1 0x0 PUSH2 0x35C2 JUMP JUMPDEST PUSH1 0x0 SWAP1 PUSH2 0x3A6B CALLVALUE PUSH1 0x0 SWAP4 DUP5 SWAP4 PUSH4 0xF55E7DF PUSH1 0xE1 SHL DUP6 MSTORE PUSH1 0x4 DUP6 ADD PUSH2 0x35DA JUMP JUMPDEST SUB SWAP1 REVERT JUMPDEST PUSH2 0x3A7B PUSH2 0x3A8D SWAP3 PUSH2 0x194A JUMP JUMPDEST SWAP1 CALLER PUSH2 0x3A86 ADDRESS PUSH2 0x35CE JUMP JUMPDEST SWAP2 SWAP3 PUSH2 0x43C5 JUMP JUMPDEST PUSH2 0x3A03 JUMP JUMPDEST DUP3 PUSH2 0x3AB1 DUP4 SWAP2 SWAP3 PUSH1 0x0 SWAP4 DUP5 SWAP4 PUSH4 0xF55E7DF PUSH1 0xE1 SHL DUP6 MSTORE PUSH1 0x4 DUP6 ADD PUSH2 0x3573 JUMP JUMPDEST SUB SWAP1 REVERT JUMPDEST DUP3 PUSH2 0x3AC0 PUSH1 0x6 PUSH2 0x17F8 JUMP JUMPDEST PUSH2 0x3ADC PUSH1 0x0 DUP1 SWAP4 DUP5 SWAP4 PUSH4 0xF55E7DF PUSH1 0xE1 SHL DUP6 MSTORE PUSH1 0x4 DUP6 ADD PUSH2 0x3540 JUMP JUMPDEST SUB SWAP1 REVERT JUMPDEST PUSH2 0x3AEF PUSH1 0xC0 PUSH2 0x3B07 SWAP4 ADD PUSH2 0x1BE0 JUMP JUMPDEST SWAP1 PUSH1 0x80 MLOAD SWAP1 CALLER SWAP2 PUSH2 0x3B01 PUSH1 0x0 NOT PUSH2 0x3482 JUMP JUMPDEST SWAP4 PUSH2 0x42F2 JUMP JUMPDEST CODESIZE DUP1 PUSH2 0x3988 JUMP JUMPDEST SWAP1 PUSH2 0x3B24 PUSH2 0x3B29 SWAP4 SWAP3 PUSH2 0x3B1F PUSH2 0x1528 JUMP JUMPDEST PUSH2 0x333D JUMP JUMPDEST PUSH2 0x4414 JUMP JUMPDEST JUMP JUMPDEST SWAP1 JUMP JUMPDEST PUSH2 0x3B3A PUSH2 0x3B3F SWAP2 PUSH2 0x13AD JUMP JUMPDEST PUSH2 0x1379 JUMP JUMPDEST SWAP1 JUMP JUMPDEST PUSH2 0x3B56 PUSH2 0x3B51 PUSH2 0x3B5B SWAP3 PUSH2 0x274 JUMP JUMPDEST PUSH2 0x1376 JUMP JUMPDEST PUSH2 0x398 JUMP JUMPDEST SWAP1 JUMP JUMPDEST PUSH2 0x3B8A PUSH2 0x3B85 PUSH2 0x3B94 SWAP4 PUSH2 0x3B80 PUSH1 0x0 PUSH2 0x3B8F SWAP6 PUSH2 0x3B79 PUSH2 0x17D4 JUMP JUMPDEST POP ADD PUSH2 0x3B2B JUMP JUMPDEST PUSH2 0x4496 JUMP JUMPDEST PUSH2 0x3B2E JUMP JUMPDEST PUSH2 0x3B42 JUMP JUMPDEST PUSH2 0x1E95 JUMP JUMPDEST SWAP1 JUMP JUMPDEST PUSH2 0x3BB1 PUSH2 0x3BBD SWAP3 SWAP4 PUSH2 0x3BB7 SWAP3 PUSH2 0x3BAB PUSH2 0x12AA JUMP JUMPDEST POP PUSH2 0x44DC JUMP JUMPDEST SWAP3 PUSH2 0x2E1 JUMP JUMPDEST SWAP2 PUSH2 0x2E1 JUMP JUMPDEST EQ SWAP1 JUMP JUMPDEST PUSH2 0x3BD9 PUSH1 0x0 PUSH2 0x3BDE SWAP3 PUSH2 0x3BD2 PUSH2 0x2BA6 JUMP JUMPDEST POP ADD PUSH2 0x3B2B JUMP JUMPDEST PUSH2 0x4547 JUMP JUMPDEST SWAP1 JUMP JUMPDEST PUSH2 0x3BE9 PUSH2 0x12AA JUMP JUMPDEST POP DUP1 PUSH2 0x3C04 PUSH2 0x3BFE PUSH4 0x5A05180F PUSH1 0xE0 SHL PUSH2 0x1C8 JUMP JUMPDEST SWAP2 PUSH2 0x1C8 JUMP JUMPDEST EQ SWAP1 DUP2 ISZERO PUSH2 0x3C11 JUMPI JUMPDEST POP SWAP1 JUMP JUMPDEST PUSH2 0x3C1B SWAP2 POP PUSH2 0x455F JUMP JUMPDEST CODESIZE PUSH2 0x3C0D JUMP JUMPDEST PUSH2 0x3C29 PUSH2 0x12AA JUMP JUMPDEST POP DUP1 PUSH2 0x3C44 PUSH2 0x3C3E PUSH4 0x4E821D33 PUSH1 0xE1 SHL PUSH2 0x1C8 JUMP JUMPDEST SWAP2 PUSH2 0x1C8 JUMP JUMPDEST EQ SWAP1 DUP2 ISZERO PUSH2 0x3C51 JUMPI JUMPDEST POP SWAP1 JUMP JUMPDEST PUSH2 0x3C5B SWAP2 POP PUSH2 0x32C1 JUMP JUMPDEST CODESIZE PUSH2 0x3C4D JUMP JUMPDEST SWAP1 JUMP JUMPDEST PUSH2 0x3C78 PUSH2 0x3C73 PUSH2 0x3C7D SWAP3 PUSH2 0x3C61 JUMP JUMPDEST PUSH2 0x1376 JUMP JUMPDEST PUSH2 0x274 JUMP JUMPDEST SWAP1 JUMP JUMPDEST SWAP1 POP SWAP1 JUMP JUMPDEST PUSH1 0x0 PUSH32 0x416363657373436F6E74726F6C3A206163636F756E7420000000000000000000 SWAP2 ADD MSTORE JUMP JUMPDEST PUSH2 0x3CB9 PUSH1 0x17 DUP1 SWAP3 PUSH2 0x3C80 JUMP JUMPDEST PUSH2 0x3CC2 DUP2 PUSH2 0x3C85 JUMP JUMPDEST ADD SWAP1 JUMP JUMPDEST MLOAD SWAP1 JUMP JUMPDEST PUSH2 0x3CEF PUSH2 0x3CE6 SWAP3 PUSH1 0x20 SWAP3 PUSH2 0x3CDD DUP2 PUSH2 0x3CC6 JUMP JUMPDEST SWAP5 DUP6 DUP1 SWAP4 PUSH2 0x3C80 JUMP JUMPDEST SWAP4 DUP5 SWAP2 ADD PUSH2 0x1F4C JUMP JUMPDEST ADD SWAP1 JUMP JUMPDEST PUSH1 0x0 PUSH32 0x206973206D697373696E6720726F6C6520000000000000000000000000000000 SWAP2 ADD MSTORE JUMP JUMPDEST PUSH2 0x3D27 PUSH1 0x11 DUP1 SWAP3 PUSH2 0x3C80 JUMP JUMPDEST PUSH2 0x3D30 DUP2 PUSH2 0x3CF3 JUMP JUMPDEST ADD SWAP1 JUMP JUMPDEST PUSH2 0x3D4E PUSH2 0x3D59 SWAP4 SWAP3 PUSH2 0x3D48 PUSH2 0x3D53 SWAP4 PUSH2 0x3CAD JUMP JUMPDEST SWAP1 PUSH2 0x3CCA JUMP JUMPDEST PUSH2 0x3D1B JUMP JUMPDEST SWAP1 PUSH2 0x3CCA JUMP JUMPDEST SWAP1 JUMP JUMPDEST SWAP1 JUMP JUMPDEST PUSH2 0x3D7E PUSH2 0x3D87 PUSH1 0x20 SWAP4 PUSH2 0x3D8C SWAP4 PUSH2 0x3D75 DUP2 PUSH2 0x3CC6 JUMP JUMPDEST SWAP4 DUP5 DUP1 SWAP4 PUSH2 0x181B JUMP JUMPDEST SWAP6 DUP7 SWAP2 ADD PUSH2 0x1F4C JUMP JUMPDEST PUSH2 0x828 JUMP JUMPDEST ADD SWAP1 JUMP JUMPDEST PUSH2 0x3DA6 SWAP2 PUSH1 0x20 DUP3 ADD SWAP2 PUSH1 0x0 DUP2 DUP5 SUB SWAP2 ADD MSTORE PUSH2 0x3D5F JUMP JUMPDEST SWAP1 JUMP JUMPDEST SWAP1 PUSH2 0x3DBE PUSH2 0x3DB8 DUP4 DUP4 SWAP1 PUSH2 0x2367 JUMP JUMPDEST ISZERO PUSH2 0x217 JUMP JUMPDEST PUSH2 0x3DC6 JUMPI POP POP JUMP JUMPDEST PUSH2 0x3E3E SWAP2 PUSH2 0x3E1C PUSH2 0x3DF5 PUSH2 0x3DE5 PUSH2 0x3DDF PUSH2 0x3E21 SWAP6 PUSH2 0x45F2 JUMP JUMPDEST SWAP4 PUSH2 0x3B2E JUMP JUMPDEST PUSH2 0x3DEF PUSH1 0x20 PUSH2 0x3C64 JUMP JUMPDEST SWAP1 PUSH2 0x47F0 JUMP JUMPDEST SWAP2 PUSH2 0x3E0D PUSH2 0x3E01 PUSH2 0x1B3 JUMP JUMPDEST SWAP4 DUP5 SWAP3 PUSH1 0x20 DUP5 ADD PUSH2 0x3D34 JUMP JUMPDEST PUSH1 0x20 DUP3 ADD DUP2 SUB DUP3 MSTORE SUB DUP3 PUSH2 0x848 JUMP JUMPDEST PUSH2 0x3D5C JUMP JUMPDEST PUSH2 0x3E29 PUSH2 0x1B3 JUMP JUMPDEST SWAP2 DUP3 SWAP2 PUSH3 0x461BCD PUSH1 0xE5 SHL DUP4 MSTORE PUSH1 0x4 DUP4 ADD PUSH2 0x3D90 JUMP JUMPDEST SUB SWAP1 REVERT JUMPDEST PUSH2 0x3E56 PUSH2 0x3E50 DUP3 DUP5 SWAP1 PUSH2 0x2367 JUMP JUMPDEST ISZERO PUSH2 0x217 JUMP JUMPDEST PUSH2 0x3E5F JUMPI JUMPDEST POP POP JUMP JUMPDEST PUSH2 0x3E81 PUSH1 0x1 PUSH2 0x3E7C PUSH1 0x0 PUSH2 0x3E74 DUP2 DUP7 SWAP1 PUSH2 0x1765 JUMP JUMPDEST ADD DUP6 SWAP1 PUSH2 0x234F JUMP JUMPDEST PUSH2 0x2211 JUMP JUMPDEST SWAP1 PUSH2 0x3E8A PUSH2 0x3367 JUMP JUMPDEST SWAP1 PUSH2 0x3EC7 PUSH2 0x3EC1 PUSH2 0x3EBB PUSH32 0x2F8788117E7EFF1D82E926EC794901D17C78024A50270940304540A733656F0D SWAP6 PUSH2 0x1759 JUMP JUMPDEST SWAP3 PUSH2 0x21BD JUMP JUMPDEST SWAP3 PUSH2 0x21BD JUMP JUMPDEST SWAP3 PUSH2 0x3ED0 PUSH2 0x1B3 JUMP JUMPDEST DUP1 PUSH2 0x3EDA DUP2 PUSH2 0x3F2 JUMP JUMPDEST SUB SWAP1 LOG4 CODESIZE DUP1 PUSH2 0x3E5B JUMP JUMPDEST PUSH2 0x3EED SWAP1 PUSH2 0x1567 JUMP JUMPDEST SWAP1 JUMP JUMPDEST PUSH2 0x3F04 PUSH2 0x3EFF PUSH2 0x3F09 SWAP3 PUSH2 0x398 JUMP JUMPDEST PUSH2 0x1376 JUMP JUMPDEST PUSH2 0x274 JUMP JUMPDEST SWAP1 JUMP JUMPDEST SWAP1 PUSH2 0x3F3F PUSH2 0x3F39 PUSH2 0x3F34 PUSH2 0x3F2F PUSH1 0x0 PUSH2 0x3F44 SWAP7 PUSH2 0x3F27 PUSH2 0x12AA JUMP JUMPDEST POP ADD SWAP5 PUSH2 0x3EE4 JUMP JUMPDEST PUSH2 0x3EF0 JUMP JUMPDEST PUSH2 0x3482 JUMP JUMPDEST SWAP2 PUSH2 0x3B2B JUMP JUMPDEST PUSH2 0x4A10 JUMP JUMPDEST SWAP1 JUMP JUMPDEST PUSH2 0x3F52 DUP2 DUP4 SWAP1 PUSH2 0x2367 JUMP JUMPDEST PUSH2 0x3F5B JUMPI JUMPDEST POP POP JUMP JUMPDEST PUSH2 0x3F7D PUSH1 0x0 PUSH2 0x3F78 PUSH1 0x0 PUSH2 0x3F70 DUP2 DUP7 SWAP1 PUSH2 0x1765 JUMP JUMPDEST ADD DUP6 SWAP1 PUSH2 0x234F JUMP JUMPDEST PUSH2 0x2211 JUMP JUMPDEST SWAP1 PUSH2 0x3F86 PUSH2 0x3367 JUMP JUMPDEST SWAP1 PUSH2 0x3FC3 PUSH2 0x3FBD PUSH2 0x3FB7 PUSH32 0xF6391F5C32D9C69D2A47EA670B442974B53935D1EDC7FD64EB21E047A839171B SWAP6 PUSH2 0x1759 JUMP JUMPDEST SWAP3 PUSH2 0x21BD JUMP JUMPDEST SWAP3 PUSH2 0x21BD JUMP JUMPDEST SWAP3 PUSH2 0x3FCC PUSH2 0x1B3 JUMP JUMPDEST DUP1 PUSH2 0x3FD6 DUP2 PUSH2 0x3F2 JUMP JUMPDEST SUB SWAP1 LOG4 CODESIZE DUP1 PUSH2 0x3F57 JUMP JUMPDEST SWAP1 PUSH2 0x4013 PUSH2 0x400D PUSH2 0x4008 PUSH2 0x4003 PUSH1 0x0 PUSH2 0x4018 SWAP7 PUSH2 0x3FFB PUSH2 0x12AA JUMP JUMPDEST POP ADD SWAP5 PUSH2 0x3EE4 JUMP JUMPDEST PUSH2 0x3EF0 JUMP JUMPDEST PUSH2 0x3482 JUMP JUMPDEST SWAP2 PUSH2 0x3B2B JUMP JUMPDEST PUSH2 0x4B06 JUMP JUMPDEST SWAP1 JUMP JUMPDEST PUSH8 0xFFFFFFFFFFFFFFFF DUP2 GT PUSH2 0x4039 JUMPI PUSH2 0x4035 PUSH1 0x20 SWAP2 PUSH2 0x828 JUMP JUMPDEST ADD SWAP1 JUMP JUMPDEST PUSH2 0x832 JUMP JUMPDEST SWAP1 PUSH2 0x4050 PUSH2 0x404B DUP4 PUSH2 0x401B JUMP JUMPDEST PUSH2 0x871 JUMP JUMPDEST SWAP2 DUP3 MSTORE JUMP JUMPDEST PUSH1 0x0 PUSH32 0x5361666545524332303A206C6F772D6C6576656C2063616C6C206661696C6564 SWAP2 ADD MSTORE JUMP JUMPDEST PUSH2 0x4087 PUSH1 0x20 PUSH2 0x403E JUMP JUMPDEST SWAP1 PUSH2 0x4094 PUSH1 0x20 DUP4 ADD PUSH2 0x4055 JUMP JUMPDEST JUMP JUMPDEST PUSH2 0x409E PUSH2 0x407D JUMP JUMPDEST SWAP1 JUMP JUMPDEST PUSH2 0x40AA DUP2 PUSH2 0x217 JUMP JUMPDEST SUB PUSH2 0x40B1 JUMPI JUMP JUMPDEST PUSH1 0x0 DUP1 REVERT JUMPDEST SWAP1 POP MLOAD SWAP1 PUSH2 0x40C3 DUP3 PUSH2 0x40A1 JUMP JUMPDEST JUMP JUMPDEST SWAP1 PUSH1 0x20 DUP3 DUP3 SUB SLT PUSH2 0x40DF JUMPI PUSH2 0x40DC SWAP2 PUSH1 0x0 ADD PUSH2 0x40B6 JUMP JUMPDEST SWAP1 JUMP JUMPDEST PUSH2 0x1BE JUMP JUMPDEST PUSH1 0x20 PUSH32 0x6F74207375636365656400000000000000000000000000000000000000000000 SWAP2 PUSH32 0x5361666545524332303A204552433230206F7065726174696F6E20646964206E PUSH1 0x0 DUP3 ADD MSTORE ADD MSTORE JUMP JUMPDEST PUSH2 0x413F PUSH1 0x2A PUSH1 0x40 SWAP3 PUSH2 0x181B JUMP JUMPDEST PUSH2 0x4148 DUP2 PUSH2 0x40E4 JUMP JUMPDEST ADD SWAP1 JUMP JUMPDEST PUSH2 0x4162 SWAP1 PUSH1 0x20 DUP2 ADD SWAP1 PUSH1 0x0 DUP2 DUP4 SUB SWAP2 ADD MSTORE PUSH2 0x4132 JUMP JUMPDEST SWAP1 JUMP JUMPDEST ISZERO PUSH2 0x416C JUMPI JUMP JUMPDEST PUSH2 0x4174 PUSH2 0x1B3 JUMP JUMPDEST PUSH3 0x461BCD PUSH1 0xE5 SHL DUP2 MSTORE DUP1 PUSH2 0x418A PUSH1 0x4 DUP3 ADD PUSH2 0x414C JUMP JUMPDEST SUB SWAP1 REVERT JUMPDEST PUSH2 0x41D8 SWAP2 PUSH2 0x419E PUSH2 0x41AD SWAP3 PUSH2 0x339E JUMP JUMPDEST SWAP1 PUSH2 0x41A7 PUSH2 0x4096 JUMP JUMPDEST SWAP2 PUSH2 0x4C10 JUMP JUMPDEST PUSH2 0x41B6 DUP2 PUSH2 0x1F3F JUMP JUMPDEST PUSH2 0x41C9 PUSH2 0x41C3 PUSH1 0x0 PUSH2 0x1ABC JUMP JUMPDEST SWAP2 PUSH2 0x274 JUMP JUMPDEST EQ SWAP1 DUP2 ISZERO PUSH2 0x41DA JUMPI JUMPDEST POP PUSH2 0x4165 JUMP JUMPDEST JUMP JUMPDEST PUSH2 0x41F5 SWAP2 POP PUSH1 0x20 PUSH2 0x41EA DUP3 PUSH2 0x1F3F JUMP JUMPDEST DUP2 DUP4 ADD ADD SWAP2 ADD PUSH2 0x40C5 JUMP JUMPDEST CODESIZE PUSH2 0x41D2 JUMP JUMPDEST PUSH2 0x4203 PUSH2 0x12AA JUMP JUMPDEST POP DUP2 PUSH2 0x4218 PUSH2 0x4212 PUSH1 0x0 PUSH2 0x1ABC JUMP JUMPDEST SWAP2 PUSH2 0x274 JUMP JUMPDEST EQ SWAP1 DUP2 ISZERO PUSH2 0x424B JUMPI JUMPDEST POP SWAP1 DUP2 ISZERO PUSH2 0x422E JUMPI JUMPDEST POP SWAP1 JUMP JUMPDEST SWAP1 POP PUSH2 0x4243 PUSH2 0x423D TIMESTAMP SWAP3 PUSH2 0x274 JUMP JUMPDEST SWAP2 PUSH2 0x274 JUMP JUMPDEST LT ISZERO CODESIZE PUSH2 0x422A JUMP JUMPDEST SWAP1 POP PUSH2 0x4260 PUSH2 0x425A TIMESTAMP SWAP3 PUSH2 0x274 JUMP JUMPDEST SWAP2 PUSH2 0x274 JUMP JUMPDEST LT CODESIZE PUSH2 0x4221 JUMP JUMPDEST PUSH1 0x20 SWAP2 DUP2 MSTORE ADD SWAP1 JUMP JUMPDEST PUSH1 0x0 DUP1 REVERT JUMPDEST SWAP1 CALLDATACOPY JUMP JUMPDEST SWAP1 SWAP2 DUP3 PUSH2 0x4285 SWAP2 PUSH2 0x4267 JUMP JUMPDEST SWAP2 PUSH1 0x1 DUP1 PUSH1 0xFB SHL SUB DUP2 GT PUSH2 0x42A8 JUMPI DUP3 SWAP2 PUSH1 0x20 PUSH2 0x42A4 SWAP3 MUL SWAP4 DUP5 SWAP2 PUSH2 0x4275 JUMP JUMPDEST ADD SWAP1 JUMP JUMPDEST PUSH2 0x4270 JUMP JUMPDEST SWAP1 PUSH2 0x42DE PUSH2 0x42E9 SWAP2 PUSH2 0x42F0 SWAP7 SWAP9 SWAP8 SWAP6 PUSH1 0x60 SWAP6 PUSH2 0x42D1 PUSH1 0x80 DUP8 ADD SWAP4 PUSH1 0x0 DUP9 ADD SWAP1 PUSH2 0x549 JUMP JUMPDEST DUP6 DUP4 SUB PUSH1 0x20 DUP8 ADD MSTORE PUSH2 0x4279 JUMP JUMPDEST SWAP7 PUSH1 0x40 DUP4 ADD SWAP1 PUSH2 0x603 JUMP JUMPDEST ADD SWAP1 PUSH2 0x549 JUMP JUMPDEST JUMP JUMPDEST SWAP3 SWAP4 DUP4 PUSH2 0x4310 PUSH2 0x430A PUSH2 0x4305 PUSH1 0x0 PUSH2 0xD18 JUMP JUMPDEST PUSH2 0x2E1 JUMP JUMPDEST SWAP2 PUSH2 0x2E1 JUMP JUMPDEST SUB PUSH2 0x431D JUMPI JUMPDEST POP POP POP POP POP JUMP JUMPDEST PUSH2 0x4335 PUSH2 0x432F DUP6 DUP5 DUP7 DUP10 SWAP2 DUP7 SWAP4 PUSH2 0x284E JUMP JUMPDEST ISZERO PUSH2 0x217 JUMP JUMPDEST PUSH2 0x4365 JUMPI POP POP POP SWAP1 PUSH2 0x4356 PUSH2 0x435B SWAP3 PUSH2 0x4351 PUSH1 0x1 SWAP4 PUSH1 0x2 PUSH2 0x272C JUMP JUMPDEST PUSH2 0x2744 JUMP JUMPDEST PUSH2 0x2211 JUMP JUMPDEST CODESIZE DUP1 DUP1 DUP1 DUP1 PUSH2 0x4316 JUMP JUMPDEST DUP5 PUSH2 0x438E SWAP2 DUP6 SWAP4 SWAP5 SWAP2 SWAP1 SWAP2 PUSH2 0x4378 PUSH2 0x1B3 JUMP JUMPDEST SWAP6 DUP7 SWAP6 PUSH4 0x4CB8CD5 PUSH1 0xE3 SHL DUP8 MSTORE PUSH1 0x4 DUP8 ADD PUSH2 0x42AD JUMP JUMPDEST SUB SWAP1 REVERT JUMPDEST PUSH1 0x40 SWAP1 PUSH2 0x43BC PUSH2 0x43C3 SWAP5 SWAP7 SWAP6 SWAP4 SWAP7 PUSH2 0x43B2 PUSH1 0x60 DUP5 ADD SWAP9 PUSH1 0x0 DUP6 ADD SWAP1 PUSH2 0x603 JUMP JUMPDEST PUSH1 0x20 DUP4 ADD SWAP1 PUSH2 0x603 JUMP JUMPDEST ADD SWAP1 PUSH2 0xEC8 JUMP JUMPDEST JUMP JUMPDEST PUSH2 0x4412 SWAP4 SWAP2 PUSH2 0x43FE PUSH1 0x4 SWAP5 PUSH2 0x440D SWAP4 SWAP5 PUSH2 0x43E2 PUSH4 0x23B872DD PUSH2 0x33B3 JUMP JUMPDEST SWAP4 SWAP2 SWAP1 SWAP2 PUSH2 0x43EE PUSH2 0x1B3 JUMP JUMPDEST SWAP8 DUP9 SWAP6 PUSH1 0x20 DUP8 ADD SWAP1 DUP2 MSTORE ADD PUSH2 0x4392 JUMP JUMPDEST PUSH1 0x20 DUP3 ADD DUP2 SUB DUP3 MSTORE SUB DUP4 PUSH2 0x848 JUMP JUMPDEST PUSH2 0x418E JUMP JUMPDEST JUMP JUMPDEST SWAP1 PUSH2 0x442B PUSH2 0x4424 PUSH2 0x4432 SWAP4 PUSH2 0x158F JUMP JUMPDEST PUSH1 0x3 PUSH2 0x15C5 JUMP JUMPDEST PUSH1 0x4 PUSH2 0x1BF9 JUMP JUMPDEST JUMP JUMPDEST SLOAD SWAP1 JUMP JUMPDEST PUSH1 0x0 MSTORE PUSH1 0x20 PUSH1 0x0 KECCAK256 SWAP1 JUMP JUMPDEST PUSH2 0x444C DUP2 PUSH2 0x4434 JUMP JUMPDEST DUP3 LT ISZERO PUSH2 0x4467 JUMPI PUSH2 0x445E PUSH1 0x1 SWAP2 PUSH2 0x4438 JUMP JUMPDEST SWAP2 MUL ADD SWAP1 PUSH1 0x0 SWAP1 JUMP JUMPDEST PUSH2 0x2C7B JUMP JUMPDEST SHR SWAP1 JUMP JUMPDEST PUSH2 0x4480 SWAP1 PUSH1 0x8 PUSH2 0x4485 SWAP4 MUL PUSH2 0x446C JUMP JUMPDEST PUSH2 0x1448 JUMP JUMPDEST SWAP1 JUMP JUMPDEST SWAP1 PUSH2 0x4493 SWAP2 SLOAD PUSH2 0x4470 JUMP JUMPDEST SWAP1 JUMP JUMPDEST PUSH2 0x44B5 SWAP2 PUSH1 0x0 PUSH2 0x44AF SWAP3 PUSH2 0x44A8 PUSH2 0x1754 JUMP JUMPDEST POP ADD PUSH2 0x4443 JUMP JUMPDEST SWAP1 PUSH2 0x4488 JUMP JUMPDEST SWAP1 JUMP JUMPDEST MLOAD SWAP1 JUMP JUMPDEST SWAP1 PUSH2 0x44C6 DUP3 PUSH2 0x44B8 JUMP JUMPDEST DUP2 LT ISZERO PUSH2 0x44D7 JUMPI PUSH1 0x20 DUP1 SWAP2 MUL ADD ADD SWAP1 JUMP JUMPDEST PUSH2 0x2C7B JUMP JUMPDEST SWAP2 SWAP1 PUSH2 0x44E6 PUSH2 0x1754 JUMP JUMPDEST POP PUSH2 0x44F1 PUSH1 0x0 PUSH2 0x1ABC JUMP JUMPDEST SWAP1 JUMPDEST DUP2 PUSH2 0x450E PUSH2 0x4508 PUSH2 0x4503 DUP8 PUSH2 0x44B8 JUMP JUMPDEST PUSH2 0x274 JUMP JUMPDEST SWAP2 PUSH2 0x274 JUMP JUMPDEST LT ISZERO PUSH2 0x4540 JUMPI PUSH2 0x4534 PUSH2 0x453A SWAP2 PUSH2 0x452E PUSH2 0x4529 DUP8 DUP7 SWAP1 PUSH2 0x44BC JUMP JUMPDEST PUSH2 0x1BE0 JUMP JUMPDEST SWAP1 PUSH2 0x4C33 JUMP JUMPDEST SWAP2 PUSH2 0x2C6C JUMP JUMPDEST SWAP1 PUSH2 0x44F3 JUMP JUMPDEST SWAP2 SWAP3 POP POP SWAP1 JUMP JUMPDEST PUSH1 0x0 PUSH2 0x455C SWAP2 PUSH2 0x4555 PUSH2 0x2BA6 JUMP JUMPDEST POP ADD PUSH2 0x4434 JUMP JUMPDEST SWAP1 JUMP JUMPDEST PUSH2 0x4567 PUSH2 0x12AA JUMP JUMPDEST POP DUP1 PUSH2 0x4582 PUSH2 0x457C PUSH4 0x7965DB0B PUSH1 0xE0 SHL PUSH2 0x1C8 JUMP JUMPDEST SWAP2 PUSH2 0x1C8 JUMP JUMPDEST EQ SWAP1 DUP2 ISZERO PUSH2 0x458F JUMPI JUMPDEST POP SWAP1 JUMP JUMPDEST PUSH2 0x4599 SWAP2 POP PUSH2 0x4C73 JUMP JUMPDEST CODESIZE PUSH2 0x458B JUMP JUMPDEST PUSH1 0x60 SWAP1 JUMP JUMPDEST SWAP1 JUMP JUMPDEST PUSH1 0xFF AND SWAP1 JUMP JUMPDEST PUSH2 0x45C1 PUSH2 0x45BC PUSH2 0x45C6 SWAP3 PUSH2 0x45A4 JUMP JUMPDEST PUSH2 0x1376 JUMP JUMPDEST PUSH2 0x45A7 JUMP JUMPDEST SWAP1 JUMP JUMPDEST PUSH2 0x45D3 PUSH1 0x14 PUSH2 0x45AD JUMP JUMPDEST SWAP1 JUMP JUMPDEST PUSH2 0x45EA PUSH2 0x45E5 PUSH2 0x45EF SWAP3 PUSH2 0x45A7 JUMP JUMPDEST PUSH2 0x1376 JUMP JUMPDEST PUSH2 0x274 JUMP JUMPDEST SWAP1 JUMP JUMPDEST PUSH2 0x460F PUSH2 0x460A PUSH2 0x4625 SWAP3 PUSH2 0x4604 PUSH2 0x459F JUMP JUMPDEST POP PUSH2 0x3EE4 JUMP JUMPDEST PUSH2 0x3EF0 JUMP JUMPDEST PUSH2 0x461F PUSH2 0x461A PUSH2 0x45C9 JUMP JUMPDEST PUSH2 0x45D6 JUMP JUMPDEST SWAP1 PUSH2 0x47F0 JUMP JUMPDEST SWAP1 JUMP JUMPDEST SWAP1 JUMP JUMPDEST PUSH2 0x463F PUSH2 0x463A PUSH2 0x4644 SWAP3 PUSH2 0x4628 JUMP JUMPDEST PUSH2 0x1376 JUMP JUMPDEST PUSH2 0x274 JUMP JUMPDEST SWAP1 JUMP JUMPDEST CALLDATASIZE SWAP1 CALLDATACOPY JUMP JUMPDEST SWAP1 PUSH2 0x4671 PUSH2 0x4659 DUP4 PUSH2 0x19B7 JUMP JUMPDEST SWAP3 PUSH1 0x20 DUP1 PUSH2 0x4667 DUP7 SWAP4 PUSH2 0x927 JUMP JUMPDEST SWAP3 ADD SWAP2 SUB SWAP1 PUSH2 0x4647 JUMP JUMPDEST JUMP JUMPDEST PUSH1 0x3 PUSH1 0xFC SHL SWAP1 JUMP JUMPDEST SWAP1 PUSH2 0x4685 DUP3 PUSH2 0x1F3F JUMP JUMPDEST DUP2 LT ISZERO PUSH2 0x4697 JUMPI PUSH1 0x1 PUSH1 0x20 SWAP2 MUL ADD ADD SWAP1 JUMP JUMPDEST PUSH2 0x2C7B JUMP JUMPDEST PUSH1 0xF PUSH1 0xFB SHL SWAP1 JUMP JUMPDEST SWAP1 JUMP JUMPDEST PUSH2 0x46BB PUSH2 0x46B6 PUSH2 0x46C0 SWAP3 PUSH2 0x46A4 JUMP JUMPDEST PUSH2 0x1376 JUMP JUMPDEST PUSH2 0x274 JUMP JUMPDEST SWAP1 JUMP JUMPDEST PUSH2 0x46CC SWAP1 PUSH2 0x274 JUMP JUMPDEST PUSH1 0x0 DUP2 EQ PUSH2 0x46DB JUMPI PUSH1 0x1 SWAP1 SUB SWAP1 JUMP JUMPDEST PUSH2 0x349E JUMP JUMPDEST PUSH16 0x181899199A1A9B1B9C1CB0B131B232B3 PUSH1 0x81 SHL SWAP1 JUMP JUMPDEST PUSH2 0x46FF PUSH2 0x46E0 JUMP JUMPDEST SWAP1 JUMP JUMPDEST SWAP1 JUMP JUMPDEST PUSH2 0x4719 PUSH2 0x4714 PUSH2 0x471E SWAP3 PUSH2 0x4702 JUMP JUMPDEST PUSH2 0x1376 JUMP JUMPDEST PUSH2 0x274 JUMP JUMPDEST SWAP1 JUMP JUMPDEST PUSH1 0xF8 SHL SWAP1 JUMP JUMPDEST SWAP1 JUMP JUMPDEST PUSH2 0x473E PUSH2 0x4739 PUSH2 0x4743 SWAP3 PUSH2 0x4727 JUMP JUMPDEST PUSH2 0x1376 JUMP JUMPDEST PUSH2 0x45A7 JUMP JUMPDEST SWAP1 JUMP JUMPDEST PUSH2 0x4765 SWAP1 PUSH2 0x475F PUSH2 0x4759 PUSH2 0x476A SWAP5 PUSH2 0x45A7 JUMP JUMPDEST SWAP2 PUSH2 0x274 JUMP JUMPDEST SWAP1 PUSH2 0x446C JUMP JUMPDEST PUSH2 0x274 JUMP JUMPDEST SWAP1 JUMP JUMPDEST PUSH1 0x0 PUSH32 0x537472696E67733A20686578206C656E67746820696E73756666696369656E74 SWAP2 ADD MSTORE JUMP JUMPDEST PUSH2 0x47A1 PUSH1 0x20 DUP1 SWAP3 PUSH2 0x181B JUMP JUMPDEST PUSH2 0x47AA DUP2 PUSH2 0x476D JUMP JUMPDEST ADD SWAP1 JUMP JUMPDEST PUSH2 0x47C4 SWAP1 PUSH1 0x20 DUP2 ADD SWAP1 PUSH1 0x0 DUP2 DUP4 SUB SWAP2 ADD MSTORE PUSH2 0x4795 JUMP JUMPDEST SWAP1 JUMP JUMPDEST ISZERO PUSH2 0x47CE JUMPI JUMP JUMPDEST PUSH2 0x47D6 PUSH2 0x1B3 JUMP JUMPDEST PUSH3 0x461BCD PUSH1 0xE5 SHL DUP2 MSTORE DUP1 PUSH2 0x47EC PUSH1 0x4 DUP3 ADD PUSH2 0x47AE JUMP JUMPDEST SUB SWAP1 REVERT JUMPDEST SWAP2 SWAP1 PUSH2 0x47FA PUSH2 0x459F JUMP JUMPDEST POP PUSH2 0x4894 PUSH2 0x4884 PUSH2 0x4830 PUSH2 0x482B PUSH2 0x481B PUSH1 0x2 PUSH2 0x4816 DUP8 SWAP2 PUSH2 0x462B JUMP JUMPDEST PUSH2 0x34B4 JUMP JUMPDEST PUSH2 0x4825 PUSH1 0x2 PUSH2 0x462B JUMP JUMPDEST SWAP1 PUSH2 0x34E9 JUMP JUMPDEST PUSH2 0x464C JUMP JUMPDEST SWAP3 PUSH2 0x4839 PUSH2 0x4673 JUMP JUMPDEST PUSH2 0x4852 DUP6 PUSH2 0x484C PUSH1 0x0 SWAP4 PUSH1 0x0 BYTE SWAP4 PUSH2 0x1ABC JUMP JUMPDEST SWAP1 PUSH2 0x467B JUMP JUMPDEST MSTORE8 PUSH2 0x485B PUSH2 0x469C JUMP JUMPDEST PUSH2 0x4874 DUP6 PUSH2 0x486E PUSH1 0x1 SWAP4 PUSH1 0x0 BYTE SWAP4 PUSH2 0x46A7 JUMP JUMPDEST SWAP1 PUSH2 0x467B JUMP JUMPDEST MSTORE8 PUSH2 0x487F PUSH1 0x2 PUSH2 0x462B JUMP JUMPDEST PUSH2 0x34B4 JUMP JUMPDEST PUSH2 0x488E PUSH1 0x1 PUSH2 0x46A7 JUMP JUMPDEST SWAP1 PUSH2 0x34E9 JUMP JUMPDEST SWAP3 JUMPDEST DUP4 PUSH2 0x48AA PUSH2 0x48A4 PUSH1 0x1 PUSH2 0x46A7 JUMP JUMPDEST SWAP2 PUSH2 0x274 JUMP JUMPDEST GT ISZERO PUSH2 0x4911 JUMPI PUSH2 0x48B8 PUSH2 0x46F7 JUMP JUMPDEST DUP2 PUSH2 0x48C3 PUSH1 0xF PUSH2 0x4705 JUMP JUMPDEST AND SWAP2 PUSH1 0x10 DUP4 LT ISZERO PUSH2 0x490C JUMPI PUSH2 0x48DF PUSH2 0x4900 SWAP3 PUSH2 0x4906 SWAP5 BYTE PUSH2 0x4721 JUMP JUMPDEST PUSH2 0x48EF DUP6 SWAP2 DUP9 SWAP1 PUSH1 0x0 BYTE SWAP3 PUSH2 0x467B JUMP JUMPDEST MSTORE8 PUSH2 0x48FA PUSH1 0x4 PUSH2 0x472A JUMP JUMPDEST SWAP1 PUSH2 0x4746 JUMP JUMPDEST SWAP4 PUSH2 0x46C3 JUMP JUMPDEST SWAP3 PUSH2 0x4896 JUMP JUMPDEST PUSH2 0x2C7B JUMP JUMPDEST PUSH2 0x4939 SWAP3 SWAP4 POP PUSH2 0x4934 SWAP1 PUSH2 0x492E PUSH2 0x4928 PUSH1 0x0 PUSH2 0x1ABC JUMP JUMPDEST SWAP2 PUSH2 0x274 JUMP JUMPDEST EQ PUSH2 0x47C7 JUMP JUMPDEST PUSH2 0x3D5C JUMP JUMPDEST SWAP1 JUMP JUMPDEST SWAP1 JUMP JUMPDEST PUSH1 0x0 MSTORE PUSH1 0x20 PUSH1 0x0 KECCAK256 SWAP1 JUMP JUMPDEST SLOAD SWAP1 JUMP JUMPDEST PUSH2 0x4957 DUP2 PUSH2 0x494A JUMP JUMPDEST DUP3 LT ISZERO PUSH2 0x4972 JUMPI PUSH2 0x4969 PUSH1 0x1 SWAP2 PUSH2 0x493F JUMP JUMPDEST SWAP2 MUL ADD SWAP1 PUSH1 0x0 SWAP1 JUMP JUMPDEST PUSH2 0x2C7B JUMP JUMPDEST SHL SWAP1 JUMP JUMPDEST SWAP2 SWAP1 PUSH1 0x8 PUSH2 0x4997 SWAP2 MUL SWAP2 PUSH2 0x4991 PUSH1 0x0 NOT DUP5 PUSH2 0x4977 JUMP JUMPDEST SWAP3 PUSH2 0x4977 JUMP JUMPDEST SWAP2 DUP2 NOT AND SWAP2 AND OR SWAP1 JUMP JUMPDEST SWAP2 SWAP1 PUSH2 0x49B7 PUSH2 0x49B2 PUSH2 0x49BF SWAP4 PUSH2 0x1759 JUMP JUMPDEST PUSH2 0x1BED JUMP JUMPDEST SWAP1 DUP4 SLOAD PUSH2 0x497B JUMP JUMPDEST SWAP1 SSTORE JUMP JUMPDEST SWAP1 DUP2 SLOAD SWAP2 PUSH9 0x10000000000000000 DUP4 LT ISZERO PUSH2 0x49F3 JUMPI DUP3 PUSH2 0x49EB SWAP2 PUSH1 0x1 PUSH2 0x49F1 SWAP6 ADD DUP2 SSTORE PUSH2 0x494E JUMP JUMPDEST SWAP1 PUSH2 0x49A1 JUMP JUMPDEST JUMP JUMPDEST PUSH2 0x832 JUMP JUMPDEST SWAP1 PUSH2 0x4A02 SWAP1 PUSH2 0x1759 JUMP JUMPDEST PUSH1 0x0 MSTORE PUSH1 0x20 MSTORE PUSH1 0x40 PUSH1 0x0 KECCAK256 SWAP1 JUMP JUMPDEST PUSH2 0x4A18 PUSH2 0x12AA JUMP JUMPDEST POP PUSH2 0x4A2D PUSH2 0x4A27 DUP3 DUP5 SWAP1 PUSH2 0x4C99 JUMP JUMPDEST ISZERO PUSH2 0x217 JUMP JUMPDEST PUSH1 0x0 EQ PUSH2 0x4A70 JUMPI PUSH2 0x4A66 PUSH2 0x4A6B SWAP3 PUSH2 0x4A51 PUSH2 0x4A4A PUSH1 0x0 DUP6 ADD PUSH2 0x493C JUMP JUMPDEST DUP3 SWAP1 PUSH2 0x49C3 JUMP JUMPDEST PUSH1 0x1 PUSH2 0x4A5F PUSH1 0x0 DUP6 ADD PUSH2 0x4434 JUMP JUMPDEST SWAP4 ADD PUSH2 0x49F8 JUMP JUMPDEST PUSH2 0x1B0C JUMP JUMPDEST PUSH1 0x1 SWAP1 JUMP JUMPDEST POP POP PUSH1 0x0 SWAP1 JUMP JUMPDEST PUSH4 0x4E487B71 PUSH1 0xE0 SHL PUSH1 0x0 MSTORE PUSH1 0x31 PUSH1 0x4 MSTORE PUSH1 0x24 PUSH1 0x0 REVERT JUMPDEST PUSH2 0x4A9F SWAP2 PUSH2 0x4A99 PUSH2 0x1754 JUMP JUMPDEST SWAP2 PUSH2 0x49A1 JUMP JUMPDEST JUMP JUMPDEST PUSH2 0x4AAA DUP2 PUSH2 0x494A JUMP JUMPDEST DUP1 ISZERO PUSH2 0x4ACB JUMPI PUSH1 0x1 SWAP1 SUB SWAP1 PUSH2 0x4AC8 PUSH2 0x4AC2 DUP4 DUP4 PUSH2 0x494E JUMP JUMPDEST SWAP1 PUSH2 0x4A8D JUMP JUMPDEST SSTORE JUMP JUMPDEST PUSH2 0x4A77 JUMP JUMPDEST SWAP2 SWAP1 PUSH2 0x4AE6 PUSH2 0x4AE1 PUSH2 0x4AEE SWAP4 PUSH2 0x1379 JUMP JUMPDEST PUSH2 0x1B09 JUMP JUMPDEST SWAP1 DUP4 SLOAD PUSH2 0x497B JUMP JUMPDEST SWAP1 SSTORE JUMP JUMPDEST PUSH2 0x4B04 SWAP2 PUSH2 0x4AFE PUSH2 0x2BA6 JUMP JUMPDEST SWAP2 PUSH2 0x4AD0 JUMP JUMPDEST JUMP JUMPDEST PUSH2 0x4B0E PUSH2 0x12AA JUMP JUMPDEST POP PUSH2 0x4B25 PUSH2 0x4B20 PUSH1 0x1 DUP4 ADD DUP5 SWAP1 PUSH2 0x49F8 JUMP JUMPDEST PUSH2 0x13CA JUMP JUMPDEST SWAP1 DUP2 PUSH2 0x4B3A PUSH2 0x4B34 PUSH1 0x0 PUSH2 0x1ABC JUMP JUMPDEST SWAP2 PUSH2 0x274 JUMP JUMPDEST EQ ISZERO PUSH1 0x0 EQ PUSH2 0x4C08 JUMPI PUSH2 0x4BBA SWAP3 PUSH1 0x1 PUSH2 0x4BB5 SWAP3 DUP5 PUSH2 0x4B63 PUSH1 0x0 SWAP7 PUSH2 0x4B5D DUP6 PUSH2 0x46A7 JUMP JUMPDEST SWAP1 PUSH2 0x350E JUMP JUMPDEST PUSH2 0x4B80 PUSH2 0x4B71 DUP9 DUP6 ADD PUSH2 0x4434 JUMP JUMPDEST PUSH2 0x4B7A DUP7 PUSH2 0x46A7 JUMP JUMPDEST SWAP1 PUSH2 0x350E JUMP JUMPDEST DUP1 PUSH2 0x4B93 PUSH2 0x4B8D DUP5 PUSH2 0x274 JUMP JUMPDEST SWAP2 PUSH2 0x274 JUMP JUMPDEST SUB PUSH2 0x4BBF JUMPI JUMPDEST POP POP POP PUSH2 0x4BAF PUSH2 0x4BAA DUP7 DUP4 ADD PUSH2 0x493C JUMP JUMPDEST PUSH2 0x4AA1 JUMP JUMPDEST ADD PUSH2 0x49F8 JUMP JUMPDEST PUSH2 0x4AF2 JUMP JUMPDEST PUSH1 0x1 SWAP1 JUMP JUMPDEST PUSH2 0x4C00 SWAP3 PUSH2 0x4BF2 PUSH2 0x4BDE PUSH2 0x4BD8 PUSH2 0x4BFB SWAP5 DUP13 DUP10 ADD PUSH2 0x4443 JUMP JUMPDEST SWAP1 PUSH2 0x4488 JUMP JUMPDEST SWAP4 PUSH2 0x4BEC DUP6 SWAP2 DUP13 DUP10 ADD PUSH2 0x4443 JUMP JUMPDEST SWAP1 PUSH2 0x49A1 JUMP JUMPDEST SWAP2 DUP6 DUP6 ADD PUSH2 0x49F8 JUMP JUMPDEST PUSH2 0x1B0C JUMP JUMPDEST CODESIZE DUP1 DUP1 PUSH2 0x4B99 JUMP JUMPDEST POP POP POP PUSH1 0x0 SWAP1 JUMP JUMPDEST SWAP1 PUSH2 0x4C30 SWAP3 SWAP2 PUSH2 0x4C1E PUSH2 0x19CE JUMP JUMPDEST POP SWAP1 PUSH2 0x4C2A PUSH1 0x0 PUSH2 0x1ABC JUMP JUMPDEST SWAP2 PUSH2 0x4D85 JUMP JUMPDEST SWAP1 JUMP JUMPDEST PUSH2 0x4C3B PUSH2 0x1754 JUMP JUMPDEST POP DUP1 PUSH2 0x4C4F PUSH2 0x4C49 DUP5 PUSH2 0x2E1 JUMP JUMPDEST SWAP2 PUSH2 0x2E1 JUMP JUMPDEST LT PUSH1 0x0 EQ PUSH2 0x4C65 JUMPI SWAP1 PUSH2 0x4C61 SWAP2 PUSH2 0x4DDF JUMP JUMPDEST JUMPDEST SWAP1 JUMP JUMPDEST PUSH2 0x4C6E SWAP2 PUSH2 0x4DDF JUMP JUMPDEST PUSH2 0x4C62 JUMP JUMPDEST PUSH2 0x4C7B PUSH2 0x12AA JUMP JUMPDEST POP PUSH2 0x4C95 PUSH2 0x4C8F PUSH4 0x1FFC9A7 PUSH1 0xE0 SHL PUSH2 0x1C8 JUMP JUMPDEST SWAP2 PUSH2 0x1C8 JUMP JUMPDEST EQ SWAP1 JUMP JUMPDEST PUSH2 0x4CB7 SWAP2 PUSH1 0x1 PUSH2 0x4CB2 SWAP3 PUSH2 0x4CAB PUSH2 0x12AA JUMP JUMPDEST POP ADD PUSH2 0x49F8 JUMP JUMPDEST PUSH2 0x13CA JUMP JUMPDEST PUSH2 0x4CCA PUSH2 0x4CC4 PUSH1 0x0 PUSH2 0x1ABC JUMP JUMPDEST SWAP2 PUSH2 0x274 JUMP JUMPDEST EQ ISZERO SWAP1 JUMP JUMPDEST PUSH2 0x4CD8 SWAP1 PUSH2 0x1E95 JUMP JUMPDEST SWAP1 JUMP JUMPDEST PUSH1 0x20 PUSH32 0x722063616C6C0000000000000000000000000000000000000000000000000000 SWAP2 PUSH32 0x416464726573733A20696E73756666696369656E742062616C616E636520666F PUSH1 0x0 DUP3 ADD MSTORE ADD MSTORE JUMP JUMPDEST PUSH2 0x4D36 PUSH1 0x26 PUSH1 0x40 SWAP3 PUSH2 0x181B JUMP JUMPDEST PUSH2 0x4D3F DUP2 PUSH2 0x4CDB JUMP JUMPDEST ADD SWAP1 JUMP JUMPDEST PUSH2 0x4D59 SWAP1 PUSH1 0x20 DUP2 ADD SWAP1 PUSH1 0x0 DUP2 DUP4 SUB SWAP2 ADD MSTORE PUSH2 0x4D29 JUMP JUMPDEST SWAP1 JUMP JUMPDEST ISZERO PUSH2 0x4D63 JUMPI JUMP JUMPDEST PUSH2 0x4D6B PUSH2 0x1B3 JUMP JUMPDEST PUSH3 0x461BCD PUSH1 0xE5 SHL DUP2 MSTORE DUP1 PUSH2 0x4D81 PUSH1 0x4 DUP3 ADD PUSH2 0x4D43 JUMP JUMPDEST SUB SWAP1 REVERT JUMPDEST SWAP2 PUSH1 0x0 DUP1 SWAP2 PUSH2 0x4DDC SWAP6 SWAP4 PUSH2 0x4D97 PUSH2 0x19CE JUMP JUMPDEST POP PUSH2 0x4DBE PUSH2 0x4DA4 ADDRESS PUSH2 0x4CCF JUMP JUMPDEST BALANCE PUSH2 0x4DB7 PUSH2 0x4DB1 DUP6 PUSH2 0x274 JUMP JUMPDEST SWAP2 PUSH2 0x274 JUMP JUMPDEST LT ISZERO PUSH2 0x4D5C JUMP JUMPDEST DUP6 SWAP2 PUSH1 0x20 DUP3 ADD SWAP2 MLOAD SWAP3 GAS CALL SWAP2 PUSH2 0x4DD2 PUSH2 0x19D3 JUMP JUMPDEST SWAP1 SWAP3 SWAP1 SWAP2 SWAP3 PUSH2 0x4E7A JUMP JUMPDEST SWAP1 JUMP JUMPDEST PUSH2 0x4DE7 PUSH2 0x1754 JUMP JUMPDEST POP PUSH1 0x0 MSTORE PUSH1 0x20 MSTORE PUSH1 0x40 PUSH1 0x0 KECCAK256 SWAP1 JUMP JUMPDEST PUSH1 0x0 PUSH32 0x416464726573733A2063616C6C20746F206E6F6E2D636F6E7472616374000000 SWAP2 ADD MSTORE JUMP JUMPDEST PUSH2 0x4E2B PUSH1 0x1D PUSH1 0x20 SWAP3 PUSH2 0x181B JUMP JUMPDEST PUSH2 0x4E34 DUP2 PUSH2 0x4DF6 JUMP JUMPDEST ADD SWAP1 JUMP JUMPDEST PUSH2 0x4E4E SWAP1 PUSH1 0x20 DUP2 ADD SWAP1 PUSH1 0x0 DUP2 DUP4 SUB SWAP2 ADD MSTORE PUSH2 0x4E1E JUMP JUMPDEST SWAP1 JUMP JUMPDEST ISZERO PUSH2 0x4E58 JUMPI JUMP JUMPDEST PUSH2 0x4E60 PUSH2 0x1B3 JUMP JUMPDEST PUSH3 0x461BCD PUSH1 0xE5 SHL DUP2 MSTORE DUP1 PUSH2 0x4E76 PUSH1 0x4 DUP3 ADD PUSH2 0x4E38 JUMP JUMPDEST SUB SWAP1 REVERT JUMPDEST SWAP2 SWAP3 SWAP1 PUSH2 0x4E85 PUSH2 0x19CE JUMP JUMPDEST POP PUSH1 0x0 EQ PUSH2 0x4ECB JUMPI POP PUSH2 0x4E97 DUP3 PUSH2 0x1F3F JUMP JUMPDEST PUSH2 0x4EAA PUSH2 0x4EA4 PUSH1 0x0 PUSH2 0x1ABC JUMP JUMPDEST SWAP2 PUSH2 0x274 JUMP JUMPDEST EQ PUSH2 0x4EB4 JUMPI JUMPDEST POP SWAP1 JUMP JUMPDEST PUSH2 0x4EC0 PUSH2 0x4EC5 SWAP2 PUSH2 0x4F1F JUMP JUMPDEST PUSH2 0x4E51 JUMP JUMPDEST CODESIZE PUSH2 0x4EB0 JUMP JUMPDEST DUP3 SWAP1 PUSH2 0x4ED6 DUP3 PUSH2 0x1F3F JUMP JUMPDEST PUSH2 0x4EE9 PUSH2 0x4EE3 PUSH1 0x0 PUSH2 0x1ABC JUMP JUMPDEST SWAP2 PUSH2 0x274 JUMP JUMPDEST GT PUSH1 0x0 EQ PUSH2 0x4EFA JUMPI POP DUP1 MLOAD SWAP1 PUSH1 0x20 ADD REVERT JUMPDEST PUSH2 0x4F1B SWAP1 PUSH2 0x4F06 PUSH2 0x1B3 JUMP JUMPDEST SWAP2 DUP3 SWAP2 PUSH3 0x461BCD PUSH1 0xE5 SHL DUP4 MSTORE PUSH1 0x4 DUP4 ADD PUSH2 0x3D90 JUMP JUMPDEST SUB SWAP1 REVERT JUMPDEST PUSH2 0x4F27 PUSH2 0x12AA JUMP JUMPDEST POP EXTCODESIZE PUSH2 0x4F3C PUSH2 0x4F36 PUSH1 0x0 PUSH2 0x1ABC JUMP JUMPDEST SWAP2 PUSH2 0x274 JUMP JUMPDEST GT SWAP1 JUMP INVALID LOG2 PUSH5 0x6970667358 0x22 SLT KECCAK256 SWAP12 SGT RETURNDATASIZE CALLDATASIZE ADDRESS RETURNDATACOPY BLOBHASH STOP PUSH20 0x73F2ED22CF983ED518061B7D81D902DAA498B0E0 0xD6 0xEF JUMPI PUSH5 0x736F6C6343 STOP ADDMOD SHL STOP CALLER PUSH1 0x80 PUSH1 0x40 MSTORE CALLVALUE PUSH2 0x2F JUMPI PUSH2 0x19 PUSH2 0x14 PUSH2 0xFA JUMP JUMPDEST PUSH2 0x11B JUMP JUMPDEST PUSH2 0x21 PUSH2 0x34 JUMP JUMPDEST PUSH2 0x722 PUSH2 0x380 DUP3 CODECOPY PUSH2 0x722 SWAP1 RETURN JUMPDEST PUSH2 0x3A JUMP JUMPDEST PUSH1 0x40 MLOAD SWAP1 JUMP JUMPDEST PUSH1 0x0 DUP1 REVERT JUMPDEST PUSH1 0x1F DUP1 NOT SWAP2 ADD AND SWAP1 JUMP JUMPDEST PUSH4 0x4E487B71 PUSH1 0xE0 SHL PUSH1 0x0 MSTORE PUSH1 0x41 PUSH1 0x4 MSTORE PUSH1 0x24 PUSH1 0x0 REVERT JUMPDEST SWAP1 PUSH2 0x69 SWAP1 PUSH2 0x3F JUMP JUMPDEST DUP2 ADD SWAP1 DUP2 LT PUSH1 0x1 DUP1 PUSH1 0x40 SHL SUB DUP3 GT OR PUSH2 0x81 JUMPI PUSH1 0x40 MSTORE JUMP JUMPDEST PUSH2 0x49 JUMP JUMPDEST SWAP1 PUSH2 0x99 PUSH2 0x92 PUSH2 0x34 JUMP JUMPDEST SWAP3 DUP4 PUSH2 0x5F JUMP JUMPDEST JUMP JUMPDEST PUSH1 0x0 DUP1 REVERT JUMPDEST PUSH1 0x1 DUP1 PUSH1 0xA0 SHL SUB AND SWAP1 JUMP JUMPDEST PUSH2 0xB4 SWAP1 PUSH2 0xA0 JUMP JUMPDEST SWAP1 JUMP JUMPDEST PUSH2 0xC0 DUP2 PUSH2 0xAB JUMP JUMPDEST SUB PUSH2 0xC7 JUMPI JUMP JUMPDEST PUSH1 0x0 DUP1 REVERT JUMPDEST SWAP1 POP MLOAD SWAP1 PUSH2 0xD9 DUP3 PUSH2 0xB7 JUMP JUMPDEST JUMP JUMPDEST SWAP1 PUSH1 0x20 DUP3 DUP3 SUB SLT PUSH2 0xF5 JUMPI PUSH2 0xF2 SWAP2 PUSH1 0x0 ADD PUSH2 0xCC JUMP JUMPDEST SWAP1 JUMP JUMPDEST PUSH2 0x9B JUMP JUMPDEST PUSH2 0x118 PUSH2 0xAA2 DUP1 CODESIZE SUB DUP1 PUSH2 0x10D DUP2 PUSH2 0x86 JUMP JUMPDEST SWAP3 DUP4 CODECOPY DUP2 ADD SWAP1 PUSH2 0xDB JUMP JUMPDEST SWAP1 JUMP JUMPDEST PUSH2 0x12C SWAP1 PUSH2 0x127 PUSH2 0x12E JUMP JUMPDEST PUSH2 0x26E JUMP JUMPDEST JUMP JUMPDEST PUSH2 0x13E PUSH2 0x139 PUSH2 0x291 JUMP JUMPDEST PUSH2 0x2D6 JUMP JUMPDEST JUMP JUMPDEST PUSH1 0x20 SWAP2 DUP2 MSTORE ADD SWAP1 JUMP JUMPDEST PUSH1 0x20 PUSH32 0x6E206973206E6F74206120636F6E747261637400000000000000000000000000 SWAP2 PUSH32 0x5570677261646561626C65426561636F6E3A20696D706C656D656E746174696F PUSH1 0x0 DUP3 ADD MSTORE ADD MSTORE JUMP JUMPDEST PUSH2 0x1A4 PUSH1 0x33 PUSH1 0x40 SWAP3 PUSH2 0x140 JUMP JUMPDEST PUSH2 0x1AD DUP2 PUSH2 0x149 JUMP JUMPDEST ADD SWAP1 JUMP JUMPDEST PUSH2 0x1C7 SWAP1 PUSH1 0x20 DUP2 ADD SWAP1 PUSH1 0x0 DUP2 DUP4 SUB SWAP2 ADD MSTORE PUSH2 0x197 JUMP JUMPDEST SWAP1 JUMP JUMPDEST ISZERO PUSH2 0x1D1 JUMPI JUMP JUMPDEST PUSH2 0x1D9 PUSH2 0x34 JUMP JUMPDEST PUSH3 0x461BCD PUSH1 0xE5 SHL DUP2 MSTORE DUP1 PUSH2 0x1EF PUSH1 0x4 DUP3 ADD PUSH2 0x1B1 JUMP JUMPDEST SUB SWAP1 REVERT JUMPDEST PUSH1 0x0 SHL SWAP1 JUMP JUMPDEST SWAP1 PUSH2 0x20A PUSH1 0x1 DUP1 PUSH1 0xA0 SHL SUB SWAP2 PUSH2 0x1F3 JUMP JUMPDEST SWAP2 DUP2 NOT AND SWAP2 AND OR SWAP1 JUMP JUMPDEST SWAP1 JUMP JUMPDEST PUSH2 0x22B PUSH2 0x226 PUSH2 0x230 SWAP3 PUSH2 0xA0 JUMP JUMPDEST PUSH2 0x214 JUMP JUMPDEST PUSH2 0xA0 JUMP JUMPDEST SWAP1 JUMP JUMPDEST PUSH2 0x23C SWAP1 PUSH2 0x217 JUMP JUMPDEST SWAP1 JUMP JUMPDEST PUSH2 0x248 SWAP1 PUSH2 0x233 JUMP JUMPDEST SWAP1 JUMP JUMPDEST SWAP1 JUMP JUMPDEST SWAP1 PUSH2 0x263 PUSH2 0x25E PUSH2 0x26A SWAP3 PUSH2 0x23F JUMP JUMPDEST PUSH2 0x24B JUMP JUMPDEST DUP3 SLOAD PUSH2 0x1F9 JUMP JUMPDEST SWAP1 SSTORE JUMP JUMPDEST PUSH2 0x28A SWAP1 PUSH2 0x283 PUSH2 0x27E DUP3 PUSH2 0x35E JUMP JUMPDEST PUSH2 0x1CA JUMP JUMPDEST PUSH1 0x1 PUSH2 0x24E JUMP JUMPDEST JUMP JUMPDEST PUSH1 0x0 SWAP1 JUMP JUMPDEST PUSH2 0x299 PUSH2 0x28C JUMP JUMPDEST POP CALLER SWAP1 JUMP JUMPDEST PUSH1 0x0 SHR SWAP1 JUMP JUMPDEST PUSH1 0x1 DUP1 PUSH1 0xA0 SHL SUB AND SWAP1 JUMP JUMPDEST PUSH2 0x2BB PUSH2 0x2C0 SWAP2 PUSH2 0x29E JUMP JUMPDEST PUSH2 0x2A4 JUMP JUMPDEST SWAP1 JUMP JUMPDEST PUSH2 0x2CD SWAP1 SLOAD PUSH2 0x2AF JUMP JUMPDEST SWAP1 JUMP JUMPDEST PUSH1 0x0 ADD SWAP1 JUMP JUMPDEST PUSH2 0x2E0 PUSH1 0x0 PUSH2 0x2C3 JUMP JUMPDEST PUSH2 0x2EB DUP3 PUSH1 0x0 PUSH2 0x24E JUMP JUMPDEST SWAP1 PUSH2 0x31F PUSH2 0x319 PUSH32 0x8BE0079C531659141344CD1FD0A4F28419497F9722A3DAAFE3B4186F6B6457E0 SWAP4 PUSH2 0x23F JUMP JUMPDEST SWAP2 PUSH2 0x23F JUMP JUMPDEST SWAP2 PUSH2 0x328 PUSH2 0x34 JUMP JUMPDEST DUP1 PUSH2 0x332 DUP2 PUSH2 0x2D0 JUMP JUMPDEST SUB SWAP1 LOG3 JUMP JUMPDEST PUSH1 0x0 SWAP1 JUMP JUMPDEST SWAP1 JUMP JUMPDEST SWAP1 JUMP JUMPDEST PUSH2 0x356 PUSH2 0x351 PUSH2 0x35B SWAP3 PUSH2 0x33F JUMP JUMPDEST PUSH2 0x214 JUMP JUMPDEST PUSH2 0x33C JUMP JUMPDEST SWAP1 JUMP JUMPDEST PUSH2 0x366 PUSH2 0x337 JUMP JUMPDEST POP EXTCODESIZE PUSH2 0x37B PUSH2 0x375 PUSH1 0x0 PUSH2 0x342 JUMP JUMPDEST SWAP2 PUSH2 0x33C JUMP JUMPDEST GT SWAP1 JUMP INVALID PUSH1 0x80 PUSH1 0x40 MSTORE PUSH1 0x4 CALLDATASIZE LT ISZERO PUSH2 0x13 JUMPI JUMPDEST PUSH2 0x219 JUMP JUMPDEST PUSH2 0x1E PUSH1 0x0 CALLDATALOAD PUSH2 0x6D JUMP JUMPDEST DUP1 PUSH4 0x3659CFE6 EQ PUSH2 0x68 JUMPI DUP1 PUSH4 0x5C60DA1B EQ PUSH2 0x63 JUMPI DUP1 PUSH4 0x715018A6 EQ PUSH2 0x5E JUMPI DUP1 PUSH4 0x8DA5CB5B EQ PUSH2 0x59 JUMPI PUSH4 0xF2FDE38B SUB PUSH2 0xE JUMPI PUSH2 0x1E6 JUMP JUMPDEST PUSH2 0x1B1 JUMP JUMPDEST PUSH2 0x17E JUMP JUMPDEST PUSH2 0x149 JUMP JUMPDEST PUSH2 0xE3 JUMP JUMPDEST PUSH1 0xE0 SHR SWAP1 JUMP JUMPDEST PUSH1 0x40 MLOAD SWAP1 JUMP JUMPDEST PUSH1 0x0 DUP1 REVERT JUMPDEST PUSH1 0x0 DUP1 REVERT JUMPDEST PUSH1 0x1 DUP1 PUSH1 0xA0 SHL SUB AND SWAP1 JUMP JUMPDEST PUSH2 0x97 SWAP1 PUSH2 0x83 JUMP JUMPDEST SWAP1 JUMP JUMPDEST PUSH2 0xA3 DUP2 PUSH2 0x8E JUMP JUMPDEST SUB PUSH2 0xAA JUMPI JUMP JUMPDEST PUSH1 0x0 DUP1 REVERT JUMPDEST SWAP1 POP CALLDATALOAD SWAP1 PUSH2 0xBC DUP3 PUSH2 0x9A JUMP JUMPDEST JUMP JUMPDEST SWAP1 PUSH1 0x20 DUP3 DUP3 SUB SLT PUSH2 0xD8 JUMPI PUSH2 0xD5 SWAP2 PUSH1 0x0 ADD PUSH2 0xAF JUMP JUMPDEST SWAP1 JUMP JUMPDEST PUSH2 0x7E JUMP JUMPDEST PUSH1 0x0 ADD SWAP1 JUMP JUMPDEST CALLVALUE PUSH2 0x111 JUMPI PUSH2 0xFB PUSH2 0xF6 CALLDATASIZE PUSH1 0x4 PUSH2 0xBE JUMP JUMPDEST PUSH2 0x2B3 JUMP JUMPDEST PUSH2 0x103 PUSH2 0x73 JUMP JUMPDEST DUP1 PUSH2 0x10D DUP2 PUSH2 0xDD JUMP JUMPDEST SUB SWAP1 RETURN JUMPDEST PUSH2 0x79 JUMP JUMPDEST PUSH1 0x0 SWAP2 SUB SLT PUSH2 0x121 JUMPI JUMP JUMPDEST PUSH2 0x7E JUMP JUMPDEST PUSH2 0x12F SWAP1 PUSH2 0x8E JUMP JUMPDEST SWAP1 MSTORE JUMP JUMPDEST SWAP2 SWAP1 PUSH2 0x147 SWAP1 PUSH1 0x0 PUSH1 0x20 DUP6 ADD SWAP5 ADD SWAP1 PUSH2 0x126 JUMP JUMPDEST JUMP JUMPDEST CALLVALUE PUSH2 0x179 JUMPI PUSH2 0x159 CALLDATASIZE PUSH1 0x4 PUSH2 0x116 JUMP JUMPDEST PUSH2 0x175 PUSH2 0x164 PUSH2 0x2F5 JUMP JUMPDEST PUSH2 0x16C PUSH2 0x73 JUMP JUMPDEST SWAP2 DUP3 SWAP2 DUP3 PUSH2 0x133 JUMP JUMPDEST SUB SWAP1 RETURN JUMPDEST PUSH2 0x79 JUMP JUMPDEST CALLVALUE PUSH2 0x1AC JUMPI PUSH2 0x18E CALLDATASIZE PUSH1 0x4 PUSH2 0x116 JUMP JUMPDEST PUSH2 0x196 PUSH2 0x35C JUMP JUMPDEST PUSH2 0x19E PUSH2 0x73 JUMP JUMPDEST DUP1 PUSH2 0x1A8 DUP2 PUSH2 0xDD JUMP JUMPDEST SUB SWAP1 RETURN JUMPDEST PUSH2 0x79 JUMP JUMPDEST CALLVALUE PUSH2 0x1E1 JUMPI PUSH2 0x1C1 CALLDATASIZE PUSH1 0x4 PUSH2 0x116 JUMP JUMPDEST PUSH2 0x1DD PUSH2 0x1CC PUSH2 0x366 JUMP JUMPDEST PUSH2 0x1D4 PUSH2 0x73 JUMP JUMPDEST SWAP2 DUP3 SWAP2 DUP3 PUSH2 0x133 JUMP JUMPDEST SUB SWAP1 RETURN JUMPDEST PUSH2 0x79 JUMP JUMPDEST CALLVALUE PUSH2 0x214 JUMPI PUSH2 0x1FE PUSH2 0x1F9 CALLDATASIZE PUSH1 0x4 PUSH2 0xBE JUMP JUMPDEST PUSH2 0x473 JUMP JUMPDEST PUSH2 0x206 PUSH2 0x73 JUMP JUMPDEST DUP1 PUSH2 0x210 DUP2 PUSH2 0xDD JUMP JUMPDEST SUB SWAP1 RETURN JUMPDEST PUSH2 0x79 JUMP JUMPDEST PUSH1 0x0 DUP1 REVERT JUMPDEST PUSH2 0x22F SWAP1 PUSH2 0x22A PUSH2 0x501 JUMP JUMPDEST PUSH2 0x268 JUMP JUMPDEST JUMP JUMPDEST SWAP1 JUMP JUMPDEST PUSH2 0x248 PUSH2 0x243 PUSH2 0x24D SWAP3 PUSH2 0x83 JUMP JUMPDEST PUSH2 0x231 JUMP JUMPDEST PUSH2 0x83 JUMP JUMPDEST SWAP1 JUMP JUMPDEST PUSH2 0x259 SWAP1 PUSH2 0x234 JUMP JUMPDEST SWAP1 JUMP JUMPDEST PUSH2 0x265 SWAP1 PUSH2 0x250 JUMP JUMPDEST SWAP1 JUMP JUMPDEST PUSH2 0x271 DUP2 PUSH2 0x61B JUMP JUMPDEST PUSH2 0x29B PUSH32 0xBC7CD75A20EE27FD9ADEBAB32041F755214DBC6BFFA90CC0225B39DA2E5C2D3B SWAP2 PUSH2 0x25C JUMP JUMPDEST SWAP1 PUSH2 0x2A4 PUSH2 0x73 JUMP JUMPDEST DUP1 PUSH2 0x2AE DUP2 PUSH2 0xDD JUMP JUMPDEST SUB SWAP1 LOG2 JUMP JUMPDEST PUSH2 0x2BC SWAP1 PUSH2 0x21E JUMP JUMPDEST JUMP JUMPDEST PUSH1 0x0 SWAP1 JUMP JUMPDEST PUSH1 0x0 SHR SWAP1 JUMP JUMPDEST PUSH1 0x1 DUP1 PUSH1 0xA0 SHL SUB AND SWAP1 JUMP JUMPDEST PUSH2 0x2E0 PUSH2 0x2E5 SWAP2 PUSH2 0x2C3 JUMP JUMPDEST PUSH2 0x2C9 JUMP JUMPDEST SWAP1 JUMP JUMPDEST PUSH2 0x2F2 SWAP1 SLOAD PUSH2 0x2D4 JUMP JUMPDEST SWAP1 JUMP JUMPDEST PUSH2 0x2FD PUSH2 0x2BE JUMP JUMPDEST POP PUSH2 0x308 PUSH1 0x1 PUSH2 0x2E8 JUMP JUMPDEST SWAP1 JUMP JUMPDEST PUSH2 0x313 PUSH2 0x501 JUMP JUMPDEST PUSH2 0x31B PUSH2 0x348 JUMP JUMPDEST JUMP JUMPDEST SWAP1 JUMP JUMPDEST PUSH2 0x334 PUSH2 0x32F PUSH2 0x339 SWAP3 PUSH2 0x31D JUMP JUMPDEST PUSH2 0x231 JUMP JUMPDEST PUSH2 0x83 JUMP JUMPDEST SWAP1 JUMP JUMPDEST PUSH2 0x345 SWAP1 PUSH2 0x320 JUMP JUMPDEST SWAP1 JUMP JUMPDEST PUSH2 0x35A PUSH2 0x355 PUSH1 0x0 PUSH2 0x33C JUMP JUMPDEST PUSH2 0x639 JUMP JUMPDEST JUMP JUMPDEST PUSH2 0x364 PUSH2 0x30B JUMP JUMPDEST JUMP JUMPDEST PUSH2 0x36E PUSH2 0x2BE JUMP JUMPDEST POP PUSH2 0x379 PUSH1 0x0 PUSH2 0x2E8 JUMP JUMPDEST SWAP1 JUMP JUMPDEST PUSH2 0x38D SWAP1 PUSH2 0x388 PUSH2 0x501 JUMP JUMPDEST PUSH2 0x442 JUMP JUMPDEST JUMP JUMPDEST PUSH1 0x20 SWAP2 DUP2 MSTORE ADD SWAP1 JUMP JUMPDEST PUSH1 0x20 PUSH32 0x6464726573730000000000000000000000000000000000000000000000000000 SWAP2 PUSH32 0x4F776E61626C653A206E6577206F776E657220697320746865207A65726F2061 PUSH1 0x0 DUP3 ADD MSTORE ADD MSTORE JUMP JUMPDEST PUSH2 0x3F3 PUSH1 0x26 PUSH1 0x40 SWAP3 PUSH2 0x38F JUMP JUMPDEST PUSH2 0x3FC DUP2 PUSH2 0x398 JUMP JUMPDEST ADD SWAP1 JUMP JUMPDEST PUSH2 0x416 SWAP1 PUSH1 0x20 DUP2 ADD SWAP1 PUSH1 0x0 DUP2 DUP4 SUB SWAP2 ADD MSTORE PUSH2 0x3E6 JUMP JUMPDEST SWAP1 JUMP JUMPDEST ISZERO PUSH2 0x420 JUMPI JUMP JUMPDEST PUSH2 0x428 PUSH2 0x73 JUMP JUMPDEST PUSH3 0x461BCD PUSH1 0xE5 SHL DUP2 MSTORE DUP1 PUSH2 0x43E PUSH1 0x4 DUP3 ADD PUSH2 0x400 JUMP JUMPDEST SUB SWAP1 REVERT JUMPDEST PUSH2 0x471 SWAP1 PUSH2 0x46C DUP2 PUSH2 0x465 PUSH2 0x45F PUSH2 0x45A PUSH1 0x0 PUSH2 0x33C JUMP JUMPDEST PUSH2 0x8E JUMP JUMPDEST SWAP2 PUSH2 0x8E JUMP JUMPDEST EQ ISZERO PUSH2 0x419 JUMP JUMPDEST PUSH2 0x639 JUMP JUMPDEST JUMP JUMPDEST PUSH2 0x47C SWAP1 PUSH2 0x37C JUMP JUMPDEST JUMP JUMPDEST PUSH1 0x0 PUSH32 0x4F776E61626C653A2063616C6C6572206973206E6F7420746865206F776E6572 SWAP2 ADD MSTORE JUMP JUMPDEST PUSH2 0x4B2 PUSH1 0x20 DUP1 SWAP3 PUSH2 0x38F JUMP JUMPDEST PUSH2 0x4BB DUP2 PUSH2 0x47E JUMP JUMPDEST ADD SWAP1 JUMP JUMPDEST PUSH2 0x4D5 SWAP1 PUSH1 0x20 DUP2 ADD SWAP1 PUSH1 0x0 DUP2 DUP4 SUB SWAP2 ADD MSTORE PUSH2 0x4A6 JUMP JUMPDEST SWAP1 JUMP JUMPDEST ISZERO PUSH2 0x4DF JUMPI JUMP JUMPDEST PUSH2 0x4E7 PUSH2 0x73 JUMP JUMPDEST PUSH3 0x461BCD PUSH1 0xE5 SHL DUP2 MSTORE DUP1 PUSH2 0x4FD PUSH1 0x4 DUP3 ADD PUSH2 0x4BF JUMP JUMPDEST SUB SWAP1 REVERT JUMPDEST PUSH2 0x52B PUSH2 0x50C PUSH2 0x366 JUMP JUMPDEST PUSH2 0x525 PUSH2 0x51F PUSH2 0x51A PUSH2 0x69A JUMP JUMPDEST PUSH2 0x8E JUMP JUMPDEST SWAP2 PUSH2 0x8E JUMP JUMPDEST EQ PUSH2 0x4D8 JUMP JUMPDEST JUMP JUMPDEST PUSH1 0x20 PUSH32 0x6E206973206E6F74206120636F6E747261637400000000000000000000000000 SWAP2 PUSH32 0x5570677261646561626C65426561636F6E3A20696D706C656D656E746174696F PUSH1 0x0 DUP3 ADD MSTORE ADD MSTORE JUMP JUMPDEST PUSH2 0x588 PUSH1 0x33 PUSH1 0x40 SWAP3 PUSH2 0x38F JUMP JUMPDEST PUSH2 0x591 DUP2 PUSH2 0x52D JUMP JUMPDEST ADD SWAP1 JUMP JUMPDEST PUSH2 0x5AB SWAP1 PUSH1 0x20 DUP2 ADD SWAP1 PUSH1 0x0 DUP2 DUP4 SUB SWAP2 ADD MSTORE PUSH2 0x57B JUMP JUMPDEST SWAP1 JUMP JUMPDEST ISZERO PUSH2 0x5B5 JUMPI JUMP JUMPDEST PUSH2 0x5BD PUSH2 0x73 JUMP JUMPDEST PUSH3 0x461BCD PUSH1 0xE5 SHL DUP2 MSTORE DUP1 PUSH2 0x5D3 PUSH1 0x4 DUP3 ADD PUSH2 0x595 JUMP JUMPDEST SUB SWAP1 REVERT JUMPDEST PUSH1 0x0 SHL SWAP1 JUMP JUMPDEST SWAP1 PUSH2 0x5EE PUSH1 0x1 DUP1 PUSH1 0xA0 SHL SUB SWAP2 PUSH2 0x5D7 JUMP JUMPDEST SWAP2 DUP2 NOT AND SWAP2 AND OR SWAP1 JUMP JUMPDEST SWAP1 JUMP JUMPDEST SWAP1 PUSH2 0x610 PUSH2 0x60B PUSH2 0x617 SWAP3 PUSH2 0x25C JUMP JUMPDEST PUSH2 0x5F8 JUMP JUMPDEST DUP3 SLOAD PUSH2 0x5DD JUMP JUMPDEST SWAP1 SSTORE JUMP JUMPDEST PUSH2 0x637 SWAP1 PUSH2 0x630 PUSH2 0x62B DUP3 PUSH2 0x6CB JUMP JUMPDEST PUSH2 0x5AE JUMP JUMPDEST PUSH1 0x1 PUSH2 0x5FB JUMP JUMPDEST JUMP JUMPDEST PUSH2 0x643 PUSH1 0x0 PUSH2 0x2E8 JUMP JUMPDEST PUSH2 0x64E DUP3 PUSH1 0x0 PUSH2 0x5FB JUMP JUMPDEST SWAP1 PUSH2 0x682 PUSH2 0x67C PUSH32 0x8BE0079C531659141344CD1FD0A4F28419497F9722A3DAAFE3B4186F6B6457E0 SWAP4 PUSH2 0x25C JUMP JUMPDEST SWAP2 PUSH2 0x25C JUMP JUMPDEST SWAP2 PUSH2 0x68B PUSH2 0x73 JUMP JUMPDEST DUP1 PUSH2 0x695 DUP2 PUSH2 0xDD JUMP JUMPDEST SUB SWAP1 LOG3 JUMP JUMPDEST PUSH2 0x6A2 PUSH2 0x2BE JUMP JUMPDEST POP CALLER SWAP1 JUMP JUMPDEST PUSH1 0x0 SWAP1 JUMP JUMPDEST SWAP1 JUMP JUMPDEST PUSH2 0x6C3 PUSH2 0x6BE PUSH2 0x6C8 SWAP3 PUSH2 0x31D JUMP JUMPDEST PUSH2 0x231 JUMP JUMPDEST PUSH2 0x6AC JUMP JUMPDEST SWAP1 JUMP JUMPDEST PUSH2 0x6D3 PUSH2 0x6A7 JUMP JUMPDEST POP EXTCODESIZE PUSH2 0x6E8 PUSH2 0x6E2 PUSH1 0x0 PUSH2 0x6AF JUMP JUMPDEST SWAP2 PUSH2 0x6AC JUMP JUMPDEST GT SWAP1 JUMP INVALID LOG2 PUSH5 0x6970667358 0x22 SLT KECCAK256 EXTCODEHASH 0xBF SWAP5 0xB3 0xAA XOR 0x2E PUSH18 0x20F7EE578F52EECCE106FBE2A323E7E4F151 SAR SWAP16 0x27 PUSH23 0x8EAD64736F6C634300081B003300000000000000000000 "
        },
        "methodIdentifiers": {
          "beacon()": "59659e90",
          "deploy(uint256,address,address,address,address,bytes32)": "69b3934d",
          "determineAddress(uint256,address,address,address,address,bytes32)": "1a4b671d",
          "owner()": "8da5cb5b",
          "renounceOwnership()": "715018a6",
          "transferOwnership(address)": "f2fde38b",
          "upgradeBeacon(address)": "1bce4583"
        }
      },
      "userdoc": {
        "events": {
          "ERC1155SaleDeployed(address)": {
            "notice": "Event emitted when a new ERC-1155 Sale proxy contract is deployed."
          }
        },
        "kind": "user",
        "methods": {
          "constructor": {
            "notice": "Creates an ERC-1155 Sale Factory."
          },
          "deploy(uint256,address,address,address,address,bytes32)": {
            "notice": "Creates an ERC-1155 Sale proxy contractThe deployed contract must be granted the MINTER_ROLE on the ERC-1155 Items contract."
          },
          "determineAddress(uint256,address,address,address,address,bytes32)": {
            "notice": "Computes the address of a proxy instance."
          },
          "upgradeBeacon(address)": {
            "notice": "Upgrades the beacon implementation."
          }
        },
        "notice": "Deployer of ERC-1155 Sale proxies.",
        "version": 1
      }
    }
  }
}