{
	"node_modules/@0xsequence/erc-1155/contracts/tokens/ERC1155/ERC1155Metadata.sol": {
		"ERC1155Metadata": {
			"abi": [
				{
					"inputs": [
						{
							"internalType": "string",
							"name": "_name",
							"type": "string"
						},
						{
							"internalType": "string",
							"name": "_baseURI",
							"type": "string"
						}
					],
					"stateMutability": "nonpayable",
					"type": "constructor"
				},
				{
					"anonymous": false,
					"inputs": [
						{
							"indexed": false,
							"internalType": "string",
							"name": "_uri",
							"type": "string"
						},
						{
							"indexed": true,
							"internalType": "uint256",
							"name": "_id",
							"type": "uint256"
						}
					],
					"name": "URI",
					"type": "event"
				},
				{
					"inputs": [],
					"name": "baseURI",
					"outputs": [
						{
							"internalType": "string",
							"name": "",
							"type": "string"
						}
					],
					"stateMutability": "view",
					"type": "function"
				},
				{
					"inputs": [],
					"name": "name",
					"outputs": [
						{
							"internalType": "string",
							"name": "",
							"type": "string"
						}
					],
					"stateMutability": "view",
					"type": "function"
				},
				{
					"inputs": [
						{
							"internalType": "bytes4",
							"name": "_interfaceID",
							"type": "bytes4"
						}
					],
					"name": "supportsInterface",
					"outputs": [
						{
							"internalType": "bool",
							"name": "",
							"type": "bool"
						}
					],
					"stateMutability": "view",
					"type": "function"
				},
				{
					"inputs": [
						{
							"internalType": "uint256",
							"name": "_id",
							"type": "uint256"
						}
					],
					"name": "uri",
					"outputs": [
						{
							"internalType": "string",
							"name": "",
							"type": "string"
						}
					],
					"stateMutability": "view",
					"type": "function"
				}
			],
			"devdoc": {
				"details": "Methods assume a deterministic generation of URI based on token IDs.      Methods also assume that URI uses hex representation of token IDs.",
				"kind": "dev",
				"methods": {
					"supportsInterface(bytes4)": {
						"params": {
							"_interfaceID": "The interface identifier, as specified in ERC-165"
						},
						"returns": {
							"_0": "`true` if the contract implements `_interfaceID` and"
						}
					},
					"uri(uint256)": {
						"details": "URIs are defined in RFC 3986.      URIs are assumed to be deterministically generated based on token ID",
						"returns": {
							"_0": "URI string"
						}
					}
				},
				"version": 1
			},
			"evm": {
				"bytecode": {
					"linkReferences": {},
					"object": "608060405234620003095762000ba6803803806200001d816200030e565b928339810190604081830312620003095780516001600160401b0391908281116200030957836200005091830162000334565b906020938482015184811162000309576200006c920162000334565b8151938385116200021e576001948554938685811c95168015620002fe575b83861014620001fd578190601f95868111620002a8575b508390868311600114620002405760009262000234575b5050600019600383901b1c191690861b1785555b81519384116200021e576000548581811c9116801562000213575b82821014620001fd57838111620001b2575b50809284116001146200014657509282939183926000946200013a575b50501b916000199060031b1c1916176000555b6040516107ff9081620003a78239f35b01519250388062000117565b919083601f1981166000805284600020946000905b888383106200019757505050106200017d575b505050811b016000556200012a565b015160001960f88460031b161c191690553880806200016e565b8587015188559096019594850194879350908101906200015b565b60008052816000208480870160051c820192848810620001f3575b0160051c019086905b828110620001e6575050620000fa565b60008155018690620001d6565b92508192620001cd565b634e487b7160e01b600052602260045260246000fd5b90607f1690620000e8565b634e487b7160e01b600052604160045260246000fd5b015190503880620000b9565b90889350601f1983169184600052856000209260005b8782821062000291575050841162000277575b505050811b018555620000cd565b015160001960f88460031b161c1916905538808062000269565b8385015186558c9790950194938401930162000256565b90915087600052836000208680850160051c820192868610620002f4575b918a91869594930160051c01915b828110620002e4575050620000a2565b600081558594508a9101620002d4565b92508192620002c6565b94607f16946200008b565b600080fd5b6040519190601f01601f191682016001600160401b038111838210176200021e57604052565b919080601f84011215620003095782516001600160401b0381116200021e576020906200036a601f8201601f191683016200030e565b92818452828287010111620003095760005b8181106200039257508260009394955001015290565b85810183015184820184015282016200037c56fe60806040818152600436101561001457600080fd5b600091823560e01c90816301ffc9a7146103995750806306fdde03146102d45780630e89341c1461016b57636c0360eb1461004e57600080fd5b3461016757817ffffffffffffffffffffffffffffffffffffffffffffffffffffffffffffffffc3601126101675780519082805461008b81610409565b8085529160019180831690811561012157506001146100c5575b5050506100b7826100c194038361045c565b51918291826104ef565b0390f35b80809650527f290decd9548b62a8d60345a988386fc84ba6bc95484008f6362f93160ef3e5635b828610610109575050506100b78260206100c195820101946100a5565b805460208787018101919091529095019481016100ec565b6100c19750869350602092506100b79491507fffffffffffffffffffffffffffffffffffffffffffffffffffffffffffffff001682840152151560051b820101946100a5565b5080fd5b5090346102d157602091827ffffffffffffffffffffffffffffffffffffffffffffffffffffffffffffffffc360112610167576101a96004356105e7565b91815192818054906101ba82610409565b916001908181169081156102955750600114610240575b505050836100c195836101ef846100b79660059651948592016104cc565b017f2e6a736f6e0000000000000000000000000000000000000000000000000000008152037fffffffffffffffffffffffffffffffffffffffffffffffffffffffffffffffe581018552018361045c565b90808093949550527f290decd9548b62a8d60345a988386fc84ba6bc95484008f6362f93160ef3e5635b838310610282575050508301840190838560056101d1565b805487840189015291870191810161026a565b7fffffffffffffffffffffffffffffffffffffffffffffffffffffffffffffff0016888a015250505080151502840185019150838560056101d1565b80fd5b503461016757817ffffffffffffffffffffffffffffffffffffffffffffffffffffffffffffffffc3601126101675780519082600180549161031583610409565b80865292828116908115610121575060011461033d575050506100b7826100c194038361045c565b94508085527fb10e2d527612073b26eecdfd717e6a320cf44b4afac2b0732d9fcbe2b7fa0cf65b828610610381575050506100b78260206100c195820101946100a5565b80546020878701810191909152909501948101610364565b8390346101675760207ffffffffffffffffffffffffffffffffffffffffffffffffffffffffffffffffc36011261016757600435917fffffffff00000000000000000000000000000000000000000000000000000000831683036102d15750610403602092610539565b15158152f35b90600182811c92168015610452575b602083101461042357565b7f4e487b7100000000000000000000000000000000000000000000000000000000600052602260045260246000fd5b91607f1691610418565b90601f7fffffffffffffffffffffffffffffffffffffffffffffffffffffffffffffffe0910116810190811067ffffffffffffffff82111761049d57604052565b7f4e487b7100000000000000000000000000000000000000000000000000000000600052604160045260246000fd5b60005b8381106104df5750506000910152565b81810151838201526020016104cf565b7fffffffffffffffffffffffffffffffffffffffffffffffffffffffffffffffe0601f6040936020845261053281518092816020880152602088880191016104cc565b0116010190565b7fffffffff00000000000000000000000000000000000000000000000000000000167f0e89341c0000000000000000000000000000000000000000000000000000000081146105a7577f01ffc9a7000000000000000000000000000000000000000000000000000000001490565b50600190565b67ffffffffffffffff811161049d57601f017fffffffffffffffffffffffffffffffffffffffffffffffffffffffffffffffe01660200190565b801561077e5780816000925b6107485750610601826105ad565b9161060f604051938461045c565b808352817fffffffffffffffffffffffffffffffffffffffffffffffffffffffffffffffe061063d836105ad565b01916020923684870137925b6106535750505090565b7fffffffffffffffffffffffffffffffffffffffffffffffffffffffffffffffff83019283116107195782600a91828104928084029084820414841517156107195781039081116107195760ff8091166030019081116107195785518210156106ea5760f81b7fff000000000000000000000000000000000000000000000000000000000000001660001a90850183015380610649565b7f4e487b7100000000000000000000000000000000000000000000000000000000600052603260045260246000fd5b7f4e487b7100000000000000000000000000000000000000000000000000000000600052601160045260246000fd5b917fffffffffffffffffffffffffffffffffffffffffffffffffffffffffffffffff8114610719576001600a91019204806105f3565b506040516040810181811067ffffffffffffffff82111761049d57604052600181527f300000000000000000000000000000000000000000000000000000000000000060208201529056fea264697066735822122054d3fd70e7544b41060c05277e47c3b0549d842bee9a43286c5f1b7d73c5282164736f6c63430008130033",
					"opcodes": "PUSH1 0x80 PUSH1 0x40 MSTORE CALLVALUE PUSH3 0x309 JUMPI PUSH3 0xBA6 DUP1 CODESIZE SUB DUP1 PUSH3 0x1D DUP2 PUSH3 0x30E JUMP JUMPDEST SWAP3 DUP4 CODECOPY DUP2 ADD SWAP1 PUSH1 0x40 DUP2 DUP4 SUB SLT PUSH3 0x309 JUMPI DUP1 MLOAD PUSH1 0x1 PUSH1 0x1 PUSH1 0x40 SHL SUB SWAP2 SWAP1 DUP3 DUP2 GT PUSH3 0x309 JUMPI DUP4 PUSH3 0x50 SWAP2 DUP4 ADD PUSH3 0x334 JUMP JUMPDEST SWAP1 PUSH1 0x20 SWAP4 DUP5 DUP3 ADD MLOAD DUP5 DUP2 GT PUSH3 0x309 JUMPI PUSH3 0x6C SWAP3 ADD PUSH3 0x334 JUMP JUMPDEST DUP2 MLOAD SWAP4 DUP4 DUP6 GT PUSH3 0x21E JUMPI PUSH1 0x1 SWAP5 DUP6 SLOAD SWAP4 DUP7 DUP6 DUP2 SHR SWAP6 AND DUP1 ISZERO PUSH3 0x2FE JUMPI JUMPDEST DUP4 DUP7 LT EQ PUSH3 0x1FD JUMPI DUP2 SWAP1 PUSH1 0x1F SWAP6 DUP7 DUP2 GT PUSH3 0x2A8 JUMPI JUMPDEST POP DUP4 SWAP1 DUP7 DUP4 GT PUSH1 0x1 EQ PUSH3 0x240 JUMPI PUSH1 0x0 SWAP3 PUSH3 0x234 JUMPI JUMPDEST POP POP PUSH1 0x0 NOT PUSH1 0x3 DUP4 SWAP1 SHL SHR NOT AND SWAP1 DUP7 SHL OR DUP6 SSTORE JUMPDEST DUP2 MLOAD SWAP4 DUP5 GT PUSH3 0x21E JUMPI PUSH1 0x0 SLOAD DUP6 DUP2 DUP2 SHR SWAP2 AND DUP1 ISZERO PUSH3 0x213 JUMPI JUMPDEST DUP3 DUP3 LT EQ PUSH3 0x1FD JUMPI DUP4 DUP2 GT PUSH3 0x1B2 JUMPI JUMPDEST POP DUP1 SWAP3 DUP5 GT PUSH1 0x1 EQ PUSH3 0x146 JUMPI POP SWAP3 DUP3 SWAP4 SWAP2 DUP4 SWAP3 PUSH1 0x0 SWAP5 PUSH3 0x13A JUMPI JUMPDEST POP POP SHL SWAP2 PUSH1 0x0 NOT SWAP1 PUSH1 0x3 SHL SHR NOT AND OR PUSH1 0x0 SSTORE JUMPDEST PUSH1 0x40 MLOAD PUSH2 0x7FF SWAP1 DUP2 PUSH3 0x3A7 DUP3 CODECOPY RETURN JUMPDEST ADD MLOAD SWAP3 POP CODESIZE DUP1 PUSH3 0x117 JUMP JUMPDEST SWAP2 SWAP1 DUP4 PUSH1 0x1F NOT DUP2 AND PUSH1 0x0 DUP1 MSTORE DUP5 PUSH1 0x0 KECCAK256 SWAP5 PUSH1 0x0 SWAP1 JUMPDEST DUP9 DUP4 DUP4 LT PUSH3 0x197 JUMPI POP POP POP LT PUSH3 0x17D JUMPI JUMPDEST POP POP POP DUP2 SHL ADD PUSH1 0x0 SSTORE PUSH3 0x12A JUMP JUMPDEST ADD MLOAD PUSH1 0x0 NOT PUSH1 0xF8 DUP5 PUSH1 0x3 SHL AND SHR NOT AND SWAP1 SSTORE CODESIZE DUP1 DUP1 PUSH3 0x16E JUMP JUMPDEST DUP6 DUP8 ADD MLOAD DUP9 SSTORE SWAP1 SWAP7 ADD SWAP6 SWAP5 DUP6 ADD SWAP5 DUP8 SWAP4 POP SWAP1 DUP2 ADD SWAP1 PUSH3 0x15B JUMP JUMPDEST PUSH1 0x0 DUP1 MSTORE DUP2 PUSH1 0x0 KECCAK256 DUP5 DUP1 DUP8 ADD PUSH1 0x5 SHR DUP3 ADD SWAP3 DUP5 DUP9 LT PUSH3 0x1F3 JUMPI JUMPDEST ADD PUSH1 0x5 SHR ADD SWAP1 DUP7 SWAP1 JUMPDEST DUP3 DUP2 LT PUSH3 0x1E6 JUMPI POP POP PUSH3 0xFA JUMP JUMPDEST PUSH1 0x0 DUP2 SSTORE ADD DUP7 SWAP1 PUSH3 0x1D6 JUMP JUMPDEST SWAP3 POP DUP2 SWAP3 PUSH3 0x1CD JUMP JUMPDEST PUSH4 0x4E487B71 PUSH1 0xE0 SHL PUSH1 0x0 MSTORE PUSH1 0x22 PUSH1 0x4 MSTORE PUSH1 0x24 PUSH1 0x0 REVERT JUMPDEST SWAP1 PUSH1 0x7F AND SWAP1 PUSH3 0xE8 JUMP JUMPDEST PUSH4 0x4E487B71 PUSH1 0xE0 SHL PUSH1 0x0 MSTORE PUSH1 0x41 PUSH1 0x4 MSTORE PUSH1 0x24 PUSH1 0x0 REVERT JUMPDEST ADD MLOAD SWAP1 POP CODESIZE DUP1 PUSH3 0xB9 JUMP JUMPDEST SWAP1 DUP9 SWAP4 POP PUSH1 0x1F NOT DUP4 AND SWAP2 DUP5 PUSH1 0x0 MSTORE DUP6 PUSH1 0x0 KECCAK256 SWAP3 PUSH1 0x0 JUMPDEST DUP8 DUP3 DUP3 LT PUSH3 0x291 JUMPI POP POP DUP5 GT PUSH3 0x277 JUMPI JUMPDEST POP POP POP DUP2 SHL ADD DUP6 SSTORE PUSH3 0xCD JUMP JUMPDEST ADD MLOAD PUSH1 0x0 NOT PUSH1 0xF8 DUP5 PUSH1 0x3 SHL AND SHR NOT AND SWAP1 SSTORE CODESIZE DUP1 DUP1 PUSH3 0x269 JUMP JUMPDEST DUP4 DUP6 ADD MLOAD DUP7 SSTORE DUP13 SWAP8 SWAP1 SWAP6 ADD SWAP5 SWAP4 DUP5 ADD SWAP4 ADD PUSH3 0x256 JUMP JUMPDEST SWAP1 SWAP2 POP DUP8 PUSH1 0x0 MSTORE DUP4 PUSH1 0x0 KECCAK256 DUP7 DUP1 DUP6 ADD PUSH1 0x5 SHR DUP3 ADD SWAP3 DUP7 DUP7 LT PUSH3 0x2F4 JUMPI JUMPDEST SWAP2 DUP11 SWAP2 DUP7 SWAP6 SWAP5 SWAP4 ADD PUSH1 0x5 SHR ADD SWAP2 JUMPDEST DUP3 DUP2 LT PUSH3 0x2E4 JUMPI POP POP PUSH3 0xA2 JUMP JUMPDEST PUSH1 0x0 DUP2 SSTORE DUP6 SWAP5 POP DUP11 SWAP2 ADD PUSH3 0x2D4 JUMP JUMPDEST SWAP3 POP DUP2 SWAP3 PUSH3 0x2C6 JUMP JUMPDEST SWAP5 PUSH1 0x7F AND SWAP5 PUSH3 0x8B JUMP JUMPDEST PUSH1 0x0 DUP1 REVERT JUMPDEST PUSH1 0x40 MLOAD SWAP2 SWAP1 PUSH1 0x1F ADD PUSH1 0x1F NOT AND DUP3 ADD PUSH1 0x1 PUSH1 0x1 PUSH1 0x40 SHL SUB DUP2 GT DUP4 DUP3 LT OR PUSH3 0x21E JUMPI PUSH1 0x40 MSTORE JUMP JUMPDEST SWAP2 SWAP1 DUP1 PUSH1 0x1F DUP5 ADD SLT ISZERO PUSH3 0x309 JUMPI DUP3 MLOAD PUSH1 0x1 PUSH1 0x1 PUSH1 0x40 SHL SUB DUP2 GT PUSH3 0x21E JUMPI PUSH1 0x20 SWAP1 PUSH3 0x36A PUSH1 0x1F DUP3 ADD PUSH1 0x1F NOT AND DUP4 ADD PUSH3 0x30E JUMP JUMPDEST SWAP3 DUP2 DUP5 MSTORE DUP3 DUP3 DUP8 ADD ADD GT PUSH3 0x309 JUMPI PUSH1 0x0 JUMPDEST DUP2 DUP2 LT PUSH3 0x392 JUMPI POP DUP3 PUSH1 0x0 SWAP4 SWAP5 SWAP6 POP ADD ADD MSTORE SWAP1 JUMP JUMPDEST DUP6 DUP2 ADD DUP4 ADD MLOAD DUP5 DUP3 ADD DUP5 ADD MSTORE DUP3 ADD PUSH3 0x37C JUMP INVALID PUSH1 0x80 PUSH1 0x40 DUP2 DUP2 MSTORE PUSH1 0x4 CALLDATASIZE LT ISZERO PUSH2 0x14 JUMPI PUSH1 0x0 DUP1 REVERT JUMPDEST PUSH1 0x0 SWAP2 DUP3 CALLDATALOAD PUSH1 0xE0 SHR SWAP1 DUP2 PUSH4 0x1FFC9A7 EQ PUSH2 0x399 JUMPI POP DUP1 PUSH4 0x6FDDE03 EQ PUSH2 0x2D4 JUMPI DUP1 PUSH4 0xE89341C EQ PUSH2 0x16B JUMPI PUSH4 0x6C0360EB EQ PUSH2 0x4E JUMPI PUSH1 0x0 DUP1 REVERT JUMPDEST CALLVALUE PUSH2 0x167 JUMPI DUP2 PUSH32 0xFFFFFFFFFFFFFFFFFFFFFFFFFFFFFFFFFFFFFFFFFFFFFFFFFFFFFFFFFFFFFFFC CALLDATASIZE ADD SLT PUSH2 0x167 JUMPI DUP1 MLOAD SWAP1 DUP3 DUP1 SLOAD PUSH2 0x8B DUP2 PUSH2 0x409 JUMP JUMPDEST DUP1 DUP6 MSTORE SWAP2 PUSH1 0x1 SWAP2 DUP1 DUP4 AND SWAP1 DUP2 ISZERO PUSH2 0x121 JUMPI POP PUSH1 0x1 EQ PUSH2 0xC5 JUMPI JUMPDEST POP POP POP PUSH2 0xB7 DUP3 PUSH2 0xC1 SWAP5 SUB DUP4 PUSH2 0x45C JUMP JUMPDEST MLOAD SWAP2 DUP3 SWAP2 DUP3 PUSH2 0x4EF JUMP JUMPDEST SUB SWAP1 RETURN JUMPDEST DUP1 DUP1 SWAP7 POP MSTORE PUSH32 0x290DECD9548B62A8D60345A988386FC84BA6BC95484008F6362F93160EF3E563 JUMPDEST DUP3 DUP7 LT PUSH2 0x109 JUMPI POP POP POP PUSH2 0xB7 DUP3 PUSH1 0x20 PUSH2 0xC1 SWAP6 DUP3 ADD ADD SWAP5 PUSH2 0xA5 JUMP JUMPDEST DUP1 SLOAD PUSH1 0x20 DUP8 DUP8 ADD DUP2 ADD SWAP2 SWAP1 SWAP2 MSTORE SWAP1 SWAP6 ADD SWAP5 DUP2 ADD PUSH2 0xEC JUMP JUMPDEST PUSH2 0xC1 SWAP8 POP DUP7 SWAP4 POP PUSH1 0x20 SWAP3 POP PUSH2 0xB7 SWAP5 SWAP2 POP PUSH32 0xFFFFFFFFFFFFFFFFFFFFFFFFFFFFFFFFFFFFFFFFFFFFFFFFFFFFFFFFFFFFFF00 AND DUP3 DUP5 ADD MSTORE ISZERO ISZERO PUSH1 0x5 SHL DUP3 ADD ADD SWAP5 PUSH2 0xA5 JUMP JUMPDEST POP DUP1 REVERT JUMPDEST POP SWAP1 CALLVALUE PUSH2 0x2D1 JUMPI PUSH1 0x20 SWAP2 DUP3 PUSH32 0xFFFFFFFFFFFFFFFFFFFFFFFFFFFFFFFFFFFFFFFFFFFFFFFFFFFFFFFFFFFFFFFC CALLDATASIZE ADD SLT PUSH2 0x167 JUMPI PUSH2 0x1A9 PUSH1 0x4 CALLDATALOAD PUSH2 0x5E7 JUMP JUMPDEST SWAP2 DUP2 MLOAD SWAP3 DUP2 DUP1 SLOAD SWAP1 PUSH2 0x1BA DUP3 PUSH2 0x409 JUMP JUMPDEST SWAP2 PUSH1 0x1 SWAP1 DUP2 DUP2 AND SWAP1 DUP2 ISZERO PUSH2 0x295 JUMPI POP PUSH1 0x1 EQ PUSH2 0x240 JUMPI JUMPDEST POP POP POP DUP4 PUSH2 0xC1 SWAP6 DUP4 PUSH2 0x1EF DUP5 PUSH2 0xB7 SWAP7 PUSH1 0x5 SWAP7 MLOAD SWAP5 DUP6 SWAP3 ADD PUSH2 0x4CC JUMP JUMPDEST ADD PUSH32 0x2E6A736F6E000000000000000000000000000000000000000000000000000000 DUP2 MSTORE SUB PUSH32 0xFFFFFFFFFFFFFFFFFFFFFFFFFFFFFFFFFFFFFFFFFFFFFFFFFFFFFFFFFFFFFFE5 DUP2 ADD DUP6 MSTORE ADD DUP4 PUSH2 0x45C JUMP JUMPDEST SWAP1 DUP1 DUP1 SWAP4 SWAP5 SWAP6 POP MSTORE PUSH32 0x290DECD9548B62A8D60345A988386FC84BA6BC95484008F6362F93160EF3E563 JUMPDEST DUP4 DUP4 LT PUSH2 0x282 JUMPI POP POP POP DUP4 ADD DUP5 ADD SWAP1 DUP4 DUP6 PUSH1 0x5 PUSH2 0x1D1 JUMP JUMPDEST DUP1 SLOAD DUP8 DUP5 ADD DUP10 ADD MSTORE SWAP2 DUP8 ADD SWAP2 DUP2 ADD PUSH2 0x26A JUMP JUMPDEST PUSH32 0xFFFFFFFFFFFFFFFFFFFFFFFFFFFFFFFFFFFFFFFFFFFFFFFFFFFFFFFFFFFFFF00 AND DUP9 DUP11 ADD MSTORE POP POP POP DUP1 ISZERO ISZERO MUL DUP5 ADD DUP6 ADD SWAP2 POP DUP4 DUP6 PUSH1 0x5 PUSH2 0x1D1 JUMP JUMPDEST DUP1 REVERT JUMPDEST POP CALLVALUE PUSH2 0x167 JUMPI DUP2 PUSH32 0xFFFFFFFFFFFFFFFFFFFFFFFFFFFFFFFFFFFFFFFFFFFFFFFFFFFFFFFFFFFFFFFC CALLDATASIZE ADD SLT PUSH2 0x167 JUMPI DUP1 MLOAD SWAP1 DUP3 PUSH1 0x1 DUP1 SLOAD SWAP2 PUSH2 0x315 DUP4 PUSH2 0x409 JUMP JUMPDEST DUP1 DUP7 MSTORE SWAP3 DUP3 DUP2 AND SWAP1 DUP2 ISZERO PUSH2 0x121 JUMPI POP PUSH1 0x1 EQ PUSH2 0x33D JUMPI POP POP POP PUSH2 0xB7 DUP3 PUSH2 0xC1 SWAP5 SUB DUP4 PUSH2 0x45C JUMP JUMPDEST SWAP5 POP DUP1 DUP6 MSTORE PUSH32 0xB10E2D527612073B26EECDFD717E6A320CF44B4AFAC2B0732D9FCBE2B7FA0CF6 JUMPDEST DUP3 DUP7 LT PUSH2 0x381 JUMPI POP POP POP PUSH2 0xB7 DUP3 PUSH1 0x20 PUSH2 0xC1 SWAP6 DUP3 ADD ADD SWAP5 PUSH2 0xA5 JUMP JUMPDEST DUP1 SLOAD PUSH1 0x20 DUP8 DUP8 ADD DUP2 ADD SWAP2 SWAP1 SWAP2 MSTORE SWAP1 SWAP6 ADD SWAP5 DUP2 ADD PUSH2 0x364 JUMP JUMPDEST DUP4 SWAP1 CALLVALUE PUSH2 0x167 JUMPI PUSH1 0x20 PUSH32 0xFFFFFFFFFFFFFFFFFFFFFFFFFFFFFFFFFFFFFFFFFFFFFFFFFFFFFFFFFFFFFFFC CALLDATASIZE ADD SLT PUSH2 0x167 JUMPI PUSH1 0x4 CALLDATALOAD SWAP2 PUSH32 0xFFFFFFFF00000000000000000000000000000000000000000000000000000000 DUP4 AND DUP4 SUB PUSH2 0x2D1 JUMPI POP PUSH2 0x403 PUSH1 0x20 SWAP3 PUSH2 0x539 JUMP JUMPDEST ISZERO ISZERO DUP2 MSTORE RETURN JUMPDEST SWAP1 PUSH1 0x1 DUP3 DUP2 SHR SWAP3 AND DUP1 ISZERO PUSH2 0x452 JUMPI JUMPDEST PUSH1 0x20 DUP4 LT EQ PUSH2 0x423 JUMPI JUMP JUMPDEST PUSH32 0x4E487B7100000000000000000000000000000000000000000000000000000000 PUSH1 0x0 MSTORE PUSH1 0x22 PUSH1 0x4 MSTORE PUSH1 0x24 PUSH1 0x0 REVERT JUMPDEST SWAP2 PUSH1 0x7F AND SWAP2 PUSH2 0x418 JUMP JUMPDEST SWAP1 PUSH1 0x1F PUSH32 0xFFFFFFFFFFFFFFFFFFFFFFFFFFFFFFFFFFFFFFFFFFFFFFFFFFFFFFFFFFFFFFE0 SWAP2 ADD AND DUP2 ADD SWAP1 DUP2 LT PUSH8 0xFFFFFFFFFFFFFFFF DUP3 GT OR PUSH2 0x49D JUMPI PUSH1 0x40 MSTORE JUMP JUMPDEST PUSH32 0x4E487B7100000000000000000000000000000000000000000000000000000000 PUSH1 0x0 MSTORE PUSH1 0x41 PUSH1 0x4 MSTORE PUSH1 0x24 PUSH1 0x0 REVERT JUMPDEST PUSH1 0x0 JUMPDEST DUP4 DUP2 LT PUSH2 0x4DF JUMPI POP POP PUSH1 0x0 SWAP2 ADD MSTORE JUMP JUMPDEST DUP2 DUP2 ADD MLOAD DUP4 DUP3 ADD MSTORE PUSH1 0x20 ADD PUSH2 0x4CF JUMP JUMPDEST PUSH32 0xFFFFFFFFFFFFFFFFFFFFFFFFFFFFFFFFFFFFFFFFFFFFFFFFFFFFFFFFFFFFFFE0 PUSH1 0x1F PUSH1 0x40 SWAP4 PUSH1 0x20 DUP5 MSTORE PUSH2 0x532 DUP2 MLOAD DUP1 SWAP3 DUP2 PUSH1 0x20 DUP9 ADD MSTORE PUSH1 0x20 DUP9 DUP9 ADD SWAP2 ADD PUSH2 0x4CC JUMP JUMPDEST ADD AND ADD ADD SWAP1 JUMP JUMPDEST PUSH32 0xFFFFFFFF00000000000000000000000000000000000000000000000000000000 AND PUSH32 0xE89341C00000000000000000000000000000000000000000000000000000000 DUP2 EQ PUSH2 0x5A7 JUMPI PUSH32 0x1FFC9A700000000000000000000000000000000000000000000000000000000 EQ SWAP1 JUMP JUMPDEST POP PUSH1 0x1 SWAP1 JUMP JUMPDEST PUSH8 0xFFFFFFFFFFFFFFFF DUP2 GT PUSH2 0x49D JUMPI PUSH1 0x1F ADD PUSH32 0xFFFFFFFFFFFFFFFFFFFFFFFFFFFFFFFFFFFFFFFFFFFFFFFFFFFFFFFFFFFFFFE0 AND PUSH1 0x20 ADD SWAP1 JUMP JUMPDEST DUP1 ISZERO PUSH2 0x77E JUMPI DUP1 DUP2 PUSH1 0x0 SWAP3 JUMPDEST PUSH2 0x748 JUMPI POP PUSH2 0x601 DUP3 PUSH2 0x5AD JUMP JUMPDEST SWAP2 PUSH2 0x60F PUSH1 0x40 MLOAD SWAP4 DUP5 PUSH2 0x45C JUMP JUMPDEST DUP1 DUP4 MSTORE DUP2 PUSH32 0xFFFFFFFFFFFFFFFFFFFFFFFFFFFFFFFFFFFFFFFFFFFFFFFFFFFFFFFFFFFFFFE0 PUSH2 0x63D DUP4 PUSH2 0x5AD JUMP JUMPDEST ADD SWAP2 PUSH1 0x20 SWAP3 CALLDATASIZE DUP5 DUP8 ADD CALLDATACOPY SWAP3 JUMPDEST PUSH2 0x653 JUMPI POP POP POP SWAP1 JUMP JUMPDEST PUSH32 0xFFFFFFFFFFFFFFFFFFFFFFFFFFFFFFFFFFFFFFFFFFFFFFFFFFFFFFFFFFFFFFFF DUP4 ADD SWAP3 DUP4 GT PUSH2 0x719 JUMPI DUP3 PUSH1 0xA SWAP2 DUP3 DUP2 DIV SWAP3 DUP1 DUP5 MUL SWAP1 DUP5 DUP3 DIV EQ DUP5 ISZERO OR ISZERO PUSH2 0x719 JUMPI DUP2 SUB SWAP1 DUP2 GT PUSH2 0x719 JUMPI PUSH1 0xFF DUP1 SWAP2 AND PUSH1 0x30 ADD SWAP1 DUP2 GT PUSH2 0x719 JUMPI DUP6 MLOAD DUP3 LT ISZERO PUSH2 0x6EA JUMPI PUSH1 0xF8 SHL PUSH32 0xFF00000000000000000000000000000000000000000000000000000000000000 AND PUSH1 0x0 BYTE SWAP1 DUP6 ADD DUP4 ADD MSTORE8 DUP1 PUSH2 0x649 JUMP JUMPDEST PUSH32 0x4E487B7100000000000000000000000000000000000000000000000000000000 PUSH1 0x0 MSTORE PUSH1 0x32 PUSH1 0x4 MSTORE PUSH1 0x24 PUSH1 0x0 REVERT JUMPDEST PUSH32 0x4E487B7100000000000000000000000000000000000000000000000000000000 PUSH1 0x0 MSTORE PUSH1 0x11 PUSH1 0x4 MSTORE PUSH1 0x24 PUSH1 0x0 REVERT JUMPDEST SWAP2 PUSH32 0xFFFFFFFFFFFFFFFFFFFFFFFFFFFFFFFFFFFFFFFFFFFFFFFFFFFFFFFFFFFFFFFF DUP2 EQ PUSH2 0x719 JUMPI PUSH1 0x1 PUSH1 0xA SWAP2 ADD SWAP3 DIV DUP1 PUSH2 0x5F3 JUMP JUMPDEST POP PUSH1 0x40 MLOAD PUSH1 0x40 DUP2 ADD DUP2 DUP2 LT PUSH8 0xFFFFFFFFFFFFFFFF DUP3 GT OR PUSH2 0x49D JUMPI PUSH1 0x40 MSTORE PUSH1 0x1 DUP2 MSTORE PUSH32 0x3000000000000000000000000000000000000000000000000000000000000000 PUSH1 0x20 DUP3 ADD MSTORE SWAP1 JUMP INVALID LOG2 PUSH5 0x6970667358 0x22 SLT KECCAK256 SLOAD 0xD3 REVERT PUSH17 0xE7544B41060C05277E47C3B0549D842BEE SWAP11 NUMBER 0x28 PUSH13 0x5F1B7D73C5282164736F6C6343 STOP ADDMOD SGT STOP CALLER "
				}
			},
			"userdoc": {
				"kind": "user",
				"methods": {
					"supportsInterface(bytes4)": {
						"notice": "Query if a contract implements an interface"
					},
					"uri(uint256)": {
						"notice": "A distinct Uniform Resource Identifier (URI) for a given token."
					}
				},
				"notice": "Contract that handles metadata related methods.",
				"version": 1
			}
		}
	}
}