{
  "src/tokens/ERC1155/presets/items/ERC1155ItemsFactory.sol": {
    "ERC1155ItemsFactory": {
      "abi": [
        {
          "inputs": [
            {
              "internalType": "address",
              "name": "factoryOwner",
              "type": "address"
            }
          ],
          "stateMutability": "nonpayable",
          "type": "constructor"
        },
        {
          "anonymous": false,
          "inputs": [
            {
              "indexed": false,
              "internalType": "address",
              "name": "proxyAddr",
              "type": "address"
            }
          ],
          "name": "ERC1155ItemsDeployed",
          "type": "event"
        },
        {
          "anonymous": false,
          "inputs": [
            {
              "indexed": true,
              "internalType": "address",
              "name": "previousOwner",
              "type": "address"
            },
            {
              "indexed": true,
              "internalType": "address",
              "name": "newOwner",
              "type": "address"
            }
          ],
          "name": "OwnershipTransferred",
          "type": "event"
        },
        {
          "inputs": [],
          "name": "beacon",
          "outputs": [
            {
              "internalType": "contract UpgradeableBeacon",
              "name": "",
              "type": "address"
            }
          ],
          "stateMutability": "view",
          "type": "function"
        },
        {
          "inputs": [
            {
              "internalType": "address",
              "name": "proxyOwner",
              "type": "address"
            },
            {
              "internalType": "address",
              "name": "tokenOwner",
              "type": "address"
            },
            {
              "internalType": "string",
              "name": "name",
              "type": "string"
            },
            {
              "internalType": "string",
              "name": "baseURI",
              "type": "string"
            },
            {
              "internalType": "string",
              "name": "contractURI",
              "type": "string"
            },
            {
              "internalType": "address",
              "name": "royaltyReceiver",
              "type": "address"
            },
            {
              "internalType": "uint96",
              "name": "royaltyFeeNumerator",
              "type": "uint96"
            },
            {
              "internalType": "address",
              "name": "implicitModeValidator",
              "type": "address"
            },
            {
              "internalType": "bytes32",
              "name": "implicitModeProjectId",
              "type": "bytes32"
            }
          ],
          "name": "deploy",
          "outputs": [
            {
              "internalType": "address",
              "name": "proxyAddr",
              "type": "address"
            }
          ],
          "stateMutability": "nonpayable",
          "type": "function"
        },
        {
          "inputs": [
            {
              "internalType": "address",
              "name": "proxyOwner",
              "type": "address"
            },
            {
              "internalType": "address",
              "name": "tokenOwner",
              "type": "address"
            },
            {
              "internalType": "string",
              "name": "name",
              "type": "string"
            },
            {
              "internalType": "string",
              "name": "baseURI",
              "type": "string"
            },
            {
              "internalType": "string",
              "name": "contractURI",
              "type": "string"
            },
            {
              "internalType": "address",
              "name": "royaltyReceiver",
              "type": "address"
            },
            {
              "internalType": "uint96",
              "name": "royaltyFeeNumerator",
              "type": "uint96"
            },
            {
              "internalType": "address",
              "name": "implicitModeValidator",
              "type": "address"
            },
            {
              "internalType": "bytes32",
              "name": "implicitModeProjectId",
              "type": "bytes32"
            }
          ],
          "name": "determineAddress",
          "outputs": [
            {
              "internalType": "address",
              "name": "proxyAddr",
              "type": "address"
            }
          ],
          "stateMutability": "view",
          "type": "function"
        },
        {
          "inputs": [],
          "name": "owner",
          "outputs": [
            {
              "internalType": "address",
              "name": "",
              "type": "address"
            }
          ],
          "stateMutability": "view",
          "type": "function"
        },
        {
          "inputs": [],
          "name": "renounceOwnership",
          "outputs": [],
          "stateMutability": "nonpayable",
          "type": "function"
        },
        {
          "inputs": [
            {
              "internalType": "address",
              "name": "newOwner",
              "type": "address"
            }
          ],
          "name": "transferOwnership",
          "outputs": [],
          "stateMutability": "nonpayable",
          "type": "function"
        },
        {
          "inputs": [
            {
              "internalType": "address",
              "name": "implementation",
              "type": "address"
            }
          ],
          "name": "upgradeBeacon",
          "outputs": [],
          "stateMutability": "nonpayable",
          "type": "function"
        }
      ],
      "devdoc": {
        "events": {
          "ERC1155ItemsDeployed(address)": {
            "params": {
              "proxyAddr": "The address of the deployed proxy."
            }
          }
        },
        "kind": "dev",
        "methods": {
          "constructor": {
            "params": {
              "factoryOwner": "The owner of the ERC-1155 Items Factory"
            }
          },
          "deploy(address,address,string,string,string,address,uint96,address,bytes32)": {
            "params": {
              "baseURI": "The base URI of the ERC-1155 Items proxy",
              "contractURI": "The contract URI of the ERC-1155 Items proxy",
              "implicitModeProjectId": "The implicit mode project id",
              "implicitModeValidator": "The implicit mode validator address",
              "name": "The name of the ERC-1155 Items proxy",
              "proxyOwner": "The owner of the ERC-1155 Items proxy",
              "royaltyFeeNumerator": "The royalty fee numerator in basis points (e.g. 15% would be 1500)",
              "royaltyReceiver": "Address of who should be sent the royalty payment",
              "tokenOwner": "The owner of the ERC-1155 Items implementation"
            },
            "returns": {
              "proxyAddr": "The address of the ERC-1155 Items Proxy"
            }
          },
          "determineAddress(address,address,string,string,string,address,uint96,address,bytes32)": {
            "params": {
              "baseURI": "The base URI of the ERC-1155 Items proxy",
              "contractURI": "The contract URI of the ERC-1155 Items proxy",
              "implicitModeProjectId": "The implicit mode project id",
              "implicitModeValidator": "The implicit mode validator address",
              "name": "The name of the ERC-1155 Items proxy",
              "proxyOwner": "The owner of the ERC-1155 Items proxy",
              "royaltyFeeNumerator": "The royalty fee numerator in basis points (e.g. 15% would be 1500)",
              "royaltyReceiver": "Address of who should be sent the royalty payment",
              "tokenOwner": "The owner of the ERC-1155 Items implementation"
            },
            "returns": {
              "proxyAddr": "The address of the ERC-1155 Items Proxy"
            }
          },
          "owner()": {
            "details": "Returns the address of the current owner."
          },
          "renounceOwnership()": {
            "details": "Leaves the contract without owner. It will not be possible to call `onlyOwner` functions. Can only be called by the current owner. NOTE: Renouncing ownership will leave the contract without an owner, thereby disabling any functionality that is only available to the owner."
          },
          "transferOwnership(address)": {
            "details": "Transfers ownership of the contract to a new account (`newOwner`). Can only be called by the current owner."
          },
          "upgradeBeacon(address)": {
            "params": {
              "implementation": "The new beacon implementation."
            }
          }
        },
        "version": 1
      },
      "evm": {
        "bytecode": {
          "linkReferences": {},
          "object": "60806040523461002f576100196100146100fa565b610169565b610021610034565b61271a610397823961271a90f35b61003a565b60405190565b600080fd5b601f801991011690565b634e487b7160e01b600052604160045260246000fd5b906100699061003f565b810190811060018060401b0382111761008157604052565b610049565b90610099610092610034565b928361005f565b565b600080fd5b60018060a01b031690565b6100b4906100a0565b90565b6100c0816100ab565b036100c757565b600080fd5b905051906100d9826100b7565b565b906020828203126100f5576100f2916000016100cc565b90565b61009b565b61011861811a8038038061010d81610086565b9283398101906100db565b90565b60000190565b610129610034565b3d6000823e3d90fd5b90565b61014961014461014e926100a0565b610132565b6100a0565b90565b61015a90610135565b90565b61016690610151565b90565b6101716101ca565b610179610034565b614bc7810181811060018060401b038211176101c5576101a18291614bc7612ab1843961011b565b03906000f09081156101c0576101b96101be9261015d565b610265565b565b610121565b610049565b6101d26101d4565b565b6101e46101df6102c7565b610335565b565b6101ef906100ab565b9052565b9190610207906000602085019401906101e6565b565b60001b90565b9061022060018060a01b0391610209565b9181191691161790565b61023390610135565b90565b61023f9061022a565b90565b90565b9061025a61025561026192610236565b610242565b825461020f565b9055565b61026d610034565b90610aa2820182811060018060401b038211176102bd57829161029791610aa261767885396101f3565b03906000f09081156102b8576102b16102b6926001610245565b610335565b565b610121565b610049565b600090565b6102cf6102c2565b503390565b60001c90565b60018060a01b031690565b6102f16102f6916102d4565b6102da565b90565b61030390546102e5565b90565b61030f90610151565b90565b90565b9061032a61032561033192610306565b610312565b825461020f565b9055565b61033f60006102f9565b61034a826000610315565b9061037e6103787f8be0079c531659141344cd1fd0a4f28419497f9722a3daafe3b4186f6b6457e093610306565b91610306565b91610387610034565b806103918161011b565b0390a356fe60806040526004361015610013575b610580565b61001e60003561008d565b80631bce45831461008857806359659e901461008357806359a347bd1461007e578063715018a6146100795780638da5cb5b14610074578063cfcc59411461006f5763f2fde38b0361000e5761054d565b61050e565b6104d9565b6104a6565b610467565b6101ea565b610108565b60e01c90565b60405190565b600080fd5b600080fd5b600080fd5b60018060a01b031690565b6100bc906100a8565b90565b6100c8816100b3565b036100cf57565b600080fd5b905035906100e1826100bf565b565b906020828203126100fd576100fa916000016100d4565b90565b61009e565b60000190565b346101365761012061011b3660046100e3565b61067e565b610128610093565b8061013281610102565b0390f35b610099565b600091031261014657565b61009e565b1c90565b60018060a01b031690565b61016a90600861016f930261014b565b61014f565b90565b9061017d915461015a565b90565b61018d6001600090610172565b90565b90565b6101a76101a26101ac926100a8565b610190565b6100a8565b90565b6101b890610193565b90565b6101c4906101af565b90565b6101d0906101bb565b9052565b91906101e8906000602085019401906101c7565b565b3461021a576101fa36600461013b565b610216610205610180565b61020d610093565b918291826101d4565b0390f35b610099565b600080fd5b600080fd5b601f801991011690565b634e487b7160e01b600052604160045260246000fd5b9061025390610229565b810190811067ffffffffffffffff82111761026d57604052565b610233565b9061028561027e610093565b9283610249565b565b67ffffffffffffffff81116102a5576102a1602091610229565b0190565b610233565b90826000939282370152565b909291926102cb6102c682610287565b610272565b938185526020850190828401116102e7576102e5926102aa565b565b610224565b9080601f8301121561030a57816020610307933591016102b6565b90565b61021f565b6bffffffffffffffffffffffff1690565b6103298161030f565b0361033057565b600080fd5b9050359061034282610320565b565b90565b61035081610344565b0361035757565b600080fd5b9050359061036982610347565b565b90916101208284031261043f5761038583600084016100d4565b9261039381602085016100d4565b92604081013567ffffffffffffffff811161043a57826103b49183016102ec565b92606082013567ffffffffffffffff811161043557836103d59184016102ec565b92608083013567ffffffffffffffff811161043057816103f69185016102ec565b926104048260a083016100d4565b9261042d6104158460c08501610335565b936104238160e086016100d4565b936101000161035c565b90565b6100a3565b6100a3565b6100a3565b61009e565b61044d906100b3565b9052565b919061046590600060208501940190610444565b565b346104a15761049d61048c61047d36600461036b565b979690969591959492946107ee565b610494610093565b91829182610451565b0390f35b610099565b346104d4576104b636600461013b565b6104be610985565b6104c6610093565b806104d081610102565b0390f35b610099565b34610509576104e936600461013b565b6105056104f46109bb565b6104fc610093565b91829182610451565b0390f35b610099565b346105485761054461053361052436600461036b565b979690969591959492946109d1565b61053b610093565b91829182610451565b0390f35b610099565b3461057b576105656105603660046100e3565b610b2a565b61056d610093565b8061057781610102565b0390f35b610099565b600080fd5b61059690610591610bb8565b6105eb565b565b60001c90565b6105aa6105af91610598565b61014f565b90565b6105bc905461059e565b90565b600080fd5b60e01b90565b60009103126105d557565b61009e565b6105e2610093565b3d6000823e3d90fd5b6105fd6105f860016105b2565b6101bb565b90633659cfe690823b15610679576106359261062a6000809461061e610093565b968795869485936105c4565b835260048301610451565b03925af1801561067457610647575b50565b6106679060003d811161066d575b61065f8183610249565b8101906105ca565b38610644565b503d610655565b6105da565b6105bf565b61068790610585565b565b600090565b5190565b60209181520190565b60005b8381106106af575050906000910152565b80602091830151818501520161069e565b6106df6106e86020936106ed936106d68161068e565b93848093610692565b9586910161069b565b610229565b0190565b6106fa9061030f565b9052565b61070790610344565b9052565b939561077461076960e0979b9a9861075b6107889761074d8a61078f9e9961073f61077e9a60006101008501940190610444565b8c60208184039101526106c0565b908a820360408c01526106c0565b9088820360608a01526106c0565b9a6080870190610444565b60a08501906106f1565b60c0830190610444565b01906106fe565b565b60200190565b5190565b906107ad6107a883610287565b610272565b918252565b6107bc600061079b565b90565b6107c76107b2565b90565b6107d390610193565b90565b6107df906107ca565b90565b6107eb906101af565b90565b61085e9098949897969397959295610804610689565b508861083c8461082d8d8a8d8d96928b908d929394610821610093565b998a9860208a0161070b565b60208201810382520382610249565b61084e61084882610797565b91610791565b20906108586107bf565b91610d5d565b9761087061086b8a6107d6565b6107e2565b94638ff83ac192969891939497863b1561092f576000986108a5968a966108b095610899610093565b9d8e9c8d9b8c9a6105c4565b8a5260048a0161070b565b03925af1801561092a576108fd575b50806108f77f28a530eb465a41faf2a923830d2cd4e0301e87b2cddc112bda1a86048c3a54b2916108ee610093565b91829182610451565b0390a190565b61091d9060003d8111610923575b6109158183610249565b8101906105ca565b386108bf565b503d61090b565b6105da565b6105bf565b61093c610bb8565b610944610971565b565b90565b61095d61095861096292610946565b610190565b6100a8565b90565b61096e90610949565b90565b61098361097e6000610965565b610eec565b565b61098d610934565b565b60018060a01b031690565b6109a66109ab91610598565b61098f565b90565b6109b8905461099a565b90565b6109c3610689565b506109ce60006109ae565b90565b96610a089396610a1796610a399a939694966109eb610689565b5096989490919293946109fc610093565b998a9860208a0161070b565b60208201810382520382610249565b610a29610a2382610797565b91610791565b2090610a336107bf565b91610f4d565b90565b610a4d90610a48610bb8565b610af9565b565b60207f6464726573730000000000000000000000000000000000000000000000000000917f4f776e61626c653a206e6577206f776e657220697320746865207a65726f206160008201520152565b610aaa6026604092610692565b610ab381610a4f565b0190565b610acd9060208101906000818303910152610a9d565b90565b15610ad757565b610adf610093565b62461bcd60e51b815280610af560048201610ab7565b0390fd5b610b2890610b2381610b1c610b16610b116000610965565b6100b3565b916100b3565b1415610ad0565b610eec565b565b610b3390610a3c565b565b60007f4f776e61626c653a2063616c6c6572206973206e6f7420746865206f776e6572910152565b610b6960208092610692565b610b7281610b35565b0190565b610b8c9060208101906000818303910152610b5d565b90565b15610b9657565b610b9e610093565b62461bcd60e51b815280610bb460048201610b76565b0390fd5b610be2610bc36109bb565b610bdc610bd6610bd1610fe3565b6100b3565b916100b3565b14610b8f565b565b90565b610bf3610bf891610344565b610be4565b9052565b60601b90565b610c0b90610bfc565b90565b610c1790610c02565b90565b610c26610c2b916100b3565b610c0e565b9052565b905090565b610c59610c5092602092610c4781610797565b94858093610c2f565b9384910161069b565b0190565b60148093610c81602084610c79610c8996610c909b9a98610be7565b018092610c1a565b018092610c1a565b0190610c34565b90565b90565b610caa610ca5610caf92610946565b610190565b610c93565b90565b610cbb90610193565b90565b610cc790610cb2565b90565b610cd390610193565b90565b610cdf90610cca565b90565b610ceb906101af565b90565b60209181520190565b610d16610d1f602093610d2493610d0d81610797565b93848093610cee565b9586910161069b565b610229565b0190565b610d4d610d5a949293610d4360608401956000850190610444565b6020830190610444565b6040818403910152610cf7565b90565b610ded9093929193610d6d610689565b50610dad8591610d9e610d88610d8360016105b2565b6101bb565b8690610d92610093565b95869460208601610c5d565b60208201810382520382610249565b610dbf610db982610797565b91610791565b2061148a610dcf60208201610272565b9080825261125b6020830139610de86000929192610c96565b611187565b92610e07610e02610dfd86610cbe565b610cd6565b610ce2565b63cf7a1d779190610e20610e1b60016105b2565b6101bb565b9392813b15610e97576000610e4891610e538296610e3c610093565b988997889687956105c4565b855260048501610d28565b03925af18015610e9257610e65575b50565b610e859060003d8111610e8b575b610e7d8183610249565b8101906105ca565b38610e62565b503d610e73565b6105da565b6105bf565b60001b90565b90610eb360018060a01b0391610e9c565b9181191691161790565b610ec6906101af565b90565b90565b90610ee1610edc610ee892610ebd565b610ec9565b8254610ea2565b9055565b610ef660006109ae565b610f01826000610ecc565b90610f35610f2f7f8be0079c531659141344cd1fd0a4f28419497f9722a3daafe3b4186f6b6457e093610ebd565b91610ebd565b91610f3e610093565b80610f4881610102565b0390a3565b610fe09291610f8a610f9992610f61610689565b509193610f76610f7160016105b2565b6101bb565b610f7e610093565b95869460208601610c5d565b60208201810382520382610249565b610fab610fa582610797565b91610791565b2061148a610fbb60208201610272565b9080825261125b6020830139610fd9610fd382610797565b91610791565b2090611210565b90565b610feb610689565b503390565b610ff9906101af565b90565b60007f437265617465323a20696e73756666696369656e742062616c616e6365000000910152565b611031601d602092610692565b61103a81610ffc565b0190565b6110549060208101906000818303910152611024565b90565b1561105e57565b611066610093565b62461bcd60e51b81528061107c6004820161103e565b0390fd5b60007f437265617465323a2062797465636f6465206c656e677468206973207a65726f910152565b6110b460208092610692565b6110bd81611080565b0190565b6110d790602081019060008183039101526110a8565b90565b156110e157565b6110e9610093565b62461bcd60e51b8152806110ff600482016110c1565b0390fd5b60007f437265617465323a204661696c6564206f6e206465706c6f7900000000000000910152565b6111386019602092610692565b61114181611103565b0190565b61115b906020810190600081830391015261112b565b90565b1561116557565b61116d610093565b62461bcd60e51b81528061118360048201611145565b0390fd5b919091611192610689565b506111b961119f30610ff0565b316111b26111ac84610c93565b91610c93565b1015611057565b6111df6111c583610797565b6111d86111d26000610c96565b91610c93565b14156110da565b60208251920190f59061120e826112076112016111fc6000610965565b6100b3565b916100b3565b141561115e565b565b9061122e9161121d610689565b509061122830610ff0565b91611231565b90565b90605592600b92611240610689565b50604051926040840152602083015281520160ff8153209056fe608060405234601c57600e6020565b61145e61002c823961145e90f35b6026565b60405190565b600080fdfe6080604052361561006b5761006b565b90565b60018060a01b031690565b90565b61003461002f6100399261000f565b61001d565b610012565b90565b61004590610020565b90565b61005190610012565b90565b606090565b63ffffffff60e01b1690565b60000190565b61007361017e565b61008e610088610083600061003c565b610048565b91610048565b0361046c5761009b610054565b5063ffffffff60e01b600035166100c16100bb63cf7a1d7760e01b610059565b91610059565b146100e357600063f92ee8a960e01b8152806100df60048201610065565b0390fd5b6100eb610401565b602081519101f35b600090565b90565b90565b60001b90565b61011861011361011d926100f8565b6100fe565b6100fb565b90565b6101497fb53127684a568b3173ae13b9f8a6016e243e63b6e8ee1178d6a717850b5d6103610104565b90565b60001c90565b60018060a01b031690565b61016961016e9161014c565b610152565b90565b61017b905461015d565b90565b6101866100f3565b506101a2600061019c610197610120565b6105a2565b01610171565b90565b90565b90565b6101bf6101ba6101c4926101a5565b61001d565b6101a8565b90565b60405190565b600080fd5b600080fd5b909392938483116101f75784116101f2576001820201920390565b6101d2565b6101cd565b91565b600080fd5b600080fd5b61021290610012565b90565b61021e81610209565b0361022557565b600080fd5b9050359061023782610215565b565b600080fd5b600080fd5b601f801991011690565b634e487b7160e01b600052604160045260246000fd5b9061026d90610243565b810190811067ffffffffffffffff82111761028757604052565b61024d565b9061029f6102986101c7565b9283610263565b565b67ffffffffffffffff81116102bf576102bb602091610243565b0190565b61024d565b90826000939282370152565b909291926102e56102e0826102a1565b61028c565b93818552602085019082840111610301576102ff926102c4565b565b61023e565b9080601f8301121561032457816020610321933591016102d0565b90565b610239565b9160608383031261037657610341826000850161022a565b9261034f836020830161022a565b92604082013567ffffffffffffffff81116103715761036e9201610306565b90565b610204565b6101ff565b61038f61038a61039492610012565b61001d565b610012565b90565b6103a09061037b565b90565b6103ac90610397565b90565b67ffffffffffffffff81116103cd576103c9602091610243565b0190565b61024d565b906103e46103df836103af565b61028c565b918252565b6103f360006103d2565b90565b6103fe6103e9565b90565b610409610054565b506104126105cd565b61046161045761045161044761043f61043960003661043160046101ab565b9080926101d7565b906101fc565b810190610329565b93919290926103a3565b916103a3565b91909190916105ec565b6104696103f6565b90565b3361048661048061047b61017e565b610048565b91610048565b1460001461059d57610496610054565b5063ffffffff60e01b60003516806104bd6104b7631b2ce7f360e11b610059565b91610059565b146000146104d757506104ce610817565b5b602081519101f35b806104f16104eb63278f794360e11b610059565b91610059565b1460001461050857506105026107c1565b5b6104cf565b8061052261051c6308f2839760e41b610059565b91610059565b146000146105395750610533610723565b5b610503565b8061055361054d6303e1469160e61b610059565b91610059565b1460001461056a57506105646106bf565b5b610534565b61058361057d635c60da1b60e01b610059565b91610059565b146000146105985761059361067a565b610565565b61064a565b61064a565b90565b6105b96105b46105be9261000f565b61001d565b6101a8565b90565b156105c857565b600080fd5b6105ea346105e46105de60006105a5565b916101a8565b146105c1565b565b91906105f661087a565b61061161060b610606600061003c565b610048565b91610048565b0361062d5761062261062b936108b2565b9060009161098d565b565b600063f92ee8a960e01b81528061064660048201610065565b0390fd5b610652610aa6565b610ae7565b61066090610048565b9052565b919061067890600060208501940190610657565b565b610682610054565b5061068b6105cd565b6106ad6106bc610699610aa6565b6106a16101c7565b92839160208301610664565b60208201810382520382610263565b90565b6106c7610054565b506106d06105cd565b6106f26107016106de61017e565b6106e66101c7565b92839160208301610664565b60208201810382520382610263565b90565b9060208282031261071e5761071b9160000161022a565b90565b6101ff565b61072b610054565b506107346105cd565b61077061076b61076661075e61075860003661075060046101ab565b9080926101d7565b906101fc565b810190610704565b6103a3565b6108b2565b6107786103f6565b90565b9190916040818403126107bc57610795836000830161022a565b92602082013567ffffffffffffffff81116107b7576107b49201610306565b90565b610204565b6101ff565b6107c9610054565b5061080c6108036107fc6107f46107ee6000366107e660046101ab565b9080926101d7565b906101fc565b81019061077b565b91906103a3565b90600191610b0a565b6108146103f6565b90565b61081f610054565b506108286105cd565b61086f61085f61085a61085261084c60003661084460046101ab565b9080926101d7565b906101fc565b810190610704565b6103a3565b6108676103f6565b600091610b0a565b6108776103f6565b90565b6108826100f3565b5061088b61017e565b90565b9160206108b09294936108a960408201966000830190610657565b0190610657565b565b6108fd906108be61017e565b817f7e644d79422f17c01e4894b5f4f588d331ebfa28653d42ae832dc59e38c9798f916108f56108ec6101c7565b9283928361088e565b0390a1610c4d565b565b61090890610397565b90565b5190565b6109189061037b565b90565b6109249061090f565b90565b61093090610397565b90565b60e01b90565b61094281610048565b0361094957565b600080fd5b9050519061095b82610939565b565b90602082820312610977576109749160000161094e565b90565b6101ff565b6109846101c7565b3d6000823e3d90fd5b9161099783610e30565b826109c27f1cf3b03a6cf19fa2baba4df148e9dcabedea7f8a5c07840e207e5c089be95d3e916108ff565b906109cb6101c7565b806109d581610065565b0390a26109e18261090b565b6109f46109ee60006105a5565b916101a8565b11908115610a9e575b50610a07575b5050565b6020610a1d610a18610a339461091b565b610927565b635c60da1b90610a2b6101c7565b948592610933565b82528180610a4360048201610065565b03915afa908115610a9957610a6192600092610a69575b5090610f65565b503880610a03565b610a8b91925060203d8111610a92575b610a838183610263565b81019061095d565b9038610a5a565b503d610a79565b61097c565b9050386109fd565b610aae6100f3565b50610ab7610f85565b80610ad3610acd610ac8600061003c565b610048565b91610048565b03610ae45750610ae1610f99565b90565b90565b60008091368280378136915af43d6000803e600014610b05573d6000f35b3d6000fd5b91610b148361102f565b610b1d8261090b565b610b30610b2a60006105a5565b916101a8565b11908115610b54575b50610b43575b5050565b610b4c91610f65565b503880610b3f565b905038610b39565b60209181520190565b60207f6464726573730000000000000000000000000000000000000000000000000000917f455243313936373a206e65772061646d696e20697320746865207a65726f206160008201520152565b610bc06026604092610b5c565b610bc981610b65565b0190565b610be39060208101906000818303910152610bb3565b90565b15610bed57565b610bf56101c7565b62461bcd60e51b815280610c0b60048201610bcd565b0390fd5b90610c2060018060a01b03916100fe565b9181191691161790565b90565b90610c42610c3d610c49926108ff565b610c2a565b8254610c0f565b9055565b610c8f90610c7781610c70610c6a610c65600061003c565b610048565b91610048565b1415610be6565b6000610c89610c84610120565b6105a2565b01610c2d565b565b60207f7472616374000000000000000000000000000000000000000000000000000000917f455243313936373a206e657720626561636f6e206973206e6f74206120636f6e60008201520152565b610cec6025604092610b5c565b610cf581610c91565b0190565b610d0f9060208101906000818303910152610cdf565b90565b15610d1957565b610d216101c7565b62461bcd60e51b815280610d3760048201610cf9565b0390fd5b60207f73206e6f74206120636f6e747261637400000000000000000000000000000000917f455243313936373a20626561636f6e20696d706c656d656e746174696f6e206960008201520152565b610d966030604092610b5c565b610d9f81610d3b565b0190565b610db99060208101906000818303910152610d89565b90565b15610dc357565b610dcb6101c7565b62461bcd60e51b815280610de160048201610da3565b0390fd5b90565b610dfc610df7610e0192610de5565b6100fe565b6100fb565b90565b610e2d7fa3f0ad74e5423aebfd80d3ef4346578335a9a72aeaee59ff6cb3582b35133d50610de8565b90565b610e6e90610e45610e408261107f565b610d12565b6020610e58610e538361091b565b610927565b635c60da1b90610e666101c7565b948592610933565b82528180610e7e60048201610065565b03915afa8015610eee57610ea1610ea691610ebe94600091610ec0575b5061107f565b610dbc565b6000610eb8610eb3610e04565b6105a2565b01610c2d565b565b610ee1915060203d8111610ee7575b610ed98183610263565b81019061095d565b38610e9b565b503d610ecf565b61097c565b60207f206661696c656400000000000000000000000000000000000000000000000000917f416464726573733a206c6f772d6c6576656c2064656c65676174652063616c6c60008201520152565b610f4b60276103d2565b90610f5860208301610ef3565b565b610f62610f41565b90565b90610f8291610f72610054565b5090610f7c610f5a565b916110e2565b90565b610f8d6100f3565b50610f96611160565b90565b610fa16100f3565b50610fd56020610fbf610fba610fb5611187565b61091b565b610927565b635c60da1b90610fcd6101c7565b938492610933565b82528180610fe560048201610065565b03915afa90811561102a57600091610ffc575b5090565b61101d915060203d8111611023575b6110158183610263565b81019061095d565b38610ff8565b503d61100b565b61097c565b61103881611258565b6110627fbc7cd75a20ee27fd9adebab32041f755214dbc6bffa90cc0225b39da2e5c2d3b916108ff565b9061106b6101c7565b8061107581610065565b0390a2565b600090565b61108761107a565b503b61109c61109660006105a5565b916101a8565b1190565b906110b26110ad836102a1565b61028c565b918252565b3d6000146110d4576110c83d6110a0565b903d6000602084013e5b565b6110dc610054565b906110d2565b9091600080611112946110f3610054565b508490602081019051915af4916111086110b7565b909290919261130b565b90565b90565b61112c61112761113192611115565b6100fe565b6100fb565b90565b61115d7f360894a13ba1a3210667c828492db98dca3e2076cc3735a920a3ca505d382bbc611118565b90565b6111686100f3565b50611184600061117e611179611134565b6105a2565b01610171565b90565b61118f6100f3565b506111ab60006111a56111a0610e04565b6105a2565b01610171565b90565b60207f6f74206120636f6e747261637400000000000000000000000000000000000000917f455243313936373a206e657720696d706c656d656e746174696f6e206973206e60008201520152565b611209602d604092610b5c565b611212816111ae565b0190565b61122c90602081019060008183039101526111fc565b90565b1561123657565b61123e6101c7565b62461bcd60e51b81528061125460048201611216565b0390fd5b6112859061126d6112688261107f565b61122f565b600061127f61127a611134565b6105a2565b01610c2d565b565b60007f416464726573733a2063616c6c20746f206e6f6e2d636f6e7472616374000000910152565b6112bc601d602092610b5c565b6112c581611287565b0190565b6112df90602081019060008183039101526112af565b90565b156112e957565b6112f16101c7565b62461bcd60e51b815280611307600482016112c9565b0390fd5b919290611316610054565b5060001461135c57506113288261090b565b61133b61133560006105a5565b916101a8565b14611345575b5090565b6113516113569161107f565b6112e2565b38611341565b826113d5565b5190565b60005b83811061137a575050906000910152565b806020918301518185015201611369565b6113aa6113b36020936113b8936113a181611362565b93848093610b5c565b95869101611366565b610243565b0190565b6113d2916020820191600081840391015261138b565b90565b906113df8261090b565b6113f26113ec60006105a5565b916101a8565b116000146114035750805190602001fd5b6114249061140f6101c7565b91829162461bcd60e51b8352600483016113bc565b0390fdfea2646970667358221220fb1899e61f38faa78bfbab79b8dc2fa613357c2fce2699411f9fee80b624365564736f6c634300081b0033a2646970667358221220d353a28a00a09393e3bdd337ef6c721c7f72d7ebad899d5249255dd6e73f45d064736f6c634300081b003360a060405234602b57600e603a565b6014602f565b614b866100418239608051816125da0152614b8690f35b6035565b60405190565b600080fd5b3360805256fe60806040526004361015610013575b611806565b61001e60003561024c565b8062fdd58e1461024757806301ffc9a71461024257806304634d8d1461023d57806306fdde03146102385780630b5ee006146102335780630bb310de1461022e5780630e89341c1461022957806318160ddd1461022457806320ec271b1461021f578063248a9ca31461021a5780632693ebf2146102155780632a55205a146102105780632eb2c2d61461020b5780632f2ff15d1461020657806336568abe146102015780634e1273f4146101fc5780635944c753146101f75780636c0360eb146101f2578063731133e9146101ed5780637e518ec8146101e85780638ff83ac1146101e35780639010d07c146101de57806391d14854146101d9578063938e3d7b146101d45780639d043a66146101cf578063a217fddf146101ca578063a22cb465146101c5578063b390c0ab146101c0578063b48ab8b6146101bb578063ca15c873146101b6578063d547741f146101b1578063e8a3d485146101ac578063e985e9c5146101a7578063ed4c2ac7146101a25763f242432a0361000e576117cc565b611728565b6116f2565b61168f565b61164b565b611616565b6115df565b61151b565b6114e7565b611460565b6113ed565b611325565b6112ef565b6112b9565b611238565b61113b565b611104565b610ff3565b610faf565b610f3b565b610dc7565b610d93565b610d28565b610bcb565b610b37565b610ab1565b610a14565b6108e5565b610875565b610823565b6107d1565b6106bf565b610465565b6103c7565b61031a565b60e01c90565b60405190565b600080fd5b600080fd5b600080fd5b60018060a01b031690565b61027b90610267565b90565b61028781610272565b0361028e57565b600080fd5b905035906102a08261027e565b565b90565b6102ae816102a2565b036102b557565b600080fd5b905035906102c7826102a5565b565b91906040838203126102f257806102e66102ef9260008601610293565b936020016102ba565b90565b61025d565b610300906102a2565b9052565b9190610318906000602085019401906102f7565b565b3461034b576103476103366103303660046102c9565b90611810565b61033e610252565b91829182610304565b0390f35b610258565b63ffffffff60e01b1690565b61036581610350565b0361036c57565b600080fd5b9050359061037e8261035c565b565b9060208282031261039a5761039791600001610371565b90565b61025d565b151590565b6103ad9061039f565b9052565b91906103c5906000602085019401906103a4565b565b346103f7576103f36103e26103dd366004610380565b611839565b6103ea610252565b918291826103b1565b0390f35b610258565b6bffffffffffffffffffffffff1690565b610416816103fc565b0361041d57565b600080fd5b9050359061042f8261040d565b565b919060408382031261045a578061044e6104579260008601610293565b93602001610422565b90565b61025d565b60000190565b346104945761047e610478366004610431565b906118db565b610486610252565b806104908161045f565b0390f35b610258565b60009103126104a457565b61025d565b634e487b7160e01b600052600060045260246000fd5b634e487b7160e01b600052602260045260246000fd5b90600160028304921680156104f5575b60208310146104f057565b6104bf565b91607f16916104e5565b60209181520190565b600052602060002090565b906000929180549061052e610527836104d5565b80946104ff565b91600181169081600014610587575060011461054a575b505050565b6105579192939450610508565b916000925b81841061056f5750500190388080610545565b6001816020929593955484860152019101929061055c565b92949550505060ff1916825215156020020190388080610545565b906105ac91610513565b90565b601f801991011690565b634e487b7160e01b600052604160045260246000fd5b906105d9906105af565b810190811067ffffffffffffffff8211176105f357604052565b6105b9565b9061061861061192610608610252565b938480926105a2565b03836105cf565b565b9060001061062e5761062b906105f8565b90565b6104a9565b610640600860009061061a565b90565b5190565b60209181520190565b60005b838110610664575050906000910152565b806020918301518185015201610653565b61069461069d6020936106a29361068b81610643565b93848093610647565b95869101610650565b6105af565b0190565b6106bc9160208201916000818403910152610675565b90565b346106ef576106cf366004610499565b6106eb6106da610633565b6106e2610252565b918291826106a6565b0390f35b610258565b600080fd5b600080fd5b9061071161070a610252565b92836105cf565b565b67ffffffffffffffff81116107315761072d6020916105af565b0190565b6105b9565b90826000939282370152565b9092919261075761075282610713565b6106fe565b938185526020850190828401116107735761077192610736565b565b6106f9565b9080601f830112156107965781602061079393359101610742565b90565b6106f4565b906020828203126107cc57600082013567ffffffffffffffff81116107c7576107c49201610778565b90565b610262565b61025d565b346107ff576107e96107e436600461079b565b611b1c565b6107f1610252565b806107fb8161045f565b0390f35b610258565b9060208282031261081e5761081b91600001610293565b90565b61025d565b346108515761083b610836366004610804565b611bf9565b610843610252565b8061084d8161045f565b0390f35b610258565b906020828203126108705761086d916000016102ba565b90565b61025d565b346108a5576108a161089061088b366004610856565b611d23565b610898610252565b918291826106a6565b0390f35b610258565b1c90565b90565b6108c19060086108c693026108aa565b6108ae565b90565b906108d491546108b1565b90565b6108e26000806108c9565b90565b34610915576108f5366004610499565b6109116109006108d7565b610908610252565b91829182610304565b0390f35b610258565b67ffffffffffffffff81116109325760208091020190565b6105b9565b600080fd5b9092919261095161094c8261091a565b6106fe565b938185526020808601920283019281841161098e57915b8383106109755750505050565b6020809161098384866102ba565b815201920191610968565b610937565b9080601f830112156109b1578160206109ae9335910161093c565b90565b6106f4565b919091604081840312610a0f57600081013567ffffffffffffffff8111610a0a57836109e3918301610993565b92602082013567ffffffffffffffff8111610a0557610a029201610993565b90565b610262565b610262565b61025d565b34610a4357610a2d610a273660046109b6565b90611d6d565b610a35610252565b80610a3f8161045f565b0390f35b610258565b90565b610a5481610a48565b03610a5b57565b600080fd5b90503590610a6d82610a4b565b565b90602082820312610a8957610a8691600001610a60565b90565b61025d565b610a9790610a48565b9052565b9190610aaf90600060208501940190610a8e565b565b34610ae157610add610acc610ac7366004610a6f565b611dcf565b610ad4610252565b91829182610a9b565b0390f35b610258565b90565b610afd610af8610b02926102a2565b610ae6565b6102a2565b90565b90610b0f90610ae9565b600052602052604060002090565b610b3490610b2f600191600092610b05565b6108c9565b90565b34610b6757610b63610b52610b4d366004610856565b610b1d565b610b5a610252565b91829182610304565b0390f35b610258565b9190604083820312610b955780610b89610b9292600086016102ba565b936020016102ba565b90565b61025d565b610ba390610272565b9052565b916020610bc9929493610bc260408201966000830190610b9a565b01906102f7565b565b34610bfd57610be4610bde366004610b6c565b90611fc1565b90610bf9610bf0610252565b92839283610ba7565b0390f35b610258565b600080fd5b909182601f83011215610c415781359167ffffffffffffffff8311610c3c576020019260208302840111610c3757565b610937565b610c02565b6106f4565b909182601f83011215610c805781359167ffffffffffffffff8311610c7b576020019260018302840111610c7657565b610937565b610c02565b6106f4565b9160a083830312610d2357610c9d8260008501610293565b92610cab8360208301610293565b92604082013567ffffffffffffffff8111610d1e5781610ccc918401610c07565b929093606082013567ffffffffffffffff8111610d195783610cef918401610c07565b929093608082013567ffffffffffffffff8111610d1457610d109201610c46565b9091565b610262565b610262565b610262565b61025d565b34610d6057610d4a610d3b366004610c85565b9695909594919493929361209c565b610d52610252565b80610d5c8161045f565b0390f35b610258565b9190604083820312610d8e5780610d82610d8b9260008601610a60565b93602001610293565b90565b61025d565b34610dc257610dac610da6366004610d65565b90612338565b610db4610252565b80610dbe8161045f565b0390f35b610258565b34610df657610de0610dda366004610d65565b906123ee565b610de8610252565b80610df28161045f565b0390f35b610258565b909182601f83011215610e355781359167ffffffffffffffff8311610e30576020019260208302840111610e2b57565b610937565b610c02565b6106f4565b9091604082840312610e9557600082013567ffffffffffffffff8111610e905783610e66918401610dfb565b929093602082013567ffffffffffffffff8111610e8b57610e879201610c07565b9091565b610262565b610262565b61025d565b5190565b60209181520190565b60200190565b610eb6906102a2565b9052565b90610ec781602093610ead565b0190565b60200190565b90610eee610ee8610ee184610e9a565b8093610e9e565b92610ea7565b9060005b818110610eff5750505090565b909192610f18610f126001928651610eba565b94610ecb565b9101919091610ef2565b610f389160208201916000818403910152610ed1565b90565b34610f6f57610f6b610f5a610f51366004610e3a565b92919091612422565b610f62610252565b91829182610f22565b0390f35b610258565b9091606082840312610faa57610fa7610f9084600085016102ba565b93610f9e8160208601610293565b93604001610422565b90565b61025d565b34610fde57610fc8610fc2366004610f74565b916124bf565b610fd0610252565b80610fda8161045f565b0390f35b610258565b610ff0600960009061061a565b90565b3461102357611003366004610499565b61101f61100e610fe3565b611016610252565b918291826106a6565b0390f35b610258565b67ffffffffffffffff8111611046576110426020916105af565b0190565b6105b9565b9092919261106061105b82611028565b6106fe565b9381855260208501908284011161107c5761107a92610736565b565b6106f9565b9080601f8301121561109f5781602061109c9335910161104b565b90565b6106f4565b906080828203126110ff576110bc8160008401610293565b926110ca82602085016102ba565b926110d883604083016102ba565b92606082013567ffffffffffffffff81116110fa576110f79201611081565b90565b610262565b61025d565b34611136576111206111173660046110a4565b9291909161251e565b611128610252565b806111328161045f565b0390f35b610258565b346111695761115361114e36600461079b565b612554565b61115b610252565b806111658161045f565b0390f35b610258565b919061010083820312611233576111888160008501610293565b92602081013567ffffffffffffffff811161122e57826111a9918301610778565b92604082013567ffffffffffffffff811161122957836111ca918401610778565b92606083013567ffffffffffffffff811161122457816111eb918501610778565b926111f98260808301610293565b9261122161120a8460a08501610422565b936112188160c08601610293565b9360e001610a60565b90565b610262565b610262565b610262565b61025d565b346112705761125a61124b36600461116e565b969590959491949392936125cb565b611262610252565b8061126c8161045f565b0390f35b610258565b919060408382031261129e578061129261129b9260008601610a60565b936020016102ba565b90565b61025d565b91906112b790600060208501940190610b9a565b565b346112ea576112e66112d56112cf366004611275565b90612691565b6112dd610252565b918291826112a3565b0390f35b610258565b346113205761131c61130b611305366004610d65565b906126e9565b611313610252565b918291826103b1565b0390f35b610258565b346113535761133d61133836600461079b565b61273c565b611345610252565b8061134f8161045f565b0390f35b610258565b600080fd5b908160c091031261136b5790565b611358565b908160e091031261137e5790565b611358565b916060838303126113e85761139b8260008501610293565b92602081013567ffffffffffffffff81116113e357836113bc91830161135d565b92604082013567ffffffffffffffff81116113de576113db9201611370565b90565b610262565b610262565b61025d565b3461141e5761141a611409611403366004611383565b91612a9a565b611411610252565b91829182610a9b565b0390f35b610258565b90565b60001b90565b61144061143b61144592611423565b611426565b610a48565b90565b611452600061142c565b90565b61145d611448565b90565b3461149057611470366004610499565b61148c61147b611455565b611483610252565b91829182610a9b565b0390f35b610258565b61149e8161039f565b036114a557565b600080fd5b905035906114b782611495565b565b91906040838203126114e257806114d66114df9260008601610293565b936020016114aa565b90565b61025d565b34611516576115006114fa3660046114b9565b90612b3b565b611508610252565b806115128161045f565b0390f35b610258565b3461154a5761153461152e366004610b6c565b90612b8b565b61153c610252565b806115468161045f565b0390f35b610258565b906080828203126115da576115678160008401610293565b92602083013567ffffffffffffffff81116115d55782611588918501610993565b92604081013567ffffffffffffffff81116115d057836115a9918301610993565b92606082013567ffffffffffffffff81116115cb576115c89201611081565b90565b610262565b610262565b610262565b61025d565b34611611576115fb6115f236600461154f565b92919091612bc8565b611603610252565b8061160d8161045f565b0390f35b610258565b346116465761164261163161162c366004610a6f565b612bd6565b611639610252565b91829182610304565b0390f35b610258565b3461167a5761166461165e366004610d65565b90612c26565b61166c610252565b806116768161045f565b0390f35b610258565b61168c600a60009061061a565b90565b346116bf5761169f366004610499565b6116bb6116aa61167f565b6116b2610252565b918291826106a6565b0390f35b610258565b91906040838203126116ed57806116e16116ea9260008601610293565b93602001610293565b90565b61025d565b346117235761171f61170e6117083660046116c4565b90612c32565b611716610252565b918291826103b1565b0390f35b610258565b346117565761174061173b366004610a6f565b612cc1565b611748610252565b806117528161045f565b0390f35b610258565b91909160a0818403126117c7576117758360008301610293565b926117838160208401610293565b9261179182604085016102ba565b9261179f83606083016102ba565b92608082013567ffffffffffffffff81116117c2576117be9201610c46565b9091565b610262565b61025d565b34611801576117eb6117df36600461175b565b94939093929192612ccc565b6117f3610252565b806117fd8161045f565b0390f35b610258565b600080fd5b600090565b61181861180b565b50679a31110384e0b0c960205260145260005260406000205490565b600090565b611841611834565b5063c79b8b5f60e01b61185c61185683610350565b91610350565b148015611880575b908115611870575b5090565b61187a9150612e9b565b3861186c565b5061188a81612e9b565b611864565b7f6db4061a20ca83a3be756ee172bd37a029093ac5afe4ce968c6d5435b43cb01190565b906118cd916118c86118c361188f565b612edf565b6118cf565b565b906118d9916130f9565b565b906118e5916118b3565b565b7fe02a0315b383857ac496e9d2b2546a699afaeb4e5e83a1fdef64376d0b74e5a590565b6119249061191f61191a6118e7565b612edf565b611b0f565b565b601f602091010490565b1b90565b9190600861195091029161194a60001984611930565b92611930565b9181191691161790565b90565b919061197361196e61197b93610ae9565b61195a565b908354611934565b9055565b6119919161198b61180b565b9161195d565b565b5b81811061199f575050565b806119ad600060019361197f565b01611994565b9190601f81116119c3575b505050565b6119cf6119f493610508565b9060206119db84611926565b830193106119fc575b6119ed90611926565b0190611993565b3880806119be565b91506119ed819290506119e4565b90611a1b90600019906008026108aa565b191690565b81611a2a91611a0a565b906002021790565b90611a3c81610643565b9067ffffffffffffffff8211611afe57611a6082611a5a85546104d5565b856119b3565b602090601f8311600114611a9557918091611a8493600092611a89575b5050611a20565b90555b565b90915001513880611a7d565b601f19831691611aa485610508565b9260005b818110611ae657509160029391856001969410611acc575b50505002019055611a87565b611adc910151601f841690611a0a565b9055388080611ac0565b91936020600181928787015181550195019201611aa8565b6105b9565b90611b0d91611a32565b565b611b1a906008611b03565b565b611b259061190b565b565b7f70649ec320b507febad3e8ef750e5f580b9ae32f9f50d4c7b121332c8197153090565b611b6490611b5f611b5a611b27565b612edf565b611be4565b565b611b7a611b75611b7f92610267565b610ae6565b610267565b90565b611b8b90611b66565b90565b611b9790611b82565b90565b90611bab60018060a01b0391611426565b9181191691161790565b611bbe90611b82565b90565b90565b90611bd9611bd4611be092611bb5565b611bc1565b8254611b9a565b9055565b611bf0611bf791611b8e565b6006611bc4565b565b611c0290611b4b565b565b606090565b905090565b9060009291805490611c29611c22836104d5565b8094611c09565b91600181169081600014611c7d5750600114611c45575b505050565b611c529192939450610508565b6000905b838210611c695750500190388080611c40565b600181602092548486015201910190611c56565b92949550505060ff19168252801515020190388080611c40565b611cbc611cb392602092611caa81610643565b94858093611c09565b93849101610650565b0190565b60007f2e6a736f6e000000000000000000000000000000000000000000000000000000910152565b611cf460058092611c09565b611cfd81611cc0565b0190565b91611d12611d1d93611d1893611c0e565b90611c97565b611ce8565b90565b90565b611d6a90611d2f611c04565b50611d65611d3e600992613173565b91611d56611d4a610252565b93849260208401611d01565b602082018103825203826105cf565b611d20565b90565b611d7a91339190916132c1565b565b600090565b611d8a90610a48565b90565b90611d9790611d81565b600052602052604060002090565b60001c90565b90565b611dba611dbf91611da5565b611dab565b90565b611dcc9054611dae565b90565b6001611de8611dee92611de0611d7c565b506004611d8d565b01611dc2565b90565b600090565b90611e0090610ae9565b600052602052604060002090565b60018060a01b031690565b611e25611e2a91611da5565b611e0e565b90565b611e379054611e19565b90565b90611e4490610272565b9052565b60a01c90565b6bffffffffffffffffffffffff1690565b611e6b611e7091611e48565b611e4e565b90565b611e7d9054611e5f565b90565b90611e8a906103fc565b9052565b611e9860406106fe565b90565b90611ed2611ec96000611eac611e8e565b94611ec3611ebb838301611e2d565b838801611e3a565b01611e73565b60208401611e80565b565b611edd90611e9b565b90565b611eea9051610272565b90565b611f01611efc611f0692611423565b610ae6565b610267565b90565b611f1290611eed565b90565b611f1f90516103fc565b90565b611f36611f31611f3b926103fc565b610ae6565b6102a2565b90565b634e487b7160e01b600052601160045260246000fd5b611f63611f69919392936102a2565b926102a2565b91611f758382026102a2565b928184041490151715611f8457565b611f3e565b634e487b7160e01b600052601260045260246000fd5b611fab611fb1916102a2565b916102a2565b908115611fbc570490565b611f89565b611fe4611fe991939293611fd3611df1565b50611fdc61180b565b506003611df6565b611ed4565b91611ff660008401611ee0565b61201161200b6120066000611f09565b610272565b91610272565b1461205e575b600061205361203d61205a9361203761203260208901611f15565b611f22565b90611f54565b61204d6120486133cc565b611f22565b90611f9f565b9301611ee0565b9190565b915061205a600061205361203d6120756002611ed4565b959350505050612017565b61208b91369161093c565b90565b61209991369161104b565b90565b9693969590949192956120ad6133e3565b6122e6575b8287036122d85760601b679a31110384e0b0c9179460601b679a31110384e0b0c91791856020528560601c958360601c9384156122ca578733036122ae575b8860051b805b61224e57505050828660207f4a39dc06d4c0dbc64b70af90fd698a233a518aa5d07e595d983b8c0526c8f7fb604051604081528b8d8160051b948286936040860152838d6060870137836060018286015260608486010190815201376080339380010190a46121646133f1565b612231575b50813b61217a575b50505050505050565b602080809786946000528060c06040519b8c9a63bc197c818c5233868d015260408c015260a060608c01528a8360051b998a9586948593015260e08d01378160c00160808c015260e0828c010192835284830137818060e0010160a08a01520101838152013780010161010401601c60405101600080515af115612222575b63bc197c8160e01b9051036122145738808080808080612171565b639c05499b6000526004601cfd5b3d156121f9573d6000823e3d90fd5b612248908690849086908a8c919287948b966133ff565b38612169565b60209003808b01358360205281880135600052604060002080548083116122a0578290039055826020526040600020908154908101908110612292578291556120f7565b6301336cea6000526004601cfd5b63f4d678b86000526004601cfd5b336000526034600c20546120f157634b6e7f186000526004601cfd5b63ea553b346000526004601cfd5b633b800a466000526004601cfd5b61230984886123038b87906122fd88948c96612080565b50612080565b5061208e565b506120b2565b9061232a9161232561232082611dcf565b612edf565b61232c565b565b9061233691613449565b565b906123429161230f565b565b60207f20726f6c657320666f722073656c660000000000000000000000000000000000917f416363657373436f6e74726f6c3a2063616e206f6e6c792072656e6f756e636560008201520152565b61239f602f604092610647565b6123a881612344565b0190565b6123c29060208101906000818303910152612392565b90565b156123cc57565b6123d4610252565b62461bcd60e51b8152806123ea600482016123ac565b0390fd5b9061241b916124168261241061240a612405613473565b610272565b91610272565b146123c5565b613480565b565b606090565b9392919061242e61241d565b5082036124855760405193828552602085019260051b808481016040525b6124565750505050565b602090038082013560601b679a31110384e0b0c91760205280830135600052806040600020548186015261244c565b633b800a466000526004601cfd5b906124ae92916124a96124a461188f565b612edf565b6124b0565b565b916124bd9291909161352e565b565b906124ca9291612493565b565b7f9f2df0fed2c77648de5860a4cc508cd0818c85b8b8a1ab4ceeef8d981c8956a690565b9061250c9392916125076125026124cc565b612edf565b61250e565b565b9161251c93919091926135b1565b565b9061252a9392916124f0565b565b6125459061254061253b6118e7565b612edf565b612547565b565b612552906009611b03565b565b61255d9061252c565b565b60ff1690565b61257161257691611da5565b61255f565b90565b6125839054612565565b90565b9061259260ff91611426565b9181191691161790565b6125a59061039f565b90565b90565b906125c06125bb6125c79261259c565b6125a8565b8254612586565b9055565b959694939294336126046125fe7f0000000000000000000000000000000000000000000000000000000000000000610272565b91610272565b14158015612666575b6126495761263b9761262e966126299489949091929394613607565b6130f9565b6126366124cc565b613449565b6126476001600b6125ab565b565b600063f92ee8a960e01b8152806126626004820161045f565b0390fd5b50612671600b612579565b61260d565b9061268090611d81565b600052602052604060002090565b90565b906126b16126ac6126b6936126a4611df1565b506005612676565b61268e565b6136a0565b90565b6126c290611b66565b90565b6126ce906126b9565b90565b906126db906126c5565b600052602052604060002090565b61271191600061270661270c936126fe611834565b506004611d8d565b016126d1565b612579565b90565b61272d906127286127236118e7565b612edf565b61272f565b565b61273a90600a611b03565b565b61274590612714565b565b60018060a01b031690565b61275e61276391611da5565b612747565b90565b6127709054612752565b90565b61277c906126b9565b90565b60e01b90565b9050519061279282610a4b565b565b906020828203126127ae576127ab91600001612785565b90565b61025d565b506127c2906020810190610293565b90565b6127ce90610272565b9052565b506127e1906020810190610371565b90565b6127ed90610350565b9052565b50612800906020810190610a60565b90565b61280c90610a48565b9052565b600080fd5b600080fd5b600080fd5b903560016020038236030381121561286057016020813591019167ffffffffffffffff821161285b57600182023603831361285657565b612815565b612810565b61281a565b60209181520190565b9190612888816128818161288d95612865565b8095610736565b6105af565b0190565b90356001604003823603038112156128a7570190565b61281a565b90356001602003823603038112156128ed57016020813591019167ffffffffffffffff82116128e85760018202360383136128e357565b612815565b612810565b61281a565b919061290c8161290581612911956104ff565b8095610736565b6105af565b0190565b67ffffffffffffffff1690565b61292b81612915565b0361293257565b600080fd5b9050359061294482612922565b565b50612955906020810190612937565b90565b61296190612915565b9052565b906129a390602061299b6129916040840161298360008801886128ac565b9086830360008801526128f2565b9482810190612946565b910190612958565b90565b612a5091612a42612a3760c083016129ce6129c460008701876127b3565b60008601906127c5565b6129e86129de60208701876127d2565b60208601906127e4565b612a026129f860408701876127f1565b6040860190612803565b612a1c612a1260608701876127f1565b6060860190612803565b612a29608086018661281f565b90858303608087015261286e565b9260a0810190612891565b9060a0818403910152612965565b90565b939290612a7f604091612a8794612a72606089019260008a0190610b9a565b87820360208901526129a6565b940190610a8e565b565b612a91610252565b3d6000823e3d90fd5b9150602090612aa7611d7c565b50612aba612ab56006612766565b612773565b612ae6633808a90b949294612af1612ad26007611dc2565b612ada610252565b9788968795869561277f565b855260048501612a53565b03915afa908115612b3657600091612b08575b5090565b612b29915060203d8111612b2f575b612b2181836105cf565b810190612794565b38612b04565b503d612b17565b612a89565b901515679a31110384e0b0c96020523360145281600052806034600c205560005260601b60601c337f17307eab39ab6107e8899845ad3d59bd9653f200f220920489ca2b5937696c3160206000a3565b612b9891339190916136d9565b565b90612bb6939291612bb1612bac6124cc565b612edf565b612bb8565b565b91612bc6939190919261372b565b565b90612bd4939291612b9a565b565b612bf5612bf0612bfa92612be861180b565b506005612676565b61268e565b613814565b90565b90612c1891612c13612c0e82611dcf565b612edf565b612c1a565b565b90612c2491613480565b565b90612c3091612bfd565b565b612c3a611834565b50679a31110384e0b0c96020526014526000526034600c205490565b612c6f90612c6a612c65611b27565b612edf565b612cb4565b565b90612c7e60001991611426565b9181191691161790565b612c9190611da5565b90565b90612ca9612ca4612cb092611d81565b612c88565b8254612c71565b9055565b612cbf906007612c94565b565b612cca90612c56565b565b94909194612cd86133e3565b612e76575b60601b679a31110384e0b0c9179160601b679a31110384e0b0c917918060205260601c928260601c928315612e6857843303612e4c575b8660005260406000208054808411612e3e5783900390556020526040600020805490828201918210612e305755806020528284337fc3d58168c5ae7397731d063d5bbf3d657854427343f4c083240f7aacaa2d0f6260406000a4612d766133f1565b612e0b575b823b612d8a575b505050505050565b602094829160405197889663f23a6e618852338989015260408801526060870152608086015260a0808601528160c086015260e085013760c401906000601c8401915af115612dfc575b63f23a6e6160e01b905103612dee57388080808080612d82565b639c05499b6000526004601cfd5b3d15612dd4573d6000823e3d90fd5b612e1486613834565b50612e1e81613834565b50612e2a85839061208e565b50612d7b565b6301336cea6000526004601cfd5b63f4d678b86000526004601cfd5b336000526034600c2054612d1457634b6e7f186000526004601cfd5b63ea553b346000526004601cfd5b612e7f86613834565b50612e8984613834565b50612e9585839061208e565b50612cdd565b612ea3611834565b50612ead81613854565b8015612ed0575b908115612ec0575b5090565b612eca91506138fa565b38612ebc565b50612eda81613894565b612eb4565b612ef190612eeb613473565b906139f1565b565b60207f2073616c65507269636500000000000000000000000000000000000000000000917f455243323938313a20726f79616c7479206665652077696c6c2065786365656460008201520152565b612f4e602a604092610647565b612f5781612ef3565b0190565b612f719060208101906000818303910152612f41565b90565b15612f7b57565b612f83610252565b62461bcd60e51b815280612f9960048201612f5b565b0390fd5b60007f455243323938313a20696e76616c696420726563656976657200000000000000910152565b612fd26019602092610647565b612fdb81612f9d565b0190565b612ff59060208101906000818303910152612fc5565b90565b15612fff57565b613007610252565b62461bcd60e51b81528061301d60048201612fdf565b0390fd5b61302b60406106fe565b90565b90565b9061304661304161304d926126c5565b61302e565b8254611b9a565b9055565b60a01b90565b906130716bffffffffffffffffffffffff60a01b91613051565b9181191691161790565b61308f61308a613094926103fc565b610ae6565b6103fc565b90565b90565b906130af6130aa6130b69261307b565b613097565b8254613057565b9055565b906130e5602060006130eb946130dd8282016130d7848801611ee0565b90613031565b019201611f15565b9061309a565b565b906130f7916130ba565b565b9061316a613171926131258361311e6131186131136133cc565b6103fc565b916103fc565b1115612f74565b61314b8161314461313e6131396000611f09565b610272565b91610272565b1415612ff8565b91613161613157613021565b9360008501611e3a565b60208301611e80565b60026130ed565b565b9061317c611c04565b506080604051019160208301604052600083528290600a6000198092955b01948181066030018653049384156131b95790600a919080929161319a565b93505082602091039203918252565b6131dc6131d76131e192611423565b610ae6565b6102a2565b90565b60016131f091016102a2565b90565b634e487b7160e01b600052603260045260246000fd5b9061321382610e9a565b811015613224576020809102010190565b6131f3565b61323390516102a2565b90565b61324261324791611da5565b6108ae565b90565b6132549054613236565b90565b61326661326c919392936102a2565b926102a2565b820391821161327757565b611f3e565b9061329161328c61329892610ae9565b61195a565b8254612c71565b9055565b6132ab6132b1919392936102a2565b926102a2565b82018092116132bc57565b611f3e565b6132d19093929193848391613a8a565b6132da83610e9a565b926132e560006131c8565b926132f060006131c8565b935b846133056132ff886102a2565b916102a2565b10156133825761337661337c9161335d613328613323888a90613209565b613229565b613357613348600161334261333d8d8c613209565b613229565b90610b05565b916133528361324a565b613257565b9061327c565b61337061336b878990613209565b613229565b9061329c565b946131e4565b936132f2565b915093506133a6925061339f915061339a600061324a565b613257565b600061327c565b565b600090565b90565b6133c46133bf6133c9926133ad565b610ae6565b6103fc565b90565b6133d46133a8565b506133e06127106133b0565b90565b6133eb611834565b50600090565b6133f9611834565b50600090565b5050949293909361340e6133f1565b61341b575b505050505050565b6134316134379361343d97969092939596612080565b50612080565b5061208e565b50388080808080613413565b9061346b6134666134709361345f818590613aa5565b6005612676565b61268e565b613b8c565b50565b61347b611df1565b503390565b906134a261349d6134a793613496818590613bc7565b6005612676565b61268e565b613c61565b50565b60007f455243323938313a20496e76616c696420706172616d65746572730000000000910152565b6134df601b602092610647565b6134e8816134aa565b0190565b61350290602081019060008183039101526134d2565b90565b1561350c57565b613514610252565b62461bcd60e51b81528061352a600482016134ec565b0390fd5b6135aa906135a36135af949361355e8561355761355161354c6133cc565b6103fc565b916103fc565b1115612f74565b6135848161357d6135776135726000611f09565b610272565b91610272565b1415613505565b9361359a613590613021565b9560008701611e3a565b60208501611e80565b6003611df6565b6130ed565b565b6135ff91926135cb613605956135f0939086849192613c9c565b6135e86135e1826135dc600061324a565b61329c565b600061327c565b926001610b05565b916135fa8361324a565b61329c565b9061327c565b565b919261362661366b969461361f61362d946008611b03565b6009611b03565b600a611b03565b61363f613638611448565b8290613449565b61365161364a61188f565b8290613449565b61366361365c6118e7565b8290613449565b919091613d9d565b565b90565b61367c61368191611da5565b610ae9565b90565b61369861369361369d926102a2565b610ae6565b610267565b90565b6136cc6136c76136d6936136c260006136d1956136bb611df1565b500161366d565b613e18565b613670565b613684565b6126b9565b90565b613714613729936136ef61372393858391613e3a565b61370c61370582613700600061324a565b613257565b600061327c565b926001610b05565b9161371e8361324a565b613257565b9061327c565b565b9261373c9194939085849192613e55565b61374583610e9a565b9161375060006131c8565b9061375b60006131c8565b915b8261377061376a876102a2565b916102a2565b10156137ee576137966137e89161379061378b878790613209565b613229565b9061329c565b926137e36137ad6137a8878490613209565b613229565b6137dd6137ce60016137c86137c38d8890613209565b613229565b90610b05565b916137d88361324a565b61329c565b9061327c565b6131e4565b9161375d565b91509350613812925061380b9150613806600061324a565b61329c565b600061327c565b565b61382c60006138319261382561180b565b500161366d565b613f98565b90565b9061383d61241d565b506040519160408301604052600183526020830152565b61385c611834565b50633e85e62f60e01b61387761387183610350565b91610350565b14908115613884575b5090565b61388e9150613fb0565b38613880565b61389c611834565b506138a681613fd7565b80156138eb575b80156138d0575b9081156138c0575b5090565b6138ca9150614017565b386138bc565b5060006138e56138df83610350565b91610350565b146138b4565b506138f581614017565b6138ad565b613902611834565b5061390c81614017565b908115613918575b5090565b6139229150614057565b38613914565b90565b61393f61393a61394492613928565b610ae6565b6102a2565b90565b60007f416363657373436f6e74726f6c3a206163636f756e7420000000000000000000910152565b61397b60178092611c09565b61398481613947565b0190565b60007f206973206d697373696e6720726f6c6520000000000000000000000000000000910152565b6139bc60118092611c09565b6139c581613988565b0190565b6139e36139ee93926139dd6139e89361396f565b90611c97565b6139b0565b90611c97565b90565b90613a06613a008383906126e9565b1561039f565b613a0e575050565b613a8691613a64613a3d613a2d613a27613a69956140e5565b93613670565b613a37602061392b565b906142fe565b91613a55613a49610252565b938492602084016139c9565b602082018103825203826105cf565b611d20565b613a71610252565b91829162461bcd60e51b8352600483016106a6565b0390fd5b9091613aa392613a9a6000611f09565b92909192614479565b565b613ab9613ab38284906126e9565b1561039f565b613ac2575b5050565b613ae56001613ae06000613ad860048690611d8d565b0185906126d1565b6125ab565b90613aee613473565b90613b2b613b25613b1f7f2f8788117e7eff1d82e926ec794901d17c78024a50270940304540a733656f0d95611d81565b926126c5565b926126c5565b92613b34610252565b80613b3e8161045f565b0390a43880613abe565b613b5190611b66565b90565b613b68613b63613b6d92610267565b610ae6565b6102a2565b90565b613b84613b7f613b89926102a2565b611426565b610a48565b90565b90613bbf613bb9613bb4613baf6000613bc496613ba7611834565b500194613b48565b613b54565b613b70565b9161366d565b614669565b90565b613bd28183906126e9565b613bdb575b5050565b613bfe6000613bf96000613bf160048690611d8d565b0185906126d1565b6125ab565b90613c07613473565b90613c44613c3e613c387ff6391f5c32d9c69d2a47ea670b442974b53935d1edc7fd64eb21e047a839171b95611d81565b926126c5565b926126c5565b92613c4d610252565b80613c578161045f565b0390a43880613bd7565b90613c94613c8e613c89613c846000613c9996613c7c611834565b500194613b48565b613b54565b613b70565b9161366d565b614729565b90565b91929092613ca86133e3565b613d84575b8260601b8015613d7657679a31110384e0b0c960205283601452846000526040600020805490838201918210613d6857558160205260601c6000337fc3d58168c5ae7397731d063d5bbf3d657854427343f4c083240f7aacaa2d0f62604083a4613d156133f1565b613d4f575b613d2383614833565b613d2e575b50505050565b613d4693613d3c6000611f09565b9390919293614840565b38808080613d28565b613d5884613834565b50613d6281613834565b50613d1a565b6301336cea6000526004601cfd5b63ea553b346000526004601cfd5b613d8d84613834565b50613d9781613834565b50613cad565b90613db3613db89392613dae611b27565b613449565b6148d9565b565b5490565b600052602060002090565b613dd281613dba565b821015613ded57613de4600191613dbe565b91020190600090565b6131f3565b613e02906008613e0793026108aa565b611dab565b90565b90613e159154613df2565b90565b613e37916000613e3192613e2a611d7c565b5001613dc9565b90613e0a565b90565b9091613e5392613e4a6000611f09565b929091926148f9565b565b91929092613e616133e3565b613f93575b8051845103613f85578260601b8015613f775780679a31110384e0b0c917602052845160051b805b613f4057506000604051604081527f4a39dc06d4c0dbc64b70af90fd698a233a518aa5d07e595d983b8c0526c8f7fb81885160051b602001604082019081818c60045afa503d60400160208301523d01865160051b60200181818960045afa503d01039360601c933392a4613f016133f1565b613f3b575b613f0f83614833565b613f1a575b50505050565b613f3293613f286000611f09565b93909192936149fd565b38808080613f14565b613f06565b8083015190808701516000526040600020918254908101908110613f6957602092550380613e8e565b6301336cea6000526004601cfd5b63ea553b346000526004601cfd5b633b800a466000526004601cfd5b613e66565b6000613fad91613fa661180b565b5001613dba565b90565b613fb8611834565b5060e01c630e89341c8114906301ffc9a763d9b67a2682149114171790565b613fdf611834565b5080613ffa613ff463152a902d60e11b610350565b91610350565b14908115614007575b5090565b6140119150614ab4565b38614003565b61401f611834565b508061403a614034635a05180f60e01b610350565b91610350565b14908115614047575b5090565b6140519150614ada565b38614043565b61405f611834565b508061407a614074634e821d3360e11b610350565b91610350565b14908115614087575b5090565b6140919150613894565b38614083565b90565b60ff1690565b6140b46140af6140b992614097565b610ae6565b61409a565b90565b6140c660146140a0565b90565b6140dd6140d86140e29261409a565b610ae6565b6102a2565b90565b6141026140fd614118926140f7611c04565b50613b48565b613b54565b61411261410d6140bc565b6140c9565b906142fe565b90565b90565b61413261412d6141379261411b565b610ae6565b6102a2565b90565b9061414c61414783611028565b6106fe565b918252565b369037565b9061417b6141638361413a565b926020806141718693611028565b9201910390614151565b565b600360fc1b90565b5190565b9061419382614185565b8110156141a557600160209102010190565b6131f3565b600f60fb1b90565b90565b6141c96141c46141ce926141b2565b610ae6565b6102a2565b90565b6141da906102a2565b600081146141e9576001900390565b611f3e565b6f181899199a1a9b1b9c1cb0b131b232b360811b90565b61420d6141ee565b90565b90565b61422761422261422c92614210565b610ae6565b6102a2565b90565b60f81b90565b90565b61424c61424761425192614235565b610ae6565b61409a565b90565b6142739061426d6142676142789461409a565b916102a2565b906108aa565b6102a2565b90565b60007f537472696e67733a20686578206c656e67746820696e73756666696369656e74910152565b6142af60208092610647565b6142b88161427b565b0190565b6142d290602081019060008183039101526142a3565b90565b156142dc57565b6142e4610252565b62461bcd60e51b8152806142fa600482016142bc565b0390fd5b9190614308611c04565b506143a261439261433e6143396143296002614324879161411e565b611f54565b614333600261411e565b9061329c565b614156565b9261434761417d565b6143608561435a60009360001a936131c8565b90614189565b536143696141aa565b6143828561437c60019360001a936141b5565b90614189565b5361438d600261411e565b611f54565b61439c60016141b5565b9061329c565b925b836143b86143b260016141b5565b916102a2565b111561441f576143c6614205565b816143d1600f614213565b1691601083101561441a576143ed61440e92614414941a61422f565b6143fd8591889060001a92614189565b536144086004614238565b90614254565b936141d1565b926143a4565b6131f3565b6144479293506144429061443c61443660006131c8565b916102a2565b146142d5565b611d20565b90565b9061445c61445783610713565b6106fe565b918252565b61446b600061444a565b90565b614476614461565b90565b919392906144856133e3565b6145b1575b81518551036145a35760601b9182679a31110384e0b0c9176020528060601b83811490151715614581575b50835160051b805b61454b57507f4a39dc06d4c0dbc64b70af90fd698a233a518aa5d07e595d983b8c0526c8f7fb6000939460405192839160408352805160051b60200180916040850192839160045afa503d60400160208401523d019081815160051b602001809260045afa503d01039260601c923392a46145366133f1565b61453d575b565b61454561446e565b5061453b565b80820151908086015160005260406000208054928381116145735760209303905503806144bd565b63f4d678b86000526004601cfd5b6000526034600c20541561459557386144b5565b634b6e7f186000526004601cfd5b633b800a466000526004601cfd5b6145b961446e565b5061448a565b90565b600052602060002090565b5490565b6145da816145cd565b8210156145f5576145ec6001916145c2565b91020190600090565b6131f3565b919061461061460b61461893611d81565b612c88565b908354611934565b9055565b908154916801000000000000000083101561464c578261464491600161464a950181556145d1565b906145fa565b565b6105b9565b9061465b90611d81565b600052602052604060002090565b614671611834565b50614686614680828490614b1a565b1561039f565b6000146146c9576146bf6146c4926146aa6146a3600085016145bf565b829061461c565b60016146b860008501613dba565b9301614651565b61327c565b600190565b5050600090565b634e487b7160e01b600052603160045260246000fd5b6146f8916146f2611d7c565b916145fa565b565b614703816145cd565b801561472457600190039061472161471b83836145d1565b906146e6565b55565b6146d0565b614731611834565b50614748614743600183018490614651565b61324a565b908161475d61475760006131c8565b916102a2565b141560001461482b576147dd9260016147d89284614786600096614780856141b5565b90613257565b6147a3614794888501613dba565b61479d866141b5565b90613257565b806147b66147b0846102a2565b916102a2565b036147e2575b5050506147d26147cd8683016145bf565b6146fa565b01614651565b61197f565b600190565b614823926148156148016147fb61481e948c8901613dc9565b90613e0a565b9361480f85918c8901613dc9565b906145fa565b91858501614651565b61327c565b3880806147bc565b505050600090565b61483b611834565b503b90565b919360209360405195869463f23a6e618652338787015260601b60601c60408601526060850152608084015260a08084015280518091818060c08701526148c5575b505060c401906000601c8401915af1156148b6575b63f23a6e6160e01b9051036148a857565b639c05499b6000526004601cfd5b3d15614897573d6000823e3d90fd5b818660e08701920160045afa508038614882565b906148f06148e96148f793611b8e565b6006611bc4565b6007612c94565b565b909291926149056133e3565b6149db575b60601b9081679a31110384e0b0c917602052818160601b148160601b1517156149b9575b50826000526040600020908154918284116149ab57836000930390558260205260601c337fc3d58168c5ae7397731d063d5bbf3d657854427343f4c083240f7aacaa2d0f62604084a461497f6133f1565b614988575b5050565b61499461499a92613834565b50613834565b506149a361446e565b503880614984565b63f4d678b86000526004601cfd5b6000526034600c2054156149cd573861492e565b634b6e7f186000526004601cfd5b6149e484613834565b506149ee83613834565b506149f761446e565b5061490a565b919360209360405195869463bc197c818652338787015260601b60601c604086015260a06060860152805160051b8601809160c0870192839160045afa503d60a001908160808701523d019182815160051b8801809260045afa503d0160a08501523d01908181518601809260045afa50601c8301903d0103906000601c8401915af115614aa5575b63bc197c8160e01b905103614a9757565b639c05499b6000526004601cfd5b3d15614a86573d6000823e3d90fd5b614abc611834565b50614ad6614ad06301ffc9a760e01b610350565b91610350565b1490565b614ae2611834565b5080614afd614af7637965db0b60e01b610350565b91610350565b14908115614b0a575b5090565b614b149150613fd7565b38614b06565b614b38916001614b3392614b2c611834565b5001614651565b61324a565b614b4b614b4560006131c8565b916102a2565b14159056fea26469706673582212201008807002fe6072ba72743479d7976a506937a4e756aa0aef6ad714bef8804e64736f6c634300081b003360806040523461002f576100196100146100fa565b61011b565b610021610034565b610722610380823961072290f35b61003a565b60405190565b600080fd5b601f801991011690565b634e487b7160e01b600052604160045260246000fd5b906100699061003f565b810190811060018060401b0382111761008157604052565b610049565b90610099610092610034565b928361005f565b565b600080fd5b60018060a01b031690565b6100b4906100a0565b90565b6100c0816100ab565b036100c757565b600080fd5b905051906100d9826100b7565b565b906020828203126100f5576100f2916000016100cc565b90565b61009b565b610118610aa28038038061010d81610086565b9283398101906100db565b90565b61012c9061012761012e565b61026e565b565b61013e610139610291565b6102d6565b565b60209181520190565b60207f6e206973206e6f74206120636f6e747261637400000000000000000000000000917f5570677261646561626c65426561636f6e3a20696d706c656d656e746174696f60008201520152565b6101a46033604092610140565b6101ad81610149565b0190565b6101c79060208101906000818303910152610197565b90565b156101d157565b6101d9610034565b62461bcd60e51b8152806101ef600482016101b1565b0390fd5b60001b90565b9061020a60018060a01b03916101f3565b9181191691161790565b90565b61022b610226610230926100a0565b610214565b6100a0565b90565b61023c90610217565b90565b61024890610233565b90565b90565b9061026361025e61026a9261023f565b61024b565b82546101f9565b9055565b61028a9061028361027e8261035e565b6101ca565b600161024e565b565b600090565b61029961028c565b503390565b60001c90565b60018060a01b031690565b6102bb6102c09161029e565b6102a4565b90565b6102cd90546102af565b90565b60000190565b6102e060006102c3565b6102eb82600061024e565b9061031f6103197f8be0079c531659141344cd1fd0a4f28419497f9722a3daafe3b4186f6b6457e09361023f565b9161023f565b91610328610034565b80610332816102d0565b0390a3565b600090565b90565b90565b61035661035161035b9261033f565b610214565b61033c565b90565b610366610337565b503b61037b6103756000610342565b9161033c565b119056fe60806040526004361015610013575b610219565b61001e60003561006d565b80633659cfe6146100685780635c60da1b14610063578063715018a61461005e5780638da5cb5b146100595763f2fde38b0361000e576101e6565b6101b1565b61017e565b610149565b6100e3565b60e01c90565b60405190565b600080fd5b600080fd5b60018060a01b031690565b61009790610083565b90565b6100a38161008e565b036100aa57565b600080fd5b905035906100bc8261009a565b565b906020828203126100d8576100d5916000016100af565b90565b61007e565b60000190565b34610111576100fb6100f63660046100be565b6102b3565b610103610073565b8061010d816100dd565b0390f35b610079565b600091031261012157565b61007e565b61012f9061008e565b9052565b919061014790600060208501940190610126565b565b3461017957610159366004610116565b6101756101646102f5565b61016c610073565b91829182610133565b0390f35b610079565b346101ac5761018e366004610116565b61019661035c565b61019e610073565b806101a8816100dd565b0390f35b610079565b346101e1576101c1366004610116565b6101dd6101cc610366565b6101d4610073565b91829182610133565b0390f35b610079565b34610214576101fe6101f93660046100be565b610473565b610206610073565b80610210816100dd565b0390f35b610079565b600080fd5b61022f9061022a610501565b610268565b565b90565b61024861024361024d92610083565b610231565b610083565b90565b61025990610234565b90565b61026590610250565b90565b6102718161061b565b61029b7fbc7cd75a20ee27fd9adebab32041f755214dbc6bffa90cc0225b39da2e5c2d3b9161025c565b906102a4610073565b806102ae816100dd565b0390a2565b6102bc9061021e565b565b600090565b60001c90565b60018060a01b031690565b6102e06102e5916102c3565b6102c9565b90565b6102f290546102d4565b90565b6102fd6102be565b5061030860016102e8565b90565b610313610501565b61031b610348565b565b90565b61033461032f6103399261031d565b610231565b610083565b90565b61034590610320565b90565b61035a610355600061033c565b610639565b565b61036461030b565b565b61036e6102be565b5061037960006102e8565b90565b61038d90610388610501565b610442565b565b60209181520190565b60207f6464726573730000000000000000000000000000000000000000000000000000917f4f776e61626c653a206e6577206f776e657220697320746865207a65726f206160008201520152565b6103f3602660409261038f565b6103fc81610398565b0190565b61041690602081019060008183039101526103e6565b90565b1561042057565b610428610073565b62461bcd60e51b81528061043e60048201610400565b0390fd5b6104719061046c8161046561045f61045a600061033c565b61008e565b9161008e565b1415610419565b610639565b565b61047c9061037c565b565b60007f4f776e61626c653a2063616c6c6572206973206e6f7420746865206f776e6572910152565b6104b26020809261038f565b6104bb8161047e565b0190565b6104d590602081019060008183039101526104a6565b90565b156104df57565b6104e7610073565b62461bcd60e51b8152806104fd600482016104bf565b0390fd5b61052b61050c610366565b61052561051f61051a61069a565b61008e565b9161008e565b146104d8565b565b60207f6e206973206e6f74206120636f6e747261637400000000000000000000000000917f5570677261646561626c65426561636f6e3a20696d706c656d656e746174696f60008201520152565b610588603360409261038f565b6105918161052d565b0190565b6105ab906020810190600081830391015261057b565b90565b156105b557565b6105bd610073565b62461bcd60e51b8152806105d360048201610595565b0390fd5b60001b90565b906105ee60018060a01b03916105d7565b9181191691161790565b90565b9061061061060b6106179261025c565b6105f8565b82546105dd565b9055565b6106379061063061062b826106cb565b6105ae565b60016105fb565b565b61064360006102e8565b61064e8260006105fb565b9061068261067c7f8be0079c531659141344cd1fd0a4f28419497f9722a3daafe3b4186f6b6457e09361025c565b9161025c565b9161068b610073565b80610695816100dd565b0390a3565b6106a26102be565b503390565b600090565b90565b6106c36106be6106c89261031d565b610231565b6106ac565b90565b6106d36106a7565b503b6106e86106e260006106af565b916106ac565b119056fea26469706673582212203fbf94b3aa182e7120f7ee578f52eecce106fbe2a323e7e4f1511d9f27768ead64736f6c634300081b0033",
          "opcodes": "PUSH1 0x80 PUSH1 0x40 MSTORE CALLVALUE PUSH2 0x2F JUMPI PUSH2 0x19 PUSH2 0x14 PUSH2 0xFA JUMP JUMPDEST PUSH2 0x169 JUMP JUMPDEST PUSH2 0x21 PUSH2 0x34 JUMP JUMPDEST PUSH2 0x271A PUSH2 0x397 DUP3 CODECOPY PUSH2 0x271A SWAP1 RETURN JUMPDEST PUSH2 0x3A JUMP JUMPDEST PUSH1 0x40 MLOAD SWAP1 JUMP JUMPDEST PUSH1 0x0 DUP1 REVERT JUMPDEST PUSH1 0x1F DUP1 NOT SWAP2 ADD AND SWAP1 JUMP JUMPDEST PUSH4 0x4E487B71 PUSH1 0xE0 SHL PUSH1 0x0 MSTORE PUSH1 0x41 PUSH1 0x4 MSTORE PUSH1 0x24 PUSH1 0x0 REVERT JUMPDEST SWAP1 PUSH2 0x69 SWAP1 PUSH2 0x3F JUMP JUMPDEST DUP2 ADD SWAP1 DUP2 LT PUSH1 0x1 DUP1 PUSH1 0x40 SHL SUB DUP3 GT OR PUSH2 0x81 JUMPI PUSH1 0x40 MSTORE JUMP JUMPDEST PUSH2 0x49 JUMP JUMPDEST SWAP1 PUSH2 0x99 PUSH2 0x92 PUSH2 0x34 JUMP JUMPDEST SWAP3 DUP4 PUSH2 0x5F JUMP JUMPDEST JUMP JUMPDEST PUSH1 0x0 DUP1 REVERT JUMPDEST PUSH1 0x1 DUP1 PUSH1 0xA0 SHL SUB AND SWAP1 JUMP JUMPDEST PUSH2 0xB4 SWAP1 PUSH2 0xA0 JUMP JUMPDEST SWAP1 JUMP JUMPDEST PUSH2 0xC0 DUP2 PUSH2 0xAB JUMP JUMPDEST SUB PUSH2 0xC7 JUMPI JUMP JUMPDEST PUSH1 0x0 DUP1 REVERT JUMPDEST SWAP1 POP MLOAD SWAP1 PUSH2 0xD9 DUP3 PUSH2 0xB7 JUMP JUMPDEST JUMP JUMPDEST SWAP1 PUSH1 0x20 DUP3 DUP3 SUB SLT PUSH2 0xF5 JUMPI PUSH2 0xF2 SWAP2 PUSH1 0x0 ADD PUSH2 0xCC JUMP JUMPDEST SWAP1 JUMP JUMPDEST PUSH2 0x9B JUMP JUMPDEST PUSH2 0x118 PUSH2 0x811A DUP1 CODESIZE SUB DUP1 PUSH2 0x10D DUP2 PUSH2 0x86 JUMP JUMPDEST SWAP3 DUP4 CODECOPY DUP2 ADD SWAP1 PUSH2 0xDB JUMP JUMPDEST SWAP1 JUMP JUMPDEST PUSH1 0x0 ADD SWAP1 JUMP JUMPDEST PUSH2 0x129 PUSH2 0x34 JUMP JUMPDEST RETURNDATASIZE PUSH1 0x0 DUP3 RETURNDATACOPY RETURNDATASIZE SWAP1 REVERT JUMPDEST SWAP1 JUMP JUMPDEST PUSH2 0x149 PUSH2 0x144 PUSH2 0x14E SWAP3 PUSH2 0xA0 JUMP JUMPDEST PUSH2 0x132 JUMP JUMPDEST PUSH2 0xA0 JUMP JUMPDEST SWAP1 JUMP JUMPDEST PUSH2 0x15A SWAP1 PUSH2 0x135 JUMP JUMPDEST SWAP1 JUMP JUMPDEST PUSH2 0x166 SWAP1 PUSH2 0x151 JUMP JUMPDEST SWAP1 JUMP JUMPDEST PUSH2 0x171 PUSH2 0x1CA JUMP JUMPDEST PUSH2 0x179 PUSH2 0x34 JUMP JUMPDEST PUSH2 0x4BC7 DUP2 ADD DUP2 DUP2 LT PUSH1 0x1 DUP1 PUSH1 0x40 SHL SUB DUP3 GT OR PUSH2 0x1C5 JUMPI PUSH2 0x1A1 DUP3 SWAP2 PUSH2 0x4BC7 PUSH2 0x2AB1 DUP5 CODECOPY PUSH2 0x11B JUMP JUMPDEST SUB SWAP1 PUSH1 0x0 CREATE SWAP1 DUP2 ISZERO PUSH2 0x1C0 JUMPI PUSH2 0x1B9 PUSH2 0x1BE SWAP3 PUSH2 0x15D JUMP JUMPDEST PUSH2 0x265 JUMP JUMPDEST JUMP JUMPDEST PUSH2 0x121 JUMP JUMPDEST PUSH2 0x49 JUMP JUMPDEST PUSH2 0x1D2 PUSH2 0x1D4 JUMP JUMPDEST JUMP JUMPDEST PUSH2 0x1E4 PUSH2 0x1DF PUSH2 0x2C7 JUMP JUMPDEST PUSH2 0x335 JUMP JUMPDEST JUMP JUMPDEST PUSH2 0x1EF SWAP1 PUSH2 0xAB JUMP JUMPDEST SWAP1 MSTORE JUMP JUMPDEST SWAP2 SWAP1 PUSH2 0x207 SWAP1 PUSH1 0x0 PUSH1 0x20 DUP6 ADD SWAP5 ADD SWAP1 PUSH2 0x1E6 JUMP JUMPDEST JUMP JUMPDEST PUSH1 0x0 SHL SWAP1 JUMP JUMPDEST SWAP1 PUSH2 0x220 PUSH1 0x1 DUP1 PUSH1 0xA0 SHL SUB SWAP2 PUSH2 0x209 JUMP JUMPDEST SWAP2 DUP2 NOT AND SWAP2 AND OR SWAP1 JUMP JUMPDEST PUSH2 0x233 SWAP1 PUSH2 0x135 JUMP JUMPDEST SWAP1 JUMP JUMPDEST PUSH2 0x23F SWAP1 PUSH2 0x22A JUMP JUMPDEST SWAP1 JUMP JUMPDEST SWAP1 JUMP JUMPDEST SWAP1 PUSH2 0x25A PUSH2 0x255 PUSH2 0x261 SWAP3 PUSH2 0x236 JUMP JUMPDEST PUSH2 0x242 JUMP JUMPDEST DUP3 SLOAD PUSH2 0x20F JUMP JUMPDEST SWAP1 SSTORE JUMP JUMPDEST PUSH2 0x26D PUSH2 0x34 JUMP JUMPDEST SWAP1 PUSH2 0xAA2 DUP3 ADD DUP3 DUP2 LT PUSH1 0x1 DUP1 PUSH1 0x40 SHL SUB DUP3 GT OR PUSH2 0x2BD JUMPI DUP3 SWAP2 PUSH2 0x297 SWAP2 PUSH2 0xAA2 PUSH2 0x7678 DUP6 CODECOPY PUSH2 0x1F3 JUMP JUMPDEST SUB SWAP1 PUSH1 0x0 CREATE SWAP1 DUP2 ISZERO PUSH2 0x2B8 JUMPI PUSH2 0x2B1 PUSH2 0x2B6 SWAP3 PUSH1 0x1 PUSH2 0x245 JUMP JUMPDEST PUSH2 0x335 JUMP JUMPDEST JUMP JUMPDEST PUSH2 0x121 JUMP JUMPDEST PUSH2 0x49 JUMP JUMPDEST PUSH1 0x0 SWAP1 JUMP JUMPDEST PUSH2 0x2CF PUSH2 0x2C2 JUMP JUMPDEST POP CALLER SWAP1 JUMP JUMPDEST PUSH1 0x0 SHR SWAP1 JUMP JUMPDEST PUSH1 0x1 DUP1 PUSH1 0xA0 SHL SUB AND SWAP1 JUMP JUMPDEST PUSH2 0x2F1 PUSH2 0x2F6 SWAP2 PUSH2 0x2D4 JUMP JUMPDEST PUSH2 0x2DA JUMP JUMPDEST SWAP1 JUMP JUMPDEST PUSH2 0x303 SWAP1 SLOAD PUSH2 0x2E5 JUMP JUMPDEST SWAP1 JUMP JUMPDEST PUSH2 0x30F SWAP1 PUSH2 0x151 JUMP JUMPDEST SWAP1 JUMP JUMPDEST SWAP1 JUMP JUMPDEST SWAP1 PUSH2 0x32A PUSH2 0x325 PUSH2 0x331 SWAP3 PUSH2 0x306 JUMP JUMPDEST PUSH2 0x312 JUMP JUMPDEST DUP3 SLOAD PUSH2 0x20F JUMP JUMPDEST SWAP1 SSTORE JUMP JUMPDEST PUSH2 0x33F PUSH1 0x0 PUSH2 0x2F9 JUMP JUMPDEST PUSH2 0x34A DUP3 PUSH1 0x0 PUSH2 0x315 JUMP JUMPDEST SWAP1 PUSH2 0x37E PUSH2 0x378 PUSH32 0x8BE0079C531659141344CD1FD0A4F28419497F9722A3DAAFE3B4186F6B6457E0 SWAP4 PUSH2 0x306 JUMP JUMPDEST SWAP2 PUSH2 0x306 JUMP JUMPDEST SWAP2 PUSH2 0x387 PUSH2 0x34 JUMP JUMPDEST DUP1 PUSH2 0x391 DUP2 PUSH2 0x11B JUMP JUMPDEST SUB SWAP1 LOG3 JUMP INVALID PUSH1 0x80 PUSH1 0x40 MSTORE PUSH1 0x4 CALLDATASIZE LT ISZERO PUSH2 0x13 JUMPI JUMPDEST PUSH2 0x580 JUMP JUMPDEST PUSH2 0x1E PUSH1 0x0 CALLDATALOAD PUSH2 0x8D JUMP JUMPDEST DUP1 PUSH4 0x1BCE4583 EQ PUSH2 0x88 JUMPI DUP1 PUSH4 0x59659E90 EQ PUSH2 0x83 JUMPI DUP1 PUSH4 0x59A347BD EQ PUSH2 0x7E JUMPI DUP1 PUSH4 0x715018A6 EQ PUSH2 0x79 JUMPI DUP1 PUSH4 0x8DA5CB5B EQ PUSH2 0x74 JUMPI DUP1 PUSH4 0xCFCC5941 EQ PUSH2 0x6F JUMPI PUSH4 0xF2FDE38B SUB PUSH2 0xE JUMPI PUSH2 0x54D JUMP JUMPDEST PUSH2 0x50E JUMP JUMPDEST PUSH2 0x4D9 JUMP JUMPDEST PUSH2 0x4A6 JUMP JUMPDEST PUSH2 0x467 JUMP JUMPDEST PUSH2 0x1EA JUMP JUMPDEST PUSH2 0x108 JUMP JUMPDEST PUSH1 0xE0 SHR SWAP1 JUMP JUMPDEST PUSH1 0x40 MLOAD SWAP1 JUMP JUMPDEST PUSH1 0x0 DUP1 REVERT JUMPDEST PUSH1 0x0 DUP1 REVERT JUMPDEST PUSH1 0x0 DUP1 REVERT JUMPDEST PUSH1 0x1 DUP1 PUSH1 0xA0 SHL SUB AND SWAP1 JUMP JUMPDEST PUSH2 0xBC SWAP1 PUSH2 0xA8 JUMP JUMPDEST SWAP1 JUMP JUMPDEST PUSH2 0xC8 DUP2 PUSH2 0xB3 JUMP JUMPDEST SUB PUSH2 0xCF JUMPI JUMP JUMPDEST PUSH1 0x0 DUP1 REVERT JUMPDEST SWAP1 POP CALLDATALOAD SWAP1 PUSH2 0xE1 DUP3 PUSH2 0xBF JUMP JUMPDEST JUMP JUMPDEST SWAP1 PUSH1 0x20 DUP3 DUP3 SUB SLT PUSH2 0xFD JUMPI PUSH2 0xFA SWAP2 PUSH1 0x0 ADD PUSH2 0xD4 JUMP JUMPDEST SWAP1 JUMP JUMPDEST PUSH2 0x9E JUMP JUMPDEST PUSH1 0x0 ADD SWAP1 JUMP JUMPDEST CALLVALUE PUSH2 0x136 JUMPI PUSH2 0x120 PUSH2 0x11B CALLDATASIZE PUSH1 0x4 PUSH2 0xE3 JUMP JUMPDEST PUSH2 0x67E JUMP JUMPDEST PUSH2 0x128 PUSH2 0x93 JUMP JUMPDEST DUP1 PUSH2 0x132 DUP2 PUSH2 0x102 JUMP JUMPDEST SUB SWAP1 RETURN JUMPDEST PUSH2 0x99 JUMP JUMPDEST PUSH1 0x0 SWAP2 SUB SLT PUSH2 0x146 JUMPI JUMP JUMPDEST PUSH2 0x9E JUMP JUMPDEST SHR SWAP1 JUMP JUMPDEST PUSH1 0x1 DUP1 PUSH1 0xA0 SHL SUB AND SWAP1 JUMP JUMPDEST PUSH2 0x16A SWAP1 PUSH1 0x8 PUSH2 0x16F SWAP4 MUL PUSH2 0x14B JUMP JUMPDEST PUSH2 0x14F JUMP JUMPDEST SWAP1 JUMP JUMPDEST SWAP1 PUSH2 0x17D SWAP2 SLOAD PUSH2 0x15A JUMP JUMPDEST SWAP1 JUMP JUMPDEST PUSH2 0x18D PUSH1 0x1 PUSH1 0x0 SWAP1 PUSH2 0x172 JUMP JUMPDEST SWAP1 JUMP JUMPDEST SWAP1 JUMP JUMPDEST PUSH2 0x1A7 PUSH2 0x1A2 PUSH2 0x1AC SWAP3 PUSH2 0xA8 JUMP JUMPDEST PUSH2 0x190 JUMP JUMPDEST PUSH2 0xA8 JUMP JUMPDEST SWAP1 JUMP JUMPDEST PUSH2 0x1B8 SWAP1 PUSH2 0x193 JUMP JUMPDEST SWAP1 JUMP JUMPDEST PUSH2 0x1C4 SWAP1 PUSH2 0x1AF JUMP JUMPDEST SWAP1 JUMP JUMPDEST PUSH2 0x1D0 SWAP1 PUSH2 0x1BB JUMP JUMPDEST SWAP1 MSTORE JUMP JUMPDEST SWAP2 SWAP1 PUSH2 0x1E8 SWAP1 PUSH1 0x0 PUSH1 0x20 DUP6 ADD SWAP5 ADD SWAP1 PUSH2 0x1C7 JUMP JUMPDEST JUMP JUMPDEST CALLVALUE PUSH2 0x21A JUMPI PUSH2 0x1FA CALLDATASIZE PUSH1 0x4 PUSH2 0x13B JUMP JUMPDEST PUSH2 0x216 PUSH2 0x205 PUSH2 0x180 JUMP JUMPDEST PUSH2 0x20D PUSH2 0x93 JUMP JUMPDEST SWAP2 DUP3 SWAP2 DUP3 PUSH2 0x1D4 JUMP JUMPDEST SUB SWAP1 RETURN JUMPDEST PUSH2 0x99 JUMP JUMPDEST PUSH1 0x0 DUP1 REVERT JUMPDEST PUSH1 0x0 DUP1 REVERT JUMPDEST PUSH1 0x1F DUP1 NOT SWAP2 ADD AND SWAP1 JUMP JUMPDEST PUSH4 0x4E487B71 PUSH1 0xE0 SHL PUSH1 0x0 MSTORE PUSH1 0x41 PUSH1 0x4 MSTORE PUSH1 0x24 PUSH1 0x0 REVERT JUMPDEST SWAP1 PUSH2 0x253 SWAP1 PUSH2 0x229 JUMP JUMPDEST DUP2 ADD SWAP1 DUP2 LT PUSH8 0xFFFFFFFFFFFFFFFF DUP3 GT OR PUSH2 0x26D JUMPI PUSH1 0x40 MSTORE JUMP JUMPDEST PUSH2 0x233 JUMP JUMPDEST SWAP1 PUSH2 0x285 PUSH2 0x27E PUSH2 0x93 JUMP JUMPDEST SWAP3 DUP4 PUSH2 0x249 JUMP JUMPDEST JUMP JUMPDEST PUSH8 0xFFFFFFFFFFFFFFFF DUP2 GT PUSH2 0x2A5 JUMPI PUSH2 0x2A1 PUSH1 0x20 SWAP2 PUSH2 0x229 JUMP JUMPDEST ADD SWAP1 JUMP JUMPDEST PUSH2 0x233 JUMP JUMPDEST SWAP1 DUP3 PUSH1 0x0 SWAP4 SWAP3 DUP3 CALLDATACOPY ADD MSTORE JUMP JUMPDEST SWAP1 SWAP3 SWAP2 SWAP3 PUSH2 0x2CB PUSH2 0x2C6 DUP3 PUSH2 0x287 JUMP JUMPDEST PUSH2 0x272 JUMP JUMPDEST SWAP4 DUP2 DUP6 MSTORE PUSH1 0x20 DUP6 ADD SWAP1 DUP3 DUP5 ADD GT PUSH2 0x2E7 JUMPI PUSH2 0x2E5 SWAP3 PUSH2 0x2AA JUMP JUMPDEST JUMP JUMPDEST PUSH2 0x224 JUMP JUMPDEST SWAP1 DUP1 PUSH1 0x1F DUP4 ADD SLT ISZERO PUSH2 0x30A JUMPI DUP2 PUSH1 0x20 PUSH2 0x307 SWAP4 CALLDATALOAD SWAP2 ADD PUSH2 0x2B6 JUMP JUMPDEST SWAP1 JUMP JUMPDEST PUSH2 0x21F JUMP JUMPDEST PUSH12 0xFFFFFFFFFFFFFFFFFFFFFFFF AND SWAP1 JUMP JUMPDEST PUSH2 0x329 DUP2 PUSH2 0x30F JUMP JUMPDEST SUB PUSH2 0x330 JUMPI JUMP JUMPDEST PUSH1 0x0 DUP1 REVERT JUMPDEST SWAP1 POP CALLDATALOAD SWAP1 PUSH2 0x342 DUP3 PUSH2 0x320 JUMP JUMPDEST JUMP JUMPDEST SWAP1 JUMP JUMPDEST PUSH2 0x350 DUP2 PUSH2 0x344 JUMP JUMPDEST SUB PUSH2 0x357 JUMPI JUMP JUMPDEST PUSH1 0x0 DUP1 REVERT JUMPDEST SWAP1 POP CALLDATALOAD SWAP1 PUSH2 0x369 DUP3 PUSH2 0x347 JUMP JUMPDEST JUMP JUMPDEST SWAP1 SWAP2 PUSH2 0x120 DUP3 DUP5 SUB SLT PUSH2 0x43F JUMPI PUSH2 0x385 DUP4 PUSH1 0x0 DUP5 ADD PUSH2 0xD4 JUMP JUMPDEST SWAP3 PUSH2 0x393 DUP2 PUSH1 0x20 DUP6 ADD PUSH2 0xD4 JUMP JUMPDEST SWAP3 PUSH1 0x40 DUP2 ADD CALLDATALOAD PUSH8 0xFFFFFFFFFFFFFFFF DUP2 GT PUSH2 0x43A JUMPI DUP3 PUSH2 0x3B4 SWAP2 DUP4 ADD PUSH2 0x2EC JUMP JUMPDEST SWAP3 PUSH1 0x60 DUP3 ADD CALLDATALOAD PUSH8 0xFFFFFFFFFFFFFFFF DUP2 GT PUSH2 0x435 JUMPI DUP4 PUSH2 0x3D5 SWAP2 DUP5 ADD PUSH2 0x2EC JUMP JUMPDEST SWAP3 PUSH1 0x80 DUP4 ADD CALLDATALOAD PUSH8 0xFFFFFFFFFFFFFFFF DUP2 GT PUSH2 0x430 JUMPI DUP2 PUSH2 0x3F6 SWAP2 DUP6 ADD PUSH2 0x2EC JUMP JUMPDEST SWAP3 PUSH2 0x404 DUP3 PUSH1 0xA0 DUP4 ADD PUSH2 0xD4 JUMP JUMPDEST SWAP3 PUSH2 0x42D PUSH2 0x415 DUP5 PUSH1 0xC0 DUP6 ADD PUSH2 0x335 JUMP JUMPDEST SWAP4 PUSH2 0x423 DUP2 PUSH1 0xE0 DUP7 ADD PUSH2 0xD4 JUMP JUMPDEST SWAP4 PUSH2 0x100 ADD PUSH2 0x35C JUMP JUMPDEST SWAP1 JUMP JUMPDEST PUSH2 0xA3 JUMP JUMPDEST PUSH2 0xA3 JUMP JUMPDEST PUSH2 0xA3 JUMP JUMPDEST PUSH2 0x9E JUMP JUMPDEST PUSH2 0x44D SWAP1 PUSH2 0xB3 JUMP JUMPDEST SWAP1 MSTORE JUMP JUMPDEST SWAP2 SWAP1 PUSH2 0x465 SWAP1 PUSH1 0x0 PUSH1 0x20 DUP6 ADD SWAP5 ADD SWAP1 PUSH2 0x444 JUMP JUMPDEST JUMP JUMPDEST CALLVALUE PUSH2 0x4A1 JUMPI PUSH2 0x49D PUSH2 0x48C PUSH2 0x47D CALLDATASIZE PUSH1 0x4 PUSH2 0x36B JUMP JUMPDEST SWAP8 SWAP7 SWAP1 SWAP7 SWAP6 SWAP2 SWAP6 SWAP5 SWAP3 SWAP5 PUSH2 0x7EE JUMP JUMPDEST PUSH2 0x494 PUSH2 0x93 JUMP JUMPDEST SWAP2 DUP3 SWAP2 DUP3 PUSH2 0x451 JUMP JUMPDEST SUB SWAP1 RETURN JUMPDEST PUSH2 0x99 JUMP JUMPDEST CALLVALUE PUSH2 0x4D4 JUMPI PUSH2 0x4B6 CALLDATASIZE PUSH1 0x4 PUSH2 0x13B JUMP JUMPDEST PUSH2 0x4BE PUSH2 0x985 JUMP JUMPDEST PUSH2 0x4C6 PUSH2 0x93 JUMP JUMPDEST DUP1 PUSH2 0x4D0 DUP2 PUSH2 0x102 JUMP JUMPDEST SUB SWAP1 RETURN JUMPDEST PUSH2 0x99 JUMP JUMPDEST CALLVALUE PUSH2 0x509 JUMPI PUSH2 0x4E9 CALLDATASIZE PUSH1 0x4 PUSH2 0x13B JUMP JUMPDEST PUSH2 0x505 PUSH2 0x4F4 PUSH2 0x9BB JUMP JUMPDEST PUSH2 0x4FC PUSH2 0x93 JUMP JUMPDEST SWAP2 DUP3 SWAP2 DUP3 PUSH2 0x451 JUMP JUMPDEST SUB SWAP1 RETURN JUMPDEST PUSH2 0x99 JUMP JUMPDEST CALLVALUE PUSH2 0x548 JUMPI PUSH2 0x544 PUSH2 0x533 PUSH2 0x524 CALLDATASIZE PUSH1 0x4 PUSH2 0x36B JUMP JUMPDEST SWAP8 SWAP7 SWAP1 SWAP7 SWAP6 SWAP2 SWAP6 SWAP5 SWAP3 SWAP5 PUSH2 0x9D1 JUMP JUMPDEST PUSH2 0x53B PUSH2 0x93 JUMP JUMPDEST SWAP2 DUP3 SWAP2 DUP3 PUSH2 0x451 JUMP JUMPDEST SUB SWAP1 RETURN JUMPDEST PUSH2 0x99 JUMP JUMPDEST CALLVALUE PUSH2 0x57B JUMPI PUSH2 0x565 PUSH2 0x560 CALLDATASIZE PUSH1 0x4 PUSH2 0xE3 JUMP JUMPDEST PUSH2 0xB2A JUMP JUMPDEST PUSH2 0x56D PUSH2 0x93 JUMP JUMPDEST DUP1 PUSH2 0x577 DUP2 PUSH2 0x102 JUMP JUMPDEST SUB SWAP1 RETURN JUMPDEST PUSH2 0x99 JUMP JUMPDEST PUSH1 0x0 DUP1 REVERT JUMPDEST PUSH2 0x596 SWAP1 PUSH2 0x591 PUSH2 0xBB8 JUMP JUMPDEST PUSH2 0x5EB JUMP JUMPDEST JUMP JUMPDEST PUSH1 0x0 SHR SWAP1 JUMP JUMPDEST PUSH2 0x5AA PUSH2 0x5AF SWAP2 PUSH2 0x598 JUMP JUMPDEST PUSH2 0x14F JUMP JUMPDEST SWAP1 JUMP JUMPDEST PUSH2 0x5BC SWAP1 SLOAD PUSH2 0x59E JUMP JUMPDEST SWAP1 JUMP JUMPDEST PUSH1 0x0 DUP1 REVERT JUMPDEST PUSH1 0xE0 SHL SWAP1 JUMP JUMPDEST PUSH1 0x0 SWAP2 SUB SLT PUSH2 0x5D5 JUMPI JUMP JUMPDEST PUSH2 0x9E JUMP JUMPDEST PUSH2 0x5E2 PUSH2 0x93 JUMP JUMPDEST RETURNDATASIZE PUSH1 0x0 DUP3 RETURNDATACOPY RETURNDATASIZE SWAP1 REVERT JUMPDEST PUSH2 0x5FD PUSH2 0x5F8 PUSH1 0x1 PUSH2 0x5B2 JUMP JUMPDEST PUSH2 0x1BB JUMP JUMPDEST SWAP1 PUSH4 0x3659CFE6 SWAP1 DUP3 EXTCODESIZE ISZERO PUSH2 0x679 JUMPI PUSH2 0x635 SWAP3 PUSH2 0x62A PUSH1 0x0 DUP1 SWAP5 PUSH2 0x61E PUSH2 0x93 JUMP JUMPDEST SWAP7 DUP8 SWAP6 DUP7 SWAP5 DUP6 SWAP4 PUSH2 0x5C4 JUMP JUMPDEST DUP4 MSTORE PUSH1 0x4 DUP4 ADD PUSH2 0x451 JUMP JUMPDEST SUB SWAP3 GAS CALL DUP1 ISZERO PUSH2 0x674 JUMPI PUSH2 0x647 JUMPI JUMPDEST POP JUMP JUMPDEST PUSH2 0x667 SWAP1 PUSH1 0x0 RETURNDATASIZE DUP2 GT PUSH2 0x66D JUMPI JUMPDEST PUSH2 0x65F DUP2 DUP4 PUSH2 0x249 JUMP JUMPDEST DUP2 ADD SWAP1 PUSH2 0x5CA JUMP JUMPDEST CODESIZE PUSH2 0x644 JUMP JUMPDEST POP RETURNDATASIZE PUSH2 0x655 JUMP JUMPDEST PUSH2 0x5DA JUMP JUMPDEST PUSH2 0x5BF JUMP JUMPDEST PUSH2 0x687 SWAP1 PUSH2 0x585 JUMP JUMPDEST JUMP JUMPDEST PUSH1 0x0 SWAP1 JUMP JUMPDEST MLOAD SWAP1 JUMP JUMPDEST PUSH1 0x20 SWAP2 DUP2 MSTORE ADD SWAP1 JUMP JUMPDEST PUSH1 0x0 JUMPDEST DUP4 DUP2 LT PUSH2 0x6AF JUMPI POP POP SWAP1 PUSH1 0x0 SWAP2 ADD MSTORE JUMP JUMPDEST DUP1 PUSH1 0x20 SWAP2 DUP4 ADD MLOAD DUP2 DUP6 ADD MSTORE ADD PUSH2 0x69E JUMP JUMPDEST PUSH2 0x6DF PUSH2 0x6E8 PUSH1 0x20 SWAP4 PUSH2 0x6ED SWAP4 PUSH2 0x6D6 DUP2 PUSH2 0x68E JUMP JUMPDEST SWAP4 DUP5 DUP1 SWAP4 PUSH2 0x692 JUMP JUMPDEST SWAP6 DUP7 SWAP2 ADD PUSH2 0x69B JUMP JUMPDEST PUSH2 0x229 JUMP JUMPDEST ADD SWAP1 JUMP JUMPDEST PUSH2 0x6FA SWAP1 PUSH2 0x30F JUMP JUMPDEST SWAP1 MSTORE JUMP JUMPDEST PUSH2 0x707 SWAP1 PUSH2 0x344 JUMP JUMPDEST SWAP1 MSTORE JUMP JUMPDEST SWAP4 SWAP6 PUSH2 0x774 PUSH2 0x769 PUSH1 0xE0 SWAP8 SWAP12 SWAP11 SWAP9 PUSH2 0x75B PUSH2 0x788 SWAP8 PUSH2 0x74D DUP11 PUSH2 0x78F SWAP15 SWAP10 PUSH2 0x73F PUSH2 0x77E SWAP11 PUSH1 0x0 PUSH2 0x100 DUP6 ADD SWAP5 ADD SWAP1 PUSH2 0x444 JUMP JUMPDEST DUP13 PUSH1 0x20 DUP2 DUP5 SUB SWAP2 ADD MSTORE PUSH2 0x6C0 JUMP JUMPDEST SWAP1 DUP11 DUP3 SUB PUSH1 0x40 DUP13 ADD MSTORE PUSH2 0x6C0 JUMP JUMPDEST SWAP1 DUP9 DUP3 SUB PUSH1 0x60 DUP11 ADD MSTORE PUSH2 0x6C0 JUMP JUMPDEST SWAP11 PUSH1 0x80 DUP8 ADD SWAP1 PUSH2 0x444 JUMP JUMPDEST PUSH1 0xA0 DUP6 ADD SWAP1 PUSH2 0x6F1 JUMP JUMPDEST PUSH1 0xC0 DUP4 ADD SWAP1 PUSH2 0x444 JUMP JUMPDEST ADD SWAP1 PUSH2 0x6FE JUMP JUMPDEST JUMP JUMPDEST PUSH1 0x20 ADD SWAP1 JUMP JUMPDEST MLOAD SWAP1 JUMP JUMPDEST SWAP1 PUSH2 0x7AD PUSH2 0x7A8 DUP4 PUSH2 0x287 JUMP JUMPDEST PUSH2 0x272 JUMP JUMPDEST SWAP2 DUP3 MSTORE JUMP JUMPDEST PUSH2 0x7BC PUSH1 0x0 PUSH2 0x79B JUMP JUMPDEST SWAP1 JUMP JUMPDEST PUSH2 0x7C7 PUSH2 0x7B2 JUMP JUMPDEST SWAP1 JUMP JUMPDEST PUSH2 0x7D3 SWAP1 PUSH2 0x193 JUMP JUMPDEST SWAP1 JUMP JUMPDEST PUSH2 0x7DF SWAP1 PUSH2 0x7CA JUMP JUMPDEST SWAP1 JUMP JUMPDEST PUSH2 0x7EB SWAP1 PUSH2 0x1AF JUMP JUMPDEST SWAP1 JUMP JUMPDEST PUSH2 0x85E SWAP1 SWAP9 SWAP5 SWAP9 SWAP8 SWAP7 SWAP4 SWAP8 SWAP6 SWAP3 SWAP6 PUSH2 0x804 PUSH2 0x689 JUMP JUMPDEST POP DUP9 PUSH2 0x83C DUP5 PUSH2 0x82D DUP14 DUP11 DUP14 DUP14 SWAP7 SWAP3 DUP12 SWAP1 DUP14 SWAP3 SWAP4 SWAP5 PUSH2 0x821 PUSH2 0x93 JUMP JUMPDEST SWAP10 DUP11 SWAP9 PUSH1 0x20 DUP11 ADD PUSH2 0x70B JUMP JUMPDEST PUSH1 0x20 DUP3 ADD DUP2 SUB DUP3 MSTORE SUB DUP3 PUSH2 0x249 JUMP JUMPDEST PUSH2 0x84E PUSH2 0x848 DUP3 PUSH2 0x797 JUMP JUMPDEST SWAP2 PUSH2 0x791 JUMP JUMPDEST KECCAK256 SWAP1 PUSH2 0x858 PUSH2 0x7BF JUMP JUMPDEST SWAP2 PUSH2 0xD5D JUMP JUMPDEST SWAP8 PUSH2 0x870 PUSH2 0x86B DUP11 PUSH2 0x7D6 JUMP JUMPDEST PUSH2 0x7E2 JUMP JUMPDEST SWAP5 PUSH4 0x8FF83AC1 SWAP3 SWAP7 SWAP9 SWAP2 SWAP4 SWAP5 SWAP8 DUP7 EXTCODESIZE ISZERO PUSH2 0x92F JUMPI PUSH1 0x0 SWAP9 PUSH2 0x8A5 SWAP7 DUP11 SWAP7 PUSH2 0x8B0 SWAP6 PUSH2 0x899 PUSH2 0x93 JUMP JUMPDEST SWAP14 DUP15 SWAP13 DUP14 SWAP12 DUP13 SWAP11 PUSH2 0x5C4 JUMP JUMPDEST DUP11 MSTORE PUSH1 0x4 DUP11 ADD PUSH2 0x70B JUMP JUMPDEST SUB SWAP3 GAS CALL DUP1 ISZERO PUSH2 0x92A JUMPI PUSH2 0x8FD JUMPI JUMPDEST POP DUP1 PUSH2 0x8F7 PUSH32 0x28A530EB465A41FAF2A923830D2CD4E0301E87B2CDDC112BDA1A86048C3A54B2 SWAP2 PUSH2 0x8EE PUSH2 0x93 JUMP JUMPDEST SWAP2 DUP3 SWAP2 DUP3 PUSH2 0x451 JUMP JUMPDEST SUB SWAP1 LOG1 SWAP1 JUMP JUMPDEST PUSH2 0x91D SWAP1 PUSH1 0x0 RETURNDATASIZE DUP2 GT PUSH2 0x923 JUMPI JUMPDEST PUSH2 0x915 DUP2 DUP4 PUSH2 0x249 JUMP JUMPDEST DUP2 ADD SWAP1 PUSH2 0x5CA JUMP JUMPDEST CODESIZE PUSH2 0x8BF JUMP JUMPDEST POP RETURNDATASIZE PUSH2 0x90B JUMP JUMPDEST PUSH2 0x5DA JUMP JUMPDEST PUSH2 0x5BF JUMP JUMPDEST PUSH2 0x93C PUSH2 0xBB8 JUMP JUMPDEST PUSH2 0x944 PUSH2 0x971 JUMP JUMPDEST JUMP JUMPDEST SWAP1 JUMP JUMPDEST PUSH2 0x95D PUSH2 0x958 PUSH2 0x962 SWAP3 PUSH2 0x946 JUMP JUMPDEST PUSH2 0x190 JUMP JUMPDEST PUSH2 0xA8 JUMP JUMPDEST SWAP1 JUMP JUMPDEST PUSH2 0x96E SWAP1 PUSH2 0x949 JUMP JUMPDEST SWAP1 JUMP JUMPDEST PUSH2 0x983 PUSH2 0x97E PUSH1 0x0 PUSH2 0x965 JUMP JUMPDEST PUSH2 0xEEC JUMP JUMPDEST JUMP JUMPDEST PUSH2 0x98D PUSH2 0x934 JUMP JUMPDEST JUMP JUMPDEST PUSH1 0x1 DUP1 PUSH1 0xA0 SHL SUB AND SWAP1 JUMP JUMPDEST PUSH2 0x9A6 PUSH2 0x9AB SWAP2 PUSH2 0x598 JUMP JUMPDEST PUSH2 0x98F JUMP JUMPDEST SWAP1 JUMP JUMPDEST PUSH2 0x9B8 SWAP1 SLOAD PUSH2 0x99A JUMP JUMPDEST SWAP1 JUMP JUMPDEST PUSH2 0x9C3 PUSH2 0x689 JUMP JUMPDEST POP PUSH2 0x9CE PUSH1 0x0 PUSH2 0x9AE JUMP JUMPDEST SWAP1 JUMP JUMPDEST SWAP7 PUSH2 0xA08 SWAP4 SWAP7 PUSH2 0xA17 SWAP7 PUSH2 0xA39 SWAP11 SWAP4 SWAP7 SWAP5 SWAP7 PUSH2 0x9EB PUSH2 0x689 JUMP JUMPDEST POP SWAP7 SWAP9 SWAP5 SWAP1 SWAP2 SWAP3 SWAP4 SWAP5 PUSH2 0x9FC PUSH2 0x93 JUMP JUMPDEST SWAP10 DUP11 SWAP9 PUSH1 0x20 DUP11 ADD PUSH2 0x70B JUMP JUMPDEST PUSH1 0x20 DUP3 ADD DUP2 SUB DUP3 MSTORE SUB DUP3 PUSH2 0x249 JUMP JUMPDEST PUSH2 0xA29 PUSH2 0xA23 DUP3 PUSH2 0x797 JUMP JUMPDEST SWAP2 PUSH2 0x791 JUMP JUMPDEST KECCAK256 SWAP1 PUSH2 0xA33 PUSH2 0x7BF JUMP JUMPDEST SWAP2 PUSH2 0xF4D JUMP JUMPDEST SWAP1 JUMP JUMPDEST PUSH2 0xA4D SWAP1 PUSH2 0xA48 PUSH2 0xBB8 JUMP JUMPDEST PUSH2 0xAF9 JUMP JUMPDEST JUMP JUMPDEST PUSH1 0x20 PUSH32 0x6464726573730000000000000000000000000000000000000000000000000000 SWAP2 PUSH32 0x4F776E61626C653A206E6577206F776E657220697320746865207A65726F2061 PUSH1 0x0 DUP3 ADD MSTORE ADD MSTORE JUMP JUMPDEST PUSH2 0xAAA PUSH1 0x26 PUSH1 0x40 SWAP3 PUSH2 0x692 JUMP JUMPDEST PUSH2 0xAB3 DUP2 PUSH2 0xA4F JUMP JUMPDEST ADD SWAP1 JUMP JUMPDEST PUSH2 0xACD SWAP1 PUSH1 0x20 DUP2 ADD SWAP1 PUSH1 0x0 DUP2 DUP4 SUB SWAP2 ADD MSTORE PUSH2 0xA9D JUMP JUMPDEST SWAP1 JUMP JUMPDEST ISZERO PUSH2 0xAD7 JUMPI JUMP JUMPDEST PUSH2 0xADF PUSH2 0x93 JUMP JUMPDEST PUSH3 0x461BCD PUSH1 0xE5 SHL DUP2 MSTORE DUP1 PUSH2 0xAF5 PUSH1 0x4 DUP3 ADD PUSH2 0xAB7 JUMP JUMPDEST SUB SWAP1 REVERT JUMPDEST PUSH2 0xB28 SWAP1 PUSH2 0xB23 DUP2 PUSH2 0xB1C PUSH2 0xB16 PUSH2 0xB11 PUSH1 0x0 PUSH2 0x965 JUMP JUMPDEST PUSH2 0xB3 JUMP JUMPDEST SWAP2 PUSH2 0xB3 JUMP JUMPDEST EQ ISZERO PUSH2 0xAD0 JUMP JUMPDEST PUSH2 0xEEC JUMP JUMPDEST JUMP JUMPDEST PUSH2 0xB33 SWAP1 PUSH2 0xA3C JUMP JUMPDEST JUMP JUMPDEST PUSH1 0x0 PUSH32 0x4F776E61626C653A2063616C6C6572206973206E6F7420746865206F776E6572 SWAP2 ADD MSTORE JUMP JUMPDEST PUSH2 0xB69 PUSH1 0x20 DUP1 SWAP3 PUSH2 0x692 JUMP JUMPDEST PUSH2 0xB72 DUP2 PUSH2 0xB35 JUMP JUMPDEST ADD SWAP1 JUMP JUMPDEST PUSH2 0xB8C SWAP1 PUSH1 0x20 DUP2 ADD SWAP1 PUSH1 0x0 DUP2 DUP4 SUB SWAP2 ADD MSTORE PUSH2 0xB5D JUMP JUMPDEST SWAP1 JUMP JUMPDEST ISZERO PUSH2 0xB96 JUMPI JUMP JUMPDEST PUSH2 0xB9E PUSH2 0x93 JUMP JUMPDEST PUSH3 0x461BCD PUSH1 0xE5 SHL DUP2 MSTORE DUP1 PUSH2 0xBB4 PUSH1 0x4 DUP3 ADD PUSH2 0xB76 JUMP JUMPDEST SUB SWAP1 REVERT JUMPDEST PUSH2 0xBE2 PUSH2 0xBC3 PUSH2 0x9BB JUMP JUMPDEST PUSH2 0xBDC PUSH2 0xBD6 PUSH2 0xBD1 PUSH2 0xFE3 JUMP JUMPDEST PUSH2 0xB3 JUMP JUMPDEST SWAP2 PUSH2 0xB3 JUMP JUMPDEST EQ PUSH2 0xB8F JUMP JUMPDEST JUMP JUMPDEST SWAP1 JUMP JUMPDEST PUSH2 0xBF3 PUSH2 0xBF8 SWAP2 PUSH2 0x344 JUMP JUMPDEST PUSH2 0xBE4 JUMP JUMPDEST SWAP1 MSTORE JUMP JUMPDEST PUSH1 0x60 SHL SWAP1 JUMP JUMPDEST PUSH2 0xC0B SWAP1 PUSH2 0xBFC JUMP JUMPDEST SWAP1 JUMP JUMPDEST PUSH2 0xC17 SWAP1 PUSH2 0xC02 JUMP JUMPDEST SWAP1 JUMP JUMPDEST PUSH2 0xC26 PUSH2 0xC2B SWAP2 PUSH2 0xB3 JUMP JUMPDEST PUSH2 0xC0E JUMP JUMPDEST SWAP1 MSTORE JUMP JUMPDEST SWAP1 POP SWAP1 JUMP JUMPDEST PUSH2 0xC59 PUSH2 0xC50 SWAP3 PUSH1 0x20 SWAP3 PUSH2 0xC47 DUP2 PUSH2 0x797 JUMP JUMPDEST SWAP5 DUP6 DUP1 SWAP4 PUSH2 0xC2F JUMP JUMPDEST SWAP4 DUP5 SWAP2 ADD PUSH2 0x69B JUMP JUMPDEST ADD SWAP1 JUMP JUMPDEST PUSH1 0x14 DUP1 SWAP4 PUSH2 0xC81 PUSH1 0x20 DUP5 PUSH2 0xC79 PUSH2 0xC89 SWAP7 PUSH2 0xC90 SWAP12 SWAP11 SWAP9 PUSH2 0xBE7 JUMP JUMPDEST ADD DUP1 SWAP3 PUSH2 0xC1A JUMP JUMPDEST ADD DUP1 SWAP3 PUSH2 0xC1A JUMP JUMPDEST ADD SWAP1 PUSH2 0xC34 JUMP JUMPDEST SWAP1 JUMP JUMPDEST SWAP1 JUMP JUMPDEST PUSH2 0xCAA PUSH2 0xCA5 PUSH2 0xCAF SWAP3 PUSH2 0x946 JUMP JUMPDEST PUSH2 0x190 JUMP JUMPDEST PUSH2 0xC93 JUMP JUMPDEST SWAP1 JUMP JUMPDEST PUSH2 0xCBB SWAP1 PUSH2 0x193 JUMP JUMPDEST SWAP1 JUMP JUMPDEST PUSH2 0xCC7 SWAP1 PUSH2 0xCB2 JUMP JUMPDEST SWAP1 JUMP JUMPDEST PUSH2 0xCD3 SWAP1 PUSH2 0x193 JUMP JUMPDEST SWAP1 JUMP JUMPDEST PUSH2 0xCDF SWAP1 PUSH2 0xCCA JUMP JUMPDEST SWAP1 JUMP JUMPDEST PUSH2 0xCEB SWAP1 PUSH2 0x1AF JUMP JUMPDEST SWAP1 JUMP JUMPDEST PUSH1 0x20 SWAP2 DUP2 MSTORE ADD SWAP1 JUMP JUMPDEST PUSH2 0xD16 PUSH2 0xD1F PUSH1 0x20 SWAP4 PUSH2 0xD24 SWAP4 PUSH2 0xD0D DUP2 PUSH2 0x797 JUMP JUMPDEST SWAP4 DUP5 DUP1 SWAP4 PUSH2 0xCEE JUMP JUMPDEST SWAP6 DUP7 SWAP2 ADD PUSH2 0x69B JUMP JUMPDEST PUSH2 0x229 JUMP JUMPDEST ADD SWAP1 JUMP JUMPDEST PUSH2 0xD4D PUSH2 0xD5A SWAP5 SWAP3 SWAP4 PUSH2 0xD43 PUSH1 0x60 DUP5 ADD SWAP6 PUSH1 0x0 DUP6 ADD SWAP1 PUSH2 0x444 JUMP JUMPDEST PUSH1 0x20 DUP4 ADD SWAP1 PUSH2 0x444 JUMP JUMPDEST PUSH1 0x40 DUP2 DUP5 SUB SWAP2 ADD MSTORE PUSH2 0xCF7 JUMP JUMPDEST SWAP1 JUMP JUMPDEST PUSH2 0xDED SWAP1 SWAP4 SWAP3 SWAP2 SWAP4 PUSH2 0xD6D PUSH2 0x689 JUMP JUMPDEST POP PUSH2 0xDAD DUP6 SWAP2 PUSH2 0xD9E PUSH2 0xD88 PUSH2 0xD83 PUSH1 0x1 PUSH2 0x5B2 JUMP JUMPDEST PUSH2 0x1BB JUMP JUMPDEST DUP7 SWAP1 PUSH2 0xD92 PUSH2 0x93 JUMP JUMPDEST SWAP6 DUP7 SWAP5 PUSH1 0x20 DUP7 ADD PUSH2 0xC5D JUMP JUMPDEST PUSH1 0x20 DUP3 ADD DUP2 SUB DUP3 MSTORE SUB DUP3 PUSH2 0x249 JUMP JUMPDEST PUSH2 0xDBF PUSH2 0xDB9 DUP3 PUSH2 0x797 JUMP JUMPDEST SWAP2 PUSH2 0x791 JUMP JUMPDEST KECCAK256 PUSH2 0x148A PUSH2 0xDCF PUSH1 0x20 DUP3 ADD PUSH2 0x272 JUMP JUMPDEST SWAP1 DUP1 DUP3 MSTORE PUSH2 0x125B PUSH1 0x20 DUP4 ADD CODECOPY PUSH2 0xDE8 PUSH1 0x0 SWAP3 SWAP2 SWAP3 PUSH2 0xC96 JUMP JUMPDEST PUSH2 0x1187 JUMP JUMPDEST SWAP3 PUSH2 0xE07 PUSH2 0xE02 PUSH2 0xDFD DUP7 PUSH2 0xCBE JUMP JUMPDEST PUSH2 0xCD6 JUMP JUMPDEST PUSH2 0xCE2 JUMP JUMPDEST PUSH4 0xCF7A1D77 SWAP2 SWAP1 PUSH2 0xE20 PUSH2 0xE1B PUSH1 0x1 PUSH2 0x5B2 JUMP JUMPDEST PUSH2 0x1BB JUMP JUMPDEST SWAP4 SWAP3 DUP2 EXTCODESIZE ISZERO PUSH2 0xE97 JUMPI PUSH1 0x0 PUSH2 0xE48 SWAP2 PUSH2 0xE53 DUP3 SWAP7 PUSH2 0xE3C PUSH2 0x93 JUMP JUMPDEST SWAP9 DUP10 SWAP8 DUP9 SWAP7 DUP8 SWAP6 PUSH2 0x5C4 JUMP JUMPDEST DUP6 MSTORE PUSH1 0x4 DUP6 ADD PUSH2 0xD28 JUMP JUMPDEST SUB SWAP3 GAS CALL DUP1 ISZERO PUSH2 0xE92 JUMPI PUSH2 0xE65 JUMPI JUMPDEST POP JUMP JUMPDEST PUSH2 0xE85 SWAP1 PUSH1 0x0 RETURNDATASIZE DUP2 GT PUSH2 0xE8B JUMPI JUMPDEST PUSH2 0xE7D DUP2 DUP4 PUSH2 0x249 JUMP JUMPDEST DUP2 ADD SWAP1 PUSH2 0x5CA JUMP JUMPDEST CODESIZE PUSH2 0xE62 JUMP JUMPDEST POP RETURNDATASIZE PUSH2 0xE73 JUMP JUMPDEST PUSH2 0x5DA JUMP JUMPDEST PUSH2 0x5BF JUMP JUMPDEST PUSH1 0x0 SHL SWAP1 JUMP JUMPDEST SWAP1 PUSH2 0xEB3 PUSH1 0x1 DUP1 PUSH1 0xA0 SHL SUB SWAP2 PUSH2 0xE9C JUMP JUMPDEST SWAP2 DUP2 NOT AND SWAP2 AND OR SWAP1 JUMP JUMPDEST PUSH2 0xEC6 SWAP1 PUSH2 0x1AF JUMP JUMPDEST SWAP1 JUMP JUMPDEST SWAP1 JUMP JUMPDEST SWAP1 PUSH2 0xEE1 PUSH2 0xEDC PUSH2 0xEE8 SWAP3 PUSH2 0xEBD JUMP JUMPDEST PUSH2 0xEC9 JUMP JUMPDEST DUP3 SLOAD PUSH2 0xEA2 JUMP JUMPDEST SWAP1 SSTORE JUMP JUMPDEST PUSH2 0xEF6 PUSH1 0x0 PUSH2 0x9AE JUMP JUMPDEST PUSH2 0xF01 DUP3 PUSH1 0x0 PUSH2 0xECC JUMP JUMPDEST SWAP1 PUSH2 0xF35 PUSH2 0xF2F PUSH32 0x8BE0079C531659141344CD1FD0A4F28419497F9722A3DAAFE3B4186F6B6457E0 SWAP4 PUSH2 0xEBD JUMP JUMPDEST SWAP2 PUSH2 0xEBD JUMP JUMPDEST SWAP2 PUSH2 0xF3E PUSH2 0x93 JUMP JUMPDEST DUP1 PUSH2 0xF48 DUP2 PUSH2 0x102 JUMP JUMPDEST SUB SWAP1 LOG3 JUMP JUMPDEST PUSH2 0xFE0 SWAP3 SWAP2 PUSH2 0xF8A PUSH2 0xF99 SWAP3 PUSH2 0xF61 PUSH2 0x689 JUMP JUMPDEST POP SWAP2 SWAP4 PUSH2 0xF76 PUSH2 0xF71 PUSH1 0x1 PUSH2 0x5B2 JUMP JUMPDEST PUSH2 0x1BB JUMP JUMPDEST PUSH2 0xF7E PUSH2 0x93 JUMP JUMPDEST SWAP6 DUP7 SWAP5 PUSH1 0x20 DUP7 ADD PUSH2 0xC5D JUMP JUMPDEST PUSH1 0x20 DUP3 ADD DUP2 SUB DUP3 MSTORE SUB DUP3 PUSH2 0x249 JUMP JUMPDEST PUSH2 0xFAB PUSH2 0xFA5 DUP3 PUSH2 0x797 JUMP JUMPDEST SWAP2 PUSH2 0x791 JUMP JUMPDEST KECCAK256 PUSH2 0x148A PUSH2 0xFBB PUSH1 0x20 DUP3 ADD PUSH2 0x272 JUMP JUMPDEST SWAP1 DUP1 DUP3 MSTORE PUSH2 0x125B PUSH1 0x20 DUP4 ADD CODECOPY PUSH2 0xFD9 PUSH2 0xFD3 DUP3 PUSH2 0x797 JUMP JUMPDEST SWAP2 PUSH2 0x791 JUMP JUMPDEST KECCAK256 SWAP1 PUSH2 0x1210 JUMP JUMPDEST SWAP1 JUMP JUMPDEST PUSH2 0xFEB PUSH2 0x689 JUMP JUMPDEST POP CALLER SWAP1 JUMP JUMPDEST PUSH2 0xFF9 SWAP1 PUSH2 0x1AF JUMP JUMPDEST SWAP1 JUMP JUMPDEST PUSH1 0x0 PUSH32 0x437265617465323A20696E73756666696369656E742062616C616E6365000000 SWAP2 ADD MSTORE JUMP JUMPDEST PUSH2 0x1031 PUSH1 0x1D PUSH1 0x20 SWAP3 PUSH2 0x692 JUMP JUMPDEST PUSH2 0x103A DUP2 PUSH2 0xFFC JUMP JUMPDEST ADD SWAP1 JUMP JUMPDEST PUSH2 0x1054 SWAP1 PUSH1 0x20 DUP2 ADD SWAP1 PUSH1 0x0 DUP2 DUP4 SUB SWAP2 ADD MSTORE PUSH2 0x1024 JUMP JUMPDEST SWAP1 JUMP JUMPDEST ISZERO PUSH2 0x105E JUMPI JUMP JUMPDEST PUSH2 0x1066 PUSH2 0x93 JUMP JUMPDEST PUSH3 0x461BCD PUSH1 0xE5 SHL DUP2 MSTORE DUP1 PUSH2 0x107C PUSH1 0x4 DUP3 ADD PUSH2 0x103E JUMP JUMPDEST SUB SWAP1 REVERT JUMPDEST PUSH1 0x0 PUSH32 0x437265617465323A2062797465636F6465206C656E677468206973207A65726F SWAP2 ADD MSTORE JUMP JUMPDEST PUSH2 0x10B4 PUSH1 0x20 DUP1 SWAP3 PUSH2 0x692 JUMP JUMPDEST PUSH2 0x10BD DUP2 PUSH2 0x1080 JUMP JUMPDEST ADD SWAP1 JUMP JUMPDEST PUSH2 0x10D7 SWAP1 PUSH1 0x20 DUP2 ADD SWAP1 PUSH1 0x0 DUP2 DUP4 SUB SWAP2 ADD MSTORE PUSH2 0x10A8 JUMP JUMPDEST SWAP1 JUMP JUMPDEST ISZERO PUSH2 0x10E1 JUMPI JUMP JUMPDEST PUSH2 0x10E9 PUSH2 0x93 JUMP JUMPDEST PUSH3 0x461BCD PUSH1 0xE5 SHL DUP2 MSTORE DUP1 PUSH2 0x10FF PUSH1 0x4 DUP3 ADD PUSH2 0x10C1 JUMP JUMPDEST SUB SWAP1 REVERT JUMPDEST PUSH1 0x0 PUSH32 0x437265617465323A204661696C6564206F6E206465706C6F7900000000000000 SWAP2 ADD MSTORE JUMP JUMPDEST PUSH2 0x1138 PUSH1 0x19 PUSH1 0x20 SWAP3 PUSH2 0x692 JUMP JUMPDEST PUSH2 0x1141 DUP2 PUSH2 0x1103 JUMP JUMPDEST ADD SWAP1 JUMP JUMPDEST PUSH2 0x115B SWAP1 PUSH1 0x20 DUP2 ADD SWAP1 PUSH1 0x0 DUP2 DUP4 SUB SWAP2 ADD MSTORE PUSH2 0x112B JUMP JUMPDEST SWAP1 JUMP JUMPDEST ISZERO PUSH2 0x1165 JUMPI JUMP JUMPDEST PUSH2 0x116D PUSH2 0x93 JUMP JUMPDEST PUSH3 0x461BCD PUSH1 0xE5 SHL DUP2 MSTORE DUP1 PUSH2 0x1183 PUSH1 0x4 DUP3 ADD PUSH2 0x1145 JUMP JUMPDEST SUB SWAP1 REVERT JUMPDEST SWAP2 SWAP1 SWAP2 PUSH2 0x1192 PUSH2 0x689 JUMP JUMPDEST POP PUSH2 0x11B9 PUSH2 0x119F ADDRESS PUSH2 0xFF0 JUMP JUMPDEST BALANCE PUSH2 0x11B2 PUSH2 0x11AC DUP5 PUSH2 0xC93 JUMP JUMPDEST SWAP2 PUSH2 0xC93 JUMP JUMPDEST LT ISZERO PUSH2 0x1057 JUMP JUMPDEST PUSH2 0x11DF PUSH2 0x11C5 DUP4 PUSH2 0x797 JUMP JUMPDEST PUSH2 0x11D8 PUSH2 0x11D2 PUSH1 0x0 PUSH2 0xC96 JUMP JUMPDEST SWAP2 PUSH2 0xC93 JUMP JUMPDEST EQ ISZERO PUSH2 0x10DA JUMP JUMPDEST PUSH1 0x20 DUP3 MLOAD SWAP3 ADD SWAP1 CREATE2 SWAP1 PUSH2 0x120E DUP3 PUSH2 0x1207 PUSH2 0x1201 PUSH2 0x11FC PUSH1 0x0 PUSH2 0x965 JUMP JUMPDEST PUSH2 0xB3 JUMP JUMPDEST SWAP2 PUSH2 0xB3 JUMP JUMPDEST EQ ISZERO PUSH2 0x115E JUMP JUMPDEST JUMP JUMPDEST SWAP1 PUSH2 0x122E SWAP2 PUSH2 0x121D PUSH2 0x689 JUMP JUMPDEST POP SWAP1 PUSH2 0x1228 ADDRESS PUSH2 0xFF0 JUMP JUMPDEST SWAP2 PUSH2 0x1231 JUMP JUMPDEST SWAP1 JUMP JUMPDEST SWAP1 PUSH1 0x55 SWAP3 PUSH1 0xB SWAP3 PUSH2 0x1240 PUSH2 0x689 JUMP JUMPDEST POP PUSH1 0x40 MLOAD SWAP3 PUSH1 0x40 DUP5 ADD MSTORE PUSH1 0x20 DUP4 ADD MSTORE DUP2 MSTORE ADD PUSH1 0xFF DUP2 MSTORE8 KECCAK256 SWAP1 JUMP INVALID PUSH1 0x80 PUSH1 0x40 MSTORE CALLVALUE PUSH1 0x1C JUMPI PUSH1 0xE PUSH1 0x20 JUMP JUMPDEST PUSH2 0x145E PUSH2 0x2C DUP3 CODECOPY PUSH2 0x145E SWAP1 RETURN JUMPDEST PUSH1 0x26 JUMP JUMPDEST PUSH1 0x40 MLOAD SWAP1 JUMP JUMPDEST PUSH1 0x0 DUP1 REVERT INVALID PUSH1 0x80 PUSH1 0x40 MSTORE CALLDATASIZE ISZERO PUSH2 0x6B JUMPI PUSH2 0x6B JUMP JUMPDEST SWAP1 JUMP JUMPDEST PUSH1 0x1 DUP1 PUSH1 0xA0 SHL SUB AND SWAP1 JUMP JUMPDEST SWAP1 JUMP JUMPDEST PUSH2 0x34 PUSH2 0x2F PUSH2 0x39 SWAP3 PUSH2 0xF JUMP JUMPDEST PUSH2 0x1D JUMP JUMPDEST PUSH2 0x12 JUMP JUMPDEST SWAP1 JUMP JUMPDEST PUSH2 0x45 SWAP1 PUSH2 0x20 JUMP JUMPDEST SWAP1 JUMP JUMPDEST PUSH2 0x51 SWAP1 PUSH2 0x12 JUMP JUMPDEST SWAP1 JUMP JUMPDEST PUSH1 0x60 SWAP1 JUMP JUMPDEST PUSH4 0xFFFFFFFF PUSH1 0xE0 SHL AND SWAP1 JUMP JUMPDEST PUSH1 0x0 ADD SWAP1 JUMP JUMPDEST PUSH2 0x73 PUSH2 0x17E JUMP JUMPDEST PUSH2 0x8E PUSH2 0x88 PUSH2 0x83 PUSH1 0x0 PUSH2 0x3C JUMP JUMPDEST PUSH2 0x48 JUMP JUMPDEST SWAP2 PUSH2 0x48 JUMP JUMPDEST SUB PUSH2 0x46C JUMPI PUSH2 0x9B PUSH2 0x54 JUMP JUMPDEST POP PUSH4 0xFFFFFFFF PUSH1 0xE0 SHL PUSH1 0x0 CALLDATALOAD AND PUSH2 0xC1 PUSH2 0xBB PUSH4 0xCF7A1D77 PUSH1 0xE0 SHL PUSH2 0x59 JUMP JUMPDEST SWAP2 PUSH2 0x59 JUMP JUMPDEST EQ PUSH2 0xE3 JUMPI PUSH1 0x0 PUSH4 0xF92EE8A9 PUSH1 0xE0 SHL DUP2 MSTORE DUP1 PUSH2 0xDF PUSH1 0x4 DUP3 ADD PUSH2 0x65 JUMP JUMPDEST SUB SWAP1 REVERT JUMPDEST PUSH2 0xEB PUSH2 0x401 JUMP JUMPDEST PUSH1 0x20 DUP2 MLOAD SWAP2 ADD RETURN JUMPDEST PUSH1 0x0 SWAP1 JUMP JUMPDEST SWAP1 JUMP JUMPDEST SWAP1 JUMP JUMPDEST PUSH1 0x0 SHL SWAP1 JUMP JUMPDEST PUSH2 0x118 PUSH2 0x113 PUSH2 0x11D SWAP3 PUSH2 0xF8 JUMP JUMPDEST PUSH2 0xFE JUMP JUMPDEST PUSH2 0xFB JUMP JUMPDEST SWAP1 JUMP JUMPDEST PUSH2 0x149 PUSH32 0xB53127684A568B3173AE13B9F8A6016E243E63B6E8EE1178D6A717850B5D6103 PUSH2 0x104 JUMP JUMPDEST SWAP1 JUMP JUMPDEST PUSH1 0x0 SHR SWAP1 JUMP JUMPDEST PUSH1 0x1 DUP1 PUSH1 0xA0 SHL SUB AND SWAP1 JUMP JUMPDEST PUSH2 0x169 PUSH2 0x16E SWAP2 PUSH2 0x14C JUMP JUMPDEST PUSH2 0x152 JUMP JUMPDEST SWAP1 JUMP JUMPDEST PUSH2 0x17B SWAP1 SLOAD PUSH2 0x15D JUMP JUMPDEST SWAP1 JUMP JUMPDEST PUSH2 0x186 PUSH2 0xF3 JUMP JUMPDEST POP PUSH2 0x1A2 PUSH1 0x0 PUSH2 0x19C PUSH2 0x197 PUSH2 0x120 JUMP JUMPDEST PUSH2 0x5A2 JUMP JUMPDEST ADD PUSH2 0x171 JUMP JUMPDEST SWAP1 JUMP JUMPDEST SWAP1 JUMP JUMPDEST SWAP1 JUMP JUMPDEST PUSH2 0x1BF PUSH2 0x1BA PUSH2 0x1C4 SWAP3 PUSH2 0x1A5 JUMP JUMPDEST PUSH2 0x1D JUMP JUMPDEST PUSH2 0x1A8 JUMP JUMPDEST SWAP1 JUMP JUMPDEST PUSH1 0x40 MLOAD SWAP1 JUMP JUMPDEST PUSH1 0x0 DUP1 REVERT JUMPDEST PUSH1 0x0 DUP1 REVERT JUMPDEST SWAP1 SWAP4 SWAP3 SWAP4 DUP5 DUP4 GT PUSH2 0x1F7 JUMPI DUP5 GT PUSH2 0x1F2 JUMPI PUSH1 0x1 DUP3 MUL ADD SWAP3 SUB SWAP1 JUMP JUMPDEST PUSH2 0x1D2 JUMP JUMPDEST PUSH2 0x1CD JUMP JUMPDEST SWAP2 JUMP JUMPDEST PUSH1 0x0 DUP1 REVERT JUMPDEST PUSH1 0x0 DUP1 REVERT JUMPDEST PUSH2 0x212 SWAP1 PUSH2 0x12 JUMP JUMPDEST SWAP1 JUMP JUMPDEST PUSH2 0x21E DUP2 PUSH2 0x209 JUMP JUMPDEST SUB PUSH2 0x225 JUMPI JUMP JUMPDEST PUSH1 0x0 DUP1 REVERT JUMPDEST SWAP1 POP CALLDATALOAD SWAP1 PUSH2 0x237 DUP3 PUSH2 0x215 JUMP JUMPDEST JUMP JUMPDEST PUSH1 0x0 DUP1 REVERT JUMPDEST PUSH1 0x0 DUP1 REVERT JUMPDEST PUSH1 0x1F DUP1 NOT SWAP2 ADD AND SWAP1 JUMP JUMPDEST PUSH4 0x4E487B71 PUSH1 0xE0 SHL PUSH1 0x0 MSTORE PUSH1 0x41 PUSH1 0x4 MSTORE PUSH1 0x24 PUSH1 0x0 REVERT JUMPDEST SWAP1 PUSH2 0x26D SWAP1 PUSH2 0x243 JUMP JUMPDEST DUP2 ADD SWAP1 DUP2 LT PUSH8 0xFFFFFFFFFFFFFFFF DUP3 GT OR PUSH2 0x287 JUMPI PUSH1 0x40 MSTORE JUMP JUMPDEST PUSH2 0x24D JUMP JUMPDEST SWAP1 PUSH2 0x29F PUSH2 0x298 PUSH2 0x1C7 JUMP JUMPDEST SWAP3 DUP4 PUSH2 0x263 JUMP JUMPDEST JUMP JUMPDEST PUSH8 0xFFFFFFFFFFFFFFFF DUP2 GT PUSH2 0x2BF JUMPI PUSH2 0x2BB PUSH1 0x20 SWAP2 PUSH2 0x243 JUMP JUMPDEST ADD SWAP1 JUMP JUMPDEST PUSH2 0x24D JUMP JUMPDEST SWAP1 DUP3 PUSH1 0x0 SWAP4 SWAP3 DUP3 CALLDATACOPY ADD MSTORE JUMP JUMPDEST SWAP1 SWAP3 SWAP2 SWAP3 PUSH2 0x2E5 PUSH2 0x2E0 DUP3 PUSH2 0x2A1 JUMP JUMPDEST PUSH2 0x28C JUMP JUMPDEST SWAP4 DUP2 DUP6 MSTORE PUSH1 0x20 DUP6 ADD SWAP1 DUP3 DUP5 ADD GT PUSH2 0x301 JUMPI PUSH2 0x2FF SWAP3 PUSH2 0x2C4 JUMP JUMPDEST JUMP JUMPDEST PUSH2 0x23E JUMP JUMPDEST SWAP1 DUP1 PUSH1 0x1F DUP4 ADD SLT ISZERO PUSH2 0x324 JUMPI DUP2 PUSH1 0x20 PUSH2 0x321 SWAP4 CALLDATALOAD SWAP2 ADD PUSH2 0x2D0 JUMP JUMPDEST SWAP1 JUMP JUMPDEST PUSH2 0x239 JUMP JUMPDEST SWAP2 PUSH1 0x60 DUP4 DUP4 SUB SLT PUSH2 0x376 JUMPI PUSH2 0x341 DUP3 PUSH1 0x0 DUP6 ADD PUSH2 0x22A JUMP JUMPDEST SWAP3 PUSH2 0x34F DUP4 PUSH1 0x20 DUP4 ADD PUSH2 0x22A JUMP JUMPDEST SWAP3 PUSH1 0x40 DUP3 ADD CALLDATALOAD PUSH8 0xFFFFFFFFFFFFFFFF DUP2 GT PUSH2 0x371 JUMPI PUSH2 0x36E SWAP3 ADD PUSH2 0x306 JUMP JUMPDEST SWAP1 JUMP JUMPDEST PUSH2 0x204 JUMP JUMPDEST PUSH2 0x1FF JUMP JUMPDEST PUSH2 0x38F PUSH2 0x38A PUSH2 0x394 SWAP3 PUSH2 0x12 JUMP JUMPDEST PUSH2 0x1D JUMP JUMPDEST PUSH2 0x12 JUMP JUMPDEST SWAP1 JUMP JUMPDEST PUSH2 0x3A0 SWAP1 PUSH2 0x37B JUMP JUMPDEST SWAP1 JUMP JUMPDEST PUSH2 0x3AC SWAP1 PUSH2 0x397 JUMP JUMPDEST SWAP1 JUMP JUMPDEST PUSH8 0xFFFFFFFFFFFFFFFF DUP2 GT PUSH2 0x3CD JUMPI PUSH2 0x3C9 PUSH1 0x20 SWAP2 PUSH2 0x243 JUMP JUMPDEST ADD SWAP1 JUMP JUMPDEST PUSH2 0x24D JUMP JUMPDEST SWAP1 PUSH2 0x3E4 PUSH2 0x3DF DUP4 PUSH2 0x3AF JUMP JUMPDEST PUSH2 0x28C JUMP JUMPDEST SWAP2 DUP3 MSTORE JUMP JUMPDEST PUSH2 0x3F3 PUSH1 0x0 PUSH2 0x3D2 JUMP JUMPDEST SWAP1 JUMP JUMPDEST PUSH2 0x3FE PUSH2 0x3E9 JUMP JUMPDEST SWAP1 JUMP JUMPDEST PUSH2 0x409 PUSH2 0x54 JUMP JUMPDEST POP PUSH2 0x412 PUSH2 0x5CD JUMP JUMPDEST PUSH2 0x461 PUSH2 0x457 PUSH2 0x451 PUSH2 0x447 PUSH2 0x43F PUSH2 0x439 PUSH1 0x0 CALLDATASIZE PUSH2 0x431 PUSH1 0x4 PUSH2 0x1AB JUMP JUMPDEST SWAP1 DUP1 SWAP3 PUSH2 0x1D7 JUMP JUMPDEST SWAP1 PUSH2 0x1FC JUMP JUMPDEST DUP2 ADD SWAP1 PUSH2 0x329 JUMP JUMPDEST SWAP4 SWAP2 SWAP3 SWAP1 SWAP3 PUSH2 0x3A3 JUMP JUMPDEST SWAP2 PUSH2 0x3A3 JUMP JUMPDEST SWAP2 SWAP1 SWAP2 SWAP1 SWAP2 PUSH2 0x5EC JUMP JUMPDEST PUSH2 0x469 PUSH2 0x3F6 JUMP JUMPDEST SWAP1 JUMP JUMPDEST CALLER PUSH2 0x486 PUSH2 0x480 PUSH2 0x47B PUSH2 0x17E JUMP JUMPDEST PUSH2 0x48 JUMP JUMPDEST SWAP2 PUSH2 0x48 JUMP JUMPDEST EQ PUSH1 0x0 EQ PUSH2 0x59D JUMPI PUSH2 0x496 PUSH2 0x54 JUMP JUMPDEST POP PUSH4 0xFFFFFFFF PUSH1 0xE0 SHL PUSH1 0x0 CALLDATALOAD AND DUP1 PUSH2 0x4BD PUSH2 0x4B7 PUSH4 0x1B2CE7F3 PUSH1 0xE1 SHL PUSH2 0x59 JUMP JUMPDEST SWAP2 PUSH2 0x59 JUMP JUMPDEST EQ PUSH1 0x0 EQ PUSH2 0x4D7 JUMPI POP PUSH2 0x4CE PUSH2 0x817 JUMP JUMPDEST JUMPDEST PUSH1 0x20 DUP2 MLOAD SWAP2 ADD RETURN JUMPDEST DUP1 PUSH2 0x4F1 PUSH2 0x4EB PUSH4 0x278F7943 PUSH1 0xE1 SHL PUSH2 0x59 JUMP JUMPDEST SWAP2 PUSH2 0x59 JUMP JUMPDEST EQ PUSH1 0x0 EQ PUSH2 0x508 JUMPI POP PUSH2 0x502 PUSH2 0x7C1 JUMP JUMPDEST JUMPDEST PUSH2 0x4CF JUMP JUMPDEST DUP1 PUSH2 0x522 PUSH2 0x51C PUSH4 0x8F28397 PUSH1 0xE4 SHL PUSH2 0x59 JUMP JUMPDEST SWAP2 PUSH2 0x59 JUMP JUMPDEST EQ PUSH1 0x0 EQ PUSH2 0x539 JUMPI POP PUSH2 0x533 PUSH2 0x723 JUMP JUMPDEST JUMPDEST PUSH2 0x503 JUMP JUMPDEST DUP1 PUSH2 0x553 PUSH2 0x54D PUSH4 0x3E14691 PUSH1 0xE6 SHL PUSH2 0x59 JUMP JUMPDEST SWAP2 PUSH2 0x59 JUMP JUMPDEST EQ PUSH1 0x0 EQ PUSH2 0x56A JUMPI POP PUSH2 0x564 PUSH2 0x6BF JUMP JUMPDEST JUMPDEST PUSH2 0x534 JUMP JUMPDEST PUSH2 0x583 PUSH2 0x57D PUSH4 0x5C60DA1B PUSH1 0xE0 SHL PUSH2 0x59 JUMP JUMPDEST SWAP2 PUSH2 0x59 JUMP JUMPDEST EQ PUSH1 0x0 EQ PUSH2 0x598 JUMPI PUSH2 0x593 PUSH2 0x67A JUMP JUMPDEST PUSH2 0x565 JUMP JUMPDEST PUSH2 0x64A JUMP JUMPDEST PUSH2 0x64A JUMP JUMPDEST SWAP1 JUMP JUMPDEST PUSH2 0x5B9 PUSH2 0x5B4 PUSH2 0x5BE SWAP3 PUSH2 0xF JUMP JUMPDEST PUSH2 0x1D JUMP JUMPDEST PUSH2 0x1A8 JUMP JUMPDEST SWAP1 JUMP JUMPDEST ISZERO PUSH2 0x5C8 JUMPI JUMP JUMPDEST PUSH1 0x0 DUP1 REVERT JUMPDEST PUSH2 0x5EA CALLVALUE PUSH2 0x5E4 PUSH2 0x5DE PUSH1 0x0 PUSH2 0x5A5 JUMP JUMPDEST SWAP2 PUSH2 0x1A8 JUMP JUMPDEST EQ PUSH2 0x5C1 JUMP JUMPDEST JUMP JUMPDEST SWAP2 SWAP1 PUSH2 0x5F6 PUSH2 0x87A JUMP JUMPDEST PUSH2 0x611 PUSH2 0x60B PUSH2 0x606 PUSH1 0x0 PUSH2 0x3C JUMP JUMPDEST PUSH2 0x48 JUMP JUMPDEST SWAP2 PUSH2 0x48 JUMP JUMPDEST SUB PUSH2 0x62D JUMPI PUSH2 0x622 PUSH2 0x62B SWAP4 PUSH2 0x8B2 JUMP JUMPDEST SWAP1 PUSH1 0x0 SWAP2 PUSH2 0x98D JUMP JUMPDEST JUMP JUMPDEST PUSH1 0x0 PUSH4 0xF92EE8A9 PUSH1 0xE0 SHL DUP2 MSTORE DUP1 PUSH2 0x646 PUSH1 0x4 DUP3 ADD PUSH2 0x65 JUMP JUMPDEST SUB SWAP1 REVERT JUMPDEST PUSH2 0x652 PUSH2 0xAA6 JUMP JUMPDEST PUSH2 0xAE7 JUMP JUMPDEST PUSH2 0x660 SWAP1 PUSH2 0x48 JUMP JUMPDEST SWAP1 MSTORE JUMP JUMPDEST SWAP2 SWAP1 PUSH2 0x678 SWAP1 PUSH1 0x0 PUSH1 0x20 DUP6 ADD SWAP5 ADD SWAP1 PUSH2 0x657 JUMP JUMPDEST JUMP JUMPDEST PUSH2 0x682 PUSH2 0x54 JUMP JUMPDEST POP PUSH2 0x68B PUSH2 0x5CD JUMP JUMPDEST PUSH2 0x6AD PUSH2 0x6BC PUSH2 0x699 PUSH2 0xAA6 JUMP JUMPDEST PUSH2 0x6A1 PUSH2 0x1C7 JUMP JUMPDEST SWAP3 DUP4 SWAP2 PUSH1 0x20 DUP4 ADD PUSH2 0x664 JUMP JUMPDEST PUSH1 0x20 DUP3 ADD DUP2 SUB DUP3 MSTORE SUB DUP3 PUSH2 0x263 JUMP JUMPDEST SWAP1 JUMP JUMPDEST PUSH2 0x6C7 PUSH2 0x54 JUMP JUMPDEST POP PUSH2 0x6D0 PUSH2 0x5CD JUMP JUMPDEST PUSH2 0x6F2 PUSH2 0x701 PUSH2 0x6DE PUSH2 0x17E JUMP JUMPDEST PUSH2 0x6E6 PUSH2 0x1C7 JUMP JUMPDEST SWAP3 DUP4 SWAP2 PUSH1 0x20 DUP4 ADD PUSH2 0x664 JUMP JUMPDEST PUSH1 0x20 DUP3 ADD DUP2 SUB DUP3 MSTORE SUB DUP3 PUSH2 0x263 JUMP JUMPDEST SWAP1 JUMP JUMPDEST SWAP1 PUSH1 0x20 DUP3 DUP3 SUB SLT PUSH2 0x71E JUMPI PUSH2 0x71B SWAP2 PUSH1 0x0 ADD PUSH2 0x22A JUMP JUMPDEST SWAP1 JUMP JUMPDEST PUSH2 0x1FF JUMP JUMPDEST PUSH2 0x72B PUSH2 0x54 JUMP JUMPDEST POP PUSH2 0x734 PUSH2 0x5CD JUMP JUMPDEST PUSH2 0x770 PUSH2 0x76B PUSH2 0x766 PUSH2 0x75E PUSH2 0x758 PUSH1 0x0 CALLDATASIZE PUSH2 0x750 PUSH1 0x4 PUSH2 0x1AB JUMP JUMPDEST SWAP1 DUP1 SWAP3 PUSH2 0x1D7 JUMP JUMPDEST SWAP1 PUSH2 0x1FC JUMP JUMPDEST DUP2 ADD SWAP1 PUSH2 0x704 JUMP JUMPDEST PUSH2 0x3A3 JUMP JUMPDEST PUSH2 0x8B2 JUMP JUMPDEST PUSH2 0x778 PUSH2 0x3F6 JUMP JUMPDEST SWAP1 JUMP JUMPDEST SWAP2 SWAP1 SWAP2 PUSH1 0x40 DUP2 DUP5 SUB SLT PUSH2 0x7BC JUMPI PUSH2 0x795 DUP4 PUSH1 0x0 DUP4 ADD PUSH2 0x22A JUMP JUMPDEST SWAP3 PUSH1 0x20 DUP3 ADD CALLDATALOAD PUSH8 0xFFFFFFFFFFFFFFFF DUP2 GT PUSH2 0x7B7 JUMPI PUSH2 0x7B4 SWAP3 ADD PUSH2 0x306 JUMP JUMPDEST SWAP1 JUMP JUMPDEST PUSH2 0x204 JUMP JUMPDEST PUSH2 0x1FF JUMP JUMPDEST PUSH2 0x7C9 PUSH2 0x54 JUMP JUMPDEST POP PUSH2 0x80C PUSH2 0x803 PUSH2 0x7FC PUSH2 0x7F4 PUSH2 0x7EE PUSH1 0x0 CALLDATASIZE PUSH2 0x7E6 PUSH1 0x4 PUSH2 0x1AB JUMP JUMPDEST SWAP1 DUP1 SWAP3 PUSH2 0x1D7 JUMP JUMPDEST SWAP1 PUSH2 0x1FC JUMP JUMPDEST DUP2 ADD SWAP1 PUSH2 0x77B JUMP JUMPDEST SWAP2 SWAP1 PUSH2 0x3A3 JUMP JUMPDEST SWAP1 PUSH1 0x1 SWAP2 PUSH2 0xB0A JUMP JUMPDEST PUSH2 0x814 PUSH2 0x3F6 JUMP JUMPDEST SWAP1 JUMP JUMPDEST PUSH2 0x81F PUSH2 0x54 JUMP JUMPDEST POP PUSH2 0x828 PUSH2 0x5CD JUMP JUMPDEST PUSH2 0x86F PUSH2 0x85F PUSH2 0x85A PUSH2 0x852 PUSH2 0x84C PUSH1 0x0 CALLDATASIZE PUSH2 0x844 PUSH1 0x4 PUSH2 0x1AB JUMP JUMPDEST SWAP1 DUP1 SWAP3 PUSH2 0x1D7 JUMP JUMPDEST SWAP1 PUSH2 0x1FC JUMP JUMPDEST DUP2 ADD SWAP1 PUSH2 0x704 JUMP JUMPDEST PUSH2 0x3A3 JUMP JUMPDEST PUSH2 0x867 PUSH2 0x3F6 JUMP JUMPDEST PUSH1 0x0 SWAP2 PUSH2 0xB0A JUMP JUMPDEST PUSH2 0x877 PUSH2 0x3F6 JUMP JUMPDEST SWAP1 JUMP JUMPDEST PUSH2 0x882 PUSH2 0xF3 JUMP JUMPDEST POP PUSH2 0x88B PUSH2 0x17E JUMP JUMPDEST SWAP1 JUMP JUMPDEST SWAP2 PUSH1 0x20 PUSH2 0x8B0 SWAP3 SWAP5 SWAP4 PUSH2 0x8A9 PUSH1 0x40 DUP3 ADD SWAP7 PUSH1 0x0 DUP4 ADD SWAP1 PUSH2 0x657 JUMP JUMPDEST ADD SWAP1 PUSH2 0x657 JUMP JUMPDEST JUMP JUMPDEST PUSH2 0x8FD SWAP1 PUSH2 0x8BE PUSH2 0x17E JUMP JUMPDEST DUP2 PUSH32 0x7E644D79422F17C01E4894B5F4F588D331EBFA28653D42AE832DC59E38C9798F SWAP2 PUSH2 0x8F5 PUSH2 0x8EC PUSH2 0x1C7 JUMP JUMPDEST SWAP3 DUP4 SWAP3 DUP4 PUSH2 0x88E JUMP JUMPDEST SUB SWAP1 LOG1 PUSH2 0xC4D JUMP JUMPDEST JUMP JUMPDEST PUSH2 0x908 SWAP1 PUSH2 0x397 JUMP JUMPDEST SWAP1 JUMP JUMPDEST MLOAD SWAP1 JUMP JUMPDEST PUSH2 0x918 SWAP1 PUSH2 0x37B JUMP JUMPDEST SWAP1 JUMP JUMPDEST PUSH2 0x924 SWAP1 PUSH2 0x90F JUMP JUMPDEST SWAP1 JUMP JUMPDEST PUSH2 0x930 SWAP1 PUSH2 0x397 JUMP JUMPDEST SWAP1 JUMP JUMPDEST PUSH1 0xE0 SHL SWAP1 JUMP JUMPDEST PUSH2 0x942 DUP2 PUSH2 0x48 JUMP JUMPDEST SUB PUSH2 0x949 JUMPI JUMP JUMPDEST PUSH1 0x0 DUP1 REVERT JUMPDEST SWAP1 POP MLOAD SWAP1 PUSH2 0x95B DUP3 PUSH2 0x939 JUMP JUMPDEST JUMP JUMPDEST SWAP1 PUSH1 0x20 DUP3 DUP3 SUB SLT PUSH2 0x977 JUMPI PUSH2 0x974 SWAP2 PUSH1 0x0 ADD PUSH2 0x94E JUMP JUMPDEST SWAP1 JUMP JUMPDEST PUSH2 0x1FF JUMP JUMPDEST PUSH2 0x984 PUSH2 0x1C7 JUMP JUMPDEST RETURNDATASIZE PUSH1 0x0 DUP3 RETURNDATACOPY RETURNDATASIZE SWAP1 REVERT JUMPDEST SWAP2 PUSH2 0x997 DUP4 PUSH2 0xE30 JUMP JUMPDEST DUP3 PUSH2 0x9C2 PUSH32 0x1CF3B03A6CF19FA2BABA4DF148E9DCABEDEA7F8A5C07840E207E5C089BE95D3E SWAP2 PUSH2 0x8FF JUMP JUMPDEST SWAP1 PUSH2 0x9CB PUSH2 0x1C7 JUMP JUMPDEST DUP1 PUSH2 0x9D5 DUP2 PUSH2 0x65 JUMP JUMPDEST SUB SWAP1 LOG2 PUSH2 0x9E1 DUP3 PUSH2 0x90B JUMP JUMPDEST PUSH2 0x9F4 PUSH2 0x9EE PUSH1 0x0 PUSH2 0x5A5 JUMP JUMPDEST SWAP2 PUSH2 0x1A8 JUMP JUMPDEST GT SWAP1 DUP2 ISZERO PUSH2 0xA9E JUMPI JUMPDEST POP PUSH2 0xA07 JUMPI JUMPDEST POP POP JUMP JUMPDEST PUSH1 0x20 PUSH2 0xA1D PUSH2 0xA18 PUSH2 0xA33 SWAP5 PUSH2 0x91B JUMP JUMPDEST PUSH2 0x927 JUMP JUMPDEST PUSH4 0x5C60DA1B SWAP1 PUSH2 0xA2B PUSH2 0x1C7 JUMP JUMPDEST SWAP5 DUP6 SWAP3 PUSH2 0x933 JUMP JUMPDEST DUP3 MSTORE DUP2 DUP1 PUSH2 0xA43 PUSH1 0x4 DUP3 ADD PUSH2 0x65 JUMP JUMPDEST SUB SWAP2 GAS STATICCALL SWAP1 DUP2 ISZERO PUSH2 0xA99 JUMPI PUSH2 0xA61 SWAP3 PUSH1 0x0 SWAP3 PUSH2 0xA69 JUMPI JUMPDEST POP SWAP1 PUSH2 0xF65 JUMP JUMPDEST POP CODESIZE DUP1 PUSH2 0xA03 JUMP JUMPDEST PUSH2 0xA8B SWAP2 SWAP3 POP PUSH1 0x20 RETURNDATASIZE DUP2 GT PUSH2 0xA92 JUMPI JUMPDEST PUSH2 0xA83 DUP2 DUP4 PUSH2 0x263 JUMP JUMPDEST DUP2 ADD SWAP1 PUSH2 0x95D JUMP JUMPDEST SWAP1 CODESIZE PUSH2 0xA5A JUMP JUMPDEST POP RETURNDATASIZE PUSH2 0xA79 JUMP JUMPDEST PUSH2 0x97C JUMP JUMPDEST SWAP1 POP CODESIZE PUSH2 0x9FD JUMP JUMPDEST PUSH2 0xAAE PUSH2 0xF3 JUMP JUMPDEST POP PUSH2 0xAB7 PUSH2 0xF85 JUMP JUMPDEST DUP1 PUSH2 0xAD3 PUSH2 0xACD PUSH2 0xAC8 PUSH1 0x0 PUSH2 0x3C JUMP JUMPDEST PUSH2 0x48 JUMP JUMPDEST SWAP2 PUSH2 0x48 JUMP JUMPDEST SUB PUSH2 0xAE4 JUMPI POP PUSH2 0xAE1 PUSH2 0xF99 JUMP JUMPDEST SWAP1 JUMP JUMPDEST SWAP1 JUMP JUMPDEST PUSH1 0x0 DUP1 SWAP2 CALLDATASIZE DUP3 DUP1 CALLDATACOPY DUP2 CALLDATASIZE SWAP2 GAS DELEGATECALL RETURNDATASIZE PUSH1 0x0 DUP1 RETURNDATACOPY PUSH1 0x0 EQ PUSH2 0xB05 JUMPI RETURNDATASIZE PUSH1 0x0 RETURN JUMPDEST RETURNDATASIZE PUSH1 0x0 REVERT JUMPDEST SWAP2 PUSH2 0xB14 DUP4 PUSH2 0x102F JUMP JUMPDEST PUSH2 0xB1D DUP3 PUSH2 0x90B JUMP JUMPDEST PUSH2 0xB30 PUSH2 0xB2A PUSH1 0x0 PUSH2 0x5A5 JUMP JUMPDEST SWAP2 PUSH2 0x1A8 JUMP JUMPDEST GT SWAP1 DUP2 ISZERO PUSH2 0xB54 JUMPI JUMPDEST POP PUSH2 0xB43 JUMPI JUMPDEST POP POP JUMP JUMPDEST PUSH2 0xB4C SWAP2 PUSH2 0xF65 JUMP JUMPDEST POP CODESIZE DUP1 PUSH2 0xB3F JUMP JUMPDEST SWAP1 POP CODESIZE PUSH2 0xB39 JUMP JUMPDEST PUSH1 0x20 SWAP2 DUP2 MSTORE ADD SWAP1 JUMP JUMPDEST PUSH1 0x20 PUSH32 0x6464726573730000000000000000000000000000000000000000000000000000 SWAP2 PUSH32 0x455243313936373A206E65772061646D696E20697320746865207A65726F2061 PUSH1 0x0 DUP3 ADD MSTORE ADD MSTORE JUMP JUMPDEST PUSH2 0xBC0 PUSH1 0x26 PUSH1 0x40 SWAP3 PUSH2 0xB5C JUMP JUMPDEST PUSH2 0xBC9 DUP2 PUSH2 0xB65 JUMP JUMPDEST ADD SWAP1 JUMP JUMPDEST PUSH2 0xBE3 SWAP1 PUSH1 0x20 DUP2 ADD SWAP1 PUSH1 0x0 DUP2 DUP4 SUB SWAP2 ADD MSTORE PUSH2 0xBB3 JUMP JUMPDEST SWAP1 JUMP JUMPDEST ISZERO PUSH2 0xBED JUMPI JUMP JUMPDEST PUSH2 0xBF5 PUSH2 0x1C7 JUMP JUMPDEST PUSH3 0x461BCD PUSH1 0xE5 SHL DUP2 MSTORE DUP1 PUSH2 0xC0B PUSH1 0x4 DUP3 ADD PUSH2 0xBCD JUMP JUMPDEST SUB SWAP1 REVERT JUMPDEST SWAP1 PUSH2 0xC20 PUSH1 0x1 DUP1 PUSH1 0xA0 SHL SUB SWAP2 PUSH2 0xFE JUMP JUMPDEST SWAP2 DUP2 NOT AND SWAP2 AND OR SWAP1 JUMP JUMPDEST SWAP1 JUMP JUMPDEST SWAP1 PUSH2 0xC42 PUSH2 0xC3D PUSH2 0xC49 SWAP3 PUSH2 0x8FF JUMP JUMPDEST PUSH2 0xC2A JUMP JUMPDEST DUP3 SLOAD PUSH2 0xC0F JUMP JUMPDEST SWAP1 SSTORE JUMP JUMPDEST PUSH2 0xC8F SWAP1 PUSH2 0xC77 DUP2 PUSH2 0xC70 PUSH2 0xC6A PUSH2 0xC65 PUSH1 0x0 PUSH2 0x3C JUMP JUMPDEST PUSH2 0x48 JUMP JUMPDEST SWAP2 PUSH2 0x48 JUMP JUMPDEST EQ ISZERO PUSH2 0xBE6 JUMP JUMPDEST PUSH1 0x0 PUSH2 0xC89 PUSH2 0xC84 PUSH2 0x120 JUMP JUMPDEST PUSH2 0x5A2 JUMP JUMPDEST ADD PUSH2 0xC2D JUMP JUMPDEST JUMP JUMPDEST PUSH1 0x20 PUSH32 0x7472616374000000000000000000000000000000000000000000000000000000 SWAP2 PUSH32 0x455243313936373A206E657720626561636F6E206973206E6F74206120636F6E PUSH1 0x0 DUP3 ADD MSTORE ADD MSTORE JUMP JUMPDEST PUSH2 0xCEC PUSH1 0x25 PUSH1 0x40 SWAP3 PUSH2 0xB5C JUMP JUMPDEST PUSH2 0xCF5 DUP2 PUSH2 0xC91 JUMP JUMPDEST ADD SWAP1 JUMP JUMPDEST PUSH2 0xD0F SWAP1 PUSH1 0x20 DUP2 ADD SWAP1 PUSH1 0x0 DUP2 DUP4 SUB SWAP2 ADD MSTORE PUSH2 0xCDF JUMP JUMPDEST SWAP1 JUMP JUMPDEST ISZERO PUSH2 0xD19 JUMPI JUMP JUMPDEST PUSH2 0xD21 PUSH2 0x1C7 JUMP JUMPDEST PUSH3 0x461BCD PUSH1 0xE5 SHL DUP2 MSTORE DUP1 PUSH2 0xD37 PUSH1 0x4 DUP3 ADD PUSH2 0xCF9 JUMP JUMPDEST SUB SWAP1 REVERT JUMPDEST PUSH1 0x20 PUSH32 0x73206E6F74206120636F6E747261637400000000000000000000000000000000 SWAP2 PUSH32 0x455243313936373A20626561636F6E20696D706C656D656E746174696F6E2069 PUSH1 0x0 DUP3 ADD MSTORE ADD MSTORE JUMP JUMPDEST PUSH2 0xD96 PUSH1 0x30 PUSH1 0x40 SWAP3 PUSH2 0xB5C JUMP JUMPDEST PUSH2 0xD9F DUP2 PUSH2 0xD3B JUMP JUMPDEST ADD SWAP1 JUMP JUMPDEST PUSH2 0xDB9 SWAP1 PUSH1 0x20 DUP2 ADD SWAP1 PUSH1 0x0 DUP2 DUP4 SUB SWAP2 ADD MSTORE PUSH2 0xD89 JUMP JUMPDEST SWAP1 JUMP JUMPDEST ISZERO PUSH2 0xDC3 JUMPI JUMP JUMPDEST PUSH2 0xDCB PUSH2 0x1C7 JUMP JUMPDEST PUSH3 0x461BCD PUSH1 0xE5 SHL DUP2 MSTORE DUP1 PUSH2 0xDE1 PUSH1 0x4 DUP3 ADD PUSH2 0xDA3 JUMP JUMPDEST SUB SWAP1 REVERT JUMPDEST SWAP1 JUMP JUMPDEST PUSH2 0xDFC PUSH2 0xDF7 PUSH2 0xE01 SWAP3 PUSH2 0xDE5 JUMP JUMPDEST PUSH2 0xFE JUMP JUMPDEST PUSH2 0xFB JUMP JUMPDEST SWAP1 JUMP JUMPDEST PUSH2 0xE2D PUSH32 0xA3F0AD74E5423AEBFD80D3EF4346578335A9A72AEAEE59FF6CB3582B35133D50 PUSH2 0xDE8 JUMP JUMPDEST SWAP1 JUMP JUMPDEST PUSH2 0xE6E SWAP1 PUSH2 0xE45 PUSH2 0xE40 DUP3 PUSH2 0x107F JUMP JUMPDEST PUSH2 0xD12 JUMP JUMPDEST PUSH1 0x20 PUSH2 0xE58 PUSH2 0xE53 DUP4 PUSH2 0x91B JUMP JUMPDEST PUSH2 0x927 JUMP JUMPDEST PUSH4 0x5C60DA1B SWAP1 PUSH2 0xE66 PUSH2 0x1C7 JUMP JUMPDEST SWAP5 DUP6 SWAP3 PUSH2 0x933 JUMP JUMPDEST DUP3 MSTORE DUP2 DUP1 PUSH2 0xE7E PUSH1 0x4 DUP3 ADD PUSH2 0x65 JUMP JUMPDEST SUB SWAP2 GAS STATICCALL DUP1 ISZERO PUSH2 0xEEE JUMPI PUSH2 0xEA1 PUSH2 0xEA6 SWAP2 PUSH2 0xEBE SWAP5 PUSH1 0x0 SWAP2 PUSH2 0xEC0 JUMPI JUMPDEST POP PUSH2 0x107F JUMP JUMPDEST PUSH2 0xDBC JUMP JUMPDEST PUSH1 0x0 PUSH2 0xEB8 PUSH2 0xEB3 PUSH2 0xE04 JUMP JUMPDEST PUSH2 0x5A2 JUMP JUMPDEST ADD PUSH2 0xC2D JUMP JUMPDEST JUMP JUMPDEST PUSH2 0xEE1 SWAP2 POP PUSH1 0x20 RETURNDATASIZE DUP2 GT PUSH2 0xEE7 JUMPI JUMPDEST PUSH2 0xED9 DUP2 DUP4 PUSH2 0x263 JUMP JUMPDEST DUP2 ADD SWAP1 PUSH2 0x95D JUMP JUMPDEST CODESIZE PUSH2 0xE9B JUMP JUMPDEST POP RETURNDATASIZE PUSH2 0xECF JUMP JUMPDEST PUSH2 0x97C JUMP JUMPDEST PUSH1 0x20 PUSH32 0x206661696C656400000000000000000000000000000000000000000000000000 SWAP2 PUSH32 0x416464726573733A206C6F772D6C6576656C2064656C65676174652063616C6C PUSH1 0x0 DUP3 ADD MSTORE ADD MSTORE JUMP JUMPDEST PUSH2 0xF4B PUSH1 0x27 PUSH2 0x3D2 JUMP JUMPDEST SWAP1 PUSH2 0xF58 PUSH1 0x20 DUP4 ADD PUSH2 0xEF3 JUMP JUMPDEST JUMP JUMPDEST PUSH2 0xF62 PUSH2 0xF41 JUMP JUMPDEST SWAP1 JUMP JUMPDEST SWAP1 PUSH2 0xF82 SWAP2 PUSH2 0xF72 PUSH2 0x54 JUMP JUMPDEST POP SWAP1 PUSH2 0xF7C PUSH2 0xF5A JUMP JUMPDEST SWAP2 PUSH2 0x10E2 JUMP JUMPDEST SWAP1 JUMP JUMPDEST PUSH2 0xF8D PUSH2 0xF3 JUMP JUMPDEST POP PUSH2 0xF96 PUSH2 0x1160 JUMP JUMPDEST SWAP1 JUMP JUMPDEST PUSH2 0xFA1 PUSH2 0xF3 JUMP JUMPDEST POP PUSH2 0xFD5 PUSH1 0x20 PUSH2 0xFBF PUSH2 0xFBA PUSH2 0xFB5 PUSH2 0x1187 JUMP JUMPDEST PUSH2 0x91B JUMP JUMPDEST PUSH2 0x927 JUMP JUMPDEST PUSH4 0x5C60DA1B SWAP1 PUSH2 0xFCD PUSH2 0x1C7 JUMP JUMPDEST SWAP4 DUP5 SWAP3 PUSH2 0x933 JUMP JUMPDEST DUP3 MSTORE DUP2 DUP1 PUSH2 0xFE5 PUSH1 0x4 DUP3 ADD PUSH2 0x65 JUMP JUMPDEST SUB SWAP2 GAS STATICCALL SWAP1 DUP2 ISZERO PUSH2 0x102A JUMPI PUSH1 0x0 SWAP2 PUSH2 0xFFC JUMPI JUMPDEST POP SWAP1 JUMP JUMPDEST PUSH2 0x101D SWAP2 POP PUSH1 0x20 RETURNDATASIZE DUP2 GT PUSH2 0x1023 JUMPI JUMPDEST PUSH2 0x1015 DUP2 DUP4 PUSH2 0x263 JUMP JUMPDEST DUP2 ADD SWAP1 PUSH2 0x95D JUMP JUMPDEST CODESIZE PUSH2 0xFF8 JUMP JUMPDEST POP RETURNDATASIZE PUSH2 0x100B JUMP JUMPDEST PUSH2 0x97C JUMP JUMPDEST PUSH2 0x1038 DUP2 PUSH2 0x1258 JUMP JUMPDEST PUSH2 0x1062 PUSH32 0xBC7CD75A20EE27FD9ADEBAB32041F755214DBC6BFFA90CC0225B39DA2E5C2D3B SWAP2 PUSH2 0x8FF JUMP JUMPDEST SWAP1 PUSH2 0x106B PUSH2 0x1C7 JUMP JUMPDEST DUP1 PUSH2 0x1075 DUP2 PUSH2 0x65 JUMP JUMPDEST SUB SWAP1 LOG2 JUMP JUMPDEST PUSH1 0x0 SWAP1 JUMP JUMPDEST PUSH2 0x1087 PUSH2 0x107A JUMP JUMPDEST POP EXTCODESIZE PUSH2 0x109C PUSH2 0x1096 PUSH1 0x0 PUSH2 0x5A5 JUMP JUMPDEST SWAP2 PUSH2 0x1A8 JUMP JUMPDEST GT SWAP1 JUMP JUMPDEST SWAP1 PUSH2 0x10B2 PUSH2 0x10AD DUP4 PUSH2 0x2A1 JUMP JUMPDEST PUSH2 0x28C JUMP JUMPDEST SWAP2 DUP3 MSTORE JUMP JUMPDEST RETURNDATASIZE PUSH1 0x0 EQ PUSH2 0x10D4 JUMPI PUSH2 0x10C8 RETURNDATASIZE PUSH2 0x10A0 JUMP JUMPDEST SWAP1 RETURNDATASIZE PUSH1 0x0 PUSH1 0x20 DUP5 ADD RETURNDATACOPY JUMPDEST JUMP JUMPDEST PUSH2 0x10DC PUSH2 0x54 JUMP JUMPDEST SWAP1 PUSH2 0x10D2 JUMP JUMPDEST SWAP1 SWAP2 PUSH1 0x0 DUP1 PUSH2 0x1112 SWAP5 PUSH2 0x10F3 PUSH2 0x54 JUMP JUMPDEST POP DUP5 SWAP1 PUSH1 0x20 DUP2 ADD SWAP1 MLOAD SWAP2 GAS DELEGATECALL SWAP2 PUSH2 0x1108 PUSH2 0x10B7 JUMP JUMPDEST SWAP1 SWAP3 SWAP1 SWAP2 SWAP3 PUSH2 0x130B JUMP JUMPDEST SWAP1 JUMP JUMPDEST SWAP1 JUMP JUMPDEST PUSH2 0x112C PUSH2 0x1127 PUSH2 0x1131 SWAP3 PUSH2 0x1115 JUMP JUMPDEST PUSH2 0xFE JUMP JUMPDEST PUSH2 0xFB JUMP JUMPDEST SWAP1 JUMP JUMPDEST PUSH2 0x115D PUSH32 0x360894A13BA1A3210667C828492DB98DCA3E2076CC3735A920A3CA505D382BBC PUSH2 0x1118 JUMP JUMPDEST SWAP1 JUMP JUMPDEST PUSH2 0x1168 PUSH2 0xF3 JUMP JUMPDEST POP PUSH2 0x1184 PUSH1 0x0 PUSH2 0x117E PUSH2 0x1179 PUSH2 0x1134 JUMP JUMPDEST PUSH2 0x5A2 JUMP JUMPDEST ADD PUSH2 0x171 JUMP JUMPDEST SWAP1 JUMP JUMPDEST PUSH2 0x118F PUSH2 0xF3 JUMP JUMPDEST POP PUSH2 0x11AB PUSH1 0x0 PUSH2 0x11A5 PUSH2 0x11A0 PUSH2 0xE04 JUMP JUMPDEST PUSH2 0x5A2 JUMP JUMPDEST ADD PUSH2 0x171 JUMP JUMPDEST SWAP1 JUMP JUMPDEST PUSH1 0x20 PUSH32 0x6F74206120636F6E747261637400000000000000000000000000000000000000 SWAP2 PUSH32 0x455243313936373A206E657720696D706C656D656E746174696F6E206973206E PUSH1 0x0 DUP3 ADD MSTORE ADD MSTORE JUMP JUMPDEST PUSH2 0x1209 PUSH1 0x2D PUSH1 0x40 SWAP3 PUSH2 0xB5C JUMP JUMPDEST PUSH2 0x1212 DUP2 PUSH2 0x11AE JUMP JUMPDEST ADD SWAP1 JUMP JUMPDEST PUSH2 0x122C SWAP1 PUSH1 0x20 DUP2 ADD SWAP1 PUSH1 0x0 DUP2 DUP4 SUB SWAP2 ADD MSTORE PUSH2 0x11FC JUMP JUMPDEST SWAP1 JUMP JUMPDEST ISZERO PUSH2 0x1236 JUMPI JUMP JUMPDEST PUSH2 0x123E PUSH2 0x1C7 JUMP JUMPDEST PUSH3 0x461BCD PUSH1 0xE5 SHL DUP2 MSTORE DUP1 PUSH2 0x1254 PUSH1 0x4 DUP3 ADD PUSH2 0x1216 JUMP JUMPDEST SUB SWAP1 REVERT JUMPDEST PUSH2 0x1285 SWAP1 PUSH2 0x126D PUSH2 0x1268 DUP3 PUSH2 0x107F JUMP JUMPDEST PUSH2 0x122F JUMP JUMPDEST PUSH1 0x0 PUSH2 0x127F PUSH2 0x127A PUSH2 0x1134 JUMP JUMPDEST PUSH2 0x5A2 JUMP JUMPDEST ADD PUSH2 0xC2D JUMP JUMPDEST JUMP JUMPDEST PUSH1 0x0 PUSH32 0x416464726573733A2063616C6C20746F206E6F6E2D636F6E7472616374000000 SWAP2 ADD MSTORE JUMP JUMPDEST PUSH2 0x12BC PUSH1 0x1D PUSH1 0x20 SWAP3 PUSH2 0xB5C JUMP JUMPDEST PUSH2 0x12C5 DUP2 PUSH2 0x1287 JUMP JUMPDEST ADD SWAP1 JUMP JUMPDEST PUSH2 0x12DF SWAP1 PUSH1 0x20 DUP2 ADD SWAP1 PUSH1 0x0 DUP2 DUP4 SUB SWAP2 ADD MSTORE PUSH2 0x12AF JUMP JUMPDEST SWAP1 JUMP JUMPDEST ISZERO PUSH2 0x12E9 JUMPI JUMP JUMPDEST PUSH2 0x12F1 PUSH2 0x1C7 JUMP JUMPDEST PUSH3 0x461BCD PUSH1 0xE5 SHL DUP2 MSTORE DUP1 PUSH2 0x1307 PUSH1 0x4 DUP3 ADD PUSH2 0x12C9 JUMP JUMPDEST SUB SWAP1 REVERT JUMPDEST SWAP2 SWAP3 SWAP1 PUSH2 0x1316 PUSH2 0x54 JUMP JUMPDEST POP PUSH1 0x0 EQ PUSH2 0x135C JUMPI POP PUSH2 0x1328 DUP3 PUSH2 0x90B JUMP JUMPDEST PUSH2 0x133B PUSH2 0x1335 PUSH1 0x0 PUSH2 0x5A5 JUMP JUMPDEST SWAP2 PUSH2 0x1A8 JUMP JUMPDEST EQ PUSH2 0x1345 JUMPI JUMPDEST POP SWAP1 JUMP JUMPDEST PUSH2 0x1351 PUSH2 0x1356 SWAP2 PUSH2 0x107F JUMP JUMPDEST PUSH2 0x12E2 JUMP JUMPDEST CODESIZE PUSH2 0x1341 JUMP JUMPDEST DUP3 PUSH2 0x13D5 JUMP JUMPDEST MLOAD SWAP1 JUMP JUMPDEST PUSH1 0x0 JUMPDEST DUP4 DUP2 LT PUSH2 0x137A JUMPI POP POP SWAP1 PUSH1 0x0 SWAP2 ADD MSTORE JUMP JUMPDEST DUP1 PUSH1 0x20 SWAP2 DUP4 ADD MLOAD DUP2 DUP6 ADD MSTORE ADD PUSH2 0x1369 JUMP JUMPDEST PUSH2 0x13AA PUSH2 0x13B3 PUSH1 0x20 SWAP4 PUSH2 0x13B8 SWAP4 PUSH2 0x13A1 DUP2 PUSH2 0x1362 JUMP JUMPDEST SWAP4 DUP5 DUP1 SWAP4 PUSH2 0xB5C JUMP JUMPDEST SWAP6 DUP7 SWAP2 ADD PUSH2 0x1366 JUMP JUMPDEST PUSH2 0x243 JUMP JUMPDEST ADD SWAP1 JUMP JUMPDEST PUSH2 0x13D2 SWAP2 PUSH1 0x20 DUP3 ADD SWAP2 PUSH1 0x0 DUP2 DUP5 SUB SWAP2 ADD MSTORE PUSH2 0x138B JUMP JUMPDEST SWAP1 JUMP JUMPDEST SWAP1 PUSH2 0x13DF DUP3 PUSH2 0x90B JUMP JUMPDEST PUSH2 0x13F2 PUSH2 0x13EC PUSH1 0x0 PUSH2 0x5A5 JUMP JUMPDEST SWAP2 PUSH2 0x1A8 JUMP JUMPDEST GT PUSH1 0x0 EQ PUSH2 0x1403 JUMPI POP DUP1 MLOAD SWAP1 PUSH1 0x20 ADD REVERT JUMPDEST PUSH2 0x1424 SWAP1 PUSH2 0x140F PUSH2 0x1C7 JUMP JUMPDEST SWAP2 DUP3 SWAP2 PUSH3 0x461BCD PUSH1 0xE5 SHL DUP4 MSTORE PUSH1 0x4 DUP4 ADD PUSH2 0x13BC JUMP JUMPDEST SUB SWAP1 REVERT INVALID LOG2 PUSH5 0x6970667358 0x22 SLT KECCAK256 0xFB XOR SWAP10 0xE6 0x1F CODESIZE STATICCALL 0xA7 DUP12 0xFB 0xAB PUSH26 0xB8DC2FA613357C2FCE2699411F9FEE80B624365564736F6C6343 STOP ADDMOD SHL STOP CALLER LOG2 PUSH5 0x6970667358 0x22 SLT KECCAK256 0xD3 MSTORE8 LOG2 DUP11 STOP LOG0 SWAP4 SWAP4 0xE3 0xBD 0xD3 CALLDATACOPY 0xEF PUSH13 0x721C7F72D7EBAD899D5249255D 0xD6 0xE7 EXTCODEHASH GASLIMIT 0xD0 PUSH5 0x736F6C6343 STOP ADDMOD SHL STOP CALLER PUSH1 0xA0 PUSH1 0x40 MSTORE CALLVALUE PUSH1 0x2B JUMPI PUSH1 0xE PUSH1 0x3A JUMP JUMPDEST PUSH1 0x14 PUSH1 0x2F JUMP JUMPDEST PUSH2 0x4B86 PUSH2 0x41 DUP3 CODECOPY PUSH1 0x80 MLOAD DUP2 PUSH2 0x25DA ADD MSTORE PUSH2 0x4B86 SWAP1 RETURN JUMPDEST PUSH1 0x35 JUMP JUMPDEST PUSH1 0x40 MLOAD SWAP1 JUMP JUMPDEST PUSH1 0x0 DUP1 REVERT JUMPDEST CALLER PUSH1 0x80 MSTORE JUMP INVALID PUSH1 0x80 PUSH1 0x40 MSTORE PUSH1 0x4 CALLDATASIZE LT ISZERO PUSH2 0x13 JUMPI JUMPDEST PUSH2 0x1806 JUMP JUMPDEST PUSH2 0x1E PUSH1 0x0 CALLDATALOAD PUSH2 0x24C JUMP JUMPDEST DUP1 PUSH3 0xFDD58E EQ PUSH2 0x247 JUMPI DUP1 PUSH4 0x1FFC9A7 EQ PUSH2 0x242 JUMPI DUP1 PUSH4 0x4634D8D EQ PUSH2 0x23D JUMPI DUP1 PUSH4 0x6FDDE03 EQ PUSH2 0x238 JUMPI DUP1 PUSH4 0xB5EE006 EQ PUSH2 0x233 JUMPI DUP1 PUSH4 0xBB310DE EQ PUSH2 0x22E JUMPI DUP1 PUSH4 0xE89341C EQ PUSH2 0x229 JUMPI DUP1 PUSH4 0x18160DDD EQ PUSH2 0x224 JUMPI DUP1 PUSH4 0x20EC271B EQ PUSH2 0x21F JUMPI DUP1 PUSH4 0x248A9CA3 EQ PUSH2 0x21A JUMPI DUP1 PUSH4 0x2693EBF2 EQ PUSH2 0x215 JUMPI DUP1 PUSH4 0x2A55205A EQ PUSH2 0x210 JUMPI DUP1 PUSH4 0x2EB2C2D6 EQ PUSH2 0x20B JUMPI DUP1 PUSH4 0x2F2FF15D EQ PUSH2 0x206 JUMPI DUP1 PUSH4 0x36568ABE EQ PUSH2 0x201 JUMPI DUP1 PUSH4 0x4E1273F4 EQ PUSH2 0x1FC JUMPI DUP1 PUSH4 0x5944C753 EQ PUSH2 0x1F7 JUMPI DUP1 PUSH4 0x6C0360EB EQ PUSH2 0x1F2 JUMPI DUP1 PUSH4 0x731133E9 EQ PUSH2 0x1ED JUMPI DUP1 PUSH4 0x7E518EC8 EQ PUSH2 0x1E8 JUMPI DUP1 PUSH4 0x8FF83AC1 EQ PUSH2 0x1E3 JUMPI DUP1 PUSH4 0x9010D07C EQ PUSH2 0x1DE JUMPI DUP1 PUSH4 0x91D14854 EQ PUSH2 0x1D9 JUMPI DUP1 PUSH4 0x938E3D7B EQ PUSH2 0x1D4 JUMPI DUP1 PUSH4 0x9D043A66 EQ PUSH2 0x1CF JUMPI DUP1 PUSH4 0xA217FDDF EQ PUSH2 0x1CA JUMPI DUP1 PUSH4 0xA22CB465 EQ PUSH2 0x1C5 JUMPI DUP1 PUSH4 0xB390C0AB EQ PUSH2 0x1C0 JUMPI DUP1 PUSH4 0xB48AB8B6 EQ PUSH2 0x1BB JUMPI DUP1 PUSH4 0xCA15C873 EQ PUSH2 0x1B6 JUMPI DUP1 PUSH4 0xD547741F EQ PUSH2 0x1B1 JUMPI DUP1 PUSH4 0xE8A3D485 EQ PUSH2 0x1AC JUMPI DUP1 PUSH4 0xE985E9C5 EQ PUSH2 0x1A7 JUMPI DUP1 PUSH4 0xED4C2AC7 EQ PUSH2 0x1A2 JUMPI PUSH4 0xF242432A SUB PUSH2 0xE JUMPI PUSH2 0x17CC JUMP JUMPDEST PUSH2 0x1728 JUMP JUMPDEST PUSH2 0x16F2 JUMP JUMPDEST PUSH2 0x168F JUMP JUMPDEST PUSH2 0x164B JUMP JUMPDEST PUSH2 0x1616 JUMP JUMPDEST PUSH2 0x15DF JUMP JUMPDEST PUSH2 0x151B JUMP JUMPDEST PUSH2 0x14E7 JUMP JUMPDEST PUSH2 0x1460 JUMP JUMPDEST PUSH2 0x13ED JUMP JUMPDEST PUSH2 0x1325 JUMP JUMPDEST PUSH2 0x12EF JUMP JUMPDEST PUSH2 0x12B9 JUMP JUMPDEST PUSH2 0x1238 JUMP JUMPDEST PUSH2 0x113B JUMP JUMPDEST PUSH2 0x1104 JUMP JUMPDEST PUSH2 0xFF3 JUMP JUMPDEST PUSH2 0xFAF JUMP JUMPDEST PUSH2 0xF3B JUMP JUMPDEST PUSH2 0xDC7 JUMP JUMPDEST PUSH2 0xD93 JUMP JUMPDEST PUSH2 0xD28 JUMP JUMPDEST PUSH2 0xBCB JUMP JUMPDEST PUSH2 0xB37 JUMP JUMPDEST PUSH2 0xAB1 JUMP JUMPDEST PUSH2 0xA14 JUMP JUMPDEST PUSH2 0x8E5 JUMP JUMPDEST PUSH2 0x875 JUMP JUMPDEST PUSH2 0x823 JUMP JUMPDEST PUSH2 0x7D1 JUMP JUMPDEST PUSH2 0x6BF JUMP JUMPDEST PUSH2 0x465 JUMP JUMPDEST PUSH2 0x3C7 JUMP JUMPDEST PUSH2 0x31A JUMP JUMPDEST PUSH1 0xE0 SHR SWAP1 JUMP JUMPDEST PUSH1 0x40 MLOAD SWAP1 JUMP JUMPDEST PUSH1 0x0 DUP1 REVERT JUMPDEST PUSH1 0x0 DUP1 REVERT JUMPDEST PUSH1 0x0 DUP1 REVERT JUMPDEST PUSH1 0x1 DUP1 PUSH1 0xA0 SHL SUB AND SWAP1 JUMP JUMPDEST PUSH2 0x27B SWAP1 PUSH2 0x267 JUMP JUMPDEST SWAP1 JUMP JUMPDEST PUSH2 0x287 DUP2 PUSH2 0x272 JUMP JUMPDEST SUB PUSH2 0x28E JUMPI JUMP JUMPDEST PUSH1 0x0 DUP1 REVERT JUMPDEST SWAP1 POP CALLDATALOAD SWAP1 PUSH2 0x2A0 DUP3 PUSH2 0x27E JUMP JUMPDEST JUMP JUMPDEST SWAP1 JUMP JUMPDEST PUSH2 0x2AE DUP2 PUSH2 0x2A2 JUMP JUMPDEST SUB PUSH2 0x2B5 JUMPI JUMP JUMPDEST PUSH1 0x0 DUP1 REVERT JUMPDEST SWAP1 POP CALLDATALOAD SWAP1 PUSH2 0x2C7 DUP3 PUSH2 0x2A5 JUMP JUMPDEST JUMP JUMPDEST SWAP2 SWAP1 PUSH1 0x40 DUP4 DUP3 SUB SLT PUSH2 0x2F2 JUMPI DUP1 PUSH2 0x2E6 PUSH2 0x2EF SWAP3 PUSH1 0x0 DUP7 ADD PUSH2 0x293 JUMP JUMPDEST SWAP4 PUSH1 0x20 ADD PUSH2 0x2BA JUMP JUMPDEST SWAP1 JUMP JUMPDEST PUSH2 0x25D JUMP JUMPDEST PUSH2 0x300 SWAP1 PUSH2 0x2A2 JUMP JUMPDEST SWAP1 MSTORE JUMP JUMPDEST SWAP2 SWAP1 PUSH2 0x318 SWAP1 PUSH1 0x0 PUSH1 0x20 DUP6 ADD SWAP5 ADD SWAP1 PUSH2 0x2F7 JUMP JUMPDEST JUMP JUMPDEST CALLVALUE PUSH2 0x34B JUMPI PUSH2 0x347 PUSH2 0x336 PUSH2 0x330 CALLDATASIZE PUSH1 0x4 PUSH2 0x2C9 JUMP JUMPDEST SWAP1 PUSH2 0x1810 JUMP JUMPDEST PUSH2 0x33E PUSH2 0x252 JUMP JUMPDEST SWAP2 DUP3 SWAP2 DUP3 PUSH2 0x304 JUMP JUMPDEST SUB SWAP1 RETURN JUMPDEST PUSH2 0x258 JUMP JUMPDEST PUSH4 0xFFFFFFFF PUSH1 0xE0 SHL AND SWAP1 JUMP JUMPDEST PUSH2 0x365 DUP2 PUSH2 0x350 JUMP JUMPDEST SUB PUSH2 0x36C JUMPI JUMP JUMPDEST PUSH1 0x0 DUP1 REVERT JUMPDEST SWAP1 POP CALLDATALOAD SWAP1 PUSH2 0x37E DUP3 PUSH2 0x35C JUMP JUMPDEST JUMP JUMPDEST SWAP1 PUSH1 0x20 DUP3 DUP3 SUB SLT PUSH2 0x39A JUMPI PUSH2 0x397 SWAP2 PUSH1 0x0 ADD PUSH2 0x371 JUMP JUMPDEST SWAP1 JUMP JUMPDEST PUSH2 0x25D JUMP JUMPDEST ISZERO ISZERO SWAP1 JUMP JUMPDEST PUSH2 0x3AD SWAP1 PUSH2 0x39F JUMP JUMPDEST SWAP1 MSTORE JUMP JUMPDEST SWAP2 SWAP1 PUSH2 0x3C5 SWAP1 PUSH1 0x0 PUSH1 0x20 DUP6 ADD SWAP5 ADD SWAP1 PUSH2 0x3A4 JUMP JUMPDEST JUMP JUMPDEST CALLVALUE PUSH2 0x3F7 JUMPI PUSH2 0x3F3 PUSH2 0x3E2 PUSH2 0x3DD CALLDATASIZE PUSH1 0x4 PUSH2 0x380 JUMP JUMPDEST PUSH2 0x1839 JUMP JUMPDEST PUSH2 0x3EA PUSH2 0x252 JUMP JUMPDEST SWAP2 DUP3 SWAP2 DUP3 PUSH2 0x3B1 JUMP JUMPDEST SUB SWAP1 RETURN JUMPDEST PUSH2 0x258 JUMP JUMPDEST PUSH12 0xFFFFFFFFFFFFFFFFFFFFFFFF AND SWAP1 JUMP JUMPDEST PUSH2 0x416 DUP2 PUSH2 0x3FC JUMP JUMPDEST SUB PUSH2 0x41D JUMPI JUMP JUMPDEST PUSH1 0x0 DUP1 REVERT JUMPDEST SWAP1 POP CALLDATALOAD SWAP1 PUSH2 0x42F DUP3 PUSH2 0x40D JUMP JUMPDEST JUMP JUMPDEST SWAP2 SWAP1 PUSH1 0x40 DUP4 DUP3 SUB SLT PUSH2 0x45A JUMPI DUP1 PUSH2 0x44E PUSH2 0x457 SWAP3 PUSH1 0x0 DUP7 ADD PUSH2 0x293 JUMP JUMPDEST SWAP4 PUSH1 0x20 ADD PUSH2 0x422 JUMP JUMPDEST SWAP1 JUMP JUMPDEST PUSH2 0x25D JUMP JUMPDEST PUSH1 0x0 ADD SWAP1 JUMP JUMPDEST CALLVALUE PUSH2 0x494 JUMPI PUSH2 0x47E PUSH2 0x478 CALLDATASIZE PUSH1 0x4 PUSH2 0x431 JUMP JUMPDEST SWAP1 PUSH2 0x18DB JUMP JUMPDEST PUSH2 0x486 PUSH2 0x252 JUMP JUMPDEST DUP1 PUSH2 0x490 DUP2 PUSH2 0x45F JUMP JUMPDEST SUB SWAP1 RETURN JUMPDEST PUSH2 0x258 JUMP JUMPDEST PUSH1 0x0 SWAP2 SUB SLT PUSH2 0x4A4 JUMPI JUMP JUMPDEST PUSH2 0x25D JUMP JUMPDEST PUSH4 0x4E487B71 PUSH1 0xE0 SHL PUSH1 0x0 MSTORE PUSH1 0x0 PUSH1 0x4 MSTORE PUSH1 0x24 PUSH1 0x0 REVERT JUMPDEST PUSH4 0x4E487B71 PUSH1 0xE0 SHL PUSH1 0x0 MSTORE PUSH1 0x22 PUSH1 0x4 MSTORE PUSH1 0x24 PUSH1 0x0 REVERT JUMPDEST SWAP1 PUSH1 0x1 PUSH1 0x2 DUP4 DIV SWAP3 AND DUP1 ISZERO PUSH2 0x4F5 JUMPI JUMPDEST PUSH1 0x20 DUP4 LT EQ PUSH2 0x4F0 JUMPI JUMP JUMPDEST PUSH2 0x4BF JUMP JUMPDEST SWAP2 PUSH1 0x7F AND SWAP2 PUSH2 0x4E5 JUMP JUMPDEST PUSH1 0x20 SWAP2 DUP2 MSTORE ADD SWAP1 JUMP JUMPDEST PUSH1 0x0 MSTORE PUSH1 0x20 PUSH1 0x0 KECCAK256 SWAP1 JUMP JUMPDEST SWAP1 PUSH1 0x0 SWAP3 SWAP2 DUP1 SLOAD SWAP1 PUSH2 0x52E PUSH2 0x527 DUP4 PUSH2 0x4D5 JUMP JUMPDEST DUP1 SWAP5 PUSH2 0x4FF JUMP JUMPDEST SWAP2 PUSH1 0x1 DUP2 AND SWAP1 DUP2 PUSH1 0x0 EQ PUSH2 0x587 JUMPI POP PUSH1 0x1 EQ PUSH2 0x54A JUMPI JUMPDEST POP POP POP JUMP JUMPDEST PUSH2 0x557 SWAP2 SWAP3 SWAP4 SWAP5 POP PUSH2 0x508 JUMP JUMPDEST SWAP2 PUSH1 0x0 SWAP3 JUMPDEST DUP2 DUP5 LT PUSH2 0x56F JUMPI POP POP ADD SWAP1 CODESIZE DUP1 DUP1 PUSH2 0x545 JUMP JUMPDEST PUSH1 0x1 DUP2 PUSH1 0x20 SWAP3 SWAP6 SWAP4 SWAP6 SLOAD DUP5 DUP7 ADD MSTORE ADD SWAP2 ADD SWAP3 SWAP1 PUSH2 0x55C JUMP JUMPDEST SWAP3 SWAP5 SWAP6 POP POP POP PUSH1 0xFF NOT AND DUP3 MSTORE ISZERO ISZERO PUSH1 0x20 MUL ADD SWAP1 CODESIZE DUP1 DUP1 PUSH2 0x545 JUMP JUMPDEST SWAP1 PUSH2 0x5AC SWAP2 PUSH2 0x513 JUMP JUMPDEST SWAP1 JUMP JUMPDEST PUSH1 0x1F DUP1 NOT SWAP2 ADD AND SWAP1 JUMP JUMPDEST PUSH4 0x4E487B71 PUSH1 0xE0 SHL PUSH1 0x0 MSTORE PUSH1 0x41 PUSH1 0x4 MSTORE PUSH1 0x24 PUSH1 0x0 REVERT JUMPDEST SWAP1 PUSH2 0x5D9 SWAP1 PUSH2 0x5AF JUMP JUMPDEST DUP2 ADD SWAP1 DUP2 LT PUSH8 0xFFFFFFFFFFFFFFFF DUP3 GT OR PUSH2 0x5F3 JUMPI PUSH1 0x40 MSTORE JUMP JUMPDEST PUSH2 0x5B9 JUMP JUMPDEST SWAP1 PUSH2 0x618 PUSH2 0x611 SWAP3 PUSH2 0x608 PUSH2 0x252 JUMP JUMPDEST SWAP4 DUP5 DUP1 SWAP3 PUSH2 0x5A2 JUMP JUMPDEST SUB DUP4 PUSH2 0x5CF JUMP JUMPDEST JUMP JUMPDEST SWAP1 PUSH1 0x0 LT PUSH2 0x62E JUMPI PUSH2 0x62B SWAP1 PUSH2 0x5F8 JUMP JUMPDEST SWAP1 JUMP JUMPDEST PUSH2 0x4A9 JUMP JUMPDEST PUSH2 0x640 PUSH1 0x8 PUSH1 0x0 SWAP1 PUSH2 0x61A JUMP JUMPDEST SWAP1 JUMP JUMPDEST MLOAD SWAP1 JUMP JUMPDEST PUSH1 0x20 SWAP2 DUP2 MSTORE ADD SWAP1 JUMP JUMPDEST PUSH1 0x0 JUMPDEST DUP4 DUP2 LT PUSH2 0x664 JUMPI POP POP SWAP1 PUSH1 0x0 SWAP2 ADD MSTORE JUMP JUMPDEST DUP1 PUSH1 0x20 SWAP2 DUP4 ADD MLOAD DUP2 DUP6 ADD MSTORE ADD PUSH2 0x653 JUMP JUMPDEST PUSH2 0x694 PUSH2 0x69D PUSH1 0x20 SWAP4 PUSH2 0x6A2 SWAP4 PUSH2 0x68B DUP2 PUSH2 0x643 JUMP JUMPDEST SWAP4 DUP5 DUP1 SWAP4 PUSH2 0x647 JUMP JUMPDEST SWAP6 DUP7 SWAP2 ADD PUSH2 0x650 JUMP JUMPDEST PUSH2 0x5AF JUMP JUMPDEST ADD SWAP1 JUMP JUMPDEST PUSH2 0x6BC SWAP2 PUSH1 0x20 DUP3 ADD SWAP2 PUSH1 0x0 DUP2 DUP5 SUB SWAP2 ADD MSTORE PUSH2 0x675 JUMP JUMPDEST SWAP1 JUMP JUMPDEST CALLVALUE PUSH2 0x6EF JUMPI PUSH2 0x6CF CALLDATASIZE PUSH1 0x4 PUSH2 0x499 JUMP JUMPDEST PUSH2 0x6EB PUSH2 0x6DA PUSH2 0x633 JUMP JUMPDEST PUSH2 0x6E2 PUSH2 0x252 JUMP JUMPDEST SWAP2 DUP3 SWAP2 DUP3 PUSH2 0x6A6 JUMP JUMPDEST SUB SWAP1 RETURN JUMPDEST PUSH2 0x258 JUMP JUMPDEST PUSH1 0x0 DUP1 REVERT JUMPDEST PUSH1 0x0 DUP1 REVERT JUMPDEST SWAP1 PUSH2 0x711 PUSH2 0x70A PUSH2 0x252 JUMP JUMPDEST SWAP3 DUP4 PUSH2 0x5CF JUMP JUMPDEST JUMP JUMPDEST PUSH8 0xFFFFFFFFFFFFFFFF DUP2 GT PUSH2 0x731 JUMPI PUSH2 0x72D PUSH1 0x20 SWAP2 PUSH2 0x5AF JUMP JUMPDEST ADD SWAP1 JUMP JUMPDEST PUSH2 0x5B9 JUMP JUMPDEST SWAP1 DUP3 PUSH1 0x0 SWAP4 SWAP3 DUP3 CALLDATACOPY ADD MSTORE JUMP JUMPDEST SWAP1 SWAP3 SWAP2 SWAP3 PUSH2 0x757 PUSH2 0x752 DUP3 PUSH2 0x713 JUMP JUMPDEST PUSH2 0x6FE JUMP JUMPDEST SWAP4 DUP2 DUP6 MSTORE PUSH1 0x20 DUP6 ADD SWAP1 DUP3 DUP5 ADD GT PUSH2 0x773 JUMPI PUSH2 0x771 SWAP3 PUSH2 0x736 JUMP JUMPDEST JUMP JUMPDEST PUSH2 0x6F9 JUMP JUMPDEST SWAP1 DUP1 PUSH1 0x1F DUP4 ADD SLT ISZERO PUSH2 0x796 JUMPI DUP2 PUSH1 0x20 PUSH2 0x793 SWAP4 CALLDATALOAD SWAP2 ADD PUSH2 0x742 JUMP JUMPDEST SWAP1 JUMP JUMPDEST PUSH2 0x6F4 JUMP JUMPDEST SWAP1 PUSH1 0x20 DUP3 DUP3 SUB SLT PUSH2 0x7CC JUMPI PUSH1 0x0 DUP3 ADD CALLDATALOAD PUSH8 0xFFFFFFFFFFFFFFFF DUP2 GT PUSH2 0x7C7 JUMPI PUSH2 0x7C4 SWAP3 ADD PUSH2 0x778 JUMP JUMPDEST SWAP1 JUMP JUMPDEST PUSH2 0x262 JUMP JUMPDEST PUSH2 0x25D JUMP JUMPDEST CALLVALUE PUSH2 0x7FF JUMPI PUSH2 0x7E9 PUSH2 0x7E4 CALLDATASIZE PUSH1 0x4 PUSH2 0x79B JUMP JUMPDEST PUSH2 0x1B1C JUMP JUMPDEST PUSH2 0x7F1 PUSH2 0x252 JUMP JUMPDEST DUP1 PUSH2 0x7FB DUP2 PUSH2 0x45F JUMP JUMPDEST SUB SWAP1 RETURN JUMPDEST PUSH2 0x258 JUMP JUMPDEST SWAP1 PUSH1 0x20 DUP3 DUP3 SUB SLT PUSH2 0x81E JUMPI PUSH2 0x81B SWAP2 PUSH1 0x0 ADD PUSH2 0x293 JUMP JUMPDEST SWAP1 JUMP JUMPDEST PUSH2 0x25D JUMP JUMPDEST CALLVALUE PUSH2 0x851 JUMPI PUSH2 0x83B PUSH2 0x836 CALLDATASIZE PUSH1 0x4 PUSH2 0x804 JUMP JUMPDEST PUSH2 0x1BF9 JUMP JUMPDEST PUSH2 0x843 PUSH2 0x252 JUMP JUMPDEST DUP1 PUSH2 0x84D DUP2 PUSH2 0x45F JUMP JUMPDEST SUB SWAP1 RETURN JUMPDEST PUSH2 0x258 JUMP JUMPDEST SWAP1 PUSH1 0x20 DUP3 DUP3 SUB SLT PUSH2 0x870 JUMPI PUSH2 0x86D SWAP2 PUSH1 0x0 ADD PUSH2 0x2BA JUMP JUMPDEST SWAP1 JUMP JUMPDEST PUSH2 0x25D JUMP JUMPDEST CALLVALUE PUSH2 0x8A5 JUMPI PUSH2 0x8A1 PUSH2 0x890 PUSH2 0x88B CALLDATASIZE PUSH1 0x4 PUSH2 0x856 JUMP JUMPDEST PUSH2 0x1D23 JUMP JUMPDEST PUSH2 0x898 PUSH2 0x252 JUMP JUMPDEST SWAP2 DUP3 SWAP2 DUP3 PUSH2 0x6A6 JUMP JUMPDEST SUB SWAP1 RETURN JUMPDEST PUSH2 0x258 JUMP JUMPDEST SHR SWAP1 JUMP JUMPDEST SWAP1 JUMP JUMPDEST PUSH2 0x8C1 SWAP1 PUSH1 0x8 PUSH2 0x8C6 SWAP4 MUL PUSH2 0x8AA JUMP JUMPDEST PUSH2 0x8AE JUMP JUMPDEST SWAP1 JUMP JUMPDEST SWAP1 PUSH2 0x8D4 SWAP2 SLOAD PUSH2 0x8B1 JUMP JUMPDEST SWAP1 JUMP JUMPDEST PUSH2 0x8E2 PUSH1 0x0 DUP1 PUSH2 0x8C9 JUMP JUMPDEST SWAP1 JUMP JUMPDEST CALLVALUE PUSH2 0x915 JUMPI PUSH2 0x8F5 CALLDATASIZE PUSH1 0x4 PUSH2 0x499 JUMP JUMPDEST PUSH2 0x911 PUSH2 0x900 PUSH2 0x8D7 JUMP JUMPDEST PUSH2 0x908 PUSH2 0x252 JUMP JUMPDEST SWAP2 DUP3 SWAP2 DUP3 PUSH2 0x304 JUMP JUMPDEST SUB SWAP1 RETURN JUMPDEST PUSH2 0x258 JUMP JUMPDEST PUSH8 0xFFFFFFFFFFFFFFFF DUP2 GT PUSH2 0x932 JUMPI PUSH1 0x20 DUP1 SWAP2 MUL ADD SWAP1 JUMP JUMPDEST PUSH2 0x5B9 JUMP JUMPDEST PUSH1 0x0 DUP1 REVERT JUMPDEST SWAP1 SWAP3 SWAP2 SWAP3 PUSH2 0x951 PUSH2 0x94C DUP3 PUSH2 0x91A JUMP JUMPDEST PUSH2 0x6FE JUMP JUMPDEST SWAP4 DUP2 DUP6 MSTORE PUSH1 0x20 DUP1 DUP7 ADD SWAP3 MUL DUP4 ADD SWAP3 DUP2 DUP5 GT PUSH2 0x98E JUMPI SWAP2 JUMPDEST DUP4 DUP4 LT PUSH2 0x975 JUMPI POP POP POP POP JUMP JUMPDEST PUSH1 0x20 DUP1 SWAP2 PUSH2 0x983 DUP5 DUP7 PUSH2 0x2BA JUMP JUMPDEST DUP2 MSTORE ADD SWAP3 ADD SWAP2 PUSH2 0x968 JUMP JUMPDEST PUSH2 0x937 JUMP JUMPDEST SWAP1 DUP1 PUSH1 0x1F DUP4 ADD SLT ISZERO PUSH2 0x9B1 JUMPI DUP2 PUSH1 0x20 PUSH2 0x9AE SWAP4 CALLDATALOAD SWAP2 ADD PUSH2 0x93C JUMP JUMPDEST SWAP1 JUMP JUMPDEST PUSH2 0x6F4 JUMP JUMPDEST SWAP2 SWAP1 SWAP2 PUSH1 0x40 DUP2 DUP5 SUB SLT PUSH2 0xA0F JUMPI PUSH1 0x0 DUP2 ADD CALLDATALOAD PUSH8 0xFFFFFFFFFFFFFFFF DUP2 GT PUSH2 0xA0A JUMPI DUP4 PUSH2 0x9E3 SWAP2 DUP4 ADD PUSH2 0x993 JUMP JUMPDEST SWAP3 PUSH1 0x20 DUP3 ADD CALLDATALOAD PUSH8 0xFFFFFFFFFFFFFFFF DUP2 GT PUSH2 0xA05 JUMPI PUSH2 0xA02 SWAP3 ADD PUSH2 0x993 JUMP JUMPDEST SWAP1 JUMP JUMPDEST PUSH2 0x262 JUMP JUMPDEST PUSH2 0x262 JUMP JUMPDEST PUSH2 0x25D JUMP JUMPDEST CALLVALUE PUSH2 0xA43 JUMPI PUSH2 0xA2D PUSH2 0xA27 CALLDATASIZE PUSH1 0x4 PUSH2 0x9B6 JUMP JUMPDEST SWAP1 PUSH2 0x1D6D JUMP JUMPDEST PUSH2 0xA35 PUSH2 0x252 JUMP JUMPDEST DUP1 PUSH2 0xA3F DUP2 PUSH2 0x45F JUMP JUMPDEST SUB SWAP1 RETURN JUMPDEST PUSH2 0x258 JUMP JUMPDEST SWAP1 JUMP JUMPDEST PUSH2 0xA54 DUP2 PUSH2 0xA48 JUMP JUMPDEST SUB PUSH2 0xA5B JUMPI JUMP JUMPDEST PUSH1 0x0 DUP1 REVERT JUMPDEST SWAP1 POP CALLDATALOAD SWAP1 PUSH2 0xA6D DUP3 PUSH2 0xA4B JUMP JUMPDEST JUMP JUMPDEST SWAP1 PUSH1 0x20 DUP3 DUP3 SUB SLT PUSH2 0xA89 JUMPI PUSH2 0xA86 SWAP2 PUSH1 0x0 ADD PUSH2 0xA60 JUMP JUMPDEST SWAP1 JUMP JUMPDEST PUSH2 0x25D JUMP JUMPDEST PUSH2 0xA97 SWAP1 PUSH2 0xA48 JUMP JUMPDEST SWAP1 MSTORE JUMP JUMPDEST SWAP2 SWAP1 PUSH2 0xAAF SWAP1 PUSH1 0x0 PUSH1 0x20 DUP6 ADD SWAP5 ADD SWAP1 PUSH2 0xA8E JUMP JUMPDEST JUMP JUMPDEST CALLVALUE PUSH2 0xAE1 JUMPI PUSH2 0xADD PUSH2 0xACC PUSH2 0xAC7 CALLDATASIZE PUSH1 0x4 PUSH2 0xA6F JUMP JUMPDEST PUSH2 0x1DCF JUMP JUMPDEST PUSH2 0xAD4 PUSH2 0x252 JUMP JUMPDEST SWAP2 DUP3 SWAP2 DUP3 PUSH2 0xA9B JUMP JUMPDEST SUB SWAP1 RETURN JUMPDEST PUSH2 0x258 JUMP JUMPDEST SWAP1 JUMP JUMPDEST PUSH2 0xAFD PUSH2 0xAF8 PUSH2 0xB02 SWAP3 PUSH2 0x2A2 JUMP JUMPDEST PUSH2 0xAE6 JUMP JUMPDEST PUSH2 0x2A2 JUMP JUMPDEST SWAP1 JUMP JUMPDEST SWAP1 PUSH2 0xB0F SWAP1 PUSH2 0xAE9 JUMP JUMPDEST PUSH1 0x0 MSTORE PUSH1 0x20 MSTORE PUSH1 0x40 PUSH1 0x0 KECCAK256 SWAP1 JUMP JUMPDEST PUSH2 0xB34 SWAP1 PUSH2 0xB2F PUSH1 0x1 SWAP2 PUSH1 0x0 SWAP3 PUSH2 0xB05 JUMP JUMPDEST PUSH2 0x8C9 JUMP JUMPDEST SWAP1 JUMP JUMPDEST CALLVALUE PUSH2 0xB67 JUMPI PUSH2 0xB63 PUSH2 0xB52 PUSH2 0xB4D CALLDATASIZE PUSH1 0x4 PUSH2 0x856 JUMP JUMPDEST PUSH2 0xB1D JUMP JUMPDEST PUSH2 0xB5A PUSH2 0x252 JUMP JUMPDEST SWAP2 DUP3 SWAP2 DUP3 PUSH2 0x304 JUMP JUMPDEST SUB SWAP1 RETURN JUMPDEST PUSH2 0x258 JUMP JUMPDEST SWAP2 SWAP1 PUSH1 0x40 DUP4 DUP3 SUB SLT PUSH2 0xB95 JUMPI DUP1 PUSH2 0xB89 PUSH2 0xB92 SWAP3 PUSH1 0x0 DUP7 ADD PUSH2 0x2BA JUMP JUMPDEST SWAP4 PUSH1 0x20 ADD PUSH2 0x2BA JUMP JUMPDEST SWAP1 JUMP JUMPDEST PUSH2 0x25D JUMP JUMPDEST PUSH2 0xBA3 SWAP1 PUSH2 0x272 JUMP JUMPDEST SWAP1 MSTORE JUMP JUMPDEST SWAP2 PUSH1 0x20 PUSH2 0xBC9 SWAP3 SWAP5 SWAP4 PUSH2 0xBC2 PUSH1 0x40 DUP3 ADD SWAP7 PUSH1 0x0 DUP4 ADD SWAP1 PUSH2 0xB9A JUMP JUMPDEST ADD SWAP1 PUSH2 0x2F7 JUMP JUMPDEST JUMP JUMPDEST CALLVALUE PUSH2 0xBFD JUMPI PUSH2 0xBE4 PUSH2 0xBDE CALLDATASIZE PUSH1 0x4 PUSH2 0xB6C JUMP JUMPDEST SWAP1 PUSH2 0x1FC1 JUMP JUMPDEST SWAP1 PUSH2 0xBF9 PUSH2 0xBF0 PUSH2 0x252 JUMP JUMPDEST SWAP3 DUP4 SWAP3 DUP4 PUSH2 0xBA7 JUMP JUMPDEST SUB SWAP1 RETURN JUMPDEST PUSH2 0x258 JUMP JUMPDEST PUSH1 0x0 DUP1 REVERT JUMPDEST SWAP1 SWAP2 DUP3 PUSH1 0x1F DUP4 ADD SLT ISZERO PUSH2 0xC41 JUMPI DUP2 CALLDATALOAD SWAP2 PUSH8 0xFFFFFFFFFFFFFFFF DUP4 GT PUSH2 0xC3C JUMPI PUSH1 0x20 ADD SWAP3 PUSH1 0x20 DUP4 MUL DUP5 ADD GT PUSH2 0xC37 JUMPI JUMP JUMPDEST PUSH2 0x937 JUMP JUMPDEST PUSH2 0xC02 JUMP JUMPDEST PUSH2 0x6F4 JUMP JUMPDEST SWAP1 SWAP2 DUP3 PUSH1 0x1F DUP4 ADD SLT ISZERO PUSH2 0xC80 JUMPI DUP2 CALLDATALOAD SWAP2 PUSH8 0xFFFFFFFFFFFFFFFF DUP4 GT PUSH2 0xC7B JUMPI PUSH1 0x20 ADD SWAP3 PUSH1 0x1 DUP4 MUL DUP5 ADD GT PUSH2 0xC76 JUMPI JUMP JUMPDEST PUSH2 0x937 JUMP JUMPDEST PUSH2 0xC02 JUMP JUMPDEST PUSH2 0x6F4 JUMP JUMPDEST SWAP2 PUSH1 0xA0 DUP4 DUP4 SUB SLT PUSH2 0xD23 JUMPI PUSH2 0xC9D DUP3 PUSH1 0x0 DUP6 ADD PUSH2 0x293 JUMP JUMPDEST SWAP3 PUSH2 0xCAB DUP4 PUSH1 0x20 DUP4 ADD PUSH2 0x293 JUMP JUMPDEST SWAP3 PUSH1 0x40 DUP3 ADD CALLDATALOAD PUSH8 0xFFFFFFFFFFFFFFFF DUP2 GT PUSH2 0xD1E JUMPI DUP2 PUSH2 0xCCC SWAP2 DUP5 ADD PUSH2 0xC07 JUMP JUMPDEST SWAP3 SWAP1 SWAP4 PUSH1 0x60 DUP3 ADD CALLDATALOAD PUSH8 0xFFFFFFFFFFFFFFFF DUP2 GT PUSH2 0xD19 JUMPI DUP4 PUSH2 0xCEF SWAP2 DUP5 ADD PUSH2 0xC07 JUMP JUMPDEST SWAP3 SWAP1 SWAP4 PUSH1 0x80 DUP3 ADD CALLDATALOAD PUSH8 0xFFFFFFFFFFFFFFFF DUP2 GT PUSH2 0xD14 JUMPI PUSH2 0xD10 SWAP3 ADD PUSH2 0xC46 JUMP JUMPDEST SWAP1 SWAP2 JUMP JUMPDEST PUSH2 0x262 JUMP JUMPDEST PUSH2 0x262 JUMP JUMPDEST PUSH2 0x262 JUMP JUMPDEST PUSH2 0x25D JUMP JUMPDEST CALLVALUE PUSH2 0xD60 JUMPI PUSH2 0xD4A PUSH2 0xD3B CALLDATASIZE PUSH1 0x4 PUSH2 0xC85 JUMP JUMPDEST SWAP7 SWAP6 SWAP1 SWAP6 SWAP5 SWAP2 SWAP5 SWAP4 SWAP3 SWAP4 PUSH2 0x209C JUMP JUMPDEST PUSH2 0xD52 PUSH2 0x252 JUMP JUMPDEST DUP1 PUSH2 0xD5C DUP2 PUSH2 0x45F JUMP JUMPDEST SUB SWAP1 RETURN JUMPDEST PUSH2 0x258 JUMP JUMPDEST SWAP2 SWAP1 PUSH1 0x40 DUP4 DUP3 SUB SLT PUSH2 0xD8E JUMPI DUP1 PUSH2 0xD82 PUSH2 0xD8B SWAP3 PUSH1 0x0 DUP7 ADD PUSH2 0xA60 JUMP JUMPDEST SWAP4 PUSH1 0x20 ADD PUSH2 0x293 JUMP JUMPDEST SWAP1 JUMP JUMPDEST PUSH2 0x25D JUMP JUMPDEST CALLVALUE PUSH2 0xDC2 JUMPI PUSH2 0xDAC PUSH2 0xDA6 CALLDATASIZE PUSH1 0x4 PUSH2 0xD65 JUMP JUMPDEST SWAP1 PUSH2 0x2338 JUMP JUMPDEST PUSH2 0xDB4 PUSH2 0x252 JUMP JUMPDEST DUP1 PUSH2 0xDBE DUP2 PUSH2 0x45F JUMP JUMPDEST SUB SWAP1 RETURN JUMPDEST PUSH2 0x258 JUMP JUMPDEST CALLVALUE PUSH2 0xDF6 JUMPI PUSH2 0xDE0 PUSH2 0xDDA CALLDATASIZE PUSH1 0x4 PUSH2 0xD65 JUMP JUMPDEST SWAP1 PUSH2 0x23EE JUMP JUMPDEST PUSH2 0xDE8 PUSH2 0x252 JUMP JUMPDEST DUP1 PUSH2 0xDF2 DUP2 PUSH2 0x45F JUMP JUMPDEST SUB SWAP1 RETURN JUMPDEST PUSH2 0x258 JUMP JUMPDEST SWAP1 SWAP2 DUP3 PUSH1 0x1F DUP4 ADD SLT ISZERO PUSH2 0xE35 JUMPI DUP2 CALLDATALOAD SWAP2 PUSH8 0xFFFFFFFFFFFFFFFF DUP4 GT PUSH2 0xE30 JUMPI PUSH1 0x20 ADD SWAP3 PUSH1 0x20 DUP4 MUL DUP5 ADD GT PUSH2 0xE2B JUMPI JUMP JUMPDEST PUSH2 0x937 JUMP JUMPDEST PUSH2 0xC02 JUMP JUMPDEST PUSH2 0x6F4 JUMP JUMPDEST SWAP1 SWAP2 PUSH1 0x40 DUP3 DUP5 SUB SLT PUSH2 0xE95 JUMPI PUSH1 0x0 DUP3 ADD CALLDATALOAD PUSH8 0xFFFFFFFFFFFFFFFF DUP2 GT PUSH2 0xE90 JUMPI DUP4 PUSH2 0xE66 SWAP2 DUP5 ADD PUSH2 0xDFB JUMP JUMPDEST SWAP3 SWAP1 SWAP4 PUSH1 0x20 DUP3 ADD CALLDATALOAD PUSH8 0xFFFFFFFFFFFFFFFF DUP2 GT PUSH2 0xE8B JUMPI PUSH2 0xE87 SWAP3 ADD PUSH2 0xC07 JUMP JUMPDEST SWAP1 SWAP2 JUMP JUMPDEST PUSH2 0x262 JUMP JUMPDEST PUSH2 0x262 JUMP JUMPDEST PUSH2 0x25D JUMP JUMPDEST MLOAD SWAP1 JUMP JUMPDEST PUSH1 0x20 SWAP2 DUP2 MSTORE ADD SWAP1 JUMP JUMPDEST PUSH1 0x20 ADD SWAP1 JUMP JUMPDEST PUSH2 0xEB6 SWAP1 PUSH2 0x2A2 JUMP JUMPDEST SWAP1 MSTORE JUMP JUMPDEST SWAP1 PUSH2 0xEC7 DUP2 PUSH1 0x20 SWAP4 PUSH2 0xEAD JUMP JUMPDEST ADD SWAP1 JUMP JUMPDEST PUSH1 0x20 ADD SWAP1 JUMP JUMPDEST SWAP1 PUSH2 0xEEE PUSH2 0xEE8 PUSH2 0xEE1 DUP5 PUSH2 0xE9A JUMP JUMPDEST DUP1 SWAP4 PUSH2 0xE9E JUMP JUMPDEST SWAP3 PUSH2 0xEA7 JUMP JUMPDEST SWAP1 PUSH1 0x0 JUMPDEST DUP2 DUP2 LT PUSH2 0xEFF JUMPI POP POP POP SWAP1 JUMP JUMPDEST SWAP1 SWAP2 SWAP3 PUSH2 0xF18 PUSH2 0xF12 PUSH1 0x1 SWAP3 DUP7 MLOAD PUSH2 0xEBA JUMP JUMPDEST SWAP5 PUSH2 0xECB JUMP JUMPDEST SWAP2 ADD SWAP2 SWAP1 SWAP2 PUSH2 0xEF2 JUMP JUMPDEST PUSH2 0xF38 SWAP2 PUSH1 0x20 DUP3 ADD SWAP2 PUSH1 0x0 DUP2 DUP5 SUB SWAP2 ADD MSTORE PUSH2 0xED1 JUMP JUMPDEST SWAP1 JUMP JUMPDEST CALLVALUE PUSH2 0xF6F JUMPI PUSH2 0xF6B PUSH2 0xF5A PUSH2 0xF51 CALLDATASIZE PUSH1 0x4 PUSH2 0xE3A JUMP JUMPDEST SWAP3 SWAP2 SWAP1 SWAP2 PUSH2 0x2422 JUMP JUMPDEST PUSH2 0xF62 PUSH2 0x252 JUMP JUMPDEST SWAP2 DUP3 SWAP2 DUP3 PUSH2 0xF22 JUMP JUMPDEST SUB SWAP1 RETURN JUMPDEST PUSH2 0x258 JUMP JUMPDEST SWAP1 SWAP2 PUSH1 0x60 DUP3 DUP5 SUB SLT PUSH2 0xFAA JUMPI PUSH2 0xFA7 PUSH2 0xF90 DUP5 PUSH1 0x0 DUP6 ADD PUSH2 0x2BA JUMP JUMPDEST SWAP4 PUSH2 0xF9E DUP2 PUSH1 0x20 DUP7 ADD PUSH2 0x293 JUMP JUMPDEST SWAP4 PUSH1 0x40 ADD PUSH2 0x422 JUMP JUMPDEST SWAP1 JUMP JUMPDEST PUSH2 0x25D JUMP JUMPDEST CALLVALUE PUSH2 0xFDE JUMPI PUSH2 0xFC8 PUSH2 0xFC2 CALLDATASIZE PUSH1 0x4 PUSH2 0xF74 JUMP JUMPDEST SWAP2 PUSH2 0x24BF JUMP JUMPDEST PUSH2 0xFD0 PUSH2 0x252 JUMP JUMPDEST DUP1 PUSH2 0xFDA DUP2 PUSH2 0x45F JUMP JUMPDEST SUB SWAP1 RETURN JUMPDEST PUSH2 0x258 JUMP JUMPDEST PUSH2 0xFF0 PUSH1 0x9 PUSH1 0x0 SWAP1 PUSH2 0x61A JUMP JUMPDEST SWAP1 JUMP JUMPDEST CALLVALUE PUSH2 0x1023 JUMPI PUSH2 0x1003 CALLDATASIZE PUSH1 0x4 PUSH2 0x499 JUMP JUMPDEST PUSH2 0x101F PUSH2 0x100E PUSH2 0xFE3 JUMP JUMPDEST PUSH2 0x1016 PUSH2 0x252 JUMP JUMPDEST SWAP2 DUP3 SWAP2 DUP3 PUSH2 0x6A6 JUMP JUMPDEST SUB SWAP1 RETURN JUMPDEST PUSH2 0x258 JUMP JUMPDEST PUSH8 0xFFFFFFFFFFFFFFFF DUP2 GT PUSH2 0x1046 JUMPI PUSH2 0x1042 PUSH1 0x20 SWAP2 PUSH2 0x5AF JUMP JUMPDEST ADD SWAP1 JUMP JUMPDEST PUSH2 0x5B9 JUMP JUMPDEST SWAP1 SWAP3 SWAP2 SWAP3 PUSH2 0x1060 PUSH2 0x105B DUP3 PUSH2 0x1028 JUMP JUMPDEST PUSH2 0x6FE JUMP JUMPDEST SWAP4 DUP2 DUP6 MSTORE PUSH1 0x20 DUP6 ADD SWAP1 DUP3 DUP5 ADD GT PUSH2 0x107C JUMPI PUSH2 0x107A SWAP3 PUSH2 0x736 JUMP JUMPDEST JUMP JUMPDEST PUSH2 0x6F9 JUMP JUMPDEST SWAP1 DUP1 PUSH1 0x1F DUP4 ADD SLT ISZERO PUSH2 0x109F JUMPI DUP2 PUSH1 0x20 PUSH2 0x109C SWAP4 CALLDATALOAD SWAP2 ADD PUSH2 0x104B JUMP JUMPDEST SWAP1 JUMP JUMPDEST PUSH2 0x6F4 JUMP JUMPDEST SWAP1 PUSH1 0x80 DUP3 DUP3 SUB SLT PUSH2 0x10FF JUMPI PUSH2 0x10BC DUP2 PUSH1 0x0 DUP5 ADD PUSH2 0x293 JUMP JUMPDEST SWAP3 PUSH2 0x10CA DUP3 PUSH1 0x20 DUP6 ADD PUSH2 0x2BA JUMP JUMPDEST SWAP3 PUSH2 0x10D8 DUP4 PUSH1 0x40 DUP4 ADD PUSH2 0x2BA JUMP JUMPDEST SWAP3 PUSH1 0x60 DUP3 ADD CALLDATALOAD PUSH8 0xFFFFFFFFFFFFFFFF DUP2 GT PUSH2 0x10FA JUMPI PUSH2 0x10F7 SWAP3 ADD PUSH2 0x1081 JUMP JUMPDEST SWAP1 JUMP JUMPDEST PUSH2 0x262 JUMP JUMPDEST PUSH2 0x25D JUMP JUMPDEST CALLVALUE PUSH2 0x1136 JUMPI PUSH2 0x1120 PUSH2 0x1117 CALLDATASIZE PUSH1 0x4 PUSH2 0x10A4 JUMP JUMPDEST SWAP3 SWAP2 SWAP1 SWAP2 PUSH2 0x251E JUMP JUMPDEST PUSH2 0x1128 PUSH2 0x252 JUMP JUMPDEST DUP1 PUSH2 0x1132 DUP2 PUSH2 0x45F JUMP JUMPDEST SUB SWAP1 RETURN JUMPDEST PUSH2 0x258 JUMP JUMPDEST CALLVALUE PUSH2 0x1169 JUMPI PUSH2 0x1153 PUSH2 0x114E CALLDATASIZE PUSH1 0x4 PUSH2 0x79B JUMP JUMPDEST PUSH2 0x2554 JUMP JUMPDEST PUSH2 0x115B PUSH2 0x252 JUMP JUMPDEST DUP1 PUSH2 0x1165 DUP2 PUSH2 0x45F JUMP JUMPDEST SUB SWAP1 RETURN JUMPDEST PUSH2 0x258 JUMP JUMPDEST SWAP2 SWAP1 PUSH2 0x100 DUP4 DUP3 SUB SLT PUSH2 0x1233 JUMPI PUSH2 0x1188 DUP2 PUSH1 0x0 DUP6 ADD PUSH2 0x293 JUMP JUMPDEST SWAP3 PUSH1 0x20 DUP2 ADD CALLDATALOAD PUSH8 0xFFFFFFFFFFFFFFFF DUP2 GT PUSH2 0x122E JUMPI DUP3 PUSH2 0x11A9 SWAP2 DUP4 ADD PUSH2 0x778 JUMP JUMPDEST SWAP3 PUSH1 0x40 DUP3 ADD CALLDATALOAD PUSH8 0xFFFFFFFFFFFFFFFF DUP2 GT PUSH2 0x1229 JUMPI DUP4 PUSH2 0x11CA SWAP2 DUP5 ADD PUSH2 0x778 JUMP JUMPDEST SWAP3 PUSH1 0x60 DUP4 ADD CALLDATALOAD PUSH8 0xFFFFFFFFFFFFFFFF DUP2 GT PUSH2 0x1224 JUMPI DUP2 PUSH2 0x11EB SWAP2 DUP6 ADD PUSH2 0x778 JUMP JUMPDEST SWAP3 PUSH2 0x11F9 DUP3 PUSH1 0x80 DUP4 ADD PUSH2 0x293 JUMP JUMPDEST SWAP3 PUSH2 0x1221 PUSH2 0x120A DUP5 PUSH1 0xA0 DUP6 ADD PUSH2 0x422 JUMP JUMPDEST SWAP4 PUSH2 0x1218 DUP2 PUSH1 0xC0 DUP7 ADD PUSH2 0x293 JUMP JUMPDEST SWAP4 PUSH1 0xE0 ADD PUSH2 0xA60 JUMP JUMPDEST SWAP1 JUMP JUMPDEST PUSH2 0x262 JUMP JUMPDEST PUSH2 0x262 JUMP JUMPDEST PUSH2 0x262 JUMP JUMPDEST PUSH2 0x25D JUMP JUMPDEST CALLVALUE PUSH2 0x1270 JUMPI PUSH2 0x125A PUSH2 0x124B CALLDATASIZE PUSH1 0x4 PUSH2 0x116E JUMP JUMPDEST SWAP7 SWAP6 SWAP1 SWAP6 SWAP5 SWAP2 SWAP5 SWAP4 SWAP3 SWAP4 PUSH2 0x25CB JUMP JUMPDEST PUSH2 0x1262 PUSH2 0x252 JUMP JUMPDEST DUP1 PUSH2 0x126C DUP2 PUSH2 0x45F JUMP JUMPDEST SUB SWAP1 RETURN JUMPDEST PUSH2 0x258 JUMP JUMPDEST SWAP2 SWAP1 PUSH1 0x40 DUP4 DUP3 SUB SLT PUSH2 0x129E JUMPI DUP1 PUSH2 0x1292 PUSH2 0x129B SWAP3 PUSH1 0x0 DUP7 ADD PUSH2 0xA60 JUMP JUMPDEST SWAP4 PUSH1 0x20 ADD PUSH2 0x2BA JUMP JUMPDEST SWAP1 JUMP JUMPDEST PUSH2 0x25D JUMP JUMPDEST SWAP2 SWAP1 PUSH2 0x12B7 SWAP1 PUSH1 0x0 PUSH1 0x20 DUP6 ADD SWAP5 ADD SWAP1 PUSH2 0xB9A JUMP JUMPDEST JUMP JUMPDEST CALLVALUE PUSH2 0x12EA JUMPI PUSH2 0x12E6 PUSH2 0x12D5 PUSH2 0x12CF CALLDATASIZE PUSH1 0x4 PUSH2 0x1275 JUMP JUMPDEST SWAP1 PUSH2 0x2691 JUMP JUMPDEST PUSH2 0x12DD PUSH2 0x252 JUMP JUMPDEST SWAP2 DUP3 SWAP2 DUP3 PUSH2 0x12A3 JUMP JUMPDEST SUB SWAP1 RETURN JUMPDEST PUSH2 0x258 JUMP JUMPDEST CALLVALUE PUSH2 0x1320 JUMPI PUSH2 0x131C PUSH2 0x130B PUSH2 0x1305 CALLDATASIZE PUSH1 0x4 PUSH2 0xD65 JUMP JUMPDEST SWAP1 PUSH2 0x26E9 JUMP JUMPDEST PUSH2 0x1313 PUSH2 0x252 JUMP JUMPDEST SWAP2 DUP3 SWAP2 DUP3 PUSH2 0x3B1 JUMP JUMPDEST SUB SWAP1 RETURN JUMPDEST PUSH2 0x258 JUMP JUMPDEST CALLVALUE PUSH2 0x1353 JUMPI PUSH2 0x133D PUSH2 0x1338 CALLDATASIZE PUSH1 0x4 PUSH2 0x79B JUMP JUMPDEST PUSH2 0x273C JUMP JUMPDEST PUSH2 0x1345 PUSH2 0x252 JUMP JUMPDEST DUP1 PUSH2 0x134F DUP2 PUSH2 0x45F JUMP JUMPDEST SUB SWAP1 RETURN JUMPDEST PUSH2 0x258 JUMP JUMPDEST PUSH1 0x0 DUP1 REVERT JUMPDEST SWAP1 DUP2 PUSH1 0xC0 SWAP2 SUB SLT PUSH2 0x136B JUMPI SWAP1 JUMP JUMPDEST PUSH2 0x1358 JUMP JUMPDEST SWAP1 DUP2 PUSH1 0xE0 SWAP2 SUB SLT PUSH2 0x137E JUMPI SWAP1 JUMP JUMPDEST PUSH2 0x1358 JUMP JUMPDEST SWAP2 PUSH1 0x60 DUP4 DUP4 SUB SLT PUSH2 0x13E8 JUMPI PUSH2 0x139B DUP3 PUSH1 0x0 DUP6 ADD PUSH2 0x293 JUMP JUMPDEST SWAP3 PUSH1 0x20 DUP2 ADD CALLDATALOAD PUSH8 0xFFFFFFFFFFFFFFFF DUP2 GT PUSH2 0x13E3 JUMPI DUP4 PUSH2 0x13BC SWAP2 DUP4 ADD PUSH2 0x135D JUMP JUMPDEST SWAP3 PUSH1 0x40 DUP3 ADD CALLDATALOAD PUSH8 0xFFFFFFFFFFFFFFFF DUP2 GT PUSH2 0x13DE JUMPI PUSH2 0x13DB SWAP3 ADD PUSH2 0x1370 JUMP JUMPDEST SWAP1 JUMP JUMPDEST PUSH2 0x262 JUMP JUMPDEST PUSH2 0x262 JUMP JUMPDEST PUSH2 0x25D JUMP JUMPDEST CALLVALUE PUSH2 0x141E JUMPI PUSH2 0x141A PUSH2 0x1409 PUSH2 0x1403 CALLDATASIZE PUSH1 0x4 PUSH2 0x1383 JUMP JUMPDEST SWAP2 PUSH2 0x2A9A JUMP JUMPDEST PUSH2 0x1411 PUSH2 0x252 JUMP JUMPDEST SWAP2 DUP3 SWAP2 DUP3 PUSH2 0xA9B JUMP JUMPDEST SUB SWAP1 RETURN JUMPDEST PUSH2 0x258 JUMP JUMPDEST SWAP1 JUMP JUMPDEST PUSH1 0x0 SHL SWAP1 JUMP JUMPDEST PUSH2 0x1440 PUSH2 0x143B PUSH2 0x1445 SWAP3 PUSH2 0x1423 JUMP JUMPDEST PUSH2 0x1426 JUMP JUMPDEST PUSH2 0xA48 JUMP JUMPDEST SWAP1 JUMP JUMPDEST PUSH2 0x1452 PUSH1 0x0 PUSH2 0x142C JUMP JUMPDEST SWAP1 JUMP JUMPDEST PUSH2 0x145D PUSH2 0x1448 JUMP JUMPDEST SWAP1 JUMP JUMPDEST CALLVALUE PUSH2 0x1490 JUMPI PUSH2 0x1470 CALLDATASIZE PUSH1 0x4 PUSH2 0x499 JUMP JUMPDEST PUSH2 0x148C PUSH2 0x147B PUSH2 0x1455 JUMP JUMPDEST PUSH2 0x1483 PUSH2 0x252 JUMP JUMPDEST SWAP2 DUP3 SWAP2 DUP3 PUSH2 0xA9B JUMP JUMPDEST SUB SWAP1 RETURN JUMPDEST PUSH2 0x258 JUMP JUMPDEST PUSH2 0x149E DUP2 PUSH2 0x39F JUMP JUMPDEST SUB PUSH2 0x14A5 JUMPI JUMP JUMPDEST PUSH1 0x0 DUP1 REVERT JUMPDEST SWAP1 POP CALLDATALOAD SWAP1 PUSH2 0x14B7 DUP3 PUSH2 0x1495 JUMP JUMPDEST JUMP JUMPDEST SWAP2 SWAP1 PUSH1 0x40 DUP4 DUP3 SUB SLT PUSH2 0x14E2 JUMPI DUP1 PUSH2 0x14D6 PUSH2 0x14DF SWAP3 PUSH1 0x0 DUP7 ADD PUSH2 0x293 JUMP JUMPDEST SWAP4 PUSH1 0x20 ADD PUSH2 0x14AA JUMP JUMPDEST SWAP1 JUMP JUMPDEST PUSH2 0x25D JUMP JUMPDEST CALLVALUE PUSH2 0x1516 JUMPI PUSH2 0x1500 PUSH2 0x14FA CALLDATASIZE PUSH1 0x4 PUSH2 0x14B9 JUMP JUMPDEST SWAP1 PUSH2 0x2B3B JUMP JUMPDEST PUSH2 0x1508 PUSH2 0x252 JUMP JUMPDEST DUP1 PUSH2 0x1512 DUP2 PUSH2 0x45F JUMP JUMPDEST SUB SWAP1 RETURN JUMPDEST PUSH2 0x258 JUMP JUMPDEST CALLVALUE PUSH2 0x154A JUMPI PUSH2 0x1534 PUSH2 0x152E CALLDATASIZE PUSH1 0x4 PUSH2 0xB6C JUMP JUMPDEST SWAP1 PUSH2 0x2B8B JUMP JUMPDEST PUSH2 0x153C PUSH2 0x252 JUMP JUMPDEST DUP1 PUSH2 0x1546 DUP2 PUSH2 0x45F JUMP JUMPDEST SUB SWAP1 RETURN JUMPDEST PUSH2 0x258 JUMP JUMPDEST SWAP1 PUSH1 0x80 DUP3 DUP3 SUB SLT PUSH2 0x15DA JUMPI PUSH2 0x1567 DUP2 PUSH1 0x0 DUP5 ADD PUSH2 0x293 JUMP JUMPDEST SWAP3 PUSH1 0x20 DUP4 ADD CALLDATALOAD PUSH8 0xFFFFFFFFFFFFFFFF DUP2 GT PUSH2 0x15D5 JUMPI DUP3 PUSH2 0x1588 SWAP2 DUP6 ADD PUSH2 0x993 JUMP JUMPDEST SWAP3 PUSH1 0x40 DUP2 ADD CALLDATALOAD PUSH8 0xFFFFFFFFFFFFFFFF DUP2 GT PUSH2 0x15D0 JUMPI DUP4 PUSH2 0x15A9 SWAP2 DUP4 ADD PUSH2 0x993 JUMP JUMPDEST SWAP3 PUSH1 0x60 DUP3 ADD CALLDATALOAD PUSH8 0xFFFFFFFFFFFFFFFF DUP2 GT PUSH2 0x15CB JUMPI PUSH2 0x15C8 SWAP3 ADD PUSH2 0x1081 JUMP JUMPDEST SWAP1 JUMP JUMPDEST PUSH2 0x262 JUMP JUMPDEST PUSH2 0x262 JUMP JUMPDEST PUSH2 0x262 JUMP JUMPDEST PUSH2 0x25D JUMP JUMPDEST CALLVALUE PUSH2 0x1611 JUMPI PUSH2 0x15FB PUSH2 0x15F2 CALLDATASIZE PUSH1 0x4 PUSH2 0x154F JUMP JUMPDEST SWAP3 SWAP2 SWAP1 SWAP2 PUSH2 0x2BC8 JUMP JUMPDEST PUSH2 0x1603 PUSH2 0x252 JUMP JUMPDEST DUP1 PUSH2 0x160D DUP2 PUSH2 0x45F JUMP JUMPDEST SUB SWAP1 RETURN JUMPDEST PUSH2 0x258 JUMP JUMPDEST CALLVALUE PUSH2 0x1646 JUMPI PUSH2 0x1642 PUSH2 0x1631 PUSH2 0x162C CALLDATASIZE PUSH1 0x4 PUSH2 0xA6F JUMP JUMPDEST PUSH2 0x2BD6 JUMP JUMPDEST PUSH2 0x1639 PUSH2 0x252 JUMP JUMPDEST SWAP2 DUP3 SWAP2 DUP3 PUSH2 0x304 JUMP JUMPDEST SUB SWAP1 RETURN JUMPDEST PUSH2 0x258 JUMP JUMPDEST CALLVALUE PUSH2 0x167A JUMPI PUSH2 0x1664 PUSH2 0x165E CALLDATASIZE PUSH1 0x4 PUSH2 0xD65 JUMP JUMPDEST SWAP1 PUSH2 0x2C26 JUMP JUMPDEST PUSH2 0x166C PUSH2 0x252 JUMP JUMPDEST DUP1 PUSH2 0x1676 DUP2 PUSH2 0x45F JUMP JUMPDEST SUB SWAP1 RETURN JUMPDEST PUSH2 0x258 JUMP JUMPDEST PUSH2 0x168C PUSH1 0xA PUSH1 0x0 SWAP1 PUSH2 0x61A JUMP JUMPDEST SWAP1 JUMP JUMPDEST CALLVALUE PUSH2 0x16BF JUMPI PUSH2 0x169F CALLDATASIZE PUSH1 0x4 PUSH2 0x499 JUMP JUMPDEST PUSH2 0x16BB PUSH2 0x16AA PUSH2 0x167F JUMP JUMPDEST PUSH2 0x16B2 PUSH2 0x252 JUMP JUMPDEST SWAP2 DUP3 SWAP2 DUP3 PUSH2 0x6A6 JUMP JUMPDEST SUB SWAP1 RETURN JUMPDEST PUSH2 0x258 JUMP JUMPDEST SWAP2 SWAP1 PUSH1 0x40 DUP4 DUP3 SUB SLT PUSH2 0x16ED JUMPI DUP1 PUSH2 0x16E1 PUSH2 0x16EA SWAP3 PUSH1 0x0 DUP7 ADD PUSH2 0x293 JUMP JUMPDEST SWAP4 PUSH1 0x20 ADD PUSH2 0x293 JUMP JUMPDEST SWAP1 JUMP JUMPDEST PUSH2 0x25D JUMP JUMPDEST CALLVALUE PUSH2 0x1723 JUMPI PUSH2 0x171F PUSH2 0x170E PUSH2 0x1708 CALLDATASIZE PUSH1 0x4 PUSH2 0x16C4 JUMP JUMPDEST SWAP1 PUSH2 0x2C32 JUMP JUMPDEST PUSH2 0x1716 PUSH2 0x252 JUMP JUMPDEST SWAP2 DUP3 SWAP2 DUP3 PUSH2 0x3B1 JUMP JUMPDEST SUB SWAP1 RETURN JUMPDEST PUSH2 0x258 JUMP JUMPDEST CALLVALUE PUSH2 0x1756 JUMPI PUSH2 0x1740 PUSH2 0x173B CALLDATASIZE PUSH1 0x4 PUSH2 0xA6F JUMP JUMPDEST PUSH2 0x2CC1 JUMP JUMPDEST PUSH2 0x1748 PUSH2 0x252 JUMP JUMPDEST DUP1 PUSH2 0x1752 DUP2 PUSH2 0x45F JUMP JUMPDEST SUB SWAP1 RETURN JUMPDEST PUSH2 0x258 JUMP JUMPDEST SWAP2 SWAP1 SWAP2 PUSH1 0xA0 DUP2 DUP5 SUB SLT PUSH2 0x17C7 JUMPI PUSH2 0x1775 DUP4 PUSH1 0x0 DUP4 ADD PUSH2 0x293 JUMP JUMPDEST SWAP3 PUSH2 0x1783 DUP2 PUSH1 0x20 DUP5 ADD PUSH2 0x293 JUMP JUMPDEST SWAP3 PUSH2 0x1791 DUP3 PUSH1 0x40 DUP6 ADD PUSH2 0x2BA JUMP JUMPDEST SWAP3 PUSH2 0x179F DUP4 PUSH1 0x60 DUP4 ADD PUSH2 0x2BA JUMP JUMPDEST SWAP3 PUSH1 0x80 DUP3 ADD CALLDATALOAD PUSH8 0xFFFFFFFFFFFFFFFF DUP2 GT PUSH2 0x17C2 JUMPI PUSH2 0x17BE SWAP3 ADD PUSH2 0xC46 JUMP JUMPDEST SWAP1 SWAP2 JUMP JUMPDEST PUSH2 0x262 JUMP JUMPDEST PUSH2 0x25D JUMP JUMPDEST CALLVALUE PUSH2 0x1801 JUMPI PUSH2 0x17EB PUSH2 0x17DF CALLDATASIZE PUSH1 0x4 PUSH2 0x175B JUMP JUMPDEST SWAP5 SWAP4 SWAP1 SWAP4 SWAP3 SWAP2 SWAP3 PUSH2 0x2CCC JUMP JUMPDEST PUSH2 0x17F3 PUSH2 0x252 JUMP JUMPDEST DUP1 PUSH2 0x17FD DUP2 PUSH2 0x45F JUMP JUMPDEST SUB SWAP1 RETURN JUMPDEST PUSH2 0x258 JUMP JUMPDEST PUSH1 0x0 DUP1 REVERT JUMPDEST PUSH1 0x0 SWAP1 JUMP JUMPDEST PUSH2 0x1818 PUSH2 0x180B JUMP JUMPDEST POP PUSH8 0x9A31110384E0B0C9 PUSH1 0x20 MSTORE PUSH1 0x14 MSTORE PUSH1 0x0 MSTORE PUSH1 0x40 PUSH1 0x0 KECCAK256 SLOAD SWAP1 JUMP JUMPDEST PUSH1 0x0 SWAP1 JUMP JUMPDEST PUSH2 0x1841 PUSH2 0x1834 JUMP JUMPDEST POP PUSH4 0xC79B8B5F PUSH1 0xE0 SHL PUSH2 0x185C PUSH2 0x1856 DUP4 PUSH2 0x350 JUMP JUMPDEST SWAP2 PUSH2 0x350 JUMP JUMPDEST EQ DUP1 ISZERO PUSH2 0x1880 JUMPI JUMPDEST SWAP1 DUP2 ISZERO PUSH2 0x1870 JUMPI JUMPDEST POP SWAP1 JUMP JUMPDEST PUSH2 0x187A SWAP2 POP PUSH2 0x2E9B JUMP JUMPDEST CODESIZE PUSH2 0x186C JUMP JUMPDEST POP PUSH2 0x188A DUP2 PUSH2 0x2E9B JUMP JUMPDEST PUSH2 0x1864 JUMP JUMPDEST PUSH32 0x6DB4061A20CA83A3BE756EE172BD37A029093AC5AFE4CE968C6D5435B43CB011 SWAP1 JUMP JUMPDEST SWAP1 PUSH2 0x18CD SWAP2 PUSH2 0x18C8 PUSH2 0x18C3 PUSH2 0x188F JUMP JUMPDEST PUSH2 0x2EDF JUMP JUMPDEST PUSH2 0x18CF JUMP JUMPDEST JUMP JUMPDEST SWAP1 PUSH2 0x18D9 SWAP2 PUSH2 0x30F9 JUMP JUMPDEST JUMP JUMPDEST SWAP1 PUSH2 0x18E5 SWAP2 PUSH2 0x18B3 JUMP JUMPDEST JUMP JUMPDEST PUSH32 0xE02A0315B383857AC496E9D2B2546A699AFAEB4E5E83A1FDEF64376D0B74E5A5 SWAP1 JUMP JUMPDEST PUSH2 0x1924 SWAP1 PUSH2 0x191F PUSH2 0x191A PUSH2 0x18E7 JUMP JUMPDEST PUSH2 0x2EDF JUMP JUMPDEST PUSH2 0x1B0F JUMP JUMPDEST JUMP JUMPDEST PUSH1 0x1F PUSH1 0x20 SWAP2 ADD DIV SWAP1 JUMP JUMPDEST SHL SWAP1 JUMP JUMPDEST SWAP2 SWAP1 PUSH1 0x8 PUSH2 0x1950 SWAP2 MUL SWAP2 PUSH2 0x194A PUSH1 0x0 NOT DUP5 PUSH2 0x1930 JUMP JUMPDEST SWAP3 PUSH2 0x1930 JUMP JUMPDEST SWAP2 DUP2 NOT AND SWAP2 AND OR SWAP1 JUMP JUMPDEST SWAP1 JUMP JUMPDEST SWAP2 SWAP1 PUSH2 0x1973 PUSH2 0x196E PUSH2 0x197B SWAP4 PUSH2 0xAE9 JUMP JUMPDEST PUSH2 0x195A JUMP JUMPDEST SWAP1 DUP4 SLOAD PUSH2 0x1934 JUMP JUMPDEST SWAP1 SSTORE JUMP JUMPDEST PUSH2 0x1991 SWAP2 PUSH2 0x198B PUSH2 0x180B JUMP JUMPDEST SWAP2 PUSH2 0x195D JUMP JUMPDEST JUMP JUMPDEST JUMPDEST DUP2 DUP2 LT PUSH2 0x199F JUMPI POP POP JUMP JUMPDEST DUP1 PUSH2 0x19AD PUSH1 0x0 PUSH1 0x1 SWAP4 PUSH2 0x197F JUMP JUMPDEST ADD PUSH2 0x1994 JUMP JUMPDEST SWAP2 SWAP1 PUSH1 0x1F DUP2 GT PUSH2 0x19C3 JUMPI JUMPDEST POP POP POP JUMP JUMPDEST PUSH2 0x19CF PUSH2 0x19F4 SWAP4 PUSH2 0x508 JUMP JUMPDEST SWAP1 PUSH1 0x20 PUSH2 0x19DB DUP5 PUSH2 0x1926 JUMP JUMPDEST DUP4 ADD SWAP4 LT PUSH2 0x19FC JUMPI JUMPDEST PUSH2 0x19ED SWAP1 PUSH2 0x1926 JUMP JUMPDEST ADD SWAP1 PUSH2 0x1993 JUMP JUMPDEST CODESIZE DUP1 DUP1 PUSH2 0x19BE JUMP JUMPDEST SWAP2 POP PUSH2 0x19ED DUP2 SWAP3 SWAP1 POP PUSH2 0x19E4 JUMP JUMPDEST SWAP1 PUSH2 0x1A1B SWAP1 PUSH1 0x0 NOT SWAP1 PUSH1 0x8 MUL PUSH2 0x8AA JUMP JUMPDEST NOT AND SWAP1 JUMP JUMPDEST DUP2 PUSH2 0x1A2A SWAP2 PUSH2 0x1A0A JUMP JUMPDEST SWAP1 PUSH1 0x2 MUL OR SWAP1 JUMP JUMPDEST SWAP1 PUSH2 0x1A3C DUP2 PUSH2 0x643 JUMP JUMPDEST SWAP1 PUSH8 0xFFFFFFFFFFFFFFFF DUP3 GT PUSH2 0x1AFE JUMPI PUSH2 0x1A60 DUP3 PUSH2 0x1A5A DUP6 SLOAD PUSH2 0x4D5 JUMP JUMPDEST DUP6 PUSH2 0x19B3 JUMP JUMPDEST PUSH1 0x20 SWAP1 PUSH1 0x1F DUP4 GT PUSH1 0x1 EQ PUSH2 0x1A95 JUMPI SWAP2 DUP1 SWAP2 PUSH2 0x1A84 SWAP4 PUSH1 0x0 SWAP3 PUSH2 0x1A89 JUMPI JUMPDEST POP POP PUSH2 0x1A20 JUMP JUMPDEST SWAP1 SSTORE JUMPDEST JUMP JUMPDEST SWAP1 SWAP2 POP ADD MLOAD CODESIZE DUP1 PUSH2 0x1A7D JUMP JUMPDEST PUSH1 0x1F NOT DUP4 AND SWAP2 PUSH2 0x1AA4 DUP6 PUSH2 0x508 JUMP JUMPDEST SWAP3 PUSH1 0x0 JUMPDEST DUP2 DUP2 LT PUSH2 0x1AE6 JUMPI POP SWAP2 PUSH1 0x2 SWAP4 SWAP2 DUP6 PUSH1 0x1 SWAP7 SWAP5 LT PUSH2 0x1ACC JUMPI JUMPDEST POP POP POP MUL ADD SWAP1 SSTORE PUSH2 0x1A87 JUMP JUMPDEST PUSH2 0x1ADC SWAP2 ADD MLOAD PUSH1 0x1F DUP5 AND SWAP1 PUSH2 0x1A0A JUMP JUMPDEST SWAP1 SSTORE CODESIZE DUP1 DUP1 PUSH2 0x1AC0 JUMP JUMPDEST SWAP2 SWAP4 PUSH1 0x20 PUSH1 0x1 DUP2 SWAP3 DUP8 DUP8 ADD MLOAD DUP2 SSTORE ADD SWAP6 ADD SWAP3 ADD PUSH2 0x1AA8 JUMP JUMPDEST PUSH2 0x5B9 JUMP JUMPDEST SWAP1 PUSH2 0x1B0D SWAP2 PUSH2 0x1A32 JUMP JUMPDEST JUMP JUMPDEST PUSH2 0x1B1A SWAP1 PUSH1 0x8 PUSH2 0x1B03 JUMP JUMPDEST JUMP JUMPDEST PUSH2 0x1B25 SWAP1 PUSH2 0x190B JUMP JUMPDEST JUMP JUMPDEST PUSH32 0x70649EC320B507FEBAD3E8EF750E5F580B9AE32F9F50D4C7B121332C81971530 SWAP1 JUMP JUMPDEST PUSH2 0x1B64 SWAP1 PUSH2 0x1B5F PUSH2 0x1B5A PUSH2 0x1B27 JUMP JUMPDEST PUSH2 0x2EDF JUMP JUMPDEST PUSH2 0x1BE4 JUMP JUMPDEST JUMP JUMPDEST PUSH2 0x1B7A PUSH2 0x1B75 PUSH2 0x1B7F SWAP3 PUSH2 0x267 JUMP JUMPDEST PUSH2 0xAE6 JUMP JUMPDEST PUSH2 0x267 JUMP JUMPDEST SWAP1 JUMP JUMPDEST PUSH2 0x1B8B SWAP1 PUSH2 0x1B66 JUMP JUMPDEST SWAP1 JUMP JUMPDEST PUSH2 0x1B97 SWAP1 PUSH2 0x1B82 JUMP JUMPDEST SWAP1 JUMP JUMPDEST SWAP1 PUSH2 0x1BAB PUSH1 0x1 DUP1 PUSH1 0xA0 SHL SUB SWAP2 PUSH2 0x1426 JUMP JUMPDEST SWAP2 DUP2 NOT AND SWAP2 AND OR SWAP1 JUMP JUMPDEST PUSH2 0x1BBE SWAP1 PUSH2 0x1B82 JUMP JUMPDEST SWAP1 JUMP JUMPDEST SWAP1 JUMP JUMPDEST SWAP1 PUSH2 0x1BD9 PUSH2 0x1BD4 PUSH2 0x1BE0 SWAP3 PUSH2 0x1BB5 JUMP JUMPDEST PUSH2 0x1BC1 JUMP JUMPDEST DUP3 SLOAD PUSH2 0x1B9A JUMP JUMPDEST SWAP1 SSTORE JUMP JUMPDEST PUSH2 0x1BF0 PUSH2 0x1BF7 SWAP2 PUSH2 0x1B8E JUMP JUMPDEST PUSH1 0x6 PUSH2 0x1BC4 JUMP JUMPDEST JUMP JUMPDEST PUSH2 0x1C02 SWAP1 PUSH2 0x1B4B JUMP JUMPDEST JUMP JUMPDEST PUSH1 0x60 SWAP1 JUMP JUMPDEST SWAP1 POP SWAP1 JUMP JUMPDEST SWAP1 PUSH1 0x0 SWAP3 SWAP2 DUP1 SLOAD SWAP1 PUSH2 0x1C29 PUSH2 0x1C22 DUP4 PUSH2 0x4D5 JUMP JUMPDEST DUP1 SWAP5 PUSH2 0x1C09 JUMP JUMPDEST SWAP2 PUSH1 0x1 DUP2 AND SWAP1 DUP2 PUSH1 0x0 EQ PUSH2 0x1C7D JUMPI POP PUSH1 0x1 EQ PUSH2 0x1C45 JUMPI JUMPDEST POP POP POP JUMP JUMPDEST PUSH2 0x1C52 SWAP2 SWAP3 SWAP4 SWAP5 POP PUSH2 0x508 JUMP JUMPDEST PUSH1 0x0 SWAP1 JUMPDEST DUP4 DUP3 LT PUSH2 0x1C69 JUMPI POP POP ADD SWAP1 CODESIZE DUP1 DUP1 PUSH2 0x1C40 JUMP JUMPDEST PUSH1 0x1 DUP2 PUSH1 0x20 SWAP3 SLOAD DUP5 DUP7 ADD MSTORE ADD SWAP2 ADD SWAP1 PUSH2 0x1C56 JUMP JUMPDEST SWAP3 SWAP5 SWAP6 POP POP POP PUSH1 0xFF NOT AND DUP3 MSTORE DUP1 ISZERO ISZERO MUL ADD SWAP1 CODESIZE DUP1 DUP1 PUSH2 0x1C40 JUMP JUMPDEST PUSH2 0x1CBC PUSH2 0x1CB3 SWAP3 PUSH1 0x20 SWAP3 PUSH2 0x1CAA DUP2 PUSH2 0x643 JUMP JUMPDEST SWAP5 DUP6 DUP1 SWAP4 PUSH2 0x1C09 JUMP JUMPDEST SWAP4 DUP5 SWAP2 ADD PUSH2 0x650 JUMP JUMPDEST ADD SWAP1 JUMP JUMPDEST PUSH1 0x0 PUSH32 0x2E6A736F6E000000000000000000000000000000000000000000000000000000 SWAP2 ADD MSTORE JUMP JUMPDEST PUSH2 0x1CF4 PUSH1 0x5 DUP1 SWAP3 PUSH2 0x1C09 JUMP JUMPDEST PUSH2 0x1CFD DUP2 PUSH2 0x1CC0 JUMP JUMPDEST ADD SWAP1 JUMP JUMPDEST SWAP2 PUSH2 0x1D12 PUSH2 0x1D1D SWAP4 PUSH2 0x1D18 SWAP4 PUSH2 0x1C0E JUMP JUMPDEST SWAP1 PUSH2 0x1C97 JUMP JUMPDEST PUSH2 0x1CE8 JUMP JUMPDEST SWAP1 JUMP JUMPDEST SWAP1 JUMP JUMPDEST PUSH2 0x1D6A SWAP1 PUSH2 0x1D2F PUSH2 0x1C04 JUMP JUMPDEST POP PUSH2 0x1D65 PUSH2 0x1D3E PUSH1 0x9 SWAP3 PUSH2 0x3173 JUMP JUMPDEST SWAP2 PUSH2 0x1D56 PUSH2 0x1D4A PUSH2 0x252 JUMP JUMPDEST SWAP4 DUP5 SWAP3 PUSH1 0x20 DUP5 ADD PUSH2 0x1D01 JUMP JUMPDEST PUSH1 0x20 DUP3 ADD DUP2 SUB DUP3 MSTORE SUB DUP3 PUSH2 0x5CF JUMP JUMPDEST PUSH2 0x1D20 JUMP JUMPDEST SWAP1 JUMP JUMPDEST PUSH2 0x1D7A SWAP2 CALLER SWAP2 SWAP1 SWAP2 PUSH2 0x32C1 JUMP JUMPDEST JUMP JUMPDEST PUSH1 0x0 SWAP1 JUMP JUMPDEST PUSH2 0x1D8A SWAP1 PUSH2 0xA48 JUMP JUMPDEST SWAP1 JUMP JUMPDEST SWAP1 PUSH2 0x1D97 SWAP1 PUSH2 0x1D81 JUMP JUMPDEST PUSH1 0x0 MSTORE PUSH1 0x20 MSTORE PUSH1 0x40 PUSH1 0x0 KECCAK256 SWAP1 JUMP JUMPDEST PUSH1 0x0 SHR SWAP1 JUMP JUMPDEST SWAP1 JUMP JUMPDEST PUSH2 0x1DBA PUSH2 0x1DBF SWAP2 PUSH2 0x1DA5 JUMP JUMPDEST PUSH2 0x1DAB JUMP JUMPDEST SWAP1 JUMP JUMPDEST PUSH2 0x1DCC SWAP1 SLOAD PUSH2 0x1DAE JUMP JUMPDEST SWAP1 JUMP JUMPDEST PUSH1 0x1 PUSH2 0x1DE8 PUSH2 0x1DEE SWAP3 PUSH2 0x1DE0 PUSH2 0x1D7C JUMP JUMPDEST POP PUSH1 0x4 PUSH2 0x1D8D JUMP JUMPDEST ADD PUSH2 0x1DC2 JUMP JUMPDEST SWAP1 JUMP JUMPDEST PUSH1 0x0 SWAP1 JUMP JUMPDEST SWAP1 PUSH2 0x1E00 SWAP1 PUSH2 0xAE9 JUMP JUMPDEST PUSH1 0x0 MSTORE PUSH1 0x20 MSTORE PUSH1 0x40 PUSH1 0x0 KECCAK256 SWAP1 JUMP JUMPDEST PUSH1 0x1 DUP1 PUSH1 0xA0 SHL SUB AND SWAP1 JUMP JUMPDEST PUSH2 0x1E25 PUSH2 0x1E2A SWAP2 PUSH2 0x1DA5 JUMP JUMPDEST PUSH2 0x1E0E JUMP JUMPDEST SWAP1 JUMP JUMPDEST PUSH2 0x1E37 SWAP1 SLOAD PUSH2 0x1E19 JUMP JUMPDEST SWAP1 JUMP JUMPDEST SWAP1 PUSH2 0x1E44 SWAP1 PUSH2 0x272 JUMP JUMPDEST SWAP1 MSTORE JUMP JUMPDEST PUSH1 0xA0 SHR SWAP1 JUMP JUMPDEST PUSH12 0xFFFFFFFFFFFFFFFFFFFFFFFF AND SWAP1 JUMP JUMPDEST PUSH2 0x1E6B PUSH2 0x1E70 SWAP2 PUSH2 0x1E48 JUMP JUMPDEST PUSH2 0x1E4E JUMP JUMPDEST SWAP1 JUMP JUMPDEST PUSH2 0x1E7D SWAP1 SLOAD PUSH2 0x1E5F JUMP JUMPDEST SWAP1 JUMP JUMPDEST SWAP1 PUSH2 0x1E8A SWAP1 PUSH2 0x3FC JUMP JUMPDEST SWAP1 MSTORE JUMP JUMPDEST PUSH2 0x1E98 PUSH1 0x40 PUSH2 0x6FE JUMP JUMPDEST SWAP1 JUMP JUMPDEST SWAP1 PUSH2 0x1ED2 PUSH2 0x1EC9 PUSH1 0x0 PUSH2 0x1EAC PUSH2 0x1E8E JUMP JUMPDEST SWAP5 PUSH2 0x1EC3 PUSH2 0x1EBB DUP4 DUP4 ADD PUSH2 0x1E2D JUMP JUMPDEST DUP4 DUP9 ADD PUSH2 0x1E3A JUMP JUMPDEST ADD PUSH2 0x1E73 JUMP JUMPDEST PUSH1 0x20 DUP5 ADD PUSH2 0x1E80 JUMP JUMPDEST JUMP JUMPDEST PUSH2 0x1EDD SWAP1 PUSH2 0x1E9B JUMP JUMPDEST SWAP1 JUMP JUMPDEST PUSH2 0x1EEA SWAP1 MLOAD PUSH2 0x272 JUMP JUMPDEST SWAP1 JUMP JUMPDEST PUSH2 0x1F01 PUSH2 0x1EFC PUSH2 0x1F06 SWAP3 PUSH2 0x1423 JUMP JUMPDEST PUSH2 0xAE6 JUMP JUMPDEST PUSH2 0x267 JUMP JUMPDEST SWAP1 JUMP JUMPDEST PUSH2 0x1F12 SWAP1 PUSH2 0x1EED JUMP JUMPDEST SWAP1 JUMP JUMPDEST PUSH2 0x1F1F SWAP1 MLOAD PUSH2 0x3FC JUMP JUMPDEST SWAP1 JUMP JUMPDEST PUSH2 0x1F36 PUSH2 0x1F31 PUSH2 0x1F3B SWAP3 PUSH2 0x3FC JUMP JUMPDEST PUSH2 0xAE6 JUMP JUMPDEST PUSH2 0x2A2 JUMP JUMPDEST SWAP1 JUMP JUMPDEST PUSH4 0x4E487B71 PUSH1 0xE0 SHL PUSH1 0x0 MSTORE PUSH1 0x11 PUSH1 0x4 MSTORE PUSH1 0x24 PUSH1 0x0 REVERT JUMPDEST PUSH2 0x1F63 PUSH2 0x1F69 SWAP2 SWAP4 SWAP3 SWAP4 PUSH2 0x2A2 JUMP JUMPDEST SWAP3 PUSH2 0x2A2 JUMP JUMPDEST SWAP2 PUSH2 0x1F75 DUP4 DUP3 MUL PUSH2 0x2A2 JUMP JUMPDEST SWAP3 DUP2 DUP5 DIV EQ SWAP1 ISZERO OR ISZERO PUSH2 0x1F84 JUMPI JUMP JUMPDEST PUSH2 0x1F3E JUMP JUMPDEST PUSH4 0x4E487B71 PUSH1 0xE0 SHL PUSH1 0x0 MSTORE PUSH1 0x12 PUSH1 0x4 MSTORE PUSH1 0x24 PUSH1 0x0 REVERT JUMPDEST PUSH2 0x1FAB PUSH2 0x1FB1 SWAP2 PUSH2 0x2A2 JUMP JUMPDEST SWAP2 PUSH2 0x2A2 JUMP JUMPDEST SWAP1 DUP2 ISZERO PUSH2 0x1FBC JUMPI DIV SWAP1 JUMP JUMPDEST PUSH2 0x1F89 JUMP JUMPDEST PUSH2 0x1FE4 PUSH2 0x1FE9 SWAP2 SWAP4 SWAP3 SWAP4 PUSH2 0x1FD3 PUSH2 0x1DF1 JUMP JUMPDEST POP PUSH2 0x1FDC PUSH2 0x180B JUMP JUMPDEST POP PUSH1 0x3 PUSH2 0x1DF6 JUMP JUMPDEST PUSH2 0x1ED4 JUMP JUMPDEST SWAP2 PUSH2 0x1FF6 PUSH1 0x0 DUP5 ADD PUSH2 0x1EE0 JUMP JUMPDEST PUSH2 0x2011 PUSH2 0x200B PUSH2 0x2006 PUSH1 0x0 PUSH2 0x1F09 JUMP JUMPDEST PUSH2 0x272 JUMP JUMPDEST SWAP2 PUSH2 0x272 JUMP JUMPDEST EQ PUSH2 0x205E JUMPI JUMPDEST PUSH1 0x0 PUSH2 0x2053 PUSH2 0x203D PUSH2 0x205A SWAP4 PUSH2 0x2037 PUSH2 0x2032 PUSH1 0x20 DUP10 ADD PUSH2 0x1F15 JUMP JUMPDEST PUSH2 0x1F22 JUMP JUMPDEST SWAP1 PUSH2 0x1F54 JUMP JUMPDEST PUSH2 0x204D PUSH2 0x2048 PUSH2 0x33CC JUMP JUMPDEST PUSH2 0x1F22 JUMP JUMPDEST SWAP1 PUSH2 0x1F9F JUMP JUMPDEST SWAP4 ADD PUSH2 0x1EE0 JUMP JUMPDEST SWAP2 SWAP1 JUMP JUMPDEST SWAP2 POP PUSH2 0x205A PUSH1 0x0 PUSH2 0x2053 PUSH2 0x203D PUSH2 0x2075 PUSH1 0x2 PUSH2 0x1ED4 JUMP JUMPDEST SWAP6 SWAP4 POP POP POP POP PUSH2 0x2017 JUMP JUMPDEST PUSH2 0x208B SWAP2 CALLDATASIZE SWAP2 PUSH2 0x93C JUMP JUMPDEST SWAP1 JUMP JUMPDEST PUSH2 0x2099 SWAP2 CALLDATASIZE SWAP2 PUSH2 0x104B JUMP JUMPDEST SWAP1 JUMP JUMPDEST SWAP7 SWAP4 SWAP7 SWAP6 SWAP1 SWAP5 SWAP2 SWAP3 SWAP6 PUSH2 0x20AD PUSH2 0x33E3 JUMP JUMPDEST PUSH2 0x22E6 JUMPI JUMPDEST DUP3 DUP8 SUB PUSH2 0x22D8 JUMPI PUSH1 0x60 SHL PUSH8 0x9A31110384E0B0C9 OR SWAP5 PUSH1 0x60 SHL PUSH8 0x9A31110384E0B0C9 OR SWAP2 DUP6 PUSH1 0x20 MSTORE DUP6 PUSH1 0x60 SHR SWAP6 DUP4 PUSH1 0x60 SHR SWAP4 DUP5 ISZERO PUSH2 0x22CA JUMPI DUP8 CALLER SUB PUSH2 0x22AE JUMPI JUMPDEST DUP9 PUSH1 0x5 SHL DUP1 JUMPDEST PUSH2 0x224E JUMPI POP POP POP DUP3 DUP7 PUSH1 0x20 PUSH32 0x4A39DC06D4C0DBC64B70AF90FD698A233A518AA5D07E595D983B8C0526C8F7FB PUSH1 0x40 MLOAD PUSH1 0x40 DUP2 MSTORE DUP12 DUP14 DUP2 PUSH1 0x5 SHL SWAP5 DUP3 DUP7 SWAP4 PUSH1 0x40 DUP7 ADD MSTORE DUP4 DUP14 PUSH1 0x60 DUP8 ADD CALLDATACOPY DUP4 PUSH1 0x60 ADD DUP3 DUP7 ADD MSTORE PUSH1 0x60 DUP5 DUP7 ADD ADD SWAP1 DUP2 MSTORE ADD CALLDATACOPY PUSH1 0x80 CALLER SWAP4 DUP1 ADD ADD SWAP1 LOG4 PUSH2 0x2164 PUSH2 0x33F1 JUMP JUMPDEST PUSH2 0x2231 JUMPI JUMPDEST POP DUP2 EXTCODESIZE PUSH2 0x217A JUMPI JUMPDEST POP POP POP POP POP POP POP JUMP JUMPDEST PUSH1 0x20 DUP1 DUP1 SWAP8 DUP7 SWAP5 PUSH1 0x0 MSTORE DUP1 PUSH1 0xC0 PUSH1 0x40 MLOAD SWAP12 DUP13 SWAP11 PUSH4 0xBC197C81 DUP13 MSTORE CALLER DUP7 DUP14 ADD MSTORE PUSH1 0x40 DUP13 ADD MSTORE PUSH1 0xA0 PUSH1 0x60 DUP13 ADD MSTORE DUP11 DUP4 PUSH1 0x5 SHL SWAP10 DUP11 SWAP6 DUP7 SWAP5 DUP6 SWAP4 ADD MSTORE PUSH1 0xE0 DUP14 ADD CALLDATACOPY DUP2 PUSH1 0xC0 ADD PUSH1 0x80 DUP13 ADD MSTORE PUSH1 0xE0 DUP3 DUP13 ADD ADD SWAP3 DUP4 MSTORE DUP5 DUP4 ADD CALLDATACOPY DUP2 DUP1 PUSH1 0xE0 ADD ADD PUSH1 0xA0 DUP11 ADD MSTORE ADD ADD DUP4 DUP2 MSTORE ADD CALLDATACOPY DUP1 ADD ADD PUSH2 0x104 ADD PUSH1 0x1C PUSH1 0x40 MLOAD ADD PUSH1 0x0 DUP1 MLOAD GAS CALL ISZERO PUSH2 0x2222 JUMPI JUMPDEST PUSH4 0xBC197C81 PUSH1 0xE0 SHL SWAP1 MLOAD SUB PUSH2 0x2214 JUMPI CODESIZE DUP1 DUP1 DUP1 DUP1 DUP1 DUP1 PUSH2 0x2171 JUMP JUMPDEST PUSH4 0x9C05499B PUSH1 0x0 MSTORE PUSH1 0x4 PUSH1 0x1C REVERT JUMPDEST RETURNDATASIZE ISZERO PUSH2 0x21F9 JUMPI RETURNDATASIZE PUSH1 0x0 DUP3 RETURNDATACOPY RETURNDATASIZE SWAP1 REVERT JUMPDEST PUSH2 0x2248 SWAP1 DUP7 SWAP1 DUP5 SWAP1 DUP7 SWAP1 DUP11 DUP13 SWAP2 SWAP3 DUP8 SWAP5 DUP12 SWAP7 PUSH2 0x33FF JUMP JUMPDEST CODESIZE PUSH2 0x2169 JUMP JUMPDEST PUSH1 0x20 SWAP1 SUB DUP1 DUP12 ADD CALLDATALOAD DUP4 PUSH1 0x20 MSTORE DUP2 DUP9 ADD CALLDATALOAD PUSH1 0x0 MSTORE PUSH1 0x40 PUSH1 0x0 KECCAK256 DUP1 SLOAD DUP1 DUP4 GT PUSH2 0x22A0 JUMPI DUP3 SWAP1 SUB SWAP1 SSTORE DUP3 PUSH1 0x20 MSTORE PUSH1 0x40 PUSH1 0x0 KECCAK256 SWAP1 DUP2 SLOAD SWAP1 DUP2 ADD SWAP1 DUP2 LT PUSH2 0x2292 JUMPI DUP3 SWAP2 SSTORE PUSH2 0x20F7 JUMP JUMPDEST PUSH4 0x1336CEA PUSH1 0x0 MSTORE PUSH1 0x4 PUSH1 0x1C REVERT JUMPDEST PUSH4 0xF4D678B8 PUSH1 0x0 MSTORE PUSH1 0x4 PUSH1 0x1C REVERT JUMPDEST CALLER PUSH1 0x0 MSTORE PUSH1 0x34 PUSH1 0xC KECCAK256 SLOAD PUSH2 0x20F1 JUMPI PUSH4 0x4B6E7F18 PUSH1 0x0 MSTORE PUSH1 0x4 PUSH1 0x1C REVERT JUMPDEST PUSH4 0xEA553B34 PUSH1 0x0 MSTORE PUSH1 0x4 PUSH1 0x1C REVERT JUMPDEST PUSH4 0x3B800A46 PUSH1 0x0 MSTORE PUSH1 0x4 PUSH1 0x1C REVERT JUMPDEST PUSH2 0x2309 DUP5 DUP9 PUSH2 0x2303 DUP12 DUP8 SWAP1 PUSH2 0x22FD DUP9 SWAP5 DUP13 SWAP7 PUSH2 0x2080 JUMP JUMPDEST POP PUSH2 0x2080 JUMP JUMPDEST POP PUSH2 0x208E JUMP JUMPDEST POP PUSH2 0x20B2 JUMP JUMPDEST SWAP1 PUSH2 0x232A SWAP2 PUSH2 0x2325 PUSH2 0x2320 DUP3 PUSH2 0x1DCF JUMP JUMPDEST PUSH2 0x2EDF JUMP JUMPDEST PUSH2 0x232C JUMP JUMPDEST JUMP JUMPDEST SWAP1 PUSH2 0x2336 SWAP2 PUSH2 0x3449 JUMP JUMPDEST JUMP JUMPDEST SWAP1 PUSH2 0x2342 SWAP2 PUSH2 0x230F JUMP JUMPDEST JUMP JUMPDEST PUSH1 0x20 PUSH32 0x20726F6C657320666F722073656C660000000000000000000000000000000000 SWAP2 PUSH32 0x416363657373436F6E74726F6C3A2063616E206F6E6C792072656E6F756E6365 PUSH1 0x0 DUP3 ADD MSTORE ADD MSTORE JUMP JUMPDEST PUSH2 0x239F PUSH1 0x2F PUSH1 0x40 SWAP3 PUSH2 0x647 JUMP JUMPDEST PUSH2 0x23A8 DUP2 PUSH2 0x2344 JUMP JUMPDEST ADD SWAP1 JUMP JUMPDEST PUSH2 0x23C2 SWAP1 PUSH1 0x20 DUP2 ADD SWAP1 PUSH1 0x0 DUP2 DUP4 SUB SWAP2 ADD MSTORE PUSH2 0x2392 JUMP JUMPDEST SWAP1 JUMP JUMPDEST ISZERO PUSH2 0x23CC JUMPI JUMP JUMPDEST PUSH2 0x23D4 PUSH2 0x252 JUMP JUMPDEST PUSH3 0x461BCD PUSH1 0xE5 SHL DUP2 MSTORE DUP1 PUSH2 0x23EA PUSH1 0x4 DUP3 ADD PUSH2 0x23AC JUMP JUMPDEST SUB SWAP1 REVERT JUMPDEST SWAP1 PUSH2 0x241B SWAP2 PUSH2 0x2416 DUP3 PUSH2 0x2410 PUSH2 0x240A PUSH2 0x2405 PUSH2 0x3473 JUMP JUMPDEST PUSH2 0x272 JUMP JUMPDEST SWAP2 PUSH2 0x272 JUMP JUMPDEST EQ PUSH2 0x23C5 JUMP JUMPDEST PUSH2 0x3480 JUMP JUMPDEST JUMP JUMPDEST PUSH1 0x60 SWAP1 JUMP JUMPDEST SWAP4 SWAP3 SWAP2 SWAP1 PUSH2 0x242E PUSH2 0x241D JUMP JUMPDEST POP DUP3 SUB PUSH2 0x2485 JUMPI PUSH1 0x40 MLOAD SWAP4 DUP3 DUP6 MSTORE PUSH1 0x20 DUP6 ADD SWAP3 PUSH1 0x5 SHL DUP1 DUP5 DUP2 ADD PUSH1 0x40 MSTORE JUMPDEST PUSH2 0x2456 JUMPI POP POP POP POP JUMP JUMPDEST PUSH1 0x20 SWAP1 SUB DUP1 DUP3 ADD CALLDATALOAD PUSH1 0x60 SHL PUSH8 0x9A31110384E0B0C9 OR PUSH1 0x20 MSTORE DUP1 DUP4 ADD CALLDATALOAD PUSH1 0x0 MSTORE DUP1 PUSH1 0x40 PUSH1 0x0 KECCAK256 SLOAD DUP2 DUP7 ADD MSTORE PUSH2 0x244C JUMP JUMPDEST PUSH4 0x3B800A46 PUSH1 0x0 MSTORE PUSH1 0x4 PUSH1 0x1C REVERT JUMPDEST SWAP1 PUSH2 0x24AE SWAP3 SWAP2 PUSH2 0x24A9 PUSH2 0x24A4 PUSH2 0x188F JUMP JUMPDEST PUSH2 0x2EDF JUMP JUMPDEST PUSH2 0x24B0 JUMP JUMPDEST JUMP JUMPDEST SWAP2 PUSH2 0x24BD SWAP3 SWAP2 SWAP1 SWAP2 PUSH2 0x352E JUMP JUMPDEST JUMP JUMPDEST SWAP1 PUSH2 0x24CA SWAP3 SWAP2 PUSH2 0x2493 JUMP JUMPDEST JUMP JUMPDEST PUSH32 0x9F2DF0FED2C77648DE5860A4CC508CD0818C85B8B8A1AB4CEEEF8D981C8956A6 SWAP1 JUMP JUMPDEST SWAP1 PUSH2 0x250C SWAP4 SWAP3 SWAP2 PUSH2 0x2507 PUSH2 0x2502 PUSH2 0x24CC JUMP JUMPDEST PUSH2 0x2EDF JUMP JUMPDEST PUSH2 0x250E JUMP JUMPDEST JUMP JUMPDEST SWAP2 PUSH2 0x251C SWAP4 SWAP2 SWAP1 SWAP2 SWAP3 PUSH2 0x35B1 JUMP JUMPDEST JUMP JUMPDEST SWAP1 PUSH2 0x252A SWAP4 SWAP3 SWAP2 PUSH2 0x24F0 JUMP JUMPDEST JUMP JUMPDEST PUSH2 0x2545 SWAP1 PUSH2 0x2540 PUSH2 0x253B PUSH2 0x18E7 JUMP JUMPDEST PUSH2 0x2EDF JUMP JUMPDEST PUSH2 0x2547 JUMP JUMPDEST JUMP JUMPDEST PUSH2 0x2552 SWAP1 PUSH1 0x9 PUSH2 0x1B03 JUMP JUMPDEST JUMP JUMPDEST PUSH2 0x255D SWAP1 PUSH2 0x252C JUMP JUMPDEST JUMP JUMPDEST PUSH1 0xFF AND SWAP1 JUMP JUMPDEST PUSH2 0x2571 PUSH2 0x2576 SWAP2 PUSH2 0x1DA5 JUMP JUMPDEST PUSH2 0x255F JUMP JUMPDEST SWAP1 JUMP JUMPDEST PUSH2 0x2583 SWAP1 SLOAD PUSH2 0x2565 JUMP JUMPDEST SWAP1 JUMP JUMPDEST SWAP1 PUSH2 0x2592 PUSH1 0xFF SWAP2 PUSH2 0x1426 JUMP JUMPDEST SWAP2 DUP2 NOT AND SWAP2 AND OR SWAP1 JUMP JUMPDEST PUSH2 0x25A5 SWAP1 PUSH2 0x39F JUMP JUMPDEST SWAP1 JUMP JUMPDEST SWAP1 JUMP JUMPDEST SWAP1 PUSH2 0x25C0 PUSH2 0x25BB PUSH2 0x25C7 SWAP3 PUSH2 0x259C JUMP JUMPDEST PUSH2 0x25A8 JUMP JUMPDEST DUP3 SLOAD PUSH2 0x2586 JUMP JUMPDEST SWAP1 SSTORE JUMP JUMPDEST SWAP6 SWAP7 SWAP5 SWAP4 SWAP3 SWAP5 CALLER PUSH2 0x2604 PUSH2 0x25FE PUSH32 0x0 PUSH2 0x272 JUMP JUMPDEST SWAP2 PUSH2 0x272 JUMP JUMPDEST EQ ISZERO DUP1 ISZERO PUSH2 0x2666 JUMPI JUMPDEST PUSH2 0x2649 JUMPI PUSH2 0x263B SWAP8 PUSH2 0x262E SWAP7 PUSH2 0x2629 SWAP5 DUP10 SWAP5 SWAP1 SWAP2 SWAP3 SWAP4 SWAP5 PUSH2 0x3607 JUMP JUMPDEST PUSH2 0x30F9 JUMP JUMPDEST PUSH2 0x2636 PUSH2 0x24CC JUMP JUMPDEST PUSH2 0x3449 JUMP JUMPDEST PUSH2 0x2647 PUSH1 0x1 PUSH1 0xB PUSH2 0x25AB JUMP JUMPDEST JUMP JUMPDEST PUSH1 0x0 PUSH4 0xF92EE8A9 PUSH1 0xE0 SHL DUP2 MSTORE DUP1 PUSH2 0x2662 PUSH1 0x4 DUP3 ADD PUSH2 0x45F JUMP JUMPDEST SUB SWAP1 REVERT JUMPDEST POP PUSH2 0x2671 PUSH1 0xB PUSH2 0x2579 JUMP JUMPDEST PUSH2 0x260D JUMP JUMPDEST SWAP1 PUSH2 0x2680 SWAP1 PUSH2 0x1D81 JUMP JUMPDEST PUSH1 0x0 MSTORE PUSH1 0x20 MSTORE PUSH1 0x40 PUSH1 0x0 KECCAK256 SWAP1 JUMP JUMPDEST SWAP1 JUMP JUMPDEST SWAP1 PUSH2 0x26B1 PUSH2 0x26AC PUSH2 0x26B6 SWAP4 PUSH2 0x26A4 PUSH2 0x1DF1 JUMP JUMPDEST POP PUSH1 0x5 PUSH2 0x2676 JUMP JUMPDEST PUSH2 0x268E JUMP JUMPDEST PUSH2 0x36A0 JUMP JUMPDEST SWAP1 JUMP JUMPDEST PUSH2 0x26C2 SWAP1 PUSH2 0x1B66 JUMP JUMPDEST SWAP1 JUMP JUMPDEST PUSH2 0x26CE SWAP1 PUSH2 0x26B9 JUMP JUMPDEST SWAP1 JUMP JUMPDEST SWAP1 PUSH2 0x26DB SWAP1 PUSH2 0x26C5 JUMP JUMPDEST PUSH1 0x0 MSTORE PUSH1 0x20 MSTORE PUSH1 0x40 PUSH1 0x0 KECCAK256 SWAP1 JUMP JUMPDEST PUSH2 0x2711 SWAP2 PUSH1 0x0 PUSH2 0x2706 PUSH2 0x270C SWAP4 PUSH2 0x26FE PUSH2 0x1834 JUMP JUMPDEST POP PUSH1 0x4 PUSH2 0x1D8D JUMP JUMPDEST ADD PUSH2 0x26D1 JUMP JUMPDEST PUSH2 0x2579 JUMP JUMPDEST SWAP1 JUMP JUMPDEST PUSH2 0x272D SWAP1 PUSH2 0x2728 PUSH2 0x2723 PUSH2 0x18E7 JUMP JUMPDEST PUSH2 0x2EDF JUMP JUMPDEST PUSH2 0x272F JUMP JUMPDEST JUMP JUMPDEST PUSH2 0x273A SWAP1 PUSH1 0xA PUSH2 0x1B03 JUMP JUMPDEST JUMP JUMPDEST PUSH2 0x2745 SWAP1 PUSH2 0x2714 JUMP JUMPDEST JUMP JUMPDEST PUSH1 0x1 DUP1 PUSH1 0xA0 SHL SUB AND SWAP1 JUMP JUMPDEST PUSH2 0x275E PUSH2 0x2763 SWAP2 PUSH2 0x1DA5 JUMP JUMPDEST PUSH2 0x2747 JUMP JUMPDEST SWAP1 JUMP JUMPDEST PUSH2 0x2770 SWAP1 SLOAD PUSH2 0x2752 JUMP JUMPDEST SWAP1 JUMP JUMPDEST PUSH2 0x277C SWAP1 PUSH2 0x26B9 JUMP JUMPDEST SWAP1 JUMP JUMPDEST PUSH1 0xE0 SHL SWAP1 JUMP JUMPDEST SWAP1 POP MLOAD SWAP1 PUSH2 0x2792 DUP3 PUSH2 0xA4B JUMP JUMPDEST JUMP JUMPDEST SWAP1 PUSH1 0x20 DUP3 DUP3 SUB SLT PUSH2 0x27AE JUMPI PUSH2 0x27AB SWAP2 PUSH1 0x0 ADD PUSH2 0x2785 JUMP JUMPDEST SWAP1 JUMP JUMPDEST PUSH2 0x25D JUMP JUMPDEST POP PUSH2 0x27C2 SWAP1 PUSH1 0x20 DUP2 ADD SWAP1 PUSH2 0x293 JUMP JUMPDEST SWAP1 JUMP JUMPDEST PUSH2 0x27CE SWAP1 PUSH2 0x272 JUMP JUMPDEST SWAP1 MSTORE JUMP JUMPDEST POP PUSH2 0x27E1 SWAP1 PUSH1 0x20 DUP2 ADD SWAP1 PUSH2 0x371 JUMP JUMPDEST SWAP1 JUMP JUMPDEST PUSH2 0x27ED SWAP1 PUSH2 0x350 JUMP JUMPDEST SWAP1 MSTORE JUMP JUMPDEST POP PUSH2 0x2800 SWAP1 PUSH1 0x20 DUP2 ADD SWAP1 PUSH2 0xA60 JUMP JUMPDEST SWAP1 JUMP JUMPDEST PUSH2 0x280C SWAP1 PUSH2 0xA48 JUMP JUMPDEST SWAP1 MSTORE JUMP JUMPDEST PUSH1 0x0 DUP1 REVERT JUMPDEST PUSH1 0x0 DUP1 REVERT JUMPDEST PUSH1 0x0 DUP1 REVERT JUMPDEST SWAP1 CALLDATALOAD PUSH1 0x1 PUSH1 0x20 SUB DUP3 CALLDATASIZE SUB SUB DUP2 SLT ISZERO PUSH2 0x2860 JUMPI ADD PUSH1 0x20 DUP2 CALLDATALOAD SWAP2 ADD SWAP2 PUSH8 0xFFFFFFFFFFFFFFFF DUP3 GT PUSH2 0x285B JUMPI PUSH1 0x1 DUP3 MUL CALLDATASIZE SUB DUP4 SGT PUSH2 0x2856 JUMPI JUMP JUMPDEST PUSH2 0x2815 JUMP JUMPDEST PUSH2 0x2810 JUMP JUMPDEST PUSH2 0x281A JUMP JUMPDEST PUSH1 0x20 SWAP2 DUP2 MSTORE ADD SWAP1 JUMP JUMPDEST SWAP2 SWAP1 PUSH2 0x2888 DUP2 PUSH2 0x2881 DUP2 PUSH2 0x288D SWAP6 PUSH2 0x2865 JUMP JUMPDEST DUP1 SWAP6 PUSH2 0x736 JUMP JUMPDEST PUSH2 0x5AF JUMP JUMPDEST ADD SWAP1 JUMP JUMPDEST SWAP1 CALLDATALOAD PUSH1 0x1 PUSH1 0x40 SUB DUP3 CALLDATASIZE SUB SUB DUP2 SLT ISZERO PUSH2 0x28A7 JUMPI ADD SWAP1 JUMP JUMPDEST PUSH2 0x281A JUMP JUMPDEST SWAP1 CALLDATALOAD PUSH1 0x1 PUSH1 0x20 SUB DUP3 CALLDATASIZE SUB SUB DUP2 SLT ISZERO PUSH2 0x28ED JUMPI ADD PUSH1 0x20 DUP2 CALLDATALOAD SWAP2 ADD SWAP2 PUSH8 0xFFFFFFFFFFFFFFFF DUP3 GT PUSH2 0x28E8 JUMPI PUSH1 0x1 DUP3 MUL CALLDATASIZE SUB DUP4 SGT PUSH2 0x28E3 JUMPI JUMP JUMPDEST PUSH2 0x2815 JUMP JUMPDEST PUSH2 0x2810 JUMP JUMPDEST PUSH2 0x281A JUMP JUMPDEST SWAP2 SWAP1 PUSH2 0x290C DUP2 PUSH2 0x2905 DUP2 PUSH2 0x2911 SWAP6 PUSH2 0x4FF JUMP JUMPDEST DUP1 SWAP6 PUSH2 0x736 JUMP JUMPDEST PUSH2 0x5AF JUMP JUMPDEST ADD SWAP1 JUMP JUMPDEST PUSH8 0xFFFFFFFFFFFFFFFF AND SWAP1 JUMP JUMPDEST PUSH2 0x292B DUP2 PUSH2 0x2915 JUMP JUMPDEST SUB PUSH2 0x2932 JUMPI JUMP JUMPDEST PUSH1 0x0 DUP1 REVERT JUMPDEST SWAP1 POP CALLDATALOAD SWAP1 PUSH2 0x2944 DUP3 PUSH2 0x2922 JUMP JUMPDEST JUMP JUMPDEST POP PUSH2 0x2955 SWAP1 PUSH1 0x20 DUP2 ADD SWAP1 PUSH2 0x2937 JUMP JUMPDEST SWAP1 JUMP JUMPDEST PUSH2 0x2961 SWAP1 PUSH2 0x2915 JUMP JUMPDEST SWAP1 MSTORE JUMP JUMPDEST SWAP1 PUSH2 0x29A3 SWAP1 PUSH1 0x20 PUSH2 0x299B PUSH2 0x2991 PUSH1 0x40 DUP5 ADD PUSH2 0x2983 PUSH1 0x0 DUP9 ADD DUP9 PUSH2 0x28AC JUMP JUMPDEST SWAP1 DUP7 DUP4 SUB PUSH1 0x0 DUP9 ADD MSTORE PUSH2 0x28F2 JUMP JUMPDEST SWAP5 DUP3 DUP2 ADD SWAP1 PUSH2 0x2946 JUMP JUMPDEST SWAP2 ADD SWAP1 PUSH2 0x2958 JUMP JUMPDEST SWAP1 JUMP JUMPDEST PUSH2 0x2A50 SWAP2 PUSH2 0x2A42 PUSH2 0x2A37 PUSH1 0xC0 DUP4 ADD PUSH2 0x29CE PUSH2 0x29C4 PUSH1 0x0 DUP8 ADD DUP8 PUSH2 0x27B3 JUMP JUMPDEST PUSH1 0x0 DUP7 ADD SWAP1 PUSH2 0x27C5 JUMP JUMPDEST PUSH2 0x29E8 PUSH2 0x29DE PUSH1 0x20 DUP8 ADD DUP8 PUSH2 0x27D2 JUMP JUMPDEST PUSH1 0x20 DUP7 ADD SWAP1 PUSH2 0x27E4 JUMP JUMPDEST PUSH2 0x2A02 PUSH2 0x29F8 PUSH1 0x40 DUP8 ADD DUP8 PUSH2 0x27F1 JUMP JUMPDEST PUSH1 0x40 DUP7 ADD SWAP1 PUSH2 0x2803 JUMP JUMPDEST PUSH2 0x2A1C PUSH2 0x2A12 PUSH1 0x60 DUP8 ADD DUP8 PUSH2 0x27F1 JUMP JUMPDEST PUSH1 0x60 DUP7 ADD SWAP1 PUSH2 0x2803 JUMP JUMPDEST PUSH2 0x2A29 PUSH1 0x80 DUP7 ADD DUP7 PUSH2 0x281F JUMP JUMPDEST SWAP1 DUP6 DUP4 SUB PUSH1 0x80 DUP8 ADD MSTORE PUSH2 0x286E JUMP JUMPDEST SWAP3 PUSH1 0xA0 DUP2 ADD SWAP1 PUSH2 0x2891 JUMP JUMPDEST SWAP1 PUSH1 0xA0 DUP2 DUP5 SUB SWAP2 ADD MSTORE PUSH2 0x2965 JUMP JUMPDEST SWAP1 JUMP JUMPDEST SWAP4 SWAP3 SWAP1 PUSH2 0x2A7F PUSH1 0x40 SWAP2 PUSH2 0x2A87 SWAP5 PUSH2 0x2A72 PUSH1 0x60 DUP10 ADD SWAP3 PUSH1 0x0 DUP11 ADD SWAP1 PUSH2 0xB9A JUMP JUMPDEST DUP8 DUP3 SUB PUSH1 0x20 DUP10 ADD MSTORE PUSH2 0x29A6 JUMP JUMPDEST SWAP5 ADD SWAP1 PUSH2 0xA8E JUMP JUMPDEST JUMP JUMPDEST PUSH2 0x2A91 PUSH2 0x252 JUMP JUMPDEST RETURNDATASIZE PUSH1 0x0 DUP3 RETURNDATACOPY RETURNDATASIZE SWAP1 REVERT JUMPDEST SWAP2 POP PUSH1 0x20 SWAP1 PUSH2 0x2AA7 PUSH2 0x1D7C JUMP JUMPDEST POP PUSH2 0x2ABA PUSH2 0x2AB5 PUSH1 0x6 PUSH2 0x2766 JUMP JUMPDEST PUSH2 0x2773 JUMP JUMPDEST PUSH2 0x2AE6 PUSH4 0x3808A90B SWAP5 SWAP3 SWAP5 PUSH2 0x2AF1 PUSH2 0x2AD2 PUSH1 0x7 PUSH2 0x1DC2 JUMP JUMPDEST PUSH2 0x2ADA PUSH2 0x252 JUMP JUMPDEST SWAP8 DUP9 SWAP7 DUP8 SWAP6 DUP7 SWAP6 PUSH2 0x277F JUMP JUMPDEST DUP6 MSTORE PUSH1 0x4 DUP6 ADD PUSH2 0x2A53 JUMP JUMPDEST SUB SWAP2 GAS STATICCALL SWAP1 DUP2 ISZERO PUSH2 0x2B36 JUMPI PUSH1 0x0 SWAP2 PUSH2 0x2B08 JUMPI JUMPDEST POP SWAP1 JUMP JUMPDEST PUSH2 0x2B29 SWAP2 POP PUSH1 0x20 RETURNDATASIZE DUP2 GT PUSH2 0x2B2F JUMPI JUMPDEST PUSH2 0x2B21 DUP2 DUP4 PUSH2 0x5CF JUMP JUMPDEST DUP2 ADD SWAP1 PUSH2 0x2794 JUMP JUMPDEST CODESIZE PUSH2 0x2B04 JUMP JUMPDEST POP RETURNDATASIZE PUSH2 0x2B17 JUMP JUMPDEST PUSH2 0x2A89 JUMP JUMPDEST SWAP1 ISZERO ISZERO PUSH8 0x9A31110384E0B0C9 PUSH1 0x20 MSTORE CALLER PUSH1 0x14 MSTORE DUP2 PUSH1 0x0 MSTORE DUP1 PUSH1 0x34 PUSH1 0xC KECCAK256 SSTORE PUSH1 0x0 MSTORE PUSH1 0x60 SHL PUSH1 0x60 SHR CALLER PUSH32 0x17307EAB39AB6107E8899845AD3D59BD9653F200F220920489CA2B5937696C31 PUSH1 0x20 PUSH1 0x0 LOG3 JUMP JUMPDEST PUSH2 0x2B98 SWAP2 CALLER SWAP2 SWAP1 SWAP2 PUSH2 0x36D9 JUMP JUMPDEST JUMP JUMPDEST SWAP1 PUSH2 0x2BB6 SWAP4 SWAP3 SWAP2 PUSH2 0x2BB1 PUSH2 0x2BAC PUSH2 0x24CC JUMP JUMPDEST PUSH2 0x2EDF JUMP JUMPDEST PUSH2 0x2BB8 JUMP JUMPDEST JUMP JUMPDEST SWAP2 PUSH2 0x2BC6 SWAP4 SWAP2 SWAP1 SWAP2 SWAP3 PUSH2 0x372B JUMP JUMPDEST JUMP JUMPDEST SWAP1 PUSH2 0x2BD4 SWAP4 SWAP3 SWAP2 PUSH2 0x2B9A JUMP JUMPDEST JUMP JUMPDEST PUSH2 0x2BF5 PUSH2 0x2BF0 PUSH2 0x2BFA SWAP3 PUSH2 0x2BE8 PUSH2 0x180B JUMP JUMPDEST POP PUSH1 0x5 PUSH2 0x2676 JUMP JUMPDEST PUSH2 0x268E JUMP JUMPDEST PUSH2 0x3814 JUMP JUMPDEST SWAP1 JUMP JUMPDEST SWAP1 PUSH2 0x2C18 SWAP2 PUSH2 0x2C13 PUSH2 0x2C0E DUP3 PUSH2 0x1DCF JUMP JUMPDEST PUSH2 0x2EDF JUMP JUMPDEST PUSH2 0x2C1A JUMP JUMPDEST JUMP JUMPDEST SWAP1 PUSH2 0x2C24 SWAP2 PUSH2 0x3480 JUMP JUMPDEST JUMP JUMPDEST SWAP1 PUSH2 0x2C30 SWAP2 PUSH2 0x2BFD JUMP JUMPDEST JUMP JUMPDEST PUSH2 0x2C3A PUSH2 0x1834 JUMP JUMPDEST POP PUSH8 0x9A31110384E0B0C9 PUSH1 0x20 MSTORE PUSH1 0x14 MSTORE PUSH1 0x0 MSTORE PUSH1 0x34 PUSH1 0xC KECCAK256 SLOAD SWAP1 JUMP JUMPDEST PUSH2 0x2C6F SWAP1 PUSH2 0x2C6A PUSH2 0x2C65 PUSH2 0x1B27 JUMP JUMPDEST PUSH2 0x2EDF JUMP JUMPDEST PUSH2 0x2CB4 JUMP JUMPDEST JUMP JUMPDEST SWAP1 PUSH2 0x2C7E PUSH1 0x0 NOT SWAP2 PUSH2 0x1426 JUMP JUMPDEST SWAP2 DUP2 NOT AND SWAP2 AND OR SWAP1 JUMP JUMPDEST PUSH2 0x2C91 SWAP1 PUSH2 0x1DA5 JUMP JUMPDEST SWAP1 JUMP JUMPDEST SWAP1 PUSH2 0x2CA9 PUSH2 0x2CA4 PUSH2 0x2CB0 SWAP3 PUSH2 0x1D81 JUMP JUMPDEST PUSH2 0x2C88 JUMP JUMPDEST DUP3 SLOAD PUSH2 0x2C71 JUMP JUMPDEST SWAP1 SSTORE JUMP JUMPDEST PUSH2 0x2CBF SWAP1 PUSH1 0x7 PUSH2 0x2C94 JUMP JUMPDEST JUMP JUMPDEST PUSH2 0x2CCA SWAP1 PUSH2 0x2C56 JUMP JUMPDEST JUMP JUMPDEST SWAP5 SWAP1 SWAP2 SWAP5 PUSH2 0x2CD8 PUSH2 0x33E3 JUMP JUMPDEST PUSH2 0x2E76 JUMPI JUMPDEST PUSH1 0x60 SHL PUSH8 0x9A31110384E0B0C9 OR SWAP2 PUSH1 0x60 SHL PUSH8 0x9A31110384E0B0C9 OR SWAP2 DUP1 PUSH1 0x20 MSTORE PUSH1 0x60 SHR SWAP3 DUP3 PUSH1 0x60 SHR SWAP3 DUP4 ISZERO PUSH2 0x2E68 JUMPI DUP5 CALLER SUB PUSH2 0x2E4C JUMPI JUMPDEST DUP7 PUSH1 0x0 MSTORE PUSH1 0x40 PUSH1 0x0 KECCAK256 DUP1 SLOAD DUP1 DUP5 GT PUSH2 0x2E3E JUMPI DUP4 SWAP1 SUB SWAP1 SSTORE PUSH1 0x20 MSTORE PUSH1 0x40 PUSH1 0x0 KECCAK256 DUP1 SLOAD SWAP1 DUP3 DUP3 ADD SWAP2 DUP3 LT PUSH2 0x2E30 JUMPI SSTORE DUP1 PUSH1 0x20 MSTORE DUP3 DUP5 CALLER PUSH32 0xC3D58168C5AE7397731D063D5BBF3D657854427343F4C083240F7AACAA2D0F62 PUSH1 0x40 PUSH1 0x0 LOG4 PUSH2 0x2D76 PUSH2 0x33F1 JUMP JUMPDEST PUSH2 0x2E0B JUMPI JUMPDEST DUP3 EXTCODESIZE PUSH2 0x2D8A JUMPI JUMPDEST POP POP POP POP POP POP JUMP JUMPDEST PUSH1 0x20 SWAP5 DUP3 SWAP2 PUSH1 0x40 MLOAD SWAP8 DUP9 SWAP7 PUSH4 0xF23A6E61 DUP9 MSTORE CALLER DUP10 DUP10 ADD MSTORE PUSH1 0x40 DUP9 ADD MSTORE PUSH1 0x60 DUP8 ADD MSTORE PUSH1 0x80 DUP7 ADD MSTORE PUSH1 0xA0 DUP1 DUP7 ADD MSTORE DUP2 PUSH1 0xC0 DUP7 ADD MSTORE PUSH1 0xE0 DUP6 ADD CALLDATACOPY PUSH1 0xC4 ADD SWAP1 PUSH1 0x0 PUSH1 0x1C DUP5 ADD SWAP2 GAS CALL ISZERO PUSH2 0x2DFC JUMPI JUMPDEST PUSH4 0xF23A6E61 PUSH1 0xE0 SHL SWAP1 MLOAD SUB PUSH2 0x2DEE JUMPI CODESIZE DUP1 DUP1 DUP1 DUP1 DUP1 PUSH2 0x2D82 JUMP JUMPDEST PUSH4 0x9C05499B PUSH1 0x0 MSTORE PUSH1 0x4 PUSH1 0x1C REVERT JUMPDEST RETURNDATASIZE ISZERO PUSH2 0x2DD4 JUMPI RETURNDATASIZE PUSH1 0x0 DUP3 RETURNDATACOPY RETURNDATASIZE SWAP1 REVERT JUMPDEST PUSH2 0x2E14 DUP7 PUSH2 0x3834 JUMP JUMPDEST POP PUSH2 0x2E1E DUP2 PUSH2 0x3834 JUMP JUMPDEST POP PUSH2 0x2E2A DUP6 DUP4 SWAP1 PUSH2 0x208E JUMP JUMPDEST POP PUSH2 0x2D7B JUMP JUMPDEST PUSH4 0x1336CEA PUSH1 0x0 MSTORE PUSH1 0x4 PUSH1 0x1C REVERT JUMPDEST PUSH4 0xF4D678B8 PUSH1 0x0 MSTORE PUSH1 0x4 PUSH1 0x1C REVERT JUMPDEST CALLER PUSH1 0x0 MSTORE PUSH1 0x34 PUSH1 0xC KECCAK256 SLOAD PUSH2 0x2D14 JUMPI PUSH4 0x4B6E7F18 PUSH1 0x0 MSTORE PUSH1 0x4 PUSH1 0x1C REVERT JUMPDEST PUSH4 0xEA553B34 PUSH1 0x0 MSTORE PUSH1 0x4 PUSH1 0x1C REVERT JUMPDEST PUSH2 0x2E7F DUP7 PUSH2 0x3834 JUMP JUMPDEST POP PUSH2 0x2E89 DUP5 PUSH2 0x3834 JUMP JUMPDEST POP PUSH2 0x2E95 DUP6 DUP4 SWAP1 PUSH2 0x208E JUMP JUMPDEST POP PUSH2 0x2CDD JUMP JUMPDEST PUSH2 0x2EA3 PUSH2 0x1834 JUMP JUMPDEST POP PUSH2 0x2EAD DUP2 PUSH2 0x3854 JUMP JUMPDEST DUP1 ISZERO PUSH2 0x2ED0 JUMPI JUMPDEST SWAP1 DUP2 ISZERO PUSH2 0x2EC0 JUMPI JUMPDEST POP SWAP1 JUMP JUMPDEST PUSH2 0x2ECA SWAP2 POP PUSH2 0x38FA JUMP JUMPDEST CODESIZE PUSH2 0x2EBC JUMP JUMPDEST POP PUSH2 0x2EDA DUP2 PUSH2 0x3894 JUMP JUMPDEST PUSH2 0x2EB4 JUMP JUMPDEST PUSH2 0x2EF1 SWAP1 PUSH2 0x2EEB PUSH2 0x3473 JUMP JUMPDEST SWAP1 PUSH2 0x39F1 JUMP JUMPDEST JUMP JUMPDEST PUSH1 0x20 PUSH32 0x2073616C65507269636500000000000000000000000000000000000000000000 SWAP2 PUSH32 0x455243323938313A20726F79616C7479206665652077696C6C20657863656564 PUSH1 0x0 DUP3 ADD MSTORE ADD MSTORE JUMP JUMPDEST PUSH2 0x2F4E PUSH1 0x2A PUSH1 0x40 SWAP3 PUSH2 0x647 JUMP JUMPDEST PUSH2 0x2F57 DUP2 PUSH2 0x2EF3 JUMP JUMPDEST ADD SWAP1 JUMP JUMPDEST PUSH2 0x2F71 SWAP1 PUSH1 0x20 DUP2 ADD SWAP1 PUSH1 0x0 DUP2 DUP4 SUB SWAP2 ADD MSTORE PUSH2 0x2F41 JUMP JUMPDEST SWAP1 JUMP JUMPDEST ISZERO PUSH2 0x2F7B JUMPI JUMP JUMPDEST PUSH2 0x2F83 PUSH2 0x252 JUMP JUMPDEST PUSH3 0x461BCD PUSH1 0xE5 SHL DUP2 MSTORE DUP1 PUSH2 0x2F99 PUSH1 0x4 DUP3 ADD PUSH2 0x2F5B JUMP JUMPDEST SUB SWAP1 REVERT JUMPDEST PUSH1 0x0 PUSH32 0x455243323938313A20696E76616C696420726563656976657200000000000000 SWAP2 ADD MSTORE JUMP JUMPDEST PUSH2 0x2FD2 PUSH1 0x19 PUSH1 0x20 SWAP3 PUSH2 0x647 JUMP JUMPDEST PUSH2 0x2FDB DUP2 PUSH2 0x2F9D JUMP JUMPDEST ADD SWAP1 JUMP JUMPDEST PUSH2 0x2FF5 SWAP1 PUSH1 0x20 DUP2 ADD SWAP1 PUSH1 0x0 DUP2 DUP4 SUB SWAP2 ADD MSTORE PUSH2 0x2FC5 JUMP JUMPDEST SWAP1 JUMP JUMPDEST ISZERO PUSH2 0x2FFF JUMPI JUMP JUMPDEST PUSH2 0x3007 PUSH2 0x252 JUMP JUMPDEST PUSH3 0x461BCD PUSH1 0xE5 SHL DUP2 MSTORE DUP1 PUSH2 0x301D PUSH1 0x4 DUP3 ADD PUSH2 0x2FDF JUMP JUMPDEST SUB SWAP1 REVERT JUMPDEST PUSH2 0x302B PUSH1 0x40 PUSH2 0x6FE JUMP JUMPDEST SWAP1 JUMP JUMPDEST SWAP1 JUMP JUMPDEST SWAP1 PUSH2 0x3046 PUSH2 0x3041 PUSH2 0x304D SWAP3 PUSH2 0x26C5 JUMP JUMPDEST PUSH2 0x302E JUMP JUMPDEST DUP3 SLOAD PUSH2 0x1B9A JUMP JUMPDEST SWAP1 SSTORE JUMP JUMPDEST PUSH1 0xA0 SHL SWAP1 JUMP JUMPDEST SWAP1 PUSH2 0x3071 PUSH12 0xFFFFFFFFFFFFFFFFFFFFFFFF PUSH1 0xA0 SHL SWAP2 PUSH2 0x3051 JUMP JUMPDEST SWAP2 DUP2 NOT AND SWAP2 AND OR SWAP1 JUMP JUMPDEST PUSH2 0x308F PUSH2 0x308A PUSH2 0x3094 SWAP3 PUSH2 0x3FC JUMP JUMPDEST PUSH2 0xAE6 JUMP JUMPDEST PUSH2 0x3FC JUMP JUMPDEST SWAP1 JUMP JUMPDEST SWAP1 JUMP JUMPDEST SWAP1 PUSH2 0x30AF PUSH2 0x30AA PUSH2 0x30B6 SWAP3 PUSH2 0x307B JUMP JUMPDEST PUSH2 0x3097 JUMP JUMPDEST DUP3 SLOAD PUSH2 0x3057 JUMP JUMPDEST SWAP1 SSTORE JUMP JUMPDEST SWAP1 PUSH2 0x30E5 PUSH1 0x20 PUSH1 0x0 PUSH2 0x30EB SWAP5 PUSH2 0x30DD DUP3 DUP3 ADD PUSH2 0x30D7 DUP5 DUP9 ADD PUSH2 0x1EE0 JUMP JUMPDEST SWAP1 PUSH2 0x3031 JUMP JUMPDEST ADD SWAP3 ADD PUSH2 0x1F15 JUMP JUMPDEST SWAP1 PUSH2 0x309A JUMP JUMPDEST JUMP JUMPDEST SWAP1 PUSH2 0x30F7 SWAP2 PUSH2 0x30BA JUMP JUMPDEST JUMP JUMPDEST SWAP1 PUSH2 0x316A PUSH2 0x3171 SWAP3 PUSH2 0x3125 DUP4 PUSH2 0x311E PUSH2 0x3118 PUSH2 0x3113 PUSH2 0x33CC JUMP JUMPDEST PUSH2 0x3FC JUMP JUMPDEST SWAP2 PUSH2 0x3FC JUMP JUMPDEST GT ISZERO PUSH2 0x2F74 JUMP JUMPDEST PUSH2 0x314B DUP2 PUSH2 0x3144 PUSH2 0x313E PUSH2 0x3139 PUSH1 0x0 PUSH2 0x1F09 JUMP JUMPDEST PUSH2 0x272 JUMP JUMPDEST SWAP2 PUSH2 0x272 JUMP JUMPDEST EQ ISZERO PUSH2 0x2FF8 JUMP JUMPDEST SWAP2 PUSH2 0x3161 PUSH2 0x3157 PUSH2 0x3021 JUMP JUMPDEST SWAP4 PUSH1 0x0 DUP6 ADD PUSH2 0x1E3A JUMP JUMPDEST PUSH1 0x20 DUP4 ADD PUSH2 0x1E80 JUMP JUMPDEST PUSH1 0x2 PUSH2 0x30ED JUMP JUMPDEST JUMP JUMPDEST SWAP1 PUSH2 0x317C PUSH2 0x1C04 JUMP JUMPDEST POP PUSH1 0x80 PUSH1 0x40 MLOAD ADD SWAP2 PUSH1 0x20 DUP4 ADD PUSH1 0x40 MSTORE PUSH1 0x0 DUP4 MSTORE DUP3 SWAP1 PUSH1 0xA PUSH1 0x0 NOT DUP1 SWAP3 SWAP6 JUMPDEST ADD SWAP5 DUP2 DUP2 MOD PUSH1 0x30 ADD DUP7 MSTORE8 DIV SWAP4 DUP5 ISZERO PUSH2 0x31B9 JUMPI SWAP1 PUSH1 0xA SWAP2 SWAP1 DUP1 SWAP3 SWAP2 PUSH2 0x319A JUMP JUMPDEST SWAP4 POP POP DUP3 PUSH1 0x20 SWAP2 SUB SWAP3 SUB SWAP2 DUP3 MSTORE JUMP JUMPDEST PUSH2 0x31DC PUSH2 0x31D7 PUSH2 0x31E1 SWAP3 PUSH2 0x1423 JUMP JUMPDEST PUSH2 0xAE6 JUMP JUMPDEST PUSH2 0x2A2 JUMP JUMPDEST SWAP1 JUMP JUMPDEST PUSH1 0x1 PUSH2 0x31F0 SWAP2 ADD PUSH2 0x2A2 JUMP JUMPDEST SWAP1 JUMP JUMPDEST PUSH4 0x4E487B71 PUSH1 0xE0 SHL PUSH1 0x0 MSTORE PUSH1 0x32 PUSH1 0x4 MSTORE PUSH1 0x24 PUSH1 0x0 REVERT JUMPDEST SWAP1 PUSH2 0x3213 DUP3 PUSH2 0xE9A JUMP JUMPDEST DUP2 LT ISZERO PUSH2 0x3224 JUMPI PUSH1 0x20 DUP1 SWAP2 MUL ADD ADD SWAP1 JUMP JUMPDEST PUSH2 0x31F3 JUMP JUMPDEST PUSH2 0x3233 SWAP1 MLOAD PUSH2 0x2A2 JUMP JUMPDEST SWAP1 JUMP JUMPDEST PUSH2 0x3242 PUSH2 0x3247 SWAP2 PUSH2 0x1DA5 JUMP JUMPDEST PUSH2 0x8AE JUMP JUMPDEST SWAP1 JUMP JUMPDEST PUSH2 0x3254 SWAP1 SLOAD PUSH2 0x3236 JUMP JUMPDEST SWAP1 JUMP JUMPDEST PUSH2 0x3266 PUSH2 0x326C SWAP2 SWAP4 SWAP3 SWAP4 PUSH2 0x2A2 JUMP JUMPDEST SWAP3 PUSH2 0x2A2 JUMP JUMPDEST DUP3 SUB SWAP2 DUP3 GT PUSH2 0x3277 JUMPI JUMP JUMPDEST PUSH2 0x1F3E JUMP JUMPDEST SWAP1 PUSH2 0x3291 PUSH2 0x328C PUSH2 0x3298 SWAP3 PUSH2 0xAE9 JUMP JUMPDEST PUSH2 0x195A JUMP JUMPDEST DUP3 SLOAD PUSH2 0x2C71 JUMP JUMPDEST SWAP1 SSTORE JUMP JUMPDEST PUSH2 0x32AB PUSH2 0x32B1 SWAP2 SWAP4 SWAP3 SWAP4 PUSH2 0x2A2 JUMP JUMPDEST SWAP3 PUSH2 0x2A2 JUMP JUMPDEST DUP3 ADD DUP1 SWAP3 GT PUSH2 0x32BC JUMPI JUMP JUMPDEST PUSH2 0x1F3E JUMP JUMPDEST PUSH2 0x32D1 SWAP1 SWAP4 SWAP3 SWAP2 SWAP4 DUP5 DUP4 SWAP2 PUSH2 0x3A8A JUMP JUMPDEST PUSH2 0x32DA DUP4 PUSH2 0xE9A JUMP JUMPDEST SWAP3 PUSH2 0x32E5 PUSH1 0x0 PUSH2 0x31C8 JUMP JUMPDEST SWAP3 PUSH2 0x32F0 PUSH1 0x0 PUSH2 0x31C8 JUMP JUMPDEST SWAP4 JUMPDEST DUP5 PUSH2 0x3305 PUSH2 0x32FF DUP9 PUSH2 0x2A2 JUMP JUMPDEST SWAP2 PUSH2 0x2A2 JUMP JUMPDEST LT ISZERO PUSH2 0x3382 JUMPI PUSH2 0x3376 PUSH2 0x337C SWAP2 PUSH2 0x335D PUSH2 0x3328 PUSH2 0x3323 DUP9 DUP11 SWAP1 PUSH2 0x3209 JUMP JUMPDEST PUSH2 0x3229 JUMP JUMPDEST PUSH2 0x3357 PUSH2 0x3348 PUSH1 0x1 PUSH2 0x3342 PUSH2 0x333D DUP14 DUP13 PUSH2 0x3209 JUMP JUMPDEST PUSH2 0x3229 JUMP JUMPDEST SWAP1 PUSH2 0xB05 JUMP JUMPDEST SWAP2 PUSH2 0x3352 DUP4 PUSH2 0x324A JUMP JUMPDEST PUSH2 0x3257 JUMP JUMPDEST SWAP1 PUSH2 0x327C JUMP JUMPDEST PUSH2 0x3370 PUSH2 0x336B DUP8 DUP10 SWAP1 PUSH2 0x3209 JUMP JUMPDEST PUSH2 0x3229 JUMP JUMPDEST SWAP1 PUSH2 0x329C JUMP JUMPDEST SWAP5 PUSH2 0x31E4 JUMP JUMPDEST SWAP4 PUSH2 0x32F2 JUMP JUMPDEST SWAP2 POP SWAP4 POP PUSH2 0x33A6 SWAP3 POP PUSH2 0x339F SWAP2 POP PUSH2 0x339A PUSH1 0x0 PUSH2 0x324A JUMP JUMPDEST PUSH2 0x3257 JUMP JUMPDEST PUSH1 0x0 PUSH2 0x327C JUMP JUMPDEST JUMP JUMPDEST PUSH1 0x0 SWAP1 JUMP JUMPDEST SWAP1 JUMP JUMPDEST PUSH2 0x33C4 PUSH2 0x33BF PUSH2 0x33C9 SWAP3 PUSH2 0x33AD JUMP JUMPDEST PUSH2 0xAE6 JUMP JUMPDEST PUSH2 0x3FC JUMP JUMPDEST SWAP1 JUMP JUMPDEST PUSH2 0x33D4 PUSH2 0x33A8 JUMP JUMPDEST POP PUSH2 0x33E0 PUSH2 0x2710 PUSH2 0x33B0 JUMP JUMPDEST SWAP1 JUMP JUMPDEST PUSH2 0x33EB PUSH2 0x1834 JUMP JUMPDEST POP PUSH1 0x0 SWAP1 JUMP JUMPDEST PUSH2 0x33F9 PUSH2 0x1834 JUMP JUMPDEST POP PUSH1 0x0 SWAP1 JUMP JUMPDEST POP POP SWAP5 SWAP3 SWAP4 SWAP1 SWAP4 PUSH2 0x340E PUSH2 0x33F1 JUMP JUMPDEST PUSH2 0x341B JUMPI JUMPDEST POP POP POP POP POP POP JUMP JUMPDEST PUSH2 0x3431 PUSH2 0x3437 SWAP4 PUSH2 0x343D SWAP8 SWAP7 SWAP1 SWAP3 SWAP4 SWAP6 SWAP7 PUSH2 0x2080 JUMP JUMPDEST POP PUSH2 0x2080 JUMP JUMPDEST POP PUSH2 0x208E JUMP JUMPDEST POP CODESIZE DUP1 DUP1 DUP1 DUP1 DUP1 PUSH2 0x3413 JUMP JUMPDEST SWAP1 PUSH2 0x346B PUSH2 0x3466 PUSH2 0x3470 SWAP4 PUSH2 0x345F DUP2 DUP6 SWAP1 PUSH2 0x3AA5 JUMP JUMPDEST PUSH1 0x5 PUSH2 0x2676 JUMP JUMPDEST PUSH2 0x268E JUMP JUMPDEST PUSH2 0x3B8C JUMP JUMPDEST POP JUMP JUMPDEST PUSH2 0x347B PUSH2 0x1DF1 JUMP JUMPDEST POP CALLER SWAP1 JUMP JUMPDEST SWAP1 PUSH2 0x34A2 PUSH2 0x349D PUSH2 0x34A7 SWAP4 PUSH2 0x3496 DUP2 DUP6 SWAP1 PUSH2 0x3BC7 JUMP JUMPDEST PUSH1 0x5 PUSH2 0x2676 JUMP JUMPDEST PUSH2 0x268E JUMP JUMPDEST PUSH2 0x3C61 JUMP JUMPDEST POP JUMP JUMPDEST PUSH1 0x0 PUSH32 0x455243323938313A20496E76616C696420706172616D65746572730000000000 SWAP2 ADD MSTORE JUMP JUMPDEST PUSH2 0x34DF PUSH1 0x1B PUSH1 0x20 SWAP3 PUSH2 0x647 JUMP JUMPDEST PUSH2 0x34E8 DUP2 PUSH2 0x34AA JUMP JUMPDEST ADD SWAP1 JUMP JUMPDEST PUSH2 0x3502 SWAP1 PUSH1 0x20 DUP2 ADD SWAP1 PUSH1 0x0 DUP2 DUP4 SUB SWAP2 ADD MSTORE PUSH2 0x34D2 JUMP JUMPDEST SWAP1 JUMP JUMPDEST ISZERO PUSH2 0x350C JUMPI JUMP JUMPDEST PUSH2 0x3514 PUSH2 0x252 JUMP JUMPDEST PUSH3 0x461BCD PUSH1 0xE5 SHL DUP2 MSTORE DUP1 PUSH2 0x352A PUSH1 0x4 DUP3 ADD PUSH2 0x34EC JUMP JUMPDEST SUB SWAP1 REVERT JUMPDEST PUSH2 0x35AA SWAP1 PUSH2 0x35A3 PUSH2 0x35AF SWAP5 SWAP4 PUSH2 0x355E DUP6 PUSH2 0x3557 PUSH2 0x3551 PUSH2 0x354C PUSH2 0x33CC JUMP JUMPDEST PUSH2 0x3FC JUMP JUMPDEST SWAP2 PUSH2 0x3FC JUMP JUMPDEST GT ISZERO PUSH2 0x2F74 JUMP JUMPDEST PUSH2 0x3584 DUP2 PUSH2 0x357D PUSH2 0x3577 PUSH2 0x3572 PUSH1 0x0 PUSH2 0x1F09 JUMP JUMPDEST PUSH2 0x272 JUMP JUMPDEST SWAP2 PUSH2 0x272 JUMP JUMPDEST EQ ISZERO PUSH2 0x3505 JUMP JUMPDEST SWAP4 PUSH2 0x359A PUSH2 0x3590 PUSH2 0x3021 JUMP JUMPDEST SWAP6 PUSH1 0x0 DUP8 ADD PUSH2 0x1E3A JUMP JUMPDEST PUSH1 0x20 DUP6 ADD PUSH2 0x1E80 JUMP JUMPDEST PUSH1 0x3 PUSH2 0x1DF6 JUMP JUMPDEST PUSH2 0x30ED JUMP JUMPDEST JUMP JUMPDEST PUSH2 0x35FF SWAP2 SWAP3 PUSH2 0x35CB PUSH2 0x3605 SWAP6 PUSH2 0x35F0 SWAP4 SWAP1 DUP7 DUP5 SWAP2 SWAP3 PUSH2 0x3C9C JUMP JUMPDEST PUSH2 0x35E8 PUSH2 0x35E1 DUP3 PUSH2 0x35DC PUSH1 0x0 PUSH2 0x324A JUMP JUMPDEST PUSH2 0x329C JUMP JUMPDEST PUSH1 0x0 PUSH2 0x327C JUMP JUMPDEST SWAP3 PUSH1 0x1 PUSH2 0xB05 JUMP JUMPDEST SWAP2 PUSH2 0x35FA DUP4 PUSH2 0x324A JUMP JUMPDEST PUSH2 0x329C JUMP JUMPDEST SWAP1 PUSH2 0x327C JUMP JUMPDEST JUMP JUMPDEST SWAP2 SWAP3 PUSH2 0x3626 PUSH2 0x366B SWAP7 SWAP5 PUSH2 0x361F PUSH2 0x362D SWAP5 PUSH1 0x8 PUSH2 0x1B03 JUMP JUMPDEST PUSH1 0x9 PUSH2 0x1B03 JUMP JUMPDEST PUSH1 0xA PUSH2 0x1B03 JUMP JUMPDEST PUSH2 0x363F PUSH2 0x3638 PUSH2 0x1448 JUMP JUMPDEST DUP3 SWAP1 PUSH2 0x3449 JUMP JUMPDEST PUSH2 0x3651 PUSH2 0x364A PUSH2 0x188F JUMP JUMPDEST DUP3 SWAP1 PUSH2 0x3449 JUMP JUMPDEST PUSH2 0x3663 PUSH2 0x365C PUSH2 0x18E7 JUMP JUMPDEST DUP3 SWAP1 PUSH2 0x3449 JUMP JUMPDEST SWAP2 SWAP1 SWAP2 PUSH2 0x3D9D JUMP JUMPDEST JUMP JUMPDEST SWAP1 JUMP JUMPDEST PUSH2 0x367C PUSH2 0x3681 SWAP2 PUSH2 0x1DA5 JUMP JUMPDEST PUSH2 0xAE9 JUMP JUMPDEST SWAP1 JUMP JUMPDEST PUSH2 0x3698 PUSH2 0x3693 PUSH2 0x369D SWAP3 PUSH2 0x2A2 JUMP JUMPDEST PUSH2 0xAE6 JUMP JUMPDEST PUSH2 0x267 JUMP JUMPDEST SWAP1 JUMP JUMPDEST PUSH2 0x36CC PUSH2 0x36C7 PUSH2 0x36D6 SWAP4 PUSH2 0x36C2 PUSH1 0x0 PUSH2 0x36D1 SWAP6 PUSH2 0x36BB PUSH2 0x1DF1 JUMP JUMPDEST POP ADD PUSH2 0x366D JUMP JUMPDEST PUSH2 0x3E18 JUMP JUMPDEST PUSH2 0x3670 JUMP JUMPDEST PUSH2 0x3684 JUMP JUMPDEST PUSH2 0x26B9 JUMP JUMPDEST SWAP1 JUMP JUMPDEST PUSH2 0x3714 PUSH2 0x3729 SWAP4 PUSH2 0x36EF PUSH2 0x3723 SWAP4 DUP6 DUP4 SWAP2 PUSH2 0x3E3A JUMP JUMPDEST PUSH2 0x370C PUSH2 0x3705 DUP3 PUSH2 0x3700 PUSH1 0x0 PUSH2 0x324A JUMP JUMPDEST PUSH2 0x3257 JUMP JUMPDEST PUSH1 0x0 PUSH2 0x327C JUMP JUMPDEST SWAP3 PUSH1 0x1 PUSH2 0xB05 JUMP JUMPDEST SWAP2 PUSH2 0x371E DUP4 PUSH2 0x324A JUMP JUMPDEST PUSH2 0x3257 JUMP JUMPDEST SWAP1 PUSH2 0x327C JUMP JUMPDEST JUMP JUMPDEST SWAP3 PUSH2 0x373C SWAP2 SWAP5 SWAP4 SWAP1 DUP6 DUP5 SWAP2 SWAP3 PUSH2 0x3E55 JUMP JUMPDEST PUSH2 0x3745 DUP4 PUSH2 0xE9A JUMP JUMPDEST SWAP2 PUSH2 0x3750 PUSH1 0x0 PUSH2 0x31C8 JUMP JUMPDEST SWAP1 PUSH2 0x375B PUSH1 0x0 PUSH2 0x31C8 JUMP JUMPDEST SWAP2 JUMPDEST DUP3 PUSH2 0x3770 PUSH2 0x376A DUP8 PUSH2 0x2A2 JUMP JUMPDEST SWAP2 PUSH2 0x2A2 JUMP JUMPDEST LT ISZERO PUSH2 0x37EE JUMPI PUSH2 0x3796 PUSH2 0x37E8 SWAP2 PUSH2 0x3790 PUSH2 0x378B DUP8 DUP8 SWAP1 PUSH2 0x3209 JUMP JUMPDEST PUSH2 0x3229 JUMP JUMPDEST SWAP1 PUSH2 0x329C JUMP JUMPDEST SWAP3 PUSH2 0x37E3 PUSH2 0x37AD PUSH2 0x37A8 DUP8 DUP5 SWAP1 PUSH2 0x3209 JUMP JUMPDEST PUSH2 0x3229 JUMP JUMPDEST PUSH2 0x37DD PUSH2 0x37CE PUSH1 0x1 PUSH2 0x37C8 PUSH2 0x37C3 DUP14 DUP9 SWAP1 PUSH2 0x3209 JUMP JUMPDEST PUSH2 0x3229 JUMP JUMPDEST SWAP1 PUSH2 0xB05 JUMP JUMPDEST SWAP2 PUSH2 0x37D8 DUP4 PUSH2 0x324A JUMP JUMPDEST PUSH2 0x329C JUMP JUMPDEST SWAP1 PUSH2 0x327C JUMP JUMPDEST PUSH2 0x31E4 JUMP JUMPDEST SWAP2 PUSH2 0x375D JUMP JUMPDEST SWAP2 POP SWAP4 POP PUSH2 0x3812 SWAP3 POP PUSH2 0x380B SWAP2 POP PUSH2 0x3806 PUSH1 0x0 PUSH2 0x324A JUMP JUMPDEST PUSH2 0x329C JUMP JUMPDEST PUSH1 0x0 PUSH2 0x327C JUMP JUMPDEST JUMP JUMPDEST PUSH2 0x382C PUSH1 0x0 PUSH2 0x3831 SWAP3 PUSH2 0x3825 PUSH2 0x180B JUMP JUMPDEST POP ADD PUSH2 0x366D JUMP JUMPDEST PUSH2 0x3F98 JUMP JUMPDEST SWAP1 JUMP JUMPDEST SWAP1 PUSH2 0x383D PUSH2 0x241D JUMP JUMPDEST POP PUSH1 0x40 MLOAD SWAP2 PUSH1 0x40 DUP4 ADD PUSH1 0x40 MSTORE PUSH1 0x1 DUP4 MSTORE PUSH1 0x20 DUP4 ADD MSTORE JUMP JUMPDEST PUSH2 0x385C PUSH2 0x1834 JUMP JUMPDEST POP PUSH4 0x3E85E62F PUSH1 0xE0 SHL PUSH2 0x3877 PUSH2 0x3871 DUP4 PUSH2 0x350 JUMP JUMPDEST SWAP2 PUSH2 0x350 JUMP JUMPDEST EQ SWAP1 DUP2 ISZERO PUSH2 0x3884 JUMPI JUMPDEST POP SWAP1 JUMP JUMPDEST PUSH2 0x388E SWAP2 POP PUSH2 0x3FB0 JUMP JUMPDEST CODESIZE PUSH2 0x3880 JUMP JUMPDEST PUSH2 0x389C PUSH2 0x1834 JUMP JUMPDEST POP PUSH2 0x38A6 DUP2 PUSH2 0x3FD7 JUMP JUMPDEST DUP1 ISZERO PUSH2 0x38EB JUMPI JUMPDEST DUP1 ISZERO PUSH2 0x38D0 JUMPI JUMPDEST SWAP1 DUP2 ISZERO PUSH2 0x38C0 JUMPI JUMPDEST POP SWAP1 JUMP JUMPDEST PUSH2 0x38CA SWAP2 POP PUSH2 0x4017 JUMP JUMPDEST CODESIZE PUSH2 0x38BC JUMP JUMPDEST POP PUSH1 0x0 PUSH2 0x38E5 PUSH2 0x38DF DUP4 PUSH2 0x350 JUMP JUMPDEST SWAP2 PUSH2 0x350 JUMP JUMPDEST EQ PUSH2 0x38B4 JUMP JUMPDEST POP PUSH2 0x38F5 DUP2 PUSH2 0x4017 JUMP JUMPDEST PUSH2 0x38AD JUMP JUMPDEST PUSH2 0x3902 PUSH2 0x1834 JUMP JUMPDEST POP PUSH2 0x390C DUP2 PUSH2 0x4017 JUMP JUMPDEST SWAP1 DUP2 ISZERO PUSH2 0x3918 JUMPI JUMPDEST POP SWAP1 JUMP JUMPDEST PUSH2 0x3922 SWAP2 POP PUSH2 0x4057 JUMP JUMPDEST CODESIZE PUSH2 0x3914 JUMP JUMPDEST SWAP1 JUMP JUMPDEST PUSH2 0x393F PUSH2 0x393A PUSH2 0x3944 SWAP3 PUSH2 0x3928 JUMP JUMPDEST PUSH2 0xAE6 JUMP JUMPDEST PUSH2 0x2A2 JUMP JUMPDEST SWAP1 JUMP JUMPDEST PUSH1 0x0 PUSH32 0x416363657373436F6E74726F6C3A206163636F756E7420000000000000000000 SWAP2 ADD MSTORE JUMP JUMPDEST PUSH2 0x397B PUSH1 0x17 DUP1 SWAP3 PUSH2 0x1C09 JUMP JUMPDEST PUSH2 0x3984 DUP2 PUSH2 0x3947 JUMP JUMPDEST ADD SWAP1 JUMP JUMPDEST PUSH1 0x0 PUSH32 0x206973206D697373696E6720726F6C6520000000000000000000000000000000 SWAP2 ADD MSTORE JUMP JUMPDEST PUSH2 0x39BC PUSH1 0x11 DUP1 SWAP3 PUSH2 0x1C09 JUMP JUMPDEST PUSH2 0x39C5 DUP2 PUSH2 0x3988 JUMP JUMPDEST ADD SWAP1 JUMP JUMPDEST PUSH2 0x39E3 PUSH2 0x39EE SWAP4 SWAP3 PUSH2 0x39DD PUSH2 0x39E8 SWAP4 PUSH2 0x396F JUMP JUMPDEST SWAP1 PUSH2 0x1C97 JUMP JUMPDEST PUSH2 0x39B0 JUMP JUMPDEST SWAP1 PUSH2 0x1C97 JUMP JUMPDEST SWAP1 JUMP JUMPDEST SWAP1 PUSH2 0x3A06 PUSH2 0x3A00 DUP4 DUP4 SWAP1 PUSH2 0x26E9 JUMP JUMPDEST ISZERO PUSH2 0x39F JUMP JUMPDEST PUSH2 0x3A0E JUMPI POP POP JUMP JUMPDEST PUSH2 0x3A86 SWAP2 PUSH2 0x3A64 PUSH2 0x3A3D PUSH2 0x3A2D PUSH2 0x3A27 PUSH2 0x3A69 SWAP6 PUSH2 0x40E5 JUMP JUMPDEST SWAP4 PUSH2 0x3670 JUMP JUMPDEST PUSH2 0x3A37 PUSH1 0x20 PUSH2 0x392B JUMP JUMPDEST SWAP1 PUSH2 0x42FE JUMP JUMPDEST SWAP2 PUSH2 0x3A55 PUSH2 0x3A49 PUSH2 0x252 JUMP JUMPDEST SWAP4 DUP5 SWAP3 PUSH1 0x20 DUP5 ADD PUSH2 0x39C9 JUMP JUMPDEST PUSH1 0x20 DUP3 ADD DUP2 SUB DUP3 MSTORE SUB DUP3 PUSH2 0x5CF JUMP JUMPDEST PUSH2 0x1D20 JUMP JUMPDEST PUSH2 0x3A71 PUSH2 0x252 JUMP JUMPDEST SWAP2 DUP3 SWAP2 PUSH3 0x461BCD PUSH1 0xE5 SHL DUP4 MSTORE PUSH1 0x4 DUP4 ADD PUSH2 0x6A6 JUMP JUMPDEST SUB SWAP1 REVERT JUMPDEST SWAP1 SWAP2 PUSH2 0x3AA3 SWAP3 PUSH2 0x3A9A PUSH1 0x0 PUSH2 0x1F09 JUMP JUMPDEST SWAP3 SWAP1 SWAP2 SWAP3 PUSH2 0x4479 JUMP JUMPDEST JUMP JUMPDEST PUSH2 0x3AB9 PUSH2 0x3AB3 DUP3 DUP5 SWAP1 PUSH2 0x26E9 JUMP JUMPDEST ISZERO PUSH2 0x39F JUMP JUMPDEST PUSH2 0x3AC2 JUMPI JUMPDEST POP POP JUMP JUMPDEST PUSH2 0x3AE5 PUSH1 0x1 PUSH2 0x3AE0 PUSH1 0x0 PUSH2 0x3AD8 PUSH1 0x4 DUP7 SWAP1 PUSH2 0x1D8D JUMP JUMPDEST ADD DUP6 SWAP1 PUSH2 0x26D1 JUMP JUMPDEST PUSH2 0x25AB JUMP JUMPDEST SWAP1 PUSH2 0x3AEE PUSH2 0x3473 JUMP JUMPDEST SWAP1 PUSH2 0x3B2B PUSH2 0x3B25 PUSH2 0x3B1F PUSH32 0x2F8788117E7EFF1D82E926EC794901D17C78024A50270940304540A733656F0D SWAP6 PUSH2 0x1D81 JUMP JUMPDEST SWAP3 PUSH2 0x26C5 JUMP JUMPDEST SWAP3 PUSH2 0x26C5 JUMP JUMPDEST SWAP3 PUSH2 0x3B34 PUSH2 0x252 JUMP JUMPDEST DUP1 PUSH2 0x3B3E DUP2 PUSH2 0x45F JUMP JUMPDEST SUB SWAP1 LOG4 CODESIZE DUP1 PUSH2 0x3ABE JUMP JUMPDEST PUSH2 0x3B51 SWAP1 PUSH2 0x1B66 JUMP JUMPDEST SWAP1 JUMP JUMPDEST PUSH2 0x3B68 PUSH2 0x3B63 PUSH2 0x3B6D SWAP3 PUSH2 0x267 JUMP JUMPDEST PUSH2 0xAE6 JUMP JUMPDEST PUSH2 0x2A2 JUMP JUMPDEST SWAP1 JUMP JUMPDEST PUSH2 0x3B84 PUSH2 0x3B7F PUSH2 0x3B89 SWAP3 PUSH2 0x2A2 JUMP JUMPDEST PUSH2 0x1426 JUMP JUMPDEST PUSH2 0xA48 JUMP JUMPDEST SWAP1 JUMP JUMPDEST SWAP1 PUSH2 0x3BBF PUSH2 0x3BB9 PUSH2 0x3BB4 PUSH2 0x3BAF PUSH1 0x0 PUSH2 0x3BC4 SWAP7 PUSH2 0x3BA7 PUSH2 0x1834 JUMP JUMPDEST POP ADD SWAP5 PUSH2 0x3B48 JUMP JUMPDEST PUSH2 0x3B54 JUMP JUMPDEST PUSH2 0x3B70 JUMP JUMPDEST SWAP2 PUSH2 0x366D JUMP JUMPDEST PUSH2 0x4669 JUMP JUMPDEST SWAP1 JUMP JUMPDEST PUSH2 0x3BD2 DUP2 DUP4 SWAP1 PUSH2 0x26E9 JUMP JUMPDEST PUSH2 0x3BDB JUMPI JUMPDEST POP POP JUMP JUMPDEST PUSH2 0x3BFE PUSH1 0x0 PUSH2 0x3BF9 PUSH1 0x0 PUSH2 0x3BF1 PUSH1 0x4 DUP7 SWAP1 PUSH2 0x1D8D JUMP JUMPDEST ADD DUP6 SWAP1 PUSH2 0x26D1 JUMP JUMPDEST PUSH2 0x25AB JUMP JUMPDEST SWAP1 PUSH2 0x3C07 PUSH2 0x3473 JUMP JUMPDEST SWAP1 PUSH2 0x3C44 PUSH2 0x3C3E PUSH2 0x3C38 PUSH32 0xF6391F5C32D9C69D2A47EA670B442974B53935D1EDC7FD64EB21E047A839171B SWAP6 PUSH2 0x1D81 JUMP JUMPDEST SWAP3 PUSH2 0x26C5 JUMP JUMPDEST SWAP3 PUSH2 0x26C5 JUMP JUMPDEST SWAP3 PUSH2 0x3C4D PUSH2 0x252 JUMP JUMPDEST DUP1 PUSH2 0x3C57 DUP2 PUSH2 0x45F JUMP JUMPDEST SUB SWAP1 LOG4 CODESIZE DUP1 PUSH2 0x3BD7 JUMP JUMPDEST SWAP1 PUSH2 0x3C94 PUSH2 0x3C8E PUSH2 0x3C89 PUSH2 0x3C84 PUSH1 0x0 PUSH2 0x3C99 SWAP7 PUSH2 0x3C7C PUSH2 0x1834 JUMP JUMPDEST POP ADD SWAP5 PUSH2 0x3B48 JUMP JUMPDEST PUSH2 0x3B54 JUMP JUMPDEST PUSH2 0x3B70 JUMP JUMPDEST SWAP2 PUSH2 0x366D JUMP JUMPDEST PUSH2 0x4729 JUMP JUMPDEST SWAP1 JUMP JUMPDEST SWAP2 SWAP3 SWAP1 SWAP3 PUSH2 0x3CA8 PUSH2 0x33E3 JUMP JUMPDEST PUSH2 0x3D84 JUMPI JUMPDEST DUP3 PUSH1 0x60 SHL DUP1 ISZERO PUSH2 0x3D76 JUMPI PUSH8 0x9A31110384E0B0C9 PUSH1 0x20 MSTORE DUP4 PUSH1 0x14 MSTORE DUP5 PUSH1 0x0 MSTORE PUSH1 0x40 PUSH1 0x0 KECCAK256 DUP1 SLOAD SWAP1 DUP4 DUP3 ADD SWAP2 DUP3 LT PUSH2 0x3D68 JUMPI SSTORE DUP2 PUSH1 0x20 MSTORE PUSH1 0x60 SHR PUSH1 0x0 CALLER PUSH32 0xC3D58168C5AE7397731D063D5BBF3D657854427343F4C083240F7AACAA2D0F62 PUSH1 0x40 DUP4 LOG4 PUSH2 0x3D15 PUSH2 0x33F1 JUMP JUMPDEST PUSH2 0x3D4F JUMPI JUMPDEST PUSH2 0x3D23 DUP4 PUSH2 0x4833 JUMP JUMPDEST PUSH2 0x3D2E JUMPI JUMPDEST POP POP POP POP JUMP JUMPDEST PUSH2 0x3D46 SWAP4 PUSH2 0x3D3C PUSH1 0x0 PUSH2 0x1F09 JUMP JUMPDEST SWAP4 SWAP1 SWAP2 SWAP3 SWAP4 PUSH2 0x4840 JUMP JUMPDEST CODESIZE DUP1 DUP1 DUP1 PUSH2 0x3D28 JUMP JUMPDEST PUSH2 0x3D58 DUP5 PUSH2 0x3834 JUMP JUMPDEST POP PUSH2 0x3D62 DUP2 PUSH2 0x3834 JUMP JUMPDEST POP PUSH2 0x3D1A JUMP JUMPDEST PUSH4 0x1336CEA PUSH1 0x0 MSTORE PUSH1 0x4 PUSH1 0x1C REVERT JUMPDEST PUSH4 0xEA553B34 PUSH1 0x0 MSTORE PUSH1 0x4 PUSH1 0x1C REVERT JUMPDEST PUSH2 0x3D8D DUP5 PUSH2 0x3834 JUMP JUMPDEST POP PUSH2 0x3D97 DUP2 PUSH2 0x3834 JUMP JUMPDEST POP PUSH2 0x3CAD JUMP JUMPDEST SWAP1 PUSH2 0x3DB3 PUSH2 0x3DB8 SWAP4 SWAP3 PUSH2 0x3DAE PUSH2 0x1B27 JUMP JUMPDEST PUSH2 0x3449 JUMP JUMPDEST PUSH2 0x48D9 JUMP JUMPDEST JUMP JUMPDEST SLOAD SWAP1 JUMP JUMPDEST PUSH1 0x0 MSTORE PUSH1 0x20 PUSH1 0x0 KECCAK256 SWAP1 JUMP JUMPDEST PUSH2 0x3DD2 DUP2 PUSH2 0x3DBA JUMP JUMPDEST DUP3 LT ISZERO PUSH2 0x3DED JUMPI PUSH2 0x3DE4 PUSH1 0x1 SWAP2 PUSH2 0x3DBE JUMP JUMPDEST SWAP2 MUL ADD SWAP1 PUSH1 0x0 SWAP1 JUMP JUMPDEST PUSH2 0x31F3 JUMP JUMPDEST PUSH2 0x3E02 SWAP1 PUSH1 0x8 PUSH2 0x3E07 SWAP4 MUL PUSH2 0x8AA JUMP JUMPDEST PUSH2 0x1DAB JUMP JUMPDEST SWAP1 JUMP JUMPDEST SWAP1 PUSH2 0x3E15 SWAP2 SLOAD PUSH2 0x3DF2 JUMP JUMPDEST SWAP1 JUMP JUMPDEST PUSH2 0x3E37 SWAP2 PUSH1 0x0 PUSH2 0x3E31 SWAP3 PUSH2 0x3E2A PUSH2 0x1D7C JUMP JUMPDEST POP ADD PUSH2 0x3DC9 JUMP JUMPDEST SWAP1 PUSH2 0x3E0A JUMP JUMPDEST SWAP1 JUMP JUMPDEST SWAP1 SWAP2 PUSH2 0x3E53 SWAP3 PUSH2 0x3E4A PUSH1 0x0 PUSH2 0x1F09 JUMP JUMPDEST SWAP3 SWAP1 SWAP2 SWAP3 PUSH2 0x48F9 JUMP JUMPDEST JUMP JUMPDEST SWAP2 SWAP3 SWAP1 SWAP3 PUSH2 0x3E61 PUSH2 0x33E3 JUMP JUMPDEST PUSH2 0x3F93 JUMPI JUMPDEST DUP1 MLOAD DUP5 MLOAD SUB PUSH2 0x3F85 JUMPI DUP3 PUSH1 0x60 SHL DUP1 ISZERO PUSH2 0x3F77 JUMPI DUP1 PUSH8 0x9A31110384E0B0C9 OR PUSH1 0x20 MSTORE DUP5 MLOAD PUSH1 0x5 SHL DUP1 JUMPDEST PUSH2 0x3F40 JUMPI POP PUSH1 0x0 PUSH1 0x40 MLOAD PUSH1 0x40 DUP2 MSTORE PUSH32 0x4A39DC06D4C0DBC64B70AF90FD698A233A518AA5D07E595D983B8C0526C8F7FB DUP2 DUP9 MLOAD PUSH1 0x5 SHL PUSH1 0x20 ADD PUSH1 0x40 DUP3 ADD SWAP1 DUP2 DUP2 DUP13 PUSH1 0x4 GAS STATICCALL POP RETURNDATASIZE PUSH1 0x40 ADD PUSH1 0x20 DUP4 ADD MSTORE RETURNDATASIZE ADD DUP7 MLOAD PUSH1 0x5 SHL PUSH1 0x20 ADD DUP2 DUP2 DUP10 PUSH1 0x4 GAS STATICCALL POP RETURNDATASIZE ADD SUB SWAP4 PUSH1 0x60 SHR SWAP4 CALLER SWAP3 LOG4 PUSH2 0x3F01 PUSH2 0x33F1 JUMP JUMPDEST PUSH2 0x3F3B JUMPI JUMPDEST PUSH2 0x3F0F DUP4 PUSH2 0x4833 JUMP JUMPDEST PUSH2 0x3F1A JUMPI JUMPDEST POP POP POP POP JUMP JUMPDEST PUSH2 0x3F32 SWAP4 PUSH2 0x3F28 PUSH1 0x0 PUSH2 0x1F09 JUMP JUMPDEST SWAP4 SWAP1 SWAP2 SWAP3 SWAP4 PUSH2 0x49FD JUMP JUMPDEST CODESIZE DUP1 DUP1 DUP1 PUSH2 0x3F14 JUMP JUMPDEST PUSH2 0x3F06 JUMP JUMPDEST DUP1 DUP4 ADD MLOAD SWAP1 DUP1 DUP8 ADD MLOAD PUSH1 0x0 MSTORE PUSH1 0x40 PUSH1 0x0 KECCAK256 SWAP2 DUP3 SLOAD SWAP1 DUP2 ADD SWAP1 DUP2 LT PUSH2 0x3F69 JUMPI PUSH1 0x20 SWAP3 SSTORE SUB DUP1 PUSH2 0x3E8E JUMP JUMPDEST PUSH4 0x1336CEA PUSH1 0x0 MSTORE PUSH1 0x4 PUSH1 0x1C REVERT JUMPDEST PUSH4 0xEA553B34 PUSH1 0x0 MSTORE PUSH1 0x4 PUSH1 0x1C REVERT JUMPDEST PUSH4 0x3B800A46 PUSH1 0x0 MSTORE PUSH1 0x4 PUSH1 0x1C REVERT JUMPDEST PUSH2 0x3E66 JUMP JUMPDEST PUSH1 0x0 PUSH2 0x3FAD SWAP2 PUSH2 0x3FA6 PUSH2 0x180B JUMP JUMPDEST POP ADD PUSH2 0x3DBA JUMP JUMPDEST SWAP1 JUMP JUMPDEST PUSH2 0x3FB8 PUSH2 0x1834 JUMP JUMPDEST POP PUSH1 0xE0 SHR PUSH4 0xE89341C DUP2 EQ SWAP1 PUSH4 0x1FFC9A7 PUSH4 0xD9B67A26 DUP3 EQ SWAP2 EQ OR OR SWAP1 JUMP JUMPDEST PUSH2 0x3FDF PUSH2 0x1834 JUMP JUMPDEST POP DUP1 PUSH2 0x3FFA PUSH2 0x3FF4 PUSH4 0x152A902D PUSH1 0xE1 SHL PUSH2 0x350 JUMP JUMPDEST SWAP2 PUSH2 0x350 JUMP JUMPDEST EQ SWAP1 DUP2 ISZERO PUSH2 0x4007 JUMPI JUMPDEST POP SWAP1 JUMP JUMPDEST PUSH2 0x4011 SWAP2 POP PUSH2 0x4AB4 JUMP JUMPDEST CODESIZE PUSH2 0x4003 JUMP JUMPDEST PUSH2 0x401F PUSH2 0x1834 JUMP JUMPDEST POP DUP1 PUSH2 0x403A PUSH2 0x4034 PUSH4 0x5A05180F PUSH1 0xE0 SHL PUSH2 0x350 JUMP JUMPDEST SWAP2 PUSH2 0x350 JUMP JUMPDEST EQ SWAP1 DUP2 ISZERO PUSH2 0x4047 JUMPI JUMPDEST POP SWAP1 JUMP JUMPDEST PUSH2 0x4051 SWAP2 POP PUSH2 0x4ADA JUMP JUMPDEST CODESIZE PUSH2 0x4043 JUMP JUMPDEST PUSH2 0x405F PUSH2 0x1834 JUMP JUMPDEST POP DUP1 PUSH2 0x407A PUSH2 0x4074 PUSH4 0x4E821D33 PUSH1 0xE1 SHL PUSH2 0x350 JUMP JUMPDEST SWAP2 PUSH2 0x350 JUMP JUMPDEST EQ SWAP1 DUP2 ISZERO PUSH2 0x4087 JUMPI JUMPDEST POP SWAP1 JUMP JUMPDEST PUSH2 0x4091 SWAP2 POP PUSH2 0x3894 JUMP JUMPDEST CODESIZE PUSH2 0x4083 JUMP JUMPDEST SWAP1 JUMP JUMPDEST PUSH1 0xFF AND SWAP1 JUMP JUMPDEST PUSH2 0x40B4 PUSH2 0x40AF PUSH2 0x40B9 SWAP3 PUSH2 0x4097 JUMP JUMPDEST PUSH2 0xAE6 JUMP JUMPDEST PUSH2 0x409A JUMP JUMPDEST SWAP1 JUMP JUMPDEST PUSH2 0x40C6 PUSH1 0x14 PUSH2 0x40A0 JUMP JUMPDEST SWAP1 JUMP JUMPDEST PUSH2 0x40DD PUSH2 0x40D8 PUSH2 0x40E2 SWAP3 PUSH2 0x409A JUMP JUMPDEST PUSH2 0xAE6 JUMP JUMPDEST PUSH2 0x2A2 JUMP JUMPDEST SWAP1 JUMP JUMPDEST PUSH2 0x4102 PUSH2 0x40FD PUSH2 0x4118 SWAP3 PUSH2 0x40F7 PUSH2 0x1C04 JUMP JUMPDEST POP PUSH2 0x3B48 JUMP JUMPDEST PUSH2 0x3B54 JUMP JUMPDEST PUSH2 0x4112 PUSH2 0x410D PUSH2 0x40BC JUMP JUMPDEST PUSH2 0x40C9 JUMP JUMPDEST SWAP1 PUSH2 0x42FE JUMP JUMPDEST SWAP1 JUMP JUMPDEST SWAP1 JUMP JUMPDEST PUSH2 0x4132 PUSH2 0x412D PUSH2 0x4137 SWAP3 PUSH2 0x411B JUMP JUMPDEST PUSH2 0xAE6 JUMP JUMPDEST PUSH2 0x2A2 JUMP JUMPDEST SWAP1 JUMP JUMPDEST SWAP1 PUSH2 0x414C PUSH2 0x4147 DUP4 PUSH2 0x1028 JUMP JUMPDEST PUSH2 0x6FE JUMP JUMPDEST SWAP2 DUP3 MSTORE JUMP JUMPDEST CALLDATASIZE SWAP1 CALLDATACOPY JUMP JUMPDEST SWAP1 PUSH2 0x417B PUSH2 0x4163 DUP4 PUSH2 0x413A JUMP JUMPDEST SWAP3 PUSH1 0x20 DUP1 PUSH2 0x4171 DUP7 SWAP4 PUSH2 0x1028 JUMP JUMPDEST SWAP3 ADD SWAP2 SUB SWAP1 PUSH2 0x4151 JUMP JUMPDEST JUMP JUMPDEST PUSH1 0x3 PUSH1 0xFC SHL SWAP1 JUMP JUMPDEST MLOAD SWAP1 JUMP JUMPDEST SWAP1 PUSH2 0x4193 DUP3 PUSH2 0x4185 JUMP JUMPDEST DUP2 LT ISZERO PUSH2 0x41A5 JUMPI PUSH1 0x1 PUSH1 0x20 SWAP2 MUL ADD ADD SWAP1 JUMP JUMPDEST PUSH2 0x31F3 JUMP JUMPDEST PUSH1 0xF PUSH1 0xFB SHL SWAP1 JUMP JUMPDEST SWAP1 JUMP JUMPDEST PUSH2 0x41C9 PUSH2 0x41C4 PUSH2 0x41CE SWAP3 PUSH2 0x41B2 JUMP JUMPDEST PUSH2 0xAE6 JUMP JUMPDEST PUSH2 0x2A2 JUMP JUMPDEST SWAP1 JUMP JUMPDEST PUSH2 0x41DA SWAP1 PUSH2 0x2A2 JUMP JUMPDEST PUSH1 0x0 DUP2 EQ PUSH2 0x41E9 JUMPI PUSH1 0x1 SWAP1 SUB SWAP1 JUMP JUMPDEST PUSH2 0x1F3E JUMP JUMPDEST PUSH16 0x181899199A1A9B1B9C1CB0B131B232B3 PUSH1 0x81 SHL SWAP1 JUMP JUMPDEST PUSH2 0x420D PUSH2 0x41EE JUMP JUMPDEST SWAP1 JUMP JUMPDEST SWAP1 JUMP JUMPDEST PUSH2 0x4227 PUSH2 0x4222 PUSH2 0x422C SWAP3 PUSH2 0x4210 JUMP JUMPDEST PUSH2 0xAE6 JUMP JUMPDEST PUSH2 0x2A2 JUMP JUMPDEST SWAP1 JUMP JUMPDEST PUSH1 0xF8 SHL SWAP1 JUMP JUMPDEST SWAP1 JUMP JUMPDEST PUSH2 0x424C PUSH2 0x4247 PUSH2 0x4251 SWAP3 PUSH2 0x4235 JUMP JUMPDEST PUSH2 0xAE6 JUMP JUMPDEST PUSH2 0x409A JUMP JUMPDEST SWAP1 JUMP JUMPDEST PUSH2 0x4273 SWAP1 PUSH2 0x426D PUSH2 0x4267 PUSH2 0x4278 SWAP5 PUSH2 0x409A JUMP JUMPDEST SWAP2 PUSH2 0x2A2 JUMP JUMPDEST SWAP1 PUSH2 0x8AA JUMP JUMPDEST PUSH2 0x2A2 JUMP JUMPDEST SWAP1 JUMP JUMPDEST PUSH1 0x0 PUSH32 0x537472696E67733A20686578206C656E67746820696E73756666696369656E74 SWAP2 ADD MSTORE JUMP JUMPDEST PUSH2 0x42AF PUSH1 0x20 DUP1 SWAP3 PUSH2 0x647 JUMP JUMPDEST PUSH2 0x42B8 DUP2 PUSH2 0x427B JUMP JUMPDEST ADD SWAP1 JUMP JUMPDEST PUSH2 0x42D2 SWAP1 PUSH1 0x20 DUP2 ADD SWAP1 PUSH1 0x0 DUP2 DUP4 SUB SWAP2 ADD MSTORE PUSH2 0x42A3 JUMP JUMPDEST SWAP1 JUMP JUMPDEST ISZERO PUSH2 0x42DC JUMPI JUMP JUMPDEST PUSH2 0x42E4 PUSH2 0x252 JUMP JUMPDEST PUSH3 0x461BCD PUSH1 0xE5 SHL DUP2 MSTORE DUP1 PUSH2 0x42FA PUSH1 0x4 DUP3 ADD PUSH2 0x42BC JUMP JUMPDEST SUB SWAP1 REVERT JUMPDEST SWAP2 SWAP1 PUSH2 0x4308 PUSH2 0x1C04 JUMP JUMPDEST POP PUSH2 0x43A2 PUSH2 0x4392 PUSH2 0x433E PUSH2 0x4339 PUSH2 0x4329 PUSH1 0x2 PUSH2 0x4324 DUP8 SWAP2 PUSH2 0x411E JUMP JUMPDEST PUSH2 0x1F54 JUMP JUMPDEST PUSH2 0x4333 PUSH1 0x2 PUSH2 0x411E JUMP JUMPDEST SWAP1 PUSH2 0x329C JUMP JUMPDEST PUSH2 0x4156 JUMP JUMPDEST SWAP3 PUSH2 0x4347 PUSH2 0x417D JUMP JUMPDEST PUSH2 0x4360 DUP6 PUSH2 0x435A PUSH1 0x0 SWAP4 PUSH1 0x0 BYTE SWAP4 PUSH2 0x31C8 JUMP JUMPDEST SWAP1 PUSH2 0x4189 JUMP JUMPDEST MSTORE8 PUSH2 0x4369 PUSH2 0x41AA JUMP JUMPDEST PUSH2 0x4382 DUP6 PUSH2 0x437C PUSH1 0x1 SWAP4 PUSH1 0x0 BYTE SWAP4 PUSH2 0x41B5 JUMP JUMPDEST SWAP1 PUSH2 0x4189 JUMP JUMPDEST MSTORE8 PUSH2 0x438D PUSH1 0x2 PUSH2 0x411E JUMP JUMPDEST PUSH2 0x1F54 JUMP JUMPDEST PUSH2 0x439C PUSH1 0x1 PUSH2 0x41B5 JUMP JUMPDEST SWAP1 PUSH2 0x329C JUMP JUMPDEST SWAP3 JUMPDEST DUP4 PUSH2 0x43B8 PUSH2 0x43B2 PUSH1 0x1 PUSH2 0x41B5 JUMP JUMPDEST SWAP2 PUSH2 0x2A2 JUMP JUMPDEST GT ISZERO PUSH2 0x441F JUMPI PUSH2 0x43C6 PUSH2 0x4205 JUMP JUMPDEST DUP2 PUSH2 0x43D1 PUSH1 0xF PUSH2 0x4213 JUMP JUMPDEST AND SWAP2 PUSH1 0x10 DUP4 LT ISZERO PUSH2 0x441A JUMPI PUSH2 0x43ED PUSH2 0x440E SWAP3 PUSH2 0x4414 SWAP5 BYTE PUSH2 0x422F JUMP JUMPDEST PUSH2 0x43FD DUP6 SWAP2 DUP9 SWAP1 PUSH1 0x0 BYTE SWAP3 PUSH2 0x4189 JUMP JUMPDEST MSTORE8 PUSH2 0x4408 PUSH1 0x4 PUSH2 0x4238 JUMP JUMPDEST SWAP1 PUSH2 0x4254 JUMP JUMPDEST SWAP4 PUSH2 0x41D1 JUMP JUMPDEST SWAP3 PUSH2 0x43A4 JUMP JUMPDEST PUSH2 0x31F3 JUMP JUMPDEST PUSH2 0x4447 SWAP3 SWAP4 POP PUSH2 0x4442 SWAP1 PUSH2 0x443C PUSH2 0x4436 PUSH1 0x0 PUSH2 0x31C8 JUMP JUMPDEST SWAP2 PUSH2 0x2A2 JUMP JUMPDEST EQ PUSH2 0x42D5 JUMP JUMPDEST PUSH2 0x1D20 JUMP JUMPDEST SWAP1 JUMP JUMPDEST SWAP1 PUSH2 0x445C PUSH2 0x4457 DUP4 PUSH2 0x713 JUMP JUMPDEST PUSH2 0x6FE JUMP JUMPDEST SWAP2 DUP3 MSTORE JUMP JUMPDEST PUSH2 0x446B PUSH1 0x0 PUSH2 0x444A JUMP JUMPDEST SWAP1 JUMP JUMPDEST PUSH2 0x4476 PUSH2 0x4461 JUMP JUMPDEST SWAP1 JUMP JUMPDEST SWAP2 SWAP4 SWAP3 SWAP1 PUSH2 0x4485 PUSH2 0x33E3 JUMP JUMPDEST PUSH2 0x45B1 JUMPI JUMPDEST DUP2 MLOAD DUP6 MLOAD SUB PUSH2 0x45A3 JUMPI PUSH1 0x60 SHL SWAP2 DUP3 PUSH8 0x9A31110384E0B0C9 OR PUSH1 0x20 MSTORE DUP1 PUSH1 0x60 SHL DUP4 DUP2 EQ SWAP1 ISZERO OR ISZERO PUSH2 0x4581 JUMPI JUMPDEST POP DUP4 MLOAD PUSH1 0x5 SHL DUP1 JUMPDEST PUSH2 0x454B JUMPI POP PUSH32 0x4A39DC06D4C0DBC64B70AF90FD698A233A518AA5D07E595D983B8C0526C8F7FB PUSH1 0x0 SWAP4 SWAP5 PUSH1 0x40 MLOAD SWAP3 DUP4 SWAP2 PUSH1 0x40 DUP4 MSTORE DUP1 MLOAD PUSH1 0x5 SHL PUSH1 0x20 ADD DUP1 SWAP2 PUSH1 0x40 DUP6 ADD SWAP3 DUP4 SWAP2 PUSH1 0x4 GAS STATICCALL POP RETURNDATASIZE PUSH1 0x40 ADD PUSH1 0x20 DUP5 ADD MSTORE RETURNDATASIZE ADD SWAP1 DUP2 DUP2 MLOAD PUSH1 0x5 SHL PUSH1 0x20 ADD DUP1 SWAP3 PUSH1 0x4 GAS STATICCALL POP RETURNDATASIZE ADD SUB SWAP3 PUSH1 0x60 SHR SWAP3 CALLER SWAP3 LOG4 PUSH2 0x4536 PUSH2 0x33F1 JUMP JUMPDEST PUSH2 0x453D JUMPI JUMPDEST JUMP JUMPDEST PUSH2 0x4545 PUSH2 0x446E JUMP JUMPDEST POP PUSH2 0x453B JUMP JUMPDEST DUP1 DUP3 ADD MLOAD SWAP1 DUP1 DUP7 ADD MLOAD PUSH1 0x0 MSTORE PUSH1 0x40 PUSH1 0x0 KECCAK256 DUP1 SLOAD SWAP3 DUP4 DUP2 GT PUSH2 0x4573 JUMPI PUSH1 0x20 SWAP4 SUB SWAP1 SSTORE SUB DUP1 PUSH2 0x44BD JUMP JUMPDEST PUSH4 0xF4D678B8 PUSH1 0x0 MSTORE PUSH1 0x4 PUSH1 0x1C REVERT JUMPDEST PUSH1 0x0 MSTORE PUSH1 0x34 PUSH1 0xC KECCAK256 SLOAD ISZERO PUSH2 0x4595 JUMPI CODESIZE PUSH2 0x44B5 JUMP JUMPDEST PUSH4 0x4B6E7F18 PUSH1 0x0 MSTORE PUSH1 0x4 PUSH1 0x1C REVERT JUMPDEST PUSH4 0x3B800A46 PUSH1 0x0 MSTORE PUSH1 0x4 PUSH1 0x1C REVERT JUMPDEST PUSH2 0x45B9 PUSH2 0x446E JUMP JUMPDEST POP PUSH2 0x448A JUMP JUMPDEST SWAP1 JUMP JUMPDEST PUSH1 0x0 MSTORE PUSH1 0x20 PUSH1 0x0 KECCAK256 SWAP1 JUMP JUMPDEST SLOAD SWAP1 JUMP JUMPDEST PUSH2 0x45DA DUP2 PUSH2 0x45CD JUMP JUMPDEST DUP3 LT ISZERO PUSH2 0x45F5 JUMPI PUSH2 0x45EC PUSH1 0x1 SWAP2 PUSH2 0x45C2 JUMP JUMPDEST SWAP2 MUL ADD SWAP1 PUSH1 0x0 SWAP1 JUMP JUMPDEST PUSH2 0x31F3 JUMP JUMPDEST SWAP2 SWAP1 PUSH2 0x4610 PUSH2 0x460B PUSH2 0x4618 SWAP4 PUSH2 0x1D81 JUMP JUMPDEST PUSH2 0x2C88 JUMP JUMPDEST SWAP1 DUP4 SLOAD PUSH2 0x1934 JUMP JUMPDEST SWAP1 SSTORE JUMP JUMPDEST SWAP1 DUP2 SLOAD SWAP2 PUSH9 0x10000000000000000 DUP4 LT ISZERO PUSH2 0x464C JUMPI DUP3 PUSH2 0x4644 SWAP2 PUSH1 0x1 PUSH2 0x464A SWAP6 ADD DUP2 SSTORE PUSH2 0x45D1 JUMP JUMPDEST SWAP1 PUSH2 0x45FA JUMP JUMPDEST JUMP JUMPDEST PUSH2 0x5B9 JUMP JUMPDEST SWAP1 PUSH2 0x465B SWAP1 PUSH2 0x1D81 JUMP JUMPDEST PUSH1 0x0 MSTORE PUSH1 0x20 MSTORE PUSH1 0x40 PUSH1 0x0 KECCAK256 SWAP1 JUMP JUMPDEST PUSH2 0x4671 PUSH2 0x1834 JUMP JUMPDEST POP PUSH2 0x4686 PUSH2 0x4680 DUP3 DUP5 SWAP1 PUSH2 0x4B1A JUMP JUMPDEST ISZERO PUSH2 0x39F JUMP JUMPDEST PUSH1 0x0 EQ PUSH2 0x46C9 JUMPI PUSH2 0x46BF PUSH2 0x46C4 SWAP3 PUSH2 0x46AA PUSH2 0x46A3 PUSH1 0x0 DUP6 ADD PUSH2 0x45BF JUMP JUMPDEST DUP3 SWAP1 PUSH2 0x461C JUMP JUMPDEST PUSH1 0x1 PUSH2 0x46B8 PUSH1 0x0 DUP6 ADD PUSH2 0x3DBA JUMP JUMPDEST SWAP4 ADD PUSH2 0x4651 JUMP JUMPDEST PUSH2 0x327C JUMP JUMPDEST PUSH1 0x1 SWAP1 JUMP JUMPDEST POP POP PUSH1 0x0 SWAP1 JUMP JUMPDEST PUSH4 0x4E487B71 PUSH1 0xE0 SHL PUSH1 0x0 MSTORE PUSH1 0x31 PUSH1 0x4 MSTORE PUSH1 0x24 PUSH1 0x0 REVERT JUMPDEST PUSH2 0x46F8 SWAP2 PUSH2 0x46F2 PUSH2 0x1D7C JUMP JUMPDEST SWAP2 PUSH2 0x45FA JUMP JUMPDEST JUMP JUMPDEST PUSH2 0x4703 DUP2 PUSH2 0x45CD JUMP JUMPDEST DUP1 ISZERO PUSH2 0x4724 JUMPI PUSH1 0x1 SWAP1 SUB SWAP1 PUSH2 0x4721 PUSH2 0x471B DUP4 DUP4 PUSH2 0x45D1 JUMP JUMPDEST SWAP1 PUSH2 0x46E6 JUMP JUMPDEST SSTORE JUMP JUMPDEST PUSH2 0x46D0 JUMP JUMPDEST PUSH2 0x4731 PUSH2 0x1834 JUMP JUMPDEST POP PUSH2 0x4748 PUSH2 0x4743 PUSH1 0x1 DUP4 ADD DUP5 SWAP1 PUSH2 0x4651 JUMP JUMPDEST PUSH2 0x324A JUMP JUMPDEST SWAP1 DUP2 PUSH2 0x475D PUSH2 0x4757 PUSH1 0x0 PUSH2 0x31C8 JUMP JUMPDEST SWAP2 PUSH2 0x2A2 JUMP JUMPDEST EQ ISZERO PUSH1 0x0 EQ PUSH2 0x482B JUMPI PUSH2 0x47DD SWAP3 PUSH1 0x1 PUSH2 0x47D8 SWAP3 DUP5 PUSH2 0x4786 PUSH1 0x0 SWAP7 PUSH2 0x4780 DUP6 PUSH2 0x41B5 JUMP JUMPDEST SWAP1 PUSH2 0x3257 JUMP JUMPDEST PUSH2 0x47A3 PUSH2 0x4794 DUP9 DUP6 ADD PUSH2 0x3DBA JUMP JUMPDEST PUSH2 0x479D DUP7 PUSH2 0x41B5 JUMP JUMPDEST SWAP1 PUSH2 0x3257 JUMP JUMPDEST DUP1 PUSH2 0x47B6 PUSH2 0x47B0 DUP5 PUSH2 0x2A2 JUMP JUMPDEST SWAP2 PUSH2 0x2A2 JUMP JUMPDEST SUB PUSH2 0x47E2 JUMPI JUMPDEST POP POP POP PUSH2 0x47D2 PUSH2 0x47CD DUP7 DUP4 ADD PUSH2 0x45BF JUMP JUMPDEST PUSH2 0x46FA JUMP JUMPDEST ADD PUSH2 0x4651 JUMP JUMPDEST PUSH2 0x197F JUMP JUMPDEST PUSH1 0x1 SWAP1 JUMP JUMPDEST PUSH2 0x4823 SWAP3 PUSH2 0x4815 PUSH2 0x4801 PUSH2 0x47FB PUSH2 0x481E SWAP5 DUP13 DUP10 ADD PUSH2 0x3DC9 JUMP JUMPDEST SWAP1 PUSH2 0x3E0A JUMP JUMPDEST SWAP4 PUSH2 0x480F DUP6 SWAP2 DUP13 DUP10 ADD PUSH2 0x3DC9 JUMP JUMPDEST SWAP1 PUSH2 0x45FA JUMP JUMPDEST SWAP2 DUP6 DUP6 ADD PUSH2 0x4651 JUMP JUMPDEST PUSH2 0x327C JUMP JUMPDEST CODESIZE DUP1 DUP1 PUSH2 0x47BC JUMP JUMPDEST POP POP POP PUSH1 0x0 SWAP1 JUMP JUMPDEST PUSH2 0x483B PUSH2 0x1834 JUMP JUMPDEST POP EXTCODESIZE SWAP1 JUMP JUMPDEST SWAP2 SWAP4 PUSH1 0x20 SWAP4 PUSH1 0x40 MLOAD SWAP6 DUP7 SWAP5 PUSH4 0xF23A6E61 DUP7 MSTORE CALLER DUP8 DUP8 ADD MSTORE PUSH1 0x60 SHL PUSH1 0x60 SHR PUSH1 0x40 DUP7 ADD MSTORE PUSH1 0x60 DUP6 ADD MSTORE PUSH1 0x80 DUP5 ADD MSTORE PUSH1 0xA0 DUP1 DUP5 ADD MSTORE DUP1 MLOAD DUP1 SWAP2 DUP2 DUP1 PUSH1 0xC0 DUP8 ADD MSTORE PUSH2 0x48C5 JUMPI JUMPDEST POP POP PUSH1 0xC4 ADD SWAP1 PUSH1 0x0 PUSH1 0x1C DUP5 ADD SWAP2 GAS CALL ISZERO PUSH2 0x48B6 JUMPI JUMPDEST PUSH4 0xF23A6E61 PUSH1 0xE0 SHL SWAP1 MLOAD SUB PUSH2 0x48A8 JUMPI JUMP JUMPDEST PUSH4 0x9C05499B PUSH1 0x0 MSTORE PUSH1 0x4 PUSH1 0x1C REVERT JUMPDEST RETURNDATASIZE ISZERO PUSH2 0x4897 JUMPI RETURNDATASIZE PUSH1 0x0 DUP3 RETURNDATACOPY RETURNDATASIZE SWAP1 REVERT JUMPDEST DUP2 DUP7 PUSH1 0xE0 DUP8 ADD SWAP3 ADD PUSH1 0x4 GAS STATICCALL POP DUP1 CODESIZE PUSH2 0x4882 JUMP JUMPDEST SWAP1 PUSH2 0x48F0 PUSH2 0x48E9 PUSH2 0x48F7 SWAP4 PUSH2 0x1B8E JUMP JUMPDEST PUSH1 0x6 PUSH2 0x1BC4 JUMP JUMPDEST PUSH1 0x7 PUSH2 0x2C94 JUMP JUMPDEST JUMP JUMPDEST SWAP1 SWAP3 SWAP2 SWAP3 PUSH2 0x4905 PUSH2 0x33E3 JUMP JUMPDEST PUSH2 0x49DB JUMPI JUMPDEST PUSH1 0x60 SHL SWAP1 DUP2 PUSH8 0x9A31110384E0B0C9 OR PUSH1 0x20 MSTORE DUP2 DUP2 PUSH1 0x60 SHL EQ DUP2 PUSH1 0x60 SHL ISZERO OR ISZERO PUSH2 0x49B9 JUMPI JUMPDEST POP DUP3 PUSH1 0x0 MSTORE PUSH1 0x40 PUSH1 0x0 KECCAK256 SWAP1 DUP2 SLOAD SWAP2 DUP3 DUP5 GT PUSH2 0x49AB JUMPI DUP4 PUSH1 0x0 SWAP4 SUB SWAP1 SSTORE DUP3 PUSH1 0x20 MSTORE PUSH1 0x60 SHR CALLER PUSH32 0xC3D58168C5AE7397731D063D5BBF3D657854427343F4C083240F7AACAA2D0F62 PUSH1 0x40 DUP5 LOG4 PUSH2 0x497F PUSH2 0x33F1 JUMP JUMPDEST PUSH2 0x4988 JUMPI JUMPDEST POP POP JUMP JUMPDEST PUSH2 0x4994 PUSH2 0x499A SWAP3 PUSH2 0x3834 JUMP JUMPDEST POP PUSH2 0x3834 JUMP JUMPDEST POP PUSH2 0x49A3 PUSH2 0x446E JUMP JUMPDEST POP CODESIZE DUP1 PUSH2 0x4984 JUMP JUMPDEST PUSH4 0xF4D678B8 PUSH1 0x0 MSTORE PUSH1 0x4 PUSH1 0x1C REVERT JUMPDEST PUSH1 0x0 MSTORE PUSH1 0x34 PUSH1 0xC KECCAK256 SLOAD ISZERO PUSH2 0x49CD JUMPI CODESIZE PUSH2 0x492E JUMP JUMPDEST PUSH4 0x4B6E7F18 PUSH1 0x0 MSTORE PUSH1 0x4 PUSH1 0x1C REVERT JUMPDEST PUSH2 0x49E4 DUP5 PUSH2 0x3834 JUMP JUMPDEST POP PUSH2 0x49EE DUP4 PUSH2 0x3834 JUMP JUMPDEST POP PUSH2 0x49F7 PUSH2 0x446E JUMP JUMPDEST POP PUSH2 0x490A JUMP JUMPDEST SWAP2 SWAP4 PUSH1 0x20 SWAP4 PUSH1 0x40 MLOAD SWAP6 DUP7 SWAP5 PUSH4 0xBC197C81 DUP7 MSTORE CALLER DUP8 DUP8 ADD MSTORE PUSH1 0x60 SHL PUSH1 0x60 SHR PUSH1 0x40 DUP7 ADD MSTORE PUSH1 0xA0 PUSH1 0x60 DUP7 ADD MSTORE DUP1 MLOAD PUSH1 0x5 SHL DUP7 ADD DUP1 SWAP2 PUSH1 0xC0 DUP8 ADD SWAP3 DUP4 SWAP2 PUSH1 0x4 GAS STATICCALL POP RETURNDATASIZE PUSH1 0xA0 ADD SWAP1 DUP2 PUSH1 0x80 DUP8 ADD MSTORE RETURNDATASIZE ADD SWAP2 DUP3 DUP2 MLOAD PUSH1 0x5 SHL DUP9 ADD DUP1 SWAP3 PUSH1 0x4 GAS STATICCALL POP RETURNDATASIZE ADD PUSH1 0xA0 DUP6 ADD MSTORE RETURNDATASIZE ADD SWAP1 DUP2 DUP2 MLOAD DUP7 ADD DUP1 SWAP3 PUSH1 0x4 GAS STATICCALL POP PUSH1 0x1C DUP4 ADD SWAP1 RETURNDATASIZE ADD SUB SWAP1 PUSH1 0x0 PUSH1 0x1C DUP5 ADD SWAP2 GAS CALL ISZERO PUSH2 0x4AA5 JUMPI JUMPDEST PUSH4 0xBC197C81 PUSH1 0xE0 SHL SWAP1 MLOAD SUB PUSH2 0x4A97 JUMPI JUMP JUMPDEST PUSH4 0x9C05499B PUSH1 0x0 MSTORE PUSH1 0x4 PUSH1 0x1C REVERT JUMPDEST RETURNDATASIZE ISZERO PUSH2 0x4A86 JUMPI RETURNDATASIZE PUSH1 0x0 DUP3 RETURNDATACOPY RETURNDATASIZE SWAP1 REVERT JUMPDEST PUSH2 0x4ABC PUSH2 0x1834 JUMP JUMPDEST POP PUSH2 0x4AD6 PUSH2 0x4AD0 PUSH4 0x1FFC9A7 PUSH1 0xE0 SHL PUSH2 0x350 JUMP JUMPDEST SWAP2 PUSH2 0x350 JUMP JUMPDEST EQ SWAP1 JUMP JUMPDEST PUSH2 0x4AE2 PUSH2 0x1834 JUMP JUMPDEST POP DUP1 PUSH2 0x4AFD PUSH2 0x4AF7 PUSH4 0x7965DB0B PUSH1 0xE0 SHL PUSH2 0x350 JUMP JUMPDEST SWAP2 PUSH2 0x350 JUMP JUMPDEST EQ SWAP1 DUP2 ISZERO PUSH2 0x4B0A JUMPI JUMPDEST POP SWAP1 JUMP JUMPDEST PUSH2 0x4B14 SWAP2 POP PUSH2 0x3FD7 JUMP JUMPDEST CODESIZE PUSH2 0x4B06 JUMP JUMPDEST PUSH2 0x4B38 SWAP2 PUSH1 0x1 PUSH2 0x4B33 SWAP3 PUSH2 0x4B2C PUSH2 0x1834 JUMP JUMPDEST POP ADD PUSH2 0x4651 JUMP JUMPDEST PUSH2 0x324A JUMP JUMPDEST PUSH2 0x4B4B PUSH2 0x4B45 PUSH1 0x0 PUSH2 0x31C8 JUMP JUMPDEST SWAP2 PUSH2 0x2A2 JUMP JUMPDEST EQ ISZERO SWAP1 JUMP INVALID LOG2 PUSH5 0x6970667358 0x22 SLT KECCAK256 LT ADDMOD DUP1 PUSH17 0x2FE6072BA72743479D7976A506937A4E7 JUMP 0xAA EXP 0xEF PUSH11 0xD714BEF8804E64736F6C63 NUMBER STOP ADDMOD SHL STOP CALLER PUSH1 0x80 PUSH1 0x40 MSTORE CALLVALUE PUSH2 0x2F JUMPI PUSH2 0x19 PUSH2 0x14 PUSH2 0xFA JUMP JUMPDEST PUSH2 0x11B JUMP JUMPDEST PUSH2 0x21 PUSH2 0x34 JUMP JUMPDEST PUSH2 0x722 PUSH2 0x380 DUP3 CODECOPY PUSH2 0x722 SWAP1 RETURN JUMPDEST PUSH2 0x3A JUMP JUMPDEST PUSH1 0x40 MLOAD SWAP1 JUMP JUMPDEST PUSH1 0x0 DUP1 REVERT JUMPDEST PUSH1 0x1F DUP1 NOT SWAP2 ADD AND SWAP1 JUMP JUMPDEST PUSH4 0x4E487B71 PUSH1 0xE0 SHL PUSH1 0x0 MSTORE PUSH1 0x41 PUSH1 0x4 MSTORE PUSH1 0x24 PUSH1 0x0 REVERT JUMPDEST SWAP1 PUSH2 0x69 SWAP1 PUSH2 0x3F JUMP JUMPDEST DUP2 ADD SWAP1 DUP2 LT PUSH1 0x1 DUP1 PUSH1 0x40 SHL SUB DUP3 GT OR PUSH2 0x81 JUMPI PUSH1 0x40 MSTORE JUMP JUMPDEST PUSH2 0x49 JUMP JUMPDEST SWAP1 PUSH2 0x99 PUSH2 0x92 PUSH2 0x34 JUMP JUMPDEST SWAP3 DUP4 PUSH2 0x5F JUMP JUMPDEST JUMP JUMPDEST PUSH1 0x0 DUP1 REVERT JUMPDEST PUSH1 0x1 DUP1 PUSH1 0xA0 SHL SUB AND SWAP1 JUMP JUMPDEST PUSH2 0xB4 SWAP1 PUSH2 0xA0 JUMP JUMPDEST SWAP1 JUMP JUMPDEST PUSH2 0xC0 DUP2 PUSH2 0xAB JUMP JUMPDEST SUB PUSH2 0xC7 JUMPI JUMP JUMPDEST PUSH1 0x0 DUP1 REVERT JUMPDEST SWAP1 POP MLOAD SWAP1 PUSH2 0xD9 DUP3 PUSH2 0xB7 JUMP JUMPDEST JUMP JUMPDEST SWAP1 PUSH1 0x20 DUP3 DUP3 SUB SLT PUSH2 0xF5 JUMPI PUSH2 0xF2 SWAP2 PUSH1 0x0 ADD PUSH2 0xCC JUMP JUMPDEST SWAP1 JUMP JUMPDEST PUSH2 0x9B JUMP JUMPDEST PUSH2 0x118 PUSH2 0xAA2 DUP1 CODESIZE SUB DUP1 PUSH2 0x10D DUP2 PUSH2 0x86 JUMP JUMPDEST SWAP3 DUP4 CODECOPY DUP2 ADD SWAP1 PUSH2 0xDB JUMP JUMPDEST SWAP1 JUMP JUMPDEST PUSH2 0x12C SWAP1 PUSH2 0x127 PUSH2 0x12E JUMP JUMPDEST PUSH2 0x26E JUMP JUMPDEST JUMP JUMPDEST PUSH2 0x13E PUSH2 0x139 PUSH2 0x291 JUMP JUMPDEST PUSH2 0x2D6 JUMP JUMPDEST JUMP JUMPDEST PUSH1 0x20 SWAP2 DUP2 MSTORE ADD SWAP1 JUMP JUMPDEST PUSH1 0x20 PUSH32 0x6E206973206E6F74206120636F6E747261637400000000000000000000000000 SWAP2 PUSH32 0x5570677261646561626C65426561636F6E3A20696D706C656D656E746174696F PUSH1 0x0 DUP3 ADD MSTORE ADD MSTORE JUMP JUMPDEST PUSH2 0x1A4 PUSH1 0x33 PUSH1 0x40 SWAP3 PUSH2 0x140 JUMP JUMPDEST PUSH2 0x1AD DUP2 PUSH2 0x149 JUMP JUMPDEST ADD SWAP1 JUMP JUMPDEST PUSH2 0x1C7 SWAP1 PUSH1 0x20 DUP2 ADD SWAP1 PUSH1 0x0 DUP2 DUP4 SUB SWAP2 ADD MSTORE PUSH2 0x197 JUMP JUMPDEST SWAP1 JUMP JUMPDEST ISZERO PUSH2 0x1D1 JUMPI JUMP JUMPDEST PUSH2 0x1D9 PUSH2 0x34 JUMP JUMPDEST PUSH3 0x461BCD PUSH1 0xE5 SHL DUP2 MSTORE DUP1 PUSH2 0x1EF PUSH1 0x4 DUP3 ADD PUSH2 0x1B1 JUMP JUMPDEST SUB SWAP1 REVERT JUMPDEST PUSH1 0x0 SHL SWAP1 JUMP JUMPDEST SWAP1 PUSH2 0x20A PUSH1 0x1 DUP1 PUSH1 0xA0 SHL SUB SWAP2 PUSH2 0x1F3 JUMP JUMPDEST SWAP2 DUP2 NOT AND SWAP2 AND OR SWAP1 JUMP JUMPDEST SWAP1 JUMP JUMPDEST PUSH2 0x22B PUSH2 0x226 PUSH2 0x230 SWAP3 PUSH2 0xA0 JUMP JUMPDEST PUSH2 0x214 JUMP JUMPDEST PUSH2 0xA0 JUMP JUMPDEST SWAP1 JUMP JUMPDEST PUSH2 0x23C SWAP1 PUSH2 0x217 JUMP JUMPDEST SWAP1 JUMP JUMPDEST PUSH2 0x248 SWAP1 PUSH2 0x233 JUMP JUMPDEST SWAP1 JUMP JUMPDEST SWAP1 JUMP JUMPDEST SWAP1 PUSH2 0x263 PUSH2 0x25E PUSH2 0x26A SWAP3 PUSH2 0x23F JUMP JUMPDEST PUSH2 0x24B JUMP JUMPDEST DUP3 SLOAD PUSH2 0x1F9 JUMP JUMPDEST SWAP1 SSTORE JUMP JUMPDEST PUSH2 0x28A SWAP1 PUSH2 0x283 PUSH2 0x27E DUP3 PUSH2 0x35E JUMP JUMPDEST PUSH2 0x1CA JUMP JUMPDEST PUSH1 0x1 PUSH2 0x24E JUMP JUMPDEST JUMP JUMPDEST PUSH1 0x0 SWAP1 JUMP JUMPDEST PUSH2 0x299 PUSH2 0x28C JUMP JUMPDEST POP CALLER SWAP1 JUMP JUMPDEST PUSH1 0x0 SHR SWAP1 JUMP JUMPDEST PUSH1 0x1 DUP1 PUSH1 0xA0 SHL SUB AND SWAP1 JUMP JUMPDEST PUSH2 0x2BB PUSH2 0x2C0 SWAP2 PUSH2 0x29E JUMP JUMPDEST PUSH2 0x2A4 JUMP JUMPDEST SWAP1 JUMP JUMPDEST PUSH2 0x2CD SWAP1 SLOAD PUSH2 0x2AF JUMP JUMPDEST SWAP1 JUMP JUMPDEST PUSH1 0x0 ADD SWAP1 JUMP JUMPDEST PUSH2 0x2E0 PUSH1 0x0 PUSH2 0x2C3 JUMP JUMPDEST PUSH2 0x2EB DUP3 PUSH1 0x0 PUSH2 0x24E JUMP JUMPDEST SWAP1 PUSH2 0x31F PUSH2 0x319 PUSH32 0x8BE0079C531659141344CD1FD0A4F28419497F9722A3DAAFE3B4186F6B6457E0 SWAP4 PUSH2 0x23F JUMP JUMPDEST SWAP2 PUSH2 0x23F JUMP JUMPDEST SWAP2 PUSH2 0x328 PUSH2 0x34 JUMP JUMPDEST DUP1 PUSH2 0x332 DUP2 PUSH2 0x2D0 JUMP JUMPDEST SUB SWAP1 LOG3 JUMP JUMPDEST PUSH1 0x0 SWAP1 JUMP JUMPDEST SWAP1 JUMP JUMPDEST SWAP1 JUMP JUMPDEST PUSH2 0x356 PUSH2 0x351 PUSH2 0x35B SWAP3 PUSH2 0x33F JUMP JUMPDEST PUSH2 0x214 JUMP JUMPDEST PUSH2 0x33C JUMP JUMPDEST SWAP1 JUMP JUMPDEST PUSH2 0x366 PUSH2 0x337 JUMP JUMPDEST POP EXTCODESIZE PUSH2 0x37B PUSH2 0x375 PUSH1 0x0 PUSH2 0x342 JUMP JUMPDEST SWAP2 PUSH2 0x33C JUMP JUMPDEST GT SWAP1 JUMP INVALID PUSH1 0x80 PUSH1 0x40 MSTORE PUSH1 0x4 CALLDATASIZE LT ISZERO PUSH2 0x13 JUMPI JUMPDEST PUSH2 0x219 JUMP JUMPDEST PUSH2 0x1E PUSH1 0x0 CALLDATALOAD PUSH2 0x6D JUMP JUMPDEST DUP1 PUSH4 0x3659CFE6 EQ PUSH2 0x68 JUMPI DUP1 PUSH4 0x5C60DA1B EQ PUSH2 0x63 JUMPI DUP1 PUSH4 0x715018A6 EQ PUSH2 0x5E JUMPI DUP1 PUSH4 0x8DA5CB5B EQ PUSH2 0x59 JUMPI PUSH4 0xF2FDE38B SUB PUSH2 0xE JUMPI PUSH2 0x1E6 JUMP JUMPDEST PUSH2 0x1B1 JUMP JUMPDEST PUSH2 0x17E JUMP JUMPDEST PUSH2 0x149 JUMP JUMPDEST PUSH2 0xE3 JUMP JUMPDEST PUSH1 0xE0 SHR SWAP1 JUMP JUMPDEST PUSH1 0x40 MLOAD SWAP1 JUMP JUMPDEST PUSH1 0x0 DUP1 REVERT JUMPDEST PUSH1 0x0 DUP1 REVERT JUMPDEST PUSH1 0x1 DUP1 PUSH1 0xA0 SHL SUB AND SWAP1 JUMP JUMPDEST PUSH2 0x97 SWAP1 PUSH2 0x83 JUMP JUMPDEST SWAP1 JUMP JUMPDEST PUSH2 0xA3 DUP2 PUSH2 0x8E JUMP JUMPDEST SUB PUSH2 0xAA JUMPI JUMP JUMPDEST PUSH1 0x0 DUP1 REVERT JUMPDEST SWAP1 POP CALLDATALOAD SWAP1 PUSH2 0xBC DUP3 PUSH2 0x9A JUMP JUMPDEST JUMP JUMPDEST SWAP1 PUSH1 0x20 DUP3 DUP3 SUB SLT PUSH2 0xD8 JUMPI PUSH2 0xD5 SWAP2 PUSH1 0x0 ADD PUSH2 0xAF JUMP JUMPDEST SWAP1 JUMP JUMPDEST PUSH2 0x7E JUMP JUMPDEST PUSH1 0x0 ADD SWAP1 JUMP JUMPDEST CALLVALUE PUSH2 0x111 JUMPI PUSH2 0xFB PUSH2 0xF6 CALLDATASIZE PUSH1 0x4 PUSH2 0xBE JUMP JUMPDEST PUSH2 0x2B3 JUMP JUMPDEST PUSH2 0x103 PUSH2 0x73 JUMP JUMPDEST DUP1 PUSH2 0x10D DUP2 PUSH2 0xDD JUMP JUMPDEST SUB SWAP1 RETURN JUMPDEST PUSH2 0x79 JUMP JUMPDEST PUSH1 0x0 SWAP2 SUB SLT PUSH2 0x121 JUMPI JUMP JUMPDEST PUSH2 0x7E JUMP JUMPDEST PUSH2 0x12F SWAP1 PUSH2 0x8E JUMP JUMPDEST SWAP1 MSTORE JUMP JUMPDEST SWAP2 SWAP1 PUSH2 0x147 SWAP1 PUSH1 0x0 PUSH1 0x20 DUP6 ADD SWAP5 ADD SWAP1 PUSH2 0x126 JUMP JUMPDEST JUMP JUMPDEST CALLVALUE PUSH2 0x179 JUMPI PUSH2 0x159 CALLDATASIZE PUSH1 0x4 PUSH2 0x116 JUMP JUMPDEST PUSH2 0x175 PUSH2 0x164 PUSH2 0x2F5 JUMP JUMPDEST PUSH2 0x16C PUSH2 0x73 JUMP JUMPDEST SWAP2 DUP3 SWAP2 DUP3 PUSH2 0x133 JUMP JUMPDEST SUB SWAP1 RETURN JUMPDEST PUSH2 0x79 JUMP JUMPDEST CALLVALUE PUSH2 0x1AC JUMPI PUSH2 0x18E CALLDATASIZE PUSH1 0x4 PUSH2 0x116 JUMP JUMPDEST PUSH2 0x196 PUSH2 0x35C JUMP JUMPDEST PUSH2 0x19E PUSH2 0x73 JUMP JUMPDEST DUP1 PUSH2 0x1A8 DUP2 PUSH2 0xDD JUMP JUMPDEST SUB SWAP1 RETURN JUMPDEST PUSH2 0x79 JUMP JUMPDEST CALLVALUE PUSH2 0x1E1 JUMPI PUSH2 0x1C1 CALLDATASIZE PUSH1 0x4 PUSH2 0x116 JUMP JUMPDEST PUSH2 0x1DD PUSH2 0x1CC PUSH2 0x366 JUMP JUMPDEST PUSH2 0x1D4 PUSH2 0x73 JUMP JUMPDEST SWAP2 DUP3 SWAP2 DUP3 PUSH2 0x133 JUMP JUMPDEST SUB SWAP1 RETURN JUMPDEST PUSH2 0x79 JUMP JUMPDEST CALLVALUE PUSH2 0x214 JUMPI PUSH2 0x1FE PUSH2 0x1F9 CALLDATASIZE PUSH1 0x4 PUSH2 0xBE JUMP JUMPDEST PUSH2 0x473 JUMP JUMPDEST PUSH2 0x206 PUSH2 0x73 JUMP JUMPDEST DUP1 PUSH2 0x210 DUP2 PUSH2 0xDD JUMP JUMPDEST SUB SWAP1 RETURN JUMPDEST PUSH2 0x79 JUMP JUMPDEST PUSH1 0x0 DUP1 REVERT JUMPDEST PUSH2 0x22F SWAP1 PUSH2 0x22A PUSH2 0x501 JUMP JUMPDEST PUSH2 0x268 JUMP JUMPDEST JUMP JUMPDEST SWAP1 JUMP JUMPDEST PUSH2 0x248 PUSH2 0x243 PUSH2 0x24D SWAP3 PUSH2 0x83 JUMP JUMPDEST PUSH2 0x231 JUMP JUMPDEST PUSH2 0x83 JUMP JUMPDEST SWAP1 JUMP JUMPDEST PUSH2 0x259 SWAP1 PUSH2 0x234 JUMP JUMPDEST SWAP1 JUMP JUMPDEST PUSH2 0x265 SWAP1 PUSH2 0x250 JUMP JUMPDEST SWAP1 JUMP JUMPDEST PUSH2 0x271 DUP2 PUSH2 0x61B JUMP JUMPDEST PUSH2 0x29B PUSH32 0xBC7CD75A20EE27FD9ADEBAB32041F755214DBC6BFFA90CC0225B39DA2E5C2D3B SWAP2 PUSH2 0x25C JUMP JUMPDEST SWAP1 PUSH2 0x2A4 PUSH2 0x73 JUMP JUMPDEST DUP1 PUSH2 0x2AE DUP2 PUSH2 0xDD JUMP JUMPDEST SUB SWAP1 LOG2 JUMP JUMPDEST PUSH2 0x2BC SWAP1 PUSH2 0x21E JUMP JUMPDEST JUMP JUMPDEST PUSH1 0x0 SWAP1 JUMP JUMPDEST PUSH1 0x0 SHR SWAP1 JUMP JUMPDEST PUSH1 0x1 DUP1 PUSH1 0xA0 SHL SUB AND SWAP1 JUMP JUMPDEST PUSH2 0x2E0 PUSH2 0x2E5 SWAP2 PUSH2 0x2C3 JUMP JUMPDEST PUSH2 0x2C9 JUMP JUMPDEST SWAP1 JUMP JUMPDEST PUSH2 0x2F2 SWAP1 SLOAD PUSH2 0x2D4 JUMP JUMPDEST SWAP1 JUMP JUMPDEST PUSH2 0x2FD PUSH2 0x2BE JUMP JUMPDEST POP PUSH2 0x308 PUSH1 0x1 PUSH2 0x2E8 JUMP JUMPDEST SWAP1 JUMP JUMPDEST PUSH2 0x313 PUSH2 0x501 JUMP JUMPDEST PUSH2 0x31B PUSH2 0x348 JUMP JUMPDEST JUMP JUMPDEST SWAP1 JUMP JUMPDEST PUSH2 0x334 PUSH2 0x32F PUSH2 0x339 SWAP3 PUSH2 0x31D JUMP JUMPDEST PUSH2 0x231 JUMP JUMPDEST PUSH2 0x83 JUMP JUMPDEST SWAP1 JUMP JUMPDEST PUSH2 0x345 SWAP1 PUSH2 0x320 JUMP JUMPDEST SWAP1 JUMP JUMPDEST PUSH2 0x35A PUSH2 0x355 PUSH1 0x0 PUSH2 0x33C JUMP JUMPDEST PUSH2 0x639 JUMP JUMPDEST JUMP JUMPDEST PUSH2 0x364 PUSH2 0x30B JUMP JUMPDEST JUMP JUMPDEST PUSH2 0x36E PUSH2 0x2BE JUMP JUMPDEST POP PUSH2 0x379 PUSH1 0x0 PUSH2 0x2E8 JUMP JUMPDEST SWAP1 JUMP JUMPDEST PUSH2 0x38D SWAP1 PUSH2 0x388 PUSH2 0x501 JUMP JUMPDEST PUSH2 0x442 JUMP JUMPDEST JUMP JUMPDEST PUSH1 0x20 SWAP2 DUP2 MSTORE ADD SWAP1 JUMP JUMPDEST PUSH1 0x20 PUSH32 0x6464726573730000000000000000000000000000000000000000000000000000 SWAP2 PUSH32 0x4F776E61626C653A206E6577206F776E657220697320746865207A65726F2061 PUSH1 0x0 DUP3 ADD MSTORE ADD MSTORE JUMP JUMPDEST PUSH2 0x3F3 PUSH1 0x26 PUSH1 0x40 SWAP3 PUSH2 0x38F JUMP JUMPDEST PUSH2 0x3FC DUP2 PUSH2 0x398 JUMP JUMPDEST ADD SWAP1 JUMP JUMPDEST PUSH2 0x416 SWAP1 PUSH1 0x20 DUP2 ADD SWAP1 PUSH1 0x0 DUP2 DUP4 SUB SWAP2 ADD MSTORE PUSH2 0x3E6 JUMP JUMPDEST SWAP1 JUMP JUMPDEST ISZERO PUSH2 0x420 JUMPI JUMP JUMPDEST PUSH2 0x428 PUSH2 0x73 JUMP JUMPDEST PUSH3 0x461BCD PUSH1 0xE5 SHL DUP2 MSTORE DUP1 PUSH2 0x43E PUSH1 0x4 DUP3 ADD PUSH2 0x400 JUMP JUMPDEST SUB SWAP1 REVERT JUMPDEST PUSH2 0x471 SWAP1 PUSH2 0x46C DUP2 PUSH2 0x465 PUSH2 0x45F PUSH2 0x45A PUSH1 0x0 PUSH2 0x33C JUMP JUMPDEST PUSH2 0x8E JUMP JUMPDEST SWAP2 PUSH2 0x8E JUMP JUMPDEST EQ ISZERO PUSH2 0x419 JUMP JUMPDEST PUSH2 0x639 JUMP JUMPDEST JUMP JUMPDEST PUSH2 0x47C SWAP1 PUSH2 0x37C JUMP JUMPDEST JUMP JUMPDEST PUSH1 0x0 PUSH32 0x4F776E61626C653A2063616C6C6572206973206E6F7420746865206F776E6572 SWAP2 ADD MSTORE JUMP JUMPDEST PUSH2 0x4B2 PUSH1 0x20 DUP1 SWAP3 PUSH2 0x38F JUMP JUMPDEST PUSH2 0x4BB DUP2 PUSH2 0x47E JUMP JUMPDEST ADD SWAP1 JUMP JUMPDEST PUSH2 0x4D5 SWAP1 PUSH1 0x20 DUP2 ADD SWAP1 PUSH1 0x0 DUP2 DUP4 SUB SWAP2 ADD MSTORE PUSH2 0x4A6 JUMP JUMPDEST SWAP1 JUMP JUMPDEST ISZERO PUSH2 0x4DF JUMPI JUMP JUMPDEST PUSH2 0x4E7 PUSH2 0x73 JUMP JUMPDEST PUSH3 0x461BCD PUSH1 0xE5 SHL DUP2 MSTORE DUP1 PUSH2 0x4FD PUSH1 0x4 DUP3 ADD PUSH2 0x4BF JUMP JUMPDEST SUB SWAP1 REVERT JUMPDEST PUSH2 0x52B PUSH2 0x50C PUSH2 0x366 JUMP JUMPDEST PUSH2 0x525 PUSH2 0x51F PUSH2 0x51A PUSH2 0x69A JUMP JUMPDEST PUSH2 0x8E JUMP JUMPDEST SWAP2 PUSH2 0x8E JUMP JUMPDEST EQ PUSH2 0x4D8 JUMP JUMPDEST JUMP JUMPDEST PUSH1 0x20 PUSH32 0x6E206973206E6F74206120636F6E747261637400000000000000000000000000 SWAP2 PUSH32 0x5570677261646561626C65426561636F6E3A20696D706C656D656E746174696F PUSH1 0x0 DUP3 ADD MSTORE ADD MSTORE JUMP JUMPDEST PUSH2 0x588 PUSH1 0x33 PUSH1 0x40 SWAP3 PUSH2 0x38F JUMP JUMPDEST PUSH2 0x591 DUP2 PUSH2 0x52D JUMP JUMPDEST ADD SWAP1 JUMP JUMPDEST PUSH2 0x5AB SWAP1 PUSH1 0x20 DUP2 ADD SWAP1 PUSH1 0x0 DUP2 DUP4 SUB SWAP2 ADD MSTORE PUSH2 0x57B JUMP JUMPDEST SWAP1 JUMP JUMPDEST ISZERO PUSH2 0x5B5 JUMPI JUMP JUMPDEST PUSH2 0x5BD PUSH2 0x73 JUMP JUMPDEST PUSH3 0x461BCD PUSH1 0xE5 SHL DUP2 MSTORE DUP1 PUSH2 0x5D3 PUSH1 0x4 DUP3 ADD PUSH2 0x595 JUMP JUMPDEST SUB SWAP1 REVERT JUMPDEST PUSH1 0x0 SHL SWAP1 JUMP JUMPDEST SWAP1 PUSH2 0x5EE PUSH1 0x1 DUP1 PUSH1 0xA0 SHL SUB SWAP2 PUSH2 0x5D7 JUMP JUMPDEST SWAP2 DUP2 NOT AND SWAP2 AND OR SWAP1 JUMP JUMPDEST SWAP1 JUMP JUMPDEST SWAP1 PUSH2 0x610 PUSH2 0x60B PUSH2 0x617 SWAP3 PUSH2 0x25C JUMP JUMPDEST PUSH2 0x5F8 JUMP JUMPDEST DUP3 SLOAD PUSH2 0x5DD JUMP JUMPDEST SWAP1 SSTORE JUMP JUMPDEST PUSH2 0x637 SWAP1 PUSH2 0x630 PUSH2 0x62B DUP3 PUSH2 0x6CB JUMP JUMPDEST PUSH2 0x5AE JUMP JUMPDEST PUSH1 0x1 PUSH2 0x5FB JUMP JUMPDEST JUMP JUMPDEST PUSH2 0x643 PUSH1 0x0 PUSH2 0x2E8 JUMP JUMPDEST PUSH2 0x64E DUP3 PUSH1 0x0 PUSH2 0x5FB JUMP JUMPDEST SWAP1 PUSH2 0x682 PUSH2 0x67C PUSH32 0x8BE0079C531659141344CD1FD0A4F28419497F9722A3DAAFE3B4186F6B6457E0 SWAP4 PUSH2 0x25C JUMP JUMPDEST SWAP2 PUSH2 0x25C JUMP JUMPDEST SWAP2 PUSH2 0x68B PUSH2 0x73 JUMP JUMPDEST DUP1 PUSH2 0x695 DUP2 PUSH2 0xDD JUMP JUMPDEST SUB SWAP1 LOG3 JUMP JUMPDEST PUSH2 0x6A2 PUSH2 0x2BE JUMP JUMPDEST POP CALLER SWAP1 JUMP JUMPDEST PUSH1 0x0 SWAP1 JUMP JUMPDEST SWAP1 JUMP JUMPDEST PUSH2 0x6C3 PUSH2 0x6BE PUSH2 0x6C8 SWAP3 PUSH2 0x31D JUMP JUMPDEST PUSH2 0x231 JUMP JUMPDEST PUSH2 0x6AC JUMP JUMPDEST SWAP1 JUMP JUMPDEST PUSH2 0x6D3 PUSH2 0x6A7 JUMP JUMPDEST POP EXTCODESIZE PUSH2 0x6E8 PUSH2 0x6E2 PUSH1 0x0 PUSH2 0x6AF JUMP JUMPDEST SWAP2 PUSH2 0x6AC JUMP JUMPDEST GT SWAP1 JUMP INVALID LOG2 PUSH5 0x6970667358 0x22 SLT KECCAK256 EXTCODEHASH 0xBF SWAP5 0xB3 0xAA XOR 0x2E PUSH18 0x20F7EE578F52EECCE106FBE2A323E7E4F151 SAR SWAP16 0x27 PUSH23 0x8EAD64736F6C634300081B003300000000000000000000 "
        },
        "methodIdentifiers": {
          "beacon()": "59659e90",
          "deploy(address,address,string,string,string,address,uint96,address,bytes32)": "59a347bd",
          "determineAddress(address,address,string,string,string,address,uint96,address,bytes32)": "cfcc5941",
          "owner()": "8da5cb5b",
          "renounceOwnership()": "715018a6",
          "transferOwnership(address)": "f2fde38b",
          "upgradeBeacon(address)": "1bce4583"
        }
      },
      "userdoc": {
        "events": {
          "ERC1155ItemsDeployed(address)": {
            "notice": "Event emitted when a new ERC-1155 Items proxy contract is deployed."
          }
        },
        "kind": "user",
        "methods": {
          "constructor": {
            "notice": "Creates an ERC-1155 Items Factory."
          },
          "deploy(address,address,string,string,string,address,uint96,address,bytes32)": {
            "notice": "Creates an ERC-1155 Items proxy."
          },
          "determineAddress(address,address,string,string,string,address,uint96,address,bytes32)": {
            "notice": "Computes the address of a proxy instance."
          },
          "upgradeBeacon(address)": {
            "notice": "Upgrades the beacon implementation."
          }
        },
        "notice": "Deployer of ERC-1155 Items proxies.",
        "version": 1
      }
    }
  }
}