{
	"src/tokens/ERC1155/presets/items/ERC1155ItemsFactory.sol": {
		"ERC1155ItemsFactory": {
			"abi": [
				{
					"inputs": [
						{
							"internalType": "address",
							"name": "factoryOwner",
							"type": "address"
						}
					],
					"stateMutability": "nonpayable",
					"type": "constructor"
				},
				{
					"anonymous": false,
					"inputs": [
						{
							"indexed": false,
							"internalType": "address",
							"name": "proxyAddr",
							"type": "address"
						}
					],
					"name": "ERC1155ItemsDeployed",
					"type": "event"
				},
				{
					"anonymous": false,
					"inputs": [
						{
							"indexed": true,
							"internalType": "address",
							"name": "previousOwner",
							"type": "address"
						},
						{
							"indexed": true,
							"internalType": "address",
							"name": "newOwner",
							"type": "address"
						}
					],
					"name": "OwnershipTransferred",
					"type": "event"
				},
				{
					"inputs": [],
					"name": "beacon",
					"outputs": [
						{
							"internalType": "contract UpgradeableBeacon",
							"name": "",
							"type": "address"
						}
					],
					"stateMutability": "view",
					"type": "function"
				},
				{
					"inputs": [
						{
							"internalType": "address",
							"name": "proxyOwner",
							"type": "address"
						},
						{
							"internalType": "address",
							"name": "tokenOwner",
							"type": "address"
						},
						{
							"internalType": "string",
							"name": "name",
							"type": "string"
						},
						{
							"internalType": "string",
							"name": "baseURI",
							"type": "string"
						},
						{
							"internalType": "string",
							"name": "contractURI",
							"type": "string"
						},
						{
							"internalType": "address",
							"name": "royaltyReceiver",
							"type": "address"
						},
						{
							"internalType": "uint96",
							"name": "royaltyFeeNumerator",
							"type": "uint96"
						}
					],
					"name": "deploy",
					"outputs": [
						{
							"internalType": "address",
							"name": "proxyAddr",
							"type": "address"
						}
					],
					"stateMutability": "nonpayable",
					"type": "function"
				},
				{
					"inputs": [],
					"name": "owner",
					"outputs": [
						{
							"internalType": "address",
							"name": "",
							"type": "address"
						}
					],
					"stateMutability": "view",
					"type": "function"
				},
				{
					"inputs": [],
					"name": "renounceOwnership",
					"outputs": [],
					"stateMutability": "nonpayable",
					"type": "function"
				},
				{
					"inputs": [
						{
							"internalType": "address",
							"name": "newOwner",
							"type": "address"
						}
					],
					"name": "transferOwnership",
					"outputs": [],
					"stateMutability": "nonpayable",
					"type": "function"
				},
				{
					"inputs": [
						{
							"internalType": "address",
							"name": "implementation",
							"type": "address"
						}
					],
					"name": "upgradeBeacon",
					"outputs": [],
					"stateMutability": "nonpayable",
					"type": "function"
				}
			],
			"devdoc": {
				"events": {
					"ERC1155ItemsDeployed(address)": {
						"params": {
							"proxyAddr": "The address of the deployed proxy."
						}
					}
				},
				"kind": "dev",
				"methods": {
					"constructor": {
						"params": {
							"factoryOwner": "The owner of the ERC-1155 Items Factory"
						}
					},
					"deploy(address,address,string,string,string,address,uint96)": {
						"params": {
							"baseURI": "The base URI of the ERC-1155 Items proxy",
							"contractURI": "The contract URI of the ERC-1155 Items proxy",
							"name": "The name of the ERC-1155 Items proxy",
							"proxyOwner": "The owner of the ERC-1155 Items proxy",
							"royaltyFeeNumerator": "The royalty fee numerator in basis points (e.g. 15% would be 1500)",
							"royaltyReceiver": "Address of who should be sent the royalty payment",
							"tokenOwner": "The owner of the ERC-1155 Items implementation"
						},
						"returns": {
							"proxyAddr": "The address of the ERC-1155 Items Proxy"
						}
					},
					"owner()": {
						"details": "Returns the address of the current owner."
					},
					"renounceOwnership()": {
						"details": "Leaves the contract without owner. It will not be possible to call `onlyOwner` functions. Can only be called by the current owner. NOTE: Renouncing ownership will leave the contract without an owner, thereby disabling any functionality that is only available to the owner."
					},
					"transferOwnership(address)": {
						"details": "Transfers ownership of the contract to a new account (`newOwner`). Can only be called by the current owner."
					},
					"upgradeBeacon(address)": {
						"params": {
							"implementation": "The new beacon implementation."
						}
					}
				},
				"version": 1
			},
			"evm": {
				"bytecode": {
					"linkReferences": {},
					"object": "608034610121576001600160401b0390601f61651238819003918201601f191683019291908484118385101761010b57816020928492604096875283398101031261012157516001600160a01b0380821682036101215761005f33610126565b82519361416594858101958187108388111761010b576123ad823980600096039086f0908115610101578451916105ee808401928311848410176100ed5791848492602094611dbf853916815203019085f080156100e0576100d39394501660018060a01b03196001541617600155610126565b51611c51908161016e8239f35b50505051903d90823e3d90fd5b634e487b7160e01b88526041600452602488fd5b84513d87823e3d90fd5b634e487b7160e01b600052604160045260246000fd5b600080fd5b600080546001600160a01b039283166001600160a01b03198216811783559216907f8be0079c531659141344cd1fd0a4f28419497f9722a3daafe3b4186f6b6457e09080a356fe6040608081526004908136101561001557600080fd5b600091823560e01c80631bce4583146106fd57806338234f4d146102e757806359659e9014610294578063715018a6146101f45780638da5cb5b1461019f5763f2fde38b1461006357600080fd5b3461019b5760207ffffffffffffffffffffffffffffffffffffffffffffffffffffffffffffffffc36011261019b5761009a6107bc565b906100a36108d8565b73ffffffffffffffffffffffffffffffffffffffff809216928315610118575050600054827fffffffffffffffffffffffff0000000000000000000000000000000000000000821617600055167f8be0079c531659141344cd1fd0a4f28419497f9722a3daafe3b4186f6b6457e0600080a380f35b90602060849251917f08c379a0000000000000000000000000000000000000000000000000000000008352820152602660248201527f4f776e61626c653a206e6577206f776e657220697320746865207a65726f206160448201527f64647265737300000000000000000000000000000000000000000000000000006064820152fd5b8280fd5b5050346101f057817ffffffffffffffffffffffffffffffffffffffffffffffffffffffffffffffffc3601126101f05773ffffffffffffffffffffffffffffffffffffffff60209254169051908152f35b5080fd5b833461029157807ffffffffffffffffffffffffffffffffffffffffffffffffffffffffffffffffc3601126102915761022b6108d8565b600073ffffffffffffffffffffffffffffffffffffffff81547fffffffffffffffffffffffff000000000000000000000000000000000000000081168355167f8be0079c531659141344cd1fd0a4f28419497f9722a3daafe3b4186f6b6457e08280a380f35b80fd5b5050346101f057817ffffffffffffffffffffffffffffffffffffffffffffffffffffffffffffffffc3601126101f05760209073ffffffffffffffffffffffffffffffffffffffff600154169051908152f35b50903461019b5760e07ffffffffffffffffffffffffffffffffffffffffffffffffffffffffffffffffc36011261019b576103206107bc565b906024359373ffffffffffffffffffffffffffffffffffffffff9485811681036106ec5767ffffffffffffffff946044358681116106f9576103659036908301610863565b956064358181116106f55761037d9036908401610863565b6084358281116106f1576103949036908501610863565b60a435918a831683036106ec5760c435936bffffffffffffffffffffffff851685036105df578a9b899a9b9899519160209d838f948b8a8a8a8a8a8601976103dc95896109bd565b037fffffffffffffffffffffffffffffffffffffffffffffffffffffffffffffffe08101825261040c9082610822565b519020908c5193840190848210908211176106be576104948f8f908f938f926068938287528952600154865196879485019889527fffffffffffffffffffffffffffffffffffffffff000000000000000000000000809360601b169085015260601b1660548301526104848851809285850190610957565b8101036048810184520182610822565b5190208b516111eb908f6104aa83820183610822565b828252810191610a31833980511561066157518392918df5169b8c15610605578160015416928d3b15610601578b92838f92938f8c9561052a9151988997889687957fcf7a1d770000000000000000000000000000000000000000000000000000000087521690850152602484015260606044840152606483019061097a565b03925af180156105f7579089916105e3575b5050893b156105df57918795949391610580938a5198899788977ff895481800000000000000000000000000000000000000000000000000000000895288016109bd565b038183885af180156105d5576105c1575b50507f28a530eb465a41faf2a923830d2cd4e0301e87b2cddc112bda1a86048c3a54b2838251848152a151908152f35b6105cb82916107df565b6102915780610591565b83513d84823e3d90fd5b8780fd5b6105ec906107df565b6105df57873861053c565b8a513d8b823e3d90fd5b8b80fd5b6064888f8e51917f08c379a0000000000000000000000000000000000000000000000000000000008352820152601960248201527f437265617465323a204661696c6564206f6e206465706c6f79000000000000006044820152fd5b50506064888f808f51927f08c379a000000000000000000000000000000000000000000000000000000000845283015260248201527f437265617465323a2062797465636f6465206c656e677468206973207a65726f6044820152fd5b6041897f4e487b71000000000000000000000000000000000000000000000000000000006000525260246000fd5b600080fd5b8580fd5b8480fd5b8380fd5b50903461019b5760207ffffffffffffffffffffffffffffffffffffffffffffffffffffffffffffffffc36011261019b57826107376107bc565b61073f6108d8565b73ffffffffffffffffffffffffffffffffffffffff90816001541690813b156106f95783602492865197889586947f3659cfe600000000000000000000000000000000000000000000000000000000865216908401525af19081156107b357506107a7575080f35b6107b0906107df565b80f35b513d84823e3d90fd5b6004359073ffffffffffffffffffffffffffffffffffffffff821682036106ec57565b67ffffffffffffffff81116107f357604052565b7f4e487b7100000000000000000000000000000000000000000000000000000000600052604160045260246000fd5b90601f7fffffffffffffffffffffffffffffffffffffffffffffffffffffffffffffffe0910116810190811067ffffffffffffffff8211176107f357604052565b81601f820112156106ec5780359067ffffffffffffffff82116107f357604051926108b660207fffffffffffffffffffffffffffffffffffffffffffffffffffffffffffffffe0601f8601160185610822565b828452602083830101116106ec57816000926020809301838601378301015290565b73ffffffffffffffffffffffffffffffffffffffff6000541633036108f957565b60646040517f08c379a000000000000000000000000000000000000000000000000000000000815260206004820152602060248201527f4f776e61626c653a2063616c6c6572206973206e6f7420746865206f776e65726044820152fd5b60005b83811061096a5750506000910152565b818101518382015260200161095a565b907fffffffffffffffffffffffffffffffffffffffffffffffffffffffffffffffe0601f6020936109b681518092818752878088019101610957565b0116010190565b9496959160a094610a156bffffffffffffffffffffffff95610a07610a239473ffffffffffffffffffffffffffffffffffffffff8097168b5260c060208c015260c08b019061097a565b9089820360408b015261097a565b90878203606089015261097a565b961660808501521691015256fe60808060405234610016576111cf908161001c8239f35b600080fdfe604060808152366103825773ffffffffffffffffffffffffffffffffffffffff807fb53127684a568b3173ae13b9f8a6016e243e63b6e8ee1178d6a717850b5d61035416158015610b94576000917fcf7a1d77000000000000000000000000000000000000000000000000000000007fffffffff00000000000000000000000000000000000000000000000000000000843516146100c057600484517ff92ee8a9000000000000000000000000000000000000000000000000000000008152fd5b6100c8611192565b60049136831161037e5760607ffffffffffffffffffffffffffffffffffffffffffffffffffffffffffffffffc36011261037e578235916101088361067f565b602435926101158461067f565b60443567ffffffffffffffff811161037a57610135839136908801610789565b941692156103525761014791166107e3565b803b156102cf578451907f5c60da1b000000000000000000000000000000000000000000000000000000009384835260209687848381865afa9384156102a657889461019d9189916102b2575b503b1515610926565b7fa3f0ad74e5423aebfd80d3ef4346578335a9a72aeaee59ff6cb3582b35133d5080547fffffffffffffffffffffffff00000000000000000000000000000000000000001673ffffffffffffffffffffffffffffffffffffffff85161790555194827f1cf3b03a6cf19fa2baba4df148e9dcabedea7f8a5c07840e207e5c089be95d3e8880a28451158015906102ab575b610242575b8361023c6107d0565b80519101f35b8592839182525afa9182156102a65761026a9392610277575b506102646109b1565b91610a21565b5038808083818080610233565b610298919250843d861161029f575b610290818361070e565b810190610902565b903861025b565b503d610286565b61091a565b508661022e565b6102c99150863d881161029f57610290818361070e565b38610194565b60848360208751917f08c379a0000000000000000000000000000000000000000000000000000000008352820152602560248201527f455243313936373a206e657720626561636f6e206973206e6f74206120636f6e60448201527f74726163740000000000000000000000000000000000000000000000000000006064820152fd5b8487517ff92ee8a9000000000000000000000000000000000000000000000000000000008152fd5b8680fd5b8380fd5b73ffffffffffffffffffffffffffffffffffffffff807fb53127684a568b3173ae13b9f8a6016e243e63b6e8ee1178d6a717850b5d61035416158015610b94576000907fcf7a1d77000000000000000000000000000000000000000000000000000000007fffffffff00000000000000000000000000000000000000000000000000000000833516146104395760046040517ff92ee8a9000000000000000000000000000000000000000000000000000000008152fd5b610441611192565b60049236841161067b5760607ffffffffffffffffffffffffffffffffffffffffffffffffffffffffffffffffc36011261067b5783356104808161067f565b6024359161048d8361067f565b60443567ffffffffffffffff8111610677576104ad829136908901610789565b9316931561064e576104bf91166107e3565b813b156105ca576040517f5c60da1b000000000000000000000000000000000000000000000000000000009283825260209586838281855afa9283156102a65787936105149188916105b357503b1515610926565b7fa3f0ad74e5423aebfd80d3ef4346578335a9a72aeaee59ff6cb3582b35133d5080547fffffffffffffffffffffffff00000000000000000000000000000000000000001673ffffffffffffffffffffffffffffffffffffffff841617905560405194827f1cf3b03a6cf19fa2baba4df148e9dcabedea7f8a5c07840e207e5c089be95d3e8880a28451158015906102ab57610242578361023c6107d0565b6102c99150853d871161029f57610290818361070e565b6084846020604051917f08c379a0000000000000000000000000000000000000000000000000000000008352820152602560248201527f455243313936373a206e657720626561636f6e206973206e6f74206120636f6e60448201527f74726163740000000000000000000000000000000000000000000000000000006064820152fd5b856040517ff92ee8a9000000000000000000000000000000000000000000000000000000008152fd5b8580fd5b8280fd5b73ffffffffffffffffffffffffffffffffffffffff81160361069d57565b600080fd5b7f4e487b7100000000000000000000000000000000000000000000000000000000600052604160045260246000fd5b6020810190811067ffffffffffffffff8211176106ed57604052565b6106a2565b6040810190811067ffffffffffffffff8211176106ed57604052565b90601f7fffffffffffffffffffffffffffffffffffffffffffffffffffffffffffffffe0910116810190811067ffffffffffffffff8211176106ed57604052565b67ffffffffffffffff81116106ed57601f017fffffffffffffffffffffffffffffffffffffffffffffffffffffffffffffffe01660200190565b81601f8201121561069d578035906107a08261074f565b926107ae604051948561070e565b8284526020838301011161069d57816000926020809301838601378301015290565b604051906107dd826106d1565b60008252565b7fb53127684a568b3173ae13b9f8a6016e243e63b6e8ee1178d6a717850b5d61039081547f7e644d79422f17c01e4894b5f4f588d331ebfa28653d42ae832dc59e38c9798f604080519373ffffffffffffffffffffffffffffffffffffffff9081851686521693846020820152a1811561087e577fffffffffffffffffffffffff000000000000000000000000000000000000000016179055565b60846040517f08c379a000000000000000000000000000000000000000000000000000000000815260206004820152602660248201527f455243313936373a206e65772061646d696e20697320746865207a65726f206160448201527f64647265737300000000000000000000000000000000000000000000000000006064820152fd5b9081602091031261069d57516109178161067f565b90565b6040513d6000823e3d90fd5b1561092d57565b60846040517f08c379a000000000000000000000000000000000000000000000000000000000815260206004820152603060248201527f455243313936373a20626561636f6e20696d706c656d656e746174696f6e206960448201527f73206e6f74206120636f6e7472616374000000000000000000000000000000006064820152fd5b604051906060820182811067ffffffffffffffff8211176106ed57604052602782527f206661696c6564000000000000000000000000000000000000000000000000006040837f416464726573733a206c6f772d6c6576656c2064656c65676174652063616c6c60208201520152565b6000806109179493602081519101845af43d15610a60573d91610a438361074f565b92610a51604051948561070e565b83523d6000602085013e610acd565b606091610acd565b15610a6f57565b60646040517f08c379a000000000000000000000000000000000000000000000000000000000815260206004820152601d60248201527f416464726573733a2063616c6c20746f206e6f6e2d636f6e74726163740000006044820152fd5b91929015610aed5750815115610ae1575090565b610917903b1515610a68565b825190915015610b005750805190602001fd5b604051907f08c379a000000000000000000000000000000000000000000000000000000000825281602080600483015282519283602484015260005b848110610b7d575050507fffffffffffffffffffffffffffffffffffffffffffffffffffffffffffffffe0601f836000604480968601015201168101030190fd5b818101830151868201604401528593508201610b3c565b610bee610bd57fb53127684a568b3173ae13b9f8a6016e243e63b6e8ee1178d6a717850b5d61035473ffffffffffffffffffffffffffffffffffffffff1690565b73ffffffffffffffffffffffffffffffffffffffff1690565b3303610d14576000357fffffffff00000000000000000000000000000000000000000000000000000000167f3659cfe6000000000000000000000000000000000000000000000000000000008103610c515750610c49610f0f565b602081519101f35b7f4f1ef286000000000000000000000000000000000000000000000000000000008103610c865750610c81611083565b610c49565b7f8f283970000000000000000000000000000000000000000000000000000000008103610cb65750610c81610ec5565b7ff851a440000000000000000000000000000000000000000000000000000000008103610ce65750610c81610dfd565b7f5c60da1b0000000000000000000000000000000000000000000000000000000003610d1457610c81610e53565b610d1c610d3b565b6000808092368280378136915af43d82803e15610d37573d90f35b3d90fd5b73ffffffffffffffffffffffffffffffffffffffff807f360894a13ba1a3210667c828492db98dca3e2076cc3735a920a3ca505d382bbc541680610df8575060206004917fa3f0ad74e5423aebfd80d3ef4346578335a9a72aeaee59ff6cb3582b35133d505416604051928380927f5c60da1b0000000000000000000000000000000000000000000000000000000082525afa9081156102a657600091610de0575090565b610917915060203d811161029f57610290818361070e565b905090565b610e05611192565b73ffffffffffffffffffffffffffffffffffffffff7fb53127684a568b3173ae13b9f8a6016e243e63b6e8ee1178d6a717850b5d6103541660405190602082015260208152610917816106f2565b610e5b611192565b610e63610d3b565b73ffffffffffffffffffffffffffffffffffffffff6040519116602082015260208152610917816106f2565b7ffffffffffffffffffffffffffffffffffffffffffffffffffffffffffffffffc602091011261069d576004356109178161067f565b610ecd611192565b3660041161069d57610efc73ffffffffffffffffffffffffffffffffffffffff610ef636610e8f565b166107e3565b604051610f08816106d1565b6000815290565b610f17611192565b3660041161069d5773ffffffffffffffffffffffffffffffffffffffff610f3d36610e8f565b1660405190610f4b826106d1565b60008252803b15610fff577f360894a13ba1a3210667c828492db98dca3e2076cc3735a920a3ca505d382bbc817fffffffffffffffffffffffff0000000000000000000000000000000000000000825416179055807fbc7cd75a20ee27fd9adebab32041f755214dbc6bffa90cc0225b39da2e5c2d3b600080a2815115801590610ff7575b610fe3575b5050604051610f08816106d1565b610fef916102646109b1565b503880610fd5565b506000610fd0565b60846040517f08c379a000000000000000000000000000000000000000000000000000000000815260206004820152602d60248201527f455243313936373a206e657720696d706c656d656e746174696f6e206973206e60448201527f6f74206120636f6e7472616374000000000000000000000000000000000000006064820152fd5b3660041161069d5760407ffffffffffffffffffffffffffffffffffffffffffffffffffffffffffffffffc36011261069d576004356110c18161067f565b60243567ffffffffffffffff811161069d576110f673ffffffffffffffffffffffffffffffffffffffff913690600401610789565b9116803b15610fff577f360894a13ba1a3210667c828492db98dca3e2076cc3735a920a3ca505d382bbc817fffffffffffffffffffffffff0000000000000000000000000000000000000000825416179055807fbc7cd75a20ee27fd9adebab32041f755214dbc6bffa90cc0225b39da2e5c2d3b600080a281511580159061118a57610fe3575050604051610f08816106d1565b506001610fd0565b3461069d5756fea26469706673582212205afdfcf2db2f242d1c90fc4524ff1841da37419738805ee0571bd2744b6196ce64736f6c63430008130033a2646970667358221220cc1f17ef081ba9f042dbb30aeee84c8d1afa731998ed555149f6ae73892b120264736f6c6343000813003360803461011a57601f6105ee38819003918201601f19168301916001600160401b0383118484101761011f5780849260209460405283398101031261011a57516001600160a01b03808216919082820361011a576000549160018060a01b0319923384821617600055604051923391167f8be0079c531659141344cd1fd0a4f28419497f9722a3daafe3b4186f6b6457e0600080a33b156100b2575060015416176001556040516104b890816101368239f35b62461bcd60e51b815260206004820152603360248201527f5570677261646561626c65426561636f6e3a20696d706c656d656e746174696f60448201527f6e206973206e6f74206120636f6e7472616374000000000000000000000000006064820152608490fd5b600080fd5b634e487b7160e01b600052604160045260246000fdfe6080604052600436101561001257600080fd5b6000803560e01c80633659cfe6146102ce5780635c60da1b1461027c578063715018a6146101e05780638da5cb5b1461018f5763f2fde38b1461005457600080fd5b3461018c5760207ffffffffffffffffffffffffffffffffffffffffffffffffffffffffffffffffc36011261018c5760043573ffffffffffffffffffffffffffffffffffffffff808216809203610188576100ad610403565b8115610104578254827fffffffffffffffffffffffff00000000000000000000000000000000000000008216178455167f8be0079c531659141344cd1fd0a4f28419497f9722a3daafe3b4186f6b6457e08380a380f35b60846040517f08c379a000000000000000000000000000000000000000000000000000000000815260206004820152602660248201527f4f776e61626c653a206e6577206f776e657220697320746865207a65726f206160448201527f64647265737300000000000000000000000000000000000000000000000000006064820152fd5b8280fd5b80fd5b503461018c57807ffffffffffffffffffffffffffffffffffffffffffffffffffffffffffffffffc36011261018c5773ffffffffffffffffffffffffffffffffffffffff6020915416604051908152f35b503461018c57807ffffffffffffffffffffffffffffffffffffffffffffffffffffffffffffffffc36011261018c57610217610403565b8073ffffffffffffffffffffffffffffffffffffffff81547fffffffffffffffffffffffff000000000000000000000000000000000000000081168355167f8be0079c531659141344cd1fd0a4f28419497f9722a3daafe3b4186f6b6457e08280a380f35b503461018c57807ffffffffffffffffffffffffffffffffffffffffffffffffffffffffffffffffc36011261018c57602073ffffffffffffffffffffffffffffffffffffffff60015416604051908152f35b503461018c5760207ffffffffffffffffffffffffffffffffffffffffffffffffffffffffffffffffc36011261018c5760043573ffffffffffffffffffffffffffffffffffffffff81169081810361018857610328610403565b3b1561037f57807fffffffffffffffffffffffff000000000000000000000000000000000000000060015416176001557fbc7cd75a20ee27fd9adebab32041f755214dbc6bffa90cc0225b39da2e5c2d3b8280a280f35b60846040517f08c379a000000000000000000000000000000000000000000000000000000000815260206004820152603360248201527f5570677261646561626c65426561636f6e3a20696d706c656d656e746174696f60448201527f6e206973206e6f74206120636f6e7472616374000000000000000000000000006064820152fd5b73ffffffffffffffffffffffffffffffffffffffff60005416330361042457565b60646040517f08c379a000000000000000000000000000000000000000000000000000000000815260206004820152602060248201527f4f776e61626c653a2063616c6c6572206973206e6f7420746865206f776e65726044820152fdfea2646970667358221220ee02a7cc9adae68564feda64934170f02f3f12a55b74647721baba4fb366157164736f6c6343000813003360a060405234620002ec5762000014620002f1565b6200001e620002f1565b815190916001600160401b0390818311620001ed576005938454916001948584811c9416918215620002e1575b60209283861014620002cb578190601f9586811162000277575b5083908683116001146200020f5760009262000203575b5050600019600383901b1c191690861b1786555b8151938411620001ed576004958654908682811c92168015620001e2575b83831014620001cd5784821162000184575b5050809284116001146200011957509282939183926000946200010d575b50501b916000199060031b1c19161790555b33608052604051613e4f90816200031682396080518161024b0152f35b015192503880620000de565b919083601f1981168760005284600020946000905b888383106200016957505050106200014f575b505050811b019055620000f0565b015160001960f88460031b161c1916905538808062000141565b8587015188559096019594850194879350908101906200012e565b87600052826000209085808801821c830193858910620001c3575b01901c019086905b828110620001b65750620000c0565b60008155018690620001a7565b935082936200019f565b602288634e487b7160e01b6000525260246000fd5b91607f1691620000ae565b634e487b7160e01b600052604160045260246000fd5b0151905038806200007c565b90889350601f198316918a600052856000209260005b8782821062000260575050841162000246575b505050811b01865562000090565b015160001960f88460031b161c1916905538808062000238565b8385015186558c9790950194938401930162000225565b9091508860005283600020868085018b1c820192868610620002c1575b918a9186959493018c1c01915b828110620002b157505062000065565b600081558594508a9101620002a1565b9250819262000294565b634e487b7160e01b600052602260045260246000fd5b93607f16936200004b565b600080fd5b60405190602082016001600160401b03811183821017620001ed576040526000825256fe608080604052600436101561001357600080fd5b60003560e01c908162fdd58e14612a7e5750806301ffc9a7146129df57806304634d8d1461299d57806306fdde03146128f75780630b5ee0061461277e5780630e89341c1461261857806318160ddd146125fa57806320ec271b146124c1578063248a9ca3146124925780632693ebf2146124665780632a55205a146123835780632eb2c2d614611ebf5780632f2ff15d14611dcb57806336568abe14611d055780634e1273f414611b165780635944c753146119f85780636c0360eb14611952578063731133e9146118005780637e518ec8146116865780639010d07c1461163357806391d14854146115d8578063938e3d7b1461145e578063a217fddf14611442578063a22cb46514611391578063b390c0ab14611302578063b48ab8b614610ff0578063ca15c87314610fc4578063d547741f14610f83578063e8a3d48514610e7f578063e985e9c514610e1b578063f242432a14610a8f5763f89548181461017e57600080fd5b34610a8a5760c0600319360112610a8a57610197612ace565b60243567ffffffffffffffff8111610a8a576101b7903690600401612c26565b9060443567ffffffffffffffff8111610a8a576101d8903690600401612c26565b9060643567ffffffffffffffff8111610a8a576101f9903690600401612c26565b9073ffffffffffffffffffffffffffffffffffffffff6084351660843503610a8a576bffffffffffffffffffffffff60a4351660a43503610a8a5773ffffffffffffffffffffffffffffffffffffffff7f0000000000000000000000000000000000000000000000000000000000000000163314801590610a7e575b610a5457835167ffffffffffffffff81116107ff57610295600554612b14565b601f81116109b1575b50602094601f821160011461092d57948192939495600092610922575b50506000198260011b9260031b1c1916176005555b825167ffffffffffffffff81116107ff576102ec600454612b14565b601f81116108bd575b506020601f8211600114610839578192939460009261082e575b50506000198260011b9260031b1c1916176004555b81519167ffffffffffffffff83116107ff57610341600a54612b14565b601f811161079a575b50602090601f84116001146107115761051c939160009183610706575b50506000198260011b9260031b1c191617600a555b73ffffffffffffffffffffffffffffffffffffffff1660008181527f5eff886ea0ce6ca488a3d6e336d6c0f75f46d19b42c06ce5ee98e42c96d256c7602052604090205460089060ff1615610697575b6000805260096020526103ff827fec8156718a8372b1db44bb411437d0870f3e3790d4a08526d024ce1b0b668f6b613809565b507f6db4061a20ca83a3be756ee172bd37a029093ac5afe4ce968c6d5435b43cb011806000528160205260406000208360005260205260ff6040600020541615610628575b600052600960205261045a826040600020613809565b507fe02a0315b383857ac496e9d2b2546a699afaeb4e5e83a1fdef64376d0b74e5a5806000528160205260406000208360005260205260ff60406000205416156105b9575b60005260096020526104b5826040600020613809565b506104c460a435608435613a72565b7f9f2df0fed2c77648de5860a4cc508cd0818c85b8b8a1ab4ceeef8d981c8956a690816000528060205260406000208360005260205260ff604060002054161561054a575b5060005260096020526040600020613809565b50600b80547fffffffffffffffffffffffffffffffffffffffffffffffffffffffffffffff00166001179055005b81600052602052604060002082600052602052604060002060017fffffffffffffffffffffffffffffffffffffffffffffffffffffffffffffff008254161790553382827f2f8788117e7eff1d82e926ec794901d17c78024a50270940304540a733656f0d600080a438610509565b8060005281602052604060002083600052602052604060002060017fffffffffffffffffffffffffffffffffffffffffffffffffffffffffffffff008254161790553383827f2f8788117e7eff1d82e926ec794901d17c78024a50270940304540a733656f0d600080a461049f565b8060005281602052604060002083600052602052604060002060017fffffffffffffffffffffffffffffffffffffffffffffffffffffffffffffff008254161790553383827f2f8788117e7eff1d82e926ec794901d17c78024a50270940304540a733656f0d600080a4610444565b6000805280602052604060002082600052602052604060002060017fffffffffffffffffffffffffffffffffffffffffffffffffffffffffffffff00825416179055338260007f2f8788117e7eff1d82e926ec794901d17c78024a50270940304540a733656f0d8180a46103cc565b015190503880610367565b90601f19841691600a6000527fc65a7bb8d6351c1cf70c95a316cc6a92839c986682d98bc35f958f4883f9d2a89260005b818110610782575091600193918661051c979410610769575b505050811b01600a5561037c565b015160001960f88460031b161c1916905538808061075b565b92936020600181928786015181550195019301610742565b600a6000527fc65a7bb8d6351c1cf70c95a316cc6a92839c986682d98bc35f958f4883f9d2a8601f850160051c810191602086106107f5575b601f0160051c01905b8181106107e9575061034a565b600081556001016107dc565b90915081906107d3565b7f4e487b7100000000000000000000000000000000000000000000000000000000600052604160045260246000fd5b01519050388061030f565b601f1982169060046000527f8a35acfbc15ff81a39ae7d344fd709f28e8600b4aa8c65c6b64bfe7fe36bd19b9160005b8181106108a55750958360019596971061088c575b505050811b01600455610324565b015160001960f88460031b161c1916905538808061087e565b9192602060018192868b015181550194019201610869565b60046000527f8a35acfbc15ff81a39ae7d344fd709f28e8600b4aa8c65c6b64bfe7fe36bd19b601f830160051c81019160208410610918575b601f0160051c01905b81811061090c57506102f5565b600081556001016108ff565b90915081906108f6565b0151905038806102bb565b601f1982169560056000527f036b6384b5eca791c62761152d0c79bb0604c104a5fb6f4eb0703f3154bb3db09160005b88811061099957508360019596979810610980575b505050811b016005556102d0565b015160001960f88460031b161c19169055388080610972565b9192602060018192868501518155019401920161095d565b6005600052601f820160051c7f036b6384b5eca791c62761152d0c79bb0604c104a5fb6f4eb0703f3154bb3db0019060208310610a2c575b601f0160051c7f036b6384b5eca791c62761152d0c79bb0604c104a5fb6f4eb0703f3154bb3db001905b818110610a20575061029e565b60008155600101610a13565b7f036b6384b5eca791c62761152d0c79bb0604c104a5fb6f4eb0703f3154bb3db091506109e9565b60046040517ff92ee8a9000000000000000000000000000000000000000000000000000000008152fd5b5060ff600b5416610275565b600080fd5b34610a8a5760a0600319360112610a8a57610aa8612ace565b610ab0612af1565b906044356064359260843567ffffffffffffffff8111610a8a57610ad8903690600401612c26565b73ffffffffffffffffffffffffffffffffffffffff809416938433148015610df7575b15610d73578216918215610cef57846000526020956000875260406000208560005287526040600020610b2f828254612d2d565b9055836000526000875260406000208560005287526040600020610b54828254612d3a565b90558386604051878152838a8201527fc3d58168c5ae7397731d063d5bbf3d657854427343f4c083240f7aacaa2d0f6260403392a4610b935a92612f17565b610b9957005b60008794610bf696604051978896879586937ff23a6e61000000000000000000000000000000000000000000000000000000009c8d865233600487015260248601526044850152606484015260a0608484015260a4830190612be5565b0393f18015610ce3577fffffffff0000000000000000000000000000000000000000000000000000000091600091610cb6575b501603610c3257005b608490604051907f08c379a00000000000000000000000000000000000000000000000000000000082526004820152603a60248201527f45524331313535235f63616c6c6f6e4552433131353552656365697665643a2060448201527f494e56414c49445f4f4e5f524543454956455f4d4553534147450000000000006064820152fd5b610cd69150843d8611610cdc575b610cce8183612b9f565b810190612d47565b84610c29565b503d610cc4565b6040513d6000823e3d90fd5b60846040517f08c379a000000000000000000000000000000000000000000000000000000000815260206004820152602b60248201527f4552433131353523736166655472616e7366657246726f6d3a20494e56414c4960448201527f445f524543495049454e540000000000000000000000000000000000000000006064820152fd5b60846040517f08c379a000000000000000000000000000000000000000000000000000000000815260206004820152602a60248201527f4552433131353523736166655472616e7366657246726f6d3a20494e56414c4960448201527f445f4f50455241544f52000000000000000000000000000000000000000000006064820152fd5b5084600052600160205260406000203360005260205260ff60406000205416610afb565b34610a8a576040600319360112610a8a57610e34612ace565b610e3c612af1565b9073ffffffffffffffffffffffffffffffffffffffff809116600052600160205260406000209116600052602052602060ff604060002054166040519015158152f35b34610a8a576000600319360112610a8a576040516000600a54610ea181612b14565b80845290600190818116908115610f3e5750600114610ee3575b610edf84610ecb81860382612b9f565b604051918291602083526020830190612be5565b0390f35b600a600090815292507fc65a7bb8d6351c1cf70c95a316cc6a92839c986682d98bc35f958f4883f9d2a85b828410610f26575050508101602001610ecb82610ebb565b80546020858701810191909152909301928101610f0e565b7fffffffffffffffffffffffffffffffffffffffffffffffffffffffffffffff001660208087019190915292151560051b85019092019250610ecb9150839050610ebb565b34610a8a576040600319360112610a8a57610fc2600435610fa2612af1565b90806000526008602052610fbd6001604060002001546134b6565b6135d4565b005b34610a8a576020600319360112610a8a5760043560005260096020526020604060002054604051908152f35b34610a8a57600319608081360112610a8a5761100a612ace565b9067ffffffffffffffff602435818111610a8a5761102c903690600401612c85565b92604435828111610a8a57611045903690600401612c85565b91606435908111610a8a5761105e903690600401612c26565b9061106761335e565b8451835181036112d85760008073ffffffffffffffffffffffffffffffffffffffff8416925b80831061124557506110a29150600254612d3a565b6002558060006040517f4a39dc06d4c0dbc64b70af90fd698a233a518aa5d07e595d983b8c0526c8f7fb3391806110da8a8d83612dd1565b0390a46110e75a92612f17565b6110ed57005b600061115891602095611167604051988997889687946111487fbc197c81000000000000000000000000000000000000000000000000000000009e8f885233600489015289602489015260a0604489015260a4880190612cf9565b9084878303016064880152612cf9565b91848303016084850152612be5565b0393f18015610ce3577fffffffff0000000000000000000000000000000000000000000000000000000091600091611227575b5016036111a357005b60846040517f08c379a000000000000000000000000000000000000000000000000000000000815260206004820152603f60248201527f45524331313535235f63616c6c6f6e455243313135354261746368526563656960448201527f7665643a20494e56414c49445f4f4e5f524543454956455f4d455353414745006064820152fd5b61123f915060203d8111610cdc57610cce8183612b9f565b8361119a565b906112cb6112d1918a60038a6112a38861129c816112638186612d8e565b51948d60005260209560008752604060002061127f848b612d8e565b5160005287526112956040600020918254612d3a565b9055612d8e565b5194612d8e565b51600052526112b86040600020918254612d3a565b90556112c4858a612d8e565b5190612d3a565b92612d7f565b919061108d565b60046040517f9d89020a000000000000000000000000000000000000000000000000000000008152fd5b34610a8a57600061131236612ce3565b61131e81600254612d2d565b600255818352600360205260408320611338828254612d2d565b905533835282602052604083208284526020526040832061135a828254612d2d565b9055604051918252602082015233907fc3d58168c5ae7397731d063d5bbf3d657854427343f4c083240f7aacaa2d0f6260403392a4005b34610a8a576040600319360112610a8a576113aa612ace565b602435801515809103610a8a5733600052600160205273ffffffffffffffffffffffffffffffffffffffff60406000209216918260005260205260406000207fffffffffffffffffffffffffffffffffffffffffffffffffffffffffffffff0081541660ff83161790556040519081527f17307eab39ab6107e8899845ad3d59bd9653f200f220920489ca2b5937696c3160203392a3005b34610a8a576000600319360112610a8a57602060405160008152f35b34610a8a57602080600319360112610a8a5767ffffffffffffffff600435818111610a8a57611491903690600401612c26565b9161149a613206565b82519182116107ff576114ae600a54612b14565b601f8111611574575b5080601f83116001146114f3575081926000926114e8575b50506000198260011b9260031b1c191617600a55600080f35b0151905082806114cf565b90601f19831693600a6000527fc65a7bb8d6351c1cf70c95a316cc6a92839c986682d98bc35f958f4883f9d2a8926000905b86821061155c5750508360019510611543575b505050811b01600a55005b015160001960f88460031b161c19169055828080611538565b80600185968294968601518155019501930190611525565b600a6000527fc65a7bb8d6351c1cf70c95a316cc6a92839c986682d98bc35f958f4883f9d2a8601f840160051c8101918385106115ce575b601f0160051c01905b8181106115c257506114b7565b600081556001016115b5565b90915081906115ac565b34610a8a576040600319360112610a8a576115f1612af1565b600435600052600860205273ffffffffffffffffffffffffffffffffffffffff60406000209116600052602052602060ff604060002054166040519015158152f35b34610a8a576040600319360112610a8a576004356000526009602052602073ffffffffffffffffffffffffffffffffffffffff61167660243560406000206137f1565b9190546040519260031b1c168152f35b34610a8a57602080600319360112610a8a5767ffffffffffffffff600435818111610a8a576116b9903690600401612c26565b916116c2613206565b82519182116107ff576116d6600454612b14565b601f811161179c575b5080601f831160011461171b57508192600092611710575b50506000198260011b9260031b1c191617600455600080f35b0151905082806116f7565b90601f1983169360046000527f8a35acfbc15ff81a39ae7d344fd709f28e8600b4aa8c65c6b64bfe7fe36bd19b926000905b868210611784575050836001951061176b575b505050811b01600455005b015160001960f88460031b161c19169055828080611760565b8060018596829496860151815501950193019061174d565b60046000527f8a35acfbc15ff81a39ae7d344fd709f28e8600b4aa8c65c6b64bfe7fe36bd19b601f840160051c8101918385106117f6575b601f0160051c01905b8181106117ea57506116df565b600081556001016117dd565b90915081906117d4565b34610a8a576080600319360112610a8a57611819612ace565b60243560443560643567ffffffffffffffff8111610a8a5761183f903690600401612c26565b9261184861335e565b61185482600254612d3a565b60025582600052602093600385526040600020611872848254612d3a565b905573ffffffffffffffffffffffffffffffffffffffff8216918260005260008652604060002085600052865260406000206118af858254612d3a565b905582600060405187815286898201527fc3d58168c5ae7397731d063d5bbf3d657854427343f4c083240f7aacaa2d0f6260403392a46118ef5a91612f17565b6118f557005b610bf693600087946040518097819682957ff23a6e61000000000000000000000000000000000000000000000000000000009b8c85523360048601528660248601526044850152606484015260a0608484015260a4830190612be5565b34610a8a576000600319360112610a8a57604051600060045461197481612b14565b80845290600190818116908115610f3e575060011461199d57610edf84610ecb81860382612b9f565b6004600090815292507f8a35acfbc15ff81a39ae7d344fd709f28e8600b4aa8c65c6b64bfe7fe36bd19b5b8284106119e0575050508101602001610ecb82610ebb565b805460208587018101919091529093019281016119c8565b34610a8a576060600319360112610a8a57611a11612af1565b6044356bffffffffffffffffffffffff8116809103610a8a57611a32612f4d565b611a406127108211156139e7565b73ffffffffffffffffffffffffffffffffffffffff809216918215611ab8577fffffffffffffffffffffffff00000000000000000000000000000000000000009060405193611a8e85612b67565b84526020840192835260043560005260076020526040600020935116915160a01b16179055600080f35b60646040517f08c379a000000000000000000000000000000000000000000000000000000000815260206004820152601b60248201527f455243323938313a20496e76616c696420706172616d657465727300000000006044820152fd5b34610a8a576040600319360112610a8a5760043567ffffffffffffffff808211610a8a5736602383011215610a8a57816004013590611b5482612c6d565b92611b626040519485612b9f565b82845260209260248486019160051b83010191368311610a8a57602401905b828210611cd957505050602435908111610a8a57611ba3903690600401612c85565b8251815103611c5557825190601f19611bd4611bbe84612c6d565b93611bcc6040519586612b9f565b808552612c6d565b01368484013760005b8451811015611c42578073ffffffffffffffffffffffffffffffffffffffff611c09611c3d9388612d8e565b5116600052600085526040600020611c218285612d8e565b516000528552604060002054611c378286612d8e565b52612d7f565b611bdd565b60405184815280610edf81870186612cf9565b608482604051907f08c379a00000000000000000000000000000000000000000000000000000000082526004820152602c60248201527f455243313135352362616c616e63654f6642617463683a20494e56414c49445f60448201527f41525241595f4c454e47544800000000000000000000000000000000000000006064820152fd5b813573ffffffffffffffffffffffffffffffffffffffff81168103610a8a578152908401908401611b81565b34610a8a576040600319360112610a8a57611d1e612af1565b3373ffffffffffffffffffffffffffffffffffffffff821603611d4757610fc2906004356135d4565b60846040517f08c379a000000000000000000000000000000000000000000000000000000000815260206004820152602f60248201527f416363657373436f6e74726f6c3a2063616e206f6e6c792072656e6f756e636560448201527f20726f6c657320666f722073656c6600000000000000000000000000000000006064820152fd5b34610a8a576040600319360112610a8a57610fc26004356009611dec612af1565b918060005260209060088252611e096001604060002001546134b6565b806000526008825273ffffffffffffffffffffffffffffffffffffffff604060002094169384600052825260ff6040600020541615611e51575b600052526040600020613809565b80600052600882526040600020846000528252604060002060017fffffffffffffffffffffffffffffffffffffffffffffffffffffffffffffff008254161790553384827f2f8788117e7eff1d82e926ec794901d17c78024a50270940304540a733656f0d600080a4611e43565b34610a8a5760a0600319360112610a8a57611ed8612ace565b611ee0612af1565b9060449067ffffffffffffffff908235828111610a8a57611f05903690600401612c85565b6064948535848111610a8a57611f1f903690600401612c85565b93608435908111610a8a57611f38903690600401612c26565b73ffffffffffffffffffffffffffffffffffffffff908185163314801561235d575b156122da57818316156122575783518651036121d457835160005b81811061214a57505060405182841690838716907f4a39dc06d4c0dbc64b70af90fd698a233a518aa5d07e595d983b8c0526c8f7fb339180611fb88c8b83612dd1565b0390a45a94611fc684612f17565b611fcc57005b8291604051978896879586947fbc197c810000000000000000000000000000000000000000000000000000000086523360048701521660248501528a840160a0905260a4840161201b91612cf9565b838103600319018c85015261202f91612cf9565b82810360031901608484015261204491612be5565b039216600090602095f1908115610ce3577fbc197c8100000000000000000000000000000000000000000000000000000000917fffffffff000000000000000000000000000000000000000000000000000000009160009161212c575b5016036120aa57005b7f7665643a20494e56414c49445f4f4e5f524543454956455f4d455353414745006084927f45524331313535235f63616c6c6f6e4552433131353542617463685265636569604051937f08c379a000000000000000000000000000000000000000000000000000000000855260206004860152603f6024860152840152820152fd5b612144915060203d8111610cdc57610cce8183612b9f565b856120a1565b806121586121cf928a612d8e565b51858916600052602090600082526040600020612175848b612d8e565b51600052825261218b6040600020918254612d2d565b9055612197828b612d8e565b5190868816600052600081526040600020906121b3848b612d8e565b51600052526121c86040600020918254612d3a565b9055612d7f565b611f75565b6084877f494e56414c49445f4152524159535f4c454e47544800000000000000000000008a7f45524331313535235f7361666542617463685472616e7366657246726f6d3a20604051937f08c379a00000000000000000000000000000000000000000000000000000000085526020600486015260356024860152840152820152fd5b6084877f4e56414c49445f524543495049454e54000000000000000000000000000000008a7f45524331313535237361666542617463685472616e7366657246726f6d3a2049604051937f08c379a00000000000000000000000000000000000000000000000000000000085526020600486015260306024860152840152820152fd5b6084877f4e56414c49445f4f50455241544f5200000000000000000000000000000000008a7f45524331313535237361666542617463685472616e7366657246726f6d3a2049604051937f08c379a000000000000000000000000000000000000000000000000000000000855260206004860152602f6024860152840152820152fd5b50818516600052600160205260406000203360005260205260ff60406000205416611f5a565b34610a8a5761239136612ce3565b906000526007602052604060002090604051916123ad83612b67565b5473ffffffffffffffffffffffffffffffffffffffff928382169182825260a01c60208201529015612444575b6bffffffffffffffffffffffff6020820151169182810292818404149015171561241557604092612710915116918351928352046020820152f35b7f4e487b7100000000000000000000000000000000000000000000000000000000600052601160045260246000fd5b5060405161245181612b67565b600654838116825260a01c60208201526123da565b34610a8a576020600319360112610a8a5760043560005260036020526020604060002054604051908152f35b34610a8a576020600319360112610a8a5760043560005260086020526020600160406000200154604051908152f35b34610a8a576040600319360112610a8a5767ffffffffffffffff600435818111610a8a576124f3903690600401612c85565b90602435908111610a8a5761250c903690600401612c85565b815191815183036112d8576000926000905b80821061256f575050612535600093600254612d2d565b6002557f4a39dc06d4c0dbc64b70af90fd698a233a518aa5d07e595d983b8c0526c8f7fb6040518061256a3395339583612dd1565b0390a4005b90936125ee6125f4916125828787612d8e565b513360005260209060008252604060002061259d8a89612d8e565b5160005282526125b36040600020918254612d2d565b905560036125c18989612d8e565b51916125cd8a89612d8e565b51600052526125e26040600020918254612d2d565b90556112c48787612d8e565b94612d7f565b9061251e565b34610a8a576000600319360112610a8a576020600254604051908152f35b34610a8a57602080600319360112610a8a57612635600435612e0a565b90604051918282600060045461264a81612b14565b9060019081811690811561274357506001146126e0575b5050908161267b85600595946126cc975194859201612bc2565b017f2e6a736f6e0000000000000000000000000000000000000000000000000000008152037fffffffffffffffffffffffffffffffffffffffffffffffffffffffffffffffe5810185520183612b9f565b610edf604051928284938452830190612be5565b60046000908152949593949192507f8a35acfbc15ff81a39ae7d344fd709f28e8600b4aa8c65c6b64bfe7fe36bd19b5b83831061272b5750929493925050820181018361267b612661565b8054838a018701528896508795909201918101612710565b7fffffffffffffffffffffffffffffffffffffffffffffffffffffffffffffff0016868601525050801515028301820190508361267b612661565b34610a8a57602080600319360112610a8a5767ffffffffffffffff90600435828111610a8a576127b2903690600401612c26565b916127bb613206565b82519081116107ff576005916127d18354612b14565b601f8111612896575b5080601f8311600114612816575081929360009261280b575b50506000198260011b9260031b1c1916179055600080f35b0151905083806127f3565b90601f19831694846000527f036b6384b5eca791c62761152d0c79bb0604c104a5fb6f4eb0703f3154bb3db0926000905b87821061287e575050836001959610612865575b505050811b019055005b015160001960f88460031b161c1916905583808061285b565b80600185968294968601518155019501930190612847565b836000527f036b6384b5eca791c62761152d0c79bb0604c104a5fb6f4eb0703f3154bb3db0601f8401851c8101918385106128ed575b601f01851c01905b8181106128e157506127da565b600081556001016128d4565b90915081906128cc565b34610a8a576000600319360112610a8a57604051600060055461291981612b14565b80845290600190818116908115610f3e575060011461294257610edf84610ecb81860382612b9f565b6005600090815292507f036b6384b5eca791c62761152d0c79bb0604c104a5fb6f4eb0703f3154bb3db05b828410612985575050508101602001610ecb82610ebb565b8054602085870181019190915290930192810161296d565b34610a8a576040600319360112610a8a576129b6612ace565b6024356bffffffffffffffffffffffff81168103610a8a57610fc2916129da612f4d565b613a72565b34610a8a576020600319360112610a8a576004357fffffffff00000000000000000000000000000000000000000000000000000000811690818103610a8a576020917fc79b8b5f0000000000000000000000000000000000000000000000000000000014908115612a6d575b8115612a5d575b506040519015158152f35b612a679150613b4a565b82612a52565b9050612a7881613b4a565b90612a4b565b34610a8a576040600319360112610a8a5760209073ffffffffffffffffffffffffffffffffffffffff612aaf612ace565b1660005260008252604060002060243560005282526040600020548152f35b6004359073ffffffffffffffffffffffffffffffffffffffff82168203610a8a57565b6024359073ffffffffffffffffffffffffffffffffffffffff82168203610a8a57565b90600182811c92168015612b5d575b6020831014612b2e57565b7f4e487b7100000000000000000000000000000000000000000000000000000000600052602260045260246000fd5b91607f1691612b23565b6040810190811067ffffffffffffffff8211176107ff57604052565b6080810190811067ffffffffffffffff8211176107ff57604052565b90601f601f19910116810190811067ffffffffffffffff8211176107ff57604052565b60005b838110612bd55750506000910152565b8181015183820152602001612bc5565b90601f19601f602093612c0381518092818752878088019101612bc2565b0116010190565b67ffffffffffffffff81116107ff57601f01601f191660200190565b81601f82011215610a8a57803590612c3d82612c0a565b92612c4b6040519485612b9f565b82845260208383010111610a8a57816000926020809301838601378301015290565b67ffffffffffffffff81116107ff5760051b60200190565b81601f82011215610a8a57803591612c9c83612c6d565b92612caa6040519485612b9f565b808452602092838086019260051b820101928311610a8a578301905b828210612cd4575050505090565b81358152908301908301612cc6565b6003196040910112610a8a576004359060243590565b90815180825260208080930193019160005b828110612d19575050505090565b835185529381019392810192600101612d0b565b9190820391821161241557565b9190820180921161241557565b90816020910312610a8a57517fffffffff0000000000000000000000000000000000000000000000000000000081168103610a8a5790565b60001981146124155760010190565b8051821015612da25760209160051b010190565b7f4e487b7100000000000000000000000000000000000000000000000000000000600052603260045260246000fd5b9091612de8612df693604084526040840190612cf9565b916020818403910152612cf9565b90565b908151811015612da2570160200190565b8015612edd5780816000925b612ec9575080612e2583612c0a565b92612e336040519485612b9f565b808452601f19612e4282612c0a565b01366020860137915b612e5457505090565b60001982019182116124155781600a8083049281840291848304148415171561241557612e8460ff928392612d2d565b16603001908111612415577fff00000000000000000000000000000000000000000000000000000000000000612ec29160f81b1660001a9185612df9565b5380612e4b565b91612ed5600a91612d7f565b920480612e16565b50604051612eea81612b67565b600181527f3000000000000000000000000000000000000000000000000000000000000000602082015290565b3f8015159081612f25575090565b7fc5d2460186f7233c927e7db2dcc703c0e500b653ca82273b7bfad8045d85a4709150141590565b3360009081527fa9ced9fdc45cded6d4b7a90e36d1ee82b957a500cc22704c465e9bdf275406fd602090815260408083205490927f6db4061a20ca83a3be756ee172bd37a029093ac5afe4ce968c6d5435b43cb0119160ff1615612fb15750505050565b612fba33613689565b91845190612fc782612b83565b604282528482019260603685378251156131d957603084538251906001918210156131d95790607860218501536041915b81831161312c575050506130d05760486130cc9386936130969361308798519889937f416363657373436f6e74726f6c3a206163636f756e74200000000000000000008a860152613052815180928c603789019101612bc2565b8401917f206973206d697373696e6720726f6c6520000000000000000000000000000000603784015251809386840190612bc2565b01036028810187520185612b9f565b519283927f08c379a000000000000000000000000000000000000000000000000000000000845260048401526024830190612be5565b0390fd5b6064848651907f08c379a000000000000000000000000000000000000000000000000000000000825280600483015260248201527f537472696e67733a20686578206c656e67746820696e73756666696369656e746044820152fd5b909192600f811660108110156131ac577f3031323334353637383961626364656600000000000000000000000000000000901a6131698587612df9565b5360041c92801561317f57600019019190612ff8565b6024827f4e487b710000000000000000000000000000000000000000000000000000000081526011600452fd5b6024837f4e487b710000000000000000000000000000000000000000000000000000000081526032600452fd5b807f4e487b7100000000000000000000000000000000000000000000000000000000602492526032600452fd5b3360009081527f95f185554aba264de8ed412af70e5aba6acb0e648f258c912ad29ed85d11ca18602090815260408083205490927fe02a0315b383857ac496e9d2b2546a699afaeb4e5e83a1fdef64376d0b74e5a59160ff161561326a5750505050565b61327333613689565b9184519061328082612b83565b604282528482019260603685378251156131d957603084538251906001918210156131d95790607860218501536041915b81831161330b575050506130d05760486130cc9386936130969361308798519889937f416363657373436f6e74726f6c3a206163636f756e74200000000000000000008a860152613052815180928c603789019101612bc2565b909192600f811660108110156131ac577f3031323334353637383961626364656600000000000000000000000000000000901a6133488587612df9565b5360041c92801561317f576000190191906132b1565b3360009081527f51a495916474fe1a0c0fcfb65a8a97682b84a054118858cdd1f5dfd7fc0919eb602090815260408083205490927f9f2df0fed2c77648de5860a4cc508cd0818c85b8b8a1ab4ceeef8d981c8956a69160ff16156133c25750505050565b6133cb33613689565b918451906133d882612b83565b604282528482019260603685378251156131d957603084538251906001918210156131d95790607860218501536041915b818311613463575050506130d05760486130cc9386936130969361308798519889937f416363657373436f6e74726f6c3a206163636f756e74200000000000000000008a860152613052815180928c603789019101612bc2565b909192600f811660108110156131ac577f3031323334353637383961626364656600000000000000000000000000000000901a6134a08587612df9565b5360041c92801561317f57600019019190613409565b60009080825260209060088252604092838120338252835260ff8482205416156134e05750505050565b6134e933613689565b918451906134f682612b83565b604282528482019260603685378251156131d957603084538251906001918210156131d95790607860218501536041915b818311613581575050506130d05760486130cc9386936130969361308798519889937f416363657373436f6e74726f6c3a206163636f756e74200000000000000000008a860152613052815180928c603789019101612bc2565b909192600f811660108110156131ac577f3031323334353637383961626364656600000000000000000000000000000000901a6135be8587612df9565b5360041c92801561317f57600019019190613527565b90604061362092600090808252600860205273ffffffffffffffffffffffffffffffffffffffff83832094169384835260205260ff8383205416613623575b81526009602052206138ac565b50565b80825260086020528282208483526020528282207fffffffffffffffffffffffffffffffffffffffffffffffffffffffffffffff0081541690553384827ff6391f5c32d9c69d2a47ea670b442974b53935d1edc7fd64eb21e047a839171b8580a4613613565b604051906060820182811067ffffffffffffffff8211176107ff57604052602a8252602082016040368237825115612da257603090538151600190811015612da257607860218401536029905b8082116137445750506136e65790565b60646040517f08c379a000000000000000000000000000000000000000000000000000000000815260206004820152602060248201527f537472696e67733a20686578206c656e67746820696e73756666696369656e746044820152fd5b9091600f811660108110156137c3577f3031323334353637383961626364656600000000000000000000000000000000901a6137808486612df9565b5360041c9180156137955760001901906136d6565b602460007f4e487b710000000000000000000000000000000000000000000000000000000081526011600452fd5b602460007f4e487b710000000000000000000000000000000000000000000000000000000081526032600452fd5b8054821015612da25760005260206000200190600090565b919060018301600090828252806020526040822054156000146138a657845494680100000000000000008610156138795783613869613852886001604098999a018555846137f1565b81939154906000199060031b92831b921b19161790565b9055549382526020522055600190565b6024837f4e487b710000000000000000000000000000000000000000000000000000000081526041600452fd5b50925050565b906001820190600092818452826020526040842054908115156000146139e057600019918281018181116139b35782549084820191821161398657808203613951575b505050805480156139245782019161390783836137f1565b909182549160031b1b191690555582526020526040812055600190565b6024867f4e487b710000000000000000000000000000000000000000000000000000000081526031600452fd5b61397161396161385293866137f1565b90549060031b1c928392866137f1565b905586528460205260408620553880806138ef565b6024887f4e487b710000000000000000000000000000000000000000000000000000000081526011600452fd5b6024877f4e487b710000000000000000000000000000000000000000000000000000000081526011600452fd5b5050505090565b156139ee57565b60846040517f08c379a000000000000000000000000000000000000000000000000000000000815260206004820152602a60248201527f455243323938313a20726f79616c7479206665652077696c6c2065786365656460448201527f2073616c655072696365000000000000000000000000000000000000000000006064820152fd5b73ffffffffffffffffffffffffffffffffffffffff6bffffffffffffffffffffffff831691613aa56127108411156139e7565b16918215613aec577fffffffffffffffffffffffff0000000000000000000000000000000000000000916020604051613add81612b67565b858152015260a01b1617600655565b60646040517f08c379a000000000000000000000000000000000000000000000000000000000815260206004820152601960248201527f455243323938313a20696e76616c6964207265636569766572000000000000006044820152fd5b613b5381613bf0565b908115613b87575b8115613b76575b8115613b6c575090565b612df69150613cb3565b9050613b8181613cb3565b90613b62565b9050613b9281613b98565b90613b5b565b7f0e89341c000000000000000000000000000000000000000000000000000000007fffffffff00000000000000000000000000000000000000000000000000000000821614613bea57612df690613bf0565b50600190565b7fffffffff0000000000000000000000000000000000000000000000000000000081167f3e85e62f0000000000000000000000000000000000000000000000000000000014908115613c40575090565b612df691507fffffffff00000000000000000000000000000000000000000000000000000000167fd9b67a26000000000000000000000000000000000000000000000000000000008114613bea577f01ffc9a7000000000000000000000000000000000000000000000000000000001490565b613cbc81613da2565b908115613d0a575b8115613cdf575b8115613cd5575090565b612df69150613d1b565b7fffffffff000000000000000000000000000000000000000000000000000000008116159150613ccb565b9050613d1581613d1b565b90613cc4565b7fffffffff000000000000000000000000000000000000000000000000000000008116907f5a05180f000000000000000000000000000000000000000000000000000000008214918215613d6e57505090565b7f7965db0b000000000000000000000000000000000000000000000000000000001491508115613d9c575090565b612df691505b7fffffffff00000000000000000000000000000000000000000000000000000000167f2a55205a000000000000000000000000000000000000000000000000000000008114908115613df2575090565b7f01ffc9a7000000000000000000000000000000000000000000000000000000009150149056fea264697066735822122057a4534969fa7bf4ea76a7fd77d1ae0f50342b9e63c841c1054e20ea6885704864736f6c63430008130033",
					"opcodes": "PUSH1 0x80 CALLVALUE PUSH2 0x121 JUMPI PUSH1 0x1 PUSH1 0x1 PUSH1 0x40 SHL SUB SWAP1 PUSH1 0x1F PUSH2 0x6512 CODESIZE DUP2 SWAP1 SUB SWAP2 DUP3 ADD PUSH1 0x1F NOT AND DUP4 ADD SWAP3 SWAP2 SWAP1 DUP5 DUP5 GT DUP4 DUP6 LT OR PUSH2 0x10B JUMPI DUP2 PUSH1 0x20 SWAP3 DUP5 SWAP3 PUSH1 0x40 SWAP7 DUP8 MSTORE DUP4 CODECOPY DUP2 ADD SUB SLT PUSH2 0x121 JUMPI MLOAD PUSH1 0x1 PUSH1 0x1 PUSH1 0xA0 SHL SUB DUP1 DUP3 AND DUP3 SUB PUSH2 0x121 JUMPI PUSH2 0x5F CALLER PUSH2 0x126 JUMP JUMPDEST DUP3 MLOAD SWAP4 PUSH2 0x4165 SWAP5 DUP6 DUP2 ADD SWAP6 DUP2 DUP8 LT DUP4 DUP9 GT OR PUSH2 0x10B JUMPI PUSH2 0x23AD DUP3 CODECOPY DUP1 PUSH1 0x0 SWAP7 SUB SWAP1 DUP7 CREATE SWAP1 DUP2 ISZERO PUSH2 0x101 JUMPI DUP5 MLOAD SWAP2 PUSH2 0x5EE DUP1 DUP5 ADD SWAP3 DUP4 GT DUP5 DUP5 LT OR PUSH2 0xED JUMPI SWAP2 DUP5 DUP5 SWAP3 PUSH1 0x20 SWAP5 PUSH2 0x1DBF DUP6 CODECOPY AND DUP2 MSTORE SUB ADD SWAP1 DUP6 CREATE DUP1 ISZERO PUSH2 0xE0 JUMPI PUSH2 0xD3 SWAP4 SWAP5 POP AND PUSH1 0x1 DUP1 PUSH1 0xA0 SHL SUB NOT PUSH1 0x1 SLOAD AND OR PUSH1 0x1 SSTORE PUSH2 0x126 JUMP JUMPDEST MLOAD PUSH2 0x1C51 SWAP1 DUP2 PUSH2 0x16E DUP3 CODECOPY RETURN JUMPDEST POP POP POP MLOAD SWAP1 RETURNDATASIZE SWAP1 DUP3 RETURNDATACOPY RETURNDATASIZE SWAP1 REVERT JUMPDEST PUSH4 0x4E487B71 PUSH1 0xE0 SHL DUP9 MSTORE PUSH1 0x41 PUSH1 0x4 MSTORE PUSH1 0x24 DUP9 REVERT JUMPDEST DUP5 MLOAD RETURNDATASIZE DUP8 DUP3 RETURNDATACOPY RETURNDATASIZE SWAP1 REVERT JUMPDEST PUSH4 0x4E487B71 PUSH1 0xE0 SHL PUSH1 0x0 MSTORE PUSH1 0x41 PUSH1 0x4 MSTORE PUSH1 0x24 PUSH1 0x0 REVERT JUMPDEST PUSH1 0x0 DUP1 REVERT JUMPDEST PUSH1 0x0 DUP1 SLOAD PUSH1 0x1 PUSH1 0x1 PUSH1 0xA0 SHL SUB SWAP3 DUP4 AND PUSH1 0x1 PUSH1 0x1 PUSH1 0xA0 SHL SUB NOT DUP3 AND DUP2 OR DUP4 SSTORE SWAP3 AND SWAP1 PUSH32 0x8BE0079C531659141344CD1FD0A4F28419497F9722A3DAAFE3B4186F6B6457E0 SWAP1 DUP1 LOG3 JUMP INVALID PUSH1 0x40 PUSH1 0x80 DUP2 MSTORE PUSH1 0x4 SWAP1 DUP2 CALLDATASIZE LT ISZERO PUSH2 0x15 JUMPI PUSH1 0x0 DUP1 REVERT JUMPDEST PUSH1 0x0 SWAP2 DUP3 CALLDATALOAD PUSH1 0xE0 SHR DUP1 PUSH4 0x1BCE4583 EQ PUSH2 0x6FD JUMPI DUP1 PUSH4 0x38234F4D EQ PUSH2 0x2E7 JUMPI DUP1 PUSH4 0x59659E90 EQ PUSH2 0x294 JUMPI DUP1 PUSH4 0x715018A6 EQ PUSH2 0x1F4 JUMPI DUP1 PUSH4 0x8DA5CB5B EQ PUSH2 0x19F JUMPI PUSH4 0xF2FDE38B EQ PUSH2 0x63 JUMPI PUSH1 0x0 DUP1 REVERT JUMPDEST CALLVALUE PUSH2 0x19B JUMPI PUSH1 0x20 PUSH32 0xFFFFFFFFFFFFFFFFFFFFFFFFFFFFFFFFFFFFFFFFFFFFFFFFFFFFFFFFFFFFFFFC CALLDATASIZE ADD SLT PUSH2 0x19B JUMPI PUSH2 0x9A PUSH2 0x7BC JUMP JUMPDEST SWAP1 PUSH2 0xA3 PUSH2 0x8D8 JUMP JUMPDEST PUSH20 0xFFFFFFFFFFFFFFFFFFFFFFFFFFFFFFFFFFFFFFFF DUP1 SWAP3 AND SWAP3 DUP4 ISZERO PUSH2 0x118 JUMPI POP POP PUSH1 0x0 SLOAD DUP3 PUSH32 0xFFFFFFFFFFFFFFFFFFFFFFFF0000000000000000000000000000000000000000 DUP3 AND OR PUSH1 0x0 SSTORE AND PUSH32 0x8BE0079C531659141344CD1FD0A4F28419497F9722A3DAAFE3B4186F6B6457E0 PUSH1 0x0 DUP1 LOG3 DUP1 RETURN JUMPDEST SWAP1 PUSH1 0x20 PUSH1 0x84 SWAP3 MLOAD SWAP2 PUSH32 0x8C379A000000000000000000000000000000000000000000000000000000000 DUP4 MSTORE DUP3 ADD MSTORE PUSH1 0x26 PUSH1 0x24 DUP3 ADD MSTORE PUSH32 0x4F776E61626C653A206E6577206F776E657220697320746865207A65726F2061 PUSH1 0x44 DUP3 ADD MSTORE PUSH32 0x6464726573730000000000000000000000000000000000000000000000000000 PUSH1 0x64 DUP3 ADD MSTORE REVERT JUMPDEST DUP3 DUP1 REVERT JUMPDEST POP POP CALLVALUE PUSH2 0x1F0 JUMPI DUP2 PUSH32 0xFFFFFFFFFFFFFFFFFFFFFFFFFFFFFFFFFFFFFFFFFFFFFFFFFFFFFFFFFFFFFFFC CALLDATASIZE ADD SLT PUSH2 0x1F0 JUMPI PUSH20 0xFFFFFFFFFFFFFFFFFFFFFFFFFFFFFFFFFFFFFFFF PUSH1 0x20 SWAP3 SLOAD AND SWAP1 MLOAD SWAP1 DUP2 MSTORE RETURN JUMPDEST POP DUP1 REVERT JUMPDEST DUP4 CALLVALUE PUSH2 0x291 JUMPI DUP1 PUSH32 0xFFFFFFFFFFFFFFFFFFFFFFFFFFFFFFFFFFFFFFFFFFFFFFFFFFFFFFFFFFFFFFFC CALLDATASIZE ADD SLT PUSH2 0x291 JUMPI PUSH2 0x22B PUSH2 0x8D8 JUMP JUMPDEST PUSH1 0x0 PUSH20 0xFFFFFFFFFFFFFFFFFFFFFFFFFFFFFFFFFFFFFFFF DUP2 SLOAD PUSH32 0xFFFFFFFFFFFFFFFFFFFFFFFF0000000000000000000000000000000000000000 DUP2 AND DUP4 SSTORE AND PUSH32 0x8BE0079C531659141344CD1FD0A4F28419497F9722A3DAAFE3B4186F6B6457E0 DUP3 DUP1 LOG3 DUP1 RETURN JUMPDEST DUP1 REVERT JUMPDEST POP POP CALLVALUE PUSH2 0x1F0 JUMPI DUP2 PUSH32 0xFFFFFFFFFFFFFFFFFFFFFFFFFFFFFFFFFFFFFFFFFFFFFFFFFFFFFFFFFFFFFFFC CALLDATASIZE ADD SLT PUSH2 0x1F0 JUMPI PUSH1 0x20 SWAP1 PUSH20 0xFFFFFFFFFFFFFFFFFFFFFFFFFFFFFFFFFFFFFFFF PUSH1 0x1 SLOAD AND SWAP1 MLOAD SWAP1 DUP2 MSTORE RETURN JUMPDEST POP SWAP1 CALLVALUE PUSH2 0x19B JUMPI PUSH1 0xE0 PUSH32 0xFFFFFFFFFFFFFFFFFFFFFFFFFFFFFFFFFFFFFFFFFFFFFFFFFFFFFFFFFFFFFFFC CALLDATASIZE ADD SLT PUSH2 0x19B JUMPI PUSH2 0x320 PUSH2 0x7BC JUMP JUMPDEST SWAP1 PUSH1 0x24 CALLDATALOAD SWAP4 PUSH20 0xFFFFFFFFFFFFFFFFFFFFFFFFFFFFFFFFFFFFFFFF SWAP5 DUP6 DUP2 AND DUP2 SUB PUSH2 0x6EC JUMPI PUSH8 0xFFFFFFFFFFFFFFFF SWAP5 PUSH1 0x44 CALLDATALOAD DUP7 DUP2 GT PUSH2 0x6F9 JUMPI PUSH2 0x365 SWAP1 CALLDATASIZE SWAP1 DUP4 ADD PUSH2 0x863 JUMP JUMPDEST SWAP6 PUSH1 0x64 CALLDATALOAD DUP2 DUP2 GT PUSH2 0x6F5 JUMPI PUSH2 0x37D SWAP1 CALLDATASIZE SWAP1 DUP5 ADD PUSH2 0x863 JUMP JUMPDEST PUSH1 0x84 CALLDATALOAD DUP3 DUP2 GT PUSH2 0x6F1 JUMPI PUSH2 0x394 SWAP1 CALLDATASIZE SWAP1 DUP6 ADD PUSH2 0x863 JUMP JUMPDEST PUSH1 0xA4 CALLDATALOAD SWAP2 DUP11 DUP4 AND DUP4 SUB PUSH2 0x6EC JUMPI PUSH1 0xC4 CALLDATALOAD SWAP4 PUSH12 0xFFFFFFFFFFFFFFFFFFFFFFFF DUP6 AND DUP6 SUB PUSH2 0x5DF JUMPI DUP11 SWAP12 DUP10 SWAP11 SWAP12 SWAP9 SWAP10 MLOAD SWAP2 PUSH1 0x20 SWAP14 DUP4 DUP16 SWAP5 DUP12 DUP11 DUP11 DUP11 DUP11 DUP11 DUP7 ADD SWAP8 PUSH2 0x3DC SWAP6 DUP10 PUSH2 0x9BD JUMP JUMPDEST SUB PUSH32 0xFFFFFFFFFFFFFFFFFFFFFFFFFFFFFFFFFFFFFFFFFFFFFFFFFFFFFFFFFFFFFFE0 DUP2 ADD DUP3 MSTORE PUSH2 0x40C SWAP1 DUP3 PUSH2 0x822 JUMP JUMPDEST MLOAD SWAP1 KECCAK256 SWAP1 DUP13 MLOAD SWAP4 DUP5 ADD SWAP1 DUP5 DUP3 LT SWAP1 DUP3 GT OR PUSH2 0x6BE JUMPI PUSH2 0x494 DUP16 DUP16 SWAP1 DUP16 SWAP4 DUP16 SWAP3 PUSH1 0x68 SWAP4 DUP3 DUP8 MSTORE DUP10 MSTORE PUSH1 0x1 SLOAD DUP7 MLOAD SWAP7 DUP8 SWAP5 DUP6 ADD SWAP9 DUP10 MSTORE PUSH32 0xFFFFFFFFFFFFFFFFFFFFFFFFFFFFFFFFFFFFFFFF000000000000000000000000 DUP1 SWAP4 PUSH1 0x60 SHL AND SWAP1 DUP6 ADD MSTORE PUSH1 0x60 SHL AND PUSH1 0x54 DUP4 ADD MSTORE PUSH2 0x484 DUP9 MLOAD DUP1 SWAP3 DUP6 DUP6 ADD SWAP1 PUSH2 0x957 JUMP JUMPDEST DUP2 ADD SUB PUSH1 0x48 DUP2 ADD DUP5 MSTORE ADD DUP3 PUSH2 0x822 JUMP JUMPDEST MLOAD SWAP1 KECCAK256 DUP12 MLOAD PUSH2 0x11EB SWAP1 DUP16 PUSH2 0x4AA DUP4 DUP3 ADD DUP4 PUSH2 0x822 JUMP JUMPDEST DUP3 DUP3 MSTORE DUP2 ADD SWAP2 PUSH2 0xA31 DUP4 CODECOPY DUP1 MLOAD ISZERO PUSH2 0x661 JUMPI MLOAD DUP4 SWAP3 SWAP2 DUP14 CREATE2 AND SWAP12 DUP13 ISZERO PUSH2 0x605 JUMPI DUP2 PUSH1 0x1 SLOAD AND SWAP3 DUP14 EXTCODESIZE ISZERO PUSH2 0x601 JUMPI DUP12 SWAP3 DUP4 DUP16 SWAP3 SWAP4 DUP16 DUP13 SWAP6 PUSH2 0x52A SWAP2 MLOAD SWAP9 DUP10 SWAP8 DUP9 SWAP7 DUP8 SWAP6 PUSH32 0xCF7A1D7700000000000000000000000000000000000000000000000000000000 DUP8 MSTORE AND SWAP1 DUP6 ADD MSTORE PUSH1 0x24 DUP5 ADD MSTORE PUSH1 0x60 PUSH1 0x44 DUP5 ADD MSTORE PUSH1 0x64 DUP4 ADD SWAP1 PUSH2 0x97A JUMP JUMPDEST SUB SWAP3 GAS CALL DUP1 ISZERO PUSH2 0x5F7 JUMPI SWAP1 DUP10 SWAP2 PUSH2 0x5E3 JUMPI JUMPDEST POP POP DUP10 EXTCODESIZE ISZERO PUSH2 0x5DF JUMPI SWAP2 DUP8 SWAP6 SWAP5 SWAP4 SWAP2 PUSH2 0x580 SWAP4 DUP11 MLOAD SWAP9 DUP10 SWAP8 DUP9 SWAP8 PUSH32 0xF895481800000000000000000000000000000000000000000000000000000000 DUP10 MSTORE DUP9 ADD PUSH2 0x9BD JUMP JUMPDEST SUB DUP2 DUP4 DUP9 GAS CALL DUP1 ISZERO PUSH2 0x5D5 JUMPI PUSH2 0x5C1 JUMPI JUMPDEST POP POP PUSH32 0x28A530EB465A41FAF2A923830D2CD4E0301E87B2CDDC112BDA1A86048C3A54B2 DUP4 DUP3 MLOAD DUP5 DUP2 MSTORE LOG1 MLOAD SWAP1 DUP2 MSTORE RETURN JUMPDEST PUSH2 0x5CB DUP3 SWAP2 PUSH2 0x7DF JUMP JUMPDEST PUSH2 0x291 JUMPI DUP1 PUSH2 0x591 JUMP JUMPDEST DUP4 MLOAD RETURNDATASIZE DUP5 DUP3 RETURNDATACOPY RETURNDATASIZE SWAP1 REVERT JUMPDEST DUP8 DUP1 REVERT JUMPDEST PUSH2 0x5EC SWAP1 PUSH2 0x7DF JUMP JUMPDEST PUSH2 0x5DF JUMPI DUP8 CODESIZE PUSH2 0x53C JUMP JUMPDEST DUP11 MLOAD RETURNDATASIZE DUP12 DUP3 RETURNDATACOPY RETURNDATASIZE SWAP1 REVERT JUMPDEST DUP12 DUP1 REVERT JUMPDEST PUSH1 0x64 DUP9 DUP16 DUP15 MLOAD SWAP2 PUSH32 0x8C379A000000000000000000000000000000000000000000000000000000000 DUP4 MSTORE DUP3 ADD MSTORE PUSH1 0x19 PUSH1 0x24 DUP3 ADD MSTORE PUSH32 0x437265617465323A204661696C6564206F6E206465706C6F7900000000000000 PUSH1 0x44 DUP3 ADD MSTORE REVERT JUMPDEST POP POP PUSH1 0x64 DUP9 DUP16 DUP1 DUP16 MLOAD SWAP3 PUSH32 0x8C379A000000000000000000000000000000000000000000000000000000000 DUP5 MSTORE DUP4 ADD MSTORE PUSH1 0x24 DUP3 ADD MSTORE PUSH32 0x437265617465323A2062797465636F6465206C656E677468206973207A65726F PUSH1 0x44 DUP3 ADD MSTORE REVERT JUMPDEST PUSH1 0x41 DUP10 PUSH32 0x4E487B7100000000000000000000000000000000000000000000000000000000 PUSH1 0x0 MSTORE MSTORE PUSH1 0x24 PUSH1 0x0 REVERT JUMPDEST PUSH1 0x0 DUP1 REVERT JUMPDEST DUP6 DUP1 REVERT JUMPDEST DUP5 DUP1 REVERT JUMPDEST DUP4 DUP1 REVERT JUMPDEST POP SWAP1 CALLVALUE PUSH2 0x19B JUMPI PUSH1 0x20 PUSH32 0xFFFFFFFFFFFFFFFFFFFFFFFFFFFFFFFFFFFFFFFFFFFFFFFFFFFFFFFFFFFFFFFC CALLDATASIZE ADD SLT PUSH2 0x19B JUMPI DUP3 PUSH2 0x737 PUSH2 0x7BC JUMP JUMPDEST PUSH2 0x73F PUSH2 0x8D8 JUMP JUMPDEST PUSH20 0xFFFFFFFFFFFFFFFFFFFFFFFFFFFFFFFFFFFFFFFF SWAP1 DUP2 PUSH1 0x1 SLOAD AND SWAP1 DUP2 EXTCODESIZE ISZERO PUSH2 0x6F9 JUMPI DUP4 PUSH1 0x24 SWAP3 DUP7 MLOAD SWAP8 DUP9 SWAP6 DUP7 SWAP5 PUSH32 0x3659CFE600000000000000000000000000000000000000000000000000000000 DUP7 MSTORE AND SWAP1 DUP5 ADD MSTORE GAS CALL SWAP1 DUP2 ISZERO PUSH2 0x7B3 JUMPI POP PUSH2 0x7A7 JUMPI POP DUP1 RETURN JUMPDEST PUSH2 0x7B0 SWAP1 PUSH2 0x7DF JUMP JUMPDEST DUP1 RETURN JUMPDEST MLOAD RETURNDATASIZE DUP5 DUP3 RETURNDATACOPY RETURNDATASIZE SWAP1 REVERT JUMPDEST PUSH1 0x4 CALLDATALOAD SWAP1 PUSH20 0xFFFFFFFFFFFFFFFFFFFFFFFFFFFFFFFFFFFFFFFF DUP3 AND DUP3 SUB PUSH2 0x6EC JUMPI JUMP JUMPDEST PUSH8 0xFFFFFFFFFFFFFFFF DUP2 GT PUSH2 0x7F3 JUMPI PUSH1 0x40 MSTORE JUMP JUMPDEST PUSH32 0x4E487B7100000000000000000000000000000000000000000000000000000000 PUSH1 0x0 MSTORE PUSH1 0x41 PUSH1 0x4 MSTORE PUSH1 0x24 PUSH1 0x0 REVERT JUMPDEST SWAP1 PUSH1 0x1F PUSH32 0xFFFFFFFFFFFFFFFFFFFFFFFFFFFFFFFFFFFFFFFFFFFFFFFFFFFFFFFFFFFFFFE0 SWAP2 ADD AND DUP2 ADD SWAP1 DUP2 LT PUSH8 0xFFFFFFFFFFFFFFFF DUP3 GT OR PUSH2 0x7F3 JUMPI PUSH1 0x40 MSTORE JUMP JUMPDEST DUP2 PUSH1 0x1F DUP3 ADD SLT ISZERO PUSH2 0x6EC JUMPI DUP1 CALLDATALOAD SWAP1 PUSH8 0xFFFFFFFFFFFFFFFF DUP3 GT PUSH2 0x7F3 JUMPI PUSH1 0x40 MLOAD SWAP3 PUSH2 0x8B6 PUSH1 0x20 PUSH32 0xFFFFFFFFFFFFFFFFFFFFFFFFFFFFFFFFFFFFFFFFFFFFFFFFFFFFFFFFFFFFFFE0 PUSH1 0x1F DUP7 ADD AND ADD DUP6 PUSH2 0x822 JUMP JUMPDEST DUP3 DUP5 MSTORE PUSH1 0x20 DUP4 DUP4 ADD ADD GT PUSH2 0x6EC JUMPI DUP2 PUSH1 0x0 SWAP3 PUSH1 0x20 DUP1 SWAP4 ADD DUP4 DUP7 ADD CALLDATACOPY DUP4 ADD ADD MSTORE SWAP1 JUMP JUMPDEST PUSH20 0xFFFFFFFFFFFFFFFFFFFFFFFFFFFFFFFFFFFFFFFF PUSH1 0x0 SLOAD AND CALLER SUB PUSH2 0x8F9 JUMPI JUMP JUMPDEST PUSH1 0x64 PUSH1 0x40 MLOAD PUSH32 0x8C379A000000000000000000000000000000000000000000000000000000000 DUP2 MSTORE PUSH1 0x20 PUSH1 0x4 DUP3 ADD MSTORE PUSH1 0x20 PUSH1 0x24 DUP3 ADD MSTORE PUSH32 0x4F776E61626C653A2063616C6C6572206973206E6F7420746865206F776E6572 PUSH1 0x44 DUP3 ADD MSTORE REVERT JUMPDEST PUSH1 0x0 JUMPDEST DUP4 DUP2 LT PUSH2 0x96A JUMPI POP POP PUSH1 0x0 SWAP2 ADD MSTORE JUMP JUMPDEST DUP2 DUP2 ADD MLOAD DUP4 DUP3 ADD MSTORE PUSH1 0x20 ADD PUSH2 0x95A JUMP JUMPDEST SWAP1 PUSH32 0xFFFFFFFFFFFFFFFFFFFFFFFFFFFFFFFFFFFFFFFFFFFFFFFFFFFFFFFFFFFFFFE0 PUSH1 0x1F PUSH1 0x20 SWAP4 PUSH2 0x9B6 DUP2 MLOAD DUP1 SWAP3 DUP2 DUP8 MSTORE DUP8 DUP1 DUP9 ADD SWAP2 ADD PUSH2 0x957 JUMP JUMPDEST ADD AND ADD ADD SWAP1 JUMP JUMPDEST SWAP5 SWAP7 SWAP6 SWAP2 PUSH1 0xA0 SWAP5 PUSH2 0xA15 PUSH12 0xFFFFFFFFFFFFFFFFFFFFFFFF SWAP6 PUSH2 0xA07 PUSH2 0xA23 SWAP5 PUSH20 0xFFFFFFFFFFFFFFFFFFFFFFFFFFFFFFFFFFFFFFFF DUP1 SWAP8 AND DUP12 MSTORE PUSH1 0xC0 PUSH1 0x20 DUP13 ADD MSTORE PUSH1 0xC0 DUP12 ADD SWAP1 PUSH2 0x97A JUMP JUMPDEST SWAP1 DUP10 DUP3 SUB PUSH1 0x40 DUP12 ADD MSTORE PUSH2 0x97A JUMP JUMPDEST SWAP1 DUP8 DUP3 SUB PUSH1 0x60 DUP10 ADD MSTORE PUSH2 0x97A JUMP JUMPDEST SWAP7 AND PUSH1 0x80 DUP6 ADD MSTORE AND SWAP2 ADD MSTORE JUMP INVALID PUSH1 0x80 DUP1 PUSH1 0x40 MSTORE CALLVALUE PUSH2 0x16 JUMPI PUSH2 0x11CF SWAP1 DUP2 PUSH2 0x1C DUP3 CODECOPY RETURN JUMPDEST PUSH1 0x0 DUP1 REVERT INVALID PUSH1 0x40 PUSH1 0x80 DUP2 MSTORE CALLDATASIZE PUSH2 0x382 JUMPI PUSH20 0xFFFFFFFFFFFFFFFFFFFFFFFFFFFFFFFFFFFFFFFF DUP1 PUSH32 0xB53127684A568B3173AE13B9F8A6016E243E63B6E8EE1178D6A717850B5D6103 SLOAD AND ISZERO DUP1 ISZERO PUSH2 0xB94 JUMPI PUSH1 0x0 SWAP2 PUSH32 0xCF7A1D7700000000000000000000000000000000000000000000000000000000 PUSH32 0xFFFFFFFF00000000000000000000000000000000000000000000000000000000 DUP5 CALLDATALOAD AND EQ PUSH2 0xC0 JUMPI PUSH1 0x4 DUP5 MLOAD PUSH32 0xF92EE8A900000000000000000000000000000000000000000000000000000000 DUP2 MSTORE REVERT JUMPDEST PUSH2 0xC8 PUSH2 0x1192 JUMP JUMPDEST PUSH1 0x4 SWAP2 CALLDATASIZE DUP4 GT PUSH2 0x37E JUMPI PUSH1 0x60 PUSH32 0xFFFFFFFFFFFFFFFFFFFFFFFFFFFFFFFFFFFFFFFFFFFFFFFFFFFFFFFFFFFFFFFC CALLDATASIZE ADD SLT PUSH2 0x37E JUMPI DUP3 CALLDATALOAD SWAP2 PUSH2 0x108 DUP4 PUSH2 0x67F JUMP JUMPDEST PUSH1 0x24 CALLDATALOAD SWAP3 PUSH2 0x115 DUP5 PUSH2 0x67F JUMP JUMPDEST PUSH1 0x44 CALLDATALOAD PUSH8 0xFFFFFFFFFFFFFFFF DUP2 GT PUSH2 0x37A JUMPI PUSH2 0x135 DUP4 SWAP2 CALLDATASIZE SWAP1 DUP9 ADD PUSH2 0x789 JUMP JUMPDEST SWAP5 AND SWAP3 ISZERO PUSH2 0x352 JUMPI PUSH2 0x147 SWAP2 AND PUSH2 0x7E3 JUMP JUMPDEST DUP1 EXTCODESIZE ISZERO PUSH2 0x2CF JUMPI DUP5 MLOAD SWAP1 PUSH32 0x5C60DA1B00000000000000000000000000000000000000000000000000000000 SWAP4 DUP5 DUP4 MSTORE PUSH1 0x20 SWAP7 DUP8 DUP5 DUP4 DUP2 DUP7 GAS STATICCALL SWAP4 DUP5 ISZERO PUSH2 0x2A6 JUMPI DUP9 SWAP5 PUSH2 0x19D SWAP2 DUP10 SWAP2 PUSH2 0x2B2 JUMPI JUMPDEST POP EXTCODESIZE ISZERO ISZERO PUSH2 0x926 JUMP JUMPDEST PUSH32 0xA3F0AD74E5423AEBFD80D3EF4346578335A9A72AEAEE59FF6CB3582B35133D50 DUP1 SLOAD PUSH32 0xFFFFFFFFFFFFFFFFFFFFFFFF0000000000000000000000000000000000000000 AND PUSH20 0xFFFFFFFFFFFFFFFFFFFFFFFFFFFFFFFFFFFFFFFF DUP6 AND OR SWAP1 SSTORE MLOAD SWAP5 DUP3 PUSH32 0x1CF3B03A6CF19FA2BABA4DF148E9DCABEDEA7F8A5C07840E207E5C089BE95D3E DUP9 DUP1 LOG2 DUP5 MLOAD ISZERO DUP1 ISZERO SWAP1 PUSH2 0x2AB JUMPI JUMPDEST PUSH2 0x242 JUMPI JUMPDEST DUP4 PUSH2 0x23C PUSH2 0x7D0 JUMP JUMPDEST DUP1 MLOAD SWAP2 ADD RETURN JUMPDEST DUP6 SWAP3 DUP4 SWAP2 DUP3 MSTORE GAS STATICCALL SWAP2 DUP3 ISZERO PUSH2 0x2A6 JUMPI PUSH2 0x26A SWAP4 SWAP3 PUSH2 0x277 JUMPI JUMPDEST POP PUSH2 0x264 PUSH2 0x9B1 JUMP JUMPDEST SWAP2 PUSH2 0xA21 JUMP JUMPDEST POP CODESIZE DUP1 DUP1 DUP4 DUP2 DUP1 DUP1 PUSH2 0x233 JUMP JUMPDEST PUSH2 0x298 SWAP2 SWAP3 POP DUP5 RETURNDATASIZE DUP7 GT PUSH2 0x29F JUMPI JUMPDEST PUSH2 0x290 DUP2 DUP4 PUSH2 0x70E JUMP JUMPDEST DUP2 ADD SWAP1 PUSH2 0x902 JUMP JUMPDEST SWAP1 CODESIZE PUSH2 0x25B JUMP JUMPDEST POP RETURNDATASIZE PUSH2 0x286 JUMP JUMPDEST PUSH2 0x91A JUMP JUMPDEST POP DUP7 PUSH2 0x22E JUMP JUMPDEST PUSH2 0x2C9 SWAP2 POP DUP7 RETURNDATASIZE DUP9 GT PUSH2 0x29F JUMPI PUSH2 0x290 DUP2 DUP4 PUSH2 0x70E JUMP JUMPDEST CODESIZE PUSH2 0x194 JUMP JUMPDEST PUSH1 0x84 DUP4 PUSH1 0x20 DUP8 MLOAD SWAP2 PUSH32 0x8C379A000000000000000000000000000000000000000000000000000000000 DUP4 MSTORE DUP3 ADD MSTORE PUSH1 0x25 PUSH1 0x24 DUP3 ADD MSTORE PUSH32 0x455243313936373A206E657720626561636F6E206973206E6F74206120636F6E PUSH1 0x44 DUP3 ADD MSTORE PUSH32 0x7472616374000000000000000000000000000000000000000000000000000000 PUSH1 0x64 DUP3 ADD MSTORE REVERT JUMPDEST DUP5 DUP8 MLOAD PUSH32 0xF92EE8A900000000000000000000000000000000000000000000000000000000 DUP2 MSTORE REVERT JUMPDEST DUP7 DUP1 REVERT JUMPDEST DUP4 DUP1 REVERT JUMPDEST PUSH20 0xFFFFFFFFFFFFFFFFFFFFFFFFFFFFFFFFFFFFFFFF DUP1 PUSH32 0xB53127684A568B3173AE13B9F8A6016E243E63B6E8EE1178D6A717850B5D6103 SLOAD AND ISZERO DUP1 ISZERO PUSH2 0xB94 JUMPI PUSH1 0x0 SWAP1 PUSH32 0xCF7A1D7700000000000000000000000000000000000000000000000000000000 PUSH32 0xFFFFFFFF00000000000000000000000000000000000000000000000000000000 DUP4 CALLDATALOAD AND EQ PUSH2 0x439 JUMPI PUSH1 0x4 PUSH1 0x40 MLOAD PUSH32 0xF92EE8A900000000000000000000000000000000000000000000000000000000 DUP2 MSTORE REVERT JUMPDEST PUSH2 0x441 PUSH2 0x1192 JUMP JUMPDEST PUSH1 0x4 SWAP3 CALLDATASIZE DUP5 GT PUSH2 0x67B JUMPI PUSH1 0x60 PUSH32 0xFFFFFFFFFFFFFFFFFFFFFFFFFFFFFFFFFFFFFFFFFFFFFFFFFFFFFFFFFFFFFFFC CALLDATASIZE ADD SLT PUSH2 0x67B JUMPI DUP4 CALLDATALOAD PUSH2 0x480 DUP2 PUSH2 0x67F JUMP JUMPDEST PUSH1 0x24 CALLDATALOAD SWAP2 PUSH2 0x48D DUP4 PUSH2 0x67F JUMP JUMPDEST PUSH1 0x44 CALLDATALOAD PUSH8 0xFFFFFFFFFFFFFFFF DUP2 GT PUSH2 0x677 JUMPI PUSH2 0x4AD DUP3 SWAP2 CALLDATASIZE SWAP1 DUP10 ADD PUSH2 0x789 JUMP JUMPDEST SWAP4 AND SWAP4 ISZERO PUSH2 0x64E JUMPI PUSH2 0x4BF SWAP2 AND PUSH2 0x7E3 JUMP JUMPDEST DUP2 EXTCODESIZE ISZERO PUSH2 0x5CA JUMPI PUSH1 0x40 MLOAD PUSH32 0x5C60DA1B00000000000000000000000000000000000000000000000000000000 SWAP3 DUP4 DUP3 MSTORE PUSH1 0x20 SWAP6 DUP7 DUP4 DUP3 DUP2 DUP6 GAS STATICCALL SWAP3 DUP4 ISZERO PUSH2 0x2A6 JUMPI DUP8 SWAP4 PUSH2 0x514 SWAP2 DUP9 SWAP2 PUSH2 0x5B3 JUMPI POP EXTCODESIZE ISZERO ISZERO PUSH2 0x926 JUMP JUMPDEST PUSH32 0xA3F0AD74E5423AEBFD80D3EF4346578335A9A72AEAEE59FF6CB3582B35133D50 DUP1 SLOAD PUSH32 0xFFFFFFFFFFFFFFFFFFFFFFFF0000000000000000000000000000000000000000 AND PUSH20 0xFFFFFFFFFFFFFFFFFFFFFFFFFFFFFFFFFFFFFFFF DUP5 AND OR SWAP1 SSTORE PUSH1 0x40 MLOAD SWAP5 DUP3 PUSH32 0x1CF3B03A6CF19FA2BABA4DF148E9DCABEDEA7F8A5C07840E207E5C089BE95D3E DUP9 DUP1 LOG2 DUP5 MLOAD ISZERO DUP1 ISZERO SWAP1 PUSH2 0x2AB JUMPI PUSH2 0x242 JUMPI DUP4 PUSH2 0x23C PUSH2 0x7D0 JUMP JUMPDEST PUSH2 0x2C9 SWAP2 POP DUP6 RETURNDATASIZE DUP8 GT PUSH2 0x29F JUMPI PUSH2 0x290 DUP2 DUP4 PUSH2 0x70E JUMP JUMPDEST PUSH1 0x84 DUP5 PUSH1 0x20 PUSH1 0x40 MLOAD SWAP2 PUSH32 0x8C379A000000000000000000000000000000000000000000000000000000000 DUP4 MSTORE DUP3 ADD MSTORE PUSH1 0x25 PUSH1 0x24 DUP3 ADD MSTORE PUSH32 0x455243313936373A206E657720626561636F6E206973206E6F74206120636F6E PUSH1 0x44 DUP3 ADD MSTORE PUSH32 0x7472616374000000000000000000000000000000000000000000000000000000 PUSH1 0x64 DUP3 ADD MSTORE REVERT JUMPDEST DUP6 PUSH1 0x40 MLOAD PUSH32 0xF92EE8A900000000000000000000000000000000000000000000000000000000 DUP2 MSTORE REVERT JUMPDEST DUP6 DUP1 REVERT JUMPDEST DUP3 DUP1 REVERT JUMPDEST PUSH20 0xFFFFFFFFFFFFFFFFFFFFFFFFFFFFFFFFFFFFFFFF DUP2 AND SUB PUSH2 0x69D JUMPI JUMP JUMPDEST PUSH1 0x0 DUP1 REVERT JUMPDEST PUSH32 0x4E487B7100000000000000000000000000000000000000000000000000000000 PUSH1 0x0 MSTORE PUSH1 0x41 PUSH1 0x4 MSTORE PUSH1 0x24 PUSH1 0x0 REVERT JUMPDEST PUSH1 0x20 DUP2 ADD SWAP1 DUP2 LT PUSH8 0xFFFFFFFFFFFFFFFF DUP3 GT OR PUSH2 0x6ED JUMPI PUSH1 0x40 MSTORE JUMP JUMPDEST PUSH2 0x6A2 JUMP JUMPDEST PUSH1 0x40 DUP2 ADD SWAP1 DUP2 LT PUSH8 0xFFFFFFFFFFFFFFFF DUP3 GT OR PUSH2 0x6ED JUMPI PUSH1 0x40 MSTORE JUMP JUMPDEST SWAP1 PUSH1 0x1F PUSH32 0xFFFFFFFFFFFFFFFFFFFFFFFFFFFFFFFFFFFFFFFFFFFFFFFFFFFFFFFFFFFFFFE0 SWAP2 ADD AND DUP2 ADD SWAP1 DUP2 LT PUSH8 0xFFFFFFFFFFFFFFFF DUP3 GT OR PUSH2 0x6ED JUMPI PUSH1 0x40 MSTORE JUMP JUMPDEST PUSH8 0xFFFFFFFFFFFFFFFF DUP2 GT PUSH2 0x6ED JUMPI PUSH1 0x1F ADD PUSH32 0xFFFFFFFFFFFFFFFFFFFFFFFFFFFFFFFFFFFFFFFFFFFFFFFFFFFFFFFFFFFFFFE0 AND PUSH1 0x20 ADD SWAP1 JUMP JUMPDEST DUP2 PUSH1 0x1F DUP3 ADD SLT ISZERO PUSH2 0x69D JUMPI DUP1 CALLDATALOAD SWAP1 PUSH2 0x7A0 DUP3 PUSH2 0x74F JUMP JUMPDEST SWAP3 PUSH2 0x7AE PUSH1 0x40 MLOAD SWAP5 DUP6 PUSH2 0x70E JUMP JUMPDEST DUP3 DUP5 MSTORE PUSH1 0x20 DUP4 DUP4 ADD ADD GT PUSH2 0x69D JUMPI DUP2 PUSH1 0x0 SWAP3 PUSH1 0x20 DUP1 SWAP4 ADD DUP4 DUP7 ADD CALLDATACOPY DUP4 ADD ADD MSTORE SWAP1 JUMP JUMPDEST PUSH1 0x40 MLOAD SWAP1 PUSH2 0x7DD DUP3 PUSH2 0x6D1 JUMP JUMPDEST PUSH1 0x0 DUP3 MSTORE JUMP JUMPDEST PUSH32 0xB53127684A568B3173AE13B9F8A6016E243E63B6E8EE1178D6A717850B5D6103 SWAP1 DUP2 SLOAD PUSH32 0x7E644D79422F17C01E4894B5F4F588D331EBFA28653D42AE832DC59E38C9798F PUSH1 0x40 DUP1 MLOAD SWAP4 PUSH20 0xFFFFFFFFFFFFFFFFFFFFFFFFFFFFFFFFFFFFFFFF SWAP1 DUP2 DUP6 AND DUP7 MSTORE AND SWAP4 DUP5 PUSH1 0x20 DUP3 ADD MSTORE LOG1 DUP2 ISZERO PUSH2 0x87E JUMPI PUSH32 0xFFFFFFFFFFFFFFFFFFFFFFFF0000000000000000000000000000000000000000 AND OR SWAP1 SSTORE JUMP JUMPDEST PUSH1 0x84 PUSH1 0x40 MLOAD PUSH32 0x8C379A000000000000000000000000000000000000000000000000000000000 DUP2 MSTORE PUSH1 0x20 PUSH1 0x4 DUP3 ADD MSTORE PUSH1 0x26 PUSH1 0x24 DUP3 ADD MSTORE PUSH32 0x455243313936373A206E65772061646D696E20697320746865207A65726F2061 PUSH1 0x44 DUP3 ADD MSTORE PUSH32 0x6464726573730000000000000000000000000000000000000000000000000000 PUSH1 0x64 DUP3 ADD MSTORE REVERT JUMPDEST SWAP1 DUP2 PUSH1 0x20 SWAP2 SUB SLT PUSH2 0x69D JUMPI MLOAD PUSH2 0x917 DUP2 PUSH2 0x67F JUMP JUMPDEST SWAP1 JUMP JUMPDEST PUSH1 0x40 MLOAD RETURNDATASIZE PUSH1 0x0 DUP3 RETURNDATACOPY RETURNDATASIZE SWAP1 REVERT JUMPDEST ISZERO PUSH2 0x92D JUMPI JUMP JUMPDEST PUSH1 0x84 PUSH1 0x40 MLOAD PUSH32 0x8C379A000000000000000000000000000000000000000000000000000000000 DUP2 MSTORE PUSH1 0x20 PUSH1 0x4 DUP3 ADD MSTORE PUSH1 0x30 PUSH1 0x24 DUP3 ADD MSTORE PUSH32 0x455243313936373A20626561636F6E20696D706C656D656E746174696F6E2069 PUSH1 0x44 DUP3 ADD MSTORE PUSH32 0x73206E6F74206120636F6E747261637400000000000000000000000000000000 PUSH1 0x64 DUP3 ADD MSTORE REVERT JUMPDEST PUSH1 0x40 MLOAD SWAP1 PUSH1 0x60 DUP3 ADD DUP3 DUP2 LT PUSH8 0xFFFFFFFFFFFFFFFF DUP3 GT OR PUSH2 0x6ED JUMPI PUSH1 0x40 MSTORE PUSH1 0x27 DUP3 MSTORE PUSH32 0x206661696C656400000000000000000000000000000000000000000000000000 PUSH1 0x40 DUP4 PUSH32 0x416464726573733A206C6F772D6C6576656C2064656C65676174652063616C6C PUSH1 0x20 DUP3 ADD MSTORE ADD MSTORE JUMP JUMPDEST PUSH1 0x0 DUP1 PUSH2 0x917 SWAP5 SWAP4 PUSH1 0x20 DUP2 MLOAD SWAP2 ADD DUP5 GAS DELEGATECALL RETURNDATASIZE ISZERO PUSH2 0xA60 JUMPI RETURNDATASIZE SWAP2 PUSH2 0xA43 DUP4 PUSH2 0x74F JUMP JUMPDEST SWAP3 PUSH2 0xA51 PUSH1 0x40 MLOAD SWAP5 DUP6 PUSH2 0x70E JUMP JUMPDEST DUP4 MSTORE RETURNDATASIZE PUSH1 0x0 PUSH1 0x20 DUP6 ADD RETURNDATACOPY PUSH2 0xACD JUMP JUMPDEST PUSH1 0x60 SWAP2 PUSH2 0xACD JUMP JUMPDEST ISZERO PUSH2 0xA6F JUMPI JUMP JUMPDEST PUSH1 0x64 PUSH1 0x40 MLOAD PUSH32 0x8C379A000000000000000000000000000000000000000000000000000000000 DUP2 MSTORE PUSH1 0x20 PUSH1 0x4 DUP3 ADD MSTORE PUSH1 0x1D PUSH1 0x24 DUP3 ADD MSTORE PUSH32 0x416464726573733A2063616C6C20746F206E6F6E2D636F6E7472616374000000 PUSH1 0x44 DUP3 ADD MSTORE REVERT JUMPDEST SWAP2 SWAP3 SWAP1 ISZERO PUSH2 0xAED JUMPI POP DUP2 MLOAD ISZERO PUSH2 0xAE1 JUMPI POP SWAP1 JUMP JUMPDEST PUSH2 0x917 SWAP1 EXTCODESIZE ISZERO ISZERO PUSH2 0xA68 JUMP JUMPDEST DUP3 MLOAD SWAP1 SWAP2 POP ISZERO PUSH2 0xB00 JUMPI POP DUP1 MLOAD SWAP1 PUSH1 0x20 ADD REVERT JUMPDEST PUSH1 0x40 MLOAD SWAP1 PUSH32 0x8C379A000000000000000000000000000000000000000000000000000000000 DUP3 MSTORE DUP2 PUSH1 0x20 DUP1 PUSH1 0x4 DUP4 ADD MSTORE DUP3 MLOAD SWAP3 DUP4 PUSH1 0x24 DUP5 ADD MSTORE PUSH1 0x0 JUMPDEST DUP5 DUP2 LT PUSH2 0xB7D JUMPI POP POP POP PUSH32 0xFFFFFFFFFFFFFFFFFFFFFFFFFFFFFFFFFFFFFFFFFFFFFFFFFFFFFFFFFFFFFFE0 PUSH1 0x1F DUP4 PUSH1 0x0 PUSH1 0x44 DUP1 SWAP7 DUP7 ADD ADD MSTORE ADD AND DUP2 ADD SUB ADD SWAP1 REVERT JUMPDEST DUP2 DUP2 ADD DUP4 ADD MLOAD DUP7 DUP3 ADD PUSH1 0x44 ADD MSTORE DUP6 SWAP4 POP DUP3 ADD PUSH2 0xB3C JUMP JUMPDEST PUSH2 0xBEE PUSH2 0xBD5 PUSH32 0xB53127684A568B3173AE13B9F8A6016E243E63B6E8EE1178D6A717850B5D6103 SLOAD PUSH20 0xFFFFFFFFFFFFFFFFFFFFFFFFFFFFFFFFFFFFFFFF AND SWAP1 JUMP JUMPDEST PUSH20 0xFFFFFFFFFFFFFFFFFFFFFFFFFFFFFFFFFFFFFFFF AND SWAP1 JUMP JUMPDEST CALLER SUB PUSH2 0xD14 JUMPI PUSH1 0x0 CALLDATALOAD PUSH32 0xFFFFFFFF00000000000000000000000000000000000000000000000000000000 AND PUSH32 0x3659CFE600000000000000000000000000000000000000000000000000000000 DUP2 SUB PUSH2 0xC51 JUMPI POP PUSH2 0xC49 PUSH2 0xF0F JUMP JUMPDEST PUSH1 0x20 DUP2 MLOAD SWAP2 ADD RETURN JUMPDEST PUSH32 0x4F1EF28600000000000000000000000000000000000000000000000000000000 DUP2 SUB PUSH2 0xC86 JUMPI POP PUSH2 0xC81 PUSH2 0x1083 JUMP JUMPDEST PUSH2 0xC49 JUMP JUMPDEST PUSH32 0x8F28397000000000000000000000000000000000000000000000000000000000 DUP2 SUB PUSH2 0xCB6 JUMPI POP PUSH2 0xC81 PUSH2 0xEC5 JUMP JUMPDEST PUSH32 0xF851A44000000000000000000000000000000000000000000000000000000000 DUP2 SUB PUSH2 0xCE6 JUMPI POP PUSH2 0xC81 PUSH2 0xDFD JUMP JUMPDEST PUSH32 0x5C60DA1B00000000000000000000000000000000000000000000000000000000 SUB PUSH2 0xD14 JUMPI PUSH2 0xC81 PUSH2 0xE53 JUMP JUMPDEST PUSH2 0xD1C PUSH2 0xD3B JUMP JUMPDEST PUSH1 0x0 DUP1 DUP1 SWAP3 CALLDATASIZE DUP3 DUP1 CALLDATACOPY DUP2 CALLDATASIZE SWAP2 GAS DELEGATECALL RETURNDATASIZE DUP3 DUP1 RETURNDATACOPY ISZERO PUSH2 0xD37 JUMPI RETURNDATASIZE SWAP1 RETURN JUMPDEST RETURNDATASIZE SWAP1 REVERT JUMPDEST PUSH20 0xFFFFFFFFFFFFFFFFFFFFFFFFFFFFFFFFFFFFFFFF DUP1 PUSH32 0x360894A13BA1A3210667C828492DB98DCA3E2076CC3735A920A3CA505D382BBC SLOAD AND DUP1 PUSH2 0xDF8 JUMPI POP PUSH1 0x20 PUSH1 0x4 SWAP2 PUSH32 0xA3F0AD74E5423AEBFD80D3EF4346578335A9A72AEAEE59FF6CB3582B35133D50 SLOAD AND PUSH1 0x40 MLOAD SWAP3 DUP4 DUP1 SWAP3 PUSH32 0x5C60DA1B00000000000000000000000000000000000000000000000000000000 DUP3 MSTORE GAS STATICCALL SWAP1 DUP2 ISZERO PUSH2 0x2A6 JUMPI PUSH1 0x0 SWAP2 PUSH2 0xDE0 JUMPI POP SWAP1 JUMP JUMPDEST PUSH2 0x917 SWAP2 POP PUSH1 0x20 RETURNDATASIZE DUP2 GT PUSH2 0x29F JUMPI PUSH2 0x290 DUP2 DUP4 PUSH2 0x70E JUMP JUMPDEST SWAP1 POP SWAP1 JUMP JUMPDEST PUSH2 0xE05 PUSH2 0x1192 JUMP JUMPDEST PUSH20 0xFFFFFFFFFFFFFFFFFFFFFFFFFFFFFFFFFFFFFFFF PUSH32 0xB53127684A568B3173AE13B9F8A6016E243E63B6E8EE1178D6A717850B5D6103 SLOAD AND PUSH1 0x40 MLOAD SWAP1 PUSH1 0x20 DUP3 ADD MSTORE PUSH1 0x20 DUP2 MSTORE PUSH2 0x917 DUP2 PUSH2 0x6F2 JUMP JUMPDEST PUSH2 0xE5B PUSH2 0x1192 JUMP JUMPDEST PUSH2 0xE63 PUSH2 0xD3B JUMP JUMPDEST PUSH20 0xFFFFFFFFFFFFFFFFFFFFFFFFFFFFFFFFFFFFFFFF PUSH1 0x40 MLOAD SWAP2 AND PUSH1 0x20 DUP3 ADD MSTORE PUSH1 0x20 DUP2 MSTORE PUSH2 0x917 DUP2 PUSH2 0x6F2 JUMP JUMPDEST PUSH32 0xFFFFFFFFFFFFFFFFFFFFFFFFFFFFFFFFFFFFFFFFFFFFFFFFFFFFFFFFFFFFFFFC PUSH1 0x20 SWAP2 ADD SLT PUSH2 0x69D JUMPI PUSH1 0x4 CALLDATALOAD PUSH2 0x917 DUP2 PUSH2 0x67F JUMP JUMPDEST PUSH2 0xECD PUSH2 0x1192 JUMP JUMPDEST CALLDATASIZE PUSH1 0x4 GT PUSH2 0x69D JUMPI PUSH2 0xEFC PUSH20 0xFFFFFFFFFFFFFFFFFFFFFFFFFFFFFFFFFFFFFFFF PUSH2 0xEF6 CALLDATASIZE PUSH2 0xE8F JUMP JUMPDEST AND PUSH2 0x7E3 JUMP JUMPDEST PUSH1 0x40 MLOAD PUSH2 0xF08 DUP2 PUSH2 0x6D1 JUMP JUMPDEST PUSH1 0x0 DUP2 MSTORE SWAP1 JUMP JUMPDEST PUSH2 0xF17 PUSH2 0x1192 JUMP JUMPDEST CALLDATASIZE PUSH1 0x4 GT PUSH2 0x69D JUMPI PUSH20 0xFFFFFFFFFFFFFFFFFFFFFFFFFFFFFFFFFFFFFFFF PUSH2 0xF3D CALLDATASIZE PUSH2 0xE8F JUMP JUMPDEST AND PUSH1 0x40 MLOAD SWAP1 PUSH2 0xF4B DUP3 PUSH2 0x6D1 JUMP JUMPDEST PUSH1 0x0 DUP3 MSTORE DUP1 EXTCODESIZE ISZERO PUSH2 0xFFF JUMPI PUSH32 0x360894A13BA1A3210667C828492DB98DCA3E2076CC3735A920A3CA505D382BBC DUP2 PUSH32 0xFFFFFFFFFFFFFFFFFFFFFFFF0000000000000000000000000000000000000000 DUP3 SLOAD AND OR SWAP1 SSTORE DUP1 PUSH32 0xBC7CD75A20EE27FD9ADEBAB32041F755214DBC6BFFA90CC0225B39DA2E5C2D3B PUSH1 0x0 DUP1 LOG2 DUP2 MLOAD ISZERO DUP1 ISZERO SWAP1 PUSH2 0xFF7 JUMPI JUMPDEST PUSH2 0xFE3 JUMPI JUMPDEST POP POP PUSH1 0x40 MLOAD PUSH2 0xF08 DUP2 PUSH2 0x6D1 JUMP JUMPDEST PUSH2 0xFEF SWAP2 PUSH2 0x264 PUSH2 0x9B1 JUMP JUMPDEST POP CODESIZE DUP1 PUSH2 0xFD5 JUMP JUMPDEST POP PUSH1 0x0 PUSH2 0xFD0 JUMP JUMPDEST PUSH1 0x84 PUSH1 0x40 MLOAD PUSH32 0x8C379A000000000000000000000000000000000000000000000000000000000 DUP2 MSTORE PUSH1 0x20 PUSH1 0x4 DUP3 ADD MSTORE PUSH1 0x2D PUSH1 0x24 DUP3 ADD MSTORE PUSH32 0x455243313936373A206E657720696D706C656D656E746174696F6E206973206E PUSH1 0x44 DUP3 ADD MSTORE PUSH32 0x6F74206120636F6E747261637400000000000000000000000000000000000000 PUSH1 0x64 DUP3 ADD MSTORE REVERT JUMPDEST CALLDATASIZE PUSH1 0x4 GT PUSH2 0x69D JUMPI PUSH1 0x40 PUSH32 0xFFFFFFFFFFFFFFFFFFFFFFFFFFFFFFFFFFFFFFFFFFFFFFFFFFFFFFFFFFFFFFFC CALLDATASIZE ADD SLT PUSH2 0x69D JUMPI PUSH1 0x4 CALLDATALOAD PUSH2 0x10C1 DUP2 PUSH2 0x67F JUMP JUMPDEST PUSH1 0x24 CALLDATALOAD PUSH8 0xFFFFFFFFFFFFFFFF DUP2 GT PUSH2 0x69D JUMPI PUSH2 0x10F6 PUSH20 0xFFFFFFFFFFFFFFFFFFFFFFFFFFFFFFFFFFFFFFFF SWAP2 CALLDATASIZE SWAP1 PUSH1 0x4 ADD PUSH2 0x789 JUMP JUMPDEST SWAP2 AND DUP1 EXTCODESIZE ISZERO PUSH2 0xFFF JUMPI PUSH32 0x360894A13BA1A3210667C828492DB98DCA3E2076CC3735A920A3CA505D382BBC DUP2 PUSH32 0xFFFFFFFFFFFFFFFFFFFFFFFF0000000000000000000000000000000000000000 DUP3 SLOAD AND OR SWAP1 SSTORE DUP1 PUSH32 0xBC7CD75A20EE27FD9ADEBAB32041F755214DBC6BFFA90CC0225B39DA2E5C2D3B PUSH1 0x0 DUP1 LOG2 DUP2 MLOAD ISZERO DUP1 ISZERO SWAP1 PUSH2 0x118A JUMPI PUSH2 0xFE3 JUMPI POP POP PUSH1 0x40 MLOAD PUSH2 0xF08 DUP2 PUSH2 0x6D1 JUMP JUMPDEST POP PUSH1 0x1 PUSH2 0xFD0 JUMP JUMPDEST CALLVALUE PUSH2 0x69D JUMPI JUMP INVALID LOG2 PUSH5 0x6970667358 0x22 SLT KECCAK256 GAS REVERT 0xFC CALLCODE 0xDB 0x2F 0x24 0x2D SHR SWAP1 0xFC GASLIMIT 0x24 SELFDESTRUCT XOR COINBASE 0xDA CALLDATACOPY COINBASE SWAP8 CODESIZE DUP1 0x5E 0xE0 JUMPI SHL 0xD2 PUSH21 0x4B6196CE64736F6C63430008130033A26469706673 PC 0x22 SLT KECCAK256 0xCC 0x1F OR 0xEF ADDMOD SHL 0xA9 CREATE TIMESTAMP 0xDB 0xB3 EXP 0xEE 0xE8 0x4C DUP14 BYTE STATICCALL PUSH20 0x1998ED555149F6AE73892B120264736F6C634300 ADDMOD SGT STOP CALLER PUSH1 0x80 CALLVALUE PUSH2 0x11A JUMPI PUSH1 0x1F PUSH2 0x5EE CODESIZE DUP2 SWAP1 SUB SWAP2 DUP3 ADD PUSH1 0x1F NOT AND DUP4 ADD SWAP2 PUSH1 0x1 PUSH1 0x1 PUSH1 0x40 SHL SUB DUP4 GT DUP5 DUP5 LT OR PUSH2 0x11F JUMPI DUP1 DUP5 SWAP3 PUSH1 0x20 SWAP5 PUSH1 0x40 MSTORE DUP4 CODECOPY DUP2 ADD SUB SLT PUSH2 0x11A JUMPI MLOAD PUSH1 0x1 PUSH1 0x1 PUSH1 0xA0 SHL SUB DUP1 DUP3 AND SWAP2 SWAP1 DUP3 DUP3 SUB PUSH2 0x11A JUMPI PUSH1 0x0 SLOAD SWAP2 PUSH1 0x1 DUP1 PUSH1 0xA0 SHL SUB NOT SWAP3 CALLER DUP5 DUP3 AND OR PUSH1 0x0 SSTORE PUSH1 0x40 MLOAD SWAP3 CALLER SWAP2 AND PUSH32 0x8BE0079C531659141344CD1FD0A4F28419497F9722A3DAAFE3B4186F6B6457E0 PUSH1 0x0 DUP1 LOG3 EXTCODESIZE ISZERO PUSH2 0xB2 JUMPI POP PUSH1 0x1 SLOAD AND OR PUSH1 0x1 SSTORE PUSH1 0x40 MLOAD PUSH2 0x4B8 SWAP1 DUP2 PUSH2 0x136 DUP3 CODECOPY RETURN JUMPDEST PUSH3 0x461BCD PUSH1 0xE5 SHL DUP2 MSTORE PUSH1 0x20 PUSH1 0x4 DUP3 ADD MSTORE PUSH1 0x33 PUSH1 0x24 DUP3 ADD MSTORE PUSH32 0x5570677261646561626C65426561636F6E3A20696D706C656D656E746174696F PUSH1 0x44 DUP3 ADD MSTORE PUSH32 0x6E206973206E6F74206120636F6E747261637400000000000000000000000000 PUSH1 0x64 DUP3 ADD MSTORE PUSH1 0x84 SWAP1 REVERT JUMPDEST PUSH1 0x0 DUP1 REVERT JUMPDEST PUSH4 0x4E487B71 PUSH1 0xE0 SHL PUSH1 0x0 MSTORE PUSH1 0x41 PUSH1 0x4 MSTORE PUSH1 0x24 PUSH1 0x0 REVERT INVALID PUSH1 0x80 PUSH1 0x40 MSTORE PUSH1 0x4 CALLDATASIZE LT ISZERO PUSH2 0x12 JUMPI PUSH1 0x0 DUP1 REVERT JUMPDEST PUSH1 0x0 DUP1 CALLDATALOAD PUSH1 0xE0 SHR DUP1 PUSH4 0x3659CFE6 EQ PUSH2 0x2CE JUMPI DUP1 PUSH4 0x5C60DA1B EQ PUSH2 0x27C JUMPI DUP1 PUSH4 0x715018A6 EQ PUSH2 0x1E0 JUMPI DUP1 PUSH4 0x8DA5CB5B EQ PUSH2 0x18F JUMPI PUSH4 0xF2FDE38B EQ PUSH2 0x54 JUMPI PUSH1 0x0 DUP1 REVERT JUMPDEST CALLVALUE PUSH2 0x18C JUMPI PUSH1 0x20 PUSH32 0xFFFFFFFFFFFFFFFFFFFFFFFFFFFFFFFFFFFFFFFFFFFFFFFFFFFFFFFFFFFFFFFC CALLDATASIZE ADD SLT PUSH2 0x18C JUMPI PUSH1 0x4 CALLDATALOAD PUSH20 0xFFFFFFFFFFFFFFFFFFFFFFFFFFFFFFFFFFFFFFFF DUP1 DUP3 AND DUP1 SWAP3 SUB PUSH2 0x188 JUMPI PUSH2 0xAD PUSH2 0x403 JUMP JUMPDEST DUP2 ISZERO PUSH2 0x104 JUMPI DUP3 SLOAD DUP3 PUSH32 0xFFFFFFFFFFFFFFFFFFFFFFFF0000000000000000000000000000000000000000 DUP3 AND OR DUP5 SSTORE AND PUSH32 0x8BE0079C531659141344CD1FD0A4F28419497F9722A3DAAFE3B4186F6B6457E0 DUP4 DUP1 LOG3 DUP1 RETURN JUMPDEST PUSH1 0x84 PUSH1 0x40 MLOAD PUSH32 0x8C379A000000000000000000000000000000000000000000000000000000000 DUP2 MSTORE PUSH1 0x20 PUSH1 0x4 DUP3 ADD MSTORE PUSH1 0x26 PUSH1 0x24 DUP3 ADD MSTORE PUSH32 0x4F776E61626C653A206E6577206F776E657220697320746865207A65726F2061 PUSH1 0x44 DUP3 ADD MSTORE PUSH32 0x6464726573730000000000000000000000000000000000000000000000000000 PUSH1 0x64 DUP3 ADD MSTORE REVERT JUMPDEST DUP3 DUP1 REVERT JUMPDEST DUP1 REVERT JUMPDEST POP CALLVALUE PUSH2 0x18C JUMPI DUP1 PUSH32 0xFFFFFFFFFFFFFFFFFFFFFFFFFFFFFFFFFFFFFFFFFFFFFFFFFFFFFFFFFFFFFFFC CALLDATASIZE ADD SLT PUSH2 0x18C JUMPI PUSH20 0xFFFFFFFFFFFFFFFFFFFFFFFFFFFFFFFFFFFFFFFF PUSH1 0x20 SWAP2 SLOAD AND PUSH1 0x40 MLOAD SWAP1 DUP2 MSTORE RETURN JUMPDEST POP CALLVALUE PUSH2 0x18C JUMPI DUP1 PUSH32 0xFFFFFFFFFFFFFFFFFFFFFFFFFFFFFFFFFFFFFFFFFFFFFFFFFFFFFFFFFFFFFFFC CALLDATASIZE ADD SLT PUSH2 0x18C JUMPI PUSH2 0x217 PUSH2 0x403 JUMP JUMPDEST DUP1 PUSH20 0xFFFFFFFFFFFFFFFFFFFFFFFFFFFFFFFFFFFFFFFF DUP2 SLOAD PUSH32 0xFFFFFFFFFFFFFFFFFFFFFFFF0000000000000000000000000000000000000000 DUP2 AND DUP4 SSTORE AND PUSH32 0x8BE0079C531659141344CD1FD0A4F28419497F9722A3DAAFE3B4186F6B6457E0 DUP3 DUP1 LOG3 DUP1 RETURN JUMPDEST POP CALLVALUE PUSH2 0x18C JUMPI DUP1 PUSH32 0xFFFFFFFFFFFFFFFFFFFFFFFFFFFFFFFFFFFFFFFFFFFFFFFFFFFFFFFFFFFFFFFC CALLDATASIZE ADD SLT PUSH2 0x18C JUMPI PUSH1 0x20 PUSH20 0xFFFFFFFFFFFFFFFFFFFFFFFFFFFFFFFFFFFFFFFF PUSH1 0x1 SLOAD AND PUSH1 0x40 MLOAD SWAP1 DUP2 MSTORE RETURN JUMPDEST POP CALLVALUE PUSH2 0x18C JUMPI PUSH1 0x20 PUSH32 0xFFFFFFFFFFFFFFFFFFFFFFFFFFFFFFFFFFFFFFFFFFFFFFFFFFFFFFFFFFFFFFFC CALLDATASIZE ADD SLT PUSH2 0x18C JUMPI PUSH1 0x4 CALLDATALOAD PUSH20 0xFFFFFFFFFFFFFFFFFFFFFFFFFFFFFFFFFFFFFFFF DUP2 AND SWAP1 DUP2 DUP2 SUB PUSH2 0x188 JUMPI PUSH2 0x328 PUSH2 0x403 JUMP JUMPDEST EXTCODESIZE ISZERO PUSH2 0x37F JUMPI DUP1 PUSH32 0xFFFFFFFFFFFFFFFFFFFFFFFF0000000000000000000000000000000000000000 PUSH1 0x1 SLOAD AND OR PUSH1 0x1 SSTORE PUSH32 0xBC7CD75A20EE27FD9ADEBAB32041F755214DBC6BFFA90CC0225B39DA2E5C2D3B DUP3 DUP1 LOG2 DUP1 RETURN JUMPDEST PUSH1 0x84 PUSH1 0x40 MLOAD PUSH32 0x8C379A000000000000000000000000000000000000000000000000000000000 DUP2 MSTORE PUSH1 0x20 PUSH1 0x4 DUP3 ADD MSTORE PUSH1 0x33 PUSH1 0x24 DUP3 ADD MSTORE PUSH32 0x5570677261646561626C65426561636F6E3A20696D706C656D656E746174696F PUSH1 0x44 DUP3 ADD MSTORE PUSH32 0x6E206973206E6F74206120636F6E747261637400000000000000000000000000 PUSH1 0x64 DUP3 ADD MSTORE REVERT JUMPDEST PUSH20 0xFFFFFFFFFFFFFFFFFFFFFFFFFFFFFFFFFFFFFFFF PUSH1 0x0 SLOAD AND CALLER SUB PUSH2 0x424 JUMPI JUMP JUMPDEST PUSH1 0x64 PUSH1 0x40 MLOAD PUSH32 0x8C379A000000000000000000000000000000000000000000000000000000000 DUP2 MSTORE PUSH1 0x20 PUSH1 0x4 DUP3 ADD MSTORE PUSH1 0x20 PUSH1 0x24 DUP3 ADD MSTORE PUSH32 0x4F776E61626C653A2063616C6C6572206973206E6F7420746865206F776E6572 PUSH1 0x44 DUP3 ADD MSTORE REVERT INVALID LOG2 PUSH5 0x6970667358 0x22 SLT KECCAK256 0xEE MUL 0xA7 0xCC SWAP11 0xDA 0xE6 DUP6 PUSH5 0xFEDA649341 PUSH17 0xF02F3F12A55B74647721BABA4FB3661571 PUSH5 0x736F6C6343 STOP ADDMOD SGT STOP CALLER PUSH1 0xA0 PUSH1 0x40 MSTORE CALLVALUE PUSH3 0x2EC JUMPI PUSH3 0x14 PUSH3 0x2F1 JUMP JUMPDEST PUSH3 0x1E PUSH3 0x2F1 JUMP JUMPDEST DUP2 MLOAD SWAP1 SWAP2 PUSH1 0x1 PUSH1 0x1 PUSH1 0x40 SHL SUB SWAP1 DUP2 DUP4 GT PUSH3 0x1ED JUMPI PUSH1 0x5 SWAP4 DUP5 SLOAD SWAP2 PUSH1 0x1 SWAP5 DUP6 DUP5 DUP2 SHR SWAP5 AND SWAP2 DUP3 ISZERO PUSH3 0x2E1 JUMPI JUMPDEST PUSH1 0x20 SWAP3 DUP4 DUP7 LT EQ PUSH3 0x2CB JUMPI DUP2 SWAP1 PUSH1 0x1F SWAP6 DUP7 DUP2 GT PUSH3 0x277 JUMPI JUMPDEST POP DUP4 SWAP1 DUP7 DUP4 GT PUSH1 0x1 EQ PUSH3 0x20F JUMPI PUSH1 0x0 SWAP3 PUSH3 0x203 JUMPI JUMPDEST POP POP PUSH1 0x0 NOT PUSH1 0x3 DUP4 SWAP1 SHL SHR NOT AND SWAP1 DUP7 SHL OR DUP7 SSTORE JUMPDEST DUP2 MLOAD SWAP4 DUP5 GT PUSH3 0x1ED JUMPI PUSH1 0x4 SWAP6 DUP7 SLOAD SWAP1 DUP7 DUP3 DUP2 SHR SWAP3 AND DUP1 ISZERO PUSH3 0x1E2 JUMPI JUMPDEST DUP4 DUP4 LT EQ PUSH3 0x1CD JUMPI DUP5 DUP3 GT PUSH3 0x184 JUMPI JUMPDEST POP POP DUP1 SWAP3 DUP5 GT PUSH1 0x1 EQ PUSH3 0x119 JUMPI POP SWAP3 DUP3 SWAP4 SWAP2 DUP4 SWAP3 PUSH1 0x0 SWAP5 PUSH3 0x10D JUMPI JUMPDEST POP POP SHL SWAP2 PUSH1 0x0 NOT SWAP1 PUSH1 0x3 SHL SHR NOT AND OR SWAP1 SSTORE JUMPDEST CALLER PUSH1 0x80 MSTORE PUSH1 0x40 MLOAD PUSH2 0x3E4F SWAP1 DUP2 PUSH3 0x316 DUP3 CODECOPY PUSH1 0x80 MLOAD DUP2 PUSH2 0x24B ADD MSTORE RETURN JUMPDEST ADD MLOAD SWAP3 POP CODESIZE DUP1 PUSH3 0xDE JUMP JUMPDEST SWAP2 SWAP1 DUP4 PUSH1 0x1F NOT DUP2 AND DUP8 PUSH1 0x0 MSTORE DUP5 PUSH1 0x0 KECCAK256 SWAP5 PUSH1 0x0 SWAP1 JUMPDEST DUP9 DUP4 DUP4 LT PUSH3 0x169 JUMPI POP POP POP LT PUSH3 0x14F JUMPI JUMPDEST POP POP POP DUP2 SHL ADD SWAP1 SSTORE PUSH3 0xF0 JUMP JUMPDEST ADD MLOAD PUSH1 0x0 NOT PUSH1 0xF8 DUP5 PUSH1 0x3 SHL AND SHR NOT AND SWAP1 SSTORE CODESIZE DUP1 DUP1 PUSH3 0x141 JUMP JUMPDEST DUP6 DUP8 ADD MLOAD DUP9 SSTORE SWAP1 SWAP7 ADD SWAP6 SWAP5 DUP6 ADD SWAP5 DUP8 SWAP4 POP SWAP1 DUP2 ADD SWAP1 PUSH3 0x12E JUMP JUMPDEST DUP8 PUSH1 0x0 MSTORE DUP3 PUSH1 0x0 KECCAK256 SWAP1 DUP6 DUP1 DUP9 ADD DUP3 SHR DUP4 ADD SWAP4 DUP6 DUP10 LT PUSH3 0x1C3 JUMPI JUMPDEST ADD SWAP1 SHR ADD SWAP1 DUP7 SWAP1 JUMPDEST DUP3 DUP2 LT PUSH3 0x1B6 JUMPI POP PUSH3 0xC0 JUMP JUMPDEST PUSH1 0x0 DUP2 SSTORE ADD DUP7 SWAP1 PUSH3 0x1A7 JUMP JUMPDEST SWAP4 POP DUP3 SWAP4 PUSH3 0x19F JUMP JUMPDEST PUSH1 0x22 DUP9 PUSH4 0x4E487B71 PUSH1 0xE0 SHL PUSH1 0x0 MSTORE MSTORE PUSH1 0x24 PUSH1 0x0 REVERT JUMPDEST SWAP2 PUSH1 0x7F AND SWAP2 PUSH3 0xAE JUMP JUMPDEST PUSH4 0x4E487B71 PUSH1 0xE0 SHL PUSH1 0x0 MSTORE PUSH1 0x41 PUSH1 0x4 MSTORE PUSH1 0x24 PUSH1 0x0 REVERT JUMPDEST ADD MLOAD SWAP1 POP CODESIZE DUP1 PUSH3 0x7C JUMP JUMPDEST SWAP1 DUP9 SWAP4 POP PUSH1 0x1F NOT DUP4 AND SWAP2 DUP11 PUSH1 0x0 MSTORE DUP6 PUSH1 0x0 KECCAK256 SWAP3 PUSH1 0x0 JUMPDEST DUP8 DUP3 DUP3 LT PUSH3 0x260 JUMPI POP POP DUP5 GT PUSH3 0x246 JUMPI JUMPDEST POP POP POP DUP2 SHL ADD DUP7 SSTORE PUSH3 0x90 JUMP JUMPDEST ADD MLOAD PUSH1 0x0 NOT PUSH1 0xF8 DUP5 PUSH1 0x3 SHL AND SHR NOT AND SWAP1 SSTORE CODESIZE DUP1 DUP1 PUSH3 0x238 JUMP JUMPDEST DUP4 DUP6 ADD MLOAD DUP7 SSTORE DUP13 SWAP8 SWAP1 SWAP6 ADD SWAP5 SWAP4 DUP5 ADD SWAP4 ADD PUSH3 0x225 JUMP JUMPDEST SWAP1 SWAP2 POP DUP9 PUSH1 0x0 MSTORE DUP4 PUSH1 0x0 KECCAK256 DUP7 DUP1 DUP6 ADD DUP12 SHR DUP3 ADD SWAP3 DUP7 DUP7 LT PUSH3 0x2C1 JUMPI JUMPDEST SWAP2 DUP11 SWAP2 DUP7 SWAP6 SWAP5 SWAP4 ADD DUP13 SHR ADD SWAP2 JUMPDEST DUP3 DUP2 LT PUSH3 0x2B1 JUMPI POP POP PUSH3 0x65 JUMP JUMPDEST PUSH1 0x0 DUP2 SSTORE DUP6 SWAP5 POP DUP11 SWAP2 ADD PUSH3 0x2A1 JUMP JUMPDEST SWAP3 POP DUP2 SWAP3 PUSH3 0x294 JUMP JUMPDEST PUSH4 0x4E487B71 PUSH1 0xE0 SHL PUSH1 0x0 MSTORE PUSH1 0x22 PUSH1 0x4 MSTORE PUSH1 0x24 PUSH1 0x0 REVERT JUMPDEST SWAP4 PUSH1 0x7F AND SWAP4 PUSH3 0x4B JUMP JUMPDEST PUSH1 0x0 DUP1 REVERT JUMPDEST PUSH1 0x40 MLOAD SWAP1 PUSH1 0x20 DUP3 ADD PUSH1 0x1 PUSH1 0x1 PUSH1 0x40 SHL SUB DUP2 GT DUP4 DUP3 LT OR PUSH3 0x1ED JUMPI PUSH1 0x40 MSTORE PUSH1 0x0 DUP3 MSTORE JUMP INVALID PUSH1 0x80 DUP1 PUSH1 0x40 MSTORE PUSH1 0x4 CALLDATASIZE LT ISZERO PUSH2 0x13 JUMPI PUSH1 0x0 DUP1 REVERT JUMPDEST PUSH1 0x0 CALLDATALOAD PUSH1 0xE0 SHR SWAP1 DUP2 PUSH3 0xFDD58E EQ PUSH2 0x2A7E JUMPI POP DUP1 PUSH4 0x1FFC9A7 EQ PUSH2 0x29DF JUMPI DUP1 PUSH4 0x4634D8D EQ PUSH2 0x299D JUMPI DUP1 PUSH4 0x6FDDE03 EQ PUSH2 0x28F7 JUMPI DUP1 PUSH4 0xB5EE006 EQ PUSH2 0x277E JUMPI DUP1 PUSH4 0xE89341C EQ PUSH2 0x2618 JUMPI DUP1 PUSH4 0x18160DDD EQ PUSH2 0x25FA JUMPI DUP1 PUSH4 0x20EC271B EQ PUSH2 0x24C1 JUMPI DUP1 PUSH4 0x248A9CA3 EQ PUSH2 0x2492 JUMPI DUP1 PUSH4 0x2693EBF2 EQ PUSH2 0x2466 JUMPI DUP1 PUSH4 0x2A55205A EQ PUSH2 0x2383 JUMPI DUP1 PUSH4 0x2EB2C2D6 EQ PUSH2 0x1EBF JUMPI DUP1 PUSH4 0x2F2FF15D EQ PUSH2 0x1DCB JUMPI DUP1 PUSH4 0x36568ABE EQ PUSH2 0x1D05 JUMPI DUP1 PUSH4 0x4E1273F4 EQ PUSH2 0x1B16 JUMPI DUP1 PUSH4 0x5944C753 EQ PUSH2 0x19F8 JUMPI DUP1 PUSH4 0x6C0360EB EQ PUSH2 0x1952 JUMPI DUP1 PUSH4 0x731133E9 EQ PUSH2 0x1800 JUMPI DUP1 PUSH4 0x7E518EC8 EQ PUSH2 0x1686 JUMPI DUP1 PUSH4 0x9010D07C EQ PUSH2 0x1633 JUMPI DUP1 PUSH4 0x91D14854 EQ PUSH2 0x15D8 JUMPI DUP1 PUSH4 0x938E3D7B EQ PUSH2 0x145E JUMPI DUP1 PUSH4 0xA217FDDF EQ PUSH2 0x1442 JUMPI DUP1 PUSH4 0xA22CB465 EQ PUSH2 0x1391 JUMPI DUP1 PUSH4 0xB390C0AB EQ PUSH2 0x1302 JUMPI DUP1 PUSH4 0xB48AB8B6 EQ PUSH2 0xFF0 JUMPI DUP1 PUSH4 0xCA15C873 EQ PUSH2 0xFC4 JUMPI DUP1 PUSH4 0xD547741F EQ PUSH2 0xF83 JUMPI DUP1 PUSH4 0xE8A3D485 EQ PUSH2 0xE7F JUMPI DUP1 PUSH4 0xE985E9C5 EQ PUSH2 0xE1B JUMPI DUP1 PUSH4 0xF242432A EQ PUSH2 0xA8F JUMPI PUSH4 0xF8954818 EQ PUSH2 0x17E JUMPI PUSH1 0x0 DUP1 REVERT JUMPDEST CALLVALUE PUSH2 0xA8A JUMPI PUSH1 0xC0 PUSH1 0x3 NOT CALLDATASIZE ADD SLT PUSH2 0xA8A JUMPI PUSH2 0x197 PUSH2 0x2ACE JUMP JUMPDEST PUSH1 0x24 CALLDATALOAD PUSH8 0xFFFFFFFFFFFFFFFF DUP2 GT PUSH2 0xA8A JUMPI PUSH2 0x1B7 SWAP1 CALLDATASIZE SWAP1 PUSH1 0x4 ADD PUSH2 0x2C26 JUMP JUMPDEST SWAP1 PUSH1 0x44 CALLDATALOAD PUSH8 0xFFFFFFFFFFFFFFFF DUP2 GT PUSH2 0xA8A JUMPI PUSH2 0x1D8 SWAP1 CALLDATASIZE SWAP1 PUSH1 0x4 ADD PUSH2 0x2C26 JUMP JUMPDEST SWAP1 PUSH1 0x64 CALLDATALOAD PUSH8 0xFFFFFFFFFFFFFFFF DUP2 GT PUSH2 0xA8A JUMPI PUSH2 0x1F9 SWAP1 CALLDATASIZE SWAP1 PUSH1 0x4 ADD PUSH2 0x2C26 JUMP JUMPDEST SWAP1 PUSH20 0xFFFFFFFFFFFFFFFFFFFFFFFFFFFFFFFFFFFFFFFF PUSH1 0x84 CALLDATALOAD AND PUSH1 0x84 CALLDATALOAD SUB PUSH2 0xA8A JUMPI PUSH12 0xFFFFFFFFFFFFFFFFFFFFFFFF PUSH1 0xA4 CALLDATALOAD AND PUSH1 0xA4 CALLDATALOAD SUB PUSH2 0xA8A JUMPI PUSH20 0xFFFFFFFFFFFFFFFFFFFFFFFFFFFFFFFFFFFFFFFF PUSH32 0x0 AND CALLER EQ DUP1 ISZERO SWAP1 PUSH2 0xA7E JUMPI JUMPDEST PUSH2 0xA54 JUMPI DUP4 MLOAD PUSH8 0xFFFFFFFFFFFFFFFF DUP2 GT PUSH2 0x7FF JUMPI PUSH2 0x295 PUSH1 0x5 SLOAD PUSH2 0x2B14 JUMP JUMPDEST PUSH1 0x1F DUP2 GT PUSH2 0x9B1 JUMPI JUMPDEST POP PUSH1 0x20 SWAP5 PUSH1 0x1F DUP3 GT PUSH1 0x1 EQ PUSH2 0x92D JUMPI SWAP5 DUP2 SWAP3 SWAP4 SWAP5 SWAP6 PUSH1 0x0 SWAP3 PUSH2 0x922 JUMPI JUMPDEST POP POP PUSH1 0x0 NOT DUP3 PUSH1 0x1 SHL SWAP3 PUSH1 0x3 SHL SHR NOT AND OR PUSH1 0x5 SSTORE JUMPDEST DUP3 MLOAD PUSH8 0xFFFFFFFFFFFFFFFF DUP2 GT PUSH2 0x7FF JUMPI PUSH2 0x2EC PUSH1 0x4 SLOAD PUSH2 0x2B14 JUMP JUMPDEST PUSH1 0x1F DUP2 GT PUSH2 0x8BD JUMPI JUMPDEST POP PUSH1 0x20 PUSH1 0x1F DUP3 GT PUSH1 0x1 EQ PUSH2 0x839 JUMPI DUP2 SWAP3 SWAP4 SWAP5 PUSH1 0x0 SWAP3 PUSH2 0x82E JUMPI JUMPDEST POP POP PUSH1 0x0 NOT DUP3 PUSH1 0x1 SHL SWAP3 PUSH1 0x3 SHL SHR NOT AND OR PUSH1 0x4 SSTORE JUMPDEST DUP2 MLOAD SWAP2 PUSH8 0xFFFFFFFFFFFFFFFF DUP4 GT PUSH2 0x7FF JUMPI PUSH2 0x341 PUSH1 0xA SLOAD PUSH2 0x2B14 JUMP JUMPDEST PUSH1 0x1F DUP2 GT PUSH2 0x79A JUMPI JUMPDEST POP PUSH1 0x20 SWAP1 PUSH1 0x1F DUP5 GT PUSH1 0x1 EQ PUSH2 0x711 JUMPI PUSH2 0x51C SWAP4 SWAP2 PUSH1 0x0 SWAP2 DUP4 PUSH2 0x706 JUMPI JUMPDEST POP POP PUSH1 0x0 NOT DUP3 PUSH1 0x1 SHL SWAP3 PUSH1 0x3 SHL SHR NOT AND OR PUSH1 0xA SSTORE JUMPDEST PUSH20 0xFFFFFFFFFFFFFFFFFFFFFFFFFFFFFFFFFFFFFFFF AND PUSH1 0x0 DUP2 DUP2 MSTORE PUSH32 0x5EFF886EA0CE6CA488A3D6E336D6C0F75F46D19B42C06CE5EE98E42C96D256C7 PUSH1 0x20 MSTORE PUSH1 0x40 SWAP1 KECCAK256 SLOAD PUSH1 0x8 SWAP1 PUSH1 0xFF AND ISZERO PUSH2 0x697 JUMPI JUMPDEST PUSH1 0x0 DUP1 MSTORE PUSH1 0x9 PUSH1 0x20 MSTORE PUSH2 0x3FF DUP3 PUSH32 0xEC8156718A8372B1DB44BB411437D0870F3E3790D4A08526D024CE1B0B668F6B PUSH2 0x3809 JUMP JUMPDEST POP PUSH32 0x6DB4061A20CA83A3BE756EE172BD37A029093AC5AFE4CE968C6D5435B43CB011 DUP1 PUSH1 0x0 MSTORE DUP2 PUSH1 0x20 MSTORE PUSH1 0x40 PUSH1 0x0 KECCAK256 DUP4 PUSH1 0x0 MSTORE PUSH1 0x20 MSTORE PUSH1 0xFF PUSH1 0x40 PUSH1 0x0 KECCAK256 SLOAD AND ISZERO PUSH2 0x628 JUMPI JUMPDEST PUSH1 0x0 MSTORE PUSH1 0x9 PUSH1 0x20 MSTORE PUSH2 0x45A DUP3 PUSH1 0x40 PUSH1 0x0 KECCAK256 PUSH2 0x3809 JUMP JUMPDEST POP PUSH32 0xE02A0315B383857AC496E9D2B2546A699AFAEB4E5E83A1FDEF64376D0B74E5A5 DUP1 PUSH1 0x0 MSTORE DUP2 PUSH1 0x20 MSTORE PUSH1 0x40 PUSH1 0x0 KECCAK256 DUP4 PUSH1 0x0 MSTORE PUSH1 0x20 MSTORE PUSH1 0xFF PUSH1 0x40 PUSH1 0x0 KECCAK256 SLOAD AND ISZERO PUSH2 0x5B9 JUMPI JUMPDEST PUSH1 0x0 MSTORE PUSH1 0x9 PUSH1 0x20 MSTORE PUSH2 0x4B5 DUP3 PUSH1 0x40 PUSH1 0x0 KECCAK256 PUSH2 0x3809 JUMP JUMPDEST POP PUSH2 0x4C4 PUSH1 0xA4 CALLDATALOAD PUSH1 0x84 CALLDATALOAD PUSH2 0x3A72 JUMP JUMPDEST PUSH32 0x9F2DF0FED2C77648DE5860A4CC508CD0818C85B8B8A1AB4CEEEF8D981C8956A6 SWAP1 DUP2 PUSH1 0x0 MSTORE DUP1 PUSH1 0x20 MSTORE PUSH1 0x40 PUSH1 0x0 KECCAK256 DUP4 PUSH1 0x0 MSTORE PUSH1 0x20 MSTORE PUSH1 0xFF PUSH1 0x40 PUSH1 0x0 KECCAK256 SLOAD AND ISZERO PUSH2 0x54A JUMPI JUMPDEST POP PUSH1 0x0 MSTORE PUSH1 0x9 PUSH1 0x20 MSTORE PUSH1 0x40 PUSH1 0x0 KECCAK256 PUSH2 0x3809 JUMP JUMPDEST POP PUSH1 0xB DUP1 SLOAD PUSH32 0xFFFFFFFFFFFFFFFFFFFFFFFFFFFFFFFFFFFFFFFFFFFFFFFFFFFFFFFFFFFFFF00 AND PUSH1 0x1 OR SWAP1 SSTORE STOP JUMPDEST DUP2 PUSH1 0x0 MSTORE PUSH1 0x20 MSTORE PUSH1 0x40 PUSH1 0x0 KECCAK256 DUP3 PUSH1 0x0 MSTORE PUSH1 0x20 MSTORE PUSH1 0x40 PUSH1 0x0 KECCAK256 PUSH1 0x1 PUSH32 0xFFFFFFFFFFFFFFFFFFFFFFFFFFFFFFFFFFFFFFFFFFFFFFFFFFFFFFFFFFFFFF00 DUP3 SLOAD AND OR SWAP1 SSTORE CALLER DUP3 DUP3 PUSH32 0x2F8788117E7EFF1D82E926EC794901D17C78024A50270940304540A733656F0D PUSH1 0x0 DUP1 LOG4 CODESIZE PUSH2 0x509 JUMP JUMPDEST DUP1 PUSH1 0x0 MSTORE DUP2 PUSH1 0x20 MSTORE PUSH1 0x40 PUSH1 0x0 KECCAK256 DUP4 PUSH1 0x0 MSTORE PUSH1 0x20 MSTORE PUSH1 0x40 PUSH1 0x0 KECCAK256 PUSH1 0x1 PUSH32 0xFFFFFFFFFFFFFFFFFFFFFFFFFFFFFFFFFFFFFFFFFFFFFFFFFFFFFFFFFFFFFF00 DUP3 SLOAD AND OR SWAP1 SSTORE CALLER DUP4 DUP3 PUSH32 0x2F8788117E7EFF1D82E926EC794901D17C78024A50270940304540A733656F0D PUSH1 0x0 DUP1 LOG4 PUSH2 0x49F JUMP JUMPDEST DUP1 PUSH1 0x0 MSTORE DUP2 PUSH1 0x20 MSTORE PUSH1 0x40 PUSH1 0x0 KECCAK256 DUP4 PUSH1 0x0 MSTORE PUSH1 0x20 MSTORE PUSH1 0x40 PUSH1 0x0 KECCAK256 PUSH1 0x1 PUSH32 0xFFFFFFFFFFFFFFFFFFFFFFFFFFFFFFFFFFFFFFFFFFFFFFFFFFFFFFFFFFFFFF00 DUP3 SLOAD AND OR SWAP1 SSTORE CALLER DUP4 DUP3 PUSH32 0x2F8788117E7EFF1D82E926EC794901D17C78024A50270940304540A733656F0D PUSH1 0x0 DUP1 LOG4 PUSH2 0x444 JUMP JUMPDEST PUSH1 0x0 DUP1 MSTORE DUP1 PUSH1 0x20 MSTORE PUSH1 0x40 PUSH1 0x0 KECCAK256 DUP3 PUSH1 0x0 MSTORE PUSH1 0x20 MSTORE PUSH1 0x40 PUSH1 0x0 KECCAK256 PUSH1 0x1 PUSH32 0xFFFFFFFFFFFFFFFFFFFFFFFFFFFFFFFFFFFFFFFFFFFFFFFFFFFFFFFFFFFFFF00 DUP3 SLOAD AND OR SWAP1 SSTORE CALLER DUP3 PUSH1 0x0 PUSH32 0x2F8788117E7EFF1D82E926EC794901D17C78024A50270940304540A733656F0D DUP2 DUP1 LOG4 PUSH2 0x3CC JUMP JUMPDEST ADD MLOAD SWAP1 POP CODESIZE DUP1 PUSH2 0x367 JUMP JUMPDEST SWAP1 PUSH1 0x1F NOT DUP5 AND SWAP2 PUSH1 0xA PUSH1 0x0 MSTORE PUSH32 0xC65A7BB8D6351C1CF70C95A316CC6A92839C986682D98BC35F958F4883F9D2A8 SWAP3 PUSH1 0x0 JUMPDEST DUP2 DUP2 LT PUSH2 0x782 JUMPI POP SWAP2 PUSH1 0x1 SWAP4 SWAP2 DUP7 PUSH2 0x51C SWAP8 SWAP5 LT PUSH2 0x769 JUMPI JUMPDEST POP POP POP DUP2 SHL ADD PUSH1 0xA SSTORE PUSH2 0x37C JUMP JUMPDEST ADD MLOAD PUSH1 0x0 NOT PUSH1 0xF8 DUP5 PUSH1 0x3 SHL AND SHR NOT AND SWAP1 SSTORE CODESIZE DUP1 DUP1 PUSH2 0x75B JUMP JUMPDEST SWAP3 SWAP4 PUSH1 0x20 PUSH1 0x1 DUP2 SWAP3 DUP8 DUP7 ADD MLOAD DUP2 SSTORE ADD SWAP6 ADD SWAP4 ADD PUSH2 0x742 JUMP JUMPDEST PUSH1 0xA PUSH1 0x0 MSTORE PUSH32 0xC65A7BB8D6351C1CF70C95A316CC6A92839C986682D98BC35F958F4883F9D2A8 PUSH1 0x1F DUP6 ADD PUSH1 0x5 SHR DUP2 ADD SWAP2 PUSH1 0x20 DUP7 LT PUSH2 0x7F5 JUMPI JUMPDEST PUSH1 0x1F ADD PUSH1 0x5 SHR ADD SWAP1 JUMPDEST DUP2 DUP2 LT PUSH2 0x7E9 JUMPI POP PUSH2 0x34A JUMP JUMPDEST PUSH1 0x0 DUP2 SSTORE PUSH1 0x1 ADD PUSH2 0x7DC JUMP JUMPDEST SWAP1 SWAP2 POP DUP2 SWAP1 PUSH2 0x7D3 JUMP JUMPDEST PUSH32 0x4E487B7100000000000000000000000000000000000000000000000000000000 PUSH1 0x0 MSTORE PUSH1 0x41 PUSH1 0x4 MSTORE PUSH1 0x24 PUSH1 0x0 REVERT JUMPDEST ADD MLOAD SWAP1 POP CODESIZE DUP1 PUSH2 0x30F JUMP JUMPDEST PUSH1 0x1F NOT DUP3 AND SWAP1 PUSH1 0x4 PUSH1 0x0 MSTORE PUSH32 0x8A35ACFBC15FF81A39AE7D344FD709F28E8600B4AA8C65C6B64BFE7FE36BD19B SWAP2 PUSH1 0x0 JUMPDEST DUP2 DUP2 LT PUSH2 0x8A5 JUMPI POP SWAP6 DUP4 PUSH1 0x1 SWAP6 SWAP7 SWAP8 LT PUSH2 0x88C JUMPI JUMPDEST POP POP POP DUP2 SHL ADD PUSH1 0x4 SSTORE PUSH2 0x324 JUMP JUMPDEST ADD MLOAD PUSH1 0x0 NOT PUSH1 0xF8 DUP5 PUSH1 0x3 SHL AND SHR NOT AND SWAP1 SSTORE CODESIZE DUP1 DUP1 PUSH2 0x87E JUMP JUMPDEST SWAP2 SWAP3 PUSH1 0x20 PUSH1 0x1 DUP2 SWAP3 DUP7 DUP12 ADD MLOAD DUP2 SSTORE ADD SWAP5 ADD SWAP3 ADD PUSH2 0x869 JUMP JUMPDEST PUSH1 0x4 PUSH1 0x0 MSTORE PUSH32 0x8A35ACFBC15FF81A39AE7D344FD709F28E8600B4AA8C65C6B64BFE7FE36BD19B PUSH1 0x1F DUP4 ADD PUSH1 0x5 SHR DUP2 ADD SWAP2 PUSH1 0x20 DUP5 LT PUSH2 0x918 JUMPI JUMPDEST PUSH1 0x1F ADD PUSH1 0x5 SHR ADD SWAP1 JUMPDEST DUP2 DUP2 LT PUSH2 0x90C JUMPI POP PUSH2 0x2F5 JUMP JUMPDEST PUSH1 0x0 DUP2 SSTORE PUSH1 0x1 ADD PUSH2 0x8FF JUMP JUMPDEST SWAP1 SWAP2 POP DUP2 SWAP1 PUSH2 0x8F6 JUMP JUMPDEST ADD MLOAD SWAP1 POP CODESIZE DUP1 PUSH2 0x2BB JUMP JUMPDEST PUSH1 0x1F NOT DUP3 AND SWAP6 PUSH1 0x5 PUSH1 0x0 MSTORE PUSH32 0x36B6384B5ECA791C62761152D0C79BB0604C104A5FB6F4EB0703F3154BB3DB0 SWAP2 PUSH1 0x0 JUMPDEST DUP9 DUP2 LT PUSH2 0x999 JUMPI POP DUP4 PUSH1 0x1 SWAP6 SWAP7 SWAP8 SWAP9 LT PUSH2 0x980 JUMPI JUMPDEST POP POP POP DUP2 SHL ADD PUSH1 0x5 SSTORE PUSH2 0x2D0 JUMP JUMPDEST ADD MLOAD PUSH1 0x0 NOT PUSH1 0xF8 DUP5 PUSH1 0x3 SHL AND SHR NOT AND SWAP1 SSTORE CODESIZE DUP1 DUP1 PUSH2 0x972 JUMP JUMPDEST SWAP2 SWAP3 PUSH1 0x20 PUSH1 0x1 DUP2 SWAP3 DUP7 DUP6 ADD MLOAD DUP2 SSTORE ADD SWAP5 ADD SWAP3 ADD PUSH2 0x95D JUMP JUMPDEST PUSH1 0x5 PUSH1 0x0 MSTORE PUSH1 0x1F DUP3 ADD PUSH1 0x5 SHR PUSH32 0x36B6384B5ECA791C62761152D0C79BB0604C104A5FB6F4EB0703F3154BB3DB0 ADD SWAP1 PUSH1 0x20 DUP4 LT PUSH2 0xA2C JUMPI JUMPDEST PUSH1 0x1F ADD PUSH1 0x5 SHR PUSH32 0x36B6384B5ECA791C62761152D0C79BB0604C104A5FB6F4EB0703F3154BB3DB0 ADD SWAP1 JUMPDEST DUP2 DUP2 LT PUSH2 0xA20 JUMPI POP PUSH2 0x29E JUMP JUMPDEST PUSH1 0x0 DUP2 SSTORE PUSH1 0x1 ADD PUSH2 0xA13 JUMP JUMPDEST PUSH32 0x36B6384B5ECA791C62761152D0C79BB0604C104A5FB6F4EB0703F3154BB3DB0 SWAP2 POP PUSH2 0x9E9 JUMP JUMPDEST PUSH1 0x4 PUSH1 0x40 MLOAD PUSH32 0xF92EE8A900000000000000000000000000000000000000000000000000000000 DUP2 MSTORE REVERT JUMPDEST POP PUSH1 0xFF PUSH1 0xB SLOAD AND PUSH2 0x275 JUMP JUMPDEST PUSH1 0x0 DUP1 REVERT JUMPDEST CALLVALUE PUSH2 0xA8A JUMPI PUSH1 0xA0 PUSH1 0x3 NOT CALLDATASIZE ADD SLT PUSH2 0xA8A JUMPI PUSH2 0xAA8 PUSH2 0x2ACE JUMP JUMPDEST PUSH2 0xAB0 PUSH2 0x2AF1 JUMP JUMPDEST SWAP1 PUSH1 0x44 CALLDATALOAD PUSH1 0x64 CALLDATALOAD SWAP3 PUSH1 0x84 CALLDATALOAD PUSH8 0xFFFFFFFFFFFFFFFF DUP2 GT PUSH2 0xA8A JUMPI PUSH2 0xAD8 SWAP1 CALLDATASIZE SWAP1 PUSH1 0x4 ADD PUSH2 0x2C26 JUMP JUMPDEST PUSH20 0xFFFFFFFFFFFFFFFFFFFFFFFFFFFFFFFFFFFFFFFF DUP1 SWAP5 AND SWAP4 DUP5 CALLER EQ DUP1 ISZERO PUSH2 0xDF7 JUMPI JUMPDEST ISZERO PUSH2 0xD73 JUMPI DUP3 AND SWAP2 DUP3 ISZERO PUSH2 0xCEF JUMPI DUP5 PUSH1 0x0 MSTORE PUSH1 0x20 SWAP6 PUSH1 0x0 DUP8 MSTORE PUSH1 0x40 PUSH1 0x0 KECCAK256 DUP6 PUSH1 0x0 MSTORE DUP8 MSTORE PUSH1 0x40 PUSH1 0x0 KECCAK256 PUSH2 0xB2F DUP3 DUP3 SLOAD PUSH2 0x2D2D JUMP JUMPDEST SWAP1 SSTORE DUP4 PUSH1 0x0 MSTORE PUSH1 0x0 DUP8 MSTORE PUSH1 0x40 PUSH1 0x0 KECCAK256 DUP6 PUSH1 0x0 MSTORE DUP8 MSTORE PUSH1 0x40 PUSH1 0x0 KECCAK256 PUSH2 0xB54 DUP3 DUP3 SLOAD PUSH2 0x2D3A JUMP JUMPDEST SWAP1 SSTORE DUP4 DUP7 PUSH1 0x40 MLOAD DUP8 DUP2 MSTORE DUP4 DUP11 DUP3 ADD MSTORE PUSH32 0xC3D58168C5AE7397731D063D5BBF3D657854427343F4C083240F7AACAA2D0F62 PUSH1 0x40 CALLER SWAP3 LOG4 PUSH2 0xB93 GAS SWAP3 PUSH2 0x2F17 JUMP JUMPDEST PUSH2 0xB99 JUMPI STOP JUMPDEST PUSH1 0x0 DUP8 SWAP5 PUSH2 0xBF6 SWAP7 PUSH1 0x40 MLOAD SWAP8 DUP9 SWAP7 DUP8 SWAP6 DUP7 SWAP4 PUSH32 0xF23A6E6100000000000000000000000000000000000000000000000000000000 SWAP13 DUP14 DUP7 MSTORE CALLER PUSH1 0x4 DUP8 ADD MSTORE PUSH1 0x24 DUP7 ADD MSTORE PUSH1 0x44 DUP6 ADD MSTORE PUSH1 0x64 DUP5 ADD MSTORE PUSH1 0xA0 PUSH1 0x84 DUP5 ADD MSTORE PUSH1 0xA4 DUP4 ADD SWAP1 PUSH2 0x2BE5 JUMP JUMPDEST SUB SWAP4 CALL DUP1 ISZERO PUSH2 0xCE3 JUMPI PUSH32 0xFFFFFFFF00000000000000000000000000000000000000000000000000000000 SWAP2 PUSH1 0x0 SWAP2 PUSH2 0xCB6 JUMPI JUMPDEST POP AND SUB PUSH2 0xC32 JUMPI STOP JUMPDEST PUSH1 0x84 SWAP1 PUSH1 0x40 MLOAD SWAP1 PUSH32 0x8C379A000000000000000000000000000000000000000000000000000000000 DUP3 MSTORE PUSH1 0x4 DUP3 ADD MSTORE PUSH1 0x3A PUSH1 0x24 DUP3 ADD MSTORE PUSH32 0x45524331313535235F63616C6C6F6E4552433131353552656365697665643A20 PUSH1 0x44 DUP3 ADD MSTORE PUSH32 0x494E56414C49445F4F4E5F524543454956455F4D455353414745000000000000 PUSH1 0x64 DUP3 ADD MSTORE REVERT JUMPDEST PUSH2 0xCD6 SWAP2 POP DUP5 RETURNDATASIZE DUP7 GT PUSH2 0xCDC JUMPI JUMPDEST PUSH2 0xCCE DUP2 DUP4 PUSH2 0x2B9F JUMP JUMPDEST DUP2 ADD SWAP1 PUSH2 0x2D47 JUMP JUMPDEST DUP5 PUSH2 0xC29 JUMP JUMPDEST POP RETURNDATASIZE PUSH2 0xCC4 JUMP JUMPDEST PUSH1 0x40 MLOAD RETURNDATASIZE PUSH1 0x0 DUP3 RETURNDATACOPY RETURNDATASIZE SWAP1 REVERT JUMPDEST PUSH1 0x84 PUSH1 0x40 MLOAD PUSH32 0x8C379A000000000000000000000000000000000000000000000000000000000 DUP2 MSTORE PUSH1 0x20 PUSH1 0x4 DUP3 ADD MSTORE PUSH1 0x2B PUSH1 0x24 DUP3 ADD MSTORE PUSH32 0x4552433131353523736166655472616E7366657246726F6D3A20494E56414C49 PUSH1 0x44 DUP3 ADD MSTORE PUSH32 0x445F524543495049454E54000000000000000000000000000000000000000000 PUSH1 0x64 DUP3 ADD MSTORE REVERT JUMPDEST PUSH1 0x84 PUSH1 0x40 MLOAD PUSH32 0x8C379A000000000000000000000000000000000000000000000000000000000 DUP2 MSTORE PUSH1 0x20 PUSH1 0x4 DUP3 ADD MSTORE PUSH1 0x2A PUSH1 0x24 DUP3 ADD MSTORE PUSH32 0x4552433131353523736166655472616E7366657246726F6D3A20494E56414C49 PUSH1 0x44 DUP3 ADD MSTORE PUSH32 0x445F4F50455241544F5200000000000000000000000000000000000000000000 PUSH1 0x64 DUP3 ADD MSTORE REVERT JUMPDEST POP DUP5 PUSH1 0x0 MSTORE PUSH1 0x1 PUSH1 0x20 MSTORE PUSH1 0x40 PUSH1 0x0 KECCAK256 CALLER PUSH1 0x0 MSTORE PUSH1 0x20 MSTORE PUSH1 0xFF PUSH1 0x40 PUSH1 0x0 KECCAK256 SLOAD AND PUSH2 0xAFB JUMP JUMPDEST CALLVALUE PUSH2 0xA8A JUMPI PUSH1 0x40 PUSH1 0x3 NOT CALLDATASIZE ADD SLT PUSH2 0xA8A JUMPI PUSH2 0xE34 PUSH2 0x2ACE JUMP JUMPDEST PUSH2 0xE3C PUSH2 0x2AF1 JUMP JUMPDEST SWAP1 PUSH20 0xFFFFFFFFFFFFFFFFFFFFFFFFFFFFFFFFFFFFFFFF DUP1 SWAP2 AND PUSH1 0x0 MSTORE PUSH1 0x1 PUSH1 0x20 MSTORE PUSH1 0x40 PUSH1 0x0 KECCAK256 SWAP2 AND PUSH1 0x0 MSTORE PUSH1 0x20 MSTORE PUSH1 0x20 PUSH1 0xFF PUSH1 0x40 PUSH1 0x0 KECCAK256 SLOAD AND PUSH1 0x40 MLOAD SWAP1 ISZERO ISZERO DUP2 MSTORE RETURN JUMPDEST CALLVALUE PUSH2 0xA8A JUMPI PUSH1 0x0 PUSH1 0x3 NOT CALLDATASIZE ADD SLT PUSH2 0xA8A JUMPI PUSH1 0x40 MLOAD PUSH1 0x0 PUSH1 0xA SLOAD PUSH2 0xEA1 DUP2 PUSH2 0x2B14 JUMP JUMPDEST DUP1 DUP5 MSTORE SWAP1 PUSH1 0x1 SWAP1 DUP2 DUP2 AND SWAP1 DUP2 ISZERO PUSH2 0xF3E JUMPI POP PUSH1 0x1 EQ PUSH2 0xEE3 JUMPI JUMPDEST PUSH2 0xEDF DUP5 PUSH2 0xECB DUP2 DUP7 SUB DUP3 PUSH2 0x2B9F JUMP JUMPDEST PUSH1 0x40 MLOAD SWAP2 DUP3 SWAP2 PUSH1 0x20 DUP4 MSTORE PUSH1 0x20 DUP4 ADD SWAP1 PUSH2 0x2BE5 JUMP JUMPDEST SUB SWAP1 RETURN JUMPDEST PUSH1 0xA PUSH1 0x0 SWAP1 DUP2 MSTORE SWAP3 POP PUSH32 0xC65A7BB8D6351C1CF70C95A316CC6A92839C986682D98BC35F958F4883F9D2A8 JUMPDEST DUP3 DUP5 LT PUSH2 0xF26 JUMPI POP POP POP DUP2 ADD PUSH1 0x20 ADD PUSH2 0xECB DUP3 PUSH2 0xEBB JUMP JUMPDEST DUP1 SLOAD PUSH1 0x20 DUP6 DUP8 ADD DUP2 ADD SWAP2 SWAP1 SWAP2 MSTORE SWAP1 SWAP4 ADD SWAP3 DUP2 ADD PUSH2 0xF0E JUMP JUMPDEST PUSH32 0xFFFFFFFFFFFFFFFFFFFFFFFFFFFFFFFFFFFFFFFFFFFFFFFFFFFFFFFFFFFFFF00 AND PUSH1 0x20 DUP1 DUP8 ADD SWAP2 SWAP1 SWAP2 MSTORE SWAP3 ISZERO ISZERO PUSH1 0x5 SHL DUP6 ADD SWAP1 SWAP3 ADD SWAP3 POP PUSH2 0xECB SWAP2 POP DUP4 SWAP1 POP PUSH2 0xEBB JUMP JUMPDEST CALLVALUE PUSH2 0xA8A JUMPI PUSH1 0x40 PUSH1 0x3 NOT CALLDATASIZE ADD SLT PUSH2 0xA8A JUMPI PUSH2 0xFC2 PUSH1 0x4 CALLDATALOAD PUSH2 0xFA2 PUSH2 0x2AF1 JUMP JUMPDEST SWAP1 DUP1 PUSH1 0x0 MSTORE PUSH1 0x8 PUSH1 0x20 MSTORE PUSH2 0xFBD PUSH1 0x1 PUSH1 0x40 PUSH1 0x0 KECCAK256 ADD SLOAD PUSH2 0x34B6 JUMP JUMPDEST PUSH2 0x35D4 JUMP JUMPDEST STOP JUMPDEST CALLVALUE PUSH2 0xA8A JUMPI PUSH1 0x20 PUSH1 0x3 NOT CALLDATASIZE ADD SLT PUSH2 0xA8A JUMPI PUSH1 0x4 CALLDATALOAD PUSH1 0x0 MSTORE PUSH1 0x9 PUSH1 0x20 MSTORE PUSH1 0x20 PUSH1 0x40 PUSH1 0x0 KECCAK256 SLOAD PUSH1 0x40 MLOAD SWAP1 DUP2 MSTORE RETURN JUMPDEST CALLVALUE PUSH2 0xA8A JUMPI PUSH1 0x3 NOT PUSH1 0x80 DUP2 CALLDATASIZE ADD SLT PUSH2 0xA8A JUMPI PUSH2 0x100A PUSH2 0x2ACE JUMP JUMPDEST SWAP1 PUSH8 0xFFFFFFFFFFFFFFFF PUSH1 0x24 CALLDATALOAD DUP2 DUP2 GT PUSH2 0xA8A JUMPI PUSH2 0x102C SWAP1 CALLDATASIZE SWAP1 PUSH1 0x4 ADD PUSH2 0x2C85 JUMP JUMPDEST SWAP3 PUSH1 0x44 CALLDATALOAD DUP3 DUP2 GT PUSH2 0xA8A JUMPI PUSH2 0x1045 SWAP1 CALLDATASIZE SWAP1 PUSH1 0x4 ADD PUSH2 0x2C85 JUMP JUMPDEST SWAP2 PUSH1 0x64 CALLDATALOAD SWAP1 DUP2 GT PUSH2 0xA8A JUMPI PUSH2 0x105E SWAP1 CALLDATASIZE SWAP1 PUSH1 0x4 ADD PUSH2 0x2C26 JUMP JUMPDEST SWAP1 PUSH2 0x1067 PUSH2 0x335E JUMP JUMPDEST DUP5 MLOAD DUP4 MLOAD DUP2 SUB PUSH2 0x12D8 JUMPI PUSH1 0x0 DUP1 PUSH20 0xFFFFFFFFFFFFFFFFFFFFFFFFFFFFFFFFFFFFFFFF DUP5 AND SWAP3 JUMPDEST DUP1 DUP4 LT PUSH2 0x1245 JUMPI POP PUSH2 0x10A2 SWAP2 POP PUSH1 0x2 SLOAD PUSH2 0x2D3A JUMP JUMPDEST PUSH1 0x2 SSTORE DUP1 PUSH1 0x0 PUSH1 0x40 MLOAD PUSH32 0x4A39DC06D4C0DBC64B70AF90FD698A233A518AA5D07E595D983B8C0526C8F7FB CALLER SWAP2 DUP1 PUSH2 0x10DA DUP11 DUP14 DUP4 PUSH2 0x2DD1 JUMP JUMPDEST SUB SWAP1 LOG4 PUSH2 0x10E7 GAS SWAP3 PUSH2 0x2F17 JUMP JUMPDEST PUSH2 0x10ED JUMPI STOP JUMPDEST PUSH1 0x0 PUSH2 0x1158 SWAP2 PUSH1 0x20 SWAP6 PUSH2 0x1167 PUSH1 0x40 MLOAD SWAP9 DUP10 SWAP8 DUP9 SWAP7 DUP8 SWAP5 PUSH2 0x1148 PUSH32 0xBC197C8100000000000000000000000000000000000000000000000000000000 SWAP15 DUP16 DUP9 MSTORE CALLER PUSH1 0x4 DUP10 ADD MSTORE DUP10 PUSH1 0x24 DUP10 ADD MSTORE PUSH1 0xA0 PUSH1 0x44 DUP10 ADD MSTORE PUSH1 0xA4 DUP9 ADD SWAP1 PUSH2 0x2CF9 JUMP JUMPDEST SWAP1 DUP5 DUP8 DUP4 SUB ADD PUSH1 0x64 DUP9 ADD MSTORE PUSH2 0x2CF9 JUMP JUMPDEST SWAP2 DUP5 DUP4 SUB ADD PUSH1 0x84 DUP6 ADD MSTORE PUSH2 0x2BE5 JUMP JUMPDEST SUB SWAP4 CALL DUP1 ISZERO PUSH2 0xCE3 JUMPI PUSH32 0xFFFFFFFF00000000000000000000000000000000000000000000000000000000 SWAP2 PUSH1 0x0 SWAP2 PUSH2 0x1227 JUMPI JUMPDEST POP AND SUB PUSH2 0x11A3 JUMPI STOP JUMPDEST PUSH1 0x84 PUSH1 0x40 MLOAD PUSH32 0x8C379A000000000000000000000000000000000000000000000000000000000 DUP2 MSTORE PUSH1 0x20 PUSH1 0x4 DUP3 ADD MSTORE PUSH1 0x3F PUSH1 0x24 DUP3 ADD MSTORE PUSH32 0x45524331313535235F63616C6C6F6E4552433131353542617463685265636569 PUSH1 0x44 DUP3 ADD MSTORE PUSH32 0x7665643A20494E56414C49445F4F4E5F524543454956455F4D45535341474500 PUSH1 0x64 DUP3 ADD MSTORE REVERT JUMPDEST PUSH2 0x123F SWAP2 POP PUSH1 0x20 RETURNDATASIZE DUP2 GT PUSH2 0xCDC JUMPI PUSH2 0xCCE DUP2 DUP4 PUSH2 0x2B9F JUMP JUMPDEST DUP4 PUSH2 0x119A JUMP JUMPDEST SWAP1 PUSH2 0x12CB PUSH2 0x12D1 SWAP2 DUP11 PUSH1 0x3 DUP11 PUSH2 0x12A3 DUP9 PUSH2 0x129C DUP2 PUSH2 0x1263 DUP2 DUP7 PUSH2 0x2D8E JUMP JUMPDEST MLOAD SWAP5 DUP14 PUSH1 0x0 MSTORE PUSH1 0x20 SWAP6 PUSH1 0x0 DUP8 MSTORE PUSH1 0x40 PUSH1 0x0 KECCAK256 PUSH2 0x127F DUP5 DUP12 PUSH2 0x2D8E JUMP JUMPDEST MLOAD PUSH1 0x0 MSTORE DUP8 MSTORE PUSH2 0x1295 PUSH1 0x40 PUSH1 0x0 KECCAK256 SWAP2 DUP3 SLOAD PUSH2 0x2D3A JUMP JUMPDEST SWAP1 SSTORE PUSH2 0x2D8E JUMP JUMPDEST MLOAD SWAP5 PUSH2 0x2D8E JUMP JUMPDEST MLOAD PUSH1 0x0 MSTORE MSTORE PUSH2 0x12B8 PUSH1 0x40 PUSH1 0x0 KECCAK256 SWAP2 DUP3 SLOAD PUSH2 0x2D3A JUMP JUMPDEST SWAP1 SSTORE PUSH2 0x12C4 DUP6 DUP11 PUSH2 0x2D8E JUMP JUMPDEST MLOAD SWAP1 PUSH2 0x2D3A JUMP JUMPDEST SWAP3 PUSH2 0x2D7F JUMP JUMPDEST SWAP2 SWAP1 PUSH2 0x108D JUMP JUMPDEST PUSH1 0x4 PUSH1 0x40 MLOAD PUSH32 0x9D89020A00000000000000000000000000000000000000000000000000000000 DUP2 MSTORE REVERT JUMPDEST CALLVALUE PUSH2 0xA8A JUMPI PUSH1 0x0 PUSH2 0x1312 CALLDATASIZE PUSH2 0x2CE3 JUMP JUMPDEST PUSH2 0x131E DUP2 PUSH1 0x2 SLOAD PUSH2 0x2D2D JUMP JUMPDEST PUSH1 0x2 SSTORE DUP2 DUP4 MSTORE PUSH1 0x3 PUSH1 0x20 MSTORE PUSH1 0x40 DUP4 KECCAK256 PUSH2 0x1338 DUP3 DUP3 SLOAD PUSH2 0x2D2D JUMP JUMPDEST SWAP1 SSTORE CALLER DUP4 MSTORE DUP3 PUSH1 0x20 MSTORE PUSH1 0x40 DUP4 KECCAK256 DUP3 DUP5 MSTORE PUSH1 0x20 MSTORE PUSH1 0x40 DUP4 KECCAK256 PUSH2 0x135A DUP3 DUP3 SLOAD PUSH2 0x2D2D JUMP JUMPDEST SWAP1 SSTORE PUSH1 0x40 MLOAD SWAP2 DUP3 MSTORE PUSH1 0x20 DUP3 ADD MSTORE CALLER SWAP1 PUSH32 0xC3D58168C5AE7397731D063D5BBF3D657854427343F4C083240F7AACAA2D0F62 PUSH1 0x40 CALLER SWAP3 LOG4 STOP JUMPDEST CALLVALUE PUSH2 0xA8A JUMPI PUSH1 0x40 PUSH1 0x3 NOT CALLDATASIZE ADD SLT PUSH2 0xA8A JUMPI PUSH2 0x13AA PUSH2 0x2ACE JUMP JUMPDEST PUSH1 0x24 CALLDATALOAD DUP1 ISZERO ISZERO DUP1 SWAP2 SUB PUSH2 0xA8A JUMPI CALLER PUSH1 0x0 MSTORE PUSH1 0x1 PUSH1 0x20 MSTORE PUSH20 0xFFFFFFFFFFFFFFFFFFFFFFFFFFFFFFFFFFFFFFFF PUSH1 0x40 PUSH1 0x0 KECCAK256 SWAP3 AND SWAP2 DUP3 PUSH1 0x0 MSTORE PUSH1 0x20 MSTORE PUSH1 0x40 PUSH1 0x0 KECCAK256 PUSH32 0xFFFFFFFFFFFFFFFFFFFFFFFFFFFFFFFFFFFFFFFFFFFFFFFFFFFFFFFFFFFFFF00 DUP2 SLOAD AND PUSH1 0xFF DUP4 AND OR SWAP1 SSTORE PUSH1 0x40 MLOAD SWAP1 DUP2 MSTORE PUSH32 0x17307EAB39AB6107E8899845AD3D59BD9653F200F220920489CA2B5937696C31 PUSH1 0x20 CALLER SWAP3 LOG3 STOP JUMPDEST CALLVALUE PUSH2 0xA8A JUMPI PUSH1 0x0 PUSH1 0x3 NOT CALLDATASIZE ADD SLT PUSH2 0xA8A JUMPI PUSH1 0x20 PUSH1 0x40 MLOAD PUSH1 0x0 DUP2 MSTORE RETURN JUMPDEST CALLVALUE PUSH2 0xA8A JUMPI PUSH1 0x20 DUP1 PUSH1 0x3 NOT CALLDATASIZE ADD SLT PUSH2 0xA8A JUMPI PUSH8 0xFFFFFFFFFFFFFFFF PUSH1 0x4 CALLDATALOAD DUP2 DUP2 GT PUSH2 0xA8A JUMPI PUSH2 0x1491 SWAP1 CALLDATASIZE SWAP1 PUSH1 0x4 ADD PUSH2 0x2C26 JUMP JUMPDEST SWAP2 PUSH2 0x149A PUSH2 0x3206 JUMP JUMPDEST DUP3 MLOAD SWAP2 DUP3 GT PUSH2 0x7FF JUMPI PUSH2 0x14AE PUSH1 0xA SLOAD PUSH2 0x2B14 JUMP JUMPDEST PUSH1 0x1F DUP2 GT PUSH2 0x1574 JUMPI JUMPDEST POP DUP1 PUSH1 0x1F DUP4 GT PUSH1 0x1 EQ PUSH2 0x14F3 JUMPI POP DUP2 SWAP3 PUSH1 0x0 SWAP3 PUSH2 0x14E8 JUMPI JUMPDEST POP POP PUSH1 0x0 NOT DUP3 PUSH1 0x1 SHL SWAP3 PUSH1 0x3 SHL SHR NOT AND OR PUSH1 0xA SSTORE PUSH1 0x0 DUP1 RETURN JUMPDEST ADD MLOAD SWAP1 POP DUP3 DUP1 PUSH2 0x14CF JUMP JUMPDEST SWAP1 PUSH1 0x1F NOT DUP4 AND SWAP4 PUSH1 0xA PUSH1 0x0 MSTORE PUSH32 0xC65A7BB8D6351C1CF70C95A316CC6A92839C986682D98BC35F958F4883F9D2A8 SWAP3 PUSH1 0x0 SWAP1 JUMPDEST DUP7 DUP3 LT PUSH2 0x155C JUMPI POP POP DUP4 PUSH1 0x1 SWAP6 LT PUSH2 0x1543 JUMPI JUMPDEST POP POP POP DUP2 SHL ADD PUSH1 0xA SSTORE STOP JUMPDEST ADD MLOAD PUSH1 0x0 NOT PUSH1 0xF8 DUP5 PUSH1 0x3 SHL AND SHR NOT AND SWAP1 SSTORE DUP3 DUP1 DUP1 PUSH2 0x1538 JUMP JUMPDEST DUP1 PUSH1 0x1 DUP6 SWAP7 DUP3 SWAP5 SWAP7 DUP7 ADD MLOAD DUP2 SSTORE ADD SWAP6 ADD SWAP4 ADD SWAP1 PUSH2 0x1525 JUMP JUMPDEST PUSH1 0xA PUSH1 0x0 MSTORE PUSH32 0xC65A7BB8D6351C1CF70C95A316CC6A92839C986682D98BC35F958F4883F9D2A8 PUSH1 0x1F DUP5 ADD PUSH1 0x5 SHR DUP2 ADD SWAP2 DUP4 DUP6 LT PUSH2 0x15CE JUMPI JUMPDEST PUSH1 0x1F ADD PUSH1 0x5 SHR ADD SWAP1 JUMPDEST DUP2 DUP2 LT PUSH2 0x15C2 JUMPI POP PUSH2 0x14B7 JUMP JUMPDEST PUSH1 0x0 DUP2 SSTORE PUSH1 0x1 ADD PUSH2 0x15B5 JUMP JUMPDEST SWAP1 SWAP2 POP DUP2 SWAP1 PUSH2 0x15AC JUMP JUMPDEST CALLVALUE PUSH2 0xA8A JUMPI PUSH1 0x40 PUSH1 0x3 NOT CALLDATASIZE ADD SLT PUSH2 0xA8A JUMPI PUSH2 0x15F1 PUSH2 0x2AF1 JUMP JUMPDEST PUSH1 0x4 CALLDATALOAD PUSH1 0x0 MSTORE PUSH1 0x8 PUSH1 0x20 MSTORE PUSH20 0xFFFFFFFFFFFFFFFFFFFFFFFFFFFFFFFFFFFFFFFF PUSH1 0x40 PUSH1 0x0 KECCAK256 SWAP2 AND PUSH1 0x0 MSTORE PUSH1 0x20 MSTORE PUSH1 0x20 PUSH1 0xFF PUSH1 0x40 PUSH1 0x0 KECCAK256 SLOAD AND PUSH1 0x40 MLOAD SWAP1 ISZERO ISZERO DUP2 MSTORE RETURN JUMPDEST CALLVALUE PUSH2 0xA8A JUMPI PUSH1 0x40 PUSH1 0x3 NOT CALLDATASIZE ADD SLT PUSH2 0xA8A JUMPI PUSH1 0x4 CALLDATALOAD PUSH1 0x0 MSTORE PUSH1 0x9 PUSH1 0x20 MSTORE PUSH1 0x20 PUSH20 0xFFFFFFFFFFFFFFFFFFFFFFFFFFFFFFFFFFFFFFFF PUSH2 0x1676 PUSH1 0x24 CALLDATALOAD PUSH1 0x40 PUSH1 0x0 KECCAK256 PUSH2 0x37F1 JUMP JUMPDEST SWAP2 SWAP1 SLOAD PUSH1 0x40 MLOAD SWAP3 PUSH1 0x3 SHL SHR AND DUP2 MSTORE RETURN JUMPDEST CALLVALUE PUSH2 0xA8A JUMPI PUSH1 0x20 DUP1 PUSH1 0x3 NOT CALLDATASIZE ADD SLT PUSH2 0xA8A JUMPI PUSH8 0xFFFFFFFFFFFFFFFF PUSH1 0x4 CALLDATALOAD DUP2 DUP2 GT PUSH2 0xA8A JUMPI PUSH2 0x16B9 SWAP1 CALLDATASIZE SWAP1 PUSH1 0x4 ADD PUSH2 0x2C26 JUMP JUMPDEST SWAP2 PUSH2 0x16C2 PUSH2 0x3206 JUMP JUMPDEST DUP3 MLOAD SWAP2 DUP3 GT PUSH2 0x7FF JUMPI PUSH2 0x16D6 PUSH1 0x4 SLOAD PUSH2 0x2B14 JUMP JUMPDEST PUSH1 0x1F DUP2 GT PUSH2 0x179C JUMPI JUMPDEST POP DUP1 PUSH1 0x1F DUP4 GT PUSH1 0x1 EQ PUSH2 0x171B JUMPI POP DUP2 SWAP3 PUSH1 0x0 SWAP3 PUSH2 0x1710 JUMPI JUMPDEST POP POP PUSH1 0x0 NOT DUP3 PUSH1 0x1 SHL SWAP3 PUSH1 0x3 SHL SHR NOT AND OR PUSH1 0x4 SSTORE PUSH1 0x0 DUP1 RETURN JUMPDEST ADD MLOAD SWAP1 POP DUP3 DUP1 PUSH2 0x16F7 JUMP JUMPDEST SWAP1 PUSH1 0x1F NOT DUP4 AND SWAP4 PUSH1 0x4 PUSH1 0x0 MSTORE PUSH32 0x8A35ACFBC15FF81A39AE7D344FD709F28E8600B4AA8C65C6B64BFE7FE36BD19B SWAP3 PUSH1 0x0 SWAP1 JUMPDEST DUP7 DUP3 LT PUSH2 0x1784 JUMPI POP POP DUP4 PUSH1 0x1 SWAP6 LT PUSH2 0x176B JUMPI JUMPDEST POP POP POP DUP2 SHL ADD PUSH1 0x4 SSTORE STOP JUMPDEST ADD MLOAD PUSH1 0x0 NOT PUSH1 0xF8 DUP5 PUSH1 0x3 SHL AND SHR NOT AND SWAP1 SSTORE DUP3 DUP1 DUP1 PUSH2 0x1760 JUMP JUMPDEST DUP1 PUSH1 0x1 DUP6 SWAP7 DUP3 SWAP5 SWAP7 DUP7 ADD MLOAD DUP2 SSTORE ADD SWAP6 ADD SWAP4 ADD SWAP1 PUSH2 0x174D JUMP JUMPDEST PUSH1 0x4 PUSH1 0x0 MSTORE PUSH32 0x8A35ACFBC15FF81A39AE7D344FD709F28E8600B4AA8C65C6B64BFE7FE36BD19B PUSH1 0x1F DUP5 ADD PUSH1 0x5 SHR DUP2 ADD SWAP2 DUP4 DUP6 LT PUSH2 0x17F6 JUMPI JUMPDEST PUSH1 0x1F ADD PUSH1 0x5 SHR ADD SWAP1 JUMPDEST DUP2 DUP2 LT PUSH2 0x17EA JUMPI POP PUSH2 0x16DF JUMP JUMPDEST PUSH1 0x0 DUP2 SSTORE PUSH1 0x1 ADD PUSH2 0x17DD JUMP JUMPDEST SWAP1 SWAP2 POP DUP2 SWAP1 PUSH2 0x17D4 JUMP JUMPDEST CALLVALUE PUSH2 0xA8A JUMPI PUSH1 0x80 PUSH1 0x3 NOT CALLDATASIZE ADD SLT PUSH2 0xA8A JUMPI PUSH2 0x1819 PUSH2 0x2ACE JUMP JUMPDEST PUSH1 0x24 CALLDATALOAD PUSH1 0x44 CALLDATALOAD PUSH1 0x64 CALLDATALOAD PUSH8 0xFFFFFFFFFFFFFFFF DUP2 GT PUSH2 0xA8A JUMPI PUSH2 0x183F SWAP1 CALLDATASIZE SWAP1 PUSH1 0x4 ADD PUSH2 0x2C26 JUMP JUMPDEST SWAP3 PUSH2 0x1848 PUSH2 0x335E JUMP JUMPDEST PUSH2 0x1854 DUP3 PUSH1 0x2 SLOAD PUSH2 0x2D3A JUMP JUMPDEST PUSH1 0x2 SSTORE DUP3 PUSH1 0x0 MSTORE PUSH1 0x20 SWAP4 PUSH1 0x3 DUP6 MSTORE PUSH1 0x40 PUSH1 0x0 KECCAK256 PUSH2 0x1872 DUP5 DUP3 SLOAD PUSH2 0x2D3A JUMP JUMPDEST SWAP1 SSTORE PUSH20 0xFFFFFFFFFFFFFFFFFFFFFFFFFFFFFFFFFFFFFFFF DUP3 AND SWAP2 DUP3 PUSH1 0x0 MSTORE PUSH1 0x0 DUP7 MSTORE PUSH1 0x40 PUSH1 0x0 KECCAK256 DUP6 PUSH1 0x0 MSTORE DUP7 MSTORE PUSH1 0x40 PUSH1 0x0 KECCAK256 PUSH2 0x18AF DUP6 DUP3 SLOAD PUSH2 0x2D3A JUMP JUMPDEST SWAP1 SSTORE DUP3 PUSH1 0x0 PUSH1 0x40 MLOAD DUP8 DUP2 MSTORE DUP7 DUP10 DUP3 ADD MSTORE PUSH32 0xC3D58168C5AE7397731D063D5BBF3D657854427343F4C083240F7AACAA2D0F62 PUSH1 0x40 CALLER SWAP3 LOG4 PUSH2 0x18EF GAS SWAP2 PUSH2 0x2F17 JUMP JUMPDEST PUSH2 0x18F5 JUMPI STOP JUMPDEST PUSH2 0xBF6 SWAP4 PUSH1 0x0 DUP8 SWAP5 PUSH1 0x40 MLOAD DUP1 SWAP8 DUP2 SWAP7 DUP3 SWAP6 PUSH32 0xF23A6E6100000000000000000000000000000000000000000000000000000000 SWAP12 DUP13 DUP6 MSTORE CALLER PUSH1 0x4 DUP7 ADD MSTORE DUP7 PUSH1 0x24 DUP7 ADD MSTORE PUSH1 0x44 DUP6 ADD MSTORE PUSH1 0x64 DUP5 ADD MSTORE PUSH1 0xA0 PUSH1 0x84 DUP5 ADD MSTORE PUSH1 0xA4 DUP4 ADD SWAP1 PUSH2 0x2BE5 JUMP JUMPDEST CALLVALUE PUSH2 0xA8A JUMPI PUSH1 0x0 PUSH1 0x3 NOT CALLDATASIZE ADD SLT PUSH2 0xA8A JUMPI PUSH1 0x40 MLOAD PUSH1 0x0 PUSH1 0x4 SLOAD PUSH2 0x1974 DUP2 PUSH2 0x2B14 JUMP JUMPDEST DUP1 DUP5 MSTORE SWAP1 PUSH1 0x1 SWAP1 DUP2 DUP2 AND SWAP1 DUP2 ISZERO PUSH2 0xF3E JUMPI POP PUSH1 0x1 EQ PUSH2 0x199D JUMPI PUSH2 0xEDF DUP5 PUSH2 0xECB DUP2 DUP7 SUB DUP3 PUSH2 0x2B9F JUMP JUMPDEST PUSH1 0x4 PUSH1 0x0 SWAP1 DUP2 MSTORE SWAP3 POP PUSH32 0x8A35ACFBC15FF81A39AE7D344FD709F28E8600B4AA8C65C6B64BFE7FE36BD19B JUMPDEST DUP3 DUP5 LT PUSH2 0x19E0 JUMPI POP POP POP DUP2 ADD PUSH1 0x20 ADD PUSH2 0xECB DUP3 PUSH2 0xEBB JUMP JUMPDEST DUP1 SLOAD PUSH1 0x20 DUP6 DUP8 ADD DUP2 ADD SWAP2 SWAP1 SWAP2 MSTORE SWAP1 SWAP4 ADD SWAP3 DUP2 ADD PUSH2 0x19C8 JUMP JUMPDEST CALLVALUE PUSH2 0xA8A JUMPI PUSH1 0x60 PUSH1 0x3 NOT CALLDATASIZE ADD SLT PUSH2 0xA8A JUMPI PUSH2 0x1A11 PUSH2 0x2AF1 JUMP JUMPDEST PUSH1 0x44 CALLDATALOAD PUSH12 0xFFFFFFFFFFFFFFFFFFFFFFFF DUP2 AND DUP1 SWAP2 SUB PUSH2 0xA8A JUMPI PUSH2 0x1A32 PUSH2 0x2F4D JUMP JUMPDEST PUSH2 0x1A40 PUSH2 0x2710 DUP3 GT ISZERO PUSH2 0x39E7 JUMP JUMPDEST PUSH20 0xFFFFFFFFFFFFFFFFFFFFFFFFFFFFFFFFFFFFFFFF DUP1 SWAP3 AND SWAP2 DUP3 ISZERO PUSH2 0x1AB8 JUMPI PUSH32 0xFFFFFFFFFFFFFFFFFFFFFFFF0000000000000000000000000000000000000000 SWAP1 PUSH1 0x40 MLOAD SWAP4 PUSH2 0x1A8E DUP6 PUSH2 0x2B67 JUMP JUMPDEST DUP5 MSTORE PUSH1 0x20 DUP5 ADD SWAP3 DUP4 MSTORE PUSH1 0x4 CALLDATALOAD PUSH1 0x0 MSTORE PUSH1 0x7 PUSH1 0x20 MSTORE PUSH1 0x40 PUSH1 0x0 KECCAK256 SWAP4 MLOAD AND SWAP2 MLOAD PUSH1 0xA0 SHL AND OR SWAP1 SSTORE PUSH1 0x0 DUP1 RETURN JUMPDEST PUSH1 0x64 PUSH1 0x40 MLOAD PUSH32 0x8C379A000000000000000000000000000000000000000000000000000000000 DUP2 MSTORE PUSH1 0x20 PUSH1 0x4 DUP3 ADD MSTORE PUSH1 0x1B PUSH1 0x24 DUP3 ADD MSTORE PUSH32 0x455243323938313A20496E76616C696420706172616D65746572730000000000 PUSH1 0x44 DUP3 ADD MSTORE REVERT JUMPDEST CALLVALUE PUSH2 0xA8A JUMPI PUSH1 0x40 PUSH1 0x3 NOT CALLDATASIZE ADD SLT PUSH2 0xA8A JUMPI PUSH1 0x4 CALLDATALOAD PUSH8 0xFFFFFFFFFFFFFFFF DUP1 DUP3 GT PUSH2 0xA8A JUMPI CALLDATASIZE PUSH1 0x23 DUP4 ADD SLT ISZERO PUSH2 0xA8A JUMPI DUP2 PUSH1 0x4 ADD CALLDATALOAD SWAP1 PUSH2 0x1B54 DUP3 PUSH2 0x2C6D JUMP JUMPDEST SWAP3 PUSH2 0x1B62 PUSH1 0x40 MLOAD SWAP5 DUP6 PUSH2 0x2B9F JUMP JUMPDEST DUP3 DUP5 MSTORE PUSH1 0x20 SWAP3 PUSH1 0x24 DUP5 DUP7 ADD SWAP2 PUSH1 0x5 SHL DUP4 ADD ADD SWAP2 CALLDATASIZE DUP4 GT PUSH2 0xA8A JUMPI PUSH1 0x24 ADD SWAP1 JUMPDEST DUP3 DUP3 LT PUSH2 0x1CD9 JUMPI POP POP POP PUSH1 0x24 CALLDATALOAD SWAP1 DUP2 GT PUSH2 0xA8A JUMPI PUSH2 0x1BA3 SWAP1 CALLDATASIZE SWAP1 PUSH1 0x4 ADD PUSH2 0x2C85 JUMP JUMPDEST DUP3 MLOAD DUP2 MLOAD SUB PUSH2 0x1C55 JUMPI DUP3 MLOAD SWAP1 PUSH1 0x1F NOT PUSH2 0x1BD4 PUSH2 0x1BBE DUP5 PUSH2 0x2C6D JUMP JUMPDEST SWAP4 PUSH2 0x1BCC PUSH1 0x40 MLOAD SWAP6 DUP7 PUSH2 0x2B9F JUMP JUMPDEST DUP1 DUP6 MSTORE PUSH2 0x2C6D JUMP JUMPDEST ADD CALLDATASIZE DUP5 DUP5 ADD CALLDATACOPY PUSH1 0x0 JUMPDEST DUP5 MLOAD DUP2 LT ISZERO PUSH2 0x1C42 JUMPI DUP1 PUSH20 0xFFFFFFFFFFFFFFFFFFFFFFFFFFFFFFFFFFFFFFFF PUSH2 0x1C09 PUSH2 0x1C3D SWAP4 DUP9 PUSH2 0x2D8E JUMP JUMPDEST MLOAD AND PUSH1 0x0 MSTORE PUSH1 0x0 DUP6 MSTORE PUSH1 0x40 PUSH1 0x0 KECCAK256 PUSH2 0x1C21 DUP3 DUP6 PUSH2 0x2D8E JUMP JUMPDEST MLOAD PUSH1 0x0 MSTORE DUP6 MSTORE PUSH1 0x40 PUSH1 0x0 KECCAK256 SLOAD PUSH2 0x1C37 DUP3 DUP7 PUSH2 0x2D8E JUMP JUMPDEST MSTORE PUSH2 0x2D7F JUMP JUMPDEST PUSH2 0x1BDD JUMP JUMPDEST PUSH1 0x40 MLOAD DUP5 DUP2 MSTORE DUP1 PUSH2 0xEDF DUP2 DUP8 ADD DUP7 PUSH2 0x2CF9 JUMP JUMPDEST PUSH1 0x84 DUP3 PUSH1 0x40 MLOAD SWAP1 PUSH32 0x8C379A000000000000000000000000000000000000000000000000000000000 DUP3 MSTORE PUSH1 0x4 DUP3 ADD MSTORE PUSH1 0x2C PUSH1 0x24 DUP3 ADD MSTORE PUSH32 0x455243313135352362616C616E63654F6642617463683A20494E56414C49445F PUSH1 0x44 DUP3 ADD MSTORE PUSH32 0x41525241595F4C454E4754480000000000000000000000000000000000000000 PUSH1 0x64 DUP3 ADD MSTORE REVERT JUMPDEST DUP2 CALLDATALOAD PUSH20 0xFFFFFFFFFFFFFFFFFFFFFFFFFFFFFFFFFFFFFFFF DUP2 AND DUP2 SUB PUSH2 0xA8A JUMPI DUP2 MSTORE SWAP1 DUP5 ADD SWAP1 DUP5 ADD PUSH2 0x1B81 JUMP JUMPDEST CALLVALUE PUSH2 0xA8A JUMPI PUSH1 0x40 PUSH1 0x3 NOT CALLDATASIZE ADD SLT PUSH2 0xA8A JUMPI PUSH2 0x1D1E PUSH2 0x2AF1 JUMP JUMPDEST CALLER PUSH20 0xFFFFFFFFFFFFFFFFFFFFFFFFFFFFFFFFFFFFFFFF DUP3 AND SUB PUSH2 0x1D47 JUMPI PUSH2 0xFC2 SWAP1 PUSH1 0x4 CALLDATALOAD PUSH2 0x35D4 JUMP JUMPDEST PUSH1 0x84 PUSH1 0x40 MLOAD PUSH32 0x8C379A000000000000000000000000000000000000000000000000000000000 DUP2 MSTORE PUSH1 0x20 PUSH1 0x4 DUP3 ADD MSTORE PUSH1 0x2F PUSH1 0x24 DUP3 ADD MSTORE PUSH32 0x416363657373436F6E74726F6C3A2063616E206F6E6C792072656E6F756E6365 PUSH1 0x44 DUP3 ADD MSTORE PUSH32 0x20726F6C657320666F722073656C660000000000000000000000000000000000 PUSH1 0x64 DUP3 ADD MSTORE REVERT JUMPDEST CALLVALUE PUSH2 0xA8A JUMPI PUSH1 0x40 PUSH1 0x3 NOT CALLDATASIZE ADD SLT PUSH2 0xA8A JUMPI PUSH2 0xFC2 PUSH1 0x4 CALLDATALOAD PUSH1 0x9 PUSH2 0x1DEC PUSH2 0x2AF1 JUMP JUMPDEST SWAP2 DUP1 PUSH1 0x0 MSTORE PUSH1 0x20 SWAP1 PUSH1 0x8 DUP3 MSTORE PUSH2 0x1E09 PUSH1 0x1 PUSH1 0x40 PUSH1 0x0 KECCAK256 ADD SLOAD PUSH2 0x34B6 JUMP JUMPDEST DUP1 PUSH1 0x0 MSTORE PUSH1 0x8 DUP3 MSTORE PUSH20 0xFFFFFFFFFFFFFFFFFFFFFFFFFFFFFFFFFFFFFFFF PUSH1 0x40 PUSH1 0x0 KECCAK256 SWAP5 AND SWAP4 DUP5 PUSH1 0x0 MSTORE DUP3 MSTORE PUSH1 0xFF PUSH1 0x40 PUSH1 0x0 KECCAK256 SLOAD AND ISZERO PUSH2 0x1E51 JUMPI JUMPDEST PUSH1 0x0 MSTORE MSTORE PUSH1 0x40 PUSH1 0x0 KECCAK256 PUSH2 0x3809 JUMP JUMPDEST DUP1 PUSH1 0x0 MSTORE PUSH1 0x8 DUP3 MSTORE PUSH1 0x40 PUSH1 0x0 KECCAK256 DUP5 PUSH1 0x0 MSTORE DUP3 MSTORE PUSH1 0x40 PUSH1 0x0 KECCAK256 PUSH1 0x1 PUSH32 0xFFFFFFFFFFFFFFFFFFFFFFFFFFFFFFFFFFFFFFFFFFFFFFFFFFFFFFFFFFFFFF00 DUP3 SLOAD AND OR SWAP1 SSTORE CALLER DUP5 DUP3 PUSH32 0x2F8788117E7EFF1D82E926EC794901D17C78024A50270940304540A733656F0D PUSH1 0x0 DUP1 LOG4 PUSH2 0x1E43 JUMP JUMPDEST CALLVALUE PUSH2 0xA8A JUMPI PUSH1 0xA0 PUSH1 0x3 NOT CALLDATASIZE ADD SLT PUSH2 0xA8A JUMPI PUSH2 0x1ED8 PUSH2 0x2ACE JUMP JUMPDEST PUSH2 0x1EE0 PUSH2 0x2AF1 JUMP JUMPDEST SWAP1 PUSH1 0x44 SWAP1 PUSH8 0xFFFFFFFFFFFFFFFF SWAP1 DUP3 CALLDATALOAD DUP3 DUP2 GT PUSH2 0xA8A JUMPI PUSH2 0x1F05 SWAP1 CALLDATASIZE SWAP1 PUSH1 0x4 ADD PUSH2 0x2C85 JUMP JUMPDEST PUSH1 0x64 SWAP5 DUP6 CALLDATALOAD DUP5 DUP2 GT PUSH2 0xA8A JUMPI PUSH2 0x1F1F SWAP1 CALLDATASIZE SWAP1 PUSH1 0x4 ADD PUSH2 0x2C85 JUMP JUMPDEST SWAP4 PUSH1 0x84 CALLDATALOAD SWAP1 DUP2 GT PUSH2 0xA8A JUMPI PUSH2 0x1F38 SWAP1 CALLDATASIZE SWAP1 PUSH1 0x4 ADD PUSH2 0x2C26 JUMP JUMPDEST PUSH20 0xFFFFFFFFFFFFFFFFFFFFFFFFFFFFFFFFFFFFFFFF SWAP1 DUP2 DUP6 AND CALLER EQ DUP1 ISZERO PUSH2 0x235D JUMPI JUMPDEST ISZERO PUSH2 0x22DA JUMPI DUP2 DUP4 AND ISZERO PUSH2 0x2257 JUMPI DUP4 MLOAD DUP7 MLOAD SUB PUSH2 0x21D4 JUMPI DUP4 MLOAD PUSH1 0x0 JUMPDEST DUP2 DUP2 LT PUSH2 0x214A JUMPI POP POP PUSH1 0x40 MLOAD DUP3 DUP5 AND SWAP1 DUP4 DUP8 AND SWAP1 PUSH32 0x4A39DC06D4C0DBC64B70AF90FD698A233A518AA5D07E595D983B8C0526C8F7FB CALLER SWAP2 DUP1 PUSH2 0x1FB8 DUP13 DUP12 DUP4 PUSH2 0x2DD1 JUMP JUMPDEST SUB SWAP1 LOG4 GAS SWAP5 PUSH2 0x1FC6 DUP5 PUSH2 0x2F17 JUMP JUMPDEST PUSH2 0x1FCC JUMPI STOP JUMPDEST DUP3 SWAP2 PUSH1 0x40 MLOAD SWAP8 DUP9 SWAP7 DUP8 SWAP6 DUP7 SWAP5 PUSH32 0xBC197C8100000000000000000000000000000000000000000000000000000000 DUP7 MSTORE CALLER PUSH1 0x4 DUP8 ADD MSTORE AND PUSH1 0x24 DUP6 ADD MSTORE DUP11 DUP5 ADD PUSH1 0xA0 SWAP1 MSTORE PUSH1 0xA4 DUP5 ADD PUSH2 0x201B SWAP2 PUSH2 0x2CF9 JUMP JUMPDEST DUP4 DUP2 SUB PUSH1 0x3 NOT ADD DUP13 DUP6 ADD MSTORE PUSH2 0x202F SWAP2 PUSH2 0x2CF9 JUMP JUMPDEST DUP3 DUP2 SUB PUSH1 0x3 NOT ADD PUSH1 0x84 DUP5 ADD MSTORE PUSH2 0x2044 SWAP2 PUSH2 0x2BE5 JUMP JUMPDEST SUB SWAP3 AND PUSH1 0x0 SWAP1 PUSH1 0x20 SWAP6 CALL SWAP1 DUP2 ISZERO PUSH2 0xCE3 JUMPI PUSH32 0xBC197C8100000000000000000000000000000000000000000000000000000000 SWAP2 PUSH32 0xFFFFFFFF00000000000000000000000000000000000000000000000000000000 SWAP2 PUSH1 0x0 SWAP2 PUSH2 0x212C JUMPI JUMPDEST POP AND SUB PUSH2 0x20AA JUMPI STOP JUMPDEST PUSH32 0x7665643A20494E56414C49445F4F4E5F524543454956455F4D45535341474500 PUSH1 0x84 SWAP3 PUSH32 0x45524331313535235F63616C6C6F6E4552433131353542617463685265636569 PUSH1 0x40 MLOAD SWAP4 PUSH32 0x8C379A000000000000000000000000000000000000000000000000000000000 DUP6 MSTORE PUSH1 0x20 PUSH1 0x4 DUP7 ADD MSTORE PUSH1 0x3F PUSH1 0x24 DUP7 ADD MSTORE DUP5 ADD MSTORE DUP3 ADD MSTORE REVERT JUMPDEST PUSH2 0x2144 SWAP2 POP PUSH1 0x20 RETURNDATASIZE DUP2 GT PUSH2 0xCDC JUMPI PUSH2 0xCCE DUP2 DUP4 PUSH2 0x2B9F JUMP JUMPDEST DUP6 PUSH2 0x20A1 JUMP JUMPDEST DUP1 PUSH2 0x2158 PUSH2 0x21CF SWAP3 DUP11 PUSH2 0x2D8E JUMP JUMPDEST MLOAD DUP6 DUP10 AND PUSH1 0x0 MSTORE PUSH1 0x20 SWAP1 PUSH1 0x0 DUP3 MSTORE PUSH1 0x40 PUSH1 0x0 KECCAK256 PUSH2 0x2175 DUP5 DUP12 PUSH2 0x2D8E JUMP JUMPDEST MLOAD PUSH1 0x0 MSTORE DUP3 MSTORE PUSH2 0x218B PUSH1 0x40 PUSH1 0x0 KECCAK256 SWAP2 DUP3 SLOAD PUSH2 0x2D2D JUMP JUMPDEST SWAP1 SSTORE PUSH2 0x2197 DUP3 DUP12 PUSH2 0x2D8E JUMP JUMPDEST MLOAD SWAP1 DUP7 DUP9 AND PUSH1 0x0 MSTORE PUSH1 0x0 DUP2 MSTORE PUSH1 0x40 PUSH1 0x0 KECCAK256 SWAP1 PUSH2 0x21B3 DUP5 DUP12 PUSH2 0x2D8E JUMP JUMPDEST MLOAD PUSH1 0x0 MSTORE MSTORE PUSH2 0x21C8 PUSH1 0x40 PUSH1 0x0 KECCAK256 SWAP2 DUP3 SLOAD PUSH2 0x2D3A JUMP JUMPDEST SWAP1 SSTORE PUSH2 0x2D7F JUMP JUMPDEST PUSH2 0x1F75 JUMP JUMPDEST PUSH1 0x84 DUP8 PUSH32 0x494E56414C49445F4152524159535F4C454E4754480000000000000000000000 DUP11 PUSH32 0x45524331313535235F7361666542617463685472616E7366657246726F6D3A20 PUSH1 0x40 MLOAD SWAP4 PUSH32 0x8C379A000000000000000000000000000000000000000000000000000000000 DUP6 MSTORE PUSH1 0x20 PUSH1 0x4 DUP7 ADD MSTORE PUSH1 0x35 PUSH1 0x24 DUP7 ADD MSTORE DUP5 ADD MSTORE DUP3 ADD MSTORE REVERT JUMPDEST PUSH1 0x84 DUP8 PUSH32 0x4E56414C49445F524543495049454E5400000000000000000000000000000000 DUP11 PUSH32 0x45524331313535237361666542617463685472616E7366657246726F6D3A2049 PUSH1 0x40 MLOAD SWAP4 PUSH32 0x8C379A000000000000000000000000000000000000000000000000000000000 DUP6 MSTORE PUSH1 0x20 PUSH1 0x4 DUP7 ADD MSTORE PUSH1 0x30 PUSH1 0x24 DUP7 ADD MSTORE DUP5 ADD MSTORE DUP3 ADD MSTORE REVERT JUMPDEST PUSH1 0x84 DUP8 PUSH32 0x4E56414C49445F4F50455241544F520000000000000000000000000000000000 DUP11 PUSH32 0x45524331313535237361666542617463685472616E7366657246726F6D3A2049 PUSH1 0x40 MLOAD SWAP4 PUSH32 0x8C379A000000000000000000000000000000000000000000000000000000000 DUP6 MSTORE PUSH1 0x20 PUSH1 0x4 DUP7 ADD MSTORE PUSH1 0x2F PUSH1 0x24 DUP7 ADD MSTORE DUP5 ADD MSTORE DUP3 ADD MSTORE REVERT JUMPDEST POP DUP2 DUP6 AND PUSH1 0x0 MSTORE PUSH1 0x1 PUSH1 0x20 MSTORE PUSH1 0x40 PUSH1 0x0 KECCAK256 CALLER PUSH1 0x0 MSTORE PUSH1 0x20 MSTORE PUSH1 0xFF PUSH1 0x40 PUSH1 0x0 KECCAK256 SLOAD AND PUSH2 0x1F5A JUMP JUMPDEST CALLVALUE PUSH2 0xA8A JUMPI PUSH2 0x2391 CALLDATASIZE PUSH2 0x2CE3 JUMP JUMPDEST SWAP1 PUSH1 0x0 MSTORE PUSH1 0x7 PUSH1 0x20 MSTORE PUSH1 0x40 PUSH1 0x0 KECCAK256 SWAP1 PUSH1 0x40 MLOAD SWAP2 PUSH2 0x23AD DUP4 PUSH2 0x2B67 JUMP JUMPDEST SLOAD PUSH20 0xFFFFFFFFFFFFFFFFFFFFFFFFFFFFFFFFFFFFFFFF SWAP3 DUP4 DUP3 AND SWAP2 DUP3 DUP3 MSTORE PUSH1 0xA0 SHR PUSH1 0x20 DUP3 ADD MSTORE SWAP1 ISZERO PUSH2 0x2444 JUMPI JUMPDEST PUSH12 0xFFFFFFFFFFFFFFFFFFFFFFFF PUSH1 0x20 DUP3 ADD MLOAD AND SWAP2 DUP3 DUP2 MUL SWAP3 DUP2 DUP5 DIV EQ SWAP1 ISZERO OR ISZERO PUSH2 0x2415 JUMPI PUSH1 0x40 SWAP3 PUSH2 0x2710 SWAP2 MLOAD AND SWAP2 DUP4 MLOAD SWAP3 DUP4 MSTORE DIV PUSH1 0x20 DUP3 ADD MSTORE RETURN JUMPDEST PUSH32 0x4E487B7100000000000000000000000000000000000000000000000000000000 PUSH1 0x0 MSTORE PUSH1 0x11 PUSH1 0x4 MSTORE PUSH1 0x24 PUSH1 0x0 REVERT JUMPDEST POP PUSH1 0x40 MLOAD PUSH2 0x2451 DUP2 PUSH2 0x2B67 JUMP JUMPDEST PUSH1 0x6 SLOAD DUP4 DUP2 AND DUP3 MSTORE PUSH1 0xA0 SHR PUSH1 0x20 DUP3 ADD MSTORE PUSH2 0x23DA JUMP JUMPDEST CALLVALUE PUSH2 0xA8A JUMPI PUSH1 0x20 PUSH1 0x3 NOT CALLDATASIZE ADD SLT PUSH2 0xA8A JUMPI PUSH1 0x4 CALLDATALOAD PUSH1 0x0 MSTORE PUSH1 0x3 PUSH1 0x20 MSTORE PUSH1 0x20 PUSH1 0x40 PUSH1 0x0 KECCAK256 SLOAD PUSH1 0x40 MLOAD SWAP1 DUP2 MSTORE RETURN JUMPDEST CALLVALUE PUSH2 0xA8A JUMPI PUSH1 0x20 PUSH1 0x3 NOT CALLDATASIZE ADD SLT PUSH2 0xA8A JUMPI PUSH1 0x4 CALLDATALOAD PUSH1 0x0 MSTORE PUSH1 0x8 PUSH1 0x20 MSTORE PUSH1 0x20 PUSH1 0x1 PUSH1 0x40 PUSH1 0x0 KECCAK256 ADD SLOAD PUSH1 0x40 MLOAD SWAP1 DUP2 MSTORE RETURN JUMPDEST CALLVALUE PUSH2 0xA8A JUMPI PUSH1 0x40 PUSH1 0x3 NOT CALLDATASIZE ADD SLT PUSH2 0xA8A JUMPI PUSH8 0xFFFFFFFFFFFFFFFF PUSH1 0x4 CALLDATALOAD DUP2 DUP2 GT PUSH2 0xA8A JUMPI PUSH2 0x24F3 SWAP1 CALLDATASIZE SWAP1 PUSH1 0x4 ADD PUSH2 0x2C85 JUMP JUMPDEST SWAP1 PUSH1 0x24 CALLDATALOAD SWAP1 DUP2 GT PUSH2 0xA8A JUMPI PUSH2 0x250C SWAP1 CALLDATASIZE SWAP1 PUSH1 0x4 ADD PUSH2 0x2C85 JUMP JUMPDEST DUP2 MLOAD SWAP2 DUP2 MLOAD DUP4 SUB PUSH2 0x12D8 JUMPI PUSH1 0x0 SWAP3 PUSH1 0x0 SWAP1 JUMPDEST DUP1 DUP3 LT PUSH2 0x256F JUMPI POP POP PUSH2 0x2535 PUSH1 0x0 SWAP4 PUSH1 0x2 SLOAD PUSH2 0x2D2D JUMP JUMPDEST PUSH1 0x2 SSTORE PUSH32 0x4A39DC06D4C0DBC64B70AF90FD698A233A518AA5D07E595D983B8C0526C8F7FB PUSH1 0x40 MLOAD DUP1 PUSH2 0x256A CALLER SWAP6 CALLER SWAP6 DUP4 PUSH2 0x2DD1 JUMP JUMPDEST SUB SWAP1 LOG4 STOP JUMPDEST SWAP1 SWAP4 PUSH2 0x25EE PUSH2 0x25F4 SWAP2 PUSH2 0x2582 DUP8 DUP8 PUSH2 0x2D8E JUMP JUMPDEST MLOAD CALLER PUSH1 0x0 MSTORE PUSH1 0x20 SWAP1 PUSH1 0x0 DUP3 MSTORE PUSH1 0x40 PUSH1 0x0 KECCAK256 PUSH2 0x259D DUP11 DUP10 PUSH2 0x2D8E JUMP JUMPDEST MLOAD PUSH1 0x0 MSTORE DUP3 MSTORE PUSH2 0x25B3 PUSH1 0x40 PUSH1 0x0 KECCAK256 SWAP2 DUP3 SLOAD PUSH2 0x2D2D JUMP JUMPDEST SWAP1 SSTORE PUSH1 0x3 PUSH2 0x25C1 DUP10 DUP10 PUSH2 0x2D8E JUMP JUMPDEST MLOAD SWAP2 PUSH2 0x25CD DUP11 DUP10 PUSH2 0x2D8E JUMP JUMPDEST MLOAD PUSH1 0x0 MSTORE MSTORE PUSH2 0x25E2 PUSH1 0x40 PUSH1 0x0 KECCAK256 SWAP2 DUP3 SLOAD PUSH2 0x2D2D JUMP JUMPDEST SWAP1 SSTORE PUSH2 0x12C4 DUP8 DUP8 PUSH2 0x2D8E JUMP JUMPDEST SWAP5 PUSH2 0x2D7F JUMP JUMPDEST SWAP1 PUSH2 0x251E JUMP JUMPDEST CALLVALUE PUSH2 0xA8A JUMPI PUSH1 0x0 PUSH1 0x3 NOT CALLDATASIZE ADD SLT PUSH2 0xA8A JUMPI PUSH1 0x20 PUSH1 0x2 SLOAD PUSH1 0x40 MLOAD SWAP1 DUP2 MSTORE RETURN JUMPDEST CALLVALUE PUSH2 0xA8A JUMPI PUSH1 0x20 DUP1 PUSH1 0x3 NOT CALLDATASIZE ADD SLT PUSH2 0xA8A JUMPI PUSH2 0x2635 PUSH1 0x4 CALLDATALOAD PUSH2 0x2E0A JUMP JUMPDEST SWAP1 PUSH1 0x40 MLOAD SWAP2 DUP3 DUP3 PUSH1 0x0 PUSH1 0x4 SLOAD PUSH2 0x264A DUP2 PUSH2 0x2B14 JUMP JUMPDEST SWAP1 PUSH1 0x1 SWAP1 DUP2 DUP2 AND SWAP1 DUP2 ISZERO PUSH2 0x2743 JUMPI POP PUSH1 0x1 EQ PUSH2 0x26E0 JUMPI JUMPDEST POP POP SWAP1 DUP2 PUSH2 0x267B DUP6 PUSH1 0x5 SWAP6 SWAP5 PUSH2 0x26CC SWAP8 MLOAD SWAP5 DUP6 SWAP3 ADD PUSH2 0x2BC2 JUMP JUMPDEST ADD PUSH32 0x2E6A736F6E000000000000000000000000000000000000000000000000000000 DUP2 MSTORE SUB PUSH32 0xFFFFFFFFFFFFFFFFFFFFFFFFFFFFFFFFFFFFFFFFFFFFFFFFFFFFFFFFFFFFFFE5 DUP2 ADD DUP6 MSTORE ADD DUP4 PUSH2 0x2B9F JUMP JUMPDEST PUSH2 0xEDF PUSH1 0x40 MLOAD SWAP3 DUP3 DUP5 SWAP4 DUP5 MSTORE DUP4 ADD SWAP1 PUSH2 0x2BE5 JUMP JUMPDEST PUSH1 0x4 PUSH1 0x0 SWAP1 DUP2 MSTORE SWAP5 SWAP6 SWAP4 SWAP5 SWAP2 SWAP3 POP PUSH32 0x8A35ACFBC15FF81A39AE7D344FD709F28E8600B4AA8C65C6B64BFE7FE36BD19B JUMPDEST DUP4 DUP4 LT PUSH2 0x272B JUMPI POP SWAP3 SWAP5 SWAP4 SWAP3 POP POP DUP3 ADD DUP2 ADD DUP4 PUSH2 0x267B PUSH2 0x2661 JUMP JUMPDEST DUP1 SLOAD DUP4 DUP11 ADD DUP8 ADD MSTORE DUP9 SWAP7 POP DUP8 SWAP6 SWAP1 SWAP3 ADD SWAP2 DUP2 ADD PUSH2 0x2710 JUMP JUMPDEST PUSH32 0xFFFFFFFFFFFFFFFFFFFFFFFFFFFFFFFFFFFFFFFFFFFFFFFFFFFFFFFFFFFFFF00 AND DUP7 DUP7 ADD MSTORE POP POP DUP1 ISZERO ISZERO MUL DUP4 ADD DUP3 ADD SWAP1 POP DUP4 PUSH2 0x267B PUSH2 0x2661 JUMP JUMPDEST CALLVALUE PUSH2 0xA8A JUMPI PUSH1 0x20 DUP1 PUSH1 0x3 NOT CALLDATASIZE ADD SLT PUSH2 0xA8A JUMPI PUSH8 0xFFFFFFFFFFFFFFFF SWAP1 PUSH1 0x4 CALLDATALOAD DUP3 DUP2 GT PUSH2 0xA8A JUMPI PUSH2 0x27B2 SWAP1 CALLDATASIZE SWAP1 PUSH1 0x4 ADD PUSH2 0x2C26 JUMP JUMPDEST SWAP2 PUSH2 0x27BB PUSH2 0x3206 JUMP JUMPDEST DUP3 MLOAD SWAP1 DUP2 GT PUSH2 0x7FF JUMPI PUSH1 0x5 SWAP2 PUSH2 0x27D1 DUP4 SLOAD PUSH2 0x2B14 JUMP JUMPDEST PUSH1 0x1F DUP2 GT PUSH2 0x2896 JUMPI JUMPDEST POP DUP1 PUSH1 0x1F DUP4 GT PUSH1 0x1 EQ PUSH2 0x2816 JUMPI POP DUP2 SWAP3 SWAP4 PUSH1 0x0 SWAP3 PUSH2 0x280B JUMPI JUMPDEST POP POP PUSH1 0x0 NOT DUP3 PUSH1 0x1 SHL SWAP3 PUSH1 0x3 SHL SHR NOT AND OR SWAP1 SSTORE PUSH1 0x0 DUP1 RETURN JUMPDEST ADD MLOAD SWAP1 POP DUP4 DUP1 PUSH2 0x27F3 JUMP JUMPDEST SWAP1 PUSH1 0x1F NOT DUP4 AND SWAP5 DUP5 PUSH1 0x0 MSTORE PUSH32 0x36B6384B5ECA791C62761152D0C79BB0604C104A5FB6F4EB0703F3154BB3DB0 SWAP3 PUSH1 0x0 SWAP1 JUMPDEST DUP8 DUP3 LT PUSH2 0x287E JUMPI POP POP DUP4 PUSH1 0x1 SWAP6 SWAP7 LT PUSH2 0x2865 JUMPI JUMPDEST POP POP POP DUP2 SHL ADD SWAP1 SSTORE STOP JUMPDEST ADD MLOAD PUSH1 0x0 NOT PUSH1 0xF8 DUP5 PUSH1 0x3 SHL AND SHR NOT AND SWAP1 SSTORE DUP4 DUP1 DUP1 PUSH2 0x285B JUMP JUMPDEST DUP1 PUSH1 0x1 DUP6 SWAP7 DUP3 SWAP5 SWAP7 DUP7 ADD MLOAD DUP2 SSTORE ADD SWAP6 ADD SWAP4 ADD SWAP1 PUSH2 0x2847 JUMP JUMPDEST DUP4 PUSH1 0x0 MSTORE PUSH32 0x36B6384B5ECA791C62761152D0C79BB0604C104A5FB6F4EB0703F3154BB3DB0 PUSH1 0x1F DUP5 ADD DUP6 SHR DUP2 ADD SWAP2 DUP4 DUP6 LT PUSH2 0x28ED JUMPI JUMPDEST PUSH1 0x1F ADD DUP6 SHR ADD SWAP1 JUMPDEST DUP2 DUP2 LT PUSH2 0x28E1 JUMPI POP PUSH2 0x27DA JUMP JUMPDEST PUSH1 0x0 DUP2 SSTORE PUSH1 0x1 ADD PUSH2 0x28D4 JUMP JUMPDEST SWAP1 SWAP2 POP DUP2 SWAP1 PUSH2 0x28CC JUMP JUMPDEST CALLVALUE PUSH2 0xA8A JUMPI PUSH1 0x0 PUSH1 0x3 NOT CALLDATASIZE ADD SLT PUSH2 0xA8A JUMPI PUSH1 0x40 MLOAD PUSH1 0x0 PUSH1 0x5 SLOAD PUSH2 0x2919 DUP2 PUSH2 0x2B14 JUMP JUMPDEST DUP1 DUP5 MSTORE SWAP1 PUSH1 0x1 SWAP1 DUP2 DUP2 AND SWAP1 DUP2 ISZERO PUSH2 0xF3E JUMPI POP PUSH1 0x1 EQ PUSH2 0x2942 JUMPI PUSH2 0xEDF DUP5 PUSH2 0xECB DUP2 DUP7 SUB DUP3 PUSH2 0x2B9F JUMP JUMPDEST PUSH1 0x5 PUSH1 0x0 SWAP1 DUP2 MSTORE SWAP3 POP PUSH32 0x36B6384B5ECA791C62761152D0C79BB0604C104A5FB6F4EB0703F3154BB3DB0 JUMPDEST DUP3 DUP5 LT PUSH2 0x2985 JUMPI POP POP POP DUP2 ADD PUSH1 0x20 ADD PUSH2 0xECB DUP3 PUSH2 0xEBB JUMP JUMPDEST DUP1 SLOAD PUSH1 0x20 DUP6 DUP8 ADD DUP2 ADD SWAP2 SWAP1 SWAP2 MSTORE SWAP1 SWAP4 ADD SWAP3 DUP2 ADD PUSH2 0x296D JUMP JUMPDEST CALLVALUE PUSH2 0xA8A JUMPI PUSH1 0x40 PUSH1 0x3 NOT CALLDATASIZE ADD SLT PUSH2 0xA8A JUMPI PUSH2 0x29B6 PUSH2 0x2ACE JUMP JUMPDEST PUSH1 0x24 CALLDATALOAD PUSH12 0xFFFFFFFFFFFFFFFFFFFFFFFF DUP2 AND DUP2 SUB PUSH2 0xA8A JUMPI PUSH2 0xFC2 SWAP2 PUSH2 0x29DA PUSH2 0x2F4D JUMP JUMPDEST PUSH2 0x3A72 JUMP JUMPDEST CALLVALUE PUSH2 0xA8A JUMPI PUSH1 0x20 PUSH1 0x3 NOT CALLDATASIZE ADD SLT PUSH2 0xA8A JUMPI PUSH1 0x4 CALLDATALOAD PUSH32 0xFFFFFFFF00000000000000000000000000000000000000000000000000000000 DUP2 AND SWAP1 DUP2 DUP2 SUB PUSH2 0xA8A JUMPI PUSH1 0x20 SWAP2 PUSH32 0xC79B8B5F00000000000000000000000000000000000000000000000000000000 EQ SWAP1 DUP2 ISZERO PUSH2 0x2A6D JUMPI JUMPDEST DUP2 ISZERO PUSH2 0x2A5D JUMPI JUMPDEST POP PUSH1 0x40 MLOAD SWAP1 ISZERO ISZERO DUP2 MSTORE RETURN JUMPDEST PUSH2 0x2A67 SWAP2 POP PUSH2 0x3B4A JUMP JUMPDEST DUP3 PUSH2 0x2A52 JUMP JUMPDEST SWAP1 POP PUSH2 0x2A78 DUP2 PUSH2 0x3B4A JUMP JUMPDEST SWAP1 PUSH2 0x2A4B JUMP JUMPDEST CALLVALUE PUSH2 0xA8A JUMPI PUSH1 0x40 PUSH1 0x3 NOT CALLDATASIZE ADD SLT PUSH2 0xA8A JUMPI PUSH1 0x20 SWAP1 PUSH20 0xFFFFFFFFFFFFFFFFFFFFFFFFFFFFFFFFFFFFFFFF PUSH2 0x2AAF PUSH2 0x2ACE JUMP JUMPDEST AND PUSH1 0x0 MSTORE PUSH1 0x0 DUP3 MSTORE PUSH1 0x40 PUSH1 0x0 KECCAK256 PUSH1 0x24 CALLDATALOAD PUSH1 0x0 MSTORE DUP3 MSTORE PUSH1 0x40 PUSH1 0x0 KECCAK256 SLOAD DUP2 MSTORE RETURN JUMPDEST PUSH1 0x4 CALLDATALOAD SWAP1 PUSH20 0xFFFFFFFFFFFFFFFFFFFFFFFFFFFFFFFFFFFFFFFF DUP3 AND DUP3 SUB PUSH2 0xA8A JUMPI JUMP JUMPDEST PUSH1 0x24 CALLDATALOAD SWAP1 PUSH20 0xFFFFFFFFFFFFFFFFFFFFFFFFFFFFFFFFFFFFFFFF DUP3 AND DUP3 SUB PUSH2 0xA8A JUMPI JUMP JUMPDEST SWAP1 PUSH1 0x1 DUP3 DUP2 SHR SWAP3 AND DUP1 ISZERO PUSH2 0x2B5D JUMPI JUMPDEST PUSH1 0x20 DUP4 LT EQ PUSH2 0x2B2E JUMPI JUMP JUMPDEST PUSH32 0x4E487B7100000000000000000000000000000000000000000000000000000000 PUSH1 0x0 MSTORE PUSH1 0x22 PUSH1 0x4 MSTORE PUSH1 0x24 PUSH1 0x0 REVERT JUMPDEST SWAP2 PUSH1 0x7F AND SWAP2 PUSH2 0x2B23 JUMP JUMPDEST PUSH1 0x40 DUP2 ADD SWAP1 DUP2 LT PUSH8 0xFFFFFFFFFFFFFFFF DUP3 GT OR PUSH2 0x7FF JUMPI PUSH1 0x40 MSTORE JUMP JUMPDEST PUSH1 0x80 DUP2 ADD SWAP1 DUP2 LT PUSH8 0xFFFFFFFFFFFFFFFF DUP3 GT OR PUSH2 0x7FF JUMPI PUSH1 0x40 MSTORE JUMP JUMPDEST SWAP1 PUSH1 0x1F PUSH1 0x1F NOT SWAP2 ADD AND DUP2 ADD SWAP1 DUP2 LT PUSH8 0xFFFFFFFFFFFFFFFF DUP3 GT OR PUSH2 0x7FF JUMPI PUSH1 0x40 MSTORE JUMP JUMPDEST PUSH1 0x0 JUMPDEST DUP4 DUP2 LT PUSH2 0x2BD5 JUMPI POP POP PUSH1 0x0 SWAP2 ADD MSTORE JUMP JUMPDEST DUP2 DUP2 ADD MLOAD DUP4 DUP3 ADD MSTORE PUSH1 0x20 ADD PUSH2 0x2BC5 JUMP JUMPDEST SWAP1 PUSH1 0x1F NOT PUSH1 0x1F PUSH1 0x20 SWAP4 PUSH2 0x2C03 DUP2 MLOAD DUP1 SWAP3 DUP2 DUP8 MSTORE DUP8 DUP1 DUP9 ADD SWAP2 ADD PUSH2 0x2BC2 JUMP JUMPDEST ADD AND ADD ADD SWAP1 JUMP JUMPDEST PUSH8 0xFFFFFFFFFFFFFFFF DUP2 GT PUSH2 0x7FF JUMPI PUSH1 0x1F ADD PUSH1 0x1F NOT AND PUSH1 0x20 ADD SWAP1 JUMP JUMPDEST DUP2 PUSH1 0x1F DUP3 ADD SLT ISZERO PUSH2 0xA8A JUMPI DUP1 CALLDATALOAD SWAP1 PUSH2 0x2C3D DUP3 PUSH2 0x2C0A JUMP JUMPDEST SWAP3 PUSH2 0x2C4B PUSH1 0x40 MLOAD SWAP5 DUP6 PUSH2 0x2B9F JUMP JUMPDEST DUP3 DUP5 MSTORE PUSH1 0x20 DUP4 DUP4 ADD ADD GT PUSH2 0xA8A JUMPI DUP2 PUSH1 0x0 SWAP3 PUSH1 0x20 DUP1 SWAP4 ADD DUP4 DUP7 ADD CALLDATACOPY DUP4 ADD ADD MSTORE SWAP1 JUMP JUMPDEST PUSH8 0xFFFFFFFFFFFFFFFF DUP2 GT PUSH2 0x7FF JUMPI PUSH1 0x5 SHL PUSH1 0x20 ADD SWAP1 JUMP JUMPDEST DUP2 PUSH1 0x1F DUP3 ADD SLT ISZERO PUSH2 0xA8A JUMPI DUP1 CALLDATALOAD SWAP2 PUSH2 0x2C9C DUP4 PUSH2 0x2C6D JUMP JUMPDEST SWAP3 PUSH2 0x2CAA PUSH1 0x40 MLOAD SWAP5 DUP6 PUSH2 0x2B9F JUMP JUMPDEST DUP1 DUP5 MSTORE PUSH1 0x20 SWAP3 DUP4 DUP1 DUP7 ADD SWAP3 PUSH1 0x5 SHL DUP3 ADD ADD SWAP3 DUP4 GT PUSH2 0xA8A JUMPI DUP4 ADD SWAP1 JUMPDEST DUP3 DUP3 LT PUSH2 0x2CD4 JUMPI POP POP POP POP SWAP1 JUMP JUMPDEST DUP2 CALLDATALOAD DUP2 MSTORE SWAP1 DUP4 ADD SWAP1 DUP4 ADD PUSH2 0x2CC6 JUMP JUMPDEST PUSH1 0x3 NOT PUSH1 0x40 SWAP2 ADD SLT PUSH2 0xA8A JUMPI PUSH1 0x4 CALLDATALOAD SWAP1 PUSH1 0x24 CALLDATALOAD SWAP1 JUMP JUMPDEST SWAP1 DUP2 MLOAD DUP1 DUP3 MSTORE PUSH1 0x20 DUP1 DUP1 SWAP4 ADD SWAP4 ADD SWAP2 PUSH1 0x0 JUMPDEST DUP3 DUP2 LT PUSH2 0x2D19 JUMPI POP POP POP POP SWAP1 JUMP JUMPDEST DUP4 MLOAD DUP6 MSTORE SWAP4 DUP2 ADD SWAP4 SWAP3 DUP2 ADD SWAP3 PUSH1 0x1 ADD PUSH2 0x2D0B JUMP JUMPDEST SWAP2 SWAP1 DUP3 SUB SWAP2 DUP3 GT PUSH2 0x2415 JUMPI JUMP JUMPDEST SWAP2 SWAP1 DUP3 ADD DUP1 SWAP3 GT PUSH2 0x2415 JUMPI JUMP JUMPDEST SWAP1 DUP2 PUSH1 0x20 SWAP2 SUB SLT PUSH2 0xA8A JUMPI MLOAD PUSH32 0xFFFFFFFF00000000000000000000000000000000000000000000000000000000 DUP2 AND DUP2 SUB PUSH2 0xA8A JUMPI SWAP1 JUMP JUMPDEST PUSH1 0x0 NOT DUP2 EQ PUSH2 0x2415 JUMPI PUSH1 0x1 ADD SWAP1 JUMP JUMPDEST DUP1 MLOAD DUP3 LT ISZERO PUSH2 0x2DA2 JUMPI PUSH1 0x20 SWAP2 PUSH1 0x5 SHL ADD ADD SWAP1 JUMP JUMPDEST PUSH32 0x4E487B7100000000000000000000000000000000000000000000000000000000 PUSH1 0x0 MSTORE PUSH1 0x32 PUSH1 0x4 MSTORE PUSH1 0x24 PUSH1 0x0 REVERT JUMPDEST SWAP1 SWAP2 PUSH2 0x2DE8 PUSH2 0x2DF6 SWAP4 PUSH1 0x40 DUP5 MSTORE PUSH1 0x40 DUP5 ADD SWAP1 PUSH2 0x2CF9 JUMP JUMPDEST SWAP2 PUSH1 0x20 DUP2 DUP5 SUB SWAP2 ADD MSTORE PUSH2 0x2CF9 JUMP JUMPDEST SWAP1 JUMP JUMPDEST SWAP1 DUP2 MLOAD DUP2 LT ISZERO PUSH2 0x2DA2 JUMPI ADD PUSH1 0x20 ADD SWAP1 JUMP JUMPDEST DUP1 ISZERO PUSH2 0x2EDD JUMPI DUP1 DUP2 PUSH1 0x0 SWAP3 JUMPDEST PUSH2 0x2EC9 JUMPI POP DUP1 PUSH2 0x2E25 DUP4 PUSH2 0x2C0A JUMP JUMPDEST SWAP3 PUSH2 0x2E33 PUSH1 0x40 MLOAD SWAP5 DUP6 PUSH2 0x2B9F JUMP JUMPDEST DUP1 DUP5 MSTORE PUSH1 0x1F NOT PUSH2 0x2E42 DUP3 PUSH2 0x2C0A JUMP JUMPDEST ADD CALLDATASIZE PUSH1 0x20 DUP7 ADD CALLDATACOPY SWAP2 JUMPDEST PUSH2 0x2E54 JUMPI POP POP SWAP1 JUMP JUMPDEST PUSH1 0x0 NOT DUP3 ADD SWAP2 DUP3 GT PUSH2 0x2415 JUMPI DUP2 PUSH1 0xA DUP1 DUP4 DIV SWAP3 DUP2 DUP5 MUL SWAP2 DUP5 DUP4 DIV EQ DUP5 ISZERO OR ISZERO PUSH2 0x2415 JUMPI PUSH2 0x2E84 PUSH1 0xFF SWAP3 DUP4 SWAP3 PUSH2 0x2D2D JUMP JUMPDEST AND PUSH1 0x30 ADD SWAP1 DUP2 GT PUSH2 0x2415 JUMPI PUSH32 0xFF00000000000000000000000000000000000000000000000000000000000000 PUSH2 0x2EC2 SWAP2 PUSH1 0xF8 SHL AND PUSH1 0x0 BYTE SWAP2 DUP6 PUSH2 0x2DF9 JUMP JUMPDEST MSTORE8 DUP1 PUSH2 0x2E4B JUMP JUMPDEST SWAP2 PUSH2 0x2ED5 PUSH1 0xA SWAP2 PUSH2 0x2D7F JUMP JUMPDEST SWAP3 DIV DUP1 PUSH2 0x2E16 JUMP JUMPDEST POP PUSH1 0x40 MLOAD PUSH2 0x2EEA DUP2 PUSH2 0x2B67 JUMP JUMPDEST PUSH1 0x1 DUP2 MSTORE PUSH32 0x3000000000000000000000000000000000000000000000000000000000000000 PUSH1 0x20 DUP3 ADD MSTORE SWAP1 JUMP JUMPDEST EXTCODEHASH DUP1 ISZERO ISZERO SWAP1 DUP2 PUSH2 0x2F25 JUMPI POP SWAP1 JUMP JUMPDEST PUSH32 0xC5D2460186F7233C927E7DB2DCC703C0E500B653CA82273B7BFAD8045D85A470 SWAP2 POP EQ ISZERO SWAP1 JUMP JUMPDEST CALLER PUSH1 0x0 SWAP1 DUP2 MSTORE PUSH32 0xA9CED9FDC45CDED6D4B7A90E36D1EE82B957A500CC22704C465E9BDF275406FD PUSH1 0x20 SWAP1 DUP2 MSTORE PUSH1 0x40 DUP1 DUP4 KECCAK256 SLOAD SWAP1 SWAP3 PUSH32 0x6DB4061A20CA83A3BE756EE172BD37A029093AC5AFE4CE968C6D5435B43CB011 SWAP2 PUSH1 0xFF AND ISZERO PUSH2 0x2FB1 JUMPI POP POP POP POP JUMP JUMPDEST PUSH2 0x2FBA CALLER PUSH2 0x3689 JUMP JUMPDEST SWAP2 DUP5 MLOAD SWAP1 PUSH2 0x2FC7 DUP3 PUSH2 0x2B83 JUMP JUMPDEST PUSH1 0x42 DUP3 MSTORE DUP5 DUP3 ADD SWAP3 PUSH1 0x60 CALLDATASIZE DUP6 CALLDATACOPY DUP3 MLOAD ISZERO PUSH2 0x31D9 JUMPI PUSH1 0x30 DUP5 MSTORE8 DUP3 MLOAD SWAP1 PUSH1 0x1 SWAP2 DUP3 LT ISZERO PUSH2 0x31D9 JUMPI SWAP1 PUSH1 0x78 PUSH1 0x21 DUP6 ADD MSTORE8 PUSH1 0x41 SWAP2 JUMPDEST DUP2 DUP4 GT PUSH2 0x312C JUMPI POP POP POP PUSH2 0x30D0 JUMPI PUSH1 0x48 PUSH2 0x30CC SWAP4 DUP7 SWAP4 PUSH2 0x3096 SWAP4 PUSH2 0x3087 SWAP9 MLOAD SWAP9 DUP10 SWAP4 PUSH32 0x416363657373436F6E74726F6C3A206163636F756E7420000000000000000000 DUP11 DUP7 ADD MSTORE PUSH2 0x3052 DUP2 MLOAD DUP1 SWAP3 DUP13 PUSH1 0x37 DUP10 ADD SWAP2 ADD PUSH2 0x2BC2 JUMP JUMPDEST DUP5 ADD SWAP2 PUSH32 0x206973206D697373696E6720726F6C6520000000000000000000000000000000 PUSH1 0x37 DUP5 ADD MSTORE MLOAD DUP1 SWAP4 DUP7 DUP5 ADD SWAP1 PUSH2 0x2BC2 JUMP JUMPDEST ADD SUB PUSH1 0x28 DUP2 ADD DUP8 MSTORE ADD DUP6 PUSH2 0x2B9F JUMP JUMPDEST MLOAD SWAP3 DUP4 SWAP3 PUSH32 0x8C379A000000000000000000000000000000000000000000000000000000000 DUP5 MSTORE PUSH1 0x4 DUP5 ADD MSTORE PUSH1 0x24 DUP4 ADD SWAP1 PUSH2 0x2BE5 JUMP JUMPDEST SUB SWAP1 REVERT JUMPDEST PUSH1 0x64 DUP5 DUP7 MLOAD SWAP1 PUSH32 0x8C379A000000000000000000000000000000000000000000000000000000000 DUP3 MSTORE DUP1 PUSH1 0x4 DUP4 ADD MSTORE PUSH1 0x24 DUP3 ADD MSTORE PUSH32 0x537472696E67733A20686578206C656E67746820696E73756666696369656E74 PUSH1 0x44 DUP3 ADD MSTORE REVERT JUMPDEST SWAP1 SWAP2 SWAP3 PUSH1 0xF DUP2 AND PUSH1 0x10 DUP2 LT ISZERO PUSH2 0x31AC JUMPI PUSH32 0x3031323334353637383961626364656600000000000000000000000000000000 SWAP1 BYTE PUSH2 0x3169 DUP6 DUP8 PUSH2 0x2DF9 JUMP JUMPDEST MSTORE8 PUSH1 0x4 SHR SWAP3 DUP1 ISZERO PUSH2 0x317F JUMPI PUSH1 0x0 NOT ADD SWAP2 SWAP1 PUSH2 0x2FF8 JUMP JUMPDEST PUSH1 0x24 DUP3 PUSH32 0x4E487B7100000000000000000000000000000000000000000000000000000000 DUP2 MSTORE PUSH1 0x11 PUSH1 0x4 MSTORE REVERT JUMPDEST PUSH1 0x24 DUP4 PUSH32 0x4E487B7100000000000000000000000000000000000000000000000000000000 DUP2 MSTORE PUSH1 0x32 PUSH1 0x4 MSTORE REVERT JUMPDEST DUP1 PUSH32 0x4E487B7100000000000000000000000000000000000000000000000000000000 PUSH1 0x24 SWAP3 MSTORE PUSH1 0x32 PUSH1 0x4 MSTORE REVERT JUMPDEST CALLER PUSH1 0x0 SWAP1 DUP2 MSTORE PUSH32 0x95F185554ABA264DE8ED412AF70E5ABA6ACB0E648F258C912AD29ED85D11CA18 PUSH1 0x20 SWAP1 DUP2 MSTORE PUSH1 0x40 DUP1 DUP4 KECCAK256 SLOAD SWAP1 SWAP3 PUSH32 0xE02A0315B383857AC496E9D2B2546A699AFAEB4E5E83A1FDEF64376D0B74E5A5 SWAP2 PUSH1 0xFF AND ISZERO PUSH2 0x326A JUMPI POP POP POP POP JUMP JUMPDEST PUSH2 0x3273 CALLER PUSH2 0x3689 JUMP JUMPDEST SWAP2 DUP5 MLOAD SWAP1 PUSH2 0x3280 DUP3 PUSH2 0x2B83 JUMP JUMPDEST PUSH1 0x42 DUP3 MSTORE DUP5 DUP3 ADD SWAP3 PUSH1 0x60 CALLDATASIZE DUP6 CALLDATACOPY DUP3 MLOAD ISZERO PUSH2 0x31D9 JUMPI PUSH1 0x30 DUP5 MSTORE8 DUP3 MLOAD SWAP1 PUSH1 0x1 SWAP2 DUP3 LT ISZERO PUSH2 0x31D9 JUMPI SWAP1 PUSH1 0x78 PUSH1 0x21 DUP6 ADD MSTORE8 PUSH1 0x41 SWAP2 JUMPDEST DUP2 DUP4 GT PUSH2 0x330B JUMPI POP POP POP PUSH2 0x30D0 JUMPI PUSH1 0x48 PUSH2 0x30CC SWAP4 DUP7 SWAP4 PUSH2 0x3096 SWAP4 PUSH2 0x3087 SWAP9 MLOAD SWAP9 DUP10 SWAP4 PUSH32 0x416363657373436F6E74726F6C3A206163636F756E7420000000000000000000 DUP11 DUP7 ADD MSTORE PUSH2 0x3052 DUP2 MLOAD DUP1 SWAP3 DUP13 PUSH1 0x37 DUP10 ADD SWAP2 ADD PUSH2 0x2BC2 JUMP JUMPDEST SWAP1 SWAP2 SWAP3 PUSH1 0xF DUP2 AND PUSH1 0x10 DUP2 LT ISZERO PUSH2 0x31AC JUMPI PUSH32 0x3031323334353637383961626364656600000000000000000000000000000000 SWAP1 BYTE PUSH2 0x3348 DUP6 DUP8 PUSH2 0x2DF9 JUMP JUMPDEST MSTORE8 PUSH1 0x4 SHR SWAP3 DUP1 ISZERO PUSH2 0x317F JUMPI PUSH1 0x0 NOT ADD SWAP2 SWAP1 PUSH2 0x32B1 JUMP JUMPDEST CALLER PUSH1 0x0 SWAP1 DUP2 MSTORE PUSH32 0x51A495916474FE1A0C0FCFB65A8A97682B84A054118858CDD1F5DFD7FC0919EB PUSH1 0x20 SWAP1 DUP2 MSTORE PUSH1 0x40 DUP1 DUP4 KECCAK256 SLOAD SWAP1 SWAP3 PUSH32 0x9F2DF0FED2C77648DE5860A4CC508CD0818C85B8B8A1AB4CEEEF8D981C8956A6 SWAP2 PUSH1 0xFF AND ISZERO PUSH2 0x33C2 JUMPI POP POP POP POP JUMP JUMPDEST PUSH2 0x33CB CALLER PUSH2 0x3689 JUMP JUMPDEST SWAP2 DUP5 MLOAD SWAP1 PUSH2 0x33D8 DUP3 PUSH2 0x2B83 JUMP JUMPDEST PUSH1 0x42 DUP3 MSTORE DUP5 DUP3 ADD SWAP3 PUSH1 0x60 CALLDATASIZE DUP6 CALLDATACOPY DUP3 MLOAD ISZERO PUSH2 0x31D9 JUMPI PUSH1 0x30 DUP5 MSTORE8 DUP3 MLOAD SWAP1 PUSH1 0x1 SWAP2 DUP3 LT ISZERO PUSH2 0x31D9 JUMPI SWAP1 PUSH1 0x78 PUSH1 0x21 DUP6 ADD MSTORE8 PUSH1 0x41 SWAP2 JUMPDEST DUP2 DUP4 GT PUSH2 0x3463 JUMPI POP POP POP PUSH2 0x30D0 JUMPI PUSH1 0x48 PUSH2 0x30CC SWAP4 DUP7 SWAP4 PUSH2 0x3096 SWAP4 PUSH2 0x3087 SWAP9 MLOAD SWAP9 DUP10 SWAP4 PUSH32 0x416363657373436F6E74726F6C3A206163636F756E7420000000000000000000 DUP11 DUP7 ADD MSTORE PUSH2 0x3052 DUP2 MLOAD DUP1 SWAP3 DUP13 PUSH1 0x37 DUP10 ADD SWAP2 ADD PUSH2 0x2BC2 JUMP JUMPDEST SWAP1 SWAP2 SWAP3 PUSH1 0xF DUP2 AND PUSH1 0x10 DUP2 LT ISZERO PUSH2 0x31AC JUMPI PUSH32 0x3031323334353637383961626364656600000000000000000000000000000000 SWAP1 BYTE PUSH2 0x34A0 DUP6 DUP8 PUSH2 0x2DF9 JUMP JUMPDEST MSTORE8 PUSH1 0x4 SHR SWAP3 DUP1 ISZERO PUSH2 0x317F JUMPI PUSH1 0x0 NOT ADD SWAP2 SWAP1 PUSH2 0x3409 JUMP JUMPDEST PUSH1 0x0 SWAP1 DUP1 DUP3 MSTORE PUSH1 0x20 SWAP1 PUSH1 0x8 DUP3 MSTORE PUSH1 0x40 SWAP3 DUP4 DUP2 KECCAK256 CALLER DUP3 MSTORE DUP4 MSTORE PUSH1 0xFF DUP5 DUP3 KECCAK256 SLOAD AND ISZERO PUSH2 0x34E0 JUMPI POP POP POP POP JUMP JUMPDEST PUSH2 0x34E9 CALLER PUSH2 0x3689 JUMP JUMPDEST SWAP2 DUP5 MLOAD SWAP1 PUSH2 0x34F6 DUP3 PUSH2 0x2B83 JUMP JUMPDEST PUSH1 0x42 DUP3 MSTORE DUP5 DUP3 ADD SWAP3 PUSH1 0x60 CALLDATASIZE DUP6 CALLDATACOPY DUP3 MLOAD ISZERO PUSH2 0x31D9 JUMPI PUSH1 0x30 DUP5 MSTORE8 DUP3 MLOAD SWAP1 PUSH1 0x1 SWAP2 DUP3 LT ISZERO PUSH2 0x31D9 JUMPI SWAP1 PUSH1 0x78 PUSH1 0x21 DUP6 ADD MSTORE8 PUSH1 0x41 SWAP2 JUMPDEST DUP2 DUP4 GT PUSH2 0x3581 JUMPI POP POP POP PUSH2 0x30D0 JUMPI PUSH1 0x48 PUSH2 0x30CC SWAP4 DUP7 SWAP4 PUSH2 0x3096 SWAP4 PUSH2 0x3087 SWAP9 MLOAD SWAP9 DUP10 SWAP4 PUSH32 0x416363657373436F6E74726F6C3A206163636F756E7420000000000000000000 DUP11 DUP7 ADD MSTORE PUSH2 0x3052 DUP2 MLOAD DUP1 SWAP3 DUP13 PUSH1 0x37 DUP10 ADD SWAP2 ADD PUSH2 0x2BC2 JUMP JUMPDEST SWAP1 SWAP2 SWAP3 PUSH1 0xF DUP2 AND PUSH1 0x10 DUP2 LT ISZERO PUSH2 0x31AC JUMPI PUSH32 0x3031323334353637383961626364656600000000000000000000000000000000 SWAP1 BYTE PUSH2 0x35BE DUP6 DUP8 PUSH2 0x2DF9 JUMP JUMPDEST MSTORE8 PUSH1 0x4 SHR SWAP3 DUP1 ISZERO PUSH2 0x317F JUMPI PUSH1 0x0 NOT ADD SWAP2 SWAP1 PUSH2 0x3527 JUMP JUMPDEST SWAP1 PUSH1 0x40 PUSH2 0x3620 SWAP3 PUSH1 0x0 SWAP1 DUP1 DUP3 MSTORE PUSH1 0x8 PUSH1 0x20 MSTORE PUSH20 0xFFFFFFFFFFFFFFFFFFFFFFFFFFFFFFFFFFFFFFFF DUP4 DUP4 KECCAK256 SWAP5 AND SWAP4 DUP5 DUP4 MSTORE PUSH1 0x20 MSTORE PUSH1 0xFF DUP4 DUP4 KECCAK256 SLOAD AND PUSH2 0x3623 JUMPI JUMPDEST DUP2 MSTORE PUSH1 0x9 PUSH1 0x20 MSTORE KECCAK256 PUSH2 0x38AC JUMP JUMPDEST POP JUMP JUMPDEST DUP1 DUP3 MSTORE PUSH1 0x8 PUSH1 0x20 MSTORE DUP3 DUP3 KECCAK256 DUP5 DUP4 MSTORE PUSH1 0x20 MSTORE DUP3 DUP3 KECCAK256 PUSH32 0xFFFFFFFFFFFFFFFFFFFFFFFFFFFFFFFFFFFFFFFFFFFFFFFFFFFFFFFFFFFFFF00 DUP2 SLOAD AND SWAP1 SSTORE CALLER DUP5 DUP3 PUSH32 0xF6391F5C32D9C69D2A47EA670B442974B53935D1EDC7FD64EB21E047A839171B DUP6 DUP1 LOG4 PUSH2 0x3613 JUMP JUMPDEST PUSH1 0x40 MLOAD SWAP1 PUSH1 0x60 DUP3 ADD DUP3 DUP2 LT PUSH8 0xFFFFFFFFFFFFFFFF DUP3 GT OR PUSH2 0x7FF JUMPI PUSH1 0x40 MSTORE PUSH1 0x2A DUP3 MSTORE PUSH1 0x20 DUP3 ADD PUSH1 0x40 CALLDATASIZE DUP3 CALLDATACOPY DUP3 MLOAD ISZERO PUSH2 0x2DA2 JUMPI PUSH1 0x30 SWAP1 MSTORE8 DUP2 MLOAD PUSH1 0x1 SWAP1 DUP2 LT ISZERO PUSH2 0x2DA2 JUMPI PUSH1 0x78 PUSH1 0x21 DUP5 ADD MSTORE8 PUSH1 0x29 SWAP1 JUMPDEST DUP1 DUP3 GT PUSH2 0x3744 JUMPI POP POP PUSH2 0x36E6 JUMPI SWAP1 JUMP JUMPDEST PUSH1 0x64 PUSH1 0x40 MLOAD PUSH32 0x8C379A000000000000000000000000000000000000000000000000000000000 DUP2 MSTORE PUSH1 0x20 PUSH1 0x4 DUP3 ADD MSTORE PUSH1 0x20 PUSH1 0x24 DUP3 ADD MSTORE PUSH32 0x537472696E67733A20686578206C656E67746820696E73756666696369656E74 PUSH1 0x44 DUP3 ADD MSTORE REVERT JUMPDEST SWAP1 SWAP2 PUSH1 0xF DUP2 AND PUSH1 0x10 DUP2 LT ISZERO PUSH2 0x37C3 JUMPI PUSH32 0x3031323334353637383961626364656600000000000000000000000000000000 SWAP1 BYTE PUSH2 0x3780 DUP5 DUP7 PUSH2 0x2DF9 JUMP JUMPDEST MSTORE8 PUSH1 0x4 SHR SWAP2 DUP1 ISZERO PUSH2 0x3795 JUMPI PUSH1 0x0 NOT ADD SWAP1 PUSH2 0x36D6 JUMP JUMPDEST PUSH1 0x24 PUSH1 0x0 PUSH32 0x4E487B7100000000000000000000000000000000000000000000000000000000 DUP2 MSTORE PUSH1 0x11 PUSH1 0x4 MSTORE REVERT JUMPDEST PUSH1 0x24 PUSH1 0x0 PUSH32 0x4E487B7100000000000000000000000000000000000000000000000000000000 DUP2 MSTORE PUSH1 0x32 PUSH1 0x4 MSTORE REVERT JUMPDEST DUP1 SLOAD DUP3 LT ISZERO PUSH2 0x2DA2 JUMPI PUSH1 0x0 MSTORE PUSH1 0x20 PUSH1 0x0 KECCAK256 ADD SWAP1 PUSH1 0x0 SWAP1 JUMP JUMPDEST SWAP2 SWAP1 PUSH1 0x1 DUP4 ADD PUSH1 0x0 SWAP1 DUP3 DUP3 MSTORE DUP1 PUSH1 0x20 MSTORE PUSH1 0x40 DUP3 KECCAK256 SLOAD ISZERO PUSH1 0x0 EQ PUSH2 0x38A6 JUMPI DUP5 SLOAD SWAP5 PUSH9 0x10000000000000000 DUP7 LT ISZERO PUSH2 0x3879 JUMPI DUP4 PUSH2 0x3869 PUSH2 0x3852 DUP9 PUSH1 0x1 PUSH1 0x40 SWAP9 SWAP10 SWAP11 ADD DUP6 SSTORE DUP5 PUSH2 0x37F1 JUMP JUMPDEST DUP2 SWAP4 SWAP2 SLOAD SWAP1 PUSH1 0x0 NOT SWAP1 PUSH1 0x3 SHL SWAP3 DUP4 SHL SWAP3 SHL NOT AND OR SWAP1 JUMP JUMPDEST SWAP1 SSTORE SLOAD SWAP4 DUP3 MSTORE PUSH1 0x20 MSTORE KECCAK256 SSTORE PUSH1 0x1 SWAP1 JUMP JUMPDEST PUSH1 0x24 DUP4 PUSH32 0x4E487B7100000000000000000000000000000000000000000000000000000000 DUP2 MSTORE PUSH1 0x41 PUSH1 0x4 MSTORE REVERT JUMPDEST POP SWAP3 POP POP JUMP JUMPDEST SWAP1 PUSH1 0x1 DUP3 ADD SWAP1 PUSH1 0x0 SWAP3 DUP2 DUP5 MSTORE DUP3 PUSH1 0x20 MSTORE PUSH1 0x40 DUP5 KECCAK256 SLOAD SWAP1 DUP2 ISZERO ISZERO PUSH1 0x0 EQ PUSH2 0x39E0 JUMPI PUSH1 0x0 NOT SWAP2 DUP3 DUP2 ADD DUP2 DUP2 GT PUSH2 0x39B3 JUMPI DUP3 SLOAD SWAP1 DUP5 DUP3 ADD SWAP2 DUP3 GT PUSH2 0x3986 JUMPI DUP1 DUP3 SUB PUSH2 0x3951 JUMPI JUMPDEST POP POP POP DUP1 SLOAD DUP1 ISZERO PUSH2 0x3924 JUMPI DUP3 ADD SWAP2 PUSH2 0x3907 DUP4 DUP4 PUSH2 0x37F1 JUMP JUMPDEST SWAP1 SWAP2 DUP3 SLOAD SWAP2 PUSH1 0x3 SHL SHL NOT AND SWAP1 SSTORE SSTORE DUP3 MSTORE PUSH1 0x20 MSTORE PUSH1 0x40 DUP2 KECCAK256 SSTORE PUSH1 0x1 SWAP1 JUMP JUMPDEST PUSH1 0x24 DUP7 PUSH32 0x4E487B7100000000000000000000000000000000000000000000000000000000 DUP2 MSTORE PUSH1 0x31 PUSH1 0x4 MSTORE REVERT JUMPDEST PUSH2 0x3971 PUSH2 0x3961 PUSH2 0x3852 SWAP4 DUP7 PUSH2 0x37F1 JUMP JUMPDEST SWAP1 SLOAD SWAP1 PUSH1 0x3 SHL SHR SWAP3 DUP4 SWAP3 DUP7 PUSH2 0x37F1 JUMP JUMPDEST SWAP1 SSTORE DUP7 MSTORE DUP5 PUSH1 0x20 MSTORE PUSH1 0x40 DUP7 KECCAK256 SSTORE CODESIZE DUP1 DUP1 PUSH2 0x38EF JUMP JUMPDEST PUSH1 0x24 DUP9 PUSH32 0x4E487B7100000000000000000000000000000000000000000000000000000000 DUP2 MSTORE PUSH1 0x11 PUSH1 0x4 MSTORE REVERT JUMPDEST PUSH1 0x24 DUP8 PUSH32 0x4E487B7100000000000000000000000000000000000000000000000000000000 DUP2 MSTORE PUSH1 0x11 PUSH1 0x4 MSTORE REVERT JUMPDEST POP POP POP POP SWAP1 JUMP JUMPDEST ISZERO PUSH2 0x39EE JUMPI JUMP JUMPDEST PUSH1 0x84 PUSH1 0x40 MLOAD PUSH32 0x8C379A000000000000000000000000000000000000000000000000000000000 DUP2 MSTORE PUSH1 0x20 PUSH1 0x4 DUP3 ADD MSTORE PUSH1 0x2A PUSH1 0x24 DUP3 ADD MSTORE PUSH32 0x455243323938313A20726F79616C7479206665652077696C6C20657863656564 PUSH1 0x44 DUP3 ADD MSTORE PUSH32 0x2073616C65507269636500000000000000000000000000000000000000000000 PUSH1 0x64 DUP3 ADD MSTORE REVERT JUMPDEST PUSH20 0xFFFFFFFFFFFFFFFFFFFFFFFFFFFFFFFFFFFFFFFF PUSH12 0xFFFFFFFFFFFFFFFFFFFFFFFF DUP4 AND SWAP2 PUSH2 0x3AA5 PUSH2 0x2710 DUP5 GT ISZERO PUSH2 0x39E7 JUMP JUMPDEST AND SWAP2 DUP3 ISZERO PUSH2 0x3AEC JUMPI PUSH32 0xFFFFFFFFFFFFFFFFFFFFFFFF0000000000000000000000000000000000000000 SWAP2 PUSH1 0x20 PUSH1 0x40 MLOAD PUSH2 0x3ADD DUP2 PUSH2 0x2B67 JUMP JUMPDEST DUP6 DUP2 MSTORE ADD MSTORE PUSH1 0xA0 SHL AND OR PUSH1 0x6 SSTORE JUMP JUMPDEST PUSH1 0x64 PUSH1 0x40 MLOAD PUSH32 0x8C379A000000000000000000000000000000000000000000000000000000000 DUP2 MSTORE PUSH1 0x20 PUSH1 0x4 DUP3 ADD MSTORE PUSH1 0x19 PUSH1 0x24 DUP3 ADD MSTORE PUSH32 0x455243323938313A20696E76616C696420726563656976657200000000000000 PUSH1 0x44 DUP3 ADD MSTORE REVERT JUMPDEST PUSH2 0x3B53 DUP2 PUSH2 0x3BF0 JUMP JUMPDEST SWAP1 DUP2 ISZERO PUSH2 0x3B87 JUMPI JUMPDEST DUP2 ISZERO PUSH2 0x3B76 JUMPI JUMPDEST DUP2 ISZERO PUSH2 0x3B6C JUMPI POP SWAP1 JUMP JUMPDEST PUSH2 0x2DF6 SWAP2 POP PUSH2 0x3CB3 JUMP JUMPDEST SWAP1 POP PUSH2 0x3B81 DUP2 PUSH2 0x3CB3 JUMP JUMPDEST SWAP1 PUSH2 0x3B62 JUMP JUMPDEST SWAP1 POP PUSH2 0x3B92 DUP2 PUSH2 0x3B98 JUMP JUMPDEST SWAP1 PUSH2 0x3B5B JUMP JUMPDEST PUSH32 0xE89341C00000000000000000000000000000000000000000000000000000000 PUSH32 0xFFFFFFFF00000000000000000000000000000000000000000000000000000000 DUP3 AND EQ PUSH2 0x3BEA JUMPI PUSH2 0x2DF6 SWAP1 PUSH2 0x3BF0 JUMP JUMPDEST POP PUSH1 0x1 SWAP1 JUMP JUMPDEST PUSH32 0xFFFFFFFF00000000000000000000000000000000000000000000000000000000 DUP2 AND PUSH32 0x3E85E62F00000000000000000000000000000000000000000000000000000000 EQ SWAP1 DUP2 ISZERO PUSH2 0x3C40 JUMPI POP SWAP1 JUMP JUMPDEST PUSH2 0x2DF6 SWAP2 POP PUSH32 0xFFFFFFFF00000000000000000000000000000000000000000000000000000000 AND PUSH32 0xD9B67A2600000000000000000000000000000000000000000000000000000000 DUP2 EQ PUSH2 0x3BEA JUMPI PUSH32 0x1FFC9A700000000000000000000000000000000000000000000000000000000 EQ SWAP1 JUMP JUMPDEST PUSH2 0x3CBC DUP2 PUSH2 0x3DA2 JUMP JUMPDEST SWAP1 DUP2 ISZERO PUSH2 0x3D0A JUMPI JUMPDEST DUP2 ISZERO PUSH2 0x3CDF JUMPI JUMPDEST DUP2 ISZERO PUSH2 0x3CD5 JUMPI POP SWAP1 JUMP JUMPDEST PUSH2 0x2DF6 SWAP2 POP PUSH2 0x3D1B JUMP JUMPDEST PUSH32 0xFFFFFFFF00000000000000000000000000000000000000000000000000000000 DUP2 AND ISZERO SWAP2 POP PUSH2 0x3CCB JUMP JUMPDEST SWAP1 POP PUSH2 0x3D15 DUP2 PUSH2 0x3D1B JUMP JUMPDEST SWAP1 PUSH2 0x3CC4 JUMP JUMPDEST PUSH32 0xFFFFFFFF00000000000000000000000000000000000000000000000000000000 DUP2 AND SWAP1 PUSH32 0x5A05180F00000000000000000000000000000000000000000000000000000000 DUP3 EQ SWAP2 DUP3 ISZERO PUSH2 0x3D6E JUMPI POP POP SWAP1 JUMP JUMPDEST PUSH32 0x7965DB0B00000000000000000000000000000000000000000000000000000000 EQ SWAP2 POP DUP2 ISZERO PUSH2 0x3D9C JUMPI POP SWAP1 JUMP JUMPDEST PUSH2 0x2DF6 SWAP2 POP JUMPDEST PUSH32 0xFFFFFFFF00000000000000000000000000000000000000000000000000000000 AND PUSH32 0x2A55205A00000000000000000000000000000000000000000000000000000000 DUP2 EQ SWAP1 DUP2 ISZERO PUSH2 0x3DF2 JUMPI POP SWAP1 JUMP JUMPDEST PUSH32 0x1FFC9A700000000000000000000000000000000000000000000000000000000 SWAP2 POP EQ SWAP1 JUMP INVALID LOG2 PUSH5 0x6970667358 0x22 SLT KECCAK256 JUMPI LOG4 MSTORE8 0x49 PUSH10 0xFA7BF4EA76A7FD77D1AE 0xF POP CALLVALUE 0x2B SWAP15 PUSH4 0xC841C105 0x4E KECCAK256 0xEA PUSH9 0x85704864736F6C6343 STOP ADDMOD SGT STOP CALLER "
				}
			},
			"userdoc": {
				"events": {
					"ERC1155ItemsDeployed(address)": {
						"notice": "Event emitted when a new ERC-1155 Items proxy contract is deployed."
					}
				},
				"kind": "user",
				"methods": {
					"constructor": {
						"notice": "Creates an ERC-1155 Items Factory."
					},
					"deploy(address,address,string,string,string,address,uint96)": {
						"notice": "Creates an ERC-1155 Items proxy."
					},
					"upgradeBeacon(address)": {
						"notice": "Upgrades the beacon implementation."
					}
				},
				"notice": "Deployer of ERC-1155 Items proxies.",
				"version": 1
			}
		}
	}
}