{
	"src/tokens/ERC20/presets/items/ERC20Items.sol": {
		"ERC20Items": {
			"abi": [
				{
					"inputs": [],
					"stateMutability": "nonpayable",
					"type": "constructor"
				},
				{
					"inputs": [],
					"name": "InvalidInitialization",
					"type": "error"
				},
				{
					"inputs": [],
					"name": "InvalidInitialization",
					"type": "error"
				},
				{
					"anonymous": false,
					"inputs": [
						{
							"indexed": true,
							"internalType": "address",
							"name": "owner",
							"type": "address"
						},
						{
							"indexed": true,
							"internalType": "address",
							"name": "spender",
							"type": "address"
						},
						{
							"indexed": false,
							"internalType": "uint256",
							"name": "value",
							"type": "uint256"
						}
					],
					"name": "Approval",
					"type": "event"
				},
				{
					"anonymous": false,
					"inputs": [
						{
							"indexed": true,
							"internalType": "bytes32",
							"name": "role",
							"type": "bytes32"
						},
						{
							"indexed": true,
							"internalType": "bytes32",
							"name": "previousAdminRole",
							"type": "bytes32"
						},
						{
							"indexed": true,
							"internalType": "bytes32",
							"name": "newAdminRole",
							"type": "bytes32"
						}
					],
					"name": "RoleAdminChanged",
					"type": "event"
				},
				{
					"anonymous": false,
					"inputs": [
						{
							"indexed": true,
							"internalType": "bytes32",
							"name": "role",
							"type": "bytes32"
						},
						{
							"indexed": true,
							"internalType": "address",
							"name": "account",
							"type": "address"
						},
						{
							"indexed": true,
							"internalType": "address",
							"name": "sender",
							"type": "address"
						}
					],
					"name": "RoleGranted",
					"type": "event"
				},
				{
					"anonymous": false,
					"inputs": [
						{
							"indexed": true,
							"internalType": "bytes32",
							"name": "role",
							"type": "bytes32"
						},
						{
							"indexed": true,
							"internalType": "address",
							"name": "account",
							"type": "address"
						},
						{
							"indexed": true,
							"internalType": "address",
							"name": "sender",
							"type": "address"
						}
					],
					"name": "RoleRevoked",
					"type": "event"
				},
				{
					"anonymous": false,
					"inputs": [
						{
							"indexed": true,
							"internalType": "address",
							"name": "from",
							"type": "address"
						},
						{
							"indexed": true,
							"internalType": "address",
							"name": "to",
							"type": "address"
						},
						{
							"indexed": false,
							"internalType": "uint256",
							"name": "value",
							"type": "uint256"
						}
					],
					"name": "Transfer",
					"type": "event"
				},
				{
					"inputs": [],
					"name": "DEFAULT_ADMIN_ROLE",
					"outputs": [
						{
							"internalType": "bytes32",
							"name": "",
							"type": "bytes32"
						}
					],
					"stateMutability": "view",
					"type": "function"
				},
				{
					"inputs": [
						{
							"internalType": "address",
							"name": "owner",
							"type": "address"
						},
						{
							"internalType": "address",
							"name": "spender",
							"type": "address"
						}
					],
					"name": "allowance",
					"outputs": [
						{
							"internalType": "uint256",
							"name": "",
							"type": "uint256"
						}
					],
					"stateMutability": "view",
					"type": "function"
				},
				{
					"inputs": [
						{
							"internalType": "address",
							"name": "spender",
							"type": "address"
						},
						{
							"internalType": "uint256",
							"name": "amount",
							"type": "uint256"
						}
					],
					"name": "approve",
					"outputs": [
						{
							"internalType": "bool",
							"name": "",
							"type": "bool"
						}
					],
					"stateMutability": "nonpayable",
					"type": "function"
				},
				{
					"inputs": [
						{
							"internalType": "address",
							"name": "account",
							"type": "address"
						}
					],
					"name": "balanceOf",
					"outputs": [
						{
							"internalType": "uint256",
							"name": "",
							"type": "uint256"
						}
					],
					"stateMutability": "view",
					"type": "function"
				},
				{
					"inputs": [
						{
							"internalType": "uint256",
							"name": "amount",
							"type": "uint256"
						}
					],
					"name": "burn",
					"outputs": [],
					"stateMutability": "nonpayable",
					"type": "function"
				},
				{
					"inputs": [],
					"name": "decimals",
					"outputs": [
						{
							"internalType": "uint8",
							"name": "",
							"type": "uint8"
						}
					],
					"stateMutability": "view",
					"type": "function"
				},
				{
					"inputs": [
						{
							"internalType": "address",
							"name": "spender",
							"type": "address"
						},
						{
							"internalType": "uint256",
							"name": "subtractedValue",
							"type": "uint256"
						}
					],
					"name": "decreaseAllowance",
					"outputs": [
						{
							"internalType": "bool",
							"name": "",
							"type": "bool"
						}
					],
					"stateMutability": "nonpayable",
					"type": "function"
				},
				{
					"inputs": [
						{
							"internalType": "bytes32",
							"name": "role",
							"type": "bytes32"
						}
					],
					"name": "getRoleAdmin",
					"outputs": [
						{
							"internalType": "bytes32",
							"name": "",
							"type": "bytes32"
						}
					],
					"stateMutability": "view",
					"type": "function"
				},
				{
					"inputs": [
						{
							"internalType": "bytes32",
							"name": "role",
							"type": "bytes32"
						},
						{
							"internalType": "uint256",
							"name": "index",
							"type": "uint256"
						}
					],
					"name": "getRoleMember",
					"outputs": [
						{
							"internalType": "address",
							"name": "",
							"type": "address"
						}
					],
					"stateMutability": "view",
					"type": "function"
				},
				{
					"inputs": [
						{
							"internalType": "bytes32",
							"name": "role",
							"type": "bytes32"
						}
					],
					"name": "getRoleMemberCount",
					"outputs": [
						{
							"internalType": "uint256",
							"name": "",
							"type": "uint256"
						}
					],
					"stateMutability": "view",
					"type": "function"
				},
				{
					"inputs": [
						{
							"internalType": "bytes32",
							"name": "role",
							"type": "bytes32"
						},
						{
							"internalType": "address",
							"name": "account",
							"type": "address"
						}
					],
					"name": "grantRole",
					"outputs": [],
					"stateMutability": "nonpayable",
					"type": "function"
				},
				{
					"inputs": [
						{
							"internalType": "bytes32",
							"name": "role",
							"type": "bytes32"
						},
						{
							"internalType": "address",
							"name": "account",
							"type": "address"
						}
					],
					"name": "hasRole",
					"outputs": [
						{
							"internalType": "bool",
							"name": "",
							"type": "bool"
						}
					],
					"stateMutability": "view",
					"type": "function"
				},
				{
					"inputs": [
						{
							"internalType": "address",
							"name": "spender",
							"type": "address"
						},
						{
							"internalType": "uint256",
							"name": "addedValue",
							"type": "uint256"
						}
					],
					"name": "increaseAllowance",
					"outputs": [
						{
							"internalType": "bool",
							"name": "",
							"type": "bool"
						}
					],
					"stateMutability": "nonpayable",
					"type": "function"
				},
				{
					"inputs": [
						{
							"internalType": "address",
							"name": "owner",
							"type": "address"
						},
						{
							"internalType": "string",
							"name": "tokenName",
							"type": "string"
						},
						{
							"internalType": "string",
							"name": "tokenSymbol",
							"type": "string"
						},
						{
							"internalType": "uint8",
							"name": "tokenDecimals",
							"type": "uint8"
						}
					],
					"name": "initialize",
					"outputs": [],
					"stateMutability": "nonpayable",
					"type": "function"
				},
				{
					"inputs": [
						{
							"internalType": "address",
							"name": "to",
							"type": "address"
						},
						{
							"internalType": "uint256",
							"name": "amount",
							"type": "uint256"
						}
					],
					"name": "mint",
					"outputs": [],
					"stateMutability": "nonpayable",
					"type": "function"
				},
				{
					"inputs": [],
					"name": "name",
					"outputs": [
						{
							"internalType": "string",
							"name": "",
							"type": "string"
						}
					],
					"stateMutability": "view",
					"type": "function"
				},
				{
					"inputs": [
						{
							"internalType": "bytes32",
							"name": "role",
							"type": "bytes32"
						},
						{
							"internalType": "address",
							"name": "account",
							"type": "address"
						}
					],
					"name": "renounceRole",
					"outputs": [],
					"stateMutability": "nonpayable",
					"type": "function"
				},
				{
					"inputs": [
						{
							"internalType": "bytes32",
							"name": "role",
							"type": "bytes32"
						},
						{
							"internalType": "address",
							"name": "account",
							"type": "address"
						}
					],
					"name": "revokeRole",
					"outputs": [],
					"stateMutability": "nonpayable",
					"type": "function"
				},
				{
					"inputs": [
						{
							"internalType": "string",
							"name": "tokenName",
							"type": "string"
						},
						{
							"internalType": "string",
							"name": "tokenSymbol",
							"type": "string"
						}
					],
					"name": "setNameAndSymbol",
					"outputs": [],
					"stateMutability": "nonpayable",
					"type": "function"
				},
				{
					"inputs": [
						{
							"internalType": "bytes4",
							"name": "interfaceId",
							"type": "bytes4"
						}
					],
					"name": "supportsInterface",
					"outputs": [
						{
							"internalType": "bool",
							"name": "",
							"type": "bool"
						}
					],
					"stateMutability": "view",
					"type": "function"
				},
				{
					"inputs": [],
					"name": "symbol",
					"outputs": [
						{
							"internalType": "string",
							"name": "",
							"type": "string"
						}
					],
					"stateMutability": "view",
					"type": "function"
				},
				{
					"inputs": [],
					"name": "totalSupply",
					"outputs": [
						{
							"internalType": "uint256",
							"name": "",
							"type": "uint256"
						}
					],
					"stateMutability": "view",
					"type": "function"
				},
				{
					"inputs": [
						{
							"internalType": "address",
							"name": "to",
							"type": "address"
						},
						{
							"internalType": "uint256",
							"name": "amount",
							"type": "uint256"
						}
					],
					"name": "transfer",
					"outputs": [
						{
							"internalType": "bool",
							"name": "",
							"type": "bool"
						}
					],
					"stateMutability": "nonpayable",
					"type": "function"
				},
				{
					"inputs": [
						{
							"internalType": "address",
							"name": "from",
							"type": "address"
						},
						{
							"internalType": "address",
							"name": "to",
							"type": "address"
						},
						{
							"internalType": "uint256",
							"name": "amount",
							"type": "uint256"
						}
					],
					"name": "transferFrom",
					"outputs": [
						{
							"internalType": "bool",
							"name": "",
							"type": "bool"
						}
					],
					"stateMutability": "nonpayable",
					"type": "function"
				}
			],
			"devdoc": {
				"events": {
					"Approval(address,address,uint256)": {
						"details": "Emitted when the allowance of a `spender` for an `owner` is set by a call to {approve}. `value` is the new allowance."
					},
					"RoleAdminChanged(bytes32,bytes32,bytes32)": {
						"details": "Emitted when `newAdminRole` is set as ``role``'s admin role, replacing `previousAdminRole` `DEFAULT_ADMIN_ROLE` is the starting admin for all roles, despite {RoleAdminChanged} not being emitted signaling this. _Available since v3.1._"
					},
					"RoleGranted(bytes32,address,address)": {
						"details": "Emitted when `account` is granted `role`. `sender` is the account that originated the contract call, an admin role bearer except when using {AccessControl-_setupRole}."
					},
					"RoleRevoked(bytes32,address,address)": {
						"details": "Emitted when `account` is revoked `role`. `sender` is the account that originated the contract call:   - if using `revokeRole`, it is the admin role bearer   - if using `renounceRole`, it is the role bearer (i.e. `account`)"
					},
					"Transfer(address,address,uint256)": {
						"details": "Emitted when `value` tokens are moved from one account (`from`) to another (`to`). Note that `value` may be zero."
					}
				},
				"kind": "dev",
				"methods": {
					"allowance(address,address)": {
						"details": "See {IERC20-allowance}."
					},
					"approve(address,uint256)": {
						"details": "See {IERC20-approve}. NOTE: If `amount` is the maximum `uint256`, the allowance is not updated on `transferFrom`. This is semantically equivalent to an infinite approval. Requirements: - `spender` cannot be the zero address."
					},
					"balanceOf(address)": {
						"details": "See {IERC20-balanceOf}."
					},
					"burn(uint256)": {
						"params": {
							"amount": "Amount of tokens to burn"
						}
					},
					"decreaseAllowance(address,uint256)": {
						"details": "Atomically decreases the allowance granted to `spender` by the caller. This is an alternative to {approve} that can be used as a mitigation for problems described in {IERC20-approve}. Emits an {Approval} event indicating the updated allowance. Requirements: - `spender` cannot be the zero address. - `spender` must have allowance for the caller of at least `subtractedValue`."
					},
					"getRoleAdmin(bytes32)": {
						"details": "Returns the admin role that controls `role`. See {grantRole} and {revokeRole}. To change a role's admin, use {_setRoleAdmin}."
					},
					"getRoleMember(bytes32,uint256)": {
						"details": "Returns one of the accounts that have `role`. `index` must be a value between 0 and {getRoleMemberCount}, non-inclusive. Role bearers are not sorted in any particular way, and their ordering may change at any point. WARNING: When using {getRoleMember} and {getRoleMemberCount}, make sure you perform all queries on the same block. See the following https://forum.openzeppelin.com/t/iterating-over-elements-on-enumerableset-in-openzeppelin-contracts/2296[forum post] for more information."
					},
					"getRoleMemberCount(bytes32)": {
						"details": "Returns the number of accounts that have `role`. Can be used together with {getRoleMember} to enumerate all bearers of a role."
					},
					"grantRole(bytes32,address)": {
						"details": "Grants `role` to `account`. If `account` had not been already granted `role`, emits a {RoleGranted} event. Requirements: - the caller must have ``role``'s admin role. May emit a {RoleGranted} event."
					},
					"hasRole(bytes32,address)": {
						"details": "Returns `true` if `account` has been granted `role`."
					},
					"increaseAllowance(address,uint256)": {
						"details": "Atomically increases the allowance granted to `spender` by the caller. This is an alternative to {approve} that can be used as a mitigation for problems described in {IERC20-approve}. Emits an {Approval} event indicating the updated allowance. Requirements: - `spender` cannot be the zero address."
					},
					"initialize(address,string,string,uint8)": {
						"details": "This should be called immediately after deployment.",
						"params": {
							"owner": "The owner of the contract",
							"tokenDecimals": "Number of decimals",
							"tokenName": "Name of the token",
							"tokenSymbol": "Symbol of the token"
						}
					},
					"mint(address,uint256)": {
						"params": {
							"amount": "Amount of tokens to mint.",
							"to": "Address to mint tokens to."
						}
					},
					"renounceRole(bytes32,address)": {
						"details": "Revokes `role` from the calling account. Roles are often managed via {grantRole} and {revokeRole}: this function's purpose is to provide a mechanism for accounts to lose their privileges if they are compromised (such as when a trusted device is misplaced). If the calling account had been revoked `role`, emits a {RoleRevoked} event. Requirements: - the caller must be `account`. May emit a {RoleRevoked} event."
					},
					"revokeRole(bytes32,address)": {
						"details": "Revokes `role` from `account`. If `account` had been granted `role`, emits a {RoleRevoked} event. Requirements: - the caller must have ``role``'s admin role. May emit a {RoleRevoked} event."
					},
					"setNameAndSymbol(string,string)": {
						"params": {
							"tokenName": "Name of token.",
							"tokenSymbol": "Symbol of token."
						}
					},
					"supportsInterface(bytes4)": {
						"params": {
							"interfaceId": "Interface id"
						},
						"returns": {
							"_0": "True if supported"
						}
					},
					"totalSupply()": {
						"details": "See {IERC20-totalSupply}."
					},
					"transfer(address,uint256)": {
						"details": "See {IERC20-transfer}. Requirements: - `to` cannot be the zero address. - the caller must have a balance of at least `amount`."
					},
					"transferFrom(address,address,uint256)": {
						"details": "See {IERC20-transferFrom}. Emits an {Approval} event indicating the updated allowance. This is not required by the EIP. See the note at the beginning of {ERC20}. NOTE: Does not update the allowance if the current allowance is the maximum `uint256`. Requirements: - `from` and `to` cannot be the zero address. - `from` must have a balance of at least `amount`. - the caller must have allowance for ``from``'s tokens of at least `amount`."
					}
				},
				"version": 1
			},
			"evm": {
				"bytecode": {
					"linkReferences": {},
					"object": "60c060405234620002f85762000014620002fd565b6200001e620002fd565b8151906001600160401b0390818311620001f8576003908154906001948583811c9316968715620002ed575b60209788851014620002d7578190601f9485811162000281575b5088908583116001146200021a576000926200020e575b505060001982861b1c191690861b1783555b8051938411620001f85760049586548681811c91168015620001ed575b82821014620001d8578381116200018d575b50809285116001146200011f575093839491849260009562000113575b50501b92600019911b1c19161790555b336080523360a0526040516127289081620003228239608051816101d8015260a051816101a70152f35b015193503880620000d9565b92919084601f1981168860005285600020956000905b8983831062000172575050501062000157575b50505050811b019055620000e9565b01519060f884600019921b161c191690553880808062000148565b85870151895590970196948501948893509081019062000135565b87600052816000208480880160051c820192848910620001ce575b0160051c019087905b828110620001c1575050620000bc565b60008155018790620001b1565b92508192620001a8565b602288634e487b7160e01b6000525260246000fd5b90607f1690620000aa565b634e487b7160e01b600052604160045260246000fd5b0151905038806200007b565b90889350601f19831691876000528a6000209260005b8c8282106200026a575050841162000251575b505050811b0183556200008d565b015160001983881b60f8161c1916905538808062000243565b8385015186558c9790950194938401930162000230565b90915085600052886000208580850160051c8201928b8610620002cd575b918a91869594930160051c01915b828110620002bd57505062000064565b600081558594508a9101620002ad565b925081926200029f565b634e487b7160e01b600052602260045260246000fd5b92607f16926200004a565b600080fd5b60405190602082016001600160401b03811183821017620001f8576040526000825256fe608060409080825260048036101561001657600080fd5b600091823560e01c90816301ffc9a7146118a95750806306fdde03146117ff578063095ea7b3146117d557806318160ddd146117b657806323b872dd146116c6578063248a9ca31461169a5780632f2ff15d146115b5578063313ce5671461159357806336568abe146114ce578063395093511461147257806340c10f191461124f57806342966c68146110d75780635a44621514610ae957806370a0823114610aa65780639010d07c14610a5657806391d1485414610a0257806395d89b4114610903578063a217fddf146108e8578063a457c2d714610801578063a9059cbb146107d0578063ca15c873146107a7578063d547741f14610765578063dd62ed3e1461070f5763f6d2ee861461012c57600080fd5b3461070b57608060031936011261070b576101456119b2565b67ffffffffffffffff93602435858111610707576101669036908501611a89565b926044358681116107035761017e9036908301611a89565b956064359460ff86168096036106ff5773ffffffffffffffffffffffffffffffffffffffff92837f00000000000000000000000000000000000000000000000000000000000000001633148015906106f0575b6106ba57837f00000000000000000000000000000000000000000000000000000000000000001633148015906106e1575b6106ba57815183811161068e578061021b600754612550565b93601f94858111610622575b50602090858311600114610583578b92610578575b50506000198260011b9260031b1c1916176007555b885192831161054c5750610266600854612550565b8181116104ec575b506020908211600114610447578190879861037a97989261043c575b50506000198260011b9260031b1c1916176008555b7fffffffffffffffffffffffffffffffffffffffffffffffffffffffffffffff009060099582875416178655868052600560205282872093169283875260205260ff8287205416156103f3575b858052600660205261030083838820612372565b506101007fffffffffffffffffffffffffffffffffffffffffffffffffffffffffffff00ff8654161785557f9f2df0fed2c77648de5860a4cc508cd0818c85b8b8a1ab4ceeef8d981c8956a690818752600560205282872084885260205260ff8388205416156103a9575b50855260066020528420612372565b50620100007fffffffffffffffffffffffffffffffffffffffffffffffffffffffffff00ffff82541617905580f35b81875260056020528287208488526020526001838820918254161790553383827f2f8788117e7eff1d82e926ec794901d17c78024a50270940304540a733656f0d8980a43861036b565b85805260056020528186208387526020528186206001828254161790553383877f2f8788117e7eff1d82e926ec794901d17c78024a50270940304540a733656f0d8180a46102ec565b01519050388061028a565b600887527ff3f7a9fe364faab93b216da50a3214154f22a0a2b415b23a84c8169e8b636ee3977fffffffffffffffffffffffffffffffffffffffffffffffffffffffffffffffe08316885b8181106104d457509161037a979899918460019594106104bb575b505050811b0160085561029f565b015160001960f88460031b161c191690553880806104ad565b838301518b556001909a019960209384019301610492565b600888527ff3f7a9fe364faab93b216da50a3214154f22a0a2b415b23a84c8169e8b636ee38280850160051c82019260208610610543575b0160051c01905b818110610538575061026e565b88815560010161052b565b92508192610524565b8760416024927f4e487b7100000000000000000000000000000000000000000000000000000000835252fd5b01519050388061023c565b60078c527fa66cc928b5edb82af9bd49922954155ab7b0942694bea4ce44661d9a8736c688927fffffffffffffffffffffffffffffffffffffffffffffffffffffffffffffffe0168c5b81811061060a57509084600195949392106105f1575b505050811b01600755610251565b015160001960f88460031b161c191690553880806105e3565b929360206001819287860151815501950193016105cd565b90915060078b527fa66cc928b5edb82af9bd49922954155ab7b0942694bea4ce44661d9a8736c6888580850160051c82019260208610610685575b9085949392910160051c01905b8181106106775750610227565b8c815584935060010161066a565b9250819261065d565b6024896041847f4e487b7100000000000000000000000000000000000000000000000000000000835252fd5b84517ff92ee8a9000000000000000000000000000000000000000000000000000000008152fd5b5060ff60095460081c16610202565b5060ff60095460101c166101d1565b8680fd5b8580fd5b8480fd5b5080fd5b82843461070b578060031936011261070b578060209261072d6119b2565b6107356119da565b73ffffffffffffffffffffffffffffffffffffffff91821683526001865283832091168252845220549051908152f35b5082346107a357806003193601126107a3576107a0913561079b60016107896119da565b93838752600560205286200154611afe565b611d3d565b80f35b8280fd5b508290346107a35760206003193601126107a35760209282913581526006845220549051908152f35b82843461070b578060031936011261070b576020906107fa6107f06119b2565b6024359033611e2e565b5160018152f35b5090346108e557826003193601126108e55761081b6119b2565b918360243592338152600160205281812073ffffffffffffffffffffffffffffffffffffffff86168252602052205490828210610862576020856107fa858503873361203d565b60849060208651917f08c379a0000000000000000000000000000000000000000000000000000000008352820152602560248201527f45524332303a2064656372656173656420616c6c6f77616e63652062656c6f7760448201527f207a65726f0000000000000000000000000000000000000000000000000000006064820152fd5b80fd5b82843461070b578160031936011261070b5751908152602090f35b82843461070b578160031936011261070b578051908260085461092581612550565b808552916001918083169081156109bc575060011461095f575b5050506109518261095b940383611a48565b5191829182611968565b0390f35b9450600885527ff3f7a9fe364faab93b216da50a3214154f22a0a2b415b23a84c8169e8b636ee35b8286106109a45750505061095182602061095b958201019461093f565b80546020878701810191909152909501948101610987565b61095b9750869350602092506109519491507fffffffffffffffffffffffffffffffffffffffffffffffffffffffffffffff001682840152151560051b8201019461093f565b508290346107a357816003193601126107a3578160209360ff92610a246119da565b903582526005865273ffffffffffffffffffffffffffffffffffffffff83832091168252855220541690519015158152f35b508290346107a357816003193601126107a357610a9760209373ffffffffffffffffffffffffffffffffffffffff923581526006855283602435912061235a565b92905490519260031b1c168152f35b82843461070b57602060031936011261070b578060209273ffffffffffffffffffffffffffffffffffffffff610ada6119b2565b16815280845220549051908152f35b50913461070b578060031936011261070b5767ffffffffffffffff9083358281116110d357610b1b9036908601611a89565b906024803584811161070357610b349036908801611a89565b9585805260209260058452808720338852845260ff818820541615610e5d57508351858111610e325780610b69600754612550565b95601f96878111610dc7575b508590878311600114610d28578992610d1d575b50506000198260011b9260031b1c1916176007555b8651948511610cf3575050610bb4600854612550565b828111610c94575b5080918311600114610bf557508293829392610bea575b50506000198260011b9260031b1c19161760085580f35b015190503880610bd3565b907fffffffffffffffffffffffffffffffffffffffffffffffffffffffffffffffe0831694600885527ff3f7a9fe364faab93b216da50a3214154f22a0a2b415b23a84c8169e8b636ee39285905b878210610c7c575050836001959610610c63575b505050811b0160085580f35b015160001960f88460031b161c19169055388080610c57565b80600185968294968601518155019501930190610c43565b600885527ff3f7a9fe364faab93b216da50a3214154f22a0a2b415b23a84c8169e8b636ee38380860160051c820192848710610cea575b0160051c01905b818110610cdf5750610bbc565b858155600101610cd2565b92508192610ccb565b604186917f4e487b7100000000000000000000000000000000000000000000000000000000835252fd5b015190503880610b89565b60078a527fa66cc928b5edb82af9bd49922954155ab7b0942694bea4ce44661d9a8736c688927fffffffffffffffffffffffffffffffffffffffffffffffffffffffffffffffe0168a5b88828210610db1575050908460019594939210610d98575b505050811b01600755610b9e565b015160001960f88460031b161c19169055388080610d8a565b6001859682939686015181550195019301610d72565b909150600789527fa66cc928b5edb82af9bd49922954155ab7b0942694bea4ce44661d9a8736c6888780850160051c820192888610610e29575b9085949392910160051c01905b818110610e1b5750610b75565b8a8155849350600101610e0e565b92508192610e01565b50604186917f4e487b7100000000000000000000000000000000000000000000000000000000835252fd5b91868491610e6a336121f2565b85519183610e77846119fd565b604284528584019460603687378451156110a8576030865384519060019182101561107d5790607860218701536041915b818311610fd557505050610f7a5750610f76938693610f4893610f39604894610f049a519a857f416363657373436f6e74726f6c3a206163636f756e74200000000000000000008d978801528251928391603789019101611945565b8401917f206973206d697373696e6720726f6c6520000000000000000000000000000000603784015251809386840190611945565b01036028810187520185611a48565b519283927f08c379a00000000000000000000000000000000000000000000000000000000084528301611968565b0390fd5b925050508160649451937f08c379a00000000000000000000000000000000000000000000000000000000085528401528201527f537472696e67733a20686578206c656e67746820696e73756666696369656e746044820152fd5b909192600f81166010811015611052577f3031323334353637383961626364656600000000000000000000000000000000901a61101285896121b2565b53891c92801561102757600019019190610ea8565b848260118c7f4e487b7100000000000000000000000000000000000000000000000000000000835252fd5b858360328d7f4e487b7100000000000000000000000000000000000000000000000000000000835252fd5b8060328a7f4e487b710000000000000000000000000000000000000000000000000000000087945252fd5b90506032877f4e487b7100000000000000000000000000000000000000000000000000000000835252fd5b8380fd5b5082346107a357602090816003193601126110d35782359233156111ce57338552848352818520549084821061114c5750917fddf252ad1be2c89b69c2b068fc378daa952ba7f163c4a11628f55a4df523b3ef918486959433875286845203818620558360025403600255519283523392a380f35b608490848451917f08c379a0000000000000000000000000000000000000000000000000000000008352820152602260248201527f45524332303a206275726e20616d6f756e7420657863656564732062616c616e60448201527f63650000000000000000000000000000000000000000000000000000000000006064820152fd5b8260849251917f08c379a0000000000000000000000000000000000000000000000000000000008352820152602160248201527f45524332303a206275726e2066726f6d20746865207a65726f2061646472657360448201527f73000000000000000000000000000000000000000000000000000000000000006064820152fd5b508290346107a357816003193601126107a35761126a6119b2565b906024928335917f9f2df0fed2c77648de5860a4cc508cd0818c85b8b8a1ab4ceeef8d981c8956a69384875260209460058652838820338952865260ff848920541615611376575073ffffffffffffffffffffffffffffffffffffffff1694851561131c575050918185936113027fddf252ad1be2c89b69c2b068fc378daa952ba7f163c4a11628f55a4df523b3ef94600254611df2565b60025585855284835280852082815401905551908152a380f35b601f908560649451937f08c379a00000000000000000000000000000000000000000000000000000000085528401528201527f45524332303a206d696e7420746f20746865207a65726f2061646472657373006044820152fd5b859150868891611385336121f2565b9091865192611393846119fd565b604284528584019460603687378451156110a8576030865384519060019182101561107d5790607860218701536041915b81831161142057505050610f7a5750610f76938693610f4893610f39604894610f049a519a857f416363657373436f6e74726f6c3a206163636f756e74200000000000000000008d978801528251928391603789019101611945565b909192600f81166010811015611052577f3031323334353637383961626364656600000000000000000000000000000000901a61145d85896121b2565b53891c928015611027576000190191906113c4565b82843461070b578060031936011261070b576107fa6020926114c76114956119b2565b913381526001865284812073ffffffffffffffffffffffffffffffffffffffff84168252865284602435912054611df2565b903361203d565b503461070b578260031936011261070b576114e76119da565b903373ffffffffffffffffffffffffffffffffffffffff83160361151057906107a09135611d3d565b60849060208551917f08c379a0000000000000000000000000000000000000000000000000000000008352820152602f60248201527f416363657373436f6e74726f6c3a2063616e206f6e6c792072656e6f756e636560448201527f20726f6c657320666f722073656c6600000000000000000000000000000000006064820152fd5b82843461070b578160031936011261070b5760209060ff600954169051908152f35b5082346107a357806003193601126107a35761162f91359060066115d76119da565b92808652602090600582526115f160018589200154611afe565b8087526005825273ffffffffffffffffffffffffffffffffffffffff848820951694858852825260ff848820541615611633575b8652528320612372565b5080f35b80875260058252838720858852825283872060017fffffffffffffffffffffffffffffffffffffffffffffffffffffffffffffff008254161790553385827f2f8788117e7eff1d82e926ec794901d17c78024a50270940304540a733656f0d8a80a4611625565b508290346107a35760206003193601126107a35781602093600192358152600585522001549051908152f35b503461070b57606060031936011261070b576116e06119b2565b6116e86119da565b91846044359473ffffffffffffffffffffffffffffffffffffffff8416815260016020528181203382526020522054906000198203611730575b6020866107fa878787611e2e565b848210611759575091839161174e602096956107fa9503338361203d565b919394819350611722565b60649060208751917f08c379a0000000000000000000000000000000000000000000000000000000008352820152601d60248201527f45524332303a20696e73756666696369656e7420616c6c6f77616e63650000006044820152fd5b82843461070b578160031936011261070b576020906002549051908152f35b82843461070b578060031936011261070b576020906107fa6117f56119b2565b602435903361203d565b82843461070b578160031936011261070b578051908260075461182181612550565b808552916001918083169081156109bc575060011461184c575050506109518261095b940383611a48565b9450600785527fa66cc928b5edb82af9bd49922954155ab7b0942694bea4ce44661d9a8736c6885b8286106118915750505061095182602061095b958201019461093f565b80546020878701810191909152909501948101611874565b919050346107a35760206003193601126107a357357fffffffff0000000000000000000000000000000000000000000000000000000081168082036110d357602093507f1a856d0c0000000000000000000000000000000000000000000000000000000014908115611934575b8115611924575b5015158152f35b61192e91506125a3565b8361191d565b905061193f816125a3565b90611916565b60005b8381106119585750506000910152565b8181015183820152602001611948565b7fffffffffffffffffffffffffffffffffffffffffffffffffffffffffffffffe0601f604093602084526119ab8151809281602088015260208888019101611945565b0116010190565b6004359073ffffffffffffffffffffffffffffffffffffffff821682036119d557565b600080fd5b6024359073ffffffffffffffffffffffffffffffffffffffff821682036119d557565b6080810190811067ffffffffffffffff821117611a1957604052565b7f4e487b7100000000000000000000000000000000000000000000000000000000600052604160045260246000fd5b90601f7fffffffffffffffffffffffffffffffffffffffffffffffffffffffffffffffe0910116810190811067ffffffffffffffff821117611a1957604052565b81601f820112156119d55780359067ffffffffffffffff8211611a195760405192611adc60207fffffffffffffffffffffffffffffffffffffffffffffffffffffffffffffffe0601f8601160185611a48565b828452602083830101116119d557816000926020809301838601378301015290565b600081815260209060058252604092838220338352835260ff848320541615611b275750505050565b611b30336121f2565b845191611b3c836119fd565b60428352848301936060368637835115611d105760308553835190600191821015611d105790607860218601536041915b818311611c6357505050611c0757610f04938593611bd793611bc8604894610f76995198857f416363657373436f6e74726f6c3a206163636f756e74200000000000000000008b978801528251928391603789019101611945565b01036028810185520183611a48565b519182917f08c379a000000000000000000000000000000000000000000000000000000000835260048301611968565b6064848651907f08c379a000000000000000000000000000000000000000000000000000000000825280600483015260248201527f537472696e67733a20686578206c656e67746820696e73756666696369656e746044820152fd5b909192600f81166010811015611ce3577f3031323334353637383961626364656600000000000000000000000000000000901a611ca085886121b2565b5360041c928015611cb657600019019190611b6d565b6024827f4e487b710000000000000000000000000000000000000000000000000000000081526011600452fd5b6024837f4e487b710000000000000000000000000000000000000000000000000000000081526032600452fd5b807f4e487b7100000000000000000000000000000000000000000000000000000000602492526032600452fd5b906040611d8992600090808252600560205273ffffffffffffffffffffffffffffffffffffffff83832094169384835260205260ff8383205416611d8c575b8152600660205220612415565b50565b80825260056020528282208483526020528282207fffffffffffffffffffffffffffffffffffffffffffffffffffffffffffffff0081541690553384827ff6391f5c32d9c69d2a47ea670b442974b53935d1edc7fd64eb21e047a839171b8580a4611d7c565b91908201809211611dff57565b7f4e487b7100000000000000000000000000000000000000000000000000000000600052601160045260246000fd5b73ffffffffffffffffffffffffffffffffffffffff809116918215611fb95716918215611f3557600082815280602052604081205491808310611eb157604082827fddf252ad1be2c89b69c2b068fc378daa952ba7f163c4a11628f55a4df523b3ef958760209652828652038282205586815220818154019055604051908152a3565b60846040517f08c379a000000000000000000000000000000000000000000000000000000000815260206004820152602660248201527f45524332303a207472616e7366657220616d6f756e742065786365656473206260448201527f616c616e636500000000000000000000000000000000000000000000000000006064820152fd5b60846040517f08c379a000000000000000000000000000000000000000000000000000000000815260206004820152602360248201527f45524332303a207472616e7366657220746f20746865207a65726f206164647260448201527f65737300000000000000000000000000000000000000000000000000000000006064820152fd5b60846040517f08c379a000000000000000000000000000000000000000000000000000000000815260206004820152602560248201527f45524332303a207472616e736665722066726f6d20746865207a65726f20616460448201527f64726573730000000000000000000000000000000000000000000000000000006064820152fd5b73ffffffffffffffffffffffffffffffffffffffff80911691821561212f57169182156120ab5760207f8c5be1e5ebec7d5bd14f71427d1e84f3dd0314c0f7b2291e5b200ac8c7c3b925918360005260018252604060002085600052825280604060002055604051908152a3565b60846040517f08c379a000000000000000000000000000000000000000000000000000000000815260206004820152602260248201527f45524332303a20617070726f766520746f20746865207a65726f20616464726560448201527f73730000000000000000000000000000000000000000000000000000000000006064820152fd5b60846040517f08c379a0000000000000000000000000000000000000000000000000000000008152602060048201526024808201527f45524332303a20617070726f76652066726f6d20746865207a65726f2061646460448201527f72657373000000000000000000000000000000000000000000000000000000006064820152fd5b9081518110156121c3570160200190565b7f4e487b7100000000000000000000000000000000000000000000000000000000600052603260045260246000fd5b604051906060820182811067ffffffffffffffff821117611a1957604052602a82526020820160403682378251156121c3576030905381516001908110156121c357607860218401536029905b8082116122ad57505061224f5790565b60646040517f08c379a000000000000000000000000000000000000000000000000000000000815260206004820152602060248201527f537472696e67733a20686578206c656e67746820696e73756666696369656e746044820152fd5b9091600f8116601081101561232c577f3031323334353637383961626364656600000000000000000000000000000000901a6122e984866121b2565b5360041c9180156122fe57600019019061223f565b602460007f4e487b710000000000000000000000000000000000000000000000000000000081526011600452fd5b602460007f4e487b710000000000000000000000000000000000000000000000000000000081526032600452fd5b80548210156121c35760005260206000200190600090565b9190600183016000908282528060205260408220541560001461240f57845494680100000000000000008610156123e257836123d26123bb886001604098999a0185558461235a565b81939154906000199060031b92831b921b19161790565b9055549382526020522055600190565b6024837f4e487b710000000000000000000000000000000000000000000000000000000081526041600452fd5b50925050565b90600182019060009281845282602052604084205490811515600014612549576000199182810181811161251c578254908482019182116124ef578082036124ba575b5050508054801561248d57820191612470838361235a565b909182549160031b1b191690555582526020526040812055600190565b6024867f4e487b710000000000000000000000000000000000000000000000000000000081526031600452fd5b6124da6124ca6123bb938661235a565b90549060031b1c9283928661235a565b90558652846020526040862055388080612458565b6024887f4e487b710000000000000000000000000000000000000000000000000000000081526011600452fd5b6024877f4e487b710000000000000000000000000000000000000000000000000000000081526011600452fd5b5050505090565b90600182811c92168015612599575b602083101461256a57565b7f4e487b7100000000000000000000000000000000000000000000000000000000600052602260045260246000fd5b91607f169161255f565b7fffffffff000000000000000000000000000000000000000000000000000000008116907f36372b07000000000000000000000000000000000000000000000000000000008214918215612622575b508115612611575b8115612604575090565b61260e915061264c565b90565b905061261c8161264c565b906125fa565b7fa219a02500000000000000000000000000000000000000000000000000000000149150386125f2565b7fffffffff00000000000000000000000000000000000000000000000000000000167f5a05180f00000000000000000000000000000000000000000000000000000000811490811561269c575090565b7f7965db0b000000000000000000000000000000000000000000000000000000008114915081156126cb575090565b7f01ffc9a7000000000000000000000000000000000000000000000000000000009150149056fea2646970667358221220ddbcdbf43b933f6465e76fc74b27ee1555ec91b3114c4950fb16acac4b4e2fdd64736f6c63430008130033",
					"opcodes": "PUSH1 0xC0 PUSH1 0x40 MSTORE CALLVALUE PUSH3 0x2F8 JUMPI PUSH3 0x14 PUSH3 0x2FD JUMP JUMPDEST PUSH3 0x1E PUSH3 0x2FD JUMP JUMPDEST DUP2 MLOAD SWAP1 PUSH1 0x1 PUSH1 0x1 PUSH1 0x40 SHL SUB SWAP1 DUP2 DUP4 GT PUSH3 0x1F8 JUMPI PUSH1 0x3 SWAP1 DUP2 SLOAD SWAP1 PUSH1 0x1 SWAP5 DUP6 DUP4 DUP2 SHR SWAP4 AND SWAP7 DUP8 ISZERO PUSH3 0x2ED JUMPI JUMPDEST PUSH1 0x20 SWAP8 DUP9 DUP6 LT EQ PUSH3 0x2D7 JUMPI DUP2 SWAP1 PUSH1 0x1F SWAP5 DUP6 DUP2 GT PUSH3 0x281 JUMPI JUMPDEST POP DUP9 SWAP1 DUP6 DUP4 GT PUSH1 0x1 EQ PUSH3 0x21A JUMPI PUSH1 0x0 SWAP3 PUSH3 0x20E JUMPI JUMPDEST POP POP PUSH1 0x0 NOT DUP3 DUP7 SHL SHR NOT AND SWAP1 DUP7 SHL OR DUP4 SSTORE JUMPDEST DUP1 MLOAD SWAP4 DUP5 GT PUSH3 0x1F8 JUMPI PUSH1 0x4 SWAP6 DUP7 SLOAD DUP7 DUP2 DUP2 SHR SWAP2 AND DUP1 ISZERO PUSH3 0x1ED JUMPI JUMPDEST DUP3 DUP3 LT EQ PUSH3 0x1D8 JUMPI DUP4 DUP2 GT PUSH3 0x18D JUMPI JUMPDEST POP DUP1 SWAP3 DUP6 GT PUSH1 0x1 EQ PUSH3 0x11F JUMPI POP SWAP4 DUP4 SWAP5 SWAP2 DUP5 SWAP3 PUSH1 0x0 SWAP6 PUSH3 0x113 JUMPI JUMPDEST POP POP SHL SWAP3 PUSH1 0x0 NOT SWAP2 SHL SHR NOT AND OR SWAP1 SSTORE JUMPDEST CALLER PUSH1 0x80 MSTORE CALLER PUSH1 0xA0 MSTORE PUSH1 0x40 MLOAD PUSH2 0x2728 SWAP1 DUP2 PUSH3 0x322 DUP3 CODECOPY PUSH1 0x80 MLOAD DUP2 PUSH2 0x1D8 ADD MSTORE PUSH1 0xA0 MLOAD DUP2 PUSH2 0x1A7 ADD MSTORE RETURN JUMPDEST ADD MLOAD SWAP4 POP CODESIZE DUP1 PUSH3 0xD9 JUMP JUMPDEST SWAP3 SWAP2 SWAP1 DUP5 PUSH1 0x1F NOT DUP2 AND DUP9 PUSH1 0x0 MSTORE DUP6 PUSH1 0x0 KECCAK256 SWAP6 PUSH1 0x0 SWAP1 JUMPDEST DUP10 DUP4 DUP4 LT PUSH3 0x172 JUMPI POP POP POP LT PUSH3 0x157 JUMPI JUMPDEST POP POP POP POP DUP2 SHL ADD SWAP1 SSTORE PUSH3 0xE9 JUMP JUMPDEST ADD MLOAD SWAP1 PUSH1 0xF8 DUP5 PUSH1 0x0 NOT SWAP3 SHL AND SHR NOT AND SWAP1 SSTORE CODESIZE DUP1 DUP1 DUP1 PUSH3 0x148 JUMP JUMPDEST DUP6 DUP8 ADD MLOAD DUP10 SSTORE SWAP1 SWAP8 ADD SWAP7 SWAP5 DUP6 ADD SWAP5 DUP9 SWAP4 POP SWAP1 DUP2 ADD SWAP1 PUSH3 0x135 JUMP JUMPDEST DUP8 PUSH1 0x0 MSTORE DUP2 PUSH1 0x0 KECCAK256 DUP5 DUP1 DUP9 ADD PUSH1 0x5 SHR DUP3 ADD SWAP3 DUP5 DUP10 LT PUSH3 0x1CE JUMPI JUMPDEST ADD PUSH1 0x5 SHR ADD SWAP1 DUP8 SWAP1 JUMPDEST DUP3 DUP2 LT PUSH3 0x1C1 JUMPI POP POP PUSH3 0xBC JUMP JUMPDEST PUSH1 0x0 DUP2 SSTORE ADD DUP8 SWAP1 PUSH3 0x1B1 JUMP JUMPDEST SWAP3 POP DUP2 SWAP3 PUSH3 0x1A8 JUMP JUMPDEST PUSH1 0x22 DUP9 PUSH4 0x4E487B71 PUSH1 0xE0 SHL PUSH1 0x0 MSTORE MSTORE PUSH1 0x24 PUSH1 0x0 REVERT JUMPDEST SWAP1 PUSH1 0x7F AND SWAP1 PUSH3 0xAA JUMP JUMPDEST PUSH4 0x4E487B71 PUSH1 0xE0 SHL PUSH1 0x0 MSTORE PUSH1 0x41 PUSH1 0x4 MSTORE PUSH1 0x24 PUSH1 0x0 REVERT JUMPDEST ADD MLOAD SWAP1 POP CODESIZE DUP1 PUSH3 0x7B JUMP JUMPDEST SWAP1 DUP9 SWAP4 POP PUSH1 0x1F NOT DUP4 AND SWAP2 DUP8 PUSH1 0x0 MSTORE DUP11 PUSH1 0x0 KECCAK256 SWAP3 PUSH1 0x0 JUMPDEST DUP13 DUP3 DUP3 LT PUSH3 0x26A JUMPI POP POP DUP5 GT PUSH3 0x251 JUMPI JUMPDEST POP POP POP DUP2 SHL ADD DUP4 SSTORE PUSH3 0x8D JUMP JUMPDEST ADD MLOAD PUSH1 0x0 NOT DUP4 DUP9 SHL PUSH1 0xF8 AND SHR NOT AND SWAP1 SSTORE CODESIZE DUP1 DUP1 PUSH3 0x243 JUMP JUMPDEST DUP4 DUP6 ADD MLOAD DUP7 SSTORE DUP13 SWAP8 SWAP1 SWAP6 ADD SWAP5 SWAP4 DUP5 ADD SWAP4 ADD PUSH3 0x230 JUMP JUMPDEST SWAP1 SWAP2 POP DUP6 PUSH1 0x0 MSTORE DUP9 PUSH1 0x0 KECCAK256 DUP6 DUP1 DUP6 ADD PUSH1 0x5 SHR DUP3 ADD SWAP3 DUP12 DUP7 LT PUSH3 0x2CD JUMPI JUMPDEST SWAP2 DUP11 SWAP2 DUP7 SWAP6 SWAP5 SWAP4 ADD PUSH1 0x5 SHR ADD SWAP2 JUMPDEST DUP3 DUP2 LT PUSH3 0x2BD JUMPI POP POP PUSH3 0x64 JUMP JUMPDEST PUSH1 0x0 DUP2 SSTORE DUP6 SWAP5 POP DUP11 SWAP2 ADD PUSH3 0x2AD JUMP JUMPDEST SWAP3 POP DUP2 SWAP3 PUSH3 0x29F JUMP JUMPDEST PUSH4 0x4E487B71 PUSH1 0xE0 SHL PUSH1 0x0 MSTORE PUSH1 0x22 PUSH1 0x4 MSTORE PUSH1 0x24 PUSH1 0x0 REVERT JUMPDEST SWAP3 PUSH1 0x7F AND SWAP3 PUSH3 0x4A JUMP JUMPDEST PUSH1 0x0 DUP1 REVERT JUMPDEST PUSH1 0x40 MLOAD SWAP1 PUSH1 0x20 DUP3 ADD PUSH1 0x1 PUSH1 0x1 PUSH1 0x40 SHL SUB DUP2 GT DUP4 DUP3 LT OR PUSH3 0x1F8 JUMPI PUSH1 0x40 MSTORE PUSH1 0x0 DUP3 MSTORE JUMP INVALID PUSH1 0x80 PUSH1 0x40 SWAP1 DUP1 DUP3 MSTORE PUSH1 0x4 DUP1 CALLDATASIZE LT ISZERO PUSH2 0x16 JUMPI PUSH1 0x0 DUP1 REVERT JUMPDEST PUSH1 0x0 SWAP2 DUP3 CALLDATALOAD PUSH1 0xE0 SHR SWAP1 DUP2 PUSH4 0x1FFC9A7 EQ PUSH2 0x18A9 JUMPI POP DUP1 PUSH4 0x6FDDE03 EQ PUSH2 0x17FF JUMPI DUP1 PUSH4 0x95EA7B3 EQ PUSH2 0x17D5 JUMPI DUP1 PUSH4 0x18160DDD EQ PUSH2 0x17B6 JUMPI DUP1 PUSH4 0x23B872DD EQ PUSH2 0x16C6 JUMPI DUP1 PUSH4 0x248A9CA3 EQ PUSH2 0x169A JUMPI DUP1 PUSH4 0x2F2FF15D EQ PUSH2 0x15B5 JUMPI DUP1 PUSH4 0x313CE567 EQ PUSH2 0x1593 JUMPI DUP1 PUSH4 0x36568ABE EQ PUSH2 0x14CE JUMPI DUP1 PUSH4 0x39509351 EQ PUSH2 0x1472 JUMPI DUP1 PUSH4 0x40C10F19 EQ PUSH2 0x124F JUMPI DUP1 PUSH4 0x42966C68 EQ PUSH2 0x10D7 JUMPI DUP1 PUSH4 0x5A446215 EQ PUSH2 0xAE9 JUMPI DUP1 PUSH4 0x70A08231 EQ PUSH2 0xAA6 JUMPI DUP1 PUSH4 0x9010D07C EQ PUSH2 0xA56 JUMPI DUP1 PUSH4 0x91D14854 EQ PUSH2 0xA02 JUMPI DUP1 PUSH4 0x95D89B41 EQ PUSH2 0x903 JUMPI DUP1 PUSH4 0xA217FDDF EQ PUSH2 0x8E8 JUMPI DUP1 PUSH4 0xA457C2D7 EQ PUSH2 0x801 JUMPI DUP1 PUSH4 0xA9059CBB EQ PUSH2 0x7D0 JUMPI DUP1 PUSH4 0xCA15C873 EQ PUSH2 0x7A7 JUMPI DUP1 PUSH4 0xD547741F EQ PUSH2 0x765 JUMPI DUP1 PUSH4 0xDD62ED3E EQ PUSH2 0x70F JUMPI PUSH4 0xF6D2EE86 EQ PUSH2 0x12C JUMPI PUSH1 0x0 DUP1 REVERT JUMPDEST CALLVALUE PUSH2 0x70B JUMPI PUSH1 0x80 PUSH1 0x3 NOT CALLDATASIZE ADD SLT PUSH2 0x70B JUMPI PUSH2 0x145 PUSH2 0x19B2 JUMP JUMPDEST PUSH8 0xFFFFFFFFFFFFFFFF SWAP4 PUSH1 0x24 CALLDATALOAD DUP6 DUP2 GT PUSH2 0x707 JUMPI PUSH2 0x166 SWAP1 CALLDATASIZE SWAP1 DUP6 ADD PUSH2 0x1A89 JUMP JUMPDEST SWAP3 PUSH1 0x44 CALLDATALOAD DUP7 DUP2 GT PUSH2 0x703 JUMPI PUSH2 0x17E SWAP1 CALLDATASIZE SWAP1 DUP4 ADD PUSH2 0x1A89 JUMP JUMPDEST SWAP6 PUSH1 0x64 CALLDATALOAD SWAP5 PUSH1 0xFF DUP7 AND DUP1 SWAP7 SUB PUSH2 0x6FF JUMPI PUSH20 0xFFFFFFFFFFFFFFFFFFFFFFFFFFFFFFFFFFFFFFFF SWAP3 DUP4 PUSH32 0x0 AND CALLER EQ DUP1 ISZERO SWAP1 PUSH2 0x6F0 JUMPI JUMPDEST PUSH2 0x6BA JUMPI DUP4 PUSH32 0x0 AND CALLER EQ DUP1 ISZERO SWAP1 PUSH2 0x6E1 JUMPI JUMPDEST PUSH2 0x6BA JUMPI DUP2 MLOAD DUP4 DUP2 GT PUSH2 0x68E JUMPI DUP1 PUSH2 0x21B PUSH1 0x7 SLOAD PUSH2 0x2550 JUMP JUMPDEST SWAP4 PUSH1 0x1F SWAP5 DUP6 DUP2 GT PUSH2 0x622 JUMPI JUMPDEST POP PUSH1 0x20 SWAP1 DUP6 DUP4 GT PUSH1 0x1 EQ PUSH2 0x583 JUMPI DUP12 SWAP3 PUSH2 0x578 JUMPI JUMPDEST POP POP PUSH1 0x0 NOT DUP3 PUSH1 0x1 SHL SWAP3 PUSH1 0x3 SHL SHR NOT AND OR PUSH1 0x7 SSTORE JUMPDEST DUP9 MLOAD SWAP3 DUP4 GT PUSH2 0x54C JUMPI POP PUSH2 0x266 PUSH1 0x8 SLOAD PUSH2 0x2550 JUMP JUMPDEST DUP2 DUP2 GT PUSH2 0x4EC JUMPI JUMPDEST POP PUSH1 0x20 SWAP1 DUP3 GT PUSH1 0x1 EQ PUSH2 0x447 JUMPI DUP2 SWAP1 DUP8 SWAP9 PUSH2 0x37A SWAP8 SWAP9 SWAP3 PUSH2 0x43C JUMPI JUMPDEST POP POP PUSH1 0x0 NOT DUP3 PUSH1 0x1 SHL SWAP3 PUSH1 0x3 SHL SHR NOT AND OR PUSH1 0x8 SSTORE JUMPDEST PUSH32 0xFFFFFFFFFFFFFFFFFFFFFFFFFFFFFFFFFFFFFFFFFFFFFFFFFFFFFFFFFFFFFF00 SWAP1 PUSH1 0x9 SWAP6 DUP3 DUP8 SLOAD AND OR DUP7 SSTORE DUP7 DUP1 MSTORE PUSH1 0x5 PUSH1 0x20 MSTORE DUP3 DUP8 KECCAK256 SWAP4 AND SWAP3 DUP4 DUP8 MSTORE PUSH1 0x20 MSTORE PUSH1 0xFF DUP3 DUP8 KECCAK256 SLOAD AND ISZERO PUSH2 0x3F3 JUMPI JUMPDEST DUP6 DUP1 MSTORE PUSH1 0x6 PUSH1 0x20 MSTORE PUSH2 0x300 DUP4 DUP4 DUP9 KECCAK256 PUSH2 0x2372 JUMP JUMPDEST POP PUSH2 0x100 PUSH32 0xFFFFFFFFFFFFFFFFFFFFFFFFFFFFFFFFFFFFFFFFFFFFFFFFFFFFFFFFFFFF00FF DUP7 SLOAD AND OR DUP6 SSTORE PUSH32 0x9F2DF0FED2C77648DE5860A4CC508CD0818C85B8B8A1AB4CEEEF8D981C8956A6 SWAP1 DUP2 DUP8 MSTORE PUSH1 0x5 PUSH1 0x20 MSTORE DUP3 DUP8 KECCAK256 DUP5 DUP9 MSTORE PUSH1 0x20 MSTORE PUSH1 0xFF DUP4 DUP9 KECCAK256 SLOAD AND ISZERO PUSH2 0x3A9 JUMPI JUMPDEST POP DUP6 MSTORE PUSH1 0x6 PUSH1 0x20 MSTORE DUP5 KECCAK256 PUSH2 0x2372 JUMP JUMPDEST POP PUSH3 0x10000 PUSH32 0xFFFFFFFFFFFFFFFFFFFFFFFFFFFFFFFFFFFFFFFFFFFFFFFFFFFFFFFFFF00FFFF DUP3 SLOAD AND OR SWAP1 SSTORE DUP1 RETURN JUMPDEST DUP2 DUP8 MSTORE PUSH1 0x5 PUSH1 0x20 MSTORE DUP3 DUP8 KECCAK256 DUP5 DUP9 MSTORE PUSH1 0x20 MSTORE PUSH1 0x1 DUP4 DUP9 KECCAK256 SWAP2 DUP3 SLOAD AND OR SWAP1 SSTORE CALLER DUP4 DUP3 PUSH32 0x2F8788117E7EFF1D82E926EC794901D17C78024A50270940304540A733656F0D DUP10 DUP1 LOG4 CODESIZE PUSH2 0x36B JUMP JUMPDEST DUP6 DUP1 MSTORE PUSH1 0x5 PUSH1 0x20 MSTORE DUP2 DUP7 KECCAK256 DUP4 DUP8 MSTORE PUSH1 0x20 MSTORE DUP2 DUP7 KECCAK256 PUSH1 0x1 DUP3 DUP3 SLOAD AND OR SWAP1 SSTORE CALLER DUP4 DUP8 PUSH32 0x2F8788117E7EFF1D82E926EC794901D17C78024A50270940304540A733656F0D DUP2 DUP1 LOG4 PUSH2 0x2EC JUMP JUMPDEST ADD MLOAD SWAP1 POP CODESIZE DUP1 PUSH2 0x28A JUMP JUMPDEST PUSH1 0x8 DUP8 MSTORE PUSH32 0xF3F7A9FE364FAAB93B216DA50A3214154F22A0A2B415B23A84C8169E8B636EE3 SWAP8 PUSH32 0xFFFFFFFFFFFFFFFFFFFFFFFFFFFFFFFFFFFFFFFFFFFFFFFFFFFFFFFFFFFFFFE0 DUP4 AND DUP9 JUMPDEST DUP2 DUP2 LT PUSH2 0x4D4 JUMPI POP SWAP2 PUSH2 0x37A SWAP8 SWAP9 SWAP10 SWAP2 DUP5 PUSH1 0x1 SWAP6 SWAP5 LT PUSH2 0x4BB JUMPI JUMPDEST POP POP POP DUP2 SHL ADD PUSH1 0x8 SSTORE PUSH2 0x29F JUMP JUMPDEST ADD MLOAD PUSH1 0x0 NOT PUSH1 0xF8 DUP5 PUSH1 0x3 SHL AND SHR NOT AND SWAP1 SSTORE CODESIZE DUP1 DUP1 PUSH2 0x4AD JUMP JUMPDEST DUP4 DUP4 ADD MLOAD DUP12 SSTORE PUSH1 0x1 SWAP1 SWAP11 ADD SWAP10 PUSH1 0x20 SWAP4 DUP5 ADD SWAP4 ADD PUSH2 0x492 JUMP JUMPDEST PUSH1 0x8 DUP9 MSTORE PUSH32 0xF3F7A9FE364FAAB93B216DA50A3214154F22A0A2B415B23A84C8169E8B636EE3 DUP3 DUP1 DUP6 ADD PUSH1 0x5 SHR DUP3 ADD SWAP3 PUSH1 0x20 DUP7 LT PUSH2 0x543 JUMPI JUMPDEST ADD PUSH1 0x5 SHR ADD SWAP1 JUMPDEST DUP2 DUP2 LT PUSH2 0x538 JUMPI POP PUSH2 0x26E JUMP JUMPDEST DUP9 DUP2 SSTORE PUSH1 0x1 ADD PUSH2 0x52B JUMP JUMPDEST SWAP3 POP DUP2 SWAP3 PUSH2 0x524 JUMP JUMPDEST DUP8 PUSH1 0x41 PUSH1 0x24 SWAP3 PUSH32 0x4E487B7100000000000000000000000000000000000000000000000000000000 DUP4 MSTORE MSTORE REVERT JUMPDEST ADD MLOAD SWAP1 POP CODESIZE DUP1 PUSH2 0x23C JUMP JUMPDEST PUSH1 0x7 DUP13 MSTORE PUSH32 0xA66CC928B5EDB82AF9BD49922954155AB7B0942694BEA4CE44661D9A8736C688 SWAP3 PUSH32 0xFFFFFFFFFFFFFFFFFFFFFFFFFFFFFFFFFFFFFFFFFFFFFFFFFFFFFFFFFFFFFFE0 AND DUP13 JUMPDEST DUP2 DUP2 LT PUSH2 0x60A JUMPI POP SWAP1 DUP5 PUSH1 0x1 SWAP6 SWAP5 SWAP4 SWAP3 LT PUSH2 0x5F1 JUMPI JUMPDEST POP POP POP DUP2 SHL ADD PUSH1 0x7 SSTORE PUSH2 0x251 JUMP JUMPDEST ADD MLOAD PUSH1 0x0 NOT PUSH1 0xF8 DUP5 PUSH1 0x3 SHL AND SHR NOT AND SWAP1 SSTORE CODESIZE DUP1 DUP1 PUSH2 0x5E3 JUMP JUMPDEST SWAP3 SWAP4 PUSH1 0x20 PUSH1 0x1 DUP2 SWAP3 DUP8 DUP7 ADD MLOAD DUP2 SSTORE ADD SWAP6 ADD SWAP4 ADD PUSH2 0x5CD JUMP JUMPDEST SWAP1 SWAP2 POP PUSH1 0x7 DUP12 MSTORE PUSH32 0xA66CC928B5EDB82AF9BD49922954155AB7B0942694BEA4CE44661D9A8736C688 DUP6 DUP1 DUP6 ADD PUSH1 0x5 SHR DUP3 ADD SWAP3 PUSH1 0x20 DUP7 LT PUSH2 0x685 JUMPI JUMPDEST SWAP1 DUP6 SWAP5 SWAP4 SWAP3 SWAP2 ADD PUSH1 0x5 SHR ADD SWAP1 JUMPDEST DUP2 DUP2 LT PUSH2 0x677 JUMPI POP PUSH2 0x227 JUMP JUMPDEST DUP13 DUP2 SSTORE DUP5 SWAP4 POP PUSH1 0x1 ADD PUSH2 0x66A JUMP JUMPDEST SWAP3 POP DUP2 SWAP3 PUSH2 0x65D JUMP JUMPDEST PUSH1 0x24 DUP10 PUSH1 0x41 DUP5 PUSH32 0x4E487B7100000000000000000000000000000000000000000000000000000000 DUP4 MSTORE MSTORE REVERT JUMPDEST DUP5 MLOAD PUSH32 0xF92EE8A900000000000000000000000000000000000000000000000000000000 DUP2 MSTORE REVERT JUMPDEST POP PUSH1 0xFF PUSH1 0x9 SLOAD PUSH1 0x8 SHR AND PUSH2 0x202 JUMP JUMPDEST POP PUSH1 0xFF PUSH1 0x9 SLOAD PUSH1 0x10 SHR AND PUSH2 0x1D1 JUMP JUMPDEST DUP7 DUP1 REVERT JUMPDEST DUP6 DUP1 REVERT JUMPDEST DUP5 DUP1 REVERT JUMPDEST POP DUP1 REVERT JUMPDEST DUP3 DUP5 CALLVALUE PUSH2 0x70B JUMPI DUP1 PUSH1 0x3 NOT CALLDATASIZE ADD SLT PUSH2 0x70B JUMPI DUP1 PUSH1 0x20 SWAP3 PUSH2 0x72D PUSH2 0x19B2 JUMP JUMPDEST PUSH2 0x735 PUSH2 0x19DA JUMP JUMPDEST PUSH20 0xFFFFFFFFFFFFFFFFFFFFFFFFFFFFFFFFFFFFFFFF SWAP2 DUP3 AND DUP4 MSTORE PUSH1 0x1 DUP7 MSTORE DUP4 DUP4 KECCAK256 SWAP2 AND DUP3 MSTORE DUP5 MSTORE KECCAK256 SLOAD SWAP1 MLOAD SWAP1 DUP2 MSTORE RETURN JUMPDEST POP DUP3 CALLVALUE PUSH2 0x7A3 JUMPI DUP1 PUSH1 0x3 NOT CALLDATASIZE ADD SLT PUSH2 0x7A3 JUMPI PUSH2 0x7A0 SWAP2 CALLDATALOAD PUSH2 0x79B PUSH1 0x1 PUSH2 0x789 PUSH2 0x19DA JUMP JUMPDEST SWAP4 DUP4 DUP8 MSTORE PUSH1 0x5 PUSH1 0x20 MSTORE DUP7 KECCAK256 ADD SLOAD PUSH2 0x1AFE JUMP JUMPDEST PUSH2 0x1D3D JUMP JUMPDEST DUP1 RETURN JUMPDEST DUP3 DUP1 REVERT JUMPDEST POP DUP3 SWAP1 CALLVALUE PUSH2 0x7A3 JUMPI PUSH1 0x20 PUSH1 0x3 NOT CALLDATASIZE ADD SLT PUSH2 0x7A3 JUMPI PUSH1 0x20 SWAP3 DUP3 SWAP2 CALLDATALOAD DUP2 MSTORE PUSH1 0x6 DUP5 MSTORE KECCAK256 SLOAD SWAP1 MLOAD SWAP1 DUP2 MSTORE RETURN JUMPDEST DUP3 DUP5 CALLVALUE PUSH2 0x70B JUMPI DUP1 PUSH1 0x3 NOT CALLDATASIZE ADD SLT PUSH2 0x70B JUMPI PUSH1 0x20 SWAP1 PUSH2 0x7FA PUSH2 0x7F0 PUSH2 0x19B2 JUMP JUMPDEST PUSH1 0x24 CALLDATALOAD SWAP1 CALLER PUSH2 0x1E2E JUMP JUMPDEST MLOAD PUSH1 0x1 DUP2 MSTORE RETURN JUMPDEST POP SWAP1 CALLVALUE PUSH2 0x8E5 JUMPI DUP3 PUSH1 0x3 NOT CALLDATASIZE ADD SLT PUSH2 0x8E5 JUMPI PUSH2 0x81B PUSH2 0x19B2 JUMP JUMPDEST SWAP2 DUP4 PUSH1 0x24 CALLDATALOAD SWAP3 CALLER DUP2 MSTORE PUSH1 0x1 PUSH1 0x20 MSTORE DUP2 DUP2 KECCAK256 PUSH20 0xFFFFFFFFFFFFFFFFFFFFFFFFFFFFFFFFFFFFFFFF DUP7 AND DUP3 MSTORE PUSH1 0x20 MSTORE KECCAK256 SLOAD SWAP1 DUP3 DUP3 LT PUSH2 0x862 JUMPI PUSH1 0x20 DUP6 PUSH2 0x7FA DUP6 DUP6 SUB DUP8 CALLER PUSH2 0x203D JUMP JUMPDEST PUSH1 0x84 SWAP1 PUSH1 0x20 DUP7 MLOAD SWAP2 PUSH32 0x8C379A000000000000000000000000000000000000000000000000000000000 DUP4 MSTORE DUP3 ADD MSTORE PUSH1 0x25 PUSH1 0x24 DUP3 ADD MSTORE PUSH32 0x45524332303A2064656372656173656420616C6C6F77616E63652062656C6F77 PUSH1 0x44 DUP3 ADD MSTORE PUSH32 0x207A65726F000000000000000000000000000000000000000000000000000000 PUSH1 0x64 DUP3 ADD MSTORE REVERT JUMPDEST DUP1 REVERT JUMPDEST DUP3 DUP5 CALLVALUE PUSH2 0x70B JUMPI DUP2 PUSH1 0x3 NOT CALLDATASIZE ADD SLT PUSH2 0x70B JUMPI MLOAD SWAP1 DUP2 MSTORE PUSH1 0x20 SWAP1 RETURN JUMPDEST DUP3 DUP5 CALLVALUE PUSH2 0x70B JUMPI DUP2 PUSH1 0x3 NOT CALLDATASIZE ADD SLT PUSH2 0x70B JUMPI DUP1 MLOAD SWAP1 DUP3 PUSH1 0x8 SLOAD PUSH2 0x925 DUP2 PUSH2 0x2550 JUMP JUMPDEST DUP1 DUP6 MSTORE SWAP2 PUSH1 0x1 SWAP2 DUP1 DUP4 AND SWAP1 DUP2 ISZERO PUSH2 0x9BC JUMPI POP PUSH1 0x1 EQ PUSH2 0x95F JUMPI JUMPDEST POP POP POP PUSH2 0x951 DUP3 PUSH2 0x95B SWAP5 SUB DUP4 PUSH2 0x1A48 JUMP JUMPDEST MLOAD SWAP2 DUP3 SWAP2 DUP3 PUSH2 0x1968 JUMP JUMPDEST SUB SWAP1 RETURN JUMPDEST SWAP5 POP PUSH1 0x8 DUP6 MSTORE PUSH32 0xF3F7A9FE364FAAB93B216DA50A3214154F22A0A2B415B23A84C8169E8B636EE3 JUMPDEST DUP3 DUP7 LT PUSH2 0x9A4 JUMPI POP POP POP PUSH2 0x951 DUP3 PUSH1 0x20 PUSH2 0x95B SWAP6 DUP3 ADD ADD SWAP5 PUSH2 0x93F JUMP JUMPDEST DUP1 SLOAD PUSH1 0x20 DUP8 DUP8 ADD DUP2 ADD SWAP2 SWAP1 SWAP2 MSTORE SWAP1 SWAP6 ADD SWAP5 DUP2 ADD PUSH2 0x987 JUMP JUMPDEST PUSH2 0x95B SWAP8 POP DUP7 SWAP4 POP PUSH1 0x20 SWAP3 POP PUSH2 0x951 SWAP5 SWAP2 POP PUSH32 0xFFFFFFFFFFFFFFFFFFFFFFFFFFFFFFFFFFFFFFFFFFFFFFFFFFFFFFFFFFFFFF00 AND DUP3 DUP5 ADD MSTORE ISZERO ISZERO PUSH1 0x5 SHL DUP3 ADD ADD SWAP5 PUSH2 0x93F JUMP JUMPDEST POP DUP3 SWAP1 CALLVALUE PUSH2 0x7A3 JUMPI DUP2 PUSH1 0x3 NOT CALLDATASIZE ADD SLT PUSH2 0x7A3 JUMPI DUP2 PUSH1 0x20 SWAP4 PUSH1 0xFF SWAP3 PUSH2 0xA24 PUSH2 0x19DA JUMP JUMPDEST SWAP1 CALLDATALOAD DUP3 MSTORE PUSH1 0x5 DUP7 MSTORE PUSH20 0xFFFFFFFFFFFFFFFFFFFFFFFFFFFFFFFFFFFFFFFF DUP4 DUP4 KECCAK256 SWAP2 AND DUP3 MSTORE DUP6 MSTORE KECCAK256 SLOAD AND SWAP1 MLOAD SWAP1 ISZERO ISZERO DUP2 MSTORE RETURN JUMPDEST POP DUP3 SWAP1 CALLVALUE PUSH2 0x7A3 JUMPI DUP2 PUSH1 0x3 NOT CALLDATASIZE ADD SLT PUSH2 0x7A3 JUMPI PUSH2 0xA97 PUSH1 0x20 SWAP4 PUSH20 0xFFFFFFFFFFFFFFFFFFFFFFFFFFFFFFFFFFFFFFFF SWAP3 CALLDATALOAD DUP2 MSTORE PUSH1 0x6 DUP6 MSTORE DUP4 PUSH1 0x24 CALLDATALOAD SWAP2 KECCAK256 PUSH2 0x235A JUMP JUMPDEST SWAP3 SWAP1 SLOAD SWAP1 MLOAD SWAP3 PUSH1 0x3 SHL SHR AND DUP2 MSTORE RETURN JUMPDEST DUP3 DUP5 CALLVALUE PUSH2 0x70B JUMPI PUSH1 0x20 PUSH1 0x3 NOT CALLDATASIZE ADD SLT PUSH2 0x70B JUMPI DUP1 PUSH1 0x20 SWAP3 PUSH20 0xFFFFFFFFFFFFFFFFFFFFFFFFFFFFFFFFFFFFFFFF PUSH2 0xADA PUSH2 0x19B2 JUMP JUMPDEST AND DUP2 MSTORE DUP1 DUP5 MSTORE KECCAK256 SLOAD SWAP1 MLOAD SWAP1 DUP2 MSTORE RETURN JUMPDEST POP SWAP2 CALLVALUE PUSH2 0x70B JUMPI DUP1 PUSH1 0x3 NOT CALLDATASIZE ADD SLT PUSH2 0x70B JUMPI PUSH8 0xFFFFFFFFFFFFFFFF SWAP1 DUP4 CALLDATALOAD DUP3 DUP2 GT PUSH2 0x10D3 JUMPI PUSH2 0xB1B SWAP1 CALLDATASIZE SWAP1 DUP7 ADD PUSH2 0x1A89 JUMP JUMPDEST SWAP1 PUSH1 0x24 DUP1 CALLDATALOAD DUP5 DUP2 GT PUSH2 0x703 JUMPI PUSH2 0xB34 SWAP1 CALLDATASIZE SWAP1 DUP9 ADD PUSH2 0x1A89 JUMP JUMPDEST SWAP6 DUP6 DUP1 MSTORE PUSH1 0x20 SWAP3 PUSH1 0x5 DUP5 MSTORE DUP1 DUP8 KECCAK256 CALLER DUP9 MSTORE DUP5 MSTORE PUSH1 0xFF DUP2 DUP9 KECCAK256 SLOAD AND ISZERO PUSH2 0xE5D JUMPI POP DUP4 MLOAD DUP6 DUP2 GT PUSH2 0xE32 JUMPI DUP1 PUSH2 0xB69 PUSH1 0x7 SLOAD PUSH2 0x2550 JUMP JUMPDEST SWAP6 PUSH1 0x1F SWAP7 DUP8 DUP2 GT PUSH2 0xDC7 JUMPI JUMPDEST POP DUP6 SWAP1 DUP8 DUP4 GT PUSH1 0x1 EQ PUSH2 0xD28 JUMPI DUP10 SWAP3 PUSH2 0xD1D JUMPI JUMPDEST POP POP PUSH1 0x0 NOT DUP3 PUSH1 0x1 SHL SWAP3 PUSH1 0x3 SHL SHR NOT AND OR PUSH1 0x7 SSTORE JUMPDEST DUP7 MLOAD SWAP5 DUP6 GT PUSH2 0xCF3 JUMPI POP POP PUSH2 0xBB4 PUSH1 0x8 SLOAD PUSH2 0x2550 JUMP JUMPDEST DUP3 DUP2 GT PUSH2 0xC94 JUMPI JUMPDEST POP DUP1 SWAP2 DUP4 GT PUSH1 0x1 EQ PUSH2 0xBF5 JUMPI POP DUP3 SWAP4 DUP3 SWAP4 SWAP3 PUSH2 0xBEA JUMPI JUMPDEST POP POP PUSH1 0x0 NOT DUP3 PUSH1 0x1 SHL SWAP3 PUSH1 0x3 SHL SHR NOT AND OR PUSH1 0x8 SSTORE DUP1 RETURN JUMPDEST ADD MLOAD SWAP1 POP CODESIZE DUP1 PUSH2 0xBD3 JUMP JUMPDEST SWAP1 PUSH32 0xFFFFFFFFFFFFFFFFFFFFFFFFFFFFFFFFFFFFFFFFFFFFFFFFFFFFFFFFFFFFFFE0 DUP4 AND SWAP5 PUSH1 0x8 DUP6 MSTORE PUSH32 0xF3F7A9FE364FAAB93B216DA50A3214154F22A0A2B415B23A84C8169E8B636EE3 SWAP3 DUP6 SWAP1 JUMPDEST DUP8 DUP3 LT PUSH2 0xC7C JUMPI POP POP DUP4 PUSH1 0x1 SWAP6 SWAP7 LT PUSH2 0xC63 JUMPI JUMPDEST POP POP POP DUP2 SHL ADD PUSH1 0x8 SSTORE DUP1 RETURN JUMPDEST ADD MLOAD PUSH1 0x0 NOT PUSH1 0xF8 DUP5 PUSH1 0x3 SHL AND SHR NOT AND SWAP1 SSTORE CODESIZE DUP1 DUP1 PUSH2 0xC57 JUMP JUMPDEST DUP1 PUSH1 0x1 DUP6 SWAP7 DUP3 SWAP5 SWAP7 DUP7 ADD MLOAD DUP2 SSTORE ADD SWAP6 ADD SWAP4 ADD SWAP1 PUSH2 0xC43 JUMP JUMPDEST PUSH1 0x8 DUP6 MSTORE PUSH32 0xF3F7A9FE364FAAB93B216DA50A3214154F22A0A2B415B23A84C8169E8B636EE3 DUP4 DUP1 DUP7 ADD PUSH1 0x5 SHR DUP3 ADD SWAP3 DUP5 DUP8 LT PUSH2 0xCEA JUMPI JUMPDEST ADD PUSH1 0x5 SHR ADD SWAP1 JUMPDEST DUP2 DUP2 LT PUSH2 0xCDF JUMPI POP PUSH2 0xBBC JUMP JUMPDEST DUP6 DUP2 SSTORE PUSH1 0x1 ADD PUSH2 0xCD2 JUMP JUMPDEST SWAP3 POP DUP2 SWAP3 PUSH2 0xCCB JUMP JUMPDEST PUSH1 0x41 DUP7 SWAP2 PUSH32 0x4E487B7100000000000000000000000000000000000000000000000000000000 DUP4 MSTORE MSTORE REVERT JUMPDEST ADD MLOAD SWAP1 POP CODESIZE DUP1 PUSH2 0xB89 JUMP JUMPDEST PUSH1 0x7 DUP11 MSTORE PUSH32 0xA66CC928B5EDB82AF9BD49922954155AB7B0942694BEA4CE44661D9A8736C688 SWAP3 PUSH32 0xFFFFFFFFFFFFFFFFFFFFFFFFFFFFFFFFFFFFFFFFFFFFFFFFFFFFFFFFFFFFFFE0 AND DUP11 JUMPDEST DUP9 DUP3 DUP3 LT PUSH2 0xDB1 JUMPI POP POP SWAP1 DUP5 PUSH1 0x1 SWAP6 SWAP5 SWAP4 SWAP3 LT PUSH2 0xD98 JUMPI JUMPDEST POP POP POP DUP2 SHL ADD PUSH1 0x7 SSTORE PUSH2 0xB9E JUMP JUMPDEST ADD MLOAD PUSH1 0x0 NOT PUSH1 0xF8 DUP5 PUSH1 0x3 SHL AND SHR NOT AND SWAP1 SSTORE CODESIZE DUP1 DUP1 PUSH2 0xD8A JUMP JUMPDEST PUSH1 0x1 DUP6 SWAP7 DUP3 SWAP4 SWAP7 DUP7 ADD MLOAD DUP2 SSTORE ADD SWAP6 ADD SWAP4 ADD PUSH2 0xD72 JUMP JUMPDEST SWAP1 SWAP2 POP PUSH1 0x7 DUP10 MSTORE PUSH32 0xA66CC928B5EDB82AF9BD49922954155AB7B0942694BEA4CE44661D9A8736C688 DUP8 DUP1 DUP6 ADD PUSH1 0x5 SHR DUP3 ADD SWAP3 DUP9 DUP7 LT PUSH2 0xE29 JUMPI JUMPDEST SWAP1 DUP6 SWAP5 SWAP4 SWAP3 SWAP2 ADD PUSH1 0x5 SHR ADD SWAP1 JUMPDEST DUP2 DUP2 LT PUSH2 0xE1B JUMPI POP PUSH2 0xB75 JUMP JUMPDEST DUP11 DUP2 SSTORE DUP5 SWAP4 POP PUSH1 0x1 ADD PUSH2 0xE0E JUMP JUMPDEST SWAP3 POP DUP2 SWAP3 PUSH2 0xE01 JUMP JUMPDEST POP PUSH1 0x41 DUP7 SWAP2 PUSH32 0x4E487B7100000000000000000000000000000000000000000000000000000000 DUP4 MSTORE MSTORE REVERT JUMPDEST SWAP2 DUP7 DUP5 SWAP2 PUSH2 0xE6A CALLER PUSH2 0x21F2 JUMP JUMPDEST DUP6 MLOAD SWAP2 DUP4 PUSH2 0xE77 DUP5 PUSH2 0x19FD JUMP JUMPDEST PUSH1 0x42 DUP5 MSTORE DUP6 DUP5 ADD SWAP5 PUSH1 0x60 CALLDATASIZE DUP8 CALLDATACOPY DUP5 MLOAD ISZERO PUSH2 0x10A8 JUMPI PUSH1 0x30 DUP7 MSTORE8 DUP5 MLOAD SWAP1 PUSH1 0x1 SWAP2 DUP3 LT ISZERO PUSH2 0x107D JUMPI SWAP1 PUSH1 0x78 PUSH1 0x21 DUP8 ADD MSTORE8 PUSH1 0x41 SWAP2 JUMPDEST DUP2 DUP4 GT PUSH2 0xFD5 JUMPI POP POP POP PUSH2 0xF7A JUMPI POP PUSH2 0xF76 SWAP4 DUP7 SWAP4 PUSH2 0xF48 SWAP4 PUSH2 0xF39 PUSH1 0x48 SWAP5 PUSH2 0xF04 SWAP11 MLOAD SWAP11 DUP6 PUSH32 0x416363657373436F6E74726F6C3A206163636F756E7420000000000000000000 DUP14 SWAP8 DUP9 ADD MSTORE DUP3 MLOAD SWAP3 DUP4 SWAP2 PUSH1 0x37 DUP10 ADD SWAP2 ADD PUSH2 0x1945 JUMP JUMPDEST DUP5 ADD SWAP2 PUSH32 0x206973206D697373696E6720726F6C6520000000000000000000000000000000 PUSH1 0x37 DUP5 ADD MSTORE MLOAD DUP1 SWAP4 DUP7 DUP5 ADD SWAP1 PUSH2 0x1945 JUMP JUMPDEST ADD SUB PUSH1 0x28 DUP2 ADD DUP8 MSTORE ADD DUP6 PUSH2 0x1A48 JUMP JUMPDEST MLOAD SWAP3 DUP4 SWAP3 PUSH32 0x8C379A000000000000000000000000000000000000000000000000000000000 DUP5 MSTORE DUP4 ADD PUSH2 0x1968 JUMP JUMPDEST SUB SWAP1 REVERT JUMPDEST SWAP3 POP POP POP DUP2 PUSH1 0x64 SWAP5 MLOAD SWAP4 PUSH32 0x8C379A000000000000000000000000000000000000000000000000000000000 DUP6 MSTORE DUP5 ADD MSTORE DUP3 ADD MSTORE PUSH32 0x537472696E67733A20686578206C656E67746820696E73756666696369656E74 PUSH1 0x44 DUP3 ADD MSTORE REVERT JUMPDEST SWAP1 SWAP2 SWAP3 PUSH1 0xF DUP2 AND PUSH1 0x10 DUP2 LT ISZERO PUSH2 0x1052 JUMPI PUSH32 0x3031323334353637383961626364656600000000000000000000000000000000 SWAP1 BYTE PUSH2 0x1012 DUP6 DUP10 PUSH2 0x21B2 JUMP JUMPDEST MSTORE8 DUP10 SHR SWAP3 DUP1 ISZERO PUSH2 0x1027 JUMPI PUSH1 0x0 NOT ADD SWAP2 SWAP1 PUSH2 0xEA8 JUMP JUMPDEST DUP5 DUP3 PUSH1 0x11 DUP13 PUSH32 0x4E487B7100000000000000000000000000000000000000000000000000000000 DUP4 MSTORE MSTORE REVERT JUMPDEST DUP6 DUP4 PUSH1 0x32 DUP14 PUSH32 0x4E487B7100000000000000000000000000000000000000000000000000000000 DUP4 MSTORE MSTORE REVERT JUMPDEST DUP1 PUSH1 0x32 DUP11 PUSH32 0x4E487B7100000000000000000000000000000000000000000000000000000000 DUP8 SWAP5 MSTORE MSTORE REVERT JUMPDEST SWAP1 POP PUSH1 0x32 DUP8 PUSH32 0x4E487B7100000000000000000000000000000000000000000000000000000000 DUP4 MSTORE MSTORE REVERT JUMPDEST DUP4 DUP1 REVERT JUMPDEST POP DUP3 CALLVALUE PUSH2 0x7A3 JUMPI PUSH1 0x20 SWAP1 DUP2 PUSH1 0x3 NOT CALLDATASIZE ADD SLT PUSH2 0x10D3 JUMPI DUP3 CALLDATALOAD SWAP3 CALLER ISZERO PUSH2 0x11CE JUMPI CALLER DUP6 MSTORE DUP5 DUP4 MSTORE DUP2 DUP6 KECCAK256 SLOAD SWAP1 DUP5 DUP3 LT PUSH2 0x114C JUMPI POP SWAP2 PUSH32 0xDDF252AD1BE2C89B69C2B068FC378DAA952BA7F163C4A11628F55A4DF523B3EF SWAP2 DUP5 DUP7 SWAP6 SWAP5 CALLER DUP8 MSTORE DUP7 DUP5 MSTORE SUB DUP2 DUP7 KECCAK256 SSTORE DUP4 PUSH1 0x2 SLOAD SUB PUSH1 0x2 SSTORE MLOAD SWAP3 DUP4 MSTORE CALLER SWAP3 LOG3 DUP1 RETURN JUMPDEST PUSH1 0x84 SWAP1 DUP5 DUP5 MLOAD SWAP2 PUSH32 0x8C379A000000000000000000000000000000000000000000000000000000000 DUP4 MSTORE DUP3 ADD MSTORE PUSH1 0x22 PUSH1 0x24 DUP3 ADD MSTORE PUSH32 0x45524332303A206275726E20616D6F756E7420657863656564732062616C616E PUSH1 0x44 DUP3 ADD MSTORE PUSH32 0x6365000000000000000000000000000000000000000000000000000000000000 PUSH1 0x64 DUP3 ADD MSTORE REVERT JUMPDEST DUP3 PUSH1 0x84 SWAP3 MLOAD SWAP2 PUSH32 0x8C379A000000000000000000000000000000000000000000000000000000000 DUP4 MSTORE DUP3 ADD MSTORE PUSH1 0x21 PUSH1 0x24 DUP3 ADD MSTORE PUSH32 0x45524332303A206275726E2066726F6D20746865207A65726F20616464726573 PUSH1 0x44 DUP3 ADD MSTORE PUSH32 0x7300000000000000000000000000000000000000000000000000000000000000 PUSH1 0x64 DUP3 ADD MSTORE REVERT JUMPDEST POP DUP3 SWAP1 CALLVALUE PUSH2 0x7A3 JUMPI DUP2 PUSH1 0x3 NOT CALLDATASIZE ADD SLT PUSH2 0x7A3 JUMPI PUSH2 0x126A PUSH2 0x19B2 JUMP JUMPDEST SWAP1 PUSH1 0x24 SWAP3 DUP4 CALLDATALOAD SWAP2 PUSH32 0x9F2DF0FED2C77648DE5860A4CC508CD0818C85B8B8A1AB4CEEEF8D981C8956A6 SWAP4 DUP5 DUP8 MSTORE PUSH1 0x20 SWAP5 PUSH1 0x5 DUP7 MSTORE DUP4 DUP9 KECCAK256 CALLER DUP10 MSTORE DUP7 MSTORE PUSH1 0xFF DUP5 DUP10 KECCAK256 SLOAD AND ISZERO PUSH2 0x1376 JUMPI POP PUSH20 0xFFFFFFFFFFFFFFFFFFFFFFFFFFFFFFFFFFFFFFFF AND SWAP5 DUP6 ISZERO PUSH2 0x131C JUMPI POP POP SWAP2 DUP2 DUP6 SWAP4 PUSH2 0x1302 PUSH32 0xDDF252AD1BE2C89B69C2B068FC378DAA952BA7F163C4A11628F55A4DF523B3EF SWAP5 PUSH1 0x2 SLOAD PUSH2 0x1DF2 JUMP JUMPDEST PUSH1 0x2 SSTORE DUP6 DUP6 MSTORE DUP5 DUP4 MSTORE DUP1 DUP6 KECCAK256 DUP3 DUP2 SLOAD ADD SWAP1 SSTORE MLOAD SWAP1 DUP2 MSTORE LOG3 DUP1 RETURN JUMPDEST PUSH1 0x1F SWAP1 DUP6 PUSH1 0x64 SWAP5 MLOAD SWAP4 PUSH32 0x8C379A000000000000000000000000000000000000000000000000000000000 DUP6 MSTORE DUP5 ADD MSTORE DUP3 ADD MSTORE PUSH32 0x45524332303A206D696E7420746F20746865207A65726F206164647265737300 PUSH1 0x44 DUP3 ADD MSTORE REVERT JUMPDEST DUP6 SWAP2 POP DUP7 DUP9 SWAP2 PUSH2 0x1385 CALLER PUSH2 0x21F2 JUMP JUMPDEST SWAP1 SWAP2 DUP7 MLOAD SWAP3 PUSH2 0x1393 DUP5 PUSH2 0x19FD JUMP JUMPDEST PUSH1 0x42 DUP5 MSTORE DUP6 DUP5 ADD SWAP5 PUSH1 0x60 CALLDATASIZE DUP8 CALLDATACOPY DUP5 MLOAD ISZERO PUSH2 0x10A8 JUMPI PUSH1 0x30 DUP7 MSTORE8 DUP5 MLOAD SWAP1 PUSH1 0x1 SWAP2 DUP3 LT ISZERO PUSH2 0x107D JUMPI SWAP1 PUSH1 0x78 PUSH1 0x21 DUP8 ADD MSTORE8 PUSH1 0x41 SWAP2 JUMPDEST DUP2 DUP4 GT PUSH2 0x1420 JUMPI POP POP POP PUSH2 0xF7A JUMPI POP PUSH2 0xF76 SWAP4 DUP7 SWAP4 PUSH2 0xF48 SWAP4 PUSH2 0xF39 PUSH1 0x48 SWAP5 PUSH2 0xF04 SWAP11 MLOAD SWAP11 DUP6 PUSH32 0x416363657373436F6E74726F6C3A206163636F756E7420000000000000000000 DUP14 SWAP8 DUP9 ADD MSTORE DUP3 MLOAD SWAP3 DUP4 SWAP2 PUSH1 0x37 DUP10 ADD SWAP2 ADD PUSH2 0x1945 JUMP JUMPDEST SWAP1 SWAP2 SWAP3 PUSH1 0xF DUP2 AND PUSH1 0x10 DUP2 LT ISZERO PUSH2 0x1052 JUMPI PUSH32 0x3031323334353637383961626364656600000000000000000000000000000000 SWAP1 BYTE PUSH2 0x145D DUP6 DUP10 PUSH2 0x21B2 JUMP JUMPDEST MSTORE8 DUP10 SHR SWAP3 DUP1 ISZERO PUSH2 0x1027 JUMPI PUSH1 0x0 NOT ADD SWAP2 SWAP1 PUSH2 0x13C4 JUMP JUMPDEST DUP3 DUP5 CALLVALUE PUSH2 0x70B JUMPI DUP1 PUSH1 0x3 NOT CALLDATASIZE ADD SLT PUSH2 0x70B JUMPI PUSH2 0x7FA PUSH1 0x20 SWAP3 PUSH2 0x14C7 PUSH2 0x1495 PUSH2 0x19B2 JUMP JUMPDEST SWAP2 CALLER DUP2 MSTORE PUSH1 0x1 DUP7 MSTORE DUP5 DUP2 KECCAK256 PUSH20 0xFFFFFFFFFFFFFFFFFFFFFFFFFFFFFFFFFFFFFFFF DUP5 AND DUP3 MSTORE DUP7 MSTORE DUP5 PUSH1 0x24 CALLDATALOAD SWAP2 KECCAK256 SLOAD PUSH2 0x1DF2 JUMP JUMPDEST SWAP1 CALLER PUSH2 0x203D JUMP JUMPDEST POP CALLVALUE PUSH2 0x70B JUMPI DUP3 PUSH1 0x3 NOT CALLDATASIZE ADD SLT PUSH2 0x70B JUMPI PUSH2 0x14E7 PUSH2 0x19DA JUMP JUMPDEST SWAP1 CALLER PUSH20 0xFFFFFFFFFFFFFFFFFFFFFFFFFFFFFFFFFFFFFFFF DUP4 AND SUB PUSH2 0x1510 JUMPI SWAP1 PUSH2 0x7A0 SWAP2 CALLDATALOAD PUSH2 0x1D3D JUMP JUMPDEST PUSH1 0x84 SWAP1 PUSH1 0x20 DUP6 MLOAD SWAP2 PUSH32 0x8C379A000000000000000000000000000000000000000000000000000000000 DUP4 MSTORE DUP3 ADD MSTORE PUSH1 0x2F PUSH1 0x24 DUP3 ADD MSTORE PUSH32 0x416363657373436F6E74726F6C3A2063616E206F6E6C792072656E6F756E6365 PUSH1 0x44 DUP3 ADD MSTORE PUSH32 0x20726F6C657320666F722073656C660000000000000000000000000000000000 PUSH1 0x64 DUP3 ADD MSTORE REVERT JUMPDEST DUP3 DUP5 CALLVALUE PUSH2 0x70B JUMPI DUP2 PUSH1 0x3 NOT CALLDATASIZE ADD SLT PUSH2 0x70B JUMPI PUSH1 0x20 SWAP1 PUSH1 0xFF PUSH1 0x9 SLOAD AND SWAP1 MLOAD SWAP1 DUP2 MSTORE RETURN JUMPDEST POP DUP3 CALLVALUE PUSH2 0x7A3 JUMPI DUP1 PUSH1 0x3 NOT CALLDATASIZE ADD SLT PUSH2 0x7A3 JUMPI PUSH2 0x162F SWAP2 CALLDATALOAD SWAP1 PUSH1 0x6 PUSH2 0x15D7 PUSH2 0x19DA JUMP JUMPDEST SWAP3 DUP1 DUP7 MSTORE PUSH1 0x20 SWAP1 PUSH1 0x5 DUP3 MSTORE PUSH2 0x15F1 PUSH1 0x1 DUP6 DUP10 KECCAK256 ADD SLOAD PUSH2 0x1AFE JUMP JUMPDEST DUP1 DUP8 MSTORE PUSH1 0x5 DUP3 MSTORE PUSH20 0xFFFFFFFFFFFFFFFFFFFFFFFFFFFFFFFFFFFFFFFF DUP5 DUP9 KECCAK256 SWAP6 AND SWAP5 DUP6 DUP9 MSTORE DUP3 MSTORE PUSH1 0xFF DUP5 DUP9 KECCAK256 SLOAD AND ISZERO PUSH2 0x1633 JUMPI JUMPDEST DUP7 MSTORE MSTORE DUP4 KECCAK256 PUSH2 0x2372 JUMP JUMPDEST POP DUP1 RETURN JUMPDEST DUP1 DUP8 MSTORE PUSH1 0x5 DUP3 MSTORE DUP4 DUP8 KECCAK256 DUP6 DUP9 MSTORE DUP3 MSTORE DUP4 DUP8 KECCAK256 PUSH1 0x1 PUSH32 0xFFFFFFFFFFFFFFFFFFFFFFFFFFFFFFFFFFFFFFFFFFFFFFFFFFFFFFFFFFFFFF00 DUP3 SLOAD AND OR SWAP1 SSTORE CALLER DUP6 DUP3 PUSH32 0x2F8788117E7EFF1D82E926EC794901D17C78024A50270940304540A733656F0D DUP11 DUP1 LOG4 PUSH2 0x1625 JUMP JUMPDEST POP DUP3 SWAP1 CALLVALUE PUSH2 0x7A3 JUMPI PUSH1 0x20 PUSH1 0x3 NOT CALLDATASIZE ADD SLT PUSH2 0x7A3 JUMPI DUP2 PUSH1 0x20 SWAP4 PUSH1 0x1 SWAP3 CALLDATALOAD DUP2 MSTORE PUSH1 0x5 DUP6 MSTORE KECCAK256 ADD SLOAD SWAP1 MLOAD SWAP1 DUP2 MSTORE RETURN JUMPDEST POP CALLVALUE PUSH2 0x70B JUMPI PUSH1 0x60 PUSH1 0x3 NOT CALLDATASIZE ADD SLT PUSH2 0x70B JUMPI PUSH2 0x16E0 PUSH2 0x19B2 JUMP JUMPDEST PUSH2 0x16E8 PUSH2 0x19DA JUMP JUMPDEST SWAP2 DUP5 PUSH1 0x44 CALLDATALOAD SWAP5 PUSH20 0xFFFFFFFFFFFFFFFFFFFFFFFFFFFFFFFFFFFFFFFF DUP5 AND DUP2 MSTORE PUSH1 0x1 PUSH1 0x20 MSTORE DUP2 DUP2 KECCAK256 CALLER DUP3 MSTORE PUSH1 0x20 MSTORE KECCAK256 SLOAD SWAP1 PUSH1 0x0 NOT DUP3 SUB PUSH2 0x1730 JUMPI JUMPDEST PUSH1 0x20 DUP7 PUSH2 0x7FA DUP8 DUP8 DUP8 PUSH2 0x1E2E JUMP JUMPDEST DUP5 DUP3 LT PUSH2 0x1759 JUMPI POP SWAP2 DUP4 SWAP2 PUSH2 0x174E PUSH1 0x20 SWAP7 SWAP6 PUSH2 0x7FA SWAP6 SUB CALLER DUP4 PUSH2 0x203D JUMP JUMPDEST SWAP2 SWAP4 SWAP5 DUP2 SWAP4 POP PUSH2 0x1722 JUMP JUMPDEST PUSH1 0x64 SWAP1 PUSH1 0x20 DUP8 MLOAD SWAP2 PUSH32 0x8C379A000000000000000000000000000000000000000000000000000000000 DUP4 MSTORE DUP3 ADD MSTORE PUSH1 0x1D PUSH1 0x24 DUP3 ADD MSTORE PUSH32 0x45524332303A20696E73756666696369656E7420616C6C6F77616E6365000000 PUSH1 0x44 DUP3 ADD MSTORE REVERT JUMPDEST DUP3 DUP5 CALLVALUE PUSH2 0x70B JUMPI DUP2 PUSH1 0x3 NOT CALLDATASIZE ADD SLT PUSH2 0x70B JUMPI PUSH1 0x20 SWAP1 PUSH1 0x2 SLOAD SWAP1 MLOAD SWAP1 DUP2 MSTORE RETURN JUMPDEST DUP3 DUP5 CALLVALUE PUSH2 0x70B JUMPI DUP1 PUSH1 0x3 NOT CALLDATASIZE ADD SLT PUSH2 0x70B JUMPI PUSH1 0x20 SWAP1 PUSH2 0x7FA PUSH2 0x17F5 PUSH2 0x19B2 JUMP JUMPDEST PUSH1 0x24 CALLDATALOAD SWAP1 CALLER PUSH2 0x203D JUMP JUMPDEST DUP3 DUP5 CALLVALUE PUSH2 0x70B JUMPI DUP2 PUSH1 0x3 NOT CALLDATASIZE ADD SLT PUSH2 0x70B JUMPI DUP1 MLOAD SWAP1 DUP3 PUSH1 0x7 SLOAD PUSH2 0x1821 DUP2 PUSH2 0x2550 JUMP JUMPDEST DUP1 DUP6 MSTORE SWAP2 PUSH1 0x1 SWAP2 DUP1 DUP4 AND SWAP1 DUP2 ISZERO PUSH2 0x9BC JUMPI POP PUSH1 0x1 EQ PUSH2 0x184C JUMPI POP POP POP PUSH2 0x951 DUP3 PUSH2 0x95B SWAP5 SUB DUP4 PUSH2 0x1A48 JUMP JUMPDEST SWAP5 POP PUSH1 0x7 DUP6 MSTORE PUSH32 0xA66CC928B5EDB82AF9BD49922954155AB7B0942694BEA4CE44661D9A8736C688 JUMPDEST DUP3 DUP7 LT PUSH2 0x1891 JUMPI POP POP POP PUSH2 0x951 DUP3 PUSH1 0x20 PUSH2 0x95B SWAP6 DUP3 ADD ADD SWAP5 PUSH2 0x93F JUMP JUMPDEST DUP1 SLOAD PUSH1 0x20 DUP8 DUP8 ADD DUP2 ADD SWAP2 SWAP1 SWAP2 MSTORE SWAP1 SWAP6 ADD SWAP5 DUP2 ADD PUSH2 0x1874 JUMP JUMPDEST SWAP2 SWAP1 POP CALLVALUE PUSH2 0x7A3 JUMPI PUSH1 0x20 PUSH1 0x3 NOT CALLDATASIZE ADD SLT PUSH2 0x7A3 JUMPI CALLDATALOAD PUSH32 0xFFFFFFFF00000000000000000000000000000000000000000000000000000000 DUP2 AND DUP1 DUP3 SUB PUSH2 0x10D3 JUMPI PUSH1 0x20 SWAP4 POP PUSH32 0x1A856D0C00000000000000000000000000000000000000000000000000000000 EQ SWAP1 DUP2 ISZERO PUSH2 0x1934 JUMPI JUMPDEST DUP2 ISZERO PUSH2 0x1924 JUMPI JUMPDEST POP ISZERO ISZERO DUP2 MSTORE RETURN JUMPDEST PUSH2 0x192E SWAP2 POP PUSH2 0x25A3 JUMP JUMPDEST DUP4 PUSH2 0x191D JUMP JUMPDEST SWAP1 POP PUSH2 0x193F DUP2 PUSH2 0x25A3 JUMP JUMPDEST SWAP1 PUSH2 0x1916 JUMP JUMPDEST PUSH1 0x0 JUMPDEST DUP4 DUP2 LT PUSH2 0x1958 JUMPI POP POP PUSH1 0x0 SWAP2 ADD MSTORE JUMP JUMPDEST DUP2 DUP2 ADD MLOAD DUP4 DUP3 ADD MSTORE PUSH1 0x20 ADD PUSH2 0x1948 JUMP JUMPDEST PUSH32 0xFFFFFFFFFFFFFFFFFFFFFFFFFFFFFFFFFFFFFFFFFFFFFFFFFFFFFFFFFFFFFFE0 PUSH1 0x1F PUSH1 0x40 SWAP4 PUSH1 0x20 DUP5 MSTORE PUSH2 0x19AB DUP2 MLOAD DUP1 SWAP3 DUP2 PUSH1 0x20 DUP9 ADD MSTORE PUSH1 0x20 DUP9 DUP9 ADD SWAP2 ADD PUSH2 0x1945 JUMP JUMPDEST ADD AND ADD ADD SWAP1 JUMP JUMPDEST PUSH1 0x4 CALLDATALOAD SWAP1 PUSH20 0xFFFFFFFFFFFFFFFFFFFFFFFFFFFFFFFFFFFFFFFF DUP3 AND DUP3 SUB PUSH2 0x19D5 JUMPI JUMP JUMPDEST PUSH1 0x0 DUP1 REVERT JUMPDEST PUSH1 0x24 CALLDATALOAD SWAP1 PUSH20 0xFFFFFFFFFFFFFFFFFFFFFFFFFFFFFFFFFFFFFFFF DUP3 AND DUP3 SUB PUSH2 0x19D5 JUMPI JUMP JUMPDEST PUSH1 0x80 DUP2 ADD SWAP1 DUP2 LT PUSH8 0xFFFFFFFFFFFFFFFF DUP3 GT OR PUSH2 0x1A19 JUMPI PUSH1 0x40 MSTORE JUMP JUMPDEST PUSH32 0x4E487B7100000000000000000000000000000000000000000000000000000000 PUSH1 0x0 MSTORE PUSH1 0x41 PUSH1 0x4 MSTORE PUSH1 0x24 PUSH1 0x0 REVERT JUMPDEST SWAP1 PUSH1 0x1F PUSH32 0xFFFFFFFFFFFFFFFFFFFFFFFFFFFFFFFFFFFFFFFFFFFFFFFFFFFFFFFFFFFFFFE0 SWAP2 ADD AND DUP2 ADD SWAP1 DUP2 LT PUSH8 0xFFFFFFFFFFFFFFFF DUP3 GT OR PUSH2 0x1A19 JUMPI PUSH1 0x40 MSTORE JUMP JUMPDEST DUP2 PUSH1 0x1F DUP3 ADD SLT ISZERO PUSH2 0x19D5 JUMPI DUP1 CALLDATALOAD SWAP1 PUSH8 0xFFFFFFFFFFFFFFFF DUP3 GT PUSH2 0x1A19 JUMPI PUSH1 0x40 MLOAD SWAP3 PUSH2 0x1ADC PUSH1 0x20 PUSH32 0xFFFFFFFFFFFFFFFFFFFFFFFFFFFFFFFFFFFFFFFFFFFFFFFFFFFFFFFFFFFFFFE0 PUSH1 0x1F DUP7 ADD AND ADD DUP6 PUSH2 0x1A48 JUMP JUMPDEST DUP3 DUP5 MSTORE PUSH1 0x20 DUP4 DUP4 ADD ADD GT PUSH2 0x19D5 JUMPI DUP2 PUSH1 0x0 SWAP3 PUSH1 0x20 DUP1 SWAP4 ADD DUP4 DUP7 ADD CALLDATACOPY DUP4 ADD ADD MSTORE SWAP1 JUMP JUMPDEST PUSH1 0x0 DUP2 DUP2 MSTORE PUSH1 0x20 SWAP1 PUSH1 0x5 DUP3 MSTORE PUSH1 0x40 SWAP3 DUP4 DUP3 KECCAK256 CALLER DUP4 MSTORE DUP4 MSTORE PUSH1 0xFF DUP5 DUP4 KECCAK256 SLOAD AND ISZERO PUSH2 0x1B27 JUMPI POP POP POP POP JUMP JUMPDEST PUSH2 0x1B30 CALLER PUSH2 0x21F2 JUMP JUMPDEST DUP5 MLOAD SWAP2 PUSH2 0x1B3C DUP4 PUSH2 0x19FD JUMP JUMPDEST PUSH1 0x42 DUP4 MSTORE DUP5 DUP4 ADD SWAP4 PUSH1 0x60 CALLDATASIZE DUP7 CALLDATACOPY DUP4 MLOAD ISZERO PUSH2 0x1D10 JUMPI PUSH1 0x30 DUP6 MSTORE8 DUP4 MLOAD SWAP1 PUSH1 0x1 SWAP2 DUP3 LT ISZERO PUSH2 0x1D10 JUMPI SWAP1 PUSH1 0x78 PUSH1 0x21 DUP7 ADD MSTORE8 PUSH1 0x41 SWAP2 JUMPDEST DUP2 DUP4 GT PUSH2 0x1C63 JUMPI POP POP POP PUSH2 0x1C07 JUMPI PUSH2 0xF04 SWAP4 DUP6 SWAP4 PUSH2 0x1BD7 SWAP4 PUSH2 0x1BC8 PUSH1 0x48 SWAP5 PUSH2 0xF76 SWAP10 MLOAD SWAP9 DUP6 PUSH32 0x416363657373436F6E74726F6C3A206163636F756E7420000000000000000000 DUP12 SWAP8 DUP9 ADD MSTORE DUP3 MLOAD SWAP3 DUP4 SWAP2 PUSH1 0x37 DUP10 ADD SWAP2 ADD PUSH2 0x1945 JUMP JUMPDEST ADD SUB PUSH1 0x28 DUP2 ADD DUP6 MSTORE ADD DUP4 PUSH2 0x1A48 JUMP JUMPDEST MLOAD SWAP2 DUP3 SWAP2 PUSH32 0x8C379A000000000000000000000000000000000000000000000000000000000 DUP4 MSTORE PUSH1 0x4 DUP4 ADD PUSH2 0x1968 JUMP JUMPDEST PUSH1 0x64 DUP5 DUP7 MLOAD SWAP1 PUSH32 0x8C379A000000000000000000000000000000000000000000000000000000000 DUP3 MSTORE DUP1 PUSH1 0x4 DUP4 ADD MSTORE PUSH1 0x24 DUP3 ADD MSTORE PUSH32 0x537472696E67733A20686578206C656E67746820696E73756666696369656E74 PUSH1 0x44 DUP3 ADD MSTORE REVERT JUMPDEST SWAP1 SWAP2 SWAP3 PUSH1 0xF DUP2 AND PUSH1 0x10 DUP2 LT ISZERO PUSH2 0x1CE3 JUMPI PUSH32 0x3031323334353637383961626364656600000000000000000000000000000000 SWAP1 BYTE PUSH2 0x1CA0 DUP6 DUP9 PUSH2 0x21B2 JUMP JUMPDEST MSTORE8 PUSH1 0x4 SHR SWAP3 DUP1 ISZERO PUSH2 0x1CB6 JUMPI PUSH1 0x0 NOT ADD SWAP2 SWAP1 PUSH2 0x1B6D JUMP JUMPDEST PUSH1 0x24 DUP3 PUSH32 0x4E487B7100000000000000000000000000000000000000000000000000000000 DUP2 MSTORE PUSH1 0x11 PUSH1 0x4 MSTORE REVERT JUMPDEST PUSH1 0x24 DUP4 PUSH32 0x4E487B7100000000000000000000000000000000000000000000000000000000 DUP2 MSTORE PUSH1 0x32 PUSH1 0x4 MSTORE REVERT JUMPDEST DUP1 PUSH32 0x4E487B7100000000000000000000000000000000000000000000000000000000 PUSH1 0x24 SWAP3 MSTORE PUSH1 0x32 PUSH1 0x4 MSTORE REVERT JUMPDEST SWAP1 PUSH1 0x40 PUSH2 0x1D89 SWAP3 PUSH1 0x0 SWAP1 DUP1 DUP3 MSTORE PUSH1 0x5 PUSH1 0x20 MSTORE PUSH20 0xFFFFFFFFFFFFFFFFFFFFFFFFFFFFFFFFFFFFFFFF DUP4 DUP4 KECCAK256 SWAP5 AND SWAP4 DUP5 DUP4 MSTORE PUSH1 0x20 MSTORE PUSH1 0xFF DUP4 DUP4 KECCAK256 SLOAD AND PUSH2 0x1D8C JUMPI JUMPDEST DUP2 MSTORE PUSH1 0x6 PUSH1 0x20 MSTORE KECCAK256 PUSH2 0x2415 JUMP JUMPDEST POP JUMP JUMPDEST DUP1 DUP3 MSTORE PUSH1 0x5 PUSH1 0x20 MSTORE DUP3 DUP3 KECCAK256 DUP5 DUP4 MSTORE PUSH1 0x20 MSTORE DUP3 DUP3 KECCAK256 PUSH32 0xFFFFFFFFFFFFFFFFFFFFFFFFFFFFFFFFFFFFFFFFFFFFFFFFFFFFFFFFFFFFFF00 DUP2 SLOAD AND SWAP1 SSTORE CALLER DUP5 DUP3 PUSH32 0xF6391F5C32D9C69D2A47EA670B442974B53935D1EDC7FD64EB21E047A839171B DUP6 DUP1 LOG4 PUSH2 0x1D7C JUMP JUMPDEST SWAP2 SWAP1 DUP3 ADD DUP1 SWAP3 GT PUSH2 0x1DFF JUMPI JUMP JUMPDEST PUSH32 0x4E487B7100000000000000000000000000000000000000000000000000000000 PUSH1 0x0 MSTORE PUSH1 0x11 PUSH1 0x4 MSTORE PUSH1 0x24 PUSH1 0x0 REVERT JUMPDEST PUSH20 0xFFFFFFFFFFFFFFFFFFFFFFFFFFFFFFFFFFFFFFFF DUP1 SWAP2 AND SWAP2 DUP3 ISZERO PUSH2 0x1FB9 JUMPI AND SWAP2 DUP3 ISZERO PUSH2 0x1F35 JUMPI PUSH1 0x0 DUP3 DUP2 MSTORE DUP1 PUSH1 0x20 MSTORE PUSH1 0x40 DUP2 KECCAK256 SLOAD SWAP2 DUP1 DUP4 LT PUSH2 0x1EB1 JUMPI PUSH1 0x40 DUP3 DUP3 PUSH32 0xDDF252AD1BE2C89B69C2B068FC378DAA952BA7F163C4A11628F55A4DF523B3EF SWAP6 DUP8 PUSH1 0x20 SWAP7 MSTORE DUP3 DUP7 MSTORE SUB DUP3 DUP3 KECCAK256 SSTORE DUP7 DUP2 MSTORE KECCAK256 DUP2 DUP2 SLOAD ADD SWAP1 SSTORE PUSH1 0x40 MLOAD SWAP1 DUP2 MSTORE LOG3 JUMP JUMPDEST PUSH1 0x84 PUSH1 0x40 MLOAD PUSH32 0x8C379A000000000000000000000000000000000000000000000000000000000 DUP2 MSTORE PUSH1 0x20 PUSH1 0x4 DUP3 ADD MSTORE PUSH1 0x26 PUSH1 0x24 DUP3 ADD MSTORE PUSH32 0x45524332303A207472616E7366657220616D6F756E7420657863656564732062 PUSH1 0x44 DUP3 ADD MSTORE PUSH32 0x616C616E63650000000000000000000000000000000000000000000000000000 PUSH1 0x64 DUP3 ADD MSTORE REVERT JUMPDEST PUSH1 0x84 PUSH1 0x40 MLOAD PUSH32 0x8C379A000000000000000000000000000000000000000000000000000000000 DUP2 MSTORE PUSH1 0x20 PUSH1 0x4 DUP3 ADD MSTORE PUSH1 0x23 PUSH1 0x24 DUP3 ADD MSTORE PUSH32 0x45524332303A207472616E7366657220746F20746865207A65726F2061646472 PUSH1 0x44 DUP3 ADD MSTORE PUSH32 0x6573730000000000000000000000000000000000000000000000000000000000 PUSH1 0x64 DUP3 ADD MSTORE REVERT JUMPDEST PUSH1 0x84 PUSH1 0x40 MLOAD PUSH32 0x8C379A000000000000000000000000000000000000000000000000000000000 DUP2 MSTORE PUSH1 0x20 PUSH1 0x4 DUP3 ADD MSTORE PUSH1 0x25 PUSH1 0x24 DUP3 ADD MSTORE PUSH32 0x45524332303A207472616E736665722066726F6D20746865207A65726F206164 PUSH1 0x44 DUP3 ADD MSTORE PUSH32 0x6472657373000000000000000000000000000000000000000000000000000000 PUSH1 0x64 DUP3 ADD MSTORE REVERT JUMPDEST PUSH20 0xFFFFFFFFFFFFFFFFFFFFFFFFFFFFFFFFFFFFFFFF DUP1 SWAP2 AND SWAP2 DUP3 ISZERO PUSH2 0x212F JUMPI AND SWAP2 DUP3 ISZERO PUSH2 0x20AB JUMPI PUSH1 0x20 PUSH32 0x8C5BE1E5EBEC7D5BD14F71427D1E84F3DD0314C0F7B2291E5B200AC8C7C3B925 SWAP2 DUP4 PUSH1 0x0 MSTORE PUSH1 0x1 DUP3 MSTORE PUSH1 0x40 PUSH1 0x0 KECCAK256 DUP6 PUSH1 0x0 MSTORE DUP3 MSTORE DUP1 PUSH1 0x40 PUSH1 0x0 KECCAK256 SSTORE PUSH1 0x40 MLOAD SWAP1 DUP2 MSTORE LOG3 JUMP JUMPDEST PUSH1 0x84 PUSH1 0x40 MLOAD PUSH32 0x8C379A000000000000000000000000000000000000000000000000000000000 DUP2 MSTORE PUSH1 0x20 PUSH1 0x4 DUP3 ADD MSTORE PUSH1 0x22 PUSH1 0x24 DUP3 ADD MSTORE PUSH32 0x45524332303A20617070726F766520746F20746865207A65726F206164647265 PUSH1 0x44 DUP3 ADD MSTORE PUSH32 0x7373000000000000000000000000000000000000000000000000000000000000 PUSH1 0x64 DUP3 ADD MSTORE REVERT JUMPDEST PUSH1 0x84 PUSH1 0x40 MLOAD PUSH32 0x8C379A000000000000000000000000000000000000000000000000000000000 DUP2 MSTORE PUSH1 0x20 PUSH1 0x4 DUP3 ADD MSTORE PUSH1 0x24 DUP1 DUP3 ADD MSTORE PUSH32 0x45524332303A20617070726F76652066726F6D20746865207A65726F20616464 PUSH1 0x44 DUP3 ADD MSTORE PUSH32 0x7265737300000000000000000000000000000000000000000000000000000000 PUSH1 0x64 DUP3 ADD MSTORE REVERT JUMPDEST SWAP1 DUP2 MLOAD DUP2 LT ISZERO PUSH2 0x21C3 JUMPI ADD PUSH1 0x20 ADD SWAP1 JUMP JUMPDEST PUSH32 0x4E487B7100000000000000000000000000000000000000000000000000000000 PUSH1 0x0 MSTORE PUSH1 0x32 PUSH1 0x4 MSTORE PUSH1 0x24 PUSH1 0x0 REVERT JUMPDEST PUSH1 0x40 MLOAD SWAP1 PUSH1 0x60 DUP3 ADD DUP3 DUP2 LT PUSH8 0xFFFFFFFFFFFFFFFF DUP3 GT OR PUSH2 0x1A19 JUMPI PUSH1 0x40 MSTORE PUSH1 0x2A DUP3 MSTORE PUSH1 0x20 DUP3 ADD PUSH1 0x40 CALLDATASIZE DUP3 CALLDATACOPY DUP3 MLOAD ISZERO PUSH2 0x21C3 JUMPI PUSH1 0x30 SWAP1 MSTORE8 DUP2 MLOAD PUSH1 0x1 SWAP1 DUP2 LT ISZERO PUSH2 0x21C3 JUMPI PUSH1 0x78 PUSH1 0x21 DUP5 ADD MSTORE8 PUSH1 0x29 SWAP1 JUMPDEST DUP1 DUP3 GT PUSH2 0x22AD JUMPI POP POP PUSH2 0x224F JUMPI SWAP1 JUMP JUMPDEST PUSH1 0x64 PUSH1 0x40 MLOAD PUSH32 0x8C379A000000000000000000000000000000000000000000000000000000000 DUP2 MSTORE PUSH1 0x20 PUSH1 0x4 DUP3 ADD MSTORE PUSH1 0x20 PUSH1 0x24 DUP3 ADD MSTORE PUSH32 0x537472696E67733A20686578206C656E67746820696E73756666696369656E74 PUSH1 0x44 DUP3 ADD MSTORE REVERT JUMPDEST SWAP1 SWAP2 PUSH1 0xF DUP2 AND PUSH1 0x10 DUP2 LT ISZERO PUSH2 0x232C JUMPI PUSH32 0x3031323334353637383961626364656600000000000000000000000000000000 SWAP1 BYTE PUSH2 0x22E9 DUP5 DUP7 PUSH2 0x21B2 JUMP JUMPDEST MSTORE8 PUSH1 0x4 SHR SWAP2 DUP1 ISZERO PUSH2 0x22FE JUMPI PUSH1 0x0 NOT ADD SWAP1 PUSH2 0x223F JUMP JUMPDEST PUSH1 0x24 PUSH1 0x0 PUSH32 0x4E487B7100000000000000000000000000000000000000000000000000000000 DUP2 MSTORE PUSH1 0x11 PUSH1 0x4 MSTORE REVERT JUMPDEST PUSH1 0x24 PUSH1 0x0 PUSH32 0x4E487B7100000000000000000000000000000000000000000000000000000000 DUP2 MSTORE PUSH1 0x32 PUSH1 0x4 MSTORE REVERT JUMPDEST DUP1 SLOAD DUP3 LT ISZERO PUSH2 0x21C3 JUMPI PUSH1 0x0 MSTORE PUSH1 0x20 PUSH1 0x0 KECCAK256 ADD SWAP1 PUSH1 0x0 SWAP1 JUMP JUMPDEST SWAP2 SWAP1 PUSH1 0x1 DUP4 ADD PUSH1 0x0 SWAP1 DUP3 DUP3 MSTORE DUP1 PUSH1 0x20 MSTORE PUSH1 0x40 DUP3 KECCAK256 SLOAD ISZERO PUSH1 0x0 EQ PUSH2 0x240F JUMPI DUP5 SLOAD SWAP5 PUSH9 0x10000000000000000 DUP7 LT ISZERO PUSH2 0x23E2 JUMPI DUP4 PUSH2 0x23D2 PUSH2 0x23BB DUP9 PUSH1 0x1 PUSH1 0x40 SWAP9 SWAP10 SWAP11 ADD DUP6 SSTORE DUP5 PUSH2 0x235A JUMP JUMPDEST DUP2 SWAP4 SWAP2 SLOAD SWAP1 PUSH1 0x0 NOT SWAP1 PUSH1 0x3 SHL SWAP3 DUP4 SHL SWAP3 SHL NOT AND OR SWAP1 JUMP JUMPDEST SWAP1 SSTORE SLOAD SWAP4 DUP3 MSTORE PUSH1 0x20 MSTORE KECCAK256 SSTORE PUSH1 0x1 SWAP1 JUMP JUMPDEST PUSH1 0x24 DUP4 PUSH32 0x4E487B7100000000000000000000000000000000000000000000000000000000 DUP2 MSTORE PUSH1 0x41 PUSH1 0x4 MSTORE REVERT JUMPDEST POP SWAP3 POP POP JUMP JUMPDEST SWAP1 PUSH1 0x1 DUP3 ADD SWAP1 PUSH1 0x0 SWAP3 DUP2 DUP5 MSTORE DUP3 PUSH1 0x20 MSTORE PUSH1 0x40 DUP5 KECCAK256 SLOAD SWAP1 DUP2 ISZERO ISZERO PUSH1 0x0 EQ PUSH2 0x2549 JUMPI PUSH1 0x0 NOT SWAP2 DUP3 DUP2 ADD DUP2 DUP2 GT PUSH2 0x251C JUMPI DUP3 SLOAD SWAP1 DUP5 DUP3 ADD SWAP2 DUP3 GT PUSH2 0x24EF JUMPI DUP1 DUP3 SUB PUSH2 0x24BA JUMPI JUMPDEST POP POP POP DUP1 SLOAD DUP1 ISZERO PUSH2 0x248D JUMPI DUP3 ADD SWAP2 PUSH2 0x2470 DUP4 DUP4 PUSH2 0x235A JUMP JUMPDEST SWAP1 SWAP2 DUP3 SLOAD SWAP2 PUSH1 0x3 SHL SHL NOT AND SWAP1 SSTORE SSTORE DUP3 MSTORE PUSH1 0x20 MSTORE PUSH1 0x40 DUP2 KECCAK256 SSTORE PUSH1 0x1 SWAP1 JUMP JUMPDEST PUSH1 0x24 DUP7 PUSH32 0x4E487B7100000000000000000000000000000000000000000000000000000000 DUP2 MSTORE PUSH1 0x31 PUSH1 0x4 MSTORE REVERT JUMPDEST PUSH2 0x24DA PUSH2 0x24CA PUSH2 0x23BB SWAP4 DUP7 PUSH2 0x235A JUMP JUMPDEST SWAP1 SLOAD SWAP1 PUSH1 0x3 SHL SHR SWAP3 DUP4 SWAP3 DUP7 PUSH2 0x235A JUMP JUMPDEST SWAP1 SSTORE DUP7 MSTORE DUP5 PUSH1 0x20 MSTORE PUSH1 0x40 DUP7 KECCAK256 SSTORE CODESIZE DUP1 DUP1 PUSH2 0x2458 JUMP JUMPDEST PUSH1 0x24 DUP9 PUSH32 0x4E487B7100000000000000000000000000000000000000000000000000000000 DUP2 MSTORE PUSH1 0x11 PUSH1 0x4 MSTORE REVERT JUMPDEST PUSH1 0x24 DUP8 PUSH32 0x4E487B7100000000000000000000000000000000000000000000000000000000 DUP2 MSTORE PUSH1 0x11 PUSH1 0x4 MSTORE REVERT JUMPDEST POP POP POP POP SWAP1 JUMP JUMPDEST SWAP1 PUSH1 0x1 DUP3 DUP2 SHR SWAP3 AND DUP1 ISZERO PUSH2 0x2599 JUMPI JUMPDEST PUSH1 0x20 DUP4 LT EQ PUSH2 0x256A JUMPI JUMP JUMPDEST PUSH32 0x4E487B7100000000000000000000000000000000000000000000000000000000 PUSH1 0x0 MSTORE PUSH1 0x22 PUSH1 0x4 MSTORE PUSH1 0x24 PUSH1 0x0 REVERT JUMPDEST SWAP2 PUSH1 0x7F AND SWAP2 PUSH2 0x255F JUMP JUMPDEST PUSH32 0xFFFFFFFF00000000000000000000000000000000000000000000000000000000 DUP2 AND SWAP1 PUSH32 0x36372B0700000000000000000000000000000000000000000000000000000000 DUP3 EQ SWAP2 DUP3 ISZERO PUSH2 0x2622 JUMPI JUMPDEST POP DUP2 ISZERO PUSH2 0x2611 JUMPI JUMPDEST DUP2 ISZERO PUSH2 0x2604 JUMPI POP SWAP1 JUMP JUMPDEST PUSH2 0x260E SWAP2 POP PUSH2 0x264C JUMP JUMPDEST SWAP1 JUMP JUMPDEST SWAP1 POP PUSH2 0x261C DUP2 PUSH2 0x264C JUMP JUMPDEST SWAP1 PUSH2 0x25FA JUMP JUMPDEST PUSH32 0xA219A02500000000000000000000000000000000000000000000000000000000 EQ SWAP2 POP CODESIZE PUSH2 0x25F2 JUMP JUMPDEST PUSH32 0xFFFFFFFF00000000000000000000000000000000000000000000000000000000 AND PUSH32 0x5A05180F00000000000000000000000000000000000000000000000000000000 DUP2 EQ SWAP1 DUP2 ISZERO PUSH2 0x269C JUMPI POP SWAP1 JUMP JUMPDEST PUSH32 0x7965DB0B00000000000000000000000000000000000000000000000000000000 DUP2 EQ SWAP2 POP DUP2 ISZERO PUSH2 0x26CB JUMPI POP SWAP1 JUMP JUMPDEST PUSH32 0x1FFC9A700000000000000000000000000000000000000000000000000000000 SWAP2 POP EQ SWAP1 JUMP INVALID LOG2 PUSH5 0x6970667358 0x22 SLT KECCAK256 0xDD 0xBC 0xDB DELEGATECALL EXTCODESIZE SWAP4 EXTCODEHASH PUSH5 0x65E76FC74B 0x27 0xEE ISZERO SSTORE 0xEC SWAP2 0xB3 GT 0x4C 0x49 POP 0xFB AND 0xAC 0xAC 0x4B 0x4E 0x2F 0xDD PUSH5 0x736F6C6343 STOP ADDMOD SGT STOP CALLER "
				}
			},
			"userdoc": {
				"errors": {
					"InvalidInitialization()": [
						{
							"notice": "Invalid initialization error."
						}
					]
				},
				"kind": "user",
				"methods": {
					"burn(uint256)": {
						"notice": "Allows the owner of the token to burn their tokens."
					},
					"decimals()": {
						"notice": "Override the ERC20 decimals function."
					},
					"initialize(address,string,string,uint8)": {
						"notice": "Initialize contract."
					},
					"mint(address,uint256)": {
						"notice": "Mint tokens.This function can only be called by a items."
					},
					"name()": {
						"notice": "Override the ERC20 name function."
					},
					"setNameAndSymbol(string,string)": {
						"notice": "Set name and symbol of token."
					},
					"supportsInterface(bytes4)": {
						"notice": "Check interface support."
					},
					"symbol()": {
						"notice": "Override the ERC20 symbol function."
					}
				},
				"notice": "A ready made implementation of ERC-20 capable of minting when role provided.",
				"version": 1
			}
		}
	}
}