{
	"src/tokens/ERC721/utility/sale/ERC721SaleFactory.sol": {
		"ERC721SaleFactory": {
			"abi": [
				{
					"inputs": [
						{
							"internalType": "address",
							"name": "factoryOwner",
							"type": "address"
						}
					],
					"stateMutability": "nonpayable",
					"type": "constructor"
				},
				{
					"anonymous": false,
					"inputs": [
						{
							"indexed": false,
							"internalType": "address",
							"name": "proxyAddr",
							"type": "address"
						}
					],
					"name": "ERC721SaleDeployed",
					"type": "event"
				},
				{
					"anonymous": false,
					"inputs": [
						{
							"indexed": true,
							"internalType": "address",
							"name": "previousOwner",
							"type": "address"
						},
						{
							"indexed": true,
							"internalType": "address",
							"name": "newOwner",
							"type": "address"
						}
					],
					"name": "OwnershipTransferred",
					"type": "event"
				},
				{
					"inputs": [],
					"name": "beacon",
					"outputs": [
						{
							"internalType": "contract UpgradeableBeacon",
							"name": "",
							"type": "address"
						}
					],
					"stateMutability": "view",
					"type": "function"
				},
				{
					"inputs": [
						{
							"internalType": "address",
							"name": "proxyOwner",
							"type": "address"
						},
						{
							"internalType": "address",
							"name": "tokenOwner",
							"type": "address"
						},
						{
							"internalType": "address",
							"name": "items",
							"type": "address"
						}
					],
					"name": "deploy",
					"outputs": [
						{
							"internalType": "address",
							"name": "proxyAddr",
							"type": "address"
						}
					],
					"stateMutability": "nonpayable",
					"type": "function"
				},
				{
					"inputs": [
						{
							"internalType": "address",
							"name": "proxyOwner",
							"type": "address"
						},
						{
							"internalType": "address",
							"name": "tokenOwner",
							"type": "address"
						},
						{
							"internalType": "address",
							"name": "items",
							"type": "address"
						}
					],
					"name": "determineAddress",
					"outputs": [
						{
							"internalType": "address",
							"name": "proxyAddr",
							"type": "address"
						}
					],
					"stateMutability": "view",
					"type": "function"
				},
				{
					"inputs": [],
					"name": "owner",
					"outputs": [
						{
							"internalType": "address",
							"name": "",
							"type": "address"
						}
					],
					"stateMutability": "view",
					"type": "function"
				},
				{
					"inputs": [],
					"name": "renounceOwnership",
					"outputs": [],
					"stateMutability": "nonpayable",
					"type": "function"
				},
				{
					"inputs": [
						{
							"internalType": "address",
							"name": "newOwner",
							"type": "address"
						}
					],
					"name": "transferOwnership",
					"outputs": [],
					"stateMutability": "nonpayable",
					"type": "function"
				},
				{
					"inputs": [
						{
							"internalType": "address",
							"name": "implementation",
							"type": "address"
						}
					],
					"name": "upgradeBeacon",
					"outputs": [],
					"stateMutability": "nonpayable",
					"type": "function"
				}
			],
			"devdoc": {
				"events": {
					"ERC721SaleDeployed(address)": {
						"params": {
							"proxyAddr": "The address of the deployed proxy."
						}
					}
				},
				"kind": "dev",
				"methods": {
					"constructor": {
						"params": {
							"factoryOwner": "The owner of the ERC-721 Sale Factory"
						}
					},
					"deploy(address,address,address)": {
						"params": {
							"items": "The ERC-721 Items contract address",
							"proxyOwner": "The owner of the ERC-721 Sale proxy",
							"tokenOwner": "The owner of the ERC-721 Sale implementation"
						},
						"returns": {
							"proxyAddr": "The address of the ERC-721 Sale Proxy"
						}
					},
					"determineAddress(address,address,address)": {
						"params": {
							"items": "The ERC-721 Items contract address",
							"proxyOwner": "The owner of the ERC-721 Sale proxy",
							"tokenOwner": "The owner of the ERC-721 Sale implementation"
						},
						"returns": {
							"proxyAddr": "The address of the ERC-721 Sale Proxy"
						}
					},
					"owner()": {
						"details": "Returns the address of the current owner."
					},
					"renounceOwnership()": {
						"details": "Leaves the contract without owner. It will not be possible to call `onlyOwner` functions. Can only be called by the current owner. NOTE: Renouncing ownership will leave the contract without an owner, thereby disabling any functionality that is only available to the owner."
					},
					"transferOwnership(address)": {
						"details": "Transfers ownership of the contract to a new account (`newOwner`). Can only be called by the current owner."
					},
					"upgradeBeacon(address)": {
						"params": {
							"implementation": "The new beacon implementation."
						}
					}
				},
				"version": 1
			},
			"evm": {
				"bytecode": {
					"linkReferences": {},
					"object": "608034610121576001600160401b0390601f61483938819003918201601f191683019291908484118385101761010b57816020928492604096875283398101031261012157516001600160a01b0380821682036101215761005f33610126565b82519361246794858101958187108388111761010b576123d2823980600096039086f0908115610101578451916105ee808401928311848410176100ed5791848492602094611de4853916815203019085f080156100e0576100d39394501660018060a01b03196001541617600155610126565b51611c76908161016e8239f35b50505051903d90823e3d90fd5b634e487b7160e01b88526041600452602488fd5b84513d87823e3d90fd5b634e487b7160e01b600052604160045260246000fd5b600080fd5b600080546001600160a01b039283166001600160a01b03198216811783559216907f8be0079c531659141344cd1fd0a4f28419497f9722a3daafe3b4186f6b6457e09080a356fe6040608081526004908136101561001557600080fd5b600091823560e01c80631bce45831461079057806359659e901461073d578063715018a6146106a05780638da5cb5b1461064b578063d9181cd3146102ee578063e657f693146101aa5763f2fde38b1461006e57600080fd5b346101a65760207ffffffffffffffffffffffffffffffffffffffffffffffffffffffffffffffffc3601126101a6576100a561084f565b906100ae6108bd565b73ffffffffffffffffffffffffffffffffffffffff809216928315610123575050600054827fffffffffffffffffffffffff0000000000000000000000000000000000000000821617600055167f8be0079c531659141344cd1fd0a4f28419497f9722a3daafe3b4186f6b6457e0600080a380f35b90602060849251917f08c379a0000000000000000000000000000000000000000000000000000000008352820152602660248201527f4f776e61626c653a206e6577206f776e657220697320746865207a65726f206160448201527f64647265737300000000000000000000000000000000000000000000000000006064820152fd5b8280fd5b8284346102eb5760607ffffffffffffffffffffffffffffffffffffffffffffffffffffffffffffffffc3601126102eb57506101e461084f565b906101ed610877565b916055600b6101fa61089a565b845173ffffffffffffffffffffffffffffffffffffffff968716602080830191825292909716604080830191909152815290957fffffffffffffffffffffffffffffffffffffffffffffffffffffffffffffffe09161025a60608261099b565b519020906102ab86519161026d8361097f565b6000835273ffffffffffffffffffffffffffffffffffffffff9661029f8860015416948a519586938d850198896109ff565b0390810183528261099b565b5190206111eb85516102bf8883018261099b565b81815287810191610a5683395190209085519186830152868201523081520160ff815320915191168152f35b80fd5b5090346101a65760607ffffffffffffffffffffffffffffffffffffffffffffffffffffffffffffffffc3601126101a65761032761084f565b92610330610877565b61033861089a565b908351946020968787018761037586868490602090939293604083019473ffffffffffffffffffffffffffffffffffffffff809216845216910152565b03976103a77fffffffffffffffffffffffffffffffffffffffffffffffffffffffffffffffe0998a810183528261099b565b5190208651916103b68361097f565b6000835273ffffffffffffffffffffffffffffffffffffffff91816103f98c6103ed878d88600154169051958694850197886109ff565b038c810183528261099b565b5190206111eb895161040d8d83018261099b565b8181528c810191610a5683398051156105f057518492918af516988915610594578260015416938a3b156105905791608491601f8a95946104988f8e51998a9889977fcf7a1d77000000000000000000000000000000000000000000000000000000008952168c880152602487015260606044870152825192839182606489015288880191016109dc565b01168101030181838b5af1801561058657908591610572575b5050853b1561056e5784517f485cc95500000000000000000000000000000000000000000000000000000000815273ffffffffffffffffffffffffffffffffffffffff928316918101918252929091166020820152829082908190604001038183885af1801561056457610550575b50507fe3fc4d8c7984f762222579e0c4564a72a74f96cde3f6bae2751d01108c6ec240838251848152a151908152f35b61055a829161093c565b6102eb5780610520565b83513d84823e3d90fd5b8380fd5b61057b9061093c565b61056e5783386104b1565b86513d87823e3d90fd5b8880fd5b6064858c8b51917f08c379a0000000000000000000000000000000000000000000000000000000008352820152601960248201527f437265617465323a204661696c6564206f6e206465706c6f79000000000000006044820152fd5b6064878e808e51927f08c379a000000000000000000000000000000000000000000000000000000000845283015260248201527f437265617465323a2062797465636f6465206c656e677468206973207a65726f6044820152fd5b50503461069c57817ffffffffffffffffffffffffffffffffffffffffffffffffffffffffffffffffc36011261069c5773ffffffffffffffffffffffffffffffffffffffff60209254169051908152f35b5080fd5b83346102eb57807ffffffffffffffffffffffffffffffffffffffffffffffffffffffffffffffffc3601126102eb576106d76108bd565b600073ffffffffffffffffffffffffffffffffffffffff81547fffffffffffffffffffffffff000000000000000000000000000000000000000081168355167f8be0079c531659141344cd1fd0a4f28419497f9722a3daafe3b4186f6b6457e08280a380f35b50503461069c57817ffffffffffffffffffffffffffffffffffffffffffffffffffffffffffffffffc36011261069c5760209073ffffffffffffffffffffffffffffffffffffffff600154169051908152f35b5090346101a65760207ffffffffffffffffffffffffffffffffffffffffffffffffffffffffffffffffc3601126101a657826107ca61084f565b6107d26108bd565b73ffffffffffffffffffffffffffffffffffffffff90816001541690813b1561056e5783602492865197889586947f3659cfe600000000000000000000000000000000000000000000000000000000865216908401525af1908115610846575061083a575080f35b6108439061093c565b80f35b513d84823e3d90fd5b6004359073ffffffffffffffffffffffffffffffffffffffff8216820361087257565b600080fd5b6024359073ffffffffffffffffffffffffffffffffffffffff8216820361087257565b6044359073ffffffffffffffffffffffffffffffffffffffff8216820361087257565b73ffffffffffffffffffffffffffffffffffffffff6000541633036108de57565b60646040517f08c379a000000000000000000000000000000000000000000000000000000000815260206004820152602060248201527f4f776e61626c653a2063616c6c6572206973206e6f7420746865206f776e65726044820152fd5b67ffffffffffffffff811161095057604052565b7f4e487b7100000000000000000000000000000000000000000000000000000000600052604160045260246000fd5b6020810190811067ffffffffffffffff82111761095057604052565b90601f7fffffffffffffffffffffffffffffffffffffffffffffffffffffffffffffffe0910116810190811067ffffffffffffffff82111761095057604052565b60005b8381106109ef5750506000910152565b81810151838201526020016109df565b9190926048949383527fffffffffffffffffffffffffffffffffffffffff000000000000000000000000809260601b16602084015260601b166034820152610a5082518093602086850191016109dc565b01019056fe60808060405234610016576111cf908161001c8239f35b600080fdfe604060808152366103825773ffffffffffffffffffffffffffffffffffffffff807fb53127684a568b3173ae13b9f8a6016e243e63b6e8ee1178d6a717850b5d61035416158015610b94576000917fcf7a1d77000000000000000000000000000000000000000000000000000000007fffffffff00000000000000000000000000000000000000000000000000000000843516146100c057600484517ff92ee8a9000000000000000000000000000000000000000000000000000000008152fd5b6100c8611192565b60049136831161037e5760607ffffffffffffffffffffffffffffffffffffffffffffffffffffffffffffffffc36011261037e578235916101088361067f565b602435926101158461067f565b60443567ffffffffffffffff811161037a57610135839136908801610789565b941692156103525761014791166107e3565b803b156102cf578451907f5c60da1b000000000000000000000000000000000000000000000000000000009384835260209687848381865afa9384156102a657889461019d9189916102b2575b503b1515610926565b7fa3f0ad74e5423aebfd80d3ef4346578335a9a72aeaee59ff6cb3582b35133d5080547fffffffffffffffffffffffff00000000000000000000000000000000000000001673ffffffffffffffffffffffffffffffffffffffff85161790555194827f1cf3b03a6cf19fa2baba4df148e9dcabedea7f8a5c07840e207e5c089be95d3e8880a28451158015906102ab575b610242575b8361023c6107d0565b80519101f35b8592839182525afa9182156102a65761026a9392610277575b506102646109b1565b91610a21565b5038808083818080610233565b610298919250843d861161029f575b610290818361070e565b810190610902565b903861025b565b503d610286565b61091a565b508661022e565b6102c99150863d881161029f57610290818361070e565b38610194565b60848360208751917f08c379a0000000000000000000000000000000000000000000000000000000008352820152602560248201527f455243313936373a206e657720626561636f6e206973206e6f74206120636f6e60448201527f74726163740000000000000000000000000000000000000000000000000000006064820152fd5b8487517ff92ee8a9000000000000000000000000000000000000000000000000000000008152fd5b8680fd5b8380fd5b73ffffffffffffffffffffffffffffffffffffffff807fb53127684a568b3173ae13b9f8a6016e243e63b6e8ee1178d6a717850b5d61035416158015610b94576000907fcf7a1d77000000000000000000000000000000000000000000000000000000007fffffffff00000000000000000000000000000000000000000000000000000000833516146104395760046040517ff92ee8a9000000000000000000000000000000000000000000000000000000008152fd5b610441611192565b60049236841161067b5760607ffffffffffffffffffffffffffffffffffffffffffffffffffffffffffffffffc36011261067b5783356104808161067f565b6024359161048d8361067f565b60443567ffffffffffffffff8111610677576104ad829136908901610789565b9316931561064e576104bf91166107e3565b813b156105ca576040517f5c60da1b000000000000000000000000000000000000000000000000000000009283825260209586838281855afa9283156102a65787936105149188916105b357503b1515610926565b7fa3f0ad74e5423aebfd80d3ef4346578335a9a72aeaee59ff6cb3582b35133d5080547fffffffffffffffffffffffff00000000000000000000000000000000000000001673ffffffffffffffffffffffffffffffffffffffff841617905560405194827f1cf3b03a6cf19fa2baba4df148e9dcabedea7f8a5c07840e207e5c089be95d3e8880a28451158015906102ab57610242578361023c6107d0565b6102c99150853d871161029f57610290818361070e565b6084846020604051917f08c379a0000000000000000000000000000000000000000000000000000000008352820152602560248201527f455243313936373a206e657720626561636f6e206973206e6f74206120636f6e60448201527f74726163740000000000000000000000000000000000000000000000000000006064820152fd5b856040517ff92ee8a9000000000000000000000000000000000000000000000000000000008152fd5b8580fd5b8280fd5b73ffffffffffffffffffffffffffffffffffffffff81160361069d57565b600080fd5b7f4e487b7100000000000000000000000000000000000000000000000000000000600052604160045260246000fd5b6020810190811067ffffffffffffffff8211176106ed57604052565b6106a2565b6040810190811067ffffffffffffffff8211176106ed57604052565b90601f7fffffffffffffffffffffffffffffffffffffffffffffffffffffffffffffffe0910116810190811067ffffffffffffffff8211176106ed57604052565b67ffffffffffffffff81116106ed57601f017fffffffffffffffffffffffffffffffffffffffffffffffffffffffffffffffe01660200190565b81601f8201121561069d578035906107a08261074f565b926107ae604051948561070e565b8284526020838301011161069d57816000926020809301838601378301015290565b604051906107dd826106d1565b60008252565b7fb53127684a568b3173ae13b9f8a6016e243e63b6e8ee1178d6a717850b5d61039081547f7e644d79422f17c01e4894b5f4f588d331ebfa28653d42ae832dc59e38c9798f604080519373ffffffffffffffffffffffffffffffffffffffff9081851686521693846020820152a1811561087e577fffffffffffffffffffffffff000000000000000000000000000000000000000016179055565b60846040517f08c379a000000000000000000000000000000000000000000000000000000000815260206004820152602660248201527f455243313936373a206e65772061646d696e20697320746865207a65726f206160448201527f64647265737300000000000000000000000000000000000000000000000000006064820152fd5b9081602091031261069d57516109178161067f565b90565b6040513d6000823e3d90fd5b1561092d57565b60846040517f08c379a000000000000000000000000000000000000000000000000000000000815260206004820152603060248201527f455243313936373a20626561636f6e20696d706c656d656e746174696f6e206960448201527f73206e6f74206120636f6e7472616374000000000000000000000000000000006064820152fd5b604051906060820182811067ffffffffffffffff8211176106ed57604052602782527f206661696c6564000000000000000000000000000000000000000000000000006040837f416464726573733a206c6f772d6c6576656c2064656c65676174652063616c6c60208201520152565b6000806109179493602081519101845af43d15610a60573d91610a438361074f565b92610a51604051948561070e565b83523d6000602085013e610acd565b606091610acd565b15610a6f57565b60646040517f08c379a000000000000000000000000000000000000000000000000000000000815260206004820152601d60248201527f416464726573733a2063616c6c20746f206e6f6e2d636f6e74726163740000006044820152fd5b91929015610aed5750815115610ae1575090565b610917903b1515610a68565b825190915015610b005750805190602001fd5b604051907f08c379a000000000000000000000000000000000000000000000000000000000825281602080600483015282519283602484015260005b848110610b7d575050507fffffffffffffffffffffffffffffffffffffffffffffffffffffffffffffffe0601f836000604480968601015201168101030190fd5b818101830151868201604401528593508201610b3c565b610bee610bd57fb53127684a568b3173ae13b9f8a6016e243e63b6e8ee1178d6a717850b5d61035473ffffffffffffffffffffffffffffffffffffffff1690565b73ffffffffffffffffffffffffffffffffffffffff1690565b3303610d14576000357fffffffff00000000000000000000000000000000000000000000000000000000167f3659cfe6000000000000000000000000000000000000000000000000000000008103610c515750610c49610f0f565b602081519101f35b7f4f1ef286000000000000000000000000000000000000000000000000000000008103610c865750610c81611083565b610c49565b7f8f283970000000000000000000000000000000000000000000000000000000008103610cb65750610c81610ec5565b7ff851a440000000000000000000000000000000000000000000000000000000008103610ce65750610c81610dfd565b7f5c60da1b0000000000000000000000000000000000000000000000000000000003610d1457610c81610e53565b610d1c610d3b565b6000808092368280378136915af43d82803e15610d37573d90f35b3d90fd5b73ffffffffffffffffffffffffffffffffffffffff807f360894a13ba1a3210667c828492db98dca3e2076cc3735a920a3ca505d382bbc541680610df8575060206004917fa3f0ad74e5423aebfd80d3ef4346578335a9a72aeaee59ff6cb3582b35133d505416604051928380927f5c60da1b0000000000000000000000000000000000000000000000000000000082525afa9081156102a657600091610de0575090565b610917915060203d811161029f57610290818361070e565b905090565b610e05611192565b73ffffffffffffffffffffffffffffffffffffffff7fb53127684a568b3173ae13b9f8a6016e243e63b6e8ee1178d6a717850b5d6103541660405190602082015260208152610917816106f2565b610e5b611192565b610e63610d3b565b73ffffffffffffffffffffffffffffffffffffffff6040519116602082015260208152610917816106f2565b7ffffffffffffffffffffffffffffffffffffffffffffffffffffffffffffffffc602091011261069d576004356109178161067f565b610ecd611192565b3660041161069d57610efc73ffffffffffffffffffffffffffffffffffffffff610ef636610e8f565b166107e3565b604051610f08816106d1565b6000815290565b610f17611192565b3660041161069d5773ffffffffffffffffffffffffffffffffffffffff610f3d36610e8f565b1660405190610f4b826106d1565b60008252803b15610fff577f360894a13ba1a3210667c828492db98dca3e2076cc3735a920a3ca505d382bbc817fffffffffffffffffffffffff0000000000000000000000000000000000000000825416179055807fbc7cd75a20ee27fd9adebab32041f755214dbc6bffa90cc0225b39da2e5c2d3b600080a2815115801590610ff7575b610fe3575b5050604051610f08816106d1565b610fef916102646109b1565b503880610fd5565b506000610fd0565b60846040517f08c379a000000000000000000000000000000000000000000000000000000000815260206004820152602d60248201527f455243313936373a206e657720696d706c656d656e746174696f6e206973206e60448201527f6f74206120636f6e7472616374000000000000000000000000000000000000006064820152fd5b3660041161069d5760407ffffffffffffffffffffffffffffffffffffffffffffffffffffffffffffffffc36011261069d576004356110c18161067f565b60243567ffffffffffffffff811161069d576110f673ffffffffffffffffffffffffffffffffffffffff913690600401610789565b9116803b15610fff577f360894a13ba1a3210667c828492db98dca3e2076cc3735a920a3ca505d382bbc817fffffffffffffffffffffffff0000000000000000000000000000000000000000825416179055807fbc7cd75a20ee27fd9adebab32041f755214dbc6bffa90cc0225b39da2e5c2d3b600080a281511580159061118a57610fe3575050604051610f08816106d1565b506001610fd0565b3461069d5756fea264697066735822122074ad3060f809c0a3b330e975dfd539d895d2c29692fa157860c461b67aa37b9864736f6c63430008130033a26469706673582212208f0170f1bb758527b7f4cdbb1048af235f1f359633ab5ac7dd9ce4dc9483c8c664736f6c6343000813003360803461011a57601f6105ee38819003918201601f19168301916001600160401b0383118484101761011f5780849260209460405283398101031261011a57516001600160a01b03808216919082820361011a576000549160018060a01b0319923384821617600055604051923391167f8be0079c531659141344cd1fd0a4f28419497f9722a3daafe3b4186f6b6457e0600080a33b156100b2575060015416176001556040516104b890816101368239f35b62461bcd60e51b815260206004820152603360248201527f5570677261646561626c65426561636f6e3a20696d706c656d656e746174696f60448201527f6e206973206e6f74206120636f6e7472616374000000000000000000000000006064820152608490fd5b600080fd5b634e487b7160e01b600052604160045260246000fdfe6080604052600436101561001257600080fd5b6000803560e01c80633659cfe6146102ce5780635c60da1b1461027c578063715018a6146101e05780638da5cb5b1461018f5763f2fde38b1461005457600080fd5b3461018c5760207ffffffffffffffffffffffffffffffffffffffffffffffffffffffffffffffffc36011261018c5760043573ffffffffffffffffffffffffffffffffffffffff808216809203610188576100ad610403565b8115610104578254827fffffffffffffffffffffffff00000000000000000000000000000000000000008216178455167f8be0079c531659141344cd1fd0a4f28419497f9722a3daafe3b4186f6b6457e08380a380f35b60846040517f08c379a000000000000000000000000000000000000000000000000000000000815260206004820152602660248201527f4f776e61626c653a206e6577206f776e657220697320746865207a65726f206160448201527f64647265737300000000000000000000000000000000000000000000000000006064820152fd5b8280fd5b80fd5b503461018c57807ffffffffffffffffffffffffffffffffffffffffffffffffffffffffffffffffc36011261018c5773ffffffffffffffffffffffffffffffffffffffff6020915416604051908152f35b503461018c57807ffffffffffffffffffffffffffffffffffffffffffffffffffffffffffffffffc36011261018c57610217610403565b8073ffffffffffffffffffffffffffffffffffffffff81547fffffffffffffffffffffffff000000000000000000000000000000000000000081168355167f8be0079c531659141344cd1fd0a4f28419497f9722a3daafe3b4186f6b6457e08280a380f35b503461018c57807ffffffffffffffffffffffffffffffffffffffffffffffffffffffffffffffffc36011261018c57602073ffffffffffffffffffffffffffffffffffffffff60015416604051908152f35b503461018c5760207ffffffffffffffffffffffffffffffffffffffffffffffffffffffffffffffffc36011261018c5760043573ffffffffffffffffffffffffffffffffffffffff81169081810361018857610328610403565b3b1561037f57807fffffffffffffffffffffffff000000000000000000000000000000000000000060015416176001557fbc7cd75a20ee27fd9adebab32041f755214dbc6bffa90cc0225b39da2e5c2d3b8280a280f35b60846040517f08c379a000000000000000000000000000000000000000000000000000000000815260206004820152603360248201527f5570677261646561626c65426561636f6e3a20696d706c656d656e746174696f60448201527f6e206973206e6f74206120636f6e7472616374000000000000000000000000006064820152fd5b73ffffffffffffffffffffffffffffffffffffffff60005416330361042457565b60646040517f08c379a000000000000000000000000000000000000000000000000000000000815260206004820152602060248201527f4f776e61626c653a2063616c6c6572206973206e6f7420746865206f776e65726044820152fdfea2646970667358221220208419369f26b5959a9a13b662721d5be2985e9cc7d2d9139fa35a2939a96bee64736f6c63430008130033608080604052346100165761244b908161001c8239f35b600080fdfe608060408181526004908136101561001657600080fd5b600092833560e01c90816301ffc9a714611673575080630668d0bb14610f3b578063248a9ca314610f115780632f2ff15d14610e915780633474a4a614610dc057806336568abe14610cf957806344004cc114610c255780634782f77914610bc2578063485cc955146108bf5780638c17030f146104475780639010d07c146103f857806391d14854146103a5578063a217fddf1461038a578063a971e8421461034e578063bad4366114610146578063ca15c8731461011e5763d547741f146100df57600080fd5b3461011a578060031936011261011a57610117913561011260016101016117be565b938387528660205286200154611aab565b611d16565b80f35b8280fd5b50903461011a57602060031936011261011a5760209282913581526001845220549051908152f35b503461011a57608060031936011261011a578135602490813567ffffffffffffffff9586821161034b575061017e90369086016117e1565b949061018861179b565b9573ffffffffffffffffffffffffffffffffffffffff8716600052602097600289528660002085600052895260ff8760002054161597886101cf575b898989519015158152f35b9091929497508695989396517fffffffffffffffffffffffffffffffffffffffff0000000000000000000000008582019260601b16825260643560348201526034815261021b81611c53565b51902090821161031e5760059382851b86519361023a86830186611c8b565b845284840190820191368311610319578590915b8383106103095750505050926000935b82518510156102f25784821b830184015190866000838310156102e55750506000528352846000205b937fffffffffffffffffffffffffffffffffffffffffffffffffffffffffffffffff81146102b8576001019361025e565b886011887f4e487b7100000000000000000000000000000000000000000000000000000000600052526000fd5b9190928252855220610287565b9496955050509450501490388080808080806101c4565b823581529181019186910161024e565b600080fd5b876041877f4e487b7100000000000000000000000000000000000000000000000000000000600052526000fd5b80fd5b83823461038657816003193601126103865760209073ffffffffffffffffffffffffffffffffffffffff60035460081c169051908152f35b5080fd5b83823461038657816003193601126103865751908152602090f35b50903461011a578160031936011261011a5773ffffffffffffffffffffffffffffffffffffffff826020946103d86117be565b93358152808652209116600052825260ff81600020541690519015158152f35b50903461011a578160031936011261011a5761043860209373ffffffffffffffffffffffffffffffffffffffff9235815260018552836024359120611f7e565b92905490519260031b1c168152f35b50903461011a5760c060031936011261011a5780359160249081359061046b61179b565b906064359267ffffffffffffffff9485851694858103610319576084359687168097036103195760a435977f4c02318d8c3aadc98ccf18aebbf3126f651e0c3f6a1de5ff8edcf6724a2ad5c280600052602093600085528660002033600052855260ff87600020541615610628575050868810801561061e575b6105f7579189979593917fabec13ca1773eed55d54d2f64593c33fa520ee45cac73a162f13928a2ebee2339a86948b60a073ffffffffffffffffffffffffffffffffffffffff60c09e9c9a519961053b8b611c08565b858b5288888c0152169889898201528a60608201528b608082015201525582600555847fffffffff000000000000000000000000000000000000000000000000000000007bffffffffffffffff00000000000000000000000000000000000000006006549360a01b1692161717600655857fffffffffffffffffffffffffffffffffffffffffffffffff000000000000000060075416176007558660085582519788528701528501526060840152608083015260a0820152a180f35b84517f85d4a748000000000000000000000000000000000000000000000000000000008152fd5b50428811156104e5565b919450915061063633611e09565b85519161064283611c6f565b604283528483019360603686378351156108925760308553835160019081101561086557607860218601536041905b80821161079d575050610742575061073e938693610710936107016048946106cc9a519a857f416363657373436f6e74726f6c3a206163636f756e74200000000000000000008d978801528251928391603789019101611be5565b8401917f206973206d697373696e6720726f6c6520000000000000000000000000000000603784015251809386840190611be5565b01036028810187520185611c8b565b519283927f08c379a00000000000000000000000000000000000000000000000000000000084528301611ccc565b0390fd5b925050508160649451937f08c379a00000000000000000000000000000000000000000000000000000000085528401528201527f537472696e67733a20686578206c656e67746820696e73756666696369656e746044820152fd5b9091600f81166010811015610838577f3031323334353637383961626364656600000000000000000000000000000000901a6107d98488611dc9565b53881c91801561080b577fffffffffffffffffffffffffffffffffffffffffffffffffffffffffffffffff0190610671565b8360118a7f4e487b7100000000000000000000000000000000000000000000000000000000600052526000fd5b8460328b7f4e487b7100000000000000000000000000000000000000000000000000000000600052526000fd5b826032897f4e487b7100000000000000000000000000000000000000000000000000000000600052526000fd5b506032867f4e487b7100000000000000000000000000000000000000000000000000000000600052526000fd5b50903461011a578160031936011261011a576108d9611778565b906108e26117be565b6003549160ff8316610b9b5750907fffffffffffffffffffffff0000000000000000000000000000000000000000ff74ffffffffffffffffffffffffffffffffffffffff00610a2c949360081b16911617600355600080526020926000845273ffffffffffffffffffffffffffffffffffffffff8160002092169182600052845260ff81600020541615610b2f575b60008052600184818096526109898484600020611f96565b507f4c02318d8c3aadc98ccf18aebbf3126f651e0c3f6a1de5ff8edcf6724a2ad5c280600052600082528360002085600052825260ff84600020541615610ac4575b6000528181526109de8484600020611f96565b507f5d8e12c39142ff96d79d04d15d1ba1269e4fe57bb9d26f43523628b34ba108ec80600052600082528360002085600052825260ff84600020541615610a59575b60005252600020611f96565b507fffffffffffffffffffffffffffffffffffffffffffffffffffffffffffffff00600354161760035580f35b80600052600082528360002085600052825283600020837fffffffffffffffffffffffffffffffffffffffffffffffffffffffffffffff008254161790553385827f2f8788117e7eff1d82e926ec794901d17c78024a50270940304540a733656f0d600080a4610a20565b80600052600082528360002085600052825283600020837fffffffffffffffffffffffffffffffffffffffffffffffffffffffffffffff008254161790553385827f2f8788117e7eff1d82e926ec794901d17c78024a50270940304540a733656f0d600080a46109cb565b6000805260008452806000208260005284528060002060017fffffffffffffffffffffffffffffffffffffffffffffffffffffffffffffff00825416179055338260007f2f8788117e7eff1d82e926ec794901d17c78024a50270940304540a733656f0d8180a4610971565b84517ff92ee8a9000000000000000000000000000000000000000000000000000000008152fd5b503461011a578060031936011261011a5782808080610bdf611778565b610be7611812565b602435905af1610bf56122f3565b5015610bff578280f35b517f750b219c000000000000000000000000000000000000000000000000000000008152fd5b83823461038657606060031936011261038657610cc773ffffffffffffffffffffffffffffffffffffffff61011792610cf3610c5f611778565b91610c686117be565b90610c71611812565b517fa9059cbb00000000000000000000000000000000000000000000000000000000602082015273ffffffffffffffffffffffffffffffffffffffff909116602482015260448035908201529384906064820190565b037fffffffffffffffffffffffffffffffffffffffffffffffffffffffffffffffe08101855284611c8b565b166121b0565b50919034610386578260031936011261038657610d146117be565b903373ffffffffffffffffffffffffffffffffffffffff831603610d3d57906101179135611d16565b60849060208551917f08c379a0000000000000000000000000000000000000000000000000000000008352820152602f60248201527f416363657373436f6e74726f6c3a2063616e206f6e6c792072656e6f756e636560448201527f20726f6c657320666f722073656c6600000000000000000000000000000000006064820152fd5b50903461011a578260031936011261011a5760c09260a08351610de281611c08565b82815282602082015282858201528260608201528260808201520152815190610e0a82611c08565b5491828252600554602083019081526006548284019273ffffffffffffffffffffffffffffffffffffffff908183168552606086019167ffffffffffffffff9586809560a01c1684528460075416956080890196875260a060085499019889528351998a525160208a015251169087015251166060850152511660808301525160a0820152f35b503461011a578060031936011261011a57610f0d9135906001610eb26117be565b92808652602090868252610eca838589200154611aab565b806000526000825273ffffffffffffffffffffffffffffffffffffffff8460002095169485600052825260ff84600020541615610a595760005252600020611f96565b5080f35b50903461011a57602060031936011261011a57816020936001923581528085522001549051908152f35b5060a060031936011261011a57610f50611778565b91610f5961179b565b9067ffffffffffffffff60843581811161166f57610f7a90369084016117e1565b600354908651927f18160ddd0000000000000000000000000000000000000000000000000000000084526020938481888173ffffffffffffffffffffffffffffffffffffffff809860081c165afa908115611665578b91611634575b50865490811515806115f4575b6115b75750508460065460a01c16856007541680159182156115ad575b5081156115a2575b5061157a57600854918261131a575b505050600554602495863593848302928084048614901517156112ef578360065416848316908082036112b5575060643584811061125a5750806111815750508134036111255750509087915b60035460081c16803b1561011a576110cd97838851809a819582947f40c10f190000000000000000000000000000000000000000000000000000000084528a84016020909392919373ffffffffffffffffffffffffffffffffffffffff60408201951681520152565b03925af1801561111b576110df578580f35b84116110f15750505238808080808580f35b604185917f4e487b7100000000000000000000000000000000000000000000000000000000835252fd5b84513d88823e3d90fd5b61073e8689519384937f1eabcfbe0000000000000000000000000000000000000000000000000000000085523492850160409194939273ffffffffffffffffffffffffffffffffffffffff606083019616825260208201520152565b989a96999698909290915034156111cc5760648a8a8a818f51937f1eabcfbe000000000000000000000000000000000000000000000000000000008552840152820152346044820152fd5b7f23b872dd000000000000000000000000000000000000000000000000000000008b999b9a979a5193840152338884015230604484015260648301526064825260a082018281108682111761122f5788528993929161122a916121b0565b611064565b878b6041897f4e487b7100000000000000000000000000000000000000000000000000000000835252fd5b8a517f1eabcfbe00000000000000000000000000000000000000000000000000000000815273ffffffffffffffffffffffffffffffffffffffff8516818b019081526020810187905260408101929092529081906060010390fd5b888d868c6064948f51947f1eabcfbe0000000000000000000000000000000000000000000000000000000086528501528301526044820152fd5b878b6011897f4e487b7100000000000000000000000000000000000000000000000000000000835252fd5b338b5260028552888b20838c52855260ff898c2054161580611403575b1561138157505033895260028352868920908952825285882060017fffffffffffffffffffffffffffffffffffffffffffffffffffffffffffffff00825416179055388080611017565b8a9087938a51947f265c66a8000000000000000000000000000000000000000000000000000000008652850152608060248501528060848501527f07ffffffffffffffffffffffffffffffffffffffffffffffffffffffffffffff81116103865791839160a49360051b80928585013733604484015260648301528101030190fd5b50999892889792949591969851868101907fffffffffffffffffffffffffffffffffffffffff0000000000000000000000003360601b1682528b60348201526034815261144f81611c53565b51902094828c1161154e5788519560059594939291908d871b8e6114758b83018b611c8b565b89528a0189890136821161154a578a8c915b83831061153a5750505050988c995b88518b1015611523578a881b89018a0151908e82821015611515575289528a8d205b997fffffffffffffffffffffffffffffffffffffffffffffffffffffffffffffffff81146114e95760010199611496565b60248e60118f7f4e487b7100000000000000000000000000000000000000000000000000000000835252fd5b9190915289528a8d206114b8565b91959c9d9398975093999a98508491955014611337565b82358152918101918c9101611487565b8e80fd5b60248b60418c7f4e487b7100000000000000000000000000000000000000000000000000000000835252fd5b8588517f3f886774000000000000000000000000000000000000000000000000000000008152fd5b905042101538611008565b4210915038611000565b60649188918b51927fa922783000000000000000000000000000000000000000000000000000000000845283015260243560248301526044820152fd5b506024358101808211611608578210610fe3565b60248d60118b7f4e487b7100000000000000000000000000000000000000000000000000000000835252fd5b90508481813d831161165e575b61164b8183611c8b565b8101031261165a575138610fd6565b8a80fd5b503d611641565b89513d8d823e3d90fd5b8680fd5b8490843461011a57602060031936011261011a57357fffffffff00000000000000000000000000000000000000000000000000000000811680910361011a57602092507fbe0b77120000000000000000000000000000000000000000000000000000000081149081156116e8575b5015158152f35b7f5a05180f0000000000000000000000000000000000000000000000000000000081149150811561171b575b50836116e1565b7f7965db0b0000000000000000000000000000000000000000000000000000000081149150811561174e575b5083611714565b7f01ffc9a70000000000000000000000000000000000000000000000000000000091501483611747565b6004359073ffffffffffffffffffffffffffffffffffffffff8216820361031957565b6044359073ffffffffffffffffffffffffffffffffffffffff8216820361031957565b6024359073ffffffffffffffffffffffffffffffffffffffff8216820361031957565b9181601f840112156103195782359167ffffffffffffffff8311610319576020808501948460051b01011161031957565b3360009081527f20be27040b8e00df40bca0df34743417f3574a156386188f7d7f14369e5ee82b60209081526040808320549092907f5d8e12c39142ff96d79d04d15d1ba1269e4fe57bb9d26f43523628b34ba108ec9060ff16156118775750505050565b61188033611e09565b84519161188c83611c6f565b60428352848301936060368637835115611a7e5760308553835190600191821015611a7e5790607860218601536041915b8183116119b357505050611957576106cc9385936119279361191860489461073e995198857f416363657373436f6e74726f6c3a206163636f756e74200000000000000000008b978801528251928391603789019101611be5565b01036028810185520183611c8b565b519182917f08c379a000000000000000000000000000000000000000000000000000000000835260048301611ccc565b6064848651907f08c379a000000000000000000000000000000000000000000000000000000000825280600483015260248201527f537472696e67733a20686578206c656e67746820696e73756666696369656e746044820152fd5b909192600f81166010811015611a51577f3031323334353637383961626364656600000000000000000000000000000000901a6119f08588611dc9565b5360041c928015611a24577fffffffffffffffffffffffffffffffffffffffffffffffffffffffffffffffff0191906118bd565b6024827f4e487b710000000000000000000000000000000000000000000000000000000081526011600452fd5b6024837f4e487b710000000000000000000000000000000000000000000000000000000081526032600452fd5b807f4e487b7100000000000000000000000000000000000000000000000000000000602492526032600452fd5b6000818152602090808252604092838220338352835260ff848320541615611ad35750505050565b611adc33611e09565b845191611ae883611c6f565b60428352848301936060368637835115611a7e5760308553835190600191821015611a7e5790607860218601536041915b818311611b7457505050611957576106cc9385936119279361191860489461073e995198857f416363657373436f6e74726f6c3a206163636f756e74200000000000000000008b978801528251928391603789019101611be5565b909192600f81166010811015611a51577f3031323334353637383961626364656600000000000000000000000000000000901a611bb18588611dc9565b5360041c928015611a24577fffffffffffffffffffffffffffffffffffffffffffffffffffffffffffffffff019190611b19565b60005b838110611bf85750506000910152565b8181015183820152602001611be8565b60c0810190811067ffffffffffffffff821117611c2457604052565b7f4e487b7100000000000000000000000000000000000000000000000000000000600052604160045260246000fd5b6060810190811067ffffffffffffffff821117611c2457604052565b6080810190811067ffffffffffffffff821117611c2457604052565b90601f7fffffffffffffffffffffffffffffffffffffffffffffffffffffffffffffffe0910116810190811067ffffffffffffffff821117611c2457604052565b7fffffffffffffffffffffffffffffffffffffffffffffffffffffffffffffffe0601f60409360208452611d0f8151809281602088015260208888019101611be5565b0116010190565b906040611d61926000908082528160205273ffffffffffffffffffffffffffffffffffffffff83832094169384835260205260ff8383205416611d64575b8152600160205220612057565b50565b808252816020528282208483526020528282207fffffffffffffffffffffffffffffffffffffffffffffffffffffffffffffff0081541690553384827ff6391f5c32d9c69d2a47ea670b442974b53935d1edc7fd64eb21e047a839171b8580a4611d54565b908151811015611dda570160200190565b7f4e487b7100000000000000000000000000000000000000000000000000000000600052603260045260246000fd5b60405190611e1682611c53565b602a8252602082016040368237825115611dda57603090538151600190811015611dda57607860218401536029905b808211611eb3575050611e555790565b60646040517f08c379a000000000000000000000000000000000000000000000000000000000815260206004820152602060248201527f537472696e67733a20686578206c656e67746820696e73756666696369656e746044820152fd5b9091600f81166010811015611f50577f3031323334353637383961626364656600000000000000000000000000000000901a611eef8486611dc9565b5360041c918015611f22577fffffffffffffffffffffffffffffffffffffffffffffffffffffffffffffffff0190611e45565b602460007f4e487b710000000000000000000000000000000000000000000000000000000081526011600452fd5b602460007f4e487b710000000000000000000000000000000000000000000000000000000081526032600452fd5b8054821015611dda5760005260206000200190600090565b9190600183016000908282528060205260408220541560001461205157845494680100000000000000008610156120245783612014611fdf886001604098999a01855584611f7e565b81939154907fffffffffffffffffffffffffffffffffffffffffffffffffffffffffffffffff9060031b92831b921b19161790565b9055549382526020522055600190565b6024837f4e487b710000000000000000000000000000000000000000000000000000000081526041600452fd5b50925050565b906001820190600092818452826020526040842054908115156000146121a9577fffffffffffffffffffffffffffffffffffffffffffffffffffffffffffffffff9182810181811161217c5782549084820191821161214f5780820361211a575b505050805480156120ed578201916120d08383611f7e565b909182549160031b1b191690555582526020526040812055600190565b6024867f4e487b710000000000000000000000000000000000000000000000000000000081526031600452fd5b61213a61212a611fdf9386611f7e565b90549060031b1c92839286611f7e565b905586528460205260408620553880806120b8565b6024887f4e487b710000000000000000000000000000000000000000000000000000000081526011600452fd5b6024877f4e487b710000000000000000000000000000000000000000000000000000000081526011600452fd5b5050505090565b73ffffffffffffffffffffffffffffffffffffffff1690604051604081019080821067ffffffffffffffff831117611c2457612230916040526020938482527f5361666545524332303a206c6f772d6c6576656c2063616c6c206661696c6564858301526000808587829751910182855af161222a6122f3565b91612351565b8051918215918483156122cf575b50505090501561224b5750565b608490604051907f08c379a00000000000000000000000000000000000000000000000000000000082526004820152602a60248201527f5361666545524332303a204552433230206f7065726174696f6e20646964206e60448201527f6f742073756363656564000000000000000000000000000000000000000000006064820152fd5b9193818094500103126103865782015190811515820361034b57508038808461223e565b3d1561234c573d9067ffffffffffffffff8211611c24576040519161234060207fffffffffffffffffffffffffffffffffffffffffffffffffffffffffffffffe0601f8401160184611c8b565b82523d6000602084013e565b606090565b919290156123cc5750815115612365575090565b3b1561236e5790565b60646040517f08c379a000000000000000000000000000000000000000000000000000000000815260206004820152601d60248201527f416464726573733a2063616c6c20746f206e6f6e2d636f6e74726163740000006044820152fd5b8251909150156123df5750805190602001fd5b61073e906040519182917f08c379a000000000000000000000000000000000000000000000000000000000835260048301611ccc56fea2646970667358221220cb5d9e6b16161fa2406381893f6870b673d77d593c20d02145f96d674ba8a4e464736f6c63430008130033",
					"opcodes": "PUSH1 0x80 CALLVALUE PUSH2 0x121 JUMPI PUSH1 0x1 PUSH1 0x1 PUSH1 0x40 SHL SUB SWAP1 PUSH1 0x1F PUSH2 0x4839 CODESIZE DUP2 SWAP1 SUB SWAP2 DUP3 ADD PUSH1 0x1F NOT AND DUP4 ADD SWAP3 SWAP2 SWAP1 DUP5 DUP5 GT DUP4 DUP6 LT OR PUSH2 0x10B JUMPI DUP2 PUSH1 0x20 SWAP3 DUP5 SWAP3 PUSH1 0x40 SWAP7 DUP8 MSTORE DUP4 CODECOPY DUP2 ADD SUB SLT PUSH2 0x121 JUMPI MLOAD PUSH1 0x1 PUSH1 0x1 PUSH1 0xA0 SHL SUB DUP1 DUP3 AND DUP3 SUB PUSH2 0x121 JUMPI PUSH2 0x5F CALLER PUSH2 0x126 JUMP JUMPDEST DUP3 MLOAD SWAP4 PUSH2 0x2467 SWAP5 DUP6 DUP2 ADD SWAP6 DUP2 DUP8 LT DUP4 DUP9 GT OR PUSH2 0x10B JUMPI PUSH2 0x23D2 DUP3 CODECOPY DUP1 PUSH1 0x0 SWAP7 SUB SWAP1 DUP7 CREATE SWAP1 DUP2 ISZERO PUSH2 0x101 JUMPI DUP5 MLOAD SWAP2 PUSH2 0x5EE DUP1 DUP5 ADD SWAP3 DUP4 GT DUP5 DUP5 LT OR PUSH2 0xED JUMPI SWAP2 DUP5 DUP5 SWAP3 PUSH1 0x20 SWAP5 PUSH2 0x1DE4 DUP6 CODECOPY AND DUP2 MSTORE SUB ADD SWAP1 DUP6 CREATE DUP1 ISZERO PUSH2 0xE0 JUMPI PUSH2 0xD3 SWAP4 SWAP5 POP AND PUSH1 0x1 DUP1 PUSH1 0xA0 SHL SUB NOT PUSH1 0x1 SLOAD AND OR PUSH1 0x1 SSTORE PUSH2 0x126 JUMP JUMPDEST MLOAD PUSH2 0x1C76 SWAP1 DUP2 PUSH2 0x16E DUP3 CODECOPY RETURN JUMPDEST POP POP POP MLOAD SWAP1 RETURNDATASIZE SWAP1 DUP3 RETURNDATACOPY RETURNDATASIZE SWAP1 REVERT JUMPDEST PUSH4 0x4E487B71 PUSH1 0xE0 SHL DUP9 MSTORE PUSH1 0x41 PUSH1 0x4 MSTORE PUSH1 0x24 DUP9 REVERT JUMPDEST DUP5 MLOAD RETURNDATASIZE DUP8 DUP3 RETURNDATACOPY RETURNDATASIZE SWAP1 REVERT JUMPDEST PUSH4 0x4E487B71 PUSH1 0xE0 SHL PUSH1 0x0 MSTORE PUSH1 0x41 PUSH1 0x4 MSTORE PUSH1 0x24 PUSH1 0x0 REVERT JUMPDEST PUSH1 0x0 DUP1 REVERT JUMPDEST PUSH1 0x0 DUP1 SLOAD PUSH1 0x1 PUSH1 0x1 PUSH1 0xA0 SHL SUB SWAP3 DUP4 AND PUSH1 0x1 PUSH1 0x1 PUSH1 0xA0 SHL SUB NOT DUP3 AND DUP2 OR DUP4 SSTORE SWAP3 AND SWAP1 PUSH32 0x8BE0079C531659141344CD1FD0A4F28419497F9722A3DAAFE3B4186F6B6457E0 SWAP1 DUP1 LOG3 JUMP INVALID PUSH1 0x40 PUSH1 0x80 DUP2 MSTORE PUSH1 0x4 SWAP1 DUP2 CALLDATASIZE LT ISZERO PUSH2 0x15 JUMPI PUSH1 0x0 DUP1 REVERT JUMPDEST PUSH1 0x0 SWAP2 DUP3 CALLDATALOAD PUSH1 0xE0 SHR DUP1 PUSH4 0x1BCE4583 EQ PUSH2 0x790 JUMPI DUP1 PUSH4 0x59659E90 EQ PUSH2 0x73D JUMPI DUP1 PUSH4 0x715018A6 EQ PUSH2 0x6A0 JUMPI DUP1 PUSH4 0x8DA5CB5B EQ PUSH2 0x64B JUMPI DUP1 PUSH4 0xD9181CD3 EQ PUSH2 0x2EE JUMPI DUP1 PUSH4 0xE657F693 EQ PUSH2 0x1AA JUMPI PUSH4 0xF2FDE38B EQ PUSH2 0x6E JUMPI PUSH1 0x0 DUP1 REVERT JUMPDEST CALLVALUE PUSH2 0x1A6 JUMPI PUSH1 0x20 PUSH32 0xFFFFFFFFFFFFFFFFFFFFFFFFFFFFFFFFFFFFFFFFFFFFFFFFFFFFFFFFFFFFFFFC CALLDATASIZE ADD SLT PUSH2 0x1A6 JUMPI PUSH2 0xA5 PUSH2 0x84F JUMP JUMPDEST SWAP1 PUSH2 0xAE PUSH2 0x8BD JUMP JUMPDEST PUSH20 0xFFFFFFFFFFFFFFFFFFFFFFFFFFFFFFFFFFFFFFFF DUP1 SWAP3 AND SWAP3 DUP4 ISZERO PUSH2 0x123 JUMPI POP POP PUSH1 0x0 SLOAD DUP3 PUSH32 0xFFFFFFFFFFFFFFFFFFFFFFFF0000000000000000000000000000000000000000 DUP3 AND OR PUSH1 0x0 SSTORE AND PUSH32 0x8BE0079C531659141344CD1FD0A4F28419497F9722A3DAAFE3B4186F6B6457E0 PUSH1 0x0 DUP1 LOG3 DUP1 RETURN JUMPDEST SWAP1 PUSH1 0x20 PUSH1 0x84 SWAP3 MLOAD SWAP2 PUSH32 0x8C379A000000000000000000000000000000000000000000000000000000000 DUP4 MSTORE DUP3 ADD MSTORE PUSH1 0x26 PUSH1 0x24 DUP3 ADD MSTORE PUSH32 0x4F776E61626C653A206E6577206F776E657220697320746865207A65726F2061 PUSH1 0x44 DUP3 ADD MSTORE PUSH32 0x6464726573730000000000000000000000000000000000000000000000000000 PUSH1 0x64 DUP3 ADD MSTORE REVERT JUMPDEST DUP3 DUP1 REVERT JUMPDEST DUP3 DUP5 CALLVALUE PUSH2 0x2EB JUMPI PUSH1 0x60 PUSH32 0xFFFFFFFFFFFFFFFFFFFFFFFFFFFFFFFFFFFFFFFFFFFFFFFFFFFFFFFFFFFFFFFC CALLDATASIZE ADD SLT PUSH2 0x2EB JUMPI POP PUSH2 0x1E4 PUSH2 0x84F JUMP JUMPDEST SWAP1 PUSH2 0x1ED PUSH2 0x877 JUMP JUMPDEST SWAP2 PUSH1 0x55 PUSH1 0xB PUSH2 0x1FA PUSH2 0x89A JUMP JUMPDEST DUP5 MLOAD PUSH20 0xFFFFFFFFFFFFFFFFFFFFFFFFFFFFFFFFFFFFFFFF SWAP7 DUP8 AND PUSH1 0x20 DUP1 DUP4 ADD SWAP2 DUP3 MSTORE SWAP3 SWAP1 SWAP8 AND PUSH1 0x40 DUP1 DUP4 ADD SWAP2 SWAP1 SWAP2 MSTORE DUP2 MSTORE SWAP1 SWAP6 PUSH32 0xFFFFFFFFFFFFFFFFFFFFFFFFFFFFFFFFFFFFFFFFFFFFFFFFFFFFFFFFFFFFFFE0 SWAP2 PUSH2 0x25A PUSH1 0x60 DUP3 PUSH2 0x99B JUMP JUMPDEST MLOAD SWAP1 KECCAK256 SWAP1 PUSH2 0x2AB DUP7 MLOAD SWAP2 PUSH2 0x26D DUP4 PUSH2 0x97F JUMP JUMPDEST PUSH1 0x0 DUP4 MSTORE PUSH20 0xFFFFFFFFFFFFFFFFFFFFFFFFFFFFFFFFFFFFFFFF SWAP7 PUSH2 0x29F DUP9 PUSH1 0x1 SLOAD AND SWAP5 DUP11 MLOAD SWAP6 DUP7 SWAP4 DUP14 DUP6 ADD SWAP9 DUP10 PUSH2 0x9FF JUMP JUMPDEST SUB SWAP1 DUP2 ADD DUP4 MSTORE DUP3 PUSH2 0x99B JUMP JUMPDEST MLOAD SWAP1 KECCAK256 PUSH2 0x11EB DUP6 MLOAD PUSH2 0x2BF DUP9 DUP4 ADD DUP3 PUSH2 0x99B JUMP JUMPDEST DUP2 DUP2 MSTORE DUP8 DUP2 ADD SWAP2 PUSH2 0xA56 DUP4 CODECOPY MLOAD SWAP1 KECCAK256 SWAP1 DUP6 MLOAD SWAP2 DUP7 DUP4 ADD MSTORE DUP7 DUP3 ADD MSTORE ADDRESS DUP2 MSTORE ADD PUSH1 0xFF DUP2 MSTORE8 KECCAK256 SWAP2 MLOAD SWAP2 AND DUP2 MSTORE RETURN JUMPDEST DUP1 REVERT JUMPDEST POP SWAP1 CALLVALUE PUSH2 0x1A6 JUMPI PUSH1 0x60 PUSH32 0xFFFFFFFFFFFFFFFFFFFFFFFFFFFFFFFFFFFFFFFFFFFFFFFFFFFFFFFFFFFFFFFC CALLDATASIZE ADD SLT PUSH2 0x1A6 JUMPI PUSH2 0x327 PUSH2 0x84F JUMP JUMPDEST SWAP3 PUSH2 0x330 PUSH2 0x877 JUMP JUMPDEST PUSH2 0x338 PUSH2 0x89A JUMP JUMPDEST SWAP1 DUP4 MLOAD SWAP5 PUSH1 0x20 SWAP7 DUP8 DUP8 ADD DUP8 PUSH2 0x375 DUP7 DUP7 DUP5 SWAP1 PUSH1 0x20 SWAP1 SWAP4 SWAP3 SWAP4 PUSH1 0x40 DUP4 ADD SWAP5 PUSH20 0xFFFFFFFFFFFFFFFFFFFFFFFFFFFFFFFFFFFFFFFF DUP1 SWAP3 AND DUP5 MSTORE AND SWAP2 ADD MSTORE JUMP JUMPDEST SUB SWAP8 PUSH2 0x3A7 PUSH32 0xFFFFFFFFFFFFFFFFFFFFFFFFFFFFFFFFFFFFFFFFFFFFFFFFFFFFFFFFFFFFFFE0 SWAP10 DUP11 DUP2 ADD DUP4 MSTORE DUP3 PUSH2 0x99B JUMP JUMPDEST MLOAD SWAP1 KECCAK256 DUP7 MLOAD SWAP2 PUSH2 0x3B6 DUP4 PUSH2 0x97F JUMP JUMPDEST PUSH1 0x0 DUP4 MSTORE PUSH20 0xFFFFFFFFFFFFFFFFFFFFFFFFFFFFFFFFFFFFFFFF SWAP2 DUP2 PUSH2 0x3F9 DUP13 PUSH2 0x3ED DUP8 DUP14 DUP9 PUSH1 0x1 SLOAD AND SWAP1 MLOAD SWAP6 DUP7 SWAP5 DUP6 ADD SWAP8 DUP9 PUSH2 0x9FF JUMP JUMPDEST SUB DUP13 DUP2 ADD DUP4 MSTORE DUP3 PUSH2 0x99B JUMP JUMPDEST MLOAD SWAP1 KECCAK256 PUSH2 0x11EB DUP10 MLOAD PUSH2 0x40D DUP14 DUP4 ADD DUP3 PUSH2 0x99B JUMP JUMPDEST DUP2 DUP2 MSTORE DUP13 DUP2 ADD SWAP2 PUSH2 0xA56 DUP4 CODECOPY DUP1 MLOAD ISZERO PUSH2 0x5F0 JUMPI MLOAD DUP5 SWAP3 SWAP2 DUP11 CREATE2 AND SWAP9 DUP10 ISZERO PUSH2 0x594 JUMPI DUP3 PUSH1 0x1 SLOAD AND SWAP4 DUP11 EXTCODESIZE ISZERO PUSH2 0x590 JUMPI SWAP2 PUSH1 0x84 SWAP2 PUSH1 0x1F DUP11 SWAP6 SWAP5 PUSH2 0x498 DUP16 DUP15 MLOAD SWAP10 DUP11 SWAP9 DUP10 SWAP8 PUSH32 0xCF7A1D7700000000000000000000000000000000000000000000000000000000 DUP10 MSTORE AND DUP13 DUP9 ADD MSTORE PUSH1 0x24 DUP8 ADD MSTORE PUSH1 0x60 PUSH1 0x44 DUP8 ADD MSTORE DUP3 MLOAD SWAP3 DUP4 SWAP2 DUP3 PUSH1 0x64 DUP10 ADD MSTORE DUP9 DUP9 ADD SWAP2 ADD PUSH2 0x9DC JUMP JUMPDEST ADD AND DUP2 ADD SUB ADD DUP2 DUP4 DUP12 GAS CALL DUP1 ISZERO PUSH2 0x586 JUMPI SWAP1 DUP6 SWAP2 PUSH2 0x572 JUMPI JUMPDEST POP POP DUP6 EXTCODESIZE ISZERO PUSH2 0x56E JUMPI DUP5 MLOAD PUSH32 0x485CC95500000000000000000000000000000000000000000000000000000000 DUP2 MSTORE PUSH20 0xFFFFFFFFFFFFFFFFFFFFFFFFFFFFFFFFFFFFFFFF SWAP3 DUP4 AND SWAP2 DUP2 ADD SWAP2 DUP3 MSTORE SWAP3 SWAP1 SWAP2 AND PUSH1 0x20 DUP3 ADD MSTORE DUP3 SWAP1 DUP3 SWAP1 DUP2 SWAP1 PUSH1 0x40 ADD SUB DUP2 DUP4 DUP9 GAS CALL DUP1 ISZERO PUSH2 0x564 JUMPI PUSH2 0x550 JUMPI JUMPDEST POP POP PUSH32 0xE3FC4D8C7984F762222579E0C4564A72A74F96CDE3F6BAE2751D01108C6EC240 DUP4 DUP3 MLOAD DUP5 DUP2 MSTORE LOG1 MLOAD SWAP1 DUP2 MSTORE RETURN JUMPDEST PUSH2 0x55A DUP3 SWAP2 PUSH2 0x93C JUMP JUMPDEST PUSH2 0x2EB JUMPI DUP1 PUSH2 0x520 JUMP JUMPDEST DUP4 MLOAD RETURNDATASIZE DUP5 DUP3 RETURNDATACOPY RETURNDATASIZE SWAP1 REVERT JUMPDEST DUP4 DUP1 REVERT JUMPDEST PUSH2 0x57B SWAP1 PUSH2 0x93C JUMP JUMPDEST PUSH2 0x56E JUMPI DUP4 CODESIZE PUSH2 0x4B1 JUMP JUMPDEST DUP7 MLOAD RETURNDATASIZE DUP8 DUP3 RETURNDATACOPY RETURNDATASIZE SWAP1 REVERT JUMPDEST DUP9 DUP1 REVERT JUMPDEST PUSH1 0x64 DUP6 DUP13 DUP12 MLOAD SWAP2 PUSH32 0x8C379A000000000000000000000000000000000000000000000000000000000 DUP4 MSTORE DUP3 ADD MSTORE PUSH1 0x19 PUSH1 0x24 DUP3 ADD MSTORE PUSH32 0x437265617465323A204661696C6564206F6E206465706C6F7900000000000000 PUSH1 0x44 DUP3 ADD MSTORE REVERT JUMPDEST PUSH1 0x64 DUP8 DUP15 DUP1 DUP15 MLOAD SWAP3 PUSH32 0x8C379A000000000000000000000000000000000000000000000000000000000 DUP5 MSTORE DUP4 ADD MSTORE PUSH1 0x24 DUP3 ADD MSTORE PUSH32 0x437265617465323A2062797465636F6465206C656E677468206973207A65726F PUSH1 0x44 DUP3 ADD MSTORE REVERT JUMPDEST POP POP CALLVALUE PUSH2 0x69C JUMPI DUP2 PUSH32 0xFFFFFFFFFFFFFFFFFFFFFFFFFFFFFFFFFFFFFFFFFFFFFFFFFFFFFFFFFFFFFFFC CALLDATASIZE ADD SLT PUSH2 0x69C JUMPI PUSH20 0xFFFFFFFFFFFFFFFFFFFFFFFFFFFFFFFFFFFFFFFF PUSH1 0x20 SWAP3 SLOAD AND SWAP1 MLOAD SWAP1 DUP2 MSTORE RETURN JUMPDEST POP DUP1 REVERT JUMPDEST DUP4 CALLVALUE PUSH2 0x2EB JUMPI DUP1 PUSH32 0xFFFFFFFFFFFFFFFFFFFFFFFFFFFFFFFFFFFFFFFFFFFFFFFFFFFFFFFFFFFFFFFC CALLDATASIZE ADD SLT PUSH2 0x2EB JUMPI PUSH2 0x6D7 PUSH2 0x8BD JUMP JUMPDEST PUSH1 0x0 PUSH20 0xFFFFFFFFFFFFFFFFFFFFFFFFFFFFFFFFFFFFFFFF DUP2 SLOAD PUSH32 0xFFFFFFFFFFFFFFFFFFFFFFFF0000000000000000000000000000000000000000 DUP2 AND DUP4 SSTORE AND PUSH32 0x8BE0079C531659141344CD1FD0A4F28419497F9722A3DAAFE3B4186F6B6457E0 DUP3 DUP1 LOG3 DUP1 RETURN JUMPDEST POP POP CALLVALUE PUSH2 0x69C JUMPI DUP2 PUSH32 0xFFFFFFFFFFFFFFFFFFFFFFFFFFFFFFFFFFFFFFFFFFFFFFFFFFFFFFFFFFFFFFFC CALLDATASIZE ADD SLT PUSH2 0x69C JUMPI PUSH1 0x20 SWAP1 PUSH20 0xFFFFFFFFFFFFFFFFFFFFFFFFFFFFFFFFFFFFFFFF PUSH1 0x1 SLOAD AND SWAP1 MLOAD SWAP1 DUP2 MSTORE RETURN JUMPDEST POP SWAP1 CALLVALUE PUSH2 0x1A6 JUMPI PUSH1 0x20 PUSH32 0xFFFFFFFFFFFFFFFFFFFFFFFFFFFFFFFFFFFFFFFFFFFFFFFFFFFFFFFFFFFFFFFC CALLDATASIZE ADD SLT PUSH2 0x1A6 JUMPI DUP3 PUSH2 0x7CA PUSH2 0x84F JUMP JUMPDEST PUSH2 0x7D2 PUSH2 0x8BD JUMP JUMPDEST PUSH20 0xFFFFFFFFFFFFFFFFFFFFFFFFFFFFFFFFFFFFFFFF SWAP1 DUP2 PUSH1 0x1 SLOAD AND SWAP1 DUP2 EXTCODESIZE ISZERO PUSH2 0x56E JUMPI DUP4 PUSH1 0x24 SWAP3 DUP7 MLOAD SWAP8 DUP9 SWAP6 DUP7 SWAP5 PUSH32 0x3659CFE600000000000000000000000000000000000000000000000000000000 DUP7 MSTORE AND SWAP1 DUP5 ADD MSTORE GAS CALL SWAP1 DUP2 ISZERO PUSH2 0x846 JUMPI POP PUSH2 0x83A JUMPI POP DUP1 RETURN JUMPDEST PUSH2 0x843 SWAP1 PUSH2 0x93C JUMP JUMPDEST DUP1 RETURN JUMPDEST MLOAD RETURNDATASIZE DUP5 DUP3 RETURNDATACOPY RETURNDATASIZE SWAP1 REVERT JUMPDEST PUSH1 0x4 CALLDATALOAD SWAP1 PUSH20 0xFFFFFFFFFFFFFFFFFFFFFFFFFFFFFFFFFFFFFFFF DUP3 AND DUP3 SUB PUSH2 0x872 JUMPI JUMP JUMPDEST PUSH1 0x0 DUP1 REVERT JUMPDEST PUSH1 0x24 CALLDATALOAD SWAP1 PUSH20 0xFFFFFFFFFFFFFFFFFFFFFFFFFFFFFFFFFFFFFFFF DUP3 AND DUP3 SUB PUSH2 0x872 JUMPI JUMP JUMPDEST PUSH1 0x44 CALLDATALOAD SWAP1 PUSH20 0xFFFFFFFFFFFFFFFFFFFFFFFFFFFFFFFFFFFFFFFF DUP3 AND DUP3 SUB PUSH2 0x872 JUMPI JUMP JUMPDEST PUSH20 0xFFFFFFFFFFFFFFFFFFFFFFFFFFFFFFFFFFFFFFFF PUSH1 0x0 SLOAD AND CALLER SUB PUSH2 0x8DE JUMPI JUMP JUMPDEST PUSH1 0x64 PUSH1 0x40 MLOAD PUSH32 0x8C379A000000000000000000000000000000000000000000000000000000000 DUP2 MSTORE PUSH1 0x20 PUSH1 0x4 DUP3 ADD MSTORE PUSH1 0x20 PUSH1 0x24 DUP3 ADD MSTORE PUSH32 0x4F776E61626C653A2063616C6C6572206973206E6F7420746865206F776E6572 PUSH1 0x44 DUP3 ADD MSTORE REVERT JUMPDEST PUSH8 0xFFFFFFFFFFFFFFFF DUP2 GT PUSH2 0x950 JUMPI PUSH1 0x40 MSTORE JUMP JUMPDEST PUSH32 0x4E487B7100000000000000000000000000000000000000000000000000000000 PUSH1 0x0 MSTORE PUSH1 0x41 PUSH1 0x4 MSTORE PUSH1 0x24 PUSH1 0x0 REVERT JUMPDEST PUSH1 0x20 DUP2 ADD SWAP1 DUP2 LT PUSH8 0xFFFFFFFFFFFFFFFF DUP3 GT OR PUSH2 0x950 JUMPI PUSH1 0x40 MSTORE JUMP JUMPDEST SWAP1 PUSH1 0x1F PUSH32 0xFFFFFFFFFFFFFFFFFFFFFFFFFFFFFFFFFFFFFFFFFFFFFFFFFFFFFFFFFFFFFFE0 SWAP2 ADD AND DUP2 ADD SWAP1 DUP2 LT PUSH8 0xFFFFFFFFFFFFFFFF DUP3 GT OR PUSH2 0x950 JUMPI PUSH1 0x40 MSTORE JUMP JUMPDEST PUSH1 0x0 JUMPDEST DUP4 DUP2 LT PUSH2 0x9EF JUMPI POP POP PUSH1 0x0 SWAP2 ADD MSTORE JUMP JUMPDEST DUP2 DUP2 ADD MLOAD DUP4 DUP3 ADD MSTORE PUSH1 0x20 ADD PUSH2 0x9DF JUMP JUMPDEST SWAP2 SWAP1 SWAP3 PUSH1 0x48 SWAP5 SWAP4 DUP4 MSTORE PUSH32 0xFFFFFFFFFFFFFFFFFFFFFFFFFFFFFFFFFFFFFFFF000000000000000000000000 DUP1 SWAP3 PUSH1 0x60 SHL AND PUSH1 0x20 DUP5 ADD MSTORE PUSH1 0x60 SHL AND PUSH1 0x34 DUP3 ADD MSTORE PUSH2 0xA50 DUP3 MLOAD DUP1 SWAP4 PUSH1 0x20 DUP7 DUP6 ADD SWAP2 ADD PUSH2 0x9DC JUMP JUMPDEST ADD ADD SWAP1 JUMP INVALID PUSH1 0x80 DUP1 PUSH1 0x40 MSTORE CALLVALUE PUSH2 0x16 JUMPI PUSH2 0x11CF SWAP1 DUP2 PUSH2 0x1C DUP3 CODECOPY RETURN JUMPDEST PUSH1 0x0 DUP1 REVERT INVALID PUSH1 0x40 PUSH1 0x80 DUP2 MSTORE CALLDATASIZE PUSH2 0x382 JUMPI PUSH20 0xFFFFFFFFFFFFFFFFFFFFFFFFFFFFFFFFFFFFFFFF DUP1 PUSH32 0xB53127684A568B3173AE13B9F8A6016E243E63B6E8EE1178D6A717850B5D6103 SLOAD AND ISZERO DUP1 ISZERO PUSH2 0xB94 JUMPI PUSH1 0x0 SWAP2 PUSH32 0xCF7A1D7700000000000000000000000000000000000000000000000000000000 PUSH32 0xFFFFFFFF00000000000000000000000000000000000000000000000000000000 DUP5 CALLDATALOAD AND EQ PUSH2 0xC0 JUMPI PUSH1 0x4 DUP5 MLOAD PUSH32 0xF92EE8A900000000000000000000000000000000000000000000000000000000 DUP2 MSTORE REVERT JUMPDEST PUSH2 0xC8 PUSH2 0x1192 JUMP JUMPDEST PUSH1 0x4 SWAP2 CALLDATASIZE DUP4 GT PUSH2 0x37E JUMPI PUSH1 0x60 PUSH32 0xFFFFFFFFFFFFFFFFFFFFFFFFFFFFFFFFFFFFFFFFFFFFFFFFFFFFFFFFFFFFFFFC CALLDATASIZE ADD SLT PUSH2 0x37E JUMPI DUP3 CALLDATALOAD SWAP2 PUSH2 0x108 DUP4 PUSH2 0x67F JUMP JUMPDEST PUSH1 0x24 CALLDATALOAD SWAP3 PUSH2 0x115 DUP5 PUSH2 0x67F JUMP JUMPDEST PUSH1 0x44 CALLDATALOAD PUSH8 0xFFFFFFFFFFFFFFFF DUP2 GT PUSH2 0x37A JUMPI PUSH2 0x135 DUP4 SWAP2 CALLDATASIZE SWAP1 DUP9 ADD PUSH2 0x789 JUMP JUMPDEST SWAP5 AND SWAP3 ISZERO PUSH2 0x352 JUMPI PUSH2 0x147 SWAP2 AND PUSH2 0x7E3 JUMP JUMPDEST DUP1 EXTCODESIZE ISZERO PUSH2 0x2CF JUMPI DUP5 MLOAD SWAP1 PUSH32 0x5C60DA1B00000000000000000000000000000000000000000000000000000000 SWAP4 DUP5 DUP4 MSTORE PUSH1 0x20 SWAP7 DUP8 DUP5 DUP4 DUP2 DUP7 GAS STATICCALL SWAP4 DUP5 ISZERO PUSH2 0x2A6 JUMPI DUP9 SWAP5 PUSH2 0x19D SWAP2 DUP10 SWAP2 PUSH2 0x2B2 JUMPI JUMPDEST POP EXTCODESIZE ISZERO ISZERO PUSH2 0x926 JUMP JUMPDEST PUSH32 0xA3F0AD74E5423AEBFD80D3EF4346578335A9A72AEAEE59FF6CB3582B35133D50 DUP1 SLOAD PUSH32 0xFFFFFFFFFFFFFFFFFFFFFFFF0000000000000000000000000000000000000000 AND PUSH20 0xFFFFFFFFFFFFFFFFFFFFFFFFFFFFFFFFFFFFFFFF DUP6 AND OR SWAP1 SSTORE MLOAD SWAP5 DUP3 PUSH32 0x1CF3B03A6CF19FA2BABA4DF148E9DCABEDEA7F8A5C07840E207E5C089BE95D3E DUP9 DUP1 LOG2 DUP5 MLOAD ISZERO DUP1 ISZERO SWAP1 PUSH2 0x2AB JUMPI JUMPDEST PUSH2 0x242 JUMPI JUMPDEST DUP4 PUSH2 0x23C PUSH2 0x7D0 JUMP JUMPDEST DUP1 MLOAD SWAP2 ADD RETURN JUMPDEST DUP6 SWAP3 DUP4 SWAP2 DUP3 MSTORE GAS STATICCALL SWAP2 DUP3 ISZERO PUSH2 0x2A6 JUMPI PUSH2 0x26A SWAP4 SWAP3 PUSH2 0x277 JUMPI JUMPDEST POP PUSH2 0x264 PUSH2 0x9B1 JUMP JUMPDEST SWAP2 PUSH2 0xA21 JUMP JUMPDEST POP CODESIZE DUP1 DUP1 DUP4 DUP2 DUP1 DUP1 PUSH2 0x233 JUMP JUMPDEST PUSH2 0x298 SWAP2 SWAP3 POP DUP5 RETURNDATASIZE DUP7 GT PUSH2 0x29F JUMPI JUMPDEST PUSH2 0x290 DUP2 DUP4 PUSH2 0x70E JUMP JUMPDEST DUP2 ADD SWAP1 PUSH2 0x902 JUMP JUMPDEST SWAP1 CODESIZE PUSH2 0x25B JUMP JUMPDEST POP RETURNDATASIZE PUSH2 0x286 JUMP JUMPDEST PUSH2 0x91A JUMP JUMPDEST POP DUP7 PUSH2 0x22E JUMP JUMPDEST PUSH2 0x2C9 SWAP2 POP DUP7 RETURNDATASIZE DUP9 GT PUSH2 0x29F JUMPI PUSH2 0x290 DUP2 DUP4 PUSH2 0x70E JUMP JUMPDEST CODESIZE PUSH2 0x194 JUMP JUMPDEST PUSH1 0x84 DUP4 PUSH1 0x20 DUP8 MLOAD SWAP2 PUSH32 0x8C379A000000000000000000000000000000000000000000000000000000000 DUP4 MSTORE DUP3 ADD MSTORE PUSH1 0x25 PUSH1 0x24 DUP3 ADD MSTORE PUSH32 0x455243313936373A206E657720626561636F6E206973206E6F74206120636F6E PUSH1 0x44 DUP3 ADD MSTORE PUSH32 0x7472616374000000000000000000000000000000000000000000000000000000 PUSH1 0x64 DUP3 ADD MSTORE REVERT JUMPDEST DUP5 DUP8 MLOAD PUSH32 0xF92EE8A900000000000000000000000000000000000000000000000000000000 DUP2 MSTORE REVERT JUMPDEST DUP7 DUP1 REVERT JUMPDEST DUP4 DUP1 REVERT JUMPDEST PUSH20 0xFFFFFFFFFFFFFFFFFFFFFFFFFFFFFFFFFFFFFFFF DUP1 PUSH32 0xB53127684A568B3173AE13B9F8A6016E243E63B6E8EE1178D6A717850B5D6103 SLOAD AND ISZERO DUP1 ISZERO PUSH2 0xB94 JUMPI PUSH1 0x0 SWAP1 PUSH32 0xCF7A1D7700000000000000000000000000000000000000000000000000000000 PUSH32 0xFFFFFFFF00000000000000000000000000000000000000000000000000000000 DUP4 CALLDATALOAD AND EQ PUSH2 0x439 JUMPI PUSH1 0x4 PUSH1 0x40 MLOAD PUSH32 0xF92EE8A900000000000000000000000000000000000000000000000000000000 DUP2 MSTORE REVERT JUMPDEST PUSH2 0x441 PUSH2 0x1192 JUMP JUMPDEST PUSH1 0x4 SWAP3 CALLDATASIZE DUP5 GT PUSH2 0x67B JUMPI PUSH1 0x60 PUSH32 0xFFFFFFFFFFFFFFFFFFFFFFFFFFFFFFFFFFFFFFFFFFFFFFFFFFFFFFFFFFFFFFFC CALLDATASIZE ADD SLT PUSH2 0x67B JUMPI DUP4 CALLDATALOAD PUSH2 0x480 DUP2 PUSH2 0x67F JUMP JUMPDEST PUSH1 0x24 CALLDATALOAD SWAP2 PUSH2 0x48D DUP4 PUSH2 0x67F JUMP JUMPDEST PUSH1 0x44 CALLDATALOAD PUSH8 0xFFFFFFFFFFFFFFFF DUP2 GT PUSH2 0x677 JUMPI PUSH2 0x4AD DUP3 SWAP2 CALLDATASIZE SWAP1 DUP10 ADD PUSH2 0x789 JUMP JUMPDEST SWAP4 AND SWAP4 ISZERO PUSH2 0x64E JUMPI PUSH2 0x4BF SWAP2 AND PUSH2 0x7E3 JUMP JUMPDEST DUP2 EXTCODESIZE ISZERO PUSH2 0x5CA JUMPI PUSH1 0x40 MLOAD PUSH32 0x5C60DA1B00000000000000000000000000000000000000000000000000000000 SWAP3 DUP4 DUP3 MSTORE PUSH1 0x20 SWAP6 DUP7 DUP4 DUP3 DUP2 DUP6 GAS STATICCALL SWAP3 DUP4 ISZERO PUSH2 0x2A6 JUMPI DUP8 SWAP4 PUSH2 0x514 SWAP2 DUP9 SWAP2 PUSH2 0x5B3 JUMPI POP EXTCODESIZE ISZERO ISZERO PUSH2 0x926 JUMP JUMPDEST PUSH32 0xA3F0AD74E5423AEBFD80D3EF4346578335A9A72AEAEE59FF6CB3582B35133D50 DUP1 SLOAD PUSH32 0xFFFFFFFFFFFFFFFFFFFFFFFF0000000000000000000000000000000000000000 AND PUSH20 0xFFFFFFFFFFFFFFFFFFFFFFFFFFFFFFFFFFFFFFFF DUP5 AND OR SWAP1 SSTORE PUSH1 0x40 MLOAD SWAP5 DUP3 PUSH32 0x1CF3B03A6CF19FA2BABA4DF148E9DCABEDEA7F8A5C07840E207E5C089BE95D3E DUP9 DUP1 LOG2 DUP5 MLOAD ISZERO DUP1 ISZERO SWAP1 PUSH2 0x2AB JUMPI PUSH2 0x242 JUMPI DUP4 PUSH2 0x23C PUSH2 0x7D0 JUMP JUMPDEST PUSH2 0x2C9 SWAP2 POP DUP6 RETURNDATASIZE DUP8 GT PUSH2 0x29F JUMPI PUSH2 0x290 DUP2 DUP4 PUSH2 0x70E JUMP JUMPDEST PUSH1 0x84 DUP5 PUSH1 0x20 PUSH1 0x40 MLOAD SWAP2 PUSH32 0x8C379A000000000000000000000000000000000000000000000000000000000 DUP4 MSTORE DUP3 ADD MSTORE PUSH1 0x25 PUSH1 0x24 DUP3 ADD MSTORE PUSH32 0x455243313936373A206E657720626561636F6E206973206E6F74206120636F6E PUSH1 0x44 DUP3 ADD MSTORE PUSH32 0x7472616374000000000000000000000000000000000000000000000000000000 PUSH1 0x64 DUP3 ADD MSTORE REVERT JUMPDEST DUP6 PUSH1 0x40 MLOAD PUSH32 0xF92EE8A900000000000000000000000000000000000000000000000000000000 DUP2 MSTORE REVERT JUMPDEST DUP6 DUP1 REVERT JUMPDEST DUP3 DUP1 REVERT JUMPDEST PUSH20 0xFFFFFFFFFFFFFFFFFFFFFFFFFFFFFFFFFFFFFFFF DUP2 AND SUB PUSH2 0x69D JUMPI JUMP JUMPDEST PUSH1 0x0 DUP1 REVERT JUMPDEST PUSH32 0x4E487B7100000000000000000000000000000000000000000000000000000000 PUSH1 0x0 MSTORE PUSH1 0x41 PUSH1 0x4 MSTORE PUSH1 0x24 PUSH1 0x0 REVERT JUMPDEST PUSH1 0x20 DUP2 ADD SWAP1 DUP2 LT PUSH8 0xFFFFFFFFFFFFFFFF DUP3 GT OR PUSH2 0x6ED JUMPI PUSH1 0x40 MSTORE JUMP JUMPDEST PUSH2 0x6A2 JUMP JUMPDEST PUSH1 0x40 DUP2 ADD SWAP1 DUP2 LT PUSH8 0xFFFFFFFFFFFFFFFF DUP3 GT OR PUSH2 0x6ED JUMPI PUSH1 0x40 MSTORE JUMP JUMPDEST SWAP1 PUSH1 0x1F PUSH32 0xFFFFFFFFFFFFFFFFFFFFFFFFFFFFFFFFFFFFFFFFFFFFFFFFFFFFFFFFFFFFFFE0 SWAP2 ADD AND DUP2 ADD SWAP1 DUP2 LT PUSH8 0xFFFFFFFFFFFFFFFF DUP3 GT OR PUSH2 0x6ED JUMPI PUSH1 0x40 MSTORE JUMP JUMPDEST PUSH8 0xFFFFFFFFFFFFFFFF DUP2 GT PUSH2 0x6ED JUMPI PUSH1 0x1F ADD PUSH32 0xFFFFFFFFFFFFFFFFFFFFFFFFFFFFFFFFFFFFFFFFFFFFFFFFFFFFFFFFFFFFFFE0 AND PUSH1 0x20 ADD SWAP1 JUMP JUMPDEST DUP2 PUSH1 0x1F DUP3 ADD SLT ISZERO PUSH2 0x69D JUMPI DUP1 CALLDATALOAD SWAP1 PUSH2 0x7A0 DUP3 PUSH2 0x74F JUMP JUMPDEST SWAP3 PUSH2 0x7AE PUSH1 0x40 MLOAD SWAP5 DUP6 PUSH2 0x70E JUMP JUMPDEST DUP3 DUP5 MSTORE PUSH1 0x20 DUP4 DUP4 ADD ADD GT PUSH2 0x69D JUMPI DUP2 PUSH1 0x0 SWAP3 PUSH1 0x20 DUP1 SWAP4 ADD DUP4 DUP7 ADD CALLDATACOPY DUP4 ADD ADD MSTORE SWAP1 JUMP JUMPDEST PUSH1 0x40 MLOAD SWAP1 PUSH2 0x7DD DUP3 PUSH2 0x6D1 JUMP JUMPDEST PUSH1 0x0 DUP3 MSTORE JUMP JUMPDEST PUSH32 0xB53127684A568B3173AE13B9F8A6016E243E63B6E8EE1178D6A717850B5D6103 SWAP1 DUP2 SLOAD PUSH32 0x7E644D79422F17C01E4894B5F4F588D331EBFA28653D42AE832DC59E38C9798F PUSH1 0x40 DUP1 MLOAD SWAP4 PUSH20 0xFFFFFFFFFFFFFFFFFFFFFFFFFFFFFFFFFFFFFFFF SWAP1 DUP2 DUP6 AND DUP7 MSTORE AND SWAP4 DUP5 PUSH1 0x20 DUP3 ADD MSTORE LOG1 DUP2 ISZERO PUSH2 0x87E JUMPI PUSH32 0xFFFFFFFFFFFFFFFFFFFFFFFF0000000000000000000000000000000000000000 AND OR SWAP1 SSTORE JUMP JUMPDEST PUSH1 0x84 PUSH1 0x40 MLOAD PUSH32 0x8C379A000000000000000000000000000000000000000000000000000000000 DUP2 MSTORE PUSH1 0x20 PUSH1 0x4 DUP3 ADD MSTORE PUSH1 0x26 PUSH1 0x24 DUP3 ADD MSTORE PUSH32 0x455243313936373A206E65772061646D696E20697320746865207A65726F2061 PUSH1 0x44 DUP3 ADD MSTORE PUSH32 0x6464726573730000000000000000000000000000000000000000000000000000 PUSH1 0x64 DUP3 ADD MSTORE REVERT JUMPDEST SWAP1 DUP2 PUSH1 0x20 SWAP2 SUB SLT PUSH2 0x69D JUMPI MLOAD PUSH2 0x917 DUP2 PUSH2 0x67F JUMP JUMPDEST SWAP1 JUMP JUMPDEST PUSH1 0x40 MLOAD RETURNDATASIZE PUSH1 0x0 DUP3 RETURNDATACOPY RETURNDATASIZE SWAP1 REVERT JUMPDEST ISZERO PUSH2 0x92D JUMPI JUMP JUMPDEST PUSH1 0x84 PUSH1 0x40 MLOAD PUSH32 0x8C379A000000000000000000000000000000000000000000000000000000000 DUP2 MSTORE PUSH1 0x20 PUSH1 0x4 DUP3 ADD MSTORE PUSH1 0x30 PUSH1 0x24 DUP3 ADD MSTORE PUSH32 0x455243313936373A20626561636F6E20696D706C656D656E746174696F6E2069 PUSH1 0x44 DUP3 ADD MSTORE PUSH32 0x73206E6F74206120636F6E747261637400000000000000000000000000000000 PUSH1 0x64 DUP3 ADD MSTORE REVERT JUMPDEST PUSH1 0x40 MLOAD SWAP1 PUSH1 0x60 DUP3 ADD DUP3 DUP2 LT PUSH8 0xFFFFFFFFFFFFFFFF DUP3 GT OR PUSH2 0x6ED JUMPI PUSH1 0x40 MSTORE PUSH1 0x27 DUP3 MSTORE PUSH32 0x206661696C656400000000000000000000000000000000000000000000000000 PUSH1 0x40 DUP4 PUSH32 0x416464726573733A206C6F772D6C6576656C2064656C65676174652063616C6C PUSH1 0x20 DUP3 ADD MSTORE ADD MSTORE JUMP JUMPDEST PUSH1 0x0 DUP1 PUSH2 0x917 SWAP5 SWAP4 PUSH1 0x20 DUP2 MLOAD SWAP2 ADD DUP5 GAS DELEGATECALL RETURNDATASIZE ISZERO PUSH2 0xA60 JUMPI RETURNDATASIZE SWAP2 PUSH2 0xA43 DUP4 PUSH2 0x74F JUMP JUMPDEST SWAP3 PUSH2 0xA51 PUSH1 0x40 MLOAD SWAP5 DUP6 PUSH2 0x70E JUMP JUMPDEST DUP4 MSTORE RETURNDATASIZE PUSH1 0x0 PUSH1 0x20 DUP6 ADD RETURNDATACOPY PUSH2 0xACD JUMP JUMPDEST PUSH1 0x60 SWAP2 PUSH2 0xACD JUMP JUMPDEST ISZERO PUSH2 0xA6F JUMPI JUMP JUMPDEST PUSH1 0x64 PUSH1 0x40 MLOAD PUSH32 0x8C379A000000000000000000000000000000000000000000000000000000000 DUP2 MSTORE PUSH1 0x20 PUSH1 0x4 DUP3 ADD MSTORE PUSH1 0x1D PUSH1 0x24 DUP3 ADD MSTORE PUSH32 0x416464726573733A2063616C6C20746F206E6F6E2D636F6E7472616374000000 PUSH1 0x44 DUP3 ADD MSTORE REVERT JUMPDEST SWAP2 SWAP3 SWAP1 ISZERO PUSH2 0xAED JUMPI POP DUP2 MLOAD ISZERO PUSH2 0xAE1 JUMPI POP SWAP1 JUMP JUMPDEST PUSH2 0x917 SWAP1 EXTCODESIZE ISZERO ISZERO PUSH2 0xA68 JUMP JUMPDEST DUP3 MLOAD SWAP1 SWAP2 POP ISZERO PUSH2 0xB00 JUMPI POP DUP1 MLOAD SWAP1 PUSH1 0x20 ADD REVERT JUMPDEST PUSH1 0x40 MLOAD SWAP1 PUSH32 0x8C379A000000000000000000000000000000000000000000000000000000000 DUP3 MSTORE DUP2 PUSH1 0x20 DUP1 PUSH1 0x4 DUP4 ADD MSTORE DUP3 MLOAD SWAP3 DUP4 PUSH1 0x24 DUP5 ADD MSTORE PUSH1 0x0 JUMPDEST DUP5 DUP2 LT PUSH2 0xB7D JUMPI POP POP POP PUSH32 0xFFFFFFFFFFFFFFFFFFFFFFFFFFFFFFFFFFFFFFFFFFFFFFFFFFFFFFFFFFFFFFE0 PUSH1 0x1F DUP4 PUSH1 0x0 PUSH1 0x44 DUP1 SWAP7 DUP7 ADD ADD MSTORE ADD AND DUP2 ADD SUB ADD SWAP1 REVERT JUMPDEST DUP2 DUP2 ADD DUP4 ADD MLOAD DUP7 DUP3 ADD PUSH1 0x44 ADD MSTORE DUP6 SWAP4 POP DUP3 ADD PUSH2 0xB3C JUMP JUMPDEST PUSH2 0xBEE PUSH2 0xBD5 PUSH32 0xB53127684A568B3173AE13B9F8A6016E243E63B6E8EE1178D6A717850B5D6103 SLOAD PUSH20 0xFFFFFFFFFFFFFFFFFFFFFFFFFFFFFFFFFFFFFFFF AND SWAP1 JUMP JUMPDEST PUSH20 0xFFFFFFFFFFFFFFFFFFFFFFFFFFFFFFFFFFFFFFFF AND SWAP1 JUMP JUMPDEST CALLER SUB PUSH2 0xD14 JUMPI PUSH1 0x0 CALLDATALOAD PUSH32 0xFFFFFFFF00000000000000000000000000000000000000000000000000000000 AND PUSH32 0x3659CFE600000000000000000000000000000000000000000000000000000000 DUP2 SUB PUSH2 0xC51 JUMPI POP PUSH2 0xC49 PUSH2 0xF0F JUMP JUMPDEST PUSH1 0x20 DUP2 MLOAD SWAP2 ADD RETURN JUMPDEST PUSH32 0x4F1EF28600000000000000000000000000000000000000000000000000000000 DUP2 SUB PUSH2 0xC86 JUMPI POP PUSH2 0xC81 PUSH2 0x1083 JUMP JUMPDEST PUSH2 0xC49 JUMP JUMPDEST PUSH32 0x8F28397000000000000000000000000000000000000000000000000000000000 DUP2 SUB PUSH2 0xCB6 JUMPI POP PUSH2 0xC81 PUSH2 0xEC5 JUMP JUMPDEST PUSH32 0xF851A44000000000000000000000000000000000000000000000000000000000 DUP2 SUB PUSH2 0xCE6 JUMPI POP PUSH2 0xC81 PUSH2 0xDFD JUMP JUMPDEST PUSH32 0x5C60DA1B00000000000000000000000000000000000000000000000000000000 SUB PUSH2 0xD14 JUMPI PUSH2 0xC81 PUSH2 0xE53 JUMP JUMPDEST PUSH2 0xD1C PUSH2 0xD3B JUMP JUMPDEST PUSH1 0x0 DUP1 DUP1 SWAP3 CALLDATASIZE DUP3 DUP1 CALLDATACOPY DUP2 CALLDATASIZE SWAP2 GAS DELEGATECALL RETURNDATASIZE DUP3 DUP1 RETURNDATACOPY ISZERO PUSH2 0xD37 JUMPI RETURNDATASIZE SWAP1 RETURN JUMPDEST RETURNDATASIZE SWAP1 REVERT JUMPDEST PUSH20 0xFFFFFFFFFFFFFFFFFFFFFFFFFFFFFFFFFFFFFFFF DUP1 PUSH32 0x360894A13BA1A3210667C828492DB98DCA3E2076CC3735A920A3CA505D382BBC SLOAD AND DUP1 PUSH2 0xDF8 JUMPI POP PUSH1 0x20 PUSH1 0x4 SWAP2 PUSH32 0xA3F0AD74E5423AEBFD80D3EF4346578335A9A72AEAEE59FF6CB3582B35133D50 SLOAD AND PUSH1 0x40 MLOAD SWAP3 DUP4 DUP1 SWAP3 PUSH32 0x5C60DA1B00000000000000000000000000000000000000000000000000000000 DUP3 MSTORE GAS STATICCALL SWAP1 DUP2 ISZERO PUSH2 0x2A6 JUMPI PUSH1 0x0 SWAP2 PUSH2 0xDE0 JUMPI POP SWAP1 JUMP JUMPDEST PUSH2 0x917 SWAP2 POP PUSH1 0x20 RETURNDATASIZE DUP2 GT PUSH2 0x29F JUMPI PUSH2 0x290 DUP2 DUP4 PUSH2 0x70E JUMP JUMPDEST SWAP1 POP SWAP1 JUMP JUMPDEST PUSH2 0xE05 PUSH2 0x1192 JUMP JUMPDEST PUSH20 0xFFFFFFFFFFFFFFFFFFFFFFFFFFFFFFFFFFFFFFFF PUSH32 0xB53127684A568B3173AE13B9F8A6016E243E63B6E8EE1178D6A717850B5D6103 SLOAD AND PUSH1 0x40 MLOAD SWAP1 PUSH1 0x20 DUP3 ADD MSTORE PUSH1 0x20 DUP2 MSTORE PUSH2 0x917 DUP2 PUSH2 0x6F2 JUMP JUMPDEST PUSH2 0xE5B PUSH2 0x1192 JUMP JUMPDEST PUSH2 0xE63 PUSH2 0xD3B JUMP JUMPDEST PUSH20 0xFFFFFFFFFFFFFFFFFFFFFFFFFFFFFFFFFFFFFFFF PUSH1 0x40 MLOAD SWAP2 AND PUSH1 0x20 DUP3 ADD MSTORE PUSH1 0x20 DUP2 MSTORE PUSH2 0x917 DUP2 PUSH2 0x6F2 JUMP JUMPDEST PUSH32 0xFFFFFFFFFFFFFFFFFFFFFFFFFFFFFFFFFFFFFFFFFFFFFFFFFFFFFFFFFFFFFFFC PUSH1 0x20 SWAP2 ADD SLT PUSH2 0x69D JUMPI PUSH1 0x4 CALLDATALOAD PUSH2 0x917 DUP2 PUSH2 0x67F JUMP JUMPDEST PUSH2 0xECD PUSH2 0x1192 JUMP JUMPDEST CALLDATASIZE PUSH1 0x4 GT PUSH2 0x69D JUMPI PUSH2 0xEFC PUSH20 0xFFFFFFFFFFFFFFFFFFFFFFFFFFFFFFFFFFFFFFFF PUSH2 0xEF6 CALLDATASIZE PUSH2 0xE8F JUMP JUMPDEST AND PUSH2 0x7E3 JUMP JUMPDEST PUSH1 0x40 MLOAD PUSH2 0xF08 DUP2 PUSH2 0x6D1 JUMP JUMPDEST PUSH1 0x0 DUP2 MSTORE SWAP1 JUMP JUMPDEST PUSH2 0xF17 PUSH2 0x1192 JUMP JUMPDEST CALLDATASIZE PUSH1 0x4 GT PUSH2 0x69D JUMPI PUSH20 0xFFFFFFFFFFFFFFFFFFFFFFFFFFFFFFFFFFFFFFFF PUSH2 0xF3D CALLDATASIZE PUSH2 0xE8F JUMP JUMPDEST AND PUSH1 0x40 MLOAD SWAP1 PUSH2 0xF4B DUP3 PUSH2 0x6D1 JUMP JUMPDEST PUSH1 0x0 DUP3 MSTORE DUP1 EXTCODESIZE ISZERO PUSH2 0xFFF JUMPI PUSH32 0x360894A13BA1A3210667C828492DB98DCA3E2076CC3735A920A3CA505D382BBC DUP2 PUSH32 0xFFFFFFFFFFFFFFFFFFFFFFFF0000000000000000000000000000000000000000 DUP3 SLOAD AND OR SWAP1 SSTORE DUP1 PUSH32 0xBC7CD75A20EE27FD9ADEBAB32041F755214DBC6BFFA90CC0225B39DA2E5C2D3B PUSH1 0x0 DUP1 LOG2 DUP2 MLOAD ISZERO DUP1 ISZERO SWAP1 PUSH2 0xFF7 JUMPI JUMPDEST PUSH2 0xFE3 JUMPI JUMPDEST POP POP PUSH1 0x40 MLOAD PUSH2 0xF08 DUP2 PUSH2 0x6D1 JUMP JUMPDEST PUSH2 0xFEF SWAP2 PUSH2 0x264 PUSH2 0x9B1 JUMP JUMPDEST POP CODESIZE DUP1 PUSH2 0xFD5 JUMP JUMPDEST POP PUSH1 0x0 PUSH2 0xFD0 JUMP JUMPDEST PUSH1 0x84 PUSH1 0x40 MLOAD PUSH32 0x8C379A000000000000000000000000000000000000000000000000000000000 DUP2 MSTORE PUSH1 0x20 PUSH1 0x4 DUP3 ADD MSTORE PUSH1 0x2D PUSH1 0x24 DUP3 ADD MSTORE PUSH32 0x455243313936373A206E657720696D706C656D656E746174696F6E206973206E PUSH1 0x44 DUP3 ADD MSTORE PUSH32 0x6F74206120636F6E747261637400000000000000000000000000000000000000 PUSH1 0x64 DUP3 ADD MSTORE REVERT JUMPDEST CALLDATASIZE PUSH1 0x4 GT PUSH2 0x69D JUMPI PUSH1 0x40 PUSH32 0xFFFFFFFFFFFFFFFFFFFFFFFFFFFFFFFFFFFFFFFFFFFFFFFFFFFFFFFFFFFFFFFC CALLDATASIZE ADD SLT PUSH2 0x69D JUMPI PUSH1 0x4 CALLDATALOAD PUSH2 0x10C1 DUP2 PUSH2 0x67F JUMP JUMPDEST PUSH1 0x24 CALLDATALOAD PUSH8 0xFFFFFFFFFFFFFFFF DUP2 GT PUSH2 0x69D JUMPI PUSH2 0x10F6 PUSH20 0xFFFFFFFFFFFFFFFFFFFFFFFFFFFFFFFFFFFFFFFF SWAP2 CALLDATASIZE SWAP1 PUSH1 0x4 ADD PUSH2 0x789 JUMP JUMPDEST SWAP2 AND DUP1 EXTCODESIZE ISZERO PUSH2 0xFFF JUMPI PUSH32 0x360894A13BA1A3210667C828492DB98DCA3E2076CC3735A920A3CA505D382BBC DUP2 PUSH32 0xFFFFFFFFFFFFFFFFFFFFFFFF0000000000000000000000000000000000000000 DUP3 SLOAD AND OR SWAP1 SSTORE DUP1 PUSH32 0xBC7CD75A20EE27FD9ADEBAB32041F755214DBC6BFFA90CC0225B39DA2E5C2D3B PUSH1 0x0 DUP1 LOG2 DUP2 MLOAD ISZERO DUP1 ISZERO SWAP1 PUSH2 0x118A JUMPI PUSH2 0xFE3 JUMPI POP POP PUSH1 0x40 MLOAD PUSH2 0xF08 DUP2 PUSH2 0x6D1 JUMP JUMPDEST POP PUSH1 0x1 PUSH2 0xFD0 JUMP JUMPDEST CALLVALUE PUSH2 0x69D JUMPI JUMP INVALID LOG2 PUSH5 0x6970667358 0x22 SLT KECCAK256 PUSH21 0xAD3060F809C0A3B330E975DFD539D895D2C29692FA ISZERO PUSH25 0x60C461B67AA37B9864736F6C63430008130033A26469706673 PC 0x22 SLT KECCAK256 DUP16 ADD PUSH17 0xF1BB758527B7F4CDBB1048AF235F1F3596 CALLER 0xAB GAS 0xC7 0xDD SWAP13 0xE4 0xDC SWAP5 DUP4 0xC8 0xC6 PUSH5 0x736F6C6343 STOP ADDMOD SGT STOP CALLER PUSH1 0x80 CALLVALUE PUSH2 0x11A JUMPI PUSH1 0x1F PUSH2 0x5EE CODESIZE DUP2 SWAP1 SUB SWAP2 DUP3 ADD PUSH1 0x1F NOT AND DUP4 ADD SWAP2 PUSH1 0x1 PUSH1 0x1 PUSH1 0x40 SHL SUB DUP4 GT DUP5 DUP5 LT OR PUSH2 0x11F JUMPI DUP1 DUP5 SWAP3 PUSH1 0x20 SWAP5 PUSH1 0x40 MSTORE DUP4 CODECOPY DUP2 ADD SUB SLT PUSH2 0x11A JUMPI MLOAD PUSH1 0x1 PUSH1 0x1 PUSH1 0xA0 SHL SUB DUP1 DUP3 AND SWAP2 SWAP1 DUP3 DUP3 SUB PUSH2 0x11A JUMPI PUSH1 0x0 SLOAD SWAP2 PUSH1 0x1 DUP1 PUSH1 0xA0 SHL SUB NOT SWAP3 CALLER DUP5 DUP3 AND OR PUSH1 0x0 SSTORE PUSH1 0x40 MLOAD SWAP3 CALLER SWAP2 AND PUSH32 0x8BE0079C531659141344CD1FD0A4F28419497F9722A3DAAFE3B4186F6B6457E0 PUSH1 0x0 DUP1 LOG3 EXTCODESIZE ISZERO PUSH2 0xB2 JUMPI POP PUSH1 0x1 SLOAD AND OR PUSH1 0x1 SSTORE PUSH1 0x40 MLOAD PUSH2 0x4B8 SWAP1 DUP2 PUSH2 0x136 DUP3 CODECOPY RETURN JUMPDEST PUSH3 0x461BCD PUSH1 0xE5 SHL DUP2 MSTORE PUSH1 0x20 PUSH1 0x4 DUP3 ADD MSTORE PUSH1 0x33 PUSH1 0x24 DUP3 ADD MSTORE PUSH32 0x5570677261646561626C65426561636F6E3A20696D706C656D656E746174696F PUSH1 0x44 DUP3 ADD MSTORE PUSH32 0x6E206973206E6F74206120636F6E747261637400000000000000000000000000 PUSH1 0x64 DUP3 ADD MSTORE PUSH1 0x84 SWAP1 REVERT JUMPDEST PUSH1 0x0 DUP1 REVERT JUMPDEST PUSH4 0x4E487B71 PUSH1 0xE0 SHL PUSH1 0x0 MSTORE PUSH1 0x41 PUSH1 0x4 MSTORE PUSH1 0x24 PUSH1 0x0 REVERT INVALID PUSH1 0x80 PUSH1 0x40 MSTORE PUSH1 0x4 CALLDATASIZE LT ISZERO PUSH2 0x12 JUMPI PUSH1 0x0 DUP1 REVERT JUMPDEST PUSH1 0x0 DUP1 CALLDATALOAD PUSH1 0xE0 SHR DUP1 PUSH4 0x3659CFE6 EQ PUSH2 0x2CE JUMPI DUP1 PUSH4 0x5C60DA1B EQ PUSH2 0x27C JUMPI DUP1 PUSH4 0x715018A6 EQ PUSH2 0x1E0 JUMPI DUP1 PUSH4 0x8DA5CB5B EQ PUSH2 0x18F JUMPI PUSH4 0xF2FDE38B EQ PUSH2 0x54 JUMPI PUSH1 0x0 DUP1 REVERT JUMPDEST CALLVALUE PUSH2 0x18C JUMPI PUSH1 0x20 PUSH32 0xFFFFFFFFFFFFFFFFFFFFFFFFFFFFFFFFFFFFFFFFFFFFFFFFFFFFFFFFFFFFFFFC CALLDATASIZE ADD SLT PUSH2 0x18C JUMPI PUSH1 0x4 CALLDATALOAD PUSH20 0xFFFFFFFFFFFFFFFFFFFFFFFFFFFFFFFFFFFFFFFF DUP1 DUP3 AND DUP1 SWAP3 SUB PUSH2 0x188 JUMPI PUSH2 0xAD PUSH2 0x403 JUMP JUMPDEST DUP2 ISZERO PUSH2 0x104 JUMPI DUP3 SLOAD DUP3 PUSH32 0xFFFFFFFFFFFFFFFFFFFFFFFF0000000000000000000000000000000000000000 DUP3 AND OR DUP5 SSTORE AND PUSH32 0x8BE0079C531659141344CD1FD0A4F28419497F9722A3DAAFE3B4186F6B6457E0 DUP4 DUP1 LOG3 DUP1 RETURN JUMPDEST PUSH1 0x84 PUSH1 0x40 MLOAD PUSH32 0x8C379A000000000000000000000000000000000000000000000000000000000 DUP2 MSTORE PUSH1 0x20 PUSH1 0x4 DUP3 ADD MSTORE PUSH1 0x26 PUSH1 0x24 DUP3 ADD MSTORE PUSH32 0x4F776E61626C653A206E6577206F776E657220697320746865207A65726F2061 PUSH1 0x44 DUP3 ADD MSTORE PUSH32 0x6464726573730000000000000000000000000000000000000000000000000000 PUSH1 0x64 DUP3 ADD MSTORE REVERT JUMPDEST DUP3 DUP1 REVERT JUMPDEST DUP1 REVERT JUMPDEST POP CALLVALUE PUSH2 0x18C JUMPI DUP1 PUSH32 0xFFFFFFFFFFFFFFFFFFFFFFFFFFFFFFFFFFFFFFFFFFFFFFFFFFFFFFFFFFFFFFFC CALLDATASIZE ADD SLT PUSH2 0x18C JUMPI PUSH20 0xFFFFFFFFFFFFFFFFFFFFFFFFFFFFFFFFFFFFFFFF PUSH1 0x20 SWAP2 SLOAD AND PUSH1 0x40 MLOAD SWAP1 DUP2 MSTORE RETURN JUMPDEST POP CALLVALUE PUSH2 0x18C JUMPI DUP1 PUSH32 0xFFFFFFFFFFFFFFFFFFFFFFFFFFFFFFFFFFFFFFFFFFFFFFFFFFFFFFFFFFFFFFFC CALLDATASIZE ADD SLT PUSH2 0x18C JUMPI PUSH2 0x217 PUSH2 0x403 JUMP JUMPDEST DUP1 PUSH20 0xFFFFFFFFFFFFFFFFFFFFFFFFFFFFFFFFFFFFFFFF DUP2 SLOAD PUSH32 0xFFFFFFFFFFFFFFFFFFFFFFFF0000000000000000000000000000000000000000 DUP2 AND DUP4 SSTORE AND PUSH32 0x8BE0079C531659141344CD1FD0A4F28419497F9722A3DAAFE3B4186F6B6457E0 DUP3 DUP1 LOG3 DUP1 RETURN JUMPDEST POP CALLVALUE PUSH2 0x18C JUMPI DUP1 PUSH32 0xFFFFFFFFFFFFFFFFFFFFFFFFFFFFFFFFFFFFFFFFFFFFFFFFFFFFFFFFFFFFFFFC CALLDATASIZE ADD SLT PUSH2 0x18C JUMPI PUSH1 0x20 PUSH20 0xFFFFFFFFFFFFFFFFFFFFFFFFFFFFFFFFFFFFFFFF PUSH1 0x1 SLOAD AND PUSH1 0x40 MLOAD SWAP1 DUP2 MSTORE RETURN JUMPDEST POP CALLVALUE PUSH2 0x18C JUMPI PUSH1 0x20 PUSH32 0xFFFFFFFFFFFFFFFFFFFFFFFFFFFFFFFFFFFFFFFFFFFFFFFFFFFFFFFFFFFFFFFC CALLDATASIZE ADD SLT PUSH2 0x18C JUMPI PUSH1 0x4 CALLDATALOAD PUSH20 0xFFFFFFFFFFFFFFFFFFFFFFFFFFFFFFFFFFFFFFFF DUP2 AND SWAP1 DUP2 DUP2 SUB PUSH2 0x188 JUMPI PUSH2 0x328 PUSH2 0x403 JUMP JUMPDEST EXTCODESIZE ISZERO PUSH2 0x37F JUMPI DUP1 PUSH32 0xFFFFFFFFFFFFFFFFFFFFFFFF0000000000000000000000000000000000000000 PUSH1 0x1 SLOAD AND OR PUSH1 0x1 SSTORE PUSH32 0xBC7CD75A20EE27FD9ADEBAB32041F755214DBC6BFFA90CC0225B39DA2E5C2D3B DUP3 DUP1 LOG2 DUP1 RETURN JUMPDEST PUSH1 0x84 PUSH1 0x40 MLOAD PUSH32 0x8C379A000000000000000000000000000000000000000000000000000000000 DUP2 MSTORE PUSH1 0x20 PUSH1 0x4 DUP3 ADD MSTORE PUSH1 0x33 PUSH1 0x24 DUP3 ADD MSTORE PUSH32 0x5570677261646561626C65426561636F6E3A20696D706C656D656E746174696F PUSH1 0x44 DUP3 ADD MSTORE PUSH32 0x6E206973206E6F74206120636F6E747261637400000000000000000000000000 PUSH1 0x64 DUP3 ADD MSTORE REVERT JUMPDEST PUSH20 0xFFFFFFFFFFFFFFFFFFFFFFFFFFFFFFFFFFFFFFFF PUSH1 0x0 SLOAD AND CALLER SUB PUSH2 0x424 JUMPI JUMP JUMPDEST PUSH1 0x64 PUSH1 0x40 MLOAD PUSH32 0x8C379A000000000000000000000000000000000000000000000000000000000 DUP2 MSTORE PUSH1 0x20 PUSH1 0x4 DUP3 ADD MSTORE PUSH1 0x20 PUSH1 0x24 DUP3 ADD MSTORE PUSH32 0x4F776E61626C653A2063616C6C6572206973206E6F7420746865206F776E6572 PUSH1 0x44 DUP3 ADD MSTORE REVERT INVALID LOG2 PUSH5 0x6970667358 0x22 SLT KECCAK256 KECCAK256 DUP5 NOT CALLDATASIZE SWAP16 0x26 0xB5 SWAP6 SWAP11 SWAP11 SGT 0xB6 PUSH3 0x721D5B 0xE2 SWAP9 0x5E SWAP13 0xC7 0xD2 0xD9 SGT SWAP16 LOG3 GAS 0x29 CODECOPY 0xA9 PUSH12 0xEE64736F6C63430008130033 PUSH1 0x80 DUP1 PUSH1 0x40 MSTORE CALLVALUE PUSH2 0x16 JUMPI PUSH2 0x244B SWAP1 DUP2 PUSH2 0x1C DUP3 CODECOPY RETURN JUMPDEST PUSH1 0x0 DUP1 REVERT INVALID PUSH1 0x80 PUSH1 0x40 DUP2 DUP2 MSTORE PUSH1 0x4 SWAP1 DUP2 CALLDATASIZE LT ISZERO PUSH2 0x16 JUMPI PUSH1 0x0 DUP1 REVERT JUMPDEST PUSH1 0x0 SWAP3 DUP4 CALLDATALOAD PUSH1 0xE0 SHR SWAP1 DUP2 PUSH4 0x1FFC9A7 EQ PUSH2 0x1673 JUMPI POP DUP1 PUSH4 0x668D0BB EQ PUSH2 0xF3B JUMPI DUP1 PUSH4 0x248A9CA3 EQ PUSH2 0xF11 JUMPI DUP1 PUSH4 0x2F2FF15D EQ PUSH2 0xE91 JUMPI DUP1 PUSH4 0x3474A4A6 EQ PUSH2 0xDC0 JUMPI DUP1 PUSH4 0x36568ABE EQ PUSH2 0xCF9 JUMPI DUP1 PUSH4 0x44004CC1 EQ PUSH2 0xC25 JUMPI DUP1 PUSH4 0x4782F779 EQ PUSH2 0xBC2 JUMPI DUP1 PUSH4 0x485CC955 EQ PUSH2 0x8BF JUMPI DUP1 PUSH4 0x8C17030F EQ PUSH2 0x447 JUMPI DUP1 PUSH4 0x9010D07C EQ PUSH2 0x3F8 JUMPI DUP1 PUSH4 0x91D14854 EQ PUSH2 0x3A5 JUMPI DUP1 PUSH4 0xA217FDDF EQ PUSH2 0x38A JUMPI DUP1 PUSH4 0xA971E842 EQ PUSH2 0x34E JUMPI DUP1 PUSH4 0xBAD43661 EQ PUSH2 0x146 JUMPI DUP1 PUSH4 0xCA15C873 EQ PUSH2 0x11E JUMPI PUSH4 0xD547741F EQ PUSH2 0xDF JUMPI PUSH1 0x0 DUP1 REVERT JUMPDEST CALLVALUE PUSH2 0x11A JUMPI DUP1 PUSH1 0x3 NOT CALLDATASIZE ADD SLT PUSH2 0x11A JUMPI PUSH2 0x117 SWAP2 CALLDATALOAD PUSH2 0x112 PUSH1 0x1 PUSH2 0x101 PUSH2 0x17BE JUMP JUMPDEST SWAP4 DUP4 DUP8 MSTORE DUP7 PUSH1 0x20 MSTORE DUP7 KECCAK256 ADD SLOAD PUSH2 0x1AAB JUMP JUMPDEST PUSH2 0x1D16 JUMP JUMPDEST DUP1 RETURN JUMPDEST DUP3 DUP1 REVERT JUMPDEST POP SWAP1 CALLVALUE PUSH2 0x11A JUMPI PUSH1 0x20 PUSH1 0x3 NOT CALLDATASIZE ADD SLT PUSH2 0x11A JUMPI PUSH1 0x20 SWAP3 DUP3 SWAP2 CALLDATALOAD DUP2 MSTORE PUSH1 0x1 DUP5 MSTORE KECCAK256 SLOAD SWAP1 MLOAD SWAP1 DUP2 MSTORE RETURN JUMPDEST POP CALLVALUE PUSH2 0x11A JUMPI PUSH1 0x80 PUSH1 0x3 NOT CALLDATASIZE ADD SLT PUSH2 0x11A JUMPI DUP2 CALLDATALOAD PUSH1 0x24 SWAP1 DUP2 CALLDATALOAD PUSH8 0xFFFFFFFFFFFFFFFF SWAP6 DUP7 DUP3 GT PUSH2 0x34B JUMPI POP PUSH2 0x17E SWAP1 CALLDATASIZE SWAP1 DUP7 ADD PUSH2 0x17E1 JUMP JUMPDEST SWAP5 SWAP1 PUSH2 0x188 PUSH2 0x179B JUMP JUMPDEST SWAP6 PUSH20 0xFFFFFFFFFFFFFFFFFFFFFFFFFFFFFFFFFFFFFFFF DUP8 AND PUSH1 0x0 MSTORE PUSH1 0x20 SWAP8 PUSH1 0x2 DUP10 MSTORE DUP7 PUSH1 0x0 KECCAK256 DUP6 PUSH1 0x0 MSTORE DUP10 MSTORE PUSH1 0xFF DUP8 PUSH1 0x0 KECCAK256 SLOAD AND ISZERO SWAP8 DUP9 PUSH2 0x1CF JUMPI JUMPDEST DUP10 DUP10 DUP10 MLOAD SWAP1 ISZERO ISZERO DUP2 MSTORE RETURN JUMPDEST SWAP1 SWAP2 SWAP3 SWAP5 SWAP8 POP DUP7 SWAP6 SWAP9 SWAP4 SWAP7 MLOAD PUSH32 0xFFFFFFFFFFFFFFFFFFFFFFFFFFFFFFFFFFFFFFFF000000000000000000000000 DUP6 DUP3 ADD SWAP3 PUSH1 0x60 SHL AND DUP3 MSTORE PUSH1 0x64 CALLDATALOAD PUSH1 0x34 DUP3 ADD MSTORE PUSH1 0x34 DUP2 MSTORE PUSH2 0x21B DUP2 PUSH2 0x1C53 JUMP JUMPDEST MLOAD SWAP1 KECCAK256 SWAP1 DUP3 GT PUSH2 0x31E JUMPI PUSH1 0x5 SWAP4 DUP3 DUP6 SHL DUP7 MLOAD SWAP4 PUSH2 0x23A DUP7 DUP4 ADD DUP7 PUSH2 0x1C8B JUMP JUMPDEST DUP5 MSTORE DUP5 DUP5 ADD SWAP1 DUP3 ADD SWAP2 CALLDATASIZE DUP4 GT PUSH2 0x319 JUMPI DUP6 SWAP1 SWAP2 JUMPDEST DUP4 DUP4 LT PUSH2 0x309 JUMPI POP POP POP POP SWAP3 PUSH1 0x0 SWAP4 JUMPDEST DUP3 MLOAD DUP6 LT ISZERO PUSH2 0x2F2 JUMPI DUP5 DUP3 SHL DUP4 ADD DUP5 ADD MLOAD SWAP1 DUP7 PUSH1 0x0 DUP4 DUP4 LT ISZERO PUSH2 0x2E5 JUMPI POP POP PUSH1 0x0 MSTORE DUP4 MSTORE DUP5 PUSH1 0x0 KECCAK256 JUMPDEST SWAP4 PUSH32 0xFFFFFFFFFFFFFFFFFFFFFFFFFFFFFFFFFFFFFFFFFFFFFFFFFFFFFFFFFFFFFFFF DUP2 EQ PUSH2 0x2B8 JUMPI PUSH1 0x1 ADD SWAP4 PUSH2 0x25E JUMP JUMPDEST DUP9 PUSH1 0x11 DUP9 PUSH32 0x4E487B7100000000000000000000000000000000000000000000000000000000 PUSH1 0x0 MSTORE MSTORE PUSH1 0x0 REVERT JUMPDEST SWAP2 SWAP1 SWAP3 DUP3 MSTORE DUP6 MSTORE KECCAK256 PUSH2 0x287 JUMP JUMPDEST SWAP5 SWAP7 SWAP6 POP POP POP SWAP5 POP POP EQ SWAP1 CODESIZE DUP1 DUP1 DUP1 DUP1 DUP1 DUP1 PUSH2 0x1C4 JUMP JUMPDEST DUP3 CALLDATALOAD DUP2 MSTORE SWAP2 DUP2 ADD SWAP2 DUP7 SWAP2 ADD PUSH2 0x24E JUMP JUMPDEST PUSH1 0x0 DUP1 REVERT JUMPDEST DUP8 PUSH1 0x41 DUP8 PUSH32 0x4E487B7100000000000000000000000000000000000000000000000000000000 PUSH1 0x0 MSTORE MSTORE PUSH1 0x0 REVERT JUMPDEST DUP1 REVERT JUMPDEST DUP4 DUP3 CALLVALUE PUSH2 0x386 JUMPI DUP2 PUSH1 0x3 NOT CALLDATASIZE ADD SLT PUSH2 0x386 JUMPI PUSH1 0x20 SWAP1 PUSH20 0xFFFFFFFFFFFFFFFFFFFFFFFFFFFFFFFFFFFFFFFF PUSH1 0x3 SLOAD PUSH1 0x8 SHR AND SWAP1 MLOAD SWAP1 DUP2 MSTORE RETURN JUMPDEST POP DUP1 REVERT JUMPDEST DUP4 DUP3 CALLVALUE PUSH2 0x386 JUMPI DUP2 PUSH1 0x3 NOT CALLDATASIZE ADD SLT PUSH2 0x386 JUMPI MLOAD SWAP1 DUP2 MSTORE PUSH1 0x20 SWAP1 RETURN JUMPDEST POP SWAP1 CALLVALUE PUSH2 0x11A JUMPI DUP2 PUSH1 0x3 NOT CALLDATASIZE ADD SLT PUSH2 0x11A JUMPI PUSH20 0xFFFFFFFFFFFFFFFFFFFFFFFFFFFFFFFFFFFFFFFF DUP3 PUSH1 0x20 SWAP5 PUSH2 0x3D8 PUSH2 0x17BE JUMP JUMPDEST SWAP4 CALLDATALOAD DUP2 MSTORE DUP1 DUP7 MSTORE KECCAK256 SWAP2 AND PUSH1 0x0 MSTORE DUP3 MSTORE PUSH1 0xFF DUP2 PUSH1 0x0 KECCAK256 SLOAD AND SWAP1 MLOAD SWAP1 ISZERO ISZERO DUP2 MSTORE RETURN JUMPDEST POP SWAP1 CALLVALUE PUSH2 0x11A JUMPI DUP2 PUSH1 0x3 NOT CALLDATASIZE ADD SLT PUSH2 0x11A JUMPI PUSH2 0x438 PUSH1 0x20 SWAP4 PUSH20 0xFFFFFFFFFFFFFFFFFFFFFFFFFFFFFFFFFFFFFFFF SWAP3 CALLDATALOAD DUP2 MSTORE PUSH1 0x1 DUP6 MSTORE DUP4 PUSH1 0x24 CALLDATALOAD SWAP2 KECCAK256 PUSH2 0x1F7E JUMP JUMPDEST SWAP3 SWAP1 SLOAD SWAP1 MLOAD SWAP3 PUSH1 0x3 SHL SHR AND DUP2 MSTORE RETURN JUMPDEST POP SWAP1 CALLVALUE PUSH2 0x11A JUMPI PUSH1 0xC0 PUSH1 0x3 NOT CALLDATASIZE ADD SLT PUSH2 0x11A JUMPI DUP1 CALLDATALOAD SWAP2 PUSH1 0x24 SWAP1 DUP2 CALLDATALOAD SWAP1 PUSH2 0x46B PUSH2 0x179B JUMP JUMPDEST SWAP1 PUSH1 0x64 CALLDATALOAD SWAP3 PUSH8 0xFFFFFFFFFFFFFFFF SWAP5 DUP6 DUP6 AND SWAP5 DUP6 DUP2 SUB PUSH2 0x319 JUMPI PUSH1 0x84 CALLDATALOAD SWAP7 DUP8 AND DUP1 SWAP8 SUB PUSH2 0x319 JUMPI PUSH1 0xA4 CALLDATALOAD SWAP8 PUSH32 0x4C02318D8C3AADC98CCF18AEBBF3126F651E0C3F6A1DE5FF8EDCF6724A2AD5C2 DUP1 PUSH1 0x0 MSTORE PUSH1 0x20 SWAP4 PUSH1 0x0 DUP6 MSTORE DUP7 PUSH1 0x0 KECCAK256 CALLER PUSH1 0x0 MSTORE DUP6 MSTORE PUSH1 0xFF DUP8 PUSH1 0x0 KECCAK256 SLOAD AND ISZERO PUSH2 0x628 JUMPI POP POP DUP7 DUP9 LT DUP1 ISZERO PUSH2 0x61E JUMPI JUMPDEST PUSH2 0x5F7 JUMPI SWAP2 DUP10 SWAP8 SWAP6 SWAP4 SWAP2 PUSH32 0xABEC13CA1773EED55D54D2F64593C33FA520EE45CAC73A162F13928A2EBEE233 SWAP11 DUP7 SWAP5 DUP12 PUSH1 0xA0 PUSH20 0xFFFFFFFFFFFFFFFFFFFFFFFFFFFFFFFFFFFFFFFF PUSH1 0xC0 SWAP15 SWAP13 SWAP11 MLOAD SWAP10 PUSH2 0x53B DUP12 PUSH2 0x1C08 JUMP JUMPDEST DUP6 DUP12 MSTORE DUP9 DUP9 DUP13 ADD MSTORE AND SWAP9 DUP10 DUP10 DUP3 ADD MSTORE DUP11 PUSH1 0x60 DUP3 ADD MSTORE DUP12 PUSH1 0x80 DUP3 ADD MSTORE ADD MSTORE SSTORE DUP3 PUSH1 0x5 SSTORE DUP5 PUSH32 0xFFFFFFFF00000000000000000000000000000000000000000000000000000000 PUSH28 0xFFFFFFFFFFFFFFFF0000000000000000000000000000000000000000 PUSH1 0x6 SLOAD SWAP4 PUSH1 0xA0 SHL AND SWAP3 AND OR OR PUSH1 0x6 SSTORE DUP6 PUSH32 0xFFFFFFFFFFFFFFFFFFFFFFFFFFFFFFFFFFFFFFFFFFFFFFFF0000000000000000 PUSH1 0x7 SLOAD AND OR PUSH1 0x7 SSTORE DUP7 PUSH1 0x8 SSTORE DUP3 MLOAD SWAP8 DUP9 MSTORE DUP8 ADD MSTORE DUP6 ADD MSTORE PUSH1 0x60 DUP5 ADD MSTORE PUSH1 0x80 DUP4 ADD MSTORE PUSH1 0xA0 DUP3 ADD MSTORE LOG1 DUP1 RETURN JUMPDEST DUP5 MLOAD PUSH32 0x85D4A74800000000000000000000000000000000000000000000000000000000 DUP2 MSTORE REVERT JUMPDEST POP TIMESTAMP DUP9 GT ISZERO PUSH2 0x4E5 JUMP JUMPDEST SWAP2 SWAP5 POP SWAP2 POP PUSH2 0x636 CALLER PUSH2 0x1E09 JUMP JUMPDEST DUP6 MLOAD SWAP2 PUSH2 0x642 DUP4 PUSH2 0x1C6F JUMP JUMPDEST PUSH1 0x42 DUP4 MSTORE DUP5 DUP4 ADD SWAP4 PUSH1 0x60 CALLDATASIZE DUP7 CALLDATACOPY DUP4 MLOAD ISZERO PUSH2 0x892 JUMPI PUSH1 0x30 DUP6 MSTORE8 DUP4 MLOAD PUSH1 0x1 SWAP1 DUP2 LT ISZERO PUSH2 0x865 JUMPI PUSH1 0x78 PUSH1 0x21 DUP7 ADD MSTORE8 PUSH1 0x41 SWAP1 JUMPDEST DUP1 DUP3 GT PUSH2 0x79D JUMPI POP POP PUSH2 0x742 JUMPI POP PUSH2 0x73E SWAP4 DUP7 SWAP4 PUSH2 0x710 SWAP4 PUSH2 0x701 PUSH1 0x48 SWAP5 PUSH2 0x6CC SWAP11 MLOAD SWAP11 DUP6 PUSH32 0x416363657373436F6E74726F6C3A206163636F756E7420000000000000000000 DUP14 SWAP8 DUP9 ADD MSTORE DUP3 MLOAD SWAP3 DUP4 SWAP2 PUSH1 0x37 DUP10 ADD SWAP2 ADD PUSH2 0x1BE5 JUMP JUMPDEST DUP5 ADD SWAP2 PUSH32 0x206973206D697373696E6720726F6C6520000000000000000000000000000000 PUSH1 0x37 DUP5 ADD MSTORE MLOAD DUP1 SWAP4 DUP7 DUP5 ADD SWAP1 PUSH2 0x1BE5 JUMP JUMPDEST ADD SUB PUSH1 0x28 DUP2 ADD DUP8 MSTORE ADD DUP6 PUSH2 0x1C8B JUMP JUMPDEST MLOAD SWAP3 DUP4 SWAP3 PUSH32 0x8C379A000000000000000000000000000000000000000000000000000000000 DUP5 MSTORE DUP4 ADD PUSH2 0x1CCC JUMP JUMPDEST SUB SWAP1 REVERT JUMPDEST SWAP3 POP POP POP DUP2 PUSH1 0x64 SWAP5 MLOAD SWAP4 PUSH32 0x8C379A000000000000000000000000000000000000000000000000000000000 DUP6 MSTORE DUP5 ADD MSTORE DUP3 ADD MSTORE PUSH32 0x537472696E67733A20686578206C656E67746820696E73756666696369656E74 PUSH1 0x44 DUP3 ADD MSTORE REVERT JUMPDEST SWAP1 SWAP2 PUSH1 0xF DUP2 AND PUSH1 0x10 DUP2 LT ISZERO PUSH2 0x838 JUMPI PUSH32 0x3031323334353637383961626364656600000000000000000000000000000000 SWAP1 BYTE PUSH2 0x7D9 DUP5 DUP9 PUSH2 0x1DC9 JUMP JUMPDEST MSTORE8 DUP9 SHR SWAP2 DUP1 ISZERO PUSH2 0x80B JUMPI PUSH32 0xFFFFFFFFFFFFFFFFFFFFFFFFFFFFFFFFFFFFFFFFFFFFFFFFFFFFFFFFFFFFFFFF ADD SWAP1 PUSH2 0x671 JUMP JUMPDEST DUP4 PUSH1 0x11 DUP11 PUSH32 0x4E487B7100000000000000000000000000000000000000000000000000000000 PUSH1 0x0 MSTORE MSTORE PUSH1 0x0 REVERT JUMPDEST DUP5 PUSH1 0x32 DUP12 PUSH32 0x4E487B7100000000000000000000000000000000000000000000000000000000 PUSH1 0x0 MSTORE MSTORE PUSH1 0x0 REVERT JUMPDEST DUP3 PUSH1 0x32 DUP10 PUSH32 0x4E487B7100000000000000000000000000000000000000000000000000000000 PUSH1 0x0 MSTORE MSTORE PUSH1 0x0 REVERT JUMPDEST POP PUSH1 0x32 DUP7 PUSH32 0x4E487B7100000000000000000000000000000000000000000000000000000000 PUSH1 0x0 MSTORE MSTORE PUSH1 0x0 REVERT JUMPDEST POP SWAP1 CALLVALUE PUSH2 0x11A JUMPI DUP2 PUSH1 0x3 NOT CALLDATASIZE ADD SLT PUSH2 0x11A JUMPI PUSH2 0x8D9 PUSH2 0x1778 JUMP JUMPDEST SWAP1 PUSH2 0x8E2 PUSH2 0x17BE JUMP JUMPDEST PUSH1 0x3 SLOAD SWAP2 PUSH1 0xFF DUP4 AND PUSH2 0xB9B JUMPI POP SWAP1 PUSH32 0xFFFFFFFFFFFFFFFFFFFFFF0000000000000000000000000000000000000000FF PUSH21 0xFFFFFFFFFFFFFFFFFFFFFFFFFFFFFFFFFFFFFFFF00 PUSH2 0xA2C SWAP5 SWAP4 PUSH1 0x8 SHL AND SWAP2 AND OR PUSH1 0x3 SSTORE PUSH1 0x0 DUP1 MSTORE PUSH1 0x20 SWAP3 PUSH1 0x0 DUP5 MSTORE PUSH20 0xFFFFFFFFFFFFFFFFFFFFFFFFFFFFFFFFFFFFFFFF DUP2 PUSH1 0x0 KECCAK256 SWAP3 AND SWAP2 DUP3 PUSH1 0x0 MSTORE DUP5 MSTORE PUSH1 0xFF DUP2 PUSH1 0x0 KECCAK256 SLOAD AND ISZERO PUSH2 0xB2F JUMPI JUMPDEST PUSH1 0x0 DUP1 MSTORE PUSH1 0x1 DUP5 DUP2 DUP1 SWAP7 MSTORE PUSH2 0x989 DUP5 DUP5 PUSH1 0x0 KECCAK256 PUSH2 0x1F96 JUMP JUMPDEST POP PUSH32 0x4C02318D8C3AADC98CCF18AEBBF3126F651E0C3F6A1DE5FF8EDCF6724A2AD5C2 DUP1 PUSH1 0x0 MSTORE PUSH1 0x0 DUP3 MSTORE DUP4 PUSH1 0x0 KECCAK256 DUP6 PUSH1 0x0 MSTORE DUP3 MSTORE PUSH1 0xFF DUP5 PUSH1 0x0 KECCAK256 SLOAD AND ISZERO PUSH2 0xAC4 JUMPI JUMPDEST PUSH1 0x0 MSTORE DUP2 DUP2 MSTORE PUSH2 0x9DE DUP5 DUP5 PUSH1 0x0 KECCAK256 PUSH2 0x1F96 JUMP JUMPDEST POP PUSH32 0x5D8E12C39142FF96D79D04D15D1BA1269E4FE57BB9D26F43523628B34BA108EC DUP1 PUSH1 0x0 MSTORE PUSH1 0x0 DUP3 MSTORE DUP4 PUSH1 0x0 KECCAK256 DUP6 PUSH1 0x0 MSTORE DUP3 MSTORE PUSH1 0xFF DUP5 PUSH1 0x0 KECCAK256 SLOAD AND ISZERO PUSH2 0xA59 JUMPI JUMPDEST PUSH1 0x0 MSTORE MSTORE PUSH1 0x0 KECCAK256 PUSH2 0x1F96 JUMP JUMPDEST POP PUSH32 0xFFFFFFFFFFFFFFFFFFFFFFFFFFFFFFFFFFFFFFFFFFFFFFFFFFFFFFFFFFFFFF00 PUSH1 0x3 SLOAD AND OR PUSH1 0x3 SSTORE DUP1 RETURN JUMPDEST DUP1 PUSH1 0x0 MSTORE PUSH1 0x0 DUP3 MSTORE DUP4 PUSH1 0x0 KECCAK256 DUP6 PUSH1 0x0 MSTORE DUP3 MSTORE DUP4 PUSH1 0x0 KECCAK256 DUP4 PUSH32 0xFFFFFFFFFFFFFFFFFFFFFFFFFFFFFFFFFFFFFFFFFFFFFFFFFFFFFFFFFFFFFF00 DUP3 SLOAD AND OR SWAP1 SSTORE CALLER DUP6 DUP3 PUSH32 0x2F8788117E7EFF1D82E926EC794901D17C78024A50270940304540A733656F0D PUSH1 0x0 DUP1 LOG4 PUSH2 0xA20 JUMP JUMPDEST DUP1 PUSH1 0x0 MSTORE PUSH1 0x0 DUP3 MSTORE DUP4 PUSH1 0x0 KECCAK256 DUP6 PUSH1 0x0 MSTORE DUP3 MSTORE DUP4 PUSH1 0x0 KECCAK256 DUP4 PUSH32 0xFFFFFFFFFFFFFFFFFFFFFFFFFFFFFFFFFFFFFFFFFFFFFFFFFFFFFFFFFFFFFF00 DUP3 SLOAD AND OR SWAP1 SSTORE CALLER DUP6 DUP3 PUSH32 0x2F8788117E7EFF1D82E926EC794901D17C78024A50270940304540A733656F0D PUSH1 0x0 DUP1 LOG4 PUSH2 0x9CB JUMP JUMPDEST PUSH1 0x0 DUP1 MSTORE PUSH1 0x0 DUP5 MSTORE DUP1 PUSH1 0x0 KECCAK256 DUP3 PUSH1 0x0 MSTORE DUP5 MSTORE DUP1 PUSH1 0x0 KECCAK256 PUSH1 0x1 PUSH32 0xFFFFFFFFFFFFFFFFFFFFFFFFFFFFFFFFFFFFFFFFFFFFFFFFFFFFFFFFFFFFFF00 DUP3 SLOAD AND OR SWAP1 SSTORE CALLER DUP3 PUSH1 0x0 PUSH32 0x2F8788117E7EFF1D82E926EC794901D17C78024A50270940304540A733656F0D DUP2 DUP1 LOG4 PUSH2 0x971 JUMP JUMPDEST DUP5 MLOAD PUSH32 0xF92EE8A900000000000000000000000000000000000000000000000000000000 DUP2 MSTORE REVERT JUMPDEST POP CALLVALUE PUSH2 0x11A JUMPI DUP1 PUSH1 0x3 NOT CALLDATASIZE ADD SLT PUSH2 0x11A JUMPI DUP3 DUP1 DUP1 DUP1 PUSH2 0xBDF PUSH2 0x1778 JUMP JUMPDEST PUSH2 0xBE7 PUSH2 0x1812 JUMP JUMPDEST PUSH1 0x24 CALLDATALOAD SWAP1 GAS CALL PUSH2 0xBF5 PUSH2 0x22F3 JUMP JUMPDEST POP ISZERO PUSH2 0xBFF JUMPI DUP3 DUP1 RETURN JUMPDEST MLOAD PUSH32 0x750B219C00000000000000000000000000000000000000000000000000000000 DUP2 MSTORE REVERT JUMPDEST DUP4 DUP3 CALLVALUE PUSH2 0x386 JUMPI PUSH1 0x60 PUSH1 0x3 NOT CALLDATASIZE ADD SLT PUSH2 0x386 JUMPI PUSH2 0xCC7 PUSH20 0xFFFFFFFFFFFFFFFFFFFFFFFFFFFFFFFFFFFFFFFF PUSH2 0x117 SWAP3 PUSH2 0xCF3 PUSH2 0xC5F PUSH2 0x1778 JUMP JUMPDEST SWAP2 PUSH2 0xC68 PUSH2 0x17BE JUMP JUMPDEST SWAP1 PUSH2 0xC71 PUSH2 0x1812 JUMP JUMPDEST MLOAD PUSH32 0xA9059CBB00000000000000000000000000000000000000000000000000000000 PUSH1 0x20 DUP3 ADD MSTORE PUSH20 0xFFFFFFFFFFFFFFFFFFFFFFFFFFFFFFFFFFFFFFFF SWAP1 SWAP2 AND PUSH1 0x24 DUP3 ADD MSTORE PUSH1 0x44 DUP1 CALLDATALOAD SWAP1 DUP3 ADD MSTORE SWAP4 DUP5 SWAP1 PUSH1 0x64 DUP3 ADD SWAP1 JUMP JUMPDEST SUB PUSH32 0xFFFFFFFFFFFFFFFFFFFFFFFFFFFFFFFFFFFFFFFFFFFFFFFFFFFFFFFFFFFFFFE0 DUP2 ADD DUP6 MSTORE DUP5 PUSH2 0x1C8B JUMP JUMPDEST AND PUSH2 0x21B0 JUMP JUMPDEST POP SWAP2 SWAP1 CALLVALUE PUSH2 0x386 JUMPI DUP3 PUSH1 0x3 NOT CALLDATASIZE ADD SLT PUSH2 0x386 JUMPI PUSH2 0xD14 PUSH2 0x17BE JUMP JUMPDEST SWAP1 CALLER PUSH20 0xFFFFFFFFFFFFFFFFFFFFFFFFFFFFFFFFFFFFFFFF DUP4 AND SUB PUSH2 0xD3D JUMPI SWAP1 PUSH2 0x117 SWAP2 CALLDATALOAD PUSH2 0x1D16 JUMP JUMPDEST PUSH1 0x84 SWAP1 PUSH1 0x20 DUP6 MLOAD SWAP2 PUSH32 0x8C379A000000000000000000000000000000000000000000000000000000000 DUP4 MSTORE DUP3 ADD MSTORE PUSH1 0x2F PUSH1 0x24 DUP3 ADD MSTORE PUSH32 0x416363657373436F6E74726F6C3A2063616E206F6E6C792072656E6F756E6365 PUSH1 0x44 DUP3 ADD MSTORE PUSH32 0x20726F6C657320666F722073656C660000000000000000000000000000000000 PUSH1 0x64 DUP3 ADD MSTORE REVERT JUMPDEST POP SWAP1 CALLVALUE PUSH2 0x11A JUMPI DUP3 PUSH1 0x3 NOT CALLDATASIZE ADD SLT PUSH2 0x11A JUMPI PUSH1 0xC0 SWAP3 PUSH1 0xA0 DUP4 MLOAD PUSH2 0xDE2 DUP2 PUSH2 0x1C08 JUMP JUMPDEST DUP3 DUP2 MSTORE DUP3 PUSH1 0x20 DUP3 ADD MSTORE DUP3 DUP6 DUP3 ADD MSTORE DUP3 PUSH1 0x60 DUP3 ADD MSTORE DUP3 PUSH1 0x80 DUP3 ADD MSTORE ADD MSTORE DUP2 MLOAD SWAP1 PUSH2 0xE0A DUP3 PUSH2 0x1C08 JUMP JUMPDEST SLOAD SWAP2 DUP3 DUP3 MSTORE PUSH1 0x5 SLOAD PUSH1 0x20 DUP4 ADD SWAP1 DUP2 MSTORE PUSH1 0x6 SLOAD DUP3 DUP5 ADD SWAP3 PUSH20 0xFFFFFFFFFFFFFFFFFFFFFFFFFFFFFFFFFFFFFFFF SWAP1 DUP2 DUP4 AND DUP6 MSTORE PUSH1 0x60 DUP7 ADD SWAP2 PUSH8 0xFFFFFFFFFFFFFFFF SWAP6 DUP7 DUP1 SWAP6 PUSH1 0xA0 SHR AND DUP5 MSTORE DUP5 PUSH1 0x7 SLOAD AND SWAP6 PUSH1 0x80 DUP10 ADD SWAP7 DUP8 MSTORE PUSH1 0xA0 PUSH1 0x8 SLOAD SWAP10 ADD SWAP9 DUP10 MSTORE DUP4 MLOAD SWAP10 DUP11 MSTORE MLOAD PUSH1 0x20 DUP11 ADD MSTORE MLOAD AND SWAP1 DUP8 ADD MSTORE MLOAD AND PUSH1 0x60 DUP6 ADD MSTORE MLOAD AND PUSH1 0x80 DUP4 ADD MSTORE MLOAD PUSH1 0xA0 DUP3 ADD MSTORE RETURN JUMPDEST POP CALLVALUE PUSH2 0x11A JUMPI DUP1 PUSH1 0x3 NOT CALLDATASIZE ADD SLT PUSH2 0x11A JUMPI PUSH2 0xF0D SWAP2 CALLDATALOAD SWAP1 PUSH1 0x1 PUSH2 0xEB2 PUSH2 0x17BE JUMP JUMPDEST SWAP3 DUP1 DUP7 MSTORE PUSH1 0x20 SWAP1 DUP7 DUP3 MSTORE PUSH2 0xECA DUP4 DUP6 DUP10 KECCAK256 ADD SLOAD PUSH2 0x1AAB JUMP JUMPDEST DUP1 PUSH1 0x0 MSTORE PUSH1 0x0 DUP3 MSTORE PUSH20 0xFFFFFFFFFFFFFFFFFFFFFFFFFFFFFFFFFFFFFFFF DUP5 PUSH1 0x0 KECCAK256 SWAP6 AND SWAP5 DUP6 PUSH1 0x0 MSTORE DUP3 MSTORE PUSH1 0xFF DUP5 PUSH1 0x0 KECCAK256 SLOAD AND ISZERO PUSH2 0xA59 JUMPI PUSH1 0x0 MSTORE MSTORE PUSH1 0x0 KECCAK256 PUSH2 0x1F96 JUMP JUMPDEST POP DUP1 RETURN JUMPDEST POP SWAP1 CALLVALUE PUSH2 0x11A JUMPI PUSH1 0x20 PUSH1 0x3 NOT CALLDATASIZE ADD SLT PUSH2 0x11A JUMPI DUP2 PUSH1 0x20 SWAP4 PUSH1 0x1 SWAP3 CALLDATALOAD DUP2 MSTORE DUP1 DUP6 MSTORE KECCAK256 ADD SLOAD SWAP1 MLOAD SWAP1 DUP2 MSTORE RETURN JUMPDEST POP PUSH1 0xA0 PUSH1 0x3 NOT CALLDATASIZE ADD SLT PUSH2 0x11A JUMPI PUSH2 0xF50 PUSH2 0x1778 JUMP JUMPDEST SWAP2 PUSH2 0xF59 PUSH2 0x179B JUMP JUMPDEST SWAP1 PUSH8 0xFFFFFFFFFFFFFFFF PUSH1 0x84 CALLDATALOAD DUP2 DUP2 GT PUSH2 0x166F JUMPI PUSH2 0xF7A SWAP1 CALLDATASIZE SWAP1 DUP5 ADD PUSH2 0x17E1 JUMP JUMPDEST PUSH1 0x3 SLOAD SWAP1 DUP7 MLOAD SWAP3 PUSH32 0x18160DDD00000000000000000000000000000000000000000000000000000000 DUP5 MSTORE PUSH1 0x20 SWAP4 DUP5 DUP2 DUP9 DUP2 PUSH20 0xFFFFFFFFFFFFFFFFFFFFFFFFFFFFFFFFFFFFFFFF DUP1 SWAP9 PUSH1 0x8 SHR AND GAS STATICCALL SWAP1 DUP2 ISZERO PUSH2 0x1665 JUMPI DUP12 SWAP2 PUSH2 0x1634 JUMPI JUMPDEST POP DUP7 SLOAD SWAP1 DUP2 ISZERO ISZERO DUP1 PUSH2 0x15F4 JUMPI JUMPDEST PUSH2 0x15B7 JUMPI POP POP DUP5 PUSH1 0x6 SLOAD PUSH1 0xA0 SHR AND DUP6 PUSH1 0x7 SLOAD AND DUP1 ISZERO SWAP2 DUP3 ISZERO PUSH2 0x15AD JUMPI JUMPDEST POP DUP2 ISZERO PUSH2 0x15A2 JUMPI JUMPDEST POP PUSH2 0x157A JUMPI PUSH1 0x8 SLOAD SWAP2 DUP3 PUSH2 0x131A JUMPI JUMPDEST POP POP POP PUSH1 0x5 SLOAD PUSH1 0x24 SWAP6 DUP7 CALLDATALOAD SWAP4 DUP5 DUP4 MUL SWAP3 DUP1 DUP5 DIV DUP7 EQ SWAP1 ISZERO OR ISZERO PUSH2 0x12EF JUMPI DUP4 PUSH1 0x6 SLOAD AND DUP5 DUP4 AND SWAP1 DUP1 DUP3 SUB PUSH2 0x12B5 JUMPI POP PUSH1 0x64 CALLDATALOAD DUP5 DUP2 LT PUSH2 0x125A JUMPI POP DUP1 PUSH2 0x1181 JUMPI POP POP DUP2 CALLVALUE SUB PUSH2 0x1125 JUMPI POP POP SWAP1 DUP8 SWAP2 JUMPDEST PUSH1 0x3 SLOAD PUSH1 0x8 SHR AND DUP1 EXTCODESIZE ISZERO PUSH2 0x11A JUMPI PUSH2 0x10CD SWAP8 DUP4 DUP9 MLOAD DUP1 SWAP11 DUP2 SWAP6 DUP3 SWAP5 PUSH32 0x40C10F1900000000000000000000000000000000000000000000000000000000 DUP5 MSTORE DUP11 DUP5 ADD PUSH1 0x20 SWAP1 SWAP4 SWAP3 SWAP2 SWAP4 PUSH20 0xFFFFFFFFFFFFFFFFFFFFFFFFFFFFFFFFFFFFFFFF PUSH1 0x40 DUP3 ADD SWAP6 AND DUP2 MSTORE ADD MSTORE JUMP JUMPDEST SUB SWAP3 GAS CALL DUP1 ISZERO PUSH2 0x111B JUMPI PUSH2 0x10DF JUMPI DUP6 DUP1 RETURN JUMPDEST DUP5 GT PUSH2 0x10F1 JUMPI POP POP MSTORE CODESIZE DUP1 DUP1 DUP1 DUP1 DUP6 DUP1 RETURN JUMPDEST PUSH1 0x41 DUP6 SWAP2 PUSH32 0x4E487B7100000000000000000000000000000000000000000000000000000000 DUP4 MSTORE MSTORE REVERT JUMPDEST DUP5 MLOAD RETURNDATASIZE DUP9 DUP3 RETURNDATACOPY RETURNDATASIZE SWAP1 REVERT JUMPDEST PUSH2 0x73E DUP7 DUP10 MLOAD SWAP4 DUP5 SWAP4 PUSH32 0x1EABCFBE00000000000000000000000000000000000000000000000000000000 DUP6 MSTORE CALLVALUE SWAP3 DUP6 ADD PUSH1 0x40 SWAP2 SWAP5 SWAP4 SWAP3 PUSH20 0xFFFFFFFFFFFFFFFFFFFFFFFFFFFFFFFFFFFFFFFF PUSH1 0x60 DUP4 ADD SWAP7 AND DUP3 MSTORE PUSH1 0x20 DUP3 ADD MSTORE ADD MSTORE JUMP JUMPDEST SWAP9 SWAP11 SWAP7 SWAP10 SWAP7 SWAP9 SWAP1 SWAP3 SWAP1 SWAP2 POP CALLVALUE ISZERO PUSH2 0x11CC JUMPI PUSH1 0x64 DUP11 DUP11 DUP11 DUP2 DUP16 MLOAD SWAP4 PUSH32 0x1EABCFBE00000000000000000000000000000000000000000000000000000000 DUP6 MSTORE DUP5 ADD MSTORE DUP3 ADD MSTORE CALLVALUE PUSH1 0x44 DUP3 ADD MSTORE REVERT JUMPDEST PUSH32 0x23B872DD00000000000000000000000000000000000000000000000000000000 DUP12 SWAP10 SWAP12 SWAP11 SWAP8 SWAP11 MLOAD SWAP4 DUP5 ADD MSTORE CALLER DUP9 DUP5 ADD MSTORE ADDRESS PUSH1 0x44 DUP5 ADD MSTORE PUSH1 0x64 DUP4 ADD MSTORE PUSH1 0x64 DUP3 MSTORE PUSH1 0xA0 DUP3 ADD DUP3 DUP2 LT DUP7 DUP3 GT OR PUSH2 0x122F JUMPI DUP9 MSTORE DUP10 SWAP4 SWAP3 SWAP2 PUSH2 0x122A SWAP2 PUSH2 0x21B0 JUMP JUMPDEST PUSH2 0x1064 JUMP JUMPDEST DUP8 DUP12 PUSH1 0x41 DUP10 PUSH32 0x4E487B7100000000000000000000000000000000000000000000000000000000 DUP4 MSTORE MSTORE REVERT JUMPDEST DUP11 MLOAD PUSH32 0x1EABCFBE00000000000000000000000000000000000000000000000000000000 DUP2 MSTORE PUSH20 0xFFFFFFFFFFFFFFFFFFFFFFFFFFFFFFFFFFFFFFFF DUP6 AND DUP2 DUP12 ADD SWAP1 DUP2 MSTORE PUSH1 0x20 DUP2 ADD DUP8 SWAP1 MSTORE PUSH1 0x40 DUP2 ADD SWAP3 SWAP1 SWAP3 MSTORE SWAP1 DUP2 SWAP1 PUSH1 0x60 ADD SUB SWAP1 REVERT JUMPDEST DUP9 DUP14 DUP7 DUP13 PUSH1 0x64 SWAP5 DUP16 MLOAD SWAP5 PUSH32 0x1EABCFBE00000000000000000000000000000000000000000000000000000000 DUP7 MSTORE DUP6 ADD MSTORE DUP4 ADD MSTORE PUSH1 0x44 DUP3 ADD MSTORE REVERT JUMPDEST DUP8 DUP12 PUSH1 0x11 DUP10 PUSH32 0x4E487B7100000000000000000000000000000000000000000000000000000000 DUP4 MSTORE MSTORE REVERT JUMPDEST CALLER DUP12 MSTORE PUSH1 0x2 DUP6 MSTORE DUP9 DUP12 KECCAK256 DUP4 DUP13 MSTORE DUP6 MSTORE PUSH1 0xFF DUP10 DUP13 KECCAK256 SLOAD AND ISZERO DUP1 PUSH2 0x1403 JUMPI JUMPDEST ISZERO PUSH2 0x1381 JUMPI POP POP CALLER DUP10 MSTORE PUSH1 0x2 DUP4 MSTORE DUP7 DUP10 KECCAK256 SWAP1 DUP10 MSTORE DUP3 MSTORE DUP6 DUP9 KECCAK256 PUSH1 0x1 PUSH32 0xFFFFFFFFFFFFFFFFFFFFFFFFFFFFFFFFFFFFFFFFFFFFFFFFFFFFFFFFFFFFFF00 DUP3 SLOAD AND OR SWAP1 SSTORE CODESIZE DUP1 DUP1 PUSH2 0x1017 JUMP JUMPDEST DUP11 SWAP1 DUP8 SWAP4 DUP11 MLOAD SWAP5 PUSH32 0x265C66A800000000000000000000000000000000000000000000000000000000 DUP7 MSTORE DUP6 ADD MSTORE PUSH1 0x80 PUSH1 0x24 DUP6 ADD MSTORE DUP1 PUSH1 0x84 DUP6 ADD MSTORE PUSH32 0x7FFFFFFFFFFFFFFFFFFFFFFFFFFFFFFFFFFFFFFFFFFFFFFFFFFFFFFFFFFFFFF DUP2 GT PUSH2 0x386 JUMPI SWAP2 DUP4 SWAP2 PUSH1 0xA4 SWAP4 PUSH1 0x5 SHL DUP1 SWAP3 DUP6 DUP6 ADD CALLDATACOPY CALLER PUSH1 0x44 DUP5 ADD MSTORE PUSH1 0x64 DUP4 ADD MSTORE DUP2 ADD SUB ADD SWAP1 REVERT JUMPDEST POP SWAP10 SWAP9 SWAP3 DUP9 SWAP8 SWAP3 SWAP5 SWAP6 SWAP2 SWAP7 SWAP9 MLOAD DUP7 DUP2 ADD SWAP1 PUSH32 0xFFFFFFFFFFFFFFFFFFFFFFFFFFFFFFFFFFFFFFFF000000000000000000000000 CALLER PUSH1 0x60 SHL AND DUP3 MSTORE DUP12 PUSH1 0x34 DUP3 ADD MSTORE PUSH1 0x34 DUP2 MSTORE PUSH2 0x144F DUP2 PUSH2 0x1C53 JUMP JUMPDEST MLOAD SWAP1 KECCAK256 SWAP5 DUP3 DUP13 GT PUSH2 0x154E JUMPI DUP9 MLOAD SWAP6 PUSH1 0x5 SWAP6 SWAP5 SWAP4 SWAP3 SWAP2 SWAP1 DUP14 DUP8 SHL DUP15 PUSH2 0x1475 DUP12 DUP4 ADD DUP12 PUSH2 0x1C8B JUMP JUMPDEST DUP10 MSTORE DUP11 ADD DUP10 DUP10 ADD CALLDATASIZE DUP3 GT PUSH2 0x154A JUMPI DUP11 DUP13 SWAP2 JUMPDEST DUP4 DUP4 LT PUSH2 0x153A JUMPI POP POP POP POP SWAP9 DUP13 SWAP10 JUMPDEST DUP9 MLOAD DUP12 LT ISZERO PUSH2 0x1523 JUMPI DUP11 DUP9 SHL DUP10 ADD DUP11 ADD MLOAD SWAP1 DUP15 DUP3 DUP3 LT ISZERO PUSH2 0x1515 JUMPI MSTORE DUP10 MSTORE DUP11 DUP14 KECCAK256 JUMPDEST SWAP10 PUSH32 0xFFFFFFFFFFFFFFFFFFFFFFFFFFFFFFFFFFFFFFFFFFFFFFFFFFFFFFFFFFFFFFFF DUP2 EQ PUSH2 0x14E9 JUMPI PUSH1 0x1 ADD SWAP10 PUSH2 0x1496 JUMP JUMPDEST PUSH1 0x24 DUP15 PUSH1 0x11 DUP16 PUSH32 0x4E487B7100000000000000000000000000000000000000000000000000000000 DUP4 MSTORE MSTORE REVERT JUMPDEST SWAP2 SWAP1 SWAP2 MSTORE DUP10 MSTORE DUP11 DUP14 KECCAK256 PUSH2 0x14B8 JUMP JUMPDEST SWAP2 SWAP6 SWAP13 SWAP14 SWAP4 SWAP9 SWAP8 POP SWAP4 SWAP10 SWAP11 SWAP9 POP DUP5 SWAP2 SWAP6 POP EQ PUSH2 0x1337 JUMP JUMPDEST DUP3 CALLDATALOAD DUP2 MSTORE SWAP2 DUP2 ADD SWAP2 DUP13 SWAP2 ADD PUSH2 0x1487 JUMP JUMPDEST DUP15 DUP1 REVERT JUMPDEST PUSH1 0x24 DUP12 PUSH1 0x41 DUP13 PUSH32 0x4E487B7100000000000000000000000000000000000000000000000000000000 DUP4 MSTORE MSTORE REVERT JUMPDEST DUP6 DUP9 MLOAD PUSH32 0x3F88677400000000000000000000000000000000000000000000000000000000 DUP2 MSTORE REVERT JUMPDEST SWAP1 POP TIMESTAMP LT ISZERO CODESIZE PUSH2 0x1008 JUMP JUMPDEST TIMESTAMP LT SWAP2 POP CODESIZE PUSH2 0x1000 JUMP JUMPDEST PUSH1 0x64 SWAP2 DUP9 SWAP2 DUP12 MLOAD SWAP3 PUSH32 0xA922783000000000000000000000000000000000000000000000000000000000 DUP5 MSTORE DUP4 ADD MSTORE PUSH1 0x24 CALLDATALOAD PUSH1 0x24 DUP4 ADD MSTORE PUSH1 0x44 DUP3 ADD MSTORE REVERT JUMPDEST POP PUSH1 0x24 CALLDATALOAD DUP2 ADD DUP1 DUP3 GT PUSH2 0x1608 JUMPI DUP3 LT PUSH2 0xFE3 JUMP JUMPDEST PUSH1 0x24 DUP14 PUSH1 0x11 DUP12 PUSH32 0x4E487B7100000000000000000000000000000000000000000000000000000000 DUP4 MSTORE MSTORE REVERT JUMPDEST SWAP1 POP DUP5 DUP2 DUP2 RETURNDATASIZE DUP4 GT PUSH2 0x165E JUMPI JUMPDEST PUSH2 0x164B DUP2 DUP4 PUSH2 0x1C8B JUMP JUMPDEST DUP2 ADD SUB SLT PUSH2 0x165A JUMPI MLOAD CODESIZE PUSH2 0xFD6 JUMP JUMPDEST DUP11 DUP1 REVERT JUMPDEST POP RETURNDATASIZE PUSH2 0x1641 JUMP JUMPDEST DUP10 MLOAD RETURNDATASIZE DUP14 DUP3 RETURNDATACOPY RETURNDATASIZE SWAP1 REVERT JUMPDEST DUP7 DUP1 REVERT JUMPDEST DUP5 SWAP1 DUP5 CALLVALUE PUSH2 0x11A JUMPI PUSH1 0x20 PUSH1 0x3 NOT CALLDATASIZE ADD SLT PUSH2 0x11A JUMPI CALLDATALOAD PUSH32 0xFFFFFFFF00000000000000000000000000000000000000000000000000000000 DUP2 AND DUP1 SWAP2 SUB PUSH2 0x11A JUMPI PUSH1 0x20 SWAP3 POP PUSH32 0xBE0B771200000000000000000000000000000000000000000000000000000000 DUP2 EQ SWAP1 DUP2 ISZERO PUSH2 0x16E8 JUMPI JUMPDEST POP ISZERO ISZERO DUP2 MSTORE RETURN JUMPDEST PUSH32 0x5A05180F00000000000000000000000000000000000000000000000000000000 DUP2 EQ SWAP2 POP DUP2 ISZERO PUSH2 0x171B JUMPI JUMPDEST POP DUP4 PUSH2 0x16E1 JUMP JUMPDEST PUSH32 0x7965DB0B00000000000000000000000000000000000000000000000000000000 DUP2 EQ SWAP2 POP DUP2 ISZERO PUSH2 0x174E JUMPI JUMPDEST POP DUP4 PUSH2 0x1714 JUMP JUMPDEST PUSH32 0x1FFC9A700000000000000000000000000000000000000000000000000000000 SWAP2 POP EQ DUP4 PUSH2 0x1747 JUMP JUMPDEST PUSH1 0x4 CALLDATALOAD SWAP1 PUSH20 0xFFFFFFFFFFFFFFFFFFFFFFFFFFFFFFFFFFFFFFFF DUP3 AND DUP3 SUB PUSH2 0x319 JUMPI JUMP JUMPDEST PUSH1 0x44 CALLDATALOAD SWAP1 PUSH20 0xFFFFFFFFFFFFFFFFFFFFFFFFFFFFFFFFFFFFFFFF DUP3 AND DUP3 SUB PUSH2 0x319 JUMPI JUMP JUMPDEST PUSH1 0x24 CALLDATALOAD SWAP1 PUSH20 0xFFFFFFFFFFFFFFFFFFFFFFFFFFFFFFFFFFFFFFFF DUP3 AND DUP3 SUB PUSH2 0x319 JUMPI JUMP JUMPDEST SWAP2 DUP2 PUSH1 0x1F DUP5 ADD SLT ISZERO PUSH2 0x319 JUMPI DUP3 CALLDATALOAD SWAP2 PUSH8 0xFFFFFFFFFFFFFFFF DUP4 GT PUSH2 0x319 JUMPI PUSH1 0x20 DUP1 DUP6 ADD SWAP5 DUP5 PUSH1 0x5 SHL ADD ADD GT PUSH2 0x319 JUMPI JUMP JUMPDEST CALLER PUSH1 0x0 SWAP1 DUP2 MSTORE PUSH32 0x20BE27040B8E00DF40BCA0DF34743417F3574A156386188F7D7F14369E5EE82B PUSH1 0x20 SWAP1 DUP2 MSTORE PUSH1 0x40 DUP1 DUP4 KECCAK256 SLOAD SWAP1 SWAP3 SWAP1 PUSH32 0x5D8E12C39142FF96D79D04D15D1BA1269E4FE57BB9D26F43523628B34BA108EC SWAP1 PUSH1 0xFF AND ISZERO PUSH2 0x1877 JUMPI POP POP POP POP JUMP JUMPDEST PUSH2 0x1880 CALLER PUSH2 0x1E09 JUMP JUMPDEST DUP5 MLOAD SWAP2 PUSH2 0x188C DUP4 PUSH2 0x1C6F JUMP JUMPDEST PUSH1 0x42 DUP4 MSTORE DUP5 DUP4 ADD SWAP4 PUSH1 0x60 CALLDATASIZE DUP7 CALLDATACOPY DUP4 MLOAD ISZERO PUSH2 0x1A7E JUMPI PUSH1 0x30 DUP6 MSTORE8 DUP4 MLOAD SWAP1 PUSH1 0x1 SWAP2 DUP3 LT ISZERO PUSH2 0x1A7E JUMPI SWAP1 PUSH1 0x78 PUSH1 0x21 DUP7 ADD MSTORE8 PUSH1 0x41 SWAP2 JUMPDEST DUP2 DUP4 GT PUSH2 0x19B3 JUMPI POP POP POP PUSH2 0x1957 JUMPI PUSH2 0x6CC SWAP4 DUP6 SWAP4 PUSH2 0x1927 SWAP4 PUSH2 0x1918 PUSH1 0x48 SWAP5 PUSH2 0x73E SWAP10 MLOAD SWAP9 DUP6 PUSH32 0x416363657373436F6E74726F6C3A206163636F756E7420000000000000000000 DUP12 SWAP8 DUP9 ADD MSTORE DUP3 MLOAD SWAP3 DUP4 SWAP2 PUSH1 0x37 DUP10 ADD SWAP2 ADD PUSH2 0x1BE5 JUMP JUMPDEST ADD SUB PUSH1 0x28 DUP2 ADD DUP6 MSTORE ADD DUP4 PUSH2 0x1C8B JUMP JUMPDEST MLOAD SWAP2 DUP3 SWAP2 PUSH32 0x8C379A000000000000000000000000000000000000000000000000000000000 DUP4 MSTORE PUSH1 0x4 DUP4 ADD PUSH2 0x1CCC JUMP JUMPDEST PUSH1 0x64 DUP5 DUP7 MLOAD SWAP1 PUSH32 0x8C379A000000000000000000000000000000000000000000000000000000000 DUP3 MSTORE DUP1 PUSH1 0x4 DUP4 ADD MSTORE PUSH1 0x24 DUP3 ADD MSTORE PUSH32 0x537472696E67733A20686578206C656E67746820696E73756666696369656E74 PUSH1 0x44 DUP3 ADD MSTORE REVERT JUMPDEST SWAP1 SWAP2 SWAP3 PUSH1 0xF DUP2 AND PUSH1 0x10 DUP2 LT ISZERO PUSH2 0x1A51 JUMPI PUSH32 0x3031323334353637383961626364656600000000000000000000000000000000 SWAP1 BYTE PUSH2 0x19F0 DUP6 DUP9 PUSH2 0x1DC9 JUMP JUMPDEST MSTORE8 PUSH1 0x4 SHR SWAP3 DUP1 ISZERO PUSH2 0x1A24 JUMPI PUSH32 0xFFFFFFFFFFFFFFFFFFFFFFFFFFFFFFFFFFFFFFFFFFFFFFFFFFFFFFFFFFFFFFFF ADD SWAP2 SWAP1 PUSH2 0x18BD JUMP JUMPDEST PUSH1 0x24 DUP3 PUSH32 0x4E487B7100000000000000000000000000000000000000000000000000000000 DUP2 MSTORE PUSH1 0x11 PUSH1 0x4 MSTORE REVERT JUMPDEST PUSH1 0x24 DUP4 PUSH32 0x4E487B7100000000000000000000000000000000000000000000000000000000 DUP2 MSTORE PUSH1 0x32 PUSH1 0x4 MSTORE REVERT JUMPDEST DUP1 PUSH32 0x4E487B7100000000000000000000000000000000000000000000000000000000 PUSH1 0x24 SWAP3 MSTORE PUSH1 0x32 PUSH1 0x4 MSTORE REVERT JUMPDEST PUSH1 0x0 DUP2 DUP2 MSTORE PUSH1 0x20 SWAP1 DUP1 DUP3 MSTORE PUSH1 0x40 SWAP3 DUP4 DUP3 KECCAK256 CALLER DUP4 MSTORE DUP4 MSTORE PUSH1 0xFF DUP5 DUP4 KECCAK256 SLOAD AND ISZERO PUSH2 0x1AD3 JUMPI POP POP POP POP JUMP JUMPDEST PUSH2 0x1ADC CALLER PUSH2 0x1E09 JUMP JUMPDEST DUP5 MLOAD SWAP2 PUSH2 0x1AE8 DUP4 PUSH2 0x1C6F JUMP JUMPDEST PUSH1 0x42 DUP4 MSTORE DUP5 DUP4 ADD SWAP4 PUSH1 0x60 CALLDATASIZE DUP7 CALLDATACOPY DUP4 MLOAD ISZERO PUSH2 0x1A7E JUMPI PUSH1 0x30 DUP6 MSTORE8 DUP4 MLOAD SWAP1 PUSH1 0x1 SWAP2 DUP3 LT ISZERO PUSH2 0x1A7E JUMPI SWAP1 PUSH1 0x78 PUSH1 0x21 DUP7 ADD MSTORE8 PUSH1 0x41 SWAP2 JUMPDEST DUP2 DUP4 GT PUSH2 0x1B74 JUMPI POP POP POP PUSH2 0x1957 JUMPI PUSH2 0x6CC SWAP4 DUP6 SWAP4 PUSH2 0x1927 SWAP4 PUSH2 0x1918 PUSH1 0x48 SWAP5 PUSH2 0x73E SWAP10 MLOAD SWAP9 DUP6 PUSH32 0x416363657373436F6E74726F6C3A206163636F756E7420000000000000000000 DUP12 SWAP8 DUP9 ADD MSTORE DUP3 MLOAD SWAP3 DUP4 SWAP2 PUSH1 0x37 DUP10 ADD SWAP2 ADD PUSH2 0x1BE5 JUMP JUMPDEST SWAP1 SWAP2 SWAP3 PUSH1 0xF DUP2 AND PUSH1 0x10 DUP2 LT ISZERO PUSH2 0x1A51 JUMPI PUSH32 0x3031323334353637383961626364656600000000000000000000000000000000 SWAP1 BYTE PUSH2 0x1BB1 DUP6 DUP9 PUSH2 0x1DC9 JUMP JUMPDEST MSTORE8 PUSH1 0x4 SHR SWAP3 DUP1 ISZERO PUSH2 0x1A24 JUMPI PUSH32 0xFFFFFFFFFFFFFFFFFFFFFFFFFFFFFFFFFFFFFFFFFFFFFFFFFFFFFFFFFFFFFFFF ADD SWAP2 SWAP1 PUSH2 0x1B19 JUMP JUMPDEST PUSH1 0x0 JUMPDEST DUP4 DUP2 LT PUSH2 0x1BF8 JUMPI POP POP PUSH1 0x0 SWAP2 ADD MSTORE JUMP JUMPDEST DUP2 DUP2 ADD MLOAD DUP4 DUP3 ADD MSTORE PUSH1 0x20 ADD PUSH2 0x1BE8 JUMP JUMPDEST PUSH1 0xC0 DUP2 ADD SWAP1 DUP2 LT PUSH8 0xFFFFFFFFFFFFFFFF DUP3 GT OR PUSH2 0x1C24 JUMPI PUSH1 0x40 MSTORE JUMP JUMPDEST PUSH32 0x4E487B7100000000000000000000000000000000000000000000000000000000 PUSH1 0x0 MSTORE PUSH1 0x41 PUSH1 0x4 MSTORE PUSH1 0x24 PUSH1 0x0 REVERT JUMPDEST PUSH1 0x60 DUP2 ADD SWAP1 DUP2 LT PUSH8 0xFFFFFFFFFFFFFFFF DUP3 GT OR PUSH2 0x1C24 JUMPI PUSH1 0x40 MSTORE JUMP JUMPDEST PUSH1 0x80 DUP2 ADD SWAP1 DUP2 LT PUSH8 0xFFFFFFFFFFFFFFFF DUP3 GT OR PUSH2 0x1C24 JUMPI PUSH1 0x40 MSTORE JUMP JUMPDEST SWAP1 PUSH1 0x1F PUSH32 0xFFFFFFFFFFFFFFFFFFFFFFFFFFFFFFFFFFFFFFFFFFFFFFFFFFFFFFFFFFFFFFE0 SWAP2 ADD AND DUP2 ADD SWAP1 DUP2 LT PUSH8 0xFFFFFFFFFFFFFFFF DUP3 GT OR PUSH2 0x1C24 JUMPI PUSH1 0x40 MSTORE JUMP JUMPDEST PUSH32 0xFFFFFFFFFFFFFFFFFFFFFFFFFFFFFFFFFFFFFFFFFFFFFFFFFFFFFFFFFFFFFFE0 PUSH1 0x1F PUSH1 0x40 SWAP4 PUSH1 0x20 DUP5 MSTORE PUSH2 0x1D0F DUP2 MLOAD DUP1 SWAP3 DUP2 PUSH1 0x20 DUP9 ADD MSTORE PUSH1 0x20 DUP9 DUP9 ADD SWAP2 ADD PUSH2 0x1BE5 JUMP JUMPDEST ADD AND ADD ADD SWAP1 JUMP JUMPDEST SWAP1 PUSH1 0x40 PUSH2 0x1D61 SWAP3 PUSH1 0x0 SWAP1 DUP1 DUP3 MSTORE DUP2 PUSH1 0x20 MSTORE PUSH20 0xFFFFFFFFFFFFFFFFFFFFFFFFFFFFFFFFFFFFFFFF DUP4 DUP4 KECCAK256 SWAP5 AND SWAP4 DUP5 DUP4 MSTORE PUSH1 0x20 MSTORE PUSH1 0xFF DUP4 DUP4 KECCAK256 SLOAD AND PUSH2 0x1D64 JUMPI JUMPDEST DUP2 MSTORE PUSH1 0x1 PUSH1 0x20 MSTORE KECCAK256 PUSH2 0x2057 JUMP JUMPDEST POP JUMP JUMPDEST DUP1 DUP3 MSTORE DUP2 PUSH1 0x20 MSTORE DUP3 DUP3 KECCAK256 DUP5 DUP4 MSTORE PUSH1 0x20 MSTORE DUP3 DUP3 KECCAK256 PUSH32 0xFFFFFFFFFFFFFFFFFFFFFFFFFFFFFFFFFFFFFFFFFFFFFFFFFFFFFFFFFFFFFF00 DUP2 SLOAD AND SWAP1 SSTORE CALLER DUP5 DUP3 PUSH32 0xF6391F5C32D9C69D2A47EA670B442974B53935D1EDC7FD64EB21E047A839171B DUP6 DUP1 LOG4 PUSH2 0x1D54 JUMP JUMPDEST SWAP1 DUP2 MLOAD DUP2 LT ISZERO PUSH2 0x1DDA JUMPI ADD PUSH1 0x20 ADD SWAP1 JUMP JUMPDEST PUSH32 0x4E487B7100000000000000000000000000000000000000000000000000000000 PUSH1 0x0 MSTORE PUSH1 0x32 PUSH1 0x4 MSTORE PUSH1 0x24 PUSH1 0x0 REVERT JUMPDEST PUSH1 0x40 MLOAD SWAP1 PUSH2 0x1E16 DUP3 PUSH2 0x1C53 JUMP JUMPDEST PUSH1 0x2A DUP3 MSTORE PUSH1 0x20 DUP3 ADD PUSH1 0x40 CALLDATASIZE DUP3 CALLDATACOPY DUP3 MLOAD ISZERO PUSH2 0x1DDA JUMPI PUSH1 0x30 SWAP1 MSTORE8 DUP2 MLOAD PUSH1 0x1 SWAP1 DUP2 LT ISZERO PUSH2 0x1DDA JUMPI PUSH1 0x78 PUSH1 0x21 DUP5 ADD MSTORE8 PUSH1 0x29 SWAP1 JUMPDEST DUP1 DUP3 GT PUSH2 0x1EB3 JUMPI POP POP PUSH2 0x1E55 JUMPI SWAP1 JUMP JUMPDEST PUSH1 0x64 PUSH1 0x40 MLOAD PUSH32 0x8C379A000000000000000000000000000000000000000000000000000000000 DUP2 MSTORE PUSH1 0x20 PUSH1 0x4 DUP3 ADD MSTORE PUSH1 0x20 PUSH1 0x24 DUP3 ADD MSTORE PUSH32 0x537472696E67733A20686578206C656E67746820696E73756666696369656E74 PUSH1 0x44 DUP3 ADD MSTORE REVERT JUMPDEST SWAP1 SWAP2 PUSH1 0xF DUP2 AND PUSH1 0x10 DUP2 LT ISZERO PUSH2 0x1F50 JUMPI PUSH32 0x3031323334353637383961626364656600000000000000000000000000000000 SWAP1 BYTE PUSH2 0x1EEF DUP5 DUP7 PUSH2 0x1DC9 JUMP JUMPDEST MSTORE8 PUSH1 0x4 SHR SWAP2 DUP1 ISZERO PUSH2 0x1F22 JUMPI PUSH32 0xFFFFFFFFFFFFFFFFFFFFFFFFFFFFFFFFFFFFFFFFFFFFFFFFFFFFFFFFFFFFFFFF ADD SWAP1 PUSH2 0x1E45 JUMP JUMPDEST PUSH1 0x24 PUSH1 0x0 PUSH32 0x4E487B7100000000000000000000000000000000000000000000000000000000 DUP2 MSTORE PUSH1 0x11 PUSH1 0x4 MSTORE REVERT JUMPDEST PUSH1 0x24 PUSH1 0x0 PUSH32 0x4E487B7100000000000000000000000000000000000000000000000000000000 DUP2 MSTORE PUSH1 0x32 PUSH1 0x4 MSTORE REVERT JUMPDEST DUP1 SLOAD DUP3 LT ISZERO PUSH2 0x1DDA JUMPI PUSH1 0x0 MSTORE PUSH1 0x20 PUSH1 0x0 KECCAK256 ADD SWAP1 PUSH1 0x0 SWAP1 JUMP JUMPDEST SWAP2 SWAP1 PUSH1 0x1 DUP4 ADD PUSH1 0x0 SWAP1 DUP3 DUP3 MSTORE DUP1 PUSH1 0x20 MSTORE PUSH1 0x40 DUP3 KECCAK256 SLOAD ISZERO PUSH1 0x0 EQ PUSH2 0x2051 JUMPI DUP5 SLOAD SWAP5 PUSH9 0x10000000000000000 DUP7 LT ISZERO PUSH2 0x2024 JUMPI DUP4 PUSH2 0x2014 PUSH2 0x1FDF DUP9 PUSH1 0x1 PUSH1 0x40 SWAP9 SWAP10 SWAP11 ADD DUP6 SSTORE DUP5 PUSH2 0x1F7E JUMP JUMPDEST DUP2 SWAP4 SWAP2 SLOAD SWAP1 PUSH32 0xFFFFFFFFFFFFFFFFFFFFFFFFFFFFFFFFFFFFFFFFFFFFFFFFFFFFFFFFFFFFFFFF SWAP1 PUSH1 0x3 SHL SWAP3 DUP4 SHL SWAP3 SHL NOT AND OR SWAP1 JUMP JUMPDEST SWAP1 SSTORE SLOAD SWAP4 DUP3 MSTORE PUSH1 0x20 MSTORE KECCAK256 SSTORE PUSH1 0x1 SWAP1 JUMP JUMPDEST PUSH1 0x24 DUP4 PUSH32 0x4E487B7100000000000000000000000000000000000000000000000000000000 DUP2 MSTORE PUSH1 0x41 PUSH1 0x4 MSTORE REVERT JUMPDEST POP SWAP3 POP POP JUMP JUMPDEST SWAP1 PUSH1 0x1 DUP3 ADD SWAP1 PUSH1 0x0 SWAP3 DUP2 DUP5 MSTORE DUP3 PUSH1 0x20 MSTORE PUSH1 0x40 DUP5 KECCAK256 SLOAD SWAP1 DUP2 ISZERO ISZERO PUSH1 0x0 EQ PUSH2 0x21A9 JUMPI PUSH32 0xFFFFFFFFFFFFFFFFFFFFFFFFFFFFFFFFFFFFFFFFFFFFFFFFFFFFFFFFFFFFFFFF SWAP2 DUP3 DUP2 ADD DUP2 DUP2 GT PUSH2 0x217C JUMPI DUP3 SLOAD SWAP1 DUP5 DUP3 ADD SWAP2 DUP3 GT PUSH2 0x214F JUMPI DUP1 DUP3 SUB PUSH2 0x211A JUMPI JUMPDEST POP POP POP DUP1 SLOAD DUP1 ISZERO PUSH2 0x20ED JUMPI DUP3 ADD SWAP2 PUSH2 0x20D0 DUP4 DUP4 PUSH2 0x1F7E JUMP JUMPDEST SWAP1 SWAP2 DUP3 SLOAD SWAP2 PUSH1 0x3 SHL SHL NOT AND SWAP1 SSTORE SSTORE DUP3 MSTORE PUSH1 0x20 MSTORE PUSH1 0x40 DUP2 KECCAK256 SSTORE PUSH1 0x1 SWAP1 JUMP JUMPDEST PUSH1 0x24 DUP7 PUSH32 0x4E487B7100000000000000000000000000000000000000000000000000000000 DUP2 MSTORE PUSH1 0x31 PUSH1 0x4 MSTORE REVERT JUMPDEST PUSH2 0x213A PUSH2 0x212A PUSH2 0x1FDF SWAP4 DUP7 PUSH2 0x1F7E JUMP JUMPDEST SWAP1 SLOAD SWAP1 PUSH1 0x3 SHL SHR SWAP3 DUP4 SWAP3 DUP7 PUSH2 0x1F7E JUMP JUMPDEST SWAP1 SSTORE DUP7 MSTORE DUP5 PUSH1 0x20 MSTORE PUSH1 0x40 DUP7 KECCAK256 SSTORE CODESIZE DUP1 DUP1 PUSH2 0x20B8 JUMP JUMPDEST PUSH1 0x24 DUP9 PUSH32 0x4E487B7100000000000000000000000000000000000000000000000000000000 DUP2 MSTORE PUSH1 0x11 PUSH1 0x4 MSTORE REVERT JUMPDEST PUSH1 0x24 DUP8 PUSH32 0x4E487B7100000000000000000000000000000000000000000000000000000000 DUP2 MSTORE PUSH1 0x11 PUSH1 0x4 MSTORE REVERT JUMPDEST POP POP POP POP SWAP1 JUMP JUMPDEST PUSH20 0xFFFFFFFFFFFFFFFFFFFFFFFFFFFFFFFFFFFFFFFF AND SWAP1 PUSH1 0x40 MLOAD PUSH1 0x40 DUP2 ADD SWAP1 DUP1 DUP3 LT PUSH8 0xFFFFFFFFFFFFFFFF DUP4 GT OR PUSH2 0x1C24 JUMPI PUSH2 0x2230 SWAP2 PUSH1 0x40 MSTORE PUSH1 0x20 SWAP4 DUP5 DUP3 MSTORE PUSH32 0x5361666545524332303A206C6F772D6C6576656C2063616C6C206661696C6564 DUP6 DUP4 ADD MSTORE PUSH1 0x0 DUP1 DUP6 DUP8 DUP3 SWAP8 MLOAD SWAP2 ADD DUP3 DUP6 GAS CALL PUSH2 0x222A PUSH2 0x22F3 JUMP JUMPDEST SWAP2 PUSH2 0x2351 JUMP JUMPDEST DUP1 MLOAD SWAP2 DUP3 ISZERO SWAP2 DUP5 DUP4 ISZERO PUSH2 0x22CF JUMPI JUMPDEST POP POP POP SWAP1 POP ISZERO PUSH2 0x224B JUMPI POP JUMP JUMPDEST PUSH1 0x84 SWAP1 PUSH1 0x40 MLOAD SWAP1 PUSH32 0x8C379A000000000000000000000000000000000000000000000000000000000 DUP3 MSTORE PUSH1 0x4 DUP3 ADD MSTORE PUSH1 0x2A PUSH1 0x24 DUP3 ADD MSTORE PUSH32 0x5361666545524332303A204552433230206F7065726174696F6E20646964206E PUSH1 0x44 DUP3 ADD MSTORE PUSH32 0x6F74207375636365656400000000000000000000000000000000000000000000 PUSH1 0x64 DUP3 ADD MSTORE REVERT JUMPDEST SWAP2 SWAP4 DUP2 DUP1 SWAP5 POP ADD SUB SLT PUSH2 0x386 JUMPI DUP3 ADD MLOAD SWAP1 DUP2 ISZERO ISZERO DUP3 SUB PUSH2 0x34B JUMPI POP DUP1 CODESIZE DUP1 DUP5 PUSH2 0x223E JUMP JUMPDEST RETURNDATASIZE ISZERO PUSH2 0x234C JUMPI RETURNDATASIZE SWAP1 PUSH8 0xFFFFFFFFFFFFFFFF DUP3 GT PUSH2 0x1C24 JUMPI PUSH1 0x40 MLOAD SWAP2 PUSH2 0x2340 PUSH1 0x20 PUSH32 0xFFFFFFFFFFFFFFFFFFFFFFFFFFFFFFFFFFFFFFFFFFFFFFFFFFFFFFFFFFFFFFE0 PUSH1 0x1F DUP5 ADD AND ADD DUP5 PUSH2 0x1C8B JUMP JUMPDEST DUP3 MSTORE RETURNDATASIZE PUSH1 0x0 PUSH1 0x20 DUP5 ADD RETURNDATACOPY JUMP JUMPDEST PUSH1 0x60 SWAP1 JUMP JUMPDEST SWAP2 SWAP3 SWAP1 ISZERO PUSH2 0x23CC JUMPI POP DUP2 MLOAD ISZERO PUSH2 0x2365 JUMPI POP SWAP1 JUMP JUMPDEST EXTCODESIZE ISZERO PUSH2 0x236E JUMPI SWAP1 JUMP JUMPDEST PUSH1 0x64 PUSH1 0x40 MLOAD PUSH32 0x8C379A000000000000000000000000000000000000000000000000000000000 DUP2 MSTORE PUSH1 0x20 PUSH1 0x4 DUP3 ADD MSTORE PUSH1 0x1D PUSH1 0x24 DUP3 ADD MSTORE PUSH32 0x416464726573733A2063616C6C20746F206E6F6E2D636F6E7472616374000000 PUSH1 0x44 DUP3 ADD MSTORE REVERT JUMPDEST DUP3 MLOAD SWAP1 SWAP2 POP ISZERO PUSH2 0x23DF JUMPI POP DUP1 MLOAD SWAP1 PUSH1 0x20 ADD REVERT JUMPDEST PUSH2 0x73E SWAP1 PUSH1 0x40 MLOAD SWAP2 DUP3 SWAP2 PUSH32 0x8C379A000000000000000000000000000000000000000000000000000000000 DUP4 MSTORE PUSH1 0x4 DUP4 ADD PUSH2 0x1CCC JUMP INVALID LOG2 PUSH5 0x6970667358 0x22 SLT KECCAK256 0xCB 0x5D SWAP15 PUSH12 0x16161FA2406381893F6870B6 PUSH20 0xD77D593C20D02145F96D674BA8A4E464736F6C63 NUMBER STOP ADDMOD SGT STOP CALLER "
				}
			},
			"userdoc": {
				"events": {
					"ERC721SaleDeployed(address)": {
						"notice": "Event emitted when a new ERC-721 Sale proxy contract is deployed."
					}
				},
				"kind": "user",
				"methods": {
					"constructor": {
						"notice": "Creates an ERC-721 Sale Factory."
					},
					"deploy(address,address,address)": {
						"notice": "Creates an ERC-721 Sale for given token contractThe deployed contract must be granted the MINTER_ROLE on the ERC-721 Items contract."
					},
					"determineAddress(address,address,address)": {
						"notice": "Computes the address of a proxy instance."
					},
					"upgradeBeacon(address)": {
						"notice": "Upgrades the beacon implementation."
					}
				},
				"notice": "Deployer of ERC-721 Sale proxies.",
				"version": 1
			}
		}
	}
}