{
	"src/tokens/ERC721/presets/items/ERC721ItemsFactory.sol": {
		"ERC721ItemsFactory": {
			"abi": [
				{
					"inputs": [
						{
							"internalType": "address",
							"name": "factoryOwner",
							"type": "address"
						}
					],
					"stateMutability": "nonpayable",
					"type": "constructor"
				},
				{
					"anonymous": false,
					"inputs": [
						{
							"indexed": false,
							"internalType": "address",
							"name": "proxyAddr",
							"type": "address"
						}
					],
					"name": "ERC721ItemsDeployed",
					"type": "event"
				},
				{
					"anonymous": false,
					"inputs": [
						{
							"indexed": true,
							"internalType": "address",
							"name": "previousOwner",
							"type": "address"
						},
						{
							"indexed": true,
							"internalType": "address",
							"name": "newOwner",
							"type": "address"
						}
					],
					"name": "OwnershipTransferred",
					"type": "event"
				},
				{
					"inputs": [],
					"name": "beacon",
					"outputs": [
						{
							"internalType": "contract UpgradeableBeacon",
							"name": "",
							"type": "address"
						}
					],
					"stateMutability": "view",
					"type": "function"
				},
				{
					"inputs": [
						{
							"internalType": "address",
							"name": "proxyOwner",
							"type": "address"
						},
						{
							"internalType": "address",
							"name": "tokenOwner",
							"type": "address"
						},
						{
							"internalType": "string",
							"name": "name",
							"type": "string"
						},
						{
							"internalType": "string",
							"name": "symbol",
							"type": "string"
						},
						{
							"internalType": "string",
							"name": "baseURI",
							"type": "string"
						},
						{
							"internalType": "string",
							"name": "contractURI",
							"type": "string"
						},
						{
							"internalType": "address",
							"name": "royaltyReceiver",
							"type": "address"
						},
						{
							"internalType": "uint96",
							"name": "royaltyFeeNumerator",
							"type": "uint96"
						}
					],
					"name": "deploy",
					"outputs": [
						{
							"internalType": "address",
							"name": "proxyAddr",
							"type": "address"
						}
					],
					"stateMutability": "nonpayable",
					"type": "function"
				},
				{
					"inputs": [],
					"name": "owner",
					"outputs": [
						{
							"internalType": "address",
							"name": "",
							"type": "address"
						}
					],
					"stateMutability": "view",
					"type": "function"
				},
				{
					"inputs": [],
					"name": "renounceOwnership",
					"outputs": [],
					"stateMutability": "nonpayable",
					"type": "function"
				},
				{
					"inputs": [
						{
							"internalType": "address",
							"name": "newOwner",
							"type": "address"
						}
					],
					"name": "transferOwnership",
					"outputs": [],
					"stateMutability": "nonpayable",
					"type": "function"
				},
				{
					"inputs": [
						{
							"internalType": "address",
							"name": "implementation",
							"type": "address"
						}
					],
					"name": "upgradeBeacon",
					"outputs": [],
					"stateMutability": "nonpayable",
					"type": "function"
				}
			],
			"devdoc": {
				"events": {
					"ERC721ItemsDeployed(address)": {
						"params": {
							"proxyAddr": "The address of the deployed proxy."
						}
					}
				},
				"kind": "dev",
				"methods": {
					"constructor": {
						"params": {
							"factoryOwner": "The owner of the ERC-721 Items Factory"
						}
					},
					"deploy(address,address,string,string,string,string,address,uint96)": {
						"params": {
							"baseURI": "The base URI of the ERC-721 Items proxy",
							"contractURI": "The contract URI of the ERC-721 Items proxy",
							"name": "The name of the ERC-721 Items proxy",
							"proxyOwner": "The owner of the ERC-721 Items proxy",
							"royaltyFeeNumerator": "The royalty fee numerator in basis points (e.g. 15% would be 1500)",
							"royaltyReceiver": "Address of who should be sent the royalty payment",
							"symbol": "The symbol of the ERC-721 Items proxy",
							"tokenOwner": "The owner of the ERC-721 Items implementation"
						},
						"returns": {
							"proxyAddr": "The address of the ERC-721 Items Proxy"
						}
					},
					"owner()": {
						"details": "Returns the address of the current owner."
					},
					"renounceOwnership()": {
						"details": "Leaves the contract without owner. It will not be possible to call `onlyOwner` functions. Can only be called by the current owner. NOTE: Renouncing ownership will leave the contract without an owner, thereby disabling any functionality that is only available to the owner."
					},
					"transferOwnership(address)": {
						"details": "Transfers ownership of the contract to a new account (`newOwner`). Can only be called by the current owner."
					},
					"upgradeBeacon(address)": {
						"params": {
							"implementation": "The new beacon implementation."
						}
					}
				},
				"version": 1
			},
			"evm": {
				"bytecode": {
					"linkReferences": {},
					"object": "608034610125576001600160401b0390601f6200650738819003918201601f191683019291908484118385101761010f57816020928492604096875283398101031261012557516001600160a01b038082168203610125576100603361012a565b82519361411f94858101958187108388111761010f57620023e8823980600096039086f0908115610105578451916105ee808401928311848410176100f1579184849260209462001dfa853916815203019085f080156100e4576100d69394501660018060a01b0319600154161760015561012a565b51611c889081620001728239f35b50505051903d90823e3d90fd5b634e487b7160e01b88526041600452602488fd5b84513d87823e3d90fd5b634e487b7160e01b600052604160045260246000fd5b600080fd5b600080546001600160a01b039283166001600160a01b03198216811783559216907f8be0079c531659141344cd1fd0a4f28419497f9722a3daafe3b4186f6b6457e09080a356fe6040608081526004908136101561001557600080fd5b600091823560e01c80631bce45831461072157806325a570b8146102e757806359659e9014610294578063715018a6146101f45780638da5cb5b1461019f5763f2fde38b1461006357600080fd5b3461019b5760207ffffffffffffffffffffffffffffffffffffffffffffffffffffffffffffffffc36011261019b5761009a6107e0565b906100a36108fc565b73ffffffffffffffffffffffffffffffffffffffff809216928315610118575050600054827fffffffffffffffffffffffff0000000000000000000000000000000000000000821617600055167f8be0079c531659141344cd1fd0a4f28419497f9722a3daafe3b4186f6b6457e0600080a380f35b90602060849251917f08c379a0000000000000000000000000000000000000000000000000000000008352820152602660248201527f4f776e61626c653a206e6577206f776e657220697320746865207a65726f206160448201527f64647265737300000000000000000000000000000000000000000000000000006064820152fd5b8280fd5b5050346101f057817ffffffffffffffffffffffffffffffffffffffffffffffffffffffffffffffffc3601126101f05773ffffffffffffffffffffffffffffffffffffffff60209254169051908152f35b5080fd5b833461029157807ffffffffffffffffffffffffffffffffffffffffffffffffffffffffffffffffc3601126102915761022b6108fc565b600073ffffffffffffffffffffffffffffffffffffffff81547fffffffffffffffffffffffff000000000000000000000000000000000000000081168355167f8be0079c531659141344cd1fd0a4f28419497f9722a3daafe3b4186f6b6457e08280a380f35b80fd5b5050346101f057817ffffffffffffffffffffffffffffffffffffffffffffffffffffffffffffffffc3601126101f05760209073ffffffffffffffffffffffffffffffffffffffff600154169051908152f35b508290346101f0576101007ffffffffffffffffffffffffffffffffffffffffffffffffffffffffffffffffc3601126101f0576103226107e0565b9273ffffffffffffffffffffffffffffffffffffffff92602435848116810361070c5767ffffffffffffffff9360443585811161071d576103669036908301610887565b956064358681116107195761037e9036908401610887565b608435878111610715576103959036908501610887565b60a435888111610711576103ac9036908601610887565b9060c43592848416840361070c5760e435946bffffffffffffffffffffffff861686036105fd578b9c8a9b9c999a5160209e8f91808c8b8b8b8b8b898701986103f5968a6109e1565b037fffffffffffffffffffffffffffffffffffffffffffffffffffffffffffffffe0810182526104259082610846565b5190208d519e90918f019081118f8210176106de578f918f8f928f816068916104af93875284526001549061049f87519586938a85019889527fffffffffffffffffffffffffffffffffffffffff00000000000000000000000090818d60601b168b87015260601b1660548501525180928585019061097b565b8101036048810184520182610846565b519020916111eb9151906104c581840183610846565b828252810191610a68833980511561068057518492918ef5169c8d156106235760015483169291908e3b1561061f578c928f918f9361054786928e9651988997889687957fcf7a1d770000000000000000000000000000000000000000000000000000000087521690850152602484015260606044840152606483019061099e565b03925af1801561061557908a91610601575b50508a3b156105fd579161059e939189979695938b51998a9889987f98dd69c8000000000000000000000000000000000000000000000000000000008a5289016109e1565b038183885af180156105f3576105df575b50507fd8ad75647a93de9d8d617559d87f1c27bc23fb6237b94054baf34aafbe85ad03838251848152a151908152f35b6105e98291610803565b61029157806105af565b83513d84823e3d90fd5b8880fd5b61060a90610803565b6105fd57888d610559565b8b513d8c823e3d90fd5b8c80fd5b506064888f8e51917f08c379a0000000000000000000000000000000000000000000000000000000008352820152601960248201527f437265617465323a204661696c6564206f6e206465706c6f79000000000000006044820152fd5b5050506064888f808f51927f08c379a000000000000000000000000000000000000000000000000000000000845283015260248201527f437265617465323a2062797465636f6465206c656e677468206973207a65726f6044820152fd5b60418a7f4e487b71000000000000000000000000000000000000000000000000000000006000525260246000fd5b600080fd5b8680fd5b8580fd5b8480fd5b8380fd5b50903461019b5760207ffffffffffffffffffffffffffffffffffffffffffffffffffffffffffffffffc36011261019b578261075b6107e0565b6107636108fc565b73ffffffffffffffffffffffffffffffffffffffff90816001541690813b1561071d5783602492865197889586947f3659cfe600000000000000000000000000000000000000000000000000000000865216908401525af19081156107d757506107cb575080f35b6107d490610803565b80f35b513d84823e3d90fd5b6004359073ffffffffffffffffffffffffffffffffffffffff8216820361070c57565b67ffffffffffffffff811161081757604052565b7f4e487b7100000000000000000000000000000000000000000000000000000000600052604160045260246000fd5b90601f7fffffffffffffffffffffffffffffffffffffffffffffffffffffffffffffffe0910116810190811067ffffffffffffffff82111761081757604052565b81601f8201121561070c5780359067ffffffffffffffff821161081757604051926108da60207fffffffffffffffffffffffffffffffffffffffffffffffffffffffffffffffe0601f8601160185610846565b8284526020838301011161070c57816000926020809301838601378301015290565b73ffffffffffffffffffffffffffffffffffffffff60005416330361091d57565b60646040517f08c379a000000000000000000000000000000000000000000000000000000000815260206004820152602060248201527f4f776e61626c653a2063616c6c6572206973206e6f7420746865206f776e65726044820152fd5b60005b83811061098e5750506000910152565b818101518382015260200161097e565b907fffffffffffffffffffffffffffffffffffffffffffffffffffffffffffffffe0601f6020936109da8151809281875287808801910161097b565b0116010190565b9597969294610a4c6bffffffffffffffffffffffff95610a3e60c098610a30610a5a969760e060208e73ffffffffffffffffffffffffffffffffffffffff809c168152015260e08d019061099e565b908b820360408d015261099e565b9089820360608b015261099e565b90878203608089015261099e565b961660a08501521691015256fe60808060405234610016576111cf908161001c8239f35b600080fdfe604060808152366103825773ffffffffffffffffffffffffffffffffffffffff807fb53127684a568b3173ae13b9f8a6016e243e63b6e8ee1178d6a717850b5d61035416158015610b94576000917fcf7a1d77000000000000000000000000000000000000000000000000000000007fffffffff00000000000000000000000000000000000000000000000000000000843516146100c057600484517ff92ee8a9000000000000000000000000000000000000000000000000000000008152fd5b6100c8611192565b60049136831161037e5760607ffffffffffffffffffffffffffffffffffffffffffffffffffffffffffffffffc36011261037e578235916101088361067f565b602435926101158461067f565b60443567ffffffffffffffff811161037a57610135839136908801610789565b941692156103525761014791166107e3565b803b156102cf578451907f5c60da1b000000000000000000000000000000000000000000000000000000009384835260209687848381865afa9384156102a657889461019d9189916102b2575b503b1515610926565b7fa3f0ad74e5423aebfd80d3ef4346578335a9a72aeaee59ff6cb3582b35133d5080547fffffffffffffffffffffffff00000000000000000000000000000000000000001673ffffffffffffffffffffffffffffffffffffffff85161790555194827f1cf3b03a6cf19fa2baba4df148e9dcabedea7f8a5c07840e207e5c089be95d3e8880a28451158015906102ab575b610242575b8361023c6107d0565b80519101f35b8592839182525afa9182156102a65761026a9392610277575b506102646109b1565b91610a21565b5038808083818080610233565b610298919250843d861161029f575b610290818361070e565b810190610902565b903861025b565b503d610286565b61091a565b508661022e565b6102c99150863d881161029f57610290818361070e565b38610194565b60848360208751917f08c379a0000000000000000000000000000000000000000000000000000000008352820152602560248201527f455243313936373a206e657720626561636f6e206973206e6f74206120636f6e60448201527f74726163740000000000000000000000000000000000000000000000000000006064820152fd5b8487517ff92ee8a9000000000000000000000000000000000000000000000000000000008152fd5b8680fd5b8380fd5b73ffffffffffffffffffffffffffffffffffffffff807fb53127684a568b3173ae13b9f8a6016e243e63b6e8ee1178d6a717850b5d61035416158015610b94576000907fcf7a1d77000000000000000000000000000000000000000000000000000000007fffffffff00000000000000000000000000000000000000000000000000000000833516146104395760046040517ff92ee8a9000000000000000000000000000000000000000000000000000000008152fd5b610441611192565b60049236841161067b5760607ffffffffffffffffffffffffffffffffffffffffffffffffffffffffffffffffc36011261067b5783356104808161067f565b6024359161048d8361067f565b60443567ffffffffffffffff8111610677576104ad829136908901610789565b9316931561064e576104bf91166107e3565b813b156105ca576040517f5c60da1b000000000000000000000000000000000000000000000000000000009283825260209586838281855afa9283156102a65787936105149188916105b357503b1515610926565b7fa3f0ad74e5423aebfd80d3ef4346578335a9a72aeaee59ff6cb3582b35133d5080547fffffffffffffffffffffffff00000000000000000000000000000000000000001673ffffffffffffffffffffffffffffffffffffffff841617905560405194827f1cf3b03a6cf19fa2baba4df148e9dcabedea7f8a5c07840e207e5c089be95d3e8880a28451158015906102ab57610242578361023c6107d0565b6102c99150853d871161029f57610290818361070e565b6084846020604051917f08c379a0000000000000000000000000000000000000000000000000000000008352820152602560248201527f455243313936373a206e657720626561636f6e206973206e6f74206120636f6e60448201527f74726163740000000000000000000000000000000000000000000000000000006064820152fd5b856040517ff92ee8a9000000000000000000000000000000000000000000000000000000008152fd5b8580fd5b8280fd5b73ffffffffffffffffffffffffffffffffffffffff81160361069d57565b600080fd5b7f4e487b7100000000000000000000000000000000000000000000000000000000600052604160045260246000fd5b6020810190811067ffffffffffffffff8211176106ed57604052565b6106a2565b6040810190811067ffffffffffffffff8211176106ed57604052565b90601f7fffffffffffffffffffffffffffffffffffffffffffffffffffffffffffffffe0910116810190811067ffffffffffffffff8211176106ed57604052565b67ffffffffffffffff81116106ed57601f017fffffffffffffffffffffffffffffffffffffffffffffffffffffffffffffffe01660200190565b81601f8201121561069d578035906107a08261074f565b926107ae604051948561070e565b8284526020838301011161069d57816000926020809301838601378301015290565b604051906107dd826106d1565b60008252565b7fb53127684a568b3173ae13b9f8a6016e243e63b6e8ee1178d6a717850b5d61039081547f7e644d79422f17c01e4894b5f4f588d331ebfa28653d42ae832dc59e38c9798f604080519373ffffffffffffffffffffffffffffffffffffffff9081851686521693846020820152a1811561087e577fffffffffffffffffffffffff000000000000000000000000000000000000000016179055565b60846040517f08c379a000000000000000000000000000000000000000000000000000000000815260206004820152602660248201527f455243313936373a206e65772061646d696e20697320746865207a65726f206160448201527f64647265737300000000000000000000000000000000000000000000000000006064820152fd5b9081602091031261069d57516109178161067f565b90565b6040513d6000823e3d90fd5b1561092d57565b60846040517f08c379a000000000000000000000000000000000000000000000000000000000815260206004820152603060248201527f455243313936373a20626561636f6e20696d706c656d656e746174696f6e206960448201527f73206e6f74206120636f6e7472616374000000000000000000000000000000006064820152fd5b604051906060820182811067ffffffffffffffff8211176106ed57604052602782527f206661696c6564000000000000000000000000000000000000000000000000006040837f416464726573733a206c6f772d6c6576656c2064656c65676174652063616c6c60208201520152565b6000806109179493602081519101845af43d15610a60573d91610a438361074f565b92610a51604051948561070e565b83523d6000602085013e610acd565b606091610acd565b15610a6f57565b60646040517f08c379a000000000000000000000000000000000000000000000000000000000815260206004820152601d60248201527f416464726573733a2063616c6c20746f206e6f6e2d636f6e74726163740000006044820152fd5b91929015610aed5750815115610ae1575090565b610917903b1515610a68565b825190915015610b005750805190602001fd5b604051907f08c379a000000000000000000000000000000000000000000000000000000000825281602080600483015282519283602484015260005b848110610b7d575050507fffffffffffffffffffffffffffffffffffffffffffffffffffffffffffffffe0601f836000604480968601015201168101030190fd5b818101830151868201604401528593508201610b3c565b610bee610bd57fb53127684a568b3173ae13b9f8a6016e243e63b6e8ee1178d6a717850b5d61035473ffffffffffffffffffffffffffffffffffffffff1690565b73ffffffffffffffffffffffffffffffffffffffff1690565b3303610d14576000357fffffffff00000000000000000000000000000000000000000000000000000000167f3659cfe6000000000000000000000000000000000000000000000000000000008103610c515750610c49610f0f565b602081519101f35b7f4f1ef286000000000000000000000000000000000000000000000000000000008103610c865750610c81611083565b610c49565b7f8f283970000000000000000000000000000000000000000000000000000000008103610cb65750610c81610ec5565b7ff851a440000000000000000000000000000000000000000000000000000000008103610ce65750610c81610dfd565b7f5c60da1b0000000000000000000000000000000000000000000000000000000003610d1457610c81610e53565b610d1c610d3b565b6000808092368280378136915af43d82803e15610d37573d90f35b3d90fd5b73ffffffffffffffffffffffffffffffffffffffff807f360894a13ba1a3210667c828492db98dca3e2076cc3735a920a3ca505d382bbc541680610df8575060206004917fa3f0ad74e5423aebfd80d3ef4346578335a9a72aeaee59ff6cb3582b35133d505416604051928380927f5c60da1b0000000000000000000000000000000000000000000000000000000082525afa9081156102a657600091610de0575090565b610917915060203d811161029f57610290818361070e565b905090565b610e05611192565b73ffffffffffffffffffffffffffffffffffffffff7fb53127684a568b3173ae13b9f8a6016e243e63b6e8ee1178d6a717850b5d6103541660405190602082015260208152610917816106f2565b610e5b611192565b610e63610d3b565b73ffffffffffffffffffffffffffffffffffffffff6040519116602082015260208152610917816106f2565b7ffffffffffffffffffffffffffffffffffffffffffffffffffffffffffffffffc602091011261069d576004356109178161067f565b610ecd611192565b3660041161069d57610efc73ffffffffffffffffffffffffffffffffffffffff610ef636610e8f565b166107e3565b604051610f08816106d1565b6000815290565b610f17611192565b3660041161069d5773ffffffffffffffffffffffffffffffffffffffff610f3d36610e8f565b1660405190610f4b826106d1565b60008252803b15610fff577f360894a13ba1a3210667c828492db98dca3e2076cc3735a920a3ca505d382bbc817fffffffffffffffffffffffff0000000000000000000000000000000000000000825416179055807fbc7cd75a20ee27fd9adebab32041f755214dbc6bffa90cc0225b39da2e5c2d3b600080a2815115801590610ff7575b610fe3575b5050604051610f08816106d1565b610fef916102646109b1565b503880610fd5565b506000610fd0565b60846040517f08c379a000000000000000000000000000000000000000000000000000000000815260206004820152602d60248201527f455243313936373a206e657720696d706c656d656e746174696f6e206973206e60448201527f6f74206120636f6e7472616374000000000000000000000000000000000000006064820152fd5b3660041161069d5760407ffffffffffffffffffffffffffffffffffffffffffffffffffffffffffffffffc36011261069d576004356110c18161067f565b60243567ffffffffffffffff811161069d576110f673ffffffffffffffffffffffffffffffffffffffff913690600401610789565b9116803b15610fff577f360894a13ba1a3210667c828492db98dca3e2076cc3735a920a3ca505d382bbc817fffffffffffffffffffffffff0000000000000000000000000000000000000000825416179055807fbc7cd75a20ee27fd9adebab32041f755214dbc6bffa90cc0225b39da2e5c2d3b600080a281511580159061118a57610fe3575050604051610f08816106d1565b506001610fd0565b3461069d5756fea26469706673582212205afdfcf2db2f242d1c90fc4524ff1841da37419738805ee0571bd2744b6196ce64736f6c63430008130033a2646970667358221220a80cc5d74e0a02cb4b1f44a1dec44bba24dd9e7bd16093f5d05c61be5740ed1664736f6c6343000813003360803461011a57601f6105ee38819003918201601f19168301916001600160401b0383118484101761011f5780849260209460405283398101031261011a57516001600160a01b03808216919082820361011a576000549160018060a01b0319923384821617600055604051923391167f8be0079c531659141344cd1fd0a4f28419497f9722a3daafe3b4186f6b6457e0600080a33b156100b2575060015416176001556040516104b890816101368239f35b62461bcd60e51b815260206004820152603360248201527f5570677261646561626c65426561636f6e3a20696d706c656d656e746174696f60448201527f6e206973206e6f74206120636f6e7472616374000000000000000000000000006064820152608490fd5b600080fd5b634e487b7160e01b600052604160045260246000fdfe6080604052600436101561001257600080fd5b6000803560e01c80633659cfe6146102ce5780635c60da1b1461027c578063715018a6146101e05780638da5cb5b1461018f5763f2fde38b1461005457600080fd5b3461018c5760207ffffffffffffffffffffffffffffffffffffffffffffffffffffffffffffffffc36011261018c5760043573ffffffffffffffffffffffffffffffffffffffff808216809203610188576100ad610403565b8115610104578254827fffffffffffffffffffffffff00000000000000000000000000000000000000008216178455167f8be0079c531659141344cd1fd0a4f28419497f9722a3daafe3b4186f6b6457e08380a380f35b60846040517f08c379a000000000000000000000000000000000000000000000000000000000815260206004820152602660248201527f4f776e61626c653a206e6577206f776e657220697320746865207a65726f206160448201527f64647265737300000000000000000000000000000000000000000000000000006064820152fd5b8280fd5b80fd5b503461018c57807ffffffffffffffffffffffffffffffffffffffffffffffffffffffffffffffffc36011261018c5773ffffffffffffffffffffffffffffffffffffffff6020915416604051908152f35b503461018c57807ffffffffffffffffffffffffffffffffffffffffffffffffffffffffffffffffc36011261018c57610217610403565b8073ffffffffffffffffffffffffffffffffffffffff81547fffffffffffffffffffffffff000000000000000000000000000000000000000081168355167f8be0079c531659141344cd1fd0a4f28419497f9722a3daafe3b4186f6b6457e08280a380f35b503461018c57807ffffffffffffffffffffffffffffffffffffffffffffffffffffffffffffffffc36011261018c57602073ffffffffffffffffffffffffffffffffffffffff60015416604051908152f35b503461018c5760207ffffffffffffffffffffffffffffffffffffffffffffffffffffffffffffffffc36011261018c5760043573ffffffffffffffffffffffffffffffffffffffff81169081810361018857610328610403565b3b1561037f57807fffffffffffffffffffffffff000000000000000000000000000000000000000060015416176001557fbc7cd75a20ee27fd9adebab32041f755214dbc6bffa90cc0225b39da2e5c2d3b8280a280f35b60846040517f08c379a000000000000000000000000000000000000000000000000000000000815260206004820152603360248201527f5570677261646561626c65426561636f6e3a20696d706c656d656e746174696f60448201527f6e206973206e6f74206120636f6e7472616374000000000000000000000000006064820152fd5b73ffffffffffffffffffffffffffffffffffffffff60005416330361042457565b60646040517f08c379a000000000000000000000000000000000000000000000000000000000815260206004820152602060248201527f4f776e61626c653a2063616c6c6572206973206e6f7420746865206f776e65726044820152fdfea2646970667358221220ee02a7cc9adae68564feda64934170f02f3f12a55b74647721baba4fb366157164736f6c6343000813003360a060405234620002dc5762000014620002e1565b6200001e620002e1565b8151906001600160401b0390818311620001ee57600254906001938483811c9316958615620002d1575b60209687851014620001cd578190601f948581116200027a575b508790858311600114620002105760009262000204575b5050600019600383901b1c191690851b176002555b8051928311620001ee5760039485548581811c91168015620001e3575b82821014620001cd5783811162000182575b50809284116001146200011857509282939183926000946200010c575b50501b9160001990841b1c19161790555b6000805533608052604051613e1990816200030682396080518161396f0152f35b015192503880620000da565b919083601f1981168760005284600020946000905b888383106200016757505050106200014e575b505050811b019055620000eb565b015160001983861b60f8161c1916905538808062000140565b8587015188559096019594850194879350908101906200012d565b86600052816000208480870160051c820192848810620001c3575b0160051c019086905b828110620001b6575050620000bd565b60008155018690620001a6565b925081926200019d565b634e487b7160e01b600052602260045260246000fd5b90607f1690620000ab565b634e487b7160e01b600052604160045260246000fd5b01519050388062000079565b90879350601f198316916002600052896000209260005b8b82821062000263575050841162000249575b505050811b016002556200008e565b015160001960f88460031b161c191690553880806200023a565b8385015186558b9790950194938401930162000227565b9091506002600052876000208580850160051c8201928a8610620002c7575b918991869594930160051c01915b828110620002b757505062000062565b60008155859450899101620002a7565b9250819262000299565b92607f169262000048565b600080fd5b60405190602082016001600160401b03811183821017620001ee576040526000825256fe6080604052600436101561001257600080fd5b60003560e01c806301ffc9a71461026757806304634d8d1461026257806306fdde031461025d578063081812fc14610258578063095ea7b31461025357806318160ddd1461024e57806323b872dd14610249578063248a9ca3146102445780632a55205a1461023f5780632f2ff15d1461023a57806336568abe1461023557806340c10f191461023057806342842e0e1461022b57806342966c68146102265780635944c753146102215780635a4462151461021c5780635bbb2177146102175780636352211e1461021257806370a082311461020d5780637e518ec8146102085780638462151c146102035780639010d07c146101fe57806391d14854146101f9578063938e3d7b146101f457806395d89b41146101ef57806398dd69c8146101ea57806399a2557a146101e5578063a217fddf146101e0578063a22cb465146101db578063b88d4fde146101d6578063c23dc68f146101d1578063c87b56dd146101cc578063ca15c873146101c7578063d547741f146101c2578063dc8e92ea146101bd578063e8a3d485146101b85763e985e9c5146101b357600080fd5b611c80565b611bd9565b611b52565b611afb565b611acf565b611955565b6118e3565b611888565b6117b9565b61179d565b611765565b6116c7565b611620565b611521565b6114c1565b61146e565b61139a565b611260565b61120a565b6111ce565b611168565b610f9e565b610d2c565b610d10565b610ced565b610b9f565b610ad9565b610996565b6108c5565b610896565b610884565b61081f565b610700565b610686565b610587565b6104e7565b61029b565b7fffffffff0000000000000000000000000000000000000000000000000000000081160361029657565b600080fd5b346102965760206003193601126102965761031d6004356102bb8161026c565b7fffffffff000000000000000000000000000000000000000000000000000000008116807f40c10f190000000000000000000000000000000000000000000000000000000014918215610321575b505060405190151581529081906020820190565b0390f35b7fc21b8f28000000000000000000000000000000000000000000000000000000008214925090821561041e575b821561038d575b50811561037c575b811561036c575b503880610309565b6103769150613c7d565b38610364565b905061038781613c7d565b9061035d565b9091507f01ffc9a70000000000000000000000000000000000000000000000000000000081149081156103f4575b81156103ca575b509038610355565b7f5b5e139f00000000000000000000000000000000000000000000000000000000915014386103c2565b7f80ac58cd00000000000000000000000000000000000000000000000000000000811491506103bb565b7f8446a79e000000000000000000000000000000000000000000000000000000008114925061034e565b6004359073ffffffffffffffffffffffffffffffffffffffff8216820361029657565b6024359073ffffffffffffffffffffffffffffffffffffffff8216820361029657565b60a4359073ffffffffffffffffffffffffffffffffffffffff8216820361029657565b604435906bffffffffffffffffffffffff8216820361029657565b60c435906bffffffffffffffffffffffff8216820361029657565b3461029657604060031936011261029657610500610448565b6024356bffffffffffffffffffffffff811681036102965761052991610524611cf0565b613ba5565b005b60005b83811061053e5750506000910152565b818101518382015260200161052e565b90601f19601f60209361056c8151809281875287808801910161052b565b0116010190565b90602061058492818152019061054e565b90565b3461029657600080600319360112610683576040519080600d546105aa81613259565b8085529160019180831690811561063b57506001146105e0575b61031d856105d481870382610efe565b60405191829182610573565b9250600d83527fd7b6990105719101dabeb77144f2a3385c8033acd3af97e9423a695e81ad1eb55b8284106106235750505081016020016105d48261031d6105c4565b80546020858701810191909152909301928101610608565b86955061031d969350602092506105d49491507fffffffffffffffffffffffffffffffffffffffffffffffffffffffffffffff001682840152151560051b82010192936105c4565b80fd5b34610296576020600319360112610296576004356106a381612a31565b156106d6576000526006602052602073ffffffffffffffffffffffffffffffffffffffff60406000205416604051908152f35b60046040517fcf4700e4000000000000000000000000000000000000000000000000000000008152fd5b604060031936011261029657610714610448565b60243573ffffffffffffffffffffffffffffffffffffffff8061073683612992565b16908133036107b6575b600083815260066020526040812080547fffffffffffffffffffffffff00000000000000000000000000000000000000001673ffffffffffffffffffffffffffffffffffffffff87161790559316907f8c5be1e5ebec7d5bd14f71427d1e84f3dd0314c0f7b2291e5b200ac8c7c3b9258480a480f35b81600052600760205260ff6107ef3360406000209073ffffffffffffffffffffffffffffffffffffffff16600052602052604060002090565b54166107405760046040517fcfb3b942000000000000000000000000000000000000000000000000000000008152fd5b346102965760006003193601126102965760206000546001549003604051908152f35b60031960609101126102965773ffffffffffffffffffffffffffffffffffffffff90600435828116810361029657916024359081168103610296579060443590565b61052961089036610842565b91612a73565b3461029657602060031936011261029657600435600052600a6020526020600160406000200154604051908152f35b346102965760406003193601126102965760043560005260096020526040600020604051906108f382610ec1565b549073ffffffffffffffffffffffffffffffffffffffff82169182825260a01c60208201529015610988575b61095f6127106109436bffffffffffffffffffffffff6020850151166024356123dd565b04915173ffffffffffffffffffffffffffffffffffffffff1690565b6040805173ffffffffffffffffffffffffffffffffffffffff9290921682526020820192909252f35b5061099161237b565b61091f565b3461029657604060031936011261029657600435610a3e6109b561046b565b73ffffffffffffffffffffffffffffffffffffffff610a36600094808652600a6020526109e86001604088200154611e94565b808652600a60205260ff610a1f85604089209073ffffffffffffffffffffffffffffffffffffffff16600052602052604060002090565b541615610a4257600052600b602052604060002090565b9116906127ad565b5080f35b808652600a602052610a7784604088209073ffffffffffffffffffffffffffffffffffffffff16600052602052604060002090565b60017fffffffffffffffffffffffffffffffffffffffffffffffffffffffffffffff0082541617905533838516827f2f8788117e7eff1d82e926ec794901d17c78024a50270940304540a733656f0d8980a4600052600b602052604060002090565b3461029657604060031936011261029657610af261046b565b3373ffffffffffffffffffffffffffffffffffffffff821603610b1b5761052990600435612287565b60846040517f08c379a000000000000000000000000000000000000000000000000000000000815260206004820152602f60248201527f416363657373436f6e74726f6c3a2063616e206f6e6c792072656e6f756e636560448201527f20726f6c657320666f722073656c6600000000000000000000000000000000006064820152fd5b3461029657604060031936011261029657610bb8610448565b60243590610bc4611dea565b6000918254918115610cc357610bfa8173ffffffffffffffffffffffffffffffffffffffff166000526005602052604060002090565b680100000000000000018302815401905573ffffffffffffffffffffffffffffffffffffffff600191169181811460e11b4260a01b178317610c46856000526004602052604060002090565b55830192817fddf252ad1be2c89b69c2b068fc378daa952ba7f163c4a11628f55a4df523b3ef91808588858180a4015b848103610cb45750505015610c8a57815580f35b60046040517f2e076300000000000000000000000000000000000000000000000000000000008152fd5b8083918588858180a401610c76565b60046040517fb562e8dd000000000000000000000000000000000000000000000000000000008152fd5b610529610cf936610842565b9060405192610d0784610ee2565b60008452612cf4565b3461029657602060031936011261029657610529600435613721565b3461029657606060031936011261029657610d4561046b565b610d4d6104b1565b90610d56611cf0565b610d726127106bffffffffffffffffffffffff84161115613b1a565b73ffffffffffffffffffffffffffffffffffffffff811615610e3457610dd161052992610dbc610da0610f21565b73ffffffffffffffffffffffffffffffffffffffff9094168452565b6bffffffffffffffffffffffff166020830152565b610de76004356000526009602052604060002090565b815160209092015160a01b7fffffffffffffffffffffffff00000000000000000000000000000000000000001673ffffffffffffffffffffffffffffffffffffffff909216919091179055565b60646040517f08c379a000000000000000000000000000000000000000000000000000000000815260206004820152601b60248201527f455243323938313a20496e76616c696420706172616d657465727300000000006044820152fd5b7f4e487b7100000000000000000000000000000000000000000000000000000000600052604160045260246000fd5b6040810190811067ffffffffffffffff821117610edd57604052565b610e92565b6020810190811067ffffffffffffffff821117610edd57604052565b90601f601f19910116810190811067ffffffffffffffff821117610edd57604052565b60405190610f2e82610ec1565b565b67ffffffffffffffff8111610edd57601f01601f191660200190565b929192610f5882610f30565b91610f666040519384610efe565b829481845281830111610296578281602093846000960137010152565b9080601f830112156102965781602061058493359101610f4c565b346102965760406003193601126102965767ffffffffffffffff60043581811161029657610fd0903690600401610f83565b9060243581811161029657610fe9903690600401610f83565b90610ff2611e3f565b8251908111610edd5761100f8161100a600d54613259565b6132ac565b602080601f83116001146110505750819061052994600092611045575b50506000198260011b9260031b1c191617600d55613470565b01519050388061102c565b600d6000529193601f1985167fd7b6990105719101dabeb77144f2a3385c8033acd3af97e9423a695e81ad1eb5936000905b8282106110c35750509160019391866105299794106110aa575b505050811b01600d55613470565b015160001960f88460031b161c1916905538808061109c565b80600186978294978701518155019601940190611082565b6020908160408183019282815285518094520193019160005b828110611102575050505090565b909192938260808261115c600194895162ffffff6060809273ffffffffffffffffffffffffffffffffffffffff815116855267ffffffffffffffff6020820151166020860152604081015115156040860152015116910152565b019501939291016110f4565b346102965760206003193601126102965767ffffffffffffffff6004358181116102965736602382011215610296578060040135918211610296573660248360051b830101116102965761031d9160246111c29201613033565b604051918291826110db565b3461029657602060031936011261029657602073ffffffffffffffffffffffffffffffffffffffff611201600435612992565b16604051908152f35b3461029657602060031936011261029657602061122d611228610448565b612931565b604051908152f35b6020600319820112610296576004359067ffffffffffffffff82116102965761058491600401610f83565b346102965761126e36611235565b611276611e3f565b805167ffffffffffffffff8111610edd5761129b81611296600c54613259565b61331d565b602080601f83116001146112d8575081926000926112cd575b50506000198260011b9260031b1c191617600c55600080f35b0151905038806112b4565b90601f1983169361130b600c6000527fdf6966c971051c3d54ec59162606531493a51404a002842f56009d7e5cf4a8c790565b926000905b868210611347575050836001951061132e575b505050811b01600c55005b015160001960f88460031b161c19169055388080611323565b80600185968294968601518155019501930190611310565b6020908160408183019282815285518094520193019160005b828110611386575050505090565b835185529381019392810192600101611378565b34610296576020600319360112610296576113b3610448565b6000806113bf83612931565b916113c9836130c3565b936113d2612f19565b5073ffffffffffffffffffffffffffffffffffffffff90811691835b858503611403576040518061031d898261135f565b61140c81612f9d565b6040810151611465575173ffffffffffffffffffffffffffffffffffffffff1683811661145c575b506001908484841614611448575b016113ee565b80611456838801978a61301f565b52611442565b91506001611434565b50600190611442565b3461029657604060031936011261029657600435600052600b602052602073ffffffffffffffffffffffffffffffffffffffff6114b16024356040600020612777565b9190546040519260031b1c168152f35b3461029657604060031936011261029657602060ff6115156114e161046b565b600435600052600a845260406000209073ffffffffffffffffffffffffffffffffffffffff16600052602052604060002090565b54166040519015158152f35b346102965761152f36611235565b611537611e3f565b805167ffffffffffffffff8111610edd5761155c81611557600f54613259565b61338e565b602080601f83116001146115995750819260009261158e575b50506000198260011b9260031b1c191617600f55600080f35b015190503880611575565b90601f198316936115cc600f6000527f8d1108e10bcb7c27dddfc02ed9d693a074039d026cf4ea4240b40f7d581ac80290565b926000905b86821061160857505083600195106115ef575b505050811b01600f55005b015160001960f88460031b161c191690553880806115e4565b806001859682949686015181550195019301906115d1565b3461029657600080600319360112610683576040519080600e5461164381613259565b8085529160019180831690811561063b575060011461166c5761031d856105d481870382610efe565b9250600e83527fbb7b4a454dc3493923482f07822329ed19e8244eff582cc204f8554c3620c3fd5b8284106116af5750505081016020016105d48261031d6105c4565b80546020858701810191909152909301928101611694565b346102965760e0600319360112610296576116e0610448565b67ffffffffffffffff9060243582811161029657611702903690600401610f83565b6044358381116102965761171a903690600401610f83565b60643584811161029657611732903690600401610f83565b6084359485116102965761174d610529953690600401610f83565b9161175661048e565b9361175f6104cc565b95613952565b346102965760606003193601126102965761031d611791611784610448565b60443590602435906130f4565b6040519182918261135f565b3461029657600060031936011261029657602060405160008152f35b34610296576040600319360112610296576117d2610448565b602435908115158092036102965773ffffffffffffffffffffffffffffffffffffffff9033600052600760205261182d8160406000209073ffffffffffffffffffffffffffffffffffffffff16600052602052604060002090565b7fffffffffffffffffffffffffffffffffffffffffffffffffffffffffffffff0081541660ff851617905560405192835216907f17307eab39ab6107e8899845ad3d59bd9653f200f220920489ca2b5937696c3160203392a3005b60806003193601126102965761189c610448565b6118a461046b565b6064359167ffffffffffffffff83116102965736602384011215610296576118d9610529933690602481600401359101610f4c565b9160443591612cf4565b34610296576020600319360112610296576080611901600435612f4f565b611953604051809262ffffff6060809273ffffffffffffffffffffffffffffffffffffffff815116855267ffffffffffffffff6020820151166020860152604081015115156040860152015116910152565bf35b34610296576020806003193601126102965760043561197381612a31565b15611aa5576040519082826000600c5461198c81613259565b80845290600190818116908115611a655750600114611a06575b50506119b492500383610efe565b8151156119f35761031d926119e56119ce6105d493612ed0565b6119df604051958694850190611f76565b90611f76565b03601f198101835282610efe565b50505061031d611a016123f5565b6105d4565b90939150600c6000527fdf6966c971051c3d54ec59162606531493a51404a002842f56009d7e5cf4a8c7936000915b818310611a4d5750879450508201016119b4386119a6565b85548884018501529485019487945091830191611a35565b90506119b49593507fffffffffffffffffffffffffffffffffffffffffffffffffffffffffffffff0091501682840152151560051b8201018592386119a6565b60046040517fa14c4b50000000000000000000000000000000000000000000000000000000008152fd5b3461029657602060031936011261029657600435600052600b6020526020604060002054604051908152f35b3461029657604060031936011261029657610529600435611b1a61046b565b9080600052600a602052611b35600160406000200154611e94565b612287565b67ffffffffffffffff8111610edd5760051b60200190565b34610296576020806003193601126102965760043567ffffffffffffffff8111610296573660238201121561029657806004013590611b9082611b3a565b91611b9e6040519384610efe565b80835260248484019160051b8301019136831161029657602401905b828210611bca576105298461391c565b81358152908401908401611bba565b3461029657600080600319360112610683576040519080600f54611bfc81613259565b8085529160019180831690811561063b5750600114611c255761031d856105d481870382610efe565b9250600f83527f8d1108e10bcb7c27dddfc02ed9d693a074039d026cf4ea4240b40f7d581ac8025b828410611c685750505081016020016105d48261031d6105c4565b80546020858701810191909152909301928101611c4d565b3461029657604060031936011261029657602060ff611515611ca0610448565b73ffffffffffffffffffffffffffffffffffffffff611cbd61046b565b91166000526007845260406000209073ffffffffffffffffffffffffffffffffffffffff16600052602052604060002090565b3360009081527f4a209273c9c71eac8bee506e444418998f8f452896d49b4edfa61f22f2a2bd27602052604090205460ff1615611d2957565b611de66048611db4611d3a33612503565b6119e5611d456125a0565b6040519485937f416363657373436f6e74726f6c3a206163636f756e74200000000000000000006020860152611d8581518092602060378901910161052b565b84017f206973206d697373696e6720726f6c652000000000000000000000000000000060378201520190611f76565b6040519182917f08c379a000000000000000000000000000000000000000000000000000000000835260048301610573565b0390fd5b3360009081527faa1d7351356c4ddc11907b1ee0660f579cfdf507235af2ae01ecd22a4b7ceaae602052604090205460ff1615611e2357565b611de66048611db4611e3433612503565b6119e5611d4561263d565b3360009081527f2de00acba1f3dd4b00004fa31871eaf6bd23564af8ed1bbe52ac31593862e4a2602052604090205460ff1615611e7857565b611de66048611db4611e8933612503565b6119e5611d456126da565b80600052600a60205260ff611ecd3360406000209073ffffffffffffffffffffffffffffffffffffffff16600052602052604060002090565b541615611ed75750565b611ee033612503565b611ee8612408565b916030611ef484612463565b536078611f0084612470565b5360415b60018111611f2357611de66048611db4856119e588611d45881561249e565b90600f8116906010821015611f71577f3031323334353637383961626364656600000000000000000000000000000000611f6c921a611f628487612480565b5360041c91612491565b611f04565b612434565b90611f896020928281519485920161052b565b0190565b73ffffffffffffffffffffffffffffffffffffffff81811660009081527f13da86008ba1c6922daee3e07db95305ef49ebced9f5467a0b8613fcc6b343e3602052604080822054611ff59493929060ff1615611ff8575b808052600b602052209116906127ad565b50565b808052600a60205261202c848383209073ffffffffffffffffffffffffffffffffffffffff16600052602052604060002090565b60017fffffffffffffffffffffffffffffffffffffffffffffffffffffffffffffff0082541617905533838516827f2f8788117e7eff1d82e926ec794901d17c78024a50270940304540a733656f0d8180a4611fe4565b73ffffffffffffffffffffffffffffffffffffffff80821660009081527f2de00acba1f3dd4b00004fa31871eaf6bd23564af8ed1bbe52ac31593862e4a26020526040808220611ff5949392907fe02a0315b383857ac496e9d2b2546a699afaeb4e5e83a1fdef64376d0b74e5a59060ff905b54161561210e575b8152600b602052209116906127ad565b808252600a602052612142858484209073ffffffffffffffffffffffffffffffffffffffff16600052602052604060002090565b60017fffffffffffffffffffffffffffffffffffffffffffffffffffffffffffffff0082541617905533848616827f2f8788117e7eff1d82e926ec794901d17c78024a50270940304540a733656f0d8580a46120fe565b73ffffffffffffffffffffffffffffffffffffffff80821660009081527f4a209273c9c71eac8bee506e444418998f8f452896d49b4edfa61f22f2a2bd276020526040808220611ff5949392907f6db4061a20ca83a3be756ee172bd37a029093ac5afe4ce968c6d5435b43cb0119060ff906120f6565b73ffffffffffffffffffffffffffffffffffffffff80821660009081527faa1d7351356c4ddc11907b1ee0660f579cfdf507235af2ae01ecd22a4b7ceaae6020526040808220611ff5949392907f9f2df0fed2c77648de5860a4cc508cd0818c85b8b8a1ab4ceeef8d981c8956a69060ff906120f6565b9073ffffffffffffffffffffffffffffffffffffffff6040611ff593600090808252600a60205260ff6122dc868585209073ffffffffffffffffffffffffffffffffffffffff16600052602052604060002090565b54166122f3575b8152600b6020522091169061287c565b808252600a602052612327858484209073ffffffffffffffffffffffffffffffffffffffff16600052602052604060002090565b7fffffffffffffffffffffffffffffffffffffffffffffffffffffffffffffff00815416905533848616827ff6391f5c32d9c69d2a47ea670b442974b53935d1edc7fd64eb21e047a839171b8580a46122e3565b6040519061238882610ec1565b60085473ffffffffffffffffffffffffffffffffffffffff8116835260a01c6020830152565b7f4e487b7100000000000000000000000000000000000000000000000000000000600052601160045260246000fd5b818102929181159184041417156123f057565b6123ae565b6040519061240282610ee2565b60008252565b604051906080820182811067ffffffffffffffff821117610edd57604052604282526060366020840137565b7f4e487b7100000000000000000000000000000000000000000000000000000000600052603260045260246000fd5b805115611f715760200190565b805160011015611f715760210190565b908151811015611f71570160200190565b80156123f0576000190190565b156124a557565b60646040517f08c379a000000000000000000000000000000000000000000000000000000000815260206004820152602060248201527f537472696e67733a20686578206c656e67746820696e73756666696369656e746044820152fd5b604051906060820182811067ffffffffffffffff821117610edd57604052602a82526040366020840137603061253883612463565b53607861254483612470565b536029905b6001821161255c5761058491501561249e565b600f8116906010821015611f71577f303132333435363738396162636465660000000000000000000000000000000061259a921a611f628486612480565b90612549565b7f6db4061a20ca83a3be756ee172bd37a029093ac5afe4ce968c6d5435b43cb0116125c9612408565b9060306125d583612463565b5360786125e183612470565b536041905b600182116125f95761058491501561249e565b600f8116906010821015611f71577f3031323334353637383961626364656600000000000000000000000000000000612637921a611f628486612480565b906125e6565b7f9f2df0fed2c77648de5860a4cc508cd0818c85b8b8a1ab4ceeef8d981c8956a6612666612408565b90603061267283612463565b53607861267e83612470565b536041905b600182116126965761058491501561249e565b600f8116906010821015611f71577f30313233343536373839616263646566000000000000000000000000000000006126d4921a611f628486612480565b90612683565b7fe02a0315b383857ac496e9d2b2546a699afaeb4e5e83a1fdef64376d0b74e5a5612703612408565b90603061270f83612463565b53607861271b83612470565b536041905b600182116127335761058491501561249e565b600f8116906010821015611f71577f3031323334353637383961626364656600000000000000000000000000000000612771921a611f628486612480565b90612720565b8054821015611f715760005260206000200190600090565b916127a9918354906000199060031b92831b921b19161790565b9055565b600181019082600052816020526040600020541560001461281b57805468010000000000000000811015610edd576128066127ef826001879401855584612777565b81939154906000199060031b92831b921b19161790565b90555491600052602052604060002055600190565b505050600090565b805490811561284d576000198092019161283d8383612777565b909182549160031b1b1916905555565b7f4e487b7100000000000000000000000000000000000000000000000000000000600052603160045260246000fd5b60018101918060005282602052604060002054928315156000146129285760001992838501908582116123f05780549485019485116123f05760009585836128d0946128df98036128e5575b505050612823565b90600052602052604060002090565b55600190565b61290f612909916128f961291f9487612777565b90549060031b1c92839187612777565b9061278f565b8590600052602052604060002090565b553880806128c8565b50505050600090565b73ffffffffffffffffffffffffffffffffffffffff16801561296857600052600560205267ffffffffffffffff6040600020541690565b60046040517f8f4eb604000000000000000000000000000000000000000000000000000000008152fd5b600081815481106129c8575b60046040517fdf2d9b42000000000000000000000000000000000000000000000000000000008152fd5b815260049060209180835260409283832054947c0100000000000000000000000000000000000000000000000000000000861615612a085750505061299e565b93929190935b8515612a1c57505050505090565b60001901808352818552838320549550612a0e565b60005481109081612a40575090565b905060005260046020527c0100000000000000000000000000000000000000000000000000000000604060002054161590565b90612a7d83612992565b73ffffffffffffffffffffffffffffffffffffffff808416928382841603612cca57600086815260066020526040902080549092612adb73ffffffffffffffffffffffffffffffffffffffff881633908114908414171590565b1590565b612c3b575b8216958615612c1157612b4b93612b1d92612c07575b5073ffffffffffffffffffffffffffffffffffffffff166000526005602052604060002090565b805460001901905573ffffffffffffffffffffffffffffffffffffffff166000526005602052604060002090565b805460010190557c0200000000000000000000000000000000000000000000000000000000804260a01b851717612b8c866000526004602052604060002090565b55811615612bbd575b507fddf252ad1be2c89b69c2b068fc378daa952ba7f163c4a11628f55a4df523b3ef600080a4565b60018401612bd5816000526004602052604060002090565b5415612be2575b50612b95565b6000548114612bdc57612bff906000526004602052604060002090565b553880612bdc565b6000905538612af6565b60046040517fea553b34000000000000000000000000000000000000000000000000000000008152fd5b612c9b612ad7612c9433612c6f8b73ffffffffffffffffffffffffffffffffffffffff166000526007602052604060002090565b9073ffffffffffffffffffffffffffffffffffffffff16600052602052604060002090565b5460ff1690565b15612ae05760046040517f59c896be000000000000000000000000000000000000000000000000000000008152fd5b60046040517fa1148100000000000000000000000000000000000000000000000000000000008152fd5b929190612d02828286612a73565b803b612d0f575b50505050565b612d1893612dd1565b15612d265738808080612d09565b60046040517fd1a57ed6000000000000000000000000000000000000000000000000000000008152fd5b9081602091031261029657516105848161026c565b9092610584949360809373ffffffffffffffffffffffffffffffffffffffff80921684521660208301526040820152816060820152019061054e565b3d15612dcc573d90612db282610f30565b91612dc06040519384610efe565b82523d6000602084013e565b606090565b92602091612e2893600073ffffffffffffffffffffffffffffffffffffffff6040518097819682957f150b7a02000000000000000000000000000000000000000000000000000000009b8c85523360048601612d65565b0393165af160009181612ea0575b50612e7a57612e43612da1565b80519081612e755760046040517fd1a57ed6000000000000000000000000000000000000000000000000000000008152fd5b602001fd5b7fffffffff00000000000000000000000000000000000000000000000000000000161490565b612ec291925060203d8111612ec9575b612eba8183610efe565b810190612d50565b9038612e36565b503d612eb0565b9060405160a08101604052600019608082019360008552935b0192600a90818106603001855304928315612f075760001990612ee9565b9250608083601f199203019201918252565b604051906080820182811067ffffffffffffffff821117610edd5760405260006060838281528260208201528260408201520152565b612f57612f19565b50612f60612f19565b600054821015612f985750612f7481612f9d565b6040810151612f985750612f9361058491612f8d612f19565b50612992565b612fb8565b905090565b612fa5612f19565b5060005260046020526105846040600020545b90612fc1612f19565b9173ffffffffffffffffffffffffffffffffffffffff8116835267ffffffffffffffff8160a01c1660208401527c010000000000000000000000000000000000000000000000000000000081161515604084015260e81c6060830152565b8051821015611f715760209160051b010190565b61303c82611b3a565b9161304a6040519384610efe565b808352601f1961305982611b3a565b0160005b8181106130ac57505060005b8181036130765750505090565b81811015611f71578061309060019260051b850135612f4f565b61309a828761301f565b526130a5818661301f565b5001613069565b6020906130b7612f19565b8282880101520161305d565b906130cd82611b3a565b6130da6040519182610efe565b828152601f196130ea8294611b3a565b0190602036910137565b908281101561322f576000918254808511613227575b5061311481612931565b8483101561322057828503818110613218575b505b613132816130c3565b9581156132105761314284612f4f565b918594604093613157612ad786830151151590565b6131f1575b505b87811415806131e7575b156131da5761317681612f9d565b808501516131d1575173ffffffffffffffffffffffffffffffffffffffff908116806131c8575b5090816001928716908816146131b4575b0161315e565b806131c2838a01998c61301f565b526131ae565b9650600161319d565b506001906131ae565b5050959450505050815290565b5081871415613168565b5173ffffffffffffffffffffffffffffffffffffffff1695503861315c565b945050505050565b905038613127565b5082613129565b93503861310a565b60046040517f32c1995a000000000000000000000000000000000000000000000000000000008152fd5b90600182811c921680156132a2575b602083101461327357565b7f4e487b7100000000000000000000000000000000000000000000000000000000600052602260045260246000fd5b91607f1691613268565b601f81116132b8575050565b600090600d82527fd7b6990105719101dabeb77144f2a3385c8033acd3af97e9423a695e81ad1eb5906020601f850160051c83019410613313575b601f0160051c01915b82811061330857505050565b8181556001016132fc565b90925082906132f3565b601f8111613329575050565b600090600c82527fdf6966c971051c3d54ec59162606531493a51404a002842f56009d7e5cf4a8c7906020601f850160051c83019410613384575b601f0160051c01915b82811061337957505050565b81815560010161336d565b9092508290613364565b601f811161339a575050565b600090600f82527f8d1108e10bcb7c27dddfc02ed9d693a074039d026cf4ea4240b40f7d581ac802906020601f850160051c830194106133f5575b601f0160051c01915b8281106133ea57505050565b8181556001016133de565b90925082906133d5565b601f811161340b575050565b600090600e82527fbb7b4a454dc3493923482f07822329ed19e8244eff582cc204f8554c3620c3fd906020601f850160051c83019410613466575b601f0160051c01915b82811061345b57505050565b81815560010161344f565b9092508290613446565b90815167ffffffffffffffff8111610edd5761349681613491600e54613259565b6133ff565b602080601f83116001146134d157508192936000926134c6575b50506000198260011b9260031b1c191617600e55565b0151905038806134b0565b90601f19831694613504600e6000527fbb7b4a454dc3493923482f07822329ed19e8244eff582cc204f8554c3620c3fd90565b926000905b878210613541575050836001959610613528575b505050811b01600e55565b015160001960f88460031b161c1916905538808061351d565b80600185968294968601518155019501930190613509565b90815167ffffffffffffffff8111610edd5761357a81611296600c54613259565b602080601f83116001146135b557508192936000926135aa575b50506000198260011b9260031b1c191617600c55565b015190503880613594565b90601f198316946135e8600c6000527fdf6966c971051c3d54ec59162606531493a51404a002842f56009d7e5cf4a8c790565b926000905b87821061362557505083600195961061360c575b505050811b01600c55565b015160001960f88460031b161c19169055388080613601565b806001859682949686015181550195019301906135ed565b90815167ffffffffffffffff8111610edd5761365e81611557600f54613259565b602080601f8311600114613699575081929360009261368e575b50506000198260011b9260031b1c191617600f55565b015190503880613678565b90601f198316946136cc600f6000527f8d1108e10bcb7c27dddfc02ed9d693a074039d026cf4ea4240b40f7d581ac80290565b926000905b8782106137095750508360019596106136f0575b505050811b01600f55565b015160001960f88460031b161c191690553880806136e5565b806001859682949686015181550195019301906136d1565b61372a81612992565b73ffffffffffffffffffffffffffffffffffffffff8116613758836000526006602052604060002090815490565b929061378073ffffffffffffffffffffffffffffffffffffffff841633908114908614171590565b6138b9575b6000936138b0575b506137b88273ffffffffffffffffffffffffffffffffffffffff166000526005602052604060002090565b6fffffffffffffffffffffffffffffffff81540190557c03000000000000000000000000000000000000000000000000000000004260a01b831717613807856000526004602052604060002090565b557c0200000000000000000000000000000000000000000000000000000000811615613867575b507fddf252ad1be2c89b69c2b068fc378daa952ba7f163c4a11628f55a4df523b3ef8280a4610f2e61386260015460010190565b600155565b6001840161387f816000526004602052604060002090565b541561388c575b5061382e565b83548114613886576138a8906000526004602052604060002090565b553880613886565b8390553861378d565b6138ed612ad7612c9433612c6f8773ffffffffffffffffffffffffffffffffffffffff166000526007602052604060002090565b156137855760046040517f59c896be000000000000000000000000000000000000000000000000000000008152fd5b80519060005b82811061392e57505050565b61394161393b828461301f565b51613721565b60001981146123f057600101613922565b95949392919073ffffffffffffffffffffffffffffffffffffffff7f0000000000000000000000000000000000000000000000000000000000000000163314801590613b0e575b613ae45780519067ffffffffffffffff8211610edd576139be8261100a600d54613259565b60209081601f8411600114613a61575093613a07613a119484613a319b9a9895613a0c95613a2c9b996000926110455750506000198260011b9260031b1c191617600d55613470565b613559565b61363d565b613a1a84611f8d565b613a2384612083565b61052484612199565b612210565b610f2e60017fffffffffffffffffffffffffffffffffffffffffffffffffffffffffffffff006010541617601055565b600d6000529190601f1984167fd7b6990105719101dabeb77144f2a3385c8033acd3af97e9423a695e81ad1eb5936000905b828210613acc57505094600185613a0c95613a2c9b9995613a0795613a319f9e9c99613a119b106110aa57505050811b01600d55613470565b80600186978294978701518155019601940190613a93565b60046040517ff92ee8a9000000000000000000000000000000000000000000000000000000008152fd5b5060ff60105416613999565b15613b2157565b60846040517f08c379a000000000000000000000000000000000000000000000000000000000815260206004820152602a60248201527f455243323938313a20726f79616c7479206665652077696c6c2065786365656460448201527f2073616c655072696365000000000000000000000000000000000000000000006064820152fd5b73ffffffffffffffffffffffffffffffffffffffff6bffffffffffffffffffffffff831691613bd8612710841115613b1a565b16918215613c1f577fffffffffffffffffffffffff0000000000000000000000000000000000000000916020604051613c1081610ec1565b858152015260a01b1617600855565b60646040517f08c379a000000000000000000000000000000000000000000000000000000000815260206004820152601960248201527f455243323938313a20696e76616c6964207265636569766572000000000000006044820152fd5b613c8681613d6c565b908115613cd4575b8115613ca9575b8115613c9f575090565b6105849150613ce5565b7fffffffff000000000000000000000000000000000000000000000000000000008116159150613c95565b9050613cdf81613ce5565b90613c8e565b7fffffffff000000000000000000000000000000000000000000000000000000008116907f5a05180f000000000000000000000000000000000000000000000000000000008214918215613d3857505090565b7f7965db0b000000000000000000000000000000000000000000000000000000001491508115613d66575090565b61058491505b7fffffffff00000000000000000000000000000000000000000000000000000000167f2a55205a000000000000000000000000000000000000000000000000000000008114908115613dbc575090565b7f01ffc9a7000000000000000000000000000000000000000000000000000000009150149056fea2646970667358221220db08cb5098b122879373fc1576cbeb220975504b788e70cccc47bb354eabcf5764736f6c63430008130033",
					"opcodes": "PUSH1 0x80 CALLVALUE PUSH2 0x125 JUMPI PUSH1 0x1 PUSH1 0x1 PUSH1 0x40 SHL SUB SWAP1 PUSH1 0x1F PUSH3 0x6507 CODESIZE DUP2 SWAP1 SUB SWAP2 DUP3 ADD PUSH1 0x1F NOT AND DUP4 ADD SWAP3 SWAP2 SWAP1 DUP5 DUP5 GT DUP4 DUP6 LT OR PUSH2 0x10F JUMPI DUP2 PUSH1 0x20 SWAP3 DUP5 SWAP3 PUSH1 0x40 SWAP7 DUP8 MSTORE DUP4 CODECOPY DUP2 ADD SUB SLT PUSH2 0x125 JUMPI MLOAD PUSH1 0x1 PUSH1 0x1 PUSH1 0xA0 SHL SUB DUP1 DUP3 AND DUP3 SUB PUSH2 0x125 JUMPI PUSH2 0x60 CALLER PUSH2 0x12A JUMP JUMPDEST DUP3 MLOAD SWAP4 PUSH2 0x411F SWAP5 DUP6 DUP2 ADD SWAP6 DUP2 DUP8 LT DUP4 DUP9 GT OR PUSH2 0x10F JUMPI PUSH3 0x23E8 DUP3 CODECOPY DUP1 PUSH1 0x0 SWAP7 SUB SWAP1 DUP7 CREATE SWAP1 DUP2 ISZERO PUSH2 0x105 JUMPI DUP5 MLOAD SWAP2 PUSH2 0x5EE DUP1 DUP5 ADD SWAP3 DUP4 GT DUP5 DUP5 LT OR PUSH2 0xF1 JUMPI SWAP2 DUP5 DUP5 SWAP3 PUSH1 0x20 SWAP5 PUSH3 0x1DFA DUP6 CODECOPY AND DUP2 MSTORE SUB ADD SWAP1 DUP6 CREATE DUP1 ISZERO PUSH2 0xE4 JUMPI PUSH2 0xD6 SWAP4 SWAP5 POP AND PUSH1 0x1 DUP1 PUSH1 0xA0 SHL SUB NOT PUSH1 0x1 SLOAD AND OR PUSH1 0x1 SSTORE PUSH2 0x12A JUMP JUMPDEST MLOAD PUSH2 0x1C88 SWAP1 DUP2 PUSH3 0x172 DUP3 CODECOPY RETURN JUMPDEST POP POP POP MLOAD SWAP1 RETURNDATASIZE SWAP1 DUP3 RETURNDATACOPY RETURNDATASIZE SWAP1 REVERT JUMPDEST PUSH4 0x4E487B71 PUSH1 0xE0 SHL DUP9 MSTORE PUSH1 0x41 PUSH1 0x4 MSTORE PUSH1 0x24 DUP9 REVERT JUMPDEST DUP5 MLOAD RETURNDATASIZE DUP8 DUP3 RETURNDATACOPY RETURNDATASIZE SWAP1 REVERT JUMPDEST PUSH4 0x4E487B71 PUSH1 0xE0 SHL PUSH1 0x0 MSTORE PUSH1 0x41 PUSH1 0x4 MSTORE PUSH1 0x24 PUSH1 0x0 REVERT JUMPDEST PUSH1 0x0 DUP1 REVERT JUMPDEST PUSH1 0x0 DUP1 SLOAD PUSH1 0x1 PUSH1 0x1 PUSH1 0xA0 SHL SUB SWAP3 DUP4 AND PUSH1 0x1 PUSH1 0x1 PUSH1 0xA0 SHL SUB NOT DUP3 AND DUP2 OR DUP4 SSTORE SWAP3 AND SWAP1 PUSH32 0x8BE0079C531659141344CD1FD0A4F28419497F9722A3DAAFE3B4186F6B6457E0 SWAP1 DUP1 LOG3 JUMP INVALID PUSH1 0x40 PUSH1 0x80 DUP2 MSTORE PUSH1 0x4 SWAP1 DUP2 CALLDATASIZE LT ISZERO PUSH2 0x15 JUMPI PUSH1 0x0 DUP1 REVERT JUMPDEST PUSH1 0x0 SWAP2 DUP3 CALLDATALOAD PUSH1 0xE0 SHR DUP1 PUSH4 0x1BCE4583 EQ PUSH2 0x721 JUMPI DUP1 PUSH4 0x25A570B8 EQ PUSH2 0x2E7 JUMPI DUP1 PUSH4 0x59659E90 EQ PUSH2 0x294 JUMPI DUP1 PUSH4 0x715018A6 EQ PUSH2 0x1F4 JUMPI DUP1 PUSH4 0x8DA5CB5B EQ PUSH2 0x19F JUMPI PUSH4 0xF2FDE38B EQ PUSH2 0x63 JUMPI PUSH1 0x0 DUP1 REVERT JUMPDEST CALLVALUE PUSH2 0x19B JUMPI PUSH1 0x20 PUSH32 0xFFFFFFFFFFFFFFFFFFFFFFFFFFFFFFFFFFFFFFFFFFFFFFFFFFFFFFFFFFFFFFFC CALLDATASIZE ADD SLT PUSH2 0x19B JUMPI PUSH2 0x9A PUSH2 0x7E0 JUMP JUMPDEST SWAP1 PUSH2 0xA3 PUSH2 0x8FC JUMP JUMPDEST PUSH20 0xFFFFFFFFFFFFFFFFFFFFFFFFFFFFFFFFFFFFFFFF DUP1 SWAP3 AND SWAP3 DUP4 ISZERO PUSH2 0x118 JUMPI POP POP PUSH1 0x0 SLOAD DUP3 PUSH32 0xFFFFFFFFFFFFFFFFFFFFFFFF0000000000000000000000000000000000000000 DUP3 AND OR PUSH1 0x0 SSTORE AND PUSH32 0x8BE0079C531659141344CD1FD0A4F28419497F9722A3DAAFE3B4186F6B6457E0 PUSH1 0x0 DUP1 LOG3 DUP1 RETURN JUMPDEST SWAP1 PUSH1 0x20 PUSH1 0x84 SWAP3 MLOAD SWAP2 PUSH32 0x8C379A000000000000000000000000000000000000000000000000000000000 DUP4 MSTORE DUP3 ADD MSTORE PUSH1 0x26 PUSH1 0x24 DUP3 ADD MSTORE PUSH32 0x4F776E61626C653A206E6577206F776E657220697320746865207A65726F2061 PUSH1 0x44 DUP3 ADD MSTORE PUSH32 0x6464726573730000000000000000000000000000000000000000000000000000 PUSH1 0x64 DUP3 ADD MSTORE REVERT JUMPDEST DUP3 DUP1 REVERT JUMPDEST POP POP CALLVALUE PUSH2 0x1F0 JUMPI DUP2 PUSH32 0xFFFFFFFFFFFFFFFFFFFFFFFFFFFFFFFFFFFFFFFFFFFFFFFFFFFFFFFFFFFFFFFC CALLDATASIZE ADD SLT PUSH2 0x1F0 JUMPI PUSH20 0xFFFFFFFFFFFFFFFFFFFFFFFFFFFFFFFFFFFFFFFF PUSH1 0x20 SWAP3 SLOAD AND SWAP1 MLOAD SWAP1 DUP2 MSTORE RETURN JUMPDEST POP DUP1 REVERT JUMPDEST DUP4 CALLVALUE PUSH2 0x291 JUMPI DUP1 PUSH32 0xFFFFFFFFFFFFFFFFFFFFFFFFFFFFFFFFFFFFFFFFFFFFFFFFFFFFFFFFFFFFFFFC CALLDATASIZE ADD SLT PUSH2 0x291 JUMPI PUSH2 0x22B PUSH2 0x8FC JUMP JUMPDEST PUSH1 0x0 PUSH20 0xFFFFFFFFFFFFFFFFFFFFFFFFFFFFFFFFFFFFFFFF DUP2 SLOAD PUSH32 0xFFFFFFFFFFFFFFFFFFFFFFFF0000000000000000000000000000000000000000 DUP2 AND DUP4 SSTORE AND PUSH32 0x8BE0079C531659141344CD1FD0A4F28419497F9722A3DAAFE3B4186F6B6457E0 DUP3 DUP1 LOG3 DUP1 RETURN JUMPDEST DUP1 REVERT JUMPDEST POP POP CALLVALUE PUSH2 0x1F0 JUMPI DUP2 PUSH32 0xFFFFFFFFFFFFFFFFFFFFFFFFFFFFFFFFFFFFFFFFFFFFFFFFFFFFFFFFFFFFFFFC CALLDATASIZE ADD SLT PUSH2 0x1F0 JUMPI PUSH1 0x20 SWAP1 PUSH20 0xFFFFFFFFFFFFFFFFFFFFFFFFFFFFFFFFFFFFFFFF PUSH1 0x1 SLOAD AND SWAP1 MLOAD SWAP1 DUP2 MSTORE RETURN JUMPDEST POP DUP3 SWAP1 CALLVALUE PUSH2 0x1F0 JUMPI PUSH2 0x100 PUSH32 0xFFFFFFFFFFFFFFFFFFFFFFFFFFFFFFFFFFFFFFFFFFFFFFFFFFFFFFFFFFFFFFFC CALLDATASIZE ADD SLT PUSH2 0x1F0 JUMPI PUSH2 0x322 PUSH2 0x7E0 JUMP JUMPDEST SWAP3 PUSH20 0xFFFFFFFFFFFFFFFFFFFFFFFFFFFFFFFFFFFFFFFF SWAP3 PUSH1 0x24 CALLDATALOAD DUP5 DUP2 AND DUP2 SUB PUSH2 0x70C JUMPI PUSH8 0xFFFFFFFFFFFFFFFF SWAP4 PUSH1 0x44 CALLDATALOAD DUP6 DUP2 GT PUSH2 0x71D JUMPI PUSH2 0x366 SWAP1 CALLDATASIZE SWAP1 DUP4 ADD PUSH2 0x887 JUMP JUMPDEST SWAP6 PUSH1 0x64 CALLDATALOAD DUP7 DUP2 GT PUSH2 0x719 JUMPI PUSH2 0x37E SWAP1 CALLDATASIZE SWAP1 DUP5 ADD PUSH2 0x887 JUMP JUMPDEST PUSH1 0x84 CALLDATALOAD DUP8 DUP2 GT PUSH2 0x715 JUMPI PUSH2 0x395 SWAP1 CALLDATASIZE SWAP1 DUP6 ADD PUSH2 0x887 JUMP JUMPDEST PUSH1 0xA4 CALLDATALOAD DUP9 DUP2 GT PUSH2 0x711 JUMPI PUSH2 0x3AC SWAP1 CALLDATASIZE SWAP1 DUP7 ADD PUSH2 0x887 JUMP JUMPDEST SWAP1 PUSH1 0xC4 CALLDATALOAD SWAP3 DUP5 DUP5 AND DUP5 SUB PUSH2 0x70C JUMPI PUSH1 0xE4 CALLDATALOAD SWAP5 PUSH12 0xFFFFFFFFFFFFFFFFFFFFFFFF DUP7 AND DUP7 SUB PUSH2 0x5FD JUMPI DUP12 SWAP13 DUP11 SWAP12 SWAP13 SWAP10 SWAP11 MLOAD PUSH1 0x20 SWAP15 DUP16 SWAP2 DUP1 DUP13 DUP12 DUP12 DUP12 DUP12 DUP12 DUP10 DUP8 ADD SWAP9 PUSH2 0x3F5 SWAP7 DUP11 PUSH2 0x9E1 JUMP JUMPDEST SUB PUSH32 0xFFFFFFFFFFFFFFFFFFFFFFFFFFFFFFFFFFFFFFFFFFFFFFFFFFFFFFFFFFFFFFE0 DUP2 ADD DUP3 MSTORE PUSH2 0x425 SWAP1 DUP3 PUSH2 0x846 JUMP JUMPDEST MLOAD SWAP1 KECCAK256 DUP14 MLOAD SWAP15 SWAP1 SWAP2 DUP16 ADD SWAP1 DUP2 GT DUP16 DUP3 LT OR PUSH2 0x6DE JUMPI DUP16 SWAP2 DUP16 DUP16 SWAP3 DUP16 DUP2 PUSH1 0x68 SWAP2 PUSH2 0x4AF SWAP4 DUP8 MSTORE DUP5 MSTORE PUSH1 0x1 SLOAD SWAP1 PUSH2 0x49F DUP8 MLOAD SWAP6 DUP7 SWAP4 DUP11 DUP6 ADD SWAP9 DUP10 MSTORE PUSH32 0xFFFFFFFFFFFFFFFFFFFFFFFFFFFFFFFFFFFFFFFF000000000000000000000000 SWAP1 DUP2 DUP14 PUSH1 0x60 SHL AND DUP12 DUP8 ADD MSTORE PUSH1 0x60 SHL AND PUSH1 0x54 DUP6 ADD MSTORE MLOAD DUP1 SWAP3 DUP6 DUP6 ADD SWAP1 PUSH2 0x97B JUMP JUMPDEST DUP2 ADD SUB PUSH1 0x48 DUP2 ADD DUP5 MSTORE ADD DUP3 PUSH2 0x846 JUMP JUMPDEST MLOAD SWAP1 KECCAK256 SWAP2 PUSH2 0x11EB SWAP2 MLOAD SWAP1 PUSH2 0x4C5 DUP2 DUP5 ADD DUP4 PUSH2 0x846 JUMP JUMPDEST DUP3 DUP3 MSTORE DUP2 ADD SWAP2 PUSH2 0xA68 DUP4 CODECOPY DUP1 MLOAD ISZERO PUSH2 0x680 JUMPI MLOAD DUP5 SWAP3 SWAP2 DUP15 CREATE2 AND SWAP13 DUP14 ISZERO PUSH2 0x623 JUMPI PUSH1 0x1 SLOAD DUP4 AND SWAP3 SWAP2 SWAP1 DUP15 EXTCODESIZE ISZERO PUSH2 0x61F JUMPI DUP13 SWAP3 DUP16 SWAP2 DUP16 SWAP4 PUSH2 0x547 DUP7 SWAP3 DUP15 SWAP7 MLOAD SWAP9 DUP10 SWAP8 DUP9 SWAP7 DUP8 SWAP6 PUSH32 0xCF7A1D7700000000000000000000000000000000000000000000000000000000 DUP8 MSTORE AND SWAP1 DUP6 ADD MSTORE PUSH1 0x24 DUP5 ADD MSTORE PUSH1 0x60 PUSH1 0x44 DUP5 ADD MSTORE PUSH1 0x64 DUP4 ADD SWAP1 PUSH2 0x99E JUMP JUMPDEST SUB SWAP3 GAS CALL DUP1 ISZERO PUSH2 0x615 JUMPI SWAP1 DUP11 SWAP2 PUSH2 0x601 JUMPI JUMPDEST POP POP DUP11 EXTCODESIZE ISZERO PUSH2 0x5FD JUMPI SWAP2 PUSH2 0x59E SWAP4 SWAP2 DUP10 SWAP8 SWAP7 SWAP6 SWAP4 DUP12 MLOAD SWAP10 DUP11 SWAP9 DUP10 SWAP9 PUSH32 0x98DD69C800000000000000000000000000000000000000000000000000000000 DUP11 MSTORE DUP10 ADD PUSH2 0x9E1 JUMP JUMPDEST SUB DUP2 DUP4 DUP9 GAS CALL DUP1 ISZERO PUSH2 0x5F3 JUMPI PUSH2 0x5DF JUMPI JUMPDEST POP POP PUSH32 0xD8AD75647A93DE9D8D617559D87F1C27BC23FB6237B94054BAF34AAFBE85AD03 DUP4 DUP3 MLOAD DUP5 DUP2 MSTORE LOG1 MLOAD SWAP1 DUP2 MSTORE RETURN JUMPDEST PUSH2 0x5E9 DUP3 SWAP2 PUSH2 0x803 JUMP JUMPDEST PUSH2 0x291 JUMPI DUP1 PUSH2 0x5AF JUMP JUMPDEST DUP4 MLOAD RETURNDATASIZE DUP5 DUP3 RETURNDATACOPY RETURNDATASIZE SWAP1 REVERT JUMPDEST DUP9 DUP1 REVERT JUMPDEST PUSH2 0x60A SWAP1 PUSH2 0x803 JUMP JUMPDEST PUSH2 0x5FD JUMPI DUP9 DUP14 PUSH2 0x559 JUMP JUMPDEST DUP12 MLOAD RETURNDATASIZE DUP13 DUP3 RETURNDATACOPY RETURNDATASIZE SWAP1 REVERT JUMPDEST DUP13 DUP1 REVERT JUMPDEST POP PUSH1 0x64 DUP9 DUP16 DUP15 MLOAD SWAP2 PUSH32 0x8C379A000000000000000000000000000000000000000000000000000000000 DUP4 MSTORE DUP3 ADD MSTORE PUSH1 0x19 PUSH1 0x24 DUP3 ADD MSTORE PUSH32 0x437265617465323A204661696C6564206F6E206465706C6F7900000000000000 PUSH1 0x44 DUP3 ADD MSTORE REVERT JUMPDEST POP POP POP PUSH1 0x64 DUP9 DUP16 DUP1 DUP16 MLOAD SWAP3 PUSH32 0x8C379A000000000000000000000000000000000000000000000000000000000 DUP5 MSTORE DUP4 ADD MSTORE PUSH1 0x24 DUP3 ADD MSTORE PUSH32 0x437265617465323A2062797465636F6465206C656E677468206973207A65726F PUSH1 0x44 DUP3 ADD MSTORE REVERT JUMPDEST PUSH1 0x41 DUP11 PUSH32 0x4E487B7100000000000000000000000000000000000000000000000000000000 PUSH1 0x0 MSTORE MSTORE PUSH1 0x24 PUSH1 0x0 REVERT JUMPDEST PUSH1 0x0 DUP1 REVERT JUMPDEST DUP7 DUP1 REVERT JUMPDEST DUP6 DUP1 REVERT JUMPDEST DUP5 DUP1 REVERT JUMPDEST DUP4 DUP1 REVERT JUMPDEST POP SWAP1 CALLVALUE PUSH2 0x19B JUMPI PUSH1 0x20 PUSH32 0xFFFFFFFFFFFFFFFFFFFFFFFFFFFFFFFFFFFFFFFFFFFFFFFFFFFFFFFFFFFFFFFC CALLDATASIZE ADD SLT PUSH2 0x19B JUMPI DUP3 PUSH2 0x75B PUSH2 0x7E0 JUMP JUMPDEST PUSH2 0x763 PUSH2 0x8FC JUMP JUMPDEST PUSH20 0xFFFFFFFFFFFFFFFFFFFFFFFFFFFFFFFFFFFFFFFF SWAP1 DUP2 PUSH1 0x1 SLOAD AND SWAP1 DUP2 EXTCODESIZE ISZERO PUSH2 0x71D JUMPI DUP4 PUSH1 0x24 SWAP3 DUP7 MLOAD SWAP8 DUP9 SWAP6 DUP7 SWAP5 PUSH32 0x3659CFE600000000000000000000000000000000000000000000000000000000 DUP7 MSTORE AND SWAP1 DUP5 ADD MSTORE GAS CALL SWAP1 DUP2 ISZERO PUSH2 0x7D7 JUMPI POP PUSH2 0x7CB JUMPI POP DUP1 RETURN JUMPDEST PUSH2 0x7D4 SWAP1 PUSH2 0x803 JUMP JUMPDEST DUP1 RETURN JUMPDEST MLOAD RETURNDATASIZE DUP5 DUP3 RETURNDATACOPY RETURNDATASIZE SWAP1 REVERT JUMPDEST PUSH1 0x4 CALLDATALOAD SWAP1 PUSH20 0xFFFFFFFFFFFFFFFFFFFFFFFFFFFFFFFFFFFFFFFF DUP3 AND DUP3 SUB PUSH2 0x70C JUMPI JUMP JUMPDEST PUSH8 0xFFFFFFFFFFFFFFFF DUP2 GT PUSH2 0x817 JUMPI PUSH1 0x40 MSTORE JUMP JUMPDEST PUSH32 0x4E487B7100000000000000000000000000000000000000000000000000000000 PUSH1 0x0 MSTORE PUSH1 0x41 PUSH1 0x4 MSTORE PUSH1 0x24 PUSH1 0x0 REVERT JUMPDEST SWAP1 PUSH1 0x1F PUSH32 0xFFFFFFFFFFFFFFFFFFFFFFFFFFFFFFFFFFFFFFFFFFFFFFFFFFFFFFFFFFFFFFE0 SWAP2 ADD AND DUP2 ADD SWAP1 DUP2 LT PUSH8 0xFFFFFFFFFFFFFFFF DUP3 GT OR PUSH2 0x817 JUMPI PUSH1 0x40 MSTORE JUMP JUMPDEST DUP2 PUSH1 0x1F DUP3 ADD SLT ISZERO PUSH2 0x70C JUMPI DUP1 CALLDATALOAD SWAP1 PUSH8 0xFFFFFFFFFFFFFFFF DUP3 GT PUSH2 0x817 JUMPI PUSH1 0x40 MLOAD SWAP3 PUSH2 0x8DA PUSH1 0x20 PUSH32 0xFFFFFFFFFFFFFFFFFFFFFFFFFFFFFFFFFFFFFFFFFFFFFFFFFFFFFFFFFFFFFFE0 PUSH1 0x1F DUP7 ADD AND ADD DUP6 PUSH2 0x846 JUMP JUMPDEST DUP3 DUP5 MSTORE PUSH1 0x20 DUP4 DUP4 ADD ADD GT PUSH2 0x70C JUMPI DUP2 PUSH1 0x0 SWAP3 PUSH1 0x20 DUP1 SWAP4 ADD DUP4 DUP7 ADD CALLDATACOPY DUP4 ADD ADD MSTORE SWAP1 JUMP JUMPDEST PUSH20 0xFFFFFFFFFFFFFFFFFFFFFFFFFFFFFFFFFFFFFFFF PUSH1 0x0 SLOAD AND CALLER SUB PUSH2 0x91D JUMPI JUMP JUMPDEST PUSH1 0x64 PUSH1 0x40 MLOAD PUSH32 0x8C379A000000000000000000000000000000000000000000000000000000000 DUP2 MSTORE PUSH1 0x20 PUSH1 0x4 DUP3 ADD MSTORE PUSH1 0x20 PUSH1 0x24 DUP3 ADD MSTORE PUSH32 0x4F776E61626C653A2063616C6C6572206973206E6F7420746865206F776E6572 PUSH1 0x44 DUP3 ADD MSTORE REVERT JUMPDEST PUSH1 0x0 JUMPDEST DUP4 DUP2 LT PUSH2 0x98E JUMPI POP POP PUSH1 0x0 SWAP2 ADD MSTORE JUMP JUMPDEST DUP2 DUP2 ADD MLOAD DUP4 DUP3 ADD MSTORE PUSH1 0x20 ADD PUSH2 0x97E JUMP JUMPDEST SWAP1 PUSH32 0xFFFFFFFFFFFFFFFFFFFFFFFFFFFFFFFFFFFFFFFFFFFFFFFFFFFFFFFFFFFFFFE0 PUSH1 0x1F PUSH1 0x20 SWAP4 PUSH2 0x9DA DUP2 MLOAD DUP1 SWAP3 DUP2 DUP8 MSTORE DUP8 DUP1 DUP9 ADD SWAP2 ADD PUSH2 0x97B JUMP JUMPDEST ADD AND ADD ADD SWAP1 JUMP JUMPDEST SWAP6 SWAP8 SWAP7 SWAP3 SWAP5 PUSH2 0xA4C PUSH12 0xFFFFFFFFFFFFFFFFFFFFFFFF SWAP6 PUSH2 0xA3E PUSH1 0xC0 SWAP9 PUSH2 0xA30 PUSH2 0xA5A SWAP7 SWAP8 PUSH1 0xE0 PUSH1 0x20 DUP15 PUSH20 0xFFFFFFFFFFFFFFFFFFFFFFFFFFFFFFFFFFFFFFFF DUP1 SWAP13 AND DUP2 MSTORE ADD MSTORE PUSH1 0xE0 DUP14 ADD SWAP1 PUSH2 0x99E JUMP JUMPDEST SWAP1 DUP12 DUP3 SUB PUSH1 0x40 DUP14 ADD MSTORE PUSH2 0x99E JUMP JUMPDEST SWAP1 DUP10 DUP3 SUB PUSH1 0x60 DUP12 ADD MSTORE PUSH2 0x99E JUMP JUMPDEST SWAP1 DUP8 DUP3 SUB PUSH1 0x80 DUP10 ADD MSTORE PUSH2 0x99E JUMP JUMPDEST SWAP7 AND PUSH1 0xA0 DUP6 ADD MSTORE AND SWAP2 ADD MSTORE JUMP INVALID PUSH1 0x80 DUP1 PUSH1 0x40 MSTORE CALLVALUE PUSH2 0x16 JUMPI PUSH2 0x11CF SWAP1 DUP2 PUSH2 0x1C DUP3 CODECOPY RETURN JUMPDEST PUSH1 0x0 DUP1 REVERT INVALID PUSH1 0x40 PUSH1 0x80 DUP2 MSTORE CALLDATASIZE PUSH2 0x382 JUMPI PUSH20 0xFFFFFFFFFFFFFFFFFFFFFFFFFFFFFFFFFFFFFFFF DUP1 PUSH32 0xB53127684A568B3173AE13B9F8A6016E243E63B6E8EE1178D6A717850B5D6103 SLOAD AND ISZERO DUP1 ISZERO PUSH2 0xB94 JUMPI PUSH1 0x0 SWAP2 PUSH32 0xCF7A1D7700000000000000000000000000000000000000000000000000000000 PUSH32 0xFFFFFFFF00000000000000000000000000000000000000000000000000000000 DUP5 CALLDATALOAD AND EQ PUSH2 0xC0 JUMPI PUSH1 0x4 DUP5 MLOAD PUSH32 0xF92EE8A900000000000000000000000000000000000000000000000000000000 DUP2 MSTORE REVERT JUMPDEST PUSH2 0xC8 PUSH2 0x1192 JUMP JUMPDEST PUSH1 0x4 SWAP2 CALLDATASIZE DUP4 GT PUSH2 0x37E JUMPI PUSH1 0x60 PUSH32 0xFFFFFFFFFFFFFFFFFFFFFFFFFFFFFFFFFFFFFFFFFFFFFFFFFFFFFFFFFFFFFFFC CALLDATASIZE ADD SLT PUSH2 0x37E JUMPI DUP3 CALLDATALOAD SWAP2 PUSH2 0x108 DUP4 PUSH2 0x67F JUMP JUMPDEST PUSH1 0x24 CALLDATALOAD SWAP3 PUSH2 0x115 DUP5 PUSH2 0x67F JUMP JUMPDEST PUSH1 0x44 CALLDATALOAD PUSH8 0xFFFFFFFFFFFFFFFF DUP2 GT PUSH2 0x37A JUMPI PUSH2 0x135 DUP4 SWAP2 CALLDATASIZE SWAP1 DUP9 ADD PUSH2 0x789 JUMP JUMPDEST SWAP5 AND SWAP3 ISZERO PUSH2 0x352 JUMPI PUSH2 0x147 SWAP2 AND PUSH2 0x7E3 JUMP JUMPDEST DUP1 EXTCODESIZE ISZERO PUSH2 0x2CF JUMPI DUP5 MLOAD SWAP1 PUSH32 0x5C60DA1B00000000000000000000000000000000000000000000000000000000 SWAP4 DUP5 DUP4 MSTORE PUSH1 0x20 SWAP7 DUP8 DUP5 DUP4 DUP2 DUP7 GAS STATICCALL SWAP4 DUP5 ISZERO PUSH2 0x2A6 JUMPI DUP9 SWAP5 PUSH2 0x19D SWAP2 DUP10 SWAP2 PUSH2 0x2B2 JUMPI JUMPDEST POP EXTCODESIZE ISZERO ISZERO PUSH2 0x926 JUMP JUMPDEST PUSH32 0xA3F0AD74E5423AEBFD80D3EF4346578335A9A72AEAEE59FF6CB3582B35133D50 DUP1 SLOAD PUSH32 0xFFFFFFFFFFFFFFFFFFFFFFFF0000000000000000000000000000000000000000 AND PUSH20 0xFFFFFFFFFFFFFFFFFFFFFFFFFFFFFFFFFFFFFFFF DUP6 AND OR SWAP1 SSTORE MLOAD SWAP5 DUP3 PUSH32 0x1CF3B03A6CF19FA2BABA4DF148E9DCABEDEA7F8A5C07840E207E5C089BE95D3E DUP9 DUP1 LOG2 DUP5 MLOAD ISZERO DUP1 ISZERO SWAP1 PUSH2 0x2AB JUMPI JUMPDEST PUSH2 0x242 JUMPI JUMPDEST DUP4 PUSH2 0x23C PUSH2 0x7D0 JUMP JUMPDEST DUP1 MLOAD SWAP2 ADD RETURN JUMPDEST DUP6 SWAP3 DUP4 SWAP2 DUP3 MSTORE GAS STATICCALL SWAP2 DUP3 ISZERO PUSH2 0x2A6 JUMPI PUSH2 0x26A SWAP4 SWAP3 PUSH2 0x277 JUMPI JUMPDEST POP PUSH2 0x264 PUSH2 0x9B1 JUMP JUMPDEST SWAP2 PUSH2 0xA21 JUMP JUMPDEST POP CODESIZE DUP1 DUP1 DUP4 DUP2 DUP1 DUP1 PUSH2 0x233 JUMP JUMPDEST PUSH2 0x298 SWAP2 SWAP3 POP DUP5 RETURNDATASIZE DUP7 GT PUSH2 0x29F JUMPI JUMPDEST PUSH2 0x290 DUP2 DUP4 PUSH2 0x70E JUMP JUMPDEST DUP2 ADD SWAP1 PUSH2 0x902 JUMP JUMPDEST SWAP1 CODESIZE PUSH2 0x25B JUMP JUMPDEST POP RETURNDATASIZE PUSH2 0x286 JUMP JUMPDEST PUSH2 0x91A JUMP JUMPDEST POP DUP7 PUSH2 0x22E JUMP JUMPDEST PUSH2 0x2C9 SWAP2 POP DUP7 RETURNDATASIZE DUP9 GT PUSH2 0x29F JUMPI PUSH2 0x290 DUP2 DUP4 PUSH2 0x70E JUMP JUMPDEST CODESIZE PUSH2 0x194 JUMP JUMPDEST PUSH1 0x84 DUP4 PUSH1 0x20 DUP8 MLOAD SWAP2 PUSH32 0x8C379A000000000000000000000000000000000000000000000000000000000 DUP4 MSTORE DUP3 ADD MSTORE PUSH1 0x25 PUSH1 0x24 DUP3 ADD MSTORE PUSH32 0x455243313936373A206E657720626561636F6E206973206E6F74206120636F6E PUSH1 0x44 DUP3 ADD MSTORE PUSH32 0x7472616374000000000000000000000000000000000000000000000000000000 PUSH1 0x64 DUP3 ADD MSTORE REVERT JUMPDEST DUP5 DUP8 MLOAD PUSH32 0xF92EE8A900000000000000000000000000000000000000000000000000000000 DUP2 MSTORE REVERT JUMPDEST DUP7 DUP1 REVERT JUMPDEST DUP4 DUP1 REVERT JUMPDEST PUSH20 0xFFFFFFFFFFFFFFFFFFFFFFFFFFFFFFFFFFFFFFFF DUP1 PUSH32 0xB53127684A568B3173AE13B9F8A6016E243E63B6E8EE1178D6A717850B5D6103 SLOAD AND ISZERO DUP1 ISZERO PUSH2 0xB94 JUMPI PUSH1 0x0 SWAP1 PUSH32 0xCF7A1D7700000000000000000000000000000000000000000000000000000000 PUSH32 0xFFFFFFFF00000000000000000000000000000000000000000000000000000000 DUP4 CALLDATALOAD AND EQ PUSH2 0x439 JUMPI PUSH1 0x4 PUSH1 0x40 MLOAD PUSH32 0xF92EE8A900000000000000000000000000000000000000000000000000000000 DUP2 MSTORE REVERT JUMPDEST PUSH2 0x441 PUSH2 0x1192 JUMP JUMPDEST PUSH1 0x4 SWAP3 CALLDATASIZE DUP5 GT PUSH2 0x67B JUMPI PUSH1 0x60 PUSH32 0xFFFFFFFFFFFFFFFFFFFFFFFFFFFFFFFFFFFFFFFFFFFFFFFFFFFFFFFFFFFFFFFC CALLDATASIZE ADD SLT PUSH2 0x67B JUMPI DUP4 CALLDATALOAD PUSH2 0x480 DUP2 PUSH2 0x67F JUMP JUMPDEST PUSH1 0x24 CALLDATALOAD SWAP2 PUSH2 0x48D DUP4 PUSH2 0x67F JUMP JUMPDEST PUSH1 0x44 CALLDATALOAD PUSH8 0xFFFFFFFFFFFFFFFF DUP2 GT PUSH2 0x677 JUMPI PUSH2 0x4AD DUP3 SWAP2 CALLDATASIZE SWAP1 DUP10 ADD PUSH2 0x789 JUMP JUMPDEST SWAP4 AND SWAP4 ISZERO PUSH2 0x64E JUMPI PUSH2 0x4BF SWAP2 AND PUSH2 0x7E3 JUMP JUMPDEST DUP2 EXTCODESIZE ISZERO PUSH2 0x5CA JUMPI PUSH1 0x40 MLOAD PUSH32 0x5C60DA1B00000000000000000000000000000000000000000000000000000000 SWAP3 DUP4 DUP3 MSTORE PUSH1 0x20 SWAP6 DUP7 DUP4 DUP3 DUP2 DUP6 GAS STATICCALL SWAP3 DUP4 ISZERO PUSH2 0x2A6 JUMPI DUP8 SWAP4 PUSH2 0x514 SWAP2 DUP9 SWAP2 PUSH2 0x5B3 JUMPI POP EXTCODESIZE ISZERO ISZERO PUSH2 0x926 JUMP JUMPDEST PUSH32 0xA3F0AD74E5423AEBFD80D3EF4346578335A9A72AEAEE59FF6CB3582B35133D50 DUP1 SLOAD PUSH32 0xFFFFFFFFFFFFFFFFFFFFFFFF0000000000000000000000000000000000000000 AND PUSH20 0xFFFFFFFFFFFFFFFFFFFFFFFFFFFFFFFFFFFFFFFF DUP5 AND OR SWAP1 SSTORE PUSH1 0x40 MLOAD SWAP5 DUP3 PUSH32 0x1CF3B03A6CF19FA2BABA4DF148E9DCABEDEA7F8A5C07840E207E5C089BE95D3E DUP9 DUP1 LOG2 DUP5 MLOAD ISZERO DUP1 ISZERO SWAP1 PUSH2 0x2AB JUMPI PUSH2 0x242 JUMPI DUP4 PUSH2 0x23C PUSH2 0x7D0 JUMP JUMPDEST PUSH2 0x2C9 SWAP2 POP DUP6 RETURNDATASIZE DUP8 GT PUSH2 0x29F JUMPI PUSH2 0x290 DUP2 DUP4 PUSH2 0x70E JUMP JUMPDEST PUSH1 0x84 DUP5 PUSH1 0x20 PUSH1 0x40 MLOAD SWAP2 PUSH32 0x8C379A000000000000000000000000000000000000000000000000000000000 DUP4 MSTORE DUP3 ADD MSTORE PUSH1 0x25 PUSH1 0x24 DUP3 ADD MSTORE PUSH32 0x455243313936373A206E657720626561636F6E206973206E6F74206120636F6E PUSH1 0x44 DUP3 ADD MSTORE PUSH32 0x7472616374000000000000000000000000000000000000000000000000000000 PUSH1 0x64 DUP3 ADD MSTORE REVERT JUMPDEST DUP6 PUSH1 0x40 MLOAD PUSH32 0xF92EE8A900000000000000000000000000000000000000000000000000000000 DUP2 MSTORE REVERT JUMPDEST DUP6 DUP1 REVERT JUMPDEST DUP3 DUP1 REVERT JUMPDEST PUSH20 0xFFFFFFFFFFFFFFFFFFFFFFFFFFFFFFFFFFFFFFFF DUP2 AND SUB PUSH2 0x69D JUMPI JUMP JUMPDEST PUSH1 0x0 DUP1 REVERT JUMPDEST PUSH32 0x4E487B7100000000000000000000000000000000000000000000000000000000 PUSH1 0x0 MSTORE PUSH1 0x41 PUSH1 0x4 MSTORE PUSH1 0x24 PUSH1 0x0 REVERT JUMPDEST PUSH1 0x20 DUP2 ADD SWAP1 DUP2 LT PUSH8 0xFFFFFFFFFFFFFFFF DUP3 GT OR PUSH2 0x6ED JUMPI PUSH1 0x40 MSTORE JUMP JUMPDEST PUSH2 0x6A2 JUMP JUMPDEST PUSH1 0x40 DUP2 ADD SWAP1 DUP2 LT PUSH8 0xFFFFFFFFFFFFFFFF DUP3 GT OR PUSH2 0x6ED JUMPI PUSH1 0x40 MSTORE JUMP JUMPDEST SWAP1 PUSH1 0x1F PUSH32 0xFFFFFFFFFFFFFFFFFFFFFFFFFFFFFFFFFFFFFFFFFFFFFFFFFFFFFFFFFFFFFFE0 SWAP2 ADD AND DUP2 ADD SWAP1 DUP2 LT PUSH8 0xFFFFFFFFFFFFFFFF DUP3 GT OR PUSH2 0x6ED JUMPI PUSH1 0x40 MSTORE JUMP JUMPDEST PUSH8 0xFFFFFFFFFFFFFFFF DUP2 GT PUSH2 0x6ED JUMPI PUSH1 0x1F ADD PUSH32 0xFFFFFFFFFFFFFFFFFFFFFFFFFFFFFFFFFFFFFFFFFFFFFFFFFFFFFFFFFFFFFFE0 AND PUSH1 0x20 ADD SWAP1 JUMP JUMPDEST DUP2 PUSH1 0x1F DUP3 ADD SLT ISZERO PUSH2 0x69D JUMPI DUP1 CALLDATALOAD SWAP1 PUSH2 0x7A0 DUP3 PUSH2 0x74F JUMP JUMPDEST SWAP3 PUSH2 0x7AE PUSH1 0x40 MLOAD SWAP5 DUP6 PUSH2 0x70E JUMP JUMPDEST DUP3 DUP5 MSTORE PUSH1 0x20 DUP4 DUP4 ADD ADD GT PUSH2 0x69D JUMPI DUP2 PUSH1 0x0 SWAP3 PUSH1 0x20 DUP1 SWAP4 ADD DUP4 DUP7 ADD CALLDATACOPY DUP4 ADD ADD MSTORE SWAP1 JUMP JUMPDEST PUSH1 0x40 MLOAD SWAP1 PUSH2 0x7DD DUP3 PUSH2 0x6D1 JUMP JUMPDEST PUSH1 0x0 DUP3 MSTORE JUMP JUMPDEST PUSH32 0xB53127684A568B3173AE13B9F8A6016E243E63B6E8EE1178D6A717850B5D6103 SWAP1 DUP2 SLOAD PUSH32 0x7E644D79422F17C01E4894B5F4F588D331EBFA28653D42AE832DC59E38C9798F PUSH1 0x40 DUP1 MLOAD SWAP4 PUSH20 0xFFFFFFFFFFFFFFFFFFFFFFFFFFFFFFFFFFFFFFFF SWAP1 DUP2 DUP6 AND DUP7 MSTORE AND SWAP4 DUP5 PUSH1 0x20 DUP3 ADD MSTORE LOG1 DUP2 ISZERO PUSH2 0x87E JUMPI PUSH32 0xFFFFFFFFFFFFFFFFFFFFFFFF0000000000000000000000000000000000000000 AND OR SWAP1 SSTORE JUMP JUMPDEST PUSH1 0x84 PUSH1 0x40 MLOAD PUSH32 0x8C379A000000000000000000000000000000000000000000000000000000000 DUP2 MSTORE PUSH1 0x20 PUSH1 0x4 DUP3 ADD MSTORE PUSH1 0x26 PUSH1 0x24 DUP3 ADD MSTORE PUSH32 0x455243313936373A206E65772061646D696E20697320746865207A65726F2061 PUSH1 0x44 DUP3 ADD MSTORE PUSH32 0x6464726573730000000000000000000000000000000000000000000000000000 PUSH1 0x64 DUP3 ADD MSTORE REVERT JUMPDEST SWAP1 DUP2 PUSH1 0x20 SWAP2 SUB SLT PUSH2 0x69D JUMPI MLOAD PUSH2 0x917 DUP2 PUSH2 0x67F JUMP JUMPDEST SWAP1 JUMP JUMPDEST PUSH1 0x40 MLOAD RETURNDATASIZE PUSH1 0x0 DUP3 RETURNDATACOPY RETURNDATASIZE SWAP1 REVERT JUMPDEST ISZERO PUSH2 0x92D JUMPI JUMP JUMPDEST PUSH1 0x84 PUSH1 0x40 MLOAD PUSH32 0x8C379A000000000000000000000000000000000000000000000000000000000 DUP2 MSTORE PUSH1 0x20 PUSH1 0x4 DUP3 ADD MSTORE PUSH1 0x30 PUSH1 0x24 DUP3 ADD MSTORE PUSH32 0x455243313936373A20626561636F6E20696D706C656D656E746174696F6E2069 PUSH1 0x44 DUP3 ADD MSTORE PUSH32 0x73206E6F74206120636F6E747261637400000000000000000000000000000000 PUSH1 0x64 DUP3 ADD MSTORE REVERT JUMPDEST PUSH1 0x40 MLOAD SWAP1 PUSH1 0x60 DUP3 ADD DUP3 DUP2 LT PUSH8 0xFFFFFFFFFFFFFFFF DUP3 GT OR PUSH2 0x6ED JUMPI PUSH1 0x40 MSTORE PUSH1 0x27 DUP3 MSTORE PUSH32 0x206661696C656400000000000000000000000000000000000000000000000000 PUSH1 0x40 DUP4 PUSH32 0x416464726573733A206C6F772D6C6576656C2064656C65676174652063616C6C PUSH1 0x20 DUP3 ADD MSTORE ADD MSTORE JUMP JUMPDEST PUSH1 0x0 DUP1 PUSH2 0x917 SWAP5 SWAP4 PUSH1 0x20 DUP2 MLOAD SWAP2 ADD DUP5 GAS DELEGATECALL RETURNDATASIZE ISZERO PUSH2 0xA60 JUMPI RETURNDATASIZE SWAP2 PUSH2 0xA43 DUP4 PUSH2 0x74F JUMP JUMPDEST SWAP3 PUSH2 0xA51 PUSH1 0x40 MLOAD SWAP5 DUP6 PUSH2 0x70E JUMP JUMPDEST DUP4 MSTORE RETURNDATASIZE PUSH1 0x0 PUSH1 0x20 DUP6 ADD RETURNDATACOPY PUSH2 0xACD JUMP JUMPDEST PUSH1 0x60 SWAP2 PUSH2 0xACD JUMP JUMPDEST ISZERO PUSH2 0xA6F JUMPI JUMP JUMPDEST PUSH1 0x64 PUSH1 0x40 MLOAD PUSH32 0x8C379A000000000000000000000000000000000000000000000000000000000 DUP2 MSTORE PUSH1 0x20 PUSH1 0x4 DUP3 ADD MSTORE PUSH1 0x1D PUSH1 0x24 DUP3 ADD MSTORE PUSH32 0x416464726573733A2063616C6C20746F206E6F6E2D636F6E7472616374000000 PUSH1 0x44 DUP3 ADD MSTORE REVERT JUMPDEST SWAP2 SWAP3 SWAP1 ISZERO PUSH2 0xAED JUMPI POP DUP2 MLOAD ISZERO PUSH2 0xAE1 JUMPI POP SWAP1 JUMP JUMPDEST PUSH2 0x917 SWAP1 EXTCODESIZE ISZERO ISZERO PUSH2 0xA68 JUMP JUMPDEST DUP3 MLOAD SWAP1 SWAP2 POP ISZERO PUSH2 0xB00 JUMPI POP DUP1 MLOAD SWAP1 PUSH1 0x20 ADD REVERT JUMPDEST PUSH1 0x40 MLOAD SWAP1 PUSH32 0x8C379A000000000000000000000000000000000000000000000000000000000 DUP3 MSTORE DUP2 PUSH1 0x20 DUP1 PUSH1 0x4 DUP4 ADD MSTORE DUP3 MLOAD SWAP3 DUP4 PUSH1 0x24 DUP5 ADD MSTORE PUSH1 0x0 JUMPDEST DUP5 DUP2 LT PUSH2 0xB7D JUMPI POP POP POP PUSH32 0xFFFFFFFFFFFFFFFFFFFFFFFFFFFFFFFFFFFFFFFFFFFFFFFFFFFFFFFFFFFFFFE0 PUSH1 0x1F DUP4 PUSH1 0x0 PUSH1 0x44 DUP1 SWAP7 DUP7 ADD ADD MSTORE ADD AND DUP2 ADD SUB ADD SWAP1 REVERT JUMPDEST DUP2 DUP2 ADD DUP4 ADD MLOAD DUP7 DUP3 ADD PUSH1 0x44 ADD MSTORE DUP6 SWAP4 POP DUP3 ADD PUSH2 0xB3C JUMP JUMPDEST PUSH2 0xBEE PUSH2 0xBD5 PUSH32 0xB53127684A568B3173AE13B9F8A6016E243E63B6E8EE1178D6A717850B5D6103 SLOAD PUSH20 0xFFFFFFFFFFFFFFFFFFFFFFFFFFFFFFFFFFFFFFFF AND SWAP1 JUMP JUMPDEST PUSH20 0xFFFFFFFFFFFFFFFFFFFFFFFFFFFFFFFFFFFFFFFF AND SWAP1 JUMP JUMPDEST CALLER SUB PUSH2 0xD14 JUMPI PUSH1 0x0 CALLDATALOAD PUSH32 0xFFFFFFFF00000000000000000000000000000000000000000000000000000000 AND PUSH32 0x3659CFE600000000000000000000000000000000000000000000000000000000 DUP2 SUB PUSH2 0xC51 JUMPI POP PUSH2 0xC49 PUSH2 0xF0F JUMP JUMPDEST PUSH1 0x20 DUP2 MLOAD SWAP2 ADD RETURN JUMPDEST PUSH32 0x4F1EF28600000000000000000000000000000000000000000000000000000000 DUP2 SUB PUSH2 0xC86 JUMPI POP PUSH2 0xC81 PUSH2 0x1083 JUMP JUMPDEST PUSH2 0xC49 JUMP JUMPDEST PUSH32 0x8F28397000000000000000000000000000000000000000000000000000000000 DUP2 SUB PUSH2 0xCB6 JUMPI POP PUSH2 0xC81 PUSH2 0xEC5 JUMP JUMPDEST PUSH32 0xF851A44000000000000000000000000000000000000000000000000000000000 DUP2 SUB PUSH2 0xCE6 JUMPI POP PUSH2 0xC81 PUSH2 0xDFD JUMP JUMPDEST PUSH32 0x5C60DA1B00000000000000000000000000000000000000000000000000000000 SUB PUSH2 0xD14 JUMPI PUSH2 0xC81 PUSH2 0xE53 JUMP JUMPDEST PUSH2 0xD1C PUSH2 0xD3B JUMP JUMPDEST PUSH1 0x0 DUP1 DUP1 SWAP3 CALLDATASIZE DUP3 DUP1 CALLDATACOPY DUP2 CALLDATASIZE SWAP2 GAS DELEGATECALL RETURNDATASIZE DUP3 DUP1 RETURNDATACOPY ISZERO PUSH2 0xD37 JUMPI RETURNDATASIZE SWAP1 RETURN JUMPDEST RETURNDATASIZE SWAP1 REVERT JUMPDEST PUSH20 0xFFFFFFFFFFFFFFFFFFFFFFFFFFFFFFFFFFFFFFFF DUP1 PUSH32 0x360894A13BA1A3210667C828492DB98DCA3E2076CC3735A920A3CA505D382BBC SLOAD AND DUP1 PUSH2 0xDF8 JUMPI POP PUSH1 0x20 PUSH1 0x4 SWAP2 PUSH32 0xA3F0AD74E5423AEBFD80D3EF4346578335A9A72AEAEE59FF6CB3582B35133D50 SLOAD AND PUSH1 0x40 MLOAD SWAP3 DUP4 DUP1 SWAP3 PUSH32 0x5C60DA1B00000000000000000000000000000000000000000000000000000000 DUP3 MSTORE GAS STATICCALL SWAP1 DUP2 ISZERO PUSH2 0x2A6 JUMPI PUSH1 0x0 SWAP2 PUSH2 0xDE0 JUMPI POP SWAP1 JUMP JUMPDEST PUSH2 0x917 SWAP2 POP PUSH1 0x20 RETURNDATASIZE DUP2 GT PUSH2 0x29F JUMPI PUSH2 0x290 DUP2 DUP4 PUSH2 0x70E JUMP JUMPDEST SWAP1 POP SWAP1 JUMP JUMPDEST PUSH2 0xE05 PUSH2 0x1192 JUMP JUMPDEST PUSH20 0xFFFFFFFFFFFFFFFFFFFFFFFFFFFFFFFFFFFFFFFF PUSH32 0xB53127684A568B3173AE13B9F8A6016E243E63B6E8EE1178D6A717850B5D6103 SLOAD AND PUSH1 0x40 MLOAD SWAP1 PUSH1 0x20 DUP3 ADD MSTORE PUSH1 0x20 DUP2 MSTORE PUSH2 0x917 DUP2 PUSH2 0x6F2 JUMP JUMPDEST PUSH2 0xE5B PUSH2 0x1192 JUMP JUMPDEST PUSH2 0xE63 PUSH2 0xD3B JUMP JUMPDEST PUSH20 0xFFFFFFFFFFFFFFFFFFFFFFFFFFFFFFFFFFFFFFFF PUSH1 0x40 MLOAD SWAP2 AND PUSH1 0x20 DUP3 ADD MSTORE PUSH1 0x20 DUP2 MSTORE PUSH2 0x917 DUP2 PUSH2 0x6F2 JUMP JUMPDEST PUSH32 0xFFFFFFFFFFFFFFFFFFFFFFFFFFFFFFFFFFFFFFFFFFFFFFFFFFFFFFFFFFFFFFFC PUSH1 0x20 SWAP2 ADD SLT PUSH2 0x69D JUMPI PUSH1 0x4 CALLDATALOAD PUSH2 0x917 DUP2 PUSH2 0x67F JUMP JUMPDEST PUSH2 0xECD PUSH2 0x1192 JUMP JUMPDEST CALLDATASIZE PUSH1 0x4 GT PUSH2 0x69D JUMPI PUSH2 0xEFC PUSH20 0xFFFFFFFFFFFFFFFFFFFFFFFFFFFFFFFFFFFFFFFF PUSH2 0xEF6 CALLDATASIZE PUSH2 0xE8F JUMP JUMPDEST AND PUSH2 0x7E3 JUMP JUMPDEST PUSH1 0x40 MLOAD PUSH2 0xF08 DUP2 PUSH2 0x6D1 JUMP JUMPDEST PUSH1 0x0 DUP2 MSTORE SWAP1 JUMP JUMPDEST PUSH2 0xF17 PUSH2 0x1192 JUMP JUMPDEST CALLDATASIZE PUSH1 0x4 GT PUSH2 0x69D JUMPI PUSH20 0xFFFFFFFFFFFFFFFFFFFFFFFFFFFFFFFFFFFFFFFF PUSH2 0xF3D CALLDATASIZE PUSH2 0xE8F JUMP JUMPDEST AND PUSH1 0x40 MLOAD SWAP1 PUSH2 0xF4B DUP3 PUSH2 0x6D1 JUMP JUMPDEST PUSH1 0x0 DUP3 MSTORE DUP1 EXTCODESIZE ISZERO PUSH2 0xFFF JUMPI PUSH32 0x360894A13BA1A3210667C828492DB98DCA3E2076CC3735A920A3CA505D382BBC DUP2 PUSH32 0xFFFFFFFFFFFFFFFFFFFFFFFF0000000000000000000000000000000000000000 DUP3 SLOAD AND OR SWAP1 SSTORE DUP1 PUSH32 0xBC7CD75A20EE27FD9ADEBAB32041F755214DBC6BFFA90CC0225B39DA2E5C2D3B PUSH1 0x0 DUP1 LOG2 DUP2 MLOAD ISZERO DUP1 ISZERO SWAP1 PUSH2 0xFF7 JUMPI JUMPDEST PUSH2 0xFE3 JUMPI JUMPDEST POP POP PUSH1 0x40 MLOAD PUSH2 0xF08 DUP2 PUSH2 0x6D1 JUMP JUMPDEST PUSH2 0xFEF SWAP2 PUSH2 0x264 PUSH2 0x9B1 JUMP JUMPDEST POP CODESIZE DUP1 PUSH2 0xFD5 JUMP JUMPDEST POP PUSH1 0x0 PUSH2 0xFD0 JUMP JUMPDEST PUSH1 0x84 PUSH1 0x40 MLOAD PUSH32 0x8C379A000000000000000000000000000000000000000000000000000000000 DUP2 MSTORE PUSH1 0x20 PUSH1 0x4 DUP3 ADD MSTORE PUSH1 0x2D PUSH1 0x24 DUP3 ADD MSTORE PUSH32 0x455243313936373A206E657720696D706C656D656E746174696F6E206973206E PUSH1 0x44 DUP3 ADD MSTORE PUSH32 0x6F74206120636F6E747261637400000000000000000000000000000000000000 PUSH1 0x64 DUP3 ADD MSTORE REVERT JUMPDEST CALLDATASIZE PUSH1 0x4 GT PUSH2 0x69D JUMPI PUSH1 0x40 PUSH32 0xFFFFFFFFFFFFFFFFFFFFFFFFFFFFFFFFFFFFFFFFFFFFFFFFFFFFFFFFFFFFFFFC CALLDATASIZE ADD SLT PUSH2 0x69D JUMPI PUSH1 0x4 CALLDATALOAD PUSH2 0x10C1 DUP2 PUSH2 0x67F JUMP JUMPDEST PUSH1 0x24 CALLDATALOAD PUSH8 0xFFFFFFFFFFFFFFFF DUP2 GT PUSH2 0x69D JUMPI PUSH2 0x10F6 PUSH20 0xFFFFFFFFFFFFFFFFFFFFFFFFFFFFFFFFFFFFFFFF SWAP2 CALLDATASIZE SWAP1 PUSH1 0x4 ADD PUSH2 0x789 JUMP JUMPDEST SWAP2 AND DUP1 EXTCODESIZE ISZERO PUSH2 0xFFF JUMPI PUSH32 0x360894A13BA1A3210667C828492DB98DCA3E2076CC3735A920A3CA505D382BBC DUP2 PUSH32 0xFFFFFFFFFFFFFFFFFFFFFFFF0000000000000000000000000000000000000000 DUP3 SLOAD AND OR SWAP1 SSTORE DUP1 PUSH32 0xBC7CD75A20EE27FD9ADEBAB32041F755214DBC6BFFA90CC0225B39DA2E5C2D3B PUSH1 0x0 DUP1 LOG2 DUP2 MLOAD ISZERO DUP1 ISZERO SWAP1 PUSH2 0x118A JUMPI PUSH2 0xFE3 JUMPI POP POP PUSH1 0x40 MLOAD PUSH2 0xF08 DUP2 PUSH2 0x6D1 JUMP JUMPDEST POP PUSH1 0x1 PUSH2 0xFD0 JUMP JUMPDEST CALLVALUE PUSH2 0x69D JUMPI JUMP INVALID LOG2 PUSH5 0x6970667358 0x22 SLT KECCAK256 GAS REVERT 0xFC CALLCODE 0xDB 0x2F 0x24 0x2D SHR SWAP1 0xFC GASLIMIT 0x24 SELFDESTRUCT XOR COINBASE 0xDA CALLDATACOPY COINBASE SWAP8 CODESIZE DUP1 0x5E 0xE0 JUMPI SHL 0xD2 PUSH21 0x4B6196CE64736F6C63430008130033A26469706673 PC 0x22 SLT KECCAK256 0xA8 0xC 0xC5 0xD7 0x4E EXP MUL 0xCB 0x4B 0x1F PREVRANDAO LOG1 0xDE 0xC4 0x4B 0xBA 0x24 0xDD SWAP15 PUSH28 0xD16093F5D05C61BE5740ED1664736F6C634300081300336080346101 BYTE JUMPI PUSH1 0x1F PUSH2 0x5EE CODESIZE DUP2 SWAP1 SUB SWAP2 DUP3 ADD PUSH1 0x1F NOT AND DUP4 ADD SWAP2 PUSH1 0x1 PUSH1 0x1 PUSH1 0x40 SHL SUB DUP4 GT DUP5 DUP5 LT OR PUSH2 0x11F JUMPI DUP1 DUP5 SWAP3 PUSH1 0x20 SWAP5 PUSH1 0x40 MSTORE DUP4 CODECOPY DUP2 ADD SUB SLT PUSH2 0x11A JUMPI MLOAD PUSH1 0x1 PUSH1 0x1 PUSH1 0xA0 SHL SUB DUP1 DUP3 AND SWAP2 SWAP1 DUP3 DUP3 SUB PUSH2 0x11A JUMPI PUSH1 0x0 SLOAD SWAP2 PUSH1 0x1 DUP1 PUSH1 0xA0 SHL SUB NOT SWAP3 CALLER DUP5 DUP3 AND OR PUSH1 0x0 SSTORE PUSH1 0x40 MLOAD SWAP3 CALLER SWAP2 AND PUSH32 0x8BE0079C531659141344CD1FD0A4F28419497F9722A3DAAFE3B4186F6B6457E0 PUSH1 0x0 DUP1 LOG3 EXTCODESIZE ISZERO PUSH2 0xB2 JUMPI POP PUSH1 0x1 SLOAD AND OR PUSH1 0x1 SSTORE PUSH1 0x40 MLOAD PUSH2 0x4B8 SWAP1 DUP2 PUSH2 0x136 DUP3 CODECOPY RETURN JUMPDEST PUSH3 0x461BCD PUSH1 0xE5 SHL DUP2 MSTORE PUSH1 0x20 PUSH1 0x4 DUP3 ADD MSTORE PUSH1 0x33 PUSH1 0x24 DUP3 ADD MSTORE PUSH32 0x5570677261646561626C65426561636F6E3A20696D706C656D656E746174696F PUSH1 0x44 DUP3 ADD MSTORE PUSH32 0x6E206973206E6F74206120636F6E747261637400000000000000000000000000 PUSH1 0x64 DUP3 ADD MSTORE PUSH1 0x84 SWAP1 REVERT JUMPDEST PUSH1 0x0 DUP1 REVERT JUMPDEST PUSH4 0x4E487B71 PUSH1 0xE0 SHL PUSH1 0x0 MSTORE PUSH1 0x41 PUSH1 0x4 MSTORE PUSH1 0x24 PUSH1 0x0 REVERT INVALID PUSH1 0x80 PUSH1 0x40 MSTORE PUSH1 0x4 CALLDATASIZE LT ISZERO PUSH2 0x12 JUMPI PUSH1 0x0 DUP1 REVERT JUMPDEST PUSH1 0x0 DUP1 CALLDATALOAD PUSH1 0xE0 SHR DUP1 PUSH4 0x3659CFE6 EQ PUSH2 0x2CE JUMPI DUP1 PUSH4 0x5C60DA1B EQ PUSH2 0x27C JUMPI DUP1 PUSH4 0x715018A6 EQ PUSH2 0x1E0 JUMPI DUP1 PUSH4 0x8DA5CB5B EQ PUSH2 0x18F JUMPI PUSH4 0xF2FDE38B EQ PUSH2 0x54 JUMPI PUSH1 0x0 DUP1 REVERT JUMPDEST CALLVALUE PUSH2 0x18C JUMPI PUSH1 0x20 PUSH32 0xFFFFFFFFFFFFFFFFFFFFFFFFFFFFFFFFFFFFFFFFFFFFFFFFFFFFFFFFFFFFFFFC CALLDATASIZE ADD SLT PUSH2 0x18C JUMPI PUSH1 0x4 CALLDATALOAD PUSH20 0xFFFFFFFFFFFFFFFFFFFFFFFFFFFFFFFFFFFFFFFF DUP1 DUP3 AND DUP1 SWAP3 SUB PUSH2 0x188 JUMPI PUSH2 0xAD PUSH2 0x403 JUMP JUMPDEST DUP2 ISZERO PUSH2 0x104 JUMPI DUP3 SLOAD DUP3 PUSH32 0xFFFFFFFFFFFFFFFFFFFFFFFF0000000000000000000000000000000000000000 DUP3 AND OR DUP5 SSTORE AND PUSH32 0x8BE0079C531659141344CD1FD0A4F28419497F9722A3DAAFE3B4186F6B6457E0 DUP4 DUP1 LOG3 DUP1 RETURN JUMPDEST PUSH1 0x84 PUSH1 0x40 MLOAD PUSH32 0x8C379A000000000000000000000000000000000000000000000000000000000 DUP2 MSTORE PUSH1 0x20 PUSH1 0x4 DUP3 ADD MSTORE PUSH1 0x26 PUSH1 0x24 DUP3 ADD MSTORE PUSH32 0x4F776E61626C653A206E6577206F776E657220697320746865207A65726F2061 PUSH1 0x44 DUP3 ADD MSTORE PUSH32 0x6464726573730000000000000000000000000000000000000000000000000000 PUSH1 0x64 DUP3 ADD MSTORE REVERT JUMPDEST DUP3 DUP1 REVERT JUMPDEST DUP1 REVERT JUMPDEST POP CALLVALUE PUSH2 0x18C JUMPI DUP1 PUSH32 0xFFFFFFFFFFFFFFFFFFFFFFFFFFFFFFFFFFFFFFFFFFFFFFFFFFFFFFFFFFFFFFFC CALLDATASIZE ADD SLT PUSH2 0x18C JUMPI PUSH20 0xFFFFFFFFFFFFFFFFFFFFFFFFFFFFFFFFFFFFFFFF PUSH1 0x20 SWAP2 SLOAD AND PUSH1 0x40 MLOAD SWAP1 DUP2 MSTORE RETURN JUMPDEST POP CALLVALUE PUSH2 0x18C JUMPI DUP1 PUSH32 0xFFFFFFFFFFFFFFFFFFFFFFFFFFFFFFFFFFFFFFFFFFFFFFFFFFFFFFFFFFFFFFFC CALLDATASIZE ADD SLT PUSH2 0x18C JUMPI PUSH2 0x217 PUSH2 0x403 JUMP JUMPDEST DUP1 PUSH20 0xFFFFFFFFFFFFFFFFFFFFFFFFFFFFFFFFFFFFFFFF DUP2 SLOAD PUSH32 0xFFFFFFFFFFFFFFFFFFFFFFFF0000000000000000000000000000000000000000 DUP2 AND DUP4 SSTORE AND PUSH32 0x8BE0079C531659141344CD1FD0A4F28419497F9722A3DAAFE3B4186F6B6457E0 DUP3 DUP1 LOG3 DUP1 RETURN JUMPDEST POP CALLVALUE PUSH2 0x18C JUMPI DUP1 PUSH32 0xFFFFFFFFFFFFFFFFFFFFFFFFFFFFFFFFFFFFFFFFFFFFFFFFFFFFFFFFFFFFFFFC CALLDATASIZE ADD SLT PUSH2 0x18C JUMPI PUSH1 0x20 PUSH20 0xFFFFFFFFFFFFFFFFFFFFFFFFFFFFFFFFFFFFFFFF PUSH1 0x1 SLOAD AND PUSH1 0x40 MLOAD SWAP1 DUP2 MSTORE RETURN JUMPDEST POP CALLVALUE PUSH2 0x18C JUMPI PUSH1 0x20 PUSH32 0xFFFFFFFFFFFFFFFFFFFFFFFFFFFFFFFFFFFFFFFFFFFFFFFFFFFFFFFFFFFFFFFC CALLDATASIZE ADD SLT PUSH2 0x18C JUMPI PUSH1 0x4 CALLDATALOAD PUSH20 0xFFFFFFFFFFFFFFFFFFFFFFFFFFFFFFFFFFFFFFFF DUP2 AND SWAP1 DUP2 DUP2 SUB PUSH2 0x188 JUMPI PUSH2 0x328 PUSH2 0x403 JUMP JUMPDEST EXTCODESIZE ISZERO PUSH2 0x37F JUMPI DUP1 PUSH32 0xFFFFFFFFFFFFFFFFFFFFFFFF0000000000000000000000000000000000000000 PUSH1 0x1 SLOAD AND OR PUSH1 0x1 SSTORE PUSH32 0xBC7CD75A20EE27FD9ADEBAB32041F755214DBC6BFFA90CC0225B39DA2E5C2D3B DUP3 DUP1 LOG2 DUP1 RETURN JUMPDEST PUSH1 0x84 PUSH1 0x40 MLOAD PUSH32 0x8C379A000000000000000000000000000000000000000000000000000000000 DUP2 MSTORE PUSH1 0x20 PUSH1 0x4 DUP3 ADD MSTORE PUSH1 0x33 PUSH1 0x24 DUP3 ADD MSTORE PUSH32 0x5570677261646561626C65426561636F6E3A20696D706C656D656E746174696F PUSH1 0x44 DUP3 ADD MSTORE PUSH32 0x6E206973206E6F74206120636F6E747261637400000000000000000000000000 PUSH1 0x64 DUP3 ADD MSTORE REVERT JUMPDEST PUSH20 0xFFFFFFFFFFFFFFFFFFFFFFFFFFFFFFFFFFFFFFFF PUSH1 0x0 SLOAD AND CALLER SUB PUSH2 0x424 JUMPI JUMP JUMPDEST PUSH1 0x64 PUSH1 0x40 MLOAD PUSH32 0x8C379A000000000000000000000000000000000000000000000000000000000 DUP2 MSTORE PUSH1 0x20 PUSH1 0x4 DUP3 ADD MSTORE PUSH1 0x20 PUSH1 0x24 DUP3 ADD MSTORE PUSH32 0x4F776E61626C653A2063616C6C6572206973206E6F7420746865206F776E6572 PUSH1 0x44 DUP3 ADD MSTORE REVERT INVALID LOG2 PUSH5 0x6970667358 0x22 SLT KECCAK256 0xEE MUL 0xA7 0xCC SWAP11 0xDA 0xE6 DUP6 PUSH5 0xFEDA649341 PUSH17 0xF02F3F12A55B74647721BABA4FB3661571 PUSH5 0x736F6C6343 STOP ADDMOD SGT STOP CALLER PUSH1 0xA0 PUSH1 0x40 MSTORE CALLVALUE PUSH3 0x2DC JUMPI PUSH3 0x14 PUSH3 0x2E1 JUMP JUMPDEST PUSH3 0x1E PUSH3 0x2E1 JUMP JUMPDEST DUP2 MLOAD SWAP1 PUSH1 0x1 PUSH1 0x1 PUSH1 0x40 SHL SUB SWAP1 DUP2 DUP4 GT PUSH3 0x1EE JUMPI PUSH1 0x2 SLOAD SWAP1 PUSH1 0x1 SWAP4 DUP5 DUP4 DUP2 SHR SWAP4 AND SWAP6 DUP7 ISZERO PUSH3 0x2D1 JUMPI JUMPDEST PUSH1 0x20 SWAP7 DUP8 DUP6 LT EQ PUSH3 0x1CD JUMPI DUP2 SWAP1 PUSH1 0x1F SWAP5 DUP6 DUP2 GT PUSH3 0x27A JUMPI JUMPDEST POP DUP8 SWAP1 DUP6 DUP4 GT PUSH1 0x1 EQ PUSH3 0x210 JUMPI PUSH1 0x0 SWAP3 PUSH3 0x204 JUMPI JUMPDEST POP POP PUSH1 0x0 NOT PUSH1 0x3 DUP4 SWAP1 SHL SHR NOT AND SWAP1 DUP6 SHL OR PUSH1 0x2 SSTORE JUMPDEST DUP1 MLOAD SWAP3 DUP4 GT PUSH3 0x1EE JUMPI PUSH1 0x3 SWAP5 DUP6 SLOAD DUP6 DUP2 DUP2 SHR SWAP2 AND DUP1 ISZERO PUSH3 0x1E3 JUMPI JUMPDEST DUP3 DUP3 LT EQ PUSH3 0x1CD JUMPI DUP4 DUP2 GT PUSH3 0x182 JUMPI JUMPDEST POP DUP1 SWAP3 DUP5 GT PUSH1 0x1 EQ PUSH3 0x118 JUMPI POP SWAP3 DUP3 SWAP4 SWAP2 DUP4 SWAP3 PUSH1 0x0 SWAP5 PUSH3 0x10C JUMPI JUMPDEST POP POP SHL SWAP2 PUSH1 0x0 NOT SWAP1 DUP5 SHL SHR NOT AND OR SWAP1 SSTORE JUMPDEST PUSH1 0x0 DUP1 SSTORE CALLER PUSH1 0x80 MSTORE PUSH1 0x40 MLOAD PUSH2 0x3E19 SWAP1 DUP2 PUSH3 0x306 DUP3 CODECOPY PUSH1 0x80 MLOAD DUP2 PUSH2 0x396F ADD MSTORE RETURN JUMPDEST ADD MLOAD SWAP3 POP CODESIZE DUP1 PUSH3 0xDA JUMP JUMPDEST SWAP2 SWAP1 DUP4 PUSH1 0x1F NOT DUP2 AND DUP8 PUSH1 0x0 MSTORE DUP5 PUSH1 0x0 KECCAK256 SWAP5 PUSH1 0x0 SWAP1 JUMPDEST DUP9 DUP4 DUP4 LT PUSH3 0x167 JUMPI POP POP POP LT PUSH3 0x14E JUMPI JUMPDEST POP POP POP DUP2 SHL ADD SWAP1 SSTORE PUSH3 0xEB JUMP JUMPDEST ADD MLOAD PUSH1 0x0 NOT DUP4 DUP7 SHL PUSH1 0xF8 AND SHR NOT AND SWAP1 SSTORE CODESIZE DUP1 DUP1 PUSH3 0x140 JUMP JUMPDEST DUP6 DUP8 ADD MLOAD DUP9 SSTORE SWAP1 SWAP7 ADD SWAP6 SWAP5 DUP6 ADD SWAP5 DUP8 SWAP4 POP SWAP1 DUP2 ADD SWAP1 PUSH3 0x12D JUMP JUMPDEST DUP7 PUSH1 0x0 MSTORE DUP2 PUSH1 0x0 KECCAK256 DUP5 DUP1 DUP8 ADD PUSH1 0x5 SHR DUP3 ADD SWAP3 DUP5 DUP9 LT PUSH3 0x1C3 JUMPI JUMPDEST ADD PUSH1 0x5 SHR ADD SWAP1 DUP7 SWAP1 JUMPDEST DUP3 DUP2 LT PUSH3 0x1B6 JUMPI POP POP PUSH3 0xBD JUMP JUMPDEST PUSH1 0x0 DUP2 SSTORE ADD DUP7 SWAP1 PUSH3 0x1A6 JUMP JUMPDEST SWAP3 POP DUP2 SWAP3 PUSH3 0x19D JUMP JUMPDEST PUSH4 0x4E487B71 PUSH1 0xE0 SHL PUSH1 0x0 MSTORE PUSH1 0x22 PUSH1 0x4 MSTORE PUSH1 0x24 PUSH1 0x0 REVERT JUMPDEST SWAP1 PUSH1 0x7F AND SWAP1 PUSH3 0xAB JUMP JUMPDEST PUSH4 0x4E487B71 PUSH1 0xE0 SHL PUSH1 0x0 MSTORE PUSH1 0x41 PUSH1 0x4 MSTORE PUSH1 0x24 PUSH1 0x0 REVERT JUMPDEST ADD MLOAD SWAP1 POP CODESIZE DUP1 PUSH3 0x79 JUMP JUMPDEST SWAP1 DUP8 SWAP4 POP PUSH1 0x1F NOT DUP4 AND SWAP2 PUSH1 0x2 PUSH1 0x0 MSTORE DUP10 PUSH1 0x0 KECCAK256 SWAP3 PUSH1 0x0 JUMPDEST DUP12 DUP3 DUP3 LT PUSH3 0x263 JUMPI POP POP DUP5 GT PUSH3 0x249 JUMPI JUMPDEST POP POP POP DUP2 SHL ADD PUSH1 0x2 SSTORE PUSH3 0x8E JUMP JUMPDEST ADD MLOAD PUSH1 0x0 NOT PUSH1 0xF8 DUP5 PUSH1 0x3 SHL AND SHR NOT AND SWAP1 SSTORE CODESIZE DUP1 DUP1 PUSH3 0x23A JUMP JUMPDEST DUP4 DUP6 ADD MLOAD DUP7 SSTORE DUP12 SWAP8 SWAP1 SWAP6 ADD SWAP5 SWAP4 DUP5 ADD SWAP4 ADD PUSH3 0x227 JUMP JUMPDEST SWAP1 SWAP2 POP PUSH1 0x2 PUSH1 0x0 MSTORE DUP8 PUSH1 0x0 KECCAK256 DUP6 DUP1 DUP6 ADD PUSH1 0x5 SHR DUP3 ADD SWAP3 DUP11 DUP7 LT PUSH3 0x2C7 JUMPI JUMPDEST SWAP2 DUP10 SWAP2 DUP7 SWAP6 SWAP5 SWAP4 ADD PUSH1 0x5 SHR ADD SWAP2 JUMPDEST DUP3 DUP2 LT PUSH3 0x2B7 JUMPI POP POP PUSH3 0x62 JUMP JUMPDEST PUSH1 0x0 DUP2 SSTORE DUP6 SWAP5 POP DUP10 SWAP2 ADD PUSH3 0x2A7 JUMP JUMPDEST SWAP3 POP DUP2 SWAP3 PUSH3 0x299 JUMP JUMPDEST SWAP3 PUSH1 0x7F AND SWAP3 PUSH3 0x48 JUMP JUMPDEST PUSH1 0x0 DUP1 REVERT JUMPDEST PUSH1 0x40 MLOAD SWAP1 PUSH1 0x20 DUP3 ADD PUSH1 0x1 PUSH1 0x1 PUSH1 0x40 SHL SUB DUP2 GT DUP4 DUP3 LT OR PUSH3 0x1EE JUMPI PUSH1 0x40 MSTORE PUSH1 0x0 DUP3 MSTORE JUMP INVALID PUSH1 0x80 PUSH1 0x40 MSTORE PUSH1 0x4 CALLDATASIZE LT ISZERO PUSH2 0x12 JUMPI PUSH1 0x0 DUP1 REVERT JUMPDEST PUSH1 0x0 CALLDATALOAD PUSH1 0xE0 SHR DUP1 PUSH4 0x1FFC9A7 EQ PUSH2 0x267 JUMPI DUP1 PUSH4 0x4634D8D EQ PUSH2 0x262 JUMPI DUP1 PUSH4 0x6FDDE03 EQ PUSH2 0x25D JUMPI DUP1 PUSH4 0x81812FC EQ PUSH2 0x258 JUMPI DUP1 PUSH4 0x95EA7B3 EQ PUSH2 0x253 JUMPI DUP1 PUSH4 0x18160DDD EQ PUSH2 0x24E JUMPI DUP1 PUSH4 0x23B872DD EQ PUSH2 0x249 JUMPI DUP1 PUSH4 0x248A9CA3 EQ PUSH2 0x244 JUMPI DUP1 PUSH4 0x2A55205A EQ PUSH2 0x23F JUMPI DUP1 PUSH4 0x2F2FF15D EQ PUSH2 0x23A JUMPI DUP1 PUSH4 0x36568ABE EQ PUSH2 0x235 JUMPI DUP1 PUSH4 0x40C10F19 EQ PUSH2 0x230 JUMPI DUP1 PUSH4 0x42842E0E EQ PUSH2 0x22B JUMPI DUP1 PUSH4 0x42966C68 EQ PUSH2 0x226 JUMPI DUP1 PUSH4 0x5944C753 EQ PUSH2 0x221 JUMPI DUP1 PUSH4 0x5A446215 EQ PUSH2 0x21C JUMPI DUP1 PUSH4 0x5BBB2177 EQ PUSH2 0x217 JUMPI DUP1 PUSH4 0x6352211E EQ PUSH2 0x212 JUMPI DUP1 PUSH4 0x70A08231 EQ PUSH2 0x20D JUMPI DUP1 PUSH4 0x7E518EC8 EQ PUSH2 0x208 JUMPI DUP1 PUSH4 0x8462151C EQ PUSH2 0x203 JUMPI DUP1 PUSH4 0x9010D07C EQ PUSH2 0x1FE JUMPI DUP1 PUSH4 0x91D14854 EQ PUSH2 0x1F9 JUMPI DUP1 PUSH4 0x938E3D7B EQ PUSH2 0x1F4 JUMPI DUP1 PUSH4 0x95D89B41 EQ PUSH2 0x1EF JUMPI DUP1 PUSH4 0x98DD69C8 EQ PUSH2 0x1EA JUMPI DUP1 PUSH4 0x99A2557A EQ PUSH2 0x1E5 JUMPI DUP1 PUSH4 0xA217FDDF EQ PUSH2 0x1E0 JUMPI DUP1 PUSH4 0xA22CB465 EQ PUSH2 0x1DB JUMPI DUP1 PUSH4 0xB88D4FDE EQ PUSH2 0x1D6 JUMPI DUP1 PUSH4 0xC23DC68F EQ PUSH2 0x1D1 JUMPI DUP1 PUSH4 0xC87B56DD EQ PUSH2 0x1CC JUMPI DUP1 PUSH4 0xCA15C873 EQ PUSH2 0x1C7 JUMPI DUP1 PUSH4 0xD547741F EQ PUSH2 0x1C2 JUMPI DUP1 PUSH4 0xDC8E92EA EQ PUSH2 0x1BD JUMPI DUP1 PUSH4 0xE8A3D485 EQ PUSH2 0x1B8 JUMPI PUSH4 0xE985E9C5 EQ PUSH2 0x1B3 JUMPI PUSH1 0x0 DUP1 REVERT JUMPDEST PUSH2 0x1C80 JUMP JUMPDEST PUSH2 0x1BD9 JUMP JUMPDEST PUSH2 0x1B52 JUMP JUMPDEST PUSH2 0x1AFB JUMP JUMPDEST PUSH2 0x1ACF JUMP JUMPDEST PUSH2 0x1955 JUMP JUMPDEST PUSH2 0x18E3 JUMP JUMPDEST PUSH2 0x1888 JUMP JUMPDEST PUSH2 0x17B9 JUMP JUMPDEST PUSH2 0x179D JUMP JUMPDEST PUSH2 0x1765 JUMP JUMPDEST PUSH2 0x16C7 JUMP JUMPDEST PUSH2 0x1620 JUMP JUMPDEST PUSH2 0x1521 JUMP JUMPDEST PUSH2 0x14C1 JUMP JUMPDEST PUSH2 0x146E JUMP JUMPDEST PUSH2 0x139A JUMP JUMPDEST PUSH2 0x1260 JUMP JUMPDEST PUSH2 0x120A JUMP JUMPDEST PUSH2 0x11CE JUMP JUMPDEST PUSH2 0x1168 JUMP JUMPDEST PUSH2 0xF9E JUMP JUMPDEST PUSH2 0xD2C JUMP JUMPDEST PUSH2 0xD10 JUMP JUMPDEST PUSH2 0xCED JUMP JUMPDEST PUSH2 0xB9F JUMP JUMPDEST PUSH2 0xAD9 JUMP JUMPDEST PUSH2 0x996 JUMP JUMPDEST PUSH2 0x8C5 JUMP JUMPDEST PUSH2 0x896 JUMP JUMPDEST PUSH2 0x884 JUMP JUMPDEST PUSH2 0x81F JUMP JUMPDEST PUSH2 0x700 JUMP JUMPDEST PUSH2 0x686 JUMP JUMPDEST PUSH2 0x587 JUMP JUMPDEST PUSH2 0x4E7 JUMP JUMPDEST PUSH2 0x29B JUMP JUMPDEST PUSH32 0xFFFFFFFF00000000000000000000000000000000000000000000000000000000 DUP2 AND SUB PUSH2 0x296 JUMPI JUMP JUMPDEST PUSH1 0x0 DUP1 REVERT JUMPDEST CALLVALUE PUSH2 0x296 JUMPI PUSH1 0x20 PUSH1 0x3 NOT CALLDATASIZE ADD SLT PUSH2 0x296 JUMPI PUSH2 0x31D PUSH1 0x4 CALLDATALOAD PUSH2 0x2BB DUP2 PUSH2 0x26C JUMP JUMPDEST PUSH32 0xFFFFFFFF00000000000000000000000000000000000000000000000000000000 DUP2 AND DUP1 PUSH32 0x40C10F1900000000000000000000000000000000000000000000000000000000 EQ SWAP2 DUP3 ISZERO PUSH2 0x321 JUMPI JUMPDEST POP POP PUSH1 0x40 MLOAD SWAP1 ISZERO ISZERO DUP2 MSTORE SWAP1 DUP2 SWAP1 PUSH1 0x20 DUP3 ADD SWAP1 JUMP JUMPDEST SUB SWAP1 RETURN JUMPDEST PUSH32 0xC21B8F2800000000000000000000000000000000000000000000000000000000 DUP3 EQ SWAP3 POP SWAP1 DUP3 ISZERO PUSH2 0x41E JUMPI JUMPDEST DUP3 ISZERO PUSH2 0x38D JUMPI JUMPDEST POP DUP2 ISZERO PUSH2 0x37C JUMPI JUMPDEST DUP2 ISZERO PUSH2 0x36C JUMPI JUMPDEST POP CODESIZE DUP1 PUSH2 0x309 JUMP JUMPDEST PUSH2 0x376 SWAP2 POP PUSH2 0x3C7D JUMP JUMPDEST CODESIZE PUSH2 0x364 JUMP JUMPDEST SWAP1 POP PUSH2 0x387 DUP2 PUSH2 0x3C7D JUMP JUMPDEST SWAP1 PUSH2 0x35D JUMP JUMPDEST SWAP1 SWAP2 POP PUSH32 0x1FFC9A700000000000000000000000000000000000000000000000000000000 DUP2 EQ SWAP1 DUP2 ISZERO PUSH2 0x3F4 JUMPI JUMPDEST DUP2 ISZERO PUSH2 0x3CA JUMPI JUMPDEST POP SWAP1 CODESIZE PUSH2 0x355 JUMP JUMPDEST PUSH32 0x5B5E139F00000000000000000000000000000000000000000000000000000000 SWAP2 POP EQ CODESIZE PUSH2 0x3C2 JUMP JUMPDEST PUSH32 0x80AC58CD00000000000000000000000000000000000000000000000000000000 DUP2 EQ SWAP2 POP PUSH2 0x3BB JUMP JUMPDEST PUSH32 0x8446A79E00000000000000000000000000000000000000000000000000000000 DUP2 EQ SWAP3 POP PUSH2 0x34E JUMP JUMPDEST PUSH1 0x4 CALLDATALOAD SWAP1 PUSH20 0xFFFFFFFFFFFFFFFFFFFFFFFFFFFFFFFFFFFFFFFF DUP3 AND DUP3 SUB PUSH2 0x296 JUMPI JUMP JUMPDEST PUSH1 0x24 CALLDATALOAD SWAP1 PUSH20 0xFFFFFFFFFFFFFFFFFFFFFFFFFFFFFFFFFFFFFFFF DUP3 AND DUP3 SUB PUSH2 0x296 JUMPI JUMP JUMPDEST PUSH1 0xA4 CALLDATALOAD SWAP1 PUSH20 0xFFFFFFFFFFFFFFFFFFFFFFFFFFFFFFFFFFFFFFFF DUP3 AND DUP3 SUB PUSH2 0x296 JUMPI JUMP JUMPDEST PUSH1 0x44 CALLDATALOAD SWAP1 PUSH12 0xFFFFFFFFFFFFFFFFFFFFFFFF DUP3 AND DUP3 SUB PUSH2 0x296 JUMPI JUMP JUMPDEST PUSH1 0xC4 CALLDATALOAD SWAP1 PUSH12 0xFFFFFFFFFFFFFFFFFFFFFFFF DUP3 AND DUP3 SUB PUSH2 0x296 JUMPI JUMP JUMPDEST CALLVALUE PUSH2 0x296 JUMPI PUSH1 0x40 PUSH1 0x3 NOT CALLDATASIZE ADD SLT PUSH2 0x296 JUMPI PUSH2 0x500 PUSH2 0x448 JUMP JUMPDEST PUSH1 0x24 CALLDATALOAD PUSH12 0xFFFFFFFFFFFFFFFFFFFFFFFF DUP2 AND DUP2 SUB PUSH2 0x296 JUMPI PUSH2 0x529 SWAP2 PUSH2 0x524 PUSH2 0x1CF0 JUMP JUMPDEST PUSH2 0x3BA5 JUMP JUMPDEST STOP JUMPDEST PUSH1 0x0 JUMPDEST DUP4 DUP2 LT PUSH2 0x53E JUMPI POP POP PUSH1 0x0 SWAP2 ADD MSTORE JUMP JUMPDEST DUP2 DUP2 ADD MLOAD DUP4 DUP3 ADD MSTORE PUSH1 0x20 ADD PUSH2 0x52E JUMP JUMPDEST SWAP1 PUSH1 0x1F NOT PUSH1 0x1F PUSH1 0x20 SWAP4 PUSH2 0x56C DUP2 MLOAD DUP1 SWAP3 DUP2 DUP8 MSTORE DUP8 DUP1 DUP9 ADD SWAP2 ADD PUSH2 0x52B JUMP JUMPDEST ADD AND ADD ADD SWAP1 JUMP JUMPDEST SWAP1 PUSH1 0x20 PUSH2 0x584 SWAP3 DUP2 DUP2 MSTORE ADD SWAP1 PUSH2 0x54E JUMP JUMPDEST SWAP1 JUMP JUMPDEST CALLVALUE PUSH2 0x296 JUMPI PUSH1 0x0 DUP1 PUSH1 0x3 NOT CALLDATASIZE ADD SLT PUSH2 0x683 JUMPI PUSH1 0x40 MLOAD SWAP1 DUP1 PUSH1 0xD SLOAD PUSH2 0x5AA DUP2 PUSH2 0x3259 JUMP JUMPDEST DUP1 DUP6 MSTORE SWAP2 PUSH1 0x1 SWAP2 DUP1 DUP4 AND SWAP1 DUP2 ISZERO PUSH2 0x63B JUMPI POP PUSH1 0x1 EQ PUSH2 0x5E0 JUMPI JUMPDEST PUSH2 0x31D DUP6 PUSH2 0x5D4 DUP2 DUP8 SUB DUP3 PUSH2 0xEFE JUMP JUMPDEST PUSH1 0x40 MLOAD SWAP2 DUP3 SWAP2 DUP3 PUSH2 0x573 JUMP JUMPDEST SWAP3 POP PUSH1 0xD DUP4 MSTORE PUSH32 0xD7B6990105719101DABEB77144F2A3385C8033ACD3AF97E9423A695E81AD1EB5 JUMPDEST DUP3 DUP5 LT PUSH2 0x623 JUMPI POP POP POP DUP2 ADD PUSH1 0x20 ADD PUSH2 0x5D4 DUP3 PUSH2 0x31D PUSH2 0x5C4 JUMP JUMPDEST DUP1 SLOAD PUSH1 0x20 DUP6 DUP8 ADD DUP2 ADD SWAP2 SWAP1 SWAP2 MSTORE SWAP1 SWAP4 ADD SWAP3 DUP2 ADD PUSH2 0x608 JUMP JUMPDEST DUP7 SWAP6 POP PUSH2 0x31D SWAP7 SWAP4 POP PUSH1 0x20 SWAP3 POP PUSH2 0x5D4 SWAP5 SWAP2 POP PUSH32 0xFFFFFFFFFFFFFFFFFFFFFFFFFFFFFFFFFFFFFFFFFFFFFFFFFFFFFFFFFFFFFF00 AND DUP3 DUP5 ADD MSTORE ISZERO ISZERO PUSH1 0x5 SHL DUP3 ADD ADD SWAP3 SWAP4 PUSH2 0x5C4 JUMP JUMPDEST DUP1 REVERT JUMPDEST CALLVALUE PUSH2 0x296 JUMPI PUSH1 0x20 PUSH1 0x3 NOT CALLDATASIZE ADD SLT PUSH2 0x296 JUMPI PUSH1 0x4 CALLDATALOAD PUSH2 0x6A3 DUP2 PUSH2 0x2A31 JUMP JUMPDEST ISZERO PUSH2 0x6D6 JUMPI PUSH1 0x0 MSTORE PUSH1 0x6 PUSH1 0x20 MSTORE PUSH1 0x20 PUSH20 0xFFFFFFFFFFFFFFFFFFFFFFFFFFFFFFFFFFFFFFFF PUSH1 0x40 PUSH1 0x0 KECCAK256 SLOAD AND PUSH1 0x40 MLOAD SWAP1 DUP2 MSTORE RETURN JUMPDEST PUSH1 0x4 PUSH1 0x40 MLOAD PUSH32 0xCF4700E400000000000000000000000000000000000000000000000000000000 DUP2 MSTORE REVERT JUMPDEST PUSH1 0x40 PUSH1 0x3 NOT CALLDATASIZE ADD SLT PUSH2 0x296 JUMPI PUSH2 0x714 PUSH2 0x448 JUMP JUMPDEST PUSH1 0x24 CALLDATALOAD PUSH20 0xFFFFFFFFFFFFFFFFFFFFFFFFFFFFFFFFFFFFFFFF DUP1 PUSH2 0x736 DUP4 PUSH2 0x2992 JUMP JUMPDEST AND SWAP1 DUP2 CALLER SUB PUSH2 0x7B6 JUMPI JUMPDEST PUSH1 0x0 DUP4 DUP2 MSTORE PUSH1 0x6 PUSH1 0x20 MSTORE PUSH1 0x40 DUP2 KECCAK256 DUP1 SLOAD PUSH32 0xFFFFFFFFFFFFFFFFFFFFFFFF0000000000000000000000000000000000000000 AND PUSH20 0xFFFFFFFFFFFFFFFFFFFFFFFFFFFFFFFFFFFFFFFF DUP8 AND OR SWAP1 SSTORE SWAP4 AND SWAP1 PUSH32 0x8C5BE1E5EBEC7D5BD14F71427D1E84F3DD0314C0F7B2291E5B200AC8C7C3B925 DUP5 DUP1 LOG4 DUP1 RETURN JUMPDEST DUP2 PUSH1 0x0 MSTORE PUSH1 0x7 PUSH1 0x20 MSTORE PUSH1 0xFF PUSH2 0x7EF CALLER PUSH1 0x40 PUSH1 0x0 KECCAK256 SWAP1 PUSH20 0xFFFFFFFFFFFFFFFFFFFFFFFFFFFFFFFFFFFFFFFF AND PUSH1 0x0 MSTORE PUSH1 0x20 MSTORE PUSH1 0x40 PUSH1 0x0 KECCAK256 SWAP1 JUMP JUMPDEST SLOAD AND PUSH2 0x740 JUMPI PUSH1 0x4 PUSH1 0x40 MLOAD PUSH32 0xCFB3B94200000000000000000000000000000000000000000000000000000000 DUP2 MSTORE REVERT JUMPDEST CALLVALUE PUSH2 0x296 JUMPI PUSH1 0x0 PUSH1 0x3 NOT CALLDATASIZE ADD SLT PUSH2 0x296 JUMPI PUSH1 0x20 PUSH1 0x0 SLOAD PUSH1 0x1 SLOAD SWAP1 SUB PUSH1 0x40 MLOAD SWAP1 DUP2 MSTORE RETURN JUMPDEST PUSH1 0x3 NOT PUSH1 0x60 SWAP2 ADD SLT PUSH2 0x296 JUMPI PUSH20 0xFFFFFFFFFFFFFFFFFFFFFFFFFFFFFFFFFFFFFFFF SWAP1 PUSH1 0x4 CALLDATALOAD DUP3 DUP2 AND DUP2 SUB PUSH2 0x296 JUMPI SWAP2 PUSH1 0x24 CALLDATALOAD SWAP1 DUP2 AND DUP2 SUB PUSH2 0x296 JUMPI SWAP1 PUSH1 0x44 CALLDATALOAD SWAP1 JUMP JUMPDEST PUSH2 0x529 PUSH2 0x890 CALLDATASIZE PUSH2 0x842 JUMP JUMPDEST SWAP2 PUSH2 0x2A73 JUMP JUMPDEST CALLVALUE PUSH2 0x296 JUMPI PUSH1 0x20 PUSH1 0x3 NOT CALLDATASIZE ADD SLT PUSH2 0x296 JUMPI PUSH1 0x4 CALLDATALOAD PUSH1 0x0 MSTORE PUSH1 0xA PUSH1 0x20 MSTORE PUSH1 0x20 PUSH1 0x1 PUSH1 0x40 PUSH1 0x0 KECCAK256 ADD SLOAD PUSH1 0x40 MLOAD SWAP1 DUP2 MSTORE RETURN JUMPDEST CALLVALUE PUSH2 0x296 JUMPI PUSH1 0x40 PUSH1 0x3 NOT CALLDATASIZE ADD SLT PUSH2 0x296 JUMPI PUSH1 0x4 CALLDATALOAD PUSH1 0x0 MSTORE PUSH1 0x9 PUSH1 0x20 MSTORE PUSH1 0x40 PUSH1 0x0 KECCAK256 PUSH1 0x40 MLOAD SWAP1 PUSH2 0x8F3 DUP3 PUSH2 0xEC1 JUMP JUMPDEST SLOAD SWAP1 PUSH20 0xFFFFFFFFFFFFFFFFFFFFFFFFFFFFFFFFFFFFFFFF DUP3 AND SWAP2 DUP3 DUP3 MSTORE PUSH1 0xA0 SHR PUSH1 0x20 DUP3 ADD MSTORE SWAP1 ISZERO PUSH2 0x988 JUMPI JUMPDEST PUSH2 0x95F PUSH2 0x2710 PUSH2 0x943 PUSH12 0xFFFFFFFFFFFFFFFFFFFFFFFF PUSH1 0x20 DUP6 ADD MLOAD AND PUSH1 0x24 CALLDATALOAD PUSH2 0x23DD JUMP JUMPDEST DIV SWAP2 MLOAD PUSH20 0xFFFFFFFFFFFFFFFFFFFFFFFFFFFFFFFFFFFFFFFF AND SWAP1 JUMP JUMPDEST PUSH1 0x40 DUP1 MLOAD PUSH20 0xFFFFFFFFFFFFFFFFFFFFFFFFFFFFFFFFFFFFFFFF SWAP3 SWAP1 SWAP3 AND DUP3 MSTORE PUSH1 0x20 DUP3 ADD SWAP3 SWAP1 SWAP3 MSTORE RETURN JUMPDEST POP PUSH2 0x991 PUSH2 0x237B JUMP JUMPDEST PUSH2 0x91F JUMP JUMPDEST CALLVALUE PUSH2 0x296 JUMPI PUSH1 0x40 PUSH1 0x3 NOT CALLDATASIZE ADD SLT PUSH2 0x296 JUMPI PUSH1 0x4 CALLDATALOAD PUSH2 0xA3E PUSH2 0x9B5 PUSH2 0x46B JUMP JUMPDEST PUSH20 0xFFFFFFFFFFFFFFFFFFFFFFFFFFFFFFFFFFFFFFFF PUSH2 0xA36 PUSH1 0x0 SWAP5 DUP1 DUP7 MSTORE PUSH1 0xA PUSH1 0x20 MSTORE PUSH2 0x9E8 PUSH1 0x1 PUSH1 0x40 DUP9 KECCAK256 ADD SLOAD PUSH2 0x1E94 JUMP JUMPDEST DUP1 DUP7 MSTORE PUSH1 0xA PUSH1 0x20 MSTORE PUSH1 0xFF PUSH2 0xA1F DUP6 PUSH1 0x40 DUP10 KECCAK256 SWAP1 PUSH20 0xFFFFFFFFFFFFFFFFFFFFFFFFFFFFFFFFFFFFFFFF AND PUSH1 0x0 MSTORE PUSH1 0x20 MSTORE PUSH1 0x40 PUSH1 0x0 KECCAK256 SWAP1 JUMP JUMPDEST SLOAD AND ISZERO PUSH2 0xA42 JUMPI PUSH1 0x0 MSTORE PUSH1 0xB PUSH1 0x20 MSTORE PUSH1 0x40 PUSH1 0x0 KECCAK256 SWAP1 JUMP JUMPDEST SWAP2 AND SWAP1 PUSH2 0x27AD JUMP JUMPDEST POP DUP1 RETURN JUMPDEST DUP1 DUP7 MSTORE PUSH1 0xA PUSH1 0x20 MSTORE PUSH2 0xA77 DUP5 PUSH1 0x40 DUP9 KECCAK256 SWAP1 PUSH20 0xFFFFFFFFFFFFFFFFFFFFFFFFFFFFFFFFFFFFFFFF AND PUSH1 0x0 MSTORE PUSH1 0x20 MSTORE PUSH1 0x40 PUSH1 0x0 KECCAK256 SWAP1 JUMP JUMPDEST PUSH1 0x1 PUSH32 0xFFFFFFFFFFFFFFFFFFFFFFFFFFFFFFFFFFFFFFFFFFFFFFFFFFFFFFFFFFFFFF00 DUP3 SLOAD AND OR SWAP1 SSTORE CALLER DUP4 DUP6 AND DUP3 PUSH32 0x2F8788117E7EFF1D82E926EC794901D17C78024A50270940304540A733656F0D DUP10 DUP1 LOG4 PUSH1 0x0 MSTORE PUSH1 0xB PUSH1 0x20 MSTORE PUSH1 0x40 PUSH1 0x0 KECCAK256 SWAP1 JUMP JUMPDEST CALLVALUE PUSH2 0x296 JUMPI PUSH1 0x40 PUSH1 0x3 NOT CALLDATASIZE ADD SLT PUSH2 0x296 JUMPI PUSH2 0xAF2 PUSH2 0x46B JUMP JUMPDEST CALLER PUSH20 0xFFFFFFFFFFFFFFFFFFFFFFFFFFFFFFFFFFFFFFFF DUP3 AND SUB PUSH2 0xB1B JUMPI PUSH2 0x529 SWAP1 PUSH1 0x4 CALLDATALOAD PUSH2 0x2287 JUMP JUMPDEST PUSH1 0x84 PUSH1 0x40 MLOAD PUSH32 0x8C379A000000000000000000000000000000000000000000000000000000000 DUP2 MSTORE PUSH1 0x20 PUSH1 0x4 DUP3 ADD MSTORE PUSH1 0x2F PUSH1 0x24 DUP3 ADD MSTORE PUSH32 0x416363657373436F6E74726F6C3A2063616E206F6E6C792072656E6F756E6365 PUSH1 0x44 DUP3 ADD MSTORE PUSH32 0x20726F6C657320666F722073656C660000000000000000000000000000000000 PUSH1 0x64 DUP3 ADD MSTORE REVERT JUMPDEST CALLVALUE PUSH2 0x296 JUMPI PUSH1 0x40 PUSH1 0x3 NOT CALLDATASIZE ADD SLT PUSH2 0x296 JUMPI PUSH2 0xBB8 PUSH2 0x448 JUMP JUMPDEST PUSH1 0x24 CALLDATALOAD SWAP1 PUSH2 0xBC4 PUSH2 0x1DEA JUMP JUMPDEST PUSH1 0x0 SWAP2 DUP3 SLOAD SWAP2 DUP2 ISZERO PUSH2 0xCC3 JUMPI PUSH2 0xBFA DUP2 PUSH20 0xFFFFFFFFFFFFFFFFFFFFFFFFFFFFFFFFFFFFFFFF AND PUSH1 0x0 MSTORE PUSH1 0x5 PUSH1 0x20 MSTORE PUSH1 0x40 PUSH1 0x0 KECCAK256 SWAP1 JUMP JUMPDEST PUSH9 0x10000000000000001 DUP4 MUL DUP2 SLOAD ADD SWAP1 SSTORE PUSH20 0xFFFFFFFFFFFFFFFFFFFFFFFFFFFFFFFFFFFFFFFF PUSH1 0x1 SWAP2 AND SWAP2 DUP2 DUP2 EQ PUSH1 0xE1 SHL TIMESTAMP PUSH1 0xA0 SHL OR DUP4 OR PUSH2 0xC46 DUP6 PUSH1 0x0 MSTORE PUSH1 0x4 PUSH1 0x20 MSTORE PUSH1 0x40 PUSH1 0x0 KECCAK256 SWAP1 JUMP JUMPDEST SSTORE DUP4 ADD SWAP3 DUP2 PUSH32 0xDDF252AD1BE2C89B69C2B068FC378DAA952BA7F163C4A11628F55A4DF523B3EF SWAP2 DUP1 DUP6 DUP9 DUP6 DUP2 DUP1 LOG4 ADD JUMPDEST DUP5 DUP2 SUB PUSH2 0xCB4 JUMPI POP POP POP ISZERO PUSH2 0xC8A JUMPI DUP2 SSTORE DUP1 RETURN JUMPDEST PUSH1 0x4 PUSH1 0x40 MLOAD PUSH32 0x2E07630000000000000000000000000000000000000000000000000000000000 DUP2 MSTORE REVERT JUMPDEST DUP1 DUP4 SWAP2 DUP6 DUP9 DUP6 DUP2 DUP1 LOG4 ADD PUSH2 0xC76 JUMP JUMPDEST PUSH1 0x4 PUSH1 0x40 MLOAD PUSH32 0xB562E8DD00000000000000000000000000000000000000000000000000000000 DUP2 MSTORE REVERT JUMPDEST PUSH2 0x529 PUSH2 0xCF9 CALLDATASIZE PUSH2 0x842 JUMP JUMPDEST SWAP1 PUSH1 0x40 MLOAD SWAP3 PUSH2 0xD07 DUP5 PUSH2 0xEE2 JUMP JUMPDEST PUSH1 0x0 DUP5 MSTORE PUSH2 0x2CF4 JUMP JUMPDEST CALLVALUE PUSH2 0x296 JUMPI PUSH1 0x20 PUSH1 0x3 NOT CALLDATASIZE ADD SLT PUSH2 0x296 JUMPI PUSH2 0x529 PUSH1 0x4 CALLDATALOAD PUSH2 0x3721 JUMP JUMPDEST CALLVALUE PUSH2 0x296 JUMPI PUSH1 0x60 PUSH1 0x3 NOT CALLDATASIZE ADD SLT PUSH2 0x296 JUMPI PUSH2 0xD45 PUSH2 0x46B JUMP JUMPDEST PUSH2 0xD4D PUSH2 0x4B1 JUMP JUMPDEST SWAP1 PUSH2 0xD56 PUSH2 0x1CF0 JUMP JUMPDEST PUSH2 0xD72 PUSH2 0x2710 PUSH12 0xFFFFFFFFFFFFFFFFFFFFFFFF DUP5 AND GT ISZERO PUSH2 0x3B1A JUMP JUMPDEST PUSH20 0xFFFFFFFFFFFFFFFFFFFFFFFFFFFFFFFFFFFFFFFF DUP2 AND ISZERO PUSH2 0xE34 JUMPI PUSH2 0xDD1 PUSH2 0x529 SWAP3 PUSH2 0xDBC PUSH2 0xDA0 PUSH2 0xF21 JUMP JUMPDEST PUSH20 0xFFFFFFFFFFFFFFFFFFFFFFFFFFFFFFFFFFFFFFFF SWAP1 SWAP5 AND DUP5 MSTORE JUMP JUMPDEST PUSH12 0xFFFFFFFFFFFFFFFFFFFFFFFF AND PUSH1 0x20 DUP4 ADD MSTORE JUMP JUMPDEST PUSH2 0xDE7 PUSH1 0x4 CALLDATALOAD PUSH1 0x0 MSTORE PUSH1 0x9 PUSH1 0x20 MSTORE PUSH1 0x40 PUSH1 0x0 KECCAK256 SWAP1 JUMP JUMPDEST DUP2 MLOAD PUSH1 0x20 SWAP1 SWAP3 ADD MLOAD PUSH1 0xA0 SHL PUSH32 0xFFFFFFFFFFFFFFFFFFFFFFFF0000000000000000000000000000000000000000 AND PUSH20 0xFFFFFFFFFFFFFFFFFFFFFFFFFFFFFFFFFFFFFFFF SWAP1 SWAP3 AND SWAP2 SWAP1 SWAP2 OR SWAP1 SSTORE JUMP JUMPDEST PUSH1 0x64 PUSH1 0x40 MLOAD PUSH32 0x8C379A000000000000000000000000000000000000000000000000000000000 DUP2 MSTORE PUSH1 0x20 PUSH1 0x4 DUP3 ADD MSTORE PUSH1 0x1B PUSH1 0x24 DUP3 ADD MSTORE PUSH32 0x455243323938313A20496E76616C696420706172616D65746572730000000000 PUSH1 0x44 DUP3 ADD MSTORE REVERT JUMPDEST PUSH32 0x4E487B7100000000000000000000000000000000000000000000000000000000 PUSH1 0x0 MSTORE PUSH1 0x41 PUSH1 0x4 MSTORE PUSH1 0x24 PUSH1 0x0 REVERT JUMPDEST PUSH1 0x40 DUP2 ADD SWAP1 DUP2 LT PUSH8 0xFFFFFFFFFFFFFFFF DUP3 GT OR PUSH2 0xEDD JUMPI PUSH1 0x40 MSTORE JUMP JUMPDEST PUSH2 0xE92 JUMP JUMPDEST PUSH1 0x20 DUP2 ADD SWAP1 DUP2 LT PUSH8 0xFFFFFFFFFFFFFFFF DUP3 GT OR PUSH2 0xEDD JUMPI PUSH1 0x40 MSTORE JUMP JUMPDEST SWAP1 PUSH1 0x1F PUSH1 0x1F NOT SWAP2 ADD AND DUP2 ADD SWAP1 DUP2 LT PUSH8 0xFFFFFFFFFFFFFFFF DUP3 GT OR PUSH2 0xEDD JUMPI PUSH1 0x40 MSTORE JUMP JUMPDEST PUSH1 0x40 MLOAD SWAP1 PUSH2 0xF2E DUP3 PUSH2 0xEC1 JUMP JUMPDEST JUMP JUMPDEST PUSH8 0xFFFFFFFFFFFFFFFF DUP2 GT PUSH2 0xEDD JUMPI PUSH1 0x1F ADD PUSH1 0x1F NOT AND PUSH1 0x20 ADD SWAP1 JUMP JUMPDEST SWAP3 SWAP2 SWAP3 PUSH2 0xF58 DUP3 PUSH2 0xF30 JUMP JUMPDEST SWAP2 PUSH2 0xF66 PUSH1 0x40 MLOAD SWAP4 DUP5 PUSH2 0xEFE JUMP JUMPDEST DUP3 SWAP5 DUP2 DUP5 MSTORE DUP2 DUP4 ADD GT PUSH2 0x296 JUMPI DUP3 DUP2 PUSH1 0x20 SWAP4 DUP5 PUSH1 0x0 SWAP7 ADD CALLDATACOPY ADD ADD MSTORE JUMP JUMPDEST SWAP1 DUP1 PUSH1 0x1F DUP4 ADD SLT ISZERO PUSH2 0x296 JUMPI DUP2 PUSH1 0x20 PUSH2 0x584 SWAP4 CALLDATALOAD SWAP2 ADD PUSH2 0xF4C JUMP JUMPDEST CALLVALUE PUSH2 0x296 JUMPI PUSH1 0x40 PUSH1 0x3 NOT CALLDATASIZE ADD SLT PUSH2 0x296 JUMPI PUSH8 0xFFFFFFFFFFFFFFFF PUSH1 0x4 CALLDATALOAD DUP2 DUP2 GT PUSH2 0x296 JUMPI PUSH2 0xFD0 SWAP1 CALLDATASIZE SWAP1 PUSH1 0x4 ADD PUSH2 0xF83 JUMP JUMPDEST SWAP1 PUSH1 0x24 CALLDATALOAD DUP2 DUP2 GT PUSH2 0x296 JUMPI PUSH2 0xFE9 SWAP1 CALLDATASIZE SWAP1 PUSH1 0x4 ADD PUSH2 0xF83 JUMP JUMPDEST SWAP1 PUSH2 0xFF2 PUSH2 0x1E3F JUMP JUMPDEST DUP3 MLOAD SWAP1 DUP2 GT PUSH2 0xEDD JUMPI PUSH2 0x100F DUP2 PUSH2 0x100A PUSH1 0xD SLOAD PUSH2 0x3259 JUMP JUMPDEST PUSH2 0x32AC JUMP JUMPDEST PUSH1 0x20 DUP1 PUSH1 0x1F DUP4 GT PUSH1 0x1 EQ PUSH2 0x1050 JUMPI POP DUP2 SWAP1 PUSH2 0x529 SWAP5 PUSH1 0x0 SWAP3 PUSH2 0x1045 JUMPI JUMPDEST POP POP PUSH1 0x0 NOT DUP3 PUSH1 0x1 SHL SWAP3 PUSH1 0x3 SHL SHR NOT AND OR PUSH1 0xD SSTORE PUSH2 0x3470 JUMP JUMPDEST ADD MLOAD SWAP1 POP CODESIZE DUP1 PUSH2 0x102C JUMP JUMPDEST PUSH1 0xD PUSH1 0x0 MSTORE SWAP2 SWAP4 PUSH1 0x1F NOT DUP6 AND PUSH32 0xD7B6990105719101DABEB77144F2A3385C8033ACD3AF97E9423A695E81AD1EB5 SWAP4 PUSH1 0x0 SWAP1 JUMPDEST DUP3 DUP3 LT PUSH2 0x10C3 JUMPI POP POP SWAP2 PUSH1 0x1 SWAP4 SWAP2 DUP7 PUSH2 0x529 SWAP8 SWAP5 LT PUSH2 0x10AA JUMPI JUMPDEST POP POP POP DUP2 SHL ADD PUSH1 0xD SSTORE PUSH2 0x3470 JUMP JUMPDEST ADD MLOAD PUSH1 0x0 NOT PUSH1 0xF8 DUP5 PUSH1 0x3 SHL AND SHR NOT AND SWAP1 SSTORE CODESIZE DUP1 DUP1 PUSH2 0x109C JUMP JUMPDEST DUP1 PUSH1 0x1 DUP7 SWAP8 DUP3 SWAP5 SWAP8 DUP8 ADD MLOAD DUP2 SSTORE ADD SWAP7 ADD SWAP5 ADD SWAP1 PUSH2 0x1082 JUMP JUMPDEST PUSH1 0x20 SWAP1 DUP2 PUSH1 0x40 DUP2 DUP4 ADD SWAP3 DUP3 DUP2 MSTORE DUP6 MLOAD DUP1 SWAP5 MSTORE ADD SWAP4 ADD SWAP2 PUSH1 0x0 JUMPDEST DUP3 DUP2 LT PUSH2 0x1102 JUMPI POP POP POP POP SWAP1 JUMP JUMPDEST SWAP1 SWAP2 SWAP3 SWAP4 DUP3 PUSH1 0x80 DUP3 PUSH2 0x115C PUSH1 0x1 SWAP5 DUP10 MLOAD PUSH3 0xFFFFFF PUSH1 0x60 DUP1 SWAP3 PUSH20 0xFFFFFFFFFFFFFFFFFFFFFFFFFFFFFFFFFFFFFFFF DUP2 MLOAD AND DUP6 MSTORE PUSH8 0xFFFFFFFFFFFFFFFF PUSH1 0x20 DUP3 ADD MLOAD AND PUSH1 0x20 DUP7 ADD MSTORE PUSH1 0x40 DUP2 ADD MLOAD ISZERO ISZERO PUSH1 0x40 DUP7 ADD MSTORE ADD MLOAD AND SWAP2 ADD MSTORE JUMP JUMPDEST ADD SWAP6 ADD SWAP4 SWAP3 SWAP2 ADD PUSH2 0x10F4 JUMP JUMPDEST CALLVALUE PUSH2 0x296 JUMPI PUSH1 0x20 PUSH1 0x3 NOT CALLDATASIZE ADD SLT PUSH2 0x296 JUMPI PUSH8 0xFFFFFFFFFFFFFFFF PUSH1 0x4 CALLDATALOAD DUP2 DUP2 GT PUSH2 0x296 JUMPI CALLDATASIZE PUSH1 0x23 DUP3 ADD SLT ISZERO PUSH2 0x296 JUMPI DUP1 PUSH1 0x4 ADD CALLDATALOAD SWAP2 DUP3 GT PUSH2 0x296 JUMPI CALLDATASIZE PUSH1 0x24 DUP4 PUSH1 0x5 SHL DUP4 ADD ADD GT PUSH2 0x296 JUMPI PUSH2 0x31D SWAP2 PUSH1 0x24 PUSH2 0x11C2 SWAP3 ADD PUSH2 0x3033 JUMP JUMPDEST PUSH1 0x40 MLOAD SWAP2 DUP3 SWAP2 DUP3 PUSH2 0x10DB JUMP JUMPDEST CALLVALUE PUSH2 0x296 JUMPI PUSH1 0x20 PUSH1 0x3 NOT CALLDATASIZE ADD SLT PUSH2 0x296 JUMPI PUSH1 0x20 PUSH20 0xFFFFFFFFFFFFFFFFFFFFFFFFFFFFFFFFFFFFFFFF PUSH2 0x1201 PUSH1 0x4 CALLDATALOAD PUSH2 0x2992 JUMP JUMPDEST AND PUSH1 0x40 MLOAD SWAP1 DUP2 MSTORE RETURN JUMPDEST CALLVALUE PUSH2 0x296 JUMPI PUSH1 0x20 PUSH1 0x3 NOT CALLDATASIZE ADD SLT PUSH2 0x296 JUMPI PUSH1 0x20 PUSH2 0x122D PUSH2 0x1228 PUSH2 0x448 JUMP JUMPDEST PUSH2 0x2931 JUMP JUMPDEST PUSH1 0x40 MLOAD SWAP1 DUP2 MSTORE RETURN JUMPDEST PUSH1 0x20 PUSH1 0x3 NOT DUP3 ADD SLT PUSH2 0x296 JUMPI PUSH1 0x4 CALLDATALOAD SWAP1 PUSH8 0xFFFFFFFFFFFFFFFF DUP3 GT PUSH2 0x296 JUMPI PUSH2 0x584 SWAP2 PUSH1 0x4 ADD PUSH2 0xF83 JUMP JUMPDEST CALLVALUE PUSH2 0x296 JUMPI PUSH2 0x126E CALLDATASIZE PUSH2 0x1235 JUMP JUMPDEST PUSH2 0x1276 PUSH2 0x1E3F JUMP JUMPDEST DUP1 MLOAD PUSH8 0xFFFFFFFFFFFFFFFF DUP2 GT PUSH2 0xEDD JUMPI PUSH2 0x129B DUP2 PUSH2 0x1296 PUSH1 0xC SLOAD PUSH2 0x3259 JUMP JUMPDEST PUSH2 0x331D JUMP JUMPDEST PUSH1 0x20 DUP1 PUSH1 0x1F DUP4 GT PUSH1 0x1 EQ PUSH2 0x12D8 JUMPI POP DUP2 SWAP3 PUSH1 0x0 SWAP3 PUSH2 0x12CD JUMPI JUMPDEST POP POP PUSH1 0x0 NOT DUP3 PUSH1 0x1 SHL SWAP3 PUSH1 0x3 SHL SHR NOT AND OR PUSH1 0xC SSTORE PUSH1 0x0 DUP1 RETURN JUMPDEST ADD MLOAD SWAP1 POP CODESIZE DUP1 PUSH2 0x12B4 JUMP JUMPDEST SWAP1 PUSH1 0x1F NOT DUP4 AND SWAP4 PUSH2 0x130B PUSH1 0xC PUSH1 0x0 MSTORE PUSH32 0xDF6966C971051C3D54EC59162606531493A51404A002842F56009D7E5CF4A8C7 SWAP1 JUMP JUMPDEST SWAP3 PUSH1 0x0 SWAP1 JUMPDEST DUP7 DUP3 LT PUSH2 0x1347 JUMPI POP POP DUP4 PUSH1 0x1 SWAP6 LT PUSH2 0x132E JUMPI JUMPDEST POP POP POP DUP2 SHL ADD PUSH1 0xC SSTORE STOP JUMPDEST ADD MLOAD PUSH1 0x0 NOT PUSH1 0xF8 DUP5 PUSH1 0x3 SHL AND SHR NOT AND SWAP1 SSTORE CODESIZE DUP1 DUP1 PUSH2 0x1323 JUMP JUMPDEST DUP1 PUSH1 0x1 DUP6 SWAP7 DUP3 SWAP5 SWAP7 DUP7 ADD MLOAD DUP2 SSTORE ADD SWAP6 ADD SWAP4 ADD SWAP1 PUSH2 0x1310 JUMP JUMPDEST PUSH1 0x20 SWAP1 DUP2 PUSH1 0x40 DUP2 DUP4 ADD SWAP3 DUP3 DUP2 MSTORE DUP6 MLOAD DUP1 SWAP5 MSTORE ADD SWAP4 ADD SWAP2 PUSH1 0x0 JUMPDEST DUP3 DUP2 LT PUSH2 0x1386 JUMPI POP POP POP POP SWAP1 JUMP JUMPDEST DUP4 MLOAD DUP6 MSTORE SWAP4 DUP2 ADD SWAP4 SWAP3 DUP2 ADD SWAP3 PUSH1 0x1 ADD PUSH2 0x1378 JUMP JUMPDEST CALLVALUE PUSH2 0x296 JUMPI PUSH1 0x20 PUSH1 0x3 NOT CALLDATASIZE ADD SLT PUSH2 0x296 JUMPI PUSH2 0x13B3 PUSH2 0x448 JUMP JUMPDEST PUSH1 0x0 DUP1 PUSH2 0x13BF DUP4 PUSH2 0x2931 JUMP JUMPDEST SWAP2 PUSH2 0x13C9 DUP4 PUSH2 0x30C3 JUMP JUMPDEST SWAP4 PUSH2 0x13D2 PUSH2 0x2F19 JUMP JUMPDEST POP PUSH20 0xFFFFFFFFFFFFFFFFFFFFFFFFFFFFFFFFFFFFFFFF SWAP1 DUP2 AND SWAP2 DUP4 JUMPDEST DUP6 DUP6 SUB PUSH2 0x1403 JUMPI PUSH1 0x40 MLOAD DUP1 PUSH2 0x31D DUP10 DUP3 PUSH2 0x135F JUMP JUMPDEST PUSH2 0x140C DUP2 PUSH2 0x2F9D JUMP JUMPDEST PUSH1 0x40 DUP2 ADD MLOAD PUSH2 0x1465 JUMPI MLOAD PUSH20 0xFFFFFFFFFFFFFFFFFFFFFFFFFFFFFFFFFFFFFFFF AND DUP4 DUP2 AND PUSH2 0x145C JUMPI JUMPDEST POP PUSH1 0x1 SWAP1 DUP5 DUP5 DUP5 AND EQ PUSH2 0x1448 JUMPI JUMPDEST ADD PUSH2 0x13EE JUMP JUMPDEST DUP1 PUSH2 0x1456 DUP4 DUP9 ADD SWAP8 DUP11 PUSH2 0x301F JUMP JUMPDEST MSTORE PUSH2 0x1442 JUMP JUMPDEST SWAP2 POP PUSH1 0x1 PUSH2 0x1434 JUMP JUMPDEST POP PUSH1 0x1 SWAP1 PUSH2 0x1442 JUMP JUMPDEST CALLVALUE PUSH2 0x296 JUMPI PUSH1 0x40 PUSH1 0x3 NOT CALLDATASIZE ADD SLT PUSH2 0x296 JUMPI PUSH1 0x4 CALLDATALOAD PUSH1 0x0 MSTORE PUSH1 0xB PUSH1 0x20 MSTORE PUSH1 0x20 PUSH20 0xFFFFFFFFFFFFFFFFFFFFFFFFFFFFFFFFFFFFFFFF PUSH2 0x14B1 PUSH1 0x24 CALLDATALOAD PUSH1 0x40 PUSH1 0x0 KECCAK256 PUSH2 0x2777 JUMP JUMPDEST SWAP2 SWAP1 SLOAD PUSH1 0x40 MLOAD SWAP3 PUSH1 0x3 SHL SHR AND DUP2 MSTORE RETURN JUMPDEST CALLVALUE PUSH2 0x296 JUMPI PUSH1 0x40 PUSH1 0x3 NOT CALLDATASIZE ADD SLT PUSH2 0x296 JUMPI PUSH1 0x20 PUSH1 0xFF PUSH2 0x1515 PUSH2 0x14E1 PUSH2 0x46B JUMP JUMPDEST PUSH1 0x4 CALLDATALOAD PUSH1 0x0 MSTORE PUSH1 0xA DUP5 MSTORE PUSH1 0x40 PUSH1 0x0 KECCAK256 SWAP1 PUSH20 0xFFFFFFFFFFFFFFFFFFFFFFFFFFFFFFFFFFFFFFFF AND PUSH1 0x0 MSTORE PUSH1 0x20 MSTORE PUSH1 0x40 PUSH1 0x0 KECCAK256 SWAP1 JUMP JUMPDEST SLOAD AND PUSH1 0x40 MLOAD SWAP1 ISZERO ISZERO DUP2 MSTORE RETURN JUMPDEST CALLVALUE PUSH2 0x296 JUMPI PUSH2 0x152F CALLDATASIZE PUSH2 0x1235 JUMP JUMPDEST PUSH2 0x1537 PUSH2 0x1E3F JUMP JUMPDEST DUP1 MLOAD PUSH8 0xFFFFFFFFFFFFFFFF DUP2 GT PUSH2 0xEDD JUMPI PUSH2 0x155C DUP2 PUSH2 0x1557 PUSH1 0xF SLOAD PUSH2 0x3259 JUMP JUMPDEST PUSH2 0x338E JUMP JUMPDEST PUSH1 0x20 DUP1 PUSH1 0x1F DUP4 GT PUSH1 0x1 EQ PUSH2 0x1599 JUMPI POP DUP2 SWAP3 PUSH1 0x0 SWAP3 PUSH2 0x158E JUMPI JUMPDEST POP POP PUSH1 0x0 NOT DUP3 PUSH1 0x1 SHL SWAP3 PUSH1 0x3 SHL SHR NOT AND OR PUSH1 0xF SSTORE PUSH1 0x0 DUP1 RETURN JUMPDEST ADD MLOAD SWAP1 POP CODESIZE DUP1 PUSH2 0x1575 JUMP JUMPDEST SWAP1 PUSH1 0x1F NOT DUP4 AND SWAP4 PUSH2 0x15CC PUSH1 0xF PUSH1 0x0 MSTORE PUSH32 0x8D1108E10BCB7C27DDDFC02ED9D693A074039D026CF4EA4240B40F7D581AC802 SWAP1 JUMP JUMPDEST SWAP3 PUSH1 0x0 SWAP1 JUMPDEST DUP7 DUP3 LT PUSH2 0x1608 JUMPI POP POP DUP4 PUSH1 0x1 SWAP6 LT PUSH2 0x15EF JUMPI JUMPDEST POP POP POP DUP2 SHL ADD PUSH1 0xF SSTORE STOP JUMPDEST ADD MLOAD PUSH1 0x0 NOT PUSH1 0xF8 DUP5 PUSH1 0x3 SHL AND SHR NOT AND SWAP1 SSTORE CODESIZE DUP1 DUP1 PUSH2 0x15E4 JUMP JUMPDEST DUP1 PUSH1 0x1 DUP6 SWAP7 DUP3 SWAP5 SWAP7 DUP7 ADD MLOAD DUP2 SSTORE ADD SWAP6 ADD SWAP4 ADD SWAP1 PUSH2 0x15D1 JUMP JUMPDEST CALLVALUE PUSH2 0x296 JUMPI PUSH1 0x0 DUP1 PUSH1 0x3 NOT CALLDATASIZE ADD SLT PUSH2 0x683 JUMPI PUSH1 0x40 MLOAD SWAP1 DUP1 PUSH1 0xE SLOAD PUSH2 0x1643 DUP2 PUSH2 0x3259 JUMP JUMPDEST DUP1 DUP6 MSTORE SWAP2 PUSH1 0x1 SWAP2 DUP1 DUP4 AND SWAP1 DUP2 ISZERO PUSH2 0x63B JUMPI POP PUSH1 0x1 EQ PUSH2 0x166C JUMPI PUSH2 0x31D DUP6 PUSH2 0x5D4 DUP2 DUP8 SUB DUP3 PUSH2 0xEFE JUMP JUMPDEST SWAP3 POP PUSH1 0xE DUP4 MSTORE PUSH32 0xBB7B4A454DC3493923482F07822329ED19E8244EFF582CC204F8554C3620C3FD JUMPDEST DUP3 DUP5 LT PUSH2 0x16AF JUMPI POP POP POP DUP2 ADD PUSH1 0x20 ADD PUSH2 0x5D4 DUP3 PUSH2 0x31D PUSH2 0x5C4 JUMP JUMPDEST DUP1 SLOAD PUSH1 0x20 DUP6 DUP8 ADD DUP2 ADD SWAP2 SWAP1 SWAP2 MSTORE SWAP1 SWAP4 ADD SWAP3 DUP2 ADD PUSH2 0x1694 JUMP JUMPDEST CALLVALUE PUSH2 0x296 JUMPI PUSH1 0xE0 PUSH1 0x3 NOT CALLDATASIZE ADD SLT PUSH2 0x296 JUMPI PUSH2 0x16E0 PUSH2 0x448 JUMP JUMPDEST PUSH8 0xFFFFFFFFFFFFFFFF SWAP1 PUSH1 0x24 CALLDATALOAD DUP3 DUP2 GT PUSH2 0x296 JUMPI PUSH2 0x1702 SWAP1 CALLDATASIZE SWAP1 PUSH1 0x4 ADD PUSH2 0xF83 JUMP JUMPDEST PUSH1 0x44 CALLDATALOAD DUP4 DUP2 GT PUSH2 0x296 JUMPI PUSH2 0x171A SWAP1 CALLDATASIZE SWAP1 PUSH1 0x4 ADD PUSH2 0xF83 JUMP JUMPDEST PUSH1 0x64 CALLDATALOAD DUP5 DUP2 GT PUSH2 0x296 JUMPI PUSH2 0x1732 SWAP1 CALLDATASIZE SWAP1 PUSH1 0x4 ADD PUSH2 0xF83 JUMP JUMPDEST PUSH1 0x84 CALLDATALOAD SWAP5 DUP6 GT PUSH2 0x296 JUMPI PUSH2 0x174D PUSH2 0x529 SWAP6 CALLDATASIZE SWAP1 PUSH1 0x4 ADD PUSH2 0xF83 JUMP JUMPDEST SWAP2 PUSH2 0x1756 PUSH2 0x48E JUMP JUMPDEST SWAP4 PUSH2 0x175F PUSH2 0x4CC JUMP JUMPDEST SWAP6 PUSH2 0x3952 JUMP JUMPDEST CALLVALUE PUSH2 0x296 JUMPI PUSH1 0x60 PUSH1 0x3 NOT CALLDATASIZE ADD SLT PUSH2 0x296 JUMPI PUSH2 0x31D PUSH2 0x1791 PUSH2 0x1784 PUSH2 0x448 JUMP JUMPDEST PUSH1 0x44 CALLDATALOAD SWAP1 PUSH1 0x24 CALLDATALOAD SWAP1 PUSH2 0x30F4 JUMP JUMPDEST PUSH1 0x40 MLOAD SWAP2 DUP3 SWAP2 DUP3 PUSH2 0x135F JUMP JUMPDEST CALLVALUE PUSH2 0x296 JUMPI PUSH1 0x0 PUSH1 0x3 NOT CALLDATASIZE ADD SLT PUSH2 0x296 JUMPI PUSH1 0x20 PUSH1 0x40 MLOAD PUSH1 0x0 DUP2 MSTORE RETURN JUMPDEST CALLVALUE PUSH2 0x296 JUMPI PUSH1 0x40 PUSH1 0x3 NOT CALLDATASIZE ADD SLT PUSH2 0x296 JUMPI PUSH2 0x17D2 PUSH2 0x448 JUMP JUMPDEST PUSH1 0x24 CALLDATALOAD SWAP1 DUP2 ISZERO ISZERO DUP1 SWAP3 SUB PUSH2 0x296 JUMPI PUSH20 0xFFFFFFFFFFFFFFFFFFFFFFFFFFFFFFFFFFFFFFFF SWAP1 CALLER PUSH1 0x0 MSTORE PUSH1 0x7 PUSH1 0x20 MSTORE PUSH2 0x182D DUP2 PUSH1 0x40 PUSH1 0x0 KECCAK256 SWAP1 PUSH20 0xFFFFFFFFFFFFFFFFFFFFFFFFFFFFFFFFFFFFFFFF AND PUSH1 0x0 MSTORE PUSH1 0x20 MSTORE PUSH1 0x40 PUSH1 0x0 KECCAK256 SWAP1 JUMP JUMPDEST PUSH32 0xFFFFFFFFFFFFFFFFFFFFFFFFFFFFFFFFFFFFFFFFFFFFFFFFFFFFFFFFFFFFFF00 DUP2 SLOAD AND PUSH1 0xFF DUP6 AND OR SWAP1 SSTORE PUSH1 0x40 MLOAD SWAP3 DUP4 MSTORE AND SWAP1 PUSH32 0x17307EAB39AB6107E8899845AD3D59BD9653F200F220920489CA2B5937696C31 PUSH1 0x20 CALLER SWAP3 LOG3 STOP JUMPDEST PUSH1 0x80 PUSH1 0x3 NOT CALLDATASIZE ADD SLT PUSH2 0x296 JUMPI PUSH2 0x189C PUSH2 0x448 JUMP JUMPDEST PUSH2 0x18A4 PUSH2 0x46B JUMP JUMPDEST PUSH1 0x64 CALLDATALOAD SWAP2 PUSH8 0xFFFFFFFFFFFFFFFF DUP4 GT PUSH2 0x296 JUMPI CALLDATASIZE PUSH1 0x23 DUP5 ADD SLT ISZERO PUSH2 0x296 JUMPI PUSH2 0x18D9 PUSH2 0x529 SWAP4 CALLDATASIZE SWAP1 PUSH1 0x24 DUP2 PUSH1 0x4 ADD CALLDATALOAD SWAP2 ADD PUSH2 0xF4C JUMP JUMPDEST SWAP2 PUSH1 0x44 CALLDATALOAD SWAP2 PUSH2 0x2CF4 JUMP JUMPDEST CALLVALUE PUSH2 0x296 JUMPI PUSH1 0x20 PUSH1 0x3 NOT CALLDATASIZE ADD SLT PUSH2 0x296 JUMPI PUSH1 0x80 PUSH2 0x1901 PUSH1 0x4 CALLDATALOAD PUSH2 0x2F4F JUMP JUMPDEST PUSH2 0x1953 PUSH1 0x40 MLOAD DUP1 SWAP3 PUSH3 0xFFFFFF PUSH1 0x60 DUP1 SWAP3 PUSH20 0xFFFFFFFFFFFFFFFFFFFFFFFFFFFFFFFFFFFFFFFF DUP2 MLOAD AND DUP6 MSTORE PUSH8 0xFFFFFFFFFFFFFFFF PUSH1 0x20 DUP3 ADD MLOAD AND PUSH1 0x20 DUP7 ADD MSTORE PUSH1 0x40 DUP2 ADD MLOAD ISZERO ISZERO PUSH1 0x40 DUP7 ADD MSTORE ADD MLOAD AND SWAP2 ADD MSTORE JUMP JUMPDEST RETURN JUMPDEST CALLVALUE PUSH2 0x296 JUMPI PUSH1 0x20 DUP1 PUSH1 0x3 NOT CALLDATASIZE ADD SLT PUSH2 0x296 JUMPI PUSH1 0x4 CALLDATALOAD PUSH2 0x1973 DUP2 PUSH2 0x2A31 JUMP JUMPDEST ISZERO PUSH2 0x1AA5 JUMPI PUSH1 0x40 MLOAD SWAP1 DUP3 DUP3 PUSH1 0x0 PUSH1 0xC SLOAD PUSH2 0x198C DUP2 PUSH2 0x3259 JUMP JUMPDEST DUP1 DUP5 MSTORE SWAP1 PUSH1 0x1 SWAP1 DUP2 DUP2 AND SWAP1 DUP2 ISZERO PUSH2 0x1A65 JUMPI POP PUSH1 0x1 EQ PUSH2 0x1A06 JUMPI JUMPDEST POP POP PUSH2 0x19B4 SWAP3 POP SUB DUP4 PUSH2 0xEFE JUMP JUMPDEST DUP2 MLOAD ISZERO PUSH2 0x19F3 JUMPI PUSH2 0x31D SWAP3 PUSH2 0x19E5 PUSH2 0x19CE PUSH2 0x5D4 SWAP4 PUSH2 0x2ED0 JUMP JUMPDEST PUSH2 0x19DF PUSH1 0x40 MLOAD SWAP6 DUP7 SWAP5 DUP6 ADD SWAP1 PUSH2 0x1F76 JUMP JUMPDEST SWAP1 PUSH2 0x1F76 JUMP JUMPDEST SUB PUSH1 0x1F NOT DUP2 ADD DUP4 MSTORE DUP3 PUSH2 0xEFE JUMP JUMPDEST POP POP POP PUSH2 0x31D PUSH2 0x1A01 PUSH2 0x23F5 JUMP JUMPDEST PUSH2 0x5D4 JUMP JUMPDEST SWAP1 SWAP4 SWAP2 POP PUSH1 0xC PUSH1 0x0 MSTORE PUSH32 0xDF6966C971051C3D54EC59162606531493A51404A002842F56009D7E5CF4A8C7 SWAP4 PUSH1 0x0 SWAP2 JUMPDEST DUP2 DUP4 LT PUSH2 0x1A4D JUMPI POP DUP8 SWAP5 POP POP DUP3 ADD ADD PUSH2 0x19B4 CODESIZE PUSH2 0x19A6 JUMP JUMPDEST DUP6 SLOAD DUP9 DUP5 ADD DUP6 ADD MSTORE SWAP5 DUP6 ADD SWAP5 DUP8 SWAP5 POP SWAP2 DUP4 ADD SWAP2 PUSH2 0x1A35 JUMP JUMPDEST SWAP1 POP PUSH2 0x19B4 SWAP6 SWAP4 POP PUSH32 0xFFFFFFFFFFFFFFFFFFFFFFFFFFFFFFFFFFFFFFFFFFFFFFFFFFFFFFFFFFFFFF00 SWAP2 POP AND DUP3 DUP5 ADD MSTORE ISZERO ISZERO PUSH1 0x5 SHL DUP3 ADD ADD DUP6 SWAP3 CODESIZE PUSH2 0x19A6 JUMP JUMPDEST PUSH1 0x4 PUSH1 0x40 MLOAD PUSH32 0xA14C4B5000000000000000000000000000000000000000000000000000000000 DUP2 MSTORE REVERT JUMPDEST CALLVALUE PUSH2 0x296 JUMPI PUSH1 0x20 PUSH1 0x3 NOT CALLDATASIZE ADD SLT PUSH2 0x296 JUMPI PUSH1 0x4 CALLDATALOAD PUSH1 0x0 MSTORE PUSH1 0xB PUSH1 0x20 MSTORE PUSH1 0x20 PUSH1 0x40 PUSH1 0x0 KECCAK256 SLOAD PUSH1 0x40 MLOAD SWAP1 DUP2 MSTORE RETURN JUMPDEST CALLVALUE PUSH2 0x296 JUMPI PUSH1 0x40 PUSH1 0x3 NOT CALLDATASIZE ADD SLT PUSH2 0x296 JUMPI PUSH2 0x529 PUSH1 0x4 CALLDATALOAD PUSH2 0x1B1A PUSH2 0x46B JUMP JUMPDEST SWAP1 DUP1 PUSH1 0x0 MSTORE PUSH1 0xA PUSH1 0x20 MSTORE PUSH2 0x1B35 PUSH1 0x1 PUSH1 0x40 PUSH1 0x0 KECCAK256 ADD SLOAD PUSH2 0x1E94 JUMP JUMPDEST PUSH2 0x2287 JUMP JUMPDEST PUSH8 0xFFFFFFFFFFFFFFFF DUP2 GT PUSH2 0xEDD JUMPI PUSH1 0x5 SHL PUSH1 0x20 ADD SWAP1 JUMP JUMPDEST CALLVALUE PUSH2 0x296 JUMPI PUSH1 0x20 DUP1 PUSH1 0x3 NOT CALLDATASIZE ADD SLT PUSH2 0x296 JUMPI PUSH1 0x4 CALLDATALOAD PUSH8 0xFFFFFFFFFFFFFFFF DUP2 GT PUSH2 0x296 JUMPI CALLDATASIZE PUSH1 0x23 DUP3 ADD SLT ISZERO PUSH2 0x296 JUMPI DUP1 PUSH1 0x4 ADD CALLDATALOAD SWAP1 PUSH2 0x1B90 DUP3 PUSH2 0x1B3A JUMP JUMPDEST SWAP2 PUSH2 0x1B9E PUSH1 0x40 MLOAD SWAP4 DUP5 PUSH2 0xEFE JUMP JUMPDEST DUP1 DUP4 MSTORE PUSH1 0x24 DUP5 DUP5 ADD SWAP2 PUSH1 0x5 SHL DUP4 ADD ADD SWAP2 CALLDATASIZE DUP4 GT PUSH2 0x296 JUMPI PUSH1 0x24 ADD SWAP1 JUMPDEST DUP3 DUP3 LT PUSH2 0x1BCA JUMPI PUSH2 0x529 DUP5 PUSH2 0x391C JUMP JUMPDEST DUP2 CALLDATALOAD DUP2 MSTORE SWAP1 DUP5 ADD SWAP1 DUP5 ADD PUSH2 0x1BBA JUMP JUMPDEST CALLVALUE PUSH2 0x296 JUMPI PUSH1 0x0 DUP1 PUSH1 0x3 NOT CALLDATASIZE ADD SLT PUSH2 0x683 JUMPI PUSH1 0x40 MLOAD SWAP1 DUP1 PUSH1 0xF SLOAD PUSH2 0x1BFC DUP2 PUSH2 0x3259 JUMP JUMPDEST DUP1 DUP6 MSTORE SWAP2 PUSH1 0x1 SWAP2 DUP1 DUP4 AND SWAP1 DUP2 ISZERO PUSH2 0x63B JUMPI POP PUSH1 0x1 EQ PUSH2 0x1C25 JUMPI PUSH2 0x31D DUP6 PUSH2 0x5D4 DUP2 DUP8 SUB DUP3 PUSH2 0xEFE JUMP JUMPDEST SWAP3 POP PUSH1 0xF DUP4 MSTORE PUSH32 0x8D1108E10BCB7C27DDDFC02ED9D693A074039D026CF4EA4240B40F7D581AC802 JUMPDEST DUP3 DUP5 LT PUSH2 0x1C68 JUMPI POP POP POP DUP2 ADD PUSH1 0x20 ADD PUSH2 0x5D4 DUP3 PUSH2 0x31D PUSH2 0x5C4 JUMP JUMPDEST DUP1 SLOAD PUSH1 0x20 DUP6 DUP8 ADD DUP2 ADD SWAP2 SWAP1 SWAP2 MSTORE SWAP1 SWAP4 ADD SWAP3 DUP2 ADD PUSH2 0x1C4D JUMP JUMPDEST CALLVALUE PUSH2 0x296 JUMPI PUSH1 0x40 PUSH1 0x3 NOT CALLDATASIZE ADD SLT PUSH2 0x296 JUMPI PUSH1 0x20 PUSH1 0xFF PUSH2 0x1515 PUSH2 0x1CA0 PUSH2 0x448 JUMP JUMPDEST PUSH20 0xFFFFFFFFFFFFFFFFFFFFFFFFFFFFFFFFFFFFFFFF PUSH2 0x1CBD PUSH2 0x46B JUMP JUMPDEST SWAP2 AND PUSH1 0x0 MSTORE PUSH1 0x7 DUP5 MSTORE PUSH1 0x40 PUSH1 0x0 KECCAK256 SWAP1 PUSH20 0xFFFFFFFFFFFFFFFFFFFFFFFFFFFFFFFFFFFFFFFF AND PUSH1 0x0 MSTORE PUSH1 0x20 MSTORE PUSH1 0x40 PUSH1 0x0 KECCAK256 SWAP1 JUMP JUMPDEST CALLER PUSH1 0x0 SWAP1 DUP2 MSTORE PUSH32 0x4A209273C9C71EAC8BEE506E444418998F8F452896D49B4EDFA61F22F2A2BD27 PUSH1 0x20 MSTORE PUSH1 0x40 SWAP1 KECCAK256 SLOAD PUSH1 0xFF AND ISZERO PUSH2 0x1D29 JUMPI JUMP JUMPDEST PUSH2 0x1DE6 PUSH1 0x48 PUSH2 0x1DB4 PUSH2 0x1D3A CALLER PUSH2 0x2503 JUMP JUMPDEST PUSH2 0x19E5 PUSH2 0x1D45 PUSH2 0x25A0 JUMP JUMPDEST PUSH1 0x40 MLOAD SWAP5 DUP6 SWAP4 PUSH32 0x416363657373436F6E74726F6C3A206163636F756E7420000000000000000000 PUSH1 0x20 DUP7 ADD MSTORE PUSH2 0x1D85 DUP2 MLOAD DUP1 SWAP3 PUSH1 0x20 PUSH1 0x37 DUP10 ADD SWAP2 ADD PUSH2 0x52B JUMP JUMPDEST DUP5 ADD PUSH32 0x206973206D697373696E6720726F6C6520000000000000000000000000000000 PUSH1 0x37 DUP3 ADD MSTORE ADD SWAP1 PUSH2 0x1F76 JUMP JUMPDEST PUSH1 0x40 MLOAD SWAP2 DUP3 SWAP2 PUSH32 0x8C379A000000000000000000000000000000000000000000000000000000000 DUP4 MSTORE PUSH1 0x4 DUP4 ADD PUSH2 0x573 JUMP JUMPDEST SUB SWAP1 REVERT JUMPDEST CALLER PUSH1 0x0 SWAP1 DUP2 MSTORE PUSH32 0xAA1D7351356C4DDC11907B1EE0660F579CFDF507235AF2AE01ECD22A4B7CEAAE PUSH1 0x20 MSTORE PUSH1 0x40 SWAP1 KECCAK256 SLOAD PUSH1 0xFF AND ISZERO PUSH2 0x1E23 JUMPI JUMP JUMPDEST PUSH2 0x1DE6 PUSH1 0x48 PUSH2 0x1DB4 PUSH2 0x1E34 CALLER PUSH2 0x2503 JUMP JUMPDEST PUSH2 0x19E5 PUSH2 0x1D45 PUSH2 0x263D JUMP JUMPDEST CALLER PUSH1 0x0 SWAP1 DUP2 MSTORE PUSH32 0x2DE00ACBA1F3DD4B00004FA31871EAF6BD23564AF8ED1BBE52AC31593862E4A2 PUSH1 0x20 MSTORE PUSH1 0x40 SWAP1 KECCAK256 SLOAD PUSH1 0xFF AND ISZERO PUSH2 0x1E78 JUMPI JUMP JUMPDEST PUSH2 0x1DE6 PUSH1 0x48 PUSH2 0x1DB4 PUSH2 0x1E89 CALLER PUSH2 0x2503 JUMP JUMPDEST PUSH2 0x19E5 PUSH2 0x1D45 PUSH2 0x26DA JUMP JUMPDEST DUP1 PUSH1 0x0 MSTORE PUSH1 0xA PUSH1 0x20 MSTORE PUSH1 0xFF PUSH2 0x1ECD CALLER PUSH1 0x40 PUSH1 0x0 KECCAK256 SWAP1 PUSH20 0xFFFFFFFFFFFFFFFFFFFFFFFFFFFFFFFFFFFFFFFF AND PUSH1 0x0 MSTORE PUSH1 0x20 MSTORE PUSH1 0x40 PUSH1 0x0 KECCAK256 SWAP1 JUMP JUMPDEST SLOAD AND ISZERO PUSH2 0x1ED7 JUMPI POP JUMP JUMPDEST PUSH2 0x1EE0 CALLER PUSH2 0x2503 JUMP JUMPDEST PUSH2 0x1EE8 PUSH2 0x2408 JUMP JUMPDEST SWAP2 PUSH1 0x30 PUSH2 0x1EF4 DUP5 PUSH2 0x2463 JUMP JUMPDEST MSTORE8 PUSH1 0x78 PUSH2 0x1F00 DUP5 PUSH2 0x2470 JUMP JUMPDEST MSTORE8 PUSH1 0x41 JUMPDEST PUSH1 0x1 DUP2 GT PUSH2 0x1F23 JUMPI PUSH2 0x1DE6 PUSH1 0x48 PUSH2 0x1DB4 DUP6 PUSH2 0x19E5 DUP9 PUSH2 0x1D45 DUP9 ISZERO PUSH2 0x249E JUMP JUMPDEST SWAP1 PUSH1 0xF DUP2 AND SWAP1 PUSH1 0x10 DUP3 LT ISZERO PUSH2 0x1F71 JUMPI PUSH32 0x3031323334353637383961626364656600000000000000000000000000000000 PUSH2 0x1F6C SWAP3 BYTE PUSH2 0x1F62 DUP5 DUP8 PUSH2 0x2480 JUMP JUMPDEST MSTORE8 PUSH1 0x4 SHR SWAP2 PUSH2 0x2491 JUMP JUMPDEST PUSH2 0x1F04 JUMP JUMPDEST PUSH2 0x2434 JUMP JUMPDEST SWAP1 PUSH2 0x1F89 PUSH1 0x20 SWAP3 DUP3 DUP2 MLOAD SWAP5 DUP6 SWAP3 ADD PUSH2 0x52B JUMP JUMPDEST ADD SWAP1 JUMP JUMPDEST PUSH20 0xFFFFFFFFFFFFFFFFFFFFFFFFFFFFFFFFFFFFFFFF DUP2 DUP2 AND PUSH1 0x0 SWAP1 DUP2 MSTORE PUSH32 0x13DA86008BA1C6922DAEE3E07DB95305EF49EBCED9F5467A0B8613FCC6B343E3 PUSH1 0x20 MSTORE PUSH1 0x40 DUP1 DUP3 KECCAK256 SLOAD PUSH2 0x1FF5 SWAP5 SWAP4 SWAP3 SWAP1 PUSH1 0xFF AND ISZERO PUSH2 0x1FF8 JUMPI JUMPDEST DUP1 DUP1 MSTORE PUSH1 0xB PUSH1 0x20 MSTORE KECCAK256 SWAP2 AND SWAP1 PUSH2 0x27AD JUMP JUMPDEST POP JUMP JUMPDEST DUP1 DUP1 MSTORE PUSH1 0xA PUSH1 0x20 MSTORE PUSH2 0x202C DUP5 DUP4 DUP4 KECCAK256 SWAP1 PUSH20 0xFFFFFFFFFFFFFFFFFFFFFFFFFFFFFFFFFFFFFFFF AND PUSH1 0x0 MSTORE PUSH1 0x20 MSTORE PUSH1 0x40 PUSH1 0x0 KECCAK256 SWAP1 JUMP JUMPDEST PUSH1 0x1 PUSH32 0xFFFFFFFFFFFFFFFFFFFFFFFFFFFFFFFFFFFFFFFFFFFFFFFFFFFFFFFFFFFFFF00 DUP3 SLOAD AND OR SWAP1 SSTORE CALLER DUP4 DUP6 AND DUP3 PUSH32 0x2F8788117E7EFF1D82E926EC794901D17C78024A50270940304540A733656F0D DUP2 DUP1 LOG4 PUSH2 0x1FE4 JUMP JUMPDEST PUSH20 0xFFFFFFFFFFFFFFFFFFFFFFFFFFFFFFFFFFFFFFFF DUP1 DUP3 AND PUSH1 0x0 SWAP1 DUP2 MSTORE PUSH32 0x2DE00ACBA1F3DD4B00004FA31871EAF6BD23564AF8ED1BBE52AC31593862E4A2 PUSH1 0x20 MSTORE PUSH1 0x40 DUP1 DUP3 KECCAK256 PUSH2 0x1FF5 SWAP5 SWAP4 SWAP3 SWAP1 PUSH32 0xE02A0315B383857AC496E9D2B2546A699AFAEB4E5E83A1FDEF64376D0B74E5A5 SWAP1 PUSH1 0xFF SWAP1 JUMPDEST SLOAD AND ISZERO PUSH2 0x210E JUMPI JUMPDEST DUP2 MSTORE PUSH1 0xB PUSH1 0x20 MSTORE KECCAK256 SWAP2 AND SWAP1 PUSH2 0x27AD JUMP JUMPDEST DUP1 DUP3 MSTORE PUSH1 0xA PUSH1 0x20 MSTORE PUSH2 0x2142 DUP6 DUP5 DUP5 KECCAK256 SWAP1 PUSH20 0xFFFFFFFFFFFFFFFFFFFFFFFFFFFFFFFFFFFFFFFF AND PUSH1 0x0 MSTORE PUSH1 0x20 MSTORE PUSH1 0x40 PUSH1 0x0 KECCAK256 SWAP1 JUMP JUMPDEST PUSH1 0x1 PUSH32 0xFFFFFFFFFFFFFFFFFFFFFFFFFFFFFFFFFFFFFFFFFFFFFFFFFFFFFFFFFFFFFF00 DUP3 SLOAD AND OR SWAP1 SSTORE CALLER DUP5 DUP7 AND DUP3 PUSH32 0x2F8788117E7EFF1D82E926EC794901D17C78024A50270940304540A733656F0D DUP6 DUP1 LOG4 PUSH2 0x20FE JUMP JUMPDEST PUSH20 0xFFFFFFFFFFFFFFFFFFFFFFFFFFFFFFFFFFFFFFFF DUP1 DUP3 AND PUSH1 0x0 SWAP1 DUP2 MSTORE PUSH32 0x4A209273C9C71EAC8BEE506E444418998F8F452896D49B4EDFA61F22F2A2BD27 PUSH1 0x20 MSTORE PUSH1 0x40 DUP1 DUP3 KECCAK256 PUSH2 0x1FF5 SWAP5 SWAP4 SWAP3 SWAP1 PUSH32 0x6DB4061A20CA83A3BE756EE172BD37A029093AC5AFE4CE968C6D5435B43CB011 SWAP1 PUSH1 0xFF SWAP1 PUSH2 0x20F6 JUMP JUMPDEST PUSH20 0xFFFFFFFFFFFFFFFFFFFFFFFFFFFFFFFFFFFFFFFF DUP1 DUP3 AND PUSH1 0x0 SWAP1 DUP2 MSTORE PUSH32 0xAA1D7351356C4DDC11907B1EE0660F579CFDF507235AF2AE01ECD22A4B7CEAAE PUSH1 0x20 MSTORE PUSH1 0x40 DUP1 DUP3 KECCAK256 PUSH2 0x1FF5 SWAP5 SWAP4 SWAP3 SWAP1 PUSH32 0x9F2DF0FED2C77648DE5860A4CC508CD0818C85B8B8A1AB4CEEEF8D981C8956A6 SWAP1 PUSH1 0xFF SWAP1 PUSH2 0x20F6 JUMP JUMPDEST SWAP1 PUSH20 0xFFFFFFFFFFFFFFFFFFFFFFFFFFFFFFFFFFFFFFFF PUSH1 0x40 PUSH2 0x1FF5 SWAP4 PUSH1 0x0 SWAP1 DUP1 DUP3 MSTORE PUSH1 0xA PUSH1 0x20 MSTORE PUSH1 0xFF PUSH2 0x22DC DUP7 DUP6 DUP6 KECCAK256 SWAP1 PUSH20 0xFFFFFFFFFFFFFFFFFFFFFFFFFFFFFFFFFFFFFFFF AND PUSH1 0x0 MSTORE PUSH1 0x20 MSTORE PUSH1 0x40 PUSH1 0x0 KECCAK256 SWAP1 JUMP JUMPDEST SLOAD AND PUSH2 0x22F3 JUMPI JUMPDEST DUP2 MSTORE PUSH1 0xB PUSH1 0x20 MSTORE KECCAK256 SWAP2 AND SWAP1 PUSH2 0x287C JUMP JUMPDEST DUP1 DUP3 MSTORE PUSH1 0xA PUSH1 0x20 MSTORE PUSH2 0x2327 DUP6 DUP5 DUP5 KECCAK256 SWAP1 PUSH20 0xFFFFFFFFFFFFFFFFFFFFFFFFFFFFFFFFFFFFFFFF AND PUSH1 0x0 MSTORE PUSH1 0x20 MSTORE PUSH1 0x40 PUSH1 0x0 KECCAK256 SWAP1 JUMP JUMPDEST PUSH32 0xFFFFFFFFFFFFFFFFFFFFFFFFFFFFFFFFFFFFFFFFFFFFFFFFFFFFFFFFFFFFFF00 DUP2 SLOAD AND SWAP1 SSTORE CALLER DUP5 DUP7 AND DUP3 PUSH32 0xF6391F5C32D9C69D2A47EA670B442974B53935D1EDC7FD64EB21E047A839171B DUP6 DUP1 LOG4 PUSH2 0x22E3 JUMP JUMPDEST PUSH1 0x40 MLOAD SWAP1 PUSH2 0x2388 DUP3 PUSH2 0xEC1 JUMP JUMPDEST PUSH1 0x8 SLOAD PUSH20 0xFFFFFFFFFFFFFFFFFFFFFFFFFFFFFFFFFFFFFFFF DUP2 AND DUP4 MSTORE PUSH1 0xA0 SHR PUSH1 0x20 DUP4 ADD MSTORE JUMP JUMPDEST PUSH32 0x4E487B7100000000000000000000000000000000000000000000000000000000 PUSH1 0x0 MSTORE PUSH1 0x11 PUSH1 0x4 MSTORE PUSH1 0x24 PUSH1 0x0 REVERT JUMPDEST DUP2 DUP2 MUL SWAP3 SWAP2 DUP2 ISZERO SWAP2 DUP5 DIV EQ OR ISZERO PUSH2 0x23F0 JUMPI JUMP JUMPDEST PUSH2 0x23AE JUMP JUMPDEST PUSH1 0x40 MLOAD SWAP1 PUSH2 0x2402 DUP3 PUSH2 0xEE2 JUMP JUMPDEST PUSH1 0x0 DUP3 MSTORE JUMP JUMPDEST PUSH1 0x40 MLOAD SWAP1 PUSH1 0x80 DUP3 ADD DUP3 DUP2 LT PUSH8 0xFFFFFFFFFFFFFFFF DUP3 GT OR PUSH2 0xEDD JUMPI PUSH1 0x40 MSTORE PUSH1 0x42 DUP3 MSTORE PUSH1 0x60 CALLDATASIZE PUSH1 0x20 DUP5 ADD CALLDATACOPY JUMP JUMPDEST PUSH32 0x4E487B7100000000000000000000000000000000000000000000000000000000 PUSH1 0x0 MSTORE PUSH1 0x32 PUSH1 0x4 MSTORE PUSH1 0x24 PUSH1 0x0 REVERT JUMPDEST DUP1 MLOAD ISZERO PUSH2 0x1F71 JUMPI PUSH1 0x20 ADD SWAP1 JUMP JUMPDEST DUP1 MLOAD PUSH1 0x1 LT ISZERO PUSH2 0x1F71 JUMPI PUSH1 0x21 ADD SWAP1 JUMP JUMPDEST SWAP1 DUP2 MLOAD DUP2 LT ISZERO PUSH2 0x1F71 JUMPI ADD PUSH1 0x20 ADD SWAP1 JUMP JUMPDEST DUP1 ISZERO PUSH2 0x23F0 JUMPI PUSH1 0x0 NOT ADD SWAP1 JUMP JUMPDEST ISZERO PUSH2 0x24A5 JUMPI JUMP JUMPDEST PUSH1 0x64 PUSH1 0x40 MLOAD PUSH32 0x8C379A000000000000000000000000000000000000000000000000000000000 DUP2 MSTORE PUSH1 0x20 PUSH1 0x4 DUP3 ADD MSTORE PUSH1 0x20 PUSH1 0x24 DUP3 ADD MSTORE PUSH32 0x537472696E67733A20686578206C656E67746820696E73756666696369656E74 PUSH1 0x44 DUP3 ADD MSTORE REVERT JUMPDEST PUSH1 0x40 MLOAD SWAP1 PUSH1 0x60 DUP3 ADD DUP3 DUP2 LT PUSH8 0xFFFFFFFFFFFFFFFF DUP3 GT OR PUSH2 0xEDD JUMPI PUSH1 0x40 MSTORE PUSH1 0x2A DUP3 MSTORE PUSH1 0x40 CALLDATASIZE PUSH1 0x20 DUP5 ADD CALLDATACOPY PUSH1 0x30 PUSH2 0x2538 DUP4 PUSH2 0x2463 JUMP JUMPDEST MSTORE8 PUSH1 0x78 PUSH2 0x2544 DUP4 PUSH2 0x2470 JUMP JUMPDEST MSTORE8 PUSH1 0x29 SWAP1 JUMPDEST PUSH1 0x1 DUP3 GT PUSH2 0x255C JUMPI PUSH2 0x584 SWAP2 POP ISZERO PUSH2 0x249E JUMP JUMPDEST PUSH1 0xF DUP2 AND SWAP1 PUSH1 0x10 DUP3 LT ISZERO PUSH2 0x1F71 JUMPI PUSH32 0x3031323334353637383961626364656600000000000000000000000000000000 PUSH2 0x259A SWAP3 BYTE PUSH2 0x1F62 DUP5 DUP7 PUSH2 0x2480 JUMP JUMPDEST SWAP1 PUSH2 0x2549 JUMP JUMPDEST PUSH32 0x6DB4061A20CA83A3BE756EE172BD37A029093AC5AFE4CE968C6D5435B43CB011 PUSH2 0x25C9 PUSH2 0x2408 JUMP JUMPDEST SWAP1 PUSH1 0x30 PUSH2 0x25D5 DUP4 PUSH2 0x2463 JUMP JUMPDEST MSTORE8 PUSH1 0x78 PUSH2 0x25E1 DUP4 PUSH2 0x2470 JUMP JUMPDEST MSTORE8 PUSH1 0x41 SWAP1 JUMPDEST PUSH1 0x1 DUP3 GT PUSH2 0x25F9 JUMPI PUSH2 0x584 SWAP2 POP ISZERO PUSH2 0x249E JUMP JUMPDEST PUSH1 0xF DUP2 AND SWAP1 PUSH1 0x10 DUP3 LT ISZERO PUSH2 0x1F71 JUMPI PUSH32 0x3031323334353637383961626364656600000000000000000000000000000000 PUSH2 0x2637 SWAP3 BYTE PUSH2 0x1F62 DUP5 DUP7 PUSH2 0x2480 JUMP JUMPDEST SWAP1 PUSH2 0x25E6 JUMP JUMPDEST PUSH32 0x9F2DF0FED2C77648DE5860A4CC508CD0818C85B8B8A1AB4CEEEF8D981C8956A6 PUSH2 0x2666 PUSH2 0x2408 JUMP JUMPDEST SWAP1 PUSH1 0x30 PUSH2 0x2672 DUP4 PUSH2 0x2463 JUMP JUMPDEST MSTORE8 PUSH1 0x78 PUSH2 0x267E DUP4 PUSH2 0x2470 JUMP JUMPDEST MSTORE8 PUSH1 0x41 SWAP1 JUMPDEST PUSH1 0x1 DUP3 GT PUSH2 0x2696 JUMPI PUSH2 0x584 SWAP2 POP ISZERO PUSH2 0x249E JUMP JUMPDEST PUSH1 0xF DUP2 AND SWAP1 PUSH1 0x10 DUP3 LT ISZERO PUSH2 0x1F71 JUMPI PUSH32 0x3031323334353637383961626364656600000000000000000000000000000000 PUSH2 0x26D4 SWAP3 BYTE PUSH2 0x1F62 DUP5 DUP7 PUSH2 0x2480 JUMP JUMPDEST SWAP1 PUSH2 0x2683 JUMP JUMPDEST PUSH32 0xE02A0315B383857AC496E9D2B2546A699AFAEB4E5E83A1FDEF64376D0B74E5A5 PUSH2 0x2703 PUSH2 0x2408 JUMP JUMPDEST SWAP1 PUSH1 0x30 PUSH2 0x270F DUP4 PUSH2 0x2463 JUMP JUMPDEST MSTORE8 PUSH1 0x78 PUSH2 0x271B DUP4 PUSH2 0x2470 JUMP JUMPDEST MSTORE8 PUSH1 0x41 SWAP1 JUMPDEST PUSH1 0x1 DUP3 GT PUSH2 0x2733 JUMPI PUSH2 0x584 SWAP2 POP ISZERO PUSH2 0x249E JUMP JUMPDEST PUSH1 0xF DUP2 AND SWAP1 PUSH1 0x10 DUP3 LT ISZERO PUSH2 0x1F71 JUMPI PUSH32 0x3031323334353637383961626364656600000000000000000000000000000000 PUSH2 0x2771 SWAP3 BYTE PUSH2 0x1F62 DUP5 DUP7 PUSH2 0x2480 JUMP JUMPDEST SWAP1 PUSH2 0x2720 JUMP JUMPDEST DUP1 SLOAD DUP3 LT ISZERO PUSH2 0x1F71 JUMPI PUSH1 0x0 MSTORE PUSH1 0x20 PUSH1 0x0 KECCAK256 ADD SWAP1 PUSH1 0x0 SWAP1 JUMP JUMPDEST SWAP2 PUSH2 0x27A9 SWAP2 DUP4 SLOAD SWAP1 PUSH1 0x0 NOT SWAP1 PUSH1 0x3 SHL SWAP3 DUP4 SHL SWAP3 SHL NOT AND OR SWAP1 JUMP JUMPDEST SWAP1 SSTORE JUMP JUMPDEST PUSH1 0x1 DUP2 ADD SWAP1 DUP3 PUSH1 0x0 MSTORE DUP2 PUSH1 0x20 MSTORE PUSH1 0x40 PUSH1 0x0 KECCAK256 SLOAD ISZERO PUSH1 0x0 EQ PUSH2 0x281B JUMPI DUP1 SLOAD PUSH9 0x10000000000000000 DUP2 LT ISZERO PUSH2 0xEDD JUMPI PUSH2 0x2806 PUSH2 0x27EF DUP3 PUSH1 0x1 DUP8 SWAP5 ADD DUP6 SSTORE DUP5 PUSH2 0x2777 JUMP JUMPDEST DUP2 SWAP4 SWAP2 SLOAD SWAP1 PUSH1 0x0 NOT SWAP1 PUSH1 0x3 SHL SWAP3 DUP4 SHL SWAP3 SHL NOT AND OR SWAP1 JUMP JUMPDEST SWAP1 SSTORE SLOAD SWAP2 PUSH1 0x0 MSTORE PUSH1 0x20 MSTORE PUSH1 0x40 PUSH1 0x0 KECCAK256 SSTORE PUSH1 0x1 SWAP1 JUMP JUMPDEST POP POP POP PUSH1 0x0 SWAP1 JUMP JUMPDEST DUP1 SLOAD SWAP1 DUP2 ISZERO PUSH2 0x284D JUMPI PUSH1 0x0 NOT DUP1 SWAP3 ADD SWAP2 PUSH2 0x283D DUP4 DUP4 PUSH2 0x2777 JUMP JUMPDEST SWAP1 SWAP2 DUP3 SLOAD SWAP2 PUSH1 0x3 SHL SHL NOT AND SWAP1 SSTORE SSTORE JUMP JUMPDEST PUSH32 0x4E487B7100000000000000000000000000000000000000000000000000000000 PUSH1 0x0 MSTORE PUSH1 0x31 PUSH1 0x4 MSTORE PUSH1 0x24 PUSH1 0x0 REVERT JUMPDEST PUSH1 0x1 DUP2 ADD SWAP2 DUP1 PUSH1 0x0 MSTORE DUP3 PUSH1 0x20 MSTORE PUSH1 0x40 PUSH1 0x0 KECCAK256 SLOAD SWAP3 DUP4 ISZERO ISZERO PUSH1 0x0 EQ PUSH2 0x2928 JUMPI PUSH1 0x0 NOT SWAP3 DUP4 DUP6 ADD SWAP1 DUP6 DUP3 GT PUSH2 0x23F0 JUMPI DUP1 SLOAD SWAP5 DUP6 ADD SWAP5 DUP6 GT PUSH2 0x23F0 JUMPI PUSH1 0x0 SWAP6 DUP6 DUP4 PUSH2 0x28D0 SWAP5 PUSH2 0x28DF SWAP9 SUB PUSH2 0x28E5 JUMPI JUMPDEST POP POP POP PUSH2 0x2823 JUMP JUMPDEST SWAP1 PUSH1 0x0 MSTORE PUSH1 0x20 MSTORE PUSH1 0x40 PUSH1 0x0 KECCAK256 SWAP1 JUMP JUMPDEST SSTORE PUSH1 0x1 SWAP1 JUMP JUMPDEST PUSH2 0x290F PUSH2 0x2909 SWAP2 PUSH2 0x28F9 PUSH2 0x291F SWAP5 DUP8 PUSH2 0x2777 JUMP JUMPDEST SWAP1 SLOAD SWAP1 PUSH1 0x3 SHL SHR SWAP3 DUP4 SWAP2 DUP8 PUSH2 0x2777 JUMP JUMPDEST SWAP1 PUSH2 0x278F JUMP JUMPDEST DUP6 SWAP1 PUSH1 0x0 MSTORE PUSH1 0x20 MSTORE PUSH1 0x40 PUSH1 0x0 KECCAK256 SWAP1 JUMP JUMPDEST SSTORE CODESIZE DUP1 DUP1 PUSH2 0x28C8 JUMP JUMPDEST POP POP POP POP PUSH1 0x0 SWAP1 JUMP JUMPDEST PUSH20 0xFFFFFFFFFFFFFFFFFFFFFFFFFFFFFFFFFFFFFFFF AND DUP1 ISZERO PUSH2 0x2968 JUMPI PUSH1 0x0 MSTORE PUSH1 0x5 PUSH1 0x20 MSTORE PUSH8 0xFFFFFFFFFFFFFFFF PUSH1 0x40 PUSH1 0x0 KECCAK256 SLOAD AND SWAP1 JUMP JUMPDEST PUSH1 0x4 PUSH1 0x40 MLOAD PUSH32 0x8F4EB60400000000000000000000000000000000000000000000000000000000 DUP2 MSTORE REVERT JUMPDEST PUSH1 0x0 DUP2 DUP2 SLOAD DUP2 LT PUSH2 0x29C8 JUMPI JUMPDEST PUSH1 0x4 PUSH1 0x40 MLOAD PUSH32 0xDF2D9B4200000000000000000000000000000000000000000000000000000000 DUP2 MSTORE REVERT JUMPDEST DUP2 MSTORE PUSH1 0x4 SWAP1 PUSH1 0x20 SWAP2 DUP1 DUP4 MSTORE PUSH1 0x40 SWAP3 DUP4 DUP4 KECCAK256 SLOAD SWAP5 PUSH29 0x100000000000000000000000000000000000000000000000000000000 DUP7 AND ISZERO PUSH2 0x2A08 JUMPI POP POP POP PUSH2 0x299E JUMP JUMPDEST SWAP4 SWAP3 SWAP2 SWAP1 SWAP4 JUMPDEST DUP6 ISZERO PUSH2 0x2A1C JUMPI POP POP POP POP POP SWAP1 JUMP JUMPDEST PUSH1 0x0 NOT ADD DUP1 DUP4 MSTORE DUP2 DUP6 MSTORE DUP4 DUP4 KECCAK256 SLOAD SWAP6 POP PUSH2 0x2A0E JUMP JUMPDEST PUSH1 0x0 SLOAD DUP2 LT SWAP1 DUP2 PUSH2 0x2A40 JUMPI POP SWAP1 JUMP JUMPDEST SWAP1 POP PUSH1 0x0 MSTORE PUSH1 0x4 PUSH1 0x20 MSTORE PUSH29 0x100000000000000000000000000000000000000000000000000000000 PUSH1 0x40 PUSH1 0x0 KECCAK256 SLOAD AND ISZERO SWAP1 JUMP JUMPDEST SWAP1 PUSH2 0x2A7D DUP4 PUSH2 0x2992 JUMP JUMPDEST PUSH20 0xFFFFFFFFFFFFFFFFFFFFFFFFFFFFFFFFFFFFFFFF DUP1 DUP5 AND SWAP3 DUP4 DUP3 DUP5 AND SUB PUSH2 0x2CCA JUMPI PUSH1 0x0 DUP7 DUP2 MSTORE PUSH1 0x6 PUSH1 0x20 MSTORE PUSH1 0x40 SWAP1 KECCAK256 DUP1 SLOAD SWAP1 SWAP3 PUSH2 0x2ADB PUSH20 0xFFFFFFFFFFFFFFFFFFFFFFFFFFFFFFFFFFFFFFFF DUP9 AND CALLER SWAP1 DUP2 EQ SWAP1 DUP5 EQ OR ISZERO SWAP1 JUMP JUMPDEST ISZERO SWAP1 JUMP JUMPDEST PUSH2 0x2C3B JUMPI JUMPDEST DUP3 AND SWAP6 DUP7 ISZERO PUSH2 0x2C11 JUMPI PUSH2 0x2B4B SWAP4 PUSH2 0x2B1D SWAP3 PUSH2 0x2C07 JUMPI JUMPDEST POP PUSH20 0xFFFFFFFFFFFFFFFFFFFFFFFFFFFFFFFFFFFFFFFF AND PUSH1 0x0 MSTORE PUSH1 0x5 PUSH1 0x20 MSTORE PUSH1 0x40 PUSH1 0x0 KECCAK256 SWAP1 JUMP JUMPDEST DUP1 SLOAD PUSH1 0x0 NOT ADD SWAP1 SSTORE PUSH20 0xFFFFFFFFFFFFFFFFFFFFFFFFFFFFFFFFFFFFFFFF AND PUSH1 0x0 MSTORE PUSH1 0x5 PUSH1 0x20 MSTORE PUSH1 0x40 PUSH1 0x0 KECCAK256 SWAP1 JUMP JUMPDEST DUP1 SLOAD PUSH1 0x1 ADD SWAP1 SSTORE PUSH29 0x200000000000000000000000000000000000000000000000000000000 DUP1 TIMESTAMP PUSH1 0xA0 SHL DUP6 OR OR PUSH2 0x2B8C DUP7 PUSH1 0x0 MSTORE PUSH1 0x4 PUSH1 0x20 MSTORE PUSH1 0x40 PUSH1 0x0 KECCAK256 SWAP1 JUMP JUMPDEST SSTORE DUP2 AND ISZERO PUSH2 0x2BBD JUMPI JUMPDEST POP PUSH32 0xDDF252AD1BE2C89B69C2B068FC378DAA952BA7F163C4A11628F55A4DF523B3EF PUSH1 0x0 DUP1 LOG4 JUMP JUMPDEST PUSH1 0x1 DUP5 ADD PUSH2 0x2BD5 DUP2 PUSH1 0x0 MSTORE PUSH1 0x4 PUSH1 0x20 MSTORE PUSH1 0x40 PUSH1 0x0 KECCAK256 SWAP1 JUMP JUMPDEST SLOAD ISZERO PUSH2 0x2BE2 JUMPI JUMPDEST POP PUSH2 0x2B95 JUMP JUMPDEST PUSH1 0x0 SLOAD DUP2 EQ PUSH2 0x2BDC JUMPI PUSH2 0x2BFF SWAP1 PUSH1 0x0 MSTORE PUSH1 0x4 PUSH1 0x20 MSTORE PUSH1 0x40 PUSH1 0x0 KECCAK256 SWAP1 JUMP JUMPDEST SSTORE CODESIZE DUP1 PUSH2 0x2BDC JUMP JUMPDEST PUSH1 0x0 SWAP1 SSTORE CODESIZE PUSH2 0x2AF6 JUMP JUMPDEST PUSH1 0x4 PUSH1 0x40 MLOAD PUSH32 0xEA553B3400000000000000000000000000000000000000000000000000000000 DUP2 MSTORE REVERT JUMPDEST PUSH2 0x2C9B PUSH2 0x2AD7 PUSH2 0x2C94 CALLER PUSH2 0x2C6F DUP12 PUSH20 0xFFFFFFFFFFFFFFFFFFFFFFFFFFFFFFFFFFFFFFFF AND PUSH1 0x0 MSTORE PUSH1 0x7 PUSH1 0x20 MSTORE PUSH1 0x40 PUSH1 0x0 KECCAK256 SWAP1 JUMP JUMPDEST SWAP1 PUSH20 0xFFFFFFFFFFFFFFFFFFFFFFFFFFFFFFFFFFFFFFFF AND PUSH1 0x0 MSTORE PUSH1 0x20 MSTORE PUSH1 0x40 PUSH1 0x0 KECCAK256 SWAP1 JUMP JUMPDEST SLOAD PUSH1 0xFF AND SWAP1 JUMP JUMPDEST ISZERO PUSH2 0x2AE0 JUMPI PUSH1 0x4 PUSH1 0x40 MLOAD PUSH32 0x59C896BE00000000000000000000000000000000000000000000000000000000 DUP2 MSTORE REVERT JUMPDEST PUSH1 0x4 PUSH1 0x40 MLOAD PUSH32 0xA114810000000000000000000000000000000000000000000000000000000000 DUP2 MSTORE REVERT JUMPDEST SWAP3 SWAP2 SWAP1 PUSH2 0x2D02 DUP3 DUP3 DUP7 PUSH2 0x2A73 JUMP JUMPDEST DUP1 EXTCODESIZE PUSH2 0x2D0F JUMPI JUMPDEST POP POP POP POP JUMP JUMPDEST PUSH2 0x2D18 SWAP4 PUSH2 0x2DD1 JUMP JUMPDEST ISZERO PUSH2 0x2D26 JUMPI CODESIZE DUP1 DUP1 DUP1 PUSH2 0x2D09 JUMP JUMPDEST PUSH1 0x4 PUSH1 0x40 MLOAD PUSH32 0xD1A57ED600000000000000000000000000000000000000000000000000000000 DUP2 MSTORE REVERT JUMPDEST SWAP1 DUP2 PUSH1 0x20 SWAP2 SUB SLT PUSH2 0x296 JUMPI MLOAD PUSH2 0x584 DUP2 PUSH2 0x26C JUMP JUMPDEST SWAP1 SWAP3 PUSH2 0x584 SWAP5 SWAP4 PUSH1 0x80 SWAP4 PUSH20 0xFFFFFFFFFFFFFFFFFFFFFFFFFFFFFFFFFFFFFFFF DUP1 SWAP3 AND DUP5 MSTORE AND PUSH1 0x20 DUP4 ADD MSTORE PUSH1 0x40 DUP3 ADD MSTORE DUP2 PUSH1 0x60 DUP3 ADD MSTORE ADD SWAP1 PUSH2 0x54E JUMP JUMPDEST RETURNDATASIZE ISZERO PUSH2 0x2DCC JUMPI RETURNDATASIZE SWAP1 PUSH2 0x2DB2 DUP3 PUSH2 0xF30 JUMP JUMPDEST SWAP2 PUSH2 0x2DC0 PUSH1 0x40 MLOAD SWAP4 DUP5 PUSH2 0xEFE JUMP JUMPDEST DUP3 MSTORE RETURNDATASIZE PUSH1 0x0 PUSH1 0x20 DUP5 ADD RETURNDATACOPY JUMP JUMPDEST PUSH1 0x60 SWAP1 JUMP JUMPDEST SWAP3 PUSH1 0x20 SWAP2 PUSH2 0x2E28 SWAP4 PUSH1 0x0 PUSH20 0xFFFFFFFFFFFFFFFFFFFFFFFFFFFFFFFFFFFFFFFF PUSH1 0x40 MLOAD DUP1 SWAP8 DUP2 SWAP7 DUP3 SWAP6 PUSH32 0x150B7A0200000000000000000000000000000000000000000000000000000000 SWAP12 DUP13 DUP6 MSTORE CALLER PUSH1 0x4 DUP7 ADD PUSH2 0x2D65 JUMP JUMPDEST SUB SWAP4 AND GAS CALL PUSH1 0x0 SWAP2 DUP2 PUSH2 0x2EA0 JUMPI JUMPDEST POP PUSH2 0x2E7A JUMPI PUSH2 0x2E43 PUSH2 0x2DA1 JUMP JUMPDEST DUP1 MLOAD SWAP1 DUP2 PUSH2 0x2E75 JUMPI PUSH1 0x4 PUSH1 0x40 MLOAD PUSH32 0xD1A57ED600000000000000000000000000000000000000000000000000000000 DUP2 MSTORE REVERT JUMPDEST PUSH1 0x20 ADD REVERT JUMPDEST PUSH32 0xFFFFFFFF00000000000000000000000000000000000000000000000000000000 AND EQ SWAP1 JUMP JUMPDEST PUSH2 0x2EC2 SWAP2 SWAP3 POP PUSH1 0x20 RETURNDATASIZE DUP2 GT PUSH2 0x2EC9 JUMPI JUMPDEST PUSH2 0x2EBA DUP2 DUP4 PUSH2 0xEFE JUMP JUMPDEST DUP2 ADD SWAP1 PUSH2 0x2D50 JUMP JUMPDEST SWAP1 CODESIZE PUSH2 0x2E36 JUMP JUMPDEST POP RETURNDATASIZE PUSH2 0x2EB0 JUMP JUMPDEST SWAP1 PUSH1 0x40 MLOAD PUSH1 0xA0 DUP2 ADD PUSH1 0x40 MSTORE PUSH1 0x0 NOT PUSH1 0x80 DUP3 ADD SWAP4 PUSH1 0x0 DUP6 MSTORE SWAP4 JUMPDEST ADD SWAP3 PUSH1 0xA SWAP1 DUP2 DUP2 MOD PUSH1 0x30 ADD DUP6 MSTORE8 DIV SWAP3 DUP4 ISZERO PUSH2 0x2F07 JUMPI PUSH1 0x0 NOT SWAP1 PUSH2 0x2EE9 JUMP JUMPDEST SWAP3 POP PUSH1 0x80 DUP4 PUSH1 0x1F NOT SWAP3 SUB ADD SWAP3 ADD SWAP2 DUP3 MSTORE JUMP JUMPDEST PUSH1 0x40 MLOAD SWAP1 PUSH1 0x80 DUP3 ADD DUP3 DUP2 LT PUSH8 0xFFFFFFFFFFFFFFFF DUP3 GT OR PUSH2 0xEDD JUMPI PUSH1 0x40 MSTORE PUSH1 0x0 PUSH1 0x60 DUP4 DUP3 DUP2 MSTORE DUP3 PUSH1 0x20 DUP3 ADD MSTORE DUP3 PUSH1 0x40 DUP3 ADD MSTORE ADD MSTORE JUMP JUMPDEST PUSH2 0x2F57 PUSH2 0x2F19 JUMP JUMPDEST POP PUSH2 0x2F60 PUSH2 0x2F19 JUMP JUMPDEST PUSH1 0x0 SLOAD DUP3 LT ISZERO PUSH2 0x2F98 JUMPI POP PUSH2 0x2F74 DUP2 PUSH2 0x2F9D JUMP JUMPDEST PUSH1 0x40 DUP2 ADD MLOAD PUSH2 0x2F98 JUMPI POP PUSH2 0x2F93 PUSH2 0x584 SWAP2 PUSH2 0x2F8D PUSH2 0x2F19 JUMP JUMPDEST POP PUSH2 0x2992 JUMP JUMPDEST PUSH2 0x2FB8 JUMP JUMPDEST SWAP1 POP SWAP1 JUMP JUMPDEST PUSH2 0x2FA5 PUSH2 0x2F19 JUMP JUMPDEST POP PUSH1 0x0 MSTORE PUSH1 0x4 PUSH1 0x20 MSTORE PUSH2 0x584 PUSH1 0x40 PUSH1 0x0 KECCAK256 SLOAD JUMPDEST SWAP1 PUSH2 0x2FC1 PUSH2 0x2F19 JUMP JUMPDEST SWAP2 PUSH20 0xFFFFFFFFFFFFFFFFFFFFFFFFFFFFFFFFFFFFFFFF DUP2 AND DUP4 MSTORE PUSH8 0xFFFFFFFFFFFFFFFF DUP2 PUSH1 0xA0 SHR AND PUSH1 0x20 DUP5 ADD MSTORE PUSH29 0x100000000000000000000000000000000000000000000000000000000 DUP2 AND ISZERO ISZERO PUSH1 0x40 DUP5 ADD MSTORE PUSH1 0xE8 SHR PUSH1 0x60 DUP4 ADD MSTORE JUMP JUMPDEST DUP1 MLOAD DUP3 LT ISZERO PUSH2 0x1F71 JUMPI PUSH1 0x20 SWAP2 PUSH1 0x5 SHL ADD ADD SWAP1 JUMP JUMPDEST PUSH2 0x303C DUP3 PUSH2 0x1B3A JUMP JUMPDEST SWAP2 PUSH2 0x304A PUSH1 0x40 MLOAD SWAP4 DUP5 PUSH2 0xEFE JUMP JUMPDEST DUP1 DUP4 MSTORE PUSH1 0x1F NOT PUSH2 0x3059 DUP3 PUSH2 0x1B3A JUMP JUMPDEST ADD PUSH1 0x0 JUMPDEST DUP2 DUP2 LT PUSH2 0x30AC JUMPI POP POP PUSH1 0x0 JUMPDEST DUP2 DUP2 SUB PUSH2 0x3076 JUMPI POP POP POP SWAP1 JUMP JUMPDEST DUP2 DUP2 LT ISZERO PUSH2 0x1F71 JUMPI DUP1 PUSH2 0x3090 PUSH1 0x1 SWAP3 PUSH1 0x5 SHL DUP6 ADD CALLDATALOAD PUSH2 0x2F4F JUMP JUMPDEST PUSH2 0x309A DUP3 DUP8 PUSH2 0x301F JUMP JUMPDEST MSTORE PUSH2 0x30A5 DUP2 DUP7 PUSH2 0x301F JUMP JUMPDEST POP ADD PUSH2 0x3069 JUMP JUMPDEST PUSH1 0x20 SWAP1 PUSH2 0x30B7 PUSH2 0x2F19 JUMP JUMPDEST DUP3 DUP3 DUP9 ADD ADD MSTORE ADD PUSH2 0x305D JUMP JUMPDEST SWAP1 PUSH2 0x30CD DUP3 PUSH2 0x1B3A JUMP JUMPDEST PUSH2 0x30DA PUSH1 0x40 MLOAD SWAP2 DUP3 PUSH2 0xEFE JUMP JUMPDEST DUP3 DUP2 MSTORE PUSH1 0x1F NOT PUSH2 0x30EA DUP3 SWAP5 PUSH2 0x1B3A JUMP JUMPDEST ADD SWAP1 PUSH1 0x20 CALLDATASIZE SWAP2 ADD CALLDATACOPY JUMP JUMPDEST SWAP1 DUP3 DUP2 LT ISZERO PUSH2 0x322F JUMPI PUSH1 0x0 SWAP2 DUP3 SLOAD DUP1 DUP6 GT PUSH2 0x3227 JUMPI JUMPDEST POP PUSH2 0x3114 DUP2 PUSH2 0x2931 JUMP JUMPDEST DUP5 DUP4 LT ISZERO PUSH2 0x3220 JUMPI DUP3 DUP6 SUB DUP2 DUP2 LT PUSH2 0x3218 JUMPI JUMPDEST POP JUMPDEST PUSH2 0x3132 DUP2 PUSH2 0x30C3 JUMP JUMPDEST SWAP6 DUP2 ISZERO PUSH2 0x3210 JUMPI PUSH2 0x3142 DUP5 PUSH2 0x2F4F JUMP JUMPDEST SWAP2 DUP6 SWAP5 PUSH1 0x40 SWAP4 PUSH2 0x3157 PUSH2 0x2AD7 DUP7 DUP4 ADD MLOAD ISZERO ISZERO SWAP1 JUMP JUMPDEST PUSH2 0x31F1 JUMPI JUMPDEST POP JUMPDEST DUP8 DUP2 EQ ISZERO DUP1 PUSH2 0x31E7 JUMPI JUMPDEST ISZERO PUSH2 0x31DA JUMPI PUSH2 0x3176 DUP2 PUSH2 0x2F9D JUMP JUMPDEST DUP1 DUP6 ADD MLOAD PUSH2 0x31D1 JUMPI MLOAD PUSH20 0xFFFFFFFFFFFFFFFFFFFFFFFFFFFFFFFFFFFFFFFF SWAP1 DUP2 AND DUP1 PUSH2 0x31C8 JUMPI JUMPDEST POP SWAP1 DUP2 PUSH1 0x1 SWAP3 DUP8 AND SWAP1 DUP9 AND EQ PUSH2 0x31B4 JUMPI JUMPDEST ADD PUSH2 0x315E JUMP JUMPDEST DUP1 PUSH2 0x31C2 DUP4 DUP11 ADD SWAP10 DUP13 PUSH2 0x301F JUMP JUMPDEST MSTORE PUSH2 0x31AE JUMP JUMPDEST SWAP7 POP PUSH1 0x1 PUSH2 0x319D JUMP JUMPDEST POP PUSH1 0x1 SWAP1 PUSH2 0x31AE JUMP JUMPDEST POP POP SWAP6 SWAP5 POP POP POP POP DUP2 MSTORE SWAP1 JUMP JUMPDEST POP DUP2 DUP8 EQ ISZERO PUSH2 0x3168 JUMP JUMPDEST MLOAD PUSH20 0xFFFFFFFFFFFFFFFFFFFFFFFFFFFFFFFFFFFFFFFF AND SWAP6 POP CODESIZE PUSH2 0x315C JUMP JUMPDEST SWAP5 POP POP POP POP POP JUMP JUMPDEST SWAP1 POP CODESIZE PUSH2 0x3127 JUMP JUMPDEST POP DUP3 PUSH2 0x3129 JUMP JUMPDEST SWAP4 POP CODESIZE PUSH2 0x310A JUMP JUMPDEST PUSH1 0x4 PUSH1 0x40 MLOAD PUSH32 0x32C1995A00000000000000000000000000000000000000000000000000000000 DUP2 MSTORE REVERT JUMPDEST SWAP1 PUSH1 0x1 DUP3 DUP2 SHR SWAP3 AND DUP1 ISZERO PUSH2 0x32A2 JUMPI JUMPDEST PUSH1 0x20 DUP4 LT EQ PUSH2 0x3273 JUMPI JUMP JUMPDEST PUSH32 0x4E487B7100000000000000000000000000000000000000000000000000000000 PUSH1 0x0 MSTORE PUSH1 0x22 PUSH1 0x4 MSTORE PUSH1 0x24 PUSH1 0x0 REVERT JUMPDEST SWAP2 PUSH1 0x7F AND SWAP2 PUSH2 0x3268 JUMP JUMPDEST PUSH1 0x1F DUP2 GT PUSH2 0x32B8 JUMPI POP POP JUMP JUMPDEST PUSH1 0x0 SWAP1 PUSH1 0xD DUP3 MSTORE PUSH32 0xD7B6990105719101DABEB77144F2A3385C8033ACD3AF97E9423A695E81AD1EB5 SWAP1 PUSH1 0x20 PUSH1 0x1F DUP6 ADD PUSH1 0x5 SHR DUP4 ADD SWAP5 LT PUSH2 0x3313 JUMPI JUMPDEST PUSH1 0x1F ADD PUSH1 0x5 SHR ADD SWAP2 JUMPDEST DUP3 DUP2 LT PUSH2 0x3308 JUMPI POP POP POP JUMP JUMPDEST DUP2 DUP2 SSTORE PUSH1 0x1 ADD PUSH2 0x32FC JUMP JUMPDEST SWAP1 SWAP3 POP DUP3 SWAP1 PUSH2 0x32F3 JUMP JUMPDEST PUSH1 0x1F DUP2 GT PUSH2 0x3329 JUMPI POP POP JUMP JUMPDEST PUSH1 0x0 SWAP1 PUSH1 0xC DUP3 MSTORE PUSH32 0xDF6966C971051C3D54EC59162606531493A51404A002842F56009D7E5CF4A8C7 SWAP1 PUSH1 0x20 PUSH1 0x1F DUP6 ADD PUSH1 0x5 SHR DUP4 ADD SWAP5 LT PUSH2 0x3384 JUMPI JUMPDEST PUSH1 0x1F ADD PUSH1 0x5 SHR ADD SWAP2 JUMPDEST DUP3 DUP2 LT PUSH2 0x3379 JUMPI POP POP POP JUMP JUMPDEST DUP2 DUP2 SSTORE PUSH1 0x1 ADD PUSH2 0x336D JUMP JUMPDEST SWAP1 SWAP3 POP DUP3 SWAP1 PUSH2 0x3364 JUMP JUMPDEST PUSH1 0x1F DUP2 GT PUSH2 0x339A JUMPI POP POP JUMP JUMPDEST PUSH1 0x0 SWAP1 PUSH1 0xF DUP3 MSTORE PUSH32 0x8D1108E10BCB7C27DDDFC02ED9D693A074039D026CF4EA4240B40F7D581AC802 SWAP1 PUSH1 0x20 PUSH1 0x1F DUP6 ADD PUSH1 0x5 SHR DUP4 ADD SWAP5 LT PUSH2 0x33F5 JUMPI JUMPDEST PUSH1 0x1F ADD PUSH1 0x5 SHR ADD SWAP2 JUMPDEST DUP3 DUP2 LT PUSH2 0x33EA JUMPI POP POP POP JUMP JUMPDEST DUP2 DUP2 SSTORE PUSH1 0x1 ADD PUSH2 0x33DE JUMP JUMPDEST SWAP1 SWAP3 POP DUP3 SWAP1 PUSH2 0x33D5 JUMP JUMPDEST PUSH1 0x1F DUP2 GT PUSH2 0x340B JUMPI POP POP JUMP JUMPDEST PUSH1 0x0 SWAP1 PUSH1 0xE DUP3 MSTORE PUSH32 0xBB7B4A454DC3493923482F07822329ED19E8244EFF582CC204F8554C3620C3FD SWAP1 PUSH1 0x20 PUSH1 0x1F DUP6 ADD PUSH1 0x5 SHR DUP4 ADD SWAP5 LT PUSH2 0x3466 JUMPI JUMPDEST PUSH1 0x1F ADD PUSH1 0x5 SHR ADD SWAP2 JUMPDEST DUP3 DUP2 LT PUSH2 0x345B JUMPI POP POP POP JUMP JUMPDEST DUP2 DUP2 SSTORE PUSH1 0x1 ADD PUSH2 0x344F JUMP JUMPDEST SWAP1 SWAP3 POP DUP3 SWAP1 PUSH2 0x3446 JUMP JUMPDEST SWAP1 DUP2 MLOAD PUSH8 0xFFFFFFFFFFFFFFFF DUP2 GT PUSH2 0xEDD JUMPI PUSH2 0x3496 DUP2 PUSH2 0x3491 PUSH1 0xE SLOAD PUSH2 0x3259 JUMP JUMPDEST PUSH2 0x33FF JUMP JUMPDEST PUSH1 0x20 DUP1 PUSH1 0x1F DUP4 GT PUSH1 0x1 EQ PUSH2 0x34D1 JUMPI POP DUP2 SWAP3 SWAP4 PUSH1 0x0 SWAP3 PUSH2 0x34C6 JUMPI JUMPDEST POP POP PUSH1 0x0 NOT DUP3 PUSH1 0x1 SHL SWAP3 PUSH1 0x3 SHL SHR NOT AND OR PUSH1 0xE SSTORE JUMP JUMPDEST ADD MLOAD SWAP1 POP CODESIZE DUP1 PUSH2 0x34B0 JUMP JUMPDEST SWAP1 PUSH1 0x1F NOT DUP4 AND SWAP5 PUSH2 0x3504 PUSH1 0xE PUSH1 0x0 MSTORE PUSH32 0xBB7B4A454DC3493923482F07822329ED19E8244EFF582CC204F8554C3620C3FD SWAP1 JUMP JUMPDEST SWAP3 PUSH1 0x0 SWAP1 JUMPDEST DUP8 DUP3 LT PUSH2 0x3541 JUMPI POP POP DUP4 PUSH1 0x1 SWAP6 SWAP7 LT PUSH2 0x3528 JUMPI JUMPDEST POP POP POP DUP2 SHL ADD PUSH1 0xE SSTORE JUMP JUMPDEST ADD MLOAD PUSH1 0x0 NOT PUSH1 0xF8 DUP5 PUSH1 0x3 SHL AND SHR NOT AND SWAP1 SSTORE CODESIZE DUP1 DUP1 PUSH2 0x351D JUMP JUMPDEST DUP1 PUSH1 0x1 DUP6 SWAP7 DUP3 SWAP5 SWAP7 DUP7 ADD MLOAD DUP2 SSTORE ADD SWAP6 ADD SWAP4 ADD SWAP1 PUSH2 0x3509 JUMP JUMPDEST SWAP1 DUP2 MLOAD PUSH8 0xFFFFFFFFFFFFFFFF DUP2 GT PUSH2 0xEDD JUMPI PUSH2 0x357A DUP2 PUSH2 0x1296 PUSH1 0xC SLOAD PUSH2 0x3259 JUMP JUMPDEST PUSH1 0x20 DUP1 PUSH1 0x1F DUP4 GT PUSH1 0x1 EQ PUSH2 0x35B5 JUMPI POP DUP2 SWAP3 SWAP4 PUSH1 0x0 SWAP3 PUSH2 0x35AA JUMPI JUMPDEST POP POP PUSH1 0x0 NOT DUP3 PUSH1 0x1 SHL SWAP3 PUSH1 0x3 SHL SHR NOT AND OR PUSH1 0xC SSTORE JUMP JUMPDEST ADD MLOAD SWAP1 POP CODESIZE DUP1 PUSH2 0x3594 JUMP JUMPDEST SWAP1 PUSH1 0x1F NOT DUP4 AND SWAP5 PUSH2 0x35E8 PUSH1 0xC PUSH1 0x0 MSTORE PUSH32 0xDF6966C971051C3D54EC59162606531493A51404A002842F56009D7E5CF4A8C7 SWAP1 JUMP JUMPDEST SWAP3 PUSH1 0x0 SWAP1 JUMPDEST DUP8 DUP3 LT PUSH2 0x3625 JUMPI POP POP DUP4 PUSH1 0x1 SWAP6 SWAP7 LT PUSH2 0x360C JUMPI JUMPDEST POP POP POP DUP2 SHL ADD PUSH1 0xC SSTORE JUMP JUMPDEST ADD MLOAD PUSH1 0x0 NOT PUSH1 0xF8 DUP5 PUSH1 0x3 SHL AND SHR NOT AND SWAP1 SSTORE CODESIZE DUP1 DUP1 PUSH2 0x3601 JUMP JUMPDEST DUP1 PUSH1 0x1 DUP6 SWAP7 DUP3 SWAP5 SWAP7 DUP7 ADD MLOAD DUP2 SSTORE ADD SWAP6 ADD SWAP4 ADD SWAP1 PUSH2 0x35ED JUMP JUMPDEST SWAP1 DUP2 MLOAD PUSH8 0xFFFFFFFFFFFFFFFF DUP2 GT PUSH2 0xEDD JUMPI PUSH2 0x365E DUP2 PUSH2 0x1557 PUSH1 0xF SLOAD PUSH2 0x3259 JUMP JUMPDEST PUSH1 0x20 DUP1 PUSH1 0x1F DUP4 GT PUSH1 0x1 EQ PUSH2 0x3699 JUMPI POP DUP2 SWAP3 SWAP4 PUSH1 0x0 SWAP3 PUSH2 0x368E JUMPI JUMPDEST POP POP PUSH1 0x0 NOT DUP3 PUSH1 0x1 SHL SWAP3 PUSH1 0x3 SHL SHR NOT AND OR PUSH1 0xF SSTORE JUMP JUMPDEST ADD MLOAD SWAP1 POP CODESIZE DUP1 PUSH2 0x3678 JUMP JUMPDEST SWAP1 PUSH1 0x1F NOT DUP4 AND SWAP5 PUSH2 0x36CC PUSH1 0xF PUSH1 0x0 MSTORE PUSH32 0x8D1108E10BCB7C27DDDFC02ED9D693A074039D026CF4EA4240B40F7D581AC802 SWAP1 JUMP JUMPDEST SWAP3 PUSH1 0x0 SWAP1 JUMPDEST DUP8 DUP3 LT PUSH2 0x3709 JUMPI POP POP DUP4 PUSH1 0x1 SWAP6 SWAP7 LT PUSH2 0x36F0 JUMPI JUMPDEST POP POP POP DUP2 SHL ADD PUSH1 0xF SSTORE JUMP JUMPDEST ADD MLOAD PUSH1 0x0 NOT PUSH1 0xF8 DUP5 PUSH1 0x3 SHL AND SHR NOT AND SWAP1 SSTORE CODESIZE DUP1 DUP1 PUSH2 0x36E5 JUMP JUMPDEST DUP1 PUSH1 0x1 DUP6 SWAP7 DUP3 SWAP5 SWAP7 DUP7 ADD MLOAD DUP2 SSTORE ADD SWAP6 ADD SWAP4 ADD SWAP1 PUSH2 0x36D1 JUMP JUMPDEST PUSH2 0x372A DUP2 PUSH2 0x2992 JUMP JUMPDEST PUSH20 0xFFFFFFFFFFFFFFFFFFFFFFFFFFFFFFFFFFFFFFFF DUP2 AND PUSH2 0x3758 DUP4 PUSH1 0x0 MSTORE PUSH1 0x6 PUSH1 0x20 MSTORE PUSH1 0x40 PUSH1 0x0 KECCAK256 SWAP1 DUP2 SLOAD SWAP1 JUMP JUMPDEST SWAP3 SWAP1 PUSH2 0x3780 PUSH20 0xFFFFFFFFFFFFFFFFFFFFFFFFFFFFFFFFFFFFFFFF DUP5 AND CALLER SWAP1 DUP2 EQ SWAP1 DUP7 EQ OR ISZERO SWAP1 JUMP JUMPDEST PUSH2 0x38B9 JUMPI JUMPDEST PUSH1 0x0 SWAP4 PUSH2 0x38B0 JUMPI JUMPDEST POP PUSH2 0x37B8 DUP3 PUSH20 0xFFFFFFFFFFFFFFFFFFFFFFFFFFFFFFFFFFFFFFFF AND PUSH1 0x0 MSTORE PUSH1 0x5 PUSH1 0x20 MSTORE PUSH1 0x40 PUSH1 0x0 KECCAK256 SWAP1 JUMP JUMPDEST PUSH16 0xFFFFFFFFFFFFFFFFFFFFFFFFFFFFFFFF DUP2 SLOAD ADD SWAP1 SSTORE PUSH29 0x300000000000000000000000000000000000000000000000000000000 TIMESTAMP PUSH1 0xA0 SHL DUP4 OR OR PUSH2 0x3807 DUP6 PUSH1 0x0 MSTORE PUSH1 0x4 PUSH1 0x20 MSTORE PUSH1 0x40 PUSH1 0x0 KECCAK256 SWAP1 JUMP JUMPDEST SSTORE PUSH29 0x200000000000000000000000000000000000000000000000000000000 DUP2 AND ISZERO PUSH2 0x3867 JUMPI JUMPDEST POP PUSH32 0xDDF252AD1BE2C89B69C2B068FC378DAA952BA7F163C4A11628F55A4DF523B3EF DUP3 DUP1 LOG4 PUSH2 0xF2E PUSH2 0x3862 PUSH1 0x1 SLOAD PUSH1 0x1 ADD SWAP1 JUMP JUMPDEST PUSH1 0x1 SSTORE JUMP JUMPDEST PUSH1 0x1 DUP5 ADD PUSH2 0x387F DUP2 PUSH1 0x0 MSTORE PUSH1 0x4 PUSH1 0x20 MSTORE PUSH1 0x40 PUSH1 0x0 KECCAK256 SWAP1 JUMP JUMPDEST SLOAD ISZERO PUSH2 0x388C JUMPI JUMPDEST POP PUSH2 0x382E JUMP JUMPDEST DUP4 SLOAD DUP2 EQ PUSH2 0x3886 JUMPI PUSH2 0x38A8 SWAP1 PUSH1 0x0 MSTORE PUSH1 0x4 PUSH1 0x20 MSTORE PUSH1 0x40 PUSH1 0x0 KECCAK256 SWAP1 JUMP JUMPDEST SSTORE CODESIZE DUP1 PUSH2 0x3886 JUMP JUMPDEST DUP4 SWAP1 SSTORE CODESIZE PUSH2 0x378D JUMP JUMPDEST PUSH2 0x38ED PUSH2 0x2AD7 PUSH2 0x2C94 CALLER PUSH2 0x2C6F DUP8 PUSH20 0xFFFFFFFFFFFFFFFFFFFFFFFFFFFFFFFFFFFFFFFF AND PUSH1 0x0 MSTORE PUSH1 0x7 PUSH1 0x20 MSTORE PUSH1 0x40 PUSH1 0x0 KECCAK256 SWAP1 JUMP JUMPDEST ISZERO PUSH2 0x3785 JUMPI PUSH1 0x4 PUSH1 0x40 MLOAD PUSH32 0x59C896BE00000000000000000000000000000000000000000000000000000000 DUP2 MSTORE REVERT JUMPDEST DUP1 MLOAD SWAP1 PUSH1 0x0 JUMPDEST DUP3 DUP2 LT PUSH2 0x392E JUMPI POP POP POP JUMP JUMPDEST PUSH2 0x3941 PUSH2 0x393B DUP3 DUP5 PUSH2 0x301F JUMP JUMPDEST MLOAD PUSH2 0x3721 JUMP JUMPDEST PUSH1 0x0 NOT DUP2 EQ PUSH2 0x23F0 JUMPI PUSH1 0x1 ADD PUSH2 0x3922 JUMP JUMPDEST SWAP6 SWAP5 SWAP4 SWAP3 SWAP2 SWAP1 PUSH20 0xFFFFFFFFFFFFFFFFFFFFFFFFFFFFFFFFFFFFFFFF PUSH32 0x0 AND CALLER EQ DUP1 ISZERO SWAP1 PUSH2 0x3B0E JUMPI JUMPDEST PUSH2 0x3AE4 JUMPI DUP1 MLOAD SWAP1 PUSH8 0xFFFFFFFFFFFFFFFF DUP3 GT PUSH2 0xEDD JUMPI PUSH2 0x39BE DUP3 PUSH2 0x100A PUSH1 0xD SLOAD PUSH2 0x3259 JUMP JUMPDEST PUSH1 0x20 SWAP1 DUP2 PUSH1 0x1F DUP5 GT PUSH1 0x1 EQ PUSH2 0x3A61 JUMPI POP SWAP4 PUSH2 0x3A07 PUSH2 0x3A11 SWAP5 DUP5 PUSH2 0x3A31 SWAP12 SWAP11 SWAP9 SWAP6 PUSH2 0x3A0C SWAP6 PUSH2 0x3A2C SWAP12 SWAP10 PUSH1 0x0 SWAP3 PUSH2 0x1045 JUMPI POP POP PUSH1 0x0 NOT DUP3 PUSH1 0x1 SHL SWAP3 PUSH1 0x3 SHL SHR NOT AND OR PUSH1 0xD SSTORE PUSH2 0x3470 JUMP JUMPDEST PUSH2 0x3559 JUMP JUMPDEST PUSH2 0x363D JUMP JUMPDEST PUSH2 0x3A1A DUP5 PUSH2 0x1F8D JUMP JUMPDEST PUSH2 0x3A23 DUP5 PUSH2 0x2083 JUMP JUMPDEST PUSH2 0x524 DUP5 PUSH2 0x2199 JUMP JUMPDEST PUSH2 0x2210 JUMP JUMPDEST PUSH2 0xF2E PUSH1 0x1 PUSH32 0xFFFFFFFFFFFFFFFFFFFFFFFFFFFFFFFFFFFFFFFFFFFFFFFFFFFFFFFFFFFFFF00 PUSH1 0x10 SLOAD AND OR PUSH1 0x10 SSTORE JUMP JUMPDEST PUSH1 0xD PUSH1 0x0 MSTORE SWAP2 SWAP1 PUSH1 0x1F NOT DUP5 AND PUSH32 0xD7B6990105719101DABEB77144F2A3385C8033ACD3AF97E9423A695E81AD1EB5 SWAP4 PUSH1 0x0 SWAP1 JUMPDEST DUP3 DUP3 LT PUSH2 0x3ACC JUMPI POP POP SWAP5 PUSH1 0x1 DUP6 PUSH2 0x3A0C SWAP6 PUSH2 0x3A2C SWAP12 SWAP10 SWAP6 PUSH2 0x3A07 SWAP6 PUSH2 0x3A31 SWAP16 SWAP15 SWAP13 SWAP10 PUSH2 0x3A11 SWAP12 LT PUSH2 0x10AA JUMPI POP POP POP DUP2 SHL ADD PUSH1 0xD SSTORE PUSH2 0x3470 JUMP JUMPDEST DUP1 PUSH1 0x1 DUP7 SWAP8 DUP3 SWAP5 SWAP8 DUP8 ADD MLOAD DUP2 SSTORE ADD SWAP7 ADD SWAP5 ADD SWAP1 PUSH2 0x3A93 JUMP JUMPDEST PUSH1 0x4 PUSH1 0x40 MLOAD PUSH32 0xF92EE8A900000000000000000000000000000000000000000000000000000000 DUP2 MSTORE REVERT JUMPDEST POP PUSH1 0xFF PUSH1 0x10 SLOAD AND PUSH2 0x3999 JUMP JUMPDEST ISZERO PUSH2 0x3B21 JUMPI JUMP JUMPDEST PUSH1 0x84 PUSH1 0x40 MLOAD PUSH32 0x8C379A000000000000000000000000000000000000000000000000000000000 DUP2 MSTORE PUSH1 0x20 PUSH1 0x4 DUP3 ADD MSTORE PUSH1 0x2A PUSH1 0x24 DUP3 ADD MSTORE PUSH32 0x455243323938313A20726F79616C7479206665652077696C6C20657863656564 PUSH1 0x44 DUP3 ADD MSTORE PUSH32 0x2073616C65507269636500000000000000000000000000000000000000000000 PUSH1 0x64 DUP3 ADD MSTORE REVERT JUMPDEST PUSH20 0xFFFFFFFFFFFFFFFFFFFFFFFFFFFFFFFFFFFFFFFF PUSH12 0xFFFFFFFFFFFFFFFFFFFFFFFF DUP4 AND SWAP2 PUSH2 0x3BD8 PUSH2 0x2710 DUP5 GT ISZERO PUSH2 0x3B1A JUMP JUMPDEST AND SWAP2 DUP3 ISZERO PUSH2 0x3C1F JUMPI PUSH32 0xFFFFFFFFFFFFFFFFFFFFFFFF0000000000000000000000000000000000000000 SWAP2 PUSH1 0x20 PUSH1 0x40 MLOAD PUSH2 0x3C10 DUP2 PUSH2 0xEC1 JUMP JUMPDEST DUP6 DUP2 MSTORE ADD MSTORE PUSH1 0xA0 SHL AND OR PUSH1 0x8 SSTORE JUMP JUMPDEST PUSH1 0x64 PUSH1 0x40 MLOAD PUSH32 0x8C379A000000000000000000000000000000000000000000000000000000000 DUP2 MSTORE PUSH1 0x20 PUSH1 0x4 DUP3 ADD MSTORE PUSH1 0x19 PUSH1 0x24 DUP3 ADD MSTORE PUSH32 0x455243323938313A20696E76616C696420726563656976657200000000000000 PUSH1 0x44 DUP3 ADD MSTORE REVERT JUMPDEST PUSH2 0x3C86 DUP2 PUSH2 0x3D6C JUMP JUMPDEST SWAP1 DUP2 ISZERO PUSH2 0x3CD4 JUMPI JUMPDEST DUP2 ISZERO PUSH2 0x3CA9 JUMPI JUMPDEST DUP2 ISZERO PUSH2 0x3C9F JUMPI POP SWAP1 JUMP JUMPDEST PUSH2 0x584 SWAP2 POP PUSH2 0x3CE5 JUMP JUMPDEST PUSH32 0xFFFFFFFF00000000000000000000000000000000000000000000000000000000 DUP2 AND ISZERO SWAP2 POP PUSH2 0x3C95 JUMP JUMPDEST SWAP1 POP PUSH2 0x3CDF DUP2 PUSH2 0x3CE5 JUMP JUMPDEST SWAP1 PUSH2 0x3C8E JUMP JUMPDEST PUSH32 0xFFFFFFFF00000000000000000000000000000000000000000000000000000000 DUP2 AND SWAP1 PUSH32 0x5A05180F00000000000000000000000000000000000000000000000000000000 DUP3 EQ SWAP2 DUP3 ISZERO PUSH2 0x3D38 JUMPI POP POP SWAP1 JUMP JUMPDEST PUSH32 0x7965DB0B00000000000000000000000000000000000000000000000000000000 EQ SWAP2 POP DUP2 ISZERO PUSH2 0x3D66 JUMPI POP SWAP1 JUMP JUMPDEST PUSH2 0x584 SWAP2 POP JUMPDEST PUSH32 0xFFFFFFFF00000000000000000000000000000000000000000000000000000000 AND PUSH32 0x2A55205A00000000000000000000000000000000000000000000000000000000 DUP2 EQ SWAP1 DUP2 ISZERO PUSH2 0x3DBC JUMPI POP SWAP1 JUMP JUMPDEST PUSH32 0x1FFC9A700000000000000000000000000000000000000000000000000000000 SWAP2 POP EQ SWAP1 JUMP INVALID LOG2 PUSH5 0x6970667358 0x22 SLT KECCAK256 0xDB ADDMOD 0xCB POP SWAP9 0xB1 0x22 DUP8 SWAP4 PUSH20 0xFC1576CBEB220975504B788E70CCCC47BB354EAB 0xCF JUMPI PUSH5 0x736F6C6343 STOP ADDMOD SGT STOP CALLER "
				}
			},
			"userdoc": {
				"events": {
					"ERC721ItemsDeployed(address)": {
						"notice": "Event emitted when a new ERC-721 Items proxy contract is deployed."
					}
				},
				"kind": "user",
				"methods": {
					"constructor": {
						"notice": "Creates an ERC-721 Items Factory."
					},
					"deploy(address,address,string,string,string,string,address,uint96)": {
						"notice": "Creates an ERC-721 Items proxy."
					},
					"upgradeBeacon(address)": {
						"notice": "Upgrades the beacon implementation."
					}
				},
				"notice": "Deployer of ERC-721 Items proxies.",
				"version": 1
			}
		}
	}
}