{
	"src/tokens/ERC721/presets/soulbound/ERC721SoulboundFactory.sol": {
		"ERC721SoulboundFactory": {
			"abi": [
				{
					"inputs": [
						{
							"internalType": "address",
							"name": "factoryOwner",
							"type": "address"
						}
					],
					"stateMutability": "nonpayable",
					"type": "constructor"
				},
				{
					"anonymous": false,
					"inputs": [
						{
							"indexed": false,
							"internalType": "address",
							"name": "proxyAddr",
							"type": "address"
						}
					],
					"name": "ERC721SoulboundDeployed",
					"type": "event"
				},
				{
					"anonymous": false,
					"inputs": [
						{
							"indexed": true,
							"internalType": "address",
							"name": "previousOwner",
							"type": "address"
						},
						{
							"indexed": true,
							"internalType": "address",
							"name": "newOwner",
							"type": "address"
						}
					],
					"name": "OwnershipTransferred",
					"type": "event"
				},
				{
					"inputs": [],
					"name": "beacon",
					"outputs": [
						{
							"internalType": "contract UpgradeableBeacon",
							"name": "",
							"type": "address"
						}
					],
					"stateMutability": "view",
					"type": "function"
				},
				{
					"inputs": [
						{
							"internalType": "address",
							"name": "proxyOwner",
							"type": "address"
						},
						{
							"internalType": "address",
							"name": "tokenOwner",
							"type": "address"
						},
						{
							"internalType": "string",
							"name": "name",
							"type": "string"
						},
						{
							"internalType": "string",
							"name": "symbol",
							"type": "string"
						},
						{
							"internalType": "string",
							"name": "baseURI",
							"type": "string"
						},
						{
							"internalType": "string",
							"name": "contractURI",
							"type": "string"
						},
						{
							"internalType": "address",
							"name": "royaltyReceiver",
							"type": "address"
						},
						{
							"internalType": "uint96",
							"name": "royaltyFeeNumerator",
							"type": "uint96"
						}
					],
					"name": "deploy",
					"outputs": [
						{
							"internalType": "address",
							"name": "proxyAddr",
							"type": "address"
						}
					],
					"stateMutability": "nonpayable",
					"type": "function"
				},
				{
					"inputs": [
						{
							"internalType": "address",
							"name": "proxyOwner",
							"type": "address"
						},
						{
							"internalType": "address",
							"name": "tokenOwner",
							"type": "address"
						},
						{
							"internalType": "string",
							"name": "name",
							"type": "string"
						},
						{
							"internalType": "string",
							"name": "symbol",
							"type": "string"
						},
						{
							"internalType": "string",
							"name": "baseURI",
							"type": "string"
						},
						{
							"internalType": "string",
							"name": "contractURI",
							"type": "string"
						},
						{
							"internalType": "address",
							"name": "royaltyReceiver",
							"type": "address"
						},
						{
							"internalType": "uint96",
							"name": "royaltyFeeNumerator",
							"type": "uint96"
						}
					],
					"name": "determineAddress",
					"outputs": [
						{
							"internalType": "address",
							"name": "proxyAddr",
							"type": "address"
						}
					],
					"stateMutability": "view",
					"type": "function"
				},
				{
					"inputs": [],
					"name": "owner",
					"outputs": [
						{
							"internalType": "address",
							"name": "",
							"type": "address"
						}
					],
					"stateMutability": "view",
					"type": "function"
				},
				{
					"inputs": [],
					"name": "renounceOwnership",
					"outputs": [],
					"stateMutability": "nonpayable",
					"type": "function"
				},
				{
					"inputs": [
						{
							"internalType": "address",
							"name": "newOwner",
							"type": "address"
						}
					],
					"name": "transferOwnership",
					"outputs": [],
					"stateMutability": "nonpayable",
					"type": "function"
				},
				{
					"inputs": [
						{
							"internalType": "address",
							"name": "implementation",
							"type": "address"
						}
					],
					"name": "upgradeBeacon",
					"outputs": [],
					"stateMutability": "nonpayable",
					"type": "function"
				}
			],
			"devdoc": {
				"events": {
					"ERC721SoulboundDeployed(address)": {
						"params": {
							"proxyAddr": "The address of the deployed proxy."
						}
					}
				},
				"kind": "dev",
				"methods": {
					"constructor": {
						"params": {
							"factoryOwner": "The owner of the ERC-721 Soulbound Factory"
						}
					},
					"deploy(address,address,string,string,string,string,address,uint96)": {
						"params": {
							"baseURI": "The base URI of the ERC-721 Soulbound proxy",
							"contractURI": "The contract URI of the ERC-721 Soulbound proxy",
							"name": "The name of the ERC-721 Soulbound proxy",
							"proxyOwner": "The owner of the ERC-721 Soulbound proxy",
							"royaltyFeeNumerator": "The royalty fee numerator in basis points (e.g. 15% would be 1500)",
							"royaltyReceiver": "Address of who should be sent the royalty payment",
							"symbol": "The symbol of the ERC-721 Soulbound proxy",
							"tokenOwner": "The owner of the ERC-721 Soulbound implementation"
						},
						"returns": {
							"proxyAddr": "The address of the ERC-721 Soulbound Proxy"
						}
					},
					"determineAddress(address,address,string,string,string,string,address,uint96)": {
						"params": {
							"baseURI": "The base URI of the ERC-721 Soulbound proxy",
							"contractURI": "The contract URI of the ERC-721 Soulbound proxy",
							"name": "The name of the ERC-721 Soulbound proxy",
							"proxyOwner": "The owner of the ERC-721 Soulbound proxy",
							"royaltyFeeNumerator": "The royalty fee numerator in basis points (e.g. 15% would be 1500)",
							"royaltyReceiver": "Address of who should be sent the royalty payment",
							"symbol": "The symbol of the ERC-721 Soulbound proxy",
							"tokenOwner": "The owner of the ERC-721 Soulbound implementation"
						},
						"returns": {
							"proxyAddr": "The address of the ERC-721 Soulbound Proxy"
						}
					},
					"owner()": {
						"details": "Returns the address of the current owner."
					},
					"renounceOwnership()": {
						"details": "Leaves the contract without owner. It will not be possible to call `onlyOwner` functions. Can only be called by the current owner. NOTE: Renouncing ownership will leave the contract without an owner, thereby disabling any functionality that is only available to the owner."
					},
					"transferOwnership(address)": {
						"details": "Transfers ownership of the contract to a new account (`newOwner`). Can only be called by the current owner."
					},
					"upgradeBeacon(address)": {
						"params": {
							"implementation": "The new beacon implementation."
						}
					}
				},
				"version": 1
			},
			"evm": {
				"bytecode": {
					"linkReferences": {},
					"object": "608034610125576001600160401b0390601f62006a4c38819003918201601f191683019291908484118385101761010f57816020928492604096875283398101031261012557516001600160a01b038082168203610125576100603361012a565b82519361456394858101958187108388111761010f57620024e9823980600096039086f0908115610105578451916105ee808401928311848410176100f1579184849260209462001efb853916815203019085f080156100e4576100d69394501660018060a01b0319600154161760015561012a565b51611d899081620001728239f35b50505051903d90823e3d90fd5b634e487b7160e01b88526041600452602488fd5b84513d87823e3d90fd5b634e487b7160e01b600052604160045260246000fd5b600080fd5b600080546001600160a01b039283166001600160a01b03198216811783559216907f8be0079c531659141344cd1fd0a4f28419497f9722a3daafe3b4186f6b6457e09080a356fe6080604052600436101561001257600080fd5b6000803560e01c80631bce4583146106bb57806325a570b8146103dd57806359659e901461038b57806364efee8814610291578063715018a6146101f45780638da5cb5b146101a35763f2fde38b1461006a57600080fd5b346101a05760207ffffffffffffffffffffffffffffffffffffffffffffffffffffffffffffffffc3601126101a0576100a161077e565b6100a96109a7565b73ffffffffffffffffffffffffffffffffffffffff80911690811561011c57600054827fffffffffffffffffffffffff0000000000000000000000000000000000000000821617600055167f8be0079c531659141344cd1fd0a4f28419497f9722a3daafe3b4186f6b6457e0600080a380f35b60846040517f08c379a000000000000000000000000000000000000000000000000000000000815260206004820152602660248201527f4f776e61626c653a206e6577206f776e657220697320746865207a65726f206160448201527f64647265737300000000000000000000000000000000000000000000000000006064820152fd5b80fd5b50346101a057807ffffffffffffffffffffffffffffffffffffffffffffffffffffffffffffffffc3601126101a05773ffffffffffffffffffffffffffffffffffffffff6020915416604051908152f35b50346101a057807ffffffffffffffffffffffffffffffffffffffffffffffffffffffffffffffffc3601126101a05761022b6109a7565b600073ffffffffffffffffffffffffffffffffffffffff81547fffffffffffffffffffffffff000000000000000000000000000000000000000081168355167f8be0079c531659141344cd1fd0a4f28419497f9722a3daafe3b4186f6b6457e08280a380f35b50346101a0576103476055600b6102c76102aa366108bb565b9160409c979b96959c9893985198899560209e8f88019889610a8c565b03936102f97fffffffffffffffffffffffffffffffffffffffffffffffffffffffffffffffe095868101835282610805565b519020926040519261030a846107e9565b835273ffffffffffffffffffffffffffffffffffffffff9661033b8860015416946040519586938c85019889610b12565b03908101835282610805565b5190206111eb60405161035c87830182610805565b81815286810191610b69833951902090604051916040830152858201523081520160ff81532060405191168152f35b50346101a057807ffffffffffffffffffffffffffffffffffffffffffffffffffffffffffffffffc3601126101a057602073ffffffffffffffffffffffffffffffffffffffff60015416604051908152f35b50346101a05761043e6104126103f2366108bb565b9293829986829a86858b9a9b96978a604051978896602088019a8b610a8c565b037fffffffffffffffffffffffffffffffffffffffffffffffffffffffffffffffe08101835282610805565b5190209760405161044e816107e9565b8a815273ffffffffffffffffffffffffffffffffffffffff998a600154166104858a61041285604051948593602085019788610b12565b5190206111eb9060405161049c6020840182610805565b8281526020810192610b69843980511561065d57518c928ef516998a156105ff578b988160015416908c3b156105fb578a92838e9261051d604051978896879586947fcf7a1d770000000000000000000000000000000000000000000000000000000086521660048501526024840152606060448401526064830190610a49565b03925af19081156105f05788916105dc575b5050883b156105d8576105709360405198899788977f98dd69c800000000000000000000000000000000000000000000000000000000895260048901610a8c565b038183865af180156105cd576105b5575b6020827f47e27c5ab10c568fd18ff716738c5dd5257732e878dd2ca116c5b4af900d9e3d82604051838152a1604051908152f35b6105bf83916107a6565b6105c95781610581565b5080fd5b6040513d85823e3d90fd5b8680fd5b6105e5906107a6565b6105d857863861052f565b6040513d8a823e3d90fd5b8a80fd5b60646040517f08c379a000000000000000000000000000000000000000000000000000000000815260206004820152601960248201527f437265617465323a204661696c6564206f6e206465706c6f79000000000000006044820152fd5b60646040517f08c379a000000000000000000000000000000000000000000000000000000000815260206004820152602060248201527f437265617465323a2062797465636f6465206c656e677468206973207a65726f6044820152fd5b50346101a05760207ffffffffffffffffffffffffffffffffffffffffffffffffffffffffffffffffc3601126101a0576106f361077e565b6106fb6109a7565b8173ffffffffffffffffffffffffffffffffffffffff806001541692833b1561077a576024908360405195869485937f3659cfe60000000000000000000000000000000000000000000000000000000085521660048401525af1801561076f57610763575080f35b61076c906107a6565b80f35b6040513d84823e3d90fd5b8280fd5b6004359073ffffffffffffffffffffffffffffffffffffffff821682036107a157565b600080fd5b67ffffffffffffffff81116107ba57604052565b7f4e487b7100000000000000000000000000000000000000000000000000000000600052604160045260246000fd5b6020810190811067ffffffffffffffff8211176107ba57604052565b90601f7fffffffffffffffffffffffffffffffffffffffffffffffffffffffffffffffe0910116810190811067ffffffffffffffff8211176107ba57604052565b81601f820112156107a15780359067ffffffffffffffff82116107ba576040519261089960207fffffffffffffffffffffffffffffffffffffffffffffffffffffffffffffffe0601f8601160185610805565b828452602083830101116107a157816000926020809301838601378301015290565b6101007ffffffffffffffffffffffffffffffffffffffffffffffffffffffffffffffffc8201126107a15773ffffffffffffffffffffffffffffffffffffffff9160043583811681036107a1579260243581811681036107a1579267ffffffffffffffff916044358381116107a1578261093791600401610846565b936064358481116107a1578361094f91600401610846565b936084358181116107a1578461096791600401610846565b9360a4359182116107a15761097e91600401610846565b9160c43590811681036107a1579060e4356bffffffffffffffffffffffff811681036107a15790565b73ffffffffffffffffffffffffffffffffffffffff6000541633036109c857565b60646040517f08c379a000000000000000000000000000000000000000000000000000000000815260206004820152602060248201527f4f776e61626c653a2063616c6c6572206973206e6f7420746865206f776e65726044820152fd5b60005b838110610a395750506000910152565b8181015183820152602001610a29565b907fffffffffffffffffffffffffffffffffffffffffffffffffffffffffffffffe0601f602093610a8581518092818752878088019101610a26565b0116010190565b9597969294610af76bffffffffffffffffffffffff95610ae960c098610adb610b05969760e060208e73ffffffffffffffffffffffffffffffffffffffff809c168152015260e08d0190610a49565b908b820360408d0152610a49565b9089820360608b0152610a49565b908782036080890152610a49565b961660a085015216910152565b9190926048949383527fffffffffffffffffffffffffffffffffffffffff000000000000000000000000809260601b16602084015260601b166034820152610b638251809360208685019101610a26565b01019056fe60808060405234610016576111cf908161001c8239f35b600080fdfe604060808152366103825773ffffffffffffffffffffffffffffffffffffffff807fb53127684a568b3173ae13b9f8a6016e243e63b6e8ee1178d6a717850b5d61035416158015610b94576000917fcf7a1d77000000000000000000000000000000000000000000000000000000007fffffffff00000000000000000000000000000000000000000000000000000000843516146100c057600484517ff92ee8a9000000000000000000000000000000000000000000000000000000008152fd5b6100c8611192565b60049136831161037e5760607ffffffffffffffffffffffffffffffffffffffffffffffffffffffffffffffffc36011261037e578235916101088361067f565b602435926101158461067f565b60443567ffffffffffffffff811161037a57610135839136908801610789565b941692156103525761014791166107e3565b803b156102cf578451907f5c60da1b000000000000000000000000000000000000000000000000000000009384835260209687848381865afa9384156102a657889461019d9189916102b2575b503b1515610926565b7fa3f0ad74e5423aebfd80d3ef4346578335a9a72aeaee59ff6cb3582b35133d5080547fffffffffffffffffffffffff00000000000000000000000000000000000000001673ffffffffffffffffffffffffffffffffffffffff85161790555194827f1cf3b03a6cf19fa2baba4df148e9dcabedea7f8a5c07840e207e5c089be95d3e8880a28451158015906102ab575b610242575b8361023c6107d0565b80519101f35b8592839182525afa9182156102a65761026a9392610277575b506102646109b1565b91610a21565b5038808083818080610233565b610298919250843d861161029f575b610290818361070e565b810190610902565b903861025b565b503d610286565b61091a565b508661022e565b6102c99150863d881161029f57610290818361070e565b38610194565b60848360208751917f08c379a0000000000000000000000000000000000000000000000000000000008352820152602560248201527f455243313936373a206e657720626561636f6e206973206e6f74206120636f6e60448201527f74726163740000000000000000000000000000000000000000000000000000006064820152fd5b8487517ff92ee8a9000000000000000000000000000000000000000000000000000000008152fd5b8680fd5b8380fd5b73ffffffffffffffffffffffffffffffffffffffff807fb53127684a568b3173ae13b9f8a6016e243e63b6e8ee1178d6a717850b5d61035416158015610b94576000907fcf7a1d77000000000000000000000000000000000000000000000000000000007fffffffff00000000000000000000000000000000000000000000000000000000833516146104395760046040517ff92ee8a9000000000000000000000000000000000000000000000000000000008152fd5b610441611192565b60049236841161067b5760607ffffffffffffffffffffffffffffffffffffffffffffffffffffffffffffffffc36011261067b5783356104808161067f565b6024359161048d8361067f565b60443567ffffffffffffffff8111610677576104ad829136908901610789565b9316931561064e576104bf91166107e3565b813b156105ca576040517f5c60da1b000000000000000000000000000000000000000000000000000000009283825260209586838281855afa9283156102a65787936105149188916105b357503b1515610926565b7fa3f0ad74e5423aebfd80d3ef4346578335a9a72aeaee59ff6cb3582b35133d5080547fffffffffffffffffffffffff00000000000000000000000000000000000000001673ffffffffffffffffffffffffffffffffffffffff841617905560405194827f1cf3b03a6cf19fa2baba4df148e9dcabedea7f8a5c07840e207e5c089be95d3e8880a28451158015906102ab57610242578361023c6107d0565b6102c99150853d871161029f57610290818361070e565b6084846020604051917f08c379a0000000000000000000000000000000000000000000000000000000008352820152602560248201527f455243313936373a206e657720626561636f6e206973206e6f74206120636f6e60448201527f74726163740000000000000000000000000000000000000000000000000000006064820152fd5b856040517ff92ee8a9000000000000000000000000000000000000000000000000000000008152fd5b8580fd5b8280fd5b73ffffffffffffffffffffffffffffffffffffffff81160361069d57565b600080fd5b7f4e487b7100000000000000000000000000000000000000000000000000000000600052604160045260246000fd5b6020810190811067ffffffffffffffff8211176106ed57604052565b6106a2565b6040810190811067ffffffffffffffff8211176106ed57604052565b90601f7fffffffffffffffffffffffffffffffffffffffffffffffffffffffffffffffe0910116810190811067ffffffffffffffff8211176106ed57604052565b67ffffffffffffffff81116106ed57601f017fffffffffffffffffffffffffffffffffffffffffffffffffffffffffffffffe01660200190565b81601f8201121561069d578035906107a08261074f565b926107ae604051948561070e565b8284526020838301011161069d57816000926020809301838601378301015290565b604051906107dd826106d1565b60008252565b7fb53127684a568b3173ae13b9f8a6016e243e63b6e8ee1178d6a717850b5d61039081547f7e644d79422f17c01e4894b5f4f588d331ebfa28653d42ae832dc59e38c9798f604080519373ffffffffffffffffffffffffffffffffffffffff9081851686521693846020820152a1811561087e577fffffffffffffffffffffffff000000000000000000000000000000000000000016179055565b60846040517f08c379a000000000000000000000000000000000000000000000000000000000815260206004820152602660248201527f455243313936373a206e65772061646d696e20697320746865207a65726f206160448201527f64647265737300000000000000000000000000000000000000000000000000006064820152fd5b9081602091031261069d57516109178161067f565b90565b6040513d6000823e3d90fd5b1561092d57565b60846040517f08c379a000000000000000000000000000000000000000000000000000000000815260206004820152603060248201527f455243313936373a20626561636f6e20696d706c656d656e746174696f6e206960448201527f73206e6f74206120636f6e7472616374000000000000000000000000000000006064820152fd5b604051906060820182811067ffffffffffffffff8211176106ed57604052602782527f206661696c6564000000000000000000000000000000000000000000000000006040837f416464726573733a206c6f772d6c6576656c2064656c65676174652063616c6c60208201520152565b6000806109179493602081519101845af43d15610a60573d91610a438361074f565b92610a51604051948561070e565b83523d6000602085013e610acd565b606091610acd565b15610a6f57565b60646040517f08c379a000000000000000000000000000000000000000000000000000000000815260206004820152601d60248201527f416464726573733a2063616c6c20746f206e6f6e2d636f6e74726163740000006044820152fd5b91929015610aed5750815115610ae1575090565b610917903b1515610a68565b825190915015610b005750805190602001fd5b604051907f08c379a000000000000000000000000000000000000000000000000000000000825281602080600483015282519283602484015260005b848110610b7d575050507fffffffffffffffffffffffffffffffffffffffffffffffffffffffffffffffe0601f836000604480968601015201168101030190fd5b818101830151868201604401528593508201610b3c565b610bee610bd57fb53127684a568b3173ae13b9f8a6016e243e63b6e8ee1178d6a717850b5d61035473ffffffffffffffffffffffffffffffffffffffff1690565b73ffffffffffffffffffffffffffffffffffffffff1690565b3303610d14576000357fffffffff00000000000000000000000000000000000000000000000000000000167f3659cfe6000000000000000000000000000000000000000000000000000000008103610c515750610c49610f0f565b602081519101f35b7f4f1ef286000000000000000000000000000000000000000000000000000000008103610c865750610c81611083565b610c49565b7f8f283970000000000000000000000000000000000000000000000000000000008103610cb65750610c81610ec5565b7ff851a440000000000000000000000000000000000000000000000000000000008103610ce65750610c81610dfd565b7f5c60da1b0000000000000000000000000000000000000000000000000000000003610d1457610c81610e53565b610d1c610d3b565b6000808092368280378136915af43d82803e15610d37573d90f35b3d90fd5b73ffffffffffffffffffffffffffffffffffffffff807f360894a13ba1a3210667c828492db98dca3e2076cc3735a920a3ca505d382bbc541680610df8575060206004917fa3f0ad74e5423aebfd80d3ef4346578335a9a72aeaee59ff6cb3582b35133d505416604051928380927f5c60da1b0000000000000000000000000000000000000000000000000000000082525afa9081156102a657600091610de0575090565b610917915060203d811161029f57610290818361070e565b905090565b610e05611192565b73ffffffffffffffffffffffffffffffffffffffff7fb53127684a568b3173ae13b9f8a6016e243e63b6e8ee1178d6a717850b5d6103541660405190602082015260208152610917816106f2565b610e5b611192565b610e63610d3b565b73ffffffffffffffffffffffffffffffffffffffff6040519116602082015260208152610917816106f2565b7ffffffffffffffffffffffffffffffffffffffffffffffffffffffffffffffffc602091011261069d576004356109178161067f565b610ecd611192565b3660041161069d57610efc73ffffffffffffffffffffffffffffffffffffffff610ef636610e8f565b166107e3565b604051610f08816106d1565b6000815290565b610f17611192565b3660041161069d5773ffffffffffffffffffffffffffffffffffffffff610f3d36610e8f565b1660405190610f4b826106d1565b60008252803b15610fff577f360894a13ba1a3210667c828492db98dca3e2076cc3735a920a3ca505d382bbc817fffffffffffffffffffffffff0000000000000000000000000000000000000000825416179055807fbc7cd75a20ee27fd9adebab32041f755214dbc6bffa90cc0225b39da2e5c2d3b600080a2815115801590610ff7575b610fe3575b5050604051610f08816106d1565b610fef916102646109b1565b503880610fd5565b506000610fd0565b60846040517f08c379a000000000000000000000000000000000000000000000000000000000815260206004820152602d60248201527f455243313936373a206e657720696d706c656d656e746174696f6e206973206e60448201527f6f74206120636f6e7472616374000000000000000000000000000000000000006064820152fd5b3660041161069d5760407ffffffffffffffffffffffffffffffffffffffffffffffffffffffffffffffffc36011261069d576004356110c18161067f565b60243567ffffffffffffffff811161069d576110f673ffffffffffffffffffffffffffffffffffffffff913690600401610789565b9116803b15610fff577f360894a13ba1a3210667c828492db98dca3e2076cc3735a920a3ca505d382bbc817fffffffffffffffffffffffff0000000000000000000000000000000000000000825416179055807fbc7cd75a20ee27fd9adebab32041f755214dbc6bffa90cc0225b39da2e5c2d3b600080a281511580159061118a57610fe3575050604051610f08816106d1565b506001610fd0565b3461069d5756fea264697066735822122045004168ba82273e43eeb6c01989363db864f4e92bc6bcc90fadfdb4a6c90d8564736f6c63430008130033a2646970667358221220c07a7fc95409381c3f8e890cd4a9645c01cbd77ef2525ed0f7a2056eab750e3364736f6c6343000813003360803461011a57601f6105ee38819003918201601f19168301916001600160401b0383118484101761011f5780849260209460405283398101031261011a57516001600160a01b03808216919082820361011a576000549160018060a01b0319923384821617600055604051923391167f8be0079c531659141344cd1fd0a4f28419497f9722a3daafe3b4186f6b6457e0600080a33b156100b2575060015416176001556040516104b890816101368239f35b62461bcd60e51b815260206004820152603360248201527f5570677261646561626c65426561636f6e3a20696d706c656d656e746174696f60448201527f6e206973206e6f74206120636f6e7472616374000000000000000000000000006064820152608490fd5b600080fd5b634e487b7160e01b600052604160045260246000fdfe6080604052600436101561001257600080fd5b6000803560e01c80633659cfe6146102ce5780635c60da1b1461027c578063715018a6146101e05780638da5cb5b1461018f5763f2fde38b1461005457600080fd5b3461018c5760207ffffffffffffffffffffffffffffffffffffffffffffffffffffffffffffffffc36011261018c5760043573ffffffffffffffffffffffffffffffffffffffff808216809203610188576100ad610403565b8115610104578254827fffffffffffffffffffffffff00000000000000000000000000000000000000008216178455167f8be0079c531659141344cd1fd0a4f28419497f9722a3daafe3b4186f6b6457e08380a380f35b60846040517f08c379a000000000000000000000000000000000000000000000000000000000815260206004820152602660248201527f4f776e61626c653a206e6577206f776e657220697320746865207a65726f206160448201527f64647265737300000000000000000000000000000000000000000000000000006064820152fd5b8280fd5b80fd5b503461018c57807ffffffffffffffffffffffffffffffffffffffffffffffffffffffffffffffffc36011261018c5773ffffffffffffffffffffffffffffffffffffffff6020915416604051908152f35b503461018c57807ffffffffffffffffffffffffffffffffffffffffffffffffffffffffffffffffc36011261018c57610217610403565b8073ffffffffffffffffffffffffffffffffffffffff81547fffffffffffffffffffffffff000000000000000000000000000000000000000081168355167f8be0079c531659141344cd1fd0a4f28419497f9722a3daafe3b4186f6b6457e08280a380f35b503461018c57807ffffffffffffffffffffffffffffffffffffffffffffffffffffffffffffffffc36011261018c57602073ffffffffffffffffffffffffffffffffffffffff60015416604051908152f35b503461018c5760207ffffffffffffffffffffffffffffffffffffffffffffffffffffffffffffffffc36011261018c5760043573ffffffffffffffffffffffffffffffffffffffff81169081810361018857610328610403565b3b1561037f57807fffffffffffffffffffffffff000000000000000000000000000000000000000060015416176001557fbc7cd75a20ee27fd9adebab32041f755214dbc6bffa90cc0225b39da2e5c2d3b8280a280f35b60846040517f08c379a000000000000000000000000000000000000000000000000000000000815260206004820152603360248201527f5570677261646561626c65426561636f6e3a20696d706c656d656e746174696f60448201527f6e206973206e6f74206120636f6e7472616374000000000000000000000000006064820152fd5b73ffffffffffffffffffffffffffffffffffffffff60005416330361042457565b60646040517f08c379a000000000000000000000000000000000000000000000000000000000815260206004820152602060248201527f4f776e61626c653a2063616c6c6572206973206e6f7420746865206f776e65726044820152fdfea26469706673582212201342d7da4ff651b86bceb8a63d98cff68dd07c475146281deaa480413570ea7564736f6c6343000813003360a06040523462000146576200001462000161565b6200001e62000161565b81516001600160401b038111620001405762000047816200004160025462000185565b620001c2565b602080601f8311600114620000af575081906200008294600092620000a3575b50508160011b916000199060031b1c19161760025562000274565b60008055336080526040516141fb908162000368823960805181613cd30152f35b01519050388062000067565b60026000529193601f1985167f405787fa12a823e0f2b7631cc41b3ba8828b3321ca811111fa75cd3aa3bb5ace936000905b82821062000127575050916001939186620000829794106200010d575b505050811b0160025562000274565b015160001960f88460031b161c19169055388080620000fe565b80600186978294978701518155019601940190620000e1565b6200014b565b600080fd5b634e487b7160e01b600052604160045260246000fd5b60405190602082016001600160401b03811183821017620001405760405260008252565b90600182811c92168015620001b7575b6020831014620001a157565b634e487b7160e01b600052602260045260246000fd5b91607f169162000195565b601f8111620001cf575050565b6000906002825260208220906020601f850160051c8301941062000210575b601f0160051c01915b8281106200020457505050565b818155600101620001f7565b9092508290620001ee565b601f811162000228575050565b6000906003825260208220906020601f850160051c8301941062000269575b601f0160051c01915b8281106200025d57505050565b81815560010162000250565b909250829062000247565b80519091906001600160401b0381116200014057620002a0816200029a60035462000185565b6200021b565b602080601f8311600114620002df5750819293600092620002d3575b50508160011b916000199060031b1c191617600355565b015190503880620002bc565b6003600052601f198316949091907fc2575a0e9e593c00f959f8c92f12db2869c3395a3b0502d05e2516446f71f85b926000905b8782106200034e57505083600195961062000334575b505050811b01600355565b015160001960f88460031b161c1916905538808062000329565b806001859682949686015181550195019301906200031356fe6080604052600436101561001257600080fd5b60003560e01c806301ffc9a71461029757806304634d8d1461029257806306fdde031461028d578063081812fc14610288578063095ea7b31461028357806318160ddd1461027e57806323b872dd14610279578063248a9ca3146102745780632a55205a1461026f5780632f2ff15d1461026a57806335e60bd41461026557806336568abe1461026057806340c10f191461025b57806342842e0e1461025657806342966c68146102515780635944c7531461024c5780635a446215146102475780635bbb2177146102425780636352211e1461023d57806368a37ae81461023857806370a08231146102335780637e518ec81461022e578063842f9b68146102295780638462151c146102245780639010d07c1461021f57806391d148541461021a578063938e3d7b1461021557806395d89b411461021057806398dd69c81461020b57806399a2557a14610206578063a217fddf14610201578063a22cb465146101fc578063b88d4fde146101f7578063c23dc68f146101f2578063c87b56dd146101ed578063ca15c873146101e8578063d547741f146101e3578063dc8e92ea146101de578063e8a3d485146101d95763e985e9c5146101d457600080fd5b612057565b611fb0565b611f29565b611eea565b611ebe565b611d52565b611ce0565b611c85565b611bb6565b611b9a565b611a0a565b61196c565b6118c5565b6117c6565b611766565b611713565b611587565b611526565b611427565b6113d1565b611396565b61135a565b6112f4565b61112a565b610eb8565b610e9c565b610e79565b610d61565b610c9b565b610b40565b6109fd565b61092c565b6108fd565b6108eb565b610886565b610767565b6106ed565b6105ee565b61054e565b6102cb565b7fffffffff000000000000000000000000000000000000000000000000000000008116036102c657565b600080fd5b346102c65760206003193601126102c65761034e6004356102eb8161029c565b7fffffffff00000000000000000000000000000000000000000000000000000000811690817fb1c990bc0000000000000000000000000000000000000000000000000000000014918215610352575b505060405190151581529081906020820190565b0390f35b7f40c10f190000000000000000000000000000000000000000000000000000000081149250908215610388575b5050388061033a565b7fc21b8f280000000000000000000000000000000000000000000000000000000082149250908215610485575b82156103f4575b5081156103e3575b81156103d3575b50388061037f565b6103dd915061405f565b386103cb565b90506103ee8161405f565b906103c4565b9091507f01ffc9a700000000000000000000000000000000000000000000000000000000811490811561045b575b8115610431575b5090386103bc565b7f5b5e139f0000000000000000000000000000000000000000000000000000000091501438610429565b7f80ac58cd0000000000000000000000000000000000000000000000000000000081149150610422565b7f8446a79e00000000000000000000000000000000000000000000000000000000811492506103b5565b6004359073ffffffffffffffffffffffffffffffffffffffff821682036102c657565b6024359073ffffffffffffffffffffffffffffffffffffffff821682036102c657565b60a4359073ffffffffffffffffffffffffffffffffffffffff821682036102c657565b604435906bffffffffffffffffffffffff821682036102c657565b60c435906bffffffffffffffffffffffff821682036102c657565b346102c65760406003193601126102c6576105676104af565b6024356bffffffffffffffffffffffff811681036102c6576105909161058b612957565b613f09565b005b60005b8381106105a55750506000910152565b8181015183820152602001610595565b90601f19601f6020936105d381518092818752878088019101610592565b0116010190565b9060206105eb9281815201906105b5565b90565b346102c6576000806003193601126106ea576040519080600e546106118161359c565b808552916001918083169081156106a25750600114610647575b61034e8561063b8187038261108a565b604051918291826105da565b9250600e83527fbb7b4a454dc3493923482f07822329ed19e8244eff582cc204f8554c3620c3fd5b82841061068a57505050810160200161063b8261034e61062b565b8054602085870181019190915290930192810161066f565b86955061034e9693506020925061063b9491507fffffffffffffffffffffffffffffffffffffffffffffffffffffffffffffff001682840152151560051b820101929361062b565b80fd5b346102c65760206003193601126102c65760043561070a8161228c565b1561073d576000526006602052602073ffffffffffffffffffffffffffffffffffffffff60406000205416604051908152f35b7fcf4700e40000000000000000000000000000000000000000000000000000000060005260046000fd5b60406003193601126102c65761077b6104af565b60243573ffffffffffffffffffffffffffffffffffffffff8061079d83612152565b169081330361081d575b600083815260066020526040812080547fffffffffffffffffffffffff00000000000000000000000000000000000000001673ffffffffffffffffffffffffffffffffffffffff87161790559316907f8c5be1e5ebec7d5bd14f71427d1e84f3dd0314c0f7b2291e5b200ac8c7c3b9258480a480f35b81600052600760205260ff6108563360406000209073ffffffffffffffffffffffffffffffffffffffff16600052602052604060002090565b54166107a7577fcfb3b9420000000000000000000000000000000000000000000000000000000060005260046000fd5b346102c65760006003193601126102c65760206000546001549003604051908152f35b60031960609101126102c65773ffffffffffffffffffffffffffffffffffffffff9060043582811681036102c6579160243590811681036102c6579060443590565b6105906108f7366108a9565b916122ed565b346102c65760206003193601126102c657600435600052600b6020526020600160406000200154604051908152f35b346102c65760406003193601126102c657600435600052600a60205260406000206040519061095a8261104d565b549073ffffffffffffffffffffffffffffffffffffffff82169182825260a01c602082015290156109ef575b6109c66127106109aa6bffffffffffffffffffffffff602085015116602435612fd0565b04915173ffffffffffffffffffffffffffffffffffffffff1690565b6040805173ffffffffffffffffffffffffffffffffffffffff9290921682526020820192909252f35b506109f8612f9d565b610986565b346102c65760406003193601126102c657600435610aa5610a1c6104d2565b73ffffffffffffffffffffffffffffffffffffffff610a9d600094808652600b602052610a4f6001604088200154612a56565b808652600b60205260ff610a8685604089209073ffffffffffffffffffffffffffffffffffffffff16600052602052604060002090565b541615610aa957600052600c602052604060002090565b911690613418565b5080f35b808652600b602052610ade84604088209073ffffffffffffffffffffffffffffffffffffffff16600052602052604060002090565b60017fffffffffffffffffffffffffffffffffffffffffffffffffffffffffffffff0082541617905533838516827f2f8788117e7eff1d82e926ec794901d17c78024a50270940304540a733656f0d8980a4600052600c602052604060002090565b346102c65760206003193601126102c6576004358015158091036102c6573360009081527f6937e6b1cde141aad05c7d03126a39eb070a9f0f221c44303558fa7a951a7435602052604090205460ff1615610bcc577fffffffffffffffffffffffffffffffffffffffffffffffffffffffffffff00ff61ff006011549260081b16911617601155600080f35b610c976048610c65610bdd336130d1565b610c57610be861316e565b6040519485937f416363657373436f6e74726f6c3a206163636f756e74200000000000000000006020860152610c28815180926020603789019101610592565b84017f206973206d697373696e6720726f6c65200000000000000000000000000000006037820152019061213b565b03601f19810183528261108a565b6040519182917f08c379a0000000000000000000000000000000000000000000000000000000008352600483016105da565b0390fd5b346102c65760406003193601126102c657610cb46104d2565b3373ffffffffffffffffffffffffffffffffffffffff821603610cdd5761059090600435612ea9565b60846040517f08c379a000000000000000000000000000000000000000000000000000000000815260206004820152602f60248201527f416363657373436f6e74726f6c3a2063616e206f6e6c792072656e6f756e636560448201527f20726f6c657320666f722073656c6600000000000000000000000000000000006064820152fd5b346102c65760406003193601126102c657610d7a6104af565b60243590610d866129ac565b6000918254918115610e7457610d9a613fe1565b600191610e0073ffffffffffffffffffffffffffffffffffffffff83169284831460e11b4260a01b178417610dd9876000526004602052604060002090565b5573ffffffffffffffffffffffffffffffffffffffff166000526005602052604060002090565b68010000000000000001820281540190558115610e6f578301929180805b610e2a575b8585815580f35b15610e5e575b84818484887fddf252ad1be2c89b69c2b068fc378daa952ba7f163c4a11628f55a4df523b3ef8180a4610e1e565b80920191838303610e305780610e23565b612710565b6126e6565b610590610e85366108a9565b9060405192610e938461106e565b60008452612505565b346102c65760206003193601126102c657610590600435613a64565b346102c65760606003193601126102c657610ed16104d2565b610ed9610518565b90610ee2612957565b610efe6127106bffffffffffffffffffffffff84161115613e7e565b73ffffffffffffffffffffffffffffffffffffffff811615610fc057610f5d61059092610f48610f2c6110ad565b73ffffffffffffffffffffffffffffffffffffffff9094168452565b6bffffffffffffffffffffffff166020830152565b610f73600435600052600a602052604060002090565b815160209092015160a01b7fffffffffffffffffffffffff00000000000000000000000000000000000000001673ffffffffffffffffffffffffffffffffffffffff909216919091179055565b60646040517f08c379a000000000000000000000000000000000000000000000000000000000815260206004820152601b60248201527f455243323938313a20496e76616c696420706172616d657465727300000000006044820152fd5b7f4e487b7100000000000000000000000000000000000000000000000000000000600052604160045260246000fd5b6040810190811067ffffffffffffffff82111761106957604052565b61101e565b6020810190811067ffffffffffffffff82111761106957604052565b90601f601f19910116810190811067ffffffffffffffff82111761106957604052565b604051906110ba8261104d565b565b67ffffffffffffffff811161106957601f01601f191660200190565b9291926110e4826110bc565b916110f2604051938461108a565b8294818452818301116102c6578281602093846000960137010152565b9080601f830112156102c6578160206105eb933591016110d8565b346102c65760406003193601126102c65767ffffffffffffffff6004358181116102c65761115c90369060040161110f565b906024358181116102c65761117590369060040161110f565b9061117e612a01565b82519081116110695761119b81611196600e5461359c565b6135ef565b602080601f83116001146111dc57508190610590946000926111d1575b50506000198260011b9260031b1c191617600e556137b3565b0151905038806111b8565b600e6000529193601f1985167fbb7b4a454dc3493923482f07822329ed19e8244eff582cc204f8554c3620c3fd936000905b82821061124f575050916001939186610590979410611236575b505050811b01600e556137b3565b015160001960f88460031b161c19169055388080611228565b8060018697829497870151815501960194019061120e565b6020908160408183019282815285518094520193019160005b82811061128e575050505090565b90919293826080826112e8600194895162ffffff6060809273ffffffffffffffffffffffffffffffffffffffff815116855267ffffffffffffffff6020820151166020860152604081015115156040860152015116910152565b01950193929101611280565b346102c65760206003193601126102c65767ffffffffffffffff6004358181116102c657366023820112156102c65780600401359182116102c6573660248360051b830101116102c65761034e91602461134e9201612917565b60405191829182611267565b346102c65760206003193601126102c657602073ffffffffffffffffffffffffffffffffffffffff61138d600435612152565b16604051908152f35b346102c65760006003193601126102c65760206040517f915327d54f2c758ad33c35b031b5e89868657ea971cda2b8103c502dc672509c8152f35b346102c65760206003193601126102c65760206113f46113ef6104af565b6120c7565b604051908152f35b60206003198201126102c6576004359067ffffffffffffffff82116102c6576105eb9160040161110f565b346102c657611435366113fc565b61143d612a01565b805167ffffffffffffffff8111611069576114628161145d600d5461359c565b613660565b602080601f831160011461149f57508192600092611494575b50506000198260011b9260031b1c191617600d55600080f35b01519050388061147b565b90601f198316936114d2600d6000527fd7b6990105719101dabeb77144f2a3385c8033acd3af97e9423a695e81ad1eb590565b926000905b86821061150e57505083600195106114f5575b505050811b01600d55005b015160001960f88460031b161c191690553880806114ea565b806001859682949686015181550195019301906114d7565b346102c65760006003193601126102c657602060ff60115460081c166040519015158152f35b6020908160408183019282815285518094520193019160005b828110611573575050505090565b835185529381019392810192600101611565565b346102c65760206003193601126102c6576115a06104af565b60008054906060809280159283156115c1575b6040518061034e878261154c565b9491935083929091859161170e576115d8816120c7565b95866115f2575b505050505061034e9150388080806115b3565b90919293945085841115611705575b60409283519560019384890160051b88019889875261161e612842565b9084916116346116308a830151151590565b1590565b6116e6575b50849591959887805b611662575b5050505050505050505061034e9250815238808080806115df565b156116c8575b859661167384612899565b808b0151156116905750508786935b0196888d8b52979397611642565b93909351806116c0575b50848418861b156116ad575b8890611682565b998801600581901b8c018b9052996116a6565b93503861169a565b80831480156116dd575b156116685780611647565b50818a146116d2565b5173ffffffffffffffffffffffffffffffffffffffff16915038611639565b94508294611601565b6127e2565b346102c65760406003193601126102c657600435600052600c602052602073ffffffffffffffffffffffffffffffffffffffff61175660243560406000206133e2565b9190546040519260031b1c168152f35b346102c65760406003193601126102c657602060ff6117ba6117866104d2565b600435600052600b845260406000209073ffffffffffffffffffffffffffffffffffffffff16600052602052604060002090565b54166040519015158152f35b346102c6576117d4366113fc565b6117dc612a01565b805167ffffffffffffffff811161106957611801816117fc60105461359c565b6136d1565b602080601f831160011461183e57508192600092611833575b50506000198260011b9260031b1c191617601055600080f35b01519050388061181a565b90601f1983169361187160106000527f1b6847dc741a1b0cd08d278845f9d819d87b734759afb55fe2de5cb82a9ae67290565b926000905b8682106118ad5750508360019510611894575b505050811b01601055005b015160001960f88460031b161c19169055388080611889565b80600185968294968601518155019501930190611876565b346102c6576000806003193601126106ea576040519080600f546118e88161359c565b808552916001918083169081156106a257506001146119115761034e8561063b8187038261108a565b9250600f83527f8d1108e10bcb7c27dddfc02ed9d693a074039d026cf4ea4240b40f7d581ac8025b82841061195457505050810160200161063b8261034e61062b565b80546020858701810191909152909301928101611939565b346102c65760e06003193601126102c6576119856104af565b67ffffffffffffffff906024358281116102c6576119a790369060040161110f565b6044358381116102c6576119bf90369060040161110f565b6064358481116102c6576119d790369060040161110f565b6084359485116102c6576119f261059095369060040161110f565b916119fb6104f5565b93611a04610533565b95613c81565b346102c6576060806003193601126102c657611a246104af565b60243591906044358383828083101561170e5760005480911015611b92575b50611a4d846120c7565b9183871015611b89575b82611a6b575b6040518061034e888261154c565b90919293945085840383811115611b81575b50604092835195600193600591611a9d868501841b8a019a8b8952612881565b93600094611ab06116308a830151151590565b611b62575b5060009594959887805b611adf575b5050505050505050505061034e925081523880808080611a5d565b15611b44575b600096611af187612899565b808b015115611b0e5750508787965b0196888d8b52979697611abf565b9690965180611b3c575b50838718851b15611b2b575b8890611b00565b99880180861b8c018b905299611b24565b965038611b18565b8086148015611b59575b15611ae55780611ac4565b50818a14611b4e565b5173ffffffffffffffffffffffffffffffffffffffff16945038611ab5565b925038611a7d565b60009250611a57565b925038611a43565b346102c65760006003193601126102c657602060405160008152f35b346102c65760406003193601126102c657611bcf6104af565b602435908115158092036102c65773ffffffffffffffffffffffffffffffffffffffff90336000526007602052611c2a8160406000209073ffffffffffffffffffffffffffffffffffffffff16600052602052604060002090565b7fffffffffffffffffffffffffffffffffffffffffffffffffffffffffffffff0081541660ff851617905560405192835216907f17307eab39ab6107e8899845ad3d59bd9653f200f220920489ca2b5937696c3160203392a3005b60806003193601126102c657611c996104af565b611ca16104d2565b6064359167ffffffffffffffff83116102c657366023840112156102c657611cd66105909336906024816004013591016110d8565b9160443591612505565b346102c65760206003193601126102c6576080611cfe600435612881565b611d50604051809262ffffff6060809273ffffffffffffffffffffffffffffffffffffffff815116855267ffffffffffffffff6020820151166020860152604081015115156040860152015116910152565bf35b346102c6576020806003193601126102c657600435611d708161228c565b15611e94576040519082826000600d54611d898161359c565b80845290600190818116908115611e545750600114611df5575b5050611db19250038361108a565b815115611de25761034e92610c57611dcb61063b9361269d565b611ddc60405195869485019061213b565b9061213b565b50505061034e611df0612128565b61063b565b90939150600d6000527fd7b6990105719101dabeb77144f2a3385c8033acd3af97e9423a695e81ad1eb5936000915b818310611e3c575087945050820101611db138611da3565b85548884018501529485019487945091830191611e24565b9050611db19593507fffffffffffffffffffffffffffffffffffffffffffffffffffffffffffffff0091501682840152151560051b820101859238611da3565b7fa14c4b500000000000000000000000000000000000000000000000000000000060005260046000fd5b346102c65760206003193601126102c657600435600052600c6020526020604060002054604051908152f35b346102c65760406003193601126102c657610590600435611f096104d2565b9080600052600b602052611f24600160406000200154612a56565b612ea9565b346102c6576020806003193601126102c65767ffffffffffffffff6004358181116102c657366023820112156102c6578060040135918211611069578160051b60405192611f798583018561108a565b8352602484840191830101913683116102c657602401905b828210611fa15761059084613c43565b81358152908401908401611f91565b346102c6576000806003193601126106ea576040519080601054611fd38161359c565b808552916001918083169081156106a25750600114611ffc5761034e8561063b8187038261108a565b9250601083527f1b6847dc741a1b0cd08d278845f9d819d87b734759afb55fe2de5cb82a9ae6725b82841061203f57505050810160200161063b8261034e61062b565b80546020858701810191909152909301928101612024565b346102c65760406003193601126102c657602060ff6117ba6120776104af565b73ffffffffffffffffffffffffffffffffffffffff6120946104d2565b91166000526007845260406000209073ffffffffffffffffffffffffffffffffffffffff16600052602052604060002090565b73ffffffffffffffffffffffffffffffffffffffff1680156120fe57600052600560205267ffffffffffffffff6040600020541690565b7f8f4eb6040000000000000000000000000000000000000000000000000000000060005260046000fd5b604051906121358261106e565b60008252565b9061214e60209282815194859201610592565b0190565b612166816000526004602052604060002090565b5490811561219657507c0100000000000000000000000000000000000000000000000000000000811661273a5790565b9050600090815481101561222357600019905b016121be816000526004602052604060002090565b5490811561221957507c0100000000000000000000000000000000000000000000000000000000811615612214576004827fdf2d9b42000000000000000000000000000000000000000000000000000000008152fd5b905090565b60001991506121a9565b6004827fdf2d9b42000000000000000000000000000000000000000000000000000000008152fd5b7f4e487b7100000000000000000000000000000000000000000000000000000000600052601160045260246000fd5b8015612287576000190190565b61224b565b9060009160008054821061229e575050565b9192505b80825260046020526040822054806122c757506122c060409161227a565b90506122a2565b7c0100000000000000000000000000000000000000000000000000000000161592915050565b9190916122f982612152565b9073ffffffffffffffffffffffffffffffffffffffff809116938482841603612500576000848152600660205260409020805461235273ffffffffffffffffffffffffffffffffffffffff881633908114908314171590565b612496575b61236087614028565b61248c575b506123908573ffffffffffffffffffffffffffffffffffffffff166000526005602052604060002090565b80546000190190556123c28173ffffffffffffffffffffffffffffffffffffffff166000526005602052604060002090565b80546001019055169283917c0200000000000000000000000000000000000000000000000000000000804260a01b851717612407866000526004602052604060002090565b55811615612442575b507fddf252ad1be2c89b69c2b068fc378daa952ba7f163c4a11628f55a4df523b3ef600080a41561243d57565b6127b8565b6001840161245a816000526004602052604060002090565b5415612467575b50612410565b600054811461246157612484906000526004602052604060002090565b553880612461565b6000905538612365565b6124f66116306124ef336124ca8b73ffffffffffffffffffffffffffffffffffffffff166000526007602052604060002090565b9073ffffffffffffffffffffffffffffffffffffffff16600052602052604060002090565b5460ff1690565b156123575761278e565b612764565b9291906125138282866122ed565b803b612520575b50505050565b612529936125a6565b15612537573880808061251a565b7fd1a57ed60000000000000000000000000000000000000000000000000000000060005260046000fd5b908160209103126102c657516105eb8161029c565b3d156125a1573d90612587826110bc565b91612595604051938461108a565b82523d6000602084013e565b606090565b91926020916126189160006040519586809581947f150b7a02000000000000000000000000000000000000000000000000000000009a8b845233600485015273ffffffffffffffffffffffffffffffffffffffff809516602485015260448401526080606484015260848301906105b5565b0393165af16000918161266d575b5061264757612633612576565b80511561264257805190602001fd5b612537565b7fffffffff00000000000000000000000000000000000000000000000000000000161490565b61268f91925060203d8111612696575b612687818361108a565b810190612561565b9038612626565b503d61267d565b9060405160a08101604052600019608082019360008552935b0192600a908181066030018553049283156126d457600019906126b6565b9250608083601f199203019201918252565b7fb562e8dd0000000000000000000000000000000000000000000000000000000060005260046000fd5b7f2e0763000000000000000000000000000000000000000000000000000000000060005260046000fd5b7fdf2d9b420000000000000000000000000000000000000000000000000000000060005260046000fd5b7fa11481000000000000000000000000000000000000000000000000000000000060005260046000fd5b7f59c896be0000000000000000000000000000000000000000000000000000000060005260046000fd5b7fea553b340000000000000000000000000000000000000000000000000000000060005260046000fd5b7f32c1995a0000000000000000000000000000000000000000000000000000000060005260046000fd5b604051906080820182811067ffffffffffffffff8211176110695760405260006060838281528260208201528260408201520152565b6000908161284e61280c565b928054612859575050565b9192505b80825260046020526040822054612877576000190161285d565b6105eb9150612899565b9061288a61280c565b91600080548210612859575050565b6128a161280c565b5060005260046020526040600020546128b861280c565b9073ffffffffffffffffffffffffffffffffffffffff8116825267ffffffffffffffff8160a01c1660208301527c010000000000000000000000000000000000000000000000000000000081161515604083015260e81c606082015290565b6040519180835260051b6020818401016040525b808180156129505761294790601f198091019385010135612881565b9084015261292b565b5050505090565b3360009081527f142ae0bd48b54fb380e908bf20fd1f4ea4f2b9a2663ca7698d91ef391575c621602052604090205460ff161561299057565b610c976048610c656129a1336130d1565b610c57610be861320b565b3360009081527ff70e363b3d7895af770c4a138460777d52eebd3cb9962ccc6b58721f6127bbc8602052604090205460ff16156129e557565b610c976048610c656129f6336130d1565b610c57610be86132a8565b3360009081527fea6919ad9e84aa527aa2dffb6ac6f0a6af0387a080d10167acddf2a249a612dd602052604090205460ff1615612a3a57565b610c976048610c65612a4b336130d1565b610c57610be8613345565b80600052600b60205260ff612a8f3360406000209073ffffffffffffffffffffffffffffffffffffffff16600052602052604060002090565b541615612a995750565b612aa2336130d1565b612aaa612fe3565b916030612ab68461303e565b536078612ac28461304b565b5360415b60018111612ae557610c976048610c6585610c5788610be8881561306c565b90600f8116906010821015612b33577f3031323334353637383961626364656600000000000000000000000000000000612b2e921a612b24848761305b565b5360041c9161227a565b612ac6565b61300f565b73ffffffffffffffffffffffffffffffffffffffff80821660009081527f6937e6b1cde141aad05c7d03126a39eb070a9f0f221c44303558fa7a951a74356020526040808220612bc3949392907f915327d54f2c758ad33c35b031b5e89868657ea971cda2b8103c502dc672509c9060ff905b541615612bc6575b8152600c60205220911690613418565b50565b808252600b602052612bfa858484209073ffffffffffffffffffffffffffffffffffffffff16600052602052604060002090565b60017fffffffffffffffffffffffffffffffffffffffffffffffffffffffffffffff0082541617905533848616827f2f8788117e7eff1d82e926ec794901d17c78024a50270940304540a733656f0d8580a4612bb3565b73ffffffffffffffffffffffffffffffffffffffff81811660009081527fdf7de25b7f1fd6d0b5205f0e18f1f35bd7b8d84cce336588d184533ce43a6f76602052604080822054612bc39493929060ff1615612cb9575b808052600c60205220911690613418565b808052600b602052612ced848383209073ffffffffffffffffffffffffffffffffffffffff16600052602052604060002090565b60017fffffffffffffffffffffffffffffffffffffffffffffffffffffffffffffff0082541617905533838516827f2f8788117e7eff1d82e926ec794901d17c78024a50270940304540a733656f0d8180a4612ca8565b73ffffffffffffffffffffffffffffffffffffffff80821660009081527fea6919ad9e84aa527aa2dffb6ac6f0a6af0387a080d10167acddf2a249a612dd6020526040808220612bc3949392907fe02a0315b383857ac496e9d2b2546a699afaeb4e5e83a1fdef64376d0b74e5a59060ff90612bab565b73ffffffffffffffffffffffffffffffffffffffff80821660009081527f142ae0bd48b54fb380e908bf20fd1f4ea4f2b9a2663ca7698d91ef391575c6216020526040808220612bc3949392907f6db4061a20ca83a3be756ee172bd37a029093ac5afe4ce968c6d5435b43cb0119060ff90612bab565b73ffffffffffffffffffffffffffffffffffffffff80821660009081527ff70e363b3d7895af770c4a138460777d52eebd3cb9962ccc6b58721f6127bbc86020526040808220612bc3949392907f9f2df0fed2c77648de5860a4cc508cd0818c85b8b8a1ab4ceeef8d981c8956a69060ff90612bab565b9073ffffffffffffffffffffffffffffffffffffffff6040612bc393600090808252600b60205260ff612efe868585209073ffffffffffffffffffffffffffffffffffffffff16600052602052604060002090565b5416612f15575b8152600c602052209116906134e7565b808252600b602052612f49858484209073ffffffffffffffffffffffffffffffffffffffff16600052602052604060002090565b7fffffffffffffffffffffffffffffffffffffffffffffffffffffffffffffff00815416905533848616827ff6391f5c32d9c69d2a47ea670b442974b53935d1edc7fd64eb21e047a839171b8580a4612f05565b60405190612faa8261104d565b60095473ffffffffffffffffffffffffffffffffffffffff8116835260a01c6020830152565b8181029291811591840414171561228757565b604051906080820182811067ffffffffffffffff82111761106957604052604282526060366020840137565b7f4e487b7100000000000000000000000000000000000000000000000000000000600052603260045260246000fd5b805115612b335760200190565b805160011015612b335760210190565b908151811015612b33570160200190565b1561307357565b60646040517f08c379a000000000000000000000000000000000000000000000000000000000815260206004820152602060248201527f537472696e67733a20686578206c656e67746820696e73756666696369656e746044820152fd5b604051906060820182811067ffffffffffffffff82111761106957604052602a8252604036602084013760306131068361303e565b5360786131128361304b565b536029905b6001821161312a576105eb91501561306c565b600f8116906010821015612b33577f3031323334353637383961626364656600000000000000000000000000000000613168921a612b24848661305b565b90613117565b7f915327d54f2c758ad33c35b031b5e89868657ea971cda2b8103c502dc672509c613197612fe3565b9060306131a38361303e565b5360786131af8361304b565b536041905b600182116131c7576105eb91501561306c565b600f8116906010821015612b33577f3031323334353637383961626364656600000000000000000000000000000000613205921a612b24848661305b565b906131b4565b7f6db4061a20ca83a3be756ee172bd37a029093ac5afe4ce968c6d5435b43cb011613234612fe3565b9060306132408361303e565b53607861324c8361304b565b536041905b60018211613264576105eb91501561306c565b600f8116906010821015612b33577f30313233343536373839616263646566000000000000000000000000000000006132a2921a612b24848661305b565b90613251565b7f9f2df0fed2c77648de5860a4cc508cd0818c85b8b8a1ab4ceeef8d981c8956a66132d1612fe3565b9060306132dd8361303e565b5360786132e98361304b565b536041905b60018211613301576105eb91501561306c565b600f8116906010821015612b33577f303132333435363738396162636465660000000000000000000000000000000061333f921a612b24848661305b565b906132ee565b7fe02a0315b383857ac496e9d2b2546a699afaeb4e5e83a1fdef64376d0b74e5a561336e612fe3565b90603061337a8361303e565b5360786133868361304b565b536041905b6001821161339e576105eb91501561306c565b600f8116906010821015612b33577f30313233343536373839616263646566000000000000000000000000000000006133dc921a612b24848661305b565b9061338b565b8054821015612b335760005260206000200190600090565b91613414918354906000199060031b92831b921b19161790565b9055565b6001810190826000528160205260406000205415600014613486578054680100000000000000008110156110695761347161345a8260018794018555846133e2565b81939154906000199060031b92831b921b19161790565b90555491600052602052604060002055600190565b505050600090565b80549081156134b857600019809201916134a883836133e2565b909182549160031b1b1916905555565b7f4e487b7100000000000000000000000000000000000000000000000000000000600052603160045260246000fd5b600181019180600052826020526040600020549283151560001461359357600019928385019085821161228757805494850194851161228757600095858361353b9461354a9803613550575b50505061348e565b90600052602052604060002090565b55600190565b61357a6135749161356461358a94876133e2565b90549060031b1c928391876133e2565b906133fa565b8590600052602052604060002090565b55388080613533565b50505050600090565b90600182811c921680156135e5575b60208310146135b657565b7f4e487b7100000000000000000000000000000000000000000000000000000000600052602260045260246000fd5b91607f16916135ab565b601f81116135fb575050565b600090600e82527fbb7b4a454dc3493923482f07822329ed19e8244eff582cc204f8554c3620c3fd906020601f850160051c83019410613656575b601f0160051c01915b82811061364b57505050565b81815560010161363f565b9092508290613636565b601f811161366c575050565b600090600d82527fd7b6990105719101dabeb77144f2a3385c8033acd3af97e9423a695e81ad1eb5906020601f850160051c830194106136c7575b601f0160051c01915b8281106136bc57505050565b8181556001016136b0565b90925082906136a7565b601f81116136dd575050565b600090601082527f1b6847dc741a1b0cd08d278845f9d819d87b734759afb55fe2de5cb82a9ae672906020601f850160051c83019410613738575b601f0160051c01915b82811061372d57505050565b818155600101613721565b9092508290613718565b601f811161374e575050565b600090600f82527f8d1108e10bcb7c27dddfc02ed9d693a074039d026cf4ea4240b40f7d581ac802906020601f850160051c830194106137a9575b601f0160051c01915b82811061379e57505050565b818155600101613792565b9092508290613789565b90815167ffffffffffffffff8111611069576137d9816137d4600f5461359c565b613742565b602080601f83116001146138145750819293600092613809575b50506000198260011b9260031b1c191617600f55565b0151905038806137f3565b90601f19831694613847600f6000527f8d1108e10bcb7c27dddfc02ed9d693a074039d026cf4ea4240b40f7d581ac80290565b926000905b87821061388457505083600195961061386b575b505050811b01600f55565b015160001960f88460031b161c19169055388080613860565b8060018596829496860151815501950193019061384c565b90815167ffffffffffffffff8111611069576138bd8161145d600d5461359c565b602080601f83116001146138f857508192936000926138ed575b50506000198260011b9260031b1c191617600d55565b0151905038806138d7565b90601f1983169461392b600d6000527fd7b6990105719101dabeb77144f2a3385c8033acd3af97e9423a695e81ad1eb590565b926000905b87821061396857505083600195961061394f575b505050811b01600d55565b015160001960f88460031b161c19169055388080613944565b80600185968294968601518155019501930190613930565b90815167ffffffffffffffff8111611069576139a1816117fc60105461359c565b602080601f83116001146139dc57508192936000926139d1575b50506000198260011b9260031b1c191617601055565b0151905038806139bb565b90601f19831694613a0f60106000527f1b6847dc741a1b0cd08d278845f9d819d87b734759afb55fe2de5cb82a9ae67290565b926000905b878210613a4c575050836001959610613a33575b505050811b01601055565b015160001960f88460031b161c19169055388080613a28565b80600185968294968601518155019501930190613a14565b613a6d81612152565b73ffffffffffffffffffffffffffffffffffffffff8116613a9b836000526006602052604060002090815490565b9290613ac373ffffffffffffffffffffffffffffffffffffffff841633908114908614171590565b613c05575b600093613ad484614028565b613bfc575b50613b048273ffffffffffffffffffffffffffffffffffffffff166000526005602052604060002090565b6fffffffffffffffffffffffffffffffff81540190557c03000000000000000000000000000000000000000000000000000000004260a01b831717613b53856000526004602052604060002090565b557c0200000000000000000000000000000000000000000000000000000000811615613bb3575b507fddf252ad1be2c89b69c2b068fc378daa952ba7f163c4a11628f55a4df523b3ef8280a46110ba613bae60015460010190565b600155565b60018401613bcb816000526004602052604060002090565b5415613bd8575b50613b7a565b83548114613bd257613bf4906000526004602052604060002090565b553880613bd2565b83905538613ad9565b613c396116306124ef336124ca8773ffffffffffffffffffffffffffffffffffffffff166000526007602052604060002090565b15613ac85761278e565b80519060005b828110613c5557505050565b8151811015612b3357613c7060208260051b84010151613a64565b600019811461228757600101613c49565b9594939291906101007fffffffffffffffffffffffffffffffffffffffffffffffffffffffffffff00ff6011541617601155613cbc87612b38565b73ffffffffffffffffffffffffffffffffffffffff7f0000000000000000000000000000000000000000000000000000000000000000163314801590613e72575b613e485780519067ffffffffffffffff821161106957613d2282611196600e5461359c565b60209081601f8411600114613dc5575093613d6b613d759484613d959b9a9895613d7095613d909b996000926111d15750506000198260011b9260031b1c191617600e556137b3565b61389c565b613980565b613d7e84612c51565b613d8784612d44565b61058b84612dbb565b612e32565b6110ba60017fffffffffffffffffffffffffffffffffffffffffffffffffffffffffffffff006011541617601155565b600e6000529190601f1984167fbb7b4a454dc3493923482f07822329ed19e8244eff582cc204f8554c3620c3fd936000905b828210613e3057505094600185613d7095613d909b9995613d6b95613d959f9e9c99613d759b1061123657505050811b01600e556137b3565b80600186978294978701518155019601940190613df7565b60046040517ff92ee8a9000000000000000000000000000000000000000000000000000000008152fd5b5060ff60115416613cfd565b15613e8557565b60846040517f08c379a000000000000000000000000000000000000000000000000000000000815260206004820152602a60248201527f455243323938313a20726f79616c7479206665652077696c6c2065786365656460448201527f2073616c655072696365000000000000000000000000000000000000000000006064820152fd5b73ffffffffffffffffffffffffffffffffffffffff6bffffffffffffffffffffffff831691613f3c612710841115613e7e565b16918215613f83577fffffffffffffffffffffffff0000000000000000000000000000000000000000916020604051613f748161104d565b858152015260a01b1617600955565b60646040517f08c379a000000000000000000000000000000000000000000000000000000000815260206004820152601960248201527f455243323938313a20696e76616c6964207265636569766572000000000000006044820152fd5b60ff60115460081c1680614020575b613ff657565b60046040517fdb89e3f4000000000000000000000000000000000000000000000000000000008152fd5b506000613ff0565b60ff60115460081c16908161403f575b50613ff657565b73ffffffffffffffffffffffffffffffffffffffff915016151538614038565b6140688161414e565b9081156140b6575b811561408b575b8115614081575090565b6105eb91506140c7565b7fffffffff000000000000000000000000000000000000000000000000000000008116159150614077565b90506140c1816140c7565b90614070565b7fffffffff000000000000000000000000000000000000000000000000000000008116907f5a05180f00000000000000000000000000000000000000000000000000000000821491821561411a57505090565b7f7965db0b000000000000000000000000000000000000000000000000000000001491508115614148575090565b6105eb91505b7fffffffff00000000000000000000000000000000000000000000000000000000167f2a55205a00000000000000000000000000000000000000000000000000000000811490811561419e575090565b7f01ffc9a7000000000000000000000000000000000000000000000000000000009150149056fea26469706673582212208cc38c1dc1c4ee2f4014fecf18b2fa82f3e8565c358f7a55501c9e6e8a901fd564736f6c63430008130033",
					"opcodes": "PUSH1 0x80 CALLVALUE PUSH2 0x125 JUMPI PUSH1 0x1 PUSH1 0x1 PUSH1 0x40 SHL SUB SWAP1 PUSH1 0x1F PUSH3 0x6A4C CODESIZE DUP2 SWAP1 SUB SWAP2 DUP3 ADD PUSH1 0x1F NOT AND DUP4 ADD SWAP3 SWAP2 SWAP1 DUP5 DUP5 GT DUP4 DUP6 LT OR PUSH2 0x10F JUMPI DUP2 PUSH1 0x20 SWAP3 DUP5 SWAP3 PUSH1 0x40 SWAP7 DUP8 MSTORE DUP4 CODECOPY DUP2 ADD SUB SLT PUSH2 0x125 JUMPI MLOAD PUSH1 0x1 PUSH1 0x1 PUSH1 0xA0 SHL SUB DUP1 DUP3 AND DUP3 SUB PUSH2 0x125 JUMPI PUSH2 0x60 CALLER PUSH2 0x12A JUMP JUMPDEST DUP3 MLOAD SWAP4 PUSH2 0x4563 SWAP5 DUP6 DUP2 ADD SWAP6 DUP2 DUP8 LT DUP4 DUP9 GT OR PUSH2 0x10F JUMPI PUSH3 0x24E9 DUP3 CODECOPY DUP1 PUSH1 0x0 SWAP7 SUB SWAP1 DUP7 CREATE SWAP1 DUP2 ISZERO PUSH2 0x105 JUMPI DUP5 MLOAD SWAP2 PUSH2 0x5EE DUP1 DUP5 ADD SWAP3 DUP4 GT DUP5 DUP5 LT OR PUSH2 0xF1 JUMPI SWAP2 DUP5 DUP5 SWAP3 PUSH1 0x20 SWAP5 PUSH3 0x1EFB DUP6 CODECOPY AND DUP2 MSTORE SUB ADD SWAP1 DUP6 CREATE DUP1 ISZERO PUSH2 0xE4 JUMPI PUSH2 0xD6 SWAP4 SWAP5 POP AND PUSH1 0x1 DUP1 PUSH1 0xA0 SHL SUB NOT PUSH1 0x1 SLOAD AND OR PUSH1 0x1 SSTORE PUSH2 0x12A JUMP JUMPDEST MLOAD PUSH2 0x1D89 SWAP1 DUP2 PUSH3 0x172 DUP3 CODECOPY RETURN JUMPDEST POP POP POP MLOAD SWAP1 RETURNDATASIZE SWAP1 DUP3 RETURNDATACOPY RETURNDATASIZE SWAP1 REVERT JUMPDEST PUSH4 0x4E487B71 PUSH1 0xE0 SHL DUP9 MSTORE PUSH1 0x41 PUSH1 0x4 MSTORE PUSH1 0x24 DUP9 REVERT JUMPDEST DUP5 MLOAD RETURNDATASIZE DUP8 DUP3 RETURNDATACOPY RETURNDATASIZE SWAP1 REVERT JUMPDEST PUSH4 0x4E487B71 PUSH1 0xE0 SHL PUSH1 0x0 MSTORE PUSH1 0x41 PUSH1 0x4 MSTORE PUSH1 0x24 PUSH1 0x0 REVERT JUMPDEST PUSH1 0x0 DUP1 REVERT JUMPDEST PUSH1 0x0 DUP1 SLOAD PUSH1 0x1 PUSH1 0x1 PUSH1 0xA0 SHL SUB SWAP3 DUP4 AND PUSH1 0x1 PUSH1 0x1 PUSH1 0xA0 SHL SUB NOT DUP3 AND DUP2 OR DUP4 SSTORE SWAP3 AND SWAP1 PUSH32 0x8BE0079C531659141344CD1FD0A4F28419497F9722A3DAAFE3B4186F6B6457E0 SWAP1 DUP1 LOG3 JUMP INVALID PUSH1 0x80 PUSH1 0x40 MSTORE PUSH1 0x4 CALLDATASIZE LT ISZERO PUSH2 0x12 JUMPI PUSH1 0x0 DUP1 REVERT JUMPDEST PUSH1 0x0 DUP1 CALLDATALOAD PUSH1 0xE0 SHR DUP1 PUSH4 0x1BCE4583 EQ PUSH2 0x6BB JUMPI DUP1 PUSH4 0x25A570B8 EQ PUSH2 0x3DD JUMPI DUP1 PUSH4 0x59659E90 EQ PUSH2 0x38B JUMPI DUP1 PUSH4 0x64EFEE88 EQ PUSH2 0x291 JUMPI DUP1 PUSH4 0x715018A6 EQ PUSH2 0x1F4 JUMPI DUP1 PUSH4 0x8DA5CB5B EQ PUSH2 0x1A3 JUMPI PUSH4 0xF2FDE38B EQ PUSH2 0x6A JUMPI PUSH1 0x0 DUP1 REVERT JUMPDEST CALLVALUE PUSH2 0x1A0 JUMPI PUSH1 0x20 PUSH32 0xFFFFFFFFFFFFFFFFFFFFFFFFFFFFFFFFFFFFFFFFFFFFFFFFFFFFFFFFFFFFFFFC CALLDATASIZE ADD SLT PUSH2 0x1A0 JUMPI PUSH2 0xA1 PUSH2 0x77E JUMP JUMPDEST PUSH2 0xA9 PUSH2 0x9A7 JUMP JUMPDEST PUSH20 0xFFFFFFFFFFFFFFFFFFFFFFFFFFFFFFFFFFFFFFFF DUP1 SWAP2 AND SWAP1 DUP2 ISZERO PUSH2 0x11C JUMPI PUSH1 0x0 SLOAD DUP3 PUSH32 0xFFFFFFFFFFFFFFFFFFFFFFFF0000000000000000000000000000000000000000 DUP3 AND OR PUSH1 0x0 SSTORE AND PUSH32 0x8BE0079C531659141344CD1FD0A4F28419497F9722A3DAAFE3B4186F6B6457E0 PUSH1 0x0 DUP1 LOG3 DUP1 RETURN JUMPDEST PUSH1 0x84 PUSH1 0x40 MLOAD PUSH32 0x8C379A000000000000000000000000000000000000000000000000000000000 DUP2 MSTORE PUSH1 0x20 PUSH1 0x4 DUP3 ADD MSTORE PUSH1 0x26 PUSH1 0x24 DUP3 ADD MSTORE PUSH32 0x4F776E61626C653A206E6577206F776E657220697320746865207A65726F2061 PUSH1 0x44 DUP3 ADD MSTORE PUSH32 0x6464726573730000000000000000000000000000000000000000000000000000 PUSH1 0x64 DUP3 ADD MSTORE REVERT JUMPDEST DUP1 REVERT JUMPDEST POP CALLVALUE PUSH2 0x1A0 JUMPI DUP1 PUSH32 0xFFFFFFFFFFFFFFFFFFFFFFFFFFFFFFFFFFFFFFFFFFFFFFFFFFFFFFFFFFFFFFFC CALLDATASIZE ADD SLT PUSH2 0x1A0 JUMPI PUSH20 0xFFFFFFFFFFFFFFFFFFFFFFFFFFFFFFFFFFFFFFFF PUSH1 0x20 SWAP2 SLOAD AND PUSH1 0x40 MLOAD SWAP1 DUP2 MSTORE RETURN JUMPDEST POP CALLVALUE PUSH2 0x1A0 JUMPI DUP1 PUSH32 0xFFFFFFFFFFFFFFFFFFFFFFFFFFFFFFFFFFFFFFFFFFFFFFFFFFFFFFFFFFFFFFFC CALLDATASIZE ADD SLT PUSH2 0x1A0 JUMPI PUSH2 0x22B PUSH2 0x9A7 JUMP JUMPDEST PUSH1 0x0 PUSH20 0xFFFFFFFFFFFFFFFFFFFFFFFFFFFFFFFFFFFFFFFF DUP2 SLOAD PUSH32 0xFFFFFFFFFFFFFFFFFFFFFFFF0000000000000000000000000000000000000000 DUP2 AND DUP4 SSTORE AND PUSH32 0x8BE0079C531659141344CD1FD0A4F28419497F9722A3DAAFE3B4186F6B6457E0 DUP3 DUP1 LOG3 DUP1 RETURN JUMPDEST POP CALLVALUE PUSH2 0x1A0 JUMPI PUSH2 0x347 PUSH1 0x55 PUSH1 0xB PUSH2 0x2C7 PUSH2 0x2AA CALLDATASIZE PUSH2 0x8BB JUMP JUMPDEST SWAP2 PUSH1 0x40 SWAP13 SWAP8 SWAP12 SWAP7 SWAP6 SWAP13 SWAP9 SWAP4 SWAP9 MLOAD SWAP9 DUP10 SWAP6 PUSH1 0x20 SWAP15 DUP16 DUP9 ADD SWAP9 DUP10 PUSH2 0xA8C JUMP JUMPDEST SUB SWAP4 PUSH2 0x2F9 PUSH32 0xFFFFFFFFFFFFFFFFFFFFFFFFFFFFFFFFFFFFFFFFFFFFFFFFFFFFFFFFFFFFFFE0 SWAP6 DUP7 DUP2 ADD DUP4 MSTORE DUP3 PUSH2 0x805 JUMP JUMPDEST MLOAD SWAP1 KECCAK256 SWAP3 PUSH1 0x40 MLOAD SWAP3 PUSH2 0x30A DUP5 PUSH2 0x7E9 JUMP JUMPDEST DUP4 MSTORE PUSH20 0xFFFFFFFFFFFFFFFFFFFFFFFFFFFFFFFFFFFFFFFF SWAP7 PUSH2 0x33B DUP9 PUSH1 0x1 SLOAD AND SWAP5 PUSH1 0x40 MLOAD SWAP6 DUP7 SWAP4 DUP13 DUP6 ADD SWAP9 DUP10 PUSH2 0xB12 JUMP JUMPDEST SUB SWAP1 DUP2 ADD DUP4 MSTORE DUP3 PUSH2 0x805 JUMP JUMPDEST MLOAD SWAP1 KECCAK256 PUSH2 0x11EB PUSH1 0x40 MLOAD PUSH2 0x35C DUP8 DUP4 ADD DUP3 PUSH2 0x805 JUMP JUMPDEST DUP2 DUP2 MSTORE DUP7 DUP2 ADD SWAP2 PUSH2 0xB69 DUP4 CODECOPY MLOAD SWAP1 KECCAK256 SWAP1 PUSH1 0x40 MLOAD SWAP2 PUSH1 0x40 DUP4 ADD MSTORE DUP6 DUP3 ADD MSTORE ADDRESS DUP2 MSTORE ADD PUSH1 0xFF DUP2 MSTORE8 KECCAK256 PUSH1 0x40 MLOAD SWAP2 AND DUP2 MSTORE RETURN JUMPDEST POP CALLVALUE PUSH2 0x1A0 JUMPI DUP1 PUSH32 0xFFFFFFFFFFFFFFFFFFFFFFFFFFFFFFFFFFFFFFFFFFFFFFFFFFFFFFFFFFFFFFFC CALLDATASIZE ADD SLT PUSH2 0x1A0 JUMPI PUSH1 0x20 PUSH20 0xFFFFFFFFFFFFFFFFFFFFFFFFFFFFFFFFFFFFFFFF PUSH1 0x1 SLOAD AND PUSH1 0x40 MLOAD SWAP1 DUP2 MSTORE RETURN JUMPDEST POP CALLVALUE PUSH2 0x1A0 JUMPI PUSH2 0x43E PUSH2 0x412 PUSH2 0x3F2 CALLDATASIZE PUSH2 0x8BB JUMP JUMPDEST SWAP3 SWAP4 DUP3 SWAP10 DUP7 DUP3 SWAP11 DUP7 DUP6 DUP12 SWAP11 SWAP12 SWAP7 SWAP8 DUP11 PUSH1 0x40 MLOAD SWAP8 DUP9 SWAP7 PUSH1 0x20 DUP9 ADD SWAP11 DUP12 PUSH2 0xA8C JUMP JUMPDEST SUB PUSH32 0xFFFFFFFFFFFFFFFFFFFFFFFFFFFFFFFFFFFFFFFFFFFFFFFFFFFFFFFFFFFFFFE0 DUP2 ADD DUP4 MSTORE DUP3 PUSH2 0x805 JUMP JUMPDEST MLOAD SWAP1 KECCAK256 SWAP8 PUSH1 0x40 MLOAD PUSH2 0x44E DUP2 PUSH2 0x7E9 JUMP JUMPDEST DUP11 DUP2 MSTORE PUSH20 0xFFFFFFFFFFFFFFFFFFFFFFFFFFFFFFFFFFFFFFFF SWAP10 DUP11 PUSH1 0x1 SLOAD AND PUSH2 0x485 DUP11 PUSH2 0x412 DUP6 PUSH1 0x40 MLOAD SWAP5 DUP6 SWAP4 PUSH1 0x20 DUP6 ADD SWAP8 DUP9 PUSH2 0xB12 JUMP JUMPDEST MLOAD SWAP1 KECCAK256 PUSH2 0x11EB SWAP1 PUSH1 0x40 MLOAD PUSH2 0x49C PUSH1 0x20 DUP5 ADD DUP3 PUSH2 0x805 JUMP JUMPDEST DUP3 DUP2 MSTORE PUSH1 0x20 DUP2 ADD SWAP3 PUSH2 0xB69 DUP5 CODECOPY DUP1 MLOAD ISZERO PUSH2 0x65D JUMPI MLOAD DUP13 SWAP3 DUP15 CREATE2 AND SWAP10 DUP11 ISZERO PUSH2 0x5FF JUMPI DUP12 SWAP9 DUP2 PUSH1 0x1 SLOAD AND SWAP1 DUP13 EXTCODESIZE ISZERO PUSH2 0x5FB JUMPI DUP11 SWAP3 DUP4 DUP15 SWAP3 PUSH2 0x51D PUSH1 0x40 MLOAD SWAP8 DUP9 SWAP7 DUP8 SWAP6 DUP7 SWAP5 PUSH32 0xCF7A1D7700000000000000000000000000000000000000000000000000000000 DUP7 MSTORE AND PUSH1 0x4 DUP6 ADD MSTORE PUSH1 0x24 DUP5 ADD MSTORE PUSH1 0x60 PUSH1 0x44 DUP5 ADD MSTORE PUSH1 0x64 DUP4 ADD SWAP1 PUSH2 0xA49 JUMP JUMPDEST SUB SWAP3 GAS CALL SWAP1 DUP2 ISZERO PUSH2 0x5F0 JUMPI DUP9 SWAP2 PUSH2 0x5DC JUMPI JUMPDEST POP POP DUP9 EXTCODESIZE ISZERO PUSH2 0x5D8 JUMPI PUSH2 0x570 SWAP4 PUSH1 0x40 MLOAD SWAP9 DUP10 SWAP8 DUP9 SWAP8 PUSH32 0x98DD69C800000000000000000000000000000000000000000000000000000000 DUP10 MSTORE PUSH1 0x4 DUP10 ADD PUSH2 0xA8C JUMP JUMPDEST SUB DUP2 DUP4 DUP7 GAS CALL DUP1 ISZERO PUSH2 0x5CD JUMPI PUSH2 0x5B5 JUMPI JUMPDEST PUSH1 0x20 DUP3 PUSH32 0x47E27C5AB10C568FD18FF716738C5DD5257732E878DD2CA116C5B4AF900D9E3D DUP3 PUSH1 0x40 MLOAD DUP4 DUP2 MSTORE LOG1 PUSH1 0x40 MLOAD SWAP1 DUP2 MSTORE RETURN JUMPDEST PUSH2 0x5BF DUP4 SWAP2 PUSH2 0x7A6 JUMP JUMPDEST PUSH2 0x5C9 JUMPI DUP2 PUSH2 0x581 JUMP JUMPDEST POP DUP1 REVERT JUMPDEST PUSH1 0x40 MLOAD RETURNDATASIZE DUP6 DUP3 RETURNDATACOPY RETURNDATASIZE SWAP1 REVERT JUMPDEST DUP7 DUP1 REVERT JUMPDEST PUSH2 0x5E5 SWAP1 PUSH2 0x7A6 JUMP JUMPDEST PUSH2 0x5D8 JUMPI DUP7 CODESIZE PUSH2 0x52F JUMP JUMPDEST PUSH1 0x40 MLOAD RETURNDATASIZE DUP11 DUP3 RETURNDATACOPY RETURNDATASIZE SWAP1 REVERT JUMPDEST DUP11 DUP1 REVERT JUMPDEST PUSH1 0x64 PUSH1 0x40 MLOAD PUSH32 0x8C379A000000000000000000000000000000000000000000000000000000000 DUP2 MSTORE PUSH1 0x20 PUSH1 0x4 DUP3 ADD MSTORE PUSH1 0x19 PUSH1 0x24 DUP3 ADD MSTORE PUSH32 0x437265617465323A204661696C6564206F6E206465706C6F7900000000000000 PUSH1 0x44 DUP3 ADD MSTORE REVERT JUMPDEST PUSH1 0x64 PUSH1 0x40 MLOAD PUSH32 0x8C379A000000000000000000000000000000000000000000000000000000000 DUP2 MSTORE PUSH1 0x20 PUSH1 0x4 DUP3 ADD MSTORE PUSH1 0x20 PUSH1 0x24 DUP3 ADD MSTORE PUSH32 0x437265617465323A2062797465636F6465206C656E677468206973207A65726F PUSH1 0x44 DUP3 ADD MSTORE REVERT JUMPDEST POP CALLVALUE PUSH2 0x1A0 JUMPI PUSH1 0x20 PUSH32 0xFFFFFFFFFFFFFFFFFFFFFFFFFFFFFFFFFFFFFFFFFFFFFFFFFFFFFFFFFFFFFFFC CALLDATASIZE ADD SLT PUSH2 0x1A0 JUMPI PUSH2 0x6F3 PUSH2 0x77E JUMP JUMPDEST PUSH2 0x6FB PUSH2 0x9A7 JUMP JUMPDEST DUP2 PUSH20 0xFFFFFFFFFFFFFFFFFFFFFFFFFFFFFFFFFFFFFFFF DUP1 PUSH1 0x1 SLOAD AND SWAP3 DUP4 EXTCODESIZE ISZERO PUSH2 0x77A JUMPI PUSH1 0x24 SWAP1 DUP4 PUSH1 0x40 MLOAD SWAP6 DUP7 SWAP5 DUP6 SWAP4 PUSH32 0x3659CFE600000000000000000000000000000000000000000000000000000000 DUP6 MSTORE AND PUSH1 0x4 DUP5 ADD MSTORE GAS CALL DUP1 ISZERO PUSH2 0x76F JUMPI PUSH2 0x763 JUMPI POP DUP1 RETURN JUMPDEST PUSH2 0x76C SWAP1 PUSH2 0x7A6 JUMP JUMPDEST DUP1 RETURN JUMPDEST PUSH1 0x40 MLOAD RETURNDATASIZE DUP5 DUP3 RETURNDATACOPY RETURNDATASIZE SWAP1 REVERT JUMPDEST DUP3 DUP1 REVERT JUMPDEST PUSH1 0x4 CALLDATALOAD SWAP1 PUSH20 0xFFFFFFFFFFFFFFFFFFFFFFFFFFFFFFFFFFFFFFFF DUP3 AND DUP3 SUB PUSH2 0x7A1 JUMPI JUMP JUMPDEST PUSH1 0x0 DUP1 REVERT JUMPDEST PUSH8 0xFFFFFFFFFFFFFFFF DUP2 GT PUSH2 0x7BA JUMPI PUSH1 0x40 MSTORE JUMP JUMPDEST PUSH32 0x4E487B7100000000000000000000000000000000000000000000000000000000 PUSH1 0x0 MSTORE PUSH1 0x41 PUSH1 0x4 MSTORE PUSH1 0x24 PUSH1 0x0 REVERT JUMPDEST PUSH1 0x20 DUP2 ADD SWAP1 DUP2 LT PUSH8 0xFFFFFFFFFFFFFFFF DUP3 GT OR PUSH2 0x7BA JUMPI PUSH1 0x40 MSTORE JUMP JUMPDEST SWAP1 PUSH1 0x1F PUSH32 0xFFFFFFFFFFFFFFFFFFFFFFFFFFFFFFFFFFFFFFFFFFFFFFFFFFFFFFFFFFFFFFE0 SWAP2 ADD AND DUP2 ADD SWAP1 DUP2 LT PUSH8 0xFFFFFFFFFFFFFFFF DUP3 GT OR PUSH2 0x7BA JUMPI PUSH1 0x40 MSTORE JUMP JUMPDEST DUP2 PUSH1 0x1F DUP3 ADD SLT ISZERO PUSH2 0x7A1 JUMPI DUP1 CALLDATALOAD SWAP1 PUSH8 0xFFFFFFFFFFFFFFFF DUP3 GT PUSH2 0x7BA JUMPI PUSH1 0x40 MLOAD SWAP3 PUSH2 0x899 PUSH1 0x20 PUSH32 0xFFFFFFFFFFFFFFFFFFFFFFFFFFFFFFFFFFFFFFFFFFFFFFFFFFFFFFFFFFFFFFE0 PUSH1 0x1F DUP7 ADD AND ADD DUP6 PUSH2 0x805 JUMP JUMPDEST DUP3 DUP5 MSTORE PUSH1 0x20 DUP4 DUP4 ADD ADD GT PUSH2 0x7A1 JUMPI DUP2 PUSH1 0x0 SWAP3 PUSH1 0x20 DUP1 SWAP4 ADD DUP4 DUP7 ADD CALLDATACOPY DUP4 ADD ADD MSTORE SWAP1 JUMP JUMPDEST PUSH2 0x100 PUSH32 0xFFFFFFFFFFFFFFFFFFFFFFFFFFFFFFFFFFFFFFFFFFFFFFFFFFFFFFFFFFFFFFFC DUP3 ADD SLT PUSH2 0x7A1 JUMPI PUSH20 0xFFFFFFFFFFFFFFFFFFFFFFFFFFFFFFFFFFFFFFFF SWAP2 PUSH1 0x4 CALLDATALOAD DUP4 DUP2 AND DUP2 SUB PUSH2 0x7A1 JUMPI SWAP3 PUSH1 0x24 CALLDATALOAD DUP2 DUP2 AND DUP2 SUB PUSH2 0x7A1 JUMPI SWAP3 PUSH8 0xFFFFFFFFFFFFFFFF SWAP2 PUSH1 0x44 CALLDATALOAD DUP4 DUP2 GT PUSH2 0x7A1 JUMPI DUP3 PUSH2 0x937 SWAP2 PUSH1 0x4 ADD PUSH2 0x846 JUMP JUMPDEST SWAP4 PUSH1 0x64 CALLDATALOAD DUP5 DUP2 GT PUSH2 0x7A1 JUMPI DUP4 PUSH2 0x94F SWAP2 PUSH1 0x4 ADD PUSH2 0x846 JUMP JUMPDEST SWAP4 PUSH1 0x84 CALLDATALOAD DUP2 DUP2 GT PUSH2 0x7A1 JUMPI DUP5 PUSH2 0x967 SWAP2 PUSH1 0x4 ADD PUSH2 0x846 JUMP JUMPDEST SWAP4 PUSH1 0xA4 CALLDATALOAD SWAP2 DUP3 GT PUSH2 0x7A1 JUMPI PUSH2 0x97E SWAP2 PUSH1 0x4 ADD PUSH2 0x846 JUMP JUMPDEST SWAP2 PUSH1 0xC4 CALLDATALOAD SWAP1 DUP2 AND DUP2 SUB PUSH2 0x7A1 JUMPI SWAP1 PUSH1 0xE4 CALLDATALOAD PUSH12 0xFFFFFFFFFFFFFFFFFFFFFFFF DUP2 AND DUP2 SUB PUSH2 0x7A1 JUMPI SWAP1 JUMP JUMPDEST PUSH20 0xFFFFFFFFFFFFFFFFFFFFFFFFFFFFFFFFFFFFFFFF PUSH1 0x0 SLOAD AND CALLER SUB PUSH2 0x9C8 JUMPI JUMP JUMPDEST PUSH1 0x64 PUSH1 0x40 MLOAD PUSH32 0x8C379A000000000000000000000000000000000000000000000000000000000 DUP2 MSTORE PUSH1 0x20 PUSH1 0x4 DUP3 ADD MSTORE PUSH1 0x20 PUSH1 0x24 DUP3 ADD MSTORE PUSH32 0x4F776E61626C653A2063616C6C6572206973206E6F7420746865206F776E6572 PUSH1 0x44 DUP3 ADD MSTORE REVERT JUMPDEST PUSH1 0x0 JUMPDEST DUP4 DUP2 LT PUSH2 0xA39 JUMPI POP POP PUSH1 0x0 SWAP2 ADD MSTORE JUMP JUMPDEST DUP2 DUP2 ADD MLOAD DUP4 DUP3 ADD MSTORE PUSH1 0x20 ADD PUSH2 0xA29 JUMP JUMPDEST SWAP1 PUSH32 0xFFFFFFFFFFFFFFFFFFFFFFFFFFFFFFFFFFFFFFFFFFFFFFFFFFFFFFFFFFFFFFE0 PUSH1 0x1F PUSH1 0x20 SWAP4 PUSH2 0xA85 DUP2 MLOAD DUP1 SWAP3 DUP2 DUP8 MSTORE DUP8 DUP1 DUP9 ADD SWAP2 ADD PUSH2 0xA26 JUMP JUMPDEST ADD AND ADD ADD SWAP1 JUMP JUMPDEST SWAP6 SWAP8 SWAP7 SWAP3 SWAP5 PUSH2 0xAF7 PUSH12 0xFFFFFFFFFFFFFFFFFFFFFFFF SWAP6 PUSH2 0xAE9 PUSH1 0xC0 SWAP9 PUSH2 0xADB PUSH2 0xB05 SWAP7 SWAP8 PUSH1 0xE0 PUSH1 0x20 DUP15 PUSH20 0xFFFFFFFFFFFFFFFFFFFFFFFFFFFFFFFFFFFFFFFF DUP1 SWAP13 AND DUP2 MSTORE ADD MSTORE PUSH1 0xE0 DUP14 ADD SWAP1 PUSH2 0xA49 JUMP JUMPDEST SWAP1 DUP12 DUP3 SUB PUSH1 0x40 DUP14 ADD MSTORE PUSH2 0xA49 JUMP JUMPDEST SWAP1 DUP10 DUP3 SUB PUSH1 0x60 DUP12 ADD MSTORE PUSH2 0xA49 JUMP JUMPDEST SWAP1 DUP8 DUP3 SUB PUSH1 0x80 DUP10 ADD MSTORE PUSH2 0xA49 JUMP JUMPDEST SWAP7 AND PUSH1 0xA0 DUP6 ADD MSTORE AND SWAP2 ADD MSTORE JUMP JUMPDEST SWAP2 SWAP1 SWAP3 PUSH1 0x48 SWAP5 SWAP4 DUP4 MSTORE PUSH32 0xFFFFFFFFFFFFFFFFFFFFFFFFFFFFFFFFFFFFFFFF000000000000000000000000 DUP1 SWAP3 PUSH1 0x60 SHL AND PUSH1 0x20 DUP5 ADD MSTORE PUSH1 0x60 SHL AND PUSH1 0x34 DUP3 ADD MSTORE PUSH2 0xB63 DUP3 MLOAD DUP1 SWAP4 PUSH1 0x20 DUP7 DUP6 ADD SWAP2 ADD PUSH2 0xA26 JUMP JUMPDEST ADD ADD SWAP1 JUMP INVALID PUSH1 0x80 DUP1 PUSH1 0x40 MSTORE CALLVALUE PUSH2 0x16 JUMPI PUSH2 0x11CF SWAP1 DUP2 PUSH2 0x1C DUP3 CODECOPY RETURN JUMPDEST PUSH1 0x0 DUP1 REVERT INVALID PUSH1 0x40 PUSH1 0x80 DUP2 MSTORE CALLDATASIZE PUSH2 0x382 JUMPI PUSH20 0xFFFFFFFFFFFFFFFFFFFFFFFFFFFFFFFFFFFFFFFF DUP1 PUSH32 0xB53127684A568B3173AE13B9F8A6016E243E63B6E8EE1178D6A717850B5D6103 SLOAD AND ISZERO DUP1 ISZERO PUSH2 0xB94 JUMPI PUSH1 0x0 SWAP2 PUSH32 0xCF7A1D7700000000000000000000000000000000000000000000000000000000 PUSH32 0xFFFFFFFF00000000000000000000000000000000000000000000000000000000 DUP5 CALLDATALOAD AND EQ PUSH2 0xC0 JUMPI PUSH1 0x4 DUP5 MLOAD PUSH32 0xF92EE8A900000000000000000000000000000000000000000000000000000000 DUP2 MSTORE REVERT JUMPDEST PUSH2 0xC8 PUSH2 0x1192 JUMP JUMPDEST PUSH1 0x4 SWAP2 CALLDATASIZE DUP4 GT PUSH2 0x37E JUMPI PUSH1 0x60 PUSH32 0xFFFFFFFFFFFFFFFFFFFFFFFFFFFFFFFFFFFFFFFFFFFFFFFFFFFFFFFFFFFFFFFC CALLDATASIZE ADD SLT PUSH2 0x37E JUMPI DUP3 CALLDATALOAD SWAP2 PUSH2 0x108 DUP4 PUSH2 0x67F JUMP JUMPDEST PUSH1 0x24 CALLDATALOAD SWAP3 PUSH2 0x115 DUP5 PUSH2 0x67F JUMP JUMPDEST PUSH1 0x44 CALLDATALOAD PUSH8 0xFFFFFFFFFFFFFFFF DUP2 GT PUSH2 0x37A JUMPI PUSH2 0x135 DUP4 SWAP2 CALLDATASIZE SWAP1 DUP9 ADD PUSH2 0x789 JUMP JUMPDEST SWAP5 AND SWAP3 ISZERO PUSH2 0x352 JUMPI PUSH2 0x147 SWAP2 AND PUSH2 0x7E3 JUMP JUMPDEST DUP1 EXTCODESIZE ISZERO PUSH2 0x2CF JUMPI DUP5 MLOAD SWAP1 PUSH32 0x5C60DA1B00000000000000000000000000000000000000000000000000000000 SWAP4 DUP5 DUP4 MSTORE PUSH1 0x20 SWAP7 DUP8 DUP5 DUP4 DUP2 DUP7 GAS STATICCALL SWAP4 DUP5 ISZERO PUSH2 0x2A6 JUMPI DUP9 SWAP5 PUSH2 0x19D SWAP2 DUP10 SWAP2 PUSH2 0x2B2 JUMPI JUMPDEST POP EXTCODESIZE ISZERO ISZERO PUSH2 0x926 JUMP JUMPDEST PUSH32 0xA3F0AD74E5423AEBFD80D3EF4346578335A9A72AEAEE59FF6CB3582B35133D50 DUP1 SLOAD PUSH32 0xFFFFFFFFFFFFFFFFFFFFFFFF0000000000000000000000000000000000000000 AND PUSH20 0xFFFFFFFFFFFFFFFFFFFFFFFFFFFFFFFFFFFFFFFF DUP6 AND OR SWAP1 SSTORE MLOAD SWAP5 DUP3 PUSH32 0x1CF3B03A6CF19FA2BABA4DF148E9DCABEDEA7F8A5C07840E207E5C089BE95D3E DUP9 DUP1 LOG2 DUP5 MLOAD ISZERO DUP1 ISZERO SWAP1 PUSH2 0x2AB JUMPI JUMPDEST PUSH2 0x242 JUMPI JUMPDEST DUP4 PUSH2 0x23C PUSH2 0x7D0 JUMP JUMPDEST DUP1 MLOAD SWAP2 ADD RETURN JUMPDEST DUP6 SWAP3 DUP4 SWAP2 DUP3 MSTORE GAS STATICCALL SWAP2 DUP3 ISZERO PUSH2 0x2A6 JUMPI PUSH2 0x26A SWAP4 SWAP3 PUSH2 0x277 JUMPI JUMPDEST POP PUSH2 0x264 PUSH2 0x9B1 JUMP JUMPDEST SWAP2 PUSH2 0xA21 JUMP JUMPDEST POP CODESIZE DUP1 DUP1 DUP4 DUP2 DUP1 DUP1 PUSH2 0x233 JUMP JUMPDEST PUSH2 0x298 SWAP2 SWAP3 POP DUP5 RETURNDATASIZE DUP7 GT PUSH2 0x29F JUMPI JUMPDEST PUSH2 0x290 DUP2 DUP4 PUSH2 0x70E JUMP JUMPDEST DUP2 ADD SWAP1 PUSH2 0x902 JUMP JUMPDEST SWAP1 CODESIZE PUSH2 0x25B JUMP JUMPDEST POP RETURNDATASIZE PUSH2 0x286 JUMP JUMPDEST PUSH2 0x91A JUMP JUMPDEST POP DUP7 PUSH2 0x22E JUMP JUMPDEST PUSH2 0x2C9 SWAP2 POP DUP7 RETURNDATASIZE DUP9 GT PUSH2 0x29F JUMPI PUSH2 0x290 DUP2 DUP4 PUSH2 0x70E JUMP JUMPDEST CODESIZE PUSH2 0x194 JUMP JUMPDEST PUSH1 0x84 DUP4 PUSH1 0x20 DUP8 MLOAD SWAP2 PUSH32 0x8C379A000000000000000000000000000000000000000000000000000000000 DUP4 MSTORE DUP3 ADD MSTORE PUSH1 0x25 PUSH1 0x24 DUP3 ADD MSTORE PUSH32 0x455243313936373A206E657720626561636F6E206973206E6F74206120636F6E PUSH1 0x44 DUP3 ADD MSTORE PUSH32 0x7472616374000000000000000000000000000000000000000000000000000000 PUSH1 0x64 DUP3 ADD MSTORE REVERT JUMPDEST DUP5 DUP8 MLOAD PUSH32 0xF92EE8A900000000000000000000000000000000000000000000000000000000 DUP2 MSTORE REVERT JUMPDEST DUP7 DUP1 REVERT JUMPDEST DUP4 DUP1 REVERT JUMPDEST PUSH20 0xFFFFFFFFFFFFFFFFFFFFFFFFFFFFFFFFFFFFFFFF DUP1 PUSH32 0xB53127684A568B3173AE13B9F8A6016E243E63B6E8EE1178D6A717850B5D6103 SLOAD AND ISZERO DUP1 ISZERO PUSH2 0xB94 JUMPI PUSH1 0x0 SWAP1 PUSH32 0xCF7A1D7700000000000000000000000000000000000000000000000000000000 PUSH32 0xFFFFFFFF00000000000000000000000000000000000000000000000000000000 DUP4 CALLDATALOAD AND EQ PUSH2 0x439 JUMPI PUSH1 0x4 PUSH1 0x40 MLOAD PUSH32 0xF92EE8A900000000000000000000000000000000000000000000000000000000 DUP2 MSTORE REVERT JUMPDEST PUSH2 0x441 PUSH2 0x1192 JUMP JUMPDEST PUSH1 0x4 SWAP3 CALLDATASIZE DUP5 GT PUSH2 0x67B JUMPI PUSH1 0x60 PUSH32 0xFFFFFFFFFFFFFFFFFFFFFFFFFFFFFFFFFFFFFFFFFFFFFFFFFFFFFFFFFFFFFFFC CALLDATASIZE ADD SLT PUSH2 0x67B JUMPI DUP4 CALLDATALOAD PUSH2 0x480 DUP2 PUSH2 0x67F JUMP JUMPDEST PUSH1 0x24 CALLDATALOAD SWAP2 PUSH2 0x48D DUP4 PUSH2 0x67F JUMP JUMPDEST PUSH1 0x44 CALLDATALOAD PUSH8 0xFFFFFFFFFFFFFFFF DUP2 GT PUSH2 0x677 JUMPI PUSH2 0x4AD DUP3 SWAP2 CALLDATASIZE SWAP1 DUP10 ADD PUSH2 0x789 JUMP JUMPDEST SWAP4 AND SWAP4 ISZERO PUSH2 0x64E JUMPI PUSH2 0x4BF SWAP2 AND PUSH2 0x7E3 JUMP JUMPDEST DUP2 EXTCODESIZE ISZERO PUSH2 0x5CA JUMPI PUSH1 0x40 MLOAD PUSH32 0x5C60DA1B00000000000000000000000000000000000000000000000000000000 SWAP3 DUP4 DUP3 MSTORE PUSH1 0x20 SWAP6 DUP7 DUP4 DUP3 DUP2 DUP6 GAS STATICCALL SWAP3 DUP4 ISZERO PUSH2 0x2A6 JUMPI DUP8 SWAP4 PUSH2 0x514 SWAP2 DUP9 SWAP2 PUSH2 0x5B3 JUMPI POP EXTCODESIZE ISZERO ISZERO PUSH2 0x926 JUMP JUMPDEST PUSH32 0xA3F0AD74E5423AEBFD80D3EF4346578335A9A72AEAEE59FF6CB3582B35133D50 DUP1 SLOAD PUSH32 0xFFFFFFFFFFFFFFFFFFFFFFFF0000000000000000000000000000000000000000 AND PUSH20 0xFFFFFFFFFFFFFFFFFFFFFFFFFFFFFFFFFFFFFFFF DUP5 AND OR SWAP1 SSTORE PUSH1 0x40 MLOAD SWAP5 DUP3 PUSH32 0x1CF3B03A6CF19FA2BABA4DF148E9DCABEDEA7F8A5C07840E207E5C089BE95D3E DUP9 DUP1 LOG2 DUP5 MLOAD ISZERO DUP1 ISZERO SWAP1 PUSH2 0x2AB JUMPI PUSH2 0x242 JUMPI DUP4 PUSH2 0x23C PUSH2 0x7D0 JUMP JUMPDEST PUSH2 0x2C9 SWAP2 POP DUP6 RETURNDATASIZE DUP8 GT PUSH2 0x29F JUMPI PUSH2 0x290 DUP2 DUP4 PUSH2 0x70E JUMP JUMPDEST PUSH1 0x84 DUP5 PUSH1 0x20 PUSH1 0x40 MLOAD SWAP2 PUSH32 0x8C379A000000000000000000000000000000000000000000000000000000000 DUP4 MSTORE DUP3 ADD MSTORE PUSH1 0x25 PUSH1 0x24 DUP3 ADD MSTORE PUSH32 0x455243313936373A206E657720626561636F6E206973206E6F74206120636F6E PUSH1 0x44 DUP3 ADD MSTORE PUSH32 0x7472616374000000000000000000000000000000000000000000000000000000 PUSH1 0x64 DUP3 ADD MSTORE REVERT JUMPDEST DUP6 PUSH1 0x40 MLOAD PUSH32 0xF92EE8A900000000000000000000000000000000000000000000000000000000 DUP2 MSTORE REVERT JUMPDEST DUP6 DUP1 REVERT JUMPDEST DUP3 DUP1 REVERT JUMPDEST PUSH20 0xFFFFFFFFFFFFFFFFFFFFFFFFFFFFFFFFFFFFFFFF DUP2 AND SUB PUSH2 0x69D JUMPI JUMP JUMPDEST PUSH1 0x0 DUP1 REVERT JUMPDEST PUSH32 0x4E487B7100000000000000000000000000000000000000000000000000000000 PUSH1 0x0 MSTORE PUSH1 0x41 PUSH1 0x4 MSTORE PUSH1 0x24 PUSH1 0x0 REVERT JUMPDEST PUSH1 0x20 DUP2 ADD SWAP1 DUP2 LT PUSH8 0xFFFFFFFFFFFFFFFF DUP3 GT OR PUSH2 0x6ED JUMPI PUSH1 0x40 MSTORE JUMP JUMPDEST PUSH2 0x6A2 JUMP JUMPDEST PUSH1 0x40 DUP2 ADD SWAP1 DUP2 LT PUSH8 0xFFFFFFFFFFFFFFFF DUP3 GT OR PUSH2 0x6ED JUMPI PUSH1 0x40 MSTORE JUMP JUMPDEST SWAP1 PUSH1 0x1F PUSH32 0xFFFFFFFFFFFFFFFFFFFFFFFFFFFFFFFFFFFFFFFFFFFFFFFFFFFFFFFFFFFFFFE0 SWAP2 ADD AND DUP2 ADD SWAP1 DUP2 LT PUSH8 0xFFFFFFFFFFFFFFFF DUP3 GT OR PUSH2 0x6ED JUMPI PUSH1 0x40 MSTORE JUMP JUMPDEST PUSH8 0xFFFFFFFFFFFFFFFF DUP2 GT PUSH2 0x6ED JUMPI PUSH1 0x1F ADD PUSH32 0xFFFFFFFFFFFFFFFFFFFFFFFFFFFFFFFFFFFFFFFFFFFFFFFFFFFFFFFFFFFFFFE0 AND PUSH1 0x20 ADD SWAP1 JUMP JUMPDEST DUP2 PUSH1 0x1F DUP3 ADD SLT ISZERO PUSH2 0x69D JUMPI DUP1 CALLDATALOAD SWAP1 PUSH2 0x7A0 DUP3 PUSH2 0x74F JUMP JUMPDEST SWAP3 PUSH2 0x7AE PUSH1 0x40 MLOAD SWAP5 DUP6 PUSH2 0x70E JUMP JUMPDEST DUP3 DUP5 MSTORE PUSH1 0x20 DUP4 DUP4 ADD ADD GT PUSH2 0x69D JUMPI DUP2 PUSH1 0x0 SWAP3 PUSH1 0x20 DUP1 SWAP4 ADD DUP4 DUP7 ADD CALLDATACOPY DUP4 ADD ADD MSTORE SWAP1 JUMP JUMPDEST PUSH1 0x40 MLOAD SWAP1 PUSH2 0x7DD DUP3 PUSH2 0x6D1 JUMP JUMPDEST PUSH1 0x0 DUP3 MSTORE JUMP JUMPDEST PUSH32 0xB53127684A568B3173AE13B9F8A6016E243E63B6E8EE1178D6A717850B5D6103 SWAP1 DUP2 SLOAD PUSH32 0x7E644D79422F17C01E4894B5F4F588D331EBFA28653D42AE832DC59E38C9798F PUSH1 0x40 DUP1 MLOAD SWAP4 PUSH20 0xFFFFFFFFFFFFFFFFFFFFFFFFFFFFFFFFFFFFFFFF SWAP1 DUP2 DUP6 AND DUP7 MSTORE AND SWAP4 DUP5 PUSH1 0x20 DUP3 ADD MSTORE LOG1 DUP2 ISZERO PUSH2 0x87E JUMPI PUSH32 0xFFFFFFFFFFFFFFFFFFFFFFFF0000000000000000000000000000000000000000 AND OR SWAP1 SSTORE JUMP JUMPDEST PUSH1 0x84 PUSH1 0x40 MLOAD PUSH32 0x8C379A000000000000000000000000000000000000000000000000000000000 DUP2 MSTORE PUSH1 0x20 PUSH1 0x4 DUP3 ADD MSTORE PUSH1 0x26 PUSH1 0x24 DUP3 ADD MSTORE PUSH32 0x455243313936373A206E65772061646D696E20697320746865207A65726F2061 PUSH1 0x44 DUP3 ADD MSTORE PUSH32 0x6464726573730000000000000000000000000000000000000000000000000000 PUSH1 0x64 DUP3 ADD MSTORE REVERT JUMPDEST SWAP1 DUP2 PUSH1 0x20 SWAP2 SUB SLT PUSH2 0x69D JUMPI MLOAD PUSH2 0x917 DUP2 PUSH2 0x67F JUMP JUMPDEST SWAP1 JUMP JUMPDEST PUSH1 0x40 MLOAD RETURNDATASIZE PUSH1 0x0 DUP3 RETURNDATACOPY RETURNDATASIZE SWAP1 REVERT JUMPDEST ISZERO PUSH2 0x92D JUMPI JUMP JUMPDEST PUSH1 0x84 PUSH1 0x40 MLOAD PUSH32 0x8C379A000000000000000000000000000000000000000000000000000000000 DUP2 MSTORE PUSH1 0x20 PUSH1 0x4 DUP3 ADD MSTORE PUSH1 0x30 PUSH1 0x24 DUP3 ADD MSTORE PUSH32 0x455243313936373A20626561636F6E20696D706C656D656E746174696F6E2069 PUSH1 0x44 DUP3 ADD MSTORE PUSH32 0x73206E6F74206120636F6E747261637400000000000000000000000000000000 PUSH1 0x64 DUP3 ADD MSTORE REVERT JUMPDEST PUSH1 0x40 MLOAD SWAP1 PUSH1 0x60 DUP3 ADD DUP3 DUP2 LT PUSH8 0xFFFFFFFFFFFFFFFF DUP3 GT OR PUSH2 0x6ED JUMPI PUSH1 0x40 MSTORE PUSH1 0x27 DUP3 MSTORE PUSH32 0x206661696C656400000000000000000000000000000000000000000000000000 PUSH1 0x40 DUP4 PUSH32 0x416464726573733A206C6F772D6C6576656C2064656C65676174652063616C6C PUSH1 0x20 DUP3 ADD MSTORE ADD MSTORE JUMP JUMPDEST PUSH1 0x0 DUP1 PUSH2 0x917 SWAP5 SWAP4 PUSH1 0x20 DUP2 MLOAD SWAP2 ADD DUP5 GAS DELEGATECALL RETURNDATASIZE ISZERO PUSH2 0xA60 JUMPI RETURNDATASIZE SWAP2 PUSH2 0xA43 DUP4 PUSH2 0x74F JUMP JUMPDEST SWAP3 PUSH2 0xA51 PUSH1 0x40 MLOAD SWAP5 DUP6 PUSH2 0x70E JUMP JUMPDEST DUP4 MSTORE RETURNDATASIZE PUSH1 0x0 PUSH1 0x20 DUP6 ADD RETURNDATACOPY PUSH2 0xACD JUMP JUMPDEST PUSH1 0x60 SWAP2 PUSH2 0xACD JUMP JUMPDEST ISZERO PUSH2 0xA6F JUMPI JUMP JUMPDEST PUSH1 0x64 PUSH1 0x40 MLOAD PUSH32 0x8C379A000000000000000000000000000000000000000000000000000000000 DUP2 MSTORE PUSH1 0x20 PUSH1 0x4 DUP3 ADD MSTORE PUSH1 0x1D PUSH1 0x24 DUP3 ADD MSTORE PUSH32 0x416464726573733A2063616C6C20746F206E6F6E2D636F6E7472616374000000 PUSH1 0x44 DUP3 ADD MSTORE REVERT JUMPDEST SWAP2 SWAP3 SWAP1 ISZERO PUSH2 0xAED JUMPI POP DUP2 MLOAD ISZERO PUSH2 0xAE1 JUMPI POP SWAP1 JUMP JUMPDEST PUSH2 0x917 SWAP1 EXTCODESIZE ISZERO ISZERO PUSH2 0xA68 JUMP JUMPDEST DUP3 MLOAD SWAP1 SWAP2 POP ISZERO PUSH2 0xB00 JUMPI POP DUP1 MLOAD SWAP1 PUSH1 0x20 ADD REVERT JUMPDEST PUSH1 0x40 MLOAD SWAP1 PUSH32 0x8C379A000000000000000000000000000000000000000000000000000000000 DUP3 MSTORE DUP2 PUSH1 0x20 DUP1 PUSH1 0x4 DUP4 ADD MSTORE DUP3 MLOAD SWAP3 DUP4 PUSH1 0x24 DUP5 ADD MSTORE PUSH1 0x0 JUMPDEST DUP5 DUP2 LT PUSH2 0xB7D JUMPI POP POP POP PUSH32 0xFFFFFFFFFFFFFFFFFFFFFFFFFFFFFFFFFFFFFFFFFFFFFFFFFFFFFFFFFFFFFFE0 PUSH1 0x1F DUP4 PUSH1 0x0 PUSH1 0x44 DUP1 SWAP7 DUP7 ADD ADD MSTORE ADD AND DUP2 ADD SUB ADD SWAP1 REVERT JUMPDEST DUP2 DUP2 ADD DUP4 ADD MLOAD DUP7 DUP3 ADD PUSH1 0x44 ADD MSTORE DUP6 SWAP4 POP DUP3 ADD PUSH2 0xB3C JUMP JUMPDEST PUSH2 0xBEE PUSH2 0xBD5 PUSH32 0xB53127684A568B3173AE13B9F8A6016E243E63B6E8EE1178D6A717850B5D6103 SLOAD PUSH20 0xFFFFFFFFFFFFFFFFFFFFFFFFFFFFFFFFFFFFFFFF AND SWAP1 JUMP JUMPDEST PUSH20 0xFFFFFFFFFFFFFFFFFFFFFFFFFFFFFFFFFFFFFFFF AND SWAP1 JUMP JUMPDEST CALLER SUB PUSH2 0xD14 JUMPI PUSH1 0x0 CALLDATALOAD PUSH32 0xFFFFFFFF00000000000000000000000000000000000000000000000000000000 AND PUSH32 0x3659CFE600000000000000000000000000000000000000000000000000000000 DUP2 SUB PUSH2 0xC51 JUMPI POP PUSH2 0xC49 PUSH2 0xF0F JUMP JUMPDEST PUSH1 0x20 DUP2 MLOAD SWAP2 ADD RETURN JUMPDEST PUSH32 0x4F1EF28600000000000000000000000000000000000000000000000000000000 DUP2 SUB PUSH2 0xC86 JUMPI POP PUSH2 0xC81 PUSH2 0x1083 JUMP JUMPDEST PUSH2 0xC49 JUMP JUMPDEST PUSH32 0x8F28397000000000000000000000000000000000000000000000000000000000 DUP2 SUB PUSH2 0xCB6 JUMPI POP PUSH2 0xC81 PUSH2 0xEC5 JUMP JUMPDEST PUSH32 0xF851A44000000000000000000000000000000000000000000000000000000000 DUP2 SUB PUSH2 0xCE6 JUMPI POP PUSH2 0xC81 PUSH2 0xDFD JUMP JUMPDEST PUSH32 0x5C60DA1B00000000000000000000000000000000000000000000000000000000 SUB PUSH2 0xD14 JUMPI PUSH2 0xC81 PUSH2 0xE53 JUMP JUMPDEST PUSH2 0xD1C PUSH2 0xD3B JUMP JUMPDEST PUSH1 0x0 DUP1 DUP1 SWAP3 CALLDATASIZE DUP3 DUP1 CALLDATACOPY DUP2 CALLDATASIZE SWAP2 GAS DELEGATECALL RETURNDATASIZE DUP3 DUP1 RETURNDATACOPY ISZERO PUSH2 0xD37 JUMPI RETURNDATASIZE SWAP1 RETURN JUMPDEST RETURNDATASIZE SWAP1 REVERT JUMPDEST PUSH20 0xFFFFFFFFFFFFFFFFFFFFFFFFFFFFFFFFFFFFFFFF DUP1 PUSH32 0x360894A13BA1A3210667C828492DB98DCA3E2076CC3735A920A3CA505D382BBC SLOAD AND DUP1 PUSH2 0xDF8 JUMPI POP PUSH1 0x20 PUSH1 0x4 SWAP2 PUSH32 0xA3F0AD74E5423AEBFD80D3EF4346578335A9A72AEAEE59FF6CB3582B35133D50 SLOAD AND PUSH1 0x40 MLOAD SWAP3 DUP4 DUP1 SWAP3 PUSH32 0x5C60DA1B00000000000000000000000000000000000000000000000000000000 DUP3 MSTORE GAS STATICCALL SWAP1 DUP2 ISZERO PUSH2 0x2A6 JUMPI PUSH1 0x0 SWAP2 PUSH2 0xDE0 JUMPI POP SWAP1 JUMP JUMPDEST PUSH2 0x917 SWAP2 POP PUSH1 0x20 RETURNDATASIZE DUP2 GT PUSH2 0x29F JUMPI PUSH2 0x290 DUP2 DUP4 PUSH2 0x70E JUMP JUMPDEST SWAP1 POP SWAP1 JUMP JUMPDEST PUSH2 0xE05 PUSH2 0x1192 JUMP JUMPDEST PUSH20 0xFFFFFFFFFFFFFFFFFFFFFFFFFFFFFFFFFFFFFFFF PUSH32 0xB53127684A568B3173AE13B9F8A6016E243E63B6E8EE1178D6A717850B5D6103 SLOAD AND PUSH1 0x40 MLOAD SWAP1 PUSH1 0x20 DUP3 ADD MSTORE PUSH1 0x20 DUP2 MSTORE PUSH2 0x917 DUP2 PUSH2 0x6F2 JUMP JUMPDEST PUSH2 0xE5B PUSH2 0x1192 JUMP JUMPDEST PUSH2 0xE63 PUSH2 0xD3B JUMP JUMPDEST PUSH20 0xFFFFFFFFFFFFFFFFFFFFFFFFFFFFFFFFFFFFFFFF PUSH1 0x40 MLOAD SWAP2 AND PUSH1 0x20 DUP3 ADD MSTORE PUSH1 0x20 DUP2 MSTORE PUSH2 0x917 DUP2 PUSH2 0x6F2 JUMP JUMPDEST PUSH32 0xFFFFFFFFFFFFFFFFFFFFFFFFFFFFFFFFFFFFFFFFFFFFFFFFFFFFFFFFFFFFFFFC PUSH1 0x20 SWAP2 ADD SLT PUSH2 0x69D JUMPI PUSH1 0x4 CALLDATALOAD PUSH2 0x917 DUP2 PUSH2 0x67F JUMP JUMPDEST PUSH2 0xECD PUSH2 0x1192 JUMP JUMPDEST CALLDATASIZE PUSH1 0x4 GT PUSH2 0x69D JUMPI PUSH2 0xEFC PUSH20 0xFFFFFFFFFFFFFFFFFFFFFFFFFFFFFFFFFFFFFFFF PUSH2 0xEF6 CALLDATASIZE PUSH2 0xE8F JUMP JUMPDEST AND PUSH2 0x7E3 JUMP JUMPDEST PUSH1 0x40 MLOAD PUSH2 0xF08 DUP2 PUSH2 0x6D1 JUMP JUMPDEST PUSH1 0x0 DUP2 MSTORE SWAP1 JUMP JUMPDEST PUSH2 0xF17 PUSH2 0x1192 JUMP JUMPDEST CALLDATASIZE PUSH1 0x4 GT PUSH2 0x69D JUMPI PUSH20 0xFFFFFFFFFFFFFFFFFFFFFFFFFFFFFFFFFFFFFFFF PUSH2 0xF3D CALLDATASIZE PUSH2 0xE8F JUMP JUMPDEST AND PUSH1 0x40 MLOAD SWAP1 PUSH2 0xF4B DUP3 PUSH2 0x6D1 JUMP JUMPDEST PUSH1 0x0 DUP3 MSTORE DUP1 EXTCODESIZE ISZERO PUSH2 0xFFF JUMPI PUSH32 0x360894A13BA1A3210667C828492DB98DCA3E2076CC3735A920A3CA505D382BBC DUP2 PUSH32 0xFFFFFFFFFFFFFFFFFFFFFFFF0000000000000000000000000000000000000000 DUP3 SLOAD AND OR SWAP1 SSTORE DUP1 PUSH32 0xBC7CD75A20EE27FD9ADEBAB32041F755214DBC6BFFA90CC0225B39DA2E5C2D3B PUSH1 0x0 DUP1 LOG2 DUP2 MLOAD ISZERO DUP1 ISZERO SWAP1 PUSH2 0xFF7 JUMPI JUMPDEST PUSH2 0xFE3 JUMPI JUMPDEST POP POP PUSH1 0x40 MLOAD PUSH2 0xF08 DUP2 PUSH2 0x6D1 JUMP JUMPDEST PUSH2 0xFEF SWAP2 PUSH2 0x264 PUSH2 0x9B1 JUMP JUMPDEST POP CODESIZE DUP1 PUSH2 0xFD5 JUMP JUMPDEST POP PUSH1 0x0 PUSH2 0xFD0 JUMP JUMPDEST PUSH1 0x84 PUSH1 0x40 MLOAD PUSH32 0x8C379A000000000000000000000000000000000000000000000000000000000 DUP2 MSTORE PUSH1 0x20 PUSH1 0x4 DUP3 ADD MSTORE PUSH1 0x2D PUSH1 0x24 DUP3 ADD MSTORE PUSH32 0x455243313936373A206E657720696D706C656D656E746174696F6E206973206E PUSH1 0x44 DUP3 ADD MSTORE PUSH32 0x6F74206120636F6E747261637400000000000000000000000000000000000000 PUSH1 0x64 DUP3 ADD MSTORE REVERT JUMPDEST CALLDATASIZE PUSH1 0x4 GT PUSH2 0x69D JUMPI PUSH1 0x40 PUSH32 0xFFFFFFFFFFFFFFFFFFFFFFFFFFFFFFFFFFFFFFFFFFFFFFFFFFFFFFFFFFFFFFFC CALLDATASIZE ADD SLT PUSH2 0x69D JUMPI PUSH1 0x4 CALLDATALOAD PUSH2 0x10C1 DUP2 PUSH2 0x67F JUMP JUMPDEST PUSH1 0x24 CALLDATALOAD PUSH8 0xFFFFFFFFFFFFFFFF DUP2 GT PUSH2 0x69D JUMPI PUSH2 0x10F6 PUSH20 0xFFFFFFFFFFFFFFFFFFFFFFFFFFFFFFFFFFFFFFFF SWAP2 CALLDATASIZE SWAP1 PUSH1 0x4 ADD PUSH2 0x789 JUMP JUMPDEST SWAP2 AND DUP1 EXTCODESIZE ISZERO PUSH2 0xFFF JUMPI PUSH32 0x360894A13BA1A3210667C828492DB98DCA3E2076CC3735A920A3CA505D382BBC DUP2 PUSH32 0xFFFFFFFFFFFFFFFFFFFFFFFF0000000000000000000000000000000000000000 DUP3 SLOAD AND OR SWAP1 SSTORE DUP1 PUSH32 0xBC7CD75A20EE27FD9ADEBAB32041F755214DBC6BFFA90CC0225B39DA2E5C2D3B PUSH1 0x0 DUP1 LOG2 DUP2 MLOAD ISZERO DUP1 ISZERO SWAP1 PUSH2 0x118A JUMPI PUSH2 0xFE3 JUMPI POP POP PUSH1 0x40 MLOAD PUSH2 0xF08 DUP2 PUSH2 0x6D1 JUMP JUMPDEST POP PUSH1 0x1 PUSH2 0xFD0 JUMP JUMPDEST CALLVALUE PUSH2 0x69D JUMPI JUMP INVALID LOG2 PUSH5 0x6970667358 0x22 SLT KECCAK256 GASLIMIT STOP COINBASE PUSH9 0xBA82273E43EEB6C019 DUP10 CALLDATASIZE RETURNDATASIZE 0xB8 PUSH5 0xF4E92BC6BC 0xC9 0xF 0xAD REVERT 0xB4 0xA6 0xC9 0xD DUP6 PUSH5 0x736F6C6343 STOP ADDMOD SGT STOP CALLER LOG2 PUSH5 0x6970667358 0x22 SLT KECCAK256 0xC0 PUSH27 0x7FC95409381C3F8E890CD4A9645C01CBD77EF2525ED0F7A2056EAB PUSH22 0xE3364736F6C6343000813003360803461011A57601F PUSH2 0x5EE CODESIZE DUP2 SWAP1 SUB SWAP2 DUP3 ADD PUSH1 0x1F NOT AND DUP4 ADD SWAP2 PUSH1 0x1 PUSH1 0x1 PUSH1 0x40 SHL SUB DUP4 GT DUP5 DUP5 LT OR PUSH2 0x11F JUMPI DUP1 DUP5 SWAP3 PUSH1 0x20 SWAP5 PUSH1 0x40 MSTORE DUP4 CODECOPY DUP2 ADD SUB SLT PUSH2 0x11A JUMPI MLOAD PUSH1 0x1 PUSH1 0x1 PUSH1 0xA0 SHL SUB DUP1 DUP3 AND SWAP2 SWAP1 DUP3 DUP3 SUB PUSH2 0x11A JUMPI PUSH1 0x0 SLOAD SWAP2 PUSH1 0x1 DUP1 PUSH1 0xA0 SHL SUB NOT SWAP3 CALLER DUP5 DUP3 AND OR PUSH1 0x0 SSTORE PUSH1 0x40 MLOAD SWAP3 CALLER SWAP2 AND PUSH32 0x8BE0079C531659141344CD1FD0A4F28419497F9722A3DAAFE3B4186F6B6457E0 PUSH1 0x0 DUP1 LOG3 EXTCODESIZE ISZERO PUSH2 0xB2 JUMPI POP PUSH1 0x1 SLOAD AND OR PUSH1 0x1 SSTORE PUSH1 0x40 MLOAD PUSH2 0x4B8 SWAP1 DUP2 PUSH2 0x136 DUP3 CODECOPY RETURN JUMPDEST PUSH3 0x461BCD PUSH1 0xE5 SHL DUP2 MSTORE PUSH1 0x20 PUSH1 0x4 DUP3 ADD MSTORE PUSH1 0x33 PUSH1 0x24 DUP3 ADD MSTORE PUSH32 0x5570677261646561626C65426561636F6E3A20696D706C656D656E746174696F PUSH1 0x44 DUP3 ADD MSTORE PUSH32 0x6E206973206E6F74206120636F6E747261637400000000000000000000000000 PUSH1 0x64 DUP3 ADD MSTORE PUSH1 0x84 SWAP1 REVERT JUMPDEST PUSH1 0x0 DUP1 REVERT JUMPDEST PUSH4 0x4E487B71 PUSH1 0xE0 SHL PUSH1 0x0 MSTORE PUSH1 0x41 PUSH1 0x4 MSTORE PUSH1 0x24 PUSH1 0x0 REVERT INVALID PUSH1 0x80 PUSH1 0x40 MSTORE PUSH1 0x4 CALLDATASIZE LT ISZERO PUSH2 0x12 JUMPI PUSH1 0x0 DUP1 REVERT JUMPDEST PUSH1 0x0 DUP1 CALLDATALOAD PUSH1 0xE0 SHR DUP1 PUSH4 0x3659CFE6 EQ PUSH2 0x2CE JUMPI DUP1 PUSH4 0x5C60DA1B EQ PUSH2 0x27C JUMPI DUP1 PUSH4 0x715018A6 EQ PUSH2 0x1E0 JUMPI DUP1 PUSH4 0x8DA5CB5B EQ PUSH2 0x18F JUMPI PUSH4 0xF2FDE38B EQ PUSH2 0x54 JUMPI PUSH1 0x0 DUP1 REVERT JUMPDEST CALLVALUE PUSH2 0x18C JUMPI PUSH1 0x20 PUSH32 0xFFFFFFFFFFFFFFFFFFFFFFFFFFFFFFFFFFFFFFFFFFFFFFFFFFFFFFFFFFFFFFFC CALLDATASIZE ADD SLT PUSH2 0x18C JUMPI PUSH1 0x4 CALLDATALOAD PUSH20 0xFFFFFFFFFFFFFFFFFFFFFFFFFFFFFFFFFFFFFFFF DUP1 DUP3 AND DUP1 SWAP3 SUB PUSH2 0x188 JUMPI PUSH2 0xAD PUSH2 0x403 JUMP JUMPDEST DUP2 ISZERO PUSH2 0x104 JUMPI DUP3 SLOAD DUP3 PUSH32 0xFFFFFFFFFFFFFFFFFFFFFFFF0000000000000000000000000000000000000000 DUP3 AND OR DUP5 SSTORE AND PUSH32 0x8BE0079C531659141344CD1FD0A4F28419497F9722A3DAAFE3B4186F6B6457E0 DUP4 DUP1 LOG3 DUP1 RETURN JUMPDEST PUSH1 0x84 PUSH1 0x40 MLOAD PUSH32 0x8C379A000000000000000000000000000000000000000000000000000000000 DUP2 MSTORE PUSH1 0x20 PUSH1 0x4 DUP3 ADD MSTORE PUSH1 0x26 PUSH1 0x24 DUP3 ADD MSTORE PUSH32 0x4F776E61626C653A206E6577206F776E657220697320746865207A65726F2061 PUSH1 0x44 DUP3 ADD MSTORE PUSH32 0x6464726573730000000000000000000000000000000000000000000000000000 PUSH1 0x64 DUP3 ADD MSTORE REVERT JUMPDEST DUP3 DUP1 REVERT JUMPDEST DUP1 REVERT JUMPDEST POP CALLVALUE PUSH2 0x18C JUMPI DUP1 PUSH32 0xFFFFFFFFFFFFFFFFFFFFFFFFFFFFFFFFFFFFFFFFFFFFFFFFFFFFFFFFFFFFFFFC CALLDATASIZE ADD SLT PUSH2 0x18C JUMPI PUSH20 0xFFFFFFFFFFFFFFFFFFFFFFFFFFFFFFFFFFFFFFFF PUSH1 0x20 SWAP2 SLOAD AND PUSH1 0x40 MLOAD SWAP1 DUP2 MSTORE RETURN JUMPDEST POP CALLVALUE PUSH2 0x18C JUMPI DUP1 PUSH32 0xFFFFFFFFFFFFFFFFFFFFFFFFFFFFFFFFFFFFFFFFFFFFFFFFFFFFFFFFFFFFFFFC CALLDATASIZE ADD SLT PUSH2 0x18C JUMPI PUSH2 0x217 PUSH2 0x403 JUMP JUMPDEST DUP1 PUSH20 0xFFFFFFFFFFFFFFFFFFFFFFFFFFFFFFFFFFFFFFFF DUP2 SLOAD PUSH32 0xFFFFFFFFFFFFFFFFFFFFFFFF0000000000000000000000000000000000000000 DUP2 AND DUP4 SSTORE AND PUSH32 0x8BE0079C531659141344CD1FD0A4F28419497F9722A3DAAFE3B4186F6B6457E0 DUP3 DUP1 LOG3 DUP1 RETURN JUMPDEST POP CALLVALUE PUSH2 0x18C JUMPI DUP1 PUSH32 0xFFFFFFFFFFFFFFFFFFFFFFFFFFFFFFFFFFFFFFFFFFFFFFFFFFFFFFFFFFFFFFFC CALLDATASIZE ADD SLT PUSH2 0x18C JUMPI PUSH1 0x20 PUSH20 0xFFFFFFFFFFFFFFFFFFFFFFFFFFFFFFFFFFFFFFFF PUSH1 0x1 SLOAD AND PUSH1 0x40 MLOAD SWAP1 DUP2 MSTORE RETURN JUMPDEST POP CALLVALUE PUSH2 0x18C JUMPI PUSH1 0x20 PUSH32 0xFFFFFFFFFFFFFFFFFFFFFFFFFFFFFFFFFFFFFFFFFFFFFFFFFFFFFFFFFFFFFFFC CALLDATASIZE ADD SLT PUSH2 0x18C JUMPI PUSH1 0x4 CALLDATALOAD PUSH20 0xFFFFFFFFFFFFFFFFFFFFFFFFFFFFFFFFFFFFFFFF DUP2 AND SWAP1 DUP2 DUP2 SUB PUSH2 0x188 JUMPI PUSH2 0x328 PUSH2 0x403 JUMP JUMPDEST EXTCODESIZE ISZERO PUSH2 0x37F JUMPI DUP1 PUSH32 0xFFFFFFFFFFFFFFFFFFFFFFFF0000000000000000000000000000000000000000 PUSH1 0x1 SLOAD AND OR PUSH1 0x1 SSTORE PUSH32 0xBC7CD75A20EE27FD9ADEBAB32041F755214DBC6BFFA90CC0225B39DA2E5C2D3B DUP3 DUP1 LOG2 DUP1 RETURN JUMPDEST PUSH1 0x84 PUSH1 0x40 MLOAD PUSH32 0x8C379A000000000000000000000000000000000000000000000000000000000 DUP2 MSTORE PUSH1 0x20 PUSH1 0x4 DUP3 ADD MSTORE PUSH1 0x33 PUSH1 0x24 DUP3 ADD MSTORE PUSH32 0x5570677261646561626C65426561636F6E3A20696D706C656D656E746174696F PUSH1 0x44 DUP3 ADD MSTORE PUSH32 0x6E206973206E6F74206120636F6E747261637400000000000000000000000000 PUSH1 0x64 DUP3 ADD MSTORE REVERT JUMPDEST PUSH20 0xFFFFFFFFFFFFFFFFFFFFFFFFFFFFFFFFFFFFFFFF PUSH1 0x0 SLOAD AND CALLER SUB PUSH2 0x424 JUMPI JUMP JUMPDEST PUSH1 0x64 PUSH1 0x40 MLOAD PUSH32 0x8C379A000000000000000000000000000000000000000000000000000000000 DUP2 MSTORE PUSH1 0x20 PUSH1 0x4 DUP3 ADD MSTORE PUSH1 0x20 PUSH1 0x24 DUP3 ADD MSTORE PUSH32 0x4F776E61626C653A2063616C6C6572206973206E6F7420746865206F776E6572 PUSH1 0x44 DUP3 ADD MSTORE REVERT INVALID LOG2 PUSH5 0x6970667358 0x22 SLT KECCAK256 SGT TIMESTAMP 0xD7 0xDA 0x4F 0xF6 MLOAD 0xB8 PUSH12 0xCEB8A63D98CFF68DD07C4751 CHAINID 0x28 SAR 0xEA LOG4 DUP1 COINBASE CALLDATALOAD PUSH17 0xEA7564736F6C6343000813003360A06040 MSTORE CALLVALUE PUSH3 0x146 JUMPI PUSH3 0x14 PUSH3 0x161 JUMP JUMPDEST PUSH3 0x1E PUSH3 0x161 JUMP JUMPDEST DUP2 MLOAD PUSH1 0x1 PUSH1 0x1 PUSH1 0x40 SHL SUB DUP2 GT PUSH3 0x140 JUMPI PUSH3 0x47 DUP2 PUSH3 0x41 PUSH1 0x2 SLOAD PUSH3 0x185 JUMP JUMPDEST PUSH3 0x1C2 JUMP JUMPDEST PUSH1 0x20 DUP1 PUSH1 0x1F DUP4 GT PUSH1 0x1 EQ PUSH3 0xAF JUMPI POP DUP2 SWAP1 PUSH3 0x82 SWAP5 PUSH1 0x0 SWAP3 PUSH3 0xA3 JUMPI JUMPDEST POP POP DUP2 PUSH1 0x1 SHL SWAP2 PUSH1 0x0 NOT SWAP1 PUSH1 0x3 SHL SHR NOT AND OR PUSH1 0x2 SSTORE PUSH3 0x274 JUMP JUMPDEST PUSH1 0x0 DUP1 SSTORE CALLER PUSH1 0x80 MSTORE PUSH1 0x40 MLOAD PUSH2 0x41FB SWAP1 DUP2 PUSH3 0x368 DUP3 CODECOPY PUSH1 0x80 MLOAD DUP2 PUSH2 0x3CD3 ADD MSTORE RETURN JUMPDEST ADD MLOAD SWAP1 POP CODESIZE DUP1 PUSH3 0x67 JUMP JUMPDEST PUSH1 0x2 PUSH1 0x0 MSTORE SWAP2 SWAP4 PUSH1 0x1F NOT DUP6 AND PUSH32 0x405787FA12A823E0F2B7631CC41B3BA8828B3321CA811111FA75CD3AA3BB5ACE SWAP4 PUSH1 0x0 SWAP1 JUMPDEST DUP3 DUP3 LT PUSH3 0x127 JUMPI POP POP SWAP2 PUSH1 0x1 SWAP4 SWAP2 DUP7 PUSH3 0x82 SWAP8 SWAP5 LT PUSH3 0x10D JUMPI JUMPDEST POP POP POP DUP2 SHL ADD PUSH1 0x2 SSTORE PUSH3 0x274 JUMP JUMPDEST ADD MLOAD PUSH1 0x0 NOT PUSH1 0xF8 DUP5 PUSH1 0x3 SHL AND SHR NOT AND SWAP1 SSTORE CODESIZE DUP1 DUP1 PUSH3 0xFE JUMP JUMPDEST DUP1 PUSH1 0x1 DUP7 SWAP8 DUP3 SWAP5 SWAP8 DUP8 ADD MLOAD DUP2 SSTORE ADD SWAP7 ADD SWAP5 ADD SWAP1 PUSH3 0xE1 JUMP JUMPDEST PUSH3 0x14B JUMP JUMPDEST PUSH1 0x0 DUP1 REVERT JUMPDEST PUSH4 0x4E487B71 PUSH1 0xE0 SHL PUSH1 0x0 MSTORE PUSH1 0x41 PUSH1 0x4 MSTORE PUSH1 0x24 PUSH1 0x0 REVERT JUMPDEST PUSH1 0x40 MLOAD SWAP1 PUSH1 0x20 DUP3 ADD PUSH1 0x1 PUSH1 0x1 PUSH1 0x40 SHL SUB DUP2 GT DUP4 DUP3 LT OR PUSH3 0x140 JUMPI PUSH1 0x40 MSTORE PUSH1 0x0 DUP3 MSTORE JUMP JUMPDEST SWAP1 PUSH1 0x1 DUP3 DUP2 SHR SWAP3 AND DUP1 ISZERO PUSH3 0x1B7 JUMPI JUMPDEST PUSH1 0x20 DUP4 LT EQ PUSH3 0x1A1 JUMPI JUMP JUMPDEST PUSH4 0x4E487B71 PUSH1 0xE0 SHL PUSH1 0x0 MSTORE PUSH1 0x22 PUSH1 0x4 MSTORE PUSH1 0x24 PUSH1 0x0 REVERT JUMPDEST SWAP2 PUSH1 0x7F AND SWAP2 PUSH3 0x195 JUMP JUMPDEST PUSH1 0x1F DUP2 GT PUSH3 0x1CF JUMPI POP POP JUMP JUMPDEST PUSH1 0x0 SWAP1 PUSH1 0x2 DUP3 MSTORE PUSH1 0x20 DUP3 KECCAK256 SWAP1 PUSH1 0x20 PUSH1 0x1F DUP6 ADD PUSH1 0x5 SHR DUP4 ADD SWAP5 LT PUSH3 0x210 JUMPI JUMPDEST PUSH1 0x1F ADD PUSH1 0x5 SHR ADD SWAP2 JUMPDEST DUP3 DUP2 LT PUSH3 0x204 JUMPI POP POP POP JUMP JUMPDEST DUP2 DUP2 SSTORE PUSH1 0x1 ADD PUSH3 0x1F7 JUMP JUMPDEST SWAP1 SWAP3 POP DUP3 SWAP1 PUSH3 0x1EE JUMP JUMPDEST PUSH1 0x1F DUP2 GT PUSH3 0x228 JUMPI POP POP JUMP JUMPDEST PUSH1 0x0 SWAP1 PUSH1 0x3 DUP3 MSTORE PUSH1 0x20 DUP3 KECCAK256 SWAP1 PUSH1 0x20 PUSH1 0x1F DUP6 ADD PUSH1 0x5 SHR DUP4 ADD SWAP5 LT PUSH3 0x269 JUMPI JUMPDEST PUSH1 0x1F ADD PUSH1 0x5 SHR ADD SWAP2 JUMPDEST DUP3 DUP2 LT PUSH3 0x25D JUMPI POP POP POP JUMP JUMPDEST DUP2 DUP2 SSTORE PUSH1 0x1 ADD PUSH3 0x250 JUMP JUMPDEST SWAP1 SWAP3 POP DUP3 SWAP1 PUSH3 0x247 JUMP JUMPDEST DUP1 MLOAD SWAP1 SWAP2 SWAP1 PUSH1 0x1 PUSH1 0x1 PUSH1 0x40 SHL SUB DUP2 GT PUSH3 0x140 JUMPI PUSH3 0x2A0 DUP2 PUSH3 0x29A PUSH1 0x3 SLOAD PUSH3 0x185 JUMP JUMPDEST PUSH3 0x21B JUMP JUMPDEST PUSH1 0x20 DUP1 PUSH1 0x1F DUP4 GT PUSH1 0x1 EQ PUSH3 0x2DF JUMPI POP DUP2 SWAP3 SWAP4 PUSH1 0x0 SWAP3 PUSH3 0x2D3 JUMPI JUMPDEST POP POP DUP2 PUSH1 0x1 SHL SWAP2 PUSH1 0x0 NOT SWAP1 PUSH1 0x3 SHL SHR NOT AND OR PUSH1 0x3 SSTORE JUMP JUMPDEST ADD MLOAD SWAP1 POP CODESIZE DUP1 PUSH3 0x2BC JUMP JUMPDEST PUSH1 0x3 PUSH1 0x0 MSTORE PUSH1 0x1F NOT DUP4 AND SWAP5 SWAP1 SWAP2 SWAP1 PUSH32 0xC2575A0E9E593C00F959F8C92F12DB2869C3395A3B0502D05E2516446F71F85B SWAP3 PUSH1 0x0 SWAP1 JUMPDEST DUP8 DUP3 LT PUSH3 0x34E JUMPI POP POP DUP4 PUSH1 0x1 SWAP6 SWAP7 LT PUSH3 0x334 JUMPI JUMPDEST POP POP POP DUP2 SHL ADD PUSH1 0x3 SSTORE JUMP JUMPDEST ADD MLOAD PUSH1 0x0 NOT PUSH1 0xF8 DUP5 PUSH1 0x3 SHL AND SHR NOT AND SWAP1 SSTORE CODESIZE DUP1 DUP1 PUSH3 0x329 JUMP JUMPDEST DUP1 PUSH1 0x1 DUP6 SWAP7 DUP3 SWAP5 SWAP7 DUP7 ADD MLOAD DUP2 SSTORE ADD SWAP6 ADD SWAP4 ADD SWAP1 PUSH3 0x313 JUMP INVALID PUSH1 0x80 PUSH1 0x40 MSTORE PUSH1 0x4 CALLDATASIZE LT ISZERO PUSH2 0x12 JUMPI PUSH1 0x0 DUP1 REVERT JUMPDEST PUSH1 0x0 CALLDATALOAD PUSH1 0xE0 SHR DUP1 PUSH4 0x1FFC9A7 EQ PUSH2 0x297 JUMPI DUP1 PUSH4 0x4634D8D EQ PUSH2 0x292 JUMPI DUP1 PUSH4 0x6FDDE03 EQ PUSH2 0x28D JUMPI DUP1 PUSH4 0x81812FC EQ PUSH2 0x288 JUMPI DUP1 PUSH4 0x95EA7B3 EQ PUSH2 0x283 JUMPI DUP1 PUSH4 0x18160DDD EQ PUSH2 0x27E JUMPI DUP1 PUSH4 0x23B872DD EQ PUSH2 0x279 JUMPI DUP1 PUSH4 0x248A9CA3 EQ PUSH2 0x274 JUMPI DUP1 PUSH4 0x2A55205A EQ PUSH2 0x26F JUMPI DUP1 PUSH4 0x2F2FF15D EQ PUSH2 0x26A JUMPI DUP1 PUSH4 0x35E60BD4 EQ PUSH2 0x265 JUMPI DUP1 PUSH4 0x36568ABE EQ PUSH2 0x260 JUMPI DUP1 PUSH4 0x40C10F19 EQ PUSH2 0x25B JUMPI DUP1 PUSH4 0x42842E0E EQ PUSH2 0x256 JUMPI DUP1 PUSH4 0x42966C68 EQ PUSH2 0x251 JUMPI DUP1 PUSH4 0x5944C753 EQ PUSH2 0x24C JUMPI DUP1 PUSH4 0x5A446215 EQ PUSH2 0x247 JUMPI DUP1 PUSH4 0x5BBB2177 EQ PUSH2 0x242 JUMPI DUP1 PUSH4 0x6352211E EQ PUSH2 0x23D JUMPI DUP1 PUSH4 0x68A37AE8 EQ PUSH2 0x238 JUMPI DUP1 PUSH4 0x70A08231 EQ PUSH2 0x233 JUMPI DUP1 PUSH4 0x7E518EC8 EQ PUSH2 0x22E JUMPI DUP1 PUSH4 0x842F9B68 EQ PUSH2 0x229 JUMPI DUP1 PUSH4 0x8462151C EQ PUSH2 0x224 JUMPI DUP1 PUSH4 0x9010D07C EQ PUSH2 0x21F JUMPI DUP1 PUSH4 0x91D14854 EQ PUSH2 0x21A JUMPI DUP1 PUSH4 0x938E3D7B EQ PUSH2 0x215 JUMPI DUP1 PUSH4 0x95D89B41 EQ PUSH2 0x210 JUMPI DUP1 PUSH4 0x98DD69C8 EQ PUSH2 0x20B JUMPI DUP1 PUSH4 0x99A2557A EQ PUSH2 0x206 JUMPI DUP1 PUSH4 0xA217FDDF EQ PUSH2 0x201 JUMPI DUP1 PUSH4 0xA22CB465 EQ PUSH2 0x1FC JUMPI DUP1 PUSH4 0xB88D4FDE EQ PUSH2 0x1F7 JUMPI DUP1 PUSH4 0xC23DC68F EQ PUSH2 0x1F2 JUMPI DUP1 PUSH4 0xC87B56DD EQ PUSH2 0x1ED JUMPI DUP1 PUSH4 0xCA15C873 EQ PUSH2 0x1E8 JUMPI DUP1 PUSH4 0xD547741F EQ PUSH2 0x1E3 JUMPI DUP1 PUSH4 0xDC8E92EA EQ PUSH2 0x1DE JUMPI DUP1 PUSH4 0xE8A3D485 EQ PUSH2 0x1D9 JUMPI PUSH4 0xE985E9C5 EQ PUSH2 0x1D4 JUMPI PUSH1 0x0 DUP1 REVERT JUMPDEST PUSH2 0x2057 JUMP JUMPDEST PUSH2 0x1FB0 JUMP JUMPDEST PUSH2 0x1F29 JUMP JUMPDEST PUSH2 0x1EEA JUMP JUMPDEST PUSH2 0x1EBE JUMP JUMPDEST PUSH2 0x1D52 JUMP JUMPDEST PUSH2 0x1CE0 JUMP JUMPDEST PUSH2 0x1C85 JUMP JUMPDEST PUSH2 0x1BB6 JUMP JUMPDEST PUSH2 0x1B9A JUMP JUMPDEST PUSH2 0x1A0A JUMP JUMPDEST PUSH2 0x196C JUMP JUMPDEST PUSH2 0x18C5 JUMP JUMPDEST PUSH2 0x17C6 JUMP JUMPDEST PUSH2 0x1766 JUMP JUMPDEST PUSH2 0x1713 JUMP JUMPDEST PUSH2 0x1587 JUMP JUMPDEST PUSH2 0x1526 JUMP JUMPDEST PUSH2 0x1427 JUMP JUMPDEST PUSH2 0x13D1 JUMP JUMPDEST PUSH2 0x1396 JUMP JUMPDEST PUSH2 0x135A JUMP JUMPDEST PUSH2 0x12F4 JUMP JUMPDEST PUSH2 0x112A JUMP JUMPDEST PUSH2 0xEB8 JUMP JUMPDEST PUSH2 0xE9C JUMP JUMPDEST PUSH2 0xE79 JUMP JUMPDEST PUSH2 0xD61 JUMP JUMPDEST PUSH2 0xC9B JUMP JUMPDEST PUSH2 0xB40 JUMP JUMPDEST PUSH2 0x9FD JUMP JUMPDEST PUSH2 0x92C JUMP JUMPDEST PUSH2 0x8FD JUMP JUMPDEST PUSH2 0x8EB JUMP JUMPDEST PUSH2 0x886 JUMP JUMPDEST PUSH2 0x767 JUMP JUMPDEST PUSH2 0x6ED JUMP JUMPDEST PUSH2 0x5EE JUMP JUMPDEST PUSH2 0x54E JUMP JUMPDEST PUSH2 0x2CB JUMP JUMPDEST PUSH32 0xFFFFFFFF00000000000000000000000000000000000000000000000000000000 DUP2 AND SUB PUSH2 0x2C6 JUMPI JUMP JUMPDEST PUSH1 0x0 DUP1 REVERT JUMPDEST CALLVALUE PUSH2 0x2C6 JUMPI PUSH1 0x20 PUSH1 0x3 NOT CALLDATASIZE ADD SLT PUSH2 0x2C6 JUMPI PUSH2 0x34E PUSH1 0x4 CALLDATALOAD PUSH2 0x2EB DUP2 PUSH2 0x29C JUMP JUMPDEST PUSH32 0xFFFFFFFF00000000000000000000000000000000000000000000000000000000 DUP2 AND SWAP1 DUP2 PUSH32 0xB1C990BC00000000000000000000000000000000000000000000000000000000 EQ SWAP2 DUP3 ISZERO PUSH2 0x352 JUMPI JUMPDEST POP POP PUSH1 0x40 MLOAD SWAP1 ISZERO ISZERO DUP2 MSTORE SWAP1 DUP2 SWAP1 PUSH1 0x20 DUP3 ADD SWAP1 JUMP JUMPDEST SUB SWAP1 RETURN JUMPDEST PUSH32 0x40C10F1900000000000000000000000000000000000000000000000000000000 DUP2 EQ SWAP3 POP SWAP1 DUP3 ISZERO PUSH2 0x388 JUMPI JUMPDEST POP POP CODESIZE DUP1 PUSH2 0x33A JUMP JUMPDEST PUSH32 0xC21B8F2800000000000000000000000000000000000000000000000000000000 DUP3 EQ SWAP3 POP SWAP1 DUP3 ISZERO PUSH2 0x485 JUMPI JUMPDEST DUP3 ISZERO PUSH2 0x3F4 JUMPI JUMPDEST POP DUP2 ISZERO PUSH2 0x3E3 JUMPI JUMPDEST DUP2 ISZERO PUSH2 0x3D3 JUMPI JUMPDEST POP CODESIZE DUP1 PUSH2 0x37F JUMP JUMPDEST PUSH2 0x3DD SWAP2 POP PUSH2 0x405F JUMP JUMPDEST CODESIZE PUSH2 0x3CB JUMP JUMPDEST SWAP1 POP PUSH2 0x3EE DUP2 PUSH2 0x405F JUMP JUMPDEST SWAP1 PUSH2 0x3C4 JUMP JUMPDEST SWAP1 SWAP2 POP PUSH32 0x1FFC9A700000000000000000000000000000000000000000000000000000000 DUP2 EQ SWAP1 DUP2 ISZERO PUSH2 0x45B JUMPI JUMPDEST DUP2 ISZERO PUSH2 0x431 JUMPI JUMPDEST POP SWAP1 CODESIZE PUSH2 0x3BC JUMP JUMPDEST PUSH32 0x5B5E139F00000000000000000000000000000000000000000000000000000000 SWAP2 POP EQ CODESIZE PUSH2 0x429 JUMP JUMPDEST PUSH32 0x80AC58CD00000000000000000000000000000000000000000000000000000000 DUP2 EQ SWAP2 POP PUSH2 0x422 JUMP JUMPDEST PUSH32 0x8446A79E00000000000000000000000000000000000000000000000000000000 DUP2 EQ SWAP3 POP PUSH2 0x3B5 JUMP JUMPDEST PUSH1 0x4 CALLDATALOAD SWAP1 PUSH20 0xFFFFFFFFFFFFFFFFFFFFFFFFFFFFFFFFFFFFFFFF DUP3 AND DUP3 SUB PUSH2 0x2C6 JUMPI JUMP JUMPDEST PUSH1 0x24 CALLDATALOAD SWAP1 PUSH20 0xFFFFFFFFFFFFFFFFFFFFFFFFFFFFFFFFFFFFFFFF DUP3 AND DUP3 SUB PUSH2 0x2C6 JUMPI JUMP JUMPDEST PUSH1 0xA4 CALLDATALOAD SWAP1 PUSH20 0xFFFFFFFFFFFFFFFFFFFFFFFFFFFFFFFFFFFFFFFF DUP3 AND DUP3 SUB PUSH2 0x2C6 JUMPI JUMP JUMPDEST PUSH1 0x44 CALLDATALOAD SWAP1 PUSH12 0xFFFFFFFFFFFFFFFFFFFFFFFF DUP3 AND DUP3 SUB PUSH2 0x2C6 JUMPI JUMP JUMPDEST PUSH1 0xC4 CALLDATALOAD SWAP1 PUSH12 0xFFFFFFFFFFFFFFFFFFFFFFFF DUP3 AND DUP3 SUB PUSH2 0x2C6 JUMPI JUMP JUMPDEST CALLVALUE PUSH2 0x2C6 JUMPI PUSH1 0x40 PUSH1 0x3 NOT CALLDATASIZE ADD SLT PUSH2 0x2C6 JUMPI PUSH2 0x567 PUSH2 0x4AF JUMP JUMPDEST PUSH1 0x24 CALLDATALOAD PUSH12 0xFFFFFFFFFFFFFFFFFFFFFFFF DUP2 AND DUP2 SUB PUSH2 0x2C6 JUMPI PUSH2 0x590 SWAP2 PUSH2 0x58B PUSH2 0x2957 JUMP JUMPDEST PUSH2 0x3F09 JUMP JUMPDEST STOP JUMPDEST PUSH1 0x0 JUMPDEST DUP4 DUP2 LT PUSH2 0x5A5 JUMPI POP POP PUSH1 0x0 SWAP2 ADD MSTORE JUMP JUMPDEST DUP2 DUP2 ADD MLOAD DUP4 DUP3 ADD MSTORE PUSH1 0x20 ADD PUSH2 0x595 JUMP JUMPDEST SWAP1 PUSH1 0x1F NOT PUSH1 0x1F PUSH1 0x20 SWAP4 PUSH2 0x5D3 DUP2 MLOAD DUP1 SWAP3 DUP2 DUP8 MSTORE DUP8 DUP1 DUP9 ADD SWAP2 ADD PUSH2 0x592 JUMP JUMPDEST ADD AND ADD ADD SWAP1 JUMP JUMPDEST SWAP1 PUSH1 0x20 PUSH2 0x5EB SWAP3 DUP2 DUP2 MSTORE ADD SWAP1 PUSH2 0x5B5 JUMP JUMPDEST SWAP1 JUMP JUMPDEST CALLVALUE PUSH2 0x2C6 JUMPI PUSH1 0x0 DUP1 PUSH1 0x3 NOT CALLDATASIZE ADD SLT PUSH2 0x6EA JUMPI PUSH1 0x40 MLOAD SWAP1 DUP1 PUSH1 0xE SLOAD PUSH2 0x611 DUP2 PUSH2 0x359C JUMP JUMPDEST DUP1 DUP6 MSTORE SWAP2 PUSH1 0x1 SWAP2 DUP1 DUP4 AND SWAP1 DUP2 ISZERO PUSH2 0x6A2 JUMPI POP PUSH1 0x1 EQ PUSH2 0x647 JUMPI JUMPDEST PUSH2 0x34E DUP6 PUSH2 0x63B DUP2 DUP8 SUB DUP3 PUSH2 0x108A JUMP JUMPDEST PUSH1 0x40 MLOAD SWAP2 DUP3 SWAP2 DUP3 PUSH2 0x5DA JUMP JUMPDEST SWAP3 POP PUSH1 0xE DUP4 MSTORE PUSH32 0xBB7B4A454DC3493923482F07822329ED19E8244EFF582CC204F8554C3620C3FD JUMPDEST DUP3 DUP5 LT PUSH2 0x68A JUMPI POP POP POP DUP2 ADD PUSH1 0x20 ADD PUSH2 0x63B DUP3 PUSH2 0x34E PUSH2 0x62B JUMP JUMPDEST DUP1 SLOAD PUSH1 0x20 DUP6 DUP8 ADD DUP2 ADD SWAP2 SWAP1 SWAP2 MSTORE SWAP1 SWAP4 ADD SWAP3 DUP2 ADD PUSH2 0x66F JUMP JUMPDEST DUP7 SWAP6 POP PUSH2 0x34E SWAP7 SWAP4 POP PUSH1 0x20 SWAP3 POP PUSH2 0x63B SWAP5 SWAP2 POP PUSH32 0xFFFFFFFFFFFFFFFFFFFFFFFFFFFFFFFFFFFFFFFFFFFFFFFFFFFFFFFFFFFFFF00 AND DUP3 DUP5 ADD MSTORE ISZERO ISZERO PUSH1 0x5 SHL DUP3 ADD ADD SWAP3 SWAP4 PUSH2 0x62B JUMP JUMPDEST DUP1 REVERT JUMPDEST CALLVALUE PUSH2 0x2C6 JUMPI PUSH1 0x20 PUSH1 0x3 NOT CALLDATASIZE ADD SLT PUSH2 0x2C6 JUMPI PUSH1 0x4 CALLDATALOAD PUSH2 0x70A DUP2 PUSH2 0x228C JUMP JUMPDEST ISZERO PUSH2 0x73D JUMPI PUSH1 0x0 MSTORE PUSH1 0x6 PUSH1 0x20 MSTORE PUSH1 0x20 PUSH20 0xFFFFFFFFFFFFFFFFFFFFFFFFFFFFFFFFFFFFFFFF PUSH1 0x40 PUSH1 0x0 KECCAK256 SLOAD AND PUSH1 0x40 MLOAD SWAP1 DUP2 MSTORE RETURN JUMPDEST PUSH32 0xCF4700E400000000000000000000000000000000000000000000000000000000 PUSH1 0x0 MSTORE PUSH1 0x4 PUSH1 0x0 REVERT JUMPDEST PUSH1 0x40 PUSH1 0x3 NOT CALLDATASIZE ADD SLT PUSH2 0x2C6 JUMPI PUSH2 0x77B PUSH2 0x4AF JUMP JUMPDEST PUSH1 0x24 CALLDATALOAD PUSH20 0xFFFFFFFFFFFFFFFFFFFFFFFFFFFFFFFFFFFFFFFF DUP1 PUSH2 0x79D DUP4 PUSH2 0x2152 JUMP JUMPDEST AND SWAP1 DUP2 CALLER SUB PUSH2 0x81D JUMPI JUMPDEST PUSH1 0x0 DUP4 DUP2 MSTORE PUSH1 0x6 PUSH1 0x20 MSTORE PUSH1 0x40 DUP2 KECCAK256 DUP1 SLOAD PUSH32 0xFFFFFFFFFFFFFFFFFFFFFFFF0000000000000000000000000000000000000000 AND PUSH20 0xFFFFFFFFFFFFFFFFFFFFFFFFFFFFFFFFFFFFFFFF DUP8 AND OR SWAP1 SSTORE SWAP4 AND SWAP1 PUSH32 0x8C5BE1E5EBEC7D5BD14F71427D1E84F3DD0314C0F7B2291E5B200AC8C7C3B925 DUP5 DUP1 LOG4 DUP1 RETURN JUMPDEST DUP2 PUSH1 0x0 MSTORE PUSH1 0x7 PUSH1 0x20 MSTORE PUSH1 0xFF PUSH2 0x856 CALLER PUSH1 0x40 PUSH1 0x0 KECCAK256 SWAP1 PUSH20 0xFFFFFFFFFFFFFFFFFFFFFFFFFFFFFFFFFFFFFFFF AND PUSH1 0x0 MSTORE PUSH1 0x20 MSTORE PUSH1 0x40 PUSH1 0x0 KECCAK256 SWAP1 JUMP JUMPDEST SLOAD AND PUSH2 0x7A7 JUMPI PUSH32 0xCFB3B94200000000000000000000000000000000000000000000000000000000 PUSH1 0x0 MSTORE PUSH1 0x4 PUSH1 0x0 REVERT JUMPDEST CALLVALUE PUSH2 0x2C6 JUMPI PUSH1 0x0 PUSH1 0x3 NOT CALLDATASIZE ADD SLT PUSH2 0x2C6 JUMPI PUSH1 0x20 PUSH1 0x0 SLOAD PUSH1 0x1 SLOAD SWAP1 SUB PUSH1 0x40 MLOAD SWAP1 DUP2 MSTORE RETURN JUMPDEST PUSH1 0x3 NOT PUSH1 0x60 SWAP2 ADD SLT PUSH2 0x2C6 JUMPI PUSH20 0xFFFFFFFFFFFFFFFFFFFFFFFFFFFFFFFFFFFFFFFF SWAP1 PUSH1 0x4 CALLDATALOAD DUP3 DUP2 AND DUP2 SUB PUSH2 0x2C6 JUMPI SWAP2 PUSH1 0x24 CALLDATALOAD SWAP1 DUP2 AND DUP2 SUB PUSH2 0x2C6 JUMPI SWAP1 PUSH1 0x44 CALLDATALOAD SWAP1 JUMP JUMPDEST PUSH2 0x590 PUSH2 0x8F7 CALLDATASIZE PUSH2 0x8A9 JUMP JUMPDEST SWAP2 PUSH2 0x22ED JUMP JUMPDEST CALLVALUE PUSH2 0x2C6 JUMPI PUSH1 0x20 PUSH1 0x3 NOT CALLDATASIZE ADD SLT PUSH2 0x2C6 JUMPI PUSH1 0x4 CALLDATALOAD PUSH1 0x0 MSTORE PUSH1 0xB PUSH1 0x20 MSTORE PUSH1 0x20 PUSH1 0x1 PUSH1 0x40 PUSH1 0x0 KECCAK256 ADD SLOAD PUSH1 0x40 MLOAD SWAP1 DUP2 MSTORE RETURN JUMPDEST CALLVALUE PUSH2 0x2C6 JUMPI PUSH1 0x40 PUSH1 0x3 NOT CALLDATASIZE ADD SLT PUSH2 0x2C6 JUMPI PUSH1 0x4 CALLDATALOAD PUSH1 0x0 MSTORE PUSH1 0xA PUSH1 0x20 MSTORE PUSH1 0x40 PUSH1 0x0 KECCAK256 PUSH1 0x40 MLOAD SWAP1 PUSH2 0x95A DUP3 PUSH2 0x104D JUMP JUMPDEST SLOAD SWAP1 PUSH20 0xFFFFFFFFFFFFFFFFFFFFFFFFFFFFFFFFFFFFFFFF DUP3 AND SWAP2 DUP3 DUP3 MSTORE PUSH1 0xA0 SHR PUSH1 0x20 DUP3 ADD MSTORE SWAP1 ISZERO PUSH2 0x9EF JUMPI JUMPDEST PUSH2 0x9C6 PUSH2 0x2710 PUSH2 0x9AA PUSH12 0xFFFFFFFFFFFFFFFFFFFFFFFF PUSH1 0x20 DUP6 ADD MLOAD AND PUSH1 0x24 CALLDATALOAD PUSH2 0x2FD0 JUMP JUMPDEST DIV SWAP2 MLOAD PUSH20 0xFFFFFFFFFFFFFFFFFFFFFFFFFFFFFFFFFFFFFFFF AND SWAP1 JUMP JUMPDEST PUSH1 0x40 DUP1 MLOAD PUSH20 0xFFFFFFFFFFFFFFFFFFFFFFFFFFFFFFFFFFFFFFFF SWAP3 SWAP1 SWAP3 AND DUP3 MSTORE PUSH1 0x20 DUP3 ADD SWAP3 SWAP1 SWAP3 MSTORE RETURN JUMPDEST POP PUSH2 0x9F8 PUSH2 0x2F9D JUMP JUMPDEST PUSH2 0x986 JUMP JUMPDEST CALLVALUE PUSH2 0x2C6 JUMPI PUSH1 0x40 PUSH1 0x3 NOT CALLDATASIZE ADD SLT PUSH2 0x2C6 JUMPI PUSH1 0x4 CALLDATALOAD PUSH2 0xAA5 PUSH2 0xA1C PUSH2 0x4D2 JUMP JUMPDEST PUSH20 0xFFFFFFFFFFFFFFFFFFFFFFFFFFFFFFFFFFFFFFFF PUSH2 0xA9D PUSH1 0x0 SWAP5 DUP1 DUP7 MSTORE PUSH1 0xB PUSH1 0x20 MSTORE PUSH2 0xA4F PUSH1 0x1 PUSH1 0x40 DUP9 KECCAK256 ADD SLOAD PUSH2 0x2A56 JUMP JUMPDEST DUP1 DUP7 MSTORE PUSH1 0xB PUSH1 0x20 MSTORE PUSH1 0xFF PUSH2 0xA86 DUP6 PUSH1 0x40 DUP10 KECCAK256 SWAP1 PUSH20 0xFFFFFFFFFFFFFFFFFFFFFFFFFFFFFFFFFFFFFFFF AND PUSH1 0x0 MSTORE PUSH1 0x20 MSTORE PUSH1 0x40 PUSH1 0x0 KECCAK256 SWAP1 JUMP JUMPDEST SLOAD AND ISZERO PUSH2 0xAA9 JUMPI PUSH1 0x0 MSTORE PUSH1 0xC PUSH1 0x20 MSTORE PUSH1 0x40 PUSH1 0x0 KECCAK256 SWAP1 JUMP JUMPDEST SWAP2 AND SWAP1 PUSH2 0x3418 JUMP JUMPDEST POP DUP1 RETURN JUMPDEST DUP1 DUP7 MSTORE PUSH1 0xB PUSH1 0x20 MSTORE PUSH2 0xADE DUP5 PUSH1 0x40 DUP9 KECCAK256 SWAP1 PUSH20 0xFFFFFFFFFFFFFFFFFFFFFFFFFFFFFFFFFFFFFFFF AND PUSH1 0x0 MSTORE PUSH1 0x20 MSTORE PUSH1 0x40 PUSH1 0x0 KECCAK256 SWAP1 JUMP JUMPDEST PUSH1 0x1 PUSH32 0xFFFFFFFFFFFFFFFFFFFFFFFFFFFFFFFFFFFFFFFFFFFFFFFFFFFFFFFFFFFFFF00 DUP3 SLOAD AND OR SWAP1 SSTORE CALLER DUP4 DUP6 AND DUP3 PUSH32 0x2F8788117E7EFF1D82E926EC794901D17C78024A50270940304540A733656F0D DUP10 DUP1 LOG4 PUSH1 0x0 MSTORE PUSH1 0xC PUSH1 0x20 MSTORE PUSH1 0x40 PUSH1 0x0 KECCAK256 SWAP1 JUMP JUMPDEST CALLVALUE PUSH2 0x2C6 JUMPI PUSH1 0x20 PUSH1 0x3 NOT CALLDATASIZE ADD SLT PUSH2 0x2C6 JUMPI PUSH1 0x4 CALLDATALOAD DUP1 ISZERO ISZERO DUP1 SWAP2 SUB PUSH2 0x2C6 JUMPI CALLER PUSH1 0x0 SWAP1 DUP2 MSTORE PUSH32 0x6937E6B1CDE141AAD05C7D03126A39EB070A9F0F221C44303558FA7A951A7435 PUSH1 0x20 MSTORE PUSH1 0x40 SWAP1 KECCAK256 SLOAD PUSH1 0xFF AND ISZERO PUSH2 0xBCC JUMPI PUSH32 0xFFFFFFFFFFFFFFFFFFFFFFFFFFFFFFFFFFFFFFFFFFFFFFFFFFFFFFFFFFFF00FF PUSH2 0xFF00 PUSH1 0x11 SLOAD SWAP3 PUSH1 0x8 SHL AND SWAP2 AND OR PUSH1 0x11 SSTORE PUSH1 0x0 DUP1 RETURN JUMPDEST PUSH2 0xC97 PUSH1 0x48 PUSH2 0xC65 PUSH2 0xBDD CALLER PUSH2 0x30D1 JUMP JUMPDEST PUSH2 0xC57 PUSH2 0xBE8 PUSH2 0x316E JUMP JUMPDEST PUSH1 0x40 MLOAD SWAP5 DUP6 SWAP4 PUSH32 0x416363657373436F6E74726F6C3A206163636F756E7420000000000000000000 PUSH1 0x20 DUP7 ADD MSTORE PUSH2 0xC28 DUP2 MLOAD DUP1 SWAP3 PUSH1 0x20 PUSH1 0x37 DUP10 ADD SWAP2 ADD PUSH2 0x592 JUMP JUMPDEST DUP5 ADD PUSH32 0x206973206D697373696E6720726F6C6520000000000000000000000000000000 PUSH1 0x37 DUP3 ADD MSTORE ADD SWAP1 PUSH2 0x213B JUMP JUMPDEST SUB PUSH1 0x1F NOT DUP2 ADD DUP4 MSTORE DUP3 PUSH2 0x108A JUMP JUMPDEST PUSH1 0x40 MLOAD SWAP2 DUP3 SWAP2 PUSH32 0x8C379A000000000000000000000000000000000000000000000000000000000 DUP4 MSTORE PUSH1 0x4 DUP4 ADD PUSH2 0x5DA JUMP JUMPDEST SUB SWAP1 REVERT JUMPDEST CALLVALUE PUSH2 0x2C6 JUMPI PUSH1 0x40 PUSH1 0x3 NOT CALLDATASIZE ADD SLT PUSH2 0x2C6 JUMPI PUSH2 0xCB4 PUSH2 0x4D2 JUMP JUMPDEST CALLER PUSH20 0xFFFFFFFFFFFFFFFFFFFFFFFFFFFFFFFFFFFFFFFF DUP3 AND SUB PUSH2 0xCDD JUMPI PUSH2 0x590 SWAP1 PUSH1 0x4 CALLDATALOAD PUSH2 0x2EA9 JUMP JUMPDEST PUSH1 0x84 PUSH1 0x40 MLOAD PUSH32 0x8C379A000000000000000000000000000000000000000000000000000000000 DUP2 MSTORE PUSH1 0x20 PUSH1 0x4 DUP3 ADD MSTORE PUSH1 0x2F PUSH1 0x24 DUP3 ADD MSTORE PUSH32 0x416363657373436F6E74726F6C3A2063616E206F6E6C792072656E6F756E6365 PUSH1 0x44 DUP3 ADD MSTORE PUSH32 0x20726F6C657320666F722073656C660000000000000000000000000000000000 PUSH1 0x64 DUP3 ADD MSTORE REVERT JUMPDEST CALLVALUE PUSH2 0x2C6 JUMPI PUSH1 0x40 PUSH1 0x3 NOT CALLDATASIZE ADD SLT PUSH2 0x2C6 JUMPI PUSH2 0xD7A PUSH2 0x4AF JUMP JUMPDEST PUSH1 0x24 CALLDATALOAD SWAP1 PUSH2 0xD86 PUSH2 0x29AC JUMP JUMPDEST PUSH1 0x0 SWAP2 DUP3 SLOAD SWAP2 DUP2 ISZERO PUSH2 0xE74 JUMPI PUSH2 0xD9A PUSH2 0x3FE1 JUMP JUMPDEST PUSH1 0x1 SWAP2 PUSH2 0xE00 PUSH20 0xFFFFFFFFFFFFFFFFFFFFFFFFFFFFFFFFFFFFFFFF DUP4 AND SWAP3 DUP5 DUP4 EQ PUSH1 0xE1 SHL TIMESTAMP PUSH1 0xA0 SHL OR DUP5 OR PUSH2 0xDD9 DUP8 PUSH1 0x0 MSTORE PUSH1 0x4 PUSH1 0x20 MSTORE PUSH1 0x40 PUSH1 0x0 KECCAK256 SWAP1 JUMP JUMPDEST SSTORE PUSH20 0xFFFFFFFFFFFFFFFFFFFFFFFFFFFFFFFFFFFFFFFF AND PUSH1 0x0 MSTORE PUSH1 0x5 PUSH1 0x20 MSTORE PUSH1 0x40 PUSH1 0x0 KECCAK256 SWAP1 JUMP JUMPDEST PUSH9 0x10000000000000001 DUP3 MUL DUP2 SLOAD ADD SWAP1 SSTORE DUP2 ISZERO PUSH2 0xE6F JUMPI DUP4 ADD SWAP3 SWAP2 DUP1 DUP1 JUMPDEST PUSH2 0xE2A JUMPI JUMPDEST DUP6 DUP6 DUP2 SSTORE DUP1 RETURN JUMPDEST ISZERO PUSH2 0xE5E JUMPI JUMPDEST DUP5 DUP2 DUP5 DUP5 DUP9 PUSH32 0xDDF252AD1BE2C89B69C2B068FC378DAA952BA7F163C4A11628F55A4DF523B3EF DUP2 DUP1 LOG4 PUSH2 0xE1E JUMP JUMPDEST DUP1 SWAP3 ADD SWAP2 DUP4 DUP4 SUB PUSH2 0xE30 JUMPI DUP1 PUSH2 0xE23 JUMP JUMPDEST PUSH2 0x2710 JUMP JUMPDEST PUSH2 0x26E6 JUMP JUMPDEST PUSH2 0x590 PUSH2 0xE85 CALLDATASIZE PUSH2 0x8A9 JUMP JUMPDEST SWAP1 PUSH1 0x40 MLOAD SWAP3 PUSH2 0xE93 DUP5 PUSH2 0x106E JUMP JUMPDEST PUSH1 0x0 DUP5 MSTORE PUSH2 0x2505 JUMP JUMPDEST CALLVALUE PUSH2 0x2C6 JUMPI PUSH1 0x20 PUSH1 0x3 NOT CALLDATASIZE ADD SLT PUSH2 0x2C6 JUMPI PUSH2 0x590 PUSH1 0x4 CALLDATALOAD PUSH2 0x3A64 JUMP JUMPDEST CALLVALUE PUSH2 0x2C6 JUMPI PUSH1 0x60 PUSH1 0x3 NOT CALLDATASIZE ADD SLT PUSH2 0x2C6 JUMPI PUSH2 0xED1 PUSH2 0x4D2 JUMP JUMPDEST PUSH2 0xED9 PUSH2 0x518 JUMP JUMPDEST SWAP1 PUSH2 0xEE2 PUSH2 0x2957 JUMP JUMPDEST PUSH2 0xEFE PUSH2 0x2710 PUSH12 0xFFFFFFFFFFFFFFFFFFFFFFFF DUP5 AND GT ISZERO PUSH2 0x3E7E JUMP JUMPDEST PUSH20 0xFFFFFFFFFFFFFFFFFFFFFFFFFFFFFFFFFFFFFFFF DUP2 AND ISZERO PUSH2 0xFC0 JUMPI PUSH2 0xF5D PUSH2 0x590 SWAP3 PUSH2 0xF48 PUSH2 0xF2C PUSH2 0x10AD JUMP JUMPDEST PUSH20 0xFFFFFFFFFFFFFFFFFFFFFFFFFFFFFFFFFFFFFFFF SWAP1 SWAP5 AND DUP5 MSTORE JUMP JUMPDEST PUSH12 0xFFFFFFFFFFFFFFFFFFFFFFFF AND PUSH1 0x20 DUP4 ADD MSTORE JUMP JUMPDEST PUSH2 0xF73 PUSH1 0x4 CALLDATALOAD PUSH1 0x0 MSTORE PUSH1 0xA PUSH1 0x20 MSTORE PUSH1 0x40 PUSH1 0x0 KECCAK256 SWAP1 JUMP JUMPDEST DUP2 MLOAD PUSH1 0x20 SWAP1 SWAP3 ADD MLOAD PUSH1 0xA0 SHL PUSH32 0xFFFFFFFFFFFFFFFFFFFFFFFF0000000000000000000000000000000000000000 AND PUSH20 0xFFFFFFFFFFFFFFFFFFFFFFFFFFFFFFFFFFFFFFFF SWAP1 SWAP3 AND SWAP2 SWAP1 SWAP2 OR SWAP1 SSTORE JUMP JUMPDEST PUSH1 0x64 PUSH1 0x40 MLOAD PUSH32 0x8C379A000000000000000000000000000000000000000000000000000000000 DUP2 MSTORE PUSH1 0x20 PUSH1 0x4 DUP3 ADD MSTORE PUSH1 0x1B PUSH1 0x24 DUP3 ADD MSTORE PUSH32 0x455243323938313A20496E76616C696420706172616D65746572730000000000 PUSH1 0x44 DUP3 ADD MSTORE REVERT JUMPDEST PUSH32 0x4E487B7100000000000000000000000000000000000000000000000000000000 PUSH1 0x0 MSTORE PUSH1 0x41 PUSH1 0x4 MSTORE PUSH1 0x24 PUSH1 0x0 REVERT JUMPDEST PUSH1 0x40 DUP2 ADD SWAP1 DUP2 LT PUSH8 0xFFFFFFFFFFFFFFFF DUP3 GT OR PUSH2 0x1069 JUMPI PUSH1 0x40 MSTORE JUMP JUMPDEST PUSH2 0x101E JUMP JUMPDEST PUSH1 0x20 DUP2 ADD SWAP1 DUP2 LT PUSH8 0xFFFFFFFFFFFFFFFF DUP3 GT OR PUSH2 0x1069 JUMPI PUSH1 0x40 MSTORE JUMP JUMPDEST SWAP1 PUSH1 0x1F PUSH1 0x1F NOT SWAP2 ADD AND DUP2 ADD SWAP1 DUP2 LT PUSH8 0xFFFFFFFFFFFFFFFF DUP3 GT OR PUSH2 0x1069 JUMPI PUSH1 0x40 MSTORE JUMP JUMPDEST PUSH1 0x40 MLOAD SWAP1 PUSH2 0x10BA DUP3 PUSH2 0x104D JUMP JUMPDEST JUMP JUMPDEST PUSH8 0xFFFFFFFFFFFFFFFF DUP2 GT PUSH2 0x1069 JUMPI PUSH1 0x1F ADD PUSH1 0x1F NOT AND PUSH1 0x20 ADD SWAP1 JUMP JUMPDEST SWAP3 SWAP2 SWAP3 PUSH2 0x10E4 DUP3 PUSH2 0x10BC JUMP JUMPDEST SWAP2 PUSH2 0x10F2 PUSH1 0x40 MLOAD SWAP4 DUP5 PUSH2 0x108A JUMP JUMPDEST DUP3 SWAP5 DUP2 DUP5 MSTORE DUP2 DUP4 ADD GT PUSH2 0x2C6 JUMPI DUP3 DUP2 PUSH1 0x20 SWAP4 DUP5 PUSH1 0x0 SWAP7 ADD CALLDATACOPY ADD ADD MSTORE JUMP JUMPDEST SWAP1 DUP1 PUSH1 0x1F DUP4 ADD SLT ISZERO PUSH2 0x2C6 JUMPI DUP2 PUSH1 0x20 PUSH2 0x5EB SWAP4 CALLDATALOAD SWAP2 ADD PUSH2 0x10D8 JUMP JUMPDEST CALLVALUE PUSH2 0x2C6 JUMPI PUSH1 0x40 PUSH1 0x3 NOT CALLDATASIZE ADD SLT PUSH2 0x2C6 JUMPI PUSH8 0xFFFFFFFFFFFFFFFF PUSH1 0x4 CALLDATALOAD DUP2 DUP2 GT PUSH2 0x2C6 JUMPI PUSH2 0x115C SWAP1 CALLDATASIZE SWAP1 PUSH1 0x4 ADD PUSH2 0x110F JUMP JUMPDEST SWAP1 PUSH1 0x24 CALLDATALOAD DUP2 DUP2 GT PUSH2 0x2C6 JUMPI PUSH2 0x1175 SWAP1 CALLDATASIZE SWAP1 PUSH1 0x4 ADD PUSH2 0x110F JUMP JUMPDEST SWAP1 PUSH2 0x117E PUSH2 0x2A01 JUMP JUMPDEST DUP3 MLOAD SWAP1 DUP2 GT PUSH2 0x1069 JUMPI PUSH2 0x119B DUP2 PUSH2 0x1196 PUSH1 0xE SLOAD PUSH2 0x359C JUMP JUMPDEST PUSH2 0x35EF JUMP JUMPDEST PUSH1 0x20 DUP1 PUSH1 0x1F DUP4 GT PUSH1 0x1 EQ PUSH2 0x11DC JUMPI POP DUP2 SWAP1 PUSH2 0x590 SWAP5 PUSH1 0x0 SWAP3 PUSH2 0x11D1 JUMPI JUMPDEST POP POP PUSH1 0x0 NOT DUP3 PUSH1 0x1 SHL SWAP3 PUSH1 0x3 SHL SHR NOT AND OR PUSH1 0xE SSTORE PUSH2 0x37B3 JUMP JUMPDEST ADD MLOAD SWAP1 POP CODESIZE DUP1 PUSH2 0x11B8 JUMP JUMPDEST PUSH1 0xE PUSH1 0x0 MSTORE SWAP2 SWAP4 PUSH1 0x1F NOT DUP6 AND PUSH32 0xBB7B4A454DC3493923482F07822329ED19E8244EFF582CC204F8554C3620C3FD SWAP4 PUSH1 0x0 SWAP1 JUMPDEST DUP3 DUP3 LT PUSH2 0x124F JUMPI POP POP SWAP2 PUSH1 0x1 SWAP4 SWAP2 DUP7 PUSH2 0x590 SWAP8 SWAP5 LT PUSH2 0x1236 JUMPI JUMPDEST POP POP POP DUP2 SHL ADD PUSH1 0xE SSTORE PUSH2 0x37B3 JUMP JUMPDEST ADD MLOAD PUSH1 0x0 NOT PUSH1 0xF8 DUP5 PUSH1 0x3 SHL AND SHR NOT AND SWAP1 SSTORE CODESIZE DUP1 DUP1 PUSH2 0x1228 JUMP JUMPDEST DUP1 PUSH1 0x1 DUP7 SWAP8 DUP3 SWAP5 SWAP8 DUP8 ADD MLOAD DUP2 SSTORE ADD SWAP7 ADD SWAP5 ADD SWAP1 PUSH2 0x120E JUMP JUMPDEST PUSH1 0x20 SWAP1 DUP2 PUSH1 0x40 DUP2 DUP4 ADD SWAP3 DUP3 DUP2 MSTORE DUP6 MLOAD DUP1 SWAP5 MSTORE ADD SWAP4 ADD SWAP2 PUSH1 0x0 JUMPDEST DUP3 DUP2 LT PUSH2 0x128E JUMPI POP POP POP POP SWAP1 JUMP JUMPDEST SWAP1 SWAP2 SWAP3 SWAP4 DUP3 PUSH1 0x80 DUP3 PUSH2 0x12E8 PUSH1 0x1 SWAP5 DUP10 MLOAD PUSH3 0xFFFFFF PUSH1 0x60 DUP1 SWAP3 PUSH20 0xFFFFFFFFFFFFFFFFFFFFFFFFFFFFFFFFFFFFFFFF DUP2 MLOAD AND DUP6 MSTORE PUSH8 0xFFFFFFFFFFFFFFFF PUSH1 0x20 DUP3 ADD MLOAD AND PUSH1 0x20 DUP7 ADD MSTORE PUSH1 0x40 DUP2 ADD MLOAD ISZERO ISZERO PUSH1 0x40 DUP7 ADD MSTORE ADD MLOAD AND SWAP2 ADD MSTORE JUMP JUMPDEST ADD SWAP6 ADD SWAP4 SWAP3 SWAP2 ADD PUSH2 0x1280 JUMP JUMPDEST CALLVALUE PUSH2 0x2C6 JUMPI PUSH1 0x20 PUSH1 0x3 NOT CALLDATASIZE ADD SLT PUSH2 0x2C6 JUMPI PUSH8 0xFFFFFFFFFFFFFFFF PUSH1 0x4 CALLDATALOAD DUP2 DUP2 GT PUSH2 0x2C6 JUMPI CALLDATASIZE PUSH1 0x23 DUP3 ADD SLT ISZERO PUSH2 0x2C6 JUMPI DUP1 PUSH1 0x4 ADD CALLDATALOAD SWAP2 DUP3 GT PUSH2 0x2C6 JUMPI CALLDATASIZE PUSH1 0x24 DUP4 PUSH1 0x5 SHL DUP4 ADD ADD GT PUSH2 0x2C6 JUMPI PUSH2 0x34E SWAP2 PUSH1 0x24 PUSH2 0x134E SWAP3 ADD PUSH2 0x2917 JUMP JUMPDEST PUSH1 0x40 MLOAD SWAP2 DUP3 SWAP2 DUP3 PUSH2 0x1267 JUMP JUMPDEST CALLVALUE PUSH2 0x2C6 JUMPI PUSH1 0x20 PUSH1 0x3 NOT CALLDATASIZE ADD SLT PUSH2 0x2C6 JUMPI PUSH1 0x20 PUSH20 0xFFFFFFFFFFFFFFFFFFFFFFFFFFFFFFFFFFFFFFFF PUSH2 0x138D PUSH1 0x4 CALLDATALOAD PUSH2 0x2152 JUMP JUMPDEST AND PUSH1 0x40 MLOAD SWAP1 DUP2 MSTORE RETURN JUMPDEST CALLVALUE PUSH2 0x2C6 JUMPI PUSH1 0x0 PUSH1 0x3 NOT CALLDATASIZE ADD SLT PUSH2 0x2C6 JUMPI PUSH1 0x20 PUSH1 0x40 MLOAD PUSH32 0x915327D54F2C758AD33C35B031B5E89868657EA971CDA2B8103C502DC672509C DUP2 MSTORE RETURN JUMPDEST CALLVALUE PUSH2 0x2C6 JUMPI PUSH1 0x20 PUSH1 0x3 NOT CALLDATASIZE ADD SLT PUSH2 0x2C6 JUMPI PUSH1 0x20 PUSH2 0x13F4 PUSH2 0x13EF PUSH2 0x4AF JUMP JUMPDEST PUSH2 0x20C7 JUMP JUMPDEST PUSH1 0x40 MLOAD SWAP1 DUP2 MSTORE RETURN JUMPDEST PUSH1 0x20 PUSH1 0x3 NOT DUP3 ADD SLT PUSH2 0x2C6 JUMPI PUSH1 0x4 CALLDATALOAD SWAP1 PUSH8 0xFFFFFFFFFFFFFFFF DUP3 GT PUSH2 0x2C6 JUMPI PUSH2 0x5EB SWAP2 PUSH1 0x4 ADD PUSH2 0x110F JUMP JUMPDEST CALLVALUE PUSH2 0x2C6 JUMPI PUSH2 0x1435 CALLDATASIZE PUSH2 0x13FC JUMP JUMPDEST PUSH2 0x143D PUSH2 0x2A01 JUMP JUMPDEST DUP1 MLOAD PUSH8 0xFFFFFFFFFFFFFFFF DUP2 GT PUSH2 0x1069 JUMPI PUSH2 0x1462 DUP2 PUSH2 0x145D PUSH1 0xD SLOAD PUSH2 0x359C JUMP JUMPDEST PUSH2 0x3660 JUMP JUMPDEST PUSH1 0x20 DUP1 PUSH1 0x1F DUP4 GT PUSH1 0x1 EQ PUSH2 0x149F JUMPI POP DUP2 SWAP3 PUSH1 0x0 SWAP3 PUSH2 0x1494 JUMPI JUMPDEST POP POP PUSH1 0x0 NOT DUP3 PUSH1 0x1 SHL SWAP3 PUSH1 0x3 SHL SHR NOT AND OR PUSH1 0xD SSTORE PUSH1 0x0 DUP1 RETURN JUMPDEST ADD MLOAD SWAP1 POP CODESIZE DUP1 PUSH2 0x147B JUMP JUMPDEST SWAP1 PUSH1 0x1F NOT DUP4 AND SWAP4 PUSH2 0x14D2 PUSH1 0xD PUSH1 0x0 MSTORE PUSH32 0xD7B6990105719101DABEB77144F2A3385C8033ACD3AF97E9423A695E81AD1EB5 SWAP1 JUMP JUMPDEST SWAP3 PUSH1 0x0 SWAP1 JUMPDEST DUP7 DUP3 LT PUSH2 0x150E JUMPI POP POP DUP4 PUSH1 0x1 SWAP6 LT PUSH2 0x14F5 JUMPI JUMPDEST POP POP POP DUP2 SHL ADD PUSH1 0xD SSTORE STOP JUMPDEST ADD MLOAD PUSH1 0x0 NOT PUSH1 0xF8 DUP5 PUSH1 0x3 SHL AND SHR NOT AND SWAP1 SSTORE CODESIZE DUP1 DUP1 PUSH2 0x14EA JUMP JUMPDEST DUP1 PUSH1 0x1 DUP6 SWAP7 DUP3 SWAP5 SWAP7 DUP7 ADD MLOAD DUP2 SSTORE ADD SWAP6 ADD SWAP4 ADD SWAP1 PUSH2 0x14D7 JUMP JUMPDEST CALLVALUE PUSH2 0x2C6 JUMPI PUSH1 0x0 PUSH1 0x3 NOT CALLDATASIZE ADD SLT PUSH2 0x2C6 JUMPI PUSH1 0x20 PUSH1 0xFF PUSH1 0x11 SLOAD PUSH1 0x8 SHR AND PUSH1 0x40 MLOAD SWAP1 ISZERO ISZERO DUP2 MSTORE RETURN JUMPDEST PUSH1 0x20 SWAP1 DUP2 PUSH1 0x40 DUP2 DUP4 ADD SWAP3 DUP3 DUP2 MSTORE DUP6 MLOAD DUP1 SWAP5 MSTORE ADD SWAP4 ADD SWAP2 PUSH1 0x0 JUMPDEST DUP3 DUP2 LT PUSH2 0x1573 JUMPI POP POP POP POP SWAP1 JUMP JUMPDEST DUP4 MLOAD DUP6 MSTORE SWAP4 DUP2 ADD SWAP4 SWAP3 DUP2 ADD SWAP3 PUSH1 0x1 ADD PUSH2 0x1565 JUMP JUMPDEST CALLVALUE PUSH2 0x2C6 JUMPI PUSH1 0x20 PUSH1 0x3 NOT CALLDATASIZE ADD SLT PUSH2 0x2C6 JUMPI PUSH2 0x15A0 PUSH2 0x4AF JUMP JUMPDEST PUSH1 0x0 DUP1 SLOAD SWAP1 PUSH1 0x60 DUP1 SWAP3 DUP1 ISZERO SWAP3 DUP4 ISZERO PUSH2 0x15C1 JUMPI JUMPDEST PUSH1 0x40 MLOAD DUP1 PUSH2 0x34E DUP8 DUP3 PUSH2 0x154C JUMP JUMPDEST SWAP5 SWAP2 SWAP4 POP DUP4 SWAP3 SWAP1 SWAP2 DUP6 SWAP2 PUSH2 0x170E JUMPI PUSH2 0x15D8 DUP2 PUSH2 0x20C7 JUMP JUMPDEST SWAP6 DUP7 PUSH2 0x15F2 JUMPI JUMPDEST POP POP POP POP POP PUSH2 0x34E SWAP2 POP CODESIZE DUP1 DUP1 DUP1 PUSH2 0x15B3 JUMP JUMPDEST SWAP1 SWAP2 SWAP3 SWAP4 SWAP5 POP DUP6 DUP5 GT ISZERO PUSH2 0x1705 JUMPI JUMPDEST PUSH1 0x40 SWAP3 DUP4 MLOAD SWAP6 PUSH1 0x1 SWAP4 DUP5 DUP10 ADD PUSH1 0x5 SHL DUP9 ADD SWAP9 DUP10 DUP8 MSTORE PUSH2 0x161E PUSH2 0x2842 JUMP JUMPDEST SWAP1 DUP5 SWAP2 PUSH2 0x1634 PUSH2 0x1630 DUP11 DUP4 ADD MLOAD ISZERO ISZERO SWAP1 JUMP JUMPDEST ISZERO SWAP1 JUMP JUMPDEST PUSH2 0x16E6 JUMPI JUMPDEST POP DUP5 SWAP6 SWAP2 SWAP6 SWAP9 DUP8 DUP1 JUMPDEST PUSH2 0x1662 JUMPI JUMPDEST POP POP POP POP POP POP POP POP POP POP PUSH2 0x34E SWAP3 POP DUP2 MSTORE CODESIZE DUP1 DUP1 DUP1 DUP1 PUSH2 0x15DF JUMP JUMPDEST ISZERO PUSH2 0x16C8 JUMPI JUMPDEST DUP6 SWAP7 PUSH2 0x1673 DUP5 PUSH2 0x2899 JUMP JUMPDEST DUP1 DUP12 ADD MLOAD ISZERO PUSH2 0x1690 JUMPI POP POP DUP8 DUP7 SWAP4 JUMPDEST ADD SWAP7 DUP9 DUP14 DUP12 MSTORE SWAP8 SWAP4 SWAP8 PUSH2 0x1642 JUMP JUMPDEST SWAP4 SWAP1 SWAP4 MLOAD DUP1 PUSH2 0x16C0 JUMPI JUMPDEST POP DUP5 DUP5 XOR DUP7 SHL ISZERO PUSH2 0x16AD JUMPI JUMPDEST DUP9 SWAP1 PUSH2 0x1682 JUMP JUMPDEST SWAP10 DUP9 ADD PUSH1 0x5 DUP2 SWAP1 SHL DUP13 ADD DUP12 SWAP1 MSTORE SWAP10 PUSH2 0x16A6 JUMP JUMPDEST SWAP4 POP CODESIZE PUSH2 0x169A JUMP JUMPDEST DUP1 DUP4 EQ DUP1 ISZERO PUSH2 0x16DD JUMPI JUMPDEST ISZERO PUSH2 0x1668 JUMPI DUP1 PUSH2 0x1647 JUMP JUMPDEST POP DUP2 DUP11 EQ PUSH2 0x16D2 JUMP JUMPDEST MLOAD PUSH20 0xFFFFFFFFFFFFFFFFFFFFFFFFFFFFFFFFFFFFFFFF AND SWAP2 POP CODESIZE PUSH2 0x1639 JUMP JUMPDEST SWAP5 POP DUP3 SWAP5 PUSH2 0x1601 JUMP JUMPDEST PUSH2 0x27E2 JUMP JUMPDEST CALLVALUE PUSH2 0x2C6 JUMPI PUSH1 0x40 PUSH1 0x3 NOT CALLDATASIZE ADD SLT PUSH2 0x2C6 JUMPI PUSH1 0x4 CALLDATALOAD PUSH1 0x0 MSTORE PUSH1 0xC PUSH1 0x20 MSTORE PUSH1 0x20 PUSH20 0xFFFFFFFFFFFFFFFFFFFFFFFFFFFFFFFFFFFFFFFF PUSH2 0x1756 PUSH1 0x24 CALLDATALOAD PUSH1 0x40 PUSH1 0x0 KECCAK256 PUSH2 0x33E2 JUMP JUMPDEST SWAP2 SWAP1 SLOAD PUSH1 0x40 MLOAD SWAP3 PUSH1 0x3 SHL SHR AND DUP2 MSTORE RETURN JUMPDEST CALLVALUE PUSH2 0x2C6 JUMPI PUSH1 0x40 PUSH1 0x3 NOT CALLDATASIZE ADD SLT PUSH2 0x2C6 JUMPI PUSH1 0x20 PUSH1 0xFF PUSH2 0x17BA PUSH2 0x1786 PUSH2 0x4D2 JUMP JUMPDEST PUSH1 0x4 CALLDATALOAD PUSH1 0x0 MSTORE PUSH1 0xB DUP5 MSTORE PUSH1 0x40 PUSH1 0x0 KECCAK256 SWAP1 PUSH20 0xFFFFFFFFFFFFFFFFFFFFFFFFFFFFFFFFFFFFFFFF AND PUSH1 0x0 MSTORE PUSH1 0x20 MSTORE PUSH1 0x40 PUSH1 0x0 KECCAK256 SWAP1 JUMP JUMPDEST SLOAD AND PUSH1 0x40 MLOAD SWAP1 ISZERO ISZERO DUP2 MSTORE RETURN JUMPDEST CALLVALUE PUSH2 0x2C6 JUMPI PUSH2 0x17D4 CALLDATASIZE PUSH2 0x13FC JUMP JUMPDEST PUSH2 0x17DC PUSH2 0x2A01 JUMP JUMPDEST DUP1 MLOAD PUSH8 0xFFFFFFFFFFFFFFFF DUP2 GT PUSH2 0x1069 JUMPI PUSH2 0x1801 DUP2 PUSH2 0x17FC PUSH1 0x10 SLOAD PUSH2 0x359C JUMP JUMPDEST PUSH2 0x36D1 JUMP JUMPDEST PUSH1 0x20 DUP1 PUSH1 0x1F DUP4 GT PUSH1 0x1 EQ PUSH2 0x183E JUMPI POP DUP2 SWAP3 PUSH1 0x0 SWAP3 PUSH2 0x1833 JUMPI JUMPDEST POP POP PUSH1 0x0 NOT DUP3 PUSH1 0x1 SHL SWAP3 PUSH1 0x3 SHL SHR NOT AND OR PUSH1 0x10 SSTORE PUSH1 0x0 DUP1 RETURN JUMPDEST ADD MLOAD SWAP1 POP CODESIZE DUP1 PUSH2 0x181A JUMP JUMPDEST SWAP1 PUSH1 0x1F NOT DUP4 AND SWAP4 PUSH2 0x1871 PUSH1 0x10 PUSH1 0x0 MSTORE PUSH32 0x1B6847DC741A1B0CD08D278845F9D819D87B734759AFB55FE2DE5CB82A9AE672 SWAP1 JUMP JUMPDEST SWAP3 PUSH1 0x0 SWAP1 JUMPDEST DUP7 DUP3 LT PUSH2 0x18AD JUMPI POP POP DUP4 PUSH1 0x1 SWAP6 LT PUSH2 0x1894 JUMPI JUMPDEST POP POP POP DUP2 SHL ADD PUSH1 0x10 SSTORE STOP JUMPDEST ADD MLOAD PUSH1 0x0 NOT PUSH1 0xF8 DUP5 PUSH1 0x3 SHL AND SHR NOT AND SWAP1 SSTORE CODESIZE DUP1 DUP1 PUSH2 0x1889 JUMP JUMPDEST DUP1 PUSH1 0x1 DUP6 SWAP7 DUP3 SWAP5 SWAP7 DUP7 ADD MLOAD DUP2 SSTORE ADD SWAP6 ADD SWAP4 ADD SWAP1 PUSH2 0x1876 JUMP JUMPDEST CALLVALUE PUSH2 0x2C6 JUMPI PUSH1 0x0 DUP1 PUSH1 0x3 NOT CALLDATASIZE ADD SLT PUSH2 0x6EA JUMPI PUSH1 0x40 MLOAD SWAP1 DUP1 PUSH1 0xF SLOAD PUSH2 0x18E8 DUP2 PUSH2 0x359C JUMP JUMPDEST DUP1 DUP6 MSTORE SWAP2 PUSH1 0x1 SWAP2 DUP1 DUP4 AND SWAP1 DUP2 ISZERO PUSH2 0x6A2 JUMPI POP PUSH1 0x1 EQ PUSH2 0x1911 JUMPI PUSH2 0x34E DUP6 PUSH2 0x63B DUP2 DUP8 SUB DUP3 PUSH2 0x108A JUMP JUMPDEST SWAP3 POP PUSH1 0xF DUP4 MSTORE PUSH32 0x8D1108E10BCB7C27DDDFC02ED9D693A074039D026CF4EA4240B40F7D581AC802 JUMPDEST DUP3 DUP5 LT PUSH2 0x1954 JUMPI POP POP POP DUP2 ADD PUSH1 0x20 ADD PUSH2 0x63B DUP3 PUSH2 0x34E PUSH2 0x62B JUMP JUMPDEST DUP1 SLOAD PUSH1 0x20 DUP6 DUP8 ADD DUP2 ADD SWAP2 SWAP1 SWAP2 MSTORE SWAP1 SWAP4 ADD SWAP3 DUP2 ADD PUSH2 0x1939 JUMP JUMPDEST CALLVALUE PUSH2 0x2C6 JUMPI PUSH1 0xE0 PUSH1 0x3 NOT CALLDATASIZE ADD SLT PUSH2 0x2C6 JUMPI PUSH2 0x1985 PUSH2 0x4AF JUMP JUMPDEST PUSH8 0xFFFFFFFFFFFFFFFF SWAP1 PUSH1 0x24 CALLDATALOAD DUP3 DUP2 GT PUSH2 0x2C6 JUMPI PUSH2 0x19A7 SWAP1 CALLDATASIZE SWAP1 PUSH1 0x4 ADD PUSH2 0x110F JUMP JUMPDEST PUSH1 0x44 CALLDATALOAD DUP4 DUP2 GT PUSH2 0x2C6 JUMPI PUSH2 0x19BF SWAP1 CALLDATASIZE SWAP1 PUSH1 0x4 ADD PUSH2 0x110F JUMP JUMPDEST PUSH1 0x64 CALLDATALOAD DUP5 DUP2 GT PUSH2 0x2C6 JUMPI PUSH2 0x19D7 SWAP1 CALLDATASIZE SWAP1 PUSH1 0x4 ADD PUSH2 0x110F JUMP JUMPDEST PUSH1 0x84 CALLDATALOAD SWAP5 DUP6 GT PUSH2 0x2C6 JUMPI PUSH2 0x19F2 PUSH2 0x590 SWAP6 CALLDATASIZE SWAP1 PUSH1 0x4 ADD PUSH2 0x110F JUMP JUMPDEST SWAP2 PUSH2 0x19FB PUSH2 0x4F5 JUMP JUMPDEST SWAP4 PUSH2 0x1A04 PUSH2 0x533 JUMP JUMPDEST SWAP6 PUSH2 0x3C81 JUMP JUMPDEST CALLVALUE PUSH2 0x2C6 JUMPI PUSH1 0x60 DUP1 PUSH1 0x3 NOT CALLDATASIZE ADD SLT PUSH2 0x2C6 JUMPI PUSH2 0x1A24 PUSH2 0x4AF JUMP JUMPDEST PUSH1 0x24 CALLDATALOAD SWAP2 SWAP1 PUSH1 0x44 CALLDATALOAD DUP4 DUP4 DUP3 DUP1 DUP4 LT ISZERO PUSH2 0x170E JUMPI PUSH1 0x0 SLOAD DUP1 SWAP2 LT ISZERO PUSH2 0x1B92 JUMPI JUMPDEST POP PUSH2 0x1A4D DUP5 PUSH2 0x20C7 JUMP JUMPDEST SWAP2 DUP4 DUP8 LT ISZERO PUSH2 0x1B89 JUMPI JUMPDEST DUP3 PUSH2 0x1A6B JUMPI JUMPDEST PUSH1 0x40 MLOAD DUP1 PUSH2 0x34E DUP9 DUP3 PUSH2 0x154C JUMP JUMPDEST SWAP1 SWAP2 SWAP3 SWAP4 SWAP5 POP DUP6 DUP5 SUB DUP4 DUP2 GT ISZERO PUSH2 0x1B81 JUMPI JUMPDEST POP PUSH1 0x40 SWAP3 DUP4 MLOAD SWAP6 PUSH1 0x1 SWAP4 PUSH1 0x5 SWAP2 PUSH2 0x1A9D DUP7 DUP6 ADD DUP5 SHL DUP11 ADD SWAP11 DUP12 DUP10 MSTORE PUSH2 0x2881 JUMP JUMPDEST SWAP4 PUSH1 0x0 SWAP5 PUSH2 0x1AB0 PUSH2 0x1630 DUP11 DUP4 ADD MLOAD ISZERO ISZERO SWAP1 JUMP JUMPDEST PUSH2 0x1B62 JUMPI JUMPDEST POP PUSH1 0x0 SWAP6 SWAP5 SWAP6 SWAP9 DUP8 DUP1 JUMPDEST PUSH2 0x1ADF JUMPI JUMPDEST POP POP POP POP POP POP POP POP POP POP PUSH2 0x34E SWAP3 POP DUP2 MSTORE CODESIZE DUP1 DUP1 DUP1 DUP1 PUSH2 0x1A5D JUMP JUMPDEST ISZERO PUSH2 0x1B44 JUMPI JUMPDEST PUSH1 0x0 SWAP7 PUSH2 0x1AF1 DUP8 PUSH2 0x2899 JUMP JUMPDEST DUP1 DUP12 ADD MLOAD ISZERO PUSH2 0x1B0E JUMPI POP POP DUP8 DUP8 SWAP7 JUMPDEST ADD SWAP7 DUP9 DUP14 DUP12 MSTORE SWAP8 SWAP7 SWAP8 PUSH2 0x1ABF JUMP JUMPDEST SWAP7 SWAP1 SWAP7 MLOAD DUP1 PUSH2 0x1B3C JUMPI JUMPDEST POP DUP4 DUP8 XOR DUP6 SHL ISZERO PUSH2 0x1B2B JUMPI JUMPDEST DUP9 SWAP1 PUSH2 0x1B00 JUMP JUMPDEST SWAP10 DUP9 ADD DUP1 DUP7 SHL DUP13 ADD DUP12 SWAP1 MSTORE SWAP10 PUSH2 0x1B24 JUMP JUMPDEST SWAP7 POP CODESIZE PUSH2 0x1B18 JUMP JUMPDEST DUP1 DUP7 EQ DUP1 ISZERO PUSH2 0x1B59 JUMPI JUMPDEST ISZERO PUSH2 0x1AE5 JUMPI DUP1 PUSH2 0x1AC4 JUMP JUMPDEST POP DUP2 DUP11 EQ PUSH2 0x1B4E JUMP JUMPDEST MLOAD PUSH20 0xFFFFFFFFFFFFFFFFFFFFFFFFFFFFFFFFFFFFFFFF AND SWAP5 POP CODESIZE PUSH2 0x1AB5 JUMP JUMPDEST SWAP3 POP CODESIZE PUSH2 0x1A7D JUMP JUMPDEST PUSH1 0x0 SWAP3 POP PUSH2 0x1A57 JUMP JUMPDEST SWAP3 POP CODESIZE PUSH2 0x1A43 JUMP JUMPDEST CALLVALUE PUSH2 0x2C6 JUMPI PUSH1 0x0 PUSH1 0x3 NOT CALLDATASIZE ADD SLT PUSH2 0x2C6 JUMPI PUSH1 0x20 PUSH1 0x40 MLOAD PUSH1 0x0 DUP2 MSTORE RETURN JUMPDEST CALLVALUE PUSH2 0x2C6 JUMPI PUSH1 0x40 PUSH1 0x3 NOT CALLDATASIZE ADD SLT PUSH2 0x2C6 JUMPI PUSH2 0x1BCF PUSH2 0x4AF JUMP JUMPDEST PUSH1 0x24 CALLDATALOAD SWAP1 DUP2 ISZERO ISZERO DUP1 SWAP3 SUB PUSH2 0x2C6 JUMPI PUSH20 0xFFFFFFFFFFFFFFFFFFFFFFFFFFFFFFFFFFFFFFFF SWAP1 CALLER PUSH1 0x0 MSTORE PUSH1 0x7 PUSH1 0x20 MSTORE PUSH2 0x1C2A DUP2 PUSH1 0x40 PUSH1 0x0 KECCAK256 SWAP1 PUSH20 0xFFFFFFFFFFFFFFFFFFFFFFFFFFFFFFFFFFFFFFFF AND PUSH1 0x0 MSTORE PUSH1 0x20 MSTORE PUSH1 0x40 PUSH1 0x0 KECCAK256 SWAP1 JUMP JUMPDEST PUSH32 0xFFFFFFFFFFFFFFFFFFFFFFFFFFFFFFFFFFFFFFFFFFFFFFFFFFFFFFFFFFFFFF00 DUP2 SLOAD AND PUSH1 0xFF DUP6 AND OR SWAP1 SSTORE PUSH1 0x40 MLOAD SWAP3 DUP4 MSTORE AND SWAP1 PUSH32 0x17307EAB39AB6107E8899845AD3D59BD9653F200F220920489CA2B5937696C31 PUSH1 0x20 CALLER SWAP3 LOG3 STOP JUMPDEST PUSH1 0x80 PUSH1 0x3 NOT CALLDATASIZE ADD SLT PUSH2 0x2C6 JUMPI PUSH2 0x1C99 PUSH2 0x4AF JUMP JUMPDEST PUSH2 0x1CA1 PUSH2 0x4D2 JUMP JUMPDEST PUSH1 0x64 CALLDATALOAD SWAP2 PUSH8 0xFFFFFFFFFFFFFFFF DUP4 GT PUSH2 0x2C6 JUMPI CALLDATASIZE PUSH1 0x23 DUP5 ADD SLT ISZERO PUSH2 0x2C6 JUMPI PUSH2 0x1CD6 PUSH2 0x590 SWAP4 CALLDATASIZE SWAP1 PUSH1 0x24 DUP2 PUSH1 0x4 ADD CALLDATALOAD SWAP2 ADD PUSH2 0x10D8 JUMP JUMPDEST SWAP2 PUSH1 0x44 CALLDATALOAD SWAP2 PUSH2 0x2505 JUMP JUMPDEST CALLVALUE PUSH2 0x2C6 JUMPI PUSH1 0x20 PUSH1 0x3 NOT CALLDATASIZE ADD SLT PUSH2 0x2C6 JUMPI PUSH1 0x80 PUSH2 0x1CFE PUSH1 0x4 CALLDATALOAD PUSH2 0x2881 JUMP JUMPDEST PUSH2 0x1D50 PUSH1 0x40 MLOAD DUP1 SWAP3 PUSH3 0xFFFFFF PUSH1 0x60 DUP1 SWAP3 PUSH20 0xFFFFFFFFFFFFFFFFFFFFFFFFFFFFFFFFFFFFFFFF DUP2 MLOAD AND DUP6 MSTORE PUSH8 0xFFFFFFFFFFFFFFFF PUSH1 0x20 DUP3 ADD MLOAD AND PUSH1 0x20 DUP7 ADD MSTORE PUSH1 0x40 DUP2 ADD MLOAD ISZERO ISZERO PUSH1 0x40 DUP7 ADD MSTORE ADD MLOAD AND SWAP2 ADD MSTORE JUMP JUMPDEST RETURN JUMPDEST CALLVALUE PUSH2 0x2C6 JUMPI PUSH1 0x20 DUP1 PUSH1 0x3 NOT CALLDATASIZE ADD SLT PUSH2 0x2C6 JUMPI PUSH1 0x4 CALLDATALOAD PUSH2 0x1D70 DUP2 PUSH2 0x228C JUMP JUMPDEST ISZERO PUSH2 0x1E94 JUMPI PUSH1 0x40 MLOAD SWAP1 DUP3 DUP3 PUSH1 0x0 PUSH1 0xD SLOAD PUSH2 0x1D89 DUP2 PUSH2 0x359C JUMP JUMPDEST DUP1 DUP5 MSTORE SWAP1 PUSH1 0x1 SWAP1 DUP2 DUP2 AND SWAP1 DUP2 ISZERO PUSH2 0x1E54 JUMPI POP PUSH1 0x1 EQ PUSH2 0x1DF5 JUMPI JUMPDEST POP POP PUSH2 0x1DB1 SWAP3 POP SUB DUP4 PUSH2 0x108A JUMP JUMPDEST DUP2 MLOAD ISZERO PUSH2 0x1DE2 JUMPI PUSH2 0x34E SWAP3 PUSH2 0xC57 PUSH2 0x1DCB PUSH2 0x63B SWAP4 PUSH2 0x269D JUMP JUMPDEST PUSH2 0x1DDC PUSH1 0x40 MLOAD SWAP6 DUP7 SWAP5 DUP6 ADD SWAP1 PUSH2 0x213B JUMP JUMPDEST SWAP1 PUSH2 0x213B JUMP JUMPDEST POP POP POP PUSH2 0x34E PUSH2 0x1DF0 PUSH2 0x2128 JUMP JUMPDEST PUSH2 0x63B JUMP JUMPDEST SWAP1 SWAP4 SWAP2 POP PUSH1 0xD PUSH1 0x0 MSTORE PUSH32 0xD7B6990105719101DABEB77144F2A3385C8033ACD3AF97E9423A695E81AD1EB5 SWAP4 PUSH1 0x0 SWAP2 JUMPDEST DUP2 DUP4 LT PUSH2 0x1E3C JUMPI POP DUP8 SWAP5 POP POP DUP3 ADD ADD PUSH2 0x1DB1 CODESIZE PUSH2 0x1DA3 JUMP JUMPDEST DUP6 SLOAD DUP9 DUP5 ADD DUP6 ADD MSTORE SWAP5 DUP6 ADD SWAP5 DUP8 SWAP5 POP SWAP2 DUP4 ADD SWAP2 PUSH2 0x1E24 JUMP JUMPDEST SWAP1 POP PUSH2 0x1DB1 SWAP6 SWAP4 POP PUSH32 0xFFFFFFFFFFFFFFFFFFFFFFFFFFFFFFFFFFFFFFFFFFFFFFFFFFFFFFFFFFFFFF00 SWAP2 POP AND DUP3 DUP5 ADD MSTORE ISZERO ISZERO PUSH1 0x5 SHL DUP3 ADD ADD DUP6 SWAP3 CODESIZE PUSH2 0x1DA3 JUMP JUMPDEST PUSH32 0xA14C4B5000000000000000000000000000000000000000000000000000000000 PUSH1 0x0 MSTORE PUSH1 0x4 PUSH1 0x0 REVERT JUMPDEST CALLVALUE PUSH2 0x2C6 JUMPI PUSH1 0x20 PUSH1 0x3 NOT CALLDATASIZE ADD SLT PUSH2 0x2C6 JUMPI PUSH1 0x4 CALLDATALOAD PUSH1 0x0 MSTORE PUSH1 0xC PUSH1 0x20 MSTORE PUSH1 0x20 PUSH1 0x40 PUSH1 0x0 KECCAK256 SLOAD PUSH1 0x40 MLOAD SWAP1 DUP2 MSTORE RETURN JUMPDEST CALLVALUE PUSH2 0x2C6 JUMPI PUSH1 0x40 PUSH1 0x3 NOT CALLDATASIZE ADD SLT PUSH2 0x2C6 JUMPI PUSH2 0x590 PUSH1 0x4 CALLDATALOAD PUSH2 0x1F09 PUSH2 0x4D2 JUMP JUMPDEST SWAP1 DUP1 PUSH1 0x0 MSTORE PUSH1 0xB PUSH1 0x20 MSTORE PUSH2 0x1F24 PUSH1 0x1 PUSH1 0x40 PUSH1 0x0 KECCAK256 ADD SLOAD PUSH2 0x2A56 JUMP JUMPDEST PUSH2 0x2EA9 JUMP JUMPDEST CALLVALUE PUSH2 0x2C6 JUMPI PUSH1 0x20 DUP1 PUSH1 0x3 NOT CALLDATASIZE ADD SLT PUSH2 0x2C6 JUMPI PUSH8 0xFFFFFFFFFFFFFFFF PUSH1 0x4 CALLDATALOAD DUP2 DUP2 GT PUSH2 0x2C6 JUMPI CALLDATASIZE PUSH1 0x23 DUP3 ADD SLT ISZERO PUSH2 0x2C6 JUMPI DUP1 PUSH1 0x4 ADD CALLDATALOAD SWAP2 DUP3 GT PUSH2 0x1069 JUMPI DUP2 PUSH1 0x5 SHL PUSH1 0x40 MLOAD SWAP3 PUSH2 0x1F79 DUP6 DUP4 ADD DUP6 PUSH2 0x108A JUMP JUMPDEST DUP4 MSTORE PUSH1 0x24 DUP5 DUP5 ADD SWAP2 DUP4 ADD ADD SWAP2 CALLDATASIZE DUP4 GT PUSH2 0x2C6 JUMPI PUSH1 0x24 ADD SWAP1 JUMPDEST DUP3 DUP3 LT PUSH2 0x1FA1 JUMPI PUSH2 0x590 DUP5 PUSH2 0x3C43 JUMP JUMPDEST DUP2 CALLDATALOAD DUP2 MSTORE SWAP1 DUP5 ADD SWAP1 DUP5 ADD PUSH2 0x1F91 JUMP JUMPDEST CALLVALUE PUSH2 0x2C6 JUMPI PUSH1 0x0 DUP1 PUSH1 0x3 NOT CALLDATASIZE ADD SLT PUSH2 0x6EA JUMPI PUSH1 0x40 MLOAD SWAP1 DUP1 PUSH1 0x10 SLOAD PUSH2 0x1FD3 DUP2 PUSH2 0x359C JUMP JUMPDEST DUP1 DUP6 MSTORE SWAP2 PUSH1 0x1 SWAP2 DUP1 DUP4 AND SWAP1 DUP2 ISZERO PUSH2 0x6A2 JUMPI POP PUSH1 0x1 EQ PUSH2 0x1FFC JUMPI PUSH2 0x34E DUP6 PUSH2 0x63B DUP2 DUP8 SUB DUP3 PUSH2 0x108A JUMP JUMPDEST SWAP3 POP PUSH1 0x10 DUP4 MSTORE PUSH32 0x1B6847DC741A1B0CD08D278845F9D819D87B734759AFB55FE2DE5CB82A9AE672 JUMPDEST DUP3 DUP5 LT PUSH2 0x203F JUMPI POP POP POP DUP2 ADD PUSH1 0x20 ADD PUSH2 0x63B DUP3 PUSH2 0x34E PUSH2 0x62B JUMP JUMPDEST DUP1 SLOAD PUSH1 0x20 DUP6 DUP8 ADD DUP2 ADD SWAP2 SWAP1 SWAP2 MSTORE SWAP1 SWAP4 ADD SWAP3 DUP2 ADD PUSH2 0x2024 JUMP JUMPDEST CALLVALUE PUSH2 0x2C6 JUMPI PUSH1 0x40 PUSH1 0x3 NOT CALLDATASIZE ADD SLT PUSH2 0x2C6 JUMPI PUSH1 0x20 PUSH1 0xFF PUSH2 0x17BA PUSH2 0x2077 PUSH2 0x4AF JUMP JUMPDEST PUSH20 0xFFFFFFFFFFFFFFFFFFFFFFFFFFFFFFFFFFFFFFFF PUSH2 0x2094 PUSH2 0x4D2 JUMP JUMPDEST SWAP2 AND PUSH1 0x0 MSTORE PUSH1 0x7 DUP5 MSTORE PUSH1 0x40 PUSH1 0x0 KECCAK256 SWAP1 PUSH20 0xFFFFFFFFFFFFFFFFFFFFFFFFFFFFFFFFFFFFFFFF AND PUSH1 0x0 MSTORE PUSH1 0x20 MSTORE PUSH1 0x40 PUSH1 0x0 KECCAK256 SWAP1 JUMP JUMPDEST PUSH20 0xFFFFFFFFFFFFFFFFFFFFFFFFFFFFFFFFFFFFFFFF AND DUP1 ISZERO PUSH2 0x20FE JUMPI PUSH1 0x0 MSTORE PUSH1 0x5 PUSH1 0x20 MSTORE PUSH8 0xFFFFFFFFFFFFFFFF PUSH1 0x40 PUSH1 0x0 KECCAK256 SLOAD AND SWAP1 JUMP JUMPDEST PUSH32 0x8F4EB60400000000000000000000000000000000000000000000000000000000 PUSH1 0x0 MSTORE PUSH1 0x4 PUSH1 0x0 REVERT JUMPDEST PUSH1 0x40 MLOAD SWAP1 PUSH2 0x2135 DUP3 PUSH2 0x106E JUMP JUMPDEST PUSH1 0x0 DUP3 MSTORE JUMP JUMPDEST SWAP1 PUSH2 0x214E PUSH1 0x20 SWAP3 DUP3 DUP2 MLOAD SWAP5 DUP6 SWAP3 ADD PUSH2 0x592 JUMP JUMPDEST ADD SWAP1 JUMP JUMPDEST PUSH2 0x2166 DUP2 PUSH1 0x0 MSTORE PUSH1 0x4 PUSH1 0x20 MSTORE PUSH1 0x40 PUSH1 0x0 KECCAK256 SWAP1 JUMP JUMPDEST SLOAD SWAP1 DUP2 ISZERO PUSH2 0x2196 JUMPI POP PUSH29 0x100000000000000000000000000000000000000000000000000000000 DUP2 AND PUSH2 0x273A JUMPI SWAP1 JUMP JUMPDEST SWAP1 POP PUSH1 0x0 SWAP1 DUP2 SLOAD DUP2 LT ISZERO PUSH2 0x2223 JUMPI PUSH1 0x0 NOT SWAP1 JUMPDEST ADD PUSH2 0x21BE DUP2 PUSH1 0x0 MSTORE PUSH1 0x4 PUSH1 0x20 MSTORE PUSH1 0x40 PUSH1 0x0 KECCAK256 SWAP1 JUMP JUMPDEST SLOAD SWAP1 DUP2 ISZERO PUSH2 0x2219 JUMPI POP PUSH29 0x100000000000000000000000000000000000000000000000000000000 DUP2 AND ISZERO PUSH2 0x2214 JUMPI PUSH1 0x4 DUP3 PUSH32 0xDF2D9B4200000000000000000000000000000000000000000000000000000000 DUP2 MSTORE REVERT JUMPDEST SWAP1 POP SWAP1 JUMP JUMPDEST PUSH1 0x0 NOT SWAP2 POP PUSH2 0x21A9 JUMP JUMPDEST PUSH1 0x4 DUP3 PUSH32 0xDF2D9B4200000000000000000000000000000000000000000000000000000000 DUP2 MSTORE REVERT JUMPDEST PUSH32 0x4E487B7100000000000000000000000000000000000000000000000000000000 PUSH1 0x0 MSTORE PUSH1 0x11 PUSH1 0x4 MSTORE PUSH1 0x24 PUSH1 0x0 REVERT JUMPDEST DUP1 ISZERO PUSH2 0x2287 JUMPI PUSH1 0x0 NOT ADD SWAP1 JUMP JUMPDEST PUSH2 0x224B JUMP JUMPDEST SWAP1 PUSH1 0x0 SWAP2 PUSH1 0x0 DUP1 SLOAD DUP3 LT PUSH2 0x229E JUMPI POP POP JUMP JUMPDEST SWAP2 SWAP3 POP JUMPDEST DUP1 DUP3 MSTORE PUSH1 0x4 PUSH1 0x20 MSTORE PUSH1 0x40 DUP3 KECCAK256 SLOAD DUP1 PUSH2 0x22C7 JUMPI POP PUSH2 0x22C0 PUSH1 0x40 SWAP2 PUSH2 0x227A JUMP JUMPDEST SWAP1 POP PUSH2 0x22A2 JUMP JUMPDEST PUSH29 0x100000000000000000000000000000000000000000000000000000000 AND ISZERO SWAP3 SWAP2 POP POP JUMP JUMPDEST SWAP2 SWAP1 SWAP2 PUSH2 0x22F9 DUP3 PUSH2 0x2152 JUMP JUMPDEST SWAP1 PUSH20 0xFFFFFFFFFFFFFFFFFFFFFFFFFFFFFFFFFFFFFFFF DUP1 SWAP2 AND SWAP4 DUP5 DUP3 DUP5 AND SUB PUSH2 0x2500 JUMPI PUSH1 0x0 DUP5 DUP2 MSTORE PUSH1 0x6 PUSH1 0x20 MSTORE PUSH1 0x40 SWAP1 KECCAK256 DUP1 SLOAD PUSH2 0x2352 PUSH20 0xFFFFFFFFFFFFFFFFFFFFFFFFFFFFFFFFFFFFFFFF DUP9 AND CALLER SWAP1 DUP2 EQ SWAP1 DUP4 EQ OR ISZERO SWAP1 JUMP JUMPDEST PUSH2 0x2496 JUMPI JUMPDEST PUSH2 0x2360 DUP8 PUSH2 0x4028 JUMP JUMPDEST PUSH2 0x248C JUMPI JUMPDEST POP PUSH2 0x2390 DUP6 PUSH20 0xFFFFFFFFFFFFFFFFFFFFFFFFFFFFFFFFFFFFFFFF AND PUSH1 0x0 MSTORE PUSH1 0x5 PUSH1 0x20 MSTORE PUSH1 0x40 PUSH1 0x0 KECCAK256 SWAP1 JUMP JUMPDEST DUP1 SLOAD PUSH1 0x0 NOT ADD SWAP1 SSTORE PUSH2 0x23C2 DUP2 PUSH20 0xFFFFFFFFFFFFFFFFFFFFFFFFFFFFFFFFFFFFFFFF AND PUSH1 0x0 MSTORE PUSH1 0x5 PUSH1 0x20 MSTORE PUSH1 0x40 PUSH1 0x0 KECCAK256 SWAP1 JUMP JUMPDEST DUP1 SLOAD PUSH1 0x1 ADD SWAP1 SSTORE AND SWAP3 DUP4 SWAP2 PUSH29 0x200000000000000000000000000000000000000000000000000000000 DUP1 TIMESTAMP PUSH1 0xA0 SHL DUP6 OR OR PUSH2 0x2407 DUP7 PUSH1 0x0 MSTORE PUSH1 0x4 PUSH1 0x20 MSTORE PUSH1 0x40 PUSH1 0x0 KECCAK256 SWAP1 JUMP JUMPDEST SSTORE DUP2 AND ISZERO PUSH2 0x2442 JUMPI JUMPDEST POP PUSH32 0xDDF252AD1BE2C89B69C2B068FC378DAA952BA7F163C4A11628F55A4DF523B3EF PUSH1 0x0 DUP1 LOG4 ISZERO PUSH2 0x243D JUMPI JUMP JUMPDEST PUSH2 0x27B8 JUMP JUMPDEST PUSH1 0x1 DUP5 ADD PUSH2 0x245A DUP2 PUSH1 0x0 MSTORE PUSH1 0x4 PUSH1 0x20 MSTORE PUSH1 0x40 PUSH1 0x0 KECCAK256 SWAP1 JUMP JUMPDEST SLOAD ISZERO PUSH2 0x2467 JUMPI JUMPDEST POP PUSH2 0x2410 JUMP JUMPDEST PUSH1 0x0 SLOAD DUP2 EQ PUSH2 0x2461 JUMPI PUSH2 0x2484 SWAP1 PUSH1 0x0 MSTORE PUSH1 0x4 PUSH1 0x20 MSTORE PUSH1 0x40 PUSH1 0x0 KECCAK256 SWAP1 JUMP JUMPDEST SSTORE CODESIZE DUP1 PUSH2 0x2461 JUMP JUMPDEST PUSH1 0x0 SWAP1 SSTORE CODESIZE PUSH2 0x2365 JUMP JUMPDEST PUSH2 0x24F6 PUSH2 0x1630 PUSH2 0x24EF CALLER PUSH2 0x24CA DUP12 PUSH20 0xFFFFFFFFFFFFFFFFFFFFFFFFFFFFFFFFFFFFFFFF AND PUSH1 0x0 MSTORE PUSH1 0x7 PUSH1 0x20 MSTORE PUSH1 0x40 PUSH1 0x0 KECCAK256 SWAP1 JUMP JUMPDEST SWAP1 PUSH20 0xFFFFFFFFFFFFFFFFFFFFFFFFFFFFFFFFFFFFFFFF AND PUSH1 0x0 MSTORE PUSH1 0x20 MSTORE PUSH1 0x40 PUSH1 0x0 KECCAK256 SWAP1 JUMP JUMPDEST SLOAD PUSH1 0xFF AND SWAP1 JUMP JUMPDEST ISZERO PUSH2 0x2357 JUMPI PUSH2 0x278E JUMP JUMPDEST PUSH2 0x2764 JUMP JUMPDEST SWAP3 SWAP2 SWAP1 PUSH2 0x2513 DUP3 DUP3 DUP7 PUSH2 0x22ED JUMP JUMPDEST DUP1 EXTCODESIZE PUSH2 0x2520 JUMPI JUMPDEST POP POP POP POP JUMP JUMPDEST PUSH2 0x2529 SWAP4 PUSH2 0x25A6 JUMP JUMPDEST ISZERO PUSH2 0x2537 JUMPI CODESIZE DUP1 DUP1 DUP1 PUSH2 0x251A JUMP JUMPDEST PUSH32 0xD1A57ED600000000000000000000000000000000000000000000000000000000 PUSH1 0x0 MSTORE PUSH1 0x4 PUSH1 0x0 REVERT JUMPDEST SWAP1 DUP2 PUSH1 0x20 SWAP2 SUB SLT PUSH2 0x2C6 JUMPI MLOAD PUSH2 0x5EB DUP2 PUSH2 0x29C JUMP JUMPDEST RETURNDATASIZE ISZERO PUSH2 0x25A1 JUMPI RETURNDATASIZE SWAP1 PUSH2 0x2587 DUP3 PUSH2 0x10BC JUMP JUMPDEST SWAP2 PUSH2 0x2595 PUSH1 0x40 MLOAD SWAP4 DUP5 PUSH2 0x108A JUMP JUMPDEST DUP3 MSTORE RETURNDATASIZE PUSH1 0x0 PUSH1 0x20 DUP5 ADD RETURNDATACOPY JUMP JUMPDEST PUSH1 0x60 SWAP1 JUMP JUMPDEST SWAP2 SWAP3 PUSH1 0x20 SWAP2 PUSH2 0x2618 SWAP2 PUSH1 0x0 PUSH1 0x40 MLOAD SWAP6 DUP7 DUP1 SWAP6 DUP2 SWAP5 PUSH32 0x150B7A0200000000000000000000000000000000000000000000000000000000 SWAP11 DUP12 DUP5 MSTORE CALLER PUSH1 0x4 DUP6 ADD MSTORE PUSH20 0xFFFFFFFFFFFFFFFFFFFFFFFFFFFFFFFFFFFFFFFF DUP1 SWAP6 AND PUSH1 0x24 DUP6 ADD MSTORE PUSH1 0x44 DUP5 ADD MSTORE PUSH1 0x80 PUSH1 0x64 DUP5 ADD MSTORE PUSH1 0x84 DUP4 ADD SWAP1 PUSH2 0x5B5 JUMP JUMPDEST SUB SWAP4 AND GAS CALL PUSH1 0x0 SWAP2 DUP2 PUSH2 0x266D JUMPI JUMPDEST POP PUSH2 0x2647 JUMPI PUSH2 0x2633 PUSH2 0x2576 JUMP JUMPDEST DUP1 MLOAD ISZERO PUSH2 0x2642 JUMPI DUP1 MLOAD SWAP1 PUSH1 0x20 ADD REVERT JUMPDEST PUSH2 0x2537 JUMP JUMPDEST PUSH32 0xFFFFFFFF00000000000000000000000000000000000000000000000000000000 AND EQ SWAP1 JUMP JUMPDEST PUSH2 0x268F SWAP2 SWAP3 POP PUSH1 0x20 RETURNDATASIZE DUP2 GT PUSH2 0x2696 JUMPI JUMPDEST PUSH2 0x2687 DUP2 DUP4 PUSH2 0x108A JUMP JUMPDEST DUP2 ADD SWAP1 PUSH2 0x2561 JUMP JUMPDEST SWAP1 CODESIZE PUSH2 0x2626 JUMP JUMPDEST POP RETURNDATASIZE PUSH2 0x267D JUMP JUMPDEST SWAP1 PUSH1 0x40 MLOAD PUSH1 0xA0 DUP2 ADD PUSH1 0x40 MSTORE PUSH1 0x0 NOT PUSH1 0x80 DUP3 ADD SWAP4 PUSH1 0x0 DUP6 MSTORE SWAP4 JUMPDEST ADD SWAP3 PUSH1 0xA SWAP1 DUP2 DUP2 MOD PUSH1 0x30 ADD DUP6 MSTORE8 DIV SWAP3 DUP4 ISZERO PUSH2 0x26D4 JUMPI PUSH1 0x0 NOT SWAP1 PUSH2 0x26B6 JUMP JUMPDEST SWAP3 POP PUSH1 0x80 DUP4 PUSH1 0x1F NOT SWAP3 SUB ADD SWAP3 ADD SWAP2 DUP3 MSTORE JUMP JUMPDEST PUSH32 0xB562E8DD00000000000000000000000000000000000000000000000000000000 PUSH1 0x0 MSTORE PUSH1 0x4 PUSH1 0x0 REVERT JUMPDEST PUSH32 0x2E07630000000000000000000000000000000000000000000000000000000000 PUSH1 0x0 MSTORE PUSH1 0x4 PUSH1 0x0 REVERT JUMPDEST PUSH32 0xDF2D9B4200000000000000000000000000000000000000000000000000000000 PUSH1 0x0 MSTORE PUSH1 0x4 PUSH1 0x0 REVERT JUMPDEST PUSH32 0xA114810000000000000000000000000000000000000000000000000000000000 PUSH1 0x0 MSTORE PUSH1 0x4 PUSH1 0x0 REVERT JUMPDEST PUSH32 0x59C896BE00000000000000000000000000000000000000000000000000000000 PUSH1 0x0 MSTORE PUSH1 0x4 PUSH1 0x0 REVERT JUMPDEST PUSH32 0xEA553B3400000000000000000000000000000000000000000000000000000000 PUSH1 0x0 MSTORE PUSH1 0x4 PUSH1 0x0 REVERT JUMPDEST PUSH32 0x32C1995A00000000000000000000000000000000000000000000000000000000 PUSH1 0x0 MSTORE PUSH1 0x4 PUSH1 0x0 REVERT JUMPDEST PUSH1 0x40 MLOAD SWAP1 PUSH1 0x80 DUP3 ADD DUP3 DUP2 LT PUSH8 0xFFFFFFFFFFFFFFFF DUP3 GT OR PUSH2 0x1069 JUMPI PUSH1 0x40 MSTORE PUSH1 0x0 PUSH1 0x60 DUP4 DUP3 DUP2 MSTORE DUP3 PUSH1 0x20 DUP3 ADD MSTORE DUP3 PUSH1 0x40 DUP3 ADD MSTORE ADD MSTORE JUMP JUMPDEST PUSH1 0x0 SWAP1 DUP2 PUSH2 0x284E PUSH2 0x280C JUMP JUMPDEST SWAP3 DUP1 SLOAD PUSH2 0x2859 JUMPI POP POP JUMP JUMPDEST SWAP2 SWAP3 POP JUMPDEST DUP1 DUP3 MSTORE PUSH1 0x4 PUSH1 0x20 MSTORE PUSH1 0x40 DUP3 KECCAK256 SLOAD PUSH2 0x2877 JUMPI PUSH1 0x0 NOT ADD PUSH2 0x285D JUMP JUMPDEST PUSH2 0x5EB SWAP2 POP PUSH2 0x2899 JUMP JUMPDEST SWAP1 PUSH2 0x288A PUSH2 0x280C JUMP JUMPDEST SWAP2 PUSH1 0x0 DUP1 SLOAD DUP3 LT PUSH2 0x2859 JUMPI POP POP JUMP JUMPDEST PUSH2 0x28A1 PUSH2 0x280C JUMP JUMPDEST POP PUSH1 0x0 MSTORE PUSH1 0x4 PUSH1 0x20 MSTORE PUSH1 0x40 PUSH1 0x0 KECCAK256 SLOAD PUSH2 0x28B8 PUSH2 0x280C JUMP JUMPDEST SWAP1 PUSH20 0xFFFFFFFFFFFFFFFFFFFFFFFFFFFFFFFFFFFFFFFF DUP2 AND DUP3 MSTORE PUSH8 0xFFFFFFFFFFFFFFFF DUP2 PUSH1 0xA0 SHR AND PUSH1 0x20 DUP4 ADD MSTORE PUSH29 0x100000000000000000000000000000000000000000000000000000000 DUP2 AND ISZERO ISZERO PUSH1 0x40 DUP4 ADD MSTORE PUSH1 0xE8 SHR PUSH1 0x60 DUP3 ADD MSTORE SWAP1 JUMP JUMPDEST PUSH1 0x40 MLOAD SWAP2 DUP1 DUP4 MSTORE PUSH1 0x5 SHL PUSH1 0x20 DUP2 DUP5 ADD ADD PUSH1 0x40 MSTORE JUMPDEST DUP1 DUP2 DUP1 ISZERO PUSH2 0x2950 JUMPI PUSH2 0x2947 SWAP1 PUSH1 0x1F NOT DUP1 SWAP2 ADD SWAP4 DUP6 ADD ADD CALLDATALOAD PUSH2 0x2881 JUMP JUMPDEST SWAP1 DUP5 ADD MSTORE PUSH2 0x292B JUMP JUMPDEST POP POP POP POP SWAP1 JUMP JUMPDEST CALLER PUSH1 0x0 SWAP1 DUP2 MSTORE PUSH32 0x142AE0BD48B54FB380E908BF20FD1F4EA4F2B9A2663CA7698D91EF391575C621 PUSH1 0x20 MSTORE PUSH1 0x40 SWAP1 KECCAK256 SLOAD PUSH1 0xFF AND ISZERO PUSH2 0x2990 JUMPI JUMP JUMPDEST PUSH2 0xC97 PUSH1 0x48 PUSH2 0xC65 PUSH2 0x29A1 CALLER PUSH2 0x30D1 JUMP JUMPDEST PUSH2 0xC57 PUSH2 0xBE8 PUSH2 0x320B JUMP JUMPDEST CALLER PUSH1 0x0 SWAP1 DUP2 MSTORE PUSH32 0xF70E363B3D7895AF770C4A138460777D52EEBD3CB9962CCC6B58721F6127BBC8 PUSH1 0x20 MSTORE PUSH1 0x40 SWAP1 KECCAK256 SLOAD PUSH1 0xFF AND ISZERO PUSH2 0x29E5 JUMPI JUMP JUMPDEST PUSH2 0xC97 PUSH1 0x48 PUSH2 0xC65 PUSH2 0x29F6 CALLER PUSH2 0x30D1 JUMP JUMPDEST PUSH2 0xC57 PUSH2 0xBE8 PUSH2 0x32A8 JUMP JUMPDEST CALLER PUSH1 0x0 SWAP1 DUP2 MSTORE PUSH32 0xEA6919AD9E84AA527AA2DFFB6AC6F0A6AF0387A080D10167ACDDF2A249A612DD PUSH1 0x20 MSTORE PUSH1 0x40 SWAP1 KECCAK256 SLOAD PUSH1 0xFF AND ISZERO PUSH2 0x2A3A JUMPI JUMP JUMPDEST PUSH2 0xC97 PUSH1 0x48 PUSH2 0xC65 PUSH2 0x2A4B CALLER PUSH2 0x30D1 JUMP JUMPDEST PUSH2 0xC57 PUSH2 0xBE8 PUSH2 0x3345 JUMP JUMPDEST DUP1 PUSH1 0x0 MSTORE PUSH1 0xB PUSH1 0x20 MSTORE PUSH1 0xFF PUSH2 0x2A8F CALLER PUSH1 0x40 PUSH1 0x0 KECCAK256 SWAP1 PUSH20 0xFFFFFFFFFFFFFFFFFFFFFFFFFFFFFFFFFFFFFFFF AND PUSH1 0x0 MSTORE PUSH1 0x20 MSTORE PUSH1 0x40 PUSH1 0x0 KECCAK256 SWAP1 JUMP JUMPDEST SLOAD AND ISZERO PUSH2 0x2A99 JUMPI POP JUMP JUMPDEST PUSH2 0x2AA2 CALLER PUSH2 0x30D1 JUMP JUMPDEST PUSH2 0x2AAA PUSH2 0x2FE3 JUMP JUMPDEST SWAP2 PUSH1 0x30 PUSH2 0x2AB6 DUP5 PUSH2 0x303E JUMP JUMPDEST MSTORE8 PUSH1 0x78 PUSH2 0x2AC2 DUP5 PUSH2 0x304B JUMP JUMPDEST MSTORE8 PUSH1 0x41 JUMPDEST PUSH1 0x1 DUP2 GT PUSH2 0x2AE5 JUMPI PUSH2 0xC97 PUSH1 0x48 PUSH2 0xC65 DUP6 PUSH2 0xC57 DUP9 PUSH2 0xBE8 DUP9 ISZERO PUSH2 0x306C JUMP JUMPDEST SWAP1 PUSH1 0xF DUP2 AND SWAP1 PUSH1 0x10 DUP3 LT ISZERO PUSH2 0x2B33 JUMPI PUSH32 0x3031323334353637383961626364656600000000000000000000000000000000 PUSH2 0x2B2E SWAP3 BYTE PUSH2 0x2B24 DUP5 DUP8 PUSH2 0x305B JUMP JUMPDEST MSTORE8 PUSH1 0x4 SHR SWAP2 PUSH2 0x227A JUMP JUMPDEST PUSH2 0x2AC6 JUMP JUMPDEST PUSH2 0x300F JUMP JUMPDEST PUSH20 0xFFFFFFFFFFFFFFFFFFFFFFFFFFFFFFFFFFFFFFFF DUP1 DUP3 AND PUSH1 0x0 SWAP1 DUP2 MSTORE PUSH32 0x6937E6B1CDE141AAD05C7D03126A39EB070A9F0F221C44303558FA7A951A7435 PUSH1 0x20 MSTORE PUSH1 0x40 DUP1 DUP3 KECCAK256 PUSH2 0x2BC3 SWAP5 SWAP4 SWAP3 SWAP1 PUSH32 0x915327D54F2C758AD33C35B031B5E89868657EA971CDA2B8103C502DC672509C SWAP1 PUSH1 0xFF SWAP1 JUMPDEST SLOAD AND ISZERO PUSH2 0x2BC6 JUMPI JUMPDEST DUP2 MSTORE PUSH1 0xC PUSH1 0x20 MSTORE KECCAK256 SWAP2 AND SWAP1 PUSH2 0x3418 JUMP JUMPDEST POP JUMP JUMPDEST DUP1 DUP3 MSTORE PUSH1 0xB PUSH1 0x20 MSTORE PUSH2 0x2BFA DUP6 DUP5 DUP5 KECCAK256 SWAP1 PUSH20 0xFFFFFFFFFFFFFFFFFFFFFFFFFFFFFFFFFFFFFFFF AND PUSH1 0x0 MSTORE PUSH1 0x20 MSTORE PUSH1 0x40 PUSH1 0x0 KECCAK256 SWAP1 JUMP JUMPDEST PUSH1 0x1 PUSH32 0xFFFFFFFFFFFFFFFFFFFFFFFFFFFFFFFFFFFFFFFFFFFFFFFFFFFFFFFFFFFFFF00 DUP3 SLOAD AND OR SWAP1 SSTORE CALLER DUP5 DUP7 AND DUP3 PUSH32 0x2F8788117E7EFF1D82E926EC794901D17C78024A50270940304540A733656F0D DUP6 DUP1 LOG4 PUSH2 0x2BB3 JUMP JUMPDEST PUSH20 0xFFFFFFFFFFFFFFFFFFFFFFFFFFFFFFFFFFFFFFFF DUP2 DUP2 AND PUSH1 0x0 SWAP1 DUP2 MSTORE PUSH32 0xDF7DE25B7F1FD6D0B5205F0E18F1F35BD7B8D84CCE336588D184533CE43A6F76 PUSH1 0x20 MSTORE PUSH1 0x40 DUP1 DUP3 KECCAK256 SLOAD PUSH2 0x2BC3 SWAP5 SWAP4 SWAP3 SWAP1 PUSH1 0xFF AND ISZERO PUSH2 0x2CB9 JUMPI JUMPDEST DUP1 DUP1 MSTORE PUSH1 0xC PUSH1 0x20 MSTORE KECCAK256 SWAP2 AND SWAP1 PUSH2 0x3418 JUMP JUMPDEST DUP1 DUP1 MSTORE PUSH1 0xB PUSH1 0x20 MSTORE PUSH2 0x2CED DUP5 DUP4 DUP4 KECCAK256 SWAP1 PUSH20 0xFFFFFFFFFFFFFFFFFFFFFFFFFFFFFFFFFFFFFFFF AND PUSH1 0x0 MSTORE PUSH1 0x20 MSTORE PUSH1 0x40 PUSH1 0x0 KECCAK256 SWAP1 JUMP JUMPDEST PUSH1 0x1 PUSH32 0xFFFFFFFFFFFFFFFFFFFFFFFFFFFFFFFFFFFFFFFFFFFFFFFFFFFFFFFFFFFFFF00 DUP3 SLOAD AND OR SWAP1 SSTORE CALLER DUP4 DUP6 AND DUP3 PUSH32 0x2F8788117E7EFF1D82E926EC794901D17C78024A50270940304540A733656F0D DUP2 DUP1 LOG4 PUSH2 0x2CA8 JUMP JUMPDEST PUSH20 0xFFFFFFFFFFFFFFFFFFFFFFFFFFFFFFFFFFFFFFFF DUP1 DUP3 AND PUSH1 0x0 SWAP1 DUP2 MSTORE PUSH32 0xEA6919AD9E84AA527AA2DFFB6AC6F0A6AF0387A080D10167ACDDF2A249A612DD PUSH1 0x20 MSTORE PUSH1 0x40 DUP1 DUP3 KECCAK256 PUSH2 0x2BC3 SWAP5 SWAP4 SWAP3 SWAP1 PUSH32 0xE02A0315B383857AC496E9D2B2546A699AFAEB4E5E83A1FDEF64376D0B74E5A5 SWAP1 PUSH1 0xFF SWAP1 PUSH2 0x2BAB JUMP JUMPDEST PUSH20 0xFFFFFFFFFFFFFFFFFFFFFFFFFFFFFFFFFFFFFFFF DUP1 DUP3 AND PUSH1 0x0 SWAP1 DUP2 MSTORE PUSH32 0x142AE0BD48B54FB380E908BF20FD1F4EA4F2B9A2663CA7698D91EF391575C621 PUSH1 0x20 MSTORE PUSH1 0x40 DUP1 DUP3 KECCAK256 PUSH2 0x2BC3 SWAP5 SWAP4 SWAP3 SWAP1 PUSH32 0x6DB4061A20CA83A3BE756EE172BD37A029093AC5AFE4CE968C6D5435B43CB011 SWAP1 PUSH1 0xFF SWAP1 PUSH2 0x2BAB JUMP JUMPDEST PUSH20 0xFFFFFFFFFFFFFFFFFFFFFFFFFFFFFFFFFFFFFFFF DUP1 DUP3 AND PUSH1 0x0 SWAP1 DUP2 MSTORE PUSH32 0xF70E363B3D7895AF770C4A138460777D52EEBD3CB9962CCC6B58721F6127BBC8 PUSH1 0x20 MSTORE PUSH1 0x40 DUP1 DUP3 KECCAK256 PUSH2 0x2BC3 SWAP5 SWAP4 SWAP3 SWAP1 PUSH32 0x9F2DF0FED2C77648DE5860A4CC508CD0818C85B8B8A1AB4CEEEF8D981C8956A6 SWAP1 PUSH1 0xFF SWAP1 PUSH2 0x2BAB JUMP JUMPDEST SWAP1 PUSH20 0xFFFFFFFFFFFFFFFFFFFFFFFFFFFFFFFFFFFFFFFF PUSH1 0x40 PUSH2 0x2BC3 SWAP4 PUSH1 0x0 SWAP1 DUP1 DUP3 MSTORE PUSH1 0xB PUSH1 0x20 MSTORE PUSH1 0xFF PUSH2 0x2EFE DUP7 DUP6 DUP6 KECCAK256 SWAP1 PUSH20 0xFFFFFFFFFFFFFFFFFFFFFFFFFFFFFFFFFFFFFFFF AND PUSH1 0x0 MSTORE PUSH1 0x20 MSTORE PUSH1 0x40 PUSH1 0x0 KECCAK256 SWAP1 JUMP JUMPDEST SLOAD AND PUSH2 0x2F15 JUMPI JUMPDEST DUP2 MSTORE PUSH1 0xC PUSH1 0x20 MSTORE KECCAK256 SWAP2 AND SWAP1 PUSH2 0x34E7 JUMP JUMPDEST DUP1 DUP3 MSTORE PUSH1 0xB PUSH1 0x20 MSTORE PUSH2 0x2F49 DUP6 DUP5 DUP5 KECCAK256 SWAP1 PUSH20 0xFFFFFFFFFFFFFFFFFFFFFFFFFFFFFFFFFFFFFFFF AND PUSH1 0x0 MSTORE PUSH1 0x20 MSTORE PUSH1 0x40 PUSH1 0x0 KECCAK256 SWAP1 JUMP JUMPDEST PUSH32 0xFFFFFFFFFFFFFFFFFFFFFFFFFFFFFFFFFFFFFFFFFFFFFFFFFFFFFFFFFFFFFF00 DUP2 SLOAD AND SWAP1 SSTORE CALLER DUP5 DUP7 AND DUP3 PUSH32 0xF6391F5C32D9C69D2A47EA670B442974B53935D1EDC7FD64EB21E047A839171B DUP6 DUP1 LOG4 PUSH2 0x2F05 JUMP JUMPDEST PUSH1 0x40 MLOAD SWAP1 PUSH2 0x2FAA DUP3 PUSH2 0x104D JUMP JUMPDEST PUSH1 0x9 SLOAD PUSH20 0xFFFFFFFFFFFFFFFFFFFFFFFFFFFFFFFFFFFFFFFF DUP2 AND DUP4 MSTORE PUSH1 0xA0 SHR PUSH1 0x20 DUP4 ADD MSTORE JUMP JUMPDEST DUP2 DUP2 MUL SWAP3 SWAP2 DUP2 ISZERO SWAP2 DUP5 DIV EQ OR ISZERO PUSH2 0x2287 JUMPI JUMP JUMPDEST PUSH1 0x40 MLOAD SWAP1 PUSH1 0x80 DUP3 ADD DUP3 DUP2 LT PUSH8 0xFFFFFFFFFFFFFFFF DUP3 GT OR PUSH2 0x1069 JUMPI PUSH1 0x40 MSTORE PUSH1 0x42 DUP3 MSTORE PUSH1 0x60 CALLDATASIZE PUSH1 0x20 DUP5 ADD CALLDATACOPY JUMP JUMPDEST PUSH32 0x4E487B7100000000000000000000000000000000000000000000000000000000 PUSH1 0x0 MSTORE PUSH1 0x32 PUSH1 0x4 MSTORE PUSH1 0x24 PUSH1 0x0 REVERT JUMPDEST DUP1 MLOAD ISZERO PUSH2 0x2B33 JUMPI PUSH1 0x20 ADD SWAP1 JUMP JUMPDEST DUP1 MLOAD PUSH1 0x1 LT ISZERO PUSH2 0x2B33 JUMPI PUSH1 0x21 ADD SWAP1 JUMP JUMPDEST SWAP1 DUP2 MLOAD DUP2 LT ISZERO PUSH2 0x2B33 JUMPI ADD PUSH1 0x20 ADD SWAP1 JUMP JUMPDEST ISZERO PUSH2 0x3073 JUMPI JUMP JUMPDEST PUSH1 0x64 PUSH1 0x40 MLOAD PUSH32 0x8C379A000000000000000000000000000000000000000000000000000000000 DUP2 MSTORE PUSH1 0x20 PUSH1 0x4 DUP3 ADD MSTORE PUSH1 0x20 PUSH1 0x24 DUP3 ADD MSTORE PUSH32 0x537472696E67733A20686578206C656E67746820696E73756666696369656E74 PUSH1 0x44 DUP3 ADD MSTORE REVERT JUMPDEST PUSH1 0x40 MLOAD SWAP1 PUSH1 0x60 DUP3 ADD DUP3 DUP2 LT PUSH8 0xFFFFFFFFFFFFFFFF DUP3 GT OR PUSH2 0x1069 JUMPI PUSH1 0x40 MSTORE PUSH1 0x2A DUP3 MSTORE PUSH1 0x40 CALLDATASIZE PUSH1 0x20 DUP5 ADD CALLDATACOPY PUSH1 0x30 PUSH2 0x3106 DUP4 PUSH2 0x303E JUMP JUMPDEST MSTORE8 PUSH1 0x78 PUSH2 0x3112 DUP4 PUSH2 0x304B JUMP JUMPDEST MSTORE8 PUSH1 0x29 SWAP1 JUMPDEST PUSH1 0x1 DUP3 GT PUSH2 0x312A JUMPI PUSH2 0x5EB SWAP2 POP ISZERO PUSH2 0x306C JUMP JUMPDEST PUSH1 0xF DUP2 AND SWAP1 PUSH1 0x10 DUP3 LT ISZERO PUSH2 0x2B33 JUMPI PUSH32 0x3031323334353637383961626364656600000000000000000000000000000000 PUSH2 0x3168 SWAP3 BYTE PUSH2 0x2B24 DUP5 DUP7 PUSH2 0x305B JUMP JUMPDEST SWAP1 PUSH2 0x3117 JUMP JUMPDEST PUSH32 0x915327D54F2C758AD33C35B031B5E89868657EA971CDA2B8103C502DC672509C PUSH2 0x3197 PUSH2 0x2FE3 JUMP JUMPDEST SWAP1 PUSH1 0x30 PUSH2 0x31A3 DUP4 PUSH2 0x303E JUMP JUMPDEST MSTORE8 PUSH1 0x78 PUSH2 0x31AF DUP4 PUSH2 0x304B JUMP JUMPDEST MSTORE8 PUSH1 0x41 SWAP1 JUMPDEST PUSH1 0x1 DUP3 GT PUSH2 0x31C7 JUMPI PUSH2 0x5EB SWAP2 POP ISZERO PUSH2 0x306C JUMP JUMPDEST PUSH1 0xF DUP2 AND SWAP1 PUSH1 0x10 DUP3 LT ISZERO PUSH2 0x2B33 JUMPI PUSH32 0x3031323334353637383961626364656600000000000000000000000000000000 PUSH2 0x3205 SWAP3 BYTE PUSH2 0x2B24 DUP5 DUP7 PUSH2 0x305B JUMP JUMPDEST SWAP1 PUSH2 0x31B4 JUMP JUMPDEST PUSH32 0x6DB4061A20CA83A3BE756EE172BD37A029093AC5AFE4CE968C6D5435B43CB011 PUSH2 0x3234 PUSH2 0x2FE3 JUMP JUMPDEST SWAP1 PUSH1 0x30 PUSH2 0x3240 DUP4 PUSH2 0x303E JUMP JUMPDEST MSTORE8 PUSH1 0x78 PUSH2 0x324C DUP4 PUSH2 0x304B JUMP JUMPDEST MSTORE8 PUSH1 0x41 SWAP1 JUMPDEST PUSH1 0x1 DUP3 GT PUSH2 0x3264 JUMPI PUSH2 0x5EB SWAP2 POP ISZERO PUSH2 0x306C JUMP JUMPDEST PUSH1 0xF DUP2 AND SWAP1 PUSH1 0x10 DUP3 LT ISZERO PUSH2 0x2B33 JUMPI PUSH32 0x3031323334353637383961626364656600000000000000000000000000000000 PUSH2 0x32A2 SWAP3 BYTE PUSH2 0x2B24 DUP5 DUP7 PUSH2 0x305B JUMP JUMPDEST SWAP1 PUSH2 0x3251 JUMP JUMPDEST PUSH32 0x9F2DF0FED2C77648DE5860A4CC508CD0818C85B8B8A1AB4CEEEF8D981C8956A6 PUSH2 0x32D1 PUSH2 0x2FE3 JUMP JUMPDEST SWAP1 PUSH1 0x30 PUSH2 0x32DD DUP4 PUSH2 0x303E JUMP JUMPDEST MSTORE8 PUSH1 0x78 PUSH2 0x32E9 DUP4 PUSH2 0x304B JUMP JUMPDEST MSTORE8 PUSH1 0x41 SWAP1 JUMPDEST PUSH1 0x1 DUP3 GT PUSH2 0x3301 JUMPI PUSH2 0x5EB SWAP2 POP ISZERO PUSH2 0x306C JUMP JUMPDEST PUSH1 0xF DUP2 AND SWAP1 PUSH1 0x10 DUP3 LT ISZERO PUSH2 0x2B33 JUMPI PUSH32 0x3031323334353637383961626364656600000000000000000000000000000000 PUSH2 0x333F SWAP3 BYTE PUSH2 0x2B24 DUP5 DUP7 PUSH2 0x305B JUMP JUMPDEST SWAP1 PUSH2 0x32EE JUMP JUMPDEST PUSH32 0xE02A0315B383857AC496E9D2B2546A699AFAEB4E5E83A1FDEF64376D0B74E5A5 PUSH2 0x336E PUSH2 0x2FE3 JUMP JUMPDEST SWAP1 PUSH1 0x30 PUSH2 0x337A DUP4 PUSH2 0x303E JUMP JUMPDEST MSTORE8 PUSH1 0x78 PUSH2 0x3386 DUP4 PUSH2 0x304B JUMP JUMPDEST MSTORE8 PUSH1 0x41 SWAP1 JUMPDEST PUSH1 0x1 DUP3 GT PUSH2 0x339E JUMPI PUSH2 0x5EB SWAP2 POP ISZERO PUSH2 0x306C JUMP JUMPDEST PUSH1 0xF DUP2 AND SWAP1 PUSH1 0x10 DUP3 LT ISZERO PUSH2 0x2B33 JUMPI PUSH32 0x3031323334353637383961626364656600000000000000000000000000000000 PUSH2 0x33DC SWAP3 BYTE PUSH2 0x2B24 DUP5 DUP7 PUSH2 0x305B JUMP JUMPDEST SWAP1 PUSH2 0x338B JUMP JUMPDEST DUP1 SLOAD DUP3 LT ISZERO PUSH2 0x2B33 JUMPI PUSH1 0x0 MSTORE PUSH1 0x20 PUSH1 0x0 KECCAK256 ADD SWAP1 PUSH1 0x0 SWAP1 JUMP JUMPDEST SWAP2 PUSH2 0x3414 SWAP2 DUP4 SLOAD SWAP1 PUSH1 0x0 NOT SWAP1 PUSH1 0x3 SHL SWAP3 DUP4 SHL SWAP3 SHL NOT AND OR SWAP1 JUMP JUMPDEST SWAP1 SSTORE JUMP JUMPDEST PUSH1 0x1 DUP2 ADD SWAP1 DUP3 PUSH1 0x0 MSTORE DUP2 PUSH1 0x20 MSTORE PUSH1 0x40 PUSH1 0x0 KECCAK256 SLOAD ISZERO PUSH1 0x0 EQ PUSH2 0x3486 JUMPI DUP1 SLOAD PUSH9 0x10000000000000000 DUP2 LT ISZERO PUSH2 0x1069 JUMPI PUSH2 0x3471 PUSH2 0x345A DUP3 PUSH1 0x1 DUP8 SWAP5 ADD DUP6 SSTORE DUP5 PUSH2 0x33E2 JUMP JUMPDEST DUP2 SWAP4 SWAP2 SLOAD SWAP1 PUSH1 0x0 NOT SWAP1 PUSH1 0x3 SHL SWAP3 DUP4 SHL SWAP3 SHL NOT AND OR SWAP1 JUMP JUMPDEST SWAP1 SSTORE SLOAD SWAP2 PUSH1 0x0 MSTORE PUSH1 0x20 MSTORE PUSH1 0x40 PUSH1 0x0 KECCAK256 SSTORE PUSH1 0x1 SWAP1 JUMP JUMPDEST POP POP POP PUSH1 0x0 SWAP1 JUMP JUMPDEST DUP1 SLOAD SWAP1 DUP2 ISZERO PUSH2 0x34B8 JUMPI PUSH1 0x0 NOT DUP1 SWAP3 ADD SWAP2 PUSH2 0x34A8 DUP4 DUP4 PUSH2 0x33E2 JUMP JUMPDEST SWAP1 SWAP2 DUP3 SLOAD SWAP2 PUSH1 0x3 SHL SHL NOT AND SWAP1 SSTORE SSTORE JUMP JUMPDEST PUSH32 0x4E487B7100000000000000000000000000000000000000000000000000000000 PUSH1 0x0 MSTORE PUSH1 0x31 PUSH1 0x4 MSTORE PUSH1 0x24 PUSH1 0x0 REVERT JUMPDEST PUSH1 0x1 DUP2 ADD SWAP2 DUP1 PUSH1 0x0 MSTORE DUP3 PUSH1 0x20 MSTORE PUSH1 0x40 PUSH1 0x0 KECCAK256 SLOAD SWAP3 DUP4 ISZERO ISZERO PUSH1 0x0 EQ PUSH2 0x3593 JUMPI PUSH1 0x0 NOT SWAP3 DUP4 DUP6 ADD SWAP1 DUP6 DUP3 GT PUSH2 0x2287 JUMPI DUP1 SLOAD SWAP5 DUP6 ADD SWAP5 DUP6 GT PUSH2 0x2287 JUMPI PUSH1 0x0 SWAP6 DUP6 DUP4 PUSH2 0x353B SWAP5 PUSH2 0x354A SWAP9 SUB PUSH2 0x3550 JUMPI JUMPDEST POP POP POP PUSH2 0x348E JUMP JUMPDEST SWAP1 PUSH1 0x0 MSTORE PUSH1 0x20 MSTORE PUSH1 0x40 PUSH1 0x0 KECCAK256 SWAP1 JUMP JUMPDEST SSTORE PUSH1 0x1 SWAP1 JUMP JUMPDEST PUSH2 0x357A PUSH2 0x3574 SWAP2 PUSH2 0x3564 PUSH2 0x358A SWAP5 DUP8 PUSH2 0x33E2 JUMP JUMPDEST SWAP1 SLOAD SWAP1 PUSH1 0x3 SHL SHR SWAP3 DUP4 SWAP2 DUP8 PUSH2 0x33E2 JUMP JUMPDEST SWAP1 PUSH2 0x33FA JUMP JUMPDEST DUP6 SWAP1 PUSH1 0x0 MSTORE PUSH1 0x20 MSTORE PUSH1 0x40 PUSH1 0x0 KECCAK256 SWAP1 JUMP JUMPDEST SSTORE CODESIZE DUP1 DUP1 PUSH2 0x3533 JUMP JUMPDEST POP POP POP POP PUSH1 0x0 SWAP1 JUMP JUMPDEST SWAP1 PUSH1 0x1 DUP3 DUP2 SHR SWAP3 AND DUP1 ISZERO PUSH2 0x35E5 JUMPI JUMPDEST PUSH1 0x20 DUP4 LT EQ PUSH2 0x35B6 JUMPI JUMP JUMPDEST PUSH32 0x4E487B7100000000000000000000000000000000000000000000000000000000 PUSH1 0x0 MSTORE PUSH1 0x22 PUSH1 0x4 MSTORE PUSH1 0x24 PUSH1 0x0 REVERT JUMPDEST SWAP2 PUSH1 0x7F AND SWAP2 PUSH2 0x35AB JUMP JUMPDEST PUSH1 0x1F DUP2 GT PUSH2 0x35FB JUMPI POP POP JUMP JUMPDEST PUSH1 0x0 SWAP1 PUSH1 0xE DUP3 MSTORE PUSH32 0xBB7B4A454DC3493923482F07822329ED19E8244EFF582CC204F8554C3620C3FD SWAP1 PUSH1 0x20 PUSH1 0x1F DUP6 ADD PUSH1 0x5 SHR DUP4 ADD SWAP5 LT PUSH2 0x3656 JUMPI JUMPDEST PUSH1 0x1F ADD PUSH1 0x5 SHR ADD SWAP2 JUMPDEST DUP3 DUP2 LT PUSH2 0x364B JUMPI POP POP POP JUMP JUMPDEST DUP2 DUP2 SSTORE PUSH1 0x1 ADD PUSH2 0x363F JUMP JUMPDEST SWAP1 SWAP3 POP DUP3 SWAP1 PUSH2 0x3636 JUMP JUMPDEST PUSH1 0x1F DUP2 GT PUSH2 0x366C JUMPI POP POP JUMP JUMPDEST PUSH1 0x0 SWAP1 PUSH1 0xD DUP3 MSTORE PUSH32 0xD7B6990105719101DABEB77144F2A3385C8033ACD3AF97E9423A695E81AD1EB5 SWAP1 PUSH1 0x20 PUSH1 0x1F DUP6 ADD PUSH1 0x5 SHR DUP4 ADD SWAP5 LT PUSH2 0x36C7 JUMPI JUMPDEST PUSH1 0x1F ADD PUSH1 0x5 SHR ADD SWAP2 JUMPDEST DUP3 DUP2 LT PUSH2 0x36BC JUMPI POP POP POP JUMP JUMPDEST DUP2 DUP2 SSTORE PUSH1 0x1 ADD PUSH2 0x36B0 JUMP JUMPDEST SWAP1 SWAP3 POP DUP3 SWAP1 PUSH2 0x36A7 JUMP JUMPDEST PUSH1 0x1F DUP2 GT PUSH2 0x36DD JUMPI POP POP JUMP JUMPDEST PUSH1 0x0 SWAP1 PUSH1 0x10 DUP3 MSTORE PUSH32 0x1B6847DC741A1B0CD08D278845F9D819D87B734759AFB55FE2DE5CB82A9AE672 SWAP1 PUSH1 0x20 PUSH1 0x1F DUP6 ADD PUSH1 0x5 SHR DUP4 ADD SWAP5 LT PUSH2 0x3738 JUMPI JUMPDEST PUSH1 0x1F ADD PUSH1 0x5 SHR ADD SWAP2 JUMPDEST DUP3 DUP2 LT PUSH2 0x372D JUMPI POP POP POP JUMP JUMPDEST DUP2 DUP2 SSTORE PUSH1 0x1 ADD PUSH2 0x3721 JUMP JUMPDEST SWAP1 SWAP3 POP DUP3 SWAP1 PUSH2 0x3718 JUMP JUMPDEST PUSH1 0x1F DUP2 GT PUSH2 0x374E JUMPI POP POP JUMP JUMPDEST PUSH1 0x0 SWAP1 PUSH1 0xF DUP3 MSTORE PUSH32 0x8D1108E10BCB7C27DDDFC02ED9D693A074039D026CF4EA4240B40F7D581AC802 SWAP1 PUSH1 0x20 PUSH1 0x1F DUP6 ADD PUSH1 0x5 SHR DUP4 ADD SWAP5 LT PUSH2 0x37A9 JUMPI JUMPDEST PUSH1 0x1F ADD PUSH1 0x5 SHR ADD SWAP2 JUMPDEST DUP3 DUP2 LT PUSH2 0x379E JUMPI POP POP POP JUMP JUMPDEST DUP2 DUP2 SSTORE PUSH1 0x1 ADD PUSH2 0x3792 JUMP JUMPDEST SWAP1 SWAP3 POP DUP3 SWAP1 PUSH2 0x3789 JUMP JUMPDEST SWAP1 DUP2 MLOAD PUSH8 0xFFFFFFFFFFFFFFFF DUP2 GT PUSH2 0x1069 JUMPI PUSH2 0x37D9 DUP2 PUSH2 0x37D4 PUSH1 0xF SLOAD PUSH2 0x359C JUMP JUMPDEST PUSH2 0x3742 JUMP JUMPDEST PUSH1 0x20 DUP1 PUSH1 0x1F DUP4 GT PUSH1 0x1 EQ PUSH2 0x3814 JUMPI POP DUP2 SWAP3 SWAP4 PUSH1 0x0 SWAP3 PUSH2 0x3809 JUMPI JUMPDEST POP POP PUSH1 0x0 NOT DUP3 PUSH1 0x1 SHL SWAP3 PUSH1 0x3 SHL SHR NOT AND OR PUSH1 0xF SSTORE JUMP JUMPDEST ADD MLOAD SWAP1 POP CODESIZE DUP1 PUSH2 0x37F3 JUMP JUMPDEST SWAP1 PUSH1 0x1F NOT DUP4 AND SWAP5 PUSH2 0x3847 PUSH1 0xF PUSH1 0x0 MSTORE PUSH32 0x8D1108E10BCB7C27DDDFC02ED9D693A074039D026CF4EA4240B40F7D581AC802 SWAP1 JUMP JUMPDEST SWAP3 PUSH1 0x0 SWAP1 JUMPDEST DUP8 DUP3 LT PUSH2 0x3884 JUMPI POP POP DUP4 PUSH1 0x1 SWAP6 SWAP7 LT PUSH2 0x386B JUMPI JUMPDEST POP POP POP DUP2 SHL ADD PUSH1 0xF SSTORE JUMP JUMPDEST ADD MLOAD PUSH1 0x0 NOT PUSH1 0xF8 DUP5 PUSH1 0x3 SHL AND SHR NOT AND SWAP1 SSTORE CODESIZE DUP1 DUP1 PUSH2 0x3860 JUMP JUMPDEST DUP1 PUSH1 0x1 DUP6 SWAP7 DUP3 SWAP5 SWAP7 DUP7 ADD MLOAD DUP2 SSTORE ADD SWAP6 ADD SWAP4 ADD SWAP1 PUSH2 0x384C JUMP JUMPDEST SWAP1 DUP2 MLOAD PUSH8 0xFFFFFFFFFFFFFFFF DUP2 GT PUSH2 0x1069 JUMPI PUSH2 0x38BD DUP2 PUSH2 0x145D PUSH1 0xD SLOAD PUSH2 0x359C JUMP JUMPDEST PUSH1 0x20 DUP1 PUSH1 0x1F DUP4 GT PUSH1 0x1 EQ PUSH2 0x38F8 JUMPI POP DUP2 SWAP3 SWAP4 PUSH1 0x0 SWAP3 PUSH2 0x38ED JUMPI JUMPDEST POP POP PUSH1 0x0 NOT DUP3 PUSH1 0x1 SHL SWAP3 PUSH1 0x3 SHL SHR NOT AND OR PUSH1 0xD SSTORE JUMP JUMPDEST ADD MLOAD SWAP1 POP CODESIZE DUP1 PUSH2 0x38D7 JUMP JUMPDEST SWAP1 PUSH1 0x1F NOT DUP4 AND SWAP5 PUSH2 0x392B PUSH1 0xD PUSH1 0x0 MSTORE PUSH32 0xD7B6990105719101DABEB77144F2A3385C8033ACD3AF97E9423A695E81AD1EB5 SWAP1 JUMP JUMPDEST SWAP3 PUSH1 0x0 SWAP1 JUMPDEST DUP8 DUP3 LT PUSH2 0x3968 JUMPI POP POP DUP4 PUSH1 0x1 SWAP6 SWAP7 LT PUSH2 0x394F JUMPI JUMPDEST POP POP POP DUP2 SHL ADD PUSH1 0xD SSTORE JUMP JUMPDEST ADD MLOAD PUSH1 0x0 NOT PUSH1 0xF8 DUP5 PUSH1 0x3 SHL AND SHR NOT AND SWAP1 SSTORE CODESIZE DUP1 DUP1 PUSH2 0x3944 JUMP JUMPDEST DUP1 PUSH1 0x1 DUP6 SWAP7 DUP3 SWAP5 SWAP7 DUP7 ADD MLOAD DUP2 SSTORE ADD SWAP6 ADD SWAP4 ADD SWAP1 PUSH2 0x3930 JUMP JUMPDEST SWAP1 DUP2 MLOAD PUSH8 0xFFFFFFFFFFFFFFFF DUP2 GT PUSH2 0x1069 JUMPI PUSH2 0x39A1 DUP2 PUSH2 0x17FC PUSH1 0x10 SLOAD PUSH2 0x359C JUMP JUMPDEST PUSH1 0x20 DUP1 PUSH1 0x1F DUP4 GT PUSH1 0x1 EQ PUSH2 0x39DC JUMPI POP DUP2 SWAP3 SWAP4 PUSH1 0x0 SWAP3 PUSH2 0x39D1 JUMPI JUMPDEST POP POP PUSH1 0x0 NOT DUP3 PUSH1 0x1 SHL SWAP3 PUSH1 0x3 SHL SHR NOT AND OR PUSH1 0x10 SSTORE JUMP JUMPDEST ADD MLOAD SWAP1 POP CODESIZE DUP1 PUSH2 0x39BB JUMP JUMPDEST SWAP1 PUSH1 0x1F NOT DUP4 AND SWAP5 PUSH2 0x3A0F PUSH1 0x10 PUSH1 0x0 MSTORE PUSH32 0x1B6847DC741A1B0CD08D278845F9D819D87B734759AFB55FE2DE5CB82A9AE672 SWAP1 JUMP JUMPDEST SWAP3 PUSH1 0x0 SWAP1 JUMPDEST DUP8 DUP3 LT PUSH2 0x3A4C JUMPI POP POP DUP4 PUSH1 0x1 SWAP6 SWAP7 LT PUSH2 0x3A33 JUMPI JUMPDEST POP POP POP DUP2 SHL ADD PUSH1 0x10 SSTORE JUMP JUMPDEST ADD MLOAD PUSH1 0x0 NOT PUSH1 0xF8 DUP5 PUSH1 0x3 SHL AND SHR NOT AND SWAP1 SSTORE CODESIZE DUP1 DUP1 PUSH2 0x3A28 JUMP JUMPDEST DUP1 PUSH1 0x1 DUP6 SWAP7 DUP3 SWAP5 SWAP7 DUP7 ADD MLOAD DUP2 SSTORE ADD SWAP6 ADD SWAP4 ADD SWAP1 PUSH2 0x3A14 JUMP JUMPDEST PUSH2 0x3A6D DUP2 PUSH2 0x2152 JUMP JUMPDEST PUSH20 0xFFFFFFFFFFFFFFFFFFFFFFFFFFFFFFFFFFFFFFFF DUP2 AND PUSH2 0x3A9B DUP4 PUSH1 0x0 MSTORE PUSH1 0x6 PUSH1 0x20 MSTORE PUSH1 0x40 PUSH1 0x0 KECCAK256 SWAP1 DUP2 SLOAD SWAP1 JUMP JUMPDEST SWAP3 SWAP1 PUSH2 0x3AC3 PUSH20 0xFFFFFFFFFFFFFFFFFFFFFFFFFFFFFFFFFFFFFFFF DUP5 AND CALLER SWAP1 DUP2 EQ SWAP1 DUP7 EQ OR ISZERO SWAP1 JUMP JUMPDEST PUSH2 0x3C05 JUMPI JUMPDEST PUSH1 0x0 SWAP4 PUSH2 0x3AD4 DUP5 PUSH2 0x4028 JUMP JUMPDEST PUSH2 0x3BFC JUMPI JUMPDEST POP PUSH2 0x3B04 DUP3 PUSH20 0xFFFFFFFFFFFFFFFFFFFFFFFFFFFFFFFFFFFFFFFF AND PUSH1 0x0 MSTORE PUSH1 0x5 PUSH1 0x20 MSTORE PUSH1 0x40 PUSH1 0x0 KECCAK256 SWAP1 JUMP JUMPDEST PUSH16 0xFFFFFFFFFFFFFFFFFFFFFFFFFFFFFFFF DUP2 SLOAD ADD SWAP1 SSTORE PUSH29 0x300000000000000000000000000000000000000000000000000000000 TIMESTAMP PUSH1 0xA0 SHL DUP4 OR OR PUSH2 0x3B53 DUP6 PUSH1 0x0 MSTORE PUSH1 0x4 PUSH1 0x20 MSTORE PUSH1 0x40 PUSH1 0x0 KECCAK256 SWAP1 JUMP JUMPDEST SSTORE PUSH29 0x200000000000000000000000000000000000000000000000000000000 DUP2 AND ISZERO PUSH2 0x3BB3 JUMPI JUMPDEST POP PUSH32 0xDDF252AD1BE2C89B69C2B068FC378DAA952BA7F163C4A11628F55A4DF523B3EF DUP3 DUP1 LOG4 PUSH2 0x10BA PUSH2 0x3BAE PUSH1 0x1 SLOAD PUSH1 0x1 ADD SWAP1 JUMP JUMPDEST PUSH1 0x1 SSTORE JUMP JUMPDEST PUSH1 0x1 DUP5 ADD PUSH2 0x3BCB DUP2 PUSH1 0x0 MSTORE PUSH1 0x4 PUSH1 0x20 MSTORE PUSH1 0x40 PUSH1 0x0 KECCAK256 SWAP1 JUMP JUMPDEST SLOAD ISZERO PUSH2 0x3BD8 JUMPI JUMPDEST POP PUSH2 0x3B7A JUMP JUMPDEST DUP4 SLOAD DUP2 EQ PUSH2 0x3BD2 JUMPI PUSH2 0x3BF4 SWAP1 PUSH1 0x0 MSTORE PUSH1 0x4 PUSH1 0x20 MSTORE PUSH1 0x40 PUSH1 0x0 KECCAK256 SWAP1 JUMP JUMPDEST SSTORE CODESIZE DUP1 PUSH2 0x3BD2 JUMP JUMPDEST DUP4 SWAP1 SSTORE CODESIZE PUSH2 0x3AD9 JUMP JUMPDEST PUSH2 0x3C39 PUSH2 0x1630 PUSH2 0x24EF CALLER PUSH2 0x24CA DUP8 PUSH20 0xFFFFFFFFFFFFFFFFFFFFFFFFFFFFFFFFFFFFFFFF AND PUSH1 0x0 MSTORE PUSH1 0x7 PUSH1 0x20 MSTORE PUSH1 0x40 PUSH1 0x0 KECCAK256 SWAP1 JUMP JUMPDEST ISZERO PUSH2 0x3AC8 JUMPI PUSH2 0x278E JUMP JUMPDEST DUP1 MLOAD SWAP1 PUSH1 0x0 JUMPDEST DUP3 DUP2 LT PUSH2 0x3C55 JUMPI POP POP POP JUMP JUMPDEST DUP2 MLOAD DUP2 LT ISZERO PUSH2 0x2B33 JUMPI PUSH2 0x3C70 PUSH1 0x20 DUP3 PUSH1 0x5 SHL DUP5 ADD ADD MLOAD PUSH2 0x3A64 JUMP JUMPDEST PUSH1 0x0 NOT DUP2 EQ PUSH2 0x2287 JUMPI PUSH1 0x1 ADD PUSH2 0x3C49 JUMP JUMPDEST SWAP6 SWAP5 SWAP4 SWAP3 SWAP2 SWAP1 PUSH2 0x100 PUSH32 0xFFFFFFFFFFFFFFFFFFFFFFFFFFFFFFFFFFFFFFFFFFFFFFFFFFFFFFFFFFFF00FF PUSH1 0x11 SLOAD AND OR PUSH1 0x11 SSTORE PUSH2 0x3CBC DUP8 PUSH2 0x2B38 JUMP JUMPDEST PUSH20 0xFFFFFFFFFFFFFFFFFFFFFFFFFFFFFFFFFFFFFFFF PUSH32 0x0 AND CALLER EQ DUP1 ISZERO SWAP1 PUSH2 0x3E72 JUMPI JUMPDEST PUSH2 0x3E48 JUMPI DUP1 MLOAD SWAP1 PUSH8 0xFFFFFFFFFFFFFFFF DUP3 GT PUSH2 0x1069 JUMPI PUSH2 0x3D22 DUP3 PUSH2 0x1196 PUSH1 0xE SLOAD PUSH2 0x359C JUMP JUMPDEST PUSH1 0x20 SWAP1 DUP2 PUSH1 0x1F DUP5 GT PUSH1 0x1 EQ PUSH2 0x3DC5 JUMPI POP SWAP4 PUSH2 0x3D6B PUSH2 0x3D75 SWAP5 DUP5 PUSH2 0x3D95 SWAP12 SWAP11 SWAP9 SWAP6 PUSH2 0x3D70 SWAP6 PUSH2 0x3D90 SWAP12 SWAP10 PUSH1 0x0 SWAP3 PUSH2 0x11D1 JUMPI POP POP PUSH1 0x0 NOT DUP3 PUSH1 0x1 SHL SWAP3 PUSH1 0x3 SHL SHR NOT AND OR PUSH1 0xE SSTORE PUSH2 0x37B3 JUMP JUMPDEST PUSH2 0x389C JUMP JUMPDEST PUSH2 0x3980 JUMP JUMPDEST PUSH2 0x3D7E DUP5 PUSH2 0x2C51 JUMP JUMPDEST PUSH2 0x3D87 DUP5 PUSH2 0x2D44 JUMP JUMPDEST PUSH2 0x58B DUP5 PUSH2 0x2DBB JUMP JUMPDEST PUSH2 0x2E32 JUMP JUMPDEST PUSH2 0x10BA PUSH1 0x1 PUSH32 0xFFFFFFFFFFFFFFFFFFFFFFFFFFFFFFFFFFFFFFFFFFFFFFFFFFFFFFFFFFFFFF00 PUSH1 0x11 SLOAD AND OR PUSH1 0x11 SSTORE JUMP JUMPDEST PUSH1 0xE PUSH1 0x0 MSTORE SWAP2 SWAP1 PUSH1 0x1F NOT DUP5 AND PUSH32 0xBB7B4A454DC3493923482F07822329ED19E8244EFF582CC204F8554C3620C3FD SWAP4 PUSH1 0x0 SWAP1 JUMPDEST DUP3 DUP3 LT PUSH2 0x3E30 JUMPI POP POP SWAP5 PUSH1 0x1 DUP6 PUSH2 0x3D70 SWAP6 PUSH2 0x3D90 SWAP12 SWAP10 SWAP6 PUSH2 0x3D6B SWAP6 PUSH2 0x3D95 SWAP16 SWAP15 SWAP13 SWAP10 PUSH2 0x3D75 SWAP12 LT PUSH2 0x1236 JUMPI POP POP POP DUP2 SHL ADD PUSH1 0xE SSTORE PUSH2 0x37B3 JUMP JUMPDEST DUP1 PUSH1 0x1 DUP7 SWAP8 DUP3 SWAP5 SWAP8 DUP8 ADD MLOAD DUP2 SSTORE ADD SWAP7 ADD SWAP5 ADD SWAP1 PUSH2 0x3DF7 JUMP JUMPDEST PUSH1 0x4 PUSH1 0x40 MLOAD PUSH32 0xF92EE8A900000000000000000000000000000000000000000000000000000000 DUP2 MSTORE REVERT JUMPDEST POP PUSH1 0xFF PUSH1 0x11 SLOAD AND PUSH2 0x3CFD JUMP JUMPDEST ISZERO PUSH2 0x3E85 JUMPI JUMP JUMPDEST PUSH1 0x84 PUSH1 0x40 MLOAD PUSH32 0x8C379A000000000000000000000000000000000000000000000000000000000 DUP2 MSTORE PUSH1 0x20 PUSH1 0x4 DUP3 ADD MSTORE PUSH1 0x2A PUSH1 0x24 DUP3 ADD MSTORE PUSH32 0x455243323938313A20726F79616C7479206665652077696C6C20657863656564 PUSH1 0x44 DUP3 ADD MSTORE PUSH32 0x2073616C65507269636500000000000000000000000000000000000000000000 PUSH1 0x64 DUP3 ADD MSTORE REVERT JUMPDEST PUSH20 0xFFFFFFFFFFFFFFFFFFFFFFFFFFFFFFFFFFFFFFFF PUSH12 0xFFFFFFFFFFFFFFFFFFFFFFFF DUP4 AND SWAP2 PUSH2 0x3F3C PUSH2 0x2710 DUP5 GT ISZERO PUSH2 0x3E7E JUMP JUMPDEST AND SWAP2 DUP3 ISZERO PUSH2 0x3F83 JUMPI PUSH32 0xFFFFFFFFFFFFFFFFFFFFFFFF0000000000000000000000000000000000000000 SWAP2 PUSH1 0x20 PUSH1 0x40 MLOAD PUSH2 0x3F74 DUP2 PUSH2 0x104D JUMP JUMPDEST DUP6 DUP2 MSTORE ADD MSTORE PUSH1 0xA0 SHL AND OR PUSH1 0x9 SSTORE JUMP JUMPDEST PUSH1 0x64 PUSH1 0x40 MLOAD PUSH32 0x8C379A000000000000000000000000000000000000000000000000000000000 DUP2 MSTORE PUSH1 0x20 PUSH1 0x4 DUP3 ADD MSTORE PUSH1 0x19 PUSH1 0x24 DUP3 ADD MSTORE PUSH32 0x455243323938313A20696E76616C696420726563656976657200000000000000 PUSH1 0x44 DUP3 ADD MSTORE REVERT JUMPDEST PUSH1 0xFF PUSH1 0x11 SLOAD PUSH1 0x8 SHR AND DUP1 PUSH2 0x4020 JUMPI JUMPDEST PUSH2 0x3FF6 JUMPI JUMP JUMPDEST PUSH1 0x4 PUSH1 0x40 MLOAD PUSH32 0xDB89E3F400000000000000000000000000000000000000000000000000000000 DUP2 MSTORE REVERT JUMPDEST POP PUSH1 0x0 PUSH2 0x3FF0 JUMP JUMPDEST PUSH1 0xFF PUSH1 0x11 SLOAD PUSH1 0x8 SHR AND SWAP1 DUP2 PUSH2 0x403F JUMPI JUMPDEST POP PUSH2 0x3FF6 JUMPI JUMP JUMPDEST PUSH20 0xFFFFFFFFFFFFFFFFFFFFFFFFFFFFFFFFFFFFFFFF SWAP2 POP AND ISZERO ISZERO CODESIZE PUSH2 0x4038 JUMP JUMPDEST PUSH2 0x4068 DUP2 PUSH2 0x414E JUMP JUMPDEST SWAP1 DUP2 ISZERO PUSH2 0x40B6 JUMPI JUMPDEST DUP2 ISZERO PUSH2 0x408B JUMPI JUMPDEST DUP2 ISZERO PUSH2 0x4081 JUMPI POP SWAP1 JUMP JUMPDEST PUSH2 0x5EB SWAP2 POP PUSH2 0x40C7 JUMP JUMPDEST PUSH32 0xFFFFFFFF00000000000000000000000000000000000000000000000000000000 DUP2 AND ISZERO SWAP2 POP PUSH2 0x4077 JUMP JUMPDEST SWAP1 POP PUSH2 0x40C1 DUP2 PUSH2 0x40C7 JUMP JUMPDEST SWAP1 PUSH2 0x4070 JUMP JUMPDEST PUSH32 0xFFFFFFFF00000000000000000000000000000000000000000000000000000000 DUP2 AND SWAP1 PUSH32 0x5A05180F00000000000000000000000000000000000000000000000000000000 DUP3 EQ SWAP2 DUP3 ISZERO PUSH2 0x411A JUMPI POP POP SWAP1 JUMP JUMPDEST PUSH32 0x7965DB0B00000000000000000000000000000000000000000000000000000000 EQ SWAP2 POP DUP2 ISZERO PUSH2 0x4148 JUMPI POP SWAP1 JUMP JUMPDEST PUSH2 0x5EB SWAP2 POP JUMPDEST PUSH32 0xFFFFFFFF00000000000000000000000000000000000000000000000000000000 AND PUSH32 0x2A55205A00000000000000000000000000000000000000000000000000000000 DUP2 EQ SWAP1 DUP2 ISZERO PUSH2 0x419E JUMPI POP SWAP1 JUMP JUMPDEST PUSH32 0x1FFC9A700000000000000000000000000000000000000000000000000000000 SWAP2 POP EQ SWAP1 JUMP INVALID LOG2 PUSH5 0x6970667358 0x22 SLT KECCAK256 DUP13 0xC3 DUP13 SAR 0xC1 0xC4 0xEE 0x2F BLOCKHASH EQ INVALID 0xCF XOR 0xB2 STATICCALL DUP3 RETURN 0xE8 JUMP 0x5C CALLDATALOAD DUP16 PUSH27 0x55501C9E6E8A901FD564736F6C6343000813003300000000000000 "
				}
			},
			"userdoc": {
				"events": {
					"ERC721SoulboundDeployed(address)": {
						"notice": "Event emitted when a new ERC-721 Soulbound proxy contract is deployed."
					}
				},
				"kind": "user",
				"methods": {
					"constructor": {
						"notice": "Creates an ERC-721 Soulbound Factory."
					},
					"deploy(address,address,string,string,string,string,address,uint96)": {
						"notice": "Creates an ERC-721 Soulbound proxy."
					},
					"determineAddress(address,address,string,string,string,string,address,uint96)": {
						"notice": "Computes the address of a proxy instance."
					},
					"upgradeBeacon(address)": {
						"notice": "Upgrades the beacon implementation."
					}
				},
				"notice": "Deployer of ERC-721 Soulbound proxies.",
				"version": 1
			}
		}
	}
}