{
	"src/tokens/ERC721/presets/items/ERC721Items.sol": {
		"ERC721Items": {
			"abi": [
				{
					"inputs": [],
					"stateMutability": "nonpayable",
					"type": "constructor"
				},
				{
					"inputs": [],
					"name": "ApprovalCallerNotOwnerNorApproved",
					"type": "error"
				},
				{
					"inputs": [],
					"name": "ApprovalQueryForNonexistentToken",
					"type": "error"
				},
				{
					"inputs": [],
					"name": "BalanceQueryForZeroAddress",
					"type": "error"
				},
				{
					"inputs": [],
					"name": "InvalidInitialization",
					"type": "error"
				},
				{
					"inputs": [],
					"name": "InvalidQueryRange",
					"type": "error"
				},
				{
					"inputs": [],
					"name": "MintERC2309QuantityExceedsLimit",
					"type": "error"
				},
				{
					"inputs": [],
					"name": "MintToZeroAddress",
					"type": "error"
				},
				{
					"inputs": [],
					"name": "MintZeroQuantity",
					"type": "error"
				},
				{
					"inputs": [],
					"name": "NotCompatibleWithSpotMints",
					"type": "error"
				},
				{
					"inputs": [],
					"name": "OwnerQueryForNonexistentToken",
					"type": "error"
				},
				{
					"inputs": [],
					"name": "OwnershipNotInitializedForExtraData",
					"type": "error"
				},
				{
					"inputs": [],
					"name": "SequentialMintExceedsLimit",
					"type": "error"
				},
				{
					"inputs": [],
					"name": "SequentialUpToTooSmall",
					"type": "error"
				},
				{
					"inputs": [],
					"name": "SpotMintTokenIdTooSmall",
					"type": "error"
				},
				{
					"inputs": [],
					"name": "TokenAlreadyExists",
					"type": "error"
				},
				{
					"inputs": [],
					"name": "TransferCallerNotOwnerNorApproved",
					"type": "error"
				},
				{
					"inputs": [],
					"name": "TransferFromIncorrectOwner",
					"type": "error"
				},
				{
					"inputs": [],
					"name": "TransferToNonERC721ReceiverImplementer",
					"type": "error"
				},
				{
					"inputs": [],
					"name": "TransferToZeroAddress",
					"type": "error"
				},
				{
					"inputs": [],
					"name": "URIQueryForNonexistentToken",
					"type": "error"
				},
				{
					"anonymous": false,
					"inputs": [
						{
							"indexed": true,
							"internalType": "address",
							"name": "owner",
							"type": "address"
						},
						{
							"indexed": true,
							"internalType": "address",
							"name": "approved",
							"type": "address"
						},
						{
							"indexed": true,
							"internalType": "uint256",
							"name": "tokenId",
							"type": "uint256"
						}
					],
					"name": "Approval",
					"type": "event"
				},
				{
					"anonymous": false,
					"inputs": [
						{
							"indexed": true,
							"internalType": "address",
							"name": "owner",
							"type": "address"
						},
						{
							"indexed": true,
							"internalType": "address",
							"name": "operator",
							"type": "address"
						},
						{
							"indexed": false,
							"internalType": "bool",
							"name": "approved",
							"type": "bool"
						}
					],
					"name": "ApprovalForAll",
					"type": "event"
				},
				{
					"anonymous": false,
					"inputs": [
						{
							"indexed": true,
							"internalType": "uint256",
							"name": "fromTokenId",
							"type": "uint256"
						},
						{
							"indexed": false,
							"internalType": "uint256",
							"name": "toTokenId",
							"type": "uint256"
						},
						{
							"indexed": true,
							"internalType": "address",
							"name": "from",
							"type": "address"
						},
						{
							"indexed": true,
							"internalType": "address",
							"name": "to",
							"type": "address"
						}
					],
					"name": "ConsecutiveTransfer",
					"type": "event"
				},
				{
					"anonymous": false,
					"inputs": [
						{
							"indexed": true,
							"internalType": "bytes32",
							"name": "role",
							"type": "bytes32"
						},
						{
							"indexed": true,
							"internalType": "bytes32",
							"name": "previousAdminRole",
							"type": "bytes32"
						},
						{
							"indexed": true,
							"internalType": "bytes32",
							"name": "newAdminRole",
							"type": "bytes32"
						}
					],
					"name": "RoleAdminChanged",
					"type": "event"
				},
				{
					"anonymous": false,
					"inputs": [
						{
							"indexed": true,
							"internalType": "bytes32",
							"name": "role",
							"type": "bytes32"
						},
						{
							"indexed": true,
							"internalType": "address",
							"name": "account",
							"type": "address"
						},
						{
							"indexed": true,
							"internalType": "address",
							"name": "sender",
							"type": "address"
						}
					],
					"name": "RoleGranted",
					"type": "event"
				},
				{
					"anonymous": false,
					"inputs": [
						{
							"indexed": true,
							"internalType": "bytes32",
							"name": "role",
							"type": "bytes32"
						},
						{
							"indexed": true,
							"internalType": "address",
							"name": "account",
							"type": "address"
						},
						{
							"indexed": true,
							"internalType": "address",
							"name": "sender",
							"type": "address"
						}
					],
					"name": "RoleRevoked",
					"type": "event"
				},
				{
					"anonymous": false,
					"inputs": [
						{
							"indexed": true,
							"internalType": "address",
							"name": "from",
							"type": "address"
						},
						{
							"indexed": true,
							"internalType": "address",
							"name": "to",
							"type": "address"
						},
						{
							"indexed": true,
							"internalType": "uint256",
							"name": "tokenId",
							"type": "uint256"
						}
					],
					"name": "Transfer",
					"type": "event"
				},
				{
					"inputs": [],
					"name": "DEFAULT_ADMIN_ROLE",
					"outputs": [
						{
							"internalType": "bytes32",
							"name": "",
							"type": "bytes32"
						}
					],
					"stateMutability": "view",
					"type": "function"
				},
				{
					"inputs": [
						{
							"internalType": "address",
							"name": "to",
							"type": "address"
						},
						{
							"internalType": "uint256",
							"name": "tokenId",
							"type": "uint256"
						}
					],
					"name": "approve",
					"outputs": [],
					"stateMutability": "payable",
					"type": "function"
				},
				{
					"inputs": [
						{
							"internalType": "address",
							"name": "owner",
							"type": "address"
						}
					],
					"name": "balanceOf",
					"outputs": [
						{
							"internalType": "uint256",
							"name": "",
							"type": "uint256"
						}
					],
					"stateMutability": "view",
					"type": "function"
				},
				{
					"inputs": [
						{
							"internalType": "uint256[]",
							"name": "tokenIds",
							"type": "uint256[]"
						}
					],
					"name": "batchBurn",
					"outputs": [],
					"stateMutability": "nonpayable",
					"type": "function"
				},
				{
					"inputs": [
						{
							"internalType": "uint256",
							"name": "tokenId",
							"type": "uint256"
						}
					],
					"name": "burn",
					"outputs": [],
					"stateMutability": "nonpayable",
					"type": "function"
				},
				{
					"inputs": [],
					"name": "contractURI",
					"outputs": [
						{
							"internalType": "string",
							"name": "",
							"type": "string"
						}
					],
					"stateMutability": "view",
					"type": "function"
				},
				{
					"inputs": [
						{
							"internalType": "uint256",
							"name": "tokenId",
							"type": "uint256"
						}
					],
					"name": "explicitOwnershipOf",
					"outputs": [
						{
							"components": [
								{
									"internalType": "address",
									"name": "addr",
									"type": "address"
								},
								{
									"internalType": "uint64",
									"name": "startTimestamp",
									"type": "uint64"
								},
								{
									"internalType": "bool",
									"name": "burned",
									"type": "bool"
								},
								{
									"internalType": "uint24",
									"name": "extraData",
									"type": "uint24"
								}
							],
							"internalType": "struct IERC721A.TokenOwnership",
							"name": "ownership",
							"type": "tuple"
						}
					],
					"stateMutability": "view",
					"type": "function"
				},
				{
					"inputs": [
						{
							"internalType": "uint256[]",
							"name": "tokenIds",
							"type": "uint256[]"
						}
					],
					"name": "explicitOwnershipsOf",
					"outputs": [
						{
							"components": [
								{
									"internalType": "address",
									"name": "addr",
									"type": "address"
								},
								{
									"internalType": "uint64",
									"name": "startTimestamp",
									"type": "uint64"
								},
								{
									"internalType": "bool",
									"name": "burned",
									"type": "bool"
								},
								{
									"internalType": "uint24",
									"name": "extraData",
									"type": "uint24"
								}
							],
							"internalType": "struct IERC721A.TokenOwnership[]",
							"name": "",
							"type": "tuple[]"
						}
					],
					"stateMutability": "view",
					"type": "function"
				},
				{
					"inputs": [
						{
							"internalType": "uint256",
							"name": "tokenId",
							"type": "uint256"
						}
					],
					"name": "getApproved",
					"outputs": [
						{
							"internalType": "address",
							"name": "",
							"type": "address"
						}
					],
					"stateMutability": "view",
					"type": "function"
				},
				{
					"inputs": [
						{
							"internalType": "bytes32",
							"name": "role",
							"type": "bytes32"
						}
					],
					"name": "getRoleAdmin",
					"outputs": [
						{
							"internalType": "bytes32",
							"name": "",
							"type": "bytes32"
						}
					],
					"stateMutability": "view",
					"type": "function"
				},
				{
					"inputs": [
						{
							"internalType": "bytes32",
							"name": "role",
							"type": "bytes32"
						},
						{
							"internalType": "uint256",
							"name": "index",
							"type": "uint256"
						}
					],
					"name": "getRoleMember",
					"outputs": [
						{
							"internalType": "address",
							"name": "",
							"type": "address"
						}
					],
					"stateMutability": "view",
					"type": "function"
				},
				{
					"inputs": [
						{
							"internalType": "bytes32",
							"name": "role",
							"type": "bytes32"
						}
					],
					"name": "getRoleMemberCount",
					"outputs": [
						{
							"internalType": "uint256",
							"name": "",
							"type": "uint256"
						}
					],
					"stateMutability": "view",
					"type": "function"
				},
				{
					"inputs": [
						{
							"internalType": "bytes32",
							"name": "role",
							"type": "bytes32"
						},
						{
							"internalType": "address",
							"name": "account",
							"type": "address"
						}
					],
					"name": "grantRole",
					"outputs": [],
					"stateMutability": "nonpayable",
					"type": "function"
				},
				{
					"inputs": [
						{
							"internalType": "bytes32",
							"name": "role",
							"type": "bytes32"
						},
						{
							"internalType": "address",
							"name": "account",
							"type": "address"
						}
					],
					"name": "hasRole",
					"outputs": [
						{
							"internalType": "bool",
							"name": "",
							"type": "bool"
						}
					],
					"stateMutability": "view",
					"type": "function"
				},
				{
					"inputs": [
						{
							"internalType": "address",
							"name": "owner",
							"type": "address"
						},
						{
							"internalType": "string",
							"name": "tokenName",
							"type": "string"
						},
						{
							"internalType": "string",
							"name": "tokenSymbol",
							"type": "string"
						},
						{
							"internalType": "string",
							"name": "tokenBaseURI",
							"type": "string"
						},
						{
							"internalType": "string",
							"name": "tokenContractURI",
							"type": "string"
						},
						{
							"internalType": "address",
							"name": "royaltyReceiver",
							"type": "address"
						},
						{
							"internalType": "uint96",
							"name": "royaltyFeeNumerator",
							"type": "uint96"
						}
					],
					"name": "initialize",
					"outputs": [],
					"stateMutability": "nonpayable",
					"type": "function"
				},
				{
					"inputs": [
						{
							"internalType": "address",
							"name": "owner",
							"type": "address"
						},
						{
							"internalType": "address",
							"name": "operator",
							"type": "address"
						}
					],
					"name": "isApprovedForAll",
					"outputs": [
						{
							"internalType": "bool",
							"name": "",
							"type": "bool"
						}
					],
					"stateMutability": "view",
					"type": "function"
				},
				{
					"inputs": [
						{
							"internalType": "address",
							"name": "to",
							"type": "address"
						},
						{
							"internalType": "uint256",
							"name": "amount",
							"type": "uint256"
						}
					],
					"name": "mint",
					"outputs": [],
					"stateMutability": "nonpayable",
					"type": "function"
				},
				{
					"inputs": [],
					"name": "name",
					"outputs": [
						{
							"internalType": "string",
							"name": "",
							"type": "string"
						}
					],
					"stateMutability": "view",
					"type": "function"
				},
				{
					"inputs": [
						{
							"internalType": "uint256",
							"name": "tokenId",
							"type": "uint256"
						}
					],
					"name": "ownerOf",
					"outputs": [
						{
							"internalType": "address",
							"name": "",
							"type": "address"
						}
					],
					"stateMutability": "view",
					"type": "function"
				},
				{
					"inputs": [
						{
							"internalType": "bytes32",
							"name": "role",
							"type": "bytes32"
						},
						{
							"internalType": "address",
							"name": "account",
							"type": "address"
						}
					],
					"name": "renounceRole",
					"outputs": [],
					"stateMutability": "nonpayable",
					"type": "function"
				},
				{
					"inputs": [
						{
							"internalType": "bytes32",
							"name": "role",
							"type": "bytes32"
						},
						{
							"internalType": "address",
							"name": "account",
							"type": "address"
						}
					],
					"name": "revokeRole",
					"outputs": [],
					"stateMutability": "nonpayable",
					"type": "function"
				},
				{
					"inputs": [
						{
							"internalType": "uint256",
							"name": "tokenId",
							"type": "uint256"
						},
						{
							"internalType": "uint256",
							"name": "salePrice",
							"type": "uint256"
						}
					],
					"name": "royaltyInfo",
					"outputs": [
						{
							"internalType": "address",
							"name": "",
							"type": "address"
						},
						{
							"internalType": "uint256",
							"name": "",
							"type": "uint256"
						}
					],
					"stateMutability": "view",
					"type": "function"
				},
				{
					"inputs": [
						{
							"internalType": "address",
							"name": "from",
							"type": "address"
						},
						{
							"internalType": "address",
							"name": "to",
							"type": "address"
						},
						{
							"internalType": "uint256",
							"name": "tokenId",
							"type": "uint256"
						}
					],
					"name": "safeTransferFrom",
					"outputs": [],
					"stateMutability": "payable",
					"type": "function"
				},
				{
					"inputs": [
						{
							"internalType": "address",
							"name": "from",
							"type": "address"
						},
						{
							"internalType": "address",
							"name": "to",
							"type": "address"
						},
						{
							"internalType": "uint256",
							"name": "tokenId",
							"type": "uint256"
						},
						{
							"internalType": "bytes",
							"name": "_data",
							"type": "bytes"
						}
					],
					"name": "safeTransferFrom",
					"outputs": [],
					"stateMutability": "payable",
					"type": "function"
				},
				{
					"inputs": [
						{
							"internalType": "address",
							"name": "operator",
							"type": "address"
						},
						{
							"internalType": "bool",
							"name": "approved",
							"type": "bool"
						}
					],
					"name": "setApprovalForAll",
					"outputs": [],
					"stateMutability": "nonpayable",
					"type": "function"
				},
				{
					"inputs": [
						{
							"internalType": "string",
							"name": "tokenBaseURI",
							"type": "string"
						}
					],
					"name": "setBaseMetadataURI",
					"outputs": [],
					"stateMutability": "nonpayable",
					"type": "function"
				},
				{
					"inputs": [
						{
							"internalType": "string",
							"name": "tokenContractURI",
							"type": "string"
						}
					],
					"name": "setContractURI",
					"outputs": [],
					"stateMutability": "nonpayable",
					"type": "function"
				},
				{
					"inputs": [
						{
							"internalType": "address",
							"name": "receiver",
							"type": "address"
						},
						{
							"internalType": "uint96",
							"name": "feeNumerator",
							"type": "uint96"
						}
					],
					"name": "setDefaultRoyalty",
					"outputs": [],
					"stateMutability": "nonpayable",
					"type": "function"
				},
				{
					"inputs": [
						{
							"internalType": "string",
							"name": "tokenName",
							"type": "string"
						},
						{
							"internalType": "string",
							"name": "tokenSymbol",
							"type": "string"
						}
					],
					"name": "setNameAndSymbol",
					"outputs": [],
					"stateMutability": "nonpayable",
					"type": "function"
				},
				{
					"inputs": [
						{
							"internalType": "uint256",
							"name": "tokenId",
							"type": "uint256"
						},
						{
							"internalType": "address",
							"name": "receiver",
							"type": "address"
						},
						{
							"internalType": "uint96",
							"name": "feeNumerator",
							"type": "uint96"
						}
					],
					"name": "setTokenRoyalty",
					"outputs": [],
					"stateMutability": "nonpayable",
					"type": "function"
				},
				{
					"inputs": [
						{
							"internalType": "bytes4",
							"name": "interfaceId",
							"type": "bytes4"
						}
					],
					"name": "supportsInterface",
					"outputs": [
						{
							"internalType": "bool",
							"name": "",
							"type": "bool"
						}
					],
					"stateMutability": "view",
					"type": "function"
				},
				{
					"inputs": [],
					"name": "symbol",
					"outputs": [
						{
							"internalType": "string",
							"name": "",
							"type": "string"
						}
					],
					"stateMutability": "view",
					"type": "function"
				},
				{
					"inputs": [
						{
							"internalType": "uint256",
							"name": "tokenId",
							"type": "uint256"
						}
					],
					"name": "tokenURI",
					"outputs": [
						{
							"internalType": "string",
							"name": "",
							"type": "string"
						}
					],
					"stateMutability": "view",
					"type": "function"
				},
				{
					"inputs": [
						{
							"internalType": "address",
							"name": "owner",
							"type": "address"
						}
					],
					"name": "tokensOfOwner",
					"outputs": [
						{
							"internalType": "uint256[]",
							"name": "",
							"type": "uint256[]"
						}
					],
					"stateMutability": "view",
					"type": "function"
				},
				{
					"inputs": [
						{
							"internalType": "address",
							"name": "owner",
							"type": "address"
						},
						{
							"internalType": "uint256",
							"name": "start",
							"type": "uint256"
						},
						{
							"internalType": "uint256",
							"name": "stop",
							"type": "uint256"
						}
					],
					"name": "tokensOfOwnerIn",
					"outputs": [
						{
							"internalType": "uint256[]",
							"name": "",
							"type": "uint256[]"
						}
					],
					"stateMutability": "view",
					"type": "function"
				},
				{
					"inputs": [],
					"name": "totalSupply",
					"outputs": [
						{
							"internalType": "uint256",
							"name": "result",
							"type": "uint256"
						}
					],
					"stateMutability": "view",
					"type": "function"
				},
				{
					"inputs": [
						{
							"internalType": "address",
							"name": "from",
							"type": "address"
						},
						{
							"internalType": "address",
							"name": "to",
							"type": "address"
						},
						{
							"internalType": "uint256",
							"name": "tokenId",
							"type": "uint256"
						}
					],
					"name": "transferFrom",
					"outputs": [],
					"stateMutability": "payable",
					"type": "function"
				}
			],
			"devdoc": {
				"events": {
					"Approval(address,address,uint256)": {
						"details": "Emitted when `owner` enables `approved` to manage the `tokenId` token."
					},
					"ApprovalForAll(address,address,bool)": {
						"details": "Emitted when `owner` enables or disables (`approved`) `operator` to manage all of its assets."
					},
					"ConsecutiveTransfer(uint256,uint256,address,address)": {
						"details": "Emitted when tokens in `fromTokenId` to `toTokenId` (inclusive) is transferred from `from` to `to`, as defined in the [ERC2309](https://eips.ethereum.org/EIPS/eip-2309) standard. See {_mintERC2309} for more details."
					},
					"RoleAdminChanged(bytes32,bytes32,bytes32)": {
						"details": "Emitted when `newAdminRole` is set as ``role``'s admin role, replacing `previousAdminRole` `DEFAULT_ADMIN_ROLE` is the starting admin for all roles, despite {RoleAdminChanged} not being emitted signaling this. _Available since v3.1._"
					},
					"RoleGranted(bytes32,address,address)": {
						"details": "Emitted when `account` is granted `role`. `sender` is the account that originated the contract call, an admin role bearer except when using {AccessControl-_setupRole}."
					},
					"RoleRevoked(bytes32,address,address)": {
						"details": "Emitted when `account` is revoked `role`. `sender` is the account that originated the contract call:   - if using `revokeRole`, it is the admin role bearer   - if using `renounceRole`, it is the role bearer (i.e. `account`)"
					},
					"Transfer(address,address,uint256)": {
						"details": "Emitted when `tokenId` token is transferred from `from` to `to`."
					}
				},
				"kind": "dev",
				"methods": {
					"approve(address,uint256)": {
						"details": "Gives permission to `to` to transfer `tokenId` token to another account. See {ERC721A-_approve}. Requirements: - The caller must own the token or be an approved operator."
					},
					"balanceOf(address)": {
						"details": "Returns the number of tokens in `owner`'s account."
					},
					"batchBurn(uint256[])": {
						"params": {
							"tokenIds": "Array of token ids to burn"
						}
					},
					"burn(uint256)": {
						"params": {
							"tokenId": "Id of token to burn"
						}
					},
					"contractURI()": {
						"returns": {
							"_0": "Contract URI of token's URI"
						}
					},
					"explicitOwnershipOf(uint256)": {
						"details": "Returns the `TokenOwnership` struct at `tokenId` without reverting. If the `tokenId` is out of bounds: - `addr = address(0)` - `startTimestamp = 0` - `burned = false` - `extraData = 0` If the `tokenId` is burned: - `addr = <Address of owner before token was burned>` - `startTimestamp = <Timestamp when token was burned>` - `burned = true` - `extraData = <Extra data when token was burned>` Otherwise: - `addr = <Address of owner>` - `startTimestamp = <Timestamp of start of ownership>` - `burned = false` - `extraData = <Extra data at start of ownership>`"
					},
					"explicitOwnershipsOf(uint256[])": {
						"details": "Returns an array of `TokenOwnership` structs at `tokenIds` in order. See {ERC721AQueryable-explicitOwnershipOf}"
					},
					"getApproved(uint256)": {
						"details": "Returns the account approved for `tokenId` token. Requirements: - `tokenId` must exist."
					},
					"getRoleAdmin(bytes32)": {
						"details": "Returns the admin role that controls `role`. See {grantRole} and {revokeRole}. To change a role's admin, use {_setRoleAdmin}."
					},
					"getRoleMember(bytes32,uint256)": {
						"details": "Returns one of the accounts that have `role`. `index` must be a value between 0 and {getRoleMemberCount}, non-inclusive. Role bearers are not sorted in any particular way, and their ordering may change at any point. WARNING: When using {getRoleMember} and {getRoleMemberCount}, make sure you perform all queries on the same block. See the following https://forum.openzeppelin.com/t/iterating-over-elements-on-enumerableset-in-openzeppelin-contracts/2296[forum post] for more information."
					},
					"getRoleMemberCount(bytes32)": {
						"details": "Returns the number of accounts that have `role`. Can be used together with {getRoleMember} to enumerate all bearers of a role."
					},
					"grantRole(bytes32,address)": {
						"details": "Grants `role` to `account`. If `account` had not been already granted `role`, emits a {RoleGranted} event. Requirements: - the caller must have ``role``'s admin role. May emit a {RoleGranted} event."
					},
					"hasRole(bytes32,address)": {
						"details": "Returns `true` if `account` has been granted `role`."
					},
					"initialize(address,string,string,string,string,address,uint96)": {
						"details": "This should be called immediately after deployment.",
						"params": {
							"owner": "The owner of the contract",
							"royaltyFeeNumerator": "The royalty fee numerator in basis points (e.g. 15% would be 1500)",
							"royaltyReceiver": "Address of who should be sent the royalty payment",
							"tokenBaseURI": "Base URI of the token",
							"tokenContractURI": "Contract URI of the token",
							"tokenName": "Name of the token",
							"tokenSymbol": "Symbol of the token"
						}
					},
					"isApprovedForAll(address,address)": {
						"details": "Returns if the `operator` is allowed to manage all of the assets of `owner`. See {setApprovalForAll}."
					},
					"mint(address,uint256)": {
						"params": {
							"amount": "Amount of tokens to mint.",
							"to": "Address to mint tokens to."
						}
					},
					"ownerOf(uint256)": {
						"details": "Returns the owner of the `tokenId` token. Requirements: - `tokenId` must exist."
					},
					"renounceRole(bytes32,address)": {
						"details": "Revokes `role` from the calling account. Roles are often managed via {grantRole} and {revokeRole}: this function's purpose is to provide a mechanism for accounts to lose their privileges if they are compromised (such as when a trusted device is misplaced). If the calling account had been revoked `role`, emits a {RoleRevoked} event. Requirements: - the caller must be `account`. May emit a {RoleRevoked} event."
					},
					"revokeRole(bytes32,address)": {
						"details": "Revokes `role` from `account`. If `account` had been granted `role`, emits a {RoleRevoked} event. Requirements: - the caller must have ``role``'s admin role. May emit a {RoleRevoked} event."
					},
					"royaltyInfo(uint256,uint256)": {
						"details": "Returns how much royalty is owed and to whom, based on a sale price that may be denominated in any unit of exchange. The royalty amount is denominated and should be paid in that same unit of exchange."
					},
					"safeTransferFrom(address,address,uint256)": {
						"details": "Equivalent to `safeTransferFrom(from, to, tokenId, '')`."
					},
					"safeTransferFrom(address,address,uint256,bytes)": {
						"details": "Safely transfers `tokenId` token from `from` to `to`. Requirements: - `from` cannot be the zero address. - `to` cannot be the zero address. - `tokenId` token must exist and be owned by `from`. - If the caller is not `from`, it must be approved to move this token by either {approve} or {setApprovalForAll}. - If `to` refers to a smart contract, it must implement {IERC721Receiver-onERC721Received}, which is called upon a safe transfer. Emits a {Transfer} event."
					},
					"setApprovalForAll(address,bool)": {
						"details": "Approve or remove `operator` as an operator for the caller. Operators can call {transferFrom} or {safeTransferFrom} for any token owned by the caller. Requirements: - The `operator` cannot be the caller. Emits an {ApprovalForAll} event."
					},
					"setBaseMetadataURI(string)": {
						"params": {
							"tokenBaseURI": "New base URI of token's URI"
						}
					},
					"setContractURI(string)": {
						"params": {
							"tokenContractURI": "New contract URI of token's URI"
						}
					},
					"setDefaultRoyalty(address,uint96)": {
						"params": {
							"feeNumerator": "The royalty fee numerator in basis points (e.g. 15% would be 1500)",
							"receiver": "Address of who should be sent the royalty payment"
						}
					},
					"setNameAndSymbol(string,string)": {
						"params": {
							"tokenName": "Name of token.",
							"tokenSymbol": "Symbol of token."
						}
					},
					"setTokenRoyalty(uint256,address,uint96)": {
						"params": {
							"feeNumerator": "The royalty fee numerator in basis points (e.g. 15% would be 1500)",
							"receiver": "Address of who should be sent the royalty payment",
							"tokenId": "The token id to set the royalty information for"
						}
					},
					"supportsInterface(bytes4)": {
						"params": {
							"interfaceId": "Interface id"
						},
						"returns": {
							"_0": "True if supported"
						}
					},
					"tokenURI(uint256)": {
						"details": "Returns the Uniform Resource Identifier (URI) for `tokenId` token."
					},
					"tokensOfOwner(address)": {
						"details": "Returns an array of token IDs owned by `owner`. This function scans the ownership mapping and is O(`totalSupply`) in complexity. It is meant to be called off-chain. See {ERC721AQueryable-tokensOfOwnerIn} for splitting the scan into multiple smaller scans if the collection is large enough to cause an out-of-gas error (10K collections should be fine)."
					},
					"tokensOfOwnerIn(address,uint256,uint256)": {
						"details": "Returns an array of token IDs owned by `owner`, in the range [`start`, `stop`) (i.e. `start <= tokenId < stop`). This function allows for tokens to be queried if the collection grows too big for a single call of {ERC721AQueryable-tokensOfOwner}. Requirements: - `start < stop`"
					},
					"totalSupply()": {
						"details": "Returns the total number of tokens in existence. Burned tokens will reduce the count. To get the total number of tokens minted, please see {_totalMinted}."
					},
					"transferFrom(address,address,uint256)": {
						"details": "Transfers `tokenId` from `from` to `to`. Requirements: - `from` cannot be the zero address. - `to` cannot be the zero address. - `tokenId` token must be owned by `from`. - If the caller is not `from`, it must be approved to move this token by either {approve} or {setApprovalForAll}. Emits a {Transfer} event."
					}
				},
				"version": 1
			},
			"evm": {
				"bytecode": {
					"linkReferences": {},
					"object": "60a06040523462000146576200001462000161565b6200001e62000161565b81516001600160401b038111620001405762000047816200004160025462000185565b620001c2565b602080601f8311600114620000af575081906200008294600092620000a3575b50508160011b916000199060031b1c19161760025562000274565b6000805533608052604051613eaa908162000368823960805181613a000152f35b01519050388062000067565b60026000529193601f1985167f405787fa12a823e0f2b7631cc41b3ba8828b3321ca811111fa75cd3aa3bb5ace936000905b82821062000127575050916001939186620000829794106200010d575b505050811b0160025562000274565b015160001960f88460031b161c19169055388080620000fe565b80600186978294978701518155019601940190620000e1565b6200014b565b600080fd5b634e487b7160e01b600052604160045260246000fd5b60405190602082016001600160401b03811183821017620001405760405260008252565b90600182811c92168015620001b7575b6020831014620001a157565b634e487b7160e01b600052602260045260246000fd5b91607f169162000195565b601f8111620001cf575050565b6000906002825260208220906020601f850160051c8301941062000210575b601f0160051c01915b8281106200020457505050565b818155600101620001f7565b9092508290620001ee565b601f811162000228575050565b6000906003825260208220906020601f850160051c8301941062000269575b601f0160051c01915b8281106200025d57505050565b81815560010162000250565b909250829062000247565b80519091906001600160401b0381116200014057620002a0816200029a60035462000185565b6200021b565b602080601f8311600114620002df5750819293600092620002d3575b50508160011b916000199060031b1c191617600355565b015190503880620002bc565b6003600052601f198316949091907fc2575a0e9e593c00f959f8c92f12db2869c3395a3b0502d05e2516446f71f85b926000905b8782106200034e57505083600195961062000334575b505050811b01600355565b015160001960f88460031b161c1916905538808062000329565b806001859682949686015181550195019301906200031356fe6080604052600436101561001257600080fd5b60003560e01c806301ffc9a71461026757806304634d8d1461026257806306fdde031461025d578063081812fc14610258578063095ea7b31461025357806318160ddd1461024e57806323b872dd14610249578063248a9ca3146102445780632a55205a1461023f5780632f2ff15d1461023a57806336568abe1461023557806340c10f191461023057806342842e0e1461022b57806342966c68146102265780635944c753146102215780635a4462151461021c5780635bbb2177146102175780636352211e1461021257806370a082311461020d5780637e518ec8146102085780638462151c146102035780639010d07c146101fe57806391d14854146101f9578063938e3d7b146101f457806395d89b41146101ef57806398dd69c8146101ea57806399a2557a146101e5578063a217fddf146101e0578063a22cb465146101db578063b88d4fde146101d6578063c23dc68f146101d1578063c87b56dd146101cc578063ca15c873146101c7578063d547741f146101c2578063dc8e92ea146101bd578063e8a3d485146101b85763e985e9c5146101b357600080fd5b611e3a565b611d93565b611d0c565b611ccd565b611ca1565b611b27565b611ab5565b611a5a565b61198b565b61196f565b6117df565b611741565b61169a565b61159b565b61153b565b6114e8565b61135c565b611222565b6111cc565b611190565b61112a565b610f60565b610cee565b610cd2565b610caf565b610b9f565b610ad9565b610996565b6108c5565b610896565b610884565b61081f565b610700565b610686565b610587565b6104e7565b61029b565b7fffffffff0000000000000000000000000000000000000000000000000000000081160361029657565b600080fd5b346102965760206003193601126102965761031d6004356102bb8161026c565b7fffffffff000000000000000000000000000000000000000000000000000000008116807f40c10f190000000000000000000000000000000000000000000000000000000014918215610321575b505060405190151581529081906020820190565b0390f35b7fc21b8f28000000000000000000000000000000000000000000000000000000008214925090821561041e575b821561038d575b50811561037c575b811561036c575b503880610309565b6103769150613d0e565b38610364565b905061038781613d0e565b9061035d565b9091507f01ffc9a70000000000000000000000000000000000000000000000000000000081149081156103f4575b81156103ca575b509038610355565b7f5b5e139f00000000000000000000000000000000000000000000000000000000915014386103c2565b7f80ac58cd00000000000000000000000000000000000000000000000000000000811491506103bb565b7f8446a79e000000000000000000000000000000000000000000000000000000008114925061034e565b6004359073ffffffffffffffffffffffffffffffffffffffff8216820361029657565b6024359073ffffffffffffffffffffffffffffffffffffffff8216820361029657565b60a4359073ffffffffffffffffffffffffffffffffffffffff8216820361029657565b604435906bffffffffffffffffffffffff8216820361029657565b60c435906bffffffffffffffffffffffff8216820361029657565b3461029657604060031936011261029657610500610448565b6024356bffffffffffffffffffffffff811681036102965761052991610524612731565b613c36565b005b60005b83811061053e5750506000910152565b818101518382015260200161052e565b90601f19601f60209361056c8151809281875287808801910161052b565b0116010190565b90602061058492818152019061054e565b90565b3461029657600080600319360112610683576040519080600e546105aa81613307565b8085529160019180831690811561063b57506001146105e0575b61031d856105d481870382610ec0565b60405191829182610573565b9250600e83527fbb7b4a454dc3493923482f07822329ed19e8244eff582cc204f8554c3620c3fd5b8284106106235750505081016020016105d48261031d6105c4565b80546020858701810191909152909301928101610608565b86955061031d969350602092506105d49491507fffffffffffffffffffffffffffffffffffffffffffffffffffffffffffffff001682840152151560051b82010192936105c4565b80fd5b34610296576020600319360112610296576004356106a38161206f565b156106d6576000526006602052602073ffffffffffffffffffffffffffffffffffffffff60406000205416604051908152f35b7fcf4700e40000000000000000000000000000000000000000000000000000000060005260046000fd5b604060031936011261029657610714610448565b60243573ffffffffffffffffffffffffffffffffffffffff8061073683611f35565b16908133036107b6575b600083815260066020526040812080547fffffffffffffffffffffffff00000000000000000000000000000000000000001673ffffffffffffffffffffffffffffffffffffffff87161790559316907f8c5be1e5ebec7d5bd14f71427d1e84f3dd0314c0f7b2291e5b200ac8c7c3b9258480a480f35b81600052600760205260ff6107ef3360406000209073ffffffffffffffffffffffffffffffffffffffff16600052602052604060002090565b5416610740577fcfb3b9420000000000000000000000000000000000000000000000000000000060005260046000fd5b346102965760006003193601126102965760206000546001549003604051908152f35b60031960609101126102965773ffffffffffffffffffffffffffffffffffffffff90600435828116810361029657916024359081168103610296579060443590565b61052961089036610842565b916120d0565b3461029657602060031936011261029657600435600052600b6020526020600160406000200154604051908152f35b3461029657604060031936011261029657600435600052600a6020526040600020604051906108f382610e83565b549073ffffffffffffffffffffffffffffffffffffffff82169182825260a01c60208201529015610988575b61095f6127106109436bffffffffffffffffffffffff602085015116602435612dd8565b04915173ffffffffffffffffffffffffffffffffffffffff1690565b6040805173ffffffffffffffffffffffffffffffffffffffff9290921682526020820192909252f35b50610991612da5565b61091f565b3461029657604060031936011261029657600435610a3e6109b561046b565b73ffffffffffffffffffffffffffffffffffffffff610a36600094808652600b6020526109e860016040882001546128d5565b808652600b60205260ff610a1f85604089209073ffffffffffffffffffffffffffffffffffffffff16600052602052604060002090565b541615610a4257600052600c602052604060002090565b911690613183565b5080f35b808652600b602052610a7784604088209073ffffffffffffffffffffffffffffffffffffffff16600052602052604060002090565b60017fffffffffffffffffffffffffffffffffffffffffffffffffffffffffffffff0082541617905533838516827f2f8788117e7eff1d82e926ec794901d17c78024a50270940304540a733656f0d8980a4600052600c602052604060002090565b3461029657604060031936011261029657610af261046b565b3373ffffffffffffffffffffffffffffffffffffffff821603610b1b5761052990600435612cb1565b60846040517f08c379a000000000000000000000000000000000000000000000000000000000815260206004820152602f60248201527f416363657373436f6e74726f6c3a2063616e206f6e6c792072656e6f756e636560448201527f20726f6c657320666f722073656c6600000000000000000000000000000000006064820152fd5b3461029657604060031936011261029657610bb8610448565b60243590610bc461282b565b6000918254918115610caa57600191610c3673ffffffffffffffffffffffffffffffffffffffff83169284831460e11b4260a01b178417610c0f876000526004602052604060002090565b5573ffffffffffffffffffffffffffffffffffffffff166000526005602052604060002090565b68010000000000000001820281540190558115610ca5578301929180805b610c60575b8585815580f35b15610c94575b84818484887fddf252ad1be2c89b69c2b068fc378daa952ba7f163c4a11628f55a4df523b3ef8180a4610c54565b80920191838303610c665780610c59565b6124ea565b6124c0565b610529610cbb36610842565b9060405192610cc984610ea4565b600084526122df565b34610296576020600319360112610296576105296004356137cf565b3461029657606060031936011261029657610d0761046b565b610d0f6104b1565b90610d18612731565b610d346127106bffffffffffffffffffffffff84161115613bab565b73ffffffffffffffffffffffffffffffffffffffff811615610df657610d9361052992610d7e610d62610ee3565b73ffffffffffffffffffffffffffffffffffffffff9094168452565b6bffffffffffffffffffffffff166020830152565b610da9600435600052600a602052604060002090565b815160209092015160a01b7fffffffffffffffffffffffff00000000000000000000000000000000000000001673ffffffffffffffffffffffffffffffffffffffff909216919091179055565b60646040517f08c379a000000000000000000000000000000000000000000000000000000000815260206004820152601b60248201527f455243323938313a20496e76616c696420706172616d657465727300000000006044820152fd5b7f4e487b7100000000000000000000000000000000000000000000000000000000600052604160045260246000fd5b6040810190811067ffffffffffffffff821117610e9f57604052565b610e54565b6020810190811067ffffffffffffffff821117610e9f57604052565b90601f601f19910116810190811067ffffffffffffffff821117610e9f57604052565b60405190610ef082610e83565b565b67ffffffffffffffff8111610e9f57601f01601f191660200190565b929192610f1a82610ef2565b91610f286040519384610ec0565b829481845281830111610296578281602093846000960137010152565b9080601f830112156102965781602061058493359101610f0e565b346102965760406003193601126102965767ffffffffffffffff60043581811161029657610f92903690600401610f45565b9060243581811161029657610fab903690600401610f45565b90610fb4612880565b8251908111610e9f57610fd181610fcc600e54613307565b61335a565b602080601f83116001146110125750819061052994600092611007575b50506000198260011b9260031b1c191617600e5561351e565b015190503880610fee565b600e6000529193601f1985167fbb7b4a454dc3493923482f07822329ed19e8244eff582cc204f8554c3620c3fd936000905b82821061108557505091600193918661052997941061106c575b505050811b01600e5561351e565b015160001960f88460031b161c1916905538808061105e565b80600186978294978701518155019601940190611044565b6020908160408183019282815285518094520193019160005b8281106110c4575050505090565b909192938260808261111e600194895162ffffff6060809273ffffffffffffffffffffffffffffffffffffffff815116855267ffffffffffffffff6020820151166020860152604081015115156040860152015116910152565b019501939291016110b6565b346102965760206003193601126102965767ffffffffffffffff6004358181116102965736602382011215610296578060040135918211610296573660248360051b830101116102965761031d91602461118492016126f1565b6040519182918261109d565b3461029657602060031936011261029657602073ffffffffffffffffffffffffffffffffffffffff6111c3600435611f35565b16604051908152f35b346102965760206003193601126102965760206111ef6111ea610448565b611eaa565b604051908152f35b6020600319820112610296576004359067ffffffffffffffff82116102965761058491600401610f45565b3461029657611230366111f7565b611238612880565b805167ffffffffffffffff8111610e9f5761125d81611258600d54613307565b6133cb565b602080601f831160011461129a5750819260009261128f575b50506000198260011b9260031b1c191617600d55600080f35b015190503880611276565b90601f198316936112cd600d6000527fd7b6990105719101dabeb77144f2a3385c8033acd3af97e9423a695e81ad1eb590565b926000905b86821061130957505083600195106112f0575b505050811b01600d55005b015160001960f88460031b161c191690553880806112e5565b806001859682949686015181550195019301906112d2565b6020908160408183019282815285518094520193019160005b828110611348575050505090565b83518552938101939281019260010161133a565b3461029657602060031936011261029657611375610448565b6000805490606080928015928315611396575b6040518061031d8782611321565b949193508392909185916114e3576113ad81611eaa565b95866113c7575b505050505061031d915038808080611388565b909192939450858411156114da575b60409283519560019384890160051b8801988987526113f361261c565b9084916114096114058a830151151590565b1590565b6114bb575b50849591959887805b611437575b5050505050505050505061031d9250815238808080806113b4565b1561149d575b859661144884612673565b808b0151156114655750508786935b0196888d8b52979397611417565b9390935180611495575b50848418861b15611482575b8890611457565b998801600581901b8c018b90529961147b565b93503861146f565b80831480156114b2575b1561143d578061141c565b50818a146114a7565b5173ffffffffffffffffffffffffffffffffffffffff1691503861140e565b945082946113d6565b6125bc565b3461029657604060031936011261029657600435600052600c602052602073ffffffffffffffffffffffffffffffffffffffff61152b602435604060002061314d565b9190546040519260031b1c168152f35b3461029657604060031936011261029657602060ff61158f61155b61046b565b600435600052600b845260406000209073ffffffffffffffffffffffffffffffffffffffff16600052602052604060002090565b54166040519015158152f35b34610296576115a9366111f7565b6115b1612880565b805167ffffffffffffffff8111610e9f576115d6816115d1601054613307565b61343c565b602080601f831160011461161357508192600092611608575b50506000198260011b9260031b1c191617601055600080f35b0151905038806115ef565b90601f1983169361164660106000527f1b6847dc741a1b0cd08d278845f9d819d87b734759afb55fe2de5cb82a9ae67290565b926000905b8682106116825750508360019510611669575b505050811b01601055005b015160001960f88460031b161c1916905538808061165e565b8060018596829496860151815501950193019061164b565b3461029657600080600319360112610683576040519080600f546116bd81613307565b8085529160019180831690811561063b57506001146116e65761031d856105d481870382610ec0565b9250600f83527f8d1108e10bcb7c27dddfc02ed9d693a074039d026cf4ea4240b40f7d581ac8025b8284106117295750505081016020016105d48261031d6105c4565b8054602085870181019190915290930192810161170e565b346102965760e06003193601126102965761175a610448565b67ffffffffffffffff906024358281116102965761177c903690600401610f45565b60443583811161029657611794903690600401610f45565b606435848111610296576117ac903690600401610f45565b608435948511610296576117c7610529953690600401610f45565b916117d061048e565b936117d96104cc565b956139e3565b3461029657606080600319360112610296576117f9610448565b6024359190604435838382808310156114e35760005480911015611967575b5061182284611eaa565b918387101561195e575b82611840575b6040518061031d8882611321565b90919293945085840383811115611956575b50604092835195600193600591611872868501841b8a019a8b895261265b565b936000946118856114058a830151151590565b611937575b5060009594959887805b6118b4575b5050505050505050505061031d925081523880808080611832565b15611919575b6000966118c687612673565b808b0151156118e35750508787965b0196888d8b52979697611894565b9690965180611911575b50838718851b15611900575b88906118d5565b99880180861b8c018b9052996118f9565b9650386118ed565b808614801561192e575b156118ba5780611899565b50818a14611923565b5173ffffffffffffffffffffffffffffffffffffffff1694503861188a565b925038611852565b6000925061182c565b925038611818565b3461029657600060031936011261029657602060405160008152f35b34610296576040600319360112610296576119a4610448565b602435908115158092036102965773ffffffffffffffffffffffffffffffffffffffff903360005260076020526119ff8160406000209073ffffffffffffffffffffffffffffffffffffffff16600052602052604060002090565b7fffffffffffffffffffffffffffffffffffffffffffffffffffffffffffffff0081541660ff851617905560405192835216907f17307eab39ab6107e8899845ad3d59bd9653f200f220920489ca2b5937696c3160203392a3005b608060031936011261029657611a6e610448565b611a7661046b565b6064359167ffffffffffffffff8311610296573660238401121561029657611aab610529933690602481600401359101610f0e565b91604435916122df565b34610296576020600319360112610296576080611ad360043561265b565b611b25604051809262ffffff6060809273ffffffffffffffffffffffffffffffffffffffff815116855267ffffffffffffffff6020820151166020860152604081015115156040860152015116910152565bf35b346102965760208060031936011261029657600435611b458161206f565b15611c77576040519082826000600d54611b5e81613307565b80845290600190818116908115611c375750600114611bd8575b5050611b8692500383610ec0565b815115611bc55761031d92611bb7611ba06105d493612477565b611bb1604051958694850190611f1e565b90611f1e565b03601f198101835282610ec0565b50505061031d611bd3611f0b565b6105d4565b90939150600d6000527fd7b6990105719101dabeb77144f2a3385c8033acd3af97e9423a695e81ad1eb5936000915b818310611c1f575087945050820101611b8638611b78565b85548884018501529485019487945091830191611c07565b9050611b869593507fffffffffffffffffffffffffffffffffffffffffffffffffffffffffffffff0091501682840152151560051b820101859238611b78565b7fa14c4b500000000000000000000000000000000000000000000000000000000060005260046000fd5b3461029657602060031936011261029657600435600052600c6020526020604060002054604051908152f35b3461029657604060031936011261029657610529600435611cec61046b565b9080600052600b602052611d076001604060002001546128d5565b612cb1565b34610296576020806003193601126102965767ffffffffffffffff6004358181116102965736602382011215610296578060040135918211610e9f578160051b60405192611d5c85830185610ec0565b83526024848401918301019136831161029657602401905b828210611d8457610529846139a5565b81358152908401908401611d74565b3461029657600080600319360112610683576040519080601054611db681613307565b8085529160019180831690811561063b5750600114611ddf5761031d856105d481870382610ec0565b9250601083527f1b6847dc741a1b0cd08d278845f9d819d87b734759afb55fe2de5cb82a9ae6725b828410611e225750505081016020016105d48261031d6105c4565b80546020858701810191909152909301928101611e07565b3461029657604060031936011261029657602060ff61158f611e5a610448565b73ffffffffffffffffffffffffffffffffffffffff611e7761046b565b91166000526007845260406000209073ffffffffffffffffffffffffffffffffffffffff16600052602052604060002090565b73ffffffffffffffffffffffffffffffffffffffff168015611ee157600052600560205267ffffffffffffffff6040600020541690565b7f8f4eb6040000000000000000000000000000000000000000000000000000000060005260046000fd5b60405190611f1882610ea4565b60008252565b90611f316020928281519485920161052b565b0190565b611f49816000526004602052604060002090565b54908115611f7957507c010000000000000000000000000000000000000000000000000000000081166125145790565b9050600090815481101561200657600019905b01611fa1816000526004602052604060002090565b54908115611ffc57507c0100000000000000000000000000000000000000000000000000000000811615611ff7576004827fdf2d9b42000000000000000000000000000000000000000000000000000000008152fd5b905090565b6000199150611f8c565b6004827fdf2d9b42000000000000000000000000000000000000000000000000000000008152fd5b7f4e487b7100000000000000000000000000000000000000000000000000000000600052601160045260246000fd5b801561206a576000190190565b61202e565b90600091600080548210612081575050565b9192505b80825260046020526040822054806120aa57506120a360409161205d565b9050612085565b7c0100000000000000000000000000000000000000000000000000000000161592915050565b9190916120dc82611f35565b9073ffffffffffffffffffffffffffffffffffffffff8091169384828416036122da576000848152600660205260409020805461213573ffffffffffffffffffffffffffffffffffffffff881633908114908314171590565b612270575b612266575b5061216a8573ffffffffffffffffffffffffffffffffffffffff166000526005602052604060002090565b805460001901905561219c8173ffffffffffffffffffffffffffffffffffffffff166000526005602052604060002090565b80546001019055169283917c0200000000000000000000000000000000000000000000000000000000804260a01b8517176121e1866000526004602052604060002090565b5581161561221c575b507fddf252ad1be2c89b69c2b068fc378daa952ba7f163c4a11628f55a4df523b3ef600080a41561221757565b612592565b60018401612234816000526004602052604060002090565b5415612241575b506121ea565b600054811461223b5761225e906000526004602052604060002090565b55388061223b565b600090553861213f565b6122d06114056122c9336122a48b73ffffffffffffffffffffffffffffffffffffffff166000526007602052604060002090565b9073ffffffffffffffffffffffffffffffffffffffff16600052602052604060002090565b5460ff1690565b1561213a57612568565b61253e565b9291906122ed8282866120d0565b803b6122fa575b50505050565b61230393612380565b1561231157388080806122f4565b7fd1a57ed60000000000000000000000000000000000000000000000000000000060005260046000fd5b9081602091031261029657516105848161026c565b3d1561237b573d9061236182610ef2565b9161236f6040519384610ec0565b82523d6000602084013e565b606090565b91926020916123f29160006040519586809581947f150b7a02000000000000000000000000000000000000000000000000000000009a8b845233600485015273ffffffffffffffffffffffffffffffffffffffff8095166024850152604484015260806064840152608483019061054e565b0393165af160009181612447575b506124215761240d612350565b80511561241c57805190602001fd5b612311565b7fffffffff00000000000000000000000000000000000000000000000000000000161490565b61246991925060203d8111612470575b6124618183610ec0565b81019061233b565b9038612400565b503d612457565b9060405160a08101604052600019608082019360008552935b0192600a908181066030018553049283156124ae5760001990612490565b9250608083601f199203019201918252565b7fb562e8dd0000000000000000000000000000000000000000000000000000000060005260046000fd5b7f2e0763000000000000000000000000000000000000000000000000000000000060005260046000fd5b7fdf2d9b420000000000000000000000000000000000000000000000000000000060005260046000fd5b7fa11481000000000000000000000000000000000000000000000000000000000060005260046000fd5b7f59c896be0000000000000000000000000000000000000000000000000000000060005260046000fd5b7fea553b340000000000000000000000000000000000000000000000000000000060005260046000fd5b7f32c1995a0000000000000000000000000000000000000000000000000000000060005260046000fd5b604051906080820182811067ffffffffffffffff821117610e9f5760405260006060838281528260208201528260408201520152565b600090816126286125e6565b928054612633575050565b9192505b808252600460205260408220546126515760001901612637565b6105849150612673565b906126646125e6565b91600080548210612633575050565b61267b6125e6565b5060005260046020526040600020546126926125e6565b9073ffffffffffffffffffffffffffffffffffffffff8116825267ffffffffffffffff8160a01c1660208301527c010000000000000000000000000000000000000000000000000000000081161515604083015260e81c606082015290565b6040519180835260051b6020818401016040525b8081801561272a5761272190601f19809101938501013561265b565b90840152612705565b5050505090565b3360009081527f142ae0bd48b54fb380e908bf20fd1f4ea4f2b9a2663ca7698d91ef391575c621602052604090205460ff161561276a57565b61282760486127f561277b33612ed9565b611bb7612786612f76565b6040519485937f416363657373436f6e74726f6c3a206163636f756e742000000000000000000060208601526127c681518092602060378901910161052b565b84017f206973206d697373696e6720726f6c652000000000000000000000000000000060378201520190611f1e565b6040519182917f08c379a000000000000000000000000000000000000000000000000000000000835260048301610573565b0390fd5b3360009081527ff70e363b3d7895af770c4a138460777d52eebd3cb9962ccc6b58721f6127bbc8602052604090205460ff161561286457565b61282760486127f561287533612ed9565b611bb7612786613013565b3360009081527fea6919ad9e84aa527aa2dffb6ac6f0a6af0387a080d10167acddf2a249a612dd602052604090205460ff16156128b957565b61282760486127f56128ca33612ed9565b611bb76127866130b0565b80600052600b60205260ff61290e3360406000209073ffffffffffffffffffffffffffffffffffffffff16600052602052604060002090565b5416156129185750565b61292133612ed9565b612929612deb565b91603061293584612e46565b53607861294184612e53565b5360415b600181116129645761282760486127f585611bb7886127868815612e74565b90600f81169060108210156129b2577f30313233343536373839616263646566000000000000000000000000000000006129ad921a6129a38487612e63565b5360041c9161205d565b612945565b612e17565b73ffffffffffffffffffffffffffffffffffffffff81811660009081527fdf7de25b7f1fd6d0b5205f0e18f1f35bd7b8d84cce336588d184533ce43a6f76602052604080822054612a1f9493929060ff1615612a22575b808052600c60205220911690613183565b50565b808052600b602052612a56848383209073ffffffffffffffffffffffffffffffffffffffff16600052602052604060002090565b60017fffffffffffffffffffffffffffffffffffffffffffffffffffffffffffffff0082541617905533838516827f2f8788117e7eff1d82e926ec794901d17c78024a50270940304540a733656f0d8180a4612a0e565b73ffffffffffffffffffffffffffffffffffffffff80821660009081527fea6919ad9e84aa527aa2dffb6ac6f0a6af0387a080d10167acddf2a249a612dd6020526040808220612a1f949392907fe02a0315b383857ac496e9d2b2546a699afaeb4e5e83a1fdef64376d0b74e5a59060ff905b541615612b38575b8152600c60205220911690613183565b808252600b602052612b6c858484209073ffffffffffffffffffffffffffffffffffffffff16600052602052604060002090565b60017fffffffffffffffffffffffffffffffffffffffffffffffffffffffffffffff0082541617905533848616827f2f8788117e7eff1d82e926ec794901d17c78024a50270940304540a733656f0d8580a4612b28565b73ffffffffffffffffffffffffffffffffffffffff80821660009081527f142ae0bd48b54fb380e908bf20fd1f4ea4f2b9a2663ca7698d91ef391575c6216020526040808220612a1f949392907f6db4061a20ca83a3be756ee172bd37a029093ac5afe4ce968c6d5435b43cb0119060ff90612b20565b73ffffffffffffffffffffffffffffffffffffffff80821660009081527ff70e363b3d7895af770c4a138460777d52eebd3cb9962ccc6b58721f6127bbc86020526040808220612a1f949392907f9f2df0fed2c77648de5860a4cc508cd0818c85b8b8a1ab4ceeef8d981c8956a69060ff90612b20565b9073ffffffffffffffffffffffffffffffffffffffff6040612a1f93600090808252600b60205260ff612d06868585209073ffffffffffffffffffffffffffffffffffffffff16600052602052604060002090565b5416612d1d575b8152600c60205220911690613252565b808252600b602052612d51858484209073ffffffffffffffffffffffffffffffffffffffff16600052602052604060002090565b7fffffffffffffffffffffffffffffffffffffffffffffffffffffffffffffff00815416905533848616827ff6391f5c32d9c69d2a47ea670b442974b53935d1edc7fd64eb21e047a839171b8580a4612d0d565b60405190612db282610e83565b60095473ffffffffffffffffffffffffffffffffffffffff8116835260a01c6020830152565b8181029291811591840414171561206a57565b604051906080820182811067ffffffffffffffff821117610e9f57604052604282526060366020840137565b7f4e487b7100000000000000000000000000000000000000000000000000000000600052603260045260246000fd5b8051156129b25760200190565b8051600110156129b25760210190565b9081518110156129b2570160200190565b15612e7b57565b60646040517f08c379a000000000000000000000000000000000000000000000000000000000815260206004820152602060248201527f537472696e67733a20686578206c656e67746820696e73756666696369656e746044820152fd5b604051906060820182811067ffffffffffffffff821117610e9f57604052602a825260403660208401376030612f0e83612e46565b536078612f1a83612e53565b536029905b60018211612f3257610584915015612e74565b600f81169060108210156129b2577f3031323334353637383961626364656600000000000000000000000000000000612f70921a6129a38486612e63565b90612f1f565b7f6db4061a20ca83a3be756ee172bd37a029093ac5afe4ce968c6d5435b43cb011612f9f612deb565b906030612fab83612e46565b536078612fb783612e53565b536041905b60018211612fcf57610584915015612e74565b600f81169060108210156129b2577f303132333435363738396162636465660000000000000000000000000000000061300d921a6129a38486612e63565b90612fbc565b7f9f2df0fed2c77648de5860a4cc508cd0818c85b8b8a1ab4ceeef8d981c8956a661303c612deb565b90603061304883612e46565b53607861305483612e53565b536041905b6001821161306c57610584915015612e74565b600f81169060108210156129b2577f30313233343536373839616263646566000000000000000000000000000000006130aa921a6129a38486612e63565b90613059565b7fe02a0315b383857ac496e9d2b2546a699afaeb4e5e83a1fdef64376d0b74e5a56130d9612deb565b9060306130e583612e46565b5360786130f183612e53565b536041905b6001821161310957610584915015612e74565b600f81169060108210156129b2577f3031323334353637383961626364656600000000000000000000000000000000613147921a6129a38486612e63565b906130f6565b80548210156129b25760005260206000200190600090565b9161317f918354906000199060031b92831b921b19161790565b9055565b60018101908260005281602052604060002054156000146131f157805468010000000000000000811015610e9f576131dc6131c582600187940185558461314d565b81939154906000199060031b92831b921b19161790565b90555491600052602052604060002055600190565b505050600090565b80549081156132235760001980920191613213838361314d565b909182549160031b1b1916905555565b7f4e487b7100000000000000000000000000000000000000000000000000000000600052603160045260246000fd5b60018101918060005282602052604060002054928315156000146132fe57600019928385019085821161206a57805494850194851161206a5760009585836132a6946132b598036132bb575b5050506131f9565b90600052602052604060002090565b55600190565b6132e56132df916132cf6132f5948761314d565b90549060031b1c9283918761314d565b90613165565b8590600052602052604060002090565b5538808061329e565b50505050600090565b90600182811c92168015613350575b602083101461332157565b7f4e487b7100000000000000000000000000000000000000000000000000000000600052602260045260246000fd5b91607f1691613316565b601f8111613366575050565b600090600e82527fbb7b4a454dc3493923482f07822329ed19e8244eff582cc204f8554c3620c3fd906020601f850160051c830194106133c1575b601f0160051c01915b8281106133b657505050565b8181556001016133aa565b90925082906133a1565b601f81116133d7575050565b600090600d82527fd7b6990105719101dabeb77144f2a3385c8033acd3af97e9423a695e81ad1eb5906020601f850160051c83019410613432575b601f0160051c01915b82811061342757505050565b81815560010161341b565b9092508290613412565b601f8111613448575050565b600090601082527f1b6847dc741a1b0cd08d278845f9d819d87b734759afb55fe2de5cb82a9ae672906020601f850160051c830194106134a3575b601f0160051c01915b82811061349857505050565b81815560010161348c565b9092508290613483565b601f81116134b9575050565b600090600f82527f8d1108e10bcb7c27dddfc02ed9d693a074039d026cf4ea4240b40f7d581ac802906020601f850160051c83019410613514575b601f0160051c01915b82811061350957505050565b8181556001016134fd565b90925082906134f4565b90815167ffffffffffffffff8111610e9f576135448161353f600f54613307565b6134ad565b602080601f831160011461357f5750819293600092613574575b50506000198260011b9260031b1c191617600f55565b01519050388061355e565b90601f198316946135b2600f6000527f8d1108e10bcb7c27dddfc02ed9d693a074039d026cf4ea4240b40f7d581ac80290565b926000905b8782106135ef5750508360019596106135d6575b505050811b01600f55565b015160001960f88460031b161c191690553880806135cb565b806001859682949686015181550195019301906135b7565b90815167ffffffffffffffff8111610e9f5761362881611258600d54613307565b602080601f83116001146136635750819293600092613658575b50506000198260011b9260031b1c191617600d55565b015190503880613642565b90601f19831694613696600d6000527fd7b6990105719101dabeb77144f2a3385c8033acd3af97e9423a695e81ad1eb590565b926000905b8782106136d35750508360019596106136ba575b505050811b01600d55565b015160001960f88460031b161c191690553880806136af565b8060018596829496860151815501950193019061369b565b90815167ffffffffffffffff8111610e9f5761370c816115d1601054613307565b602080601f8311600114613747575081929360009261373c575b50506000198260011b9260031b1c191617601055565b015190503880613726565b90601f1983169461377a60106000527f1b6847dc741a1b0cd08d278845f9d819d87b734759afb55fe2de5cb82a9ae67290565b926000905b8782106137b757505083600195961061379e575b505050811b01601055565b015160001960f88460031b161c19169055388080613793565b8060018596829496860151815501950193019061377f565b6137d881611f35565b73ffffffffffffffffffffffffffffffffffffffff8116613806836000526006602052604060002090815490565b929061382e73ffffffffffffffffffffffffffffffffffffffff841633908114908614171590565b613967575b60009361395e575b506138668273ffffffffffffffffffffffffffffffffffffffff166000526005602052604060002090565b6fffffffffffffffffffffffffffffffff81540190557c03000000000000000000000000000000000000000000000000000000004260a01b8317176138b5856000526004602052604060002090565b557c0200000000000000000000000000000000000000000000000000000000811615613915575b507fddf252ad1be2c89b69c2b068fc378daa952ba7f163c4a11628f55a4df523b3ef8280a4610ef061391060015460010190565b600155565b6001840161392d816000526004602052604060002090565b541561393a575b506138dc565b8354811461393457613956906000526004602052604060002090565b553880613934565b8390553861383b565b61399b6114056122c9336122a48773ffffffffffffffffffffffffffffffffffffffff166000526007602052604060002090565b1561383357612568565b80519060005b8281106139b757505050565b81518110156129b2576139d260208260051b840101516137cf565b600019811461206a576001016139ab565b95949392919073ffffffffffffffffffffffffffffffffffffffff7f0000000000000000000000000000000000000000000000000000000000000000163314801590613b9f575b613b755780519067ffffffffffffffff8211610e9f57613a4f82610fcc600e54613307565b60209081601f8411600114613af2575093613a98613aa29484613ac29b9a9895613a9d95613abd9b996000926110075750506000198260011b9260031b1c191617600e5561351e565b613607565b6136eb565b613aab846129b7565b613ab484612aad565b61052484612bc3565b612c3a565b610ef060017fffffffffffffffffffffffffffffffffffffffffffffffffffffffffffffff006011541617601155565b600e6000529190601f1984167fbb7b4a454dc3493923482f07822329ed19e8244eff582cc204f8554c3620c3fd936000905b828210613b5d57505094600185613a9d95613abd9b9995613a9895613ac29f9e9c99613aa29b1061106c57505050811b01600e5561351e565b80600186978294978701518155019601940190613b24565b60046040517ff92ee8a9000000000000000000000000000000000000000000000000000000008152fd5b5060ff60115416613a2a565b15613bb257565b60846040517f08c379a000000000000000000000000000000000000000000000000000000000815260206004820152602a60248201527f455243323938313a20726f79616c7479206665652077696c6c2065786365656460448201527f2073616c655072696365000000000000000000000000000000000000000000006064820152fd5b73ffffffffffffffffffffffffffffffffffffffff6bffffffffffffffffffffffff831691613c69612710841115613bab565b16918215613cb0577fffffffffffffffffffffffff0000000000000000000000000000000000000000916020604051613ca181610e83565b858152015260a01b1617600955565b60646040517f08c379a000000000000000000000000000000000000000000000000000000000815260206004820152601960248201527f455243323938313a20696e76616c6964207265636569766572000000000000006044820152fd5b613d1781613dfd565b908115613d65575b8115613d3a575b8115613d30575090565b6105849150613d76565b7fffffffff000000000000000000000000000000000000000000000000000000008116159150613d26565b9050613d7081613d76565b90613d1f565b7fffffffff000000000000000000000000000000000000000000000000000000008116907f5a05180f000000000000000000000000000000000000000000000000000000008214918215613dc957505090565b7f7965db0b000000000000000000000000000000000000000000000000000000001491508115613df7575090565b61058491505b7fffffffff00000000000000000000000000000000000000000000000000000000167f2a55205a000000000000000000000000000000000000000000000000000000008114908115613e4d575090565b7f01ffc9a7000000000000000000000000000000000000000000000000000000009150149056fea2646970667358221220ba78f6a4ec048d9fde4856030466d089c55330f2269434ca1574d835c628542a64736f6c63430008130033",
					"opcodes": "PUSH1 0xA0 PUSH1 0x40 MSTORE CALLVALUE PUSH3 0x146 JUMPI PUSH3 0x14 PUSH3 0x161 JUMP JUMPDEST PUSH3 0x1E PUSH3 0x161 JUMP JUMPDEST DUP2 MLOAD PUSH1 0x1 PUSH1 0x1 PUSH1 0x40 SHL SUB DUP2 GT PUSH3 0x140 JUMPI PUSH3 0x47 DUP2 PUSH3 0x41 PUSH1 0x2 SLOAD PUSH3 0x185 JUMP JUMPDEST PUSH3 0x1C2 JUMP JUMPDEST PUSH1 0x20 DUP1 PUSH1 0x1F DUP4 GT PUSH1 0x1 EQ PUSH3 0xAF JUMPI POP DUP2 SWAP1 PUSH3 0x82 SWAP5 PUSH1 0x0 SWAP3 PUSH3 0xA3 JUMPI JUMPDEST POP POP DUP2 PUSH1 0x1 SHL SWAP2 PUSH1 0x0 NOT SWAP1 PUSH1 0x3 SHL SHR NOT AND OR PUSH1 0x2 SSTORE PUSH3 0x274 JUMP JUMPDEST PUSH1 0x0 DUP1 SSTORE CALLER PUSH1 0x80 MSTORE PUSH1 0x40 MLOAD PUSH2 0x3EAA SWAP1 DUP2 PUSH3 0x368 DUP3 CODECOPY PUSH1 0x80 MLOAD DUP2 PUSH2 0x3A00 ADD MSTORE RETURN JUMPDEST ADD MLOAD SWAP1 POP CODESIZE DUP1 PUSH3 0x67 JUMP JUMPDEST PUSH1 0x2 PUSH1 0x0 MSTORE SWAP2 SWAP4 PUSH1 0x1F NOT DUP6 AND PUSH32 0x405787FA12A823E0F2B7631CC41B3BA8828B3321CA811111FA75CD3AA3BB5ACE SWAP4 PUSH1 0x0 SWAP1 JUMPDEST DUP3 DUP3 LT PUSH3 0x127 JUMPI POP POP SWAP2 PUSH1 0x1 SWAP4 SWAP2 DUP7 PUSH3 0x82 SWAP8 SWAP5 LT PUSH3 0x10D JUMPI JUMPDEST POP POP POP DUP2 SHL ADD PUSH1 0x2 SSTORE PUSH3 0x274 JUMP JUMPDEST ADD MLOAD PUSH1 0x0 NOT PUSH1 0xF8 DUP5 PUSH1 0x3 SHL AND SHR NOT AND SWAP1 SSTORE CODESIZE DUP1 DUP1 PUSH3 0xFE JUMP JUMPDEST DUP1 PUSH1 0x1 DUP7 SWAP8 DUP3 SWAP5 SWAP8 DUP8 ADD MLOAD DUP2 SSTORE ADD SWAP7 ADD SWAP5 ADD SWAP1 PUSH3 0xE1 JUMP JUMPDEST PUSH3 0x14B JUMP JUMPDEST PUSH1 0x0 DUP1 REVERT JUMPDEST PUSH4 0x4E487B71 PUSH1 0xE0 SHL PUSH1 0x0 MSTORE PUSH1 0x41 PUSH1 0x4 MSTORE PUSH1 0x24 PUSH1 0x0 REVERT JUMPDEST PUSH1 0x40 MLOAD SWAP1 PUSH1 0x20 DUP3 ADD PUSH1 0x1 PUSH1 0x1 PUSH1 0x40 SHL SUB DUP2 GT DUP4 DUP3 LT OR PUSH3 0x140 JUMPI PUSH1 0x40 MSTORE PUSH1 0x0 DUP3 MSTORE JUMP JUMPDEST SWAP1 PUSH1 0x1 DUP3 DUP2 SHR SWAP3 AND DUP1 ISZERO PUSH3 0x1B7 JUMPI JUMPDEST PUSH1 0x20 DUP4 LT EQ PUSH3 0x1A1 JUMPI JUMP JUMPDEST PUSH4 0x4E487B71 PUSH1 0xE0 SHL PUSH1 0x0 MSTORE PUSH1 0x22 PUSH1 0x4 MSTORE PUSH1 0x24 PUSH1 0x0 REVERT JUMPDEST SWAP2 PUSH1 0x7F AND SWAP2 PUSH3 0x195 JUMP JUMPDEST PUSH1 0x1F DUP2 GT PUSH3 0x1CF JUMPI POP POP JUMP JUMPDEST PUSH1 0x0 SWAP1 PUSH1 0x2 DUP3 MSTORE PUSH1 0x20 DUP3 KECCAK256 SWAP1 PUSH1 0x20 PUSH1 0x1F DUP6 ADD PUSH1 0x5 SHR DUP4 ADD SWAP5 LT PUSH3 0x210 JUMPI JUMPDEST PUSH1 0x1F ADD PUSH1 0x5 SHR ADD SWAP2 JUMPDEST DUP3 DUP2 LT PUSH3 0x204 JUMPI POP POP POP JUMP JUMPDEST DUP2 DUP2 SSTORE PUSH1 0x1 ADD PUSH3 0x1F7 JUMP JUMPDEST SWAP1 SWAP3 POP DUP3 SWAP1 PUSH3 0x1EE JUMP JUMPDEST PUSH1 0x1F DUP2 GT PUSH3 0x228 JUMPI POP POP JUMP JUMPDEST PUSH1 0x0 SWAP1 PUSH1 0x3 DUP3 MSTORE PUSH1 0x20 DUP3 KECCAK256 SWAP1 PUSH1 0x20 PUSH1 0x1F DUP6 ADD PUSH1 0x5 SHR DUP4 ADD SWAP5 LT PUSH3 0x269 JUMPI JUMPDEST PUSH1 0x1F ADD PUSH1 0x5 SHR ADD SWAP2 JUMPDEST DUP3 DUP2 LT PUSH3 0x25D JUMPI POP POP POP JUMP JUMPDEST DUP2 DUP2 SSTORE PUSH1 0x1 ADD PUSH3 0x250 JUMP JUMPDEST SWAP1 SWAP3 POP DUP3 SWAP1 PUSH3 0x247 JUMP JUMPDEST DUP1 MLOAD SWAP1 SWAP2 SWAP1 PUSH1 0x1 PUSH1 0x1 PUSH1 0x40 SHL SUB DUP2 GT PUSH3 0x140 JUMPI PUSH3 0x2A0 DUP2 PUSH3 0x29A PUSH1 0x3 SLOAD PUSH3 0x185 JUMP JUMPDEST PUSH3 0x21B JUMP JUMPDEST PUSH1 0x20 DUP1 PUSH1 0x1F DUP4 GT PUSH1 0x1 EQ PUSH3 0x2DF JUMPI POP DUP2 SWAP3 SWAP4 PUSH1 0x0 SWAP3 PUSH3 0x2D3 JUMPI JUMPDEST POP POP DUP2 PUSH1 0x1 SHL SWAP2 PUSH1 0x0 NOT SWAP1 PUSH1 0x3 SHL SHR NOT AND OR PUSH1 0x3 SSTORE JUMP JUMPDEST ADD MLOAD SWAP1 POP CODESIZE DUP1 PUSH3 0x2BC JUMP JUMPDEST PUSH1 0x3 PUSH1 0x0 MSTORE PUSH1 0x1F NOT DUP4 AND SWAP5 SWAP1 SWAP2 SWAP1 PUSH32 0xC2575A0E9E593C00F959F8C92F12DB2869C3395A3B0502D05E2516446F71F85B SWAP3 PUSH1 0x0 SWAP1 JUMPDEST DUP8 DUP3 LT PUSH3 0x34E JUMPI POP POP DUP4 PUSH1 0x1 SWAP6 SWAP7 LT PUSH3 0x334 JUMPI JUMPDEST POP POP POP DUP2 SHL ADD PUSH1 0x3 SSTORE JUMP JUMPDEST ADD MLOAD PUSH1 0x0 NOT PUSH1 0xF8 DUP5 PUSH1 0x3 SHL AND SHR NOT AND SWAP1 SSTORE CODESIZE DUP1 DUP1 PUSH3 0x329 JUMP JUMPDEST DUP1 PUSH1 0x1 DUP6 SWAP7 DUP3 SWAP5 SWAP7 DUP7 ADD MLOAD DUP2 SSTORE ADD SWAP6 ADD SWAP4 ADD SWAP1 PUSH3 0x313 JUMP INVALID PUSH1 0x80 PUSH1 0x40 MSTORE PUSH1 0x4 CALLDATASIZE LT ISZERO PUSH2 0x12 JUMPI PUSH1 0x0 DUP1 REVERT JUMPDEST PUSH1 0x0 CALLDATALOAD PUSH1 0xE0 SHR DUP1 PUSH4 0x1FFC9A7 EQ PUSH2 0x267 JUMPI DUP1 PUSH4 0x4634D8D EQ PUSH2 0x262 JUMPI DUP1 PUSH4 0x6FDDE03 EQ PUSH2 0x25D JUMPI DUP1 PUSH4 0x81812FC EQ PUSH2 0x258 JUMPI DUP1 PUSH4 0x95EA7B3 EQ PUSH2 0x253 JUMPI DUP1 PUSH4 0x18160DDD EQ PUSH2 0x24E JUMPI DUP1 PUSH4 0x23B872DD EQ PUSH2 0x249 JUMPI DUP1 PUSH4 0x248A9CA3 EQ PUSH2 0x244 JUMPI DUP1 PUSH4 0x2A55205A EQ PUSH2 0x23F JUMPI DUP1 PUSH4 0x2F2FF15D EQ PUSH2 0x23A JUMPI DUP1 PUSH4 0x36568ABE EQ PUSH2 0x235 JUMPI DUP1 PUSH4 0x40C10F19 EQ PUSH2 0x230 JUMPI DUP1 PUSH4 0x42842E0E EQ PUSH2 0x22B JUMPI DUP1 PUSH4 0x42966C68 EQ PUSH2 0x226 JUMPI DUP1 PUSH4 0x5944C753 EQ PUSH2 0x221 JUMPI DUP1 PUSH4 0x5A446215 EQ PUSH2 0x21C JUMPI DUP1 PUSH4 0x5BBB2177 EQ PUSH2 0x217 JUMPI DUP1 PUSH4 0x6352211E EQ PUSH2 0x212 JUMPI DUP1 PUSH4 0x70A08231 EQ PUSH2 0x20D JUMPI DUP1 PUSH4 0x7E518EC8 EQ PUSH2 0x208 JUMPI DUP1 PUSH4 0x8462151C EQ PUSH2 0x203 JUMPI DUP1 PUSH4 0x9010D07C EQ PUSH2 0x1FE JUMPI DUP1 PUSH4 0x91D14854 EQ PUSH2 0x1F9 JUMPI DUP1 PUSH4 0x938E3D7B EQ PUSH2 0x1F4 JUMPI DUP1 PUSH4 0x95D89B41 EQ PUSH2 0x1EF JUMPI DUP1 PUSH4 0x98DD69C8 EQ PUSH2 0x1EA JUMPI DUP1 PUSH4 0x99A2557A EQ PUSH2 0x1E5 JUMPI DUP1 PUSH4 0xA217FDDF EQ PUSH2 0x1E0 JUMPI DUP1 PUSH4 0xA22CB465 EQ PUSH2 0x1DB JUMPI DUP1 PUSH4 0xB88D4FDE EQ PUSH2 0x1D6 JUMPI DUP1 PUSH4 0xC23DC68F EQ PUSH2 0x1D1 JUMPI DUP1 PUSH4 0xC87B56DD EQ PUSH2 0x1CC JUMPI DUP1 PUSH4 0xCA15C873 EQ PUSH2 0x1C7 JUMPI DUP1 PUSH4 0xD547741F EQ PUSH2 0x1C2 JUMPI DUP1 PUSH4 0xDC8E92EA EQ PUSH2 0x1BD JUMPI DUP1 PUSH4 0xE8A3D485 EQ PUSH2 0x1B8 JUMPI PUSH4 0xE985E9C5 EQ PUSH2 0x1B3 JUMPI PUSH1 0x0 DUP1 REVERT JUMPDEST PUSH2 0x1E3A JUMP JUMPDEST PUSH2 0x1D93 JUMP JUMPDEST PUSH2 0x1D0C JUMP JUMPDEST PUSH2 0x1CCD JUMP JUMPDEST PUSH2 0x1CA1 JUMP JUMPDEST PUSH2 0x1B27 JUMP JUMPDEST PUSH2 0x1AB5 JUMP JUMPDEST PUSH2 0x1A5A JUMP JUMPDEST PUSH2 0x198B JUMP JUMPDEST PUSH2 0x196F JUMP JUMPDEST PUSH2 0x17DF JUMP JUMPDEST PUSH2 0x1741 JUMP JUMPDEST PUSH2 0x169A JUMP JUMPDEST PUSH2 0x159B JUMP JUMPDEST PUSH2 0x153B JUMP JUMPDEST PUSH2 0x14E8 JUMP JUMPDEST PUSH2 0x135C JUMP JUMPDEST PUSH2 0x1222 JUMP JUMPDEST PUSH2 0x11CC JUMP JUMPDEST PUSH2 0x1190 JUMP JUMPDEST PUSH2 0x112A JUMP JUMPDEST PUSH2 0xF60 JUMP JUMPDEST PUSH2 0xCEE JUMP JUMPDEST PUSH2 0xCD2 JUMP JUMPDEST PUSH2 0xCAF JUMP JUMPDEST PUSH2 0xB9F JUMP JUMPDEST PUSH2 0xAD9 JUMP JUMPDEST PUSH2 0x996 JUMP JUMPDEST PUSH2 0x8C5 JUMP JUMPDEST PUSH2 0x896 JUMP JUMPDEST PUSH2 0x884 JUMP JUMPDEST PUSH2 0x81F JUMP JUMPDEST PUSH2 0x700 JUMP JUMPDEST PUSH2 0x686 JUMP JUMPDEST PUSH2 0x587 JUMP JUMPDEST PUSH2 0x4E7 JUMP JUMPDEST PUSH2 0x29B JUMP JUMPDEST PUSH32 0xFFFFFFFF00000000000000000000000000000000000000000000000000000000 DUP2 AND SUB PUSH2 0x296 JUMPI JUMP JUMPDEST PUSH1 0x0 DUP1 REVERT JUMPDEST CALLVALUE PUSH2 0x296 JUMPI PUSH1 0x20 PUSH1 0x3 NOT CALLDATASIZE ADD SLT PUSH2 0x296 JUMPI PUSH2 0x31D PUSH1 0x4 CALLDATALOAD PUSH2 0x2BB DUP2 PUSH2 0x26C JUMP JUMPDEST PUSH32 0xFFFFFFFF00000000000000000000000000000000000000000000000000000000 DUP2 AND DUP1 PUSH32 0x40C10F1900000000000000000000000000000000000000000000000000000000 EQ SWAP2 DUP3 ISZERO PUSH2 0x321 JUMPI JUMPDEST POP POP PUSH1 0x40 MLOAD SWAP1 ISZERO ISZERO DUP2 MSTORE SWAP1 DUP2 SWAP1 PUSH1 0x20 DUP3 ADD SWAP1 JUMP JUMPDEST SUB SWAP1 RETURN JUMPDEST PUSH32 0xC21B8F2800000000000000000000000000000000000000000000000000000000 DUP3 EQ SWAP3 POP SWAP1 DUP3 ISZERO PUSH2 0x41E JUMPI JUMPDEST DUP3 ISZERO PUSH2 0x38D JUMPI JUMPDEST POP DUP2 ISZERO PUSH2 0x37C JUMPI JUMPDEST DUP2 ISZERO PUSH2 0x36C JUMPI JUMPDEST POP CODESIZE DUP1 PUSH2 0x309 JUMP JUMPDEST PUSH2 0x376 SWAP2 POP PUSH2 0x3D0E JUMP JUMPDEST CODESIZE PUSH2 0x364 JUMP JUMPDEST SWAP1 POP PUSH2 0x387 DUP2 PUSH2 0x3D0E JUMP JUMPDEST SWAP1 PUSH2 0x35D JUMP JUMPDEST SWAP1 SWAP2 POP PUSH32 0x1FFC9A700000000000000000000000000000000000000000000000000000000 DUP2 EQ SWAP1 DUP2 ISZERO PUSH2 0x3F4 JUMPI JUMPDEST DUP2 ISZERO PUSH2 0x3CA JUMPI JUMPDEST POP SWAP1 CODESIZE PUSH2 0x355 JUMP JUMPDEST PUSH32 0x5B5E139F00000000000000000000000000000000000000000000000000000000 SWAP2 POP EQ CODESIZE PUSH2 0x3C2 JUMP JUMPDEST PUSH32 0x80AC58CD00000000000000000000000000000000000000000000000000000000 DUP2 EQ SWAP2 POP PUSH2 0x3BB JUMP JUMPDEST PUSH32 0x8446A79E00000000000000000000000000000000000000000000000000000000 DUP2 EQ SWAP3 POP PUSH2 0x34E JUMP JUMPDEST PUSH1 0x4 CALLDATALOAD SWAP1 PUSH20 0xFFFFFFFFFFFFFFFFFFFFFFFFFFFFFFFFFFFFFFFF DUP3 AND DUP3 SUB PUSH2 0x296 JUMPI JUMP JUMPDEST PUSH1 0x24 CALLDATALOAD SWAP1 PUSH20 0xFFFFFFFFFFFFFFFFFFFFFFFFFFFFFFFFFFFFFFFF DUP3 AND DUP3 SUB PUSH2 0x296 JUMPI JUMP JUMPDEST PUSH1 0xA4 CALLDATALOAD SWAP1 PUSH20 0xFFFFFFFFFFFFFFFFFFFFFFFFFFFFFFFFFFFFFFFF DUP3 AND DUP3 SUB PUSH2 0x296 JUMPI JUMP JUMPDEST PUSH1 0x44 CALLDATALOAD SWAP1 PUSH12 0xFFFFFFFFFFFFFFFFFFFFFFFF DUP3 AND DUP3 SUB PUSH2 0x296 JUMPI JUMP JUMPDEST PUSH1 0xC4 CALLDATALOAD SWAP1 PUSH12 0xFFFFFFFFFFFFFFFFFFFFFFFF DUP3 AND DUP3 SUB PUSH2 0x296 JUMPI JUMP JUMPDEST CALLVALUE PUSH2 0x296 JUMPI PUSH1 0x40 PUSH1 0x3 NOT CALLDATASIZE ADD SLT PUSH2 0x296 JUMPI PUSH2 0x500 PUSH2 0x448 JUMP JUMPDEST PUSH1 0x24 CALLDATALOAD PUSH12 0xFFFFFFFFFFFFFFFFFFFFFFFF DUP2 AND DUP2 SUB PUSH2 0x296 JUMPI PUSH2 0x529 SWAP2 PUSH2 0x524 PUSH2 0x2731 JUMP JUMPDEST PUSH2 0x3C36 JUMP JUMPDEST STOP JUMPDEST PUSH1 0x0 JUMPDEST DUP4 DUP2 LT PUSH2 0x53E JUMPI POP POP PUSH1 0x0 SWAP2 ADD MSTORE JUMP JUMPDEST DUP2 DUP2 ADD MLOAD DUP4 DUP3 ADD MSTORE PUSH1 0x20 ADD PUSH2 0x52E JUMP JUMPDEST SWAP1 PUSH1 0x1F NOT PUSH1 0x1F PUSH1 0x20 SWAP4 PUSH2 0x56C DUP2 MLOAD DUP1 SWAP3 DUP2 DUP8 MSTORE DUP8 DUP1 DUP9 ADD SWAP2 ADD PUSH2 0x52B JUMP JUMPDEST ADD AND ADD ADD SWAP1 JUMP JUMPDEST SWAP1 PUSH1 0x20 PUSH2 0x584 SWAP3 DUP2 DUP2 MSTORE ADD SWAP1 PUSH2 0x54E JUMP JUMPDEST SWAP1 JUMP JUMPDEST CALLVALUE PUSH2 0x296 JUMPI PUSH1 0x0 DUP1 PUSH1 0x3 NOT CALLDATASIZE ADD SLT PUSH2 0x683 JUMPI PUSH1 0x40 MLOAD SWAP1 DUP1 PUSH1 0xE SLOAD PUSH2 0x5AA DUP2 PUSH2 0x3307 JUMP JUMPDEST DUP1 DUP6 MSTORE SWAP2 PUSH1 0x1 SWAP2 DUP1 DUP4 AND SWAP1 DUP2 ISZERO PUSH2 0x63B JUMPI POP PUSH1 0x1 EQ PUSH2 0x5E0 JUMPI JUMPDEST PUSH2 0x31D DUP6 PUSH2 0x5D4 DUP2 DUP8 SUB DUP3 PUSH2 0xEC0 JUMP JUMPDEST PUSH1 0x40 MLOAD SWAP2 DUP3 SWAP2 DUP3 PUSH2 0x573 JUMP JUMPDEST SWAP3 POP PUSH1 0xE DUP4 MSTORE PUSH32 0xBB7B4A454DC3493923482F07822329ED19E8244EFF582CC204F8554C3620C3FD JUMPDEST DUP3 DUP5 LT PUSH2 0x623 JUMPI POP POP POP DUP2 ADD PUSH1 0x20 ADD PUSH2 0x5D4 DUP3 PUSH2 0x31D PUSH2 0x5C4 JUMP JUMPDEST DUP1 SLOAD PUSH1 0x20 DUP6 DUP8 ADD DUP2 ADD SWAP2 SWAP1 SWAP2 MSTORE SWAP1 SWAP4 ADD SWAP3 DUP2 ADD PUSH2 0x608 JUMP JUMPDEST DUP7 SWAP6 POP PUSH2 0x31D SWAP7 SWAP4 POP PUSH1 0x20 SWAP3 POP PUSH2 0x5D4 SWAP5 SWAP2 POP PUSH32 0xFFFFFFFFFFFFFFFFFFFFFFFFFFFFFFFFFFFFFFFFFFFFFFFFFFFFFFFFFFFFFF00 AND DUP3 DUP5 ADD MSTORE ISZERO ISZERO PUSH1 0x5 SHL DUP3 ADD ADD SWAP3 SWAP4 PUSH2 0x5C4 JUMP JUMPDEST DUP1 REVERT JUMPDEST CALLVALUE PUSH2 0x296 JUMPI PUSH1 0x20 PUSH1 0x3 NOT CALLDATASIZE ADD SLT PUSH2 0x296 JUMPI PUSH1 0x4 CALLDATALOAD PUSH2 0x6A3 DUP2 PUSH2 0x206F JUMP JUMPDEST ISZERO PUSH2 0x6D6 JUMPI PUSH1 0x0 MSTORE PUSH1 0x6 PUSH1 0x20 MSTORE PUSH1 0x20 PUSH20 0xFFFFFFFFFFFFFFFFFFFFFFFFFFFFFFFFFFFFFFFF PUSH1 0x40 PUSH1 0x0 KECCAK256 SLOAD AND PUSH1 0x40 MLOAD SWAP1 DUP2 MSTORE RETURN JUMPDEST PUSH32 0xCF4700E400000000000000000000000000000000000000000000000000000000 PUSH1 0x0 MSTORE PUSH1 0x4 PUSH1 0x0 REVERT JUMPDEST PUSH1 0x40 PUSH1 0x3 NOT CALLDATASIZE ADD SLT PUSH2 0x296 JUMPI PUSH2 0x714 PUSH2 0x448 JUMP JUMPDEST PUSH1 0x24 CALLDATALOAD PUSH20 0xFFFFFFFFFFFFFFFFFFFFFFFFFFFFFFFFFFFFFFFF DUP1 PUSH2 0x736 DUP4 PUSH2 0x1F35 JUMP JUMPDEST AND SWAP1 DUP2 CALLER SUB PUSH2 0x7B6 JUMPI JUMPDEST PUSH1 0x0 DUP4 DUP2 MSTORE PUSH1 0x6 PUSH1 0x20 MSTORE PUSH1 0x40 DUP2 KECCAK256 DUP1 SLOAD PUSH32 0xFFFFFFFFFFFFFFFFFFFFFFFF0000000000000000000000000000000000000000 AND PUSH20 0xFFFFFFFFFFFFFFFFFFFFFFFFFFFFFFFFFFFFFFFF DUP8 AND OR SWAP1 SSTORE SWAP4 AND SWAP1 PUSH32 0x8C5BE1E5EBEC7D5BD14F71427D1E84F3DD0314C0F7B2291E5B200AC8C7C3B925 DUP5 DUP1 LOG4 DUP1 RETURN JUMPDEST DUP2 PUSH1 0x0 MSTORE PUSH1 0x7 PUSH1 0x20 MSTORE PUSH1 0xFF PUSH2 0x7EF CALLER PUSH1 0x40 PUSH1 0x0 KECCAK256 SWAP1 PUSH20 0xFFFFFFFFFFFFFFFFFFFFFFFFFFFFFFFFFFFFFFFF AND PUSH1 0x0 MSTORE PUSH1 0x20 MSTORE PUSH1 0x40 PUSH1 0x0 KECCAK256 SWAP1 JUMP JUMPDEST SLOAD AND PUSH2 0x740 JUMPI PUSH32 0xCFB3B94200000000000000000000000000000000000000000000000000000000 PUSH1 0x0 MSTORE PUSH1 0x4 PUSH1 0x0 REVERT JUMPDEST CALLVALUE PUSH2 0x296 JUMPI PUSH1 0x0 PUSH1 0x3 NOT CALLDATASIZE ADD SLT PUSH2 0x296 JUMPI PUSH1 0x20 PUSH1 0x0 SLOAD PUSH1 0x1 SLOAD SWAP1 SUB PUSH1 0x40 MLOAD SWAP1 DUP2 MSTORE RETURN JUMPDEST PUSH1 0x3 NOT PUSH1 0x60 SWAP2 ADD SLT PUSH2 0x296 JUMPI PUSH20 0xFFFFFFFFFFFFFFFFFFFFFFFFFFFFFFFFFFFFFFFF SWAP1 PUSH1 0x4 CALLDATALOAD DUP3 DUP2 AND DUP2 SUB PUSH2 0x296 JUMPI SWAP2 PUSH1 0x24 CALLDATALOAD SWAP1 DUP2 AND DUP2 SUB PUSH2 0x296 JUMPI SWAP1 PUSH1 0x44 CALLDATALOAD SWAP1 JUMP JUMPDEST PUSH2 0x529 PUSH2 0x890 CALLDATASIZE PUSH2 0x842 JUMP JUMPDEST SWAP2 PUSH2 0x20D0 JUMP JUMPDEST CALLVALUE PUSH2 0x296 JUMPI PUSH1 0x20 PUSH1 0x3 NOT CALLDATASIZE ADD SLT PUSH2 0x296 JUMPI PUSH1 0x4 CALLDATALOAD PUSH1 0x0 MSTORE PUSH1 0xB PUSH1 0x20 MSTORE PUSH1 0x20 PUSH1 0x1 PUSH1 0x40 PUSH1 0x0 KECCAK256 ADD SLOAD PUSH1 0x40 MLOAD SWAP1 DUP2 MSTORE RETURN JUMPDEST CALLVALUE PUSH2 0x296 JUMPI PUSH1 0x40 PUSH1 0x3 NOT CALLDATASIZE ADD SLT PUSH2 0x296 JUMPI PUSH1 0x4 CALLDATALOAD PUSH1 0x0 MSTORE PUSH1 0xA PUSH1 0x20 MSTORE PUSH1 0x40 PUSH1 0x0 KECCAK256 PUSH1 0x40 MLOAD SWAP1 PUSH2 0x8F3 DUP3 PUSH2 0xE83 JUMP JUMPDEST SLOAD SWAP1 PUSH20 0xFFFFFFFFFFFFFFFFFFFFFFFFFFFFFFFFFFFFFFFF DUP3 AND SWAP2 DUP3 DUP3 MSTORE PUSH1 0xA0 SHR PUSH1 0x20 DUP3 ADD MSTORE SWAP1 ISZERO PUSH2 0x988 JUMPI JUMPDEST PUSH2 0x95F PUSH2 0x2710 PUSH2 0x943 PUSH12 0xFFFFFFFFFFFFFFFFFFFFFFFF PUSH1 0x20 DUP6 ADD MLOAD AND PUSH1 0x24 CALLDATALOAD PUSH2 0x2DD8 JUMP JUMPDEST DIV SWAP2 MLOAD PUSH20 0xFFFFFFFFFFFFFFFFFFFFFFFFFFFFFFFFFFFFFFFF AND SWAP1 JUMP JUMPDEST PUSH1 0x40 DUP1 MLOAD PUSH20 0xFFFFFFFFFFFFFFFFFFFFFFFFFFFFFFFFFFFFFFFF SWAP3 SWAP1 SWAP3 AND DUP3 MSTORE PUSH1 0x20 DUP3 ADD SWAP3 SWAP1 SWAP3 MSTORE RETURN JUMPDEST POP PUSH2 0x991 PUSH2 0x2DA5 JUMP JUMPDEST PUSH2 0x91F JUMP JUMPDEST CALLVALUE PUSH2 0x296 JUMPI PUSH1 0x40 PUSH1 0x3 NOT CALLDATASIZE ADD SLT PUSH2 0x296 JUMPI PUSH1 0x4 CALLDATALOAD PUSH2 0xA3E PUSH2 0x9B5 PUSH2 0x46B JUMP JUMPDEST PUSH20 0xFFFFFFFFFFFFFFFFFFFFFFFFFFFFFFFFFFFFFFFF PUSH2 0xA36 PUSH1 0x0 SWAP5 DUP1 DUP7 MSTORE PUSH1 0xB PUSH1 0x20 MSTORE PUSH2 0x9E8 PUSH1 0x1 PUSH1 0x40 DUP9 KECCAK256 ADD SLOAD PUSH2 0x28D5 JUMP JUMPDEST DUP1 DUP7 MSTORE PUSH1 0xB PUSH1 0x20 MSTORE PUSH1 0xFF PUSH2 0xA1F DUP6 PUSH1 0x40 DUP10 KECCAK256 SWAP1 PUSH20 0xFFFFFFFFFFFFFFFFFFFFFFFFFFFFFFFFFFFFFFFF AND PUSH1 0x0 MSTORE PUSH1 0x20 MSTORE PUSH1 0x40 PUSH1 0x0 KECCAK256 SWAP1 JUMP JUMPDEST SLOAD AND ISZERO PUSH2 0xA42 JUMPI PUSH1 0x0 MSTORE PUSH1 0xC PUSH1 0x20 MSTORE PUSH1 0x40 PUSH1 0x0 KECCAK256 SWAP1 JUMP JUMPDEST SWAP2 AND SWAP1 PUSH2 0x3183 JUMP JUMPDEST POP DUP1 RETURN JUMPDEST DUP1 DUP7 MSTORE PUSH1 0xB PUSH1 0x20 MSTORE PUSH2 0xA77 DUP5 PUSH1 0x40 DUP9 KECCAK256 SWAP1 PUSH20 0xFFFFFFFFFFFFFFFFFFFFFFFFFFFFFFFFFFFFFFFF AND PUSH1 0x0 MSTORE PUSH1 0x20 MSTORE PUSH1 0x40 PUSH1 0x0 KECCAK256 SWAP1 JUMP JUMPDEST PUSH1 0x1 PUSH32 0xFFFFFFFFFFFFFFFFFFFFFFFFFFFFFFFFFFFFFFFFFFFFFFFFFFFFFFFFFFFFFF00 DUP3 SLOAD AND OR SWAP1 SSTORE CALLER DUP4 DUP6 AND DUP3 PUSH32 0x2F8788117E7EFF1D82E926EC794901D17C78024A50270940304540A733656F0D DUP10 DUP1 LOG4 PUSH1 0x0 MSTORE PUSH1 0xC PUSH1 0x20 MSTORE PUSH1 0x40 PUSH1 0x0 KECCAK256 SWAP1 JUMP JUMPDEST CALLVALUE PUSH2 0x296 JUMPI PUSH1 0x40 PUSH1 0x3 NOT CALLDATASIZE ADD SLT PUSH2 0x296 JUMPI PUSH2 0xAF2 PUSH2 0x46B JUMP JUMPDEST CALLER PUSH20 0xFFFFFFFFFFFFFFFFFFFFFFFFFFFFFFFFFFFFFFFF DUP3 AND SUB PUSH2 0xB1B JUMPI PUSH2 0x529 SWAP1 PUSH1 0x4 CALLDATALOAD PUSH2 0x2CB1 JUMP JUMPDEST PUSH1 0x84 PUSH1 0x40 MLOAD PUSH32 0x8C379A000000000000000000000000000000000000000000000000000000000 DUP2 MSTORE PUSH1 0x20 PUSH1 0x4 DUP3 ADD MSTORE PUSH1 0x2F PUSH1 0x24 DUP3 ADD MSTORE PUSH32 0x416363657373436F6E74726F6C3A2063616E206F6E6C792072656E6F756E6365 PUSH1 0x44 DUP3 ADD MSTORE PUSH32 0x20726F6C657320666F722073656C660000000000000000000000000000000000 PUSH1 0x64 DUP3 ADD MSTORE REVERT JUMPDEST CALLVALUE PUSH2 0x296 JUMPI PUSH1 0x40 PUSH1 0x3 NOT CALLDATASIZE ADD SLT PUSH2 0x296 JUMPI PUSH2 0xBB8 PUSH2 0x448 JUMP JUMPDEST PUSH1 0x24 CALLDATALOAD SWAP1 PUSH2 0xBC4 PUSH2 0x282B JUMP JUMPDEST PUSH1 0x0 SWAP2 DUP3 SLOAD SWAP2 DUP2 ISZERO PUSH2 0xCAA JUMPI PUSH1 0x1 SWAP2 PUSH2 0xC36 PUSH20 0xFFFFFFFFFFFFFFFFFFFFFFFFFFFFFFFFFFFFFFFF DUP4 AND SWAP3 DUP5 DUP4 EQ PUSH1 0xE1 SHL TIMESTAMP PUSH1 0xA0 SHL OR DUP5 OR PUSH2 0xC0F DUP8 PUSH1 0x0 MSTORE PUSH1 0x4 PUSH1 0x20 MSTORE PUSH1 0x40 PUSH1 0x0 KECCAK256 SWAP1 JUMP JUMPDEST SSTORE PUSH20 0xFFFFFFFFFFFFFFFFFFFFFFFFFFFFFFFFFFFFFFFF AND PUSH1 0x0 MSTORE PUSH1 0x5 PUSH1 0x20 MSTORE PUSH1 0x40 PUSH1 0x0 KECCAK256 SWAP1 JUMP JUMPDEST PUSH9 0x10000000000000001 DUP3 MUL DUP2 SLOAD ADD SWAP1 SSTORE DUP2 ISZERO PUSH2 0xCA5 JUMPI DUP4 ADD SWAP3 SWAP2 DUP1 DUP1 JUMPDEST PUSH2 0xC60 JUMPI JUMPDEST DUP6 DUP6 DUP2 SSTORE DUP1 RETURN JUMPDEST ISZERO PUSH2 0xC94 JUMPI JUMPDEST DUP5 DUP2 DUP5 DUP5 DUP9 PUSH32 0xDDF252AD1BE2C89B69C2B068FC378DAA952BA7F163C4A11628F55A4DF523B3EF DUP2 DUP1 LOG4 PUSH2 0xC54 JUMP JUMPDEST DUP1 SWAP3 ADD SWAP2 DUP4 DUP4 SUB PUSH2 0xC66 JUMPI DUP1 PUSH2 0xC59 JUMP JUMPDEST PUSH2 0x24EA JUMP JUMPDEST PUSH2 0x24C0 JUMP JUMPDEST PUSH2 0x529 PUSH2 0xCBB CALLDATASIZE PUSH2 0x842 JUMP JUMPDEST SWAP1 PUSH1 0x40 MLOAD SWAP3 PUSH2 0xCC9 DUP5 PUSH2 0xEA4 JUMP JUMPDEST PUSH1 0x0 DUP5 MSTORE PUSH2 0x22DF JUMP JUMPDEST CALLVALUE PUSH2 0x296 JUMPI PUSH1 0x20 PUSH1 0x3 NOT CALLDATASIZE ADD SLT PUSH2 0x296 JUMPI PUSH2 0x529 PUSH1 0x4 CALLDATALOAD PUSH2 0x37CF JUMP JUMPDEST CALLVALUE PUSH2 0x296 JUMPI PUSH1 0x60 PUSH1 0x3 NOT CALLDATASIZE ADD SLT PUSH2 0x296 JUMPI PUSH2 0xD07 PUSH2 0x46B JUMP JUMPDEST PUSH2 0xD0F PUSH2 0x4B1 JUMP JUMPDEST SWAP1 PUSH2 0xD18 PUSH2 0x2731 JUMP JUMPDEST PUSH2 0xD34 PUSH2 0x2710 PUSH12 0xFFFFFFFFFFFFFFFFFFFFFFFF DUP5 AND GT ISZERO PUSH2 0x3BAB JUMP JUMPDEST PUSH20 0xFFFFFFFFFFFFFFFFFFFFFFFFFFFFFFFFFFFFFFFF DUP2 AND ISZERO PUSH2 0xDF6 JUMPI PUSH2 0xD93 PUSH2 0x529 SWAP3 PUSH2 0xD7E PUSH2 0xD62 PUSH2 0xEE3 JUMP JUMPDEST PUSH20 0xFFFFFFFFFFFFFFFFFFFFFFFFFFFFFFFFFFFFFFFF SWAP1 SWAP5 AND DUP5 MSTORE JUMP JUMPDEST PUSH12 0xFFFFFFFFFFFFFFFFFFFFFFFF AND PUSH1 0x20 DUP4 ADD MSTORE JUMP JUMPDEST PUSH2 0xDA9 PUSH1 0x4 CALLDATALOAD PUSH1 0x0 MSTORE PUSH1 0xA PUSH1 0x20 MSTORE PUSH1 0x40 PUSH1 0x0 KECCAK256 SWAP1 JUMP JUMPDEST DUP2 MLOAD PUSH1 0x20 SWAP1 SWAP3 ADD MLOAD PUSH1 0xA0 SHL PUSH32 0xFFFFFFFFFFFFFFFFFFFFFFFF0000000000000000000000000000000000000000 AND PUSH20 0xFFFFFFFFFFFFFFFFFFFFFFFFFFFFFFFFFFFFFFFF SWAP1 SWAP3 AND SWAP2 SWAP1 SWAP2 OR SWAP1 SSTORE JUMP JUMPDEST PUSH1 0x64 PUSH1 0x40 MLOAD PUSH32 0x8C379A000000000000000000000000000000000000000000000000000000000 DUP2 MSTORE PUSH1 0x20 PUSH1 0x4 DUP3 ADD MSTORE PUSH1 0x1B PUSH1 0x24 DUP3 ADD MSTORE PUSH32 0x455243323938313A20496E76616C696420706172616D65746572730000000000 PUSH1 0x44 DUP3 ADD MSTORE REVERT JUMPDEST PUSH32 0x4E487B7100000000000000000000000000000000000000000000000000000000 PUSH1 0x0 MSTORE PUSH1 0x41 PUSH1 0x4 MSTORE PUSH1 0x24 PUSH1 0x0 REVERT JUMPDEST PUSH1 0x40 DUP2 ADD SWAP1 DUP2 LT PUSH8 0xFFFFFFFFFFFFFFFF DUP3 GT OR PUSH2 0xE9F JUMPI PUSH1 0x40 MSTORE JUMP JUMPDEST PUSH2 0xE54 JUMP JUMPDEST PUSH1 0x20 DUP2 ADD SWAP1 DUP2 LT PUSH8 0xFFFFFFFFFFFFFFFF DUP3 GT OR PUSH2 0xE9F JUMPI PUSH1 0x40 MSTORE JUMP JUMPDEST SWAP1 PUSH1 0x1F PUSH1 0x1F NOT SWAP2 ADD AND DUP2 ADD SWAP1 DUP2 LT PUSH8 0xFFFFFFFFFFFFFFFF DUP3 GT OR PUSH2 0xE9F JUMPI PUSH1 0x40 MSTORE JUMP JUMPDEST PUSH1 0x40 MLOAD SWAP1 PUSH2 0xEF0 DUP3 PUSH2 0xE83 JUMP JUMPDEST JUMP JUMPDEST PUSH8 0xFFFFFFFFFFFFFFFF DUP2 GT PUSH2 0xE9F JUMPI PUSH1 0x1F ADD PUSH1 0x1F NOT AND PUSH1 0x20 ADD SWAP1 JUMP JUMPDEST SWAP3 SWAP2 SWAP3 PUSH2 0xF1A DUP3 PUSH2 0xEF2 JUMP JUMPDEST SWAP2 PUSH2 0xF28 PUSH1 0x40 MLOAD SWAP4 DUP5 PUSH2 0xEC0 JUMP JUMPDEST DUP3 SWAP5 DUP2 DUP5 MSTORE DUP2 DUP4 ADD GT PUSH2 0x296 JUMPI DUP3 DUP2 PUSH1 0x20 SWAP4 DUP5 PUSH1 0x0 SWAP7 ADD CALLDATACOPY ADD ADD MSTORE JUMP JUMPDEST SWAP1 DUP1 PUSH1 0x1F DUP4 ADD SLT ISZERO PUSH2 0x296 JUMPI DUP2 PUSH1 0x20 PUSH2 0x584 SWAP4 CALLDATALOAD SWAP2 ADD PUSH2 0xF0E JUMP JUMPDEST CALLVALUE PUSH2 0x296 JUMPI PUSH1 0x40 PUSH1 0x3 NOT CALLDATASIZE ADD SLT PUSH2 0x296 JUMPI PUSH8 0xFFFFFFFFFFFFFFFF PUSH1 0x4 CALLDATALOAD DUP2 DUP2 GT PUSH2 0x296 JUMPI PUSH2 0xF92 SWAP1 CALLDATASIZE SWAP1 PUSH1 0x4 ADD PUSH2 0xF45 JUMP JUMPDEST SWAP1 PUSH1 0x24 CALLDATALOAD DUP2 DUP2 GT PUSH2 0x296 JUMPI PUSH2 0xFAB SWAP1 CALLDATASIZE SWAP1 PUSH1 0x4 ADD PUSH2 0xF45 JUMP JUMPDEST SWAP1 PUSH2 0xFB4 PUSH2 0x2880 JUMP JUMPDEST DUP3 MLOAD SWAP1 DUP2 GT PUSH2 0xE9F JUMPI PUSH2 0xFD1 DUP2 PUSH2 0xFCC PUSH1 0xE SLOAD PUSH2 0x3307 JUMP JUMPDEST PUSH2 0x335A JUMP JUMPDEST PUSH1 0x20 DUP1 PUSH1 0x1F DUP4 GT PUSH1 0x1 EQ PUSH2 0x1012 JUMPI POP DUP2 SWAP1 PUSH2 0x529 SWAP5 PUSH1 0x0 SWAP3 PUSH2 0x1007 JUMPI JUMPDEST POP POP PUSH1 0x0 NOT DUP3 PUSH1 0x1 SHL SWAP3 PUSH1 0x3 SHL SHR NOT AND OR PUSH1 0xE SSTORE PUSH2 0x351E JUMP JUMPDEST ADD MLOAD SWAP1 POP CODESIZE DUP1 PUSH2 0xFEE JUMP JUMPDEST PUSH1 0xE PUSH1 0x0 MSTORE SWAP2 SWAP4 PUSH1 0x1F NOT DUP6 AND PUSH32 0xBB7B4A454DC3493923482F07822329ED19E8244EFF582CC204F8554C3620C3FD SWAP4 PUSH1 0x0 SWAP1 JUMPDEST DUP3 DUP3 LT PUSH2 0x1085 JUMPI POP POP SWAP2 PUSH1 0x1 SWAP4 SWAP2 DUP7 PUSH2 0x529 SWAP8 SWAP5 LT PUSH2 0x106C JUMPI JUMPDEST POP POP POP DUP2 SHL ADD PUSH1 0xE SSTORE PUSH2 0x351E JUMP JUMPDEST ADD MLOAD PUSH1 0x0 NOT PUSH1 0xF8 DUP5 PUSH1 0x3 SHL AND SHR NOT AND SWAP1 SSTORE CODESIZE DUP1 DUP1 PUSH2 0x105E JUMP JUMPDEST DUP1 PUSH1 0x1 DUP7 SWAP8 DUP3 SWAP5 SWAP8 DUP8 ADD MLOAD DUP2 SSTORE ADD SWAP7 ADD SWAP5 ADD SWAP1 PUSH2 0x1044 JUMP JUMPDEST PUSH1 0x20 SWAP1 DUP2 PUSH1 0x40 DUP2 DUP4 ADD SWAP3 DUP3 DUP2 MSTORE DUP6 MLOAD DUP1 SWAP5 MSTORE ADD SWAP4 ADD SWAP2 PUSH1 0x0 JUMPDEST DUP3 DUP2 LT PUSH2 0x10C4 JUMPI POP POP POP POP SWAP1 JUMP JUMPDEST SWAP1 SWAP2 SWAP3 SWAP4 DUP3 PUSH1 0x80 DUP3 PUSH2 0x111E PUSH1 0x1 SWAP5 DUP10 MLOAD PUSH3 0xFFFFFF PUSH1 0x60 DUP1 SWAP3 PUSH20 0xFFFFFFFFFFFFFFFFFFFFFFFFFFFFFFFFFFFFFFFF DUP2 MLOAD AND DUP6 MSTORE PUSH8 0xFFFFFFFFFFFFFFFF PUSH1 0x20 DUP3 ADD MLOAD AND PUSH1 0x20 DUP7 ADD MSTORE PUSH1 0x40 DUP2 ADD MLOAD ISZERO ISZERO PUSH1 0x40 DUP7 ADD MSTORE ADD MLOAD AND SWAP2 ADD MSTORE JUMP JUMPDEST ADD SWAP6 ADD SWAP4 SWAP3 SWAP2 ADD PUSH2 0x10B6 JUMP JUMPDEST CALLVALUE PUSH2 0x296 JUMPI PUSH1 0x20 PUSH1 0x3 NOT CALLDATASIZE ADD SLT PUSH2 0x296 JUMPI PUSH8 0xFFFFFFFFFFFFFFFF PUSH1 0x4 CALLDATALOAD DUP2 DUP2 GT PUSH2 0x296 JUMPI CALLDATASIZE PUSH1 0x23 DUP3 ADD SLT ISZERO PUSH2 0x296 JUMPI DUP1 PUSH1 0x4 ADD CALLDATALOAD SWAP2 DUP3 GT PUSH2 0x296 JUMPI CALLDATASIZE PUSH1 0x24 DUP4 PUSH1 0x5 SHL DUP4 ADD ADD GT PUSH2 0x296 JUMPI PUSH2 0x31D SWAP2 PUSH1 0x24 PUSH2 0x1184 SWAP3 ADD PUSH2 0x26F1 JUMP JUMPDEST PUSH1 0x40 MLOAD SWAP2 DUP3 SWAP2 DUP3 PUSH2 0x109D JUMP JUMPDEST CALLVALUE PUSH2 0x296 JUMPI PUSH1 0x20 PUSH1 0x3 NOT CALLDATASIZE ADD SLT PUSH2 0x296 JUMPI PUSH1 0x20 PUSH20 0xFFFFFFFFFFFFFFFFFFFFFFFFFFFFFFFFFFFFFFFF PUSH2 0x11C3 PUSH1 0x4 CALLDATALOAD PUSH2 0x1F35 JUMP JUMPDEST AND PUSH1 0x40 MLOAD SWAP1 DUP2 MSTORE RETURN JUMPDEST CALLVALUE PUSH2 0x296 JUMPI PUSH1 0x20 PUSH1 0x3 NOT CALLDATASIZE ADD SLT PUSH2 0x296 JUMPI PUSH1 0x20 PUSH2 0x11EF PUSH2 0x11EA PUSH2 0x448 JUMP JUMPDEST PUSH2 0x1EAA JUMP JUMPDEST PUSH1 0x40 MLOAD SWAP1 DUP2 MSTORE RETURN JUMPDEST PUSH1 0x20 PUSH1 0x3 NOT DUP3 ADD SLT PUSH2 0x296 JUMPI PUSH1 0x4 CALLDATALOAD SWAP1 PUSH8 0xFFFFFFFFFFFFFFFF DUP3 GT PUSH2 0x296 JUMPI PUSH2 0x584 SWAP2 PUSH1 0x4 ADD PUSH2 0xF45 JUMP JUMPDEST CALLVALUE PUSH2 0x296 JUMPI PUSH2 0x1230 CALLDATASIZE PUSH2 0x11F7 JUMP JUMPDEST PUSH2 0x1238 PUSH2 0x2880 JUMP JUMPDEST DUP1 MLOAD PUSH8 0xFFFFFFFFFFFFFFFF DUP2 GT PUSH2 0xE9F JUMPI PUSH2 0x125D DUP2 PUSH2 0x1258 PUSH1 0xD SLOAD PUSH2 0x3307 JUMP JUMPDEST PUSH2 0x33CB JUMP JUMPDEST PUSH1 0x20 DUP1 PUSH1 0x1F DUP4 GT PUSH1 0x1 EQ PUSH2 0x129A JUMPI POP DUP2 SWAP3 PUSH1 0x0 SWAP3 PUSH2 0x128F JUMPI JUMPDEST POP POP PUSH1 0x0 NOT DUP3 PUSH1 0x1 SHL SWAP3 PUSH1 0x3 SHL SHR NOT AND OR PUSH1 0xD SSTORE PUSH1 0x0 DUP1 RETURN JUMPDEST ADD MLOAD SWAP1 POP CODESIZE DUP1 PUSH2 0x1276 JUMP JUMPDEST SWAP1 PUSH1 0x1F NOT DUP4 AND SWAP4 PUSH2 0x12CD PUSH1 0xD PUSH1 0x0 MSTORE PUSH32 0xD7B6990105719101DABEB77144F2A3385C8033ACD3AF97E9423A695E81AD1EB5 SWAP1 JUMP JUMPDEST SWAP3 PUSH1 0x0 SWAP1 JUMPDEST DUP7 DUP3 LT PUSH2 0x1309 JUMPI POP POP DUP4 PUSH1 0x1 SWAP6 LT PUSH2 0x12F0 JUMPI JUMPDEST POP POP POP DUP2 SHL ADD PUSH1 0xD SSTORE STOP JUMPDEST ADD MLOAD PUSH1 0x0 NOT PUSH1 0xF8 DUP5 PUSH1 0x3 SHL AND SHR NOT AND SWAP1 SSTORE CODESIZE DUP1 DUP1 PUSH2 0x12E5 JUMP JUMPDEST DUP1 PUSH1 0x1 DUP6 SWAP7 DUP3 SWAP5 SWAP7 DUP7 ADD MLOAD DUP2 SSTORE ADD SWAP6 ADD SWAP4 ADD SWAP1 PUSH2 0x12D2 JUMP JUMPDEST PUSH1 0x20 SWAP1 DUP2 PUSH1 0x40 DUP2 DUP4 ADD SWAP3 DUP3 DUP2 MSTORE DUP6 MLOAD DUP1 SWAP5 MSTORE ADD SWAP4 ADD SWAP2 PUSH1 0x0 JUMPDEST DUP3 DUP2 LT PUSH2 0x1348 JUMPI POP POP POP POP SWAP1 JUMP JUMPDEST DUP4 MLOAD DUP6 MSTORE SWAP4 DUP2 ADD SWAP4 SWAP3 DUP2 ADD SWAP3 PUSH1 0x1 ADD PUSH2 0x133A JUMP JUMPDEST CALLVALUE PUSH2 0x296 JUMPI PUSH1 0x20 PUSH1 0x3 NOT CALLDATASIZE ADD SLT PUSH2 0x296 JUMPI PUSH2 0x1375 PUSH2 0x448 JUMP JUMPDEST PUSH1 0x0 DUP1 SLOAD SWAP1 PUSH1 0x60 DUP1 SWAP3 DUP1 ISZERO SWAP3 DUP4 ISZERO PUSH2 0x1396 JUMPI JUMPDEST PUSH1 0x40 MLOAD DUP1 PUSH2 0x31D DUP8 DUP3 PUSH2 0x1321 JUMP JUMPDEST SWAP5 SWAP2 SWAP4 POP DUP4 SWAP3 SWAP1 SWAP2 DUP6 SWAP2 PUSH2 0x14E3 JUMPI PUSH2 0x13AD DUP2 PUSH2 0x1EAA JUMP JUMPDEST SWAP6 DUP7 PUSH2 0x13C7 JUMPI JUMPDEST POP POP POP POP POP PUSH2 0x31D SWAP2 POP CODESIZE DUP1 DUP1 DUP1 PUSH2 0x1388 JUMP JUMPDEST SWAP1 SWAP2 SWAP3 SWAP4 SWAP5 POP DUP6 DUP5 GT ISZERO PUSH2 0x14DA JUMPI JUMPDEST PUSH1 0x40 SWAP3 DUP4 MLOAD SWAP6 PUSH1 0x1 SWAP4 DUP5 DUP10 ADD PUSH1 0x5 SHL DUP9 ADD SWAP9 DUP10 DUP8 MSTORE PUSH2 0x13F3 PUSH2 0x261C JUMP JUMPDEST SWAP1 DUP5 SWAP2 PUSH2 0x1409 PUSH2 0x1405 DUP11 DUP4 ADD MLOAD ISZERO ISZERO SWAP1 JUMP JUMPDEST ISZERO SWAP1 JUMP JUMPDEST PUSH2 0x14BB JUMPI JUMPDEST POP DUP5 SWAP6 SWAP2 SWAP6 SWAP9 DUP8 DUP1 JUMPDEST PUSH2 0x1437 JUMPI JUMPDEST POP POP POP POP POP POP POP POP POP POP PUSH2 0x31D SWAP3 POP DUP2 MSTORE CODESIZE DUP1 DUP1 DUP1 DUP1 PUSH2 0x13B4 JUMP JUMPDEST ISZERO PUSH2 0x149D JUMPI JUMPDEST DUP6 SWAP7 PUSH2 0x1448 DUP5 PUSH2 0x2673 JUMP JUMPDEST DUP1 DUP12 ADD MLOAD ISZERO PUSH2 0x1465 JUMPI POP POP DUP8 DUP7 SWAP4 JUMPDEST ADD SWAP7 DUP9 DUP14 DUP12 MSTORE SWAP8 SWAP4 SWAP8 PUSH2 0x1417 JUMP JUMPDEST SWAP4 SWAP1 SWAP4 MLOAD DUP1 PUSH2 0x1495 JUMPI JUMPDEST POP DUP5 DUP5 XOR DUP7 SHL ISZERO PUSH2 0x1482 JUMPI JUMPDEST DUP9 SWAP1 PUSH2 0x1457 JUMP JUMPDEST SWAP10 DUP9 ADD PUSH1 0x5 DUP2 SWAP1 SHL DUP13 ADD DUP12 SWAP1 MSTORE SWAP10 PUSH2 0x147B JUMP JUMPDEST SWAP4 POP CODESIZE PUSH2 0x146F JUMP JUMPDEST DUP1 DUP4 EQ DUP1 ISZERO PUSH2 0x14B2 JUMPI JUMPDEST ISZERO PUSH2 0x143D JUMPI DUP1 PUSH2 0x141C JUMP JUMPDEST POP DUP2 DUP11 EQ PUSH2 0x14A7 JUMP JUMPDEST MLOAD PUSH20 0xFFFFFFFFFFFFFFFFFFFFFFFFFFFFFFFFFFFFFFFF AND SWAP2 POP CODESIZE PUSH2 0x140E JUMP JUMPDEST SWAP5 POP DUP3 SWAP5 PUSH2 0x13D6 JUMP JUMPDEST PUSH2 0x25BC JUMP JUMPDEST CALLVALUE PUSH2 0x296 JUMPI PUSH1 0x40 PUSH1 0x3 NOT CALLDATASIZE ADD SLT PUSH2 0x296 JUMPI PUSH1 0x4 CALLDATALOAD PUSH1 0x0 MSTORE PUSH1 0xC PUSH1 0x20 MSTORE PUSH1 0x20 PUSH20 0xFFFFFFFFFFFFFFFFFFFFFFFFFFFFFFFFFFFFFFFF PUSH2 0x152B PUSH1 0x24 CALLDATALOAD PUSH1 0x40 PUSH1 0x0 KECCAK256 PUSH2 0x314D JUMP JUMPDEST SWAP2 SWAP1 SLOAD PUSH1 0x40 MLOAD SWAP3 PUSH1 0x3 SHL SHR AND DUP2 MSTORE RETURN JUMPDEST CALLVALUE PUSH2 0x296 JUMPI PUSH1 0x40 PUSH1 0x3 NOT CALLDATASIZE ADD SLT PUSH2 0x296 JUMPI PUSH1 0x20 PUSH1 0xFF PUSH2 0x158F PUSH2 0x155B PUSH2 0x46B JUMP JUMPDEST PUSH1 0x4 CALLDATALOAD PUSH1 0x0 MSTORE PUSH1 0xB DUP5 MSTORE PUSH1 0x40 PUSH1 0x0 KECCAK256 SWAP1 PUSH20 0xFFFFFFFFFFFFFFFFFFFFFFFFFFFFFFFFFFFFFFFF AND PUSH1 0x0 MSTORE PUSH1 0x20 MSTORE PUSH1 0x40 PUSH1 0x0 KECCAK256 SWAP1 JUMP JUMPDEST SLOAD AND PUSH1 0x40 MLOAD SWAP1 ISZERO ISZERO DUP2 MSTORE RETURN JUMPDEST CALLVALUE PUSH2 0x296 JUMPI PUSH2 0x15A9 CALLDATASIZE PUSH2 0x11F7 JUMP JUMPDEST PUSH2 0x15B1 PUSH2 0x2880 JUMP JUMPDEST DUP1 MLOAD PUSH8 0xFFFFFFFFFFFFFFFF DUP2 GT PUSH2 0xE9F JUMPI PUSH2 0x15D6 DUP2 PUSH2 0x15D1 PUSH1 0x10 SLOAD PUSH2 0x3307 JUMP JUMPDEST PUSH2 0x343C JUMP JUMPDEST PUSH1 0x20 DUP1 PUSH1 0x1F DUP4 GT PUSH1 0x1 EQ PUSH2 0x1613 JUMPI POP DUP2 SWAP3 PUSH1 0x0 SWAP3 PUSH2 0x1608 JUMPI JUMPDEST POP POP PUSH1 0x0 NOT DUP3 PUSH1 0x1 SHL SWAP3 PUSH1 0x3 SHL SHR NOT AND OR PUSH1 0x10 SSTORE PUSH1 0x0 DUP1 RETURN JUMPDEST ADD MLOAD SWAP1 POP CODESIZE DUP1 PUSH2 0x15EF JUMP JUMPDEST SWAP1 PUSH1 0x1F NOT DUP4 AND SWAP4 PUSH2 0x1646 PUSH1 0x10 PUSH1 0x0 MSTORE PUSH32 0x1B6847DC741A1B0CD08D278845F9D819D87B734759AFB55FE2DE5CB82A9AE672 SWAP1 JUMP JUMPDEST SWAP3 PUSH1 0x0 SWAP1 JUMPDEST DUP7 DUP3 LT PUSH2 0x1682 JUMPI POP POP DUP4 PUSH1 0x1 SWAP6 LT PUSH2 0x1669 JUMPI JUMPDEST POP POP POP DUP2 SHL ADD PUSH1 0x10 SSTORE STOP JUMPDEST ADD MLOAD PUSH1 0x0 NOT PUSH1 0xF8 DUP5 PUSH1 0x3 SHL AND SHR NOT AND SWAP1 SSTORE CODESIZE DUP1 DUP1 PUSH2 0x165E JUMP JUMPDEST DUP1 PUSH1 0x1 DUP6 SWAP7 DUP3 SWAP5 SWAP7 DUP7 ADD MLOAD DUP2 SSTORE ADD SWAP6 ADD SWAP4 ADD SWAP1 PUSH2 0x164B JUMP JUMPDEST CALLVALUE PUSH2 0x296 JUMPI PUSH1 0x0 DUP1 PUSH1 0x3 NOT CALLDATASIZE ADD SLT PUSH2 0x683 JUMPI PUSH1 0x40 MLOAD SWAP1 DUP1 PUSH1 0xF SLOAD PUSH2 0x16BD DUP2 PUSH2 0x3307 JUMP JUMPDEST DUP1 DUP6 MSTORE SWAP2 PUSH1 0x1 SWAP2 DUP1 DUP4 AND SWAP1 DUP2 ISZERO PUSH2 0x63B JUMPI POP PUSH1 0x1 EQ PUSH2 0x16E6 JUMPI PUSH2 0x31D DUP6 PUSH2 0x5D4 DUP2 DUP8 SUB DUP3 PUSH2 0xEC0 JUMP JUMPDEST SWAP3 POP PUSH1 0xF DUP4 MSTORE PUSH32 0x8D1108E10BCB7C27DDDFC02ED9D693A074039D026CF4EA4240B40F7D581AC802 JUMPDEST DUP3 DUP5 LT PUSH2 0x1729 JUMPI POP POP POP DUP2 ADD PUSH1 0x20 ADD PUSH2 0x5D4 DUP3 PUSH2 0x31D PUSH2 0x5C4 JUMP JUMPDEST DUP1 SLOAD PUSH1 0x20 DUP6 DUP8 ADD DUP2 ADD SWAP2 SWAP1 SWAP2 MSTORE SWAP1 SWAP4 ADD SWAP3 DUP2 ADD PUSH2 0x170E JUMP JUMPDEST CALLVALUE PUSH2 0x296 JUMPI PUSH1 0xE0 PUSH1 0x3 NOT CALLDATASIZE ADD SLT PUSH2 0x296 JUMPI PUSH2 0x175A PUSH2 0x448 JUMP JUMPDEST PUSH8 0xFFFFFFFFFFFFFFFF SWAP1 PUSH1 0x24 CALLDATALOAD DUP3 DUP2 GT PUSH2 0x296 JUMPI PUSH2 0x177C SWAP1 CALLDATASIZE SWAP1 PUSH1 0x4 ADD PUSH2 0xF45 JUMP JUMPDEST PUSH1 0x44 CALLDATALOAD DUP4 DUP2 GT PUSH2 0x296 JUMPI PUSH2 0x1794 SWAP1 CALLDATASIZE SWAP1 PUSH1 0x4 ADD PUSH2 0xF45 JUMP JUMPDEST PUSH1 0x64 CALLDATALOAD DUP5 DUP2 GT PUSH2 0x296 JUMPI PUSH2 0x17AC SWAP1 CALLDATASIZE SWAP1 PUSH1 0x4 ADD PUSH2 0xF45 JUMP JUMPDEST PUSH1 0x84 CALLDATALOAD SWAP5 DUP6 GT PUSH2 0x296 JUMPI PUSH2 0x17C7 PUSH2 0x529 SWAP6 CALLDATASIZE SWAP1 PUSH1 0x4 ADD PUSH2 0xF45 JUMP JUMPDEST SWAP2 PUSH2 0x17D0 PUSH2 0x48E JUMP JUMPDEST SWAP4 PUSH2 0x17D9 PUSH2 0x4CC JUMP JUMPDEST SWAP6 PUSH2 0x39E3 JUMP JUMPDEST CALLVALUE PUSH2 0x296 JUMPI PUSH1 0x60 DUP1 PUSH1 0x3 NOT CALLDATASIZE ADD SLT PUSH2 0x296 JUMPI PUSH2 0x17F9 PUSH2 0x448 JUMP JUMPDEST PUSH1 0x24 CALLDATALOAD SWAP2 SWAP1 PUSH1 0x44 CALLDATALOAD DUP4 DUP4 DUP3 DUP1 DUP4 LT ISZERO PUSH2 0x14E3 JUMPI PUSH1 0x0 SLOAD DUP1 SWAP2 LT ISZERO PUSH2 0x1967 JUMPI JUMPDEST POP PUSH2 0x1822 DUP5 PUSH2 0x1EAA JUMP JUMPDEST SWAP2 DUP4 DUP8 LT ISZERO PUSH2 0x195E JUMPI JUMPDEST DUP3 PUSH2 0x1840 JUMPI JUMPDEST PUSH1 0x40 MLOAD DUP1 PUSH2 0x31D DUP9 DUP3 PUSH2 0x1321 JUMP JUMPDEST SWAP1 SWAP2 SWAP3 SWAP4 SWAP5 POP DUP6 DUP5 SUB DUP4 DUP2 GT ISZERO PUSH2 0x1956 JUMPI JUMPDEST POP PUSH1 0x40 SWAP3 DUP4 MLOAD SWAP6 PUSH1 0x1 SWAP4 PUSH1 0x5 SWAP2 PUSH2 0x1872 DUP7 DUP6 ADD DUP5 SHL DUP11 ADD SWAP11 DUP12 DUP10 MSTORE PUSH2 0x265B JUMP JUMPDEST SWAP4 PUSH1 0x0 SWAP5 PUSH2 0x1885 PUSH2 0x1405 DUP11 DUP4 ADD MLOAD ISZERO ISZERO SWAP1 JUMP JUMPDEST PUSH2 0x1937 JUMPI JUMPDEST POP PUSH1 0x0 SWAP6 SWAP5 SWAP6 SWAP9 DUP8 DUP1 JUMPDEST PUSH2 0x18B4 JUMPI JUMPDEST POP POP POP POP POP POP POP POP POP POP PUSH2 0x31D SWAP3 POP DUP2 MSTORE CODESIZE DUP1 DUP1 DUP1 DUP1 PUSH2 0x1832 JUMP JUMPDEST ISZERO PUSH2 0x1919 JUMPI JUMPDEST PUSH1 0x0 SWAP7 PUSH2 0x18C6 DUP8 PUSH2 0x2673 JUMP JUMPDEST DUP1 DUP12 ADD MLOAD ISZERO PUSH2 0x18E3 JUMPI POP POP DUP8 DUP8 SWAP7 JUMPDEST ADD SWAP7 DUP9 DUP14 DUP12 MSTORE SWAP8 SWAP7 SWAP8 PUSH2 0x1894 JUMP JUMPDEST SWAP7 SWAP1 SWAP7 MLOAD DUP1 PUSH2 0x1911 JUMPI JUMPDEST POP DUP4 DUP8 XOR DUP6 SHL ISZERO PUSH2 0x1900 JUMPI JUMPDEST DUP9 SWAP1 PUSH2 0x18D5 JUMP JUMPDEST SWAP10 DUP9 ADD DUP1 DUP7 SHL DUP13 ADD DUP12 SWAP1 MSTORE SWAP10 PUSH2 0x18F9 JUMP JUMPDEST SWAP7 POP CODESIZE PUSH2 0x18ED JUMP JUMPDEST DUP1 DUP7 EQ DUP1 ISZERO PUSH2 0x192E JUMPI JUMPDEST ISZERO PUSH2 0x18BA JUMPI DUP1 PUSH2 0x1899 JUMP JUMPDEST POP DUP2 DUP11 EQ PUSH2 0x1923 JUMP JUMPDEST MLOAD PUSH20 0xFFFFFFFFFFFFFFFFFFFFFFFFFFFFFFFFFFFFFFFF AND SWAP5 POP CODESIZE PUSH2 0x188A JUMP JUMPDEST SWAP3 POP CODESIZE PUSH2 0x1852 JUMP JUMPDEST PUSH1 0x0 SWAP3 POP PUSH2 0x182C JUMP JUMPDEST SWAP3 POP CODESIZE PUSH2 0x1818 JUMP JUMPDEST CALLVALUE PUSH2 0x296 JUMPI PUSH1 0x0 PUSH1 0x3 NOT CALLDATASIZE ADD SLT PUSH2 0x296 JUMPI PUSH1 0x20 PUSH1 0x40 MLOAD PUSH1 0x0 DUP2 MSTORE RETURN JUMPDEST CALLVALUE PUSH2 0x296 JUMPI PUSH1 0x40 PUSH1 0x3 NOT CALLDATASIZE ADD SLT PUSH2 0x296 JUMPI PUSH2 0x19A4 PUSH2 0x448 JUMP JUMPDEST PUSH1 0x24 CALLDATALOAD SWAP1 DUP2 ISZERO ISZERO DUP1 SWAP3 SUB PUSH2 0x296 JUMPI PUSH20 0xFFFFFFFFFFFFFFFFFFFFFFFFFFFFFFFFFFFFFFFF SWAP1 CALLER PUSH1 0x0 MSTORE PUSH1 0x7 PUSH1 0x20 MSTORE PUSH2 0x19FF DUP2 PUSH1 0x40 PUSH1 0x0 KECCAK256 SWAP1 PUSH20 0xFFFFFFFFFFFFFFFFFFFFFFFFFFFFFFFFFFFFFFFF AND PUSH1 0x0 MSTORE PUSH1 0x20 MSTORE PUSH1 0x40 PUSH1 0x0 KECCAK256 SWAP1 JUMP JUMPDEST PUSH32 0xFFFFFFFFFFFFFFFFFFFFFFFFFFFFFFFFFFFFFFFFFFFFFFFFFFFFFFFFFFFFFF00 DUP2 SLOAD AND PUSH1 0xFF DUP6 AND OR SWAP1 SSTORE PUSH1 0x40 MLOAD SWAP3 DUP4 MSTORE AND SWAP1 PUSH32 0x17307EAB39AB6107E8899845AD3D59BD9653F200F220920489CA2B5937696C31 PUSH1 0x20 CALLER SWAP3 LOG3 STOP JUMPDEST PUSH1 0x80 PUSH1 0x3 NOT CALLDATASIZE ADD SLT PUSH2 0x296 JUMPI PUSH2 0x1A6E PUSH2 0x448 JUMP JUMPDEST PUSH2 0x1A76 PUSH2 0x46B JUMP JUMPDEST PUSH1 0x64 CALLDATALOAD SWAP2 PUSH8 0xFFFFFFFFFFFFFFFF DUP4 GT PUSH2 0x296 JUMPI CALLDATASIZE PUSH1 0x23 DUP5 ADD SLT ISZERO PUSH2 0x296 JUMPI PUSH2 0x1AAB PUSH2 0x529 SWAP4 CALLDATASIZE SWAP1 PUSH1 0x24 DUP2 PUSH1 0x4 ADD CALLDATALOAD SWAP2 ADD PUSH2 0xF0E JUMP JUMPDEST SWAP2 PUSH1 0x44 CALLDATALOAD SWAP2 PUSH2 0x22DF JUMP JUMPDEST CALLVALUE PUSH2 0x296 JUMPI PUSH1 0x20 PUSH1 0x3 NOT CALLDATASIZE ADD SLT PUSH2 0x296 JUMPI PUSH1 0x80 PUSH2 0x1AD3 PUSH1 0x4 CALLDATALOAD PUSH2 0x265B JUMP JUMPDEST PUSH2 0x1B25 PUSH1 0x40 MLOAD DUP1 SWAP3 PUSH3 0xFFFFFF PUSH1 0x60 DUP1 SWAP3 PUSH20 0xFFFFFFFFFFFFFFFFFFFFFFFFFFFFFFFFFFFFFFFF DUP2 MLOAD AND DUP6 MSTORE PUSH8 0xFFFFFFFFFFFFFFFF PUSH1 0x20 DUP3 ADD MLOAD AND PUSH1 0x20 DUP7 ADD MSTORE PUSH1 0x40 DUP2 ADD MLOAD ISZERO ISZERO PUSH1 0x40 DUP7 ADD MSTORE ADD MLOAD AND SWAP2 ADD MSTORE JUMP JUMPDEST RETURN JUMPDEST CALLVALUE PUSH2 0x296 JUMPI PUSH1 0x20 DUP1 PUSH1 0x3 NOT CALLDATASIZE ADD SLT PUSH2 0x296 JUMPI PUSH1 0x4 CALLDATALOAD PUSH2 0x1B45 DUP2 PUSH2 0x206F JUMP JUMPDEST ISZERO PUSH2 0x1C77 JUMPI PUSH1 0x40 MLOAD SWAP1 DUP3 DUP3 PUSH1 0x0 PUSH1 0xD SLOAD PUSH2 0x1B5E DUP2 PUSH2 0x3307 JUMP JUMPDEST DUP1 DUP5 MSTORE SWAP1 PUSH1 0x1 SWAP1 DUP2 DUP2 AND SWAP1 DUP2 ISZERO PUSH2 0x1C37 JUMPI POP PUSH1 0x1 EQ PUSH2 0x1BD8 JUMPI JUMPDEST POP POP PUSH2 0x1B86 SWAP3 POP SUB DUP4 PUSH2 0xEC0 JUMP JUMPDEST DUP2 MLOAD ISZERO PUSH2 0x1BC5 JUMPI PUSH2 0x31D SWAP3 PUSH2 0x1BB7 PUSH2 0x1BA0 PUSH2 0x5D4 SWAP4 PUSH2 0x2477 JUMP JUMPDEST PUSH2 0x1BB1 PUSH1 0x40 MLOAD SWAP6 DUP7 SWAP5 DUP6 ADD SWAP1 PUSH2 0x1F1E JUMP JUMPDEST SWAP1 PUSH2 0x1F1E JUMP JUMPDEST SUB PUSH1 0x1F NOT DUP2 ADD DUP4 MSTORE DUP3 PUSH2 0xEC0 JUMP JUMPDEST POP POP POP PUSH2 0x31D PUSH2 0x1BD3 PUSH2 0x1F0B JUMP JUMPDEST PUSH2 0x5D4 JUMP JUMPDEST SWAP1 SWAP4 SWAP2 POP PUSH1 0xD PUSH1 0x0 MSTORE PUSH32 0xD7B6990105719101DABEB77144F2A3385C8033ACD3AF97E9423A695E81AD1EB5 SWAP4 PUSH1 0x0 SWAP2 JUMPDEST DUP2 DUP4 LT PUSH2 0x1C1F JUMPI POP DUP8 SWAP5 POP POP DUP3 ADD ADD PUSH2 0x1B86 CODESIZE PUSH2 0x1B78 JUMP JUMPDEST DUP6 SLOAD DUP9 DUP5 ADD DUP6 ADD MSTORE SWAP5 DUP6 ADD SWAP5 DUP8 SWAP5 POP SWAP2 DUP4 ADD SWAP2 PUSH2 0x1C07 JUMP JUMPDEST SWAP1 POP PUSH2 0x1B86 SWAP6 SWAP4 POP PUSH32 0xFFFFFFFFFFFFFFFFFFFFFFFFFFFFFFFFFFFFFFFFFFFFFFFFFFFFFFFFFFFFFF00 SWAP2 POP AND DUP3 DUP5 ADD MSTORE ISZERO ISZERO PUSH1 0x5 SHL DUP3 ADD ADD DUP6 SWAP3 CODESIZE PUSH2 0x1B78 JUMP JUMPDEST PUSH32 0xA14C4B5000000000000000000000000000000000000000000000000000000000 PUSH1 0x0 MSTORE PUSH1 0x4 PUSH1 0x0 REVERT JUMPDEST CALLVALUE PUSH2 0x296 JUMPI PUSH1 0x20 PUSH1 0x3 NOT CALLDATASIZE ADD SLT PUSH2 0x296 JUMPI PUSH1 0x4 CALLDATALOAD PUSH1 0x0 MSTORE PUSH1 0xC PUSH1 0x20 MSTORE PUSH1 0x20 PUSH1 0x40 PUSH1 0x0 KECCAK256 SLOAD PUSH1 0x40 MLOAD SWAP1 DUP2 MSTORE RETURN JUMPDEST CALLVALUE PUSH2 0x296 JUMPI PUSH1 0x40 PUSH1 0x3 NOT CALLDATASIZE ADD SLT PUSH2 0x296 JUMPI PUSH2 0x529 PUSH1 0x4 CALLDATALOAD PUSH2 0x1CEC PUSH2 0x46B JUMP JUMPDEST SWAP1 DUP1 PUSH1 0x0 MSTORE PUSH1 0xB PUSH1 0x20 MSTORE PUSH2 0x1D07 PUSH1 0x1 PUSH1 0x40 PUSH1 0x0 KECCAK256 ADD SLOAD PUSH2 0x28D5 JUMP JUMPDEST PUSH2 0x2CB1 JUMP JUMPDEST CALLVALUE PUSH2 0x296 JUMPI PUSH1 0x20 DUP1 PUSH1 0x3 NOT CALLDATASIZE ADD SLT PUSH2 0x296 JUMPI PUSH8 0xFFFFFFFFFFFFFFFF PUSH1 0x4 CALLDATALOAD DUP2 DUP2 GT PUSH2 0x296 JUMPI CALLDATASIZE PUSH1 0x23 DUP3 ADD SLT ISZERO PUSH2 0x296 JUMPI DUP1 PUSH1 0x4 ADD CALLDATALOAD SWAP2 DUP3 GT PUSH2 0xE9F JUMPI DUP2 PUSH1 0x5 SHL PUSH1 0x40 MLOAD SWAP3 PUSH2 0x1D5C DUP6 DUP4 ADD DUP6 PUSH2 0xEC0 JUMP JUMPDEST DUP4 MSTORE PUSH1 0x24 DUP5 DUP5 ADD SWAP2 DUP4 ADD ADD SWAP2 CALLDATASIZE DUP4 GT PUSH2 0x296 JUMPI PUSH1 0x24 ADD SWAP1 JUMPDEST DUP3 DUP3 LT PUSH2 0x1D84 JUMPI PUSH2 0x529 DUP5 PUSH2 0x39A5 JUMP JUMPDEST DUP2 CALLDATALOAD DUP2 MSTORE SWAP1 DUP5 ADD SWAP1 DUP5 ADD PUSH2 0x1D74 JUMP JUMPDEST CALLVALUE PUSH2 0x296 JUMPI PUSH1 0x0 DUP1 PUSH1 0x3 NOT CALLDATASIZE ADD SLT PUSH2 0x683 JUMPI PUSH1 0x40 MLOAD SWAP1 DUP1 PUSH1 0x10 SLOAD PUSH2 0x1DB6 DUP2 PUSH2 0x3307 JUMP JUMPDEST DUP1 DUP6 MSTORE SWAP2 PUSH1 0x1 SWAP2 DUP1 DUP4 AND SWAP1 DUP2 ISZERO PUSH2 0x63B JUMPI POP PUSH1 0x1 EQ PUSH2 0x1DDF JUMPI PUSH2 0x31D DUP6 PUSH2 0x5D4 DUP2 DUP8 SUB DUP3 PUSH2 0xEC0 JUMP JUMPDEST SWAP3 POP PUSH1 0x10 DUP4 MSTORE PUSH32 0x1B6847DC741A1B0CD08D278845F9D819D87B734759AFB55FE2DE5CB82A9AE672 JUMPDEST DUP3 DUP5 LT PUSH2 0x1E22 JUMPI POP POP POP DUP2 ADD PUSH1 0x20 ADD PUSH2 0x5D4 DUP3 PUSH2 0x31D PUSH2 0x5C4 JUMP JUMPDEST DUP1 SLOAD PUSH1 0x20 DUP6 DUP8 ADD DUP2 ADD SWAP2 SWAP1 SWAP2 MSTORE SWAP1 SWAP4 ADD SWAP3 DUP2 ADD PUSH2 0x1E07 JUMP JUMPDEST CALLVALUE PUSH2 0x296 JUMPI PUSH1 0x40 PUSH1 0x3 NOT CALLDATASIZE ADD SLT PUSH2 0x296 JUMPI PUSH1 0x20 PUSH1 0xFF PUSH2 0x158F PUSH2 0x1E5A PUSH2 0x448 JUMP JUMPDEST PUSH20 0xFFFFFFFFFFFFFFFFFFFFFFFFFFFFFFFFFFFFFFFF PUSH2 0x1E77 PUSH2 0x46B JUMP JUMPDEST SWAP2 AND PUSH1 0x0 MSTORE PUSH1 0x7 DUP5 MSTORE PUSH1 0x40 PUSH1 0x0 KECCAK256 SWAP1 PUSH20 0xFFFFFFFFFFFFFFFFFFFFFFFFFFFFFFFFFFFFFFFF AND PUSH1 0x0 MSTORE PUSH1 0x20 MSTORE PUSH1 0x40 PUSH1 0x0 KECCAK256 SWAP1 JUMP JUMPDEST PUSH20 0xFFFFFFFFFFFFFFFFFFFFFFFFFFFFFFFFFFFFFFFF AND DUP1 ISZERO PUSH2 0x1EE1 JUMPI PUSH1 0x0 MSTORE PUSH1 0x5 PUSH1 0x20 MSTORE PUSH8 0xFFFFFFFFFFFFFFFF PUSH1 0x40 PUSH1 0x0 KECCAK256 SLOAD AND SWAP1 JUMP JUMPDEST PUSH32 0x8F4EB60400000000000000000000000000000000000000000000000000000000 PUSH1 0x0 MSTORE PUSH1 0x4 PUSH1 0x0 REVERT JUMPDEST PUSH1 0x40 MLOAD SWAP1 PUSH2 0x1F18 DUP3 PUSH2 0xEA4 JUMP JUMPDEST PUSH1 0x0 DUP3 MSTORE JUMP JUMPDEST SWAP1 PUSH2 0x1F31 PUSH1 0x20 SWAP3 DUP3 DUP2 MLOAD SWAP5 DUP6 SWAP3 ADD PUSH2 0x52B JUMP JUMPDEST ADD SWAP1 JUMP JUMPDEST PUSH2 0x1F49 DUP2 PUSH1 0x0 MSTORE PUSH1 0x4 PUSH1 0x20 MSTORE PUSH1 0x40 PUSH1 0x0 KECCAK256 SWAP1 JUMP JUMPDEST SLOAD SWAP1 DUP2 ISZERO PUSH2 0x1F79 JUMPI POP PUSH29 0x100000000000000000000000000000000000000000000000000000000 DUP2 AND PUSH2 0x2514 JUMPI SWAP1 JUMP JUMPDEST SWAP1 POP PUSH1 0x0 SWAP1 DUP2 SLOAD DUP2 LT ISZERO PUSH2 0x2006 JUMPI PUSH1 0x0 NOT SWAP1 JUMPDEST ADD PUSH2 0x1FA1 DUP2 PUSH1 0x0 MSTORE PUSH1 0x4 PUSH1 0x20 MSTORE PUSH1 0x40 PUSH1 0x0 KECCAK256 SWAP1 JUMP JUMPDEST SLOAD SWAP1 DUP2 ISZERO PUSH2 0x1FFC JUMPI POP PUSH29 0x100000000000000000000000000000000000000000000000000000000 DUP2 AND ISZERO PUSH2 0x1FF7 JUMPI PUSH1 0x4 DUP3 PUSH32 0xDF2D9B4200000000000000000000000000000000000000000000000000000000 DUP2 MSTORE REVERT JUMPDEST SWAP1 POP SWAP1 JUMP JUMPDEST PUSH1 0x0 NOT SWAP2 POP PUSH2 0x1F8C JUMP JUMPDEST PUSH1 0x4 DUP3 PUSH32 0xDF2D9B4200000000000000000000000000000000000000000000000000000000 DUP2 MSTORE REVERT JUMPDEST PUSH32 0x4E487B7100000000000000000000000000000000000000000000000000000000 PUSH1 0x0 MSTORE PUSH1 0x11 PUSH1 0x4 MSTORE PUSH1 0x24 PUSH1 0x0 REVERT JUMPDEST DUP1 ISZERO PUSH2 0x206A JUMPI PUSH1 0x0 NOT ADD SWAP1 JUMP JUMPDEST PUSH2 0x202E JUMP JUMPDEST SWAP1 PUSH1 0x0 SWAP2 PUSH1 0x0 DUP1 SLOAD DUP3 LT PUSH2 0x2081 JUMPI POP POP JUMP JUMPDEST SWAP2 SWAP3 POP JUMPDEST DUP1 DUP3 MSTORE PUSH1 0x4 PUSH1 0x20 MSTORE PUSH1 0x40 DUP3 KECCAK256 SLOAD DUP1 PUSH2 0x20AA JUMPI POP PUSH2 0x20A3 PUSH1 0x40 SWAP2 PUSH2 0x205D JUMP JUMPDEST SWAP1 POP PUSH2 0x2085 JUMP JUMPDEST PUSH29 0x100000000000000000000000000000000000000000000000000000000 AND ISZERO SWAP3 SWAP2 POP POP JUMP JUMPDEST SWAP2 SWAP1 SWAP2 PUSH2 0x20DC DUP3 PUSH2 0x1F35 JUMP JUMPDEST SWAP1 PUSH20 0xFFFFFFFFFFFFFFFFFFFFFFFFFFFFFFFFFFFFFFFF DUP1 SWAP2 AND SWAP4 DUP5 DUP3 DUP5 AND SUB PUSH2 0x22DA JUMPI PUSH1 0x0 DUP5 DUP2 MSTORE PUSH1 0x6 PUSH1 0x20 MSTORE PUSH1 0x40 SWAP1 KECCAK256 DUP1 SLOAD PUSH2 0x2135 PUSH20 0xFFFFFFFFFFFFFFFFFFFFFFFFFFFFFFFFFFFFFFFF DUP9 AND CALLER SWAP1 DUP2 EQ SWAP1 DUP4 EQ OR ISZERO SWAP1 JUMP JUMPDEST PUSH2 0x2270 JUMPI JUMPDEST PUSH2 0x2266 JUMPI JUMPDEST POP PUSH2 0x216A DUP6 PUSH20 0xFFFFFFFFFFFFFFFFFFFFFFFFFFFFFFFFFFFFFFFF AND PUSH1 0x0 MSTORE PUSH1 0x5 PUSH1 0x20 MSTORE PUSH1 0x40 PUSH1 0x0 KECCAK256 SWAP1 JUMP JUMPDEST DUP1 SLOAD PUSH1 0x0 NOT ADD SWAP1 SSTORE PUSH2 0x219C DUP2 PUSH20 0xFFFFFFFFFFFFFFFFFFFFFFFFFFFFFFFFFFFFFFFF AND PUSH1 0x0 MSTORE PUSH1 0x5 PUSH1 0x20 MSTORE PUSH1 0x40 PUSH1 0x0 KECCAK256 SWAP1 JUMP JUMPDEST DUP1 SLOAD PUSH1 0x1 ADD SWAP1 SSTORE AND SWAP3 DUP4 SWAP2 PUSH29 0x200000000000000000000000000000000000000000000000000000000 DUP1 TIMESTAMP PUSH1 0xA0 SHL DUP6 OR OR PUSH2 0x21E1 DUP7 PUSH1 0x0 MSTORE PUSH1 0x4 PUSH1 0x20 MSTORE PUSH1 0x40 PUSH1 0x0 KECCAK256 SWAP1 JUMP JUMPDEST SSTORE DUP2 AND ISZERO PUSH2 0x221C JUMPI JUMPDEST POP PUSH32 0xDDF252AD1BE2C89B69C2B068FC378DAA952BA7F163C4A11628F55A4DF523B3EF PUSH1 0x0 DUP1 LOG4 ISZERO PUSH2 0x2217 JUMPI JUMP JUMPDEST PUSH2 0x2592 JUMP JUMPDEST PUSH1 0x1 DUP5 ADD PUSH2 0x2234 DUP2 PUSH1 0x0 MSTORE PUSH1 0x4 PUSH1 0x20 MSTORE PUSH1 0x40 PUSH1 0x0 KECCAK256 SWAP1 JUMP JUMPDEST SLOAD ISZERO PUSH2 0x2241 JUMPI JUMPDEST POP PUSH2 0x21EA JUMP JUMPDEST PUSH1 0x0 SLOAD DUP2 EQ PUSH2 0x223B JUMPI PUSH2 0x225E SWAP1 PUSH1 0x0 MSTORE PUSH1 0x4 PUSH1 0x20 MSTORE PUSH1 0x40 PUSH1 0x0 KECCAK256 SWAP1 JUMP JUMPDEST SSTORE CODESIZE DUP1 PUSH2 0x223B JUMP JUMPDEST PUSH1 0x0 SWAP1 SSTORE CODESIZE PUSH2 0x213F JUMP JUMPDEST PUSH2 0x22D0 PUSH2 0x1405 PUSH2 0x22C9 CALLER PUSH2 0x22A4 DUP12 PUSH20 0xFFFFFFFFFFFFFFFFFFFFFFFFFFFFFFFFFFFFFFFF AND PUSH1 0x0 MSTORE PUSH1 0x7 PUSH1 0x20 MSTORE PUSH1 0x40 PUSH1 0x0 KECCAK256 SWAP1 JUMP JUMPDEST SWAP1 PUSH20 0xFFFFFFFFFFFFFFFFFFFFFFFFFFFFFFFFFFFFFFFF AND PUSH1 0x0 MSTORE PUSH1 0x20 MSTORE PUSH1 0x40 PUSH1 0x0 KECCAK256 SWAP1 JUMP JUMPDEST SLOAD PUSH1 0xFF AND SWAP1 JUMP JUMPDEST ISZERO PUSH2 0x213A JUMPI PUSH2 0x2568 JUMP JUMPDEST PUSH2 0x253E JUMP JUMPDEST SWAP3 SWAP2 SWAP1 PUSH2 0x22ED DUP3 DUP3 DUP7 PUSH2 0x20D0 JUMP JUMPDEST DUP1 EXTCODESIZE PUSH2 0x22FA JUMPI JUMPDEST POP POP POP POP JUMP JUMPDEST PUSH2 0x2303 SWAP4 PUSH2 0x2380 JUMP JUMPDEST ISZERO PUSH2 0x2311 JUMPI CODESIZE DUP1 DUP1 DUP1 PUSH2 0x22F4 JUMP JUMPDEST PUSH32 0xD1A57ED600000000000000000000000000000000000000000000000000000000 PUSH1 0x0 MSTORE PUSH1 0x4 PUSH1 0x0 REVERT JUMPDEST SWAP1 DUP2 PUSH1 0x20 SWAP2 SUB SLT PUSH2 0x296 JUMPI MLOAD PUSH2 0x584 DUP2 PUSH2 0x26C JUMP JUMPDEST RETURNDATASIZE ISZERO PUSH2 0x237B JUMPI RETURNDATASIZE SWAP1 PUSH2 0x2361 DUP3 PUSH2 0xEF2 JUMP JUMPDEST SWAP2 PUSH2 0x236F PUSH1 0x40 MLOAD SWAP4 DUP5 PUSH2 0xEC0 JUMP JUMPDEST DUP3 MSTORE RETURNDATASIZE PUSH1 0x0 PUSH1 0x20 DUP5 ADD RETURNDATACOPY JUMP JUMPDEST PUSH1 0x60 SWAP1 JUMP JUMPDEST SWAP2 SWAP3 PUSH1 0x20 SWAP2 PUSH2 0x23F2 SWAP2 PUSH1 0x0 PUSH1 0x40 MLOAD SWAP6 DUP7 DUP1 SWAP6 DUP2 SWAP5 PUSH32 0x150B7A0200000000000000000000000000000000000000000000000000000000 SWAP11 DUP12 DUP5 MSTORE CALLER PUSH1 0x4 DUP6 ADD MSTORE PUSH20 0xFFFFFFFFFFFFFFFFFFFFFFFFFFFFFFFFFFFFFFFF DUP1 SWAP6 AND PUSH1 0x24 DUP6 ADD MSTORE PUSH1 0x44 DUP5 ADD MSTORE PUSH1 0x80 PUSH1 0x64 DUP5 ADD MSTORE PUSH1 0x84 DUP4 ADD SWAP1 PUSH2 0x54E JUMP JUMPDEST SUB SWAP4 AND GAS CALL PUSH1 0x0 SWAP2 DUP2 PUSH2 0x2447 JUMPI JUMPDEST POP PUSH2 0x2421 JUMPI PUSH2 0x240D PUSH2 0x2350 JUMP JUMPDEST DUP1 MLOAD ISZERO PUSH2 0x241C JUMPI DUP1 MLOAD SWAP1 PUSH1 0x20 ADD REVERT JUMPDEST PUSH2 0x2311 JUMP JUMPDEST PUSH32 0xFFFFFFFF00000000000000000000000000000000000000000000000000000000 AND EQ SWAP1 JUMP JUMPDEST PUSH2 0x2469 SWAP2 SWAP3 POP PUSH1 0x20 RETURNDATASIZE DUP2 GT PUSH2 0x2470 JUMPI JUMPDEST PUSH2 0x2461 DUP2 DUP4 PUSH2 0xEC0 JUMP JUMPDEST DUP2 ADD SWAP1 PUSH2 0x233B JUMP JUMPDEST SWAP1 CODESIZE PUSH2 0x2400 JUMP JUMPDEST POP RETURNDATASIZE PUSH2 0x2457 JUMP JUMPDEST SWAP1 PUSH1 0x40 MLOAD PUSH1 0xA0 DUP2 ADD PUSH1 0x40 MSTORE PUSH1 0x0 NOT PUSH1 0x80 DUP3 ADD SWAP4 PUSH1 0x0 DUP6 MSTORE SWAP4 JUMPDEST ADD SWAP3 PUSH1 0xA SWAP1 DUP2 DUP2 MOD PUSH1 0x30 ADD DUP6 MSTORE8 DIV SWAP3 DUP4 ISZERO PUSH2 0x24AE JUMPI PUSH1 0x0 NOT SWAP1 PUSH2 0x2490 JUMP JUMPDEST SWAP3 POP PUSH1 0x80 DUP4 PUSH1 0x1F NOT SWAP3 SUB ADD SWAP3 ADD SWAP2 DUP3 MSTORE JUMP JUMPDEST PUSH32 0xB562E8DD00000000000000000000000000000000000000000000000000000000 PUSH1 0x0 MSTORE PUSH1 0x4 PUSH1 0x0 REVERT JUMPDEST PUSH32 0x2E07630000000000000000000000000000000000000000000000000000000000 PUSH1 0x0 MSTORE PUSH1 0x4 PUSH1 0x0 REVERT JUMPDEST PUSH32 0xDF2D9B4200000000000000000000000000000000000000000000000000000000 PUSH1 0x0 MSTORE PUSH1 0x4 PUSH1 0x0 REVERT JUMPDEST PUSH32 0xA114810000000000000000000000000000000000000000000000000000000000 PUSH1 0x0 MSTORE PUSH1 0x4 PUSH1 0x0 REVERT JUMPDEST PUSH32 0x59C896BE00000000000000000000000000000000000000000000000000000000 PUSH1 0x0 MSTORE PUSH1 0x4 PUSH1 0x0 REVERT JUMPDEST PUSH32 0xEA553B3400000000000000000000000000000000000000000000000000000000 PUSH1 0x0 MSTORE PUSH1 0x4 PUSH1 0x0 REVERT JUMPDEST PUSH32 0x32C1995A00000000000000000000000000000000000000000000000000000000 PUSH1 0x0 MSTORE PUSH1 0x4 PUSH1 0x0 REVERT JUMPDEST PUSH1 0x40 MLOAD SWAP1 PUSH1 0x80 DUP3 ADD DUP3 DUP2 LT PUSH8 0xFFFFFFFFFFFFFFFF DUP3 GT OR PUSH2 0xE9F JUMPI PUSH1 0x40 MSTORE PUSH1 0x0 PUSH1 0x60 DUP4 DUP3 DUP2 MSTORE DUP3 PUSH1 0x20 DUP3 ADD MSTORE DUP3 PUSH1 0x40 DUP3 ADD MSTORE ADD MSTORE JUMP JUMPDEST PUSH1 0x0 SWAP1 DUP2 PUSH2 0x2628 PUSH2 0x25E6 JUMP JUMPDEST SWAP3 DUP1 SLOAD PUSH2 0x2633 JUMPI POP POP JUMP JUMPDEST SWAP2 SWAP3 POP JUMPDEST DUP1 DUP3 MSTORE PUSH1 0x4 PUSH1 0x20 MSTORE PUSH1 0x40 DUP3 KECCAK256 SLOAD PUSH2 0x2651 JUMPI PUSH1 0x0 NOT ADD PUSH2 0x2637 JUMP JUMPDEST PUSH2 0x584 SWAP2 POP PUSH2 0x2673 JUMP JUMPDEST SWAP1 PUSH2 0x2664 PUSH2 0x25E6 JUMP JUMPDEST SWAP2 PUSH1 0x0 DUP1 SLOAD DUP3 LT PUSH2 0x2633 JUMPI POP POP JUMP JUMPDEST PUSH2 0x267B PUSH2 0x25E6 JUMP JUMPDEST POP PUSH1 0x0 MSTORE PUSH1 0x4 PUSH1 0x20 MSTORE PUSH1 0x40 PUSH1 0x0 KECCAK256 SLOAD PUSH2 0x2692 PUSH2 0x25E6 JUMP JUMPDEST SWAP1 PUSH20 0xFFFFFFFFFFFFFFFFFFFFFFFFFFFFFFFFFFFFFFFF DUP2 AND DUP3 MSTORE PUSH8 0xFFFFFFFFFFFFFFFF DUP2 PUSH1 0xA0 SHR AND PUSH1 0x20 DUP4 ADD MSTORE PUSH29 0x100000000000000000000000000000000000000000000000000000000 DUP2 AND ISZERO ISZERO PUSH1 0x40 DUP4 ADD MSTORE PUSH1 0xE8 SHR PUSH1 0x60 DUP3 ADD MSTORE SWAP1 JUMP JUMPDEST PUSH1 0x40 MLOAD SWAP2 DUP1 DUP4 MSTORE PUSH1 0x5 SHL PUSH1 0x20 DUP2 DUP5 ADD ADD PUSH1 0x40 MSTORE JUMPDEST DUP1 DUP2 DUP1 ISZERO PUSH2 0x272A JUMPI PUSH2 0x2721 SWAP1 PUSH1 0x1F NOT DUP1 SWAP2 ADD SWAP4 DUP6 ADD ADD CALLDATALOAD PUSH2 0x265B JUMP JUMPDEST SWAP1 DUP5 ADD MSTORE PUSH2 0x2705 JUMP JUMPDEST POP POP POP POP SWAP1 JUMP JUMPDEST CALLER PUSH1 0x0 SWAP1 DUP2 MSTORE PUSH32 0x142AE0BD48B54FB380E908BF20FD1F4EA4F2B9A2663CA7698D91EF391575C621 PUSH1 0x20 MSTORE PUSH1 0x40 SWAP1 KECCAK256 SLOAD PUSH1 0xFF AND ISZERO PUSH2 0x276A JUMPI JUMP JUMPDEST PUSH2 0x2827 PUSH1 0x48 PUSH2 0x27F5 PUSH2 0x277B CALLER PUSH2 0x2ED9 JUMP JUMPDEST PUSH2 0x1BB7 PUSH2 0x2786 PUSH2 0x2F76 JUMP JUMPDEST PUSH1 0x40 MLOAD SWAP5 DUP6 SWAP4 PUSH32 0x416363657373436F6E74726F6C3A206163636F756E7420000000000000000000 PUSH1 0x20 DUP7 ADD MSTORE PUSH2 0x27C6 DUP2 MLOAD DUP1 SWAP3 PUSH1 0x20 PUSH1 0x37 DUP10 ADD SWAP2 ADD PUSH2 0x52B JUMP JUMPDEST DUP5 ADD PUSH32 0x206973206D697373696E6720726F6C6520000000000000000000000000000000 PUSH1 0x37 DUP3 ADD MSTORE ADD SWAP1 PUSH2 0x1F1E JUMP JUMPDEST PUSH1 0x40 MLOAD SWAP2 DUP3 SWAP2 PUSH32 0x8C379A000000000000000000000000000000000000000000000000000000000 DUP4 MSTORE PUSH1 0x4 DUP4 ADD PUSH2 0x573 JUMP JUMPDEST SUB SWAP1 REVERT JUMPDEST CALLER PUSH1 0x0 SWAP1 DUP2 MSTORE PUSH32 0xF70E363B3D7895AF770C4A138460777D52EEBD3CB9962CCC6B58721F6127BBC8 PUSH1 0x20 MSTORE PUSH1 0x40 SWAP1 KECCAK256 SLOAD PUSH1 0xFF AND ISZERO PUSH2 0x2864 JUMPI JUMP JUMPDEST PUSH2 0x2827 PUSH1 0x48 PUSH2 0x27F5 PUSH2 0x2875 CALLER PUSH2 0x2ED9 JUMP JUMPDEST PUSH2 0x1BB7 PUSH2 0x2786 PUSH2 0x3013 JUMP JUMPDEST CALLER PUSH1 0x0 SWAP1 DUP2 MSTORE PUSH32 0xEA6919AD9E84AA527AA2DFFB6AC6F0A6AF0387A080D10167ACDDF2A249A612DD PUSH1 0x20 MSTORE PUSH1 0x40 SWAP1 KECCAK256 SLOAD PUSH1 0xFF AND ISZERO PUSH2 0x28B9 JUMPI JUMP JUMPDEST PUSH2 0x2827 PUSH1 0x48 PUSH2 0x27F5 PUSH2 0x28CA CALLER PUSH2 0x2ED9 JUMP JUMPDEST PUSH2 0x1BB7 PUSH2 0x2786 PUSH2 0x30B0 JUMP JUMPDEST DUP1 PUSH1 0x0 MSTORE PUSH1 0xB PUSH1 0x20 MSTORE PUSH1 0xFF PUSH2 0x290E CALLER PUSH1 0x40 PUSH1 0x0 KECCAK256 SWAP1 PUSH20 0xFFFFFFFFFFFFFFFFFFFFFFFFFFFFFFFFFFFFFFFF AND PUSH1 0x0 MSTORE PUSH1 0x20 MSTORE PUSH1 0x40 PUSH1 0x0 KECCAK256 SWAP1 JUMP JUMPDEST SLOAD AND ISZERO PUSH2 0x2918 JUMPI POP JUMP JUMPDEST PUSH2 0x2921 CALLER PUSH2 0x2ED9 JUMP JUMPDEST PUSH2 0x2929 PUSH2 0x2DEB JUMP JUMPDEST SWAP2 PUSH1 0x30 PUSH2 0x2935 DUP5 PUSH2 0x2E46 JUMP JUMPDEST MSTORE8 PUSH1 0x78 PUSH2 0x2941 DUP5 PUSH2 0x2E53 JUMP JUMPDEST MSTORE8 PUSH1 0x41 JUMPDEST PUSH1 0x1 DUP2 GT PUSH2 0x2964 JUMPI PUSH2 0x2827 PUSH1 0x48 PUSH2 0x27F5 DUP6 PUSH2 0x1BB7 DUP9 PUSH2 0x2786 DUP9 ISZERO PUSH2 0x2E74 JUMP JUMPDEST SWAP1 PUSH1 0xF DUP2 AND SWAP1 PUSH1 0x10 DUP3 LT ISZERO PUSH2 0x29B2 JUMPI PUSH32 0x3031323334353637383961626364656600000000000000000000000000000000 PUSH2 0x29AD SWAP3 BYTE PUSH2 0x29A3 DUP5 DUP8 PUSH2 0x2E63 JUMP JUMPDEST MSTORE8 PUSH1 0x4 SHR SWAP2 PUSH2 0x205D JUMP JUMPDEST PUSH2 0x2945 JUMP JUMPDEST PUSH2 0x2E17 JUMP JUMPDEST PUSH20 0xFFFFFFFFFFFFFFFFFFFFFFFFFFFFFFFFFFFFFFFF DUP2 DUP2 AND PUSH1 0x0 SWAP1 DUP2 MSTORE PUSH32 0xDF7DE25B7F1FD6D0B5205F0E18F1F35BD7B8D84CCE336588D184533CE43A6F76 PUSH1 0x20 MSTORE PUSH1 0x40 DUP1 DUP3 KECCAK256 SLOAD PUSH2 0x2A1F SWAP5 SWAP4 SWAP3 SWAP1 PUSH1 0xFF AND ISZERO PUSH2 0x2A22 JUMPI JUMPDEST DUP1 DUP1 MSTORE PUSH1 0xC PUSH1 0x20 MSTORE KECCAK256 SWAP2 AND SWAP1 PUSH2 0x3183 JUMP JUMPDEST POP JUMP JUMPDEST DUP1 DUP1 MSTORE PUSH1 0xB PUSH1 0x20 MSTORE PUSH2 0x2A56 DUP5 DUP4 DUP4 KECCAK256 SWAP1 PUSH20 0xFFFFFFFFFFFFFFFFFFFFFFFFFFFFFFFFFFFFFFFF AND PUSH1 0x0 MSTORE PUSH1 0x20 MSTORE PUSH1 0x40 PUSH1 0x0 KECCAK256 SWAP1 JUMP JUMPDEST PUSH1 0x1 PUSH32 0xFFFFFFFFFFFFFFFFFFFFFFFFFFFFFFFFFFFFFFFFFFFFFFFFFFFFFFFFFFFFFF00 DUP3 SLOAD AND OR SWAP1 SSTORE CALLER DUP4 DUP6 AND DUP3 PUSH32 0x2F8788117E7EFF1D82E926EC794901D17C78024A50270940304540A733656F0D DUP2 DUP1 LOG4 PUSH2 0x2A0E JUMP JUMPDEST PUSH20 0xFFFFFFFFFFFFFFFFFFFFFFFFFFFFFFFFFFFFFFFF DUP1 DUP3 AND PUSH1 0x0 SWAP1 DUP2 MSTORE PUSH32 0xEA6919AD9E84AA527AA2DFFB6AC6F0A6AF0387A080D10167ACDDF2A249A612DD PUSH1 0x20 MSTORE PUSH1 0x40 DUP1 DUP3 KECCAK256 PUSH2 0x2A1F SWAP5 SWAP4 SWAP3 SWAP1 PUSH32 0xE02A0315B383857AC496E9D2B2546A699AFAEB4E5E83A1FDEF64376D0B74E5A5 SWAP1 PUSH1 0xFF SWAP1 JUMPDEST SLOAD AND ISZERO PUSH2 0x2B38 JUMPI JUMPDEST DUP2 MSTORE PUSH1 0xC PUSH1 0x20 MSTORE KECCAK256 SWAP2 AND SWAP1 PUSH2 0x3183 JUMP JUMPDEST DUP1 DUP3 MSTORE PUSH1 0xB PUSH1 0x20 MSTORE PUSH2 0x2B6C DUP6 DUP5 DUP5 KECCAK256 SWAP1 PUSH20 0xFFFFFFFFFFFFFFFFFFFFFFFFFFFFFFFFFFFFFFFF AND PUSH1 0x0 MSTORE PUSH1 0x20 MSTORE PUSH1 0x40 PUSH1 0x0 KECCAK256 SWAP1 JUMP JUMPDEST PUSH1 0x1 PUSH32 0xFFFFFFFFFFFFFFFFFFFFFFFFFFFFFFFFFFFFFFFFFFFFFFFFFFFFFFFFFFFFFF00 DUP3 SLOAD AND OR SWAP1 SSTORE CALLER DUP5 DUP7 AND DUP3 PUSH32 0x2F8788117E7EFF1D82E926EC794901D17C78024A50270940304540A733656F0D DUP6 DUP1 LOG4 PUSH2 0x2B28 JUMP JUMPDEST PUSH20 0xFFFFFFFFFFFFFFFFFFFFFFFFFFFFFFFFFFFFFFFF DUP1 DUP3 AND PUSH1 0x0 SWAP1 DUP2 MSTORE PUSH32 0x142AE0BD48B54FB380E908BF20FD1F4EA4F2B9A2663CA7698D91EF391575C621 PUSH1 0x20 MSTORE PUSH1 0x40 DUP1 DUP3 KECCAK256 PUSH2 0x2A1F SWAP5 SWAP4 SWAP3 SWAP1 PUSH32 0x6DB4061A20CA83A3BE756EE172BD37A029093AC5AFE4CE968C6D5435B43CB011 SWAP1 PUSH1 0xFF SWAP1 PUSH2 0x2B20 JUMP JUMPDEST PUSH20 0xFFFFFFFFFFFFFFFFFFFFFFFFFFFFFFFFFFFFFFFF DUP1 DUP3 AND PUSH1 0x0 SWAP1 DUP2 MSTORE PUSH32 0xF70E363B3D7895AF770C4A138460777D52EEBD3CB9962CCC6B58721F6127BBC8 PUSH1 0x20 MSTORE PUSH1 0x40 DUP1 DUP3 KECCAK256 PUSH2 0x2A1F SWAP5 SWAP4 SWAP3 SWAP1 PUSH32 0x9F2DF0FED2C77648DE5860A4CC508CD0818C85B8B8A1AB4CEEEF8D981C8956A6 SWAP1 PUSH1 0xFF SWAP1 PUSH2 0x2B20 JUMP JUMPDEST SWAP1 PUSH20 0xFFFFFFFFFFFFFFFFFFFFFFFFFFFFFFFFFFFFFFFF PUSH1 0x40 PUSH2 0x2A1F SWAP4 PUSH1 0x0 SWAP1 DUP1 DUP3 MSTORE PUSH1 0xB PUSH1 0x20 MSTORE PUSH1 0xFF PUSH2 0x2D06 DUP7 DUP6 DUP6 KECCAK256 SWAP1 PUSH20 0xFFFFFFFFFFFFFFFFFFFFFFFFFFFFFFFFFFFFFFFF AND PUSH1 0x0 MSTORE PUSH1 0x20 MSTORE PUSH1 0x40 PUSH1 0x0 KECCAK256 SWAP1 JUMP JUMPDEST SLOAD AND PUSH2 0x2D1D JUMPI JUMPDEST DUP2 MSTORE PUSH1 0xC PUSH1 0x20 MSTORE KECCAK256 SWAP2 AND SWAP1 PUSH2 0x3252 JUMP JUMPDEST DUP1 DUP3 MSTORE PUSH1 0xB PUSH1 0x20 MSTORE PUSH2 0x2D51 DUP6 DUP5 DUP5 KECCAK256 SWAP1 PUSH20 0xFFFFFFFFFFFFFFFFFFFFFFFFFFFFFFFFFFFFFFFF AND PUSH1 0x0 MSTORE PUSH1 0x20 MSTORE PUSH1 0x40 PUSH1 0x0 KECCAK256 SWAP1 JUMP JUMPDEST PUSH32 0xFFFFFFFFFFFFFFFFFFFFFFFFFFFFFFFFFFFFFFFFFFFFFFFFFFFFFFFFFFFFFF00 DUP2 SLOAD AND SWAP1 SSTORE CALLER DUP5 DUP7 AND DUP3 PUSH32 0xF6391F5C32D9C69D2A47EA670B442974B53935D1EDC7FD64EB21E047A839171B DUP6 DUP1 LOG4 PUSH2 0x2D0D JUMP JUMPDEST PUSH1 0x40 MLOAD SWAP1 PUSH2 0x2DB2 DUP3 PUSH2 0xE83 JUMP JUMPDEST PUSH1 0x9 SLOAD PUSH20 0xFFFFFFFFFFFFFFFFFFFFFFFFFFFFFFFFFFFFFFFF DUP2 AND DUP4 MSTORE PUSH1 0xA0 SHR PUSH1 0x20 DUP4 ADD MSTORE JUMP JUMPDEST DUP2 DUP2 MUL SWAP3 SWAP2 DUP2 ISZERO SWAP2 DUP5 DIV EQ OR ISZERO PUSH2 0x206A JUMPI JUMP JUMPDEST PUSH1 0x40 MLOAD SWAP1 PUSH1 0x80 DUP3 ADD DUP3 DUP2 LT PUSH8 0xFFFFFFFFFFFFFFFF DUP3 GT OR PUSH2 0xE9F JUMPI PUSH1 0x40 MSTORE PUSH1 0x42 DUP3 MSTORE PUSH1 0x60 CALLDATASIZE PUSH1 0x20 DUP5 ADD CALLDATACOPY JUMP JUMPDEST PUSH32 0x4E487B7100000000000000000000000000000000000000000000000000000000 PUSH1 0x0 MSTORE PUSH1 0x32 PUSH1 0x4 MSTORE PUSH1 0x24 PUSH1 0x0 REVERT JUMPDEST DUP1 MLOAD ISZERO PUSH2 0x29B2 JUMPI PUSH1 0x20 ADD SWAP1 JUMP JUMPDEST DUP1 MLOAD PUSH1 0x1 LT ISZERO PUSH2 0x29B2 JUMPI PUSH1 0x21 ADD SWAP1 JUMP JUMPDEST SWAP1 DUP2 MLOAD DUP2 LT ISZERO PUSH2 0x29B2 JUMPI ADD PUSH1 0x20 ADD SWAP1 JUMP JUMPDEST ISZERO PUSH2 0x2E7B JUMPI JUMP JUMPDEST PUSH1 0x64 PUSH1 0x40 MLOAD PUSH32 0x8C379A000000000000000000000000000000000000000000000000000000000 DUP2 MSTORE PUSH1 0x20 PUSH1 0x4 DUP3 ADD MSTORE PUSH1 0x20 PUSH1 0x24 DUP3 ADD MSTORE PUSH32 0x537472696E67733A20686578206C656E67746820696E73756666696369656E74 PUSH1 0x44 DUP3 ADD MSTORE REVERT JUMPDEST PUSH1 0x40 MLOAD SWAP1 PUSH1 0x60 DUP3 ADD DUP3 DUP2 LT PUSH8 0xFFFFFFFFFFFFFFFF DUP3 GT OR PUSH2 0xE9F JUMPI PUSH1 0x40 MSTORE PUSH1 0x2A DUP3 MSTORE PUSH1 0x40 CALLDATASIZE PUSH1 0x20 DUP5 ADD CALLDATACOPY PUSH1 0x30 PUSH2 0x2F0E DUP4 PUSH2 0x2E46 JUMP JUMPDEST MSTORE8 PUSH1 0x78 PUSH2 0x2F1A DUP4 PUSH2 0x2E53 JUMP JUMPDEST MSTORE8 PUSH1 0x29 SWAP1 JUMPDEST PUSH1 0x1 DUP3 GT PUSH2 0x2F32 JUMPI PUSH2 0x584 SWAP2 POP ISZERO PUSH2 0x2E74 JUMP JUMPDEST PUSH1 0xF DUP2 AND SWAP1 PUSH1 0x10 DUP3 LT ISZERO PUSH2 0x29B2 JUMPI PUSH32 0x3031323334353637383961626364656600000000000000000000000000000000 PUSH2 0x2F70 SWAP3 BYTE PUSH2 0x29A3 DUP5 DUP7 PUSH2 0x2E63 JUMP JUMPDEST SWAP1 PUSH2 0x2F1F JUMP JUMPDEST PUSH32 0x6DB4061A20CA83A3BE756EE172BD37A029093AC5AFE4CE968C6D5435B43CB011 PUSH2 0x2F9F PUSH2 0x2DEB JUMP JUMPDEST SWAP1 PUSH1 0x30 PUSH2 0x2FAB DUP4 PUSH2 0x2E46 JUMP JUMPDEST MSTORE8 PUSH1 0x78 PUSH2 0x2FB7 DUP4 PUSH2 0x2E53 JUMP JUMPDEST MSTORE8 PUSH1 0x41 SWAP1 JUMPDEST PUSH1 0x1 DUP3 GT PUSH2 0x2FCF JUMPI PUSH2 0x584 SWAP2 POP ISZERO PUSH2 0x2E74 JUMP JUMPDEST PUSH1 0xF DUP2 AND SWAP1 PUSH1 0x10 DUP3 LT ISZERO PUSH2 0x29B2 JUMPI PUSH32 0x3031323334353637383961626364656600000000000000000000000000000000 PUSH2 0x300D SWAP3 BYTE PUSH2 0x29A3 DUP5 DUP7 PUSH2 0x2E63 JUMP JUMPDEST SWAP1 PUSH2 0x2FBC JUMP JUMPDEST PUSH32 0x9F2DF0FED2C77648DE5860A4CC508CD0818C85B8B8A1AB4CEEEF8D981C8956A6 PUSH2 0x303C PUSH2 0x2DEB JUMP JUMPDEST SWAP1 PUSH1 0x30 PUSH2 0x3048 DUP4 PUSH2 0x2E46 JUMP JUMPDEST MSTORE8 PUSH1 0x78 PUSH2 0x3054 DUP4 PUSH2 0x2E53 JUMP JUMPDEST MSTORE8 PUSH1 0x41 SWAP1 JUMPDEST PUSH1 0x1 DUP3 GT PUSH2 0x306C JUMPI PUSH2 0x584 SWAP2 POP ISZERO PUSH2 0x2E74 JUMP JUMPDEST PUSH1 0xF DUP2 AND SWAP1 PUSH1 0x10 DUP3 LT ISZERO PUSH2 0x29B2 JUMPI PUSH32 0x3031323334353637383961626364656600000000000000000000000000000000 PUSH2 0x30AA SWAP3 BYTE PUSH2 0x29A3 DUP5 DUP7 PUSH2 0x2E63 JUMP JUMPDEST SWAP1 PUSH2 0x3059 JUMP JUMPDEST PUSH32 0xE02A0315B383857AC496E9D2B2546A699AFAEB4E5E83A1FDEF64376D0B74E5A5 PUSH2 0x30D9 PUSH2 0x2DEB JUMP JUMPDEST SWAP1 PUSH1 0x30 PUSH2 0x30E5 DUP4 PUSH2 0x2E46 JUMP JUMPDEST MSTORE8 PUSH1 0x78 PUSH2 0x30F1 DUP4 PUSH2 0x2E53 JUMP JUMPDEST MSTORE8 PUSH1 0x41 SWAP1 JUMPDEST PUSH1 0x1 DUP3 GT PUSH2 0x3109 JUMPI PUSH2 0x584 SWAP2 POP ISZERO PUSH2 0x2E74 JUMP JUMPDEST PUSH1 0xF DUP2 AND SWAP1 PUSH1 0x10 DUP3 LT ISZERO PUSH2 0x29B2 JUMPI PUSH32 0x3031323334353637383961626364656600000000000000000000000000000000 PUSH2 0x3147 SWAP3 BYTE PUSH2 0x29A3 DUP5 DUP7 PUSH2 0x2E63 JUMP JUMPDEST SWAP1 PUSH2 0x30F6 JUMP JUMPDEST DUP1 SLOAD DUP3 LT ISZERO PUSH2 0x29B2 JUMPI PUSH1 0x0 MSTORE PUSH1 0x20 PUSH1 0x0 KECCAK256 ADD SWAP1 PUSH1 0x0 SWAP1 JUMP JUMPDEST SWAP2 PUSH2 0x317F SWAP2 DUP4 SLOAD SWAP1 PUSH1 0x0 NOT SWAP1 PUSH1 0x3 SHL SWAP3 DUP4 SHL SWAP3 SHL NOT AND OR SWAP1 JUMP JUMPDEST SWAP1 SSTORE JUMP JUMPDEST PUSH1 0x1 DUP2 ADD SWAP1 DUP3 PUSH1 0x0 MSTORE DUP2 PUSH1 0x20 MSTORE PUSH1 0x40 PUSH1 0x0 KECCAK256 SLOAD ISZERO PUSH1 0x0 EQ PUSH2 0x31F1 JUMPI DUP1 SLOAD PUSH9 0x10000000000000000 DUP2 LT ISZERO PUSH2 0xE9F JUMPI PUSH2 0x31DC PUSH2 0x31C5 DUP3 PUSH1 0x1 DUP8 SWAP5 ADD DUP6 SSTORE DUP5 PUSH2 0x314D JUMP JUMPDEST DUP2 SWAP4 SWAP2 SLOAD SWAP1 PUSH1 0x0 NOT SWAP1 PUSH1 0x3 SHL SWAP3 DUP4 SHL SWAP3 SHL NOT AND OR SWAP1 JUMP JUMPDEST SWAP1 SSTORE SLOAD SWAP2 PUSH1 0x0 MSTORE PUSH1 0x20 MSTORE PUSH1 0x40 PUSH1 0x0 KECCAK256 SSTORE PUSH1 0x1 SWAP1 JUMP JUMPDEST POP POP POP PUSH1 0x0 SWAP1 JUMP JUMPDEST DUP1 SLOAD SWAP1 DUP2 ISZERO PUSH2 0x3223 JUMPI PUSH1 0x0 NOT DUP1 SWAP3 ADD SWAP2 PUSH2 0x3213 DUP4 DUP4 PUSH2 0x314D JUMP JUMPDEST SWAP1 SWAP2 DUP3 SLOAD SWAP2 PUSH1 0x3 SHL SHL NOT AND SWAP1 SSTORE SSTORE JUMP JUMPDEST PUSH32 0x4E487B7100000000000000000000000000000000000000000000000000000000 PUSH1 0x0 MSTORE PUSH1 0x31 PUSH1 0x4 MSTORE PUSH1 0x24 PUSH1 0x0 REVERT JUMPDEST PUSH1 0x1 DUP2 ADD SWAP2 DUP1 PUSH1 0x0 MSTORE DUP3 PUSH1 0x20 MSTORE PUSH1 0x40 PUSH1 0x0 KECCAK256 SLOAD SWAP3 DUP4 ISZERO ISZERO PUSH1 0x0 EQ PUSH2 0x32FE JUMPI PUSH1 0x0 NOT SWAP3 DUP4 DUP6 ADD SWAP1 DUP6 DUP3 GT PUSH2 0x206A JUMPI DUP1 SLOAD SWAP5 DUP6 ADD SWAP5 DUP6 GT PUSH2 0x206A JUMPI PUSH1 0x0 SWAP6 DUP6 DUP4 PUSH2 0x32A6 SWAP5 PUSH2 0x32B5 SWAP9 SUB PUSH2 0x32BB JUMPI JUMPDEST POP POP POP PUSH2 0x31F9 JUMP JUMPDEST SWAP1 PUSH1 0x0 MSTORE PUSH1 0x20 MSTORE PUSH1 0x40 PUSH1 0x0 KECCAK256 SWAP1 JUMP JUMPDEST SSTORE PUSH1 0x1 SWAP1 JUMP JUMPDEST PUSH2 0x32E5 PUSH2 0x32DF SWAP2 PUSH2 0x32CF PUSH2 0x32F5 SWAP5 DUP8 PUSH2 0x314D JUMP JUMPDEST SWAP1 SLOAD SWAP1 PUSH1 0x3 SHL SHR SWAP3 DUP4 SWAP2 DUP8 PUSH2 0x314D JUMP JUMPDEST SWAP1 PUSH2 0x3165 JUMP JUMPDEST DUP6 SWAP1 PUSH1 0x0 MSTORE PUSH1 0x20 MSTORE PUSH1 0x40 PUSH1 0x0 KECCAK256 SWAP1 JUMP JUMPDEST SSTORE CODESIZE DUP1 DUP1 PUSH2 0x329E JUMP JUMPDEST POP POP POP POP PUSH1 0x0 SWAP1 JUMP JUMPDEST SWAP1 PUSH1 0x1 DUP3 DUP2 SHR SWAP3 AND DUP1 ISZERO PUSH2 0x3350 JUMPI JUMPDEST PUSH1 0x20 DUP4 LT EQ PUSH2 0x3321 JUMPI JUMP JUMPDEST PUSH32 0x4E487B7100000000000000000000000000000000000000000000000000000000 PUSH1 0x0 MSTORE PUSH1 0x22 PUSH1 0x4 MSTORE PUSH1 0x24 PUSH1 0x0 REVERT JUMPDEST SWAP2 PUSH1 0x7F AND SWAP2 PUSH2 0x3316 JUMP JUMPDEST PUSH1 0x1F DUP2 GT PUSH2 0x3366 JUMPI POP POP JUMP JUMPDEST PUSH1 0x0 SWAP1 PUSH1 0xE DUP3 MSTORE PUSH32 0xBB7B4A454DC3493923482F07822329ED19E8244EFF582CC204F8554C3620C3FD SWAP1 PUSH1 0x20 PUSH1 0x1F DUP6 ADD PUSH1 0x5 SHR DUP4 ADD SWAP5 LT PUSH2 0x33C1 JUMPI JUMPDEST PUSH1 0x1F ADD PUSH1 0x5 SHR ADD SWAP2 JUMPDEST DUP3 DUP2 LT PUSH2 0x33B6 JUMPI POP POP POP JUMP JUMPDEST DUP2 DUP2 SSTORE PUSH1 0x1 ADD PUSH2 0x33AA JUMP JUMPDEST SWAP1 SWAP3 POP DUP3 SWAP1 PUSH2 0x33A1 JUMP JUMPDEST PUSH1 0x1F DUP2 GT PUSH2 0x33D7 JUMPI POP POP JUMP JUMPDEST PUSH1 0x0 SWAP1 PUSH1 0xD DUP3 MSTORE PUSH32 0xD7B6990105719101DABEB77144F2A3385C8033ACD3AF97E9423A695E81AD1EB5 SWAP1 PUSH1 0x20 PUSH1 0x1F DUP6 ADD PUSH1 0x5 SHR DUP4 ADD SWAP5 LT PUSH2 0x3432 JUMPI JUMPDEST PUSH1 0x1F ADD PUSH1 0x5 SHR ADD SWAP2 JUMPDEST DUP3 DUP2 LT PUSH2 0x3427 JUMPI POP POP POP JUMP JUMPDEST DUP2 DUP2 SSTORE PUSH1 0x1 ADD PUSH2 0x341B JUMP JUMPDEST SWAP1 SWAP3 POP DUP3 SWAP1 PUSH2 0x3412 JUMP JUMPDEST PUSH1 0x1F DUP2 GT PUSH2 0x3448 JUMPI POP POP JUMP JUMPDEST PUSH1 0x0 SWAP1 PUSH1 0x10 DUP3 MSTORE PUSH32 0x1B6847DC741A1B0CD08D278845F9D819D87B734759AFB55FE2DE5CB82A9AE672 SWAP1 PUSH1 0x20 PUSH1 0x1F DUP6 ADD PUSH1 0x5 SHR DUP4 ADD SWAP5 LT PUSH2 0x34A3 JUMPI JUMPDEST PUSH1 0x1F ADD PUSH1 0x5 SHR ADD SWAP2 JUMPDEST DUP3 DUP2 LT PUSH2 0x3498 JUMPI POP POP POP JUMP JUMPDEST DUP2 DUP2 SSTORE PUSH1 0x1 ADD PUSH2 0x348C JUMP JUMPDEST SWAP1 SWAP3 POP DUP3 SWAP1 PUSH2 0x3483 JUMP JUMPDEST PUSH1 0x1F DUP2 GT PUSH2 0x34B9 JUMPI POP POP JUMP JUMPDEST PUSH1 0x0 SWAP1 PUSH1 0xF DUP3 MSTORE PUSH32 0x8D1108E10BCB7C27DDDFC02ED9D693A074039D026CF4EA4240B40F7D581AC802 SWAP1 PUSH1 0x20 PUSH1 0x1F DUP6 ADD PUSH1 0x5 SHR DUP4 ADD SWAP5 LT PUSH2 0x3514 JUMPI JUMPDEST PUSH1 0x1F ADD PUSH1 0x5 SHR ADD SWAP2 JUMPDEST DUP3 DUP2 LT PUSH2 0x3509 JUMPI POP POP POP JUMP JUMPDEST DUP2 DUP2 SSTORE PUSH1 0x1 ADD PUSH2 0x34FD JUMP JUMPDEST SWAP1 SWAP3 POP DUP3 SWAP1 PUSH2 0x34F4 JUMP JUMPDEST SWAP1 DUP2 MLOAD PUSH8 0xFFFFFFFFFFFFFFFF DUP2 GT PUSH2 0xE9F JUMPI PUSH2 0x3544 DUP2 PUSH2 0x353F PUSH1 0xF SLOAD PUSH2 0x3307 JUMP JUMPDEST PUSH2 0x34AD JUMP JUMPDEST PUSH1 0x20 DUP1 PUSH1 0x1F DUP4 GT PUSH1 0x1 EQ PUSH2 0x357F JUMPI POP DUP2 SWAP3 SWAP4 PUSH1 0x0 SWAP3 PUSH2 0x3574 JUMPI JUMPDEST POP POP PUSH1 0x0 NOT DUP3 PUSH1 0x1 SHL SWAP3 PUSH1 0x3 SHL SHR NOT AND OR PUSH1 0xF SSTORE JUMP JUMPDEST ADD MLOAD SWAP1 POP CODESIZE DUP1 PUSH2 0x355E JUMP JUMPDEST SWAP1 PUSH1 0x1F NOT DUP4 AND SWAP5 PUSH2 0x35B2 PUSH1 0xF PUSH1 0x0 MSTORE PUSH32 0x8D1108E10BCB7C27DDDFC02ED9D693A074039D026CF4EA4240B40F7D581AC802 SWAP1 JUMP JUMPDEST SWAP3 PUSH1 0x0 SWAP1 JUMPDEST DUP8 DUP3 LT PUSH2 0x35EF JUMPI POP POP DUP4 PUSH1 0x1 SWAP6 SWAP7 LT PUSH2 0x35D6 JUMPI JUMPDEST POP POP POP DUP2 SHL ADD PUSH1 0xF SSTORE JUMP JUMPDEST ADD MLOAD PUSH1 0x0 NOT PUSH1 0xF8 DUP5 PUSH1 0x3 SHL AND SHR NOT AND SWAP1 SSTORE CODESIZE DUP1 DUP1 PUSH2 0x35CB JUMP JUMPDEST DUP1 PUSH1 0x1 DUP6 SWAP7 DUP3 SWAP5 SWAP7 DUP7 ADD MLOAD DUP2 SSTORE ADD SWAP6 ADD SWAP4 ADD SWAP1 PUSH2 0x35B7 JUMP JUMPDEST SWAP1 DUP2 MLOAD PUSH8 0xFFFFFFFFFFFFFFFF DUP2 GT PUSH2 0xE9F JUMPI PUSH2 0x3628 DUP2 PUSH2 0x1258 PUSH1 0xD SLOAD PUSH2 0x3307 JUMP JUMPDEST PUSH1 0x20 DUP1 PUSH1 0x1F DUP4 GT PUSH1 0x1 EQ PUSH2 0x3663 JUMPI POP DUP2 SWAP3 SWAP4 PUSH1 0x0 SWAP3 PUSH2 0x3658 JUMPI JUMPDEST POP POP PUSH1 0x0 NOT DUP3 PUSH1 0x1 SHL SWAP3 PUSH1 0x3 SHL SHR NOT AND OR PUSH1 0xD SSTORE JUMP JUMPDEST ADD MLOAD SWAP1 POP CODESIZE DUP1 PUSH2 0x3642 JUMP JUMPDEST SWAP1 PUSH1 0x1F NOT DUP4 AND SWAP5 PUSH2 0x3696 PUSH1 0xD PUSH1 0x0 MSTORE PUSH32 0xD7B6990105719101DABEB77144F2A3385C8033ACD3AF97E9423A695E81AD1EB5 SWAP1 JUMP JUMPDEST SWAP3 PUSH1 0x0 SWAP1 JUMPDEST DUP8 DUP3 LT PUSH2 0x36D3 JUMPI POP POP DUP4 PUSH1 0x1 SWAP6 SWAP7 LT PUSH2 0x36BA JUMPI JUMPDEST POP POP POP DUP2 SHL ADD PUSH1 0xD SSTORE JUMP JUMPDEST ADD MLOAD PUSH1 0x0 NOT PUSH1 0xF8 DUP5 PUSH1 0x3 SHL AND SHR NOT AND SWAP1 SSTORE CODESIZE DUP1 DUP1 PUSH2 0x36AF JUMP JUMPDEST DUP1 PUSH1 0x1 DUP6 SWAP7 DUP3 SWAP5 SWAP7 DUP7 ADD MLOAD DUP2 SSTORE ADD SWAP6 ADD SWAP4 ADD SWAP1 PUSH2 0x369B JUMP JUMPDEST SWAP1 DUP2 MLOAD PUSH8 0xFFFFFFFFFFFFFFFF DUP2 GT PUSH2 0xE9F JUMPI PUSH2 0x370C DUP2 PUSH2 0x15D1 PUSH1 0x10 SLOAD PUSH2 0x3307 JUMP JUMPDEST PUSH1 0x20 DUP1 PUSH1 0x1F DUP4 GT PUSH1 0x1 EQ PUSH2 0x3747 JUMPI POP DUP2 SWAP3 SWAP4 PUSH1 0x0 SWAP3 PUSH2 0x373C JUMPI JUMPDEST POP POP PUSH1 0x0 NOT DUP3 PUSH1 0x1 SHL SWAP3 PUSH1 0x3 SHL SHR NOT AND OR PUSH1 0x10 SSTORE JUMP JUMPDEST ADD MLOAD SWAP1 POP CODESIZE DUP1 PUSH2 0x3726 JUMP JUMPDEST SWAP1 PUSH1 0x1F NOT DUP4 AND SWAP5 PUSH2 0x377A PUSH1 0x10 PUSH1 0x0 MSTORE PUSH32 0x1B6847DC741A1B0CD08D278845F9D819D87B734759AFB55FE2DE5CB82A9AE672 SWAP1 JUMP JUMPDEST SWAP3 PUSH1 0x0 SWAP1 JUMPDEST DUP8 DUP3 LT PUSH2 0x37B7 JUMPI POP POP DUP4 PUSH1 0x1 SWAP6 SWAP7 LT PUSH2 0x379E JUMPI JUMPDEST POP POP POP DUP2 SHL ADD PUSH1 0x10 SSTORE JUMP JUMPDEST ADD MLOAD PUSH1 0x0 NOT PUSH1 0xF8 DUP5 PUSH1 0x3 SHL AND SHR NOT AND SWAP1 SSTORE CODESIZE DUP1 DUP1 PUSH2 0x3793 JUMP JUMPDEST DUP1 PUSH1 0x1 DUP6 SWAP7 DUP3 SWAP5 SWAP7 DUP7 ADD MLOAD DUP2 SSTORE ADD SWAP6 ADD SWAP4 ADD SWAP1 PUSH2 0x377F JUMP JUMPDEST PUSH2 0x37D8 DUP2 PUSH2 0x1F35 JUMP JUMPDEST PUSH20 0xFFFFFFFFFFFFFFFFFFFFFFFFFFFFFFFFFFFFFFFF DUP2 AND PUSH2 0x3806 DUP4 PUSH1 0x0 MSTORE PUSH1 0x6 PUSH1 0x20 MSTORE PUSH1 0x40 PUSH1 0x0 KECCAK256 SWAP1 DUP2 SLOAD SWAP1 JUMP JUMPDEST SWAP3 SWAP1 PUSH2 0x382E PUSH20 0xFFFFFFFFFFFFFFFFFFFFFFFFFFFFFFFFFFFFFFFF DUP5 AND CALLER SWAP1 DUP2 EQ SWAP1 DUP7 EQ OR ISZERO SWAP1 JUMP JUMPDEST PUSH2 0x3967 JUMPI JUMPDEST PUSH1 0x0 SWAP4 PUSH2 0x395E JUMPI JUMPDEST POP PUSH2 0x3866 DUP3 PUSH20 0xFFFFFFFFFFFFFFFFFFFFFFFFFFFFFFFFFFFFFFFF AND PUSH1 0x0 MSTORE PUSH1 0x5 PUSH1 0x20 MSTORE PUSH1 0x40 PUSH1 0x0 KECCAK256 SWAP1 JUMP JUMPDEST PUSH16 0xFFFFFFFFFFFFFFFFFFFFFFFFFFFFFFFF DUP2 SLOAD ADD SWAP1 SSTORE PUSH29 0x300000000000000000000000000000000000000000000000000000000 TIMESTAMP PUSH1 0xA0 SHL DUP4 OR OR PUSH2 0x38B5 DUP6 PUSH1 0x0 MSTORE PUSH1 0x4 PUSH1 0x20 MSTORE PUSH1 0x40 PUSH1 0x0 KECCAK256 SWAP1 JUMP JUMPDEST SSTORE PUSH29 0x200000000000000000000000000000000000000000000000000000000 DUP2 AND ISZERO PUSH2 0x3915 JUMPI JUMPDEST POP PUSH32 0xDDF252AD1BE2C89B69C2B068FC378DAA952BA7F163C4A11628F55A4DF523B3EF DUP3 DUP1 LOG4 PUSH2 0xEF0 PUSH2 0x3910 PUSH1 0x1 SLOAD PUSH1 0x1 ADD SWAP1 JUMP JUMPDEST PUSH1 0x1 SSTORE JUMP JUMPDEST PUSH1 0x1 DUP5 ADD PUSH2 0x392D DUP2 PUSH1 0x0 MSTORE PUSH1 0x4 PUSH1 0x20 MSTORE PUSH1 0x40 PUSH1 0x0 KECCAK256 SWAP1 JUMP JUMPDEST SLOAD ISZERO PUSH2 0x393A JUMPI JUMPDEST POP PUSH2 0x38DC JUMP JUMPDEST DUP4 SLOAD DUP2 EQ PUSH2 0x3934 JUMPI PUSH2 0x3956 SWAP1 PUSH1 0x0 MSTORE PUSH1 0x4 PUSH1 0x20 MSTORE PUSH1 0x40 PUSH1 0x0 KECCAK256 SWAP1 JUMP JUMPDEST SSTORE CODESIZE DUP1 PUSH2 0x3934 JUMP JUMPDEST DUP4 SWAP1 SSTORE CODESIZE PUSH2 0x383B JUMP JUMPDEST PUSH2 0x399B PUSH2 0x1405 PUSH2 0x22C9 CALLER PUSH2 0x22A4 DUP8 PUSH20 0xFFFFFFFFFFFFFFFFFFFFFFFFFFFFFFFFFFFFFFFF AND PUSH1 0x0 MSTORE PUSH1 0x7 PUSH1 0x20 MSTORE PUSH1 0x40 PUSH1 0x0 KECCAK256 SWAP1 JUMP JUMPDEST ISZERO PUSH2 0x3833 JUMPI PUSH2 0x2568 JUMP JUMPDEST DUP1 MLOAD SWAP1 PUSH1 0x0 JUMPDEST DUP3 DUP2 LT PUSH2 0x39B7 JUMPI POP POP POP JUMP JUMPDEST DUP2 MLOAD DUP2 LT ISZERO PUSH2 0x29B2 JUMPI PUSH2 0x39D2 PUSH1 0x20 DUP3 PUSH1 0x5 SHL DUP5 ADD ADD MLOAD PUSH2 0x37CF JUMP JUMPDEST PUSH1 0x0 NOT DUP2 EQ PUSH2 0x206A JUMPI PUSH1 0x1 ADD PUSH2 0x39AB JUMP JUMPDEST SWAP6 SWAP5 SWAP4 SWAP3 SWAP2 SWAP1 PUSH20 0xFFFFFFFFFFFFFFFFFFFFFFFFFFFFFFFFFFFFFFFF PUSH32 0x0 AND CALLER EQ DUP1 ISZERO SWAP1 PUSH2 0x3B9F JUMPI JUMPDEST PUSH2 0x3B75 JUMPI DUP1 MLOAD SWAP1 PUSH8 0xFFFFFFFFFFFFFFFF DUP3 GT PUSH2 0xE9F JUMPI PUSH2 0x3A4F DUP3 PUSH2 0xFCC PUSH1 0xE SLOAD PUSH2 0x3307 JUMP JUMPDEST PUSH1 0x20 SWAP1 DUP2 PUSH1 0x1F DUP5 GT PUSH1 0x1 EQ PUSH2 0x3AF2 JUMPI POP SWAP4 PUSH2 0x3A98 PUSH2 0x3AA2 SWAP5 DUP5 PUSH2 0x3AC2 SWAP12 SWAP11 SWAP9 SWAP6 PUSH2 0x3A9D SWAP6 PUSH2 0x3ABD SWAP12 SWAP10 PUSH1 0x0 SWAP3 PUSH2 0x1007 JUMPI POP POP PUSH1 0x0 NOT DUP3 PUSH1 0x1 SHL SWAP3 PUSH1 0x3 SHL SHR NOT AND OR PUSH1 0xE SSTORE PUSH2 0x351E JUMP JUMPDEST PUSH2 0x3607 JUMP JUMPDEST PUSH2 0x36EB JUMP JUMPDEST PUSH2 0x3AAB DUP5 PUSH2 0x29B7 JUMP JUMPDEST PUSH2 0x3AB4 DUP5 PUSH2 0x2AAD JUMP JUMPDEST PUSH2 0x524 DUP5 PUSH2 0x2BC3 JUMP JUMPDEST PUSH2 0x2C3A JUMP JUMPDEST PUSH2 0xEF0 PUSH1 0x1 PUSH32 0xFFFFFFFFFFFFFFFFFFFFFFFFFFFFFFFFFFFFFFFFFFFFFFFFFFFFFFFFFFFFFF00 PUSH1 0x11 SLOAD AND OR PUSH1 0x11 SSTORE JUMP JUMPDEST PUSH1 0xE PUSH1 0x0 MSTORE SWAP2 SWAP1 PUSH1 0x1F NOT DUP5 AND PUSH32 0xBB7B4A454DC3493923482F07822329ED19E8244EFF582CC204F8554C3620C3FD SWAP4 PUSH1 0x0 SWAP1 JUMPDEST DUP3 DUP3 LT PUSH2 0x3B5D JUMPI POP POP SWAP5 PUSH1 0x1 DUP6 PUSH2 0x3A9D SWAP6 PUSH2 0x3ABD SWAP12 SWAP10 SWAP6 PUSH2 0x3A98 SWAP6 PUSH2 0x3AC2 SWAP16 SWAP15 SWAP13 SWAP10 PUSH2 0x3AA2 SWAP12 LT PUSH2 0x106C JUMPI POP POP POP DUP2 SHL ADD PUSH1 0xE SSTORE PUSH2 0x351E JUMP JUMPDEST DUP1 PUSH1 0x1 DUP7 SWAP8 DUP3 SWAP5 SWAP8 DUP8 ADD MLOAD DUP2 SSTORE ADD SWAP7 ADD SWAP5 ADD SWAP1 PUSH2 0x3B24 JUMP JUMPDEST PUSH1 0x4 PUSH1 0x40 MLOAD PUSH32 0xF92EE8A900000000000000000000000000000000000000000000000000000000 DUP2 MSTORE REVERT JUMPDEST POP PUSH1 0xFF PUSH1 0x11 SLOAD AND PUSH2 0x3A2A JUMP JUMPDEST ISZERO PUSH2 0x3BB2 JUMPI JUMP JUMPDEST PUSH1 0x84 PUSH1 0x40 MLOAD PUSH32 0x8C379A000000000000000000000000000000000000000000000000000000000 DUP2 MSTORE PUSH1 0x20 PUSH1 0x4 DUP3 ADD MSTORE PUSH1 0x2A PUSH1 0x24 DUP3 ADD MSTORE PUSH32 0x455243323938313A20726F79616C7479206665652077696C6C20657863656564 PUSH1 0x44 DUP3 ADD MSTORE PUSH32 0x2073616C65507269636500000000000000000000000000000000000000000000 PUSH1 0x64 DUP3 ADD MSTORE REVERT JUMPDEST PUSH20 0xFFFFFFFFFFFFFFFFFFFFFFFFFFFFFFFFFFFFFFFF PUSH12 0xFFFFFFFFFFFFFFFFFFFFFFFF DUP4 AND SWAP2 PUSH2 0x3C69 PUSH2 0x2710 DUP5 GT ISZERO PUSH2 0x3BAB JUMP JUMPDEST AND SWAP2 DUP3 ISZERO PUSH2 0x3CB0 JUMPI PUSH32 0xFFFFFFFFFFFFFFFFFFFFFFFF0000000000000000000000000000000000000000 SWAP2 PUSH1 0x20 PUSH1 0x40 MLOAD PUSH2 0x3CA1 DUP2 PUSH2 0xE83 JUMP JUMPDEST DUP6 DUP2 MSTORE ADD MSTORE PUSH1 0xA0 SHL AND OR PUSH1 0x9 SSTORE JUMP JUMPDEST PUSH1 0x64 PUSH1 0x40 MLOAD PUSH32 0x8C379A000000000000000000000000000000000000000000000000000000000 DUP2 MSTORE PUSH1 0x20 PUSH1 0x4 DUP3 ADD MSTORE PUSH1 0x19 PUSH1 0x24 DUP3 ADD MSTORE PUSH32 0x455243323938313A20696E76616C696420726563656976657200000000000000 PUSH1 0x44 DUP3 ADD MSTORE REVERT JUMPDEST PUSH2 0x3D17 DUP2 PUSH2 0x3DFD JUMP JUMPDEST SWAP1 DUP2 ISZERO PUSH2 0x3D65 JUMPI JUMPDEST DUP2 ISZERO PUSH2 0x3D3A JUMPI JUMPDEST DUP2 ISZERO PUSH2 0x3D30 JUMPI POP SWAP1 JUMP JUMPDEST PUSH2 0x584 SWAP2 POP PUSH2 0x3D76 JUMP JUMPDEST PUSH32 0xFFFFFFFF00000000000000000000000000000000000000000000000000000000 DUP2 AND ISZERO SWAP2 POP PUSH2 0x3D26 JUMP JUMPDEST SWAP1 POP PUSH2 0x3D70 DUP2 PUSH2 0x3D76 JUMP JUMPDEST SWAP1 PUSH2 0x3D1F JUMP JUMPDEST PUSH32 0xFFFFFFFF00000000000000000000000000000000000000000000000000000000 DUP2 AND SWAP1 PUSH32 0x5A05180F00000000000000000000000000000000000000000000000000000000 DUP3 EQ SWAP2 DUP3 ISZERO PUSH2 0x3DC9 JUMPI POP POP SWAP1 JUMP JUMPDEST PUSH32 0x7965DB0B00000000000000000000000000000000000000000000000000000000 EQ SWAP2 POP DUP2 ISZERO PUSH2 0x3DF7 JUMPI POP SWAP1 JUMP JUMPDEST PUSH2 0x584 SWAP2 POP JUMPDEST PUSH32 0xFFFFFFFF00000000000000000000000000000000000000000000000000000000 AND PUSH32 0x2A55205A00000000000000000000000000000000000000000000000000000000 DUP2 EQ SWAP1 DUP2 ISZERO PUSH2 0x3E4D JUMPI POP SWAP1 JUMP JUMPDEST PUSH32 0x1FFC9A700000000000000000000000000000000000000000000000000000000 SWAP2 POP EQ SWAP1 JUMP INVALID LOG2 PUSH5 0x6970667358 0x22 SLT KECCAK256 0xBA PUSH25 0xF6A4EC048D9FDE4856030466D089C55330F2269434CA1574D8 CALLDATALOAD 0xC6 0x28 SLOAD 0x2A PUSH5 0x736F6C6343 STOP ADDMOD SGT STOP CALLER "
				}
			},
			"userdoc": {
				"errors": {
					"ApprovalCallerNotOwnerNorApproved()": [
						{
							"notice": "The caller must own the token or be an approved operator."
						}
					],
					"ApprovalQueryForNonexistentToken()": [
						{
							"notice": "The token does not exist."
						}
					],
					"BalanceQueryForZeroAddress()": [
						{
							"notice": "Cannot query the balance for the zero address."
						}
					],
					"InvalidInitialization()": [
						{
							"notice": "Invalid initialization error."
						}
					],
					"InvalidQueryRange()": [
						{
							"notice": "Invalid query range (`start` >= `stop`)."
						}
					],
					"MintERC2309QuantityExceedsLimit()": [
						{
							"notice": "The `quantity` minted with ERC2309 exceeds the safety limit."
						}
					],
					"MintToZeroAddress()": [
						{
							"notice": "Cannot mint to the zero address."
						}
					],
					"MintZeroQuantity()": [
						{
							"notice": "The quantity of tokens minted must be more than zero."
						}
					],
					"NotCompatibleWithSpotMints()": [
						{
							"notice": "The feature is not compatible with spot mints."
						}
					],
					"OwnerQueryForNonexistentToken()": [
						{
							"notice": "The token does not exist."
						}
					],
					"OwnershipNotInitializedForExtraData()": [
						{
							"notice": "The `extraData` cannot be set on an unintialized ownership slot."
						}
					],
					"SequentialMintExceedsLimit()": [
						{
							"notice": "The `tokenId` of a sequential mint exceeds `_sequentialUpTo()`."
						}
					],
					"SequentialUpToTooSmall()": [
						{
							"notice": "`_sequentialUpTo()` must be greater than `_startTokenId()`."
						}
					],
					"SpotMintTokenIdTooSmall()": [
						{
							"notice": "Spot minting requires a `tokenId` greater than `_sequentialUpTo()`."
						}
					],
					"TokenAlreadyExists()": [
						{
							"notice": "Cannot mint over a token that already exists."
						}
					],
					"TransferCallerNotOwnerNorApproved()": [
						{
							"notice": "The caller must own the token or be an approved operator."
						}
					],
					"TransferFromIncorrectOwner()": [
						{
							"notice": "The token must be owned by `from`."
						}
					],
					"TransferToNonERC721ReceiverImplementer()": [
						{
							"notice": "Cannot safely transfer to a contract that does not implement the ERC721Receiver interface."
						}
					],
					"TransferToZeroAddress()": [
						{
							"notice": "Cannot transfer to the zero address."
						}
					],
					"URIQueryForNonexistentToken()": [
						{
							"notice": "The token does not exist."
						}
					]
				},
				"kind": "user",
				"methods": {
					"batchBurn(uint256[])": {
						"notice": "Allows the owner of the tokens to burn their tokens."
					},
					"burn(uint256)": {
						"notice": "Allows the owner of the token to burn their token."
					},
					"constructor": {
						"notice": "Deploy contract."
					},
					"contractURI()": {
						"notice": "Get the contract URI of token's URI.Refer to https://docs.opensea.io/docs/contract-level-metadata"
					},
					"initialize(address,string,string,string,string,address,uint96)": {
						"notice": "Initialize contract."
					},
					"mint(address,uint256)": {
						"notice": "Mint tokens."
					},
					"name()": {
						"notice": "Override the ERC721A name function."
					},
					"setBaseMetadataURI(string)": {
						"notice": "Update the base URI of token's URI."
					},
					"setContractURI(string)": {
						"notice": "Update the contract URI of token's URI.Refer to https://docs.opensea.io/docs/contract-level-metadata"
					},
					"setDefaultRoyalty(address,uint96)": {
						"notice": "Sets the royalty information that all ids in this contract will default to."
					},
					"setNameAndSymbol(string,string)": {
						"notice": "Set name and symbol of token."
					},
					"setTokenRoyalty(uint256,address,uint96)": {
						"notice": "Sets the royalty information that a given token id in this contract will use.This overrides the default royalty information for this token id"
					},
					"supportsInterface(bytes4)": {
						"notice": "Check interface support."
					},
					"symbol()": {
						"notice": "Override the ERC721A symbol function."
					}
				},
				"notice": "An implementation of ERC-721 capable of minting when role provided.",
				"version": 1
			}
		}
	}
}