{
	"src/tokens/ERC721/utility/sale/ERC721Sale.sol": {
		"ERC721Sale": {
			"abi": [
				{
					"inputs": [
						{
							"internalType": "address",
							"name": "currency",
							"type": "address"
						},
						{
							"internalType": "uint256",
							"name": "expected",
							"type": "uint256"
						},
						{
							"internalType": "uint256",
							"name": "actual",
							"type": "uint256"
						}
					],
					"name": "InsufficientPayment",
					"type": "error"
				},
				{
					"inputs": [
						{
							"internalType": "uint256",
							"name": "currentSupply",
							"type": "uint256"
						},
						{
							"internalType": "uint256",
							"name": "amount",
							"type": "uint256"
						},
						{
							"internalType": "uint256",
							"name": "maxSupply",
							"type": "uint256"
						}
					],
					"name": "InsufficientSupply",
					"type": "error"
				},
				{
					"inputs": [],
					"name": "InvalidInitialization",
					"type": "error"
				},
				{
					"inputs": [],
					"name": "InvalidSaleDetails",
					"type": "error"
				},
				{
					"inputs": [
						{
							"internalType": "bytes32",
							"name": "root",
							"type": "bytes32"
						},
						{
							"internalType": "bytes32[]",
							"name": "proof",
							"type": "bytes32[]"
						},
						{
							"internalType": "address",
							"name": "addr",
							"type": "address"
						},
						{
							"internalType": "bytes32",
							"name": "salt",
							"type": "bytes32"
						}
					],
					"name": "MerkleProofInvalid",
					"type": "error"
				},
				{
					"inputs": [],
					"name": "SaleInactive",
					"type": "error"
				},
				{
					"inputs": [],
					"name": "WithdrawFailed",
					"type": "error"
				},
				{
					"anonymous": false,
					"inputs": [
						{
							"indexed": true,
							"internalType": "bytes32",
							"name": "role",
							"type": "bytes32"
						},
						{
							"indexed": true,
							"internalType": "bytes32",
							"name": "previousAdminRole",
							"type": "bytes32"
						},
						{
							"indexed": true,
							"internalType": "bytes32",
							"name": "newAdminRole",
							"type": "bytes32"
						}
					],
					"name": "RoleAdminChanged",
					"type": "event"
				},
				{
					"anonymous": false,
					"inputs": [
						{
							"indexed": true,
							"internalType": "bytes32",
							"name": "role",
							"type": "bytes32"
						},
						{
							"indexed": true,
							"internalType": "address",
							"name": "account",
							"type": "address"
						},
						{
							"indexed": true,
							"internalType": "address",
							"name": "sender",
							"type": "address"
						}
					],
					"name": "RoleGranted",
					"type": "event"
				},
				{
					"anonymous": false,
					"inputs": [
						{
							"indexed": true,
							"internalType": "bytes32",
							"name": "role",
							"type": "bytes32"
						},
						{
							"indexed": true,
							"internalType": "address",
							"name": "account",
							"type": "address"
						},
						{
							"indexed": true,
							"internalType": "address",
							"name": "sender",
							"type": "address"
						}
					],
					"name": "RoleRevoked",
					"type": "event"
				},
				{
					"anonymous": false,
					"inputs": [
						{
							"indexed": false,
							"internalType": "uint256",
							"name": "supplyCap",
							"type": "uint256"
						},
						{
							"indexed": false,
							"internalType": "uint256",
							"name": "cost",
							"type": "uint256"
						},
						{
							"indexed": false,
							"internalType": "address",
							"name": "paymentToken",
							"type": "address"
						},
						{
							"indexed": false,
							"internalType": "uint64",
							"name": "startTime",
							"type": "uint64"
						},
						{
							"indexed": false,
							"internalType": "uint64",
							"name": "endTime",
							"type": "uint64"
						},
						{
							"indexed": false,
							"internalType": "bytes32",
							"name": "merkleRoot",
							"type": "bytes32"
						}
					],
					"name": "SaleDetailsUpdated",
					"type": "event"
				},
				{
					"inputs": [],
					"name": "DEFAULT_ADMIN_ROLE",
					"outputs": [
						{
							"internalType": "bytes32",
							"name": "",
							"type": "bytes32"
						}
					],
					"stateMutability": "view",
					"type": "function"
				},
				{
					"inputs": [
						{
							"internalType": "bytes32",
							"name": "root",
							"type": "bytes32"
						},
						{
							"internalType": "bytes32[]",
							"name": "proof",
							"type": "bytes32[]"
						},
						{
							"internalType": "address",
							"name": "addr",
							"type": "address"
						},
						{
							"internalType": "bytes32",
							"name": "salt",
							"type": "bytes32"
						}
					],
					"name": "checkMerkleProof",
					"outputs": [
						{
							"internalType": "bool",
							"name": "",
							"type": "bool"
						}
					],
					"stateMutability": "view",
					"type": "function"
				},
				{
					"inputs": [
						{
							"internalType": "bytes32",
							"name": "role",
							"type": "bytes32"
						}
					],
					"name": "getRoleAdmin",
					"outputs": [
						{
							"internalType": "bytes32",
							"name": "",
							"type": "bytes32"
						}
					],
					"stateMutability": "view",
					"type": "function"
				},
				{
					"inputs": [
						{
							"internalType": "bytes32",
							"name": "role",
							"type": "bytes32"
						},
						{
							"internalType": "uint256",
							"name": "index",
							"type": "uint256"
						}
					],
					"name": "getRoleMember",
					"outputs": [
						{
							"internalType": "address",
							"name": "",
							"type": "address"
						}
					],
					"stateMutability": "view",
					"type": "function"
				},
				{
					"inputs": [
						{
							"internalType": "bytes32",
							"name": "role",
							"type": "bytes32"
						}
					],
					"name": "getRoleMemberCount",
					"outputs": [
						{
							"internalType": "uint256",
							"name": "",
							"type": "uint256"
						}
					],
					"stateMutability": "view",
					"type": "function"
				},
				{
					"inputs": [
						{
							"internalType": "bytes32",
							"name": "role",
							"type": "bytes32"
						},
						{
							"internalType": "address",
							"name": "account",
							"type": "address"
						}
					],
					"name": "grantRole",
					"outputs": [],
					"stateMutability": "nonpayable",
					"type": "function"
				},
				{
					"inputs": [
						{
							"internalType": "bytes32",
							"name": "role",
							"type": "bytes32"
						},
						{
							"internalType": "address",
							"name": "account",
							"type": "address"
						}
					],
					"name": "hasRole",
					"outputs": [
						{
							"internalType": "bool",
							"name": "",
							"type": "bool"
						}
					],
					"stateMutability": "view",
					"type": "function"
				},
				{
					"inputs": [
						{
							"internalType": "address",
							"name": "owner",
							"type": "address"
						},
						{
							"internalType": "address",
							"name": "items",
							"type": "address"
						}
					],
					"name": "initialize",
					"outputs": [],
					"stateMutability": "nonpayable",
					"type": "function"
				},
				{
					"inputs": [],
					"name": "itemsContract",
					"outputs": [
						{
							"internalType": "address",
							"name": "",
							"type": "address"
						}
					],
					"stateMutability": "view",
					"type": "function"
				},
				{
					"inputs": [
						{
							"internalType": "address",
							"name": "to",
							"type": "address"
						},
						{
							"internalType": "uint256",
							"name": "amount",
							"type": "uint256"
						},
						{
							"internalType": "address",
							"name": "paymentToken",
							"type": "address"
						},
						{
							"internalType": "uint256",
							"name": "maxTotal",
							"type": "uint256"
						},
						{
							"internalType": "bytes32[]",
							"name": "proof",
							"type": "bytes32[]"
						}
					],
					"name": "mint",
					"outputs": [],
					"stateMutability": "payable",
					"type": "function"
				},
				{
					"inputs": [
						{
							"internalType": "bytes32",
							"name": "role",
							"type": "bytes32"
						},
						{
							"internalType": "address",
							"name": "account",
							"type": "address"
						}
					],
					"name": "renounceRole",
					"outputs": [],
					"stateMutability": "nonpayable",
					"type": "function"
				},
				{
					"inputs": [
						{
							"internalType": "bytes32",
							"name": "role",
							"type": "bytes32"
						},
						{
							"internalType": "address",
							"name": "account",
							"type": "address"
						}
					],
					"name": "revokeRole",
					"outputs": [],
					"stateMutability": "nonpayable",
					"type": "function"
				},
				{
					"inputs": [],
					"name": "saleDetails",
					"outputs": [
						{
							"components": [
								{
									"internalType": "uint256",
									"name": "supplyCap",
									"type": "uint256"
								},
								{
									"internalType": "uint256",
									"name": "cost",
									"type": "uint256"
								},
								{
									"internalType": "address",
									"name": "paymentToken",
									"type": "address"
								},
								{
									"internalType": "uint64",
									"name": "startTime",
									"type": "uint64"
								},
								{
									"internalType": "uint64",
									"name": "endTime",
									"type": "uint64"
								},
								{
									"internalType": "bytes32",
									"name": "merkleRoot",
									"type": "bytes32"
								}
							],
							"internalType": "struct IERC721SaleFunctions.SaleDetails",
							"name": "",
							"type": "tuple"
						}
					],
					"stateMutability": "view",
					"type": "function"
				},
				{
					"inputs": [
						{
							"internalType": "uint256",
							"name": "supplyCap",
							"type": "uint256"
						},
						{
							"internalType": "uint256",
							"name": "cost",
							"type": "uint256"
						},
						{
							"internalType": "address",
							"name": "paymentToken",
							"type": "address"
						},
						{
							"internalType": "uint64",
							"name": "startTime",
							"type": "uint64"
						},
						{
							"internalType": "uint64",
							"name": "endTime",
							"type": "uint64"
						},
						{
							"internalType": "bytes32",
							"name": "merkleRoot",
							"type": "bytes32"
						}
					],
					"name": "setSaleDetails",
					"outputs": [],
					"stateMutability": "nonpayable",
					"type": "function"
				},
				{
					"inputs": [
						{
							"internalType": "bytes4",
							"name": "interfaceId",
							"type": "bytes4"
						}
					],
					"name": "supportsInterface",
					"outputs": [
						{
							"internalType": "bool",
							"name": "",
							"type": "bool"
						}
					],
					"stateMutability": "view",
					"type": "function"
				},
				{
					"inputs": [
						{
							"internalType": "address",
							"name": "token",
							"type": "address"
						},
						{
							"internalType": "address",
							"name": "to",
							"type": "address"
						},
						{
							"internalType": "uint256",
							"name": "value",
							"type": "uint256"
						}
					],
					"name": "withdrawERC20",
					"outputs": [],
					"stateMutability": "nonpayable",
					"type": "function"
				},
				{
					"inputs": [
						{
							"internalType": "address",
							"name": "to",
							"type": "address"
						},
						{
							"internalType": "uint256",
							"name": "value",
							"type": "uint256"
						}
					],
					"name": "withdrawETH",
					"outputs": [],
					"stateMutability": "nonpayable",
					"type": "function"
				}
			],
			"devdoc": {
				"errors": {
					"InsufficientPayment(address,uint256,uint256)": [
						{
							"params": {
								"actual": "Actual amount of tokens.",
								"currency": "Currency address. address(0) indicates ETH.",
								"expected": "Expected amount of tokens."
							}
						}
					],
					"InsufficientSupply(uint256,uint256,uint256)": [
						{
							"params": {
								"amount": "Amount to mint.",
								"currentSupply": "Current supply.",
								"maxSupply": "Maximum supply."
							}
						}
					],
					"MerkleProofInvalid(bytes32,bytes32[],address,bytes32)": [
						{
							"params": {
								"addr": "Address to check.",
								"proof": "Merkle proof.",
								"root": "Merkle root.",
								"salt": "Salt used to generate the merkle leaf."
							}
						}
					]
				},
				"events": {
					"RoleAdminChanged(bytes32,bytes32,bytes32)": {
						"details": "Emitted when `newAdminRole` is set as ``role``'s admin role, replacing `previousAdminRole` `DEFAULT_ADMIN_ROLE` is the starting admin for all roles, despite {RoleAdminChanged} not being emitted signaling this. _Available since v3.1._"
					},
					"RoleGranted(bytes32,address,address)": {
						"details": "Emitted when `account` is granted `role`. `sender` is the account that originated the contract call, an admin role bearer except when using {AccessControl-_setupRole}."
					},
					"RoleRevoked(bytes32,address,address)": {
						"details": "Emitted when `account` is revoked `role`. `sender` is the account that originated the contract call:   - if using `revokeRole`, it is the admin role bearer   - if using `renounceRole`, it is the role bearer (i.e. `account`)"
					}
				},
				"kind": "dev",
				"methods": {
					"checkMerkleProof(bytes32,bytes32[],address,bytes32)": {
						"params": {
							"addr": "Address to check.",
							"proof": "Merkle proof.",
							"root": "Merkle root.",
							"salt": "Salt used to generate the merkle leaf."
						},
						"returns": {
							"_0": "True if the proof is valid and has not yet been used by {addr}."
						}
					},
					"getRoleAdmin(bytes32)": {
						"details": "Returns the admin role that controls `role`. See {grantRole} and {revokeRole}. To change a role's admin, use {_setRoleAdmin}."
					},
					"getRoleMember(bytes32,uint256)": {
						"details": "Returns one of the accounts that have `role`. `index` must be a value between 0 and {getRoleMemberCount}, non-inclusive. Role bearers are not sorted in any particular way, and their ordering may change at any point. WARNING: When using {getRoleMember} and {getRoleMemberCount}, make sure you perform all queries on the same block. See the following https://forum.openzeppelin.com/t/iterating-over-elements-on-enumerableset-in-openzeppelin-contracts/2296[forum post] for more information."
					},
					"getRoleMemberCount(bytes32)": {
						"details": "Returns the number of accounts that have `role`. Can be used together with {getRoleMember} to enumerate all bearers of a role."
					},
					"grantRole(bytes32,address)": {
						"details": "Grants `role` to `account`. If `account` had not been already granted `role`, emits a {RoleGranted} event. Requirements: - the caller must have ``role``'s admin role. May emit a {RoleGranted} event."
					},
					"hasRole(bytes32,address)": {
						"details": "Returns `true` if `account` has been granted `role`."
					},
					"initialize(address,address)": {
						"details": "This should be called immediately after deployment.",
						"params": {
							"items": "The ERC-721 Items contract address",
							"owner": "The owner of the contract"
						}
					},
					"mint(address,uint256,address,uint256,bytes32[])": {
						"details": "An empty proof is supplied when no proof is required.`paymentToken` must match the `paymentToken` in the sale details.",
						"params": {
							"amount": "Amount of tokens to mint.",
							"maxTotal": "Maximum amount of payment tokens.",
							"paymentToken": "ERC20 token address to accept payment in. address(0) indicates ETH.",
							"proof": "Merkle proof for allowlist minting.",
							"to": "Address to mint tokens to."
						}
					},
					"renounceRole(bytes32,address)": {
						"details": "Revokes `role` from the calling account. Roles are often managed via {grantRole} and {revokeRole}: this function's purpose is to provide a mechanism for accounts to lose their privileges if they are compromised (such as when a trusted device is misplaced). If the calling account had been revoked `role`, emits a {RoleRevoked} event. Requirements: - the caller must be `account`. May emit a {RoleRevoked} event."
					},
					"revokeRole(bytes32,address)": {
						"details": "Revokes `role` from `account`. If `account` had been granted `role`, emits a {RoleRevoked} event. Requirements: - the caller must have ``role``'s admin role. May emit a {RoleRevoked} event."
					},
					"saleDetails()": {
						"returns": {
							"_0": "Sale details."
						}
					},
					"setSaleDetails(uint256,uint256,address,uint64,uint64,bytes32)": {
						"details": "A zero end time indicates an inactive sale.",
						"params": {
							"cost": "The amount of payment tokens to accept for each token minted.",
							"endTime": "The end time of the sale. Tokens cannot be minted after this time.",
							"merkleRoot": "The merkle root for allowlist minting.",
							"paymentToken": "The ERC20 token address to accept payment in. address(0) indicates ETH.",
							"startTime": "The start time of the sale. Tokens cannot be minted before this time.",
							"supplyCap": "The maximum number of tokens that can be minted. 0 indicates unlimited supply."
						}
					},
					"supportsInterface(bytes4)": {
						"params": {
							"interfaceId": "Interface id"
						},
						"returns": {
							"_0": "True if supported"
						}
					},
					"withdrawERC20(address,address,uint256)": {
						"params": {
							"to": "Address to withdraw to.",
							"token": "The ERC20 token address.",
							"value": "Amount to withdraw."
						}
					},
					"withdrawETH(address,uint256)": {
						"params": {
							"to": "Address to withdraw to.",
							"value": "Amount to withdraw."
						}
					}
				},
				"version": 1
			},
			"evm": {
				"bytecode": {
					"linkReferences": {},
					"object": "608080604052346100165761244b908161001c8239f35b600080fdfe608060408181526004908136101561001657600080fd5b600092833560e01c90816301ffc9a714611673575080630668d0bb14610f3b578063248a9ca314610f115780632f2ff15d14610e915780633474a4a614610dc057806336568abe14610cf957806344004cc114610c255780634782f77914610bc2578063485cc955146108bf5780638c17030f146104475780639010d07c146103f857806391d14854146103a5578063a217fddf1461038a578063a971e8421461034e578063bad4366114610146578063ca15c8731461011e5763d547741f146100df57600080fd5b3461011a578060031936011261011a57610117913561011260016101016117be565b938387528660205286200154611aab565b611d16565b80f35b8280fd5b50903461011a57602060031936011261011a5760209282913581526001845220549051908152f35b503461011a57608060031936011261011a578135602490813567ffffffffffffffff9586821161034b575061017e90369086016117e1565b949061018861179b565b9573ffffffffffffffffffffffffffffffffffffffff8716600052602097600289528660002085600052895260ff8760002054161597886101cf575b898989519015158152f35b9091929497508695989396517fffffffffffffffffffffffffffffffffffffffff0000000000000000000000008582019260601b16825260643560348201526034815261021b81611c53565b51902090821161031e5760059382851b86519361023a86830186611c8b565b845284840190820191368311610319578590915b8383106103095750505050926000935b82518510156102f25784821b830184015190866000838310156102e55750506000528352846000205b937fffffffffffffffffffffffffffffffffffffffffffffffffffffffffffffffff81146102b8576001019361025e565b886011887f4e487b7100000000000000000000000000000000000000000000000000000000600052526000fd5b9190928252855220610287565b9496955050509450501490388080808080806101c4565b823581529181019186910161024e565b600080fd5b876041877f4e487b7100000000000000000000000000000000000000000000000000000000600052526000fd5b80fd5b83823461038657816003193601126103865760209073ffffffffffffffffffffffffffffffffffffffff60035460081c169051908152f35b5080fd5b83823461038657816003193601126103865751908152602090f35b50903461011a578160031936011261011a5773ffffffffffffffffffffffffffffffffffffffff826020946103d86117be565b93358152808652209116600052825260ff81600020541690519015158152f35b50903461011a578160031936011261011a5761043860209373ffffffffffffffffffffffffffffffffffffffff9235815260018552836024359120611f7e565b92905490519260031b1c168152f35b50903461011a5760c060031936011261011a5780359160249081359061046b61179b565b906064359267ffffffffffffffff9485851694858103610319576084359687168097036103195760a435977f4c02318d8c3aadc98ccf18aebbf3126f651e0c3f6a1de5ff8edcf6724a2ad5c280600052602093600085528660002033600052855260ff87600020541615610628575050868810801561061e575b6105f7579189979593917fabec13ca1773eed55d54d2f64593c33fa520ee45cac73a162f13928a2ebee2339a86948b60a073ffffffffffffffffffffffffffffffffffffffff60c09e9c9a519961053b8b611c08565b858b5288888c0152169889898201528a60608201528b608082015201525582600555847fffffffff000000000000000000000000000000000000000000000000000000007bffffffffffffffff00000000000000000000000000000000000000006006549360a01b1692161717600655857fffffffffffffffffffffffffffffffffffffffffffffffff000000000000000060075416176007558660085582519788528701528501526060840152608083015260a0820152a180f35b84517f85d4a748000000000000000000000000000000000000000000000000000000008152fd5b50428811156104e5565b919450915061063633611e09565b85519161064283611c6f565b604283528483019360603686378351156108925760308553835160019081101561086557607860218601536041905b80821161079d575050610742575061073e938693610710936107016048946106cc9a519a857f416363657373436f6e74726f6c3a206163636f756e74200000000000000000008d978801528251928391603789019101611be5565b8401917f206973206d697373696e6720726f6c6520000000000000000000000000000000603784015251809386840190611be5565b01036028810187520185611c8b565b519283927f08c379a00000000000000000000000000000000000000000000000000000000084528301611ccc565b0390fd5b925050508160649451937f08c379a00000000000000000000000000000000000000000000000000000000085528401528201527f537472696e67733a20686578206c656e67746820696e73756666696369656e746044820152fd5b9091600f81166010811015610838577f3031323334353637383961626364656600000000000000000000000000000000901a6107d98488611dc9565b53881c91801561080b577fffffffffffffffffffffffffffffffffffffffffffffffffffffffffffffffff0190610671565b8360118a7f4e487b7100000000000000000000000000000000000000000000000000000000600052526000fd5b8460328b7f4e487b7100000000000000000000000000000000000000000000000000000000600052526000fd5b826032897f4e487b7100000000000000000000000000000000000000000000000000000000600052526000fd5b506032867f4e487b7100000000000000000000000000000000000000000000000000000000600052526000fd5b50903461011a578160031936011261011a576108d9611778565b906108e26117be565b6003549160ff8316610b9b5750907fffffffffffffffffffffff0000000000000000000000000000000000000000ff74ffffffffffffffffffffffffffffffffffffffff00610a2c949360081b16911617600355600080526020926000845273ffffffffffffffffffffffffffffffffffffffff8160002092169182600052845260ff81600020541615610b2f575b60008052600184818096526109898484600020611f96565b507f4c02318d8c3aadc98ccf18aebbf3126f651e0c3f6a1de5ff8edcf6724a2ad5c280600052600082528360002085600052825260ff84600020541615610ac4575b6000528181526109de8484600020611f96565b507f5d8e12c39142ff96d79d04d15d1ba1269e4fe57bb9d26f43523628b34ba108ec80600052600082528360002085600052825260ff84600020541615610a59575b60005252600020611f96565b507fffffffffffffffffffffffffffffffffffffffffffffffffffffffffffffff00600354161760035580f35b80600052600082528360002085600052825283600020837fffffffffffffffffffffffffffffffffffffffffffffffffffffffffffffff008254161790553385827f2f8788117e7eff1d82e926ec794901d17c78024a50270940304540a733656f0d600080a4610a20565b80600052600082528360002085600052825283600020837fffffffffffffffffffffffffffffffffffffffffffffffffffffffffffffff008254161790553385827f2f8788117e7eff1d82e926ec794901d17c78024a50270940304540a733656f0d600080a46109cb565b6000805260008452806000208260005284528060002060017fffffffffffffffffffffffffffffffffffffffffffffffffffffffffffffff00825416179055338260007f2f8788117e7eff1d82e926ec794901d17c78024a50270940304540a733656f0d8180a4610971565b84517ff92ee8a9000000000000000000000000000000000000000000000000000000008152fd5b503461011a578060031936011261011a5782808080610bdf611778565b610be7611812565b602435905af1610bf56122f3565b5015610bff578280f35b517f750b219c000000000000000000000000000000000000000000000000000000008152fd5b83823461038657606060031936011261038657610cc773ffffffffffffffffffffffffffffffffffffffff61011792610cf3610c5f611778565b91610c686117be565b90610c71611812565b517fa9059cbb00000000000000000000000000000000000000000000000000000000602082015273ffffffffffffffffffffffffffffffffffffffff909116602482015260448035908201529384906064820190565b037fffffffffffffffffffffffffffffffffffffffffffffffffffffffffffffffe08101855284611c8b565b166121b0565b50919034610386578260031936011261038657610d146117be565b903373ffffffffffffffffffffffffffffffffffffffff831603610d3d57906101179135611d16565b60849060208551917f08c379a0000000000000000000000000000000000000000000000000000000008352820152602f60248201527f416363657373436f6e74726f6c3a2063616e206f6e6c792072656e6f756e636560448201527f20726f6c657320666f722073656c6600000000000000000000000000000000006064820152fd5b50903461011a578260031936011261011a5760c09260a08351610de281611c08565b82815282602082015282858201528260608201528260808201520152815190610e0a82611c08565b5491828252600554602083019081526006548284019273ffffffffffffffffffffffffffffffffffffffff908183168552606086019167ffffffffffffffff9586809560a01c1684528460075416956080890196875260a060085499019889528351998a525160208a015251169087015251166060850152511660808301525160a0820152f35b503461011a578060031936011261011a57610f0d9135906001610eb26117be565b92808652602090868252610eca838589200154611aab565b806000526000825273ffffffffffffffffffffffffffffffffffffffff8460002095169485600052825260ff84600020541615610a595760005252600020611f96565b5080f35b50903461011a57602060031936011261011a57816020936001923581528085522001549051908152f35b5060a060031936011261011a57610f50611778565b91610f5961179b565b9067ffffffffffffffff60843581811161166f57610f7a90369084016117e1565b600354908651927f18160ddd0000000000000000000000000000000000000000000000000000000084526020938481888173ffffffffffffffffffffffffffffffffffffffff809860081c165afa908115611665578b91611634575b50865490811515806115f4575b6115b75750508460065460a01c16856007541680159182156115ad575b5081156115a2575b5061157a57600854918261131a575b505050600554602495863593848302928084048614901517156112ef578360065416848316908082036112b5575060643584811061125a5750806111815750508134036111255750509087915b60035460081c16803b1561011a576110cd97838851809a819582947f40c10f190000000000000000000000000000000000000000000000000000000084528a84016020909392919373ffffffffffffffffffffffffffffffffffffffff60408201951681520152565b03925af1801561111b576110df578580f35b84116110f15750505238808080808580f35b604185917f4e487b7100000000000000000000000000000000000000000000000000000000835252fd5b84513d88823e3d90fd5b61073e8689519384937f1eabcfbe0000000000000000000000000000000000000000000000000000000085523492850160409194939273ffffffffffffffffffffffffffffffffffffffff606083019616825260208201520152565b989a96999698909290915034156111cc5760648a8a8a818f51937f1eabcfbe000000000000000000000000000000000000000000000000000000008552840152820152346044820152fd5b7f23b872dd000000000000000000000000000000000000000000000000000000008b999b9a979a5193840152338884015230604484015260648301526064825260a082018281108682111761122f5788528993929161122a916121b0565b611064565b878b6041897f4e487b7100000000000000000000000000000000000000000000000000000000835252fd5b8a517f1eabcfbe00000000000000000000000000000000000000000000000000000000815273ffffffffffffffffffffffffffffffffffffffff8516818b019081526020810187905260408101929092529081906060010390fd5b888d868c6064948f51947f1eabcfbe0000000000000000000000000000000000000000000000000000000086528501528301526044820152fd5b878b6011897f4e487b7100000000000000000000000000000000000000000000000000000000835252fd5b338b5260028552888b20838c52855260ff898c2054161580611403575b1561138157505033895260028352868920908952825285882060017fffffffffffffffffffffffffffffffffffffffffffffffffffffffffffffff00825416179055388080611017565b8a9087938a51947f265c66a8000000000000000000000000000000000000000000000000000000008652850152608060248501528060848501527f07ffffffffffffffffffffffffffffffffffffffffffffffffffffffffffffff81116103865791839160a49360051b80928585013733604484015260648301528101030190fd5b50999892889792949591969851868101907fffffffffffffffffffffffffffffffffffffffff0000000000000000000000003360601b1682528b60348201526034815261144f81611c53565b51902094828c1161154e5788519560059594939291908d871b8e6114758b83018b611c8b565b89528a0189890136821161154a578a8c915b83831061153a5750505050988c995b88518b1015611523578a881b89018a0151908e82821015611515575289528a8d205b997fffffffffffffffffffffffffffffffffffffffffffffffffffffffffffffffff81146114e95760010199611496565b60248e60118f7f4e487b7100000000000000000000000000000000000000000000000000000000835252fd5b9190915289528a8d206114b8565b91959c9d9398975093999a98508491955014611337565b82358152918101918c9101611487565b8e80fd5b60248b60418c7f4e487b7100000000000000000000000000000000000000000000000000000000835252fd5b8588517f3f886774000000000000000000000000000000000000000000000000000000008152fd5b905042101538611008565b4210915038611000565b60649188918b51927fa922783000000000000000000000000000000000000000000000000000000000845283015260243560248301526044820152fd5b506024358101808211611608578210610fe3565b60248d60118b7f4e487b7100000000000000000000000000000000000000000000000000000000835252fd5b90508481813d831161165e575b61164b8183611c8b565b8101031261165a575138610fd6565b8a80fd5b503d611641565b89513d8d823e3d90fd5b8680fd5b8490843461011a57602060031936011261011a57357fffffffff00000000000000000000000000000000000000000000000000000000811680910361011a57602092507fbe0b77120000000000000000000000000000000000000000000000000000000081149081156116e8575b5015158152f35b7f5a05180f0000000000000000000000000000000000000000000000000000000081149150811561171b575b50836116e1565b7f7965db0b0000000000000000000000000000000000000000000000000000000081149150811561174e575b5083611714565b7f01ffc9a70000000000000000000000000000000000000000000000000000000091501483611747565b6004359073ffffffffffffffffffffffffffffffffffffffff8216820361031957565b6044359073ffffffffffffffffffffffffffffffffffffffff8216820361031957565b6024359073ffffffffffffffffffffffffffffffffffffffff8216820361031957565b9181601f840112156103195782359167ffffffffffffffff8311610319576020808501948460051b01011161031957565b3360009081527f20be27040b8e00df40bca0df34743417f3574a156386188f7d7f14369e5ee82b60209081526040808320549092907f5d8e12c39142ff96d79d04d15d1ba1269e4fe57bb9d26f43523628b34ba108ec9060ff16156118775750505050565b61188033611e09565b84519161188c83611c6f565b60428352848301936060368637835115611a7e5760308553835190600191821015611a7e5790607860218601536041915b8183116119b357505050611957576106cc9385936119279361191860489461073e995198857f416363657373436f6e74726f6c3a206163636f756e74200000000000000000008b978801528251928391603789019101611be5565b01036028810185520183611c8b565b519182917f08c379a000000000000000000000000000000000000000000000000000000000835260048301611ccc565b6064848651907f08c379a000000000000000000000000000000000000000000000000000000000825280600483015260248201527f537472696e67733a20686578206c656e67746820696e73756666696369656e746044820152fd5b909192600f81166010811015611a51577f3031323334353637383961626364656600000000000000000000000000000000901a6119f08588611dc9565b5360041c928015611a24577fffffffffffffffffffffffffffffffffffffffffffffffffffffffffffffffff0191906118bd565b6024827f4e487b710000000000000000000000000000000000000000000000000000000081526011600452fd5b6024837f4e487b710000000000000000000000000000000000000000000000000000000081526032600452fd5b807f4e487b7100000000000000000000000000000000000000000000000000000000602492526032600452fd5b6000818152602090808252604092838220338352835260ff848320541615611ad35750505050565b611adc33611e09565b845191611ae883611c6f565b60428352848301936060368637835115611a7e5760308553835190600191821015611a7e5790607860218601536041915b818311611b7457505050611957576106cc9385936119279361191860489461073e995198857f416363657373436f6e74726f6c3a206163636f756e74200000000000000000008b978801528251928391603789019101611be5565b909192600f81166010811015611a51577f3031323334353637383961626364656600000000000000000000000000000000901a611bb18588611dc9565b5360041c928015611a24577fffffffffffffffffffffffffffffffffffffffffffffffffffffffffffffffff019190611b19565b60005b838110611bf85750506000910152565b8181015183820152602001611be8565b60c0810190811067ffffffffffffffff821117611c2457604052565b7f4e487b7100000000000000000000000000000000000000000000000000000000600052604160045260246000fd5b6060810190811067ffffffffffffffff821117611c2457604052565b6080810190811067ffffffffffffffff821117611c2457604052565b90601f7fffffffffffffffffffffffffffffffffffffffffffffffffffffffffffffffe0910116810190811067ffffffffffffffff821117611c2457604052565b7fffffffffffffffffffffffffffffffffffffffffffffffffffffffffffffffe0601f60409360208452611d0f8151809281602088015260208888019101611be5565b0116010190565b906040611d61926000908082528160205273ffffffffffffffffffffffffffffffffffffffff83832094169384835260205260ff8383205416611d64575b8152600160205220612057565b50565b808252816020528282208483526020528282207fffffffffffffffffffffffffffffffffffffffffffffffffffffffffffffff0081541690553384827ff6391f5c32d9c69d2a47ea670b442974b53935d1edc7fd64eb21e047a839171b8580a4611d54565b908151811015611dda570160200190565b7f4e487b7100000000000000000000000000000000000000000000000000000000600052603260045260246000fd5b60405190611e1682611c53565b602a8252602082016040368237825115611dda57603090538151600190811015611dda57607860218401536029905b808211611eb3575050611e555790565b60646040517f08c379a000000000000000000000000000000000000000000000000000000000815260206004820152602060248201527f537472696e67733a20686578206c656e67746820696e73756666696369656e746044820152fd5b9091600f81166010811015611f50577f3031323334353637383961626364656600000000000000000000000000000000901a611eef8486611dc9565b5360041c918015611f22577fffffffffffffffffffffffffffffffffffffffffffffffffffffffffffffffff0190611e45565b602460007f4e487b710000000000000000000000000000000000000000000000000000000081526011600452fd5b602460007f4e487b710000000000000000000000000000000000000000000000000000000081526032600452fd5b8054821015611dda5760005260206000200190600090565b9190600183016000908282528060205260408220541560001461205157845494680100000000000000008610156120245783612014611fdf886001604098999a01855584611f7e565b81939154907fffffffffffffffffffffffffffffffffffffffffffffffffffffffffffffffff9060031b92831b921b19161790565b9055549382526020522055600190565b6024837f4e487b710000000000000000000000000000000000000000000000000000000081526041600452fd5b50925050565b906001820190600092818452826020526040842054908115156000146121a9577fffffffffffffffffffffffffffffffffffffffffffffffffffffffffffffffff9182810181811161217c5782549084820191821161214f5780820361211a575b505050805480156120ed578201916120d08383611f7e565b909182549160031b1b191690555582526020526040812055600190565b6024867f4e487b710000000000000000000000000000000000000000000000000000000081526031600452fd5b61213a61212a611fdf9386611f7e565b90549060031b1c92839286611f7e565b905586528460205260408620553880806120b8565b6024887f4e487b710000000000000000000000000000000000000000000000000000000081526011600452fd5b6024877f4e487b710000000000000000000000000000000000000000000000000000000081526011600452fd5b5050505090565b73ffffffffffffffffffffffffffffffffffffffff1690604051604081019080821067ffffffffffffffff831117611c2457612230916040526020938482527f5361666545524332303a206c6f772d6c6576656c2063616c6c206661696c6564858301526000808587829751910182855af161222a6122f3565b91612351565b8051918215918483156122cf575b50505090501561224b5750565b608490604051907f08c379a00000000000000000000000000000000000000000000000000000000082526004820152602a60248201527f5361666545524332303a204552433230206f7065726174696f6e20646964206e60448201527f6f742073756363656564000000000000000000000000000000000000000000006064820152fd5b9193818094500103126103865782015190811515820361034b57508038808461223e565b3d1561234c573d9067ffffffffffffffff8211611c24576040519161234060207fffffffffffffffffffffffffffffffffffffffffffffffffffffffffffffffe0601f8401160184611c8b565b82523d6000602084013e565b606090565b919290156123cc5750815115612365575090565b3b1561236e5790565b60646040517f08c379a000000000000000000000000000000000000000000000000000000000815260206004820152601d60248201527f416464726573733a2063616c6c20746f206e6f6e2d636f6e74726163740000006044820152fd5b8251909150156123df5750805190602001fd5b61073e906040519182917f08c379a000000000000000000000000000000000000000000000000000000000835260048301611ccc56fea2646970667358221220cb5d9e6b16161fa2406381893f6870b673d77d593c20d02145f96d674ba8a4e464736f6c63430008130033",
					"opcodes": "PUSH1 0x80 DUP1 PUSH1 0x40 MSTORE CALLVALUE PUSH2 0x16 JUMPI PUSH2 0x244B SWAP1 DUP2 PUSH2 0x1C DUP3 CODECOPY RETURN JUMPDEST PUSH1 0x0 DUP1 REVERT INVALID PUSH1 0x80 PUSH1 0x40 DUP2 DUP2 MSTORE PUSH1 0x4 SWAP1 DUP2 CALLDATASIZE LT ISZERO PUSH2 0x16 JUMPI PUSH1 0x0 DUP1 REVERT JUMPDEST PUSH1 0x0 SWAP3 DUP4 CALLDATALOAD PUSH1 0xE0 SHR SWAP1 DUP2 PUSH4 0x1FFC9A7 EQ PUSH2 0x1673 JUMPI POP DUP1 PUSH4 0x668D0BB EQ PUSH2 0xF3B JUMPI DUP1 PUSH4 0x248A9CA3 EQ PUSH2 0xF11 JUMPI DUP1 PUSH4 0x2F2FF15D EQ PUSH2 0xE91 JUMPI DUP1 PUSH4 0x3474A4A6 EQ PUSH2 0xDC0 JUMPI DUP1 PUSH4 0x36568ABE EQ PUSH2 0xCF9 JUMPI DUP1 PUSH4 0x44004CC1 EQ PUSH2 0xC25 JUMPI DUP1 PUSH4 0x4782F779 EQ PUSH2 0xBC2 JUMPI DUP1 PUSH4 0x485CC955 EQ PUSH2 0x8BF JUMPI DUP1 PUSH4 0x8C17030F EQ PUSH2 0x447 JUMPI DUP1 PUSH4 0x9010D07C EQ PUSH2 0x3F8 JUMPI DUP1 PUSH4 0x91D14854 EQ PUSH2 0x3A5 JUMPI DUP1 PUSH4 0xA217FDDF EQ PUSH2 0x38A JUMPI DUP1 PUSH4 0xA971E842 EQ PUSH2 0x34E JUMPI DUP1 PUSH4 0xBAD43661 EQ PUSH2 0x146 JUMPI DUP1 PUSH4 0xCA15C873 EQ PUSH2 0x11E JUMPI PUSH4 0xD547741F EQ PUSH2 0xDF JUMPI PUSH1 0x0 DUP1 REVERT JUMPDEST CALLVALUE PUSH2 0x11A JUMPI DUP1 PUSH1 0x3 NOT CALLDATASIZE ADD SLT PUSH2 0x11A JUMPI PUSH2 0x117 SWAP2 CALLDATALOAD PUSH2 0x112 PUSH1 0x1 PUSH2 0x101 PUSH2 0x17BE JUMP JUMPDEST SWAP4 DUP4 DUP8 MSTORE DUP7 PUSH1 0x20 MSTORE DUP7 KECCAK256 ADD SLOAD PUSH2 0x1AAB JUMP JUMPDEST PUSH2 0x1D16 JUMP JUMPDEST DUP1 RETURN JUMPDEST DUP3 DUP1 REVERT JUMPDEST POP SWAP1 CALLVALUE PUSH2 0x11A JUMPI PUSH1 0x20 PUSH1 0x3 NOT CALLDATASIZE ADD SLT PUSH2 0x11A JUMPI PUSH1 0x20 SWAP3 DUP3 SWAP2 CALLDATALOAD DUP2 MSTORE PUSH1 0x1 DUP5 MSTORE KECCAK256 SLOAD SWAP1 MLOAD SWAP1 DUP2 MSTORE RETURN JUMPDEST POP CALLVALUE PUSH2 0x11A JUMPI PUSH1 0x80 PUSH1 0x3 NOT CALLDATASIZE ADD SLT PUSH2 0x11A JUMPI DUP2 CALLDATALOAD PUSH1 0x24 SWAP1 DUP2 CALLDATALOAD PUSH8 0xFFFFFFFFFFFFFFFF SWAP6 DUP7 DUP3 GT PUSH2 0x34B JUMPI POP PUSH2 0x17E SWAP1 CALLDATASIZE SWAP1 DUP7 ADD PUSH2 0x17E1 JUMP JUMPDEST SWAP5 SWAP1 PUSH2 0x188 PUSH2 0x179B JUMP JUMPDEST SWAP6 PUSH20 0xFFFFFFFFFFFFFFFFFFFFFFFFFFFFFFFFFFFFFFFF DUP8 AND PUSH1 0x0 MSTORE PUSH1 0x20 SWAP8 PUSH1 0x2 DUP10 MSTORE DUP7 PUSH1 0x0 KECCAK256 DUP6 PUSH1 0x0 MSTORE DUP10 MSTORE PUSH1 0xFF DUP8 PUSH1 0x0 KECCAK256 SLOAD AND ISZERO SWAP8 DUP9 PUSH2 0x1CF JUMPI JUMPDEST DUP10 DUP10 DUP10 MLOAD SWAP1 ISZERO ISZERO DUP2 MSTORE RETURN JUMPDEST SWAP1 SWAP2 SWAP3 SWAP5 SWAP8 POP DUP7 SWAP6 SWAP9 SWAP4 SWAP7 MLOAD PUSH32 0xFFFFFFFFFFFFFFFFFFFFFFFFFFFFFFFFFFFFFFFF000000000000000000000000 DUP6 DUP3 ADD SWAP3 PUSH1 0x60 SHL AND DUP3 MSTORE PUSH1 0x64 CALLDATALOAD PUSH1 0x34 DUP3 ADD MSTORE PUSH1 0x34 DUP2 MSTORE PUSH2 0x21B DUP2 PUSH2 0x1C53 JUMP JUMPDEST MLOAD SWAP1 KECCAK256 SWAP1 DUP3 GT PUSH2 0x31E JUMPI PUSH1 0x5 SWAP4 DUP3 DUP6 SHL DUP7 MLOAD SWAP4 PUSH2 0x23A DUP7 DUP4 ADD DUP7 PUSH2 0x1C8B JUMP JUMPDEST DUP5 MSTORE DUP5 DUP5 ADD SWAP1 DUP3 ADD SWAP2 CALLDATASIZE DUP4 GT PUSH2 0x319 JUMPI DUP6 SWAP1 SWAP2 JUMPDEST DUP4 DUP4 LT PUSH2 0x309 JUMPI POP POP POP POP SWAP3 PUSH1 0x0 SWAP4 JUMPDEST DUP3 MLOAD DUP6 LT ISZERO PUSH2 0x2F2 JUMPI DUP5 DUP3 SHL DUP4 ADD DUP5 ADD MLOAD SWAP1 DUP7 PUSH1 0x0 DUP4 DUP4 LT ISZERO PUSH2 0x2E5 JUMPI POP POP PUSH1 0x0 MSTORE DUP4 MSTORE DUP5 PUSH1 0x0 KECCAK256 JUMPDEST SWAP4 PUSH32 0xFFFFFFFFFFFFFFFFFFFFFFFFFFFFFFFFFFFFFFFFFFFFFFFFFFFFFFFFFFFFFFFF DUP2 EQ PUSH2 0x2B8 JUMPI PUSH1 0x1 ADD SWAP4 PUSH2 0x25E JUMP JUMPDEST DUP9 PUSH1 0x11 DUP9 PUSH32 0x4E487B7100000000000000000000000000000000000000000000000000000000 PUSH1 0x0 MSTORE MSTORE PUSH1 0x0 REVERT JUMPDEST SWAP2 SWAP1 SWAP3 DUP3 MSTORE DUP6 MSTORE KECCAK256 PUSH2 0x287 JUMP JUMPDEST SWAP5 SWAP7 SWAP6 POP POP POP SWAP5 POP POP EQ SWAP1 CODESIZE DUP1 DUP1 DUP1 DUP1 DUP1 DUP1 PUSH2 0x1C4 JUMP JUMPDEST DUP3 CALLDATALOAD DUP2 MSTORE SWAP2 DUP2 ADD SWAP2 DUP7 SWAP2 ADD PUSH2 0x24E JUMP JUMPDEST PUSH1 0x0 DUP1 REVERT JUMPDEST DUP8 PUSH1 0x41 DUP8 PUSH32 0x4E487B7100000000000000000000000000000000000000000000000000000000 PUSH1 0x0 MSTORE MSTORE PUSH1 0x0 REVERT JUMPDEST DUP1 REVERT JUMPDEST DUP4 DUP3 CALLVALUE PUSH2 0x386 JUMPI DUP2 PUSH1 0x3 NOT CALLDATASIZE ADD SLT PUSH2 0x386 JUMPI PUSH1 0x20 SWAP1 PUSH20 0xFFFFFFFFFFFFFFFFFFFFFFFFFFFFFFFFFFFFFFFF PUSH1 0x3 SLOAD PUSH1 0x8 SHR AND SWAP1 MLOAD SWAP1 DUP2 MSTORE RETURN JUMPDEST POP DUP1 REVERT JUMPDEST DUP4 DUP3 CALLVALUE PUSH2 0x386 JUMPI DUP2 PUSH1 0x3 NOT CALLDATASIZE ADD SLT PUSH2 0x386 JUMPI MLOAD SWAP1 DUP2 MSTORE PUSH1 0x20 SWAP1 RETURN JUMPDEST POP SWAP1 CALLVALUE PUSH2 0x11A JUMPI DUP2 PUSH1 0x3 NOT CALLDATASIZE ADD SLT PUSH2 0x11A JUMPI PUSH20 0xFFFFFFFFFFFFFFFFFFFFFFFFFFFFFFFFFFFFFFFF DUP3 PUSH1 0x20 SWAP5 PUSH2 0x3D8 PUSH2 0x17BE JUMP JUMPDEST SWAP4 CALLDATALOAD DUP2 MSTORE DUP1 DUP7 MSTORE KECCAK256 SWAP2 AND PUSH1 0x0 MSTORE DUP3 MSTORE PUSH1 0xFF DUP2 PUSH1 0x0 KECCAK256 SLOAD AND SWAP1 MLOAD SWAP1 ISZERO ISZERO DUP2 MSTORE RETURN JUMPDEST POP SWAP1 CALLVALUE PUSH2 0x11A JUMPI DUP2 PUSH1 0x3 NOT CALLDATASIZE ADD SLT PUSH2 0x11A JUMPI PUSH2 0x438 PUSH1 0x20 SWAP4 PUSH20 0xFFFFFFFFFFFFFFFFFFFFFFFFFFFFFFFFFFFFFFFF SWAP3 CALLDATALOAD DUP2 MSTORE PUSH1 0x1 DUP6 MSTORE DUP4 PUSH1 0x24 CALLDATALOAD SWAP2 KECCAK256 PUSH2 0x1F7E JUMP JUMPDEST SWAP3 SWAP1 SLOAD SWAP1 MLOAD SWAP3 PUSH1 0x3 SHL SHR AND DUP2 MSTORE RETURN JUMPDEST POP SWAP1 CALLVALUE PUSH2 0x11A JUMPI PUSH1 0xC0 PUSH1 0x3 NOT CALLDATASIZE ADD SLT PUSH2 0x11A JUMPI DUP1 CALLDATALOAD SWAP2 PUSH1 0x24 SWAP1 DUP2 CALLDATALOAD SWAP1 PUSH2 0x46B PUSH2 0x179B JUMP JUMPDEST SWAP1 PUSH1 0x64 CALLDATALOAD SWAP3 PUSH8 0xFFFFFFFFFFFFFFFF SWAP5 DUP6 DUP6 AND SWAP5 DUP6 DUP2 SUB PUSH2 0x319 JUMPI PUSH1 0x84 CALLDATALOAD SWAP7 DUP8 AND DUP1 SWAP8 SUB PUSH2 0x319 JUMPI PUSH1 0xA4 CALLDATALOAD SWAP8 PUSH32 0x4C02318D8C3AADC98CCF18AEBBF3126F651E0C3F6A1DE5FF8EDCF6724A2AD5C2 DUP1 PUSH1 0x0 MSTORE PUSH1 0x20 SWAP4 PUSH1 0x0 DUP6 MSTORE DUP7 PUSH1 0x0 KECCAK256 CALLER PUSH1 0x0 MSTORE DUP6 MSTORE PUSH1 0xFF DUP8 PUSH1 0x0 KECCAK256 SLOAD AND ISZERO PUSH2 0x628 JUMPI POP POP DUP7 DUP9 LT DUP1 ISZERO PUSH2 0x61E JUMPI JUMPDEST PUSH2 0x5F7 JUMPI SWAP2 DUP10 SWAP8 SWAP6 SWAP4 SWAP2 PUSH32 0xABEC13CA1773EED55D54D2F64593C33FA520EE45CAC73A162F13928A2EBEE233 SWAP11 DUP7 SWAP5 DUP12 PUSH1 0xA0 PUSH20 0xFFFFFFFFFFFFFFFFFFFFFFFFFFFFFFFFFFFFFFFF PUSH1 0xC0 SWAP15 SWAP13 SWAP11 MLOAD SWAP10 PUSH2 0x53B DUP12 PUSH2 0x1C08 JUMP JUMPDEST DUP6 DUP12 MSTORE DUP9 DUP9 DUP13 ADD MSTORE AND SWAP9 DUP10 DUP10 DUP3 ADD MSTORE DUP11 PUSH1 0x60 DUP3 ADD MSTORE DUP12 PUSH1 0x80 DUP3 ADD MSTORE ADD MSTORE SSTORE DUP3 PUSH1 0x5 SSTORE DUP5 PUSH32 0xFFFFFFFF00000000000000000000000000000000000000000000000000000000 PUSH28 0xFFFFFFFFFFFFFFFF0000000000000000000000000000000000000000 PUSH1 0x6 SLOAD SWAP4 PUSH1 0xA0 SHL AND SWAP3 AND OR OR PUSH1 0x6 SSTORE DUP6 PUSH32 0xFFFFFFFFFFFFFFFFFFFFFFFFFFFFFFFFFFFFFFFFFFFFFFFF0000000000000000 PUSH1 0x7 SLOAD AND OR PUSH1 0x7 SSTORE DUP7 PUSH1 0x8 SSTORE DUP3 MLOAD SWAP8 DUP9 MSTORE DUP8 ADD MSTORE DUP6 ADD MSTORE PUSH1 0x60 DUP5 ADD MSTORE PUSH1 0x80 DUP4 ADD MSTORE PUSH1 0xA0 DUP3 ADD MSTORE LOG1 DUP1 RETURN JUMPDEST DUP5 MLOAD PUSH32 0x85D4A74800000000000000000000000000000000000000000000000000000000 DUP2 MSTORE REVERT JUMPDEST POP TIMESTAMP DUP9 GT ISZERO PUSH2 0x4E5 JUMP JUMPDEST SWAP2 SWAP5 POP SWAP2 POP PUSH2 0x636 CALLER PUSH2 0x1E09 JUMP JUMPDEST DUP6 MLOAD SWAP2 PUSH2 0x642 DUP4 PUSH2 0x1C6F JUMP JUMPDEST PUSH1 0x42 DUP4 MSTORE DUP5 DUP4 ADD SWAP4 PUSH1 0x60 CALLDATASIZE DUP7 CALLDATACOPY DUP4 MLOAD ISZERO PUSH2 0x892 JUMPI PUSH1 0x30 DUP6 MSTORE8 DUP4 MLOAD PUSH1 0x1 SWAP1 DUP2 LT ISZERO PUSH2 0x865 JUMPI PUSH1 0x78 PUSH1 0x21 DUP7 ADD MSTORE8 PUSH1 0x41 SWAP1 JUMPDEST DUP1 DUP3 GT PUSH2 0x79D JUMPI POP POP PUSH2 0x742 JUMPI POP PUSH2 0x73E SWAP4 DUP7 SWAP4 PUSH2 0x710 SWAP4 PUSH2 0x701 PUSH1 0x48 SWAP5 PUSH2 0x6CC SWAP11 MLOAD SWAP11 DUP6 PUSH32 0x416363657373436F6E74726F6C3A206163636F756E7420000000000000000000 DUP14 SWAP8 DUP9 ADD MSTORE DUP3 MLOAD SWAP3 DUP4 SWAP2 PUSH1 0x37 DUP10 ADD SWAP2 ADD PUSH2 0x1BE5 JUMP JUMPDEST DUP5 ADD SWAP2 PUSH32 0x206973206D697373696E6720726F6C6520000000000000000000000000000000 PUSH1 0x37 DUP5 ADD MSTORE MLOAD DUP1 SWAP4 DUP7 DUP5 ADD SWAP1 PUSH2 0x1BE5 JUMP JUMPDEST ADD SUB PUSH1 0x28 DUP2 ADD DUP8 MSTORE ADD DUP6 PUSH2 0x1C8B JUMP JUMPDEST MLOAD SWAP3 DUP4 SWAP3 PUSH32 0x8C379A000000000000000000000000000000000000000000000000000000000 DUP5 MSTORE DUP4 ADD PUSH2 0x1CCC JUMP JUMPDEST SUB SWAP1 REVERT JUMPDEST SWAP3 POP POP POP DUP2 PUSH1 0x64 SWAP5 MLOAD SWAP4 PUSH32 0x8C379A000000000000000000000000000000000000000000000000000000000 DUP6 MSTORE DUP5 ADD MSTORE DUP3 ADD MSTORE PUSH32 0x537472696E67733A20686578206C656E67746820696E73756666696369656E74 PUSH1 0x44 DUP3 ADD MSTORE REVERT JUMPDEST SWAP1 SWAP2 PUSH1 0xF DUP2 AND PUSH1 0x10 DUP2 LT ISZERO PUSH2 0x838 JUMPI PUSH32 0x3031323334353637383961626364656600000000000000000000000000000000 SWAP1 BYTE PUSH2 0x7D9 DUP5 DUP9 PUSH2 0x1DC9 JUMP JUMPDEST MSTORE8 DUP9 SHR SWAP2 DUP1 ISZERO PUSH2 0x80B JUMPI PUSH32 0xFFFFFFFFFFFFFFFFFFFFFFFFFFFFFFFFFFFFFFFFFFFFFFFFFFFFFFFFFFFFFFFF ADD SWAP1 PUSH2 0x671 JUMP JUMPDEST DUP4 PUSH1 0x11 DUP11 PUSH32 0x4E487B7100000000000000000000000000000000000000000000000000000000 PUSH1 0x0 MSTORE MSTORE PUSH1 0x0 REVERT JUMPDEST DUP5 PUSH1 0x32 DUP12 PUSH32 0x4E487B7100000000000000000000000000000000000000000000000000000000 PUSH1 0x0 MSTORE MSTORE PUSH1 0x0 REVERT JUMPDEST DUP3 PUSH1 0x32 DUP10 PUSH32 0x4E487B7100000000000000000000000000000000000000000000000000000000 PUSH1 0x0 MSTORE MSTORE PUSH1 0x0 REVERT JUMPDEST POP PUSH1 0x32 DUP7 PUSH32 0x4E487B7100000000000000000000000000000000000000000000000000000000 PUSH1 0x0 MSTORE MSTORE PUSH1 0x0 REVERT JUMPDEST POP SWAP1 CALLVALUE PUSH2 0x11A JUMPI DUP2 PUSH1 0x3 NOT CALLDATASIZE ADD SLT PUSH2 0x11A JUMPI PUSH2 0x8D9 PUSH2 0x1778 JUMP JUMPDEST SWAP1 PUSH2 0x8E2 PUSH2 0x17BE JUMP JUMPDEST PUSH1 0x3 SLOAD SWAP2 PUSH1 0xFF DUP4 AND PUSH2 0xB9B JUMPI POP SWAP1 PUSH32 0xFFFFFFFFFFFFFFFFFFFFFF0000000000000000000000000000000000000000FF PUSH21 0xFFFFFFFFFFFFFFFFFFFFFFFFFFFFFFFFFFFFFFFF00 PUSH2 0xA2C SWAP5 SWAP4 PUSH1 0x8 SHL AND SWAP2 AND OR PUSH1 0x3 SSTORE PUSH1 0x0 DUP1 MSTORE PUSH1 0x20 SWAP3 PUSH1 0x0 DUP5 MSTORE PUSH20 0xFFFFFFFFFFFFFFFFFFFFFFFFFFFFFFFFFFFFFFFF DUP2 PUSH1 0x0 KECCAK256 SWAP3 AND SWAP2 DUP3 PUSH1 0x0 MSTORE DUP5 MSTORE PUSH1 0xFF DUP2 PUSH1 0x0 KECCAK256 SLOAD AND ISZERO PUSH2 0xB2F JUMPI JUMPDEST PUSH1 0x0 DUP1 MSTORE PUSH1 0x1 DUP5 DUP2 DUP1 SWAP7 MSTORE PUSH2 0x989 DUP5 DUP5 PUSH1 0x0 KECCAK256 PUSH2 0x1F96 JUMP JUMPDEST POP PUSH32 0x4C02318D8C3AADC98CCF18AEBBF3126F651E0C3F6A1DE5FF8EDCF6724A2AD5C2 DUP1 PUSH1 0x0 MSTORE PUSH1 0x0 DUP3 MSTORE DUP4 PUSH1 0x0 KECCAK256 DUP6 PUSH1 0x0 MSTORE DUP3 MSTORE PUSH1 0xFF DUP5 PUSH1 0x0 KECCAK256 SLOAD AND ISZERO PUSH2 0xAC4 JUMPI JUMPDEST PUSH1 0x0 MSTORE DUP2 DUP2 MSTORE PUSH2 0x9DE DUP5 DUP5 PUSH1 0x0 KECCAK256 PUSH2 0x1F96 JUMP JUMPDEST POP PUSH32 0x5D8E12C39142FF96D79D04D15D1BA1269E4FE57BB9D26F43523628B34BA108EC DUP1 PUSH1 0x0 MSTORE PUSH1 0x0 DUP3 MSTORE DUP4 PUSH1 0x0 KECCAK256 DUP6 PUSH1 0x0 MSTORE DUP3 MSTORE PUSH1 0xFF DUP5 PUSH1 0x0 KECCAK256 SLOAD AND ISZERO PUSH2 0xA59 JUMPI JUMPDEST PUSH1 0x0 MSTORE MSTORE PUSH1 0x0 KECCAK256 PUSH2 0x1F96 JUMP JUMPDEST POP PUSH32 0xFFFFFFFFFFFFFFFFFFFFFFFFFFFFFFFFFFFFFFFFFFFFFFFFFFFFFFFFFFFFFF00 PUSH1 0x3 SLOAD AND OR PUSH1 0x3 SSTORE DUP1 RETURN JUMPDEST DUP1 PUSH1 0x0 MSTORE PUSH1 0x0 DUP3 MSTORE DUP4 PUSH1 0x0 KECCAK256 DUP6 PUSH1 0x0 MSTORE DUP3 MSTORE DUP4 PUSH1 0x0 KECCAK256 DUP4 PUSH32 0xFFFFFFFFFFFFFFFFFFFFFFFFFFFFFFFFFFFFFFFFFFFFFFFFFFFFFFFFFFFFFF00 DUP3 SLOAD AND OR SWAP1 SSTORE CALLER DUP6 DUP3 PUSH32 0x2F8788117E7EFF1D82E926EC794901D17C78024A50270940304540A733656F0D PUSH1 0x0 DUP1 LOG4 PUSH2 0xA20 JUMP JUMPDEST DUP1 PUSH1 0x0 MSTORE PUSH1 0x0 DUP3 MSTORE DUP4 PUSH1 0x0 KECCAK256 DUP6 PUSH1 0x0 MSTORE DUP3 MSTORE DUP4 PUSH1 0x0 KECCAK256 DUP4 PUSH32 0xFFFFFFFFFFFFFFFFFFFFFFFFFFFFFFFFFFFFFFFFFFFFFFFFFFFFFFFFFFFFFF00 DUP3 SLOAD AND OR SWAP1 SSTORE CALLER DUP6 DUP3 PUSH32 0x2F8788117E7EFF1D82E926EC794901D17C78024A50270940304540A733656F0D PUSH1 0x0 DUP1 LOG4 PUSH2 0x9CB JUMP JUMPDEST PUSH1 0x0 DUP1 MSTORE PUSH1 0x0 DUP5 MSTORE DUP1 PUSH1 0x0 KECCAK256 DUP3 PUSH1 0x0 MSTORE DUP5 MSTORE DUP1 PUSH1 0x0 KECCAK256 PUSH1 0x1 PUSH32 0xFFFFFFFFFFFFFFFFFFFFFFFFFFFFFFFFFFFFFFFFFFFFFFFFFFFFFFFFFFFFFF00 DUP3 SLOAD AND OR SWAP1 SSTORE CALLER DUP3 PUSH1 0x0 PUSH32 0x2F8788117E7EFF1D82E926EC794901D17C78024A50270940304540A733656F0D DUP2 DUP1 LOG4 PUSH2 0x971 JUMP JUMPDEST DUP5 MLOAD PUSH32 0xF92EE8A900000000000000000000000000000000000000000000000000000000 DUP2 MSTORE REVERT JUMPDEST POP CALLVALUE PUSH2 0x11A JUMPI DUP1 PUSH1 0x3 NOT CALLDATASIZE ADD SLT PUSH2 0x11A JUMPI DUP3 DUP1 DUP1 DUP1 PUSH2 0xBDF PUSH2 0x1778 JUMP JUMPDEST PUSH2 0xBE7 PUSH2 0x1812 JUMP JUMPDEST PUSH1 0x24 CALLDATALOAD SWAP1 GAS CALL PUSH2 0xBF5 PUSH2 0x22F3 JUMP JUMPDEST POP ISZERO PUSH2 0xBFF JUMPI DUP3 DUP1 RETURN JUMPDEST MLOAD PUSH32 0x750B219C00000000000000000000000000000000000000000000000000000000 DUP2 MSTORE REVERT JUMPDEST DUP4 DUP3 CALLVALUE PUSH2 0x386 JUMPI PUSH1 0x60 PUSH1 0x3 NOT CALLDATASIZE ADD SLT PUSH2 0x386 JUMPI PUSH2 0xCC7 PUSH20 0xFFFFFFFFFFFFFFFFFFFFFFFFFFFFFFFFFFFFFFFF PUSH2 0x117 SWAP3 PUSH2 0xCF3 PUSH2 0xC5F PUSH2 0x1778 JUMP JUMPDEST SWAP2 PUSH2 0xC68 PUSH2 0x17BE JUMP JUMPDEST SWAP1 PUSH2 0xC71 PUSH2 0x1812 JUMP JUMPDEST MLOAD PUSH32 0xA9059CBB00000000000000000000000000000000000000000000000000000000 PUSH1 0x20 DUP3 ADD MSTORE PUSH20 0xFFFFFFFFFFFFFFFFFFFFFFFFFFFFFFFFFFFFFFFF SWAP1 SWAP2 AND PUSH1 0x24 DUP3 ADD MSTORE PUSH1 0x44 DUP1 CALLDATALOAD SWAP1 DUP3 ADD MSTORE SWAP4 DUP5 SWAP1 PUSH1 0x64 DUP3 ADD SWAP1 JUMP JUMPDEST SUB PUSH32 0xFFFFFFFFFFFFFFFFFFFFFFFFFFFFFFFFFFFFFFFFFFFFFFFFFFFFFFFFFFFFFFE0 DUP2 ADD DUP6 MSTORE DUP5 PUSH2 0x1C8B JUMP JUMPDEST AND PUSH2 0x21B0 JUMP JUMPDEST POP SWAP2 SWAP1 CALLVALUE PUSH2 0x386 JUMPI DUP3 PUSH1 0x3 NOT CALLDATASIZE ADD SLT PUSH2 0x386 JUMPI PUSH2 0xD14 PUSH2 0x17BE JUMP JUMPDEST SWAP1 CALLER PUSH20 0xFFFFFFFFFFFFFFFFFFFFFFFFFFFFFFFFFFFFFFFF DUP4 AND SUB PUSH2 0xD3D JUMPI SWAP1 PUSH2 0x117 SWAP2 CALLDATALOAD PUSH2 0x1D16 JUMP JUMPDEST PUSH1 0x84 SWAP1 PUSH1 0x20 DUP6 MLOAD SWAP2 PUSH32 0x8C379A000000000000000000000000000000000000000000000000000000000 DUP4 MSTORE DUP3 ADD MSTORE PUSH1 0x2F PUSH1 0x24 DUP3 ADD MSTORE PUSH32 0x416363657373436F6E74726F6C3A2063616E206F6E6C792072656E6F756E6365 PUSH1 0x44 DUP3 ADD MSTORE PUSH32 0x20726F6C657320666F722073656C660000000000000000000000000000000000 PUSH1 0x64 DUP3 ADD MSTORE REVERT JUMPDEST POP SWAP1 CALLVALUE PUSH2 0x11A JUMPI DUP3 PUSH1 0x3 NOT CALLDATASIZE ADD SLT PUSH2 0x11A JUMPI PUSH1 0xC0 SWAP3 PUSH1 0xA0 DUP4 MLOAD PUSH2 0xDE2 DUP2 PUSH2 0x1C08 JUMP JUMPDEST DUP3 DUP2 MSTORE DUP3 PUSH1 0x20 DUP3 ADD MSTORE DUP3 DUP6 DUP3 ADD MSTORE DUP3 PUSH1 0x60 DUP3 ADD MSTORE DUP3 PUSH1 0x80 DUP3 ADD MSTORE ADD MSTORE DUP2 MLOAD SWAP1 PUSH2 0xE0A DUP3 PUSH2 0x1C08 JUMP JUMPDEST SLOAD SWAP2 DUP3 DUP3 MSTORE PUSH1 0x5 SLOAD PUSH1 0x20 DUP4 ADD SWAP1 DUP2 MSTORE PUSH1 0x6 SLOAD DUP3 DUP5 ADD SWAP3 PUSH20 0xFFFFFFFFFFFFFFFFFFFFFFFFFFFFFFFFFFFFFFFF SWAP1 DUP2 DUP4 AND DUP6 MSTORE PUSH1 0x60 DUP7 ADD SWAP2 PUSH8 0xFFFFFFFFFFFFFFFF SWAP6 DUP7 DUP1 SWAP6 PUSH1 0xA0 SHR AND DUP5 MSTORE DUP5 PUSH1 0x7 SLOAD AND SWAP6 PUSH1 0x80 DUP10 ADD SWAP7 DUP8 MSTORE PUSH1 0xA0 PUSH1 0x8 SLOAD SWAP10 ADD SWAP9 DUP10 MSTORE DUP4 MLOAD SWAP10 DUP11 MSTORE MLOAD PUSH1 0x20 DUP11 ADD MSTORE MLOAD AND SWAP1 DUP8 ADD MSTORE MLOAD AND PUSH1 0x60 DUP6 ADD MSTORE MLOAD AND PUSH1 0x80 DUP4 ADD MSTORE MLOAD PUSH1 0xA0 DUP3 ADD MSTORE RETURN JUMPDEST POP CALLVALUE PUSH2 0x11A JUMPI DUP1 PUSH1 0x3 NOT CALLDATASIZE ADD SLT PUSH2 0x11A JUMPI PUSH2 0xF0D SWAP2 CALLDATALOAD SWAP1 PUSH1 0x1 PUSH2 0xEB2 PUSH2 0x17BE JUMP JUMPDEST SWAP3 DUP1 DUP7 MSTORE PUSH1 0x20 SWAP1 DUP7 DUP3 MSTORE PUSH2 0xECA DUP4 DUP6 DUP10 KECCAK256 ADD SLOAD PUSH2 0x1AAB JUMP JUMPDEST DUP1 PUSH1 0x0 MSTORE PUSH1 0x0 DUP3 MSTORE PUSH20 0xFFFFFFFFFFFFFFFFFFFFFFFFFFFFFFFFFFFFFFFF DUP5 PUSH1 0x0 KECCAK256 SWAP6 AND SWAP5 DUP6 PUSH1 0x0 MSTORE DUP3 MSTORE PUSH1 0xFF DUP5 PUSH1 0x0 KECCAK256 SLOAD AND ISZERO PUSH2 0xA59 JUMPI PUSH1 0x0 MSTORE MSTORE PUSH1 0x0 KECCAK256 PUSH2 0x1F96 JUMP JUMPDEST POP DUP1 RETURN JUMPDEST POP SWAP1 CALLVALUE PUSH2 0x11A JUMPI PUSH1 0x20 PUSH1 0x3 NOT CALLDATASIZE ADD SLT PUSH2 0x11A JUMPI DUP2 PUSH1 0x20 SWAP4 PUSH1 0x1 SWAP3 CALLDATALOAD DUP2 MSTORE DUP1 DUP6 MSTORE KECCAK256 ADD SLOAD SWAP1 MLOAD SWAP1 DUP2 MSTORE RETURN JUMPDEST POP PUSH1 0xA0 PUSH1 0x3 NOT CALLDATASIZE ADD SLT PUSH2 0x11A JUMPI PUSH2 0xF50 PUSH2 0x1778 JUMP JUMPDEST SWAP2 PUSH2 0xF59 PUSH2 0x179B JUMP JUMPDEST SWAP1 PUSH8 0xFFFFFFFFFFFFFFFF PUSH1 0x84 CALLDATALOAD DUP2 DUP2 GT PUSH2 0x166F JUMPI PUSH2 0xF7A SWAP1 CALLDATASIZE SWAP1 DUP5 ADD PUSH2 0x17E1 JUMP JUMPDEST PUSH1 0x3 SLOAD SWAP1 DUP7 MLOAD SWAP3 PUSH32 0x18160DDD00000000000000000000000000000000000000000000000000000000 DUP5 MSTORE PUSH1 0x20 SWAP4 DUP5 DUP2 DUP9 DUP2 PUSH20 0xFFFFFFFFFFFFFFFFFFFFFFFFFFFFFFFFFFFFFFFF DUP1 SWAP9 PUSH1 0x8 SHR AND GAS STATICCALL SWAP1 DUP2 ISZERO PUSH2 0x1665 JUMPI DUP12 SWAP2 PUSH2 0x1634 JUMPI JUMPDEST POP DUP7 SLOAD SWAP1 DUP2 ISZERO ISZERO DUP1 PUSH2 0x15F4 JUMPI JUMPDEST PUSH2 0x15B7 JUMPI POP POP DUP5 PUSH1 0x6 SLOAD PUSH1 0xA0 SHR AND DUP6 PUSH1 0x7 SLOAD AND DUP1 ISZERO SWAP2 DUP3 ISZERO PUSH2 0x15AD JUMPI JUMPDEST POP DUP2 ISZERO PUSH2 0x15A2 JUMPI JUMPDEST POP PUSH2 0x157A JUMPI PUSH1 0x8 SLOAD SWAP2 DUP3 PUSH2 0x131A JUMPI JUMPDEST POP POP POP PUSH1 0x5 SLOAD PUSH1 0x24 SWAP6 DUP7 CALLDATALOAD SWAP4 DUP5 DUP4 MUL SWAP3 DUP1 DUP5 DIV DUP7 EQ SWAP1 ISZERO OR ISZERO PUSH2 0x12EF JUMPI DUP4 PUSH1 0x6 SLOAD AND DUP5 DUP4 AND SWAP1 DUP1 DUP3 SUB PUSH2 0x12B5 JUMPI POP PUSH1 0x64 CALLDATALOAD DUP5 DUP2 LT PUSH2 0x125A JUMPI POP DUP1 PUSH2 0x1181 JUMPI POP POP DUP2 CALLVALUE SUB PUSH2 0x1125 JUMPI POP POP SWAP1 DUP8 SWAP2 JUMPDEST PUSH1 0x3 SLOAD PUSH1 0x8 SHR AND DUP1 EXTCODESIZE ISZERO PUSH2 0x11A JUMPI PUSH2 0x10CD SWAP8 DUP4 DUP9 MLOAD DUP1 SWAP11 DUP2 SWAP6 DUP3 SWAP5 PUSH32 0x40C10F1900000000000000000000000000000000000000000000000000000000 DUP5 MSTORE DUP11 DUP5 ADD PUSH1 0x20 SWAP1 SWAP4 SWAP3 SWAP2 SWAP4 PUSH20 0xFFFFFFFFFFFFFFFFFFFFFFFFFFFFFFFFFFFFFFFF PUSH1 0x40 DUP3 ADD SWAP6 AND DUP2 MSTORE ADD MSTORE JUMP JUMPDEST SUB SWAP3 GAS CALL DUP1 ISZERO PUSH2 0x111B JUMPI PUSH2 0x10DF JUMPI DUP6 DUP1 RETURN JUMPDEST DUP5 GT PUSH2 0x10F1 JUMPI POP POP MSTORE CODESIZE DUP1 DUP1 DUP1 DUP1 DUP6 DUP1 RETURN JUMPDEST PUSH1 0x41 DUP6 SWAP2 PUSH32 0x4E487B7100000000000000000000000000000000000000000000000000000000 DUP4 MSTORE MSTORE REVERT JUMPDEST DUP5 MLOAD RETURNDATASIZE DUP9 DUP3 RETURNDATACOPY RETURNDATASIZE SWAP1 REVERT JUMPDEST PUSH2 0x73E DUP7 DUP10 MLOAD SWAP4 DUP5 SWAP4 PUSH32 0x1EABCFBE00000000000000000000000000000000000000000000000000000000 DUP6 MSTORE CALLVALUE SWAP3 DUP6 ADD PUSH1 0x40 SWAP2 SWAP5 SWAP4 SWAP3 PUSH20 0xFFFFFFFFFFFFFFFFFFFFFFFFFFFFFFFFFFFFFFFF PUSH1 0x60 DUP4 ADD SWAP7 AND DUP3 MSTORE PUSH1 0x20 DUP3 ADD MSTORE ADD MSTORE JUMP JUMPDEST SWAP9 SWAP11 SWAP7 SWAP10 SWAP7 SWAP9 SWAP1 SWAP3 SWAP1 SWAP2 POP CALLVALUE ISZERO PUSH2 0x11CC JUMPI PUSH1 0x64 DUP11 DUP11 DUP11 DUP2 DUP16 MLOAD SWAP4 PUSH32 0x1EABCFBE00000000000000000000000000000000000000000000000000000000 DUP6 MSTORE DUP5 ADD MSTORE DUP3 ADD MSTORE CALLVALUE PUSH1 0x44 DUP3 ADD MSTORE REVERT JUMPDEST PUSH32 0x23B872DD00000000000000000000000000000000000000000000000000000000 DUP12 SWAP10 SWAP12 SWAP11 SWAP8 SWAP11 MLOAD SWAP4 DUP5 ADD MSTORE CALLER DUP9 DUP5 ADD MSTORE ADDRESS PUSH1 0x44 DUP5 ADD MSTORE PUSH1 0x64 DUP4 ADD MSTORE PUSH1 0x64 DUP3 MSTORE PUSH1 0xA0 DUP3 ADD DUP3 DUP2 LT DUP7 DUP3 GT OR PUSH2 0x122F JUMPI DUP9 MSTORE DUP10 SWAP4 SWAP3 SWAP2 PUSH2 0x122A SWAP2 PUSH2 0x21B0 JUMP JUMPDEST PUSH2 0x1064 JUMP JUMPDEST DUP8 DUP12 PUSH1 0x41 DUP10 PUSH32 0x4E487B7100000000000000000000000000000000000000000000000000000000 DUP4 MSTORE MSTORE REVERT JUMPDEST DUP11 MLOAD PUSH32 0x1EABCFBE00000000000000000000000000000000000000000000000000000000 DUP2 MSTORE PUSH20 0xFFFFFFFFFFFFFFFFFFFFFFFFFFFFFFFFFFFFFFFF DUP6 AND DUP2 DUP12 ADD SWAP1 DUP2 MSTORE PUSH1 0x20 DUP2 ADD DUP8 SWAP1 MSTORE PUSH1 0x40 DUP2 ADD SWAP3 SWAP1 SWAP3 MSTORE SWAP1 DUP2 SWAP1 PUSH1 0x60 ADD SUB SWAP1 REVERT JUMPDEST DUP9 DUP14 DUP7 DUP13 PUSH1 0x64 SWAP5 DUP16 MLOAD SWAP5 PUSH32 0x1EABCFBE00000000000000000000000000000000000000000000000000000000 DUP7 MSTORE DUP6 ADD MSTORE DUP4 ADD MSTORE PUSH1 0x44 DUP3 ADD MSTORE REVERT JUMPDEST DUP8 DUP12 PUSH1 0x11 DUP10 PUSH32 0x4E487B7100000000000000000000000000000000000000000000000000000000 DUP4 MSTORE MSTORE REVERT JUMPDEST CALLER DUP12 MSTORE PUSH1 0x2 DUP6 MSTORE DUP9 DUP12 KECCAK256 DUP4 DUP13 MSTORE DUP6 MSTORE PUSH1 0xFF DUP10 DUP13 KECCAK256 SLOAD AND ISZERO DUP1 PUSH2 0x1403 JUMPI JUMPDEST ISZERO PUSH2 0x1381 JUMPI POP POP CALLER DUP10 MSTORE PUSH1 0x2 DUP4 MSTORE DUP7 DUP10 KECCAK256 SWAP1 DUP10 MSTORE DUP3 MSTORE DUP6 DUP9 KECCAK256 PUSH1 0x1 PUSH32 0xFFFFFFFFFFFFFFFFFFFFFFFFFFFFFFFFFFFFFFFFFFFFFFFFFFFFFFFFFFFFFF00 DUP3 SLOAD AND OR SWAP1 SSTORE CODESIZE DUP1 DUP1 PUSH2 0x1017 JUMP JUMPDEST DUP11 SWAP1 DUP8 SWAP4 DUP11 MLOAD SWAP5 PUSH32 0x265C66A800000000000000000000000000000000000000000000000000000000 DUP7 MSTORE DUP6 ADD MSTORE PUSH1 0x80 PUSH1 0x24 DUP6 ADD MSTORE DUP1 PUSH1 0x84 DUP6 ADD MSTORE PUSH32 0x7FFFFFFFFFFFFFFFFFFFFFFFFFFFFFFFFFFFFFFFFFFFFFFFFFFFFFFFFFFFFFF DUP2 GT PUSH2 0x386 JUMPI SWAP2 DUP4 SWAP2 PUSH1 0xA4 SWAP4 PUSH1 0x5 SHL DUP1 SWAP3 DUP6 DUP6 ADD CALLDATACOPY CALLER PUSH1 0x44 DUP5 ADD MSTORE PUSH1 0x64 DUP4 ADD MSTORE DUP2 ADD SUB ADD SWAP1 REVERT JUMPDEST POP SWAP10 SWAP9 SWAP3 DUP9 SWAP8 SWAP3 SWAP5 SWAP6 SWAP2 SWAP7 SWAP9 MLOAD DUP7 DUP2 ADD SWAP1 PUSH32 0xFFFFFFFFFFFFFFFFFFFFFFFFFFFFFFFFFFFFFFFF000000000000000000000000 CALLER PUSH1 0x60 SHL AND DUP3 MSTORE DUP12 PUSH1 0x34 DUP3 ADD MSTORE PUSH1 0x34 DUP2 MSTORE PUSH2 0x144F DUP2 PUSH2 0x1C53 JUMP JUMPDEST MLOAD SWAP1 KECCAK256 SWAP5 DUP3 DUP13 GT PUSH2 0x154E JUMPI DUP9 MLOAD SWAP6 PUSH1 0x5 SWAP6 SWAP5 SWAP4 SWAP3 SWAP2 SWAP1 DUP14 DUP8 SHL DUP15 PUSH2 0x1475 DUP12 DUP4 ADD DUP12 PUSH2 0x1C8B JUMP JUMPDEST DUP10 MSTORE DUP11 ADD DUP10 DUP10 ADD CALLDATASIZE DUP3 GT PUSH2 0x154A JUMPI DUP11 DUP13 SWAP2 JUMPDEST DUP4 DUP4 LT PUSH2 0x153A JUMPI POP POP POP POP SWAP9 DUP13 SWAP10 JUMPDEST DUP9 MLOAD DUP12 LT ISZERO PUSH2 0x1523 JUMPI DUP11 DUP9 SHL DUP10 ADD DUP11 ADD MLOAD SWAP1 DUP15 DUP3 DUP3 LT ISZERO PUSH2 0x1515 JUMPI MSTORE DUP10 MSTORE DUP11 DUP14 KECCAK256 JUMPDEST SWAP10 PUSH32 0xFFFFFFFFFFFFFFFFFFFFFFFFFFFFFFFFFFFFFFFFFFFFFFFFFFFFFFFFFFFFFFFF DUP2 EQ PUSH2 0x14E9 JUMPI PUSH1 0x1 ADD SWAP10 PUSH2 0x1496 JUMP JUMPDEST PUSH1 0x24 DUP15 PUSH1 0x11 DUP16 PUSH32 0x4E487B7100000000000000000000000000000000000000000000000000000000 DUP4 MSTORE MSTORE REVERT JUMPDEST SWAP2 SWAP1 SWAP2 MSTORE DUP10 MSTORE DUP11 DUP14 KECCAK256 PUSH2 0x14B8 JUMP JUMPDEST SWAP2 SWAP6 SWAP13 SWAP14 SWAP4 SWAP9 SWAP8 POP SWAP4 SWAP10 SWAP11 SWAP9 POP DUP5 SWAP2 SWAP6 POP EQ PUSH2 0x1337 JUMP JUMPDEST DUP3 CALLDATALOAD DUP2 MSTORE SWAP2 DUP2 ADD SWAP2 DUP13 SWAP2 ADD PUSH2 0x1487 JUMP JUMPDEST DUP15 DUP1 REVERT JUMPDEST PUSH1 0x24 DUP12 PUSH1 0x41 DUP13 PUSH32 0x4E487B7100000000000000000000000000000000000000000000000000000000 DUP4 MSTORE MSTORE REVERT JUMPDEST DUP6 DUP9 MLOAD PUSH32 0x3F88677400000000000000000000000000000000000000000000000000000000 DUP2 MSTORE REVERT JUMPDEST SWAP1 POP TIMESTAMP LT ISZERO CODESIZE PUSH2 0x1008 JUMP JUMPDEST TIMESTAMP LT SWAP2 POP CODESIZE PUSH2 0x1000 JUMP JUMPDEST PUSH1 0x64 SWAP2 DUP9 SWAP2 DUP12 MLOAD SWAP3 PUSH32 0xA922783000000000000000000000000000000000000000000000000000000000 DUP5 MSTORE DUP4 ADD MSTORE PUSH1 0x24 CALLDATALOAD PUSH1 0x24 DUP4 ADD MSTORE PUSH1 0x44 DUP3 ADD MSTORE REVERT JUMPDEST POP PUSH1 0x24 CALLDATALOAD DUP2 ADD DUP1 DUP3 GT PUSH2 0x1608 JUMPI DUP3 LT PUSH2 0xFE3 JUMP JUMPDEST PUSH1 0x24 DUP14 PUSH1 0x11 DUP12 PUSH32 0x4E487B7100000000000000000000000000000000000000000000000000000000 DUP4 MSTORE MSTORE REVERT JUMPDEST SWAP1 POP DUP5 DUP2 DUP2 RETURNDATASIZE DUP4 GT PUSH2 0x165E JUMPI JUMPDEST PUSH2 0x164B DUP2 DUP4 PUSH2 0x1C8B JUMP JUMPDEST DUP2 ADD SUB SLT PUSH2 0x165A JUMPI MLOAD CODESIZE PUSH2 0xFD6 JUMP JUMPDEST DUP11 DUP1 REVERT JUMPDEST POP RETURNDATASIZE PUSH2 0x1641 JUMP JUMPDEST DUP10 MLOAD RETURNDATASIZE DUP14 DUP3 RETURNDATACOPY RETURNDATASIZE SWAP1 REVERT JUMPDEST DUP7 DUP1 REVERT JUMPDEST DUP5 SWAP1 DUP5 CALLVALUE PUSH2 0x11A JUMPI PUSH1 0x20 PUSH1 0x3 NOT CALLDATASIZE ADD SLT PUSH2 0x11A JUMPI CALLDATALOAD PUSH32 0xFFFFFFFF00000000000000000000000000000000000000000000000000000000 DUP2 AND DUP1 SWAP2 SUB PUSH2 0x11A JUMPI PUSH1 0x20 SWAP3 POP PUSH32 0xBE0B771200000000000000000000000000000000000000000000000000000000 DUP2 EQ SWAP1 DUP2 ISZERO PUSH2 0x16E8 JUMPI JUMPDEST POP ISZERO ISZERO DUP2 MSTORE RETURN JUMPDEST PUSH32 0x5A05180F00000000000000000000000000000000000000000000000000000000 DUP2 EQ SWAP2 POP DUP2 ISZERO PUSH2 0x171B JUMPI JUMPDEST POP DUP4 PUSH2 0x16E1 JUMP JUMPDEST PUSH32 0x7965DB0B00000000000000000000000000000000000000000000000000000000 DUP2 EQ SWAP2 POP DUP2 ISZERO PUSH2 0x174E JUMPI JUMPDEST POP DUP4 PUSH2 0x1714 JUMP JUMPDEST PUSH32 0x1FFC9A700000000000000000000000000000000000000000000000000000000 SWAP2 POP EQ DUP4 PUSH2 0x1747 JUMP JUMPDEST PUSH1 0x4 CALLDATALOAD SWAP1 PUSH20 0xFFFFFFFFFFFFFFFFFFFFFFFFFFFFFFFFFFFFFFFF DUP3 AND DUP3 SUB PUSH2 0x319 JUMPI JUMP JUMPDEST PUSH1 0x44 CALLDATALOAD SWAP1 PUSH20 0xFFFFFFFFFFFFFFFFFFFFFFFFFFFFFFFFFFFFFFFF DUP3 AND DUP3 SUB PUSH2 0x319 JUMPI JUMP JUMPDEST PUSH1 0x24 CALLDATALOAD SWAP1 PUSH20 0xFFFFFFFFFFFFFFFFFFFFFFFFFFFFFFFFFFFFFFFF DUP3 AND DUP3 SUB PUSH2 0x319 JUMPI JUMP JUMPDEST SWAP2 DUP2 PUSH1 0x1F DUP5 ADD SLT ISZERO PUSH2 0x319 JUMPI DUP3 CALLDATALOAD SWAP2 PUSH8 0xFFFFFFFFFFFFFFFF DUP4 GT PUSH2 0x319 JUMPI PUSH1 0x20 DUP1 DUP6 ADD SWAP5 DUP5 PUSH1 0x5 SHL ADD ADD GT PUSH2 0x319 JUMPI JUMP JUMPDEST CALLER PUSH1 0x0 SWAP1 DUP2 MSTORE PUSH32 0x20BE27040B8E00DF40BCA0DF34743417F3574A156386188F7D7F14369E5EE82B PUSH1 0x20 SWAP1 DUP2 MSTORE PUSH1 0x40 DUP1 DUP4 KECCAK256 SLOAD SWAP1 SWAP3 SWAP1 PUSH32 0x5D8E12C39142FF96D79D04D15D1BA1269E4FE57BB9D26F43523628B34BA108EC SWAP1 PUSH1 0xFF AND ISZERO PUSH2 0x1877 JUMPI POP POP POP POP JUMP JUMPDEST PUSH2 0x1880 CALLER PUSH2 0x1E09 JUMP JUMPDEST DUP5 MLOAD SWAP2 PUSH2 0x188C DUP4 PUSH2 0x1C6F JUMP JUMPDEST PUSH1 0x42 DUP4 MSTORE DUP5 DUP4 ADD SWAP4 PUSH1 0x60 CALLDATASIZE DUP7 CALLDATACOPY DUP4 MLOAD ISZERO PUSH2 0x1A7E JUMPI PUSH1 0x30 DUP6 MSTORE8 DUP4 MLOAD SWAP1 PUSH1 0x1 SWAP2 DUP3 LT ISZERO PUSH2 0x1A7E JUMPI SWAP1 PUSH1 0x78 PUSH1 0x21 DUP7 ADD MSTORE8 PUSH1 0x41 SWAP2 JUMPDEST DUP2 DUP4 GT PUSH2 0x19B3 JUMPI POP POP POP PUSH2 0x1957 JUMPI PUSH2 0x6CC SWAP4 DUP6 SWAP4 PUSH2 0x1927 SWAP4 PUSH2 0x1918 PUSH1 0x48 SWAP5 PUSH2 0x73E SWAP10 MLOAD SWAP9 DUP6 PUSH32 0x416363657373436F6E74726F6C3A206163636F756E7420000000000000000000 DUP12 SWAP8 DUP9 ADD MSTORE DUP3 MLOAD SWAP3 DUP4 SWAP2 PUSH1 0x37 DUP10 ADD SWAP2 ADD PUSH2 0x1BE5 JUMP JUMPDEST ADD SUB PUSH1 0x28 DUP2 ADD DUP6 MSTORE ADD DUP4 PUSH2 0x1C8B JUMP JUMPDEST MLOAD SWAP2 DUP3 SWAP2 PUSH32 0x8C379A000000000000000000000000000000000000000000000000000000000 DUP4 MSTORE PUSH1 0x4 DUP4 ADD PUSH2 0x1CCC JUMP JUMPDEST PUSH1 0x64 DUP5 DUP7 MLOAD SWAP1 PUSH32 0x8C379A000000000000000000000000000000000000000000000000000000000 DUP3 MSTORE DUP1 PUSH1 0x4 DUP4 ADD MSTORE PUSH1 0x24 DUP3 ADD MSTORE PUSH32 0x537472696E67733A20686578206C656E67746820696E73756666696369656E74 PUSH1 0x44 DUP3 ADD MSTORE REVERT JUMPDEST SWAP1 SWAP2 SWAP3 PUSH1 0xF DUP2 AND PUSH1 0x10 DUP2 LT ISZERO PUSH2 0x1A51 JUMPI PUSH32 0x3031323334353637383961626364656600000000000000000000000000000000 SWAP1 BYTE PUSH2 0x19F0 DUP6 DUP9 PUSH2 0x1DC9 JUMP JUMPDEST MSTORE8 PUSH1 0x4 SHR SWAP3 DUP1 ISZERO PUSH2 0x1A24 JUMPI PUSH32 0xFFFFFFFFFFFFFFFFFFFFFFFFFFFFFFFFFFFFFFFFFFFFFFFFFFFFFFFFFFFFFFFF ADD SWAP2 SWAP1 PUSH2 0x18BD JUMP JUMPDEST PUSH1 0x24 DUP3 PUSH32 0x4E487B7100000000000000000000000000000000000000000000000000000000 DUP2 MSTORE PUSH1 0x11 PUSH1 0x4 MSTORE REVERT JUMPDEST PUSH1 0x24 DUP4 PUSH32 0x4E487B7100000000000000000000000000000000000000000000000000000000 DUP2 MSTORE PUSH1 0x32 PUSH1 0x4 MSTORE REVERT JUMPDEST DUP1 PUSH32 0x4E487B7100000000000000000000000000000000000000000000000000000000 PUSH1 0x24 SWAP3 MSTORE PUSH1 0x32 PUSH1 0x4 MSTORE REVERT JUMPDEST PUSH1 0x0 DUP2 DUP2 MSTORE PUSH1 0x20 SWAP1 DUP1 DUP3 MSTORE PUSH1 0x40 SWAP3 DUP4 DUP3 KECCAK256 CALLER DUP4 MSTORE DUP4 MSTORE PUSH1 0xFF DUP5 DUP4 KECCAK256 SLOAD AND ISZERO PUSH2 0x1AD3 JUMPI POP POP POP POP JUMP JUMPDEST PUSH2 0x1ADC CALLER PUSH2 0x1E09 JUMP JUMPDEST DUP5 MLOAD SWAP2 PUSH2 0x1AE8 DUP4 PUSH2 0x1C6F JUMP JUMPDEST PUSH1 0x42 DUP4 MSTORE DUP5 DUP4 ADD SWAP4 PUSH1 0x60 CALLDATASIZE DUP7 CALLDATACOPY DUP4 MLOAD ISZERO PUSH2 0x1A7E JUMPI PUSH1 0x30 DUP6 MSTORE8 DUP4 MLOAD SWAP1 PUSH1 0x1 SWAP2 DUP3 LT ISZERO PUSH2 0x1A7E JUMPI SWAP1 PUSH1 0x78 PUSH1 0x21 DUP7 ADD MSTORE8 PUSH1 0x41 SWAP2 JUMPDEST DUP2 DUP4 GT PUSH2 0x1B74 JUMPI POP POP POP PUSH2 0x1957 JUMPI PUSH2 0x6CC SWAP4 DUP6 SWAP4 PUSH2 0x1927 SWAP4 PUSH2 0x1918 PUSH1 0x48 SWAP5 PUSH2 0x73E SWAP10 MLOAD SWAP9 DUP6 PUSH32 0x416363657373436F6E74726F6C3A206163636F756E7420000000000000000000 DUP12 SWAP8 DUP9 ADD MSTORE DUP3 MLOAD SWAP3 DUP4 SWAP2 PUSH1 0x37 DUP10 ADD SWAP2 ADD PUSH2 0x1BE5 JUMP JUMPDEST SWAP1 SWAP2 SWAP3 PUSH1 0xF DUP2 AND PUSH1 0x10 DUP2 LT ISZERO PUSH2 0x1A51 JUMPI PUSH32 0x3031323334353637383961626364656600000000000000000000000000000000 SWAP1 BYTE PUSH2 0x1BB1 DUP6 DUP9 PUSH2 0x1DC9 JUMP JUMPDEST MSTORE8 PUSH1 0x4 SHR SWAP3 DUP1 ISZERO PUSH2 0x1A24 JUMPI PUSH32 0xFFFFFFFFFFFFFFFFFFFFFFFFFFFFFFFFFFFFFFFFFFFFFFFFFFFFFFFFFFFFFFFF ADD SWAP2 SWAP1 PUSH2 0x1B19 JUMP JUMPDEST PUSH1 0x0 JUMPDEST DUP4 DUP2 LT PUSH2 0x1BF8 JUMPI POP POP PUSH1 0x0 SWAP2 ADD MSTORE JUMP JUMPDEST DUP2 DUP2 ADD MLOAD DUP4 DUP3 ADD MSTORE PUSH1 0x20 ADD PUSH2 0x1BE8 JUMP JUMPDEST PUSH1 0xC0 DUP2 ADD SWAP1 DUP2 LT PUSH8 0xFFFFFFFFFFFFFFFF DUP3 GT OR PUSH2 0x1C24 JUMPI PUSH1 0x40 MSTORE JUMP JUMPDEST PUSH32 0x4E487B7100000000000000000000000000000000000000000000000000000000 PUSH1 0x0 MSTORE PUSH1 0x41 PUSH1 0x4 MSTORE PUSH1 0x24 PUSH1 0x0 REVERT JUMPDEST PUSH1 0x60 DUP2 ADD SWAP1 DUP2 LT PUSH8 0xFFFFFFFFFFFFFFFF DUP3 GT OR PUSH2 0x1C24 JUMPI PUSH1 0x40 MSTORE JUMP JUMPDEST PUSH1 0x80 DUP2 ADD SWAP1 DUP2 LT PUSH8 0xFFFFFFFFFFFFFFFF DUP3 GT OR PUSH2 0x1C24 JUMPI PUSH1 0x40 MSTORE JUMP JUMPDEST SWAP1 PUSH1 0x1F PUSH32 0xFFFFFFFFFFFFFFFFFFFFFFFFFFFFFFFFFFFFFFFFFFFFFFFFFFFFFFFFFFFFFFE0 SWAP2 ADD AND DUP2 ADD SWAP1 DUP2 LT PUSH8 0xFFFFFFFFFFFFFFFF DUP3 GT OR PUSH2 0x1C24 JUMPI PUSH1 0x40 MSTORE JUMP JUMPDEST PUSH32 0xFFFFFFFFFFFFFFFFFFFFFFFFFFFFFFFFFFFFFFFFFFFFFFFFFFFFFFFFFFFFFFE0 PUSH1 0x1F PUSH1 0x40 SWAP4 PUSH1 0x20 DUP5 MSTORE PUSH2 0x1D0F DUP2 MLOAD DUP1 SWAP3 DUP2 PUSH1 0x20 DUP9 ADD MSTORE PUSH1 0x20 DUP9 DUP9 ADD SWAP2 ADD PUSH2 0x1BE5 JUMP JUMPDEST ADD AND ADD ADD SWAP1 JUMP JUMPDEST SWAP1 PUSH1 0x40 PUSH2 0x1D61 SWAP3 PUSH1 0x0 SWAP1 DUP1 DUP3 MSTORE DUP2 PUSH1 0x20 MSTORE PUSH20 0xFFFFFFFFFFFFFFFFFFFFFFFFFFFFFFFFFFFFFFFF DUP4 DUP4 KECCAK256 SWAP5 AND SWAP4 DUP5 DUP4 MSTORE PUSH1 0x20 MSTORE PUSH1 0xFF DUP4 DUP4 KECCAK256 SLOAD AND PUSH2 0x1D64 JUMPI JUMPDEST DUP2 MSTORE PUSH1 0x1 PUSH1 0x20 MSTORE KECCAK256 PUSH2 0x2057 JUMP JUMPDEST POP JUMP JUMPDEST DUP1 DUP3 MSTORE DUP2 PUSH1 0x20 MSTORE DUP3 DUP3 KECCAK256 DUP5 DUP4 MSTORE PUSH1 0x20 MSTORE DUP3 DUP3 KECCAK256 PUSH32 0xFFFFFFFFFFFFFFFFFFFFFFFFFFFFFFFFFFFFFFFFFFFFFFFFFFFFFFFFFFFFFF00 DUP2 SLOAD AND SWAP1 SSTORE CALLER DUP5 DUP3 PUSH32 0xF6391F5C32D9C69D2A47EA670B442974B53935D1EDC7FD64EB21E047A839171B DUP6 DUP1 LOG4 PUSH2 0x1D54 JUMP JUMPDEST SWAP1 DUP2 MLOAD DUP2 LT ISZERO PUSH2 0x1DDA JUMPI ADD PUSH1 0x20 ADD SWAP1 JUMP JUMPDEST PUSH32 0x4E487B7100000000000000000000000000000000000000000000000000000000 PUSH1 0x0 MSTORE PUSH1 0x32 PUSH1 0x4 MSTORE PUSH1 0x24 PUSH1 0x0 REVERT JUMPDEST PUSH1 0x40 MLOAD SWAP1 PUSH2 0x1E16 DUP3 PUSH2 0x1C53 JUMP JUMPDEST PUSH1 0x2A DUP3 MSTORE PUSH1 0x20 DUP3 ADD PUSH1 0x40 CALLDATASIZE DUP3 CALLDATACOPY DUP3 MLOAD ISZERO PUSH2 0x1DDA JUMPI PUSH1 0x30 SWAP1 MSTORE8 DUP2 MLOAD PUSH1 0x1 SWAP1 DUP2 LT ISZERO PUSH2 0x1DDA JUMPI PUSH1 0x78 PUSH1 0x21 DUP5 ADD MSTORE8 PUSH1 0x29 SWAP1 JUMPDEST DUP1 DUP3 GT PUSH2 0x1EB3 JUMPI POP POP PUSH2 0x1E55 JUMPI SWAP1 JUMP JUMPDEST PUSH1 0x64 PUSH1 0x40 MLOAD PUSH32 0x8C379A000000000000000000000000000000000000000000000000000000000 DUP2 MSTORE PUSH1 0x20 PUSH1 0x4 DUP3 ADD MSTORE PUSH1 0x20 PUSH1 0x24 DUP3 ADD MSTORE PUSH32 0x537472696E67733A20686578206C656E67746820696E73756666696369656E74 PUSH1 0x44 DUP3 ADD MSTORE REVERT JUMPDEST SWAP1 SWAP2 PUSH1 0xF DUP2 AND PUSH1 0x10 DUP2 LT ISZERO PUSH2 0x1F50 JUMPI PUSH32 0x3031323334353637383961626364656600000000000000000000000000000000 SWAP1 BYTE PUSH2 0x1EEF DUP5 DUP7 PUSH2 0x1DC9 JUMP JUMPDEST MSTORE8 PUSH1 0x4 SHR SWAP2 DUP1 ISZERO PUSH2 0x1F22 JUMPI PUSH32 0xFFFFFFFFFFFFFFFFFFFFFFFFFFFFFFFFFFFFFFFFFFFFFFFFFFFFFFFFFFFFFFFF ADD SWAP1 PUSH2 0x1E45 JUMP JUMPDEST PUSH1 0x24 PUSH1 0x0 PUSH32 0x4E487B7100000000000000000000000000000000000000000000000000000000 DUP2 MSTORE PUSH1 0x11 PUSH1 0x4 MSTORE REVERT JUMPDEST PUSH1 0x24 PUSH1 0x0 PUSH32 0x4E487B7100000000000000000000000000000000000000000000000000000000 DUP2 MSTORE PUSH1 0x32 PUSH1 0x4 MSTORE REVERT JUMPDEST DUP1 SLOAD DUP3 LT ISZERO PUSH2 0x1DDA JUMPI PUSH1 0x0 MSTORE PUSH1 0x20 PUSH1 0x0 KECCAK256 ADD SWAP1 PUSH1 0x0 SWAP1 JUMP JUMPDEST SWAP2 SWAP1 PUSH1 0x1 DUP4 ADD PUSH1 0x0 SWAP1 DUP3 DUP3 MSTORE DUP1 PUSH1 0x20 MSTORE PUSH1 0x40 DUP3 KECCAK256 SLOAD ISZERO PUSH1 0x0 EQ PUSH2 0x2051 JUMPI DUP5 SLOAD SWAP5 PUSH9 0x10000000000000000 DUP7 LT ISZERO PUSH2 0x2024 JUMPI DUP4 PUSH2 0x2014 PUSH2 0x1FDF DUP9 PUSH1 0x1 PUSH1 0x40 SWAP9 SWAP10 SWAP11 ADD DUP6 SSTORE DUP5 PUSH2 0x1F7E JUMP JUMPDEST DUP2 SWAP4 SWAP2 SLOAD SWAP1 PUSH32 0xFFFFFFFFFFFFFFFFFFFFFFFFFFFFFFFFFFFFFFFFFFFFFFFFFFFFFFFFFFFFFFFF SWAP1 PUSH1 0x3 SHL SWAP3 DUP4 SHL SWAP3 SHL NOT AND OR SWAP1 JUMP JUMPDEST SWAP1 SSTORE SLOAD SWAP4 DUP3 MSTORE PUSH1 0x20 MSTORE KECCAK256 SSTORE PUSH1 0x1 SWAP1 JUMP JUMPDEST PUSH1 0x24 DUP4 PUSH32 0x4E487B7100000000000000000000000000000000000000000000000000000000 DUP2 MSTORE PUSH1 0x41 PUSH1 0x4 MSTORE REVERT JUMPDEST POP SWAP3 POP POP JUMP JUMPDEST SWAP1 PUSH1 0x1 DUP3 ADD SWAP1 PUSH1 0x0 SWAP3 DUP2 DUP5 MSTORE DUP3 PUSH1 0x20 MSTORE PUSH1 0x40 DUP5 KECCAK256 SLOAD SWAP1 DUP2 ISZERO ISZERO PUSH1 0x0 EQ PUSH2 0x21A9 JUMPI PUSH32 0xFFFFFFFFFFFFFFFFFFFFFFFFFFFFFFFFFFFFFFFFFFFFFFFFFFFFFFFFFFFFFFFF SWAP2 DUP3 DUP2 ADD DUP2 DUP2 GT PUSH2 0x217C JUMPI DUP3 SLOAD SWAP1 DUP5 DUP3 ADD SWAP2 DUP3 GT PUSH2 0x214F JUMPI DUP1 DUP3 SUB PUSH2 0x211A JUMPI JUMPDEST POP POP POP DUP1 SLOAD DUP1 ISZERO PUSH2 0x20ED JUMPI DUP3 ADD SWAP2 PUSH2 0x20D0 DUP4 DUP4 PUSH2 0x1F7E JUMP JUMPDEST SWAP1 SWAP2 DUP3 SLOAD SWAP2 PUSH1 0x3 SHL SHL NOT AND SWAP1 SSTORE SSTORE DUP3 MSTORE PUSH1 0x20 MSTORE PUSH1 0x40 DUP2 KECCAK256 SSTORE PUSH1 0x1 SWAP1 JUMP JUMPDEST PUSH1 0x24 DUP7 PUSH32 0x4E487B7100000000000000000000000000000000000000000000000000000000 DUP2 MSTORE PUSH1 0x31 PUSH1 0x4 MSTORE REVERT JUMPDEST PUSH2 0x213A PUSH2 0x212A PUSH2 0x1FDF SWAP4 DUP7 PUSH2 0x1F7E JUMP JUMPDEST SWAP1 SLOAD SWAP1 PUSH1 0x3 SHL SHR SWAP3 DUP4 SWAP3 DUP7 PUSH2 0x1F7E JUMP JUMPDEST SWAP1 SSTORE DUP7 MSTORE DUP5 PUSH1 0x20 MSTORE PUSH1 0x40 DUP7 KECCAK256 SSTORE CODESIZE DUP1 DUP1 PUSH2 0x20B8 JUMP JUMPDEST PUSH1 0x24 DUP9 PUSH32 0x4E487B7100000000000000000000000000000000000000000000000000000000 DUP2 MSTORE PUSH1 0x11 PUSH1 0x4 MSTORE REVERT JUMPDEST PUSH1 0x24 DUP8 PUSH32 0x4E487B7100000000000000000000000000000000000000000000000000000000 DUP2 MSTORE PUSH1 0x11 PUSH1 0x4 MSTORE REVERT JUMPDEST POP POP POP POP SWAP1 JUMP JUMPDEST PUSH20 0xFFFFFFFFFFFFFFFFFFFFFFFFFFFFFFFFFFFFFFFF AND SWAP1 PUSH1 0x40 MLOAD PUSH1 0x40 DUP2 ADD SWAP1 DUP1 DUP3 LT PUSH8 0xFFFFFFFFFFFFFFFF DUP4 GT OR PUSH2 0x1C24 JUMPI PUSH2 0x2230 SWAP2 PUSH1 0x40 MSTORE PUSH1 0x20 SWAP4 DUP5 DUP3 MSTORE PUSH32 0x5361666545524332303A206C6F772D6C6576656C2063616C6C206661696C6564 DUP6 DUP4 ADD MSTORE PUSH1 0x0 DUP1 DUP6 DUP8 DUP3 SWAP8 MLOAD SWAP2 ADD DUP3 DUP6 GAS CALL PUSH2 0x222A PUSH2 0x22F3 JUMP JUMPDEST SWAP2 PUSH2 0x2351 JUMP JUMPDEST DUP1 MLOAD SWAP2 DUP3 ISZERO SWAP2 DUP5 DUP4 ISZERO PUSH2 0x22CF JUMPI JUMPDEST POP POP POP SWAP1 POP ISZERO PUSH2 0x224B JUMPI POP JUMP JUMPDEST PUSH1 0x84 SWAP1 PUSH1 0x40 MLOAD SWAP1 PUSH32 0x8C379A000000000000000000000000000000000000000000000000000000000 DUP3 MSTORE PUSH1 0x4 DUP3 ADD MSTORE PUSH1 0x2A PUSH1 0x24 DUP3 ADD MSTORE PUSH32 0x5361666545524332303A204552433230206F7065726174696F6E20646964206E PUSH1 0x44 DUP3 ADD MSTORE PUSH32 0x6F74207375636365656400000000000000000000000000000000000000000000 PUSH1 0x64 DUP3 ADD MSTORE REVERT JUMPDEST SWAP2 SWAP4 DUP2 DUP1 SWAP5 POP ADD SUB SLT PUSH2 0x386 JUMPI DUP3 ADD MLOAD SWAP1 DUP2 ISZERO ISZERO DUP3 SUB PUSH2 0x34B JUMPI POP DUP1 CODESIZE DUP1 DUP5 PUSH2 0x223E JUMP JUMPDEST RETURNDATASIZE ISZERO PUSH2 0x234C JUMPI RETURNDATASIZE SWAP1 PUSH8 0xFFFFFFFFFFFFFFFF DUP3 GT PUSH2 0x1C24 JUMPI PUSH1 0x40 MLOAD SWAP2 PUSH2 0x2340 PUSH1 0x20 PUSH32 0xFFFFFFFFFFFFFFFFFFFFFFFFFFFFFFFFFFFFFFFFFFFFFFFFFFFFFFFFFFFFFFE0 PUSH1 0x1F DUP5 ADD AND ADD DUP5 PUSH2 0x1C8B JUMP JUMPDEST DUP3 MSTORE RETURNDATASIZE PUSH1 0x0 PUSH1 0x20 DUP5 ADD RETURNDATACOPY JUMP JUMPDEST PUSH1 0x60 SWAP1 JUMP JUMPDEST SWAP2 SWAP3 SWAP1 ISZERO PUSH2 0x23CC JUMPI POP DUP2 MLOAD ISZERO PUSH2 0x2365 JUMPI POP SWAP1 JUMP JUMPDEST EXTCODESIZE ISZERO PUSH2 0x236E JUMPI SWAP1 JUMP JUMPDEST PUSH1 0x64 PUSH1 0x40 MLOAD PUSH32 0x8C379A000000000000000000000000000000000000000000000000000000000 DUP2 MSTORE PUSH1 0x20 PUSH1 0x4 DUP3 ADD MSTORE PUSH1 0x1D PUSH1 0x24 DUP3 ADD MSTORE PUSH32 0x416464726573733A2063616C6C20746F206E6F6E2D636F6E7472616374000000 PUSH1 0x44 DUP3 ADD MSTORE REVERT JUMPDEST DUP3 MLOAD SWAP1 SWAP2 POP ISZERO PUSH2 0x23DF JUMPI POP DUP1 MLOAD SWAP1 PUSH1 0x20 ADD REVERT JUMPDEST PUSH2 0x73E SWAP1 PUSH1 0x40 MLOAD SWAP2 DUP3 SWAP2 PUSH32 0x8C379A000000000000000000000000000000000000000000000000000000000 DUP4 MSTORE PUSH1 0x4 DUP4 ADD PUSH2 0x1CCC JUMP INVALID LOG2 PUSH5 0x6970667358 0x22 SLT KECCAK256 0xCB 0x5D SWAP15 PUSH12 0x16161FA2406381893F6870B6 PUSH20 0xD77D593C20D02145F96D674BA8A4E464736F6C63 NUMBER STOP ADDMOD SGT STOP CALLER "
				}
			},
			"userdoc": {
				"errors": {
					"InsufficientPayment(address,uint256,uint256)": [
						{
							"notice": "Insufficient tokens for payment."
						}
					],
					"InsufficientSupply(uint256,uint256,uint256)": [
						{
							"notice": "Insufficient supply."
						}
					],
					"InvalidInitialization()": [
						{
							"notice": "Contract already initialized."
						}
					],
					"InvalidSaleDetails()": [
						{
							"notice": "Sale details supplied are invalid."
						}
					],
					"MerkleProofInvalid(bytes32,bytes32[],address,bytes32)": [
						{
							"notice": "Thrown when the merkle proof is invalid or has already been used."
						}
					],
					"SaleInactive()": [
						{
							"notice": "Sale is not active."
						}
					],
					"WithdrawFailed()": [
						{
							"notice": "Withdraw failed error."
						}
					]
				},
				"kind": "user",
				"methods": {
					"checkMerkleProof(bytes32,bytes32[],address,bytes32)": {
						"notice": "Checks if the given merkle proof is valid."
					},
					"initialize(address,address)": {
						"notice": "Initialize the contract."
					},
					"mint(address,uint256,address,uint256,bytes32[])": {
						"notice": "Mint tokens.Sale must be active for all tokens."
					},
					"saleDetails()": {
						"notice": "Get sale details."
					},
					"setSaleDetails(uint256,uint256,address,uint64,uint64,bytes32)": {
						"notice": "Set the sale details."
					},
					"supportsInterface(bytes4)": {
						"notice": "Check interface support."
					},
					"withdrawERC20(address,address,uint256)": {
						"notice": "Withdraws ERC20 tokens owned by this contract.Only callable by an address with the withdraw role."
					},
					"withdrawETH(address,uint256)": {
						"notice": "Withdraws ETH owned by this sale contract.Only callable by an address with the withdraw role."
					}
				},
				"notice": "An ERC-721 token contract with primary sale mechanisms.",
				"version": 1
			}
		}
	}
}