{
	"src/payments/Payments.sol": {
		"Payments": {
			"abi": [
				{
					"inputs": [],
					"name": "ChainedCallFailed",
					"type": "error"
				},
				{
					"inputs": [],
					"name": "InvalidInitialization",
					"type": "error"
				},
				{
					"inputs": [],
					"name": "InvalidSignature",
					"type": "error"
				},
				{
					"inputs": [],
					"name": "InvalidTokenTransfer",
					"type": "error"
				},
				{
					"inputs": [],
					"name": "PaymentAlreadyAccepted",
					"type": "error"
				},
				{
					"inputs": [],
					"name": "PaymentExpired",
					"type": "error"
				},
				{
					"anonymous": false,
					"inputs": [
						{
							"indexed": true,
							"internalType": "address",
							"name": "previousOwner",
							"type": "address"
						},
						{
							"indexed": true,
							"internalType": "address",
							"name": "newOwner",
							"type": "address"
						}
					],
					"name": "OwnershipTransferred",
					"type": "event"
				},
				{
					"anonymous": false,
					"inputs": [
						{
							"indexed": true,
							"internalType": "address",
							"name": "spender",
							"type": "address"
						},
						{
							"indexed": true,
							"internalType": "address",
							"name": "productRecipient",
							"type": "address"
						},
						{
							"indexed": true,
							"internalType": "uint256",
							"name": "purchaseId",
							"type": "uint256"
						},
						{
							"indexed": false,
							"internalType": "string",
							"name": "productId",
							"type": "string"
						}
					],
					"name": "PaymentMade",
					"type": "event"
				},
				{
					"inputs": [
						{
							"components": [
								{
									"internalType": "address",
									"name": "chainedCallAddress",
									"type": "address"
								},
								{
									"internalType": "bytes",
									"name": "chainedCallData",
									"type": "bytes"
								}
							],
							"internalType": "struct IPaymentsFunctions.ChainedCallDetails",
							"name": "chainedCallDetails",
							"type": "tuple"
						}
					],
					"name": "hashChainedCallDetails",
					"outputs": [
						{
							"internalType": "bytes32",
							"name": "",
							"type": "bytes32"
						}
					],
					"stateMutability": "view",
					"type": "function"
				},
				{
					"inputs": [
						{
							"components": [
								{
									"internalType": "uint256",
									"name": "purchaseId",
									"type": "uint256"
								},
								{
									"internalType": "address",
									"name": "productRecipient",
									"type": "address"
								},
								{
									"internalType": "enum IPaymentsFunctions.TokenType",
									"name": "tokenType",
									"type": "uint8"
								},
								{
									"internalType": "address",
									"name": "tokenAddress",
									"type": "address"
								},
								{
									"internalType": "uint256",
									"name": "tokenId",
									"type": "uint256"
								},
								{
									"components": [
										{
											"internalType": "address",
											"name": "recipient",
											"type": "address"
										},
										{
											"internalType": "uint256",
											"name": "amount",
											"type": "uint256"
										}
									],
									"internalType": "struct IPaymentsFunctions.PaymentRecipient[]",
									"name": "paymentRecipients",
									"type": "tuple[]"
								},
								{
									"internalType": "uint64",
									"name": "expiration",
									"type": "uint64"
								},
								{
									"internalType": "string",
									"name": "productId",
									"type": "string"
								},
								{
									"components": [
										{
											"internalType": "address",
											"name": "chainedCallAddress",
											"type": "address"
										},
										{
											"internalType": "bytes",
											"name": "chainedCallData",
											"type": "bytes"
										}
									],
									"internalType": "struct IPaymentsFunctions.ChainedCallDetails",
									"name": "chainedCallDetails",
									"type": "tuple"
								}
							],
							"internalType": "struct IPaymentsFunctions.PaymentDetails",
							"name": "paymentDetails",
							"type": "tuple"
						}
					],
					"name": "hashPaymentDetails",
					"outputs": [
						{
							"internalType": "bytes32",
							"name": "",
							"type": "bytes32"
						}
					],
					"stateMutability": "view",
					"type": "function"
				},
				{
					"inputs": [
						{
							"internalType": "address",
							"name": "_owner",
							"type": "address"
						},
						{
							"internalType": "address",
							"name": "_signer",
							"type": "address"
						}
					],
					"name": "initialize",
					"outputs": [],
					"stateMutability": "nonpayable",
					"type": "function"
				},
				{
					"inputs": [
						{
							"components": [
								{
									"internalType": "address",
									"name": "chainedCallAddress",
									"type": "address"
								},
								{
									"internalType": "bytes",
									"name": "chainedCallData",
									"type": "bytes"
								}
							],
							"internalType": "struct IPaymentsFunctions.ChainedCallDetails",
							"name": "chainedCallDetails",
							"type": "tuple"
						},
						{
							"internalType": "bytes",
							"name": "signature",
							"type": "bytes"
						}
					],
					"name": "isValidChainedCallSignature",
					"outputs": [
						{
							"internalType": "bool",
							"name": "",
							"type": "bool"
						}
					],
					"stateMutability": "view",
					"type": "function"
				},
				{
					"inputs": [
						{
							"components": [
								{
									"internalType": "uint256",
									"name": "purchaseId",
									"type": "uint256"
								},
								{
									"internalType": "address",
									"name": "productRecipient",
									"type": "address"
								},
								{
									"internalType": "enum IPaymentsFunctions.TokenType",
									"name": "tokenType",
									"type": "uint8"
								},
								{
									"internalType": "address",
									"name": "tokenAddress",
									"type": "address"
								},
								{
									"internalType": "uint256",
									"name": "tokenId",
									"type": "uint256"
								},
								{
									"components": [
										{
											"internalType": "address",
											"name": "recipient",
											"type": "address"
										},
										{
											"internalType": "uint256",
											"name": "amount",
											"type": "uint256"
										}
									],
									"internalType": "struct IPaymentsFunctions.PaymentRecipient[]",
									"name": "paymentRecipients",
									"type": "tuple[]"
								},
								{
									"internalType": "uint64",
									"name": "expiration",
									"type": "uint64"
								},
								{
									"internalType": "string",
									"name": "productId",
									"type": "string"
								},
								{
									"components": [
										{
											"internalType": "address",
											"name": "chainedCallAddress",
											"type": "address"
										},
										{
											"internalType": "bytes",
											"name": "chainedCallData",
											"type": "bytes"
										}
									],
									"internalType": "struct IPaymentsFunctions.ChainedCallDetails",
									"name": "chainedCallDetails",
									"type": "tuple"
								}
							],
							"internalType": "struct IPaymentsFunctions.PaymentDetails",
							"name": "paymentDetails",
							"type": "tuple"
						},
						{
							"internalType": "bytes",
							"name": "signature",
							"type": "bytes"
						}
					],
					"name": "isValidPaymentSignature",
					"outputs": [
						{
							"internalType": "bool",
							"name": "",
							"type": "bool"
						}
					],
					"stateMutability": "view",
					"type": "function"
				},
				{
					"inputs": [
						{
							"components": [
								{
									"internalType": "uint256",
									"name": "purchaseId",
									"type": "uint256"
								},
								{
									"internalType": "address",
									"name": "productRecipient",
									"type": "address"
								},
								{
									"internalType": "enum IPaymentsFunctions.TokenType",
									"name": "tokenType",
									"type": "uint8"
								},
								{
									"internalType": "address",
									"name": "tokenAddress",
									"type": "address"
								},
								{
									"internalType": "uint256",
									"name": "tokenId",
									"type": "uint256"
								},
								{
									"components": [
										{
											"internalType": "address",
											"name": "recipient",
											"type": "address"
										},
										{
											"internalType": "uint256",
											"name": "amount",
											"type": "uint256"
										}
									],
									"internalType": "struct IPaymentsFunctions.PaymentRecipient[]",
									"name": "paymentRecipients",
									"type": "tuple[]"
								},
								{
									"internalType": "uint64",
									"name": "expiration",
									"type": "uint64"
								},
								{
									"internalType": "string",
									"name": "productId",
									"type": "string"
								},
								{
									"components": [
										{
											"internalType": "address",
											"name": "chainedCallAddress",
											"type": "address"
										},
										{
											"internalType": "bytes",
											"name": "chainedCallData",
											"type": "bytes"
										}
									],
									"internalType": "struct IPaymentsFunctions.ChainedCallDetails",
									"name": "chainedCallDetails",
									"type": "tuple"
								}
							],
							"internalType": "struct IPaymentsFunctions.PaymentDetails",
							"name": "paymentDetails",
							"type": "tuple"
						},
						{
							"internalType": "bytes",
							"name": "signature",
							"type": "bytes"
						}
					],
					"name": "makePayment",
					"outputs": [],
					"stateMutability": "payable",
					"type": "function"
				},
				{
					"inputs": [],
					"name": "owner",
					"outputs": [
						{
							"internalType": "address",
							"name": "",
							"type": "address"
						}
					],
					"stateMutability": "view",
					"type": "function"
				},
				{
					"inputs": [
						{
							"internalType": "uint256",
							"name": "",
							"type": "uint256"
						}
					],
					"name": "paymentAccepted",
					"outputs": [
						{
							"internalType": "bool",
							"name": "",
							"type": "bool"
						}
					],
					"stateMutability": "view",
					"type": "function"
				},
				{
					"inputs": [
						{
							"components": [
								{
									"internalType": "address",
									"name": "chainedCallAddress",
									"type": "address"
								},
								{
									"internalType": "bytes",
									"name": "chainedCallData",
									"type": "bytes"
								}
							],
							"internalType": "struct IPaymentsFunctions.ChainedCallDetails",
							"name": "chainedCallDetails",
							"type": "tuple"
						},
						{
							"internalType": "bytes",
							"name": "signature",
							"type": "bytes"
						}
					],
					"name": "performChainedCall",
					"outputs": [],
					"stateMutability": "nonpayable",
					"type": "function"
				},
				{
					"inputs": [],
					"name": "renounceOwnership",
					"outputs": [],
					"stateMutability": "nonpayable",
					"type": "function"
				},
				{
					"inputs": [],
					"name": "signer",
					"outputs": [
						{
							"internalType": "address",
							"name": "",
							"type": "address"
						}
					],
					"stateMutability": "view",
					"type": "function"
				},
				{
					"inputs": [
						{
							"internalType": "bytes4",
							"name": "_interfaceID",
							"type": "bytes4"
						}
					],
					"name": "supportsInterface",
					"outputs": [
						{
							"internalType": "bool",
							"name": "",
							"type": "bool"
						}
					],
					"stateMutability": "view",
					"type": "function"
				},
				{
					"inputs": [
						{
							"internalType": "address",
							"name": "newOwner",
							"type": "address"
						}
					],
					"name": "transferOwnership",
					"outputs": [],
					"stateMutability": "nonpayable",
					"type": "function"
				},
				{
					"inputs": [
						{
							"internalType": "address",
							"name": "newSigner",
							"type": "address"
						}
					],
					"name": "updateSigner",
					"outputs": [],
					"stateMutability": "nonpayable",
					"type": "function"
				}
			],
			"devdoc": {
				"kind": "dev",
				"methods": {
					"hashChainedCallDetails((address,bytes))": {
						"details": "This hash includes the chain ID.",
						"params": {
							"chainedCallDetails": "The chained call details."
						},
						"returns": {
							"_0": "The hash of the chained call for signing."
						}
					},
					"hashPaymentDetails((uint256,address,uint8,address,uint256,(address,uint256)[],uint64,string,(address,bytes)))": {
						"details": "This hash includes the chain ID.",
						"params": {
							"paymentDetails": "The payment details."
						},
						"returns": {
							"_0": "The hash of the payment details for signing."
						}
					},
					"initialize(address,address)": {
						"details": "This should be called immediately after deployment.",
						"params": {
							"_owner": "Owner address",
							"_signer": "Signer address"
						}
					},
					"isValidChainedCallSignature((address,bytes),bytes)": {
						"params": {
							"chainedCallDetails": "The chained call details.",
							"signature": "The signature of the chained call."
						},
						"returns": {
							"_0": "True if the signature is valid."
						}
					},
					"isValidPaymentSignature((uint256,address,uint8,address,uint256,(address,uint256)[],uint64,string,(address,bytes)),bytes)": {
						"params": {
							"paymentDetails": "The payment details.",
							"signature": "The signature of the payment."
						},
						"returns": {
							"_0": "True if the signature is valid."
						}
					},
					"makePayment((uint256,address,uint8,address,uint256,(address,uint256)[],uint64,string,(address,bytes)),bytes)": {
						"params": {
							"paymentDetails": "The payment details.",
							"signature": "The signature of the payment."
						}
					},
					"owner()": {
						"details": "Returns the address of the current owner."
					},
					"performChainedCall((address,bytes),bytes)": {
						"details": "As the signer can validate any payment (including zero) this function does not increase the security surface.",
						"params": {
							"chainedCallDetails": "The chained call details.",
							"signature": "The signature of the chained call."
						}
					},
					"renounceOwnership()": {
						"details": "Leaves the contract without owner. It will not be possible to call `onlyOwner` functions. Can only be called by the current owner. NOTE: Renouncing ownership will leave the contract without an owner, thereby disabling any functionality that is only available to the owner."
					},
					"supportsInterface(bytes4)": {
						"details": "Interface identification is specified in ERC-165. This function uses less than 30,000 gas",
						"params": {
							"_interfaceId": "The interface identifier, as specified in ERC-165"
						}
					},
					"transferOwnership(address)": {
						"details": "Transfers ownership of the contract to a new account (`newOwner`). Can only be called by the current owner."
					}
				},
				"stateVariables": {
					"paymentAccepted": {
						"params": {
							"purchaseId": "The ID of the purchase."
						},
						"return": "accepted True if the payment has been accepted.",
						"returns": {
							"_0": "accepted True if the payment has been accepted."
						}
					},
					"signer": {
						"return": "signer The signer address.",
						"returns": {
							"_0": "signer The signer address."
						}
					}
				},
				"version": 1
			},
			"evm": {
				"bytecode": {
					"linkReferences": {},
					"object": "6080806040523461005b5760008054336001600160a01b0319821681178355916001600160a01b03909116907f8be0079c531659141344cd1fd0a4f28419497f9722a3daafe3b4186f6b6457e09080a361149e90816100618239f35b600080fdfe6080604081815260048036101561001557600080fd5b600092833560e01c90816301ffc9a7146109cd575080630e6fe11f1461098e578063238ac933146109595780633a63b8031461092d578063485cc95514610847578063579a97e61461082b578063715018a6146107ad5780637b8bdc8e146107885780638da5cb5b1461075557806398c3065f14610709578063a7ecd37e146106a2578063b223870014610651578063decfb3b21461018f5763f2fde38b146100bd57600080fd5b3461018b57602060031936011261018b576100d6610a7c565b916100df610b88565b73ffffffffffffffffffffffffffffffffffffffff831615610108578361010584610c07565b80f35b90602060849251917f08c379a0000000000000000000000000000000000000000000000000000000008352820152602660248201527f4f776e61626c653a206e6577206f776e657220697320746865207a65726f206160448201527f64647265737300000000000000000000000000000000000000000000000000006064820152fd5b8280fd5b509061019a36610b3f565b8293919492359283875260029160209683885260ff858a20541661062957906101c39187610dc1565b156106025767ffffffffffffffff6101dd60c08701610c74565b1642116105db5783875281865282872091600192837fffffffffffffffffffffffffffffffffffffffffffffffffffffffffffffff008254161790558288905b6102ca575b50505050610231848401610cdd565b937fbff0538a548e4ea8a217734a505ce9d9375306f438db1247603684e165834db861028e61026360e0870187610cfe565b945191829185835273ffffffffffffffffffffffffffffffffffffffff809a16963396840191610d4f565b0390a46101008101916102a96102a48484610d8e565b610cdd565b166102b2578280f35b6102c4916102bf91610d8e565b6110e2565b38808280f35b60a08088016102d9818a610c89565b90508310156105d4576102ec9089610c89565b8310156105a8578a908360061b01878a013592600384101561018b578b938b9289606061031a818701610cdd565b97608061032685610cdd565b970135930135938a81146000146104315750505073ffffffffffffffffffffffffffffffffffffffff809616803b1561042d5760c4938a9387938e51998a9889977ff242432a00000000000000000000000000000000000000000000000000000000895233908901521660248701526044860152606485015260848401528160a48401525af1801561042357610414575b505b7fffffffffffffffffffffffffffffffffffffffffffffffffffffffffffffffff81146103e85783018361021d565b6024896011857f4e487b7100000000000000000000000000000000000000000000000000000000835252fd5b61041d90610df4565b386103b7565b86513d8c823e3d90fd5b8580fd5b92979650909350908084036104f6575050116104ce57908b9173ffffffffffffffffffffffffffffffffffffffff80921690813b156104ca57836064928b5196879586947f42842e0e000000000000000000000000000000000000000000000000000000008652338d87015216602485015260448401525af18015610423576104bb575b506103b9565b6104c490610df4565b386104b5565b8380fd5b8588517f289aef69000000000000000000000000000000000000000000000000000000008152fd5b919590949392509061058057610558578c606481938e938c519787528c5233861b602c526f23b872dd000000000000000000000000600c52601c9485915af18c5188143d1517161561054d57508a905285526103b9565b8590637939f4248d52fd5b8689517f289aef69000000000000000000000000000000000000000000000000000000008152fd5b878a517f289aef69000000000000000000000000000000000000000000000000000000008152fd5b60248b6032877f4e487b7100000000000000000000000000000000000000000000000000000000835252fd5b5050610222565b82517f664b28b0000000000000000000000000000000000000000000000000000000008152fd5b82517f8baa579f000000000000000000000000000000000000000000000000000000008152fd5b8285517fb383ff03000000000000000000000000000000000000000000000000000000008152fd5b503461018b5761066d9161066436610af3565b9082959261104d565b1561067c5783610105846110e2565b517f8baa579f000000000000000000000000000000000000000000000000000000008152fd5b83346107065760206003193601126107065773ffffffffffffffffffffffffffffffffffffffff6106d1610a7c565b6106d9610b88565b167fffffffffffffffffffffffff0000000000000000000000000000000000000000600154161760015580f35b80fd5b503461018b57600319926020843601126107065781359367ffffffffffffffff851161075157610120908536030112610706575060209261074a9101610e78565b9051908152f35b5080fd5b50503461075157816003193601126107515773ffffffffffffffffffffffffffffffffffffffff60209254169051908152f35b505034610751576020906107a461079e36610b3f565b91610dc1565b90519015158152f35b83346107065780600319360112610706576107c6610b88565b8073ffffffffffffffffffffffffffffffffffffffff81547fffffffffffffffffffffffff000000000000000000000000000000000000000081168355167f8be0079c531659141344cd1fd0a4f28419497f9722a3daafe3b4186f6b6457e08280a380f35b505034610751576020906107a461084136610af3565b9161104d565b503461018b578160031936011261018b57610860610a7c565b906024359273ffffffffffffffffffffffffffffffffffffffff84168094036109295760ff855460a01c1661090357505061089a90610c07565b7fffffffffffffffffffffffff00000000000000000000000000000000000000006001541617600155740100000000000000000000000000000000000000007fffffffffffffffffffffff00ffffffffffffffffffffffffffffffffffffffff82541617815580f35b517ff92ee8a9000000000000000000000000000000000000000000000000000000008152fd5b8480fd5b503461018b57602060031936011261018b578160209360ff923581526002855220541690519015158152f35b50503461075157816003193601126107515760209073ffffffffffffffffffffffffffffffffffffffff600154169051908152f35b503461018b57600319926020843601126107065781359367ffffffffffffffff85116107515783908536030112610706575060209261074a9101611057565b9250503461018b57602060031936011261018b57357fffffffff00000000000000000000000000000000000000000000000000000000811680910361018b57602092508015908115610a52575b8115610a28575b5015158152f35b7f01ffc9a70000000000000000000000000000000000000000000000000000000091501438610a21565b7fcfb8e9aa0000000000000000000000000000000000000000000000000000000081149150610a1a565b6004359073ffffffffffffffffffffffffffffffffffffffff82168203610a9f57565b600080fd5b359073ffffffffffffffffffffffffffffffffffffffff82168203610a9f57565b9181601f84011215610a9f5782359167ffffffffffffffff8311610a9f5760208381860195010111610a9f57565b90600319604081840112610a9f5760043567ffffffffffffffff91828211610a9f576040908286030112610a9f5760040192602435918211610a9f57610b3b91600401610ac5565b9091565b90600319604081840112610a9f5760043567ffffffffffffffff91828211610a9f57610120908286030112610a9f5760040192602435918211610a9f57610b3b91600401610ac5565b73ffffffffffffffffffffffffffffffffffffffff600054163303610ba957565b60646040517f08c379a000000000000000000000000000000000000000000000000000000000815260206004820152602060248201527f4f776e61626c653a2063616c6c6572206973206e6f7420746865206f776e65726044820152fd5b6000549073ffffffffffffffffffffffffffffffffffffffff80911691827fffffffffffffffffffffffff0000000000000000000000000000000000000000821617600055167f8be0079c531659141344cd1fd0a4f28419497f9722a3daafe3b4186f6b6457e0600080a3565b3567ffffffffffffffff81168103610a9f5790565b9035907fffffffffffffffffffffffffffffffffffffffffffffffffffffffffffffffe181360301821215610a9f570180359067ffffffffffffffff8211610a9f57602001918160061b36038313610a9f57565b3573ffffffffffffffffffffffffffffffffffffffff81168103610a9f5790565b9035907fffffffffffffffffffffffffffffffffffffffffffffffffffffffffffffffe181360301821215610a9f570180359067ffffffffffffffff8211610a9f57602001918136038313610a9f57565b601f82602094937fffffffffffffffffffffffffffffffffffffffffffffffffffffffffffffffe0938186528686013760008582860101520116010190565b9035907fffffffffffffffffffffffffffffffffffffffffffffffffffffffffffffffc181360301821215610a9f570190565b90610dcf610dd49392610e78565b6111d0565b73ffffffffffffffffffffffffffffffffffffffff806001541691161490565b67ffffffffffffffff8111610e0857604052565b7f4e487b7100000000000000000000000000000000000000000000000000000000600052604160045260246000fd5b90601f7fffffffffffffffffffffffffffffffffffffffffffffffffffffffffffffffe0910116810190811067ffffffffffffffff821117610e0857604052565b610e8460208201610cdd565b906040810135906003821015610a9f5790610ea160608301610cdd565b90610eaf60a0840184610c89565b939092610ebe60c08301610c74565b94610ecc60e0840184610cfe565b6080610edf610100879994990187610d8e565b956040519a8b966101608801994660208a0152833560408a01528473ffffffffffffffffffffffffffffffffffffffff998a809516606082015201521660a08c0152013560c08a015282610140968760e08c0152526101808901919260005b81811061101e575050610f90925067ffffffffffffffff8098166101008a01527fffffffffffffffffffffffffffffffffffffffffffffffffffffffffffffffe096878a8403016101208b0152610d4f565b92848785030190870152610fa382610aa4565b16825260208101357fffffffffffffffffffffffffffffffffffffffffffffffffffffffffffffffe182360301811215610a9f570190602082359201938211610a9f578136038413610a9f576110149385926040838160206110089601520191610d4f565b03908101835282610e37565b6020815191012090565b9091926040806001928861103189610aa4565b1681526020880135602082015201950191019392919093610f3e565b90610dcf610dd493925b6110dc61107161106683610cdd565b926020810190610cfe565b6110b060409392935193849273ffffffffffffffffffffffffffffffffffffffff60208501974689521660408501526060808501526080840191610d4f565b037fffffffffffffffffffffffffffffffffffffffffffffffffffffffffffffffe08101835282610e37565b51902090565b6110f96110ee82610cdd565b916020810190610cfe565b91826040519384938437820190600093848094848280965203925af1903d156111ca573d9067ffffffffffffffff821161119d576040519161116360207fffffffffffffffffffffffffffffffffffffffffffffffffffffffffffffffe0601f8401160184610e37565b825260203d92013e5b1561117357565b60046040517f7cc2fbb3000000000000000000000000000000000000000000000000000000008152fd5b807f4e487b7100000000000000000000000000000000000000000000000000000000602492526041600452fd5b5061116c565b909160008093821561143b57600191813560f81c8381036112d8575050828211610929579081857fffffffffffffffffffffffffffffffffffffffffffffffffffffffffffffffff8360209501950183906040968791825199855286838214604180931491611261575b5050505050608092505afa51923d15611254576060525290565b638baa579f90526004601cfd5b6112915761127c57505050506080915080853880808061123a565b6080950135841a87528137853880808061123a565b50507f7fffffffffffffffffffffffffffffffffffffffffffffffffffffffffffffff91506021608095013590601b8260ff1c01885235885216606052853880808061123a565b60029097969492959391971480611430575b6112f6575b5050505050565b8496509390919293013560601c94816015116104ca5761137c9160209160405193849283927f1626ba7e000000000000000000000000000000000000000000000000000000009788855260048501526040602485015260157fffffffffffffffffffffffffffffffffffffffffffffffffffffffffffffffeb6044860193019101610d4f565b0381885afa8391816113d4575b5061139e5750909250505b38808080806112ef565b7fffffffff0000000000000000000000000000000000000000000000000000000016036113cc575b50611394565b9150386113c6565b9091506020813d8211611428575b816113ef60209383610e37565b810103126104ca57517fffffffff00000000000000000000000000000000000000000000000000000000811681036104ca579038611389565b3d91506113e2565b5060158210156112ea565b6024857f4e487b710000000000000000000000000000000000000000000000000000000081526032600452fdfea26469706673582212209aeb45877519b9acd168c435fba72de99b3576f5579e22daa46c2528edb74d6664736f6c63430008130033",
					"opcodes": "PUSH1 0x80 DUP1 PUSH1 0x40 MSTORE CALLVALUE PUSH2 0x5B JUMPI PUSH1 0x0 DUP1 SLOAD CALLER PUSH1 0x1 PUSH1 0x1 PUSH1 0xA0 SHL SUB NOT DUP3 AND DUP2 OR DUP4 SSTORE SWAP2 PUSH1 0x1 PUSH1 0x1 PUSH1 0xA0 SHL SUB SWAP1 SWAP2 AND SWAP1 PUSH32 0x8BE0079C531659141344CD1FD0A4F28419497F9722A3DAAFE3B4186F6B6457E0 SWAP1 DUP1 LOG3 PUSH2 0x149E SWAP1 DUP2 PUSH2 0x61 DUP3 CODECOPY RETURN JUMPDEST PUSH1 0x0 DUP1 REVERT INVALID PUSH1 0x80 PUSH1 0x40 DUP2 DUP2 MSTORE PUSH1 0x4 DUP1 CALLDATASIZE LT ISZERO PUSH2 0x15 JUMPI PUSH1 0x0 DUP1 REVERT JUMPDEST PUSH1 0x0 SWAP3 DUP4 CALLDATALOAD PUSH1 0xE0 SHR SWAP1 DUP2 PUSH4 0x1FFC9A7 EQ PUSH2 0x9CD JUMPI POP DUP1 PUSH4 0xE6FE11F EQ PUSH2 0x98E JUMPI DUP1 PUSH4 0x238AC933 EQ PUSH2 0x959 JUMPI DUP1 PUSH4 0x3A63B803 EQ PUSH2 0x92D JUMPI DUP1 PUSH4 0x485CC955 EQ PUSH2 0x847 JUMPI DUP1 PUSH4 0x579A97E6 EQ PUSH2 0x82B JUMPI DUP1 PUSH4 0x715018A6 EQ PUSH2 0x7AD JUMPI DUP1 PUSH4 0x7B8BDC8E EQ PUSH2 0x788 JUMPI DUP1 PUSH4 0x8DA5CB5B EQ PUSH2 0x755 JUMPI DUP1 PUSH4 0x98C3065F EQ PUSH2 0x709 JUMPI DUP1 PUSH4 0xA7ECD37E EQ PUSH2 0x6A2 JUMPI DUP1 PUSH4 0xB2238700 EQ PUSH2 0x651 JUMPI DUP1 PUSH4 0xDECFB3B2 EQ PUSH2 0x18F JUMPI PUSH4 0xF2FDE38B EQ PUSH2 0xBD JUMPI PUSH1 0x0 DUP1 REVERT JUMPDEST CALLVALUE PUSH2 0x18B JUMPI PUSH1 0x20 PUSH1 0x3 NOT CALLDATASIZE ADD SLT PUSH2 0x18B JUMPI PUSH2 0xD6 PUSH2 0xA7C JUMP JUMPDEST SWAP2 PUSH2 0xDF PUSH2 0xB88 JUMP JUMPDEST PUSH20 0xFFFFFFFFFFFFFFFFFFFFFFFFFFFFFFFFFFFFFFFF DUP4 AND ISZERO PUSH2 0x108 JUMPI DUP4 PUSH2 0x105 DUP5 PUSH2 0xC07 JUMP JUMPDEST DUP1 RETURN JUMPDEST SWAP1 PUSH1 0x20 PUSH1 0x84 SWAP3 MLOAD SWAP2 PUSH32 0x8C379A000000000000000000000000000000000000000000000000000000000 DUP4 MSTORE DUP3 ADD MSTORE PUSH1 0x26 PUSH1 0x24 DUP3 ADD MSTORE PUSH32 0x4F776E61626C653A206E6577206F776E657220697320746865207A65726F2061 PUSH1 0x44 DUP3 ADD MSTORE PUSH32 0x6464726573730000000000000000000000000000000000000000000000000000 PUSH1 0x64 DUP3 ADD MSTORE REVERT JUMPDEST DUP3 DUP1 REVERT JUMPDEST POP SWAP1 PUSH2 0x19A CALLDATASIZE PUSH2 0xB3F JUMP JUMPDEST DUP3 SWAP4 SWAP2 SWAP5 SWAP3 CALLDATALOAD SWAP3 DUP4 DUP8 MSTORE PUSH1 0x2 SWAP2 PUSH1 0x20 SWAP7 DUP4 DUP9 MSTORE PUSH1 0xFF DUP6 DUP11 KECCAK256 SLOAD AND PUSH2 0x629 JUMPI SWAP1 PUSH2 0x1C3 SWAP2 DUP8 PUSH2 0xDC1 JUMP JUMPDEST ISZERO PUSH2 0x602 JUMPI PUSH8 0xFFFFFFFFFFFFFFFF PUSH2 0x1DD PUSH1 0xC0 DUP8 ADD PUSH2 0xC74 JUMP JUMPDEST AND TIMESTAMP GT PUSH2 0x5DB JUMPI DUP4 DUP8 MSTORE DUP2 DUP7 MSTORE DUP3 DUP8 KECCAK256 SWAP2 PUSH1 0x1 SWAP3 DUP4 PUSH32 0xFFFFFFFFFFFFFFFFFFFFFFFFFFFFFFFFFFFFFFFFFFFFFFFFFFFFFFFFFFFFFF00 DUP3 SLOAD AND OR SWAP1 SSTORE DUP3 DUP9 SWAP1 JUMPDEST PUSH2 0x2CA JUMPI JUMPDEST POP POP POP POP PUSH2 0x231 DUP5 DUP5 ADD PUSH2 0xCDD JUMP JUMPDEST SWAP4 PUSH32 0xBFF0538A548E4EA8A217734A505CE9D9375306F438DB1247603684E165834DB8 PUSH2 0x28E PUSH2 0x263 PUSH1 0xE0 DUP8 ADD DUP8 PUSH2 0xCFE JUMP JUMPDEST SWAP5 MLOAD SWAP2 DUP3 SWAP2 DUP6 DUP4 MSTORE PUSH20 0xFFFFFFFFFFFFFFFFFFFFFFFFFFFFFFFFFFFFFFFF DUP1 SWAP11 AND SWAP7 CALLER SWAP7 DUP5 ADD SWAP2 PUSH2 0xD4F JUMP JUMPDEST SUB SWAP1 LOG4 PUSH2 0x100 DUP2 ADD SWAP2 PUSH2 0x2A9 PUSH2 0x2A4 DUP5 DUP5 PUSH2 0xD8E JUMP JUMPDEST PUSH2 0xCDD JUMP JUMPDEST AND PUSH2 0x2B2 JUMPI DUP3 DUP1 RETURN JUMPDEST PUSH2 0x2C4 SWAP2 PUSH2 0x2BF SWAP2 PUSH2 0xD8E JUMP JUMPDEST PUSH2 0x10E2 JUMP JUMPDEST CODESIZE DUP1 DUP3 DUP1 RETURN JUMPDEST PUSH1 0xA0 DUP1 DUP9 ADD PUSH2 0x2D9 DUP2 DUP11 PUSH2 0xC89 JUMP JUMPDEST SWAP1 POP DUP4 LT ISZERO PUSH2 0x5D4 JUMPI PUSH2 0x2EC SWAP1 DUP10 PUSH2 0xC89 JUMP JUMPDEST DUP4 LT ISZERO PUSH2 0x5A8 JUMPI DUP11 SWAP1 DUP4 PUSH1 0x6 SHL ADD DUP8 DUP11 ADD CALLDATALOAD SWAP3 PUSH1 0x3 DUP5 LT ISZERO PUSH2 0x18B JUMPI DUP12 SWAP4 DUP12 SWAP3 DUP10 PUSH1 0x60 PUSH2 0x31A DUP2 DUP8 ADD PUSH2 0xCDD JUMP JUMPDEST SWAP8 PUSH1 0x80 PUSH2 0x326 DUP6 PUSH2 0xCDD JUMP JUMPDEST SWAP8 ADD CALLDATALOAD SWAP4 ADD CALLDATALOAD SWAP4 DUP11 DUP2 EQ PUSH1 0x0 EQ PUSH2 0x431 JUMPI POP POP POP PUSH20 0xFFFFFFFFFFFFFFFFFFFFFFFFFFFFFFFFFFFFFFFF DUP1 SWAP7 AND DUP1 EXTCODESIZE ISZERO PUSH2 0x42D JUMPI PUSH1 0xC4 SWAP4 DUP11 SWAP4 DUP8 SWAP4 DUP15 MLOAD SWAP10 DUP11 SWAP9 DUP10 SWAP8 PUSH32 0xF242432A00000000000000000000000000000000000000000000000000000000 DUP10 MSTORE CALLER SWAP1 DUP10 ADD MSTORE AND PUSH1 0x24 DUP8 ADD MSTORE PUSH1 0x44 DUP7 ADD MSTORE PUSH1 0x64 DUP6 ADD MSTORE PUSH1 0x84 DUP5 ADD MSTORE DUP2 PUSH1 0xA4 DUP5 ADD MSTORE GAS CALL DUP1 ISZERO PUSH2 0x423 JUMPI PUSH2 0x414 JUMPI JUMPDEST POP JUMPDEST PUSH32 0xFFFFFFFFFFFFFFFFFFFFFFFFFFFFFFFFFFFFFFFFFFFFFFFFFFFFFFFFFFFFFFFF DUP2 EQ PUSH2 0x3E8 JUMPI DUP4 ADD DUP4 PUSH2 0x21D JUMP JUMPDEST PUSH1 0x24 DUP10 PUSH1 0x11 DUP6 PUSH32 0x4E487B7100000000000000000000000000000000000000000000000000000000 DUP4 MSTORE MSTORE REVERT JUMPDEST PUSH2 0x41D SWAP1 PUSH2 0xDF4 JUMP JUMPDEST CODESIZE PUSH2 0x3B7 JUMP JUMPDEST DUP7 MLOAD RETURNDATASIZE DUP13 DUP3 RETURNDATACOPY RETURNDATASIZE SWAP1 REVERT JUMPDEST DUP6 DUP1 REVERT JUMPDEST SWAP3 SWAP8 SWAP7 POP SWAP1 SWAP4 POP SWAP1 DUP1 DUP5 SUB PUSH2 0x4F6 JUMPI POP POP GT PUSH2 0x4CE JUMPI SWAP1 DUP12 SWAP2 PUSH20 0xFFFFFFFFFFFFFFFFFFFFFFFFFFFFFFFFFFFFFFFF DUP1 SWAP3 AND SWAP1 DUP2 EXTCODESIZE ISZERO PUSH2 0x4CA JUMPI DUP4 PUSH1 0x64 SWAP3 DUP12 MLOAD SWAP7 DUP8 SWAP6 DUP7 SWAP5 PUSH32 0x42842E0E00000000000000000000000000000000000000000000000000000000 DUP7 MSTORE CALLER DUP14 DUP8 ADD MSTORE AND PUSH1 0x24 DUP6 ADD MSTORE PUSH1 0x44 DUP5 ADD MSTORE GAS CALL DUP1 ISZERO PUSH2 0x423 JUMPI PUSH2 0x4BB JUMPI JUMPDEST POP PUSH2 0x3B9 JUMP JUMPDEST PUSH2 0x4C4 SWAP1 PUSH2 0xDF4 JUMP JUMPDEST CODESIZE PUSH2 0x4B5 JUMP JUMPDEST DUP4 DUP1 REVERT JUMPDEST DUP6 DUP9 MLOAD PUSH32 0x289AEF6900000000000000000000000000000000000000000000000000000000 DUP2 MSTORE REVERT JUMPDEST SWAP2 SWAP6 SWAP1 SWAP5 SWAP4 SWAP3 POP SWAP1 PUSH2 0x580 JUMPI PUSH2 0x558 JUMPI DUP13 PUSH1 0x64 DUP2 SWAP4 DUP15 SWAP4 DUP13 MLOAD SWAP8 DUP8 MSTORE DUP13 MSTORE CALLER DUP7 SHL PUSH1 0x2C MSTORE PUSH16 0x23B872DD000000000000000000000000 PUSH1 0xC MSTORE PUSH1 0x1C SWAP5 DUP6 SWAP2 GAS CALL DUP13 MLOAD DUP9 EQ RETURNDATASIZE ISZERO OR AND ISZERO PUSH2 0x54D JUMPI POP DUP11 SWAP1 MSTORE DUP6 MSTORE PUSH2 0x3B9 JUMP JUMPDEST DUP6 SWAP1 PUSH4 0x7939F424 DUP14 MSTORE REVERT JUMPDEST DUP7 DUP10 MLOAD PUSH32 0x289AEF6900000000000000000000000000000000000000000000000000000000 DUP2 MSTORE REVERT JUMPDEST DUP8 DUP11 MLOAD PUSH32 0x289AEF6900000000000000000000000000000000000000000000000000000000 DUP2 MSTORE REVERT JUMPDEST PUSH1 0x24 DUP12 PUSH1 0x32 DUP8 PUSH32 0x4E487B7100000000000000000000000000000000000000000000000000000000 DUP4 MSTORE MSTORE REVERT JUMPDEST POP POP PUSH2 0x222 JUMP JUMPDEST DUP3 MLOAD PUSH32 0x664B28B000000000000000000000000000000000000000000000000000000000 DUP2 MSTORE REVERT JUMPDEST DUP3 MLOAD PUSH32 0x8BAA579F00000000000000000000000000000000000000000000000000000000 DUP2 MSTORE REVERT JUMPDEST DUP3 DUP6 MLOAD PUSH32 0xB383FF0300000000000000000000000000000000000000000000000000000000 DUP2 MSTORE REVERT JUMPDEST POP CALLVALUE PUSH2 0x18B JUMPI PUSH2 0x66D SWAP2 PUSH2 0x664 CALLDATASIZE PUSH2 0xAF3 JUMP JUMPDEST SWAP1 DUP3 SWAP6 SWAP3 PUSH2 0x104D JUMP JUMPDEST ISZERO PUSH2 0x67C JUMPI DUP4 PUSH2 0x105 DUP5 PUSH2 0x10E2 JUMP JUMPDEST MLOAD PUSH32 0x8BAA579F00000000000000000000000000000000000000000000000000000000 DUP2 MSTORE REVERT JUMPDEST DUP4 CALLVALUE PUSH2 0x706 JUMPI PUSH1 0x20 PUSH1 0x3 NOT CALLDATASIZE ADD SLT PUSH2 0x706 JUMPI PUSH20 0xFFFFFFFFFFFFFFFFFFFFFFFFFFFFFFFFFFFFFFFF PUSH2 0x6D1 PUSH2 0xA7C JUMP JUMPDEST PUSH2 0x6D9 PUSH2 0xB88 JUMP JUMPDEST AND PUSH32 0xFFFFFFFFFFFFFFFFFFFFFFFF0000000000000000000000000000000000000000 PUSH1 0x1 SLOAD AND OR PUSH1 0x1 SSTORE DUP1 RETURN JUMPDEST DUP1 REVERT JUMPDEST POP CALLVALUE PUSH2 0x18B JUMPI PUSH1 0x3 NOT SWAP3 PUSH1 0x20 DUP5 CALLDATASIZE ADD SLT PUSH2 0x706 JUMPI DUP2 CALLDATALOAD SWAP4 PUSH8 0xFFFFFFFFFFFFFFFF DUP6 GT PUSH2 0x751 JUMPI PUSH2 0x120 SWAP1 DUP6 CALLDATASIZE SUB ADD SLT PUSH2 0x706 JUMPI POP PUSH1 0x20 SWAP3 PUSH2 0x74A SWAP2 ADD PUSH2 0xE78 JUMP JUMPDEST SWAP1 MLOAD SWAP1 DUP2 MSTORE RETURN JUMPDEST POP DUP1 REVERT JUMPDEST POP POP CALLVALUE PUSH2 0x751 JUMPI DUP2 PUSH1 0x3 NOT CALLDATASIZE ADD SLT PUSH2 0x751 JUMPI PUSH20 0xFFFFFFFFFFFFFFFFFFFFFFFFFFFFFFFFFFFFFFFF PUSH1 0x20 SWAP3 SLOAD AND SWAP1 MLOAD SWAP1 DUP2 MSTORE RETURN JUMPDEST POP POP CALLVALUE PUSH2 0x751 JUMPI PUSH1 0x20 SWAP1 PUSH2 0x7A4 PUSH2 0x79E CALLDATASIZE PUSH2 0xB3F JUMP JUMPDEST SWAP2 PUSH2 0xDC1 JUMP JUMPDEST SWAP1 MLOAD SWAP1 ISZERO ISZERO DUP2 MSTORE RETURN JUMPDEST DUP4 CALLVALUE PUSH2 0x706 JUMPI DUP1 PUSH1 0x3 NOT CALLDATASIZE ADD SLT PUSH2 0x706 JUMPI PUSH2 0x7C6 PUSH2 0xB88 JUMP JUMPDEST DUP1 PUSH20 0xFFFFFFFFFFFFFFFFFFFFFFFFFFFFFFFFFFFFFFFF DUP2 SLOAD PUSH32 0xFFFFFFFFFFFFFFFFFFFFFFFF0000000000000000000000000000000000000000 DUP2 AND DUP4 SSTORE AND PUSH32 0x8BE0079C531659141344CD1FD0A4F28419497F9722A3DAAFE3B4186F6B6457E0 DUP3 DUP1 LOG3 DUP1 RETURN JUMPDEST POP POP CALLVALUE PUSH2 0x751 JUMPI PUSH1 0x20 SWAP1 PUSH2 0x7A4 PUSH2 0x841 CALLDATASIZE PUSH2 0xAF3 JUMP JUMPDEST SWAP2 PUSH2 0x104D JUMP JUMPDEST POP CALLVALUE PUSH2 0x18B JUMPI DUP2 PUSH1 0x3 NOT CALLDATASIZE ADD SLT PUSH2 0x18B JUMPI PUSH2 0x860 PUSH2 0xA7C JUMP JUMPDEST SWAP1 PUSH1 0x24 CALLDATALOAD SWAP3 PUSH20 0xFFFFFFFFFFFFFFFFFFFFFFFFFFFFFFFFFFFFFFFF DUP5 AND DUP1 SWAP5 SUB PUSH2 0x929 JUMPI PUSH1 0xFF DUP6 SLOAD PUSH1 0xA0 SHR AND PUSH2 0x903 JUMPI POP POP PUSH2 0x89A SWAP1 PUSH2 0xC07 JUMP JUMPDEST PUSH32 0xFFFFFFFFFFFFFFFFFFFFFFFF0000000000000000000000000000000000000000 PUSH1 0x1 SLOAD AND OR PUSH1 0x1 SSTORE PUSH21 0x10000000000000000000000000000000000000000 PUSH32 0xFFFFFFFFFFFFFFFFFFFFFF00FFFFFFFFFFFFFFFFFFFFFFFFFFFFFFFFFFFFFFFF DUP3 SLOAD AND OR DUP2 SSTORE DUP1 RETURN JUMPDEST MLOAD PUSH32 0xF92EE8A900000000000000000000000000000000000000000000000000000000 DUP2 MSTORE REVERT JUMPDEST DUP5 DUP1 REVERT JUMPDEST POP CALLVALUE PUSH2 0x18B JUMPI PUSH1 0x20 PUSH1 0x3 NOT CALLDATASIZE ADD SLT PUSH2 0x18B JUMPI DUP2 PUSH1 0x20 SWAP4 PUSH1 0xFF SWAP3 CALLDATALOAD DUP2 MSTORE PUSH1 0x2 DUP6 MSTORE KECCAK256 SLOAD AND SWAP1 MLOAD SWAP1 ISZERO ISZERO DUP2 MSTORE RETURN JUMPDEST POP POP CALLVALUE PUSH2 0x751 JUMPI DUP2 PUSH1 0x3 NOT CALLDATASIZE ADD SLT PUSH2 0x751 JUMPI PUSH1 0x20 SWAP1 PUSH20 0xFFFFFFFFFFFFFFFFFFFFFFFFFFFFFFFFFFFFFFFF PUSH1 0x1 SLOAD AND SWAP1 MLOAD SWAP1 DUP2 MSTORE RETURN JUMPDEST POP CALLVALUE PUSH2 0x18B JUMPI PUSH1 0x3 NOT SWAP3 PUSH1 0x20 DUP5 CALLDATASIZE ADD SLT PUSH2 0x706 JUMPI DUP2 CALLDATALOAD SWAP4 PUSH8 0xFFFFFFFFFFFFFFFF DUP6 GT PUSH2 0x751 JUMPI DUP4 SWAP1 DUP6 CALLDATASIZE SUB ADD SLT PUSH2 0x706 JUMPI POP PUSH1 0x20 SWAP3 PUSH2 0x74A SWAP2 ADD PUSH2 0x1057 JUMP JUMPDEST SWAP3 POP POP CALLVALUE PUSH2 0x18B JUMPI PUSH1 0x20 PUSH1 0x3 NOT CALLDATASIZE ADD SLT PUSH2 0x18B JUMPI CALLDATALOAD PUSH32 0xFFFFFFFF00000000000000000000000000000000000000000000000000000000 DUP2 AND DUP1 SWAP2 SUB PUSH2 0x18B JUMPI PUSH1 0x20 SWAP3 POP DUP1 ISZERO SWAP1 DUP2 ISZERO PUSH2 0xA52 JUMPI JUMPDEST DUP2 ISZERO PUSH2 0xA28 JUMPI JUMPDEST POP ISZERO ISZERO DUP2 MSTORE RETURN JUMPDEST PUSH32 0x1FFC9A700000000000000000000000000000000000000000000000000000000 SWAP2 POP EQ CODESIZE PUSH2 0xA21 JUMP JUMPDEST PUSH32 0xCFB8E9AA00000000000000000000000000000000000000000000000000000000 DUP2 EQ SWAP2 POP PUSH2 0xA1A JUMP JUMPDEST PUSH1 0x4 CALLDATALOAD SWAP1 PUSH20 0xFFFFFFFFFFFFFFFFFFFFFFFFFFFFFFFFFFFFFFFF DUP3 AND DUP3 SUB PUSH2 0xA9F JUMPI JUMP JUMPDEST PUSH1 0x0 DUP1 REVERT JUMPDEST CALLDATALOAD SWAP1 PUSH20 0xFFFFFFFFFFFFFFFFFFFFFFFFFFFFFFFFFFFFFFFF DUP3 AND DUP3 SUB PUSH2 0xA9F JUMPI JUMP JUMPDEST SWAP2 DUP2 PUSH1 0x1F DUP5 ADD SLT ISZERO PUSH2 0xA9F JUMPI DUP3 CALLDATALOAD SWAP2 PUSH8 0xFFFFFFFFFFFFFFFF DUP4 GT PUSH2 0xA9F JUMPI PUSH1 0x20 DUP4 DUP2 DUP7 ADD SWAP6 ADD ADD GT PUSH2 0xA9F JUMPI JUMP JUMPDEST SWAP1 PUSH1 0x3 NOT PUSH1 0x40 DUP2 DUP5 ADD SLT PUSH2 0xA9F JUMPI PUSH1 0x4 CALLDATALOAD PUSH8 0xFFFFFFFFFFFFFFFF SWAP2 DUP3 DUP3 GT PUSH2 0xA9F JUMPI PUSH1 0x40 SWAP1 DUP3 DUP7 SUB ADD SLT PUSH2 0xA9F JUMPI PUSH1 0x4 ADD SWAP3 PUSH1 0x24 CALLDATALOAD SWAP2 DUP3 GT PUSH2 0xA9F JUMPI PUSH2 0xB3B SWAP2 PUSH1 0x4 ADD PUSH2 0xAC5 JUMP JUMPDEST SWAP1 SWAP2 JUMP JUMPDEST SWAP1 PUSH1 0x3 NOT PUSH1 0x40 DUP2 DUP5 ADD SLT PUSH2 0xA9F JUMPI PUSH1 0x4 CALLDATALOAD PUSH8 0xFFFFFFFFFFFFFFFF SWAP2 DUP3 DUP3 GT PUSH2 0xA9F JUMPI PUSH2 0x120 SWAP1 DUP3 DUP7 SUB ADD SLT PUSH2 0xA9F JUMPI PUSH1 0x4 ADD SWAP3 PUSH1 0x24 CALLDATALOAD SWAP2 DUP3 GT PUSH2 0xA9F JUMPI PUSH2 0xB3B SWAP2 PUSH1 0x4 ADD PUSH2 0xAC5 JUMP JUMPDEST PUSH20 0xFFFFFFFFFFFFFFFFFFFFFFFFFFFFFFFFFFFFFFFF PUSH1 0x0 SLOAD AND CALLER SUB PUSH2 0xBA9 JUMPI JUMP JUMPDEST PUSH1 0x64 PUSH1 0x40 MLOAD PUSH32 0x8C379A000000000000000000000000000000000000000000000000000000000 DUP2 MSTORE PUSH1 0x20 PUSH1 0x4 DUP3 ADD MSTORE PUSH1 0x20 PUSH1 0x24 DUP3 ADD MSTORE PUSH32 0x4F776E61626C653A2063616C6C6572206973206E6F7420746865206F776E6572 PUSH1 0x44 DUP3 ADD MSTORE REVERT JUMPDEST PUSH1 0x0 SLOAD SWAP1 PUSH20 0xFFFFFFFFFFFFFFFFFFFFFFFFFFFFFFFFFFFFFFFF DUP1 SWAP2 AND SWAP2 DUP3 PUSH32 0xFFFFFFFFFFFFFFFFFFFFFFFF0000000000000000000000000000000000000000 DUP3 AND OR PUSH1 0x0 SSTORE AND PUSH32 0x8BE0079C531659141344CD1FD0A4F28419497F9722A3DAAFE3B4186F6B6457E0 PUSH1 0x0 DUP1 LOG3 JUMP JUMPDEST CALLDATALOAD PUSH8 0xFFFFFFFFFFFFFFFF DUP2 AND DUP2 SUB PUSH2 0xA9F JUMPI SWAP1 JUMP JUMPDEST SWAP1 CALLDATALOAD SWAP1 PUSH32 0xFFFFFFFFFFFFFFFFFFFFFFFFFFFFFFFFFFFFFFFFFFFFFFFFFFFFFFFFFFFFFFE1 DUP2 CALLDATASIZE SUB ADD DUP3 SLT ISZERO PUSH2 0xA9F JUMPI ADD DUP1 CALLDATALOAD SWAP1 PUSH8 0xFFFFFFFFFFFFFFFF DUP3 GT PUSH2 0xA9F JUMPI PUSH1 0x20 ADD SWAP2 DUP2 PUSH1 0x6 SHL CALLDATASIZE SUB DUP4 SGT PUSH2 0xA9F JUMPI JUMP JUMPDEST CALLDATALOAD PUSH20 0xFFFFFFFFFFFFFFFFFFFFFFFFFFFFFFFFFFFFFFFF DUP2 AND DUP2 SUB PUSH2 0xA9F JUMPI SWAP1 JUMP JUMPDEST SWAP1 CALLDATALOAD SWAP1 PUSH32 0xFFFFFFFFFFFFFFFFFFFFFFFFFFFFFFFFFFFFFFFFFFFFFFFFFFFFFFFFFFFFFFE1 DUP2 CALLDATASIZE SUB ADD DUP3 SLT ISZERO PUSH2 0xA9F JUMPI ADD DUP1 CALLDATALOAD SWAP1 PUSH8 0xFFFFFFFFFFFFFFFF DUP3 GT PUSH2 0xA9F JUMPI PUSH1 0x20 ADD SWAP2 DUP2 CALLDATASIZE SUB DUP4 SGT PUSH2 0xA9F JUMPI JUMP JUMPDEST PUSH1 0x1F DUP3 PUSH1 0x20 SWAP5 SWAP4 PUSH32 0xFFFFFFFFFFFFFFFFFFFFFFFFFFFFFFFFFFFFFFFFFFFFFFFFFFFFFFFFFFFFFFE0 SWAP4 DUP2 DUP7 MSTORE DUP7 DUP7 ADD CALLDATACOPY PUSH1 0x0 DUP6 DUP3 DUP7 ADD ADD MSTORE ADD AND ADD ADD SWAP1 JUMP JUMPDEST SWAP1 CALLDATALOAD SWAP1 PUSH32 0xFFFFFFFFFFFFFFFFFFFFFFFFFFFFFFFFFFFFFFFFFFFFFFFFFFFFFFFFFFFFFFC1 DUP2 CALLDATASIZE SUB ADD DUP3 SLT ISZERO PUSH2 0xA9F JUMPI ADD SWAP1 JUMP JUMPDEST SWAP1 PUSH2 0xDCF PUSH2 0xDD4 SWAP4 SWAP3 PUSH2 0xE78 JUMP JUMPDEST PUSH2 0x11D0 JUMP JUMPDEST PUSH20 0xFFFFFFFFFFFFFFFFFFFFFFFFFFFFFFFFFFFFFFFF DUP1 PUSH1 0x1 SLOAD AND SWAP2 AND EQ SWAP1 JUMP JUMPDEST PUSH8 0xFFFFFFFFFFFFFFFF DUP2 GT PUSH2 0xE08 JUMPI PUSH1 0x40 MSTORE JUMP JUMPDEST PUSH32 0x4E487B7100000000000000000000000000000000000000000000000000000000 PUSH1 0x0 MSTORE PUSH1 0x41 PUSH1 0x4 MSTORE PUSH1 0x24 PUSH1 0x0 REVERT JUMPDEST SWAP1 PUSH1 0x1F PUSH32 0xFFFFFFFFFFFFFFFFFFFFFFFFFFFFFFFFFFFFFFFFFFFFFFFFFFFFFFFFFFFFFFE0 SWAP2 ADD AND DUP2 ADD SWAP1 DUP2 LT PUSH8 0xFFFFFFFFFFFFFFFF DUP3 GT OR PUSH2 0xE08 JUMPI PUSH1 0x40 MSTORE JUMP JUMPDEST PUSH2 0xE84 PUSH1 0x20 DUP3 ADD PUSH2 0xCDD JUMP JUMPDEST SWAP1 PUSH1 0x40 DUP2 ADD CALLDATALOAD SWAP1 PUSH1 0x3 DUP3 LT ISZERO PUSH2 0xA9F JUMPI SWAP1 PUSH2 0xEA1 PUSH1 0x60 DUP4 ADD PUSH2 0xCDD JUMP JUMPDEST SWAP1 PUSH2 0xEAF PUSH1 0xA0 DUP5 ADD DUP5 PUSH2 0xC89 JUMP JUMPDEST SWAP4 SWAP1 SWAP3 PUSH2 0xEBE PUSH1 0xC0 DUP4 ADD PUSH2 0xC74 JUMP JUMPDEST SWAP5 PUSH2 0xECC PUSH1 0xE0 DUP5 ADD DUP5 PUSH2 0xCFE JUMP JUMPDEST PUSH1 0x80 PUSH2 0xEDF PUSH2 0x100 DUP8 SWAP10 SWAP5 SWAP10 ADD DUP8 PUSH2 0xD8E JUMP JUMPDEST SWAP6 PUSH1 0x40 MLOAD SWAP11 DUP12 SWAP7 PUSH2 0x160 DUP9 ADD SWAP10 CHAINID PUSH1 0x20 DUP11 ADD MSTORE DUP4 CALLDATALOAD PUSH1 0x40 DUP11 ADD MSTORE DUP5 PUSH20 0xFFFFFFFFFFFFFFFFFFFFFFFFFFFFFFFFFFFFFFFF SWAP10 DUP11 DUP1 SWAP6 AND PUSH1 0x60 DUP3 ADD MSTORE ADD MSTORE AND PUSH1 0xA0 DUP13 ADD MSTORE ADD CALLDATALOAD PUSH1 0xC0 DUP11 ADD MSTORE DUP3 PUSH2 0x140 SWAP7 DUP8 PUSH1 0xE0 DUP13 ADD MSTORE MSTORE PUSH2 0x180 DUP10 ADD SWAP2 SWAP3 PUSH1 0x0 JUMPDEST DUP2 DUP2 LT PUSH2 0x101E JUMPI POP POP PUSH2 0xF90 SWAP3 POP PUSH8 0xFFFFFFFFFFFFFFFF DUP1 SWAP9 AND PUSH2 0x100 DUP11 ADD MSTORE PUSH32 0xFFFFFFFFFFFFFFFFFFFFFFFFFFFFFFFFFFFFFFFFFFFFFFFFFFFFFFFFFFFFFFE0 SWAP7 DUP8 DUP11 DUP5 SUB ADD PUSH2 0x120 DUP12 ADD MSTORE PUSH2 0xD4F JUMP JUMPDEST SWAP3 DUP5 DUP8 DUP6 SUB ADD SWAP1 DUP8 ADD MSTORE PUSH2 0xFA3 DUP3 PUSH2 0xAA4 JUMP JUMPDEST AND DUP3 MSTORE PUSH1 0x20 DUP2 ADD CALLDATALOAD PUSH32 0xFFFFFFFFFFFFFFFFFFFFFFFFFFFFFFFFFFFFFFFFFFFFFFFFFFFFFFFFFFFFFFE1 DUP3 CALLDATASIZE SUB ADD DUP2 SLT ISZERO PUSH2 0xA9F JUMPI ADD SWAP1 PUSH1 0x20 DUP3 CALLDATALOAD SWAP3 ADD SWAP4 DUP3 GT PUSH2 0xA9F JUMPI DUP2 CALLDATASIZE SUB DUP5 SGT PUSH2 0xA9F JUMPI PUSH2 0x1014 SWAP4 DUP6 SWAP3 PUSH1 0x40 DUP4 DUP2 PUSH1 0x20 PUSH2 0x1008 SWAP7 ADD MSTORE ADD SWAP2 PUSH2 0xD4F JUMP JUMPDEST SUB SWAP1 DUP2 ADD DUP4 MSTORE DUP3 PUSH2 0xE37 JUMP JUMPDEST PUSH1 0x20 DUP2 MLOAD SWAP2 ADD KECCAK256 SWAP1 JUMP JUMPDEST SWAP1 SWAP2 SWAP3 PUSH1 0x40 DUP1 PUSH1 0x1 SWAP3 DUP9 PUSH2 0x1031 DUP10 PUSH2 0xAA4 JUMP JUMPDEST AND DUP2 MSTORE PUSH1 0x20 DUP9 ADD CALLDATALOAD PUSH1 0x20 DUP3 ADD MSTORE ADD SWAP6 ADD SWAP2 ADD SWAP4 SWAP3 SWAP2 SWAP1 SWAP4 PUSH2 0xF3E JUMP JUMPDEST SWAP1 PUSH2 0xDCF PUSH2 0xDD4 SWAP4 SWAP3 JUMPDEST PUSH2 0x10DC PUSH2 0x1071 PUSH2 0x1066 DUP4 PUSH2 0xCDD JUMP JUMPDEST SWAP3 PUSH1 0x20 DUP2 ADD SWAP1 PUSH2 0xCFE JUMP JUMPDEST PUSH2 0x10B0 PUSH1 0x40 SWAP4 SWAP3 SWAP4 MLOAD SWAP4 DUP5 SWAP3 PUSH20 0xFFFFFFFFFFFFFFFFFFFFFFFFFFFFFFFFFFFFFFFF PUSH1 0x20 DUP6 ADD SWAP8 CHAINID DUP10 MSTORE AND PUSH1 0x40 DUP6 ADD MSTORE PUSH1 0x60 DUP1 DUP6 ADD MSTORE PUSH1 0x80 DUP5 ADD SWAP2 PUSH2 0xD4F JUMP JUMPDEST SUB PUSH32 0xFFFFFFFFFFFFFFFFFFFFFFFFFFFFFFFFFFFFFFFFFFFFFFFFFFFFFFFFFFFFFFE0 DUP2 ADD DUP4 MSTORE DUP3 PUSH2 0xE37 JUMP JUMPDEST MLOAD SWAP1 KECCAK256 SWAP1 JUMP JUMPDEST PUSH2 0x10F9 PUSH2 0x10EE DUP3 PUSH2 0xCDD JUMP JUMPDEST SWAP2 PUSH1 0x20 DUP2 ADD SWAP1 PUSH2 0xCFE JUMP JUMPDEST SWAP2 DUP3 PUSH1 0x40 MLOAD SWAP4 DUP5 SWAP4 DUP5 CALLDATACOPY DUP3 ADD SWAP1 PUSH1 0x0 SWAP4 DUP5 DUP1 SWAP5 DUP5 DUP3 DUP1 SWAP7 MSTORE SUB SWAP3 GAS CALL SWAP1 RETURNDATASIZE ISZERO PUSH2 0x11CA JUMPI RETURNDATASIZE SWAP1 PUSH8 0xFFFFFFFFFFFFFFFF DUP3 GT PUSH2 0x119D JUMPI PUSH1 0x40 MLOAD SWAP2 PUSH2 0x1163 PUSH1 0x20 PUSH32 0xFFFFFFFFFFFFFFFFFFFFFFFFFFFFFFFFFFFFFFFFFFFFFFFFFFFFFFFFFFFFFFE0 PUSH1 0x1F DUP5 ADD AND ADD DUP5 PUSH2 0xE37 JUMP JUMPDEST DUP3 MSTORE PUSH1 0x20 RETURNDATASIZE SWAP3 ADD RETURNDATACOPY JUMPDEST ISZERO PUSH2 0x1173 JUMPI JUMP JUMPDEST PUSH1 0x4 PUSH1 0x40 MLOAD PUSH32 0x7CC2FBB300000000000000000000000000000000000000000000000000000000 DUP2 MSTORE REVERT JUMPDEST DUP1 PUSH32 0x4E487B7100000000000000000000000000000000000000000000000000000000 PUSH1 0x24 SWAP3 MSTORE PUSH1 0x41 PUSH1 0x4 MSTORE REVERT JUMPDEST POP PUSH2 0x116C JUMP JUMPDEST SWAP1 SWAP2 PUSH1 0x0 DUP1 SWAP4 DUP3 ISZERO PUSH2 0x143B JUMPI PUSH1 0x1 SWAP2 DUP2 CALLDATALOAD PUSH1 0xF8 SHR DUP4 DUP2 SUB PUSH2 0x12D8 JUMPI POP POP DUP3 DUP3 GT PUSH2 0x929 JUMPI SWAP1 DUP2 DUP6 PUSH32 0xFFFFFFFFFFFFFFFFFFFFFFFFFFFFFFFFFFFFFFFFFFFFFFFFFFFFFFFFFFFFFFFF DUP4 PUSH1 0x20 SWAP6 ADD SWAP6 ADD DUP4 SWAP1 PUSH1 0x40 SWAP7 DUP8 SWAP2 DUP3 MLOAD SWAP10 DUP6 MSTORE DUP7 DUP4 DUP3 EQ PUSH1 0x41 DUP1 SWAP4 EQ SWAP2 PUSH2 0x1261 JUMPI JUMPDEST POP POP POP POP POP PUSH1 0x80 SWAP3 POP GAS STATICCALL MLOAD SWAP3 RETURNDATASIZE ISZERO PUSH2 0x1254 JUMPI PUSH1 0x60 MSTORE MSTORE SWAP1 JUMP JUMPDEST PUSH4 0x8BAA579F SWAP1 MSTORE PUSH1 0x4 PUSH1 0x1C REVERT JUMPDEST PUSH2 0x1291 JUMPI PUSH2 0x127C JUMPI POP POP POP POP PUSH1 0x80 SWAP2 POP DUP1 DUP6 CODESIZE DUP1 DUP1 DUP1 PUSH2 0x123A JUMP JUMPDEST PUSH1 0x80 SWAP6 ADD CALLDATALOAD DUP5 BYTE DUP8 MSTORE DUP2 CALLDATACOPY DUP6 CODESIZE DUP1 DUP1 DUP1 PUSH2 0x123A JUMP JUMPDEST POP POP PUSH32 0x7FFFFFFFFFFFFFFFFFFFFFFFFFFFFFFFFFFFFFFFFFFFFFFFFFFFFFFFFFFFFFFF SWAP2 POP PUSH1 0x21 PUSH1 0x80 SWAP6 ADD CALLDATALOAD SWAP1 PUSH1 0x1B DUP3 PUSH1 0xFF SHR ADD DUP9 MSTORE CALLDATALOAD DUP9 MSTORE AND PUSH1 0x60 MSTORE DUP6 CODESIZE DUP1 DUP1 DUP1 PUSH2 0x123A JUMP JUMPDEST PUSH1 0x2 SWAP1 SWAP8 SWAP7 SWAP5 SWAP3 SWAP6 SWAP4 SWAP2 SWAP8 EQ DUP1 PUSH2 0x1430 JUMPI JUMPDEST PUSH2 0x12F6 JUMPI JUMPDEST POP POP POP POP POP JUMP JUMPDEST DUP5 SWAP7 POP SWAP4 SWAP1 SWAP2 SWAP3 SWAP4 ADD CALLDATALOAD PUSH1 0x60 SHR SWAP5 DUP2 PUSH1 0x15 GT PUSH2 0x4CA JUMPI PUSH2 0x137C SWAP2 PUSH1 0x20 SWAP2 PUSH1 0x40 MLOAD SWAP4 DUP5 SWAP3 DUP4 SWAP3 PUSH32 0x1626BA7E00000000000000000000000000000000000000000000000000000000 SWAP8 DUP9 DUP6 MSTORE PUSH1 0x4 DUP6 ADD MSTORE PUSH1 0x40 PUSH1 0x24 DUP6 ADD MSTORE PUSH1 0x15 PUSH32 0xFFFFFFFFFFFFFFFFFFFFFFFFFFFFFFFFFFFFFFFFFFFFFFFFFFFFFFFFFFFFFFEB PUSH1 0x44 DUP7 ADD SWAP4 ADD SWAP2 ADD PUSH2 0xD4F JUMP JUMPDEST SUB DUP2 DUP9 GAS STATICCALL DUP4 SWAP2 DUP2 PUSH2 0x13D4 JUMPI JUMPDEST POP PUSH2 0x139E JUMPI POP SWAP1 SWAP3 POP POP JUMPDEST CODESIZE DUP1 DUP1 DUP1 DUP1 PUSH2 0x12EF JUMP JUMPDEST PUSH32 0xFFFFFFFF00000000000000000000000000000000000000000000000000000000 AND SUB PUSH2 0x13CC JUMPI JUMPDEST POP PUSH2 0x1394 JUMP JUMPDEST SWAP2 POP CODESIZE PUSH2 0x13C6 JUMP JUMPDEST SWAP1 SWAP2 POP PUSH1 0x20 DUP2 RETURNDATASIZE DUP3 GT PUSH2 0x1428 JUMPI JUMPDEST DUP2 PUSH2 0x13EF PUSH1 0x20 SWAP4 DUP4 PUSH2 0xE37 JUMP JUMPDEST DUP2 ADD SUB SLT PUSH2 0x4CA JUMPI MLOAD PUSH32 0xFFFFFFFF00000000000000000000000000000000000000000000000000000000 DUP2 AND DUP2 SUB PUSH2 0x4CA JUMPI SWAP1 CODESIZE PUSH2 0x1389 JUMP JUMPDEST RETURNDATASIZE SWAP2 POP PUSH2 0x13E2 JUMP JUMPDEST POP PUSH1 0x15 DUP3 LT ISZERO PUSH2 0x12EA JUMP JUMPDEST PUSH1 0x24 DUP6 PUSH32 0x4E487B7100000000000000000000000000000000000000000000000000000000 DUP2 MSTORE PUSH1 0x32 PUSH1 0x4 MSTORE REVERT INVALID LOG2 PUSH5 0x6970667358 0x22 SLT KECCAK256 SWAP11 0xEB GASLIMIT DUP8 PUSH22 0x19B9ACD168C435FBA72DE99B3576F5579E22DAA46C25 0x28 0xED 0xB7 0x4D PUSH7 0x64736F6C634300 ADDMOD SGT STOP CALLER "
				}
			},
			"userdoc": {
				"errors": {
					"ChainedCallFailed()": [
						{
							"notice": "Emitted when a chained call fails."
						}
					],
					"InvalidInitialization()": [
						{
							"notice": "Emitted when contract is already initialized."
						}
					],
					"InvalidSignature()": [
						{
							"notice": "Emitted when a signature is invalid."
						}
					],
					"InvalidTokenTransfer()": [
						{
							"notice": "Emitted when a token transfer is invalid."
						}
					],
					"PaymentAlreadyAccepted()": [
						{
							"notice": "Emitted when a payment is already accepted. This prevents double spending."
						}
					],
					"PaymentExpired()": [
						{
							"notice": "Emitted when a payment has expired."
						}
					]
				},
				"events": {
					"PaymentMade(address,address,uint256,string)": {
						"notice": "Emitted when a payment is made."
					}
				},
				"kind": "user",
				"methods": {
					"hashChainedCallDetails((address,bytes))": {
						"notice": "Returns the hash of the chained call."
					},
					"hashPaymentDetails((uint256,address,uint8,address,uint256,(address,uint256)[],uint64,string,(address,bytes)))": {
						"notice": "Returns the hash of the payment details."
					},
					"initialize(address,address)": {
						"notice": "Initialize the contract."
					},
					"isValidChainedCallSignature((address,bytes),bytes)": {
						"notice": "Check is a chained call signature is valid."
					},
					"isValidPaymentSignature((uint256,address,uint8,address,uint256,(address,uint256)[],uint64,string,(address,bytes)),bytes)": {
						"notice": "A valid signature does not guarantee that the payment will be accepted."
					},
					"makePayment((uint256,address,uint8,address,uint256,(address,uint256)[],uint64,string,(address,bytes)),bytes)": {
						"notice": "Make a payment for a product."
					},
					"paymentAccepted(uint256)": {
						"notice": "Check if a payment has been accepted."
					},
					"performChainedCall((address,bytes),bytes)": {
						"notice": "Complete a chained call."
					},
					"signer()": {
						"notice": "Get the signer address."
					},
					"supportsInterface(bytes4)": {
						"notice": "Query if a contract implements an interface"
					},
					"updateSigner(address)": {
						"notice": "Update the signer address."
					}
				},
				"version": 1
			}
		}
	}
}