{
	"src/payments/PaymentsFactory.sol": {
		"PaymentsFactory": {
			"abi": [
				{
					"inputs": [
						{
							"internalType": "address",
							"name": "factoryOwner",
							"type": "address"
						}
					],
					"stateMutability": "nonpayable",
					"type": "constructor"
				},
				{
					"anonymous": false,
					"inputs": [
						{
							"indexed": true,
							"internalType": "address",
							"name": "previousOwner",
							"type": "address"
						},
						{
							"indexed": true,
							"internalType": "address",
							"name": "newOwner",
							"type": "address"
						}
					],
					"name": "OwnershipTransferred",
					"type": "event"
				},
				{
					"anonymous": false,
					"inputs": [
						{
							"indexed": false,
							"internalType": "address",
							"name": "proxyAddr",
							"type": "address"
						}
					],
					"name": "PaymentsDeployed",
					"type": "event"
				},
				{
					"inputs": [],
					"name": "beacon",
					"outputs": [
						{
							"internalType": "contract UpgradeableBeacon",
							"name": "",
							"type": "address"
						}
					],
					"stateMutability": "view",
					"type": "function"
				},
				{
					"inputs": [
						{
							"internalType": "address",
							"name": "proxyOwner",
							"type": "address"
						},
						{
							"internalType": "address",
							"name": "paymentsOwner",
							"type": "address"
						},
						{
							"internalType": "address",
							"name": "paymentsSigner",
							"type": "address"
						}
					],
					"name": "deploy",
					"outputs": [
						{
							"internalType": "address",
							"name": "proxyAddr",
							"type": "address"
						}
					],
					"stateMutability": "nonpayable",
					"type": "function"
				},
				{
					"inputs": [
						{
							"internalType": "address",
							"name": "proxyOwner",
							"type": "address"
						},
						{
							"internalType": "address",
							"name": "paymentsOwner",
							"type": "address"
						},
						{
							"internalType": "address",
							"name": "paymentsSigner",
							"type": "address"
						}
					],
					"name": "determineAddress",
					"outputs": [
						{
							"internalType": "address",
							"name": "proxyAddr",
							"type": "address"
						}
					],
					"stateMutability": "view",
					"type": "function"
				},
				{
					"inputs": [],
					"name": "owner",
					"outputs": [
						{
							"internalType": "address",
							"name": "",
							"type": "address"
						}
					],
					"stateMutability": "view",
					"type": "function"
				},
				{
					"inputs": [],
					"name": "renounceOwnership",
					"outputs": [],
					"stateMutability": "nonpayable",
					"type": "function"
				},
				{
					"inputs": [
						{
							"internalType": "address",
							"name": "newOwner",
							"type": "address"
						}
					],
					"name": "transferOwnership",
					"outputs": [],
					"stateMutability": "nonpayable",
					"type": "function"
				},
				{
					"inputs": [
						{
							"internalType": "address",
							"name": "implementation",
							"type": "address"
						}
					],
					"name": "upgradeBeacon",
					"outputs": [],
					"stateMutability": "nonpayable",
					"type": "function"
				}
			],
			"devdoc": {
				"events": {
					"PaymentsDeployed(address)": {
						"params": {
							"proxyAddr": "The address of the deployed proxy."
						}
					}
				},
				"kind": "dev",
				"methods": {
					"constructor": {
						"params": {
							"factoryOwner": "The owner of the Payments Factory"
						}
					},
					"deploy(address,address,address)": {
						"params": {
							"paymentsOwner": "The owner of the Payments implementation",
							"paymentsSigner": "The signer of the Payments implementation",
							"proxyOwner": "The owner of the Payments proxy"
						},
						"returns": {
							"proxyAddr": "The address of the Payments proxy"
						}
					},
					"determineAddress(address,address,address)": {
						"params": {
							"paymentsOwner": "The owner of the Payments implementation",
							"paymentsSigner": "The signer of the Payments implementation",
							"proxyOwner": "The owner of the Payments proxy"
						},
						"returns": {
							"proxyAddr": "The address of the Payments proxy"
						}
					},
					"owner()": {
						"details": "Returns the address of the current owner."
					},
					"renounceOwnership()": {
						"details": "Leaves the contract without owner. It will not be possible to call `onlyOwner` functions. Can only be called by the current owner. NOTE: Renouncing ownership will leave the contract without an owner, thereby disabling any functionality that is only available to the owner."
					},
					"transferOwnership(address)": {
						"details": "Transfers ownership of the contract to a new account (`newOwner`). Can only be called by the current owner."
					},
					"upgradeBeacon(address)": {
						"params": {
							"implementation": "The new beacon implementation."
						}
					}
				},
				"version": 1
			},
			"evm": {
				"bytecode": {
					"linkReferences": {},
					"object": "608034610121576001600160401b0390601f6138d138819003918201601f191683019291908484118385101761010b57816020928492604096875283398101031261012157516001600160a01b0380821682036101215761005f33610126565b8251936114ff94858101958187108388111761010b576123d2823980600096039086f0908115610101578451916105ee808401928311848410176100ed5791848492602094611de4853916815203019085f080156100e0576100d39394501660018060a01b03196001541617600155610126565b51611c76908161016e8239f35b50505051903d90823e3d90fd5b634e487b7160e01b88526041600452602488fd5b84513d87823e3d90fd5b634e487b7160e01b600052604160045260246000fd5b600080fd5b600080546001600160a01b039283166001600160a01b03198216811783559216907f8be0079c531659141344cd1fd0a4f28419497f9722a3daafe3b4186f6b6457e09080a356fe6040608081526004908136101561001557600080fd5b600091823560e01c80631bce45831461079057806359659e901461073d578063715018a6146106a05780638da5cb5b1461064b578063d9181cd3146102ee578063e657f693146101aa5763f2fde38b1461006e57600080fd5b346101a65760207ffffffffffffffffffffffffffffffffffffffffffffffffffffffffffffffffc3601126101a6576100a561084f565b906100ae6108bd565b73ffffffffffffffffffffffffffffffffffffffff809216928315610123575050600054827fffffffffffffffffffffffff0000000000000000000000000000000000000000821617600055167f8be0079c531659141344cd1fd0a4f28419497f9722a3daafe3b4186f6b6457e0600080a380f35b90602060849251917f08c379a0000000000000000000000000000000000000000000000000000000008352820152602660248201527f4f776e61626c653a206e6577206f776e657220697320746865207a65726f206160448201527f64647265737300000000000000000000000000000000000000000000000000006064820152fd5b8280fd5b8284346102eb5760607ffffffffffffffffffffffffffffffffffffffffffffffffffffffffffffffffc3601126102eb57506101e461084f565b906101ed610877565b916055600b6101fa61089a565b845173ffffffffffffffffffffffffffffffffffffffff968716602080830191825292909716604080830191909152815290957fffffffffffffffffffffffffffffffffffffffffffffffffffffffffffffffe09161025a60608261099b565b519020906102ab86519161026d8361097f565b6000835273ffffffffffffffffffffffffffffffffffffffff9661029f8860015416948a519586938d850198896109ff565b0390810183528261099b565b5190206111eb85516102bf8883018261099b565b81815287810191610a5683395190209085519186830152868201523081520160ff815320915191168152f35b80fd5b5090346101a65760607ffffffffffffffffffffffffffffffffffffffffffffffffffffffffffffffffc3601126101a65761032761084f565b92610330610877565b61033861089a565b908351946020968787018761037586868490602090939293604083019473ffffffffffffffffffffffffffffffffffffffff809216845216910152565b03976103a77fffffffffffffffffffffffffffffffffffffffffffffffffffffffffffffffe0998a810183528261099b565b5190208651916103b68361097f565b6000835273ffffffffffffffffffffffffffffffffffffffff91816103f98c6103ed878d88600154169051958694850197886109ff565b038c810183528261099b565b5190206111eb895161040d8d83018261099b565b8181528c810191610a5683398051156105f057518492918af516988915610594578260015416938a3b156105905791608491601f8a95946104988f8e51998a9889977fcf7a1d77000000000000000000000000000000000000000000000000000000008952168c880152602487015260606044870152825192839182606489015288880191016109dc565b01168101030181838b5af1801561058657908591610572575b5050853b1561056e5784517f485cc95500000000000000000000000000000000000000000000000000000000815273ffffffffffffffffffffffffffffffffffffffff928316918101918252929091166020820152829082908190604001038183885af1801561056457610550575b50507ffd420143d893df8a37b4078d9c81efaa2fb5fc7a74cc5512ccb158588de5fcfc838251848152a151908152f35b61055a829161093c565b6102eb5780610520565b83513d84823e3d90fd5b8380fd5b61057b9061093c565b61056e5783386104b1565b86513d87823e3d90fd5b8880fd5b6064858c8b51917f08c379a0000000000000000000000000000000000000000000000000000000008352820152601960248201527f437265617465323a204661696c6564206f6e206465706c6f79000000000000006044820152fd5b6064878e808e51927f08c379a000000000000000000000000000000000000000000000000000000000845283015260248201527f437265617465323a2062797465636f6465206c656e677468206973207a65726f6044820152fd5b50503461069c57817ffffffffffffffffffffffffffffffffffffffffffffffffffffffffffffffffc36011261069c5773ffffffffffffffffffffffffffffffffffffffff60209254169051908152f35b5080fd5b83346102eb57807ffffffffffffffffffffffffffffffffffffffffffffffffffffffffffffffffc3601126102eb576106d76108bd565b600073ffffffffffffffffffffffffffffffffffffffff81547fffffffffffffffffffffffff000000000000000000000000000000000000000081168355167f8be0079c531659141344cd1fd0a4f28419497f9722a3daafe3b4186f6b6457e08280a380f35b50503461069c57817ffffffffffffffffffffffffffffffffffffffffffffffffffffffffffffffffc36011261069c5760209073ffffffffffffffffffffffffffffffffffffffff600154169051908152f35b5090346101a65760207ffffffffffffffffffffffffffffffffffffffffffffffffffffffffffffffffc3601126101a657826107ca61084f565b6107d26108bd565b73ffffffffffffffffffffffffffffffffffffffff90816001541690813b1561056e5783602492865197889586947f3659cfe600000000000000000000000000000000000000000000000000000000865216908401525af1908115610846575061083a575080f35b6108439061093c565b80f35b513d84823e3d90fd5b6004359073ffffffffffffffffffffffffffffffffffffffff8216820361087257565b600080fd5b6024359073ffffffffffffffffffffffffffffffffffffffff8216820361087257565b6044359073ffffffffffffffffffffffffffffffffffffffff8216820361087257565b73ffffffffffffffffffffffffffffffffffffffff6000541633036108de57565b60646040517f08c379a000000000000000000000000000000000000000000000000000000000815260206004820152602060248201527f4f776e61626c653a2063616c6c6572206973206e6f7420746865206f776e65726044820152fd5b67ffffffffffffffff811161095057604052565b7f4e487b7100000000000000000000000000000000000000000000000000000000600052604160045260246000fd5b6020810190811067ffffffffffffffff82111761095057604052565b90601f7fffffffffffffffffffffffffffffffffffffffffffffffffffffffffffffffe0910116810190811067ffffffffffffffff82111761095057604052565b60005b8381106109ef5750506000910152565b81810151838201526020016109df565b9190926048949383527fffffffffffffffffffffffffffffffffffffffff000000000000000000000000809260601b16602084015260601b166034820152610a5082518093602086850191016109dc565b01019056fe60808060405234610016576111cf908161001c8239f35b600080fdfe604060808152366103825773ffffffffffffffffffffffffffffffffffffffff807fb53127684a568b3173ae13b9f8a6016e243e63b6e8ee1178d6a717850b5d61035416158015610b94576000917fcf7a1d77000000000000000000000000000000000000000000000000000000007fffffffff00000000000000000000000000000000000000000000000000000000843516146100c057600484517ff92ee8a9000000000000000000000000000000000000000000000000000000008152fd5b6100c8611192565b60049136831161037e5760607ffffffffffffffffffffffffffffffffffffffffffffffffffffffffffffffffc36011261037e578235916101088361067f565b602435926101158461067f565b60443567ffffffffffffffff811161037a57610135839136908801610789565b941692156103525761014791166107e3565b803b156102cf578451907f5c60da1b000000000000000000000000000000000000000000000000000000009384835260209687848381865afa9384156102a657889461019d9189916102b2575b503b1515610926565b7fa3f0ad74e5423aebfd80d3ef4346578335a9a72aeaee59ff6cb3582b35133d5080547fffffffffffffffffffffffff00000000000000000000000000000000000000001673ffffffffffffffffffffffffffffffffffffffff85161790555194827f1cf3b03a6cf19fa2baba4df148e9dcabedea7f8a5c07840e207e5c089be95d3e8880a28451158015906102ab575b610242575b8361023c6107d0565b80519101f35b8592839182525afa9182156102a65761026a9392610277575b506102646109b1565b91610a21565b5038808083818080610233565b610298919250843d861161029f575b610290818361070e565b810190610902565b903861025b565b503d610286565b61091a565b508661022e565b6102c99150863d881161029f57610290818361070e565b38610194565b60848360208751917f08c379a0000000000000000000000000000000000000000000000000000000008352820152602560248201527f455243313936373a206e657720626561636f6e206973206e6f74206120636f6e60448201527f74726163740000000000000000000000000000000000000000000000000000006064820152fd5b8487517ff92ee8a9000000000000000000000000000000000000000000000000000000008152fd5b8680fd5b8380fd5b73ffffffffffffffffffffffffffffffffffffffff807fb53127684a568b3173ae13b9f8a6016e243e63b6e8ee1178d6a717850b5d61035416158015610b94576000907fcf7a1d77000000000000000000000000000000000000000000000000000000007fffffffff00000000000000000000000000000000000000000000000000000000833516146104395760046040517ff92ee8a9000000000000000000000000000000000000000000000000000000008152fd5b610441611192565b60049236841161067b5760607ffffffffffffffffffffffffffffffffffffffffffffffffffffffffffffffffc36011261067b5783356104808161067f565b6024359161048d8361067f565b60443567ffffffffffffffff8111610677576104ad829136908901610789565b9316931561064e576104bf91166107e3565b813b156105ca576040517f5c60da1b000000000000000000000000000000000000000000000000000000009283825260209586838281855afa9283156102a65787936105149188916105b357503b1515610926565b7fa3f0ad74e5423aebfd80d3ef4346578335a9a72aeaee59ff6cb3582b35133d5080547fffffffffffffffffffffffff00000000000000000000000000000000000000001673ffffffffffffffffffffffffffffffffffffffff841617905560405194827f1cf3b03a6cf19fa2baba4df148e9dcabedea7f8a5c07840e207e5c089be95d3e8880a28451158015906102ab57610242578361023c6107d0565b6102c99150853d871161029f57610290818361070e565b6084846020604051917f08c379a0000000000000000000000000000000000000000000000000000000008352820152602560248201527f455243313936373a206e657720626561636f6e206973206e6f74206120636f6e60448201527f74726163740000000000000000000000000000000000000000000000000000006064820152fd5b856040517ff92ee8a9000000000000000000000000000000000000000000000000000000008152fd5b8580fd5b8280fd5b73ffffffffffffffffffffffffffffffffffffffff81160361069d57565b600080fd5b7f4e487b7100000000000000000000000000000000000000000000000000000000600052604160045260246000fd5b6020810190811067ffffffffffffffff8211176106ed57604052565b6106a2565b6040810190811067ffffffffffffffff8211176106ed57604052565b90601f7fffffffffffffffffffffffffffffffffffffffffffffffffffffffffffffffe0910116810190811067ffffffffffffffff8211176106ed57604052565b67ffffffffffffffff81116106ed57601f017fffffffffffffffffffffffffffffffffffffffffffffffffffffffffffffffe01660200190565b81601f8201121561069d578035906107a08261074f565b926107ae604051948561070e565b8284526020838301011161069d57816000926020809301838601378301015290565b604051906107dd826106d1565b60008252565b7fb53127684a568b3173ae13b9f8a6016e243e63b6e8ee1178d6a717850b5d61039081547f7e644d79422f17c01e4894b5f4f588d331ebfa28653d42ae832dc59e38c9798f604080519373ffffffffffffffffffffffffffffffffffffffff9081851686521693846020820152a1811561087e577fffffffffffffffffffffffff000000000000000000000000000000000000000016179055565b60846040517f08c379a000000000000000000000000000000000000000000000000000000000815260206004820152602660248201527f455243313936373a206e65772061646d696e20697320746865207a65726f206160448201527f64647265737300000000000000000000000000000000000000000000000000006064820152fd5b9081602091031261069d57516109178161067f565b90565b6040513d6000823e3d90fd5b1561092d57565b60846040517f08c379a000000000000000000000000000000000000000000000000000000000815260206004820152603060248201527f455243313936373a20626561636f6e20696d706c656d656e746174696f6e206960448201527f73206e6f74206120636f6e7472616374000000000000000000000000000000006064820152fd5b604051906060820182811067ffffffffffffffff8211176106ed57604052602782527f206661696c6564000000000000000000000000000000000000000000000000006040837f416464726573733a206c6f772d6c6576656c2064656c65676174652063616c6c60208201520152565b6000806109179493602081519101845af43d15610a60573d91610a438361074f565b92610a51604051948561070e565b83523d6000602085013e610acd565b606091610acd565b15610a6f57565b60646040517f08c379a000000000000000000000000000000000000000000000000000000000815260206004820152601d60248201527f416464726573733a2063616c6c20746f206e6f6e2d636f6e74726163740000006044820152fd5b91929015610aed5750815115610ae1575090565b610917903b1515610a68565b825190915015610b005750805190602001fd5b604051907f08c379a000000000000000000000000000000000000000000000000000000000825281602080600483015282519283602484015260005b848110610b7d575050507fffffffffffffffffffffffffffffffffffffffffffffffffffffffffffffffe0601f836000604480968601015201168101030190fd5b818101830151868201604401528593508201610b3c565b610bee610bd57fb53127684a568b3173ae13b9f8a6016e243e63b6e8ee1178d6a717850b5d61035473ffffffffffffffffffffffffffffffffffffffff1690565b73ffffffffffffffffffffffffffffffffffffffff1690565b3303610d14576000357fffffffff00000000000000000000000000000000000000000000000000000000167f3659cfe6000000000000000000000000000000000000000000000000000000008103610c515750610c49610f0f565b602081519101f35b7f4f1ef286000000000000000000000000000000000000000000000000000000008103610c865750610c81611083565b610c49565b7f8f283970000000000000000000000000000000000000000000000000000000008103610cb65750610c81610ec5565b7ff851a440000000000000000000000000000000000000000000000000000000008103610ce65750610c81610dfd565b7f5c60da1b0000000000000000000000000000000000000000000000000000000003610d1457610c81610e53565b610d1c610d3b565b6000808092368280378136915af43d82803e15610d37573d90f35b3d90fd5b73ffffffffffffffffffffffffffffffffffffffff807f360894a13ba1a3210667c828492db98dca3e2076cc3735a920a3ca505d382bbc541680610df8575060206004917fa3f0ad74e5423aebfd80d3ef4346578335a9a72aeaee59ff6cb3582b35133d505416604051928380927f5c60da1b0000000000000000000000000000000000000000000000000000000082525afa9081156102a657600091610de0575090565b610917915060203d811161029f57610290818361070e565b905090565b610e05611192565b73ffffffffffffffffffffffffffffffffffffffff7fb53127684a568b3173ae13b9f8a6016e243e63b6e8ee1178d6a717850b5d6103541660405190602082015260208152610917816106f2565b610e5b611192565b610e63610d3b565b73ffffffffffffffffffffffffffffffffffffffff6040519116602082015260208152610917816106f2565b7ffffffffffffffffffffffffffffffffffffffffffffffffffffffffffffffffc602091011261069d576004356109178161067f565b610ecd611192565b3660041161069d57610efc73ffffffffffffffffffffffffffffffffffffffff610ef636610e8f565b166107e3565b604051610f08816106d1565b6000815290565b610f17611192565b3660041161069d5773ffffffffffffffffffffffffffffffffffffffff610f3d36610e8f565b1660405190610f4b826106d1565b60008252803b15610fff577f360894a13ba1a3210667c828492db98dca3e2076cc3735a920a3ca505d382bbc817fffffffffffffffffffffffff0000000000000000000000000000000000000000825416179055807fbc7cd75a20ee27fd9adebab32041f755214dbc6bffa90cc0225b39da2e5c2d3b600080a2815115801590610ff7575b610fe3575b5050604051610f08816106d1565b610fef916102646109b1565b503880610fd5565b506000610fd0565b60846040517f08c379a000000000000000000000000000000000000000000000000000000000815260206004820152602d60248201527f455243313936373a206e657720696d706c656d656e746174696f6e206973206e60448201527f6f74206120636f6e7472616374000000000000000000000000000000000000006064820152fd5b3660041161069d5760407ffffffffffffffffffffffffffffffffffffffffffffffffffffffffffffffffc36011261069d576004356110c18161067f565b60243567ffffffffffffffff811161069d576110f673ffffffffffffffffffffffffffffffffffffffff913690600401610789565b9116803b15610fff577f360894a13ba1a3210667c828492db98dca3e2076cc3735a920a3ca505d382bbc817fffffffffffffffffffffffff0000000000000000000000000000000000000000825416179055807fbc7cd75a20ee27fd9adebab32041f755214dbc6bffa90cc0225b39da2e5c2d3b600080a281511580159061118a57610fe3575050604051610f08816106d1565b506001610fd0565b3461069d5756fea264697066735822122043b19ddbf8b158c7b89e1cb0ede6eab8cd9c86ef2e863af97cab3041b065284164736f6c63430008130033a2646970667358221220c4f7e0f9163fb3af8844b45ab856243a6732e46866793f4499915cfea03af3b864736f6c6343000813003360803461011a57601f6105ee38819003918201601f19168301916001600160401b0383118484101761011f5780849260209460405283398101031261011a57516001600160a01b03808216919082820361011a576000549160018060a01b0319923384821617600055604051923391167f8be0079c531659141344cd1fd0a4f28419497f9722a3daafe3b4186f6b6457e0600080a33b156100b2575060015416176001556040516104b890816101368239f35b62461bcd60e51b815260206004820152603360248201527f5570677261646561626c65426561636f6e3a20696d706c656d656e746174696f60448201527f6e206973206e6f74206120636f6e7472616374000000000000000000000000006064820152608490fd5b600080fd5b634e487b7160e01b600052604160045260246000fdfe6080604052600436101561001257600080fd5b6000803560e01c80633659cfe6146102ce5780635c60da1b1461027c578063715018a6146101e05780638da5cb5b1461018f5763f2fde38b1461005457600080fd5b3461018c5760207ffffffffffffffffffffffffffffffffffffffffffffffffffffffffffffffffc36011261018c5760043573ffffffffffffffffffffffffffffffffffffffff808216809203610188576100ad610403565b8115610104578254827fffffffffffffffffffffffff00000000000000000000000000000000000000008216178455167f8be0079c531659141344cd1fd0a4f28419497f9722a3daafe3b4186f6b6457e08380a380f35b60846040517f08c379a000000000000000000000000000000000000000000000000000000000815260206004820152602660248201527f4f776e61626c653a206e6577206f776e657220697320746865207a65726f206160448201527f64647265737300000000000000000000000000000000000000000000000000006064820152fd5b8280fd5b80fd5b503461018c57807ffffffffffffffffffffffffffffffffffffffffffffffffffffffffffffffffc36011261018c5773ffffffffffffffffffffffffffffffffffffffff6020915416604051908152f35b503461018c57807ffffffffffffffffffffffffffffffffffffffffffffffffffffffffffffffffc36011261018c57610217610403565b8073ffffffffffffffffffffffffffffffffffffffff81547fffffffffffffffffffffffff000000000000000000000000000000000000000081168355167f8be0079c531659141344cd1fd0a4f28419497f9722a3daafe3b4186f6b6457e08280a380f35b503461018c57807ffffffffffffffffffffffffffffffffffffffffffffffffffffffffffffffffc36011261018c57602073ffffffffffffffffffffffffffffffffffffffff60015416604051908152f35b503461018c5760207ffffffffffffffffffffffffffffffffffffffffffffffffffffffffffffffffc36011261018c5760043573ffffffffffffffffffffffffffffffffffffffff81169081810361018857610328610403565b3b1561037f57807fffffffffffffffffffffffff000000000000000000000000000000000000000060015416176001557fbc7cd75a20ee27fd9adebab32041f755214dbc6bffa90cc0225b39da2e5c2d3b8280a280f35b60846040517f08c379a000000000000000000000000000000000000000000000000000000000815260206004820152603360248201527f5570677261646561626c65426561636f6e3a20696d706c656d656e746174696f60448201527f6e206973206e6f74206120636f6e7472616374000000000000000000000000006064820152fd5b73ffffffffffffffffffffffffffffffffffffffff60005416330361042457565b60646040517f08c379a000000000000000000000000000000000000000000000000000000000815260206004820152602060248201527f4f776e61626c653a2063616c6c6572206973206e6f7420746865206f776e65726044820152fdfea2646970667358221220c5471b22132cd15b928c4c1e3eecf6a636721aed3c412c5d6ea7e25407ed048464736f6c634300081300336080806040523461005b5760008054336001600160a01b0319821681178355916001600160a01b03909116907f8be0079c531659141344cd1fd0a4f28419497f9722a3daafe3b4186f6b6457e09080a361149e90816100618239f35b600080fdfe6080604081815260048036101561001557600080fd5b600092833560e01c90816301ffc9a7146109cd575080630e6fe11f1461098e578063238ac933146109595780633a63b8031461092d578063485cc95514610847578063579a97e61461082b578063715018a6146107ad5780637b8bdc8e146107885780638da5cb5b1461075557806398c3065f14610709578063a7ecd37e146106a2578063b223870014610651578063decfb3b21461018f5763f2fde38b146100bd57600080fd5b3461018b57602060031936011261018b576100d6610a7c565b916100df610b88565b73ffffffffffffffffffffffffffffffffffffffff831615610108578361010584610c07565b80f35b90602060849251917f08c379a0000000000000000000000000000000000000000000000000000000008352820152602660248201527f4f776e61626c653a206e6577206f776e657220697320746865207a65726f206160448201527f64647265737300000000000000000000000000000000000000000000000000006064820152fd5b8280fd5b509061019a36610b3f565b8293919492359283875260029160209683885260ff858a20541661062957906101c39187610dc1565b156106025767ffffffffffffffff6101dd60c08701610c74565b1642116105db5783875281865282872091600192837fffffffffffffffffffffffffffffffffffffffffffffffffffffffffffffff008254161790558288905b6102ca575b50505050610231848401610cdd565b937fbff0538a548e4ea8a217734a505ce9d9375306f438db1247603684e165834db861028e61026360e0870187610cfe565b945191829185835273ffffffffffffffffffffffffffffffffffffffff809a16963396840191610d4f565b0390a46101008101916102a96102a48484610d8e565b610cdd565b166102b2578280f35b6102c4916102bf91610d8e565b6110e2565b38808280f35b60a08088016102d9818a610c89565b90508310156105d4576102ec9089610c89565b8310156105a8578a908360061b01878a013592600384101561018b578b938b9289606061031a818701610cdd565b97608061032685610cdd565b970135930135938a81146000146104315750505073ffffffffffffffffffffffffffffffffffffffff809616803b1561042d5760c4938a9387938e51998a9889977ff242432a00000000000000000000000000000000000000000000000000000000895233908901521660248701526044860152606485015260848401528160a48401525af1801561042357610414575b505b7fffffffffffffffffffffffffffffffffffffffffffffffffffffffffffffffff81146103e85783018361021d565b6024896011857f4e487b7100000000000000000000000000000000000000000000000000000000835252fd5b61041d90610df4565b386103b7565b86513d8c823e3d90fd5b8580fd5b92979650909350908084036104f6575050116104ce57908b9173ffffffffffffffffffffffffffffffffffffffff80921690813b156104ca57836064928b5196879586947f42842e0e000000000000000000000000000000000000000000000000000000008652338d87015216602485015260448401525af18015610423576104bb575b506103b9565b6104c490610df4565b386104b5565b8380fd5b8588517f289aef69000000000000000000000000000000000000000000000000000000008152fd5b919590949392509061058057610558578c606481938e938c519787528c5233861b602c526f23b872dd000000000000000000000000600c52601c9485915af18c5188143d1517161561054d57508a905285526103b9565b8590637939f4248d52fd5b8689517f289aef69000000000000000000000000000000000000000000000000000000008152fd5b878a517f289aef69000000000000000000000000000000000000000000000000000000008152fd5b60248b6032877f4e487b7100000000000000000000000000000000000000000000000000000000835252fd5b5050610222565b82517f664b28b0000000000000000000000000000000000000000000000000000000008152fd5b82517f8baa579f000000000000000000000000000000000000000000000000000000008152fd5b8285517fb383ff03000000000000000000000000000000000000000000000000000000008152fd5b503461018b5761066d9161066436610af3565b9082959261104d565b1561067c5783610105846110e2565b517f8baa579f000000000000000000000000000000000000000000000000000000008152fd5b83346107065760206003193601126107065773ffffffffffffffffffffffffffffffffffffffff6106d1610a7c565b6106d9610b88565b167fffffffffffffffffffffffff0000000000000000000000000000000000000000600154161760015580f35b80fd5b503461018b57600319926020843601126107065781359367ffffffffffffffff851161075157610120908536030112610706575060209261074a9101610e78565b9051908152f35b5080fd5b50503461075157816003193601126107515773ffffffffffffffffffffffffffffffffffffffff60209254169051908152f35b505034610751576020906107a461079e36610b3f565b91610dc1565b90519015158152f35b83346107065780600319360112610706576107c6610b88565b8073ffffffffffffffffffffffffffffffffffffffff81547fffffffffffffffffffffffff000000000000000000000000000000000000000081168355167f8be0079c531659141344cd1fd0a4f28419497f9722a3daafe3b4186f6b6457e08280a380f35b505034610751576020906107a461084136610af3565b9161104d565b503461018b578160031936011261018b57610860610a7c565b906024359273ffffffffffffffffffffffffffffffffffffffff84168094036109295760ff855460a01c1661090357505061089a90610c07565b7fffffffffffffffffffffffff00000000000000000000000000000000000000006001541617600155740100000000000000000000000000000000000000007fffffffffffffffffffffff00ffffffffffffffffffffffffffffffffffffffff82541617815580f35b517ff92ee8a9000000000000000000000000000000000000000000000000000000008152fd5b8480fd5b503461018b57602060031936011261018b578160209360ff923581526002855220541690519015158152f35b50503461075157816003193601126107515760209073ffffffffffffffffffffffffffffffffffffffff600154169051908152f35b503461018b57600319926020843601126107065781359367ffffffffffffffff85116107515783908536030112610706575060209261074a9101611057565b9250503461018b57602060031936011261018b57357fffffffff00000000000000000000000000000000000000000000000000000000811680910361018b57602092508015908115610a52575b8115610a28575b5015158152f35b7f01ffc9a70000000000000000000000000000000000000000000000000000000091501438610a21565b7fcfb8e9aa0000000000000000000000000000000000000000000000000000000081149150610a1a565b6004359073ffffffffffffffffffffffffffffffffffffffff82168203610a9f57565b600080fd5b359073ffffffffffffffffffffffffffffffffffffffff82168203610a9f57565b9181601f84011215610a9f5782359167ffffffffffffffff8311610a9f5760208381860195010111610a9f57565b90600319604081840112610a9f5760043567ffffffffffffffff91828211610a9f576040908286030112610a9f5760040192602435918211610a9f57610b3b91600401610ac5565b9091565b90600319604081840112610a9f5760043567ffffffffffffffff91828211610a9f57610120908286030112610a9f5760040192602435918211610a9f57610b3b91600401610ac5565b73ffffffffffffffffffffffffffffffffffffffff600054163303610ba957565b60646040517f08c379a000000000000000000000000000000000000000000000000000000000815260206004820152602060248201527f4f776e61626c653a2063616c6c6572206973206e6f7420746865206f776e65726044820152fd5b6000549073ffffffffffffffffffffffffffffffffffffffff80911691827fffffffffffffffffffffffff0000000000000000000000000000000000000000821617600055167f8be0079c531659141344cd1fd0a4f28419497f9722a3daafe3b4186f6b6457e0600080a3565b3567ffffffffffffffff81168103610a9f5790565b9035907fffffffffffffffffffffffffffffffffffffffffffffffffffffffffffffffe181360301821215610a9f570180359067ffffffffffffffff8211610a9f57602001918160061b36038313610a9f57565b3573ffffffffffffffffffffffffffffffffffffffff81168103610a9f5790565b9035907fffffffffffffffffffffffffffffffffffffffffffffffffffffffffffffffe181360301821215610a9f570180359067ffffffffffffffff8211610a9f57602001918136038313610a9f57565b601f82602094937fffffffffffffffffffffffffffffffffffffffffffffffffffffffffffffffe0938186528686013760008582860101520116010190565b9035907fffffffffffffffffffffffffffffffffffffffffffffffffffffffffffffffc181360301821215610a9f570190565b90610dcf610dd49392610e78565b6111d0565b73ffffffffffffffffffffffffffffffffffffffff806001541691161490565b67ffffffffffffffff8111610e0857604052565b7f4e487b7100000000000000000000000000000000000000000000000000000000600052604160045260246000fd5b90601f7fffffffffffffffffffffffffffffffffffffffffffffffffffffffffffffffe0910116810190811067ffffffffffffffff821117610e0857604052565b610e8460208201610cdd565b906040810135906003821015610a9f5790610ea160608301610cdd565b90610eaf60a0840184610c89565b939092610ebe60c08301610c74565b94610ecc60e0840184610cfe565b6080610edf610100879994990187610d8e565b956040519a8b966101608801994660208a0152833560408a01528473ffffffffffffffffffffffffffffffffffffffff998a809516606082015201521660a08c0152013560c08a015282610140968760e08c0152526101808901919260005b81811061101e575050610f90925067ffffffffffffffff8098166101008a01527fffffffffffffffffffffffffffffffffffffffffffffffffffffffffffffffe096878a8403016101208b0152610d4f565b92848785030190870152610fa382610aa4565b16825260208101357fffffffffffffffffffffffffffffffffffffffffffffffffffffffffffffffe182360301811215610a9f570190602082359201938211610a9f578136038413610a9f576110149385926040838160206110089601520191610d4f565b03908101835282610e37565b6020815191012090565b9091926040806001928861103189610aa4565b1681526020880135602082015201950191019392919093610f3e565b90610dcf610dd493925b6110dc61107161106683610cdd565b926020810190610cfe565b6110b060409392935193849273ffffffffffffffffffffffffffffffffffffffff60208501974689521660408501526060808501526080840191610d4f565b037fffffffffffffffffffffffffffffffffffffffffffffffffffffffffffffffe08101835282610e37565b51902090565b6110f96110ee82610cdd565b916020810190610cfe565b91826040519384938437820190600093848094848280965203925af1903d156111ca573d9067ffffffffffffffff821161119d576040519161116360207fffffffffffffffffffffffffffffffffffffffffffffffffffffffffffffffe0601f8401160184610e37565b825260203d92013e5b1561117357565b60046040517f7cc2fbb3000000000000000000000000000000000000000000000000000000008152fd5b807f4e487b7100000000000000000000000000000000000000000000000000000000602492526041600452fd5b5061116c565b909160008093821561143b57600191813560f81c8381036112d8575050828211610929579081857fffffffffffffffffffffffffffffffffffffffffffffffffffffffffffffffff8360209501950183906040968791825199855286838214604180931491611261575b5050505050608092505afa51923d15611254576060525290565b638baa579f90526004601cfd5b6112915761127c57505050506080915080853880808061123a565b6080950135841a87528137853880808061123a565b50507f7fffffffffffffffffffffffffffffffffffffffffffffffffffffffffffffff91506021608095013590601b8260ff1c01885235885216606052853880808061123a565b60029097969492959391971480611430575b6112f6575b5050505050565b8496509390919293013560601c94816015116104ca5761137c9160209160405193849283927f1626ba7e000000000000000000000000000000000000000000000000000000009788855260048501526040602485015260157fffffffffffffffffffffffffffffffffffffffffffffffffffffffffffffffeb6044860193019101610d4f565b0381885afa8391816113d4575b5061139e5750909250505b38808080806112ef565b7fffffffff0000000000000000000000000000000000000000000000000000000016036113cc575b50611394565b9150386113c6565b9091506020813d8211611428575b816113ef60209383610e37565b810103126104ca57517fffffffff00000000000000000000000000000000000000000000000000000000811681036104ca579038611389565b3d91506113e2565b5060158210156112ea565b6024857f4e487b710000000000000000000000000000000000000000000000000000000081526032600452fdfea26469706673582212209aeb45877519b9acd168c435fba72de99b3576f5579e22daa46c2528edb74d6664736f6c63430008130033",
					"opcodes": "PUSH1 0x80 CALLVALUE PUSH2 0x121 JUMPI PUSH1 0x1 PUSH1 0x1 PUSH1 0x40 SHL SUB SWAP1 PUSH1 0x1F PUSH2 0x38D1 CODESIZE DUP2 SWAP1 SUB SWAP2 DUP3 ADD PUSH1 0x1F NOT AND DUP4 ADD SWAP3 SWAP2 SWAP1 DUP5 DUP5 GT DUP4 DUP6 LT OR PUSH2 0x10B JUMPI DUP2 PUSH1 0x20 SWAP3 DUP5 SWAP3 PUSH1 0x40 SWAP7 DUP8 MSTORE DUP4 CODECOPY DUP2 ADD SUB SLT PUSH2 0x121 JUMPI MLOAD PUSH1 0x1 PUSH1 0x1 PUSH1 0xA0 SHL SUB DUP1 DUP3 AND DUP3 SUB PUSH2 0x121 JUMPI PUSH2 0x5F CALLER PUSH2 0x126 JUMP JUMPDEST DUP3 MLOAD SWAP4 PUSH2 0x14FF SWAP5 DUP6 DUP2 ADD SWAP6 DUP2 DUP8 LT DUP4 DUP9 GT OR PUSH2 0x10B JUMPI PUSH2 0x23D2 DUP3 CODECOPY DUP1 PUSH1 0x0 SWAP7 SUB SWAP1 DUP7 CREATE SWAP1 DUP2 ISZERO PUSH2 0x101 JUMPI DUP5 MLOAD SWAP2 PUSH2 0x5EE DUP1 DUP5 ADD SWAP3 DUP4 GT DUP5 DUP5 LT OR PUSH2 0xED JUMPI SWAP2 DUP5 DUP5 SWAP3 PUSH1 0x20 SWAP5 PUSH2 0x1DE4 DUP6 CODECOPY AND DUP2 MSTORE SUB ADD SWAP1 DUP6 CREATE DUP1 ISZERO PUSH2 0xE0 JUMPI PUSH2 0xD3 SWAP4 SWAP5 POP AND PUSH1 0x1 DUP1 PUSH1 0xA0 SHL SUB NOT PUSH1 0x1 SLOAD AND OR PUSH1 0x1 SSTORE PUSH2 0x126 JUMP JUMPDEST MLOAD PUSH2 0x1C76 SWAP1 DUP2 PUSH2 0x16E DUP3 CODECOPY RETURN JUMPDEST POP POP POP MLOAD SWAP1 RETURNDATASIZE SWAP1 DUP3 RETURNDATACOPY RETURNDATASIZE SWAP1 REVERT JUMPDEST PUSH4 0x4E487B71 PUSH1 0xE0 SHL DUP9 MSTORE PUSH1 0x41 PUSH1 0x4 MSTORE PUSH1 0x24 DUP9 REVERT JUMPDEST DUP5 MLOAD RETURNDATASIZE DUP8 DUP3 RETURNDATACOPY RETURNDATASIZE SWAP1 REVERT JUMPDEST PUSH4 0x4E487B71 PUSH1 0xE0 SHL PUSH1 0x0 MSTORE PUSH1 0x41 PUSH1 0x4 MSTORE PUSH1 0x24 PUSH1 0x0 REVERT JUMPDEST PUSH1 0x0 DUP1 REVERT JUMPDEST PUSH1 0x0 DUP1 SLOAD PUSH1 0x1 PUSH1 0x1 PUSH1 0xA0 SHL SUB SWAP3 DUP4 AND PUSH1 0x1 PUSH1 0x1 PUSH1 0xA0 SHL SUB NOT DUP3 AND DUP2 OR DUP4 SSTORE SWAP3 AND SWAP1 PUSH32 0x8BE0079C531659141344CD1FD0A4F28419497F9722A3DAAFE3B4186F6B6457E0 SWAP1 DUP1 LOG3 JUMP INVALID PUSH1 0x40 PUSH1 0x80 DUP2 MSTORE PUSH1 0x4 SWAP1 DUP2 CALLDATASIZE LT ISZERO PUSH2 0x15 JUMPI PUSH1 0x0 DUP1 REVERT JUMPDEST PUSH1 0x0 SWAP2 DUP3 CALLDATALOAD PUSH1 0xE0 SHR DUP1 PUSH4 0x1BCE4583 EQ PUSH2 0x790 JUMPI DUP1 PUSH4 0x59659E90 EQ PUSH2 0x73D JUMPI DUP1 PUSH4 0x715018A6 EQ PUSH2 0x6A0 JUMPI DUP1 PUSH4 0x8DA5CB5B EQ PUSH2 0x64B JUMPI DUP1 PUSH4 0xD9181CD3 EQ PUSH2 0x2EE JUMPI DUP1 PUSH4 0xE657F693 EQ PUSH2 0x1AA JUMPI PUSH4 0xF2FDE38B EQ PUSH2 0x6E JUMPI PUSH1 0x0 DUP1 REVERT JUMPDEST CALLVALUE PUSH2 0x1A6 JUMPI PUSH1 0x20 PUSH32 0xFFFFFFFFFFFFFFFFFFFFFFFFFFFFFFFFFFFFFFFFFFFFFFFFFFFFFFFFFFFFFFFC CALLDATASIZE ADD SLT PUSH2 0x1A6 JUMPI PUSH2 0xA5 PUSH2 0x84F JUMP JUMPDEST SWAP1 PUSH2 0xAE PUSH2 0x8BD JUMP JUMPDEST PUSH20 0xFFFFFFFFFFFFFFFFFFFFFFFFFFFFFFFFFFFFFFFF DUP1 SWAP3 AND SWAP3 DUP4 ISZERO PUSH2 0x123 JUMPI POP POP PUSH1 0x0 SLOAD DUP3 PUSH32 0xFFFFFFFFFFFFFFFFFFFFFFFF0000000000000000000000000000000000000000 DUP3 AND OR PUSH1 0x0 SSTORE AND PUSH32 0x8BE0079C531659141344CD1FD0A4F28419497F9722A3DAAFE3B4186F6B6457E0 PUSH1 0x0 DUP1 LOG3 DUP1 RETURN JUMPDEST SWAP1 PUSH1 0x20 PUSH1 0x84 SWAP3 MLOAD SWAP2 PUSH32 0x8C379A000000000000000000000000000000000000000000000000000000000 DUP4 MSTORE DUP3 ADD MSTORE PUSH1 0x26 PUSH1 0x24 DUP3 ADD MSTORE PUSH32 0x4F776E61626C653A206E6577206F776E657220697320746865207A65726F2061 PUSH1 0x44 DUP3 ADD MSTORE PUSH32 0x6464726573730000000000000000000000000000000000000000000000000000 PUSH1 0x64 DUP3 ADD MSTORE REVERT JUMPDEST DUP3 DUP1 REVERT JUMPDEST DUP3 DUP5 CALLVALUE PUSH2 0x2EB JUMPI PUSH1 0x60 PUSH32 0xFFFFFFFFFFFFFFFFFFFFFFFFFFFFFFFFFFFFFFFFFFFFFFFFFFFFFFFFFFFFFFFC CALLDATASIZE ADD SLT PUSH2 0x2EB JUMPI POP PUSH2 0x1E4 PUSH2 0x84F JUMP JUMPDEST SWAP1 PUSH2 0x1ED PUSH2 0x877 JUMP JUMPDEST SWAP2 PUSH1 0x55 PUSH1 0xB PUSH2 0x1FA PUSH2 0x89A JUMP JUMPDEST DUP5 MLOAD PUSH20 0xFFFFFFFFFFFFFFFFFFFFFFFFFFFFFFFFFFFFFFFF SWAP7 DUP8 AND PUSH1 0x20 DUP1 DUP4 ADD SWAP2 DUP3 MSTORE SWAP3 SWAP1 SWAP8 AND PUSH1 0x40 DUP1 DUP4 ADD SWAP2 SWAP1 SWAP2 MSTORE DUP2 MSTORE SWAP1 SWAP6 PUSH32 0xFFFFFFFFFFFFFFFFFFFFFFFFFFFFFFFFFFFFFFFFFFFFFFFFFFFFFFFFFFFFFFE0 SWAP2 PUSH2 0x25A PUSH1 0x60 DUP3 PUSH2 0x99B JUMP JUMPDEST MLOAD SWAP1 KECCAK256 SWAP1 PUSH2 0x2AB DUP7 MLOAD SWAP2 PUSH2 0x26D DUP4 PUSH2 0x97F JUMP JUMPDEST PUSH1 0x0 DUP4 MSTORE PUSH20 0xFFFFFFFFFFFFFFFFFFFFFFFFFFFFFFFFFFFFFFFF SWAP7 PUSH2 0x29F DUP9 PUSH1 0x1 SLOAD AND SWAP5 DUP11 MLOAD SWAP6 DUP7 SWAP4 DUP14 DUP6 ADD SWAP9 DUP10 PUSH2 0x9FF JUMP JUMPDEST SUB SWAP1 DUP2 ADD DUP4 MSTORE DUP3 PUSH2 0x99B JUMP JUMPDEST MLOAD SWAP1 KECCAK256 PUSH2 0x11EB DUP6 MLOAD PUSH2 0x2BF DUP9 DUP4 ADD DUP3 PUSH2 0x99B JUMP JUMPDEST DUP2 DUP2 MSTORE DUP8 DUP2 ADD SWAP2 PUSH2 0xA56 DUP4 CODECOPY MLOAD SWAP1 KECCAK256 SWAP1 DUP6 MLOAD SWAP2 DUP7 DUP4 ADD MSTORE DUP7 DUP3 ADD MSTORE ADDRESS DUP2 MSTORE ADD PUSH1 0xFF DUP2 MSTORE8 KECCAK256 SWAP2 MLOAD SWAP2 AND DUP2 MSTORE RETURN JUMPDEST DUP1 REVERT JUMPDEST POP SWAP1 CALLVALUE PUSH2 0x1A6 JUMPI PUSH1 0x60 PUSH32 0xFFFFFFFFFFFFFFFFFFFFFFFFFFFFFFFFFFFFFFFFFFFFFFFFFFFFFFFFFFFFFFFC CALLDATASIZE ADD SLT PUSH2 0x1A6 JUMPI PUSH2 0x327 PUSH2 0x84F JUMP JUMPDEST SWAP3 PUSH2 0x330 PUSH2 0x877 JUMP JUMPDEST PUSH2 0x338 PUSH2 0x89A JUMP JUMPDEST SWAP1 DUP4 MLOAD SWAP5 PUSH1 0x20 SWAP7 DUP8 DUP8 ADD DUP8 PUSH2 0x375 DUP7 DUP7 DUP5 SWAP1 PUSH1 0x20 SWAP1 SWAP4 SWAP3 SWAP4 PUSH1 0x40 DUP4 ADD SWAP5 PUSH20 0xFFFFFFFFFFFFFFFFFFFFFFFFFFFFFFFFFFFFFFFF DUP1 SWAP3 AND DUP5 MSTORE AND SWAP2 ADD MSTORE JUMP JUMPDEST SUB SWAP8 PUSH2 0x3A7 PUSH32 0xFFFFFFFFFFFFFFFFFFFFFFFFFFFFFFFFFFFFFFFFFFFFFFFFFFFFFFFFFFFFFFE0 SWAP10 DUP11 DUP2 ADD DUP4 MSTORE DUP3 PUSH2 0x99B JUMP JUMPDEST MLOAD SWAP1 KECCAK256 DUP7 MLOAD SWAP2 PUSH2 0x3B6 DUP4 PUSH2 0x97F JUMP JUMPDEST PUSH1 0x0 DUP4 MSTORE PUSH20 0xFFFFFFFFFFFFFFFFFFFFFFFFFFFFFFFFFFFFFFFF SWAP2 DUP2 PUSH2 0x3F9 DUP13 PUSH2 0x3ED DUP8 DUP14 DUP9 PUSH1 0x1 SLOAD AND SWAP1 MLOAD SWAP6 DUP7 SWAP5 DUP6 ADD SWAP8 DUP9 PUSH2 0x9FF JUMP JUMPDEST SUB DUP13 DUP2 ADD DUP4 MSTORE DUP3 PUSH2 0x99B JUMP JUMPDEST MLOAD SWAP1 KECCAK256 PUSH2 0x11EB DUP10 MLOAD PUSH2 0x40D DUP14 DUP4 ADD DUP3 PUSH2 0x99B JUMP JUMPDEST DUP2 DUP2 MSTORE DUP13 DUP2 ADD SWAP2 PUSH2 0xA56 DUP4 CODECOPY DUP1 MLOAD ISZERO PUSH2 0x5F0 JUMPI MLOAD DUP5 SWAP3 SWAP2 DUP11 CREATE2 AND SWAP9 DUP10 ISZERO PUSH2 0x594 JUMPI DUP3 PUSH1 0x1 SLOAD AND SWAP4 DUP11 EXTCODESIZE ISZERO PUSH2 0x590 JUMPI SWAP2 PUSH1 0x84 SWAP2 PUSH1 0x1F DUP11 SWAP6 SWAP5 PUSH2 0x498 DUP16 DUP15 MLOAD SWAP10 DUP11 SWAP9 DUP10 SWAP8 PUSH32 0xCF7A1D7700000000000000000000000000000000000000000000000000000000 DUP10 MSTORE AND DUP13 DUP9 ADD MSTORE PUSH1 0x24 DUP8 ADD MSTORE PUSH1 0x60 PUSH1 0x44 DUP8 ADD MSTORE DUP3 MLOAD SWAP3 DUP4 SWAP2 DUP3 PUSH1 0x64 DUP10 ADD MSTORE DUP9 DUP9 ADD SWAP2 ADD PUSH2 0x9DC JUMP JUMPDEST ADD AND DUP2 ADD SUB ADD DUP2 DUP4 DUP12 GAS CALL DUP1 ISZERO PUSH2 0x586 JUMPI SWAP1 DUP6 SWAP2 PUSH2 0x572 JUMPI JUMPDEST POP POP DUP6 EXTCODESIZE ISZERO PUSH2 0x56E JUMPI DUP5 MLOAD PUSH32 0x485CC95500000000000000000000000000000000000000000000000000000000 DUP2 MSTORE PUSH20 0xFFFFFFFFFFFFFFFFFFFFFFFFFFFFFFFFFFFFFFFF SWAP3 DUP4 AND SWAP2 DUP2 ADD SWAP2 DUP3 MSTORE SWAP3 SWAP1 SWAP2 AND PUSH1 0x20 DUP3 ADD MSTORE DUP3 SWAP1 DUP3 SWAP1 DUP2 SWAP1 PUSH1 0x40 ADD SUB DUP2 DUP4 DUP9 GAS CALL DUP1 ISZERO PUSH2 0x564 JUMPI PUSH2 0x550 JUMPI JUMPDEST POP POP PUSH32 0xFD420143D893DF8A37B4078D9C81EFAA2FB5FC7A74CC5512CCB158588DE5FCFC DUP4 DUP3 MLOAD DUP5 DUP2 MSTORE LOG1 MLOAD SWAP1 DUP2 MSTORE RETURN JUMPDEST PUSH2 0x55A DUP3 SWAP2 PUSH2 0x93C JUMP JUMPDEST PUSH2 0x2EB JUMPI DUP1 PUSH2 0x520 JUMP JUMPDEST DUP4 MLOAD RETURNDATASIZE DUP5 DUP3 RETURNDATACOPY RETURNDATASIZE SWAP1 REVERT JUMPDEST DUP4 DUP1 REVERT JUMPDEST PUSH2 0x57B SWAP1 PUSH2 0x93C JUMP JUMPDEST PUSH2 0x56E JUMPI DUP4 CODESIZE PUSH2 0x4B1 JUMP JUMPDEST DUP7 MLOAD RETURNDATASIZE DUP8 DUP3 RETURNDATACOPY RETURNDATASIZE SWAP1 REVERT JUMPDEST DUP9 DUP1 REVERT JUMPDEST PUSH1 0x64 DUP6 DUP13 DUP12 MLOAD SWAP2 PUSH32 0x8C379A000000000000000000000000000000000000000000000000000000000 DUP4 MSTORE DUP3 ADD MSTORE PUSH1 0x19 PUSH1 0x24 DUP3 ADD MSTORE PUSH32 0x437265617465323A204661696C6564206F6E206465706C6F7900000000000000 PUSH1 0x44 DUP3 ADD MSTORE REVERT JUMPDEST PUSH1 0x64 DUP8 DUP15 DUP1 DUP15 MLOAD SWAP3 PUSH32 0x8C379A000000000000000000000000000000000000000000000000000000000 DUP5 MSTORE DUP4 ADD MSTORE PUSH1 0x24 DUP3 ADD MSTORE PUSH32 0x437265617465323A2062797465636F6465206C656E677468206973207A65726F PUSH1 0x44 DUP3 ADD MSTORE REVERT JUMPDEST POP POP CALLVALUE PUSH2 0x69C JUMPI DUP2 PUSH32 0xFFFFFFFFFFFFFFFFFFFFFFFFFFFFFFFFFFFFFFFFFFFFFFFFFFFFFFFFFFFFFFFC CALLDATASIZE ADD SLT PUSH2 0x69C JUMPI PUSH20 0xFFFFFFFFFFFFFFFFFFFFFFFFFFFFFFFFFFFFFFFF PUSH1 0x20 SWAP3 SLOAD AND SWAP1 MLOAD SWAP1 DUP2 MSTORE RETURN JUMPDEST POP DUP1 REVERT JUMPDEST DUP4 CALLVALUE PUSH2 0x2EB JUMPI DUP1 PUSH32 0xFFFFFFFFFFFFFFFFFFFFFFFFFFFFFFFFFFFFFFFFFFFFFFFFFFFFFFFFFFFFFFFC CALLDATASIZE ADD SLT PUSH2 0x2EB JUMPI PUSH2 0x6D7 PUSH2 0x8BD JUMP JUMPDEST PUSH1 0x0 PUSH20 0xFFFFFFFFFFFFFFFFFFFFFFFFFFFFFFFFFFFFFFFF DUP2 SLOAD PUSH32 0xFFFFFFFFFFFFFFFFFFFFFFFF0000000000000000000000000000000000000000 DUP2 AND DUP4 SSTORE AND PUSH32 0x8BE0079C531659141344CD1FD0A4F28419497F9722A3DAAFE3B4186F6B6457E0 DUP3 DUP1 LOG3 DUP1 RETURN JUMPDEST POP POP CALLVALUE PUSH2 0x69C JUMPI DUP2 PUSH32 0xFFFFFFFFFFFFFFFFFFFFFFFFFFFFFFFFFFFFFFFFFFFFFFFFFFFFFFFFFFFFFFFC CALLDATASIZE ADD SLT PUSH2 0x69C JUMPI PUSH1 0x20 SWAP1 PUSH20 0xFFFFFFFFFFFFFFFFFFFFFFFFFFFFFFFFFFFFFFFF PUSH1 0x1 SLOAD AND SWAP1 MLOAD SWAP1 DUP2 MSTORE RETURN JUMPDEST POP SWAP1 CALLVALUE PUSH2 0x1A6 JUMPI PUSH1 0x20 PUSH32 0xFFFFFFFFFFFFFFFFFFFFFFFFFFFFFFFFFFFFFFFFFFFFFFFFFFFFFFFFFFFFFFFC CALLDATASIZE ADD SLT PUSH2 0x1A6 JUMPI DUP3 PUSH2 0x7CA PUSH2 0x84F JUMP JUMPDEST PUSH2 0x7D2 PUSH2 0x8BD JUMP JUMPDEST PUSH20 0xFFFFFFFFFFFFFFFFFFFFFFFFFFFFFFFFFFFFFFFF SWAP1 DUP2 PUSH1 0x1 SLOAD AND SWAP1 DUP2 EXTCODESIZE ISZERO PUSH2 0x56E JUMPI DUP4 PUSH1 0x24 SWAP3 DUP7 MLOAD SWAP8 DUP9 SWAP6 DUP7 SWAP5 PUSH32 0x3659CFE600000000000000000000000000000000000000000000000000000000 DUP7 MSTORE AND SWAP1 DUP5 ADD MSTORE GAS CALL SWAP1 DUP2 ISZERO PUSH2 0x846 JUMPI POP PUSH2 0x83A JUMPI POP DUP1 RETURN JUMPDEST PUSH2 0x843 SWAP1 PUSH2 0x93C JUMP JUMPDEST DUP1 RETURN JUMPDEST MLOAD RETURNDATASIZE DUP5 DUP3 RETURNDATACOPY RETURNDATASIZE SWAP1 REVERT JUMPDEST PUSH1 0x4 CALLDATALOAD SWAP1 PUSH20 0xFFFFFFFFFFFFFFFFFFFFFFFFFFFFFFFFFFFFFFFF DUP3 AND DUP3 SUB PUSH2 0x872 JUMPI JUMP JUMPDEST PUSH1 0x0 DUP1 REVERT JUMPDEST PUSH1 0x24 CALLDATALOAD SWAP1 PUSH20 0xFFFFFFFFFFFFFFFFFFFFFFFFFFFFFFFFFFFFFFFF DUP3 AND DUP3 SUB PUSH2 0x872 JUMPI JUMP JUMPDEST PUSH1 0x44 CALLDATALOAD SWAP1 PUSH20 0xFFFFFFFFFFFFFFFFFFFFFFFFFFFFFFFFFFFFFFFF DUP3 AND DUP3 SUB PUSH2 0x872 JUMPI JUMP JUMPDEST PUSH20 0xFFFFFFFFFFFFFFFFFFFFFFFFFFFFFFFFFFFFFFFF PUSH1 0x0 SLOAD AND CALLER SUB PUSH2 0x8DE JUMPI JUMP JUMPDEST PUSH1 0x64 PUSH1 0x40 MLOAD PUSH32 0x8C379A000000000000000000000000000000000000000000000000000000000 DUP2 MSTORE PUSH1 0x20 PUSH1 0x4 DUP3 ADD MSTORE PUSH1 0x20 PUSH1 0x24 DUP3 ADD MSTORE PUSH32 0x4F776E61626C653A2063616C6C6572206973206E6F7420746865206F776E6572 PUSH1 0x44 DUP3 ADD MSTORE REVERT JUMPDEST PUSH8 0xFFFFFFFFFFFFFFFF DUP2 GT PUSH2 0x950 JUMPI PUSH1 0x40 MSTORE JUMP JUMPDEST PUSH32 0x4E487B7100000000000000000000000000000000000000000000000000000000 PUSH1 0x0 MSTORE PUSH1 0x41 PUSH1 0x4 MSTORE PUSH1 0x24 PUSH1 0x0 REVERT JUMPDEST PUSH1 0x20 DUP2 ADD SWAP1 DUP2 LT PUSH8 0xFFFFFFFFFFFFFFFF DUP3 GT OR PUSH2 0x950 JUMPI PUSH1 0x40 MSTORE JUMP JUMPDEST SWAP1 PUSH1 0x1F PUSH32 0xFFFFFFFFFFFFFFFFFFFFFFFFFFFFFFFFFFFFFFFFFFFFFFFFFFFFFFFFFFFFFFE0 SWAP2 ADD AND DUP2 ADD SWAP1 DUP2 LT PUSH8 0xFFFFFFFFFFFFFFFF DUP3 GT OR PUSH2 0x950 JUMPI PUSH1 0x40 MSTORE JUMP JUMPDEST PUSH1 0x0 JUMPDEST DUP4 DUP2 LT PUSH2 0x9EF JUMPI POP POP PUSH1 0x0 SWAP2 ADD MSTORE JUMP JUMPDEST DUP2 DUP2 ADD MLOAD DUP4 DUP3 ADD MSTORE PUSH1 0x20 ADD PUSH2 0x9DF JUMP JUMPDEST SWAP2 SWAP1 SWAP3 PUSH1 0x48 SWAP5 SWAP4 DUP4 MSTORE PUSH32 0xFFFFFFFFFFFFFFFFFFFFFFFFFFFFFFFFFFFFFFFF000000000000000000000000 DUP1 SWAP3 PUSH1 0x60 SHL AND PUSH1 0x20 DUP5 ADD MSTORE PUSH1 0x60 SHL AND PUSH1 0x34 DUP3 ADD MSTORE PUSH2 0xA50 DUP3 MLOAD DUP1 SWAP4 PUSH1 0x20 DUP7 DUP6 ADD SWAP2 ADD PUSH2 0x9DC JUMP JUMPDEST ADD ADD SWAP1 JUMP INVALID PUSH1 0x80 DUP1 PUSH1 0x40 MSTORE CALLVALUE PUSH2 0x16 JUMPI PUSH2 0x11CF SWAP1 DUP2 PUSH2 0x1C DUP3 CODECOPY RETURN JUMPDEST PUSH1 0x0 DUP1 REVERT INVALID PUSH1 0x40 PUSH1 0x80 DUP2 MSTORE CALLDATASIZE PUSH2 0x382 JUMPI PUSH20 0xFFFFFFFFFFFFFFFFFFFFFFFFFFFFFFFFFFFFFFFF DUP1 PUSH32 0xB53127684A568B3173AE13B9F8A6016E243E63B6E8EE1178D6A717850B5D6103 SLOAD AND ISZERO DUP1 ISZERO PUSH2 0xB94 JUMPI PUSH1 0x0 SWAP2 PUSH32 0xCF7A1D7700000000000000000000000000000000000000000000000000000000 PUSH32 0xFFFFFFFF00000000000000000000000000000000000000000000000000000000 DUP5 CALLDATALOAD AND EQ PUSH2 0xC0 JUMPI PUSH1 0x4 DUP5 MLOAD PUSH32 0xF92EE8A900000000000000000000000000000000000000000000000000000000 DUP2 MSTORE REVERT JUMPDEST PUSH2 0xC8 PUSH2 0x1192 JUMP JUMPDEST PUSH1 0x4 SWAP2 CALLDATASIZE DUP4 GT PUSH2 0x37E JUMPI PUSH1 0x60 PUSH32 0xFFFFFFFFFFFFFFFFFFFFFFFFFFFFFFFFFFFFFFFFFFFFFFFFFFFFFFFFFFFFFFFC CALLDATASIZE ADD SLT PUSH2 0x37E JUMPI DUP3 CALLDATALOAD SWAP2 PUSH2 0x108 DUP4 PUSH2 0x67F JUMP JUMPDEST PUSH1 0x24 CALLDATALOAD SWAP3 PUSH2 0x115 DUP5 PUSH2 0x67F JUMP JUMPDEST PUSH1 0x44 CALLDATALOAD PUSH8 0xFFFFFFFFFFFFFFFF DUP2 GT PUSH2 0x37A JUMPI PUSH2 0x135 DUP4 SWAP2 CALLDATASIZE SWAP1 DUP9 ADD PUSH2 0x789 JUMP JUMPDEST SWAP5 AND SWAP3 ISZERO PUSH2 0x352 JUMPI PUSH2 0x147 SWAP2 AND PUSH2 0x7E3 JUMP JUMPDEST DUP1 EXTCODESIZE ISZERO PUSH2 0x2CF JUMPI DUP5 MLOAD SWAP1 PUSH32 0x5C60DA1B00000000000000000000000000000000000000000000000000000000 SWAP4 DUP5 DUP4 MSTORE PUSH1 0x20 SWAP7 DUP8 DUP5 DUP4 DUP2 DUP7 GAS STATICCALL SWAP4 DUP5 ISZERO PUSH2 0x2A6 JUMPI DUP9 SWAP5 PUSH2 0x19D SWAP2 DUP10 SWAP2 PUSH2 0x2B2 JUMPI JUMPDEST POP EXTCODESIZE ISZERO ISZERO PUSH2 0x926 JUMP JUMPDEST PUSH32 0xA3F0AD74E5423AEBFD80D3EF4346578335A9A72AEAEE59FF6CB3582B35133D50 DUP1 SLOAD PUSH32 0xFFFFFFFFFFFFFFFFFFFFFFFF0000000000000000000000000000000000000000 AND PUSH20 0xFFFFFFFFFFFFFFFFFFFFFFFFFFFFFFFFFFFFFFFF DUP6 AND OR SWAP1 SSTORE MLOAD SWAP5 DUP3 PUSH32 0x1CF3B03A6CF19FA2BABA4DF148E9DCABEDEA7F8A5C07840E207E5C089BE95D3E DUP9 DUP1 LOG2 DUP5 MLOAD ISZERO DUP1 ISZERO SWAP1 PUSH2 0x2AB JUMPI JUMPDEST PUSH2 0x242 JUMPI JUMPDEST DUP4 PUSH2 0x23C PUSH2 0x7D0 JUMP JUMPDEST DUP1 MLOAD SWAP2 ADD RETURN JUMPDEST DUP6 SWAP3 DUP4 SWAP2 DUP3 MSTORE GAS STATICCALL SWAP2 DUP3 ISZERO PUSH2 0x2A6 JUMPI PUSH2 0x26A SWAP4 SWAP3 PUSH2 0x277 JUMPI JUMPDEST POP PUSH2 0x264 PUSH2 0x9B1 JUMP JUMPDEST SWAP2 PUSH2 0xA21 JUMP JUMPDEST POP CODESIZE DUP1 DUP1 DUP4 DUP2 DUP1 DUP1 PUSH2 0x233 JUMP JUMPDEST PUSH2 0x298 SWAP2 SWAP3 POP DUP5 RETURNDATASIZE DUP7 GT PUSH2 0x29F JUMPI JUMPDEST PUSH2 0x290 DUP2 DUP4 PUSH2 0x70E JUMP JUMPDEST DUP2 ADD SWAP1 PUSH2 0x902 JUMP JUMPDEST SWAP1 CODESIZE PUSH2 0x25B JUMP JUMPDEST POP RETURNDATASIZE PUSH2 0x286 JUMP JUMPDEST PUSH2 0x91A JUMP JUMPDEST POP DUP7 PUSH2 0x22E JUMP JUMPDEST PUSH2 0x2C9 SWAP2 POP DUP7 RETURNDATASIZE DUP9 GT PUSH2 0x29F JUMPI PUSH2 0x290 DUP2 DUP4 PUSH2 0x70E JUMP JUMPDEST CODESIZE PUSH2 0x194 JUMP JUMPDEST PUSH1 0x84 DUP4 PUSH1 0x20 DUP8 MLOAD SWAP2 PUSH32 0x8C379A000000000000000000000000000000000000000000000000000000000 DUP4 MSTORE DUP3 ADD MSTORE PUSH1 0x25 PUSH1 0x24 DUP3 ADD MSTORE PUSH32 0x455243313936373A206E657720626561636F6E206973206E6F74206120636F6E PUSH1 0x44 DUP3 ADD MSTORE PUSH32 0x7472616374000000000000000000000000000000000000000000000000000000 PUSH1 0x64 DUP3 ADD MSTORE REVERT JUMPDEST DUP5 DUP8 MLOAD PUSH32 0xF92EE8A900000000000000000000000000000000000000000000000000000000 DUP2 MSTORE REVERT JUMPDEST DUP7 DUP1 REVERT JUMPDEST DUP4 DUP1 REVERT JUMPDEST PUSH20 0xFFFFFFFFFFFFFFFFFFFFFFFFFFFFFFFFFFFFFFFF DUP1 PUSH32 0xB53127684A568B3173AE13B9F8A6016E243E63B6E8EE1178D6A717850B5D6103 SLOAD AND ISZERO DUP1 ISZERO PUSH2 0xB94 JUMPI PUSH1 0x0 SWAP1 PUSH32 0xCF7A1D7700000000000000000000000000000000000000000000000000000000 PUSH32 0xFFFFFFFF00000000000000000000000000000000000000000000000000000000 DUP4 CALLDATALOAD AND EQ PUSH2 0x439 JUMPI PUSH1 0x4 PUSH1 0x40 MLOAD PUSH32 0xF92EE8A900000000000000000000000000000000000000000000000000000000 DUP2 MSTORE REVERT JUMPDEST PUSH2 0x441 PUSH2 0x1192 JUMP JUMPDEST PUSH1 0x4 SWAP3 CALLDATASIZE DUP5 GT PUSH2 0x67B JUMPI PUSH1 0x60 PUSH32 0xFFFFFFFFFFFFFFFFFFFFFFFFFFFFFFFFFFFFFFFFFFFFFFFFFFFFFFFFFFFFFFFC CALLDATASIZE ADD SLT PUSH2 0x67B JUMPI DUP4 CALLDATALOAD PUSH2 0x480 DUP2 PUSH2 0x67F JUMP JUMPDEST PUSH1 0x24 CALLDATALOAD SWAP2 PUSH2 0x48D DUP4 PUSH2 0x67F JUMP JUMPDEST PUSH1 0x44 CALLDATALOAD PUSH8 0xFFFFFFFFFFFFFFFF DUP2 GT PUSH2 0x677 JUMPI PUSH2 0x4AD DUP3 SWAP2 CALLDATASIZE SWAP1 DUP10 ADD PUSH2 0x789 JUMP JUMPDEST SWAP4 AND SWAP4 ISZERO PUSH2 0x64E JUMPI PUSH2 0x4BF SWAP2 AND PUSH2 0x7E3 JUMP JUMPDEST DUP2 EXTCODESIZE ISZERO PUSH2 0x5CA JUMPI PUSH1 0x40 MLOAD PUSH32 0x5C60DA1B00000000000000000000000000000000000000000000000000000000 SWAP3 DUP4 DUP3 MSTORE PUSH1 0x20 SWAP6 DUP7 DUP4 DUP3 DUP2 DUP6 GAS STATICCALL SWAP3 DUP4 ISZERO PUSH2 0x2A6 JUMPI DUP8 SWAP4 PUSH2 0x514 SWAP2 DUP9 SWAP2 PUSH2 0x5B3 JUMPI POP EXTCODESIZE ISZERO ISZERO PUSH2 0x926 JUMP JUMPDEST PUSH32 0xA3F0AD74E5423AEBFD80D3EF4346578335A9A72AEAEE59FF6CB3582B35133D50 DUP1 SLOAD PUSH32 0xFFFFFFFFFFFFFFFFFFFFFFFF0000000000000000000000000000000000000000 AND PUSH20 0xFFFFFFFFFFFFFFFFFFFFFFFFFFFFFFFFFFFFFFFF DUP5 AND OR SWAP1 SSTORE PUSH1 0x40 MLOAD SWAP5 DUP3 PUSH32 0x1CF3B03A6CF19FA2BABA4DF148E9DCABEDEA7F8A5C07840E207E5C089BE95D3E DUP9 DUP1 LOG2 DUP5 MLOAD ISZERO DUP1 ISZERO SWAP1 PUSH2 0x2AB JUMPI PUSH2 0x242 JUMPI DUP4 PUSH2 0x23C PUSH2 0x7D0 JUMP JUMPDEST PUSH2 0x2C9 SWAP2 POP DUP6 RETURNDATASIZE DUP8 GT PUSH2 0x29F JUMPI PUSH2 0x290 DUP2 DUP4 PUSH2 0x70E JUMP JUMPDEST PUSH1 0x84 DUP5 PUSH1 0x20 PUSH1 0x40 MLOAD SWAP2 PUSH32 0x8C379A000000000000000000000000000000000000000000000000000000000 DUP4 MSTORE DUP3 ADD MSTORE PUSH1 0x25 PUSH1 0x24 DUP3 ADD MSTORE PUSH32 0x455243313936373A206E657720626561636F6E206973206E6F74206120636F6E PUSH1 0x44 DUP3 ADD MSTORE PUSH32 0x7472616374000000000000000000000000000000000000000000000000000000 PUSH1 0x64 DUP3 ADD MSTORE REVERT JUMPDEST DUP6 PUSH1 0x40 MLOAD PUSH32 0xF92EE8A900000000000000000000000000000000000000000000000000000000 DUP2 MSTORE REVERT JUMPDEST DUP6 DUP1 REVERT JUMPDEST DUP3 DUP1 REVERT JUMPDEST PUSH20 0xFFFFFFFFFFFFFFFFFFFFFFFFFFFFFFFFFFFFFFFF DUP2 AND SUB PUSH2 0x69D JUMPI JUMP JUMPDEST PUSH1 0x0 DUP1 REVERT JUMPDEST PUSH32 0x4E487B7100000000000000000000000000000000000000000000000000000000 PUSH1 0x0 MSTORE PUSH1 0x41 PUSH1 0x4 MSTORE PUSH1 0x24 PUSH1 0x0 REVERT JUMPDEST PUSH1 0x20 DUP2 ADD SWAP1 DUP2 LT PUSH8 0xFFFFFFFFFFFFFFFF DUP3 GT OR PUSH2 0x6ED JUMPI PUSH1 0x40 MSTORE JUMP JUMPDEST PUSH2 0x6A2 JUMP JUMPDEST PUSH1 0x40 DUP2 ADD SWAP1 DUP2 LT PUSH8 0xFFFFFFFFFFFFFFFF DUP3 GT OR PUSH2 0x6ED JUMPI PUSH1 0x40 MSTORE JUMP JUMPDEST SWAP1 PUSH1 0x1F PUSH32 0xFFFFFFFFFFFFFFFFFFFFFFFFFFFFFFFFFFFFFFFFFFFFFFFFFFFFFFFFFFFFFFE0 SWAP2 ADD AND DUP2 ADD SWAP1 DUP2 LT PUSH8 0xFFFFFFFFFFFFFFFF DUP3 GT OR PUSH2 0x6ED JUMPI PUSH1 0x40 MSTORE JUMP JUMPDEST PUSH8 0xFFFFFFFFFFFFFFFF DUP2 GT PUSH2 0x6ED JUMPI PUSH1 0x1F ADD PUSH32 0xFFFFFFFFFFFFFFFFFFFFFFFFFFFFFFFFFFFFFFFFFFFFFFFFFFFFFFFFFFFFFFE0 AND PUSH1 0x20 ADD SWAP1 JUMP JUMPDEST DUP2 PUSH1 0x1F DUP3 ADD SLT ISZERO PUSH2 0x69D JUMPI DUP1 CALLDATALOAD SWAP1 PUSH2 0x7A0 DUP3 PUSH2 0x74F JUMP JUMPDEST SWAP3 PUSH2 0x7AE PUSH1 0x40 MLOAD SWAP5 DUP6 PUSH2 0x70E JUMP JUMPDEST DUP3 DUP5 MSTORE PUSH1 0x20 DUP4 DUP4 ADD ADD GT PUSH2 0x69D JUMPI DUP2 PUSH1 0x0 SWAP3 PUSH1 0x20 DUP1 SWAP4 ADD DUP4 DUP7 ADD CALLDATACOPY DUP4 ADD ADD MSTORE SWAP1 JUMP JUMPDEST PUSH1 0x40 MLOAD SWAP1 PUSH2 0x7DD DUP3 PUSH2 0x6D1 JUMP JUMPDEST PUSH1 0x0 DUP3 MSTORE JUMP JUMPDEST PUSH32 0xB53127684A568B3173AE13B9F8A6016E243E63B6E8EE1178D6A717850B5D6103 SWAP1 DUP2 SLOAD PUSH32 0x7E644D79422F17C01E4894B5F4F588D331EBFA28653D42AE832DC59E38C9798F PUSH1 0x40 DUP1 MLOAD SWAP4 PUSH20 0xFFFFFFFFFFFFFFFFFFFFFFFFFFFFFFFFFFFFFFFF SWAP1 DUP2 DUP6 AND DUP7 MSTORE AND SWAP4 DUP5 PUSH1 0x20 DUP3 ADD MSTORE LOG1 DUP2 ISZERO PUSH2 0x87E JUMPI PUSH32 0xFFFFFFFFFFFFFFFFFFFFFFFF0000000000000000000000000000000000000000 AND OR SWAP1 SSTORE JUMP JUMPDEST PUSH1 0x84 PUSH1 0x40 MLOAD PUSH32 0x8C379A000000000000000000000000000000000000000000000000000000000 DUP2 MSTORE PUSH1 0x20 PUSH1 0x4 DUP3 ADD MSTORE PUSH1 0x26 PUSH1 0x24 DUP3 ADD MSTORE PUSH32 0x455243313936373A206E65772061646D696E20697320746865207A65726F2061 PUSH1 0x44 DUP3 ADD MSTORE PUSH32 0x6464726573730000000000000000000000000000000000000000000000000000 PUSH1 0x64 DUP3 ADD MSTORE REVERT JUMPDEST SWAP1 DUP2 PUSH1 0x20 SWAP2 SUB SLT PUSH2 0x69D JUMPI MLOAD PUSH2 0x917 DUP2 PUSH2 0x67F JUMP JUMPDEST SWAP1 JUMP JUMPDEST PUSH1 0x40 MLOAD RETURNDATASIZE PUSH1 0x0 DUP3 RETURNDATACOPY RETURNDATASIZE SWAP1 REVERT JUMPDEST ISZERO PUSH2 0x92D JUMPI JUMP JUMPDEST PUSH1 0x84 PUSH1 0x40 MLOAD PUSH32 0x8C379A000000000000000000000000000000000000000000000000000000000 DUP2 MSTORE PUSH1 0x20 PUSH1 0x4 DUP3 ADD MSTORE PUSH1 0x30 PUSH1 0x24 DUP3 ADD MSTORE PUSH32 0x455243313936373A20626561636F6E20696D706C656D656E746174696F6E2069 PUSH1 0x44 DUP3 ADD MSTORE PUSH32 0x73206E6F74206120636F6E747261637400000000000000000000000000000000 PUSH1 0x64 DUP3 ADD MSTORE REVERT JUMPDEST PUSH1 0x40 MLOAD SWAP1 PUSH1 0x60 DUP3 ADD DUP3 DUP2 LT PUSH8 0xFFFFFFFFFFFFFFFF DUP3 GT OR PUSH2 0x6ED JUMPI PUSH1 0x40 MSTORE PUSH1 0x27 DUP3 MSTORE PUSH32 0x206661696C656400000000000000000000000000000000000000000000000000 PUSH1 0x40 DUP4 PUSH32 0x416464726573733A206C6F772D6C6576656C2064656C65676174652063616C6C PUSH1 0x20 DUP3 ADD MSTORE ADD MSTORE JUMP JUMPDEST PUSH1 0x0 DUP1 PUSH2 0x917 SWAP5 SWAP4 PUSH1 0x20 DUP2 MLOAD SWAP2 ADD DUP5 GAS DELEGATECALL RETURNDATASIZE ISZERO PUSH2 0xA60 JUMPI RETURNDATASIZE SWAP2 PUSH2 0xA43 DUP4 PUSH2 0x74F JUMP JUMPDEST SWAP3 PUSH2 0xA51 PUSH1 0x40 MLOAD SWAP5 DUP6 PUSH2 0x70E JUMP JUMPDEST DUP4 MSTORE RETURNDATASIZE PUSH1 0x0 PUSH1 0x20 DUP6 ADD RETURNDATACOPY PUSH2 0xACD JUMP JUMPDEST PUSH1 0x60 SWAP2 PUSH2 0xACD JUMP JUMPDEST ISZERO PUSH2 0xA6F JUMPI JUMP JUMPDEST PUSH1 0x64 PUSH1 0x40 MLOAD PUSH32 0x8C379A000000000000000000000000000000000000000000000000000000000 DUP2 MSTORE PUSH1 0x20 PUSH1 0x4 DUP3 ADD MSTORE PUSH1 0x1D PUSH1 0x24 DUP3 ADD MSTORE PUSH32 0x416464726573733A2063616C6C20746F206E6F6E2D636F6E7472616374000000 PUSH1 0x44 DUP3 ADD MSTORE REVERT JUMPDEST SWAP2 SWAP3 SWAP1 ISZERO PUSH2 0xAED JUMPI POP DUP2 MLOAD ISZERO PUSH2 0xAE1 JUMPI POP SWAP1 JUMP JUMPDEST PUSH2 0x917 SWAP1 EXTCODESIZE ISZERO ISZERO PUSH2 0xA68 JUMP JUMPDEST DUP3 MLOAD SWAP1 SWAP2 POP ISZERO PUSH2 0xB00 JUMPI POP DUP1 MLOAD SWAP1 PUSH1 0x20 ADD REVERT JUMPDEST PUSH1 0x40 MLOAD SWAP1 PUSH32 0x8C379A000000000000000000000000000000000000000000000000000000000 DUP3 MSTORE DUP2 PUSH1 0x20 DUP1 PUSH1 0x4 DUP4 ADD MSTORE DUP3 MLOAD SWAP3 DUP4 PUSH1 0x24 DUP5 ADD MSTORE PUSH1 0x0 JUMPDEST DUP5 DUP2 LT PUSH2 0xB7D JUMPI POP POP POP PUSH32 0xFFFFFFFFFFFFFFFFFFFFFFFFFFFFFFFFFFFFFFFFFFFFFFFFFFFFFFFFFFFFFFE0 PUSH1 0x1F DUP4 PUSH1 0x0 PUSH1 0x44 DUP1 SWAP7 DUP7 ADD ADD MSTORE ADD AND DUP2 ADD SUB ADD SWAP1 REVERT JUMPDEST DUP2 DUP2 ADD DUP4 ADD MLOAD DUP7 DUP3 ADD PUSH1 0x44 ADD MSTORE DUP6 SWAP4 POP DUP3 ADD PUSH2 0xB3C JUMP JUMPDEST PUSH2 0xBEE PUSH2 0xBD5 PUSH32 0xB53127684A568B3173AE13B9F8A6016E243E63B6E8EE1178D6A717850B5D6103 SLOAD PUSH20 0xFFFFFFFFFFFFFFFFFFFFFFFFFFFFFFFFFFFFFFFF AND SWAP1 JUMP JUMPDEST PUSH20 0xFFFFFFFFFFFFFFFFFFFFFFFFFFFFFFFFFFFFFFFF AND SWAP1 JUMP JUMPDEST CALLER SUB PUSH2 0xD14 JUMPI PUSH1 0x0 CALLDATALOAD PUSH32 0xFFFFFFFF00000000000000000000000000000000000000000000000000000000 AND PUSH32 0x3659CFE600000000000000000000000000000000000000000000000000000000 DUP2 SUB PUSH2 0xC51 JUMPI POP PUSH2 0xC49 PUSH2 0xF0F JUMP JUMPDEST PUSH1 0x20 DUP2 MLOAD SWAP2 ADD RETURN JUMPDEST PUSH32 0x4F1EF28600000000000000000000000000000000000000000000000000000000 DUP2 SUB PUSH2 0xC86 JUMPI POP PUSH2 0xC81 PUSH2 0x1083 JUMP JUMPDEST PUSH2 0xC49 JUMP JUMPDEST PUSH32 0x8F28397000000000000000000000000000000000000000000000000000000000 DUP2 SUB PUSH2 0xCB6 JUMPI POP PUSH2 0xC81 PUSH2 0xEC5 JUMP JUMPDEST PUSH32 0xF851A44000000000000000000000000000000000000000000000000000000000 DUP2 SUB PUSH2 0xCE6 JUMPI POP PUSH2 0xC81 PUSH2 0xDFD JUMP JUMPDEST PUSH32 0x5C60DA1B00000000000000000000000000000000000000000000000000000000 SUB PUSH2 0xD14 JUMPI PUSH2 0xC81 PUSH2 0xE53 JUMP JUMPDEST PUSH2 0xD1C PUSH2 0xD3B JUMP JUMPDEST PUSH1 0x0 DUP1 DUP1 SWAP3 CALLDATASIZE DUP3 DUP1 CALLDATACOPY DUP2 CALLDATASIZE SWAP2 GAS DELEGATECALL RETURNDATASIZE DUP3 DUP1 RETURNDATACOPY ISZERO PUSH2 0xD37 JUMPI RETURNDATASIZE SWAP1 RETURN JUMPDEST RETURNDATASIZE SWAP1 REVERT JUMPDEST PUSH20 0xFFFFFFFFFFFFFFFFFFFFFFFFFFFFFFFFFFFFFFFF DUP1 PUSH32 0x360894A13BA1A3210667C828492DB98DCA3E2076CC3735A920A3CA505D382BBC SLOAD AND DUP1 PUSH2 0xDF8 JUMPI POP PUSH1 0x20 PUSH1 0x4 SWAP2 PUSH32 0xA3F0AD74E5423AEBFD80D3EF4346578335A9A72AEAEE59FF6CB3582B35133D50 SLOAD AND PUSH1 0x40 MLOAD SWAP3 DUP4 DUP1 SWAP3 PUSH32 0x5C60DA1B00000000000000000000000000000000000000000000000000000000 DUP3 MSTORE GAS STATICCALL SWAP1 DUP2 ISZERO PUSH2 0x2A6 JUMPI PUSH1 0x0 SWAP2 PUSH2 0xDE0 JUMPI POP SWAP1 JUMP JUMPDEST PUSH2 0x917 SWAP2 POP PUSH1 0x20 RETURNDATASIZE DUP2 GT PUSH2 0x29F JUMPI PUSH2 0x290 DUP2 DUP4 PUSH2 0x70E JUMP JUMPDEST SWAP1 POP SWAP1 JUMP JUMPDEST PUSH2 0xE05 PUSH2 0x1192 JUMP JUMPDEST PUSH20 0xFFFFFFFFFFFFFFFFFFFFFFFFFFFFFFFFFFFFFFFF PUSH32 0xB53127684A568B3173AE13B9F8A6016E243E63B6E8EE1178D6A717850B5D6103 SLOAD AND PUSH1 0x40 MLOAD SWAP1 PUSH1 0x20 DUP3 ADD MSTORE PUSH1 0x20 DUP2 MSTORE PUSH2 0x917 DUP2 PUSH2 0x6F2 JUMP JUMPDEST PUSH2 0xE5B PUSH2 0x1192 JUMP JUMPDEST PUSH2 0xE63 PUSH2 0xD3B JUMP JUMPDEST PUSH20 0xFFFFFFFFFFFFFFFFFFFFFFFFFFFFFFFFFFFFFFFF PUSH1 0x40 MLOAD SWAP2 AND PUSH1 0x20 DUP3 ADD MSTORE PUSH1 0x20 DUP2 MSTORE PUSH2 0x917 DUP2 PUSH2 0x6F2 JUMP JUMPDEST PUSH32 0xFFFFFFFFFFFFFFFFFFFFFFFFFFFFFFFFFFFFFFFFFFFFFFFFFFFFFFFFFFFFFFFC PUSH1 0x20 SWAP2 ADD SLT PUSH2 0x69D JUMPI PUSH1 0x4 CALLDATALOAD PUSH2 0x917 DUP2 PUSH2 0x67F JUMP JUMPDEST PUSH2 0xECD PUSH2 0x1192 JUMP JUMPDEST CALLDATASIZE PUSH1 0x4 GT PUSH2 0x69D JUMPI PUSH2 0xEFC PUSH20 0xFFFFFFFFFFFFFFFFFFFFFFFFFFFFFFFFFFFFFFFF PUSH2 0xEF6 CALLDATASIZE PUSH2 0xE8F JUMP JUMPDEST AND PUSH2 0x7E3 JUMP JUMPDEST PUSH1 0x40 MLOAD PUSH2 0xF08 DUP2 PUSH2 0x6D1 JUMP JUMPDEST PUSH1 0x0 DUP2 MSTORE SWAP1 JUMP JUMPDEST PUSH2 0xF17 PUSH2 0x1192 JUMP JUMPDEST CALLDATASIZE PUSH1 0x4 GT PUSH2 0x69D JUMPI PUSH20 0xFFFFFFFFFFFFFFFFFFFFFFFFFFFFFFFFFFFFFFFF PUSH2 0xF3D CALLDATASIZE PUSH2 0xE8F JUMP JUMPDEST AND PUSH1 0x40 MLOAD SWAP1 PUSH2 0xF4B DUP3 PUSH2 0x6D1 JUMP JUMPDEST PUSH1 0x0 DUP3 MSTORE DUP1 EXTCODESIZE ISZERO PUSH2 0xFFF JUMPI PUSH32 0x360894A13BA1A3210667C828492DB98DCA3E2076CC3735A920A3CA505D382BBC DUP2 PUSH32 0xFFFFFFFFFFFFFFFFFFFFFFFF0000000000000000000000000000000000000000 DUP3 SLOAD AND OR SWAP1 SSTORE DUP1 PUSH32 0xBC7CD75A20EE27FD9ADEBAB32041F755214DBC6BFFA90CC0225B39DA2E5C2D3B PUSH1 0x0 DUP1 LOG2 DUP2 MLOAD ISZERO DUP1 ISZERO SWAP1 PUSH2 0xFF7 JUMPI JUMPDEST PUSH2 0xFE3 JUMPI JUMPDEST POP POP PUSH1 0x40 MLOAD PUSH2 0xF08 DUP2 PUSH2 0x6D1 JUMP JUMPDEST PUSH2 0xFEF SWAP2 PUSH2 0x264 PUSH2 0x9B1 JUMP JUMPDEST POP CODESIZE DUP1 PUSH2 0xFD5 JUMP JUMPDEST POP PUSH1 0x0 PUSH2 0xFD0 JUMP JUMPDEST PUSH1 0x84 PUSH1 0x40 MLOAD PUSH32 0x8C379A000000000000000000000000000000000000000000000000000000000 DUP2 MSTORE PUSH1 0x20 PUSH1 0x4 DUP3 ADD MSTORE PUSH1 0x2D PUSH1 0x24 DUP3 ADD MSTORE PUSH32 0x455243313936373A206E657720696D706C656D656E746174696F6E206973206E PUSH1 0x44 DUP3 ADD MSTORE PUSH32 0x6F74206120636F6E747261637400000000000000000000000000000000000000 PUSH1 0x64 DUP3 ADD MSTORE REVERT JUMPDEST CALLDATASIZE PUSH1 0x4 GT PUSH2 0x69D JUMPI PUSH1 0x40 PUSH32 0xFFFFFFFFFFFFFFFFFFFFFFFFFFFFFFFFFFFFFFFFFFFFFFFFFFFFFFFFFFFFFFFC CALLDATASIZE ADD SLT PUSH2 0x69D JUMPI PUSH1 0x4 CALLDATALOAD PUSH2 0x10C1 DUP2 PUSH2 0x67F JUMP JUMPDEST PUSH1 0x24 CALLDATALOAD PUSH8 0xFFFFFFFFFFFFFFFF DUP2 GT PUSH2 0x69D JUMPI PUSH2 0x10F6 PUSH20 0xFFFFFFFFFFFFFFFFFFFFFFFFFFFFFFFFFFFFFFFF SWAP2 CALLDATASIZE SWAP1 PUSH1 0x4 ADD PUSH2 0x789 JUMP JUMPDEST SWAP2 AND DUP1 EXTCODESIZE ISZERO PUSH2 0xFFF JUMPI PUSH32 0x360894A13BA1A3210667C828492DB98DCA3E2076CC3735A920A3CA505D382BBC DUP2 PUSH32 0xFFFFFFFFFFFFFFFFFFFFFFFF0000000000000000000000000000000000000000 DUP3 SLOAD AND OR SWAP1 SSTORE DUP1 PUSH32 0xBC7CD75A20EE27FD9ADEBAB32041F755214DBC6BFFA90CC0225B39DA2E5C2D3B PUSH1 0x0 DUP1 LOG2 DUP2 MLOAD ISZERO DUP1 ISZERO SWAP1 PUSH2 0x118A JUMPI PUSH2 0xFE3 JUMPI POP POP PUSH1 0x40 MLOAD PUSH2 0xF08 DUP2 PUSH2 0x6D1 JUMP JUMPDEST POP PUSH1 0x1 PUSH2 0xFD0 JUMP JUMPDEST CALLVALUE PUSH2 0x69D JUMPI JUMP INVALID LOG2 PUSH5 0x6970667358 0x22 SLT KECCAK256 NUMBER 0xB1 SWAP14 0xDB 0xF8 0xB1 PC 0xC7 0xB8 SWAP15 SHR 0xB0 0xED 0xE6 0xEA 0xB8 0xCD SWAP13 DUP7 0xEF 0x2E DUP7 GASPRICE 0xF9 PUSH29 0xAB3041B065284164736F6C63430008130033A2646970667358221220C4 0xF7 0xE0 0xF9 AND EXTCODEHASH 0xB3 0xAF DUP9 PREVRANDAO 0xB4 GAS 0xB8 JUMP 0x24 GASPRICE PUSH8 0x32E46866793F4499 SWAP2 0x5C INVALID LOG0 GASPRICE RETURN 0xB8 PUSH5 0x736F6C6343 STOP ADDMOD SGT STOP CALLER PUSH1 0x80 CALLVALUE PUSH2 0x11A JUMPI PUSH1 0x1F PUSH2 0x5EE CODESIZE DUP2 SWAP1 SUB SWAP2 DUP3 ADD PUSH1 0x1F NOT AND DUP4 ADD SWAP2 PUSH1 0x1 PUSH1 0x1 PUSH1 0x40 SHL SUB DUP4 GT DUP5 DUP5 LT OR PUSH2 0x11F JUMPI DUP1 DUP5 SWAP3 PUSH1 0x20 SWAP5 PUSH1 0x40 MSTORE DUP4 CODECOPY DUP2 ADD SUB SLT PUSH2 0x11A JUMPI MLOAD PUSH1 0x1 PUSH1 0x1 PUSH1 0xA0 SHL SUB DUP1 DUP3 AND SWAP2 SWAP1 DUP3 DUP3 SUB PUSH2 0x11A JUMPI PUSH1 0x0 SLOAD SWAP2 PUSH1 0x1 DUP1 PUSH1 0xA0 SHL SUB NOT SWAP3 CALLER DUP5 DUP3 AND OR PUSH1 0x0 SSTORE PUSH1 0x40 MLOAD SWAP3 CALLER SWAP2 AND PUSH32 0x8BE0079C531659141344CD1FD0A4F28419497F9722A3DAAFE3B4186F6B6457E0 PUSH1 0x0 DUP1 LOG3 EXTCODESIZE ISZERO PUSH2 0xB2 JUMPI POP PUSH1 0x1 SLOAD AND OR PUSH1 0x1 SSTORE PUSH1 0x40 MLOAD PUSH2 0x4B8 SWAP1 DUP2 PUSH2 0x136 DUP3 CODECOPY RETURN JUMPDEST PUSH3 0x461BCD PUSH1 0xE5 SHL DUP2 MSTORE PUSH1 0x20 PUSH1 0x4 DUP3 ADD MSTORE PUSH1 0x33 PUSH1 0x24 DUP3 ADD MSTORE PUSH32 0x5570677261646561626C65426561636F6E3A20696D706C656D656E746174696F PUSH1 0x44 DUP3 ADD MSTORE PUSH32 0x6E206973206E6F74206120636F6E747261637400000000000000000000000000 PUSH1 0x64 DUP3 ADD MSTORE PUSH1 0x84 SWAP1 REVERT JUMPDEST PUSH1 0x0 DUP1 REVERT JUMPDEST PUSH4 0x4E487B71 PUSH1 0xE0 SHL PUSH1 0x0 MSTORE PUSH1 0x41 PUSH1 0x4 MSTORE PUSH1 0x24 PUSH1 0x0 REVERT INVALID PUSH1 0x80 PUSH1 0x40 MSTORE PUSH1 0x4 CALLDATASIZE LT ISZERO PUSH2 0x12 JUMPI PUSH1 0x0 DUP1 REVERT JUMPDEST PUSH1 0x0 DUP1 CALLDATALOAD PUSH1 0xE0 SHR DUP1 PUSH4 0x3659CFE6 EQ PUSH2 0x2CE JUMPI DUP1 PUSH4 0x5C60DA1B EQ PUSH2 0x27C JUMPI DUP1 PUSH4 0x715018A6 EQ PUSH2 0x1E0 JUMPI DUP1 PUSH4 0x8DA5CB5B EQ PUSH2 0x18F JUMPI PUSH4 0xF2FDE38B EQ PUSH2 0x54 JUMPI PUSH1 0x0 DUP1 REVERT JUMPDEST CALLVALUE PUSH2 0x18C JUMPI PUSH1 0x20 PUSH32 0xFFFFFFFFFFFFFFFFFFFFFFFFFFFFFFFFFFFFFFFFFFFFFFFFFFFFFFFFFFFFFFFC CALLDATASIZE ADD SLT PUSH2 0x18C JUMPI PUSH1 0x4 CALLDATALOAD PUSH20 0xFFFFFFFFFFFFFFFFFFFFFFFFFFFFFFFFFFFFFFFF DUP1 DUP3 AND DUP1 SWAP3 SUB PUSH2 0x188 JUMPI PUSH2 0xAD PUSH2 0x403 JUMP JUMPDEST DUP2 ISZERO PUSH2 0x104 JUMPI DUP3 SLOAD DUP3 PUSH32 0xFFFFFFFFFFFFFFFFFFFFFFFF0000000000000000000000000000000000000000 DUP3 AND OR DUP5 SSTORE AND PUSH32 0x8BE0079C531659141344CD1FD0A4F28419497F9722A3DAAFE3B4186F6B6457E0 DUP4 DUP1 LOG3 DUP1 RETURN JUMPDEST PUSH1 0x84 PUSH1 0x40 MLOAD PUSH32 0x8C379A000000000000000000000000000000000000000000000000000000000 DUP2 MSTORE PUSH1 0x20 PUSH1 0x4 DUP3 ADD MSTORE PUSH1 0x26 PUSH1 0x24 DUP3 ADD MSTORE PUSH32 0x4F776E61626C653A206E6577206F776E657220697320746865207A65726F2061 PUSH1 0x44 DUP3 ADD MSTORE PUSH32 0x6464726573730000000000000000000000000000000000000000000000000000 PUSH1 0x64 DUP3 ADD MSTORE REVERT JUMPDEST DUP3 DUP1 REVERT JUMPDEST DUP1 REVERT JUMPDEST POP CALLVALUE PUSH2 0x18C JUMPI DUP1 PUSH32 0xFFFFFFFFFFFFFFFFFFFFFFFFFFFFFFFFFFFFFFFFFFFFFFFFFFFFFFFFFFFFFFFC CALLDATASIZE ADD SLT PUSH2 0x18C JUMPI PUSH20 0xFFFFFFFFFFFFFFFFFFFFFFFFFFFFFFFFFFFFFFFF PUSH1 0x20 SWAP2 SLOAD AND PUSH1 0x40 MLOAD SWAP1 DUP2 MSTORE RETURN JUMPDEST POP CALLVALUE PUSH2 0x18C JUMPI DUP1 PUSH32 0xFFFFFFFFFFFFFFFFFFFFFFFFFFFFFFFFFFFFFFFFFFFFFFFFFFFFFFFFFFFFFFFC CALLDATASIZE ADD SLT PUSH2 0x18C JUMPI PUSH2 0x217 PUSH2 0x403 JUMP JUMPDEST DUP1 PUSH20 0xFFFFFFFFFFFFFFFFFFFFFFFFFFFFFFFFFFFFFFFF DUP2 SLOAD PUSH32 0xFFFFFFFFFFFFFFFFFFFFFFFF0000000000000000000000000000000000000000 DUP2 AND DUP4 SSTORE AND PUSH32 0x8BE0079C531659141344CD1FD0A4F28419497F9722A3DAAFE3B4186F6B6457E0 DUP3 DUP1 LOG3 DUP1 RETURN JUMPDEST POP CALLVALUE PUSH2 0x18C JUMPI DUP1 PUSH32 0xFFFFFFFFFFFFFFFFFFFFFFFFFFFFFFFFFFFFFFFFFFFFFFFFFFFFFFFFFFFFFFFC CALLDATASIZE ADD SLT PUSH2 0x18C JUMPI PUSH1 0x20 PUSH20 0xFFFFFFFFFFFFFFFFFFFFFFFFFFFFFFFFFFFFFFFF PUSH1 0x1 SLOAD AND PUSH1 0x40 MLOAD SWAP1 DUP2 MSTORE RETURN JUMPDEST POP CALLVALUE PUSH2 0x18C JUMPI PUSH1 0x20 PUSH32 0xFFFFFFFFFFFFFFFFFFFFFFFFFFFFFFFFFFFFFFFFFFFFFFFFFFFFFFFFFFFFFFFC CALLDATASIZE ADD SLT PUSH2 0x18C JUMPI PUSH1 0x4 CALLDATALOAD PUSH20 0xFFFFFFFFFFFFFFFFFFFFFFFFFFFFFFFFFFFFFFFF DUP2 AND SWAP1 DUP2 DUP2 SUB PUSH2 0x188 JUMPI PUSH2 0x328 PUSH2 0x403 JUMP JUMPDEST EXTCODESIZE ISZERO PUSH2 0x37F JUMPI DUP1 PUSH32 0xFFFFFFFFFFFFFFFFFFFFFFFF0000000000000000000000000000000000000000 PUSH1 0x1 SLOAD AND OR PUSH1 0x1 SSTORE PUSH32 0xBC7CD75A20EE27FD9ADEBAB32041F755214DBC6BFFA90CC0225B39DA2E5C2D3B DUP3 DUP1 LOG2 DUP1 RETURN JUMPDEST PUSH1 0x84 PUSH1 0x40 MLOAD PUSH32 0x8C379A000000000000000000000000000000000000000000000000000000000 DUP2 MSTORE PUSH1 0x20 PUSH1 0x4 DUP3 ADD MSTORE PUSH1 0x33 PUSH1 0x24 DUP3 ADD MSTORE PUSH32 0x5570677261646561626C65426561636F6E3A20696D706C656D656E746174696F PUSH1 0x44 DUP3 ADD MSTORE PUSH32 0x6E206973206E6F74206120636F6E747261637400000000000000000000000000 PUSH1 0x64 DUP3 ADD MSTORE REVERT JUMPDEST PUSH20 0xFFFFFFFFFFFFFFFFFFFFFFFFFFFFFFFFFFFFFFFF PUSH1 0x0 SLOAD AND CALLER SUB PUSH2 0x424 JUMPI JUMP JUMPDEST PUSH1 0x64 PUSH1 0x40 MLOAD PUSH32 0x8C379A000000000000000000000000000000000000000000000000000000000 DUP2 MSTORE PUSH1 0x20 PUSH1 0x4 DUP3 ADD MSTORE PUSH1 0x20 PUSH1 0x24 DUP3 ADD MSTORE PUSH32 0x4F776E61626C653A2063616C6C6572206973206E6F7420746865206F776E6572 PUSH1 0x44 DUP3 ADD MSTORE REVERT INVALID LOG2 PUSH5 0x6970667358 0x22 SLT KECCAK256 0xC5 SELFBALANCE SHL 0x22 SGT 0x2C 0xD1 JUMPDEST SWAP3 DUP13 0x4C 0x1E RETURNDATACOPY 0xEC 0xF6 0xA6 CALLDATASIZE PUSH19 0x1AED3C412C5D6EA7E25407ED048464736F6C63 NUMBER STOP ADDMOD SGT STOP CALLER PUSH1 0x80 DUP1 PUSH1 0x40 MSTORE CALLVALUE PUSH2 0x5B JUMPI PUSH1 0x0 DUP1 SLOAD CALLER PUSH1 0x1 PUSH1 0x1 PUSH1 0xA0 SHL SUB NOT DUP3 AND DUP2 OR DUP4 SSTORE SWAP2 PUSH1 0x1 PUSH1 0x1 PUSH1 0xA0 SHL SUB SWAP1 SWAP2 AND SWAP1 PUSH32 0x8BE0079C531659141344CD1FD0A4F28419497F9722A3DAAFE3B4186F6B6457E0 SWAP1 DUP1 LOG3 PUSH2 0x149E SWAP1 DUP2 PUSH2 0x61 DUP3 CODECOPY RETURN JUMPDEST PUSH1 0x0 DUP1 REVERT INVALID PUSH1 0x80 PUSH1 0x40 DUP2 DUP2 MSTORE PUSH1 0x4 DUP1 CALLDATASIZE LT ISZERO PUSH2 0x15 JUMPI PUSH1 0x0 DUP1 REVERT JUMPDEST PUSH1 0x0 SWAP3 DUP4 CALLDATALOAD PUSH1 0xE0 SHR SWAP1 DUP2 PUSH4 0x1FFC9A7 EQ PUSH2 0x9CD JUMPI POP DUP1 PUSH4 0xE6FE11F EQ PUSH2 0x98E JUMPI DUP1 PUSH4 0x238AC933 EQ PUSH2 0x959 JUMPI DUP1 PUSH4 0x3A63B803 EQ PUSH2 0x92D JUMPI DUP1 PUSH4 0x485CC955 EQ PUSH2 0x847 JUMPI DUP1 PUSH4 0x579A97E6 EQ PUSH2 0x82B JUMPI DUP1 PUSH4 0x715018A6 EQ PUSH2 0x7AD JUMPI DUP1 PUSH4 0x7B8BDC8E EQ PUSH2 0x788 JUMPI DUP1 PUSH4 0x8DA5CB5B EQ PUSH2 0x755 JUMPI DUP1 PUSH4 0x98C3065F EQ PUSH2 0x709 JUMPI DUP1 PUSH4 0xA7ECD37E EQ PUSH2 0x6A2 JUMPI DUP1 PUSH4 0xB2238700 EQ PUSH2 0x651 JUMPI DUP1 PUSH4 0xDECFB3B2 EQ PUSH2 0x18F JUMPI PUSH4 0xF2FDE38B EQ PUSH2 0xBD JUMPI PUSH1 0x0 DUP1 REVERT JUMPDEST CALLVALUE PUSH2 0x18B JUMPI PUSH1 0x20 PUSH1 0x3 NOT CALLDATASIZE ADD SLT PUSH2 0x18B JUMPI PUSH2 0xD6 PUSH2 0xA7C JUMP JUMPDEST SWAP2 PUSH2 0xDF PUSH2 0xB88 JUMP JUMPDEST PUSH20 0xFFFFFFFFFFFFFFFFFFFFFFFFFFFFFFFFFFFFFFFF DUP4 AND ISZERO PUSH2 0x108 JUMPI DUP4 PUSH2 0x105 DUP5 PUSH2 0xC07 JUMP JUMPDEST DUP1 RETURN JUMPDEST SWAP1 PUSH1 0x20 PUSH1 0x84 SWAP3 MLOAD SWAP2 PUSH32 0x8C379A000000000000000000000000000000000000000000000000000000000 DUP4 MSTORE DUP3 ADD MSTORE PUSH1 0x26 PUSH1 0x24 DUP3 ADD MSTORE PUSH32 0x4F776E61626C653A206E6577206F776E657220697320746865207A65726F2061 PUSH1 0x44 DUP3 ADD MSTORE PUSH32 0x6464726573730000000000000000000000000000000000000000000000000000 PUSH1 0x64 DUP3 ADD MSTORE REVERT JUMPDEST DUP3 DUP1 REVERT JUMPDEST POP SWAP1 PUSH2 0x19A CALLDATASIZE PUSH2 0xB3F JUMP JUMPDEST DUP3 SWAP4 SWAP2 SWAP5 SWAP3 CALLDATALOAD SWAP3 DUP4 DUP8 MSTORE PUSH1 0x2 SWAP2 PUSH1 0x20 SWAP7 DUP4 DUP9 MSTORE PUSH1 0xFF DUP6 DUP11 KECCAK256 SLOAD AND PUSH2 0x629 JUMPI SWAP1 PUSH2 0x1C3 SWAP2 DUP8 PUSH2 0xDC1 JUMP JUMPDEST ISZERO PUSH2 0x602 JUMPI PUSH8 0xFFFFFFFFFFFFFFFF PUSH2 0x1DD PUSH1 0xC0 DUP8 ADD PUSH2 0xC74 JUMP JUMPDEST AND TIMESTAMP GT PUSH2 0x5DB JUMPI DUP4 DUP8 MSTORE DUP2 DUP7 MSTORE DUP3 DUP8 KECCAK256 SWAP2 PUSH1 0x1 SWAP3 DUP4 PUSH32 0xFFFFFFFFFFFFFFFFFFFFFFFFFFFFFFFFFFFFFFFFFFFFFFFFFFFFFFFFFFFFFF00 DUP3 SLOAD AND OR SWAP1 SSTORE DUP3 DUP9 SWAP1 JUMPDEST PUSH2 0x2CA JUMPI JUMPDEST POP POP POP POP PUSH2 0x231 DUP5 DUP5 ADD PUSH2 0xCDD JUMP JUMPDEST SWAP4 PUSH32 0xBFF0538A548E4EA8A217734A505CE9D9375306F438DB1247603684E165834DB8 PUSH2 0x28E PUSH2 0x263 PUSH1 0xE0 DUP8 ADD DUP8 PUSH2 0xCFE JUMP JUMPDEST SWAP5 MLOAD SWAP2 DUP3 SWAP2 DUP6 DUP4 MSTORE PUSH20 0xFFFFFFFFFFFFFFFFFFFFFFFFFFFFFFFFFFFFFFFF DUP1 SWAP11 AND SWAP7 CALLER SWAP7 DUP5 ADD SWAP2 PUSH2 0xD4F JUMP JUMPDEST SUB SWAP1 LOG4 PUSH2 0x100 DUP2 ADD SWAP2 PUSH2 0x2A9 PUSH2 0x2A4 DUP5 DUP5 PUSH2 0xD8E JUMP JUMPDEST PUSH2 0xCDD JUMP JUMPDEST AND PUSH2 0x2B2 JUMPI DUP3 DUP1 RETURN JUMPDEST PUSH2 0x2C4 SWAP2 PUSH2 0x2BF SWAP2 PUSH2 0xD8E JUMP JUMPDEST PUSH2 0x10E2 JUMP JUMPDEST CODESIZE DUP1 DUP3 DUP1 RETURN JUMPDEST PUSH1 0xA0 DUP1 DUP9 ADD PUSH2 0x2D9 DUP2 DUP11 PUSH2 0xC89 JUMP JUMPDEST SWAP1 POP DUP4 LT ISZERO PUSH2 0x5D4 JUMPI PUSH2 0x2EC SWAP1 DUP10 PUSH2 0xC89 JUMP JUMPDEST DUP4 LT ISZERO PUSH2 0x5A8 JUMPI DUP11 SWAP1 DUP4 PUSH1 0x6 SHL ADD DUP8 DUP11 ADD CALLDATALOAD SWAP3 PUSH1 0x3 DUP5 LT ISZERO PUSH2 0x18B JUMPI DUP12 SWAP4 DUP12 SWAP3 DUP10 PUSH1 0x60 PUSH2 0x31A DUP2 DUP8 ADD PUSH2 0xCDD JUMP JUMPDEST SWAP8 PUSH1 0x80 PUSH2 0x326 DUP6 PUSH2 0xCDD JUMP JUMPDEST SWAP8 ADD CALLDATALOAD SWAP4 ADD CALLDATALOAD SWAP4 DUP11 DUP2 EQ PUSH1 0x0 EQ PUSH2 0x431 JUMPI POP POP POP PUSH20 0xFFFFFFFFFFFFFFFFFFFFFFFFFFFFFFFFFFFFFFFF DUP1 SWAP7 AND DUP1 EXTCODESIZE ISZERO PUSH2 0x42D JUMPI PUSH1 0xC4 SWAP4 DUP11 SWAP4 DUP8 SWAP4 DUP15 MLOAD SWAP10 DUP11 SWAP9 DUP10 SWAP8 PUSH32 0xF242432A00000000000000000000000000000000000000000000000000000000 DUP10 MSTORE CALLER SWAP1 DUP10 ADD MSTORE AND PUSH1 0x24 DUP8 ADD MSTORE PUSH1 0x44 DUP7 ADD MSTORE PUSH1 0x64 DUP6 ADD MSTORE PUSH1 0x84 DUP5 ADD MSTORE DUP2 PUSH1 0xA4 DUP5 ADD MSTORE GAS CALL DUP1 ISZERO PUSH2 0x423 JUMPI PUSH2 0x414 JUMPI JUMPDEST POP JUMPDEST PUSH32 0xFFFFFFFFFFFFFFFFFFFFFFFFFFFFFFFFFFFFFFFFFFFFFFFFFFFFFFFFFFFFFFFF DUP2 EQ PUSH2 0x3E8 JUMPI DUP4 ADD DUP4 PUSH2 0x21D JUMP JUMPDEST PUSH1 0x24 DUP10 PUSH1 0x11 DUP6 PUSH32 0x4E487B7100000000000000000000000000000000000000000000000000000000 DUP4 MSTORE MSTORE REVERT JUMPDEST PUSH2 0x41D SWAP1 PUSH2 0xDF4 JUMP JUMPDEST CODESIZE PUSH2 0x3B7 JUMP JUMPDEST DUP7 MLOAD RETURNDATASIZE DUP13 DUP3 RETURNDATACOPY RETURNDATASIZE SWAP1 REVERT JUMPDEST DUP6 DUP1 REVERT JUMPDEST SWAP3 SWAP8 SWAP7 POP SWAP1 SWAP4 POP SWAP1 DUP1 DUP5 SUB PUSH2 0x4F6 JUMPI POP POP GT PUSH2 0x4CE JUMPI SWAP1 DUP12 SWAP2 PUSH20 0xFFFFFFFFFFFFFFFFFFFFFFFFFFFFFFFFFFFFFFFF DUP1 SWAP3 AND SWAP1 DUP2 EXTCODESIZE ISZERO PUSH2 0x4CA JUMPI DUP4 PUSH1 0x64 SWAP3 DUP12 MLOAD SWAP7 DUP8 SWAP6 DUP7 SWAP5 PUSH32 0x42842E0E00000000000000000000000000000000000000000000000000000000 DUP7 MSTORE CALLER DUP14 DUP8 ADD MSTORE AND PUSH1 0x24 DUP6 ADD MSTORE PUSH1 0x44 DUP5 ADD MSTORE GAS CALL DUP1 ISZERO PUSH2 0x423 JUMPI PUSH2 0x4BB JUMPI JUMPDEST POP PUSH2 0x3B9 JUMP JUMPDEST PUSH2 0x4C4 SWAP1 PUSH2 0xDF4 JUMP JUMPDEST CODESIZE PUSH2 0x4B5 JUMP JUMPDEST DUP4 DUP1 REVERT JUMPDEST DUP6 DUP9 MLOAD PUSH32 0x289AEF6900000000000000000000000000000000000000000000000000000000 DUP2 MSTORE REVERT JUMPDEST SWAP2 SWAP6 SWAP1 SWAP5 SWAP4 SWAP3 POP SWAP1 PUSH2 0x580 JUMPI PUSH2 0x558 JUMPI DUP13 PUSH1 0x64 DUP2 SWAP4 DUP15 SWAP4 DUP13 MLOAD SWAP8 DUP8 MSTORE DUP13 MSTORE CALLER DUP7 SHL PUSH1 0x2C MSTORE PUSH16 0x23B872DD000000000000000000000000 PUSH1 0xC MSTORE PUSH1 0x1C SWAP5 DUP6 SWAP2 GAS CALL DUP13 MLOAD DUP9 EQ RETURNDATASIZE ISZERO OR AND ISZERO PUSH2 0x54D JUMPI POP DUP11 SWAP1 MSTORE DUP6 MSTORE PUSH2 0x3B9 JUMP JUMPDEST DUP6 SWAP1 PUSH4 0x7939F424 DUP14 MSTORE REVERT JUMPDEST DUP7 DUP10 MLOAD PUSH32 0x289AEF6900000000000000000000000000000000000000000000000000000000 DUP2 MSTORE REVERT JUMPDEST DUP8 DUP11 MLOAD PUSH32 0x289AEF6900000000000000000000000000000000000000000000000000000000 DUP2 MSTORE REVERT JUMPDEST PUSH1 0x24 DUP12 PUSH1 0x32 DUP8 PUSH32 0x4E487B7100000000000000000000000000000000000000000000000000000000 DUP4 MSTORE MSTORE REVERT JUMPDEST POP POP PUSH2 0x222 JUMP JUMPDEST DUP3 MLOAD PUSH32 0x664B28B000000000000000000000000000000000000000000000000000000000 DUP2 MSTORE REVERT JUMPDEST DUP3 MLOAD PUSH32 0x8BAA579F00000000000000000000000000000000000000000000000000000000 DUP2 MSTORE REVERT JUMPDEST DUP3 DUP6 MLOAD PUSH32 0xB383FF0300000000000000000000000000000000000000000000000000000000 DUP2 MSTORE REVERT JUMPDEST POP CALLVALUE PUSH2 0x18B JUMPI PUSH2 0x66D SWAP2 PUSH2 0x664 CALLDATASIZE PUSH2 0xAF3 JUMP JUMPDEST SWAP1 DUP3 SWAP6 SWAP3 PUSH2 0x104D JUMP JUMPDEST ISZERO PUSH2 0x67C JUMPI DUP4 PUSH2 0x105 DUP5 PUSH2 0x10E2 JUMP JUMPDEST MLOAD PUSH32 0x8BAA579F00000000000000000000000000000000000000000000000000000000 DUP2 MSTORE REVERT JUMPDEST DUP4 CALLVALUE PUSH2 0x706 JUMPI PUSH1 0x20 PUSH1 0x3 NOT CALLDATASIZE ADD SLT PUSH2 0x706 JUMPI PUSH20 0xFFFFFFFFFFFFFFFFFFFFFFFFFFFFFFFFFFFFFFFF PUSH2 0x6D1 PUSH2 0xA7C JUMP JUMPDEST PUSH2 0x6D9 PUSH2 0xB88 JUMP JUMPDEST AND PUSH32 0xFFFFFFFFFFFFFFFFFFFFFFFF0000000000000000000000000000000000000000 PUSH1 0x1 SLOAD AND OR PUSH1 0x1 SSTORE DUP1 RETURN JUMPDEST DUP1 REVERT JUMPDEST POP CALLVALUE PUSH2 0x18B JUMPI PUSH1 0x3 NOT SWAP3 PUSH1 0x20 DUP5 CALLDATASIZE ADD SLT PUSH2 0x706 JUMPI DUP2 CALLDATALOAD SWAP4 PUSH8 0xFFFFFFFFFFFFFFFF DUP6 GT PUSH2 0x751 JUMPI PUSH2 0x120 SWAP1 DUP6 CALLDATASIZE SUB ADD SLT PUSH2 0x706 JUMPI POP PUSH1 0x20 SWAP3 PUSH2 0x74A SWAP2 ADD PUSH2 0xE78 JUMP JUMPDEST SWAP1 MLOAD SWAP1 DUP2 MSTORE RETURN JUMPDEST POP DUP1 REVERT JUMPDEST POP POP CALLVALUE PUSH2 0x751 JUMPI DUP2 PUSH1 0x3 NOT CALLDATASIZE ADD SLT PUSH2 0x751 JUMPI PUSH20 0xFFFFFFFFFFFFFFFFFFFFFFFFFFFFFFFFFFFFFFFF PUSH1 0x20 SWAP3 SLOAD AND SWAP1 MLOAD SWAP1 DUP2 MSTORE RETURN JUMPDEST POP POP CALLVALUE PUSH2 0x751 JUMPI PUSH1 0x20 SWAP1 PUSH2 0x7A4 PUSH2 0x79E CALLDATASIZE PUSH2 0xB3F JUMP JUMPDEST SWAP2 PUSH2 0xDC1 JUMP JUMPDEST SWAP1 MLOAD SWAP1 ISZERO ISZERO DUP2 MSTORE RETURN JUMPDEST DUP4 CALLVALUE PUSH2 0x706 JUMPI DUP1 PUSH1 0x3 NOT CALLDATASIZE ADD SLT PUSH2 0x706 JUMPI PUSH2 0x7C6 PUSH2 0xB88 JUMP JUMPDEST DUP1 PUSH20 0xFFFFFFFFFFFFFFFFFFFFFFFFFFFFFFFFFFFFFFFF DUP2 SLOAD PUSH32 0xFFFFFFFFFFFFFFFFFFFFFFFF0000000000000000000000000000000000000000 DUP2 AND DUP4 SSTORE AND PUSH32 0x8BE0079C531659141344CD1FD0A4F28419497F9722A3DAAFE3B4186F6B6457E0 DUP3 DUP1 LOG3 DUP1 RETURN JUMPDEST POP POP CALLVALUE PUSH2 0x751 JUMPI PUSH1 0x20 SWAP1 PUSH2 0x7A4 PUSH2 0x841 CALLDATASIZE PUSH2 0xAF3 JUMP JUMPDEST SWAP2 PUSH2 0x104D JUMP JUMPDEST POP CALLVALUE PUSH2 0x18B JUMPI DUP2 PUSH1 0x3 NOT CALLDATASIZE ADD SLT PUSH2 0x18B JUMPI PUSH2 0x860 PUSH2 0xA7C JUMP JUMPDEST SWAP1 PUSH1 0x24 CALLDATALOAD SWAP3 PUSH20 0xFFFFFFFFFFFFFFFFFFFFFFFFFFFFFFFFFFFFFFFF DUP5 AND DUP1 SWAP5 SUB PUSH2 0x929 JUMPI PUSH1 0xFF DUP6 SLOAD PUSH1 0xA0 SHR AND PUSH2 0x903 JUMPI POP POP PUSH2 0x89A SWAP1 PUSH2 0xC07 JUMP JUMPDEST PUSH32 0xFFFFFFFFFFFFFFFFFFFFFFFF0000000000000000000000000000000000000000 PUSH1 0x1 SLOAD AND OR PUSH1 0x1 SSTORE PUSH21 0x10000000000000000000000000000000000000000 PUSH32 0xFFFFFFFFFFFFFFFFFFFFFF00FFFFFFFFFFFFFFFFFFFFFFFFFFFFFFFFFFFFFFFF DUP3 SLOAD AND OR DUP2 SSTORE DUP1 RETURN JUMPDEST MLOAD PUSH32 0xF92EE8A900000000000000000000000000000000000000000000000000000000 DUP2 MSTORE REVERT JUMPDEST DUP5 DUP1 REVERT JUMPDEST POP CALLVALUE PUSH2 0x18B JUMPI PUSH1 0x20 PUSH1 0x3 NOT CALLDATASIZE ADD SLT PUSH2 0x18B JUMPI DUP2 PUSH1 0x20 SWAP4 PUSH1 0xFF SWAP3 CALLDATALOAD DUP2 MSTORE PUSH1 0x2 DUP6 MSTORE KECCAK256 SLOAD AND SWAP1 MLOAD SWAP1 ISZERO ISZERO DUP2 MSTORE RETURN JUMPDEST POP POP CALLVALUE PUSH2 0x751 JUMPI DUP2 PUSH1 0x3 NOT CALLDATASIZE ADD SLT PUSH2 0x751 JUMPI PUSH1 0x20 SWAP1 PUSH20 0xFFFFFFFFFFFFFFFFFFFFFFFFFFFFFFFFFFFFFFFF PUSH1 0x1 SLOAD AND SWAP1 MLOAD SWAP1 DUP2 MSTORE RETURN JUMPDEST POP CALLVALUE PUSH2 0x18B JUMPI PUSH1 0x3 NOT SWAP3 PUSH1 0x20 DUP5 CALLDATASIZE ADD SLT PUSH2 0x706 JUMPI DUP2 CALLDATALOAD SWAP4 PUSH8 0xFFFFFFFFFFFFFFFF DUP6 GT PUSH2 0x751 JUMPI DUP4 SWAP1 DUP6 CALLDATASIZE SUB ADD SLT PUSH2 0x706 JUMPI POP PUSH1 0x20 SWAP3 PUSH2 0x74A SWAP2 ADD PUSH2 0x1057 JUMP JUMPDEST SWAP3 POP POP CALLVALUE PUSH2 0x18B JUMPI PUSH1 0x20 PUSH1 0x3 NOT CALLDATASIZE ADD SLT PUSH2 0x18B JUMPI CALLDATALOAD PUSH32 0xFFFFFFFF00000000000000000000000000000000000000000000000000000000 DUP2 AND DUP1 SWAP2 SUB PUSH2 0x18B JUMPI PUSH1 0x20 SWAP3 POP DUP1 ISZERO SWAP1 DUP2 ISZERO PUSH2 0xA52 JUMPI JUMPDEST DUP2 ISZERO PUSH2 0xA28 JUMPI JUMPDEST POP ISZERO ISZERO DUP2 MSTORE RETURN JUMPDEST PUSH32 0x1FFC9A700000000000000000000000000000000000000000000000000000000 SWAP2 POP EQ CODESIZE PUSH2 0xA21 JUMP JUMPDEST PUSH32 0xCFB8E9AA00000000000000000000000000000000000000000000000000000000 DUP2 EQ SWAP2 POP PUSH2 0xA1A JUMP JUMPDEST PUSH1 0x4 CALLDATALOAD SWAP1 PUSH20 0xFFFFFFFFFFFFFFFFFFFFFFFFFFFFFFFFFFFFFFFF DUP3 AND DUP3 SUB PUSH2 0xA9F JUMPI JUMP JUMPDEST PUSH1 0x0 DUP1 REVERT JUMPDEST CALLDATALOAD SWAP1 PUSH20 0xFFFFFFFFFFFFFFFFFFFFFFFFFFFFFFFFFFFFFFFF DUP3 AND DUP3 SUB PUSH2 0xA9F JUMPI JUMP JUMPDEST SWAP2 DUP2 PUSH1 0x1F DUP5 ADD SLT ISZERO PUSH2 0xA9F JUMPI DUP3 CALLDATALOAD SWAP2 PUSH8 0xFFFFFFFFFFFFFFFF DUP4 GT PUSH2 0xA9F JUMPI PUSH1 0x20 DUP4 DUP2 DUP7 ADD SWAP6 ADD ADD GT PUSH2 0xA9F JUMPI JUMP JUMPDEST SWAP1 PUSH1 0x3 NOT PUSH1 0x40 DUP2 DUP5 ADD SLT PUSH2 0xA9F JUMPI PUSH1 0x4 CALLDATALOAD PUSH8 0xFFFFFFFFFFFFFFFF SWAP2 DUP3 DUP3 GT PUSH2 0xA9F JUMPI PUSH1 0x40 SWAP1 DUP3 DUP7 SUB ADD SLT PUSH2 0xA9F JUMPI PUSH1 0x4 ADD SWAP3 PUSH1 0x24 CALLDATALOAD SWAP2 DUP3 GT PUSH2 0xA9F JUMPI PUSH2 0xB3B SWAP2 PUSH1 0x4 ADD PUSH2 0xAC5 JUMP JUMPDEST SWAP1 SWAP2 JUMP JUMPDEST SWAP1 PUSH1 0x3 NOT PUSH1 0x40 DUP2 DUP5 ADD SLT PUSH2 0xA9F JUMPI PUSH1 0x4 CALLDATALOAD PUSH8 0xFFFFFFFFFFFFFFFF SWAP2 DUP3 DUP3 GT PUSH2 0xA9F JUMPI PUSH2 0x120 SWAP1 DUP3 DUP7 SUB ADD SLT PUSH2 0xA9F JUMPI PUSH1 0x4 ADD SWAP3 PUSH1 0x24 CALLDATALOAD SWAP2 DUP3 GT PUSH2 0xA9F JUMPI PUSH2 0xB3B SWAP2 PUSH1 0x4 ADD PUSH2 0xAC5 JUMP JUMPDEST PUSH20 0xFFFFFFFFFFFFFFFFFFFFFFFFFFFFFFFFFFFFFFFF PUSH1 0x0 SLOAD AND CALLER SUB PUSH2 0xBA9 JUMPI JUMP JUMPDEST PUSH1 0x64 PUSH1 0x40 MLOAD PUSH32 0x8C379A000000000000000000000000000000000000000000000000000000000 DUP2 MSTORE PUSH1 0x20 PUSH1 0x4 DUP3 ADD MSTORE PUSH1 0x20 PUSH1 0x24 DUP3 ADD MSTORE PUSH32 0x4F776E61626C653A2063616C6C6572206973206E6F7420746865206F776E6572 PUSH1 0x44 DUP3 ADD MSTORE REVERT JUMPDEST PUSH1 0x0 SLOAD SWAP1 PUSH20 0xFFFFFFFFFFFFFFFFFFFFFFFFFFFFFFFFFFFFFFFF DUP1 SWAP2 AND SWAP2 DUP3 PUSH32 0xFFFFFFFFFFFFFFFFFFFFFFFF0000000000000000000000000000000000000000 DUP3 AND OR PUSH1 0x0 SSTORE AND PUSH32 0x8BE0079C531659141344CD1FD0A4F28419497F9722A3DAAFE3B4186F6B6457E0 PUSH1 0x0 DUP1 LOG3 JUMP JUMPDEST CALLDATALOAD PUSH8 0xFFFFFFFFFFFFFFFF DUP2 AND DUP2 SUB PUSH2 0xA9F JUMPI SWAP1 JUMP JUMPDEST SWAP1 CALLDATALOAD SWAP1 PUSH32 0xFFFFFFFFFFFFFFFFFFFFFFFFFFFFFFFFFFFFFFFFFFFFFFFFFFFFFFFFFFFFFFE1 DUP2 CALLDATASIZE SUB ADD DUP3 SLT ISZERO PUSH2 0xA9F JUMPI ADD DUP1 CALLDATALOAD SWAP1 PUSH8 0xFFFFFFFFFFFFFFFF DUP3 GT PUSH2 0xA9F JUMPI PUSH1 0x20 ADD SWAP2 DUP2 PUSH1 0x6 SHL CALLDATASIZE SUB DUP4 SGT PUSH2 0xA9F JUMPI JUMP JUMPDEST CALLDATALOAD PUSH20 0xFFFFFFFFFFFFFFFFFFFFFFFFFFFFFFFFFFFFFFFF DUP2 AND DUP2 SUB PUSH2 0xA9F JUMPI SWAP1 JUMP JUMPDEST SWAP1 CALLDATALOAD SWAP1 PUSH32 0xFFFFFFFFFFFFFFFFFFFFFFFFFFFFFFFFFFFFFFFFFFFFFFFFFFFFFFFFFFFFFFE1 DUP2 CALLDATASIZE SUB ADD DUP3 SLT ISZERO PUSH2 0xA9F JUMPI ADD DUP1 CALLDATALOAD SWAP1 PUSH8 0xFFFFFFFFFFFFFFFF DUP3 GT PUSH2 0xA9F JUMPI PUSH1 0x20 ADD SWAP2 DUP2 CALLDATASIZE SUB DUP4 SGT PUSH2 0xA9F JUMPI JUMP JUMPDEST PUSH1 0x1F DUP3 PUSH1 0x20 SWAP5 SWAP4 PUSH32 0xFFFFFFFFFFFFFFFFFFFFFFFFFFFFFFFFFFFFFFFFFFFFFFFFFFFFFFFFFFFFFFE0 SWAP4 DUP2 DUP7 MSTORE DUP7 DUP7 ADD CALLDATACOPY PUSH1 0x0 DUP6 DUP3 DUP7 ADD ADD MSTORE ADD AND ADD ADD SWAP1 JUMP JUMPDEST SWAP1 CALLDATALOAD SWAP1 PUSH32 0xFFFFFFFFFFFFFFFFFFFFFFFFFFFFFFFFFFFFFFFFFFFFFFFFFFFFFFFFFFFFFFC1 DUP2 CALLDATASIZE SUB ADD DUP3 SLT ISZERO PUSH2 0xA9F JUMPI ADD SWAP1 JUMP JUMPDEST SWAP1 PUSH2 0xDCF PUSH2 0xDD4 SWAP4 SWAP3 PUSH2 0xE78 JUMP JUMPDEST PUSH2 0x11D0 JUMP JUMPDEST PUSH20 0xFFFFFFFFFFFFFFFFFFFFFFFFFFFFFFFFFFFFFFFF DUP1 PUSH1 0x1 SLOAD AND SWAP2 AND EQ SWAP1 JUMP JUMPDEST PUSH8 0xFFFFFFFFFFFFFFFF DUP2 GT PUSH2 0xE08 JUMPI PUSH1 0x40 MSTORE JUMP JUMPDEST PUSH32 0x4E487B7100000000000000000000000000000000000000000000000000000000 PUSH1 0x0 MSTORE PUSH1 0x41 PUSH1 0x4 MSTORE PUSH1 0x24 PUSH1 0x0 REVERT JUMPDEST SWAP1 PUSH1 0x1F PUSH32 0xFFFFFFFFFFFFFFFFFFFFFFFFFFFFFFFFFFFFFFFFFFFFFFFFFFFFFFFFFFFFFFE0 SWAP2 ADD AND DUP2 ADD SWAP1 DUP2 LT PUSH8 0xFFFFFFFFFFFFFFFF DUP3 GT OR PUSH2 0xE08 JUMPI PUSH1 0x40 MSTORE JUMP JUMPDEST PUSH2 0xE84 PUSH1 0x20 DUP3 ADD PUSH2 0xCDD JUMP JUMPDEST SWAP1 PUSH1 0x40 DUP2 ADD CALLDATALOAD SWAP1 PUSH1 0x3 DUP3 LT ISZERO PUSH2 0xA9F JUMPI SWAP1 PUSH2 0xEA1 PUSH1 0x60 DUP4 ADD PUSH2 0xCDD JUMP JUMPDEST SWAP1 PUSH2 0xEAF PUSH1 0xA0 DUP5 ADD DUP5 PUSH2 0xC89 JUMP JUMPDEST SWAP4 SWAP1 SWAP3 PUSH2 0xEBE PUSH1 0xC0 DUP4 ADD PUSH2 0xC74 JUMP JUMPDEST SWAP5 PUSH2 0xECC PUSH1 0xE0 DUP5 ADD DUP5 PUSH2 0xCFE JUMP JUMPDEST PUSH1 0x80 PUSH2 0xEDF PUSH2 0x100 DUP8 SWAP10 SWAP5 SWAP10 ADD DUP8 PUSH2 0xD8E JUMP JUMPDEST SWAP6 PUSH1 0x40 MLOAD SWAP11 DUP12 SWAP7 PUSH2 0x160 DUP9 ADD SWAP10 CHAINID PUSH1 0x20 DUP11 ADD MSTORE DUP4 CALLDATALOAD PUSH1 0x40 DUP11 ADD MSTORE DUP5 PUSH20 0xFFFFFFFFFFFFFFFFFFFFFFFFFFFFFFFFFFFFFFFF SWAP10 DUP11 DUP1 SWAP6 AND PUSH1 0x60 DUP3 ADD MSTORE ADD MSTORE AND PUSH1 0xA0 DUP13 ADD MSTORE ADD CALLDATALOAD PUSH1 0xC0 DUP11 ADD MSTORE DUP3 PUSH2 0x140 SWAP7 DUP8 PUSH1 0xE0 DUP13 ADD MSTORE MSTORE PUSH2 0x180 DUP10 ADD SWAP2 SWAP3 PUSH1 0x0 JUMPDEST DUP2 DUP2 LT PUSH2 0x101E JUMPI POP POP PUSH2 0xF90 SWAP3 POP PUSH8 0xFFFFFFFFFFFFFFFF DUP1 SWAP9 AND PUSH2 0x100 DUP11 ADD MSTORE PUSH32 0xFFFFFFFFFFFFFFFFFFFFFFFFFFFFFFFFFFFFFFFFFFFFFFFFFFFFFFFFFFFFFFE0 SWAP7 DUP8 DUP11 DUP5 SUB ADD PUSH2 0x120 DUP12 ADD MSTORE PUSH2 0xD4F JUMP JUMPDEST SWAP3 DUP5 DUP8 DUP6 SUB ADD SWAP1 DUP8 ADD MSTORE PUSH2 0xFA3 DUP3 PUSH2 0xAA4 JUMP JUMPDEST AND DUP3 MSTORE PUSH1 0x20 DUP2 ADD CALLDATALOAD PUSH32 0xFFFFFFFFFFFFFFFFFFFFFFFFFFFFFFFFFFFFFFFFFFFFFFFFFFFFFFFFFFFFFFE1 DUP3 CALLDATASIZE SUB ADD DUP2 SLT ISZERO PUSH2 0xA9F JUMPI ADD SWAP1 PUSH1 0x20 DUP3 CALLDATALOAD SWAP3 ADD SWAP4 DUP3 GT PUSH2 0xA9F JUMPI DUP2 CALLDATASIZE SUB DUP5 SGT PUSH2 0xA9F JUMPI PUSH2 0x1014 SWAP4 DUP6 SWAP3 PUSH1 0x40 DUP4 DUP2 PUSH1 0x20 PUSH2 0x1008 SWAP7 ADD MSTORE ADD SWAP2 PUSH2 0xD4F JUMP JUMPDEST SUB SWAP1 DUP2 ADD DUP4 MSTORE DUP3 PUSH2 0xE37 JUMP JUMPDEST PUSH1 0x20 DUP2 MLOAD SWAP2 ADD KECCAK256 SWAP1 JUMP JUMPDEST SWAP1 SWAP2 SWAP3 PUSH1 0x40 DUP1 PUSH1 0x1 SWAP3 DUP9 PUSH2 0x1031 DUP10 PUSH2 0xAA4 JUMP JUMPDEST AND DUP2 MSTORE PUSH1 0x20 DUP9 ADD CALLDATALOAD PUSH1 0x20 DUP3 ADD MSTORE ADD SWAP6 ADD SWAP2 ADD SWAP4 SWAP3 SWAP2 SWAP1 SWAP4 PUSH2 0xF3E JUMP JUMPDEST SWAP1 PUSH2 0xDCF PUSH2 0xDD4 SWAP4 SWAP3 JUMPDEST PUSH2 0x10DC PUSH2 0x1071 PUSH2 0x1066 DUP4 PUSH2 0xCDD JUMP JUMPDEST SWAP3 PUSH1 0x20 DUP2 ADD SWAP1 PUSH2 0xCFE JUMP JUMPDEST PUSH2 0x10B0 PUSH1 0x40 SWAP4 SWAP3 SWAP4 MLOAD SWAP4 DUP5 SWAP3 PUSH20 0xFFFFFFFFFFFFFFFFFFFFFFFFFFFFFFFFFFFFFFFF PUSH1 0x20 DUP6 ADD SWAP8 CHAINID DUP10 MSTORE AND PUSH1 0x40 DUP6 ADD MSTORE PUSH1 0x60 DUP1 DUP6 ADD MSTORE PUSH1 0x80 DUP5 ADD SWAP2 PUSH2 0xD4F JUMP JUMPDEST SUB PUSH32 0xFFFFFFFFFFFFFFFFFFFFFFFFFFFFFFFFFFFFFFFFFFFFFFFFFFFFFFFFFFFFFFE0 DUP2 ADD DUP4 MSTORE DUP3 PUSH2 0xE37 JUMP JUMPDEST MLOAD SWAP1 KECCAK256 SWAP1 JUMP JUMPDEST PUSH2 0x10F9 PUSH2 0x10EE DUP3 PUSH2 0xCDD JUMP JUMPDEST SWAP2 PUSH1 0x20 DUP2 ADD SWAP1 PUSH2 0xCFE JUMP JUMPDEST SWAP2 DUP3 PUSH1 0x40 MLOAD SWAP4 DUP5 SWAP4 DUP5 CALLDATACOPY DUP3 ADD SWAP1 PUSH1 0x0 SWAP4 DUP5 DUP1 SWAP5 DUP5 DUP3 DUP1 SWAP7 MSTORE SUB SWAP3 GAS CALL SWAP1 RETURNDATASIZE ISZERO PUSH2 0x11CA JUMPI RETURNDATASIZE SWAP1 PUSH8 0xFFFFFFFFFFFFFFFF DUP3 GT PUSH2 0x119D JUMPI PUSH1 0x40 MLOAD SWAP2 PUSH2 0x1163 PUSH1 0x20 PUSH32 0xFFFFFFFFFFFFFFFFFFFFFFFFFFFFFFFFFFFFFFFFFFFFFFFFFFFFFFFFFFFFFFE0 PUSH1 0x1F DUP5 ADD AND ADD DUP5 PUSH2 0xE37 JUMP JUMPDEST DUP3 MSTORE PUSH1 0x20 RETURNDATASIZE SWAP3 ADD RETURNDATACOPY JUMPDEST ISZERO PUSH2 0x1173 JUMPI JUMP JUMPDEST PUSH1 0x4 PUSH1 0x40 MLOAD PUSH32 0x7CC2FBB300000000000000000000000000000000000000000000000000000000 DUP2 MSTORE REVERT JUMPDEST DUP1 PUSH32 0x4E487B7100000000000000000000000000000000000000000000000000000000 PUSH1 0x24 SWAP3 MSTORE PUSH1 0x41 PUSH1 0x4 MSTORE REVERT JUMPDEST POP PUSH2 0x116C JUMP JUMPDEST SWAP1 SWAP2 PUSH1 0x0 DUP1 SWAP4 DUP3 ISZERO PUSH2 0x143B JUMPI PUSH1 0x1 SWAP2 DUP2 CALLDATALOAD PUSH1 0xF8 SHR DUP4 DUP2 SUB PUSH2 0x12D8 JUMPI POP POP DUP3 DUP3 GT PUSH2 0x929 JUMPI SWAP1 DUP2 DUP6 PUSH32 0xFFFFFFFFFFFFFFFFFFFFFFFFFFFFFFFFFFFFFFFFFFFFFFFFFFFFFFFFFFFFFFFF DUP4 PUSH1 0x20 SWAP6 ADD SWAP6 ADD DUP4 SWAP1 PUSH1 0x40 SWAP7 DUP8 SWAP2 DUP3 MLOAD SWAP10 DUP6 MSTORE DUP7 DUP4 DUP3 EQ PUSH1 0x41 DUP1 SWAP4 EQ SWAP2 PUSH2 0x1261 JUMPI JUMPDEST POP POP POP POP POP PUSH1 0x80 SWAP3 POP GAS STATICCALL MLOAD SWAP3 RETURNDATASIZE ISZERO PUSH2 0x1254 JUMPI PUSH1 0x60 MSTORE MSTORE SWAP1 JUMP JUMPDEST PUSH4 0x8BAA579F SWAP1 MSTORE PUSH1 0x4 PUSH1 0x1C REVERT JUMPDEST PUSH2 0x1291 JUMPI PUSH2 0x127C JUMPI POP POP POP POP PUSH1 0x80 SWAP2 POP DUP1 DUP6 CODESIZE DUP1 DUP1 DUP1 PUSH2 0x123A JUMP JUMPDEST PUSH1 0x80 SWAP6 ADD CALLDATALOAD DUP5 BYTE DUP8 MSTORE DUP2 CALLDATACOPY DUP6 CODESIZE DUP1 DUP1 DUP1 PUSH2 0x123A JUMP JUMPDEST POP POP PUSH32 0x7FFFFFFFFFFFFFFFFFFFFFFFFFFFFFFFFFFFFFFFFFFFFFFFFFFFFFFFFFFFFFFF SWAP2 POP PUSH1 0x21 PUSH1 0x80 SWAP6 ADD CALLDATALOAD SWAP1 PUSH1 0x1B DUP3 PUSH1 0xFF SHR ADD DUP9 MSTORE CALLDATALOAD DUP9 MSTORE AND PUSH1 0x60 MSTORE DUP6 CODESIZE DUP1 DUP1 DUP1 PUSH2 0x123A JUMP JUMPDEST PUSH1 0x2 SWAP1 SWAP8 SWAP7 SWAP5 SWAP3 SWAP6 SWAP4 SWAP2 SWAP8 EQ DUP1 PUSH2 0x1430 JUMPI JUMPDEST PUSH2 0x12F6 JUMPI JUMPDEST POP POP POP POP POP JUMP JUMPDEST DUP5 SWAP7 POP SWAP4 SWAP1 SWAP2 SWAP3 SWAP4 ADD CALLDATALOAD PUSH1 0x60 SHR SWAP5 DUP2 PUSH1 0x15 GT PUSH2 0x4CA JUMPI PUSH2 0x137C SWAP2 PUSH1 0x20 SWAP2 PUSH1 0x40 MLOAD SWAP4 DUP5 SWAP3 DUP4 SWAP3 PUSH32 0x1626BA7E00000000000000000000000000000000000000000000000000000000 SWAP8 DUP9 DUP6 MSTORE PUSH1 0x4 DUP6 ADD MSTORE PUSH1 0x40 PUSH1 0x24 DUP6 ADD MSTORE PUSH1 0x15 PUSH32 0xFFFFFFFFFFFFFFFFFFFFFFFFFFFFFFFFFFFFFFFFFFFFFFFFFFFFFFFFFFFFFFEB PUSH1 0x44 DUP7 ADD SWAP4 ADD SWAP2 ADD PUSH2 0xD4F JUMP JUMPDEST SUB DUP2 DUP9 GAS STATICCALL DUP4 SWAP2 DUP2 PUSH2 0x13D4 JUMPI JUMPDEST POP PUSH2 0x139E JUMPI POP SWAP1 SWAP3 POP POP JUMPDEST CODESIZE DUP1 DUP1 DUP1 DUP1 PUSH2 0x12EF JUMP JUMPDEST PUSH32 0xFFFFFFFF00000000000000000000000000000000000000000000000000000000 AND SUB PUSH2 0x13CC JUMPI JUMPDEST POP PUSH2 0x1394 JUMP JUMPDEST SWAP2 POP CODESIZE PUSH2 0x13C6 JUMP JUMPDEST SWAP1 SWAP2 POP PUSH1 0x20 DUP2 RETURNDATASIZE DUP3 GT PUSH2 0x1428 JUMPI JUMPDEST DUP2 PUSH2 0x13EF PUSH1 0x20 SWAP4 DUP4 PUSH2 0xE37 JUMP JUMPDEST DUP2 ADD SUB SLT PUSH2 0x4CA JUMPI MLOAD PUSH32 0xFFFFFFFF00000000000000000000000000000000000000000000000000000000 DUP2 AND DUP2 SUB PUSH2 0x4CA JUMPI SWAP1 CODESIZE PUSH2 0x1389 JUMP JUMPDEST RETURNDATASIZE SWAP2 POP PUSH2 0x13E2 JUMP JUMPDEST POP PUSH1 0x15 DUP3 LT ISZERO PUSH2 0x12EA JUMP JUMPDEST PUSH1 0x24 DUP6 PUSH32 0x4E487B7100000000000000000000000000000000000000000000000000000000 DUP2 MSTORE PUSH1 0x32 PUSH1 0x4 MSTORE REVERT INVALID LOG2 PUSH5 0x6970667358 0x22 SLT KECCAK256 SWAP11 0xEB GASLIMIT DUP8 PUSH22 0x19B9ACD168C435FBA72DE99B3576F5579E22DAA46C25 0x28 0xED 0xB7 0x4D PUSH7 0x64736F6C634300 ADDMOD SGT STOP CALLER "
				}
			},
			"userdoc": {
				"events": {
					"PaymentsDeployed(address)": {
						"notice": "Event emitted when a new Payments proxy contract is deployed."
					}
				},
				"kind": "user",
				"methods": {
					"constructor": {
						"notice": "Creates an Payments Factory."
					},
					"deploy(address,address,address)": {
						"notice": "Creates a Payments proxy contract"
					},
					"determineAddress(address,address,address)": {
						"notice": "Computes the address of a proxy instance."
					},
					"upgradeBeacon(address)": {
						"notice": "Upgrades the beacon implementation."
					}
				},
				"notice": "Deployer of Payments proxies.",
				"version": 1
			}
		}
	}
}