{
	"contracts/modules/commons/ModuleNonce.sol": {
		"ModuleNonce": {
			"abi": [
				{
					"inputs": [
						{
							"internalType": "uint256",
							"name": "_space",
							"type": "uint256"
						},
						{
							"internalType": "uint256",
							"name": "_provided",
							"type": "uint256"
						},
						{
							"internalType": "uint256",
							"name": "_current",
							"type": "uint256"
						}
					],
					"name": "BadNonce",
					"type": "error"
				},
				{
					"anonymous": false,
					"inputs": [
						{
							"indexed": false,
							"internalType": "uint256",
							"name": "_space",
							"type": "uint256"
						},
						{
							"indexed": false,
							"internalType": "uint256",
							"name": "_newNonce",
							"type": "uint256"
						}
					],
					"name": "NonceChange",
					"type": "event"
				},
				{
					"inputs": [],
					"name": "nonce",
					"outputs": [
						{
							"internalType": "uint256",
							"name": "",
							"type": "uint256"
						}
					],
					"stateMutability": "view",
					"type": "function"
				},
				{
					"inputs": [
						{
							"internalType": "uint256",
							"name": "_space",
							"type": "uint256"
						}
					],
					"name": "readNonce",
					"outputs": [
						{
							"internalType": "uint256",
							"name": "",
							"type": "uint256"
						}
					],
					"stateMutability": "view",
					"type": "function"
				}
			],
			"devdoc": {
				"kind": "dev",
				"methods": {
					"nonce()": {
						"details": "The default nonce space is 0x00",
						"returns": {
							"_0": "The next nonce"
						}
					},
					"readNonce(uint256)": {
						"params": {
							"_space": "Nonce space, each space keeps an independent nonce count"
						},
						"returns": {
							"_0": "The next nonce"
						}
					}
				},
				"version": 1
			},
			"evm": {
				"bytecode": {
					"linkReferences": {},
					"object": "608060405234801561001057600080fd5b50610158806100206000396000f3fe608060405234801561001057600080fd5b50600436106100365760003560e01c80638c3f55631461003b578063affed0e014610060575b600080fd5b61004e610049366004610109565b610068565b60405190815260200160405180910390f35b61004e61009a565b60006100947f8d0bf1fd623d628c741362c1289948e57b3e2905218c676d3e69abee36d6ae2e836100ab565b92915050565b60006100a66000610068565b905090565b60008083836040516020016100ca929190918252602082015260400190565b604080517fffffffffffffffffffffffffffffffffffffffffffffffffffffffffffffffe0818403018152919052805160209091012054949350505050565b60006020828403121561011b57600080fd5b503591905056fea26469706673582212206e5fd9e5cfc12ecf5317977f97e2dad5498ba71fc8a71a481f25e825689a9d1364736f6c63430008120033",
					"opcodes": "PUSH1 0x80 PUSH1 0x40 MSTORE CALLVALUE DUP1 ISZERO PUSH2 0x10 JUMPI PUSH1 0x0 DUP1 REVERT JUMPDEST POP PUSH2 0x158 DUP1 PUSH2 0x20 PUSH1 0x0 CODECOPY PUSH1 0x0 RETURN INVALID PUSH1 0x80 PUSH1 0x40 MSTORE CALLVALUE DUP1 ISZERO PUSH2 0x10 JUMPI PUSH1 0x0 DUP1 REVERT JUMPDEST POP PUSH1 0x4 CALLDATASIZE LT PUSH2 0x36 JUMPI PUSH1 0x0 CALLDATALOAD PUSH1 0xE0 SHR DUP1 PUSH4 0x8C3F5563 EQ PUSH2 0x3B JUMPI DUP1 PUSH4 0xAFFED0E0 EQ PUSH2 0x60 JUMPI JUMPDEST PUSH1 0x0 DUP1 REVERT JUMPDEST PUSH2 0x4E PUSH2 0x49 CALLDATASIZE PUSH1 0x4 PUSH2 0x109 JUMP JUMPDEST PUSH2 0x68 JUMP JUMPDEST PUSH1 0x40 MLOAD SWAP1 DUP2 MSTORE PUSH1 0x20 ADD PUSH1 0x40 MLOAD DUP1 SWAP2 SUB SWAP1 RETURN JUMPDEST PUSH2 0x4E PUSH2 0x9A JUMP JUMPDEST PUSH1 0x0 PUSH2 0x94 PUSH32 0x8D0BF1FD623D628C741362C1289948E57B3E2905218C676D3E69ABEE36D6AE2E DUP4 PUSH2 0xAB JUMP JUMPDEST SWAP3 SWAP2 POP POP JUMP JUMPDEST PUSH1 0x0 PUSH2 0xA6 PUSH1 0x0 PUSH2 0x68 JUMP JUMPDEST SWAP1 POP SWAP1 JUMP JUMPDEST PUSH1 0x0 DUP1 DUP4 DUP4 PUSH1 0x40 MLOAD PUSH1 0x20 ADD PUSH2 0xCA SWAP3 SWAP2 SWAP1 SWAP2 DUP3 MSTORE PUSH1 0x20 DUP3 ADD MSTORE PUSH1 0x40 ADD SWAP1 JUMP JUMPDEST PUSH1 0x40 DUP1 MLOAD PUSH32 0xFFFFFFFFFFFFFFFFFFFFFFFFFFFFFFFFFFFFFFFFFFFFFFFFFFFFFFFFFFFFFFE0 DUP2 DUP5 SUB ADD DUP2 MSTORE SWAP2 SWAP1 MSTORE DUP1 MLOAD PUSH1 0x20 SWAP1 SWAP2 ADD KECCAK256 SLOAD SWAP5 SWAP4 POP POP POP POP JUMP JUMPDEST PUSH1 0x0 PUSH1 0x20 DUP3 DUP5 SUB SLT ISZERO PUSH2 0x11B JUMPI PUSH1 0x0 DUP1 REVERT JUMPDEST POP CALLDATALOAD SWAP2 SWAP1 POP JUMP INVALID LOG2 PUSH5 0x6970667358 0x22 SLT KECCAK256 PUSH15 0x5FD9E5CFC12ECF5317977F97E2DAD5 0x49 DUP12 0xA7 0x1F 0xC8 0xA7 BYTE BASEFEE 0x1F 0x25 0xE8 0x25 PUSH9 0x9A9D1364736F6C6343 STOP ADDMOD SLT STOP CALLER "
				}
			},
			"userdoc": {
				"kind": "user",
				"methods": {
					"nonce()": {
						"notice": "Returns the next nonce of the default nonce space"
					},
					"readNonce(uint256)": {
						"notice": "Returns the next nonce of the given nonce space"
					}
				},
				"version": 1
			}
		}
	}
}