{
	"contracts/modules/commons/ModuleUpdate.sol": {
		"ModuleUpdate": {
			"abi": [
				{
					"inputs": [
						{
							"internalType": "address",
							"name": "_implementation",
							"type": "address"
						}
					],
					"name": "InvalidImplementation",
					"type": "error"
				},
				{
					"inputs": [
						{
							"internalType": "address",
							"name": "_sender",
							"type": "address"
						},
						{
							"internalType": "address",
							"name": "_self",
							"type": "address"
						}
					],
					"name": "OnlySelfAuth",
					"type": "error"
				},
				{
					"anonymous": false,
					"inputs": [
						{
							"indexed": false,
							"internalType": "address",
							"name": "newImplementation",
							"type": "address"
						}
					],
					"name": "ImplementationUpdated",
					"type": "event"
				},
				{
					"inputs": [
						{
							"internalType": "bytes4",
							"name": "_interfaceID",
							"type": "bytes4"
						}
					],
					"name": "supportsInterface",
					"outputs": [
						{
							"internalType": "bool",
							"name": "",
							"type": "bool"
						}
					],
					"stateMutability": "pure",
					"type": "function"
				},
				{
					"inputs": [
						{
							"internalType": "address",
							"name": "_implementation",
							"type": "address"
						}
					],
					"name": "updateImplementation",
					"outputs": [],
					"stateMutability": "nonpayable",
					"type": "function"
				}
			],
			"devdoc": {
				"kind": "dev",
				"methods": {
					"supportsInterface(bytes4)": {
						"params": {
							"_interfaceID": "The interface identifier, as specified in ERC-165"
						},
						"returns": {
							"_0": "`true` if the contract implements `_interfaceID`"
						}
					},
					"updateImplementation(address)": {
						"details": "WARNING Updating the implementation can brick the wallet",
						"params": {
							"_implementation": "New main module implementation"
						}
					}
				},
				"version": 1
			},
			"evm": {
				"bytecode": {
					"linkReferences": {},
					"object": "608060405234801561001057600080fd5b506102d3806100206000396000f3fe608060405234801561001057600080fd5b50600436106100365760003560e01c806301ffc9a71461003b578063025b22bc14610062575b600080fd5b61004e61004936600461021e565b610077565b604051901515815260200160405180910390f35b610075610070366004610267565b610112565b005b60007ffda4dd44000000000000000000000000000000000000000000000000000000007fffffffff000000000000000000000000000000000000000000000000000000008316016100ca57506001919050565b507fffffffff00000000000000000000000000000000000000000000000000000000167f01ffc9a7000000000000000000000000000000000000000000000000000000001490565b333014610158576040517fe12588940000000000000000000000000000000000000000000000000000000081523360048201523060248201526044015b60405180910390fd5b61016181610164565b50565b73ffffffffffffffffffffffffffffffffffffffff81163b6101ca576040517f0c76093700000000000000000000000000000000000000000000000000000000815273ffffffffffffffffffffffffffffffffffffffff8216600482015260240161014f565b6101d2813055565b60405173ffffffffffffffffffffffffffffffffffffffff821681527f310ba5f1d2ed074b51e2eccd052a47ae9ab7c6b800d1fca3db3999d6a592ca039060200160405180910390a150565b60006020828403121561023057600080fd5b81357fffffffff000000000000000000000000000000000000000000000000000000008116811461026057600080fd5b9392505050565b60006020828403121561027957600080fd5b813573ffffffffffffffffffffffffffffffffffffffff8116811461026057600080fdfea2646970667358221220ea980305b334e6dd53f09021ac261c4ea9ab2346a0642943d337daf2461d2e5064736f6c63430008120033",
					"opcodes": "PUSH1 0x80 PUSH1 0x40 MSTORE CALLVALUE DUP1 ISZERO PUSH2 0x10 JUMPI PUSH1 0x0 DUP1 REVERT JUMPDEST POP PUSH2 0x2D3 DUP1 PUSH2 0x20 PUSH1 0x0 CODECOPY PUSH1 0x0 RETURN INVALID PUSH1 0x80 PUSH1 0x40 MSTORE CALLVALUE DUP1 ISZERO PUSH2 0x10 JUMPI PUSH1 0x0 DUP1 REVERT JUMPDEST POP PUSH1 0x4 CALLDATASIZE LT PUSH2 0x36 JUMPI PUSH1 0x0 CALLDATALOAD PUSH1 0xE0 SHR DUP1 PUSH4 0x1FFC9A7 EQ PUSH2 0x3B JUMPI DUP1 PUSH4 0x25B22BC EQ PUSH2 0x62 JUMPI JUMPDEST PUSH1 0x0 DUP1 REVERT JUMPDEST PUSH2 0x4E PUSH2 0x49 CALLDATASIZE PUSH1 0x4 PUSH2 0x21E JUMP JUMPDEST PUSH2 0x77 JUMP JUMPDEST PUSH1 0x40 MLOAD SWAP1 ISZERO ISZERO DUP2 MSTORE PUSH1 0x20 ADD PUSH1 0x40 MLOAD DUP1 SWAP2 SUB SWAP1 RETURN JUMPDEST PUSH2 0x75 PUSH2 0x70 CALLDATASIZE PUSH1 0x4 PUSH2 0x267 JUMP JUMPDEST PUSH2 0x112 JUMP JUMPDEST STOP JUMPDEST PUSH1 0x0 PUSH32 0xFDA4DD4400000000000000000000000000000000000000000000000000000000 PUSH32 0xFFFFFFFF00000000000000000000000000000000000000000000000000000000 DUP4 AND ADD PUSH2 0xCA JUMPI POP PUSH1 0x1 SWAP2 SWAP1 POP JUMP JUMPDEST POP PUSH32 0xFFFFFFFF00000000000000000000000000000000000000000000000000000000 AND PUSH32 0x1FFC9A700000000000000000000000000000000000000000000000000000000 EQ SWAP1 JUMP JUMPDEST CALLER ADDRESS EQ PUSH2 0x158 JUMPI PUSH1 0x40 MLOAD PUSH32 0xE125889400000000000000000000000000000000000000000000000000000000 DUP2 MSTORE CALLER PUSH1 0x4 DUP3 ADD MSTORE ADDRESS PUSH1 0x24 DUP3 ADD MSTORE PUSH1 0x44 ADD JUMPDEST PUSH1 0x40 MLOAD DUP1 SWAP2 SUB SWAP1 REVERT JUMPDEST PUSH2 0x161 DUP2 PUSH2 0x164 JUMP JUMPDEST POP JUMP JUMPDEST PUSH20 0xFFFFFFFFFFFFFFFFFFFFFFFFFFFFFFFFFFFFFFFF DUP2 AND EXTCODESIZE PUSH2 0x1CA JUMPI PUSH1 0x40 MLOAD PUSH32 0xC76093700000000000000000000000000000000000000000000000000000000 DUP2 MSTORE PUSH20 0xFFFFFFFFFFFFFFFFFFFFFFFFFFFFFFFFFFFFFFFF DUP3 AND PUSH1 0x4 DUP3 ADD MSTORE PUSH1 0x24 ADD PUSH2 0x14F JUMP JUMPDEST PUSH2 0x1D2 DUP2 ADDRESS SSTORE JUMP JUMPDEST PUSH1 0x40 MLOAD PUSH20 0xFFFFFFFFFFFFFFFFFFFFFFFFFFFFFFFFFFFFFFFF DUP3 AND DUP2 MSTORE PUSH32 0x310BA5F1D2ED074B51E2ECCD052A47AE9AB7C6B800D1FCA3DB3999D6A592CA03 SWAP1 PUSH1 0x20 ADD PUSH1 0x40 MLOAD DUP1 SWAP2 SUB SWAP1 LOG1 POP JUMP JUMPDEST PUSH1 0x0 PUSH1 0x20 DUP3 DUP5 SUB SLT ISZERO PUSH2 0x230 JUMPI PUSH1 0x0 DUP1 REVERT JUMPDEST DUP2 CALLDATALOAD PUSH32 0xFFFFFFFF00000000000000000000000000000000000000000000000000000000 DUP2 AND DUP2 EQ PUSH2 0x260 JUMPI PUSH1 0x0 DUP1 REVERT JUMPDEST SWAP4 SWAP3 POP POP POP JUMP JUMPDEST PUSH1 0x0 PUSH1 0x20 DUP3 DUP5 SUB SLT ISZERO PUSH2 0x279 JUMPI PUSH1 0x0 DUP1 REVERT JUMPDEST DUP2 CALLDATALOAD PUSH20 0xFFFFFFFFFFFFFFFFFFFFFFFFFFFFFFFFFFFFFFFF DUP2 AND DUP2 EQ PUSH2 0x260 JUMPI PUSH1 0x0 DUP1 REVERT INVALID LOG2 PUSH5 0x6970667358 0x22 SLT KECCAK256 0xEA SWAP9 SUB SDIV 0xB3 CALLVALUE 0xE6 0xDD MSTORE8 CREATE SWAP1 0x21 0xAC 0x26 SHR 0x4E 0xA9 0xAB 0x23 CHAINID LOG0 PUSH5 0x2943D337DA CALLCODE CHAINID SAR 0x2E POP PUSH5 0x736F6C6343 STOP ADDMOD SLT STOP CALLER "
				}
			},
			"userdoc": {
				"kind": "user",
				"methods": {
					"supportsInterface(bytes4)": {
						"notice": "Query if a contract implements an interface"
					},
					"updateImplementation(address)": {
						"notice": "Updates the implementation of the base wallet"
					}
				},
				"version": 1
			}
		}
	}
}