{
	"contracts/modules/utils/MultiCallUtils.sol": {
		"MultiCallUtils": {
			"abi": [
				{
					"inputs": [
						{
							"internalType": "uint256",
							"name": "_index",
							"type": "uint256"
						},
						{
							"internalType": "bytes",
							"name": "_result",
							"type": "bytes"
						}
					],
					"name": "CallReverted",
					"type": "error"
				},
				{
					"inputs": [
						{
							"internalType": "uint256",
							"name": "_index",
							"type": "uint256"
						}
					],
					"name": "DelegateCallNotAllowed",
					"type": "error"
				},
				{
					"inputs": [
						{
							"internalType": "uint256",
							"name": "_index",
							"type": "uint256"
						},
						{
							"internalType": "uint256",
							"name": "_requested",
							"type": "uint256"
						},
						{
							"internalType": "uint256",
							"name": "_available",
							"type": "uint256"
						}
					],
					"name": "NotEnoughGas",
					"type": "error"
				},
				{
					"inputs": [
						{
							"internalType": "address",
							"name": "_addr",
							"type": "address"
						}
					],
					"name": "callBalanceOf",
					"outputs": [
						{
							"internalType": "uint256",
							"name": "",
							"type": "uint256"
						}
					],
					"stateMutability": "view",
					"type": "function"
				},
				{
					"inputs": [],
					"name": "callBlockNumber",
					"outputs": [
						{
							"internalType": "uint256",
							"name": "",
							"type": "uint256"
						}
					],
					"stateMutability": "view",
					"type": "function"
				},
				{
					"inputs": [
						{
							"internalType": "uint256",
							"name": "_i",
							"type": "uint256"
						}
					],
					"name": "callBlockhash",
					"outputs": [
						{
							"internalType": "bytes32",
							"name": "",
							"type": "bytes32"
						}
					],
					"stateMutability": "view",
					"type": "function"
				},
				{
					"inputs": [],
					"name": "callChainId",
					"outputs": [
						{
							"internalType": "uint256",
							"name": "id",
							"type": "uint256"
						}
					],
					"stateMutability": "view",
					"type": "function"
				},
				{
					"inputs": [
						{
							"internalType": "address",
							"name": "_addr",
							"type": "address"
						}
					],
					"name": "callCode",
					"outputs": [
						{
							"internalType": "bytes",
							"name": "code",
							"type": "bytes"
						}
					],
					"stateMutability": "view",
					"type": "function"
				},
				{
					"inputs": [
						{
							"internalType": "address",
							"name": "_addr",
							"type": "address"
						}
					],
					"name": "callCodeHash",
					"outputs": [
						{
							"internalType": "bytes32",
							"name": "codeHash",
							"type": "bytes32"
						}
					],
					"stateMutability": "view",
					"type": "function"
				},
				{
					"inputs": [
						{
							"internalType": "address",
							"name": "_addr",
							"type": "address"
						}
					],
					"name": "callCodeSize",
					"outputs": [
						{
							"internalType": "uint256",
							"name": "size",
							"type": "uint256"
						}
					],
					"stateMutability": "view",
					"type": "function"
				},
				{
					"inputs": [],
					"name": "callCoinbase",
					"outputs": [
						{
							"internalType": "address",
							"name": "",
							"type": "address"
						}
					],
					"stateMutability": "view",
					"type": "function"
				},
				{
					"inputs": [],
					"name": "callDifficulty",
					"outputs": [
						{
							"internalType": "uint256",
							"name": "",
							"type": "uint256"
						}
					],
					"stateMutability": "view",
					"type": "function"
				},
				{
					"inputs": [],
					"name": "callGasLeft",
					"outputs": [
						{
							"internalType": "uint256",
							"name": "",
							"type": "uint256"
						}
					],
					"stateMutability": "view",
					"type": "function"
				},
				{
					"inputs": [],
					"name": "callGasLimit",
					"outputs": [
						{
							"internalType": "uint256",
							"name": "",
							"type": "uint256"
						}
					],
					"stateMutability": "view",
					"type": "function"
				},
				{
					"inputs": [],
					"name": "callGasPrice",
					"outputs": [
						{
							"internalType": "uint256",
							"name": "",
							"type": "uint256"
						}
					],
					"stateMutability": "view",
					"type": "function"
				},
				{
					"inputs": [],
					"name": "callOrigin",
					"outputs": [
						{
							"internalType": "address",
							"name": "",
							"type": "address"
						}
					],
					"stateMutability": "view",
					"type": "function"
				},
				{
					"inputs": [],
					"name": "callPrevrandao",
					"outputs": [
						{
							"internalType": "uint256",
							"name": "",
							"type": "uint256"
						}
					],
					"stateMutability": "view",
					"type": "function"
				},
				{
					"inputs": [],
					"name": "callTimestamp",
					"outputs": [
						{
							"internalType": "uint256",
							"name": "",
							"type": "uint256"
						}
					],
					"stateMutability": "view",
					"type": "function"
				},
				{
					"inputs": [
						{
							"components": [
								{
									"internalType": "bool",
									"name": "delegateCall",
									"type": "bool"
								},
								{
									"internalType": "bool",
									"name": "revertOnError",
									"type": "bool"
								},
								{
									"internalType": "uint256",
									"name": "gasLimit",
									"type": "uint256"
								},
								{
									"internalType": "address",
									"name": "target",
									"type": "address"
								},
								{
									"internalType": "uint256",
									"name": "value",
									"type": "uint256"
								},
								{
									"internalType": "bytes",
									"name": "data",
									"type": "bytes"
								}
							],
							"internalType": "struct IModuleCalls.Transaction[]",
							"name": "_txs",
							"type": "tuple[]"
						}
					],
					"name": "multiCall",
					"outputs": [
						{
							"internalType": "bool[]",
							"name": "_successes",
							"type": "bool[]"
						},
						{
							"internalType": "bytes[]",
							"name": "_results",
							"type": "bytes[]"
						}
					],
					"stateMutability": "payable",
					"type": "function"
				}
			],
			"devdoc": {
				"kind": "dev",
				"methods": {},
				"version": 1
			},
			"evm": {
				"bytecode": {
					"linkReferences": {},
					"object": "608060405234801561001057600080fd5b50610aea806100206000396000f3fe6080604052600436106100f35760003560e01c8063c272d5c31161008a578063d5b5337f11610059578063d5b5337f1461024f578063e90f13e71461026e578063f209883a14610281578063ffd7d7411461029457600080fd5b8063c272d5c3146101dd578063c39f2d5c146101f0578063c66764e11461020f578063d1db39071461023c57600080fd5b8063984395bc116100c6578063984395bc1461018357806398f9fbc4146101b7578063aeea5fb5146101ca578063b7a72531146101ca57600080fd5b80630fdecfac146100f857806343d9c9351461011a57806348acd29f1461012f578063543196eb14610164575b600080fd5b34801561010457600080fd5b50465b6040519081526020015b60405180910390f35b34801561012657600080fd5b506101076102b5565b34801561013b57600080fd5b5061010761014a366004610604565b73ffffffffffffffffffffffffffffffffffffffff163190565b34801561017057600080fd5b5061010761017f366004610604565b3f90565b34801561018f57600080fd5b50325b60405173ffffffffffffffffffffffffffffffffffffffff9091168152602001610111565b3480156101c357600080fd5b5041610192565b3480156101d657600080fd5b5044610107565b3480156101e957600080fd5b503a610107565b3480156101fc57600080fd5b5061010761020b366004610604565b3b90565b34801561021b57600080fd5b5061022f61022a366004610604565b6102bd565b6040516101119190610694565b34801561024857600080fd5b5043610107565b34801561025b57600080fd5b5061010761026a3660046106a7565b4090565b34801561027a57600080fd5b5045610107565b34801561028d57600080fd5b5042610107565b6102a76102a2366004610777565b610302565b604051610111929190610931565b60005a905090565b60408051603f833b9081017fffffffffffffffffffffffffffffffffffffffffffffffffffffffffffffffe01682019092528181529080600060208401853c50919050565b606080825167ffffffffffffffff81111561031f5761031f6106c0565b604051908082528060200260200182016040528015610348578160200160208202803683370190505b509150825167ffffffffffffffff811115610365576103656106c0565b60405190808252806020026020018201604052801561039857816020015b60608152602001906001900390816103835790505b50905060005b83518110156105d55760008482815181106103bb576103bb6109e9565b60200260200101519050806000015115610409576040517f230d1ccc000000000000000000000000000000000000000000000000000000008152600481018390526024015b60405180910390fd5b80604001515a101561045f578181604001515a6040517f2bb3e3ba000000000000000000000000000000000000000000000000000000008152600481019390935260248301919091526044820152606401610400565b806060015173ffffffffffffffffffffffffffffffffffffffff1681608001518260400151600014610495578260400151610497565b5a5b908360a001516040516104aa9190610a18565b600060405180830381858888f193505050503d80600081146104e8576040519150601f19603f3d011682016040523d82523d6000602084013e6104ed565b606091505b50858481518110610500576105006109e9565b60200260200101858581518110610519576105196109e9565b602002602001018290528215151515815250505083828151811061053f5761053f6109e9565b602002602001015115801561056e5750848281518110610561576105616109e9565b6020026020010151602001515b156105c25781838381518110610586576105866109e9565b60200260200101516040517f3b4c7a5f000000000000000000000000000000000000000000000000000000008152600401610400929190610a34565b50806105cd81610a55565b91505061039e565b50915091565b803573ffffffffffffffffffffffffffffffffffffffff811681146105ff57600080fd5b919050565b60006020828403121561061657600080fd5b61061f826105db565b9392505050565b60005b83811015610641578181015183820152602001610629565b50506000910152565b60008151808452610662816020860160208601610626565b601f017fffffffffffffffffffffffffffffffffffffffffffffffffffffffffffffffe0169290920160200192915050565b60208152600061061f602083018461064a565b6000602082840312156106b957600080fd5b5035919050565b7f4e487b7100000000000000000000000000000000000000000000000000000000600052604160045260246000fd5b60405160c0810167ffffffffffffffff81118282101715610712576107126106c0565b60405290565b604051601f82017fffffffffffffffffffffffffffffffffffffffffffffffffffffffffffffffe016810167ffffffffffffffff8111828210171561075f5761075f6106c0565b604052919050565b803580151581146105ff57600080fd5b6000602080838503121561078a57600080fd5b823567ffffffffffffffff808211156107a257600080fd5b818501915085601f8301126107b657600080fd5b8135818111156107c8576107c86106c0565b8060051b6107d7858201610718565b91825283810185019185810190898411156107f157600080fd5b86860192505b838310156109245782358581111561080f5760008081fd5b860160c07fffffffffffffffffffffffffffffffffffffffffffffffffffffffffffffffe0828d0381018213156108465760008081fd5b61084e6106ef565b6108598b8501610767565b81526040610868818601610767565b8c8301526060808601358284015260806108838188016105db565b8285015260a091508187013581850152508486013594508a8511156108a85760008081fd5b84860195508f603f8701126108bf57600094508485fd5b8c86013594508a8511156108d5576108d56106c0565b6108e58d85601f88011601610718565b93508484528f828688010111156108fc5760008081fd5b848287018e86013760009484018d0194909452509182015283525091860191908601906107f7565b9998505050505050505050565b604080825283519082018190526000906020906060840190828701845b8281101561096c57815115158452928401929084019060010161094e565b50505083810382850152845180825282820190600581901b8301840187850160005b838110156109da577fffffffffffffffffffffffffffffffffffffffffffffffffffffffffffffffe08684030185526109c883835161064a565b9487019492509086019060010161098e565b50909998505050505050505050565b7f4e487b7100000000000000000000000000000000000000000000000000000000600052603260045260246000fd5b60008251610a2a818460208701610626565b9190910192915050565b828152604060208201526000610a4d604083018461064a565b949350505050565b60007fffffffffffffffffffffffffffffffffffffffffffffffffffffffffffffffff8203610aad577f4e487b7100000000000000000000000000000000000000000000000000000000600052601160045260246000fd5b506001019056fea2646970667358221220dcfa5cfcd4165eb28f97ebcb9ac3b988820332f1d24d3eb2cd4b516ff761a49264736f6c63430008120033",
					"opcodes": "PUSH1 0x80 PUSH1 0x40 MSTORE CALLVALUE DUP1 ISZERO PUSH2 0x10 JUMPI PUSH1 0x0 DUP1 REVERT JUMPDEST POP PUSH2 0xAEA DUP1 PUSH2 0x20 PUSH1 0x0 CODECOPY PUSH1 0x0 RETURN INVALID PUSH1 0x80 PUSH1 0x40 MSTORE PUSH1 0x4 CALLDATASIZE LT PUSH2 0xF3 JUMPI PUSH1 0x0 CALLDATALOAD PUSH1 0xE0 SHR DUP1 PUSH4 0xC272D5C3 GT PUSH2 0x8A JUMPI DUP1 PUSH4 0xD5B5337F GT PUSH2 0x59 JUMPI DUP1 PUSH4 0xD5B5337F EQ PUSH2 0x24F JUMPI DUP1 PUSH4 0xE90F13E7 EQ PUSH2 0x26E JUMPI DUP1 PUSH4 0xF209883A EQ PUSH2 0x281 JUMPI DUP1 PUSH4 0xFFD7D741 EQ PUSH2 0x294 JUMPI PUSH1 0x0 DUP1 REVERT JUMPDEST DUP1 PUSH4 0xC272D5C3 EQ PUSH2 0x1DD JUMPI DUP1 PUSH4 0xC39F2D5C EQ PUSH2 0x1F0 JUMPI DUP1 PUSH4 0xC66764E1 EQ PUSH2 0x20F JUMPI DUP1 PUSH4 0xD1DB3907 EQ PUSH2 0x23C JUMPI PUSH1 0x0 DUP1 REVERT JUMPDEST DUP1 PUSH4 0x984395BC GT PUSH2 0xC6 JUMPI DUP1 PUSH4 0x984395BC EQ PUSH2 0x183 JUMPI DUP1 PUSH4 0x98F9FBC4 EQ PUSH2 0x1B7 JUMPI DUP1 PUSH4 0xAEEA5FB5 EQ PUSH2 0x1CA JUMPI DUP1 PUSH4 0xB7A72531 EQ PUSH2 0x1CA JUMPI PUSH1 0x0 DUP1 REVERT JUMPDEST DUP1 PUSH4 0xFDECFAC EQ PUSH2 0xF8 JUMPI DUP1 PUSH4 0x43D9C935 EQ PUSH2 0x11A JUMPI DUP1 PUSH4 0x48ACD29F EQ PUSH2 0x12F JUMPI DUP1 PUSH4 0x543196EB EQ PUSH2 0x164 JUMPI JUMPDEST PUSH1 0x0 DUP1 REVERT JUMPDEST CALLVALUE DUP1 ISZERO PUSH2 0x104 JUMPI PUSH1 0x0 DUP1 REVERT JUMPDEST POP CHAINID JUMPDEST PUSH1 0x40 MLOAD SWAP1 DUP2 MSTORE PUSH1 0x20 ADD JUMPDEST PUSH1 0x40 MLOAD DUP1 SWAP2 SUB SWAP1 RETURN JUMPDEST CALLVALUE DUP1 ISZERO PUSH2 0x126 JUMPI PUSH1 0x0 DUP1 REVERT JUMPDEST POP PUSH2 0x107 PUSH2 0x2B5 JUMP JUMPDEST CALLVALUE DUP1 ISZERO PUSH2 0x13B JUMPI PUSH1 0x0 DUP1 REVERT JUMPDEST POP PUSH2 0x107 PUSH2 0x14A CALLDATASIZE PUSH1 0x4 PUSH2 0x604 JUMP JUMPDEST PUSH20 0xFFFFFFFFFFFFFFFFFFFFFFFFFFFFFFFFFFFFFFFF AND BALANCE SWAP1 JUMP JUMPDEST CALLVALUE DUP1 ISZERO PUSH2 0x170 JUMPI PUSH1 0x0 DUP1 REVERT JUMPDEST POP PUSH2 0x107 PUSH2 0x17F CALLDATASIZE PUSH1 0x4 PUSH2 0x604 JUMP JUMPDEST EXTCODEHASH SWAP1 JUMP JUMPDEST CALLVALUE DUP1 ISZERO PUSH2 0x18F JUMPI PUSH1 0x0 DUP1 REVERT JUMPDEST POP ORIGIN JUMPDEST PUSH1 0x40 MLOAD PUSH20 0xFFFFFFFFFFFFFFFFFFFFFFFFFFFFFFFFFFFFFFFF SWAP1 SWAP2 AND DUP2 MSTORE PUSH1 0x20 ADD PUSH2 0x111 JUMP JUMPDEST CALLVALUE DUP1 ISZERO PUSH2 0x1C3 JUMPI PUSH1 0x0 DUP1 REVERT JUMPDEST POP COINBASE PUSH2 0x192 JUMP JUMPDEST CALLVALUE DUP1 ISZERO PUSH2 0x1D6 JUMPI PUSH1 0x0 DUP1 REVERT JUMPDEST POP PREVRANDAO PUSH2 0x107 JUMP JUMPDEST CALLVALUE DUP1 ISZERO PUSH2 0x1E9 JUMPI PUSH1 0x0 DUP1 REVERT JUMPDEST POP GASPRICE PUSH2 0x107 JUMP JUMPDEST CALLVALUE DUP1 ISZERO PUSH2 0x1FC JUMPI PUSH1 0x0 DUP1 REVERT JUMPDEST POP PUSH2 0x107 PUSH2 0x20B CALLDATASIZE PUSH1 0x4 PUSH2 0x604 JUMP JUMPDEST EXTCODESIZE SWAP1 JUMP JUMPDEST CALLVALUE DUP1 ISZERO PUSH2 0x21B JUMPI PUSH1 0x0 DUP1 REVERT JUMPDEST POP PUSH2 0x22F PUSH2 0x22A CALLDATASIZE PUSH1 0x4 PUSH2 0x604 JUMP JUMPDEST PUSH2 0x2BD JUMP JUMPDEST PUSH1 0x40 MLOAD PUSH2 0x111 SWAP2 SWAP1 PUSH2 0x694 JUMP JUMPDEST CALLVALUE DUP1 ISZERO PUSH2 0x248 JUMPI PUSH1 0x0 DUP1 REVERT JUMPDEST POP NUMBER PUSH2 0x107 JUMP JUMPDEST CALLVALUE DUP1 ISZERO PUSH2 0x25B JUMPI PUSH1 0x0 DUP1 REVERT JUMPDEST POP PUSH2 0x107 PUSH2 0x26A CALLDATASIZE PUSH1 0x4 PUSH2 0x6A7 JUMP JUMPDEST BLOCKHASH SWAP1 JUMP JUMPDEST CALLVALUE DUP1 ISZERO PUSH2 0x27A JUMPI PUSH1 0x0 DUP1 REVERT JUMPDEST POP GASLIMIT PUSH2 0x107 JUMP JUMPDEST CALLVALUE DUP1 ISZERO PUSH2 0x28D JUMPI PUSH1 0x0 DUP1 REVERT JUMPDEST POP TIMESTAMP PUSH2 0x107 JUMP JUMPDEST PUSH2 0x2A7 PUSH2 0x2A2 CALLDATASIZE PUSH1 0x4 PUSH2 0x777 JUMP JUMPDEST PUSH2 0x302 JUMP JUMPDEST PUSH1 0x40 MLOAD PUSH2 0x111 SWAP3 SWAP2 SWAP1 PUSH2 0x931 JUMP JUMPDEST PUSH1 0x0 GAS SWAP1 POP SWAP1 JUMP JUMPDEST PUSH1 0x40 DUP1 MLOAD PUSH1 0x3F DUP4 EXTCODESIZE SWAP1 DUP2 ADD PUSH32 0xFFFFFFFFFFFFFFFFFFFFFFFFFFFFFFFFFFFFFFFFFFFFFFFFFFFFFFFFFFFFFFE0 AND DUP3 ADD SWAP1 SWAP3 MSTORE DUP2 DUP2 MSTORE SWAP1 DUP1 PUSH1 0x0 PUSH1 0x20 DUP5 ADD DUP6 EXTCODECOPY POP SWAP2 SWAP1 POP JUMP JUMPDEST PUSH1 0x60 DUP1 DUP3 MLOAD PUSH8 0xFFFFFFFFFFFFFFFF DUP2 GT ISZERO PUSH2 0x31F JUMPI PUSH2 0x31F PUSH2 0x6C0 JUMP JUMPDEST PUSH1 0x40 MLOAD SWAP1 DUP1 DUP3 MSTORE DUP1 PUSH1 0x20 MUL PUSH1 0x20 ADD DUP3 ADD PUSH1 0x40 MSTORE DUP1 ISZERO PUSH2 0x348 JUMPI DUP2 PUSH1 0x20 ADD PUSH1 0x20 DUP3 MUL DUP1 CALLDATASIZE DUP4 CALLDATACOPY ADD SWAP1 POP JUMPDEST POP SWAP2 POP DUP3 MLOAD PUSH8 0xFFFFFFFFFFFFFFFF DUP2 GT ISZERO PUSH2 0x365 JUMPI PUSH2 0x365 PUSH2 0x6C0 JUMP JUMPDEST PUSH1 0x40 MLOAD SWAP1 DUP1 DUP3 MSTORE DUP1 PUSH1 0x20 MUL PUSH1 0x20 ADD DUP3 ADD PUSH1 0x40 MSTORE DUP1 ISZERO PUSH2 0x398 JUMPI DUP2 PUSH1 0x20 ADD JUMPDEST PUSH1 0x60 DUP2 MSTORE PUSH1 0x20 ADD SWAP1 PUSH1 0x1 SWAP1 SUB SWAP1 DUP2 PUSH2 0x383 JUMPI SWAP1 POP JUMPDEST POP SWAP1 POP PUSH1 0x0 JUMPDEST DUP4 MLOAD DUP2 LT ISZERO PUSH2 0x5D5 JUMPI PUSH1 0x0 DUP5 DUP3 DUP2 MLOAD DUP2 LT PUSH2 0x3BB JUMPI PUSH2 0x3BB PUSH2 0x9E9 JUMP JUMPDEST PUSH1 0x20 MUL PUSH1 0x20 ADD ADD MLOAD SWAP1 POP DUP1 PUSH1 0x0 ADD MLOAD ISZERO PUSH2 0x409 JUMPI PUSH1 0x40 MLOAD PUSH32 0x230D1CCC00000000000000000000000000000000000000000000000000000000 DUP2 MSTORE PUSH1 0x4 DUP2 ADD DUP4 SWAP1 MSTORE PUSH1 0x24 ADD JUMPDEST PUSH1 0x40 MLOAD DUP1 SWAP2 SUB SWAP1 REVERT JUMPDEST DUP1 PUSH1 0x40 ADD MLOAD GAS LT ISZERO PUSH2 0x45F JUMPI DUP2 DUP2 PUSH1 0x40 ADD MLOAD GAS PUSH1 0x40 MLOAD PUSH32 0x2BB3E3BA00000000000000000000000000000000000000000000000000000000 DUP2 MSTORE PUSH1 0x4 DUP2 ADD SWAP4 SWAP1 SWAP4 MSTORE PUSH1 0x24 DUP4 ADD SWAP2 SWAP1 SWAP2 MSTORE PUSH1 0x44 DUP3 ADD MSTORE PUSH1 0x64 ADD PUSH2 0x400 JUMP JUMPDEST DUP1 PUSH1 0x60 ADD MLOAD PUSH20 0xFFFFFFFFFFFFFFFFFFFFFFFFFFFFFFFFFFFFFFFF AND DUP2 PUSH1 0x80 ADD MLOAD DUP3 PUSH1 0x40 ADD MLOAD PUSH1 0x0 EQ PUSH2 0x495 JUMPI DUP3 PUSH1 0x40 ADD MLOAD PUSH2 0x497 JUMP JUMPDEST GAS JUMPDEST SWAP1 DUP4 PUSH1 0xA0 ADD MLOAD PUSH1 0x40 MLOAD PUSH2 0x4AA SWAP2 SWAP1 PUSH2 0xA18 JUMP JUMPDEST PUSH1 0x0 PUSH1 0x40 MLOAD DUP1 DUP4 SUB DUP2 DUP6 DUP9 DUP9 CALL SWAP4 POP POP POP POP RETURNDATASIZE DUP1 PUSH1 0x0 DUP2 EQ PUSH2 0x4E8 JUMPI PUSH1 0x40 MLOAD SWAP2 POP PUSH1 0x1F NOT PUSH1 0x3F RETURNDATASIZE ADD AND DUP3 ADD PUSH1 0x40 MSTORE RETURNDATASIZE DUP3 MSTORE RETURNDATASIZE PUSH1 0x0 PUSH1 0x20 DUP5 ADD RETURNDATACOPY PUSH2 0x4ED JUMP JUMPDEST PUSH1 0x60 SWAP2 POP JUMPDEST POP DUP6 DUP5 DUP2 MLOAD DUP2 LT PUSH2 0x500 JUMPI PUSH2 0x500 PUSH2 0x9E9 JUMP JUMPDEST PUSH1 0x20 MUL PUSH1 0x20 ADD ADD DUP6 DUP6 DUP2 MLOAD DUP2 LT PUSH2 0x519 JUMPI PUSH2 0x519 PUSH2 0x9E9 JUMP JUMPDEST PUSH1 0x20 MUL PUSH1 0x20 ADD ADD DUP3 SWAP1 MSTORE DUP3 ISZERO ISZERO ISZERO ISZERO DUP2 MSTORE POP POP POP DUP4 DUP3 DUP2 MLOAD DUP2 LT PUSH2 0x53F JUMPI PUSH2 0x53F PUSH2 0x9E9 JUMP JUMPDEST PUSH1 0x20 MUL PUSH1 0x20 ADD ADD MLOAD ISZERO DUP1 ISZERO PUSH2 0x56E JUMPI POP DUP5 DUP3 DUP2 MLOAD DUP2 LT PUSH2 0x561 JUMPI PUSH2 0x561 PUSH2 0x9E9 JUMP JUMPDEST PUSH1 0x20 MUL PUSH1 0x20 ADD ADD MLOAD PUSH1 0x20 ADD MLOAD JUMPDEST ISZERO PUSH2 0x5C2 JUMPI DUP2 DUP4 DUP4 DUP2 MLOAD DUP2 LT PUSH2 0x586 JUMPI PUSH2 0x586 PUSH2 0x9E9 JUMP JUMPDEST PUSH1 0x20 MUL PUSH1 0x20 ADD ADD MLOAD PUSH1 0x40 MLOAD PUSH32 0x3B4C7A5F00000000000000000000000000000000000000000000000000000000 DUP2 MSTORE PUSH1 0x4 ADD PUSH2 0x400 SWAP3 SWAP2 SWAP1 PUSH2 0xA34 JUMP JUMPDEST POP DUP1 PUSH2 0x5CD DUP2 PUSH2 0xA55 JUMP JUMPDEST SWAP2 POP POP PUSH2 0x39E JUMP JUMPDEST POP SWAP2 POP SWAP2 JUMP JUMPDEST DUP1 CALLDATALOAD PUSH20 0xFFFFFFFFFFFFFFFFFFFFFFFFFFFFFFFFFFFFFFFF DUP2 AND DUP2 EQ PUSH2 0x5FF JUMPI PUSH1 0x0 DUP1 REVERT JUMPDEST SWAP2 SWAP1 POP JUMP JUMPDEST PUSH1 0x0 PUSH1 0x20 DUP3 DUP5 SUB SLT ISZERO PUSH2 0x616 JUMPI PUSH1 0x0 DUP1 REVERT JUMPDEST PUSH2 0x61F DUP3 PUSH2 0x5DB JUMP JUMPDEST SWAP4 SWAP3 POP POP POP JUMP JUMPDEST PUSH1 0x0 JUMPDEST DUP4 DUP2 LT ISZERO PUSH2 0x641 JUMPI DUP2 DUP2 ADD MLOAD DUP4 DUP3 ADD MSTORE PUSH1 0x20 ADD PUSH2 0x629 JUMP JUMPDEST POP POP PUSH1 0x0 SWAP2 ADD MSTORE JUMP JUMPDEST PUSH1 0x0 DUP2 MLOAD DUP1 DUP5 MSTORE PUSH2 0x662 DUP2 PUSH1 0x20 DUP7 ADD PUSH1 0x20 DUP7 ADD PUSH2 0x626 JUMP JUMPDEST PUSH1 0x1F ADD PUSH32 0xFFFFFFFFFFFFFFFFFFFFFFFFFFFFFFFFFFFFFFFFFFFFFFFFFFFFFFFFFFFFFFE0 AND SWAP3 SWAP1 SWAP3 ADD PUSH1 0x20 ADD SWAP3 SWAP2 POP POP JUMP JUMPDEST PUSH1 0x20 DUP2 MSTORE PUSH1 0x0 PUSH2 0x61F PUSH1 0x20 DUP4 ADD DUP5 PUSH2 0x64A JUMP JUMPDEST PUSH1 0x0 PUSH1 0x20 DUP3 DUP5 SUB SLT ISZERO PUSH2 0x6B9 JUMPI PUSH1 0x0 DUP1 REVERT JUMPDEST POP CALLDATALOAD SWAP2 SWAP1 POP JUMP JUMPDEST PUSH32 0x4E487B7100000000000000000000000000000000000000000000000000000000 PUSH1 0x0 MSTORE PUSH1 0x41 PUSH1 0x4 MSTORE PUSH1 0x24 PUSH1 0x0 REVERT JUMPDEST PUSH1 0x40 MLOAD PUSH1 0xC0 DUP2 ADD PUSH8 0xFFFFFFFFFFFFFFFF DUP2 GT DUP3 DUP3 LT OR ISZERO PUSH2 0x712 JUMPI PUSH2 0x712 PUSH2 0x6C0 JUMP JUMPDEST PUSH1 0x40 MSTORE SWAP1 JUMP JUMPDEST PUSH1 0x40 MLOAD PUSH1 0x1F DUP3 ADD PUSH32 0xFFFFFFFFFFFFFFFFFFFFFFFFFFFFFFFFFFFFFFFFFFFFFFFFFFFFFFFFFFFFFFE0 AND DUP2 ADD PUSH8 0xFFFFFFFFFFFFFFFF DUP2 GT DUP3 DUP3 LT OR ISZERO PUSH2 0x75F JUMPI PUSH2 0x75F PUSH2 0x6C0 JUMP JUMPDEST PUSH1 0x40 MSTORE SWAP2 SWAP1 POP JUMP JUMPDEST DUP1 CALLDATALOAD DUP1 ISZERO ISZERO DUP2 EQ PUSH2 0x5FF JUMPI PUSH1 0x0 DUP1 REVERT JUMPDEST PUSH1 0x0 PUSH1 0x20 DUP1 DUP4 DUP6 SUB SLT ISZERO PUSH2 0x78A JUMPI PUSH1 0x0 DUP1 REVERT JUMPDEST DUP3 CALLDATALOAD PUSH8 0xFFFFFFFFFFFFFFFF DUP1 DUP3 GT ISZERO PUSH2 0x7A2 JUMPI PUSH1 0x0 DUP1 REVERT JUMPDEST DUP2 DUP6 ADD SWAP2 POP DUP6 PUSH1 0x1F DUP4 ADD SLT PUSH2 0x7B6 JUMPI PUSH1 0x0 DUP1 REVERT JUMPDEST DUP2 CALLDATALOAD DUP2 DUP2 GT ISZERO PUSH2 0x7C8 JUMPI PUSH2 0x7C8 PUSH2 0x6C0 JUMP JUMPDEST DUP1 PUSH1 0x5 SHL PUSH2 0x7D7 DUP6 DUP3 ADD PUSH2 0x718 JUMP JUMPDEST SWAP2 DUP3 MSTORE DUP4 DUP2 ADD DUP6 ADD SWAP2 DUP6 DUP2 ADD SWAP1 DUP10 DUP5 GT ISZERO PUSH2 0x7F1 JUMPI PUSH1 0x0 DUP1 REVERT JUMPDEST DUP7 DUP7 ADD SWAP3 POP JUMPDEST DUP4 DUP4 LT ISZERO PUSH2 0x924 JUMPI DUP3 CALLDATALOAD DUP6 DUP2 GT ISZERO PUSH2 0x80F JUMPI PUSH1 0x0 DUP1 DUP2 REVERT JUMPDEST DUP7 ADD PUSH1 0xC0 PUSH32 0xFFFFFFFFFFFFFFFFFFFFFFFFFFFFFFFFFFFFFFFFFFFFFFFFFFFFFFFFFFFFFFE0 DUP3 DUP14 SUB DUP2 ADD DUP3 SGT ISZERO PUSH2 0x846 JUMPI PUSH1 0x0 DUP1 DUP2 REVERT JUMPDEST PUSH2 0x84E PUSH2 0x6EF JUMP JUMPDEST PUSH2 0x859 DUP12 DUP6 ADD PUSH2 0x767 JUMP JUMPDEST DUP2 MSTORE PUSH1 0x40 PUSH2 0x868 DUP2 DUP7 ADD PUSH2 0x767 JUMP JUMPDEST DUP13 DUP4 ADD MSTORE PUSH1 0x60 DUP1 DUP7 ADD CALLDATALOAD DUP3 DUP5 ADD MSTORE PUSH1 0x80 PUSH2 0x883 DUP2 DUP9 ADD PUSH2 0x5DB JUMP JUMPDEST DUP3 DUP6 ADD MSTORE PUSH1 0xA0 SWAP2 POP DUP2 DUP8 ADD CALLDATALOAD DUP2 DUP6 ADD MSTORE POP DUP5 DUP7 ADD CALLDATALOAD SWAP5 POP DUP11 DUP6 GT ISZERO PUSH2 0x8A8 JUMPI PUSH1 0x0 DUP1 DUP2 REVERT JUMPDEST DUP5 DUP7 ADD SWAP6 POP DUP16 PUSH1 0x3F DUP8 ADD SLT PUSH2 0x8BF JUMPI PUSH1 0x0 SWAP5 POP DUP5 DUP6 REVERT JUMPDEST DUP13 DUP7 ADD CALLDATALOAD SWAP5 POP DUP11 DUP6 GT ISZERO PUSH2 0x8D5 JUMPI PUSH2 0x8D5 PUSH2 0x6C0 JUMP JUMPDEST PUSH2 0x8E5 DUP14 DUP6 PUSH1 0x1F DUP9 ADD AND ADD PUSH2 0x718 JUMP JUMPDEST SWAP4 POP DUP5 DUP5 MSTORE DUP16 DUP3 DUP7 DUP9 ADD ADD GT ISZERO PUSH2 0x8FC JUMPI PUSH1 0x0 DUP1 DUP2 REVERT JUMPDEST DUP5 DUP3 DUP8 ADD DUP15 DUP7 ADD CALLDATACOPY PUSH1 0x0 SWAP5 DUP5 ADD DUP14 ADD SWAP5 SWAP1 SWAP5 MSTORE POP SWAP2 DUP3 ADD MSTORE DUP4 MSTORE POP SWAP2 DUP7 ADD SWAP2 SWAP1 DUP7 ADD SWAP1 PUSH2 0x7F7 JUMP JUMPDEST SWAP10 SWAP9 POP POP POP POP POP POP POP POP POP JUMP JUMPDEST PUSH1 0x40 DUP1 DUP3 MSTORE DUP4 MLOAD SWAP1 DUP3 ADD DUP2 SWAP1 MSTORE PUSH1 0x0 SWAP1 PUSH1 0x20 SWAP1 PUSH1 0x60 DUP5 ADD SWAP1 DUP3 DUP8 ADD DUP5 JUMPDEST DUP3 DUP2 LT ISZERO PUSH2 0x96C JUMPI DUP2 MLOAD ISZERO ISZERO DUP5 MSTORE SWAP3 DUP5 ADD SWAP3 SWAP1 DUP5 ADD SWAP1 PUSH1 0x1 ADD PUSH2 0x94E JUMP JUMPDEST POP POP POP DUP4 DUP2 SUB DUP3 DUP6 ADD MSTORE DUP5 MLOAD DUP1 DUP3 MSTORE DUP3 DUP3 ADD SWAP1 PUSH1 0x5 DUP2 SWAP1 SHL DUP4 ADD DUP5 ADD DUP8 DUP6 ADD PUSH1 0x0 JUMPDEST DUP4 DUP2 LT ISZERO PUSH2 0x9DA JUMPI PUSH32 0xFFFFFFFFFFFFFFFFFFFFFFFFFFFFFFFFFFFFFFFFFFFFFFFFFFFFFFFFFFFFFFE0 DUP7 DUP5 SUB ADD DUP6 MSTORE PUSH2 0x9C8 DUP4 DUP4 MLOAD PUSH2 0x64A JUMP JUMPDEST SWAP5 DUP8 ADD SWAP5 SWAP3 POP SWAP1 DUP7 ADD SWAP1 PUSH1 0x1 ADD PUSH2 0x98E JUMP JUMPDEST POP SWAP1 SWAP10 SWAP9 POP POP POP POP POP POP POP POP POP JUMP JUMPDEST PUSH32 0x4E487B7100000000000000000000000000000000000000000000000000000000 PUSH1 0x0 MSTORE PUSH1 0x32 PUSH1 0x4 MSTORE PUSH1 0x24 PUSH1 0x0 REVERT JUMPDEST PUSH1 0x0 DUP3 MLOAD PUSH2 0xA2A DUP2 DUP5 PUSH1 0x20 DUP8 ADD PUSH2 0x626 JUMP JUMPDEST SWAP2 SWAP1 SWAP2 ADD SWAP3 SWAP2 POP POP JUMP JUMPDEST DUP3 DUP2 MSTORE PUSH1 0x40 PUSH1 0x20 DUP3 ADD MSTORE PUSH1 0x0 PUSH2 0xA4D PUSH1 0x40 DUP4 ADD DUP5 PUSH2 0x64A JUMP JUMPDEST SWAP5 SWAP4 POP POP POP POP JUMP JUMPDEST PUSH1 0x0 PUSH32 0xFFFFFFFFFFFFFFFFFFFFFFFFFFFFFFFFFFFFFFFFFFFFFFFFFFFFFFFFFFFFFFFF DUP3 SUB PUSH2 0xAAD JUMPI PUSH32 0x4E487B7100000000000000000000000000000000000000000000000000000000 PUSH1 0x0 MSTORE PUSH1 0x11 PUSH1 0x4 MSTORE PUSH1 0x24 PUSH1 0x0 REVERT JUMPDEST POP PUSH1 0x1 ADD SWAP1 JUMP INVALID LOG2 PUSH5 0x6970667358 0x22 SLT KECCAK256 0xDC STATICCALL 0x5C 0xFC 0xD4 AND 0x5E 0xB2 DUP16 SWAP8 0xEB 0xCB SWAP11 0xC3 0xB9 DUP9 DUP3 SUB ORIGIN CALL 0xD2 0x4D RETURNDATACOPY 0xB2 0xCD 0x4B MLOAD PUSH16 0xF761A49264736F6C6343000812003300 "
				}
			},
			"userdoc": {
				"kind": "user",
				"methods": {},
				"version": 1
			}
		}
	}
}