{
	"contracts/modules/utils/RequireUtils.sol": {
		"RequireUtils": {
			"abi": [
				{
					"inputs": [
						{
							"internalType": "address",
							"name": "_wallet",
							"type": "address"
						},
						{
							"internalType": "uint256",
							"name": "_nonce",
							"type": "uint256"
						}
					],
					"name": "requireMinNonce",
					"outputs": [],
					"stateMutability": "view",
					"type": "function"
				},
				{
					"inputs": [
						{
							"internalType": "uint256",
							"name": "_expiration",
							"type": "uint256"
						}
					],
					"name": "requireNonExpired",
					"outputs": [],
					"stateMutability": "view",
					"type": "function"
				}
			],
			"devdoc": {
				"kind": "dev",
				"methods": {
					"requireMinNonce(address,uint256)": {
						"details": "Used as an optional transaction on a Sequence batch, to define transaction execution order",
						"params": {
							"_nonce": "Required nonce",
							"_wallet": "Sequence wallet"
						}
					},
					"requireNonExpired(uint256)": {
						"details": "Used as an optional transaction on a Sequence batch, to create expirable transactions.",
						"params": {
							"_expiration": "Expiration to check"
						}
					}
				},
				"version": 1
			},
			"evm": {
				"bytecode": {
					"linkReferences": {},
					"object": "608060405234801561001057600080fd5b506102ee806100206000396000f3fe608060405234801561001057600080fd5b50600436106100365760003560e01c80637f29d5381461003b578063b472f0a214610050575b600080fd5b61004e610049366004610241565b610063565b005b61004e61005e36600461025a565b6100fa565b8042106100f7576040517f08c379a000000000000000000000000000000000000000000000000000000000815260206004820152602760248201527f526571756972655574696c7323726571756972654e6f6e457870697265643a2060448201527f455850495245440000000000000000000000000000000000000000000000000060648201526084015b60405180910390fd5b50565b600080606083901c6bffffffffffffffffffffffff84166040517f8c3f556300000000000000000000000000000000000000000000000000000000815260048101839052919350915060009073ffffffffffffffffffffffffffffffffffffffff861690638c3f556390602401602060405180830381865afa158015610184573d6000803e3d6000fd5b505050506040513d601f19601f820116820180604052508101906101a8919061029f565b90508181101561023a576040517f08c379a000000000000000000000000000000000000000000000000000000000815260206004820152603260248201527f526571756972655574696c7323726571756972654d696e4e6f6e63653a204e4f60448201527f4e43455f42454c4f575f5245515549524544000000000000000000000000000060648201526084016100ee565b5050505050565b60006020828403121561025357600080fd5b5035919050565b6000806040838503121561026d57600080fd5b823573ffffffffffffffffffffffffffffffffffffffff8116811461029157600080fd5b946020939093013593505050565b6000602082840312156102b157600080fd5b505191905056fea26469706673582212209c1a3f4087407aba342e48af71808f3bdfa70ab238bcaa21e4d160a881cecd5e64736f6c63430008120033",
					"opcodes": "PUSH1 0x80 PUSH1 0x40 MSTORE CALLVALUE DUP1 ISZERO PUSH2 0x10 JUMPI PUSH1 0x0 DUP1 REVERT JUMPDEST POP PUSH2 0x2EE DUP1 PUSH2 0x20 PUSH1 0x0 CODECOPY PUSH1 0x0 RETURN INVALID PUSH1 0x80 PUSH1 0x40 MSTORE CALLVALUE DUP1 ISZERO PUSH2 0x10 JUMPI PUSH1 0x0 DUP1 REVERT JUMPDEST POP PUSH1 0x4 CALLDATASIZE LT PUSH2 0x36 JUMPI PUSH1 0x0 CALLDATALOAD PUSH1 0xE0 SHR DUP1 PUSH4 0x7F29D538 EQ PUSH2 0x3B JUMPI DUP1 PUSH4 0xB472F0A2 EQ PUSH2 0x50 JUMPI JUMPDEST PUSH1 0x0 DUP1 REVERT JUMPDEST PUSH2 0x4E PUSH2 0x49 CALLDATASIZE PUSH1 0x4 PUSH2 0x241 JUMP JUMPDEST PUSH2 0x63 JUMP JUMPDEST STOP JUMPDEST PUSH2 0x4E PUSH2 0x5E CALLDATASIZE PUSH1 0x4 PUSH2 0x25A JUMP JUMPDEST PUSH2 0xFA JUMP JUMPDEST DUP1 TIMESTAMP LT PUSH2 0xF7 JUMPI PUSH1 0x40 MLOAD PUSH32 0x8C379A000000000000000000000000000000000000000000000000000000000 DUP2 MSTORE PUSH1 0x20 PUSH1 0x4 DUP3 ADD MSTORE PUSH1 0x27 PUSH1 0x24 DUP3 ADD MSTORE PUSH32 0x526571756972655574696C7323726571756972654E6F6E457870697265643A20 PUSH1 0x44 DUP3 ADD MSTORE PUSH32 0x4558504952454400000000000000000000000000000000000000000000000000 PUSH1 0x64 DUP3 ADD MSTORE PUSH1 0x84 ADD JUMPDEST PUSH1 0x40 MLOAD DUP1 SWAP2 SUB SWAP1 REVERT JUMPDEST POP JUMP JUMPDEST PUSH1 0x0 DUP1 PUSH1 0x60 DUP4 SWAP1 SHR PUSH12 0xFFFFFFFFFFFFFFFFFFFFFFFF DUP5 AND PUSH1 0x40 MLOAD PUSH32 0x8C3F556300000000000000000000000000000000000000000000000000000000 DUP2 MSTORE PUSH1 0x4 DUP2 ADD DUP4 SWAP1 MSTORE SWAP2 SWAP4 POP SWAP2 POP PUSH1 0x0 SWAP1 PUSH20 0xFFFFFFFFFFFFFFFFFFFFFFFFFFFFFFFFFFFFFFFF DUP7 AND SWAP1 PUSH4 0x8C3F5563 SWAP1 PUSH1 0x24 ADD PUSH1 0x20 PUSH1 0x40 MLOAD DUP1 DUP4 SUB DUP2 DUP7 GAS STATICCALL ISZERO DUP1 ISZERO PUSH2 0x184 JUMPI RETURNDATASIZE PUSH1 0x0 DUP1 RETURNDATACOPY RETURNDATASIZE PUSH1 0x0 REVERT JUMPDEST POP POP POP POP PUSH1 0x40 MLOAD RETURNDATASIZE PUSH1 0x1F NOT PUSH1 0x1F DUP3 ADD AND DUP3 ADD DUP1 PUSH1 0x40 MSTORE POP DUP2 ADD SWAP1 PUSH2 0x1A8 SWAP2 SWAP1 PUSH2 0x29F JUMP JUMPDEST SWAP1 POP DUP2 DUP2 LT ISZERO PUSH2 0x23A JUMPI PUSH1 0x40 MLOAD PUSH32 0x8C379A000000000000000000000000000000000000000000000000000000000 DUP2 MSTORE PUSH1 0x20 PUSH1 0x4 DUP3 ADD MSTORE PUSH1 0x32 PUSH1 0x24 DUP3 ADD MSTORE PUSH32 0x526571756972655574696C7323726571756972654D696E4E6F6E63653A204E4F PUSH1 0x44 DUP3 ADD MSTORE PUSH32 0x4E43455F42454C4F575F52455155495245440000000000000000000000000000 PUSH1 0x64 DUP3 ADD MSTORE PUSH1 0x84 ADD PUSH2 0xEE JUMP JUMPDEST POP POP POP POP POP JUMP JUMPDEST PUSH1 0x0 PUSH1 0x20 DUP3 DUP5 SUB SLT ISZERO PUSH2 0x253 JUMPI PUSH1 0x0 DUP1 REVERT JUMPDEST POP CALLDATALOAD SWAP2 SWAP1 POP JUMP JUMPDEST PUSH1 0x0 DUP1 PUSH1 0x40 DUP4 DUP6 SUB SLT ISZERO PUSH2 0x26D JUMPI PUSH1 0x0 DUP1 REVERT JUMPDEST DUP3 CALLDATALOAD PUSH20 0xFFFFFFFFFFFFFFFFFFFFFFFFFFFFFFFFFFFFFFFF DUP2 AND DUP2 EQ PUSH2 0x291 JUMPI PUSH1 0x0 DUP1 REVERT JUMPDEST SWAP5 PUSH1 0x20 SWAP4 SWAP1 SWAP4 ADD CALLDATALOAD SWAP4 POP POP POP JUMP JUMPDEST PUSH1 0x0 PUSH1 0x20 DUP3 DUP5 SUB SLT ISZERO PUSH2 0x2B1 JUMPI PUSH1 0x0 DUP1 REVERT JUMPDEST POP MLOAD SWAP2 SWAP1 POP JUMP INVALID LOG2 PUSH5 0x6970667358 0x22 SLT KECCAK256 SWAP13 BYTE EXTCODEHASH BLOCKHASH DUP8 BLOCKHASH PUSH27 0xBA342E48AF71808F3BDFA70AB238BCAA21E4D160A881CECD5E6473 PUSH16 0x6C634300081200330000000000000000 "
				}
			},
			"userdoc": {
				"kind": "user",
				"methods": {
					"requireMinNonce(address,uint256)": {
						"notice": "Validates that a given wallet has reached a given nonce"
					},
					"requireNonExpired(uint256)": {
						"notice": "Validates that a given expiration hasn't expired"
					}
				},
				"version": 1
			}
		}
	}
}