{
	"contracts/Factory.sol": {
		"Factory": {
			"abi": [
				{
					"inputs": [
						{
							"internalType": "address",
							"name": "_mainModule",
							"type": "address"
						},
						{
							"internalType": "bytes32",
							"name": "_salt",
							"type": "bytes32"
						}
					],
					"name": "DeployFailed",
					"type": "error"
				},
				{
					"inputs": [
						{
							"internalType": "address",
							"name": "_mainModule",
							"type": "address"
						},
						{
							"internalType": "bytes32",
							"name": "_salt",
							"type": "bytes32"
						}
					],
					"name": "deploy",
					"outputs": [
						{
							"internalType": "address",
							"name": "_contract",
							"type": "address"
						}
					],
					"stateMutability": "payable",
					"type": "function"
				}
			],
			"devdoc": {
				"kind": "dev",
				"methods": {
					"deploy(address,bytes32)": {
						"details": "It is recommended to not have more than 200 signers as opcode repricing      could make transactions impossible to execute as all the signers must be      passed for each transaction.",
						"params": {
							"_mainModule": "Address of the main module to be used by the wallet",
							"_salt": "Salt used to generate the wallet, which is the imageHash       of the wallet's configuration."
						}
					}
				},
				"version": 1
			},
			"evm": {
				"bytecode": {
					"linkReferences": {},
					"object": "608060405234801561001057600080fd5b5061020b806100206000396000f3fe60806040526004361061001e5760003560e01c806332c02a1414610023575b600080fd5b610036610031366004610136565b61005f565b60405173ffffffffffffffffffffffffffffffffffffffff909116815260200160405180910390f35b6000806040518060600160405280602881526020016101ae602891398473ffffffffffffffffffffffffffffffffffffffff166040516020016100a392919061017b565b60405160208183030381529060405290508281516020830134f5915073ffffffffffffffffffffffffffffffffffffffff821661012f576040517f8caac80500000000000000000000000000000000000000000000000000000000815273ffffffffffffffffffffffffffffffffffffffff851660048201526024810184905260440160405180910390fd5b5092915050565b6000806040838503121561014957600080fd5b823573ffffffffffffffffffffffffffffffffffffffff8116811461016d57600080fd5b946020939093013593505050565b6000835160005b8181101561019c5760208187018101518583015201610182565b50919091019182525060200191905056fe603a600e3d39601a805130553df3363d3d373d3d3d363d30545af43d82803e903d91601857fd5bf3a26469706673582212203e46c5b0f3a6bebab844eb5e4594ebb07eac1ae451f779e533ead5e744b1a2a664736f6c63430008120033",
					"opcodes": "PUSH1 0x80 PUSH1 0x40 MSTORE CALLVALUE DUP1 ISZERO PUSH2 0x10 JUMPI PUSH1 0x0 DUP1 REVERT JUMPDEST POP PUSH2 0x20B DUP1 PUSH2 0x20 PUSH1 0x0 CODECOPY PUSH1 0x0 RETURN INVALID PUSH1 0x80 PUSH1 0x40 MSTORE PUSH1 0x4 CALLDATASIZE LT PUSH2 0x1E JUMPI PUSH1 0x0 CALLDATALOAD PUSH1 0xE0 SHR DUP1 PUSH4 0x32C02A14 EQ PUSH2 0x23 JUMPI JUMPDEST PUSH1 0x0 DUP1 REVERT JUMPDEST PUSH2 0x36 PUSH2 0x31 CALLDATASIZE PUSH1 0x4 PUSH2 0x136 JUMP JUMPDEST PUSH2 0x5F JUMP JUMPDEST PUSH1 0x40 MLOAD PUSH20 0xFFFFFFFFFFFFFFFFFFFFFFFFFFFFFFFFFFFFFFFF SWAP1 SWAP2 AND DUP2 MSTORE PUSH1 0x20 ADD PUSH1 0x40 MLOAD DUP1 SWAP2 SUB SWAP1 RETURN JUMPDEST PUSH1 0x0 DUP1 PUSH1 0x40 MLOAD DUP1 PUSH1 0x60 ADD PUSH1 0x40 MSTORE DUP1 PUSH1 0x28 DUP2 MSTORE PUSH1 0x20 ADD PUSH2 0x1AE PUSH1 0x28 SWAP2 CODECOPY DUP5 PUSH20 0xFFFFFFFFFFFFFFFFFFFFFFFFFFFFFFFFFFFFFFFF AND PUSH1 0x40 MLOAD PUSH1 0x20 ADD PUSH2 0xA3 SWAP3 SWAP2 SWAP1 PUSH2 0x17B JUMP JUMPDEST PUSH1 0x40 MLOAD PUSH1 0x20 DUP2 DUP4 SUB SUB DUP2 MSTORE SWAP1 PUSH1 0x40 MSTORE SWAP1 POP DUP3 DUP2 MLOAD PUSH1 0x20 DUP4 ADD CALLVALUE CREATE2 SWAP2 POP PUSH20 0xFFFFFFFFFFFFFFFFFFFFFFFFFFFFFFFFFFFFFFFF DUP3 AND PUSH2 0x12F JUMPI PUSH1 0x40 MLOAD PUSH32 0x8CAAC80500000000000000000000000000000000000000000000000000000000 DUP2 MSTORE PUSH20 0xFFFFFFFFFFFFFFFFFFFFFFFFFFFFFFFFFFFFFFFF DUP6 AND PUSH1 0x4 DUP3 ADD MSTORE PUSH1 0x24 DUP2 ADD DUP5 SWAP1 MSTORE PUSH1 0x44 ADD PUSH1 0x40 MLOAD DUP1 SWAP2 SUB SWAP1 REVERT JUMPDEST POP SWAP3 SWAP2 POP POP JUMP JUMPDEST PUSH1 0x0 DUP1 PUSH1 0x40 DUP4 DUP6 SUB SLT ISZERO PUSH2 0x149 JUMPI PUSH1 0x0 DUP1 REVERT JUMPDEST DUP3 CALLDATALOAD PUSH20 0xFFFFFFFFFFFFFFFFFFFFFFFFFFFFFFFFFFFFFFFF DUP2 AND DUP2 EQ PUSH2 0x16D JUMPI PUSH1 0x0 DUP1 REVERT JUMPDEST SWAP5 PUSH1 0x20 SWAP4 SWAP1 SWAP4 ADD CALLDATALOAD SWAP4 POP POP POP JUMP JUMPDEST PUSH1 0x0 DUP4 MLOAD PUSH1 0x0 JUMPDEST DUP2 DUP2 LT ISZERO PUSH2 0x19C JUMPI PUSH1 0x20 DUP2 DUP8 ADD DUP2 ADD MLOAD DUP6 DUP4 ADD MSTORE ADD PUSH2 0x182 JUMP JUMPDEST POP SWAP2 SWAP1 SWAP2 ADD SWAP2 DUP3 MSTORE POP PUSH1 0x20 ADD SWAP2 SWAP1 POP JUMP INVALID PUSH1 0x3A PUSH1 0xE RETURNDATASIZE CODECOPY PUSH1 0x1A DUP1 MLOAD ADDRESS SSTORE RETURNDATASIZE RETURN CALLDATASIZE RETURNDATASIZE RETURNDATASIZE CALLDATACOPY RETURNDATASIZE RETURNDATASIZE RETURNDATASIZE CALLDATASIZE RETURNDATASIZE ADDRESS SLOAD GAS DELEGATECALL RETURNDATASIZE DUP3 DUP1 RETURNDATACOPY SWAP1 RETURNDATASIZE SWAP2 PUSH1 0x18 JUMPI REVERT JUMPDEST RETURN LOG2 PUSH5 0x6970667358 0x22 SLT KECCAK256 RETURNDATACOPY CHAINID 0xC5 0xB0 RETURN 0xA6 0xBE 0xBA 0xB8 PREVRANDAO 0xEB 0x5E GASLIMIT SWAP5 0xEB 0xB0 PUSH31 0xAC1AE451F779E533EAD5E744B1A2A664736F6C634300081200330000000000 "
				}
			},
			"userdoc": {
				"kind": "user",
				"methods": {
					"deploy(address,bytes32)": {
						"notice": "Will deploy a new wallet instance"
					}
				},
				"version": 1
			}
		}
	}
}