{
	"contracts/modules/MainModule.sol": {
		"MainModule": {
			"abi": [
				{
					"inputs": [
						{
							"internalType": "address",
							"name": "_factory",
							"type": "address"
						},
						{
							"internalType": "address",
							"name": "_mainModuleUpgradable",
							"type": "address"
						}
					],
					"stateMutability": "nonpayable",
					"type": "constructor"
				},
				{
					"inputs": [
						{
							"internalType": "uint256",
							"name": "_space",
							"type": "uint256"
						},
						{
							"internalType": "uint256",
							"name": "_provided",
							"type": "uint256"
						},
						{
							"internalType": "uint256",
							"name": "_current",
							"type": "uint256"
						}
					],
					"name": "BadNonce",
					"type": "error"
				},
				{
					"inputs": [
						{
							"internalType": "bytes",
							"name": "_code",
							"type": "bytes"
						}
					],
					"name": "CreateFailed",
					"type": "error"
				},
				{
					"inputs": [],
					"name": "EmptySignature",
					"type": "error"
				},
				{
					"inputs": [
						{
							"internalType": "bytes4",
							"name": "_signature",
							"type": "bytes4"
						}
					],
					"name": "HookAlreadyExists",
					"type": "error"
				},
				{
					"inputs": [
						{
							"internalType": "bytes4",
							"name": "_signature",
							"type": "bytes4"
						}
					],
					"name": "HookDoesNotExist",
					"type": "error"
				},
				{
					"inputs": [],
					"name": "ImageHashIsZero",
					"type": "error"
				},
				{
					"inputs": [
						{
							"internalType": "address",
							"name": "_implementation",
							"type": "address"
						}
					],
					"name": "InvalidImplementation",
					"type": "error"
				},
				{
					"inputs": [
						{
							"internalType": "bytes32",
							"name": "_hash",
							"type": "bytes32"
						},
						{
							"internalType": "address",
							"name": "_addr",
							"type": "address"
						},
						{
							"internalType": "bytes",
							"name": "_signature",
							"type": "bytes"
						}
					],
					"name": "InvalidNestedSignature",
					"type": "error"
				},
				{
					"inputs": [
						{
							"internalType": "bytes",
							"name": "_signature",
							"type": "bytes"
						},
						{
							"internalType": "bytes32",
							"name": "_s",
							"type": "bytes32"
						}
					],
					"name": "InvalidSValue",
					"type": "error"
				},
				{
					"inputs": [
						{
							"internalType": "bytes32",
							"name": "_hash",
							"type": "bytes32"
						},
						{
							"internalType": "bytes",
							"name": "_signature",
							"type": "bytes"
						}
					],
					"name": "InvalidSignature",
					"type": "error"
				},
				{
					"inputs": [
						{
							"internalType": "uint256",
							"name": "_flag",
							"type": "uint256"
						}
					],
					"name": "InvalidSignatureFlag",
					"type": "error"
				},
				{
					"inputs": [
						{
							"internalType": "bytes",
							"name": "_signature",
							"type": "bytes"
						}
					],
					"name": "InvalidSignatureLength",
					"type": "error"
				},
				{
					"inputs": [
						{
							"internalType": "bytes1",
							"name": "_type",
							"type": "bytes1"
						}
					],
					"name": "InvalidSignatureType",
					"type": "error"
				},
				{
					"inputs": [
						{
							"internalType": "bytes",
							"name": "_signature",
							"type": "bytes"
						},
						{
							"internalType": "uint256",
							"name": "_v",
							"type": "uint256"
						}
					],
					"name": "InvalidVValue",
					"type": "error"
				},
				{
					"inputs": [
						{
							"internalType": "bytes",
							"name": "_signature",
							"type": "bytes"
						},
						{
							"internalType": "uint256",
							"name": "threshold",
							"type": "uint256"
						},
						{
							"internalType": "uint256",
							"name": "_weight",
							"type": "uint256"
						}
					],
					"name": "LowWeightChainedSignature",
					"type": "error"
				},
				{
					"inputs": [
						{
							"internalType": "uint256",
							"name": "_index",
							"type": "uint256"
						},
						{
							"internalType": "uint256",
							"name": "_requested",
							"type": "uint256"
						},
						{
							"internalType": "uint256",
							"name": "_available",
							"type": "uint256"
						}
					],
					"name": "NotEnoughGas",
					"type": "error"
				},
				{
					"inputs": [],
					"name": "OnlyDelegatecall",
					"type": "error"
				},
				{
					"inputs": [
						{
							"internalType": "address",
							"name": "_sender",
							"type": "address"
						},
						{
							"internalType": "address",
							"name": "_self",
							"type": "address"
						}
					],
					"name": "OnlySelfAuth",
					"type": "error"
				},
				{
					"inputs": [
						{
							"internalType": "bytes",
							"name": "_signature",
							"type": "bytes"
						}
					],
					"name": "SignerIsAddress0",
					"type": "error"
				},
				{
					"inputs": [
						{
							"internalType": "bytes",
							"name": "_signature",
							"type": "bytes"
						},
						{
							"internalType": "uint256",
							"name": "_type",
							"type": "uint256"
						},
						{
							"internalType": "bool",
							"name": "_recoverMode",
							"type": "bool"
						}
					],
					"name": "UnsupportedSignatureType",
					"type": "error"
				},
				{
					"inputs": [
						{
							"internalType": "uint256",
							"name": "_current",
							"type": "uint256"
						},
						{
							"internalType": "uint256",
							"name": "_prev",
							"type": "uint256"
						}
					],
					"name": "WrongChainedCheckpointOrder",
					"type": "error"
				},
				{
					"anonymous": false,
					"inputs": [
						{
							"indexed": false,
							"internalType": "address",
							"name": "_contract",
							"type": "address"
						}
					],
					"name": "CreatedContract",
					"type": "event"
				},
				{
					"anonymous": false,
					"inputs": [
						{
							"indexed": false,
							"internalType": "bytes4",
							"name": "_signature",
							"type": "bytes4"
						},
						{
							"indexed": false,
							"internalType": "address",
							"name": "_implementation",
							"type": "address"
						}
					],
					"name": "DefinedHook",
					"type": "event"
				},
				{
					"anonymous": false,
					"inputs": [
						{
							"indexed": false,
							"internalType": "bytes32",
							"name": "_hash",
							"type": "bytes32"
						}
					],
					"name": "IPFSRootUpdated",
					"type": "event"
				},
				{
					"anonymous": false,
					"inputs": [
						{
							"indexed": false,
							"internalType": "bytes32",
							"name": "newImageHash",
							"type": "bytes32"
						}
					],
					"name": "ImageHashUpdated",
					"type": "event"
				},
				{
					"anonymous": false,
					"inputs": [
						{
							"indexed": false,
							"internalType": "address",
							"name": "newImplementation",
							"type": "address"
						}
					],
					"name": "ImplementationUpdated",
					"type": "event"
				},
				{
					"anonymous": false,
					"inputs": [
						{
							"indexed": false,
							"internalType": "uint256",
							"name": "_space",
							"type": "uint256"
						},
						{
							"indexed": false,
							"internalType": "uint256",
							"name": "_newNonce",
							"type": "uint256"
						}
					],
					"name": "NonceChange",
					"type": "event"
				},
				{
					"anonymous": false,
					"inputs": [
						{
							"indexed": true,
							"internalType": "bytes32",
							"name": "_imageHash",
							"type": "bytes32"
						},
						{
							"indexed": false,
							"internalType": "uint256",
							"name": "_expiration",
							"type": "uint256"
						}
					],
					"name": "SetExtraImageHash",
					"type": "event"
				},
				{
					"anonymous": false,
					"inputs": [
						{
							"indexed": true,
							"internalType": "bytes32",
							"name": "_tx",
							"type": "bytes32"
						},
						{
							"indexed": false,
							"internalType": "uint256",
							"name": "_index",
							"type": "uint256"
						}
					],
					"name": "TxExecuted",
					"type": "event"
				},
				{
					"anonymous": false,
					"inputs": [
						{
							"indexed": true,
							"internalType": "bytes32",
							"name": "_tx",
							"type": "bytes32"
						},
						{
							"indexed": false,
							"internalType": "uint256",
							"name": "_index",
							"type": "uint256"
						},
						{
							"indexed": false,
							"internalType": "bytes",
							"name": "_reason",
							"type": "bytes"
						}
					],
					"name": "TxFailed",
					"type": "event"
				},
				{
					"stateMutability": "payable",
					"type": "fallback"
				},
				{
					"inputs": [],
					"name": "FACTORY",
					"outputs": [
						{
							"internalType": "address",
							"name": "",
							"type": "address"
						}
					],
					"stateMutability": "view",
					"type": "function"
				},
				{
					"inputs": [],
					"name": "INIT_CODE_HASH",
					"outputs": [
						{
							"internalType": "bytes32",
							"name": "",
							"type": "bytes32"
						}
					],
					"stateMutability": "view",
					"type": "function"
				},
				{
					"inputs": [],
					"name": "SET_IMAGE_HASH_TYPE_HASH",
					"outputs": [
						{
							"internalType": "bytes32",
							"name": "",
							"type": "bytes32"
						}
					],
					"stateMutability": "view",
					"type": "function"
				},
				{
					"inputs": [],
					"name": "UPGRADEABLE_IMPLEMENTATION",
					"outputs": [
						{
							"internalType": "address",
							"name": "",
							"type": "address"
						}
					],
					"stateMutability": "view",
					"type": "function"
				},
				{
					"inputs": [
						{
							"internalType": "bytes4",
							"name": "_signature",
							"type": "bytes4"
						},
						{
							"internalType": "address",
							"name": "_implementation",
							"type": "address"
						}
					],
					"name": "addHook",
					"outputs": [],
					"stateMutability": "nonpayable",
					"type": "function"
				},
				{
					"inputs": [
						{
							"internalType": "bytes32[]",
							"name": "_imageHashes",
							"type": "bytes32[]"
						}
					],
					"name": "clearExtraImageHashes",
					"outputs": [],
					"stateMutability": "nonpayable",
					"type": "function"
				},
				{
					"inputs": [
						{
							"internalType": "bytes",
							"name": "_code",
							"type": "bytes"
						}
					],
					"name": "createContract",
					"outputs": [
						{
							"internalType": "address",
							"name": "addr",
							"type": "address"
						}
					],
					"stateMutability": "payable",
					"type": "function"
				},
				{
					"inputs": [
						{
							"components": [
								{
									"internalType": "bool",
									"name": "delegateCall",
									"type": "bool"
								},
								{
									"internalType": "bool",
									"name": "revertOnError",
									"type": "bool"
								},
								{
									"internalType": "uint256",
									"name": "gasLimit",
									"type": "uint256"
								},
								{
									"internalType": "address",
									"name": "target",
									"type": "address"
								},
								{
									"internalType": "uint256",
									"name": "value",
									"type": "uint256"
								},
								{
									"internalType": "bytes",
									"name": "data",
									"type": "bytes"
								}
							],
							"internalType": "struct IModuleCalls.Transaction[]",
							"name": "_txs",
							"type": "tuple[]"
						},
						{
							"internalType": "uint256",
							"name": "_nonce",
							"type": "uint256"
						},
						{
							"internalType": "bytes",
							"name": "_signature",
							"type": "bytes"
						}
					],
					"name": "execute",
					"outputs": [],
					"stateMutability": "nonpayable",
					"type": "function"
				},
				{
					"inputs": [
						{
							"internalType": "bytes32",
							"name": "_imageHash",
							"type": "bytes32"
						}
					],
					"name": "extraImageHash",
					"outputs": [
						{
							"internalType": "uint256",
							"name": "",
							"type": "uint256"
						}
					],
					"stateMutability": "view",
					"type": "function"
				},
				{
					"inputs": [],
					"name": "ipfsRoot",
					"outputs": [
						{
							"internalType": "string",
							"name": "",
							"type": "string"
						}
					],
					"stateMutability": "view",
					"type": "function"
				},
				{
					"inputs": [],
					"name": "ipfsRootBytes32",
					"outputs": [
						{
							"internalType": "bytes32",
							"name": "",
							"type": "bytes32"
						}
					],
					"stateMutability": "view",
					"type": "function"
				},
				{
					"inputs": [
						{
							"internalType": "bytes32",
							"name": "_hash",
							"type": "bytes32"
						},
						{
							"internalType": "bytes",
							"name": "_signatures",
							"type": "bytes"
						}
					],
					"name": "isValidSignature",
					"outputs": [
						{
							"internalType": "bytes4",
							"name": "",
							"type": "bytes4"
						}
					],
					"stateMutability": "view",
					"type": "function"
				},
				{
					"inputs": [
						{
							"internalType": "bytes",
							"name": "_data",
							"type": "bytes"
						},
						{
							"internalType": "bytes",
							"name": "_signatures",
							"type": "bytes"
						}
					],
					"name": "isValidSignature",
					"outputs": [
						{
							"internalType": "bytes4",
							"name": "",
							"type": "bytes4"
						}
					],
					"stateMutability": "view",
					"type": "function"
				},
				{
					"inputs": [],
					"name": "nonce",
					"outputs": [
						{
							"internalType": "uint256",
							"name": "",
							"type": "uint256"
						}
					],
					"stateMutability": "view",
					"type": "function"
				},
				{
					"inputs": [
						{
							"internalType": "address",
							"name": "",
							"type": "address"
						},
						{
							"internalType": "address",
							"name": "",
							"type": "address"
						},
						{
							"internalType": "uint256[]",
							"name": "",
							"type": "uint256[]"
						},
						{
							"internalType": "uint256[]",
							"name": "",
							"type": "uint256[]"
						},
						{
							"internalType": "bytes",
							"name": "",
							"type": "bytes"
						}
					],
					"name": "onERC1155BatchReceived",
					"outputs": [
						{
							"internalType": "bytes4",
							"name": "",
							"type": "bytes4"
						}
					],
					"stateMutability": "nonpayable",
					"type": "function"
				},
				{
					"inputs": [
						{
							"internalType": "address",
							"name": "",
							"type": "address"
						},
						{
							"internalType": "address",
							"name": "",
							"type": "address"
						},
						{
							"internalType": "uint256",
							"name": "",
							"type": "uint256"
						},
						{
							"internalType": "uint256",
							"name": "",
							"type": "uint256"
						},
						{
							"internalType": "bytes",
							"name": "",
							"type": "bytes"
						}
					],
					"name": "onERC1155Received",
					"outputs": [
						{
							"internalType": "bytes4",
							"name": "",
							"type": "bytes4"
						}
					],
					"stateMutability": "nonpayable",
					"type": "function"
				},
				{
					"inputs": [
						{
							"internalType": "address",
							"name": "",
							"type": "address"
						},
						{
							"internalType": "address",
							"name": "",
							"type": "address"
						},
						{
							"internalType": "uint256",
							"name": "",
							"type": "uint256"
						},
						{
							"internalType": "bytes",
							"name": "",
							"type": "bytes"
						}
					],
					"name": "onERC721Received",
					"outputs": [
						{
							"internalType": "bytes4",
							"name": "",
							"type": "bytes4"
						}
					],
					"stateMutability": "nonpayable",
					"type": "function"
				},
				{
					"inputs": [
						{
							"internalType": "bytes4",
							"name": "_signature",
							"type": "bytes4"
						}
					],
					"name": "readHook",
					"outputs": [
						{
							"internalType": "address",
							"name": "",
							"type": "address"
						}
					],
					"stateMutability": "view",
					"type": "function"
				},
				{
					"inputs": [
						{
							"internalType": "uint256",
							"name": "_space",
							"type": "uint256"
						}
					],
					"name": "readNonce",
					"outputs": [
						{
							"internalType": "uint256",
							"name": "",
							"type": "uint256"
						}
					],
					"stateMutability": "view",
					"type": "function"
				},
				{
					"inputs": [
						{
							"internalType": "bytes4",
							"name": "_signature",
							"type": "bytes4"
						}
					],
					"name": "removeHook",
					"outputs": [],
					"stateMutability": "nonpayable",
					"type": "function"
				},
				{
					"inputs": [
						{
							"components": [
								{
									"internalType": "bool",
									"name": "delegateCall",
									"type": "bool"
								},
								{
									"internalType": "bool",
									"name": "revertOnError",
									"type": "bool"
								},
								{
									"internalType": "uint256",
									"name": "gasLimit",
									"type": "uint256"
								},
								{
									"internalType": "address",
									"name": "target",
									"type": "address"
								},
								{
									"internalType": "uint256",
									"name": "value",
									"type": "uint256"
								},
								{
									"internalType": "bytes",
									"name": "data",
									"type": "bytes"
								}
							],
							"internalType": "struct IModuleCalls.Transaction[]",
							"name": "_txs",
							"type": "tuple[]"
						}
					],
					"name": "selfExecute",
					"outputs": [],
					"stateMutability": "nonpayable",
					"type": "function"
				},
				{
					"inputs": [
						{
							"internalType": "bytes32",
							"name": "_imageHash",
							"type": "bytes32"
						},
						{
							"internalType": "uint256",
							"name": "_expiration",
							"type": "uint256"
						}
					],
					"name": "setExtraImageHash",
					"outputs": [],
					"stateMutability": "nonpayable",
					"type": "function"
				},
				{
					"inputs": [
						{
							"internalType": "bytes32",
							"name": "_digest",
							"type": "bytes32"
						},
						{
							"internalType": "bytes",
							"name": "_signature",
							"type": "bytes"
						}
					],
					"name": "signatureRecovery",
					"outputs": [
						{
							"internalType": "uint256",
							"name": "threshold",
							"type": "uint256"
						},
						{
							"internalType": "uint256",
							"name": "weight",
							"type": "uint256"
						},
						{
							"internalType": "bytes32",
							"name": "imageHash",
							"type": "bytes32"
						},
						{
							"internalType": "bytes32",
							"name": "subdigest",
							"type": "bytes32"
						},
						{
							"internalType": "uint256",
							"name": "checkpoint",
							"type": "uint256"
						}
					],
					"stateMutability": "view",
					"type": "function"
				},
				{
					"inputs": [
						{
							"internalType": "bytes4",
							"name": "_interfaceID",
							"type": "bytes4"
						}
					],
					"name": "supportsInterface",
					"outputs": [
						{
							"internalType": "bool",
							"name": "",
							"type": "bool"
						}
					],
					"stateMutability": "pure",
					"type": "function"
				},
				{
					"inputs": [
						{
							"internalType": "bytes32",
							"name": "_hash",
							"type": "bytes32"
						}
					],
					"name": "updateIPFSRoot",
					"outputs": [],
					"stateMutability": "nonpayable",
					"type": "function"
				},
				{
					"inputs": [
						{
							"internalType": "bytes32",
							"name": "_imageHash",
							"type": "bytes32"
						}
					],
					"name": "updateImageHash",
					"outputs": [],
					"stateMutability": "nonpayable",
					"type": "function"
				},
				{
					"inputs": [
						{
							"internalType": "bytes32",
							"name": "_imageHash",
							"type": "bytes32"
						},
						{
							"internalType": "bytes32",
							"name": "_ipfsRoot",
							"type": "bytes32"
						}
					],
					"name": "updateImageHashAndIPFS",
					"outputs": [],
					"stateMutability": "nonpayable",
					"type": "function"
				},
				{
					"inputs": [
						{
							"internalType": "address",
							"name": "_implementation",
							"type": "address"
						}
					],
					"name": "updateImplementation",
					"outputs": [],
					"stateMutability": "nonpayable",
					"type": "function"
				},
				{
					"stateMutability": "payable",
					"type": "receive"
				}
			],
			"devdoc": {
				"details": "If using a new main module, developers must ensure that all inherited      contracts by the main module don't conflict and are accounted for to be      supported by the supportsInterface method.",
				"kind": "dev",
				"methods": {
					"addHook(bytes4,address)": {
						"details": "Can't overwrite hooks that are part of the main module (those defined below)",
						"params": {
							"_implementation": "Hook implementation contract",
							"_signature": "Signature function linked to the hook"
						}
					},
					"createContract(bytes)": {
						"params": {
							"_code": "Creation code of the contract"
						},
						"returns": {
							"addr": "The address of the created contract"
						}
					},
					"execute((bool,bool,uint256,address,uint256,bytes)[],uint256,bytes)": {
						"details": "Relayers must ensure that the gasLimit specified for each transaction      is acceptable to them. A user could specify large enough that it could      consume all the gas available.",
						"params": {
							"_nonce": "Signature nonce (may contain an encoded space)",
							"_signature": "Encoded signature",
							"_txs": "Transactions to process"
						}
					},
					"isValidSignature(bytes,bytes)": {
						"details": "MUST return the correct magic value if the signature provided is valid for the provided data   > The bytes4 magic value to return when signature is valid is 0x20c13b0b : bytes4(keccak256(\"isValidSignature(bytes,bytes)\"))",
						"params": {
							"_data": "Arbitrary length data signed on the behalf of address(this)",
							"_signatures": "Signature byte array associated with _data.                    Encoded as abi.encode(Signature[], Configs)"
						},
						"returns": {
							"_0": "magicValue Magic value 0x20c13b0b if the signature is valid and 0x0 otherwise"
						}
					},
					"isValidSignature(bytes32,bytes)": {
						"details": "MUST return the correct magic value if the signature provided is valid for the provided hash   > The bytes4 magic value to return when signature is valid is 0x1626ba7e : bytes4(keccak256(\"isValidSignature(bytes32,bytes)\"))",
						"params": {
							"_hash": "keccak256 hash that was signed",
							"_signatures": "Signature byte array associated with _data.                    Encoded as abi.encode(Signature[], Configs)"
						},
						"returns": {
							"_0": "magicValue Magic value 0x1626ba7e if the signature is valid and 0x0 otherwise"
						}
					},
					"nonce()": {
						"details": "The default nonce space is 0x00",
						"returns": {
							"_0": "The next nonce"
						}
					},
					"onERC1155BatchReceived(address,address,uint256[],uint256[],bytes)": {
						"returns": {
							"_0": "`bytes4(keccak256(\"onERC1155BatchReceived(address,address,uint256[],uint256[],bytes)\"))`"
						}
					},
					"onERC1155Received(address,address,uint256,uint256,bytes)": {
						"returns": {
							"_0": "`bytes4(keccak256(\"onERC1155Received(address,address,uint256,uint256,bytes)\"))`"
						}
					},
					"onERC721Received(address,address,uint256,bytes)": {
						"returns": {
							"_0": "`bytes4(keccak256(\"onERC721Received(address,address,uint256,bytes)\"))`"
						}
					},
					"readHook(bytes4)": {
						"params": {
							"_signature": "Signature function"
						},
						"returns": {
							"_0": "The address of the implementation hook, address(0) if none"
						}
					},
					"readNonce(uint256)": {
						"params": {
							"_space": "Nonce space, each space keeps an independent nonce count"
						},
						"returns": {
							"_0": "The next nonce"
						}
					},
					"removeHook(bytes4)": {
						"details": "Can't remove hooks that are part of the main module (those defined below)      without upgrading the wallet",
						"params": {
							"_signature": "Signature function linked to the hook"
						}
					},
					"selfExecute((bool,bool,uint256,address,uint256,bytes)[])": {
						"params": {
							"_txs": "Transactions to execute"
						}
					},
					"signatureRecovery(bytes32,bytes)": {
						"details": "The signature must be prefixed with a type byte, which is used to determine the recovery method.",
						"params": {
							"_digest": "Digest of the signed data.",
							"_signature": "A Sequence signature."
						},
						"returns": {
							"checkpoint": "A nonce that is incremented every time a new configuration is set.",
							"imageHash": "The imageHash of the configuration that signed the message.",
							"subdigest": "A modified version of the original digest, unique for each wallet/network.",
							"threshold": "The required number of signatures needed to consider the signature valid.",
							"weight": "The actual number of signatures collected in the signature."
						}
					},
					"supportsInterface(bytes4)": {
						"params": {
							"_interfaceID": "The interface identifier, as specified in ERC-165"
						},
						"returns": {
							"_0": "`true` if the contract implements `_interfaceID`"
						}
					},
					"updateImageHash(bytes32)": {
						"params": {
							"_imageHash": "New required image hash of the signature"
						}
					},
					"updateImageHashAndIPFS(bytes32,bytes32)": {
						"details": "These two operations are often performed together, so this function      allows to save some gas by performing them in a single step.",
						"params": {
							"_imageHash": "The new image hash to be set.",
							"_ipfsRoot": "The new IPFS root to be set."
						}
					},
					"updateImplementation(address)": {
						"details": "WARNING Updating the implementation can brick the wallet",
						"params": {
							"_implementation": "New main module implementation"
						}
					}
				},
				"version": 1
			},
			"evm": {
				"bytecode": {
					"linkReferences": {},
					"object": "6101006040523480156200001257600080fd5b5060405162003a1838038062003a188339810160408190526200003591620000c2565b30608052604080516060810190915260288082528391839160009190620039f060208301396040516200006e91903090602001620000fa565b60408051601f19818403018152919052805160209091012060a052506001600160a01b0391821660c0521660e052506200012e9050565b80516001600160a01b0381168114620000bd57600080fd5b919050565b60008060408385031215620000d657600080fd5b620000e183620000a5565b9150620000f160208401620000a5565b90509250929050565b6000835160005b818110156200011d576020818701810151858301520162000101565b509190910191825250602001919050565b60805160a05160c05160e0516138736200017d600039600081816105b40152611496015260008181610484015261251b015260008181610422015261254c01526000610c5001526138736000f3fe6080604052600436106101bb5760003560e01c80637a9a1628116100ec578063a4ab5f9f1161008a578063bc197c8111610064578063bc197c81146106a0578063c71f1f96146106e8578063d0748f71146106fd578063f23a6e611461071d576101c2565b8063a4ab5f9f1461064b578063affed0e01461066b578063b93ea7ad14610680576101c2565b80638c3f5563116100c65780638c3f5563146105d65780638efa6441146105f657806390042baf14610618578063a38cef191461062b576101c2565b80637a9a16281461053a578063853c50681461055a578063888eeec6146105a2576101c2565b8063257671f5116101595780634598154f116101335780634598154f146104a65780634fcf3eca146104c657806357c56d6b146104e657806361c2926c1461051a576101c2565b8063257671f51461041057806329561426146104525780632dd3100014610472576101c2565b8063150b7a0211610195578063150b7a02146103155780631626ba7e1461038b5780631a9b2337146103ab57806320c13b0b146103f0576101c2565b806301ffc9a7146102a0578063025b22bc146102d5578063038dbaac146102f5576101c2565b366101c257005b6004361061029e5760006101f96000357fffffffff0000000000000000000000000000000000000000000000000000000016610763565b905073ffffffffffffffffffffffffffffffffffffffff81161561029c576000808273ffffffffffffffffffffffffffffffffffffffff16600036604051610242929190612cd1565b600060405180830381855af49150503d806000811461027d576040519150601f19603f3d011682016040523d82523d6000602084013e610282565b606091505b50915091508161029457805160208201fd5b805160208201f35b505b005b3480156102ac57600080fd5b506102c06102bb366004612d0f565b6107b7565b60405190151581526020015b60405180910390f35b3480156102e157600080fd5b5061029e6102f0366004612d55565b6107c2565b34801561030157600080fd5b5061029e610310366004612dbc565b610814565b34801561032157600080fd5b5061035a610330366004612e40565b7f150b7a020000000000000000000000000000000000000000000000000000000095945050505050565b6040517fffffffff0000000000000000000000000000000000000000000000000000000090911681526020016102cc565b34801561039757600080fd5b5061035a6103a6366004612eaf565b61091f565b3480156103b757600080fd5b506103cb6103c6366004612d0f565b61096c565b60405173ffffffffffffffffffffffffffffffffffffffff90911681526020016102cc565b3480156103fc57600080fd5b5061035a61040b366004612efb565b610977565b34801561041c57600080fd5b506104447f000000000000000000000000000000000000000000000000000000000000000081565b6040519081526020016102cc565b34801561045e57600080fd5b5061029e61046d366004612f67565b6109dc565b34801561047e57600080fd5b506103cb7f000000000000000000000000000000000000000000000000000000000000000081565b3480156104b257600080fd5b5061029e6104c1366004612f80565b610a26565b3480156104d257600080fd5b5061029e6104e1366004612d0f565b610aeb565b3480156104f257600080fd5b506104447f8713a7c4465f6fbee2b6e9d6646d1d9f83fec929edfc4baf661f3c865bdd04d181565b34801561052657600080fd5b5061029e610535366004612dbc565b610bb3565b34801561054657600080fd5b5061029e610555366004612fa2565b610c39565b34801561056657600080fd5b5061057a610575366004612eaf565b610d3e565b604080519586526020860194909452928401919091526060830152608082015260a0016102cc565b3480156105ae57600080fd5b506103cb7f000000000000000000000000000000000000000000000000000000000000000081565b3480156105e257600080fd5b506104446105f1366004612f67565b610f06565b34801561060257600080fd5b5061060b610f32565b6040516102cc9190613079565b6103cb6106263660046130bb565b610fb3565b34801561063757600080fd5b5061029e610646366004612f67565b61109d565b34801561065757600080fd5b50610444610666366004612f67565b6110e7565b34801561067757600080fd5b506104446110f2565b34801561068c57600080fd5b5061029e61069b36600461318a565b611103565b3480156106ac57600080fd5b5061035a6106bb3660046131bf565b7fbc197c810000000000000000000000000000000000000000000000000000000098975050505050505050565b3480156106f457600080fd5b506104446111ce565b34801561070957600080fd5b5061029e610718366004612f80565b6111f8565b34801561072957600080fd5b5061035a61073836600461327a565b7ff23a6e61000000000000000000000000000000000000000000000000000000009695505050505050565b60006107b17fbe27a319efc8734e89e26ba4bc95f5c788584163b959f03fa04e2d7ab4b9a1207fffffffff00000000000000000000000000000000000000000000000000000000841661124b565b92915050565b60006107b1826112a9565b333014610808576040517fe12588940000000000000000000000000000000000000000000000000000000081523360048201523060248201526044015b60405180910390fd5b61081181611305565b50565b333014610855576040517fe12588940000000000000000000000000000000000000000000000000000000081523360048201523060248201526044016107ff565b8060005b81811015610919576000848483818110610875576108756132f2565b9050602002013590506108d5816000604080517f849e7bdc245db17e50b9f43086f1914d70eb4dab6dd89af4d541d53353ad97de602080830191909152818301859052825180830384018152606090920190925280519101208190555050565b807f804f6171d6008d9e16ee3aa0561fec328397f4ba2827a6605db388cfdefa3b0c600060405161090891815260200190565b60405180910390a250600101610859565b50505050565b60008061092d8585856113c0565b509050801561095f57507f1626ba7e000000000000000000000000000000000000000000000000000000009050610965565b50600090505b9392505050565b60006107b182610763565b60008061099c868660405161098d929190612cd1565b604051809103902085856113c0565b50905080156109ce57507f20c13b0b0000000000000000000000000000000000000000000000000000000090506109d4565b50600090505b949350505050565b333014610a1d576040517fe12588940000000000000000000000000000000000000000000000000000000081523360048201523060248201526044016107ff565b610811816113fe565b333014610a67576040517fe12588940000000000000000000000000000000000000000000000000000000081523360048201523060248201526044016107ff565b604080517f849e7bdc245db17e50b9f43086f1914d70eb4dab6dd89af4d541d53353ad97de602080830191909152818301859052825180830384018152606083019384905280519101208390559082905282907f804f6171d6008d9e16ee3aa0561fec328397f4ba2827a6605db388cfdefa3b0c9060800160405180910390a25050565b333014610b2c576040517fe12588940000000000000000000000000000000000000000000000000000000081523360048201523060248201526044016107ff565b6000610b3782610763565b73ffffffffffffffffffffffffffffffffffffffff1603610ba8576040517f1c3812cc0000000000000000000000000000000000000000000000000000000081527fffffffff00000000000000000000000000000000000000000000000000000000821660048201526024016107ff565b6108118160006114ba565b333014610bf4576040517fe12588940000000000000000000000000000000000000000000000000000000081523360048201523060248201526044016107ff565b6000610c278383604051602001610c0c9291906134c9565b6040516020818303038152906040528051906020012061157a565b9050610c348184846115ff565b505050565b73ffffffffffffffffffffffffffffffffffffffff7f0000000000000000000000000000000000000000000000000000000000000000163003610ca8576040517f0a57d61d00000000000000000000000000000000000000000000000000000000815260040160405180910390fd5b610cb183611787565b600080610ce9858888604051602001610ccc93929190613511565b6040516020818303038152906040528051906020012085856113c0565b9150915081610d2a578084846040517f8f4a234f0000000000000000000000000000000000000000000000000000000081526004016107ff93929190613534565b610d358188886115ff565b50505050505050565b60008060008060008087876000818110610d5a57610d5a6132f2565b909101357fff00000000000000000000000000000000000000000000000000000000000000169150819050610db057610d928961157a565b9250610d9f838989611884565b92985090965094509150610efb9050565b7fff0000000000000000000000000000000000000000000000000000000000000081811601610def57610de28961157a565b9250610d9f8389896118d5565b7ffe000000000000000000000000000000000000000000000000000000000000007fff00000000000000000000000000000000000000000000000000000000000000821601610e4157610de289611901565b7ffd000000000000000000000000000000000000000000000000000000000000007fff00000000000000000000000000000000000000000000000000000000000000821601610ea557610e9589898961196e565b9550955095509550955050610efb565b6040517f6085cd820000000000000000000000000000000000000000000000000000000081527fff00000000000000000000000000000000000000000000000000000000000000821660048201526024016107ff565b939792965093509350565b60006107b17f8d0bf1fd623d628c741362c1289948e57b3e2905218c676d3e69abee36d6ae2e8361124b565b6060610f8f610f8a610f426111ce565b6040517f017012200000000000000000000000000000000000000000000000000000000060208201526024810191909152604401604051602081830303815290604052611aeb565b611d04565b604051602001610f9f919061354e565b604051602081830303815290604052905090565b6000333014610ff6576040517fe12588940000000000000000000000000000000000000000000000000000000081523360048201523060248201526044016107ff565b81516020830134f0905073ffffffffffffffffffffffffffffffffffffffff811661104f57816040517f0d2571910000000000000000000000000000000000000000000000000000000081526004016107ff9190613079565b60405173ffffffffffffffffffffffffffffffffffffffff821681527fa506ad4e7f05eceba62a023c3219e5bd98a615f4fa87e2afb08a2da5cf62bf0c9060200160405180910390a1919050565b3330146110de576040517fe12588940000000000000000000000000000000000000000000000000000000081523360048201523060248201526044016107ff565b61081181611d2d565b60006107b182611d86565b60006110fe6000610f06565b905090565b333014611144576040517fe12588940000000000000000000000000000000000000000000000000000000081523360048201523060248201526044016107ff565b600061114f83610763565b73ffffffffffffffffffffffffffffffffffffffff16146111c0576040517f5b4d6d6a0000000000000000000000000000000000000000000000000000000081527fffffffff00000000000000000000000000000000000000000000000000000000831660048201526024016107ff565b6111ca82826114ba565b5050565b60006110fe7f0eecac93ced8722d209199364cda3bc33da3bc3a23daef6be49ebd780511d0335490565b333014611239576040517fe12588940000000000000000000000000000000000000000000000000000000081523360048201523060248201526044016107ff565b611242826113fe565b6111ca81611d2d565b600080838360405160200161126a929190918252602082015260400190565b604080517fffffffffffffffffffffffffffffffffffffffffffffffffffffffffffffffe0818403018152919052805160209091012054949350505050565b60007f2e74b92a000000000000000000000000000000000000000000000000000000007fffffffff000000000000000000000000000000000000000000000000000000008316016112fc57506001919050565b6107b182611db2565b73ffffffffffffffffffffffffffffffffffffffff81163b61136b576040517f0c76093700000000000000000000000000000000000000000000000000000000815273ffffffffffffffffffffffffffffffffffffffff821660048201526024016107ff565b611373813055565b60405173ffffffffffffffffffffffffffffffffffffffff821681527f310ba5f1d2ed074b51e2eccd052a47ae9ab7c6b800d1fca3db3999d6a592ca03906020015b60405180910390a150565b60008060008060006113d3888888610d3e565b509650919450925090508282108015906113f157506113f181611e0e565b9450505050935093915050565b80611435576040517f4294d12700000000000000000000000000000000000000000000000000000000815260040160405180910390fd5b61145e7fea7157fa25e3aa17d0ae2d5280fa4e24d421c61842aa85e45194e1145aa72bf8829055565b6040518181527f307ed6bd941ee9fc80f369c94af5fa11e25bab5102a6140191756c5474a30bfa9060200160405180910390a16108117f0000000000000000000000000000000000000000000000000000000000000000611305565b604080517fbe27a319efc8734e89e26ba4bc95f5c788584163b959f03fa04e2d7ab4b9a1206020808301919091527fffffffff000000000000000000000000000000000000000000000000000000008516828401819052835180840385018152606084018086528151919093012073ffffffffffffffffffffffffffffffffffffffff8616908190559152608082015290517f0d7fc113eaf016db4681a1ba86d083ce3e0961f321062a75ac2b0aeb33deeed19181900360a00190a15050565b6040517f190100000000000000000000000000000000000000000000000000000000000060208201524660228201527fffffffffffffffffffffffffffffffffffffffff0000000000000000000000003060601b166042820152605681018290526000906076015b604051602081830303815290604052805190602001209050919050565b8060005b81811015611780573684848381811061161e5761161e6132f2565b90506020028101906116309190613593565b90506040810135805a10156116855782815a6040517f2bb3e3ba0000000000000000000000000000000000000000000000000000000081526004810193909352602483019190915260448201526064016107ff565b600061169460208401846135d1565b156116d3576116cc6116ac6080850160608601612d55565b83156116b857836116ba565b5a5b6116c760a08701876135ec565b611e19565b905061170e565b61170b6116e66080850160608601612d55565b608085013584156116f757846116f9565b5a5b61170660a08801886135ec565b611e34565b90505b801561175357877f5c4eeb02dabf8976016ab414d617f9a162936dcace3cdef8c69ef6e262ad5ae78560405161174691815260200190565b60405180910390a2611775565b61177561176660408501602086016135d1565b8986611770611e51565b611e70565b505050600101611603565b5050505050565b606081901c6bffffffffffffffffffffffff821660006117a683610f06565b90508181146117f2576040517f9b6514f40000000000000000000000000000000000000000000000000000000081526004810184905260248101839052604481018290526064016107ff565b604080517f8d0bf1fd623d628c741362c1289948e57b3e2905218c676d3e69abee36d6ae2e60208083019190915281830186905282518083038401815260609092019092528051910120600183019081905560408051858152602081018390527f1f180c27086c7a39ea2a7b25239d1ab92348f07ca7bb59d1438fcf527568f881910160405180910390a15050505050565b600080808061189f8761189a876006818b613651565b611ebe565b6000908152873560f01c6020818152604080842084526002909a013560e01c908190529890912090999198509695509350505050565b60008080806118f0876118eb876001818b613651565b611884565b935093509350935093509350935093565b6040517f190100000000000000000000000000000000000000000000000000000000000060208201526000602282018190527fffffffffffffffffffffffffffffffffffffffff0000000000000000000000003060601b16604283015260568201839052906076016115e2565b6000808080806004600188013560e81c8261198983836136aa565b905061199b8b61057583868d8f613651565b939b50919950975095509350878710156119f3576119bb81848b8d613651565b89896040517fb006aba00000000000000000000000000000000000000000000000000000000081526004016107ff94939291906136bd565b8092505b88831015611add5760038301928a013560e81c9150611a1683836136aa565b90506000611a38611a2688612354565b8c8c8790869261057593929190613651565b939c50919a5098509091505088881015611a9057611a5882858c8e613651565b8a8a6040517fb006aba00000000000000000000000000000000000000000000000000000000081526004016107ff94939291906136bd565b848110611ad3576040517f37daf62b00000000000000000000000000000000000000000000000000000000815260048101829052602481018690526044016107ff565b93509150816119f7565b505050939792965093509350565b8051606090600381901b60006005600483010467ffffffffffffffff811115611b1657611b1661308c565b6040519080825280601f01601f191660200182016040528015611b40576020820181803683370190505b5090506000806000805b86811015611c5457888181518110611b6457611b646132f2565b01602001516008948501949390931b60f89390931c92909217915b60058410611c4c576040805180820190915260208082527f6162636465666768696a6b6c6d6e6f707172737475767778797a323334353637818301527ffffffffffffffffffffffffffffffffffffffffffffffffffffffffffffffffb90950194601f85871c16908110611bf557611bf56132f2565b602001015160f81c60f81b858381518110611c1257611c126132f2565b60200101907effffffffffffffffffffffffffffffffffffffffffffffffffffffffffffff1916908160001a905350600190910190611b7f565b600101611b4a565b508215611cf8576040518060400160405280602081526020017f6162636465666768696a6b6c6d6e6f707172737475767778797a3233343536378152508360050383901b601f1681518110611cab57611cab6132f2565b602001015160f81c60f81b848281518110611cc857611cc86132f2565b60200101907effffffffffffffffffffffffffffffffffffffffffffffffffffffffffffff1916908160001a9053505b50919695505050505050565b606081604051602001611d1791906136e4565b6040516020818303038152906040529050919050565b611d567f0eecac93ced8722d209199364cda3bc33da3bc3a23daef6be49ebd780511d033829055565b6040518181527f20d3ef1b5738a9f6d7beae515432206e7a8e2740ca6dcf46a952190ad01bcb51906020016113b5565b60006107b17f849e7bdc245db17e50b9f43086f1914d70eb4dab6dd89af4d541d53353ad97de8361124b565b60007f6ffbd451000000000000000000000000000000000000000000000000000000007fffffffff00000000000000000000000000000000000000000000000000000000831601611e0557506001919050565b6107b182612388565b60006107b1826124c9565b60006040518284823760008084838989f49695505050505050565b6000604051828482376000808483898b8af1979650505050505050565b60603d604051915060208201818101604052818352816000823e505090565b8315611e7e57805160208201fd5b827fab46c69f7f32e1bf09b0725853da82a211e5402a0600296ab499a2fb5ea3b4198383604051611eb0929190613729565b60405180910390a250505050565b60008060005b8381101561234b57600181019085013560f81c7fffffffffffffffffffffffffffffffffffffffffffffffffffffffffffffffff8101611f6557601582019186013560f881901c9060581c73ffffffffffffffffffffffffffffffffffffffff81169074ff000000000000000000000000000000000000000016811785611f4b5780611f5a565b60008681526020829052604090205b955050505050611ec4565b80611ffb5760018201918681013560f81c906043016000611f918a611f8c84888c8e613651565b6125f7565b60ff841697909701969194508491905060a083901b74ff00000000000000000000000000000000000000001673ffffffffffffffffffffffffffffffffffffffff82161786611fe05780611fef565b60008781526020829052604090205b96505050505050611ec4565b60028103612123576000808784013560f881901c9060581c73ffffffffffffffffffffffffffffffffffffffff16601586019550909250905060008885013560e81c600386018162ffffff1691508096508192505050600081860190506120748b848c8c8a90869261206f93929190613651565b6128ba565b6120bc578a8361208683898d8f613651565b6040517f9a9462320000000000000000000000000000000000000000000000000000000081526004016107ff9493929190613742565b60ff8416979097019694508460a084901b74ff00000000000000000000000000000000000000001673ffffffffffffffffffffffffffffffffffffffff841617876121075780612116565b60008881526020829052604090205b9750505050505050611ec4565b600381036121565760208201918601358361213e578061214d565b60008481526020829052604090205b93505050611ec4565b600481036121a2576003808301928781013560e81c91908201016000806121838b61189a85898d8f613651565b60009889526020526040909720969097019650909350611ec492505050565b600681036122aa5760008287013560f81c60018401935060ff16905060008784013560f01c60028501945061ffff16905060008885013560e81c600386018162ffffff1691508096508192505050600081860190506000806122108d8d8d8b90879261189a93929190613651565b9398508893909250905084821061222657988501985b604080517f53657175656e6365206e657374656420636f6e6669673a0a0000000000000000602080830191909152603882018490526058820188905260788083018a905283518084039091018152609890920190925280519101208961228c578061229b565b60008a81526020829052604090205b99505050505050505050611ec4565b600581036123165760208201918601358781036122e5577fffffffffffffffffffffffffffffffffffffffffffffffffffffffffffffffff94505b60006122f082612aa1565b9050846122fd578061230c565b60008581526020829052604090205b9450505050611ec4565b6040517fb2505f7c000000000000000000000000000000000000000000000000000000008152600481018290526024016107ff565b50935093915050565b7f8713a7c4465f6fbee2b6e9d6646d1d9f83fec929edfc4baf661f3c865bdd04d160009081526020829052604081206107b1565b60007fffffffff0000000000000000000000000000000000000000000000000000000082167fec6aba5000000000000000000000000000000000000000000000000000000000148061241b57507fffffffff0000000000000000000000000000000000000000000000000000000082167f4e2312e000000000000000000000000000000000000000000000000000000000145b8061246757507fffffffff0000000000000000000000000000000000000000000000000000000082167f150b7a0200000000000000000000000000000000000000000000000000000000145b806124b357507fffffffff0000000000000000000000000000000000000000000000000000000082167fc0ee0b8a00000000000000000000000000000000000000000000000000000000145b156124c057506001919050565b6107b182612adc565b60006125cb826040517fff0000000000000000000000000000000000000000000000000000000000000060208201527fffffffffffffffffffffffffffffffffffffffff0000000000000000000000007f000000000000000000000000000000000000000000000000000000000000000060601b166021820152603581018290527f000000000000000000000000000000000000000000000000000000000000000060558201526000903090607501604080517fffffffffffffffffffffffffffffffffffffffffffffffffffffffffffffffe0818403018152919052805160209091012073ffffffffffffffffffffffffffffffffffffffff161492915050565b156125d857506001919050565b60006125e383611d86565b905080158015906109655750421092915050565b6000604282146126375782826040517f2ee17a3d0000000000000000000000000000000000000000000000000000000081526004016107ff929190613782565b6000612650612647600185613796565b85013560f81c90565b60ff169050604084013560f81c843560208601357f7fffffffffffffffffffffffffffffff5d576e7357a4501ddfe92f46681b20a08111156126c4578686826040517fad4aac760000000000000000000000000000000000000000000000000000000081526004016107ff939291906137a9565b8260ff16601b141580156126dc57508260ff16601c14155b15612719578686846040517fe578897e0000000000000000000000000000000000000000000000000000000081526004016107ff939291906137cd565b60018403612786576040805160008152602081018083528a905260ff851691810191909152606081018390526080810182905260019060a0015b6020604051602081039080840390855afa158015612775573d6000803e3d6000fd5b50505060206040510351945061285e565b60028403612823576040517f19457468657265756d205369676e6564204d6573736167653a0a3332000000006020820152603c8101899052600190605c01604080517fffffffffffffffffffffffffffffffffffffffffffffffffffffffffffffffe08184030181528282528051602091820120600084529083018083525260ff861690820152606081018490526080810183905260a001612753565b86868560016040517f9dfba8520000000000000000000000000000000000000000000000000000000081526004016107ff94939291906137f4565b73ffffffffffffffffffffffffffffffffffffffff85166128af5786866040517f6c1719d20000000000000000000000000000000000000000000000000000000081526004016107ff929190613782565b505050509392505050565b60008181036128f5576040517fac241e1100000000000000000000000000000000000000000000000000000000815260040160405180910390fd5b60008383612904600182613796565b818110612913576129136132f2565b919091013560f81c915050600181148061292d5750600281145b15612972578473ffffffffffffffffffffffffffffffffffffffff166129548786866125f7565b73ffffffffffffffffffffffffffffffffffffffff16149150612a98565b60038103612a5d5773ffffffffffffffffffffffffffffffffffffffff8516631626ba7e87866000876129a6600182613796565b926129b393929190613651565b6040518463ffffffff1660e01b81526004016129d193929190613534565b602060405180830381865afa1580156129ee573d6000803e3d6000fd5b505050506040513d601f19601f82011682018060405250810190612a129190613820565b7fffffffff00000000000000000000000000000000000000000000000000000000167f1626ba7e00000000000000000000000000000000000000000000000000000000149150612a98565b83838260006040517f9dfba8520000000000000000000000000000000000000000000000000000000081526004016107ff94939291906137f4565b50949350505050565b6040517f53657175656e636520737461746963206469676573743a0a00000000000000006020820152603881018290526000906058016115e2565b60007fe4a77bbc000000000000000000000000000000000000000000000000000000007fffffffff00000000000000000000000000000000000000000000000000000000831601612b2f57506001919050565b6107b18260007f1cbec625000000000000000000000000000000000000000000000000000000007fffffffff00000000000000000000000000000000000000000000000000000000831601612b8657506001919050565b6107b18260006107b18260007ffda4dd44000000000000000000000000000000000000000000000000000000007fffffffff00000000000000000000000000000000000000000000000000000000831601612be357506001919050565b6107b18260007fffffffff0000000000000000000000000000000000000000000000000000000082167fac6a444e000000000000000000000000000000000000000000000000000000001480612c7a57507fffffffff0000000000000000000000000000000000000000000000000000000082167f36e7817500000000000000000000000000000000000000000000000000000000145b15612c8757506001919050565b7f01ffc9a7000000000000000000000000000000000000000000000000000000007fffffffff000000000000000000000000000000000000000000000000000000008316146107b1565b8183823760009101908152919050565b7fffffffff000000000000000000000000000000000000000000000000000000008116811461081157600080fd5b600060208284031215612d2157600080fd5b813561096581612ce1565b803573ffffffffffffffffffffffffffffffffffffffff81168114612d5057600080fd5b919050565b600060208284031215612d6757600080fd5b61096582612d2c565b60008083601f840112612d8257600080fd5b50813567ffffffffffffffff811115612d9a57600080fd5b6020830191508360208260051b8501011115612db557600080fd5b9250929050565b60008060208385031215612dcf57600080fd5b823567ffffffffffffffff811115612de657600080fd5b612df285828601612d70565b90969095509350505050565b60008083601f840112612e1057600080fd5b50813567ffffffffffffffff811115612e2857600080fd5b602083019150836020828501011115612db557600080fd5b600080600080600060808688031215612e5857600080fd5b612e6186612d2c565b9450612e6f60208701612d2c565b935060408601359250606086013567ffffffffffffffff811115612e9257600080fd5b612e9e88828901612dfe565b969995985093965092949392505050565b600080600060408486031215612ec457600080fd5b83359250602084013567ffffffffffffffff811115612ee257600080fd5b612eee86828701612dfe565b9497909650939450505050565b60008060008060408587031215612f1157600080fd5b843567ffffffffffffffff80821115612f2957600080fd5b612f3588838901612dfe565b90965094506020870135915080821115612f4e57600080fd5b50612f5b87828801612dfe565b95989497509550505050565b600060208284031215612f7957600080fd5b5035919050565b60008060408385031215612f9357600080fd5b50508035926020909101359150565b600080600080600060608688031215612fba57600080fd5b853567ffffffffffffffff80821115612fd257600080fd5b612fde89838a01612d70565b9097509550602088013594506040880135915080821115612ffe57600080fd5b50612e9e88828901612dfe565b60005b8381101561302657818101518382015260200161300e565b50506000910152565b6000815180845261304781602086016020860161300b565b601f017fffffffffffffffffffffffffffffffffffffffffffffffffffffffffffffffe0169290920160200192915050565b602081526000610965602083018461302f565b7f4e487b7100000000000000000000000000000000000000000000000000000000600052604160045260246000fd5b6000602082840312156130cd57600080fd5b813567ffffffffffffffff808211156130e557600080fd5b818401915084601f8301126130f957600080fd5b81358181111561310b5761310b61308c565b604051601f82017fffffffffffffffffffffffffffffffffffffffffffffffffffffffffffffffe0908116603f011681019083821181831017156131515761315161308c565b8160405282815287602084870101111561316a57600080fd5b826020860160208301376000928101602001929092525095945050505050565b6000806040838503121561319d57600080fd5b82356131a881612ce1565b91506131b660208401612d2c565b90509250929050565b60008060008060008060008060a0898b0312156131db57600080fd5b6131e489612d2c565b97506131f260208a01612d2c565b9650604089013567ffffffffffffffff8082111561320f57600080fd5b61321b8c838d01612d70565b909850965060608b013591508082111561323457600080fd5b6132408c838d01612d70565b909650945060808b013591508082111561325957600080fd5b506132668b828c01612dfe565b999c989b5096995094979396929594505050565b60008060008060008060a0878903121561329357600080fd5b61329c87612d2c565b95506132aa60208801612d2c565b94506040870135935060608701359250608087013567ffffffffffffffff8111156132d457600080fd5b6132e089828a01612dfe565b979a9699509497509295939492505050565b7f4e487b7100000000000000000000000000000000000000000000000000000000600052603260045260246000fd5b80358015158114612d5057600080fd5b8183528181602085013750600060208284010152600060207fffffffffffffffffffffffffffffffffffffffffffffffffffffffffffffffe0601f840116840101905092915050565b81835260006020808501808196508560051b810191508460005b878110156134bc57828403895281357fffffffffffffffffffffffffffffffffffffffffffffffffffffffffffffff418836030181126133d357600080fd5b870160c06133e082613321565b151586526133ef878301613321565b15158688015260408281013590870152606073ffffffffffffffffffffffffffffffffffffffff613421828501612d2c565b16908701526080828101359087015260a080830135368490037fffffffffffffffffffffffffffffffffffffffffffffffffffffffffffffffe101811261346757600080fd5b90920187810192903567ffffffffffffffff81111561348557600080fd5b80360384131561349457600080fd5b82828901526134a68389018286613331565b9c89019c97505050928601925050600101613394565b5091979650505050505050565b60408152600560408201527f73656c663a00000000000000000000000000000000000000000000000000000060608201526080602082015260006109d460808301848661337a565b83815260406020820152600061352b60408301848661337a565b95945050505050565b83815260406020820152600061352b604083018486613331565b7f697066733a2f2f0000000000000000000000000000000000000000000000000081526000825161358681600785016020870161300b565b9190910160070192915050565b600082357fffffffffffffffffffffffffffffffffffffffffffffffffffffffffffffff418336030181126135c757600080fd5b9190910192915050565b6000602082840312156135e357600080fd5b61096582613321565b60008083357fffffffffffffffffffffffffffffffffffffffffffffffffffffffffffffffe184360301811261362157600080fd5b83018035915067ffffffffffffffff82111561363c57600080fd5b602001915036819003821315612db557600080fd5b6000808585111561366157600080fd5b8386111561366e57600080fd5b5050820193919092039150565b7f4e487b7100000000000000000000000000000000000000000000000000000000600052601160045260246000fd5b808201808211156107b1576107b161367b565b6060815260006136d1606083018688613331565b6020830194909452506040015292915050565b7f620000000000000000000000000000000000000000000000000000000000000081526000825161371c81600185016020870161300b565b9190910160010192915050565b8281526040602082015260006109d4604083018461302f565b84815273ffffffffffffffffffffffffffffffffffffffff84166020820152606060408201526000613778606083018486613331565b9695505050505050565b6020815260006109d4602083018486613331565b818103818111156107b1576107b161367b565b6040815260006137bd604083018587613331565b9050826020830152949350505050565b6040815260006137e1604083018587613331565b905060ff83166020830152949350505050565b606081526000613808606083018688613331565b60208301949094525090151560409091015292915050565b60006020828403121561383257600080fd5b815161096581612ce156fea26469706673582212203c8d5199f30c123dff9711c13e6d1af00442c59755d475d5781636aabab62db364736f6c63430008120033603a600e3d39601a805130553df3363d3d373d3d3d363d30545af43d82803e903d91601857fd5bf3",
					"opcodes": "PUSH2 0x100 PUSH1 0x40 MSTORE CALLVALUE DUP1 ISZERO PUSH3 0x12 JUMPI PUSH1 0x0 DUP1 REVERT JUMPDEST POP PUSH1 0x40 MLOAD PUSH3 0x3A18 CODESIZE SUB DUP1 PUSH3 0x3A18 DUP4 CODECOPY DUP2 ADD PUSH1 0x40 DUP2 SWAP1 MSTORE PUSH3 0x35 SWAP2 PUSH3 0xC2 JUMP JUMPDEST ADDRESS PUSH1 0x80 MSTORE PUSH1 0x40 DUP1 MLOAD PUSH1 0x60 DUP2 ADD SWAP1 SWAP2 MSTORE PUSH1 0x28 DUP1 DUP3 MSTORE DUP4 SWAP2 DUP4 SWAP2 PUSH1 0x0 SWAP2 SWAP1 PUSH3 0x39F0 PUSH1 0x20 DUP4 ADD CODECOPY PUSH1 0x40 MLOAD PUSH3 0x6E SWAP2 SWAP1 ADDRESS SWAP1 PUSH1 0x20 ADD PUSH3 0xFA JUMP JUMPDEST PUSH1 0x40 DUP1 MLOAD PUSH1 0x1F NOT DUP2 DUP5 SUB ADD DUP2 MSTORE SWAP2 SWAP1 MSTORE DUP1 MLOAD PUSH1 0x20 SWAP1 SWAP2 ADD KECCAK256 PUSH1 0xA0 MSTORE POP PUSH1 0x1 PUSH1 0x1 PUSH1 0xA0 SHL SUB SWAP2 DUP3 AND PUSH1 0xC0 MSTORE AND PUSH1 0xE0 MSTORE POP PUSH3 0x12E SWAP1 POP JUMP JUMPDEST DUP1 MLOAD PUSH1 0x1 PUSH1 0x1 PUSH1 0xA0 SHL SUB DUP2 AND DUP2 EQ PUSH3 0xBD JUMPI PUSH1 0x0 DUP1 REVERT JUMPDEST SWAP2 SWAP1 POP JUMP JUMPDEST PUSH1 0x0 DUP1 PUSH1 0x40 DUP4 DUP6 SUB SLT ISZERO PUSH3 0xD6 JUMPI PUSH1 0x0 DUP1 REVERT JUMPDEST PUSH3 0xE1 DUP4 PUSH3 0xA5 JUMP JUMPDEST SWAP2 POP PUSH3 0xF1 PUSH1 0x20 DUP5 ADD PUSH3 0xA5 JUMP JUMPDEST SWAP1 POP SWAP3 POP SWAP3 SWAP1 POP JUMP JUMPDEST PUSH1 0x0 DUP4 MLOAD PUSH1 0x0 JUMPDEST DUP2 DUP2 LT ISZERO PUSH3 0x11D JUMPI PUSH1 0x20 DUP2 DUP8 ADD DUP2 ADD MLOAD DUP6 DUP4 ADD MSTORE ADD PUSH3 0x101 JUMP JUMPDEST POP SWAP2 SWAP1 SWAP2 ADD SWAP2 DUP3 MSTORE POP PUSH1 0x20 ADD SWAP2 SWAP1 POP JUMP JUMPDEST PUSH1 0x80 MLOAD PUSH1 0xA0 MLOAD PUSH1 0xC0 MLOAD PUSH1 0xE0 MLOAD PUSH2 0x3873 PUSH3 0x17D PUSH1 0x0 CODECOPY PUSH1 0x0 DUP2 DUP2 PUSH2 0x5B4 ADD MSTORE PUSH2 0x1496 ADD MSTORE PUSH1 0x0 DUP2 DUP2 PUSH2 0x484 ADD MSTORE PUSH2 0x251B ADD MSTORE PUSH1 0x0 DUP2 DUP2 PUSH2 0x422 ADD MSTORE PUSH2 0x254C ADD MSTORE PUSH1 0x0 PUSH2 0xC50 ADD MSTORE PUSH2 0x3873 PUSH1 0x0 RETURN INVALID PUSH1 0x80 PUSH1 0x40 MSTORE PUSH1 0x4 CALLDATASIZE LT PUSH2 0x1BB JUMPI PUSH1 0x0 CALLDATALOAD PUSH1 0xE0 SHR DUP1 PUSH4 0x7A9A1628 GT PUSH2 0xEC JUMPI DUP1 PUSH4 0xA4AB5F9F GT PUSH2 0x8A JUMPI DUP1 PUSH4 0xBC197C81 GT PUSH2 0x64 JUMPI DUP1 PUSH4 0xBC197C81 EQ PUSH2 0x6A0 JUMPI DUP1 PUSH4 0xC71F1F96 EQ PUSH2 0x6E8 JUMPI DUP1 PUSH4 0xD0748F71 EQ PUSH2 0x6FD JUMPI DUP1 PUSH4 0xF23A6E61 EQ PUSH2 0x71D JUMPI PUSH2 0x1C2 JUMP JUMPDEST DUP1 PUSH4 0xA4AB5F9F EQ PUSH2 0x64B JUMPI DUP1 PUSH4 0xAFFED0E0 EQ PUSH2 0x66B JUMPI DUP1 PUSH4 0xB93EA7AD EQ PUSH2 0x680 JUMPI PUSH2 0x1C2 JUMP JUMPDEST DUP1 PUSH4 0x8C3F5563 GT PUSH2 0xC6 JUMPI DUP1 PUSH4 0x8C3F5563 EQ PUSH2 0x5D6 JUMPI DUP1 PUSH4 0x8EFA6441 EQ PUSH2 0x5F6 JUMPI DUP1 PUSH4 0x90042BAF EQ PUSH2 0x618 JUMPI DUP1 PUSH4 0xA38CEF19 EQ PUSH2 0x62B JUMPI PUSH2 0x1C2 JUMP JUMPDEST DUP1 PUSH4 0x7A9A1628 EQ PUSH2 0x53A JUMPI DUP1 PUSH4 0x853C5068 EQ PUSH2 0x55A JUMPI DUP1 PUSH4 0x888EEEC6 EQ PUSH2 0x5A2 JUMPI PUSH2 0x1C2 JUMP JUMPDEST DUP1 PUSH4 0x257671F5 GT PUSH2 0x159 JUMPI DUP1 PUSH4 0x4598154F GT PUSH2 0x133 JUMPI DUP1 PUSH4 0x4598154F EQ PUSH2 0x4A6 JUMPI DUP1 PUSH4 0x4FCF3ECA EQ PUSH2 0x4C6 JUMPI DUP1 PUSH4 0x57C56D6B EQ PUSH2 0x4E6 JUMPI DUP1 PUSH4 0x61C2926C EQ PUSH2 0x51A JUMPI PUSH2 0x1C2 JUMP JUMPDEST DUP1 PUSH4 0x257671F5 EQ PUSH2 0x410 JUMPI DUP1 PUSH4 0x29561426 EQ PUSH2 0x452 JUMPI DUP1 PUSH4 0x2DD31000 EQ PUSH2 0x472 JUMPI PUSH2 0x1C2 JUMP JUMPDEST DUP1 PUSH4 0x150B7A02 GT PUSH2 0x195 JUMPI DUP1 PUSH4 0x150B7A02 EQ PUSH2 0x315 JUMPI DUP1 PUSH4 0x1626BA7E EQ PUSH2 0x38B JUMPI DUP1 PUSH4 0x1A9B2337 EQ PUSH2 0x3AB JUMPI DUP1 PUSH4 0x20C13B0B EQ PUSH2 0x3F0 JUMPI PUSH2 0x1C2 JUMP JUMPDEST DUP1 PUSH4 0x1FFC9A7 EQ PUSH2 0x2A0 JUMPI DUP1 PUSH4 0x25B22BC EQ PUSH2 0x2D5 JUMPI DUP1 PUSH4 0x38DBAAC EQ PUSH2 0x2F5 JUMPI PUSH2 0x1C2 JUMP JUMPDEST CALLDATASIZE PUSH2 0x1C2 JUMPI STOP JUMPDEST PUSH1 0x4 CALLDATASIZE LT PUSH2 0x29E JUMPI PUSH1 0x0 PUSH2 0x1F9 PUSH1 0x0 CALLDATALOAD PUSH32 0xFFFFFFFF00000000000000000000000000000000000000000000000000000000 AND PUSH2 0x763 JUMP JUMPDEST SWAP1 POP PUSH20 0xFFFFFFFFFFFFFFFFFFFFFFFFFFFFFFFFFFFFFFFF DUP2 AND ISZERO PUSH2 0x29C JUMPI PUSH1 0x0 DUP1 DUP3 PUSH20 0xFFFFFFFFFFFFFFFFFFFFFFFFFFFFFFFFFFFFFFFF AND PUSH1 0x0 CALLDATASIZE PUSH1 0x40 MLOAD PUSH2 0x242 SWAP3 SWAP2 SWAP1 PUSH2 0x2CD1 JUMP JUMPDEST PUSH1 0x0 PUSH1 0x40 MLOAD DUP1 DUP4 SUB DUP2 DUP6 GAS DELEGATECALL SWAP2 POP POP RETURNDATASIZE DUP1 PUSH1 0x0 DUP2 EQ PUSH2 0x27D JUMPI PUSH1 0x40 MLOAD SWAP2 POP PUSH1 0x1F NOT PUSH1 0x3F RETURNDATASIZE ADD AND DUP3 ADD PUSH1 0x40 MSTORE RETURNDATASIZE DUP3 MSTORE RETURNDATASIZE PUSH1 0x0 PUSH1 0x20 DUP5 ADD RETURNDATACOPY PUSH2 0x282 JUMP JUMPDEST PUSH1 0x60 SWAP2 POP JUMPDEST POP SWAP2 POP SWAP2 POP DUP2 PUSH2 0x294 JUMPI DUP1 MLOAD PUSH1 0x20 DUP3 ADD REVERT JUMPDEST DUP1 MLOAD PUSH1 0x20 DUP3 ADD RETURN JUMPDEST POP JUMPDEST STOP JUMPDEST CALLVALUE DUP1 ISZERO PUSH2 0x2AC JUMPI PUSH1 0x0 DUP1 REVERT JUMPDEST POP PUSH2 0x2C0 PUSH2 0x2BB CALLDATASIZE PUSH1 0x4 PUSH2 0x2D0F JUMP JUMPDEST PUSH2 0x7B7 JUMP JUMPDEST PUSH1 0x40 MLOAD SWAP1 ISZERO ISZERO DUP2 MSTORE PUSH1 0x20 ADD JUMPDEST PUSH1 0x40 MLOAD DUP1 SWAP2 SUB SWAP1 RETURN JUMPDEST CALLVALUE DUP1 ISZERO PUSH2 0x2E1 JUMPI PUSH1 0x0 DUP1 REVERT JUMPDEST POP PUSH2 0x29E PUSH2 0x2F0 CALLDATASIZE PUSH1 0x4 PUSH2 0x2D55 JUMP JUMPDEST PUSH2 0x7C2 JUMP JUMPDEST CALLVALUE DUP1 ISZERO PUSH2 0x301 JUMPI PUSH1 0x0 DUP1 REVERT JUMPDEST POP PUSH2 0x29E PUSH2 0x310 CALLDATASIZE PUSH1 0x4 PUSH2 0x2DBC JUMP JUMPDEST PUSH2 0x814 JUMP JUMPDEST CALLVALUE DUP1 ISZERO PUSH2 0x321 JUMPI PUSH1 0x0 DUP1 REVERT JUMPDEST POP PUSH2 0x35A PUSH2 0x330 CALLDATASIZE PUSH1 0x4 PUSH2 0x2E40 JUMP JUMPDEST PUSH32 0x150B7A0200000000000000000000000000000000000000000000000000000000 SWAP6 SWAP5 POP POP POP POP POP JUMP JUMPDEST PUSH1 0x40 MLOAD PUSH32 0xFFFFFFFF00000000000000000000000000000000000000000000000000000000 SWAP1 SWAP2 AND DUP2 MSTORE PUSH1 0x20 ADD PUSH2 0x2CC JUMP JUMPDEST CALLVALUE DUP1 ISZERO PUSH2 0x397 JUMPI PUSH1 0x0 DUP1 REVERT JUMPDEST POP PUSH2 0x35A PUSH2 0x3A6 CALLDATASIZE PUSH1 0x4 PUSH2 0x2EAF JUMP JUMPDEST PUSH2 0x91F JUMP JUMPDEST CALLVALUE DUP1 ISZERO PUSH2 0x3B7 JUMPI PUSH1 0x0 DUP1 REVERT JUMPDEST POP PUSH2 0x3CB PUSH2 0x3C6 CALLDATASIZE PUSH1 0x4 PUSH2 0x2D0F JUMP JUMPDEST PUSH2 0x96C JUMP JUMPDEST PUSH1 0x40 MLOAD PUSH20 0xFFFFFFFFFFFFFFFFFFFFFFFFFFFFFFFFFFFFFFFF SWAP1 SWAP2 AND DUP2 MSTORE PUSH1 0x20 ADD PUSH2 0x2CC JUMP JUMPDEST CALLVALUE DUP1 ISZERO PUSH2 0x3FC JUMPI PUSH1 0x0 DUP1 REVERT JUMPDEST POP PUSH2 0x35A PUSH2 0x40B CALLDATASIZE PUSH1 0x4 PUSH2 0x2EFB JUMP JUMPDEST PUSH2 0x977 JUMP JUMPDEST CALLVALUE DUP1 ISZERO PUSH2 0x41C JUMPI PUSH1 0x0 DUP1 REVERT JUMPDEST POP PUSH2 0x444 PUSH32 0x0 DUP2 JUMP JUMPDEST PUSH1 0x40 MLOAD SWAP1 DUP2 MSTORE PUSH1 0x20 ADD PUSH2 0x2CC JUMP JUMPDEST CALLVALUE DUP1 ISZERO PUSH2 0x45E JUMPI PUSH1 0x0 DUP1 REVERT JUMPDEST POP PUSH2 0x29E PUSH2 0x46D CALLDATASIZE PUSH1 0x4 PUSH2 0x2F67 JUMP JUMPDEST PUSH2 0x9DC JUMP JUMPDEST CALLVALUE DUP1 ISZERO PUSH2 0x47E JUMPI PUSH1 0x0 DUP1 REVERT JUMPDEST POP PUSH2 0x3CB PUSH32 0x0 DUP2 JUMP JUMPDEST CALLVALUE DUP1 ISZERO PUSH2 0x4B2 JUMPI PUSH1 0x0 DUP1 REVERT JUMPDEST POP PUSH2 0x29E PUSH2 0x4C1 CALLDATASIZE PUSH1 0x4 PUSH2 0x2F80 JUMP JUMPDEST PUSH2 0xA26 JUMP JUMPDEST CALLVALUE DUP1 ISZERO PUSH2 0x4D2 JUMPI PUSH1 0x0 DUP1 REVERT JUMPDEST POP PUSH2 0x29E PUSH2 0x4E1 CALLDATASIZE PUSH1 0x4 PUSH2 0x2D0F JUMP JUMPDEST PUSH2 0xAEB JUMP JUMPDEST CALLVALUE DUP1 ISZERO PUSH2 0x4F2 JUMPI PUSH1 0x0 DUP1 REVERT JUMPDEST POP PUSH2 0x444 PUSH32 0x8713A7C4465F6FBEE2B6E9D6646D1D9F83FEC929EDFC4BAF661F3C865BDD04D1 DUP2 JUMP JUMPDEST CALLVALUE DUP1 ISZERO PUSH2 0x526 JUMPI PUSH1 0x0 DUP1 REVERT JUMPDEST POP PUSH2 0x29E PUSH2 0x535 CALLDATASIZE PUSH1 0x4 PUSH2 0x2DBC JUMP JUMPDEST PUSH2 0xBB3 JUMP JUMPDEST CALLVALUE DUP1 ISZERO PUSH2 0x546 JUMPI PUSH1 0x0 DUP1 REVERT JUMPDEST POP PUSH2 0x29E PUSH2 0x555 CALLDATASIZE PUSH1 0x4 PUSH2 0x2FA2 JUMP JUMPDEST PUSH2 0xC39 JUMP JUMPDEST CALLVALUE DUP1 ISZERO PUSH2 0x566 JUMPI PUSH1 0x0 DUP1 REVERT JUMPDEST POP PUSH2 0x57A PUSH2 0x575 CALLDATASIZE PUSH1 0x4 PUSH2 0x2EAF JUMP JUMPDEST PUSH2 0xD3E JUMP JUMPDEST PUSH1 0x40 DUP1 MLOAD SWAP6 DUP7 MSTORE PUSH1 0x20 DUP7 ADD SWAP5 SWAP1 SWAP5 MSTORE SWAP3 DUP5 ADD SWAP2 SWAP1 SWAP2 MSTORE PUSH1 0x60 DUP4 ADD MSTORE PUSH1 0x80 DUP3 ADD MSTORE PUSH1 0xA0 ADD PUSH2 0x2CC JUMP JUMPDEST CALLVALUE DUP1 ISZERO PUSH2 0x5AE JUMPI PUSH1 0x0 DUP1 REVERT JUMPDEST POP PUSH2 0x3CB PUSH32 0x0 DUP2 JUMP JUMPDEST CALLVALUE DUP1 ISZERO PUSH2 0x5E2 JUMPI PUSH1 0x0 DUP1 REVERT JUMPDEST POP PUSH2 0x444 PUSH2 0x5F1 CALLDATASIZE PUSH1 0x4 PUSH2 0x2F67 JUMP JUMPDEST PUSH2 0xF06 JUMP JUMPDEST CALLVALUE DUP1 ISZERO PUSH2 0x602 JUMPI PUSH1 0x0 DUP1 REVERT JUMPDEST POP PUSH2 0x60B PUSH2 0xF32 JUMP JUMPDEST PUSH1 0x40 MLOAD PUSH2 0x2CC SWAP2 SWAP1 PUSH2 0x3079 JUMP JUMPDEST PUSH2 0x3CB PUSH2 0x626 CALLDATASIZE PUSH1 0x4 PUSH2 0x30BB JUMP JUMPDEST PUSH2 0xFB3 JUMP JUMPDEST CALLVALUE DUP1 ISZERO PUSH2 0x637 JUMPI PUSH1 0x0 DUP1 REVERT JUMPDEST POP PUSH2 0x29E PUSH2 0x646 CALLDATASIZE PUSH1 0x4 PUSH2 0x2F67 JUMP JUMPDEST PUSH2 0x109D JUMP JUMPDEST CALLVALUE DUP1 ISZERO PUSH2 0x657 JUMPI PUSH1 0x0 DUP1 REVERT JUMPDEST POP PUSH2 0x444 PUSH2 0x666 CALLDATASIZE PUSH1 0x4 PUSH2 0x2F67 JUMP JUMPDEST PUSH2 0x10E7 JUMP JUMPDEST CALLVALUE DUP1 ISZERO PUSH2 0x677 JUMPI PUSH1 0x0 DUP1 REVERT JUMPDEST POP PUSH2 0x444 PUSH2 0x10F2 JUMP JUMPDEST CALLVALUE DUP1 ISZERO PUSH2 0x68C JUMPI PUSH1 0x0 DUP1 REVERT JUMPDEST POP PUSH2 0x29E PUSH2 0x69B CALLDATASIZE PUSH1 0x4 PUSH2 0x318A JUMP JUMPDEST PUSH2 0x1103 JUMP JUMPDEST CALLVALUE DUP1 ISZERO PUSH2 0x6AC JUMPI PUSH1 0x0 DUP1 REVERT JUMPDEST POP PUSH2 0x35A PUSH2 0x6BB CALLDATASIZE PUSH1 0x4 PUSH2 0x31BF JUMP JUMPDEST PUSH32 0xBC197C8100000000000000000000000000000000000000000000000000000000 SWAP9 SWAP8 POP POP POP POP POP POP POP POP JUMP JUMPDEST CALLVALUE DUP1 ISZERO PUSH2 0x6F4 JUMPI PUSH1 0x0 DUP1 REVERT JUMPDEST POP PUSH2 0x444 PUSH2 0x11CE JUMP JUMPDEST CALLVALUE DUP1 ISZERO PUSH2 0x709 JUMPI PUSH1 0x0 DUP1 REVERT JUMPDEST POP PUSH2 0x29E PUSH2 0x718 CALLDATASIZE PUSH1 0x4 PUSH2 0x2F80 JUMP JUMPDEST PUSH2 0x11F8 JUMP JUMPDEST CALLVALUE DUP1 ISZERO PUSH2 0x729 JUMPI PUSH1 0x0 DUP1 REVERT JUMPDEST POP PUSH2 0x35A PUSH2 0x738 CALLDATASIZE PUSH1 0x4 PUSH2 0x327A JUMP JUMPDEST PUSH32 0xF23A6E6100000000000000000000000000000000000000000000000000000000 SWAP7 SWAP6 POP POP POP POP POP POP JUMP JUMPDEST PUSH1 0x0 PUSH2 0x7B1 PUSH32 0xBE27A319EFC8734E89E26BA4BC95F5C788584163B959F03FA04E2D7AB4B9A120 PUSH32 0xFFFFFFFF00000000000000000000000000000000000000000000000000000000 DUP5 AND PUSH2 0x124B JUMP JUMPDEST SWAP3 SWAP2 POP POP JUMP JUMPDEST PUSH1 0x0 PUSH2 0x7B1 DUP3 PUSH2 0x12A9 JUMP JUMPDEST CALLER ADDRESS EQ PUSH2 0x808 JUMPI PUSH1 0x40 MLOAD PUSH32 0xE125889400000000000000000000000000000000000000000000000000000000 DUP2 MSTORE CALLER PUSH1 0x4 DUP3 ADD MSTORE ADDRESS PUSH1 0x24 DUP3 ADD MSTORE PUSH1 0x44 ADD JUMPDEST PUSH1 0x40 MLOAD DUP1 SWAP2 SUB SWAP1 REVERT JUMPDEST PUSH2 0x811 DUP2 PUSH2 0x1305 JUMP JUMPDEST POP JUMP JUMPDEST CALLER ADDRESS EQ PUSH2 0x855 JUMPI PUSH1 0x40 MLOAD PUSH32 0xE125889400000000000000000000000000000000000000000000000000000000 DUP2 MSTORE CALLER PUSH1 0x4 DUP3 ADD MSTORE ADDRESS PUSH1 0x24 DUP3 ADD MSTORE PUSH1 0x44 ADD PUSH2 0x7FF JUMP JUMPDEST DUP1 PUSH1 0x0 JUMPDEST DUP2 DUP2 LT ISZERO PUSH2 0x919 JUMPI PUSH1 0x0 DUP5 DUP5 DUP4 DUP2 DUP2 LT PUSH2 0x875 JUMPI PUSH2 0x875 PUSH2 0x32F2 JUMP JUMPDEST SWAP1 POP PUSH1 0x20 MUL ADD CALLDATALOAD SWAP1 POP PUSH2 0x8D5 DUP2 PUSH1 0x0 PUSH1 0x40 DUP1 MLOAD PUSH32 0x849E7BDC245DB17E50B9F43086F1914D70EB4DAB6DD89AF4D541D53353AD97DE PUSH1 0x20 DUP1 DUP4 ADD SWAP2 SWAP1 SWAP2 MSTORE DUP2 DUP4 ADD DUP6 SWAP1 MSTORE DUP3 MLOAD DUP1 DUP4 SUB DUP5 ADD DUP2 MSTORE PUSH1 0x60 SWAP1 SWAP3 ADD SWAP1 SWAP3 MSTORE DUP1 MLOAD SWAP2 ADD KECCAK256 DUP2 SWAP1 SSTORE POP POP JUMP JUMPDEST DUP1 PUSH32 0x804F6171D6008D9E16EE3AA0561FEC328397F4BA2827A6605DB388CFDEFA3B0C PUSH1 0x0 PUSH1 0x40 MLOAD PUSH2 0x908 SWAP2 DUP2 MSTORE PUSH1 0x20 ADD SWAP1 JUMP JUMPDEST PUSH1 0x40 MLOAD DUP1 SWAP2 SUB SWAP1 LOG2 POP PUSH1 0x1 ADD PUSH2 0x859 JUMP JUMPDEST POP POP POP POP JUMP JUMPDEST PUSH1 0x0 DUP1 PUSH2 0x92D DUP6 DUP6 DUP6 PUSH2 0x13C0 JUMP JUMPDEST POP SWAP1 POP DUP1 ISZERO PUSH2 0x95F JUMPI POP PUSH32 0x1626BA7E00000000000000000000000000000000000000000000000000000000 SWAP1 POP PUSH2 0x965 JUMP JUMPDEST POP PUSH1 0x0 SWAP1 POP JUMPDEST SWAP4 SWAP3 POP POP POP JUMP JUMPDEST PUSH1 0x0 PUSH2 0x7B1 DUP3 PUSH2 0x763 JUMP JUMPDEST PUSH1 0x0 DUP1 PUSH2 0x99C DUP7 DUP7 PUSH1 0x40 MLOAD PUSH2 0x98D SWAP3 SWAP2 SWAP1 PUSH2 0x2CD1 JUMP JUMPDEST PUSH1 0x40 MLOAD DUP1 SWAP2 SUB SWAP1 KECCAK256 DUP6 DUP6 PUSH2 0x13C0 JUMP JUMPDEST POP SWAP1 POP DUP1 ISZERO PUSH2 0x9CE JUMPI POP PUSH32 0x20C13B0B00000000000000000000000000000000000000000000000000000000 SWAP1 POP PUSH2 0x9D4 JUMP JUMPDEST POP PUSH1 0x0 SWAP1 POP JUMPDEST SWAP5 SWAP4 POP POP POP POP JUMP JUMPDEST CALLER ADDRESS EQ PUSH2 0xA1D JUMPI PUSH1 0x40 MLOAD PUSH32 0xE125889400000000000000000000000000000000000000000000000000000000 DUP2 MSTORE CALLER PUSH1 0x4 DUP3 ADD MSTORE ADDRESS PUSH1 0x24 DUP3 ADD MSTORE PUSH1 0x44 ADD PUSH2 0x7FF JUMP JUMPDEST PUSH2 0x811 DUP2 PUSH2 0x13FE JUMP JUMPDEST CALLER ADDRESS EQ PUSH2 0xA67 JUMPI PUSH1 0x40 MLOAD PUSH32 0xE125889400000000000000000000000000000000000000000000000000000000 DUP2 MSTORE CALLER PUSH1 0x4 DUP3 ADD MSTORE ADDRESS PUSH1 0x24 DUP3 ADD MSTORE PUSH1 0x44 ADD PUSH2 0x7FF JUMP JUMPDEST PUSH1 0x40 DUP1 MLOAD PUSH32 0x849E7BDC245DB17E50B9F43086F1914D70EB4DAB6DD89AF4D541D53353AD97DE PUSH1 0x20 DUP1 DUP4 ADD SWAP2 SWAP1 SWAP2 MSTORE DUP2 DUP4 ADD DUP6 SWAP1 MSTORE DUP3 MLOAD DUP1 DUP4 SUB DUP5 ADD DUP2 MSTORE PUSH1 0x60 DUP4 ADD SWAP4 DUP5 SWAP1 MSTORE DUP1 MLOAD SWAP2 ADD KECCAK256 DUP4 SWAP1 SSTORE SWAP1 DUP3 SWAP1 MSTORE DUP3 SWAP1 PUSH32 0x804F6171D6008D9E16EE3AA0561FEC328397F4BA2827A6605DB388CFDEFA3B0C SWAP1 PUSH1 0x80 ADD PUSH1 0x40 MLOAD DUP1 SWAP2 SUB SWAP1 LOG2 POP POP JUMP JUMPDEST CALLER ADDRESS EQ PUSH2 0xB2C JUMPI PUSH1 0x40 MLOAD PUSH32 0xE125889400000000000000000000000000000000000000000000000000000000 DUP2 MSTORE CALLER PUSH1 0x4 DUP3 ADD MSTORE ADDRESS PUSH1 0x24 DUP3 ADD MSTORE PUSH1 0x44 ADD PUSH2 0x7FF JUMP JUMPDEST PUSH1 0x0 PUSH2 0xB37 DUP3 PUSH2 0x763 JUMP JUMPDEST PUSH20 0xFFFFFFFFFFFFFFFFFFFFFFFFFFFFFFFFFFFFFFFF AND SUB PUSH2 0xBA8 JUMPI PUSH1 0x40 MLOAD PUSH32 0x1C3812CC00000000000000000000000000000000000000000000000000000000 DUP2 MSTORE PUSH32 0xFFFFFFFF00000000000000000000000000000000000000000000000000000000 DUP3 AND PUSH1 0x4 DUP3 ADD MSTORE PUSH1 0x24 ADD PUSH2 0x7FF JUMP JUMPDEST PUSH2 0x811 DUP2 PUSH1 0x0 PUSH2 0x14BA JUMP JUMPDEST CALLER ADDRESS EQ PUSH2 0xBF4 JUMPI PUSH1 0x40 MLOAD PUSH32 0xE125889400000000000000000000000000000000000000000000000000000000 DUP2 MSTORE CALLER PUSH1 0x4 DUP3 ADD MSTORE ADDRESS PUSH1 0x24 DUP3 ADD MSTORE PUSH1 0x44 ADD PUSH2 0x7FF JUMP JUMPDEST PUSH1 0x0 PUSH2 0xC27 DUP4 DUP4 PUSH1 0x40 MLOAD PUSH1 0x20 ADD PUSH2 0xC0C SWAP3 SWAP2 SWAP1 PUSH2 0x34C9 JUMP JUMPDEST PUSH1 0x40 MLOAD PUSH1 0x20 DUP2 DUP4 SUB SUB DUP2 MSTORE SWAP1 PUSH1 0x40 MSTORE DUP1 MLOAD SWAP1 PUSH1 0x20 ADD KECCAK256 PUSH2 0x157A JUMP JUMPDEST SWAP1 POP PUSH2 0xC34 DUP2 DUP5 DUP5 PUSH2 0x15FF JUMP JUMPDEST POP POP POP JUMP JUMPDEST PUSH20 0xFFFFFFFFFFFFFFFFFFFFFFFFFFFFFFFFFFFFFFFF PUSH32 0x0 AND ADDRESS SUB PUSH2 0xCA8 JUMPI PUSH1 0x40 MLOAD PUSH32 0xA57D61D00000000000000000000000000000000000000000000000000000000 DUP2 MSTORE PUSH1 0x4 ADD PUSH1 0x40 MLOAD DUP1 SWAP2 SUB SWAP1 REVERT JUMPDEST PUSH2 0xCB1 DUP4 PUSH2 0x1787 JUMP JUMPDEST PUSH1 0x0 DUP1 PUSH2 0xCE9 DUP6 DUP9 DUP9 PUSH1 0x40 MLOAD PUSH1 0x20 ADD PUSH2 0xCCC SWAP4 SWAP3 SWAP2 SWAP1 PUSH2 0x3511 JUMP JUMPDEST PUSH1 0x40 MLOAD PUSH1 0x20 DUP2 DUP4 SUB SUB DUP2 MSTORE SWAP1 PUSH1 0x40 MSTORE DUP1 MLOAD SWAP1 PUSH1 0x20 ADD KECCAK256 DUP6 DUP6 PUSH2 0x13C0 JUMP JUMPDEST SWAP2 POP SWAP2 POP DUP2 PUSH2 0xD2A JUMPI DUP1 DUP5 DUP5 PUSH1 0x40 MLOAD PUSH32 0x8F4A234F00000000000000000000000000000000000000000000000000000000 DUP2 MSTORE PUSH1 0x4 ADD PUSH2 0x7FF SWAP4 SWAP3 SWAP2 SWAP1 PUSH2 0x3534 JUMP JUMPDEST PUSH2 0xD35 DUP2 DUP9 DUP9 PUSH2 0x15FF JUMP JUMPDEST POP POP POP POP POP POP POP JUMP JUMPDEST PUSH1 0x0 DUP1 PUSH1 0x0 DUP1 PUSH1 0x0 DUP1 DUP8 DUP8 PUSH1 0x0 DUP2 DUP2 LT PUSH2 0xD5A JUMPI PUSH2 0xD5A PUSH2 0x32F2 JUMP JUMPDEST SWAP1 SWAP2 ADD CALLDATALOAD PUSH32 0xFF00000000000000000000000000000000000000000000000000000000000000 AND SWAP2 POP DUP2 SWAP1 POP PUSH2 0xDB0 JUMPI PUSH2 0xD92 DUP10 PUSH2 0x157A JUMP JUMPDEST SWAP3 POP PUSH2 0xD9F DUP4 DUP10 DUP10 PUSH2 0x1884 JUMP JUMPDEST SWAP3 SWAP9 POP SWAP1 SWAP7 POP SWAP5 POP SWAP2 POP PUSH2 0xEFB SWAP1 POP JUMP JUMPDEST PUSH32 0xFF00000000000000000000000000000000000000000000000000000000000000 DUP2 DUP2 AND ADD PUSH2 0xDEF JUMPI PUSH2 0xDE2 DUP10 PUSH2 0x157A JUMP JUMPDEST SWAP3 POP PUSH2 0xD9F DUP4 DUP10 DUP10 PUSH2 0x18D5 JUMP JUMPDEST PUSH32 0xFE00000000000000000000000000000000000000000000000000000000000000 PUSH32 0xFF00000000000000000000000000000000000000000000000000000000000000 DUP3 AND ADD PUSH2 0xE41 JUMPI PUSH2 0xDE2 DUP10 PUSH2 0x1901 JUMP JUMPDEST PUSH32 0xFD00000000000000000000000000000000000000000000000000000000000000 PUSH32 0xFF00000000000000000000000000000000000000000000000000000000000000 DUP3 AND ADD PUSH2 0xEA5 JUMPI PUSH2 0xE95 DUP10 DUP10 DUP10 PUSH2 0x196E JUMP JUMPDEST SWAP6 POP SWAP6 POP SWAP6 POP SWAP6 POP SWAP6 POP POP PUSH2 0xEFB JUMP JUMPDEST PUSH1 0x40 MLOAD PUSH32 0x6085CD8200000000000000000000000000000000000000000000000000000000 DUP2 MSTORE PUSH32 0xFF00000000000000000000000000000000000000000000000000000000000000 DUP3 AND PUSH1 0x4 DUP3 ADD MSTORE PUSH1 0x24 ADD PUSH2 0x7FF JUMP JUMPDEST SWAP4 SWAP8 SWAP3 SWAP7 POP SWAP4 POP SWAP4 POP JUMP JUMPDEST PUSH1 0x0 PUSH2 0x7B1 PUSH32 0x8D0BF1FD623D628C741362C1289948E57B3E2905218C676D3E69ABEE36D6AE2E DUP4 PUSH2 0x124B JUMP JUMPDEST PUSH1 0x60 PUSH2 0xF8F PUSH2 0xF8A PUSH2 0xF42 PUSH2 0x11CE JUMP JUMPDEST PUSH1 0x40 MLOAD PUSH32 0x170122000000000000000000000000000000000000000000000000000000000 PUSH1 0x20 DUP3 ADD MSTORE PUSH1 0x24 DUP2 ADD SWAP2 SWAP1 SWAP2 MSTORE PUSH1 0x44 ADD PUSH1 0x40 MLOAD PUSH1 0x20 DUP2 DUP4 SUB SUB DUP2 MSTORE SWAP1 PUSH1 0x40 MSTORE PUSH2 0x1AEB JUMP JUMPDEST PUSH2 0x1D04 JUMP JUMPDEST PUSH1 0x40 MLOAD PUSH1 0x20 ADD PUSH2 0xF9F SWAP2 SWAP1 PUSH2 0x354E JUMP JUMPDEST PUSH1 0x40 MLOAD PUSH1 0x20 DUP2 DUP4 SUB SUB DUP2 MSTORE SWAP1 PUSH1 0x40 MSTORE SWAP1 POP SWAP1 JUMP JUMPDEST PUSH1 0x0 CALLER ADDRESS EQ PUSH2 0xFF6 JUMPI PUSH1 0x40 MLOAD PUSH32 0xE125889400000000000000000000000000000000000000000000000000000000 DUP2 MSTORE CALLER PUSH1 0x4 DUP3 ADD MSTORE ADDRESS PUSH1 0x24 DUP3 ADD MSTORE PUSH1 0x44 ADD PUSH2 0x7FF JUMP JUMPDEST DUP2 MLOAD PUSH1 0x20 DUP4 ADD CALLVALUE CREATE SWAP1 POP PUSH20 0xFFFFFFFFFFFFFFFFFFFFFFFFFFFFFFFFFFFFFFFF DUP2 AND PUSH2 0x104F JUMPI DUP2 PUSH1 0x40 MLOAD PUSH32 0xD25719100000000000000000000000000000000000000000000000000000000 DUP2 MSTORE PUSH1 0x4 ADD PUSH2 0x7FF SWAP2 SWAP1 PUSH2 0x3079 JUMP JUMPDEST PUSH1 0x40 MLOAD PUSH20 0xFFFFFFFFFFFFFFFFFFFFFFFFFFFFFFFFFFFFFFFF DUP3 AND DUP2 MSTORE PUSH32 0xA506AD4E7F05ECEBA62A023C3219E5BD98A615F4FA87E2AFB08A2DA5CF62BF0C SWAP1 PUSH1 0x20 ADD PUSH1 0x40 MLOAD DUP1 SWAP2 SUB SWAP1 LOG1 SWAP2 SWAP1 POP JUMP JUMPDEST CALLER ADDRESS EQ PUSH2 0x10DE JUMPI PUSH1 0x40 MLOAD PUSH32 0xE125889400000000000000000000000000000000000000000000000000000000 DUP2 MSTORE CALLER PUSH1 0x4 DUP3 ADD MSTORE ADDRESS PUSH1 0x24 DUP3 ADD MSTORE PUSH1 0x44 ADD PUSH2 0x7FF JUMP JUMPDEST PUSH2 0x811 DUP2 PUSH2 0x1D2D JUMP JUMPDEST PUSH1 0x0 PUSH2 0x7B1 DUP3 PUSH2 0x1D86 JUMP JUMPDEST PUSH1 0x0 PUSH2 0x10FE PUSH1 0x0 PUSH2 0xF06 JUMP JUMPDEST SWAP1 POP SWAP1 JUMP JUMPDEST CALLER ADDRESS EQ PUSH2 0x1144 JUMPI PUSH1 0x40 MLOAD PUSH32 0xE125889400000000000000000000000000000000000000000000000000000000 DUP2 MSTORE CALLER PUSH1 0x4 DUP3 ADD MSTORE ADDRESS PUSH1 0x24 DUP3 ADD MSTORE PUSH1 0x44 ADD PUSH2 0x7FF JUMP JUMPDEST PUSH1 0x0 PUSH2 0x114F DUP4 PUSH2 0x763 JUMP JUMPDEST PUSH20 0xFFFFFFFFFFFFFFFFFFFFFFFFFFFFFFFFFFFFFFFF AND EQ PUSH2 0x11C0 JUMPI PUSH1 0x40 MLOAD PUSH32 0x5B4D6D6A00000000000000000000000000000000000000000000000000000000 DUP2 MSTORE PUSH32 0xFFFFFFFF00000000000000000000000000000000000000000000000000000000 DUP4 AND PUSH1 0x4 DUP3 ADD MSTORE PUSH1 0x24 ADD PUSH2 0x7FF JUMP JUMPDEST PUSH2 0x11CA DUP3 DUP3 PUSH2 0x14BA JUMP JUMPDEST POP POP JUMP JUMPDEST PUSH1 0x0 PUSH2 0x10FE PUSH32 0xEECAC93CED8722D209199364CDA3BC33DA3BC3A23DAEF6BE49EBD780511D033 SLOAD SWAP1 JUMP JUMPDEST CALLER ADDRESS EQ PUSH2 0x1239 JUMPI PUSH1 0x40 MLOAD PUSH32 0xE125889400000000000000000000000000000000000000000000000000000000 DUP2 MSTORE CALLER PUSH1 0x4 DUP3 ADD MSTORE ADDRESS PUSH1 0x24 DUP3 ADD MSTORE PUSH1 0x44 ADD PUSH2 0x7FF JUMP JUMPDEST PUSH2 0x1242 DUP3 PUSH2 0x13FE JUMP JUMPDEST PUSH2 0x11CA DUP2 PUSH2 0x1D2D JUMP JUMPDEST PUSH1 0x0 DUP1 DUP4 DUP4 PUSH1 0x40 MLOAD PUSH1 0x20 ADD PUSH2 0x126A SWAP3 SWAP2 SWAP1 SWAP2 DUP3 MSTORE PUSH1 0x20 DUP3 ADD MSTORE PUSH1 0x40 ADD SWAP1 JUMP JUMPDEST PUSH1 0x40 DUP1 MLOAD PUSH32 0xFFFFFFFFFFFFFFFFFFFFFFFFFFFFFFFFFFFFFFFFFFFFFFFFFFFFFFFFFFFFFFE0 DUP2 DUP5 SUB ADD DUP2 MSTORE SWAP2 SWAP1 MSTORE DUP1 MLOAD PUSH1 0x20 SWAP1 SWAP2 ADD KECCAK256 SLOAD SWAP5 SWAP4 POP POP POP POP JUMP JUMPDEST PUSH1 0x0 PUSH32 0x2E74B92A00000000000000000000000000000000000000000000000000000000 PUSH32 0xFFFFFFFF00000000000000000000000000000000000000000000000000000000 DUP4 AND ADD PUSH2 0x12FC JUMPI POP PUSH1 0x1 SWAP2 SWAP1 POP JUMP JUMPDEST PUSH2 0x7B1 DUP3 PUSH2 0x1DB2 JUMP JUMPDEST PUSH20 0xFFFFFFFFFFFFFFFFFFFFFFFFFFFFFFFFFFFFFFFF DUP2 AND EXTCODESIZE PUSH2 0x136B JUMPI PUSH1 0x40 MLOAD PUSH32 0xC76093700000000000000000000000000000000000000000000000000000000 DUP2 MSTORE PUSH20 0xFFFFFFFFFFFFFFFFFFFFFFFFFFFFFFFFFFFFFFFF DUP3 AND PUSH1 0x4 DUP3 ADD MSTORE PUSH1 0x24 ADD PUSH2 0x7FF JUMP JUMPDEST PUSH2 0x1373 DUP2 ADDRESS SSTORE JUMP JUMPDEST PUSH1 0x40 MLOAD PUSH20 0xFFFFFFFFFFFFFFFFFFFFFFFFFFFFFFFFFFFFFFFF DUP3 AND DUP2 MSTORE PUSH32 0x310BA5F1D2ED074B51E2ECCD052A47AE9AB7C6B800D1FCA3DB3999D6A592CA03 SWAP1 PUSH1 0x20 ADD JUMPDEST PUSH1 0x40 MLOAD DUP1 SWAP2 SUB SWAP1 LOG1 POP JUMP JUMPDEST PUSH1 0x0 DUP1 PUSH1 0x0 DUP1 PUSH1 0x0 PUSH2 0x13D3 DUP9 DUP9 DUP9 PUSH2 0xD3E JUMP JUMPDEST POP SWAP7 POP SWAP2 SWAP5 POP SWAP3 POP SWAP1 POP DUP3 DUP3 LT DUP1 ISZERO SWAP1 PUSH2 0x13F1 JUMPI POP PUSH2 0x13F1 DUP2 PUSH2 0x1E0E JUMP JUMPDEST SWAP5 POP POP POP POP SWAP4 POP SWAP4 SWAP2 POP POP JUMP JUMPDEST DUP1 PUSH2 0x1435 JUMPI PUSH1 0x40 MLOAD PUSH32 0x4294D12700000000000000000000000000000000000000000000000000000000 DUP2 MSTORE PUSH1 0x4 ADD PUSH1 0x40 MLOAD DUP1 SWAP2 SUB SWAP1 REVERT JUMPDEST PUSH2 0x145E PUSH32 0xEA7157FA25E3AA17D0AE2D5280FA4E24D421C61842AA85E45194E1145AA72BF8 DUP3 SWAP1 SSTORE JUMP JUMPDEST PUSH1 0x40 MLOAD DUP2 DUP2 MSTORE PUSH32 0x307ED6BD941EE9FC80F369C94AF5FA11E25BAB5102A6140191756C5474A30BFA SWAP1 PUSH1 0x20 ADD PUSH1 0x40 MLOAD DUP1 SWAP2 SUB SWAP1 LOG1 PUSH2 0x811 PUSH32 0x0 PUSH2 0x1305 JUMP JUMPDEST PUSH1 0x40 DUP1 MLOAD PUSH32 0xBE27A319EFC8734E89E26BA4BC95F5C788584163B959F03FA04E2D7AB4B9A120 PUSH1 0x20 DUP1 DUP4 ADD SWAP2 SWAP1 SWAP2 MSTORE PUSH32 0xFFFFFFFF00000000000000000000000000000000000000000000000000000000 DUP6 AND DUP3 DUP5 ADD DUP2 SWAP1 MSTORE DUP4 MLOAD DUP1 DUP5 SUB DUP6 ADD DUP2 MSTORE PUSH1 0x60 DUP5 ADD DUP1 DUP7 MSTORE DUP2 MLOAD SWAP2 SWAP1 SWAP4 ADD KECCAK256 PUSH20 0xFFFFFFFFFFFFFFFFFFFFFFFFFFFFFFFFFFFFFFFF DUP7 AND SWAP1 DUP2 SWAP1 SSTORE SWAP2 MSTORE PUSH1 0x80 DUP3 ADD MSTORE SWAP1 MLOAD PUSH32 0xD7FC113EAF016DB4681A1BA86D083CE3E0961F321062A75AC2B0AEB33DEEED1 SWAP2 DUP2 SWAP1 SUB PUSH1 0xA0 ADD SWAP1 LOG1 POP POP JUMP JUMPDEST PUSH1 0x40 MLOAD PUSH32 0x1901000000000000000000000000000000000000000000000000000000000000 PUSH1 0x20 DUP3 ADD MSTORE CHAINID PUSH1 0x22 DUP3 ADD MSTORE PUSH32 0xFFFFFFFFFFFFFFFFFFFFFFFFFFFFFFFFFFFFFFFF000000000000000000000000 ADDRESS PUSH1 0x60 SHL AND PUSH1 0x42 DUP3 ADD MSTORE PUSH1 0x56 DUP2 ADD DUP3 SWAP1 MSTORE PUSH1 0x0 SWAP1 PUSH1 0x76 ADD JUMPDEST PUSH1 0x40 MLOAD PUSH1 0x20 DUP2 DUP4 SUB SUB DUP2 MSTORE SWAP1 PUSH1 0x40 MSTORE DUP1 MLOAD SWAP1 PUSH1 0x20 ADD KECCAK256 SWAP1 POP SWAP2 SWAP1 POP JUMP JUMPDEST DUP1 PUSH1 0x0 JUMPDEST DUP2 DUP2 LT ISZERO PUSH2 0x1780 JUMPI CALLDATASIZE DUP5 DUP5 DUP4 DUP2 DUP2 LT PUSH2 0x161E JUMPI PUSH2 0x161E PUSH2 0x32F2 JUMP JUMPDEST SWAP1 POP PUSH1 0x20 MUL DUP2 ADD SWAP1 PUSH2 0x1630 SWAP2 SWAP1 PUSH2 0x3593 JUMP JUMPDEST SWAP1 POP PUSH1 0x40 DUP2 ADD CALLDATALOAD DUP1 GAS LT ISZERO PUSH2 0x1685 JUMPI DUP3 DUP2 GAS PUSH1 0x40 MLOAD PUSH32 0x2BB3E3BA00000000000000000000000000000000000000000000000000000000 DUP2 MSTORE PUSH1 0x4 DUP2 ADD SWAP4 SWAP1 SWAP4 MSTORE PUSH1 0x24 DUP4 ADD SWAP2 SWAP1 SWAP2 MSTORE PUSH1 0x44 DUP3 ADD MSTORE PUSH1 0x64 ADD PUSH2 0x7FF JUMP JUMPDEST PUSH1 0x0 PUSH2 0x1694 PUSH1 0x20 DUP5 ADD DUP5 PUSH2 0x35D1 JUMP JUMPDEST ISZERO PUSH2 0x16D3 JUMPI PUSH2 0x16CC PUSH2 0x16AC PUSH1 0x80 DUP6 ADD PUSH1 0x60 DUP7 ADD PUSH2 0x2D55 JUMP JUMPDEST DUP4 ISZERO PUSH2 0x16B8 JUMPI DUP4 PUSH2 0x16BA JUMP JUMPDEST GAS JUMPDEST PUSH2 0x16C7 PUSH1 0xA0 DUP8 ADD DUP8 PUSH2 0x35EC JUMP JUMPDEST PUSH2 0x1E19 JUMP JUMPDEST SWAP1 POP PUSH2 0x170E JUMP JUMPDEST PUSH2 0x170B PUSH2 0x16E6 PUSH1 0x80 DUP6 ADD PUSH1 0x60 DUP7 ADD PUSH2 0x2D55 JUMP JUMPDEST PUSH1 0x80 DUP6 ADD CALLDATALOAD DUP5 ISZERO PUSH2 0x16F7 JUMPI DUP5 PUSH2 0x16F9 JUMP JUMPDEST GAS JUMPDEST PUSH2 0x1706 PUSH1 0xA0 DUP9 ADD DUP9 PUSH2 0x35EC JUMP JUMPDEST PUSH2 0x1E34 JUMP JUMPDEST SWAP1 POP JUMPDEST DUP1 ISZERO PUSH2 0x1753 JUMPI DUP8 PUSH32 0x5C4EEB02DABF8976016AB414D617F9A162936DCACE3CDEF8C69EF6E262AD5AE7 DUP6 PUSH1 0x40 MLOAD PUSH2 0x1746 SWAP2 DUP2 MSTORE PUSH1 0x20 ADD SWAP1 JUMP JUMPDEST PUSH1 0x40 MLOAD DUP1 SWAP2 SUB SWAP1 LOG2 PUSH2 0x1775 JUMP JUMPDEST PUSH2 0x1775 PUSH2 0x1766 PUSH1 0x40 DUP6 ADD PUSH1 0x20 DUP7 ADD PUSH2 0x35D1 JUMP JUMPDEST DUP10 DUP7 PUSH2 0x1770 PUSH2 0x1E51 JUMP JUMPDEST PUSH2 0x1E70 JUMP JUMPDEST POP POP POP PUSH1 0x1 ADD PUSH2 0x1603 JUMP JUMPDEST POP POP POP POP POP JUMP JUMPDEST PUSH1 0x60 DUP2 SWAP1 SHR PUSH12 0xFFFFFFFFFFFFFFFFFFFFFFFF DUP3 AND PUSH1 0x0 PUSH2 0x17A6 DUP4 PUSH2 0xF06 JUMP JUMPDEST SWAP1 POP DUP2 DUP2 EQ PUSH2 0x17F2 JUMPI PUSH1 0x40 MLOAD PUSH32 0x9B6514F400000000000000000000000000000000000000000000000000000000 DUP2 MSTORE PUSH1 0x4 DUP2 ADD DUP5 SWAP1 MSTORE PUSH1 0x24 DUP2 ADD DUP4 SWAP1 MSTORE PUSH1 0x44 DUP2 ADD DUP3 SWAP1 MSTORE PUSH1 0x64 ADD PUSH2 0x7FF JUMP JUMPDEST PUSH1 0x40 DUP1 MLOAD PUSH32 0x8D0BF1FD623D628C741362C1289948E57B3E2905218C676D3E69ABEE36D6AE2E PUSH1 0x20 DUP1 DUP4 ADD SWAP2 SWAP1 SWAP2 MSTORE DUP2 DUP4 ADD DUP7 SWAP1 MSTORE DUP3 MLOAD DUP1 DUP4 SUB DUP5 ADD DUP2 MSTORE PUSH1 0x60 SWAP1 SWAP3 ADD SWAP1 SWAP3 MSTORE DUP1 MLOAD SWAP2 ADD KECCAK256 PUSH1 0x1 DUP4 ADD SWAP1 DUP2 SWAP1 SSTORE PUSH1 0x40 DUP1 MLOAD DUP6 DUP2 MSTORE PUSH1 0x20 DUP2 ADD DUP4 SWAP1 MSTORE PUSH32 0x1F180C27086C7A39EA2A7B25239D1AB92348F07CA7BB59D1438FCF527568F881 SWAP2 ADD PUSH1 0x40 MLOAD DUP1 SWAP2 SUB SWAP1 LOG1 POP POP POP POP POP JUMP JUMPDEST PUSH1 0x0 DUP1 DUP1 DUP1 PUSH2 0x189F DUP8 PUSH2 0x189A DUP8 PUSH1 0x6 DUP2 DUP12 PUSH2 0x3651 JUMP JUMPDEST PUSH2 0x1EBE JUMP JUMPDEST PUSH1 0x0 SWAP1 DUP2 MSTORE DUP8 CALLDATALOAD PUSH1 0xF0 SHR PUSH1 0x20 DUP2 DUP2 MSTORE PUSH1 0x40 DUP1 DUP5 KECCAK256 DUP5 MSTORE PUSH1 0x2 SWAP1 SWAP11 ADD CALLDATALOAD PUSH1 0xE0 SHR SWAP1 DUP2 SWAP1 MSTORE SWAP9 SWAP1 SWAP2 KECCAK256 SWAP1 SWAP10 SWAP2 SWAP9 POP SWAP7 SWAP6 POP SWAP4 POP POP POP POP JUMP JUMPDEST PUSH1 0x0 DUP1 DUP1 DUP1 PUSH2 0x18F0 DUP8 PUSH2 0x18EB DUP8 PUSH1 0x1 DUP2 DUP12 PUSH2 0x3651 JUMP JUMPDEST PUSH2 0x1884 JUMP JUMPDEST SWAP4 POP SWAP4 POP SWAP4 POP SWAP4 POP SWAP4 POP SWAP4 POP SWAP4 POP SWAP4 JUMP JUMPDEST PUSH1 0x40 MLOAD PUSH32 0x1901000000000000000000000000000000000000000000000000000000000000 PUSH1 0x20 DUP3 ADD MSTORE PUSH1 0x0 PUSH1 0x22 DUP3 ADD DUP2 SWAP1 MSTORE PUSH32 0xFFFFFFFFFFFFFFFFFFFFFFFFFFFFFFFFFFFFFFFF000000000000000000000000 ADDRESS PUSH1 0x60 SHL AND PUSH1 0x42 DUP4 ADD MSTORE PUSH1 0x56 DUP3 ADD DUP4 SWAP1 MSTORE SWAP1 PUSH1 0x76 ADD PUSH2 0x15E2 JUMP JUMPDEST PUSH1 0x0 DUP1 DUP1 DUP1 DUP1 PUSH1 0x4 PUSH1 0x1 DUP9 ADD CALLDATALOAD PUSH1 0xE8 SHR DUP3 PUSH2 0x1989 DUP4 DUP4 PUSH2 0x36AA JUMP JUMPDEST SWAP1 POP PUSH2 0x199B DUP12 PUSH2 0x575 DUP4 DUP7 DUP14 DUP16 PUSH2 0x3651 JUMP JUMPDEST SWAP4 SWAP12 POP SWAP2 SWAP10 POP SWAP8 POP SWAP6 POP SWAP4 POP DUP8 DUP8 LT ISZERO PUSH2 0x19F3 JUMPI PUSH2 0x19BB DUP2 DUP5 DUP12 DUP14 PUSH2 0x3651 JUMP JUMPDEST DUP10 DUP10 PUSH1 0x40 MLOAD PUSH32 0xB006ABA000000000000000000000000000000000000000000000000000000000 DUP2 MSTORE PUSH1 0x4 ADD PUSH2 0x7FF SWAP5 SWAP4 SWAP3 SWAP2 SWAP1 PUSH2 0x36BD JUMP JUMPDEST DUP1 SWAP3 POP JUMPDEST DUP9 DUP4 LT ISZERO PUSH2 0x1ADD JUMPI PUSH1 0x3 DUP4 ADD SWAP3 DUP11 ADD CALLDATALOAD PUSH1 0xE8 SHR SWAP2 POP PUSH2 0x1A16 DUP4 DUP4 PUSH2 0x36AA JUMP JUMPDEST SWAP1 POP PUSH1 0x0 PUSH2 0x1A38 PUSH2 0x1A26 DUP9 PUSH2 0x2354 JUMP JUMPDEST DUP13 DUP13 DUP8 SWAP1 DUP7 SWAP3 PUSH2 0x575 SWAP4 SWAP3 SWAP2 SWAP1 PUSH2 0x3651 JUMP JUMPDEST SWAP4 SWAP13 POP SWAP2 SWAP11 POP SWAP9 POP SWAP1 SWAP2 POP POP DUP9 DUP9 LT ISZERO PUSH2 0x1A90 JUMPI PUSH2 0x1A58 DUP3 DUP6 DUP13 DUP15 PUSH2 0x3651 JUMP JUMPDEST DUP11 DUP11 PUSH1 0x40 MLOAD PUSH32 0xB006ABA000000000000000000000000000000000000000000000000000000000 DUP2 MSTORE PUSH1 0x4 ADD PUSH2 0x7FF SWAP5 SWAP4 SWAP3 SWAP2 SWAP1 PUSH2 0x36BD JUMP JUMPDEST DUP5 DUP2 LT PUSH2 0x1AD3 JUMPI PUSH1 0x40 MLOAD PUSH32 0x37DAF62B00000000000000000000000000000000000000000000000000000000 DUP2 MSTORE PUSH1 0x4 DUP2 ADD DUP3 SWAP1 MSTORE PUSH1 0x24 DUP2 ADD DUP7 SWAP1 MSTORE PUSH1 0x44 ADD PUSH2 0x7FF JUMP JUMPDEST SWAP4 POP SWAP2 POP DUP2 PUSH2 0x19F7 JUMP JUMPDEST POP POP POP SWAP4 SWAP8 SWAP3 SWAP7 POP SWAP4 POP SWAP4 POP JUMP JUMPDEST DUP1 MLOAD PUSH1 0x60 SWAP1 PUSH1 0x3 DUP2 SWAP1 SHL PUSH1 0x0 PUSH1 0x5 PUSH1 0x4 DUP4 ADD DIV PUSH8 0xFFFFFFFFFFFFFFFF DUP2 GT ISZERO PUSH2 0x1B16 JUMPI PUSH2 0x1B16 PUSH2 0x308C JUMP JUMPDEST PUSH1 0x40 MLOAD SWAP1 DUP1 DUP3 MSTORE DUP1 PUSH1 0x1F ADD PUSH1 0x1F NOT AND PUSH1 0x20 ADD DUP3 ADD PUSH1 0x40 MSTORE DUP1 ISZERO PUSH2 0x1B40 JUMPI PUSH1 0x20 DUP3 ADD DUP2 DUP1 CALLDATASIZE DUP4 CALLDATACOPY ADD SWAP1 POP JUMPDEST POP SWAP1 POP PUSH1 0x0 DUP1 PUSH1 0x0 DUP1 JUMPDEST DUP7 DUP2 LT ISZERO PUSH2 0x1C54 JUMPI DUP9 DUP2 DUP2 MLOAD DUP2 LT PUSH2 0x1B64 JUMPI PUSH2 0x1B64 PUSH2 0x32F2 JUMP JUMPDEST ADD PUSH1 0x20 ADD MLOAD PUSH1 0x8 SWAP5 DUP6 ADD SWAP5 SWAP4 SWAP1 SWAP4 SHL PUSH1 0xF8 SWAP4 SWAP1 SWAP4 SHR SWAP3 SWAP1 SWAP3 OR SWAP2 JUMPDEST PUSH1 0x5 DUP5 LT PUSH2 0x1C4C JUMPI PUSH1 0x40 DUP1 MLOAD DUP1 DUP3 ADD SWAP1 SWAP2 MSTORE PUSH1 0x20 DUP1 DUP3 MSTORE PUSH32 0x6162636465666768696A6B6C6D6E6F707172737475767778797A323334353637 DUP2 DUP4 ADD MSTORE PUSH32 0xFFFFFFFFFFFFFFFFFFFFFFFFFFFFFFFFFFFFFFFFFFFFFFFFFFFFFFFFFFFFFFFB SWAP1 SWAP6 ADD SWAP5 PUSH1 0x1F DUP6 DUP8 SHR AND SWAP1 DUP2 LT PUSH2 0x1BF5 JUMPI PUSH2 0x1BF5 PUSH2 0x32F2 JUMP JUMPDEST PUSH1 0x20 ADD ADD MLOAD PUSH1 0xF8 SHR PUSH1 0xF8 SHL DUP6 DUP4 DUP2 MLOAD DUP2 LT PUSH2 0x1C12 JUMPI PUSH2 0x1C12 PUSH2 0x32F2 JUMP JUMPDEST PUSH1 0x20 ADD ADD SWAP1 PUSH31 0xFFFFFFFFFFFFFFFFFFFFFFFFFFFFFFFFFFFFFFFFFFFFFFFFFFFFFFFFFFFFFF NOT AND SWAP1 DUP2 PUSH1 0x0 BYTE SWAP1 MSTORE8 POP PUSH1 0x1 SWAP1 SWAP2 ADD SWAP1 PUSH2 0x1B7F JUMP JUMPDEST PUSH1 0x1 ADD PUSH2 0x1B4A JUMP JUMPDEST POP DUP3 ISZERO PUSH2 0x1CF8 JUMPI PUSH1 0x40 MLOAD DUP1 PUSH1 0x40 ADD PUSH1 0x40 MSTORE DUP1 PUSH1 0x20 DUP2 MSTORE PUSH1 0x20 ADD PUSH32 0x6162636465666768696A6B6C6D6E6F707172737475767778797A323334353637 DUP2 MSTORE POP DUP4 PUSH1 0x5 SUB DUP4 SWAP1 SHL PUSH1 0x1F AND DUP2 MLOAD DUP2 LT PUSH2 0x1CAB JUMPI PUSH2 0x1CAB PUSH2 0x32F2 JUMP JUMPDEST PUSH1 0x20 ADD ADD MLOAD PUSH1 0xF8 SHR PUSH1 0xF8 SHL DUP5 DUP3 DUP2 MLOAD DUP2 LT PUSH2 0x1CC8 JUMPI PUSH2 0x1CC8 PUSH2 0x32F2 JUMP JUMPDEST PUSH1 0x20 ADD ADD SWAP1 PUSH31 0xFFFFFFFFFFFFFFFFFFFFFFFFFFFFFFFFFFFFFFFFFFFFFFFFFFFFFFFFFFFFFF NOT AND SWAP1 DUP2 PUSH1 0x0 BYTE SWAP1 MSTORE8 POP JUMPDEST POP SWAP2 SWAP7 SWAP6 POP POP POP POP POP POP JUMP JUMPDEST PUSH1 0x60 DUP2 PUSH1 0x40 MLOAD PUSH1 0x20 ADD PUSH2 0x1D17 SWAP2 SWAP1 PUSH2 0x36E4 JUMP JUMPDEST PUSH1 0x40 MLOAD PUSH1 0x20 DUP2 DUP4 SUB SUB DUP2 MSTORE SWAP1 PUSH1 0x40 MSTORE SWAP1 POP SWAP2 SWAP1 POP JUMP JUMPDEST PUSH2 0x1D56 PUSH32 0xEECAC93CED8722D209199364CDA3BC33DA3BC3A23DAEF6BE49EBD780511D033 DUP3 SWAP1 SSTORE JUMP JUMPDEST PUSH1 0x40 MLOAD DUP2 DUP2 MSTORE PUSH32 0x20D3EF1B5738A9F6D7BEAE515432206E7A8E2740CA6DCF46A952190AD01BCB51 SWAP1 PUSH1 0x20 ADD PUSH2 0x13B5 JUMP JUMPDEST PUSH1 0x0 PUSH2 0x7B1 PUSH32 0x849E7BDC245DB17E50B9F43086F1914D70EB4DAB6DD89AF4D541D53353AD97DE DUP4 PUSH2 0x124B JUMP JUMPDEST PUSH1 0x0 PUSH32 0x6FFBD45100000000000000000000000000000000000000000000000000000000 PUSH32 0xFFFFFFFF00000000000000000000000000000000000000000000000000000000 DUP4 AND ADD PUSH2 0x1E05 JUMPI POP PUSH1 0x1 SWAP2 SWAP1 POP JUMP JUMPDEST PUSH2 0x7B1 DUP3 PUSH2 0x2388 JUMP JUMPDEST PUSH1 0x0 PUSH2 0x7B1 DUP3 PUSH2 0x24C9 JUMP JUMPDEST PUSH1 0x0 PUSH1 0x40 MLOAD DUP3 DUP5 DUP3 CALLDATACOPY PUSH1 0x0 DUP1 DUP5 DUP4 DUP10 DUP10 DELEGATECALL SWAP7 SWAP6 POP POP POP POP POP POP JUMP JUMPDEST PUSH1 0x0 PUSH1 0x40 MLOAD DUP3 DUP5 DUP3 CALLDATACOPY PUSH1 0x0 DUP1 DUP5 DUP4 DUP10 DUP12 DUP11 CALL SWAP8 SWAP7 POP POP POP POP POP POP POP JUMP JUMPDEST PUSH1 0x60 RETURNDATASIZE PUSH1 0x40 MLOAD SWAP2 POP PUSH1 0x20 DUP3 ADD DUP2 DUP2 ADD PUSH1 0x40 MSTORE DUP2 DUP4 MSTORE DUP2 PUSH1 0x0 DUP3 RETURNDATACOPY POP POP SWAP1 JUMP JUMPDEST DUP4 ISZERO PUSH2 0x1E7E JUMPI DUP1 MLOAD PUSH1 0x20 DUP3 ADD REVERT JUMPDEST DUP3 PUSH32 0xAB46C69F7F32E1BF09B0725853DA82A211E5402A0600296AB499A2FB5EA3B419 DUP4 DUP4 PUSH1 0x40 MLOAD PUSH2 0x1EB0 SWAP3 SWAP2 SWAP1 PUSH2 0x3729 JUMP JUMPDEST PUSH1 0x40 MLOAD DUP1 SWAP2 SUB SWAP1 LOG2 POP POP POP POP JUMP JUMPDEST PUSH1 0x0 DUP1 PUSH1 0x0 JUMPDEST DUP4 DUP2 LT ISZERO PUSH2 0x234B JUMPI PUSH1 0x1 DUP2 ADD SWAP1 DUP6 ADD CALLDATALOAD PUSH1 0xF8 SHR PUSH32 0xFFFFFFFFFFFFFFFFFFFFFFFFFFFFFFFFFFFFFFFFFFFFFFFFFFFFFFFFFFFFFFFF DUP2 ADD PUSH2 0x1F65 JUMPI PUSH1 0x15 DUP3 ADD SWAP2 DUP7 ADD CALLDATALOAD PUSH1 0xF8 DUP2 SWAP1 SHR SWAP1 PUSH1 0x58 SHR PUSH20 0xFFFFFFFFFFFFFFFFFFFFFFFFFFFFFFFFFFFFFFFF DUP2 AND SWAP1 PUSH21 0xFF0000000000000000000000000000000000000000 AND DUP2 OR DUP6 PUSH2 0x1F4B JUMPI DUP1 PUSH2 0x1F5A JUMP JUMPDEST PUSH1 0x0 DUP7 DUP2 MSTORE PUSH1 0x20 DUP3 SWAP1 MSTORE PUSH1 0x40 SWAP1 KECCAK256 JUMPDEST SWAP6 POP POP POP POP POP PUSH2 0x1EC4 JUMP JUMPDEST DUP1 PUSH2 0x1FFB JUMPI PUSH1 0x1 DUP3 ADD SWAP2 DUP7 DUP2 ADD CALLDATALOAD PUSH1 0xF8 SHR SWAP1 PUSH1 0x43 ADD PUSH1 0x0 PUSH2 0x1F91 DUP11 PUSH2 0x1F8C DUP5 DUP9 DUP13 DUP15 PUSH2 0x3651 JUMP JUMPDEST PUSH2 0x25F7 JUMP JUMPDEST PUSH1 0xFF DUP5 AND SWAP8 SWAP1 SWAP8 ADD SWAP7 SWAP2 SWAP5 POP DUP5 SWAP2 SWAP1 POP PUSH1 0xA0 DUP4 SWAP1 SHL PUSH21 0xFF0000000000000000000000000000000000000000 AND PUSH20 0xFFFFFFFFFFFFFFFFFFFFFFFFFFFFFFFFFFFFFFFF DUP3 AND OR DUP7 PUSH2 0x1FE0 JUMPI DUP1 PUSH2 0x1FEF JUMP JUMPDEST PUSH1 0x0 DUP8 DUP2 MSTORE PUSH1 0x20 DUP3 SWAP1 MSTORE PUSH1 0x40 SWAP1 KECCAK256 JUMPDEST SWAP7 POP POP POP POP POP POP PUSH2 0x1EC4 JUMP JUMPDEST PUSH1 0x2 DUP2 SUB PUSH2 0x2123 JUMPI PUSH1 0x0 DUP1 DUP8 DUP5 ADD CALLDATALOAD PUSH1 0xF8 DUP2 SWAP1 SHR SWAP1 PUSH1 0x58 SHR PUSH20 0xFFFFFFFFFFFFFFFFFFFFFFFFFFFFFFFFFFFFFFFF AND PUSH1 0x15 DUP7 ADD SWAP6 POP SWAP1 SWAP3 POP SWAP1 POP PUSH1 0x0 DUP9 DUP6 ADD CALLDATALOAD PUSH1 0xE8 SHR PUSH1 0x3 DUP7 ADD DUP2 PUSH3 0xFFFFFF AND SWAP2 POP DUP1 SWAP7 POP DUP2 SWAP3 POP POP POP PUSH1 0x0 DUP2 DUP7 ADD SWAP1 POP PUSH2 0x2074 DUP12 DUP5 DUP13 DUP13 DUP11 SWAP1 DUP7 SWAP3 PUSH2 0x206F SWAP4 SWAP3 SWAP2 SWAP1 PUSH2 0x3651 JUMP JUMPDEST PUSH2 0x28BA JUMP JUMPDEST PUSH2 0x20BC JUMPI DUP11 DUP4 PUSH2 0x2086 DUP4 DUP10 DUP14 DUP16 PUSH2 0x3651 JUMP JUMPDEST PUSH1 0x40 MLOAD PUSH32 0x9A94623200000000000000000000000000000000000000000000000000000000 DUP2 MSTORE PUSH1 0x4 ADD PUSH2 0x7FF SWAP5 SWAP4 SWAP3 SWAP2 SWAP1 PUSH2 0x3742 JUMP JUMPDEST PUSH1 0xFF DUP5 AND SWAP8 SWAP1 SWAP8 ADD SWAP7 SWAP5 POP DUP5 PUSH1 0xA0 DUP5 SWAP1 SHL PUSH21 0xFF0000000000000000000000000000000000000000 AND PUSH20 0xFFFFFFFFFFFFFFFFFFFFFFFFFFFFFFFFFFFFFFFF DUP5 AND OR DUP8 PUSH2 0x2107 JUMPI DUP1 PUSH2 0x2116 JUMP JUMPDEST PUSH1 0x0 DUP9 DUP2 MSTORE PUSH1 0x20 DUP3 SWAP1 MSTORE PUSH1 0x40 SWAP1 KECCAK256 JUMPDEST SWAP8 POP POP POP POP POP POP POP PUSH2 0x1EC4 JUMP JUMPDEST PUSH1 0x3 DUP2 SUB PUSH2 0x2156 JUMPI PUSH1 0x20 DUP3 ADD SWAP2 DUP7 ADD CALLDATALOAD DUP4 PUSH2 0x213E JUMPI DUP1 PUSH2 0x214D JUMP JUMPDEST PUSH1 0x0 DUP5 DUP2 MSTORE PUSH1 0x20 DUP3 SWAP1 MSTORE PUSH1 0x40 SWAP1 KECCAK256 JUMPDEST SWAP4 POP POP POP PUSH2 0x1EC4 JUMP JUMPDEST PUSH1 0x4 DUP2 SUB PUSH2 0x21A2 JUMPI PUSH1 0x3 DUP1 DUP4 ADD SWAP3 DUP8 DUP2 ADD CALLDATALOAD PUSH1 0xE8 SHR SWAP2 SWAP1 DUP3 ADD ADD PUSH1 0x0 DUP1 PUSH2 0x2183 DUP12 PUSH2 0x189A DUP6 DUP10 DUP14 DUP16 PUSH2 0x3651 JUMP JUMPDEST PUSH1 0x0 SWAP9 DUP10 MSTORE PUSH1 0x20 MSTORE PUSH1 0x40 SWAP1 SWAP8 KECCAK256 SWAP7 SWAP1 SWAP8 ADD SWAP7 POP SWAP1 SWAP4 POP PUSH2 0x1EC4 SWAP3 POP POP POP JUMP JUMPDEST PUSH1 0x6 DUP2 SUB PUSH2 0x22AA JUMPI PUSH1 0x0 DUP3 DUP8 ADD CALLDATALOAD PUSH1 0xF8 SHR PUSH1 0x1 DUP5 ADD SWAP4 POP PUSH1 0xFF AND SWAP1 POP PUSH1 0x0 DUP8 DUP5 ADD CALLDATALOAD PUSH1 0xF0 SHR PUSH1 0x2 DUP6 ADD SWAP5 POP PUSH2 0xFFFF AND SWAP1 POP PUSH1 0x0 DUP9 DUP6 ADD CALLDATALOAD PUSH1 0xE8 SHR PUSH1 0x3 DUP7 ADD DUP2 PUSH3 0xFFFFFF AND SWAP2 POP DUP1 SWAP7 POP DUP2 SWAP3 POP POP POP PUSH1 0x0 DUP2 DUP7 ADD SWAP1 POP PUSH1 0x0 DUP1 PUSH2 0x2210 DUP14 DUP14 DUP14 DUP12 SWAP1 DUP8 SWAP3 PUSH2 0x189A SWAP4 SWAP3 SWAP2 SWAP1 PUSH2 0x3651 JUMP JUMPDEST SWAP4 SWAP9 POP DUP9 SWAP4 SWAP1 SWAP3 POP SWAP1 POP DUP5 DUP3 LT PUSH2 0x2226 JUMPI SWAP9 DUP6 ADD SWAP9 JUMPDEST PUSH1 0x40 DUP1 MLOAD PUSH32 0x53657175656E6365206E657374656420636F6E6669673A0A0000000000000000 PUSH1 0x20 DUP1 DUP4 ADD SWAP2 SWAP1 SWAP2 MSTORE PUSH1 0x38 DUP3 ADD DUP5 SWAP1 MSTORE PUSH1 0x58 DUP3 ADD DUP9 SWAP1 MSTORE PUSH1 0x78 DUP1 DUP4 ADD DUP11 SWAP1 MSTORE DUP4 MLOAD DUP1 DUP5 SUB SWAP1 SWAP2 ADD DUP2 MSTORE PUSH1 0x98 SWAP1 SWAP3 ADD SWAP1 SWAP3 MSTORE DUP1 MLOAD SWAP2 ADD KECCAK256 DUP10 PUSH2 0x228C JUMPI DUP1 PUSH2 0x229B JUMP JUMPDEST PUSH1 0x0 DUP11 DUP2 MSTORE PUSH1 0x20 DUP3 SWAP1 MSTORE PUSH1 0x40 SWAP1 KECCAK256 JUMPDEST SWAP10 POP POP POP POP POP POP POP POP POP PUSH2 0x1EC4 JUMP JUMPDEST PUSH1 0x5 DUP2 SUB PUSH2 0x2316 JUMPI PUSH1 0x20 DUP3 ADD SWAP2 DUP7 ADD CALLDATALOAD DUP8 DUP2 SUB PUSH2 0x22E5 JUMPI PUSH32 0xFFFFFFFFFFFFFFFFFFFFFFFFFFFFFFFFFFFFFFFFFFFFFFFFFFFFFFFFFFFFFFFF SWAP5 POP JUMPDEST PUSH1 0x0 PUSH2 0x22F0 DUP3 PUSH2 0x2AA1 JUMP JUMPDEST SWAP1 POP DUP5 PUSH2 0x22FD JUMPI DUP1 PUSH2 0x230C JUMP JUMPDEST PUSH1 0x0 DUP6 DUP2 MSTORE PUSH1 0x20 DUP3 SWAP1 MSTORE PUSH1 0x40 SWAP1 KECCAK256 JUMPDEST SWAP5 POP POP POP POP PUSH2 0x1EC4 JUMP JUMPDEST PUSH1 0x40 MLOAD PUSH32 0xB2505F7C00000000000000000000000000000000000000000000000000000000 DUP2 MSTORE PUSH1 0x4 DUP2 ADD DUP3 SWAP1 MSTORE PUSH1 0x24 ADD PUSH2 0x7FF JUMP JUMPDEST POP SWAP4 POP SWAP4 SWAP2 POP POP JUMP JUMPDEST PUSH32 0x8713A7C4465F6FBEE2B6E9D6646D1D9F83FEC929EDFC4BAF661F3C865BDD04D1 PUSH1 0x0 SWAP1 DUP2 MSTORE PUSH1 0x20 DUP3 SWAP1 MSTORE PUSH1 0x40 DUP2 KECCAK256 PUSH2 0x7B1 JUMP JUMPDEST PUSH1 0x0 PUSH32 0xFFFFFFFF00000000000000000000000000000000000000000000000000000000 DUP3 AND PUSH32 0xEC6ABA5000000000000000000000000000000000000000000000000000000000 EQ DUP1 PUSH2 0x241B JUMPI POP PUSH32 0xFFFFFFFF00000000000000000000000000000000000000000000000000000000 DUP3 AND PUSH32 0x4E2312E000000000000000000000000000000000000000000000000000000000 EQ JUMPDEST DUP1 PUSH2 0x2467 JUMPI POP PUSH32 0xFFFFFFFF00000000000000000000000000000000000000000000000000000000 DUP3 AND PUSH32 0x150B7A0200000000000000000000000000000000000000000000000000000000 EQ JUMPDEST DUP1 PUSH2 0x24B3 JUMPI POP PUSH32 0xFFFFFFFF00000000000000000000000000000000000000000000000000000000 DUP3 AND PUSH32 0xC0EE0B8A00000000000000000000000000000000000000000000000000000000 EQ JUMPDEST ISZERO PUSH2 0x24C0 JUMPI POP PUSH1 0x1 SWAP2 SWAP1 POP JUMP JUMPDEST PUSH2 0x7B1 DUP3 PUSH2 0x2ADC JUMP JUMPDEST PUSH1 0x0 PUSH2 0x25CB DUP3 PUSH1 0x40 MLOAD PUSH32 0xFF00000000000000000000000000000000000000000000000000000000000000 PUSH1 0x20 DUP3 ADD MSTORE PUSH32 0xFFFFFFFFFFFFFFFFFFFFFFFFFFFFFFFFFFFFFFFF000000000000000000000000 PUSH32 0x0 PUSH1 0x60 SHL AND PUSH1 0x21 DUP3 ADD MSTORE PUSH1 0x35 DUP2 ADD DUP3 SWAP1 MSTORE PUSH32 0x0 PUSH1 0x55 DUP3 ADD MSTORE PUSH1 0x0 SWAP1 ADDRESS SWAP1 PUSH1 0x75 ADD PUSH1 0x40 DUP1 MLOAD PUSH32 0xFFFFFFFFFFFFFFFFFFFFFFFFFFFFFFFFFFFFFFFFFFFFFFFFFFFFFFFFFFFFFFE0 DUP2 DUP5 SUB ADD DUP2 MSTORE SWAP2 SWAP1 MSTORE DUP1 MLOAD PUSH1 0x20 SWAP1 SWAP2 ADD KECCAK256 PUSH20 0xFFFFFFFFFFFFFFFFFFFFFFFFFFFFFFFFFFFFFFFF AND EQ SWAP3 SWAP2 POP POP JUMP JUMPDEST ISZERO PUSH2 0x25D8 JUMPI POP PUSH1 0x1 SWAP2 SWAP1 POP JUMP JUMPDEST PUSH1 0x0 PUSH2 0x25E3 DUP4 PUSH2 0x1D86 JUMP JUMPDEST SWAP1 POP DUP1 ISZERO DUP1 ISZERO SWAP1 PUSH2 0x965 JUMPI POP TIMESTAMP LT SWAP3 SWAP2 POP POP JUMP JUMPDEST PUSH1 0x0 PUSH1 0x42 DUP3 EQ PUSH2 0x2637 JUMPI DUP3 DUP3 PUSH1 0x40 MLOAD PUSH32 0x2EE17A3D00000000000000000000000000000000000000000000000000000000 DUP2 MSTORE PUSH1 0x4 ADD PUSH2 0x7FF SWAP3 SWAP2 SWAP1 PUSH2 0x3782 JUMP JUMPDEST PUSH1 0x0 PUSH2 0x2650 PUSH2 0x2647 PUSH1 0x1 DUP6 PUSH2 0x3796 JUMP JUMPDEST DUP6 ADD CALLDATALOAD PUSH1 0xF8 SHR SWAP1 JUMP JUMPDEST PUSH1 0xFF AND SWAP1 POP PUSH1 0x40 DUP5 ADD CALLDATALOAD PUSH1 0xF8 SHR DUP5 CALLDATALOAD PUSH1 0x20 DUP7 ADD CALLDATALOAD PUSH32 0x7FFFFFFFFFFFFFFFFFFFFFFFFFFFFFFF5D576E7357A4501DDFE92F46681B20A0 DUP2 GT ISZERO PUSH2 0x26C4 JUMPI DUP7 DUP7 DUP3 PUSH1 0x40 MLOAD PUSH32 0xAD4AAC7600000000000000000000000000000000000000000000000000000000 DUP2 MSTORE PUSH1 0x4 ADD PUSH2 0x7FF SWAP4 SWAP3 SWAP2 SWAP1 PUSH2 0x37A9 JUMP JUMPDEST DUP3 PUSH1 0xFF AND PUSH1 0x1B EQ ISZERO DUP1 ISZERO PUSH2 0x26DC JUMPI POP DUP3 PUSH1 0xFF AND PUSH1 0x1C EQ ISZERO JUMPDEST ISZERO PUSH2 0x2719 JUMPI DUP7 DUP7 DUP5 PUSH1 0x40 MLOAD PUSH32 0xE578897E00000000000000000000000000000000000000000000000000000000 DUP2 MSTORE PUSH1 0x4 ADD PUSH2 0x7FF SWAP4 SWAP3 SWAP2 SWAP1 PUSH2 0x37CD JUMP JUMPDEST PUSH1 0x1 DUP5 SUB PUSH2 0x2786 JUMPI PUSH1 0x40 DUP1 MLOAD PUSH1 0x0 DUP2 MSTORE PUSH1 0x20 DUP2 ADD DUP1 DUP4 MSTORE DUP11 SWAP1 MSTORE PUSH1 0xFF DUP6 AND SWAP2 DUP2 ADD SWAP2 SWAP1 SWAP2 MSTORE PUSH1 0x60 DUP2 ADD DUP4 SWAP1 MSTORE PUSH1 0x80 DUP2 ADD DUP3 SWAP1 MSTORE PUSH1 0x1 SWAP1 PUSH1 0xA0 ADD JUMPDEST PUSH1 0x20 PUSH1 0x40 MLOAD PUSH1 0x20 DUP2 SUB SWAP1 DUP1 DUP5 SUB SWAP1 DUP6 GAS STATICCALL ISZERO DUP1 ISZERO PUSH2 0x2775 JUMPI RETURNDATASIZE PUSH1 0x0 DUP1 RETURNDATACOPY RETURNDATASIZE PUSH1 0x0 REVERT JUMPDEST POP POP POP PUSH1 0x20 PUSH1 0x40 MLOAD SUB MLOAD SWAP5 POP PUSH2 0x285E JUMP JUMPDEST PUSH1 0x2 DUP5 SUB PUSH2 0x2823 JUMPI PUSH1 0x40 MLOAD PUSH32 0x19457468657265756D205369676E6564204D6573736167653A0A333200000000 PUSH1 0x20 DUP3 ADD MSTORE PUSH1 0x3C DUP2 ADD DUP10 SWAP1 MSTORE PUSH1 0x1 SWAP1 PUSH1 0x5C ADD PUSH1 0x40 DUP1 MLOAD PUSH32 0xFFFFFFFFFFFFFFFFFFFFFFFFFFFFFFFFFFFFFFFFFFFFFFFFFFFFFFFFFFFFFFE0 DUP2 DUP5 SUB ADD DUP2 MSTORE DUP3 DUP3 MSTORE DUP1 MLOAD PUSH1 0x20 SWAP2 DUP3 ADD KECCAK256 PUSH1 0x0 DUP5 MSTORE SWAP1 DUP4 ADD DUP1 DUP4 MSTORE MSTORE PUSH1 0xFF DUP7 AND SWAP1 DUP3 ADD MSTORE PUSH1 0x60 DUP2 ADD DUP5 SWAP1 MSTORE PUSH1 0x80 DUP2 ADD DUP4 SWAP1 MSTORE PUSH1 0xA0 ADD PUSH2 0x2753 JUMP JUMPDEST DUP7 DUP7 DUP6 PUSH1 0x1 PUSH1 0x40 MLOAD PUSH32 0x9DFBA85200000000000000000000000000000000000000000000000000000000 DUP2 MSTORE PUSH1 0x4 ADD PUSH2 0x7FF SWAP5 SWAP4 SWAP3 SWAP2 SWAP1 PUSH2 0x37F4 JUMP JUMPDEST PUSH20 0xFFFFFFFFFFFFFFFFFFFFFFFFFFFFFFFFFFFFFFFF DUP6 AND PUSH2 0x28AF JUMPI DUP7 DUP7 PUSH1 0x40 MLOAD PUSH32 0x6C1719D200000000000000000000000000000000000000000000000000000000 DUP2 MSTORE PUSH1 0x4 ADD PUSH2 0x7FF SWAP3 SWAP2 SWAP1 PUSH2 0x3782 JUMP JUMPDEST POP POP POP POP SWAP4 SWAP3 POP POP POP JUMP JUMPDEST PUSH1 0x0 DUP2 DUP2 SUB PUSH2 0x28F5 JUMPI PUSH1 0x40 MLOAD PUSH32 0xAC241E1100000000000000000000000000000000000000000000000000000000 DUP2 MSTORE PUSH1 0x4 ADD PUSH1 0x40 MLOAD DUP1 SWAP2 SUB SWAP1 REVERT JUMPDEST PUSH1 0x0 DUP4 DUP4 PUSH2 0x2904 PUSH1 0x1 DUP3 PUSH2 0x3796 JUMP JUMPDEST DUP2 DUP2 LT PUSH2 0x2913 JUMPI PUSH2 0x2913 PUSH2 0x32F2 JUMP JUMPDEST SWAP2 SWAP1 SWAP2 ADD CALLDATALOAD PUSH1 0xF8 SHR SWAP2 POP POP PUSH1 0x1 DUP2 EQ DUP1 PUSH2 0x292D JUMPI POP PUSH1 0x2 DUP2 EQ JUMPDEST ISZERO PUSH2 0x2972 JUMPI DUP5 PUSH20 0xFFFFFFFFFFFFFFFFFFFFFFFFFFFFFFFFFFFFFFFF AND PUSH2 0x2954 DUP8 DUP7 DUP7 PUSH2 0x25F7 JUMP JUMPDEST PUSH20 0xFFFFFFFFFFFFFFFFFFFFFFFFFFFFFFFFFFFFFFFF AND EQ SWAP2 POP PUSH2 0x2A98 JUMP JUMPDEST PUSH1 0x3 DUP2 SUB PUSH2 0x2A5D JUMPI PUSH20 0xFFFFFFFFFFFFFFFFFFFFFFFFFFFFFFFFFFFFFFFF DUP6 AND PUSH4 0x1626BA7E DUP8 DUP7 PUSH1 0x0 DUP8 PUSH2 0x29A6 PUSH1 0x1 DUP3 PUSH2 0x3796 JUMP JUMPDEST SWAP3 PUSH2 0x29B3 SWAP4 SWAP3 SWAP2 SWAP1 PUSH2 0x3651 JUMP JUMPDEST PUSH1 0x40 MLOAD DUP5 PUSH4 0xFFFFFFFF AND PUSH1 0xE0 SHL DUP2 MSTORE PUSH1 0x4 ADD PUSH2 0x29D1 SWAP4 SWAP3 SWAP2 SWAP1 PUSH2 0x3534 JUMP JUMPDEST PUSH1 0x20 PUSH1 0x40 MLOAD DUP1 DUP4 SUB DUP2 DUP7 GAS STATICCALL ISZERO DUP1 ISZERO PUSH2 0x29EE JUMPI RETURNDATASIZE PUSH1 0x0 DUP1 RETURNDATACOPY RETURNDATASIZE PUSH1 0x0 REVERT JUMPDEST POP POP POP POP PUSH1 0x40 MLOAD RETURNDATASIZE PUSH1 0x1F NOT PUSH1 0x1F DUP3 ADD AND DUP3 ADD DUP1 PUSH1 0x40 MSTORE POP DUP2 ADD SWAP1 PUSH2 0x2A12 SWAP2 SWAP1 PUSH2 0x3820 JUMP JUMPDEST PUSH32 0xFFFFFFFF00000000000000000000000000000000000000000000000000000000 AND PUSH32 0x1626BA7E00000000000000000000000000000000000000000000000000000000 EQ SWAP2 POP PUSH2 0x2A98 JUMP JUMPDEST DUP4 DUP4 DUP3 PUSH1 0x0 PUSH1 0x40 MLOAD PUSH32 0x9DFBA85200000000000000000000000000000000000000000000000000000000 DUP2 MSTORE PUSH1 0x4 ADD PUSH2 0x7FF SWAP5 SWAP4 SWAP3 SWAP2 SWAP1 PUSH2 0x37F4 JUMP JUMPDEST POP SWAP5 SWAP4 POP POP POP POP JUMP JUMPDEST PUSH1 0x40 MLOAD PUSH32 0x53657175656E636520737461746963206469676573743A0A0000000000000000 PUSH1 0x20 DUP3 ADD MSTORE PUSH1 0x38 DUP2 ADD DUP3 SWAP1 MSTORE PUSH1 0x0 SWAP1 PUSH1 0x58 ADD PUSH2 0x15E2 JUMP JUMPDEST PUSH1 0x0 PUSH32 0xE4A77BBC00000000000000000000000000000000000000000000000000000000 PUSH32 0xFFFFFFFF00000000000000000000000000000000000000000000000000000000 DUP4 AND ADD PUSH2 0x2B2F JUMPI POP PUSH1 0x1 SWAP2 SWAP1 POP JUMP JUMPDEST PUSH2 0x7B1 DUP3 PUSH1 0x0 PUSH32 0x1CBEC62500000000000000000000000000000000000000000000000000000000 PUSH32 0xFFFFFFFF00000000000000000000000000000000000000000000000000000000 DUP4 AND ADD PUSH2 0x2B86 JUMPI POP PUSH1 0x1 SWAP2 SWAP1 POP JUMP JUMPDEST PUSH2 0x7B1 DUP3 PUSH1 0x0 PUSH2 0x7B1 DUP3 PUSH1 0x0 PUSH32 0xFDA4DD4400000000000000000000000000000000000000000000000000000000 PUSH32 0xFFFFFFFF00000000000000000000000000000000000000000000000000000000 DUP4 AND ADD PUSH2 0x2BE3 JUMPI POP PUSH1 0x1 SWAP2 SWAP1 POP JUMP JUMPDEST PUSH2 0x7B1 DUP3 PUSH1 0x0 PUSH32 0xFFFFFFFF00000000000000000000000000000000000000000000000000000000 DUP3 AND PUSH32 0xAC6A444E00000000000000000000000000000000000000000000000000000000 EQ DUP1 PUSH2 0x2C7A JUMPI POP PUSH32 0xFFFFFFFF00000000000000000000000000000000000000000000000000000000 DUP3 AND PUSH32 0x36E7817500000000000000000000000000000000000000000000000000000000 EQ JUMPDEST ISZERO PUSH2 0x2C87 JUMPI POP PUSH1 0x1 SWAP2 SWAP1 POP JUMP JUMPDEST PUSH32 0x1FFC9A700000000000000000000000000000000000000000000000000000000 PUSH32 0xFFFFFFFF00000000000000000000000000000000000000000000000000000000 DUP4 AND EQ PUSH2 0x7B1 JUMP JUMPDEST DUP2 DUP4 DUP3 CALLDATACOPY PUSH1 0x0 SWAP2 ADD SWAP1 DUP2 MSTORE SWAP2 SWAP1 POP JUMP JUMPDEST PUSH32 0xFFFFFFFF00000000000000000000000000000000000000000000000000000000 DUP2 AND DUP2 EQ PUSH2 0x811 JUMPI PUSH1 0x0 DUP1 REVERT JUMPDEST PUSH1 0x0 PUSH1 0x20 DUP3 DUP5 SUB SLT ISZERO PUSH2 0x2D21 JUMPI PUSH1 0x0 DUP1 REVERT JUMPDEST DUP2 CALLDATALOAD PUSH2 0x965 DUP2 PUSH2 0x2CE1 JUMP JUMPDEST DUP1 CALLDATALOAD PUSH20 0xFFFFFFFFFFFFFFFFFFFFFFFFFFFFFFFFFFFFFFFF DUP2 AND DUP2 EQ PUSH2 0x2D50 JUMPI PUSH1 0x0 DUP1 REVERT JUMPDEST SWAP2 SWAP1 POP JUMP JUMPDEST PUSH1 0x0 PUSH1 0x20 DUP3 DUP5 SUB SLT ISZERO PUSH2 0x2D67 JUMPI PUSH1 0x0 DUP1 REVERT JUMPDEST PUSH2 0x965 DUP3 PUSH2 0x2D2C JUMP JUMPDEST PUSH1 0x0 DUP1 DUP4 PUSH1 0x1F DUP5 ADD SLT PUSH2 0x2D82 JUMPI PUSH1 0x0 DUP1 REVERT JUMPDEST POP DUP2 CALLDATALOAD PUSH8 0xFFFFFFFFFFFFFFFF DUP2 GT ISZERO PUSH2 0x2D9A JUMPI PUSH1 0x0 DUP1 REVERT JUMPDEST PUSH1 0x20 DUP4 ADD SWAP2 POP DUP4 PUSH1 0x20 DUP3 PUSH1 0x5 SHL DUP6 ADD ADD GT ISZERO PUSH2 0x2DB5 JUMPI PUSH1 0x0 DUP1 REVERT JUMPDEST SWAP3 POP SWAP3 SWAP1 POP JUMP JUMPDEST PUSH1 0x0 DUP1 PUSH1 0x20 DUP4 DUP6 SUB SLT ISZERO PUSH2 0x2DCF JUMPI PUSH1 0x0 DUP1 REVERT JUMPDEST DUP3 CALLDATALOAD PUSH8 0xFFFFFFFFFFFFFFFF DUP2 GT ISZERO PUSH2 0x2DE6 JUMPI PUSH1 0x0 DUP1 REVERT JUMPDEST PUSH2 0x2DF2 DUP6 DUP3 DUP7 ADD PUSH2 0x2D70 JUMP JUMPDEST SWAP1 SWAP7 SWAP1 SWAP6 POP SWAP4 POP POP POP POP JUMP JUMPDEST PUSH1 0x0 DUP1 DUP4 PUSH1 0x1F DUP5 ADD SLT PUSH2 0x2E10 JUMPI PUSH1 0x0 DUP1 REVERT JUMPDEST POP DUP2 CALLDATALOAD PUSH8 0xFFFFFFFFFFFFFFFF DUP2 GT ISZERO PUSH2 0x2E28 JUMPI PUSH1 0x0 DUP1 REVERT JUMPDEST PUSH1 0x20 DUP4 ADD SWAP2 POP DUP4 PUSH1 0x20 DUP3 DUP6 ADD ADD GT ISZERO PUSH2 0x2DB5 JUMPI PUSH1 0x0 DUP1 REVERT JUMPDEST PUSH1 0x0 DUP1 PUSH1 0x0 DUP1 PUSH1 0x0 PUSH1 0x80 DUP7 DUP9 SUB SLT ISZERO PUSH2 0x2E58 JUMPI PUSH1 0x0 DUP1 REVERT JUMPDEST PUSH2 0x2E61 DUP7 PUSH2 0x2D2C JUMP JUMPDEST SWAP5 POP PUSH2 0x2E6F PUSH1 0x20 DUP8 ADD PUSH2 0x2D2C JUMP JUMPDEST SWAP4 POP PUSH1 0x40 DUP7 ADD CALLDATALOAD SWAP3 POP PUSH1 0x60 DUP7 ADD CALLDATALOAD PUSH8 0xFFFFFFFFFFFFFFFF DUP2 GT ISZERO PUSH2 0x2E92 JUMPI PUSH1 0x0 DUP1 REVERT JUMPDEST PUSH2 0x2E9E DUP9 DUP3 DUP10 ADD PUSH2 0x2DFE JUMP JUMPDEST SWAP7 SWAP10 SWAP6 SWAP9 POP SWAP4 SWAP7 POP SWAP3 SWAP5 SWAP4 SWAP3 POP POP POP JUMP JUMPDEST PUSH1 0x0 DUP1 PUSH1 0x0 PUSH1 0x40 DUP5 DUP7 SUB SLT ISZERO PUSH2 0x2EC4 JUMPI PUSH1 0x0 DUP1 REVERT JUMPDEST DUP4 CALLDATALOAD SWAP3 POP PUSH1 0x20 DUP5 ADD CALLDATALOAD PUSH8 0xFFFFFFFFFFFFFFFF DUP2 GT ISZERO PUSH2 0x2EE2 JUMPI PUSH1 0x0 DUP1 REVERT JUMPDEST PUSH2 0x2EEE DUP7 DUP3 DUP8 ADD PUSH2 0x2DFE JUMP JUMPDEST SWAP5 SWAP8 SWAP1 SWAP7 POP SWAP4 SWAP5 POP POP POP POP JUMP JUMPDEST PUSH1 0x0 DUP1 PUSH1 0x0 DUP1 PUSH1 0x40 DUP6 DUP8 SUB SLT ISZERO PUSH2 0x2F11 JUMPI PUSH1 0x0 DUP1 REVERT JUMPDEST DUP5 CALLDATALOAD PUSH8 0xFFFFFFFFFFFFFFFF DUP1 DUP3 GT ISZERO PUSH2 0x2F29 JUMPI PUSH1 0x0 DUP1 REVERT JUMPDEST PUSH2 0x2F35 DUP9 DUP4 DUP10 ADD PUSH2 0x2DFE JUMP JUMPDEST SWAP1 SWAP7 POP SWAP5 POP PUSH1 0x20 DUP8 ADD CALLDATALOAD SWAP2 POP DUP1 DUP3 GT ISZERO PUSH2 0x2F4E JUMPI PUSH1 0x0 DUP1 REVERT JUMPDEST POP PUSH2 0x2F5B DUP8 DUP3 DUP9 ADD PUSH2 0x2DFE JUMP JUMPDEST SWAP6 SWAP9 SWAP5 SWAP8 POP SWAP6 POP POP POP POP JUMP JUMPDEST PUSH1 0x0 PUSH1 0x20 DUP3 DUP5 SUB SLT ISZERO PUSH2 0x2F79 JUMPI PUSH1 0x0 DUP1 REVERT JUMPDEST POP CALLDATALOAD SWAP2 SWAP1 POP JUMP JUMPDEST PUSH1 0x0 DUP1 PUSH1 0x40 DUP4 DUP6 SUB SLT ISZERO PUSH2 0x2F93 JUMPI PUSH1 0x0 DUP1 REVERT JUMPDEST POP POP DUP1 CALLDATALOAD SWAP3 PUSH1 0x20 SWAP1 SWAP2 ADD CALLDATALOAD SWAP2 POP JUMP JUMPDEST PUSH1 0x0 DUP1 PUSH1 0x0 DUP1 PUSH1 0x0 PUSH1 0x60 DUP7 DUP9 SUB SLT ISZERO PUSH2 0x2FBA JUMPI PUSH1 0x0 DUP1 REVERT JUMPDEST DUP6 CALLDATALOAD PUSH8 0xFFFFFFFFFFFFFFFF DUP1 DUP3 GT ISZERO PUSH2 0x2FD2 JUMPI PUSH1 0x0 DUP1 REVERT JUMPDEST PUSH2 0x2FDE DUP10 DUP4 DUP11 ADD PUSH2 0x2D70 JUMP JUMPDEST SWAP1 SWAP8 POP SWAP6 POP PUSH1 0x20 DUP9 ADD CALLDATALOAD SWAP5 POP PUSH1 0x40 DUP9 ADD CALLDATALOAD SWAP2 POP DUP1 DUP3 GT ISZERO PUSH2 0x2FFE JUMPI PUSH1 0x0 DUP1 REVERT JUMPDEST POP PUSH2 0x2E9E DUP9 DUP3 DUP10 ADD PUSH2 0x2DFE JUMP JUMPDEST PUSH1 0x0 JUMPDEST DUP4 DUP2 LT ISZERO PUSH2 0x3026 JUMPI DUP2 DUP2 ADD MLOAD DUP4 DUP3 ADD MSTORE PUSH1 0x20 ADD PUSH2 0x300E JUMP JUMPDEST POP POP PUSH1 0x0 SWAP2 ADD MSTORE JUMP JUMPDEST PUSH1 0x0 DUP2 MLOAD DUP1 DUP5 MSTORE PUSH2 0x3047 DUP2 PUSH1 0x20 DUP7 ADD PUSH1 0x20 DUP7 ADD PUSH2 0x300B JUMP JUMPDEST PUSH1 0x1F ADD PUSH32 0xFFFFFFFFFFFFFFFFFFFFFFFFFFFFFFFFFFFFFFFFFFFFFFFFFFFFFFFFFFFFFFE0 AND SWAP3 SWAP1 SWAP3 ADD PUSH1 0x20 ADD SWAP3 SWAP2 POP POP JUMP JUMPDEST PUSH1 0x20 DUP2 MSTORE PUSH1 0x0 PUSH2 0x965 PUSH1 0x20 DUP4 ADD DUP5 PUSH2 0x302F JUMP JUMPDEST PUSH32 0x4E487B7100000000000000000000000000000000000000000000000000000000 PUSH1 0x0 MSTORE PUSH1 0x41 PUSH1 0x4 MSTORE PUSH1 0x24 PUSH1 0x0 REVERT JUMPDEST PUSH1 0x0 PUSH1 0x20 DUP3 DUP5 SUB SLT ISZERO PUSH2 0x30CD JUMPI PUSH1 0x0 DUP1 REVERT JUMPDEST DUP2 CALLDATALOAD PUSH8 0xFFFFFFFFFFFFFFFF DUP1 DUP3 GT ISZERO PUSH2 0x30E5 JUMPI PUSH1 0x0 DUP1 REVERT JUMPDEST DUP2 DUP5 ADD SWAP2 POP DUP5 PUSH1 0x1F DUP4 ADD SLT PUSH2 0x30F9 JUMPI PUSH1 0x0 DUP1 REVERT JUMPDEST DUP2 CALLDATALOAD DUP2 DUP2 GT ISZERO PUSH2 0x310B JUMPI PUSH2 0x310B PUSH2 0x308C JUMP JUMPDEST PUSH1 0x40 MLOAD PUSH1 0x1F DUP3 ADD PUSH32 0xFFFFFFFFFFFFFFFFFFFFFFFFFFFFFFFFFFFFFFFFFFFFFFFFFFFFFFFFFFFFFFE0 SWAP1 DUP2 AND PUSH1 0x3F ADD AND DUP2 ADD SWAP1 DUP4 DUP3 GT DUP2 DUP4 LT OR ISZERO PUSH2 0x3151 JUMPI PUSH2 0x3151 PUSH2 0x308C JUMP JUMPDEST DUP2 PUSH1 0x40 MSTORE DUP3 DUP2 MSTORE DUP8 PUSH1 0x20 DUP5 DUP8 ADD ADD GT ISZERO PUSH2 0x316A JUMPI PUSH1 0x0 DUP1 REVERT JUMPDEST DUP3 PUSH1 0x20 DUP7 ADD PUSH1 0x20 DUP4 ADD CALLDATACOPY PUSH1 0x0 SWAP3 DUP2 ADD PUSH1 0x20 ADD SWAP3 SWAP1 SWAP3 MSTORE POP SWAP6 SWAP5 POP POP POP POP POP JUMP JUMPDEST PUSH1 0x0 DUP1 PUSH1 0x40 DUP4 DUP6 SUB SLT ISZERO PUSH2 0x319D JUMPI PUSH1 0x0 DUP1 REVERT JUMPDEST DUP3 CALLDATALOAD PUSH2 0x31A8 DUP2 PUSH2 0x2CE1 JUMP JUMPDEST SWAP2 POP PUSH2 0x31B6 PUSH1 0x20 DUP5 ADD PUSH2 0x2D2C JUMP JUMPDEST SWAP1 POP SWAP3 POP SWAP3 SWAP1 POP JUMP JUMPDEST PUSH1 0x0 DUP1 PUSH1 0x0 DUP1 PUSH1 0x0 DUP1 PUSH1 0x0 DUP1 PUSH1 0xA0 DUP10 DUP12 SUB SLT ISZERO PUSH2 0x31DB JUMPI PUSH1 0x0 DUP1 REVERT JUMPDEST PUSH2 0x31E4 DUP10 PUSH2 0x2D2C JUMP JUMPDEST SWAP8 POP PUSH2 0x31F2 PUSH1 0x20 DUP11 ADD PUSH2 0x2D2C JUMP JUMPDEST SWAP7 POP PUSH1 0x40 DUP10 ADD CALLDATALOAD PUSH8 0xFFFFFFFFFFFFFFFF DUP1 DUP3 GT ISZERO PUSH2 0x320F JUMPI PUSH1 0x0 DUP1 REVERT JUMPDEST PUSH2 0x321B DUP13 DUP4 DUP14 ADD PUSH2 0x2D70 JUMP JUMPDEST SWAP1 SWAP9 POP SWAP7 POP PUSH1 0x60 DUP12 ADD CALLDATALOAD SWAP2 POP DUP1 DUP3 GT ISZERO PUSH2 0x3234 JUMPI PUSH1 0x0 DUP1 REVERT JUMPDEST PUSH2 0x3240 DUP13 DUP4 DUP14 ADD PUSH2 0x2D70 JUMP JUMPDEST SWAP1 SWAP7 POP SWAP5 POP PUSH1 0x80 DUP12 ADD CALLDATALOAD SWAP2 POP DUP1 DUP3 GT ISZERO PUSH2 0x3259 JUMPI PUSH1 0x0 DUP1 REVERT JUMPDEST POP PUSH2 0x3266 DUP12 DUP3 DUP13 ADD PUSH2 0x2DFE JUMP JUMPDEST SWAP10 SWAP13 SWAP9 SWAP12 POP SWAP7 SWAP10 POP SWAP5 SWAP8 SWAP4 SWAP7 SWAP3 SWAP6 SWAP5 POP POP POP JUMP JUMPDEST PUSH1 0x0 DUP1 PUSH1 0x0 DUP1 PUSH1 0x0 DUP1 PUSH1 0xA0 DUP8 DUP10 SUB SLT ISZERO PUSH2 0x3293 JUMPI PUSH1 0x0 DUP1 REVERT JUMPDEST PUSH2 0x329C DUP8 PUSH2 0x2D2C JUMP JUMPDEST SWAP6 POP PUSH2 0x32AA PUSH1 0x20 DUP9 ADD PUSH2 0x2D2C JUMP JUMPDEST SWAP5 POP PUSH1 0x40 DUP8 ADD CALLDATALOAD SWAP4 POP PUSH1 0x60 DUP8 ADD CALLDATALOAD SWAP3 POP PUSH1 0x80 DUP8 ADD CALLDATALOAD PUSH8 0xFFFFFFFFFFFFFFFF DUP2 GT ISZERO PUSH2 0x32D4 JUMPI PUSH1 0x0 DUP1 REVERT JUMPDEST PUSH2 0x32E0 DUP10 DUP3 DUP11 ADD PUSH2 0x2DFE JUMP JUMPDEST SWAP8 SWAP11 SWAP7 SWAP10 POP SWAP5 SWAP8 POP SWAP3 SWAP6 SWAP4 SWAP5 SWAP3 POP POP POP JUMP JUMPDEST PUSH32 0x4E487B7100000000000000000000000000000000000000000000000000000000 PUSH1 0x0 MSTORE PUSH1 0x32 PUSH1 0x4 MSTORE PUSH1 0x24 PUSH1 0x0 REVERT JUMPDEST DUP1 CALLDATALOAD DUP1 ISZERO ISZERO DUP2 EQ PUSH2 0x2D50 JUMPI PUSH1 0x0 DUP1 REVERT JUMPDEST DUP2 DUP4 MSTORE DUP2 DUP2 PUSH1 0x20 DUP6 ADD CALLDATACOPY POP PUSH1 0x0 PUSH1 0x20 DUP3 DUP5 ADD ADD MSTORE PUSH1 0x0 PUSH1 0x20 PUSH32 0xFFFFFFFFFFFFFFFFFFFFFFFFFFFFFFFFFFFFFFFFFFFFFFFFFFFFFFFFFFFFFFE0 PUSH1 0x1F DUP5 ADD AND DUP5 ADD ADD SWAP1 POP SWAP3 SWAP2 POP POP JUMP JUMPDEST DUP2 DUP4 MSTORE PUSH1 0x0 PUSH1 0x20 DUP1 DUP6 ADD DUP1 DUP2 SWAP7 POP DUP6 PUSH1 0x5 SHL DUP2 ADD SWAP2 POP DUP5 PUSH1 0x0 JUMPDEST DUP8 DUP2 LT ISZERO PUSH2 0x34BC JUMPI DUP3 DUP5 SUB DUP10 MSTORE DUP2 CALLDATALOAD PUSH32 0xFFFFFFFFFFFFFFFFFFFFFFFFFFFFFFFFFFFFFFFFFFFFFFFFFFFFFFFFFFFFFF41 DUP9 CALLDATASIZE SUB ADD DUP2 SLT PUSH2 0x33D3 JUMPI PUSH1 0x0 DUP1 REVERT JUMPDEST DUP8 ADD PUSH1 0xC0 PUSH2 0x33E0 DUP3 PUSH2 0x3321 JUMP JUMPDEST ISZERO ISZERO DUP7 MSTORE PUSH2 0x33EF DUP8 DUP4 ADD PUSH2 0x3321 JUMP JUMPDEST ISZERO ISZERO DUP7 DUP9 ADD MSTORE PUSH1 0x40 DUP3 DUP2 ADD CALLDATALOAD SWAP1 DUP8 ADD MSTORE PUSH1 0x60 PUSH20 0xFFFFFFFFFFFFFFFFFFFFFFFFFFFFFFFFFFFFFFFF PUSH2 0x3421 DUP3 DUP6 ADD PUSH2 0x2D2C JUMP JUMPDEST AND SWAP1 DUP8 ADD MSTORE PUSH1 0x80 DUP3 DUP2 ADD CALLDATALOAD SWAP1 DUP8 ADD MSTORE PUSH1 0xA0 DUP1 DUP4 ADD CALLDATALOAD CALLDATASIZE DUP5 SWAP1 SUB PUSH32 0xFFFFFFFFFFFFFFFFFFFFFFFFFFFFFFFFFFFFFFFFFFFFFFFFFFFFFFFFFFFFFFE1 ADD DUP2 SLT PUSH2 0x3467 JUMPI PUSH1 0x0 DUP1 REVERT JUMPDEST SWAP1 SWAP3 ADD DUP8 DUP2 ADD SWAP3 SWAP1 CALLDATALOAD PUSH8 0xFFFFFFFFFFFFFFFF DUP2 GT ISZERO PUSH2 0x3485 JUMPI PUSH1 0x0 DUP1 REVERT JUMPDEST DUP1 CALLDATASIZE SUB DUP5 SGT ISZERO PUSH2 0x3494 JUMPI PUSH1 0x0 DUP1 REVERT JUMPDEST DUP3 DUP3 DUP10 ADD MSTORE PUSH2 0x34A6 DUP4 DUP10 ADD DUP3 DUP7 PUSH2 0x3331 JUMP JUMPDEST SWAP13 DUP10 ADD SWAP13 SWAP8 POP POP POP SWAP3 DUP7 ADD SWAP3 POP POP PUSH1 0x1 ADD PUSH2 0x3394 JUMP JUMPDEST POP SWAP2 SWAP8 SWAP7 POP POP POP POP POP POP POP JUMP JUMPDEST PUSH1 0x40 DUP2 MSTORE PUSH1 0x5 PUSH1 0x40 DUP3 ADD MSTORE PUSH32 0x73656C663A000000000000000000000000000000000000000000000000000000 PUSH1 0x60 DUP3 ADD MSTORE PUSH1 0x80 PUSH1 0x20 DUP3 ADD MSTORE PUSH1 0x0 PUSH2 0x9D4 PUSH1 0x80 DUP4 ADD DUP5 DUP7 PUSH2 0x337A JUMP JUMPDEST DUP4 DUP2 MSTORE PUSH1 0x40 PUSH1 0x20 DUP3 ADD MSTORE PUSH1 0x0 PUSH2 0x352B PUSH1 0x40 DUP4 ADD DUP5 DUP7 PUSH2 0x337A JUMP JUMPDEST SWAP6 SWAP5 POP POP POP POP POP JUMP JUMPDEST DUP4 DUP2 MSTORE PUSH1 0x40 PUSH1 0x20 DUP3 ADD MSTORE PUSH1 0x0 PUSH2 0x352B PUSH1 0x40 DUP4 ADD DUP5 DUP7 PUSH2 0x3331 JUMP JUMPDEST PUSH32 0x697066733A2F2F00000000000000000000000000000000000000000000000000 DUP2 MSTORE PUSH1 0x0 DUP3 MLOAD PUSH2 0x3586 DUP2 PUSH1 0x7 DUP6 ADD PUSH1 0x20 DUP8 ADD PUSH2 0x300B JUMP JUMPDEST SWAP2 SWAP1 SWAP2 ADD PUSH1 0x7 ADD SWAP3 SWAP2 POP POP JUMP JUMPDEST PUSH1 0x0 DUP3 CALLDATALOAD PUSH32 0xFFFFFFFFFFFFFFFFFFFFFFFFFFFFFFFFFFFFFFFFFFFFFFFFFFFFFFFFFFFFFF41 DUP4 CALLDATASIZE SUB ADD DUP2 SLT PUSH2 0x35C7 JUMPI PUSH1 0x0 DUP1 REVERT JUMPDEST SWAP2 SWAP1 SWAP2 ADD SWAP3 SWAP2 POP POP JUMP JUMPDEST PUSH1 0x0 PUSH1 0x20 DUP3 DUP5 SUB SLT ISZERO PUSH2 0x35E3 JUMPI PUSH1 0x0 DUP1 REVERT JUMPDEST PUSH2 0x965 DUP3 PUSH2 0x3321 JUMP JUMPDEST PUSH1 0x0 DUP1 DUP4 CALLDATALOAD PUSH32 0xFFFFFFFFFFFFFFFFFFFFFFFFFFFFFFFFFFFFFFFFFFFFFFFFFFFFFFFFFFFFFFE1 DUP5 CALLDATASIZE SUB ADD DUP2 SLT PUSH2 0x3621 JUMPI PUSH1 0x0 DUP1 REVERT JUMPDEST DUP4 ADD DUP1 CALLDATALOAD SWAP2 POP PUSH8 0xFFFFFFFFFFFFFFFF DUP3 GT ISZERO PUSH2 0x363C JUMPI PUSH1 0x0 DUP1 REVERT JUMPDEST PUSH1 0x20 ADD SWAP2 POP CALLDATASIZE DUP2 SWAP1 SUB DUP3 SGT ISZERO PUSH2 0x2DB5 JUMPI PUSH1 0x0 DUP1 REVERT JUMPDEST PUSH1 0x0 DUP1 DUP6 DUP6 GT ISZERO PUSH2 0x3661 JUMPI PUSH1 0x0 DUP1 REVERT JUMPDEST DUP4 DUP7 GT ISZERO PUSH2 0x366E JUMPI PUSH1 0x0 DUP1 REVERT JUMPDEST POP POP DUP3 ADD SWAP4 SWAP2 SWAP1 SWAP3 SUB SWAP2 POP JUMP JUMPDEST PUSH32 0x4E487B7100000000000000000000000000000000000000000000000000000000 PUSH1 0x0 MSTORE PUSH1 0x11 PUSH1 0x4 MSTORE PUSH1 0x24 PUSH1 0x0 REVERT JUMPDEST DUP1 DUP3 ADD DUP1 DUP3 GT ISZERO PUSH2 0x7B1 JUMPI PUSH2 0x7B1 PUSH2 0x367B JUMP JUMPDEST PUSH1 0x60 DUP2 MSTORE PUSH1 0x0 PUSH2 0x36D1 PUSH1 0x60 DUP4 ADD DUP7 DUP9 PUSH2 0x3331 JUMP JUMPDEST PUSH1 0x20 DUP4 ADD SWAP5 SWAP1 SWAP5 MSTORE POP PUSH1 0x40 ADD MSTORE SWAP3 SWAP2 POP POP JUMP JUMPDEST PUSH32 0x6200000000000000000000000000000000000000000000000000000000000000 DUP2 MSTORE PUSH1 0x0 DUP3 MLOAD PUSH2 0x371C DUP2 PUSH1 0x1 DUP6 ADD PUSH1 0x20 DUP8 ADD PUSH2 0x300B JUMP JUMPDEST SWAP2 SWAP1 SWAP2 ADD PUSH1 0x1 ADD SWAP3 SWAP2 POP POP JUMP JUMPDEST DUP3 DUP2 MSTORE PUSH1 0x40 PUSH1 0x20 DUP3 ADD MSTORE PUSH1 0x0 PUSH2 0x9D4 PUSH1 0x40 DUP4 ADD DUP5 PUSH2 0x302F JUMP JUMPDEST DUP5 DUP2 MSTORE PUSH20 0xFFFFFFFFFFFFFFFFFFFFFFFFFFFFFFFFFFFFFFFF DUP5 AND PUSH1 0x20 DUP3 ADD MSTORE PUSH1 0x60 PUSH1 0x40 DUP3 ADD MSTORE PUSH1 0x0 PUSH2 0x3778 PUSH1 0x60 DUP4 ADD DUP5 DUP7 PUSH2 0x3331 JUMP JUMPDEST SWAP7 SWAP6 POP POP POP POP POP POP JUMP JUMPDEST PUSH1 0x20 DUP2 MSTORE PUSH1 0x0 PUSH2 0x9D4 PUSH1 0x20 DUP4 ADD DUP5 DUP7 PUSH2 0x3331 JUMP JUMPDEST DUP2 DUP2 SUB DUP2 DUP2 GT ISZERO PUSH2 0x7B1 JUMPI PUSH2 0x7B1 PUSH2 0x367B JUMP JUMPDEST PUSH1 0x40 DUP2 MSTORE PUSH1 0x0 PUSH2 0x37BD PUSH1 0x40 DUP4 ADD DUP6 DUP8 PUSH2 0x3331 JUMP JUMPDEST SWAP1 POP DUP3 PUSH1 0x20 DUP4 ADD MSTORE SWAP5 SWAP4 POP POP POP POP JUMP JUMPDEST PUSH1 0x40 DUP2 MSTORE PUSH1 0x0 PUSH2 0x37E1 PUSH1 0x40 DUP4 ADD DUP6 DUP8 PUSH2 0x3331 JUMP JUMPDEST SWAP1 POP PUSH1 0xFF DUP4 AND PUSH1 0x20 DUP4 ADD MSTORE SWAP5 SWAP4 POP POP POP POP JUMP JUMPDEST PUSH1 0x60 DUP2 MSTORE PUSH1 0x0 PUSH2 0x3808 PUSH1 0x60 DUP4 ADD DUP7 DUP9 PUSH2 0x3331 JUMP JUMPDEST PUSH1 0x20 DUP4 ADD SWAP5 SWAP1 SWAP5 MSTORE POP SWAP1 ISZERO ISZERO PUSH1 0x40 SWAP1 SWAP2 ADD MSTORE SWAP3 SWAP2 POP POP JUMP JUMPDEST PUSH1 0x0 PUSH1 0x20 DUP3 DUP5 SUB SLT ISZERO PUSH2 0x3832 JUMPI PUSH1 0x0 DUP1 REVERT JUMPDEST DUP2 MLOAD PUSH2 0x965 DUP2 PUSH2 0x2CE1 JUMP INVALID LOG2 PUSH5 0x6970667358 0x22 SLT KECCAK256 EXTCODECOPY DUP14 MLOAD SWAP10 RETURN 0xC SLT RETURNDATASIZE SELFDESTRUCT SWAP8 GT 0xC1 RETURNDATACOPY PUSH14 0x1AF00442C59755D475D5781636AA 0xBA 0xB6 0x2D 0xB3 PUSH5 0x736F6C6343 STOP ADDMOD SLT STOP CALLER PUSH1 0x3A PUSH1 0xE RETURNDATASIZE CODECOPY PUSH1 0x1A DUP1 MLOAD ADDRESS SSTORE RETURNDATASIZE RETURN CALLDATASIZE RETURNDATASIZE RETURNDATASIZE CALLDATACOPY RETURNDATASIZE RETURNDATASIZE RETURNDATASIZE CALLDATASIZE RETURNDATASIZE ADDRESS SLOAD GAS DELEGATECALL RETURNDATASIZE DUP3 DUP1 RETURNDATACOPY SWAP1 RETURNDATASIZE SWAP2 PUSH1 0x18 JUMPI REVERT JUMPDEST RETURN "
				}
			},
			"userdoc": {
				"kind": "user",
				"methods": {
					"addHook(bytes4,address)": {
						"notice": "Adds a new hook to handle a given function selector"
					},
					"createContract(bytes)": {
						"notice": "Creates a contract forwarding eth value"
					},
					"execute((bool,bool,uint256,address,uint256,bytes)[],uint256,bytes)": {
						"notice": "Allow wallet owner to execute an action"
					},
					"isValidSignature(bytes,bytes)": {
						"notice": "Verifies whether the provided signature is valid with respect to the provided data"
					},
					"isValidSignature(bytes32,bytes)": {
						"notice": "Verifies whether the provided signature is valid with respect to the provided hash"
					},
					"nonce()": {
						"notice": "Returns the next nonce of the default nonce space"
					},
					"onERC1155BatchReceived(address,address,uint256[],uint256[],bytes)": {
						"notice": "Handle the receipt of multiple ERC1155 token types."
					},
					"onERC1155Received(address,address,uint256,uint256,bytes)": {
						"notice": "Handle the receipt of a single ERC1155 token type."
					},
					"onERC721Received(address,address,uint256,bytes)": {
						"notice": "Handle the receipt of a single ERC721 token."
					},
					"readHook(bytes4)": {
						"notice": "Reads the implementation hook of a signature"
					},
					"readNonce(uint256)": {
						"notice": "Returns the next nonce of the given nonce space"
					},
					"removeHook(bytes4)": {
						"notice": "Removes a registered hook"
					},
					"selfExecute((bool,bool,uint256,address,uint256,bytes)[])": {
						"notice": "Allow wallet to execute an action   without signing the message"
					},
					"signatureRecovery(bytes32,bytes)": {
						"notice": "Recovers the threshold, weight, imageHash, subdigest, and checkpoint of a signature."
					},
					"supportsInterface(bytes4)": {
						"notice": "Query if a contract implements an interface"
					},
					"updateImageHash(bytes32)": {
						"notice": "Updates the signers configuration of the wallet"
					},
					"updateImageHashAndIPFS(bytes32,bytes32)": {
						"notice": "Updates the image hash and the IPFS root in a single operation."
					},
					"updateImplementation(address)": {
						"notice": "Updates the implementation of the base wallet"
					}
				},
				"notice": "Contains the core functionality Sequence wallets will inherit.",
				"version": 1
			}
		}
	}
}