{
	"contracts/modules/MainModuleUpgradableDuo.sol": {
		"MainModuleUpgradableDuo": {
			"abi": [
				{
					"inputs": [
						{
							"internalType": "uint256",
							"name": "_space",
							"type": "uint256"
						},
						{
							"internalType": "uint256",
							"name": "_provided",
							"type": "uint256"
						},
						{
							"internalType": "uint256",
							"name": "_current",
							"type": "uint256"
						}
					],
					"name": "BadNonce",
					"type": "error"
				},
				{
					"inputs": [
						{
							"internalType": "bytes",
							"name": "_code",
							"type": "bytes"
						}
					],
					"name": "CreateFailed",
					"type": "error"
				},
				{
					"inputs": [],
					"name": "EmptySignature",
					"type": "error"
				},
				{
					"inputs": [],
					"name": "ExternalImageHashIsZero",
					"type": "error"
				},
				{
					"inputs": [
						{
							"internalType": "bytes4",
							"name": "_signature",
							"type": "bytes4"
						}
					],
					"name": "HookAlreadyExists",
					"type": "error"
				},
				{
					"inputs": [
						{
							"internalType": "bytes4",
							"name": "_signature",
							"type": "bytes4"
						}
					],
					"name": "HookDoesNotExist",
					"type": "error"
				},
				{
					"inputs": [],
					"name": "ImageHashIsZero",
					"type": "error"
				},
				{
					"inputs": [
						{
							"internalType": "address",
							"name": "_implementation",
							"type": "address"
						}
					],
					"name": "InvalidImplementation",
					"type": "error"
				},
				{
					"inputs": [
						{
							"internalType": "bytes32",
							"name": "_hash",
							"type": "bytes32"
						},
						{
							"internalType": "address",
							"name": "_addr",
							"type": "address"
						},
						{
							"internalType": "bytes",
							"name": "_signature",
							"type": "bytes"
						}
					],
					"name": "InvalidNestedSignature",
					"type": "error"
				},
				{
					"inputs": [
						{
							"internalType": "bytes",
							"name": "_signature",
							"type": "bytes"
						},
						{
							"internalType": "bytes32",
							"name": "_s",
							"type": "bytes32"
						}
					],
					"name": "InvalidSValue",
					"type": "error"
				},
				{
					"inputs": [
						{
							"internalType": "bytes32",
							"name": "_hash",
							"type": "bytes32"
						},
						{
							"internalType": "bytes",
							"name": "_signature",
							"type": "bytes"
						}
					],
					"name": "InvalidSignature",
					"type": "error"
				},
				{
					"inputs": [
						{
							"internalType": "uint256",
							"name": "_flag",
							"type": "uint256"
						}
					],
					"name": "InvalidSignatureFlag",
					"type": "error"
				},
				{
					"inputs": [
						{
							"internalType": "bytes",
							"name": "_signature",
							"type": "bytes"
						}
					],
					"name": "InvalidSignatureLength",
					"type": "error"
				},
				{
					"inputs": [
						{
							"internalType": "bytes1",
							"name": "_type",
							"type": "bytes1"
						}
					],
					"name": "InvalidSignatureType",
					"type": "error"
				},
				{
					"inputs": [
						{
							"internalType": "bytes",
							"name": "_signature",
							"type": "bytes"
						},
						{
							"internalType": "uint256",
							"name": "_v",
							"type": "uint256"
						}
					],
					"name": "InvalidVValue",
					"type": "error"
				},
				{
					"inputs": [
						{
							"internalType": "bytes",
							"name": "_signature",
							"type": "bytes"
						},
						{
							"internalType": "uint256",
							"name": "threshold",
							"type": "uint256"
						},
						{
							"internalType": "uint256",
							"name": "_weight",
							"type": "uint256"
						}
					],
					"name": "LowWeightChainedSignature",
					"type": "error"
				},
				{
					"inputs": [
						{
							"internalType": "uint256",
							"name": "_index",
							"type": "uint256"
						},
						{
							"internalType": "uint256",
							"name": "_requested",
							"type": "uint256"
						},
						{
							"internalType": "uint256",
							"name": "_available",
							"type": "uint256"
						}
					],
					"name": "NotEnoughGas",
					"type": "error"
				},
				{
					"inputs": [],
					"name": "OnlyDelegatecall",
					"type": "error"
				},
				{
					"inputs": [
						{
							"internalType": "address",
							"name": "_sender",
							"type": "address"
						},
						{
							"internalType": "address",
							"name": "_self",
							"type": "address"
						}
					],
					"name": "OnlySelfAuth",
					"type": "error"
				},
				{
					"inputs": [
						{
							"internalType": "bytes",
							"name": "_signature",
							"type": "bytes"
						}
					],
					"name": "SignerIsAddress0",
					"type": "error"
				},
				{
					"inputs": [
						{
							"internalType": "bytes",
							"name": "_signature",
							"type": "bytes"
						},
						{
							"internalType": "uint256",
							"name": "_type",
							"type": "uint256"
						},
						{
							"internalType": "bool",
							"name": "_recoverMode",
							"type": "bool"
						}
					],
					"name": "UnsupportedSignatureType",
					"type": "error"
				},
				{
					"inputs": [
						{
							"internalType": "uint256",
							"name": "_current",
							"type": "uint256"
						},
						{
							"internalType": "uint256",
							"name": "_prev",
							"type": "uint256"
						}
					],
					"name": "WrongChainedCheckpointOrder",
					"type": "error"
				},
				{
					"anonymous": false,
					"inputs": [
						{
							"indexed": false,
							"internalType": "address",
							"name": "_contract",
							"type": "address"
						}
					],
					"name": "CreatedContract",
					"type": "event"
				},
				{
					"anonymous": false,
					"inputs": [
						{
							"indexed": false,
							"internalType": "bytes4",
							"name": "_signature",
							"type": "bytes4"
						},
						{
							"indexed": false,
							"internalType": "address",
							"name": "_implementation",
							"type": "address"
						}
					],
					"name": "DefinedHook",
					"type": "event"
				},
				{
					"anonymous": false,
					"inputs": [
						{
							"indexed": false,
							"internalType": "bytes32",
							"name": "newExternalImageHash",
							"type": "bytes32"
						}
					],
					"name": "ExternalImageHashUpdated",
					"type": "event"
				},
				{
					"anonymous": false,
					"inputs": [
						{
							"indexed": false,
							"internalType": "bytes32",
							"name": "_hash",
							"type": "bytes32"
						}
					],
					"name": "IPFSRootUpdated",
					"type": "event"
				},
				{
					"anonymous": false,
					"inputs": [
						{
							"indexed": false,
							"internalType": "bytes32",
							"name": "newImageHash",
							"type": "bytes32"
						}
					],
					"name": "ImageHashUpdated",
					"type": "event"
				},
				{
					"anonymous": false,
					"inputs": [
						{
							"indexed": false,
							"internalType": "address",
							"name": "newImplementation",
							"type": "address"
						}
					],
					"name": "ImplementationUpdated",
					"type": "event"
				},
				{
					"anonymous": false,
					"inputs": [
						{
							"indexed": false,
							"internalType": "uint256",
							"name": "_space",
							"type": "uint256"
						},
						{
							"indexed": false,
							"internalType": "uint256",
							"name": "_newNonce",
							"type": "uint256"
						}
					],
					"name": "NonceChange",
					"type": "event"
				},
				{
					"anonymous": false,
					"inputs": [
						{
							"indexed": true,
							"internalType": "bytes32",
							"name": "_tx",
							"type": "bytes32"
						},
						{
							"indexed": false,
							"internalType": "uint256",
							"name": "_index",
							"type": "uint256"
						}
					],
					"name": "TxExecuted",
					"type": "event"
				},
				{
					"anonymous": false,
					"inputs": [
						{
							"indexed": true,
							"internalType": "bytes32",
							"name": "_tx",
							"type": "bytes32"
						},
						{
							"indexed": false,
							"internalType": "uint256",
							"name": "_index",
							"type": "uint256"
						},
						{
							"indexed": false,
							"internalType": "bytes",
							"name": "_reason",
							"type": "bytes"
						}
					],
					"name": "TxFailed",
					"type": "event"
				},
				{
					"stateMutability": "payable",
					"type": "fallback"
				},
				{
					"inputs": [],
					"name": "SET_IMAGE_HASH_TYPE_HASH",
					"outputs": [
						{
							"internalType": "bytes32",
							"name": "",
							"type": "bytes32"
						}
					],
					"stateMutability": "view",
					"type": "function"
				},
				{
					"inputs": [
						{
							"internalType": "bytes4",
							"name": "_signature",
							"type": "bytes4"
						},
						{
							"internalType": "address",
							"name": "_implementation",
							"type": "address"
						}
					],
					"name": "addHook",
					"outputs": [],
					"stateMutability": "nonpayable",
					"type": "function"
				},
				{
					"inputs": [
						{
							"internalType": "bytes",
							"name": "_code",
							"type": "bytes"
						}
					],
					"name": "createContract",
					"outputs": [
						{
							"internalType": "address",
							"name": "addr",
							"type": "address"
						}
					],
					"stateMutability": "payable",
					"type": "function"
				},
				{
					"inputs": [
						{
							"components": [
								{
									"internalType": "bool",
									"name": "delegateCall",
									"type": "bool"
								},
								{
									"internalType": "bool",
									"name": "revertOnError",
									"type": "bool"
								},
								{
									"internalType": "uint256",
									"name": "gasLimit",
									"type": "uint256"
								},
								{
									"internalType": "address",
									"name": "target",
									"type": "address"
								},
								{
									"internalType": "uint256",
									"name": "value",
									"type": "uint256"
								},
								{
									"internalType": "bytes",
									"name": "data",
									"type": "bytes"
								}
							],
							"internalType": "struct IModuleCalls.Transaction[]",
							"name": "_txs",
							"type": "tuple[]"
						},
						{
							"internalType": "uint256",
							"name": "_nonce",
							"type": "uint256"
						},
						{
							"internalType": "bytes",
							"name": "_signature",
							"type": "bytes"
						}
					],
					"name": "execute",
					"outputs": [],
					"stateMutability": "nonpayable",
					"type": "function"
				},
				{
					"inputs": [],
					"name": "externalImageHash",
					"outputs": [
						{
							"internalType": "bytes32",
							"name": "",
							"type": "bytes32"
						}
					],
					"stateMutability": "view",
					"type": "function"
				},
				{
					"inputs": [],
					"name": "imageHash",
					"outputs": [
						{
							"internalType": "bytes32",
							"name": "",
							"type": "bytes32"
						}
					],
					"stateMutability": "view",
					"type": "function"
				},
				{
					"inputs": [],
					"name": "ipfsRoot",
					"outputs": [
						{
							"internalType": "string",
							"name": "",
							"type": "string"
						}
					],
					"stateMutability": "view",
					"type": "function"
				},
				{
					"inputs": [],
					"name": "ipfsRootBytes32",
					"outputs": [
						{
							"internalType": "bytes32",
							"name": "",
							"type": "bytes32"
						}
					],
					"stateMutability": "view",
					"type": "function"
				},
				{
					"inputs": [
						{
							"internalType": "bytes32",
							"name": "_hash",
							"type": "bytes32"
						},
						{
							"internalType": "bytes",
							"name": "_signatures",
							"type": "bytes"
						}
					],
					"name": "isValidSignature",
					"outputs": [
						{
							"internalType": "bytes4",
							"name": "",
							"type": "bytes4"
						}
					],
					"stateMutability": "view",
					"type": "function"
				},
				{
					"inputs": [
						{
							"internalType": "bytes",
							"name": "_data",
							"type": "bytes"
						},
						{
							"internalType": "bytes",
							"name": "_signatures",
							"type": "bytes"
						}
					],
					"name": "isValidSignature",
					"outputs": [
						{
							"internalType": "bytes4",
							"name": "",
							"type": "bytes4"
						}
					],
					"stateMutability": "view",
					"type": "function"
				},
				{
					"inputs": [],
					"name": "nonce",
					"outputs": [
						{
							"internalType": "uint256",
							"name": "",
							"type": "uint256"
						}
					],
					"stateMutability": "view",
					"type": "function"
				},
				{
					"inputs": [
						{
							"internalType": "address",
							"name": "",
							"type": "address"
						},
						{
							"internalType": "address",
							"name": "",
							"type": "address"
						},
						{
							"internalType": "uint256[]",
							"name": "",
							"type": "uint256[]"
						},
						{
							"internalType": "uint256[]",
							"name": "",
							"type": "uint256[]"
						},
						{
							"internalType": "bytes",
							"name": "",
							"type": "bytes"
						}
					],
					"name": "onERC1155BatchReceived",
					"outputs": [
						{
							"internalType": "bytes4",
							"name": "",
							"type": "bytes4"
						}
					],
					"stateMutability": "nonpayable",
					"type": "function"
				},
				{
					"inputs": [
						{
							"internalType": "address",
							"name": "",
							"type": "address"
						},
						{
							"internalType": "address",
							"name": "",
							"type": "address"
						},
						{
							"internalType": "uint256",
							"name": "",
							"type": "uint256"
						},
						{
							"internalType": "uint256",
							"name": "",
							"type": "uint256"
						},
						{
							"internalType": "bytes",
							"name": "",
							"type": "bytes"
						}
					],
					"name": "onERC1155Received",
					"outputs": [
						{
							"internalType": "bytes4",
							"name": "",
							"type": "bytes4"
						}
					],
					"stateMutability": "nonpayable",
					"type": "function"
				},
				{
					"inputs": [
						{
							"internalType": "address",
							"name": "",
							"type": "address"
						},
						{
							"internalType": "address",
							"name": "",
							"type": "address"
						},
						{
							"internalType": "uint256",
							"name": "",
							"type": "uint256"
						},
						{
							"internalType": "bytes",
							"name": "",
							"type": "bytes"
						}
					],
					"name": "onERC721Received",
					"outputs": [
						{
							"internalType": "bytes4",
							"name": "",
							"type": "bytes4"
						}
					],
					"stateMutability": "nonpayable",
					"type": "function"
				},
				{
					"inputs": [
						{
							"internalType": "bytes4",
							"name": "_signature",
							"type": "bytes4"
						}
					],
					"name": "readHook",
					"outputs": [
						{
							"internalType": "address",
							"name": "",
							"type": "address"
						}
					],
					"stateMutability": "view",
					"type": "function"
				},
				{
					"inputs": [
						{
							"internalType": "uint256",
							"name": "_space",
							"type": "uint256"
						}
					],
					"name": "readNonce",
					"outputs": [
						{
							"internalType": "uint256",
							"name": "",
							"type": "uint256"
						}
					],
					"stateMutability": "view",
					"type": "function"
				},
				{
					"inputs": [
						{
							"internalType": "bytes4",
							"name": "_signature",
							"type": "bytes4"
						}
					],
					"name": "removeHook",
					"outputs": [],
					"stateMutability": "nonpayable",
					"type": "function"
				},
				{
					"inputs": [
						{
							"components": [
								{
									"internalType": "bool",
									"name": "delegateCall",
									"type": "bool"
								},
								{
									"internalType": "bool",
									"name": "revertOnError",
									"type": "bool"
								},
								{
									"internalType": "uint256",
									"name": "gasLimit",
									"type": "uint256"
								},
								{
									"internalType": "address",
									"name": "target",
									"type": "address"
								},
								{
									"internalType": "uint256",
									"name": "value",
									"type": "uint256"
								},
								{
									"internalType": "bytes",
									"name": "data",
									"type": "bytes"
								}
							],
							"internalType": "struct IModuleCalls.Transaction[]",
							"name": "_txs",
							"type": "tuple[]"
						}
					],
					"name": "selfExecute",
					"outputs": [],
					"stateMutability": "nonpayable",
					"type": "function"
				},
				{
					"inputs": [
						{
							"internalType": "bytes32",
							"name": "_digest",
							"type": "bytes32"
						},
						{
							"internalType": "bytes",
							"name": "_signature",
							"type": "bytes"
						}
					],
					"name": "signatureRecovery",
					"outputs": [
						{
							"internalType": "uint256",
							"name": "threshold",
							"type": "uint256"
						},
						{
							"internalType": "uint256",
							"name": "weight",
							"type": "uint256"
						},
						{
							"internalType": "bytes32",
							"name": "imageHash",
							"type": "bytes32"
						},
						{
							"internalType": "bytes32",
							"name": "subdigest",
							"type": "bytes32"
						},
						{
							"internalType": "uint256",
							"name": "checkpoint",
							"type": "uint256"
						}
					],
					"stateMutability": "view",
					"type": "function"
				},
				{
					"inputs": [
						{
							"internalType": "bytes4",
							"name": "_interfaceID",
							"type": "bytes4"
						}
					],
					"name": "supportsInterface",
					"outputs": [
						{
							"internalType": "bool",
							"name": "",
							"type": "bool"
						}
					],
					"stateMutability": "pure",
					"type": "function"
				},
				{
					"inputs": [
						{
							"internalType": "bytes32",
							"name": "_imageHash",
							"type": "bytes32"
						}
					],
					"name": "updateExternalImageHash",
					"outputs": [],
					"stateMutability": "nonpayable",
					"type": "function"
				},
				{
					"inputs": [
						{
							"internalType": "bytes32",
							"name": "_hash",
							"type": "bytes32"
						}
					],
					"name": "updateIPFSRoot",
					"outputs": [],
					"stateMutability": "nonpayable",
					"type": "function"
				},
				{
					"inputs": [
						{
							"internalType": "bytes32",
							"name": "_imageHash",
							"type": "bytes32"
						}
					],
					"name": "updateImageHash",
					"outputs": [],
					"stateMutability": "nonpayable",
					"type": "function"
				},
				{
					"inputs": [
						{
							"internalType": "bytes32",
							"name": "_imageHash",
							"type": "bytes32"
						},
						{
							"internalType": "bytes32",
							"name": "_ipfsRoot",
							"type": "bytes32"
						}
					],
					"name": "updateImageHashAndIPFS",
					"outputs": [],
					"stateMutability": "nonpayable",
					"type": "function"
				},
				{
					"inputs": [
						{
							"internalType": "address",
							"name": "_implementation",
							"type": "address"
						}
					],
					"name": "updateImplementation",
					"outputs": [],
					"stateMutability": "nonpayable",
					"type": "function"
				},
				{
					"stateMutability": "payable",
					"type": "receive"
				}
			],
			"devdoc": {
				"details": "This implementation does not include the `ModuleExtraAuth` functionality.",
				"kind": "dev",
				"methods": {
					"addHook(bytes4,address)": {
						"details": "Can't overwrite hooks that are part of the main module (those defined below)",
						"params": {
							"_implementation": "Hook implementation contract",
							"_signature": "Signature function linked to the hook"
						}
					},
					"createContract(bytes)": {
						"params": {
							"_code": "Creation code of the contract"
						},
						"returns": {
							"addr": "The address of the created contract"
						}
					},
					"execute((bool,bool,uint256,address,uint256,bytes)[],uint256,bytes)": {
						"details": "Relayers must ensure that the gasLimit specified for each transaction      is acceptable to them. A user could specify large enough that it could      consume all the gas available.",
						"params": {
							"_nonce": "Signature nonce (may contain an encoded space)",
							"_signature": "Encoded signature",
							"_txs": "Transactions to process"
						}
					},
					"nonce()": {
						"details": "The default nonce space is 0x00",
						"returns": {
							"_0": "The next nonce"
						}
					},
					"onERC1155BatchReceived(address,address,uint256[],uint256[],bytes)": {
						"returns": {
							"_0": "`bytes4(keccak256(\"onERC1155BatchReceived(address,address,uint256[],uint256[],bytes)\"))`"
						}
					},
					"onERC1155Received(address,address,uint256,uint256,bytes)": {
						"returns": {
							"_0": "`bytes4(keccak256(\"onERC1155Received(address,address,uint256,uint256,bytes)\"))`"
						}
					},
					"onERC721Received(address,address,uint256,bytes)": {
						"returns": {
							"_0": "`bytes4(keccak256(\"onERC721Received(address,address,uint256,bytes)\"))`"
						}
					},
					"readHook(bytes4)": {
						"params": {
							"_signature": "Signature function"
						},
						"returns": {
							"_0": "The address of the implementation hook, address(0) if none"
						}
					},
					"readNonce(uint256)": {
						"params": {
							"_space": "Nonce space, each space keeps an independent nonce count"
						},
						"returns": {
							"_0": "The next nonce"
						}
					},
					"removeHook(bytes4)": {
						"details": "Can't remove hooks that are part of the main module (those defined below)      without upgrading the wallet",
						"params": {
							"_signature": "Signature function linked to the hook"
						}
					},
					"selfExecute((bool,bool,uint256,address,uint256,bytes)[])": {
						"params": {
							"_txs": "Transactions to execute"
						}
					},
					"signatureRecovery(bytes32,bytes)": {
						"details": "The signature must be prefixed with a type byte, which is used to determine the recovery method.",
						"params": {
							"_digest": "Digest of the signed data.",
							"_signature": "A Sequence signature."
						},
						"returns": {
							"checkpoint": "A nonce that is incremented every time a new configuration is set.",
							"imageHash": "The imageHash of the configuration that signed the message.",
							"subdigest": "A modified version of the original digest, unique for each wallet/network.",
							"threshold": "The required number of signatures needed to consider the signature valid.",
							"weight": "The actual number of signatures collected in the signature."
						}
					},
					"supportsInterface(bytes4)": {
						"details": "If using a new main module, developers must ensure that all inherited      contracts by the main module don't conflict and are accounted for to be      supported by the supportsInterface method.",
						"params": {
							"_interfaceID": "The interface identifier, as specified in ERC-165"
						},
						"returns": {
							"_0": "`true` if the contract implements `_interfaceID`"
						}
					},
					"updateExternalImageHash(bytes32)": {
						"params": {
							"_imageHash": "New required image hash of the ERC-1271 signatures"
						}
					},
					"updateImageHash(bytes32)": {
						"params": {
							"_imageHash": "New required image hash of the signature"
						}
					},
					"updateImageHashAndIPFS(bytes32,bytes32)": {
						"details": "These two operations are often performed together, so this function      allows to save some gas by performing them in a single step.",
						"params": {
							"_imageHash": "The new image hash to be set.",
							"_ipfsRoot": "The new IPFS root to be set."
						}
					},
					"updateImplementation(address)": {
						"details": "WARNING Updating the implementation can brick the wallet",
						"params": {
							"_implementation": "New main module implementation"
						}
					}
				},
				"version": 1
			},
			"evm": {
				"bytecode": {
					"linkReferences": {},
					"object": "60a060405234801561001057600080fd5b5030608052608051613673610030600039600061095a01526136736000f3fe60806040526004361061019a5760003560e01c8063853c5068116100e1578063a38cef191161008a578063bc197c8111610064578063bc197c81146105cd578063c71f1f9614610615578063d0748f711461062a578063f23a6e611461064a576101a1565b8063a38cef1914610578578063affed0e014610598578063b93ea7ad146105ad576101a1565b80638efa6441116100bb5780638efa64411461052e57806390042baf146105505780639bd58b1614610563576101a1565b8063853c5068146104a65780638976c44c146104ee5780638c3f55631461050e576101a1565b8063295614261161014357806357c56d6b1161011d57806357c56d6b1461043257806361c2926c146104665780637a9a162814610486576101a1565b806329561426146103cf5780634fcf3eca146103ef57806351605d801461040f576101a1565b80631626ba7e116101745780631626ba7e1461034a5780631a9b23371461036a57806320c13b0b146103af576101a1565b806301ffc9a71461027f578063025b22bc146102b4578063150b7a02146102d4576101a1565b366101a157005b6004361061027d5760006101d86000357fffffffff0000000000000000000000000000000000000000000000000000000016610690565b905073ffffffffffffffffffffffffffffffffffffffff81161561027b576000808273ffffffffffffffffffffffffffffffffffffffff16600036604051610221929190612ada565b600060405180830381855af49150503d806000811461025c576040519150601f19603f3d011682016040523d82523d6000602084013e610261565b606091505b50915091508161027357805160208201fd5b805160208201f35b505b005b34801561028b57600080fd5b5061029f61029a366004612b18565b6106e4565b60405190151581526020015b60405180910390f35b3480156102c057600080fd5b5061027d6102cf366004612b5e565b6106ef565b3480156102e057600080fd5b506103196102ef366004612bc2565b7f150b7a020000000000000000000000000000000000000000000000000000000095945050505050565b6040517fffffffff0000000000000000000000000000000000000000000000000000000090911681526020016102ab565b34801561035657600080fd5b50610319610365366004612c31565b610741565b34801561037657600080fd5b5061038a610385366004612b18565b610758565b60405173ffffffffffffffffffffffffffffffffffffffff90911681526020016102ab565b3480156103bb57600080fd5b506103196103ca366004612c7d565b610763565b3480156103db57600080fd5b5061027d6103ea366004612ce9565b61077c565b3480156103fb57600080fd5b5061027d61040a366004612b18565b6107c6565b34801561041b57600080fd5b5061042461088e565b6040519081526020016102ab565b34801561043e57600080fd5b506104247f8713a7c4465f6fbee2b6e9d6646d1d9f83fec929edfc4baf661f3c865bdd04d181565b34801561047257600080fd5b5061027d610481366004612d47565b6108bd565b34801561049257600080fd5b5061027d6104a1366004612d89565b610943565b3480156104b257600080fd5b506104c66104c1366004612c31565b610a48565b604080519586526020860194909452928401919091526060830152608082015260a0016102ab565b3480156104fa57600080fd5b5061027d610509366004612ce9565b610c10565b34801561051a57600080fd5b50610424610529366004612ce9565b610ce8565b34801561053a57600080fd5b50610543610d14565b6040516102ab9190612e60565b61038a61055e366004612ea2565b610d95565b34801561056f57600080fd5b50610424610e7f565b34801561058457600080fd5b5061027d610593366004612ce9565b610ea9565b3480156105a457600080fd5b50610424610ef3565b3480156105b957600080fd5b5061027d6105c8366004612f71565b610eff565b3480156105d957600080fd5b506103196105e8366004612fa6565b7fbc197c810000000000000000000000000000000000000000000000000000000098975050505050505050565b34801561062157600080fd5b50610424610fca565b34801561063657600080fd5b5061027d610645366004613061565b610ff4565b34801561065657600080fd5b50610319610665366004613083565b7ff23a6e61000000000000000000000000000000000000000000000000000000009695505050505050565b60006106de7fbe27a319efc8734e89e26ba4bc95f5c788584163b959f03fa04e2d7ab4b9a1207fffffffff000000000000000000000000000000000000000000000000000000008416611047565b92915050565b60006106de826110a5565b333014610735576040517fe12588940000000000000000000000000000000000000000000000000000000081523360048201523060248201526044015b60405180910390fd5b61073e81611101565b50565b600061074e8484846111b5565b90505b9392505050565b60006106de82610690565b600061077185858585611200565b90505b949350505050565b3330146107bd576040517fe125889400000000000000000000000000000000000000000000000000000000815233600482015230602482015260440161072c565b61073e81611263565b333014610807576040517fe125889400000000000000000000000000000000000000000000000000000000815233600482015230602482015260440161072c565b600061081282610690565b73ffffffffffffffffffffffffffffffffffffffff1603610883576040517f1c3812cc0000000000000000000000000000000000000000000000000000000081527fffffffff000000000000000000000000000000000000000000000000000000008216600482015260240161072c565b61073e8160006112f3565b60006108b87fea7157fa25e3aa17d0ae2d5280fa4e24d421c61842aa85e45194e1145aa72bf85490565b905090565b3330146108fe576040517fe125889400000000000000000000000000000000000000000000000000000000815233600482015230602482015260440161072c565b600061093183836040516020016109169291906132a3565b604051602081830303815290604052805190602001206113b3565b905061093e818484611438565b505050565b73ffffffffffffffffffffffffffffffffffffffff7f00000000000000000000000000000000000000000000000000000000000000001630036109b2576040517f0a57d61d00000000000000000000000000000000000000000000000000000000815260040160405180910390fd5b6109bb836115c0565b6000806109f38588886040516020016109d6939291906132eb565b6040516020818303038152906040528051906020012085856116bd565b9150915081610a34578084846040517f8f4a234f00000000000000000000000000000000000000000000000000000000815260040161072c93929190613305565b610a3f818888611438565b50505050505050565b60008060008060008087876000818110610a6457610a6461331f565b909101357fff00000000000000000000000000000000000000000000000000000000000000169150819050610aba57610a9c896113b3565b9250610aa98389896116fb565b92985090965094509150610c059050565b7fff0000000000000000000000000000000000000000000000000000000000000081811601610af957610aec896113b3565b9250610aa983898961174c565b7ffe000000000000000000000000000000000000000000000000000000000000007fff00000000000000000000000000000000000000000000000000000000000000821601610b4b57610aec89611778565b7ffd000000000000000000000000000000000000000000000000000000000000007fff00000000000000000000000000000000000000000000000000000000000000821601610baf57610b9f8989896117e5565b9550955095509550955050610c05565b6040517f6085cd820000000000000000000000000000000000000000000000000000000081527fff000000000000000000000000000000000000000000000000000000000000008216600482015260240161072c565b939792965093509350565b333014610c51576040517fe125889400000000000000000000000000000000000000000000000000000000815233600482015230602482015260440161072c565b80610c88576040517fb24b5b3a00000000000000000000000000000000000000000000000000000000815260040160405180910390fd5b610cb17f8c8764b3a50fee69c9bee6e956047501f434fb0e2349c75844a401a7f2a020d2829055565b6040518181527f1f63199319eff813052575c41087f618aba07b006664fed6c01f7ee9c5716835906020015b60405180910390a150565b60006106de7f8d0bf1fd623d628c741362c1289948e57b3e2905218c676d3e69abee36d6ae2e83611047565b6060610d71610d6c610d24610fca565b6040517f017012200000000000000000000000000000000000000000000000000000000060208201526024810191909152604401604051602081830303815290604052611962565b611b7b565b604051602001610d81919061334e565b604051602081830303815290604052905090565b6000333014610dd8576040517fe125889400000000000000000000000000000000000000000000000000000000815233600482015230602482015260440161072c565b81516020830134f0905073ffffffffffffffffffffffffffffffffffffffff8116610e3157816040517f0d25719100000000000000000000000000000000000000000000000000000000815260040161072c9190612e60565b60405173ffffffffffffffffffffffffffffffffffffffff821681527fa506ad4e7f05eceba62a023c3219e5bd98a615f4fa87e2afb08a2da5cf62bf0c9060200160405180910390a1919050565b60006108b87f8c8764b3a50fee69c9bee6e956047501f434fb0e2349c75844a401a7f2a020d25490565b333014610eea576040517fe125889400000000000000000000000000000000000000000000000000000000815233600482015230602482015260440161072c565b61073e81611ba4565b60006108b86000610ce8565b333014610f40576040517fe125889400000000000000000000000000000000000000000000000000000000815233600482015230602482015260440161072c565b6000610f4b83610690565b73ffffffffffffffffffffffffffffffffffffffff1614610fbc576040517f5b4d6d6a0000000000000000000000000000000000000000000000000000000081527fffffffff000000000000000000000000000000000000000000000000000000008316600482015260240161072c565b610fc682826112f3565b5050565b60006108b87f0eecac93ced8722d209199364cda3bc33da3bc3a23daef6be49ebd780511d0335490565b333014611035576040517fe125889400000000000000000000000000000000000000000000000000000000815233600482015230602482015260440161072c565b61103e82611263565b610fc681611ba4565b6000808383604051602001611066929190918252602082015260400190565b604080517fffffffffffffffffffffffffffffffffffffffffffffffffffffffffffffffe0818403018152919052805160209091012054949350505050565b60007f2e74b92a000000000000000000000000000000000000000000000000000000007fffffffff000000000000000000000000000000000000000000000000000000008316016110f857506001919050565b6106de82611bfd565b73ffffffffffffffffffffffffffffffffffffffff81163b611167576040517f0c76093700000000000000000000000000000000000000000000000000000000815273ffffffffffffffffffffffffffffffffffffffff8216600482015260240161072c565b61116f813055565b60405173ffffffffffffffffffffffffffffffffffffffff821681527f310ba5f1d2ed074b51e2eccd052a47ae9ab7c6b800d1fca3db3999d6a592ca0390602001610cdd565b6000806111c3858585611c59565b50905080156111f557507f1626ba7e000000000000000000000000000000000000000000000000000000009050610751565b506000949350505050565b6000806112258686604051611216929190612ada565b60405180910390208585611c59565b509050801561125757507f20c13b0b000000000000000000000000000000000000000000000000000000009050610774565b50600095945050505050565b8061129a576040517f4294d12700000000000000000000000000000000000000000000000000000000815260040160405180910390fd5b6112c37fea7157fa25e3aa17d0ae2d5280fa4e24d421c61842aa85e45194e1145aa72bf8829055565b6040518181527f307ed6bd941ee9fc80f369c94af5fa11e25bab5102a6140191756c5474a30bfa90602001610cdd565b604080517fbe27a319efc8734e89e26ba4bc95f5c788584163b959f03fa04e2d7ab4b9a1206020808301919091527fffffffff000000000000000000000000000000000000000000000000000000008516828401819052835180840385018152606084018086528151919093012073ffffffffffffffffffffffffffffffffffffffff8616908190559152608082015290517f0d7fc113eaf016db4681a1ba86d083ce3e0961f321062a75ac2b0aeb33deeed19181900360a00190a15050565b6040517f190100000000000000000000000000000000000000000000000000000000000060208201524660228201527fffffffffffffffffffffffffffffffffffffffff0000000000000000000000003060601b166042820152605681018290526000906076015b604051602081830303815290604052805190602001209050919050565b8060005b818110156115b957368484838181106114575761145761331f565b90506020028101906114699190613393565b90506040810135805a10156114be5782815a6040517f2bb3e3ba00000000000000000000000000000000000000000000000000000000815260048101939093526024830191909152604482015260640161072c565b60006114cd60208401846133d1565b1561150c576115056114e56080850160608601612b5e565b83156114f157836114f3565b5a5b61150060a08701876133ec565b611c8a565b9050611547565b61154461151f6080850160608601612b5e565b608085013584156115305784611532565b5a5b61153f60a08801886133ec565b611ca5565b90505b801561158c57877f5c4eeb02dabf8976016ab414d617f9a162936dcace3cdef8c69ef6e262ad5ae78560405161157f91815260200190565b60405180910390a26115ae565b6115ae61159f60408501602086016133d1565b89866115a9611cc2565b611ce1565b50505060010161143c565b5050505050565b606081901c6bffffffffffffffffffffffff821660006115df83610ce8565b905081811461162b576040517f9b6514f400000000000000000000000000000000000000000000000000000000815260048101849052602481018390526044810182905260640161072c565b604080517f8d0bf1fd623d628c741362c1289948e57b3e2905218c676d3e69abee36d6ae2e60208083019190915281830186905282518083038401815260609092019092528051910120600183019081905560408051858152602081018390527f1f180c27086c7a39ea2a7b25239d1ab92348f07ca7bb59d1438fcf527568f881910160405180910390a15050505050565b60008060008060006116d0888888610a48565b509650919450925090508282108015906116ee57506116ee81611d2f565b9450505050935093915050565b600080808061171687611711876006818b613451565b611d3a565b6000908152873560f01c6020818152604080842084526002909a013560e01c908190529890912090999198509695509350505050565b600080808061176787611762876001818b613451565b6116fb565b935093509350935093509350935093565b6040517f190100000000000000000000000000000000000000000000000000000000000060208201526000602282018190527fffffffffffffffffffffffffffffffffffffffff0000000000000000000000003060601b166042830152605682018390529060760161141b565b6000808080806004600188013560e81c8261180083836134aa565b90506118128b6104c183868d8f613451565b939b509199509750955093508787101561186a5761183281848b8d613451565b89896040517fb006aba000000000000000000000000000000000000000000000000000000000815260040161072c94939291906134bd565b8092505b888310156119545760038301928a013560e81c915061188d83836134aa565b905060006118af61189d886121d0565b8c8c879086926104c193929190613451565b939c50919a5098509091505088881015611907576118cf82858c8e613451565b8a8a6040517fb006aba000000000000000000000000000000000000000000000000000000000815260040161072c94939291906134bd565b84811061194a576040517f37daf62b000000000000000000000000000000000000000000000000000000008152600481018290526024810186905260440161072c565b935091508161186e565b505050939792965093509350565b8051606090600381901b60006005600483010467ffffffffffffffff81111561198d5761198d612e73565b6040519080825280601f01601f1916602001820160405280156119b7576020820181803683370190505b5090506000806000805b86811015611acb578881815181106119db576119db61331f565b01602001516008948501949390931b60f89390931c92909217915b60058410611ac3576040805180820190915260208082527f6162636465666768696a6b6c6d6e6f707172737475767778797a323334353637818301527ffffffffffffffffffffffffffffffffffffffffffffffffffffffffffffffffb90950194601f85871c16908110611a6c57611a6c61331f565b602001015160f81c60f81b858381518110611a8957611a8961331f565b60200101907effffffffffffffffffffffffffffffffffffffffffffffffffffffffffffff1916908160001a9053506001909101906119f6565b6001016119c1565b508215611b6f576040518060400160405280602081526020017f6162636465666768696a6b6c6d6e6f707172737475767778797a3233343536378152508360050383901b601f1681518110611b2257611b2261331f565b602001015160f81c60f81b848281518110611b3f57611b3f61331f565b60200101907effffffffffffffffffffffffffffffffffffffffffffffffffffffffffffff1916908160001a9053505b50919695505050505050565b606081604051602001611b8e91906134e4565b6040516020818303038152906040529050919050565b611bcd7f0eecac93ced8722d209199364cda3bc33da3bc3a23daef6be49ebd780511d033829055565b6040518181527f20d3ef1b5738a9f6d7beae515432206e7a8e2740ca6dcf46a952190ad01bcb5190602001610cdd565b60007f6ffbd451000000000000000000000000000000000000000000000000000000007fffffffff00000000000000000000000000000000000000000000000000000000831601611c5057506001919050565b6106de82612204565b6000806000806000611c6c888888610a48565b509650919450925090508282108015906116ee57506116ee81612345565b60006040518284823760008084838989f49695505050505050565b6000604051828482376000808483898b8af1979650505050505050565b60603d604051915060208201818101604052818352816000823e505090565b8315611cef57805160208201fd5b827fab46c69f7f32e1bf09b0725853da82a211e5402a0600296ab499a2fb5ea3b4198383604051611d21929190613529565b60405180910390a250505050565b60006106de8261237c565b60008060005b838110156121c757600181019085013560f81c7fffffffffffffffffffffffffffffffffffffffffffffffffffffffffffffffff8101611de157601582019186013560f881901c9060581c73ffffffffffffffffffffffffffffffffffffffff81169074ff000000000000000000000000000000000000000016811785611dc75780611dd6565b60008681526020829052604090205b955050505050611d40565b80611e775760018201918681013560f81c906043016000611e0d8a611e0884888c8e613451565b6123af565b60ff841697909701969194508491905060a083901b74ff00000000000000000000000000000000000000001673ffffffffffffffffffffffffffffffffffffffff82161786611e5c5780611e6b565b60008781526020829052604090205b96505050505050611d40565b60028103611f9f576000808784013560f881901c9060581c73ffffffffffffffffffffffffffffffffffffffff16601586019550909250905060008885013560e81c600386018162ffffff169150809650819250505060008186019050611ef08b848c8c8a908692611eeb93929190613451565b612672565b611f38578a83611f0283898d8f613451565b6040517f9a94623200000000000000000000000000000000000000000000000000000000815260040161072c9493929190613542565b60ff8416979097019694508460a084901b74ff00000000000000000000000000000000000000001673ffffffffffffffffffffffffffffffffffffffff84161787611f835780611f92565b60008881526020829052604090205b9750505050505050611d40565b60038103611fd257602082019186013583611fba5780611fc9565b60008481526020829052604090205b93505050611d40565b6004810361201e576003808301928781013560e81c9190820101600080611fff8b61171185898d8f613451565b60009889526020526040909720969097019650909350611d4092505050565b600681036121265760008287013560f81c60018401935060ff16905060008784013560f01c60028501945061ffff16905060008885013560e81c600386018162ffffff16915080965081925050506000818601905060008061208c8d8d8d8b90879261171193929190613451565b939850889390925090508482106120a257988501985b604080517f53657175656e6365206e657374656420636f6e6669673a0a0000000000000000602080830191909152603882018490526058820188905260788083018a90528351808403909101815260989092019092528051910120896121085780612117565b60008a81526020829052604090205b99505050505050505050611d40565b60058103612192576020820191860135878103612161577fffffffffffffffffffffffffffffffffffffffffffffffffffffffffffffffff94505b600061216c82612859565b9050846121795780612188565b60008581526020829052604090205b9450505050611d40565b6040517fb2505f7c0000000000000000000000000000000000000000000000000000000081526004810182905260240161072c565b50935093915050565b7f8713a7c4465f6fbee2b6e9d6646d1d9f83fec929edfc4baf661f3c865bdd04d160009081526020829052604081206106de565b60007fffffffff0000000000000000000000000000000000000000000000000000000082167fec6aba5000000000000000000000000000000000000000000000000000000000148061229757507fffffffff0000000000000000000000000000000000000000000000000000000082167f4e2312e000000000000000000000000000000000000000000000000000000000145b806122e357507fffffffff0000000000000000000000000000000000000000000000000000000082167f150b7a0200000000000000000000000000000000000000000000000000000000145b8061232f57507fffffffff0000000000000000000000000000000000000000000000000000000082167fc0ee0b8a00000000000000000000000000000000000000000000000000000000145b1561233c57506001919050565b6106de82612894565b600081158015906106de57507f8c8764b3a50fee69c9bee6e956047501f434fb0e2349c75844a401a7f2a020d2545b821492915050565b600081158015906106de57507fea7157fa25e3aa17d0ae2d5280fa4e24d421c61842aa85e45194e1145aa72bf854612374565b6000604282146123ef5782826040517f2ee17a3d00000000000000000000000000000000000000000000000000000000815260040161072c929190613582565b60006124086123ff600185613596565b85013560f81c90565b60ff169050604084013560f81c843560208601357f7fffffffffffffffffffffffffffffff5d576e7357a4501ddfe92f46681b20a081111561247c578686826040517fad4aac7600000000000000000000000000000000000000000000000000000000815260040161072c939291906135a9565b8260ff16601b1415801561249457508260ff16601c14155b156124d1578686846040517fe578897e00000000000000000000000000000000000000000000000000000000815260040161072c939291906135cd565b6001840361253e576040805160008152602081018083528a905260ff851691810191909152606081018390526080810182905260019060a0015b6020604051602081039080840390855afa15801561252d573d6000803e3d6000fd5b505050602060405103519450612616565b600284036125db576040517f19457468657265756d205369676e6564204d6573736167653a0a3332000000006020820152603c8101899052600190605c01604080517fffffffffffffffffffffffffffffffffffffffffffffffffffffffffffffffe08184030181528282528051602091820120600084529083018083525260ff861690820152606081018490526080810183905260a00161250b565b86868560016040517f9dfba85200000000000000000000000000000000000000000000000000000000815260040161072c94939291906135f4565b73ffffffffffffffffffffffffffffffffffffffff85166126675786866040517f6c1719d200000000000000000000000000000000000000000000000000000000815260040161072c929190613582565b505050509392505050565b60008181036126ad576040517fac241e1100000000000000000000000000000000000000000000000000000000815260040160405180910390fd5b600083836126bc600182613596565b8181106126cb576126cb61331f565b919091013560f81c91505060018114806126e55750600281145b1561272a578473ffffffffffffffffffffffffffffffffffffffff1661270c8786866123af565b73ffffffffffffffffffffffffffffffffffffffff16149150612850565b600381036128155773ffffffffffffffffffffffffffffffffffffffff8516631626ba7e878660008761275e600182613596565b9261276b93929190613451565b6040518463ffffffff1660e01b815260040161278993929190613305565b602060405180830381865afa1580156127a6573d6000803e3d6000fd5b505050506040513d601f19601f820116820180604052508101906127ca9190613620565b7fffffffff00000000000000000000000000000000000000000000000000000000167f1626ba7e00000000000000000000000000000000000000000000000000000000149150612850565b83838260006040517f9dfba85200000000000000000000000000000000000000000000000000000000815260040161072c94939291906135f4565b50949350505050565b6040517f53657175656e636520737461746963206469676573743a0a000000000000000060208201526038810182905260009060580161141b565b60007ffda4dd44000000000000000000000000000000000000000000000000000000007fffffffff000000000000000000000000000000000000000000000000000000008316016128e757506001919050565b6106de8260007fe4a77bbc000000000000000000000000000000000000000000000000000000007fffffffff0000000000000000000000000000000000000000000000000000000083160161293e57506001919050565b6106de8260007fda44f878000000000000000000000000000000000000000000000000000000007fffffffff0000000000000000000000000000000000000000000000000000000083160161299557506001919050565b6106de8260007fae9fa280000000000000000000000000000000000000000000000000000000007fffffffff000000000000000000000000000000000000000000000000000000008316016129ec57506001919050565b6106de8260007fffffffff0000000000000000000000000000000000000000000000000000000082167fac6a444e000000000000000000000000000000000000000000000000000000001480612a8357507fffffffff0000000000000000000000000000000000000000000000000000000082167f36e7817500000000000000000000000000000000000000000000000000000000145b15612a9057506001919050565b7f01ffc9a7000000000000000000000000000000000000000000000000000000007fffffffff000000000000000000000000000000000000000000000000000000008316146106de565b8183823760009101908152919050565b7fffffffff000000000000000000000000000000000000000000000000000000008116811461073e57600080fd5b600060208284031215612b2a57600080fd5b813561075181612aea565b803573ffffffffffffffffffffffffffffffffffffffff81168114612b5957600080fd5b919050565b600060208284031215612b7057600080fd5b61075182612b35565b60008083601f840112612b8b57600080fd5b50813567ffffffffffffffff811115612ba357600080fd5b602083019150836020828501011115612bbb57600080fd5b9250929050565b600080600080600060808688031215612bda57600080fd5b612be386612b35565b9450612bf160208701612b35565b935060408601359250606086013567ffffffffffffffff811115612c1457600080fd5b612c2088828901612b79565b969995985093965092949392505050565b600080600060408486031215612c4657600080fd5b83359250602084013567ffffffffffffffff811115612c6457600080fd5b612c7086828701612b79565b9497909650939450505050565b60008060008060408587031215612c9357600080fd5b843567ffffffffffffffff80821115612cab57600080fd5b612cb788838901612b79565b90965094506020870135915080821115612cd057600080fd5b50612cdd87828801612b79565b95989497509550505050565b600060208284031215612cfb57600080fd5b5035919050565b60008083601f840112612d1457600080fd5b50813567ffffffffffffffff811115612d2c57600080fd5b6020830191508360208260051b8501011115612bbb57600080fd5b60008060208385031215612d5a57600080fd5b823567ffffffffffffffff811115612d7157600080fd5b612d7d85828601612d02565b90969095509350505050565b600080600080600060608688031215612da157600080fd5b853567ffffffffffffffff80821115612db957600080fd5b612dc589838a01612d02565b9097509550602088013594506040880135915080821115612de557600080fd5b50612c2088828901612b79565b60005b83811015612e0d578181015183820152602001612df5565b50506000910152565b60008151808452612e2e816020860160208601612df2565b601f017fffffffffffffffffffffffffffffffffffffffffffffffffffffffffffffffe0169290920160200192915050565b6020815260006107516020830184612e16565b7f4e487b7100000000000000000000000000000000000000000000000000000000600052604160045260246000fd5b600060208284031215612eb457600080fd5b813567ffffffffffffffff80821115612ecc57600080fd5b818401915084601f830112612ee057600080fd5b813581811115612ef257612ef2612e73565b604051601f82017fffffffffffffffffffffffffffffffffffffffffffffffffffffffffffffffe0908116603f01168101908382118183101715612f3857612f38612e73565b81604052828152876020848701011115612f5157600080fd5b826020860160208301376000928101602001929092525095945050505050565b60008060408385031215612f8457600080fd5b8235612f8f81612aea565b9150612f9d60208401612b35565b90509250929050565b60008060008060008060008060a0898b031215612fc257600080fd5b612fcb89612b35565b9750612fd960208a01612b35565b9650604089013567ffffffffffffffff80821115612ff657600080fd5b6130028c838d01612d02565b909850965060608b013591508082111561301b57600080fd5b6130278c838d01612d02565b909650945060808b013591508082111561304057600080fd5b5061304d8b828c01612b79565b999c989b5096995094979396929594505050565b6000806040838503121561307457600080fd5b50508035926020909101359150565b60008060008060008060a0878903121561309c57600080fd5b6130a587612b35565b95506130b360208801612b35565b94506040870135935060608701359250608087013567ffffffffffffffff8111156130dd57600080fd5b6130e989828a01612b79565b979a9699509497509295939492505050565b80358015158114612b5957600080fd5b8183528181602085013750600060208284010152600060207fffffffffffffffffffffffffffffffffffffffffffffffffffffffffffffffe0601f840116840101905092915050565b81835260006020808501808196508560051b810191508460005b8781101561329657828403895281357fffffffffffffffffffffffffffffffffffffffffffffffffffffffffffffff418836030181126131ad57600080fd5b870160c06131ba826130fb565b151586526131c98783016130fb565b15158688015260408281013590870152606073ffffffffffffffffffffffffffffffffffffffff6131fb828501612b35565b16908701526080828101359087015260a080830135368490037fffffffffffffffffffffffffffffffffffffffffffffffffffffffffffffffe101811261324157600080fd5b90920187810192903567ffffffffffffffff81111561325f57600080fd5b80360384131561326e57600080fd5b8282890152613280838901828661310b565b9c89019c9750505092860192505060010161316e565b5091979650505050505050565b60408152600560408201527f73656c663a000000000000000000000000000000000000000000000000000000606082015260806020820152600061074e608083018486613154565b838152604060208201526000610771604083018486613154565b83815260406020820152600061077160408301848661310b565b7f4e487b7100000000000000000000000000000000000000000000000000000000600052603260045260246000fd5b7f697066733a2f2f00000000000000000000000000000000000000000000000000815260008251613386816007850160208701612df2565b9190910160070192915050565b600082357fffffffffffffffffffffffffffffffffffffffffffffffffffffffffffffff418336030181126133c757600080fd5b9190910192915050565b6000602082840312156133e357600080fd5b610751826130fb565b60008083357fffffffffffffffffffffffffffffffffffffffffffffffffffffffffffffffe184360301811261342157600080fd5b83018035915067ffffffffffffffff82111561343c57600080fd5b602001915036819003821315612bbb57600080fd5b6000808585111561346157600080fd5b8386111561346e57600080fd5b5050820193919092039150565b7f4e487b7100000000000000000000000000000000000000000000000000000000600052601160045260246000fd5b808201808211156106de576106de61347b565b6060815260006134d160608301868861310b565b6020830194909452506040015292915050565b7f620000000000000000000000000000000000000000000000000000000000000081526000825161351c816001850160208701612df2565b9190910160010192915050565b82815260406020820152600061074e6040830184612e16565b84815273ffffffffffffffffffffffffffffffffffffffff8416602082015260606040820152600061357860608301848661310b565b9695505050505050565b60208152600061074e60208301848661310b565b818103818111156106de576106de61347b565b6040815260006135bd60408301858761310b565b9050826020830152949350505050565b6040815260006135e160408301858761310b565b905060ff83166020830152949350505050565b60608152600061360860608301868861310b565b60208301949094525090151560409091015292915050565b60006020828403121561363257600080fd5b815161075181612aea56fea26469706673582212209ea1f29a81ef04f0d1c452da3db48e1d4423c64089333bd5bf9b44b4cb4b18cf64736f6c63430008120033",
					"opcodes": "PUSH1 0xA0 PUSH1 0x40 MSTORE CALLVALUE DUP1 ISZERO PUSH2 0x10 JUMPI PUSH1 0x0 DUP1 REVERT JUMPDEST POP ADDRESS PUSH1 0x80 MSTORE PUSH1 0x80 MLOAD PUSH2 0x3673 PUSH2 0x30 PUSH1 0x0 CODECOPY PUSH1 0x0 PUSH2 0x95A ADD MSTORE PUSH2 0x3673 PUSH1 0x0 RETURN INVALID PUSH1 0x80 PUSH1 0x40 MSTORE PUSH1 0x4 CALLDATASIZE LT PUSH2 0x19A JUMPI PUSH1 0x0 CALLDATALOAD PUSH1 0xE0 SHR DUP1 PUSH4 0x853C5068 GT PUSH2 0xE1 JUMPI DUP1 PUSH4 0xA38CEF19 GT PUSH2 0x8A JUMPI DUP1 PUSH4 0xBC197C81 GT PUSH2 0x64 JUMPI DUP1 PUSH4 0xBC197C81 EQ PUSH2 0x5CD JUMPI DUP1 PUSH4 0xC71F1F96 EQ PUSH2 0x615 JUMPI DUP1 PUSH4 0xD0748F71 EQ PUSH2 0x62A JUMPI DUP1 PUSH4 0xF23A6E61 EQ PUSH2 0x64A JUMPI PUSH2 0x1A1 JUMP JUMPDEST DUP1 PUSH4 0xA38CEF19 EQ PUSH2 0x578 JUMPI DUP1 PUSH4 0xAFFED0E0 EQ PUSH2 0x598 JUMPI DUP1 PUSH4 0xB93EA7AD EQ PUSH2 0x5AD JUMPI PUSH2 0x1A1 JUMP JUMPDEST DUP1 PUSH4 0x8EFA6441 GT PUSH2 0xBB JUMPI DUP1 PUSH4 0x8EFA6441 EQ PUSH2 0x52E JUMPI DUP1 PUSH4 0x90042BAF EQ PUSH2 0x550 JUMPI DUP1 PUSH4 0x9BD58B16 EQ PUSH2 0x563 JUMPI PUSH2 0x1A1 JUMP JUMPDEST DUP1 PUSH4 0x853C5068 EQ PUSH2 0x4A6 JUMPI DUP1 PUSH4 0x8976C44C EQ PUSH2 0x4EE JUMPI DUP1 PUSH4 0x8C3F5563 EQ PUSH2 0x50E JUMPI PUSH2 0x1A1 JUMP JUMPDEST DUP1 PUSH4 0x29561426 GT PUSH2 0x143 JUMPI DUP1 PUSH4 0x57C56D6B GT PUSH2 0x11D JUMPI DUP1 PUSH4 0x57C56D6B EQ PUSH2 0x432 JUMPI DUP1 PUSH4 0x61C2926C EQ PUSH2 0x466 JUMPI DUP1 PUSH4 0x7A9A1628 EQ PUSH2 0x486 JUMPI PUSH2 0x1A1 JUMP JUMPDEST DUP1 PUSH4 0x29561426 EQ PUSH2 0x3CF JUMPI DUP1 PUSH4 0x4FCF3ECA EQ PUSH2 0x3EF JUMPI DUP1 PUSH4 0x51605D80 EQ PUSH2 0x40F JUMPI PUSH2 0x1A1 JUMP JUMPDEST DUP1 PUSH4 0x1626BA7E GT PUSH2 0x174 JUMPI DUP1 PUSH4 0x1626BA7E EQ PUSH2 0x34A JUMPI DUP1 PUSH4 0x1A9B2337 EQ PUSH2 0x36A JUMPI DUP1 PUSH4 0x20C13B0B EQ PUSH2 0x3AF JUMPI PUSH2 0x1A1 JUMP JUMPDEST DUP1 PUSH4 0x1FFC9A7 EQ PUSH2 0x27F JUMPI DUP1 PUSH4 0x25B22BC EQ PUSH2 0x2B4 JUMPI DUP1 PUSH4 0x150B7A02 EQ PUSH2 0x2D4 JUMPI PUSH2 0x1A1 JUMP JUMPDEST CALLDATASIZE PUSH2 0x1A1 JUMPI STOP JUMPDEST PUSH1 0x4 CALLDATASIZE LT PUSH2 0x27D JUMPI PUSH1 0x0 PUSH2 0x1D8 PUSH1 0x0 CALLDATALOAD PUSH32 0xFFFFFFFF00000000000000000000000000000000000000000000000000000000 AND PUSH2 0x690 JUMP JUMPDEST SWAP1 POP PUSH20 0xFFFFFFFFFFFFFFFFFFFFFFFFFFFFFFFFFFFFFFFF DUP2 AND ISZERO PUSH2 0x27B JUMPI PUSH1 0x0 DUP1 DUP3 PUSH20 0xFFFFFFFFFFFFFFFFFFFFFFFFFFFFFFFFFFFFFFFF AND PUSH1 0x0 CALLDATASIZE PUSH1 0x40 MLOAD PUSH2 0x221 SWAP3 SWAP2 SWAP1 PUSH2 0x2ADA JUMP JUMPDEST PUSH1 0x0 PUSH1 0x40 MLOAD DUP1 DUP4 SUB DUP2 DUP6 GAS DELEGATECALL SWAP2 POP POP RETURNDATASIZE DUP1 PUSH1 0x0 DUP2 EQ PUSH2 0x25C JUMPI PUSH1 0x40 MLOAD SWAP2 POP PUSH1 0x1F NOT PUSH1 0x3F RETURNDATASIZE ADD AND DUP3 ADD PUSH1 0x40 MSTORE RETURNDATASIZE DUP3 MSTORE RETURNDATASIZE PUSH1 0x0 PUSH1 0x20 DUP5 ADD RETURNDATACOPY PUSH2 0x261 JUMP JUMPDEST PUSH1 0x60 SWAP2 POP JUMPDEST POP SWAP2 POP SWAP2 POP DUP2 PUSH2 0x273 JUMPI DUP1 MLOAD PUSH1 0x20 DUP3 ADD REVERT JUMPDEST DUP1 MLOAD PUSH1 0x20 DUP3 ADD RETURN JUMPDEST POP JUMPDEST STOP JUMPDEST CALLVALUE DUP1 ISZERO PUSH2 0x28B JUMPI PUSH1 0x0 DUP1 REVERT JUMPDEST POP PUSH2 0x29F PUSH2 0x29A CALLDATASIZE PUSH1 0x4 PUSH2 0x2B18 JUMP JUMPDEST PUSH2 0x6E4 JUMP JUMPDEST PUSH1 0x40 MLOAD SWAP1 ISZERO ISZERO DUP2 MSTORE PUSH1 0x20 ADD JUMPDEST PUSH1 0x40 MLOAD DUP1 SWAP2 SUB SWAP1 RETURN JUMPDEST CALLVALUE DUP1 ISZERO PUSH2 0x2C0 JUMPI PUSH1 0x0 DUP1 REVERT JUMPDEST POP PUSH2 0x27D PUSH2 0x2CF CALLDATASIZE PUSH1 0x4 PUSH2 0x2B5E JUMP JUMPDEST PUSH2 0x6EF JUMP JUMPDEST CALLVALUE DUP1 ISZERO PUSH2 0x2E0 JUMPI PUSH1 0x0 DUP1 REVERT JUMPDEST POP PUSH2 0x319 PUSH2 0x2EF CALLDATASIZE PUSH1 0x4 PUSH2 0x2BC2 JUMP JUMPDEST PUSH32 0x150B7A0200000000000000000000000000000000000000000000000000000000 SWAP6 SWAP5 POP POP POP POP POP JUMP JUMPDEST PUSH1 0x40 MLOAD PUSH32 0xFFFFFFFF00000000000000000000000000000000000000000000000000000000 SWAP1 SWAP2 AND DUP2 MSTORE PUSH1 0x20 ADD PUSH2 0x2AB JUMP JUMPDEST CALLVALUE DUP1 ISZERO PUSH2 0x356 JUMPI PUSH1 0x0 DUP1 REVERT JUMPDEST POP PUSH2 0x319 PUSH2 0x365 CALLDATASIZE PUSH1 0x4 PUSH2 0x2C31 JUMP JUMPDEST PUSH2 0x741 JUMP JUMPDEST CALLVALUE DUP1 ISZERO PUSH2 0x376 JUMPI PUSH1 0x0 DUP1 REVERT JUMPDEST POP PUSH2 0x38A PUSH2 0x385 CALLDATASIZE PUSH1 0x4 PUSH2 0x2B18 JUMP JUMPDEST PUSH2 0x758 JUMP JUMPDEST PUSH1 0x40 MLOAD PUSH20 0xFFFFFFFFFFFFFFFFFFFFFFFFFFFFFFFFFFFFFFFF SWAP1 SWAP2 AND DUP2 MSTORE PUSH1 0x20 ADD PUSH2 0x2AB JUMP JUMPDEST CALLVALUE DUP1 ISZERO PUSH2 0x3BB JUMPI PUSH1 0x0 DUP1 REVERT JUMPDEST POP PUSH2 0x319 PUSH2 0x3CA CALLDATASIZE PUSH1 0x4 PUSH2 0x2C7D JUMP JUMPDEST PUSH2 0x763 JUMP JUMPDEST CALLVALUE DUP1 ISZERO PUSH2 0x3DB JUMPI PUSH1 0x0 DUP1 REVERT JUMPDEST POP PUSH2 0x27D PUSH2 0x3EA CALLDATASIZE PUSH1 0x4 PUSH2 0x2CE9 JUMP JUMPDEST PUSH2 0x77C JUMP JUMPDEST CALLVALUE DUP1 ISZERO PUSH2 0x3FB JUMPI PUSH1 0x0 DUP1 REVERT JUMPDEST POP PUSH2 0x27D PUSH2 0x40A CALLDATASIZE PUSH1 0x4 PUSH2 0x2B18 JUMP JUMPDEST PUSH2 0x7C6 JUMP JUMPDEST CALLVALUE DUP1 ISZERO PUSH2 0x41B JUMPI PUSH1 0x0 DUP1 REVERT JUMPDEST POP PUSH2 0x424 PUSH2 0x88E JUMP JUMPDEST PUSH1 0x40 MLOAD SWAP1 DUP2 MSTORE PUSH1 0x20 ADD PUSH2 0x2AB JUMP JUMPDEST CALLVALUE DUP1 ISZERO PUSH2 0x43E JUMPI PUSH1 0x0 DUP1 REVERT JUMPDEST POP PUSH2 0x424 PUSH32 0x8713A7C4465F6FBEE2B6E9D6646D1D9F83FEC929EDFC4BAF661F3C865BDD04D1 DUP2 JUMP JUMPDEST CALLVALUE DUP1 ISZERO PUSH2 0x472 JUMPI PUSH1 0x0 DUP1 REVERT JUMPDEST POP PUSH2 0x27D PUSH2 0x481 CALLDATASIZE PUSH1 0x4 PUSH2 0x2D47 JUMP JUMPDEST PUSH2 0x8BD JUMP JUMPDEST CALLVALUE DUP1 ISZERO PUSH2 0x492 JUMPI PUSH1 0x0 DUP1 REVERT JUMPDEST POP PUSH2 0x27D PUSH2 0x4A1 CALLDATASIZE PUSH1 0x4 PUSH2 0x2D89 JUMP JUMPDEST PUSH2 0x943 JUMP JUMPDEST CALLVALUE DUP1 ISZERO PUSH2 0x4B2 JUMPI PUSH1 0x0 DUP1 REVERT JUMPDEST POP PUSH2 0x4C6 PUSH2 0x4C1 CALLDATASIZE PUSH1 0x4 PUSH2 0x2C31 JUMP JUMPDEST PUSH2 0xA48 JUMP JUMPDEST PUSH1 0x40 DUP1 MLOAD SWAP6 DUP7 MSTORE PUSH1 0x20 DUP7 ADD SWAP5 SWAP1 SWAP5 MSTORE SWAP3 DUP5 ADD SWAP2 SWAP1 SWAP2 MSTORE PUSH1 0x60 DUP4 ADD MSTORE PUSH1 0x80 DUP3 ADD MSTORE PUSH1 0xA0 ADD PUSH2 0x2AB JUMP JUMPDEST CALLVALUE DUP1 ISZERO PUSH2 0x4FA JUMPI PUSH1 0x0 DUP1 REVERT JUMPDEST POP PUSH2 0x27D PUSH2 0x509 CALLDATASIZE PUSH1 0x4 PUSH2 0x2CE9 JUMP JUMPDEST PUSH2 0xC10 JUMP JUMPDEST CALLVALUE DUP1 ISZERO PUSH2 0x51A JUMPI PUSH1 0x0 DUP1 REVERT JUMPDEST POP PUSH2 0x424 PUSH2 0x529 CALLDATASIZE PUSH1 0x4 PUSH2 0x2CE9 JUMP JUMPDEST PUSH2 0xCE8 JUMP JUMPDEST CALLVALUE DUP1 ISZERO PUSH2 0x53A JUMPI PUSH1 0x0 DUP1 REVERT JUMPDEST POP PUSH2 0x543 PUSH2 0xD14 JUMP JUMPDEST PUSH1 0x40 MLOAD PUSH2 0x2AB SWAP2 SWAP1 PUSH2 0x2E60 JUMP JUMPDEST PUSH2 0x38A PUSH2 0x55E CALLDATASIZE PUSH1 0x4 PUSH2 0x2EA2 JUMP JUMPDEST PUSH2 0xD95 JUMP JUMPDEST CALLVALUE DUP1 ISZERO PUSH2 0x56F JUMPI PUSH1 0x0 DUP1 REVERT JUMPDEST POP PUSH2 0x424 PUSH2 0xE7F JUMP JUMPDEST CALLVALUE DUP1 ISZERO PUSH2 0x584 JUMPI PUSH1 0x0 DUP1 REVERT JUMPDEST POP PUSH2 0x27D PUSH2 0x593 CALLDATASIZE PUSH1 0x4 PUSH2 0x2CE9 JUMP JUMPDEST PUSH2 0xEA9 JUMP JUMPDEST CALLVALUE DUP1 ISZERO PUSH2 0x5A4 JUMPI PUSH1 0x0 DUP1 REVERT JUMPDEST POP PUSH2 0x424 PUSH2 0xEF3 JUMP JUMPDEST CALLVALUE DUP1 ISZERO PUSH2 0x5B9 JUMPI PUSH1 0x0 DUP1 REVERT JUMPDEST POP PUSH2 0x27D PUSH2 0x5C8 CALLDATASIZE PUSH1 0x4 PUSH2 0x2F71 JUMP JUMPDEST PUSH2 0xEFF JUMP JUMPDEST CALLVALUE DUP1 ISZERO PUSH2 0x5D9 JUMPI PUSH1 0x0 DUP1 REVERT JUMPDEST POP PUSH2 0x319 PUSH2 0x5E8 CALLDATASIZE PUSH1 0x4 PUSH2 0x2FA6 JUMP JUMPDEST PUSH32 0xBC197C8100000000000000000000000000000000000000000000000000000000 SWAP9 SWAP8 POP POP POP POP POP POP POP POP JUMP JUMPDEST CALLVALUE DUP1 ISZERO PUSH2 0x621 JUMPI PUSH1 0x0 DUP1 REVERT JUMPDEST POP PUSH2 0x424 PUSH2 0xFCA JUMP JUMPDEST CALLVALUE DUP1 ISZERO PUSH2 0x636 JUMPI PUSH1 0x0 DUP1 REVERT JUMPDEST POP PUSH2 0x27D PUSH2 0x645 CALLDATASIZE PUSH1 0x4 PUSH2 0x3061 JUMP JUMPDEST PUSH2 0xFF4 JUMP JUMPDEST CALLVALUE DUP1 ISZERO PUSH2 0x656 JUMPI PUSH1 0x0 DUP1 REVERT JUMPDEST POP PUSH2 0x319 PUSH2 0x665 CALLDATASIZE PUSH1 0x4 PUSH2 0x3083 JUMP JUMPDEST PUSH32 0xF23A6E6100000000000000000000000000000000000000000000000000000000 SWAP7 SWAP6 POP POP POP POP POP POP JUMP JUMPDEST PUSH1 0x0 PUSH2 0x6DE PUSH32 0xBE27A319EFC8734E89E26BA4BC95F5C788584163B959F03FA04E2D7AB4B9A120 PUSH32 0xFFFFFFFF00000000000000000000000000000000000000000000000000000000 DUP5 AND PUSH2 0x1047 JUMP JUMPDEST SWAP3 SWAP2 POP POP JUMP JUMPDEST PUSH1 0x0 PUSH2 0x6DE DUP3 PUSH2 0x10A5 JUMP JUMPDEST CALLER ADDRESS EQ PUSH2 0x735 JUMPI PUSH1 0x40 MLOAD PUSH32 0xE125889400000000000000000000000000000000000000000000000000000000 DUP2 MSTORE CALLER PUSH1 0x4 DUP3 ADD MSTORE ADDRESS PUSH1 0x24 DUP3 ADD MSTORE PUSH1 0x44 ADD JUMPDEST PUSH1 0x40 MLOAD DUP1 SWAP2 SUB SWAP1 REVERT JUMPDEST PUSH2 0x73E DUP2 PUSH2 0x1101 JUMP JUMPDEST POP JUMP JUMPDEST PUSH1 0x0 PUSH2 0x74E DUP5 DUP5 DUP5 PUSH2 0x11B5 JUMP JUMPDEST SWAP1 POP JUMPDEST SWAP4 SWAP3 POP POP POP JUMP JUMPDEST PUSH1 0x0 PUSH2 0x6DE DUP3 PUSH2 0x690 JUMP JUMPDEST PUSH1 0x0 PUSH2 0x771 DUP6 DUP6 DUP6 DUP6 PUSH2 0x1200 JUMP JUMPDEST SWAP1 POP JUMPDEST SWAP5 SWAP4 POP POP POP POP JUMP JUMPDEST CALLER ADDRESS EQ PUSH2 0x7BD JUMPI PUSH1 0x40 MLOAD PUSH32 0xE125889400000000000000000000000000000000000000000000000000000000 DUP2 MSTORE CALLER PUSH1 0x4 DUP3 ADD MSTORE ADDRESS PUSH1 0x24 DUP3 ADD MSTORE PUSH1 0x44 ADD PUSH2 0x72C JUMP JUMPDEST PUSH2 0x73E DUP2 PUSH2 0x1263 JUMP JUMPDEST CALLER ADDRESS EQ PUSH2 0x807 JUMPI PUSH1 0x40 MLOAD PUSH32 0xE125889400000000000000000000000000000000000000000000000000000000 DUP2 MSTORE CALLER PUSH1 0x4 DUP3 ADD MSTORE ADDRESS PUSH1 0x24 DUP3 ADD MSTORE PUSH1 0x44 ADD PUSH2 0x72C JUMP JUMPDEST PUSH1 0x0 PUSH2 0x812 DUP3 PUSH2 0x690 JUMP JUMPDEST PUSH20 0xFFFFFFFFFFFFFFFFFFFFFFFFFFFFFFFFFFFFFFFF AND SUB PUSH2 0x883 JUMPI PUSH1 0x40 MLOAD PUSH32 0x1C3812CC00000000000000000000000000000000000000000000000000000000 DUP2 MSTORE PUSH32 0xFFFFFFFF00000000000000000000000000000000000000000000000000000000 DUP3 AND PUSH1 0x4 DUP3 ADD MSTORE PUSH1 0x24 ADD PUSH2 0x72C JUMP JUMPDEST PUSH2 0x73E DUP2 PUSH1 0x0 PUSH2 0x12F3 JUMP JUMPDEST PUSH1 0x0 PUSH2 0x8B8 PUSH32 0xEA7157FA25E3AA17D0AE2D5280FA4E24D421C61842AA85E45194E1145AA72BF8 SLOAD SWAP1 JUMP JUMPDEST SWAP1 POP SWAP1 JUMP JUMPDEST CALLER ADDRESS EQ PUSH2 0x8FE JUMPI PUSH1 0x40 MLOAD PUSH32 0xE125889400000000000000000000000000000000000000000000000000000000 DUP2 MSTORE CALLER PUSH1 0x4 DUP3 ADD MSTORE ADDRESS PUSH1 0x24 DUP3 ADD MSTORE PUSH1 0x44 ADD PUSH2 0x72C JUMP JUMPDEST PUSH1 0x0 PUSH2 0x931 DUP4 DUP4 PUSH1 0x40 MLOAD PUSH1 0x20 ADD PUSH2 0x916 SWAP3 SWAP2 SWAP1 PUSH2 0x32A3 JUMP JUMPDEST PUSH1 0x40 MLOAD PUSH1 0x20 DUP2 DUP4 SUB SUB DUP2 MSTORE SWAP1 PUSH1 0x40 MSTORE DUP1 MLOAD SWAP1 PUSH1 0x20 ADD KECCAK256 PUSH2 0x13B3 JUMP JUMPDEST SWAP1 POP PUSH2 0x93E DUP2 DUP5 DUP5 PUSH2 0x1438 JUMP JUMPDEST POP POP POP JUMP JUMPDEST PUSH20 0xFFFFFFFFFFFFFFFFFFFFFFFFFFFFFFFFFFFFFFFF PUSH32 0x0 AND ADDRESS SUB PUSH2 0x9B2 JUMPI PUSH1 0x40 MLOAD PUSH32 0xA57D61D00000000000000000000000000000000000000000000000000000000 DUP2 MSTORE PUSH1 0x4 ADD PUSH1 0x40 MLOAD DUP1 SWAP2 SUB SWAP1 REVERT JUMPDEST PUSH2 0x9BB DUP4 PUSH2 0x15C0 JUMP JUMPDEST PUSH1 0x0 DUP1 PUSH2 0x9F3 DUP6 DUP9 DUP9 PUSH1 0x40 MLOAD PUSH1 0x20 ADD PUSH2 0x9D6 SWAP4 SWAP3 SWAP2 SWAP1 PUSH2 0x32EB JUMP JUMPDEST PUSH1 0x40 MLOAD PUSH1 0x20 DUP2 DUP4 SUB SUB DUP2 MSTORE SWAP1 PUSH1 0x40 MSTORE DUP1 MLOAD SWAP1 PUSH1 0x20 ADD KECCAK256 DUP6 DUP6 PUSH2 0x16BD JUMP JUMPDEST SWAP2 POP SWAP2 POP DUP2 PUSH2 0xA34 JUMPI DUP1 DUP5 DUP5 PUSH1 0x40 MLOAD PUSH32 0x8F4A234F00000000000000000000000000000000000000000000000000000000 DUP2 MSTORE PUSH1 0x4 ADD PUSH2 0x72C SWAP4 SWAP3 SWAP2 SWAP1 PUSH2 0x3305 JUMP JUMPDEST PUSH2 0xA3F DUP2 DUP9 DUP9 PUSH2 0x1438 JUMP JUMPDEST POP POP POP POP POP POP POP JUMP JUMPDEST PUSH1 0x0 DUP1 PUSH1 0x0 DUP1 PUSH1 0x0 DUP1 DUP8 DUP8 PUSH1 0x0 DUP2 DUP2 LT PUSH2 0xA64 JUMPI PUSH2 0xA64 PUSH2 0x331F JUMP JUMPDEST SWAP1 SWAP2 ADD CALLDATALOAD PUSH32 0xFF00000000000000000000000000000000000000000000000000000000000000 AND SWAP2 POP DUP2 SWAP1 POP PUSH2 0xABA JUMPI PUSH2 0xA9C DUP10 PUSH2 0x13B3 JUMP JUMPDEST SWAP3 POP PUSH2 0xAA9 DUP4 DUP10 DUP10 PUSH2 0x16FB JUMP JUMPDEST SWAP3 SWAP9 POP SWAP1 SWAP7 POP SWAP5 POP SWAP2 POP PUSH2 0xC05 SWAP1 POP JUMP JUMPDEST PUSH32 0xFF00000000000000000000000000000000000000000000000000000000000000 DUP2 DUP2 AND ADD PUSH2 0xAF9 JUMPI PUSH2 0xAEC DUP10 PUSH2 0x13B3 JUMP JUMPDEST SWAP3 POP PUSH2 0xAA9 DUP4 DUP10 DUP10 PUSH2 0x174C JUMP JUMPDEST PUSH32 0xFE00000000000000000000000000000000000000000000000000000000000000 PUSH32 0xFF00000000000000000000000000000000000000000000000000000000000000 DUP3 AND ADD PUSH2 0xB4B JUMPI PUSH2 0xAEC DUP10 PUSH2 0x1778 JUMP JUMPDEST PUSH32 0xFD00000000000000000000000000000000000000000000000000000000000000 PUSH32 0xFF00000000000000000000000000000000000000000000000000000000000000 DUP3 AND ADD PUSH2 0xBAF JUMPI PUSH2 0xB9F DUP10 DUP10 DUP10 PUSH2 0x17E5 JUMP JUMPDEST SWAP6 POP SWAP6 POP SWAP6 POP SWAP6 POP SWAP6 POP POP PUSH2 0xC05 JUMP JUMPDEST PUSH1 0x40 MLOAD PUSH32 0x6085CD8200000000000000000000000000000000000000000000000000000000 DUP2 MSTORE PUSH32 0xFF00000000000000000000000000000000000000000000000000000000000000 DUP3 AND PUSH1 0x4 DUP3 ADD MSTORE PUSH1 0x24 ADD PUSH2 0x72C JUMP JUMPDEST SWAP4 SWAP8 SWAP3 SWAP7 POP SWAP4 POP SWAP4 POP JUMP JUMPDEST CALLER ADDRESS EQ PUSH2 0xC51 JUMPI PUSH1 0x40 MLOAD PUSH32 0xE125889400000000000000000000000000000000000000000000000000000000 DUP2 MSTORE CALLER PUSH1 0x4 DUP3 ADD MSTORE ADDRESS PUSH1 0x24 DUP3 ADD MSTORE PUSH1 0x44 ADD PUSH2 0x72C JUMP JUMPDEST DUP1 PUSH2 0xC88 JUMPI PUSH1 0x40 MLOAD PUSH32 0xB24B5B3A00000000000000000000000000000000000000000000000000000000 DUP2 MSTORE PUSH1 0x4 ADD PUSH1 0x40 MLOAD DUP1 SWAP2 SUB SWAP1 REVERT JUMPDEST PUSH2 0xCB1 PUSH32 0x8C8764B3A50FEE69C9BEE6E956047501F434FB0E2349C75844A401A7F2A020D2 DUP3 SWAP1 SSTORE JUMP JUMPDEST PUSH1 0x40 MLOAD DUP2 DUP2 MSTORE PUSH32 0x1F63199319EFF813052575C41087F618ABA07B006664FED6C01F7EE9C5716835 SWAP1 PUSH1 0x20 ADD JUMPDEST PUSH1 0x40 MLOAD DUP1 SWAP2 SUB SWAP1 LOG1 POP JUMP JUMPDEST PUSH1 0x0 PUSH2 0x6DE PUSH32 0x8D0BF1FD623D628C741362C1289948E57B3E2905218C676D3E69ABEE36D6AE2E DUP4 PUSH2 0x1047 JUMP JUMPDEST PUSH1 0x60 PUSH2 0xD71 PUSH2 0xD6C PUSH2 0xD24 PUSH2 0xFCA JUMP JUMPDEST PUSH1 0x40 MLOAD PUSH32 0x170122000000000000000000000000000000000000000000000000000000000 PUSH1 0x20 DUP3 ADD MSTORE PUSH1 0x24 DUP2 ADD SWAP2 SWAP1 SWAP2 MSTORE PUSH1 0x44 ADD PUSH1 0x40 MLOAD PUSH1 0x20 DUP2 DUP4 SUB SUB DUP2 MSTORE SWAP1 PUSH1 0x40 MSTORE PUSH2 0x1962 JUMP JUMPDEST PUSH2 0x1B7B JUMP JUMPDEST PUSH1 0x40 MLOAD PUSH1 0x20 ADD PUSH2 0xD81 SWAP2 SWAP1 PUSH2 0x334E JUMP JUMPDEST PUSH1 0x40 MLOAD PUSH1 0x20 DUP2 DUP4 SUB SUB DUP2 MSTORE SWAP1 PUSH1 0x40 MSTORE SWAP1 POP SWAP1 JUMP JUMPDEST PUSH1 0x0 CALLER ADDRESS EQ PUSH2 0xDD8 JUMPI PUSH1 0x40 MLOAD PUSH32 0xE125889400000000000000000000000000000000000000000000000000000000 DUP2 MSTORE CALLER PUSH1 0x4 DUP3 ADD MSTORE ADDRESS PUSH1 0x24 DUP3 ADD MSTORE PUSH1 0x44 ADD PUSH2 0x72C JUMP JUMPDEST DUP2 MLOAD PUSH1 0x20 DUP4 ADD CALLVALUE CREATE SWAP1 POP PUSH20 0xFFFFFFFFFFFFFFFFFFFFFFFFFFFFFFFFFFFFFFFF DUP2 AND PUSH2 0xE31 JUMPI DUP2 PUSH1 0x40 MLOAD PUSH32 0xD25719100000000000000000000000000000000000000000000000000000000 DUP2 MSTORE PUSH1 0x4 ADD PUSH2 0x72C SWAP2 SWAP1 PUSH2 0x2E60 JUMP JUMPDEST PUSH1 0x40 MLOAD PUSH20 0xFFFFFFFFFFFFFFFFFFFFFFFFFFFFFFFFFFFFFFFF DUP3 AND DUP2 MSTORE PUSH32 0xA506AD4E7F05ECEBA62A023C3219E5BD98A615F4FA87E2AFB08A2DA5CF62BF0C SWAP1 PUSH1 0x20 ADD PUSH1 0x40 MLOAD DUP1 SWAP2 SUB SWAP1 LOG1 SWAP2 SWAP1 POP JUMP JUMPDEST PUSH1 0x0 PUSH2 0x8B8 PUSH32 0x8C8764B3A50FEE69C9BEE6E956047501F434FB0E2349C75844A401A7F2A020D2 SLOAD SWAP1 JUMP JUMPDEST CALLER ADDRESS EQ PUSH2 0xEEA JUMPI PUSH1 0x40 MLOAD PUSH32 0xE125889400000000000000000000000000000000000000000000000000000000 DUP2 MSTORE CALLER PUSH1 0x4 DUP3 ADD MSTORE ADDRESS PUSH1 0x24 DUP3 ADD MSTORE PUSH1 0x44 ADD PUSH2 0x72C JUMP JUMPDEST PUSH2 0x73E DUP2 PUSH2 0x1BA4 JUMP JUMPDEST PUSH1 0x0 PUSH2 0x8B8 PUSH1 0x0 PUSH2 0xCE8 JUMP JUMPDEST CALLER ADDRESS EQ PUSH2 0xF40 JUMPI PUSH1 0x40 MLOAD PUSH32 0xE125889400000000000000000000000000000000000000000000000000000000 DUP2 MSTORE CALLER PUSH1 0x4 DUP3 ADD MSTORE ADDRESS PUSH1 0x24 DUP3 ADD MSTORE PUSH1 0x44 ADD PUSH2 0x72C JUMP JUMPDEST PUSH1 0x0 PUSH2 0xF4B DUP4 PUSH2 0x690 JUMP JUMPDEST PUSH20 0xFFFFFFFFFFFFFFFFFFFFFFFFFFFFFFFFFFFFFFFF AND EQ PUSH2 0xFBC JUMPI PUSH1 0x40 MLOAD PUSH32 0x5B4D6D6A00000000000000000000000000000000000000000000000000000000 DUP2 MSTORE PUSH32 0xFFFFFFFF00000000000000000000000000000000000000000000000000000000 DUP4 AND PUSH1 0x4 DUP3 ADD MSTORE PUSH1 0x24 ADD PUSH2 0x72C JUMP JUMPDEST PUSH2 0xFC6 DUP3 DUP3 PUSH2 0x12F3 JUMP JUMPDEST POP POP JUMP JUMPDEST PUSH1 0x0 PUSH2 0x8B8 PUSH32 0xEECAC93CED8722D209199364CDA3BC33DA3BC3A23DAEF6BE49EBD780511D033 SLOAD SWAP1 JUMP JUMPDEST CALLER ADDRESS EQ PUSH2 0x1035 JUMPI PUSH1 0x40 MLOAD PUSH32 0xE125889400000000000000000000000000000000000000000000000000000000 DUP2 MSTORE CALLER PUSH1 0x4 DUP3 ADD MSTORE ADDRESS PUSH1 0x24 DUP3 ADD MSTORE PUSH1 0x44 ADD PUSH2 0x72C JUMP JUMPDEST PUSH2 0x103E DUP3 PUSH2 0x1263 JUMP JUMPDEST PUSH2 0xFC6 DUP2 PUSH2 0x1BA4 JUMP JUMPDEST PUSH1 0x0 DUP1 DUP4 DUP4 PUSH1 0x40 MLOAD PUSH1 0x20 ADD PUSH2 0x1066 SWAP3 SWAP2 SWAP1 SWAP2 DUP3 MSTORE PUSH1 0x20 DUP3 ADD MSTORE PUSH1 0x40 ADD SWAP1 JUMP JUMPDEST PUSH1 0x40 DUP1 MLOAD PUSH32 0xFFFFFFFFFFFFFFFFFFFFFFFFFFFFFFFFFFFFFFFFFFFFFFFFFFFFFFFFFFFFFFE0 DUP2 DUP5 SUB ADD DUP2 MSTORE SWAP2 SWAP1 MSTORE DUP1 MLOAD PUSH1 0x20 SWAP1 SWAP2 ADD KECCAK256 SLOAD SWAP5 SWAP4 POP POP POP POP JUMP JUMPDEST PUSH1 0x0 PUSH32 0x2E74B92A00000000000000000000000000000000000000000000000000000000 PUSH32 0xFFFFFFFF00000000000000000000000000000000000000000000000000000000 DUP4 AND ADD PUSH2 0x10F8 JUMPI POP PUSH1 0x1 SWAP2 SWAP1 POP JUMP JUMPDEST PUSH2 0x6DE DUP3 PUSH2 0x1BFD JUMP JUMPDEST PUSH20 0xFFFFFFFFFFFFFFFFFFFFFFFFFFFFFFFFFFFFFFFF DUP2 AND EXTCODESIZE PUSH2 0x1167 JUMPI PUSH1 0x40 MLOAD PUSH32 0xC76093700000000000000000000000000000000000000000000000000000000 DUP2 MSTORE PUSH20 0xFFFFFFFFFFFFFFFFFFFFFFFFFFFFFFFFFFFFFFFF DUP3 AND PUSH1 0x4 DUP3 ADD MSTORE PUSH1 0x24 ADD PUSH2 0x72C JUMP JUMPDEST PUSH2 0x116F DUP2 ADDRESS SSTORE JUMP JUMPDEST PUSH1 0x40 MLOAD PUSH20 0xFFFFFFFFFFFFFFFFFFFFFFFFFFFFFFFFFFFFFFFF DUP3 AND DUP2 MSTORE PUSH32 0x310BA5F1D2ED074B51E2ECCD052A47AE9AB7C6B800D1FCA3DB3999D6A592CA03 SWAP1 PUSH1 0x20 ADD PUSH2 0xCDD JUMP JUMPDEST PUSH1 0x0 DUP1 PUSH2 0x11C3 DUP6 DUP6 DUP6 PUSH2 0x1C59 JUMP JUMPDEST POP SWAP1 POP DUP1 ISZERO PUSH2 0x11F5 JUMPI POP PUSH32 0x1626BA7E00000000000000000000000000000000000000000000000000000000 SWAP1 POP PUSH2 0x751 JUMP JUMPDEST POP PUSH1 0x0 SWAP5 SWAP4 POP POP POP POP JUMP JUMPDEST PUSH1 0x0 DUP1 PUSH2 0x1225 DUP7 DUP7 PUSH1 0x40 MLOAD PUSH2 0x1216 SWAP3 SWAP2 SWAP1 PUSH2 0x2ADA JUMP JUMPDEST PUSH1 0x40 MLOAD DUP1 SWAP2 SUB SWAP1 KECCAK256 DUP6 DUP6 PUSH2 0x1C59 JUMP JUMPDEST POP SWAP1 POP DUP1 ISZERO PUSH2 0x1257 JUMPI POP PUSH32 0x20C13B0B00000000000000000000000000000000000000000000000000000000 SWAP1 POP PUSH2 0x774 JUMP JUMPDEST POP PUSH1 0x0 SWAP6 SWAP5 POP POP POP POP POP JUMP JUMPDEST DUP1 PUSH2 0x129A JUMPI PUSH1 0x40 MLOAD PUSH32 0x4294D12700000000000000000000000000000000000000000000000000000000 DUP2 MSTORE PUSH1 0x4 ADD PUSH1 0x40 MLOAD DUP1 SWAP2 SUB SWAP1 REVERT JUMPDEST PUSH2 0x12C3 PUSH32 0xEA7157FA25E3AA17D0AE2D5280FA4E24D421C61842AA85E45194E1145AA72BF8 DUP3 SWAP1 SSTORE JUMP JUMPDEST PUSH1 0x40 MLOAD DUP2 DUP2 MSTORE PUSH32 0x307ED6BD941EE9FC80F369C94AF5FA11E25BAB5102A6140191756C5474A30BFA SWAP1 PUSH1 0x20 ADD PUSH2 0xCDD JUMP JUMPDEST PUSH1 0x40 DUP1 MLOAD PUSH32 0xBE27A319EFC8734E89E26BA4BC95F5C788584163B959F03FA04E2D7AB4B9A120 PUSH1 0x20 DUP1 DUP4 ADD SWAP2 SWAP1 SWAP2 MSTORE PUSH32 0xFFFFFFFF00000000000000000000000000000000000000000000000000000000 DUP6 AND DUP3 DUP5 ADD DUP2 SWAP1 MSTORE DUP4 MLOAD DUP1 DUP5 SUB DUP6 ADD DUP2 MSTORE PUSH1 0x60 DUP5 ADD DUP1 DUP7 MSTORE DUP2 MLOAD SWAP2 SWAP1 SWAP4 ADD KECCAK256 PUSH20 0xFFFFFFFFFFFFFFFFFFFFFFFFFFFFFFFFFFFFFFFF DUP7 AND SWAP1 DUP2 SWAP1 SSTORE SWAP2 MSTORE PUSH1 0x80 DUP3 ADD MSTORE SWAP1 MLOAD PUSH32 0xD7FC113EAF016DB4681A1BA86D083CE3E0961F321062A75AC2B0AEB33DEEED1 SWAP2 DUP2 SWAP1 SUB PUSH1 0xA0 ADD SWAP1 LOG1 POP POP JUMP JUMPDEST PUSH1 0x40 MLOAD PUSH32 0x1901000000000000000000000000000000000000000000000000000000000000 PUSH1 0x20 DUP3 ADD MSTORE CHAINID PUSH1 0x22 DUP3 ADD MSTORE PUSH32 0xFFFFFFFFFFFFFFFFFFFFFFFFFFFFFFFFFFFFFFFF000000000000000000000000 ADDRESS PUSH1 0x60 SHL AND PUSH1 0x42 DUP3 ADD MSTORE PUSH1 0x56 DUP2 ADD DUP3 SWAP1 MSTORE PUSH1 0x0 SWAP1 PUSH1 0x76 ADD JUMPDEST PUSH1 0x40 MLOAD PUSH1 0x20 DUP2 DUP4 SUB SUB DUP2 MSTORE SWAP1 PUSH1 0x40 MSTORE DUP1 MLOAD SWAP1 PUSH1 0x20 ADD KECCAK256 SWAP1 POP SWAP2 SWAP1 POP JUMP JUMPDEST DUP1 PUSH1 0x0 JUMPDEST DUP2 DUP2 LT ISZERO PUSH2 0x15B9 JUMPI CALLDATASIZE DUP5 DUP5 DUP4 DUP2 DUP2 LT PUSH2 0x1457 JUMPI PUSH2 0x1457 PUSH2 0x331F JUMP JUMPDEST SWAP1 POP PUSH1 0x20 MUL DUP2 ADD SWAP1 PUSH2 0x1469 SWAP2 SWAP1 PUSH2 0x3393 JUMP JUMPDEST SWAP1 POP PUSH1 0x40 DUP2 ADD CALLDATALOAD DUP1 GAS LT ISZERO PUSH2 0x14BE JUMPI DUP3 DUP2 GAS PUSH1 0x40 MLOAD PUSH32 0x2BB3E3BA00000000000000000000000000000000000000000000000000000000 DUP2 MSTORE PUSH1 0x4 DUP2 ADD SWAP4 SWAP1 SWAP4 MSTORE PUSH1 0x24 DUP4 ADD SWAP2 SWAP1 SWAP2 MSTORE PUSH1 0x44 DUP3 ADD MSTORE PUSH1 0x64 ADD PUSH2 0x72C JUMP JUMPDEST PUSH1 0x0 PUSH2 0x14CD PUSH1 0x20 DUP5 ADD DUP5 PUSH2 0x33D1 JUMP JUMPDEST ISZERO PUSH2 0x150C JUMPI PUSH2 0x1505 PUSH2 0x14E5 PUSH1 0x80 DUP6 ADD PUSH1 0x60 DUP7 ADD PUSH2 0x2B5E JUMP JUMPDEST DUP4 ISZERO PUSH2 0x14F1 JUMPI DUP4 PUSH2 0x14F3 JUMP JUMPDEST GAS JUMPDEST PUSH2 0x1500 PUSH1 0xA0 DUP8 ADD DUP8 PUSH2 0x33EC JUMP JUMPDEST PUSH2 0x1C8A JUMP JUMPDEST SWAP1 POP PUSH2 0x1547 JUMP JUMPDEST PUSH2 0x1544 PUSH2 0x151F PUSH1 0x80 DUP6 ADD PUSH1 0x60 DUP7 ADD PUSH2 0x2B5E JUMP JUMPDEST PUSH1 0x80 DUP6 ADD CALLDATALOAD DUP5 ISZERO PUSH2 0x1530 JUMPI DUP5 PUSH2 0x1532 JUMP JUMPDEST GAS JUMPDEST PUSH2 0x153F PUSH1 0xA0 DUP9 ADD DUP9 PUSH2 0x33EC JUMP JUMPDEST PUSH2 0x1CA5 JUMP JUMPDEST SWAP1 POP JUMPDEST DUP1 ISZERO PUSH2 0x158C JUMPI DUP8 PUSH32 0x5C4EEB02DABF8976016AB414D617F9A162936DCACE3CDEF8C69EF6E262AD5AE7 DUP6 PUSH1 0x40 MLOAD PUSH2 0x157F SWAP2 DUP2 MSTORE PUSH1 0x20 ADD SWAP1 JUMP JUMPDEST PUSH1 0x40 MLOAD DUP1 SWAP2 SUB SWAP1 LOG2 PUSH2 0x15AE JUMP JUMPDEST PUSH2 0x15AE PUSH2 0x159F PUSH1 0x40 DUP6 ADD PUSH1 0x20 DUP7 ADD PUSH2 0x33D1 JUMP JUMPDEST DUP10 DUP7 PUSH2 0x15A9 PUSH2 0x1CC2 JUMP JUMPDEST PUSH2 0x1CE1 JUMP JUMPDEST POP POP POP PUSH1 0x1 ADD PUSH2 0x143C JUMP JUMPDEST POP POP POP POP POP JUMP JUMPDEST PUSH1 0x60 DUP2 SWAP1 SHR PUSH12 0xFFFFFFFFFFFFFFFFFFFFFFFF DUP3 AND PUSH1 0x0 PUSH2 0x15DF DUP4 PUSH2 0xCE8 JUMP JUMPDEST SWAP1 POP DUP2 DUP2 EQ PUSH2 0x162B JUMPI PUSH1 0x40 MLOAD PUSH32 0x9B6514F400000000000000000000000000000000000000000000000000000000 DUP2 MSTORE PUSH1 0x4 DUP2 ADD DUP5 SWAP1 MSTORE PUSH1 0x24 DUP2 ADD DUP4 SWAP1 MSTORE PUSH1 0x44 DUP2 ADD DUP3 SWAP1 MSTORE PUSH1 0x64 ADD PUSH2 0x72C JUMP JUMPDEST PUSH1 0x40 DUP1 MLOAD PUSH32 0x8D0BF1FD623D628C741362C1289948E57B3E2905218C676D3E69ABEE36D6AE2E PUSH1 0x20 DUP1 DUP4 ADD SWAP2 SWAP1 SWAP2 MSTORE DUP2 DUP4 ADD DUP7 SWAP1 MSTORE DUP3 MLOAD DUP1 DUP4 SUB DUP5 ADD DUP2 MSTORE PUSH1 0x60 SWAP1 SWAP3 ADD SWAP1 SWAP3 MSTORE DUP1 MLOAD SWAP2 ADD KECCAK256 PUSH1 0x1 DUP4 ADD SWAP1 DUP2 SWAP1 SSTORE PUSH1 0x40 DUP1 MLOAD DUP6 DUP2 MSTORE PUSH1 0x20 DUP2 ADD DUP4 SWAP1 MSTORE PUSH32 0x1F180C27086C7A39EA2A7B25239D1AB92348F07CA7BB59D1438FCF527568F881 SWAP2 ADD PUSH1 0x40 MLOAD DUP1 SWAP2 SUB SWAP1 LOG1 POP POP POP POP POP JUMP JUMPDEST PUSH1 0x0 DUP1 PUSH1 0x0 DUP1 PUSH1 0x0 PUSH2 0x16D0 DUP9 DUP9 DUP9 PUSH2 0xA48 JUMP JUMPDEST POP SWAP7 POP SWAP2 SWAP5 POP SWAP3 POP SWAP1 POP DUP3 DUP3 LT DUP1 ISZERO SWAP1 PUSH2 0x16EE JUMPI POP PUSH2 0x16EE DUP2 PUSH2 0x1D2F JUMP JUMPDEST SWAP5 POP POP POP POP SWAP4 POP SWAP4 SWAP2 POP POP JUMP JUMPDEST PUSH1 0x0 DUP1 DUP1 DUP1 PUSH2 0x1716 DUP8 PUSH2 0x1711 DUP8 PUSH1 0x6 DUP2 DUP12 PUSH2 0x3451 JUMP JUMPDEST PUSH2 0x1D3A JUMP JUMPDEST PUSH1 0x0 SWAP1 DUP2 MSTORE DUP8 CALLDATALOAD PUSH1 0xF0 SHR PUSH1 0x20 DUP2 DUP2 MSTORE PUSH1 0x40 DUP1 DUP5 KECCAK256 DUP5 MSTORE PUSH1 0x2 SWAP1 SWAP11 ADD CALLDATALOAD PUSH1 0xE0 SHR SWAP1 DUP2 SWAP1 MSTORE SWAP9 SWAP1 SWAP2 KECCAK256 SWAP1 SWAP10 SWAP2 SWAP9 POP SWAP7 SWAP6 POP SWAP4 POP POP POP POP JUMP JUMPDEST PUSH1 0x0 DUP1 DUP1 DUP1 PUSH2 0x1767 DUP8 PUSH2 0x1762 DUP8 PUSH1 0x1 DUP2 DUP12 PUSH2 0x3451 JUMP JUMPDEST PUSH2 0x16FB JUMP JUMPDEST SWAP4 POP SWAP4 POP SWAP4 POP SWAP4 POP SWAP4 POP SWAP4 POP SWAP4 POP SWAP4 JUMP JUMPDEST PUSH1 0x40 MLOAD PUSH32 0x1901000000000000000000000000000000000000000000000000000000000000 PUSH1 0x20 DUP3 ADD MSTORE PUSH1 0x0 PUSH1 0x22 DUP3 ADD DUP2 SWAP1 MSTORE PUSH32 0xFFFFFFFFFFFFFFFFFFFFFFFFFFFFFFFFFFFFFFFF000000000000000000000000 ADDRESS PUSH1 0x60 SHL AND PUSH1 0x42 DUP4 ADD MSTORE PUSH1 0x56 DUP3 ADD DUP4 SWAP1 MSTORE SWAP1 PUSH1 0x76 ADD PUSH2 0x141B JUMP JUMPDEST PUSH1 0x0 DUP1 DUP1 DUP1 DUP1 PUSH1 0x4 PUSH1 0x1 DUP9 ADD CALLDATALOAD PUSH1 0xE8 SHR DUP3 PUSH2 0x1800 DUP4 DUP4 PUSH2 0x34AA JUMP JUMPDEST SWAP1 POP PUSH2 0x1812 DUP12 PUSH2 0x4C1 DUP4 DUP7 DUP14 DUP16 PUSH2 0x3451 JUMP JUMPDEST SWAP4 SWAP12 POP SWAP2 SWAP10 POP SWAP8 POP SWAP6 POP SWAP4 POP DUP8 DUP8 LT ISZERO PUSH2 0x186A JUMPI PUSH2 0x1832 DUP2 DUP5 DUP12 DUP14 PUSH2 0x3451 JUMP JUMPDEST DUP10 DUP10 PUSH1 0x40 MLOAD PUSH32 0xB006ABA000000000000000000000000000000000000000000000000000000000 DUP2 MSTORE PUSH1 0x4 ADD PUSH2 0x72C SWAP5 SWAP4 SWAP3 SWAP2 SWAP1 PUSH2 0x34BD JUMP JUMPDEST DUP1 SWAP3 POP JUMPDEST DUP9 DUP4 LT ISZERO PUSH2 0x1954 JUMPI PUSH1 0x3 DUP4 ADD SWAP3 DUP11 ADD CALLDATALOAD PUSH1 0xE8 SHR SWAP2 POP PUSH2 0x188D DUP4 DUP4 PUSH2 0x34AA JUMP JUMPDEST SWAP1 POP PUSH1 0x0 PUSH2 0x18AF PUSH2 0x189D DUP9 PUSH2 0x21D0 JUMP JUMPDEST DUP13 DUP13 DUP8 SWAP1 DUP7 SWAP3 PUSH2 0x4C1 SWAP4 SWAP3 SWAP2 SWAP1 PUSH2 0x3451 JUMP JUMPDEST SWAP4 SWAP13 POP SWAP2 SWAP11 POP SWAP9 POP SWAP1 SWAP2 POP POP DUP9 DUP9 LT ISZERO PUSH2 0x1907 JUMPI PUSH2 0x18CF DUP3 DUP6 DUP13 DUP15 PUSH2 0x3451 JUMP JUMPDEST DUP11 DUP11 PUSH1 0x40 MLOAD PUSH32 0xB006ABA000000000000000000000000000000000000000000000000000000000 DUP2 MSTORE PUSH1 0x4 ADD PUSH2 0x72C SWAP5 SWAP4 SWAP3 SWAP2 SWAP1 PUSH2 0x34BD JUMP JUMPDEST DUP5 DUP2 LT PUSH2 0x194A JUMPI PUSH1 0x40 MLOAD PUSH32 0x37DAF62B00000000000000000000000000000000000000000000000000000000 DUP2 MSTORE PUSH1 0x4 DUP2 ADD DUP3 SWAP1 MSTORE PUSH1 0x24 DUP2 ADD DUP7 SWAP1 MSTORE PUSH1 0x44 ADD PUSH2 0x72C JUMP JUMPDEST SWAP4 POP SWAP2 POP DUP2 PUSH2 0x186E JUMP JUMPDEST POP POP POP SWAP4 SWAP8 SWAP3 SWAP7 POP SWAP4 POP SWAP4 POP JUMP JUMPDEST DUP1 MLOAD PUSH1 0x60 SWAP1 PUSH1 0x3 DUP2 SWAP1 SHL PUSH1 0x0 PUSH1 0x5 PUSH1 0x4 DUP4 ADD DIV PUSH8 0xFFFFFFFFFFFFFFFF DUP2 GT ISZERO PUSH2 0x198D JUMPI PUSH2 0x198D PUSH2 0x2E73 JUMP JUMPDEST PUSH1 0x40 MLOAD SWAP1 DUP1 DUP3 MSTORE DUP1 PUSH1 0x1F ADD PUSH1 0x1F NOT AND PUSH1 0x20 ADD DUP3 ADD PUSH1 0x40 MSTORE DUP1 ISZERO PUSH2 0x19B7 JUMPI PUSH1 0x20 DUP3 ADD DUP2 DUP1 CALLDATASIZE DUP4 CALLDATACOPY ADD SWAP1 POP JUMPDEST POP SWAP1 POP PUSH1 0x0 DUP1 PUSH1 0x0 DUP1 JUMPDEST DUP7 DUP2 LT ISZERO PUSH2 0x1ACB JUMPI DUP9 DUP2 DUP2 MLOAD DUP2 LT PUSH2 0x19DB JUMPI PUSH2 0x19DB PUSH2 0x331F JUMP JUMPDEST ADD PUSH1 0x20 ADD MLOAD PUSH1 0x8 SWAP5 DUP6 ADD SWAP5 SWAP4 SWAP1 SWAP4 SHL PUSH1 0xF8 SWAP4 SWAP1 SWAP4 SHR SWAP3 SWAP1 SWAP3 OR SWAP2 JUMPDEST PUSH1 0x5 DUP5 LT PUSH2 0x1AC3 JUMPI PUSH1 0x40 DUP1 MLOAD DUP1 DUP3 ADD SWAP1 SWAP2 MSTORE PUSH1 0x20 DUP1 DUP3 MSTORE PUSH32 0x6162636465666768696A6B6C6D6E6F707172737475767778797A323334353637 DUP2 DUP4 ADD MSTORE PUSH32 0xFFFFFFFFFFFFFFFFFFFFFFFFFFFFFFFFFFFFFFFFFFFFFFFFFFFFFFFFFFFFFFFB SWAP1 SWAP6 ADD SWAP5 PUSH1 0x1F DUP6 DUP8 SHR AND SWAP1 DUP2 LT PUSH2 0x1A6C JUMPI PUSH2 0x1A6C PUSH2 0x331F JUMP JUMPDEST PUSH1 0x20 ADD ADD MLOAD PUSH1 0xF8 SHR PUSH1 0xF8 SHL DUP6 DUP4 DUP2 MLOAD DUP2 LT PUSH2 0x1A89 JUMPI PUSH2 0x1A89 PUSH2 0x331F JUMP JUMPDEST PUSH1 0x20 ADD ADD SWAP1 PUSH31 0xFFFFFFFFFFFFFFFFFFFFFFFFFFFFFFFFFFFFFFFFFFFFFFFFFFFFFFFFFFFFFF NOT AND SWAP1 DUP2 PUSH1 0x0 BYTE SWAP1 MSTORE8 POP PUSH1 0x1 SWAP1 SWAP2 ADD SWAP1 PUSH2 0x19F6 JUMP JUMPDEST PUSH1 0x1 ADD PUSH2 0x19C1 JUMP JUMPDEST POP DUP3 ISZERO PUSH2 0x1B6F JUMPI PUSH1 0x40 MLOAD DUP1 PUSH1 0x40 ADD PUSH1 0x40 MSTORE DUP1 PUSH1 0x20 DUP2 MSTORE PUSH1 0x20 ADD PUSH32 0x6162636465666768696A6B6C6D6E6F707172737475767778797A323334353637 DUP2 MSTORE POP DUP4 PUSH1 0x5 SUB DUP4 SWAP1 SHL PUSH1 0x1F AND DUP2 MLOAD DUP2 LT PUSH2 0x1B22 JUMPI PUSH2 0x1B22 PUSH2 0x331F JUMP JUMPDEST PUSH1 0x20 ADD ADD MLOAD PUSH1 0xF8 SHR PUSH1 0xF8 SHL DUP5 DUP3 DUP2 MLOAD DUP2 LT PUSH2 0x1B3F JUMPI PUSH2 0x1B3F PUSH2 0x331F JUMP JUMPDEST PUSH1 0x20 ADD ADD SWAP1 PUSH31 0xFFFFFFFFFFFFFFFFFFFFFFFFFFFFFFFFFFFFFFFFFFFFFFFFFFFFFFFFFFFFFF NOT AND SWAP1 DUP2 PUSH1 0x0 BYTE SWAP1 MSTORE8 POP JUMPDEST POP SWAP2 SWAP7 SWAP6 POP POP POP POP POP POP JUMP JUMPDEST PUSH1 0x60 DUP2 PUSH1 0x40 MLOAD PUSH1 0x20 ADD PUSH2 0x1B8E SWAP2 SWAP1 PUSH2 0x34E4 JUMP JUMPDEST PUSH1 0x40 MLOAD PUSH1 0x20 DUP2 DUP4 SUB SUB DUP2 MSTORE SWAP1 PUSH1 0x40 MSTORE SWAP1 POP SWAP2 SWAP1 POP JUMP JUMPDEST PUSH2 0x1BCD PUSH32 0xEECAC93CED8722D209199364CDA3BC33DA3BC3A23DAEF6BE49EBD780511D033 DUP3 SWAP1 SSTORE JUMP JUMPDEST PUSH1 0x40 MLOAD DUP2 DUP2 MSTORE PUSH32 0x20D3EF1B5738A9F6D7BEAE515432206E7A8E2740CA6DCF46A952190AD01BCB51 SWAP1 PUSH1 0x20 ADD PUSH2 0xCDD JUMP JUMPDEST PUSH1 0x0 PUSH32 0x6FFBD45100000000000000000000000000000000000000000000000000000000 PUSH32 0xFFFFFFFF00000000000000000000000000000000000000000000000000000000 DUP4 AND ADD PUSH2 0x1C50 JUMPI POP PUSH1 0x1 SWAP2 SWAP1 POP JUMP JUMPDEST PUSH2 0x6DE DUP3 PUSH2 0x2204 JUMP JUMPDEST PUSH1 0x0 DUP1 PUSH1 0x0 DUP1 PUSH1 0x0 PUSH2 0x1C6C DUP9 DUP9 DUP9 PUSH2 0xA48 JUMP JUMPDEST POP SWAP7 POP SWAP2 SWAP5 POP SWAP3 POP SWAP1 POP DUP3 DUP3 LT DUP1 ISZERO SWAP1 PUSH2 0x16EE JUMPI POP PUSH2 0x16EE DUP2 PUSH2 0x2345 JUMP JUMPDEST PUSH1 0x0 PUSH1 0x40 MLOAD DUP3 DUP5 DUP3 CALLDATACOPY PUSH1 0x0 DUP1 DUP5 DUP4 DUP10 DUP10 DELEGATECALL SWAP7 SWAP6 POP POP POP POP POP POP JUMP JUMPDEST PUSH1 0x0 PUSH1 0x40 MLOAD DUP3 DUP5 DUP3 CALLDATACOPY PUSH1 0x0 DUP1 DUP5 DUP4 DUP10 DUP12 DUP11 CALL SWAP8 SWAP7 POP POP POP POP POP POP POP JUMP JUMPDEST PUSH1 0x60 RETURNDATASIZE PUSH1 0x40 MLOAD SWAP2 POP PUSH1 0x20 DUP3 ADD DUP2 DUP2 ADD PUSH1 0x40 MSTORE DUP2 DUP4 MSTORE DUP2 PUSH1 0x0 DUP3 RETURNDATACOPY POP POP SWAP1 JUMP JUMPDEST DUP4 ISZERO PUSH2 0x1CEF JUMPI DUP1 MLOAD PUSH1 0x20 DUP3 ADD REVERT JUMPDEST DUP3 PUSH32 0xAB46C69F7F32E1BF09B0725853DA82A211E5402A0600296AB499A2FB5EA3B419 DUP4 DUP4 PUSH1 0x40 MLOAD PUSH2 0x1D21 SWAP3 SWAP2 SWAP1 PUSH2 0x3529 JUMP JUMPDEST PUSH1 0x40 MLOAD DUP1 SWAP2 SUB SWAP1 LOG2 POP POP POP POP JUMP JUMPDEST PUSH1 0x0 PUSH2 0x6DE DUP3 PUSH2 0x237C JUMP JUMPDEST PUSH1 0x0 DUP1 PUSH1 0x0 JUMPDEST DUP4 DUP2 LT ISZERO PUSH2 0x21C7 JUMPI PUSH1 0x1 DUP2 ADD SWAP1 DUP6 ADD CALLDATALOAD PUSH1 0xF8 SHR PUSH32 0xFFFFFFFFFFFFFFFFFFFFFFFFFFFFFFFFFFFFFFFFFFFFFFFFFFFFFFFFFFFFFFFF DUP2 ADD PUSH2 0x1DE1 JUMPI PUSH1 0x15 DUP3 ADD SWAP2 DUP7 ADD CALLDATALOAD PUSH1 0xF8 DUP2 SWAP1 SHR SWAP1 PUSH1 0x58 SHR PUSH20 0xFFFFFFFFFFFFFFFFFFFFFFFFFFFFFFFFFFFFFFFF DUP2 AND SWAP1 PUSH21 0xFF0000000000000000000000000000000000000000 AND DUP2 OR DUP6 PUSH2 0x1DC7 JUMPI DUP1 PUSH2 0x1DD6 JUMP JUMPDEST PUSH1 0x0 DUP7 DUP2 MSTORE PUSH1 0x20 DUP3 SWAP1 MSTORE PUSH1 0x40 SWAP1 KECCAK256 JUMPDEST SWAP6 POP POP POP POP POP PUSH2 0x1D40 JUMP JUMPDEST DUP1 PUSH2 0x1E77 JUMPI PUSH1 0x1 DUP3 ADD SWAP2 DUP7 DUP2 ADD CALLDATALOAD PUSH1 0xF8 SHR SWAP1 PUSH1 0x43 ADD PUSH1 0x0 PUSH2 0x1E0D DUP11 PUSH2 0x1E08 DUP5 DUP9 DUP13 DUP15 PUSH2 0x3451 JUMP JUMPDEST PUSH2 0x23AF JUMP JUMPDEST PUSH1 0xFF DUP5 AND SWAP8 SWAP1 SWAP8 ADD SWAP7 SWAP2 SWAP5 POP DUP5 SWAP2 SWAP1 POP PUSH1 0xA0 DUP4 SWAP1 SHL PUSH21 0xFF0000000000000000000000000000000000000000 AND PUSH20 0xFFFFFFFFFFFFFFFFFFFFFFFFFFFFFFFFFFFFFFFF DUP3 AND OR DUP7 PUSH2 0x1E5C JUMPI DUP1 PUSH2 0x1E6B JUMP JUMPDEST PUSH1 0x0 DUP8 DUP2 MSTORE PUSH1 0x20 DUP3 SWAP1 MSTORE PUSH1 0x40 SWAP1 KECCAK256 JUMPDEST SWAP7 POP POP POP POP POP POP PUSH2 0x1D40 JUMP JUMPDEST PUSH1 0x2 DUP2 SUB PUSH2 0x1F9F JUMPI PUSH1 0x0 DUP1 DUP8 DUP5 ADD CALLDATALOAD PUSH1 0xF8 DUP2 SWAP1 SHR SWAP1 PUSH1 0x58 SHR PUSH20 0xFFFFFFFFFFFFFFFFFFFFFFFFFFFFFFFFFFFFFFFF AND PUSH1 0x15 DUP7 ADD SWAP6 POP SWAP1 SWAP3 POP SWAP1 POP PUSH1 0x0 DUP9 DUP6 ADD CALLDATALOAD PUSH1 0xE8 SHR PUSH1 0x3 DUP7 ADD DUP2 PUSH3 0xFFFFFF AND SWAP2 POP DUP1 SWAP7 POP DUP2 SWAP3 POP POP POP PUSH1 0x0 DUP2 DUP7 ADD SWAP1 POP PUSH2 0x1EF0 DUP12 DUP5 DUP13 DUP13 DUP11 SWAP1 DUP7 SWAP3 PUSH2 0x1EEB SWAP4 SWAP3 SWAP2 SWAP1 PUSH2 0x3451 JUMP JUMPDEST PUSH2 0x2672 JUMP JUMPDEST PUSH2 0x1F38 JUMPI DUP11 DUP4 PUSH2 0x1F02 DUP4 DUP10 DUP14 DUP16 PUSH2 0x3451 JUMP JUMPDEST PUSH1 0x40 MLOAD PUSH32 0x9A94623200000000000000000000000000000000000000000000000000000000 DUP2 MSTORE PUSH1 0x4 ADD PUSH2 0x72C SWAP5 SWAP4 SWAP3 SWAP2 SWAP1 PUSH2 0x3542 JUMP JUMPDEST PUSH1 0xFF DUP5 AND SWAP8 SWAP1 SWAP8 ADD SWAP7 SWAP5 POP DUP5 PUSH1 0xA0 DUP5 SWAP1 SHL PUSH21 0xFF0000000000000000000000000000000000000000 AND PUSH20 0xFFFFFFFFFFFFFFFFFFFFFFFFFFFFFFFFFFFFFFFF DUP5 AND OR DUP8 PUSH2 0x1F83 JUMPI DUP1 PUSH2 0x1F92 JUMP JUMPDEST PUSH1 0x0 DUP9 DUP2 MSTORE PUSH1 0x20 DUP3 SWAP1 MSTORE PUSH1 0x40 SWAP1 KECCAK256 JUMPDEST SWAP8 POP POP POP POP POP POP POP PUSH2 0x1D40 JUMP JUMPDEST PUSH1 0x3 DUP2 SUB PUSH2 0x1FD2 JUMPI PUSH1 0x20 DUP3 ADD SWAP2 DUP7 ADD CALLDATALOAD DUP4 PUSH2 0x1FBA JUMPI DUP1 PUSH2 0x1FC9 JUMP JUMPDEST PUSH1 0x0 DUP5 DUP2 MSTORE PUSH1 0x20 DUP3 SWAP1 MSTORE PUSH1 0x40 SWAP1 KECCAK256 JUMPDEST SWAP4 POP POP POP PUSH2 0x1D40 JUMP JUMPDEST PUSH1 0x4 DUP2 SUB PUSH2 0x201E JUMPI PUSH1 0x3 DUP1 DUP4 ADD SWAP3 DUP8 DUP2 ADD CALLDATALOAD PUSH1 0xE8 SHR SWAP2 SWAP1 DUP3 ADD ADD PUSH1 0x0 DUP1 PUSH2 0x1FFF DUP12 PUSH2 0x1711 DUP6 DUP10 DUP14 DUP16 PUSH2 0x3451 JUMP JUMPDEST PUSH1 0x0 SWAP9 DUP10 MSTORE PUSH1 0x20 MSTORE PUSH1 0x40 SWAP1 SWAP8 KECCAK256 SWAP7 SWAP1 SWAP8 ADD SWAP7 POP SWAP1 SWAP4 POP PUSH2 0x1D40 SWAP3 POP POP POP JUMP JUMPDEST PUSH1 0x6 DUP2 SUB PUSH2 0x2126 JUMPI PUSH1 0x0 DUP3 DUP8 ADD CALLDATALOAD PUSH1 0xF8 SHR PUSH1 0x1 DUP5 ADD SWAP4 POP PUSH1 0xFF AND SWAP1 POP PUSH1 0x0 DUP8 DUP5 ADD CALLDATALOAD PUSH1 0xF0 SHR PUSH1 0x2 DUP6 ADD SWAP5 POP PUSH2 0xFFFF AND SWAP1 POP PUSH1 0x0 DUP9 DUP6 ADD CALLDATALOAD PUSH1 0xE8 SHR PUSH1 0x3 DUP7 ADD DUP2 PUSH3 0xFFFFFF AND SWAP2 POP DUP1 SWAP7 POP DUP2 SWAP3 POP POP POP PUSH1 0x0 DUP2 DUP7 ADD SWAP1 POP PUSH1 0x0 DUP1 PUSH2 0x208C DUP14 DUP14 DUP14 DUP12 SWAP1 DUP8 SWAP3 PUSH2 0x1711 SWAP4 SWAP3 SWAP2 SWAP1 PUSH2 0x3451 JUMP JUMPDEST SWAP4 SWAP9 POP DUP9 SWAP4 SWAP1 SWAP3 POP SWAP1 POP DUP5 DUP3 LT PUSH2 0x20A2 JUMPI SWAP9 DUP6 ADD SWAP9 JUMPDEST PUSH1 0x40 DUP1 MLOAD PUSH32 0x53657175656E6365206E657374656420636F6E6669673A0A0000000000000000 PUSH1 0x20 DUP1 DUP4 ADD SWAP2 SWAP1 SWAP2 MSTORE PUSH1 0x38 DUP3 ADD DUP5 SWAP1 MSTORE PUSH1 0x58 DUP3 ADD DUP9 SWAP1 MSTORE PUSH1 0x78 DUP1 DUP4 ADD DUP11 SWAP1 MSTORE DUP4 MLOAD DUP1 DUP5 SUB SWAP1 SWAP2 ADD DUP2 MSTORE PUSH1 0x98 SWAP1 SWAP3 ADD SWAP1 SWAP3 MSTORE DUP1 MLOAD SWAP2 ADD KECCAK256 DUP10 PUSH2 0x2108 JUMPI DUP1 PUSH2 0x2117 JUMP JUMPDEST PUSH1 0x0 DUP11 DUP2 MSTORE PUSH1 0x20 DUP3 SWAP1 MSTORE PUSH1 0x40 SWAP1 KECCAK256 JUMPDEST SWAP10 POP POP POP POP POP POP POP POP POP PUSH2 0x1D40 JUMP JUMPDEST PUSH1 0x5 DUP2 SUB PUSH2 0x2192 JUMPI PUSH1 0x20 DUP3 ADD SWAP2 DUP7 ADD CALLDATALOAD DUP8 DUP2 SUB PUSH2 0x2161 JUMPI PUSH32 0xFFFFFFFFFFFFFFFFFFFFFFFFFFFFFFFFFFFFFFFFFFFFFFFFFFFFFFFFFFFFFFFF SWAP5 POP JUMPDEST PUSH1 0x0 PUSH2 0x216C DUP3 PUSH2 0x2859 JUMP JUMPDEST SWAP1 POP DUP5 PUSH2 0x2179 JUMPI DUP1 PUSH2 0x2188 JUMP JUMPDEST PUSH1 0x0 DUP6 DUP2 MSTORE PUSH1 0x20 DUP3 SWAP1 MSTORE PUSH1 0x40 SWAP1 KECCAK256 JUMPDEST SWAP5 POP POP POP POP PUSH2 0x1D40 JUMP JUMPDEST PUSH1 0x40 MLOAD PUSH32 0xB2505F7C00000000000000000000000000000000000000000000000000000000 DUP2 MSTORE PUSH1 0x4 DUP2 ADD DUP3 SWAP1 MSTORE PUSH1 0x24 ADD PUSH2 0x72C JUMP JUMPDEST POP SWAP4 POP SWAP4 SWAP2 POP POP JUMP JUMPDEST PUSH32 0x8713A7C4465F6FBEE2B6E9D6646D1D9F83FEC929EDFC4BAF661F3C865BDD04D1 PUSH1 0x0 SWAP1 DUP2 MSTORE PUSH1 0x20 DUP3 SWAP1 MSTORE PUSH1 0x40 DUP2 KECCAK256 PUSH2 0x6DE JUMP JUMPDEST PUSH1 0x0 PUSH32 0xFFFFFFFF00000000000000000000000000000000000000000000000000000000 DUP3 AND PUSH32 0xEC6ABA5000000000000000000000000000000000000000000000000000000000 EQ DUP1 PUSH2 0x2297 JUMPI POP PUSH32 0xFFFFFFFF00000000000000000000000000000000000000000000000000000000 DUP3 AND PUSH32 0x4E2312E000000000000000000000000000000000000000000000000000000000 EQ JUMPDEST DUP1 PUSH2 0x22E3 JUMPI POP PUSH32 0xFFFFFFFF00000000000000000000000000000000000000000000000000000000 DUP3 AND PUSH32 0x150B7A0200000000000000000000000000000000000000000000000000000000 EQ JUMPDEST DUP1 PUSH2 0x232F JUMPI POP PUSH32 0xFFFFFFFF00000000000000000000000000000000000000000000000000000000 DUP3 AND PUSH32 0xC0EE0B8A00000000000000000000000000000000000000000000000000000000 EQ JUMPDEST ISZERO PUSH2 0x233C JUMPI POP PUSH1 0x1 SWAP2 SWAP1 POP JUMP JUMPDEST PUSH2 0x6DE DUP3 PUSH2 0x2894 JUMP JUMPDEST PUSH1 0x0 DUP2 ISZERO DUP1 ISZERO SWAP1 PUSH2 0x6DE JUMPI POP PUSH32 0x8C8764B3A50FEE69C9BEE6E956047501F434FB0E2349C75844A401A7F2A020D2 SLOAD JUMPDEST DUP3 EQ SWAP3 SWAP2 POP POP JUMP JUMPDEST PUSH1 0x0 DUP2 ISZERO DUP1 ISZERO SWAP1 PUSH2 0x6DE JUMPI POP PUSH32 0xEA7157FA25E3AA17D0AE2D5280FA4E24D421C61842AA85E45194E1145AA72BF8 SLOAD PUSH2 0x2374 JUMP JUMPDEST PUSH1 0x0 PUSH1 0x42 DUP3 EQ PUSH2 0x23EF JUMPI DUP3 DUP3 PUSH1 0x40 MLOAD PUSH32 0x2EE17A3D00000000000000000000000000000000000000000000000000000000 DUP2 MSTORE PUSH1 0x4 ADD PUSH2 0x72C SWAP3 SWAP2 SWAP1 PUSH2 0x3582 JUMP JUMPDEST PUSH1 0x0 PUSH2 0x2408 PUSH2 0x23FF PUSH1 0x1 DUP6 PUSH2 0x3596 JUMP JUMPDEST DUP6 ADD CALLDATALOAD PUSH1 0xF8 SHR SWAP1 JUMP JUMPDEST PUSH1 0xFF AND SWAP1 POP PUSH1 0x40 DUP5 ADD CALLDATALOAD PUSH1 0xF8 SHR DUP5 CALLDATALOAD PUSH1 0x20 DUP7 ADD CALLDATALOAD PUSH32 0x7FFFFFFFFFFFFFFFFFFFFFFFFFFFFFFF5D576E7357A4501DDFE92F46681B20A0 DUP2 GT ISZERO PUSH2 0x247C JUMPI DUP7 DUP7 DUP3 PUSH1 0x40 MLOAD PUSH32 0xAD4AAC7600000000000000000000000000000000000000000000000000000000 DUP2 MSTORE PUSH1 0x4 ADD PUSH2 0x72C SWAP4 SWAP3 SWAP2 SWAP1 PUSH2 0x35A9 JUMP JUMPDEST DUP3 PUSH1 0xFF AND PUSH1 0x1B EQ ISZERO DUP1 ISZERO PUSH2 0x2494 JUMPI POP DUP3 PUSH1 0xFF AND PUSH1 0x1C EQ ISZERO JUMPDEST ISZERO PUSH2 0x24D1 JUMPI DUP7 DUP7 DUP5 PUSH1 0x40 MLOAD PUSH32 0xE578897E00000000000000000000000000000000000000000000000000000000 DUP2 MSTORE PUSH1 0x4 ADD PUSH2 0x72C SWAP4 SWAP3 SWAP2 SWAP1 PUSH2 0x35CD JUMP JUMPDEST PUSH1 0x1 DUP5 SUB PUSH2 0x253E JUMPI PUSH1 0x40 DUP1 MLOAD PUSH1 0x0 DUP2 MSTORE PUSH1 0x20 DUP2 ADD DUP1 DUP4 MSTORE DUP11 SWAP1 MSTORE PUSH1 0xFF DUP6 AND SWAP2 DUP2 ADD SWAP2 SWAP1 SWAP2 MSTORE PUSH1 0x60 DUP2 ADD DUP4 SWAP1 MSTORE PUSH1 0x80 DUP2 ADD DUP3 SWAP1 MSTORE PUSH1 0x1 SWAP1 PUSH1 0xA0 ADD JUMPDEST PUSH1 0x20 PUSH1 0x40 MLOAD PUSH1 0x20 DUP2 SUB SWAP1 DUP1 DUP5 SUB SWAP1 DUP6 GAS STATICCALL ISZERO DUP1 ISZERO PUSH2 0x252D JUMPI RETURNDATASIZE PUSH1 0x0 DUP1 RETURNDATACOPY RETURNDATASIZE PUSH1 0x0 REVERT JUMPDEST POP POP POP PUSH1 0x20 PUSH1 0x40 MLOAD SUB MLOAD SWAP5 POP PUSH2 0x2616 JUMP JUMPDEST PUSH1 0x2 DUP5 SUB PUSH2 0x25DB JUMPI PUSH1 0x40 MLOAD PUSH32 0x19457468657265756D205369676E6564204D6573736167653A0A333200000000 PUSH1 0x20 DUP3 ADD MSTORE PUSH1 0x3C DUP2 ADD DUP10 SWAP1 MSTORE PUSH1 0x1 SWAP1 PUSH1 0x5C ADD PUSH1 0x40 DUP1 MLOAD PUSH32 0xFFFFFFFFFFFFFFFFFFFFFFFFFFFFFFFFFFFFFFFFFFFFFFFFFFFFFFFFFFFFFFE0 DUP2 DUP5 SUB ADD DUP2 MSTORE DUP3 DUP3 MSTORE DUP1 MLOAD PUSH1 0x20 SWAP2 DUP3 ADD KECCAK256 PUSH1 0x0 DUP5 MSTORE SWAP1 DUP4 ADD DUP1 DUP4 MSTORE MSTORE PUSH1 0xFF DUP7 AND SWAP1 DUP3 ADD MSTORE PUSH1 0x60 DUP2 ADD DUP5 SWAP1 MSTORE PUSH1 0x80 DUP2 ADD DUP4 SWAP1 MSTORE PUSH1 0xA0 ADD PUSH2 0x250B JUMP JUMPDEST DUP7 DUP7 DUP6 PUSH1 0x1 PUSH1 0x40 MLOAD PUSH32 0x9DFBA85200000000000000000000000000000000000000000000000000000000 DUP2 MSTORE PUSH1 0x4 ADD PUSH2 0x72C SWAP5 SWAP4 SWAP3 SWAP2 SWAP1 PUSH2 0x35F4 JUMP JUMPDEST PUSH20 0xFFFFFFFFFFFFFFFFFFFFFFFFFFFFFFFFFFFFFFFF DUP6 AND PUSH2 0x2667 JUMPI DUP7 DUP7 PUSH1 0x40 MLOAD PUSH32 0x6C1719D200000000000000000000000000000000000000000000000000000000 DUP2 MSTORE PUSH1 0x4 ADD PUSH2 0x72C SWAP3 SWAP2 SWAP1 PUSH2 0x3582 JUMP JUMPDEST POP POP POP POP SWAP4 SWAP3 POP POP POP JUMP JUMPDEST PUSH1 0x0 DUP2 DUP2 SUB PUSH2 0x26AD JUMPI PUSH1 0x40 MLOAD PUSH32 0xAC241E1100000000000000000000000000000000000000000000000000000000 DUP2 MSTORE PUSH1 0x4 ADD PUSH1 0x40 MLOAD DUP1 SWAP2 SUB SWAP1 REVERT JUMPDEST PUSH1 0x0 DUP4 DUP4 PUSH2 0x26BC PUSH1 0x1 DUP3 PUSH2 0x3596 JUMP JUMPDEST DUP2 DUP2 LT PUSH2 0x26CB JUMPI PUSH2 0x26CB PUSH2 0x331F JUMP JUMPDEST SWAP2 SWAP1 SWAP2 ADD CALLDATALOAD PUSH1 0xF8 SHR SWAP2 POP POP PUSH1 0x1 DUP2 EQ DUP1 PUSH2 0x26E5 JUMPI POP PUSH1 0x2 DUP2 EQ JUMPDEST ISZERO PUSH2 0x272A JUMPI DUP5 PUSH20 0xFFFFFFFFFFFFFFFFFFFFFFFFFFFFFFFFFFFFFFFF AND PUSH2 0x270C DUP8 DUP7 DUP7 PUSH2 0x23AF JUMP JUMPDEST PUSH20 0xFFFFFFFFFFFFFFFFFFFFFFFFFFFFFFFFFFFFFFFF AND EQ SWAP2 POP PUSH2 0x2850 JUMP JUMPDEST PUSH1 0x3 DUP2 SUB PUSH2 0x2815 JUMPI PUSH20 0xFFFFFFFFFFFFFFFFFFFFFFFFFFFFFFFFFFFFFFFF DUP6 AND PUSH4 0x1626BA7E DUP8 DUP7 PUSH1 0x0 DUP8 PUSH2 0x275E PUSH1 0x1 DUP3 PUSH2 0x3596 JUMP JUMPDEST SWAP3 PUSH2 0x276B SWAP4 SWAP3 SWAP2 SWAP1 PUSH2 0x3451 JUMP JUMPDEST PUSH1 0x40 MLOAD DUP5 PUSH4 0xFFFFFFFF AND PUSH1 0xE0 SHL DUP2 MSTORE PUSH1 0x4 ADD PUSH2 0x2789 SWAP4 SWAP3 SWAP2 SWAP1 PUSH2 0x3305 JUMP JUMPDEST PUSH1 0x20 PUSH1 0x40 MLOAD DUP1 DUP4 SUB DUP2 DUP7 GAS STATICCALL ISZERO DUP1 ISZERO PUSH2 0x27A6 JUMPI RETURNDATASIZE PUSH1 0x0 DUP1 RETURNDATACOPY RETURNDATASIZE PUSH1 0x0 REVERT JUMPDEST POP POP POP POP PUSH1 0x40 MLOAD RETURNDATASIZE PUSH1 0x1F NOT PUSH1 0x1F DUP3 ADD AND DUP3 ADD DUP1 PUSH1 0x40 MSTORE POP DUP2 ADD SWAP1 PUSH2 0x27CA SWAP2 SWAP1 PUSH2 0x3620 JUMP JUMPDEST PUSH32 0xFFFFFFFF00000000000000000000000000000000000000000000000000000000 AND PUSH32 0x1626BA7E00000000000000000000000000000000000000000000000000000000 EQ SWAP2 POP PUSH2 0x2850 JUMP JUMPDEST DUP4 DUP4 DUP3 PUSH1 0x0 PUSH1 0x40 MLOAD PUSH32 0x9DFBA85200000000000000000000000000000000000000000000000000000000 DUP2 MSTORE PUSH1 0x4 ADD PUSH2 0x72C SWAP5 SWAP4 SWAP3 SWAP2 SWAP1 PUSH2 0x35F4 JUMP JUMPDEST POP SWAP5 SWAP4 POP POP POP POP JUMP JUMPDEST PUSH1 0x40 MLOAD PUSH32 0x53657175656E636520737461746963206469676573743A0A0000000000000000 PUSH1 0x20 DUP3 ADD MSTORE PUSH1 0x38 DUP2 ADD DUP3 SWAP1 MSTORE PUSH1 0x0 SWAP1 PUSH1 0x58 ADD PUSH2 0x141B JUMP JUMPDEST PUSH1 0x0 PUSH32 0xFDA4DD4400000000000000000000000000000000000000000000000000000000 PUSH32 0xFFFFFFFF00000000000000000000000000000000000000000000000000000000 DUP4 AND ADD PUSH2 0x28E7 JUMPI POP PUSH1 0x1 SWAP2 SWAP1 POP JUMP JUMPDEST PUSH2 0x6DE DUP3 PUSH1 0x0 PUSH32 0xE4A77BBC00000000000000000000000000000000000000000000000000000000 PUSH32 0xFFFFFFFF00000000000000000000000000000000000000000000000000000000 DUP4 AND ADD PUSH2 0x293E JUMPI POP PUSH1 0x1 SWAP2 SWAP1 POP JUMP JUMPDEST PUSH2 0x6DE DUP3 PUSH1 0x0 PUSH32 0xDA44F87800000000000000000000000000000000000000000000000000000000 PUSH32 0xFFFFFFFF00000000000000000000000000000000000000000000000000000000 DUP4 AND ADD PUSH2 0x2995 JUMPI POP PUSH1 0x1 SWAP2 SWAP1 POP JUMP JUMPDEST PUSH2 0x6DE DUP3 PUSH1 0x0 PUSH32 0xAE9FA28000000000000000000000000000000000000000000000000000000000 PUSH32 0xFFFFFFFF00000000000000000000000000000000000000000000000000000000 DUP4 AND ADD PUSH2 0x29EC JUMPI POP PUSH1 0x1 SWAP2 SWAP1 POP JUMP JUMPDEST PUSH2 0x6DE DUP3 PUSH1 0x0 PUSH32 0xFFFFFFFF00000000000000000000000000000000000000000000000000000000 DUP3 AND PUSH32 0xAC6A444E00000000000000000000000000000000000000000000000000000000 EQ DUP1 PUSH2 0x2A83 JUMPI POP PUSH32 0xFFFFFFFF00000000000000000000000000000000000000000000000000000000 DUP3 AND PUSH32 0x36E7817500000000000000000000000000000000000000000000000000000000 EQ JUMPDEST ISZERO PUSH2 0x2A90 JUMPI POP PUSH1 0x1 SWAP2 SWAP1 POP JUMP JUMPDEST PUSH32 0x1FFC9A700000000000000000000000000000000000000000000000000000000 PUSH32 0xFFFFFFFF00000000000000000000000000000000000000000000000000000000 DUP4 AND EQ PUSH2 0x6DE JUMP JUMPDEST DUP2 DUP4 DUP3 CALLDATACOPY PUSH1 0x0 SWAP2 ADD SWAP1 DUP2 MSTORE SWAP2 SWAP1 POP JUMP JUMPDEST PUSH32 0xFFFFFFFF00000000000000000000000000000000000000000000000000000000 DUP2 AND DUP2 EQ PUSH2 0x73E JUMPI PUSH1 0x0 DUP1 REVERT JUMPDEST PUSH1 0x0 PUSH1 0x20 DUP3 DUP5 SUB SLT ISZERO PUSH2 0x2B2A JUMPI PUSH1 0x0 DUP1 REVERT JUMPDEST DUP2 CALLDATALOAD PUSH2 0x751 DUP2 PUSH2 0x2AEA JUMP JUMPDEST DUP1 CALLDATALOAD PUSH20 0xFFFFFFFFFFFFFFFFFFFFFFFFFFFFFFFFFFFFFFFF DUP2 AND DUP2 EQ PUSH2 0x2B59 JUMPI PUSH1 0x0 DUP1 REVERT JUMPDEST SWAP2 SWAP1 POP JUMP JUMPDEST PUSH1 0x0 PUSH1 0x20 DUP3 DUP5 SUB SLT ISZERO PUSH2 0x2B70 JUMPI PUSH1 0x0 DUP1 REVERT JUMPDEST PUSH2 0x751 DUP3 PUSH2 0x2B35 JUMP JUMPDEST PUSH1 0x0 DUP1 DUP4 PUSH1 0x1F DUP5 ADD SLT PUSH2 0x2B8B JUMPI PUSH1 0x0 DUP1 REVERT JUMPDEST POP DUP2 CALLDATALOAD PUSH8 0xFFFFFFFFFFFFFFFF DUP2 GT ISZERO PUSH2 0x2BA3 JUMPI PUSH1 0x0 DUP1 REVERT JUMPDEST PUSH1 0x20 DUP4 ADD SWAP2 POP DUP4 PUSH1 0x20 DUP3 DUP6 ADD ADD GT ISZERO PUSH2 0x2BBB JUMPI PUSH1 0x0 DUP1 REVERT JUMPDEST SWAP3 POP SWAP3 SWAP1 POP JUMP JUMPDEST PUSH1 0x0 DUP1 PUSH1 0x0 DUP1 PUSH1 0x0 PUSH1 0x80 DUP7 DUP9 SUB SLT ISZERO PUSH2 0x2BDA JUMPI PUSH1 0x0 DUP1 REVERT JUMPDEST PUSH2 0x2BE3 DUP7 PUSH2 0x2B35 JUMP JUMPDEST SWAP5 POP PUSH2 0x2BF1 PUSH1 0x20 DUP8 ADD PUSH2 0x2B35 JUMP JUMPDEST SWAP4 POP PUSH1 0x40 DUP7 ADD CALLDATALOAD SWAP3 POP PUSH1 0x60 DUP7 ADD CALLDATALOAD PUSH8 0xFFFFFFFFFFFFFFFF DUP2 GT ISZERO PUSH2 0x2C14 JUMPI PUSH1 0x0 DUP1 REVERT JUMPDEST PUSH2 0x2C20 DUP9 DUP3 DUP10 ADD PUSH2 0x2B79 JUMP JUMPDEST SWAP7 SWAP10 SWAP6 SWAP9 POP SWAP4 SWAP7 POP SWAP3 SWAP5 SWAP4 SWAP3 POP POP POP JUMP JUMPDEST PUSH1 0x0 DUP1 PUSH1 0x0 PUSH1 0x40 DUP5 DUP7 SUB SLT ISZERO PUSH2 0x2C46 JUMPI PUSH1 0x0 DUP1 REVERT JUMPDEST DUP4 CALLDATALOAD SWAP3 POP PUSH1 0x20 DUP5 ADD CALLDATALOAD PUSH8 0xFFFFFFFFFFFFFFFF DUP2 GT ISZERO PUSH2 0x2C64 JUMPI PUSH1 0x0 DUP1 REVERT JUMPDEST PUSH2 0x2C70 DUP7 DUP3 DUP8 ADD PUSH2 0x2B79 JUMP JUMPDEST SWAP5 SWAP8 SWAP1 SWAP7 POP SWAP4 SWAP5 POP POP POP POP JUMP JUMPDEST PUSH1 0x0 DUP1 PUSH1 0x0 DUP1 PUSH1 0x40 DUP6 DUP8 SUB SLT ISZERO PUSH2 0x2C93 JUMPI PUSH1 0x0 DUP1 REVERT JUMPDEST DUP5 CALLDATALOAD PUSH8 0xFFFFFFFFFFFFFFFF DUP1 DUP3 GT ISZERO PUSH2 0x2CAB JUMPI PUSH1 0x0 DUP1 REVERT JUMPDEST PUSH2 0x2CB7 DUP9 DUP4 DUP10 ADD PUSH2 0x2B79 JUMP JUMPDEST SWAP1 SWAP7 POP SWAP5 POP PUSH1 0x20 DUP8 ADD CALLDATALOAD SWAP2 POP DUP1 DUP3 GT ISZERO PUSH2 0x2CD0 JUMPI PUSH1 0x0 DUP1 REVERT JUMPDEST POP PUSH2 0x2CDD DUP8 DUP3 DUP9 ADD PUSH2 0x2B79 JUMP JUMPDEST SWAP6 SWAP9 SWAP5 SWAP8 POP SWAP6 POP POP POP POP JUMP JUMPDEST PUSH1 0x0 PUSH1 0x20 DUP3 DUP5 SUB SLT ISZERO PUSH2 0x2CFB JUMPI PUSH1 0x0 DUP1 REVERT JUMPDEST POP CALLDATALOAD SWAP2 SWAP1 POP JUMP JUMPDEST PUSH1 0x0 DUP1 DUP4 PUSH1 0x1F DUP5 ADD SLT PUSH2 0x2D14 JUMPI PUSH1 0x0 DUP1 REVERT JUMPDEST POP DUP2 CALLDATALOAD PUSH8 0xFFFFFFFFFFFFFFFF DUP2 GT ISZERO PUSH2 0x2D2C JUMPI PUSH1 0x0 DUP1 REVERT JUMPDEST PUSH1 0x20 DUP4 ADD SWAP2 POP DUP4 PUSH1 0x20 DUP3 PUSH1 0x5 SHL DUP6 ADD ADD GT ISZERO PUSH2 0x2BBB JUMPI PUSH1 0x0 DUP1 REVERT JUMPDEST PUSH1 0x0 DUP1 PUSH1 0x20 DUP4 DUP6 SUB SLT ISZERO PUSH2 0x2D5A JUMPI PUSH1 0x0 DUP1 REVERT JUMPDEST DUP3 CALLDATALOAD PUSH8 0xFFFFFFFFFFFFFFFF DUP2 GT ISZERO PUSH2 0x2D71 JUMPI PUSH1 0x0 DUP1 REVERT JUMPDEST PUSH2 0x2D7D DUP6 DUP3 DUP7 ADD PUSH2 0x2D02 JUMP JUMPDEST SWAP1 SWAP7 SWAP1 SWAP6 POP SWAP4 POP POP POP POP JUMP JUMPDEST PUSH1 0x0 DUP1 PUSH1 0x0 DUP1 PUSH1 0x0 PUSH1 0x60 DUP7 DUP9 SUB SLT ISZERO PUSH2 0x2DA1 JUMPI PUSH1 0x0 DUP1 REVERT JUMPDEST DUP6 CALLDATALOAD PUSH8 0xFFFFFFFFFFFFFFFF DUP1 DUP3 GT ISZERO PUSH2 0x2DB9 JUMPI PUSH1 0x0 DUP1 REVERT JUMPDEST PUSH2 0x2DC5 DUP10 DUP4 DUP11 ADD PUSH2 0x2D02 JUMP JUMPDEST SWAP1 SWAP8 POP SWAP6 POP PUSH1 0x20 DUP9 ADD CALLDATALOAD SWAP5 POP PUSH1 0x40 DUP9 ADD CALLDATALOAD SWAP2 POP DUP1 DUP3 GT ISZERO PUSH2 0x2DE5 JUMPI PUSH1 0x0 DUP1 REVERT JUMPDEST POP PUSH2 0x2C20 DUP9 DUP3 DUP10 ADD PUSH2 0x2B79 JUMP JUMPDEST PUSH1 0x0 JUMPDEST DUP4 DUP2 LT ISZERO PUSH2 0x2E0D JUMPI DUP2 DUP2 ADD MLOAD DUP4 DUP3 ADD MSTORE PUSH1 0x20 ADD PUSH2 0x2DF5 JUMP JUMPDEST POP POP PUSH1 0x0 SWAP2 ADD MSTORE JUMP JUMPDEST PUSH1 0x0 DUP2 MLOAD DUP1 DUP5 MSTORE PUSH2 0x2E2E DUP2 PUSH1 0x20 DUP7 ADD PUSH1 0x20 DUP7 ADD PUSH2 0x2DF2 JUMP JUMPDEST PUSH1 0x1F ADD PUSH32 0xFFFFFFFFFFFFFFFFFFFFFFFFFFFFFFFFFFFFFFFFFFFFFFFFFFFFFFFFFFFFFFE0 AND SWAP3 SWAP1 SWAP3 ADD PUSH1 0x20 ADD SWAP3 SWAP2 POP POP JUMP JUMPDEST PUSH1 0x20 DUP2 MSTORE PUSH1 0x0 PUSH2 0x751 PUSH1 0x20 DUP4 ADD DUP5 PUSH2 0x2E16 JUMP JUMPDEST PUSH32 0x4E487B7100000000000000000000000000000000000000000000000000000000 PUSH1 0x0 MSTORE PUSH1 0x41 PUSH1 0x4 MSTORE PUSH1 0x24 PUSH1 0x0 REVERT JUMPDEST PUSH1 0x0 PUSH1 0x20 DUP3 DUP5 SUB SLT ISZERO PUSH2 0x2EB4 JUMPI PUSH1 0x0 DUP1 REVERT JUMPDEST DUP2 CALLDATALOAD PUSH8 0xFFFFFFFFFFFFFFFF DUP1 DUP3 GT ISZERO PUSH2 0x2ECC JUMPI PUSH1 0x0 DUP1 REVERT JUMPDEST DUP2 DUP5 ADD SWAP2 POP DUP5 PUSH1 0x1F DUP4 ADD SLT PUSH2 0x2EE0 JUMPI PUSH1 0x0 DUP1 REVERT JUMPDEST DUP2 CALLDATALOAD DUP2 DUP2 GT ISZERO PUSH2 0x2EF2 JUMPI PUSH2 0x2EF2 PUSH2 0x2E73 JUMP JUMPDEST PUSH1 0x40 MLOAD PUSH1 0x1F DUP3 ADD PUSH32 0xFFFFFFFFFFFFFFFFFFFFFFFFFFFFFFFFFFFFFFFFFFFFFFFFFFFFFFFFFFFFFFE0 SWAP1 DUP2 AND PUSH1 0x3F ADD AND DUP2 ADD SWAP1 DUP4 DUP3 GT DUP2 DUP4 LT OR ISZERO PUSH2 0x2F38 JUMPI PUSH2 0x2F38 PUSH2 0x2E73 JUMP JUMPDEST DUP2 PUSH1 0x40 MSTORE DUP3 DUP2 MSTORE DUP8 PUSH1 0x20 DUP5 DUP8 ADD ADD GT ISZERO PUSH2 0x2F51 JUMPI PUSH1 0x0 DUP1 REVERT JUMPDEST DUP3 PUSH1 0x20 DUP7 ADD PUSH1 0x20 DUP4 ADD CALLDATACOPY PUSH1 0x0 SWAP3 DUP2 ADD PUSH1 0x20 ADD SWAP3 SWAP1 SWAP3 MSTORE POP SWAP6 SWAP5 POP POP POP POP POP JUMP JUMPDEST PUSH1 0x0 DUP1 PUSH1 0x40 DUP4 DUP6 SUB SLT ISZERO PUSH2 0x2F84 JUMPI PUSH1 0x0 DUP1 REVERT JUMPDEST DUP3 CALLDATALOAD PUSH2 0x2F8F DUP2 PUSH2 0x2AEA JUMP JUMPDEST SWAP2 POP PUSH2 0x2F9D PUSH1 0x20 DUP5 ADD PUSH2 0x2B35 JUMP JUMPDEST SWAP1 POP SWAP3 POP SWAP3 SWAP1 POP JUMP JUMPDEST PUSH1 0x0 DUP1 PUSH1 0x0 DUP1 PUSH1 0x0 DUP1 PUSH1 0x0 DUP1 PUSH1 0xA0 DUP10 DUP12 SUB SLT ISZERO PUSH2 0x2FC2 JUMPI PUSH1 0x0 DUP1 REVERT JUMPDEST PUSH2 0x2FCB DUP10 PUSH2 0x2B35 JUMP JUMPDEST SWAP8 POP PUSH2 0x2FD9 PUSH1 0x20 DUP11 ADD PUSH2 0x2B35 JUMP JUMPDEST SWAP7 POP PUSH1 0x40 DUP10 ADD CALLDATALOAD PUSH8 0xFFFFFFFFFFFFFFFF DUP1 DUP3 GT ISZERO PUSH2 0x2FF6 JUMPI PUSH1 0x0 DUP1 REVERT JUMPDEST PUSH2 0x3002 DUP13 DUP4 DUP14 ADD PUSH2 0x2D02 JUMP JUMPDEST SWAP1 SWAP9 POP SWAP7 POP PUSH1 0x60 DUP12 ADD CALLDATALOAD SWAP2 POP DUP1 DUP3 GT ISZERO PUSH2 0x301B JUMPI PUSH1 0x0 DUP1 REVERT JUMPDEST PUSH2 0x3027 DUP13 DUP4 DUP14 ADD PUSH2 0x2D02 JUMP JUMPDEST SWAP1 SWAP7 POP SWAP5 POP PUSH1 0x80 DUP12 ADD CALLDATALOAD SWAP2 POP DUP1 DUP3 GT ISZERO PUSH2 0x3040 JUMPI PUSH1 0x0 DUP1 REVERT JUMPDEST POP PUSH2 0x304D DUP12 DUP3 DUP13 ADD PUSH2 0x2B79 JUMP JUMPDEST SWAP10 SWAP13 SWAP9 SWAP12 POP SWAP7 SWAP10 POP SWAP5 SWAP8 SWAP4 SWAP7 SWAP3 SWAP6 SWAP5 POP POP POP JUMP JUMPDEST PUSH1 0x0 DUP1 PUSH1 0x40 DUP4 DUP6 SUB SLT ISZERO PUSH2 0x3074 JUMPI PUSH1 0x0 DUP1 REVERT JUMPDEST POP POP DUP1 CALLDATALOAD SWAP3 PUSH1 0x20 SWAP1 SWAP2 ADD CALLDATALOAD SWAP2 POP JUMP JUMPDEST PUSH1 0x0 DUP1 PUSH1 0x0 DUP1 PUSH1 0x0 DUP1 PUSH1 0xA0 DUP8 DUP10 SUB SLT ISZERO PUSH2 0x309C JUMPI PUSH1 0x0 DUP1 REVERT JUMPDEST PUSH2 0x30A5 DUP8 PUSH2 0x2B35 JUMP JUMPDEST SWAP6 POP PUSH2 0x30B3 PUSH1 0x20 DUP9 ADD PUSH2 0x2B35 JUMP JUMPDEST SWAP5 POP PUSH1 0x40 DUP8 ADD CALLDATALOAD SWAP4 POP PUSH1 0x60 DUP8 ADD CALLDATALOAD SWAP3 POP PUSH1 0x80 DUP8 ADD CALLDATALOAD PUSH8 0xFFFFFFFFFFFFFFFF DUP2 GT ISZERO PUSH2 0x30DD JUMPI PUSH1 0x0 DUP1 REVERT JUMPDEST PUSH2 0x30E9 DUP10 DUP3 DUP11 ADD PUSH2 0x2B79 JUMP JUMPDEST SWAP8 SWAP11 SWAP7 SWAP10 POP SWAP5 SWAP8 POP SWAP3 SWAP6 SWAP4 SWAP5 SWAP3 POP POP POP JUMP JUMPDEST DUP1 CALLDATALOAD DUP1 ISZERO ISZERO DUP2 EQ PUSH2 0x2B59 JUMPI PUSH1 0x0 DUP1 REVERT JUMPDEST DUP2 DUP4 MSTORE DUP2 DUP2 PUSH1 0x20 DUP6 ADD CALLDATACOPY POP PUSH1 0x0 PUSH1 0x20 DUP3 DUP5 ADD ADD MSTORE PUSH1 0x0 PUSH1 0x20 PUSH32 0xFFFFFFFFFFFFFFFFFFFFFFFFFFFFFFFFFFFFFFFFFFFFFFFFFFFFFFFFFFFFFFE0 PUSH1 0x1F DUP5 ADD AND DUP5 ADD ADD SWAP1 POP SWAP3 SWAP2 POP POP JUMP JUMPDEST DUP2 DUP4 MSTORE PUSH1 0x0 PUSH1 0x20 DUP1 DUP6 ADD DUP1 DUP2 SWAP7 POP DUP6 PUSH1 0x5 SHL DUP2 ADD SWAP2 POP DUP5 PUSH1 0x0 JUMPDEST DUP8 DUP2 LT ISZERO PUSH2 0x3296 JUMPI DUP3 DUP5 SUB DUP10 MSTORE DUP2 CALLDATALOAD PUSH32 0xFFFFFFFFFFFFFFFFFFFFFFFFFFFFFFFFFFFFFFFFFFFFFFFFFFFFFFFFFFFFFF41 DUP9 CALLDATASIZE SUB ADD DUP2 SLT PUSH2 0x31AD JUMPI PUSH1 0x0 DUP1 REVERT JUMPDEST DUP8 ADD PUSH1 0xC0 PUSH2 0x31BA DUP3 PUSH2 0x30FB JUMP JUMPDEST ISZERO ISZERO DUP7 MSTORE PUSH2 0x31C9 DUP8 DUP4 ADD PUSH2 0x30FB JUMP JUMPDEST ISZERO ISZERO DUP7 DUP9 ADD MSTORE PUSH1 0x40 DUP3 DUP2 ADD CALLDATALOAD SWAP1 DUP8 ADD MSTORE PUSH1 0x60 PUSH20 0xFFFFFFFFFFFFFFFFFFFFFFFFFFFFFFFFFFFFFFFF PUSH2 0x31FB DUP3 DUP6 ADD PUSH2 0x2B35 JUMP JUMPDEST AND SWAP1 DUP8 ADD MSTORE PUSH1 0x80 DUP3 DUP2 ADD CALLDATALOAD SWAP1 DUP8 ADD MSTORE PUSH1 0xA0 DUP1 DUP4 ADD CALLDATALOAD CALLDATASIZE DUP5 SWAP1 SUB PUSH32 0xFFFFFFFFFFFFFFFFFFFFFFFFFFFFFFFFFFFFFFFFFFFFFFFFFFFFFFFFFFFFFFE1 ADD DUP2 SLT PUSH2 0x3241 JUMPI PUSH1 0x0 DUP1 REVERT JUMPDEST SWAP1 SWAP3 ADD DUP8 DUP2 ADD SWAP3 SWAP1 CALLDATALOAD PUSH8 0xFFFFFFFFFFFFFFFF DUP2 GT ISZERO PUSH2 0x325F JUMPI PUSH1 0x0 DUP1 REVERT JUMPDEST DUP1 CALLDATASIZE SUB DUP5 SGT ISZERO PUSH2 0x326E JUMPI PUSH1 0x0 DUP1 REVERT JUMPDEST DUP3 DUP3 DUP10 ADD MSTORE PUSH2 0x3280 DUP4 DUP10 ADD DUP3 DUP7 PUSH2 0x310B JUMP JUMPDEST SWAP13 DUP10 ADD SWAP13 SWAP8 POP POP POP SWAP3 DUP7 ADD SWAP3 POP POP PUSH1 0x1 ADD PUSH2 0x316E JUMP JUMPDEST POP SWAP2 SWAP8 SWAP7 POP POP POP POP POP POP POP JUMP JUMPDEST PUSH1 0x40 DUP2 MSTORE PUSH1 0x5 PUSH1 0x40 DUP3 ADD MSTORE PUSH32 0x73656C663A000000000000000000000000000000000000000000000000000000 PUSH1 0x60 DUP3 ADD MSTORE PUSH1 0x80 PUSH1 0x20 DUP3 ADD MSTORE PUSH1 0x0 PUSH2 0x74E PUSH1 0x80 DUP4 ADD DUP5 DUP7 PUSH2 0x3154 JUMP JUMPDEST DUP4 DUP2 MSTORE PUSH1 0x40 PUSH1 0x20 DUP3 ADD MSTORE PUSH1 0x0 PUSH2 0x771 PUSH1 0x40 DUP4 ADD DUP5 DUP7 PUSH2 0x3154 JUMP JUMPDEST DUP4 DUP2 MSTORE PUSH1 0x40 PUSH1 0x20 DUP3 ADD MSTORE PUSH1 0x0 PUSH2 0x771 PUSH1 0x40 DUP4 ADD DUP5 DUP7 PUSH2 0x310B JUMP JUMPDEST PUSH32 0x4E487B7100000000000000000000000000000000000000000000000000000000 PUSH1 0x0 MSTORE PUSH1 0x32 PUSH1 0x4 MSTORE PUSH1 0x24 PUSH1 0x0 REVERT JUMPDEST PUSH32 0x697066733A2F2F00000000000000000000000000000000000000000000000000 DUP2 MSTORE PUSH1 0x0 DUP3 MLOAD PUSH2 0x3386 DUP2 PUSH1 0x7 DUP6 ADD PUSH1 0x20 DUP8 ADD PUSH2 0x2DF2 JUMP JUMPDEST SWAP2 SWAP1 SWAP2 ADD PUSH1 0x7 ADD SWAP3 SWAP2 POP POP JUMP JUMPDEST PUSH1 0x0 DUP3 CALLDATALOAD PUSH32 0xFFFFFFFFFFFFFFFFFFFFFFFFFFFFFFFFFFFFFFFFFFFFFFFFFFFFFFFFFFFFFF41 DUP4 CALLDATASIZE SUB ADD DUP2 SLT PUSH2 0x33C7 JUMPI PUSH1 0x0 DUP1 REVERT JUMPDEST SWAP2 SWAP1 SWAP2 ADD SWAP3 SWAP2 POP POP JUMP JUMPDEST PUSH1 0x0 PUSH1 0x20 DUP3 DUP5 SUB SLT ISZERO PUSH2 0x33E3 JUMPI PUSH1 0x0 DUP1 REVERT JUMPDEST PUSH2 0x751 DUP3 PUSH2 0x30FB JUMP JUMPDEST PUSH1 0x0 DUP1 DUP4 CALLDATALOAD PUSH32 0xFFFFFFFFFFFFFFFFFFFFFFFFFFFFFFFFFFFFFFFFFFFFFFFFFFFFFFFFFFFFFFE1 DUP5 CALLDATASIZE SUB ADD DUP2 SLT PUSH2 0x3421 JUMPI PUSH1 0x0 DUP1 REVERT JUMPDEST DUP4 ADD DUP1 CALLDATALOAD SWAP2 POP PUSH8 0xFFFFFFFFFFFFFFFF DUP3 GT ISZERO PUSH2 0x343C JUMPI PUSH1 0x0 DUP1 REVERT JUMPDEST PUSH1 0x20 ADD SWAP2 POP CALLDATASIZE DUP2 SWAP1 SUB DUP3 SGT ISZERO PUSH2 0x2BBB JUMPI PUSH1 0x0 DUP1 REVERT JUMPDEST PUSH1 0x0 DUP1 DUP6 DUP6 GT ISZERO PUSH2 0x3461 JUMPI PUSH1 0x0 DUP1 REVERT JUMPDEST DUP4 DUP7 GT ISZERO PUSH2 0x346E JUMPI PUSH1 0x0 DUP1 REVERT JUMPDEST POP POP DUP3 ADD SWAP4 SWAP2 SWAP1 SWAP3 SUB SWAP2 POP JUMP JUMPDEST PUSH32 0x4E487B7100000000000000000000000000000000000000000000000000000000 PUSH1 0x0 MSTORE PUSH1 0x11 PUSH1 0x4 MSTORE PUSH1 0x24 PUSH1 0x0 REVERT JUMPDEST DUP1 DUP3 ADD DUP1 DUP3 GT ISZERO PUSH2 0x6DE JUMPI PUSH2 0x6DE PUSH2 0x347B JUMP JUMPDEST PUSH1 0x60 DUP2 MSTORE PUSH1 0x0 PUSH2 0x34D1 PUSH1 0x60 DUP4 ADD DUP7 DUP9 PUSH2 0x310B JUMP JUMPDEST PUSH1 0x20 DUP4 ADD SWAP5 SWAP1 SWAP5 MSTORE POP PUSH1 0x40 ADD MSTORE SWAP3 SWAP2 POP POP JUMP JUMPDEST PUSH32 0x6200000000000000000000000000000000000000000000000000000000000000 DUP2 MSTORE PUSH1 0x0 DUP3 MLOAD PUSH2 0x351C DUP2 PUSH1 0x1 DUP6 ADD PUSH1 0x20 DUP8 ADD PUSH2 0x2DF2 JUMP JUMPDEST SWAP2 SWAP1 SWAP2 ADD PUSH1 0x1 ADD SWAP3 SWAP2 POP POP JUMP JUMPDEST DUP3 DUP2 MSTORE PUSH1 0x40 PUSH1 0x20 DUP3 ADD MSTORE PUSH1 0x0 PUSH2 0x74E PUSH1 0x40 DUP4 ADD DUP5 PUSH2 0x2E16 JUMP JUMPDEST DUP5 DUP2 MSTORE PUSH20 0xFFFFFFFFFFFFFFFFFFFFFFFFFFFFFFFFFFFFFFFF DUP5 AND PUSH1 0x20 DUP3 ADD MSTORE PUSH1 0x60 PUSH1 0x40 DUP3 ADD MSTORE PUSH1 0x0 PUSH2 0x3578 PUSH1 0x60 DUP4 ADD DUP5 DUP7 PUSH2 0x310B JUMP JUMPDEST SWAP7 SWAP6 POP POP POP POP POP POP JUMP JUMPDEST PUSH1 0x20 DUP2 MSTORE PUSH1 0x0 PUSH2 0x74E PUSH1 0x20 DUP4 ADD DUP5 DUP7 PUSH2 0x310B JUMP JUMPDEST DUP2 DUP2 SUB DUP2 DUP2 GT ISZERO PUSH2 0x6DE JUMPI PUSH2 0x6DE PUSH2 0x347B JUMP JUMPDEST PUSH1 0x40 DUP2 MSTORE PUSH1 0x0 PUSH2 0x35BD PUSH1 0x40 DUP4 ADD DUP6 DUP8 PUSH2 0x310B JUMP JUMPDEST SWAP1 POP DUP3 PUSH1 0x20 DUP4 ADD MSTORE SWAP5 SWAP4 POP POP POP POP JUMP JUMPDEST PUSH1 0x40 DUP2 MSTORE PUSH1 0x0 PUSH2 0x35E1 PUSH1 0x40 DUP4 ADD DUP6 DUP8 PUSH2 0x310B JUMP JUMPDEST SWAP1 POP PUSH1 0xFF DUP4 AND PUSH1 0x20 DUP4 ADD MSTORE SWAP5 SWAP4 POP POP POP POP JUMP JUMPDEST PUSH1 0x60 DUP2 MSTORE PUSH1 0x0 PUSH2 0x3608 PUSH1 0x60 DUP4 ADD DUP7 DUP9 PUSH2 0x310B JUMP JUMPDEST PUSH1 0x20 DUP4 ADD SWAP5 SWAP1 SWAP5 MSTORE POP SWAP1 ISZERO ISZERO PUSH1 0x40 SWAP1 SWAP2 ADD MSTORE SWAP3 SWAP2 POP POP JUMP JUMPDEST PUSH1 0x0 PUSH1 0x20 DUP3 DUP5 SUB SLT ISZERO PUSH2 0x3632 JUMPI PUSH1 0x0 DUP1 REVERT JUMPDEST DUP2 MLOAD PUSH2 0x751 DUP2 PUSH2 0x2AEA JUMP INVALID LOG2 PUSH5 0x6970667358 0x22 SLT KECCAK256 SWAP15 LOG1 CALLCODE SWAP11 DUP2 0xEF DIV CREATE 0xD1 0xC4 MSTORE 0xDA RETURNDATASIZE 0xB4 DUP15 SAR PREVRANDAO 0x23 0xC6 BLOCKHASH DUP10 CALLER EXTCODESIZE 0xD5 0xBF SWAP12 PREVRANDAO 0xB4 0xCB 0x4B XOR 0xCF PUSH5 0x736F6C6343 STOP ADDMOD SLT STOP CALLER "
				}
			},
			"userdoc": {
				"kind": "user",
				"methods": {
					"addHook(bytes4,address)": {
						"notice": "Adds a new hook to handle a given function selector"
					},
					"createContract(bytes)": {
						"notice": "Creates a contract forwarding eth value"
					},
					"execute((bool,bool,uint256,address,uint256,bytes)[],uint256,bytes)": {
						"notice": "Allow wallet owner to execute an action"
					},
					"externalImageHash()": {
						"notice": "Returns the current external image hash of the wallet (only for `ERC-1271`)"
					},
					"imageHash()": {
						"notice": "Returns the current image hash of the wallet"
					},
					"nonce()": {
						"notice": "Returns the next nonce of the default nonce space"
					},
					"onERC1155BatchReceived(address,address,uint256[],uint256[],bytes)": {
						"notice": "Handle the receipt of multiple ERC1155 token types."
					},
					"onERC1155Received(address,address,uint256,uint256,bytes)": {
						"notice": "Handle the receipt of a single ERC1155 token type."
					},
					"onERC721Received(address,address,uint256,bytes)": {
						"notice": "Handle the receipt of a single ERC721 token."
					},
					"readHook(bytes4)": {
						"notice": "Reads the implementation hook of a signature"
					},
					"readNonce(uint256)": {
						"notice": "Returns the next nonce of the given nonce space"
					},
					"removeHook(bytes4)": {
						"notice": "Removes a registered hook"
					},
					"selfExecute((bool,bool,uint256,address,uint256,bytes)[])": {
						"notice": "Allow wallet to execute an action   without signing the message"
					},
					"signatureRecovery(bytes32,bytes)": {
						"notice": "Recovers the threshold, weight, imageHash, subdigest, and checkpoint of a signature."
					},
					"supportsInterface(bytes4)": {
						"notice": "Query if a contract implements an interface"
					},
					"updateExternalImageHash(bytes32)": {
						"notice": "Updates the external image hash of the wallet"
					},
					"updateImageHash(bytes32)": {
						"notice": "Updates the signers configuration of the wallet"
					},
					"updateImageHashAndIPFS(bytes32,bytes32)": {
						"notice": "Updates the image hash and the IPFS root in a single operation."
					},
					"updateImplementation(address)": {
						"notice": "Updates the implementation of the base wallet"
					}
				},
				"notice": "Contains an alternative to `MainModuleUpgradable` that allows defining a different         imageHash for `execute` and ERC-1271 (`isValidSignature`) calls.",
				"version": 1
			}
		}
	}
}