{
	"contracts/modules/MainModuleUpgradableDuo.sol": {
		"MainModuleUpgradableDuo": {
			"abi": [
				{
					"anonymous": false,
					"inputs": [
						{
							"indexed": false,
							"internalType": "address",
							"name": "_contract",
							"type": "address"
						}
					],
					"name": "CreatedContract",
					"type": "event"
				},
				{
					"anonymous": false,
					"inputs": [
						{
							"indexed": false,
							"internalType": "bytes32",
							"name": "newExternalImageHash",
							"type": "bytes32"
						}
					],
					"name": "ExternalImageHashUpdated",
					"type": "event"
				},
				{
					"anonymous": false,
					"inputs": [
						{
							"indexed": false,
							"internalType": "bytes32",
							"name": "newImageHash",
							"type": "bytes32"
						}
					],
					"name": "ImageHashUpdated",
					"type": "event"
				},
				{
					"anonymous": false,
					"inputs": [
						{
							"indexed": false,
							"internalType": "address",
							"name": "newImplementation",
							"type": "address"
						}
					],
					"name": "ImplementationUpdated",
					"type": "event"
				},
				{
					"anonymous": false,
					"inputs": [
						{
							"indexed": false,
							"internalType": "uint256",
							"name": "_space",
							"type": "uint256"
						},
						{
							"indexed": false,
							"internalType": "uint256",
							"name": "_newNonce",
							"type": "uint256"
						}
					],
					"name": "NonceChange",
					"type": "event"
				},
				{
					"anonymous": true,
					"inputs": [
						{
							"indexed": false,
							"internalType": "bytes32",
							"name": "_tx",
							"type": "bytes32"
						}
					],
					"name": "TxExecuted",
					"type": "event"
				},
				{
					"anonymous": false,
					"inputs": [
						{
							"indexed": false,
							"internalType": "bytes32",
							"name": "_tx",
							"type": "bytes32"
						},
						{
							"indexed": false,
							"internalType": "bytes",
							"name": "_reason",
							"type": "bytes"
						}
					],
					"name": "TxFailed",
					"type": "event"
				},
				{
					"stateMutability": "payable",
					"type": "fallback"
				},
				{
					"inputs": [
						{
							"internalType": "bytes4",
							"name": "_signature",
							"type": "bytes4"
						},
						{
							"internalType": "address",
							"name": "_implementation",
							"type": "address"
						}
					],
					"name": "addHook",
					"outputs": [],
					"stateMutability": "nonpayable",
					"type": "function"
				},
				{
					"inputs": [
						{
							"internalType": "bytes",
							"name": "_code",
							"type": "bytes"
						}
					],
					"name": "createContract",
					"outputs": [
						{
							"internalType": "address",
							"name": "addr",
							"type": "address"
						}
					],
					"stateMutability": "payable",
					"type": "function"
				},
				{
					"inputs": [
						{
							"components": [
								{
									"internalType": "bool",
									"name": "delegateCall",
									"type": "bool"
								},
								{
									"internalType": "bool",
									"name": "revertOnError",
									"type": "bool"
								},
								{
									"internalType": "uint256",
									"name": "gasLimit",
									"type": "uint256"
								},
								{
									"internalType": "address",
									"name": "target",
									"type": "address"
								},
								{
									"internalType": "uint256",
									"name": "value",
									"type": "uint256"
								},
								{
									"internalType": "bytes",
									"name": "data",
									"type": "bytes"
								}
							],
							"internalType": "struct IModuleCalls.Transaction[]",
							"name": "_txs",
							"type": "tuple[]"
						},
						{
							"internalType": "uint256",
							"name": "_nonce",
							"type": "uint256"
						},
						{
							"internalType": "bytes",
							"name": "_signature",
							"type": "bytes"
						}
					],
					"name": "execute",
					"outputs": [],
					"stateMutability": "nonpayable",
					"type": "function"
				},
				{
					"inputs": [],
					"name": "externalImageHash",
					"outputs": [
						{
							"internalType": "bytes32",
							"name": "",
							"type": "bytes32"
						}
					],
					"stateMutability": "view",
					"type": "function"
				},
				{
					"inputs": [],
					"name": "imageHash",
					"outputs": [
						{
							"internalType": "bytes32",
							"name": "",
							"type": "bytes32"
						}
					],
					"stateMutability": "view",
					"type": "function"
				},
				{
					"inputs": [
						{
							"internalType": "bytes32",
							"name": "_hash",
							"type": "bytes32"
						},
						{
							"internalType": "bytes",
							"name": "_signatures",
							"type": "bytes"
						}
					],
					"name": "isValidSignature",
					"outputs": [
						{
							"internalType": "bytes4",
							"name": "",
							"type": "bytes4"
						}
					],
					"stateMutability": "view",
					"type": "function"
				},
				{
					"inputs": [
						{
							"internalType": "bytes",
							"name": "_data",
							"type": "bytes"
						},
						{
							"internalType": "bytes",
							"name": "_signatures",
							"type": "bytes"
						}
					],
					"name": "isValidSignature",
					"outputs": [
						{
							"internalType": "bytes4",
							"name": "",
							"type": "bytes4"
						}
					],
					"stateMutability": "view",
					"type": "function"
				},
				{
					"inputs": [],
					"name": "nonce",
					"outputs": [
						{
							"internalType": "uint256",
							"name": "",
							"type": "uint256"
						}
					],
					"stateMutability": "view",
					"type": "function"
				},
				{
					"inputs": [
						{
							"internalType": "address",
							"name": "",
							"type": "address"
						},
						{
							"internalType": "address",
							"name": "",
							"type": "address"
						},
						{
							"internalType": "uint256[]",
							"name": "",
							"type": "uint256[]"
						},
						{
							"internalType": "uint256[]",
							"name": "",
							"type": "uint256[]"
						},
						{
							"internalType": "bytes",
							"name": "",
							"type": "bytes"
						}
					],
					"name": "onERC1155BatchReceived",
					"outputs": [
						{
							"internalType": "bytes4",
							"name": "",
							"type": "bytes4"
						}
					],
					"stateMutability": "nonpayable",
					"type": "function"
				},
				{
					"inputs": [
						{
							"internalType": "address",
							"name": "",
							"type": "address"
						},
						{
							"internalType": "address",
							"name": "",
							"type": "address"
						},
						{
							"internalType": "uint256",
							"name": "",
							"type": "uint256"
						},
						{
							"internalType": "uint256",
							"name": "",
							"type": "uint256"
						},
						{
							"internalType": "bytes",
							"name": "",
							"type": "bytes"
						}
					],
					"name": "onERC1155Received",
					"outputs": [
						{
							"internalType": "bytes4",
							"name": "",
							"type": "bytes4"
						}
					],
					"stateMutability": "nonpayable",
					"type": "function"
				},
				{
					"inputs": [
						{
							"internalType": "address",
							"name": "",
							"type": "address"
						},
						{
							"internalType": "address",
							"name": "",
							"type": "address"
						},
						{
							"internalType": "uint256",
							"name": "",
							"type": "uint256"
						},
						{
							"internalType": "bytes",
							"name": "",
							"type": "bytes"
						}
					],
					"name": "onERC721Received",
					"outputs": [
						{
							"internalType": "bytes4",
							"name": "",
							"type": "bytes4"
						}
					],
					"stateMutability": "nonpayable",
					"type": "function"
				},
				{
					"inputs": [
						{
							"internalType": "bytes4",
							"name": "_signature",
							"type": "bytes4"
						}
					],
					"name": "readHook",
					"outputs": [
						{
							"internalType": "address",
							"name": "",
							"type": "address"
						}
					],
					"stateMutability": "view",
					"type": "function"
				},
				{
					"inputs": [
						{
							"internalType": "uint256",
							"name": "_space",
							"type": "uint256"
						}
					],
					"name": "readNonce",
					"outputs": [
						{
							"internalType": "uint256",
							"name": "",
							"type": "uint256"
						}
					],
					"stateMutability": "view",
					"type": "function"
				},
				{
					"inputs": [
						{
							"internalType": "bytes4",
							"name": "_signature",
							"type": "bytes4"
						}
					],
					"name": "removeHook",
					"outputs": [],
					"stateMutability": "nonpayable",
					"type": "function"
				},
				{
					"inputs": [
						{
							"components": [
								{
									"internalType": "bool",
									"name": "delegateCall",
									"type": "bool"
								},
								{
									"internalType": "bool",
									"name": "revertOnError",
									"type": "bool"
								},
								{
									"internalType": "uint256",
									"name": "gasLimit",
									"type": "uint256"
								},
								{
									"internalType": "address",
									"name": "target",
									"type": "address"
								},
								{
									"internalType": "uint256",
									"name": "value",
									"type": "uint256"
								},
								{
									"internalType": "bytes",
									"name": "data",
									"type": "bytes"
								}
							],
							"internalType": "struct IModuleCalls.Transaction[]",
							"name": "_txs",
							"type": "tuple[]"
						}
					],
					"name": "selfExecute",
					"outputs": [],
					"stateMutability": "nonpayable",
					"type": "function"
				},
				{
					"inputs": [
						{
							"internalType": "bytes4",
							"name": "_interfaceID",
							"type": "bytes4"
						}
					],
					"name": "supportsInterface",
					"outputs": [
						{
							"internalType": "bool",
							"name": "",
							"type": "bool"
						}
					],
					"stateMutability": "pure",
					"type": "function"
				},
				{
					"inputs": [
						{
							"internalType": "bytes32",
							"name": "_imageHash",
							"type": "bytes32"
						}
					],
					"name": "updateExternalImageHash",
					"outputs": [],
					"stateMutability": "nonpayable",
					"type": "function"
				},
				{
					"inputs": [
						{
							"internalType": "bytes32",
							"name": "_imageHash",
							"type": "bytes32"
						}
					],
					"name": "updateImageHash",
					"outputs": [],
					"stateMutability": "nonpayable",
					"type": "function"
				},
				{
					"inputs": [
						{
							"internalType": "address",
							"name": "_implementation",
							"type": "address"
						}
					],
					"name": "updateImplementation",
					"outputs": [],
					"stateMutability": "nonpayable",
					"type": "function"
				},
				{
					"stateMutability": "payable",
					"type": "receive"
				}
			],
			"devdoc": {
				"details": "If using a new main module, developpers must ensure that all inherited      contracts by the mainmodule don't conflict and are accounted for to be      supported by the supportsInterface method.",
				"kind": "dev",
				"methods": {
					"addHook(bytes4,address)": {
						"details": "Can't overwrite hooks that are part of the mainmodule (those defined below)",
						"params": {
							"_implementation": "Hook implementation contract",
							"_signature": "Signature function linked to the hook"
						}
					},
					"createContract(bytes)": {
						"params": {
							"_code": "Creation code of the contract"
						},
						"returns": {
							"addr": "The address of the created contract"
						}
					},
					"execute((bool,bool,uint256,address,uint256,bytes)[],uint256,bytes)": {
						"details": "Relayers must ensure that the gasLimit specified for each transaction      is acceptable to them. A user could specify large enough that it could      consume all the gas available.",
						"params": {
							"_nonce": "Signature nonce (may contain an encoded space)",
							"_signature": "Encoded signature",
							"_txs": "Transactions to process"
						}
					},
					"isValidSignature(bytes,bytes)": {
						"details": "MUST return the correct magic value if the signature provided is valid for the provided data   > The bytes4 magic value to return when signature is valid is 0x20c13b0b : bytes4(keccak256(\"isValidSignature(bytes,bytes)\"))",
						"params": {
							"_data": "Arbitrary length data signed on the behalf of address(this)",
							"_signatures": "Signature byte array associated with _data.                    Encoded as abi.encode(Signature[], Configs)"
						},
						"returns": {
							"_0": "magicValue Magic value 0x20c13b0b if the signature is valid and 0x0 otherwise"
						}
					},
					"isValidSignature(bytes32,bytes)": {
						"details": "MUST return the correct magic value if the signature provided is valid for the provided hash   > The bytes4 magic value to return when signature is valid is 0x1626ba7e : bytes4(keccak256(\"isValidSignature(bytes32,bytes)\"))",
						"params": {
							"_hash": "keccak256 hash that was signed",
							"_signatures": "Signature byte array associated with _data.                    Encoded as abi.encode(Signature[], Configs)"
						},
						"returns": {
							"_0": "magicValue Magic value 0x1626ba7e if the signature is valid and 0x0 otherwise"
						}
					},
					"nonce()": {
						"details": "The default nonce space is 0x00",
						"returns": {
							"_0": "The next nonce"
						}
					},
					"onERC1155BatchReceived(address,address,uint256[],uint256[],bytes)": {
						"returns": {
							"_0": "`bytes4(keccak256(\"onERC1155BatchReceived(address,address,uint256[],uint256[],bytes)\"))`"
						}
					},
					"onERC1155Received(address,address,uint256,uint256,bytes)": {
						"returns": {
							"_0": "`bytes4(keccak256(\"onERC1155Received(address,address,uint256,uint256,bytes)\"))`"
						}
					},
					"onERC721Received(address,address,uint256,bytes)": {
						"returns": {
							"_0": "`bytes4(keccak256(\"onERC721Received(address,address,uint256,bytes)\"))`"
						}
					},
					"readHook(bytes4)": {
						"params": {
							"_signature": "Signature function"
						},
						"returns": {
							"_0": "The address of the implementation hook, address(0) if none"
						}
					},
					"readNonce(uint256)": {
						"params": {
							"_space": "Nonce space, each space keeps an independent nonce count"
						},
						"returns": {
							"_0": "The next nonce"
						}
					},
					"removeHook(bytes4)": {
						"details": "Can't remove hooks that are part of the mainmodule (those defined below)       without upgrading the wallet",
						"params": {
							"_signature": "Signature function linked to the hook"
						}
					},
					"selfExecute((bool,bool,uint256,address,uint256,bytes)[])": {
						"params": {
							"_txs": "Transactions to execute"
						}
					},
					"supportsInterface(bytes4)": {
						"details": "If using a new main module, developpers must ensure that all inherited      contracts by the mainmodule don't conflict and are accounted for to be      supported by the supportsInterface method.",
						"params": {
							"_interfaceID": "The interface identifier, as specified in ERC-165"
						},
						"returns": {
							"_0": "`true` if the contract implements `_interfaceID`"
						}
					},
					"updateExternalImageHash(bytes32)": {
						"params": {
							"_imageHash": "New required image hash of the ERC-1271 signatures"
						}
					},
					"updateImageHash(bytes32)": {
						"details": "It is recommended to not have more than 200 signers as opcode repricing      could make transactions impossible to execute as all the signers must be      passed for each transaction.",
						"params": {
							"_imageHash": "New required image hash of the signature"
						}
					},
					"updateImplementation(address)": {
						"details": "WARNING Updating the implementation can brick the wallet",
						"params": {
							"_implementation": "New main module implementation"
						}
					}
				},
				"version": 1
			},
			"evm": {
				"bytecode": {
					"linkReferences": {},
					"object": "608060405234801561001057600080fd5b5061337a806100206000396000f3fe6080604052600436106101485760003560e01c806361c2926c116100c05780639bd58b1611610074578063b93ea7ad11610059578063b93ea7ad1461043b578063bc197c811461045b578063f23a6e611461047b5761014f565b80639bd58b1614610411578063affed0e0146104265761014f565b80638976c44c116100a55780638976c44c146103be5780638c3f5563146103de57806390042baf146103fe5761014f565b806361c2926c1461037e5780637a9a16281461039e5761014f565b80631a9b23371161011757806329561426116100fc578063295614261461031c5780634fcf3eca1461033c57806351605d801461035c5761014f565b80631a9b2337146102cf57806320c13b0b146102fc5761014f565b806301ffc9a71461022a578063025b22bc14610260578063150b7a02146102825780631626ba7e146102af5761014f565b3661014f57005b600061017e6000357fffffffff000000000000000000000000000000000000000000000000000000001661049b565b905073ffffffffffffffffffffffffffffffffffffffff811615610227576000808273ffffffffffffffffffffffffffffffffffffffff166000366040518083838082843760405192019450600093509091505080830381855af49150503d8060008114610208576040519150601f19603f3d011682016040523d82523d6000602084013e61020d565b606091505b50915091508161021f57805160208201fd5b805160208201f35b50005b34801561023657600080fd5b5061024a610245366004612aad565b6104f1565b6040516102579190612cc4565b60405180910390f35b34801561026c57600080fd5b5061028061027b3660046127fa565b6104fc565b005b34801561028e57600080fd5b506102a261029d3660046128cb565b61061d565b6040516102579190612cf1565b3480156102bb57600080fd5b506102a26102ca366004612a63565b610647565b3480156102db57600080fd5b506102ef6102ea366004612aad565b61065e565b6040516102579190612ca3565b34801561030857600080fd5b506102a2610317366004612af9565b610669565b34801561032857600080fd5b50610280610337366004612a4b565b610682565b34801561034857600080fd5b50610280610357366004612aad565b610790565b34801561036857600080fd5b5061037161086e565b6040516102579190612ccf565b34801561038a57600080fd5b506102806103993660046129ae565b61089e565b3480156103aa57600080fd5b506102806103b93660046129e1565b610937565b3480156103ca57600080fd5b506102806103d9366004612a4b565b6109b3565b3480156103ea57600080fd5b506103716103f9366004612a4b565b610ac1565b6102ef61040c366004612b62565b610aed565b34801561041d57600080fd5b50610371610ba1565b34801561043257600080fd5b50610371610bcc565b34801561044757600080fd5b50610280610456366004612ac7565b610bd8565b34801561046757600080fd5b506102a2610476366004612814565b610cb1565b34801561048757600080fd5b506102a2610496366004612938565b610cde565b60006104e97fbe27a319efc8734e89e26ba4bc95f5c788584163b959f03fa04e2d7ab4b9a1207fffffffff000000000000000000000000000000000000000000000000000000008416610d09565b90505b919050565b60006104e982610d36565b333014610554576040517f08c379a000000000000000000000000000000000000000000000000000000000815260040180806020018281038252602781526020018061331e6027913960400191505060405180910390fd5b6105738173ffffffffffffffffffffffffffffffffffffffff16610d93565b6105c8576040517f08c379a00000000000000000000000000000000000000000000000000000000081526004018080602001828103825260398152602001806132046039913960400191505060405180910390fd5b6105d181610d99565b6040805173ffffffffffffffffffffffffffffffffffffffff8316815290517f310ba5f1d2ed074b51e2eccd052a47ae9ab7c6b800d1fca3db3999d6a592ca039181900360200190a150565b7f150b7a020000000000000000000000000000000000000000000000000000000095945050505050565b6000610654848484610d9d565b90505b9392505050565b60006104e98261049b565b600061067785858585610def565b90505b949350505050565b3330146106da576040517f08c379a000000000000000000000000000000000000000000000000000000000815260040180806020018281038252602781526020018061331e6027913960400191505060405180910390fd5b80610730576040517f08c379a0000000000000000000000000000000000000000000000000000000008152600401808060200182810382526037815260200180612fb36037913960400191505060405180910390fd5b61075a7fea7157fa25e3aa17d0ae2d5280fa4e24d421c61842aa85e45194e1145aa72bf882610e57565b6040805182815290517f307ed6bd941ee9fc80f369c94af5fa11e25bab5102a6140191756c5474a30bfa9181900360200190a150565b3330146107e8576040517f08c379a000000000000000000000000000000000000000000000000000000000815260040180806020018281038252602781526020018061331e6027913960400191505060405180910390fd5b60006107f38261049b565b73ffffffffffffffffffffffffffffffffffffffff161415610860576040517f08c379a000000000000000000000000000000000000000000000000000000000815260040180806020018281038252602b815260200180612fea602b913960400191505060405180910390fd5b61086b816000610e5b565b50565b60006108997fea7157fa25e3aa17d0ae2d5280fa4e24d421c61842aa85e45194e1145aa72bf8610ebe565b905090565b3330146108f6576040517f08c379a000000000000000000000000000000000000000000000000000000000815260040180806020018281038252602781526020018061331e6027913960400191505060405180910390fd5b60006109278260405160200161090c9190612e0f565b60405160208183030381529060405280519060200120610ec2565b90506109338183610f22565b5050565b610940826110f1565b6000610958838560405160200161090c929190612e56565b90506109648183611195565b6109a3576040517f08c379a000000000000000000000000000000000000000000000000000000000815260040161099a90612db2565b60405180910390fd5b6109ad8185610f22565b50505050565b333014610a0b576040517f08c379a000000000000000000000000000000000000000000000000000000000815260040180806020018281038252602781526020018061331e6027913960400191505060405180910390fd5b80610a61576040517f08c379a0000000000000000000000000000000000000000000000000000000008152600401808060200182810382526042815260200180612f716042913960600191505060405180910390fd5b610a8b7f8c8764b3a50fee69c9bee6e956047501f434fb0e2349c75844a401a7f2a020d282610e57565b6040805182815290517f1f63199319eff813052575c41087f618aba07b006664fed6c01f7ee9c57168359181900360200190a150565b60006104e97f8d0bf1fd623d628c741362c1289948e57b3e2905218c676d3e69abee36d6ae2e83610d09565b6000333014610b47576040517f08c379a000000000000000000000000000000000000000000000000000000000815260040180806020018281038252602781526020018061331e6027913960400191505060405180910390fd5b81516020830134f06040805173ffffffffffffffffffffffffffffffffffffffff8316815290519192507fa506ad4e7f05eceba62a023c3219e5bd98a615f4fa87e2afb08a2da5cf62bf0c919081900360200190a1919050565b60006108997f8c8764b3a50fee69c9bee6e956047501f434fb0e2349c75844a401a7f2a020d2610ebe565b60006108996000610ac1565b333014610c30576040517f08c379a000000000000000000000000000000000000000000000000000000000815260040180806020018281038252602781526020018061331e6027913960400191505060405180910390fd5b6000610c3b8361049b565b73ffffffffffffffffffffffffffffffffffffffff1614610ca7576040517f08c379a000000000000000000000000000000000000000000000000000000000815260040180806020018281038252602c815260200180613176602c913960400191505060405180910390fd5b6109338282610e5b565b7fbc197c810000000000000000000000000000000000000000000000000000000098975050505050505050565b7ff23a6e61000000000000000000000000000000000000000000000000000000009695505050505050565b60408051602080820194909452808201929092528051808303820181526060909201905280519101205490565b60007fffffffff0000000000000000000000000000000000000000000000000000000082167f90042baf000000000000000000000000000000000000000000000000000000001415610d8a575060016104ec565b6104e98261138d565b3b151590565b3055565b600080610db3610dac86610ec2565b85856114ce565b90508015610de457507f1626ba7e000000000000000000000000000000000000000000000000000000009050610657565b506000949350505050565b600080610e1a610dac87876040518083838082843760405192018290039091209350610ec292505050565b90508015610e4b57507f20c13b0b00000000000000000000000000000000000000000000000000000000905061067a565b50600095945050505050565b9055565b6109337fbe27a319efc8734e89e26ba4bc95f5c788584163b959f03fa04e2d7ab4b9a1207fffffffff00000000000000000000000000000000000000000000000000000000841673ffffffffffffffffffffffffffffffffffffffff841661185f565b5490565b604080517f19010000000000000000000000000000000000000000000000000000000000006020808301919091524660228301523060601b6042830152605680830194909452825180830390940184526076909101909152815191012090565b60005b81518110156110ec576000828281518110610f3c57fe5b602002602001015190506000606082604001515a1015610f88576040517f08c379a000000000000000000000000000000000000000000000000000000000815260040161099a90612d55565b82511561102057826060015173ffffffffffffffffffffffffffffffffffffffff168360400151600014610fc0578360400151610fc2565b5a5b8460a00151604051610fd49190612c87565b6000604051808303818686f4925050503d8060008114611010576040519150601f19603f3d011682016040523d82523d6000602084013e611015565b606091505b5090925090506110b5565b826060015173ffffffffffffffffffffffffffffffffffffffff1683608001518460400151600014611056578460400151611058565b5a5b908560a0015160405161106b9190612c87565b600060405180830381858888f193505050503d80600081146110a9576040519150601f19603f3d011682016040523d82523d6000602084013e6110ae565b606091505b5090925090505b81156110d657856040516110c99190612ccf565b60405180910390a06110e1565b6110e183878361188d565b505050600101610f25565b505050565b6000806110fd836118dd565b91509150600061110c83610ac1565b9050808214611147576040517f08c379a000000000000000000000000000000000000000000000000000000000815260040161099a90612d1e565b6001820161115584826118f6565b7f1f180c27086c7a39ea2a7b25239d1ab92348f07ca7bb59d1438fcf527568f8818482604051611186929190612e6f565b60405180910390a15050505050565b60008060006111a384611921565b909250905061ffff821660005b855183101561136a57600080806111c7898761198f565b975060ff918216945016915060018314156111ef576111e68987611a10565b96509050611313565b8261121b5760606112008a88611a88565b9750905061120e8b82611b39565b9150828501945050611313565b60028314156112c25761122e8987611a10565b96509050600061123e8a88611ec3565b975061ffff16905060606112538b8984611f34565b985090506112628c8483612023565b6112b7576040517f08c379a00000000000000000000000000000000000000000000000000000000081526004018080602001828103825260328152602001806131446032913960400191505060405180910390fd5b505092810192611313565b6040517f08c379a000000000000000000000000000000000000000000000000000000000815260040180806020018281038252602c815260200180612f45602c913960400191505060405180910390fd5b848282604051602001808481526020018381526020018273ffffffffffffffffffffffffffffffffffffffff16815260200193505050506040516020818303038152906040528051906020012094505050506111b0565b8361ffff16811015801561138257506113828261226b565b979650505050505050565b60007fffffffff0000000000000000000000000000000000000000000000000000000082167fec6aba5000000000000000000000000000000000000000000000000000000000148061142057507fffffffff0000000000000000000000000000000000000000000000000000000082167f4e2312e000000000000000000000000000000000000000000000000000000000145b8061146c57507fffffffff0000000000000000000000000000000000000000000000000000000082167f150b7a0200000000000000000000000000000000000000000000000000000000145b806114b857507fffffffff0000000000000000000000000000000000000000000000000000000082167fc0ee0b8a00000000000000000000000000000000000000000000000000000000145b156114c5575060016104ec565b6104e9826122a8565b600080600061151285858080601f01602080910402602001604051908101604052809392919081815260200183838082843760009201919091525061192192505050565b909250905061ffff821660005b8583101561183b57600080600061156f868b8b8080601f016020809104026020016040519081016040528093929190818152602001838380828437600092019190915250929392505061198f9050565b975060ff918216945016915060018314156115d0576115c7868b8b8080601f0160208091040260200160405190810160405280939291908181526020018383808284376000920191909152509293925050611a109050565b965090506117e4565b8261163557606061161a878c8c8080601f0160208091040260200160405190810160405280939291908181526020018383808284376000920191909152509293925050611a889050565b975090506116288c82611b39565b91508285019450506117e4565b600283141561179357611681868b8b8080601f0160208091040260200160405190810160405280939291908181526020018383808284376000920191909152509293925050611a109050565b809750819250505060006116ce878c8c8080601f0160208091040260200160405190810160405280939291908181526020018383808284376000920191909152509293925050611ec39050565b8161ffff1691508098508192505050606061172488838e8e8080601f016020809104026020016040519081016040528093929190818152602001838380828437600092019190915250929493925050611f349050565b985090506117338d8483612023565b611788576040517f08c379a000000000000000000000000000000000000000000000000000000000815260040180806020018281038252603f81526020018061309c603f913960400191505060405180910390fd5b5050928101926117e4565b6040517f08c379a00000000000000000000000000000000000000000000000000000000081526004018080602001828103825260398152602001806130db6039913960400191505060405180910390fd5b848282604051602001808481526020018381526020018273ffffffffffffffffffffffffffffffffffffffff168152602001935050505060405160208183030381529060405280519060200120945050505061151f565b8361ffff168110158015611853575061185382612305565b98975050505050505050565b6040805160208082019590955280820193909352805180840382018152606090930190528151919092012055565b82602001511561189f57805160208201fd5b7f3dbd1590ea96dd3253a91f24e64e3a502e1225d602a5731357bc12643070ccd782826040516118d0929190612cd8565b60405180910390a1505050565b606081901c916bffffffffffffffffffffffff90911690565b6109337f8d0bf1fd623d628c741362c1289948e57b3e2905218c676d3e69abee36d6ae2e838361185f565b6020810151815160f09190911c9060029081111561198a576040517f08c379a00000000000000000000000000000000000000000000000000000000081526004018080602001828103825260278152602001806130386027913960400191505060405180910390fd5b915091565b8082016020015160f881901c9060f01c60ff16600283018381116119af57fe5b8451811115611a09576040517f08c379a00000000000000000000000000000000000000000000000000000000081526004018080602001828103825260268152602001806132796026913960400191505060405180910390fd5b9250925092565b8082016020015160601c60148201828111611a2757fe5b8351811115611a81576040517f08c379a00000000000000000000000000000000000000000000000000000000081526004018080602001828103825260238152602001806130156023913960400191505060405180910390fd5b9250929050565b604080516042808252608082019092526060916000919060208201818036833701905050915082840160200180516020840152602081015160408401526022810151604284015250604283019050828111611adf57fe5b8351811115611a81576040517f08c379a00000000000000000000000000000000000000000000000000000000081526004018080602001828103825260238152602001806131e16023913960400191505060405180910390fd5b60008151604214611b95576040517f08c379a000000000000000000000000000000000000000000000000000000000815260040180806020018281038252603a815260200180612f0b603a913960400191505060405180910390fd5b600082600184510381518110611ba757fe5b602001015160f81c60f81b60f81c60ff169050600083604081518110611bc957fe5b016020015160f81c90506000611bdf858261233a565b90506000611bee86602061233a565b90507f7fffffffffffffffffffffffffffffff5d576e7357a4501ddfe92f46681b20a0811115611c69576040517f08c379a000000000000000000000000000000000000000000000000000000000815260040180806020018281038252603d815260200180612ece603d913960400191505060405180910390fd5b8260ff16601b14158015611c8157508260ff16601c14155b15611cd7576040517f08c379a000000000000000000000000000000000000000000000000000000000815260040180806020018281038252603d81526020018061305f603d913960400191505060405180910390fd5b6001841415611d4b5760018784848460405160008152602001604052604051808581526020018460ff1681526020018381526020018281526020019450505050506020604051602081039080840390855afa158015611d3a573d6000803e3d6000fd5b505050602060405103519450611e4d565b6002841415611dfc5760018760405160200180807f19457468657265756d205369676e6564204d6573736167653a0a333200000000815250601c018281526020019150506040516020818303038152906040528051906020012084848460405160008152602001604052604051808581526020018460ff1681526020018381526020018281526020019450505050506020604051602081039080840390855afa158015611d3a573d6000803e3d6000fd5b6040517f08c379a000000000000000000000000000000000000000000000000000000000815260040180806020018281038252603c81526020018061323d603c913960400191505060405180910390fd5b73ffffffffffffffffffffffffffffffffffffffff8516611eb9576040517f08c379a00000000000000000000000000000000000000000000000000000000081526004018080602001828103825260308152602001806131146030913960400191505060405180910390fd5b5050505092915050565b8082016020015160f01c60028201828111611eda57fe5b8351811115611a81576040517f08c379a00000000000000000000000000000000000000000000000000000000081526004018080602001828103825260228152602001806132c06022913960400191505060405180910390fd5b606060008267ffffffffffffffff81118015611f4f57600080fd5b506040519080825280601f01601f191660200182016040528015611f7a576020820181803683370190505b509150838501602001600060205b85811015611fa157908201518482015260208101611f88565b8486016020018051939092015190850152525082820183811015611fc157fe5b845181111561201b576040517f08c379a000000000000000000000000000000000000000000000000000000000815260040180806020018281038252602181526020018061329f6021913960400191505060405180910390fd5b935093915050565b6000808260018451038151811061203657fe5b016020015160f81c9050600181148061204f5750600281145b15612093578373ffffffffffffffffffffffffffffffffffffffff166120758685611b39565b73ffffffffffffffffffffffffffffffffffffffff16149150612263565b60038114156122125782517fffffffffffffffffffffffffffffffffffffffffffffffffffffffffffffffff81018452604080517f1626ba7e000000000000000000000000000000000000000000000000000000008152600481018881526024820192835286516044830152865173ffffffffffffffffffffffffffffffffffffffff891693631626ba7e938b938a9390929160640190602085019080838360005b8381101561214d578181015183820152602001612135565b50505050905090810190601f16801561217a5780820380516001836020036101000a031916815260200191505b50935050505060206040518083038186803b15801561219857600080fd5b505afa1580156121ac573d6000803e3d6000fd5b505050506040513d60208110156121c257600080fd5b50519084527fffffffff00000000000000000000000000000000000000000000000000000000167f1626ba7e00000000000000000000000000000000000000000000000000000000149150612263565b6040517f08c379a000000000000000000000000000000000000000000000000000000000815260040180806020018281038252603f8152602001806131a2603f913960400191505060405180910390fd5b509392505050565b600081158015906104e957506122a07fea7157fa25e3aa17d0ae2d5280fa4e24d421c61842aa85e45194e1145aa72bf8610ebe565b909114919050565b60007fffffffff0000000000000000000000000000000000000000000000000000000082167f025b22bc0000000000000000000000000000000000000000000000000000000014156122fc575060016104ec565b6104e9826123a2565b600081158015906104e957506122a07f8c8764b3a50fee69c9bee6e956047501f434fb0e2349c75844a401a7f2a020d2610ebe565b60008160200183511015612399576040517f08c379a000000000000000000000000000000000000000000000000000000000815260040180806020018281038252603c8152602001806132e2603c913960400191505060405180910390fd5b50016020015190565b60007fffffffff0000000000000000000000000000000000000000000000000000000082167f389901c70000000000000000000000000000000000000000000000000000000014156123f6575060016104ec565b6104e98260007fffffffff0000000000000000000000000000000000000000000000000000000082167f25bb078800000000000000000000000000000000000000000000000000000000141561244e575060016104ec565b6104e98260007fffffffff0000000000000000000000000000000000000000000000000000000082167f783649a60000000000000000000000000000000000000000000000000000000014156124a6575060016104ec565b6104e98260007fffffffff000000000000000000000000000000000000000000000000000000008216158061251c57507fffffffff0000000000000000000000000000000000000000000000000000000082167f36e7817500000000000000000000000000000000000000000000000000000000145b15612529575060016104ec565b7f01ffc9a7000000000000000000000000000000000000000000000000000000007fffffffff000000000000000000000000000000000000000000000000000000008316146104e9565b803573ffffffffffffffffffffffffffffffffffffffff811681146104ec57600080fd5b600082601f8301126125a7578081fd5b8135602067ffffffffffffffff808311156125be57fe5b6125cb8283850201612e7d565b83815282810190868401865b868110156126a7578135890160c0807fffffffffffffffffffffffffffffffffffffffffffffffffffffffffffffffe0838e0301121561261557898afd5b604080518281018181108a8211171561262a57fe5b8252612637848b016126f7565b81526126448285016126f7565b8a8201526060808501358383015260809250612661838601612573565b9082015260a08481013583830152928401359289841115612680578c8dfd5b61268e8f8c86880101612777565b90820152875250505092850192908501906001016125d7565b509098975050505050505050565b60008083601f8401126126c6578182fd5b50813567ffffffffffffffff8111156126dd578182fd5b6020830191508360208083028501011115611a8157600080fd5b803580151581146104ec57600080fd5b80357fffffffff00000000000000000000000000000000000000000000000000000000811681146104ec57600080fd5b60008083601f840112612748578182fd5b50813567ffffffffffffffff81111561275f578182fd5b602083019150836020828501011115611a8157600080fd5b600082601f830112612787578081fd5b813567ffffffffffffffff81111561279b57fe5b6127cc60207fffffffffffffffffffffffffffffffffffffffffffffffffffffffffffffffe0601f84011601612e7d565b8181528460208386010111156127e0578283fd5b816020850160208301379081016020019190915292915050565b60006020828403121561280b578081fd5b61065782612573565b60008060008060008060008060a0898b03121561282f578384fd5b61283889612573565b975061284660208a01612573565b9650604089013567ffffffffffffffff80821115612862578586fd5b61286e8c838d016126b5565b909850965060608b0135915080821115612886578586fd5b6128928c838d016126b5565b909650945060808b01359150808211156128aa578384fd5b506128b78b828c01612737565b999c989b5096995094979396929594505050565b6000806000806000608086880312156128e2578081fd5b6128eb86612573565b94506128f960208701612573565b935060408601359250606086013567ffffffffffffffff81111561291b578182fd5b61292788828901612737565b969995985093965092949392505050565b60008060008060008060a08789031215612950578182fd5b61295987612573565b955061296760208801612573565b94506040870135935060608701359250608087013567ffffffffffffffff811115612990578283fd5b61299c89828a01612737565b979a9699509497509295939492505050565b6000602082840312156129bf578081fd5b813567ffffffffffffffff8111156129d5578182fd5b61067a84828501612597565b6000806000606084860312156129f5578283fd5b833567ffffffffffffffff80821115612a0c578485fd5b612a1887838801612597565b9450602086013593506040860135915080821115612a34578283fd5b50612a4186828701612777565b9150509250925092565b600060208284031215612a5c578081fd5b5035919050565b600080600060408486031215612a77578283fd5b83359250602084013567ffffffffffffffff811115612a94578283fd5b612aa086828701612737565b9497909650939450505050565b600060208284031215612abe578081fd5b61065782612707565b60008060408385031215612ad9578182fd5b612ae283612707565b9150612af060208401612573565b90509250929050565b60008060008060408587031215612b0e578182fd5b843567ffffffffffffffff80821115612b25578384fd5b612b3188838901612737565b90965094506020870135915080821115612b49578384fd5b50612b5687828801612737565b95989497509550505050565b600060208284031215612b73578081fd5b813567ffffffffffffffff811115612b89578182fd5b61067a84828501612777565b6000815180845260208085019450848183028601828601855b85811015612c305783830389528151805115158452858101511515868501526040808201519085015260608082015173ffffffffffffffffffffffffffffffffffffffff16908501526080808201519085015260a09081015160c091850182905290612c1c81860183612c3d565b9a87019a9450505090840190600101612bae565b5090979650505050505050565b60008151808452612c55816020860160208601612ea1565b601f017fffffffffffffffffffffffffffffffffffffffffffffffffffffffffffffffe0169290920160200192915050565b60008251612c99818460208701612ea1565b9190910192915050565b73ffffffffffffffffffffffffffffffffffffffff91909116815260200190565b901515815260200190565b90815260200190565b6000838252604060208301526106546040830184612c3d565b7fffffffff0000000000000000000000000000000000000000000000000000000091909116815260200190565b6020808252601f908201527f4d61696e4d6f64756c65235f617574683a20494e56414c49445f4e4f4e434500604082015260600190565b60208082526024908201527f4d6f64756c6543616c6c73235f657865637574653a204e4f545f454e4f55474860408201527f5f47415300000000000000000000000000000000000000000000000000000000606082015260800190565b60208082526026908201527f4d6f64756c6543616c6c7323657865637574653a20494e56414c49445f53494760408201527f4e41545552450000000000000000000000000000000000000000000000000000606082015260800190565b600060408252600560408301527f73656c663a0000000000000000000000000000000000000000000000000000006060830152608060208301526106576080830184612b95565b6000838252604060208301526106546040830184612b95565b918252602082015260400190565b60405181810167ffffffffffffffff81118282101715612e9957fe5b604052919050565b60005b83811015612ebc578181015183820152602001612ea4565b838111156109ad575050600091015256fe5369676e617475726556616c696461746f72237265636f7665725369676e65723a20696e76616c6964207369676e6174757265202773272076616c75655369676e617475726556616c696461746f72237265636f7665725369676e65723a20696e76616c6964207369676e6174757265206c656e6774684d6f64756c6541757468235f7369676e617475726556616c69646174696f6e20494e56414c49445f464c41474d6f64756c654175746855706772616461626c6544756f2375706461746545787465726e616c496d6167654861736820494e56414c49445f494d4147455f484153484d6f64756c654175746855706772616461626c6523757064617465496d6167654861736820494e56414c49445f494d4147455f484153484d6f64756c65486f6f6b732372656d6f7665486f6f6b3a20484f4f4b5f4e4f545f524547495354455245444c696242797465732372656164416464726573733a204f55545f4f465f424f554e44534c696242797465732372656164466972737455696e7431363a204f55545f4f465f424f554e44535369676e617475726556616c696461746f72237265636f7665725369676e65723a20696e76616c6964207369676e6174757265202776272076616c75654d6f64756c654175746855706772616461626c6544756f235f7369676e617475726556616c69646174696f6e3a20494e56414c49445f5349474e41545552454d6f64756c654175746855706772616461626c6544756f235f7369676e617475726556616c69646174696f6e20494e56414c49445f464c41475369676e617475726556616c696461746f72237265636f7665725369676e65723a20494e56414c49445f5349474e45524d6f64756c6541757468235f7369676e617475726556616c69646174696f6e3a20494e56414c49445f5349474e41545552454d6f64756c65486f6f6b7323616464486f6f6b3a20484f4f4b5f414c52454144595f524547495354455245445369676e617475726556616c696461746f7223697356616c69645369676e61747572653a20554e535550504f525445445f5349474e41545552455f545950454c696242797465732372656164427974657336363a204f55545f4f465f424f554e44534d6f64756c6555706461746523757064617465496d706c656d656e746174696f6e3a20494e56414c49445f494d504c454d454e544154494f4e5369676e617475726556616c696461746f72237265636f7665725369676e65723a20554e535550504f525445445f5349474e41545552455f545950454c69624279746573237265616455696e743855696e74383a204f55545f4f465f424f554e44534c69624279746573237265616442797465733a204f55545f4f465f424f554e44534c69624279746573237265616455696e7431363a204f55545f4f465f424f554e44534c696242797465732372656164427974657333323a20475245415445525f4f525f455155414c5f544f5f33325f4c454e4754485f52455155495245444d6f64756c6553656c6641757468236f6e6c7953656c663a204e4f545f415554484f52495a4544a2646970667358221220b63d49fa50241ad35eac65c5273e69ca090dc2dc1b4526223a791a38eff815e364736f6c63430007060033",
					"opcodes": "PUSH1 0x80 PUSH1 0x40 MSTORE CALLVALUE DUP1 ISZERO PUSH2 0x10 JUMPI PUSH1 0x0 DUP1 REVERT JUMPDEST POP PUSH2 0x337A DUP1 PUSH2 0x20 PUSH1 0x0 CODECOPY PUSH1 0x0 RETURN INVALID PUSH1 0x80 PUSH1 0x40 MSTORE PUSH1 0x4 CALLDATASIZE LT PUSH2 0x148 JUMPI PUSH1 0x0 CALLDATALOAD PUSH1 0xE0 SHR DUP1 PUSH4 0x61C2926C GT PUSH2 0xC0 JUMPI DUP1 PUSH4 0x9BD58B16 GT PUSH2 0x74 JUMPI DUP1 PUSH4 0xB93EA7AD GT PUSH2 0x59 JUMPI DUP1 PUSH4 0xB93EA7AD EQ PUSH2 0x43B JUMPI DUP1 PUSH4 0xBC197C81 EQ PUSH2 0x45B JUMPI DUP1 PUSH4 0xF23A6E61 EQ PUSH2 0x47B JUMPI PUSH2 0x14F JUMP JUMPDEST DUP1 PUSH4 0x9BD58B16 EQ PUSH2 0x411 JUMPI DUP1 PUSH4 0xAFFED0E0 EQ PUSH2 0x426 JUMPI PUSH2 0x14F JUMP JUMPDEST DUP1 PUSH4 0x8976C44C GT PUSH2 0xA5 JUMPI DUP1 PUSH4 0x8976C44C EQ PUSH2 0x3BE JUMPI DUP1 PUSH4 0x8C3F5563 EQ PUSH2 0x3DE JUMPI DUP1 PUSH4 0x90042BAF EQ PUSH2 0x3FE JUMPI PUSH2 0x14F JUMP JUMPDEST DUP1 PUSH4 0x61C2926C EQ PUSH2 0x37E JUMPI DUP1 PUSH4 0x7A9A1628 EQ PUSH2 0x39E JUMPI PUSH2 0x14F JUMP JUMPDEST DUP1 PUSH4 0x1A9B2337 GT PUSH2 0x117 JUMPI DUP1 PUSH4 0x29561426 GT PUSH2 0xFC JUMPI DUP1 PUSH4 0x29561426 EQ PUSH2 0x31C JUMPI DUP1 PUSH4 0x4FCF3ECA EQ PUSH2 0x33C JUMPI DUP1 PUSH4 0x51605D80 EQ PUSH2 0x35C JUMPI PUSH2 0x14F JUMP JUMPDEST DUP1 PUSH4 0x1A9B2337 EQ PUSH2 0x2CF JUMPI DUP1 PUSH4 0x20C13B0B EQ PUSH2 0x2FC JUMPI PUSH2 0x14F JUMP JUMPDEST DUP1 PUSH4 0x1FFC9A7 EQ PUSH2 0x22A JUMPI DUP1 PUSH4 0x25B22BC EQ PUSH2 0x260 JUMPI DUP1 PUSH4 0x150B7A02 EQ PUSH2 0x282 JUMPI DUP1 PUSH4 0x1626BA7E EQ PUSH2 0x2AF JUMPI PUSH2 0x14F JUMP JUMPDEST CALLDATASIZE PUSH2 0x14F JUMPI STOP JUMPDEST PUSH1 0x0 PUSH2 0x17E PUSH1 0x0 CALLDATALOAD PUSH32 0xFFFFFFFF00000000000000000000000000000000000000000000000000000000 AND PUSH2 0x49B JUMP JUMPDEST SWAP1 POP PUSH20 0xFFFFFFFFFFFFFFFFFFFFFFFFFFFFFFFFFFFFFFFF DUP2 AND ISZERO PUSH2 0x227 JUMPI PUSH1 0x0 DUP1 DUP3 PUSH20 0xFFFFFFFFFFFFFFFFFFFFFFFFFFFFFFFFFFFFFFFF AND PUSH1 0x0 CALLDATASIZE PUSH1 0x40 MLOAD DUP1 DUP4 DUP4 DUP1 DUP3 DUP5 CALLDATACOPY PUSH1 0x40 MLOAD SWAP3 ADD SWAP5 POP PUSH1 0x0 SWAP4 POP SWAP1 SWAP2 POP POP DUP1 DUP4 SUB DUP2 DUP6 GAS DELEGATECALL SWAP2 POP POP RETURNDATASIZE DUP1 PUSH1 0x0 DUP2 EQ PUSH2 0x208 JUMPI PUSH1 0x40 MLOAD SWAP2 POP PUSH1 0x1F NOT PUSH1 0x3F RETURNDATASIZE ADD AND DUP3 ADD PUSH1 0x40 MSTORE RETURNDATASIZE DUP3 MSTORE RETURNDATASIZE PUSH1 0x0 PUSH1 0x20 DUP5 ADD RETURNDATACOPY PUSH2 0x20D JUMP JUMPDEST PUSH1 0x60 SWAP2 POP JUMPDEST POP SWAP2 POP SWAP2 POP DUP2 PUSH2 0x21F JUMPI DUP1 MLOAD PUSH1 0x20 DUP3 ADD REVERT JUMPDEST DUP1 MLOAD PUSH1 0x20 DUP3 ADD RETURN JUMPDEST POP STOP JUMPDEST CALLVALUE DUP1 ISZERO PUSH2 0x236 JUMPI PUSH1 0x0 DUP1 REVERT JUMPDEST POP PUSH2 0x24A PUSH2 0x245 CALLDATASIZE PUSH1 0x4 PUSH2 0x2AAD JUMP JUMPDEST PUSH2 0x4F1 JUMP JUMPDEST PUSH1 0x40 MLOAD PUSH2 0x257 SWAP2 SWAP1 PUSH2 0x2CC4 JUMP JUMPDEST PUSH1 0x40 MLOAD DUP1 SWAP2 SUB SWAP1 RETURN JUMPDEST CALLVALUE DUP1 ISZERO PUSH2 0x26C JUMPI PUSH1 0x0 DUP1 REVERT JUMPDEST POP PUSH2 0x280 PUSH2 0x27B CALLDATASIZE PUSH1 0x4 PUSH2 0x27FA JUMP JUMPDEST PUSH2 0x4FC JUMP JUMPDEST STOP JUMPDEST CALLVALUE DUP1 ISZERO PUSH2 0x28E JUMPI PUSH1 0x0 DUP1 REVERT JUMPDEST POP PUSH2 0x2A2 PUSH2 0x29D CALLDATASIZE PUSH1 0x4 PUSH2 0x28CB JUMP JUMPDEST PUSH2 0x61D JUMP JUMPDEST PUSH1 0x40 MLOAD PUSH2 0x257 SWAP2 SWAP1 PUSH2 0x2CF1 JUMP JUMPDEST CALLVALUE DUP1 ISZERO PUSH2 0x2BB JUMPI PUSH1 0x0 DUP1 REVERT JUMPDEST POP PUSH2 0x2A2 PUSH2 0x2CA CALLDATASIZE PUSH1 0x4 PUSH2 0x2A63 JUMP JUMPDEST PUSH2 0x647 JUMP JUMPDEST CALLVALUE DUP1 ISZERO PUSH2 0x2DB JUMPI PUSH1 0x0 DUP1 REVERT JUMPDEST POP PUSH2 0x2EF PUSH2 0x2EA CALLDATASIZE PUSH1 0x4 PUSH2 0x2AAD JUMP JUMPDEST PUSH2 0x65E JUMP JUMPDEST PUSH1 0x40 MLOAD PUSH2 0x257 SWAP2 SWAP1 PUSH2 0x2CA3 JUMP JUMPDEST CALLVALUE DUP1 ISZERO PUSH2 0x308 JUMPI PUSH1 0x0 DUP1 REVERT JUMPDEST POP PUSH2 0x2A2 PUSH2 0x317 CALLDATASIZE PUSH1 0x4 PUSH2 0x2AF9 JUMP JUMPDEST PUSH2 0x669 JUMP JUMPDEST CALLVALUE DUP1 ISZERO PUSH2 0x328 JUMPI PUSH1 0x0 DUP1 REVERT JUMPDEST POP PUSH2 0x280 PUSH2 0x337 CALLDATASIZE PUSH1 0x4 PUSH2 0x2A4B JUMP JUMPDEST PUSH2 0x682 JUMP JUMPDEST CALLVALUE DUP1 ISZERO PUSH2 0x348 JUMPI PUSH1 0x0 DUP1 REVERT JUMPDEST POP PUSH2 0x280 PUSH2 0x357 CALLDATASIZE PUSH1 0x4 PUSH2 0x2AAD JUMP JUMPDEST PUSH2 0x790 JUMP JUMPDEST CALLVALUE DUP1 ISZERO PUSH2 0x368 JUMPI PUSH1 0x0 DUP1 REVERT JUMPDEST POP PUSH2 0x371 PUSH2 0x86E JUMP JUMPDEST PUSH1 0x40 MLOAD PUSH2 0x257 SWAP2 SWAP1 PUSH2 0x2CCF JUMP JUMPDEST CALLVALUE DUP1 ISZERO PUSH2 0x38A JUMPI PUSH1 0x0 DUP1 REVERT JUMPDEST POP PUSH2 0x280 PUSH2 0x399 CALLDATASIZE PUSH1 0x4 PUSH2 0x29AE JUMP JUMPDEST PUSH2 0x89E JUMP JUMPDEST CALLVALUE DUP1 ISZERO PUSH2 0x3AA JUMPI PUSH1 0x0 DUP1 REVERT JUMPDEST POP PUSH2 0x280 PUSH2 0x3B9 CALLDATASIZE PUSH1 0x4 PUSH2 0x29E1 JUMP JUMPDEST PUSH2 0x937 JUMP JUMPDEST CALLVALUE DUP1 ISZERO PUSH2 0x3CA JUMPI PUSH1 0x0 DUP1 REVERT JUMPDEST POP PUSH2 0x280 PUSH2 0x3D9 CALLDATASIZE PUSH1 0x4 PUSH2 0x2A4B JUMP JUMPDEST PUSH2 0x9B3 JUMP JUMPDEST CALLVALUE DUP1 ISZERO PUSH2 0x3EA JUMPI PUSH1 0x0 DUP1 REVERT JUMPDEST POP PUSH2 0x371 PUSH2 0x3F9 CALLDATASIZE PUSH1 0x4 PUSH2 0x2A4B JUMP JUMPDEST PUSH2 0xAC1 JUMP JUMPDEST PUSH2 0x2EF PUSH2 0x40C CALLDATASIZE PUSH1 0x4 PUSH2 0x2B62 JUMP JUMPDEST PUSH2 0xAED JUMP JUMPDEST CALLVALUE DUP1 ISZERO PUSH2 0x41D JUMPI PUSH1 0x0 DUP1 REVERT JUMPDEST POP PUSH2 0x371 PUSH2 0xBA1 JUMP JUMPDEST CALLVALUE DUP1 ISZERO PUSH2 0x432 JUMPI PUSH1 0x0 DUP1 REVERT JUMPDEST POP PUSH2 0x371 PUSH2 0xBCC JUMP JUMPDEST CALLVALUE DUP1 ISZERO PUSH2 0x447 JUMPI PUSH1 0x0 DUP1 REVERT JUMPDEST POP PUSH2 0x280 PUSH2 0x456 CALLDATASIZE PUSH1 0x4 PUSH2 0x2AC7 JUMP JUMPDEST PUSH2 0xBD8 JUMP JUMPDEST CALLVALUE DUP1 ISZERO PUSH2 0x467 JUMPI PUSH1 0x0 DUP1 REVERT JUMPDEST POP PUSH2 0x2A2 PUSH2 0x476 CALLDATASIZE PUSH1 0x4 PUSH2 0x2814 JUMP JUMPDEST PUSH2 0xCB1 JUMP JUMPDEST CALLVALUE DUP1 ISZERO PUSH2 0x487 JUMPI PUSH1 0x0 DUP1 REVERT JUMPDEST POP PUSH2 0x2A2 PUSH2 0x496 CALLDATASIZE PUSH1 0x4 PUSH2 0x2938 JUMP JUMPDEST PUSH2 0xCDE JUMP JUMPDEST PUSH1 0x0 PUSH2 0x4E9 PUSH32 0xBE27A319EFC8734E89E26BA4BC95F5C788584163B959F03FA04E2D7AB4B9A120 PUSH32 0xFFFFFFFF00000000000000000000000000000000000000000000000000000000 DUP5 AND PUSH2 0xD09 JUMP JUMPDEST SWAP1 POP JUMPDEST SWAP2 SWAP1 POP JUMP JUMPDEST PUSH1 0x0 PUSH2 0x4E9 DUP3 PUSH2 0xD36 JUMP JUMPDEST CALLER ADDRESS EQ PUSH2 0x554 JUMPI PUSH1 0x40 MLOAD PUSH32 0x8C379A000000000000000000000000000000000000000000000000000000000 DUP2 MSTORE PUSH1 0x4 ADD DUP1 DUP1 PUSH1 0x20 ADD DUP3 DUP2 SUB DUP3 MSTORE PUSH1 0x27 DUP2 MSTORE PUSH1 0x20 ADD DUP1 PUSH2 0x331E PUSH1 0x27 SWAP2 CODECOPY PUSH1 0x40 ADD SWAP2 POP POP PUSH1 0x40 MLOAD DUP1 SWAP2 SUB SWAP1 REVERT JUMPDEST PUSH2 0x573 DUP2 PUSH20 0xFFFFFFFFFFFFFFFFFFFFFFFFFFFFFFFFFFFFFFFF AND PUSH2 0xD93 JUMP JUMPDEST PUSH2 0x5C8 JUMPI PUSH1 0x40 MLOAD PUSH32 0x8C379A000000000000000000000000000000000000000000000000000000000 DUP2 MSTORE PUSH1 0x4 ADD DUP1 DUP1 PUSH1 0x20 ADD DUP3 DUP2 SUB DUP3 MSTORE PUSH1 0x39 DUP2 MSTORE PUSH1 0x20 ADD DUP1 PUSH2 0x3204 PUSH1 0x39 SWAP2 CODECOPY PUSH1 0x40 ADD SWAP2 POP POP PUSH1 0x40 MLOAD DUP1 SWAP2 SUB SWAP1 REVERT JUMPDEST PUSH2 0x5D1 DUP2 PUSH2 0xD99 JUMP JUMPDEST PUSH1 0x40 DUP1 MLOAD PUSH20 0xFFFFFFFFFFFFFFFFFFFFFFFFFFFFFFFFFFFFFFFF DUP4 AND DUP2 MSTORE SWAP1 MLOAD PUSH32 0x310BA5F1D2ED074B51E2ECCD052A47AE9AB7C6B800D1FCA3DB3999D6A592CA03 SWAP2 DUP2 SWAP1 SUB PUSH1 0x20 ADD SWAP1 LOG1 POP JUMP JUMPDEST PUSH32 0x150B7A0200000000000000000000000000000000000000000000000000000000 SWAP6 SWAP5 POP POP POP POP POP JUMP JUMPDEST PUSH1 0x0 PUSH2 0x654 DUP5 DUP5 DUP5 PUSH2 0xD9D JUMP JUMPDEST SWAP1 POP JUMPDEST SWAP4 SWAP3 POP POP POP JUMP JUMPDEST PUSH1 0x0 PUSH2 0x4E9 DUP3 PUSH2 0x49B JUMP JUMPDEST PUSH1 0x0 PUSH2 0x677 DUP6 DUP6 DUP6 DUP6 PUSH2 0xDEF JUMP JUMPDEST SWAP1 POP JUMPDEST SWAP5 SWAP4 POP POP POP POP JUMP JUMPDEST CALLER ADDRESS EQ PUSH2 0x6DA JUMPI PUSH1 0x40 MLOAD PUSH32 0x8C379A000000000000000000000000000000000000000000000000000000000 DUP2 MSTORE PUSH1 0x4 ADD DUP1 DUP1 PUSH1 0x20 ADD DUP3 DUP2 SUB DUP3 MSTORE PUSH1 0x27 DUP2 MSTORE PUSH1 0x20 ADD DUP1 PUSH2 0x331E PUSH1 0x27 SWAP2 CODECOPY PUSH1 0x40 ADD SWAP2 POP POP PUSH1 0x40 MLOAD DUP1 SWAP2 SUB SWAP1 REVERT JUMPDEST DUP1 PUSH2 0x730 JUMPI PUSH1 0x40 MLOAD PUSH32 0x8C379A000000000000000000000000000000000000000000000000000000000 DUP2 MSTORE PUSH1 0x4 ADD DUP1 DUP1 PUSH1 0x20 ADD DUP3 DUP2 SUB DUP3 MSTORE PUSH1 0x37 DUP2 MSTORE PUSH1 0x20 ADD DUP1 PUSH2 0x2FB3 PUSH1 0x37 SWAP2 CODECOPY PUSH1 0x40 ADD SWAP2 POP POP PUSH1 0x40 MLOAD DUP1 SWAP2 SUB SWAP1 REVERT JUMPDEST PUSH2 0x75A PUSH32 0xEA7157FA25E3AA17D0AE2D5280FA4E24D421C61842AA85E45194E1145AA72BF8 DUP3 PUSH2 0xE57 JUMP JUMPDEST PUSH1 0x40 DUP1 MLOAD DUP3 DUP2 MSTORE SWAP1 MLOAD PUSH32 0x307ED6BD941EE9FC80F369C94AF5FA11E25BAB5102A6140191756C5474A30BFA SWAP2 DUP2 SWAP1 SUB PUSH1 0x20 ADD SWAP1 LOG1 POP JUMP JUMPDEST CALLER ADDRESS EQ PUSH2 0x7E8 JUMPI PUSH1 0x40 MLOAD PUSH32 0x8C379A000000000000000000000000000000000000000000000000000000000 DUP2 MSTORE PUSH1 0x4 ADD DUP1 DUP1 PUSH1 0x20 ADD DUP3 DUP2 SUB DUP3 MSTORE PUSH1 0x27 DUP2 MSTORE PUSH1 0x20 ADD DUP1 PUSH2 0x331E PUSH1 0x27 SWAP2 CODECOPY PUSH1 0x40 ADD SWAP2 POP POP PUSH1 0x40 MLOAD DUP1 SWAP2 SUB SWAP1 REVERT JUMPDEST PUSH1 0x0 PUSH2 0x7F3 DUP3 PUSH2 0x49B JUMP JUMPDEST PUSH20 0xFFFFFFFFFFFFFFFFFFFFFFFFFFFFFFFFFFFFFFFF AND EQ ISZERO PUSH2 0x860 JUMPI PUSH1 0x40 MLOAD PUSH32 0x8C379A000000000000000000000000000000000000000000000000000000000 DUP2 MSTORE PUSH1 0x4 ADD DUP1 DUP1 PUSH1 0x20 ADD DUP3 DUP2 SUB DUP3 MSTORE PUSH1 0x2B DUP2 MSTORE PUSH1 0x20 ADD DUP1 PUSH2 0x2FEA PUSH1 0x2B SWAP2 CODECOPY PUSH1 0x40 ADD SWAP2 POP POP PUSH1 0x40 MLOAD DUP1 SWAP2 SUB SWAP1 REVERT JUMPDEST PUSH2 0x86B DUP2 PUSH1 0x0 PUSH2 0xE5B JUMP JUMPDEST POP JUMP JUMPDEST PUSH1 0x0 PUSH2 0x899 PUSH32 0xEA7157FA25E3AA17D0AE2D5280FA4E24D421C61842AA85E45194E1145AA72BF8 PUSH2 0xEBE JUMP JUMPDEST SWAP1 POP SWAP1 JUMP JUMPDEST CALLER ADDRESS EQ PUSH2 0x8F6 JUMPI PUSH1 0x40 MLOAD PUSH32 0x8C379A000000000000000000000000000000000000000000000000000000000 DUP2 MSTORE PUSH1 0x4 ADD DUP1 DUP1 PUSH1 0x20 ADD DUP3 DUP2 SUB DUP3 MSTORE PUSH1 0x27 DUP2 MSTORE PUSH1 0x20 ADD DUP1 PUSH2 0x331E PUSH1 0x27 SWAP2 CODECOPY PUSH1 0x40 ADD SWAP2 POP POP PUSH1 0x40 MLOAD DUP1 SWAP2 SUB SWAP1 REVERT JUMPDEST PUSH1 0x0 PUSH2 0x927 DUP3 PUSH1 0x40 MLOAD PUSH1 0x20 ADD PUSH2 0x90C SWAP2 SWAP1 PUSH2 0x2E0F JUMP JUMPDEST PUSH1 0x40 MLOAD PUSH1 0x20 DUP2 DUP4 SUB SUB DUP2 MSTORE SWAP1 PUSH1 0x40 MSTORE DUP1 MLOAD SWAP1 PUSH1 0x20 ADD KECCAK256 PUSH2 0xEC2 JUMP JUMPDEST SWAP1 POP PUSH2 0x933 DUP2 DUP4 PUSH2 0xF22 JUMP JUMPDEST POP POP JUMP JUMPDEST PUSH2 0x940 DUP3 PUSH2 0x10F1 JUMP JUMPDEST PUSH1 0x0 PUSH2 0x958 DUP4 DUP6 PUSH1 0x40 MLOAD PUSH1 0x20 ADD PUSH2 0x90C SWAP3 SWAP2 SWAP1 PUSH2 0x2E56 JUMP JUMPDEST SWAP1 POP PUSH2 0x964 DUP2 DUP4 PUSH2 0x1195 JUMP JUMPDEST PUSH2 0x9A3 JUMPI PUSH1 0x40 MLOAD PUSH32 0x8C379A000000000000000000000000000000000000000000000000000000000 DUP2 MSTORE PUSH1 0x4 ADD PUSH2 0x99A SWAP1 PUSH2 0x2DB2 JUMP JUMPDEST PUSH1 0x40 MLOAD DUP1 SWAP2 SUB SWAP1 REVERT JUMPDEST PUSH2 0x9AD DUP2 DUP6 PUSH2 0xF22 JUMP JUMPDEST POP POP POP POP JUMP JUMPDEST CALLER ADDRESS EQ PUSH2 0xA0B JUMPI PUSH1 0x40 MLOAD PUSH32 0x8C379A000000000000000000000000000000000000000000000000000000000 DUP2 MSTORE PUSH1 0x4 ADD DUP1 DUP1 PUSH1 0x20 ADD DUP3 DUP2 SUB DUP3 MSTORE PUSH1 0x27 DUP2 MSTORE PUSH1 0x20 ADD DUP1 PUSH2 0x331E PUSH1 0x27 SWAP2 CODECOPY PUSH1 0x40 ADD SWAP2 POP POP PUSH1 0x40 MLOAD DUP1 SWAP2 SUB SWAP1 REVERT JUMPDEST DUP1 PUSH2 0xA61 JUMPI PUSH1 0x40 MLOAD PUSH32 0x8C379A000000000000000000000000000000000000000000000000000000000 DUP2 MSTORE PUSH1 0x4 ADD DUP1 DUP1 PUSH1 0x20 ADD DUP3 DUP2 SUB DUP3 MSTORE PUSH1 0x42 DUP2 MSTORE PUSH1 0x20 ADD DUP1 PUSH2 0x2F71 PUSH1 0x42 SWAP2 CODECOPY PUSH1 0x60 ADD SWAP2 POP POP PUSH1 0x40 MLOAD DUP1 SWAP2 SUB SWAP1 REVERT JUMPDEST PUSH2 0xA8B PUSH32 0x8C8764B3A50FEE69C9BEE6E956047501F434FB0E2349C75844A401A7F2A020D2 DUP3 PUSH2 0xE57 JUMP JUMPDEST PUSH1 0x40 DUP1 MLOAD DUP3 DUP2 MSTORE SWAP1 MLOAD PUSH32 0x1F63199319EFF813052575C41087F618ABA07B006664FED6C01F7EE9C5716835 SWAP2 DUP2 SWAP1 SUB PUSH1 0x20 ADD SWAP1 LOG1 POP JUMP JUMPDEST PUSH1 0x0 PUSH2 0x4E9 PUSH32 0x8D0BF1FD623D628C741362C1289948E57B3E2905218C676D3E69ABEE36D6AE2E DUP4 PUSH2 0xD09 JUMP JUMPDEST PUSH1 0x0 CALLER ADDRESS EQ PUSH2 0xB47 JUMPI PUSH1 0x40 MLOAD PUSH32 0x8C379A000000000000000000000000000000000000000000000000000000000 DUP2 MSTORE PUSH1 0x4 ADD DUP1 DUP1 PUSH1 0x20 ADD DUP3 DUP2 SUB DUP3 MSTORE PUSH1 0x27 DUP2 MSTORE PUSH1 0x20 ADD DUP1 PUSH2 0x331E PUSH1 0x27 SWAP2 CODECOPY PUSH1 0x40 ADD SWAP2 POP POP PUSH1 0x40 MLOAD DUP1 SWAP2 SUB SWAP1 REVERT JUMPDEST DUP2 MLOAD PUSH1 0x20 DUP4 ADD CALLVALUE CREATE PUSH1 0x40 DUP1 MLOAD PUSH20 0xFFFFFFFFFFFFFFFFFFFFFFFFFFFFFFFFFFFFFFFF DUP4 AND DUP2 MSTORE SWAP1 MLOAD SWAP2 SWAP3 POP PUSH32 0xA506AD4E7F05ECEBA62A023C3219E5BD98A615F4FA87E2AFB08A2DA5CF62BF0C SWAP2 SWAP1 DUP2 SWAP1 SUB PUSH1 0x20 ADD SWAP1 LOG1 SWAP2 SWAP1 POP JUMP JUMPDEST PUSH1 0x0 PUSH2 0x899 PUSH32 0x8C8764B3A50FEE69C9BEE6E956047501F434FB0E2349C75844A401A7F2A020D2 PUSH2 0xEBE JUMP JUMPDEST PUSH1 0x0 PUSH2 0x899 PUSH1 0x0 PUSH2 0xAC1 JUMP JUMPDEST CALLER ADDRESS EQ PUSH2 0xC30 JUMPI PUSH1 0x40 MLOAD PUSH32 0x8C379A000000000000000000000000000000000000000000000000000000000 DUP2 MSTORE PUSH1 0x4 ADD DUP1 DUP1 PUSH1 0x20 ADD DUP3 DUP2 SUB DUP3 MSTORE PUSH1 0x27 DUP2 MSTORE PUSH1 0x20 ADD DUP1 PUSH2 0x331E PUSH1 0x27 SWAP2 CODECOPY PUSH1 0x40 ADD SWAP2 POP POP PUSH1 0x40 MLOAD DUP1 SWAP2 SUB SWAP1 REVERT JUMPDEST PUSH1 0x0 PUSH2 0xC3B DUP4 PUSH2 0x49B JUMP JUMPDEST PUSH20 0xFFFFFFFFFFFFFFFFFFFFFFFFFFFFFFFFFFFFFFFF AND EQ PUSH2 0xCA7 JUMPI PUSH1 0x40 MLOAD PUSH32 0x8C379A000000000000000000000000000000000000000000000000000000000 DUP2 MSTORE PUSH1 0x4 ADD DUP1 DUP1 PUSH1 0x20 ADD DUP3 DUP2 SUB DUP3 MSTORE PUSH1 0x2C DUP2 MSTORE PUSH1 0x20 ADD DUP1 PUSH2 0x3176 PUSH1 0x2C SWAP2 CODECOPY PUSH1 0x40 ADD SWAP2 POP POP PUSH1 0x40 MLOAD DUP1 SWAP2 SUB SWAP1 REVERT JUMPDEST PUSH2 0x933 DUP3 DUP3 PUSH2 0xE5B JUMP JUMPDEST PUSH32 0xBC197C8100000000000000000000000000000000000000000000000000000000 SWAP9 SWAP8 POP POP POP POP POP POP POP POP JUMP JUMPDEST PUSH32 0xF23A6E6100000000000000000000000000000000000000000000000000000000 SWAP7 SWAP6 POP POP POP POP POP POP JUMP JUMPDEST PUSH1 0x40 DUP1 MLOAD PUSH1 0x20 DUP1 DUP3 ADD SWAP5 SWAP1 SWAP5 MSTORE DUP1 DUP3 ADD SWAP3 SWAP1 SWAP3 MSTORE DUP1 MLOAD DUP1 DUP4 SUB DUP3 ADD DUP2 MSTORE PUSH1 0x60 SWAP1 SWAP3 ADD SWAP1 MSTORE DUP1 MLOAD SWAP2 ADD KECCAK256 SLOAD SWAP1 JUMP JUMPDEST PUSH1 0x0 PUSH32 0xFFFFFFFF00000000000000000000000000000000000000000000000000000000 DUP3 AND PUSH32 0x90042BAF00000000000000000000000000000000000000000000000000000000 EQ ISZERO PUSH2 0xD8A JUMPI POP PUSH1 0x1 PUSH2 0x4EC JUMP JUMPDEST PUSH2 0x4E9 DUP3 PUSH2 0x138D JUMP JUMPDEST EXTCODESIZE ISZERO ISZERO SWAP1 JUMP JUMPDEST ADDRESS SSTORE JUMP JUMPDEST PUSH1 0x0 DUP1 PUSH2 0xDB3 PUSH2 0xDAC DUP7 PUSH2 0xEC2 JUMP JUMPDEST DUP6 DUP6 PUSH2 0x14CE JUMP JUMPDEST SWAP1 POP DUP1 ISZERO PUSH2 0xDE4 JUMPI POP PUSH32 0x1626BA7E00000000000000000000000000000000000000000000000000000000 SWAP1 POP PUSH2 0x657 JUMP JUMPDEST POP PUSH1 0x0 SWAP5 SWAP4 POP POP POP POP JUMP JUMPDEST PUSH1 0x0 DUP1 PUSH2 0xE1A PUSH2 0xDAC DUP8 DUP8 PUSH1 0x40 MLOAD DUP1 DUP4 DUP4 DUP1 DUP3 DUP5 CALLDATACOPY PUSH1 0x40 MLOAD SWAP3 ADD DUP3 SWAP1 SUB SWAP1 SWAP2 KECCAK256 SWAP4 POP PUSH2 0xEC2 SWAP3 POP POP POP JUMP JUMPDEST SWAP1 POP DUP1 ISZERO PUSH2 0xE4B JUMPI POP PUSH32 0x20C13B0B00000000000000000000000000000000000000000000000000000000 SWAP1 POP PUSH2 0x67A JUMP JUMPDEST POP PUSH1 0x0 SWAP6 SWAP5 POP POP POP POP POP JUMP JUMPDEST SWAP1 SSTORE JUMP JUMPDEST PUSH2 0x933 PUSH32 0xBE27A319EFC8734E89E26BA4BC95F5C788584163B959F03FA04E2D7AB4B9A120 PUSH32 0xFFFFFFFF00000000000000000000000000000000000000000000000000000000 DUP5 AND PUSH20 0xFFFFFFFFFFFFFFFFFFFFFFFFFFFFFFFFFFFFFFFF DUP5 AND PUSH2 0x185F JUMP JUMPDEST SLOAD SWAP1 JUMP JUMPDEST PUSH1 0x40 DUP1 MLOAD PUSH32 0x1901000000000000000000000000000000000000000000000000000000000000 PUSH1 0x20 DUP1 DUP4 ADD SWAP2 SWAP1 SWAP2 MSTORE CHAINID PUSH1 0x22 DUP4 ADD MSTORE ADDRESS PUSH1 0x60 SHL PUSH1 0x42 DUP4 ADD MSTORE PUSH1 0x56 DUP1 DUP4 ADD SWAP5 SWAP1 SWAP5 MSTORE DUP3 MLOAD DUP1 DUP4 SUB SWAP1 SWAP5 ADD DUP5 MSTORE PUSH1 0x76 SWAP1 SWAP2 ADD SWAP1 SWAP2 MSTORE DUP2 MLOAD SWAP2 ADD KECCAK256 SWAP1 JUMP JUMPDEST PUSH1 0x0 JUMPDEST DUP2 MLOAD DUP2 LT ISZERO PUSH2 0x10EC JUMPI PUSH1 0x0 DUP3 DUP3 DUP2 MLOAD DUP2 LT PUSH2 0xF3C JUMPI INVALID JUMPDEST PUSH1 0x20 MUL PUSH1 0x20 ADD ADD MLOAD SWAP1 POP PUSH1 0x0 PUSH1 0x60 DUP3 PUSH1 0x40 ADD MLOAD GAS LT ISZERO PUSH2 0xF88 JUMPI PUSH1 0x40 MLOAD PUSH32 0x8C379A000000000000000000000000000000000000000000000000000000000 DUP2 MSTORE PUSH1 0x4 ADD PUSH2 0x99A SWAP1 PUSH2 0x2D55 JUMP JUMPDEST DUP3 MLOAD ISZERO PUSH2 0x1020 JUMPI DUP3 PUSH1 0x60 ADD MLOAD PUSH20 0xFFFFFFFFFFFFFFFFFFFFFFFFFFFFFFFFFFFFFFFF AND DUP4 PUSH1 0x40 ADD MLOAD PUSH1 0x0 EQ PUSH2 0xFC0 JUMPI DUP4 PUSH1 0x40 ADD MLOAD PUSH2 0xFC2 JUMP JUMPDEST GAS JUMPDEST DUP5 PUSH1 0xA0 ADD MLOAD PUSH1 0x40 MLOAD PUSH2 0xFD4 SWAP2 SWAP1 PUSH2 0x2C87 JUMP JUMPDEST PUSH1 0x0 PUSH1 0x40 MLOAD DUP1 DUP4 SUB DUP2 DUP7 DUP7 DELEGATECALL SWAP3 POP POP POP RETURNDATASIZE DUP1 PUSH1 0x0 DUP2 EQ PUSH2 0x1010 JUMPI PUSH1 0x40 MLOAD SWAP2 POP PUSH1 0x1F NOT PUSH1 0x3F RETURNDATASIZE ADD AND DUP3 ADD PUSH1 0x40 MSTORE RETURNDATASIZE DUP3 MSTORE RETURNDATASIZE PUSH1 0x0 PUSH1 0x20 DUP5 ADD RETURNDATACOPY PUSH2 0x1015 JUMP JUMPDEST PUSH1 0x60 SWAP2 POP JUMPDEST POP SWAP1 SWAP3 POP SWAP1 POP PUSH2 0x10B5 JUMP JUMPDEST DUP3 PUSH1 0x60 ADD MLOAD PUSH20 0xFFFFFFFFFFFFFFFFFFFFFFFFFFFFFFFFFFFFFFFF AND DUP4 PUSH1 0x80 ADD MLOAD DUP5 PUSH1 0x40 ADD MLOAD PUSH1 0x0 EQ PUSH2 0x1056 JUMPI DUP5 PUSH1 0x40 ADD MLOAD PUSH2 0x1058 JUMP JUMPDEST GAS JUMPDEST SWAP1 DUP6 PUSH1 0xA0 ADD MLOAD PUSH1 0x40 MLOAD PUSH2 0x106B SWAP2 SWAP1 PUSH2 0x2C87 JUMP JUMPDEST PUSH1 0x0 PUSH1 0x40 MLOAD DUP1 DUP4 SUB DUP2 DUP6 DUP9 DUP9 CALL SWAP4 POP POP POP POP RETURNDATASIZE DUP1 PUSH1 0x0 DUP2 EQ PUSH2 0x10A9 JUMPI PUSH1 0x40 MLOAD SWAP2 POP PUSH1 0x1F NOT PUSH1 0x3F RETURNDATASIZE ADD AND DUP3 ADD PUSH1 0x40 MSTORE RETURNDATASIZE DUP3 MSTORE RETURNDATASIZE PUSH1 0x0 PUSH1 0x20 DUP5 ADD RETURNDATACOPY PUSH2 0x10AE JUMP JUMPDEST PUSH1 0x60 SWAP2 POP JUMPDEST POP SWAP1 SWAP3 POP SWAP1 POP JUMPDEST DUP2 ISZERO PUSH2 0x10D6 JUMPI DUP6 PUSH1 0x40 MLOAD PUSH2 0x10C9 SWAP2 SWAP1 PUSH2 0x2CCF JUMP JUMPDEST PUSH1 0x40 MLOAD DUP1 SWAP2 SUB SWAP1 LOG0 PUSH2 0x10E1 JUMP JUMPDEST PUSH2 0x10E1 DUP4 DUP8 DUP4 PUSH2 0x188D JUMP JUMPDEST POP POP POP PUSH1 0x1 ADD PUSH2 0xF25 JUMP JUMPDEST POP POP POP JUMP JUMPDEST PUSH1 0x0 DUP1 PUSH2 0x10FD DUP4 PUSH2 0x18DD JUMP JUMPDEST SWAP2 POP SWAP2 POP PUSH1 0x0 PUSH2 0x110C DUP4 PUSH2 0xAC1 JUMP JUMPDEST SWAP1 POP DUP1 DUP3 EQ PUSH2 0x1147 JUMPI PUSH1 0x40 MLOAD PUSH32 0x8C379A000000000000000000000000000000000000000000000000000000000 DUP2 MSTORE PUSH1 0x4 ADD PUSH2 0x99A SWAP1 PUSH2 0x2D1E JUMP JUMPDEST PUSH1 0x1 DUP3 ADD PUSH2 0x1155 DUP5 DUP3 PUSH2 0x18F6 JUMP JUMPDEST PUSH32 0x1F180C27086C7A39EA2A7B25239D1AB92348F07CA7BB59D1438FCF527568F881 DUP5 DUP3 PUSH1 0x40 MLOAD PUSH2 0x1186 SWAP3 SWAP2 SWAP1 PUSH2 0x2E6F JUMP JUMPDEST PUSH1 0x40 MLOAD DUP1 SWAP2 SUB SWAP1 LOG1 POP POP POP POP POP JUMP JUMPDEST PUSH1 0x0 DUP1 PUSH1 0x0 PUSH2 0x11A3 DUP5 PUSH2 0x1921 JUMP JUMPDEST SWAP1 SWAP3 POP SWAP1 POP PUSH2 0xFFFF DUP3 AND PUSH1 0x0 JUMPDEST DUP6 MLOAD DUP4 LT ISZERO PUSH2 0x136A JUMPI PUSH1 0x0 DUP1 DUP1 PUSH2 0x11C7 DUP10 DUP8 PUSH2 0x198F JUMP JUMPDEST SWAP8 POP PUSH1 0xFF SWAP2 DUP3 AND SWAP5 POP AND SWAP2 POP PUSH1 0x1 DUP4 EQ ISZERO PUSH2 0x11EF JUMPI PUSH2 0x11E6 DUP10 DUP8 PUSH2 0x1A10 JUMP JUMPDEST SWAP7 POP SWAP1 POP PUSH2 0x1313 JUMP JUMPDEST DUP3 PUSH2 0x121B JUMPI PUSH1 0x60 PUSH2 0x1200 DUP11 DUP9 PUSH2 0x1A88 JUMP JUMPDEST SWAP8 POP SWAP1 POP PUSH2 0x120E DUP12 DUP3 PUSH2 0x1B39 JUMP JUMPDEST SWAP2 POP DUP3 DUP6 ADD SWAP5 POP POP PUSH2 0x1313 JUMP JUMPDEST PUSH1 0x2 DUP4 EQ ISZERO PUSH2 0x12C2 JUMPI PUSH2 0x122E DUP10 DUP8 PUSH2 0x1A10 JUMP JUMPDEST SWAP7 POP SWAP1 POP PUSH1 0x0 PUSH2 0x123E DUP11 DUP9 PUSH2 0x1EC3 JUMP JUMPDEST SWAP8 POP PUSH2 0xFFFF AND SWAP1 POP PUSH1 0x60 PUSH2 0x1253 DUP12 DUP10 DUP5 PUSH2 0x1F34 JUMP JUMPDEST SWAP9 POP SWAP1 POP PUSH2 0x1262 DUP13 DUP5 DUP4 PUSH2 0x2023 JUMP JUMPDEST PUSH2 0x12B7 JUMPI PUSH1 0x40 MLOAD PUSH32 0x8C379A000000000000000000000000000000000000000000000000000000000 DUP2 MSTORE PUSH1 0x4 ADD DUP1 DUP1 PUSH1 0x20 ADD DUP3 DUP2 SUB DUP3 MSTORE PUSH1 0x32 DUP2 MSTORE PUSH1 0x20 ADD DUP1 PUSH2 0x3144 PUSH1 0x32 SWAP2 CODECOPY PUSH1 0x40 ADD SWAP2 POP POP PUSH1 0x40 MLOAD DUP1 SWAP2 SUB SWAP1 REVERT JUMPDEST POP POP SWAP3 DUP2 ADD SWAP3 PUSH2 0x1313 JUMP JUMPDEST PUSH1 0x40 MLOAD PUSH32 0x8C379A000000000000000000000000000000000000000000000000000000000 DUP2 MSTORE PUSH1 0x4 ADD DUP1 DUP1 PUSH1 0x20 ADD DUP3 DUP2 SUB DUP3 MSTORE PUSH1 0x2C DUP2 MSTORE PUSH1 0x20 ADD DUP1 PUSH2 0x2F45 PUSH1 0x2C SWAP2 CODECOPY PUSH1 0x40 ADD SWAP2 POP POP PUSH1 0x40 MLOAD DUP1 SWAP2 SUB SWAP1 REVERT JUMPDEST DUP5 DUP3 DUP3 PUSH1 0x40 MLOAD PUSH1 0x20 ADD DUP1 DUP5 DUP2 MSTORE PUSH1 0x20 ADD DUP4 DUP2 MSTORE PUSH1 0x20 ADD DUP3 PUSH20 0xFFFFFFFFFFFFFFFFFFFFFFFFFFFFFFFFFFFFFFFF AND DUP2 MSTORE PUSH1 0x20 ADD SWAP4 POP POP POP POP PUSH1 0x40 MLOAD PUSH1 0x20 DUP2 DUP4 SUB SUB DUP2 MSTORE SWAP1 PUSH1 0x40 MSTORE DUP1 MLOAD SWAP1 PUSH1 0x20 ADD KECCAK256 SWAP5 POP POP POP POP PUSH2 0x11B0 JUMP JUMPDEST DUP4 PUSH2 0xFFFF AND DUP2 LT ISZERO DUP1 ISZERO PUSH2 0x1382 JUMPI POP PUSH2 0x1382 DUP3 PUSH2 0x226B JUMP JUMPDEST SWAP8 SWAP7 POP POP POP POP POP POP POP JUMP JUMPDEST PUSH1 0x0 PUSH32 0xFFFFFFFF00000000000000000000000000000000000000000000000000000000 DUP3 AND PUSH32 0xEC6ABA5000000000000000000000000000000000000000000000000000000000 EQ DUP1 PUSH2 0x1420 JUMPI POP PUSH32 0xFFFFFFFF00000000000000000000000000000000000000000000000000000000 DUP3 AND PUSH32 0x4E2312E000000000000000000000000000000000000000000000000000000000 EQ JUMPDEST DUP1 PUSH2 0x146C JUMPI POP PUSH32 0xFFFFFFFF00000000000000000000000000000000000000000000000000000000 DUP3 AND PUSH32 0x150B7A0200000000000000000000000000000000000000000000000000000000 EQ JUMPDEST DUP1 PUSH2 0x14B8 JUMPI POP PUSH32 0xFFFFFFFF00000000000000000000000000000000000000000000000000000000 DUP3 AND PUSH32 0xC0EE0B8A00000000000000000000000000000000000000000000000000000000 EQ JUMPDEST ISZERO PUSH2 0x14C5 JUMPI POP PUSH1 0x1 PUSH2 0x4EC JUMP JUMPDEST PUSH2 0x4E9 DUP3 PUSH2 0x22A8 JUMP JUMPDEST PUSH1 0x0 DUP1 PUSH1 0x0 PUSH2 0x1512 DUP6 DUP6 DUP1 DUP1 PUSH1 0x1F ADD PUSH1 0x20 DUP1 SWAP2 DIV MUL PUSH1 0x20 ADD PUSH1 0x40 MLOAD SWAP1 DUP2 ADD PUSH1 0x40 MSTORE DUP1 SWAP4 SWAP3 SWAP2 SWAP1 DUP2 DUP2 MSTORE PUSH1 0x20 ADD DUP4 DUP4 DUP1 DUP3 DUP5 CALLDATACOPY PUSH1 0x0 SWAP3 ADD SWAP2 SWAP1 SWAP2 MSTORE POP PUSH2 0x1921 SWAP3 POP POP POP JUMP JUMPDEST SWAP1 SWAP3 POP SWAP1 POP PUSH2 0xFFFF DUP3 AND PUSH1 0x0 JUMPDEST DUP6 DUP4 LT ISZERO PUSH2 0x183B JUMPI PUSH1 0x0 DUP1 PUSH1 0x0 PUSH2 0x156F DUP7 DUP12 DUP12 DUP1 DUP1 PUSH1 0x1F ADD PUSH1 0x20 DUP1 SWAP2 DIV MUL PUSH1 0x20 ADD PUSH1 0x40 MLOAD SWAP1 DUP2 ADD PUSH1 0x40 MSTORE DUP1 SWAP4 SWAP3 SWAP2 SWAP1 DUP2 DUP2 MSTORE PUSH1 0x20 ADD DUP4 DUP4 DUP1 DUP3 DUP5 CALLDATACOPY PUSH1 0x0 SWAP3 ADD SWAP2 SWAP1 SWAP2 MSTORE POP SWAP3 SWAP4 SWAP3 POP POP PUSH2 0x198F SWAP1 POP JUMP JUMPDEST SWAP8 POP PUSH1 0xFF SWAP2 DUP3 AND SWAP5 POP AND SWAP2 POP PUSH1 0x1 DUP4 EQ ISZERO PUSH2 0x15D0 JUMPI PUSH2 0x15C7 DUP7 DUP12 DUP12 DUP1 DUP1 PUSH1 0x1F ADD PUSH1 0x20 DUP1 SWAP2 DIV MUL PUSH1 0x20 ADD PUSH1 0x40 MLOAD SWAP1 DUP2 ADD PUSH1 0x40 MSTORE DUP1 SWAP4 SWAP3 SWAP2 SWAP1 DUP2 DUP2 MSTORE PUSH1 0x20 ADD DUP4 DUP4 DUP1 DUP3 DUP5 CALLDATACOPY PUSH1 0x0 SWAP3 ADD SWAP2 SWAP1 SWAP2 MSTORE POP SWAP3 SWAP4 SWAP3 POP POP PUSH2 0x1A10 SWAP1 POP JUMP JUMPDEST SWAP7 POP SWAP1 POP PUSH2 0x17E4 JUMP JUMPDEST DUP3 PUSH2 0x1635 JUMPI PUSH1 0x60 PUSH2 0x161A DUP8 DUP13 DUP13 DUP1 DUP1 PUSH1 0x1F ADD PUSH1 0x20 DUP1 SWAP2 DIV MUL PUSH1 0x20 ADD PUSH1 0x40 MLOAD SWAP1 DUP2 ADD PUSH1 0x40 MSTORE DUP1 SWAP4 SWAP3 SWAP2 SWAP1 DUP2 DUP2 MSTORE PUSH1 0x20 ADD DUP4 DUP4 DUP1 DUP3 DUP5 CALLDATACOPY PUSH1 0x0 SWAP3 ADD SWAP2 SWAP1 SWAP2 MSTORE POP SWAP3 SWAP4 SWAP3 POP POP PUSH2 0x1A88 SWAP1 POP JUMP JUMPDEST SWAP8 POP SWAP1 POP PUSH2 0x1628 DUP13 DUP3 PUSH2 0x1B39 JUMP JUMPDEST SWAP2 POP DUP3 DUP6 ADD SWAP5 POP POP PUSH2 0x17E4 JUMP JUMPDEST PUSH1 0x2 DUP4 EQ ISZERO PUSH2 0x1793 JUMPI PUSH2 0x1681 DUP7 DUP12 DUP12 DUP1 DUP1 PUSH1 0x1F ADD PUSH1 0x20 DUP1 SWAP2 DIV MUL PUSH1 0x20 ADD PUSH1 0x40 MLOAD SWAP1 DUP2 ADD PUSH1 0x40 MSTORE DUP1 SWAP4 SWAP3 SWAP2 SWAP1 DUP2 DUP2 MSTORE PUSH1 0x20 ADD DUP4 DUP4 DUP1 DUP3 DUP5 CALLDATACOPY PUSH1 0x0 SWAP3 ADD SWAP2 SWAP1 SWAP2 MSTORE POP SWAP3 SWAP4 SWAP3 POP POP PUSH2 0x1A10 SWAP1 POP JUMP JUMPDEST DUP1 SWAP8 POP DUP2 SWAP3 POP POP POP PUSH1 0x0 PUSH2 0x16CE DUP8 DUP13 DUP13 DUP1 DUP1 PUSH1 0x1F ADD PUSH1 0x20 DUP1 SWAP2 DIV MUL PUSH1 0x20 ADD PUSH1 0x40 MLOAD SWAP1 DUP2 ADD PUSH1 0x40 MSTORE DUP1 SWAP4 SWAP3 SWAP2 SWAP1 DUP2 DUP2 MSTORE PUSH1 0x20 ADD DUP4 DUP4 DUP1 DUP3 DUP5 CALLDATACOPY PUSH1 0x0 SWAP3 ADD SWAP2 SWAP1 SWAP2 MSTORE POP SWAP3 SWAP4 SWAP3 POP POP PUSH2 0x1EC3 SWAP1 POP JUMP JUMPDEST DUP2 PUSH2 0xFFFF AND SWAP2 POP DUP1 SWAP9 POP DUP2 SWAP3 POP POP POP PUSH1 0x60 PUSH2 0x1724 DUP9 DUP4 DUP15 DUP15 DUP1 DUP1 PUSH1 0x1F ADD PUSH1 0x20 DUP1 SWAP2 DIV MUL PUSH1 0x20 ADD PUSH1 0x40 MLOAD SWAP1 DUP2 ADD PUSH1 0x40 MSTORE DUP1 SWAP4 SWAP3 SWAP2 SWAP1 DUP2 DUP2 MSTORE PUSH1 0x20 ADD DUP4 DUP4 DUP1 DUP3 DUP5 CALLDATACOPY PUSH1 0x0 SWAP3 ADD SWAP2 SWAP1 SWAP2 MSTORE POP SWAP3 SWAP5 SWAP4 SWAP3 POP POP PUSH2 0x1F34 SWAP1 POP JUMP JUMPDEST SWAP9 POP SWAP1 POP PUSH2 0x1733 DUP14 DUP5 DUP4 PUSH2 0x2023 JUMP JUMPDEST PUSH2 0x1788 JUMPI PUSH1 0x40 MLOAD PUSH32 0x8C379A000000000000000000000000000000000000000000000000000000000 DUP2 MSTORE PUSH1 0x4 ADD DUP1 DUP1 PUSH1 0x20 ADD DUP3 DUP2 SUB DUP3 MSTORE PUSH1 0x3F DUP2 MSTORE PUSH1 0x20 ADD DUP1 PUSH2 0x309C PUSH1 0x3F SWAP2 CODECOPY PUSH1 0x40 ADD SWAP2 POP POP PUSH1 0x40 MLOAD DUP1 SWAP2 SUB SWAP1 REVERT JUMPDEST POP POP SWAP3 DUP2 ADD SWAP3 PUSH2 0x17E4 JUMP JUMPDEST PUSH1 0x40 MLOAD PUSH32 0x8C379A000000000000000000000000000000000000000000000000000000000 DUP2 MSTORE PUSH1 0x4 ADD DUP1 DUP1 PUSH1 0x20 ADD DUP3 DUP2 SUB DUP3 MSTORE PUSH1 0x39 DUP2 MSTORE PUSH1 0x20 ADD DUP1 PUSH2 0x30DB PUSH1 0x39 SWAP2 CODECOPY PUSH1 0x40 ADD SWAP2 POP POP PUSH1 0x40 MLOAD DUP1 SWAP2 SUB SWAP1 REVERT JUMPDEST DUP5 DUP3 DUP3 PUSH1 0x40 MLOAD PUSH1 0x20 ADD DUP1 DUP5 DUP2 MSTORE PUSH1 0x20 ADD DUP4 DUP2 MSTORE PUSH1 0x20 ADD DUP3 PUSH20 0xFFFFFFFFFFFFFFFFFFFFFFFFFFFFFFFFFFFFFFFF AND DUP2 MSTORE PUSH1 0x20 ADD SWAP4 POP POP POP POP PUSH1 0x40 MLOAD PUSH1 0x20 DUP2 DUP4 SUB SUB DUP2 MSTORE SWAP1 PUSH1 0x40 MSTORE DUP1 MLOAD SWAP1 PUSH1 0x20 ADD KECCAK256 SWAP5 POP POP POP POP PUSH2 0x151F JUMP JUMPDEST DUP4 PUSH2 0xFFFF AND DUP2 LT ISZERO DUP1 ISZERO PUSH2 0x1853 JUMPI POP PUSH2 0x1853 DUP3 PUSH2 0x2305 JUMP JUMPDEST SWAP9 SWAP8 POP POP POP POP POP POP POP POP JUMP JUMPDEST PUSH1 0x40 DUP1 MLOAD PUSH1 0x20 DUP1 DUP3 ADD SWAP6 SWAP1 SWAP6 MSTORE DUP1 DUP3 ADD SWAP4 SWAP1 SWAP4 MSTORE DUP1 MLOAD DUP1 DUP5 SUB DUP3 ADD DUP2 MSTORE PUSH1 0x60 SWAP1 SWAP4 ADD SWAP1 MSTORE DUP2 MLOAD SWAP2 SWAP1 SWAP3 ADD KECCAK256 SSTORE JUMP JUMPDEST DUP3 PUSH1 0x20 ADD MLOAD ISZERO PUSH2 0x189F JUMPI DUP1 MLOAD PUSH1 0x20 DUP3 ADD REVERT JUMPDEST PUSH32 0x3DBD1590EA96DD3253A91F24E64E3A502E1225D602A5731357BC12643070CCD7 DUP3 DUP3 PUSH1 0x40 MLOAD PUSH2 0x18D0 SWAP3 SWAP2 SWAP1 PUSH2 0x2CD8 JUMP JUMPDEST PUSH1 0x40 MLOAD DUP1 SWAP2 SUB SWAP1 LOG1 POP POP POP JUMP JUMPDEST PUSH1 0x60 DUP2 SWAP1 SHR SWAP2 PUSH12 0xFFFFFFFFFFFFFFFFFFFFFFFF SWAP1 SWAP2 AND SWAP1 JUMP JUMPDEST PUSH2 0x933 PUSH32 0x8D0BF1FD623D628C741362C1289948E57B3E2905218C676D3E69ABEE36D6AE2E DUP4 DUP4 PUSH2 0x185F JUMP JUMPDEST PUSH1 0x20 DUP2 ADD MLOAD DUP2 MLOAD PUSH1 0xF0 SWAP2 SWAP1 SWAP2 SHR SWAP1 PUSH1 0x2 SWAP1 DUP2 GT ISZERO PUSH2 0x198A JUMPI PUSH1 0x40 MLOAD PUSH32 0x8C379A000000000000000000000000000000000000000000000000000000000 DUP2 MSTORE PUSH1 0x4 ADD DUP1 DUP1 PUSH1 0x20 ADD DUP3 DUP2 SUB DUP3 MSTORE PUSH1 0x27 DUP2 MSTORE PUSH1 0x20 ADD DUP1 PUSH2 0x3038 PUSH1 0x27 SWAP2 CODECOPY PUSH1 0x40 ADD SWAP2 POP POP PUSH1 0x40 MLOAD DUP1 SWAP2 SUB SWAP1 REVERT JUMPDEST SWAP2 POP SWAP2 JUMP JUMPDEST DUP1 DUP3 ADD PUSH1 0x20 ADD MLOAD PUSH1 0xF8 DUP2 SWAP1 SHR SWAP1 PUSH1 0xF0 SHR PUSH1 0xFF AND PUSH1 0x2 DUP4 ADD DUP4 DUP2 GT PUSH2 0x19AF JUMPI INVALID JUMPDEST DUP5 MLOAD DUP2 GT ISZERO PUSH2 0x1A09 JUMPI PUSH1 0x40 MLOAD PUSH32 0x8C379A000000000000000000000000000000000000000000000000000000000 DUP2 MSTORE PUSH1 0x4 ADD DUP1 DUP1 PUSH1 0x20 ADD DUP3 DUP2 SUB DUP3 MSTORE PUSH1 0x26 DUP2 MSTORE PUSH1 0x20 ADD DUP1 PUSH2 0x3279 PUSH1 0x26 SWAP2 CODECOPY PUSH1 0x40 ADD SWAP2 POP POP PUSH1 0x40 MLOAD DUP1 SWAP2 SUB SWAP1 REVERT JUMPDEST SWAP3 POP SWAP3 POP SWAP3 JUMP JUMPDEST DUP1 DUP3 ADD PUSH1 0x20 ADD MLOAD PUSH1 0x60 SHR PUSH1 0x14 DUP3 ADD DUP3 DUP2 GT PUSH2 0x1A27 JUMPI INVALID JUMPDEST DUP4 MLOAD DUP2 GT ISZERO PUSH2 0x1A81 JUMPI PUSH1 0x40 MLOAD PUSH32 0x8C379A000000000000000000000000000000000000000000000000000000000 DUP2 MSTORE PUSH1 0x4 ADD DUP1 DUP1 PUSH1 0x20 ADD DUP3 DUP2 SUB DUP3 MSTORE PUSH1 0x23 DUP2 MSTORE PUSH1 0x20 ADD DUP1 PUSH2 0x3015 PUSH1 0x23 SWAP2 CODECOPY PUSH1 0x40 ADD SWAP2 POP POP PUSH1 0x40 MLOAD DUP1 SWAP2 SUB SWAP1 REVERT JUMPDEST SWAP3 POP SWAP3 SWAP1 POP JUMP JUMPDEST PUSH1 0x40 DUP1 MLOAD PUSH1 0x42 DUP1 DUP3 MSTORE PUSH1 0x80 DUP3 ADD SWAP1 SWAP3 MSTORE PUSH1 0x60 SWAP2 PUSH1 0x0 SWAP2 SWAP1 PUSH1 0x20 DUP3 ADD DUP2 DUP1 CALLDATASIZE DUP4 CALLDATACOPY ADD SWAP1 POP POP SWAP2 POP DUP3 DUP5 ADD PUSH1 0x20 ADD DUP1 MLOAD PUSH1 0x20 DUP5 ADD MSTORE PUSH1 0x20 DUP2 ADD MLOAD PUSH1 0x40 DUP5 ADD MSTORE PUSH1 0x22 DUP2 ADD MLOAD PUSH1 0x42 DUP5 ADD MSTORE POP PUSH1 0x42 DUP4 ADD SWAP1 POP DUP3 DUP2 GT PUSH2 0x1ADF JUMPI INVALID JUMPDEST DUP4 MLOAD DUP2 GT ISZERO PUSH2 0x1A81 JUMPI PUSH1 0x40 MLOAD PUSH32 0x8C379A000000000000000000000000000000000000000000000000000000000 DUP2 MSTORE PUSH1 0x4 ADD DUP1 DUP1 PUSH1 0x20 ADD DUP3 DUP2 SUB DUP3 MSTORE PUSH1 0x23 DUP2 MSTORE PUSH1 0x20 ADD DUP1 PUSH2 0x31E1 PUSH1 0x23 SWAP2 CODECOPY PUSH1 0x40 ADD SWAP2 POP POP PUSH1 0x40 MLOAD DUP1 SWAP2 SUB SWAP1 REVERT JUMPDEST PUSH1 0x0 DUP2 MLOAD PUSH1 0x42 EQ PUSH2 0x1B95 JUMPI PUSH1 0x40 MLOAD PUSH32 0x8C379A000000000000000000000000000000000000000000000000000000000 DUP2 MSTORE PUSH1 0x4 ADD DUP1 DUP1 PUSH1 0x20 ADD DUP3 DUP2 SUB DUP3 MSTORE PUSH1 0x3A DUP2 MSTORE PUSH1 0x20 ADD DUP1 PUSH2 0x2F0B PUSH1 0x3A SWAP2 CODECOPY PUSH1 0x40 ADD SWAP2 POP POP PUSH1 0x40 MLOAD DUP1 SWAP2 SUB SWAP1 REVERT JUMPDEST PUSH1 0x0 DUP3 PUSH1 0x1 DUP5 MLOAD SUB DUP2 MLOAD DUP2 LT PUSH2 0x1BA7 JUMPI INVALID JUMPDEST PUSH1 0x20 ADD ADD MLOAD PUSH1 0xF8 SHR PUSH1 0xF8 SHL PUSH1 0xF8 SHR PUSH1 0xFF AND SWAP1 POP PUSH1 0x0 DUP4 PUSH1 0x40 DUP2 MLOAD DUP2 LT PUSH2 0x1BC9 JUMPI INVALID JUMPDEST ADD PUSH1 0x20 ADD MLOAD PUSH1 0xF8 SHR SWAP1 POP PUSH1 0x0 PUSH2 0x1BDF DUP6 DUP3 PUSH2 0x233A JUMP JUMPDEST SWAP1 POP PUSH1 0x0 PUSH2 0x1BEE DUP7 PUSH1 0x20 PUSH2 0x233A JUMP JUMPDEST SWAP1 POP PUSH32 0x7FFFFFFFFFFFFFFFFFFFFFFFFFFFFFFF5D576E7357A4501DDFE92F46681B20A0 DUP2 GT ISZERO PUSH2 0x1C69 JUMPI PUSH1 0x40 MLOAD PUSH32 0x8C379A000000000000000000000000000000000000000000000000000000000 DUP2 MSTORE PUSH1 0x4 ADD DUP1 DUP1 PUSH1 0x20 ADD DUP3 DUP2 SUB DUP3 MSTORE PUSH1 0x3D DUP2 MSTORE PUSH1 0x20 ADD DUP1 PUSH2 0x2ECE PUSH1 0x3D SWAP2 CODECOPY PUSH1 0x40 ADD SWAP2 POP POP PUSH1 0x40 MLOAD DUP1 SWAP2 SUB SWAP1 REVERT JUMPDEST DUP3 PUSH1 0xFF AND PUSH1 0x1B EQ ISZERO DUP1 ISZERO PUSH2 0x1C81 JUMPI POP DUP3 PUSH1 0xFF AND PUSH1 0x1C EQ ISZERO JUMPDEST ISZERO PUSH2 0x1CD7 JUMPI PUSH1 0x40 MLOAD PUSH32 0x8C379A000000000000000000000000000000000000000000000000000000000 DUP2 MSTORE PUSH1 0x4 ADD DUP1 DUP1 PUSH1 0x20 ADD DUP3 DUP2 SUB DUP3 MSTORE PUSH1 0x3D DUP2 MSTORE PUSH1 0x20 ADD DUP1 PUSH2 0x305F PUSH1 0x3D SWAP2 CODECOPY PUSH1 0x40 ADD SWAP2 POP POP PUSH1 0x40 MLOAD DUP1 SWAP2 SUB SWAP1 REVERT JUMPDEST PUSH1 0x1 DUP5 EQ ISZERO PUSH2 0x1D4B JUMPI PUSH1 0x1 DUP8 DUP5 DUP5 DUP5 PUSH1 0x40 MLOAD PUSH1 0x0 DUP2 MSTORE PUSH1 0x20 ADD PUSH1 0x40 MSTORE PUSH1 0x40 MLOAD DUP1 DUP6 DUP2 MSTORE PUSH1 0x20 ADD DUP5 PUSH1 0xFF AND DUP2 MSTORE PUSH1 0x20 ADD DUP4 DUP2 MSTORE PUSH1 0x20 ADD DUP3 DUP2 MSTORE PUSH1 0x20 ADD SWAP5 POP POP POP POP POP PUSH1 0x20 PUSH1 0x40 MLOAD PUSH1 0x20 DUP2 SUB SWAP1 DUP1 DUP5 SUB SWAP1 DUP6 GAS STATICCALL ISZERO DUP1 ISZERO PUSH2 0x1D3A JUMPI RETURNDATASIZE PUSH1 0x0 DUP1 RETURNDATACOPY RETURNDATASIZE PUSH1 0x0 REVERT JUMPDEST POP POP POP PUSH1 0x20 PUSH1 0x40 MLOAD SUB MLOAD SWAP5 POP PUSH2 0x1E4D JUMP JUMPDEST PUSH1 0x2 DUP5 EQ ISZERO PUSH2 0x1DFC JUMPI PUSH1 0x1 DUP8 PUSH1 0x40 MLOAD PUSH1 0x20 ADD DUP1 DUP1 PUSH32 0x19457468657265756D205369676E6564204D6573736167653A0A333200000000 DUP2 MSTORE POP PUSH1 0x1C ADD DUP3 DUP2 MSTORE PUSH1 0x20 ADD SWAP2 POP POP PUSH1 0x40 MLOAD PUSH1 0x20 DUP2 DUP4 SUB SUB DUP2 MSTORE SWAP1 PUSH1 0x40 MSTORE DUP1 MLOAD SWAP1 PUSH1 0x20 ADD KECCAK256 DUP5 DUP5 DUP5 PUSH1 0x40 MLOAD PUSH1 0x0 DUP2 MSTORE PUSH1 0x20 ADD PUSH1 0x40 MSTORE PUSH1 0x40 MLOAD DUP1 DUP6 DUP2 MSTORE PUSH1 0x20 ADD DUP5 PUSH1 0xFF AND DUP2 MSTORE PUSH1 0x20 ADD DUP4 DUP2 MSTORE PUSH1 0x20 ADD DUP3 DUP2 MSTORE PUSH1 0x20 ADD SWAP5 POP POP POP POP POP PUSH1 0x20 PUSH1 0x40 MLOAD PUSH1 0x20 DUP2 SUB SWAP1 DUP1 DUP5 SUB SWAP1 DUP6 GAS STATICCALL ISZERO DUP1 ISZERO PUSH2 0x1D3A JUMPI RETURNDATASIZE PUSH1 0x0 DUP1 RETURNDATACOPY RETURNDATASIZE PUSH1 0x0 REVERT JUMPDEST PUSH1 0x40 MLOAD PUSH32 0x8C379A000000000000000000000000000000000000000000000000000000000 DUP2 MSTORE PUSH1 0x4 ADD DUP1 DUP1 PUSH1 0x20 ADD DUP3 DUP2 SUB DUP3 MSTORE PUSH1 0x3C DUP2 MSTORE PUSH1 0x20 ADD DUP1 PUSH2 0x323D PUSH1 0x3C SWAP2 CODECOPY PUSH1 0x40 ADD SWAP2 POP POP PUSH1 0x40 MLOAD DUP1 SWAP2 SUB SWAP1 REVERT JUMPDEST PUSH20 0xFFFFFFFFFFFFFFFFFFFFFFFFFFFFFFFFFFFFFFFF DUP6 AND PUSH2 0x1EB9 JUMPI PUSH1 0x40 MLOAD PUSH32 0x8C379A000000000000000000000000000000000000000000000000000000000 DUP2 MSTORE PUSH1 0x4 ADD DUP1 DUP1 PUSH1 0x20 ADD DUP3 DUP2 SUB DUP3 MSTORE PUSH1 0x30 DUP2 MSTORE PUSH1 0x20 ADD DUP1 PUSH2 0x3114 PUSH1 0x30 SWAP2 CODECOPY PUSH1 0x40 ADD SWAP2 POP POP PUSH1 0x40 MLOAD DUP1 SWAP2 SUB SWAP1 REVERT JUMPDEST POP POP POP POP SWAP3 SWAP2 POP POP JUMP JUMPDEST DUP1 DUP3 ADD PUSH1 0x20 ADD MLOAD PUSH1 0xF0 SHR PUSH1 0x2 DUP3 ADD DUP3 DUP2 GT PUSH2 0x1EDA JUMPI INVALID JUMPDEST DUP4 MLOAD DUP2 GT ISZERO PUSH2 0x1A81 JUMPI PUSH1 0x40 MLOAD PUSH32 0x8C379A000000000000000000000000000000000000000000000000000000000 DUP2 MSTORE PUSH1 0x4 ADD DUP1 DUP1 PUSH1 0x20 ADD DUP3 DUP2 SUB DUP3 MSTORE PUSH1 0x22 DUP2 MSTORE PUSH1 0x20 ADD DUP1 PUSH2 0x32C0 PUSH1 0x22 SWAP2 CODECOPY PUSH1 0x40 ADD SWAP2 POP POP PUSH1 0x40 MLOAD DUP1 SWAP2 SUB SWAP1 REVERT JUMPDEST PUSH1 0x60 PUSH1 0x0 DUP3 PUSH8 0xFFFFFFFFFFFFFFFF DUP2 GT DUP1 ISZERO PUSH2 0x1F4F JUMPI PUSH1 0x0 DUP1 REVERT JUMPDEST POP PUSH1 0x40 MLOAD SWAP1 DUP1 DUP3 MSTORE DUP1 PUSH1 0x1F ADD PUSH1 0x1F NOT AND PUSH1 0x20 ADD DUP3 ADD PUSH1 0x40 MSTORE DUP1 ISZERO PUSH2 0x1F7A JUMPI PUSH1 0x20 DUP3 ADD DUP2 DUP1 CALLDATASIZE DUP4 CALLDATACOPY ADD SWAP1 POP JUMPDEST POP SWAP2 POP DUP4 DUP6 ADD PUSH1 0x20 ADD PUSH1 0x0 PUSH1 0x20 JUMPDEST DUP6 DUP2 LT ISZERO PUSH2 0x1FA1 JUMPI SWAP1 DUP3 ADD MLOAD DUP5 DUP3 ADD MSTORE PUSH1 0x20 DUP2 ADD PUSH2 0x1F88 JUMP JUMPDEST DUP5 DUP7 ADD PUSH1 0x20 ADD DUP1 MLOAD SWAP4 SWAP1 SWAP3 ADD MLOAD SWAP1 DUP6 ADD MSTORE MSTORE POP DUP3 DUP3 ADD DUP4 DUP2 LT ISZERO PUSH2 0x1FC1 JUMPI INVALID JUMPDEST DUP5 MLOAD DUP2 GT ISZERO PUSH2 0x201B JUMPI PUSH1 0x40 MLOAD PUSH32 0x8C379A000000000000000000000000000000000000000000000000000000000 DUP2 MSTORE PUSH1 0x4 ADD DUP1 DUP1 PUSH1 0x20 ADD DUP3 DUP2 SUB DUP3 MSTORE PUSH1 0x21 DUP2 MSTORE PUSH1 0x20 ADD DUP1 PUSH2 0x329F PUSH1 0x21 SWAP2 CODECOPY PUSH1 0x40 ADD SWAP2 POP POP PUSH1 0x40 MLOAD DUP1 SWAP2 SUB SWAP1 REVERT JUMPDEST SWAP4 POP SWAP4 SWAP2 POP POP JUMP JUMPDEST PUSH1 0x0 DUP1 DUP3 PUSH1 0x1 DUP5 MLOAD SUB DUP2 MLOAD DUP2 LT PUSH2 0x2036 JUMPI INVALID JUMPDEST ADD PUSH1 0x20 ADD MLOAD PUSH1 0xF8 SHR SWAP1 POP PUSH1 0x1 DUP2 EQ DUP1 PUSH2 0x204F JUMPI POP PUSH1 0x2 DUP2 EQ JUMPDEST ISZERO PUSH2 0x2093 JUMPI DUP4 PUSH20 0xFFFFFFFFFFFFFFFFFFFFFFFFFFFFFFFFFFFFFFFF AND PUSH2 0x2075 DUP7 DUP6 PUSH2 0x1B39 JUMP JUMPDEST PUSH20 0xFFFFFFFFFFFFFFFFFFFFFFFFFFFFFFFFFFFFFFFF AND EQ SWAP2 POP PUSH2 0x2263 JUMP JUMPDEST PUSH1 0x3 DUP2 EQ ISZERO PUSH2 0x2212 JUMPI DUP3 MLOAD PUSH32 0xFFFFFFFFFFFFFFFFFFFFFFFFFFFFFFFFFFFFFFFFFFFFFFFFFFFFFFFFFFFFFFFF DUP2 ADD DUP5 MSTORE PUSH1 0x40 DUP1 MLOAD PUSH32 0x1626BA7E00000000000000000000000000000000000000000000000000000000 DUP2 MSTORE PUSH1 0x4 DUP2 ADD DUP9 DUP2 MSTORE PUSH1 0x24 DUP3 ADD SWAP3 DUP4 MSTORE DUP7 MLOAD PUSH1 0x44 DUP4 ADD MSTORE DUP7 MLOAD PUSH20 0xFFFFFFFFFFFFFFFFFFFFFFFFFFFFFFFFFFFFFFFF DUP10 AND SWAP4 PUSH4 0x1626BA7E SWAP4 DUP12 SWAP4 DUP11 SWAP4 SWAP1 SWAP3 SWAP2 PUSH1 0x64 ADD SWAP1 PUSH1 0x20 DUP6 ADD SWAP1 DUP1 DUP4 DUP4 PUSH1 0x0 JUMPDEST DUP4 DUP2 LT ISZERO PUSH2 0x214D JUMPI DUP2 DUP2 ADD MLOAD DUP4 DUP3 ADD MSTORE PUSH1 0x20 ADD PUSH2 0x2135 JUMP JUMPDEST POP POP POP POP SWAP1 POP SWAP1 DUP2 ADD SWAP1 PUSH1 0x1F AND DUP1 ISZERO PUSH2 0x217A JUMPI DUP1 DUP3 SUB DUP1 MLOAD PUSH1 0x1 DUP4 PUSH1 0x20 SUB PUSH2 0x100 EXP SUB NOT AND DUP2 MSTORE PUSH1 0x20 ADD SWAP2 POP JUMPDEST POP SWAP4 POP POP POP POP PUSH1 0x20 PUSH1 0x40 MLOAD DUP1 DUP4 SUB DUP2 DUP7 DUP1 EXTCODESIZE ISZERO DUP1 ISZERO PUSH2 0x2198 JUMPI PUSH1 0x0 DUP1 REVERT JUMPDEST POP GAS STATICCALL ISZERO DUP1 ISZERO PUSH2 0x21AC JUMPI RETURNDATASIZE PUSH1 0x0 DUP1 RETURNDATACOPY RETURNDATASIZE PUSH1 0x0 REVERT JUMPDEST POP POP POP POP PUSH1 0x40 MLOAD RETURNDATASIZE PUSH1 0x20 DUP2 LT ISZERO PUSH2 0x21C2 JUMPI PUSH1 0x0 DUP1 REVERT JUMPDEST POP MLOAD SWAP1 DUP5 MSTORE PUSH32 0xFFFFFFFF00000000000000000000000000000000000000000000000000000000 AND PUSH32 0x1626BA7E00000000000000000000000000000000000000000000000000000000 EQ SWAP2 POP PUSH2 0x2263 JUMP JUMPDEST PUSH1 0x40 MLOAD PUSH32 0x8C379A000000000000000000000000000000000000000000000000000000000 DUP2 MSTORE PUSH1 0x4 ADD DUP1 DUP1 PUSH1 0x20 ADD DUP3 DUP2 SUB DUP3 MSTORE PUSH1 0x3F DUP2 MSTORE PUSH1 0x20 ADD DUP1 PUSH2 0x31A2 PUSH1 0x3F SWAP2 CODECOPY PUSH1 0x40 ADD SWAP2 POP POP PUSH1 0x40 MLOAD DUP1 SWAP2 SUB SWAP1 REVERT JUMPDEST POP SWAP4 SWAP3 POP POP POP JUMP JUMPDEST PUSH1 0x0 DUP2 ISZERO DUP1 ISZERO SWAP1 PUSH2 0x4E9 JUMPI POP PUSH2 0x22A0 PUSH32 0xEA7157FA25E3AA17D0AE2D5280FA4E24D421C61842AA85E45194E1145AA72BF8 PUSH2 0xEBE JUMP JUMPDEST SWAP1 SWAP2 EQ SWAP2 SWAP1 POP JUMP JUMPDEST PUSH1 0x0 PUSH32 0xFFFFFFFF00000000000000000000000000000000000000000000000000000000 DUP3 AND PUSH32 0x25B22BC00000000000000000000000000000000000000000000000000000000 EQ ISZERO PUSH2 0x22FC JUMPI POP PUSH1 0x1 PUSH2 0x4EC JUMP JUMPDEST PUSH2 0x4E9 DUP3 PUSH2 0x23A2 JUMP JUMPDEST PUSH1 0x0 DUP2 ISZERO DUP1 ISZERO SWAP1 PUSH2 0x4E9 JUMPI POP PUSH2 0x22A0 PUSH32 0x8C8764B3A50FEE69C9BEE6E956047501F434FB0E2349C75844A401A7F2A020D2 PUSH2 0xEBE JUMP JUMPDEST PUSH1 0x0 DUP2 PUSH1 0x20 ADD DUP4 MLOAD LT ISZERO PUSH2 0x2399 JUMPI PUSH1 0x40 MLOAD PUSH32 0x8C379A000000000000000000000000000000000000000000000000000000000 DUP2 MSTORE PUSH1 0x4 ADD DUP1 DUP1 PUSH1 0x20 ADD DUP3 DUP2 SUB DUP3 MSTORE PUSH1 0x3C DUP2 MSTORE PUSH1 0x20 ADD DUP1 PUSH2 0x32E2 PUSH1 0x3C SWAP2 CODECOPY PUSH1 0x40 ADD SWAP2 POP POP PUSH1 0x40 MLOAD DUP1 SWAP2 SUB SWAP1 REVERT JUMPDEST POP ADD PUSH1 0x20 ADD MLOAD SWAP1 JUMP JUMPDEST PUSH1 0x0 PUSH32 0xFFFFFFFF00000000000000000000000000000000000000000000000000000000 DUP3 AND PUSH32 0x389901C700000000000000000000000000000000000000000000000000000000 EQ ISZERO PUSH2 0x23F6 JUMPI POP PUSH1 0x1 PUSH2 0x4EC JUMP JUMPDEST PUSH2 0x4E9 DUP3 PUSH1 0x0 PUSH32 0xFFFFFFFF00000000000000000000000000000000000000000000000000000000 DUP3 AND PUSH32 0x25BB078800000000000000000000000000000000000000000000000000000000 EQ ISZERO PUSH2 0x244E JUMPI POP PUSH1 0x1 PUSH2 0x4EC JUMP JUMPDEST PUSH2 0x4E9 DUP3 PUSH1 0x0 PUSH32 0xFFFFFFFF00000000000000000000000000000000000000000000000000000000 DUP3 AND PUSH32 0x783649A600000000000000000000000000000000000000000000000000000000 EQ ISZERO PUSH2 0x24A6 JUMPI POP PUSH1 0x1 PUSH2 0x4EC JUMP JUMPDEST PUSH2 0x4E9 DUP3 PUSH1 0x0 PUSH32 0xFFFFFFFF00000000000000000000000000000000000000000000000000000000 DUP3 AND ISZERO DUP1 PUSH2 0x251C JUMPI POP PUSH32 0xFFFFFFFF00000000000000000000000000000000000000000000000000000000 DUP3 AND PUSH32 0x36E7817500000000000000000000000000000000000000000000000000000000 EQ JUMPDEST ISZERO PUSH2 0x2529 JUMPI POP PUSH1 0x1 PUSH2 0x4EC JUMP JUMPDEST PUSH32 0x1FFC9A700000000000000000000000000000000000000000000000000000000 PUSH32 0xFFFFFFFF00000000000000000000000000000000000000000000000000000000 DUP4 AND EQ PUSH2 0x4E9 JUMP JUMPDEST DUP1 CALLDATALOAD PUSH20 0xFFFFFFFFFFFFFFFFFFFFFFFFFFFFFFFFFFFFFFFF DUP2 AND DUP2 EQ PUSH2 0x4EC JUMPI PUSH1 0x0 DUP1 REVERT JUMPDEST PUSH1 0x0 DUP3 PUSH1 0x1F DUP4 ADD SLT PUSH2 0x25A7 JUMPI DUP1 DUP2 REVERT JUMPDEST DUP2 CALLDATALOAD PUSH1 0x20 PUSH8 0xFFFFFFFFFFFFFFFF DUP1 DUP4 GT ISZERO PUSH2 0x25BE JUMPI INVALID JUMPDEST PUSH2 0x25CB DUP3 DUP4 DUP6 MUL ADD PUSH2 0x2E7D JUMP JUMPDEST DUP4 DUP2 MSTORE DUP3 DUP2 ADD SWAP1 DUP7 DUP5 ADD DUP7 JUMPDEST DUP7 DUP2 LT ISZERO PUSH2 0x26A7 JUMPI DUP2 CALLDATALOAD DUP10 ADD PUSH1 0xC0 DUP1 PUSH32 0xFFFFFFFFFFFFFFFFFFFFFFFFFFFFFFFFFFFFFFFFFFFFFFFFFFFFFFFFFFFFFFE0 DUP4 DUP15 SUB ADD SLT ISZERO PUSH2 0x2615 JUMPI DUP10 DUP11 REVERT JUMPDEST PUSH1 0x40 DUP1 MLOAD DUP3 DUP2 ADD DUP2 DUP2 LT DUP11 DUP3 GT OR ISZERO PUSH2 0x262A JUMPI INVALID JUMPDEST DUP3 MSTORE PUSH2 0x2637 DUP5 DUP12 ADD PUSH2 0x26F7 JUMP JUMPDEST DUP2 MSTORE PUSH2 0x2644 DUP3 DUP6 ADD PUSH2 0x26F7 JUMP JUMPDEST DUP11 DUP3 ADD MSTORE PUSH1 0x60 DUP1 DUP6 ADD CALLDATALOAD DUP4 DUP4 ADD MSTORE PUSH1 0x80 SWAP3 POP PUSH2 0x2661 DUP4 DUP7 ADD PUSH2 0x2573 JUMP JUMPDEST SWAP1 DUP3 ADD MSTORE PUSH1 0xA0 DUP5 DUP2 ADD CALLDATALOAD DUP4 DUP4 ADD MSTORE SWAP3 DUP5 ADD CALLDATALOAD SWAP3 DUP10 DUP5 GT ISZERO PUSH2 0x2680 JUMPI DUP13 DUP14 REVERT JUMPDEST PUSH2 0x268E DUP16 DUP13 DUP7 DUP9 ADD ADD PUSH2 0x2777 JUMP JUMPDEST SWAP1 DUP3 ADD MSTORE DUP8 MSTORE POP POP POP SWAP3 DUP6 ADD SWAP3 SWAP1 DUP6 ADD SWAP1 PUSH1 0x1 ADD PUSH2 0x25D7 JUMP JUMPDEST POP SWAP1 SWAP9 SWAP8 POP POP POP POP POP POP POP POP JUMP JUMPDEST PUSH1 0x0 DUP1 DUP4 PUSH1 0x1F DUP5 ADD SLT PUSH2 0x26C6 JUMPI DUP2 DUP3 REVERT JUMPDEST POP DUP2 CALLDATALOAD PUSH8 0xFFFFFFFFFFFFFFFF DUP2 GT ISZERO PUSH2 0x26DD JUMPI DUP2 DUP3 REVERT JUMPDEST PUSH1 0x20 DUP4 ADD SWAP2 POP DUP4 PUSH1 0x20 DUP1 DUP4 MUL DUP6 ADD ADD GT ISZERO PUSH2 0x1A81 JUMPI PUSH1 0x0 DUP1 REVERT JUMPDEST DUP1 CALLDATALOAD DUP1 ISZERO ISZERO DUP2 EQ PUSH2 0x4EC JUMPI PUSH1 0x0 DUP1 REVERT JUMPDEST DUP1 CALLDATALOAD PUSH32 0xFFFFFFFF00000000000000000000000000000000000000000000000000000000 DUP2 AND DUP2 EQ PUSH2 0x4EC JUMPI PUSH1 0x0 DUP1 REVERT JUMPDEST PUSH1 0x0 DUP1 DUP4 PUSH1 0x1F DUP5 ADD SLT PUSH2 0x2748 JUMPI DUP2 DUP3 REVERT JUMPDEST POP DUP2 CALLDATALOAD PUSH8 0xFFFFFFFFFFFFFFFF DUP2 GT ISZERO PUSH2 0x275F JUMPI DUP2 DUP3 REVERT JUMPDEST PUSH1 0x20 DUP4 ADD SWAP2 POP DUP4 PUSH1 0x20 DUP3 DUP6 ADD ADD GT ISZERO PUSH2 0x1A81 JUMPI PUSH1 0x0 DUP1 REVERT JUMPDEST PUSH1 0x0 DUP3 PUSH1 0x1F DUP4 ADD SLT PUSH2 0x2787 JUMPI DUP1 DUP2 REVERT JUMPDEST DUP2 CALLDATALOAD PUSH8 0xFFFFFFFFFFFFFFFF DUP2 GT ISZERO PUSH2 0x279B JUMPI INVALID JUMPDEST PUSH2 0x27CC PUSH1 0x20 PUSH32 0xFFFFFFFFFFFFFFFFFFFFFFFFFFFFFFFFFFFFFFFFFFFFFFFFFFFFFFFFFFFFFFE0 PUSH1 0x1F DUP5 ADD AND ADD PUSH2 0x2E7D JUMP JUMPDEST DUP2 DUP2 MSTORE DUP5 PUSH1 0x20 DUP4 DUP7 ADD ADD GT ISZERO PUSH2 0x27E0 JUMPI DUP3 DUP4 REVERT JUMPDEST DUP2 PUSH1 0x20 DUP6 ADD PUSH1 0x20 DUP4 ADD CALLDATACOPY SWAP1 DUP2 ADD PUSH1 0x20 ADD SWAP2 SWAP1 SWAP2 MSTORE SWAP3 SWAP2 POP POP JUMP JUMPDEST PUSH1 0x0 PUSH1 0x20 DUP3 DUP5 SUB SLT ISZERO PUSH2 0x280B JUMPI DUP1 DUP2 REVERT JUMPDEST PUSH2 0x657 DUP3 PUSH2 0x2573 JUMP JUMPDEST PUSH1 0x0 DUP1 PUSH1 0x0 DUP1 PUSH1 0x0 DUP1 PUSH1 0x0 DUP1 PUSH1 0xA0 DUP10 DUP12 SUB SLT ISZERO PUSH2 0x282F JUMPI DUP4 DUP5 REVERT JUMPDEST PUSH2 0x2838 DUP10 PUSH2 0x2573 JUMP JUMPDEST SWAP8 POP PUSH2 0x2846 PUSH1 0x20 DUP11 ADD PUSH2 0x2573 JUMP JUMPDEST SWAP7 POP PUSH1 0x40 DUP10 ADD CALLDATALOAD PUSH8 0xFFFFFFFFFFFFFFFF DUP1 DUP3 GT ISZERO PUSH2 0x2862 JUMPI DUP6 DUP7 REVERT JUMPDEST PUSH2 0x286E DUP13 DUP4 DUP14 ADD PUSH2 0x26B5 JUMP JUMPDEST SWAP1 SWAP9 POP SWAP7 POP PUSH1 0x60 DUP12 ADD CALLDATALOAD SWAP2 POP DUP1 DUP3 GT ISZERO PUSH2 0x2886 JUMPI DUP6 DUP7 REVERT JUMPDEST PUSH2 0x2892 DUP13 DUP4 DUP14 ADD PUSH2 0x26B5 JUMP JUMPDEST SWAP1 SWAP7 POP SWAP5 POP PUSH1 0x80 DUP12 ADD CALLDATALOAD SWAP2 POP DUP1 DUP3 GT ISZERO PUSH2 0x28AA JUMPI DUP4 DUP5 REVERT JUMPDEST POP PUSH2 0x28B7 DUP12 DUP3 DUP13 ADD PUSH2 0x2737 JUMP JUMPDEST SWAP10 SWAP13 SWAP9 SWAP12 POP SWAP7 SWAP10 POP SWAP5 SWAP8 SWAP4 SWAP7 SWAP3 SWAP6 SWAP5 POP POP POP JUMP JUMPDEST PUSH1 0x0 DUP1 PUSH1 0x0 DUP1 PUSH1 0x0 PUSH1 0x80 DUP7 DUP9 SUB SLT ISZERO PUSH2 0x28E2 JUMPI DUP1 DUP2 REVERT JUMPDEST PUSH2 0x28EB DUP7 PUSH2 0x2573 JUMP JUMPDEST SWAP5 POP PUSH2 0x28F9 PUSH1 0x20 DUP8 ADD PUSH2 0x2573 JUMP JUMPDEST SWAP4 POP PUSH1 0x40 DUP7 ADD CALLDATALOAD SWAP3 POP PUSH1 0x60 DUP7 ADD CALLDATALOAD PUSH8 0xFFFFFFFFFFFFFFFF DUP2 GT ISZERO PUSH2 0x291B JUMPI DUP2 DUP3 REVERT JUMPDEST PUSH2 0x2927 DUP9 DUP3 DUP10 ADD PUSH2 0x2737 JUMP JUMPDEST SWAP7 SWAP10 SWAP6 SWAP9 POP SWAP4 SWAP7 POP SWAP3 SWAP5 SWAP4 SWAP3 POP POP POP JUMP JUMPDEST PUSH1 0x0 DUP1 PUSH1 0x0 DUP1 PUSH1 0x0 DUP1 PUSH1 0xA0 DUP8 DUP10 SUB SLT ISZERO PUSH2 0x2950 JUMPI DUP2 DUP3 REVERT JUMPDEST PUSH2 0x2959 DUP8 PUSH2 0x2573 JUMP JUMPDEST SWAP6 POP PUSH2 0x2967 PUSH1 0x20 DUP9 ADD PUSH2 0x2573 JUMP JUMPDEST SWAP5 POP PUSH1 0x40 DUP8 ADD CALLDATALOAD SWAP4 POP PUSH1 0x60 DUP8 ADD CALLDATALOAD SWAP3 POP PUSH1 0x80 DUP8 ADD CALLDATALOAD PUSH8 0xFFFFFFFFFFFFFFFF DUP2 GT ISZERO PUSH2 0x2990 JUMPI DUP3 DUP4 REVERT JUMPDEST PUSH2 0x299C DUP10 DUP3 DUP11 ADD PUSH2 0x2737 JUMP JUMPDEST SWAP8 SWAP11 SWAP7 SWAP10 POP SWAP5 SWAP8 POP SWAP3 SWAP6 SWAP4 SWAP5 SWAP3 POP POP POP JUMP JUMPDEST PUSH1 0x0 PUSH1 0x20 DUP3 DUP5 SUB SLT ISZERO PUSH2 0x29BF JUMPI DUP1 DUP2 REVERT JUMPDEST DUP2 CALLDATALOAD PUSH8 0xFFFFFFFFFFFFFFFF DUP2 GT ISZERO PUSH2 0x29D5 JUMPI DUP2 DUP3 REVERT JUMPDEST PUSH2 0x67A DUP5 DUP3 DUP6 ADD PUSH2 0x2597 JUMP JUMPDEST PUSH1 0x0 DUP1 PUSH1 0x0 PUSH1 0x60 DUP5 DUP7 SUB SLT ISZERO PUSH2 0x29F5 JUMPI DUP3 DUP4 REVERT JUMPDEST DUP4 CALLDATALOAD PUSH8 0xFFFFFFFFFFFFFFFF DUP1 DUP3 GT ISZERO PUSH2 0x2A0C JUMPI DUP5 DUP6 REVERT JUMPDEST PUSH2 0x2A18 DUP8 DUP4 DUP9 ADD PUSH2 0x2597 JUMP JUMPDEST SWAP5 POP PUSH1 0x20 DUP7 ADD CALLDATALOAD SWAP4 POP PUSH1 0x40 DUP7 ADD CALLDATALOAD SWAP2 POP DUP1 DUP3 GT ISZERO PUSH2 0x2A34 JUMPI DUP3 DUP4 REVERT JUMPDEST POP PUSH2 0x2A41 DUP7 DUP3 DUP8 ADD PUSH2 0x2777 JUMP JUMPDEST SWAP2 POP POP SWAP3 POP SWAP3 POP SWAP3 JUMP JUMPDEST PUSH1 0x0 PUSH1 0x20 DUP3 DUP5 SUB SLT ISZERO PUSH2 0x2A5C JUMPI DUP1 DUP2 REVERT JUMPDEST POP CALLDATALOAD SWAP2 SWAP1 POP JUMP JUMPDEST PUSH1 0x0 DUP1 PUSH1 0x0 PUSH1 0x40 DUP5 DUP7 SUB SLT ISZERO PUSH2 0x2A77 JUMPI DUP3 DUP4 REVERT JUMPDEST DUP4 CALLDATALOAD SWAP3 POP PUSH1 0x20 DUP5 ADD CALLDATALOAD PUSH8 0xFFFFFFFFFFFFFFFF DUP2 GT ISZERO PUSH2 0x2A94 JUMPI DUP3 DUP4 REVERT JUMPDEST PUSH2 0x2AA0 DUP7 DUP3 DUP8 ADD PUSH2 0x2737 JUMP JUMPDEST SWAP5 SWAP8 SWAP1 SWAP7 POP SWAP4 SWAP5 POP POP POP POP JUMP JUMPDEST PUSH1 0x0 PUSH1 0x20 DUP3 DUP5 SUB SLT ISZERO PUSH2 0x2ABE JUMPI DUP1 DUP2 REVERT JUMPDEST PUSH2 0x657 DUP3 PUSH2 0x2707 JUMP JUMPDEST PUSH1 0x0 DUP1 PUSH1 0x40 DUP4 DUP6 SUB SLT ISZERO PUSH2 0x2AD9 JUMPI DUP2 DUP3 REVERT JUMPDEST PUSH2 0x2AE2 DUP4 PUSH2 0x2707 JUMP JUMPDEST SWAP2 POP PUSH2 0x2AF0 PUSH1 0x20 DUP5 ADD PUSH2 0x2573 JUMP JUMPDEST SWAP1 POP SWAP3 POP SWAP3 SWAP1 POP JUMP JUMPDEST PUSH1 0x0 DUP1 PUSH1 0x0 DUP1 PUSH1 0x40 DUP6 DUP8 SUB SLT ISZERO PUSH2 0x2B0E JUMPI DUP2 DUP3 REVERT JUMPDEST DUP5 CALLDATALOAD PUSH8 0xFFFFFFFFFFFFFFFF DUP1 DUP3 GT ISZERO PUSH2 0x2B25 JUMPI DUP4 DUP5 REVERT JUMPDEST PUSH2 0x2B31 DUP9 DUP4 DUP10 ADD PUSH2 0x2737 JUMP JUMPDEST SWAP1 SWAP7 POP SWAP5 POP PUSH1 0x20 DUP8 ADD CALLDATALOAD SWAP2 POP DUP1 DUP3 GT ISZERO PUSH2 0x2B49 JUMPI DUP4 DUP5 REVERT JUMPDEST POP PUSH2 0x2B56 DUP8 DUP3 DUP9 ADD PUSH2 0x2737 JUMP JUMPDEST SWAP6 SWAP9 SWAP5 SWAP8 POP SWAP6 POP POP POP POP JUMP JUMPDEST PUSH1 0x0 PUSH1 0x20 DUP3 DUP5 SUB SLT ISZERO PUSH2 0x2B73 JUMPI DUP1 DUP2 REVERT JUMPDEST DUP2 CALLDATALOAD PUSH8 0xFFFFFFFFFFFFFFFF DUP2 GT ISZERO PUSH2 0x2B89 JUMPI DUP2 DUP3 REVERT JUMPDEST PUSH2 0x67A DUP5 DUP3 DUP6 ADD PUSH2 0x2777 JUMP JUMPDEST PUSH1 0x0 DUP2 MLOAD DUP1 DUP5 MSTORE PUSH1 0x20 DUP1 DUP6 ADD SWAP5 POP DUP5 DUP2 DUP4 MUL DUP7 ADD DUP3 DUP7 ADD DUP6 JUMPDEST DUP6 DUP2 LT ISZERO PUSH2 0x2C30 JUMPI DUP4 DUP4 SUB DUP10 MSTORE DUP2 MLOAD DUP1 MLOAD ISZERO ISZERO DUP5 MSTORE DUP6 DUP2 ADD MLOAD ISZERO ISZERO DUP7 DUP6 ADD MSTORE PUSH1 0x40 DUP1 DUP3 ADD MLOAD SWAP1 DUP6 ADD MSTORE PUSH1 0x60 DUP1 DUP3 ADD MLOAD PUSH20 0xFFFFFFFFFFFFFFFFFFFFFFFFFFFFFFFFFFFFFFFF AND SWAP1 DUP6 ADD MSTORE PUSH1 0x80 DUP1 DUP3 ADD MLOAD SWAP1 DUP6 ADD MSTORE PUSH1 0xA0 SWAP1 DUP2 ADD MLOAD PUSH1 0xC0 SWAP2 DUP6 ADD DUP3 SWAP1 MSTORE SWAP1 PUSH2 0x2C1C DUP2 DUP7 ADD DUP4 PUSH2 0x2C3D JUMP JUMPDEST SWAP11 DUP8 ADD SWAP11 SWAP5 POP POP POP SWAP1 DUP5 ADD SWAP1 PUSH1 0x1 ADD PUSH2 0x2BAE JUMP JUMPDEST POP SWAP1 SWAP8 SWAP7 POP POP POP POP POP POP POP JUMP JUMPDEST PUSH1 0x0 DUP2 MLOAD DUP1 DUP5 MSTORE PUSH2 0x2C55 DUP2 PUSH1 0x20 DUP7 ADD PUSH1 0x20 DUP7 ADD PUSH2 0x2EA1 JUMP JUMPDEST PUSH1 0x1F ADD PUSH32 0xFFFFFFFFFFFFFFFFFFFFFFFFFFFFFFFFFFFFFFFFFFFFFFFFFFFFFFFFFFFFFFE0 AND SWAP3 SWAP1 SWAP3 ADD PUSH1 0x20 ADD SWAP3 SWAP2 POP POP JUMP JUMPDEST PUSH1 0x0 DUP3 MLOAD PUSH2 0x2C99 DUP2 DUP5 PUSH1 0x20 DUP8 ADD PUSH2 0x2EA1 JUMP JUMPDEST SWAP2 SWAP1 SWAP2 ADD SWAP3 SWAP2 POP POP JUMP JUMPDEST PUSH20 0xFFFFFFFFFFFFFFFFFFFFFFFFFFFFFFFFFFFFFFFF SWAP2 SWAP1 SWAP2 AND DUP2 MSTORE PUSH1 0x20 ADD SWAP1 JUMP JUMPDEST SWAP1 ISZERO ISZERO DUP2 MSTORE PUSH1 0x20 ADD SWAP1 JUMP JUMPDEST SWAP1 DUP2 MSTORE PUSH1 0x20 ADD SWAP1 JUMP JUMPDEST PUSH1 0x0 DUP4 DUP3 MSTORE PUSH1 0x40 PUSH1 0x20 DUP4 ADD MSTORE PUSH2 0x654 PUSH1 0x40 DUP4 ADD DUP5 PUSH2 0x2C3D JUMP JUMPDEST PUSH32 0xFFFFFFFF00000000000000000000000000000000000000000000000000000000 SWAP2 SWAP1 SWAP2 AND DUP2 MSTORE PUSH1 0x20 ADD SWAP1 JUMP JUMPDEST PUSH1 0x20 DUP1 DUP3 MSTORE PUSH1 0x1F SWAP1 DUP3 ADD MSTORE PUSH32 0x4D61696E4D6F64756C65235F617574683A20494E56414C49445F4E4F4E434500 PUSH1 0x40 DUP3 ADD MSTORE PUSH1 0x60 ADD SWAP1 JUMP JUMPDEST PUSH1 0x20 DUP1 DUP3 MSTORE PUSH1 0x24 SWAP1 DUP3 ADD MSTORE PUSH32 0x4D6F64756C6543616C6C73235F657865637574653A204E4F545F454E4F554748 PUSH1 0x40 DUP3 ADD MSTORE PUSH32 0x5F47415300000000000000000000000000000000000000000000000000000000 PUSH1 0x60 DUP3 ADD MSTORE PUSH1 0x80 ADD SWAP1 JUMP JUMPDEST PUSH1 0x20 DUP1 DUP3 MSTORE PUSH1 0x26 SWAP1 DUP3 ADD MSTORE PUSH32 0x4D6F64756C6543616C6C7323657865637574653A20494E56414C49445F534947 PUSH1 0x40 DUP3 ADD MSTORE PUSH32 0x4E41545552450000000000000000000000000000000000000000000000000000 PUSH1 0x60 DUP3 ADD MSTORE PUSH1 0x80 ADD SWAP1 JUMP JUMPDEST PUSH1 0x0 PUSH1 0x40 DUP3 MSTORE PUSH1 0x5 PUSH1 0x40 DUP4 ADD MSTORE PUSH32 0x73656C663A000000000000000000000000000000000000000000000000000000 PUSH1 0x60 DUP4 ADD MSTORE PUSH1 0x80 PUSH1 0x20 DUP4 ADD MSTORE PUSH2 0x657 PUSH1 0x80 DUP4 ADD DUP5 PUSH2 0x2B95 JUMP JUMPDEST PUSH1 0x0 DUP4 DUP3 MSTORE PUSH1 0x40 PUSH1 0x20 DUP4 ADD MSTORE PUSH2 0x654 PUSH1 0x40 DUP4 ADD DUP5 PUSH2 0x2B95 JUMP JUMPDEST SWAP2 DUP3 MSTORE PUSH1 0x20 DUP3 ADD MSTORE PUSH1 0x40 ADD SWAP1 JUMP JUMPDEST PUSH1 0x40 MLOAD DUP2 DUP2 ADD PUSH8 0xFFFFFFFFFFFFFFFF DUP2 GT DUP3 DUP3 LT OR ISZERO PUSH2 0x2E99 JUMPI INVALID JUMPDEST PUSH1 0x40 MSTORE SWAP2 SWAP1 POP JUMP JUMPDEST PUSH1 0x0 JUMPDEST DUP4 DUP2 LT ISZERO PUSH2 0x2EBC JUMPI DUP2 DUP2 ADD MLOAD DUP4 DUP3 ADD MSTORE PUSH1 0x20 ADD PUSH2 0x2EA4 JUMP JUMPDEST DUP4 DUP2 GT ISZERO PUSH2 0x9AD JUMPI POP POP PUSH1 0x0 SWAP2 ADD MSTORE JUMP INVALID MSTORE8 PUSH10 0x676E617475726556616C PUSH10 0x6461746F72237265636F PUSH23 0x65725369676E65723A20696E76616C6964207369676E61 PUSH21 0x757265202773272076616C75655369676E61747572 PUSH6 0x56616C696461 PUSH21 0x6F72237265636F7665725369676E65723A20696E76 PUSH2 0x6C69 PUSH5 0x207369676E PUSH2 0x7475 PUSH19 0x65206C656E6774684D6F64756C654175746823 0x5F PUSH20 0x69676E617475726556616C69646174696F6E2049 0x4E JUMP COINBASE 0x4C 0x49 DIFFICULTY 0x5F CHAINID 0x4C COINBASE SELFBALANCE 0x4D PUSH16 0x64756C65417574685570677261646162 PUSH13 0x6544756F237570646174654578 PUSH21 0x65726E616C496D6167654861736820494E56414C49 DIFFICULTY 0x5F 0x49 0x4D COINBASE SELFBALANCE GASLIMIT 0x5F 0x48 COINBASE MSTORE8 0x48 0x4D PUSH16 0x64756C65417574685570677261646162 PUSH13 0x6523757064617465496D616765 0x48 PUSH2 0x7368 KECCAK256 0x49 0x4E JUMP COINBASE 0x4C 0x49 DIFFICULTY 0x5F 0x49 0x4D COINBASE SELFBALANCE GASLIMIT 0x5F 0x48 COINBASE MSTORE8 0x48 0x4D PUSH16 0x64756C65486F6F6B732372656D6F7665 0x48 PUSH16 0x6F6B3A20484F4F4B5F4E4F545F524547 0x49 MSTORE8 SLOAD GASLIMIT MSTORE GASLIMIT DIFFICULTY 0x4C PUSH10 0x62427974657323726561 PUSH5 0x4164647265 PUSH20 0x733A204F55545F4F465F424F554E44534C696242 PUSH26 0x7465732372656164466972737455696E7431363A204F55545F4F CHAINID 0x5F TIMESTAMP 0x4F SSTORE 0x4E DIFFICULTY MSTORE8 MSTORE8 PUSH10 0x676E617475726556616C PUSH10 0x6461746F72237265636F PUSH23 0x65725369676E65723A20696E76616C6964207369676E61 PUSH21 0x757265202776272076616C75654D6F64756C654175 PUSH21 0x6855706772616461626C6544756F235F7369676E61 PUSH21 0x75726556616C69646174696F6E3A20494E56414C49 DIFFICULTY 0x5F MSTORE8 0x49 SELFBALANCE 0x4E COINBASE SLOAD SSTORE MSTORE GASLIMIT 0x4D PUSH16 0x64756C65417574685570677261646162 PUSH13 0x6544756F235F7369676E617475 PUSH19 0x6556616C69646174696F6E20494E56414C4944 0x5F CHAINID 0x4C COINBASE SELFBALANCE MSTORE8 PUSH10 0x676E617475726556616C PUSH10 0x6461746F72237265636F PUSH23 0x65725369676E65723A20494E56414C49445F5349474E45 MSTORE 0x4D PUSH16 0x64756C6541757468235F7369676E6174 PUSH22 0x726556616C69646174696F6E3A20494E56414C49445F MSTORE8 0x49 SELFBALANCE 0x4E COINBASE SLOAD SSTORE MSTORE GASLIMIT 0x4D PUSH16 0x64756C65486F6F6B7323616464486F6F PUSH12 0x3A20484F4F4B5F414C524541 DIFFICULTY MSIZE 0x5F MSTORE GASLIMIT SELFBALANCE 0x49 MSTORE8 SLOAD GASLIMIT MSTORE GASLIMIT DIFFICULTY MSTORE8 PUSH10 0x676E617475726556616C PUSH10 0x6461746F722369735661 PUSH13 0x69645369676E61747572653A20 SSTORE 0x4E MSTORE8 SSTORE POP POP 0x4F MSTORE SLOAD GASLIMIT DIFFICULTY 0x5F MSTORE8 0x49 SELFBALANCE 0x4E COINBASE SLOAD SSTORE MSTORE GASLIMIT 0x5F SLOAD MSIZE POP GASLIMIT 0x4C PUSH10 0x62427974657323726561 PUSH5 0x4279746573 CALLDATASIZE CALLDATASIZE GASPRICE KECCAK256 0x4F SSTORE SLOAD 0x5F 0x4F CHAINID 0x5F TIMESTAMP 0x4F SSTORE 0x4E DIFFICULTY MSTORE8 0x4D PUSH16 0x64756C65557064617465237570646174 PUSH6 0x496D706C656D PUSH6 0x6E746174696F PUSH15 0x3A20494E56414C49445F494D504C45 0x4D GASLIMIT 0x4E SLOAD COINBASE SLOAD 0x49 0x4F 0x4E MSTORE8 PUSH10 0x676E617475726556616C PUSH10 0x6461746F72237265636F PUSH23 0x65725369676E65723A20554E535550504F525445445F53 0x49 SELFBALANCE 0x4E COINBASE SLOAD SSTORE MSTORE GASLIMIT 0x5F SLOAD MSIZE POP GASLIMIT 0x4C PUSH10 0x62427974657323726561 PUSH5 0x55696E7438 SSTORE PUSH10 0x6E74383A204F55545F4F CHAINID 0x5F TIMESTAMP 0x4F SSTORE 0x4E DIFFICULTY MSTORE8 0x4C PUSH10 0x62427974657323726561 PUSH5 0x4279746573 GASPRICE KECCAK256 0x4F SSTORE SLOAD 0x5F 0x4F CHAINID 0x5F TIMESTAMP 0x4F SSTORE 0x4E DIFFICULTY MSTORE8 0x4C PUSH10 0x62427974657323726561 PUSH5 0x55696E7431 CALLDATASIZE GASPRICE KECCAK256 0x4F SSTORE SLOAD 0x5F 0x4F CHAINID 0x5F TIMESTAMP 0x4F SSTORE 0x4E DIFFICULTY MSTORE8 0x4C PUSH10 0x62427974657323726561 PUSH5 0x4279746573 CALLER ORIGIN GASPRICE KECCAK256 SELFBALANCE MSTORE GASLIMIT COINBASE SLOAD GASLIMIT MSTORE 0x5F 0x4F MSTORE 0x5F GASLIMIT MLOAD SSTORE COINBASE 0x4C 0x5F SLOAD 0x4F 0x5F CALLER ORIGIN 0x5F 0x4C GASLIMIT 0x4E SELFBALANCE SLOAD 0x48 0x5F MSTORE GASLIMIT MLOAD SSTORE 0x49 MSTORE GASLIMIT DIFFICULTY 0x4D PUSH16 0x64756C6553656C6641757468236F6E6C PUSH26 0x53656C663A204E4F545F415554484F52495A4544A26469706673 PC 0x22 SLT KECCAK256 0xB6 RETURNDATASIZE 0x49 STATICCALL POP 0x24 BYTE 0xD3 0x5E 0xAC PUSH6 0xC5273E69CA09 0xD 0xC2 0xDC SHL GASLIMIT 0x26 0x22 GASPRICE PUSH26 0x1A38EFF815E364736F6C63430007060033000000000000000000 "
				}
			},
			"userdoc": {
				"kind": "user",
				"methods": {
					"addHook(bytes4,address)": {
						"notice": "Adds a new hook to handle a given function selector"
					},
					"createContract(bytes)": {
						"notice": "Creates a contract forwarding eth value"
					},
					"execute((bool,bool,uint256,address,uint256,bytes)[],uint256,bytes)": {
						"notice": "Allow wallet owner to execute an action"
					},
					"externalImageHash()": {
						"notice": "Returns the current external image hash of the wallet (only for `ERC-1271`)"
					},
					"imageHash()": {
						"notice": "Returns the current image hash of the wallet"
					},
					"isValidSignature(bytes,bytes)": {
						"notice": "Verifies whether the provided signature is valid with respect to the provided data"
					},
					"isValidSignature(bytes32,bytes)": {
						"notice": "Verifies whether the provided signature is valid with respect to the provided hash"
					},
					"nonce()": {
						"notice": "Returns the next nonce of the default nonce space"
					},
					"onERC1155BatchReceived(address,address,uint256[],uint256[],bytes)": {
						"notice": "Handle the receipt of multiple ERC1155 token types."
					},
					"onERC1155Received(address,address,uint256,uint256,bytes)": {
						"notice": "Handle the receipt of a single ERC1155 token type."
					},
					"onERC721Received(address,address,uint256,bytes)": {
						"notice": "Handle the receipt of a single ERC721 token."
					},
					"readHook(bytes4)": {
						"notice": "Reads the implementation hook of a signature"
					},
					"readNonce(uint256)": {
						"notice": "Returns the next nonce of the given nonce space"
					},
					"removeHook(bytes4)": {
						"notice": "Removes a registered hook"
					},
					"selfExecute((bool,bool,uint256,address,uint256,bytes)[])": {
						"notice": "Allow wallet to execute an action   without signing the message"
					},
					"supportsInterface(bytes4)": {
						"notice": "Query if a contract implements an interface"
					},
					"updateExternalImageHash(bytes32)": {
						"notice": "Updates the external image hash of the wallet"
					},
					"updateImageHash(bytes32)": {
						"notice": "Updates the signers configuration of the wallet"
					},
					"updateImplementation(address)": {
						"notice": "Updates the implementation of the base wallet"
					}
				},
				"notice": "Contains the core functionality arcadeum wallets will inherit with         the added functionality that the main-module can be changed.",
				"version": 1
			}
		}
	}
}