{
	"src/tokens/ERC1155/presets/soulbound/ERC1155Soulbound.sol": {
		"ERC1155Soulbound": {
			"abi": [
				{
					"inputs": [],
					"stateMutability": "nonpayable",
					"type": "constructor"
				},
				{
					"inputs": [],
					"name": "InvalidArrayLength",
					"type": "error"
				},
				{
					"inputs": [],
					"name": "InvalidInitialization",
					"type": "error"
				},
				{
					"inputs": [],
					"name": "TransfersLocked",
					"type": "error"
				},
				{
					"anonymous": false,
					"inputs": [
						{
							"indexed": true,
							"internalType": "address",
							"name": "_owner",
							"type": "address"
						},
						{
							"indexed": true,
							"internalType": "address",
							"name": "_operator",
							"type": "address"
						},
						{
							"indexed": false,
							"internalType": "bool",
							"name": "_approved",
							"type": "bool"
						}
					],
					"name": "ApprovalForAll",
					"type": "event"
				},
				{
					"anonymous": false,
					"inputs": [
						{
							"indexed": true,
							"internalType": "bytes32",
							"name": "role",
							"type": "bytes32"
						},
						{
							"indexed": true,
							"internalType": "bytes32",
							"name": "previousAdminRole",
							"type": "bytes32"
						},
						{
							"indexed": true,
							"internalType": "bytes32",
							"name": "newAdminRole",
							"type": "bytes32"
						}
					],
					"name": "RoleAdminChanged",
					"type": "event"
				},
				{
					"anonymous": false,
					"inputs": [
						{
							"indexed": true,
							"internalType": "bytes32",
							"name": "role",
							"type": "bytes32"
						},
						{
							"indexed": true,
							"internalType": "address",
							"name": "account",
							"type": "address"
						},
						{
							"indexed": true,
							"internalType": "address",
							"name": "sender",
							"type": "address"
						}
					],
					"name": "RoleGranted",
					"type": "event"
				},
				{
					"anonymous": false,
					"inputs": [
						{
							"indexed": true,
							"internalType": "bytes32",
							"name": "role",
							"type": "bytes32"
						},
						{
							"indexed": true,
							"internalType": "address",
							"name": "account",
							"type": "address"
						},
						{
							"indexed": true,
							"internalType": "address",
							"name": "sender",
							"type": "address"
						}
					],
					"name": "RoleRevoked",
					"type": "event"
				},
				{
					"anonymous": false,
					"inputs": [
						{
							"indexed": true,
							"internalType": "address",
							"name": "_operator",
							"type": "address"
						},
						{
							"indexed": true,
							"internalType": "address",
							"name": "_from",
							"type": "address"
						},
						{
							"indexed": true,
							"internalType": "address",
							"name": "_to",
							"type": "address"
						},
						{
							"indexed": false,
							"internalType": "uint256[]",
							"name": "_ids",
							"type": "uint256[]"
						},
						{
							"indexed": false,
							"internalType": "uint256[]",
							"name": "_amounts",
							"type": "uint256[]"
						}
					],
					"name": "TransferBatch",
					"type": "event"
				},
				{
					"anonymous": false,
					"inputs": [
						{
							"indexed": true,
							"internalType": "address",
							"name": "_operator",
							"type": "address"
						},
						{
							"indexed": true,
							"internalType": "address",
							"name": "_from",
							"type": "address"
						},
						{
							"indexed": true,
							"internalType": "address",
							"name": "_to",
							"type": "address"
						},
						{
							"indexed": false,
							"internalType": "uint256",
							"name": "_id",
							"type": "uint256"
						},
						{
							"indexed": false,
							"internalType": "uint256",
							"name": "_amount",
							"type": "uint256"
						}
					],
					"name": "TransferSingle",
					"type": "event"
				},
				{
					"anonymous": false,
					"inputs": [
						{
							"indexed": false,
							"internalType": "string",
							"name": "_uri",
							"type": "string"
						},
						{
							"indexed": true,
							"internalType": "uint256",
							"name": "_id",
							"type": "uint256"
						}
					],
					"name": "URI",
					"type": "event"
				},
				{
					"inputs": [],
					"name": "DEFAULT_ADMIN_ROLE",
					"outputs": [
						{
							"internalType": "bytes32",
							"name": "",
							"type": "bytes32"
						}
					],
					"stateMutability": "view",
					"type": "function"
				},
				{
					"inputs": [],
					"name": "TRANSFER_ADMIN_ROLE",
					"outputs": [
						{
							"internalType": "bytes32",
							"name": "",
							"type": "bytes32"
						}
					],
					"stateMutability": "view",
					"type": "function"
				},
				{
					"inputs": [
						{
							"internalType": "address",
							"name": "_owner",
							"type": "address"
						},
						{
							"internalType": "uint256",
							"name": "_id",
							"type": "uint256"
						}
					],
					"name": "balanceOf",
					"outputs": [
						{
							"internalType": "uint256",
							"name": "",
							"type": "uint256"
						}
					],
					"stateMutability": "view",
					"type": "function"
				},
				{
					"inputs": [
						{
							"internalType": "address[]",
							"name": "_owners",
							"type": "address[]"
						},
						{
							"internalType": "uint256[]",
							"name": "_ids",
							"type": "uint256[]"
						}
					],
					"name": "balanceOfBatch",
					"outputs": [
						{
							"internalType": "uint256[]",
							"name": "",
							"type": "uint256[]"
						}
					],
					"stateMutability": "view",
					"type": "function"
				},
				{
					"inputs": [],
					"name": "baseURI",
					"outputs": [
						{
							"internalType": "string",
							"name": "",
							"type": "string"
						}
					],
					"stateMutability": "view",
					"type": "function"
				},
				{
					"inputs": [
						{
							"internalType": "uint256[]",
							"name": "tokenIds",
							"type": "uint256[]"
						},
						{
							"internalType": "uint256[]",
							"name": "amounts",
							"type": "uint256[]"
						}
					],
					"name": "batchBurn",
					"outputs": [],
					"stateMutability": "nonpayable",
					"type": "function"
				},
				{
					"inputs": [
						{
							"internalType": "address",
							"name": "to",
							"type": "address"
						},
						{
							"internalType": "uint256[]",
							"name": "tokenIds",
							"type": "uint256[]"
						},
						{
							"internalType": "uint256[]",
							"name": "amounts",
							"type": "uint256[]"
						},
						{
							"internalType": "bytes",
							"name": "data",
							"type": "bytes"
						}
					],
					"name": "batchMint",
					"outputs": [],
					"stateMutability": "nonpayable",
					"type": "function"
				},
				{
					"inputs": [
						{
							"internalType": "uint256",
							"name": "tokenId",
							"type": "uint256"
						},
						{
							"internalType": "uint256",
							"name": "amount",
							"type": "uint256"
						}
					],
					"name": "burn",
					"outputs": [],
					"stateMutability": "nonpayable",
					"type": "function"
				},
				{
					"inputs": [],
					"name": "contractURI",
					"outputs": [
						{
							"internalType": "string",
							"name": "",
							"type": "string"
						}
					],
					"stateMutability": "view",
					"type": "function"
				},
				{
					"inputs": [
						{
							"internalType": "bytes32",
							"name": "role",
							"type": "bytes32"
						}
					],
					"name": "getRoleAdmin",
					"outputs": [
						{
							"internalType": "bytes32",
							"name": "",
							"type": "bytes32"
						}
					],
					"stateMutability": "view",
					"type": "function"
				},
				{
					"inputs": [
						{
							"internalType": "bytes32",
							"name": "role",
							"type": "bytes32"
						},
						{
							"internalType": "uint256",
							"name": "index",
							"type": "uint256"
						}
					],
					"name": "getRoleMember",
					"outputs": [
						{
							"internalType": "address",
							"name": "",
							"type": "address"
						}
					],
					"stateMutability": "view",
					"type": "function"
				},
				{
					"inputs": [
						{
							"internalType": "bytes32",
							"name": "role",
							"type": "bytes32"
						}
					],
					"name": "getRoleMemberCount",
					"outputs": [
						{
							"internalType": "uint256",
							"name": "",
							"type": "uint256"
						}
					],
					"stateMutability": "view",
					"type": "function"
				},
				{
					"inputs": [],
					"name": "getTransferLocked",
					"outputs": [
						{
							"internalType": "bool",
							"name": "",
							"type": "bool"
						}
					],
					"stateMutability": "view",
					"type": "function"
				},
				{
					"inputs": [
						{
							"internalType": "bytes32",
							"name": "role",
							"type": "bytes32"
						},
						{
							"internalType": "address",
							"name": "account",
							"type": "address"
						}
					],
					"name": "grantRole",
					"outputs": [],
					"stateMutability": "nonpayable",
					"type": "function"
				},
				{
					"inputs": [
						{
							"internalType": "bytes32",
							"name": "role",
							"type": "bytes32"
						},
						{
							"internalType": "address",
							"name": "account",
							"type": "address"
						}
					],
					"name": "hasRole",
					"outputs": [
						{
							"internalType": "bool",
							"name": "",
							"type": "bool"
						}
					],
					"stateMutability": "view",
					"type": "function"
				},
				{
					"inputs": [
						{
							"internalType": "address",
							"name": "owner",
							"type": "address"
						},
						{
							"internalType": "string",
							"name": "tokenName",
							"type": "string"
						},
						{
							"internalType": "string",
							"name": "tokenBaseURI",
							"type": "string"
						},
						{
							"internalType": "string",
							"name": "tokenContractURI",
							"type": "string"
						},
						{
							"internalType": "address",
							"name": "royaltyReceiver",
							"type": "address"
						},
						{
							"internalType": "uint96",
							"name": "royaltyFeeNumerator",
							"type": "uint96"
						}
					],
					"name": "initialize",
					"outputs": [],
					"stateMutability": "nonpayable",
					"type": "function"
				},
				{
					"inputs": [
						{
							"internalType": "address",
							"name": "_owner",
							"type": "address"
						},
						{
							"internalType": "address",
							"name": "_operator",
							"type": "address"
						}
					],
					"name": "isApprovedForAll",
					"outputs": [
						{
							"internalType": "bool",
							"name": "isOperator",
							"type": "bool"
						}
					],
					"stateMutability": "view",
					"type": "function"
				},
				{
					"inputs": [
						{
							"internalType": "address",
							"name": "to",
							"type": "address"
						},
						{
							"internalType": "uint256",
							"name": "tokenId",
							"type": "uint256"
						},
						{
							"internalType": "uint256",
							"name": "amount",
							"type": "uint256"
						},
						{
							"internalType": "bytes",
							"name": "data",
							"type": "bytes"
						}
					],
					"name": "mint",
					"outputs": [],
					"stateMutability": "nonpayable",
					"type": "function"
				},
				{
					"inputs": [],
					"name": "name",
					"outputs": [
						{
							"internalType": "string",
							"name": "",
							"type": "string"
						}
					],
					"stateMutability": "view",
					"type": "function"
				},
				{
					"inputs": [
						{
							"internalType": "bytes32",
							"name": "role",
							"type": "bytes32"
						},
						{
							"internalType": "address",
							"name": "account",
							"type": "address"
						}
					],
					"name": "renounceRole",
					"outputs": [],
					"stateMutability": "nonpayable",
					"type": "function"
				},
				{
					"inputs": [
						{
							"internalType": "bytes32",
							"name": "role",
							"type": "bytes32"
						},
						{
							"internalType": "address",
							"name": "account",
							"type": "address"
						}
					],
					"name": "revokeRole",
					"outputs": [],
					"stateMutability": "nonpayable",
					"type": "function"
				},
				{
					"inputs": [
						{
							"internalType": "uint256",
							"name": "tokenId",
							"type": "uint256"
						},
						{
							"internalType": "uint256",
							"name": "salePrice",
							"type": "uint256"
						}
					],
					"name": "royaltyInfo",
					"outputs": [
						{
							"internalType": "address",
							"name": "",
							"type": "address"
						},
						{
							"internalType": "uint256",
							"name": "",
							"type": "uint256"
						}
					],
					"stateMutability": "view",
					"type": "function"
				},
				{
					"inputs": [
						{
							"internalType": "address",
							"name": "_from",
							"type": "address"
						},
						{
							"internalType": "address",
							"name": "_to",
							"type": "address"
						},
						{
							"internalType": "uint256[]",
							"name": "_ids",
							"type": "uint256[]"
						},
						{
							"internalType": "uint256[]",
							"name": "_amounts",
							"type": "uint256[]"
						},
						{
							"internalType": "bytes",
							"name": "_data",
							"type": "bytes"
						}
					],
					"name": "safeBatchTransferFrom",
					"outputs": [],
					"stateMutability": "nonpayable",
					"type": "function"
				},
				{
					"inputs": [
						{
							"internalType": "address",
							"name": "_from",
							"type": "address"
						},
						{
							"internalType": "address",
							"name": "_to",
							"type": "address"
						},
						{
							"internalType": "uint256",
							"name": "_id",
							"type": "uint256"
						},
						{
							"internalType": "uint256",
							"name": "_amount",
							"type": "uint256"
						},
						{
							"internalType": "bytes",
							"name": "_data",
							"type": "bytes"
						}
					],
					"name": "safeTransferFrom",
					"outputs": [],
					"stateMutability": "nonpayable",
					"type": "function"
				},
				{
					"inputs": [
						{
							"internalType": "address",
							"name": "_operator",
							"type": "address"
						},
						{
							"internalType": "bool",
							"name": "_approved",
							"type": "bool"
						}
					],
					"name": "setApprovalForAll",
					"outputs": [],
					"stateMutability": "nonpayable",
					"type": "function"
				},
				{
					"inputs": [
						{
							"internalType": "string",
							"name": "tokenBaseURI",
							"type": "string"
						}
					],
					"name": "setBaseMetadataURI",
					"outputs": [],
					"stateMutability": "nonpayable",
					"type": "function"
				},
				{
					"inputs": [
						{
							"internalType": "string",
							"name": "tokenName",
							"type": "string"
						}
					],
					"name": "setContractName",
					"outputs": [],
					"stateMutability": "nonpayable",
					"type": "function"
				},
				{
					"inputs": [
						{
							"internalType": "string",
							"name": "tokenContractURI",
							"type": "string"
						}
					],
					"name": "setContractURI",
					"outputs": [],
					"stateMutability": "nonpayable",
					"type": "function"
				},
				{
					"inputs": [
						{
							"internalType": "address",
							"name": "receiver",
							"type": "address"
						},
						{
							"internalType": "uint96",
							"name": "feeNumerator",
							"type": "uint96"
						}
					],
					"name": "setDefaultRoyalty",
					"outputs": [],
					"stateMutability": "nonpayable",
					"type": "function"
				},
				{
					"inputs": [
						{
							"internalType": "uint256",
							"name": "tokenId",
							"type": "uint256"
						},
						{
							"internalType": "address",
							"name": "receiver",
							"type": "address"
						},
						{
							"internalType": "uint96",
							"name": "feeNumerator",
							"type": "uint96"
						}
					],
					"name": "setTokenRoyalty",
					"outputs": [],
					"stateMutability": "nonpayable",
					"type": "function"
				},
				{
					"inputs": [
						{
							"internalType": "bool",
							"name": "locked",
							"type": "bool"
						}
					],
					"name": "setTransferLocked",
					"outputs": [],
					"stateMutability": "nonpayable",
					"type": "function"
				},
				{
					"inputs": [
						{
							"internalType": "bytes4",
							"name": "interfaceId",
							"type": "bytes4"
						}
					],
					"name": "supportsInterface",
					"outputs": [
						{
							"internalType": "bool",
							"name": "",
							"type": "bool"
						}
					],
					"stateMutability": "view",
					"type": "function"
				},
				{
					"inputs": [
						{
							"internalType": "uint256",
							"name": "",
							"type": "uint256"
						}
					],
					"name": "tokenSupply",
					"outputs": [
						{
							"internalType": "uint256",
							"name": "",
							"type": "uint256"
						}
					],
					"stateMutability": "view",
					"type": "function"
				},
				{
					"inputs": [],
					"name": "totalSupply",
					"outputs": [
						{
							"internalType": "uint256",
							"name": "",
							"type": "uint256"
						}
					],
					"stateMutability": "view",
					"type": "function"
				},
				{
					"inputs": [
						{
							"internalType": "uint256",
							"name": "_id",
							"type": "uint256"
						}
					],
					"name": "uri",
					"outputs": [
						{
							"internalType": "string",
							"name": "",
							"type": "string"
						}
					],
					"stateMutability": "view",
					"type": "function"
				}
			],
			"devdoc": {
				"events": {
					"ApprovalForAll(address,address,bool)": {
						"details": "MUST emit when an approval is updated"
					},
					"RoleAdminChanged(bytes32,bytes32,bytes32)": {
						"details": "Emitted when `newAdminRole` is set as ``role``'s admin role, replacing `previousAdminRole` `DEFAULT_ADMIN_ROLE` is the starting admin for all roles, despite {RoleAdminChanged} not being emitted signaling this. _Available since v3.1._"
					},
					"RoleGranted(bytes32,address,address)": {
						"details": "Emitted when `account` is granted `role`. `sender` is the account that originated the contract call, an admin role bearer except when using {AccessControl-_setupRole}."
					},
					"RoleRevoked(bytes32,address,address)": {
						"details": "Emitted when `account` is revoked `role`. `sender` is the account that originated the contract call:   - if using `revokeRole`, it is the admin role bearer   - if using `renounceRole`, it is the role bearer (i.e. `account`)"
					},
					"TransferBatch(address,address,address,uint256[],uint256[])": {
						"details": "Either TransferSingle or TransferBatch MUST emit when tokens are transferred, including zero amount transfers as well as minting or burning   Operator MUST be msg.sender   When minting/creating tokens, the `_from` field MUST be set to `0x0`   When burning/destroying tokens, the `_to` field MUST be set to `0x0`   The total amount transferred from address 0x0 minus the total amount transferred to 0x0 may be used by clients and exchanges to be added to the \"circulating supply\" for a given token ID   To broadcast the existence of multiple token IDs with no initial balance, this SHOULD emit the TransferBatch event from `0x0` to `0x0`, with the token creator as `_operator`, and a `_amount` of 0"
					},
					"TransferSingle(address,address,address,uint256,uint256)": {
						"details": "Either TransferSingle or TransferBatch MUST emit when tokens are transferred, including zero amount transfers as well as minting or burning   Operator MUST be msg.sender   When minting/creating tokens, the `_from` field MUST be set to `0x0`   When burning/destroying tokens, the `_to` field MUST be set to `0x0`   The total amount transferred from address 0x0 minus the total amount transferred to 0x0 may be used by clients and exchanges to be added to the \"circulating supply\" for a given token ID   To broadcast the existence of a token ID with no initial balance, the contract SHOULD emit the TransferSingle event from `0x0` to `0x0`, with the token creator as `_operator`, and a `_amount` of 0"
					}
				},
				"kind": "dev",
				"methods": {
					"balanceOf(address,uint256)": {
						"params": {
							"_id": "ID of the Token",
							"_owner": "The address of the token holder"
						},
						"returns": {
							"_0": "The _owner's balance of the Token type requested"
						}
					},
					"balanceOfBatch(address[],uint256[])": {
						"params": {
							"_ids": "ID of the Tokens",
							"_owners": "The addresses of the token holders"
						},
						"returns": {
							"_0": "The _owner's balance of the Token types requested (i.e. balance for each (owner, id) pair)"
						}
					},
					"batchBurn(uint256[],uint256[])": {
						"params": {
							"amounts": "Array of the amount to be burned",
							"tokenIds": "Array of token ids to burn"
						}
					},
					"batchMint(address,uint256[],uint256[],bytes)": {
						"params": {
							"amounts": "Amounts of tokens to mint.",
							"data": "Data to pass if receiver is contract.",
							"to": "Address to mint tokens to.",
							"tokenIds": "Token IDs to mint."
						}
					},
					"burn(uint256,uint256)": {
						"params": {
							"amount": "Amount of tokens to burn",
							"tokenId": "Id of token to burn"
						}
					},
					"contractURI()": {
						"returns": {
							"_0": "Contract URI of token's URI"
						}
					},
					"getRoleAdmin(bytes32)": {
						"details": "Returns the admin role that controls `role`. See {grantRole} and {revokeRole}. To change a role's admin, use {_setRoleAdmin}."
					},
					"getRoleMember(bytes32,uint256)": {
						"details": "Returns one of the accounts that have `role`. `index` must be a value between 0 and {getRoleMemberCount}, non-inclusive. Role bearers are not sorted in any particular way, and their ordering may change at any point. WARNING: When using {getRoleMember} and {getRoleMemberCount}, make sure you perform all queries on the same block. See the following https://forum.openzeppelin.com/t/iterating-over-elements-on-enumerableset-in-openzeppelin-contracts/2296[forum post] for more information."
					},
					"getRoleMemberCount(bytes32)": {
						"details": "Returns the number of accounts that have `role`. Can be used together with {getRoleMember} to enumerate all bearers of a role."
					},
					"getTransferLocked()": {
						"returns": {
							"_0": "Whether or not transfers are locked."
						}
					},
					"grantRole(bytes32,address)": {
						"details": "Grants `role` to `account`. If `account` had not been already granted `role`, emits a {RoleGranted} event. Requirements: - the caller must have ``role``'s admin role. May emit a {RoleGranted} event."
					},
					"hasRole(bytes32,address)": {
						"details": "Returns `true` if `account` has been granted `role`."
					},
					"initialize(address,string,string,string,address,uint96)": {
						"details": "This should be called immediately after deployment.",
						"params": {
							"owner": "Owner address",
							"royaltyFeeNumerator": "The royalty fee numerator in basis points (e.g. 15% would be 1500)",
							"royaltyReceiver": "Address of who should be sent the royalty payment",
							"tokenBaseURI": "Base URI for token metadata",
							"tokenContractURI": "Contract URI for token metadata",
							"tokenName": "Token name"
						}
					},
					"isApprovedForAll(address,address)": {
						"params": {
							"_operator": "Address of authorized operator",
							"_owner": "The owner of the Tokens"
						},
						"returns": {
							"isOperator": "True if the operator is approved, false if not"
						}
					},
					"mint(address,uint256,uint256,bytes)": {
						"params": {
							"amount": "Amount of tokens to mint.",
							"data": "Data to pass if receiver is contract.",
							"to": "Address to mint tokens to.",
							"tokenId": "Token ID to mint."
						}
					},
					"renounceRole(bytes32,address)": {
						"details": "Revokes `role` from the calling account. Roles are often managed via {grantRole} and {revokeRole}: this function's purpose is to provide a mechanism for accounts to lose their privileges if they are compromised (such as when a trusted device is misplaced). If the calling account had been revoked `role`, emits a {RoleRevoked} event. Requirements: - the caller must be `account`. May emit a {RoleRevoked} event."
					},
					"revokeRole(bytes32,address)": {
						"details": "Revokes `role` from `account`. If `account` had been granted `role`, emits a {RoleRevoked} event. Requirements: - the caller must have ``role``'s admin role. May emit a {RoleRevoked} event."
					},
					"royaltyInfo(uint256,uint256)": {
						"details": "Returns how much royalty is owed and to whom, based on a sale price that may be denominated in any unit of exchange. The royalty amount is denominated and should be paid in that same unit of exchange."
					},
					"safeBatchTransferFrom(address,address,uint256[],uint256[],bytes)": {
						"params": {
							"_amounts": "Transfer amounts per token type",
							"_data": "Additional data with no specified format, sent in call to `_to`",
							"_from": "Source addresses",
							"_ids": "IDs of each token type",
							"_to": "Target addresses"
						}
					},
					"safeTransferFrom(address,address,uint256,uint256,bytes)": {
						"params": {
							"_amount": "Transfered amount",
							"_data": "Additional data with no specified format, sent in call to `_to`",
							"_from": "Source address",
							"_id": "ID of the token type",
							"_to": "Target address"
						}
					},
					"setApprovalForAll(address,bool)": {
						"params": {
							"_approved": "True if the operator is approved, false to revoke approval",
							"_operator": "Address to add to the set of authorized operators"
						}
					},
					"setBaseMetadataURI(string)": {
						"params": {
							"tokenBaseURI": "New base URI of token's URI"
						}
					},
					"setContractName(string)": {
						"params": {
							"tokenName": "New contract name"
						}
					},
					"setContractURI(string)": {
						"params": {
							"tokenContractURI": "New contract URI of token's URI"
						}
					},
					"setDefaultRoyalty(address,uint96)": {
						"params": {
							"feeNumerator": "The royalty fee numerator in basis points (e.g. 15% would be 1500)",
							"receiver": "Address of who should be sent the royalty payment"
						}
					},
					"setTokenRoyalty(uint256,address,uint96)": {
						"params": {
							"feeNumerator": "The royalty fee numerator in basis points (e.g. 15% would be 1500)",
							"receiver": "Address of who should be sent the royalty payment",
							"tokenId": "The token id to set the royalty information for"
						}
					},
					"setTransferLocked(bool)": {
						"params": {
							"locked": "Whether or not transfers are locked."
						}
					},
					"supportsInterface(bytes4)": {
						"params": {
							"interfaceId": "Interface id"
						},
						"returns": {
							"_0": "True if supported"
						}
					},
					"uri(uint256)": {
						"details": "URIs are defined in RFC 3986.      URIs are assumed to be deterministically generated based on token ID",
						"returns": {
							"_0": "URI string"
						}
					}
				},
				"version": 1
			},
			"evm": {
				"bytecode": {
					"linkReferences": {},
					"object": "60a060405234620002ec5762000014620002f1565b6200001e620002f1565b815190916001600160401b0390818311620001ed576005938454916001948584811c9416918215620002e1575b60209283861014620002cb578190601f9586811162000277575b5083908683116001146200020f5760009262000203575b5050600019600383901b1c191690861b1786555b8151938411620001ed576004958654908682811c92168015620001e2575b83831014620001cd5784821162000184575b5050809284116001146200011957509282939183926000946200010d575b50501b916000199060031b1c19161790555b336080526040516142c290816200031682396080518161034f0152f35b015192503880620000de565b919083601f1981168760005284600020946000905b888383106200016957505050106200014f575b505050811b019055620000f0565b015160001960f88460031b161c1916905538808062000141565b8587015188559096019594850194879350908101906200012e565b87600052826000209085808801821c830193858910620001c3575b01901c019086905b828110620001b65750620000c0565b60008155018690620001a7565b935082936200019f565b602288634e487b7160e01b6000525260246000fd5b91607f1691620000ae565b634e487b7160e01b600052604160045260246000fd5b0151905038806200007c565b90889350601f198316918a600052856000209260005b8782821062000260575050841162000246575b505050811b01865562000090565b015160001960f88460031b161c1916905538808062000238565b8385015186558c9790950194938401930162000225565b9091508860005283600020868085018b1c820192868610620002c1575b918a9186959493018c1c01915b828110620002b157505062000065565b600081558594508a9101620002a1565b9250819262000294565b634e487b7160e01b600052602260045260246000fd5b93607f16936200004b565b600080fd5b60405190602082016001600160401b03811183821017620001ed576040526000825256fe608080604052600436101561001357600080fd5b60003560e01c908162fdd58e14612f775750806301ffc9a714612ea457806304634d8d14612e6257806306fdde0314612dbc5780630b5ee00614612c435780630e89341c14612afb57806318160ddd14612add57806320ec271b14612997578063248a9ca3146129685780632693ebf21461293c5780632a55205a146128885780632eb2c2d6146123a65780632f2ff15d146122d057806335e60bd41461200f57806336568abe14611f495780634e1273f414611d5a5780635944c75314611c3c57806368a37ae814611c015780636c0360eb14611b5b578063731133e914611a095780637e518ec81461188f578063842f9b68146118695780639010d07c1461181657806391d14854146117bb578063938e3d7b14611641578063a217fddf14611625578063a22cb46514611592578063b390c0ab146114f4578063b48ab8b6146111e2578063ca15c873146111b6578063d547741f14611175578063e8a3d4851461108f578063e985e9c51461102b578063f242432a14610c595763f89548181461019f57600080fd5b34610c545760c0600319360112610c54576101b8612fc7565b60243567ffffffffffffffff8111610c54576101d890369060040161311f565b9060443567ffffffffffffffff8111610c54576101f990369060040161311f565b9060643567ffffffffffffffff8111610c545761021a90369060040161311f565b73ffffffffffffffffffffffffffffffffffffffff6084351660843503610c54576bffffffffffffffffffffffff60a4351660a43503610c5457600b80547fffffffffffffffffffffffffffffffffffffffffffffffffffffffffffff00ff1661010017905573ffffffffffffffffffffffffffffffffffffffff821660009081527f240abdbcdb02f5e390e80fc01f6670d9ae0d46970a0d7b933281c81f8456df9e602052604090205460ff1615610bb7575b7f915327d54f2c758ad33c35b031b5e89868657ea971cda2b8103c502dc672509c600052600960205261033773ffffffffffffffffffffffffffffffffffffffff83167fbb47ba84ade104d32fdfa33bee5e0faef1ae541476ae15df126ba217f45027c1613c54565b5073ffffffffffffffffffffffffffffffffffffffff7f0000000000000000000000000000000000000000000000000000000000000000163314801590610bab575b610b8157835167ffffffffffffffff81116108f65761039960055461300d565b601f8111610ae2575b50602094601f8211600114610a5e57948192939495600092610a53575b50506000198260011b9260031b1c1916176005555b825167ffffffffffffffff81116108f6576103f060045461300d565b601f81116109b4575b506020601f82116001146109305781929394600092610925575b50506000198260011b9260031b1c1916176004555b80519067ffffffffffffffff82116108f657610445600a5461300d565b601f8111610891575b50602090601f83116001146107f257918061066e949273ffffffffffffffffffffffffffffffffffffffff946000926107e7575b50506000198260011b9260031b1c191617600a555b80821660009081527f5eff886ea0ce6ca488a3d6e336d6c0f75f46d19b42c06ce5ee98e42c96d256c7602052604090205460ff1615610780575b6000805260096020526105068183167fec8156718a8372b1db44bb411437d0870f3e3790d4a08526d024ce1b0b668f6b613c54565b5080821660009081527fa9ced9fdc45cded6d4b7a90e36d1ee82b957a500cc22704c465e9bdf275406fd60205260409020547f6db4061a20ca83a3be756ee172bd37a029093ac5afe4ce968c6d5435b43cb0119060ff161561072a575b600052600960205261057b8282166040600020613c54565b5080821660009081527f95f185554aba264de8ed412af70e5aba6acb0e648f258c912ad29ed85d11ca1860205260409020547fe02a0315b383857ac496e9d2b2546a699afaeb4e5e83a1fdef64376d0b74e5a59060ff16156106d4575b60005260096020526105f08282166040600020613c54565b506105ff60a435608435613ee5565b80821660009081527f51a495916474fe1a0c0fcfb65a8a97682b84a054118858cdd1f5dfd7fc0919eb60205260409020547f9f2df0fed2c77648de5860a4cc508cd0818c85b8b8a1ab4ceeef8d981c8956a69060ff161561067e575b6000526009602052166040600020613c54565b50600b805460ff19166001179055005b80600052600860205260406000208383166000526020526040600020600160ff1982541617905533838316827f2f8788117e7eff1d82e926ec794901d17c78024a50270940304540a733656f0d600080a461065b565b80600052600860205260406000208383166000526020526040600020600160ff1982541617905533838316827f2f8788117e7eff1d82e926ec794901d17c78024a50270940304540a733656f0d600080a46105d8565b80600052600860205260406000208383166000526020526040600020600160ff1982541617905533838316827f2f8788117e7eff1d82e926ec794901d17c78024a50270940304540a733656f0d600080a4610563565b80821660008181527f5eff886ea0ce6ca488a3d6e336d6c0f75f46d19b42c06ce5ee98e42c96d256c760205260408120805460ff191660011790553391907f2f8788117e7eff1d82e926ec794901d17c78024a50270940304540a733656f0d8180a46104d1565b015190503880610482565b90601f19831691600a6000527fc65a7bb8d6351c1cf70c95a316cc6a92839c986682d98bc35f958f4883f9d2a89260005b818110610879575092600192859273ffffffffffffffffffffffffffffffffffffffff9661066e989610610860575b505050811b01600a55610497565b015160001960f88460031b161c19169055388080610852565b92936020600181928786015181550195019301610823565b600a6000527fc65a7bb8d6351c1cf70c95a316cc6a92839c986682d98bc35f958f4883f9d2a8601f840160051c810191602085106108ec575b601f0160051c01905b8181106108e0575061044e565b600081556001016108d3565b90915081906108ca565b7f4e487b7100000000000000000000000000000000000000000000000000000000600052604160045260246000fd5b015190503880610413565b601f1982169060046000527f8a35acfbc15ff81a39ae7d344fd709f28e8600b4aa8c65c6b64bfe7fe36bd19b9160005b81811061099c57509583600195969710610983575b505050811b01600455610428565b015160001960f88460031b161c19169055388080610975565b9192602060018192868b015181550194019201610960565b6004600052601f820160051c7f8a35acfbc15ff81a39ae7d344fd709f28e8600b4aa8c65c6b64bfe7fe36bd19b0160208310610a2c575b601f820160051c7f8a35acfbc15ff81a39ae7d344fd709f28e8600b4aa8c65c6b64bfe7fe36bd19b018110610a2057506103f9565b600081556001016109eb565b507f8a35acfbc15ff81a39ae7d344fd709f28e8600b4aa8c65c6b64bfe7fe36bd19b6109eb565b0151905038806103bf565b601f1982169560056000527f036b6384b5eca791c62761152d0c79bb0604c104a5fb6f4eb0703f3154bb3db09160005b888110610aca57508360019596979810610ab1575b505050811b016005556103d4565b015160001960f88460031b161c19169055388080610aa3565b91926020600181928685015181550194019201610a8e565b6005600052601f820160051c7f036b6384b5eca791c62761152d0c79bb0604c104a5fb6f4eb0703f3154bb3db00160208310610b5a575b601f820160051c7f036b6384b5eca791c62761152d0c79bb0604c104a5fb6f4eb0703f3154bb3db0018110610b4e57506103a2565b60008155600101610b19565b507f036b6384b5eca791c62761152d0c79bb0604c104a5fb6f4eb0703f3154bb3db0610b19565b60046040517ff92ee8a9000000000000000000000000000000000000000000000000000000008152fd5b5060ff600b5416610379565b73ffffffffffffffffffffffffffffffffffffffff821660008181527f240abdbcdb02f5e390e80fc01f6670d9ae0d46970a0d7b933281c81f8456df9e60205260408120805460ff191660011790553391907f915327d54f2c758ad33c35b031b5e89868657ea971cda2b8103c502dc672509c907f2f8788117e7eff1d82e926ec794901d17c78024a50270940304540a733656f0d9080a46102ce565b600080fd5b34610c545760a0600319360112610c5457610c72612fc7565b610c7a612fea565b906044356064359260843567ffffffffffffffff8111610c5457610ca290369060040161311f565b73ffffffffffffffffffffffffffffffffffffffff809416938433148015611007575b15610f83578216918215610eff5760ff600b5460081c1680610ef6575b610ecc57846000526020956000875260406000208560005287526040600020610d0c828254613281565b9055836000526000875260406000208560005287526040600020610d31828254613ac7565b90558386604051878152838a8201527fc3d58168c5ae7397731d063d5bbf3d657854427343f4c083240f7aacaa2d0f6260403392a4610d705a926133ac565b610d7657005b60008794610dd396604051978896879586937ff23a6e61000000000000000000000000000000000000000000000000000000009c8d865233600487015260248601526044850152606484015260a0608484015260a48301906130de565b0393f18015610ec0577fffffffff0000000000000000000000000000000000000000000000000000000091600091610e93575b501603610e0f57005b608490604051907f08c379a00000000000000000000000000000000000000000000000000000000082526004820152603a60248201527f45524331313535235f63616c6c6f6e4552433131353552656365697665643a2060448201527f494e56414c49445f4f4e5f524543454956455f4d4553534147450000000000006064820152fd5b610eb39150843d8611610eb9575b610eab8183613098565b810190613226565b84610e06565b503d610ea1565b6040513d6000823e3d90fd5b60046040517fdb89e3f4000000000000000000000000000000000000000000000000000000008152fd5b50841515610ce2565b60846040517f08c379a000000000000000000000000000000000000000000000000000000000815260206004820152602b60248201527f4552433131353523736166655472616e7366657246726f6d3a20494e56414c4960448201527f445f524543495049454e540000000000000000000000000000000000000000006064820152fd5b60846040517f08c379a000000000000000000000000000000000000000000000000000000000815260206004820152602a60248201527f4552433131353523736166655472616e7366657246726f6d3a20494e56414c4960448201527f445f4f50455241544f52000000000000000000000000000000000000000000006064820152fd5b5084600052600160205260406000203360005260205260ff60406000205416610cc5565b34610c54576040600319360112610c5457611044612fc7565b61104c612fea565b9073ffffffffffffffffffffffffffffffffffffffff809116600052600160205260406000209116600052602052602060ff604060002054166040519015158152f35b34610c54576000600319360112610c54576040516000600a546110b18161300d565b8084529060019081811690811561114e57506001146110f3575b6110ef846110db81860382613098565b6040519182916020835260208301906130de565b0390f35b600a600090815292507fc65a7bb8d6351c1cf70c95a316cc6a92839c986682d98bc35f958f4883f9d2a85b8284106111365750505081016020016110db826110cb565b8054602085870181019190915290930192810161111e565b60ff191660208087019190915292151560051b850190920192506110db91508390506110cb565b34610c54576040600319360112610c54576111b4600435611194612fea565b908060005260086020526111af600160406000200154613912565b613a30565b005b34610c54576020600319360112610c545760043560005260096020526020604060002054604051908152f35b34610c5457600319608081360112610c54576111fc612fc7565b9067ffffffffffffffff602435818111610c545761121e90369060040161317e565b92604435828111610c545761123790369060040161317e565b91606435908111610c545761125090369060040161311f565b906112596137ba565b8451835181036114ca5760008073ffffffffffffffffffffffffffffffffffffffff8416925b80831061143757506112949150600254613ac7565b6002558060006040517f4a39dc06d4c0dbc64b70af90fd698a233a518aa5d07e595d983b8c0526c8f7fb3391806112cc8a8d83613e32565b0390a46112d95a926133ac565b6112df57005b600061134a916020956113596040519889978896879461133a7fbc197c81000000000000000000000000000000000000000000000000000000009e8f885233600489015289602489015260a0604489015260a48801906131f2565b90848783030160648801526131f2565b918483030160848501526130de565b0393f18015610ec0577fffffffff0000000000000000000000000000000000000000000000000000000091600091611419575b50160361139557005b60846040517f08c379a000000000000000000000000000000000000000000000000000000000815260206004820152603f60248201527f45524331313535235f63616c6c6f6e455243313135354261746368526563656960448201527f7665643a20494e56414c49445f4f4e5f524543454956455f4d455353414745006064820152fd5b611431915060203d8111610eb957610eab8183613098565b8361138c565b906114bd6114c3918a60038a6114958861148e81611455818661326d565b51948d600052602095600087526040600020611471848b61326d565b5160005287526114876040600020918254613ac7565b905561326d565b519461326d565b51600052526114aa6040600020918254613ac7565b90556114b6858a61326d565b5190613ac7565b9261325e565b919061127f565b60046040517f9d89020a000000000000000000000000000000000000000000000000000000008152fd5b34610c5457611502366131dc565b9060ff600b5460081c16610ecc578161151f600093600254613281565b600255818352600360205260408320611539828254613281565b905533835282602052604083208284526020526040832061155b828254613281565b9055604051918252602082015233907fc3d58168c5ae7397731d063d5bbf3d657854427343f4c083240f7aacaa2d0f6260403392a4005b34610c54576040600319360112610c54576115ab612fc7565b602435801515809103610c545733600052600160205273ffffffffffffffffffffffffffffffffffffffff604060002092169182600052602052604060002060ff1981541660ff83161790556040519081527f17307eab39ab6107e8899845ad3d59bd9653f200f220920489ca2b5937696c3160203392a3005b34610c54576000600319360112610c5457602060405160008152f35b34610c5457602080600319360112610c545767ffffffffffffffff600435818111610c545761167490369060040161311f565b9161167d613662565b82519182116108f657611691600a5461300d565b601f8111611757575b5080601f83116001146116d6575081926000926116cb575b50506000198260011b9260031b1c191617600a55600080f35b0151905082806116b2565b90601f19831693600a6000527fc65a7bb8d6351c1cf70c95a316cc6a92839c986682d98bc35f958f4883f9d2a8926000905b86821061173f5750508360019510611726575b505050811b01600a55005b015160001960f88460031b161c1916905582808061171b565b80600185968294968601518155019501930190611708565b600a6000527fc65a7bb8d6351c1cf70c95a316cc6a92839c986682d98bc35f958f4883f9d2a8601f840160051c8101918385106117b1575b601f0160051c01905b8181106117a5575061169a565b60008155600101611798565b909150819061178f565b34610c54576040600319360112610c54576117d4612fea565b600435600052600860205273ffffffffffffffffffffffffffffffffffffffff60406000209116600052602052602060ff604060002054166040519015158152f35b34610c54576040600319360112610c54576004356000526009602052602073ffffffffffffffffffffffffffffffffffffffff6118596024356040600020613c3c565b9190546040519260031b1c168152f35b34610c54576000600319360112610c5457602060ff600b5460081c166040519015158152f35b34610c5457602080600319360112610c545767ffffffffffffffff600435818111610c54576118c290369060040161311f565b916118cb613662565b82519182116108f6576118df60045461300d565b601f81116119a5575b5080601f831160011461192457508192600092611919575b50506000198260011b9260031b1c191617600455600080f35b015190508280611900565b90601f1983169360046000527f8a35acfbc15ff81a39ae7d344fd709f28e8600b4aa8c65c6b64bfe7fe36bd19b926000905b86821061198d5750508360019510611974575b505050811b01600455005b015160001960f88460031b161c19169055828080611969565b80600185968294968601518155019501930190611956565b60046000527f8a35acfbc15ff81a39ae7d344fd709f28e8600b4aa8c65c6b64bfe7fe36bd19b601f840160051c8101918385106119ff575b601f0160051c01905b8181106119f357506118e8565b600081556001016119e6565b90915081906119dd565b34610c54576080600319360112610c5457611a22612fc7565b60243560443560643567ffffffffffffffff8111610c5457611a4890369060040161311f565b92611a516137ba565b611a5d82600254613ac7565b60025582600052602093600385526040600020611a7b848254613ac7565b905573ffffffffffffffffffffffffffffffffffffffff821691826000526000865260406000208560005286526040600020611ab8858254613ac7565b905582600060405187815286898201527fc3d58168c5ae7397731d063d5bbf3d657854427343f4c083240f7aacaa2d0f6260403392a4611af85a916133ac565b611afe57005b610dd393600087946040518097819682957ff23a6e61000000000000000000000000000000000000000000000000000000009b8c85523360048601528660248601526044850152606484015260a0608484015260a48301906130de565b34610c54576000600319360112610c54576040516000600454611b7d8161300d565b8084529060019081811690811561114e5750600114611ba6576110ef846110db81860382613098565b6004600090815292507f8a35acfbc15ff81a39ae7d344fd709f28e8600b4aa8c65c6b64bfe7fe36bd19b5b828410611be95750505081016020016110db826110cb565b80546020858701810191909152909301928101611bd1565b34610c54576000600319360112610c545760206040517f915327d54f2c758ad33c35b031b5e89868657ea971cda2b8103c502dc672509c8152f35b34610c54576060600319360112610c5457611c55612fea565b6044356bffffffffffffffffffffffff8116809103610c5457611c766133e2565b611c84612710821115613e5a565b73ffffffffffffffffffffffffffffffffffffffff809216918215611cfc577fffffffffffffffffffffffff00000000000000000000000000000000000000009060405193611cd285613060565b84526020840192835260043560005260076020526040600020935116915160a01b16179055600080f35b60646040517f08c379a000000000000000000000000000000000000000000000000000000000815260206004820152601b60248201527f455243323938313a20496e76616c696420706172616d657465727300000000006044820152fd5b34610c54576040600319360112610c545760043567ffffffffffffffff808211610c545736602383011215610c5457816004013590611d9882613166565b92611da66040519485613098565b82845260209260248486019160051b83010191368311610c5457602401905b828210611f1d57505050602435908111610c5457611de790369060040161317e565b8251815103611e9957825190601f19611e18611e0284613166565b93611e106040519586613098565b808552613166565b01368484013760005b8451811015611e86578073ffffffffffffffffffffffffffffffffffffffff611e4d611e81938861326d565b5116600052600085526040600020611e65828561326d565b516000528552604060002054611e7b828661326d565b5261325e565b611e21565b604051848152806110ef818701866131f2565b608482604051907f08c379a00000000000000000000000000000000000000000000000000000000082526004820152602c60248201527f455243313135352362616c616e63654f6642617463683a20494e56414c49445f60448201527f41525241595f4c454e47544800000000000000000000000000000000000000006064820152fd5b813573ffffffffffffffffffffffffffffffffffffffff81168103610c54578152908401908401611dc5565b34610c54576040600319360112610c5457611f62612fea565b3373ffffffffffffffffffffffffffffffffffffffff821603611f8b576111b490600435613a30565b60846040517f08c379a000000000000000000000000000000000000000000000000000000000815260206004820152602f60248201527f416363657373436f6e74726f6c3a2063616e206f6e6c792072656e6f756e636560448201527f20726f6c657320666f722073656c6600000000000000000000000000000000006064820152fd5b34610c5457602080600319360112610c545760043590811515809203610c54577f915327d54f2c758ad33c35b031b5e89868657ea971cda2b8103c502dc672509c908160005260088152604060002033600052815260ff60406000205416156120a657600b80547fffffffffffffffffffffffffffffffffffffffffffffffffffffffffffff00ff16600885901b61ff0016179055005b6120af33613ad4565b916040516120bc8161307c565b604281528281019160603684378151156122a1576030835381516001908110156122a157607860218401536041905b8082116122215750506121c45761217693612185926048926040519687937f416363657373436f6e74726f6c3a206163636f756e742000000000000000000088860152612141815180928a6037890191016130bb565b8401917f206973206d697373696e6720726f6c65200000000000000000000000000000006037840152518093868401906130bb565b01036028810185520183613098565b6121c06040519283927f08c379a0000000000000000000000000000000000000000000000000000000008452600484015260248301906130de565b0390fd5b606483604051907f08c379a000000000000000000000000000000000000000000000000000000000825280600483015260248201527f537472696e67733a20686578206c656e67746820696e73756666696369656e746044820152fd5b9091600f811660108110156122a1577f3031323334353637383961626364656600000000000000000000000000000000901a61225d848661328e565b5360041c9180156122725760001901906120eb565b7f4e487b7100000000000000000000000000000000000000000000000000000000600052601160045260246000fd5b7f4e487b7100000000000000000000000000000000000000000000000000000000600052603260045260246000fd5b34610c54576040600319360112610c54576111b460043560096122f1612fea565b91806000526020906008825261230e600160406000200154613912565b806000526008825273ffffffffffffffffffffffffffffffffffffffff604060002094169384600052825260ff6040600020541615612356575b600052526040600020613c54565b806000526008825260406000208460005282526040600020600160ff198254161790553384827f2f8788117e7eff1d82e926ec794901d17c78024a50270940304540a733656f0d600080a4612348565b34610c545760a0600319360112610c54576123bf612fc7565b6123c7612fea565b9060449067ffffffffffffffff908235828111610c54576123ec90369060040161317e565b6064948535848111610c545761240690369060040161317e565b93608435908111610c545761241f90369060040161311f565b73ffffffffffffffffffffffffffffffffffffffff9081851633148015612862575b156127df578183161561275c5760ff600b5460081c1680612751575b610ecc5783518651036126ce57835160005b81811061264457505060405182841690838716907f4a39dc06d4c0dbc64b70af90fd698a233a518aa5d07e595d983b8c0526c8f7fb3391806124b28c8b83613e32565b0390a45a946124c0846133ac565b6124c657005b8291604051978896879586947fbc197c810000000000000000000000000000000000000000000000000000000086523360048701521660248501528a840160a0905260a48401612515916131f2565b838103600319018c850152612529916131f2565b82810360031901608484015261253e916130de565b039216600090602095f1908115610ec0577fbc197c8100000000000000000000000000000000000000000000000000000000917fffffffff0000000000000000000000000000000000000000000000000000000091600091612626575b5016036125a457005b7f7665643a20494e56414c49445f4f4e5f524543454956455f4d455353414745006084927f45524331313535235f63616c6c6f6e4552433131353542617463685265636569604051937f08c379a000000000000000000000000000000000000000000000000000000000855260206004860152603f6024860152840152820152fd5b61263e915060203d8111610eb957610eab8183613098565b8561259b565b806126526126c9928a61326d565b5185891660005260209060008252604060002061266f848b61326d565b5160005282526126856040600020918254613281565b9055612691828b61326d565b5190868816600052600081526040600020906126ad848b61326d565b51600052526126c26040600020918254613ac7565b905561325e565b61246f565b6084877f494e56414c49445f4152524159535f4c454e47544800000000000000000000008a7f45524331313535235f7361666542617463685472616e7366657246726f6d3a20604051937f08c379a00000000000000000000000000000000000000000000000000000000085526020600486015260356024860152840152820152fd5b50818516151561245d565b6084877f4e56414c49445f524543495049454e54000000000000000000000000000000008a7f45524331313535237361666542617463685472616e7366657246726f6d3a2049604051937f08c379a00000000000000000000000000000000000000000000000000000000085526020600486015260306024860152840152820152fd5b6084877f4e56414c49445f4f50455241544f5200000000000000000000000000000000008a7f45524331313535237361666542617463685472616e7366657246726f6d3a2049604051937f08c379a000000000000000000000000000000000000000000000000000000000855260206004860152602f6024860152840152820152fd5b50818516600052600160205260406000203360005260205260ff60406000205416612441565b34610c5457612896366131dc565b906000526007602052604060002090604051916128b283613060565b5473ffffffffffffffffffffffffffffffffffffffff928382169182825260a01c6020820152901561291a575b6bffffffffffffffffffffffff6020820151169182810292818404149015171561227257604092612710915116918351928352046020820152f35b5060405161292781613060565b600654838116825260a01c60208201526128df565b34610c54576020600319360112610c545760043560005260036020526020604060002054604051908152f35b34610c54576020600319360112610c545760043560005260086020526020600160406000200154604051908152f35b34610c54576040600319360112610c545767ffffffffffffffff600435818111610c54576129c990369060040161317e565b90602435908111610c54576129e290369060040161317e565b60ff600b5460081c16610ecc57815191815183036114ca576000926000905b808210612a52575050612a18600093600254613281565b6002557f4a39dc06d4c0dbc64b70af90fd698a233a518aa5d07e595d983b8c0526c8f7fb60405180612a4d3395339583613e32565b0390a4005b9093612ad1612ad791612a65878761326d565b5133600052602090600082526040600020612a808a8961326d565b516000528252612a966040600020918254613281565b90556003612aa4898961326d565b5191612ab08a8961326d565b5160005252612ac56040600020918254613281565b90556114b6878761326d565b9461325e565b90612a01565b34610c54576000600319360112610c54576020600254604051908152f35b34610c5457602080600319360112610c5457612b1860043561329f565b906040519182826000600454612b2d8161300d565b90600190818116908115612c265750600114612bc3575b50509081612b5e8560059594612baf9751948592016130bb565b017f2e6a736f6e0000000000000000000000000000000000000000000000000000008152037fffffffffffffffffffffffffffffffffffffffffffffffffffffffffffffffe5810185520183613098565b6110ef6040519282849384528301906130de565b60046000908152949593949192507f8a35acfbc15ff81a39ae7d344fd709f28e8600b4aa8c65c6b64bfe7fe36bd19b5b838310612c0e57509294939250508201810183612b5e612b44565b8054838a018701528896508795909201918101612bf3565b60ff19168686015250508015150283018201905083612b5e612b44565b34610c5457602080600319360112610c545767ffffffffffffffff90600435828111610c5457612c7790369060040161311f565b91612c80613662565b82519081116108f657600591612c96835461300d565b601f8111612d5b575b5080601f8311600114612cdb5750819293600092612cd0575b50506000198260011b9260031b1c1916179055600080f35b015190508380612cb8565b90601f19831694846000527f036b6384b5eca791c62761152d0c79bb0604c104a5fb6f4eb0703f3154bb3db0926000905b878210612d43575050836001959610612d2a575b505050811b019055005b015160001960f88460031b161c19169055838080612d20565b80600185968294968601518155019501930190612d0c565b836000527f036b6384b5eca791c62761152d0c79bb0604c104a5fb6f4eb0703f3154bb3db0601f8401851c810191838510612db2575b601f01851c01905b818110612da65750612c9f565b60008155600101612d99565b9091508190612d91565b34610c54576000600319360112610c54576040516000600554612dde8161300d565b8084529060019081811690811561114e5750600114612e07576110ef846110db81860382613098565b6005600090815292507f036b6384b5eca791c62761152d0c79bb0604c104a5fb6f4eb0703f3154bb3db05b828410612e4a5750505081016020016110db826110cb565b80546020858701810191909152909301928101612e32565b34610c54576040600319360112610c5457612e7b612fc7565b6024356bffffffffffffffffffffffff81168103610c54576111b491612e9f6133e2565b613ee5565b34610c54576020600319360112610c54576004357fffffffff000000000000000000000000000000000000000000000000000000008116808203610c5457602091817fb1c990bc0000000000000000000000000000000000000000000000000000000014918215612f1c575b50506040519015158152f35b7fc79b8b5f000000000000000000000000000000000000000000000000000000001491508115612f66575b8115612f56575b508280612f10565b612f609150613fbd565b82612f4e565b9050612f7181613fbd565b90612f47565b34610c54576040600319360112610c545760209073ffffffffffffffffffffffffffffffffffffffff612fa8612fc7565b1660005260008252604060002060243560005282526040600020548152f35b6004359073ffffffffffffffffffffffffffffffffffffffff82168203610c5457565b6024359073ffffffffffffffffffffffffffffffffffffffff82168203610c5457565b90600182811c92168015613056575b602083101461302757565b7f4e487b7100000000000000000000000000000000000000000000000000000000600052602260045260246000fd5b91607f169161301c565b6040810190811067ffffffffffffffff8211176108f657604052565b6080810190811067ffffffffffffffff8211176108f657604052565b90601f601f19910116810190811067ffffffffffffffff8211176108f657604052565b60005b8381106130ce5750506000910152565b81810151838201526020016130be565b90601f19601f6020936130fc815180928187528780880191016130bb565b0116010190565b67ffffffffffffffff81116108f657601f01601f191660200190565b81601f82011215610c545780359061313682613103565b926131446040519485613098565b82845260208383010111610c5457816000926020809301838601378301015290565b67ffffffffffffffff81116108f65760051b60200190565b81601f82011215610c545780359161319583613166565b926131a36040519485613098565b808452602092838086019260051b820101928311610c54578301905b8282106131cd575050505090565b813581529083019083016131bf565b6003196040910112610c54576004359060243590565b90815180825260208080930193019160005b828110613212575050505090565b835185529381019392810192600101613204565b90816020910312610c5457517fffffffff0000000000000000000000000000000000000000000000000000000081168103610c545790565b60001981146122725760010190565b80518210156122a15760209160051b010190565b9190820391821161227257565b9081518110156122a1570160200190565b80156133725780816000925b61335e5750806132ba83613103565b926132c86040519485613098565b808452601f196132d782613103565b01366020860137915b6132e957505090565b60001982019182116122725781600a808304928184029184830414841517156122725761331960ff928392613281565b16603001908111612272577fff000000000000000000000000000000000000000000000000000000000000006133579160f81b1660001a918561328e565b53806132e0565b9161336a600a9161325e565b9204806132ab565b5060405161337f81613060565b600181527f3000000000000000000000000000000000000000000000000000000000000000602082015290565b3f80151590816133ba575090565b7fc5d2460186f7233c927e7db2dcc703c0e500b653ca82273b7bfad8045d85a4709150141590565b3360009081527fa9ced9fdc45cded6d4b7a90e36d1ee82b957a500cc22704c465e9bdf275406fd602090815260408083205490927f6db4061a20ca83a3be756ee172bd37a029093ac5afe4ce968c6d5435b43cb0119160ff16156134465750505050565b61344f33613ad4565b9184519061345c8261307c565b6042825284820192606036853782511561363557603084538251906001918210156136355790607860218501536041915b8183116135885750505061352c5760486121c09386936134f6936134e798519889937f416363657373436f6e74726f6c3a206163636f756e74200000000000000000008a860152612141815180928c6037890191016130bb565b01036028810187520185613098565b519283927f08c379a0000000000000000000000000000000000000000000000000000000008452600484015260248301906130de565b6064848651907f08c379a000000000000000000000000000000000000000000000000000000000825280600483015260248201527f537472696e67733a20686578206c656e67746820696e73756666696369656e746044820152fd5b909192600f81166010811015613608577f3031323334353637383961626364656600000000000000000000000000000000901a6135c5858761328e565b5360041c9280156135db5760001901919061348d565b6024827f4e487b710000000000000000000000000000000000000000000000000000000081526011600452fd5b6024837f4e487b710000000000000000000000000000000000000000000000000000000081526032600452fd5b807f4e487b7100000000000000000000000000000000000000000000000000000000602492526032600452fd5b3360009081527f95f185554aba264de8ed412af70e5aba6acb0e648f258c912ad29ed85d11ca18602090815260408083205490927fe02a0315b383857ac496e9d2b2546a699afaeb4e5e83a1fdef64376d0b74e5a59160ff16156136c65750505050565b6136cf33613ad4565b918451906136dc8261307c565b6042825284820192606036853782511561363557603084538251906001918210156136355790607860218501536041915b8183116137675750505061352c5760486121c09386936134f6936134e798519889937f416363657373436f6e74726f6c3a206163636f756e74200000000000000000008a860152612141815180928c6037890191016130bb565b909192600f81166010811015613608577f3031323334353637383961626364656600000000000000000000000000000000901a6137a4858761328e565b5360041c9280156135db5760001901919061370d565b3360009081527f51a495916474fe1a0c0fcfb65a8a97682b84a054118858cdd1f5dfd7fc0919eb602090815260408083205490927f9f2df0fed2c77648de5860a4cc508cd0818c85b8b8a1ab4ceeef8d981c8956a69160ff161561381e5750505050565b61382733613ad4565b918451906138348261307c565b6042825284820192606036853782511561363557603084538251906001918210156136355790607860218501536041915b8183116138bf5750505061352c5760486121c09386936134f6936134e798519889937f416363657373436f6e74726f6c3a206163636f756e74200000000000000000008a860152612141815180928c6037890191016130bb565b909192600f81166010811015613608577f3031323334353637383961626364656600000000000000000000000000000000901a6138fc858761328e565b5360041c9280156135db57600019019190613865565b60009080825260209060088252604092838120338252835260ff84822054161561393c5750505050565b61394533613ad4565b918451906139528261307c565b6042825284820192606036853782511561363557603084538251906001918210156136355790607860218501536041915b8183116139dd5750505061352c5760486121c09386936134f6936134e798519889937f416363657373436f6e74726f6c3a206163636f756e74200000000000000000008a860152612141815180928c6037890191016130bb565b909192600f81166010811015613608577f3031323334353637383961626364656600000000000000000000000000000000901a613a1a858761328e565b5360041c9280156135db57600019019190613983565b906040613a7c92600090808252600860205273ffffffffffffffffffffffffffffffffffffffff83832094169384835260205260ff8383205416613a7f575b8152600960205220613cf7565b50565b808252600860205282822084835260205282822060ff1981541690553384827ff6391f5c32d9c69d2a47ea670b442974b53935d1edc7fd64eb21e047a839171b8580a4613a6f565b9190820180921161227257565b604051906060820182811067ffffffffffffffff8211176108f657604052602a82526020820160403682378251156122a1576030905381516001908110156122a157607860218401536029905b808211613b8f575050613b315790565b60646040517f08c379a000000000000000000000000000000000000000000000000000000000815260206004820152602060248201527f537472696e67733a20686578206c656e67746820696e73756666696369656e746044820152fd5b9091600f81166010811015613c0e577f3031323334353637383961626364656600000000000000000000000000000000901a613bcb848661328e565b5360041c918015613be0576000190190613b21565b602460007f4e487b710000000000000000000000000000000000000000000000000000000081526011600452fd5b602460007f4e487b710000000000000000000000000000000000000000000000000000000081526032600452fd5b80548210156122a15760005260206000200190600090565b91906001830160009082825280602052604082205415600014613cf15784549468010000000000000000861015613cc45783613cb4613c9d886001604098999a01855584613c3c565b81939154906000199060031b92831b921b19161790565b9055549382526020522055600190565b6024837f4e487b710000000000000000000000000000000000000000000000000000000081526041600452fd5b50925050565b90600182019060009281845282602052604084205490811515600014613e2b5760001991828101818111613dfe57825490848201918211613dd157808203613d9c575b50505080548015613d6f57820191613d528383613c3c565b909182549160031b1b191690555582526020526040812055600190565b6024867f4e487b710000000000000000000000000000000000000000000000000000000081526031600452fd5b613dbc613dac613c9d9386613c3c565b90549060031b1c92839286613c3c565b90558652846020526040862055388080613d3a565b6024887f4e487b710000000000000000000000000000000000000000000000000000000081526011600452fd5b6024877f4e487b710000000000000000000000000000000000000000000000000000000081526011600452fd5b5050505090565b9091613e49613e57936040845260408401906131f2565b9160208184039101526131f2565b90565b15613e6157565b60846040517f08c379a000000000000000000000000000000000000000000000000000000000815260206004820152602a60248201527f455243323938313a20726f79616c7479206665652077696c6c2065786365656460448201527f2073616c655072696365000000000000000000000000000000000000000000006064820152fd5b73ffffffffffffffffffffffffffffffffffffffff6bffffffffffffffffffffffff831691613f18612710841115613e5a565b16918215613f5f577fffffffffffffffffffffffff0000000000000000000000000000000000000000916020604051613f5081613060565b858152015260a01b1617600655565b60646040517f08c379a000000000000000000000000000000000000000000000000000000000815260206004820152601960248201527f455243323938313a20696e76616c6964207265636569766572000000000000006044820152fd5b613fc681614063565b908115613ffa575b8115613fe9575b8115613fdf575090565b613e579150614126565b9050613ff481614126565b90613fd5565b90506140058161400b565b90613fce565b7f0e89341c000000000000000000000000000000000000000000000000000000007fffffffff0000000000000000000000000000000000000000000000000000000082161461405d57613e5790614063565b50600190565b7fffffffff0000000000000000000000000000000000000000000000000000000081167f3e85e62f00000000000000000000000000000000000000000000000000000000149081156140b3575090565b613e5791507fffffffff00000000000000000000000000000000000000000000000000000000167fd9b67a2600000000000000000000000000000000000000000000000000000000811461405d577f01ffc9a7000000000000000000000000000000000000000000000000000000001490565b61412f81614215565b90811561417d575b8115614152575b8115614148575090565b613e57915061418e565b7fffffffff00000000000000000000000000000000000000000000000000000000811615915061413e565b90506141888161418e565b90614137565b7fffffffff000000000000000000000000000000000000000000000000000000008116907f5a05180f0000000000000000000000000000000000000000000000000000000082149182156141e157505090565b7f7965db0b00000000000000000000000000000000000000000000000000000000149150811561420f575090565b613e5791505b7fffffffff00000000000000000000000000000000000000000000000000000000167f2a55205a000000000000000000000000000000000000000000000000000000008114908115614265575090565b7f01ffc9a7000000000000000000000000000000000000000000000000000000009150149056fea2646970667358221220b36777fe9fe780fadc66eecc030c6f58436d0e96ee9680effff07e866026402664736f6c63430008130033",
					"opcodes": "PUSH1 0xA0 PUSH1 0x40 MSTORE CALLVALUE PUSH3 0x2EC JUMPI PUSH3 0x14 PUSH3 0x2F1 JUMP JUMPDEST PUSH3 0x1E PUSH3 0x2F1 JUMP JUMPDEST DUP2 MLOAD SWAP1 SWAP2 PUSH1 0x1 PUSH1 0x1 PUSH1 0x40 SHL SUB SWAP1 DUP2 DUP4 GT PUSH3 0x1ED JUMPI PUSH1 0x5 SWAP4 DUP5 SLOAD SWAP2 PUSH1 0x1 SWAP5 DUP6 DUP5 DUP2 SHR SWAP5 AND SWAP2 DUP3 ISZERO PUSH3 0x2E1 JUMPI JUMPDEST PUSH1 0x20 SWAP3 DUP4 DUP7 LT EQ PUSH3 0x2CB JUMPI DUP2 SWAP1 PUSH1 0x1F SWAP6 DUP7 DUP2 GT PUSH3 0x277 JUMPI JUMPDEST POP DUP4 SWAP1 DUP7 DUP4 GT PUSH1 0x1 EQ PUSH3 0x20F JUMPI PUSH1 0x0 SWAP3 PUSH3 0x203 JUMPI JUMPDEST POP POP PUSH1 0x0 NOT PUSH1 0x3 DUP4 SWAP1 SHL SHR NOT AND SWAP1 DUP7 SHL OR DUP7 SSTORE JUMPDEST DUP2 MLOAD SWAP4 DUP5 GT PUSH3 0x1ED JUMPI PUSH1 0x4 SWAP6 DUP7 SLOAD SWAP1 DUP7 DUP3 DUP2 SHR SWAP3 AND DUP1 ISZERO PUSH3 0x1E2 JUMPI JUMPDEST DUP4 DUP4 LT EQ PUSH3 0x1CD JUMPI DUP5 DUP3 GT PUSH3 0x184 JUMPI JUMPDEST POP POP DUP1 SWAP3 DUP5 GT PUSH1 0x1 EQ PUSH3 0x119 JUMPI POP SWAP3 DUP3 SWAP4 SWAP2 DUP4 SWAP3 PUSH1 0x0 SWAP5 PUSH3 0x10D JUMPI JUMPDEST POP POP SHL SWAP2 PUSH1 0x0 NOT SWAP1 PUSH1 0x3 SHL SHR NOT AND OR SWAP1 SSTORE JUMPDEST CALLER PUSH1 0x80 MSTORE PUSH1 0x40 MLOAD PUSH2 0x42C2 SWAP1 DUP2 PUSH3 0x316 DUP3 CODECOPY PUSH1 0x80 MLOAD DUP2 PUSH2 0x34F ADD MSTORE RETURN JUMPDEST ADD MLOAD SWAP3 POP CODESIZE DUP1 PUSH3 0xDE JUMP JUMPDEST SWAP2 SWAP1 DUP4 PUSH1 0x1F NOT DUP2 AND DUP8 PUSH1 0x0 MSTORE DUP5 PUSH1 0x0 KECCAK256 SWAP5 PUSH1 0x0 SWAP1 JUMPDEST DUP9 DUP4 DUP4 LT PUSH3 0x169 JUMPI POP POP POP LT PUSH3 0x14F JUMPI JUMPDEST POP POP POP DUP2 SHL ADD SWAP1 SSTORE PUSH3 0xF0 JUMP JUMPDEST ADD MLOAD PUSH1 0x0 NOT PUSH1 0xF8 DUP5 PUSH1 0x3 SHL AND SHR NOT AND SWAP1 SSTORE CODESIZE DUP1 DUP1 PUSH3 0x141 JUMP JUMPDEST DUP6 DUP8 ADD MLOAD DUP9 SSTORE SWAP1 SWAP7 ADD SWAP6 SWAP5 DUP6 ADD SWAP5 DUP8 SWAP4 POP SWAP1 DUP2 ADD SWAP1 PUSH3 0x12E JUMP JUMPDEST DUP8 PUSH1 0x0 MSTORE DUP3 PUSH1 0x0 KECCAK256 SWAP1 DUP6 DUP1 DUP9 ADD DUP3 SHR DUP4 ADD SWAP4 DUP6 DUP10 LT PUSH3 0x1C3 JUMPI JUMPDEST ADD SWAP1 SHR ADD SWAP1 DUP7 SWAP1 JUMPDEST DUP3 DUP2 LT PUSH3 0x1B6 JUMPI POP PUSH3 0xC0 JUMP JUMPDEST PUSH1 0x0 DUP2 SSTORE ADD DUP7 SWAP1 PUSH3 0x1A7 JUMP JUMPDEST SWAP4 POP DUP3 SWAP4 PUSH3 0x19F JUMP JUMPDEST PUSH1 0x22 DUP9 PUSH4 0x4E487B71 PUSH1 0xE0 SHL PUSH1 0x0 MSTORE MSTORE PUSH1 0x24 PUSH1 0x0 REVERT JUMPDEST SWAP2 PUSH1 0x7F AND SWAP2 PUSH3 0xAE JUMP JUMPDEST PUSH4 0x4E487B71 PUSH1 0xE0 SHL PUSH1 0x0 MSTORE PUSH1 0x41 PUSH1 0x4 MSTORE PUSH1 0x24 PUSH1 0x0 REVERT JUMPDEST ADD MLOAD SWAP1 POP CODESIZE DUP1 PUSH3 0x7C JUMP JUMPDEST SWAP1 DUP9 SWAP4 POP PUSH1 0x1F NOT DUP4 AND SWAP2 DUP11 PUSH1 0x0 MSTORE DUP6 PUSH1 0x0 KECCAK256 SWAP3 PUSH1 0x0 JUMPDEST DUP8 DUP3 DUP3 LT PUSH3 0x260 JUMPI POP POP DUP5 GT PUSH3 0x246 JUMPI JUMPDEST POP POP POP DUP2 SHL ADD DUP7 SSTORE PUSH3 0x90 JUMP JUMPDEST ADD MLOAD PUSH1 0x0 NOT PUSH1 0xF8 DUP5 PUSH1 0x3 SHL AND SHR NOT AND SWAP1 SSTORE CODESIZE DUP1 DUP1 PUSH3 0x238 JUMP JUMPDEST DUP4 DUP6 ADD MLOAD DUP7 SSTORE DUP13 SWAP8 SWAP1 SWAP6 ADD SWAP5 SWAP4 DUP5 ADD SWAP4 ADD PUSH3 0x225 JUMP JUMPDEST SWAP1 SWAP2 POP DUP9 PUSH1 0x0 MSTORE DUP4 PUSH1 0x0 KECCAK256 DUP7 DUP1 DUP6 ADD DUP12 SHR DUP3 ADD SWAP3 DUP7 DUP7 LT PUSH3 0x2C1 JUMPI JUMPDEST SWAP2 DUP11 SWAP2 DUP7 SWAP6 SWAP5 SWAP4 ADD DUP13 SHR ADD SWAP2 JUMPDEST DUP3 DUP2 LT PUSH3 0x2B1 JUMPI POP POP PUSH3 0x65 JUMP JUMPDEST PUSH1 0x0 DUP2 SSTORE DUP6 SWAP5 POP DUP11 SWAP2 ADD PUSH3 0x2A1 JUMP JUMPDEST SWAP3 POP DUP2 SWAP3 PUSH3 0x294 JUMP JUMPDEST PUSH4 0x4E487B71 PUSH1 0xE0 SHL PUSH1 0x0 MSTORE PUSH1 0x22 PUSH1 0x4 MSTORE PUSH1 0x24 PUSH1 0x0 REVERT JUMPDEST SWAP4 PUSH1 0x7F AND SWAP4 PUSH3 0x4B JUMP JUMPDEST PUSH1 0x0 DUP1 REVERT JUMPDEST PUSH1 0x40 MLOAD SWAP1 PUSH1 0x20 DUP3 ADD PUSH1 0x1 PUSH1 0x1 PUSH1 0x40 SHL SUB DUP2 GT DUP4 DUP3 LT OR PUSH3 0x1ED JUMPI PUSH1 0x40 MSTORE PUSH1 0x0 DUP3 MSTORE JUMP INVALID PUSH1 0x80 DUP1 PUSH1 0x40 MSTORE PUSH1 0x4 CALLDATASIZE LT ISZERO PUSH2 0x13 JUMPI PUSH1 0x0 DUP1 REVERT JUMPDEST PUSH1 0x0 CALLDATALOAD PUSH1 0xE0 SHR SWAP1 DUP2 PUSH3 0xFDD58E EQ PUSH2 0x2F77 JUMPI POP DUP1 PUSH4 0x1FFC9A7 EQ PUSH2 0x2EA4 JUMPI DUP1 PUSH4 0x4634D8D EQ PUSH2 0x2E62 JUMPI DUP1 PUSH4 0x6FDDE03 EQ PUSH2 0x2DBC JUMPI DUP1 PUSH4 0xB5EE006 EQ PUSH2 0x2C43 JUMPI DUP1 PUSH4 0xE89341C EQ PUSH2 0x2AFB JUMPI DUP1 PUSH4 0x18160DDD EQ PUSH2 0x2ADD JUMPI DUP1 PUSH4 0x20EC271B EQ PUSH2 0x2997 JUMPI DUP1 PUSH4 0x248A9CA3 EQ PUSH2 0x2968 JUMPI DUP1 PUSH4 0x2693EBF2 EQ PUSH2 0x293C JUMPI DUP1 PUSH4 0x2A55205A EQ PUSH2 0x2888 JUMPI DUP1 PUSH4 0x2EB2C2D6 EQ PUSH2 0x23A6 JUMPI DUP1 PUSH4 0x2F2FF15D EQ PUSH2 0x22D0 JUMPI DUP1 PUSH4 0x35E60BD4 EQ PUSH2 0x200F JUMPI DUP1 PUSH4 0x36568ABE EQ PUSH2 0x1F49 JUMPI DUP1 PUSH4 0x4E1273F4 EQ PUSH2 0x1D5A JUMPI DUP1 PUSH4 0x5944C753 EQ PUSH2 0x1C3C JUMPI DUP1 PUSH4 0x68A37AE8 EQ PUSH2 0x1C01 JUMPI DUP1 PUSH4 0x6C0360EB EQ PUSH2 0x1B5B JUMPI DUP1 PUSH4 0x731133E9 EQ PUSH2 0x1A09 JUMPI DUP1 PUSH4 0x7E518EC8 EQ PUSH2 0x188F JUMPI DUP1 PUSH4 0x842F9B68 EQ PUSH2 0x1869 JUMPI DUP1 PUSH4 0x9010D07C EQ PUSH2 0x1816 JUMPI DUP1 PUSH4 0x91D14854 EQ PUSH2 0x17BB JUMPI DUP1 PUSH4 0x938E3D7B EQ PUSH2 0x1641 JUMPI DUP1 PUSH4 0xA217FDDF EQ PUSH2 0x1625 JUMPI DUP1 PUSH4 0xA22CB465 EQ PUSH2 0x1592 JUMPI DUP1 PUSH4 0xB390C0AB EQ PUSH2 0x14F4 JUMPI DUP1 PUSH4 0xB48AB8B6 EQ PUSH2 0x11E2 JUMPI DUP1 PUSH4 0xCA15C873 EQ PUSH2 0x11B6 JUMPI DUP1 PUSH4 0xD547741F EQ PUSH2 0x1175 JUMPI DUP1 PUSH4 0xE8A3D485 EQ PUSH2 0x108F JUMPI DUP1 PUSH4 0xE985E9C5 EQ PUSH2 0x102B JUMPI DUP1 PUSH4 0xF242432A EQ PUSH2 0xC59 JUMPI PUSH4 0xF8954818 EQ PUSH2 0x19F JUMPI PUSH1 0x0 DUP1 REVERT JUMPDEST CALLVALUE PUSH2 0xC54 JUMPI PUSH1 0xC0 PUSH1 0x3 NOT CALLDATASIZE ADD SLT PUSH2 0xC54 JUMPI PUSH2 0x1B8 PUSH2 0x2FC7 JUMP JUMPDEST PUSH1 0x24 CALLDATALOAD PUSH8 0xFFFFFFFFFFFFFFFF DUP2 GT PUSH2 0xC54 JUMPI PUSH2 0x1D8 SWAP1 CALLDATASIZE SWAP1 PUSH1 0x4 ADD PUSH2 0x311F JUMP JUMPDEST SWAP1 PUSH1 0x44 CALLDATALOAD PUSH8 0xFFFFFFFFFFFFFFFF DUP2 GT PUSH2 0xC54 JUMPI PUSH2 0x1F9 SWAP1 CALLDATASIZE SWAP1 PUSH1 0x4 ADD PUSH2 0x311F JUMP JUMPDEST SWAP1 PUSH1 0x64 CALLDATALOAD PUSH8 0xFFFFFFFFFFFFFFFF DUP2 GT PUSH2 0xC54 JUMPI PUSH2 0x21A SWAP1 CALLDATASIZE SWAP1 PUSH1 0x4 ADD PUSH2 0x311F JUMP JUMPDEST PUSH20 0xFFFFFFFFFFFFFFFFFFFFFFFFFFFFFFFFFFFFFFFF PUSH1 0x84 CALLDATALOAD AND PUSH1 0x84 CALLDATALOAD SUB PUSH2 0xC54 JUMPI PUSH12 0xFFFFFFFFFFFFFFFFFFFFFFFF PUSH1 0xA4 CALLDATALOAD AND PUSH1 0xA4 CALLDATALOAD SUB PUSH2 0xC54 JUMPI PUSH1 0xB DUP1 SLOAD PUSH32 0xFFFFFFFFFFFFFFFFFFFFFFFFFFFFFFFFFFFFFFFFFFFFFFFFFFFFFFFFFFFF00FF AND PUSH2 0x100 OR SWAP1 SSTORE PUSH20 0xFFFFFFFFFFFFFFFFFFFFFFFFFFFFFFFFFFFFFFFF DUP3 AND PUSH1 0x0 SWAP1 DUP2 MSTORE PUSH32 0x240ABDBCDB02F5E390E80FC01F6670D9AE0D46970A0D7B933281C81F8456DF9E PUSH1 0x20 MSTORE PUSH1 0x40 SWAP1 KECCAK256 SLOAD PUSH1 0xFF AND ISZERO PUSH2 0xBB7 JUMPI JUMPDEST PUSH32 0x915327D54F2C758AD33C35B031B5E89868657EA971CDA2B8103C502DC672509C PUSH1 0x0 MSTORE PUSH1 0x9 PUSH1 0x20 MSTORE PUSH2 0x337 PUSH20 0xFFFFFFFFFFFFFFFFFFFFFFFFFFFFFFFFFFFFFFFF DUP4 AND PUSH32 0xBB47BA84ADE104D32FDFA33BEE5E0FAEF1AE541476AE15DF126BA217F45027C1 PUSH2 0x3C54 JUMP JUMPDEST POP PUSH20 0xFFFFFFFFFFFFFFFFFFFFFFFFFFFFFFFFFFFFFFFF PUSH32 0x0 AND CALLER EQ DUP1 ISZERO SWAP1 PUSH2 0xBAB JUMPI JUMPDEST PUSH2 0xB81 JUMPI DUP4 MLOAD PUSH8 0xFFFFFFFFFFFFFFFF DUP2 GT PUSH2 0x8F6 JUMPI PUSH2 0x399 PUSH1 0x5 SLOAD PUSH2 0x300D JUMP JUMPDEST PUSH1 0x1F DUP2 GT PUSH2 0xAE2 JUMPI JUMPDEST POP PUSH1 0x20 SWAP5 PUSH1 0x1F DUP3 GT PUSH1 0x1 EQ PUSH2 0xA5E JUMPI SWAP5 DUP2 SWAP3 SWAP4 SWAP5 SWAP6 PUSH1 0x0 SWAP3 PUSH2 0xA53 JUMPI JUMPDEST POP POP PUSH1 0x0 NOT DUP3 PUSH1 0x1 SHL SWAP3 PUSH1 0x3 SHL SHR NOT AND OR PUSH1 0x5 SSTORE JUMPDEST DUP3 MLOAD PUSH8 0xFFFFFFFFFFFFFFFF DUP2 GT PUSH2 0x8F6 JUMPI PUSH2 0x3F0 PUSH1 0x4 SLOAD PUSH2 0x300D JUMP JUMPDEST PUSH1 0x1F DUP2 GT PUSH2 0x9B4 JUMPI JUMPDEST POP PUSH1 0x20 PUSH1 0x1F DUP3 GT PUSH1 0x1 EQ PUSH2 0x930 JUMPI DUP2 SWAP3 SWAP4 SWAP5 PUSH1 0x0 SWAP3 PUSH2 0x925 JUMPI JUMPDEST POP POP PUSH1 0x0 NOT DUP3 PUSH1 0x1 SHL SWAP3 PUSH1 0x3 SHL SHR NOT AND OR PUSH1 0x4 SSTORE JUMPDEST DUP1 MLOAD SWAP1 PUSH8 0xFFFFFFFFFFFFFFFF DUP3 GT PUSH2 0x8F6 JUMPI PUSH2 0x445 PUSH1 0xA SLOAD PUSH2 0x300D JUMP JUMPDEST PUSH1 0x1F DUP2 GT PUSH2 0x891 JUMPI JUMPDEST POP PUSH1 0x20 SWAP1 PUSH1 0x1F DUP4 GT PUSH1 0x1 EQ PUSH2 0x7F2 JUMPI SWAP2 DUP1 PUSH2 0x66E SWAP5 SWAP3 PUSH20 0xFFFFFFFFFFFFFFFFFFFFFFFFFFFFFFFFFFFFFFFF SWAP5 PUSH1 0x0 SWAP3 PUSH2 0x7E7 JUMPI JUMPDEST POP POP PUSH1 0x0 NOT DUP3 PUSH1 0x1 SHL SWAP3 PUSH1 0x3 SHL SHR NOT AND OR PUSH1 0xA SSTORE JUMPDEST DUP1 DUP3 AND PUSH1 0x0 SWAP1 DUP2 MSTORE PUSH32 0x5EFF886EA0CE6CA488A3D6E336D6C0F75F46D19B42C06CE5EE98E42C96D256C7 PUSH1 0x20 MSTORE PUSH1 0x40 SWAP1 KECCAK256 SLOAD PUSH1 0xFF AND ISZERO PUSH2 0x780 JUMPI JUMPDEST PUSH1 0x0 DUP1 MSTORE PUSH1 0x9 PUSH1 0x20 MSTORE PUSH2 0x506 DUP2 DUP4 AND PUSH32 0xEC8156718A8372B1DB44BB411437D0870F3E3790D4A08526D024CE1B0B668F6B PUSH2 0x3C54 JUMP JUMPDEST POP DUP1 DUP3 AND PUSH1 0x0 SWAP1 DUP2 MSTORE PUSH32 0xA9CED9FDC45CDED6D4B7A90E36D1EE82B957A500CC22704C465E9BDF275406FD PUSH1 0x20 MSTORE PUSH1 0x40 SWAP1 KECCAK256 SLOAD PUSH32 0x6DB4061A20CA83A3BE756EE172BD37A029093AC5AFE4CE968C6D5435B43CB011 SWAP1 PUSH1 0xFF AND ISZERO PUSH2 0x72A JUMPI JUMPDEST PUSH1 0x0 MSTORE PUSH1 0x9 PUSH1 0x20 MSTORE PUSH2 0x57B DUP3 DUP3 AND PUSH1 0x40 PUSH1 0x0 KECCAK256 PUSH2 0x3C54 JUMP JUMPDEST POP DUP1 DUP3 AND PUSH1 0x0 SWAP1 DUP2 MSTORE PUSH32 0x95F185554ABA264DE8ED412AF70E5ABA6ACB0E648F258C912AD29ED85D11CA18 PUSH1 0x20 MSTORE PUSH1 0x40 SWAP1 KECCAK256 SLOAD PUSH32 0xE02A0315B383857AC496E9D2B2546A699AFAEB4E5E83A1FDEF64376D0B74E5A5 SWAP1 PUSH1 0xFF AND ISZERO PUSH2 0x6D4 JUMPI JUMPDEST PUSH1 0x0 MSTORE PUSH1 0x9 PUSH1 0x20 MSTORE PUSH2 0x5F0 DUP3 DUP3 AND PUSH1 0x40 PUSH1 0x0 KECCAK256 PUSH2 0x3C54 JUMP JUMPDEST POP PUSH2 0x5FF PUSH1 0xA4 CALLDATALOAD PUSH1 0x84 CALLDATALOAD PUSH2 0x3EE5 JUMP JUMPDEST DUP1 DUP3 AND PUSH1 0x0 SWAP1 DUP2 MSTORE PUSH32 0x51A495916474FE1A0C0FCFB65A8A97682B84A054118858CDD1F5DFD7FC0919EB PUSH1 0x20 MSTORE PUSH1 0x40 SWAP1 KECCAK256 SLOAD PUSH32 0x9F2DF0FED2C77648DE5860A4CC508CD0818C85B8B8A1AB4CEEEF8D981C8956A6 SWAP1 PUSH1 0xFF AND ISZERO PUSH2 0x67E JUMPI JUMPDEST PUSH1 0x0 MSTORE PUSH1 0x9 PUSH1 0x20 MSTORE AND PUSH1 0x40 PUSH1 0x0 KECCAK256 PUSH2 0x3C54 JUMP JUMPDEST POP PUSH1 0xB DUP1 SLOAD PUSH1 0xFF NOT AND PUSH1 0x1 OR SWAP1 SSTORE STOP JUMPDEST DUP1 PUSH1 0x0 MSTORE PUSH1 0x8 PUSH1 0x20 MSTORE PUSH1 0x40 PUSH1 0x0 KECCAK256 DUP4 DUP4 AND PUSH1 0x0 MSTORE PUSH1 0x20 MSTORE PUSH1 0x40 PUSH1 0x0 KECCAK256 PUSH1 0x1 PUSH1 0xFF NOT DUP3 SLOAD AND OR SWAP1 SSTORE CALLER DUP4 DUP4 AND DUP3 PUSH32 0x2F8788117E7EFF1D82E926EC794901D17C78024A50270940304540A733656F0D PUSH1 0x0 DUP1 LOG4 PUSH2 0x65B JUMP JUMPDEST DUP1 PUSH1 0x0 MSTORE PUSH1 0x8 PUSH1 0x20 MSTORE PUSH1 0x40 PUSH1 0x0 KECCAK256 DUP4 DUP4 AND PUSH1 0x0 MSTORE PUSH1 0x20 MSTORE PUSH1 0x40 PUSH1 0x0 KECCAK256 PUSH1 0x1 PUSH1 0xFF NOT DUP3 SLOAD AND OR SWAP1 SSTORE CALLER DUP4 DUP4 AND DUP3 PUSH32 0x2F8788117E7EFF1D82E926EC794901D17C78024A50270940304540A733656F0D PUSH1 0x0 DUP1 LOG4 PUSH2 0x5D8 JUMP JUMPDEST DUP1 PUSH1 0x0 MSTORE PUSH1 0x8 PUSH1 0x20 MSTORE PUSH1 0x40 PUSH1 0x0 KECCAK256 DUP4 DUP4 AND PUSH1 0x0 MSTORE PUSH1 0x20 MSTORE PUSH1 0x40 PUSH1 0x0 KECCAK256 PUSH1 0x1 PUSH1 0xFF NOT DUP3 SLOAD AND OR SWAP1 SSTORE CALLER DUP4 DUP4 AND DUP3 PUSH32 0x2F8788117E7EFF1D82E926EC794901D17C78024A50270940304540A733656F0D PUSH1 0x0 DUP1 LOG4 PUSH2 0x563 JUMP JUMPDEST DUP1 DUP3 AND PUSH1 0x0 DUP2 DUP2 MSTORE PUSH32 0x5EFF886EA0CE6CA488A3D6E336D6C0F75F46D19B42C06CE5EE98E42C96D256C7 PUSH1 0x20 MSTORE PUSH1 0x40 DUP2 KECCAK256 DUP1 SLOAD PUSH1 0xFF NOT AND PUSH1 0x1 OR SWAP1 SSTORE CALLER SWAP2 SWAP1 PUSH32 0x2F8788117E7EFF1D82E926EC794901D17C78024A50270940304540A733656F0D DUP2 DUP1 LOG4 PUSH2 0x4D1 JUMP JUMPDEST ADD MLOAD SWAP1 POP CODESIZE DUP1 PUSH2 0x482 JUMP JUMPDEST SWAP1 PUSH1 0x1F NOT DUP4 AND SWAP2 PUSH1 0xA PUSH1 0x0 MSTORE PUSH32 0xC65A7BB8D6351C1CF70C95A316CC6A92839C986682D98BC35F958F4883F9D2A8 SWAP3 PUSH1 0x0 JUMPDEST DUP2 DUP2 LT PUSH2 0x879 JUMPI POP SWAP3 PUSH1 0x1 SWAP3 DUP6 SWAP3 PUSH20 0xFFFFFFFFFFFFFFFFFFFFFFFFFFFFFFFFFFFFFFFF SWAP7 PUSH2 0x66E SWAP9 SWAP7 LT PUSH2 0x860 JUMPI JUMPDEST POP POP POP DUP2 SHL ADD PUSH1 0xA SSTORE PUSH2 0x497 JUMP JUMPDEST ADD MLOAD PUSH1 0x0 NOT PUSH1 0xF8 DUP5 PUSH1 0x3 SHL AND SHR NOT AND SWAP1 SSTORE CODESIZE DUP1 DUP1 PUSH2 0x852 JUMP JUMPDEST SWAP3 SWAP4 PUSH1 0x20 PUSH1 0x1 DUP2 SWAP3 DUP8 DUP7 ADD MLOAD DUP2 SSTORE ADD SWAP6 ADD SWAP4 ADD PUSH2 0x823 JUMP JUMPDEST PUSH1 0xA PUSH1 0x0 MSTORE PUSH32 0xC65A7BB8D6351C1CF70C95A316CC6A92839C986682D98BC35F958F4883F9D2A8 PUSH1 0x1F DUP5 ADD PUSH1 0x5 SHR DUP2 ADD SWAP2 PUSH1 0x20 DUP6 LT PUSH2 0x8EC JUMPI JUMPDEST PUSH1 0x1F ADD PUSH1 0x5 SHR ADD SWAP1 JUMPDEST DUP2 DUP2 LT PUSH2 0x8E0 JUMPI POP PUSH2 0x44E JUMP JUMPDEST PUSH1 0x0 DUP2 SSTORE PUSH1 0x1 ADD PUSH2 0x8D3 JUMP JUMPDEST SWAP1 SWAP2 POP DUP2 SWAP1 PUSH2 0x8CA JUMP JUMPDEST PUSH32 0x4E487B7100000000000000000000000000000000000000000000000000000000 PUSH1 0x0 MSTORE PUSH1 0x41 PUSH1 0x4 MSTORE PUSH1 0x24 PUSH1 0x0 REVERT JUMPDEST ADD MLOAD SWAP1 POP CODESIZE DUP1 PUSH2 0x413 JUMP JUMPDEST PUSH1 0x1F NOT DUP3 AND SWAP1 PUSH1 0x4 PUSH1 0x0 MSTORE PUSH32 0x8A35ACFBC15FF81A39AE7D344FD709F28E8600B4AA8C65C6B64BFE7FE36BD19B SWAP2 PUSH1 0x0 JUMPDEST DUP2 DUP2 LT PUSH2 0x99C JUMPI POP SWAP6 DUP4 PUSH1 0x1 SWAP6 SWAP7 SWAP8 LT PUSH2 0x983 JUMPI JUMPDEST POP POP POP DUP2 SHL ADD PUSH1 0x4 SSTORE PUSH2 0x428 JUMP JUMPDEST ADD MLOAD PUSH1 0x0 NOT PUSH1 0xF8 DUP5 PUSH1 0x3 SHL AND SHR NOT AND SWAP1 SSTORE CODESIZE DUP1 DUP1 PUSH2 0x975 JUMP JUMPDEST SWAP2 SWAP3 PUSH1 0x20 PUSH1 0x1 DUP2 SWAP3 DUP7 DUP12 ADD MLOAD DUP2 SSTORE ADD SWAP5 ADD SWAP3 ADD PUSH2 0x960 JUMP JUMPDEST PUSH1 0x4 PUSH1 0x0 MSTORE PUSH1 0x1F DUP3 ADD PUSH1 0x5 SHR PUSH32 0x8A35ACFBC15FF81A39AE7D344FD709F28E8600B4AA8C65C6B64BFE7FE36BD19B ADD PUSH1 0x20 DUP4 LT PUSH2 0xA2C JUMPI JUMPDEST PUSH1 0x1F DUP3 ADD PUSH1 0x5 SHR PUSH32 0x8A35ACFBC15FF81A39AE7D344FD709F28E8600B4AA8C65C6B64BFE7FE36BD19B ADD DUP2 LT PUSH2 0xA20 JUMPI POP PUSH2 0x3F9 JUMP JUMPDEST PUSH1 0x0 DUP2 SSTORE PUSH1 0x1 ADD PUSH2 0x9EB JUMP JUMPDEST POP PUSH32 0x8A35ACFBC15FF81A39AE7D344FD709F28E8600B4AA8C65C6B64BFE7FE36BD19B PUSH2 0x9EB JUMP JUMPDEST ADD MLOAD SWAP1 POP CODESIZE DUP1 PUSH2 0x3BF JUMP JUMPDEST PUSH1 0x1F NOT DUP3 AND SWAP6 PUSH1 0x5 PUSH1 0x0 MSTORE PUSH32 0x36B6384B5ECA791C62761152D0C79BB0604C104A5FB6F4EB0703F3154BB3DB0 SWAP2 PUSH1 0x0 JUMPDEST DUP9 DUP2 LT PUSH2 0xACA JUMPI POP DUP4 PUSH1 0x1 SWAP6 SWAP7 SWAP8 SWAP9 LT PUSH2 0xAB1 JUMPI JUMPDEST POP POP POP DUP2 SHL ADD PUSH1 0x5 SSTORE PUSH2 0x3D4 JUMP JUMPDEST ADD MLOAD PUSH1 0x0 NOT PUSH1 0xF8 DUP5 PUSH1 0x3 SHL AND SHR NOT AND SWAP1 SSTORE CODESIZE DUP1 DUP1 PUSH2 0xAA3 JUMP JUMPDEST SWAP2 SWAP3 PUSH1 0x20 PUSH1 0x1 DUP2 SWAP3 DUP7 DUP6 ADD MLOAD DUP2 SSTORE ADD SWAP5 ADD SWAP3 ADD PUSH2 0xA8E JUMP JUMPDEST PUSH1 0x5 PUSH1 0x0 MSTORE PUSH1 0x1F DUP3 ADD PUSH1 0x5 SHR PUSH32 0x36B6384B5ECA791C62761152D0C79BB0604C104A5FB6F4EB0703F3154BB3DB0 ADD PUSH1 0x20 DUP4 LT PUSH2 0xB5A JUMPI JUMPDEST PUSH1 0x1F DUP3 ADD PUSH1 0x5 SHR PUSH32 0x36B6384B5ECA791C62761152D0C79BB0604C104A5FB6F4EB0703F3154BB3DB0 ADD DUP2 LT PUSH2 0xB4E JUMPI POP PUSH2 0x3A2 JUMP JUMPDEST PUSH1 0x0 DUP2 SSTORE PUSH1 0x1 ADD PUSH2 0xB19 JUMP JUMPDEST POP PUSH32 0x36B6384B5ECA791C62761152D0C79BB0604C104A5FB6F4EB0703F3154BB3DB0 PUSH2 0xB19 JUMP JUMPDEST PUSH1 0x4 PUSH1 0x40 MLOAD PUSH32 0xF92EE8A900000000000000000000000000000000000000000000000000000000 DUP2 MSTORE REVERT JUMPDEST POP PUSH1 0xFF PUSH1 0xB SLOAD AND PUSH2 0x379 JUMP JUMPDEST PUSH20 0xFFFFFFFFFFFFFFFFFFFFFFFFFFFFFFFFFFFFFFFF DUP3 AND PUSH1 0x0 DUP2 DUP2 MSTORE PUSH32 0x240ABDBCDB02F5E390E80FC01F6670D9AE0D46970A0D7B933281C81F8456DF9E PUSH1 0x20 MSTORE PUSH1 0x40 DUP2 KECCAK256 DUP1 SLOAD PUSH1 0xFF NOT AND PUSH1 0x1 OR SWAP1 SSTORE CALLER SWAP2 SWAP1 PUSH32 0x915327D54F2C758AD33C35B031B5E89868657EA971CDA2B8103C502DC672509C SWAP1 PUSH32 0x2F8788117E7EFF1D82E926EC794901D17C78024A50270940304540A733656F0D SWAP1 DUP1 LOG4 PUSH2 0x2CE JUMP JUMPDEST PUSH1 0x0 DUP1 REVERT JUMPDEST CALLVALUE PUSH2 0xC54 JUMPI PUSH1 0xA0 PUSH1 0x3 NOT CALLDATASIZE ADD SLT PUSH2 0xC54 JUMPI PUSH2 0xC72 PUSH2 0x2FC7 JUMP JUMPDEST PUSH2 0xC7A PUSH2 0x2FEA JUMP JUMPDEST SWAP1 PUSH1 0x44 CALLDATALOAD PUSH1 0x64 CALLDATALOAD SWAP3 PUSH1 0x84 CALLDATALOAD PUSH8 0xFFFFFFFFFFFFFFFF DUP2 GT PUSH2 0xC54 JUMPI PUSH2 0xCA2 SWAP1 CALLDATASIZE SWAP1 PUSH1 0x4 ADD PUSH2 0x311F JUMP JUMPDEST PUSH20 0xFFFFFFFFFFFFFFFFFFFFFFFFFFFFFFFFFFFFFFFF DUP1 SWAP5 AND SWAP4 DUP5 CALLER EQ DUP1 ISZERO PUSH2 0x1007 JUMPI JUMPDEST ISZERO PUSH2 0xF83 JUMPI DUP3 AND SWAP2 DUP3 ISZERO PUSH2 0xEFF JUMPI PUSH1 0xFF PUSH1 0xB SLOAD PUSH1 0x8 SHR AND DUP1 PUSH2 0xEF6 JUMPI JUMPDEST PUSH2 0xECC JUMPI DUP5 PUSH1 0x0 MSTORE PUSH1 0x20 SWAP6 PUSH1 0x0 DUP8 MSTORE PUSH1 0x40 PUSH1 0x0 KECCAK256 DUP6 PUSH1 0x0 MSTORE DUP8 MSTORE PUSH1 0x40 PUSH1 0x0 KECCAK256 PUSH2 0xD0C DUP3 DUP3 SLOAD PUSH2 0x3281 JUMP JUMPDEST SWAP1 SSTORE DUP4 PUSH1 0x0 MSTORE PUSH1 0x0 DUP8 MSTORE PUSH1 0x40 PUSH1 0x0 KECCAK256 DUP6 PUSH1 0x0 MSTORE DUP8 MSTORE PUSH1 0x40 PUSH1 0x0 KECCAK256 PUSH2 0xD31 DUP3 DUP3 SLOAD PUSH2 0x3AC7 JUMP JUMPDEST SWAP1 SSTORE DUP4 DUP7 PUSH1 0x40 MLOAD DUP8 DUP2 MSTORE DUP4 DUP11 DUP3 ADD MSTORE PUSH32 0xC3D58168C5AE7397731D063D5BBF3D657854427343F4C083240F7AACAA2D0F62 PUSH1 0x40 CALLER SWAP3 LOG4 PUSH2 0xD70 GAS SWAP3 PUSH2 0x33AC JUMP JUMPDEST PUSH2 0xD76 JUMPI STOP JUMPDEST PUSH1 0x0 DUP8 SWAP5 PUSH2 0xDD3 SWAP7 PUSH1 0x40 MLOAD SWAP8 DUP9 SWAP7 DUP8 SWAP6 DUP7 SWAP4 PUSH32 0xF23A6E6100000000000000000000000000000000000000000000000000000000 SWAP13 DUP14 DUP7 MSTORE CALLER PUSH1 0x4 DUP8 ADD MSTORE PUSH1 0x24 DUP7 ADD MSTORE PUSH1 0x44 DUP6 ADD MSTORE PUSH1 0x64 DUP5 ADD MSTORE PUSH1 0xA0 PUSH1 0x84 DUP5 ADD MSTORE PUSH1 0xA4 DUP4 ADD SWAP1 PUSH2 0x30DE JUMP JUMPDEST SUB SWAP4 CALL DUP1 ISZERO PUSH2 0xEC0 JUMPI PUSH32 0xFFFFFFFF00000000000000000000000000000000000000000000000000000000 SWAP2 PUSH1 0x0 SWAP2 PUSH2 0xE93 JUMPI JUMPDEST POP AND SUB PUSH2 0xE0F JUMPI STOP JUMPDEST PUSH1 0x84 SWAP1 PUSH1 0x40 MLOAD SWAP1 PUSH32 0x8C379A000000000000000000000000000000000000000000000000000000000 DUP3 MSTORE PUSH1 0x4 DUP3 ADD MSTORE PUSH1 0x3A PUSH1 0x24 DUP3 ADD MSTORE PUSH32 0x45524331313535235F63616C6C6F6E4552433131353552656365697665643A20 PUSH1 0x44 DUP3 ADD MSTORE PUSH32 0x494E56414C49445F4F4E5F524543454956455F4D455353414745000000000000 PUSH1 0x64 DUP3 ADD MSTORE REVERT JUMPDEST PUSH2 0xEB3 SWAP2 POP DUP5 RETURNDATASIZE DUP7 GT PUSH2 0xEB9 JUMPI JUMPDEST PUSH2 0xEAB DUP2 DUP4 PUSH2 0x3098 JUMP JUMPDEST DUP2 ADD SWAP1 PUSH2 0x3226 JUMP JUMPDEST DUP5 PUSH2 0xE06 JUMP JUMPDEST POP RETURNDATASIZE PUSH2 0xEA1 JUMP JUMPDEST PUSH1 0x40 MLOAD RETURNDATASIZE PUSH1 0x0 DUP3 RETURNDATACOPY RETURNDATASIZE SWAP1 REVERT JUMPDEST PUSH1 0x4 PUSH1 0x40 MLOAD PUSH32 0xDB89E3F400000000000000000000000000000000000000000000000000000000 DUP2 MSTORE REVERT JUMPDEST POP DUP5 ISZERO ISZERO PUSH2 0xCE2 JUMP JUMPDEST PUSH1 0x84 PUSH1 0x40 MLOAD PUSH32 0x8C379A000000000000000000000000000000000000000000000000000000000 DUP2 MSTORE PUSH1 0x20 PUSH1 0x4 DUP3 ADD MSTORE PUSH1 0x2B PUSH1 0x24 DUP3 ADD MSTORE PUSH32 0x4552433131353523736166655472616E7366657246726F6D3A20494E56414C49 PUSH1 0x44 DUP3 ADD MSTORE PUSH32 0x445F524543495049454E54000000000000000000000000000000000000000000 PUSH1 0x64 DUP3 ADD MSTORE REVERT JUMPDEST PUSH1 0x84 PUSH1 0x40 MLOAD PUSH32 0x8C379A000000000000000000000000000000000000000000000000000000000 DUP2 MSTORE PUSH1 0x20 PUSH1 0x4 DUP3 ADD MSTORE PUSH1 0x2A PUSH1 0x24 DUP3 ADD MSTORE PUSH32 0x4552433131353523736166655472616E7366657246726F6D3A20494E56414C49 PUSH1 0x44 DUP3 ADD MSTORE PUSH32 0x445F4F50455241544F5200000000000000000000000000000000000000000000 PUSH1 0x64 DUP3 ADD MSTORE REVERT JUMPDEST POP DUP5 PUSH1 0x0 MSTORE PUSH1 0x1 PUSH1 0x20 MSTORE PUSH1 0x40 PUSH1 0x0 KECCAK256 CALLER PUSH1 0x0 MSTORE PUSH1 0x20 MSTORE PUSH1 0xFF PUSH1 0x40 PUSH1 0x0 KECCAK256 SLOAD AND PUSH2 0xCC5 JUMP JUMPDEST CALLVALUE PUSH2 0xC54 JUMPI PUSH1 0x40 PUSH1 0x3 NOT CALLDATASIZE ADD SLT PUSH2 0xC54 JUMPI PUSH2 0x1044 PUSH2 0x2FC7 JUMP JUMPDEST PUSH2 0x104C PUSH2 0x2FEA JUMP JUMPDEST SWAP1 PUSH20 0xFFFFFFFFFFFFFFFFFFFFFFFFFFFFFFFFFFFFFFFF DUP1 SWAP2 AND PUSH1 0x0 MSTORE PUSH1 0x1 PUSH1 0x20 MSTORE PUSH1 0x40 PUSH1 0x0 KECCAK256 SWAP2 AND PUSH1 0x0 MSTORE PUSH1 0x20 MSTORE PUSH1 0x20 PUSH1 0xFF PUSH1 0x40 PUSH1 0x0 KECCAK256 SLOAD AND PUSH1 0x40 MLOAD SWAP1 ISZERO ISZERO DUP2 MSTORE RETURN JUMPDEST CALLVALUE PUSH2 0xC54 JUMPI PUSH1 0x0 PUSH1 0x3 NOT CALLDATASIZE ADD SLT PUSH2 0xC54 JUMPI PUSH1 0x40 MLOAD PUSH1 0x0 PUSH1 0xA SLOAD PUSH2 0x10B1 DUP2 PUSH2 0x300D JUMP JUMPDEST DUP1 DUP5 MSTORE SWAP1 PUSH1 0x1 SWAP1 DUP2 DUP2 AND SWAP1 DUP2 ISZERO PUSH2 0x114E JUMPI POP PUSH1 0x1 EQ PUSH2 0x10F3 JUMPI JUMPDEST PUSH2 0x10EF DUP5 PUSH2 0x10DB DUP2 DUP7 SUB DUP3 PUSH2 0x3098 JUMP JUMPDEST PUSH1 0x40 MLOAD SWAP2 DUP3 SWAP2 PUSH1 0x20 DUP4 MSTORE PUSH1 0x20 DUP4 ADD SWAP1 PUSH2 0x30DE JUMP JUMPDEST SUB SWAP1 RETURN JUMPDEST PUSH1 0xA PUSH1 0x0 SWAP1 DUP2 MSTORE SWAP3 POP PUSH32 0xC65A7BB8D6351C1CF70C95A316CC6A92839C986682D98BC35F958F4883F9D2A8 JUMPDEST DUP3 DUP5 LT PUSH2 0x1136 JUMPI POP POP POP DUP2 ADD PUSH1 0x20 ADD PUSH2 0x10DB DUP3 PUSH2 0x10CB JUMP JUMPDEST DUP1 SLOAD PUSH1 0x20 DUP6 DUP8 ADD DUP2 ADD SWAP2 SWAP1 SWAP2 MSTORE SWAP1 SWAP4 ADD SWAP3 DUP2 ADD PUSH2 0x111E JUMP JUMPDEST PUSH1 0xFF NOT AND PUSH1 0x20 DUP1 DUP8 ADD SWAP2 SWAP1 SWAP2 MSTORE SWAP3 ISZERO ISZERO PUSH1 0x5 SHL DUP6 ADD SWAP1 SWAP3 ADD SWAP3 POP PUSH2 0x10DB SWAP2 POP DUP4 SWAP1 POP PUSH2 0x10CB JUMP JUMPDEST CALLVALUE PUSH2 0xC54 JUMPI PUSH1 0x40 PUSH1 0x3 NOT CALLDATASIZE ADD SLT PUSH2 0xC54 JUMPI PUSH2 0x11B4 PUSH1 0x4 CALLDATALOAD PUSH2 0x1194 PUSH2 0x2FEA JUMP JUMPDEST SWAP1 DUP1 PUSH1 0x0 MSTORE PUSH1 0x8 PUSH1 0x20 MSTORE PUSH2 0x11AF PUSH1 0x1 PUSH1 0x40 PUSH1 0x0 KECCAK256 ADD SLOAD PUSH2 0x3912 JUMP JUMPDEST PUSH2 0x3A30 JUMP JUMPDEST STOP JUMPDEST CALLVALUE PUSH2 0xC54 JUMPI PUSH1 0x20 PUSH1 0x3 NOT CALLDATASIZE ADD SLT PUSH2 0xC54 JUMPI PUSH1 0x4 CALLDATALOAD PUSH1 0x0 MSTORE PUSH1 0x9 PUSH1 0x20 MSTORE PUSH1 0x20 PUSH1 0x40 PUSH1 0x0 KECCAK256 SLOAD PUSH1 0x40 MLOAD SWAP1 DUP2 MSTORE RETURN JUMPDEST CALLVALUE PUSH2 0xC54 JUMPI PUSH1 0x3 NOT PUSH1 0x80 DUP2 CALLDATASIZE ADD SLT PUSH2 0xC54 JUMPI PUSH2 0x11FC PUSH2 0x2FC7 JUMP JUMPDEST SWAP1 PUSH8 0xFFFFFFFFFFFFFFFF PUSH1 0x24 CALLDATALOAD DUP2 DUP2 GT PUSH2 0xC54 JUMPI PUSH2 0x121E SWAP1 CALLDATASIZE SWAP1 PUSH1 0x4 ADD PUSH2 0x317E JUMP JUMPDEST SWAP3 PUSH1 0x44 CALLDATALOAD DUP3 DUP2 GT PUSH2 0xC54 JUMPI PUSH2 0x1237 SWAP1 CALLDATASIZE SWAP1 PUSH1 0x4 ADD PUSH2 0x317E JUMP JUMPDEST SWAP2 PUSH1 0x64 CALLDATALOAD SWAP1 DUP2 GT PUSH2 0xC54 JUMPI PUSH2 0x1250 SWAP1 CALLDATASIZE SWAP1 PUSH1 0x4 ADD PUSH2 0x311F JUMP JUMPDEST SWAP1 PUSH2 0x1259 PUSH2 0x37BA JUMP JUMPDEST DUP5 MLOAD DUP4 MLOAD DUP2 SUB PUSH2 0x14CA JUMPI PUSH1 0x0 DUP1 PUSH20 0xFFFFFFFFFFFFFFFFFFFFFFFFFFFFFFFFFFFFFFFF DUP5 AND SWAP3 JUMPDEST DUP1 DUP4 LT PUSH2 0x1437 JUMPI POP PUSH2 0x1294 SWAP2 POP PUSH1 0x2 SLOAD PUSH2 0x3AC7 JUMP JUMPDEST PUSH1 0x2 SSTORE DUP1 PUSH1 0x0 PUSH1 0x40 MLOAD PUSH32 0x4A39DC06D4C0DBC64B70AF90FD698A233A518AA5D07E595D983B8C0526C8F7FB CALLER SWAP2 DUP1 PUSH2 0x12CC DUP11 DUP14 DUP4 PUSH2 0x3E32 JUMP JUMPDEST SUB SWAP1 LOG4 PUSH2 0x12D9 GAS SWAP3 PUSH2 0x33AC JUMP JUMPDEST PUSH2 0x12DF JUMPI STOP JUMPDEST PUSH1 0x0 PUSH2 0x134A SWAP2 PUSH1 0x20 SWAP6 PUSH2 0x1359 PUSH1 0x40 MLOAD SWAP9 DUP10 SWAP8 DUP9 SWAP7 DUP8 SWAP5 PUSH2 0x133A PUSH32 0xBC197C8100000000000000000000000000000000000000000000000000000000 SWAP15 DUP16 DUP9 MSTORE CALLER PUSH1 0x4 DUP10 ADD MSTORE DUP10 PUSH1 0x24 DUP10 ADD MSTORE PUSH1 0xA0 PUSH1 0x44 DUP10 ADD MSTORE PUSH1 0xA4 DUP9 ADD SWAP1 PUSH2 0x31F2 JUMP JUMPDEST SWAP1 DUP5 DUP8 DUP4 SUB ADD PUSH1 0x64 DUP9 ADD MSTORE PUSH2 0x31F2 JUMP JUMPDEST SWAP2 DUP5 DUP4 SUB ADD PUSH1 0x84 DUP6 ADD MSTORE PUSH2 0x30DE JUMP JUMPDEST SUB SWAP4 CALL DUP1 ISZERO PUSH2 0xEC0 JUMPI PUSH32 0xFFFFFFFF00000000000000000000000000000000000000000000000000000000 SWAP2 PUSH1 0x0 SWAP2 PUSH2 0x1419 JUMPI JUMPDEST POP AND SUB PUSH2 0x1395 JUMPI STOP JUMPDEST PUSH1 0x84 PUSH1 0x40 MLOAD PUSH32 0x8C379A000000000000000000000000000000000000000000000000000000000 DUP2 MSTORE PUSH1 0x20 PUSH1 0x4 DUP3 ADD MSTORE PUSH1 0x3F PUSH1 0x24 DUP3 ADD MSTORE PUSH32 0x45524331313535235F63616C6C6F6E4552433131353542617463685265636569 PUSH1 0x44 DUP3 ADD MSTORE PUSH32 0x7665643A20494E56414C49445F4F4E5F524543454956455F4D45535341474500 PUSH1 0x64 DUP3 ADD MSTORE REVERT JUMPDEST PUSH2 0x1431 SWAP2 POP PUSH1 0x20 RETURNDATASIZE DUP2 GT PUSH2 0xEB9 JUMPI PUSH2 0xEAB DUP2 DUP4 PUSH2 0x3098 JUMP JUMPDEST DUP4 PUSH2 0x138C JUMP JUMPDEST SWAP1 PUSH2 0x14BD PUSH2 0x14C3 SWAP2 DUP11 PUSH1 0x3 DUP11 PUSH2 0x1495 DUP9 PUSH2 0x148E DUP2 PUSH2 0x1455 DUP2 DUP7 PUSH2 0x326D JUMP JUMPDEST MLOAD SWAP5 DUP14 PUSH1 0x0 MSTORE PUSH1 0x20 SWAP6 PUSH1 0x0 DUP8 MSTORE PUSH1 0x40 PUSH1 0x0 KECCAK256 PUSH2 0x1471 DUP5 DUP12 PUSH2 0x326D JUMP JUMPDEST MLOAD PUSH1 0x0 MSTORE DUP8 MSTORE PUSH2 0x1487 PUSH1 0x40 PUSH1 0x0 KECCAK256 SWAP2 DUP3 SLOAD PUSH2 0x3AC7 JUMP JUMPDEST SWAP1 SSTORE PUSH2 0x326D JUMP JUMPDEST MLOAD SWAP5 PUSH2 0x326D JUMP JUMPDEST MLOAD PUSH1 0x0 MSTORE MSTORE PUSH2 0x14AA PUSH1 0x40 PUSH1 0x0 KECCAK256 SWAP2 DUP3 SLOAD PUSH2 0x3AC7 JUMP JUMPDEST SWAP1 SSTORE PUSH2 0x14B6 DUP6 DUP11 PUSH2 0x326D JUMP JUMPDEST MLOAD SWAP1 PUSH2 0x3AC7 JUMP JUMPDEST SWAP3 PUSH2 0x325E JUMP JUMPDEST SWAP2 SWAP1 PUSH2 0x127F JUMP JUMPDEST PUSH1 0x4 PUSH1 0x40 MLOAD PUSH32 0x9D89020A00000000000000000000000000000000000000000000000000000000 DUP2 MSTORE REVERT JUMPDEST CALLVALUE PUSH2 0xC54 JUMPI PUSH2 0x1502 CALLDATASIZE PUSH2 0x31DC JUMP JUMPDEST SWAP1 PUSH1 0xFF PUSH1 0xB SLOAD PUSH1 0x8 SHR AND PUSH2 0xECC JUMPI DUP2 PUSH2 0x151F PUSH1 0x0 SWAP4 PUSH1 0x2 SLOAD PUSH2 0x3281 JUMP JUMPDEST PUSH1 0x2 SSTORE DUP2 DUP4 MSTORE PUSH1 0x3 PUSH1 0x20 MSTORE PUSH1 0x40 DUP4 KECCAK256 PUSH2 0x1539 DUP3 DUP3 SLOAD PUSH2 0x3281 JUMP JUMPDEST SWAP1 SSTORE CALLER DUP4 MSTORE DUP3 PUSH1 0x20 MSTORE PUSH1 0x40 DUP4 KECCAK256 DUP3 DUP5 MSTORE PUSH1 0x20 MSTORE PUSH1 0x40 DUP4 KECCAK256 PUSH2 0x155B DUP3 DUP3 SLOAD PUSH2 0x3281 JUMP JUMPDEST SWAP1 SSTORE PUSH1 0x40 MLOAD SWAP2 DUP3 MSTORE PUSH1 0x20 DUP3 ADD MSTORE CALLER SWAP1 PUSH32 0xC3D58168C5AE7397731D063D5BBF3D657854427343F4C083240F7AACAA2D0F62 PUSH1 0x40 CALLER SWAP3 LOG4 STOP JUMPDEST CALLVALUE PUSH2 0xC54 JUMPI PUSH1 0x40 PUSH1 0x3 NOT CALLDATASIZE ADD SLT PUSH2 0xC54 JUMPI PUSH2 0x15AB PUSH2 0x2FC7 JUMP JUMPDEST PUSH1 0x24 CALLDATALOAD DUP1 ISZERO ISZERO DUP1 SWAP2 SUB PUSH2 0xC54 JUMPI CALLER PUSH1 0x0 MSTORE PUSH1 0x1 PUSH1 0x20 MSTORE PUSH20 0xFFFFFFFFFFFFFFFFFFFFFFFFFFFFFFFFFFFFFFFF PUSH1 0x40 PUSH1 0x0 KECCAK256 SWAP3 AND SWAP2 DUP3 PUSH1 0x0 MSTORE PUSH1 0x20 MSTORE PUSH1 0x40 PUSH1 0x0 KECCAK256 PUSH1 0xFF NOT DUP2 SLOAD AND PUSH1 0xFF DUP4 AND OR SWAP1 SSTORE PUSH1 0x40 MLOAD SWAP1 DUP2 MSTORE PUSH32 0x17307EAB39AB6107E8899845AD3D59BD9653F200F220920489CA2B5937696C31 PUSH1 0x20 CALLER SWAP3 LOG3 STOP JUMPDEST CALLVALUE PUSH2 0xC54 JUMPI PUSH1 0x0 PUSH1 0x3 NOT CALLDATASIZE ADD SLT PUSH2 0xC54 JUMPI PUSH1 0x20 PUSH1 0x40 MLOAD PUSH1 0x0 DUP2 MSTORE RETURN JUMPDEST CALLVALUE PUSH2 0xC54 JUMPI PUSH1 0x20 DUP1 PUSH1 0x3 NOT CALLDATASIZE ADD SLT PUSH2 0xC54 JUMPI PUSH8 0xFFFFFFFFFFFFFFFF PUSH1 0x4 CALLDATALOAD DUP2 DUP2 GT PUSH2 0xC54 JUMPI PUSH2 0x1674 SWAP1 CALLDATASIZE SWAP1 PUSH1 0x4 ADD PUSH2 0x311F JUMP JUMPDEST SWAP2 PUSH2 0x167D PUSH2 0x3662 JUMP JUMPDEST DUP3 MLOAD SWAP2 DUP3 GT PUSH2 0x8F6 JUMPI PUSH2 0x1691 PUSH1 0xA SLOAD PUSH2 0x300D JUMP JUMPDEST PUSH1 0x1F DUP2 GT PUSH2 0x1757 JUMPI JUMPDEST POP DUP1 PUSH1 0x1F DUP4 GT PUSH1 0x1 EQ PUSH2 0x16D6 JUMPI POP DUP2 SWAP3 PUSH1 0x0 SWAP3 PUSH2 0x16CB JUMPI JUMPDEST POP POP PUSH1 0x0 NOT DUP3 PUSH1 0x1 SHL SWAP3 PUSH1 0x3 SHL SHR NOT AND OR PUSH1 0xA SSTORE PUSH1 0x0 DUP1 RETURN JUMPDEST ADD MLOAD SWAP1 POP DUP3 DUP1 PUSH2 0x16B2 JUMP JUMPDEST SWAP1 PUSH1 0x1F NOT DUP4 AND SWAP4 PUSH1 0xA PUSH1 0x0 MSTORE PUSH32 0xC65A7BB8D6351C1CF70C95A316CC6A92839C986682D98BC35F958F4883F9D2A8 SWAP3 PUSH1 0x0 SWAP1 JUMPDEST DUP7 DUP3 LT PUSH2 0x173F JUMPI POP POP DUP4 PUSH1 0x1 SWAP6 LT PUSH2 0x1726 JUMPI JUMPDEST POP POP POP DUP2 SHL ADD PUSH1 0xA SSTORE STOP JUMPDEST ADD MLOAD PUSH1 0x0 NOT PUSH1 0xF8 DUP5 PUSH1 0x3 SHL AND SHR NOT AND SWAP1 SSTORE DUP3 DUP1 DUP1 PUSH2 0x171B JUMP JUMPDEST DUP1 PUSH1 0x1 DUP6 SWAP7 DUP3 SWAP5 SWAP7 DUP7 ADD MLOAD DUP2 SSTORE ADD SWAP6 ADD SWAP4 ADD SWAP1 PUSH2 0x1708 JUMP JUMPDEST PUSH1 0xA PUSH1 0x0 MSTORE PUSH32 0xC65A7BB8D6351C1CF70C95A316CC6A92839C986682D98BC35F958F4883F9D2A8 PUSH1 0x1F DUP5 ADD PUSH1 0x5 SHR DUP2 ADD SWAP2 DUP4 DUP6 LT PUSH2 0x17B1 JUMPI JUMPDEST PUSH1 0x1F ADD PUSH1 0x5 SHR ADD SWAP1 JUMPDEST DUP2 DUP2 LT PUSH2 0x17A5 JUMPI POP PUSH2 0x169A JUMP JUMPDEST PUSH1 0x0 DUP2 SSTORE PUSH1 0x1 ADD PUSH2 0x1798 JUMP JUMPDEST SWAP1 SWAP2 POP DUP2 SWAP1 PUSH2 0x178F JUMP JUMPDEST CALLVALUE PUSH2 0xC54 JUMPI PUSH1 0x40 PUSH1 0x3 NOT CALLDATASIZE ADD SLT PUSH2 0xC54 JUMPI PUSH2 0x17D4 PUSH2 0x2FEA JUMP JUMPDEST PUSH1 0x4 CALLDATALOAD PUSH1 0x0 MSTORE PUSH1 0x8 PUSH1 0x20 MSTORE PUSH20 0xFFFFFFFFFFFFFFFFFFFFFFFFFFFFFFFFFFFFFFFF PUSH1 0x40 PUSH1 0x0 KECCAK256 SWAP2 AND PUSH1 0x0 MSTORE PUSH1 0x20 MSTORE PUSH1 0x20 PUSH1 0xFF PUSH1 0x40 PUSH1 0x0 KECCAK256 SLOAD AND PUSH1 0x40 MLOAD SWAP1 ISZERO ISZERO DUP2 MSTORE RETURN JUMPDEST CALLVALUE PUSH2 0xC54 JUMPI PUSH1 0x40 PUSH1 0x3 NOT CALLDATASIZE ADD SLT PUSH2 0xC54 JUMPI PUSH1 0x4 CALLDATALOAD PUSH1 0x0 MSTORE PUSH1 0x9 PUSH1 0x20 MSTORE PUSH1 0x20 PUSH20 0xFFFFFFFFFFFFFFFFFFFFFFFFFFFFFFFFFFFFFFFF PUSH2 0x1859 PUSH1 0x24 CALLDATALOAD PUSH1 0x40 PUSH1 0x0 KECCAK256 PUSH2 0x3C3C JUMP JUMPDEST SWAP2 SWAP1 SLOAD PUSH1 0x40 MLOAD SWAP3 PUSH1 0x3 SHL SHR AND DUP2 MSTORE RETURN JUMPDEST CALLVALUE PUSH2 0xC54 JUMPI PUSH1 0x0 PUSH1 0x3 NOT CALLDATASIZE ADD SLT PUSH2 0xC54 JUMPI PUSH1 0x20 PUSH1 0xFF PUSH1 0xB SLOAD PUSH1 0x8 SHR AND PUSH1 0x40 MLOAD SWAP1 ISZERO ISZERO DUP2 MSTORE RETURN JUMPDEST CALLVALUE PUSH2 0xC54 JUMPI PUSH1 0x20 DUP1 PUSH1 0x3 NOT CALLDATASIZE ADD SLT PUSH2 0xC54 JUMPI PUSH8 0xFFFFFFFFFFFFFFFF PUSH1 0x4 CALLDATALOAD DUP2 DUP2 GT PUSH2 0xC54 JUMPI PUSH2 0x18C2 SWAP1 CALLDATASIZE SWAP1 PUSH1 0x4 ADD PUSH2 0x311F JUMP JUMPDEST SWAP2 PUSH2 0x18CB PUSH2 0x3662 JUMP JUMPDEST DUP3 MLOAD SWAP2 DUP3 GT PUSH2 0x8F6 JUMPI PUSH2 0x18DF PUSH1 0x4 SLOAD PUSH2 0x300D JUMP JUMPDEST PUSH1 0x1F DUP2 GT PUSH2 0x19A5 JUMPI JUMPDEST POP DUP1 PUSH1 0x1F DUP4 GT PUSH1 0x1 EQ PUSH2 0x1924 JUMPI POP DUP2 SWAP3 PUSH1 0x0 SWAP3 PUSH2 0x1919 JUMPI JUMPDEST POP POP PUSH1 0x0 NOT DUP3 PUSH1 0x1 SHL SWAP3 PUSH1 0x3 SHL SHR NOT AND OR PUSH1 0x4 SSTORE PUSH1 0x0 DUP1 RETURN JUMPDEST ADD MLOAD SWAP1 POP DUP3 DUP1 PUSH2 0x1900 JUMP JUMPDEST SWAP1 PUSH1 0x1F NOT DUP4 AND SWAP4 PUSH1 0x4 PUSH1 0x0 MSTORE PUSH32 0x8A35ACFBC15FF81A39AE7D344FD709F28E8600B4AA8C65C6B64BFE7FE36BD19B SWAP3 PUSH1 0x0 SWAP1 JUMPDEST DUP7 DUP3 LT PUSH2 0x198D JUMPI POP POP DUP4 PUSH1 0x1 SWAP6 LT PUSH2 0x1974 JUMPI JUMPDEST POP POP POP DUP2 SHL ADD PUSH1 0x4 SSTORE STOP JUMPDEST ADD MLOAD PUSH1 0x0 NOT PUSH1 0xF8 DUP5 PUSH1 0x3 SHL AND SHR NOT AND SWAP1 SSTORE DUP3 DUP1 DUP1 PUSH2 0x1969 JUMP JUMPDEST DUP1 PUSH1 0x1 DUP6 SWAP7 DUP3 SWAP5 SWAP7 DUP7 ADD MLOAD DUP2 SSTORE ADD SWAP6 ADD SWAP4 ADD SWAP1 PUSH2 0x1956 JUMP JUMPDEST PUSH1 0x4 PUSH1 0x0 MSTORE PUSH32 0x8A35ACFBC15FF81A39AE7D344FD709F28E8600B4AA8C65C6B64BFE7FE36BD19B PUSH1 0x1F DUP5 ADD PUSH1 0x5 SHR DUP2 ADD SWAP2 DUP4 DUP6 LT PUSH2 0x19FF JUMPI JUMPDEST PUSH1 0x1F ADD PUSH1 0x5 SHR ADD SWAP1 JUMPDEST DUP2 DUP2 LT PUSH2 0x19F3 JUMPI POP PUSH2 0x18E8 JUMP JUMPDEST PUSH1 0x0 DUP2 SSTORE PUSH1 0x1 ADD PUSH2 0x19E6 JUMP JUMPDEST SWAP1 SWAP2 POP DUP2 SWAP1 PUSH2 0x19DD JUMP JUMPDEST CALLVALUE PUSH2 0xC54 JUMPI PUSH1 0x80 PUSH1 0x3 NOT CALLDATASIZE ADD SLT PUSH2 0xC54 JUMPI PUSH2 0x1A22 PUSH2 0x2FC7 JUMP JUMPDEST PUSH1 0x24 CALLDATALOAD PUSH1 0x44 CALLDATALOAD PUSH1 0x64 CALLDATALOAD PUSH8 0xFFFFFFFFFFFFFFFF DUP2 GT PUSH2 0xC54 JUMPI PUSH2 0x1A48 SWAP1 CALLDATASIZE SWAP1 PUSH1 0x4 ADD PUSH2 0x311F JUMP JUMPDEST SWAP3 PUSH2 0x1A51 PUSH2 0x37BA JUMP JUMPDEST PUSH2 0x1A5D DUP3 PUSH1 0x2 SLOAD PUSH2 0x3AC7 JUMP JUMPDEST PUSH1 0x2 SSTORE DUP3 PUSH1 0x0 MSTORE PUSH1 0x20 SWAP4 PUSH1 0x3 DUP6 MSTORE PUSH1 0x40 PUSH1 0x0 KECCAK256 PUSH2 0x1A7B DUP5 DUP3 SLOAD PUSH2 0x3AC7 JUMP JUMPDEST SWAP1 SSTORE PUSH20 0xFFFFFFFFFFFFFFFFFFFFFFFFFFFFFFFFFFFFFFFF DUP3 AND SWAP2 DUP3 PUSH1 0x0 MSTORE PUSH1 0x0 DUP7 MSTORE PUSH1 0x40 PUSH1 0x0 KECCAK256 DUP6 PUSH1 0x0 MSTORE DUP7 MSTORE PUSH1 0x40 PUSH1 0x0 KECCAK256 PUSH2 0x1AB8 DUP6 DUP3 SLOAD PUSH2 0x3AC7 JUMP JUMPDEST SWAP1 SSTORE DUP3 PUSH1 0x0 PUSH1 0x40 MLOAD DUP8 DUP2 MSTORE DUP7 DUP10 DUP3 ADD MSTORE PUSH32 0xC3D58168C5AE7397731D063D5BBF3D657854427343F4C083240F7AACAA2D0F62 PUSH1 0x40 CALLER SWAP3 LOG4 PUSH2 0x1AF8 GAS SWAP2 PUSH2 0x33AC JUMP JUMPDEST PUSH2 0x1AFE JUMPI STOP JUMPDEST PUSH2 0xDD3 SWAP4 PUSH1 0x0 DUP8 SWAP5 PUSH1 0x40 MLOAD DUP1 SWAP8 DUP2 SWAP7 DUP3 SWAP6 PUSH32 0xF23A6E6100000000000000000000000000000000000000000000000000000000 SWAP12 DUP13 DUP6 MSTORE CALLER PUSH1 0x4 DUP7 ADD MSTORE DUP7 PUSH1 0x24 DUP7 ADD MSTORE PUSH1 0x44 DUP6 ADD MSTORE PUSH1 0x64 DUP5 ADD MSTORE PUSH1 0xA0 PUSH1 0x84 DUP5 ADD MSTORE PUSH1 0xA4 DUP4 ADD SWAP1 PUSH2 0x30DE JUMP JUMPDEST CALLVALUE PUSH2 0xC54 JUMPI PUSH1 0x0 PUSH1 0x3 NOT CALLDATASIZE ADD SLT PUSH2 0xC54 JUMPI PUSH1 0x40 MLOAD PUSH1 0x0 PUSH1 0x4 SLOAD PUSH2 0x1B7D DUP2 PUSH2 0x300D JUMP JUMPDEST DUP1 DUP5 MSTORE SWAP1 PUSH1 0x1 SWAP1 DUP2 DUP2 AND SWAP1 DUP2 ISZERO PUSH2 0x114E JUMPI POP PUSH1 0x1 EQ PUSH2 0x1BA6 JUMPI PUSH2 0x10EF DUP5 PUSH2 0x10DB DUP2 DUP7 SUB DUP3 PUSH2 0x3098 JUMP JUMPDEST PUSH1 0x4 PUSH1 0x0 SWAP1 DUP2 MSTORE SWAP3 POP PUSH32 0x8A35ACFBC15FF81A39AE7D344FD709F28E8600B4AA8C65C6B64BFE7FE36BD19B JUMPDEST DUP3 DUP5 LT PUSH2 0x1BE9 JUMPI POP POP POP DUP2 ADD PUSH1 0x20 ADD PUSH2 0x10DB DUP3 PUSH2 0x10CB JUMP JUMPDEST DUP1 SLOAD PUSH1 0x20 DUP6 DUP8 ADD DUP2 ADD SWAP2 SWAP1 SWAP2 MSTORE SWAP1 SWAP4 ADD SWAP3 DUP2 ADD PUSH2 0x1BD1 JUMP JUMPDEST CALLVALUE PUSH2 0xC54 JUMPI PUSH1 0x0 PUSH1 0x3 NOT CALLDATASIZE ADD SLT PUSH2 0xC54 JUMPI PUSH1 0x20 PUSH1 0x40 MLOAD PUSH32 0x915327D54F2C758AD33C35B031B5E89868657EA971CDA2B8103C502DC672509C DUP2 MSTORE RETURN JUMPDEST CALLVALUE PUSH2 0xC54 JUMPI PUSH1 0x60 PUSH1 0x3 NOT CALLDATASIZE ADD SLT PUSH2 0xC54 JUMPI PUSH2 0x1C55 PUSH2 0x2FEA JUMP JUMPDEST PUSH1 0x44 CALLDATALOAD PUSH12 0xFFFFFFFFFFFFFFFFFFFFFFFF DUP2 AND DUP1 SWAP2 SUB PUSH2 0xC54 JUMPI PUSH2 0x1C76 PUSH2 0x33E2 JUMP JUMPDEST PUSH2 0x1C84 PUSH2 0x2710 DUP3 GT ISZERO PUSH2 0x3E5A JUMP JUMPDEST PUSH20 0xFFFFFFFFFFFFFFFFFFFFFFFFFFFFFFFFFFFFFFFF DUP1 SWAP3 AND SWAP2 DUP3 ISZERO PUSH2 0x1CFC JUMPI PUSH32 0xFFFFFFFFFFFFFFFFFFFFFFFF0000000000000000000000000000000000000000 SWAP1 PUSH1 0x40 MLOAD SWAP4 PUSH2 0x1CD2 DUP6 PUSH2 0x3060 JUMP JUMPDEST DUP5 MSTORE PUSH1 0x20 DUP5 ADD SWAP3 DUP4 MSTORE PUSH1 0x4 CALLDATALOAD PUSH1 0x0 MSTORE PUSH1 0x7 PUSH1 0x20 MSTORE PUSH1 0x40 PUSH1 0x0 KECCAK256 SWAP4 MLOAD AND SWAP2 MLOAD PUSH1 0xA0 SHL AND OR SWAP1 SSTORE PUSH1 0x0 DUP1 RETURN JUMPDEST PUSH1 0x64 PUSH1 0x40 MLOAD PUSH32 0x8C379A000000000000000000000000000000000000000000000000000000000 DUP2 MSTORE PUSH1 0x20 PUSH1 0x4 DUP3 ADD MSTORE PUSH1 0x1B PUSH1 0x24 DUP3 ADD MSTORE PUSH32 0x455243323938313A20496E76616C696420706172616D65746572730000000000 PUSH1 0x44 DUP3 ADD MSTORE REVERT JUMPDEST CALLVALUE PUSH2 0xC54 JUMPI PUSH1 0x40 PUSH1 0x3 NOT CALLDATASIZE ADD SLT PUSH2 0xC54 JUMPI PUSH1 0x4 CALLDATALOAD PUSH8 0xFFFFFFFFFFFFFFFF DUP1 DUP3 GT PUSH2 0xC54 JUMPI CALLDATASIZE PUSH1 0x23 DUP4 ADD SLT ISZERO PUSH2 0xC54 JUMPI DUP2 PUSH1 0x4 ADD CALLDATALOAD SWAP1 PUSH2 0x1D98 DUP3 PUSH2 0x3166 JUMP JUMPDEST SWAP3 PUSH2 0x1DA6 PUSH1 0x40 MLOAD SWAP5 DUP6 PUSH2 0x3098 JUMP JUMPDEST DUP3 DUP5 MSTORE PUSH1 0x20 SWAP3 PUSH1 0x24 DUP5 DUP7 ADD SWAP2 PUSH1 0x5 SHL DUP4 ADD ADD SWAP2 CALLDATASIZE DUP4 GT PUSH2 0xC54 JUMPI PUSH1 0x24 ADD SWAP1 JUMPDEST DUP3 DUP3 LT PUSH2 0x1F1D JUMPI POP POP POP PUSH1 0x24 CALLDATALOAD SWAP1 DUP2 GT PUSH2 0xC54 JUMPI PUSH2 0x1DE7 SWAP1 CALLDATASIZE SWAP1 PUSH1 0x4 ADD PUSH2 0x317E JUMP JUMPDEST DUP3 MLOAD DUP2 MLOAD SUB PUSH2 0x1E99 JUMPI DUP3 MLOAD SWAP1 PUSH1 0x1F NOT PUSH2 0x1E18 PUSH2 0x1E02 DUP5 PUSH2 0x3166 JUMP JUMPDEST SWAP4 PUSH2 0x1E10 PUSH1 0x40 MLOAD SWAP6 DUP7 PUSH2 0x3098 JUMP JUMPDEST DUP1 DUP6 MSTORE PUSH2 0x3166 JUMP JUMPDEST ADD CALLDATASIZE DUP5 DUP5 ADD CALLDATACOPY PUSH1 0x0 JUMPDEST DUP5 MLOAD DUP2 LT ISZERO PUSH2 0x1E86 JUMPI DUP1 PUSH20 0xFFFFFFFFFFFFFFFFFFFFFFFFFFFFFFFFFFFFFFFF PUSH2 0x1E4D PUSH2 0x1E81 SWAP4 DUP9 PUSH2 0x326D JUMP JUMPDEST MLOAD AND PUSH1 0x0 MSTORE PUSH1 0x0 DUP6 MSTORE PUSH1 0x40 PUSH1 0x0 KECCAK256 PUSH2 0x1E65 DUP3 DUP6 PUSH2 0x326D JUMP JUMPDEST MLOAD PUSH1 0x0 MSTORE DUP6 MSTORE PUSH1 0x40 PUSH1 0x0 KECCAK256 SLOAD PUSH2 0x1E7B DUP3 DUP7 PUSH2 0x326D JUMP JUMPDEST MSTORE PUSH2 0x325E JUMP JUMPDEST PUSH2 0x1E21 JUMP JUMPDEST PUSH1 0x40 MLOAD DUP5 DUP2 MSTORE DUP1 PUSH2 0x10EF DUP2 DUP8 ADD DUP7 PUSH2 0x31F2 JUMP JUMPDEST PUSH1 0x84 DUP3 PUSH1 0x40 MLOAD SWAP1 PUSH32 0x8C379A000000000000000000000000000000000000000000000000000000000 DUP3 MSTORE PUSH1 0x4 DUP3 ADD MSTORE PUSH1 0x2C PUSH1 0x24 DUP3 ADD MSTORE PUSH32 0x455243313135352362616C616E63654F6642617463683A20494E56414C49445F PUSH1 0x44 DUP3 ADD MSTORE PUSH32 0x41525241595F4C454E4754480000000000000000000000000000000000000000 PUSH1 0x64 DUP3 ADD MSTORE REVERT JUMPDEST DUP2 CALLDATALOAD PUSH20 0xFFFFFFFFFFFFFFFFFFFFFFFFFFFFFFFFFFFFFFFF DUP2 AND DUP2 SUB PUSH2 0xC54 JUMPI DUP2 MSTORE SWAP1 DUP5 ADD SWAP1 DUP5 ADD PUSH2 0x1DC5 JUMP JUMPDEST CALLVALUE PUSH2 0xC54 JUMPI PUSH1 0x40 PUSH1 0x3 NOT CALLDATASIZE ADD SLT PUSH2 0xC54 JUMPI PUSH2 0x1F62 PUSH2 0x2FEA JUMP JUMPDEST CALLER PUSH20 0xFFFFFFFFFFFFFFFFFFFFFFFFFFFFFFFFFFFFFFFF DUP3 AND SUB PUSH2 0x1F8B JUMPI PUSH2 0x11B4 SWAP1 PUSH1 0x4 CALLDATALOAD PUSH2 0x3A30 JUMP JUMPDEST PUSH1 0x84 PUSH1 0x40 MLOAD PUSH32 0x8C379A000000000000000000000000000000000000000000000000000000000 DUP2 MSTORE PUSH1 0x20 PUSH1 0x4 DUP3 ADD MSTORE PUSH1 0x2F PUSH1 0x24 DUP3 ADD MSTORE PUSH32 0x416363657373436F6E74726F6C3A2063616E206F6E6C792072656E6F756E6365 PUSH1 0x44 DUP3 ADD MSTORE PUSH32 0x20726F6C657320666F722073656C660000000000000000000000000000000000 PUSH1 0x64 DUP3 ADD MSTORE REVERT JUMPDEST CALLVALUE PUSH2 0xC54 JUMPI PUSH1 0x20 DUP1 PUSH1 0x3 NOT CALLDATASIZE ADD SLT PUSH2 0xC54 JUMPI PUSH1 0x4 CALLDATALOAD SWAP1 DUP2 ISZERO ISZERO DUP1 SWAP3 SUB PUSH2 0xC54 JUMPI PUSH32 0x915327D54F2C758AD33C35B031B5E89868657EA971CDA2B8103C502DC672509C SWAP1 DUP2 PUSH1 0x0 MSTORE PUSH1 0x8 DUP2 MSTORE PUSH1 0x40 PUSH1 0x0 KECCAK256 CALLER PUSH1 0x0 MSTORE DUP2 MSTORE PUSH1 0xFF PUSH1 0x40 PUSH1 0x0 KECCAK256 SLOAD AND ISZERO PUSH2 0x20A6 JUMPI PUSH1 0xB DUP1 SLOAD PUSH32 0xFFFFFFFFFFFFFFFFFFFFFFFFFFFFFFFFFFFFFFFFFFFFFFFFFFFFFFFFFFFF00FF AND PUSH1 0x8 DUP6 SWAP1 SHL PUSH2 0xFF00 AND OR SWAP1 SSTORE STOP JUMPDEST PUSH2 0x20AF CALLER PUSH2 0x3AD4 JUMP JUMPDEST SWAP2 PUSH1 0x40 MLOAD PUSH2 0x20BC DUP2 PUSH2 0x307C JUMP JUMPDEST PUSH1 0x42 DUP2 MSTORE DUP3 DUP2 ADD SWAP2 PUSH1 0x60 CALLDATASIZE DUP5 CALLDATACOPY DUP2 MLOAD ISZERO PUSH2 0x22A1 JUMPI PUSH1 0x30 DUP4 MSTORE8 DUP2 MLOAD PUSH1 0x1 SWAP1 DUP2 LT ISZERO PUSH2 0x22A1 JUMPI PUSH1 0x78 PUSH1 0x21 DUP5 ADD MSTORE8 PUSH1 0x41 SWAP1 JUMPDEST DUP1 DUP3 GT PUSH2 0x2221 JUMPI POP POP PUSH2 0x21C4 JUMPI PUSH2 0x2176 SWAP4 PUSH2 0x2185 SWAP3 PUSH1 0x48 SWAP3 PUSH1 0x40 MLOAD SWAP7 DUP8 SWAP4 PUSH32 0x416363657373436F6E74726F6C3A206163636F756E7420000000000000000000 DUP9 DUP7 ADD MSTORE PUSH2 0x2141 DUP2 MLOAD DUP1 SWAP3 DUP11 PUSH1 0x37 DUP10 ADD SWAP2 ADD PUSH2 0x30BB JUMP JUMPDEST DUP5 ADD SWAP2 PUSH32 0x206973206D697373696E6720726F6C6520000000000000000000000000000000 PUSH1 0x37 DUP5 ADD MSTORE MLOAD DUP1 SWAP4 DUP7 DUP5 ADD SWAP1 PUSH2 0x30BB JUMP JUMPDEST ADD SUB PUSH1 0x28 DUP2 ADD DUP6 MSTORE ADD DUP4 PUSH2 0x3098 JUMP JUMPDEST PUSH2 0x21C0 PUSH1 0x40 MLOAD SWAP3 DUP4 SWAP3 PUSH32 0x8C379A000000000000000000000000000000000000000000000000000000000 DUP5 MSTORE PUSH1 0x4 DUP5 ADD MSTORE PUSH1 0x24 DUP4 ADD SWAP1 PUSH2 0x30DE JUMP JUMPDEST SUB SWAP1 REVERT JUMPDEST PUSH1 0x64 DUP4 PUSH1 0x40 MLOAD SWAP1 PUSH32 0x8C379A000000000000000000000000000000000000000000000000000000000 DUP3 MSTORE DUP1 PUSH1 0x4 DUP4 ADD MSTORE PUSH1 0x24 DUP3 ADD MSTORE PUSH32 0x537472696E67733A20686578206C656E67746820696E73756666696369656E74 PUSH1 0x44 DUP3 ADD MSTORE REVERT JUMPDEST SWAP1 SWAP2 PUSH1 0xF DUP2 AND PUSH1 0x10 DUP2 LT ISZERO PUSH2 0x22A1 JUMPI PUSH32 0x3031323334353637383961626364656600000000000000000000000000000000 SWAP1 BYTE PUSH2 0x225D DUP5 DUP7 PUSH2 0x328E JUMP JUMPDEST MSTORE8 PUSH1 0x4 SHR SWAP2 DUP1 ISZERO PUSH2 0x2272 JUMPI PUSH1 0x0 NOT ADD SWAP1 PUSH2 0x20EB JUMP JUMPDEST PUSH32 0x4E487B7100000000000000000000000000000000000000000000000000000000 PUSH1 0x0 MSTORE PUSH1 0x11 PUSH1 0x4 MSTORE PUSH1 0x24 PUSH1 0x0 REVERT JUMPDEST PUSH32 0x4E487B7100000000000000000000000000000000000000000000000000000000 PUSH1 0x0 MSTORE PUSH1 0x32 PUSH1 0x4 MSTORE PUSH1 0x24 PUSH1 0x0 REVERT JUMPDEST CALLVALUE PUSH2 0xC54 JUMPI PUSH1 0x40 PUSH1 0x3 NOT CALLDATASIZE ADD SLT PUSH2 0xC54 JUMPI PUSH2 0x11B4 PUSH1 0x4 CALLDATALOAD PUSH1 0x9 PUSH2 0x22F1 PUSH2 0x2FEA JUMP JUMPDEST SWAP2 DUP1 PUSH1 0x0 MSTORE PUSH1 0x20 SWAP1 PUSH1 0x8 DUP3 MSTORE PUSH2 0x230E PUSH1 0x1 PUSH1 0x40 PUSH1 0x0 KECCAK256 ADD SLOAD PUSH2 0x3912 JUMP JUMPDEST DUP1 PUSH1 0x0 MSTORE PUSH1 0x8 DUP3 MSTORE PUSH20 0xFFFFFFFFFFFFFFFFFFFFFFFFFFFFFFFFFFFFFFFF PUSH1 0x40 PUSH1 0x0 KECCAK256 SWAP5 AND SWAP4 DUP5 PUSH1 0x0 MSTORE DUP3 MSTORE PUSH1 0xFF PUSH1 0x40 PUSH1 0x0 KECCAK256 SLOAD AND ISZERO PUSH2 0x2356 JUMPI JUMPDEST PUSH1 0x0 MSTORE MSTORE PUSH1 0x40 PUSH1 0x0 KECCAK256 PUSH2 0x3C54 JUMP JUMPDEST DUP1 PUSH1 0x0 MSTORE PUSH1 0x8 DUP3 MSTORE PUSH1 0x40 PUSH1 0x0 KECCAK256 DUP5 PUSH1 0x0 MSTORE DUP3 MSTORE PUSH1 0x40 PUSH1 0x0 KECCAK256 PUSH1 0x1 PUSH1 0xFF NOT DUP3 SLOAD AND OR SWAP1 SSTORE CALLER DUP5 DUP3 PUSH32 0x2F8788117E7EFF1D82E926EC794901D17C78024A50270940304540A733656F0D PUSH1 0x0 DUP1 LOG4 PUSH2 0x2348 JUMP JUMPDEST CALLVALUE PUSH2 0xC54 JUMPI PUSH1 0xA0 PUSH1 0x3 NOT CALLDATASIZE ADD SLT PUSH2 0xC54 JUMPI PUSH2 0x23BF PUSH2 0x2FC7 JUMP JUMPDEST PUSH2 0x23C7 PUSH2 0x2FEA JUMP JUMPDEST SWAP1 PUSH1 0x44 SWAP1 PUSH8 0xFFFFFFFFFFFFFFFF SWAP1 DUP3 CALLDATALOAD DUP3 DUP2 GT PUSH2 0xC54 JUMPI PUSH2 0x23EC SWAP1 CALLDATASIZE SWAP1 PUSH1 0x4 ADD PUSH2 0x317E JUMP JUMPDEST PUSH1 0x64 SWAP5 DUP6 CALLDATALOAD DUP5 DUP2 GT PUSH2 0xC54 JUMPI PUSH2 0x2406 SWAP1 CALLDATASIZE SWAP1 PUSH1 0x4 ADD PUSH2 0x317E JUMP JUMPDEST SWAP4 PUSH1 0x84 CALLDATALOAD SWAP1 DUP2 GT PUSH2 0xC54 JUMPI PUSH2 0x241F SWAP1 CALLDATASIZE SWAP1 PUSH1 0x4 ADD PUSH2 0x311F JUMP JUMPDEST PUSH20 0xFFFFFFFFFFFFFFFFFFFFFFFFFFFFFFFFFFFFFFFF SWAP1 DUP2 DUP6 AND CALLER EQ DUP1 ISZERO PUSH2 0x2862 JUMPI JUMPDEST ISZERO PUSH2 0x27DF JUMPI DUP2 DUP4 AND ISZERO PUSH2 0x275C JUMPI PUSH1 0xFF PUSH1 0xB SLOAD PUSH1 0x8 SHR AND DUP1 PUSH2 0x2751 JUMPI JUMPDEST PUSH2 0xECC JUMPI DUP4 MLOAD DUP7 MLOAD SUB PUSH2 0x26CE JUMPI DUP4 MLOAD PUSH1 0x0 JUMPDEST DUP2 DUP2 LT PUSH2 0x2644 JUMPI POP POP PUSH1 0x40 MLOAD DUP3 DUP5 AND SWAP1 DUP4 DUP8 AND SWAP1 PUSH32 0x4A39DC06D4C0DBC64B70AF90FD698A233A518AA5D07E595D983B8C0526C8F7FB CALLER SWAP2 DUP1 PUSH2 0x24B2 DUP13 DUP12 DUP4 PUSH2 0x3E32 JUMP JUMPDEST SUB SWAP1 LOG4 GAS SWAP5 PUSH2 0x24C0 DUP5 PUSH2 0x33AC JUMP JUMPDEST PUSH2 0x24C6 JUMPI STOP JUMPDEST DUP3 SWAP2 PUSH1 0x40 MLOAD SWAP8 DUP9 SWAP7 DUP8 SWAP6 DUP7 SWAP5 PUSH32 0xBC197C8100000000000000000000000000000000000000000000000000000000 DUP7 MSTORE CALLER PUSH1 0x4 DUP8 ADD MSTORE AND PUSH1 0x24 DUP6 ADD MSTORE DUP11 DUP5 ADD PUSH1 0xA0 SWAP1 MSTORE PUSH1 0xA4 DUP5 ADD PUSH2 0x2515 SWAP2 PUSH2 0x31F2 JUMP JUMPDEST DUP4 DUP2 SUB PUSH1 0x3 NOT ADD DUP13 DUP6 ADD MSTORE PUSH2 0x2529 SWAP2 PUSH2 0x31F2 JUMP JUMPDEST DUP3 DUP2 SUB PUSH1 0x3 NOT ADD PUSH1 0x84 DUP5 ADD MSTORE PUSH2 0x253E SWAP2 PUSH2 0x30DE JUMP JUMPDEST SUB SWAP3 AND PUSH1 0x0 SWAP1 PUSH1 0x20 SWAP6 CALL SWAP1 DUP2 ISZERO PUSH2 0xEC0 JUMPI PUSH32 0xBC197C8100000000000000000000000000000000000000000000000000000000 SWAP2 PUSH32 0xFFFFFFFF00000000000000000000000000000000000000000000000000000000 SWAP2 PUSH1 0x0 SWAP2 PUSH2 0x2626 JUMPI JUMPDEST POP AND SUB PUSH2 0x25A4 JUMPI STOP JUMPDEST PUSH32 0x7665643A20494E56414C49445F4F4E5F524543454956455F4D45535341474500 PUSH1 0x84 SWAP3 PUSH32 0x45524331313535235F63616C6C6F6E4552433131353542617463685265636569 PUSH1 0x40 MLOAD SWAP4 PUSH32 0x8C379A000000000000000000000000000000000000000000000000000000000 DUP6 MSTORE PUSH1 0x20 PUSH1 0x4 DUP7 ADD MSTORE PUSH1 0x3F PUSH1 0x24 DUP7 ADD MSTORE DUP5 ADD MSTORE DUP3 ADD MSTORE REVERT JUMPDEST PUSH2 0x263E SWAP2 POP PUSH1 0x20 RETURNDATASIZE DUP2 GT PUSH2 0xEB9 JUMPI PUSH2 0xEAB DUP2 DUP4 PUSH2 0x3098 JUMP JUMPDEST DUP6 PUSH2 0x259B JUMP JUMPDEST DUP1 PUSH2 0x2652 PUSH2 0x26C9 SWAP3 DUP11 PUSH2 0x326D JUMP JUMPDEST MLOAD DUP6 DUP10 AND PUSH1 0x0 MSTORE PUSH1 0x20 SWAP1 PUSH1 0x0 DUP3 MSTORE PUSH1 0x40 PUSH1 0x0 KECCAK256 PUSH2 0x266F DUP5 DUP12 PUSH2 0x326D JUMP JUMPDEST MLOAD PUSH1 0x0 MSTORE DUP3 MSTORE PUSH2 0x2685 PUSH1 0x40 PUSH1 0x0 KECCAK256 SWAP2 DUP3 SLOAD PUSH2 0x3281 JUMP JUMPDEST SWAP1 SSTORE PUSH2 0x2691 DUP3 DUP12 PUSH2 0x326D JUMP JUMPDEST MLOAD SWAP1 DUP7 DUP9 AND PUSH1 0x0 MSTORE PUSH1 0x0 DUP2 MSTORE PUSH1 0x40 PUSH1 0x0 KECCAK256 SWAP1 PUSH2 0x26AD DUP5 DUP12 PUSH2 0x326D JUMP JUMPDEST MLOAD PUSH1 0x0 MSTORE MSTORE PUSH2 0x26C2 PUSH1 0x40 PUSH1 0x0 KECCAK256 SWAP2 DUP3 SLOAD PUSH2 0x3AC7 JUMP JUMPDEST SWAP1 SSTORE PUSH2 0x325E JUMP JUMPDEST PUSH2 0x246F JUMP JUMPDEST PUSH1 0x84 DUP8 PUSH32 0x494E56414C49445F4152524159535F4C454E4754480000000000000000000000 DUP11 PUSH32 0x45524331313535235F7361666542617463685472616E7366657246726F6D3A20 PUSH1 0x40 MLOAD SWAP4 PUSH32 0x8C379A000000000000000000000000000000000000000000000000000000000 DUP6 MSTORE PUSH1 0x20 PUSH1 0x4 DUP7 ADD MSTORE PUSH1 0x35 PUSH1 0x24 DUP7 ADD MSTORE DUP5 ADD MSTORE DUP3 ADD MSTORE REVERT JUMPDEST POP DUP2 DUP6 AND ISZERO ISZERO PUSH2 0x245D JUMP JUMPDEST PUSH1 0x84 DUP8 PUSH32 0x4E56414C49445F524543495049454E5400000000000000000000000000000000 DUP11 PUSH32 0x45524331313535237361666542617463685472616E7366657246726F6D3A2049 PUSH1 0x40 MLOAD SWAP4 PUSH32 0x8C379A000000000000000000000000000000000000000000000000000000000 DUP6 MSTORE PUSH1 0x20 PUSH1 0x4 DUP7 ADD MSTORE PUSH1 0x30 PUSH1 0x24 DUP7 ADD MSTORE DUP5 ADD MSTORE DUP3 ADD MSTORE REVERT JUMPDEST PUSH1 0x84 DUP8 PUSH32 0x4E56414C49445F4F50455241544F520000000000000000000000000000000000 DUP11 PUSH32 0x45524331313535237361666542617463685472616E7366657246726F6D3A2049 PUSH1 0x40 MLOAD SWAP4 PUSH32 0x8C379A000000000000000000000000000000000000000000000000000000000 DUP6 MSTORE PUSH1 0x20 PUSH1 0x4 DUP7 ADD MSTORE PUSH1 0x2F PUSH1 0x24 DUP7 ADD MSTORE DUP5 ADD MSTORE DUP3 ADD MSTORE REVERT JUMPDEST POP DUP2 DUP6 AND PUSH1 0x0 MSTORE PUSH1 0x1 PUSH1 0x20 MSTORE PUSH1 0x40 PUSH1 0x0 KECCAK256 CALLER PUSH1 0x0 MSTORE PUSH1 0x20 MSTORE PUSH1 0xFF PUSH1 0x40 PUSH1 0x0 KECCAK256 SLOAD AND PUSH2 0x2441 JUMP JUMPDEST CALLVALUE PUSH2 0xC54 JUMPI PUSH2 0x2896 CALLDATASIZE PUSH2 0x31DC JUMP JUMPDEST SWAP1 PUSH1 0x0 MSTORE PUSH1 0x7 PUSH1 0x20 MSTORE PUSH1 0x40 PUSH1 0x0 KECCAK256 SWAP1 PUSH1 0x40 MLOAD SWAP2 PUSH2 0x28B2 DUP4 PUSH2 0x3060 JUMP JUMPDEST SLOAD PUSH20 0xFFFFFFFFFFFFFFFFFFFFFFFFFFFFFFFFFFFFFFFF SWAP3 DUP4 DUP3 AND SWAP2 DUP3 DUP3 MSTORE PUSH1 0xA0 SHR PUSH1 0x20 DUP3 ADD MSTORE SWAP1 ISZERO PUSH2 0x291A JUMPI JUMPDEST PUSH12 0xFFFFFFFFFFFFFFFFFFFFFFFF PUSH1 0x20 DUP3 ADD MLOAD AND SWAP2 DUP3 DUP2 MUL SWAP3 DUP2 DUP5 DIV EQ SWAP1 ISZERO OR ISZERO PUSH2 0x2272 JUMPI PUSH1 0x40 SWAP3 PUSH2 0x2710 SWAP2 MLOAD AND SWAP2 DUP4 MLOAD SWAP3 DUP4 MSTORE DIV PUSH1 0x20 DUP3 ADD MSTORE RETURN JUMPDEST POP PUSH1 0x40 MLOAD PUSH2 0x2927 DUP2 PUSH2 0x3060 JUMP JUMPDEST PUSH1 0x6 SLOAD DUP4 DUP2 AND DUP3 MSTORE PUSH1 0xA0 SHR PUSH1 0x20 DUP3 ADD MSTORE PUSH2 0x28DF JUMP JUMPDEST CALLVALUE PUSH2 0xC54 JUMPI PUSH1 0x20 PUSH1 0x3 NOT CALLDATASIZE ADD SLT PUSH2 0xC54 JUMPI PUSH1 0x4 CALLDATALOAD PUSH1 0x0 MSTORE PUSH1 0x3 PUSH1 0x20 MSTORE PUSH1 0x20 PUSH1 0x40 PUSH1 0x0 KECCAK256 SLOAD PUSH1 0x40 MLOAD SWAP1 DUP2 MSTORE RETURN JUMPDEST CALLVALUE PUSH2 0xC54 JUMPI PUSH1 0x20 PUSH1 0x3 NOT CALLDATASIZE ADD SLT PUSH2 0xC54 JUMPI PUSH1 0x4 CALLDATALOAD PUSH1 0x0 MSTORE PUSH1 0x8 PUSH1 0x20 MSTORE PUSH1 0x20 PUSH1 0x1 PUSH1 0x40 PUSH1 0x0 KECCAK256 ADD SLOAD PUSH1 0x40 MLOAD SWAP1 DUP2 MSTORE RETURN JUMPDEST CALLVALUE PUSH2 0xC54 JUMPI PUSH1 0x40 PUSH1 0x3 NOT CALLDATASIZE ADD SLT PUSH2 0xC54 JUMPI PUSH8 0xFFFFFFFFFFFFFFFF PUSH1 0x4 CALLDATALOAD DUP2 DUP2 GT PUSH2 0xC54 JUMPI PUSH2 0x29C9 SWAP1 CALLDATASIZE SWAP1 PUSH1 0x4 ADD PUSH2 0x317E JUMP JUMPDEST SWAP1 PUSH1 0x24 CALLDATALOAD SWAP1 DUP2 GT PUSH2 0xC54 JUMPI PUSH2 0x29E2 SWAP1 CALLDATASIZE SWAP1 PUSH1 0x4 ADD PUSH2 0x317E JUMP JUMPDEST PUSH1 0xFF PUSH1 0xB SLOAD PUSH1 0x8 SHR AND PUSH2 0xECC JUMPI DUP2 MLOAD SWAP2 DUP2 MLOAD DUP4 SUB PUSH2 0x14CA JUMPI PUSH1 0x0 SWAP3 PUSH1 0x0 SWAP1 JUMPDEST DUP1 DUP3 LT PUSH2 0x2A52 JUMPI POP POP PUSH2 0x2A18 PUSH1 0x0 SWAP4 PUSH1 0x2 SLOAD PUSH2 0x3281 JUMP JUMPDEST PUSH1 0x2 SSTORE PUSH32 0x4A39DC06D4C0DBC64B70AF90FD698A233A518AA5D07E595D983B8C0526C8F7FB PUSH1 0x40 MLOAD DUP1 PUSH2 0x2A4D CALLER SWAP6 CALLER SWAP6 DUP4 PUSH2 0x3E32 JUMP JUMPDEST SUB SWAP1 LOG4 STOP JUMPDEST SWAP1 SWAP4 PUSH2 0x2AD1 PUSH2 0x2AD7 SWAP2 PUSH2 0x2A65 DUP8 DUP8 PUSH2 0x326D JUMP JUMPDEST MLOAD CALLER PUSH1 0x0 MSTORE PUSH1 0x20 SWAP1 PUSH1 0x0 DUP3 MSTORE PUSH1 0x40 PUSH1 0x0 KECCAK256 PUSH2 0x2A80 DUP11 DUP10 PUSH2 0x326D JUMP JUMPDEST MLOAD PUSH1 0x0 MSTORE DUP3 MSTORE PUSH2 0x2A96 PUSH1 0x40 PUSH1 0x0 KECCAK256 SWAP2 DUP3 SLOAD PUSH2 0x3281 JUMP JUMPDEST SWAP1 SSTORE PUSH1 0x3 PUSH2 0x2AA4 DUP10 DUP10 PUSH2 0x326D JUMP JUMPDEST MLOAD SWAP2 PUSH2 0x2AB0 DUP11 DUP10 PUSH2 0x326D JUMP JUMPDEST MLOAD PUSH1 0x0 MSTORE MSTORE PUSH2 0x2AC5 PUSH1 0x40 PUSH1 0x0 KECCAK256 SWAP2 DUP3 SLOAD PUSH2 0x3281 JUMP JUMPDEST SWAP1 SSTORE PUSH2 0x14B6 DUP8 DUP8 PUSH2 0x326D JUMP JUMPDEST SWAP5 PUSH2 0x325E JUMP JUMPDEST SWAP1 PUSH2 0x2A01 JUMP JUMPDEST CALLVALUE PUSH2 0xC54 JUMPI PUSH1 0x0 PUSH1 0x3 NOT CALLDATASIZE ADD SLT PUSH2 0xC54 JUMPI PUSH1 0x20 PUSH1 0x2 SLOAD PUSH1 0x40 MLOAD SWAP1 DUP2 MSTORE RETURN JUMPDEST CALLVALUE PUSH2 0xC54 JUMPI PUSH1 0x20 DUP1 PUSH1 0x3 NOT CALLDATASIZE ADD SLT PUSH2 0xC54 JUMPI PUSH2 0x2B18 PUSH1 0x4 CALLDATALOAD PUSH2 0x329F JUMP JUMPDEST SWAP1 PUSH1 0x40 MLOAD SWAP2 DUP3 DUP3 PUSH1 0x0 PUSH1 0x4 SLOAD PUSH2 0x2B2D DUP2 PUSH2 0x300D JUMP JUMPDEST SWAP1 PUSH1 0x1 SWAP1 DUP2 DUP2 AND SWAP1 DUP2 ISZERO PUSH2 0x2C26 JUMPI POP PUSH1 0x1 EQ PUSH2 0x2BC3 JUMPI JUMPDEST POP POP SWAP1 DUP2 PUSH2 0x2B5E DUP6 PUSH1 0x5 SWAP6 SWAP5 PUSH2 0x2BAF SWAP8 MLOAD SWAP5 DUP6 SWAP3 ADD PUSH2 0x30BB JUMP JUMPDEST ADD PUSH32 0x2E6A736F6E000000000000000000000000000000000000000000000000000000 DUP2 MSTORE SUB PUSH32 0xFFFFFFFFFFFFFFFFFFFFFFFFFFFFFFFFFFFFFFFFFFFFFFFFFFFFFFFFFFFFFFE5 DUP2 ADD DUP6 MSTORE ADD DUP4 PUSH2 0x3098 JUMP JUMPDEST PUSH2 0x10EF PUSH1 0x40 MLOAD SWAP3 DUP3 DUP5 SWAP4 DUP5 MSTORE DUP4 ADD SWAP1 PUSH2 0x30DE JUMP JUMPDEST PUSH1 0x4 PUSH1 0x0 SWAP1 DUP2 MSTORE SWAP5 SWAP6 SWAP4 SWAP5 SWAP2 SWAP3 POP PUSH32 0x8A35ACFBC15FF81A39AE7D344FD709F28E8600B4AA8C65C6B64BFE7FE36BD19B JUMPDEST DUP4 DUP4 LT PUSH2 0x2C0E JUMPI POP SWAP3 SWAP5 SWAP4 SWAP3 POP POP DUP3 ADD DUP2 ADD DUP4 PUSH2 0x2B5E PUSH2 0x2B44 JUMP JUMPDEST DUP1 SLOAD DUP4 DUP11 ADD DUP8 ADD MSTORE DUP9 SWAP7 POP DUP8 SWAP6 SWAP1 SWAP3 ADD SWAP2 DUP2 ADD PUSH2 0x2BF3 JUMP JUMPDEST PUSH1 0xFF NOT AND DUP7 DUP7 ADD MSTORE POP POP DUP1 ISZERO ISZERO MUL DUP4 ADD DUP3 ADD SWAP1 POP DUP4 PUSH2 0x2B5E PUSH2 0x2B44 JUMP JUMPDEST CALLVALUE PUSH2 0xC54 JUMPI PUSH1 0x20 DUP1 PUSH1 0x3 NOT CALLDATASIZE ADD SLT PUSH2 0xC54 JUMPI PUSH8 0xFFFFFFFFFFFFFFFF SWAP1 PUSH1 0x4 CALLDATALOAD DUP3 DUP2 GT PUSH2 0xC54 JUMPI PUSH2 0x2C77 SWAP1 CALLDATASIZE SWAP1 PUSH1 0x4 ADD PUSH2 0x311F JUMP JUMPDEST SWAP2 PUSH2 0x2C80 PUSH2 0x3662 JUMP JUMPDEST DUP3 MLOAD SWAP1 DUP2 GT PUSH2 0x8F6 JUMPI PUSH1 0x5 SWAP2 PUSH2 0x2C96 DUP4 SLOAD PUSH2 0x300D JUMP JUMPDEST PUSH1 0x1F DUP2 GT PUSH2 0x2D5B JUMPI JUMPDEST POP DUP1 PUSH1 0x1F DUP4 GT PUSH1 0x1 EQ PUSH2 0x2CDB JUMPI POP DUP2 SWAP3 SWAP4 PUSH1 0x0 SWAP3 PUSH2 0x2CD0 JUMPI JUMPDEST POP POP PUSH1 0x0 NOT DUP3 PUSH1 0x1 SHL SWAP3 PUSH1 0x3 SHL SHR NOT AND OR SWAP1 SSTORE PUSH1 0x0 DUP1 RETURN JUMPDEST ADD MLOAD SWAP1 POP DUP4 DUP1 PUSH2 0x2CB8 JUMP JUMPDEST SWAP1 PUSH1 0x1F NOT DUP4 AND SWAP5 DUP5 PUSH1 0x0 MSTORE PUSH32 0x36B6384B5ECA791C62761152D0C79BB0604C104A5FB6F4EB0703F3154BB3DB0 SWAP3 PUSH1 0x0 SWAP1 JUMPDEST DUP8 DUP3 LT PUSH2 0x2D43 JUMPI POP POP DUP4 PUSH1 0x1 SWAP6 SWAP7 LT PUSH2 0x2D2A JUMPI JUMPDEST POP POP POP DUP2 SHL ADD SWAP1 SSTORE STOP JUMPDEST ADD MLOAD PUSH1 0x0 NOT PUSH1 0xF8 DUP5 PUSH1 0x3 SHL AND SHR NOT AND SWAP1 SSTORE DUP4 DUP1 DUP1 PUSH2 0x2D20 JUMP JUMPDEST DUP1 PUSH1 0x1 DUP6 SWAP7 DUP3 SWAP5 SWAP7 DUP7 ADD MLOAD DUP2 SSTORE ADD SWAP6 ADD SWAP4 ADD SWAP1 PUSH2 0x2D0C JUMP JUMPDEST DUP4 PUSH1 0x0 MSTORE PUSH32 0x36B6384B5ECA791C62761152D0C79BB0604C104A5FB6F4EB0703F3154BB3DB0 PUSH1 0x1F DUP5 ADD DUP6 SHR DUP2 ADD SWAP2 DUP4 DUP6 LT PUSH2 0x2DB2 JUMPI JUMPDEST PUSH1 0x1F ADD DUP6 SHR ADD SWAP1 JUMPDEST DUP2 DUP2 LT PUSH2 0x2DA6 JUMPI POP PUSH2 0x2C9F JUMP JUMPDEST PUSH1 0x0 DUP2 SSTORE PUSH1 0x1 ADD PUSH2 0x2D99 JUMP JUMPDEST SWAP1 SWAP2 POP DUP2 SWAP1 PUSH2 0x2D91 JUMP JUMPDEST CALLVALUE PUSH2 0xC54 JUMPI PUSH1 0x0 PUSH1 0x3 NOT CALLDATASIZE ADD SLT PUSH2 0xC54 JUMPI PUSH1 0x40 MLOAD PUSH1 0x0 PUSH1 0x5 SLOAD PUSH2 0x2DDE DUP2 PUSH2 0x300D JUMP JUMPDEST DUP1 DUP5 MSTORE SWAP1 PUSH1 0x1 SWAP1 DUP2 DUP2 AND SWAP1 DUP2 ISZERO PUSH2 0x114E JUMPI POP PUSH1 0x1 EQ PUSH2 0x2E07 JUMPI PUSH2 0x10EF DUP5 PUSH2 0x10DB DUP2 DUP7 SUB DUP3 PUSH2 0x3098 JUMP JUMPDEST PUSH1 0x5 PUSH1 0x0 SWAP1 DUP2 MSTORE SWAP3 POP PUSH32 0x36B6384B5ECA791C62761152D0C79BB0604C104A5FB6F4EB0703F3154BB3DB0 JUMPDEST DUP3 DUP5 LT PUSH2 0x2E4A JUMPI POP POP POP DUP2 ADD PUSH1 0x20 ADD PUSH2 0x10DB DUP3 PUSH2 0x10CB JUMP JUMPDEST DUP1 SLOAD PUSH1 0x20 DUP6 DUP8 ADD DUP2 ADD SWAP2 SWAP1 SWAP2 MSTORE SWAP1 SWAP4 ADD SWAP3 DUP2 ADD PUSH2 0x2E32 JUMP JUMPDEST CALLVALUE PUSH2 0xC54 JUMPI PUSH1 0x40 PUSH1 0x3 NOT CALLDATASIZE ADD SLT PUSH2 0xC54 JUMPI PUSH2 0x2E7B PUSH2 0x2FC7 JUMP JUMPDEST PUSH1 0x24 CALLDATALOAD PUSH12 0xFFFFFFFFFFFFFFFFFFFFFFFF DUP2 AND DUP2 SUB PUSH2 0xC54 JUMPI PUSH2 0x11B4 SWAP2 PUSH2 0x2E9F PUSH2 0x33E2 JUMP JUMPDEST PUSH2 0x3EE5 JUMP JUMPDEST CALLVALUE PUSH2 0xC54 JUMPI PUSH1 0x20 PUSH1 0x3 NOT CALLDATASIZE ADD SLT PUSH2 0xC54 JUMPI PUSH1 0x4 CALLDATALOAD PUSH32 0xFFFFFFFF00000000000000000000000000000000000000000000000000000000 DUP2 AND DUP1 DUP3 SUB PUSH2 0xC54 JUMPI PUSH1 0x20 SWAP2 DUP2 PUSH32 0xB1C990BC00000000000000000000000000000000000000000000000000000000 EQ SWAP2 DUP3 ISZERO PUSH2 0x2F1C JUMPI JUMPDEST POP POP PUSH1 0x40 MLOAD SWAP1 ISZERO ISZERO DUP2 MSTORE RETURN JUMPDEST PUSH32 0xC79B8B5F00000000000000000000000000000000000000000000000000000000 EQ SWAP2 POP DUP2 ISZERO PUSH2 0x2F66 JUMPI JUMPDEST DUP2 ISZERO PUSH2 0x2F56 JUMPI JUMPDEST POP DUP3 DUP1 PUSH2 0x2F10 JUMP JUMPDEST PUSH2 0x2F60 SWAP2 POP PUSH2 0x3FBD JUMP JUMPDEST DUP3 PUSH2 0x2F4E JUMP JUMPDEST SWAP1 POP PUSH2 0x2F71 DUP2 PUSH2 0x3FBD JUMP JUMPDEST SWAP1 PUSH2 0x2F47 JUMP JUMPDEST CALLVALUE PUSH2 0xC54 JUMPI PUSH1 0x40 PUSH1 0x3 NOT CALLDATASIZE ADD SLT PUSH2 0xC54 JUMPI PUSH1 0x20 SWAP1 PUSH20 0xFFFFFFFFFFFFFFFFFFFFFFFFFFFFFFFFFFFFFFFF PUSH2 0x2FA8 PUSH2 0x2FC7 JUMP JUMPDEST AND PUSH1 0x0 MSTORE PUSH1 0x0 DUP3 MSTORE PUSH1 0x40 PUSH1 0x0 KECCAK256 PUSH1 0x24 CALLDATALOAD PUSH1 0x0 MSTORE DUP3 MSTORE PUSH1 0x40 PUSH1 0x0 KECCAK256 SLOAD DUP2 MSTORE RETURN JUMPDEST PUSH1 0x4 CALLDATALOAD SWAP1 PUSH20 0xFFFFFFFFFFFFFFFFFFFFFFFFFFFFFFFFFFFFFFFF DUP3 AND DUP3 SUB PUSH2 0xC54 JUMPI JUMP JUMPDEST PUSH1 0x24 CALLDATALOAD SWAP1 PUSH20 0xFFFFFFFFFFFFFFFFFFFFFFFFFFFFFFFFFFFFFFFF DUP3 AND DUP3 SUB PUSH2 0xC54 JUMPI JUMP JUMPDEST SWAP1 PUSH1 0x1 DUP3 DUP2 SHR SWAP3 AND DUP1 ISZERO PUSH2 0x3056 JUMPI JUMPDEST PUSH1 0x20 DUP4 LT EQ PUSH2 0x3027 JUMPI JUMP JUMPDEST PUSH32 0x4E487B7100000000000000000000000000000000000000000000000000000000 PUSH1 0x0 MSTORE PUSH1 0x22 PUSH1 0x4 MSTORE PUSH1 0x24 PUSH1 0x0 REVERT JUMPDEST SWAP2 PUSH1 0x7F AND SWAP2 PUSH2 0x301C JUMP JUMPDEST PUSH1 0x40 DUP2 ADD SWAP1 DUP2 LT PUSH8 0xFFFFFFFFFFFFFFFF DUP3 GT OR PUSH2 0x8F6 JUMPI PUSH1 0x40 MSTORE JUMP JUMPDEST PUSH1 0x80 DUP2 ADD SWAP1 DUP2 LT PUSH8 0xFFFFFFFFFFFFFFFF DUP3 GT OR PUSH2 0x8F6 JUMPI PUSH1 0x40 MSTORE JUMP JUMPDEST SWAP1 PUSH1 0x1F PUSH1 0x1F NOT SWAP2 ADD AND DUP2 ADD SWAP1 DUP2 LT PUSH8 0xFFFFFFFFFFFFFFFF DUP3 GT OR PUSH2 0x8F6 JUMPI PUSH1 0x40 MSTORE JUMP JUMPDEST PUSH1 0x0 JUMPDEST DUP4 DUP2 LT PUSH2 0x30CE JUMPI POP POP PUSH1 0x0 SWAP2 ADD MSTORE JUMP JUMPDEST DUP2 DUP2 ADD MLOAD DUP4 DUP3 ADD MSTORE PUSH1 0x20 ADD PUSH2 0x30BE JUMP JUMPDEST SWAP1 PUSH1 0x1F NOT PUSH1 0x1F PUSH1 0x20 SWAP4 PUSH2 0x30FC DUP2 MLOAD DUP1 SWAP3 DUP2 DUP8 MSTORE DUP8 DUP1 DUP9 ADD SWAP2 ADD PUSH2 0x30BB JUMP JUMPDEST ADD AND ADD ADD SWAP1 JUMP JUMPDEST PUSH8 0xFFFFFFFFFFFFFFFF DUP2 GT PUSH2 0x8F6 JUMPI PUSH1 0x1F ADD PUSH1 0x1F NOT AND PUSH1 0x20 ADD SWAP1 JUMP JUMPDEST DUP2 PUSH1 0x1F DUP3 ADD SLT ISZERO PUSH2 0xC54 JUMPI DUP1 CALLDATALOAD SWAP1 PUSH2 0x3136 DUP3 PUSH2 0x3103 JUMP JUMPDEST SWAP3 PUSH2 0x3144 PUSH1 0x40 MLOAD SWAP5 DUP6 PUSH2 0x3098 JUMP JUMPDEST DUP3 DUP5 MSTORE PUSH1 0x20 DUP4 DUP4 ADD ADD GT PUSH2 0xC54 JUMPI DUP2 PUSH1 0x0 SWAP3 PUSH1 0x20 DUP1 SWAP4 ADD DUP4 DUP7 ADD CALLDATACOPY DUP4 ADD ADD MSTORE SWAP1 JUMP JUMPDEST PUSH8 0xFFFFFFFFFFFFFFFF DUP2 GT PUSH2 0x8F6 JUMPI PUSH1 0x5 SHL PUSH1 0x20 ADD SWAP1 JUMP JUMPDEST DUP2 PUSH1 0x1F DUP3 ADD SLT ISZERO PUSH2 0xC54 JUMPI DUP1 CALLDATALOAD SWAP2 PUSH2 0x3195 DUP4 PUSH2 0x3166 JUMP JUMPDEST SWAP3 PUSH2 0x31A3 PUSH1 0x40 MLOAD SWAP5 DUP6 PUSH2 0x3098 JUMP JUMPDEST DUP1 DUP5 MSTORE PUSH1 0x20 SWAP3 DUP4 DUP1 DUP7 ADD SWAP3 PUSH1 0x5 SHL DUP3 ADD ADD SWAP3 DUP4 GT PUSH2 0xC54 JUMPI DUP4 ADD SWAP1 JUMPDEST DUP3 DUP3 LT PUSH2 0x31CD JUMPI POP POP POP POP SWAP1 JUMP JUMPDEST DUP2 CALLDATALOAD DUP2 MSTORE SWAP1 DUP4 ADD SWAP1 DUP4 ADD PUSH2 0x31BF JUMP JUMPDEST PUSH1 0x3 NOT PUSH1 0x40 SWAP2 ADD SLT PUSH2 0xC54 JUMPI PUSH1 0x4 CALLDATALOAD SWAP1 PUSH1 0x24 CALLDATALOAD SWAP1 JUMP JUMPDEST SWAP1 DUP2 MLOAD DUP1 DUP3 MSTORE PUSH1 0x20 DUP1 DUP1 SWAP4 ADD SWAP4 ADD SWAP2 PUSH1 0x0 JUMPDEST DUP3 DUP2 LT PUSH2 0x3212 JUMPI POP POP POP POP SWAP1 JUMP JUMPDEST DUP4 MLOAD DUP6 MSTORE SWAP4 DUP2 ADD SWAP4 SWAP3 DUP2 ADD SWAP3 PUSH1 0x1 ADD PUSH2 0x3204 JUMP JUMPDEST SWAP1 DUP2 PUSH1 0x20 SWAP2 SUB SLT PUSH2 0xC54 JUMPI MLOAD PUSH32 0xFFFFFFFF00000000000000000000000000000000000000000000000000000000 DUP2 AND DUP2 SUB PUSH2 0xC54 JUMPI SWAP1 JUMP JUMPDEST PUSH1 0x0 NOT DUP2 EQ PUSH2 0x2272 JUMPI PUSH1 0x1 ADD SWAP1 JUMP JUMPDEST DUP1 MLOAD DUP3 LT ISZERO PUSH2 0x22A1 JUMPI PUSH1 0x20 SWAP2 PUSH1 0x5 SHL ADD ADD SWAP1 JUMP JUMPDEST SWAP2 SWAP1 DUP3 SUB SWAP2 DUP3 GT PUSH2 0x2272 JUMPI JUMP JUMPDEST SWAP1 DUP2 MLOAD DUP2 LT ISZERO PUSH2 0x22A1 JUMPI ADD PUSH1 0x20 ADD SWAP1 JUMP JUMPDEST DUP1 ISZERO PUSH2 0x3372 JUMPI DUP1 DUP2 PUSH1 0x0 SWAP3 JUMPDEST PUSH2 0x335E JUMPI POP DUP1 PUSH2 0x32BA DUP4 PUSH2 0x3103 JUMP JUMPDEST SWAP3 PUSH2 0x32C8 PUSH1 0x40 MLOAD SWAP5 DUP6 PUSH2 0x3098 JUMP JUMPDEST DUP1 DUP5 MSTORE PUSH1 0x1F NOT PUSH2 0x32D7 DUP3 PUSH2 0x3103 JUMP JUMPDEST ADD CALLDATASIZE PUSH1 0x20 DUP7 ADD CALLDATACOPY SWAP2 JUMPDEST PUSH2 0x32E9 JUMPI POP POP SWAP1 JUMP JUMPDEST PUSH1 0x0 NOT DUP3 ADD SWAP2 DUP3 GT PUSH2 0x2272 JUMPI DUP2 PUSH1 0xA DUP1 DUP4 DIV SWAP3 DUP2 DUP5 MUL SWAP2 DUP5 DUP4 DIV EQ DUP5 ISZERO OR ISZERO PUSH2 0x2272 JUMPI PUSH2 0x3319 PUSH1 0xFF SWAP3 DUP4 SWAP3 PUSH2 0x3281 JUMP JUMPDEST AND PUSH1 0x30 ADD SWAP1 DUP2 GT PUSH2 0x2272 JUMPI PUSH32 0xFF00000000000000000000000000000000000000000000000000000000000000 PUSH2 0x3357 SWAP2 PUSH1 0xF8 SHL AND PUSH1 0x0 BYTE SWAP2 DUP6 PUSH2 0x328E JUMP JUMPDEST MSTORE8 DUP1 PUSH2 0x32E0 JUMP JUMPDEST SWAP2 PUSH2 0x336A PUSH1 0xA SWAP2 PUSH2 0x325E JUMP JUMPDEST SWAP3 DIV DUP1 PUSH2 0x32AB JUMP JUMPDEST POP PUSH1 0x40 MLOAD PUSH2 0x337F DUP2 PUSH2 0x3060 JUMP JUMPDEST PUSH1 0x1 DUP2 MSTORE PUSH32 0x3000000000000000000000000000000000000000000000000000000000000000 PUSH1 0x20 DUP3 ADD MSTORE SWAP1 JUMP JUMPDEST EXTCODEHASH DUP1 ISZERO ISZERO SWAP1 DUP2 PUSH2 0x33BA JUMPI POP SWAP1 JUMP JUMPDEST PUSH32 0xC5D2460186F7233C927E7DB2DCC703C0E500B653CA82273B7BFAD8045D85A470 SWAP2 POP EQ ISZERO SWAP1 JUMP JUMPDEST CALLER PUSH1 0x0 SWAP1 DUP2 MSTORE PUSH32 0xA9CED9FDC45CDED6D4B7A90E36D1EE82B957A500CC22704C465E9BDF275406FD PUSH1 0x20 SWAP1 DUP2 MSTORE PUSH1 0x40 DUP1 DUP4 KECCAK256 SLOAD SWAP1 SWAP3 PUSH32 0x6DB4061A20CA83A3BE756EE172BD37A029093AC5AFE4CE968C6D5435B43CB011 SWAP2 PUSH1 0xFF AND ISZERO PUSH2 0x3446 JUMPI POP POP POP POP JUMP JUMPDEST PUSH2 0x344F CALLER PUSH2 0x3AD4 JUMP JUMPDEST SWAP2 DUP5 MLOAD SWAP1 PUSH2 0x345C DUP3 PUSH2 0x307C JUMP JUMPDEST PUSH1 0x42 DUP3 MSTORE DUP5 DUP3 ADD SWAP3 PUSH1 0x60 CALLDATASIZE DUP6 CALLDATACOPY DUP3 MLOAD ISZERO PUSH2 0x3635 JUMPI PUSH1 0x30 DUP5 MSTORE8 DUP3 MLOAD SWAP1 PUSH1 0x1 SWAP2 DUP3 LT ISZERO PUSH2 0x3635 JUMPI SWAP1 PUSH1 0x78 PUSH1 0x21 DUP6 ADD MSTORE8 PUSH1 0x41 SWAP2 JUMPDEST DUP2 DUP4 GT PUSH2 0x3588 JUMPI POP POP POP PUSH2 0x352C JUMPI PUSH1 0x48 PUSH2 0x21C0 SWAP4 DUP7 SWAP4 PUSH2 0x34F6 SWAP4 PUSH2 0x34E7 SWAP9 MLOAD SWAP9 DUP10 SWAP4 PUSH32 0x416363657373436F6E74726F6C3A206163636F756E7420000000000000000000 DUP11 DUP7 ADD MSTORE PUSH2 0x2141 DUP2 MLOAD DUP1 SWAP3 DUP13 PUSH1 0x37 DUP10 ADD SWAP2 ADD PUSH2 0x30BB JUMP JUMPDEST ADD SUB PUSH1 0x28 DUP2 ADD DUP8 MSTORE ADD DUP6 PUSH2 0x3098 JUMP JUMPDEST MLOAD SWAP3 DUP4 SWAP3 PUSH32 0x8C379A000000000000000000000000000000000000000000000000000000000 DUP5 MSTORE PUSH1 0x4 DUP5 ADD MSTORE PUSH1 0x24 DUP4 ADD SWAP1 PUSH2 0x30DE JUMP JUMPDEST PUSH1 0x64 DUP5 DUP7 MLOAD SWAP1 PUSH32 0x8C379A000000000000000000000000000000000000000000000000000000000 DUP3 MSTORE DUP1 PUSH1 0x4 DUP4 ADD MSTORE PUSH1 0x24 DUP3 ADD MSTORE PUSH32 0x537472696E67733A20686578206C656E67746820696E73756666696369656E74 PUSH1 0x44 DUP3 ADD MSTORE REVERT JUMPDEST SWAP1 SWAP2 SWAP3 PUSH1 0xF DUP2 AND PUSH1 0x10 DUP2 LT ISZERO PUSH2 0x3608 JUMPI PUSH32 0x3031323334353637383961626364656600000000000000000000000000000000 SWAP1 BYTE PUSH2 0x35C5 DUP6 DUP8 PUSH2 0x328E JUMP JUMPDEST MSTORE8 PUSH1 0x4 SHR SWAP3 DUP1 ISZERO PUSH2 0x35DB JUMPI PUSH1 0x0 NOT ADD SWAP2 SWAP1 PUSH2 0x348D JUMP JUMPDEST PUSH1 0x24 DUP3 PUSH32 0x4E487B7100000000000000000000000000000000000000000000000000000000 DUP2 MSTORE PUSH1 0x11 PUSH1 0x4 MSTORE REVERT JUMPDEST PUSH1 0x24 DUP4 PUSH32 0x4E487B7100000000000000000000000000000000000000000000000000000000 DUP2 MSTORE PUSH1 0x32 PUSH1 0x4 MSTORE REVERT JUMPDEST DUP1 PUSH32 0x4E487B7100000000000000000000000000000000000000000000000000000000 PUSH1 0x24 SWAP3 MSTORE PUSH1 0x32 PUSH1 0x4 MSTORE REVERT JUMPDEST CALLER PUSH1 0x0 SWAP1 DUP2 MSTORE PUSH32 0x95F185554ABA264DE8ED412AF70E5ABA6ACB0E648F258C912AD29ED85D11CA18 PUSH1 0x20 SWAP1 DUP2 MSTORE PUSH1 0x40 DUP1 DUP4 KECCAK256 SLOAD SWAP1 SWAP3 PUSH32 0xE02A0315B383857AC496E9D2B2546A699AFAEB4E5E83A1FDEF64376D0B74E5A5 SWAP2 PUSH1 0xFF AND ISZERO PUSH2 0x36C6 JUMPI POP POP POP POP JUMP JUMPDEST PUSH2 0x36CF CALLER PUSH2 0x3AD4 JUMP JUMPDEST SWAP2 DUP5 MLOAD SWAP1 PUSH2 0x36DC DUP3 PUSH2 0x307C JUMP JUMPDEST PUSH1 0x42 DUP3 MSTORE DUP5 DUP3 ADD SWAP3 PUSH1 0x60 CALLDATASIZE DUP6 CALLDATACOPY DUP3 MLOAD ISZERO PUSH2 0x3635 JUMPI PUSH1 0x30 DUP5 MSTORE8 DUP3 MLOAD SWAP1 PUSH1 0x1 SWAP2 DUP3 LT ISZERO PUSH2 0x3635 JUMPI SWAP1 PUSH1 0x78 PUSH1 0x21 DUP6 ADD MSTORE8 PUSH1 0x41 SWAP2 JUMPDEST DUP2 DUP4 GT PUSH2 0x3767 JUMPI POP POP POP PUSH2 0x352C JUMPI PUSH1 0x48 PUSH2 0x21C0 SWAP4 DUP7 SWAP4 PUSH2 0x34F6 SWAP4 PUSH2 0x34E7 SWAP9 MLOAD SWAP9 DUP10 SWAP4 PUSH32 0x416363657373436F6E74726F6C3A206163636F756E7420000000000000000000 DUP11 DUP7 ADD MSTORE PUSH2 0x2141 DUP2 MLOAD DUP1 SWAP3 DUP13 PUSH1 0x37 DUP10 ADD SWAP2 ADD PUSH2 0x30BB JUMP JUMPDEST SWAP1 SWAP2 SWAP3 PUSH1 0xF DUP2 AND PUSH1 0x10 DUP2 LT ISZERO PUSH2 0x3608 JUMPI PUSH32 0x3031323334353637383961626364656600000000000000000000000000000000 SWAP1 BYTE PUSH2 0x37A4 DUP6 DUP8 PUSH2 0x328E JUMP JUMPDEST MSTORE8 PUSH1 0x4 SHR SWAP3 DUP1 ISZERO PUSH2 0x35DB JUMPI PUSH1 0x0 NOT ADD SWAP2 SWAP1 PUSH2 0x370D JUMP JUMPDEST CALLER PUSH1 0x0 SWAP1 DUP2 MSTORE PUSH32 0x51A495916474FE1A0C0FCFB65A8A97682B84A054118858CDD1F5DFD7FC0919EB PUSH1 0x20 SWAP1 DUP2 MSTORE PUSH1 0x40 DUP1 DUP4 KECCAK256 SLOAD SWAP1 SWAP3 PUSH32 0x9F2DF0FED2C77648DE5860A4CC508CD0818C85B8B8A1AB4CEEEF8D981C8956A6 SWAP2 PUSH1 0xFF AND ISZERO PUSH2 0x381E JUMPI POP POP POP POP JUMP JUMPDEST PUSH2 0x3827 CALLER PUSH2 0x3AD4 JUMP JUMPDEST SWAP2 DUP5 MLOAD SWAP1 PUSH2 0x3834 DUP3 PUSH2 0x307C JUMP JUMPDEST PUSH1 0x42 DUP3 MSTORE DUP5 DUP3 ADD SWAP3 PUSH1 0x60 CALLDATASIZE DUP6 CALLDATACOPY DUP3 MLOAD ISZERO PUSH2 0x3635 JUMPI PUSH1 0x30 DUP5 MSTORE8 DUP3 MLOAD SWAP1 PUSH1 0x1 SWAP2 DUP3 LT ISZERO PUSH2 0x3635 JUMPI SWAP1 PUSH1 0x78 PUSH1 0x21 DUP6 ADD MSTORE8 PUSH1 0x41 SWAP2 JUMPDEST DUP2 DUP4 GT PUSH2 0x38BF JUMPI POP POP POP PUSH2 0x352C JUMPI PUSH1 0x48 PUSH2 0x21C0 SWAP4 DUP7 SWAP4 PUSH2 0x34F6 SWAP4 PUSH2 0x34E7 SWAP9 MLOAD SWAP9 DUP10 SWAP4 PUSH32 0x416363657373436F6E74726F6C3A206163636F756E7420000000000000000000 DUP11 DUP7 ADD MSTORE PUSH2 0x2141 DUP2 MLOAD DUP1 SWAP3 DUP13 PUSH1 0x37 DUP10 ADD SWAP2 ADD PUSH2 0x30BB JUMP JUMPDEST SWAP1 SWAP2 SWAP3 PUSH1 0xF DUP2 AND PUSH1 0x10 DUP2 LT ISZERO PUSH2 0x3608 JUMPI PUSH32 0x3031323334353637383961626364656600000000000000000000000000000000 SWAP1 BYTE PUSH2 0x38FC DUP6 DUP8 PUSH2 0x328E JUMP JUMPDEST MSTORE8 PUSH1 0x4 SHR SWAP3 DUP1 ISZERO PUSH2 0x35DB JUMPI PUSH1 0x0 NOT ADD SWAP2 SWAP1 PUSH2 0x3865 JUMP JUMPDEST PUSH1 0x0 SWAP1 DUP1 DUP3 MSTORE PUSH1 0x20 SWAP1 PUSH1 0x8 DUP3 MSTORE PUSH1 0x40 SWAP3 DUP4 DUP2 KECCAK256 CALLER DUP3 MSTORE DUP4 MSTORE PUSH1 0xFF DUP5 DUP3 KECCAK256 SLOAD AND ISZERO PUSH2 0x393C JUMPI POP POP POP POP JUMP JUMPDEST PUSH2 0x3945 CALLER PUSH2 0x3AD4 JUMP JUMPDEST SWAP2 DUP5 MLOAD SWAP1 PUSH2 0x3952 DUP3 PUSH2 0x307C JUMP JUMPDEST PUSH1 0x42 DUP3 MSTORE DUP5 DUP3 ADD SWAP3 PUSH1 0x60 CALLDATASIZE DUP6 CALLDATACOPY DUP3 MLOAD ISZERO PUSH2 0x3635 JUMPI PUSH1 0x30 DUP5 MSTORE8 DUP3 MLOAD SWAP1 PUSH1 0x1 SWAP2 DUP3 LT ISZERO PUSH2 0x3635 JUMPI SWAP1 PUSH1 0x78 PUSH1 0x21 DUP6 ADD MSTORE8 PUSH1 0x41 SWAP2 JUMPDEST DUP2 DUP4 GT PUSH2 0x39DD JUMPI POP POP POP PUSH2 0x352C JUMPI PUSH1 0x48 PUSH2 0x21C0 SWAP4 DUP7 SWAP4 PUSH2 0x34F6 SWAP4 PUSH2 0x34E7 SWAP9 MLOAD SWAP9 DUP10 SWAP4 PUSH32 0x416363657373436F6E74726F6C3A206163636F756E7420000000000000000000 DUP11 DUP7 ADD MSTORE PUSH2 0x2141 DUP2 MLOAD DUP1 SWAP3 DUP13 PUSH1 0x37 DUP10 ADD SWAP2 ADD PUSH2 0x30BB JUMP JUMPDEST SWAP1 SWAP2 SWAP3 PUSH1 0xF DUP2 AND PUSH1 0x10 DUP2 LT ISZERO PUSH2 0x3608 JUMPI PUSH32 0x3031323334353637383961626364656600000000000000000000000000000000 SWAP1 BYTE PUSH2 0x3A1A DUP6 DUP8 PUSH2 0x328E JUMP JUMPDEST MSTORE8 PUSH1 0x4 SHR SWAP3 DUP1 ISZERO PUSH2 0x35DB JUMPI PUSH1 0x0 NOT ADD SWAP2 SWAP1 PUSH2 0x3983 JUMP JUMPDEST SWAP1 PUSH1 0x40 PUSH2 0x3A7C SWAP3 PUSH1 0x0 SWAP1 DUP1 DUP3 MSTORE PUSH1 0x8 PUSH1 0x20 MSTORE PUSH20 0xFFFFFFFFFFFFFFFFFFFFFFFFFFFFFFFFFFFFFFFF DUP4 DUP4 KECCAK256 SWAP5 AND SWAP4 DUP5 DUP4 MSTORE PUSH1 0x20 MSTORE PUSH1 0xFF DUP4 DUP4 KECCAK256 SLOAD AND PUSH2 0x3A7F JUMPI JUMPDEST DUP2 MSTORE PUSH1 0x9 PUSH1 0x20 MSTORE KECCAK256 PUSH2 0x3CF7 JUMP JUMPDEST POP JUMP JUMPDEST DUP1 DUP3 MSTORE PUSH1 0x8 PUSH1 0x20 MSTORE DUP3 DUP3 KECCAK256 DUP5 DUP4 MSTORE PUSH1 0x20 MSTORE DUP3 DUP3 KECCAK256 PUSH1 0xFF NOT DUP2 SLOAD AND SWAP1 SSTORE CALLER DUP5 DUP3 PUSH32 0xF6391F5C32D9C69D2A47EA670B442974B53935D1EDC7FD64EB21E047A839171B DUP6 DUP1 LOG4 PUSH2 0x3A6F JUMP JUMPDEST SWAP2 SWAP1 DUP3 ADD DUP1 SWAP3 GT PUSH2 0x2272 JUMPI JUMP JUMPDEST PUSH1 0x40 MLOAD SWAP1 PUSH1 0x60 DUP3 ADD DUP3 DUP2 LT PUSH8 0xFFFFFFFFFFFFFFFF DUP3 GT OR PUSH2 0x8F6 JUMPI PUSH1 0x40 MSTORE PUSH1 0x2A DUP3 MSTORE PUSH1 0x20 DUP3 ADD PUSH1 0x40 CALLDATASIZE DUP3 CALLDATACOPY DUP3 MLOAD ISZERO PUSH2 0x22A1 JUMPI PUSH1 0x30 SWAP1 MSTORE8 DUP2 MLOAD PUSH1 0x1 SWAP1 DUP2 LT ISZERO PUSH2 0x22A1 JUMPI PUSH1 0x78 PUSH1 0x21 DUP5 ADD MSTORE8 PUSH1 0x29 SWAP1 JUMPDEST DUP1 DUP3 GT PUSH2 0x3B8F JUMPI POP POP PUSH2 0x3B31 JUMPI SWAP1 JUMP JUMPDEST PUSH1 0x64 PUSH1 0x40 MLOAD PUSH32 0x8C379A000000000000000000000000000000000000000000000000000000000 DUP2 MSTORE PUSH1 0x20 PUSH1 0x4 DUP3 ADD MSTORE PUSH1 0x20 PUSH1 0x24 DUP3 ADD MSTORE PUSH32 0x537472696E67733A20686578206C656E67746820696E73756666696369656E74 PUSH1 0x44 DUP3 ADD MSTORE REVERT JUMPDEST SWAP1 SWAP2 PUSH1 0xF DUP2 AND PUSH1 0x10 DUP2 LT ISZERO PUSH2 0x3C0E JUMPI PUSH32 0x3031323334353637383961626364656600000000000000000000000000000000 SWAP1 BYTE PUSH2 0x3BCB DUP5 DUP7 PUSH2 0x328E JUMP JUMPDEST MSTORE8 PUSH1 0x4 SHR SWAP2 DUP1 ISZERO PUSH2 0x3BE0 JUMPI PUSH1 0x0 NOT ADD SWAP1 PUSH2 0x3B21 JUMP JUMPDEST PUSH1 0x24 PUSH1 0x0 PUSH32 0x4E487B7100000000000000000000000000000000000000000000000000000000 DUP2 MSTORE PUSH1 0x11 PUSH1 0x4 MSTORE REVERT JUMPDEST PUSH1 0x24 PUSH1 0x0 PUSH32 0x4E487B7100000000000000000000000000000000000000000000000000000000 DUP2 MSTORE PUSH1 0x32 PUSH1 0x4 MSTORE REVERT JUMPDEST DUP1 SLOAD DUP3 LT ISZERO PUSH2 0x22A1 JUMPI PUSH1 0x0 MSTORE PUSH1 0x20 PUSH1 0x0 KECCAK256 ADD SWAP1 PUSH1 0x0 SWAP1 JUMP JUMPDEST SWAP2 SWAP1 PUSH1 0x1 DUP4 ADD PUSH1 0x0 SWAP1 DUP3 DUP3 MSTORE DUP1 PUSH1 0x20 MSTORE PUSH1 0x40 DUP3 KECCAK256 SLOAD ISZERO PUSH1 0x0 EQ PUSH2 0x3CF1 JUMPI DUP5 SLOAD SWAP5 PUSH9 0x10000000000000000 DUP7 LT ISZERO PUSH2 0x3CC4 JUMPI DUP4 PUSH2 0x3CB4 PUSH2 0x3C9D DUP9 PUSH1 0x1 PUSH1 0x40 SWAP9 SWAP10 SWAP11 ADD DUP6 SSTORE DUP5 PUSH2 0x3C3C JUMP JUMPDEST DUP2 SWAP4 SWAP2 SLOAD SWAP1 PUSH1 0x0 NOT SWAP1 PUSH1 0x3 SHL SWAP3 DUP4 SHL SWAP3 SHL NOT AND OR SWAP1 JUMP JUMPDEST SWAP1 SSTORE SLOAD SWAP4 DUP3 MSTORE PUSH1 0x20 MSTORE KECCAK256 SSTORE PUSH1 0x1 SWAP1 JUMP JUMPDEST PUSH1 0x24 DUP4 PUSH32 0x4E487B7100000000000000000000000000000000000000000000000000000000 DUP2 MSTORE PUSH1 0x41 PUSH1 0x4 MSTORE REVERT JUMPDEST POP SWAP3 POP POP JUMP JUMPDEST SWAP1 PUSH1 0x1 DUP3 ADD SWAP1 PUSH1 0x0 SWAP3 DUP2 DUP5 MSTORE DUP3 PUSH1 0x20 MSTORE PUSH1 0x40 DUP5 KECCAK256 SLOAD SWAP1 DUP2 ISZERO ISZERO PUSH1 0x0 EQ PUSH2 0x3E2B JUMPI PUSH1 0x0 NOT SWAP2 DUP3 DUP2 ADD DUP2 DUP2 GT PUSH2 0x3DFE JUMPI DUP3 SLOAD SWAP1 DUP5 DUP3 ADD SWAP2 DUP3 GT PUSH2 0x3DD1 JUMPI DUP1 DUP3 SUB PUSH2 0x3D9C JUMPI JUMPDEST POP POP POP DUP1 SLOAD DUP1 ISZERO PUSH2 0x3D6F JUMPI DUP3 ADD SWAP2 PUSH2 0x3D52 DUP4 DUP4 PUSH2 0x3C3C JUMP JUMPDEST SWAP1 SWAP2 DUP3 SLOAD SWAP2 PUSH1 0x3 SHL SHL NOT AND SWAP1 SSTORE SSTORE DUP3 MSTORE PUSH1 0x20 MSTORE PUSH1 0x40 DUP2 KECCAK256 SSTORE PUSH1 0x1 SWAP1 JUMP JUMPDEST PUSH1 0x24 DUP7 PUSH32 0x4E487B7100000000000000000000000000000000000000000000000000000000 DUP2 MSTORE PUSH1 0x31 PUSH1 0x4 MSTORE REVERT JUMPDEST PUSH2 0x3DBC PUSH2 0x3DAC PUSH2 0x3C9D SWAP4 DUP7 PUSH2 0x3C3C JUMP JUMPDEST SWAP1 SLOAD SWAP1 PUSH1 0x3 SHL SHR SWAP3 DUP4 SWAP3 DUP7 PUSH2 0x3C3C JUMP JUMPDEST SWAP1 SSTORE DUP7 MSTORE DUP5 PUSH1 0x20 MSTORE PUSH1 0x40 DUP7 KECCAK256 SSTORE CODESIZE DUP1 DUP1 PUSH2 0x3D3A JUMP JUMPDEST PUSH1 0x24 DUP9 PUSH32 0x4E487B7100000000000000000000000000000000000000000000000000000000 DUP2 MSTORE PUSH1 0x11 PUSH1 0x4 MSTORE REVERT JUMPDEST PUSH1 0x24 DUP8 PUSH32 0x4E487B7100000000000000000000000000000000000000000000000000000000 DUP2 MSTORE PUSH1 0x11 PUSH1 0x4 MSTORE REVERT JUMPDEST POP POP POP POP SWAP1 JUMP JUMPDEST SWAP1 SWAP2 PUSH2 0x3E49 PUSH2 0x3E57 SWAP4 PUSH1 0x40 DUP5 MSTORE PUSH1 0x40 DUP5 ADD SWAP1 PUSH2 0x31F2 JUMP JUMPDEST SWAP2 PUSH1 0x20 DUP2 DUP5 SUB SWAP2 ADD MSTORE PUSH2 0x31F2 JUMP JUMPDEST SWAP1 JUMP JUMPDEST ISZERO PUSH2 0x3E61 JUMPI JUMP JUMPDEST PUSH1 0x84 PUSH1 0x40 MLOAD PUSH32 0x8C379A000000000000000000000000000000000000000000000000000000000 DUP2 MSTORE PUSH1 0x20 PUSH1 0x4 DUP3 ADD MSTORE PUSH1 0x2A PUSH1 0x24 DUP3 ADD MSTORE PUSH32 0x455243323938313A20726F79616C7479206665652077696C6C20657863656564 PUSH1 0x44 DUP3 ADD MSTORE PUSH32 0x2073616C65507269636500000000000000000000000000000000000000000000 PUSH1 0x64 DUP3 ADD MSTORE REVERT JUMPDEST PUSH20 0xFFFFFFFFFFFFFFFFFFFFFFFFFFFFFFFFFFFFFFFF PUSH12 0xFFFFFFFFFFFFFFFFFFFFFFFF DUP4 AND SWAP2 PUSH2 0x3F18 PUSH2 0x2710 DUP5 GT ISZERO PUSH2 0x3E5A JUMP JUMPDEST AND SWAP2 DUP3 ISZERO PUSH2 0x3F5F JUMPI PUSH32 0xFFFFFFFFFFFFFFFFFFFFFFFF0000000000000000000000000000000000000000 SWAP2 PUSH1 0x20 PUSH1 0x40 MLOAD PUSH2 0x3F50 DUP2 PUSH2 0x3060 JUMP JUMPDEST DUP6 DUP2 MSTORE ADD MSTORE PUSH1 0xA0 SHL AND OR PUSH1 0x6 SSTORE JUMP JUMPDEST PUSH1 0x64 PUSH1 0x40 MLOAD PUSH32 0x8C379A000000000000000000000000000000000000000000000000000000000 DUP2 MSTORE PUSH1 0x20 PUSH1 0x4 DUP3 ADD MSTORE PUSH1 0x19 PUSH1 0x24 DUP3 ADD MSTORE PUSH32 0x455243323938313A20696E76616C696420726563656976657200000000000000 PUSH1 0x44 DUP3 ADD MSTORE REVERT JUMPDEST PUSH2 0x3FC6 DUP2 PUSH2 0x4063 JUMP JUMPDEST SWAP1 DUP2 ISZERO PUSH2 0x3FFA JUMPI JUMPDEST DUP2 ISZERO PUSH2 0x3FE9 JUMPI JUMPDEST DUP2 ISZERO PUSH2 0x3FDF JUMPI POP SWAP1 JUMP JUMPDEST PUSH2 0x3E57 SWAP2 POP PUSH2 0x4126 JUMP JUMPDEST SWAP1 POP PUSH2 0x3FF4 DUP2 PUSH2 0x4126 JUMP JUMPDEST SWAP1 PUSH2 0x3FD5 JUMP JUMPDEST SWAP1 POP PUSH2 0x4005 DUP2 PUSH2 0x400B JUMP JUMPDEST SWAP1 PUSH2 0x3FCE JUMP JUMPDEST PUSH32 0xE89341C00000000000000000000000000000000000000000000000000000000 PUSH32 0xFFFFFFFF00000000000000000000000000000000000000000000000000000000 DUP3 AND EQ PUSH2 0x405D JUMPI PUSH2 0x3E57 SWAP1 PUSH2 0x4063 JUMP JUMPDEST POP PUSH1 0x1 SWAP1 JUMP JUMPDEST PUSH32 0xFFFFFFFF00000000000000000000000000000000000000000000000000000000 DUP2 AND PUSH32 0x3E85E62F00000000000000000000000000000000000000000000000000000000 EQ SWAP1 DUP2 ISZERO PUSH2 0x40B3 JUMPI POP SWAP1 JUMP JUMPDEST PUSH2 0x3E57 SWAP2 POP PUSH32 0xFFFFFFFF00000000000000000000000000000000000000000000000000000000 AND PUSH32 0xD9B67A2600000000000000000000000000000000000000000000000000000000 DUP2 EQ PUSH2 0x405D JUMPI PUSH32 0x1FFC9A700000000000000000000000000000000000000000000000000000000 EQ SWAP1 JUMP JUMPDEST PUSH2 0x412F DUP2 PUSH2 0x4215 JUMP JUMPDEST SWAP1 DUP2 ISZERO PUSH2 0x417D JUMPI JUMPDEST DUP2 ISZERO PUSH2 0x4152 JUMPI JUMPDEST DUP2 ISZERO PUSH2 0x4148 JUMPI POP SWAP1 JUMP JUMPDEST PUSH2 0x3E57 SWAP2 POP PUSH2 0x418E JUMP JUMPDEST PUSH32 0xFFFFFFFF00000000000000000000000000000000000000000000000000000000 DUP2 AND ISZERO SWAP2 POP PUSH2 0x413E JUMP JUMPDEST SWAP1 POP PUSH2 0x4188 DUP2 PUSH2 0x418E JUMP JUMPDEST SWAP1 PUSH2 0x4137 JUMP JUMPDEST PUSH32 0xFFFFFFFF00000000000000000000000000000000000000000000000000000000 DUP2 AND SWAP1 PUSH32 0x5A05180F00000000000000000000000000000000000000000000000000000000 DUP3 EQ SWAP2 DUP3 ISZERO PUSH2 0x41E1 JUMPI POP POP SWAP1 JUMP JUMPDEST PUSH32 0x7965DB0B00000000000000000000000000000000000000000000000000000000 EQ SWAP2 POP DUP2 ISZERO PUSH2 0x420F JUMPI POP SWAP1 JUMP JUMPDEST PUSH2 0x3E57 SWAP2 POP JUMPDEST PUSH32 0xFFFFFFFF00000000000000000000000000000000000000000000000000000000 AND PUSH32 0x2A55205A00000000000000000000000000000000000000000000000000000000 DUP2 EQ SWAP1 DUP2 ISZERO PUSH2 0x4265 JUMPI POP SWAP1 JUMP JUMPDEST PUSH32 0x1FFC9A700000000000000000000000000000000000000000000000000000000 SWAP2 POP EQ SWAP1 JUMP INVALID LOG2 PUSH5 0x6970667358 0x22 SLT KECCAK256 0xB3 PUSH8 0x77FE9FE780FADC66 0xEE 0xCC SUB 0xC PUSH16 0x58436D0E96EE9680EFFFF07E86602640 0x26 PUSH5 0x736F6C6343 STOP ADDMOD SGT STOP CALLER "
				}
			},
			"userdoc": {
				"errors": {
					"InvalidArrayLength()": [
						{
							"notice": "Invalid array input length."
						}
					],
					"InvalidInitialization()": [
						{
							"notice": "Invalid initialization error."
						}
					],
					"TransfersLocked()": [
						{
							"notice": "Transfers locked."
						}
					]
				},
				"kind": "user",
				"methods": {
					"balanceOf(address,uint256)": {
						"notice": "Get the balance of an account's Tokens"
					},
					"balanceOfBatch(address[],uint256[])": {
						"notice": "Get the balance of multiple account/token pairs"
					},
					"batchBurn(uint256[],uint256[])": {
						"notice": "Burn tokens of given token id for each (tokenIds[i], amounts[i]) pair."
					},
					"batchMint(address,uint256[],uint256[],bytes)": {
						"notice": "Mint tokens."
					},
					"burn(uint256,uint256)": {
						"notice": "Allows the owner of the token to burn their tokens."
					},
					"contractURI()": {
						"notice": "Get the contract URI of token's URI.Refer to https://docs.opensea.io/docs/contract-level-metadata"
					},
					"getTransferLocked()": {
						"notice": "Gets the transfer lock."
					},
					"initialize(address,string,string,string,address,uint96)": {
						"notice": "Initialize the contract."
					},
					"isApprovedForAll(address,address)": {
						"notice": "Queries the approval status of an operator for a given owner"
					},
					"mint(address,uint256,uint256,bytes)": {
						"notice": "Mint tokens."
					},
					"safeBatchTransferFrom(address,address,uint256[],uint256[],bytes)": {
						"notice": "Send multiple types of Tokens from the _from address to the _to address (with safety call)"
					},
					"safeTransferFrom(address,address,uint256,uint256,bytes)": {
						"notice": "Transfers amount amount of an _id from the _from address to the _to address specified"
					},
					"setApprovalForAll(address,bool)": {
						"notice": "Enable or disable approval for a third party (\"operator\") to manage all of caller's tokens"
					},
					"setBaseMetadataURI(string)": {
						"notice": "Update the base URI of token's URI."
					},
					"setContractName(string)": {
						"notice": "Update the name of the contract."
					},
					"setContractURI(string)": {
						"notice": "Update the contract URI of token's URI.Refer to https://docs.opensea.io/docs/contract-level-metadata"
					},
					"setDefaultRoyalty(address,uint96)": {
						"notice": "Sets the royalty information that all ids in this contract will default to."
					},
					"setTokenRoyalty(uint256,address,uint96)": {
						"notice": "Sets the royalty information that a given token id in this contract will use.This overrides the default royalty information for this token id"
					},
					"setTransferLocked(bool)": {
						"notice": "Sets the transfer lock."
					},
					"supportsInterface(bytes4)": {
						"notice": "Check interface support."
					},
					"uri(uint256)": {
						"notice": "A distinct Uniform Resource Identifier (URI) for a given token."
					}
				},
				"notice": "An implementation of ERC-1155 that prevents transfers.",
				"version": 1
			}
		}
	}
}