{
	"src/tokens/ERC1155/utility/sale/ERC1155Sale.sol": {
		"ERC1155Sale": {
			"abi": [
				{
					"inputs": [],
					"name": "GlobalSaleInactive",
					"type": "error"
				},
				{
					"inputs": [
						{
							"internalType": "address",
							"name": "currency",
							"type": "address"
						},
						{
							"internalType": "uint256",
							"name": "expected",
							"type": "uint256"
						},
						{
							"internalType": "uint256",
							"name": "actual",
							"type": "uint256"
						}
					],
					"name": "InsufficientPayment",
					"type": "error"
				},
				{
					"inputs": [
						{
							"internalType": "uint256",
							"name": "currentSupply",
							"type": "uint256"
						},
						{
							"internalType": "uint256",
							"name": "requestedAmount",
							"type": "uint256"
						},
						{
							"internalType": "uint256",
							"name": "maxSupply",
							"type": "uint256"
						}
					],
					"name": "InsufficientSupply",
					"type": "error"
				},
				{
					"inputs": [],
					"name": "InvalidInitialization",
					"type": "error"
				},
				{
					"inputs": [],
					"name": "InvalidSaleDetails",
					"type": "error"
				},
				{
					"inputs": [],
					"name": "InvalidTokenIds",
					"type": "error"
				},
				{
					"inputs": [
						{
							"internalType": "bytes32",
							"name": "root",
							"type": "bytes32"
						},
						{
							"internalType": "bytes32[]",
							"name": "proof",
							"type": "bytes32[]"
						},
						{
							"internalType": "address",
							"name": "addr",
							"type": "address"
						},
						{
							"internalType": "bytes32",
							"name": "salt",
							"type": "bytes32"
						}
					],
					"name": "MerkleProofInvalid",
					"type": "error"
				},
				{
					"inputs": [
						{
							"internalType": "uint256",
							"name": "tokenId",
							"type": "uint256"
						}
					],
					"name": "SaleInactive",
					"type": "error"
				},
				{
					"inputs": [],
					"name": "WithdrawFailed",
					"type": "error"
				},
				{
					"anonymous": false,
					"inputs": [
						{
							"indexed": false,
							"internalType": "uint256",
							"name": "cost",
							"type": "uint256"
						},
						{
							"indexed": false,
							"internalType": "uint256",
							"name": "supplyCap",
							"type": "uint256"
						},
						{
							"indexed": false,
							"internalType": "uint64",
							"name": "startTime",
							"type": "uint64"
						},
						{
							"indexed": false,
							"internalType": "uint64",
							"name": "endTime",
							"type": "uint64"
						},
						{
							"indexed": false,
							"internalType": "bytes32",
							"name": "merkleRoot",
							"type": "bytes32"
						}
					],
					"name": "GlobalSaleDetailsUpdated",
					"type": "event"
				},
				{
					"anonymous": false,
					"inputs": [
						{
							"indexed": true,
							"internalType": "bytes32",
							"name": "role",
							"type": "bytes32"
						},
						{
							"indexed": true,
							"internalType": "bytes32",
							"name": "previousAdminRole",
							"type": "bytes32"
						},
						{
							"indexed": true,
							"internalType": "bytes32",
							"name": "newAdminRole",
							"type": "bytes32"
						}
					],
					"name": "RoleAdminChanged",
					"type": "event"
				},
				{
					"anonymous": false,
					"inputs": [
						{
							"indexed": true,
							"internalType": "bytes32",
							"name": "role",
							"type": "bytes32"
						},
						{
							"indexed": true,
							"internalType": "address",
							"name": "account",
							"type": "address"
						},
						{
							"indexed": true,
							"internalType": "address",
							"name": "sender",
							"type": "address"
						}
					],
					"name": "RoleGranted",
					"type": "event"
				},
				{
					"anonymous": false,
					"inputs": [
						{
							"indexed": true,
							"internalType": "bytes32",
							"name": "role",
							"type": "bytes32"
						},
						{
							"indexed": true,
							"internalType": "address",
							"name": "account",
							"type": "address"
						},
						{
							"indexed": true,
							"internalType": "address",
							"name": "sender",
							"type": "address"
						}
					],
					"name": "RoleRevoked",
					"type": "event"
				},
				{
					"anonymous": false,
					"inputs": [
						{
							"indexed": false,
							"internalType": "uint256",
							"name": "tokenId",
							"type": "uint256"
						},
						{
							"indexed": false,
							"internalType": "uint256",
							"name": "cost",
							"type": "uint256"
						},
						{
							"indexed": false,
							"internalType": "uint256",
							"name": "supplyCap",
							"type": "uint256"
						},
						{
							"indexed": false,
							"internalType": "uint64",
							"name": "startTime",
							"type": "uint64"
						},
						{
							"indexed": false,
							"internalType": "uint64",
							"name": "endTime",
							"type": "uint64"
						},
						{
							"indexed": false,
							"internalType": "bytes32",
							"name": "merkleRoot",
							"type": "bytes32"
						}
					],
					"name": "TokenSaleDetailsUpdated",
					"type": "event"
				},
				{
					"inputs": [],
					"name": "DEFAULT_ADMIN_ROLE",
					"outputs": [
						{
							"internalType": "bytes32",
							"name": "",
							"type": "bytes32"
						}
					],
					"stateMutability": "view",
					"type": "function"
				},
				{
					"inputs": [
						{
							"internalType": "bytes32",
							"name": "root",
							"type": "bytes32"
						},
						{
							"internalType": "bytes32[]",
							"name": "proof",
							"type": "bytes32[]"
						},
						{
							"internalType": "address",
							"name": "addr",
							"type": "address"
						},
						{
							"internalType": "bytes32",
							"name": "salt",
							"type": "bytes32"
						}
					],
					"name": "checkMerkleProof",
					"outputs": [
						{
							"internalType": "bool",
							"name": "",
							"type": "bool"
						}
					],
					"stateMutability": "view",
					"type": "function"
				},
				{
					"inputs": [
						{
							"internalType": "bytes32",
							"name": "role",
							"type": "bytes32"
						}
					],
					"name": "getRoleAdmin",
					"outputs": [
						{
							"internalType": "bytes32",
							"name": "",
							"type": "bytes32"
						}
					],
					"stateMutability": "view",
					"type": "function"
				},
				{
					"inputs": [
						{
							"internalType": "bytes32",
							"name": "role",
							"type": "bytes32"
						},
						{
							"internalType": "uint256",
							"name": "index",
							"type": "uint256"
						}
					],
					"name": "getRoleMember",
					"outputs": [
						{
							"internalType": "address",
							"name": "",
							"type": "address"
						}
					],
					"stateMutability": "view",
					"type": "function"
				},
				{
					"inputs": [
						{
							"internalType": "bytes32",
							"name": "role",
							"type": "bytes32"
						}
					],
					"name": "getRoleMemberCount",
					"outputs": [
						{
							"internalType": "uint256",
							"name": "",
							"type": "uint256"
						}
					],
					"stateMutability": "view",
					"type": "function"
				},
				{
					"inputs": [],
					"name": "globalSaleDetails",
					"outputs": [
						{
							"components": [
								{
									"internalType": "uint256",
									"name": "cost",
									"type": "uint256"
								},
								{
									"internalType": "uint256",
									"name": "supplyCap",
									"type": "uint256"
								},
								{
									"internalType": "uint64",
									"name": "startTime",
									"type": "uint64"
								},
								{
									"internalType": "uint64",
									"name": "endTime",
									"type": "uint64"
								},
								{
									"internalType": "bytes32",
									"name": "merkleRoot",
									"type": "bytes32"
								}
							],
							"internalType": "struct IERC1155SaleFunctions.SaleDetails",
							"name": "",
							"type": "tuple"
						}
					],
					"stateMutability": "view",
					"type": "function"
				},
				{
					"inputs": [
						{
							"internalType": "bytes32",
							"name": "role",
							"type": "bytes32"
						},
						{
							"internalType": "address",
							"name": "account",
							"type": "address"
						}
					],
					"name": "grantRole",
					"outputs": [],
					"stateMutability": "nonpayable",
					"type": "function"
				},
				{
					"inputs": [
						{
							"internalType": "bytes32",
							"name": "role",
							"type": "bytes32"
						},
						{
							"internalType": "address",
							"name": "account",
							"type": "address"
						}
					],
					"name": "hasRole",
					"outputs": [
						{
							"internalType": "bool",
							"name": "",
							"type": "bool"
						}
					],
					"stateMutability": "view",
					"type": "function"
				},
				{
					"inputs": [
						{
							"internalType": "address",
							"name": "owner",
							"type": "address"
						},
						{
							"internalType": "address",
							"name": "items",
							"type": "address"
						}
					],
					"name": "initialize",
					"outputs": [],
					"stateMutability": "nonpayable",
					"type": "function"
				},
				{
					"inputs": [
						{
							"internalType": "address",
							"name": "to",
							"type": "address"
						},
						{
							"internalType": "uint256[]",
							"name": "tokenIds",
							"type": "uint256[]"
						},
						{
							"internalType": "uint256[]",
							"name": "amounts",
							"type": "uint256[]"
						},
						{
							"internalType": "bytes",
							"name": "data",
							"type": "bytes"
						},
						{
							"internalType": "address",
							"name": "expectedPaymentToken",
							"type": "address"
						},
						{
							"internalType": "uint256",
							"name": "maxTotal",
							"type": "uint256"
						},
						{
							"internalType": "bytes32[]",
							"name": "proof",
							"type": "bytes32[]"
						}
					],
					"name": "mint",
					"outputs": [],
					"stateMutability": "payable",
					"type": "function"
				},
				{
					"inputs": [],
					"name": "paymentToken",
					"outputs": [
						{
							"internalType": "address",
							"name": "",
							"type": "address"
						}
					],
					"stateMutability": "view",
					"type": "function"
				},
				{
					"inputs": [
						{
							"internalType": "bytes32",
							"name": "role",
							"type": "bytes32"
						},
						{
							"internalType": "address",
							"name": "account",
							"type": "address"
						}
					],
					"name": "renounceRole",
					"outputs": [],
					"stateMutability": "nonpayable",
					"type": "function"
				},
				{
					"inputs": [
						{
							"internalType": "bytes32",
							"name": "role",
							"type": "bytes32"
						},
						{
							"internalType": "address",
							"name": "account",
							"type": "address"
						}
					],
					"name": "revokeRole",
					"outputs": [],
					"stateMutability": "nonpayable",
					"type": "function"
				},
				{
					"inputs": [
						{
							"internalType": "uint256",
							"name": "cost",
							"type": "uint256"
						},
						{
							"internalType": "uint256",
							"name": "supplyCap",
							"type": "uint256"
						},
						{
							"internalType": "uint64",
							"name": "startTime",
							"type": "uint64"
						},
						{
							"internalType": "uint64",
							"name": "endTime",
							"type": "uint64"
						},
						{
							"internalType": "bytes32",
							"name": "merkleRoot",
							"type": "bytes32"
						}
					],
					"name": "setGlobalSaleDetails",
					"outputs": [],
					"stateMutability": "nonpayable",
					"type": "function"
				},
				{
					"inputs": [
						{
							"internalType": "address",
							"name": "paymentTokenAddr",
							"type": "address"
						}
					],
					"name": "setPaymentToken",
					"outputs": [],
					"stateMutability": "nonpayable",
					"type": "function"
				},
				{
					"inputs": [
						{
							"internalType": "uint256",
							"name": "tokenId",
							"type": "uint256"
						},
						{
							"internalType": "uint256",
							"name": "cost",
							"type": "uint256"
						},
						{
							"internalType": "uint256",
							"name": "supplyCap",
							"type": "uint256"
						},
						{
							"internalType": "uint64",
							"name": "startTime",
							"type": "uint64"
						},
						{
							"internalType": "uint64",
							"name": "endTime",
							"type": "uint64"
						},
						{
							"internalType": "bytes32",
							"name": "merkleRoot",
							"type": "bytes32"
						}
					],
					"name": "setTokenSaleDetails",
					"outputs": [],
					"stateMutability": "nonpayable",
					"type": "function"
				},
				{
					"inputs": [
						{
							"internalType": "bytes4",
							"name": "interfaceId",
							"type": "bytes4"
						}
					],
					"name": "supportsInterface",
					"outputs": [
						{
							"internalType": "bool",
							"name": "",
							"type": "bool"
						}
					],
					"stateMutability": "view",
					"type": "function"
				},
				{
					"inputs": [
						{
							"internalType": "uint256",
							"name": "tokenId",
							"type": "uint256"
						}
					],
					"name": "tokenSaleDetails",
					"outputs": [
						{
							"components": [
								{
									"internalType": "uint256",
									"name": "cost",
									"type": "uint256"
								},
								{
									"internalType": "uint256",
									"name": "supplyCap",
									"type": "uint256"
								},
								{
									"internalType": "uint64",
									"name": "startTime",
									"type": "uint64"
								},
								{
									"internalType": "uint64",
									"name": "endTime",
									"type": "uint64"
								},
								{
									"internalType": "bytes32",
									"name": "merkleRoot",
									"type": "bytes32"
								}
							],
							"internalType": "struct IERC1155SaleFunctions.SaleDetails",
							"name": "",
							"type": "tuple"
						}
					],
					"stateMutability": "view",
					"type": "function"
				},
				{
					"inputs": [
						{
							"internalType": "address",
							"name": "token",
							"type": "address"
						},
						{
							"internalType": "address",
							"name": "to",
							"type": "address"
						},
						{
							"internalType": "uint256",
							"name": "value",
							"type": "uint256"
						}
					],
					"name": "withdrawERC20",
					"outputs": [],
					"stateMutability": "nonpayable",
					"type": "function"
				},
				{
					"inputs": [
						{
							"internalType": "address",
							"name": "to",
							"type": "address"
						},
						{
							"internalType": "uint256",
							"name": "value",
							"type": "uint256"
						}
					],
					"name": "withdrawETH",
					"outputs": [],
					"stateMutability": "nonpayable",
					"type": "function"
				}
			],
			"devdoc": {
				"errors": {
					"InsufficientPayment(address,uint256,uint256)": [
						{
							"params": {
								"actual": "Actual amount of tokens.",
								"currency": "Currency address. address(0) indicates ETH.",
								"expected": "Expected amount of tokens."
							}
						}
					],
					"MerkleProofInvalid(bytes32,bytes32[],address,bytes32)": [
						{
							"params": {
								"addr": "Address to check.",
								"proof": "Merkle proof.",
								"root": "Merkle root.",
								"salt": "Salt used to generate the merkle leaf."
							}
						}
					],
					"SaleInactive(uint256)": [
						{
							"params": {
								"tokenId": "Invalid Token ID."
							}
						}
					]
				},
				"events": {
					"RoleAdminChanged(bytes32,bytes32,bytes32)": {
						"details": "Emitted when `newAdminRole` is set as ``role``'s admin role, replacing `previousAdminRole` `DEFAULT_ADMIN_ROLE` is the starting admin for all roles, despite {RoleAdminChanged} not being emitted signaling this. _Available since v3.1._"
					},
					"RoleGranted(bytes32,address,address)": {
						"details": "Emitted when `account` is granted `role`. `sender` is the account that originated the contract call, an admin role bearer except when using {AccessControl-_setupRole}."
					},
					"RoleRevoked(bytes32,address,address)": {
						"details": "Emitted when `account` is revoked `role`. `sender` is the account that originated the contract call:   - if using `revokeRole`, it is the admin role bearer   - if using `renounceRole`, it is the role bearer (i.e. `account`)"
					}
				},
				"kind": "dev",
				"methods": {
					"checkMerkleProof(bytes32,bytes32[],address,bytes32)": {
						"params": {
							"addr": "Address to check.",
							"proof": "Merkle proof.",
							"root": "Merkle root.",
							"salt": "Salt used to generate the merkle leaf."
						},
						"returns": {
							"_0": "True if the proof is valid and has not yet been used by {addr}."
						}
					},
					"getRoleAdmin(bytes32)": {
						"details": "Returns the admin role that controls `role`. See {grantRole} and {revokeRole}. To change a role's admin, use {_setRoleAdmin}."
					},
					"getRoleMember(bytes32,uint256)": {
						"details": "Returns one of the accounts that have `role`. `index` must be a value between 0 and {getRoleMemberCount}, non-inclusive. Role bearers are not sorted in any particular way, and their ordering may change at any point. WARNING: When using {getRoleMember} and {getRoleMemberCount}, make sure you perform all queries on the same block. See the following https://forum.openzeppelin.com/t/iterating-over-elements-on-enumerableset-in-openzeppelin-contracts/2296[forum post] for more information."
					},
					"getRoleMemberCount(bytes32)": {
						"details": "Returns the number of accounts that have `role`. Can be used together with {getRoleMember} to enumerate all bearers of a role."
					},
					"globalSaleDetails()": {
						"returns": {
							"_0": "Sale details."
						}
					},
					"grantRole(bytes32,address)": {
						"details": "Grants `role` to `account`. If `account` had not been already granted `role`, emits a {RoleGranted} event. Requirements: - the caller must have ``role``'s admin role. May emit a {RoleGranted} event."
					},
					"hasRole(bytes32,address)": {
						"details": "Returns `true` if `account` has been granted `role`."
					},
					"initialize(address,address)": {
						"details": "This should be called immediately after deployment.",
						"params": {
							"items": "The ERC-1155 Items contract address",
							"owner": "Owner address"
						}
					},
					"mint(address,uint256[],uint256[],bytes,address,uint256,bytes32[])": {
						"details": "tokenIds must be sorted ascending without duplicates.An empty proof is supplied when no proof is required.",
						"params": {
							"amounts": "Amounts of tokens to mint.",
							"data": "Data to pass if receiver is contract.",
							"expectedPaymentToken": "ERC20 token address to accept payment in. address(0) indicates ETH.",
							"maxTotal": "Maximum amount of payment tokens.",
							"proof": "Merkle proof for allowlist minting.",
							"to": "Address to mint tokens to.",
							"tokenIds": "Token IDs to mint."
						}
					},
					"paymentToken()": {
						"returns": {
							"_0": "Payment token address."
						}
					},
					"renounceRole(bytes32,address)": {
						"details": "Revokes `role` from the calling account. Roles are often managed via {grantRole} and {revokeRole}: this function's purpose is to provide a mechanism for accounts to lose their privileges if they are compromised (such as when a trusted device is misplaced). If the calling account had been revoked `role`, emits a {RoleRevoked} event. Requirements: - the caller must be `account`. May emit a {RoleRevoked} event."
					},
					"revokeRole(bytes32,address)": {
						"details": "Revokes `role` from `account`. If `account` had been granted `role`, emits a {RoleRevoked} event. Requirements: - the caller must have ``role``'s admin role. May emit a {RoleRevoked} event."
					},
					"setGlobalSaleDetails(uint256,uint256,uint64,uint64,bytes32)": {
						"details": "A zero end time indicates an inactive sale.",
						"params": {
							"cost": "The amount of payment tokens to accept for each token minted.",
							"endTime": "The end time of the sale. Tokens cannot be minted after this time.",
							"merkleRoot": "The merkle root for allowlist minting.",
							"startTime": "The start time of the sale. Tokens cannot be minted before this time.",
							"supplyCap": "The maximum number of tokens that can be minted."
						}
					},
					"setPaymentToken(address)": {
						"details": "This should be set before the sale starts.",
						"params": {
							"paymentTokenAddr": "The ERC20 token address to accept payment in. address(0) indicates ETH."
						}
					},
					"setTokenSaleDetails(uint256,uint256,uint256,uint64,uint64,bytes32)": {
						"details": "A zero end time indicates an inactive sale.",
						"params": {
							"cost": "The amount of payment tokens to accept for each token minted.",
							"endTime": "The end time of the sale. Tokens cannot be minted after this time.",
							"merkleRoot": "The merkle root for allowlist minting.",
							"startTime": "The start time of the sale. Tokens cannot be minted before this time.",
							"supplyCap": "The maximum number of tokens that can be minted.",
							"tokenId": "The token ID to set the sale details for."
						}
					},
					"supportsInterface(bytes4)": {
						"params": {
							"interfaceId": "Interface id"
						},
						"returns": {
							"_0": "True if supported"
						}
					},
					"tokenSaleDetails(uint256)": {
						"params": {
							"tokenId": "Token ID to get sale details for."
						},
						"returns": {
							"_0": "Sale details."
						}
					},
					"withdrawERC20(address,address,uint256)": {
						"params": {
							"to": "Address to withdraw to.",
							"token": "The ERC20 token address.",
							"value": "Amount to withdraw."
						}
					},
					"withdrawETH(address,uint256)": {
						"params": {
							"to": "Address to withdraw to.",
							"value": "Amount to withdraw."
						}
					}
				},
				"version": 1
			},
			"evm": {
				"bytecode": {
					"linkReferences": {},
					"object": "6080806040523461001657612c17908161001c8239f35b600080fdfe61010080604052600436101561001457600080fd5b600080608052803560e01c91826301ffc9a714611927575081630869678c146118f0578163119cd50c1461187e578163248a9ca31461184f5781632f2ff15d1461174d5781633013ce291461171757816336568abe1461165157816344004cc1146115b05781634782f77914611544578163485cc9551461121b5781634f651ccd146110d957816360e606f6146104675781636a326ab1146104015781639010d07c146103ac57816391d1485414610355578163975596001461020f578163a217fddf146101f1578163bad436611461017c57508063ca15c8731461014e5763d547741f1461010257600080fd5b3461014857604060031936011261014857610142600435610121611a33565b90806080515261013d6001604060805180602052200154612083565b612224565b60805180f35b60805180fd5b3461014857602060031936011261014857600435608051526001602052602060406080512054604051908152f35b346101485760806003193601126101485760243567ffffffffffffffff8111610148576101ad903690600401611c09565b6044929192359173ffffffffffffffffffffffffffffffffffffffff831683036101ee5760206101e4606435858588600435612a9f565b6040519015158152f35b80fd5b3461014857608051806003193601126101ee57602090604051908152f35b346101485760a06003193601126101485760043590602435916044359167ffffffffffffffff908184168094036101ee5750610249611a7e565b9260843591610256611f0d565b841690808210801561034b575b610321577f8fd3ac39fbb3d5e9c906dd9ec439dc6e584b8fa3ce02d5b67d589b22b22152a99560a09584608060405161029b81611a95565b88815284602082015285604082015286606082015201528560055581600655827fffffffffffffffffffffffffffffffff000000000000000000000000000000006fffffffffffffffff00000000000000006007549360401b1692161717600755836008556040519485526020850152604084015260608301526080820152a160805180f35b60046040517f85d4a748000000000000000000000000000000000000000000000000000000008152fd5b5042821115610263565b346101485760406003193601126101485760ff6040602092610375611a33565b6004356080515273ffffffffffffffffffffffffffffffffffffffff83608051808852209116825284522054166040519015158152f35b3461014857604060031936011261014857600435608051526001602052602073ffffffffffffffffffffffffffffffffffffffff6103f16024356040608051206124db565b9190546040519260031b1c168152f35b346101485760206003193601126101485773ffffffffffffffffffffffffffffffffffffffff61042f611a5b565b610437611f0d565b167fffffffffffffffffffffffff0000000000000000000000000000000000000000600454161760045560805180f35b60e06003193601126101485761047b611a5b565b60243567ffffffffffffffff81116101485761049b903690600401611b71565b60443567ffffffffffffffff8111610148576104bb903690600401611b71565b916064359167ffffffffffffffff831161014857366023840112156101485782600401356104e881611bcf565b936104f66040519586611b18565b818552366024838301011161014857602482910160208601376020608051918501015273ffffffffffffffffffffffffffffffffffffffff60843516608435036101485767ffffffffffffffff60c435116101485761055d9391933660c435600401611c09565b9060c052926080519283928496610572612782565b60a0526105a067ffffffffffffffff604060a05101511667ffffffffffffffff606060a05101511690612a4c565b60805160e08190529094905b835160e05110156107e3576105c360e0518561273a565b51968760e051151591826107d8575b50506107ae57866105e560e0518761273a565b5191816080515260096020526105ff6040608051206127c5565b61062667ffffffffffffffff60408301511667ffffffffffffffff60608401511690612a4c565b1561069e5750508661066d57506106569061065060019961064a8360a051516122d7565b90612319565b9a612319565b9661066260e05161270d565b60e0529896986105ac565b602490604051907f035acf500000000000000000000000000000000000000000000000000000000082526004820152fd5b9099916080820151908c826106c4575b505050829161064a6106569461065093516122d7565b816106d491339060c05186612a9f565b1561072b575060808051339052600260209081528151604080822094909152929052512080547fffffffffffffffffffffffffffffffffffffffffffffffffffffffffffffff001660011790558161064a8c6106ae565b8c604051927f265c66a80000000000000000000000000000000000000000000000000000000084526004840152608060248401528060848401527f07ffffffffffffffffffffffffffffffffffffffffffffffffffffffffffffff811161014857829060051b60a4928160c0518585013733604484015260648301528101030190fd5b60046040517f340bc4c9000000000000000000000000000000000000000000000000000000008152fd5b10159050878c6105d2565b84888a8693610e80575b5073ffffffffffffffffffffffffffffffffffffffff600454168073ffffffffffffffffffffffffffffffffffffffff6084351603610e42575060a435818110610dec575060843573ffffffffffffffffffffffffffffffffffffffff16610d3757803403610ce057505b73ffffffffffffffffffffffffffffffffffffffff60035460081c1660805190835182905b808210610b0d5750506006549081151580610a7f575b6109b75750505073ffffffffffffffffffffffffffffffffffffffff60035460081c1690813b15610148576109229461094961093473ffffffffffffffffffffffffffffffffffffffff93604051988997889687967fb48ab8b600000000000000000000000000000000000000000000000000000000885216600487015260806024870152608486019061274e565b9060031985830301604486015261274e565b600319838203016064840152608051966121e1565b0391608051905af180156109aa576109615760805180f35b67ffffffffffffffff81116109795760405280610142565b7f4e487b71000000000000000000000000000000000000000000000000000000006080515260416004526024608051fd5b6040513d608051823e3d90fd5b906020600492604051938480927f18160ddd000000000000000000000000000000000000000000000000000000008252608051905af19182156109aa5760805192610a49575b50610a45906040519384937fa9227830000000000000000000000000000000000000000000000000000000008552600485016040919493926060820195825260208201520152565b0390fd5b9091506020813d602011610a77575b81610a6560209383611b18565b81010312610148575190610a456109fd565b3d9150610a58565b506040517f18160ddd000000000000000000000000000000000000000000000000000000008152602081600481608051865af180156109aa5784849160805190610ad5575b610acf929350612319565b11610893565b5050506020813d602011610b05575b81610af160209383611b18565b810103126101485751829081908590610ac4565b3d9150610ae4565b9092610b19848761273a565b516080515260096020526001604060805120015480151580610c3f575b610b5f5750610b53610b5991610b4c868861273a565b5190612319565b9361270d565b9061087d565b8385876020610b6e838c61273a565b516024604051809681937f2693ebf20000000000000000000000000000000000000000000000000000000083526004830152608051905af19283156109aa5760805193610c09575b50610a4591610bc49161273a565b51926040519384937fa9227830000000000000000000000000000000000000000000000000000000008552600485016040919493926060820195825260208201520152565b9092506020813d602011610c37575b81610c2560209383611b18565b81010312610148575191610a45610bb6565b3d9150610c18565b50610c4a858861273a565b51604051907f2693ebf20000000000000000000000000000000000000000000000000000000082526004820152602081602481608051895af180156109aa57829160805191610ca9575b50610ca390610b4c888a61273a565b11610b36565b9150506020813d602011610cd8575b81610cc560209383611b18565b8101031261014857518190610ca3610c94565b3d9150610cb8565b6040517f1eabcfbe00000000000000000000000000000000000000000000000000000000815260843573ffffffffffffffffffffffffffffffffffffffff1660048201526024810191909152346044820152606490fd5b3415610d7d5760646040517f1eabcfbe00000000000000000000000000000000000000000000000000000000815260805160048201526080516024820152346044820152fd5b610de790604051907f23b872dd000000000000000000000000000000000000000000000000000000006020830152336024830152306044830152606482015260648152610dc981611a95565b73ffffffffffffffffffffffffffffffffffffffff6084351661280d565b610858565b6040517f1eabcfbe00000000000000000000000000000000000000000000000000000000815260843573ffffffffffffffffffffffffffffffffffffffff16600482015260248101929092526044820152606490fd5b606491604051917f1eabcfbe000000000000000000000000000000000000000000000000000000008352600483015260248201526080516044820152fd5b608060a05101519081610e94575b506107ed565b336080515260026020526080518260408220915260205260ff60406080512054161580610fb1575b15610f0f5750336080515260026020526080519060408220915260205260406080512060017fffffffffffffffffffffffffffffffffffffffffffffffffffffffffffffff008254161790558580610e8e565b604051917f265c66a80000000000000000000000000000000000000000000000000000000083526004830152608060248301528060848301527f07ffffffffffffffffffffffffffffffffffffffffffffffffffffffffffffff8111610148578160a49160051b8060c051848401373360448301527fffffffffffffffffffffffffffffffffffffffffffffffffffffffffffffffff60648301528101030190fd5b509491959260409491945160208101907fffffffffffffffffffffffffffffffffffffffff0000000000000000000000003360601b1682527fffffffffffffffffffffffffffffffffffffffffffffffffffffffffffffffff60348201526034815261101c81611ae0565b5190209661102987611b59565b97611037604051998a611b18565b87895260208901368960051b60c05101116101485760c051905b8960051b60c0510182106110c957505095608051965b89518810156110b75761107a888b61273a565b51608051818310156110a55750906080515260205261109f6040608051205b9761270d565b96611067565b5260205261109f604060805120611099565b90939650839194979295985014610ebc565b8135815260209182019101611051565b346101485760c0600319360112610148576024356044356004356110fb611a7e565b60843567ffffffffffffffff93848216809203610148578460a4359361111f611f0d565b16908183108015611211575b610321577f8ced76aee4b96a1e218e7903610fc7d648023d9075677163a5b31396cb280f969660c09660036040519161116383611a95565b83835260208301908582526040840190878252606085019089825260808601938b85528c60805152600960205260406080512096518755516001870155600286019251167fffffffffffffffffffffffffffffffff000000000000000000000000000000006fffffffffffffffff00000000000000008454935160401b1692161717905551910155604051958652602086015260408501526060840152608083015260a0820152a160805180f35b504283111561112b565b3461014857604060031936011261014857611234611a5b565b61123c611a33565b6003549060ff821661151a5774ffffffffffffffffffffffffffffffffffffffff007fffffffffffffffffffffff0000000000000000000000000000000000000000ff9160081b1691161760035560805180526113a260805160209281845273ffffffffffffffffffffffffffffffffffffffff604083209116809252835260805160ff604082205416156114ac575b506080518052600183818095526112e8836040608051206124f3565b507f4c02318d8c3aadc98ccf18aebbf3126f651e0c3f6a1de5ff8edcf6724a2ad5c280608051526080518083528460408220915282528060805160ff6040822054161561143f575b505060805152818152611348836040608051206124f3565b507f5d8e12c39142ff96d79d04d15d1ba1269e4fe57bb9d26f43523628b34ba108ec80608051526080518083528460408220915282528060805160ff604082205416156113d2575b505060805152526040608051206124f3565b507fffffffffffffffffffffffffffffffffffffffffffffffffffffffffffffff00600354161760035560805180f35b5260805180835284604082209152825260805160408120847fffffffffffffffffffffffffffffffffffffffffffffffffffffffffffffff0082541617905584827f2f8788117e7eff1d82e926ec794901d17c78024a50270940304540a733656f0d339380a48087611390565b5260805180835284604082209152825260805160408120847fffffffffffffffffffffffffffffffffffffffffffffffffffffffffffffff0082541617905584827f2f8788117e7eff1d82e926ec794901d17c78024a50270940304540a733656f0d339380a48087611330565b80526080518084528160408220915283526080516040812060017fffffffffffffffffffffffffffffffffffffffffffffffffffffffffffffff008254161790558133917f2f8788117e7eff1d82e926ec794901d17c78024a50270940304540a733656f0d8180a4836112cc565b60046040517ff92ee8a9000000000000000000000000000000000000000000000000000000008152fd5b346101485760406003193601126101485761155d611a5b565b611565611c3a565b60805180808093602435905af161157a612950565b50156115865760805180f35b60046040517f750b219c000000000000000000000000000000000000000000000000000000008152fd5b34610148576060600319360112610148576115c9611a5b565b6115d1611a33565b6115d9611c3a565b604051907fa9059cbb00000000000000000000000000000000000000000000000000000000602083015273ffffffffffffffffffffffffffffffffffffffff8091166024830152604435604483015260448252608082019282841067ffffffffffffffff85111761097957610142936040521661280d565b346101485760406003193601126101485761166a611a33565b3373ffffffffffffffffffffffffffffffffffffffff8216036116935761014290600435612224565b60846040517f08c379a000000000000000000000000000000000000000000000000000000000815260206004820152602f60248201527f416363657373436f6e74726f6c3a2063616e206f6e6c792072656e6f756e636560448201527f20726f6c657320666f722073656c6600000000000000000000000000000000006064820152fd5b3461014857608051806003193601126101ee57602073ffffffffffffffffffffffffffffffffffffffff60045416604051908152f35b34610148576040600319360112610148576117db600435600161176e611a33565b9180608051526080519061178c836040602094808652200154612083565b80608051526080519384835273ffffffffffffffffffffffffffffffffffffffff60408620911680955282528060805160ff604082205416156117e257505060805152526040608051206124f3565b5060805180f35b5260805180835284604082209152825260805160408120847fffffffffffffffffffffffffffffffffffffffffffffffffffffffffffffff0082541617905584827f2f8788117e7eff1d82e926ec794901d17c78024a50270940304540a733656f0d339380a48086611390565b346101485760206003193601126101485760043560805152602060016040608051808452200154604051908152f35b3461014857608051806003193601126101ee57611899612a74565b506118ec6118a5612782565b6040519182918291909160808060a0830194805184526020810151602085015267ffffffffffffffff80604083015116604086015260608201511660608501520151910152565b0390f35b3461014857602060031936011261014857611909612a74565b506004356080515260096020526118ec6118a56040608051206127c5565b34611a2f576020600319360112611a2f576004357fffffffff000000000000000000000000000000000000000000000000000000008116809103611a2b5760209250807f49007a5f000000000000000000000000000000000000000000000000000000001490811561199b575b5015158152f35b7f5a05180f000000000000000000000000000000000000000000000000000000008114915081156119ce575b5083611994565b7f7965db0b00000000000000000000000000000000000000000000000000000000811491508115611a01575b50836119c7565b7f01ffc9a700000000000000000000000000000000000000000000000000000000915014836119fa565b8280fd5b5080fd5b6024359073ffffffffffffffffffffffffffffffffffffffff82168203611a5657565b600080fd5b6004359073ffffffffffffffffffffffffffffffffffffffff82168203611a5657565b6064359067ffffffffffffffff82168203611a5657565b60a0810190811067ffffffffffffffff821117611ab157604052565b7f4e487b7100000000000000000000000000000000000000000000000000000000600052604160045260246000fd5b6060810190811067ffffffffffffffff821117611ab157604052565b6080810190811067ffffffffffffffff821117611ab157604052565b90601f7fffffffffffffffffffffffffffffffffffffffffffffffffffffffffffffffe0910116810190811067ffffffffffffffff821117611ab157604052565b67ffffffffffffffff8111611ab15760051b60200190565b81601f82011215611a5657803591611b8883611b59565b92611b966040519485611b18565b808452602092838086019260051b820101928311611a56578301905b828210611bc0575050505090565b81358152908301908301611bb2565b67ffffffffffffffff8111611ab157601f017fffffffffffffffffffffffffffffffffffffffffffffffffffffffffffffffe01660200190565b9181601f84011215611a565782359167ffffffffffffffff8311611a56576020808501948460051b010111611a5657565b3360009081527f20be27040b8e00df40bca0df34743417f3574a156386188f7d7f14369e5ee82b602090815260408083205490927f5d8e12c39142ff96d79d04d15d1ba1269e4fe57bb9d26f43523628b34ba108ec9160ff1615611c9e5750505050565b611ca733612366565b91845190611cb482611afc565b60428252848201926060368537825115611ee05760308453825190600191821015611ee05790607860218501536041915b818311611e1557505050611db9576048610a45938693611d8393611d7498519889937f416363657373436f6e74726f6c3a206163636f756e74200000000000000000008a860152611d3f815180928c6037890191016121be565b8401917f206973206d697373696e6720726f6c65200000000000000000000000000000006037840152518093868401906121be565b01036028810187520185611b18565b519283927f08c379a0000000000000000000000000000000000000000000000000000000008452600484015260248301906121e1565b6064848651907f08c379a000000000000000000000000000000000000000000000000000000000825280600483015260248201527f537472696e67733a20686578206c656e67746820696e73756666696369656e746044820152fd5b909192600f81166010811015611eb3577f3031323334353637383961626364656600000000000000000000000000000000901a611e528587612326565b5360041c928015611e86577fffffffffffffffffffffffffffffffffffffffffffffffffffffffffffffffff019190611ce5565b6024827f4e487b710000000000000000000000000000000000000000000000000000000081526011600452fd5b6024837f4e487b710000000000000000000000000000000000000000000000000000000081526032600452fd5b807f4e487b7100000000000000000000000000000000000000000000000000000000602492526032600452fd5b3360009081527f6058ee1f1c102e8ac9ef0c4319964e42c1ab00dfba021f8302fd0802656934ac602090815260408083205490927f4c02318d8c3aadc98ccf18aebbf3126f651e0c3f6a1de5ff8edcf6724a2ad5c29160ff1615611f715750505050565b611f7a33612366565b91845190611f8782611afc565b60428252848201926060368537825115611ee05760308453825190600191821015611ee05790607860218501536041915b81831161201257505050611db9576048610a45938693611d8393611d7498519889937f416363657373436f6e74726f6c3a206163636f756e74200000000000000000008a860152611d3f815180928c6037890191016121be565b909192600f81166010811015611eb3577f3031323334353637383961626364656600000000000000000000000000000000901a61204f8587612326565b5360041c928015611e86577fffffffffffffffffffffffffffffffffffffffffffffffffffffffffffffffff019190611fb8565b600090808252602090828252604092838120338252835260ff8482205416156120ac5750505050565b6120b533612366565b918451906120c282611afc565b60428252848201926060368537825115611ee05760308453825190600191821015611ee05790607860218501536041915b81831161214d57505050611db9576048610a45938693611d8393611d7498519889937f416363657373436f6e74726f6c3a206163636f756e74200000000000000000008a860152611d3f815180928c6037890191016121be565b909192600f81166010811015611eb3577f3031323334353637383961626364656600000000000000000000000000000000901a61218a8587612326565b5360041c928015611e86577fffffffffffffffffffffffffffffffffffffffffffffffffffffffffffffffff0191906120f3565b60005b8381106121d15750506000910152565b81810151838201526020016121c1565b907fffffffffffffffffffffffffffffffffffffffffffffffffffffffffffffffe0601f60209361221d815180928187528780880191016121be565b0116010190565b90604061226f926000908082528160205273ffffffffffffffffffffffffffffffffffffffff83832094169384835260205260ff8383205416612272575b81526001602052206125b4565b50565b808252816020528282208483526020528282207fffffffffffffffffffffffffffffffffffffffffffffffffffffffffffffff0081541690553384827ff6391f5c32d9c69d2a47ea670b442974b53935d1edc7fd64eb21e047a839171b8580a4612262565b818102929181159184041417156122ea57565b7f4e487b7100000000000000000000000000000000000000000000000000000000600052601160045260246000fd5b919082018092116122ea57565b908151811015612337570160200190565b7f4e487b7100000000000000000000000000000000000000000000000000000000600052603260045260246000fd5b6040519061237382611ae0565b602a82526020820160403682378251156123375760309053815160019081101561233757607860218401536029905b8082116124105750506123b25790565b60646040517f08c379a000000000000000000000000000000000000000000000000000000000815260206004820152602060248201527f537472696e67733a20686578206c656e67746820696e73756666696369656e746044820152fd5b9091600f811660108110156124ad577f3031323334353637383961626364656600000000000000000000000000000000901a61244c8486612326565b5360041c91801561247f577fffffffffffffffffffffffffffffffffffffffffffffffffffffffffffffffff01906123a2565b602460007f4e487b710000000000000000000000000000000000000000000000000000000081526011600452fd5b602460007f4e487b710000000000000000000000000000000000000000000000000000000081526032600452fd5b80548210156123375760005260206000200190600090565b919060018301600090828252806020526040822054156000146125ae5784549468010000000000000000861015612581578361257161253c886001604098999a018555846124db565b81939154907fffffffffffffffffffffffffffffffffffffffffffffffffffffffffffffffff9060031b92831b921b19161790565b9055549382526020522055600190565b6024837f4e487b710000000000000000000000000000000000000000000000000000000081526041600452fd5b50925050565b90600182019060009281845282602052604084205490811515600014612706577fffffffffffffffffffffffffffffffffffffffffffffffffffffffffffffffff918281018181116126d9578254908482019182116126ac57808203612677575b5050508054801561264a5782019161262d83836124db565b909182549160031b1b191690555582526020526040812055600190565b6024867f4e487b710000000000000000000000000000000000000000000000000000000081526031600452fd5b61269761268761253c93866124db565b90549060031b1c928392866124db565b90558652846020526040862055388080612615565b6024887f4e487b710000000000000000000000000000000000000000000000000000000081526011600452fd5b6024877f4e487b710000000000000000000000000000000000000000000000000000000081526011600452fd5b5050505090565b7fffffffffffffffffffffffffffffffffffffffffffffffffffffffffffffffff81146122ea5760010190565b80518210156123375760209160051b010190565b90815180825260208080930193019160005b82811061276e575050505090565b835185529381019392810192600101612760565b6040519061278f82611a95565b816005548152600654602082015260075467ffffffffffffffff90818116604084015260401c1660608201526080600854910152565b906040516127d281611a95565b6080600382948054845260018101546020850152600281015467ffffffffffffffff90818116604087015260401c1660608501520154910152565b73ffffffffffffffffffffffffffffffffffffffff1690604051604081019080821067ffffffffffffffff831117611ab15761288d916040526020938482527f5361666545524332303a206c6f772d6c6576656c2063616c6c206661696c6564858301526000808587829751910182855af1612887612950565b91612980565b80519182159184831561292c575b5050509050156128a85750565b608490604051907f08c379a00000000000000000000000000000000000000000000000000000000082526004820152602a60248201527f5361666545524332303a204552433230206f7065726174696f6e20646964206e60448201527f6f742073756363656564000000000000000000000000000000000000000000006064820152fd5b919381809450010312611a2f578201519081151582036101ee57508038808461289b565b3d1561297b573d9061296182611bcf565b9161296f6040519384611b18565b82523d6000602084013e565b606090565b919290156129fb5750815115612994575090565b3b1561299d5790565b60646040517f08c379a000000000000000000000000000000000000000000000000000000000815260206004820152601d60248201527f416464726573733a2063616c6c20746f206e6f6e2d636f6e74726163740000006044820152fd5b825190915015612a0e5750805190602001fd5b610a45906040519182917f08c379a00000000000000000000000000000000000000000000000000000000083526020600484015260248301906121e1565b908015918215612a6a575b508115612a62575090565b905042101590565b4210915038612a57565b60405190612a8182611a95565b60006080838281528260208201528260408201528260608201520152565b91929060009073ffffffffffffffffffffffffffffffffffffffff8316825260209060028252604093848420868552835260ff8585205416159788612aea575b505050505050505090565b909192939597508496989451907fffffffffffffffffffffffffffffffffffffffff0000000000000000000000008583019360601b168352603482015260348152612b3481611ae0565b51902090612b4188611b59565b97612b4e8751998a611b18565b8089528389019060051b820191368311612bdd578490915b838310612bcd57505050509183925b8751841015612bb857612b88848961273a565b519081811015612ba85785528252612ba28585209361270d565b92612b75565b9085528252612ba2858520610b53565b94509550505050143880808080808080612adf565b8235815291810191859101612b66565b8680fdfea2646970667358221220036789f230adce122f8986ce878d7f455cb45c2b5a3b66278304adee742ba3ee64736f6c63430008130033",
					"opcodes": "PUSH1 0x80 DUP1 PUSH1 0x40 MSTORE CALLVALUE PUSH2 0x16 JUMPI PUSH2 0x2C17 SWAP1 DUP2 PUSH2 0x1C DUP3 CODECOPY RETURN JUMPDEST PUSH1 0x0 DUP1 REVERT INVALID PUSH2 0x100 DUP1 PUSH1 0x40 MSTORE PUSH1 0x4 CALLDATASIZE LT ISZERO PUSH2 0x14 JUMPI PUSH1 0x0 DUP1 REVERT JUMPDEST PUSH1 0x0 DUP1 PUSH1 0x80 MSTORE DUP1 CALLDATALOAD PUSH1 0xE0 SHR SWAP2 DUP3 PUSH4 0x1FFC9A7 EQ PUSH2 0x1927 JUMPI POP DUP2 PUSH4 0x869678C EQ PUSH2 0x18F0 JUMPI DUP2 PUSH4 0x119CD50C EQ PUSH2 0x187E JUMPI DUP2 PUSH4 0x248A9CA3 EQ PUSH2 0x184F JUMPI DUP2 PUSH4 0x2F2FF15D EQ PUSH2 0x174D JUMPI DUP2 PUSH4 0x3013CE29 EQ PUSH2 0x1717 JUMPI DUP2 PUSH4 0x36568ABE EQ PUSH2 0x1651 JUMPI DUP2 PUSH4 0x44004CC1 EQ PUSH2 0x15B0 JUMPI DUP2 PUSH4 0x4782F779 EQ PUSH2 0x1544 JUMPI DUP2 PUSH4 0x485CC955 EQ PUSH2 0x121B JUMPI DUP2 PUSH4 0x4F651CCD EQ PUSH2 0x10D9 JUMPI DUP2 PUSH4 0x60E606F6 EQ PUSH2 0x467 JUMPI DUP2 PUSH4 0x6A326AB1 EQ PUSH2 0x401 JUMPI DUP2 PUSH4 0x9010D07C EQ PUSH2 0x3AC JUMPI DUP2 PUSH4 0x91D14854 EQ PUSH2 0x355 JUMPI DUP2 PUSH4 0x97559600 EQ PUSH2 0x20F JUMPI DUP2 PUSH4 0xA217FDDF EQ PUSH2 0x1F1 JUMPI DUP2 PUSH4 0xBAD43661 EQ PUSH2 0x17C JUMPI POP DUP1 PUSH4 0xCA15C873 EQ PUSH2 0x14E JUMPI PUSH4 0xD547741F EQ PUSH2 0x102 JUMPI PUSH1 0x0 DUP1 REVERT JUMPDEST CALLVALUE PUSH2 0x148 JUMPI PUSH1 0x40 PUSH1 0x3 NOT CALLDATASIZE ADD SLT PUSH2 0x148 JUMPI PUSH2 0x142 PUSH1 0x4 CALLDATALOAD PUSH2 0x121 PUSH2 0x1A33 JUMP JUMPDEST SWAP1 DUP1 PUSH1 0x80 MLOAD MSTORE PUSH2 0x13D PUSH1 0x1 PUSH1 0x40 PUSH1 0x80 MLOAD DUP1 PUSH1 0x20 MSTORE KECCAK256 ADD SLOAD PUSH2 0x2083 JUMP JUMPDEST PUSH2 0x2224 JUMP JUMPDEST PUSH1 0x80 MLOAD DUP1 RETURN JUMPDEST PUSH1 0x80 MLOAD DUP1 REVERT JUMPDEST CALLVALUE PUSH2 0x148 JUMPI PUSH1 0x20 PUSH1 0x3 NOT CALLDATASIZE ADD SLT PUSH2 0x148 JUMPI PUSH1 0x4 CALLDATALOAD PUSH1 0x80 MLOAD MSTORE PUSH1 0x1 PUSH1 0x20 MSTORE PUSH1 0x20 PUSH1 0x40 PUSH1 0x80 MLOAD KECCAK256 SLOAD PUSH1 0x40 MLOAD SWAP1 DUP2 MSTORE RETURN JUMPDEST CALLVALUE PUSH2 0x148 JUMPI PUSH1 0x80 PUSH1 0x3 NOT CALLDATASIZE ADD SLT PUSH2 0x148 JUMPI PUSH1 0x24 CALLDATALOAD PUSH8 0xFFFFFFFFFFFFFFFF DUP2 GT PUSH2 0x148 JUMPI PUSH2 0x1AD SWAP1 CALLDATASIZE SWAP1 PUSH1 0x4 ADD PUSH2 0x1C09 JUMP JUMPDEST PUSH1 0x44 SWAP3 SWAP2 SWAP3 CALLDATALOAD SWAP2 PUSH20 0xFFFFFFFFFFFFFFFFFFFFFFFFFFFFFFFFFFFFFFFF DUP4 AND DUP4 SUB PUSH2 0x1EE JUMPI PUSH1 0x20 PUSH2 0x1E4 PUSH1 0x64 CALLDATALOAD DUP6 DUP6 DUP9 PUSH1 0x4 CALLDATALOAD PUSH2 0x2A9F JUMP JUMPDEST PUSH1 0x40 MLOAD SWAP1 ISZERO ISZERO DUP2 MSTORE RETURN JUMPDEST DUP1 REVERT JUMPDEST CALLVALUE PUSH2 0x148 JUMPI PUSH1 0x80 MLOAD DUP1 PUSH1 0x3 NOT CALLDATASIZE ADD SLT PUSH2 0x1EE JUMPI PUSH1 0x20 SWAP1 PUSH1 0x40 MLOAD SWAP1 DUP2 MSTORE RETURN JUMPDEST CALLVALUE PUSH2 0x148 JUMPI PUSH1 0xA0 PUSH1 0x3 NOT CALLDATASIZE ADD SLT PUSH2 0x148 JUMPI PUSH1 0x4 CALLDATALOAD SWAP1 PUSH1 0x24 CALLDATALOAD SWAP2 PUSH1 0x44 CALLDATALOAD SWAP2 PUSH8 0xFFFFFFFFFFFFFFFF SWAP1 DUP2 DUP5 AND DUP1 SWAP5 SUB PUSH2 0x1EE JUMPI POP PUSH2 0x249 PUSH2 0x1A7E JUMP JUMPDEST SWAP3 PUSH1 0x84 CALLDATALOAD SWAP2 PUSH2 0x256 PUSH2 0x1F0D JUMP JUMPDEST DUP5 AND SWAP1 DUP1 DUP3 LT DUP1 ISZERO PUSH2 0x34B JUMPI JUMPDEST PUSH2 0x321 JUMPI PUSH32 0x8FD3AC39FBB3D5E9C906DD9EC439DC6E584B8FA3CE02D5B67D589B22B22152A9 SWAP6 PUSH1 0xA0 SWAP6 DUP5 PUSH1 0x80 PUSH1 0x40 MLOAD PUSH2 0x29B DUP2 PUSH2 0x1A95 JUMP JUMPDEST DUP9 DUP2 MSTORE DUP5 PUSH1 0x20 DUP3 ADD MSTORE DUP6 PUSH1 0x40 DUP3 ADD MSTORE DUP7 PUSH1 0x60 DUP3 ADD MSTORE ADD MSTORE DUP6 PUSH1 0x5 SSTORE DUP2 PUSH1 0x6 SSTORE DUP3 PUSH32 0xFFFFFFFFFFFFFFFFFFFFFFFFFFFFFFFF00000000000000000000000000000000 PUSH16 0xFFFFFFFFFFFFFFFF0000000000000000 PUSH1 0x7 SLOAD SWAP4 PUSH1 0x40 SHL AND SWAP3 AND OR OR PUSH1 0x7 SSTORE DUP4 PUSH1 0x8 SSTORE PUSH1 0x40 MLOAD SWAP5 DUP6 MSTORE PUSH1 0x20 DUP6 ADD MSTORE PUSH1 0x40 DUP5 ADD MSTORE PUSH1 0x60 DUP4 ADD MSTORE PUSH1 0x80 DUP3 ADD MSTORE LOG1 PUSH1 0x80 MLOAD DUP1 RETURN JUMPDEST PUSH1 0x4 PUSH1 0x40 MLOAD PUSH32 0x85D4A74800000000000000000000000000000000000000000000000000000000 DUP2 MSTORE REVERT JUMPDEST POP TIMESTAMP DUP3 GT ISZERO PUSH2 0x263 JUMP JUMPDEST CALLVALUE PUSH2 0x148 JUMPI PUSH1 0x40 PUSH1 0x3 NOT CALLDATASIZE ADD SLT PUSH2 0x148 JUMPI PUSH1 0xFF PUSH1 0x40 PUSH1 0x20 SWAP3 PUSH2 0x375 PUSH2 0x1A33 JUMP JUMPDEST PUSH1 0x4 CALLDATALOAD PUSH1 0x80 MLOAD MSTORE PUSH20 0xFFFFFFFFFFFFFFFFFFFFFFFFFFFFFFFFFFFFFFFF DUP4 PUSH1 0x80 MLOAD DUP1 DUP9 MSTORE KECCAK256 SWAP2 AND DUP3 MSTORE DUP5 MSTORE KECCAK256 SLOAD AND PUSH1 0x40 MLOAD SWAP1 ISZERO ISZERO DUP2 MSTORE RETURN JUMPDEST CALLVALUE PUSH2 0x148 JUMPI PUSH1 0x40 PUSH1 0x3 NOT CALLDATASIZE ADD SLT PUSH2 0x148 JUMPI PUSH1 0x4 CALLDATALOAD PUSH1 0x80 MLOAD MSTORE PUSH1 0x1 PUSH1 0x20 MSTORE PUSH1 0x20 PUSH20 0xFFFFFFFFFFFFFFFFFFFFFFFFFFFFFFFFFFFFFFFF PUSH2 0x3F1 PUSH1 0x24 CALLDATALOAD PUSH1 0x40 PUSH1 0x80 MLOAD KECCAK256 PUSH2 0x24DB JUMP JUMPDEST SWAP2 SWAP1 SLOAD PUSH1 0x40 MLOAD SWAP3 PUSH1 0x3 SHL SHR AND DUP2 MSTORE RETURN JUMPDEST CALLVALUE PUSH2 0x148 JUMPI PUSH1 0x20 PUSH1 0x3 NOT CALLDATASIZE ADD SLT PUSH2 0x148 JUMPI PUSH20 0xFFFFFFFFFFFFFFFFFFFFFFFFFFFFFFFFFFFFFFFF PUSH2 0x42F PUSH2 0x1A5B JUMP JUMPDEST PUSH2 0x437 PUSH2 0x1F0D JUMP JUMPDEST AND PUSH32 0xFFFFFFFFFFFFFFFFFFFFFFFF0000000000000000000000000000000000000000 PUSH1 0x4 SLOAD AND OR PUSH1 0x4 SSTORE PUSH1 0x80 MLOAD DUP1 RETURN JUMPDEST PUSH1 0xE0 PUSH1 0x3 NOT CALLDATASIZE ADD SLT PUSH2 0x148 JUMPI PUSH2 0x47B PUSH2 0x1A5B JUMP JUMPDEST PUSH1 0x24 CALLDATALOAD PUSH8 0xFFFFFFFFFFFFFFFF DUP2 GT PUSH2 0x148 JUMPI PUSH2 0x49B SWAP1 CALLDATASIZE SWAP1 PUSH1 0x4 ADD PUSH2 0x1B71 JUMP JUMPDEST PUSH1 0x44 CALLDATALOAD PUSH8 0xFFFFFFFFFFFFFFFF DUP2 GT PUSH2 0x148 JUMPI PUSH2 0x4BB SWAP1 CALLDATASIZE SWAP1 PUSH1 0x4 ADD PUSH2 0x1B71 JUMP JUMPDEST SWAP2 PUSH1 0x64 CALLDATALOAD SWAP2 PUSH8 0xFFFFFFFFFFFFFFFF DUP4 GT PUSH2 0x148 JUMPI CALLDATASIZE PUSH1 0x23 DUP5 ADD SLT ISZERO PUSH2 0x148 JUMPI DUP3 PUSH1 0x4 ADD CALLDATALOAD PUSH2 0x4E8 DUP2 PUSH2 0x1BCF JUMP JUMPDEST SWAP4 PUSH2 0x4F6 PUSH1 0x40 MLOAD SWAP6 DUP7 PUSH2 0x1B18 JUMP JUMPDEST DUP2 DUP6 MSTORE CALLDATASIZE PUSH1 0x24 DUP4 DUP4 ADD ADD GT PUSH2 0x148 JUMPI PUSH1 0x24 DUP3 SWAP2 ADD PUSH1 0x20 DUP7 ADD CALLDATACOPY PUSH1 0x20 PUSH1 0x80 MLOAD SWAP2 DUP6 ADD ADD MSTORE PUSH20 0xFFFFFFFFFFFFFFFFFFFFFFFFFFFFFFFFFFFFFFFF PUSH1 0x84 CALLDATALOAD AND PUSH1 0x84 CALLDATALOAD SUB PUSH2 0x148 JUMPI PUSH8 0xFFFFFFFFFFFFFFFF PUSH1 0xC4 CALLDATALOAD GT PUSH2 0x148 JUMPI PUSH2 0x55D SWAP4 SWAP2 SWAP4 CALLDATASIZE PUSH1 0xC4 CALLDATALOAD PUSH1 0x4 ADD PUSH2 0x1C09 JUMP JUMPDEST SWAP1 PUSH1 0xC0 MSTORE SWAP3 PUSH1 0x80 MLOAD SWAP3 DUP4 SWAP3 DUP5 SWAP7 PUSH2 0x572 PUSH2 0x2782 JUMP JUMPDEST PUSH1 0xA0 MSTORE PUSH2 0x5A0 PUSH8 0xFFFFFFFFFFFFFFFF PUSH1 0x40 PUSH1 0xA0 MLOAD ADD MLOAD AND PUSH8 0xFFFFFFFFFFFFFFFF PUSH1 0x60 PUSH1 0xA0 MLOAD ADD MLOAD AND SWAP1 PUSH2 0x2A4C JUMP JUMPDEST PUSH1 0x80 MLOAD PUSH1 0xE0 DUP2 SWAP1 MSTORE SWAP1 SWAP5 SWAP1 JUMPDEST DUP4 MLOAD PUSH1 0xE0 MLOAD LT ISZERO PUSH2 0x7E3 JUMPI PUSH2 0x5C3 PUSH1 0xE0 MLOAD DUP6 PUSH2 0x273A JUMP JUMPDEST MLOAD SWAP7 DUP8 PUSH1 0xE0 MLOAD ISZERO ISZERO SWAP2 DUP3 PUSH2 0x7D8 JUMPI JUMPDEST POP POP PUSH2 0x7AE JUMPI DUP7 PUSH2 0x5E5 PUSH1 0xE0 MLOAD DUP8 PUSH2 0x273A JUMP JUMPDEST MLOAD SWAP2 DUP2 PUSH1 0x80 MLOAD MSTORE PUSH1 0x9 PUSH1 0x20 MSTORE PUSH2 0x5FF PUSH1 0x40 PUSH1 0x80 MLOAD KECCAK256 PUSH2 0x27C5 JUMP JUMPDEST PUSH2 0x626 PUSH8 0xFFFFFFFFFFFFFFFF PUSH1 0x40 DUP4 ADD MLOAD AND PUSH8 0xFFFFFFFFFFFFFFFF PUSH1 0x60 DUP5 ADD MLOAD AND SWAP1 PUSH2 0x2A4C JUMP JUMPDEST ISZERO PUSH2 0x69E JUMPI POP POP DUP7 PUSH2 0x66D JUMPI POP PUSH2 0x656 SWAP1 PUSH2 0x650 PUSH1 0x1 SWAP10 PUSH2 0x64A DUP4 PUSH1 0xA0 MLOAD MLOAD PUSH2 0x22D7 JUMP JUMPDEST SWAP1 PUSH2 0x2319 JUMP JUMPDEST SWAP11 PUSH2 0x2319 JUMP JUMPDEST SWAP7 PUSH2 0x662 PUSH1 0xE0 MLOAD PUSH2 0x270D JUMP JUMPDEST PUSH1 0xE0 MSTORE SWAP9 SWAP7 SWAP9 PUSH2 0x5AC JUMP JUMPDEST PUSH1 0x24 SWAP1 PUSH1 0x40 MLOAD SWAP1 PUSH32 0x35ACF5000000000000000000000000000000000000000000000000000000000 DUP3 MSTORE PUSH1 0x4 DUP3 ADD MSTORE REVERT JUMPDEST SWAP1 SWAP10 SWAP2 PUSH1 0x80 DUP3 ADD MLOAD SWAP1 DUP13 DUP3 PUSH2 0x6C4 JUMPI JUMPDEST POP POP POP DUP3 SWAP2 PUSH2 0x64A PUSH2 0x656 SWAP5 PUSH2 0x650 SWAP4 MLOAD PUSH2 0x22D7 JUMP JUMPDEST DUP2 PUSH2 0x6D4 SWAP2 CALLER SWAP1 PUSH1 0xC0 MLOAD DUP7 PUSH2 0x2A9F JUMP JUMPDEST ISZERO PUSH2 0x72B JUMPI POP PUSH1 0x80 DUP1 MLOAD CALLER SWAP1 MSTORE PUSH1 0x2 PUSH1 0x20 SWAP1 DUP2 MSTORE DUP2 MLOAD PUSH1 0x40 DUP1 DUP3 KECCAK256 SWAP5 SWAP1 SWAP2 MSTORE SWAP3 SWAP1 MSTORE MLOAD KECCAK256 DUP1 SLOAD PUSH32 0xFFFFFFFFFFFFFFFFFFFFFFFFFFFFFFFFFFFFFFFFFFFFFFFFFFFFFFFFFFFFFF00 AND PUSH1 0x1 OR SWAP1 SSTORE DUP2 PUSH2 0x64A DUP13 PUSH2 0x6AE JUMP JUMPDEST DUP13 PUSH1 0x40 MLOAD SWAP3 PUSH32 0x265C66A800000000000000000000000000000000000000000000000000000000 DUP5 MSTORE PUSH1 0x4 DUP5 ADD MSTORE PUSH1 0x80 PUSH1 0x24 DUP5 ADD MSTORE DUP1 PUSH1 0x84 DUP5 ADD MSTORE PUSH32 0x7FFFFFFFFFFFFFFFFFFFFFFFFFFFFFFFFFFFFFFFFFFFFFFFFFFFFFFFFFFFFFF DUP2 GT PUSH2 0x148 JUMPI DUP3 SWAP1 PUSH1 0x5 SHL PUSH1 0xA4 SWAP3 DUP2 PUSH1 0xC0 MLOAD DUP6 DUP6 ADD CALLDATACOPY CALLER PUSH1 0x44 DUP5 ADD MSTORE PUSH1 0x64 DUP4 ADD MSTORE DUP2 ADD SUB ADD SWAP1 REVERT JUMPDEST PUSH1 0x4 PUSH1 0x40 MLOAD PUSH32 0x340BC4C900000000000000000000000000000000000000000000000000000000 DUP2 MSTORE REVERT JUMPDEST LT ISZERO SWAP1 POP DUP8 DUP13 PUSH2 0x5D2 JUMP JUMPDEST DUP5 DUP9 DUP11 DUP7 SWAP4 PUSH2 0xE80 JUMPI JUMPDEST POP PUSH20 0xFFFFFFFFFFFFFFFFFFFFFFFFFFFFFFFFFFFFFFFF PUSH1 0x4 SLOAD AND DUP1 PUSH20 0xFFFFFFFFFFFFFFFFFFFFFFFFFFFFFFFFFFFFFFFF PUSH1 0x84 CALLDATALOAD AND SUB PUSH2 0xE42 JUMPI POP PUSH1 0xA4 CALLDATALOAD DUP2 DUP2 LT PUSH2 0xDEC JUMPI POP PUSH1 0x84 CALLDATALOAD PUSH20 0xFFFFFFFFFFFFFFFFFFFFFFFFFFFFFFFFFFFFFFFF AND PUSH2 0xD37 JUMPI DUP1 CALLVALUE SUB PUSH2 0xCE0 JUMPI POP JUMPDEST PUSH20 0xFFFFFFFFFFFFFFFFFFFFFFFFFFFFFFFFFFFFFFFF PUSH1 0x3 SLOAD PUSH1 0x8 SHR AND PUSH1 0x80 MLOAD SWAP1 DUP4 MLOAD DUP3 SWAP1 JUMPDEST DUP1 DUP3 LT PUSH2 0xB0D JUMPI POP POP PUSH1 0x6 SLOAD SWAP1 DUP2 ISZERO ISZERO DUP1 PUSH2 0xA7F JUMPI JUMPDEST PUSH2 0x9B7 JUMPI POP POP POP PUSH20 0xFFFFFFFFFFFFFFFFFFFFFFFFFFFFFFFFFFFFFFFF PUSH1 0x3 SLOAD PUSH1 0x8 SHR AND SWAP1 DUP2 EXTCODESIZE ISZERO PUSH2 0x148 JUMPI PUSH2 0x922 SWAP5 PUSH2 0x949 PUSH2 0x934 PUSH20 0xFFFFFFFFFFFFFFFFFFFFFFFFFFFFFFFFFFFFFFFF SWAP4 PUSH1 0x40 MLOAD SWAP9 DUP10 SWAP8 DUP9 SWAP7 DUP8 SWAP7 PUSH32 0xB48AB8B600000000000000000000000000000000000000000000000000000000 DUP9 MSTORE AND PUSH1 0x4 DUP8 ADD MSTORE PUSH1 0x80 PUSH1 0x24 DUP8 ADD MSTORE PUSH1 0x84 DUP7 ADD SWAP1 PUSH2 0x274E JUMP JUMPDEST SWAP1 PUSH1 0x3 NOT DUP6 DUP4 SUB ADD PUSH1 0x44 DUP7 ADD MSTORE PUSH2 0x274E JUMP JUMPDEST PUSH1 0x3 NOT DUP4 DUP3 SUB ADD PUSH1 0x64 DUP5 ADD MSTORE PUSH1 0x80 MLOAD SWAP7 PUSH2 0x21E1 JUMP JUMPDEST SUB SWAP2 PUSH1 0x80 MLOAD SWAP1 GAS CALL DUP1 ISZERO PUSH2 0x9AA JUMPI PUSH2 0x961 JUMPI PUSH1 0x80 MLOAD DUP1 RETURN JUMPDEST PUSH8 0xFFFFFFFFFFFFFFFF DUP2 GT PUSH2 0x979 JUMPI PUSH1 0x40 MSTORE DUP1 PUSH2 0x142 JUMP JUMPDEST PUSH32 0x4E487B7100000000000000000000000000000000000000000000000000000000 PUSH1 0x80 MLOAD MSTORE PUSH1 0x41 PUSH1 0x4 MSTORE PUSH1 0x24 PUSH1 0x80 MLOAD REVERT JUMPDEST PUSH1 0x40 MLOAD RETURNDATASIZE PUSH1 0x80 MLOAD DUP3 RETURNDATACOPY RETURNDATASIZE SWAP1 REVERT JUMPDEST SWAP1 PUSH1 0x20 PUSH1 0x4 SWAP3 PUSH1 0x40 MLOAD SWAP4 DUP5 DUP1 SWAP3 PUSH32 0x18160DDD00000000000000000000000000000000000000000000000000000000 DUP3 MSTORE PUSH1 0x80 MLOAD SWAP1 GAS CALL SWAP2 DUP3 ISZERO PUSH2 0x9AA JUMPI PUSH1 0x80 MLOAD SWAP3 PUSH2 0xA49 JUMPI JUMPDEST POP PUSH2 0xA45 SWAP1 PUSH1 0x40 MLOAD SWAP4 DUP5 SWAP4 PUSH32 0xA922783000000000000000000000000000000000000000000000000000000000 DUP6 MSTORE PUSH1 0x4 DUP6 ADD PUSH1 0x40 SWAP2 SWAP5 SWAP4 SWAP3 PUSH1 0x60 DUP3 ADD SWAP6 DUP3 MSTORE PUSH1 0x20 DUP3 ADD MSTORE ADD MSTORE JUMP JUMPDEST SUB SWAP1 REVERT JUMPDEST SWAP1 SWAP2 POP PUSH1 0x20 DUP2 RETURNDATASIZE PUSH1 0x20 GT PUSH2 0xA77 JUMPI JUMPDEST DUP2 PUSH2 0xA65 PUSH1 0x20 SWAP4 DUP4 PUSH2 0x1B18 JUMP JUMPDEST DUP2 ADD SUB SLT PUSH2 0x148 JUMPI MLOAD SWAP1 PUSH2 0xA45 PUSH2 0x9FD JUMP JUMPDEST RETURNDATASIZE SWAP2 POP PUSH2 0xA58 JUMP JUMPDEST POP PUSH1 0x40 MLOAD PUSH32 0x18160DDD00000000000000000000000000000000000000000000000000000000 DUP2 MSTORE PUSH1 0x20 DUP2 PUSH1 0x4 DUP2 PUSH1 0x80 MLOAD DUP7 GAS CALL DUP1 ISZERO PUSH2 0x9AA JUMPI DUP5 DUP5 SWAP2 PUSH1 0x80 MLOAD SWAP1 PUSH2 0xAD5 JUMPI JUMPDEST PUSH2 0xACF SWAP3 SWAP4 POP PUSH2 0x2319 JUMP JUMPDEST GT PUSH2 0x893 JUMP JUMPDEST POP POP POP PUSH1 0x20 DUP2 RETURNDATASIZE PUSH1 0x20 GT PUSH2 0xB05 JUMPI JUMPDEST DUP2 PUSH2 0xAF1 PUSH1 0x20 SWAP4 DUP4 PUSH2 0x1B18 JUMP JUMPDEST DUP2 ADD SUB SLT PUSH2 0x148 JUMPI MLOAD DUP3 SWAP1 DUP2 SWAP1 DUP6 SWAP1 PUSH2 0xAC4 JUMP JUMPDEST RETURNDATASIZE SWAP2 POP PUSH2 0xAE4 JUMP JUMPDEST SWAP1 SWAP3 PUSH2 0xB19 DUP5 DUP8 PUSH2 0x273A JUMP JUMPDEST MLOAD PUSH1 0x80 MLOAD MSTORE PUSH1 0x9 PUSH1 0x20 MSTORE PUSH1 0x1 PUSH1 0x40 PUSH1 0x80 MLOAD KECCAK256 ADD SLOAD DUP1 ISZERO ISZERO DUP1 PUSH2 0xC3F JUMPI JUMPDEST PUSH2 0xB5F JUMPI POP PUSH2 0xB53 PUSH2 0xB59 SWAP2 PUSH2 0xB4C DUP7 DUP9 PUSH2 0x273A JUMP JUMPDEST MLOAD SWAP1 PUSH2 0x2319 JUMP JUMPDEST SWAP4 PUSH2 0x270D JUMP JUMPDEST SWAP1 PUSH2 0x87D JUMP JUMPDEST DUP4 DUP6 DUP8 PUSH1 0x20 PUSH2 0xB6E DUP4 DUP13 PUSH2 0x273A JUMP JUMPDEST MLOAD PUSH1 0x24 PUSH1 0x40 MLOAD DUP1 SWAP7 DUP2 SWAP4 PUSH32 0x2693EBF200000000000000000000000000000000000000000000000000000000 DUP4 MSTORE PUSH1 0x4 DUP4 ADD MSTORE PUSH1 0x80 MLOAD SWAP1 GAS CALL SWAP3 DUP4 ISZERO PUSH2 0x9AA JUMPI PUSH1 0x80 MLOAD SWAP4 PUSH2 0xC09 JUMPI JUMPDEST POP PUSH2 0xA45 SWAP2 PUSH2 0xBC4 SWAP2 PUSH2 0x273A JUMP JUMPDEST MLOAD SWAP3 PUSH1 0x40 MLOAD SWAP4 DUP5 SWAP4 PUSH32 0xA922783000000000000000000000000000000000000000000000000000000000 DUP6 MSTORE PUSH1 0x4 DUP6 ADD PUSH1 0x40 SWAP2 SWAP5 SWAP4 SWAP3 PUSH1 0x60 DUP3 ADD SWAP6 DUP3 MSTORE PUSH1 0x20 DUP3 ADD MSTORE ADD MSTORE JUMP JUMPDEST SWAP1 SWAP3 POP PUSH1 0x20 DUP2 RETURNDATASIZE PUSH1 0x20 GT PUSH2 0xC37 JUMPI JUMPDEST DUP2 PUSH2 0xC25 PUSH1 0x20 SWAP4 DUP4 PUSH2 0x1B18 JUMP JUMPDEST DUP2 ADD SUB SLT PUSH2 0x148 JUMPI MLOAD SWAP2 PUSH2 0xA45 PUSH2 0xBB6 JUMP JUMPDEST RETURNDATASIZE SWAP2 POP PUSH2 0xC18 JUMP JUMPDEST POP PUSH2 0xC4A DUP6 DUP9 PUSH2 0x273A JUMP JUMPDEST MLOAD PUSH1 0x40 MLOAD SWAP1 PUSH32 0x2693EBF200000000000000000000000000000000000000000000000000000000 DUP3 MSTORE PUSH1 0x4 DUP3 ADD MSTORE PUSH1 0x20 DUP2 PUSH1 0x24 DUP2 PUSH1 0x80 MLOAD DUP10 GAS CALL DUP1 ISZERO PUSH2 0x9AA JUMPI DUP3 SWAP2 PUSH1 0x80 MLOAD SWAP2 PUSH2 0xCA9 JUMPI JUMPDEST POP PUSH2 0xCA3 SWAP1 PUSH2 0xB4C DUP9 DUP11 PUSH2 0x273A JUMP JUMPDEST GT PUSH2 0xB36 JUMP JUMPDEST SWAP2 POP POP PUSH1 0x20 DUP2 RETURNDATASIZE PUSH1 0x20 GT PUSH2 0xCD8 JUMPI JUMPDEST DUP2 PUSH2 0xCC5 PUSH1 0x20 SWAP4 DUP4 PUSH2 0x1B18 JUMP JUMPDEST DUP2 ADD SUB SLT PUSH2 0x148 JUMPI MLOAD DUP2 SWAP1 PUSH2 0xCA3 PUSH2 0xC94 JUMP JUMPDEST RETURNDATASIZE SWAP2 POP PUSH2 0xCB8 JUMP JUMPDEST PUSH1 0x40 MLOAD PUSH32 0x1EABCFBE00000000000000000000000000000000000000000000000000000000 DUP2 MSTORE PUSH1 0x84 CALLDATALOAD PUSH20 0xFFFFFFFFFFFFFFFFFFFFFFFFFFFFFFFFFFFFFFFF AND PUSH1 0x4 DUP3 ADD MSTORE PUSH1 0x24 DUP2 ADD SWAP2 SWAP1 SWAP2 MSTORE CALLVALUE PUSH1 0x44 DUP3 ADD MSTORE PUSH1 0x64 SWAP1 REVERT JUMPDEST CALLVALUE ISZERO PUSH2 0xD7D JUMPI PUSH1 0x64 PUSH1 0x40 MLOAD PUSH32 0x1EABCFBE00000000000000000000000000000000000000000000000000000000 DUP2 MSTORE PUSH1 0x80 MLOAD PUSH1 0x4 DUP3 ADD MSTORE PUSH1 0x80 MLOAD PUSH1 0x24 DUP3 ADD MSTORE CALLVALUE PUSH1 0x44 DUP3 ADD MSTORE REVERT JUMPDEST PUSH2 0xDE7 SWAP1 PUSH1 0x40 MLOAD SWAP1 PUSH32 0x23B872DD00000000000000000000000000000000000000000000000000000000 PUSH1 0x20 DUP4 ADD MSTORE CALLER PUSH1 0x24 DUP4 ADD MSTORE ADDRESS PUSH1 0x44 DUP4 ADD MSTORE PUSH1 0x64 DUP3 ADD MSTORE PUSH1 0x64 DUP2 MSTORE PUSH2 0xDC9 DUP2 PUSH2 0x1A95 JUMP JUMPDEST PUSH20 0xFFFFFFFFFFFFFFFFFFFFFFFFFFFFFFFFFFFFFFFF PUSH1 0x84 CALLDATALOAD AND PUSH2 0x280D JUMP JUMPDEST PUSH2 0x858 JUMP JUMPDEST PUSH1 0x40 MLOAD PUSH32 0x1EABCFBE00000000000000000000000000000000000000000000000000000000 DUP2 MSTORE PUSH1 0x84 CALLDATALOAD PUSH20 0xFFFFFFFFFFFFFFFFFFFFFFFFFFFFFFFFFFFFFFFF AND PUSH1 0x4 DUP3 ADD MSTORE PUSH1 0x24 DUP2 ADD SWAP3 SWAP1 SWAP3 MSTORE PUSH1 0x44 DUP3 ADD MSTORE PUSH1 0x64 SWAP1 REVERT JUMPDEST PUSH1 0x64 SWAP2 PUSH1 0x40 MLOAD SWAP2 PUSH32 0x1EABCFBE00000000000000000000000000000000000000000000000000000000 DUP4 MSTORE PUSH1 0x4 DUP4 ADD MSTORE PUSH1 0x24 DUP3 ADD MSTORE PUSH1 0x80 MLOAD PUSH1 0x44 DUP3 ADD MSTORE REVERT JUMPDEST PUSH1 0x80 PUSH1 0xA0 MLOAD ADD MLOAD SWAP1 DUP2 PUSH2 0xE94 JUMPI JUMPDEST POP PUSH2 0x7ED JUMP JUMPDEST CALLER PUSH1 0x80 MLOAD MSTORE PUSH1 0x2 PUSH1 0x20 MSTORE PUSH1 0x80 MLOAD DUP3 PUSH1 0x40 DUP3 KECCAK256 SWAP2 MSTORE PUSH1 0x20 MSTORE PUSH1 0xFF PUSH1 0x40 PUSH1 0x80 MLOAD KECCAK256 SLOAD AND ISZERO DUP1 PUSH2 0xFB1 JUMPI JUMPDEST ISZERO PUSH2 0xF0F JUMPI POP CALLER PUSH1 0x80 MLOAD MSTORE PUSH1 0x2 PUSH1 0x20 MSTORE PUSH1 0x80 MLOAD SWAP1 PUSH1 0x40 DUP3 KECCAK256 SWAP2 MSTORE PUSH1 0x20 MSTORE PUSH1 0x40 PUSH1 0x80 MLOAD KECCAK256 PUSH1 0x1 PUSH32 0xFFFFFFFFFFFFFFFFFFFFFFFFFFFFFFFFFFFFFFFFFFFFFFFFFFFFFFFFFFFFFF00 DUP3 SLOAD AND OR SWAP1 SSTORE DUP6 DUP1 PUSH2 0xE8E JUMP JUMPDEST PUSH1 0x40 MLOAD SWAP2 PUSH32 0x265C66A800000000000000000000000000000000000000000000000000000000 DUP4 MSTORE PUSH1 0x4 DUP4 ADD MSTORE PUSH1 0x80 PUSH1 0x24 DUP4 ADD MSTORE DUP1 PUSH1 0x84 DUP4 ADD MSTORE PUSH32 0x7FFFFFFFFFFFFFFFFFFFFFFFFFFFFFFFFFFFFFFFFFFFFFFFFFFFFFFFFFFFFFF DUP2 GT PUSH2 0x148 JUMPI DUP2 PUSH1 0xA4 SWAP2 PUSH1 0x5 SHL DUP1 PUSH1 0xC0 MLOAD DUP5 DUP5 ADD CALLDATACOPY CALLER PUSH1 0x44 DUP4 ADD MSTORE PUSH32 0xFFFFFFFFFFFFFFFFFFFFFFFFFFFFFFFFFFFFFFFFFFFFFFFFFFFFFFFFFFFFFFFF PUSH1 0x64 DUP4 ADD MSTORE DUP2 ADD SUB ADD SWAP1 REVERT JUMPDEST POP SWAP5 SWAP2 SWAP6 SWAP3 PUSH1 0x40 SWAP5 SWAP2 SWAP5 MLOAD PUSH1 0x20 DUP2 ADD SWAP1 PUSH32 0xFFFFFFFFFFFFFFFFFFFFFFFFFFFFFFFFFFFFFFFF000000000000000000000000 CALLER PUSH1 0x60 SHL AND DUP3 MSTORE PUSH32 0xFFFFFFFFFFFFFFFFFFFFFFFFFFFFFFFFFFFFFFFFFFFFFFFFFFFFFFFFFFFFFFFF PUSH1 0x34 DUP3 ADD MSTORE PUSH1 0x34 DUP2 MSTORE PUSH2 0x101C DUP2 PUSH2 0x1AE0 JUMP JUMPDEST MLOAD SWAP1 KECCAK256 SWAP7 PUSH2 0x1029 DUP8 PUSH2 0x1B59 JUMP JUMPDEST SWAP8 PUSH2 0x1037 PUSH1 0x40 MLOAD SWAP10 DUP11 PUSH2 0x1B18 JUMP JUMPDEST DUP8 DUP10 MSTORE PUSH1 0x20 DUP10 ADD CALLDATASIZE DUP10 PUSH1 0x5 SHL PUSH1 0xC0 MLOAD ADD GT PUSH2 0x148 JUMPI PUSH1 0xC0 MLOAD SWAP1 JUMPDEST DUP10 PUSH1 0x5 SHL PUSH1 0xC0 MLOAD ADD DUP3 LT PUSH2 0x10C9 JUMPI POP POP SWAP6 PUSH1 0x80 MLOAD SWAP7 JUMPDEST DUP10 MLOAD DUP9 LT ISZERO PUSH2 0x10B7 JUMPI PUSH2 0x107A DUP9 DUP12 PUSH2 0x273A JUMP JUMPDEST MLOAD PUSH1 0x80 MLOAD DUP2 DUP4 LT ISZERO PUSH2 0x10A5 JUMPI POP SWAP1 PUSH1 0x80 MLOAD MSTORE PUSH1 0x20 MSTORE PUSH2 0x109F PUSH1 0x40 PUSH1 0x80 MLOAD KECCAK256 JUMPDEST SWAP8 PUSH2 0x270D JUMP JUMPDEST SWAP7 PUSH2 0x1067 JUMP JUMPDEST MSTORE PUSH1 0x20 MSTORE PUSH2 0x109F PUSH1 0x40 PUSH1 0x80 MLOAD KECCAK256 PUSH2 0x1099 JUMP JUMPDEST SWAP1 SWAP4 SWAP7 POP DUP4 SWAP2 SWAP5 SWAP8 SWAP3 SWAP6 SWAP9 POP EQ PUSH2 0xEBC JUMP JUMPDEST DUP2 CALLDATALOAD DUP2 MSTORE PUSH1 0x20 SWAP2 DUP3 ADD SWAP2 ADD PUSH2 0x1051 JUMP JUMPDEST CALLVALUE PUSH2 0x148 JUMPI PUSH1 0xC0 PUSH1 0x3 NOT CALLDATASIZE ADD SLT PUSH2 0x148 JUMPI PUSH1 0x24 CALLDATALOAD PUSH1 0x44 CALLDATALOAD PUSH1 0x4 CALLDATALOAD PUSH2 0x10FB PUSH2 0x1A7E JUMP JUMPDEST PUSH1 0x84 CALLDATALOAD PUSH8 0xFFFFFFFFFFFFFFFF SWAP4 DUP5 DUP3 AND DUP1 SWAP3 SUB PUSH2 0x148 JUMPI DUP5 PUSH1 0xA4 CALLDATALOAD SWAP4 PUSH2 0x111F PUSH2 0x1F0D JUMP JUMPDEST AND SWAP1 DUP2 DUP4 LT DUP1 ISZERO PUSH2 0x1211 JUMPI JUMPDEST PUSH2 0x321 JUMPI PUSH32 0x8CED76AEE4B96A1E218E7903610FC7D648023D9075677163A5B31396CB280F96 SWAP7 PUSH1 0xC0 SWAP7 PUSH1 0x3 PUSH1 0x40 MLOAD SWAP2 PUSH2 0x1163 DUP4 PUSH2 0x1A95 JUMP JUMPDEST DUP4 DUP4 MSTORE PUSH1 0x20 DUP4 ADD SWAP1 DUP6 DUP3 MSTORE PUSH1 0x40 DUP5 ADD SWAP1 DUP8 DUP3 MSTORE PUSH1 0x60 DUP6 ADD SWAP1 DUP10 DUP3 MSTORE PUSH1 0x80 DUP7 ADD SWAP4 DUP12 DUP6 MSTORE DUP13 PUSH1 0x80 MLOAD MSTORE PUSH1 0x9 PUSH1 0x20 MSTORE PUSH1 0x40 PUSH1 0x80 MLOAD KECCAK256 SWAP7 MLOAD DUP8 SSTORE MLOAD PUSH1 0x1 DUP8 ADD SSTORE PUSH1 0x2 DUP7 ADD SWAP3 MLOAD AND PUSH32 0xFFFFFFFFFFFFFFFFFFFFFFFFFFFFFFFF00000000000000000000000000000000 PUSH16 0xFFFFFFFFFFFFFFFF0000000000000000 DUP5 SLOAD SWAP4 MLOAD PUSH1 0x40 SHL AND SWAP3 AND OR OR SWAP1 SSTORE MLOAD SWAP2 ADD SSTORE PUSH1 0x40 MLOAD SWAP6 DUP7 MSTORE PUSH1 0x20 DUP7 ADD MSTORE PUSH1 0x40 DUP6 ADD MSTORE PUSH1 0x60 DUP5 ADD MSTORE PUSH1 0x80 DUP4 ADD MSTORE PUSH1 0xA0 DUP3 ADD MSTORE LOG1 PUSH1 0x80 MLOAD DUP1 RETURN JUMPDEST POP TIMESTAMP DUP4 GT ISZERO PUSH2 0x112B JUMP JUMPDEST CALLVALUE PUSH2 0x148 JUMPI PUSH1 0x40 PUSH1 0x3 NOT CALLDATASIZE ADD SLT PUSH2 0x148 JUMPI PUSH2 0x1234 PUSH2 0x1A5B JUMP JUMPDEST PUSH2 0x123C PUSH2 0x1A33 JUMP JUMPDEST PUSH1 0x3 SLOAD SWAP1 PUSH1 0xFF DUP3 AND PUSH2 0x151A JUMPI PUSH21 0xFFFFFFFFFFFFFFFFFFFFFFFFFFFFFFFFFFFFFFFF00 PUSH32 0xFFFFFFFFFFFFFFFFFFFFFF0000000000000000000000000000000000000000FF SWAP2 PUSH1 0x8 SHL AND SWAP2 AND OR PUSH1 0x3 SSTORE PUSH1 0x80 MLOAD DUP1 MSTORE PUSH2 0x13A2 PUSH1 0x80 MLOAD PUSH1 0x20 SWAP3 DUP2 DUP5 MSTORE PUSH20 0xFFFFFFFFFFFFFFFFFFFFFFFFFFFFFFFFFFFFFFFF PUSH1 0x40 DUP4 KECCAK256 SWAP2 AND DUP1 SWAP3 MSTORE DUP4 MSTORE PUSH1 0x80 MLOAD PUSH1 0xFF PUSH1 0x40 DUP3 KECCAK256 SLOAD AND ISZERO PUSH2 0x14AC JUMPI JUMPDEST POP PUSH1 0x80 MLOAD DUP1 MSTORE PUSH1 0x1 DUP4 DUP2 DUP1 SWAP6 MSTORE PUSH2 0x12E8 DUP4 PUSH1 0x40 PUSH1 0x80 MLOAD KECCAK256 PUSH2 0x24F3 JUMP JUMPDEST POP PUSH32 0x4C02318D8C3AADC98CCF18AEBBF3126F651E0C3F6A1DE5FF8EDCF6724A2AD5C2 DUP1 PUSH1 0x80 MLOAD MSTORE PUSH1 0x80 MLOAD DUP1 DUP4 MSTORE DUP5 PUSH1 0x40 DUP3 KECCAK256 SWAP2 MSTORE DUP3 MSTORE DUP1 PUSH1 0x80 MLOAD PUSH1 0xFF PUSH1 0x40 DUP3 KECCAK256 SLOAD AND ISZERO PUSH2 0x143F JUMPI JUMPDEST POP POP PUSH1 0x80 MLOAD MSTORE DUP2 DUP2 MSTORE PUSH2 0x1348 DUP4 PUSH1 0x40 PUSH1 0x80 MLOAD KECCAK256 PUSH2 0x24F3 JUMP JUMPDEST POP PUSH32 0x5D8E12C39142FF96D79D04D15D1BA1269E4FE57BB9D26F43523628B34BA108EC DUP1 PUSH1 0x80 MLOAD MSTORE PUSH1 0x80 MLOAD DUP1 DUP4 MSTORE DUP5 PUSH1 0x40 DUP3 KECCAK256 SWAP2 MSTORE DUP3 MSTORE DUP1 PUSH1 0x80 MLOAD PUSH1 0xFF PUSH1 0x40 DUP3 KECCAK256 SLOAD AND ISZERO PUSH2 0x13D2 JUMPI JUMPDEST POP POP PUSH1 0x80 MLOAD MSTORE MSTORE PUSH1 0x40 PUSH1 0x80 MLOAD KECCAK256 PUSH2 0x24F3 JUMP JUMPDEST POP PUSH32 0xFFFFFFFFFFFFFFFFFFFFFFFFFFFFFFFFFFFFFFFFFFFFFFFFFFFFFFFFFFFFFF00 PUSH1 0x3 SLOAD AND OR PUSH1 0x3 SSTORE PUSH1 0x80 MLOAD DUP1 RETURN JUMPDEST MSTORE PUSH1 0x80 MLOAD DUP1 DUP4 MSTORE DUP5 PUSH1 0x40 DUP3 KECCAK256 SWAP2 MSTORE DUP3 MSTORE PUSH1 0x80 MLOAD PUSH1 0x40 DUP2 KECCAK256 DUP5 PUSH32 0xFFFFFFFFFFFFFFFFFFFFFFFFFFFFFFFFFFFFFFFFFFFFFFFFFFFFFFFFFFFFFF00 DUP3 SLOAD AND OR SWAP1 SSTORE DUP5 DUP3 PUSH32 0x2F8788117E7EFF1D82E926EC794901D17C78024A50270940304540A733656F0D CALLER SWAP4 DUP1 LOG4 DUP1 DUP8 PUSH2 0x1390 JUMP JUMPDEST MSTORE PUSH1 0x80 MLOAD DUP1 DUP4 MSTORE DUP5 PUSH1 0x40 DUP3 KECCAK256 SWAP2 MSTORE DUP3 MSTORE PUSH1 0x80 MLOAD PUSH1 0x40 DUP2 KECCAK256 DUP5 PUSH32 0xFFFFFFFFFFFFFFFFFFFFFFFFFFFFFFFFFFFFFFFFFFFFFFFFFFFFFFFFFFFFFF00 DUP3 SLOAD AND OR SWAP1 SSTORE DUP5 DUP3 PUSH32 0x2F8788117E7EFF1D82E926EC794901D17C78024A50270940304540A733656F0D CALLER SWAP4 DUP1 LOG4 DUP1 DUP8 PUSH2 0x1330 JUMP JUMPDEST DUP1 MSTORE PUSH1 0x80 MLOAD DUP1 DUP5 MSTORE DUP2 PUSH1 0x40 DUP3 KECCAK256 SWAP2 MSTORE DUP4 MSTORE PUSH1 0x80 MLOAD PUSH1 0x40 DUP2 KECCAK256 PUSH1 0x1 PUSH32 0xFFFFFFFFFFFFFFFFFFFFFFFFFFFFFFFFFFFFFFFFFFFFFFFFFFFFFFFFFFFFFF00 DUP3 SLOAD AND OR SWAP1 SSTORE DUP2 CALLER SWAP2 PUSH32 0x2F8788117E7EFF1D82E926EC794901D17C78024A50270940304540A733656F0D DUP2 DUP1 LOG4 DUP4 PUSH2 0x12CC JUMP JUMPDEST PUSH1 0x4 PUSH1 0x40 MLOAD PUSH32 0xF92EE8A900000000000000000000000000000000000000000000000000000000 DUP2 MSTORE REVERT JUMPDEST CALLVALUE PUSH2 0x148 JUMPI PUSH1 0x40 PUSH1 0x3 NOT CALLDATASIZE ADD SLT PUSH2 0x148 JUMPI PUSH2 0x155D PUSH2 0x1A5B JUMP JUMPDEST PUSH2 0x1565 PUSH2 0x1C3A JUMP JUMPDEST PUSH1 0x80 MLOAD DUP1 DUP1 DUP1 SWAP4 PUSH1 0x24 CALLDATALOAD SWAP1 GAS CALL PUSH2 0x157A PUSH2 0x2950 JUMP JUMPDEST POP ISZERO PUSH2 0x1586 JUMPI PUSH1 0x80 MLOAD DUP1 RETURN JUMPDEST PUSH1 0x4 PUSH1 0x40 MLOAD PUSH32 0x750B219C00000000000000000000000000000000000000000000000000000000 DUP2 MSTORE REVERT JUMPDEST CALLVALUE PUSH2 0x148 JUMPI PUSH1 0x60 PUSH1 0x3 NOT CALLDATASIZE ADD SLT PUSH2 0x148 JUMPI PUSH2 0x15C9 PUSH2 0x1A5B JUMP JUMPDEST PUSH2 0x15D1 PUSH2 0x1A33 JUMP JUMPDEST PUSH2 0x15D9 PUSH2 0x1C3A JUMP JUMPDEST PUSH1 0x40 MLOAD SWAP1 PUSH32 0xA9059CBB00000000000000000000000000000000000000000000000000000000 PUSH1 0x20 DUP4 ADD MSTORE PUSH20 0xFFFFFFFFFFFFFFFFFFFFFFFFFFFFFFFFFFFFFFFF DUP1 SWAP2 AND PUSH1 0x24 DUP4 ADD MSTORE PUSH1 0x44 CALLDATALOAD PUSH1 0x44 DUP4 ADD MSTORE PUSH1 0x44 DUP3 MSTORE PUSH1 0x80 DUP3 ADD SWAP3 DUP3 DUP5 LT PUSH8 0xFFFFFFFFFFFFFFFF DUP6 GT OR PUSH2 0x979 JUMPI PUSH2 0x142 SWAP4 PUSH1 0x40 MSTORE AND PUSH2 0x280D JUMP JUMPDEST CALLVALUE PUSH2 0x148 JUMPI PUSH1 0x40 PUSH1 0x3 NOT CALLDATASIZE ADD SLT PUSH2 0x148 JUMPI PUSH2 0x166A PUSH2 0x1A33 JUMP JUMPDEST CALLER PUSH20 0xFFFFFFFFFFFFFFFFFFFFFFFFFFFFFFFFFFFFFFFF DUP3 AND SUB PUSH2 0x1693 JUMPI PUSH2 0x142 SWAP1 PUSH1 0x4 CALLDATALOAD PUSH2 0x2224 JUMP JUMPDEST PUSH1 0x84 PUSH1 0x40 MLOAD PUSH32 0x8C379A000000000000000000000000000000000000000000000000000000000 DUP2 MSTORE PUSH1 0x20 PUSH1 0x4 DUP3 ADD MSTORE PUSH1 0x2F PUSH1 0x24 DUP3 ADD MSTORE PUSH32 0x416363657373436F6E74726F6C3A2063616E206F6E6C792072656E6F756E6365 PUSH1 0x44 DUP3 ADD MSTORE PUSH32 0x20726F6C657320666F722073656C660000000000000000000000000000000000 PUSH1 0x64 DUP3 ADD MSTORE REVERT JUMPDEST CALLVALUE PUSH2 0x148 JUMPI PUSH1 0x80 MLOAD DUP1 PUSH1 0x3 NOT CALLDATASIZE ADD SLT PUSH2 0x1EE JUMPI PUSH1 0x20 PUSH20 0xFFFFFFFFFFFFFFFFFFFFFFFFFFFFFFFFFFFFFFFF PUSH1 0x4 SLOAD AND PUSH1 0x40 MLOAD SWAP1 DUP2 MSTORE RETURN JUMPDEST CALLVALUE PUSH2 0x148 JUMPI PUSH1 0x40 PUSH1 0x3 NOT CALLDATASIZE ADD SLT PUSH2 0x148 JUMPI PUSH2 0x17DB PUSH1 0x4 CALLDATALOAD PUSH1 0x1 PUSH2 0x176E PUSH2 0x1A33 JUMP JUMPDEST SWAP2 DUP1 PUSH1 0x80 MLOAD MSTORE PUSH1 0x80 MLOAD SWAP1 PUSH2 0x178C DUP4 PUSH1 0x40 PUSH1 0x20 SWAP5 DUP1 DUP7 MSTORE KECCAK256 ADD SLOAD PUSH2 0x2083 JUMP JUMPDEST DUP1 PUSH1 0x80 MLOAD MSTORE PUSH1 0x80 MLOAD SWAP4 DUP5 DUP4 MSTORE PUSH20 0xFFFFFFFFFFFFFFFFFFFFFFFFFFFFFFFFFFFFFFFF PUSH1 0x40 DUP7 KECCAK256 SWAP2 AND DUP1 SWAP6 MSTORE DUP3 MSTORE DUP1 PUSH1 0x80 MLOAD PUSH1 0xFF PUSH1 0x40 DUP3 KECCAK256 SLOAD AND ISZERO PUSH2 0x17E2 JUMPI POP POP PUSH1 0x80 MLOAD MSTORE MSTORE PUSH1 0x40 PUSH1 0x80 MLOAD KECCAK256 PUSH2 0x24F3 JUMP JUMPDEST POP PUSH1 0x80 MLOAD DUP1 RETURN JUMPDEST MSTORE PUSH1 0x80 MLOAD DUP1 DUP4 MSTORE DUP5 PUSH1 0x40 DUP3 KECCAK256 SWAP2 MSTORE DUP3 MSTORE PUSH1 0x80 MLOAD PUSH1 0x40 DUP2 KECCAK256 DUP5 PUSH32 0xFFFFFFFFFFFFFFFFFFFFFFFFFFFFFFFFFFFFFFFFFFFFFFFFFFFFFFFFFFFFFF00 DUP3 SLOAD AND OR SWAP1 SSTORE DUP5 DUP3 PUSH32 0x2F8788117E7EFF1D82E926EC794901D17C78024A50270940304540A733656F0D CALLER SWAP4 DUP1 LOG4 DUP1 DUP7 PUSH2 0x1390 JUMP JUMPDEST CALLVALUE PUSH2 0x148 JUMPI PUSH1 0x20 PUSH1 0x3 NOT CALLDATASIZE ADD SLT PUSH2 0x148 JUMPI PUSH1 0x4 CALLDATALOAD PUSH1 0x80 MLOAD MSTORE PUSH1 0x20 PUSH1 0x1 PUSH1 0x40 PUSH1 0x80 MLOAD DUP1 DUP5 MSTORE KECCAK256 ADD SLOAD PUSH1 0x40 MLOAD SWAP1 DUP2 MSTORE RETURN JUMPDEST CALLVALUE PUSH2 0x148 JUMPI PUSH1 0x80 MLOAD DUP1 PUSH1 0x3 NOT CALLDATASIZE ADD SLT PUSH2 0x1EE JUMPI PUSH2 0x1899 PUSH2 0x2A74 JUMP JUMPDEST POP PUSH2 0x18EC PUSH2 0x18A5 PUSH2 0x2782 JUMP JUMPDEST PUSH1 0x40 MLOAD SWAP2 DUP3 SWAP2 DUP3 SWAP2 SWAP1 SWAP2 PUSH1 0x80 DUP1 PUSH1 0xA0 DUP4 ADD SWAP5 DUP1 MLOAD DUP5 MSTORE PUSH1 0x20 DUP2 ADD MLOAD PUSH1 0x20 DUP6 ADD MSTORE PUSH8 0xFFFFFFFFFFFFFFFF DUP1 PUSH1 0x40 DUP4 ADD MLOAD AND PUSH1 0x40 DUP7 ADD MSTORE PUSH1 0x60 DUP3 ADD MLOAD AND PUSH1 0x60 DUP6 ADD MSTORE ADD MLOAD SWAP2 ADD MSTORE JUMP JUMPDEST SUB SWAP1 RETURN JUMPDEST CALLVALUE PUSH2 0x148 JUMPI PUSH1 0x20 PUSH1 0x3 NOT CALLDATASIZE ADD SLT PUSH2 0x148 JUMPI PUSH2 0x1909 PUSH2 0x2A74 JUMP JUMPDEST POP PUSH1 0x4 CALLDATALOAD PUSH1 0x80 MLOAD MSTORE PUSH1 0x9 PUSH1 0x20 MSTORE PUSH2 0x18EC PUSH2 0x18A5 PUSH1 0x40 PUSH1 0x80 MLOAD KECCAK256 PUSH2 0x27C5 JUMP JUMPDEST CALLVALUE PUSH2 0x1A2F JUMPI PUSH1 0x20 PUSH1 0x3 NOT CALLDATASIZE ADD SLT PUSH2 0x1A2F JUMPI PUSH1 0x4 CALLDATALOAD PUSH32 0xFFFFFFFF00000000000000000000000000000000000000000000000000000000 DUP2 AND DUP1 SWAP2 SUB PUSH2 0x1A2B JUMPI PUSH1 0x20 SWAP3 POP DUP1 PUSH32 0x49007A5F00000000000000000000000000000000000000000000000000000000 EQ SWAP1 DUP2 ISZERO PUSH2 0x199B JUMPI JUMPDEST POP ISZERO ISZERO DUP2 MSTORE RETURN JUMPDEST PUSH32 0x5A05180F00000000000000000000000000000000000000000000000000000000 DUP2 EQ SWAP2 POP DUP2 ISZERO PUSH2 0x19CE JUMPI JUMPDEST POP DUP4 PUSH2 0x1994 JUMP JUMPDEST PUSH32 0x7965DB0B00000000000000000000000000000000000000000000000000000000 DUP2 EQ SWAP2 POP DUP2 ISZERO PUSH2 0x1A01 JUMPI JUMPDEST POP DUP4 PUSH2 0x19C7 JUMP JUMPDEST PUSH32 0x1FFC9A700000000000000000000000000000000000000000000000000000000 SWAP2 POP EQ DUP4 PUSH2 0x19FA JUMP JUMPDEST DUP3 DUP1 REVERT JUMPDEST POP DUP1 REVERT JUMPDEST PUSH1 0x24 CALLDATALOAD SWAP1 PUSH20 0xFFFFFFFFFFFFFFFFFFFFFFFFFFFFFFFFFFFFFFFF DUP3 AND DUP3 SUB PUSH2 0x1A56 JUMPI JUMP JUMPDEST PUSH1 0x0 DUP1 REVERT JUMPDEST PUSH1 0x4 CALLDATALOAD SWAP1 PUSH20 0xFFFFFFFFFFFFFFFFFFFFFFFFFFFFFFFFFFFFFFFF DUP3 AND DUP3 SUB PUSH2 0x1A56 JUMPI JUMP JUMPDEST PUSH1 0x64 CALLDATALOAD SWAP1 PUSH8 0xFFFFFFFFFFFFFFFF DUP3 AND DUP3 SUB PUSH2 0x1A56 JUMPI JUMP JUMPDEST PUSH1 0xA0 DUP2 ADD SWAP1 DUP2 LT PUSH8 0xFFFFFFFFFFFFFFFF DUP3 GT OR PUSH2 0x1AB1 JUMPI PUSH1 0x40 MSTORE JUMP JUMPDEST PUSH32 0x4E487B7100000000000000000000000000000000000000000000000000000000 PUSH1 0x0 MSTORE PUSH1 0x41 PUSH1 0x4 MSTORE PUSH1 0x24 PUSH1 0x0 REVERT JUMPDEST PUSH1 0x60 DUP2 ADD SWAP1 DUP2 LT PUSH8 0xFFFFFFFFFFFFFFFF DUP3 GT OR PUSH2 0x1AB1 JUMPI PUSH1 0x40 MSTORE JUMP JUMPDEST PUSH1 0x80 DUP2 ADD SWAP1 DUP2 LT PUSH8 0xFFFFFFFFFFFFFFFF DUP3 GT OR PUSH2 0x1AB1 JUMPI PUSH1 0x40 MSTORE JUMP JUMPDEST SWAP1 PUSH1 0x1F PUSH32 0xFFFFFFFFFFFFFFFFFFFFFFFFFFFFFFFFFFFFFFFFFFFFFFFFFFFFFFFFFFFFFFE0 SWAP2 ADD AND DUP2 ADD SWAP1 DUP2 LT PUSH8 0xFFFFFFFFFFFFFFFF DUP3 GT OR PUSH2 0x1AB1 JUMPI PUSH1 0x40 MSTORE JUMP JUMPDEST PUSH8 0xFFFFFFFFFFFFFFFF DUP2 GT PUSH2 0x1AB1 JUMPI PUSH1 0x5 SHL PUSH1 0x20 ADD SWAP1 JUMP JUMPDEST DUP2 PUSH1 0x1F DUP3 ADD SLT ISZERO PUSH2 0x1A56 JUMPI DUP1 CALLDATALOAD SWAP2 PUSH2 0x1B88 DUP4 PUSH2 0x1B59 JUMP JUMPDEST SWAP3 PUSH2 0x1B96 PUSH1 0x40 MLOAD SWAP5 DUP6 PUSH2 0x1B18 JUMP JUMPDEST DUP1 DUP5 MSTORE PUSH1 0x20 SWAP3 DUP4 DUP1 DUP7 ADD SWAP3 PUSH1 0x5 SHL DUP3 ADD ADD SWAP3 DUP4 GT PUSH2 0x1A56 JUMPI DUP4 ADD SWAP1 JUMPDEST DUP3 DUP3 LT PUSH2 0x1BC0 JUMPI POP POP POP POP SWAP1 JUMP JUMPDEST DUP2 CALLDATALOAD DUP2 MSTORE SWAP1 DUP4 ADD SWAP1 DUP4 ADD PUSH2 0x1BB2 JUMP JUMPDEST PUSH8 0xFFFFFFFFFFFFFFFF DUP2 GT PUSH2 0x1AB1 JUMPI PUSH1 0x1F ADD PUSH32 0xFFFFFFFFFFFFFFFFFFFFFFFFFFFFFFFFFFFFFFFFFFFFFFFFFFFFFFFFFFFFFFE0 AND PUSH1 0x20 ADD SWAP1 JUMP JUMPDEST SWAP2 DUP2 PUSH1 0x1F DUP5 ADD SLT ISZERO PUSH2 0x1A56 JUMPI DUP3 CALLDATALOAD SWAP2 PUSH8 0xFFFFFFFFFFFFFFFF DUP4 GT PUSH2 0x1A56 JUMPI PUSH1 0x20 DUP1 DUP6 ADD SWAP5 DUP5 PUSH1 0x5 SHL ADD ADD GT PUSH2 0x1A56 JUMPI JUMP JUMPDEST CALLER PUSH1 0x0 SWAP1 DUP2 MSTORE PUSH32 0x20BE27040B8E00DF40BCA0DF34743417F3574A156386188F7D7F14369E5EE82B PUSH1 0x20 SWAP1 DUP2 MSTORE PUSH1 0x40 DUP1 DUP4 KECCAK256 SLOAD SWAP1 SWAP3 PUSH32 0x5D8E12C39142FF96D79D04D15D1BA1269E4FE57BB9D26F43523628B34BA108EC SWAP2 PUSH1 0xFF AND ISZERO PUSH2 0x1C9E JUMPI POP POP POP POP JUMP JUMPDEST PUSH2 0x1CA7 CALLER PUSH2 0x2366 JUMP JUMPDEST SWAP2 DUP5 MLOAD SWAP1 PUSH2 0x1CB4 DUP3 PUSH2 0x1AFC JUMP JUMPDEST PUSH1 0x42 DUP3 MSTORE DUP5 DUP3 ADD SWAP3 PUSH1 0x60 CALLDATASIZE DUP6 CALLDATACOPY DUP3 MLOAD ISZERO PUSH2 0x1EE0 JUMPI PUSH1 0x30 DUP5 MSTORE8 DUP3 MLOAD SWAP1 PUSH1 0x1 SWAP2 DUP3 LT ISZERO PUSH2 0x1EE0 JUMPI SWAP1 PUSH1 0x78 PUSH1 0x21 DUP6 ADD MSTORE8 PUSH1 0x41 SWAP2 JUMPDEST DUP2 DUP4 GT PUSH2 0x1E15 JUMPI POP POP POP PUSH2 0x1DB9 JUMPI PUSH1 0x48 PUSH2 0xA45 SWAP4 DUP7 SWAP4 PUSH2 0x1D83 SWAP4 PUSH2 0x1D74 SWAP9 MLOAD SWAP9 DUP10 SWAP4 PUSH32 0x416363657373436F6E74726F6C3A206163636F756E7420000000000000000000 DUP11 DUP7 ADD MSTORE PUSH2 0x1D3F DUP2 MLOAD DUP1 SWAP3 DUP13 PUSH1 0x37 DUP10 ADD SWAP2 ADD PUSH2 0x21BE JUMP JUMPDEST DUP5 ADD SWAP2 PUSH32 0x206973206D697373696E6720726F6C6520000000000000000000000000000000 PUSH1 0x37 DUP5 ADD MSTORE MLOAD DUP1 SWAP4 DUP7 DUP5 ADD SWAP1 PUSH2 0x21BE JUMP JUMPDEST ADD SUB PUSH1 0x28 DUP2 ADD DUP8 MSTORE ADD DUP6 PUSH2 0x1B18 JUMP JUMPDEST MLOAD SWAP3 DUP4 SWAP3 PUSH32 0x8C379A000000000000000000000000000000000000000000000000000000000 DUP5 MSTORE PUSH1 0x4 DUP5 ADD MSTORE PUSH1 0x24 DUP4 ADD SWAP1 PUSH2 0x21E1 JUMP JUMPDEST PUSH1 0x64 DUP5 DUP7 MLOAD SWAP1 PUSH32 0x8C379A000000000000000000000000000000000000000000000000000000000 DUP3 MSTORE DUP1 PUSH1 0x4 DUP4 ADD MSTORE PUSH1 0x24 DUP3 ADD MSTORE PUSH32 0x537472696E67733A20686578206C656E67746820696E73756666696369656E74 PUSH1 0x44 DUP3 ADD MSTORE REVERT JUMPDEST SWAP1 SWAP2 SWAP3 PUSH1 0xF DUP2 AND PUSH1 0x10 DUP2 LT ISZERO PUSH2 0x1EB3 JUMPI PUSH32 0x3031323334353637383961626364656600000000000000000000000000000000 SWAP1 BYTE PUSH2 0x1E52 DUP6 DUP8 PUSH2 0x2326 JUMP JUMPDEST MSTORE8 PUSH1 0x4 SHR SWAP3 DUP1 ISZERO PUSH2 0x1E86 JUMPI PUSH32 0xFFFFFFFFFFFFFFFFFFFFFFFFFFFFFFFFFFFFFFFFFFFFFFFFFFFFFFFFFFFFFFFF ADD SWAP2 SWAP1 PUSH2 0x1CE5 JUMP JUMPDEST PUSH1 0x24 DUP3 PUSH32 0x4E487B7100000000000000000000000000000000000000000000000000000000 DUP2 MSTORE PUSH1 0x11 PUSH1 0x4 MSTORE REVERT JUMPDEST PUSH1 0x24 DUP4 PUSH32 0x4E487B7100000000000000000000000000000000000000000000000000000000 DUP2 MSTORE PUSH1 0x32 PUSH1 0x4 MSTORE REVERT JUMPDEST DUP1 PUSH32 0x4E487B7100000000000000000000000000000000000000000000000000000000 PUSH1 0x24 SWAP3 MSTORE PUSH1 0x32 PUSH1 0x4 MSTORE REVERT JUMPDEST CALLER PUSH1 0x0 SWAP1 DUP2 MSTORE PUSH32 0x6058EE1F1C102E8AC9EF0C4319964E42C1AB00DFBA021F8302FD0802656934AC PUSH1 0x20 SWAP1 DUP2 MSTORE PUSH1 0x40 DUP1 DUP4 KECCAK256 SLOAD SWAP1 SWAP3 PUSH32 0x4C02318D8C3AADC98CCF18AEBBF3126F651E0C3F6A1DE5FF8EDCF6724A2AD5C2 SWAP2 PUSH1 0xFF AND ISZERO PUSH2 0x1F71 JUMPI POP POP POP POP JUMP JUMPDEST PUSH2 0x1F7A CALLER PUSH2 0x2366 JUMP JUMPDEST SWAP2 DUP5 MLOAD SWAP1 PUSH2 0x1F87 DUP3 PUSH2 0x1AFC JUMP JUMPDEST PUSH1 0x42 DUP3 MSTORE DUP5 DUP3 ADD SWAP3 PUSH1 0x60 CALLDATASIZE DUP6 CALLDATACOPY DUP3 MLOAD ISZERO PUSH2 0x1EE0 JUMPI PUSH1 0x30 DUP5 MSTORE8 DUP3 MLOAD SWAP1 PUSH1 0x1 SWAP2 DUP3 LT ISZERO PUSH2 0x1EE0 JUMPI SWAP1 PUSH1 0x78 PUSH1 0x21 DUP6 ADD MSTORE8 PUSH1 0x41 SWAP2 JUMPDEST DUP2 DUP4 GT PUSH2 0x2012 JUMPI POP POP POP PUSH2 0x1DB9 JUMPI PUSH1 0x48 PUSH2 0xA45 SWAP4 DUP7 SWAP4 PUSH2 0x1D83 SWAP4 PUSH2 0x1D74 SWAP9 MLOAD SWAP9 DUP10 SWAP4 PUSH32 0x416363657373436F6E74726F6C3A206163636F756E7420000000000000000000 DUP11 DUP7 ADD MSTORE PUSH2 0x1D3F DUP2 MLOAD DUP1 SWAP3 DUP13 PUSH1 0x37 DUP10 ADD SWAP2 ADD PUSH2 0x21BE JUMP JUMPDEST SWAP1 SWAP2 SWAP3 PUSH1 0xF DUP2 AND PUSH1 0x10 DUP2 LT ISZERO PUSH2 0x1EB3 JUMPI PUSH32 0x3031323334353637383961626364656600000000000000000000000000000000 SWAP1 BYTE PUSH2 0x204F DUP6 DUP8 PUSH2 0x2326 JUMP JUMPDEST MSTORE8 PUSH1 0x4 SHR SWAP3 DUP1 ISZERO PUSH2 0x1E86 JUMPI PUSH32 0xFFFFFFFFFFFFFFFFFFFFFFFFFFFFFFFFFFFFFFFFFFFFFFFFFFFFFFFFFFFFFFFF ADD SWAP2 SWAP1 PUSH2 0x1FB8 JUMP JUMPDEST PUSH1 0x0 SWAP1 DUP1 DUP3 MSTORE PUSH1 0x20 SWAP1 DUP3 DUP3 MSTORE PUSH1 0x40 SWAP3 DUP4 DUP2 KECCAK256 CALLER DUP3 MSTORE DUP4 MSTORE PUSH1 0xFF DUP5 DUP3 KECCAK256 SLOAD AND ISZERO PUSH2 0x20AC JUMPI POP POP POP POP JUMP JUMPDEST PUSH2 0x20B5 CALLER PUSH2 0x2366 JUMP JUMPDEST SWAP2 DUP5 MLOAD SWAP1 PUSH2 0x20C2 DUP3 PUSH2 0x1AFC JUMP JUMPDEST PUSH1 0x42 DUP3 MSTORE DUP5 DUP3 ADD SWAP3 PUSH1 0x60 CALLDATASIZE DUP6 CALLDATACOPY DUP3 MLOAD ISZERO PUSH2 0x1EE0 JUMPI PUSH1 0x30 DUP5 MSTORE8 DUP3 MLOAD SWAP1 PUSH1 0x1 SWAP2 DUP3 LT ISZERO PUSH2 0x1EE0 JUMPI SWAP1 PUSH1 0x78 PUSH1 0x21 DUP6 ADD MSTORE8 PUSH1 0x41 SWAP2 JUMPDEST DUP2 DUP4 GT PUSH2 0x214D JUMPI POP POP POP PUSH2 0x1DB9 JUMPI PUSH1 0x48 PUSH2 0xA45 SWAP4 DUP7 SWAP4 PUSH2 0x1D83 SWAP4 PUSH2 0x1D74 SWAP9 MLOAD SWAP9 DUP10 SWAP4 PUSH32 0x416363657373436F6E74726F6C3A206163636F756E7420000000000000000000 DUP11 DUP7 ADD MSTORE PUSH2 0x1D3F DUP2 MLOAD DUP1 SWAP3 DUP13 PUSH1 0x37 DUP10 ADD SWAP2 ADD PUSH2 0x21BE JUMP JUMPDEST SWAP1 SWAP2 SWAP3 PUSH1 0xF DUP2 AND PUSH1 0x10 DUP2 LT ISZERO PUSH2 0x1EB3 JUMPI PUSH32 0x3031323334353637383961626364656600000000000000000000000000000000 SWAP1 BYTE PUSH2 0x218A DUP6 DUP8 PUSH2 0x2326 JUMP JUMPDEST MSTORE8 PUSH1 0x4 SHR SWAP3 DUP1 ISZERO PUSH2 0x1E86 JUMPI PUSH32 0xFFFFFFFFFFFFFFFFFFFFFFFFFFFFFFFFFFFFFFFFFFFFFFFFFFFFFFFFFFFFFFFF ADD SWAP2 SWAP1 PUSH2 0x20F3 JUMP JUMPDEST PUSH1 0x0 JUMPDEST DUP4 DUP2 LT PUSH2 0x21D1 JUMPI POP POP PUSH1 0x0 SWAP2 ADD MSTORE JUMP JUMPDEST DUP2 DUP2 ADD MLOAD DUP4 DUP3 ADD MSTORE PUSH1 0x20 ADD PUSH2 0x21C1 JUMP JUMPDEST SWAP1 PUSH32 0xFFFFFFFFFFFFFFFFFFFFFFFFFFFFFFFFFFFFFFFFFFFFFFFFFFFFFFFFFFFFFFE0 PUSH1 0x1F PUSH1 0x20 SWAP4 PUSH2 0x221D DUP2 MLOAD DUP1 SWAP3 DUP2 DUP8 MSTORE DUP8 DUP1 DUP9 ADD SWAP2 ADD PUSH2 0x21BE JUMP JUMPDEST ADD AND ADD ADD SWAP1 JUMP JUMPDEST SWAP1 PUSH1 0x40 PUSH2 0x226F SWAP3 PUSH1 0x0 SWAP1 DUP1 DUP3 MSTORE DUP2 PUSH1 0x20 MSTORE PUSH20 0xFFFFFFFFFFFFFFFFFFFFFFFFFFFFFFFFFFFFFFFF DUP4 DUP4 KECCAK256 SWAP5 AND SWAP4 DUP5 DUP4 MSTORE PUSH1 0x20 MSTORE PUSH1 0xFF DUP4 DUP4 KECCAK256 SLOAD AND PUSH2 0x2272 JUMPI JUMPDEST DUP2 MSTORE PUSH1 0x1 PUSH1 0x20 MSTORE KECCAK256 PUSH2 0x25B4 JUMP JUMPDEST POP JUMP JUMPDEST DUP1 DUP3 MSTORE DUP2 PUSH1 0x20 MSTORE DUP3 DUP3 KECCAK256 DUP5 DUP4 MSTORE PUSH1 0x20 MSTORE DUP3 DUP3 KECCAK256 PUSH32 0xFFFFFFFFFFFFFFFFFFFFFFFFFFFFFFFFFFFFFFFFFFFFFFFFFFFFFFFFFFFFFF00 DUP2 SLOAD AND SWAP1 SSTORE CALLER DUP5 DUP3 PUSH32 0xF6391F5C32D9C69D2A47EA670B442974B53935D1EDC7FD64EB21E047A839171B DUP6 DUP1 LOG4 PUSH2 0x2262 JUMP JUMPDEST DUP2 DUP2 MUL SWAP3 SWAP2 DUP2 ISZERO SWAP2 DUP5 DIV EQ OR ISZERO PUSH2 0x22EA JUMPI JUMP JUMPDEST PUSH32 0x4E487B7100000000000000000000000000000000000000000000000000000000 PUSH1 0x0 MSTORE PUSH1 0x11 PUSH1 0x4 MSTORE PUSH1 0x24 PUSH1 0x0 REVERT JUMPDEST SWAP2 SWAP1 DUP3 ADD DUP1 SWAP3 GT PUSH2 0x22EA JUMPI JUMP JUMPDEST SWAP1 DUP2 MLOAD DUP2 LT ISZERO PUSH2 0x2337 JUMPI ADD PUSH1 0x20 ADD SWAP1 JUMP JUMPDEST PUSH32 0x4E487B7100000000000000000000000000000000000000000000000000000000 PUSH1 0x0 MSTORE PUSH1 0x32 PUSH1 0x4 MSTORE PUSH1 0x24 PUSH1 0x0 REVERT JUMPDEST PUSH1 0x40 MLOAD SWAP1 PUSH2 0x2373 DUP3 PUSH2 0x1AE0 JUMP JUMPDEST PUSH1 0x2A DUP3 MSTORE PUSH1 0x20 DUP3 ADD PUSH1 0x40 CALLDATASIZE DUP3 CALLDATACOPY DUP3 MLOAD ISZERO PUSH2 0x2337 JUMPI PUSH1 0x30 SWAP1 MSTORE8 DUP2 MLOAD PUSH1 0x1 SWAP1 DUP2 LT ISZERO PUSH2 0x2337 JUMPI PUSH1 0x78 PUSH1 0x21 DUP5 ADD MSTORE8 PUSH1 0x29 SWAP1 JUMPDEST DUP1 DUP3 GT PUSH2 0x2410 JUMPI POP POP PUSH2 0x23B2 JUMPI SWAP1 JUMP JUMPDEST PUSH1 0x64 PUSH1 0x40 MLOAD PUSH32 0x8C379A000000000000000000000000000000000000000000000000000000000 DUP2 MSTORE PUSH1 0x20 PUSH1 0x4 DUP3 ADD MSTORE PUSH1 0x20 PUSH1 0x24 DUP3 ADD MSTORE PUSH32 0x537472696E67733A20686578206C656E67746820696E73756666696369656E74 PUSH1 0x44 DUP3 ADD MSTORE REVERT JUMPDEST SWAP1 SWAP2 PUSH1 0xF DUP2 AND PUSH1 0x10 DUP2 LT ISZERO PUSH2 0x24AD JUMPI PUSH32 0x3031323334353637383961626364656600000000000000000000000000000000 SWAP1 BYTE PUSH2 0x244C DUP5 DUP7 PUSH2 0x2326 JUMP JUMPDEST MSTORE8 PUSH1 0x4 SHR SWAP2 DUP1 ISZERO PUSH2 0x247F JUMPI PUSH32 0xFFFFFFFFFFFFFFFFFFFFFFFFFFFFFFFFFFFFFFFFFFFFFFFFFFFFFFFFFFFFFFFF ADD SWAP1 PUSH2 0x23A2 JUMP JUMPDEST PUSH1 0x24 PUSH1 0x0 PUSH32 0x4E487B7100000000000000000000000000000000000000000000000000000000 DUP2 MSTORE PUSH1 0x11 PUSH1 0x4 MSTORE REVERT JUMPDEST PUSH1 0x24 PUSH1 0x0 PUSH32 0x4E487B7100000000000000000000000000000000000000000000000000000000 DUP2 MSTORE PUSH1 0x32 PUSH1 0x4 MSTORE REVERT JUMPDEST DUP1 SLOAD DUP3 LT ISZERO PUSH2 0x2337 JUMPI PUSH1 0x0 MSTORE PUSH1 0x20 PUSH1 0x0 KECCAK256 ADD SWAP1 PUSH1 0x0 SWAP1 JUMP JUMPDEST SWAP2 SWAP1 PUSH1 0x1 DUP4 ADD PUSH1 0x0 SWAP1 DUP3 DUP3 MSTORE DUP1 PUSH1 0x20 MSTORE PUSH1 0x40 DUP3 KECCAK256 SLOAD ISZERO PUSH1 0x0 EQ PUSH2 0x25AE JUMPI DUP5 SLOAD SWAP5 PUSH9 0x10000000000000000 DUP7 LT ISZERO PUSH2 0x2581 JUMPI DUP4 PUSH2 0x2571 PUSH2 0x253C DUP9 PUSH1 0x1 PUSH1 0x40 SWAP9 SWAP10 SWAP11 ADD DUP6 SSTORE DUP5 PUSH2 0x24DB JUMP JUMPDEST DUP2 SWAP4 SWAP2 SLOAD SWAP1 PUSH32 0xFFFFFFFFFFFFFFFFFFFFFFFFFFFFFFFFFFFFFFFFFFFFFFFFFFFFFFFFFFFFFFFF SWAP1 PUSH1 0x3 SHL SWAP3 DUP4 SHL SWAP3 SHL NOT AND OR SWAP1 JUMP JUMPDEST SWAP1 SSTORE SLOAD SWAP4 DUP3 MSTORE PUSH1 0x20 MSTORE KECCAK256 SSTORE PUSH1 0x1 SWAP1 JUMP JUMPDEST PUSH1 0x24 DUP4 PUSH32 0x4E487B7100000000000000000000000000000000000000000000000000000000 DUP2 MSTORE PUSH1 0x41 PUSH1 0x4 MSTORE REVERT JUMPDEST POP SWAP3 POP POP JUMP JUMPDEST SWAP1 PUSH1 0x1 DUP3 ADD SWAP1 PUSH1 0x0 SWAP3 DUP2 DUP5 MSTORE DUP3 PUSH1 0x20 MSTORE PUSH1 0x40 DUP5 KECCAK256 SLOAD SWAP1 DUP2 ISZERO ISZERO PUSH1 0x0 EQ PUSH2 0x2706 JUMPI PUSH32 0xFFFFFFFFFFFFFFFFFFFFFFFFFFFFFFFFFFFFFFFFFFFFFFFFFFFFFFFFFFFFFFFF SWAP2 DUP3 DUP2 ADD DUP2 DUP2 GT PUSH2 0x26D9 JUMPI DUP3 SLOAD SWAP1 DUP5 DUP3 ADD SWAP2 DUP3 GT PUSH2 0x26AC JUMPI DUP1 DUP3 SUB PUSH2 0x2677 JUMPI JUMPDEST POP POP POP DUP1 SLOAD DUP1 ISZERO PUSH2 0x264A JUMPI DUP3 ADD SWAP2 PUSH2 0x262D DUP4 DUP4 PUSH2 0x24DB JUMP JUMPDEST SWAP1 SWAP2 DUP3 SLOAD SWAP2 PUSH1 0x3 SHL SHL NOT AND SWAP1 SSTORE SSTORE DUP3 MSTORE PUSH1 0x20 MSTORE PUSH1 0x40 DUP2 KECCAK256 SSTORE PUSH1 0x1 SWAP1 JUMP JUMPDEST PUSH1 0x24 DUP7 PUSH32 0x4E487B7100000000000000000000000000000000000000000000000000000000 DUP2 MSTORE PUSH1 0x31 PUSH1 0x4 MSTORE REVERT JUMPDEST PUSH2 0x2697 PUSH2 0x2687 PUSH2 0x253C SWAP4 DUP7 PUSH2 0x24DB JUMP JUMPDEST SWAP1 SLOAD SWAP1 PUSH1 0x3 SHL SHR SWAP3 DUP4 SWAP3 DUP7 PUSH2 0x24DB JUMP JUMPDEST SWAP1 SSTORE DUP7 MSTORE DUP5 PUSH1 0x20 MSTORE PUSH1 0x40 DUP7 KECCAK256 SSTORE CODESIZE DUP1 DUP1 PUSH2 0x2615 JUMP JUMPDEST PUSH1 0x24 DUP9 PUSH32 0x4E487B7100000000000000000000000000000000000000000000000000000000 DUP2 MSTORE PUSH1 0x11 PUSH1 0x4 MSTORE REVERT JUMPDEST PUSH1 0x24 DUP8 PUSH32 0x4E487B7100000000000000000000000000000000000000000000000000000000 DUP2 MSTORE PUSH1 0x11 PUSH1 0x4 MSTORE REVERT JUMPDEST POP POP POP POP SWAP1 JUMP JUMPDEST PUSH32 0xFFFFFFFFFFFFFFFFFFFFFFFFFFFFFFFFFFFFFFFFFFFFFFFFFFFFFFFFFFFFFFFF DUP2 EQ PUSH2 0x22EA JUMPI PUSH1 0x1 ADD SWAP1 JUMP JUMPDEST DUP1 MLOAD DUP3 LT ISZERO PUSH2 0x2337 JUMPI PUSH1 0x20 SWAP2 PUSH1 0x5 SHL ADD ADD SWAP1 JUMP JUMPDEST SWAP1 DUP2 MLOAD DUP1 DUP3 MSTORE PUSH1 0x20 DUP1 DUP1 SWAP4 ADD SWAP4 ADD SWAP2 PUSH1 0x0 JUMPDEST DUP3 DUP2 LT PUSH2 0x276E JUMPI POP POP POP POP SWAP1 JUMP JUMPDEST DUP4 MLOAD DUP6 MSTORE SWAP4 DUP2 ADD SWAP4 SWAP3 DUP2 ADD SWAP3 PUSH1 0x1 ADD PUSH2 0x2760 JUMP JUMPDEST PUSH1 0x40 MLOAD SWAP1 PUSH2 0x278F DUP3 PUSH2 0x1A95 JUMP JUMPDEST DUP2 PUSH1 0x5 SLOAD DUP2 MSTORE PUSH1 0x6 SLOAD PUSH1 0x20 DUP3 ADD MSTORE PUSH1 0x7 SLOAD PUSH8 0xFFFFFFFFFFFFFFFF SWAP1 DUP2 DUP2 AND PUSH1 0x40 DUP5 ADD MSTORE PUSH1 0x40 SHR AND PUSH1 0x60 DUP3 ADD MSTORE PUSH1 0x80 PUSH1 0x8 SLOAD SWAP2 ADD MSTORE JUMP JUMPDEST SWAP1 PUSH1 0x40 MLOAD PUSH2 0x27D2 DUP2 PUSH2 0x1A95 JUMP JUMPDEST PUSH1 0x80 PUSH1 0x3 DUP3 SWAP5 DUP1 SLOAD DUP5 MSTORE PUSH1 0x1 DUP2 ADD SLOAD PUSH1 0x20 DUP6 ADD MSTORE PUSH1 0x2 DUP2 ADD SLOAD PUSH8 0xFFFFFFFFFFFFFFFF SWAP1 DUP2 DUP2 AND PUSH1 0x40 DUP8 ADD MSTORE PUSH1 0x40 SHR AND PUSH1 0x60 DUP6 ADD MSTORE ADD SLOAD SWAP2 ADD MSTORE JUMP JUMPDEST PUSH20 0xFFFFFFFFFFFFFFFFFFFFFFFFFFFFFFFFFFFFFFFF AND SWAP1 PUSH1 0x40 MLOAD PUSH1 0x40 DUP2 ADD SWAP1 DUP1 DUP3 LT PUSH8 0xFFFFFFFFFFFFFFFF DUP4 GT OR PUSH2 0x1AB1 JUMPI PUSH2 0x288D SWAP2 PUSH1 0x40 MSTORE PUSH1 0x20 SWAP4 DUP5 DUP3 MSTORE PUSH32 0x5361666545524332303A206C6F772D6C6576656C2063616C6C206661696C6564 DUP6 DUP4 ADD MSTORE PUSH1 0x0 DUP1 DUP6 DUP8 DUP3 SWAP8 MLOAD SWAP2 ADD DUP3 DUP6 GAS CALL PUSH2 0x2887 PUSH2 0x2950 JUMP JUMPDEST SWAP2 PUSH2 0x2980 JUMP JUMPDEST DUP1 MLOAD SWAP2 DUP3 ISZERO SWAP2 DUP5 DUP4 ISZERO PUSH2 0x292C JUMPI JUMPDEST POP POP POP SWAP1 POP ISZERO PUSH2 0x28A8 JUMPI POP JUMP JUMPDEST PUSH1 0x84 SWAP1 PUSH1 0x40 MLOAD SWAP1 PUSH32 0x8C379A000000000000000000000000000000000000000000000000000000000 DUP3 MSTORE PUSH1 0x4 DUP3 ADD MSTORE PUSH1 0x2A PUSH1 0x24 DUP3 ADD MSTORE PUSH32 0x5361666545524332303A204552433230206F7065726174696F6E20646964206E PUSH1 0x44 DUP3 ADD MSTORE PUSH32 0x6F74207375636365656400000000000000000000000000000000000000000000 PUSH1 0x64 DUP3 ADD MSTORE REVERT JUMPDEST SWAP2 SWAP4 DUP2 DUP1 SWAP5 POP ADD SUB SLT PUSH2 0x1A2F JUMPI DUP3 ADD MLOAD SWAP1 DUP2 ISZERO ISZERO DUP3 SUB PUSH2 0x1EE JUMPI POP DUP1 CODESIZE DUP1 DUP5 PUSH2 0x289B JUMP JUMPDEST RETURNDATASIZE ISZERO PUSH2 0x297B JUMPI RETURNDATASIZE SWAP1 PUSH2 0x2961 DUP3 PUSH2 0x1BCF JUMP JUMPDEST SWAP2 PUSH2 0x296F PUSH1 0x40 MLOAD SWAP4 DUP5 PUSH2 0x1B18 JUMP JUMPDEST DUP3 MSTORE RETURNDATASIZE PUSH1 0x0 PUSH1 0x20 DUP5 ADD RETURNDATACOPY JUMP JUMPDEST PUSH1 0x60 SWAP1 JUMP JUMPDEST SWAP2 SWAP3 SWAP1 ISZERO PUSH2 0x29FB JUMPI POP DUP2 MLOAD ISZERO PUSH2 0x2994 JUMPI POP SWAP1 JUMP JUMPDEST EXTCODESIZE ISZERO PUSH2 0x299D JUMPI SWAP1 JUMP JUMPDEST PUSH1 0x64 PUSH1 0x40 MLOAD PUSH32 0x8C379A000000000000000000000000000000000000000000000000000000000 DUP2 MSTORE PUSH1 0x20 PUSH1 0x4 DUP3 ADD MSTORE PUSH1 0x1D PUSH1 0x24 DUP3 ADD MSTORE PUSH32 0x416464726573733A2063616C6C20746F206E6F6E2D636F6E7472616374000000 PUSH1 0x44 DUP3 ADD MSTORE REVERT JUMPDEST DUP3 MLOAD SWAP1 SWAP2 POP ISZERO PUSH2 0x2A0E JUMPI POP DUP1 MLOAD SWAP1 PUSH1 0x20 ADD REVERT JUMPDEST PUSH2 0xA45 SWAP1 PUSH1 0x40 MLOAD SWAP2 DUP3 SWAP2 PUSH32 0x8C379A000000000000000000000000000000000000000000000000000000000 DUP4 MSTORE PUSH1 0x20 PUSH1 0x4 DUP5 ADD MSTORE PUSH1 0x24 DUP4 ADD SWAP1 PUSH2 0x21E1 JUMP JUMPDEST SWAP1 DUP1 ISZERO SWAP2 DUP3 ISZERO PUSH2 0x2A6A JUMPI JUMPDEST POP DUP2 ISZERO PUSH2 0x2A62 JUMPI POP SWAP1 JUMP JUMPDEST SWAP1 POP TIMESTAMP LT ISZERO SWAP1 JUMP JUMPDEST TIMESTAMP LT SWAP2 POP CODESIZE PUSH2 0x2A57 JUMP JUMPDEST PUSH1 0x40 MLOAD SWAP1 PUSH2 0x2A81 DUP3 PUSH2 0x1A95 JUMP JUMPDEST PUSH1 0x0 PUSH1 0x80 DUP4 DUP3 DUP2 MSTORE DUP3 PUSH1 0x20 DUP3 ADD MSTORE DUP3 PUSH1 0x40 DUP3 ADD MSTORE DUP3 PUSH1 0x60 DUP3 ADD MSTORE ADD MSTORE JUMP JUMPDEST SWAP2 SWAP3 SWAP1 PUSH1 0x0 SWAP1 PUSH20 0xFFFFFFFFFFFFFFFFFFFFFFFFFFFFFFFFFFFFFFFF DUP4 AND DUP3 MSTORE PUSH1 0x20 SWAP1 PUSH1 0x2 DUP3 MSTORE PUSH1 0x40 SWAP4 DUP5 DUP5 KECCAK256 DUP7 DUP6 MSTORE DUP4 MSTORE PUSH1 0xFF DUP6 DUP6 KECCAK256 SLOAD AND ISZERO SWAP8 DUP9 PUSH2 0x2AEA JUMPI JUMPDEST POP POP POP POP POP POP POP POP SWAP1 JUMP JUMPDEST SWAP1 SWAP2 SWAP3 SWAP4 SWAP6 SWAP8 POP DUP5 SWAP7 SWAP9 SWAP5 MLOAD SWAP1 PUSH32 0xFFFFFFFFFFFFFFFFFFFFFFFFFFFFFFFFFFFFFFFF000000000000000000000000 DUP6 DUP4 ADD SWAP4 PUSH1 0x60 SHL AND DUP4 MSTORE PUSH1 0x34 DUP3 ADD MSTORE PUSH1 0x34 DUP2 MSTORE PUSH2 0x2B34 DUP2 PUSH2 0x1AE0 JUMP JUMPDEST MLOAD SWAP1 KECCAK256 SWAP1 PUSH2 0x2B41 DUP9 PUSH2 0x1B59 JUMP JUMPDEST SWAP8 PUSH2 0x2B4E DUP8 MLOAD SWAP10 DUP11 PUSH2 0x1B18 JUMP JUMPDEST DUP1 DUP10 MSTORE DUP4 DUP10 ADD SWAP1 PUSH1 0x5 SHL DUP3 ADD SWAP2 CALLDATASIZE DUP4 GT PUSH2 0x2BDD JUMPI DUP5 SWAP1 SWAP2 JUMPDEST DUP4 DUP4 LT PUSH2 0x2BCD JUMPI POP POP POP POP SWAP2 DUP4 SWAP3 JUMPDEST DUP8 MLOAD DUP5 LT ISZERO PUSH2 0x2BB8 JUMPI PUSH2 0x2B88 DUP5 DUP10 PUSH2 0x273A JUMP JUMPDEST MLOAD SWAP1 DUP2 DUP2 LT ISZERO PUSH2 0x2BA8 JUMPI DUP6 MSTORE DUP3 MSTORE PUSH2 0x2BA2 DUP6 DUP6 KECCAK256 SWAP4 PUSH2 0x270D JUMP JUMPDEST SWAP3 PUSH2 0x2B75 JUMP JUMPDEST SWAP1 DUP6 MSTORE DUP3 MSTORE PUSH2 0x2BA2 DUP6 DUP6 KECCAK256 PUSH2 0xB53 JUMP JUMPDEST SWAP5 POP SWAP6 POP POP POP POP EQ CODESIZE DUP1 DUP1 DUP1 DUP1 DUP1 DUP1 DUP1 PUSH2 0x2ADF JUMP JUMPDEST DUP3 CALLDATALOAD DUP2 MSTORE SWAP2 DUP2 ADD SWAP2 DUP6 SWAP2 ADD PUSH2 0x2B66 JUMP JUMPDEST DUP7 DUP1 REVERT INVALID LOG2 PUSH5 0x6970667358 0x22 SLT KECCAK256 SUB PUSH8 0x89F230ADCE122F89 DUP7 0xCE DUP8 DUP14 PUSH32 0x455CB45C2B5A3B66278304ADEE742BA3EE64736F6C6343000813003300000000 "
				}
			},
			"userdoc": {
				"errors": {
					"GlobalSaleInactive()": [
						{
							"notice": "Sale is not active globally."
						}
					],
					"InsufficientPayment(address,uint256,uint256)": [
						{
							"notice": "Insufficient tokens for payment."
						}
					],
					"InsufficientSupply(uint256,uint256,uint256)": [
						{
							"notice": "Insufficient supply of tokens."
						}
					],
					"InvalidInitialization()": [
						{
							"notice": "Contract already initialized."
						}
					],
					"InvalidSaleDetails()": [
						{
							"notice": "Sale details supplied are invalid."
						}
					],
					"InvalidTokenIds()": [
						{
							"notice": "Invalid token IDs."
						}
					],
					"MerkleProofInvalid(bytes32,bytes32[],address,bytes32)": [
						{
							"notice": "Thrown when the merkle proof is invalid or has already been used."
						}
					],
					"SaleInactive(uint256)": [
						{
							"notice": "Sale is not active."
						}
					],
					"WithdrawFailed()": [
						{
							"notice": "Withdraw failed error."
						}
					]
				},
				"kind": "user",
				"methods": {
					"checkMerkleProof(bytes32,bytes32[],address,bytes32)": {
						"notice": "Checks if the given merkle proof is valid."
					},
					"globalSaleDetails()": {
						"notice": "Get global sales details.Global sales details apply to all tokens.Global sales details are overriden when token sale is active."
					},
					"initialize(address,address)": {
						"notice": "Initialize the contract."
					},
					"mint(address,uint256[],uint256[],bytes,address,uint256,bytes32[])": {
						"notice": "Mint tokens.Sale must be active for all tokens."
					},
					"paymentToken()": {
						"notice": "Get payment token.address(0) indicates payment in ETH."
					},
					"setGlobalSaleDetails(uint256,uint256,uint64,uint64,bytes32)": {
						"notice": "Set the global sale details.The payment token is set globally."
					},
					"setPaymentToken(address)": {
						"notice": "Set the payment token."
					},
					"setTokenSaleDetails(uint256,uint256,uint256,uint64,uint64,bytes32)": {
						"notice": "Set the sale details for an individual token.The payment token is set globally."
					},
					"supportsInterface(bytes4)": {
						"notice": "Check interface support."
					},
					"tokenSaleDetails(uint256)": {
						"notice": "Get token sale details.Token sale details override global sale details."
					},
					"withdrawERC20(address,address,uint256)": {
						"notice": "Withdraws ERC20 tokens owned by this contract.Only callable by an address with the withdraw role."
					},
					"withdrawETH(address,uint256)": {
						"notice": "Withdraws ETH owned by this sale contract.Only callable by an address with the withdraw role."
					}
				},
				"version": 1
			}
		}
	}
}