{
	"lib/0xsequence/erc-1155/src/contracts/tokens/ERC1155/ERC1155.sol": {
		"ERC1155": {
			"abi": [
				{
					"anonymous": false,
					"inputs": [
						{
							"indexed": true,
							"internalType": "address",
							"name": "_owner",
							"type": "address"
						},
						{
							"indexed": true,
							"internalType": "address",
							"name": "_operator",
							"type": "address"
						},
						{
							"indexed": false,
							"internalType": "bool",
							"name": "_approved",
							"type": "bool"
						}
					],
					"name": "ApprovalForAll",
					"type": "event"
				},
				{
					"anonymous": false,
					"inputs": [
						{
							"indexed": true,
							"internalType": "address",
							"name": "_operator",
							"type": "address"
						},
						{
							"indexed": true,
							"internalType": "address",
							"name": "_from",
							"type": "address"
						},
						{
							"indexed": true,
							"internalType": "address",
							"name": "_to",
							"type": "address"
						},
						{
							"indexed": false,
							"internalType": "uint256[]",
							"name": "_ids",
							"type": "uint256[]"
						},
						{
							"indexed": false,
							"internalType": "uint256[]",
							"name": "_amounts",
							"type": "uint256[]"
						}
					],
					"name": "TransferBatch",
					"type": "event"
				},
				{
					"anonymous": false,
					"inputs": [
						{
							"indexed": true,
							"internalType": "address",
							"name": "_operator",
							"type": "address"
						},
						{
							"indexed": true,
							"internalType": "address",
							"name": "_from",
							"type": "address"
						},
						{
							"indexed": true,
							"internalType": "address",
							"name": "_to",
							"type": "address"
						},
						{
							"indexed": false,
							"internalType": "uint256",
							"name": "_id",
							"type": "uint256"
						},
						{
							"indexed": false,
							"internalType": "uint256",
							"name": "_amount",
							"type": "uint256"
						}
					],
					"name": "TransferSingle",
					"type": "event"
				},
				{
					"inputs": [
						{
							"internalType": "address",
							"name": "_owner",
							"type": "address"
						},
						{
							"internalType": "uint256",
							"name": "_id",
							"type": "uint256"
						}
					],
					"name": "balanceOf",
					"outputs": [
						{
							"internalType": "uint256",
							"name": "",
							"type": "uint256"
						}
					],
					"stateMutability": "view",
					"type": "function"
				},
				{
					"inputs": [
						{
							"internalType": "address[]",
							"name": "_owners",
							"type": "address[]"
						},
						{
							"internalType": "uint256[]",
							"name": "_ids",
							"type": "uint256[]"
						}
					],
					"name": "balanceOfBatch",
					"outputs": [
						{
							"internalType": "uint256[]",
							"name": "",
							"type": "uint256[]"
						}
					],
					"stateMutability": "view",
					"type": "function"
				},
				{
					"inputs": [
						{
							"internalType": "address",
							"name": "_owner",
							"type": "address"
						},
						{
							"internalType": "address",
							"name": "_operator",
							"type": "address"
						}
					],
					"name": "isApprovedForAll",
					"outputs": [
						{
							"internalType": "bool",
							"name": "isOperator",
							"type": "bool"
						}
					],
					"stateMutability": "view",
					"type": "function"
				},
				{
					"inputs": [
						{
							"internalType": "address",
							"name": "_from",
							"type": "address"
						},
						{
							"internalType": "address",
							"name": "_to",
							"type": "address"
						},
						{
							"internalType": "uint256[]",
							"name": "_ids",
							"type": "uint256[]"
						},
						{
							"internalType": "uint256[]",
							"name": "_amounts",
							"type": "uint256[]"
						},
						{
							"internalType": "bytes",
							"name": "_data",
							"type": "bytes"
						}
					],
					"name": "safeBatchTransferFrom",
					"outputs": [],
					"stateMutability": "nonpayable",
					"type": "function"
				},
				{
					"inputs": [
						{
							"internalType": "address",
							"name": "_from",
							"type": "address"
						},
						{
							"internalType": "address",
							"name": "_to",
							"type": "address"
						},
						{
							"internalType": "uint256",
							"name": "_id",
							"type": "uint256"
						},
						{
							"internalType": "uint256",
							"name": "_amount",
							"type": "uint256"
						},
						{
							"internalType": "bytes",
							"name": "_data",
							"type": "bytes"
						}
					],
					"name": "safeTransferFrom",
					"outputs": [],
					"stateMutability": "nonpayable",
					"type": "function"
				},
				{
					"inputs": [
						{
							"internalType": "address",
							"name": "_operator",
							"type": "address"
						},
						{
							"internalType": "bool",
							"name": "_approved",
							"type": "bool"
						}
					],
					"name": "setApprovalForAll",
					"outputs": [],
					"stateMutability": "nonpayable",
					"type": "function"
				},
				{
					"inputs": [
						{
							"internalType": "bytes4",
							"name": "_interfaceID",
							"type": "bytes4"
						}
					],
					"name": "supportsInterface",
					"outputs": [
						{
							"internalType": "bool",
							"name": "",
							"type": "bool"
						}
					],
					"stateMutability": "view",
					"type": "function"
				}
			],
			"devdoc": {
				"details": "Implementation of Multi-Token Standard contract",
				"events": {
					"ApprovalForAll(address,address,bool)": {
						"details": "MUST emit when an approval is updated"
					},
					"TransferBatch(address,address,address,uint256[],uint256[])": {
						"details": "Either TransferSingle or TransferBatch MUST emit when tokens are transferred, including zero amount transfers as well as minting or burning   Operator MUST be msg.sender   When minting/creating tokens, the `_from` field MUST be set to `0x0`   When burning/destroying tokens, the `_to` field MUST be set to `0x0`   The total amount transferred from address 0x0 minus the total amount transferred to 0x0 may be used by clients and exchanges to be added to the \"circulating supply\" for a given token ID   To broadcast the existence of multiple token IDs with no initial balance, this SHOULD emit the TransferBatch event from `0x0` to `0x0`, with the token creator as `_operator`, and a `_amount` of 0"
					},
					"TransferSingle(address,address,address,uint256,uint256)": {
						"details": "Either TransferSingle or TransferBatch MUST emit when tokens are transferred, including zero amount transfers as well as minting or burning   Operator MUST be msg.sender   When minting/creating tokens, the `_from` field MUST be set to `0x0`   When burning/destroying tokens, the `_to` field MUST be set to `0x0`   The total amount transferred from address 0x0 minus the total amount transferred to 0x0 may be used by clients and exchanges to be added to the \"circulating supply\" for a given token ID   To broadcast the existence of a token ID with no initial balance, the contract SHOULD emit the TransferSingle event from `0x0` to `0x0`, with the token creator as `_operator`, and a `_amount` of 0"
					}
				},
				"kind": "dev",
				"methods": {
					"balanceOf(address,uint256)": {
						"params": {
							"_id": "ID of the Token",
							"_owner": "The address of the token holder"
						},
						"returns": {
							"_0": "The _owner's balance of the Token type requested"
						}
					},
					"balanceOfBatch(address[],uint256[])": {
						"params": {
							"_ids": "ID of the Tokens",
							"_owners": "The addresses of the token holders"
						},
						"returns": {
							"_0": "The _owner's balance of the Token types requested (i.e. balance for each (owner, id) pair)"
						}
					},
					"isApprovedForAll(address,address)": {
						"params": {
							"_operator": "Address of authorized operator",
							"_owner": "The owner of the Tokens"
						},
						"returns": {
							"isOperator": "True if the operator is approved, false if not"
						}
					},
					"safeBatchTransferFrom(address,address,uint256[],uint256[],bytes)": {
						"params": {
							"_amounts": "Transfer amounts per token type",
							"_data": "Additional data with no specified format, sent in call to `_to`",
							"_from": "Source addresses",
							"_ids": "IDs of each token type",
							"_to": "Target addresses"
						}
					},
					"safeTransferFrom(address,address,uint256,uint256,bytes)": {
						"params": {
							"_amount": "Transfered amount",
							"_data": "Additional data with no specified format, sent in call to `_to`",
							"_from": "Source address",
							"_id": "ID of the token type",
							"_to": "Target address"
						}
					},
					"setApprovalForAll(address,bool)": {
						"params": {
							"_approved": "True if the operator is approved, false to revoke approval",
							"_operator": "Address to add to the set of authorized operators"
						}
					},
					"supportsInterface(bytes4)": {
						"params": {
							"_interfaceID": "The interface identifier, as specified in ERC-165"
						},
						"returns": {
							"_0": "`true` if the contract implements `_interfaceID` and"
						}
					}
				},
				"version": 1
			},
			"evm": {
				"bytecode": {
					"linkReferences": {},
					"object": "6080806040523461001657611198908161001c8239f35b600080fdfe6080604090808252600436101561001557600080fd5b60003560e01c908162fdd58e14610d285750806301ffc9a714610cb75780632eb2c2d6146107835780634e1273f414610559578063a22cb4651461048c578063e985e9c51461040e5763f242432a1461006d57600080fd5b346104095760a07ffffffffffffffffffffffffffffffffffffffffffffffffffffffffffffffffc360112610409576100a4610d94565b6100ac610db7565b906044356064359260843567ffffffffffffffff8111610409576100d4903690600401610ec0565b73ffffffffffffffffffffffffffffffffffffffff8094169384331480156103e7575b156103645782169182156102e15784600052602095600087528760002085600052875287600020610129828254610f69565b90558360005260008752876000208560005287528760002061014c828254610fa5565b905583868951878152838a8201527fc3d58168c5ae7397731d063d5bbf3d657854427343f4c083240f7aacaa2d0f628b3392a46101895a9261112c565b61018f57005b600087946101eb968a51978896879586937ff23a6e61000000000000000000000000000000000000000000000000000000009c8d865233600487015260248601526044850152606484015260a0608484015260a4830190610fea565b0393f180156102d6577fffffffff00000000000000000000000000000000000000000000000000000000916000916102a9575b50160361022757005b60849151907f08c379a00000000000000000000000000000000000000000000000000000000082526004820152603a60248201527f45524331313535235f63616c6c6f6e4552433131353552656365697665643a2060448201527f494e56414c49445f4f4e5f524543454956455f4d4553534147450000000000006064820152fd5b6102c99150843d86116102cf575b6102c18183610dda565b810190610fb2565b3861021e565b503d6102b7565b84513d6000823e3d90fd5b608487517f08c379a000000000000000000000000000000000000000000000000000000000815260206004820152602b60248201527f4552433131353523736166655472616e7366657246726f6d3a20494e56414c4960448201527f445f524543495049454e540000000000000000000000000000000000000000006064820152fd5b608487517f08c379a000000000000000000000000000000000000000000000000000000000815260206004820152602a60248201527f4552433131353523736166655472616e7366657246726f6d3a20494e56414c4960448201527f445f4f50455241544f52000000000000000000000000000000000000000000006064820152fd5b50846000526001602052866000203360005260205260ff8760002054166100f7565b600080fd5b503461040957807ffffffffffffffffffffffffffffffffffffffffffffffffffffffffffffffffc36011261040957602090610448610d94565b610450610db7565b9073ffffffffffffffffffffffffffffffffffffffff80911660005260018452826000209116600052825260ff81600020541690519015158152f35b503461040957807ffffffffffffffffffffffffffffffffffffffffffffffffffffffffffffffffc360112610409576104c3610d94565b90602435908115158092036104095733600052600160205273ffffffffffffffffffffffffffffffffffffffff8160002093169283600052602052806000207fffffffffffffffffffffffffffffffffffffffffffffffffffffffffffffff0081541660ff8416179055519081527f17307eab39ab6107e8899845ad3d59bd9653f200f220920489ca2b5937696c3160203392a3005b503461040957807ffffffffffffffffffffffffffffffffffffffffffffffffffffffffffffffffc3601126104095760043567ffffffffffffffff918282116104095736602383011215610409578160040135926105b684610e4a565b926105c383519485610dda565b84845260209460248686019160051b8301019136831161040957602401905b8282106107575750505060243590811161040957610604903690600401610e62565b82518151036106d4578251937fffffffffffffffffffffffffffffffffffffffffffffffffffffffffffffffe061065261063d87610e4a565b9661064a86519889610dda565b808852610e4a565b01368287013760005b84518110156106be578073ffffffffffffffffffffffffffffffffffffffff6106876106b99388611075565b5116600052600083528460002061069e8286611075565b51600052835284600020546106b38289611075565b52611048565b61065b565b8351828152806106d081850189610f35565b0390f35b6084848351907f08c379a00000000000000000000000000000000000000000000000000000000082526004820152602c60248201527f455243313135352362616c616e63654f6642617463683a20494e56414c49445f60448201527f41525241595f4c454e47544800000000000000000000000000000000000000006064820152fd5b813573ffffffffffffffffffffffffffffffffffffffff811681036104095781529086019086016105e2565b50346104095760a07ffffffffffffffffffffffffffffffffffffffffffffffffffffffffffffffffc360112610409576107bb610d94565b6107c3610db7565b9160449167ffffffffffffffff908335828111610409576107e8903690600401610e62565b606495863584811161040957610802903690600401610e62565b936084359081116104095761081b903690600401610ec0565b73ffffffffffffffffffffffffffffffffffffffff9081851633148015610c93575b15610c115781831615610b8f578351865103610b0d57835160005b818110610a87575050865187815261087288820186610f35565b908082036020820152838516917f4a39dc06d4c0dbc64b70af90fd698a233a518aa5d07e595d983b8c0526c8f7fb85891692806108b033948d610f35565b0390a45a946108be8461112c565b6108c457005b82918851978896879586947fbc197c810000000000000000000000000000000000000000000000000000000086523360048701521660248501528b840160a0905260a4840161091291610f35565b8381037ffffffffffffffffffffffffffffffffffffffffffffffffffffffffffffffffc018d85015261094491610f35565b8281037ffffffffffffffffffffffffffffffffffffffffffffffffffffffffffffffffc01608484015261097791610fea565b039216600090602095f1908115610a7c577fbc197c8100000000000000000000000000000000000000000000000000000000917fffffffff0000000000000000000000000000000000000000000000000000000091600091610a5e575b5016036109dd57005b6084927f45524331313535235f63616c6c6f6e45524331313535426174636852656365697f7665643a20494e56414c49445f4f4e5f524543454956455f4d455353414745009251937f08c379a000000000000000000000000000000000000000000000000000000000855260206004860152603f6024860152840152820152fd5b610a76915060203d81116102cf576102c18183610dda565b386109d4565b82513d6000823e3d90fd5b80610a95610b08928a611075565b51858916600052602090600082528b600020610ab1848b611075565b516000528252610ac68c600020918254610f69565b9055610ad2828b611075565b5190868816600052600081528b60002090610aed848b611075565b5160005252610b018b600020918254610fa5565b9055611048565b610858565b6084887f494e56414c49445f4152524159535f4c454e47544800000000000000000000008b7f45524331313535235f7361666542617463685472616e7366657246726f6d3a208b51937f08c379a00000000000000000000000000000000000000000000000000000000085526020600486015260356024860152840152820152fd5b6084887f4e56414c49445f524543495049454e54000000000000000000000000000000008b7f45524331313535237361666542617463685472616e7366657246726f6d3a20498b51937f08c379a00000000000000000000000000000000000000000000000000000000085526020600486015260306024860152840152820152fd5b6084887f4e56414c49445f4f50455241544f5200000000000000000000000000000000008b7f45524331313535237361666542617463685472616e7366657246726f6d3a20498b51937f08c379a000000000000000000000000000000000000000000000000000000000855260206004860152602f6024860152840152820152fd5b508185166000526001602052866000203360005260205260ff87600020541661083d565b50346104095760207ffffffffffffffffffffffffffffffffffffffffffffffffffffffffffffffffc36011261040957600435907fffffffff000000000000000000000000000000000000000000000000000000008216820361040957610d1f6020926110b8565b90519015158152f35b90503461040957817ffffffffffffffffffffffffffffffffffffffffffffffffffffffffffffffffc3601126104095760209173ffffffffffffffffffffffffffffffffffffffff610d78610d94565b1660005260008352806000206024356000528352600020548152f35b6004359073ffffffffffffffffffffffffffffffffffffffff8216820361040957565b6024359073ffffffffffffffffffffffffffffffffffffffff8216820361040957565b90601f7fffffffffffffffffffffffffffffffffffffffffffffffffffffffffffffffe0910116810190811067ffffffffffffffff821117610e1b57604052565b7f4e487b7100000000000000000000000000000000000000000000000000000000600052604160045260246000fd5b67ffffffffffffffff8111610e1b5760051b60200190565b81601f8201121561040957803591610e7983610e4a565b92610e876040519485610dda565b808452602092838086019260051b820101928311610409578301905b828210610eb1575050505090565b81358152908301908301610ea3565b81601f820112156104095780359067ffffffffffffffff8211610e1b5760405192610f1360207fffffffffffffffffffffffffffffffffffffffffffffffffffffffffffffffe0601f8601160185610dda565b8284526020838301011161040957816000926020809301838601378301015290565b90815180825260208080930193019160005b828110610f55575050505090565b835185529381019392810192600101610f47565b91908203918211610f7657565b7f4e487b7100000000000000000000000000000000000000000000000000000000600052601160045260246000fd5b91908201809211610f7657565b9081602091031261040957517fffffffff00000000000000000000000000000000000000000000000000000000811681036104095790565b919082519283825260005b8481106110345750507fffffffffffffffffffffffffffffffffffffffffffffffffffffffffffffffe0601f8460006020809697860101520116010190565b602081830181015184830182015201610ff5565b7fffffffffffffffffffffffffffffffffffffffffffffffffffffffffffffffff8114610f765760010190565b80518210156110895760209160051b010190565b7f4e487b7100000000000000000000000000000000000000000000000000000000600052603260045260246000fd5b7fffffffff00000000000000000000000000000000000000000000000000000000167fd9b67a26000000000000000000000000000000000000000000000000000000008114611126577f01ffc9a7000000000000000000000000000000000000000000000000000000001490565b50600190565b3f801515908161113a575090565b7fc5d2460186f7233c927e7db2dcc703c0e500b653ca82273b7bfad8045d85a470915014159056fea264697066735822122019d5746419523006fff521c9e763658a97c73c855271893eb96409d88efa55b864736f6c63430008130033",
					"opcodes": "PUSH1 0x80 DUP1 PUSH1 0x40 MSTORE CALLVALUE PUSH2 0x16 JUMPI PUSH2 0x1198 SWAP1 DUP2 PUSH2 0x1C DUP3 CODECOPY RETURN JUMPDEST PUSH1 0x0 DUP1 REVERT INVALID PUSH1 0x80 PUSH1 0x40 SWAP1 DUP1 DUP3 MSTORE PUSH1 0x4 CALLDATASIZE LT ISZERO PUSH2 0x15 JUMPI PUSH1 0x0 DUP1 REVERT JUMPDEST PUSH1 0x0 CALLDATALOAD PUSH1 0xE0 SHR SWAP1 DUP2 PUSH3 0xFDD58E EQ PUSH2 0xD28 JUMPI POP DUP1 PUSH4 0x1FFC9A7 EQ PUSH2 0xCB7 JUMPI DUP1 PUSH4 0x2EB2C2D6 EQ PUSH2 0x783 JUMPI DUP1 PUSH4 0x4E1273F4 EQ PUSH2 0x559 JUMPI DUP1 PUSH4 0xA22CB465 EQ PUSH2 0x48C JUMPI DUP1 PUSH4 0xE985E9C5 EQ PUSH2 0x40E JUMPI PUSH4 0xF242432A EQ PUSH2 0x6D JUMPI PUSH1 0x0 DUP1 REVERT JUMPDEST CALLVALUE PUSH2 0x409 JUMPI PUSH1 0xA0 PUSH32 0xFFFFFFFFFFFFFFFFFFFFFFFFFFFFFFFFFFFFFFFFFFFFFFFFFFFFFFFFFFFFFFFC CALLDATASIZE ADD SLT PUSH2 0x409 JUMPI PUSH2 0xA4 PUSH2 0xD94 JUMP JUMPDEST PUSH2 0xAC PUSH2 0xDB7 JUMP JUMPDEST SWAP1 PUSH1 0x44 CALLDATALOAD PUSH1 0x64 CALLDATALOAD SWAP3 PUSH1 0x84 CALLDATALOAD PUSH8 0xFFFFFFFFFFFFFFFF DUP2 GT PUSH2 0x409 JUMPI PUSH2 0xD4 SWAP1 CALLDATASIZE SWAP1 PUSH1 0x4 ADD PUSH2 0xEC0 JUMP JUMPDEST PUSH20 0xFFFFFFFFFFFFFFFFFFFFFFFFFFFFFFFFFFFFFFFF DUP1 SWAP5 AND SWAP4 DUP5 CALLER EQ DUP1 ISZERO PUSH2 0x3E7 JUMPI JUMPDEST ISZERO PUSH2 0x364 JUMPI DUP3 AND SWAP2 DUP3 ISZERO PUSH2 0x2E1 JUMPI DUP5 PUSH1 0x0 MSTORE PUSH1 0x20 SWAP6 PUSH1 0x0 DUP8 MSTORE DUP8 PUSH1 0x0 KECCAK256 DUP6 PUSH1 0x0 MSTORE DUP8 MSTORE DUP8 PUSH1 0x0 KECCAK256 PUSH2 0x129 DUP3 DUP3 SLOAD PUSH2 0xF69 JUMP JUMPDEST SWAP1 SSTORE DUP4 PUSH1 0x0 MSTORE PUSH1 0x0 DUP8 MSTORE DUP8 PUSH1 0x0 KECCAK256 DUP6 PUSH1 0x0 MSTORE DUP8 MSTORE DUP8 PUSH1 0x0 KECCAK256 PUSH2 0x14C DUP3 DUP3 SLOAD PUSH2 0xFA5 JUMP JUMPDEST SWAP1 SSTORE DUP4 DUP7 DUP10 MLOAD DUP8 DUP2 MSTORE DUP4 DUP11 DUP3 ADD MSTORE PUSH32 0xC3D58168C5AE7397731D063D5BBF3D657854427343F4C083240F7AACAA2D0F62 DUP12 CALLER SWAP3 LOG4 PUSH2 0x189 GAS SWAP3 PUSH2 0x112C JUMP JUMPDEST PUSH2 0x18F JUMPI STOP JUMPDEST PUSH1 0x0 DUP8 SWAP5 PUSH2 0x1EB SWAP7 DUP11 MLOAD SWAP8 DUP9 SWAP7 DUP8 SWAP6 DUP7 SWAP4 PUSH32 0xF23A6E6100000000000000000000000000000000000000000000000000000000 SWAP13 DUP14 DUP7 MSTORE CALLER PUSH1 0x4 DUP8 ADD MSTORE PUSH1 0x24 DUP7 ADD MSTORE PUSH1 0x44 DUP6 ADD MSTORE PUSH1 0x64 DUP5 ADD MSTORE PUSH1 0xA0 PUSH1 0x84 DUP5 ADD MSTORE PUSH1 0xA4 DUP4 ADD SWAP1 PUSH2 0xFEA JUMP JUMPDEST SUB SWAP4 CALL DUP1 ISZERO PUSH2 0x2D6 JUMPI PUSH32 0xFFFFFFFF00000000000000000000000000000000000000000000000000000000 SWAP2 PUSH1 0x0 SWAP2 PUSH2 0x2A9 JUMPI JUMPDEST POP AND SUB PUSH2 0x227 JUMPI STOP JUMPDEST PUSH1 0x84 SWAP2 MLOAD SWAP1 PUSH32 0x8C379A000000000000000000000000000000000000000000000000000000000 DUP3 MSTORE PUSH1 0x4 DUP3 ADD MSTORE PUSH1 0x3A PUSH1 0x24 DUP3 ADD MSTORE PUSH32 0x45524331313535235F63616C6C6F6E4552433131353552656365697665643A20 PUSH1 0x44 DUP3 ADD MSTORE PUSH32 0x494E56414C49445F4F4E5F524543454956455F4D455353414745000000000000 PUSH1 0x64 DUP3 ADD MSTORE REVERT JUMPDEST PUSH2 0x2C9 SWAP2 POP DUP5 RETURNDATASIZE DUP7 GT PUSH2 0x2CF JUMPI JUMPDEST PUSH2 0x2C1 DUP2 DUP4 PUSH2 0xDDA JUMP JUMPDEST DUP2 ADD SWAP1 PUSH2 0xFB2 JUMP JUMPDEST CODESIZE PUSH2 0x21E JUMP JUMPDEST POP RETURNDATASIZE PUSH2 0x2B7 JUMP JUMPDEST DUP5 MLOAD RETURNDATASIZE PUSH1 0x0 DUP3 RETURNDATACOPY RETURNDATASIZE SWAP1 REVERT JUMPDEST PUSH1 0x84 DUP8 MLOAD PUSH32 0x8C379A000000000000000000000000000000000000000000000000000000000 DUP2 MSTORE PUSH1 0x20 PUSH1 0x4 DUP3 ADD MSTORE PUSH1 0x2B PUSH1 0x24 DUP3 ADD MSTORE PUSH32 0x4552433131353523736166655472616E7366657246726F6D3A20494E56414C49 PUSH1 0x44 DUP3 ADD MSTORE PUSH32 0x445F524543495049454E54000000000000000000000000000000000000000000 PUSH1 0x64 DUP3 ADD MSTORE REVERT JUMPDEST PUSH1 0x84 DUP8 MLOAD PUSH32 0x8C379A000000000000000000000000000000000000000000000000000000000 DUP2 MSTORE PUSH1 0x20 PUSH1 0x4 DUP3 ADD MSTORE PUSH1 0x2A PUSH1 0x24 DUP3 ADD MSTORE PUSH32 0x4552433131353523736166655472616E7366657246726F6D3A20494E56414C49 PUSH1 0x44 DUP3 ADD MSTORE PUSH32 0x445F4F50455241544F5200000000000000000000000000000000000000000000 PUSH1 0x64 DUP3 ADD MSTORE REVERT JUMPDEST POP DUP5 PUSH1 0x0 MSTORE PUSH1 0x1 PUSH1 0x20 MSTORE DUP7 PUSH1 0x0 KECCAK256 CALLER PUSH1 0x0 MSTORE PUSH1 0x20 MSTORE PUSH1 0xFF DUP8 PUSH1 0x0 KECCAK256 SLOAD AND PUSH2 0xF7 JUMP JUMPDEST PUSH1 0x0 DUP1 REVERT JUMPDEST POP CALLVALUE PUSH2 0x409 JUMPI DUP1 PUSH32 0xFFFFFFFFFFFFFFFFFFFFFFFFFFFFFFFFFFFFFFFFFFFFFFFFFFFFFFFFFFFFFFFC CALLDATASIZE ADD SLT PUSH2 0x409 JUMPI PUSH1 0x20 SWAP1 PUSH2 0x448 PUSH2 0xD94 JUMP JUMPDEST PUSH2 0x450 PUSH2 0xDB7 JUMP JUMPDEST SWAP1 PUSH20 0xFFFFFFFFFFFFFFFFFFFFFFFFFFFFFFFFFFFFFFFF DUP1 SWAP2 AND PUSH1 0x0 MSTORE PUSH1 0x1 DUP5 MSTORE DUP3 PUSH1 0x0 KECCAK256 SWAP2 AND PUSH1 0x0 MSTORE DUP3 MSTORE PUSH1 0xFF DUP2 PUSH1 0x0 KECCAK256 SLOAD AND SWAP1 MLOAD SWAP1 ISZERO ISZERO DUP2 MSTORE RETURN JUMPDEST POP CALLVALUE PUSH2 0x409 JUMPI DUP1 PUSH32 0xFFFFFFFFFFFFFFFFFFFFFFFFFFFFFFFFFFFFFFFFFFFFFFFFFFFFFFFFFFFFFFFC CALLDATASIZE ADD SLT PUSH2 0x409 JUMPI PUSH2 0x4C3 PUSH2 0xD94 JUMP JUMPDEST SWAP1 PUSH1 0x24 CALLDATALOAD SWAP1 DUP2 ISZERO ISZERO DUP1 SWAP3 SUB PUSH2 0x409 JUMPI CALLER PUSH1 0x0 MSTORE PUSH1 0x1 PUSH1 0x20 MSTORE PUSH20 0xFFFFFFFFFFFFFFFFFFFFFFFFFFFFFFFFFFFFFFFF DUP2 PUSH1 0x0 KECCAK256 SWAP4 AND SWAP3 DUP4 PUSH1 0x0 MSTORE PUSH1 0x20 MSTORE DUP1 PUSH1 0x0 KECCAK256 PUSH32 0xFFFFFFFFFFFFFFFFFFFFFFFFFFFFFFFFFFFFFFFFFFFFFFFFFFFFFFFFFFFFFF00 DUP2 SLOAD AND PUSH1 0xFF DUP5 AND OR SWAP1 SSTORE MLOAD SWAP1 DUP2 MSTORE PUSH32 0x17307EAB39AB6107E8899845AD3D59BD9653F200F220920489CA2B5937696C31 PUSH1 0x20 CALLER SWAP3 LOG3 STOP JUMPDEST POP CALLVALUE PUSH2 0x409 JUMPI DUP1 PUSH32 0xFFFFFFFFFFFFFFFFFFFFFFFFFFFFFFFFFFFFFFFFFFFFFFFFFFFFFFFFFFFFFFFC CALLDATASIZE ADD SLT PUSH2 0x409 JUMPI PUSH1 0x4 CALLDATALOAD PUSH8 0xFFFFFFFFFFFFFFFF SWAP2 DUP3 DUP3 GT PUSH2 0x409 JUMPI CALLDATASIZE PUSH1 0x23 DUP4 ADD SLT ISZERO PUSH2 0x409 JUMPI DUP2 PUSH1 0x4 ADD CALLDATALOAD SWAP3 PUSH2 0x5B6 DUP5 PUSH2 0xE4A JUMP JUMPDEST SWAP3 PUSH2 0x5C3 DUP4 MLOAD SWAP5 DUP6 PUSH2 0xDDA JUMP JUMPDEST DUP5 DUP5 MSTORE PUSH1 0x20 SWAP5 PUSH1 0x24 DUP7 DUP7 ADD SWAP2 PUSH1 0x5 SHL DUP4 ADD ADD SWAP2 CALLDATASIZE DUP4 GT PUSH2 0x409 JUMPI PUSH1 0x24 ADD SWAP1 JUMPDEST DUP3 DUP3 LT PUSH2 0x757 JUMPI POP POP POP PUSH1 0x24 CALLDATALOAD SWAP1 DUP2 GT PUSH2 0x409 JUMPI PUSH2 0x604 SWAP1 CALLDATASIZE SWAP1 PUSH1 0x4 ADD PUSH2 0xE62 JUMP JUMPDEST DUP3 MLOAD DUP2 MLOAD SUB PUSH2 0x6D4 JUMPI DUP3 MLOAD SWAP4 PUSH32 0xFFFFFFFFFFFFFFFFFFFFFFFFFFFFFFFFFFFFFFFFFFFFFFFFFFFFFFFFFFFFFFE0 PUSH2 0x652 PUSH2 0x63D DUP8 PUSH2 0xE4A JUMP JUMPDEST SWAP7 PUSH2 0x64A DUP7 MLOAD SWAP9 DUP10 PUSH2 0xDDA JUMP JUMPDEST DUP1 DUP9 MSTORE PUSH2 0xE4A JUMP JUMPDEST ADD CALLDATASIZE DUP3 DUP8 ADD CALLDATACOPY PUSH1 0x0 JUMPDEST DUP5 MLOAD DUP2 LT ISZERO PUSH2 0x6BE JUMPI DUP1 PUSH20 0xFFFFFFFFFFFFFFFFFFFFFFFFFFFFFFFFFFFFFFFF PUSH2 0x687 PUSH2 0x6B9 SWAP4 DUP9 PUSH2 0x1075 JUMP JUMPDEST MLOAD AND PUSH1 0x0 MSTORE PUSH1 0x0 DUP4 MSTORE DUP5 PUSH1 0x0 KECCAK256 PUSH2 0x69E DUP3 DUP7 PUSH2 0x1075 JUMP JUMPDEST MLOAD PUSH1 0x0 MSTORE DUP4 MSTORE DUP5 PUSH1 0x0 KECCAK256 SLOAD PUSH2 0x6B3 DUP3 DUP10 PUSH2 0x1075 JUMP JUMPDEST MSTORE PUSH2 0x1048 JUMP JUMPDEST PUSH2 0x65B JUMP JUMPDEST DUP4 MLOAD DUP3 DUP2 MSTORE DUP1 PUSH2 0x6D0 DUP2 DUP6 ADD DUP10 PUSH2 0xF35 JUMP JUMPDEST SUB SWAP1 RETURN JUMPDEST PUSH1 0x84 DUP5 DUP4 MLOAD SWAP1 PUSH32 0x8C379A000000000000000000000000000000000000000000000000000000000 DUP3 MSTORE PUSH1 0x4 DUP3 ADD MSTORE PUSH1 0x2C PUSH1 0x24 DUP3 ADD MSTORE PUSH32 0x455243313135352362616C616E63654F6642617463683A20494E56414C49445F PUSH1 0x44 DUP3 ADD MSTORE PUSH32 0x41525241595F4C454E4754480000000000000000000000000000000000000000 PUSH1 0x64 DUP3 ADD MSTORE REVERT JUMPDEST DUP2 CALLDATALOAD PUSH20 0xFFFFFFFFFFFFFFFFFFFFFFFFFFFFFFFFFFFFFFFF DUP2 AND DUP2 SUB PUSH2 0x409 JUMPI DUP2 MSTORE SWAP1 DUP7 ADD SWAP1 DUP7 ADD PUSH2 0x5E2 JUMP JUMPDEST POP CALLVALUE PUSH2 0x409 JUMPI PUSH1 0xA0 PUSH32 0xFFFFFFFFFFFFFFFFFFFFFFFFFFFFFFFFFFFFFFFFFFFFFFFFFFFFFFFFFFFFFFFC CALLDATASIZE ADD SLT PUSH2 0x409 JUMPI PUSH2 0x7BB PUSH2 0xD94 JUMP JUMPDEST PUSH2 0x7C3 PUSH2 0xDB7 JUMP JUMPDEST SWAP2 PUSH1 0x44 SWAP2 PUSH8 0xFFFFFFFFFFFFFFFF SWAP1 DUP4 CALLDATALOAD DUP3 DUP2 GT PUSH2 0x409 JUMPI PUSH2 0x7E8 SWAP1 CALLDATASIZE SWAP1 PUSH1 0x4 ADD PUSH2 0xE62 JUMP JUMPDEST PUSH1 0x64 SWAP6 DUP7 CALLDATALOAD DUP5 DUP2 GT PUSH2 0x409 JUMPI PUSH2 0x802 SWAP1 CALLDATASIZE SWAP1 PUSH1 0x4 ADD PUSH2 0xE62 JUMP JUMPDEST SWAP4 PUSH1 0x84 CALLDATALOAD SWAP1 DUP2 GT PUSH2 0x409 JUMPI PUSH2 0x81B SWAP1 CALLDATASIZE SWAP1 PUSH1 0x4 ADD PUSH2 0xEC0 JUMP JUMPDEST PUSH20 0xFFFFFFFFFFFFFFFFFFFFFFFFFFFFFFFFFFFFFFFF SWAP1 DUP2 DUP6 AND CALLER EQ DUP1 ISZERO PUSH2 0xC93 JUMPI JUMPDEST ISZERO PUSH2 0xC11 JUMPI DUP2 DUP4 AND ISZERO PUSH2 0xB8F JUMPI DUP4 MLOAD DUP7 MLOAD SUB PUSH2 0xB0D JUMPI DUP4 MLOAD PUSH1 0x0 JUMPDEST DUP2 DUP2 LT PUSH2 0xA87 JUMPI POP POP DUP7 MLOAD DUP8 DUP2 MSTORE PUSH2 0x872 DUP9 DUP3 ADD DUP7 PUSH2 0xF35 JUMP JUMPDEST SWAP1 DUP1 DUP3 SUB PUSH1 0x20 DUP3 ADD MSTORE DUP4 DUP6 AND SWAP2 PUSH32 0x4A39DC06D4C0DBC64B70AF90FD698A233A518AA5D07E595D983B8C0526C8F7FB DUP6 DUP10 AND SWAP3 DUP1 PUSH2 0x8B0 CALLER SWAP5 DUP14 PUSH2 0xF35 JUMP JUMPDEST SUB SWAP1 LOG4 GAS SWAP5 PUSH2 0x8BE DUP5 PUSH2 0x112C JUMP JUMPDEST PUSH2 0x8C4 JUMPI STOP JUMPDEST DUP3 SWAP2 DUP9 MLOAD SWAP8 DUP9 SWAP7 DUP8 SWAP6 DUP7 SWAP5 PUSH32 0xBC197C8100000000000000000000000000000000000000000000000000000000 DUP7 MSTORE CALLER PUSH1 0x4 DUP8 ADD MSTORE AND PUSH1 0x24 DUP6 ADD MSTORE DUP12 DUP5 ADD PUSH1 0xA0 SWAP1 MSTORE PUSH1 0xA4 DUP5 ADD PUSH2 0x912 SWAP2 PUSH2 0xF35 JUMP JUMPDEST DUP4 DUP2 SUB PUSH32 0xFFFFFFFFFFFFFFFFFFFFFFFFFFFFFFFFFFFFFFFFFFFFFFFFFFFFFFFFFFFFFFFC ADD DUP14 DUP6 ADD MSTORE PUSH2 0x944 SWAP2 PUSH2 0xF35 JUMP JUMPDEST DUP3 DUP2 SUB PUSH32 0xFFFFFFFFFFFFFFFFFFFFFFFFFFFFFFFFFFFFFFFFFFFFFFFFFFFFFFFFFFFFFFFC ADD PUSH1 0x84 DUP5 ADD MSTORE PUSH2 0x977 SWAP2 PUSH2 0xFEA JUMP JUMPDEST SUB SWAP3 AND PUSH1 0x0 SWAP1 PUSH1 0x20 SWAP6 CALL SWAP1 DUP2 ISZERO PUSH2 0xA7C JUMPI PUSH32 0xBC197C8100000000000000000000000000000000000000000000000000000000 SWAP2 PUSH32 0xFFFFFFFF00000000000000000000000000000000000000000000000000000000 SWAP2 PUSH1 0x0 SWAP2 PUSH2 0xA5E JUMPI JUMPDEST POP AND SUB PUSH2 0x9DD JUMPI STOP JUMPDEST PUSH1 0x84 SWAP3 PUSH32 0x45524331313535235F63616C6C6F6E4552433131353542617463685265636569 PUSH32 0x7665643A20494E56414C49445F4F4E5F524543454956455F4D45535341474500 SWAP3 MLOAD SWAP4 PUSH32 0x8C379A000000000000000000000000000000000000000000000000000000000 DUP6 MSTORE PUSH1 0x20 PUSH1 0x4 DUP7 ADD MSTORE PUSH1 0x3F PUSH1 0x24 DUP7 ADD MSTORE DUP5 ADD MSTORE DUP3 ADD MSTORE REVERT JUMPDEST PUSH2 0xA76 SWAP2 POP PUSH1 0x20 RETURNDATASIZE DUP2 GT PUSH2 0x2CF JUMPI PUSH2 0x2C1 DUP2 DUP4 PUSH2 0xDDA JUMP JUMPDEST CODESIZE PUSH2 0x9D4 JUMP JUMPDEST DUP3 MLOAD RETURNDATASIZE PUSH1 0x0 DUP3 RETURNDATACOPY RETURNDATASIZE SWAP1 REVERT JUMPDEST DUP1 PUSH2 0xA95 PUSH2 0xB08 SWAP3 DUP11 PUSH2 0x1075 JUMP JUMPDEST MLOAD DUP6 DUP10 AND PUSH1 0x0 MSTORE PUSH1 0x20 SWAP1 PUSH1 0x0 DUP3 MSTORE DUP12 PUSH1 0x0 KECCAK256 PUSH2 0xAB1 DUP5 DUP12 PUSH2 0x1075 JUMP JUMPDEST MLOAD PUSH1 0x0 MSTORE DUP3 MSTORE PUSH2 0xAC6 DUP13 PUSH1 0x0 KECCAK256 SWAP2 DUP3 SLOAD PUSH2 0xF69 JUMP JUMPDEST SWAP1 SSTORE PUSH2 0xAD2 DUP3 DUP12 PUSH2 0x1075 JUMP JUMPDEST MLOAD SWAP1 DUP7 DUP9 AND PUSH1 0x0 MSTORE PUSH1 0x0 DUP2 MSTORE DUP12 PUSH1 0x0 KECCAK256 SWAP1 PUSH2 0xAED DUP5 DUP12 PUSH2 0x1075 JUMP JUMPDEST MLOAD PUSH1 0x0 MSTORE MSTORE PUSH2 0xB01 DUP12 PUSH1 0x0 KECCAK256 SWAP2 DUP3 SLOAD PUSH2 0xFA5 JUMP JUMPDEST SWAP1 SSTORE PUSH2 0x1048 JUMP JUMPDEST PUSH2 0x858 JUMP JUMPDEST PUSH1 0x84 DUP9 PUSH32 0x494E56414C49445F4152524159535F4C454E4754480000000000000000000000 DUP12 PUSH32 0x45524331313535235F7361666542617463685472616E7366657246726F6D3A20 DUP12 MLOAD SWAP4 PUSH32 0x8C379A000000000000000000000000000000000000000000000000000000000 DUP6 MSTORE PUSH1 0x20 PUSH1 0x4 DUP7 ADD MSTORE PUSH1 0x35 PUSH1 0x24 DUP7 ADD MSTORE DUP5 ADD MSTORE DUP3 ADD MSTORE REVERT JUMPDEST PUSH1 0x84 DUP9 PUSH32 0x4E56414C49445F524543495049454E5400000000000000000000000000000000 DUP12 PUSH32 0x45524331313535237361666542617463685472616E7366657246726F6D3A2049 DUP12 MLOAD SWAP4 PUSH32 0x8C379A000000000000000000000000000000000000000000000000000000000 DUP6 MSTORE PUSH1 0x20 PUSH1 0x4 DUP7 ADD MSTORE PUSH1 0x30 PUSH1 0x24 DUP7 ADD MSTORE DUP5 ADD MSTORE DUP3 ADD MSTORE REVERT JUMPDEST PUSH1 0x84 DUP9 PUSH32 0x4E56414C49445F4F50455241544F520000000000000000000000000000000000 DUP12 PUSH32 0x45524331313535237361666542617463685472616E7366657246726F6D3A2049 DUP12 MLOAD SWAP4 PUSH32 0x8C379A000000000000000000000000000000000000000000000000000000000 DUP6 MSTORE PUSH1 0x20 PUSH1 0x4 DUP7 ADD MSTORE PUSH1 0x2F PUSH1 0x24 DUP7 ADD MSTORE DUP5 ADD MSTORE DUP3 ADD MSTORE REVERT JUMPDEST POP DUP2 DUP6 AND PUSH1 0x0 MSTORE PUSH1 0x1 PUSH1 0x20 MSTORE DUP7 PUSH1 0x0 KECCAK256 CALLER PUSH1 0x0 MSTORE PUSH1 0x20 MSTORE PUSH1 0xFF DUP8 PUSH1 0x0 KECCAK256 SLOAD AND PUSH2 0x83D JUMP JUMPDEST POP CALLVALUE PUSH2 0x409 JUMPI PUSH1 0x20 PUSH32 0xFFFFFFFFFFFFFFFFFFFFFFFFFFFFFFFFFFFFFFFFFFFFFFFFFFFFFFFFFFFFFFFC CALLDATASIZE ADD SLT PUSH2 0x409 JUMPI PUSH1 0x4 CALLDATALOAD SWAP1 PUSH32 0xFFFFFFFF00000000000000000000000000000000000000000000000000000000 DUP3 AND DUP3 SUB PUSH2 0x409 JUMPI PUSH2 0xD1F PUSH1 0x20 SWAP3 PUSH2 0x10B8 JUMP JUMPDEST SWAP1 MLOAD SWAP1 ISZERO ISZERO DUP2 MSTORE RETURN JUMPDEST SWAP1 POP CALLVALUE PUSH2 0x409 JUMPI DUP2 PUSH32 0xFFFFFFFFFFFFFFFFFFFFFFFFFFFFFFFFFFFFFFFFFFFFFFFFFFFFFFFFFFFFFFFC CALLDATASIZE ADD SLT PUSH2 0x409 JUMPI PUSH1 0x20 SWAP2 PUSH20 0xFFFFFFFFFFFFFFFFFFFFFFFFFFFFFFFFFFFFFFFF PUSH2 0xD78 PUSH2 0xD94 JUMP JUMPDEST AND PUSH1 0x0 MSTORE PUSH1 0x0 DUP4 MSTORE DUP1 PUSH1 0x0 KECCAK256 PUSH1 0x24 CALLDATALOAD PUSH1 0x0 MSTORE DUP4 MSTORE PUSH1 0x0 KECCAK256 SLOAD DUP2 MSTORE RETURN JUMPDEST PUSH1 0x4 CALLDATALOAD SWAP1 PUSH20 0xFFFFFFFFFFFFFFFFFFFFFFFFFFFFFFFFFFFFFFFF DUP3 AND DUP3 SUB PUSH2 0x409 JUMPI JUMP JUMPDEST PUSH1 0x24 CALLDATALOAD SWAP1 PUSH20 0xFFFFFFFFFFFFFFFFFFFFFFFFFFFFFFFFFFFFFFFF DUP3 AND DUP3 SUB PUSH2 0x409 JUMPI JUMP JUMPDEST SWAP1 PUSH1 0x1F PUSH32 0xFFFFFFFFFFFFFFFFFFFFFFFFFFFFFFFFFFFFFFFFFFFFFFFFFFFFFFFFFFFFFFE0 SWAP2 ADD AND DUP2 ADD SWAP1 DUP2 LT PUSH8 0xFFFFFFFFFFFFFFFF DUP3 GT OR PUSH2 0xE1B JUMPI PUSH1 0x40 MSTORE JUMP JUMPDEST PUSH32 0x4E487B7100000000000000000000000000000000000000000000000000000000 PUSH1 0x0 MSTORE PUSH1 0x41 PUSH1 0x4 MSTORE PUSH1 0x24 PUSH1 0x0 REVERT JUMPDEST PUSH8 0xFFFFFFFFFFFFFFFF DUP2 GT PUSH2 0xE1B JUMPI PUSH1 0x5 SHL PUSH1 0x20 ADD SWAP1 JUMP JUMPDEST DUP2 PUSH1 0x1F DUP3 ADD SLT ISZERO PUSH2 0x409 JUMPI DUP1 CALLDATALOAD SWAP2 PUSH2 0xE79 DUP4 PUSH2 0xE4A JUMP JUMPDEST SWAP3 PUSH2 0xE87 PUSH1 0x40 MLOAD SWAP5 DUP6 PUSH2 0xDDA JUMP JUMPDEST DUP1 DUP5 MSTORE PUSH1 0x20 SWAP3 DUP4 DUP1 DUP7 ADD SWAP3 PUSH1 0x5 SHL DUP3 ADD ADD SWAP3 DUP4 GT PUSH2 0x409 JUMPI DUP4 ADD SWAP1 JUMPDEST DUP3 DUP3 LT PUSH2 0xEB1 JUMPI POP POP POP POP SWAP1 JUMP JUMPDEST DUP2 CALLDATALOAD DUP2 MSTORE SWAP1 DUP4 ADD SWAP1 DUP4 ADD PUSH2 0xEA3 JUMP JUMPDEST DUP2 PUSH1 0x1F DUP3 ADD SLT ISZERO PUSH2 0x409 JUMPI DUP1 CALLDATALOAD SWAP1 PUSH8 0xFFFFFFFFFFFFFFFF DUP3 GT PUSH2 0xE1B JUMPI PUSH1 0x40 MLOAD SWAP3 PUSH2 0xF13 PUSH1 0x20 PUSH32 0xFFFFFFFFFFFFFFFFFFFFFFFFFFFFFFFFFFFFFFFFFFFFFFFFFFFFFFFFFFFFFFE0 PUSH1 0x1F DUP7 ADD AND ADD DUP6 PUSH2 0xDDA JUMP JUMPDEST DUP3 DUP5 MSTORE PUSH1 0x20 DUP4 DUP4 ADD ADD GT PUSH2 0x409 JUMPI DUP2 PUSH1 0x0 SWAP3 PUSH1 0x20 DUP1 SWAP4 ADD DUP4 DUP7 ADD CALLDATACOPY DUP4 ADD ADD MSTORE SWAP1 JUMP JUMPDEST SWAP1 DUP2 MLOAD DUP1 DUP3 MSTORE PUSH1 0x20 DUP1 DUP1 SWAP4 ADD SWAP4 ADD SWAP2 PUSH1 0x0 JUMPDEST DUP3 DUP2 LT PUSH2 0xF55 JUMPI POP POP POP POP SWAP1 JUMP JUMPDEST DUP4 MLOAD DUP6 MSTORE SWAP4 DUP2 ADD SWAP4 SWAP3 DUP2 ADD SWAP3 PUSH1 0x1 ADD PUSH2 0xF47 JUMP JUMPDEST SWAP2 SWAP1 DUP3 SUB SWAP2 DUP3 GT PUSH2 0xF76 JUMPI JUMP JUMPDEST PUSH32 0x4E487B7100000000000000000000000000000000000000000000000000000000 PUSH1 0x0 MSTORE PUSH1 0x11 PUSH1 0x4 MSTORE PUSH1 0x24 PUSH1 0x0 REVERT JUMPDEST SWAP2 SWAP1 DUP3 ADD DUP1 SWAP3 GT PUSH2 0xF76 JUMPI JUMP JUMPDEST SWAP1 DUP2 PUSH1 0x20 SWAP2 SUB SLT PUSH2 0x409 JUMPI MLOAD PUSH32 0xFFFFFFFF00000000000000000000000000000000000000000000000000000000 DUP2 AND DUP2 SUB PUSH2 0x409 JUMPI SWAP1 JUMP JUMPDEST SWAP2 SWAP1 DUP3 MLOAD SWAP3 DUP4 DUP3 MSTORE PUSH1 0x0 JUMPDEST DUP5 DUP2 LT PUSH2 0x1034 JUMPI POP POP PUSH32 0xFFFFFFFFFFFFFFFFFFFFFFFFFFFFFFFFFFFFFFFFFFFFFFFFFFFFFFFFFFFFFFE0 PUSH1 0x1F DUP5 PUSH1 0x0 PUSH1 0x20 DUP1 SWAP7 SWAP8 DUP7 ADD ADD MSTORE ADD AND ADD ADD SWAP1 JUMP JUMPDEST PUSH1 0x20 DUP2 DUP4 ADD DUP2 ADD MLOAD DUP5 DUP4 ADD DUP3 ADD MSTORE ADD PUSH2 0xFF5 JUMP JUMPDEST PUSH32 0xFFFFFFFFFFFFFFFFFFFFFFFFFFFFFFFFFFFFFFFFFFFFFFFFFFFFFFFFFFFFFFFF DUP2 EQ PUSH2 0xF76 JUMPI PUSH1 0x1 ADD SWAP1 JUMP JUMPDEST DUP1 MLOAD DUP3 LT ISZERO PUSH2 0x1089 JUMPI PUSH1 0x20 SWAP2 PUSH1 0x5 SHL ADD ADD SWAP1 JUMP JUMPDEST PUSH32 0x4E487B7100000000000000000000000000000000000000000000000000000000 PUSH1 0x0 MSTORE PUSH1 0x32 PUSH1 0x4 MSTORE PUSH1 0x24 PUSH1 0x0 REVERT JUMPDEST PUSH32 0xFFFFFFFF00000000000000000000000000000000000000000000000000000000 AND PUSH32 0xD9B67A2600000000000000000000000000000000000000000000000000000000 DUP2 EQ PUSH2 0x1126 JUMPI PUSH32 0x1FFC9A700000000000000000000000000000000000000000000000000000000 EQ SWAP1 JUMP JUMPDEST POP PUSH1 0x1 SWAP1 JUMP JUMPDEST EXTCODEHASH DUP1 ISZERO ISZERO SWAP1 DUP2 PUSH2 0x113A JUMPI POP SWAP1 JUMP JUMPDEST PUSH32 0xC5D2460186F7233C927E7DB2DCC703C0E500B653CA82273B7BFAD8045D85A470 SWAP2 POP EQ ISZERO SWAP1 JUMP INVALID LOG2 PUSH5 0x6970667358 0x22 SLT KECCAK256 NOT 0xD5 PUSH21 0x6419523006FFF521C9E763658A97C73C855271893E 0xB9 PUSH5 0x9D88EFA55 0xB8 PUSH5 0x736F6C6343 STOP ADDMOD SGT STOP CALLER "
				}
			},
			"userdoc": {
				"kind": "user",
				"methods": {
					"balanceOf(address,uint256)": {
						"notice": "Get the balance of an account's Tokens"
					},
					"balanceOfBatch(address[],uint256[])": {
						"notice": "Get the balance of multiple account/token pairs"
					},
					"isApprovedForAll(address,address)": {
						"notice": "Queries the approval status of an operator for a given owner"
					},
					"safeBatchTransferFrom(address,address,uint256[],uint256[],bytes)": {
						"notice": "Send multiple types of Tokens from the _from address to the _to address (with safety call)"
					},
					"safeTransferFrom(address,address,uint256,uint256,bytes)": {
						"notice": "Transfers amount amount of an _id from the _from address to the _to address specified"
					},
					"setApprovalForAll(address,bool)": {
						"notice": "Enable or disable approval for a third party (\"operator\") to manage all of caller's tokens"
					},
					"supportsInterface(bytes4)": {
						"notice": "Query if a contract implements an interface"
					}
				},
				"version": 1
			}
		}
	}
}