{
  "src/registry/ImplicitProjectRegistry.sol": {
    "ImplicitProjectRegistry": {
      "abi": [
        {
          "inputs": [],
          "name": "InvalidProjectOwner",
          "type": "error"
        },
        {
          "inputs": [],
          "name": "InvalidProjectUrlIndex",
          "type": "error"
        },
        {
          "inputs": [],
          "name": "InvalidRedirectUrl",
          "type": "error"
        },
        {
          "inputs": [],
          "name": "NotProjectOwner",
          "type": "error"
        },
        {
          "inputs": [],
          "name": "ProjectAlreadyClaimed",
          "type": "error"
        },
        {
          "inputs": [],
          "name": "ProjectUrlAlreadyExists",
          "type": "error"
        },
        {
          "inputs": [],
          "name": "ProjectUrlNotFound",
          "type": "error"
        },
        {
          "anonymous": false,
          "inputs": [
            {
              "indexed": true,
              "internalType": "bytes32",
              "name": "projectId",
              "type": "bytes32"
            },
            {
              "indexed": true,
              "internalType": "address",
              "name": "owner",
              "type": "address"
            }
          ],
          "name": "ProjectClaimed",
          "type": "event"
        },
        {
          "anonymous": false,
          "inputs": [
            {
              "indexed": true,
              "internalType": "bytes32",
              "name": "projectId",
              "type": "bytes32"
            },
            {
              "indexed": true,
              "internalType": "address",
              "name": "newOwner",
              "type": "address"
            }
          ],
          "name": "ProjectOwnerTransferred",
          "type": "event"
        },
        {
          "anonymous": false,
          "inputs": [
            {
              "indexed": true,
              "internalType": "bytes32",
              "name": "projectId",
              "type": "bytes32"
            },
            {
              "indexed": true,
              "internalType": "bytes32",
              "name": "urlHash",
              "type": "bytes32"
            }
          ],
          "name": "ProjectUrlAdded",
          "type": "event"
        },
        {
          "anonymous": false,
          "inputs": [
            {
              "indexed": true,
              "internalType": "bytes32",
              "name": "projectId",
              "type": "bytes32"
            },
            {
              "indexed": true,
              "internalType": "bytes32",
              "name": "urlHash",
              "type": "bytes32"
            }
          ],
          "name": "ProjectUrlRemoved",
          "type": "event"
        },
        {
          "inputs": [
            {
              "internalType": "bytes32",
              "name": "projectId",
              "type": "bytes32"
            },
            {
              "internalType": "string",
              "name": "projectUrl",
              "type": "string"
            }
          ],
          "name": "addProjectUrl",
          "outputs": [],
          "stateMutability": "nonpayable",
          "type": "function"
        },
        {
          "inputs": [
            {
              "internalType": "bytes32",
              "name": "projectId",
              "type": "bytes32"
            },
            {
              "internalType": "string[]",
              "name": "projectUrls",
              "type": "string[]"
            }
          ],
          "name": "addProjectUrlBatch",
          "outputs": [],
          "stateMutability": "nonpayable",
          "type": "function"
        },
        {
          "inputs": [
            {
              "internalType": "bytes32",
              "name": "projectId",
              "type": "bytes32"
            },
            {
              "internalType": "bytes32",
              "name": "projectUrlHash",
              "type": "bytes32"
            }
          ],
          "name": "addProjectUrlHash",
          "outputs": [],
          "stateMutability": "nonpayable",
          "type": "function"
        },
        {
          "inputs": [
            {
              "internalType": "bytes32",
              "name": "projectId",
              "type": "bytes32"
            },
            {
              "internalType": "bytes32[]",
              "name": "projectUrlHashes",
              "type": "bytes32[]"
            }
          ],
          "name": "addProjectUrlHashBatch",
          "outputs": [],
          "stateMutability": "nonpayable",
          "type": "function"
        },
        {
          "inputs": [
            {
              "internalType": "bytes12",
              "name": "projectIdUpper",
              "type": "bytes12"
            }
          ],
          "name": "claimProject",
          "outputs": [
            {
              "internalType": "bytes32",
              "name": "projectId",
              "type": "bytes32"
            }
          ],
          "stateMutability": "nonpayable",
          "type": "function"
        },
        {
          "inputs": [
            {
              "internalType": "bytes32",
              "name": "",
              "type": "bytes32"
            },
            {
              "internalType": "bytes32",
              "name": "",
              "type": "bytes32"
            }
          ],
          "name": "isProjectUrl",
          "outputs": [
            {
              "internalType": "bool",
              "name": "",
              "type": "bool"
            }
          ],
          "stateMutability": "view",
          "type": "function"
        },
        {
          "inputs": [
            {
              "internalType": "bytes32",
              "name": "projectId",
              "type": "bytes32"
            }
          ],
          "name": "listProjectUrls",
          "outputs": [
            {
              "internalType": "bytes32[]",
              "name": "",
              "type": "bytes32[]"
            }
          ],
          "stateMutability": "view",
          "type": "function"
        },
        {
          "inputs": [
            {
              "internalType": "bytes32",
              "name": "",
              "type": "bytes32"
            }
          ],
          "name": "projectOwner",
          "outputs": [
            {
              "internalType": "address",
              "name": "",
              "type": "address"
            }
          ],
          "stateMutability": "view",
          "type": "function"
        },
        {
          "inputs": [
            {
              "internalType": "bytes32",
              "name": "",
              "type": "bytes32"
            },
            {
              "internalType": "uint256",
              "name": "",
              "type": "uint256"
            }
          ],
          "name": "projectUrlsList",
          "outputs": [
            {
              "internalType": "bytes32",
              "name": "",
              "type": "bytes32"
            }
          ],
          "stateMutability": "view",
          "type": "function"
        },
        {
          "inputs": [
            {
              "internalType": "bytes32",
              "name": "projectId",
              "type": "bytes32"
            },
            {
              "internalType": "string",
              "name": "projectUrl",
              "type": "string"
            }
          ],
          "name": "removeProjectUrl",
          "outputs": [],
          "stateMutability": "nonpayable",
          "type": "function"
        },
        {
          "inputs": [
            {
              "internalType": "bytes32",
              "name": "projectId",
              "type": "bytes32"
            },
            {
              "internalType": "bytes32",
              "name": "projectUrlHash",
              "type": "bytes32"
            },
            {
              "internalType": "uint256",
              "name": "urlIdx",
              "type": "uint256"
            }
          ],
          "name": "removeProjectUrlHash",
          "outputs": [],
          "stateMutability": "nonpayable",
          "type": "function"
        },
        {
          "inputs": [
            {
              "internalType": "bytes32",
              "name": "projectId",
              "type": "bytes32"
            },
            {
              "internalType": "bytes32[]",
              "name": "projectUrlHashes",
              "type": "bytes32[]"
            },
            {
              "internalType": "uint256[]",
              "name": "urlIdxs",
              "type": "uint256[]"
            }
          ],
          "name": "removeProjectUrlHashBatch",
          "outputs": [],
          "stateMutability": "nonpayable",
          "type": "function"
        },
        {
          "inputs": [
            {
              "internalType": "bytes32",
              "name": "projectId",
              "type": "bytes32"
            },
            {
              "internalType": "address",
              "name": "newOwner",
              "type": "address"
            }
          ],
          "name": "transferProject",
          "outputs": [],
          "stateMutability": "nonpayable",
          "type": "function"
        },
        {
          "inputs": [
            {
              "internalType": "address",
              "name": "wallet",
              "type": "address"
            },
            {
              "components": [
                {
                  "internalType": "address",
                  "name": "approvedSigner",
                  "type": "address"
                },
                {
                  "internalType": "bytes4",
                  "name": "identityType",
                  "type": "bytes4"
                },
                {
                  "internalType": "bytes32",
                  "name": "issuerHash",
                  "type": "bytes32"
                },
                {
                  "internalType": "bytes32",
                  "name": "audienceHash",
                  "type": "bytes32"
                },
                {
                  "internalType": "bytes",
                  "name": "applicationData",
                  "type": "bytes"
                },
                {
                  "components": [
                    {
                      "internalType": "string",
                      "name": "redirectUrl",
                      "type": "string"
                    },
                    {
                      "internalType": "uint64",
                      "name": "issuedAt",
                      "type": "uint64"
                    }
                  ],
                  "internalType": "struct AuthData",
                  "name": "authData",
                  "type": "tuple"
                }
              ],
              "internalType": "struct Attestation",
              "name": "attestation",
              "type": "tuple"
            },
            {
              "internalType": "bytes32",
              "name": "projectId",
              "type": "bytes32"
            }
          ],
          "name": "validateAttestation",
          "outputs": [
            {
              "internalType": "bytes32",
              "name": "",
              "type": "bytes32"
            }
          ],
          "stateMutability": "view",
          "type": "function"
        }
      ],
      "devdoc": {
        "author": "Michael Standen",
        "kind": "dev",
        "methods": {
          "addProjectUrl(bytes32,string)": {
            "params": {
              "projectId": "The project id",
              "projectUrl": "The project URL"
            }
          },
          "addProjectUrlBatch(bytes32,string[])": {
            "params": {
              "projectId": "The project id",
              "projectUrls": "The project URLs"
            }
          },
          "addProjectUrlHash(bytes32,bytes32)": {
            "params": {
              "projectId": "The project id",
              "projectUrlHash": "The project URL hash"
            }
          },
          "addProjectUrlHashBatch(bytes32,bytes32[])": {
            "params": {
              "projectId": "The project id",
              "projectUrlHashes": "The project URL hashes"
            }
          },
          "claimProject(bytes12)": {
            "params": {
              "projectIdUpper": "The project id upper"
            },
            "returns": {
              "projectId": "The concatenation of the `projectIdUpper` and the `msg.sender`"
            }
          },
          "listProjectUrls(bytes32)": {
            "params": {
              "projectId": "The project id"
            },
            "returns": {
              "_0": "projectUrls The project URLs"
            }
          },
          "removeProjectUrl(bytes32,string)": {
            "details": "This function is not optimized. Prefer to use removeProjectUrlHash.",
            "params": {
              "projectId": "The project id",
              "projectUrl": "The project URL"
            }
          },
          "removeProjectUrlHash(bytes32,bytes32,uint256)": {
            "params": {
              "projectId": "The project id",
              "projectUrlHash": "The project URL hash",
              "urlIdx": "The index of the project URL hash to remove"
            }
          },
          "removeProjectUrlHashBatch(bytes32,bytes32[],uint256[])": {
            "details": "The urlIdxs must be sorted in descending order",
            "params": {
              "projectId": "The project id",
              "projectUrlHashes": "The project URL hashes",
              "urlIdxs": "The indexes of the project URL hashes to remove"
            }
          },
          "transferProject(bytes32,address)": {
            "params": {
              "newOwner": "The new owner",
              "projectId": "The project id"
            }
          },
          "validateAttestation(address,(address,bytes4,bytes32,bytes32,bytes,(string,uint64)),bytes32)": {
            "params": {
              "attestation": "The attestation",
              "projectId": "The project id",
              "wallet": "The wallet address"
            },
            "returns": {
              "_0": "magic The attestation magic bytes for the wallet address"
            }
          }
        },
        "title": "ImplicitProjectRegistry",
        "version": 1
      },
      "evm": {
        "bytecode": {
          "linkReferences": {},
          "object": "6080604052348015600e575f5ffd5b5061225c8061001c5f395ff3fe608060405234801561000f575f5ffd5b50600436106100e8575f3560e01c8063a25acb251161008a578063d9acbe6b11610064578063d9acbe6b14610240578063dac6c58714610270578063ebc27b821461028c578063f4364de6146102bc576100e8565b8063a25acb25146101c4578063d4c9c5c4146101f4578063d4df101814610210576100e8565b80633808a90b116100c65780633808a90b14610140578063520994f11461017057806356cd2b921461018c5780639630aff8146101a8576100e8565b8063065d6c69146100ec5780631b31f01b146101085780632f28c69d14610124575b5f5ffd5b610106600480360381019061010191906113ac565b6102ec565b005b610122600480360381019061011d9190611439565b6103c3565b005b61013e60048036038101906101399190611539565b610469565b005b61015a6004803603810190610155919061160f565b610515565b604051610167919061168a565b60405180910390f35b61018a600480360381019061018591906116a3565b610610565b005b6101a660048036038101906101a191906117bf565b6106b4565b005b6101c260048036038101906101bd9190611819565b610793565b005b6101de60048036038101906101d991906116a3565b610924565b6040516101eb9190611871565b60405180910390f35b61020e6004803603810190610209919061194a565b61094e565b005b61022a60048036038101906102259190611a27565b610b1b565b604051610237919061168a565b60405180910390f35b61025a60048036038101906102559190611a52565b610cde565b604051610267919061168a565b60405180910390f35b61028a60048036038101906102859190611539565b610d09565b005b6102a660048036038101906102a19190611a90565b610e51565b6040516102b39190611aca565b60405180910390f35b6102d660048036038101906102d19190611a90565b610e80565b6040516102e39190611b9a565b60405180910390f35b813373ffffffffffffffffffffffffffffffffffffffff165f5f8381526020019081526020015f205f9054906101000a900473ffffffffffffffffffffffffffffffffffffffff1673ffffffffffffffffffffffffffffffffffffffff1614610381576040517f7c2411e900000000000000000000000000000000000000000000000000000000815260040160405180910390fd5b5f5b82518110156103bd576103b0848483815181106103a3576103a2611bba565b5b6020026020010151610ee7565b8080600101915050610383565b50505050565b823373ffffffffffffffffffffffffffffffffffffffff165f5f8381526020019081526020015f205f9054906101000a900473ffffffffffffffffffffffffffffffffffffffff1673ffffffffffffffffffffffffffffffffffffffff1614610458576040517f7c2411e900000000000000000000000000000000000000000000000000000000815260040160405180910390fd5b610463848484610fe9565b50505050565b813373ffffffffffffffffffffffffffffffffffffffff165f5f8381526020019081526020015f205f9054906101000a900473ffffffffffffffffffffffffffffffffffffffff1673ffffffffffffffffffffffffffffffffffffffff16146104fe576040517f7c2411e900000000000000000000000000000000000000000000000000000000815260040160405180910390fd5b6105108361050b84611187565b610ee7565b505050565b5f5f61057f848060a0019061052a9190611bf3565b805f01906105389190611c1a565b8080601f0160208091040260200160405190810160405280939291908181526020018383808284375f81840152601f19601f82011690508083019250505050505050611187565b905060015f8481526020019081526020015f205f8281526020019081526020015f205f9054906101000a900460ff16156105d7576105cf85856105c190611ef2565b6111b690919063ffffffff16565b915050610609565b6040517fd7abef4e00000000000000000000000000000000000000000000000000000000815260040160405180910390fd5b9392505050565b813373ffffffffffffffffffffffffffffffffffffffff165f5f8381526020019081526020015f205f9054906101000a900473ffffffffffffffffffffffffffffffffffffffff1673ffffffffffffffffffffffffffffffffffffffff16146106a5576040517f7c2411e900000000000000000000000000000000000000000000000000000000815260040160405180910390fd5b6106af8383610ee7565b505050565b813373ffffffffffffffffffffffffffffffffffffffff165f5f8381526020019081526020015f205f9054906101000a900473ffffffffffffffffffffffffffffffffffffffff1673ffffffffffffffffffffffffffffffffffffffff1614610749576040517f7c2411e900000000000000000000000000000000000000000000000000000000815260040160405180910390fd5b5f5b825181101561078d576107808461077b85848151811061076e5761076d611bba565b5b6020026020010151611187565b610ee7565b808060010191505061074b565b50505050565b813373ffffffffffffffffffffffffffffffffffffffff165f5f8381526020019081526020015f205f9054906101000a900473ffffffffffffffffffffffffffffffffffffffff1673ffffffffffffffffffffffffffffffffffffffff1614610828576040517f7c2411e900000000000000000000000000000000000000000000000000000000815260040160405180910390fd5b5f73ffffffffffffffffffffffffffffffffffffffff168273ffffffffffffffffffffffffffffffffffffffff160361088d576040517fff7d580d00000000000000000000000000000000000000000000000000000000815260040160405180910390fd5b815f5f8581526020019081526020015f205f6101000a81548173ffffffffffffffffffffffffffffffffffffffff021916908373ffffffffffffffffffffffffffffffffffffffff1602179055508173ffffffffffffffffffffffffffffffffffffffff16837f7869f0fa3d7efaa83c69bf6de987567787178b8d7e41fea0cadfea68a2e27de560405160405180910390a3505050565b6001602052815f5260405f20602052805f5260405f205f915091509054906101000a900460ff1681565b823373ffffffffffffffffffffffffffffffffffffffff165f5f8381526020019081526020015f205f9054906101000a900473ffffffffffffffffffffffffffffffffffffffff1673ffffffffffffffffffffffffffffffffffffffff16146109e3576040517f7c2411e900000000000000000000000000000000000000000000000000000000815260040160405180910390fd5b8151835114610a1e576040517f526c768700000000000000000000000000000000000000000000000000000000815260040160405180910390fd5b5f5b60018351610a2e9190611f31565b811015610abc5782600182610a439190611f64565b81518110610a5457610a53611bba565b5b6020026020010151838281518110610a6f57610a6e611bba565b5b60200260200101511015610aaf576040517f526c768700000000000000000000000000000000000000000000000000000000815260040160405180910390fd5b8080600101915050610a20565b505f5b8351811015610b1457610b0785858381518110610adf57610ade611bba565b5b6020026020010151858481518110610afa57610af9611bba565b5b6020026020010151610fe9565b8080600101915050610abf565b5050505050565b5f5f3390505f73ffffffffffffffffffffffffffffffffffffffff168173ffffffffffffffffffffffffffffffffffffffff1603610b85576040517fff7d580d00000000000000000000000000000000000000000000000000000000815260040160405180910390fd5b8281604051602001610b98929190611ffc565b604051602081830303815290604052610bb090612060565b91505f73ffffffffffffffffffffffffffffffffffffffff165f5f8481526020019081526020015f205f9054906101000a900473ffffffffffffffffffffffffffffffffffffffff1673ffffffffffffffffffffffffffffffffffffffff1614610c46576040517ffeabeb4b00000000000000000000000000000000000000000000000000000000815260040160405180910390fd5b805f5f8481526020019081526020015f205f6101000a81548173ffffffffffffffffffffffffffffffffffffffff021916908373ffffffffffffffffffffffffffffffffffffffff1602179055508073ffffffffffffffffffffffffffffffffffffffff16827f0f01cd0734cc8ed416ac6ca25cb4fe02dbab63f1236af3858deb14a56663623860405160405180910390a350919050565b6002602052815f5260405f208181548110610cf7575f80fd5b905f5260205f20015f91509150505481565b813373ffffffffffffffffffffffffffffffffffffffff165f5f8381526020019081526020015f205f9054906101000a900473ffffffffffffffffffffffffffffffffffffffff1673ffffffffffffffffffffffffffffffffffffffff1614610d9e576040517f7c2411e900000000000000000000000000000000000000000000000000000000815260040160405180910390fd5b5f610da883611187565b90505f5b60025f8681526020019081526020015f2080549050811015610e19578160025f8781526020019081526020015f208281548110610dec57610deb611bba565b5b905f5260205f20015403610e0c57610e05858383610fe9565b5050610e4c565b8080600101915050610dac565b506040517f4745a4ee00000000000000000000000000000000000000000000000000000000815260040160405180910390fd5b505050565b5f602052805f5260405f205f915054906101000a900473ffffffffffffffffffffffffffffffffffffffff1681565b606060025f8381526020019081526020015f20805480602002602001604051908101604052809291908181526020018280548015610edb57602002820191905f5260205f20905b815481526020019060010190808311610ec7575b50505050509050919050565b60015f8381526020019081526020015f205f8281526020019081526020015f205f9054906101000a900460ff1615610f4b576040517f2d86c03a00000000000000000000000000000000000000000000000000000000815260040160405180910390fd5b6001805f8481526020019081526020015f205f8381526020019081526020015f205f6101000a81548160ff02191690831515021790555060025f8381526020019081526020015f2081908060018154018082558091505060019003905f5260205f20015f909190919091505580827fceac3080d7874c4bba80ceae14b6aa96e0df9d4f673d9e5a352d66444f50206760405160405180910390a35050565b60025f8481526020019081526020015f20805490508110158061103757508160025f8581526020019081526020015f20828154811061102b5761102a611bba565b5b905f5260205f20015414155b1561106e576040517f526c768700000000000000000000000000000000000000000000000000000000815260040160405180910390fd5b5f60015f8581526020019081526020015f205f8481526020019081526020015f205f6101000a81548160ff02191690831515021790555060025f8481526020019081526020015f20600160025f8681526020019081526020015f20805490506110d79190611f31565b815481106110e8576110e7611bba565b5b905f5260205f20015460025f8581526020019081526020015f20828154811061111457611113611bba565b5b905f5260205f20018190555060025f8481526020019081526020015f20805480611141576111406120c6565b5b600190038181905f5260205f20015f9055905581837f13d94de535e503661de3c84adf637590f269f37c8d4ed5daabae98376a442a6a60405160405180910390a3505050565b5f816040516020016111999190612145565b604051602081830303815290604052805190602001209050919050565b5f6040516020016111c6906121a5565b6040516020818303038152906040528051906020012082846060015185604001516040516020016111fa94939291906121d9565b60405160208183030381529060405280519060200120905092915050565b5f604051905090565b5f5ffd5b5f5ffd5b5f819050919050565b61123b81611229565b8114611245575f5ffd5b50565b5f8135905061125681611232565b92915050565b5f5ffd5b5f601f19601f8301169050919050565b7f4e487b71000000000000000000000000000000000000000000000000000000005f52604160045260245ffd5b6112a682611260565b810181811067ffffffffffffffff821117156112c5576112c4611270565b5b80604052505050565b5f6112d7611218565b90506112e3828261129d565b919050565b5f67ffffffffffffffff82111561130257611301611270565b5b602082029050602081019050919050565b5f5ffd5b5f611329611324846112e8565b6112ce565b9050808382526020820190506020840283018581111561134c5761134b611313565b5b835b8181101561137557806113618882611248565b84526020840193505060208101905061134e565b5050509392505050565b5f82601f8301126113935761139261125c565b5b81356113a3848260208601611317565b91505092915050565b5f5f604083850312156113c2576113c1611221565b5b5f6113cf85828601611248565b925050602083013567ffffffffffffffff8111156113f0576113ef611225565b5b6113fc8582860161137f565b9150509250929050565b5f819050919050565b61141881611406565b8114611422575f5ffd5b50565b5f813590506114338161140f565b92915050565b5f5f5f606084860312156114505761144f611221565b5b5f61145d86828701611248565b935050602061146e86828701611248565b925050604061147f86828701611425565b9150509250925092565b5f5ffd5b5f67ffffffffffffffff8211156114a7576114a6611270565b5b6114b082611260565b9050602081019050919050565b828183375f83830152505050565b5f6114dd6114d88461148d565b6112ce565b9050828152602081018484840111156114f9576114f8611489565b5b6115048482856114bd565b509392505050565b5f82601f8301126115205761151f61125c565b5b81356115308482602086016114cb565b91505092915050565b5f5f6040838503121561154f5761154e611221565b5b5f61155c85828601611248565b925050602083013567ffffffffffffffff81111561157d5761157c611225565b5b6115898582860161150c565b9150509250929050565b5f73ffffffffffffffffffffffffffffffffffffffff82169050919050565b5f6115bc82611593565b9050919050565b6115cc816115b2565b81146115d6575f5ffd5b50565b5f813590506115e7816115c3565b92915050565b5f5ffd5b5f60c08284031215611606576116056115ed565b5b81905092915050565b5f5f5f6060848603121561162657611625611221565b5b5f611633868287016115d9565b935050602084013567ffffffffffffffff81111561165457611653611225565b5b611660868287016115f1565b925050604061167186828701611248565b9150509250925092565b61168481611229565b82525050565b5f60208201905061169d5f83018461167b565b92915050565b5f5f604083850312156116b9576116b8611221565b5b5f6116c685828601611248565b92505060206116d785828601611248565b9150509250929050565b5f67ffffffffffffffff8211156116fb576116fa611270565b5b602082029050602081019050919050565b5f61171e611719846116e1565b6112ce565b9050808382526020820190506020840283018581111561174157611740611313565b5b835b8181101561178857803567ffffffffffffffff8111156117665761176561125c565b5b808601611773898261150c565b85526020850194505050602081019050611743565b5050509392505050565b5f82601f8301126117a6576117a561125c565b5b81356117b684826020860161170c565b91505092915050565b5f5f604083850312156117d5576117d4611221565b5b5f6117e285828601611248565b925050602083013567ffffffffffffffff81111561180357611802611225565b5b61180f85828601611792565b9150509250929050565b5f5f6040838503121561182f5761182e611221565b5b5f61183c85828601611248565b925050602061184d858286016115d9565b9150509250929050565b5f8115159050919050565b61186b81611857565b82525050565b5f6020820190506118845f830184611862565b92915050565b5f67ffffffffffffffff8211156118a4576118a3611270565b5b602082029050602081019050919050565b5f6118c76118c28461188a565b6112ce565b905080838252602082019050602084028301858111156118ea576118e9611313565b5b835b8181101561191357806118ff8882611425565b8452602084019350506020810190506118ec565b5050509392505050565b5f82601f8301126119315761193061125c565b5b81356119418482602086016118b5565b91505092915050565b5f5f5f6060848603121561196157611960611221565b5b5f61196e86828701611248565b935050602084013567ffffffffffffffff81111561198f5761198e611225565b5b61199b8682870161137f565b925050604084013567ffffffffffffffff8111156119bc576119bb611225565b5b6119c88682870161191d565b9150509250925092565b5f7fffffffffffffffffffffffff000000000000000000000000000000000000000082169050919050565b611a06816119d2565b8114611a10575f5ffd5b50565b5f81359050611a21816119fd565b92915050565b5f60208284031215611a3c57611a3b611221565b5b5f611a4984828501611a13565b91505092915050565b5f5f60408385031215611a6857611a67611221565b5b5f611a7585828601611248565b9250506020611a8685828601611425565b9150509250929050565b5f60208284031215611aa557611aa4611221565b5b5f611ab284828501611248565b91505092915050565b611ac4816115b2565b82525050565b5f602082019050611add5f830184611abb565b92915050565b5f81519050919050565b5f82825260208201905092915050565b5f819050602082019050919050565b611b1581611229565b82525050565b5f611b268383611b0c565b60208301905092915050565b5f602082019050919050565b5f611b4882611ae3565b611b528185611aed565b9350611b5d83611afd565b805f5b83811015611b8d578151611b748882611b1b565b9750611b7f83611b32565b925050600181019050611b60565b5085935050505092915050565b5f6020820190508181035f830152611bb28184611b3e565b905092915050565b7f4e487b71000000000000000000000000000000000000000000000000000000005f52603260045260245ffd5b5f5ffd5b5f5ffd5b5f5ffd5b5f82356001604003833603038112611c0e57611c0d611be7565b5b80830191505092915050565b5f5f83356001602003843603038112611c3657611c35611be7565b5b80840192508235915067ffffffffffffffff821115611c5857611c57611beb565b5b602083019250600182023603831315611c7457611c73611bef565b5b509250929050565b5f5ffd5b5f5ffd5b5f7fffffffff0000000000000000000000000000000000000000000000000000000082169050919050565b611cb881611c84565b8114611cc2575f5ffd5b50565b5f81359050611cd381611caf565b92915050565b5f67ffffffffffffffff821115611cf357611cf2611270565b5b611cfc82611260565b9050602081019050919050565b5f611d1b611d1684611cd9565b6112ce565b905082815260208101848484011115611d3757611d36611489565b5b611d428482856114bd565b509392505050565b5f82601f830112611d5e57611d5d61125c565b5b8135611d6e848260208601611d09565b91505092915050565b5f67ffffffffffffffff82169050919050565b611d9381611d77565b8114611d9d575f5ffd5b50565b5f81359050611dae81611d8a565b92915050565b5f60408284031215611dc957611dc8611c7c565b5b611dd360406112ce565b90505f82013567ffffffffffffffff811115611df257611df1611c80565b5b611dfe8482850161150c565b5f830152506020611e1184828501611da0565b60208301525092915050565b5f60c08284031215611e3257611e31611c7c565b5b611e3c60c06112ce565b90505f611e4b848285016115d9565b5f830152506020611e5e84828501611cc5565b6020830152506040611e7284828501611248565b6040830152506060611e8684828501611248565b606083015250608082013567ffffffffffffffff811115611eaa57611ea9611c80565b5b611eb684828501611d4a565b60808301525060a082013567ffffffffffffffff811115611eda57611ed9611c80565b5b611ee684828501611db4565b60a08301525092915050565b5f611efd3683611e1d565b9050919050565b7f4e487b71000000000000000000000000000000000000000000000000000000005f52601160045260245ffd5b5f611f3b82611406565b9150611f4683611406565b9250828203905081811115611f5e57611f5d611f04565b5b92915050565b5f611f6e82611406565b9150611f7983611406565b9250828201905080821115611f9157611f90611f04565b5b92915050565b5f819050919050565b611fb1611fac826119d2565b611f97565b82525050565b5f8160601b9050919050565b5f611fcd82611fb7565b9050919050565b5f611fde82611fc3565b9050919050565b611ff6611ff1826115b2565b611fd4565b82525050565b5f6120078285611fa0565b600c820191506120178284611fe5565b6014820191508190509392505050565b5f81519050919050565b5f819050602082019050919050565b5f61204b8251611229565b80915050919050565b5f82821b905092915050565b5f61206a82612027565b8261207484612031565b905061207f81612040565b925060208210156120bf576120ba7fffffffffffffffffffffffffffffffffffffffffffffffffffffffffffffffff83602003600802612054565b831692505b5050919050565b7f4e487b71000000000000000000000000000000000000000000000000000000005f52603160045260245ffd5b5f81519050919050565b5f81905092915050565b8281835e5f83830152505050565b5f61211f826120f3565b61212981856120fd565b9350612139818560208601612107565b80840191505092915050565b5f6121508284612115565b915081905092915050565b7f616363657074496d706c696369745265717565737400000000000000000000005f82015250565b5f61218f6015836120fd565b915061219a8261215b565b601582019050919050565b5f6121af82612183565b9150819050919050565b5f819050919050565b6121d36121ce82611229565b6121b9565b82525050565b5f6121e482876121c2565b6020820191506121f48286611fe5565b60148201915061220482856121c2565b60208201915061221482846121c2565b6020820191508190509594505050505056fea26469706673582212201c1c5f937a09cefe946e373a867e5691109f49a41dec6c6dd2b14c92e28398bd64736f6c634300081c0033",
          "opcodes": "PUSH1 0x80 PUSH1 0x40 MSTORE CALLVALUE DUP1 ISZERO PUSH1 0xE JUMPI PUSH0 PUSH0 REVERT JUMPDEST POP PUSH2 0x225C DUP1 PUSH2 0x1C PUSH0 CODECOPY PUSH0 RETURN INVALID PUSH1 0x80 PUSH1 0x40 MSTORE CALLVALUE DUP1 ISZERO PUSH2 0xF JUMPI PUSH0 PUSH0 REVERT JUMPDEST POP PUSH1 0x4 CALLDATASIZE LT PUSH2 0xE8 JUMPI PUSH0 CALLDATALOAD PUSH1 0xE0 SHR DUP1 PUSH4 0xA25ACB25 GT PUSH2 0x8A JUMPI DUP1 PUSH4 0xD9ACBE6B GT PUSH2 0x64 JUMPI DUP1 PUSH4 0xD9ACBE6B EQ PUSH2 0x240 JUMPI DUP1 PUSH4 0xDAC6C587 EQ PUSH2 0x270 JUMPI DUP1 PUSH4 0xEBC27B82 EQ PUSH2 0x28C JUMPI DUP1 PUSH4 0xF4364DE6 EQ PUSH2 0x2BC JUMPI PUSH2 0xE8 JUMP JUMPDEST DUP1 PUSH4 0xA25ACB25 EQ PUSH2 0x1C4 JUMPI DUP1 PUSH4 0xD4C9C5C4 EQ PUSH2 0x1F4 JUMPI DUP1 PUSH4 0xD4DF1018 EQ PUSH2 0x210 JUMPI PUSH2 0xE8 JUMP JUMPDEST DUP1 PUSH4 0x3808A90B GT PUSH2 0xC6 JUMPI DUP1 PUSH4 0x3808A90B EQ PUSH2 0x140 JUMPI DUP1 PUSH4 0x520994F1 EQ PUSH2 0x170 JUMPI DUP1 PUSH4 0x56CD2B92 EQ PUSH2 0x18C JUMPI DUP1 PUSH4 0x9630AFF8 EQ PUSH2 0x1A8 JUMPI PUSH2 0xE8 JUMP JUMPDEST DUP1 PUSH4 0x65D6C69 EQ PUSH2 0xEC JUMPI DUP1 PUSH4 0x1B31F01B EQ PUSH2 0x108 JUMPI DUP1 PUSH4 0x2F28C69D EQ PUSH2 0x124 JUMPI JUMPDEST PUSH0 PUSH0 REVERT JUMPDEST PUSH2 0x106 PUSH1 0x4 DUP1 CALLDATASIZE SUB DUP2 ADD SWAP1 PUSH2 0x101 SWAP2 SWAP1 PUSH2 0x13AC JUMP JUMPDEST PUSH2 0x2EC JUMP JUMPDEST STOP JUMPDEST PUSH2 0x122 PUSH1 0x4 DUP1 CALLDATASIZE SUB DUP2 ADD SWAP1 PUSH2 0x11D SWAP2 SWAP1 PUSH2 0x1439 JUMP JUMPDEST PUSH2 0x3C3 JUMP JUMPDEST STOP JUMPDEST PUSH2 0x13E PUSH1 0x4 DUP1 CALLDATASIZE SUB DUP2 ADD SWAP1 PUSH2 0x139 SWAP2 SWAP1 PUSH2 0x1539 JUMP JUMPDEST PUSH2 0x469 JUMP JUMPDEST STOP JUMPDEST PUSH2 0x15A PUSH1 0x4 DUP1 CALLDATASIZE SUB DUP2 ADD SWAP1 PUSH2 0x155 SWAP2 SWAP1 PUSH2 0x160F JUMP JUMPDEST PUSH2 0x515 JUMP JUMPDEST PUSH1 0x40 MLOAD PUSH2 0x167 SWAP2 SWAP1 PUSH2 0x168A JUMP JUMPDEST PUSH1 0x40 MLOAD DUP1 SWAP2 SUB SWAP1 RETURN JUMPDEST PUSH2 0x18A PUSH1 0x4 DUP1 CALLDATASIZE SUB DUP2 ADD SWAP1 PUSH2 0x185 SWAP2 SWAP1 PUSH2 0x16A3 JUMP JUMPDEST PUSH2 0x610 JUMP JUMPDEST STOP JUMPDEST PUSH2 0x1A6 PUSH1 0x4 DUP1 CALLDATASIZE SUB DUP2 ADD SWAP1 PUSH2 0x1A1 SWAP2 SWAP1 PUSH2 0x17BF JUMP JUMPDEST PUSH2 0x6B4 JUMP JUMPDEST STOP JUMPDEST PUSH2 0x1C2 PUSH1 0x4 DUP1 CALLDATASIZE SUB DUP2 ADD SWAP1 PUSH2 0x1BD SWAP2 SWAP1 PUSH2 0x1819 JUMP JUMPDEST PUSH2 0x793 JUMP JUMPDEST STOP JUMPDEST PUSH2 0x1DE PUSH1 0x4 DUP1 CALLDATASIZE SUB DUP2 ADD SWAP1 PUSH2 0x1D9 SWAP2 SWAP1 PUSH2 0x16A3 JUMP JUMPDEST PUSH2 0x924 JUMP JUMPDEST PUSH1 0x40 MLOAD PUSH2 0x1EB SWAP2 SWAP1 PUSH2 0x1871 JUMP JUMPDEST PUSH1 0x40 MLOAD DUP1 SWAP2 SUB SWAP1 RETURN JUMPDEST PUSH2 0x20E PUSH1 0x4 DUP1 CALLDATASIZE SUB DUP2 ADD SWAP1 PUSH2 0x209 SWAP2 SWAP1 PUSH2 0x194A JUMP JUMPDEST PUSH2 0x94E JUMP JUMPDEST STOP JUMPDEST PUSH2 0x22A PUSH1 0x4 DUP1 CALLDATASIZE SUB DUP2 ADD SWAP1 PUSH2 0x225 SWAP2 SWAP1 PUSH2 0x1A27 JUMP JUMPDEST PUSH2 0xB1B JUMP JUMPDEST PUSH1 0x40 MLOAD PUSH2 0x237 SWAP2 SWAP1 PUSH2 0x168A JUMP JUMPDEST PUSH1 0x40 MLOAD DUP1 SWAP2 SUB SWAP1 RETURN JUMPDEST PUSH2 0x25A PUSH1 0x4 DUP1 CALLDATASIZE SUB DUP2 ADD SWAP1 PUSH2 0x255 SWAP2 SWAP1 PUSH2 0x1A52 JUMP JUMPDEST PUSH2 0xCDE JUMP JUMPDEST PUSH1 0x40 MLOAD PUSH2 0x267 SWAP2 SWAP1 PUSH2 0x168A JUMP JUMPDEST PUSH1 0x40 MLOAD DUP1 SWAP2 SUB SWAP1 RETURN JUMPDEST PUSH2 0x28A PUSH1 0x4 DUP1 CALLDATASIZE SUB DUP2 ADD SWAP1 PUSH2 0x285 SWAP2 SWAP1 PUSH2 0x1539 JUMP JUMPDEST PUSH2 0xD09 JUMP JUMPDEST STOP JUMPDEST PUSH2 0x2A6 PUSH1 0x4 DUP1 CALLDATASIZE SUB DUP2 ADD SWAP1 PUSH2 0x2A1 SWAP2 SWAP1 PUSH2 0x1A90 JUMP JUMPDEST PUSH2 0xE51 JUMP JUMPDEST PUSH1 0x40 MLOAD PUSH2 0x2B3 SWAP2 SWAP1 PUSH2 0x1ACA JUMP JUMPDEST PUSH1 0x40 MLOAD DUP1 SWAP2 SUB SWAP1 RETURN JUMPDEST PUSH2 0x2D6 PUSH1 0x4 DUP1 CALLDATASIZE SUB DUP2 ADD SWAP1 PUSH2 0x2D1 SWAP2 SWAP1 PUSH2 0x1A90 JUMP JUMPDEST PUSH2 0xE80 JUMP JUMPDEST PUSH1 0x40 MLOAD PUSH2 0x2E3 SWAP2 SWAP1 PUSH2 0x1B9A JUMP JUMPDEST PUSH1 0x40 MLOAD DUP1 SWAP2 SUB SWAP1 RETURN JUMPDEST DUP2 CALLER PUSH20 0xFFFFFFFFFFFFFFFFFFFFFFFFFFFFFFFFFFFFFFFF AND PUSH0 PUSH0 DUP4 DUP2 MSTORE PUSH1 0x20 ADD SWAP1 DUP2 MSTORE PUSH1 0x20 ADD PUSH0 KECCAK256 PUSH0 SWAP1 SLOAD SWAP1 PUSH2 0x100 EXP SWAP1 DIV PUSH20 0xFFFFFFFFFFFFFFFFFFFFFFFFFFFFFFFFFFFFFFFF AND PUSH20 0xFFFFFFFFFFFFFFFFFFFFFFFFFFFFFFFFFFFFFFFF AND EQ PUSH2 0x381 JUMPI PUSH1 0x40 MLOAD PUSH32 0x7C2411E900000000000000000000000000000000000000000000000000000000 DUP2 MSTORE PUSH1 0x4 ADD PUSH1 0x40 MLOAD DUP1 SWAP2 SUB SWAP1 REVERT JUMPDEST PUSH0 JUMPDEST DUP3 MLOAD DUP2 LT ISZERO PUSH2 0x3BD JUMPI PUSH2 0x3B0 DUP5 DUP5 DUP4 DUP2 MLOAD DUP2 LT PUSH2 0x3A3 JUMPI PUSH2 0x3A2 PUSH2 0x1BBA JUMP JUMPDEST JUMPDEST PUSH1 0x20 MUL PUSH1 0x20 ADD ADD MLOAD PUSH2 0xEE7 JUMP JUMPDEST DUP1 DUP1 PUSH1 0x1 ADD SWAP2 POP POP PUSH2 0x383 JUMP JUMPDEST POP POP POP POP JUMP JUMPDEST DUP3 CALLER PUSH20 0xFFFFFFFFFFFFFFFFFFFFFFFFFFFFFFFFFFFFFFFF AND PUSH0 PUSH0 DUP4 DUP2 MSTORE PUSH1 0x20 ADD SWAP1 DUP2 MSTORE PUSH1 0x20 ADD PUSH0 KECCAK256 PUSH0 SWAP1 SLOAD SWAP1 PUSH2 0x100 EXP SWAP1 DIV PUSH20 0xFFFFFFFFFFFFFFFFFFFFFFFFFFFFFFFFFFFFFFFF AND PUSH20 0xFFFFFFFFFFFFFFFFFFFFFFFFFFFFFFFFFFFFFFFF AND EQ PUSH2 0x458 JUMPI PUSH1 0x40 MLOAD PUSH32 0x7C2411E900000000000000000000000000000000000000000000000000000000 DUP2 MSTORE PUSH1 0x4 ADD PUSH1 0x40 MLOAD DUP1 SWAP2 SUB SWAP1 REVERT JUMPDEST PUSH2 0x463 DUP5 DUP5 DUP5 PUSH2 0xFE9 JUMP JUMPDEST POP POP POP POP JUMP JUMPDEST DUP2 CALLER PUSH20 0xFFFFFFFFFFFFFFFFFFFFFFFFFFFFFFFFFFFFFFFF AND PUSH0 PUSH0 DUP4 DUP2 MSTORE PUSH1 0x20 ADD SWAP1 DUP2 MSTORE PUSH1 0x20 ADD PUSH0 KECCAK256 PUSH0 SWAP1 SLOAD SWAP1 PUSH2 0x100 EXP SWAP1 DIV PUSH20 0xFFFFFFFFFFFFFFFFFFFFFFFFFFFFFFFFFFFFFFFF AND PUSH20 0xFFFFFFFFFFFFFFFFFFFFFFFFFFFFFFFFFFFFFFFF AND EQ PUSH2 0x4FE JUMPI PUSH1 0x40 MLOAD PUSH32 0x7C2411E900000000000000000000000000000000000000000000000000000000 DUP2 MSTORE PUSH1 0x4 ADD PUSH1 0x40 MLOAD DUP1 SWAP2 SUB SWAP1 REVERT JUMPDEST PUSH2 0x510 DUP4 PUSH2 0x50B DUP5 PUSH2 0x1187 JUMP JUMPDEST PUSH2 0xEE7 JUMP JUMPDEST POP POP POP JUMP JUMPDEST PUSH0 PUSH0 PUSH2 0x57F DUP5 DUP1 PUSH1 0xA0 ADD SWAP1 PUSH2 0x52A SWAP2 SWAP1 PUSH2 0x1BF3 JUMP JUMPDEST DUP1 PUSH0 ADD SWAP1 PUSH2 0x538 SWAP2 SWAP1 PUSH2 0x1C1A JUMP JUMPDEST DUP1 DUP1 PUSH1 0x1F ADD PUSH1 0x20 DUP1 SWAP2 DIV MUL PUSH1 0x20 ADD PUSH1 0x40 MLOAD SWAP1 DUP2 ADD PUSH1 0x40 MSTORE DUP1 SWAP4 SWAP3 SWAP2 SWAP1 DUP2 DUP2 MSTORE PUSH1 0x20 ADD DUP4 DUP4 DUP1 DUP3 DUP5 CALLDATACOPY PUSH0 DUP2 DUP5 ADD MSTORE PUSH1 0x1F NOT PUSH1 0x1F DUP3 ADD AND SWAP1 POP DUP1 DUP4 ADD SWAP3 POP POP POP POP POP POP POP PUSH2 0x1187 JUMP JUMPDEST SWAP1 POP PUSH1 0x1 PUSH0 DUP5 DUP2 MSTORE PUSH1 0x20 ADD SWAP1 DUP2 MSTORE PUSH1 0x20 ADD PUSH0 KECCAK256 PUSH0 DUP3 DUP2 MSTORE PUSH1 0x20 ADD SWAP1 DUP2 MSTORE PUSH1 0x20 ADD PUSH0 KECCAK256 PUSH0 SWAP1 SLOAD SWAP1 PUSH2 0x100 EXP SWAP1 DIV PUSH1 0xFF AND ISZERO PUSH2 0x5D7 JUMPI PUSH2 0x5CF DUP6 DUP6 PUSH2 0x5C1 SWAP1 PUSH2 0x1EF2 JUMP JUMPDEST PUSH2 0x11B6 SWAP1 SWAP2 SWAP1 PUSH4 0xFFFFFFFF AND JUMP JUMPDEST SWAP2 POP POP PUSH2 0x609 JUMP JUMPDEST PUSH1 0x40 MLOAD PUSH32 0xD7ABEF4E00000000000000000000000000000000000000000000000000000000 DUP2 MSTORE PUSH1 0x4 ADD PUSH1 0x40 MLOAD DUP1 SWAP2 SUB SWAP1 REVERT JUMPDEST SWAP4 SWAP3 POP POP POP JUMP JUMPDEST DUP2 CALLER PUSH20 0xFFFFFFFFFFFFFFFFFFFFFFFFFFFFFFFFFFFFFFFF AND PUSH0 PUSH0 DUP4 DUP2 MSTORE PUSH1 0x20 ADD SWAP1 DUP2 MSTORE PUSH1 0x20 ADD PUSH0 KECCAK256 PUSH0 SWAP1 SLOAD SWAP1 PUSH2 0x100 EXP SWAP1 DIV PUSH20 0xFFFFFFFFFFFFFFFFFFFFFFFFFFFFFFFFFFFFFFFF AND PUSH20 0xFFFFFFFFFFFFFFFFFFFFFFFFFFFFFFFFFFFFFFFF AND EQ PUSH2 0x6A5 JUMPI PUSH1 0x40 MLOAD PUSH32 0x7C2411E900000000000000000000000000000000000000000000000000000000 DUP2 MSTORE PUSH1 0x4 ADD PUSH1 0x40 MLOAD DUP1 SWAP2 SUB SWAP1 REVERT JUMPDEST PUSH2 0x6AF DUP4 DUP4 PUSH2 0xEE7 JUMP JUMPDEST POP POP POP JUMP JUMPDEST DUP2 CALLER PUSH20 0xFFFFFFFFFFFFFFFFFFFFFFFFFFFFFFFFFFFFFFFF AND PUSH0 PUSH0 DUP4 DUP2 MSTORE PUSH1 0x20 ADD SWAP1 DUP2 MSTORE PUSH1 0x20 ADD PUSH0 KECCAK256 PUSH0 SWAP1 SLOAD SWAP1 PUSH2 0x100 EXP SWAP1 DIV PUSH20 0xFFFFFFFFFFFFFFFFFFFFFFFFFFFFFFFFFFFFFFFF AND PUSH20 0xFFFFFFFFFFFFFFFFFFFFFFFFFFFFFFFFFFFFFFFF AND EQ PUSH2 0x749 JUMPI PUSH1 0x40 MLOAD PUSH32 0x7C2411E900000000000000000000000000000000000000000000000000000000 DUP2 MSTORE PUSH1 0x4 ADD PUSH1 0x40 MLOAD DUP1 SWAP2 SUB SWAP1 REVERT JUMPDEST PUSH0 JUMPDEST DUP3 MLOAD DUP2 LT ISZERO PUSH2 0x78D JUMPI PUSH2 0x780 DUP5 PUSH2 0x77B DUP6 DUP5 DUP2 MLOAD DUP2 LT PUSH2 0x76E JUMPI PUSH2 0x76D PUSH2 0x1BBA JUMP JUMPDEST JUMPDEST PUSH1 0x20 MUL PUSH1 0x20 ADD ADD MLOAD PUSH2 0x1187 JUMP JUMPDEST PUSH2 0xEE7 JUMP JUMPDEST DUP1 DUP1 PUSH1 0x1 ADD SWAP2 POP POP PUSH2 0x74B JUMP JUMPDEST POP POP POP POP JUMP JUMPDEST DUP2 CALLER PUSH20 0xFFFFFFFFFFFFFFFFFFFFFFFFFFFFFFFFFFFFFFFF AND PUSH0 PUSH0 DUP4 DUP2 MSTORE PUSH1 0x20 ADD SWAP1 DUP2 MSTORE PUSH1 0x20 ADD PUSH0 KECCAK256 PUSH0 SWAP1 SLOAD SWAP1 PUSH2 0x100 EXP SWAP1 DIV PUSH20 0xFFFFFFFFFFFFFFFFFFFFFFFFFFFFFFFFFFFFFFFF AND PUSH20 0xFFFFFFFFFFFFFFFFFFFFFFFFFFFFFFFFFFFFFFFF AND EQ PUSH2 0x828 JUMPI PUSH1 0x40 MLOAD PUSH32 0x7C2411E900000000000000000000000000000000000000000000000000000000 DUP2 MSTORE PUSH1 0x4 ADD PUSH1 0x40 MLOAD DUP1 SWAP2 SUB SWAP1 REVERT JUMPDEST PUSH0 PUSH20 0xFFFFFFFFFFFFFFFFFFFFFFFFFFFFFFFFFFFFFFFF AND DUP3 PUSH20 0xFFFFFFFFFFFFFFFFFFFFFFFFFFFFFFFFFFFFFFFF AND SUB PUSH2 0x88D JUMPI PUSH1 0x40 MLOAD PUSH32 0xFF7D580D00000000000000000000000000000000000000000000000000000000 DUP2 MSTORE PUSH1 0x4 ADD PUSH1 0x40 MLOAD DUP1 SWAP2 SUB SWAP1 REVERT JUMPDEST DUP2 PUSH0 PUSH0 DUP6 DUP2 MSTORE PUSH1 0x20 ADD SWAP1 DUP2 MSTORE PUSH1 0x20 ADD PUSH0 KECCAK256 PUSH0 PUSH2 0x100 EXP DUP2 SLOAD DUP2 PUSH20 0xFFFFFFFFFFFFFFFFFFFFFFFFFFFFFFFFFFFFFFFF MUL NOT AND SWAP1 DUP4 PUSH20 0xFFFFFFFFFFFFFFFFFFFFFFFFFFFFFFFFFFFFFFFF AND MUL OR SWAP1 SSTORE POP DUP2 PUSH20 0xFFFFFFFFFFFFFFFFFFFFFFFFFFFFFFFFFFFFFFFF AND DUP4 PUSH32 0x7869F0FA3D7EFAA83C69BF6DE987567787178B8D7E41FEA0CADFEA68A2E27DE5 PUSH1 0x40 MLOAD PUSH1 0x40 MLOAD DUP1 SWAP2 SUB SWAP1 LOG3 POP POP POP JUMP JUMPDEST PUSH1 0x1 PUSH1 0x20 MSTORE DUP2 PUSH0 MSTORE PUSH1 0x40 PUSH0 KECCAK256 PUSH1 0x20 MSTORE DUP1 PUSH0 MSTORE PUSH1 0x40 PUSH0 KECCAK256 PUSH0 SWAP2 POP SWAP2 POP SWAP1 SLOAD SWAP1 PUSH2 0x100 EXP SWAP1 DIV PUSH1 0xFF AND DUP2 JUMP JUMPDEST DUP3 CALLER PUSH20 0xFFFFFFFFFFFFFFFFFFFFFFFFFFFFFFFFFFFFFFFF AND PUSH0 PUSH0 DUP4 DUP2 MSTORE PUSH1 0x20 ADD SWAP1 DUP2 MSTORE PUSH1 0x20 ADD PUSH0 KECCAK256 PUSH0 SWAP1 SLOAD SWAP1 PUSH2 0x100 EXP SWAP1 DIV PUSH20 0xFFFFFFFFFFFFFFFFFFFFFFFFFFFFFFFFFFFFFFFF AND PUSH20 0xFFFFFFFFFFFFFFFFFFFFFFFFFFFFFFFFFFFFFFFF AND EQ PUSH2 0x9E3 JUMPI PUSH1 0x40 MLOAD PUSH32 0x7C2411E900000000000000000000000000000000000000000000000000000000 DUP2 MSTORE PUSH1 0x4 ADD PUSH1 0x40 MLOAD DUP1 SWAP2 SUB SWAP1 REVERT JUMPDEST DUP2 MLOAD DUP4 MLOAD EQ PUSH2 0xA1E JUMPI PUSH1 0x40 MLOAD PUSH32 0x526C768700000000000000000000000000000000000000000000000000000000 DUP2 MSTORE PUSH1 0x4 ADD PUSH1 0x40 MLOAD DUP1 SWAP2 SUB SWAP1 REVERT JUMPDEST PUSH0 JUMPDEST PUSH1 0x1 DUP4 MLOAD PUSH2 0xA2E SWAP2 SWAP1 PUSH2 0x1F31 JUMP JUMPDEST DUP2 LT ISZERO PUSH2 0xABC JUMPI DUP3 PUSH1 0x1 DUP3 PUSH2 0xA43 SWAP2 SWAP1 PUSH2 0x1F64 JUMP JUMPDEST DUP2 MLOAD DUP2 LT PUSH2 0xA54 JUMPI PUSH2 0xA53 PUSH2 0x1BBA JUMP JUMPDEST JUMPDEST PUSH1 0x20 MUL PUSH1 0x20 ADD ADD MLOAD DUP4 DUP3 DUP2 MLOAD DUP2 LT PUSH2 0xA6F JUMPI PUSH2 0xA6E PUSH2 0x1BBA JUMP JUMPDEST JUMPDEST PUSH1 0x20 MUL PUSH1 0x20 ADD ADD MLOAD LT ISZERO PUSH2 0xAAF JUMPI PUSH1 0x40 MLOAD PUSH32 0x526C768700000000000000000000000000000000000000000000000000000000 DUP2 MSTORE PUSH1 0x4 ADD PUSH1 0x40 MLOAD DUP1 SWAP2 SUB SWAP1 REVERT JUMPDEST DUP1 DUP1 PUSH1 0x1 ADD SWAP2 POP POP PUSH2 0xA20 JUMP JUMPDEST POP PUSH0 JUMPDEST DUP4 MLOAD DUP2 LT ISZERO PUSH2 0xB14 JUMPI PUSH2 0xB07 DUP6 DUP6 DUP4 DUP2 MLOAD DUP2 LT PUSH2 0xADF JUMPI PUSH2 0xADE PUSH2 0x1BBA JUMP JUMPDEST JUMPDEST PUSH1 0x20 MUL PUSH1 0x20 ADD ADD MLOAD DUP6 DUP5 DUP2 MLOAD DUP2 LT PUSH2 0xAFA JUMPI PUSH2 0xAF9 PUSH2 0x1BBA JUMP JUMPDEST JUMPDEST PUSH1 0x20 MUL PUSH1 0x20 ADD ADD MLOAD PUSH2 0xFE9 JUMP JUMPDEST DUP1 DUP1 PUSH1 0x1 ADD SWAP2 POP POP PUSH2 0xABF JUMP JUMPDEST POP POP POP POP POP JUMP JUMPDEST PUSH0 PUSH0 CALLER SWAP1 POP PUSH0 PUSH20 0xFFFFFFFFFFFFFFFFFFFFFFFFFFFFFFFFFFFFFFFF AND DUP2 PUSH20 0xFFFFFFFFFFFFFFFFFFFFFFFFFFFFFFFFFFFFFFFF AND SUB PUSH2 0xB85 JUMPI PUSH1 0x40 MLOAD PUSH32 0xFF7D580D00000000000000000000000000000000000000000000000000000000 DUP2 MSTORE PUSH1 0x4 ADD PUSH1 0x40 MLOAD DUP1 SWAP2 SUB SWAP1 REVERT JUMPDEST DUP3 DUP2 PUSH1 0x40 MLOAD PUSH1 0x20 ADD PUSH2 0xB98 SWAP3 SWAP2 SWAP1 PUSH2 0x1FFC JUMP JUMPDEST PUSH1 0x40 MLOAD PUSH1 0x20 DUP2 DUP4 SUB SUB DUP2 MSTORE SWAP1 PUSH1 0x40 MSTORE PUSH2 0xBB0 SWAP1 PUSH2 0x2060 JUMP JUMPDEST SWAP2 POP PUSH0 PUSH20 0xFFFFFFFFFFFFFFFFFFFFFFFFFFFFFFFFFFFFFFFF AND PUSH0 PUSH0 DUP5 DUP2 MSTORE PUSH1 0x20 ADD SWAP1 DUP2 MSTORE PUSH1 0x20 ADD PUSH0 KECCAK256 PUSH0 SWAP1 SLOAD SWAP1 PUSH2 0x100 EXP SWAP1 DIV PUSH20 0xFFFFFFFFFFFFFFFFFFFFFFFFFFFFFFFFFFFFFFFF AND PUSH20 0xFFFFFFFFFFFFFFFFFFFFFFFFFFFFFFFFFFFFFFFF AND EQ PUSH2 0xC46 JUMPI PUSH1 0x40 MLOAD PUSH32 0xFEABEB4B00000000000000000000000000000000000000000000000000000000 DUP2 MSTORE PUSH1 0x4 ADD PUSH1 0x40 MLOAD DUP1 SWAP2 SUB SWAP1 REVERT JUMPDEST DUP1 PUSH0 PUSH0 DUP5 DUP2 MSTORE PUSH1 0x20 ADD SWAP1 DUP2 MSTORE PUSH1 0x20 ADD PUSH0 KECCAK256 PUSH0 PUSH2 0x100 EXP DUP2 SLOAD DUP2 PUSH20 0xFFFFFFFFFFFFFFFFFFFFFFFFFFFFFFFFFFFFFFFF MUL NOT AND SWAP1 DUP4 PUSH20 0xFFFFFFFFFFFFFFFFFFFFFFFFFFFFFFFFFFFFFFFF AND MUL OR SWAP1 SSTORE POP DUP1 PUSH20 0xFFFFFFFFFFFFFFFFFFFFFFFFFFFFFFFFFFFFFFFF AND DUP3 PUSH32 0xF01CD0734CC8ED416AC6CA25CB4FE02DBAB63F1236AF3858DEB14A566636238 PUSH1 0x40 MLOAD PUSH1 0x40 MLOAD DUP1 SWAP2 SUB SWAP1 LOG3 POP SWAP2 SWAP1 POP JUMP JUMPDEST PUSH1 0x2 PUSH1 0x20 MSTORE DUP2 PUSH0 MSTORE PUSH1 0x40 PUSH0 KECCAK256 DUP2 DUP2 SLOAD DUP2 LT PUSH2 0xCF7 JUMPI PUSH0 DUP1 REVERT JUMPDEST SWAP1 PUSH0 MSTORE PUSH1 0x20 PUSH0 KECCAK256 ADD PUSH0 SWAP2 POP SWAP2 POP POP SLOAD DUP2 JUMP JUMPDEST DUP2 CALLER PUSH20 0xFFFFFFFFFFFFFFFFFFFFFFFFFFFFFFFFFFFFFFFF AND PUSH0 PUSH0 DUP4 DUP2 MSTORE PUSH1 0x20 ADD SWAP1 DUP2 MSTORE PUSH1 0x20 ADD PUSH0 KECCAK256 PUSH0 SWAP1 SLOAD SWAP1 PUSH2 0x100 EXP SWAP1 DIV PUSH20 0xFFFFFFFFFFFFFFFFFFFFFFFFFFFFFFFFFFFFFFFF AND PUSH20 0xFFFFFFFFFFFFFFFFFFFFFFFFFFFFFFFFFFFFFFFF AND EQ PUSH2 0xD9E JUMPI PUSH1 0x40 MLOAD PUSH32 0x7C2411E900000000000000000000000000000000000000000000000000000000 DUP2 MSTORE PUSH1 0x4 ADD PUSH1 0x40 MLOAD DUP1 SWAP2 SUB SWAP1 REVERT JUMPDEST PUSH0 PUSH2 0xDA8 DUP4 PUSH2 0x1187 JUMP JUMPDEST SWAP1 POP PUSH0 JUMPDEST PUSH1 0x2 PUSH0 DUP7 DUP2 MSTORE PUSH1 0x20 ADD SWAP1 DUP2 MSTORE PUSH1 0x20 ADD PUSH0 KECCAK256 DUP1 SLOAD SWAP1 POP DUP2 LT ISZERO PUSH2 0xE19 JUMPI DUP2 PUSH1 0x2 PUSH0 DUP8 DUP2 MSTORE PUSH1 0x20 ADD SWAP1 DUP2 MSTORE PUSH1 0x20 ADD PUSH0 KECCAK256 DUP3 DUP2 SLOAD DUP2 LT PUSH2 0xDEC JUMPI PUSH2 0xDEB PUSH2 0x1BBA JUMP JUMPDEST JUMPDEST SWAP1 PUSH0 MSTORE PUSH1 0x20 PUSH0 KECCAK256 ADD SLOAD SUB PUSH2 0xE0C JUMPI PUSH2 0xE05 DUP6 DUP4 DUP4 PUSH2 0xFE9 JUMP JUMPDEST POP POP PUSH2 0xE4C JUMP JUMPDEST DUP1 DUP1 PUSH1 0x1 ADD SWAP2 POP POP PUSH2 0xDAC JUMP JUMPDEST POP PUSH1 0x40 MLOAD PUSH32 0x4745A4EE00000000000000000000000000000000000000000000000000000000 DUP2 MSTORE PUSH1 0x4 ADD PUSH1 0x40 MLOAD DUP1 SWAP2 SUB SWAP1 REVERT JUMPDEST POP POP POP JUMP JUMPDEST PUSH0 PUSH1 0x20 MSTORE DUP1 PUSH0 MSTORE PUSH1 0x40 PUSH0 KECCAK256 PUSH0 SWAP2 POP SLOAD SWAP1 PUSH2 0x100 EXP SWAP1 DIV PUSH20 0xFFFFFFFFFFFFFFFFFFFFFFFFFFFFFFFFFFFFFFFF AND DUP2 JUMP JUMPDEST PUSH1 0x60 PUSH1 0x2 PUSH0 DUP4 DUP2 MSTORE PUSH1 0x20 ADD SWAP1 DUP2 MSTORE PUSH1 0x20 ADD PUSH0 KECCAK256 DUP1 SLOAD DUP1 PUSH1 0x20 MUL PUSH1 0x20 ADD PUSH1 0x40 MLOAD SWAP1 DUP2 ADD PUSH1 0x40 MSTORE DUP1 SWAP3 SWAP2 SWAP1 DUP2 DUP2 MSTORE PUSH1 0x20 ADD DUP3 DUP1 SLOAD DUP1 ISZERO PUSH2 0xEDB JUMPI PUSH1 0x20 MUL DUP3 ADD SWAP2 SWAP1 PUSH0 MSTORE PUSH1 0x20 PUSH0 KECCAK256 SWAP1 JUMPDEST DUP2 SLOAD DUP2 MSTORE PUSH1 0x20 ADD SWAP1 PUSH1 0x1 ADD SWAP1 DUP1 DUP4 GT PUSH2 0xEC7 JUMPI JUMPDEST POP POP POP POP POP SWAP1 POP SWAP2 SWAP1 POP JUMP JUMPDEST PUSH1 0x1 PUSH0 DUP4 DUP2 MSTORE PUSH1 0x20 ADD SWAP1 DUP2 MSTORE PUSH1 0x20 ADD PUSH0 KECCAK256 PUSH0 DUP3 DUP2 MSTORE PUSH1 0x20 ADD SWAP1 DUP2 MSTORE PUSH1 0x20 ADD PUSH0 KECCAK256 PUSH0 SWAP1 SLOAD SWAP1 PUSH2 0x100 EXP SWAP1 DIV PUSH1 0xFF AND ISZERO PUSH2 0xF4B JUMPI PUSH1 0x40 MLOAD PUSH32 0x2D86C03A00000000000000000000000000000000000000000000000000000000 DUP2 MSTORE PUSH1 0x4 ADD PUSH1 0x40 MLOAD DUP1 SWAP2 SUB SWAP1 REVERT JUMPDEST PUSH1 0x1 DUP1 PUSH0 DUP5 DUP2 MSTORE PUSH1 0x20 ADD SWAP1 DUP2 MSTORE PUSH1 0x20 ADD PUSH0 KECCAK256 PUSH0 DUP4 DUP2 MSTORE PUSH1 0x20 ADD SWAP1 DUP2 MSTORE PUSH1 0x20 ADD PUSH0 KECCAK256 PUSH0 PUSH2 0x100 EXP DUP2 SLOAD DUP2 PUSH1 0xFF MUL NOT AND SWAP1 DUP4 ISZERO ISZERO MUL OR SWAP1 SSTORE POP PUSH1 0x2 PUSH0 DUP4 DUP2 MSTORE PUSH1 0x20 ADD SWAP1 DUP2 MSTORE PUSH1 0x20 ADD PUSH0 KECCAK256 DUP2 SWAP1 DUP1 PUSH1 0x1 DUP2 SLOAD ADD DUP1 DUP3 SSTORE DUP1 SWAP2 POP POP PUSH1 0x1 SWAP1 SUB SWAP1 PUSH0 MSTORE PUSH1 0x20 PUSH0 KECCAK256 ADD PUSH0 SWAP1 SWAP2 SWAP1 SWAP2 SWAP1 SWAP2 POP SSTORE DUP1 DUP3 PUSH32 0xCEAC3080D7874C4BBA80CEAE14B6AA96E0DF9D4F673D9E5A352D66444F502067 PUSH1 0x40 MLOAD PUSH1 0x40 MLOAD DUP1 SWAP2 SUB SWAP1 LOG3 POP POP JUMP JUMPDEST PUSH1 0x2 PUSH0 DUP5 DUP2 MSTORE PUSH1 0x20 ADD SWAP1 DUP2 MSTORE PUSH1 0x20 ADD PUSH0 KECCAK256 DUP1 SLOAD SWAP1 POP DUP2 LT ISZERO DUP1 PUSH2 0x1037 JUMPI POP DUP2 PUSH1 0x2 PUSH0 DUP6 DUP2 MSTORE PUSH1 0x20 ADD SWAP1 DUP2 MSTORE PUSH1 0x20 ADD PUSH0 KECCAK256 DUP3 DUP2 SLOAD DUP2 LT PUSH2 0x102B JUMPI PUSH2 0x102A PUSH2 0x1BBA JUMP JUMPDEST JUMPDEST SWAP1 PUSH0 MSTORE PUSH1 0x20 PUSH0 KECCAK256 ADD SLOAD EQ ISZERO JUMPDEST ISZERO PUSH2 0x106E JUMPI PUSH1 0x40 MLOAD PUSH32 0x526C768700000000000000000000000000000000000000000000000000000000 DUP2 MSTORE PUSH1 0x4 ADD PUSH1 0x40 MLOAD DUP1 SWAP2 SUB SWAP1 REVERT JUMPDEST PUSH0 PUSH1 0x1 PUSH0 DUP6 DUP2 MSTORE PUSH1 0x20 ADD SWAP1 DUP2 MSTORE PUSH1 0x20 ADD PUSH0 KECCAK256 PUSH0 DUP5 DUP2 MSTORE PUSH1 0x20 ADD SWAP1 DUP2 MSTORE PUSH1 0x20 ADD PUSH0 KECCAK256 PUSH0 PUSH2 0x100 EXP DUP2 SLOAD DUP2 PUSH1 0xFF MUL NOT AND SWAP1 DUP4 ISZERO ISZERO MUL OR SWAP1 SSTORE POP PUSH1 0x2 PUSH0 DUP5 DUP2 MSTORE PUSH1 0x20 ADD SWAP1 DUP2 MSTORE PUSH1 0x20 ADD PUSH0 KECCAK256 PUSH1 0x1 PUSH1 0x2 PUSH0 DUP7 DUP2 MSTORE PUSH1 0x20 ADD SWAP1 DUP2 MSTORE PUSH1 0x20 ADD PUSH0 KECCAK256 DUP1 SLOAD SWAP1 POP PUSH2 0x10D7 SWAP2 SWAP1 PUSH2 0x1F31 JUMP JUMPDEST DUP2 SLOAD DUP2 LT PUSH2 0x10E8 JUMPI PUSH2 0x10E7 PUSH2 0x1BBA JUMP JUMPDEST JUMPDEST SWAP1 PUSH0 MSTORE PUSH1 0x20 PUSH0 KECCAK256 ADD SLOAD PUSH1 0x2 PUSH0 DUP6 DUP2 MSTORE PUSH1 0x20 ADD SWAP1 DUP2 MSTORE PUSH1 0x20 ADD PUSH0 KECCAK256 DUP3 DUP2 SLOAD DUP2 LT PUSH2 0x1114 JUMPI PUSH2 0x1113 PUSH2 0x1BBA JUMP JUMPDEST JUMPDEST SWAP1 PUSH0 MSTORE PUSH1 0x20 PUSH0 KECCAK256 ADD DUP2 SWAP1 SSTORE POP PUSH1 0x2 PUSH0 DUP5 DUP2 MSTORE PUSH1 0x20 ADD SWAP1 DUP2 MSTORE PUSH1 0x20 ADD PUSH0 KECCAK256 DUP1 SLOAD DUP1 PUSH2 0x1141 JUMPI PUSH2 0x1140 PUSH2 0x20C6 JUMP JUMPDEST JUMPDEST PUSH1 0x1 SWAP1 SUB DUP2 DUP2 SWAP1 PUSH0 MSTORE PUSH1 0x20 PUSH0 KECCAK256 ADD PUSH0 SWAP1 SSTORE SWAP1 SSTORE DUP2 DUP4 PUSH32 0x13D94DE535E503661DE3C84ADF637590F269F37C8D4ED5DAABAE98376A442A6A PUSH1 0x40 MLOAD PUSH1 0x40 MLOAD DUP1 SWAP2 SUB SWAP1 LOG3 POP POP POP JUMP JUMPDEST PUSH0 DUP2 PUSH1 0x40 MLOAD PUSH1 0x20 ADD PUSH2 0x1199 SWAP2 SWAP1 PUSH2 0x2145 JUMP JUMPDEST PUSH1 0x40 MLOAD PUSH1 0x20 DUP2 DUP4 SUB SUB DUP2 MSTORE SWAP1 PUSH1 0x40 MSTORE DUP1 MLOAD SWAP1 PUSH1 0x20 ADD KECCAK256 SWAP1 POP SWAP2 SWAP1 POP JUMP JUMPDEST PUSH0 PUSH1 0x40 MLOAD PUSH1 0x20 ADD PUSH2 0x11C6 SWAP1 PUSH2 0x21A5 JUMP JUMPDEST PUSH1 0x40 MLOAD PUSH1 0x20 DUP2 DUP4 SUB SUB DUP2 MSTORE SWAP1 PUSH1 0x40 MSTORE DUP1 MLOAD SWAP1 PUSH1 0x20 ADD KECCAK256 DUP3 DUP5 PUSH1 0x60 ADD MLOAD DUP6 PUSH1 0x40 ADD MLOAD PUSH1 0x40 MLOAD PUSH1 0x20 ADD PUSH2 0x11FA SWAP5 SWAP4 SWAP3 SWAP2 SWAP1 PUSH2 0x21D9 JUMP JUMPDEST PUSH1 0x40 MLOAD PUSH1 0x20 DUP2 DUP4 SUB SUB DUP2 MSTORE SWAP1 PUSH1 0x40 MSTORE DUP1 MLOAD SWAP1 PUSH1 0x20 ADD KECCAK256 SWAP1 POP SWAP3 SWAP2 POP POP JUMP JUMPDEST PUSH0 PUSH1 0x40 MLOAD SWAP1 POP SWAP1 JUMP JUMPDEST PUSH0 PUSH0 REVERT JUMPDEST PUSH0 PUSH0 REVERT JUMPDEST PUSH0 DUP2 SWAP1 POP SWAP2 SWAP1 POP JUMP JUMPDEST PUSH2 0x123B DUP2 PUSH2 0x1229 JUMP JUMPDEST DUP2 EQ PUSH2 0x1245 JUMPI PUSH0 PUSH0 REVERT JUMPDEST POP JUMP JUMPDEST PUSH0 DUP2 CALLDATALOAD SWAP1 POP PUSH2 0x1256 DUP2 PUSH2 0x1232 JUMP JUMPDEST SWAP3 SWAP2 POP POP JUMP JUMPDEST PUSH0 PUSH0 REVERT JUMPDEST PUSH0 PUSH1 0x1F NOT PUSH1 0x1F DUP4 ADD AND SWAP1 POP SWAP2 SWAP1 POP JUMP JUMPDEST PUSH32 0x4E487B7100000000000000000000000000000000000000000000000000000000 PUSH0 MSTORE PUSH1 0x41 PUSH1 0x4 MSTORE PUSH1 0x24 PUSH0 REVERT JUMPDEST PUSH2 0x12A6 DUP3 PUSH2 0x1260 JUMP JUMPDEST DUP2 ADD DUP2 DUP2 LT PUSH8 0xFFFFFFFFFFFFFFFF DUP3 GT OR ISZERO PUSH2 0x12C5 JUMPI PUSH2 0x12C4 PUSH2 0x1270 JUMP JUMPDEST JUMPDEST DUP1 PUSH1 0x40 MSTORE POP POP POP JUMP JUMPDEST PUSH0 PUSH2 0x12D7 PUSH2 0x1218 JUMP JUMPDEST SWAP1 POP PUSH2 0x12E3 DUP3 DUP3 PUSH2 0x129D JUMP JUMPDEST SWAP2 SWAP1 POP JUMP JUMPDEST PUSH0 PUSH8 0xFFFFFFFFFFFFFFFF DUP3 GT ISZERO PUSH2 0x1302 JUMPI PUSH2 0x1301 PUSH2 0x1270 JUMP JUMPDEST JUMPDEST PUSH1 0x20 DUP3 MUL SWAP1 POP PUSH1 0x20 DUP2 ADD SWAP1 POP SWAP2 SWAP1 POP JUMP JUMPDEST PUSH0 PUSH0 REVERT JUMPDEST PUSH0 PUSH2 0x1329 PUSH2 0x1324 DUP5 PUSH2 0x12E8 JUMP JUMPDEST PUSH2 0x12CE JUMP JUMPDEST SWAP1 POP DUP1 DUP4 DUP3 MSTORE PUSH1 0x20 DUP3 ADD SWAP1 POP PUSH1 0x20 DUP5 MUL DUP4 ADD DUP6 DUP2 GT ISZERO PUSH2 0x134C JUMPI PUSH2 0x134B PUSH2 0x1313 JUMP JUMPDEST JUMPDEST DUP4 JUMPDEST DUP2 DUP2 LT ISZERO PUSH2 0x1375 JUMPI DUP1 PUSH2 0x1361 DUP9 DUP3 PUSH2 0x1248 JUMP JUMPDEST DUP5 MSTORE PUSH1 0x20 DUP5 ADD SWAP4 POP POP PUSH1 0x20 DUP2 ADD SWAP1 POP PUSH2 0x134E JUMP JUMPDEST POP POP POP SWAP4 SWAP3 POP POP POP JUMP JUMPDEST PUSH0 DUP3 PUSH1 0x1F DUP4 ADD SLT PUSH2 0x1393 JUMPI PUSH2 0x1392 PUSH2 0x125C JUMP JUMPDEST JUMPDEST DUP2 CALLDATALOAD PUSH2 0x13A3 DUP5 DUP3 PUSH1 0x20 DUP7 ADD PUSH2 0x1317 JUMP JUMPDEST SWAP2 POP POP SWAP3 SWAP2 POP POP JUMP JUMPDEST PUSH0 PUSH0 PUSH1 0x40 DUP4 DUP6 SUB SLT ISZERO PUSH2 0x13C2 JUMPI PUSH2 0x13C1 PUSH2 0x1221 JUMP JUMPDEST JUMPDEST PUSH0 PUSH2 0x13CF DUP6 DUP3 DUP7 ADD PUSH2 0x1248 JUMP JUMPDEST SWAP3 POP POP PUSH1 0x20 DUP4 ADD CALLDATALOAD PUSH8 0xFFFFFFFFFFFFFFFF DUP2 GT ISZERO PUSH2 0x13F0 JUMPI PUSH2 0x13EF PUSH2 0x1225 JUMP JUMPDEST JUMPDEST PUSH2 0x13FC DUP6 DUP3 DUP7 ADD PUSH2 0x137F JUMP JUMPDEST SWAP2 POP POP SWAP3 POP SWAP3 SWAP1 POP JUMP JUMPDEST PUSH0 DUP2 SWAP1 POP SWAP2 SWAP1 POP JUMP JUMPDEST PUSH2 0x1418 DUP2 PUSH2 0x1406 JUMP JUMPDEST DUP2 EQ PUSH2 0x1422 JUMPI PUSH0 PUSH0 REVERT JUMPDEST POP JUMP JUMPDEST PUSH0 DUP2 CALLDATALOAD SWAP1 POP PUSH2 0x1433 DUP2 PUSH2 0x140F JUMP JUMPDEST SWAP3 SWAP2 POP POP JUMP JUMPDEST PUSH0 PUSH0 PUSH0 PUSH1 0x60 DUP5 DUP7 SUB SLT ISZERO PUSH2 0x1450 JUMPI PUSH2 0x144F PUSH2 0x1221 JUMP JUMPDEST JUMPDEST PUSH0 PUSH2 0x145D DUP7 DUP3 DUP8 ADD PUSH2 0x1248 JUMP JUMPDEST SWAP4 POP POP PUSH1 0x20 PUSH2 0x146E DUP7 DUP3 DUP8 ADD PUSH2 0x1248 JUMP JUMPDEST SWAP3 POP POP PUSH1 0x40 PUSH2 0x147F DUP7 DUP3 DUP8 ADD PUSH2 0x1425 JUMP JUMPDEST SWAP2 POP POP SWAP3 POP SWAP3 POP SWAP3 JUMP JUMPDEST PUSH0 PUSH0 REVERT JUMPDEST PUSH0 PUSH8 0xFFFFFFFFFFFFFFFF DUP3 GT ISZERO PUSH2 0x14A7 JUMPI PUSH2 0x14A6 PUSH2 0x1270 JUMP JUMPDEST JUMPDEST PUSH2 0x14B0 DUP3 PUSH2 0x1260 JUMP JUMPDEST SWAP1 POP PUSH1 0x20 DUP2 ADD SWAP1 POP SWAP2 SWAP1 POP JUMP JUMPDEST DUP3 DUP2 DUP4 CALLDATACOPY PUSH0 DUP4 DUP4 ADD MSTORE POP POP POP JUMP JUMPDEST PUSH0 PUSH2 0x14DD PUSH2 0x14D8 DUP5 PUSH2 0x148D JUMP JUMPDEST PUSH2 0x12CE JUMP JUMPDEST SWAP1 POP DUP3 DUP2 MSTORE PUSH1 0x20 DUP2 ADD DUP5 DUP5 DUP5 ADD GT ISZERO PUSH2 0x14F9 JUMPI PUSH2 0x14F8 PUSH2 0x1489 JUMP JUMPDEST JUMPDEST PUSH2 0x1504 DUP5 DUP3 DUP6 PUSH2 0x14BD JUMP JUMPDEST POP SWAP4 SWAP3 POP POP POP JUMP JUMPDEST PUSH0 DUP3 PUSH1 0x1F DUP4 ADD SLT PUSH2 0x1520 JUMPI PUSH2 0x151F PUSH2 0x125C JUMP JUMPDEST JUMPDEST DUP2 CALLDATALOAD PUSH2 0x1530 DUP5 DUP3 PUSH1 0x20 DUP7 ADD PUSH2 0x14CB JUMP JUMPDEST SWAP2 POP POP SWAP3 SWAP2 POP POP JUMP JUMPDEST PUSH0 PUSH0 PUSH1 0x40 DUP4 DUP6 SUB SLT ISZERO PUSH2 0x154F JUMPI PUSH2 0x154E PUSH2 0x1221 JUMP JUMPDEST JUMPDEST PUSH0 PUSH2 0x155C DUP6 DUP3 DUP7 ADD PUSH2 0x1248 JUMP JUMPDEST SWAP3 POP POP PUSH1 0x20 DUP4 ADD CALLDATALOAD PUSH8 0xFFFFFFFFFFFFFFFF DUP2 GT ISZERO PUSH2 0x157D JUMPI PUSH2 0x157C PUSH2 0x1225 JUMP JUMPDEST JUMPDEST PUSH2 0x1589 DUP6 DUP3 DUP7 ADD PUSH2 0x150C JUMP JUMPDEST SWAP2 POP POP SWAP3 POP SWAP3 SWAP1 POP JUMP JUMPDEST PUSH0 PUSH20 0xFFFFFFFFFFFFFFFFFFFFFFFFFFFFFFFFFFFFFFFF DUP3 AND SWAP1 POP SWAP2 SWAP1 POP JUMP JUMPDEST PUSH0 PUSH2 0x15BC DUP3 PUSH2 0x1593 JUMP JUMPDEST SWAP1 POP SWAP2 SWAP1 POP JUMP JUMPDEST PUSH2 0x15CC DUP2 PUSH2 0x15B2 JUMP JUMPDEST DUP2 EQ PUSH2 0x15D6 JUMPI PUSH0 PUSH0 REVERT JUMPDEST POP JUMP JUMPDEST PUSH0 DUP2 CALLDATALOAD SWAP1 POP PUSH2 0x15E7 DUP2 PUSH2 0x15C3 JUMP JUMPDEST SWAP3 SWAP2 POP POP JUMP JUMPDEST PUSH0 PUSH0 REVERT JUMPDEST PUSH0 PUSH1 0xC0 DUP3 DUP5 SUB SLT ISZERO PUSH2 0x1606 JUMPI PUSH2 0x1605 PUSH2 0x15ED JUMP JUMPDEST JUMPDEST DUP2 SWAP1 POP SWAP3 SWAP2 POP POP JUMP JUMPDEST PUSH0 PUSH0 PUSH0 PUSH1 0x60 DUP5 DUP7 SUB SLT ISZERO PUSH2 0x1626 JUMPI PUSH2 0x1625 PUSH2 0x1221 JUMP JUMPDEST JUMPDEST PUSH0 PUSH2 0x1633 DUP7 DUP3 DUP8 ADD PUSH2 0x15D9 JUMP JUMPDEST SWAP4 POP POP PUSH1 0x20 DUP5 ADD CALLDATALOAD PUSH8 0xFFFFFFFFFFFFFFFF DUP2 GT ISZERO PUSH2 0x1654 JUMPI PUSH2 0x1653 PUSH2 0x1225 JUMP JUMPDEST JUMPDEST PUSH2 0x1660 DUP7 DUP3 DUP8 ADD PUSH2 0x15F1 JUMP JUMPDEST SWAP3 POP POP PUSH1 0x40 PUSH2 0x1671 DUP7 DUP3 DUP8 ADD PUSH2 0x1248 JUMP JUMPDEST SWAP2 POP POP SWAP3 POP SWAP3 POP SWAP3 JUMP JUMPDEST PUSH2 0x1684 DUP2 PUSH2 0x1229 JUMP JUMPDEST DUP3 MSTORE POP POP JUMP JUMPDEST PUSH0 PUSH1 0x20 DUP3 ADD SWAP1 POP PUSH2 0x169D PUSH0 DUP4 ADD DUP5 PUSH2 0x167B JUMP JUMPDEST SWAP3 SWAP2 POP POP JUMP JUMPDEST PUSH0 PUSH0 PUSH1 0x40 DUP4 DUP6 SUB SLT ISZERO PUSH2 0x16B9 JUMPI PUSH2 0x16B8 PUSH2 0x1221 JUMP JUMPDEST JUMPDEST PUSH0 PUSH2 0x16C6 DUP6 DUP3 DUP7 ADD PUSH2 0x1248 JUMP JUMPDEST SWAP3 POP POP PUSH1 0x20 PUSH2 0x16D7 DUP6 DUP3 DUP7 ADD PUSH2 0x1248 JUMP JUMPDEST SWAP2 POP POP SWAP3 POP SWAP3 SWAP1 POP JUMP JUMPDEST PUSH0 PUSH8 0xFFFFFFFFFFFFFFFF DUP3 GT ISZERO PUSH2 0x16FB JUMPI PUSH2 0x16FA PUSH2 0x1270 JUMP JUMPDEST JUMPDEST PUSH1 0x20 DUP3 MUL SWAP1 POP PUSH1 0x20 DUP2 ADD SWAP1 POP SWAP2 SWAP1 POP JUMP JUMPDEST PUSH0 PUSH2 0x171E PUSH2 0x1719 DUP5 PUSH2 0x16E1 JUMP JUMPDEST PUSH2 0x12CE JUMP JUMPDEST SWAP1 POP DUP1 DUP4 DUP3 MSTORE PUSH1 0x20 DUP3 ADD SWAP1 POP PUSH1 0x20 DUP5 MUL DUP4 ADD DUP6 DUP2 GT ISZERO PUSH2 0x1741 JUMPI PUSH2 0x1740 PUSH2 0x1313 JUMP JUMPDEST JUMPDEST DUP4 JUMPDEST DUP2 DUP2 LT ISZERO PUSH2 0x1788 JUMPI DUP1 CALLDATALOAD PUSH8 0xFFFFFFFFFFFFFFFF DUP2 GT ISZERO PUSH2 0x1766 JUMPI PUSH2 0x1765 PUSH2 0x125C JUMP JUMPDEST JUMPDEST DUP1 DUP7 ADD PUSH2 0x1773 DUP10 DUP3 PUSH2 0x150C JUMP JUMPDEST DUP6 MSTORE PUSH1 0x20 DUP6 ADD SWAP5 POP POP POP PUSH1 0x20 DUP2 ADD SWAP1 POP PUSH2 0x1743 JUMP JUMPDEST POP POP POP SWAP4 SWAP3 POP POP POP JUMP JUMPDEST PUSH0 DUP3 PUSH1 0x1F DUP4 ADD SLT PUSH2 0x17A6 JUMPI PUSH2 0x17A5 PUSH2 0x125C JUMP JUMPDEST JUMPDEST DUP2 CALLDATALOAD PUSH2 0x17B6 DUP5 DUP3 PUSH1 0x20 DUP7 ADD PUSH2 0x170C JUMP JUMPDEST SWAP2 POP POP SWAP3 SWAP2 POP POP JUMP JUMPDEST PUSH0 PUSH0 PUSH1 0x40 DUP4 DUP6 SUB SLT ISZERO PUSH2 0x17D5 JUMPI PUSH2 0x17D4 PUSH2 0x1221 JUMP JUMPDEST JUMPDEST PUSH0 PUSH2 0x17E2 DUP6 DUP3 DUP7 ADD PUSH2 0x1248 JUMP JUMPDEST SWAP3 POP POP PUSH1 0x20 DUP4 ADD CALLDATALOAD PUSH8 0xFFFFFFFFFFFFFFFF DUP2 GT ISZERO PUSH2 0x1803 JUMPI PUSH2 0x1802 PUSH2 0x1225 JUMP JUMPDEST JUMPDEST PUSH2 0x180F DUP6 DUP3 DUP7 ADD PUSH2 0x1792 JUMP JUMPDEST SWAP2 POP POP SWAP3 POP SWAP3 SWAP1 POP JUMP JUMPDEST PUSH0 PUSH0 PUSH1 0x40 DUP4 DUP6 SUB SLT ISZERO PUSH2 0x182F JUMPI PUSH2 0x182E PUSH2 0x1221 JUMP JUMPDEST JUMPDEST PUSH0 PUSH2 0x183C DUP6 DUP3 DUP7 ADD PUSH2 0x1248 JUMP JUMPDEST SWAP3 POP POP PUSH1 0x20 PUSH2 0x184D DUP6 DUP3 DUP7 ADD PUSH2 0x15D9 JUMP JUMPDEST SWAP2 POP POP SWAP3 POP SWAP3 SWAP1 POP JUMP JUMPDEST PUSH0 DUP2 ISZERO ISZERO SWAP1 POP SWAP2 SWAP1 POP JUMP JUMPDEST PUSH2 0x186B DUP2 PUSH2 0x1857 JUMP JUMPDEST DUP3 MSTORE POP POP JUMP JUMPDEST PUSH0 PUSH1 0x20 DUP3 ADD SWAP1 POP PUSH2 0x1884 PUSH0 DUP4 ADD DUP5 PUSH2 0x1862 JUMP JUMPDEST SWAP3 SWAP2 POP POP JUMP JUMPDEST PUSH0 PUSH8 0xFFFFFFFFFFFFFFFF DUP3 GT ISZERO PUSH2 0x18A4 JUMPI PUSH2 0x18A3 PUSH2 0x1270 JUMP JUMPDEST JUMPDEST PUSH1 0x20 DUP3 MUL SWAP1 POP PUSH1 0x20 DUP2 ADD SWAP1 POP SWAP2 SWAP1 POP JUMP JUMPDEST PUSH0 PUSH2 0x18C7 PUSH2 0x18C2 DUP5 PUSH2 0x188A JUMP JUMPDEST PUSH2 0x12CE JUMP JUMPDEST SWAP1 POP DUP1 DUP4 DUP3 MSTORE PUSH1 0x20 DUP3 ADD SWAP1 POP PUSH1 0x20 DUP5 MUL DUP4 ADD DUP6 DUP2 GT ISZERO PUSH2 0x18EA JUMPI PUSH2 0x18E9 PUSH2 0x1313 JUMP JUMPDEST JUMPDEST DUP4 JUMPDEST DUP2 DUP2 LT ISZERO PUSH2 0x1913 JUMPI DUP1 PUSH2 0x18FF DUP9 DUP3 PUSH2 0x1425 JUMP JUMPDEST DUP5 MSTORE PUSH1 0x20 DUP5 ADD SWAP4 POP POP PUSH1 0x20 DUP2 ADD SWAP1 POP PUSH2 0x18EC JUMP JUMPDEST POP POP POP SWAP4 SWAP3 POP POP POP JUMP JUMPDEST PUSH0 DUP3 PUSH1 0x1F DUP4 ADD SLT PUSH2 0x1931 JUMPI PUSH2 0x1930 PUSH2 0x125C JUMP JUMPDEST JUMPDEST DUP2 CALLDATALOAD PUSH2 0x1941 DUP5 DUP3 PUSH1 0x20 DUP7 ADD PUSH2 0x18B5 JUMP JUMPDEST SWAP2 POP POP SWAP3 SWAP2 POP POP JUMP JUMPDEST PUSH0 PUSH0 PUSH0 PUSH1 0x60 DUP5 DUP7 SUB SLT ISZERO PUSH2 0x1961 JUMPI PUSH2 0x1960 PUSH2 0x1221 JUMP JUMPDEST JUMPDEST PUSH0 PUSH2 0x196E DUP7 DUP3 DUP8 ADD PUSH2 0x1248 JUMP JUMPDEST SWAP4 POP POP PUSH1 0x20 DUP5 ADD CALLDATALOAD PUSH8 0xFFFFFFFFFFFFFFFF DUP2 GT ISZERO PUSH2 0x198F JUMPI PUSH2 0x198E PUSH2 0x1225 JUMP JUMPDEST JUMPDEST PUSH2 0x199B DUP7 DUP3 DUP8 ADD PUSH2 0x137F JUMP JUMPDEST SWAP3 POP POP PUSH1 0x40 DUP5 ADD CALLDATALOAD PUSH8 0xFFFFFFFFFFFFFFFF DUP2 GT ISZERO PUSH2 0x19BC JUMPI PUSH2 0x19BB PUSH2 0x1225 JUMP JUMPDEST JUMPDEST PUSH2 0x19C8 DUP7 DUP3 DUP8 ADD PUSH2 0x191D JUMP JUMPDEST SWAP2 POP POP SWAP3 POP SWAP3 POP SWAP3 JUMP JUMPDEST PUSH0 PUSH32 0xFFFFFFFFFFFFFFFFFFFFFFFF0000000000000000000000000000000000000000 DUP3 AND SWAP1 POP SWAP2 SWAP1 POP JUMP JUMPDEST PUSH2 0x1A06 DUP2 PUSH2 0x19D2 JUMP JUMPDEST DUP2 EQ PUSH2 0x1A10 JUMPI PUSH0 PUSH0 REVERT JUMPDEST POP JUMP JUMPDEST PUSH0 DUP2 CALLDATALOAD SWAP1 POP PUSH2 0x1A21 DUP2 PUSH2 0x19FD JUMP JUMPDEST SWAP3 SWAP2 POP POP JUMP JUMPDEST PUSH0 PUSH1 0x20 DUP3 DUP5 SUB SLT ISZERO PUSH2 0x1A3C JUMPI PUSH2 0x1A3B PUSH2 0x1221 JUMP JUMPDEST JUMPDEST PUSH0 PUSH2 0x1A49 DUP5 DUP3 DUP6 ADD PUSH2 0x1A13 JUMP JUMPDEST SWAP2 POP POP SWAP3 SWAP2 POP POP JUMP JUMPDEST PUSH0 PUSH0 PUSH1 0x40 DUP4 DUP6 SUB SLT ISZERO PUSH2 0x1A68 JUMPI PUSH2 0x1A67 PUSH2 0x1221 JUMP JUMPDEST JUMPDEST PUSH0 PUSH2 0x1A75 DUP6 DUP3 DUP7 ADD PUSH2 0x1248 JUMP JUMPDEST SWAP3 POP POP PUSH1 0x20 PUSH2 0x1A86 DUP6 DUP3 DUP7 ADD PUSH2 0x1425 JUMP JUMPDEST SWAP2 POP POP SWAP3 POP SWAP3 SWAP1 POP JUMP JUMPDEST PUSH0 PUSH1 0x20 DUP3 DUP5 SUB SLT ISZERO PUSH2 0x1AA5 JUMPI PUSH2 0x1AA4 PUSH2 0x1221 JUMP JUMPDEST JUMPDEST PUSH0 PUSH2 0x1AB2 DUP5 DUP3 DUP6 ADD PUSH2 0x1248 JUMP JUMPDEST SWAP2 POP POP SWAP3 SWAP2 POP POP JUMP JUMPDEST PUSH2 0x1AC4 DUP2 PUSH2 0x15B2 JUMP JUMPDEST DUP3 MSTORE POP POP JUMP JUMPDEST PUSH0 PUSH1 0x20 DUP3 ADD SWAP1 POP PUSH2 0x1ADD PUSH0 DUP4 ADD DUP5 PUSH2 0x1ABB JUMP JUMPDEST SWAP3 SWAP2 POP POP JUMP JUMPDEST PUSH0 DUP2 MLOAD SWAP1 POP SWAP2 SWAP1 POP JUMP JUMPDEST PUSH0 DUP3 DUP3 MSTORE PUSH1 0x20 DUP3 ADD SWAP1 POP SWAP3 SWAP2 POP POP JUMP JUMPDEST PUSH0 DUP2 SWAP1 POP PUSH1 0x20 DUP3 ADD SWAP1 POP SWAP2 SWAP1 POP JUMP JUMPDEST PUSH2 0x1B15 DUP2 PUSH2 0x1229 JUMP JUMPDEST DUP3 MSTORE POP POP JUMP JUMPDEST PUSH0 PUSH2 0x1B26 DUP4 DUP4 PUSH2 0x1B0C JUMP JUMPDEST PUSH1 0x20 DUP4 ADD SWAP1 POP SWAP3 SWAP2 POP POP JUMP JUMPDEST PUSH0 PUSH1 0x20 DUP3 ADD SWAP1 POP SWAP2 SWAP1 POP JUMP JUMPDEST PUSH0 PUSH2 0x1B48 DUP3 PUSH2 0x1AE3 JUMP JUMPDEST PUSH2 0x1B52 DUP2 DUP6 PUSH2 0x1AED JUMP JUMPDEST SWAP4 POP PUSH2 0x1B5D DUP4 PUSH2 0x1AFD JUMP JUMPDEST DUP1 PUSH0 JUMPDEST DUP4 DUP2 LT ISZERO PUSH2 0x1B8D JUMPI DUP2 MLOAD PUSH2 0x1B74 DUP9 DUP3 PUSH2 0x1B1B JUMP JUMPDEST SWAP8 POP PUSH2 0x1B7F DUP4 PUSH2 0x1B32 JUMP JUMPDEST SWAP3 POP POP PUSH1 0x1 DUP2 ADD SWAP1 POP PUSH2 0x1B60 JUMP JUMPDEST POP DUP6 SWAP4 POP POP POP POP SWAP3 SWAP2 POP POP JUMP JUMPDEST PUSH0 PUSH1 0x20 DUP3 ADD SWAP1 POP DUP2 DUP2 SUB PUSH0 DUP4 ADD MSTORE PUSH2 0x1BB2 DUP2 DUP5 PUSH2 0x1B3E JUMP JUMPDEST SWAP1 POP SWAP3 SWAP2 POP POP JUMP JUMPDEST PUSH32 0x4E487B7100000000000000000000000000000000000000000000000000000000 PUSH0 MSTORE PUSH1 0x32 PUSH1 0x4 MSTORE PUSH1 0x24 PUSH0 REVERT JUMPDEST PUSH0 PUSH0 REVERT JUMPDEST PUSH0 PUSH0 REVERT JUMPDEST PUSH0 PUSH0 REVERT JUMPDEST PUSH0 DUP3 CALLDATALOAD PUSH1 0x1 PUSH1 0x40 SUB DUP4 CALLDATASIZE SUB SUB DUP2 SLT PUSH2 0x1C0E JUMPI PUSH2 0x1C0D PUSH2 0x1BE7 JUMP JUMPDEST JUMPDEST DUP1 DUP4 ADD SWAP2 POP POP SWAP3 SWAP2 POP POP JUMP JUMPDEST PUSH0 PUSH0 DUP4 CALLDATALOAD PUSH1 0x1 PUSH1 0x20 SUB DUP5 CALLDATASIZE SUB SUB DUP2 SLT PUSH2 0x1C36 JUMPI PUSH2 0x1C35 PUSH2 0x1BE7 JUMP JUMPDEST JUMPDEST DUP1 DUP5 ADD SWAP3 POP DUP3 CALLDATALOAD SWAP2 POP PUSH8 0xFFFFFFFFFFFFFFFF DUP3 GT ISZERO PUSH2 0x1C58 JUMPI PUSH2 0x1C57 PUSH2 0x1BEB JUMP JUMPDEST JUMPDEST PUSH1 0x20 DUP4 ADD SWAP3 POP PUSH1 0x1 DUP3 MUL CALLDATASIZE SUB DUP4 SGT ISZERO PUSH2 0x1C74 JUMPI PUSH2 0x1C73 PUSH2 0x1BEF JUMP JUMPDEST JUMPDEST POP SWAP3 POP SWAP3 SWAP1 POP JUMP JUMPDEST PUSH0 PUSH0 REVERT JUMPDEST PUSH0 PUSH0 REVERT JUMPDEST PUSH0 PUSH32 0xFFFFFFFF00000000000000000000000000000000000000000000000000000000 DUP3 AND SWAP1 POP SWAP2 SWAP1 POP JUMP JUMPDEST PUSH2 0x1CB8 DUP2 PUSH2 0x1C84 JUMP JUMPDEST DUP2 EQ PUSH2 0x1CC2 JUMPI PUSH0 PUSH0 REVERT JUMPDEST POP JUMP JUMPDEST PUSH0 DUP2 CALLDATALOAD SWAP1 POP PUSH2 0x1CD3 DUP2 PUSH2 0x1CAF JUMP JUMPDEST SWAP3 SWAP2 POP POP JUMP JUMPDEST PUSH0 PUSH8 0xFFFFFFFFFFFFFFFF DUP3 GT ISZERO PUSH2 0x1CF3 JUMPI PUSH2 0x1CF2 PUSH2 0x1270 JUMP JUMPDEST JUMPDEST PUSH2 0x1CFC DUP3 PUSH2 0x1260 JUMP JUMPDEST SWAP1 POP PUSH1 0x20 DUP2 ADD SWAP1 POP SWAP2 SWAP1 POP JUMP JUMPDEST PUSH0 PUSH2 0x1D1B PUSH2 0x1D16 DUP5 PUSH2 0x1CD9 JUMP JUMPDEST PUSH2 0x12CE JUMP JUMPDEST SWAP1 POP DUP3 DUP2 MSTORE PUSH1 0x20 DUP2 ADD DUP5 DUP5 DUP5 ADD GT ISZERO PUSH2 0x1D37 JUMPI PUSH2 0x1D36 PUSH2 0x1489 JUMP JUMPDEST JUMPDEST PUSH2 0x1D42 DUP5 DUP3 DUP6 PUSH2 0x14BD JUMP JUMPDEST POP SWAP4 SWAP3 POP POP POP JUMP JUMPDEST PUSH0 DUP3 PUSH1 0x1F DUP4 ADD SLT PUSH2 0x1D5E JUMPI PUSH2 0x1D5D PUSH2 0x125C JUMP JUMPDEST JUMPDEST DUP2 CALLDATALOAD PUSH2 0x1D6E DUP5 DUP3 PUSH1 0x20 DUP7 ADD PUSH2 0x1D09 JUMP JUMPDEST SWAP2 POP POP SWAP3 SWAP2 POP POP JUMP JUMPDEST PUSH0 PUSH8 0xFFFFFFFFFFFFFFFF DUP3 AND SWAP1 POP SWAP2 SWAP1 POP JUMP JUMPDEST PUSH2 0x1D93 DUP2 PUSH2 0x1D77 JUMP JUMPDEST DUP2 EQ PUSH2 0x1D9D JUMPI PUSH0 PUSH0 REVERT JUMPDEST POP JUMP JUMPDEST PUSH0 DUP2 CALLDATALOAD SWAP1 POP PUSH2 0x1DAE DUP2 PUSH2 0x1D8A JUMP JUMPDEST SWAP3 SWAP2 POP POP JUMP JUMPDEST PUSH0 PUSH1 0x40 DUP3 DUP5 SUB SLT ISZERO PUSH2 0x1DC9 JUMPI PUSH2 0x1DC8 PUSH2 0x1C7C JUMP JUMPDEST JUMPDEST PUSH2 0x1DD3 PUSH1 0x40 PUSH2 0x12CE JUMP JUMPDEST SWAP1 POP PUSH0 DUP3 ADD CALLDATALOAD PUSH8 0xFFFFFFFFFFFFFFFF DUP2 GT ISZERO PUSH2 0x1DF2 JUMPI PUSH2 0x1DF1 PUSH2 0x1C80 JUMP JUMPDEST JUMPDEST PUSH2 0x1DFE DUP5 DUP3 DUP6 ADD PUSH2 0x150C JUMP JUMPDEST PUSH0 DUP4 ADD MSTORE POP PUSH1 0x20 PUSH2 0x1E11 DUP5 DUP3 DUP6 ADD PUSH2 0x1DA0 JUMP JUMPDEST PUSH1 0x20 DUP4 ADD MSTORE POP SWAP3 SWAP2 POP POP JUMP JUMPDEST PUSH0 PUSH1 0xC0 DUP3 DUP5 SUB SLT ISZERO PUSH2 0x1E32 JUMPI PUSH2 0x1E31 PUSH2 0x1C7C JUMP JUMPDEST JUMPDEST PUSH2 0x1E3C PUSH1 0xC0 PUSH2 0x12CE JUMP JUMPDEST SWAP1 POP PUSH0 PUSH2 0x1E4B DUP5 DUP3 DUP6 ADD PUSH2 0x15D9 JUMP JUMPDEST PUSH0 DUP4 ADD MSTORE POP PUSH1 0x20 PUSH2 0x1E5E DUP5 DUP3 DUP6 ADD PUSH2 0x1CC5 JUMP JUMPDEST PUSH1 0x20 DUP4 ADD MSTORE POP PUSH1 0x40 PUSH2 0x1E72 DUP5 DUP3 DUP6 ADD PUSH2 0x1248 JUMP JUMPDEST PUSH1 0x40 DUP4 ADD MSTORE POP PUSH1 0x60 PUSH2 0x1E86 DUP5 DUP3 DUP6 ADD PUSH2 0x1248 JUMP JUMPDEST PUSH1 0x60 DUP4 ADD MSTORE POP PUSH1 0x80 DUP3 ADD CALLDATALOAD PUSH8 0xFFFFFFFFFFFFFFFF DUP2 GT ISZERO PUSH2 0x1EAA JUMPI PUSH2 0x1EA9 PUSH2 0x1C80 JUMP JUMPDEST JUMPDEST PUSH2 0x1EB6 DUP5 DUP3 DUP6 ADD PUSH2 0x1D4A JUMP JUMPDEST PUSH1 0x80 DUP4 ADD MSTORE POP PUSH1 0xA0 DUP3 ADD CALLDATALOAD PUSH8 0xFFFFFFFFFFFFFFFF DUP2 GT ISZERO PUSH2 0x1EDA JUMPI PUSH2 0x1ED9 PUSH2 0x1C80 JUMP JUMPDEST JUMPDEST PUSH2 0x1EE6 DUP5 DUP3 DUP6 ADD PUSH2 0x1DB4 JUMP JUMPDEST PUSH1 0xA0 DUP4 ADD MSTORE POP SWAP3 SWAP2 POP POP JUMP JUMPDEST PUSH0 PUSH2 0x1EFD CALLDATASIZE DUP4 PUSH2 0x1E1D JUMP JUMPDEST SWAP1 POP SWAP2 SWAP1 POP JUMP JUMPDEST PUSH32 0x4E487B7100000000000000000000000000000000000000000000000000000000 PUSH0 MSTORE PUSH1 0x11 PUSH1 0x4 MSTORE PUSH1 0x24 PUSH0 REVERT JUMPDEST PUSH0 PUSH2 0x1F3B DUP3 PUSH2 0x1406 JUMP JUMPDEST SWAP2 POP PUSH2 0x1F46 DUP4 PUSH2 0x1406 JUMP JUMPDEST SWAP3 POP DUP3 DUP3 SUB SWAP1 POP DUP2 DUP2 GT ISZERO PUSH2 0x1F5E JUMPI PUSH2 0x1F5D PUSH2 0x1F04 JUMP JUMPDEST JUMPDEST SWAP3 SWAP2 POP POP JUMP JUMPDEST PUSH0 PUSH2 0x1F6E DUP3 PUSH2 0x1406 JUMP JUMPDEST SWAP2 POP PUSH2 0x1F79 DUP4 PUSH2 0x1406 JUMP JUMPDEST SWAP3 POP DUP3 DUP3 ADD SWAP1 POP DUP1 DUP3 GT ISZERO PUSH2 0x1F91 JUMPI PUSH2 0x1F90 PUSH2 0x1F04 JUMP JUMPDEST JUMPDEST SWAP3 SWAP2 POP POP JUMP JUMPDEST PUSH0 DUP2 SWAP1 POP SWAP2 SWAP1 POP JUMP JUMPDEST PUSH2 0x1FB1 PUSH2 0x1FAC DUP3 PUSH2 0x19D2 JUMP JUMPDEST PUSH2 0x1F97 JUMP JUMPDEST DUP3 MSTORE POP POP JUMP JUMPDEST PUSH0 DUP2 PUSH1 0x60 SHL SWAP1 POP SWAP2 SWAP1 POP JUMP JUMPDEST PUSH0 PUSH2 0x1FCD DUP3 PUSH2 0x1FB7 JUMP JUMPDEST SWAP1 POP SWAP2 SWAP1 POP JUMP JUMPDEST PUSH0 PUSH2 0x1FDE DUP3 PUSH2 0x1FC3 JUMP JUMPDEST SWAP1 POP SWAP2 SWAP1 POP JUMP JUMPDEST PUSH2 0x1FF6 PUSH2 0x1FF1 DUP3 PUSH2 0x15B2 JUMP JUMPDEST PUSH2 0x1FD4 JUMP JUMPDEST DUP3 MSTORE POP POP JUMP JUMPDEST PUSH0 PUSH2 0x2007 DUP3 DUP6 PUSH2 0x1FA0 JUMP JUMPDEST PUSH1 0xC DUP3 ADD SWAP2 POP PUSH2 0x2017 DUP3 DUP5 PUSH2 0x1FE5 JUMP JUMPDEST PUSH1 0x14 DUP3 ADD SWAP2 POP DUP2 SWAP1 POP SWAP4 SWAP3 POP POP POP JUMP JUMPDEST PUSH0 DUP2 MLOAD SWAP1 POP SWAP2 SWAP1 POP JUMP JUMPDEST PUSH0 DUP2 SWAP1 POP PUSH1 0x20 DUP3 ADD SWAP1 POP SWAP2 SWAP1 POP JUMP JUMPDEST PUSH0 PUSH2 0x204B DUP3 MLOAD PUSH2 0x1229 JUMP JUMPDEST DUP1 SWAP2 POP POP SWAP2 SWAP1 POP JUMP JUMPDEST PUSH0 DUP3 DUP3 SHL SWAP1 POP SWAP3 SWAP2 POP POP JUMP JUMPDEST PUSH0 PUSH2 0x206A DUP3 PUSH2 0x2027 JUMP JUMPDEST DUP3 PUSH2 0x2074 DUP5 PUSH2 0x2031 JUMP JUMPDEST SWAP1 POP PUSH2 0x207F DUP2 PUSH2 0x2040 JUMP JUMPDEST SWAP3 POP PUSH1 0x20 DUP3 LT ISZERO PUSH2 0x20BF JUMPI PUSH2 0x20BA PUSH32 0xFFFFFFFFFFFFFFFFFFFFFFFFFFFFFFFFFFFFFFFFFFFFFFFFFFFFFFFFFFFFFFFF DUP4 PUSH1 0x20 SUB PUSH1 0x8 MUL PUSH2 0x2054 JUMP JUMPDEST DUP4 AND SWAP3 POP JUMPDEST POP POP SWAP2 SWAP1 POP JUMP JUMPDEST PUSH32 0x4E487B7100000000000000000000000000000000000000000000000000000000 PUSH0 MSTORE PUSH1 0x31 PUSH1 0x4 MSTORE PUSH1 0x24 PUSH0 REVERT JUMPDEST PUSH0 DUP2 MLOAD SWAP1 POP SWAP2 SWAP1 POP JUMP JUMPDEST PUSH0 DUP2 SWAP1 POP SWAP3 SWAP2 POP POP JUMP JUMPDEST DUP3 DUP2 DUP4 MCOPY PUSH0 DUP4 DUP4 ADD MSTORE POP POP POP JUMP JUMPDEST PUSH0 PUSH2 0x211F DUP3 PUSH2 0x20F3 JUMP JUMPDEST PUSH2 0x2129 DUP2 DUP6 PUSH2 0x20FD JUMP JUMPDEST SWAP4 POP PUSH2 0x2139 DUP2 DUP6 PUSH1 0x20 DUP7 ADD PUSH2 0x2107 JUMP JUMPDEST DUP1 DUP5 ADD SWAP2 POP POP SWAP3 SWAP2 POP POP JUMP JUMPDEST PUSH0 PUSH2 0x2150 DUP3 DUP5 PUSH2 0x2115 JUMP JUMPDEST SWAP2 POP DUP2 SWAP1 POP SWAP3 SWAP2 POP POP JUMP JUMPDEST PUSH32 0x616363657074496D706C69636974526571756573740000000000000000000000 PUSH0 DUP3 ADD MSTORE POP JUMP JUMPDEST PUSH0 PUSH2 0x218F PUSH1 0x15 DUP4 PUSH2 0x20FD JUMP JUMPDEST SWAP2 POP PUSH2 0x219A DUP3 PUSH2 0x215B JUMP JUMPDEST PUSH1 0x15 DUP3 ADD SWAP1 POP SWAP2 SWAP1 POP JUMP JUMPDEST PUSH0 PUSH2 0x21AF DUP3 PUSH2 0x2183 JUMP JUMPDEST SWAP2 POP DUP2 SWAP1 POP SWAP2 SWAP1 POP JUMP JUMPDEST PUSH0 DUP2 SWAP1 POP SWAP2 SWAP1 POP JUMP JUMPDEST PUSH2 0x21D3 PUSH2 0x21CE DUP3 PUSH2 0x1229 JUMP JUMPDEST PUSH2 0x21B9 JUMP JUMPDEST DUP3 MSTORE POP POP JUMP JUMPDEST PUSH0 PUSH2 0x21E4 DUP3 DUP8 PUSH2 0x21C2 JUMP JUMPDEST PUSH1 0x20 DUP3 ADD SWAP2 POP PUSH2 0x21F4 DUP3 DUP7 PUSH2 0x1FE5 JUMP JUMPDEST PUSH1 0x14 DUP3 ADD SWAP2 POP PUSH2 0x2204 DUP3 DUP6 PUSH2 0x21C2 JUMP JUMPDEST PUSH1 0x20 DUP3 ADD SWAP2 POP PUSH2 0x2214 DUP3 DUP5 PUSH2 0x21C2 JUMP JUMPDEST PUSH1 0x20 DUP3 ADD SWAP2 POP DUP2 SWAP1 POP SWAP6 SWAP5 POP POP POP POP POP JUMP INVALID LOG2 PUSH5 0x6970667358 0x22 SLT KECCAK256 SHR SHR PUSH0 SWAP4 PUSH27 0x9CEFE946E373A867E5691109F49A41DEC6C6DD2B14C92E28398BD PUSH5 0x736F6C6343 STOP ADDMOD SHR STOP CALLER "
        },
        "methodIdentifiers": {
          "addProjectUrl(bytes32,string)": "2f28c69d",
          "addProjectUrlBatch(bytes32,string[])": "56cd2b92",
          "addProjectUrlHash(bytes32,bytes32)": "520994f1",
          "addProjectUrlHashBatch(bytes32,bytes32[])": "065d6c69",
          "claimProject(bytes12)": "d4df1018",
          "isProjectUrl(bytes32,bytes32)": "a25acb25",
          "listProjectUrls(bytes32)": "f4364de6",
          "projectOwner(bytes32)": "ebc27b82",
          "projectUrlsList(bytes32,uint256)": "d9acbe6b",
          "removeProjectUrl(bytes32,string)": "dac6c587",
          "removeProjectUrlHash(bytes32,bytes32,uint256)": "1b31f01b",
          "removeProjectUrlHashBatch(bytes32,bytes32[],uint256[])": "d4c9c5c4",
          "transferProject(bytes32,address)": "9630aff8",
          "validateAttestation(address,(address,bytes4,bytes32,bytes32,bytes,(string,uint64)),bytes32)": "3808a90b"
        }
      },
      "userdoc": {
        "errors": {
          "InvalidProjectOwner()": [
            {
              "notice": "Invalid project owner error"
            }
          ],
          "InvalidProjectUrlIndex()": [
            {
              "notice": "Invalid project URL index error"
            }
          ],
          "InvalidRedirectUrl()": [
            {
              "notice": "Invalid redirect url error"
            }
          ],
          "NotProjectOwner()": [
            {
              "notice": "Not project owner error"
            }
          ],
          "ProjectAlreadyClaimed()": [
            {
              "notice": "Project already claimed error"
            }
          ],
          "ProjectUrlAlreadyExists()": [
            {
              "notice": "Project URL already exists error"
            }
          ],
          "ProjectUrlNotFound()": [
            {
              "notice": "Project URL not found error"
            }
          ]
        },
        "events": {
          "ProjectClaimed(bytes32,address)": {
            "notice": "Emitted when a project is claimed"
          },
          "ProjectOwnerTransferred(bytes32,address)": {
            "notice": "Emitted when a project owner is transferred"
          },
          "ProjectUrlAdded(bytes32,bytes32)": {
            "notice": "Emitted when a project URL is added"
          },
          "ProjectUrlRemoved(bytes32,bytes32)": {
            "notice": "Emitted when a project URL is removed"
          }
        },
        "kind": "user",
        "methods": {
          "addProjectUrl(bytes32,string)": {
            "notice": "Add a project URL"
          },
          "addProjectUrlBatch(bytes32,string[])": {
            "notice": "Add a list of project URLs"
          },
          "addProjectUrlHash(bytes32,bytes32)": {
            "notice": "Add a project URL hash"
          },
          "addProjectUrlHashBatch(bytes32,bytes32[])": {
            "notice": "Add a list of project URL hashes"
          },
          "claimProject(bytes12)": {
            "notice": "Claim a project"
          },
          "isProjectUrl(bytes32,bytes32)": {
            "notice": "Project URLs"
          },
          "listProjectUrls(bytes32)": {
            "notice": "List project URLs"
          },
          "projectOwner(bytes32)": {
            "notice": "Project owner"
          },
          "removeProjectUrl(bytes32,string)": {
            "notice": "Remove a project URL"
          },
          "removeProjectUrlHash(bytes32,bytes32,uint256)": {
            "notice": "Remove a project URL hash"
          },
          "removeProjectUrlHashBatch(bytes32,bytes32[],uint256[])": {
            "notice": "Remove a list of project URL hashes"
          },
          "transferProject(bytes32,address)": {
            "notice": "Transfer a project"
          },
          "validateAttestation(address,(address,bytes4,bytes32,bytes32,bytes,(string,uint64)),bytes32)": {
            "notice": "Check if a project has a code"
          }
        },
        "notice": "Registry of projects supporting implicit sessions",
        "version": 1
      }
    }
  }
}