{"src/extensions/sessions/SessionSig.sol":{"SessionSig":{"abi":[{"type":"function","name":"hashPayloadCallIdx","inputs":[{"name":"wallet","type":"address","internalType":"address"},{"name":"payload","type":"tuple","internalType":"struct Payload.Decoded","components":[{"name":"kind","type":"uint8","internalType":"uint8"},{"name":"noChainId","type":"bool","internalType":"bool"},{"name":"calls","type":"tuple[]","internalType":"struct Payload.Call[]","components":[{"name":"to","type":"address","internalType":"address"},{"name":"value","type":"uint256","internalType":"uint256"},{"name":"data","type":"bytes","internalType":"bytes"},{"name":"gasLimit","type":"uint256","internalType":"uint256"},{"name":"delegateCall","type":"bool","internalType":"bool"},{"name":"onlyFallback","type":"bool","internalType":"bool"},{"name":"behaviorOnError","type":"uint256","internalType":"uint256"}]},{"name":"space","type":"uint256","internalType":"uint256"},{"name":"nonce","type":"uint256","internalType":"uint256"},{"name":"message","type":"bytes","internalType":"bytes"},{"name":"imageHash","type":"bytes32","internalType":"bytes32"},{"name":"digest","type":"bytes32","internalType":"bytes32"},{"name":"parentWallets","type":"address[]","internalType":"address[]"}]},{"name":"callIdx","type":"uint256","internalType":"uint256"}],"outputs":[{"name":"callHash","type":"bytes32","internalType":"bytes32"}],"stateMutability":"view"},{"type":"error","name":"InvalidKind","inputs":[{"name":"kind","type":"uint8","internalType":"uint8"}]}],"userdoc":{},"devdoc":{},"evm":{"bytecode":{"object":"60808060405234601957610a20908161001f823930815050f35b600080fdfe608080604052600436101561001357600080fd5b60003560e01c633e99aa011461002857600080fd5b60607ffffffffffffffffffffffffffffffffffffffffffffffffffffffffffffffffc3601126104b8576004359073ffffffffffffffffffffffffffffffffffffffff82168092036104b8576024359067ffffffffffffffff82116104b8576101207ffffffffffffffffffffffffffffffffffffffffffffffffffffffffffffffffc83360301126104b857600092610120820182811067ffffffffffffffff82111761048b57604052826004013560ff811681036104875782526100ef6024840161054e565b9260208301938452604481013567ffffffffffffffff8111610363578101366023820112156103635760048101356101268161055b565b9161013460405193846104de565b818352602060048185019360051b83010101903682116104835760248101925b82841061036757505050506040840152606481013560608401526084810135608084015260a481013567ffffffffffffffff81116103635761019c9060043691840101610573565b60a084015260c481013560c084015260e481013560e08401526101048101359067ffffffffffffffff821161036357019336602386011215610360576004850135936101e78561055b565b6101f460405191826104de565b858152602060048183019760051b890101019536871161035e57602460209801905b878210610347575050610100850152519293506102cd921561033f57905b60405190858201927f8b73c3c69bb8fe3d512ecc4cf759cc79239f7b179b0ffacaa9a75d522b39400f84527f4aa45ca7ad825ceb1bf35643f0a58c295239df563b1b565c2485f96477c5631860408401527f2a80e1ef1d7842f27f2e6be0972bb708b9a135c38860dbe73c27c3486c34f4de6060840152608083015260a082015260a081526102c460c0826104de565b519020916105e8565b60405190838201927f1901000000000000000000000000000000000000000000000000000000000000845260228301526042820152604281526103116062826104de565b5190206040518281019182526044356040820152604081526103346060826104de565b519020604051908152f35b504690610234565b888091610353846104bd565b815201910190610216565b835b80fd5b8580fd5b833567ffffffffffffffff811161047f5760049083010160e07fffffffffffffffffffffffffffffffffffffffffffffffffffffffffffffffe0823603011261047f576040519160e0830183811067ffffffffffffffff821117610452576040526103d4602083016104bd565b83526040820135602084015260608201359267ffffffffffffffff841161044e5760e06020949361040b8695863691840101610573565b60408401526080810135606084015261042660a0820161054e565b608084015261043760c0820161054e565b60a0840152013560c0820152815201930192610154565b8c80fd5b60248d7f4e487b710000000000000000000000000000000000000000000000000000000081526041600452fd5b8a80fd5b8880fd5b8480fd5b6024857f4e487b710000000000000000000000000000000000000000000000000000000081526041600452fd5b600080fd5b359073ffffffffffffffffffffffffffffffffffffffff821682036104b857565b90601f7fffffffffffffffffffffffffffffffffffffffffffffffffffffffffffffffe0910116810190811067ffffffffffffffff82111761051f57604052565b7f4e487b7100000000000000000000000000000000000000000000000000000000600052604160045260246000fd5b359081151582036104b857565b67ffffffffffffffff811161051f5760051b60200190565b81601f820112156104b85780359067ffffffffffffffff821161051f57604051926105c660207fffffffffffffffffffffffffffffffffffffffffffffffffffffffffffffffe0601f86011601856104de565b828452602083830101116104b857816000926020809301838601378301015290565b61010081015160405160208101818193602081519391019260005b81811061097857505061063d9250037fffffffffffffffffffffffffffffffffffffffffffffffffffffffffffffffe081018352826104de565b5190209060ff815116801560001461084b57509060408201519283519161067c6106668461055b565b9361067460405195866104de565b80855261055b565b937fffffffffffffffffffffffffffffffffffffffffffffffffffffffffffffffe060208501950136863760005b865181101561077c57806106c0600192896109a7565b5173ffffffffffffffffffffffffffffffffffffffff81511690602081015190604081015160208151910120906060810151608082015115159060c060a08401511515930151936040519560208701977f0603985259a953da1f65a522f589c17bd1d0117ec1d3abb7c0788aef251ef437895260408801526060870152608086015260a085015260c084015260e08301526101008201526101008152610768610120826104de565b51902061077582886109a7565b52016106aa565b5092919450926040519081602081019182945192909260005b8181106108325750506107cf9250037fffffffffffffffffffffffffffffffffffffffffffffffffffffffffffffffe081018352826104de565b51902091608060608301519201516040519260208401947f11e1e4079a79a66e4ade50033cfe2678cdd5341d2dfe5ef9513edb1a0be147a2865260408501526060840152608083015260a082015260a0815261082c60c0826104de565b51902090565b8451835260209485019486945090920191600101610795565b600181036108a5575060a0015160208151910120906040519060208201927fe19a3b94fc3c7ece3f890d98a99bc422615537a08dea0603fa8425867d87d4668452604083015260608201526060815261082c6080826104de565b600281036108f8575060c00151906040519060208201927f11fdeb7e8373a1aa96bfac8d0ea91526b2c5d15e5cee20e0543e780258f3e8e48452604083015260608201526060815261082c6080826104de565b6003810361094b575060e00151906040519060208201927fe19a3b94fc3c7ece3f890d98a99bc422615537a08dea0603fa8425867d87d4668452604083015260608201526060815261082c6080826104de565b7f048183200000000000000000000000000000000000000000000000000000000060005260045260246000fd5b845173ffffffffffffffffffffffffffffffffffffffff16835260209485019486945090920191600101610603565b80518210156109bb5760209160051b010190565b7f4e487b7100000000000000000000000000000000000000000000000000000000600052603260045260246000fdfea264697066735822122014db9c144fb345bc422bc409124cb82df838f97930a1554a8a359ab49679126964736f6c634300081c0033","linkReferences":{}},"methodIdentifiers":{"hashPayloadCallIdx(address,Payload.Decoded,uint256)":"3e99aa01"}}}}}