{"src/extensions/sessions/SessionManager.sol":{"SessionManager":{"abi":[{"type":"function","name":"MAX_SPACE","inputs":[],"outputs":[{"name":"","type":"uint256","internalType":"uint256"}],"stateMutability":"view"},{"type":"function","name":"VALUE_TRACKING_ADDRESS","inputs":[],"outputs":[{"name":"","type":"address","internalType":"address"}],"stateMutability":"view"},{"type":"function","name":"getLimitUsage","inputs":[{"name":"wallet","type":"address","internalType":"address"},{"name":"usageHash","type":"bytes32","internalType":"bytes32"}],"outputs":[{"name":"","type":"uint256","internalType":"uint256"}],"stateMutability":"view"},{"type":"function","name":"incrementUsageLimit","inputs":[{"name":"limits","type":"tuple[]","internalType":"struct UsageLimit[]","components":[{"name":"usageHash","type":"bytes32","internalType":"bytes32"},{"name":"usageAmount","type":"uint256","internalType":"uint256"}]}],"outputs":[],"stateMutability":"nonpayable"},{"type":"function","name":"recoverSapientSignature","inputs":[{"name":"payload","type":"tuple","internalType":"struct Payload.Decoded","components":[{"name":"kind","type":"uint8","internalType":"uint8"},{"name":"noChainId","type":"bool","internalType":"bool"},{"name":"calls","type":"tuple[]","internalType":"struct Payload.Call[]","components":[{"name":"to","type":"address","internalType":"address"},{"name":"value","type":"uint256","internalType":"uint256"},{"name":"data","type":"bytes","internalType":"bytes"},{"name":"gasLimit","type":"uint256","internalType":"uint256"},{"name":"delegateCall","type":"bool","internalType":"bool"},{"name":"onlyFallback","type":"bool","internalType":"bool"},{"name":"behaviorOnError","type":"uint256","internalType":"uint256"}]},{"name":"space","type":"uint256","internalType":"uint256"},{"name":"nonce","type":"uint256","internalType":"uint256"},{"name":"message","type":"bytes","internalType":"bytes"},{"name":"imageHash","type":"bytes32","internalType":"bytes32"},{"name":"digest","type":"bytes32","internalType":"bytes32"},{"name":"parentWallets","type":"address[]","internalType":"address[]"}]},{"name":"encodedSignature","type":"bytes","internalType":"bytes"}],"outputs":[{"name":"","type":"bytes32","internalType":"bytes32"}],"stateMutability":"view"},{"type":"function","name":"validatePermission","inputs":[{"name":"permission","type":"tuple","internalType":"struct Permission","components":[{"name":"target","type":"address","internalType":"address"},{"name":"rules","type":"tuple[]","internalType":"struct ParameterRule[]","components":[{"name":"cumulative","type":"bool","internalType":"bool"},{"name":"operation","type":"uint8","internalType":"enum ParameterOperation"},{"name":"value","type":"bytes32","internalType":"bytes32"},{"name":"offset","type":"uint256","internalType":"uint256"},{"name":"mask","type":"bytes32","internalType":"bytes32"}]}]},{"name":"call","type":"tuple","internalType":"struct Payload.Call","components":[{"name":"to","type":"address","internalType":"address"},{"name":"value","type":"uint256","internalType":"uint256"},{"name":"data","type":"bytes","internalType":"bytes"},{"name":"gasLimit","type":"uint256","internalType":"uint256"},{"name":"delegateCall","type":"bool","internalType":"bool"},{"name":"onlyFallback","type":"bool","internalType":"bool"},{"name":"behaviorOnError","type":"uint256","internalType":"uint256"}]},{"name":"wallet","type":"address","internalType":"address"},{"name":"signer","type":"address","internalType":"address"},{"name":"usageLimits","type":"tuple[]","internalType":"struct UsageLimit[]","components":[{"name":"usageHash","type":"bytes32","internalType":"bytes32"},{"name":"usageAmount","type":"uint256","internalType":"uint256"}]}],"outputs":[{"name":"","type":"bool","internalType":"bool"},{"name":"newUsageLimits","type":"tuple[]","internalType":"struct UsageLimit[]","components":[{"name":"usageHash","type":"bytes32","internalType":"bytes32"},{"name":"usageAmount","type":"uint256","internalType":"uint256"}]}],"stateMutability":"view"},{"type":"event","name":"LimitUsageUpdated","inputs":[{"name":"wallet","type":"address","indexed":false,"internalType":"address"},{"name":"usageHash","type":"bytes32","indexed":false,"internalType":"bytes32"},{"name":"usageAmount","type":"uint256","indexed":false,"internalType":"uint256"}],"anonymous":false},{"type":"error","name":"BlacklistedAddress","inputs":[{"name":"target","type":"address","internalType":"address"}]},{"type":"error","name":"InvalidAttestation","inputs":[]},{"type":"error","name":"InvalidBehavior","inputs":[]},{"type":"error","name":"InvalidBlacklist","inputs":[]},{"type":"error","name":"InvalidBlacklistUnsorted","inputs":[]},{"type":"error","name":"InvalidCallsLength","inputs":[]},{"type":"error","name":"InvalidChainId","inputs":[{"name":"invalidChainId","type":"uint256","internalType":"uint256"}]},{"type":"error","name":"InvalidDelegateCall","inputs":[]},{"type":"error","name":"InvalidIdentitySigner","inputs":[]},{"type":"error","name":"InvalidImplicitResult","inputs":[]},{"type":"error","name":"InvalidKind","inputs":[{"name":"kind","type":"uint8","internalType":"uint8"}]},{"type":"error","name":"InvalidLimitUsageIncrement","inputs":[]},{"type":"error","name":"InvalidNodeType","inputs":[{"name":"flag","type":"uint256","internalType":"uint256"}]},{"type":"error","name":"InvalidPayloadKind","inputs":[]},{"type":"error","name":"InvalidPermission","inputs":[]},{"type":"error","name":"InvalidSelfCall","inputs":[]},{"type":"error","name":"InvalidSessionSigner","inputs":[{"name":"invalidSigner","type":"address","internalType":"address"}]},{"type":"error","name":"InvalidSpace","inputs":[{"name":"space","type":"uint256","internalType":"uint256"}]},{"type":"error","name":"InvalidValue","inputs":[]},{"type":"error","name":"MissingPermission","inputs":[]},{"type":"error","name":"SessionExpired","inputs":[{"name":"deadline","type":"uint256","internalType":"uint256"}]}],"userdoc":{},"devdoc":{},"evm":{"bytecode":{"object":"60808060405234601557613afd908161001b8239f35b600080fdfe6080604052600436101561001257600080fd5b60003560e01c806313792a4a1461007757806323b3713e14610072578063313dade71461006d57806342de1418146100685780638c946df4146100635763f916f3b21461005e57600080fd5b6106b6565b610672565b6105c6565b6103ff565b610194565b3461014a5760407ffffffffffffffffffffffffffffffffffffffffffffffffffffffffffffffffc36011261014a5760043567ffffffffffffffff811161014a576101207ffffffffffffffffffffffffffffffffffffffffffffffffffffffffffffffffc823603011261014a5760243567ffffffffffffffff811161014a573660238201121561014a57806004013567ffffffffffffffff811161014a57366024828401011161014a576101469260246101369301906004016109d1565b6040519081529081906020820190565b0390f35b600080fd5b73ffffffffffffffffffffffffffffffffffffffff81160361014a57565b6044359061017a8261014f565b565b6064359061017a8261014f565b359061017a8261014f565b3461014a5760407ffffffffffffffffffffffffffffffffffffffffffffffffffffffffffffffffc36011261014a576004356101cf8161014f565b73ffffffffffffffffffffffffffffffffffffffff602435911660005260006020526040600020906000526020526020604060002054604051908152f35b7f4e487b7100000000000000000000000000000000000000000000000000000000600052604160045260246000fd5b6040810190811067ffffffffffffffff82111761025857604052565b61020d565b60a0810190811067ffffffffffffffff82111761025857604052565b90601f7fffffffffffffffffffffffffffffffffffffffffffffffffffffffffffffffe0910116810190811067ffffffffffffffff82111761025857604052565b6040519061017a604083610279565b6040519061017a60e083610279565b6040519061017a61012083610279565b67ffffffffffffffff81116102585760051b60200190565b8015150361014a57565b359061017a82610300565b908160e091031261014a5790565b81601f8201121561014a5780359061033a826102e8565b926103486040519485610279565b82845260208085019360061b8301019181831161014a57602001925b828410610372575050505090565b60408483031261014a576020604091825161038c8161023c565b863581528287013583820152815201930192610364565b906020808351928381520192019060005b8181106103c15750505090565b82518051855260209081015181860152604090940193909201916001016103b4565b6040906103fc93921515815281602082015201906103a3565b90565b3461014a5760a07ffffffffffffffffffffffffffffffffffffffffffffffffffffffffffffffffc36011261014a5760043567ffffffffffffffff811161014a5760407ffffffffffffffffffffffffffffffffffffffffffffffffffffffffffffffffc823603011261014a57604051906104798261023c565b80600401356104878161014f565b825260248101359067ffffffffffffffff821161014a57013660238201121561014a5760048101356104b8816102e8565b916104c66040519384610279565b8183526020600460a08286019402830101019036821161014a57602401915b81831061056057505050602082015260243567ffffffffffffffff811161014a57610514903690600401610315565b9061051d61016d565b61052561017c565b906084359367ffffffffffffffff851161014a5761054a610550953690600401610323565b9361108d565b90610146604051928392836103e3565b60a08336031261014a57604051906105778261025d565b833561058281610300565b8252602084013590600482101561014a57826020928360a09501526040860135604082015260608601356060820152608086013560808201528152019201916104e5565b3461014a5760207ffffffffffffffffffffffffffffffffffffffffffffffffffffffffffffffffc36011261014a5760043567ffffffffffffffff811161014a573660238201121561014a57806004013567ffffffffffffffff811161014a573660248260061b8401011161014a57602461064192016113d6565b005b7f4e487b7100000000000000000000000000000000000000000000000000000000600052601160045260246000fd5b3461014a5760007ffffffffffffffffffffffffffffffffffffffffffffffffffffffffffffffffc36011261014a57602069fffffffffffffffffffe604051908152f35b3461014a5760007ffffffffffffffffffffffffffffffffffffffffffffffffffffffffffffffffc36011261014a57602060405173eeeeeeeeeeeeeeeeeeeeeeeeeeeeeeeeeeeeeeee8152f35b60ff81160361014a57565b356103fc81610703565b9035907fffffffffffffffffffffffffffffffffffffffffffffffffffffffffffffffe18136030182121561014a570180359067ffffffffffffffff821161014a57602001918160051b3603831361014a57565b604051906060820182811067ffffffffffffffff821117610258576040526000604083828152606060208201520152565b906107a7826102e8565b6107b46040519182610279565b8281527fffffffffffffffffffffffffffffffffffffffffffffffffffffffffffffffe06107e282946102e8565b019060005b8281106107f357505050565b6020906107fe61076c565b828285010152016107e7565b7f4e487b7100000000000000000000000000000000000000000000000000000000600052603260045260246000fd5b9015610872578035907fffffffffffffffffffffffffffffffffffffffffffffffffffffffffffffff218136030182121561014a570190565b61080a565b91908110156108725760051b810135907fffffffffffffffffffffffffffffffffffffffffffffffffffffffffffffff218136030182121561014a570190565b356103fc81610300565b356103fc8161014f565b80518210156108725760209160051b010190565b604051906108ec8261023c565b60006020838281520152565b60405190610907602083610279565b600080835282815b82811061091b57505050565b6020906109266108df565b8282850101520161090f565b9061093c826102e8565b6109496040519182610279565b8281527fffffffffffffffffffffffffffffffffffffffffffffffffffffffffffffffe061097782946102e8565b019060005b82811061098857505050565b6020906109936108df565b8282850101520161097c565b7fffffffffffffffffffffffffffffffffffffffffffffffffffffffffffffffff81146109cc5760010190565b610643565b919060ff6109de8461070e565b16610efa57606083013569fffffffffffffffffffe8111610ecc57506040830191610a098385610718565b905015610ea257610a1e918495939533611982565b91610a33610a2c8583610718565b905061079d565b9060009460808501955b610a478284610718565b9050811015610de957610a6481610a5e8486610718565b90610877565b610a70608082016108b7565b610dbf5733610a9a610a81836108c1565b73ffffffffffffffffffffffffffffffffffffffff1690565b14610d9557600260c082013514610d6b57610ab68289516108cb565b51805115610b005760019291816060610ae96020610afa95015173ffffffffffffffffffffffffffffffffffffffff1690565b9101519060408b01519233906122c5565b01610a3d565b91959392969050610b0f61076c565b96602083019460005b8751811015610d4a57610b4c610a81610b31838b6108cb565b515173ffffffffffffffffffffffffffffffffffffffff1690565b15610c1357610b5e610b31828a6108cb565b73ffffffffffffffffffffffffffffffffffffffff610b94610a818a5173ffffffffffffffffffffffffffffffffffffffff1690565b911614610ba357600101610b18565b9097929850610bfc610c0d9295968a600196610bf360406060610be7610bca8f8a906108cb565b51965b5173ffffffffffffffffffffffffffffffffffffffff1690565b94015192015160ff1690565b9133888c611d46565b610c0682896108cb565b52866108cb565b50610afa565b90979298610bfc908a600196610bf360406060610be78d610c6b610c0d9b9e9f610c51905173ffffffffffffffffffffffffffffffffffffffff1690565b73ffffffffffffffffffffffffffffffffffffffff168952565b610c736108f8565b6020890152610d41610c99825173ffffffffffffffffffffffffffffffffffffffff1690565b855173ffffffffffffffffffffffffffffffffffffffff9091166020820190815273eeeeeeeeeeeeeeeeeeeeeeeeeeeeeeeeeeeeeeee604083015290610d0a81606081015b037fffffffffffffffffffffffffffffffffffffffffffffffffffffffffffffffe08101835282610279565b5190203373ffffffffffffffffffffffffffffffffffffffff16600052600060205260406000209060005260205260406000205490565b84890152610bcd565b90979298610bfc908a600196610bf360406060610be7610c0d999c9d610bcd565b7fc8103a190000000000000000000000000000000000000000000000000000000060005260046000fd5b7f540733ea0000000000000000000000000000000000000000000000000000000060005260046000fd5b7faa25f2ad0000000000000000000000000000000000000000000000000000000060005260046000fd5b50919093929450610dfa815161079d565b9260009260005b8351811015610e7c576020610e1682866108cb565b5101515115801590610e65575b610e30575b600101610e01565b93610e5d600191610e4187876108cb565b51610e4c828a6108cb565b52610e5781896108cb565b5061099f565b949050610e28565b506040610e7282866108cb565b5101511515610e23565b50610e999250610e939195610e9e95948552610718565b90610839565b6124f6565b5190565b7f542f0af50000000000000000000000000000000000000000000000000000000060005260046000fd5b7fdce5eceb0000000000000000000000000000000000000000000000000000000060005260045260245b6000fd5b7f720521200000000000000000000000000000000000000000000000000000000060005260046000fd5b90600182018092116109cc57565b919082018092116109cc57565b9035907fffffffffffffffffffffffffffffffffffffffffffffffffffffffffffffffe18136030182121561014a570180359067ffffffffffffffff821161014a5760200191813603831361014a57565b60041115610f9a57565b7f4e487b7100000000000000000000000000000000000000000000000000000000600052602160045260246000fd5b9392919073ffffffffffffffffffffffffffffffffffffffff16845260606020850152602060a085019173ffffffffffffffffffffffffffffffffffffffff81511660608701520151604060808601528051809252602060c0860191019160005b81811061103c57505060409150930152565b909183518051151582526020810151906004821015610f9a5782608060a09260209485600197015260408101516040840152606081015160608401520151608082015201940191019291909261102a565b9490919293946110b1815173ffffffffffffffffffffffffffffffffffffffff1690565b73ffffffffffffffffffffffffffffffffffffffff6110d2610a81866108c1565b9116036113bb578551926110f56110f0602084019586515190610f32565b610932565b9460005b885181101561112c578061110f6001928b6108cb565b5161111a828a6108cb565b5261112581896108cb565b50016110f9565b50909294919395875160005b885180518210156113aa578161114d916108cb565b5161117161115e6040890189610f3f565b5060608301519081013591602090910190565b50608082015116906111838151151590565b611256575b60208101805161119781610f90565b6111a081610f90565b6111c6575060400151036111b8576001905b01611138565b506000989750505050505050565b600381516111d381610f90565b6111dc81610f90565b036111f3575060400151106111b8576001906111b2565b6001815161120081610f90565b61120981610f90565b03611220575060400151146111b8576001906111b2565b6002905161122d81610f90565b61123681610f90565b14611246575b50506001906111b2565b60400151116111b857388061123c565b9691989795929093998a610cde6112798c6040519283918c602084019687610fc9565b519020966000936112886108df565b9c60005b87518110156113925761129f81896108cb565b515115611345578a6112b1828a6108cb565b5151146112c05760010161128c565b6020949e50879a9198939c9d96506112de906112f3939c96986108cb565b519284840151915b82156112fe575b50610f32565b918291015290611188565b61133d91925061132e8b73ffffffffffffffffffffffffffffffffffffffff166000526000602052604060002090565b90600052602052604060002090565b5490386112ed565b6020949e506112f3929b95509761138c89899c99959e9f98939a6113869061136b6102ba565b978c895260008a8a01528861138083836108cb565b526108cb565b50610f24565b976112e6565b5096946020939d929b9c956112f3929b95979a6112e6565b505083525060019650909450505050565b509250505060009190565b91908110156108725760061b0190565b60005b8281106113e557505050565b60206113f28285856113c6565b01356114376114028386866113c6565b353373ffffffffffffffffffffffffffffffffffffffff16600052600060205260406000209060005260205260406000205490565b116114b157807f42063b8d32ac0a88f94053143bb30a789b3d5dfabb27d6c8a54e23d4fef30851606061146d60019487876113c6565b35602061147b8589896113c6565b0135336000526000602052604060002082600052602052806040600020556040519133835260208301526040820152a1016113d9565b7e2a700a0000000000000000000000000000000000000000000000000000000060005260046000fd5b604051906114e78261025d565b6060608083600081526000602082015282604082015282808201520152565b9093929384831161014a57841161014a578101920390565b6040519061152b8261023c565b6000602083606081520152565b6040519060c0820182811067ffffffffffffffff8211176102585760405281600081526000602082015260006040820152600060608201526060608082015260a061158161151e565b910152565b90611590826102e8565b61159d6040519182610279565b8281527fffffffffffffffffffffffffffffffffffffffffffffffffffffffffffffffe06115cb82946102e8565b019060005b8281106115dc57505050565b6020906115e7611538565b828285010152016115d0565b6040513d6000823e3d90fd5b604051906080820182811067ffffffffffffffff82111761025857604052816000815260006020820152600060408201526060611581611538565b90611644826102e8565b6116516040519182610279565b8281527fffffffffffffffffffffffffffffffffffffffffffffffffffffffffffffffe061167f82946102e8565b019060005b82811061169057505050565b60209061169b6115ff565b82828501015201611684565b359061017a82610703565b92919267ffffffffffffffff821161025857604051916116fa601f82017fffffffffffffffffffffffffffffffffffffffffffffffffffffffffffffffe01660200184610279565b82948184528183011161014a578281602093846000960137010152565b9080601f8301121561014a578160206103fc933591016116b2565b81601f8201121561014a57803590611749826102e8565b926117576040519485610279565b82845260208085019360051b8301019181831161014a5760208101935b83851061178357505050505090565b843567ffffffffffffffff811161014a57820160e07fffffffffffffffffffffffffffffffffffffffffffffffffffffffffffffffe0828603011261014a576117ca6102c9565b916117d760208301610189565b83526040820135602084015260608201359267ffffffffffffffff841161014a5760e08361180c886020809881980101611717565b60408401526080810135606084015261182760a0820161030a565b608084015261183860c0820161030a565b60a0840152013560c0820152815201940193611774565b9080601f8301121561014a578135611866816102e8565b926118746040519485610279565b81845260208085019260051b82010192831161014a57602001905b82821061189c5750505090565b6020809183356118ab8161014f565b81520191019061188f565b9190916101208184031261014a576118cc6102d8565b926118d6826116a7565b84526118e46020830161030a565b6020850152604082013567ffffffffffffffff811161014a5781611909918401611732565b6040850152606082013560608501526080820135608085015260a082013567ffffffffffffffff811161014a5781611942918401611717565b60a085015260c082013560c085015260e082013560e085015261010082013567ffffffffffffffff811161014a5761197a920161184f565b610100830152565b909162ffffff936119916114da565b50600090823560e81c60039616906119c86119c06119ba6119b2858b610f32565b8a8589611506565b90612837565b939098610f32565b602088019373ffffffffffffffffffffffffffffffffffffffff611a00865173ffffffffffffffffffffffffffffffffffffffff1690565b1615611cf0575060018101949392919084013560f81c90611a2082611586565b9360005b838110611c245750505015159081611c1b575b50611bf157611a6f611a4c6040870187610718565b959050611a6a611a5b8761163a565b9760808a0198895236906118b6565b612f44565b916000935b858510611a85575050505050505090565b611aa1611a906115ff565b918381013560f81c91600190910190565b60808216151583529590825115611bd157607f168451811015611ba7576000611ae0611b1598611ad3602094896108cb565b5160608701525b86612dd8565b9a909291611aee878c61305a565b92604051948594859094939260ff6060936080840197845216602083015260408201520152565b838052039060015afa15611ba257611b50610a81600051610bcd6020860191829073ffffffffffffffffffffffffffffffffffffffff169052565b15611b7157611b69816001938a519061138083836108cb565b500193611a74565b7fc1e84ed600000000000000000000000000000000000000000000000000000000600052610ef66024906000600452565b6115f3565b7fbd8ba84d0000000000000000000000000000000000000000000000000000000060005260046000fd5b6000611ae0611b1598611bec602094604088019060ff169052565b611ada565b7feb6252040000000000000000000000000000000000000000000000000000000060005260046000fd5b90501538611a37565b611c4c9060206000611c43611c599b611c3b611538565b50878c612d22565b8b959195612dd8565b9d909291611aee88612e1b565b838052039060015afa15611ba25760005173ffffffffffffffffffffffffffffffffffffffff611ca0610a81865173ffffffffffffffffffffffffffffffffffffffff1690565b911603611cc657600191611cb482896108cb565b52611cbf81886108cb565b5001611a24565b7f9e5c658b0000000000000000000000000000000000000000000000000000000060005260046000fd5b807f9e5c658b0000000000000000000000000000000000000000000000000000000060049252fd5b60405190611d258261025d565b60606080836000815260006020820152600060408201526000838201520152565b939594909192611d5461076c565b50611d5d611d18565b9660005b815181101561202857611d77610b3182846108cb565b73ffffffffffffffffffffffffffffffffffffffff808516911614611d9e57600101611d61565b90611daf92939495969798506108cb565b51945b73ffffffffffffffffffffffffffffffffffffffff611de5875173ffffffffffffffffffffffffffffffffffffffff1690565b1615611fe457602086015180151580611fda575b611fad5750606086015167ffffffffffffffff1680151580611f9a575b611f63575083610a5e826040611e2d940190610718565b92611e3a608085016108b7565b610dbf57611e47846108c1565b73ffffffffffffffffffffffffffffffffffffffff163014611f4e57506080850160ff815151931692831015611f2457611e9592611e8591516108cb565b519060208701948486519361108d565b9015611efa5760209252013580611ee3575b5060408083015191015110611eb95790565b7faa7feadc0000000000000000000000000000000000000000000000000000000060005260046000fd5b611ef260408401918251610f32565b905238611ea7565b7f868a64de0000000000000000000000000000000000000000000000000000000060005260046000fd5b7f3f904dc00000000000000000000000000000000000000000000000000000000060005260046000fd5b9350505091506114b15760200135611eb95790565b7fb1bbfdd50000000000000000000000000000000000000000000000000000000060005267ffffffffffffffff1660045260246000fd5b5067ffffffffffffffff81164211611e16565b7f331003b30000000000000000000000000000000000000000000000000000000060005260045260246000fd5b5046811415611df9565b7fc1e84ed60000000000000000000000000000000000000000000000000000000060005273ffffffffffffffffffffffffffffffffffffffff821660045260246000fd5b505090919293959495611db2565b9081602091031261014a575190565b60005b8381106120585750506000910152565b8181015183820152602001612048565b907fffffffffffffffffffffffffffffffffffffffffffffffffffffffffffffffe0601f6020936120a481518092818752878088019101612045565b0116010190565b601f82602094937fffffffffffffffffffffffffffffffffffffffffffffffffffffffffffffffe0938186528686013760008582860101520116010190565b9073ffffffffffffffffffffffffffffffffffffffff823561210b8161014f565b1681526020820135602082015260408201357fffffffffffffffffffffffffffffffffffffffffffffffffffffffffffffffe18336030181121561014a57820160208135910167ffffffffffffffff821161014a57813603811361014a5761218360c09291839260e0604087015260e08601916120ab565b93606081013560608501526121a661219d6080830161030a565b15156080860152565b6121be6121b560a0830161030a565b151560a0860152565b013591015290565b73ffffffffffffffffffffffffffffffffffffffff6103fc94921681526060602082015273ffffffffffffffffffffffffffffffffffffffff83511660608201527fffffffff000000000000000000000000000000000000000000000000000000006020840151166080820152604083015160a0820152606083015160c082015260a0612263608085015160c060e0850152610120840190612068565b930151927fffffffffffffffffffffffffffffffffffffffffffffffffffffffffffffffa082820301610100830152602067ffffffffffffffff816122b18751604086526040860190612068565b9601511691015260408184039101526120ea565b929390916122ea610a81865173ffffffffffffffffffffffffffffffffffffffff1690565b73ffffffffffffffffffffffffffffffffffffffff8216036124a257612312608085016108b7565b610dbf5761232082826130e3565b61245f575061233790612332846108c1565b6130e3565b612411576020820135611eb957602082612359610a81610a8161238f966108c1565b60405180809681947f9d043a660000000000000000000000000000000000000000000000000000000083528988600485016121c6565b03915afa918215611ba2576000926123de575b506123ad91926131ae565b036123b457565b7f0881ad5d0000000000000000000000000000000000000000000000000000000060005260046000fd5b6123ad92506124049060203d60201161240a575b6123fc8183610279565b810190612036565b916123a2565b503d6123f2565b610ef661241d836108c1565b7fd33f19e70000000000000000000000000000000000000000000000000000000060005273ffffffffffffffffffffffffffffffffffffffff16600452602490565b7fd33f19e70000000000000000000000000000000000000000000000000000000060005273ffffffffffffffffffffffffffffffffffffffff1660045260246000fd5b7fc1e84ed60000000000000000000000000000000000000000000000000000000060005273ffffffffffffffffffffffffffffffffffffffff1660045260246000fd5b9060206103fc9281815201906103a3565b81519091901561275357612509826108c1565b73ffffffffffffffffffffffffffffffffffffffff163014801590612744575b8015612732575b6114b157600092835b825185101561258e5761255c90602061255287866108cb565b5101515190610f32565b93604061256982856108cb565b51015161257a575b60010193612539565b9361258660019161099f565b949050612571565b61259a91939450610932565b60009081935b83518510156126c75760005b60206125b887876108cb565b5101515181101561260557806125fe6125e160019360206125d98b8b6108cb565b5101516108cb565b51956125ec8161099f565b966125f782886108cb565b52856108cb565b50016125ac565b509493600190604061261782876108cb565b510151612627575b0193946125a0565b6126c1612637610b3183886108cb565b60405161268381610cde602082019485602073eeeeeeeeeeeeeeeeeeeeeeeeeeeeeeeeeeeeeeee9193929373ffffffffffffffffffffffffffffffffffffffff60408201951681520152565b51902094604061269384896108cb565b51015161269e6102ba565b96875260208701526126af8161099f565b956126ba82876108cb565b52846108cb565b5061261f565b949350612724925061271d915060405161270f81610cde60208201947f42de1418000000000000000000000000000000000000000000000000000000008652602483016124e5565b519020926040810190610f3f565b36916116b2565b60208151910120036114b157565b5061273f60a083016108b7565b612530565b50600160c08301351415612529565b5061275d906108c1565b73ffffffffffffffffffffffffffffffffffffffff1630146114b157565b90612785826102e8565b6127926040519182610279565b8281527fffffffffffffffffffffffffffffffffffffffffffffffffffffffffffffffe06127c082946102e8565b019060005b8281106127d157505050565b6020906127dc611d18565b828285010152016127c5565b906127f2826102e8565b6127ff6040519182610279565b8281527fffffffffffffffffffffffffffffffffffffffffffffffffffffffffffffffe061282d82946102e8565b0190602036910137565b916128406114da565b60009384908190612853605e870461277b565b91606085019283525b86811061286c5750505152929150565b8181013560fc81901c97916001019060f81c818915612c73575060018914612c415760028914612a9c576003891461296b5750600488146128d6577f0ad9979000000000000000000000000000000000000000000000000000000000600052600488905260246000fd5b90919293949596506020860173ffffffffffffffffffffffffffffffffffffffff612915825173ffffffffffffffffffffffffffffffffffffffff1690565b16611cc6578382013560601c815260149091019061293b9061293690610bcd565b6133df565b86518015612965579061295691600052602052604060002090565b86525b9594939291909561285c565b50612956565b98909192939495969750611bf157600f60019816600f8114612a8b575b8190612993816127e8565b604089019081526000805b8382106129e657505050506129b8826129be928587611506565b9061336b565b865180156129e057906129d991600052602052604060002090565b8652612959565b506129d9565b612a1d958881013560601c906014019690612a028486516108cb565b9073ffffffffffffffffffffffffffffffffffffffff169052565b73ffffffffffffffffffffffffffffffffffffffff80612a41610bcd8587516108cb565b9216911610612a61578b612a59610bcd8385516108cb565b91019061299e565b7f83f928070000000000000000000000000000000000000000000000000000000060005260046000fd5b50600281019083013560f01c612988565b612aff969850612af7612b0892600f6119ba939c96979a95989c169087929190928160031b7fffffffffffffffffffffffffffffffffffffffffffffffffffffffffffffffff6001821b019185013590610100031c16920190565b979088610f32565b80978787611506565b93909593612c2a575b6020860173ffffffffffffffffffffffffffffffffffffffff612b48825173ffffffffffffffffffffffffffffffffffffffff1690565b16612bc0575b5060005b60608701518051821015612b8f5790612b88612b70826001946108cb565b519b8a51612b7d8261099f565b9d61138083836108cb565b5001612b52565b505092909695939197948651801515600014612bb9576129d9915190600052602052604060002090565b50516129d9565b60208901612be5610a81825173ffffffffffffffffffffffffffffffffffffffff1690565b611cc657612c0a612c24925173ffffffffffffffffffffffffffffffffffffffff1690565b73ffffffffffffffffffffffffffffffffffffffff169052565b38612b4e565b91611bf15760019160408601516040890152612b11565b5085519697509495939492939192909160208201918401359080156129e057906129d991600052602052604060002090565b92939495969798505050612c85611d18565b8184018035606090811c8352601482013560208401526034820135604084015260549091013560c01c9082015294612cc1605c83018486613260565b8093916080890152612cd4918587611506565b612cdd91613316565b8751612d169291908015612d1c5790612cfe91600052602052604060002090565b88528551612d0b8261099f565b9761138083836108cb565b50612959565b50612cfe565b612dcd91939293612dc762ffffff612da26018612d3d611538565b987fffffffff000000000000000000000000000000000000000000000000000000006014888301803560601c8d5201351660208b01520160208682013591019060408a015260208682013591019060608a01528560039092919283013560e81c920190565b911690612dbd61271d612db58484610f32565b838789611506565b6080890152610f32565b91613443565b929060a08201529190565b8101916040602084359401359201601b7f7fffffffffffffffffffffffffffffffffffffffffffffffffffffffffffffff84169360ff1c0160ff81116109cc5791565b73ffffffffffffffffffffffffffffffffffffffff81511690612f3e7fffffffff00000000000000000000000000000000000000000000000000000000602083015116610cde7fffffff0000000000000000000000000000000000000000000000000000000000604085015194606081015190608081015191612f2d6008602360a062ffffff87511695015180517fffffffffffffffff00000000000000000000000000000000000000000000000060208251930151916040519a8b9460e81b166020850152612ef48151809260208888019101612045565b83019160c01b168382015203017fffffffffffffffffffffffffffffffffffffffffffffffffffffffffffffffe8810187520185610279565b604051978896602088019a8b61348e565b51902090565b90612f3e613011610cde9260208501511515600014613053576000905b73ffffffffffffffffffffffffffffffffffffffff6040519160208301937f8b73c3c69bb8fe3d512ecc4cf759cc79239f7b179b0ffacaa9a75d522b39400f85527f4aa45ca7ad825ceb1bf35643f0a58c295239df563b1b565c2485f96477c5631860408501527f2a80e1ef1d7842f27f2e6be0972bb708b9a135c38860dbe73c27c3486c34f4de606085015260808401521660a082015260a0815261300860c082610279565b5190209361358a565b60405192839160208301958690916042927f19010000000000000000000000000000000000000000000000000000000000008352600283015260228201520190565b4690612f61565b906040519060208201928352604082015260408152612f3e606082610279565b907fffffffffffffffffffffffffffffffffffffffffffffffffffffffffffffffff82019182136001166109cc57565b90600182019160006001841291129080158216911516176109cc57565b919091600083820193841291129080158216911516176109cc57565b600082517fffffffffffffffffffffffffffffffffffffffffffffffffffffffffffffffff81019081136001166109cc57905b818113156131275750505050600090565b80820360008212838212811690848313901516176109cc5761314d9060029005826130c7565b9061315b610bcd83876108cb565b73ffffffffffffffffffffffffffffffffffffffff85811691168082036131885750505050505050600190565b101561319d5750613198906130aa565b613116565b91506131a89061307a565b90613116565b9060405160208101907f616363657074496d706c696369745265717565737400000000000000000000008252601581526131e9603582610279565b5190209160406060820151910151907fffffffffffffffffffffffffffffffffffffffff000000000000000000000000604051936020850195865260601b1660408401526054830152607482015260748152612f3e609482610279565b604051906132538261023c565b6060602083600081520152565b60018301939281013560f81c613275816102e8565b926132836040519485610279565b8184527fffffffffffffffffffffffffffffffffffffffffffffffffffffffffffffffe06132b0836102e8565b0160005b8181106132f75750506000925b8284106132d057505050509190565b909192956132e16001918484613810565b97906132ed82886108cb565b52019291906132c1565b60209061330695939495613246565b82828901015201939291936132b4565b90612f3e60016020926040519381859282840197600089526021850137820101828101600081525003017fffffffffffffffffffffffffffffffffffffffffffffffffffffffffffffffe08101835282610279565b90612f3e600160209260405193818592828401977f030000000000000000000000000000000000000000000000000000000000000089526021850137820101828101600081525003017fffffffffffffffffffffffffffffffffffffffffffffffffffffffffffffffe08101835282610279565b6040517fffffffffffffffffffffffffffffffffffffffff00000000000000000000000060208201927f0400000000000000000000000000000000000000000000000000000000000000845260601b16602182015260158152612f3e603582610279565b929161344d61151e565b9060038101908581013560e81c019460038601918281116109cc5761271d60039361347b92600b9785611506565b83528501013560c01c6020820152920190565b9390927fffffffff00000000000000000000000000000000000000000000000000000000605b989796937fffffffffffffffffffffffffffffffffffffffff0000000000000000000000007fffffff00000000000000000000000000000000000000000000000000000000009660601b1687521660148601526018850152603884015260e81b16605882015261352d8251809360208785019101612045565b016135418251809360208685019101612045565b010190565b805160209091019060005b81811061355e5750505090565b825173ffffffffffffffffffffffffffffffffffffffff16845260209384019390920191600101613551565b6101008101516040516135a581610cde602082018095613546565b519020906135b4815160ff1690565b60ff81168061362d57505090612f3e6135d0604084015161398c565b92610cde60806060830151920151936040519485936020850197889094939260809260a08301967f11e1e4079a79a66e4ade50033cfe2678cdd5341d2dfe5ef9513edb1a0be147a284526020840152604083015260608201520152565b6001810361368b57505060a001518051602091820120604080517fe19a3b94fc3c7ece3f890d98a99bc422615537a08dea0603fa8425867d87d46693810193845290810191909152606081019290925290612f3e8160808101610cde565b600281036136e157505060c00151604080517f11fdeb7e8373a1aa96bfac8d0ea91526b2c5d15e5cee20e0543e780258f3e8e460208201908152918101929092526060820192909252612f3e8160808101610cde565b600303613735575060e00151604080517fe19a3b94fc3c7ece3f890d98a99bc422615537a08dea0603fa8425867d87d46660208201908152918101929092526060820192909252612f3e8160808101610cde565b7f048183200000000000000000000000000000000000000000000000000000000060005260ff1660045260246000fd5b9061376f826102e8565b61377c6040519182610279565b8281527fffffffffffffffffffffffffffffffffffffffffffffffffffffffffffffffe06137aa82946102e8565b019060005b8281106137bb57505050565b6020906040516137ca8161025d565b60008152600083820152600060408201526000606082015260006080820152828285010152016137af565b60ff166004811015610f9a5790565b6004821015610f9a5752565b60ff93929150613865613855613838613827613246565b948481013560601c91601490910190565b73ffffffffffffffffffffffffffffffffffffffff909116855290565b8281013560f81c91600190910190565b941661387081613765565b602084019081526000925b82841061388a57505050509190565b909192956139436139256139076138dd6138fa8b60206138f36138eb6138e68c6138c260019c8e60019092919283013560f81c920190565b9890916138d5888f8516151592516108cb565b519015159052565b60011c607f1690565b6137f5565b928b516108cb565b5101613804565b8581013591602090910190565b9060406139158c89516108cb565b5101528481013591602090910190565b9060606139338b88516108cb565b5101528381013591602090910190565b979060806139528387516108cb565b5101520192919061387b565b805160209091019060005b8181106139765750505090565b8251845260209384019390920191600101613969565b9081517fffffffffffffffffffffffffffffffffffffffffffffffffffffffffffffffe06139d26139bc836102e8565b926139ca6040519485610279565b8084526102e8565b0136602083013760005b8351811015613aae57806139f2600192866108cb565b5173ffffffffffffffffffffffffffffffffffffffff81511690602081015190604081015160208151910120906060810151608082015115159060c060a08401511515930151936040519560208701977f0603985259a953da1f65a522f589c17bd1d0117ec1d3abb7c0788aef251ef437895260408801526060870152608086015260a085015260c084015260e08301526101008201526101008152613a9a61012082610279565b519020613aa782856108cb565b52016139dc565b50909150604051612f3e81610cde60208201809561395e56fea2646970667358221220e46c24a4d8c6482e636df6cb6bfa1a8f1377f5963c2c32a6ce8efb4382d1325e64736f6c634300081c0033","linkReferences":{}},"methodIdentifiers":{"MAX_SPACE()":"8c946df4","VALUE_TRACKING_ADDRESS()":"f916f3b2","getLimitUsage(address,bytes32)":"23b3713e","incrementUsageLimit((bytes32,uint256)[])":"42de1418","recoverSapientSignature((uint8,bool,(address,uint256,bytes,uint256,bool,bool,uint256)[],uint256,uint256,bytes,bytes32,bytes32,address[]),bytes)":"13792a4a","validatePermission((address,(bool,uint8,bytes32,uint256,bytes32)[]),(address,uint256,bytes,uint256,bool,bool,uint256),address,address,(bytes32,uint256)[])":"313dade7"}}}}}