{"src/modules/Implementation.sol":{"Implementation":{"abi":[{"type":"function","name":"getImplementation","inputs":[],"outputs":[{"name":"","type":"address","internalType":"address"}],"stateMutability":"view"},{"type":"function","name":"updateImplementation","inputs":[{"name":"_implementation","type":"address","internalType":"address"}],"outputs":[],"stateMutability":"payable"},{"type":"event","name":"ImplementationUpdated","inputs":[{"name":"newImplementation","type":"address","indexed":false,"internalType":"address"}],"anonymous":false},{"type":"error","name":"OnlySelf","inputs":[{"name":"_sender","type":"address","internalType":"address"}]}],"userdoc":{},"devdoc":{},"evm":{"bytecode":{"object":"6080806040523460155761016e908161001b8239f35b600080fdfe608080604052600436101561001357600080fd5b60003560e01c908163025b22bc1461008b575063aaf10f421461003557600080fd5b346100865760007ffffffffffffffffffffffffffffffffffffffffffffffffffffffffffffffffc360112610086576020305473ffffffffffffffffffffffffffffffffffffffff60405191168152f35b600080fd5b60207ffffffffffffffffffffffffffffffffffffffffffffffffffffffffffffffffc3601126100865760043573ffffffffffffffffffffffffffffffffffffffff8116918282036100865730330361010a577f310ba5f1d2ed074b51e2eccd052a47ae9ab7c6b800d1fca3db3999d6a592ca039260209230558152a1005b7fa19dbf00000000000000000000000000000000000000000000000000000000006000523360045260246000fdfea264697066735822122016d4bbbdf38e602d792d6ba20a238b1098860bdd899a22d8ee85a318fa602b6564736f6c634300081c0033","linkReferences":{}},"methodIdentifiers":{"getImplementation()":"aaf10f42","updateImplementation(address)":"025b22bc"}}}}}