{"src/Stage2Module.sol":{"Stage2Module":{"abi":[{"type":"constructor","inputs":[{"name":"_entryPoint","type":"address","internalType":"address"}],"stateMutability":"nonpayable"},{"type":"fallback","stateMutability":"payable"},{"type":"receive","stateMutability":"payable"},{"type":"function","name":"addHook","inputs":[{"name":"selector","type":"bytes4","internalType":"bytes4"},{"name":"implementation","type":"address","internalType":"address"}],"outputs":[],"stateMutability":"payable"},{"type":"function","name":"entrypoint","inputs":[],"outputs":[{"name":"","type":"address","internalType":"address"}],"stateMutability":"view"},{"type":"function","name":"execute","inputs":[{"name":"_payload","type":"bytes","internalType":"bytes"},{"name":"_signature","type":"bytes","internalType":"bytes"}],"outputs":[],"stateMutability":"payable"},{"type":"function","name":"executeUserOp","inputs":[{"name":"_payload","type":"bytes","internalType":"bytes"}],"outputs":[],"stateMutability":"nonpayable"},{"type":"function","name":"getImplementation","inputs":[],"outputs":[{"name":"","type":"address","internalType":"address"}],"stateMutability":"view"},{"type":"function","name":"getStaticSignature","inputs":[{"name":"_hash","type":"bytes32","internalType":"bytes32"}],"outputs":[{"name":"","type":"address","internalType":"address"},{"name":"","type":"uint256","internalType":"uint256"}],"stateMutability":"view"},{"type":"function","name":"imageHash","inputs":[],"outputs":[{"name":"","type":"bytes32","internalType":"bytes32"}],"stateMutability":"view"},{"type":"function","name":"isValidSignature","inputs":[{"name":"_hash","type":"bytes32","internalType":"bytes32"},{"name":"_signature","type":"bytes","internalType":"bytes"}],"outputs":[{"name":"","type":"bytes4","internalType":"bytes4"}],"stateMutability":"view"},{"type":"function","name":"onERC1155BatchReceived","inputs":[{"name":"","type":"address","internalType":"address"},{"name":"","type":"address","internalType":"address"},{"name":"","type":"uint256[]","internalType":"uint256[]"},{"name":"","type":"uint256[]","internalType":"uint256[]"},{"name":"","type":"bytes","internalType":"bytes"}],"outputs":[{"name":"","type":"bytes4","internalType":"bytes4"}],"stateMutability":"pure"},{"type":"function","name":"onERC1155Received","inputs":[{"name":"","type":"address","internalType":"address"},{"name":"","type":"address","internalType":"address"},{"name":"","type":"uint256","internalType":"uint256"},{"name":"","type":"uint256","internalType":"uint256"},{"name":"","type":"bytes","internalType":"bytes"}],"outputs":[{"name":"","type":"bytes4","internalType":"bytes4"}],"stateMutability":"pure"},{"type":"function","name":"onERC721Received","inputs":[{"name":"","type":"address","internalType":"address"},{"name":"","type":"address","internalType":"address"},{"name":"","type":"uint256","internalType":"uint256"},{"name":"","type":"bytes","internalType":"bytes"}],"outputs":[{"name":"","type":"bytes4","internalType":"bytes4"}],"stateMutability":"pure"},{"type":"function","name":"readHook","inputs":[{"name":"selector","type":"bytes4","internalType":"bytes4"}],"outputs":[{"name":"","type":"address","internalType":"address"}],"stateMutability":"view"},{"type":"function","name":"readNonce","inputs":[{"name":"_space","type":"uint256","internalType":"uint256"}],"outputs":[{"name":"","type":"uint256","internalType":"uint256"}],"stateMutability":"view"},{"type":"function","name":"recoverPartialSignature","inputs":[{"name":"_payload","type":"tuple","internalType":"struct Payload.Decoded","components":[{"name":"kind","type":"uint8","internalType":"uint8"},{"name":"noChainId","type":"bool","internalType":"bool"},{"name":"calls","type":"tuple[]","internalType":"struct Payload.Call[]","components":[{"name":"to","type":"address","internalType":"address"},{"name":"value","type":"uint256","internalType":"uint256"},{"name":"data","type":"bytes","internalType":"bytes"},{"name":"gasLimit","type":"uint256","internalType":"uint256"},{"name":"delegateCall","type":"bool","internalType":"bool"},{"name":"onlyFallback","type":"bool","internalType":"bool"},{"name":"behaviorOnError","type":"uint256","internalType":"uint256"}]},{"name":"space","type":"uint256","internalType":"uint256"},{"name":"nonce","type":"uint256","internalType":"uint256"},{"name":"message","type":"bytes","internalType":"bytes"},{"name":"imageHash","type":"bytes32","internalType":"bytes32"},{"name":"digest","type":"bytes32","internalType":"bytes32"},{"name":"parentWallets","type":"address[]","internalType":"address[]"}]},{"name":"_signature","type":"bytes","internalType":"bytes"}],"outputs":[{"name":"threshold","type":"uint256","internalType":"uint256"},{"name":"weight","type":"uint256","internalType":"uint256"},{"name":"isValidImage","type":"bool","internalType":"bool"},{"name":"imageHash","type":"bytes32","internalType":"bytes32"},{"name":"checkpoint","type":"uint256","internalType":"uint256"},{"name":"opHash","type":"bytes32","internalType":"bytes32"}],"stateMutability":"view"},{"type":"function","name":"recoverSapientSignature","inputs":[{"name":"_payload","type":"tuple","internalType":"struct Payload.Decoded","components":[{"name":"kind","type":"uint8","internalType":"uint8"},{"name":"noChainId","type":"bool","internalType":"bool"},{"name":"calls","type":"tuple[]","internalType":"struct Payload.Call[]","components":[{"name":"to","type":"address","internalType":"address"},{"name":"value","type":"uint256","internalType":"uint256"},{"name":"data","type":"bytes","internalType":"bytes"},{"name":"gasLimit","type":"uint256","internalType":"uint256"},{"name":"delegateCall","type":"bool","internalType":"bool"},{"name":"onlyFallback","type":"bool","internalType":"bool"},{"name":"behaviorOnError","type":"uint256","internalType":"uint256"}]},{"name":"space","type":"uint256","internalType":"uint256"},{"name":"nonce","type":"uint256","internalType":"uint256"},{"name":"message","type":"bytes","internalType":"bytes"},{"name":"imageHash","type":"bytes32","internalType":"bytes32"},{"name":"digest","type":"bytes32","internalType":"bytes32"},{"name":"parentWallets","type":"address[]","internalType":"address[]"}]},{"name":"_signature","type":"bytes","internalType":"bytes"}],"outputs":[{"name":"","type":"bytes32","internalType":"bytes32"}],"stateMutability":"view"},{"type":"function","name":"removeHook","inputs":[{"name":"selector","type":"bytes4","internalType":"bytes4"}],"outputs":[],"stateMutability":"payable"},{"type":"function","name":"selfExecute","inputs":[{"name":"_payload","type":"bytes","internalType":"bytes"}],"outputs":[],"stateMutability":"payable"},{"type":"function","name":"setStaticSignature","inputs":[{"name":"_hash","type":"bytes32","internalType":"bytes32"},{"name":"_address","type":"address","internalType":"address"},{"name":"_timestamp","type":"uint96","internalType":"uint96"}],"outputs":[],"stateMutability":"nonpayable"},{"type":"function","name":"tokenReceived","inputs":[{"name":"","type":"address","internalType":"address"},{"name":"","type":"uint256","internalType":"uint256"},{"name":"","type":"bytes","internalType":"bytes"}],"outputs":[{"name":"","type":"bytes4","internalType":"bytes4"}],"stateMutability":"pure"},{"type":"function","name":"tokensReceived","inputs":[{"name":"operator","type":"address","internalType":"address"},{"name":"from","type":"address","internalType":"address"},{"name":"to","type":"address","internalType":"address"},{"name":"amount","type":"uint256","internalType":"uint256"},{"name":"data","type":"bytes","internalType":"bytes"},{"name":"operatorData","type":"bytes","internalType":"bytes"}],"outputs":[],"stateMutability":"nonpayable"},{"type":"function","name":"updateImageHash","inputs":[{"name":"_imageHash","type":"bytes32","internalType":"bytes32"}],"outputs":[],"stateMutability":"nonpayable"},{"type":"function","name":"updateImplementation","inputs":[{"name":"_implementation","type":"address","internalType":"address"}],"outputs":[],"stateMutability":"payable"},{"type":"function","name":"validateUserOp","inputs":[{"name":"userOp","type":"tuple","internalType":"struct PackedUserOperation","components":[{"name":"sender","type":"address","internalType":"address"},{"name":"nonce","type":"uint256","internalType":"uint256"},{"name":"initCode","type":"bytes","internalType":"bytes"},{"name":"callData","type":"bytes","internalType":"bytes"},{"name":"accountGasLimits","type":"bytes32","internalType":"bytes32"},{"name":"preVerificationGas","type":"uint256","internalType":"uint256"},{"name":"gasFees","type":"bytes32","internalType":"bytes32"},{"name":"paymasterAndData","type":"bytes","internalType":"bytes"},{"name":"signature","type":"bytes","internalType":"bytes"}]},{"name":"userOpHash","type":"bytes32","internalType":"bytes32"},{"name":"missingAccountFunds","type":"uint256","internalType":"uint256"}],"outputs":[{"name":"validationData","type":"uint256","internalType":"uint256"}],"stateMutability":"nonpayable"},{"type":"event","name":"CallAborted","inputs":[{"name":"_opHash","type":"bytes32","indexed":false,"internalType":"bytes32"},{"name":"_index","type":"uint256","indexed":false,"internalType":"uint256"},{"name":"_returnData","type":"bytes","indexed":false,"internalType":"bytes"}],"anonymous":false},{"type":"event","name":"CallFailed","inputs":[{"name":"_opHash","type":"bytes32","indexed":false,"internalType":"bytes32"},{"name":"_index","type":"uint256","indexed":false,"internalType":"uint256"},{"name":"_returnData","type":"bytes","indexed":false,"internalType":"bytes"}],"anonymous":false},{"type":"event","name":"CallSkipped","inputs":[{"name":"_opHash","type":"bytes32","indexed":false,"internalType":"bytes32"},{"name":"_index","type":"uint256","indexed":false,"internalType":"uint256"}],"anonymous":false},{"type":"event","name":"CallSucceeded","inputs":[{"name":"_opHash","type":"bytes32","indexed":false,"internalType":"bytes32"},{"name":"_index","type":"uint256","indexed":false,"internalType":"uint256"}],"anonymous":false},{"type":"event","name":"DefinedHook","inputs":[{"name":"selector","type":"bytes4","indexed":false,"internalType":"bytes4"},{"name":"implementation","type":"address","indexed":false,"internalType":"address"}],"anonymous":false},{"type":"event","name":"ImageHashUpdated","inputs":[{"name":"newImageHash","type":"bytes32","indexed":false,"internalType":"bytes32"}],"anonymous":false},{"type":"event","name":"ImplementationUpdated","inputs":[{"name":"newImplementation","type":"address","indexed":false,"internalType":"address"}],"anonymous":false},{"type":"event","name":"NonceChange","inputs":[{"name":"_space","type":"uint256","indexed":false,"internalType":"uint256"},{"name":"_newNonce","type":"uint256","indexed":false,"internalType":"uint256"}],"anonymous":false},{"type":"event","name":"StaticSignatureSet","inputs":[{"name":"_hash","type":"bytes32","indexed":false,"internalType":"bytes32"},{"name":"_address","type":"address","indexed":false,"internalType":"address"},{"name":"_timestamp","type":"uint96","indexed":false,"internalType":"uint96"}],"anonymous":false},{"type":"error","name":"BadNonce","inputs":[{"name":"_space","type":"uint256","internalType":"uint256"},{"name":"_provided","type":"uint256","internalType":"uint256"},{"name":"_current","type":"uint256","internalType":"uint256"}]},{"type":"error","name":"ChainedSignatureNestedInChainedSignature","inputs":[]},{"type":"error","name":"ERC4337Disabled","inputs":[]},{"type":"error","name":"HookAlreadyExists","inputs":[{"name":"selector","type":"bytes4","internalType":"bytes4"}]},{"type":"error","name":"HookDoesNotExist","inputs":[{"name":"selector","type":"bytes4","internalType":"bytes4"}]},{"type":"error","name":"ImageHashIsZero","inputs":[]},{"type":"error","name":"InvalidERC1271Signature","inputs":[{"name":"_opHash","type":"bytes32","internalType":"bytes32"},{"name":"_signer","type":"address","internalType":"address"},{"name":"_signature","type":"bytes","internalType":"bytes"}]},{"type":"error","name":"InvalidEntryPoint","inputs":[{"name":"_entrypoint","type":"address","internalType":"address"}]},{"type":"error","name":"InvalidKind","inputs":[{"name":"kind","type":"uint8","internalType":"uint8"}]},{"type":"error","name":"InvalidSapientSignature","inputs":[{"name":"_payload","type":"tuple","internalType":"struct Payload.Decoded","components":[{"name":"kind","type":"uint8","internalType":"uint8"},{"name":"noChainId","type":"bool","internalType":"bool"},{"name":"calls","type":"tuple[]","internalType":"struct Payload.Call[]","components":[{"name":"to","type":"address","internalType":"address"},{"name":"value","type":"uint256","internalType":"uint256"},{"name":"data","type":"bytes","internalType":"bytes"},{"name":"gasLimit","type":"uint256","internalType":"uint256"},{"name":"delegateCall","type":"bool","internalType":"bool"},{"name":"onlyFallback","type":"bool","internalType":"bool"},{"name":"behaviorOnError","type":"uint256","internalType":"uint256"}]},{"name":"space","type":"uint256","internalType":"uint256"},{"name":"nonce","type":"uint256","internalType":"uint256"},{"name":"message","type":"bytes","internalType":"bytes"},{"name":"imageHash","type":"bytes32","internalType":"bytes32"},{"name":"digest","type":"bytes32","internalType":"bytes32"},{"name":"parentWallets","type":"address[]","internalType":"address[]"}]},{"name":"_signature","type":"bytes","internalType":"bytes"}]},{"type":"error","name":"InvalidSignature","inputs":[{"name":"_payload","type":"tuple","internalType":"struct Payload.Decoded","components":[{"name":"kind","type":"uint8","internalType":"uint8"},{"name":"noChainId","type":"bool","internalType":"bool"},{"name":"calls","type":"tuple[]","internalType":"struct Payload.Call[]","components":[{"name":"to","type":"address","internalType":"address"},{"name":"value","type":"uint256","internalType":"uint256"},{"name":"data","type":"bytes","internalType":"bytes"},{"name":"gasLimit","type":"uint256","internalType":"uint256"},{"name":"delegateCall","type":"bool","internalType":"bool"},{"name":"onlyFallback","type":"bool","internalType":"bool"},{"name":"behaviorOnError","type":"uint256","internalType":"uint256"}]},{"name":"space","type":"uint256","internalType":"uint256"},{"name":"nonce","type":"uint256","internalType":"uint256"},{"name":"message","type":"bytes","internalType":"bytes"},{"name":"imageHash","type":"bytes32","internalType":"bytes32"},{"name":"digest","type":"bytes32","internalType":"bytes32"},{"name":"parentWallets","type":"address[]","internalType":"address[]"}]},{"name":"_signature","type":"bytes","internalType":"bytes"}]},{"type":"error","name":"InvalidSignatureFlag","inputs":[{"name":"_flag","type":"uint256","internalType":"uint256"}]},{"type":"error","name":"InvalidSignatureWeight","inputs":[{"name":"_threshold","type":"uint256","internalType":"uint256"},{"name":"_weight","type":"uint256","internalType":"uint256"}]},{"type":"error","name":"InvalidStaticSignatureExpired","inputs":[{"name":"_opHash","type":"bytes32","internalType":"bytes32"},{"name":"_expires","type":"uint256","internalType":"uint256"}]},{"type":"error","name":"InvalidStaticSignatureWrongCaller","inputs":[{"name":"_opHash","type":"bytes32","internalType":"bytes32"},{"name":"_caller","type":"address","internalType":"address"},{"name":"_expectedCaller","type":"address","internalType":"address"}]},{"type":"error","name":"LowWeightChainedSignature","inputs":[{"name":"_signature","type":"bytes","internalType":"bytes"},{"name":"_threshold","type":"uint256","internalType":"uint256"},{"name":"_weight","type":"uint256","internalType":"uint256"}]},{"type":"error","name":"NotEnoughGas","inputs":[{"name":"_payload","type":"tuple","internalType":"struct Payload.Decoded","components":[{"name":"kind","type":"uint8","internalType":"uint8"},{"name":"noChainId","type":"bool","internalType":"bool"},{"name":"calls","type":"tuple[]","internalType":"struct Payload.Call[]","components":[{"name":"to","type":"address","internalType":"address"},{"name":"value","type":"uint256","internalType":"uint256"},{"name":"data","type":"bytes","internalType":"bytes"},{"name":"gasLimit","type":"uint256","internalType":"uint256"},{"name":"delegateCall","type":"bool","internalType":"bool"},{"name":"onlyFallback","type":"bool","internalType":"bool"},{"name":"behaviorOnError","type":"uint256","internalType":"uint256"}]},{"name":"space","type":"uint256","internalType":"uint256"},{"name":"nonce","type":"uint256","internalType":"uint256"},{"name":"message","type":"bytes","internalType":"bytes"},{"name":"imageHash","type":"bytes32","internalType":"bytes32"},{"name":"digest","type":"bytes32","internalType":"bytes32"},{"name":"parentWallets","type":"address[]","internalType":"address[]"}]},{"name":"_index","type":"uint256","internalType":"uint256"},{"name":"_gasLeft","type":"uint256","internalType":"uint256"}]},{"type":"error","name":"OnlySelf","inputs":[{"name":"_sender","type":"address","internalType":"address"}]},{"type":"error","name":"ReentrantCall","inputs":[]},{"type":"error","name":"Reverted","inputs":[{"name":"_payload","type":"tuple","internalType":"struct Payload.Decoded","components":[{"name":"kind","type":"uint8","internalType":"uint8"},{"name":"noChainId","type":"bool","internalType":"bool"},{"name":"calls","type":"tuple[]","internalType":"struct Payload.Call[]","components":[{"name":"to","type":"address","internalType":"address"},{"name":"value","type":"uint256","internalType":"uint256"},{"name":"data","type":"bytes","internalType":"bytes"},{"name":"gasLimit","type":"uint256","internalType":"uint256"},{"name":"delegateCall","type":"bool","internalType":"bool"},{"name":"onlyFallback","type":"bool","internalType":"bool"},{"name":"behaviorOnError","type":"uint256","internalType":"uint256"}]},{"name":"space","type":"uint256","internalType":"uint256"},{"name":"nonce","type":"uint256","internalType":"uint256"},{"name":"message","type":"bytes","internalType":"bytes"},{"name":"imageHash","type":"bytes32","internalType":"bytes32"},{"name":"digest","type":"bytes32","internalType":"bytes32"},{"name":"parentWallets","type":"address[]","internalType":"address[]"}]},{"name":"_index","type":"uint256","internalType":"uint256"},{"name":"_returnData","type":"bytes","internalType":"bytes"}]},{"type":"error","name":"UnusedSnapshot","inputs":[{"name":"_snapshot","type":"tuple","internalType":"struct Snapshot","components":[{"name":"imageHash","type":"bytes32","internalType":"bytes32"},{"name":"checkpoint","type":"uint256","internalType":"uint256"}]}]},{"type":"error","name":"WrongChainedCheckpointOrder","inputs":[{"name":"_nextCheckpoint","type":"uint256","internalType":"uint256"},{"name":"_checkpoint","type":"uint256","internalType":"uint256"}]}],"userdoc":{},"devdoc":{},"evm":{"bytecode":{"object":"60a034607457601f613fa838819003918201601f19168301916001600160401b03831184841017607957808492602094604052833981010312607457516001600160a01b0381168103607457608052604051613f1890816100908239608051818181611066015281816111cd0152611a340152f35b600080fd5b634e487b7160e01b600052604160045260246000fdfe6080604052600436101561001e575b361561001c5761001c611cbc565b005b60003560e01c806223de291461018d578063025b22bc1461018857806313792a4a14610183578063150b7a021461017e5780631626ba7e1461017957806319822f7c146101745780631a9b23371461016f5780631f6a1eb91461016a57806329561426146101655780634fcf3eca1461016057806351605d801461015b5780636ea44577146101565780638943ec02146101515780638c3f55631461014c57806392dcb3fc146101475780639c145aed14610142578063a65d69d41461013d578063aaf10f4214610138578063ad55366b14610133578063b93ea7ad1461012e578063bc197c8114610129578063f23a6e61146101245763f727ef1c0361000e5761154c565b6114bf565b6113ed565b61128e565b611242565b6111f1565b611182565b610ff3565b610f95565b610f59565b610ed5565b610ea6565b610e02565b610ce6565b610c2d565b610b1c565b610ab9565b610a04565b61097c565b6108ef565b6107f2565b6102db565b61024f565b6004359073ffffffffffffffffffffffffffffffffffffffff821682036101b557565b600080fd5b6024359073ffffffffffffffffffffffffffffffffffffffff821682036101b557565b6044359073ffffffffffffffffffffffffffffffffffffffff821682036101b557565b359073ffffffffffffffffffffffffffffffffffffffff821682036101b557565b9181601f840112156101b55782359167ffffffffffffffff83116101b557602083818601950101116101b557565b346101b55760c07ffffffffffffffffffffffffffffffffffffffffffffffffffffffffffffffffc3601126101b557610286610192565b5061028f6101ba565b506102986101dd565b5060843567ffffffffffffffff81116101b5576102b9903690600401610221565b505060a43567ffffffffffffffff81116101b55761001c903690600401610221565b60207ffffffffffffffffffffffffffffffffffffffffffffffffffffffffffffffffc3601126101b55761030d610192565b30330361035a576020817f310ba5f1d2ed074b51e2eccd052a47ae9ab7c6b800d1fca3db3999d6a592ca0392305573ffffffffffffffffffffffffffffffffffffffff60405191168152a1005b7fa19dbf00000000000000000000000000000000000000000000000000000000006000523360045260246000fd5b7f4e487b7100000000000000000000000000000000000000000000000000000000600052604160045260246000fd5b60e0810190811067ffffffffffffffff8211176103d357604052565b610388565b6040810190811067ffffffffffffffff8211176103d357604052565b90601f7fffffffffffffffffffffffffffffffffffffffffffffffffffffffffffffffe0910116810190811067ffffffffffffffff8211176103d357604052565b6040519061044460e0836103f4565b565b60405190610444610120836103f4565b359060ff821682036101b557565b359081151582036101b557565b67ffffffffffffffff81116103d35760051b60200190565b67ffffffffffffffff81116103d357601f017fffffffffffffffffffffffffffffffffffffffffffffffffffffffffffffffe01660200190565b9291926104cf82610489565b916104dd60405193846103f4565b8294818452818301116101b5578281602093846000960137010152565b9080601f830112156101b557816020610515933591016104c3565b90565b81601f820112156101b55780359061052f82610471565b9261053d60405194856103f4565b82845260208085019360051b830101918183116101b55760208101935b83851061056957505050505090565b843567ffffffffffffffff81116101b557820160e07fffffffffffffffffffffffffffffffffffffffffffffffffffffffffffffffe082860301126101b5576105b0610435565b916105bd60208301610200565b83526040820135602084015260608201359267ffffffffffffffff84116101b55760e0836105f28860208098819801016104fa565b60408401526080810135606084015261060d60a08201610464565b608084015261061e60c08201610464565b60a0840152013560c082015281520194019361055a565b9080601f830112156101b557813561064c81610471565b9261065a60405194856103f4565b81845260208085019260051b8201019283116101b557602001905b8282106106825750505090565b6020809161068f84610200565b815201910190610675565b9060407ffffffffffffffffffffffffffffffffffffffffffffffffffffffffffffffffc8301126101b55760043567ffffffffffffffff81116101b5576101207ffffffffffffffffffffffffffffffffffffffffffffffffffffffffffffffffc82850301126101b55761070c610446565b9061071981600401610456565b825261072760248201610464565b6020830152604481013567ffffffffffffffff81116101b55784600461074f92840101610518565b6040830152606481013560608301526084810135608083015260a481013567ffffffffffffffff81116101b55784600461078b928401016104fa565b60a083015260c481013560c083015260e481013560e083015261010481013567ffffffffffffffff81116101b557600485916107c8930101610635565b610100820152916024359067ffffffffffffffff82116101b5576107ee91600401610221565b9091565b346101b5576108003661069a565b909161010081019261081b610816855151611654565b611674565b9160005b85518051821015610882579061087c61085761083d836001956116f2565b5173ffffffffffffffffffffffffffffffffffffffff1690565b61086183886116f2565b9073ffffffffffffffffffffffffffffffffffffffff169052565b0161081f565b505083838661089733610861835151856116f2565b526108a3818484611d8e565b50156108b55760405160018152602090f35b6108eb906040519384937ff58cc8b50000000000000000000000000000000000000000000000000000000085526004850161194d565b0390fd5b346101b55760807ffffffffffffffffffffffffffffffffffffffffffffffffffffffffffffffffc3601126101b557610926610192565b5061092f6101ba565b5060643567ffffffffffffffff81116101b557610950903690600401610221565b505060206040517f150b7a02000000000000000000000000000000000000000000000000000000008152f35b346101b55760407ffffffffffffffffffffffffffffffffffffffffffffffffffffffffffffffffc3601126101b55760043560243567ffffffffffffffff81116101b5576020916109d46109da923690600401610221565b91611972565b7fffffffff0000000000000000000000000000000000000000000000000000000060405191168152f35b346101b55760607ffffffffffffffffffffffffffffffffffffffffffffffffffffffffffffffffc3601126101b55760043567ffffffffffffffff81116101b5576101207ffffffffffffffffffffffffffffffffffffffffffffffffffffffffffffffffc82360301126101b557610a8760209160243560443591600401611a1b565b604051908152f35b7fffffffff000000000000000000000000000000000000000000000000000000008116036101b557565b346101b55760207ffffffffffffffffffffffffffffffffffffffffffffffffffffffffffffffffc3601126101b5576020610afe600435610af981610a8f565b611f9e565b73ffffffffffffffffffffffffffffffffffffffff60405191168152f35b60407ffffffffffffffffffffffffffffffffffffffffffffffffffffffffffffffffc3601126101b55760043567ffffffffffffffff81116101b557610b66903690600401610221565b60243567ffffffffffffffff81116101b557610b86903690600401610221565b9160027ffc6e07e3992c7c3694a921dc9e412b6cfe475380556756a19805a9e3ddfe2fde5414610c0357610bdd9360027ffc6e07e3992c7c3694a921dc9e412b6cfe475380556756a19805a9e3ddfe2fde55611b85565b60017ffc6e07e3992c7c3694a921dc9e412b6cfe475380556756a19805a9e3ddfe2fde55005b7f37ed32e80000000000000000000000000000000000000000000000000000000060005260046000fd5b346101b55760207ffffffffffffffffffffffffffffffffffffffffffffffffffffffffffffffffc3601126101b55760043530330361035a578015610cbc576020817f307ed6bd941ee9fc80f369c94af5fa11e25bab5102a6140191756c5474a30bfa927fea7157fa25e3aa17d0ae2d5280fa4e24d421c61842aa85e45194e1145aa72bf855604051908152a1005b7f4294d1270000000000000000000000000000000000000000000000000000000060005260046000fd5b60207ffffffffffffffffffffffffffffffffffffffffffffffffffffffffffffffffc3601126101b557600435610d1c81610a8f565b30330361035a5773ffffffffffffffffffffffffffffffffffffffff610d4182611f9e565b1615610da75760407fffffffff000000000000000000000000000000000000000000000000000000007f0d7fc113eaf016db4681a1ba86d083ce3e0961f321062a75ac2b0aeb33deeed19216610d98600082612d51565b815190815260006020820152a1005b7fffffffff00000000000000000000000000000000000000000000000000000000907f1c3812cc000000000000000000000000000000000000000000000000000000006000521660045260246000fd5b60009103126101b557565b346101b55760007ffffffffffffffffffffffffffffffffffffffffffffffffffffffffffffffffc3601126101b55760207fea7157fa25e3aa17d0ae2d5280fa4e24d421c61842aa85e45194e1145aa72bf854604051908152f35b60207ffffffffffffffffffffffffffffffffffffffffffffffffffffffffffffffffc8201126101b5576004359067ffffffffffffffff82116101b5576107ee91600401610221565b610eaf36610e5d565b9030330361035a57610ec561001c925a926120d3565b90610ecf82612750565b9061242c565b346101b55760607ffffffffffffffffffffffffffffffffffffffffffffffffffffffffffffffffc3601126101b557610f0c610192565b5060443567ffffffffffffffff81116101b557610f2d903690600401610221565b505060206040517f8943ec02000000000000000000000000000000000000000000000000000000008152f35b346101b55760207ffffffffffffffffffffffffffffffffffffffffffffffffffffffffffffffffc3601126101b5576020610a876004356127e4565b346101b55760207ffffffffffffffffffffffffffffffffffffffffffffffffffffffffffffffffc3601126101b5576040610fd160043561282a565b73ffffffffffffffffffffffffffffffffffffffff8351921682526020820152f35b346101b55761100136610e5d565b9060027ffc6e07e3992c7c3694a921dc9e412b6cfe475380556756a19805a9e3ddfe2fde5414610c035760027ffc6e07e3992c7c3694a921dc9e412b6cfe475380556756a19805a9e3ddfe2fde5573ffffffffffffffffffffffffffffffffffffffff7f000000000000000000000000000000000000000000000000000000000000000016801561115857330361112a57303b156101b5576110d49160009160405193849283927f6ea4457700000000000000000000000000000000000000000000000000000000845260048401611c7b565b038183305af180156111255761110a5760017ffc6e07e3992c7c3694a921dc9e412b6cfe475380556756a19805a9e3ddfe2fde55005b80611119600061111f936103f4565b80610df7565b38610bdd565b6119be565b7f1d6ddbf4000000000000000000000000000000000000000000000000000000006000523360045260246000fd5b7fd13d78350000000000000000000000000000000000000000000000000000000060005260046000fd5b346101b55760007ffffffffffffffffffffffffffffffffffffffffffffffffffffffffffffffffc3601126101b557602060405173ffffffffffffffffffffffffffffffffffffffff7f0000000000000000000000000000000000000000000000000000000000000000168152f35b346101b55760007ffffffffffffffffffffffffffffffffffffffffffffffffffffffffffffffffc3601126101b5576020305473ffffffffffffffffffffffffffffffffffffffff60405191168152f35b346101b55760c061125e6000806112583661069a565b9161292b565b9261126a839293613b43565b906040519586526020860152151560408501526060840152608083015260a0820152f35b60407ffffffffffffffffffffffffffffffffffffffffffffffffffffffffffffffffc3601126101b5576004356112c481610a8f565b6112cc6101ba565b9030330361035a5773ffffffffffffffffffffffffffffffffffffffff6112f282611f9e565b1661136c577f0d7fc113eaf016db4681a1ba86d083ce3e0961f321062a75ac2b0aeb33deeed19173ffffffffffffffffffffffffffffffffffffffff7fffffffff0000000000000000000000000000000000000000000000000000000060409316911661135f8183612d51565b82519182526020820152a1005b7fffffffff00000000000000000000000000000000000000000000000000000000907f5b4d6d6a000000000000000000000000000000000000000000000000000000006000521660045260246000fd5b9181601f840112156101b55782359167ffffffffffffffff83116101b5576020808501948460051b0101116101b557565b346101b55760a07ffffffffffffffffffffffffffffffffffffffffffffffffffffffffffffffffc3601126101b557611424610192565b5061142d6101ba565b5060443567ffffffffffffffff81116101b55761144e9036906004016113bc565b505060643567ffffffffffffffff81116101b5576114709036906004016113bc565b505060843567ffffffffffffffff81116101b557611492903690600401610221565b50506040517fbc197c81000000000000000000000000000000000000000000000000000000008152602090f35b346101b55760a07ffffffffffffffffffffffffffffffffffffffffffffffffffffffffffffffffc3601126101b5576114f6610192565b506114ff6101ba565b5060843567ffffffffffffffff81116101b557611520903690600401610221565b505060206040517ff23a6e61000000000000000000000000000000000000000000000000000000008152f35b346101b55760607ffffffffffffffffffffffffffffffffffffffffffffffffffffffffffffffffc3601126101b5576004356115866101ba565b604435916bffffffffffffffffffffffff83168093036101b55730330361035a578273ffffffffffffffffffffffffffffffffffffffff836116117febf265acfac1c01de588ed7ef49743b9c3ce8d6d1edeaf510a1f5453228515b1967fffffffffffffffffffffffffffffffffffffffff000000000000000000000000606097881b161785612ccd565b6040519384521660208301526040820152a1005b7f4e487b7100000000000000000000000000000000000000000000000000000000600052601160045260246000fd5b906001820180921161166257565b611625565b9190820180921161166257565b9061167e82610471565b61168b60405191826103f4565b8281527fffffffffffffffffffffffffffffffffffffffffffffffffffffffffffffffe06116b98294610471565b0190602036910137565b7f4e487b7100000000000000000000000000000000000000000000000000000000600052603260045260246000fd5b80518210156117065760209160051b010190565b6116c3565b919082519283825260005b8481106117555750507fffffffffffffffffffffffffffffffffffffffffffffffffffffffffffffffe0601f8460006020809697860101520116010190565b80602080928401015182828601015201611716565b9080602083519182815201916020808360051b8301019401926000915b83831061179657505050505090565b9091929394602080827fffffffffffffffffffffffffffffffffffffffffffffffffffffffffffffffe0856001950301865288519073ffffffffffffffffffffffffffffffffffffffff8251168152828201518382015260c080611809604085015160e0604086015260e085019061170b565b936060810151606085015260808101511515608085015260a0810151151560a0850152015191015297019301930191939290611787565b906020808351928381520192019060005b81811061185e5750505090565b825173ffffffffffffffffffffffffffffffffffffffff16845260209384019390920191600101611851565b805160ff168252610515916020828101511515908201526101006118e86118c26040850151610120604086015261012085019061176a565b606085015160608501526080850151608085015260a085015184820360a086015261170b565b9260c081015160c084015260e081015160e0840152015190610100818403910152611840565b601f82602094937fffffffffffffffffffffffffffffffffffffffffffffffffffffffffffffffe0938186528686013760008582860101520116010190565b91611964610515949260408552604085019061188a565b92602081850391015261190e565b9061198f9291611980611f43565b906003825260e0820152611d8e565b50156119b9577f1626ba7e0000000000000000000000000000000000000000000000000000000090565b600090565b6040513d6000823e3d90fd5b9035907fffffffffffffffffffffffffffffffffffffffffffffffffffffffffffffffe1813603018212156101b5570180359067ffffffffffffffff82116101b5576020019181360383136101b557565b909173ffffffffffffffffffffffffffffffffffffffff7f0000000000000000000000000000000000000000000000000000000000000000169081156111585781330361112a5780611acf575b5050611abf7f1626ba7e00000000000000000000000000000000000000000000000000000000926109d4836101007fffffffff000000000000000000000000000000000000000000000000000000009501906119ca565b1603611aca57600090565b600190565b813b156101b5576040517fb760faf900000000000000000000000000000000000000000000000000000000815230600482015291600091839160249183915af1928315611125576109d47fffffffff0000000000000000000000000000000000000000000000000000000093611abf937f1626ba7e0000000000000000000000000000000000000000000000000000000096611b70575b5093505092611a68565b806111196000611b7f936103f4565b38611b66565b91939290611b94905a936120d3565b9160608301516080840151611ba8826127e4565b818103611c4757509060017f1f180c27086c7a39ea2a7b25239d1ab92348f07ca7bb59d1438fcf527568f881920190611be18282612d12565b604080519182526020820192909252a1611bfc828685611d8e565b929015611c0f575061044493945061242c565b836108eb87926040519384937fa2b6d61b0000000000000000000000000000000000000000000000000000000085526004850161194d565b917f9b6514f40000000000000000000000000000000000000000000000000000000060005260045260245260445260646000fd5b91602061051593818152019161190e565b3d15611cb7573d90611c9d82610489565b91611cab60405193846103f4565b82523d6000602084013e565b606090565b600436108015611cc95750565b611cff906000357fffffffff00000000000000000000000000000000000000000000000000000000811691611d51575b50611f9e565b73ffffffffffffffffffffffffffffffffffffffff8116611d1d5750565b60008091604051368382378036810184815203915af4611d3b611c8c565b9015611d4957602081519101f35b602081519101fd5b7fffffffff000000000000000000000000000000000000000000000000000000008092503660040360031b1b161638611cf9565b90156117065790565b611dc1611d9b8484611d85565b357fff000000000000000000000000000000000000000000000000000000000000001690565b7f800000000000000000000000000000000000000000000000000000000000000080821614611e445750611df992600092839261292b565b905091909192808210611e14575050611e1190613b43565b91565b7ffd41fcba0000000000000000000000000000000000000000000000000000000060005260045260245260446000fd5b7f0200000000000000000000000000000000000000000000000000000000000000908116146020820152611e7a92509050612750565b90611e848261282a565b42811115611f11575073ffffffffffffffffffffffffffffffffffffffff81168015159081611f06575b50611eba575060019190565b7f8945c3130000000000000000000000000000000000000000000000000000000060005260048390523360245273ffffffffffffffffffffffffffffffffffffffff1660445260646000fd5b905033141538611eae565b7ff95b6ab700000000000000000000000000000000000000000000000000000000600052600484905260245260446000fd5b60405190610120820182811067ffffffffffffffff8211176103d3576040526060610100836000815260006020820152826040820152600083820152600060808201528260a0820152600060c0820152600060e08201520152565b73ffffffffffffffffffffffffffffffffffffffff906040517fffffffff0000000000000000000000000000000000000000000000000000000060208201927fbe27a319efc8734e89e26ba4bc95f5c788584163b959f03fa04e2d7ab4b9a1208452166040820152604081526120156060826103f4565b519020541690565b9061202782610471565b61203460405191826103f4565b8281527fffffffffffffffffffffffffffffffffffffffffffffffffffffffffffffffe06120628294610471565b019060005b82811061207357505050565b602090604051612082816103b7565b60008152600083820152606060408201526000606082015260006080820152600060a0820152600060c082015282828501015201612067565b909392938483116101b55784116101b5578101920390565b9190916120de611f43565b6000815292600190823560f81c827fffffffffffffffffffffffffffffffffffffffffffffffffffffffffffffffff818316016123805750600060608701525b600761212d60ff831660011c90565b168061232f575b506010818116036122fa57506001925b61214d8461201d565b92604087019384526000905b85821061216857505050505050565b8281013560f81c906001019091816001808516036122d857506121ac306121908389516116f2565b519073ffffffffffffffffffffffffffffffffffffffff169052565b6002808416146122b8575b60048084161461226a575b600880841614612237575b61222061221a60c0856121f98a60806121f08860108060019c9d161493516116f2565b51019015159052565b6122108a60a06121f08860208087161493516116f2565b1660061c60031690565b60ff1690565b60c061222d8389516116f2565b5101520190612159565b6001916122209061221a9060c09087810135906020019690606061225c878d516116f2565b5101529594505050506121cd565b906122b2908481013560e81c906003016122ab61229261228a8484611667565b838a8a6120bb565b919060406122a1888d516116f2565b51019236916104c3565b9052611667565b906121c2565b908381013590602001919060206122d08389516116f2565b5101526121b7565b6122f592508481013560601c9060140192906121908389516116f2565b6121ac565b60209081160361231c5761ffff918381013560f01c906002015b921692612144565b60ff918381013560f81c90600101612314565b612373919385929190928160031b7fffffffffffffffffffffffffffffffffffffffffffffffffffffffffffffffff6001821b019185013590610100031c16920190565b9290608087015238612134565b80850135606090811c90880152601401925061211e565b6123af6040929594939560608352606083019061188a565b9460208201520152565b9261051596959260c09592855260208501526040840152606083015260808201528160a0820152019061170b565b610515939260609282526020820152816040820152019061170b565b612419610515949260608352606083019061188a565b926020820152604081840391015261170b565b916000604082019384515190825b82811061244b575b50505050505050565b6124568188516116f2565b519361246560a0860151151590565b80612748575b6127085750600093606081015180158015806126ff575b6126c75784906124956080850151151590565b1561268157612540926124bc855173ffffffffffffffffffffffffffffffffffffffff1690565b911561267b57505a905b61253b8b61250f60608d01516040890151908c8b604051998a967f4c4e814c000000000000000000000000000000000000000000000000000000006020890152602488016123b9565b037fffffffffffffffffffffffffffffffffffffffffffffffffffffffffffffffe081018552846103f4565b612ca0565b15612583575b506040805187815260208101839052600192917f5a589b1d8062f33451d29cae3dabd9b2e36c62aee644178c600977ca8dda661a91a15b0161243a565b60c0018051156126325760018151146125f357516002146125a45738612546565b9493505050507fc2c704302430fe0dc8d95f272e2f4e54bbbc51a3327fd5d75ab41f9fc8fd129b92506125e46125d8612cb2565b604051938493846123e7565b0390a138808080808080612442565b50846108eb612600612cb2565b6040519384937f7f6b0bb100000000000000000000000000000000000000000000000000000000855260048501612403565b509250600180937f115f347c00e69f252cd6b63c4f81022a9564c6befe8aa719cb74640a4a306f0d612673612665612cb2565b604051918291858c846123e7565b0390a161257d565b906124c6565b83516126bc93925073ffffffffffffffffffffffffffffffffffffffff16916020850151916000146126c157505a905b604085015192612c8e565b612540565b906126b1565b83886108eb5a6040519384937f2139527400000000000000000000000000000000000000000000000000000000855260048501612397565b50815a10612482565b6040805188815260208101849052919550600192917f9ae934bf8a986157c889a24c3b3fa85e74b7e4ee4b1f8fc6e7362cb4c1d19d8b9181908101612673565b50801561246b565b6127b26127de61277061276a602085015115153090612d90565b93612e8b565b60405192839160208301958690916042927f19010000000000000000000000000000000000000000000000000000000000008352600283015260228201520190565b037fffffffffffffffffffffffffffffffffffffffffffffffffffffffffffffffe081018352826103f4565b51902090565b60405160208101917f8d0bf1fd623d628c741362c1289948e57b3e2905218c676d3e69abee36d6ae2e83526040820152604081526128236060826103f4565b5190205490565b60405160208101917fc852adf5e97c2fc3b38f405671e91b7af1697ef0287577f227ef10494c2a8e8683526040820152604081526128696060826103f4565b51902054906bffffffffffffffffffffffff8260601c921690565b60405190612891826103d8565b60006020838281520152565b600311156128a757565b7f4e487b7100000000000000000000000000000000000000000000000000000000600052602160045260246000fd5b908160409103126101b5576020604051916128f0836103d8565b805183520151602082015290565b60409073ffffffffffffffffffffffffffffffffffffffff6105159493168152816020820152019061170b565b909491939291853560f81c600190938190612944612884565b9261294e8261289d565b60018203612b58575b50600180871614612af7575060028581161460208501526007600286901c1688820135600382901b6101008190039190911c600190911b7fffffffffffffffffffffffffffffffffffffffffffffffffffffffffffffffff011691019080969181966020166129c69060051c90565b6129cf90611654565b8a820135600382901b6101008190039190911c600190911b7fffffffffffffffffffffffffffffffffffffffffffffffffffffffffffffffff01169101959098899a81612a1b84612750565b988993612a27936120bb565b91612a31936132cd565b9098612a4591600052602052604060002090565b90612a5891600052602052604060002090565b9073ffffffffffffffffffffffffffffffffffffffff16612a8191600052602052604060002090565b94815190868215159283612aec575b505081612add575b50612aa05750565b6040517fccbb534f000000000000000000000000000000000000000000000000000000008152815160048201526020909101516024820152604490fd5b90506020820151101538612a98565b141591508638612a90565b909691939450612b098198939861289d565b612b2e57612b239581612b1b936120bb565b939092613080565b919394909293929190565b7ffdf132ad0000000000000000000000000000000000000000000000000000000060005260046000fd5b600097507fffffffffffffffffffffffffffffffffffffffffffffffffffffffffffffffc06040881601612957578981013560601c9750601401915087878a84612ba18561289d565b60028503612bb2575b505050612957565b60038101965093945073ffffffffffffffffffffffffffffffffffffffff9381013560e81c92604092612c37929091612c0291612bfb918a90612bf58983611667565b926120bb565b36916104c3565b83519586809481937fccce3bc800000000000000000000000000000000000000000000000000000000835230600484016128fe565b0392165afa801561112557612c5592600091612c5f575b5093611667565b9087388a81612baa565b612c81915060403d604011612c87575b612c7981836103f4565b8101906128d6565b38612c4e565b503d612c6f565b9160009391849360208451940192f190565b9160009291839260208351930191f490565b3d90604051916020818401016040528083526000602084013e565b60405160208101917fc852adf5e97c2fc3b38f405671e91b7af1697ef0287577f227ef10494c2a8e868352604082015260408152612d0c6060826103f4565b51902055565b60405160208101917f8d0bf1fd623d628c741362c1289948e57b3e2905218c676d3e69abee36d6ae2e8352604082015260408152612d0c6060826103f4565b60405160208101917fbe27a319efc8734e89e26ba4bc95f5c788584163b959f03fa04e2d7ab4b9a1208352604082015260408152612d0c6060826103f4565b15612e40576000905b73ffffffffffffffffffffffffffffffffffffffff6040519160208301937f8b73c3c69bb8fe3d512ecc4cf759cc79239f7b179b0ffacaa9a75d522b39400f85527f4aa45ca7ad825ceb1bf35643f0a58c295239df563b1b565c2485f96477c5631860408501527f2a80e1ef1d7842f27f2e6be0972bb708b9a135c38860dbe73c27c3486c34f4de606085015260808401521660a082015260a081526127de60c0826103f4565b4690612d99565b805160209091019060005b818110612e5f5750505090565b825173ffffffffffffffffffffffffffffffffffffffff16845260209384019390920191600101612e52565b610100810151604051612ea6816127b2602082018095612e47565b51902090612eb5815160ff1690565b60ff811680612f2e575050906127de612ed16040840151613ba6565b926127b260806060830151920151936040519485936020850197889094939260809260a08301967f11e1e4079a79a66e4ade50033cfe2678cdd5341d2dfe5ef9513edb1a0be147a284526020840152604083015260608201520152565b60018103612f8c57505060a001518051602091820120604080517fe19a3b94fc3c7ece3f890d98a99bc422615537a08dea0603fa8425867d87d466938101938452908101919091526060810192909252906127de81608081016127b2565b60028103612fe257505060c00151604080517f11fdeb7e8373a1aa96bfac8d0ea91526b2c5d15e5cee20e0543e780258f3e8e4602082019081529181019290925260608201929092526127de81608081016127b2565b600303613036575060e00151604080517fe19a3b94fc3c7ece3f890d98a99bc422615537a08dea0603fa8425867d87d466602082019081529181019290925260608201929092526127de81608081016127b2565b7f048183200000000000000000000000000000000000000000000000000000000060005260ff1660045260246000fd5b906123af906040939695949660608452606084019161190e565b919492909260009560009560009560009560009561309c611f43565b60028152937fffffffffffffffffffffffffffffffffffffffffffffffffffffffffffffffff9460005b8281106130f3575050505050505080511515806130e5575b612aa05750565b5060208101518411156130de565b600381019d50959b5093995091975092909190613117908b9085013560e81c611667565b95828703613257578a6001915b7fffffffffffffffffffffffffffffffffffffffffffffffffffffffffffffffff8c0361322857506131649161315d898c9387896120bb565b908b61292b565b9c939c9b929b9a919a99909a9b9d8e9d9e8f905b106131e25750928b8851146131d9575b808b10156131a757508a60c085015289929592959491949390936130c6565b7f37daf62b0000000000000000000000000000000000000000000000000000000060005260048b905260245260446000fd5b60008852613188565b8d8f6108eb6131f385858c8e6120bb565b9390926040519485947fb006aba000000000000000000000000000000000000000000000000000000000865260048601613066565b979899809b9261323d8b61324494888a6120bb565b908661292b565b50929d919c909b929a9092918e8e613178565b8a600291613124565b908160209103126101b5575161051581610a8f565b60409061051594928152816020820152019161190e565b73ffffffffffffffffffffffffffffffffffffffff61051595936060938352166020820152816040820152019161190e565b908160209103126101b5575190565b9391909360009460009460005b8181106132e8575050505050565b8481013560f881901c9860019092019788979692909160fc1c988915613adc575060018914613a9c57600289146138cf57600389146138a0576004891461381f576006891461377f5760058914613731576007891461366a576008891461361457600989146134eb57600a8914613388577fb2505f7c00000000000000000000000000000000000000000000000000000000600052600489905260246000fd5b909192939495969750600389169788156134da575b8381013560601c90601401909960021c60031660ff1684820135600382901b6101008190039190911c600190911b7fffffffffffffffffffffffffffffffffffffffffffffffffffffffffffffffff0116910190810190816134009187876120bb565b6040517f898bd92100000000000000000000000000000000000000000000000000000000815293918491613438918a60048501613275565b038373ffffffffffffffffffffffffffffffffffffffff8d1691815a93602094fa9182156111255761347b936000936134a7575b5060ff909a168091019a613e72565b9080156134a1579061349591600052602052604060002090565b955b93929190936132da565b50613495565b60ff9193506134cc9060203d81116134d3575b6134c481836103f4565b8101906132be565b929061346c565b503d6134ba565b8084013560f81c985060010161339d565b90919293949596975060038916978815613603575b8381013560601c90601401909960021c60031660ff1684820135600382901b6101008190039190911c600190911b7fffffffffffffffffffffffffffffffffffffffffffffffffffffffffffffffff0116910190810190816135639187876120bb565b6040517f13792a4a0000000000000000000000000000000000000000000000000000000081529391849161359b918b6004850161194d565b038373ffffffffffffffffffffffffffffffffffffffff8d1691815a93602094fa918215611125576135dd936000936134a7575060ff909a168091019a613e72565b9080156135fd57906135f791600052602052604060002090565b95613497565b506135f7565b8084013560f81c9850600101613500565b98506020870197509495939492939192909182013561363286613e19565b8114613642575b6135dd90613e33565b7fffffffffffffffffffffffffffffffffffffffffffffffffffffffffffffffff9850613639565b975090919293949597600f1696871561371f575b602060006136906136fd9a9b86613ce1565b9c9092918a6040516136d3816127b28a82019485603c917f19457468657265756d205369676e6564204d6573736167653a0a3332000000008252601c8201520190565b51902092604051948594859094939260ff6060936080840197845216602083015260408201520152565b838052039060015afa15611125576135dd9060ff6000519a1680910199613d24565b600189019883013560f81c975061367e565b985060208701975094959394929391929091820135808514613757575b6135dd90613dda565b7fffffffffffffffffffffffffffffffffffffffffffffffffffffffffffffffff985061374e565b989091929394959662ffffff98506137a161221a600c8416603f9060021c1690565b91821561380b575b60031680156137fa575b9081906137de906137d6908781013560e81c906003019c168c01809c89896120bb565b90898b6132cd565b9111156137f1575b906135dd9291613d8f565b998201996137e6565b50600281019084013560f01c6137b3565b8482013560f81c92506001909101906137a9565b975097613875613882929394959697600f61388a93169085929190928160031b7fffffffffffffffffffffffffffffffffffffffffffffffffffffffffffffffff6001821b019185013590610100031c16920190565b92908301809386866120bb565b9086886132cd565b906135f792980198600052602052604060002090565b9850965093949293919290919080820135906020019680156135fd57906135f791600052602052604060002090565b90919293949596975060038916978815613a8b575b8084013560601c9961394391601401906139039060021c60031661221a565b9085929190928160031b7fffffffffffffffffffffffffffffffffffffffffffffffffffffffffffffffff6001821b019185013590610100031c16920190565b908101906139a760208c61395985858b8b6120bb565b919073ffffffffffffffffffffffffffffffffffffffff8c604051968795869485937f1626ba7e00000000000000000000000000000000000000000000000000000000855260048501613275565b0392165afa908115611125577f1626ba7e00000000000000000000000000000000000000000000000000000000917fffffffff0000000000000000000000000000000000000000000000000000000091600091613a5d575b501603613a1957509060ff6135dd92991680910199613d24565b6108eb613a2a8c93899389896120bb565b906040519485947fb2fed7ae0000000000000000000000000000000000000000000000000000000086526004860161328c565b613a7e915060203d8111613a84575b613a7681836103f4565b810190613260565b386139ff565b503d613a6c565b8381013560f81c98506001016138e4565b98600f91929394959697985016968715613acb575b60148101976135dd9160ff9091169084013560601c613d24565b8281013560f81c9750600101613ab1565b98509091929394959698600f16978815613b2e575b5060206000613b046136fd9a9b86613ce1565b9c90916040519384938c859094939260ff6060936080840197845216602083015260408201520152565b60018101995083013560f81c97506020613af1565b8015159081613b50575090565b90507fea7157fa25e3aa17d0ae2d5280fa4e24d421c61842aa85e45194e1145aa72bf8541490565b805160209091019060005b818110613b905750505090565b8251845260209384019390920191600101613b83565b9081517fffffffffffffffffffffffffffffffffffffffffffffffffffffffffffffffe0613bec613bd683610471565b92613be460405194856103f4565b808452610471565b0136602083013760005b8351811015613cc85780613c0c600192866116f2565b5173ffffffffffffffffffffffffffffffffffffffff81511690602081015190604081015160208151910120906060810151608082015115159060c060a08401511515930151936040519560208701977f0603985259a953da1f65a522f589c17bd1d0117ec1d3abb7c0788aef251ef437895260408801526060870152608086015260a085015260c084015260e08301526101008201526101008152613cb4610120826103f4565b519020613cc182856116f2565b5201613bf6565b509091506040516127de816127b2602082018095613b78565b8101916040602084359401359201601b7f7fffffffffffffffffffffffffffffffffffffffffffffffffffffffffffffff84169360ff1c0160ff81116116625791565b90604051907fffffffffffffffffffffffffffffffffffffffff00000000000000000000000060208301937f53657175656e6365207369676e65723a0a000000000000000000000000000000855260601b1660318301526045820152604581526127de6065826103f4565b916040519160208301937f53657175656e6365206e657374656420636f6e6669673a0a00000000000000008552603884015260588301526078820152607881526127de6098826103f4565b60405160208101917f53657175656e636520737461746963206469676573743a0a000000000000000083526038820152603881526127de6058826103f4565b6127b26127de61277061276a600060208601511515612d90565b60405160208101917f53657175656e636520616e792061646472657373207375626469676573743a0a83526040820152604081526127de6060826103f4565b91604051917fffffffffffffffffffffffffffffffffffffffff00000000000000000000000060208401947f53657175656e63652073617069656e7420636f6e6669673a0a00000000000000865260601b166039840152604d830152606d820152606d81526127de608d826103f456fea2646970667358221220ad0ba2d4061b1c3f93af8262f3af5aa16472ad1d678a224a97584a1591bf97d764736f6c634300081c0033","linkReferences":{}},"methodIdentifiers":{"addHook(bytes4,address)":"b93ea7ad","entrypoint()":"a65d69d4","execute(bytes,bytes)":"1f6a1eb9","executeUserOp(bytes)":"9c145aed","getImplementation()":"aaf10f42","getStaticSignature(bytes32)":"92dcb3fc","imageHash()":"51605d80","isValidSignature(bytes32,bytes)":"1626ba7e","onERC1155BatchReceived(address,address,uint256[],uint256[],bytes)":"bc197c81","onERC1155Received(address,address,uint256,uint256,bytes)":"f23a6e61","onERC721Received(address,address,uint256,bytes)":"150b7a02","readHook(bytes4)":"1a9b2337","readNonce(uint256)":"8c3f5563","recoverPartialSignature((uint8,bool,(address,uint256,bytes,uint256,bool,bool,uint256)[],uint256,uint256,bytes,bytes32,bytes32,address[]),bytes)":"ad55366b","recoverSapientSignature((uint8,bool,(address,uint256,bytes,uint256,bool,bool,uint256)[],uint256,uint256,bytes,bytes32,bytes32,address[]),bytes)":"13792a4a","removeHook(bytes4)":"4fcf3eca","selfExecute(bytes)":"6ea44577","setStaticSignature(bytes32,address,uint96)":"f727ef1c","tokenReceived(address,uint256,bytes)":"8943ec02","tokensReceived(address,address,address,uint256,bytes,bytes)":"0023de29","updateImageHash(bytes32)":"29561426","updateImplementation(address)":"025b22bc","validateUserOp((address,uint256,bytes,bytes,bytes32,uint256,bytes32,bytes,bytes),bytes32,uint256)":"19822f7c"}}}}}