{"src/modules/auth/Stage2Auth.sol":{"Stage2Auth":{"abi":[{"type":"function","name":"getImplementation","inputs":[],"outputs":[{"name":"","type":"address","internalType":"address"}],"stateMutability":"view"},{"type":"function","name":"getStaticSignature","inputs":[{"name":"_hash","type":"bytes32","internalType":"bytes32"}],"outputs":[{"name":"","type":"address","internalType":"address"},{"name":"","type":"uint256","internalType":"uint256"}],"stateMutability":"view"},{"type":"function","name":"imageHash","inputs":[],"outputs":[{"name":"","type":"bytes32","internalType":"bytes32"}],"stateMutability":"view"},{"type":"function","name":"isValidSignature","inputs":[{"name":"_hash","type":"bytes32","internalType":"bytes32"},{"name":"_signature","type":"bytes","internalType":"bytes"}],"outputs":[{"name":"","type":"bytes4","internalType":"bytes4"}],"stateMutability":"view"},{"type":"function","name":"recoverPartialSignature","inputs":[{"name":"_payload","type":"tuple","internalType":"struct Payload.Decoded","components":[{"name":"kind","type":"uint8","internalType":"uint8"},{"name":"noChainId","type":"bool","internalType":"bool"},{"name":"calls","type":"tuple[]","internalType":"struct Payload.Call[]","components":[{"name":"to","type":"address","internalType":"address"},{"name":"value","type":"uint256","internalType":"uint256"},{"name":"data","type":"bytes","internalType":"bytes"},{"name":"gasLimit","type":"uint256","internalType":"uint256"},{"name":"delegateCall","type":"bool","internalType":"bool"},{"name":"onlyFallback","type":"bool","internalType":"bool"},{"name":"behaviorOnError","type":"uint256","internalType":"uint256"}]},{"name":"space","type":"uint256","internalType":"uint256"},{"name":"nonce","type":"uint256","internalType":"uint256"},{"name":"message","type":"bytes","internalType":"bytes"},{"name":"imageHash","type":"bytes32","internalType":"bytes32"},{"name":"digest","type":"bytes32","internalType":"bytes32"},{"name":"parentWallets","type":"address[]","internalType":"address[]"}]},{"name":"_signature","type":"bytes","internalType":"bytes"}],"outputs":[{"name":"threshold","type":"uint256","internalType":"uint256"},{"name":"weight","type":"uint256","internalType":"uint256"},{"name":"isValidImage","type":"bool","internalType":"bool"},{"name":"imageHash","type":"bytes32","internalType":"bytes32"},{"name":"checkpoint","type":"uint256","internalType":"uint256"},{"name":"opHash","type":"bytes32","internalType":"bytes32"}],"stateMutability":"view"},{"type":"function","name":"recoverSapientSignature","inputs":[{"name":"_payload","type":"tuple","internalType":"struct Payload.Decoded","components":[{"name":"kind","type":"uint8","internalType":"uint8"},{"name":"noChainId","type":"bool","internalType":"bool"},{"name":"calls","type":"tuple[]","internalType":"struct Payload.Call[]","components":[{"name":"to","type":"address","internalType":"address"},{"name":"value","type":"uint256","internalType":"uint256"},{"name":"data","type":"bytes","internalType":"bytes"},{"name":"gasLimit","type":"uint256","internalType":"uint256"},{"name":"delegateCall","type":"bool","internalType":"bool"},{"name":"onlyFallback","type":"bool","internalType":"bool"},{"name":"behaviorOnError","type":"uint256","internalType":"uint256"}]},{"name":"space","type":"uint256","internalType":"uint256"},{"name":"nonce","type":"uint256","internalType":"uint256"},{"name":"message","type":"bytes","internalType":"bytes"},{"name":"imageHash","type":"bytes32","internalType":"bytes32"},{"name":"digest","type":"bytes32","internalType":"bytes32"},{"name":"parentWallets","type":"address[]","internalType":"address[]"}]},{"name":"_signature","type":"bytes","internalType":"bytes"}],"outputs":[{"name":"","type":"bytes32","internalType":"bytes32"}],"stateMutability":"view"},{"type":"function","name":"setStaticSignature","inputs":[{"name":"_hash","type":"bytes32","internalType":"bytes32"},{"name":"_address","type":"address","internalType":"address"},{"name":"_timestamp","type":"uint96","internalType":"uint96"}],"outputs":[],"stateMutability":"nonpayable"},{"type":"function","name":"updateImageHash","inputs":[{"name":"_imageHash","type":"bytes32","internalType":"bytes32"}],"outputs":[],"stateMutability":"nonpayable"},{"type":"function","name":"updateImplementation","inputs":[{"name":"_implementation","type":"address","internalType":"address"}],"outputs":[],"stateMutability":"payable"},{"type":"event","name":"ImageHashUpdated","inputs":[{"name":"newImageHash","type":"bytes32","indexed":false,"internalType":"bytes32"}],"anonymous":false},{"type":"event","name":"ImplementationUpdated","inputs":[{"name":"newImplementation","type":"address","indexed":false,"internalType":"address"}],"anonymous":false},{"type":"event","name":"StaticSignatureSet","inputs":[{"name":"_hash","type":"bytes32","indexed":false,"internalType":"bytes32"},{"name":"_address","type":"address","indexed":false,"internalType":"address"},{"name":"_timestamp","type":"uint96","indexed":false,"internalType":"uint96"}],"anonymous":false},{"type":"error","name":"ChainedSignatureNestedInChainedSignature","inputs":[]},{"type":"error","name":"ImageHashIsZero","inputs":[]},{"type":"error","name":"InvalidERC1271Signature","inputs":[{"name":"_opHash","type":"bytes32","internalType":"bytes32"},{"name":"_signer","type":"address","internalType":"address"},{"name":"_signature","type":"bytes","internalType":"bytes"}]},{"type":"error","name":"InvalidKind","inputs":[{"name":"kind","type":"uint8","internalType":"uint8"}]},{"type":"error","name":"InvalidSapientSignature","inputs":[{"name":"_payload","type":"tuple","internalType":"struct Payload.Decoded","components":[{"name":"kind","type":"uint8","internalType":"uint8"},{"name":"noChainId","type":"bool","internalType":"bool"},{"name":"calls","type":"tuple[]","internalType":"struct Payload.Call[]","components":[{"name":"to","type":"address","internalType":"address"},{"name":"value","type":"uint256","internalType":"uint256"},{"name":"data","type":"bytes","internalType":"bytes"},{"name":"gasLimit","type":"uint256","internalType":"uint256"},{"name":"delegateCall","type":"bool","internalType":"bool"},{"name":"onlyFallback","type":"bool","internalType":"bool"},{"name":"behaviorOnError","type":"uint256","internalType":"uint256"}]},{"name":"space","type":"uint256","internalType":"uint256"},{"name":"nonce","type":"uint256","internalType":"uint256"},{"name":"message","type":"bytes","internalType":"bytes"},{"name":"imageHash","type":"bytes32","internalType":"bytes32"},{"name":"digest","type":"bytes32","internalType":"bytes32"},{"name":"parentWallets","type":"address[]","internalType":"address[]"}]},{"name":"_signature","type":"bytes","internalType":"bytes"}]},{"type":"error","name":"InvalidSignatureFlag","inputs":[{"name":"_flag","type":"uint256","internalType":"uint256"}]},{"type":"error","name":"InvalidSignatureWeight","inputs":[{"name":"_threshold","type":"uint256","internalType":"uint256"},{"name":"_weight","type":"uint256","internalType":"uint256"}]},{"type":"error","name":"InvalidStaticSignatureExpired","inputs":[{"name":"_opHash","type":"bytes32","internalType":"bytes32"},{"name":"_expires","type":"uint256","internalType":"uint256"}]},{"type":"error","name":"InvalidStaticSignatureWrongCaller","inputs":[{"name":"_opHash","type":"bytes32","internalType":"bytes32"},{"name":"_caller","type":"address","internalType":"address"},{"name":"_expectedCaller","type":"address","internalType":"address"}]},{"type":"error","name":"LowWeightChainedSignature","inputs":[{"name":"_signature","type":"bytes","internalType":"bytes"},{"name":"_threshold","type":"uint256","internalType":"uint256"},{"name":"_weight","type":"uint256","internalType":"uint256"}]},{"type":"error","name":"OnlySelf","inputs":[{"name":"_sender","type":"address","internalType":"address"}]},{"type":"error","name":"UnusedSnapshot","inputs":[{"name":"_snapshot","type":"tuple","internalType":"struct Snapshot","components":[{"name":"imageHash","type":"bytes32","internalType":"bytes32"},{"name":"checkpoint","type":"uint256","internalType":"uint256"}]}]},{"type":"error","name":"WrongChainedCheckpointOrder","inputs":[{"name":"_nextCheckpoint","type":"uint256","internalType":"uint256"},{"name":"_checkpoint","type":"uint256","internalType":"uint256"}]}],"userdoc":{},"devdoc":{},"evm":{"bytecode":{"object":"608080604052346015576127d1908161001b8239f35b600080fdfe6080604052600436101561001257600080fd5b60003560e01c8063025b22bc146100a757806313792a4a146100a25780631626ba7e1461009d578063295614261461009857806351605d801461009357806392dcb3fc1461008e578063aaf10f4214610089578063ad55366b146100845763f727ef1c1461007f57600080fd5b6109c3565b610977565b610926565b6108c8565b61086d565b6107b4565b61072c565b61062f565b60207ffffffffffffffffffffffffffffffffffffffffffffffffffffffffffffffffc360112610153576100d9610158565b303303610125578073ffffffffffffffffffffffffffffffffffffffff913055166080527f310ba5f1d2ed074b51e2eccd052a47ae9ab7c6b800d1fca3db3999d6a592ca0360206080a1005b7fa19dbf00000000000000000000000000000000000000000000000000000000006000523360045260246000fd5b600080fd5b6004359073ffffffffffffffffffffffffffffffffffffffff8216820361015357565b6024359073ffffffffffffffffffffffffffffffffffffffff8216820361015357565b359073ffffffffffffffffffffffffffffffffffffffff8216820361015357565b7f4e487b7100000000000000000000000000000000000000000000000000000000600052604160045260246000fd5b6040810190811067ffffffffffffffff82111761020a57604052565b6101bf565b90601f7fffffffffffffffffffffffffffffffffffffffffffffffffffffffffffffffe0910116810190811067ffffffffffffffff82111761020a57604052565b6040519061025f60e08361020f565b565b6040519061025f6101208361020f565b359060ff8216820361015357565b3590811515820361015357565b67ffffffffffffffff811161020a5760051b60200190565b92919267ffffffffffffffff821161020a57604051916102ec60207fffffffffffffffffffffffffffffffffffffffffffffffffffffffffffffffe0601f840116018461020f565b829481845281830111610153578281602093846000960137010152565b9080601f8301121561015357816020610324933591016102a4565b90565b81601f820112156101535780359061033e8261028c565b9261034c604051948561020f565b82845260208085019360051b830101918183116101535760208101935b83851061037857505050505090565b843567ffffffffffffffff811161015357820160e07fffffffffffffffffffffffffffffffffffffffffffffffffffffffffffffffe08286030112610153576103bf610250565b916103cc6020830161019e565b83526040820135602084015260608201359267ffffffffffffffff84116101535760e083610401886020809881980101610309565b60408401526080810135606084015261041c60a0820161027f565b608084015261042d60c0820161027f565b60a0840152013560c0820152815201940193610369565b9080601f8301121561015357813561045b8161028c565b92610469604051948561020f565b81845260208085019260051b82010192831161015357602001905b8282106104915750505090565b6020809161049e8461019e565b815201910190610484565b9181601f840112156101535782359167ffffffffffffffff8311610153576020838186019501011161015357565b9060407ffffffffffffffffffffffffffffffffffffffffffffffffffffffffffffffffc8301126101535760043567ffffffffffffffff8111610153576101207ffffffffffffffffffffffffffffffffffffffffffffffffffffffffffffffffc828503011261015357610549610261565b9061055681600401610271565b82526105646024820161027f565b6020830152604481013567ffffffffffffffff81116101535784600461058c92840101610327565b6040830152606481013560608301526084810135608083015260a481013567ffffffffffffffff8111610153578460046105c892840101610309565b60a083015260c481013560c083015260e481013560e083015261010481013567ffffffffffffffff81116101535760048591610605930101610444565b610100820152916024359067ffffffffffffffff82116101535761062b916004016104a9565b9091565b346101535761063d366104d7565b9091610100810192610658610653855151610b33565b610b53565b9160005b855180518210156106bf57906106b961069461067a83600195610bd1565b5173ffffffffffffffffffffffffffffffffffffffff1690565b61069e8388610bd1565b9073ffffffffffffffffffffffffffffffffffffffff169052565b0161065c565b50508383866106d43361069e83515185610bd1565b526106e0818484610ee4565b50156106f25760405160018152602090f35b610728906040519384937ff58cc8b500000000000000000000000000000000000000000000000000000000855260048501610da8565b0390fd5b346101535760407ffffffffffffffffffffffffffffffffffffffffffffffffffffffffffffffffc3601126101535760043560243567ffffffffffffffff81116101535760209161078461078a9236906004016104a9565b91610e8f565b7fffffffff0000000000000000000000000000000000000000000000000000000060405191168152f35b346101535760207ffffffffffffffffffffffffffffffffffffffffffffffffffffffffffffffffc36011261015357600435303303610125578015610843576020817f307ed6bd941ee9fc80f369c94af5fa11e25bab5102a6140191756c5474a30bfa927fea7157fa25e3aa17d0ae2d5280fa4e24d421c61842aa85e45194e1145aa72bf855604051908152a1005b7f4294d1270000000000000000000000000000000000000000000000000000000060005260046000fd5b346101535760007ffffffffffffffffffffffffffffffffffffffffffffffffffffffffffffffffc3601126101535760207fea7157fa25e3aa17d0ae2d5280fa4e24d421c61842aa85e45194e1145aa72bf854604051908152f35b346101535760207ffffffffffffffffffffffffffffffffffffffffffffffffffffffffffffffffc3601126101535760406109046004356110f4565b73ffffffffffffffffffffffffffffffffffffffff8351921682526020820152f35b346101535760007ffffffffffffffffffffffffffffffffffffffffffffffffffffffffffffffffc360112610153576020305473ffffffffffffffffffffffffffffffffffffffff60405191168152f35b346101535760c061099360008061098d366104d7565b91611246565b9261099f8392936115ae565b906040519586526020860152151560408501526060840152608083015260a0820152f35b346101535760607ffffffffffffffffffffffffffffffffffffffffffffffffffffffffffffffffc360112610153576004356109fd61017b565b604435916bffffffffffffffffffffffff831680930361015357303303610125577febf265acfac1c01de588ed7ef49743b9c3ce8d6d1edeaf510a1f5453228515b19273ffffffffffffffffffffffffffffffffffffffff60609360405160208101610ac482610a9888849190602060408401937fc852adf5e97c2fc3b38f405671e91b7af1697ef0287577f227ef10494c2a8e8681520152565b037fffffffffffffffffffffffffffffffffffffffffffffffffffffffffffffffe0810184528361020f565b847fffffffffffffffffffffffffffffffffffffffff00000000000000000000000084891b161791519020556040519384521660208301526040820152a1005b7f4e487b7100000000000000000000000000000000000000000000000000000000600052601160045260246000fd5b9060018201809211610b4157565b610b04565b91908201809211610b4157565b90610b5d8261028c565b610b6a604051918261020f565b8281527fffffffffffffffffffffffffffffffffffffffffffffffffffffffffffffffe0610b98829461028c565b0190602036910137565b7f4e487b7100000000000000000000000000000000000000000000000000000000600052603260045260246000fd5b8051821015610be55760209160051b010190565b610ba2565b919082519283825260005b848110610c345750507fffffffffffffffffffffffffffffffffffffffffffffffffffffffffffffffe0601f8460006020809697860101520116010190565b80602080928401015182828601015201610bf5565b9080602083519182815201916020808360051b8301019401926000915b838310610c7557505050505090565b9091929394602080827fffffffffffffffffffffffffffffffffffffffffffffffffffffffffffffffe0856001950301865288519073ffffffffffffffffffffffffffffffffffffffff8251168152828201518382015260c080610ce8604085015160e0604086015260e0850190610bea565b936060810151606085015260808101511515608085015260a0810151151560a0850152015191015297019301930191939290610c66565b906020808351928381520192019060005b818110610d3d5750505090565b825173ffffffffffffffffffffffffffffffffffffffff16845260209384019390920191600101610d30565b601f82602094937fffffffffffffffffffffffffffffffffffffffffffffffffffffffffffffffe0938186528686013760008582860101520116010190565b91610e81610324949260408552610dc560408601825160ff169052565b602081015115156060860152610100610e3a610df2604084015161012060808a0152610160890190610c49565b606084015160a0890152608084015160c089015260a08401517fffffffffffffffffffffffffffffffffffffffffffffffffffffffffffffffc08983030160e08a0152610bea565b9160c08101518288015260e081015161012088015201517fffffffffffffffffffffffffffffffffffffffffffffffffffffffffffffffc086830301610140870152610d1f565b926020818503910152610d69565b90610eac9291610e9d611099565b906003825260e0820152610ee4565b5015610ed6577f1626ba7e0000000000000000000000000000000000000000000000000000000090565b600090565b9015610be55790565b610f17610ef18484610edb565b357fff000000000000000000000000000000000000000000000000000000000000001690565b7f800000000000000000000000000000000000000000000000000000000000000080821614610f9a5750610f4f926000928392611246565b905091909192808210610f6a575050610f67906115ae565b91565b7ffd41fcba0000000000000000000000000000000000000000000000000000000060005260045260245260446000fd5b7f0200000000000000000000000000000000000000000000000000000000000000908116146020820152610fd0925090506115e3565b90610fda826110f4565b42811115611067575073ffffffffffffffffffffffffffffffffffffffff8116801515908161105c575b50611010575060019190565b7f8945c3130000000000000000000000000000000000000000000000000000000060005260048390523360245273ffffffffffffffffffffffffffffffffffffffff1660445260646000fd5b905033141538611004565b7ff95b6ab700000000000000000000000000000000000000000000000000000000600052600484905260245260446000fd5b60405190610120820182811067ffffffffffffffff82111761020a576040526060610100836000815260006020820152826040820152600083820152600060808201528260a0820152600060c0820152600060e08201520152565b604051611160816111346020820194859190602060408401937fc852adf5e97c2fc3b38f405671e91b7af1697ef0287577f227ef10494c2a8e8681520152565b037fffffffffffffffffffffffffffffffffffffffffffffffffffffffffffffffe0810183528261020f565b51902054906bffffffffffffffffffffffff8260601c921690565b60405190611188826101ee565b60006020838281520152565b6003111561119e57565b7f4e487b7100000000000000000000000000000000000000000000000000000000600052602160045260246000fd5b90939293848311610153578411610153578101920390565b90816040910312610153576020604051916111ff836101ee565b805183520151602082015290565b60409073ffffffffffffffffffffffffffffffffffffffff61032494931681528160208201520190610bea565b6040513d6000823e3d90fd5b909491939291853560f81c60019093819061125f61117b565b9261126982611194565b60018203611473575b50600180871614611412575060028581161460208501526007600286901c1688820135600382901b6101008190039190911c600190911b7fffffffffffffffffffffffffffffffffffffffffffffffffffffffffffffffff011691019080969181966020166112e19060051c90565b6112ea90610b33565b8a820135600382901b6101008190039190911c600190911b7fffffffffffffffffffffffffffffffffffffffffffffffffffffffffffffffff01169101959098899a81611336846115e3565b988993611342936111cd565b9161134c936118df565b909861136091600052602052604060002090565b9061137391600052602052604060002090565b9073ffffffffffffffffffffffffffffffffffffffff1661139c91600052602052604060002090565b94815190868215159283611407575b5050816113f8575b506113bb5750565b6040517fccbb534f000000000000000000000000000000000000000000000000000000008152815160048201526020909101516024820152604490fd5b905060208201511015386113b3565b1415915086386113ab565b90969193945061142481989398611194565b6114495761143e9581611436936111cd565b93909261166f565b919394909293929190565b7ffdf132ad0000000000000000000000000000000000000000000000000000000060005260046000fd5b600097507fffffffffffffffffffffffffffffffffffffffffffffffffffffffffffffffc06040881601611272578981013560601c9750601401915087878a846114bc85611194565b600285036114cd575b505050611272565b60038101965093945073ffffffffffffffffffffffffffffffffffffffff9381013560e81c9260409261155292909161151d91611516918a906115108983610b46565b926111cd565b36916102a4565b83519586809481937fccce3bc8000000000000000000000000000000000000000000000000000000008352306004840161120d565b0392165afa80156115a9576115709260009161157a575b5093610b46565b9087388a816114c5565b61159c915060403d6040116115a2575b611594818361020f565b8101906111e5565b38611569565b503d61158a565b61123a565b80151590816115bb575090565b90507fea7157fa25e3aa17d0ae2d5280fa4e24d421c61842aa85e45194e1145aa72bf8541490565b6111346116456116036115fd60208501511515309061215b565b93612256565b60405192839160208301958690916042927f19010000000000000000000000000000000000000000000000000000000000008352600283015260228201520190565b51902090565b906116659060409396959496606084526060840191610d69565b9460208201520152565b919492909260009560009560009560009560009561168b611099565b60028152937fffffffffffffffffffffffffffffffffffffffffffffffffffffffffffffffff9460005b8281106116e2575050505050505080511515806116d4575b6113bb5750565b5060208101518411156116cd565b600381019d50959b5093995091975092909190611706908b9085013560e81c610b46565b95828703611846578a6001915b7fffffffffffffffffffffffffffffffffffffffffffffffffffffffffffffffff8c0361181757506117539161174c898c9387896111cd565b908b611246565b9c939c9b929b9a919a99909a9b9d8e9d9e8f905b106117d15750928b8851146117c8575b808b101561179657508a60c085015289929592959491949390936116b5565b7f37daf62b0000000000000000000000000000000000000000000000000000000060005260048b905260245260446000fd5b60008852611777565b8d8f6107286117e285858c8e6111cd565b9390926040519485947fb006aba00000000000000000000000000000000000000000000000000000000086526004860161164b565b979899809b9261182c8b61183394888a6111cd565b9086611246565b50929d919c909b929a9092918e8e611767565b8a600291611713565b9081602091031261015357517fffffffff00000000000000000000000000000000000000000000000000000000811681036101535790565b604090610324949281528160208201520191610d69565b73ffffffffffffffffffffffffffffffffffffffff610324959360609383521660208201528160408201520191610d69565b90816020910312610153575190565b9391909360009460009460005b8181106118fa575050505050565b8481013560f881901c9860019092019788979692909160fc1c9889156120f45750600189146120b45760028914611ee75760038914611eb85760048914611e375760068914611d915760058914611d435760078914611c7c5760088914611c265760098914611afd57600a891461199a577fb2505f7c00000000000000000000000000000000000000000000000000000000600052600489905260246000fd5b90919293949596975060038916978815611aec575b8381013560601c90601401909960021c60031660ff1684820135600382901b6101008190039190911c600190911b7fffffffffffffffffffffffffffffffffffffffffffffffffffffffffffffffff011691019081019081611a129187876111cd565b6040517f898bd92100000000000000000000000000000000000000000000000000000000815293918491611a4a918a60048501611887565b038373ffffffffffffffffffffffffffffffffffffffff8d1691815a93602094fa9182156115a957611a8d93600093611ab9575b5060ff909a168091019a6125c2565b908015611ab35790611aa791600052602052604060002090565b955b93929190936118ec565b50611aa7565b60ff919350611ade9060203d8111611ae5575b611ad6818361020f565b8101906118d0565b9290611a7e565b503d611acc565b8084013560f81c98506001016119af565b90919293949596975060038916978815611c15575b8381013560601c90601401909960021c60031660ff1684820135600382901b6101008190039190911c600190911b7fffffffffffffffffffffffffffffffffffffffffffffffffffffffffffffffff011691019081019081611b759187876111cd565b6040517f13792a4a00000000000000000000000000000000000000000000000000000000815293918491611bad918b60048501610da8565b038373ffffffffffffffffffffffffffffffffffffffff8d1691815a93602094fa9182156115a957611bef93600093611ab9575060ff909a168091019a6125c2565b908015611c0f5790611c0991600052602052604060002090565b95611aa9565b50611c09565b8084013560f81c9850600101611b12565b985060208701975094959394929391929091820135611c4486612569565b8114611c54575b611bef90612583565b7fffffffffffffffffffffffffffffffffffffffffffffffffffffffffffffffff9850611c4b565b975090919293949597600f16968715611d31575b60206000611ca2611d0f9a9b86612431565b9c9092918a604051611ce5816111348a82019485603c917f19457468657265756d205369676e6564204d6573736167653a0a3332000000008252601c8201520190565b51902092604051948594859094939260ff6060936080840197845216602083015260408201520152565b838052039060015afa156115a957611bef9060ff6000519a1680910199612474565b600189019883013560f81c9750611c90565b985060208701975094959394929391929091820135808514611d69575b611bef9061252a565b7fffffffffffffffffffffffffffffffffffffffffffffffffffffffffffffffff9850611d60565b989091929394959662ffffff9850611db9611db3600c8416603f9060021c1690565b60ff1690565b918215611e23575b6003168015611e12575b908190611df690611dee908781013560e81c906003019c168c01809c89896111cd565b90898b6118df565b911115611e09575b90611bef92916124df565b99820199611dfe565b50600281019084013560f01c611dcb565b8482013560f81c9250600190910190611dc1565b975097611e8d611e9a929394959697600f611ea293169085929190928160031b7fffffffffffffffffffffffffffffffffffffffffffffffffffffffffffffffff6001821b019185013590610100031c16920190565b92908301809386866111cd565b9086886118df565b90611c0992980198600052602052604060002090565b985096509394929391929091908082013590602001968015611c0f5790611c0991600052602052604060002090565b909192939495969750600389169788156120a3575b8084013560601c99611f5b9160140190611f1b9060021c600316611db3565b9085929190928160031b7fffffffffffffffffffffffffffffffffffffffffffffffffffffffffffffffff6001821b019185013590610100031c16920190565b90810190611fbf60208c611f7185858b8b6111cd565b919073ffffffffffffffffffffffffffffffffffffffff8c604051968795869485937f1626ba7e00000000000000000000000000000000000000000000000000000000855260048501611887565b0392165afa9081156115a9577f1626ba7e00000000000000000000000000000000000000000000000000000000917fffffffff0000000000000000000000000000000000000000000000000000000091600091612075575b50160361203157509060ff611bef92991680910199612474565b6107286120428c93899389896111cd565b906040519485947fb2fed7ae0000000000000000000000000000000000000000000000000000000086526004860161189e565b612096915060203d811161209c575b61208e818361020f565b81019061184f565b38612017565b503d612084565b8381013560f81c9850600101611efc565b98600f919293949596979850169687156120e3575b6014810197611bef9160ff9091169084013560601c612474565b8281013560f81c97506001016120c9565b98509091929394959698600f16978815612146575b506020600061211c611d0f9a9b86612431565b9c90916040519384938c859094939260ff6060936080840197845216602083015260408201520152565b60018101995083013560f81c97506020612109565b1561220b576000905b73ffffffffffffffffffffffffffffffffffffffff6040519160208301937f8b73c3c69bb8fe3d512ecc4cf759cc79239f7b179b0ffacaa9a75d522b39400f85527f4aa45ca7ad825ceb1bf35643f0a58c295239df563b1b565c2485f96477c5631860408501527f2a80e1ef1d7842f27f2e6be0972bb708b9a135c38860dbe73c27c3486c34f4de606085015260808401521660a082015260a0815261164560c08261020f565b4690612164565b805160209091019060005b81811061222a5750505090565b825173ffffffffffffffffffffffffffffffffffffffff1684526020938401939092019160010161221d565b61010081015160405161227181611134602082018095612212565b51902090612280815160ff1690565b60ff8116806122f95750509061164561229c6040840151612660565b9261113460806060830151920151936040519485936020850197889094939260809260a08301967f11e1e4079a79a66e4ade50033cfe2678cdd5341d2dfe5ef9513edb1a0be147a284526020840152604083015260608201520152565b6001810361235757505060a001518051602091820120604080517fe19a3b94fc3c7ece3f890d98a99bc422615537a08dea0603fa8425867d87d466938101938452908101919091526060810192909252906116458160808101611134565b600281036123ad57505060c00151604080517f11fdeb7e8373a1aa96bfac8d0ea91526b2c5d15e5cee20e0543e780258f3e8e4602082019081529181019290925260608201929092526116458160808101611134565b600303612401575060e00151604080517fe19a3b94fc3c7ece3f890d98a99bc422615537a08dea0603fa8425867d87d466602082019081529181019290925260608201929092526116458160808101611134565b7f048183200000000000000000000000000000000000000000000000000000000060005260ff1660045260246000fd5b8101916040602084359401359201601b7f7fffffffffffffffffffffffffffffffffffffffffffffffffffffffffffffff84169360ff1c0160ff8111610b415791565b90604051907fffffffffffffffffffffffffffffffffffffffff00000000000000000000000060208301937f53657175656e6365207369676e65723a0a000000000000000000000000000000855260601b16603183015260458201526045815261164560658261020f565b916040519160208301937f53657175656e6365206e657374656420636f6e6669673a0a000000000000000085526038840152605883015260788201526078815261164560988261020f565b60405160208101917f53657175656e636520737461746963206469676573743a0a0000000000000000835260388201526038815261164560588261020f565b6111346116456116036115fd60006020860151151561215b565b60405160208101917f53657175656e636520616e792061646472657373207375626469676573743a0a835260408201526040815261164560608261020f565b91604051917fffffffffffffffffffffffffffffffffffffffff00000000000000000000000060208401947f53657175656e63652073617069656e7420636f6e6669673a0a00000000000000865260601b166039840152604d830152606d820152606d8152611645608d8261020f565b805160209091019060005b81811061264a5750505090565b825184526020938401939092019160010161263d565b9081517fffffffffffffffffffffffffffffffffffffffffffffffffffffffffffffffe06126a66126908361028c565b9261269e604051948561020f565b80845261028c565b0136602083013760005b835181101561278257806126c660019286610bd1565b5173ffffffffffffffffffffffffffffffffffffffff81511690602081015190604081015160208151910120906060810151608082015115159060c060a08401511515930151936040519560208701977f0603985259a953da1f65a522f589c17bd1d0117ec1d3abb7c0788aef251ef437895260408801526060870152608086015260a085015260c084015260e0830152610100820152610100815261276e6101208261020f565b51902061277b8285610bd1565b52016126b0565b509091506040516116458161113460208201809561263256fea26469706673582212202087a7289d8df5019a987577085ecdbf8d186453e160bc4c5e9f2e6963092a8164736f6c634300081c0033","linkReferences":{}},"methodIdentifiers":{"getImplementation()":"aaf10f42","getStaticSignature(bytes32)":"92dcb3fc","imageHash()":"51605d80","isValidSignature(bytes32,bytes)":"1626ba7e","recoverPartialSignature((uint8,bool,(address,uint256,bytes,uint256,bool,bool,uint256)[],uint256,uint256,bytes,bytes32,bytes32,address[]),bytes)":"ad55366b","recoverSapientSignature((uint8,bool,(address,uint256,bytes,uint256,bool,bool,uint256)[],uint256,uint256,bytes,bytes32,bytes32,address[]),bytes)":"13792a4a","setStaticSignature(bytes32,address,uint96)":"f727ef1c","updateImageHash(bytes32)":"29561426","updateImplementation(address)":"025b22bc"}}}}}