{"src/modules/Payload.sol":{"Payload":{"abi":[{"type":"function","name":"BEHAVIOR_ABORT_ON_ERROR","inputs":[],"outputs":[{"name":"","type":"uint8","internalType":"uint8"}],"stateMutability":"view"},{"type":"function","name":"BEHAVIOR_IGNORE_ERROR","inputs":[],"outputs":[{"name":"","type":"uint8","internalType":"uint8"}],"stateMutability":"view"},{"type":"function","name":"BEHAVIOR_REVERT_ON_ERROR","inputs":[],"outputs":[{"name":"","type":"uint8","internalType":"uint8"}],"stateMutability":"view"},{"type":"function","name":"KIND_CONFIG_UPDATE","inputs":[],"outputs":[{"name":"","type":"uint8","internalType":"uint8"}],"stateMutability":"view"},{"type":"function","name":"KIND_DIGEST","inputs":[],"outputs":[{"name":"","type":"uint8","internalType":"uint8"}],"stateMutability":"view"},{"type":"function","name":"KIND_MESSAGE","inputs":[],"outputs":[{"name":"","type":"uint8","internalType":"uint8"}],"stateMutability":"view"},{"type":"function","name":"KIND_TRANSACTIONS","inputs":[],"outputs":[{"name":"","type":"uint8","internalType":"uint8"}],"stateMutability":"view"},{"type":"error","name":"InvalidKind","inputs":[{"name":"kind","type":"uint8","internalType":"uint8"}]}],"userdoc":{},"devdoc":{},"evm":{"bytecode":{"object":"60808060405234601957610182908161001f823930815050f35b600080fdfe6080604052600436101561001257600080fd5b60003560e01c80630739d59a146100ad578063075a3d2d146100a85780633d5c1f9b146100a3578063420b0c25146100ad5780634a7d2aa0146100a85780634e5f5715146100a35763b570180a1461006957600080fd5b60007ffffffffffffffffffffffffffffffffffffffffffffffffffffffffffffffffc36011261009e57602060405160038152f35b600080fd5b610117565b6100e2565b60007ffffffffffffffffffffffffffffffffffffffffffffffffffffffffffffffffc36011261009e57602060405160028152f35b60007ffffffffffffffffffffffffffffffffffffffffffffffffffffffffffffffffc36011261009e57602060405160008152f35b60007ffffffffffffffffffffffffffffffffffffffffffffffffffffffffffffffffc36011261009e57602060405160018152f3fea2646970667358221220c406a0be90b7a3d6f44ef8e8aeeb4e59c90729dbe9cc305212bfd06e7d3136c964736f6c634300081c0033","linkReferences":{}},"methodIdentifiers":{"BEHAVIOR_ABORT_ON_ERROR()":"420b0c25","BEHAVIOR_IGNORE_ERROR()":"4a7d2aa0","BEHAVIOR_REVERT_ON_ERROR()":"4e5f5715","KIND_CONFIG_UPDATE()":"0739d59a","KIND_DIGEST()":"b570180a","KIND_MESSAGE()":"3d5c1f9b","KIND_TRANSACTIONS()":"075a3d2d"}}}}}