{
	"contracts/modules/utils/MultiCallUtils.sol": {
		"MultiCallUtils": {
			"abi": [
				{
					"inputs": [
						{
							"internalType": "address",
							"name": "_addr",
							"type": "address"
						}
					],
					"name": "callBalanceOf",
					"outputs": [
						{
							"internalType": "uint256",
							"name": "",
							"type": "uint256"
						}
					],
					"stateMutability": "view",
					"type": "function"
				},
				{
					"inputs": [],
					"name": "callBlockNumber",
					"outputs": [
						{
							"internalType": "uint256",
							"name": "",
							"type": "uint256"
						}
					],
					"stateMutability": "view",
					"type": "function"
				},
				{
					"inputs": [
						{
							"internalType": "uint256",
							"name": "_i",
							"type": "uint256"
						}
					],
					"name": "callBlockhash",
					"outputs": [
						{
							"internalType": "bytes32",
							"name": "",
							"type": "bytes32"
						}
					],
					"stateMutability": "view",
					"type": "function"
				},
				{
					"inputs": [],
					"name": "callChainId",
					"outputs": [
						{
							"internalType": "uint256",
							"name": "id",
							"type": "uint256"
						}
					],
					"stateMutability": "pure",
					"type": "function"
				},
				{
					"inputs": [
						{
							"internalType": "address",
							"name": "_addr",
							"type": "address"
						}
					],
					"name": "callCode",
					"outputs": [
						{
							"internalType": "bytes",
							"name": "code",
							"type": "bytes"
						}
					],
					"stateMutability": "view",
					"type": "function"
				},
				{
					"inputs": [
						{
							"internalType": "address",
							"name": "_addr",
							"type": "address"
						}
					],
					"name": "callCodeHash",
					"outputs": [
						{
							"internalType": "bytes32",
							"name": "codeHash",
							"type": "bytes32"
						}
					],
					"stateMutability": "view",
					"type": "function"
				},
				{
					"inputs": [
						{
							"internalType": "address",
							"name": "_addr",
							"type": "address"
						}
					],
					"name": "callCodeSize",
					"outputs": [
						{
							"internalType": "uint256",
							"name": "size",
							"type": "uint256"
						}
					],
					"stateMutability": "view",
					"type": "function"
				},
				{
					"inputs": [],
					"name": "callCoinbase",
					"outputs": [
						{
							"internalType": "address",
							"name": "",
							"type": "address"
						}
					],
					"stateMutability": "view",
					"type": "function"
				},
				{
					"inputs": [],
					"name": "callDifficulty",
					"outputs": [
						{
							"internalType": "uint256",
							"name": "",
							"type": "uint256"
						}
					],
					"stateMutability": "view",
					"type": "function"
				},
				{
					"inputs": [],
					"name": "callGasLeft",
					"outputs": [
						{
							"internalType": "uint256",
							"name": "",
							"type": "uint256"
						}
					],
					"stateMutability": "view",
					"type": "function"
				},
				{
					"inputs": [],
					"name": "callGasLimit",
					"outputs": [
						{
							"internalType": "uint256",
							"name": "",
							"type": "uint256"
						}
					],
					"stateMutability": "view",
					"type": "function"
				},
				{
					"inputs": [],
					"name": "callGasPrice",
					"outputs": [
						{
							"internalType": "uint256",
							"name": "",
							"type": "uint256"
						}
					],
					"stateMutability": "view",
					"type": "function"
				},
				{
					"inputs": [],
					"name": "callOrigin",
					"outputs": [
						{
							"internalType": "address",
							"name": "",
							"type": "address"
						}
					],
					"stateMutability": "view",
					"type": "function"
				},
				{
					"inputs": [],
					"name": "callTimestamp",
					"outputs": [
						{
							"internalType": "uint256",
							"name": "",
							"type": "uint256"
						}
					],
					"stateMutability": "view",
					"type": "function"
				},
				{
					"inputs": [
						{
							"components": [
								{
									"internalType": "bool",
									"name": "delegateCall",
									"type": "bool"
								},
								{
									"internalType": "bool",
									"name": "revertOnError",
									"type": "bool"
								},
								{
									"internalType": "uint256",
									"name": "gasLimit",
									"type": "uint256"
								},
								{
									"internalType": "address",
									"name": "target",
									"type": "address"
								},
								{
									"internalType": "uint256",
									"name": "value",
									"type": "uint256"
								},
								{
									"internalType": "bytes",
									"name": "data",
									"type": "bytes"
								}
							],
							"internalType": "struct IModuleCalls.Transaction[]",
							"name": "_txs",
							"type": "tuple[]"
						}
					],
					"name": "multiCall",
					"outputs": [
						{
							"internalType": "bool[]",
							"name": "_successes",
							"type": "bool[]"
						},
						{
							"internalType": "bytes[]",
							"name": "_results",
							"type": "bytes[]"
						}
					],
					"stateMutability": "payable",
					"type": "function"
				}
			],
			"evm": {
				"bytecode": {
					"linkReferences": {},
					"object": "608060405234801561001057600080fd5b50610aac806100206000396000f3fe6080604052600436106100e85760003560e01c8063c272d5c31161008a578063d5b5337f11610059578063d5b5337f14610230578063e90f13e71461021b578063f209883a14610250578063ffd7d74114610265576100e8565b8063c272d5c3146101b9578063c39f2d5c146101ce578063c66764e1146101ee578063d1db39071461021b576100e8565b8063543196eb116100c6578063543196eb1461014d578063984395bc1461016d57806398f9fbc41461018f578063aeea5fb5146101a4576100e8565b80630fdecfac146100ed57806343d9c9351461011857806348acd29f1461012d575b600080fd5b3480156100f957600080fd5b50610102610286565b60405161010f91906108ef565b60405180910390f35b34801561012457600080fd5b5061010261028a565b34801561013957600080fd5b50610102610148366004610649565b610292565b34801561015957600080fd5b50610102610168366004610649565b6102b0565b34801561017957600080fd5b506101826102b4565b60405161010f9190610828565b34801561019b57600080fd5b506101826102b8565b3480156101b057600080fd5b506101026102bc565b3480156101c557600080fd5b506101026102c0565b3480156101da57600080fd5b506101026101e9366004610649565b6102c4565b3480156101fa57600080fd5b5061020e610209366004610649565b6102c8565b60405161010f91906108f8565b34801561022757600080fd5b5061010261030d565b34801561023c57600080fd5b5061010261024b3660046107aa565b610311565b34801561025c57600080fd5b50610102610315565b61027861027336600461066a565b610319565b60405161010f929190610849565b4690565b60005a905090565b73ffffffffffffffffffffffffffffffffffffffff8116315b919050565b3f90565b3290565b4190565b4490565b3a90565b3b90565b60408051603f833b9081017fffffffffffffffffffffffffffffffffffffffffffffffffffffffffffffffe01682019092528181529080600060208401853c50919050565b4590565b4090565b4290565b606080825167ffffffffffffffff8111801561033457600080fd5b5060405190808252806020026020018201604052801561035e578160200160208202803683370190505b509150825167ffffffffffffffff8111801561037957600080fd5b506040519080825280602002602001820160405280156103ad57816020015b60608152602001906001900390816103985790505b50905060005b835181101561058c5760008482815181106103ca57fe5b60200260200101519050806000015115610419576040517f08c379a0000000000000000000000000000000000000000000000000000000008152600401610410906109c5565b60405180910390fd5b80604001515a1015610457576040517f08c379a000000000000000000000000000000000000000000000000000000000815260040161041090610968565b806060015173ffffffffffffffffffffffffffffffffffffffff168160800151826040015160001461048d57826040015161048f565b5a5b908360a001516040516104a2919061080c565b600060405180830381858888f193505050503d80600081146104e0576040519150601f19603f3d011682016040523d82523d6000602084013e6104e5565b606091505b508584815181106104f257fe5b6020026020010185858151811061050557fe5b602002602001018290528215151515815250505083828151811061052557fe5b60200260200101518061054d575084828151811061053f57fe5b602002602001015160200151155b610583576040517f08c379a00000000000000000000000000000000000000000000000000000000081526004016104109061090b565b506001016103b3565b50915091565b803573ffffffffffffffffffffffffffffffffffffffff811681146102ab57600080fd5b803580151581146102ab57600080fd5b600082601f8301126105d6578081fd5b813567ffffffffffffffff8111156105ea57fe5b61061b60207fffffffffffffffffffffffffffffffffffffffffffffffffffffffffffffffe0601f84011601610a22565b81815284602083860101111561062f578283fd5b816020850160208301379081016020019190915292915050565b60006020828403121561065a578081fd5b61066382610592565b9392505050565b6000602080838503121561067c578182fd5b823567ffffffffffffffff80821115610693578384fd5b818501915085601f8301126106a6578384fd5b8135818111156106b257fe5b6106bf8485830201610a22565b81815284810190848601875b8481101561079b578135870160c0807fffffffffffffffffffffffffffffffffffffffffffffffffffffffffffffffe0838f03011215610709578a8bfd5b604080518281018181108b8211171561071e57fe5b825261072b848d016105b6565b81526107388285016105b6565b8c8201526060808501358383015260809250610755838601610592565b9082015260a084013582820152918301359189831115610773578c8dfd5b6107818f8d858701016105c6565b60a0820152875250505092870192908701906001016106cb565b50909998505050505050505050565b6000602082840312156107bb578081fd5b5035919050565b600081518084526107da816020860160208601610a46565b601f017fffffffffffffffffffffffffffffffffffffffffffffffffffffffffffffffe0169290920160200192915050565b6000825161081e818460208701610a46565b9190910192915050565b73ffffffffffffffffffffffffffffffffffffffff91909116815260200190565b604080825283519082018190526000906020906060840190828701845b82811015610884578151151584529284019290840190600101610866565b5050508381038285015284518082528282019080840283018401878501865b8381101561079b577fffffffffffffffffffffffffffffffffffffffffffffffffffffffffffffffe08684030185526108dd8383516107c2565b948701949250908601906001016108a3565b90815260200190565b60006020825261066360208301846107c2565b60208082526027908201527f4d756c746943616c6c5574696c73236d756c746943616c6c3a2043414c4c5f5260408201527f4556455254454400000000000000000000000000000000000000000000000000606082015260800190565b60208082526028908201527f4d756c746943616c6c5574696c73236d756c746943616c6c3a204e4f545f454e60408201527f4f5547485f474153000000000000000000000000000000000000000000000000606082015260800190565b60208082526032908201527f4d756c746943616c6c5574696c73236d756c746943616c6c3a2064656c65676160408201527f746543616c6c206e6f7420616c6c6f7765640000000000000000000000000000606082015260800190565b60405181810167ffffffffffffffff81118282101715610a3e57fe5b604052919050565b60005b83811015610a61578181015183820152602001610a49565b83811115610a70576000848401525b5050505056fea26469706673582212209bcbc4408d83c4567da8d51b96a29d3d2cf56395e5ac84eee40917a48945daaf64736f6c63430007060033",
					"opcodes": "PUSH1 0x80 PUSH1 0x40 MSTORE CALLVALUE DUP1 ISZERO PUSH2 0x10 JUMPI PUSH1 0x0 DUP1 REVERT JUMPDEST POP PUSH2 0xAAC DUP1 PUSH2 0x20 PUSH1 0x0 CODECOPY PUSH1 0x0 RETURN INVALID PUSH1 0x80 PUSH1 0x40 MSTORE PUSH1 0x4 CALLDATASIZE LT PUSH2 0xE8 JUMPI PUSH1 0x0 CALLDATALOAD PUSH1 0xE0 SHR DUP1 PUSH4 0xC272D5C3 GT PUSH2 0x8A JUMPI DUP1 PUSH4 0xD5B5337F GT PUSH2 0x59 JUMPI DUP1 PUSH4 0xD5B5337F EQ PUSH2 0x230 JUMPI DUP1 PUSH4 0xE90F13E7 EQ PUSH2 0x21B JUMPI DUP1 PUSH4 0xF209883A EQ PUSH2 0x250 JUMPI DUP1 PUSH4 0xFFD7D741 EQ PUSH2 0x265 JUMPI PUSH2 0xE8 JUMP JUMPDEST DUP1 PUSH4 0xC272D5C3 EQ PUSH2 0x1B9 JUMPI DUP1 PUSH4 0xC39F2D5C EQ PUSH2 0x1CE JUMPI DUP1 PUSH4 0xC66764E1 EQ PUSH2 0x1EE JUMPI DUP1 PUSH4 0xD1DB3907 EQ PUSH2 0x21B JUMPI PUSH2 0xE8 JUMP JUMPDEST DUP1 PUSH4 0x543196EB GT PUSH2 0xC6 JUMPI DUP1 PUSH4 0x543196EB EQ PUSH2 0x14D JUMPI DUP1 PUSH4 0x984395BC EQ PUSH2 0x16D JUMPI DUP1 PUSH4 0x98F9FBC4 EQ PUSH2 0x18F JUMPI DUP1 PUSH4 0xAEEA5FB5 EQ PUSH2 0x1A4 JUMPI PUSH2 0xE8 JUMP JUMPDEST DUP1 PUSH4 0xFDECFAC EQ PUSH2 0xED JUMPI DUP1 PUSH4 0x43D9C935 EQ PUSH2 0x118 JUMPI DUP1 PUSH4 0x48ACD29F EQ PUSH2 0x12D JUMPI JUMPDEST PUSH1 0x0 DUP1 REVERT JUMPDEST CALLVALUE DUP1 ISZERO PUSH2 0xF9 JUMPI PUSH1 0x0 DUP1 REVERT JUMPDEST POP PUSH2 0x102 PUSH2 0x286 JUMP JUMPDEST PUSH1 0x40 MLOAD PUSH2 0x10F SWAP2 SWAP1 PUSH2 0x8EF JUMP JUMPDEST PUSH1 0x40 MLOAD DUP1 SWAP2 SUB SWAP1 RETURN JUMPDEST CALLVALUE DUP1 ISZERO PUSH2 0x124 JUMPI PUSH1 0x0 DUP1 REVERT JUMPDEST POP PUSH2 0x102 PUSH2 0x28A JUMP JUMPDEST CALLVALUE DUP1 ISZERO PUSH2 0x139 JUMPI PUSH1 0x0 DUP1 REVERT JUMPDEST POP PUSH2 0x102 PUSH2 0x148 CALLDATASIZE PUSH1 0x4 PUSH2 0x649 JUMP JUMPDEST PUSH2 0x292 JUMP JUMPDEST CALLVALUE DUP1 ISZERO PUSH2 0x159 JUMPI PUSH1 0x0 DUP1 REVERT JUMPDEST POP PUSH2 0x102 PUSH2 0x168 CALLDATASIZE PUSH1 0x4 PUSH2 0x649 JUMP JUMPDEST PUSH2 0x2B0 JUMP JUMPDEST CALLVALUE DUP1 ISZERO PUSH2 0x179 JUMPI PUSH1 0x0 DUP1 REVERT JUMPDEST POP PUSH2 0x182 PUSH2 0x2B4 JUMP JUMPDEST PUSH1 0x40 MLOAD PUSH2 0x10F SWAP2 SWAP1 PUSH2 0x828 JUMP JUMPDEST CALLVALUE DUP1 ISZERO PUSH2 0x19B JUMPI PUSH1 0x0 DUP1 REVERT JUMPDEST POP PUSH2 0x182 PUSH2 0x2B8 JUMP JUMPDEST CALLVALUE DUP1 ISZERO PUSH2 0x1B0 JUMPI PUSH1 0x0 DUP1 REVERT JUMPDEST POP PUSH2 0x102 PUSH2 0x2BC JUMP JUMPDEST CALLVALUE DUP1 ISZERO PUSH2 0x1C5 JUMPI PUSH1 0x0 DUP1 REVERT JUMPDEST POP PUSH2 0x102 PUSH2 0x2C0 JUMP JUMPDEST CALLVALUE DUP1 ISZERO PUSH2 0x1DA JUMPI PUSH1 0x0 DUP1 REVERT JUMPDEST POP PUSH2 0x102 PUSH2 0x1E9 CALLDATASIZE PUSH1 0x4 PUSH2 0x649 JUMP JUMPDEST PUSH2 0x2C4 JUMP JUMPDEST CALLVALUE DUP1 ISZERO PUSH2 0x1FA JUMPI PUSH1 0x0 DUP1 REVERT JUMPDEST POP PUSH2 0x20E PUSH2 0x209 CALLDATASIZE PUSH1 0x4 PUSH2 0x649 JUMP JUMPDEST PUSH2 0x2C8 JUMP JUMPDEST PUSH1 0x40 MLOAD PUSH2 0x10F SWAP2 SWAP1 PUSH2 0x8F8 JUMP JUMPDEST CALLVALUE DUP1 ISZERO PUSH2 0x227 JUMPI PUSH1 0x0 DUP1 REVERT JUMPDEST POP PUSH2 0x102 PUSH2 0x30D JUMP JUMPDEST CALLVALUE DUP1 ISZERO PUSH2 0x23C JUMPI PUSH1 0x0 DUP1 REVERT JUMPDEST POP PUSH2 0x102 PUSH2 0x24B CALLDATASIZE PUSH1 0x4 PUSH2 0x7AA JUMP JUMPDEST PUSH2 0x311 JUMP JUMPDEST CALLVALUE DUP1 ISZERO PUSH2 0x25C JUMPI PUSH1 0x0 DUP1 REVERT JUMPDEST POP PUSH2 0x102 PUSH2 0x315 JUMP JUMPDEST PUSH2 0x278 PUSH2 0x273 CALLDATASIZE PUSH1 0x4 PUSH2 0x66A JUMP JUMPDEST PUSH2 0x319 JUMP JUMPDEST PUSH1 0x40 MLOAD PUSH2 0x10F SWAP3 SWAP2 SWAP1 PUSH2 0x849 JUMP JUMPDEST CHAINID SWAP1 JUMP JUMPDEST PUSH1 0x0 GAS SWAP1 POP SWAP1 JUMP JUMPDEST PUSH20 0xFFFFFFFFFFFFFFFFFFFFFFFFFFFFFFFFFFFFFFFF DUP2 AND BALANCE JUMPDEST SWAP2 SWAP1 POP JUMP JUMPDEST EXTCODEHASH SWAP1 JUMP JUMPDEST ORIGIN SWAP1 JUMP JUMPDEST COINBASE SWAP1 JUMP JUMPDEST DIFFICULTY SWAP1 JUMP JUMPDEST GASPRICE SWAP1 JUMP JUMPDEST EXTCODESIZE SWAP1 JUMP JUMPDEST PUSH1 0x40 DUP1 MLOAD PUSH1 0x3F DUP4 EXTCODESIZE SWAP1 DUP2 ADD PUSH32 0xFFFFFFFFFFFFFFFFFFFFFFFFFFFFFFFFFFFFFFFFFFFFFFFFFFFFFFFFFFFFFFE0 AND DUP3 ADD SWAP1 SWAP3 MSTORE DUP2 DUP2 MSTORE SWAP1 DUP1 PUSH1 0x0 PUSH1 0x20 DUP5 ADD DUP6 EXTCODECOPY POP SWAP2 SWAP1 POP JUMP JUMPDEST GASLIMIT SWAP1 JUMP JUMPDEST BLOCKHASH SWAP1 JUMP JUMPDEST TIMESTAMP SWAP1 JUMP JUMPDEST PUSH1 0x60 DUP1 DUP3 MLOAD PUSH8 0xFFFFFFFFFFFFFFFF DUP2 GT DUP1 ISZERO PUSH2 0x334 JUMPI PUSH1 0x0 DUP1 REVERT JUMPDEST POP PUSH1 0x40 MLOAD SWAP1 DUP1 DUP3 MSTORE DUP1 PUSH1 0x20 MUL PUSH1 0x20 ADD DUP3 ADD PUSH1 0x40 MSTORE DUP1 ISZERO PUSH2 0x35E JUMPI DUP2 PUSH1 0x20 ADD PUSH1 0x20 DUP3 MUL DUP1 CALLDATASIZE DUP4 CALLDATACOPY ADD SWAP1 POP JUMPDEST POP SWAP2 POP DUP3 MLOAD PUSH8 0xFFFFFFFFFFFFFFFF DUP2 GT DUP1 ISZERO PUSH2 0x379 JUMPI PUSH1 0x0 DUP1 REVERT JUMPDEST POP PUSH1 0x40 MLOAD SWAP1 DUP1 DUP3 MSTORE DUP1 PUSH1 0x20 MUL PUSH1 0x20 ADD DUP3 ADD PUSH1 0x40 MSTORE DUP1 ISZERO PUSH2 0x3AD JUMPI DUP2 PUSH1 0x20 ADD JUMPDEST PUSH1 0x60 DUP2 MSTORE PUSH1 0x20 ADD SWAP1 PUSH1 0x1 SWAP1 SUB SWAP1 DUP2 PUSH2 0x398 JUMPI SWAP1 POP JUMPDEST POP SWAP1 POP PUSH1 0x0 JUMPDEST DUP4 MLOAD DUP2 LT ISZERO PUSH2 0x58C JUMPI PUSH1 0x0 DUP5 DUP3 DUP2 MLOAD DUP2 LT PUSH2 0x3CA JUMPI INVALID JUMPDEST PUSH1 0x20 MUL PUSH1 0x20 ADD ADD MLOAD SWAP1 POP DUP1 PUSH1 0x0 ADD MLOAD ISZERO PUSH2 0x419 JUMPI PUSH1 0x40 MLOAD PUSH32 0x8C379A000000000000000000000000000000000000000000000000000000000 DUP2 MSTORE PUSH1 0x4 ADD PUSH2 0x410 SWAP1 PUSH2 0x9C5 JUMP JUMPDEST PUSH1 0x40 MLOAD DUP1 SWAP2 SUB SWAP1 REVERT JUMPDEST DUP1 PUSH1 0x40 ADD MLOAD GAS LT ISZERO PUSH2 0x457 JUMPI PUSH1 0x40 MLOAD PUSH32 0x8C379A000000000000000000000000000000000000000000000000000000000 DUP2 MSTORE PUSH1 0x4 ADD PUSH2 0x410 SWAP1 PUSH2 0x968 JUMP JUMPDEST DUP1 PUSH1 0x60 ADD MLOAD PUSH20 0xFFFFFFFFFFFFFFFFFFFFFFFFFFFFFFFFFFFFFFFF AND DUP2 PUSH1 0x80 ADD MLOAD DUP3 PUSH1 0x40 ADD MLOAD PUSH1 0x0 EQ PUSH2 0x48D JUMPI DUP3 PUSH1 0x40 ADD MLOAD PUSH2 0x48F JUMP JUMPDEST GAS JUMPDEST SWAP1 DUP4 PUSH1 0xA0 ADD MLOAD PUSH1 0x40 MLOAD PUSH2 0x4A2 SWAP2 SWAP1 PUSH2 0x80C JUMP JUMPDEST PUSH1 0x0 PUSH1 0x40 MLOAD DUP1 DUP4 SUB DUP2 DUP6 DUP9 DUP9 CALL SWAP4 POP POP POP POP RETURNDATASIZE DUP1 PUSH1 0x0 DUP2 EQ PUSH2 0x4E0 JUMPI PUSH1 0x40 MLOAD SWAP2 POP PUSH1 0x1F NOT PUSH1 0x3F RETURNDATASIZE ADD AND DUP3 ADD PUSH1 0x40 MSTORE RETURNDATASIZE DUP3 MSTORE RETURNDATASIZE PUSH1 0x0 PUSH1 0x20 DUP5 ADD RETURNDATACOPY PUSH2 0x4E5 JUMP JUMPDEST PUSH1 0x60 SWAP2 POP JUMPDEST POP DUP6 DUP5 DUP2 MLOAD DUP2 LT PUSH2 0x4F2 JUMPI INVALID JUMPDEST PUSH1 0x20 MUL PUSH1 0x20 ADD ADD DUP6 DUP6 DUP2 MLOAD DUP2 LT PUSH2 0x505 JUMPI INVALID JUMPDEST PUSH1 0x20 MUL PUSH1 0x20 ADD ADD DUP3 SWAP1 MSTORE DUP3 ISZERO ISZERO ISZERO ISZERO DUP2 MSTORE POP POP POP DUP4 DUP3 DUP2 MLOAD DUP2 LT PUSH2 0x525 JUMPI INVALID JUMPDEST PUSH1 0x20 MUL PUSH1 0x20 ADD ADD MLOAD DUP1 PUSH2 0x54D JUMPI POP DUP5 DUP3 DUP2 MLOAD DUP2 LT PUSH2 0x53F JUMPI INVALID JUMPDEST PUSH1 0x20 MUL PUSH1 0x20 ADD ADD MLOAD PUSH1 0x20 ADD MLOAD ISZERO JUMPDEST PUSH2 0x583 JUMPI PUSH1 0x40 MLOAD PUSH32 0x8C379A000000000000000000000000000000000000000000000000000000000 DUP2 MSTORE PUSH1 0x4 ADD PUSH2 0x410 SWAP1 PUSH2 0x90B JUMP JUMPDEST POP PUSH1 0x1 ADD PUSH2 0x3B3 JUMP JUMPDEST POP SWAP2 POP SWAP2 JUMP JUMPDEST DUP1 CALLDATALOAD PUSH20 0xFFFFFFFFFFFFFFFFFFFFFFFFFFFFFFFFFFFFFFFF DUP2 AND DUP2 EQ PUSH2 0x2AB JUMPI PUSH1 0x0 DUP1 REVERT JUMPDEST DUP1 CALLDATALOAD DUP1 ISZERO ISZERO DUP2 EQ PUSH2 0x2AB JUMPI PUSH1 0x0 DUP1 REVERT JUMPDEST PUSH1 0x0 DUP3 PUSH1 0x1F DUP4 ADD SLT PUSH2 0x5D6 JUMPI DUP1 DUP2 REVERT JUMPDEST DUP2 CALLDATALOAD PUSH8 0xFFFFFFFFFFFFFFFF DUP2 GT ISZERO PUSH2 0x5EA JUMPI INVALID JUMPDEST PUSH2 0x61B PUSH1 0x20 PUSH32 0xFFFFFFFFFFFFFFFFFFFFFFFFFFFFFFFFFFFFFFFFFFFFFFFFFFFFFFFFFFFFFFE0 PUSH1 0x1F DUP5 ADD AND ADD PUSH2 0xA22 JUMP JUMPDEST DUP2 DUP2 MSTORE DUP5 PUSH1 0x20 DUP4 DUP7 ADD ADD GT ISZERO PUSH2 0x62F JUMPI DUP3 DUP4 REVERT JUMPDEST DUP2 PUSH1 0x20 DUP6 ADD PUSH1 0x20 DUP4 ADD CALLDATACOPY SWAP1 DUP2 ADD PUSH1 0x20 ADD SWAP2 SWAP1 SWAP2 MSTORE SWAP3 SWAP2 POP POP JUMP JUMPDEST PUSH1 0x0 PUSH1 0x20 DUP3 DUP5 SUB SLT ISZERO PUSH2 0x65A JUMPI DUP1 DUP2 REVERT JUMPDEST PUSH2 0x663 DUP3 PUSH2 0x592 JUMP JUMPDEST SWAP4 SWAP3 POP POP POP JUMP JUMPDEST PUSH1 0x0 PUSH1 0x20 DUP1 DUP4 DUP6 SUB SLT ISZERO PUSH2 0x67C JUMPI DUP2 DUP3 REVERT JUMPDEST DUP3 CALLDATALOAD PUSH8 0xFFFFFFFFFFFFFFFF DUP1 DUP3 GT ISZERO PUSH2 0x693 JUMPI DUP4 DUP5 REVERT JUMPDEST DUP2 DUP6 ADD SWAP2 POP DUP6 PUSH1 0x1F DUP4 ADD SLT PUSH2 0x6A6 JUMPI DUP4 DUP5 REVERT JUMPDEST DUP2 CALLDATALOAD DUP2 DUP2 GT ISZERO PUSH2 0x6B2 JUMPI INVALID JUMPDEST PUSH2 0x6BF DUP5 DUP6 DUP4 MUL ADD PUSH2 0xA22 JUMP JUMPDEST DUP2 DUP2 MSTORE DUP5 DUP2 ADD SWAP1 DUP5 DUP7 ADD DUP8 JUMPDEST DUP5 DUP2 LT ISZERO PUSH2 0x79B JUMPI DUP2 CALLDATALOAD DUP8 ADD PUSH1 0xC0 DUP1 PUSH32 0xFFFFFFFFFFFFFFFFFFFFFFFFFFFFFFFFFFFFFFFFFFFFFFFFFFFFFFFFFFFFFFE0 DUP4 DUP16 SUB ADD SLT ISZERO PUSH2 0x709 JUMPI DUP11 DUP12 REVERT JUMPDEST PUSH1 0x40 DUP1 MLOAD DUP3 DUP2 ADD DUP2 DUP2 LT DUP12 DUP3 GT OR ISZERO PUSH2 0x71E JUMPI INVALID JUMPDEST DUP3 MSTORE PUSH2 0x72B DUP5 DUP14 ADD PUSH2 0x5B6 JUMP JUMPDEST DUP2 MSTORE PUSH2 0x738 DUP3 DUP6 ADD PUSH2 0x5B6 JUMP JUMPDEST DUP13 DUP3 ADD MSTORE PUSH1 0x60 DUP1 DUP6 ADD CALLDATALOAD DUP4 DUP4 ADD MSTORE PUSH1 0x80 SWAP3 POP PUSH2 0x755 DUP4 DUP7 ADD PUSH2 0x592 JUMP JUMPDEST SWAP1 DUP3 ADD MSTORE PUSH1 0xA0 DUP5 ADD CALLDATALOAD DUP3 DUP3 ADD MSTORE SWAP2 DUP4 ADD CALLDATALOAD SWAP2 DUP10 DUP4 GT ISZERO PUSH2 0x773 JUMPI DUP13 DUP14 REVERT JUMPDEST PUSH2 0x781 DUP16 DUP14 DUP6 DUP8 ADD ADD PUSH2 0x5C6 JUMP JUMPDEST PUSH1 0xA0 DUP3 ADD MSTORE DUP8 MSTORE POP POP POP SWAP3 DUP8 ADD SWAP3 SWAP1 DUP8 ADD SWAP1 PUSH1 0x1 ADD PUSH2 0x6CB JUMP JUMPDEST POP SWAP1 SWAP10 SWAP9 POP POP POP POP POP POP POP POP POP JUMP JUMPDEST PUSH1 0x0 PUSH1 0x20 DUP3 DUP5 SUB SLT ISZERO PUSH2 0x7BB JUMPI DUP1 DUP2 REVERT JUMPDEST POP CALLDATALOAD SWAP2 SWAP1 POP JUMP JUMPDEST PUSH1 0x0 DUP2 MLOAD DUP1 DUP5 MSTORE PUSH2 0x7DA DUP2 PUSH1 0x20 DUP7 ADD PUSH1 0x20 DUP7 ADD PUSH2 0xA46 JUMP JUMPDEST PUSH1 0x1F ADD PUSH32 0xFFFFFFFFFFFFFFFFFFFFFFFFFFFFFFFFFFFFFFFFFFFFFFFFFFFFFFFFFFFFFFE0 AND SWAP3 SWAP1 SWAP3 ADD PUSH1 0x20 ADD SWAP3 SWAP2 POP POP JUMP JUMPDEST PUSH1 0x0 DUP3 MLOAD PUSH2 0x81E DUP2 DUP5 PUSH1 0x20 DUP8 ADD PUSH2 0xA46 JUMP JUMPDEST SWAP2 SWAP1 SWAP2 ADD SWAP3 SWAP2 POP POP JUMP JUMPDEST PUSH20 0xFFFFFFFFFFFFFFFFFFFFFFFFFFFFFFFFFFFFFFFF SWAP2 SWAP1 SWAP2 AND DUP2 MSTORE PUSH1 0x20 ADD SWAP1 JUMP JUMPDEST PUSH1 0x40 DUP1 DUP3 MSTORE DUP4 MLOAD SWAP1 DUP3 ADD DUP2 SWAP1 MSTORE PUSH1 0x0 SWAP1 PUSH1 0x20 SWAP1 PUSH1 0x60 DUP5 ADD SWAP1 DUP3 DUP8 ADD DUP5 JUMPDEST DUP3 DUP2 LT ISZERO PUSH2 0x884 JUMPI DUP2 MLOAD ISZERO ISZERO DUP5 MSTORE SWAP3 DUP5 ADD SWAP3 SWAP1 DUP5 ADD SWAP1 PUSH1 0x1 ADD PUSH2 0x866 JUMP JUMPDEST POP POP POP DUP4 DUP2 SUB DUP3 DUP6 ADD MSTORE DUP5 MLOAD DUP1 DUP3 MSTORE DUP3 DUP3 ADD SWAP1 DUP1 DUP5 MUL DUP4 ADD DUP5 ADD DUP8 DUP6 ADD DUP7 JUMPDEST DUP4 DUP2 LT ISZERO PUSH2 0x79B JUMPI PUSH32 0xFFFFFFFFFFFFFFFFFFFFFFFFFFFFFFFFFFFFFFFFFFFFFFFFFFFFFFFFFFFFFFE0 DUP7 DUP5 SUB ADD DUP6 MSTORE PUSH2 0x8DD DUP4 DUP4 MLOAD PUSH2 0x7C2 JUMP JUMPDEST SWAP5 DUP8 ADD SWAP5 SWAP3 POP SWAP1 DUP7 ADD SWAP1 PUSH1 0x1 ADD PUSH2 0x8A3 JUMP JUMPDEST SWAP1 DUP2 MSTORE PUSH1 0x20 ADD SWAP1 JUMP JUMPDEST PUSH1 0x0 PUSH1 0x20 DUP3 MSTORE PUSH2 0x663 PUSH1 0x20 DUP4 ADD DUP5 PUSH2 0x7C2 JUMP JUMPDEST PUSH1 0x20 DUP1 DUP3 MSTORE PUSH1 0x27 SWAP1 DUP3 ADD MSTORE PUSH32 0x4D756C746943616C6C5574696C73236D756C746943616C6C3A2043414C4C5F52 PUSH1 0x40 DUP3 ADD MSTORE PUSH32 0x4556455254454400000000000000000000000000000000000000000000000000 PUSH1 0x60 DUP3 ADD MSTORE PUSH1 0x80 ADD SWAP1 JUMP JUMPDEST PUSH1 0x20 DUP1 DUP3 MSTORE PUSH1 0x28 SWAP1 DUP3 ADD MSTORE PUSH32 0x4D756C746943616C6C5574696C73236D756C746943616C6C3A204E4F545F454E PUSH1 0x40 DUP3 ADD MSTORE PUSH32 0x4F5547485F474153000000000000000000000000000000000000000000000000 PUSH1 0x60 DUP3 ADD MSTORE PUSH1 0x80 ADD SWAP1 JUMP JUMPDEST PUSH1 0x20 DUP1 DUP3 MSTORE PUSH1 0x32 SWAP1 DUP3 ADD MSTORE PUSH32 0x4D756C746943616C6C5574696C73236D756C746943616C6C3A2064656C656761 PUSH1 0x40 DUP3 ADD MSTORE PUSH32 0x746543616C6C206E6F7420616C6C6F7765640000000000000000000000000000 PUSH1 0x60 DUP3 ADD MSTORE PUSH1 0x80 ADD SWAP1 JUMP JUMPDEST PUSH1 0x40 MLOAD DUP2 DUP2 ADD PUSH8 0xFFFFFFFFFFFFFFFF DUP2 GT DUP3 DUP3 LT OR ISZERO PUSH2 0xA3E JUMPI INVALID JUMPDEST PUSH1 0x40 MSTORE SWAP2 SWAP1 POP JUMP JUMPDEST PUSH1 0x0 JUMPDEST DUP4 DUP2 LT ISZERO PUSH2 0xA61 JUMPI DUP2 DUP2 ADD MLOAD DUP4 DUP3 ADD MSTORE PUSH1 0x20 ADD PUSH2 0xA49 JUMP JUMPDEST DUP4 DUP2 GT ISZERO PUSH2 0xA70 JUMPI PUSH1 0x0 DUP5 DUP5 ADD MSTORE JUMPDEST POP POP POP POP JUMP INVALID LOG2 PUSH5 0x6970667358 0x22 SLT KECCAK256 SWAP12 0xCB 0xC4 BLOCKHASH DUP14 DUP4 0xC4 JUMP PUSH30 0xA8D51B96A29D3D2CF56395E5AC84EEE40917A48945DAAF64736F6C634300 SMOD MOD STOP CALLER "
				}
			}
		}
	}
}