{
	"contracts/modules/utils/RequireUtils.sol": {
		"RequireUtils": {
			"abi": [
				{
					"inputs": [
						{
							"internalType": "address",
							"name": "_factory",
							"type": "address"
						},
						{
							"internalType": "address",
							"name": "_mainModule",
							"type": "address"
						}
					],
					"stateMutability": "nonpayable",
					"type": "constructor"
				},
				{
					"anonymous": false,
					"inputs": [
						{
							"indexed": true,
							"internalType": "address",
							"name": "_wallet",
							"type": "address"
						},
						{
							"indexed": true,
							"internalType": "bytes32",
							"name": "_imageHash",
							"type": "bytes32"
						},
						{
							"indexed": false,
							"internalType": "uint256",
							"name": "_threshold",
							"type": "uint256"
						},
						{
							"indexed": false,
							"internalType": "bytes",
							"name": "_signers",
							"type": "bytes"
						}
					],
					"name": "RequiredConfig",
					"type": "event"
				},
				{
					"anonymous": false,
					"inputs": [
						{
							"indexed": true,
							"internalType": "address",
							"name": "_wallet",
							"type": "address"
						},
						{
							"indexed": true,
							"internalType": "address",
							"name": "_signer",
							"type": "address"
						}
					],
					"name": "RequiredSigner",
					"type": "event"
				},
				{
					"inputs": [
						{
							"internalType": "address",
							"name": "",
							"type": "address"
						}
					],
					"name": "knownImageHashes",
					"outputs": [
						{
							"internalType": "bytes32",
							"name": "",
							"type": "bytes32"
						}
					],
					"stateMutability": "view",
					"type": "function"
				},
				{
					"inputs": [
						{
							"internalType": "bytes32",
							"name": "",
							"type": "bytes32"
						}
					],
					"name": "lastImageHashUpdate",
					"outputs": [
						{
							"internalType": "uint256",
							"name": "",
							"type": "uint256"
						}
					],
					"stateMutability": "view",
					"type": "function"
				},
				{
					"inputs": [
						{
							"internalType": "address",
							"name": "",
							"type": "address"
						}
					],
					"name": "lastSignerUpdate",
					"outputs": [
						{
							"internalType": "uint256",
							"name": "",
							"type": "uint256"
						}
					],
					"stateMutability": "view",
					"type": "function"
				},
				{
					"inputs": [
						{
							"internalType": "address",
							"name": "",
							"type": "address"
						}
					],
					"name": "lastWalletUpdate",
					"outputs": [
						{
							"internalType": "uint256",
							"name": "",
							"type": "uint256"
						}
					],
					"stateMutability": "view",
					"type": "function"
				},
				{
					"inputs": [
						{
							"internalType": "address",
							"name": "_wallet",
							"type": "address"
						},
						{
							"internalType": "uint256",
							"name": "_threshold",
							"type": "uint256"
						},
						{
							"components": [
								{
									"internalType": "uint256",
									"name": "weight",
									"type": "uint256"
								},
								{
									"internalType": "address",
									"name": "signer",
									"type": "address"
								}
							],
							"internalType": "struct RequireUtils.Member[]",
							"name": "_members",
							"type": "tuple[]"
						},
						{
							"internalType": "bool",
							"name": "_index",
							"type": "bool"
						}
					],
					"name": "publishConfig",
					"outputs": [],
					"stateMutability": "nonpayable",
					"type": "function"
				},
				{
					"inputs": [
						{
							"internalType": "address",
							"name": "_wallet",
							"type": "address"
						},
						{
							"internalType": "bytes32",
							"name": "_hash",
							"type": "bytes32"
						},
						{
							"internalType": "uint256",
							"name": "_sizeMembers",
							"type": "uint256"
						},
						{
							"internalType": "bytes",
							"name": "_signature",
							"type": "bytes"
						},
						{
							"internalType": "bool",
							"name": "_index",
							"type": "bool"
						}
					],
					"name": "publishInitialSigners",
					"outputs": [],
					"stateMutability": "nonpayable",
					"type": "function"
				},
				{
					"inputs": [
						{
							"internalType": "address",
							"name": "_wallet",
							"type": "address"
						},
						{
							"internalType": "uint256",
							"name": "_nonce",
							"type": "uint256"
						}
					],
					"name": "requireMinNonce",
					"outputs": [],
					"stateMutability": "view",
					"type": "function"
				},
				{
					"inputs": [
						{
							"internalType": "uint256",
							"name": "_expiration",
							"type": "uint256"
						}
					],
					"name": "requireNonExpired",
					"outputs": [],
					"stateMutability": "view",
					"type": "function"
				}
			],
			"devdoc": {
				"kind": "dev",
				"methods": {
					"publishConfig(address,uint256,(uint256,address)[],bool)": {
						"details": "Used for fast lookup of a wallet configuration based on its image-hash, compatible with updated and counter-factual wallets.",
						"params": {
							"_index": "True if an index in contract-storage is desired ",
							"_members": "Members of the current configuration",
							"_threshold": "Thershold of the current configuration",
							"_wallet": "Sequence wallet"
						}
					},
					"publishInitialSigners(address,bytes32,uint256,bytes,bool)": {
						"details": "Used for fast lookup of a wallet based on its signer members, only signing members are included in the logs   as a mechanism to avoid poisoning of the directory of wallets.   Only the initial counter-factual configuration can be published, to publish updated configurations see `publishConfig`.",
						"params": {
							"_hash": "Any hash signed by the wallet",
							"_index": "True if an index in contract-storage is desired ",
							"_signature": "Signature for the given hash",
							"_sizeMembers": "Number of members on the counter-factual configuration",
							"_wallet": "Sequence wallet"
						}
					},
					"requireMinNonce(address,uint256)": {
						"details": "Used as an optional transaction on a Sequence batch, to define transaction execution order",
						"params": {
							"_nonce": "Required nonce",
							"_wallet": "Sequence wallet"
						}
					},
					"requireNonExpired(uint256)": {
						"details": "Used as an optional transaction on a Sequence batch, to create expirable transactions.",
						"params": {
							"_expiration": "Expiration to check"
						}
					}
				},
				"version": 1
			},
			"evm": {
				"bytecode": {
					"linkReferences": {},
					"object": "60c06040523480156200001157600080fd5b5060405162002183380380620021838339810160408190526200003491620000bb565b606082811b6001600160601b03191660a05260408051918201905260288082526200215b6020830139816001600160a01b03166040516020016200007a929190620000f2565b60408051601f19818403018152919052805160209091012060805250620001349050565b80516001600160a01b0381168114620000b657600080fd5b919050565b60008060408385031215620000ce578182fd5b620000d9836200009e565b9150620000e9602084016200009e565b90509250929050565b60008351815b81811015620001145760208187018101518583015201620000f8565b81811115620001235782828501525b509190910191825250602001919050565b60805160a05160601c611ff66200016560003980610362528061080a525080610386528061082e5250611ff66000f3fe608060405234801561001057600080fd5b50600436106100885760003560e01c80637ae996381161005b5780637ae99638146100f15780637f29d53814610104578063b472f0a214610117578063e717aba91461012a57610088565b80631551f0ab1461008d5780631cd05dc4146100b657806344d466c2146100c95780637082503b146100de575b600080fd5b6100a061009b36600461174a565b61013d565b6040516100ad919061199d565b60405180910390f35b6100a06100c4366004611586565b61014f565b6100dc6100d73660046116ba565b610161565b005b6100dc6100ec3660046115a7565b61051b565b6100a06100ff366004611586565b61099f565b6100dc61011236600461174a565b6109b1565b6100dc610125366004611691565b6109ed565b6100a0610138366004611586565b610acb565b60036020526000908152604090205481565b60006020819052908152604090205481565b8360005b838110156101fa578185858381811061017a57fe5b9050604002016000013586868481811061019057fe5b90506040020160200160208101906101a89190611586565b6040516020016101ba939291906119a6565b604080517fffffffffffffffffffffffffffffffffffffffffffffffffffffffffffffffe081840301815291905280516020909101209150600101610165565b506000808773ffffffffffffffffffffffffffffffffffffffff166351605d8060e01b60405160200161022d9190611828565b604080517fffffffffffffffffffffffffffffffffffffffffffffffffffffffffffffffe08184030181529082905261026591611855565b6000604051808303816000865af19150503d80600081146102a2576040519150601f19603f3d011682016040523d82523d6000602084013e6102a7565b606091505b50915091508180156102ba575080516020145b1561031f576000818060200190518101906102d59190611762565b9050838114610319576040517f08c379a000000000000000000000000000000000000000000000000000000000815260040161031090611c26565b60405180910390fd5b50610443565b60405173ffffffffffffffffffffffffffffffffffffffff8916906103ae907fff00000000000000000000000000000000000000000000000000000000000000907f00000000000000000000000000000000000000000000000000000000000000009087907f0000000000000000000000000000000000000000000000000000000000000000906020016117c4565b6040516020818303038152906040528051906020012060001c73ffffffffffffffffffffffffffffffffffffffff1614610414576040517f08c379a000000000000000000000000000000000000000000000000000000000815260040161031090611c83565b83156104435773ffffffffffffffffffffffffffffffffffffffff881660009081526002602052604090208390555b828873ffffffffffffffffffffffffffffffffffffffff167fb502b7446ca079086188acf3abef47c2f464f2ee9a72fcdf05ffcb74dcc17cee8989896040516020016104909291906118d4565b604080517fffffffffffffffffffffffffffffffffffffffffffffffffffffffffffffffe0818403018152908290526104c99291611d06565b60405180910390a383156105115773ffffffffffffffffffffffffffffffffffffffff8816600090815260016020908152604080832043908190558684526003909252909120555b5050505050505050565b60008061052784610add565b9150915060008046905080898960405160200161054693929190611871565b604080517fffffffffffffffffffffffffffffffffffffffffffffffffffffffffffffffe0818403018152919052805160209091012091505061ffff831660008767ffffffffffffffff8111801561059d57600080fd5b506040519080825280602002602001820160405280156105d757816020015b6105c4611536565b8152602001906001900390816105bc5790505b50905060005b875185101561078e57600080806105f48b89610b4b565b995060ff9182169450169150600183141561061c576106138b89610bcc565b9850905061070f565b8261064e57606061062d8c8a610c44565b9950905061063b8882610cf5565b91506106488f838d61107f565b5061070f565b60028314156106dd576106618b89610bcc565b9850905060006106718c8a61110d565b995061ffff16905060606106868d8b8461117e565b9a50905061069589848361126d565b6106cb576040517f08c379a000000000000000000000000000000000000000000000000000000000815260040161031090611b6c565b50506106d88e828c61107f565b61070f565b6040517f08c379a0000000000000000000000000000000000000000000000000000000008152600401610310906119d2565b60405180604001604052808381526020018273ffffffffffffffffffffffffffffffffffffffff1681525085858151811061074657fe5b6020026020010181905250838060010194505085828260405160200161076e939291906119a6565b6040516020818303038152906040528051906020012095505050506105dd565b8881146107c7576040517f08c379a000000000000000000000000000000000000000000000000000000000815260040161031090611bc9565b60405173ffffffffffffffffffffffffffffffffffffffff8c1690610856907fff00000000000000000000000000000000000000000000000000000000000000907f00000000000000000000000000000000000000000000000000000000000000009087907f0000000000000000000000000000000000000000000000000000000000000000906020016117c4565b6040516020818303038152906040528051906020012060001c73ffffffffffffffffffffffffffffffffffffffff16146108bc576040517f08c379a000000000000000000000000000000000000000000000000000000000815260040161031090611ae9565b828b73ffffffffffffffffffffffffffffffffffffffff167fb502b7446ca079086188acf3abef47c2f464f2ee9a72fcdf05ffcb74dcc17cee88856040516020016109079190611938565b604080517fffffffffffffffffffffffffffffffffffffffffffffffffffffffffffffffe0818403018152908290526109409291611ce1565b60405180910390a386156109925773ffffffffffffffffffffffffffffffffffffffff8b1660008181526001602090815260408083204390819055878452600383528184205592825260029052208390555b5050505050505050505050565b60026020526000908152604090205481565b8042106109ea576040517f08c379a000000000000000000000000000000000000000000000000000000000815260040161031090611a8c565b50565b6000806109f9836114b5565b9150915060008473ffffffffffffffffffffffffffffffffffffffff16638c3f5563846040518263ffffffff1660e01b8152600401610a38919061199d565b60206040518083038186803b158015610a5057600080fd5b505afa158015610a64573d6000803e3d6000fd5b505050506040513d601f19601f82011682018060405250810190610a889190611762565b905081811015610ac4576040517f08c379a000000000000000000000000000000000000000000000000000000000815260040161031090611a2f565b5050505050565b60016020526000908152604090205481565b6020810151815160f09190911c90600290811115610b46576040517f08c379a0000000000000000000000000000000000000000000000000000000008152600401808060200182810382526027815260200180611dea6027913960400191505060405180910390fd5b915091565b8082016020015160f881901c9060f01c60ff1660028301838111610b6b57fe5b8451811115610bc5576040517f08c379a0000000000000000000000000000000000000000000000000000000008152600401808060200182810382526026815260200180611f1c6026913960400191505060405180910390fd5b9250925092565b8082016020015160601c60148201828111610be357fe5b8351811115610c3d576040517f08c379a0000000000000000000000000000000000000000000000000000000008152600401808060200182810382526023815260200180611dc76023913960400191505060405180910390fd5b9250929050565b604080516042808252608082019092526060916000919060208201818036833701905050915082840160200180516020840152602081015160408401526022810151604284015250604283019050828111610c9b57fe5b8351811115610c3d576040517f08c379a0000000000000000000000000000000000000000000000000000000008152600401808060200182810382526023815260200180611ebd6023913960400191505060405180910390fd5b60008151604214610d51576040517f08c379a000000000000000000000000000000000000000000000000000000000815260040180806020018281038252603a815260200180611d8d603a913960400191505060405180910390fd5b600082600184510381518110610d6357fe5b602001015160f81c60f81b60f81c60ff169050600083604081518110610d8557fe5b016020015160f81c90506000610d9b85826114ce565b90506000610daa8660206114ce565b90507f7fffffffffffffffffffffffffffffff5d576e7357a4501ddfe92f46681b20a0811115610e25576040517f08c379a000000000000000000000000000000000000000000000000000000000815260040180806020018281038252603d815260200180611d50603d913960400191505060405180910390fd5b8260ff16601b14158015610e3d57508260ff16601c14155b15610e93576040517f08c379a000000000000000000000000000000000000000000000000000000000815260040180806020018281038252603d815260200180611e11603d913960400191505060405180910390fd5b6001841415610f075760018784848460405160008152602001604052604051808581526020018460ff1681526020018381526020018281526020019450505050506020604051602081039080840390855afa158015610ef6573d6000803e3d6000fd5b505050602060405103519450611009565b6002841415610fb85760018760405160200180807f19457468657265756d205369676e6564204d6573736167653a0a333200000000815250601c018281526020019150506040516020818303038152906040528051906020012084848460405160008152602001604052604051808581526020018460ff1681526020018381526020018281526020019450505050506020604051602081039080840390855afa158015610ef6573d6000803e3d6000fd5b6040517f08c379a000000000000000000000000000000000000000000000000000000000815260040180806020018281038252603c815260200180611ee0603c913960400191505060405180910390fd5b73ffffffffffffffffffffffffffffffffffffffff8516611075576040517f08c379a0000000000000000000000000000000000000000000000000000000008152600401808060200182810382526030815260200180611e4e6030913960400191505060405180910390fd5b5050505092915050565b8173ffffffffffffffffffffffffffffffffffffffff168373ffffffffffffffffffffffffffffffffffffffff167f600ba597427f042bcd559a0d06fa1732cc104d6dd43cbe8845b5a0e804b2b39f60405160405180910390a380156111085773ffffffffffffffffffffffffffffffffffffffff821660009081526020819052604090204390555b505050565b8082016020015160f01c6002820182811161112457fe5b8351811115610c3d576040517f08c379a0000000000000000000000000000000000000000000000000000000008152600401808060200182810382526022815260200180611f636022913960400191505060405180910390fd5b606060008267ffffffffffffffff8111801561119957600080fd5b506040519080825280601f01601f1916602001820160405280156111c4576020820181803683370190505b509150838501602001600060205b858110156111eb579082015184820152602081016111d2565b848601602001805193909201519085015252508282018381101561120b57fe5b8451811115611265576040517f08c379a0000000000000000000000000000000000000000000000000000000008152600401808060200182810382526021815260200180611f426021913960400191505060405180910390fd5b935093915050565b6000808260018451038151811061128057fe5b016020015160f81c905060018114806112995750600281145b156112dd578373ffffffffffffffffffffffffffffffffffffffff166112bf8685610cf5565b73ffffffffffffffffffffffffffffffffffffffff161491506114ad565b600381141561145c5782517fffffffffffffffffffffffffffffffffffffffffffffffffffffffffffffffff81018452604080517f1626ba7e000000000000000000000000000000000000000000000000000000008152600481018881526024820192835286516044830152865173ffffffffffffffffffffffffffffffffffffffff891693631626ba7e938b938a9390929160640190602085019080838360005b8381101561139757818101518382015260200161137f565b50505050905090810190601f1680156113c45780820380516001836020036101000a031916815260200191505b50935050505060206040518083038186803b1580156113e257600080fd5b505afa1580156113f6573d6000803e3d6000fd5b505050506040513d602081101561140c57600080fd5b50519084527fffffffff00000000000000000000000000000000000000000000000000000000167f1626ba7e000000000000000000000000000000000000000000000000000000001491506114ad565b6040517f08c379a000000000000000000000000000000000000000000000000000000000815260040180806020018281038252603f815260200180611e7e603f913960400191505060405180910390fd5b509392505050565b606081901c916bffffffffffffffffffffffff90911690565b6000816020018351101561152d576040517f08c379a000000000000000000000000000000000000000000000000000000000815260040180806020018281038252603c815260200180611f85603c913960400191505060405180910390fd5b50016020015190565b604080518082019091526000808252602082015290565b803573ffffffffffffffffffffffffffffffffffffffff8116811461157157600080fd5b919050565b8035801515811461157157600080fd5b600060208284031215611597578081fd5b6115a08261154d565b9392505050565b600080600080600060a086880312156115be578081fd5b6115c78661154d565b9450602080870135945060408701359350606087013567ffffffffffffffff808211156115f2578384fd5b818901915089601f830112611605578384fd5b81358181111561161157fe5b604051847fffffffffffffffffffffffffffffffffffffffffffffffffffffffffffffffe0601f840116820101818110848211171561164c57fe5b60405281815283820185018c1015611662578586fd5b818585018683013785858383010152809650505050505061168560808701611576565b90509295509295909350565b600080604083850312156116a3578182fd5b6116ac8361154d565b946020939093013593505050565b6000806000806000608086880312156116d1578081fd5b6116da8661154d565b945060208601359350604086013567ffffffffffffffff808211156116fd578283fd5b818801915088601f830112611710578283fd5b81358181111561171e578384fd5b896020604083028501011115611732578384fd5b60208301955080945050505061168560608701611576565b60006020828403121561175b578081fd5b5035919050565b600060208284031215611773578081fd5b5051919050565b60008151808452611792816020860160208601611d1f565b601f017fffffffffffffffffffffffffffffffffffffffffffffffffffffffffffffffe0169290920160200192915050565b7fff0000000000000000000000000000000000000000000000000000000000000094909416845260609290921b7fffffffffffffffffffffffffffffffffffffffff0000000000000000000000001660018401526015830152603582015260550190565b7fffffffff0000000000000000000000000000000000000000000000000000000091909116815260040190565b60008251611867818460208701611d1f565b9190910192915050565b7f19010000000000000000000000000000000000000000000000000000000000008152600281019390935260609190911b7fffffffffffffffffffffffffffffffffffffffff000000000000000000000000166022830152603682015260560190565b6020808252818101839052600090604080840186845b8781101561192b578135835273ffffffffffffffffffffffffffffffffffffffff61191686840161154d565b168386015291830191908301906001016118ea565b5090979650505050505050565b602080825282518282018190526000919060409081850190868401855b828110156119905781518051855286015173ffffffffffffffffffffffffffffffffffffffff16868501529284019290850190600101611955565b5091979650505050505050565b90815260200190565b928352602083019190915273ffffffffffffffffffffffffffffffffffffffff16604082015260600190565b6020808252603a908201527f526571756972655574696c73237075626c697368496e697469616c5369676e6560408201527f72733a20494e56414c49445f5349474e41545552455f464c4147000000000000606082015260800190565b60208082526032908201527f526571756972655574696c7323726571756972654d696e4e6f6e63653a204e4f60408201527f4e43455f42454c4f575f52455155495245440000000000000000000000000000606082015260800190565b60208082526027908201527f526571756972655574696c7323726571756972654e6f6e457870697265643a2060408201527f4558504952454400000000000000000000000000000000000000000000000000606082015260800190565b60208082526048908201527f526571756972655574696c73237075626c697368496e697469616c5369676e6560408201527f72733a20554e45585045435445445f434f554e5445524641435455414c5f494d60608201527f4147455f48415348000000000000000000000000000000000000000000000000608082015260a00190565b60208082526032908201527f4d6f64756c6541757468235f7369676e617475726556616c69646174696f6e3a60408201527f20494e56414c49445f5349474e41545552450000000000000000000000000000606082015260800190565b60208082526039908201527f526571756972655574696c73237075626c697368496e697469616c5369676e6560408201527f72733a20494e56414c49445f4d454d424552535f434f554e5400000000000000606082015260800190565b60208082526031908201527f526571756972655574696c73237075626c697368436f6e6669673a20554e455860408201527f5045435445445f494d4147455f48415348000000000000000000000000000000606082015260800190565b602080825260409082018190527f526571756972655574696c73237075626c697368436f6e6669673a20554e4558908201527f5045435445445f434f554e5445524641435455414c5f494d4147455f48415348606082015260800190565b600061ffff8416825260406020830152611cfe604083018461177a565b949350505050565b600083825260406020830152611cfe604083018461177a565b60005b83811015611d3a578181015183820152602001611d22565b83811115611d49576000848401525b5050505056fe5369676e617475726556616c696461746f72237265636f7665725369676e65723a20696e76616c6964207369676e6174757265202773272076616c75655369676e617475726556616c696461746f72237265636f7665725369676e65723a20696e76616c6964207369676e6174757265206c656e6774684c696242797465732372656164416464726573733a204f55545f4f465f424f554e44534c696242797465732372656164466972737455696e7431363a204f55545f4f465f424f554e44535369676e617475726556616c696461746f72237265636f7665725369676e65723a20696e76616c6964207369676e6174757265202776272076616c75655369676e617475726556616c696461746f72237265636f7665725369676e65723a20494e56414c49445f5349474e45525369676e617475726556616c696461746f7223697356616c69645369676e61747572653a20554e535550504f525445445f5349474e41545552455f545950454c696242797465732372656164427974657336363a204f55545f4f465f424f554e44535369676e617475726556616c696461746f72237265636f7665725369676e65723a20554e535550504f525445445f5349474e41545552455f545950454c69624279746573237265616455696e743855696e74383a204f55545f4f465f424f554e44534c69624279746573237265616442797465733a204f55545f4f465f424f554e44534c69624279746573237265616455696e7431363a204f55545f4f465f424f554e44534c696242797465732372656164427974657333323a20475245415445525f4f525f455155414c5f544f5f33325f4c454e4754485f5245515549524544a2646970667358221220d5668bd52704a70648c2816078f9518f517983d8e974c2ff3425e71d0b4ff84864736f6c63430007060033603a600e3d39601a805130553df3363d3d373d3d3d363d30545af43d82803e903d91601857fd5bf3",
					"opcodes": "PUSH1 0xC0 PUSH1 0x40 MSTORE CALLVALUE DUP1 ISZERO PUSH3 0x11 JUMPI PUSH1 0x0 DUP1 REVERT JUMPDEST POP PUSH1 0x40 MLOAD PUSH3 0x2183 CODESIZE SUB DUP1 PUSH3 0x2183 DUP4 CODECOPY DUP2 ADD PUSH1 0x40 DUP2 SWAP1 MSTORE PUSH3 0x34 SWAP2 PUSH3 0xBB JUMP JUMPDEST PUSH1 0x60 DUP3 DUP2 SHL PUSH1 0x1 PUSH1 0x1 PUSH1 0x60 SHL SUB NOT AND PUSH1 0xA0 MSTORE PUSH1 0x40 DUP1 MLOAD SWAP2 DUP3 ADD SWAP1 MSTORE PUSH1 0x28 DUP1 DUP3 MSTORE PUSH3 0x215B PUSH1 0x20 DUP4 ADD CODECOPY DUP2 PUSH1 0x1 PUSH1 0x1 PUSH1 0xA0 SHL SUB AND PUSH1 0x40 MLOAD PUSH1 0x20 ADD PUSH3 0x7A SWAP3 SWAP2 SWAP1 PUSH3 0xF2 JUMP JUMPDEST PUSH1 0x40 DUP1 MLOAD PUSH1 0x1F NOT DUP2 DUP5 SUB ADD DUP2 MSTORE SWAP2 SWAP1 MSTORE DUP1 MLOAD PUSH1 0x20 SWAP1 SWAP2 ADD KECCAK256 PUSH1 0x80 MSTORE POP PUSH3 0x134 SWAP1 POP JUMP JUMPDEST DUP1 MLOAD PUSH1 0x1 PUSH1 0x1 PUSH1 0xA0 SHL SUB DUP2 AND DUP2 EQ PUSH3 0xB6 JUMPI PUSH1 0x0 DUP1 REVERT JUMPDEST SWAP2 SWAP1 POP JUMP JUMPDEST PUSH1 0x0 DUP1 PUSH1 0x40 DUP4 DUP6 SUB SLT ISZERO PUSH3 0xCE JUMPI DUP2 DUP3 REVERT JUMPDEST PUSH3 0xD9 DUP4 PUSH3 0x9E JUMP JUMPDEST SWAP2 POP PUSH3 0xE9 PUSH1 0x20 DUP5 ADD PUSH3 0x9E JUMP JUMPDEST SWAP1 POP SWAP3 POP SWAP3 SWAP1 POP JUMP JUMPDEST PUSH1 0x0 DUP4 MLOAD DUP2 JUMPDEST DUP2 DUP2 LT ISZERO PUSH3 0x114 JUMPI PUSH1 0x20 DUP2 DUP8 ADD DUP2 ADD MLOAD DUP6 DUP4 ADD MSTORE ADD PUSH3 0xF8 JUMP JUMPDEST DUP2 DUP2 GT ISZERO PUSH3 0x123 JUMPI DUP3 DUP3 DUP6 ADD MSTORE JUMPDEST POP SWAP2 SWAP1 SWAP2 ADD SWAP2 DUP3 MSTORE POP PUSH1 0x20 ADD SWAP2 SWAP1 POP JUMP JUMPDEST PUSH1 0x80 MLOAD PUSH1 0xA0 MLOAD PUSH1 0x60 SHR PUSH2 0x1FF6 PUSH3 0x165 PUSH1 0x0 CODECOPY DUP1 PUSH2 0x362 MSTORE DUP1 PUSH2 0x80A MSTORE POP DUP1 PUSH2 0x386 MSTORE DUP1 PUSH2 0x82E MSTORE POP PUSH2 0x1FF6 PUSH1 0x0 RETURN INVALID PUSH1 0x80 PUSH1 0x40 MSTORE CALLVALUE DUP1 ISZERO PUSH2 0x10 JUMPI PUSH1 0x0 DUP1 REVERT JUMPDEST POP PUSH1 0x4 CALLDATASIZE LT PUSH2 0x88 JUMPI PUSH1 0x0 CALLDATALOAD PUSH1 0xE0 SHR DUP1 PUSH4 0x7AE99638 GT PUSH2 0x5B JUMPI DUP1 PUSH4 0x7AE99638 EQ PUSH2 0xF1 JUMPI DUP1 PUSH4 0x7F29D538 EQ PUSH2 0x104 JUMPI DUP1 PUSH4 0xB472F0A2 EQ PUSH2 0x117 JUMPI DUP1 PUSH4 0xE717ABA9 EQ PUSH2 0x12A JUMPI PUSH2 0x88 JUMP JUMPDEST DUP1 PUSH4 0x1551F0AB EQ PUSH2 0x8D JUMPI DUP1 PUSH4 0x1CD05DC4 EQ PUSH2 0xB6 JUMPI DUP1 PUSH4 0x44D466C2 EQ PUSH2 0xC9 JUMPI DUP1 PUSH4 0x7082503B EQ PUSH2 0xDE JUMPI JUMPDEST PUSH1 0x0 DUP1 REVERT JUMPDEST PUSH2 0xA0 PUSH2 0x9B CALLDATASIZE PUSH1 0x4 PUSH2 0x174A JUMP JUMPDEST PUSH2 0x13D JUMP JUMPDEST PUSH1 0x40 MLOAD PUSH2 0xAD SWAP2 SWAP1 PUSH2 0x199D JUMP JUMPDEST PUSH1 0x40 MLOAD DUP1 SWAP2 SUB SWAP1 RETURN JUMPDEST PUSH2 0xA0 PUSH2 0xC4 CALLDATASIZE PUSH1 0x4 PUSH2 0x1586 JUMP JUMPDEST PUSH2 0x14F JUMP JUMPDEST PUSH2 0xDC PUSH2 0xD7 CALLDATASIZE PUSH1 0x4 PUSH2 0x16BA JUMP JUMPDEST PUSH2 0x161 JUMP JUMPDEST STOP JUMPDEST PUSH2 0xDC PUSH2 0xEC CALLDATASIZE PUSH1 0x4 PUSH2 0x15A7 JUMP JUMPDEST PUSH2 0x51B JUMP JUMPDEST PUSH2 0xA0 PUSH2 0xFF CALLDATASIZE PUSH1 0x4 PUSH2 0x1586 JUMP JUMPDEST PUSH2 0x99F JUMP JUMPDEST PUSH2 0xDC PUSH2 0x112 CALLDATASIZE PUSH1 0x4 PUSH2 0x174A JUMP JUMPDEST PUSH2 0x9B1 JUMP JUMPDEST PUSH2 0xDC PUSH2 0x125 CALLDATASIZE PUSH1 0x4 PUSH2 0x1691 JUMP JUMPDEST PUSH2 0x9ED JUMP JUMPDEST PUSH2 0xA0 PUSH2 0x138 CALLDATASIZE PUSH1 0x4 PUSH2 0x1586 JUMP JUMPDEST PUSH2 0xACB JUMP JUMPDEST PUSH1 0x3 PUSH1 0x20 MSTORE PUSH1 0x0 SWAP1 DUP2 MSTORE PUSH1 0x40 SWAP1 KECCAK256 SLOAD DUP2 JUMP JUMPDEST PUSH1 0x0 PUSH1 0x20 DUP2 SWAP1 MSTORE SWAP1 DUP2 MSTORE PUSH1 0x40 SWAP1 KECCAK256 SLOAD DUP2 JUMP JUMPDEST DUP4 PUSH1 0x0 JUMPDEST DUP4 DUP2 LT ISZERO PUSH2 0x1FA JUMPI DUP2 DUP6 DUP6 DUP4 DUP2 DUP2 LT PUSH2 0x17A JUMPI INVALID JUMPDEST SWAP1 POP PUSH1 0x40 MUL ADD PUSH1 0x0 ADD CALLDATALOAD DUP7 DUP7 DUP5 DUP2 DUP2 LT PUSH2 0x190 JUMPI INVALID JUMPDEST SWAP1 POP PUSH1 0x40 MUL ADD PUSH1 0x20 ADD PUSH1 0x20 DUP2 ADD SWAP1 PUSH2 0x1A8 SWAP2 SWAP1 PUSH2 0x1586 JUMP JUMPDEST PUSH1 0x40 MLOAD PUSH1 0x20 ADD PUSH2 0x1BA SWAP4 SWAP3 SWAP2 SWAP1 PUSH2 0x19A6 JUMP JUMPDEST PUSH1 0x40 DUP1 MLOAD PUSH32 0xFFFFFFFFFFFFFFFFFFFFFFFFFFFFFFFFFFFFFFFFFFFFFFFFFFFFFFFFFFFFFFE0 DUP2 DUP5 SUB ADD DUP2 MSTORE SWAP2 SWAP1 MSTORE DUP1 MLOAD PUSH1 0x20 SWAP1 SWAP2 ADD KECCAK256 SWAP2 POP PUSH1 0x1 ADD PUSH2 0x165 JUMP JUMPDEST POP PUSH1 0x0 DUP1 DUP8 PUSH20 0xFFFFFFFFFFFFFFFFFFFFFFFFFFFFFFFFFFFFFFFF AND PUSH4 0x51605D80 PUSH1 0xE0 SHL PUSH1 0x40 MLOAD PUSH1 0x20 ADD PUSH2 0x22D SWAP2 SWAP1 PUSH2 0x1828 JUMP JUMPDEST PUSH1 0x40 DUP1 MLOAD PUSH32 0xFFFFFFFFFFFFFFFFFFFFFFFFFFFFFFFFFFFFFFFFFFFFFFFFFFFFFFFFFFFFFFE0 DUP2 DUP5 SUB ADD DUP2 MSTORE SWAP1 DUP3 SWAP1 MSTORE PUSH2 0x265 SWAP2 PUSH2 0x1855 JUMP JUMPDEST PUSH1 0x0 PUSH1 0x40 MLOAD DUP1 DUP4 SUB DUP2 PUSH1 0x0 DUP7 GAS CALL SWAP2 POP POP RETURNDATASIZE DUP1 PUSH1 0x0 DUP2 EQ PUSH2 0x2A2 JUMPI PUSH1 0x40 MLOAD SWAP2 POP PUSH1 0x1F NOT PUSH1 0x3F RETURNDATASIZE ADD AND DUP3 ADD PUSH1 0x40 MSTORE RETURNDATASIZE DUP3 MSTORE RETURNDATASIZE PUSH1 0x0 PUSH1 0x20 DUP5 ADD RETURNDATACOPY PUSH2 0x2A7 JUMP JUMPDEST PUSH1 0x60 SWAP2 POP JUMPDEST POP SWAP2 POP SWAP2 POP DUP2 DUP1 ISZERO PUSH2 0x2BA JUMPI POP DUP1 MLOAD PUSH1 0x20 EQ JUMPDEST ISZERO PUSH2 0x31F JUMPI PUSH1 0x0 DUP2 DUP1 PUSH1 0x20 ADD SWAP1 MLOAD DUP2 ADD SWAP1 PUSH2 0x2D5 SWAP2 SWAP1 PUSH2 0x1762 JUMP JUMPDEST SWAP1 POP DUP4 DUP2 EQ PUSH2 0x319 JUMPI PUSH1 0x40 MLOAD PUSH32 0x8C379A000000000000000000000000000000000000000000000000000000000 DUP2 MSTORE PUSH1 0x4 ADD PUSH2 0x310 SWAP1 PUSH2 0x1C26 JUMP JUMPDEST PUSH1 0x40 MLOAD DUP1 SWAP2 SUB SWAP1 REVERT JUMPDEST POP PUSH2 0x443 JUMP JUMPDEST PUSH1 0x40 MLOAD PUSH20 0xFFFFFFFFFFFFFFFFFFFFFFFFFFFFFFFFFFFFFFFF DUP10 AND SWAP1 PUSH2 0x3AE SWAP1 PUSH32 0xFF00000000000000000000000000000000000000000000000000000000000000 SWAP1 PUSH32 0x0 SWAP1 DUP8 SWAP1 PUSH32 0x0 SWAP1 PUSH1 0x20 ADD PUSH2 0x17C4 JUMP JUMPDEST PUSH1 0x40 MLOAD PUSH1 0x20 DUP2 DUP4 SUB SUB DUP2 MSTORE SWAP1 PUSH1 0x40 MSTORE DUP1 MLOAD SWAP1 PUSH1 0x20 ADD KECCAK256 PUSH1 0x0 SHR PUSH20 0xFFFFFFFFFFFFFFFFFFFFFFFFFFFFFFFFFFFFFFFF AND EQ PUSH2 0x414 JUMPI PUSH1 0x40 MLOAD PUSH32 0x8C379A000000000000000000000000000000000000000000000000000000000 DUP2 MSTORE PUSH1 0x4 ADD PUSH2 0x310 SWAP1 PUSH2 0x1C83 JUMP JUMPDEST DUP4 ISZERO PUSH2 0x443 JUMPI PUSH20 0xFFFFFFFFFFFFFFFFFFFFFFFFFFFFFFFFFFFFFFFF DUP9 AND PUSH1 0x0 SWAP1 DUP2 MSTORE PUSH1 0x2 PUSH1 0x20 MSTORE PUSH1 0x40 SWAP1 KECCAK256 DUP4 SWAP1 SSTORE JUMPDEST DUP3 DUP9 PUSH20 0xFFFFFFFFFFFFFFFFFFFFFFFFFFFFFFFFFFFFFFFF AND PUSH32 0xB502B7446CA079086188ACF3ABEF47C2F464F2EE9A72FCDF05FFCB74DCC17CEE DUP10 DUP10 DUP10 PUSH1 0x40 MLOAD PUSH1 0x20 ADD PUSH2 0x490 SWAP3 SWAP2 SWAP1 PUSH2 0x18D4 JUMP JUMPDEST PUSH1 0x40 DUP1 MLOAD PUSH32 0xFFFFFFFFFFFFFFFFFFFFFFFFFFFFFFFFFFFFFFFFFFFFFFFFFFFFFFFFFFFFFFE0 DUP2 DUP5 SUB ADD DUP2 MSTORE SWAP1 DUP3 SWAP1 MSTORE PUSH2 0x4C9 SWAP3 SWAP2 PUSH2 0x1D06 JUMP JUMPDEST PUSH1 0x40 MLOAD DUP1 SWAP2 SUB SWAP1 LOG3 DUP4 ISZERO PUSH2 0x511 JUMPI PUSH20 0xFFFFFFFFFFFFFFFFFFFFFFFFFFFFFFFFFFFFFFFF DUP9 AND PUSH1 0x0 SWAP1 DUP2 MSTORE PUSH1 0x1 PUSH1 0x20 SWAP1 DUP2 MSTORE PUSH1 0x40 DUP1 DUP4 KECCAK256 NUMBER SWAP1 DUP2 SWAP1 SSTORE DUP7 DUP5 MSTORE PUSH1 0x3 SWAP1 SWAP3 MSTORE SWAP1 SWAP2 KECCAK256 SSTORE JUMPDEST POP POP POP POP POP POP POP POP JUMP JUMPDEST PUSH1 0x0 DUP1 PUSH2 0x527 DUP5 PUSH2 0xADD JUMP JUMPDEST SWAP2 POP SWAP2 POP PUSH1 0x0 DUP1 CHAINID SWAP1 POP DUP1 DUP10 DUP10 PUSH1 0x40 MLOAD PUSH1 0x20 ADD PUSH2 0x546 SWAP4 SWAP3 SWAP2 SWAP1 PUSH2 0x1871 JUMP JUMPDEST PUSH1 0x40 DUP1 MLOAD PUSH32 0xFFFFFFFFFFFFFFFFFFFFFFFFFFFFFFFFFFFFFFFFFFFFFFFFFFFFFFFFFFFFFFE0 DUP2 DUP5 SUB ADD DUP2 MSTORE SWAP2 SWAP1 MSTORE DUP1 MLOAD PUSH1 0x20 SWAP1 SWAP2 ADD KECCAK256 SWAP2 POP POP PUSH2 0xFFFF DUP4 AND PUSH1 0x0 DUP8 PUSH8 0xFFFFFFFFFFFFFFFF DUP2 GT DUP1 ISZERO PUSH2 0x59D JUMPI PUSH1 0x0 DUP1 REVERT JUMPDEST POP PUSH1 0x40 MLOAD SWAP1 DUP1 DUP3 MSTORE DUP1 PUSH1 0x20 MUL PUSH1 0x20 ADD DUP3 ADD PUSH1 0x40 MSTORE DUP1 ISZERO PUSH2 0x5D7 JUMPI DUP2 PUSH1 0x20 ADD JUMPDEST PUSH2 0x5C4 PUSH2 0x1536 JUMP JUMPDEST DUP2 MSTORE PUSH1 0x20 ADD SWAP1 PUSH1 0x1 SWAP1 SUB SWAP1 DUP2 PUSH2 0x5BC JUMPI SWAP1 POP JUMPDEST POP SWAP1 POP PUSH1 0x0 JUMPDEST DUP8 MLOAD DUP6 LT ISZERO PUSH2 0x78E JUMPI PUSH1 0x0 DUP1 DUP1 PUSH2 0x5F4 DUP12 DUP10 PUSH2 0xB4B JUMP JUMPDEST SWAP10 POP PUSH1 0xFF SWAP2 DUP3 AND SWAP5 POP AND SWAP2 POP PUSH1 0x1 DUP4 EQ ISZERO PUSH2 0x61C JUMPI PUSH2 0x613 DUP12 DUP10 PUSH2 0xBCC JUMP JUMPDEST SWAP9 POP SWAP1 POP PUSH2 0x70F JUMP JUMPDEST DUP3 PUSH2 0x64E JUMPI PUSH1 0x60 PUSH2 0x62D DUP13 DUP11 PUSH2 0xC44 JUMP JUMPDEST SWAP10 POP SWAP1 POP PUSH2 0x63B DUP9 DUP3 PUSH2 0xCF5 JUMP JUMPDEST SWAP2 POP PUSH2 0x648 DUP16 DUP4 DUP14 PUSH2 0x107F JUMP JUMPDEST POP PUSH2 0x70F JUMP JUMPDEST PUSH1 0x2 DUP4 EQ ISZERO PUSH2 0x6DD JUMPI PUSH2 0x661 DUP12 DUP10 PUSH2 0xBCC JUMP JUMPDEST SWAP9 POP SWAP1 POP PUSH1 0x0 PUSH2 0x671 DUP13 DUP11 PUSH2 0x110D JUMP JUMPDEST SWAP10 POP PUSH2 0xFFFF AND SWAP1 POP PUSH1 0x60 PUSH2 0x686 DUP14 DUP12 DUP5 PUSH2 0x117E JUMP JUMPDEST SWAP11 POP SWAP1 POP PUSH2 0x695 DUP10 DUP5 DUP4 PUSH2 0x126D JUMP JUMPDEST PUSH2 0x6CB JUMPI PUSH1 0x40 MLOAD PUSH32 0x8C379A000000000000000000000000000000000000000000000000000000000 DUP2 MSTORE PUSH1 0x4 ADD PUSH2 0x310 SWAP1 PUSH2 0x1B6C JUMP JUMPDEST POP POP PUSH2 0x6D8 DUP15 DUP3 DUP13 PUSH2 0x107F JUMP JUMPDEST PUSH2 0x70F JUMP JUMPDEST PUSH1 0x40 MLOAD PUSH32 0x8C379A000000000000000000000000000000000000000000000000000000000 DUP2 MSTORE PUSH1 0x4 ADD PUSH2 0x310 SWAP1 PUSH2 0x19D2 JUMP JUMPDEST PUSH1 0x40 MLOAD DUP1 PUSH1 0x40 ADD PUSH1 0x40 MSTORE DUP1 DUP4 DUP2 MSTORE PUSH1 0x20 ADD DUP3 PUSH20 0xFFFFFFFFFFFFFFFFFFFFFFFFFFFFFFFFFFFFFFFF AND DUP2 MSTORE POP DUP6 DUP6 DUP2 MLOAD DUP2 LT PUSH2 0x746 JUMPI INVALID JUMPDEST PUSH1 0x20 MUL PUSH1 0x20 ADD ADD DUP2 SWAP1 MSTORE POP DUP4 DUP1 PUSH1 0x1 ADD SWAP5 POP POP DUP6 DUP3 DUP3 PUSH1 0x40 MLOAD PUSH1 0x20 ADD PUSH2 0x76E SWAP4 SWAP3 SWAP2 SWAP1 PUSH2 0x19A6 JUMP JUMPDEST PUSH1 0x40 MLOAD PUSH1 0x20 DUP2 DUP4 SUB SUB DUP2 MSTORE SWAP1 PUSH1 0x40 MSTORE DUP1 MLOAD SWAP1 PUSH1 0x20 ADD KECCAK256 SWAP6 POP POP POP POP PUSH2 0x5DD JUMP JUMPDEST DUP9 DUP2 EQ PUSH2 0x7C7 JUMPI PUSH1 0x40 MLOAD PUSH32 0x8C379A000000000000000000000000000000000000000000000000000000000 DUP2 MSTORE PUSH1 0x4 ADD PUSH2 0x310 SWAP1 PUSH2 0x1BC9 JUMP JUMPDEST PUSH1 0x40 MLOAD PUSH20 0xFFFFFFFFFFFFFFFFFFFFFFFFFFFFFFFFFFFFFFFF DUP13 AND SWAP1 PUSH2 0x856 SWAP1 PUSH32 0xFF00000000000000000000000000000000000000000000000000000000000000 SWAP1 PUSH32 0x0 SWAP1 DUP8 SWAP1 PUSH32 0x0 SWAP1 PUSH1 0x20 ADD PUSH2 0x17C4 JUMP JUMPDEST PUSH1 0x40 MLOAD PUSH1 0x20 DUP2 DUP4 SUB SUB DUP2 MSTORE SWAP1 PUSH1 0x40 MSTORE DUP1 MLOAD SWAP1 PUSH1 0x20 ADD KECCAK256 PUSH1 0x0 SHR PUSH20 0xFFFFFFFFFFFFFFFFFFFFFFFFFFFFFFFFFFFFFFFF AND EQ PUSH2 0x8BC JUMPI PUSH1 0x40 MLOAD PUSH32 0x8C379A000000000000000000000000000000000000000000000000000000000 DUP2 MSTORE PUSH1 0x4 ADD PUSH2 0x310 SWAP1 PUSH2 0x1AE9 JUMP JUMPDEST DUP3 DUP12 PUSH20 0xFFFFFFFFFFFFFFFFFFFFFFFFFFFFFFFFFFFFFFFF AND PUSH32 0xB502B7446CA079086188ACF3ABEF47C2F464F2EE9A72FCDF05FFCB74DCC17CEE DUP9 DUP6 PUSH1 0x40 MLOAD PUSH1 0x20 ADD PUSH2 0x907 SWAP2 SWAP1 PUSH2 0x1938 JUMP JUMPDEST PUSH1 0x40 DUP1 MLOAD PUSH32 0xFFFFFFFFFFFFFFFFFFFFFFFFFFFFFFFFFFFFFFFFFFFFFFFFFFFFFFFFFFFFFFE0 DUP2 DUP5 SUB ADD DUP2 MSTORE SWAP1 DUP3 SWAP1 MSTORE PUSH2 0x940 SWAP3 SWAP2 PUSH2 0x1CE1 JUMP JUMPDEST PUSH1 0x40 MLOAD DUP1 SWAP2 SUB SWAP1 LOG3 DUP7 ISZERO PUSH2 0x992 JUMPI PUSH20 0xFFFFFFFFFFFFFFFFFFFFFFFFFFFFFFFFFFFFFFFF DUP12 AND PUSH1 0x0 DUP2 DUP2 MSTORE PUSH1 0x1 PUSH1 0x20 SWAP1 DUP2 MSTORE PUSH1 0x40 DUP1 DUP4 KECCAK256 NUMBER SWAP1 DUP2 SWAP1 SSTORE DUP8 DUP5 MSTORE PUSH1 0x3 DUP4 MSTORE DUP2 DUP5 KECCAK256 SSTORE SWAP3 DUP3 MSTORE PUSH1 0x2 SWAP1 MSTORE KECCAK256 DUP4 SWAP1 SSTORE JUMPDEST POP POP POP POP POP POP POP POP POP POP POP JUMP JUMPDEST PUSH1 0x2 PUSH1 0x20 MSTORE PUSH1 0x0 SWAP1 DUP2 MSTORE PUSH1 0x40 SWAP1 KECCAK256 SLOAD DUP2 JUMP JUMPDEST DUP1 TIMESTAMP LT PUSH2 0x9EA JUMPI PUSH1 0x40 MLOAD PUSH32 0x8C379A000000000000000000000000000000000000000000000000000000000 DUP2 MSTORE PUSH1 0x4 ADD PUSH2 0x310 SWAP1 PUSH2 0x1A8C JUMP JUMPDEST POP JUMP JUMPDEST PUSH1 0x0 DUP1 PUSH2 0x9F9 DUP4 PUSH2 0x14B5 JUMP JUMPDEST SWAP2 POP SWAP2 POP PUSH1 0x0 DUP5 PUSH20 0xFFFFFFFFFFFFFFFFFFFFFFFFFFFFFFFFFFFFFFFF AND PUSH4 0x8C3F5563 DUP5 PUSH1 0x40 MLOAD DUP3 PUSH4 0xFFFFFFFF AND PUSH1 0xE0 SHL DUP2 MSTORE PUSH1 0x4 ADD PUSH2 0xA38 SWAP2 SWAP1 PUSH2 0x199D JUMP JUMPDEST PUSH1 0x20 PUSH1 0x40 MLOAD DUP1 DUP4 SUB DUP2 DUP7 DUP1 EXTCODESIZE ISZERO DUP1 ISZERO PUSH2 0xA50 JUMPI PUSH1 0x0 DUP1 REVERT JUMPDEST POP GAS STATICCALL ISZERO DUP1 ISZERO PUSH2 0xA64 JUMPI RETURNDATASIZE PUSH1 0x0 DUP1 RETURNDATACOPY RETURNDATASIZE PUSH1 0x0 REVERT JUMPDEST POP POP POP POP PUSH1 0x40 MLOAD RETURNDATASIZE PUSH1 0x1F NOT PUSH1 0x1F DUP3 ADD AND DUP3 ADD DUP1 PUSH1 0x40 MSTORE POP DUP2 ADD SWAP1 PUSH2 0xA88 SWAP2 SWAP1 PUSH2 0x1762 JUMP JUMPDEST SWAP1 POP DUP2 DUP2 LT ISZERO PUSH2 0xAC4 JUMPI PUSH1 0x40 MLOAD PUSH32 0x8C379A000000000000000000000000000000000000000000000000000000000 DUP2 MSTORE PUSH1 0x4 ADD PUSH2 0x310 SWAP1 PUSH2 0x1A2F JUMP JUMPDEST POP POP POP POP POP JUMP JUMPDEST PUSH1 0x1 PUSH1 0x20 MSTORE PUSH1 0x0 SWAP1 DUP2 MSTORE PUSH1 0x40 SWAP1 KECCAK256 SLOAD DUP2 JUMP JUMPDEST PUSH1 0x20 DUP2 ADD MLOAD DUP2 MLOAD PUSH1 0xF0 SWAP2 SWAP1 SWAP2 SHR SWAP1 PUSH1 0x2 SWAP1 DUP2 GT ISZERO PUSH2 0xB46 JUMPI PUSH1 0x40 MLOAD PUSH32 0x8C379A000000000000000000000000000000000000000000000000000000000 DUP2 MSTORE PUSH1 0x4 ADD DUP1 DUP1 PUSH1 0x20 ADD DUP3 DUP2 SUB DUP3 MSTORE PUSH1 0x27 DUP2 MSTORE PUSH1 0x20 ADD DUP1 PUSH2 0x1DEA PUSH1 0x27 SWAP2 CODECOPY PUSH1 0x40 ADD SWAP2 POP POP PUSH1 0x40 MLOAD DUP1 SWAP2 SUB SWAP1 REVERT JUMPDEST SWAP2 POP SWAP2 JUMP JUMPDEST DUP1 DUP3 ADD PUSH1 0x20 ADD MLOAD PUSH1 0xF8 DUP2 SWAP1 SHR SWAP1 PUSH1 0xF0 SHR PUSH1 0xFF AND PUSH1 0x2 DUP4 ADD DUP4 DUP2 GT PUSH2 0xB6B JUMPI INVALID JUMPDEST DUP5 MLOAD DUP2 GT ISZERO PUSH2 0xBC5 JUMPI PUSH1 0x40 MLOAD PUSH32 0x8C379A000000000000000000000000000000000000000000000000000000000 DUP2 MSTORE PUSH1 0x4 ADD DUP1 DUP1 PUSH1 0x20 ADD DUP3 DUP2 SUB DUP3 MSTORE PUSH1 0x26 DUP2 MSTORE PUSH1 0x20 ADD DUP1 PUSH2 0x1F1C PUSH1 0x26 SWAP2 CODECOPY PUSH1 0x40 ADD SWAP2 POP POP PUSH1 0x40 MLOAD DUP1 SWAP2 SUB SWAP1 REVERT JUMPDEST SWAP3 POP SWAP3 POP SWAP3 JUMP JUMPDEST DUP1 DUP3 ADD PUSH1 0x20 ADD MLOAD PUSH1 0x60 SHR PUSH1 0x14 DUP3 ADD DUP3 DUP2 GT PUSH2 0xBE3 JUMPI INVALID JUMPDEST DUP4 MLOAD DUP2 GT ISZERO PUSH2 0xC3D JUMPI PUSH1 0x40 MLOAD PUSH32 0x8C379A000000000000000000000000000000000000000000000000000000000 DUP2 MSTORE PUSH1 0x4 ADD DUP1 DUP1 PUSH1 0x20 ADD DUP3 DUP2 SUB DUP3 MSTORE PUSH1 0x23 DUP2 MSTORE PUSH1 0x20 ADD DUP1 PUSH2 0x1DC7 PUSH1 0x23 SWAP2 CODECOPY PUSH1 0x40 ADD SWAP2 POP POP PUSH1 0x40 MLOAD DUP1 SWAP2 SUB SWAP1 REVERT JUMPDEST SWAP3 POP SWAP3 SWAP1 POP JUMP JUMPDEST PUSH1 0x40 DUP1 MLOAD PUSH1 0x42 DUP1 DUP3 MSTORE PUSH1 0x80 DUP3 ADD SWAP1 SWAP3 MSTORE PUSH1 0x60 SWAP2 PUSH1 0x0 SWAP2 SWAP1 PUSH1 0x20 DUP3 ADD DUP2 DUP1 CALLDATASIZE DUP4 CALLDATACOPY ADD SWAP1 POP POP SWAP2 POP DUP3 DUP5 ADD PUSH1 0x20 ADD DUP1 MLOAD PUSH1 0x20 DUP5 ADD MSTORE PUSH1 0x20 DUP2 ADD MLOAD PUSH1 0x40 DUP5 ADD MSTORE PUSH1 0x22 DUP2 ADD MLOAD PUSH1 0x42 DUP5 ADD MSTORE POP PUSH1 0x42 DUP4 ADD SWAP1 POP DUP3 DUP2 GT PUSH2 0xC9B JUMPI INVALID JUMPDEST DUP4 MLOAD DUP2 GT ISZERO PUSH2 0xC3D JUMPI PUSH1 0x40 MLOAD PUSH32 0x8C379A000000000000000000000000000000000000000000000000000000000 DUP2 MSTORE PUSH1 0x4 ADD DUP1 DUP1 PUSH1 0x20 ADD DUP3 DUP2 SUB DUP3 MSTORE PUSH1 0x23 DUP2 MSTORE PUSH1 0x20 ADD DUP1 PUSH2 0x1EBD PUSH1 0x23 SWAP2 CODECOPY PUSH1 0x40 ADD SWAP2 POP POP PUSH1 0x40 MLOAD DUP1 SWAP2 SUB SWAP1 REVERT JUMPDEST PUSH1 0x0 DUP2 MLOAD PUSH1 0x42 EQ PUSH2 0xD51 JUMPI PUSH1 0x40 MLOAD PUSH32 0x8C379A000000000000000000000000000000000000000000000000000000000 DUP2 MSTORE PUSH1 0x4 ADD DUP1 DUP1 PUSH1 0x20 ADD DUP3 DUP2 SUB DUP3 MSTORE PUSH1 0x3A DUP2 MSTORE PUSH1 0x20 ADD DUP1 PUSH2 0x1D8D PUSH1 0x3A SWAP2 CODECOPY PUSH1 0x40 ADD SWAP2 POP POP PUSH1 0x40 MLOAD DUP1 SWAP2 SUB SWAP1 REVERT JUMPDEST PUSH1 0x0 DUP3 PUSH1 0x1 DUP5 MLOAD SUB DUP2 MLOAD DUP2 LT PUSH2 0xD63 JUMPI INVALID JUMPDEST PUSH1 0x20 ADD ADD MLOAD PUSH1 0xF8 SHR PUSH1 0xF8 SHL PUSH1 0xF8 SHR PUSH1 0xFF AND SWAP1 POP PUSH1 0x0 DUP4 PUSH1 0x40 DUP2 MLOAD DUP2 LT PUSH2 0xD85 JUMPI INVALID JUMPDEST ADD PUSH1 0x20 ADD MLOAD PUSH1 0xF8 SHR SWAP1 POP PUSH1 0x0 PUSH2 0xD9B DUP6 DUP3 PUSH2 0x14CE JUMP JUMPDEST SWAP1 POP PUSH1 0x0 PUSH2 0xDAA DUP7 PUSH1 0x20 PUSH2 0x14CE JUMP JUMPDEST SWAP1 POP PUSH32 0x7FFFFFFFFFFFFFFFFFFFFFFFFFFFFFFF5D576E7357A4501DDFE92F46681B20A0 DUP2 GT ISZERO PUSH2 0xE25 JUMPI PUSH1 0x40 MLOAD PUSH32 0x8C379A000000000000000000000000000000000000000000000000000000000 DUP2 MSTORE PUSH1 0x4 ADD DUP1 DUP1 PUSH1 0x20 ADD DUP3 DUP2 SUB DUP3 MSTORE PUSH1 0x3D DUP2 MSTORE PUSH1 0x20 ADD DUP1 PUSH2 0x1D50 PUSH1 0x3D SWAP2 CODECOPY PUSH1 0x40 ADD SWAP2 POP POP PUSH1 0x40 MLOAD DUP1 SWAP2 SUB SWAP1 REVERT JUMPDEST DUP3 PUSH1 0xFF AND PUSH1 0x1B EQ ISZERO DUP1 ISZERO PUSH2 0xE3D JUMPI POP DUP3 PUSH1 0xFF AND PUSH1 0x1C EQ ISZERO JUMPDEST ISZERO PUSH2 0xE93 JUMPI PUSH1 0x40 MLOAD PUSH32 0x8C379A000000000000000000000000000000000000000000000000000000000 DUP2 MSTORE PUSH1 0x4 ADD DUP1 DUP1 PUSH1 0x20 ADD DUP3 DUP2 SUB DUP3 MSTORE PUSH1 0x3D DUP2 MSTORE PUSH1 0x20 ADD DUP1 PUSH2 0x1E11 PUSH1 0x3D SWAP2 CODECOPY PUSH1 0x40 ADD SWAP2 POP POP PUSH1 0x40 MLOAD DUP1 SWAP2 SUB SWAP1 REVERT JUMPDEST PUSH1 0x1 DUP5 EQ ISZERO PUSH2 0xF07 JUMPI PUSH1 0x1 DUP8 DUP5 DUP5 DUP5 PUSH1 0x40 MLOAD PUSH1 0x0 DUP2 MSTORE PUSH1 0x20 ADD PUSH1 0x40 MSTORE PUSH1 0x40 MLOAD DUP1 DUP6 DUP2 MSTORE PUSH1 0x20 ADD DUP5 PUSH1 0xFF AND DUP2 MSTORE PUSH1 0x20 ADD DUP4 DUP2 MSTORE PUSH1 0x20 ADD DUP3 DUP2 MSTORE PUSH1 0x20 ADD SWAP5 POP POP POP POP POP PUSH1 0x20 PUSH1 0x40 MLOAD PUSH1 0x20 DUP2 SUB SWAP1 DUP1 DUP5 SUB SWAP1 DUP6 GAS STATICCALL ISZERO DUP1 ISZERO PUSH2 0xEF6 JUMPI RETURNDATASIZE PUSH1 0x0 DUP1 RETURNDATACOPY RETURNDATASIZE PUSH1 0x0 REVERT JUMPDEST POP POP POP PUSH1 0x20 PUSH1 0x40 MLOAD SUB MLOAD SWAP5 POP PUSH2 0x1009 JUMP JUMPDEST PUSH1 0x2 DUP5 EQ ISZERO PUSH2 0xFB8 JUMPI PUSH1 0x1 DUP8 PUSH1 0x40 MLOAD PUSH1 0x20 ADD DUP1 DUP1 PUSH32 0x19457468657265756D205369676E6564204D6573736167653A0A333200000000 DUP2 MSTORE POP PUSH1 0x1C ADD DUP3 DUP2 MSTORE PUSH1 0x20 ADD SWAP2 POP POP PUSH1 0x40 MLOAD PUSH1 0x20 DUP2 DUP4 SUB SUB DUP2 MSTORE SWAP1 PUSH1 0x40 MSTORE DUP1 MLOAD SWAP1 PUSH1 0x20 ADD KECCAK256 DUP5 DUP5 DUP5 PUSH1 0x40 MLOAD PUSH1 0x0 DUP2 MSTORE PUSH1 0x20 ADD PUSH1 0x40 MSTORE PUSH1 0x40 MLOAD DUP1 DUP6 DUP2 MSTORE PUSH1 0x20 ADD DUP5 PUSH1 0xFF AND DUP2 MSTORE PUSH1 0x20 ADD DUP4 DUP2 MSTORE PUSH1 0x20 ADD DUP3 DUP2 MSTORE PUSH1 0x20 ADD SWAP5 POP POP POP POP POP PUSH1 0x20 PUSH1 0x40 MLOAD PUSH1 0x20 DUP2 SUB SWAP1 DUP1 DUP5 SUB SWAP1 DUP6 GAS STATICCALL ISZERO DUP1 ISZERO PUSH2 0xEF6 JUMPI RETURNDATASIZE PUSH1 0x0 DUP1 RETURNDATACOPY RETURNDATASIZE PUSH1 0x0 REVERT JUMPDEST PUSH1 0x40 MLOAD PUSH32 0x8C379A000000000000000000000000000000000000000000000000000000000 DUP2 MSTORE PUSH1 0x4 ADD DUP1 DUP1 PUSH1 0x20 ADD DUP3 DUP2 SUB DUP3 MSTORE PUSH1 0x3C DUP2 MSTORE PUSH1 0x20 ADD DUP1 PUSH2 0x1EE0 PUSH1 0x3C SWAP2 CODECOPY PUSH1 0x40 ADD SWAP2 POP POP PUSH1 0x40 MLOAD DUP1 SWAP2 SUB SWAP1 REVERT JUMPDEST PUSH20 0xFFFFFFFFFFFFFFFFFFFFFFFFFFFFFFFFFFFFFFFF DUP6 AND PUSH2 0x1075 JUMPI PUSH1 0x40 MLOAD PUSH32 0x8C379A000000000000000000000000000000000000000000000000000000000 DUP2 MSTORE PUSH1 0x4 ADD DUP1 DUP1 PUSH1 0x20 ADD DUP3 DUP2 SUB DUP3 MSTORE PUSH1 0x30 DUP2 MSTORE PUSH1 0x20 ADD DUP1 PUSH2 0x1E4E PUSH1 0x30 SWAP2 CODECOPY PUSH1 0x40 ADD SWAP2 POP POP PUSH1 0x40 MLOAD DUP1 SWAP2 SUB SWAP1 REVERT JUMPDEST POP POP POP POP SWAP3 SWAP2 POP POP JUMP JUMPDEST DUP2 PUSH20 0xFFFFFFFFFFFFFFFFFFFFFFFFFFFFFFFFFFFFFFFF AND DUP4 PUSH20 0xFFFFFFFFFFFFFFFFFFFFFFFFFFFFFFFFFFFFFFFF AND PUSH32 0x600BA597427F042BCD559A0D06FA1732CC104D6DD43CBE8845B5A0E804B2B39F PUSH1 0x40 MLOAD PUSH1 0x40 MLOAD DUP1 SWAP2 SUB SWAP1 LOG3 DUP1 ISZERO PUSH2 0x1108 JUMPI PUSH20 0xFFFFFFFFFFFFFFFFFFFFFFFFFFFFFFFFFFFFFFFF DUP3 AND PUSH1 0x0 SWAP1 DUP2 MSTORE PUSH1 0x20 DUP2 SWAP1 MSTORE PUSH1 0x40 SWAP1 KECCAK256 NUMBER SWAP1 SSTORE JUMPDEST POP POP POP JUMP JUMPDEST DUP1 DUP3 ADD PUSH1 0x20 ADD MLOAD PUSH1 0xF0 SHR PUSH1 0x2 DUP3 ADD DUP3 DUP2 GT PUSH2 0x1124 JUMPI INVALID JUMPDEST DUP4 MLOAD DUP2 GT ISZERO PUSH2 0xC3D JUMPI PUSH1 0x40 MLOAD PUSH32 0x8C379A000000000000000000000000000000000000000000000000000000000 DUP2 MSTORE PUSH1 0x4 ADD DUP1 DUP1 PUSH1 0x20 ADD DUP3 DUP2 SUB DUP3 MSTORE PUSH1 0x22 DUP2 MSTORE PUSH1 0x20 ADD DUP1 PUSH2 0x1F63 PUSH1 0x22 SWAP2 CODECOPY PUSH1 0x40 ADD SWAP2 POP POP PUSH1 0x40 MLOAD DUP1 SWAP2 SUB SWAP1 REVERT JUMPDEST PUSH1 0x60 PUSH1 0x0 DUP3 PUSH8 0xFFFFFFFFFFFFFFFF DUP2 GT DUP1 ISZERO PUSH2 0x1199 JUMPI PUSH1 0x0 DUP1 REVERT JUMPDEST POP PUSH1 0x40 MLOAD SWAP1 DUP1 DUP3 MSTORE DUP1 PUSH1 0x1F ADD PUSH1 0x1F NOT AND PUSH1 0x20 ADD DUP3 ADD PUSH1 0x40 MSTORE DUP1 ISZERO PUSH2 0x11C4 JUMPI PUSH1 0x20 DUP3 ADD DUP2 DUP1 CALLDATASIZE DUP4 CALLDATACOPY ADD SWAP1 POP JUMPDEST POP SWAP2 POP DUP4 DUP6 ADD PUSH1 0x20 ADD PUSH1 0x0 PUSH1 0x20 JUMPDEST DUP6 DUP2 LT ISZERO PUSH2 0x11EB JUMPI SWAP1 DUP3 ADD MLOAD DUP5 DUP3 ADD MSTORE PUSH1 0x20 DUP2 ADD PUSH2 0x11D2 JUMP JUMPDEST DUP5 DUP7 ADD PUSH1 0x20 ADD DUP1 MLOAD SWAP4 SWAP1 SWAP3 ADD MLOAD SWAP1 DUP6 ADD MSTORE MSTORE POP DUP3 DUP3 ADD DUP4 DUP2 LT ISZERO PUSH2 0x120B JUMPI INVALID JUMPDEST DUP5 MLOAD DUP2 GT ISZERO PUSH2 0x1265 JUMPI PUSH1 0x40 MLOAD PUSH32 0x8C379A000000000000000000000000000000000000000000000000000000000 DUP2 MSTORE PUSH1 0x4 ADD DUP1 DUP1 PUSH1 0x20 ADD DUP3 DUP2 SUB DUP3 MSTORE PUSH1 0x21 DUP2 MSTORE PUSH1 0x20 ADD DUP1 PUSH2 0x1F42 PUSH1 0x21 SWAP2 CODECOPY PUSH1 0x40 ADD SWAP2 POP POP PUSH1 0x40 MLOAD DUP1 SWAP2 SUB SWAP1 REVERT JUMPDEST SWAP4 POP SWAP4 SWAP2 POP POP JUMP JUMPDEST PUSH1 0x0 DUP1 DUP3 PUSH1 0x1 DUP5 MLOAD SUB DUP2 MLOAD DUP2 LT PUSH2 0x1280 JUMPI INVALID JUMPDEST ADD PUSH1 0x20 ADD MLOAD PUSH1 0xF8 SHR SWAP1 POP PUSH1 0x1 DUP2 EQ DUP1 PUSH2 0x1299 JUMPI POP PUSH1 0x2 DUP2 EQ JUMPDEST ISZERO PUSH2 0x12DD JUMPI DUP4 PUSH20 0xFFFFFFFFFFFFFFFFFFFFFFFFFFFFFFFFFFFFFFFF AND PUSH2 0x12BF DUP7 DUP6 PUSH2 0xCF5 JUMP JUMPDEST PUSH20 0xFFFFFFFFFFFFFFFFFFFFFFFFFFFFFFFFFFFFFFFF AND EQ SWAP2 POP PUSH2 0x14AD JUMP JUMPDEST PUSH1 0x3 DUP2 EQ ISZERO PUSH2 0x145C JUMPI DUP3 MLOAD PUSH32 0xFFFFFFFFFFFFFFFFFFFFFFFFFFFFFFFFFFFFFFFFFFFFFFFFFFFFFFFFFFFFFFFF DUP2 ADD DUP5 MSTORE PUSH1 0x40 DUP1 MLOAD PUSH32 0x1626BA7E00000000000000000000000000000000000000000000000000000000 DUP2 MSTORE PUSH1 0x4 DUP2 ADD DUP9 DUP2 MSTORE PUSH1 0x24 DUP3 ADD SWAP3 DUP4 MSTORE DUP7 MLOAD PUSH1 0x44 DUP4 ADD MSTORE DUP7 MLOAD PUSH20 0xFFFFFFFFFFFFFFFFFFFFFFFFFFFFFFFFFFFFFFFF DUP10 AND SWAP4 PUSH4 0x1626BA7E SWAP4 DUP12 SWAP4 DUP11 SWAP4 SWAP1 SWAP3 SWAP2 PUSH1 0x64 ADD SWAP1 PUSH1 0x20 DUP6 ADD SWAP1 DUP1 DUP4 DUP4 PUSH1 0x0 JUMPDEST DUP4 DUP2 LT ISZERO PUSH2 0x1397 JUMPI DUP2 DUP2 ADD MLOAD DUP4 DUP3 ADD MSTORE PUSH1 0x20 ADD PUSH2 0x137F JUMP JUMPDEST POP POP POP POP SWAP1 POP SWAP1 DUP2 ADD SWAP1 PUSH1 0x1F AND DUP1 ISZERO PUSH2 0x13C4 JUMPI DUP1 DUP3 SUB DUP1 MLOAD PUSH1 0x1 DUP4 PUSH1 0x20 SUB PUSH2 0x100 EXP SUB NOT AND DUP2 MSTORE PUSH1 0x20 ADD SWAP2 POP JUMPDEST POP SWAP4 POP POP POP POP PUSH1 0x20 PUSH1 0x40 MLOAD DUP1 DUP4 SUB DUP2 DUP7 DUP1 EXTCODESIZE ISZERO DUP1 ISZERO PUSH2 0x13E2 JUMPI PUSH1 0x0 DUP1 REVERT JUMPDEST POP GAS STATICCALL ISZERO DUP1 ISZERO PUSH2 0x13F6 JUMPI RETURNDATASIZE PUSH1 0x0 DUP1 RETURNDATACOPY RETURNDATASIZE PUSH1 0x0 REVERT JUMPDEST POP POP POP POP PUSH1 0x40 MLOAD RETURNDATASIZE PUSH1 0x20 DUP2 LT ISZERO PUSH2 0x140C JUMPI PUSH1 0x0 DUP1 REVERT JUMPDEST POP MLOAD SWAP1 DUP5 MSTORE PUSH32 0xFFFFFFFF00000000000000000000000000000000000000000000000000000000 AND PUSH32 0x1626BA7E00000000000000000000000000000000000000000000000000000000 EQ SWAP2 POP PUSH2 0x14AD JUMP JUMPDEST PUSH1 0x40 MLOAD PUSH32 0x8C379A000000000000000000000000000000000000000000000000000000000 DUP2 MSTORE PUSH1 0x4 ADD DUP1 DUP1 PUSH1 0x20 ADD DUP3 DUP2 SUB DUP3 MSTORE PUSH1 0x3F DUP2 MSTORE PUSH1 0x20 ADD DUP1 PUSH2 0x1E7E PUSH1 0x3F SWAP2 CODECOPY PUSH1 0x40 ADD SWAP2 POP POP PUSH1 0x40 MLOAD DUP1 SWAP2 SUB SWAP1 REVERT JUMPDEST POP SWAP4 SWAP3 POP POP POP JUMP JUMPDEST PUSH1 0x60 DUP2 SWAP1 SHR SWAP2 PUSH12 0xFFFFFFFFFFFFFFFFFFFFFFFF SWAP1 SWAP2 AND SWAP1 JUMP JUMPDEST PUSH1 0x0 DUP2 PUSH1 0x20 ADD DUP4 MLOAD LT ISZERO PUSH2 0x152D JUMPI PUSH1 0x40 MLOAD PUSH32 0x8C379A000000000000000000000000000000000000000000000000000000000 DUP2 MSTORE PUSH1 0x4 ADD DUP1 DUP1 PUSH1 0x20 ADD DUP3 DUP2 SUB DUP3 MSTORE PUSH1 0x3C DUP2 MSTORE PUSH1 0x20 ADD DUP1 PUSH2 0x1F85 PUSH1 0x3C SWAP2 CODECOPY PUSH1 0x40 ADD SWAP2 POP POP PUSH1 0x40 MLOAD DUP1 SWAP2 SUB SWAP1 REVERT JUMPDEST POP ADD PUSH1 0x20 ADD MLOAD SWAP1 JUMP JUMPDEST PUSH1 0x40 DUP1 MLOAD DUP1 DUP3 ADD SWAP1 SWAP2 MSTORE PUSH1 0x0 DUP1 DUP3 MSTORE PUSH1 0x20 DUP3 ADD MSTORE SWAP1 JUMP JUMPDEST DUP1 CALLDATALOAD PUSH20 0xFFFFFFFFFFFFFFFFFFFFFFFFFFFFFFFFFFFFFFFF DUP2 AND DUP2 EQ PUSH2 0x1571 JUMPI PUSH1 0x0 DUP1 REVERT JUMPDEST SWAP2 SWAP1 POP JUMP JUMPDEST DUP1 CALLDATALOAD DUP1 ISZERO ISZERO DUP2 EQ PUSH2 0x1571 JUMPI PUSH1 0x0 DUP1 REVERT JUMPDEST PUSH1 0x0 PUSH1 0x20 DUP3 DUP5 SUB SLT ISZERO PUSH2 0x1597 JUMPI DUP1 DUP2 REVERT JUMPDEST PUSH2 0x15A0 DUP3 PUSH2 0x154D JUMP JUMPDEST SWAP4 SWAP3 POP POP POP JUMP JUMPDEST PUSH1 0x0 DUP1 PUSH1 0x0 DUP1 PUSH1 0x0 PUSH1 0xA0 DUP7 DUP9 SUB SLT ISZERO PUSH2 0x15BE JUMPI DUP1 DUP2 REVERT JUMPDEST PUSH2 0x15C7 DUP7 PUSH2 0x154D JUMP JUMPDEST SWAP5 POP PUSH1 0x20 DUP1 DUP8 ADD CALLDATALOAD SWAP5 POP PUSH1 0x40 DUP8 ADD CALLDATALOAD SWAP4 POP PUSH1 0x60 DUP8 ADD CALLDATALOAD PUSH8 0xFFFFFFFFFFFFFFFF DUP1 DUP3 GT ISZERO PUSH2 0x15F2 JUMPI DUP4 DUP5 REVERT JUMPDEST DUP2 DUP10 ADD SWAP2 POP DUP10 PUSH1 0x1F DUP4 ADD SLT PUSH2 0x1605 JUMPI DUP4 DUP5 REVERT JUMPDEST DUP2 CALLDATALOAD DUP2 DUP2 GT ISZERO PUSH2 0x1611 JUMPI INVALID JUMPDEST PUSH1 0x40 MLOAD DUP5 PUSH32 0xFFFFFFFFFFFFFFFFFFFFFFFFFFFFFFFFFFFFFFFFFFFFFFFFFFFFFFFFFFFFFFE0 PUSH1 0x1F DUP5 ADD AND DUP3 ADD ADD DUP2 DUP2 LT DUP5 DUP3 GT OR ISZERO PUSH2 0x164C JUMPI INVALID JUMPDEST PUSH1 0x40 MSTORE DUP2 DUP2 MSTORE DUP4 DUP3 ADD DUP6 ADD DUP13 LT ISZERO PUSH2 0x1662 JUMPI DUP6 DUP7 REVERT JUMPDEST DUP2 DUP6 DUP6 ADD DUP7 DUP4 ADD CALLDATACOPY DUP6 DUP6 DUP4 DUP4 ADD ADD MSTORE DUP1 SWAP7 POP POP POP POP POP POP PUSH2 0x1685 PUSH1 0x80 DUP8 ADD PUSH2 0x1576 JUMP JUMPDEST SWAP1 POP SWAP3 SWAP6 POP SWAP3 SWAP6 SWAP1 SWAP4 POP JUMP JUMPDEST PUSH1 0x0 DUP1 PUSH1 0x40 DUP4 DUP6 SUB SLT ISZERO PUSH2 0x16A3 JUMPI DUP2 DUP3 REVERT JUMPDEST PUSH2 0x16AC DUP4 PUSH2 0x154D JUMP JUMPDEST SWAP5 PUSH1 0x20 SWAP4 SWAP1 SWAP4 ADD CALLDATALOAD SWAP4 POP POP POP JUMP JUMPDEST PUSH1 0x0 DUP1 PUSH1 0x0 DUP1 PUSH1 0x0 PUSH1 0x80 DUP7 DUP9 SUB SLT ISZERO PUSH2 0x16D1 JUMPI DUP1 DUP2 REVERT JUMPDEST PUSH2 0x16DA DUP7 PUSH2 0x154D JUMP JUMPDEST SWAP5 POP PUSH1 0x20 DUP7 ADD CALLDATALOAD SWAP4 POP PUSH1 0x40 DUP7 ADD CALLDATALOAD PUSH8 0xFFFFFFFFFFFFFFFF DUP1 DUP3 GT ISZERO PUSH2 0x16FD JUMPI DUP3 DUP4 REVERT JUMPDEST DUP2 DUP9 ADD SWAP2 POP DUP9 PUSH1 0x1F DUP4 ADD SLT PUSH2 0x1710 JUMPI DUP3 DUP4 REVERT JUMPDEST DUP2 CALLDATALOAD DUP2 DUP2 GT ISZERO PUSH2 0x171E JUMPI DUP4 DUP5 REVERT JUMPDEST DUP10 PUSH1 0x20 PUSH1 0x40 DUP4 MUL DUP6 ADD ADD GT ISZERO PUSH2 0x1732 JUMPI DUP4 DUP5 REVERT JUMPDEST PUSH1 0x20 DUP4 ADD SWAP6 POP DUP1 SWAP5 POP POP POP POP PUSH2 0x1685 PUSH1 0x60 DUP8 ADD PUSH2 0x1576 JUMP JUMPDEST PUSH1 0x0 PUSH1 0x20 DUP3 DUP5 SUB SLT ISZERO PUSH2 0x175B JUMPI DUP1 DUP2 REVERT JUMPDEST POP CALLDATALOAD SWAP2 SWAP1 POP JUMP JUMPDEST PUSH1 0x0 PUSH1 0x20 DUP3 DUP5 SUB SLT ISZERO PUSH2 0x1773 JUMPI DUP1 DUP2 REVERT JUMPDEST POP MLOAD SWAP2 SWAP1 POP JUMP JUMPDEST PUSH1 0x0 DUP2 MLOAD DUP1 DUP5 MSTORE PUSH2 0x1792 DUP2 PUSH1 0x20 DUP7 ADD PUSH1 0x20 DUP7 ADD PUSH2 0x1D1F JUMP JUMPDEST PUSH1 0x1F ADD PUSH32 0xFFFFFFFFFFFFFFFFFFFFFFFFFFFFFFFFFFFFFFFFFFFFFFFFFFFFFFFFFFFFFFE0 AND SWAP3 SWAP1 SWAP3 ADD PUSH1 0x20 ADD SWAP3 SWAP2 POP POP JUMP JUMPDEST PUSH32 0xFF00000000000000000000000000000000000000000000000000000000000000 SWAP5 SWAP1 SWAP5 AND DUP5 MSTORE PUSH1 0x60 SWAP3 SWAP1 SWAP3 SHL PUSH32 0xFFFFFFFFFFFFFFFFFFFFFFFFFFFFFFFFFFFFFFFF000000000000000000000000 AND PUSH1 0x1 DUP5 ADD MSTORE PUSH1 0x15 DUP4 ADD MSTORE PUSH1 0x35 DUP3 ADD MSTORE PUSH1 0x55 ADD SWAP1 JUMP JUMPDEST PUSH32 0xFFFFFFFF00000000000000000000000000000000000000000000000000000000 SWAP2 SWAP1 SWAP2 AND DUP2 MSTORE PUSH1 0x4 ADD SWAP1 JUMP JUMPDEST PUSH1 0x0 DUP3 MLOAD PUSH2 0x1867 DUP2 DUP5 PUSH1 0x20 DUP8 ADD PUSH2 0x1D1F JUMP JUMPDEST SWAP2 SWAP1 SWAP2 ADD SWAP3 SWAP2 POP POP JUMP JUMPDEST PUSH32 0x1901000000000000000000000000000000000000000000000000000000000000 DUP2 MSTORE PUSH1 0x2 DUP2 ADD SWAP4 SWAP1 SWAP4 MSTORE PUSH1 0x60 SWAP2 SWAP1 SWAP2 SHL PUSH32 0xFFFFFFFFFFFFFFFFFFFFFFFFFFFFFFFFFFFFFFFF000000000000000000000000 AND PUSH1 0x22 DUP4 ADD MSTORE PUSH1 0x36 DUP3 ADD MSTORE PUSH1 0x56 ADD SWAP1 JUMP JUMPDEST PUSH1 0x20 DUP1 DUP3 MSTORE DUP2 DUP2 ADD DUP4 SWAP1 MSTORE PUSH1 0x0 SWAP1 PUSH1 0x40 DUP1 DUP5 ADD DUP7 DUP5 JUMPDEST DUP8 DUP2 LT ISZERO PUSH2 0x192B JUMPI DUP2 CALLDATALOAD DUP4 MSTORE PUSH20 0xFFFFFFFFFFFFFFFFFFFFFFFFFFFFFFFFFFFFFFFF PUSH2 0x1916 DUP7 DUP5 ADD PUSH2 0x154D JUMP JUMPDEST AND DUP4 DUP7 ADD MSTORE SWAP2 DUP4 ADD SWAP2 SWAP1 DUP4 ADD SWAP1 PUSH1 0x1 ADD PUSH2 0x18EA JUMP JUMPDEST POP SWAP1 SWAP8 SWAP7 POP POP POP POP POP POP POP JUMP JUMPDEST PUSH1 0x20 DUP1 DUP3 MSTORE DUP3 MLOAD DUP3 DUP3 ADD DUP2 SWAP1 MSTORE PUSH1 0x0 SWAP2 SWAP1 PUSH1 0x40 SWAP1 DUP2 DUP6 ADD SWAP1 DUP7 DUP5 ADD DUP6 JUMPDEST DUP3 DUP2 LT ISZERO PUSH2 0x1990 JUMPI DUP2 MLOAD DUP1 MLOAD DUP6 MSTORE DUP7 ADD MLOAD PUSH20 0xFFFFFFFFFFFFFFFFFFFFFFFFFFFFFFFFFFFFFFFF AND DUP7 DUP6 ADD MSTORE SWAP3 DUP5 ADD SWAP3 SWAP1 DUP6 ADD SWAP1 PUSH1 0x1 ADD PUSH2 0x1955 JUMP JUMPDEST POP SWAP2 SWAP8 SWAP7 POP POP POP POP POP POP POP JUMP JUMPDEST SWAP1 DUP2 MSTORE PUSH1 0x20 ADD SWAP1 JUMP JUMPDEST SWAP3 DUP4 MSTORE PUSH1 0x20 DUP4 ADD SWAP2 SWAP1 SWAP2 MSTORE PUSH20 0xFFFFFFFFFFFFFFFFFFFFFFFFFFFFFFFFFFFFFFFF AND PUSH1 0x40 DUP3 ADD MSTORE PUSH1 0x60 ADD SWAP1 JUMP JUMPDEST PUSH1 0x20 DUP1 DUP3 MSTORE PUSH1 0x3A SWAP1 DUP3 ADD MSTORE PUSH32 0x526571756972655574696C73237075626C697368496E697469616C5369676E65 PUSH1 0x40 DUP3 ADD MSTORE PUSH32 0x72733A20494E56414C49445F5349474E41545552455F464C4147000000000000 PUSH1 0x60 DUP3 ADD MSTORE PUSH1 0x80 ADD SWAP1 JUMP JUMPDEST PUSH1 0x20 DUP1 DUP3 MSTORE PUSH1 0x32 SWAP1 DUP3 ADD MSTORE PUSH32 0x526571756972655574696C7323726571756972654D696E4E6F6E63653A204E4F PUSH1 0x40 DUP3 ADD MSTORE PUSH32 0x4E43455F42454C4F575F52455155495245440000000000000000000000000000 PUSH1 0x60 DUP3 ADD MSTORE PUSH1 0x80 ADD SWAP1 JUMP JUMPDEST PUSH1 0x20 DUP1 DUP3 MSTORE PUSH1 0x27 SWAP1 DUP3 ADD MSTORE PUSH32 0x526571756972655574696C7323726571756972654E6F6E457870697265643A20 PUSH1 0x40 DUP3 ADD MSTORE PUSH32 0x4558504952454400000000000000000000000000000000000000000000000000 PUSH1 0x60 DUP3 ADD MSTORE PUSH1 0x80 ADD SWAP1 JUMP JUMPDEST PUSH1 0x20 DUP1 DUP3 MSTORE PUSH1 0x48 SWAP1 DUP3 ADD MSTORE PUSH32 0x526571756972655574696C73237075626C697368496E697469616C5369676E65 PUSH1 0x40 DUP3 ADD MSTORE PUSH32 0x72733A20554E45585045435445445F434F554E5445524641435455414C5F494D PUSH1 0x60 DUP3 ADD MSTORE PUSH32 0x4147455F48415348000000000000000000000000000000000000000000000000 PUSH1 0x80 DUP3 ADD MSTORE PUSH1 0xA0 ADD SWAP1 JUMP JUMPDEST PUSH1 0x20 DUP1 DUP3 MSTORE PUSH1 0x32 SWAP1 DUP3 ADD MSTORE PUSH32 0x4D6F64756C6541757468235F7369676E617475726556616C69646174696F6E3A PUSH1 0x40 DUP3 ADD MSTORE PUSH32 0x20494E56414C49445F5349474E41545552450000000000000000000000000000 PUSH1 0x60 DUP3 ADD MSTORE PUSH1 0x80 ADD SWAP1 JUMP JUMPDEST PUSH1 0x20 DUP1 DUP3 MSTORE PUSH1 0x39 SWAP1 DUP3 ADD MSTORE PUSH32 0x526571756972655574696C73237075626C697368496E697469616C5369676E65 PUSH1 0x40 DUP3 ADD MSTORE PUSH32 0x72733A20494E56414C49445F4D454D424552535F434F554E5400000000000000 PUSH1 0x60 DUP3 ADD MSTORE PUSH1 0x80 ADD SWAP1 JUMP JUMPDEST PUSH1 0x20 DUP1 DUP3 MSTORE PUSH1 0x31 SWAP1 DUP3 ADD MSTORE PUSH32 0x526571756972655574696C73237075626C697368436F6E6669673A20554E4558 PUSH1 0x40 DUP3 ADD MSTORE PUSH32 0x5045435445445F494D4147455F48415348000000000000000000000000000000 PUSH1 0x60 DUP3 ADD MSTORE PUSH1 0x80 ADD SWAP1 JUMP JUMPDEST PUSH1 0x20 DUP1 DUP3 MSTORE PUSH1 0x40 SWAP1 DUP3 ADD DUP2 SWAP1 MSTORE PUSH32 0x526571756972655574696C73237075626C697368436F6E6669673A20554E4558 SWAP1 DUP3 ADD MSTORE PUSH32 0x5045435445445F434F554E5445524641435455414C5F494D4147455F48415348 PUSH1 0x60 DUP3 ADD MSTORE PUSH1 0x80 ADD SWAP1 JUMP JUMPDEST PUSH1 0x0 PUSH2 0xFFFF DUP5 AND DUP3 MSTORE PUSH1 0x40 PUSH1 0x20 DUP4 ADD MSTORE PUSH2 0x1CFE PUSH1 0x40 DUP4 ADD DUP5 PUSH2 0x177A JUMP JUMPDEST SWAP5 SWAP4 POP POP POP POP JUMP JUMPDEST PUSH1 0x0 DUP4 DUP3 MSTORE PUSH1 0x40 PUSH1 0x20 DUP4 ADD MSTORE PUSH2 0x1CFE PUSH1 0x40 DUP4 ADD DUP5 PUSH2 0x177A JUMP JUMPDEST PUSH1 0x0 JUMPDEST DUP4 DUP2 LT ISZERO PUSH2 0x1D3A JUMPI DUP2 DUP2 ADD MLOAD DUP4 DUP3 ADD MSTORE PUSH1 0x20 ADD PUSH2 0x1D22 JUMP JUMPDEST DUP4 DUP2 GT ISZERO PUSH2 0x1D49 JUMPI PUSH1 0x0 DUP5 DUP5 ADD MSTORE JUMPDEST POP POP POP POP JUMP INVALID MSTORE8 PUSH10 0x676E617475726556616C PUSH10 0x6461746F72237265636F PUSH23 0x65725369676E65723A20696E76616C6964207369676E61 PUSH21 0x757265202773272076616C75655369676E61747572 PUSH6 0x56616C696461 PUSH21 0x6F72237265636F7665725369676E65723A20696E76 PUSH2 0x6C69 PUSH5 0x207369676E PUSH2 0x7475 PUSH19 0x65206C656E6774684C69624279746573237265 PUSH2 0x6441 PUSH5 0x6472657373 GASPRICE KECCAK256 0x4F SSTORE SLOAD 0x5F 0x4F CHAINID 0x5F TIMESTAMP 0x4F SSTORE 0x4E DIFFICULTY MSTORE8 0x4C PUSH10 0x62427974657323726561 PUSH5 0x4669727374 SSTORE PUSH10 0x6E7431363A204F55545F 0x4F CHAINID 0x5F TIMESTAMP 0x4F SSTORE 0x4E DIFFICULTY MSTORE8 MSTORE8 PUSH10 0x676E617475726556616C PUSH10 0x6461746F72237265636F PUSH23 0x65725369676E65723A20696E76616C6964207369676E61 PUSH21 0x757265202776272076616C75655369676E61747572 PUSH6 0x56616C696461 PUSH21 0x6F72237265636F7665725369676E65723A20494E56 COINBASE 0x4C 0x49 DIFFICULTY 0x5F MSTORE8 0x49 SELFBALANCE 0x4E GASLIMIT MSTORE MSTORE8 PUSH10 0x676E617475726556616C PUSH10 0x6461746F722369735661 PUSH13 0x69645369676E61747572653A20 SSTORE 0x4E MSTORE8 SSTORE POP POP 0x4F MSTORE SLOAD GASLIMIT DIFFICULTY 0x5F MSTORE8 0x49 SELFBALANCE 0x4E COINBASE SLOAD SSTORE MSTORE GASLIMIT 0x5F SLOAD MSIZE POP GASLIMIT 0x4C PUSH10 0x62427974657323726561 PUSH5 0x4279746573 CALLDATASIZE CALLDATASIZE GASPRICE KECCAK256 0x4F SSTORE SLOAD 0x5F 0x4F CHAINID 0x5F TIMESTAMP 0x4F SSTORE 0x4E DIFFICULTY MSTORE8 MSTORE8 PUSH10 0x676E617475726556616C PUSH10 0x6461746F72237265636F PUSH23 0x65725369676E65723A20554E535550504F525445445F53 0x49 SELFBALANCE 0x4E COINBASE SLOAD SSTORE MSTORE GASLIMIT 0x5F SLOAD MSIZE POP GASLIMIT 0x4C PUSH10 0x62427974657323726561 PUSH5 0x55696E7438 SSTORE PUSH10 0x6E74383A204F55545F4F CHAINID 0x5F TIMESTAMP 0x4F SSTORE 0x4E DIFFICULTY MSTORE8 0x4C PUSH10 0x62427974657323726561 PUSH5 0x4279746573 GASPRICE KECCAK256 0x4F SSTORE SLOAD 0x5F 0x4F CHAINID 0x5F TIMESTAMP 0x4F SSTORE 0x4E DIFFICULTY MSTORE8 0x4C PUSH10 0x62427974657323726561 PUSH5 0x55696E7431 CALLDATASIZE GASPRICE KECCAK256 0x4F SSTORE SLOAD 0x5F 0x4F CHAINID 0x5F TIMESTAMP 0x4F SSTORE 0x4E DIFFICULTY MSTORE8 0x4C PUSH10 0x62427974657323726561 PUSH5 0x4279746573 CALLER ORIGIN GASPRICE KECCAK256 SELFBALANCE MSTORE GASLIMIT COINBASE SLOAD GASLIMIT MSTORE 0x5F 0x4F MSTORE 0x5F GASLIMIT MLOAD SSTORE COINBASE 0x4C 0x5F SLOAD 0x4F 0x5F CALLER ORIGIN 0x5F 0x4C GASLIMIT 0x4E SELFBALANCE SLOAD 0x48 0x5F MSTORE GASLIMIT MLOAD SSTORE 0x49 MSTORE GASLIMIT DIFFICULTY LOG2 PUSH5 0x6970667358 0x22 SLT KECCAK256 0xD5 PUSH7 0x8BD52704A70648 0xC2 DUP2 PUSH1 0x78 0xF9 MLOAD DUP16 MLOAD PUSH26 0x83D8E974C2FF3425E71D0B4FF84864736F6C6343000706003360 GASPRICE PUSH1 0xE RETURNDATASIZE CODECOPY PUSH1 0x1A DUP1 MLOAD ADDRESS SSTORE RETURNDATASIZE RETURN CALLDATASIZE RETURNDATASIZE RETURNDATASIZE CALLDATACOPY RETURNDATASIZE RETURNDATASIZE RETURNDATASIZE CALLDATASIZE RETURNDATASIZE ADDRESS SLOAD GAS DELEGATECALL RETURNDATASIZE DUP3 DUP1 RETURNDATACOPY SWAP1 RETURNDATASIZE SWAP2 PUSH1 0x18 JUMPI REVERT JUMPDEST RETURN "
				}
			},
			"userdoc": {
				"kind": "user",
				"methods": {
					"publishConfig(address,uint256,(uint256,address)[],bool)": {
						"notice": "Publishes the current configuration of a Sequence wallets using logs"
					},
					"publishInitialSigners(address,bytes32,uint256,bytes,bool)": {
						"notice": "Publishes the configuration and set of signers for a counter-factual Sequence wallets using logs"
					},
					"requireMinNonce(address,uint256)": {
						"notice": "Validates that a given wallet has reached a given nonce"
					},
					"requireNonExpired(uint256)": {
						"notice": "Validates that a given expiration hasn't expired"
					}
				},
				"version": 1
			}
		}
	}
}