{
	"contracts/modules/GuestModule.sol": {
		"GuestModule": {
			"abi": [
				{
					"anonymous": false,
					"inputs": [
						{
							"indexed": false,
							"internalType": "address",
							"name": "_contract",
							"type": "address"
						}
					],
					"name": "CreatedContract",
					"type": "event"
				},
				{
					"anonymous": false,
					"inputs": [
						{
							"indexed": false,
							"internalType": "uint256",
							"name": "_space",
							"type": "uint256"
						},
						{
							"indexed": false,
							"internalType": "uint256",
							"name": "_newNonce",
							"type": "uint256"
						}
					],
					"name": "NonceChange",
					"type": "event"
				},
				{
					"anonymous": true,
					"inputs": [
						{
							"indexed": false,
							"internalType": "bytes32",
							"name": "_tx",
							"type": "bytes32"
						}
					],
					"name": "TxExecuted",
					"type": "event"
				},
				{
					"anonymous": false,
					"inputs": [
						{
							"indexed": false,
							"internalType": "bytes32",
							"name": "_tx",
							"type": "bytes32"
						},
						{
							"indexed": false,
							"internalType": "bytes",
							"name": "_reason",
							"type": "bytes"
						}
					],
					"name": "TxFailed",
					"type": "event"
				},
				{
					"inputs": [
						{
							"internalType": "bytes",
							"name": "_code",
							"type": "bytes"
						}
					],
					"name": "createContract",
					"outputs": [
						{
							"internalType": "address",
							"name": "addr",
							"type": "address"
						}
					],
					"stateMutability": "payable",
					"type": "function"
				},
				{
					"inputs": [
						{
							"components": [
								{
									"internalType": "bool",
									"name": "delegateCall",
									"type": "bool"
								},
								{
									"internalType": "bool",
									"name": "revertOnError",
									"type": "bool"
								},
								{
									"internalType": "uint256",
									"name": "gasLimit",
									"type": "uint256"
								},
								{
									"internalType": "address",
									"name": "target",
									"type": "address"
								},
								{
									"internalType": "uint256",
									"name": "value",
									"type": "uint256"
								},
								{
									"internalType": "bytes",
									"name": "data",
									"type": "bytes"
								}
							],
							"internalType": "struct IModuleCalls.Transaction[]",
							"name": "_txs",
							"type": "tuple[]"
						},
						{
							"internalType": "uint256",
							"name": "",
							"type": "uint256"
						},
						{
							"internalType": "bytes",
							"name": "",
							"type": "bytes"
						}
					],
					"name": "execute",
					"outputs": [],
					"stateMutability": "nonpayable",
					"type": "function"
				},
				{
					"inputs": [
						{
							"internalType": "bytes32",
							"name": "_hash",
							"type": "bytes32"
						},
						{
							"internalType": "bytes",
							"name": "_signatures",
							"type": "bytes"
						}
					],
					"name": "isValidSignature",
					"outputs": [
						{
							"internalType": "bytes4",
							"name": "",
							"type": "bytes4"
						}
					],
					"stateMutability": "view",
					"type": "function"
				},
				{
					"inputs": [
						{
							"internalType": "bytes",
							"name": "_data",
							"type": "bytes"
						},
						{
							"internalType": "bytes",
							"name": "_signatures",
							"type": "bytes"
						}
					],
					"name": "isValidSignature",
					"outputs": [
						{
							"internalType": "bytes4",
							"name": "",
							"type": "bytes4"
						}
					],
					"stateMutability": "view",
					"type": "function"
				},
				{
					"inputs": [],
					"name": "nonce",
					"outputs": [
						{
							"internalType": "uint256",
							"name": "",
							"type": "uint256"
						}
					],
					"stateMutability": "view",
					"type": "function"
				},
				{
					"inputs": [
						{
							"internalType": "uint256",
							"name": "_space",
							"type": "uint256"
						}
					],
					"name": "readNonce",
					"outputs": [
						{
							"internalType": "uint256",
							"name": "",
							"type": "uint256"
						}
					],
					"stateMutability": "view",
					"type": "function"
				},
				{
					"inputs": [
						{
							"components": [
								{
									"internalType": "bool",
									"name": "delegateCall",
									"type": "bool"
								},
								{
									"internalType": "bool",
									"name": "revertOnError",
									"type": "bool"
								},
								{
									"internalType": "uint256",
									"name": "gasLimit",
									"type": "uint256"
								},
								{
									"internalType": "address",
									"name": "target",
									"type": "address"
								},
								{
									"internalType": "uint256",
									"name": "value",
									"type": "uint256"
								},
								{
									"internalType": "bytes",
									"name": "data",
									"type": "bytes"
								}
							],
							"internalType": "struct IModuleCalls.Transaction[]",
							"name": "_txs",
							"type": "tuple[]"
						}
					],
					"name": "selfExecute",
					"outputs": [],
					"stateMutability": "nonpayable",
					"type": "function"
				},
				{
					"inputs": [
						{
							"internalType": "bytes4",
							"name": "_interfaceID",
							"type": "bytes4"
						}
					],
					"name": "supportsInterface",
					"outputs": [
						{
							"internalType": "bool",
							"name": "",
							"type": "bool"
						}
					],
					"stateMutability": "pure",
					"type": "function"
				}
			],
			"evm": {
				"bytecode": {
					"linkReferences": {},
					"object": "608060405234801561001057600080fd5b50611ddc806100206000396000f3fe60806040526004361061007b5760003560e01c80637a9a16281161004e5780637a9a1628146101255780638c3f55631461014557806390042baf14610172578063affed0e0146101925761007b565b806301ffc9a7146100805780631626ba7e146100b657806320c13b0b146100e357806361c2926c14610103575b600080fd5b34801561008c57600080fd5b506100a061009b366004611677565b6101a7565b6040516100ad91906118be565b60405180910390f35b3480156100c257600080fd5b506100d66100d136600461162d565b6101ba565b6040516100ad91906118eb565b3480156100ef57600080fd5b506100d66100fe3660046116b7565b610233565b34801561010f57600080fd5b5061012361011e366004611590565b61028d565b005b34801561013157600080fd5b506101236101403660046115c3565b6102ce565b34801561015157600080fd5b50610165610160366004611753565b6102f6565b6040516100ad91906118c9565b610185610180366004611720565b610322565b6040516100ad919061189d565b34801561019e57600080fd5b506101656103d6565b60006101b2826103e7565b90505b919050565b60006102046101c885610444565b84848080601f0160208091040260200160405190810160405280939291908181526020018383808284376000920191909152506104a492505050565b1561022c57507f1626ba7e000000000000000000000000000000000000000000000000000000005b9392505050565b600061025d6101c88686604051808383808284376040519201829003909120935061044492505050565b1561028557507f20c13b0b000000000000000000000000000000000000000000000000000000005b949350505050565b60006102be826040516020016102a39190611a19565b60405160208183030381529060405280519060200120610444565b90506102ca818361069c565b5050565b60006102e4846040516020016102a39190611975565b90506102f0818561069c565b50505050565b60006101b27f8d0bf1fd623d628c741362c1289948e57b3e2905218c676d3e69abee36d6ae2e83610817565b600033301461037c576040517f08c379a0000000000000000000000000000000000000000000000000000000008152600401808060200182810382526027815260200180611d806027913960400191505060405180910390fd5b81516020830134f06040805173ffffffffffffffffffffffffffffffffffffffff8316815290519192507fa506ad4e7f05eceba62a023c3219e5bd98a615f4fa87e2afb08a2da5cf62bf0c919081900360200190a1919050565b60006103e260006102f6565b905090565b60007fffffffff0000000000000000000000000000000000000000000000000000000082167f90042baf00000000000000000000000000000000000000000000000000000000141561043b575060016101b5565b6101b282610844565b604080517f19010000000000000000000000000000000000000000000000000000000000006020808301919091524660228301523060601b6042830152605680830194909452825180830390940184526076909101909152815191012090565b60008060006104b2846108a1565b909250905061ffff821660005b855183101561067957600080806104d6898761090f565b975060ff918216945016915060018314156104fe576104f58987610990565b96509050610622565b8261052a57606061050f8a88610a08565b9750905061051d8b82610ab9565b9150828501945050610622565b60028314156105d15761053d8987610990565b96509050600061054d8a88610e43565b975061ffff16905060606105628b8984610eb4565b985090506105718c8483610fa3565b6105c6576040517f08c379a0000000000000000000000000000000000000000000000000000000008152600401808060200182810382526032815260200180611c0b6032913960400191505060405180910390fd5b505092810192610622565b6040517f08c379a000000000000000000000000000000000000000000000000000000000815260040180806020018281038252602c815260200180611b28602c913960400191505060405180910390fd5b848282604051602001808481526020018381526020018273ffffffffffffffffffffffffffffffffffffffff16815260200193505050506040516020818303038152906040528051906020012094505050506104bf565b8361ffff1681101580156106915750610691826111eb565b979650505050505050565b60005b81518110156108125760008282815181106106b657fe5b6020026020010151905060006060826000015115610709576040517f08c379a0000000000000000000000000000000000000000000000000000000008152600401610700906119bc565b60405180910390fd5b82604001515a1015610747576040517f08c379a000000000000000000000000000000000000000000000000000000000815260040161070090611918565b826060015173ffffffffffffffffffffffffffffffffffffffff168360800151846040015160001461077d57846040015161077f565b5a5b908560a001516040516107929190611881565b600060405180830381858888f193505050503d80600081146107d0576040519150601f19603f3d011682016040523d82523d6000602084013e6107d5565b606091505b50909250905081156107fc57856040516107ef91906118c9565b60405180910390a0610807565b6108078387836111f1565b50505060010161069f565b505050565b60408051602080820194909452808201929092528051808303820181526060909201905280519101205490565b60007fffffffff0000000000000000000000000000000000000000000000000000000082167f389901c7000000000000000000000000000000000000000000000000000000001415610898575060016101b5565b6101b282611241565b6020810151815160f09190911c9060029081111561090a576040517f08c379a0000000000000000000000000000000000000000000000000000000008152600401808060200182810382526027815260200180611b776027913960400191505060405180910390fd5b915091565b8082016020015160f881901c9060f01c60ff166002830183811161092f57fe5b8451811115610989576040517f08c379a0000000000000000000000000000000000000000000000000000000008152600401808060200182810382526026815260200180611cdb6026913960400191505060405180910390fd5b9250925092565b8082016020015160601c601482018281116109a757fe5b8351811115610a01576040517f08c379a0000000000000000000000000000000000000000000000000000000008152600401808060200182810382526023815260200180611b546023913960400191505060405180910390fd5b9250929050565b604080516042808252608082019092526060916000919060208201818036833701905050915082840160200180516020840152602081015160408401526022810151604284015250604283019050828111610a5f57fe5b8351811115610a01576040517f08c379a0000000000000000000000000000000000000000000000000000000008152600401808060200182810382526023815260200180611c7c6023913960400191505060405180910390fd5b60008151604214610b15576040517f08c379a000000000000000000000000000000000000000000000000000000000815260040180806020018281038252603a815260200180611aee603a913960400191505060405180910390fd5b600082600184510381518110610b2757fe5b602001015160f81c60f81b60f81c60ff169050600083604081518110610b4957fe5b016020015160f81c90506000610b5f85826112c9565b90506000610b6e8660206112c9565b90507f7fffffffffffffffffffffffffffffff5d576e7357a4501ddfe92f46681b20a0811115610be9576040517f08c379a000000000000000000000000000000000000000000000000000000000815260040180806020018281038252603d815260200180611ab1603d913960400191505060405180910390fd5b8260ff16601b14158015610c0157508260ff16601c14155b15610c57576040517f08c379a000000000000000000000000000000000000000000000000000000000815260040180806020018281038252603d815260200180611b9e603d913960400191505060405180910390fd5b6001841415610ccb5760018784848460405160008152602001604052604051808581526020018460ff1681526020018381526020018281526020019450505050506020604051602081039080840390855afa158015610cba573d6000803e3d6000fd5b505050602060405103519450610dcd565b6002841415610d7c5760018760405160200180807f19457468657265756d205369676e6564204d6573736167653a0a333200000000815250601c018281526020019150506040516020818303038152906040528051906020012084848460405160008152602001604052604051808581526020018460ff1681526020018381526020018281526020019450505050506020604051602081039080840390855afa158015610cba573d6000803e3d6000fd5b6040517f08c379a000000000000000000000000000000000000000000000000000000000815260040180806020018281038252603c815260200180611c9f603c913960400191505060405180910390fd5b73ffffffffffffffffffffffffffffffffffffffff8516610e39576040517f08c379a0000000000000000000000000000000000000000000000000000000008152600401808060200182810382526030815260200180611bdb6030913960400191505060405180910390fd5b5050505092915050565b8082016020015160f01c60028201828111610e5a57fe5b8351811115610a01576040517f08c379a0000000000000000000000000000000000000000000000000000000008152600401808060200182810382526022815260200180611d226022913960400191505060405180910390fd5b606060008267ffffffffffffffff81118015610ecf57600080fd5b506040519080825280601f01601f191660200182016040528015610efa576020820181803683370190505b509150838501602001600060205b85811015610f2157908201518482015260208101610f08565b8486016020018051939092015190850152525082820183811015610f4157fe5b8451811115610f9b576040517f08c379a0000000000000000000000000000000000000000000000000000000008152600401808060200182810382526021815260200180611d016021913960400191505060405180910390fd5b935093915050565b60008082600184510381518110610fb657fe5b016020015160f81c90506001811480610fcf5750600281145b15611013578373ffffffffffffffffffffffffffffffffffffffff16610ff58685610ab9565b73ffffffffffffffffffffffffffffffffffffffff161491506111e3565b60038114156111925782517fffffffffffffffffffffffffffffffffffffffffffffffffffffffffffffffff81018452604080517f1626ba7e000000000000000000000000000000000000000000000000000000008152600481018881526024820192835286516044830152865173ffffffffffffffffffffffffffffffffffffffff891693631626ba7e938b938a9390929160640190602085019080838360005b838110156110cd5781810151838201526020016110b5565b50505050905090810190601f1680156110fa5780820380516001836020036101000a031916815260200191505b50935050505060206040518083038186803b15801561111857600080fd5b505afa15801561112c573d6000803e3d6000fd5b505050506040513d602081101561114257600080fd5b50519084527fffffffff00000000000000000000000000000000000000000000000000000000167f1626ba7e000000000000000000000000000000000000000000000000000000001491506111e3565b6040517f08c379a000000000000000000000000000000000000000000000000000000000815260040180806020018281038252603f815260200180611c3d603f913960400191505060405180910390fd5b509392505050565b50600190565b82602001511561120357805160208201fd5b7f3dbd1590ea96dd3253a91f24e64e3a502e1225d602a5731357bc12643070ccd782826040516112349291906118d2565b60405180910390a1505050565b60007fffffffff00000000000000000000000000000000000000000000000000000000821615806112b357507fffffffff0000000000000000000000000000000000000000000000000000000082167f36e7817500000000000000000000000000000000000000000000000000000000145b156112c0575060016101b5565b6101b282611331565b60008160200183511015611328576040517f08c379a000000000000000000000000000000000000000000000000000000000815260040180806020018281038252603c815260200180611d44603c913960400191505060405180910390fd5b50016020015190565b7fffffffff0000000000000000000000000000000000000000000000000000000081167f01ffc9a70000000000000000000000000000000000000000000000000000000014919050565b803573ffffffffffffffffffffffffffffffffffffffff811681146101b557600080fd5b600082601f8301126113af578081fd5b8135602067ffffffffffffffff808311156113c657fe5b6113d38283850201611a60565b83815282810190868401865b868110156114af578135890160c0807fffffffffffffffffffffffffffffffffffffffffffffffffffffffffffffffe0838e0301121561141d57898afd5b604080518281018181108a8211171561143257fe5b825261143f848b016114bd565b815261144c8285016114bd565b8a820152606080850135838301526080925061146983860161137b565b9082015260a08481013583830152928401359289841115611488578c8dfd5b6114968f8c8688010161150d565b90820152875250505092850192908501906001016113df565b509098975050505050505050565b803580151581146101b557600080fd5b60008083601f8401126114de578182fd5b50813567ffffffffffffffff8111156114f5578182fd5b602083019150836020828501011115610a0157600080fd5b600082601f83011261151d578081fd5b813567ffffffffffffffff81111561153157fe5b61156260207fffffffffffffffffffffffffffffffffffffffffffffffffffffffffffffffe0601f84011601611a60565b818152846020838601011115611576578283fd5b816020850160208301379081016020019190915292915050565b6000602082840312156115a1578081fd5b813567ffffffffffffffff8111156115b7578182fd5b6102858482850161139f565b6000806000606084860312156115d7578182fd5b833567ffffffffffffffff808211156115ee578384fd5b6115fa8783880161139f565b9450602086013593506040860135915080821115611616578283fd5b506116238682870161150d565b9150509250925092565b600080600060408486031215611641578283fd5b83359250602084013567ffffffffffffffff81111561165e578283fd5b61166a868287016114cd565b9497909650939450505050565b600060208284031215611688578081fd5b81357fffffffff000000000000000000000000000000000000000000000000000000008116811461022c578182fd5b600080600080604085870312156116cc578081fd5b843567ffffffffffffffff808211156116e3578283fd5b6116ef888389016114cd565b90965094506020870135915080821115611707578283fd5b50611714878288016114cd565b95989497509550505050565b600060208284031215611731578081fd5b813567ffffffffffffffff811115611747578182fd5b6102858482850161150d565b600060208284031215611764578081fd5b5035919050565b60008282518085526020808601955080818302840101818601855b8481101561182a578583037fffffffffffffffffffffffffffffffffffffffffffffffffffffffffffffffe00189528151805115158452848101511515858501526040808201519085015260608082015173ffffffffffffffffffffffffffffffffffffffff16908501526080808201519085015260a09081015160c09185018290529061181681860183611837565b9a86019a9450505090830190600101611786565b5090979650505050505050565b6000815180845261184f816020860160208601611a84565b601f017fffffffffffffffffffffffffffffffffffffffffffffffffffffffffffffffe0169290920160200192915050565b60008251611893818460208701611a84565b9190910192915050565b73ffffffffffffffffffffffffffffffffffffffff91909116815260200190565b901515815260200190565b90815260200190565b6000838252604060208301526102856040830184611837565b7fffffffff0000000000000000000000000000000000000000000000000000000091909116815260200190565b60208082526029908201527f47756573744d6f64756c65235f6578656375746547756573743a204e4f545f4560408201527f4e4f5547485f4741530000000000000000000000000000000000000000000000606082015260800190565b600060408252600660408301527f67756573743a000000000000000000000000000000000000000000000000000060608301526080602083015261022c608083018461176b565b60208082526033908201527f47756573744d6f64756c65235f6578656375746547756573743a2064656c656760408201527f61746543616c6c206e6f7420616c6c6f77656400000000000000000000000000606082015260800190565b600060408252600560408301527f73656c663a00000000000000000000000000000000000000000000000000000060608301526080602083015261022c608083018461176b565b60405181810167ffffffffffffffff81118282101715611a7c57fe5b604052919050565b60005b83811015611a9f578181015183820152602001611a87565b838111156102f0575050600091015256fe5369676e617475726556616c696461746f72237265636f7665725369676e65723a20696e76616c6964207369676e6174757265202773272076616c75655369676e617475726556616c696461746f72237265636f7665725369676e65723a20696e76616c6964207369676e6174757265206c656e6774684d6f64756c6541757468235f7369676e617475726556616c69646174696f6e20494e56414c49445f464c41474c696242797465732372656164416464726573733a204f55545f4f465f424f554e44534c696242797465732372656164466972737455696e7431363a204f55545f4f465f424f554e44535369676e617475726556616c696461746f72237265636f7665725369676e65723a20696e76616c6964207369676e6174757265202776272076616c75655369676e617475726556616c696461746f72237265636f7665725369676e65723a20494e56414c49445f5349474e45524d6f64756c6541757468235f7369676e617475726556616c69646174696f6e3a20494e56414c49445f5349474e41545552455369676e617475726556616c696461746f7223697356616c69645369676e61747572653a20554e535550504f525445445f5349474e41545552455f545950454c696242797465732372656164427974657336363a204f55545f4f465f424f554e44535369676e617475726556616c696461746f72237265636f7665725369676e65723a20554e535550504f525445445f5349474e41545552455f545950454c69624279746573237265616455696e743855696e74383a204f55545f4f465f424f554e44534c69624279746573237265616442797465733a204f55545f4f465f424f554e44534c69624279746573237265616455696e7431363a204f55545f4f465f424f554e44534c696242797465732372656164427974657333323a20475245415445525f4f525f455155414c5f544f5f33325f4c454e4754485f52455155495245444d6f64756c6553656c6641757468236f6e6c7953656c663a204e4f545f415554484f52495a4544a2646970667358221220f5a1de0b650baa2ee828e8766bc6dbd0c74da0cc4735a143852d24f868e4b62464736f6c63430007060033",
					"opcodes": "PUSH1 0x80 PUSH1 0x40 MSTORE CALLVALUE DUP1 ISZERO PUSH2 0x10 JUMPI PUSH1 0x0 DUP1 REVERT JUMPDEST POP PUSH2 0x1DDC DUP1 PUSH2 0x20 PUSH1 0x0 CODECOPY PUSH1 0x0 RETURN INVALID PUSH1 0x80 PUSH1 0x40 MSTORE PUSH1 0x4 CALLDATASIZE LT PUSH2 0x7B JUMPI PUSH1 0x0 CALLDATALOAD PUSH1 0xE0 SHR DUP1 PUSH4 0x7A9A1628 GT PUSH2 0x4E JUMPI DUP1 PUSH4 0x7A9A1628 EQ PUSH2 0x125 JUMPI DUP1 PUSH4 0x8C3F5563 EQ PUSH2 0x145 JUMPI DUP1 PUSH4 0x90042BAF EQ PUSH2 0x172 JUMPI DUP1 PUSH4 0xAFFED0E0 EQ PUSH2 0x192 JUMPI PUSH2 0x7B JUMP JUMPDEST DUP1 PUSH4 0x1FFC9A7 EQ PUSH2 0x80 JUMPI DUP1 PUSH4 0x1626BA7E EQ PUSH2 0xB6 JUMPI DUP1 PUSH4 0x20C13B0B EQ PUSH2 0xE3 JUMPI DUP1 PUSH4 0x61C2926C EQ PUSH2 0x103 JUMPI JUMPDEST PUSH1 0x0 DUP1 REVERT JUMPDEST CALLVALUE DUP1 ISZERO PUSH2 0x8C JUMPI PUSH1 0x0 DUP1 REVERT JUMPDEST POP PUSH2 0xA0 PUSH2 0x9B CALLDATASIZE PUSH1 0x4 PUSH2 0x1677 JUMP JUMPDEST PUSH2 0x1A7 JUMP JUMPDEST PUSH1 0x40 MLOAD PUSH2 0xAD SWAP2 SWAP1 PUSH2 0x18BE JUMP JUMPDEST PUSH1 0x40 MLOAD DUP1 SWAP2 SUB SWAP1 RETURN JUMPDEST CALLVALUE DUP1 ISZERO PUSH2 0xC2 JUMPI PUSH1 0x0 DUP1 REVERT JUMPDEST POP PUSH2 0xD6 PUSH2 0xD1 CALLDATASIZE PUSH1 0x4 PUSH2 0x162D JUMP JUMPDEST PUSH2 0x1BA JUMP JUMPDEST PUSH1 0x40 MLOAD PUSH2 0xAD SWAP2 SWAP1 PUSH2 0x18EB JUMP JUMPDEST CALLVALUE DUP1 ISZERO PUSH2 0xEF JUMPI PUSH1 0x0 DUP1 REVERT JUMPDEST POP PUSH2 0xD6 PUSH2 0xFE CALLDATASIZE PUSH1 0x4 PUSH2 0x16B7 JUMP JUMPDEST PUSH2 0x233 JUMP JUMPDEST CALLVALUE DUP1 ISZERO PUSH2 0x10F JUMPI PUSH1 0x0 DUP1 REVERT JUMPDEST POP PUSH2 0x123 PUSH2 0x11E CALLDATASIZE PUSH1 0x4 PUSH2 0x1590 JUMP JUMPDEST PUSH2 0x28D JUMP JUMPDEST STOP JUMPDEST CALLVALUE DUP1 ISZERO PUSH2 0x131 JUMPI PUSH1 0x0 DUP1 REVERT JUMPDEST POP PUSH2 0x123 PUSH2 0x140 CALLDATASIZE PUSH1 0x4 PUSH2 0x15C3 JUMP JUMPDEST PUSH2 0x2CE JUMP JUMPDEST CALLVALUE DUP1 ISZERO PUSH2 0x151 JUMPI PUSH1 0x0 DUP1 REVERT JUMPDEST POP PUSH2 0x165 PUSH2 0x160 CALLDATASIZE PUSH1 0x4 PUSH2 0x1753 JUMP JUMPDEST PUSH2 0x2F6 JUMP JUMPDEST PUSH1 0x40 MLOAD PUSH2 0xAD SWAP2 SWAP1 PUSH2 0x18C9 JUMP JUMPDEST PUSH2 0x185 PUSH2 0x180 CALLDATASIZE PUSH1 0x4 PUSH2 0x1720 JUMP JUMPDEST PUSH2 0x322 JUMP JUMPDEST PUSH1 0x40 MLOAD PUSH2 0xAD SWAP2 SWAP1 PUSH2 0x189D JUMP JUMPDEST CALLVALUE DUP1 ISZERO PUSH2 0x19E JUMPI PUSH1 0x0 DUP1 REVERT JUMPDEST POP PUSH2 0x165 PUSH2 0x3D6 JUMP JUMPDEST PUSH1 0x0 PUSH2 0x1B2 DUP3 PUSH2 0x3E7 JUMP JUMPDEST SWAP1 POP JUMPDEST SWAP2 SWAP1 POP JUMP JUMPDEST PUSH1 0x0 PUSH2 0x204 PUSH2 0x1C8 DUP6 PUSH2 0x444 JUMP JUMPDEST DUP5 DUP5 DUP1 DUP1 PUSH1 0x1F ADD PUSH1 0x20 DUP1 SWAP2 DIV MUL PUSH1 0x20 ADD PUSH1 0x40 MLOAD SWAP1 DUP2 ADD PUSH1 0x40 MSTORE DUP1 SWAP4 SWAP3 SWAP2 SWAP1 DUP2 DUP2 MSTORE PUSH1 0x20 ADD DUP4 DUP4 DUP1 DUP3 DUP5 CALLDATACOPY PUSH1 0x0 SWAP3 ADD SWAP2 SWAP1 SWAP2 MSTORE POP PUSH2 0x4A4 SWAP3 POP POP POP JUMP JUMPDEST ISZERO PUSH2 0x22C JUMPI POP PUSH32 0x1626BA7E00000000000000000000000000000000000000000000000000000000 JUMPDEST SWAP4 SWAP3 POP POP POP JUMP JUMPDEST PUSH1 0x0 PUSH2 0x25D PUSH2 0x1C8 DUP7 DUP7 PUSH1 0x40 MLOAD DUP1 DUP4 DUP4 DUP1 DUP3 DUP5 CALLDATACOPY PUSH1 0x40 MLOAD SWAP3 ADD DUP3 SWAP1 SUB SWAP1 SWAP2 KECCAK256 SWAP4 POP PUSH2 0x444 SWAP3 POP POP POP JUMP JUMPDEST ISZERO PUSH2 0x285 JUMPI POP PUSH32 0x20C13B0B00000000000000000000000000000000000000000000000000000000 JUMPDEST SWAP5 SWAP4 POP POP POP POP JUMP JUMPDEST PUSH1 0x0 PUSH2 0x2BE DUP3 PUSH1 0x40 MLOAD PUSH1 0x20 ADD PUSH2 0x2A3 SWAP2 SWAP1 PUSH2 0x1A19 JUMP JUMPDEST PUSH1 0x40 MLOAD PUSH1 0x20 DUP2 DUP4 SUB SUB DUP2 MSTORE SWAP1 PUSH1 0x40 MSTORE DUP1 MLOAD SWAP1 PUSH1 0x20 ADD KECCAK256 PUSH2 0x444 JUMP JUMPDEST SWAP1 POP PUSH2 0x2CA DUP2 DUP4 PUSH2 0x69C JUMP JUMPDEST POP POP JUMP JUMPDEST PUSH1 0x0 PUSH2 0x2E4 DUP5 PUSH1 0x40 MLOAD PUSH1 0x20 ADD PUSH2 0x2A3 SWAP2 SWAP1 PUSH2 0x1975 JUMP JUMPDEST SWAP1 POP PUSH2 0x2F0 DUP2 DUP6 PUSH2 0x69C JUMP JUMPDEST POP POP POP POP JUMP JUMPDEST PUSH1 0x0 PUSH2 0x1B2 PUSH32 0x8D0BF1FD623D628C741362C1289948E57B3E2905218C676D3E69ABEE36D6AE2E DUP4 PUSH2 0x817 JUMP JUMPDEST PUSH1 0x0 CALLER ADDRESS EQ PUSH2 0x37C JUMPI PUSH1 0x40 MLOAD PUSH32 0x8C379A000000000000000000000000000000000000000000000000000000000 DUP2 MSTORE PUSH1 0x4 ADD DUP1 DUP1 PUSH1 0x20 ADD DUP3 DUP2 SUB DUP3 MSTORE PUSH1 0x27 DUP2 MSTORE PUSH1 0x20 ADD DUP1 PUSH2 0x1D80 PUSH1 0x27 SWAP2 CODECOPY PUSH1 0x40 ADD SWAP2 POP POP PUSH1 0x40 MLOAD DUP1 SWAP2 SUB SWAP1 REVERT JUMPDEST DUP2 MLOAD PUSH1 0x20 DUP4 ADD CALLVALUE CREATE PUSH1 0x40 DUP1 MLOAD PUSH20 0xFFFFFFFFFFFFFFFFFFFFFFFFFFFFFFFFFFFFFFFF DUP4 AND DUP2 MSTORE SWAP1 MLOAD SWAP2 SWAP3 POP PUSH32 0xA506AD4E7F05ECEBA62A023C3219E5BD98A615F4FA87E2AFB08A2DA5CF62BF0C SWAP2 SWAP1 DUP2 SWAP1 SUB PUSH1 0x20 ADD SWAP1 LOG1 SWAP2 SWAP1 POP JUMP JUMPDEST PUSH1 0x0 PUSH2 0x3E2 PUSH1 0x0 PUSH2 0x2F6 JUMP JUMPDEST SWAP1 POP SWAP1 JUMP JUMPDEST PUSH1 0x0 PUSH32 0xFFFFFFFF00000000000000000000000000000000000000000000000000000000 DUP3 AND PUSH32 0x90042BAF00000000000000000000000000000000000000000000000000000000 EQ ISZERO PUSH2 0x43B JUMPI POP PUSH1 0x1 PUSH2 0x1B5 JUMP JUMPDEST PUSH2 0x1B2 DUP3 PUSH2 0x844 JUMP JUMPDEST PUSH1 0x40 DUP1 MLOAD PUSH32 0x1901000000000000000000000000000000000000000000000000000000000000 PUSH1 0x20 DUP1 DUP4 ADD SWAP2 SWAP1 SWAP2 MSTORE CHAINID PUSH1 0x22 DUP4 ADD MSTORE ADDRESS PUSH1 0x60 SHL PUSH1 0x42 DUP4 ADD MSTORE PUSH1 0x56 DUP1 DUP4 ADD SWAP5 SWAP1 SWAP5 MSTORE DUP3 MLOAD DUP1 DUP4 SUB SWAP1 SWAP5 ADD DUP5 MSTORE PUSH1 0x76 SWAP1 SWAP2 ADD SWAP1 SWAP2 MSTORE DUP2 MLOAD SWAP2 ADD KECCAK256 SWAP1 JUMP JUMPDEST PUSH1 0x0 DUP1 PUSH1 0x0 PUSH2 0x4B2 DUP5 PUSH2 0x8A1 JUMP JUMPDEST SWAP1 SWAP3 POP SWAP1 POP PUSH2 0xFFFF DUP3 AND PUSH1 0x0 JUMPDEST DUP6 MLOAD DUP4 LT ISZERO PUSH2 0x679 JUMPI PUSH1 0x0 DUP1 DUP1 PUSH2 0x4D6 DUP10 DUP8 PUSH2 0x90F JUMP JUMPDEST SWAP8 POP PUSH1 0xFF SWAP2 DUP3 AND SWAP5 POP AND SWAP2 POP PUSH1 0x1 DUP4 EQ ISZERO PUSH2 0x4FE JUMPI PUSH2 0x4F5 DUP10 DUP8 PUSH2 0x990 JUMP JUMPDEST SWAP7 POP SWAP1 POP PUSH2 0x622 JUMP JUMPDEST DUP3 PUSH2 0x52A JUMPI PUSH1 0x60 PUSH2 0x50F DUP11 DUP9 PUSH2 0xA08 JUMP JUMPDEST SWAP8 POP SWAP1 POP PUSH2 0x51D DUP12 DUP3 PUSH2 0xAB9 JUMP JUMPDEST SWAP2 POP DUP3 DUP6 ADD SWAP5 POP POP PUSH2 0x622 JUMP JUMPDEST PUSH1 0x2 DUP4 EQ ISZERO PUSH2 0x5D1 JUMPI PUSH2 0x53D DUP10 DUP8 PUSH2 0x990 JUMP JUMPDEST SWAP7 POP SWAP1 POP PUSH1 0x0 PUSH2 0x54D DUP11 DUP9 PUSH2 0xE43 JUMP JUMPDEST SWAP8 POP PUSH2 0xFFFF AND SWAP1 POP PUSH1 0x60 PUSH2 0x562 DUP12 DUP10 DUP5 PUSH2 0xEB4 JUMP JUMPDEST SWAP9 POP SWAP1 POP PUSH2 0x571 DUP13 DUP5 DUP4 PUSH2 0xFA3 JUMP JUMPDEST PUSH2 0x5C6 JUMPI PUSH1 0x40 MLOAD PUSH32 0x8C379A000000000000000000000000000000000000000000000000000000000 DUP2 MSTORE PUSH1 0x4 ADD DUP1 DUP1 PUSH1 0x20 ADD DUP3 DUP2 SUB DUP3 MSTORE PUSH1 0x32 DUP2 MSTORE PUSH1 0x20 ADD DUP1 PUSH2 0x1C0B PUSH1 0x32 SWAP2 CODECOPY PUSH1 0x40 ADD SWAP2 POP POP PUSH1 0x40 MLOAD DUP1 SWAP2 SUB SWAP1 REVERT JUMPDEST POP POP SWAP3 DUP2 ADD SWAP3 PUSH2 0x622 JUMP JUMPDEST PUSH1 0x40 MLOAD PUSH32 0x8C379A000000000000000000000000000000000000000000000000000000000 DUP2 MSTORE PUSH1 0x4 ADD DUP1 DUP1 PUSH1 0x20 ADD DUP3 DUP2 SUB DUP3 MSTORE PUSH1 0x2C DUP2 MSTORE PUSH1 0x20 ADD DUP1 PUSH2 0x1B28 PUSH1 0x2C SWAP2 CODECOPY PUSH1 0x40 ADD SWAP2 POP POP PUSH1 0x40 MLOAD DUP1 SWAP2 SUB SWAP1 REVERT JUMPDEST DUP5 DUP3 DUP3 PUSH1 0x40 MLOAD PUSH1 0x20 ADD DUP1 DUP5 DUP2 MSTORE PUSH1 0x20 ADD DUP4 DUP2 MSTORE PUSH1 0x20 ADD DUP3 PUSH20 0xFFFFFFFFFFFFFFFFFFFFFFFFFFFFFFFFFFFFFFFF AND DUP2 MSTORE PUSH1 0x20 ADD SWAP4 POP POP POP POP PUSH1 0x40 MLOAD PUSH1 0x20 DUP2 DUP4 SUB SUB DUP2 MSTORE SWAP1 PUSH1 0x40 MSTORE DUP1 MLOAD SWAP1 PUSH1 0x20 ADD KECCAK256 SWAP5 POP POP POP POP PUSH2 0x4BF JUMP JUMPDEST DUP4 PUSH2 0xFFFF AND DUP2 LT ISZERO DUP1 ISZERO PUSH2 0x691 JUMPI POP PUSH2 0x691 DUP3 PUSH2 0x11EB JUMP JUMPDEST SWAP8 SWAP7 POP POP POP POP POP POP POP JUMP JUMPDEST PUSH1 0x0 JUMPDEST DUP2 MLOAD DUP2 LT ISZERO PUSH2 0x812 JUMPI PUSH1 0x0 DUP3 DUP3 DUP2 MLOAD DUP2 LT PUSH2 0x6B6 JUMPI INVALID JUMPDEST PUSH1 0x20 MUL PUSH1 0x20 ADD ADD MLOAD SWAP1 POP PUSH1 0x0 PUSH1 0x60 DUP3 PUSH1 0x0 ADD MLOAD ISZERO PUSH2 0x709 JUMPI PUSH1 0x40 MLOAD PUSH32 0x8C379A000000000000000000000000000000000000000000000000000000000 DUP2 MSTORE PUSH1 0x4 ADD PUSH2 0x700 SWAP1 PUSH2 0x19BC JUMP JUMPDEST PUSH1 0x40 MLOAD DUP1 SWAP2 SUB SWAP1 REVERT JUMPDEST DUP3 PUSH1 0x40 ADD MLOAD GAS LT ISZERO PUSH2 0x747 JUMPI PUSH1 0x40 MLOAD PUSH32 0x8C379A000000000000000000000000000000000000000000000000000000000 DUP2 MSTORE PUSH1 0x4 ADD PUSH2 0x700 SWAP1 PUSH2 0x1918 JUMP JUMPDEST DUP3 PUSH1 0x60 ADD MLOAD PUSH20 0xFFFFFFFFFFFFFFFFFFFFFFFFFFFFFFFFFFFFFFFF AND DUP4 PUSH1 0x80 ADD MLOAD DUP5 PUSH1 0x40 ADD MLOAD PUSH1 0x0 EQ PUSH2 0x77D JUMPI DUP5 PUSH1 0x40 ADD MLOAD PUSH2 0x77F JUMP JUMPDEST GAS JUMPDEST SWAP1 DUP6 PUSH1 0xA0 ADD MLOAD PUSH1 0x40 MLOAD PUSH2 0x792 SWAP2 SWAP1 PUSH2 0x1881 JUMP JUMPDEST PUSH1 0x0 PUSH1 0x40 MLOAD DUP1 DUP4 SUB DUP2 DUP6 DUP9 DUP9 CALL SWAP4 POP POP POP POP RETURNDATASIZE DUP1 PUSH1 0x0 DUP2 EQ PUSH2 0x7D0 JUMPI PUSH1 0x40 MLOAD SWAP2 POP PUSH1 0x1F NOT PUSH1 0x3F RETURNDATASIZE ADD AND DUP3 ADD PUSH1 0x40 MSTORE RETURNDATASIZE DUP3 MSTORE RETURNDATASIZE PUSH1 0x0 PUSH1 0x20 DUP5 ADD RETURNDATACOPY PUSH2 0x7D5 JUMP JUMPDEST PUSH1 0x60 SWAP2 POP JUMPDEST POP SWAP1 SWAP3 POP SWAP1 POP DUP2 ISZERO PUSH2 0x7FC JUMPI DUP6 PUSH1 0x40 MLOAD PUSH2 0x7EF SWAP2 SWAP1 PUSH2 0x18C9 JUMP JUMPDEST PUSH1 0x40 MLOAD DUP1 SWAP2 SUB SWAP1 LOG0 PUSH2 0x807 JUMP JUMPDEST PUSH2 0x807 DUP4 DUP8 DUP4 PUSH2 0x11F1 JUMP JUMPDEST POP POP POP PUSH1 0x1 ADD PUSH2 0x69F JUMP JUMPDEST POP POP POP JUMP JUMPDEST PUSH1 0x40 DUP1 MLOAD PUSH1 0x20 DUP1 DUP3 ADD SWAP5 SWAP1 SWAP5 MSTORE DUP1 DUP3 ADD SWAP3 SWAP1 SWAP3 MSTORE DUP1 MLOAD DUP1 DUP4 SUB DUP3 ADD DUP2 MSTORE PUSH1 0x60 SWAP1 SWAP3 ADD SWAP1 MSTORE DUP1 MLOAD SWAP2 ADD KECCAK256 SLOAD SWAP1 JUMP JUMPDEST PUSH1 0x0 PUSH32 0xFFFFFFFF00000000000000000000000000000000000000000000000000000000 DUP3 AND PUSH32 0x389901C700000000000000000000000000000000000000000000000000000000 EQ ISZERO PUSH2 0x898 JUMPI POP PUSH1 0x1 PUSH2 0x1B5 JUMP JUMPDEST PUSH2 0x1B2 DUP3 PUSH2 0x1241 JUMP JUMPDEST PUSH1 0x20 DUP2 ADD MLOAD DUP2 MLOAD PUSH1 0xF0 SWAP2 SWAP1 SWAP2 SHR SWAP1 PUSH1 0x2 SWAP1 DUP2 GT ISZERO PUSH2 0x90A JUMPI PUSH1 0x40 MLOAD PUSH32 0x8C379A000000000000000000000000000000000000000000000000000000000 DUP2 MSTORE PUSH1 0x4 ADD DUP1 DUP1 PUSH1 0x20 ADD DUP3 DUP2 SUB DUP3 MSTORE PUSH1 0x27 DUP2 MSTORE PUSH1 0x20 ADD DUP1 PUSH2 0x1B77 PUSH1 0x27 SWAP2 CODECOPY PUSH1 0x40 ADD SWAP2 POP POP PUSH1 0x40 MLOAD DUP1 SWAP2 SUB SWAP1 REVERT JUMPDEST SWAP2 POP SWAP2 JUMP JUMPDEST DUP1 DUP3 ADD PUSH1 0x20 ADD MLOAD PUSH1 0xF8 DUP2 SWAP1 SHR SWAP1 PUSH1 0xF0 SHR PUSH1 0xFF AND PUSH1 0x2 DUP4 ADD DUP4 DUP2 GT PUSH2 0x92F JUMPI INVALID JUMPDEST DUP5 MLOAD DUP2 GT ISZERO PUSH2 0x989 JUMPI PUSH1 0x40 MLOAD PUSH32 0x8C379A000000000000000000000000000000000000000000000000000000000 DUP2 MSTORE PUSH1 0x4 ADD DUP1 DUP1 PUSH1 0x20 ADD DUP3 DUP2 SUB DUP3 MSTORE PUSH1 0x26 DUP2 MSTORE PUSH1 0x20 ADD DUP1 PUSH2 0x1CDB PUSH1 0x26 SWAP2 CODECOPY PUSH1 0x40 ADD SWAP2 POP POP PUSH1 0x40 MLOAD DUP1 SWAP2 SUB SWAP1 REVERT JUMPDEST SWAP3 POP SWAP3 POP SWAP3 JUMP JUMPDEST DUP1 DUP3 ADD PUSH1 0x20 ADD MLOAD PUSH1 0x60 SHR PUSH1 0x14 DUP3 ADD DUP3 DUP2 GT PUSH2 0x9A7 JUMPI INVALID JUMPDEST DUP4 MLOAD DUP2 GT ISZERO PUSH2 0xA01 JUMPI PUSH1 0x40 MLOAD PUSH32 0x8C379A000000000000000000000000000000000000000000000000000000000 DUP2 MSTORE PUSH1 0x4 ADD DUP1 DUP1 PUSH1 0x20 ADD DUP3 DUP2 SUB DUP3 MSTORE PUSH1 0x23 DUP2 MSTORE PUSH1 0x20 ADD DUP1 PUSH2 0x1B54 PUSH1 0x23 SWAP2 CODECOPY PUSH1 0x40 ADD SWAP2 POP POP PUSH1 0x40 MLOAD DUP1 SWAP2 SUB SWAP1 REVERT JUMPDEST SWAP3 POP SWAP3 SWAP1 POP JUMP JUMPDEST PUSH1 0x40 DUP1 MLOAD PUSH1 0x42 DUP1 DUP3 MSTORE PUSH1 0x80 DUP3 ADD SWAP1 SWAP3 MSTORE PUSH1 0x60 SWAP2 PUSH1 0x0 SWAP2 SWAP1 PUSH1 0x20 DUP3 ADD DUP2 DUP1 CALLDATASIZE DUP4 CALLDATACOPY ADD SWAP1 POP POP SWAP2 POP DUP3 DUP5 ADD PUSH1 0x20 ADD DUP1 MLOAD PUSH1 0x20 DUP5 ADD MSTORE PUSH1 0x20 DUP2 ADD MLOAD PUSH1 0x40 DUP5 ADD MSTORE PUSH1 0x22 DUP2 ADD MLOAD PUSH1 0x42 DUP5 ADD MSTORE POP PUSH1 0x42 DUP4 ADD SWAP1 POP DUP3 DUP2 GT PUSH2 0xA5F JUMPI INVALID JUMPDEST DUP4 MLOAD DUP2 GT ISZERO PUSH2 0xA01 JUMPI PUSH1 0x40 MLOAD PUSH32 0x8C379A000000000000000000000000000000000000000000000000000000000 DUP2 MSTORE PUSH1 0x4 ADD DUP1 DUP1 PUSH1 0x20 ADD DUP3 DUP2 SUB DUP3 MSTORE PUSH1 0x23 DUP2 MSTORE PUSH1 0x20 ADD DUP1 PUSH2 0x1C7C PUSH1 0x23 SWAP2 CODECOPY PUSH1 0x40 ADD SWAP2 POP POP PUSH1 0x40 MLOAD DUP1 SWAP2 SUB SWAP1 REVERT JUMPDEST PUSH1 0x0 DUP2 MLOAD PUSH1 0x42 EQ PUSH2 0xB15 JUMPI PUSH1 0x40 MLOAD PUSH32 0x8C379A000000000000000000000000000000000000000000000000000000000 DUP2 MSTORE PUSH1 0x4 ADD DUP1 DUP1 PUSH1 0x20 ADD DUP3 DUP2 SUB DUP3 MSTORE PUSH1 0x3A DUP2 MSTORE PUSH1 0x20 ADD DUP1 PUSH2 0x1AEE PUSH1 0x3A SWAP2 CODECOPY PUSH1 0x40 ADD SWAP2 POP POP PUSH1 0x40 MLOAD DUP1 SWAP2 SUB SWAP1 REVERT JUMPDEST PUSH1 0x0 DUP3 PUSH1 0x1 DUP5 MLOAD SUB DUP2 MLOAD DUP2 LT PUSH2 0xB27 JUMPI INVALID JUMPDEST PUSH1 0x20 ADD ADD MLOAD PUSH1 0xF8 SHR PUSH1 0xF8 SHL PUSH1 0xF8 SHR PUSH1 0xFF AND SWAP1 POP PUSH1 0x0 DUP4 PUSH1 0x40 DUP2 MLOAD DUP2 LT PUSH2 0xB49 JUMPI INVALID JUMPDEST ADD PUSH1 0x20 ADD MLOAD PUSH1 0xF8 SHR SWAP1 POP PUSH1 0x0 PUSH2 0xB5F DUP6 DUP3 PUSH2 0x12C9 JUMP JUMPDEST SWAP1 POP PUSH1 0x0 PUSH2 0xB6E DUP7 PUSH1 0x20 PUSH2 0x12C9 JUMP JUMPDEST SWAP1 POP PUSH32 0x7FFFFFFFFFFFFFFFFFFFFFFFFFFFFFFF5D576E7357A4501DDFE92F46681B20A0 DUP2 GT ISZERO PUSH2 0xBE9 JUMPI PUSH1 0x40 MLOAD PUSH32 0x8C379A000000000000000000000000000000000000000000000000000000000 DUP2 MSTORE PUSH1 0x4 ADD DUP1 DUP1 PUSH1 0x20 ADD DUP3 DUP2 SUB DUP3 MSTORE PUSH1 0x3D DUP2 MSTORE PUSH1 0x20 ADD DUP1 PUSH2 0x1AB1 PUSH1 0x3D SWAP2 CODECOPY PUSH1 0x40 ADD SWAP2 POP POP PUSH1 0x40 MLOAD DUP1 SWAP2 SUB SWAP1 REVERT JUMPDEST DUP3 PUSH1 0xFF AND PUSH1 0x1B EQ ISZERO DUP1 ISZERO PUSH2 0xC01 JUMPI POP DUP3 PUSH1 0xFF AND PUSH1 0x1C EQ ISZERO JUMPDEST ISZERO PUSH2 0xC57 JUMPI PUSH1 0x40 MLOAD PUSH32 0x8C379A000000000000000000000000000000000000000000000000000000000 DUP2 MSTORE PUSH1 0x4 ADD DUP1 DUP1 PUSH1 0x20 ADD DUP3 DUP2 SUB DUP3 MSTORE PUSH1 0x3D DUP2 MSTORE PUSH1 0x20 ADD DUP1 PUSH2 0x1B9E PUSH1 0x3D SWAP2 CODECOPY PUSH1 0x40 ADD SWAP2 POP POP PUSH1 0x40 MLOAD DUP1 SWAP2 SUB SWAP1 REVERT JUMPDEST PUSH1 0x1 DUP5 EQ ISZERO PUSH2 0xCCB JUMPI PUSH1 0x1 DUP8 DUP5 DUP5 DUP5 PUSH1 0x40 MLOAD PUSH1 0x0 DUP2 MSTORE PUSH1 0x20 ADD PUSH1 0x40 MSTORE PUSH1 0x40 MLOAD DUP1 DUP6 DUP2 MSTORE PUSH1 0x20 ADD DUP5 PUSH1 0xFF AND DUP2 MSTORE PUSH1 0x20 ADD DUP4 DUP2 MSTORE PUSH1 0x20 ADD DUP3 DUP2 MSTORE PUSH1 0x20 ADD SWAP5 POP POP POP POP POP PUSH1 0x20 PUSH1 0x40 MLOAD PUSH1 0x20 DUP2 SUB SWAP1 DUP1 DUP5 SUB SWAP1 DUP6 GAS STATICCALL ISZERO DUP1 ISZERO PUSH2 0xCBA JUMPI RETURNDATASIZE PUSH1 0x0 DUP1 RETURNDATACOPY RETURNDATASIZE PUSH1 0x0 REVERT JUMPDEST POP POP POP PUSH1 0x20 PUSH1 0x40 MLOAD SUB MLOAD SWAP5 POP PUSH2 0xDCD JUMP JUMPDEST PUSH1 0x2 DUP5 EQ ISZERO PUSH2 0xD7C JUMPI PUSH1 0x1 DUP8 PUSH1 0x40 MLOAD PUSH1 0x20 ADD DUP1 DUP1 PUSH32 0x19457468657265756D205369676E6564204D6573736167653A0A333200000000 DUP2 MSTORE POP PUSH1 0x1C ADD DUP3 DUP2 MSTORE PUSH1 0x20 ADD SWAP2 POP POP PUSH1 0x40 MLOAD PUSH1 0x20 DUP2 DUP4 SUB SUB DUP2 MSTORE SWAP1 PUSH1 0x40 MSTORE DUP1 MLOAD SWAP1 PUSH1 0x20 ADD KECCAK256 DUP5 DUP5 DUP5 PUSH1 0x40 MLOAD PUSH1 0x0 DUP2 MSTORE PUSH1 0x20 ADD PUSH1 0x40 MSTORE PUSH1 0x40 MLOAD DUP1 DUP6 DUP2 MSTORE PUSH1 0x20 ADD DUP5 PUSH1 0xFF AND DUP2 MSTORE PUSH1 0x20 ADD DUP4 DUP2 MSTORE PUSH1 0x20 ADD DUP3 DUP2 MSTORE PUSH1 0x20 ADD SWAP5 POP POP POP POP POP PUSH1 0x20 PUSH1 0x40 MLOAD PUSH1 0x20 DUP2 SUB SWAP1 DUP1 DUP5 SUB SWAP1 DUP6 GAS STATICCALL ISZERO DUP1 ISZERO PUSH2 0xCBA JUMPI RETURNDATASIZE PUSH1 0x0 DUP1 RETURNDATACOPY RETURNDATASIZE PUSH1 0x0 REVERT JUMPDEST PUSH1 0x40 MLOAD PUSH32 0x8C379A000000000000000000000000000000000000000000000000000000000 DUP2 MSTORE PUSH1 0x4 ADD DUP1 DUP1 PUSH1 0x20 ADD DUP3 DUP2 SUB DUP3 MSTORE PUSH1 0x3C DUP2 MSTORE PUSH1 0x20 ADD DUP1 PUSH2 0x1C9F PUSH1 0x3C SWAP2 CODECOPY PUSH1 0x40 ADD SWAP2 POP POP PUSH1 0x40 MLOAD DUP1 SWAP2 SUB SWAP1 REVERT JUMPDEST PUSH20 0xFFFFFFFFFFFFFFFFFFFFFFFFFFFFFFFFFFFFFFFF DUP6 AND PUSH2 0xE39 JUMPI PUSH1 0x40 MLOAD PUSH32 0x8C379A000000000000000000000000000000000000000000000000000000000 DUP2 MSTORE PUSH1 0x4 ADD DUP1 DUP1 PUSH1 0x20 ADD DUP3 DUP2 SUB DUP3 MSTORE PUSH1 0x30 DUP2 MSTORE PUSH1 0x20 ADD DUP1 PUSH2 0x1BDB PUSH1 0x30 SWAP2 CODECOPY PUSH1 0x40 ADD SWAP2 POP POP PUSH1 0x40 MLOAD DUP1 SWAP2 SUB SWAP1 REVERT JUMPDEST POP POP POP POP SWAP3 SWAP2 POP POP JUMP JUMPDEST DUP1 DUP3 ADD PUSH1 0x20 ADD MLOAD PUSH1 0xF0 SHR PUSH1 0x2 DUP3 ADD DUP3 DUP2 GT PUSH2 0xE5A JUMPI INVALID JUMPDEST DUP4 MLOAD DUP2 GT ISZERO PUSH2 0xA01 JUMPI PUSH1 0x40 MLOAD PUSH32 0x8C379A000000000000000000000000000000000000000000000000000000000 DUP2 MSTORE PUSH1 0x4 ADD DUP1 DUP1 PUSH1 0x20 ADD DUP3 DUP2 SUB DUP3 MSTORE PUSH1 0x22 DUP2 MSTORE PUSH1 0x20 ADD DUP1 PUSH2 0x1D22 PUSH1 0x22 SWAP2 CODECOPY PUSH1 0x40 ADD SWAP2 POP POP PUSH1 0x40 MLOAD DUP1 SWAP2 SUB SWAP1 REVERT JUMPDEST PUSH1 0x60 PUSH1 0x0 DUP3 PUSH8 0xFFFFFFFFFFFFFFFF DUP2 GT DUP1 ISZERO PUSH2 0xECF JUMPI PUSH1 0x0 DUP1 REVERT JUMPDEST POP PUSH1 0x40 MLOAD SWAP1 DUP1 DUP3 MSTORE DUP1 PUSH1 0x1F ADD PUSH1 0x1F NOT AND PUSH1 0x20 ADD DUP3 ADD PUSH1 0x40 MSTORE DUP1 ISZERO PUSH2 0xEFA JUMPI PUSH1 0x20 DUP3 ADD DUP2 DUP1 CALLDATASIZE DUP4 CALLDATACOPY ADD SWAP1 POP JUMPDEST POP SWAP2 POP DUP4 DUP6 ADD PUSH1 0x20 ADD PUSH1 0x0 PUSH1 0x20 JUMPDEST DUP6 DUP2 LT ISZERO PUSH2 0xF21 JUMPI SWAP1 DUP3 ADD MLOAD DUP5 DUP3 ADD MSTORE PUSH1 0x20 DUP2 ADD PUSH2 0xF08 JUMP JUMPDEST DUP5 DUP7 ADD PUSH1 0x20 ADD DUP1 MLOAD SWAP4 SWAP1 SWAP3 ADD MLOAD SWAP1 DUP6 ADD MSTORE MSTORE POP DUP3 DUP3 ADD DUP4 DUP2 LT ISZERO PUSH2 0xF41 JUMPI INVALID JUMPDEST DUP5 MLOAD DUP2 GT ISZERO PUSH2 0xF9B JUMPI PUSH1 0x40 MLOAD PUSH32 0x8C379A000000000000000000000000000000000000000000000000000000000 DUP2 MSTORE PUSH1 0x4 ADD DUP1 DUP1 PUSH1 0x20 ADD DUP3 DUP2 SUB DUP3 MSTORE PUSH1 0x21 DUP2 MSTORE PUSH1 0x20 ADD DUP1 PUSH2 0x1D01 PUSH1 0x21 SWAP2 CODECOPY PUSH1 0x40 ADD SWAP2 POP POP PUSH1 0x40 MLOAD DUP1 SWAP2 SUB SWAP1 REVERT JUMPDEST SWAP4 POP SWAP4 SWAP2 POP POP JUMP JUMPDEST PUSH1 0x0 DUP1 DUP3 PUSH1 0x1 DUP5 MLOAD SUB DUP2 MLOAD DUP2 LT PUSH2 0xFB6 JUMPI INVALID JUMPDEST ADD PUSH1 0x20 ADD MLOAD PUSH1 0xF8 SHR SWAP1 POP PUSH1 0x1 DUP2 EQ DUP1 PUSH2 0xFCF JUMPI POP PUSH1 0x2 DUP2 EQ JUMPDEST ISZERO PUSH2 0x1013 JUMPI DUP4 PUSH20 0xFFFFFFFFFFFFFFFFFFFFFFFFFFFFFFFFFFFFFFFF AND PUSH2 0xFF5 DUP7 DUP6 PUSH2 0xAB9 JUMP JUMPDEST PUSH20 0xFFFFFFFFFFFFFFFFFFFFFFFFFFFFFFFFFFFFFFFF AND EQ SWAP2 POP PUSH2 0x11E3 JUMP JUMPDEST PUSH1 0x3 DUP2 EQ ISZERO PUSH2 0x1192 JUMPI DUP3 MLOAD PUSH32 0xFFFFFFFFFFFFFFFFFFFFFFFFFFFFFFFFFFFFFFFFFFFFFFFFFFFFFFFFFFFFFFFF DUP2 ADD DUP5 MSTORE PUSH1 0x40 DUP1 MLOAD PUSH32 0x1626BA7E00000000000000000000000000000000000000000000000000000000 DUP2 MSTORE PUSH1 0x4 DUP2 ADD DUP9 DUP2 MSTORE PUSH1 0x24 DUP3 ADD SWAP3 DUP4 MSTORE DUP7 MLOAD PUSH1 0x44 DUP4 ADD MSTORE DUP7 MLOAD PUSH20 0xFFFFFFFFFFFFFFFFFFFFFFFFFFFFFFFFFFFFFFFF DUP10 AND SWAP4 PUSH4 0x1626BA7E SWAP4 DUP12 SWAP4 DUP11 SWAP4 SWAP1 SWAP3 SWAP2 PUSH1 0x64 ADD SWAP1 PUSH1 0x20 DUP6 ADD SWAP1 DUP1 DUP4 DUP4 PUSH1 0x0 JUMPDEST DUP4 DUP2 LT ISZERO PUSH2 0x10CD JUMPI DUP2 DUP2 ADD MLOAD DUP4 DUP3 ADD MSTORE PUSH1 0x20 ADD PUSH2 0x10B5 JUMP JUMPDEST POP POP POP POP SWAP1 POP SWAP1 DUP2 ADD SWAP1 PUSH1 0x1F AND DUP1 ISZERO PUSH2 0x10FA JUMPI DUP1 DUP3 SUB DUP1 MLOAD PUSH1 0x1 DUP4 PUSH1 0x20 SUB PUSH2 0x100 EXP SUB NOT AND DUP2 MSTORE PUSH1 0x20 ADD SWAP2 POP JUMPDEST POP SWAP4 POP POP POP POP PUSH1 0x20 PUSH1 0x40 MLOAD DUP1 DUP4 SUB DUP2 DUP7 DUP1 EXTCODESIZE ISZERO DUP1 ISZERO PUSH2 0x1118 JUMPI PUSH1 0x0 DUP1 REVERT JUMPDEST POP GAS STATICCALL ISZERO DUP1 ISZERO PUSH2 0x112C JUMPI RETURNDATASIZE PUSH1 0x0 DUP1 RETURNDATACOPY RETURNDATASIZE PUSH1 0x0 REVERT JUMPDEST POP POP POP POP PUSH1 0x40 MLOAD RETURNDATASIZE PUSH1 0x20 DUP2 LT ISZERO PUSH2 0x1142 JUMPI PUSH1 0x0 DUP1 REVERT JUMPDEST POP MLOAD SWAP1 DUP5 MSTORE PUSH32 0xFFFFFFFF00000000000000000000000000000000000000000000000000000000 AND PUSH32 0x1626BA7E00000000000000000000000000000000000000000000000000000000 EQ SWAP2 POP PUSH2 0x11E3 JUMP JUMPDEST PUSH1 0x40 MLOAD PUSH32 0x8C379A000000000000000000000000000000000000000000000000000000000 DUP2 MSTORE PUSH1 0x4 ADD DUP1 DUP1 PUSH1 0x20 ADD DUP3 DUP2 SUB DUP3 MSTORE PUSH1 0x3F DUP2 MSTORE PUSH1 0x20 ADD DUP1 PUSH2 0x1C3D PUSH1 0x3F SWAP2 CODECOPY PUSH1 0x40 ADD SWAP2 POP POP PUSH1 0x40 MLOAD DUP1 SWAP2 SUB SWAP1 REVERT JUMPDEST POP SWAP4 SWAP3 POP POP POP JUMP JUMPDEST POP PUSH1 0x1 SWAP1 JUMP JUMPDEST DUP3 PUSH1 0x20 ADD MLOAD ISZERO PUSH2 0x1203 JUMPI DUP1 MLOAD PUSH1 0x20 DUP3 ADD REVERT JUMPDEST PUSH32 0x3DBD1590EA96DD3253A91F24E64E3A502E1225D602A5731357BC12643070CCD7 DUP3 DUP3 PUSH1 0x40 MLOAD PUSH2 0x1234 SWAP3 SWAP2 SWAP1 PUSH2 0x18D2 JUMP JUMPDEST PUSH1 0x40 MLOAD DUP1 SWAP2 SUB SWAP1 LOG1 POP POP POP JUMP JUMPDEST PUSH1 0x0 PUSH32 0xFFFFFFFF00000000000000000000000000000000000000000000000000000000 DUP3 AND ISZERO DUP1 PUSH2 0x12B3 JUMPI POP PUSH32 0xFFFFFFFF00000000000000000000000000000000000000000000000000000000 DUP3 AND PUSH32 0x36E7817500000000000000000000000000000000000000000000000000000000 EQ JUMPDEST ISZERO PUSH2 0x12C0 JUMPI POP PUSH1 0x1 PUSH2 0x1B5 JUMP JUMPDEST PUSH2 0x1B2 DUP3 PUSH2 0x1331 JUMP JUMPDEST PUSH1 0x0 DUP2 PUSH1 0x20 ADD DUP4 MLOAD LT ISZERO PUSH2 0x1328 JUMPI PUSH1 0x40 MLOAD PUSH32 0x8C379A000000000000000000000000000000000000000000000000000000000 DUP2 MSTORE PUSH1 0x4 ADD DUP1 DUP1 PUSH1 0x20 ADD DUP3 DUP2 SUB DUP3 MSTORE PUSH1 0x3C DUP2 MSTORE PUSH1 0x20 ADD DUP1 PUSH2 0x1D44 PUSH1 0x3C SWAP2 CODECOPY PUSH1 0x40 ADD SWAP2 POP POP PUSH1 0x40 MLOAD DUP1 SWAP2 SUB SWAP1 REVERT JUMPDEST POP ADD PUSH1 0x20 ADD MLOAD SWAP1 JUMP JUMPDEST PUSH32 0xFFFFFFFF00000000000000000000000000000000000000000000000000000000 DUP2 AND PUSH32 0x1FFC9A700000000000000000000000000000000000000000000000000000000 EQ SWAP2 SWAP1 POP JUMP JUMPDEST DUP1 CALLDATALOAD PUSH20 0xFFFFFFFFFFFFFFFFFFFFFFFFFFFFFFFFFFFFFFFF DUP2 AND DUP2 EQ PUSH2 0x1B5 JUMPI PUSH1 0x0 DUP1 REVERT JUMPDEST PUSH1 0x0 DUP3 PUSH1 0x1F DUP4 ADD SLT PUSH2 0x13AF JUMPI DUP1 DUP2 REVERT JUMPDEST DUP2 CALLDATALOAD PUSH1 0x20 PUSH8 0xFFFFFFFFFFFFFFFF DUP1 DUP4 GT ISZERO PUSH2 0x13C6 JUMPI INVALID JUMPDEST PUSH2 0x13D3 DUP3 DUP4 DUP6 MUL ADD PUSH2 0x1A60 JUMP JUMPDEST DUP4 DUP2 MSTORE DUP3 DUP2 ADD SWAP1 DUP7 DUP5 ADD DUP7 JUMPDEST DUP7 DUP2 LT ISZERO PUSH2 0x14AF JUMPI DUP2 CALLDATALOAD DUP10 ADD PUSH1 0xC0 DUP1 PUSH32 0xFFFFFFFFFFFFFFFFFFFFFFFFFFFFFFFFFFFFFFFFFFFFFFFFFFFFFFFFFFFFFFE0 DUP4 DUP15 SUB ADD SLT ISZERO PUSH2 0x141D JUMPI DUP10 DUP11 REVERT JUMPDEST PUSH1 0x40 DUP1 MLOAD DUP3 DUP2 ADD DUP2 DUP2 LT DUP11 DUP3 GT OR ISZERO PUSH2 0x1432 JUMPI INVALID JUMPDEST DUP3 MSTORE PUSH2 0x143F DUP5 DUP12 ADD PUSH2 0x14BD JUMP JUMPDEST DUP2 MSTORE PUSH2 0x144C DUP3 DUP6 ADD PUSH2 0x14BD JUMP JUMPDEST DUP11 DUP3 ADD MSTORE PUSH1 0x60 DUP1 DUP6 ADD CALLDATALOAD DUP4 DUP4 ADD MSTORE PUSH1 0x80 SWAP3 POP PUSH2 0x1469 DUP4 DUP7 ADD PUSH2 0x137B JUMP JUMPDEST SWAP1 DUP3 ADD MSTORE PUSH1 0xA0 DUP5 DUP2 ADD CALLDATALOAD DUP4 DUP4 ADD MSTORE SWAP3 DUP5 ADD CALLDATALOAD SWAP3 DUP10 DUP5 GT ISZERO PUSH2 0x1488 JUMPI DUP13 DUP14 REVERT JUMPDEST PUSH2 0x1496 DUP16 DUP13 DUP7 DUP9 ADD ADD PUSH2 0x150D JUMP JUMPDEST SWAP1 DUP3 ADD MSTORE DUP8 MSTORE POP POP POP SWAP3 DUP6 ADD SWAP3 SWAP1 DUP6 ADD SWAP1 PUSH1 0x1 ADD PUSH2 0x13DF JUMP JUMPDEST POP SWAP1 SWAP9 SWAP8 POP POP POP POP POP POP POP POP JUMP JUMPDEST DUP1 CALLDATALOAD DUP1 ISZERO ISZERO DUP2 EQ PUSH2 0x1B5 JUMPI PUSH1 0x0 DUP1 REVERT JUMPDEST PUSH1 0x0 DUP1 DUP4 PUSH1 0x1F DUP5 ADD SLT PUSH2 0x14DE JUMPI DUP2 DUP3 REVERT JUMPDEST POP DUP2 CALLDATALOAD PUSH8 0xFFFFFFFFFFFFFFFF DUP2 GT ISZERO PUSH2 0x14F5 JUMPI DUP2 DUP3 REVERT JUMPDEST PUSH1 0x20 DUP4 ADD SWAP2 POP DUP4 PUSH1 0x20 DUP3 DUP6 ADD ADD GT ISZERO PUSH2 0xA01 JUMPI PUSH1 0x0 DUP1 REVERT JUMPDEST PUSH1 0x0 DUP3 PUSH1 0x1F DUP4 ADD SLT PUSH2 0x151D JUMPI DUP1 DUP2 REVERT JUMPDEST DUP2 CALLDATALOAD PUSH8 0xFFFFFFFFFFFFFFFF DUP2 GT ISZERO PUSH2 0x1531 JUMPI INVALID JUMPDEST PUSH2 0x1562 PUSH1 0x20 PUSH32 0xFFFFFFFFFFFFFFFFFFFFFFFFFFFFFFFFFFFFFFFFFFFFFFFFFFFFFFFFFFFFFFE0 PUSH1 0x1F DUP5 ADD AND ADD PUSH2 0x1A60 JUMP JUMPDEST DUP2 DUP2 MSTORE DUP5 PUSH1 0x20 DUP4 DUP7 ADD ADD GT ISZERO PUSH2 0x1576 JUMPI DUP3 DUP4 REVERT JUMPDEST DUP2 PUSH1 0x20 DUP6 ADD PUSH1 0x20 DUP4 ADD CALLDATACOPY SWAP1 DUP2 ADD PUSH1 0x20 ADD SWAP2 SWAP1 SWAP2 MSTORE SWAP3 SWAP2 POP POP JUMP JUMPDEST PUSH1 0x0 PUSH1 0x20 DUP3 DUP5 SUB SLT ISZERO PUSH2 0x15A1 JUMPI DUP1 DUP2 REVERT JUMPDEST DUP2 CALLDATALOAD PUSH8 0xFFFFFFFFFFFFFFFF DUP2 GT ISZERO PUSH2 0x15B7 JUMPI DUP2 DUP3 REVERT JUMPDEST PUSH2 0x285 DUP5 DUP3 DUP6 ADD PUSH2 0x139F JUMP JUMPDEST PUSH1 0x0 DUP1 PUSH1 0x0 PUSH1 0x60 DUP5 DUP7 SUB SLT ISZERO PUSH2 0x15D7 JUMPI DUP2 DUP3 REVERT JUMPDEST DUP4 CALLDATALOAD PUSH8 0xFFFFFFFFFFFFFFFF DUP1 DUP3 GT ISZERO PUSH2 0x15EE JUMPI DUP4 DUP5 REVERT JUMPDEST PUSH2 0x15FA DUP8 DUP4 DUP9 ADD PUSH2 0x139F JUMP JUMPDEST SWAP5 POP PUSH1 0x20 DUP7 ADD CALLDATALOAD SWAP4 POP PUSH1 0x40 DUP7 ADD CALLDATALOAD SWAP2 POP DUP1 DUP3 GT ISZERO PUSH2 0x1616 JUMPI DUP3 DUP4 REVERT JUMPDEST POP PUSH2 0x1623 DUP7 DUP3 DUP8 ADD PUSH2 0x150D JUMP JUMPDEST SWAP2 POP POP SWAP3 POP SWAP3 POP SWAP3 JUMP JUMPDEST PUSH1 0x0 DUP1 PUSH1 0x0 PUSH1 0x40 DUP5 DUP7 SUB SLT ISZERO PUSH2 0x1641 JUMPI DUP3 DUP4 REVERT JUMPDEST DUP4 CALLDATALOAD SWAP3 POP PUSH1 0x20 DUP5 ADD CALLDATALOAD PUSH8 0xFFFFFFFFFFFFFFFF DUP2 GT ISZERO PUSH2 0x165E JUMPI DUP3 DUP4 REVERT JUMPDEST PUSH2 0x166A DUP7 DUP3 DUP8 ADD PUSH2 0x14CD JUMP JUMPDEST SWAP5 SWAP8 SWAP1 SWAP7 POP SWAP4 SWAP5 POP POP POP POP JUMP JUMPDEST PUSH1 0x0 PUSH1 0x20 DUP3 DUP5 SUB SLT ISZERO PUSH2 0x1688 JUMPI DUP1 DUP2 REVERT JUMPDEST DUP2 CALLDATALOAD PUSH32 0xFFFFFFFF00000000000000000000000000000000000000000000000000000000 DUP2 AND DUP2 EQ PUSH2 0x22C JUMPI DUP2 DUP3 REVERT JUMPDEST PUSH1 0x0 DUP1 PUSH1 0x0 DUP1 PUSH1 0x40 DUP6 DUP8 SUB SLT ISZERO PUSH2 0x16CC JUMPI DUP1 DUP2 REVERT JUMPDEST DUP5 CALLDATALOAD PUSH8 0xFFFFFFFFFFFFFFFF DUP1 DUP3 GT ISZERO PUSH2 0x16E3 JUMPI DUP3 DUP4 REVERT JUMPDEST PUSH2 0x16EF DUP9 DUP4 DUP10 ADD PUSH2 0x14CD JUMP JUMPDEST SWAP1 SWAP7 POP SWAP5 POP PUSH1 0x20 DUP8 ADD CALLDATALOAD SWAP2 POP DUP1 DUP3 GT ISZERO PUSH2 0x1707 JUMPI DUP3 DUP4 REVERT JUMPDEST POP PUSH2 0x1714 DUP8 DUP3 DUP9 ADD PUSH2 0x14CD JUMP JUMPDEST SWAP6 SWAP9 SWAP5 SWAP8 POP SWAP6 POP POP POP POP JUMP JUMPDEST PUSH1 0x0 PUSH1 0x20 DUP3 DUP5 SUB SLT ISZERO PUSH2 0x1731 JUMPI DUP1 DUP2 REVERT JUMPDEST DUP2 CALLDATALOAD PUSH8 0xFFFFFFFFFFFFFFFF DUP2 GT ISZERO PUSH2 0x1747 JUMPI DUP2 DUP3 REVERT JUMPDEST PUSH2 0x285 DUP5 DUP3 DUP6 ADD PUSH2 0x150D JUMP JUMPDEST PUSH1 0x0 PUSH1 0x20 DUP3 DUP5 SUB SLT ISZERO PUSH2 0x1764 JUMPI DUP1 DUP2 REVERT JUMPDEST POP CALLDATALOAD SWAP2 SWAP1 POP JUMP JUMPDEST PUSH1 0x0 DUP3 DUP3 MLOAD DUP1 DUP6 MSTORE PUSH1 0x20 DUP1 DUP7 ADD SWAP6 POP DUP1 DUP2 DUP4 MUL DUP5 ADD ADD DUP2 DUP7 ADD DUP6 JUMPDEST DUP5 DUP2 LT ISZERO PUSH2 0x182A JUMPI DUP6 DUP4 SUB PUSH32 0xFFFFFFFFFFFFFFFFFFFFFFFFFFFFFFFFFFFFFFFFFFFFFFFFFFFFFFFFFFFFFFE0 ADD DUP10 MSTORE DUP2 MLOAD DUP1 MLOAD ISZERO ISZERO DUP5 MSTORE DUP5 DUP2 ADD MLOAD ISZERO ISZERO DUP6 DUP6 ADD MSTORE PUSH1 0x40 DUP1 DUP3 ADD MLOAD SWAP1 DUP6 ADD MSTORE PUSH1 0x60 DUP1 DUP3 ADD MLOAD PUSH20 0xFFFFFFFFFFFFFFFFFFFFFFFFFFFFFFFFFFFFFFFF AND SWAP1 DUP6 ADD MSTORE PUSH1 0x80 DUP1 DUP3 ADD MLOAD SWAP1 DUP6 ADD MSTORE PUSH1 0xA0 SWAP1 DUP2 ADD MLOAD PUSH1 0xC0 SWAP2 DUP6 ADD DUP3 SWAP1 MSTORE SWAP1 PUSH2 0x1816 DUP2 DUP7 ADD DUP4 PUSH2 0x1837 JUMP JUMPDEST SWAP11 DUP7 ADD SWAP11 SWAP5 POP POP POP SWAP1 DUP4 ADD SWAP1 PUSH1 0x1 ADD PUSH2 0x1786 JUMP JUMPDEST POP SWAP1 SWAP8 SWAP7 POP POP POP POP POP POP POP JUMP JUMPDEST PUSH1 0x0 DUP2 MLOAD DUP1 DUP5 MSTORE PUSH2 0x184F DUP2 PUSH1 0x20 DUP7 ADD PUSH1 0x20 DUP7 ADD PUSH2 0x1A84 JUMP JUMPDEST PUSH1 0x1F ADD PUSH32 0xFFFFFFFFFFFFFFFFFFFFFFFFFFFFFFFFFFFFFFFFFFFFFFFFFFFFFFFFFFFFFFE0 AND SWAP3 SWAP1 SWAP3 ADD PUSH1 0x20 ADD SWAP3 SWAP2 POP POP JUMP JUMPDEST PUSH1 0x0 DUP3 MLOAD PUSH2 0x1893 DUP2 DUP5 PUSH1 0x20 DUP8 ADD PUSH2 0x1A84 JUMP JUMPDEST SWAP2 SWAP1 SWAP2 ADD SWAP3 SWAP2 POP POP JUMP JUMPDEST PUSH20 0xFFFFFFFFFFFFFFFFFFFFFFFFFFFFFFFFFFFFFFFF SWAP2 SWAP1 SWAP2 AND DUP2 MSTORE PUSH1 0x20 ADD SWAP1 JUMP JUMPDEST SWAP1 ISZERO ISZERO DUP2 MSTORE PUSH1 0x20 ADD SWAP1 JUMP JUMPDEST SWAP1 DUP2 MSTORE PUSH1 0x20 ADD SWAP1 JUMP JUMPDEST PUSH1 0x0 DUP4 DUP3 MSTORE PUSH1 0x40 PUSH1 0x20 DUP4 ADD MSTORE PUSH2 0x285 PUSH1 0x40 DUP4 ADD DUP5 PUSH2 0x1837 JUMP JUMPDEST PUSH32 0xFFFFFFFF00000000000000000000000000000000000000000000000000000000 SWAP2 SWAP1 SWAP2 AND DUP2 MSTORE PUSH1 0x20 ADD SWAP1 JUMP JUMPDEST PUSH1 0x20 DUP1 DUP3 MSTORE PUSH1 0x29 SWAP1 DUP3 ADD MSTORE PUSH32 0x47756573744D6F64756C65235F6578656375746547756573743A204E4F545F45 PUSH1 0x40 DUP3 ADD MSTORE PUSH32 0x4E4F5547485F4741530000000000000000000000000000000000000000000000 PUSH1 0x60 DUP3 ADD MSTORE PUSH1 0x80 ADD SWAP1 JUMP JUMPDEST PUSH1 0x0 PUSH1 0x40 DUP3 MSTORE PUSH1 0x6 PUSH1 0x40 DUP4 ADD MSTORE PUSH32 0x67756573743A0000000000000000000000000000000000000000000000000000 PUSH1 0x60 DUP4 ADD MSTORE PUSH1 0x80 PUSH1 0x20 DUP4 ADD MSTORE PUSH2 0x22C PUSH1 0x80 DUP4 ADD DUP5 PUSH2 0x176B JUMP JUMPDEST PUSH1 0x20 DUP1 DUP3 MSTORE PUSH1 0x33 SWAP1 DUP3 ADD MSTORE PUSH32 0x47756573744D6F64756C65235F6578656375746547756573743A2064656C6567 PUSH1 0x40 DUP3 ADD MSTORE PUSH32 0x61746543616C6C206E6F7420616C6C6F77656400000000000000000000000000 PUSH1 0x60 DUP3 ADD MSTORE PUSH1 0x80 ADD SWAP1 JUMP JUMPDEST PUSH1 0x0 PUSH1 0x40 DUP3 MSTORE PUSH1 0x5 PUSH1 0x40 DUP4 ADD MSTORE PUSH32 0x73656C663A000000000000000000000000000000000000000000000000000000 PUSH1 0x60 DUP4 ADD MSTORE PUSH1 0x80 PUSH1 0x20 DUP4 ADD MSTORE PUSH2 0x22C PUSH1 0x80 DUP4 ADD DUP5 PUSH2 0x176B JUMP JUMPDEST PUSH1 0x40 MLOAD DUP2 DUP2 ADD PUSH8 0xFFFFFFFFFFFFFFFF DUP2 GT DUP3 DUP3 LT OR ISZERO PUSH2 0x1A7C JUMPI INVALID JUMPDEST PUSH1 0x40 MSTORE SWAP2 SWAP1 POP JUMP JUMPDEST PUSH1 0x0 JUMPDEST DUP4 DUP2 LT ISZERO PUSH2 0x1A9F JUMPI DUP2 DUP2 ADD MLOAD DUP4 DUP3 ADD MSTORE PUSH1 0x20 ADD PUSH2 0x1A87 JUMP JUMPDEST DUP4 DUP2 GT ISZERO PUSH2 0x2F0 JUMPI POP POP PUSH1 0x0 SWAP2 ADD MSTORE JUMP INVALID MSTORE8 PUSH10 0x676E617475726556616C PUSH10 0x6461746F72237265636F PUSH23 0x65725369676E65723A20696E76616C6964207369676E61 PUSH21 0x757265202773272076616C75655369676E61747572 PUSH6 0x56616C696461 PUSH21 0x6F72237265636F7665725369676E65723A20696E76 PUSH2 0x6C69 PUSH5 0x207369676E PUSH2 0x7475 PUSH19 0x65206C656E6774684D6F64756C654175746823 0x5F PUSH20 0x69676E617475726556616C69646174696F6E2049 0x4E JUMP COINBASE 0x4C 0x49 DIFFICULTY 0x5F CHAINID 0x4C COINBASE SELFBALANCE 0x4C PUSH10 0x62427974657323726561 PUSH5 0x4164647265 PUSH20 0x733A204F55545F4F465F424F554E44534C696242 PUSH26 0x7465732372656164466972737455696E7431363A204F55545F4F CHAINID 0x5F TIMESTAMP 0x4F SSTORE 0x4E DIFFICULTY MSTORE8 MSTORE8 PUSH10 0x676E617475726556616C PUSH10 0x6461746F72237265636F PUSH23 0x65725369676E65723A20696E76616C6964207369676E61 PUSH21 0x757265202776272076616C75655369676E61747572 PUSH6 0x56616C696461 PUSH21 0x6F72237265636F7665725369676E65723A20494E56 COINBASE 0x4C 0x49 DIFFICULTY 0x5F MSTORE8 0x49 SELFBALANCE 0x4E GASLIMIT MSTORE 0x4D PUSH16 0x64756C6541757468235F7369676E6174 PUSH22 0x726556616C69646174696F6E3A20494E56414C49445F MSTORE8 0x49 SELFBALANCE 0x4E COINBASE SLOAD SSTORE MSTORE GASLIMIT MSTORE8 PUSH10 0x676E617475726556616C PUSH10 0x6461746F722369735661 PUSH13 0x69645369676E61747572653A20 SSTORE 0x4E MSTORE8 SSTORE POP POP 0x4F MSTORE SLOAD GASLIMIT DIFFICULTY 0x5F MSTORE8 0x49 SELFBALANCE 0x4E COINBASE SLOAD SSTORE MSTORE GASLIMIT 0x5F SLOAD MSIZE POP GASLIMIT 0x4C PUSH10 0x62427974657323726561 PUSH5 0x4279746573 CALLDATASIZE CALLDATASIZE GASPRICE KECCAK256 0x4F SSTORE SLOAD 0x5F 0x4F CHAINID 0x5F TIMESTAMP 0x4F SSTORE 0x4E DIFFICULTY MSTORE8 MSTORE8 PUSH10 0x676E617475726556616C PUSH10 0x6461746F72237265636F PUSH23 0x65725369676E65723A20554E535550504F525445445F53 0x49 SELFBALANCE 0x4E COINBASE SLOAD SSTORE MSTORE GASLIMIT 0x5F SLOAD MSIZE POP GASLIMIT 0x4C PUSH10 0x62427974657323726561 PUSH5 0x55696E7438 SSTORE PUSH10 0x6E74383A204F55545F4F CHAINID 0x5F TIMESTAMP 0x4F SSTORE 0x4E DIFFICULTY MSTORE8 0x4C PUSH10 0x62427974657323726561 PUSH5 0x4279746573 GASPRICE KECCAK256 0x4F SSTORE SLOAD 0x5F 0x4F CHAINID 0x5F TIMESTAMP 0x4F SSTORE 0x4E DIFFICULTY MSTORE8 0x4C PUSH10 0x62427974657323726561 PUSH5 0x55696E7431 CALLDATASIZE GASPRICE KECCAK256 0x4F SSTORE SLOAD 0x5F 0x4F CHAINID 0x5F TIMESTAMP 0x4F SSTORE 0x4E DIFFICULTY MSTORE8 0x4C PUSH10 0x62427974657323726561 PUSH5 0x4279746573 CALLER ORIGIN GASPRICE KECCAK256 SELFBALANCE MSTORE GASLIMIT COINBASE SLOAD GASLIMIT MSTORE 0x5F 0x4F MSTORE 0x5F GASLIMIT MLOAD SSTORE COINBASE 0x4C 0x5F SLOAD 0x4F 0x5F CALLER ORIGIN 0x5F 0x4C GASLIMIT 0x4E SELFBALANCE SLOAD 0x48 0x5F MSTORE GASLIMIT MLOAD SSTORE 0x49 MSTORE GASLIMIT DIFFICULTY 0x4D PUSH16 0x64756C6553656C6641757468236F6E6C PUSH26 0x53656C663A204E4F545F415554484F52495A4544A26469706673 PC 0x22 SLT KECCAK256 CREATE2 LOG1 0xDE SIGNEXTEND PUSH6 0xBAA2EE828E8 PUSH23 0x6BC6DBD0C74DA0CC4735A143852D24F868E4B62464736F PUSH13 0x63430007060033000000000000 "
				}
			}
		}
	}
}