{
	"contracts/modules/MainModuleUpgradable.sol": {
		"MainModuleUpgradable": {
			"abi": [
				{
					"anonymous": false,
					"inputs": [
						{
							"indexed": false,
							"internalType": "address",
							"name": "_contract",
							"type": "address"
						}
					],
					"name": "CreatedContract",
					"type": "event"
				},
				{
					"anonymous": false,
					"inputs": [
						{
							"indexed": false,
							"internalType": "bytes32",
							"name": "newImageHash",
							"type": "bytes32"
						}
					],
					"name": "ImageHashUpdated",
					"type": "event"
				},
				{
					"anonymous": false,
					"inputs": [
						{
							"indexed": false,
							"internalType": "address",
							"name": "newImplementation",
							"type": "address"
						}
					],
					"name": "ImplementationUpdated",
					"type": "event"
				},
				{
					"anonymous": false,
					"inputs": [
						{
							"indexed": false,
							"internalType": "uint256",
							"name": "_space",
							"type": "uint256"
						},
						{
							"indexed": false,
							"internalType": "uint256",
							"name": "_newNonce",
							"type": "uint256"
						}
					],
					"name": "NonceChange",
					"type": "event"
				},
				{
					"anonymous": true,
					"inputs": [
						{
							"indexed": false,
							"internalType": "bytes32",
							"name": "_tx",
							"type": "bytes32"
						}
					],
					"name": "TxExecuted",
					"type": "event"
				},
				{
					"anonymous": false,
					"inputs": [
						{
							"indexed": false,
							"internalType": "bytes32",
							"name": "_tx",
							"type": "bytes32"
						},
						{
							"indexed": false,
							"internalType": "bytes",
							"name": "_reason",
							"type": "bytes"
						}
					],
					"name": "TxFailed",
					"type": "event"
				},
				{
					"stateMutability": "payable",
					"type": "fallback"
				},
				{
					"inputs": [
						{
							"internalType": "bytes4",
							"name": "_signature",
							"type": "bytes4"
						},
						{
							"internalType": "address",
							"name": "_implementation",
							"type": "address"
						}
					],
					"name": "addHook",
					"outputs": [],
					"stateMutability": "nonpayable",
					"type": "function"
				},
				{
					"inputs": [
						{
							"internalType": "bytes",
							"name": "_code",
							"type": "bytes"
						}
					],
					"name": "createContract",
					"outputs": [
						{
							"internalType": "address",
							"name": "addr",
							"type": "address"
						}
					],
					"stateMutability": "payable",
					"type": "function"
				},
				{
					"inputs": [
						{
							"components": [
								{
									"internalType": "bool",
									"name": "delegateCall",
									"type": "bool"
								},
								{
									"internalType": "bool",
									"name": "revertOnError",
									"type": "bool"
								},
								{
									"internalType": "uint256",
									"name": "gasLimit",
									"type": "uint256"
								},
								{
									"internalType": "address",
									"name": "target",
									"type": "address"
								},
								{
									"internalType": "uint256",
									"name": "value",
									"type": "uint256"
								},
								{
									"internalType": "bytes",
									"name": "data",
									"type": "bytes"
								}
							],
							"internalType": "struct IModuleCalls.Transaction[]",
							"name": "_txs",
							"type": "tuple[]"
						},
						{
							"internalType": "uint256",
							"name": "_nonce",
							"type": "uint256"
						},
						{
							"internalType": "bytes",
							"name": "_signature",
							"type": "bytes"
						}
					],
					"name": "execute",
					"outputs": [],
					"stateMutability": "nonpayable",
					"type": "function"
				},
				{
					"inputs": [],
					"name": "imageHash",
					"outputs": [
						{
							"internalType": "bytes32",
							"name": "",
							"type": "bytes32"
						}
					],
					"stateMutability": "view",
					"type": "function"
				},
				{
					"inputs": [
						{
							"internalType": "bytes32",
							"name": "_hash",
							"type": "bytes32"
						},
						{
							"internalType": "bytes",
							"name": "_signatures",
							"type": "bytes"
						}
					],
					"name": "isValidSignature",
					"outputs": [
						{
							"internalType": "bytes4",
							"name": "",
							"type": "bytes4"
						}
					],
					"stateMutability": "view",
					"type": "function"
				},
				{
					"inputs": [
						{
							"internalType": "bytes",
							"name": "_data",
							"type": "bytes"
						},
						{
							"internalType": "bytes",
							"name": "_signatures",
							"type": "bytes"
						}
					],
					"name": "isValidSignature",
					"outputs": [
						{
							"internalType": "bytes4",
							"name": "",
							"type": "bytes4"
						}
					],
					"stateMutability": "view",
					"type": "function"
				},
				{
					"inputs": [],
					"name": "nonce",
					"outputs": [
						{
							"internalType": "uint256",
							"name": "",
							"type": "uint256"
						}
					],
					"stateMutability": "view",
					"type": "function"
				},
				{
					"inputs": [
						{
							"internalType": "address",
							"name": "",
							"type": "address"
						},
						{
							"internalType": "address",
							"name": "",
							"type": "address"
						},
						{
							"internalType": "uint256[]",
							"name": "",
							"type": "uint256[]"
						},
						{
							"internalType": "uint256[]",
							"name": "",
							"type": "uint256[]"
						},
						{
							"internalType": "bytes",
							"name": "",
							"type": "bytes"
						}
					],
					"name": "onERC1155BatchReceived",
					"outputs": [
						{
							"internalType": "bytes4",
							"name": "",
							"type": "bytes4"
						}
					],
					"stateMutability": "nonpayable",
					"type": "function"
				},
				{
					"inputs": [
						{
							"internalType": "address",
							"name": "",
							"type": "address"
						},
						{
							"internalType": "address",
							"name": "",
							"type": "address"
						},
						{
							"internalType": "uint256",
							"name": "",
							"type": "uint256"
						},
						{
							"internalType": "uint256",
							"name": "",
							"type": "uint256"
						},
						{
							"internalType": "bytes",
							"name": "",
							"type": "bytes"
						}
					],
					"name": "onERC1155Received",
					"outputs": [
						{
							"internalType": "bytes4",
							"name": "",
							"type": "bytes4"
						}
					],
					"stateMutability": "nonpayable",
					"type": "function"
				},
				{
					"inputs": [
						{
							"internalType": "address",
							"name": "",
							"type": "address"
						},
						{
							"internalType": "address",
							"name": "",
							"type": "address"
						},
						{
							"internalType": "uint256",
							"name": "",
							"type": "uint256"
						},
						{
							"internalType": "bytes",
							"name": "",
							"type": "bytes"
						}
					],
					"name": "onERC721Received",
					"outputs": [
						{
							"internalType": "bytes4",
							"name": "",
							"type": "bytes4"
						}
					],
					"stateMutability": "nonpayable",
					"type": "function"
				},
				{
					"inputs": [
						{
							"internalType": "bytes4",
							"name": "_signature",
							"type": "bytes4"
						}
					],
					"name": "readHook",
					"outputs": [
						{
							"internalType": "address",
							"name": "",
							"type": "address"
						}
					],
					"stateMutability": "view",
					"type": "function"
				},
				{
					"inputs": [
						{
							"internalType": "uint256",
							"name": "_space",
							"type": "uint256"
						}
					],
					"name": "readNonce",
					"outputs": [
						{
							"internalType": "uint256",
							"name": "",
							"type": "uint256"
						}
					],
					"stateMutability": "view",
					"type": "function"
				},
				{
					"inputs": [
						{
							"internalType": "bytes4",
							"name": "_signature",
							"type": "bytes4"
						}
					],
					"name": "removeHook",
					"outputs": [],
					"stateMutability": "nonpayable",
					"type": "function"
				},
				{
					"inputs": [
						{
							"components": [
								{
									"internalType": "bool",
									"name": "delegateCall",
									"type": "bool"
								},
								{
									"internalType": "bool",
									"name": "revertOnError",
									"type": "bool"
								},
								{
									"internalType": "uint256",
									"name": "gasLimit",
									"type": "uint256"
								},
								{
									"internalType": "address",
									"name": "target",
									"type": "address"
								},
								{
									"internalType": "uint256",
									"name": "value",
									"type": "uint256"
								},
								{
									"internalType": "bytes",
									"name": "data",
									"type": "bytes"
								}
							],
							"internalType": "struct IModuleCalls.Transaction[]",
							"name": "_txs",
							"type": "tuple[]"
						}
					],
					"name": "selfExecute",
					"outputs": [],
					"stateMutability": "nonpayable",
					"type": "function"
				},
				{
					"inputs": [
						{
							"internalType": "bytes4",
							"name": "_interfaceID",
							"type": "bytes4"
						}
					],
					"name": "supportsInterface",
					"outputs": [
						{
							"internalType": "bool",
							"name": "",
							"type": "bool"
						}
					],
					"stateMutability": "pure",
					"type": "function"
				},
				{
					"inputs": [
						{
							"internalType": "bytes32",
							"name": "_imageHash",
							"type": "bytes32"
						}
					],
					"name": "updateImageHash",
					"outputs": [],
					"stateMutability": "nonpayable",
					"type": "function"
				},
				{
					"inputs": [
						{
							"internalType": "address",
							"name": "_implementation",
							"type": "address"
						}
					],
					"name": "updateImplementation",
					"outputs": [],
					"stateMutability": "nonpayable",
					"type": "function"
				},
				{
					"stateMutability": "payable",
					"type": "receive"
				}
			],
			"evm": {
				"bytecode": {
					"linkReferences": {},
					"object": "608060405234801561001057600080fd5b50612ce7806100206000396000f3fe6080604052600436106101125760003560e01c806351605d80116100a557806390042baf11610074578063b93ea7ad11610059578063b93ea7ad146103d0578063bc197c81146103f0578063f23a6e611461041057610119565b806390042baf146103a8578063affed0e0146103bb57610119565b806351605d801461032657806361c2926c146103485780637a9a1628146103685780638c3f55631461038857610119565b80631a9b2337116100e15780631a9b23371461029957806320c13b0b146102c657806329561426146102e65780634fcf3eca1461030657610119565b806301ffc9a7146101f4578063025b22bc1461022a578063150b7a021461024c5780631626ba7e1461027957610119565b3661011957005b60006101486000357fffffffff0000000000000000000000000000000000000000000000000000000016610430565b905073ffffffffffffffffffffffffffffffffffffffff8116156101f1576000808273ffffffffffffffffffffffffffffffffffffffff166000366040518083838082843760405192019450600093509091505080830381855af49150503d80600081146101d2576040519150601f19603f3d011682016040523d82523d6000602084013e6101d7565b606091505b5091509150816101e957805160208201fd5b805160208201f35b50005b34801561020057600080fd5b5061021461020f3660046124d4565b610486565b60405161022191906126eb565b60405180910390f35b34801561023657600080fd5b5061024a610245366004612221565b610491565b005b34801561025857600080fd5b5061026c6102673660046122f2565b6105b2565b6040516102219190612718565b34801561028557600080fd5b5061026c61029436600461248a565b6105dc565b3480156102a557600080fd5b506102b96102b43660046124d4565b610655565b60405161022191906126ca565b3480156102d257600080fd5b5061026c6102e1366004612520565b610660565b3480156102f257600080fd5b5061024a610301366004612472565b6106ba565b34801561031257600080fd5b5061024a6103213660046124d4565b6107c8565b34801561033257600080fd5b5061033b6108a6565b60405161022191906126f6565b34801561035457600080fd5b5061024a6103633660046123d5565b6108d6565b34801561037457600080fd5b5061024a610383366004612408565b61096f565b34801561039457600080fd5b5061033b6103a3366004612472565b6109eb565b6102b96103b6366004612589565b610a17565b3480156103c757600080fd5b5061033b610acb565b3480156103dc57600080fd5b5061024a6103eb3660046124ee565b610ad7565b3480156103fc57600080fd5b5061026c61040b36600461223b565b610bb0565b34801561041c57600080fd5b5061026c61042b36600461235f565b610bdd565b600061047e7fbe27a319efc8734e89e26ba4bc95f5c788584163b959f03fa04e2d7ab4b9a1207fffffffff000000000000000000000000000000000000000000000000000000008416610c08565b90505b919050565b600061047e82610c35565b3330146104e9576040517f08c379a0000000000000000000000000000000000000000000000000000000008152600401808060200182810382526027815260200180612c8b6027913960400191505060405180910390fd5b6105088173ffffffffffffffffffffffffffffffffffffffff16610c92565b61055d576040517f08c379a0000000000000000000000000000000000000000000000000000000008152600401808060200182810382526039815260200180612b716039913960400191505060405180910390fd5b61056681610c98565b6040805173ffffffffffffffffffffffffffffffffffffffff8316815290517f310ba5f1d2ed074b51e2eccd052a47ae9ab7c6b800d1fca3db3999d6a592ca039181900360200190a150565b7f150b7a020000000000000000000000000000000000000000000000000000000095945050505050565b60006106266105ea85610c9c565b84848080601f016020809104026020016040519081016040528093929190818152602001838380828437600092019190915250610cfc92505050565b1561064e57507f1626ba7e000000000000000000000000000000000000000000000000000000005b9392505050565b600061047e82610430565b600061068a6105ea86866040518083838082843760405192018290039091209350610c9c92505050565b156106b257507f20c13b0b000000000000000000000000000000000000000000000000000000005b949350505050565b333014610712576040517f08c379a0000000000000000000000000000000000000000000000000000000008152600401808060200182810382526027815260200180612c8b6027913960400191505060405180910390fd5b80610768576040517f08c379a00000000000000000000000000000000000000000000000000000000081526004018080602001828103825260378152602001806129986037913960400191505060405180910390fd5b6107927fea7157fa25e3aa17d0ae2d5280fa4e24d421c61842aa85e45194e1145aa72bf882610ef4565b6040805182815290517f307ed6bd941ee9fc80f369c94af5fa11e25bab5102a6140191756c5474a30bfa9181900360200190a150565b333014610820576040517f08c379a0000000000000000000000000000000000000000000000000000000008152600401808060200182810382526027815260200180612c8b6027913960400191505060405180910390fd5b600061082b82610430565b73ffffffffffffffffffffffffffffffffffffffff161415610898576040517f08c379a000000000000000000000000000000000000000000000000000000000815260040180806020018281038252602b8152602001806129cf602b913960400191505060405180910390fd5b6108a3816000610ef8565b50565b60006108d17fea7157fa25e3aa17d0ae2d5280fa4e24d421c61842aa85e45194e1145aa72bf8610f5b565b905090565b33301461092e576040517f08c379a0000000000000000000000000000000000000000000000000000000008152600401808060200182810382526027815260200180612c8b6027913960400191505060405180910390fd5b600061095f826040516020016109449190612836565b60405160208183030381529060405280519060200120610c9c565b905061096b8183610f5f565b5050565b6109788261112e565b6000610990838560405160200161094492919061287d565b905061099c8183610cfc565b6109db576040517f08c379a00000000000000000000000000000000000000000000000000000000081526004016109d2906127d9565b60405180910390fd5b6109e58185610f5f565b50505050565b600061047e7f8d0bf1fd623d628c741362c1289948e57b3e2905218c676d3e69abee36d6ae2e83610c08565b6000333014610a71576040517f08c379a0000000000000000000000000000000000000000000000000000000008152600401808060200182810382526027815260200180612c8b6027913960400191505060405180910390fd5b81516020830134f06040805173ffffffffffffffffffffffffffffffffffffffff8316815290519192507fa506ad4e7f05eceba62a023c3219e5bd98a615f4fa87e2afb08a2da5cf62bf0c919081900360200190a1919050565b60006108d160006109eb565b333014610b2f576040517f08c379a0000000000000000000000000000000000000000000000000000000008152600401808060200182810382526027815260200180612c8b6027913960400191505060405180910390fd5b6000610b3a83610430565b73ffffffffffffffffffffffffffffffffffffffff1614610ba6576040517f08c379a000000000000000000000000000000000000000000000000000000000815260040180806020018281038252602c815260200180612ae3602c913960400191505060405180910390fd5b61096b8282610ef8565b7fbc197c810000000000000000000000000000000000000000000000000000000098975050505050505050565b7ff23a6e61000000000000000000000000000000000000000000000000000000009695505050505050565b60408051602080820194909452808201929092528051808303820181526060909201905280519101205490565b60007fffffffff0000000000000000000000000000000000000000000000000000000082167f90042baf000000000000000000000000000000000000000000000000000000001415610c8957506001610481565b61047e826111d2565b3b151590565b3055565b604080517f19010000000000000000000000000000000000000000000000000000000000006020808301919091524660228301523060601b6042830152605680830194909452825180830390940184526076909101909152815191012090565b6000806000610d0a84611313565b909250905061ffff821660005b8551831015610ed15760008080610d2e8987611381565b975060ff91821694501691506001831415610d5657610d4d8987611402565b96509050610e7a565b82610d82576060610d678a8861147a565b97509050610d758b8261152b565b9150828501945050610e7a565b6002831415610e2957610d958987611402565b965090506000610da58a886118b5565b975061ffff1690506060610dba8b8984611926565b98509050610dc98c8483611a15565b610e1e576040517f08c379a0000000000000000000000000000000000000000000000000000000008152600401808060200182810382526032815260200180612ab16032913960400191505060405180910390fd5b505092810192610e7a565b6040517f08c379a000000000000000000000000000000000000000000000000000000000815260040180806020018281038252602c81526020018061296c602c913960400191505060405180910390fd5b848282604051602001808481526020018381526020018273ffffffffffffffffffffffffffffffffffffffff1681526020019350505050604051602081830303815290604052805190602001209450505050610d17565b8361ffff168110158015610ee95750610ee982611c5d565b979650505050505050565b9055565b61096b7fbe27a319efc8734e89e26ba4bc95f5c788584163b959f03fa04e2d7ab4b9a1207fffffffff00000000000000000000000000000000000000000000000000000000841673ffffffffffffffffffffffffffffffffffffffff8416611c9a565b5490565b60005b8151811015611129576000828281518110610f7957fe5b602002602001015190506000606082604001515a1015610fc5576040517f08c379a00000000000000000000000000000000000000000000000000000000081526004016109d29061277c565b82511561105d57826060015173ffffffffffffffffffffffffffffffffffffffff168360400151600014610ffd578360400151610fff565b5a5b8460a0015160405161101191906126ae565b6000604051808303818686f4925050503d806000811461104d576040519150601f19603f3d011682016040523d82523d6000602084013e611052565b606091505b5090925090506110f2565b826060015173ffffffffffffffffffffffffffffffffffffffff1683608001518460400151600014611093578460400151611095565b5a5b908560a001516040516110a891906126ae565b600060405180830381858888f193505050503d80600081146110e6576040519150601f19603f3d011682016040523d82523d6000602084013e6110eb565b606091505b5090925090505b8115611113578560405161110691906126f6565b60405180910390a061111e565b61111e838783611cc8565b505050600101610f62565b505050565b60008061113a83611d18565b915091506000611149836109eb565b9050808214611184576040517f08c379a00000000000000000000000000000000000000000000000000000000081526004016109d290612745565b600182016111928482611d31565b7f1f180c27086c7a39ea2a7b25239d1ab92348f07ca7bb59d1438fcf527568f88184826040516111c3929190612896565b60405180910390a15050505050565b60007fffffffff0000000000000000000000000000000000000000000000000000000082167fec6aba5000000000000000000000000000000000000000000000000000000000148061126557507fffffffff0000000000000000000000000000000000000000000000000000000082167f4e2312e000000000000000000000000000000000000000000000000000000000145b806112b157507fffffffff0000000000000000000000000000000000000000000000000000000082167f150b7a0200000000000000000000000000000000000000000000000000000000145b806112fd57507fffffffff0000000000000000000000000000000000000000000000000000000082167fc0ee0b8a00000000000000000000000000000000000000000000000000000000145b1561130a57506001610481565b61047e82611d5c565b6020810151815160f09190911c9060029081111561137c576040517f08c379a0000000000000000000000000000000000000000000000000000000008152600401808060200182810382526027815260200180612a1d6027913960400191505060405180910390fd5b915091565b8082016020015160f881901c9060f01c60ff16600283018381116113a157fe5b84518111156113fb576040517f08c379a0000000000000000000000000000000000000000000000000000000008152600401808060200182810382526026815260200180612be66026913960400191505060405180910390fd5b9250925092565b8082016020015160601c6014820182811161141957fe5b8351811115611473576040517f08c379a00000000000000000000000000000000000000000000000000000000081526004018080602001828103825260238152602001806129fa6023913960400191505060405180910390fd5b9250929050565b6040805160428082526080820190925260609160009190602082018180368337019050509150828401602001805160208401526020810151604084015260228101516042840152506042830190508281116114d157fe5b8351811115611473576040517f08c379a0000000000000000000000000000000000000000000000000000000008152600401808060200182810382526023815260200180612b4e6023913960400191505060405180910390fd5b60008151604214611587576040517f08c379a000000000000000000000000000000000000000000000000000000000815260040180806020018281038252603a815260200180612932603a913960400191505060405180910390fd5b60008260018451038151811061159957fe5b602001015160f81c60f81b60f81c60ff1690506000836040815181106115bb57fe5b016020015160f81c905060006115d18582611db9565b905060006115e0866020611db9565b90507f7fffffffffffffffffffffffffffffff5d576e7357a4501ddfe92f46681b20a081111561165b576040517f08c379a000000000000000000000000000000000000000000000000000000000815260040180806020018281038252603d8152602001806128f5603d913960400191505060405180910390fd5b8260ff16601b1415801561167357508260ff16601c14155b156116c9576040517f08c379a000000000000000000000000000000000000000000000000000000000815260040180806020018281038252603d815260200180612a44603d913960400191505060405180910390fd5b600184141561173d5760018784848460405160008152602001604052604051808581526020018460ff1681526020018381526020018281526020019450505050506020604051602081039080840390855afa15801561172c573d6000803e3d6000fd5b50505060206040510351945061183f565b60028414156117ee5760018760405160200180807f19457468657265756d205369676e6564204d6573736167653a0a333200000000815250601c018281526020019150506040516020818303038152906040528051906020012084848460405160008152602001604052604051808581526020018460ff1681526020018381526020018281526020019450505050506020604051602081039080840390855afa15801561172c573d6000803e3d6000fd5b6040517f08c379a000000000000000000000000000000000000000000000000000000000815260040180806020018281038252603c815260200180612baa603c913960400191505060405180910390fd5b73ffffffffffffffffffffffffffffffffffffffff85166118ab576040517f08c379a0000000000000000000000000000000000000000000000000000000008152600401808060200182810382526030815260200180612a816030913960400191505060405180910390fd5b5050505092915050565b8082016020015160f01c600282018281116118cc57fe5b8351811115611473576040517f08c379a0000000000000000000000000000000000000000000000000000000008152600401808060200182810382526022815260200180612c2d6022913960400191505060405180910390fd5b606060008267ffffffffffffffff8111801561194157600080fd5b506040519080825280601f01601f19166020018201604052801561196c576020820181803683370190505b509150838501602001600060205b858110156119935790820151848201526020810161197a565b84860160200180519390920151908501525250828201838110156119b357fe5b8451811115611a0d576040517f08c379a0000000000000000000000000000000000000000000000000000000008152600401808060200182810382526021815260200180612c0c6021913960400191505060405180910390fd5b935093915050565b60008082600184510381518110611a2857fe5b016020015160f81c90506001811480611a415750600281145b15611a85578373ffffffffffffffffffffffffffffffffffffffff16611a67868561152b565b73ffffffffffffffffffffffffffffffffffffffff16149150611c55565b6003811415611c045782517fffffffffffffffffffffffffffffffffffffffffffffffffffffffffffffffff81018452604080517f1626ba7e000000000000000000000000000000000000000000000000000000008152600481018881526024820192835286516044830152865173ffffffffffffffffffffffffffffffffffffffff891693631626ba7e938b938a9390929160640190602085019080838360005b83811015611b3f578181015183820152602001611b27565b50505050905090810190601f168015611b6c5780820380516001836020036101000a031916815260200191505b50935050505060206040518083038186803b158015611b8a57600080fd5b505afa158015611b9e573d6000803e3d6000fd5b505050506040513d6020811015611bb457600080fd5b50519084527fffffffff00000000000000000000000000000000000000000000000000000000167f1626ba7e00000000000000000000000000000000000000000000000000000000149150611c55565b6040517f08c379a000000000000000000000000000000000000000000000000000000000815260040180806020018281038252603f815260200180612b0f603f913960400191505060405180910390fd5b509392505050565b6000811580159061047e5750611c927fea7157fa25e3aa17d0ae2d5280fa4e24d421c61842aa85e45194e1145aa72bf8610f5b565b909114919050565b6040805160208082019590955280820193909352805180840382018152606090930190528151919092012055565b826020015115611cda57805160208201fd5b7f3dbd1590ea96dd3253a91f24e64e3a502e1225d602a5731357bc12643070ccd78282604051611d0b9291906126ff565b60405180910390a1505050565b606081901c916bffffffffffffffffffffffff90911690565b61096b7f8d0bf1fd623d628c741362c1289948e57b3e2905218c676d3e69abee36d6ae2e8383611c9a565b60007fffffffff0000000000000000000000000000000000000000000000000000000082167f025b22bc000000000000000000000000000000000000000000000000000000001415611db057506001610481565b61047e82611e21565b60008160200183511015611e18576040517f08c379a000000000000000000000000000000000000000000000000000000000815260040180806020018281038252603c815260200180612c4f603c913960400191505060405180910390fd5b50016020015190565b60007fffffffff0000000000000000000000000000000000000000000000000000000082167f389901c7000000000000000000000000000000000000000000000000000000001415611e7557506001610481565b61047e8260007fffffffff0000000000000000000000000000000000000000000000000000000082167f783649a6000000000000000000000000000000000000000000000000000000001415611ecd57506001610481565b61047e8260007fffffffff0000000000000000000000000000000000000000000000000000000082161580611f4357507fffffffff0000000000000000000000000000000000000000000000000000000082167f36e7817500000000000000000000000000000000000000000000000000000000145b15611f5057506001610481565b7f01ffc9a7000000000000000000000000000000000000000000000000000000007fffffffff0000000000000000000000000000000000000000000000000000000083161461047e565b803573ffffffffffffffffffffffffffffffffffffffff8116811461048157600080fd5b600082601f830112611fce578081fd5b8135602067ffffffffffffffff80831115611fe557fe5b611ff282838502016128a4565b83815282810190868401865b868110156120ce578135890160c0807fffffffffffffffffffffffffffffffffffffffffffffffffffffffffffffffe0838e0301121561203c57898afd5b604080518281018181108a8211171561205157fe5b825261205e848b0161211e565b815261206b82850161211e565b8a8201526060808501358383015260809250612088838601611f9a565b9082015260a084810135838301529284013592898411156120a7578c8dfd5b6120b58f8c8688010161219e565b9082015287525050509285019290850190600101611ffe565b509098975050505050505050565b60008083601f8401126120ed578182fd5b50813567ffffffffffffffff811115612104578182fd5b602083019150836020808302850101111561147357600080fd5b8035801515811461048157600080fd5b80357fffffffff000000000000000000000000000000000000000000000000000000008116811461048157600080fd5b60008083601f84011261216f578182fd5b50813567ffffffffffffffff811115612186578182fd5b60208301915083602082850101111561147357600080fd5b600082601f8301126121ae578081fd5b813567ffffffffffffffff8111156121c257fe5b6121f360207fffffffffffffffffffffffffffffffffffffffffffffffffffffffffffffffe0601f840116016128a4565b818152846020838601011115612207578283fd5b816020850160208301379081016020019190915292915050565b600060208284031215612232578081fd5b61064e82611f9a565b60008060008060008060008060a0898b031215612256578384fd5b61225f89611f9a565b975061226d60208a01611f9a565b9650604089013567ffffffffffffffff80821115612289578586fd5b6122958c838d016120dc565b909850965060608b01359150808211156122ad578586fd5b6122b98c838d016120dc565b909650945060808b01359150808211156122d1578384fd5b506122de8b828c0161215e565b999c989b5096995094979396929594505050565b600080600080600060808688031215612309578081fd5b61231286611f9a565b945061232060208701611f9a565b935060408601359250606086013567ffffffffffffffff811115612342578182fd5b61234e8882890161215e565b969995985093965092949392505050565b60008060008060008060a08789031215612377578182fd5b61238087611f9a565b955061238e60208801611f9a565b94506040870135935060608701359250608087013567ffffffffffffffff8111156123b7578283fd5b6123c389828a0161215e565b979a9699509497509295939492505050565b6000602082840312156123e6578081fd5b813567ffffffffffffffff8111156123fc578182fd5b6106b284828501611fbe565b60008060006060848603121561241c578283fd5b833567ffffffffffffffff80821115612433578485fd5b61243f87838801611fbe565b945060208601359350604086013591508082111561245b578283fd5b506124688682870161219e565b9150509250925092565b600060208284031215612483578081fd5b5035919050565b60008060006040848603121561249e578283fd5b83359250602084013567ffffffffffffffff8111156124bb578283fd5b6124c78682870161215e565b9497909650939450505050565b6000602082840312156124e5578081fd5b61064e8261212e565b60008060408385031215612500578182fd5b6125098361212e565b915061251760208401611f9a565b90509250929050565b60008060008060408587031215612535578182fd5b843567ffffffffffffffff8082111561254c578384fd5b6125588883890161215e565b90965094506020870135915080821115612570578384fd5b5061257d8782880161215e565b95989497509550505050565b60006020828403121561259a578081fd5b813567ffffffffffffffff8111156125b0578182fd5b6106b28482850161219e565b6000815180845260208085019450848183028601828601855b858110156126575783830389528151805115158452858101511515868501526040808201519085015260608082015173ffffffffffffffffffffffffffffffffffffffff16908501526080808201519085015260a09081015160c09185018290529061264381860183612664565b9a87019a94505050908401906001016125d5565b5090979650505050505050565b6000815180845261267c8160208601602086016128c8565b601f017fffffffffffffffffffffffffffffffffffffffffffffffffffffffffffffffe0169290920160200192915050565b600082516126c08184602087016128c8565b9190910192915050565b73ffffffffffffffffffffffffffffffffffffffff91909116815260200190565b901515815260200190565b90815260200190565b6000838252604060208301526106b26040830184612664565b7fffffffff0000000000000000000000000000000000000000000000000000000091909116815260200190565b6020808252601f908201527f4d61696e4d6f64756c65235f617574683a20494e56414c49445f4e4f4e434500604082015260600190565b60208082526024908201527f4d6f64756c6543616c6c73235f657865637574653a204e4f545f454e4f55474860408201527f5f47415300000000000000000000000000000000000000000000000000000000606082015260800190565b60208082526026908201527f4d6f64756c6543616c6c7323657865637574653a20494e56414c49445f53494760408201527f4e41545552450000000000000000000000000000000000000000000000000000606082015260800190565b600060408252600560408301527f73656c663a00000000000000000000000000000000000000000000000000000060608301526080602083015261064e60808301846125bc565b6000838252604060208301526106b260408301846125bc565b918252602082015260400190565b60405181810167ffffffffffffffff811182821017156128c057fe5b604052919050565b60005b838110156128e35781810151838201526020016128cb565b838111156109e5575050600091015256fe5369676e617475726556616c696461746f72237265636f7665725369676e65723a20696e76616c6964207369676e6174757265202773272076616c75655369676e617475726556616c696461746f72237265636f7665725369676e65723a20696e76616c6964207369676e6174757265206c656e6774684d6f64756c6541757468235f7369676e617475726556616c69646174696f6e20494e56414c49445f464c41474d6f64756c654175746855706772616461626c6523757064617465496d6167654861736820494e56414c49445f494d4147455f484153484d6f64756c65486f6f6b732372656d6f7665486f6f6b3a20484f4f4b5f4e4f545f524547495354455245444c696242797465732372656164416464726573733a204f55545f4f465f424f554e44534c696242797465732372656164466972737455696e7431363a204f55545f4f465f424f554e44535369676e617475726556616c696461746f72237265636f7665725369676e65723a20696e76616c6964207369676e6174757265202776272076616c75655369676e617475726556616c696461746f72237265636f7665725369676e65723a20494e56414c49445f5349474e45524d6f64756c6541757468235f7369676e617475726556616c69646174696f6e3a20494e56414c49445f5349474e41545552454d6f64756c65486f6f6b7323616464486f6f6b3a20484f4f4b5f414c52454144595f524547495354455245445369676e617475726556616c696461746f7223697356616c69645369676e61747572653a20554e535550504f525445445f5349474e41545552455f545950454c696242797465732372656164427974657336363a204f55545f4f465f424f554e44534d6f64756c6555706461746523757064617465496d706c656d656e746174696f6e3a20494e56414c49445f494d504c454d454e544154494f4e5369676e617475726556616c696461746f72237265636f7665725369676e65723a20554e535550504f525445445f5349474e41545552455f545950454c69624279746573237265616455696e743855696e74383a204f55545f4f465f424f554e44534c69624279746573237265616442797465733a204f55545f4f465f424f554e44534c69624279746573237265616455696e7431363a204f55545f4f465f424f554e44534c696242797465732372656164427974657333323a20475245415445525f4f525f455155414c5f544f5f33325f4c454e4754485f52455155495245444d6f64756c6553656c6641757468236f6e6c7953656c663a204e4f545f415554484f52495a4544a2646970667358221220aebb8d931ef86555b6441c416b208bb9fe8fe0974c5733ebbccce548296c37ce64736f6c63430007060033",
					"opcodes": "PUSH1 0x80 PUSH1 0x40 MSTORE CALLVALUE DUP1 ISZERO PUSH2 0x10 JUMPI PUSH1 0x0 DUP1 REVERT JUMPDEST POP PUSH2 0x2CE7 DUP1 PUSH2 0x20 PUSH1 0x0 CODECOPY PUSH1 0x0 RETURN INVALID PUSH1 0x80 PUSH1 0x40 MSTORE PUSH1 0x4 CALLDATASIZE LT PUSH2 0x112 JUMPI PUSH1 0x0 CALLDATALOAD PUSH1 0xE0 SHR DUP1 PUSH4 0x51605D80 GT PUSH2 0xA5 JUMPI DUP1 PUSH4 0x90042BAF GT PUSH2 0x74 JUMPI DUP1 PUSH4 0xB93EA7AD GT PUSH2 0x59 JUMPI DUP1 PUSH4 0xB93EA7AD EQ PUSH2 0x3D0 JUMPI DUP1 PUSH4 0xBC197C81 EQ PUSH2 0x3F0 JUMPI DUP1 PUSH4 0xF23A6E61 EQ PUSH2 0x410 JUMPI PUSH2 0x119 JUMP JUMPDEST DUP1 PUSH4 0x90042BAF EQ PUSH2 0x3A8 JUMPI DUP1 PUSH4 0xAFFED0E0 EQ PUSH2 0x3BB JUMPI PUSH2 0x119 JUMP JUMPDEST DUP1 PUSH4 0x51605D80 EQ PUSH2 0x326 JUMPI DUP1 PUSH4 0x61C2926C EQ PUSH2 0x348 JUMPI DUP1 PUSH4 0x7A9A1628 EQ PUSH2 0x368 JUMPI DUP1 PUSH4 0x8C3F5563 EQ PUSH2 0x388 JUMPI PUSH2 0x119 JUMP JUMPDEST DUP1 PUSH4 0x1A9B2337 GT PUSH2 0xE1 JUMPI DUP1 PUSH4 0x1A9B2337 EQ PUSH2 0x299 JUMPI DUP1 PUSH4 0x20C13B0B EQ PUSH2 0x2C6 JUMPI DUP1 PUSH4 0x29561426 EQ PUSH2 0x2E6 JUMPI DUP1 PUSH4 0x4FCF3ECA EQ PUSH2 0x306 JUMPI PUSH2 0x119 JUMP JUMPDEST DUP1 PUSH4 0x1FFC9A7 EQ PUSH2 0x1F4 JUMPI DUP1 PUSH4 0x25B22BC EQ PUSH2 0x22A JUMPI DUP1 PUSH4 0x150B7A02 EQ PUSH2 0x24C JUMPI DUP1 PUSH4 0x1626BA7E EQ PUSH2 0x279 JUMPI PUSH2 0x119 JUMP JUMPDEST CALLDATASIZE PUSH2 0x119 JUMPI STOP JUMPDEST PUSH1 0x0 PUSH2 0x148 PUSH1 0x0 CALLDATALOAD PUSH32 0xFFFFFFFF00000000000000000000000000000000000000000000000000000000 AND PUSH2 0x430 JUMP JUMPDEST SWAP1 POP PUSH20 0xFFFFFFFFFFFFFFFFFFFFFFFFFFFFFFFFFFFFFFFF DUP2 AND ISZERO PUSH2 0x1F1 JUMPI PUSH1 0x0 DUP1 DUP3 PUSH20 0xFFFFFFFFFFFFFFFFFFFFFFFFFFFFFFFFFFFFFFFF AND PUSH1 0x0 CALLDATASIZE PUSH1 0x40 MLOAD DUP1 DUP4 DUP4 DUP1 DUP3 DUP5 CALLDATACOPY PUSH1 0x40 MLOAD SWAP3 ADD SWAP5 POP PUSH1 0x0 SWAP4 POP SWAP1 SWAP2 POP POP DUP1 DUP4 SUB DUP2 DUP6 GAS DELEGATECALL SWAP2 POP POP RETURNDATASIZE DUP1 PUSH1 0x0 DUP2 EQ PUSH2 0x1D2 JUMPI PUSH1 0x40 MLOAD SWAP2 POP PUSH1 0x1F NOT PUSH1 0x3F RETURNDATASIZE ADD AND DUP3 ADD PUSH1 0x40 MSTORE RETURNDATASIZE DUP3 MSTORE RETURNDATASIZE PUSH1 0x0 PUSH1 0x20 DUP5 ADD RETURNDATACOPY PUSH2 0x1D7 JUMP JUMPDEST PUSH1 0x60 SWAP2 POP JUMPDEST POP SWAP2 POP SWAP2 POP DUP2 PUSH2 0x1E9 JUMPI DUP1 MLOAD PUSH1 0x20 DUP3 ADD REVERT JUMPDEST DUP1 MLOAD PUSH1 0x20 DUP3 ADD RETURN JUMPDEST POP STOP JUMPDEST CALLVALUE DUP1 ISZERO PUSH2 0x200 JUMPI PUSH1 0x0 DUP1 REVERT JUMPDEST POP PUSH2 0x214 PUSH2 0x20F CALLDATASIZE PUSH1 0x4 PUSH2 0x24D4 JUMP JUMPDEST PUSH2 0x486 JUMP JUMPDEST PUSH1 0x40 MLOAD PUSH2 0x221 SWAP2 SWAP1 PUSH2 0x26EB JUMP JUMPDEST PUSH1 0x40 MLOAD DUP1 SWAP2 SUB SWAP1 RETURN JUMPDEST CALLVALUE DUP1 ISZERO PUSH2 0x236 JUMPI PUSH1 0x0 DUP1 REVERT JUMPDEST POP PUSH2 0x24A PUSH2 0x245 CALLDATASIZE PUSH1 0x4 PUSH2 0x2221 JUMP JUMPDEST PUSH2 0x491 JUMP JUMPDEST STOP JUMPDEST CALLVALUE DUP1 ISZERO PUSH2 0x258 JUMPI PUSH1 0x0 DUP1 REVERT JUMPDEST POP PUSH2 0x26C PUSH2 0x267 CALLDATASIZE PUSH1 0x4 PUSH2 0x22F2 JUMP JUMPDEST PUSH2 0x5B2 JUMP JUMPDEST PUSH1 0x40 MLOAD PUSH2 0x221 SWAP2 SWAP1 PUSH2 0x2718 JUMP JUMPDEST CALLVALUE DUP1 ISZERO PUSH2 0x285 JUMPI PUSH1 0x0 DUP1 REVERT JUMPDEST POP PUSH2 0x26C PUSH2 0x294 CALLDATASIZE PUSH1 0x4 PUSH2 0x248A JUMP JUMPDEST PUSH2 0x5DC JUMP JUMPDEST CALLVALUE DUP1 ISZERO PUSH2 0x2A5 JUMPI PUSH1 0x0 DUP1 REVERT JUMPDEST POP PUSH2 0x2B9 PUSH2 0x2B4 CALLDATASIZE PUSH1 0x4 PUSH2 0x24D4 JUMP JUMPDEST PUSH2 0x655 JUMP JUMPDEST PUSH1 0x40 MLOAD PUSH2 0x221 SWAP2 SWAP1 PUSH2 0x26CA JUMP JUMPDEST CALLVALUE DUP1 ISZERO PUSH2 0x2D2 JUMPI PUSH1 0x0 DUP1 REVERT JUMPDEST POP PUSH2 0x26C PUSH2 0x2E1 CALLDATASIZE PUSH1 0x4 PUSH2 0x2520 JUMP JUMPDEST PUSH2 0x660 JUMP JUMPDEST CALLVALUE DUP1 ISZERO PUSH2 0x2F2 JUMPI PUSH1 0x0 DUP1 REVERT JUMPDEST POP PUSH2 0x24A PUSH2 0x301 CALLDATASIZE PUSH1 0x4 PUSH2 0x2472 JUMP JUMPDEST PUSH2 0x6BA JUMP JUMPDEST CALLVALUE DUP1 ISZERO PUSH2 0x312 JUMPI PUSH1 0x0 DUP1 REVERT JUMPDEST POP PUSH2 0x24A PUSH2 0x321 CALLDATASIZE PUSH1 0x4 PUSH2 0x24D4 JUMP JUMPDEST PUSH2 0x7C8 JUMP JUMPDEST CALLVALUE DUP1 ISZERO PUSH2 0x332 JUMPI PUSH1 0x0 DUP1 REVERT JUMPDEST POP PUSH2 0x33B PUSH2 0x8A6 JUMP JUMPDEST PUSH1 0x40 MLOAD PUSH2 0x221 SWAP2 SWAP1 PUSH2 0x26F6 JUMP JUMPDEST CALLVALUE DUP1 ISZERO PUSH2 0x354 JUMPI PUSH1 0x0 DUP1 REVERT JUMPDEST POP PUSH2 0x24A PUSH2 0x363 CALLDATASIZE PUSH1 0x4 PUSH2 0x23D5 JUMP JUMPDEST PUSH2 0x8D6 JUMP JUMPDEST CALLVALUE DUP1 ISZERO PUSH2 0x374 JUMPI PUSH1 0x0 DUP1 REVERT JUMPDEST POP PUSH2 0x24A PUSH2 0x383 CALLDATASIZE PUSH1 0x4 PUSH2 0x2408 JUMP JUMPDEST PUSH2 0x96F JUMP JUMPDEST CALLVALUE DUP1 ISZERO PUSH2 0x394 JUMPI PUSH1 0x0 DUP1 REVERT JUMPDEST POP PUSH2 0x33B PUSH2 0x3A3 CALLDATASIZE PUSH1 0x4 PUSH2 0x2472 JUMP JUMPDEST PUSH2 0x9EB JUMP JUMPDEST PUSH2 0x2B9 PUSH2 0x3B6 CALLDATASIZE PUSH1 0x4 PUSH2 0x2589 JUMP JUMPDEST PUSH2 0xA17 JUMP JUMPDEST CALLVALUE DUP1 ISZERO PUSH2 0x3C7 JUMPI PUSH1 0x0 DUP1 REVERT JUMPDEST POP PUSH2 0x33B PUSH2 0xACB JUMP JUMPDEST CALLVALUE DUP1 ISZERO PUSH2 0x3DC JUMPI PUSH1 0x0 DUP1 REVERT JUMPDEST POP PUSH2 0x24A PUSH2 0x3EB CALLDATASIZE PUSH1 0x4 PUSH2 0x24EE JUMP JUMPDEST PUSH2 0xAD7 JUMP JUMPDEST CALLVALUE DUP1 ISZERO PUSH2 0x3FC JUMPI PUSH1 0x0 DUP1 REVERT JUMPDEST POP PUSH2 0x26C PUSH2 0x40B CALLDATASIZE PUSH1 0x4 PUSH2 0x223B JUMP JUMPDEST PUSH2 0xBB0 JUMP JUMPDEST CALLVALUE DUP1 ISZERO PUSH2 0x41C JUMPI PUSH1 0x0 DUP1 REVERT JUMPDEST POP PUSH2 0x26C PUSH2 0x42B CALLDATASIZE PUSH1 0x4 PUSH2 0x235F JUMP JUMPDEST PUSH2 0xBDD JUMP JUMPDEST PUSH1 0x0 PUSH2 0x47E PUSH32 0xBE27A319EFC8734E89E26BA4BC95F5C788584163B959F03FA04E2D7AB4B9A120 PUSH32 0xFFFFFFFF00000000000000000000000000000000000000000000000000000000 DUP5 AND PUSH2 0xC08 JUMP JUMPDEST SWAP1 POP JUMPDEST SWAP2 SWAP1 POP JUMP JUMPDEST PUSH1 0x0 PUSH2 0x47E DUP3 PUSH2 0xC35 JUMP JUMPDEST CALLER ADDRESS EQ PUSH2 0x4E9 JUMPI PUSH1 0x40 MLOAD PUSH32 0x8C379A000000000000000000000000000000000000000000000000000000000 DUP2 MSTORE PUSH1 0x4 ADD DUP1 DUP1 PUSH1 0x20 ADD DUP3 DUP2 SUB DUP3 MSTORE PUSH1 0x27 DUP2 MSTORE PUSH1 0x20 ADD DUP1 PUSH2 0x2C8B PUSH1 0x27 SWAP2 CODECOPY PUSH1 0x40 ADD SWAP2 POP POP PUSH1 0x40 MLOAD DUP1 SWAP2 SUB SWAP1 REVERT JUMPDEST PUSH2 0x508 DUP2 PUSH20 0xFFFFFFFFFFFFFFFFFFFFFFFFFFFFFFFFFFFFFFFF AND PUSH2 0xC92 JUMP JUMPDEST PUSH2 0x55D JUMPI PUSH1 0x40 MLOAD PUSH32 0x8C379A000000000000000000000000000000000000000000000000000000000 DUP2 MSTORE PUSH1 0x4 ADD DUP1 DUP1 PUSH1 0x20 ADD DUP3 DUP2 SUB DUP3 MSTORE PUSH1 0x39 DUP2 MSTORE PUSH1 0x20 ADD DUP1 PUSH2 0x2B71 PUSH1 0x39 SWAP2 CODECOPY PUSH1 0x40 ADD SWAP2 POP POP PUSH1 0x40 MLOAD DUP1 SWAP2 SUB SWAP1 REVERT JUMPDEST PUSH2 0x566 DUP2 PUSH2 0xC98 JUMP JUMPDEST PUSH1 0x40 DUP1 MLOAD PUSH20 0xFFFFFFFFFFFFFFFFFFFFFFFFFFFFFFFFFFFFFFFF DUP4 AND DUP2 MSTORE SWAP1 MLOAD PUSH32 0x310BA5F1D2ED074B51E2ECCD052A47AE9AB7C6B800D1FCA3DB3999D6A592CA03 SWAP2 DUP2 SWAP1 SUB PUSH1 0x20 ADD SWAP1 LOG1 POP JUMP JUMPDEST PUSH32 0x150B7A0200000000000000000000000000000000000000000000000000000000 SWAP6 SWAP5 POP POP POP POP POP JUMP JUMPDEST PUSH1 0x0 PUSH2 0x626 PUSH2 0x5EA DUP6 PUSH2 0xC9C JUMP JUMPDEST DUP5 DUP5 DUP1 DUP1 PUSH1 0x1F ADD PUSH1 0x20 DUP1 SWAP2 DIV MUL PUSH1 0x20 ADD PUSH1 0x40 MLOAD SWAP1 DUP2 ADD PUSH1 0x40 MSTORE DUP1 SWAP4 SWAP3 SWAP2 SWAP1 DUP2 DUP2 MSTORE PUSH1 0x20 ADD DUP4 DUP4 DUP1 DUP3 DUP5 CALLDATACOPY PUSH1 0x0 SWAP3 ADD SWAP2 SWAP1 SWAP2 MSTORE POP PUSH2 0xCFC SWAP3 POP POP POP JUMP JUMPDEST ISZERO PUSH2 0x64E JUMPI POP PUSH32 0x1626BA7E00000000000000000000000000000000000000000000000000000000 JUMPDEST SWAP4 SWAP3 POP POP POP JUMP JUMPDEST PUSH1 0x0 PUSH2 0x47E DUP3 PUSH2 0x430 JUMP JUMPDEST PUSH1 0x0 PUSH2 0x68A PUSH2 0x5EA DUP7 DUP7 PUSH1 0x40 MLOAD DUP1 DUP4 DUP4 DUP1 DUP3 DUP5 CALLDATACOPY PUSH1 0x40 MLOAD SWAP3 ADD DUP3 SWAP1 SUB SWAP1 SWAP2 KECCAK256 SWAP4 POP PUSH2 0xC9C SWAP3 POP POP POP JUMP JUMPDEST ISZERO PUSH2 0x6B2 JUMPI POP PUSH32 0x20C13B0B00000000000000000000000000000000000000000000000000000000 JUMPDEST SWAP5 SWAP4 POP POP POP POP JUMP JUMPDEST CALLER ADDRESS EQ PUSH2 0x712 JUMPI PUSH1 0x40 MLOAD PUSH32 0x8C379A000000000000000000000000000000000000000000000000000000000 DUP2 MSTORE PUSH1 0x4 ADD DUP1 DUP1 PUSH1 0x20 ADD DUP3 DUP2 SUB DUP3 MSTORE PUSH1 0x27 DUP2 MSTORE PUSH1 0x20 ADD DUP1 PUSH2 0x2C8B PUSH1 0x27 SWAP2 CODECOPY PUSH1 0x40 ADD SWAP2 POP POP PUSH1 0x40 MLOAD DUP1 SWAP2 SUB SWAP1 REVERT JUMPDEST DUP1 PUSH2 0x768 JUMPI PUSH1 0x40 MLOAD PUSH32 0x8C379A000000000000000000000000000000000000000000000000000000000 DUP2 MSTORE PUSH1 0x4 ADD DUP1 DUP1 PUSH1 0x20 ADD DUP3 DUP2 SUB DUP3 MSTORE PUSH1 0x37 DUP2 MSTORE PUSH1 0x20 ADD DUP1 PUSH2 0x2998 PUSH1 0x37 SWAP2 CODECOPY PUSH1 0x40 ADD SWAP2 POP POP PUSH1 0x40 MLOAD DUP1 SWAP2 SUB SWAP1 REVERT JUMPDEST PUSH2 0x792 PUSH32 0xEA7157FA25E3AA17D0AE2D5280FA4E24D421C61842AA85E45194E1145AA72BF8 DUP3 PUSH2 0xEF4 JUMP JUMPDEST PUSH1 0x40 DUP1 MLOAD DUP3 DUP2 MSTORE SWAP1 MLOAD PUSH32 0x307ED6BD941EE9FC80F369C94AF5FA11E25BAB5102A6140191756C5474A30BFA SWAP2 DUP2 SWAP1 SUB PUSH1 0x20 ADD SWAP1 LOG1 POP JUMP JUMPDEST CALLER ADDRESS EQ PUSH2 0x820 JUMPI PUSH1 0x40 MLOAD PUSH32 0x8C379A000000000000000000000000000000000000000000000000000000000 DUP2 MSTORE PUSH1 0x4 ADD DUP1 DUP1 PUSH1 0x20 ADD DUP3 DUP2 SUB DUP3 MSTORE PUSH1 0x27 DUP2 MSTORE PUSH1 0x20 ADD DUP1 PUSH2 0x2C8B PUSH1 0x27 SWAP2 CODECOPY PUSH1 0x40 ADD SWAP2 POP POP PUSH1 0x40 MLOAD DUP1 SWAP2 SUB SWAP1 REVERT JUMPDEST PUSH1 0x0 PUSH2 0x82B DUP3 PUSH2 0x430 JUMP JUMPDEST PUSH20 0xFFFFFFFFFFFFFFFFFFFFFFFFFFFFFFFFFFFFFFFF AND EQ ISZERO PUSH2 0x898 JUMPI PUSH1 0x40 MLOAD PUSH32 0x8C379A000000000000000000000000000000000000000000000000000000000 DUP2 MSTORE PUSH1 0x4 ADD DUP1 DUP1 PUSH1 0x20 ADD DUP3 DUP2 SUB DUP3 MSTORE PUSH1 0x2B DUP2 MSTORE PUSH1 0x20 ADD DUP1 PUSH2 0x29CF PUSH1 0x2B SWAP2 CODECOPY PUSH1 0x40 ADD SWAP2 POP POP PUSH1 0x40 MLOAD DUP1 SWAP2 SUB SWAP1 REVERT JUMPDEST PUSH2 0x8A3 DUP2 PUSH1 0x0 PUSH2 0xEF8 JUMP JUMPDEST POP JUMP JUMPDEST PUSH1 0x0 PUSH2 0x8D1 PUSH32 0xEA7157FA25E3AA17D0AE2D5280FA4E24D421C61842AA85E45194E1145AA72BF8 PUSH2 0xF5B JUMP JUMPDEST SWAP1 POP SWAP1 JUMP JUMPDEST CALLER ADDRESS EQ PUSH2 0x92E JUMPI PUSH1 0x40 MLOAD PUSH32 0x8C379A000000000000000000000000000000000000000000000000000000000 DUP2 MSTORE PUSH1 0x4 ADD DUP1 DUP1 PUSH1 0x20 ADD DUP3 DUP2 SUB DUP3 MSTORE PUSH1 0x27 DUP2 MSTORE PUSH1 0x20 ADD DUP1 PUSH2 0x2C8B PUSH1 0x27 SWAP2 CODECOPY PUSH1 0x40 ADD SWAP2 POP POP PUSH1 0x40 MLOAD DUP1 SWAP2 SUB SWAP1 REVERT JUMPDEST PUSH1 0x0 PUSH2 0x95F DUP3 PUSH1 0x40 MLOAD PUSH1 0x20 ADD PUSH2 0x944 SWAP2 SWAP1 PUSH2 0x2836 JUMP JUMPDEST PUSH1 0x40 MLOAD PUSH1 0x20 DUP2 DUP4 SUB SUB DUP2 MSTORE SWAP1 PUSH1 0x40 MSTORE DUP1 MLOAD SWAP1 PUSH1 0x20 ADD KECCAK256 PUSH2 0xC9C JUMP JUMPDEST SWAP1 POP PUSH2 0x96B DUP2 DUP4 PUSH2 0xF5F JUMP JUMPDEST POP POP JUMP JUMPDEST PUSH2 0x978 DUP3 PUSH2 0x112E JUMP JUMPDEST PUSH1 0x0 PUSH2 0x990 DUP4 DUP6 PUSH1 0x40 MLOAD PUSH1 0x20 ADD PUSH2 0x944 SWAP3 SWAP2 SWAP1 PUSH2 0x287D JUMP JUMPDEST SWAP1 POP PUSH2 0x99C DUP2 DUP4 PUSH2 0xCFC JUMP JUMPDEST PUSH2 0x9DB JUMPI PUSH1 0x40 MLOAD PUSH32 0x8C379A000000000000000000000000000000000000000000000000000000000 DUP2 MSTORE PUSH1 0x4 ADD PUSH2 0x9D2 SWAP1 PUSH2 0x27D9 JUMP JUMPDEST PUSH1 0x40 MLOAD DUP1 SWAP2 SUB SWAP1 REVERT JUMPDEST PUSH2 0x9E5 DUP2 DUP6 PUSH2 0xF5F JUMP JUMPDEST POP POP POP POP JUMP JUMPDEST PUSH1 0x0 PUSH2 0x47E PUSH32 0x8D0BF1FD623D628C741362C1289948E57B3E2905218C676D3E69ABEE36D6AE2E DUP4 PUSH2 0xC08 JUMP JUMPDEST PUSH1 0x0 CALLER ADDRESS EQ PUSH2 0xA71 JUMPI PUSH1 0x40 MLOAD PUSH32 0x8C379A000000000000000000000000000000000000000000000000000000000 DUP2 MSTORE PUSH1 0x4 ADD DUP1 DUP1 PUSH1 0x20 ADD DUP3 DUP2 SUB DUP3 MSTORE PUSH1 0x27 DUP2 MSTORE PUSH1 0x20 ADD DUP1 PUSH2 0x2C8B PUSH1 0x27 SWAP2 CODECOPY PUSH1 0x40 ADD SWAP2 POP POP PUSH1 0x40 MLOAD DUP1 SWAP2 SUB SWAP1 REVERT JUMPDEST DUP2 MLOAD PUSH1 0x20 DUP4 ADD CALLVALUE CREATE PUSH1 0x40 DUP1 MLOAD PUSH20 0xFFFFFFFFFFFFFFFFFFFFFFFFFFFFFFFFFFFFFFFF DUP4 AND DUP2 MSTORE SWAP1 MLOAD SWAP2 SWAP3 POP PUSH32 0xA506AD4E7F05ECEBA62A023C3219E5BD98A615F4FA87E2AFB08A2DA5CF62BF0C SWAP2 SWAP1 DUP2 SWAP1 SUB PUSH1 0x20 ADD SWAP1 LOG1 SWAP2 SWAP1 POP JUMP JUMPDEST PUSH1 0x0 PUSH2 0x8D1 PUSH1 0x0 PUSH2 0x9EB JUMP JUMPDEST CALLER ADDRESS EQ PUSH2 0xB2F JUMPI PUSH1 0x40 MLOAD PUSH32 0x8C379A000000000000000000000000000000000000000000000000000000000 DUP2 MSTORE PUSH1 0x4 ADD DUP1 DUP1 PUSH1 0x20 ADD DUP3 DUP2 SUB DUP3 MSTORE PUSH1 0x27 DUP2 MSTORE PUSH1 0x20 ADD DUP1 PUSH2 0x2C8B PUSH1 0x27 SWAP2 CODECOPY PUSH1 0x40 ADD SWAP2 POP POP PUSH1 0x40 MLOAD DUP1 SWAP2 SUB SWAP1 REVERT JUMPDEST PUSH1 0x0 PUSH2 0xB3A DUP4 PUSH2 0x430 JUMP JUMPDEST PUSH20 0xFFFFFFFFFFFFFFFFFFFFFFFFFFFFFFFFFFFFFFFF AND EQ PUSH2 0xBA6 JUMPI PUSH1 0x40 MLOAD PUSH32 0x8C379A000000000000000000000000000000000000000000000000000000000 DUP2 MSTORE PUSH1 0x4 ADD DUP1 DUP1 PUSH1 0x20 ADD DUP3 DUP2 SUB DUP3 MSTORE PUSH1 0x2C DUP2 MSTORE PUSH1 0x20 ADD DUP1 PUSH2 0x2AE3 PUSH1 0x2C SWAP2 CODECOPY PUSH1 0x40 ADD SWAP2 POP POP PUSH1 0x40 MLOAD DUP1 SWAP2 SUB SWAP1 REVERT JUMPDEST PUSH2 0x96B DUP3 DUP3 PUSH2 0xEF8 JUMP JUMPDEST PUSH32 0xBC197C8100000000000000000000000000000000000000000000000000000000 SWAP9 SWAP8 POP POP POP POP POP POP POP POP JUMP JUMPDEST PUSH32 0xF23A6E6100000000000000000000000000000000000000000000000000000000 SWAP7 SWAP6 POP POP POP POP POP POP JUMP JUMPDEST PUSH1 0x40 DUP1 MLOAD PUSH1 0x20 DUP1 DUP3 ADD SWAP5 SWAP1 SWAP5 MSTORE DUP1 DUP3 ADD SWAP3 SWAP1 SWAP3 MSTORE DUP1 MLOAD DUP1 DUP4 SUB DUP3 ADD DUP2 MSTORE PUSH1 0x60 SWAP1 SWAP3 ADD SWAP1 MSTORE DUP1 MLOAD SWAP2 ADD KECCAK256 SLOAD SWAP1 JUMP JUMPDEST PUSH1 0x0 PUSH32 0xFFFFFFFF00000000000000000000000000000000000000000000000000000000 DUP3 AND PUSH32 0x90042BAF00000000000000000000000000000000000000000000000000000000 EQ ISZERO PUSH2 0xC89 JUMPI POP PUSH1 0x1 PUSH2 0x481 JUMP JUMPDEST PUSH2 0x47E DUP3 PUSH2 0x11D2 JUMP JUMPDEST EXTCODESIZE ISZERO ISZERO SWAP1 JUMP JUMPDEST ADDRESS SSTORE JUMP JUMPDEST PUSH1 0x40 DUP1 MLOAD PUSH32 0x1901000000000000000000000000000000000000000000000000000000000000 PUSH1 0x20 DUP1 DUP4 ADD SWAP2 SWAP1 SWAP2 MSTORE CHAINID PUSH1 0x22 DUP4 ADD MSTORE ADDRESS PUSH1 0x60 SHL PUSH1 0x42 DUP4 ADD MSTORE PUSH1 0x56 DUP1 DUP4 ADD SWAP5 SWAP1 SWAP5 MSTORE DUP3 MLOAD DUP1 DUP4 SUB SWAP1 SWAP5 ADD DUP5 MSTORE PUSH1 0x76 SWAP1 SWAP2 ADD SWAP1 SWAP2 MSTORE DUP2 MLOAD SWAP2 ADD KECCAK256 SWAP1 JUMP JUMPDEST PUSH1 0x0 DUP1 PUSH1 0x0 PUSH2 0xD0A DUP5 PUSH2 0x1313 JUMP JUMPDEST SWAP1 SWAP3 POP SWAP1 POP PUSH2 0xFFFF DUP3 AND PUSH1 0x0 JUMPDEST DUP6 MLOAD DUP4 LT ISZERO PUSH2 0xED1 JUMPI PUSH1 0x0 DUP1 DUP1 PUSH2 0xD2E DUP10 DUP8 PUSH2 0x1381 JUMP JUMPDEST SWAP8 POP PUSH1 0xFF SWAP2 DUP3 AND SWAP5 POP AND SWAP2 POP PUSH1 0x1 DUP4 EQ ISZERO PUSH2 0xD56 JUMPI PUSH2 0xD4D DUP10 DUP8 PUSH2 0x1402 JUMP JUMPDEST SWAP7 POP SWAP1 POP PUSH2 0xE7A JUMP JUMPDEST DUP3 PUSH2 0xD82 JUMPI PUSH1 0x60 PUSH2 0xD67 DUP11 DUP9 PUSH2 0x147A JUMP JUMPDEST SWAP8 POP SWAP1 POP PUSH2 0xD75 DUP12 DUP3 PUSH2 0x152B JUMP JUMPDEST SWAP2 POP DUP3 DUP6 ADD SWAP5 POP POP PUSH2 0xE7A JUMP JUMPDEST PUSH1 0x2 DUP4 EQ ISZERO PUSH2 0xE29 JUMPI PUSH2 0xD95 DUP10 DUP8 PUSH2 0x1402 JUMP JUMPDEST SWAP7 POP SWAP1 POP PUSH1 0x0 PUSH2 0xDA5 DUP11 DUP9 PUSH2 0x18B5 JUMP JUMPDEST SWAP8 POP PUSH2 0xFFFF AND SWAP1 POP PUSH1 0x60 PUSH2 0xDBA DUP12 DUP10 DUP5 PUSH2 0x1926 JUMP JUMPDEST SWAP9 POP SWAP1 POP PUSH2 0xDC9 DUP13 DUP5 DUP4 PUSH2 0x1A15 JUMP JUMPDEST PUSH2 0xE1E JUMPI PUSH1 0x40 MLOAD PUSH32 0x8C379A000000000000000000000000000000000000000000000000000000000 DUP2 MSTORE PUSH1 0x4 ADD DUP1 DUP1 PUSH1 0x20 ADD DUP3 DUP2 SUB DUP3 MSTORE PUSH1 0x32 DUP2 MSTORE PUSH1 0x20 ADD DUP1 PUSH2 0x2AB1 PUSH1 0x32 SWAP2 CODECOPY PUSH1 0x40 ADD SWAP2 POP POP PUSH1 0x40 MLOAD DUP1 SWAP2 SUB SWAP1 REVERT JUMPDEST POP POP SWAP3 DUP2 ADD SWAP3 PUSH2 0xE7A JUMP JUMPDEST PUSH1 0x40 MLOAD PUSH32 0x8C379A000000000000000000000000000000000000000000000000000000000 DUP2 MSTORE PUSH1 0x4 ADD DUP1 DUP1 PUSH1 0x20 ADD DUP3 DUP2 SUB DUP3 MSTORE PUSH1 0x2C DUP2 MSTORE PUSH1 0x20 ADD DUP1 PUSH2 0x296C PUSH1 0x2C SWAP2 CODECOPY PUSH1 0x40 ADD SWAP2 POP POP PUSH1 0x40 MLOAD DUP1 SWAP2 SUB SWAP1 REVERT JUMPDEST DUP5 DUP3 DUP3 PUSH1 0x40 MLOAD PUSH1 0x20 ADD DUP1 DUP5 DUP2 MSTORE PUSH1 0x20 ADD DUP4 DUP2 MSTORE PUSH1 0x20 ADD DUP3 PUSH20 0xFFFFFFFFFFFFFFFFFFFFFFFFFFFFFFFFFFFFFFFF AND DUP2 MSTORE PUSH1 0x20 ADD SWAP4 POP POP POP POP PUSH1 0x40 MLOAD PUSH1 0x20 DUP2 DUP4 SUB SUB DUP2 MSTORE SWAP1 PUSH1 0x40 MSTORE DUP1 MLOAD SWAP1 PUSH1 0x20 ADD KECCAK256 SWAP5 POP POP POP POP PUSH2 0xD17 JUMP JUMPDEST DUP4 PUSH2 0xFFFF AND DUP2 LT ISZERO DUP1 ISZERO PUSH2 0xEE9 JUMPI POP PUSH2 0xEE9 DUP3 PUSH2 0x1C5D JUMP JUMPDEST SWAP8 SWAP7 POP POP POP POP POP POP POP JUMP JUMPDEST SWAP1 SSTORE JUMP JUMPDEST PUSH2 0x96B PUSH32 0xBE27A319EFC8734E89E26BA4BC95F5C788584163B959F03FA04E2D7AB4B9A120 PUSH32 0xFFFFFFFF00000000000000000000000000000000000000000000000000000000 DUP5 AND PUSH20 0xFFFFFFFFFFFFFFFFFFFFFFFFFFFFFFFFFFFFFFFF DUP5 AND PUSH2 0x1C9A JUMP JUMPDEST SLOAD SWAP1 JUMP JUMPDEST PUSH1 0x0 JUMPDEST DUP2 MLOAD DUP2 LT ISZERO PUSH2 0x1129 JUMPI PUSH1 0x0 DUP3 DUP3 DUP2 MLOAD DUP2 LT PUSH2 0xF79 JUMPI INVALID JUMPDEST PUSH1 0x20 MUL PUSH1 0x20 ADD ADD MLOAD SWAP1 POP PUSH1 0x0 PUSH1 0x60 DUP3 PUSH1 0x40 ADD MLOAD GAS LT ISZERO PUSH2 0xFC5 JUMPI PUSH1 0x40 MLOAD PUSH32 0x8C379A000000000000000000000000000000000000000000000000000000000 DUP2 MSTORE PUSH1 0x4 ADD PUSH2 0x9D2 SWAP1 PUSH2 0x277C JUMP JUMPDEST DUP3 MLOAD ISZERO PUSH2 0x105D JUMPI DUP3 PUSH1 0x60 ADD MLOAD PUSH20 0xFFFFFFFFFFFFFFFFFFFFFFFFFFFFFFFFFFFFFFFF AND DUP4 PUSH1 0x40 ADD MLOAD PUSH1 0x0 EQ PUSH2 0xFFD JUMPI DUP4 PUSH1 0x40 ADD MLOAD PUSH2 0xFFF JUMP JUMPDEST GAS JUMPDEST DUP5 PUSH1 0xA0 ADD MLOAD PUSH1 0x40 MLOAD PUSH2 0x1011 SWAP2 SWAP1 PUSH2 0x26AE JUMP JUMPDEST PUSH1 0x0 PUSH1 0x40 MLOAD DUP1 DUP4 SUB DUP2 DUP7 DUP7 DELEGATECALL SWAP3 POP POP POP RETURNDATASIZE DUP1 PUSH1 0x0 DUP2 EQ PUSH2 0x104D JUMPI PUSH1 0x40 MLOAD SWAP2 POP PUSH1 0x1F NOT PUSH1 0x3F RETURNDATASIZE ADD AND DUP3 ADD PUSH1 0x40 MSTORE RETURNDATASIZE DUP3 MSTORE RETURNDATASIZE PUSH1 0x0 PUSH1 0x20 DUP5 ADD RETURNDATACOPY PUSH2 0x1052 JUMP JUMPDEST PUSH1 0x60 SWAP2 POP JUMPDEST POP SWAP1 SWAP3 POP SWAP1 POP PUSH2 0x10F2 JUMP JUMPDEST DUP3 PUSH1 0x60 ADD MLOAD PUSH20 0xFFFFFFFFFFFFFFFFFFFFFFFFFFFFFFFFFFFFFFFF AND DUP4 PUSH1 0x80 ADD MLOAD DUP5 PUSH1 0x40 ADD MLOAD PUSH1 0x0 EQ PUSH2 0x1093 JUMPI DUP5 PUSH1 0x40 ADD MLOAD PUSH2 0x1095 JUMP JUMPDEST GAS JUMPDEST SWAP1 DUP6 PUSH1 0xA0 ADD MLOAD PUSH1 0x40 MLOAD PUSH2 0x10A8 SWAP2 SWAP1 PUSH2 0x26AE JUMP JUMPDEST PUSH1 0x0 PUSH1 0x40 MLOAD DUP1 DUP4 SUB DUP2 DUP6 DUP9 DUP9 CALL SWAP4 POP POP POP POP RETURNDATASIZE DUP1 PUSH1 0x0 DUP2 EQ PUSH2 0x10E6 JUMPI PUSH1 0x40 MLOAD SWAP2 POP PUSH1 0x1F NOT PUSH1 0x3F RETURNDATASIZE ADD AND DUP3 ADD PUSH1 0x40 MSTORE RETURNDATASIZE DUP3 MSTORE RETURNDATASIZE PUSH1 0x0 PUSH1 0x20 DUP5 ADD RETURNDATACOPY PUSH2 0x10EB JUMP JUMPDEST PUSH1 0x60 SWAP2 POP JUMPDEST POP SWAP1 SWAP3 POP SWAP1 POP JUMPDEST DUP2 ISZERO PUSH2 0x1113 JUMPI DUP6 PUSH1 0x40 MLOAD PUSH2 0x1106 SWAP2 SWAP1 PUSH2 0x26F6 JUMP JUMPDEST PUSH1 0x40 MLOAD DUP1 SWAP2 SUB SWAP1 LOG0 PUSH2 0x111E JUMP JUMPDEST PUSH2 0x111E DUP4 DUP8 DUP4 PUSH2 0x1CC8 JUMP JUMPDEST POP POP POP PUSH1 0x1 ADD PUSH2 0xF62 JUMP JUMPDEST POP POP POP JUMP JUMPDEST PUSH1 0x0 DUP1 PUSH2 0x113A DUP4 PUSH2 0x1D18 JUMP JUMPDEST SWAP2 POP SWAP2 POP PUSH1 0x0 PUSH2 0x1149 DUP4 PUSH2 0x9EB JUMP JUMPDEST SWAP1 POP DUP1 DUP3 EQ PUSH2 0x1184 JUMPI PUSH1 0x40 MLOAD PUSH32 0x8C379A000000000000000000000000000000000000000000000000000000000 DUP2 MSTORE PUSH1 0x4 ADD PUSH2 0x9D2 SWAP1 PUSH2 0x2745 JUMP JUMPDEST PUSH1 0x1 DUP3 ADD PUSH2 0x1192 DUP5 DUP3 PUSH2 0x1D31 JUMP JUMPDEST PUSH32 0x1F180C27086C7A39EA2A7B25239D1AB92348F07CA7BB59D1438FCF527568F881 DUP5 DUP3 PUSH1 0x40 MLOAD PUSH2 0x11C3 SWAP3 SWAP2 SWAP1 PUSH2 0x2896 JUMP JUMPDEST PUSH1 0x40 MLOAD DUP1 SWAP2 SUB SWAP1 LOG1 POP POP POP POP POP JUMP JUMPDEST PUSH1 0x0 PUSH32 0xFFFFFFFF00000000000000000000000000000000000000000000000000000000 DUP3 AND PUSH32 0xEC6ABA5000000000000000000000000000000000000000000000000000000000 EQ DUP1 PUSH2 0x1265 JUMPI POP PUSH32 0xFFFFFFFF00000000000000000000000000000000000000000000000000000000 DUP3 AND PUSH32 0x4E2312E000000000000000000000000000000000000000000000000000000000 EQ JUMPDEST DUP1 PUSH2 0x12B1 JUMPI POP PUSH32 0xFFFFFFFF00000000000000000000000000000000000000000000000000000000 DUP3 AND PUSH32 0x150B7A0200000000000000000000000000000000000000000000000000000000 EQ JUMPDEST DUP1 PUSH2 0x12FD JUMPI POP PUSH32 0xFFFFFFFF00000000000000000000000000000000000000000000000000000000 DUP3 AND PUSH32 0xC0EE0B8A00000000000000000000000000000000000000000000000000000000 EQ JUMPDEST ISZERO PUSH2 0x130A JUMPI POP PUSH1 0x1 PUSH2 0x481 JUMP JUMPDEST PUSH2 0x47E DUP3 PUSH2 0x1D5C JUMP JUMPDEST PUSH1 0x20 DUP2 ADD MLOAD DUP2 MLOAD PUSH1 0xF0 SWAP2 SWAP1 SWAP2 SHR SWAP1 PUSH1 0x2 SWAP1 DUP2 GT ISZERO PUSH2 0x137C JUMPI PUSH1 0x40 MLOAD PUSH32 0x8C379A000000000000000000000000000000000000000000000000000000000 DUP2 MSTORE PUSH1 0x4 ADD DUP1 DUP1 PUSH1 0x20 ADD DUP3 DUP2 SUB DUP3 MSTORE PUSH1 0x27 DUP2 MSTORE PUSH1 0x20 ADD DUP1 PUSH2 0x2A1D PUSH1 0x27 SWAP2 CODECOPY PUSH1 0x40 ADD SWAP2 POP POP PUSH1 0x40 MLOAD DUP1 SWAP2 SUB SWAP1 REVERT JUMPDEST SWAP2 POP SWAP2 JUMP JUMPDEST DUP1 DUP3 ADD PUSH1 0x20 ADD MLOAD PUSH1 0xF8 DUP2 SWAP1 SHR SWAP1 PUSH1 0xF0 SHR PUSH1 0xFF AND PUSH1 0x2 DUP4 ADD DUP4 DUP2 GT PUSH2 0x13A1 JUMPI INVALID JUMPDEST DUP5 MLOAD DUP2 GT ISZERO PUSH2 0x13FB JUMPI PUSH1 0x40 MLOAD PUSH32 0x8C379A000000000000000000000000000000000000000000000000000000000 DUP2 MSTORE PUSH1 0x4 ADD DUP1 DUP1 PUSH1 0x20 ADD DUP3 DUP2 SUB DUP3 MSTORE PUSH1 0x26 DUP2 MSTORE PUSH1 0x20 ADD DUP1 PUSH2 0x2BE6 PUSH1 0x26 SWAP2 CODECOPY PUSH1 0x40 ADD SWAP2 POP POP PUSH1 0x40 MLOAD DUP1 SWAP2 SUB SWAP1 REVERT JUMPDEST SWAP3 POP SWAP3 POP SWAP3 JUMP JUMPDEST DUP1 DUP3 ADD PUSH1 0x20 ADD MLOAD PUSH1 0x60 SHR PUSH1 0x14 DUP3 ADD DUP3 DUP2 GT PUSH2 0x1419 JUMPI INVALID JUMPDEST DUP4 MLOAD DUP2 GT ISZERO PUSH2 0x1473 JUMPI PUSH1 0x40 MLOAD PUSH32 0x8C379A000000000000000000000000000000000000000000000000000000000 DUP2 MSTORE PUSH1 0x4 ADD DUP1 DUP1 PUSH1 0x20 ADD DUP3 DUP2 SUB DUP3 MSTORE PUSH1 0x23 DUP2 MSTORE PUSH1 0x20 ADD DUP1 PUSH2 0x29FA PUSH1 0x23 SWAP2 CODECOPY PUSH1 0x40 ADD SWAP2 POP POP PUSH1 0x40 MLOAD DUP1 SWAP2 SUB SWAP1 REVERT JUMPDEST SWAP3 POP SWAP3 SWAP1 POP JUMP JUMPDEST PUSH1 0x40 DUP1 MLOAD PUSH1 0x42 DUP1 DUP3 MSTORE PUSH1 0x80 DUP3 ADD SWAP1 SWAP3 MSTORE PUSH1 0x60 SWAP2 PUSH1 0x0 SWAP2 SWAP1 PUSH1 0x20 DUP3 ADD DUP2 DUP1 CALLDATASIZE DUP4 CALLDATACOPY ADD SWAP1 POP POP SWAP2 POP DUP3 DUP5 ADD PUSH1 0x20 ADD DUP1 MLOAD PUSH1 0x20 DUP5 ADD MSTORE PUSH1 0x20 DUP2 ADD MLOAD PUSH1 0x40 DUP5 ADD MSTORE PUSH1 0x22 DUP2 ADD MLOAD PUSH1 0x42 DUP5 ADD MSTORE POP PUSH1 0x42 DUP4 ADD SWAP1 POP DUP3 DUP2 GT PUSH2 0x14D1 JUMPI INVALID JUMPDEST DUP4 MLOAD DUP2 GT ISZERO PUSH2 0x1473 JUMPI PUSH1 0x40 MLOAD PUSH32 0x8C379A000000000000000000000000000000000000000000000000000000000 DUP2 MSTORE PUSH1 0x4 ADD DUP1 DUP1 PUSH1 0x20 ADD DUP3 DUP2 SUB DUP3 MSTORE PUSH1 0x23 DUP2 MSTORE PUSH1 0x20 ADD DUP1 PUSH2 0x2B4E PUSH1 0x23 SWAP2 CODECOPY PUSH1 0x40 ADD SWAP2 POP POP PUSH1 0x40 MLOAD DUP1 SWAP2 SUB SWAP1 REVERT JUMPDEST PUSH1 0x0 DUP2 MLOAD PUSH1 0x42 EQ PUSH2 0x1587 JUMPI PUSH1 0x40 MLOAD PUSH32 0x8C379A000000000000000000000000000000000000000000000000000000000 DUP2 MSTORE PUSH1 0x4 ADD DUP1 DUP1 PUSH1 0x20 ADD DUP3 DUP2 SUB DUP3 MSTORE PUSH1 0x3A DUP2 MSTORE PUSH1 0x20 ADD DUP1 PUSH2 0x2932 PUSH1 0x3A SWAP2 CODECOPY PUSH1 0x40 ADD SWAP2 POP POP PUSH1 0x40 MLOAD DUP1 SWAP2 SUB SWAP1 REVERT JUMPDEST PUSH1 0x0 DUP3 PUSH1 0x1 DUP5 MLOAD SUB DUP2 MLOAD DUP2 LT PUSH2 0x1599 JUMPI INVALID JUMPDEST PUSH1 0x20 ADD ADD MLOAD PUSH1 0xF8 SHR PUSH1 0xF8 SHL PUSH1 0xF8 SHR PUSH1 0xFF AND SWAP1 POP PUSH1 0x0 DUP4 PUSH1 0x40 DUP2 MLOAD DUP2 LT PUSH2 0x15BB JUMPI INVALID JUMPDEST ADD PUSH1 0x20 ADD MLOAD PUSH1 0xF8 SHR SWAP1 POP PUSH1 0x0 PUSH2 0x15D1 DUP6 DUP3 PUSH2 0x1DB9 JUMP JUMPDEST SWAP1 POP PUSH1 0x0 PUSH2 0x15E0 DUP7 PUSH1 0x20 PUSH2 0x1DB9 JUMP JUMPDEST SWAP1 POP PUSH32 0x7FFFFFFFFFFFFFFFFFFFFFFFFFFFFFFF5D576E7357A4501DDFE92F46681B20A0 DUP2 GT ISZERO PUSH2 0x165B JUMPI PUSH1 0x40 MLOAD PUSH32 0x8C379A000000000000000000000000000000000000000000000000000000000 DUP2 MSTORE PUSH1 0x4 ADD DUP1 DUP1 PUSH1 0x20 ADD DUP3 DUP2 SUB DUP3 MSTORE PUSH1 0x3D DUP2 MSTORE PUSH1 0x20 ADD DUP1 PUSH2 0x28F5 PUSH1 0x3D SWAP2 CODECOPY PUSH1 0x40 ADD SWAP2 POP POP PUSH1 0x40 MLOAD DUP1 SWAP2 SUB SWAP1 REVERT JUMPDEST DUP3 PUSH1 0xFF AND PUSH1 0x1B EQ ISZERO DUP1 ISZERO PUSH2 0x1673 JUMPI POP DUP3 PUSH1 0xFF AND PUSH1 0x1C EQ ISZERO JUMPDEST ISZERO PUSH2 0x16C9 JUMPI PUSH1 0x40 MLOAD PUSH32 0x8C379A000000000000000000000000000000000000000000000000000000000 DUP2 MSTORE PUSH1 0x4 ADD DUP1 DUP1 PUSH1 0x20 ADD DUP3 DUP2 SUB DUP3 MSTORE PUSH1 0x3D DUP2 MSTORE PUSH1 0x20 ADD DUP1 PUSH2 0x2A44 PUSH1 0x3D SWAP2 CODECOPY PUSH1 0x40 ADD SWAP2 POP POP PUSH1 0x40 MLOAD DUP1 SWAP2 SUB SWAP1 REVERT JUMPDEST PUSH1 0x1 DUP5 EQ ISZERO PUSH2 0x173D JUMPI PUSH1 0x1 DUP8 DUP5 DUP5 DUP5 PUSH1 0x40 MLOAD PUSH1 0x0 DUP2 MSTORE PUSH1 0x20 ADD PUSH1 0x40 MSTORE PUSH1 0x40 MLOAD DUP1 DUP6 DUP2 MSTORE PUSH1 0x20 ADD DUP5 PUSH1 0xFF AND DUP2 MSTORE PUSH1 0x20 ADD DUP4 DUP2 MSTORE PUSH1 0x20 ADD DUP3 DUP2 MSTORE PUSH1 0x20 ADD SWAP5 POP POP POP POP POP PUSH1 0x20 PUSH1 0x40 MLOAD PUSH1 0x20 DUP2 SUB SWAP1 DUP1 DUP5 SUB SWAP1 DUP6 GAS STATICCALL ISZERO DUP1 ISZERO PUSH2 0x172C JUMPI RETURNDATASIZE PUSH1 0x0 DUP1 RETURNDATACOPY RETURNDATASIZE PUSH1 0x0 REVERT JUMPDEST POP POP POP PUSH1 0x20 PUSH1 0x40 MLOAD SUB MLOAD SWAP5 POP PUSH2 0x183F JUMP JUMPDEST PUSH1 0x2 DUP5 EQ ISZERO PUSH2 0x17EE JUMPI PUSH1 0x1 DUP8 PUSH1 0x40 MLOAD PUSH1 0x20 ADD DUP1 DUP1 PUSH32 0x19457468657265756D205369676E6564204D6573736167653A0A333200000000 DUP2 MSTORE POP PUSH1 0x1C ADD DUP3 DUP2 MSTORE PUSH1 0x20 ADD SWAP2 POP POP PUSH1 0x40 MLOAD PUSH1 0x20 DUP2 DUP4 SUB SUB DUP2 MSTORE SWAP1 PUSH1 0x40 MSTORE DUP1 MLOAD SWAP1 PUSH1 0x20 ADD KECCAK256 DUP5 DUP5 DUP5 PUSH1 0x40 MLOAD PUSH1 0x0 DUP2 MSTORE PUSH1 0x20 ADD PUSH1 0x40 MSTORE PUSH1 0x40 MLOAD DUP1 DUP6 DUP2 MSTORE PUSH1 0x20 ADD DUP5 PUSH1 0xFF AND DUP2 MSTORE PUSH1 0x20 ADD DUP4 DUP2 MSTORE PUSH1 0x20 ADD DUP3 DUP2 MSTORE PUSH1 0x20 ADD SWAP5 POP POP POP POP POP PUSH1 0x20 PUSH1 0x40 MLOAD PUSH1 0x20 DUP2 SUB SWAP1 DUP1 DUP5 SUB SWAP1 DUP6 GAS STATICCALL ISZERO DUP1 ISZERO PUSH2 0x172C JUMPI RETURNDATASIZE PUSH1 0x0 DUP1 RETURNDATACOPY RETURNDATASIZE PUSH1 0x0 REVERT JUMPDEST PUSH1 0x40 MLOAD PUSH32 0x8C379A000000000000000000000000000000000000000000000000000000000 DUP2 MSTORE PUSH1 0x4 ADD DUP1 DUP1 PUSH1 0x20 ADD DUP3 DUP2 SUB DUP3 MSTORE PUSH1 0x3C DUP2 MSTORE PUSH1 0x20 ADD DUP1 PUSH2 0x2BAA PUSH1 0x3C SWAP2 CODECOPY PUSH1 0x40 ADD SWAP2 POP POP PUSH1 0x40 MLOAD DUP1 SWAP2 SUB SWAP1 REVERT JUMPDEST PUSH20 0xFFFFFFFFFFFFFFFFFFFFFFFFFFFFFFFFFFFFFFFF DUP6 AND PUSH2 0x18AB JUMPI PUSH1 0x40 MLOAD PUSH32 0x8C379A000000000000000000000000000000000000000000000000000000000 DUP2 MSTORE PUSH1 0x4 ADD DUP1 DUP1 PUSH1 0x20 ADD DUP3 DUP2 SUB DUP3 MSTORE PUSH1 0x30 DUP2 MSTORE PUSH1 0x20 ADD DUP1 PUSH2 0x2A81 PUSH1 0x30 SWAP2 CODECOPY PUSH1 0x40 ADD SWAP2 POP POP PUSH1 0x40 MLOAD DUP1 SWAP2 SUB SWAP1 REVERT JUMPDEST POP POP POP POP SWAP3 SWAP2 POP POP JUMP JUMPDEST DUP1 DUP3 ADD PUSH1 0x20 ADD MLOAD PUSH1 0xF0 SHR PUSH1 0x2 DUP3 ADD DUP3 DUP2 GT PUSH2 0x18CC JUMPI INVALID JUMPDEST DUP4 MLOAD DUP2 GT ISZERO PUSH2 0x1473 JUMPI PUSH1 0x40 MLOAD PUSH32 0x8C379A000000000000000000000000000000000000000000000000000000000 DUP2 MSTORE PUSH1 0x4 ADD DUP1 DUP1 PUSH1 0x20 ADD DUP3 DUP2 SUB DUP3 MSTORE PUSH1 0x22 DUP2 MSTORE PUSH1 0x20 ADD DUP1 PUSH2 0x2C2D PUSH1 0x22 SWAP2 CODECOPY PUSH1 0x40 ADD SWAP2 POP POP PUSH1 0x40 MLOAD DUP1 SWAP2 SUB SWAP1 REVERT JUMPDEST PUSH1 0x60 PUSH1 0x0 DUP3 PUSH8 0xFFFFFFFFFFFFFFFF DUP2 GT DUP1 ISZERO PUSH2 0x1941 JUMPI PUSH1 0x0 DUP1 REVERT JUMPDEST POP PUSH1 0x40 MLOAD SWAP1 DUP1 DUP3 MSTORE DUP1 PUSH1 0x1F ADD PUSH1 0x1F NOT AND PUSH1 0x20 ADD DUP3 ADD PUSH1 0x40 MSTORE DUP1 ISZERO PUSH2 0x196C JUMPI PUSH1 0x20 DUP3 ADD DUP2 DUP1 CALLDATASIZE DUP4 CALLDATACOPY ADD SWAP1 POP JUMPDEST POP SWAP2 POP DUP4 DUP6 ADD PUSH1 0x20 ADD PUSH1 0x0 PUSH1 0x20 JUMPDEST DUP6 DUP2 LT ISZERO PUSH2 0x1993 JUMPI SWAP1 DUP3 ADD MLOAD DUP5 DUP3 ADD MSTORE PUSH1 0x20 DUP2 ADD PUSH2 0x197A JUMP JUMPDEST DUP5 DUP7 ADD PUSH1 0x20 ADD DUP1 MLOAD SWAP4 SWAP1 SWAP3 ADD MLOAD SWAP1 DUP6 ADD MSTORE MSTORE POP DUP3 DUP3 ADD DUP4 DUP2 LT ISZERO PUSH2 0x19B3 JUMPI INVALID JUMPDEST DUP5 MLOAD DUP2 GT ISZERO PUSH2 0x1A0D JUMPI PUSH1 0x40 MLOAD PUSH32 0x8C379A000000000000000000000000000000000000000000000000000000000 DUP2 MSTORE PUSH1 0x4 ADD DUP1 DUP1 PUSH1 0x20 ADD DUP3 DUP2 SUB DUP3 MSTORE PUSH1 0x21 DUP2 MSTORE PUSH1 0x20 ADD DUP1 PUSH2 0x2C0C PUSH1 0x21 SWAP2 CODECOPY PUSH1 0x40 ADD SWAP2 POP POP PUSH1 0x40 MLOAD DUP1 SWAP2 SUB SWAP1 REVERT JUMPDEST SWAP4 POP SWAP4 SWAP2 POP POP JUMP JUMPDEST PUSH1 0x0 DUP1 DUP3 PUSH1 0x1 DUP5 MLOAD SUB DUP2 MLOAD DUP2 LT PUSH2 0x1A28 JUMPI INVALID JUMPDEST ADD PUSH1 0x20 ADD MLOAD PUSH1 0xF8 SHR SWAP1 POP PUSH1 0x1 DUP2 EQ DUP1 PUSH2 0x1A41 JUMPI POP PUSH1 0x2 DUP2 EQ JUMPDEST ISZERO PUSH2 0x1A85 JUMPI DUP4 PUSH20 0xFFFFFFFFFFFFFFFFFFFFFFFFFFFFFFFFFFFFFFFF AND PUSH2 0x1A67 DUP7 DUP6 PUSH2 0x152B JUMP JUMPDEST PUSH20 0xFFFFFFFFFFFFFFFFFFFFFFFFFFFFFFFFFFFFFFFF AND EQ SWAP2 POP PUSH2 0x1C55 JUMP JUMPDEST PUSH1 0x3 DUP2 EQ ISZERO PUSH2 0x1C04 JUMPI DUP3 MLOAD PUSH32 0xFFFFFFFFFFFFFFFFFFFFFFFFFFFFFFFFFFFFFFFFFFFFFFFFFFFFFFFFFFFFFFFF DUP2 ADD DUP5 MSTORE PUSH1 0x40 DUP1 MLOAD PUSH32 0x1626BA7E00000000000000000000000000000000000000000000000000000000 DUP2 MSTORE PUSH1 0x4 DUP2 ADD DUP9 DUP2 MSTORE PUSH1 0x24 DUP3 ADD SWAP3 DUP4 MSTORE DUP7 MLOAD PUSH1 0x44 DUP4 ADD MSTORE DUP7 MLOAD PUSH20 0xFFFFFFFFFFFFFFFFFFFFFFFFFFFFFFFFFFFFFFFF DUP10 AND SWAP4 PUSH4 0x1626BA7E SWAP4 DUP12 SWAP4 DUP11 SWAP4 SWAP1 SWAP3 SWAP2 PUSH1 0x64 ADD SWAP1 PUSH1 0x20 DUP6 ADD SWAP1 DUP1 DUP4 DUP4 PUSH1 0x0 JUMPDEST DUP4 DUP2 LT ISZERO PUSH2 0x1B3F JUMPI DUP2 DUP2 ADD MLOAD DUP4 DUP3 ADD MSTORE PUSH1 0x20 ADD PUSH2 0x1B27 JUMP JUMPDEST POP POP POP POP SWAP1 POP SWAP1 DUP2 ADD SWAP1 PUSH1 0x1F AND DUP1 ISZERO PUSH2 0x1B6C JUMPI DUP1 DUP3 SUB DUP1 MLOAD PUSH1 0x1 DUP4 PUSH1 0x20 SUB PUSH2 0x100 EXP SUB NOT AND DUP2 MSTORE PUSH1 0x20 ADD SWAP2 POP JUMPDEST POP SWAP4 POP POP POP POP PUSH1 0x20 PUSH1 0x40 MLOAD DUP1 DUP4 SUB DUP2 DUP7 DUP1 EXTCODESIZE ISZERO DUP1 ISZERO PUSH2 0x1B8A JUMPI PUSH1 0x0 DUP1 REVERT JUMPDEST POP GAS STATICCALL ISZERO DUP1 ISZERO PUSH2 0x1B9E JUMPI RETURNDATASIZE PUSH1 0x0 DUP1 RETURNDATACOPY RETURNDATASIZE PUSH1 0x0 REVERT JUMPDEST POP POP POP POP PUSH1 0x40 MLOAD RETURNDATASIZE PUSH1 0x20 DUP2 LT ISZERO PUSH2 0x1BB4 JUMPI PUSH1 0x0 DUP1 REVERT JUMPDEST POP MLOAD SWAP1 DUP5 MSTORE PUSH32 0xFFFFFFFF00000000000000000000000000000000000000000000000000000000 AND PUSH32 0x1626BA7E00000000000000000000000000000000000000000000000000000000 EQ SWAP2 POP PUSH2 0x1C55 JUMP JUMPDEST PUSH1 0x40 MLOAD PUSH32 0x8C379A000000000000000000000000000000000000000000000000000000000 DUP2 MSTORE PUSH1 0x4 ADD DUP1 DUP1 PUSH1 0x20 ADD DUP3 DUP2 SUB DUP3 MSTORE PUSH1 0x3F DUP2 MSTORE PUSH1 0x20 ADD DUP1 PUSH2 0x2B0F PUSH1 0x3F SWAP2 CODECOPY PUSH1 0x40 ADD SWAP2 POP POP PUSH1 0x40 MLOAD DUP1 SWAP2 SUB SWAP1 REVERT JUMPDEST POP SWAP4 SWAP3 POP POP POP JUMP JUMPDEST PUSH1 0x0 DUP2 ISZERO DUP1 ISZERO SWAP1 PUSH2 0x47E JUMPI POP PUSH2 0x1C92 PUSH32 0xEA7157FA25E3AA17D0AE2D5280FA4E24D421C61842AA85E45194E1145AA72BF8 PUSH2 0xF5B JUMP JUMPDEST SWAP1 SWAP2 EQ SWAP2 SWAP1 POP JUMP JUMPDEST PUSH1 0x40 DUP1 MLOAD PUSH1 0x20 DUP1 DUP3 ADD SWAP6 SWAP1 SWAP6 MSTORE DUP1 DUP3 ADD SWAP4 SWAP1 SWAP4 MSTORE DUP1 MLOAD DUP1 DUP5 SUB DUP3 ADD DUP2 MSTORE PUSH1 0x60 SWAP1 SWAP4 ADD SWAP1 MSTORE DUP2 MLOAD SWAP2 SWAP1 SWAP3 ADD KECCAK256 SSTORE JUMP JUMPDEST DUP3 PUSH1 0x20 ADD MLOAD ISZERO PUSH2 0x1CDA JUMPI DUP1 MLOAD PUSH1 0x20 DUP3 ADD REVERT JUMPDEST PUSH32 0x3DBD1590EA96DD3253A91F24E64E3A502E1225D602A5731357BC12643070CCD7 DUP3 DUP3 PUSH1 0x40 MLOAD PUSH2 0x1D0B SWAP3 SWAP2 SWAP1 PUSH2 0x26FF JUMP JUMPDEST PUSH1 0x40 MLOAD DUP1 SWAP2 SUB SWAP1 LOG1 POP POP POP JUMP JUMPDEST PUSH1 0x60 DUP2 SWAP1 SHR SWAP2 PUSH12 0xFFFFFFFFFFFFFFFFFFFFFFFF SWAP1 SWAP2 AND SWAP1 JUMP JUMPDEST PUSH2 0x96B PUSH32 0x8D0BF1FD623D628C741362C1289948E57B3E2905218C676D3E69ABEE36D6AE2E DUP4 DUP4 PUSH2 0x1C9A JUMP JUMPDEST PUSH1 0x0 PUSH32 0xFFFFFFFF00000000000000000000000000000000000000000000000000000000 DUP3 AND PUSH32 0x25B22BC00000000000000000000000000000000000000000000000000000000 EQ ISZERO PUSH2 0x1DB0 JUMPI POP PUSH1 0x1 PUSH2 0x481 JUMP JUMPDEST PUSH2 0x47E DUP3 PUSH2 0x1E21 JUMP JUMPDEST PUSH1 0x0 DUP2 PUSH1 0x20 ADD DUP4 MLOAD LT ISZERO PUSH2 0x1E18 JUMPI PUSH1 0x40 MLOAD PUSH32 0x8C379A000000000000000000000000000000000000000000000000000000000 DUP2 MSTORE PUSH1 0x4 ADD DUP1 DUP1 PUSH1 0x20 ADD DUP3 DUP2 SUB DUP3 MSTORE PUSH1 0x3C DUP2 MSTORE PUSH1 0x20 ADD DUP1 PUSH2 0x2C4F PUSH1 0x3C SWAP2 CODECOPY PUSH1 0x40 ADD SWAP2 POP POP PUSH1 0x40 MLOAD DUP1 SWAP2 SUB SWAP1 REVERT JUMPDEST POP ADD PUSH1 0x20 ADD MLOAD SWAP1 JUMP JUMPDEST PUSH1 0x0 PUSH32 0xFFFFFFFF00000000000000000000000000000000000000000000000000000000 DUP3 AND PUSH32 0x389901C700000000000000000000000000000000000000000000000000000000 EQ ISZERO PUSH2 0x1E75 JUMPI POP PUSH1 0x1 PUSH2 0x481 JUMP JUMPDEST PUSH2 0x47E DUP3 PUSH1 0x0 PUSH32 0xFFFFFFFF00000000000000000000000000000000000000000000000000000000 DUP3 AND PUSH32 0x783649A600000000000000000000000000000000000000000000000000000000 EQ ISZERO PUSH2 0x1ECD JUMPI POP PUSH1 0x1 PUSH2 0x481 JUMP JUMPDEST PUSH2 0x47E DUP3 PUSH1 0x0 PUSH32 0xFFFFFFFF00000000000000000000000000000000000000000000000000000000 DUP3 AND ISZERO DUP1 PUSH2 0x1F43 JUMPI POP PUSH32 0xFFFFFFFF00000000000000000000000000000000000000000000000000000000 DUP3 AND PUSH32 0x36E7817500000000000000000000000000000000000000000000000000000000 EQ JUMPDEST ISZERO PUSH2 0x1F50 JUMPI POP PUSH1 0x1 PUSH2 0x481 JUMP JUMPDEST PUSH32 0x1FFC9A700000000000000000000000000000000000000000000000000000000 PUSH32 0xFFFFFFFF00000000000000000000000000000000000000000000000000000000 DUP4 AND EQ PUSH2 0x47E JUMP JUMPDEST DUP1 CALLDATALOAD PUSH20 0xFFFFFFFFFFFFFFFFFFFFFFFFFFFFFFFFFFFFFFFF DUP2 AND DUP2 EQ PUSH2 0x481 JUMPI PUSH1 0x0 DUP1 REVERT JUMPDEST PUSH1 0x0 DUP3 PUSH1 0x1F DUP4 ADD SLT PUSH2 0x1FCE JUMPI DUP1 DUP2 REVERT JUMPDEST DUP2 CALLDATALOAD PUSH1 0x20 PUSH8 0xFFFFFFFFFFFFFFFF DUP1 DUP4 GT ISZERO PUSH2 0x1FE5 JUMPI INVALID JUMPDEST PUSH2 0x1FF2 DUP3 DUP4 DUP6 MUL ADD PUSH2 0x28A4 JUMP JUMPDEST DUP4 DUP2 MSTORE DUP3 DUP2 ADD SWAP1 DUP7 DUP5 ADD DUP7 JUMPDEST DUP7 DUP2 LT ISZERO PUSH2 0x20CE JUMPI DUP2 CALLDATALOAD DUP10 ADD PUSH1 0xC0 DUP1 PUSH32 0xFFFFFFFFFFFFFFFFFFFFFFFFFFFFFFFFFFFFFFFFFFFFFFFFFFFFFFFFFFFFFFE0 DUP4 DUP15 SUB ADD SLT ISZERO PUSH2 0x203C JUMPI DUP10 DUP11 REVERT JUMPDEST PUSH1 0x40 DUP1 MLOAD DUP3 DUP2 ADD DUP2 DUP2 LT DUP11 DUP3 GT OR ISZERO PUSH2 0x2051 JUMPI INVALID JUMPDEST DUP3 MSTORE PUSH2 0x205E DUP5 DUP12 ADD PUSH2 0x211E JUMP JUMPDEST DUP2 MSTORE PUSH2 0x206B DUP3 DUP6 ADD PUSH2 0x211E JUMP JUMPDEST DUP11 DUP3 ADD MSTORE PUSH1 0x60 DUP1 DUP6 ADD CALLDATALOAD DUP4 DUP4 ADD MSTORE PUSH1 0x80 SWAP3 POP PUSH2 0x2088 DUP4 DUP7 ADD PUSH2 0x1F9A JUMP JUMPDEST SWAP1 DUP3 ADD MSTORE PUSH1 0xA0 DUP5 DUP2 ADD CALLDATALOAD DUP4 DUP4 ADD MSTORE SWAP3 DUP5 ADD CALLDATALOAD SWAP3 DUP10 DUP5 GT ISZERO PUSH2 0x20A7 JUMPI DUP13 DUP14 REVERT JUMPDEST PUSH2 0x20B5 DUP16 DUP13 DUP7 DUP9 ADD ADD PUSH2 0x219E JUMP JUMPDEST SWAP1 DUP3 ADD MSTORE DUP8 MSTORE POP POP POP SWAP3 DUP6 ADD SWAP3 SWAP1 DUP6 ADD SWAP1 PUSH1 0x1 ADD PUSH2 0x1FFE JUMP JUMPDEST POP SWAP1 SWAP9 SWAP8 POP POP POP POP POP POP POP POP JUMP JUMPDEST PUSH1 0x0 DUP1 DUP4 PUSH1 0x1F DUP5 ADD SLT PUSH2 0x20ED JUMPI DUP2 DUP3 REVERT JUMPDEST POP DUP2 CALLDATALOAD PUSH8 0xFFFFFFFFFFFFFFFF DUP2 GT ISZERO PUSH2 0x2104 JUMPI DUP2 DUP3 REVERT JUMPDEST PUSH1 0x20 DUP4 ADD SWAP2 POP DUP4 PUSH1 0x20 DUP1 DUP4 MUL DUP6 ADD ADD GT ISZERO PUSH2 0x1473 JUMPI PUSH1 0x0 DUP1 REVERT JUMPDEST DUP1 CALLDATALOAD DUP1 ISZERO ISZERO DUP2 EQ PUSH2 0x481 JUMPI PUSH1 0x0 DUP1 REVERT JUMPDEST DUP1 CALLDATALOAD PUSH32 0xFFFFFFFF00000000000000000000000000000000000000000000000000000000 DUP2 AND DUP2 EQ PUSH2 0x481 JUMPI PUSH1 0x0 DUP1 REVERT JUMPDEST PUSH1 0x0 DUP1 DUP4 PUSH1 0x1F DUP5 ADD SLT PUSH2 0x216F JUMPI DUP2 DUP3 REVERT JUMPDEST POP DUP2 CALLDATALOAD PUSH8 0xFFFFFFFFFFFFFFFF DUP2 GT ISZERO PUSH2 0x2186 JUMPI DUP2 DUP3 REVERT JUMPDEST PUSH1 0x20 DUP4 ADD SWAP2 POP DUP4 PUSH1 0x20 DUP3 DUP6 ADD ADD GT ISZERO PUSH2 0x1473 JUMPI PUSH1 0x0 DUP1 REVERT JUMPDEST PUSH1 0x0 DUP3 PUSH1 0x1F DUP4 ADD SLT PUSH2 0x21AE JUMPI DUP1 DUP2 REVERT JUMPDEST DUP2 CALLDATALOAD PUSH8 0xFFFFFFFFFFFFFFFF DUP2 GT ISZERO PUSH2 0x21C2 JUMPI INVALID JUMPDEST PUSH2 0x21F3 PUSH1 0x20 PUSH32 0xFFFFFFFFFFFFFFFFFFFFFFFFFFFFFFFFFFFFFFFFFFFFFFFFFFFFFFFFFFFFFFE0 PUSH1 0x1F DUP5 ADD AND ADD PUSH2 0x28A4 JUMP JUMPDEST DUP2 DUP2 MSTORE DUP5 PUSH1 0x20 DUP4 DUP7 ADD ADD GT ISZERO PUSH2 0x2207 JUMPI DUP3 DUP4 REVERT JUMPDEST DUP2 PUSH1 0x20 DUP6 ADD PUSH1 0x20 DUP4 ADD CALLDATACOPY SWAP1 DUP2 ADD PUSH1 0x20 ADD SWAP2 SWAP1 SWAP2 MSTORE SWAP3 SWAP2 POP POP JUMP JUMPDEST PUSH1 0x0 PUSH1 0x20 DUP3 DUP5 SUB SLT ISZERO PUSH2 0x2232 JUMPI DUP1 DUP2 REVERT JUMPDEST PUSH2 0x64E DUP3 PUSH2 0x1F9A JUMP JUMPDEST PUSH1 0x0 DUP1 PUSH1 0x0 DUP1 PUSH1 0x0 DUP1 PUSH1 0x0 DUP1 PUSH1 0xA0 DUP10 DUP12 SUB SLT ISZERO PUSH2 0x2256 JUMPI DUP4 DUP5 REVERT JUMPDEST PUSH2 0x225F DUP10 PUSH2 0x1F9A JUMP JUMPDEST SWAP8 POP PUSH2 0x226D PUSH1 0x20 DUP11 ADD PUSH2 0x1F9A JUMP JUMPDEST SWAP7 POP PUSH1 0x40 DUP10 ADD CALLDATALOAD PUSH8 0xFFFFFFFFFFFFFFFF DUP1 DUP3 GT ISZERO PUSH2 0x2289 JUMPI DUP6 DUP7 REVERT JUMPDEST PUSH2 0x2295 DUP13 DUP4 DUP14 ADD PUSH2 0x20DC JUMP JUMPDEST SWAP1 SWAP9 POP SWAP7 POP PUSH1 0x60 DUP12 ADD CALLDATALOAD SWAP2 POP DUP1 DUP3 GT ISZERO PUSH2 0x22AD JUMPI DUP6 DUP7 REVERT JUMPDEST PUSH2 0x22B9 DUP13 DUP4 DUP14 ADD PUSH2 0x20DC JUMP JUMPDEST SWAP1 SWAP7 POP SWAP5 POP PUSH1 0x80 DUP12 ADD CALLDATALOAD SWAP2 POP DUP1 DUP3 GT ISZERO PUSH2 0x22D1 JUMPI DUP4 DUP5 REVERT JUMPDEST POP PUSH2 0x22DE DUP12 DUP3 DUP13 ADD PUSH2 0x215E JUMP JUMPDEST SWAP10 SWAP13 SWAP9 SWAP12 POP SWAP7 SWAP10 POP SWAP5 SWAP8 SWAP4 SWAP7 SWAP3 SWAP6 SWAP5 POP POP POP JUMP JUMPDEST PUSH1 0x0 DUP1 PUSH1 0x0 DUP1 PUSH1 0x0 PUSH1 0x80 DUP7 DUP9 SUB SLT ISZERO PUSH2 0x2309 JUMPI DUP1 DUP2 REVERT JUMPDEST PUSH2 0x2312 DUP7 PUSH2 0x1F9A JUMP JUMPDEST SWAP5 POP PUSH2 0x2320 PUSH1 0x20 DUP8 ADD PUSH2 0x1F9A JUMP JUMPDEST SWAP4 POP PUSH1 0x40 DUP7 ADD CALLDATALOAD SWAP3 POP PUSH1 0x60 DUP7 ADD CALLDATALOAD PUSH8 0xFFFFFFFFFFFFFFFF DUP2 GT ISZERO PUSH2 0x2342 JUMPI DUP2 DUP3 REVERT JUMPDEST PUSH2 0x234E DUP9 DUP3 DUP10 ADD PUSH2 0x215E JUMP JUMPDEST SWAP7 SWAP10 SWAP6 SWAP9 POP SWAP4 SWAP7 POP SWAP3 SWAP5 SWAP4 SWAP3 POP POP POP JUMP JUMPDEST PUSH1 0x0 DUP1 PUSH1 0x0 DUP1 PUSH1 0x0 DUP1 PUSH1 0xA0 DUP8 DUP10 SUB SLT ISZERO PUSH2 0x2377 JUMPI DUP2 DUP3 REVERT JUMPDEST PUSH2 0x2380 DUP8 PUSH2 0x1F9A JUMP JUMPDEST SWAP6 POP PUSH2 0x238E PUSH1 0x20 DUP9 ADD PUSH2 0x1F9A JUMP JUMPDEST SWAP5 POP PUSH1 0x40 DUP8 ADD CALLDATALOAD SWAP4 POP PUSH1 0x60 DUP8 ADD CALLDATALOAD SWAP3 POP PUSH1 0x80 DUP8 ADD CALLDATALOAD PUSH8 0xFFFFFFFFFFFFFFFF DUP2 GT ISZERO PUSH2 0x23B7 JUMPI DUP3 DUP4 REVERT JUMPDEST PUSH2 0x23C3 DUP10 DUP3 DUP11 ADD PUSH2 0x215E JUMP JUMPDEST SWAP8 SWAP11 SWAP7 SWAP10 POP SWAP5 SWAP8 POP SWAP3 SWAP6 SWAP4 SWAP5 SWAP3 POP POP POP JUMP JUMPDEST PUSH1 0x0 PUSH1 0x20 DUP3 DUP5 SUB SLT ISZERO PUSH2 0x23E6 JUMPI DUP1 DUP2 REVERT JUMPDEST DUP2 CALLDATALOAD PUSH8 0xFFFFFFFFFFFFFFFF DUP2 GT ISZERO PUSH2 0x23FC JUMPI DUP2 DUP3 REVERT JUMPDEST PUSH2 0x6B2 DUP5 DUP3 DUP6 ADD PUSH2 0x1FBE JUMP JUMPDEST PUSH1 0x0 DUP1 PUSH1 0x0 PUSH1 0x60 DUP5 DUP7 SUB SLT ISZERO PUSH2 0x241C JUMPI DUP3 DUP4 REVERT JUMPDEST DUP4 CALLDATALOAD PUSH8 0xFFFFFFFFFFFFFFFF DUP1 DUP3 GT ISZERO PUSH2 0x2433 JUMPI DUP5 DUP6 REVERT JUMPDEST PUSH2 0x243F DUP8 DUP4 DUP9 ADD PUSH2 0x1FBE JUMP JUMPDEST SWAP5 POP PUSH1 0x20 DUP7 ADD CALLDATALOAD SWAP4 POP PUSH1 0x40 DUP7 ADD CALLDATALOAD SWAP2 POP DUP1 DUP3 GT ISZERO PUSH2 0x245B JUMPI DUP3 DUP4 REVERT JUMPDEST POP PUSH2 0x2468 DUP7 DUP3 DUP8 ADD PUSH2 0x219E JUMP JUMPDEST SWAP2 POP POP SWAP3 POP SWAP3 POP SWAP3 JUMP JUMPDEST PUSH1 0x0 PUSH1 0x20 DUP3 DUP5 SUB SLT ISZERO PUSH2 0x2483 JUMPI DUP1 DUP2 REVERT JUMPDEST POP CALLDATALOAD SWAP2 SWAP1 POP JUMP JUMPDEST PUSH1 0x0 DUP1 PUSH1 0x0 PUSH1 0x40 DUP5 DUP7 SUB SLT ISZERO PUSH2 0x249E JUMPI DUP3 DUP4 REVERT JUMPDEST DUP4 CALLDATALOAD SWAP3 POP PUSH1 0x20 DUP5 ADD CALLDATALOAD PUSH8 0xFFFFFFFFFFFFFFFF DUP2 GT ISZERO PUSH2 0x24BB JUMPI DUP3 DUP4 REVERT JUMPDEST PUSH2 0x24C7 DUP7 DUP3 DUP8 ADD PUSH2 0x215E JUMP JUMPDEST SWAP5 SWAP8 SWAP1 SWAP7 POP SWAP4 SWAP5 POP POP POP POP JUMP JUMPDEST PUSH1 0x0 PUSH1 0x20 DUP3 DUP5 SUB SLT ISZERO PUSH2 0x24E5 JUMPI DUP1 DUP2 REVERT JUMPDEST PUSH2 0x64E DUP3 PUSH2 0x212E JUMP JUMPDEST PUSH1 0x0 DUP1 PUSH1 0x40 DUP4 DUP6 SUB SLT ISZERO PUSH2 0x2500 JUMPI DUP2 DUP3 REVERT JUMPDEST PUSH2 0x2509 DUP4 PUSH2 0x212E JUMP JUMPDEST SWAP2 POP PUSH2 0x2517 PUSH1 0x20 DUP5 ADD PUSH2 0x1F9A JUMP JUMPDEST SWAP1 POP SWAP3 POP SWAP3 SWAP1 POP JUMP JUMPDEST PUSH1 0x0 DUP1 PUSH1 0x0 DUP1 PUSH1 0x40 DUP6 DUP8 SUB SLT ISZERO PUSH2 0x2535 JUMPI DUP2 DUP3 REVERT JUMPDEST DUP5 CALLDATALOAD PUSH8 0xFFFFFFFFFFFFFFFF DUP1 DUP3 GT ISZERO PUSH2 0x254C JUMPI DUP4 DUP5 REVERT JUMPDEST PUSH2 0x2558 DUP9 DUP4 DUP10 ADD PUSH2 0x215E JUMP JUMPDEST SWAP1 SWAP7 POP SWAP5 POP PUSH1 0x20 DUP8 ADD CALLDATALOAD SWAP2 POP DUP1 DUP3 GT ISZERO PUSH2 0x2570 JUMPI DUP4 DUP5 REVERT JUMPDEST POP PUSH2 0x257D DUP8 DUP3 DUP9 ADD PUSH2 0x215E JUMP JUMPDEST SWAP6 SWAP9 SWAP5 SWAP8 POP SWAP6 POP POP POP POP JUMP JUMPDEST PUSH1 0x0 PUSH1 0x20 DUP3 DUP5 SUB SLT ISZERO PUSH2 0x259A JUMPI DUP1 DUP2 REVERT JUMPDEST DUP2 CALLDATALOAD PUSH8 0xFFFFFFFFFFFFFFFF DUP2 GT ISZERO PUSH2 0x25B0 JUMPI DUP2 DUP3 REVERT JUMPDEST PUSH2 0x6B2 DUP5 DUP3 DUP6 ADD PUSH2 0x219E JUMP JUMPDEST PUSH1 0x0 DUP2 MLOAD DUP1 DUP5 MSTORE PUSH1 0x20 DUP1 DUP6 ADD SWAP5 POP DUP5 DUP2 DUP4 MUL DUP7 ADD DUP3 DUP7 ADD DUP6 JUMPDEST DUP6 DUP2 LT ISZERO PUSH2 0x2657 JUMPI DUP4 DUP4 SUB DUP10 MSTORE DUP2 MLOAD DUP1 MLOAD ISZERO ISZERO DUP5 MSTORE DUP6 DUP2 ADD MLOAD ISZERO ISZERO DUP7 DUP6 ADD MSTORE PUSH1 0x40 DUP1 DUP3 ADD MLOAD SWAP1 DUP6 ADD MSTORE PUSH1 0x60 DUP1 DUP3 ADD MLOAD PUSH20 0xFFFFFFFFFFFFFFFFFFFFFFFFFFFFFFFFFFFFFFFF AND SWAP1 DUP6 ADD MSTORE PUSH1 0x80 DUP1 DUP3 ADD MLOAD SWAP1 DUP6 ADD MSTORE PUSH1 0xA0 SWAP1 DUP2 ADD MLOAD PUSH1 0xC0 SWAP2 DUP6 ADD DUP3 SWAP1 MSTORE SWAP1 PUSH2 0x2643 DUP2 DUP7 ADD DUP4 PUSH2 0x2664 JUMP JUMPDEST SWAP11 DUP8 ADD SWAP11 SWAP5 POP POP POP SWAP1 DUP5 ADD SWAP1 PUSH1 0x1 ADD PUSH2 0x25D5 JUMP JUMPDEST POP SWAP1 SWAP8 SWAP7 POP POP POP POP POP POP POP JUMP JUMPDEST PUSH1 0x0 DUP2 MLOAD DUP1 DUP5 MSTORE PUSH2 0x267C DUP2 PUSH1 0x20 DUP7 ADD PUSH1 0x20 DUP7 ADD PUSH2 0x28C8 JUMP JUMPDEST PUSH1 0x1F ADD PUSH32 0xFFFFFFFFFFFFFFFFFFFFFFFFFFFFFFFFFFFFFFFFFFFFFFFFFFFFFFFFFFFFFFE0 AND SWAP3 SWAP1 SWAP3 ADD PUSH1 0x20 ADD SWAP3 SWAP2 POP POP JUMP JUMPDEST PUSH1 0x0 DUP3 MLOAD PUSH2 0x26C0 DUP2 DUP5 PUSH1 0x20 DUP8 ADD PUSH2 0x28C8 JUMP JUMPDEST SWAP2 SWAP1 SWAP2 ADD SWAP3 SWAP2 POP POP JUMP JUMPDEST PUSH20 0xFFFFFFFFFFFFFFFFFFFFFFFFFFFFFFFFFFFFFFFF SWAP2 SWAP1 SWAP2 AND DUP2 MSTORE PUSH1 0x20 ADD SWAP1 JUMP JUMPDEST SWAP1 ISZERO ISZERO DUP2 MSTORE PUSH1 0x20 ADD SWAP1 JUMP JUMPDEST SWAP1 DUP2 MSTORE PUSH1 0x20 ADD SWAP1 JUMP JUMPDEST PUSH1 0x0 DUP4 DUP3 MSTORE PUSH1 0x40 PUSH1 0x20 DUP4 ADD MSTORE PUSH2 0x6B2 PUSH1 0x40 DUP4 ADD DUP5 PUSH2 0x2664 JUMP JUMPDEST PUSH32 0xFFFFFFFF00000000000000000000000000000000000000000000000000000000 SWAP2 SWAP1 SWAP2 AND DUP2 MSTORE PUSH1 0x20 ADD SWAP1 JUMP JUMPDEST PUSH1 0x20 DUP1 DUP3 MSTORE PUSH1 0x1F SWAP1 DUP3 ADD MSTORE PUSH32 0x4D61696E4D6F64756C65235F617574683A20494E56414C49445F4E4F4E434500 PUSH1 0x40 DUP3 ADD MSTORE PUSH1 0x60 ADD SWAP1 JUMP JUMPDEST PUSH1 0x20 DUP1 DUP3 MSTORE PUSH1 0x24 SWAP1 DUP3 ADD MSTORE PUSH32 0x4D6F64756C6543616C6C73235F657865637574653A204E4F545F454E4F554748 PUSH1 0x40 DUP3 ADD MSTORE PUSH32 0x5F47415300000000000000000000000000000000000000000000000000000000 PUSH1 0x60 DUP3 ADD MSTORE PUSH1 0x80 ADD SWAP1 JUMP JUMPDEST PUSH1 0x20 DUP1 DUP3 MSTORE PUSH1 0x26 SWAP1 DUP3 ADD MSTORE PUSH32 0x4D6F64756C6543616C6C7323657865637574653A20494E56414C49445F534947 PUSH1 0x40 DUP3 ADD MSTORE PUSH32 0x4E41545552450000000000000000000000000000000000000000000000000000 PUSH1 0x60 DUP3 ADD MSTORE PUSH1 0x80 ADD SWAP1 JUMP JUMPDEST PUSH1 0x0 PUSH1 0x40 DUP3 MSTORE PUSH1 0x5 PUSH1 0x40 DUP4 ADD MSTORE PUSH32 0x73656C663A000000000000000000000000000000000000000000000000000000 PUSH1 0x60 DUP4 ADD MSTORE PUSH1 0x80 PUSH1 0x20 DUP4 ADD MSTORE PUSH2 0x64E PUSH1 0x80 DUP4 ADD DUP5 PUSH2 0x25BC JUMP JUMPDEST PUSH1 0x0 DUP4 DUP3 MSTORE PUSH1 0x40 PUSH1 0x20 DUP4 ADD MSTORE PUSH2 0x6B2 PUSH1 0x40 DUP4 ADD DUP5 PUSH2 0x25BC JUMP JUMPDEST SWAP2 DUP3 MSTORE PUSH1 0x20 DUP3 ADD MSTORE PUSH1 0x40 ADD SWAP1 JUMP JUMPDEST PUSH1 0x40 MLOAD DUP2 DUP2 ADD PUSH8 0xFFFFFFFFFFFFFFFF DUP2 GT DUP3 DUP3 LT OR ISZERO PUSH2 0x28C0 JUMPI INVALID JUMPDEST PUSH1 0x40 MSTORE SWAP2 SWAP1 POP JUMP JUMPDEST PUSH1 0x0 JUMPDEST DUP4 DUP2 LT ISZERO PUSH2 0x28E3 JUMPI DUP2 DUP2 ADD MLOAD DUP4 DUP3 ADD MSTORE PUSH1 0x20 ADD PUSH2 0x28CB JUMP JUMPDEST DUP4 DUP2 GT ISZERO PUSH2 0x9E5 JUMPI POP POP PUSH1 0x0 SWAP2 ADD MSTORE JUMP INVALID MSTORE8 PUSH10 0x676E617475726556616C PUSH10 0x6461746F72237265636F PUSH23 0x65725369676E65723A20696E76616C6964207369676E61 PUSH21 0x757265202773272076616C75655369676E61747572 PUSH6 0x56616C696461 PUSH21 0x6F72237265636F7665725369676E65723A20696E76 PUSH2 0x6C69 PUSH5 0x207369676E PUSH2 0x7475 PUSH19 0x65206C656E6774684D6F64756C654175746823 0x5F PUSH20 0x69676E617475726556616C69646174696F6E2049 0x4E JUMP COINBASE 0x4C 0x49 DIFFICULTY 0x5F CHAINID 0x4C COINBASE SELFBALANCE 0x4D PUSH16 0x64756C65417574685570677261646162 PUSH13 0x6523757064617465496D616765 0x48 PUSH2 0x7368 KECCAK256 0x49 0x4E JUMP COINBASE 0x4C 0x49 DIFFICULTY 0x5F 0x49 0x4D COINBASE SELFBALANCE GASLIMIT 0x5F 0x48 COINBASE MSTORE8 0x48 0x4D PUSH16 0x64756C65486F6F6B732372656D6F7665 0x48 PUSH16 0x6F6B3A20484F4F4B5F4E4F545F524547 0x49 MSTORE8 SLOAD GASLIMIT MSTORE GASLIMIT DIFFICULTY 0x4C PUSH10 0x62427974657323726561 PUSH5 0x4164647265 PUSH20 0x733A204F55545F4F465F424F554E44534C696242 PUSH26 0x7465732372656164466972737455696E7431363A204F55545F4F CHAINID 0x5F TIMESTAMP 0x4F SSTORE 0x4E DIFFICULTY MSTORE8 MSTORE8 PUSH10 0x676E617475726556616C PUSH10 0x6461746F72237265636F PUSH23 0x65725369676E65723A20696E76616C6964207369676E61 PUSH21 0x757265202776272076616C75655369676E61747572 PUSH6 0x56616C696461 PUSH21 0x6F72237265636F7665725369676E65723A20494E56 COINBASE 0x4C 0x49 DIFFICULTY 0x5F MSTORE8 0x49 SELFBALANCE 0x4E GASLIMIT MSTORE 0x4D PUSH16 0x64756C6541757468235F7369676E6174 PUSH22 0x726556616C69646174696F6E3A20494E56414C49445F MSTORE8 0x49 SELFBALANCE 0x4E COINBASE SLOAD SSTORE MSTORE GASLIMIT 0x4D PUSH16 0x64756C65486F6F6B7323616464486F6F PUSH12 0x3A20484F4F4B5F414C524541 DIFFICULTY MSIZE 0x5F MSTORE GASLIMIT SELFBALANCE 0x49 MSTORE8 SLOAD GASLIMIT MSTORE GASLIMIT DIFFICULTY MSTORE8 PUSH10 0x676E617475726556616C PUSH10 0x6461746F722369735661 PUSH13 0x69645369676E61747572653A20 SSTORE 0x4E MSTORE8 SSTORE POP POP 0x4F MSTORE SLOAD GASLIMIT DIFFICULTY 0x5F MSTORE8 0x49 SELFBALANCE 0x4E COINBASE SLOAD SSTORE MSTORE GASLIMIT 0x5F SLOAD MSIZE POP GASLIMIT 0x4C PUSH10 0x62427974657323726561 PUSH5 0x4279746573 CALLDATASIZE CALLDATASIZE GASPRICE KECCAK256 0x4F SSTORE SLOAD 0x5F 0x4F CHAINID 0x5F TIMESTAMP 0x4F SSTORE 0x4E DIFFICULTY MSTORE8 0x4D PUSH16 0x64756C65557064617465237570646174 PUSH6 0x496D706C656D PUSH6 0x6E746174696F PUSH15 0x3A20494E56414C49445F494D504C45 0x4D GASLIMIT 0x4E SLOAD COINBASE SLOAD 0x49 0x4F 0x4E MSTORE8 PUSH10 0x676E617475726556616C PUSH10 0x6461746F72237265636F PUSH23 0x65725369676E65723A20554E535550504F525445445F53 0x49 SELFBALANCE 0x4E COINBASE SLOAD SSTORE MSTORE GASLIMIT 0x5F SLOAD MSIZE POP GASLIMIT 0x4C PUSH10 0x62427974657323726561 PUSH5 0x55696E7438 SSTORE PUSH10 0x6E74383A204F55545F4F CHAINID 0x5F TIMESTAMP 0x4F SSTORE 0x4E DIFFICULTY MSTORE8 0x4C PUSH10 0x62427974657323726561 PUSH5 0x4279746573 GASPRICE KECCAK256 0x4F SSTORE SLOAD 0x5F 0x4F CHAINID 0x5F TIMESTAMP 0x4F SSTORE 0x4E DIFFICULTY MSTORE8 0x4C PUSH10 0x62427974657323726561 PUSH5 0x55696E7431 CALLDATASIZE GASPRICE KECCAK256 0x4F SSTORE SLOAD 0x5F 0x4F CHAINID 0x5F TIMESTAMP 0x4F SSTORE 0x4E DIFFICULTY MSTORE8 0x4C PUSH10 0x62427974657323726561 PUSH5 0x4279746573 CALLER ORIGIN GASPRICE KECCAK256 SELFBALANCE MSTORE GASLIMIT COINBASE SLOAD GASLIMIT MSTORE 0x5F 0x4F MSTORE 0x5F GASLIMIT MLOAD SSTORE COINBASE 0x4C 0x5F SLOAD 0x4F 0x5F CALLER ORIGIN 0x5F 0x4C GASLIMIT 0x4E SELFBALANCE SLOAD 0x48 0x5F MSTORE GASLIMIT MLOAD SSTORE 0x49 MSTORE GASLIMIT DIFFICULTY 0x4D PUSH16 0x64756C6553656C6641757468236F6E6C PUSH26 0x53656C663A204E4F545F415554484F52495A4544A26469706673 PC 0x22 SLT KECCAK256 0xAE 0xBB DUP14 SWAP4 0x1E 0xF8 PUSH6 0x55B6441C416B KECCAK256 DUP12 0xB9 INVALID DUP16 0xE0 SWAP8 0x4C JUMPI CALLER 0xEB 0xBC 0xCC 0xE5 0x48 0x29 PUSH13 0x37CE64736F6C63430007060033 "
				}
			}
		}
	}
}