{"src/autoRecovery/Allowlist.sol":{"Allowlist":{"abi":[{"type":"constructor","inputs":[{"name":"owner_","type":"address","internalType":"address"},{"name":"initial","type":"address[]","internalType":"address[]"}],"stateMutability":"nonpayable"},{"type":"function","name":"add","inputs":[{"name":"addr","type":"address","internalType":"address"}],"outputs":[],"stateMutability":"nonpayable"},{"type":"function","name":"add","inputs":[{"name":"addrs","type":"address[]","internalType":"address[]"}],"outputs":[],"stateMutability":"nonpayable"},{"type":"function","name":"getAllowed","inputs":[],"outputs":[{"name":"","type":"address[]","internalType":"address[]"}],"stateMutability":"view"},{"type":"function","name":"isAllowed","inputs":[{"name":"addr","type":"address","internalType":"address"}],"outputs":[{"name":"","type":"bool","internalType":"bool"}],"stateMutability":"view"},{"type":"function","name":"owner","inputs":[],"outputs":[{"name":"","type":"address","internalType":"address"}],"stateMutability":"view"},{"type":"function","name":"remove","inputs":[{"name":"addrs","type":"address[]","internalType":"address[]"}],"outputs":[],"stateMutability":"nonpayable"},{"type":"function","name":"remove","inputs":[{"name":"addr","type":"address","internalType":"address"},{"name":"index","type":"uint256","internalType":"uint256"}],"outputs":[],"stateMutability":"nonpayable"},{"type":"function","name":"renounceOwnership","inputs":[],"outputs":[],"stateMutability":"nonpayable"},{"type":"function","name":"transferOwnership","inputs":[{"name":"newOwner","type":"address","internalType":"address"}],"outputs":[],"stateMutability":"nonpayable"},{"type":"event","name":"AddressAdded","inputs":[{"name":"addr","type":"address","indexed":true,"internalType":"address"}],"anonymous":false},{"type":"event","name":"AddressRemoved","inputs":[{"name":"addr","type":"address","indexed":true,"internalType":"address"}],"anonymous":false},{"type":"event","name":"OwnershipTransferred","inputs":[{"name":"previousOwner","type":"address","indexed":true,"internalType":"address"},{"name":"newOwner","type":"address","indexed":true,"internalType":"address"}],"anonymous":false},{"type":"error","name":"AlreadyAllowed","inputs":[{"name":"addr","type":"address","internalType":"address"}]},{"type":"error","name":"IndexMismatch","inputs":[{"name":"index","type":"uint256","internalType":"uint256"},{"name":"expected","type":"address","internalType":"address"},{"name":"actual","type":"address","internalType":"address"}]},{"type":"error","name":"NotAllowed","inputs":[{"name":"addr","type":"address","internalType":"address"}]},{"type":"error","name":"OwnableInvalidOwner","inputs":[{"name":"owner","type":"address","internalType":"address"}]},{"type":"error","name":"OwnableUnauthorizedAccount","inputs":[{"name":"account","type":"address","internalType":"address"}]},{"type":"error","name":"ZeroAddress","inputs":[]}],"userdoc":{},"devdoc":{},"evm":{"bytecode":{"object":"60806040523461022157610ecb8038038061001981610225565b928339810190604081830312610221576100328161024a565b602082015190916001600160401b03821161022157019180601f84011215610221578251926001600160401b0384116101b1578360051b90602080610078818501610225565b80978152019282010192831161022157602001905b828210610209575050506001600160a01b031680156101f6575f80546001600160a01b03198116831782556001600160a01b0316907f8be0079c531659141344cd1fd0a4f28419497f9722a3daafe3b4186f6b6457e09080a35f5b81518110156101e757600581901b8201602001516001600160a01b03169081156101d857815f52600160205260ff60405f2054166101c557815f52600160205260405f20600160ff1982541617905560025491680100000000000000008310156101b157600183018060025583101561019d5760025f527f405787fa12a823e0f2b7631cc41b3ba8828b3321ca811111fa75cd3aa3bb5ace90920180546001600160a01b0319169092179091556001016100e8565b634e487b7160e01b5f52603260045260245ffd5b634e487b7160e01b5f52604160045260245ffd5b50630e8a494160e01b5f5260045260245ffd5b63d92e233d60e01b5f5260045ffd5b604051610c6c908161025f8239f35b631e4fbdf760e01b5f525f60045260245ffd5b602080916102168461024a565b81520191019061008d565b5f80fd5b6040519190601f01601f191682016001600160401b038111838210176101b157604052565b51906001600160a01b03821682036102215756fe6080806040526004361015610012575f80fd5b5f3560e01c90816303fced0c146107c4575080630a3b0a4f146107805780635e4ba17c146105ec578063715018a6146105525780638da5cb5b14610502578063abe7f1ab1461021c578063babcc539146101b4578063c4c1c94f1461016f5763f2fde38b1461007f575f80fd5b3461016b5760207ffffffffffffffffffffffffffffffffffffffffffffffffffffffffffffffffc36011261016b5773ffffffffffffffffffffffffffffffffffffffff6100cb610922565b6100d3610a15565b16801561013f5773ffffffffffffffffffffffffffffffffffffffff5f54827fffffffffffffffffffffffff00000000000000000000000000000000000000008216175f55167f8be0079c531659141344cd1fd0a4f28419497f9722a3daafe3b4186f6b6457e05f80a3005b7f1e4fbdf7000000000000000000000000000000000000000000000000000000005f525f60045260245ffd5b5f80fd5b3461016b5761017d36610945565b610185610a15565b5f5b81811061019057005b806101ae6101a96101a460019486886109b7565b6109f4565b610a79565b01610187565b3461016b5760207ffffffffffffffffffffffffffffffffffffffffffffffffffffffffffffffffc36011261016b5773ffffffffffffffffffffffffffffffffffffffff610200610922565b165f526001602052602060ff60405f2054166040519015158152f35b3461016b5760407ffffffffffffffffffffffffffffffffffffffffffffffffffffffffffffffffc36011261016b57610253610922565b73ffffffffffffffffffffffffffffffffffffffff60243591610274610a15565b1690815f52600160205260ff60405f205416156104d6575f82815260016020526040902080547fffffffffffffffffffffffffffffffffffffffffffffffffffffffffffffff001690558015610430578173ffffffffffffffffffffffffffffffffffffffff6102e383610a61565b90549060031b1c16036103d757600254907fffffffffffffffffffffffffffffffffffffffffffffffffffffffffffffffff82019182116103aa5761035073ffffffffffffffffffffffffffffffffffffffff61034261037c94610a61565b90549060031b1c1691610a61565b90919073ffffffffffffffffffffffffffffffffffffffff8084549260031b9316831b921b1916179055565b610384610b82565b7f24a12366c02e13fe4a9e03d86a8952e85bb74a456c16e4a18b6d8295700b74bb5f80a2005b7f4e487b71000000000000000000000000000000000000000000000000000000005f52601160045260245ffd5b9073ffffffffffffffffffffffffffffffffffffffff6103f683610a61565b90549060031b1c16917fbf2671c2000000000000000000000000000000000000000000000000000000005f5260045260245260445260645ffd5b506002545f5b818110610445575b5050610384565b8273ffffffffffffffffffffffffffffffffffffffff61046483610a61565b90549060031b1c161461047957600101610436565b7fffffffffffffffffffffffffffffffffffffffffffffffffffffffffffffffff82019182116103aa5761035073ffffffffffffffffffffffffffffffffffffffff6103426104c794610a61565b6104cf610b82565b818061043e565b507ffa5cd00f000000000000000000000000000000000000000000000000000000005f5260045260245ffd5b3461016b575f7ffffffffffffffffffffffffffffffffffffffffffffffffffffffffffffffffc36011261016b57602073ffffffffffffffffffffffffffffffffffffffff5f5416604051908152f35b3461016b575f7ffffffffffffffffffffffffffffffffffffffffffffffffffffffffffffffffc36011261016b57610588610a15565b5f73ffffffffffffffffffffffffffffffffffffffff81547fffffffffffffffffffffffff000000000000000000000000000000000000000081168355167f8be0079c531659141344cd1fd0a4f28419497f9722a3daafe3b4186f6b6457e08280a3005b3461016b576105fa36610945565b90610603610a15565b5f915b80831061060f57005b73ffffffffffffffffffffffffffffffffffffffff6106326101a48584866109b7565b1692835f52600160205260ff60405f2054161561075457835f52600160205260405f207fffffffffffffffffffffffffffffffffffffffffffffffffffffffffffffff008154169055600254935f5b8581106106bc575b506001929394507f24a12366c02e13fe4a9e03d86a8952e85bb74a456c16e4a18b6d8295700b74bb5f80a2019190610606565b8173ffffffffffffffffffffffffffffffffffffffff6106db83610a61565b90549060031b1c16146106f057600101610681565b9293947fffffffffffffffffffffffffffffffffffffffffffffffffffffffffffffffff81019081116103aa5760019361035073ffffffffffffffffffffffffffffffffffffffff61034261074494610a61565b61074c610b82565b849392610689565b837ffa5cd00f000000000000000000000000000000000000000000000000000000005f5260045260245ffd5b3461016b5760207ffffffffffffffffffffffffffffffffffffffffffffffffffffffffffffffffc36011261016b576107c26107ba610922565b6101a9610a15565b005b3461016b575f7ffffffffffffffffffffffffffffffffffffffffffffffffffffffffffffffffc36011261016b576002548082528160208101809260025f527f405787fa12a823e0f2b7631cc41b3ba8828b3321ca811111fa75cd3aa3bb5ace905f5b8181106108f35750505003601f017fffffffffffffffffffffffffffffffffffffffffffffffffffffffffffffffe01682019167ffffffffffffffff8311818410176108c65790829182604052602083019060208452518091526040830191905f5b818110610897575050500390f35b825173ffffffffffffffffffffffffffffffffffffffff16845285945060209384019390920191600101610889565b7f4e487b71000000000000000000000000000000000000000000000000000000005f52604160045260245ffd5b825473ffffffffffffffffffffffffffffffffffffffff16845286945060209093019260019283019201610827565b6004359073ffffffffffffffffffffffffffffffffffffffff8216820361016b57565b9060207ffffffffffffffffffffffffffffffffffffffffffffffffffffffffffffffffc83011261016b5760043567ffffffffffffffff811161016b578260238201121561016b5780600401359267ffffffffffffffff841161016b5760248460051b8301011161016b576024019190565b91908110156109c75760051b0190565b7f4e487b71000000000000000000000000000000000000000000000000000000005f52603260045260245ffd5b3573ffffffffffffffffffffffffffffffffffffffff8116810361016b5790565b73ffffffffffffffffffffffffffffffffffffffff5f54163303610a3557565b7f118cdaa7000000000000000000000000000000000000000000000000000000005f523360045260245ffd5b6002548110156109c75760025f5260205f2001905f90565b73ffffffffffffffffffffffffffffffffffffffff8116908115610b5a57815f52600160205260ff60405f205416610b2e57815f52600160205260405f2060017fffffffffffffffffffffffffffffffffffffffffffffffffffffffffffffff0082541617905560025490680100000000000000008210156108c657610350826001610b089401600255610a61565b7fa226db3f664042183ee0281230bba26cbf7b5057e50aee7f25a175ff45ce4d7f5f80a2565b507f0e8a4941000000000000000000000000000000000000000000000000000000005f5260045260245ffd5b7fd92e233d000000000000000000000000000000000000000000000000000000005f5260045ffd5b6002548015610c09577fffffffffffffffffffffffffffffffffffffffffffffffffffffffffffffffff016002548110156109c75760025f8190527f405787fa12a823e0f2b7631cc41b3ba8828b3321ca811111fa75cd3aa3bb5ace820180547fffffffffffffffffffffffff000000000000000000000000000000000000000016905555565b7f4e487b71000000000000000000000000000000000000000000000000000000005f52603160045260245ffdfea2646970667358221220a9e222167cb59711950c66d58afe2c6ae7efa41b0665558f1fa253465dd4ec4364736f6c634300081e0033","linkReferences":{}},"methodIdentifiers":{"add(address)":"0a3b0a4f","add(address[])":"c4c1c94f","getAllowed()":"03fced0c","isAllowed(address)":"babcc539","owner()":"8da5cb5b","remove(address,uint256)":"abe7f1ab","remove(address[])":"5e4ba17c","renounceOwnership()":"715018a6","transferOwnership(address)":"f2fde38b"}}}}}