{"src/autoRecovery/TimedRefundSapient.sol":{"TimedRefundSapient":{"abi":[{"type":"constructor","inputs":[{"name":"allowlist_","type":"address","internalType":"contract Allowlist"}],"stateMutability":"nonpayable"},{"type":"function","name":"TIMED_REFUND_NONCE_SPACE","inputs":[],"outputs":[{"name":"","type":"uint256","internalType":"uint256"}],"stateMutability":"view"},{"type":"function","name":"allowlist","inputs":[],"outputs":[{"name":"","type":"address","internalType":"contract Allowlist"}],"stateMutability":"view"},{"type":"function","name":"hasERC20Metadata","inputs":[{"name":"token","type":"address","internalType":"address"}],"outputs":[{"name":"","type":"bool","internalType":"bool"}],"stateMutability":"view"},{"type":"function","name":"recoverSapientSignature","inputs":[{"name":"payload","type":"tuple","internalType":"struct Payload.Decoded","components":[{"name":"kind","type":"uint8","internalType":"uint8"},{"name":"noChainId","type":"bool","internalType":"bool"},{"name":"calls","type":"tuple[]","internalType":"struct Payload.Call[]","components":[{"name":"to","type":"address","internalType":"address"},{"name":"value","type":"uint256","internalType":"uint256"},{"name":"data","type":"bytes","internalType":"bytes"},{"name":"gasLimit","type":"uint256","internalType":"uint256"},{"name":"delegateCall","type":"bool","internalType":"bool"},{"name":"onlyFallback","type":"bool","internalType":"bool"},{"name":"behaviorOnError","type":"uint256","internalType":"uint256"}]},{"name":"space","type":"uint256","internalType":"uint256"},{"name":"nonce","type":"uint256","internalType":"uint256"},{"name":"message","type":"bytes","internalType":"bytes"},{"name":"imageHash","type":"bytes32","internalType":"bytes32"},{"name":"digest","type":"bytes32","internalType":"bytes32"},{"name":"parentWallets","type":"address[]","internalType":"address[]"}]},{"name":"signature","type":"bytes","internalType":"bytes"}],"outputs":[{"name":"imageHash","type":"bytes32","internalType":"bytes32"}],"stateMutability":"view"},{"type":"error","name":"DelegateCallNotAllowed","inputs":[{"name":"index","type":"uint256","internalType":"uint256"}]},{"type":"error","name":"GasLimitNotZero","inputs":[{"name":"index","type":"uint256","internalType":"uint256"},{"name":"gasLimit","type":"uint256","internalType":"uint256"}]},{"type":"error","name":"InvalidApprovalSignatureLength","inputs":[{"name":"length","type":"uint256","internalType":"uint256"}]},{"type":"error","name":"InvalidBehaviorOnError","inputs":[{"name":"index","type":"uint256","internalType":"uint256"},{"name":"behaviorOnError","type":"uint256","internalType":"uint256"}]},{"type":"error","name":"InvalidKind","inputs":[{"name":"kind","type":"uint8","internalType":"uint8"}]},{"type":"error","name":"InvalidNonceSpace","inputs":[{"name":"space","type":"uint256","internalType":"uint256"},{"name":"expected","type":"uint256","internalType":"uint256"}]},{"type":"error","name":"InvalidPayloadKind","inputs":[{"name":"kind","type":"uint8","internalType":"uint8"}]},{"type":"error","name":"InvalidRecoveredSigner","inputs":[]},{"type":"error","name":"NativeTransferDataNotEmpty","inputs":[{"name":"index","type":"uint256","internalType":"uint256"},{"name":"dataLength","type":"uint256","internalType":"uint256"}]},{"type":"error","name":"OnlyFallbackNotAllowed","inputs":[{"name":"index","type":"uint256","internalType":"uint256"}]},{"type":"error","name":"SignerNotAllowed","inputs":[{"name":"signer","type":"address","internalType":"address"}]},{"type":"error","name":"UnauthorizedTransaction","inputs":[{"name":"index","type":"uint256","internalType":"uint256"}]},{"type":"error","name":"UnlockTimestampNotReached","inputs":[{"name":"unlockTimestamp","type":"uint256","internalType":"uint256"},{"name":"timestamp","type":"uint256","internalType":"uint256"}]}],"userdoc":{},"devdoc":{},"evm":{"bytecode":{"object":"60a034606d57601f61151838819003918201601f19168301916001600160401b03831184841017607157808492602094604052833981010312606d57516001600160a01b0381168103606d576080526040516114929081610086823960805181818161017501526109580152f35b5f80fd5b634e487b7160e01b5f52604160045260245ffdfe60806040526004361015610011575f80fd5b5f3560e01c806313792a4a146100545780632b47da521461004f5780633512d4631461004a5763c477c13214610045575f80fd5b610210565b610199565b61012b565b346101275760407ffffffffffffffffffffffffffffffffffffffffffffffffffffffffffffffffc3601126101275760043567ffffffffffffffff8111610127576101207ffffffffffffffffffffffffffffffffffffffffffffffffffffffffffffffffc82360301126101275760243567ffffffffffffffff8111610127573660238201121561012757806004013567ffffffffffffffff811161012757366024828401011161012757610123926024610113930190600401610857565b6040519081529081906020820190565b0390f35b5f80fd5b34610127575f7ffffffffffffffffffffffffffffffffffffffffffffffffffffffffffffffffc36011261012757602060405173ffffffffffffffffffffffffffffffffffffffff7f0000000000000000000000000000000000000000000000000000000000000000168152f35b34610127575f7ffffffffffffffffffffffffffffffffffffffffffffffffffffffffffffffffc36011261012757602060405173ef25450978071b7bd3a1afe58c4484c84b31faf88152f35b73ffffffffffffffffffffffffffffffffffffffff81160361012757565b359061020e826101e5565b565b346101275760207ffffffffffffffffffffffffffffffffffffffffffffffffffffffffffffffffc360112610127576020610255600435610250816101e5565b610dd9565b6040519015158152f35b7f4e487b71000000000000000000000000000000000000000000000000000000005f52604160045260245ffd5b90601f7fffffffffffffffffffffffffffffffffffffffffffffffffffffffffffffffe0910116810190811067ffffffffffffffff8211176102cd57604052565b61025f565b6040519061020e60e08361028c565b6040519061020e6101208361028c565b67ffffffffffffffff81116102cd57601f017fffffffffffffffffffffffffffffffffffffffffffffffffffffffffffffffe01660200190565b81601f8201121561012757803590610342826102f1565b92610350604051948561028c565b8284526020838301011161012757815f926020809301838601378301015290565b91606083830312610127578235610387816101e5565b92602081013592604082013567ffffffffffffffff8111610127576103ac920161032b565b90565b60ff81160361012757565b356103ac816103af565b359061020e826103af565b8015150361012757565b359061020e826103cf565b67ffffffffffffffff81116102cd5760051b60200190565b81601f8201121561012757803590610413826103e4565b92610421604051948561028c565b82845260208085019360051b830101918183116101275760208101935b83851061044d57505050505090565b843567ffffffffffffffff811161012757820160e07fffffffffffffffffffffffffffffffffffffffffffffffffffffffffffffffe08286030112610127576104946102d2565b916104a160208301610203565b83526040820135602084015260608201359267ffffffffffffffff84116101275760e0836104d688602080988198010161032b565b6040840152608081013560608401526104f160a082016103d9565b608084015261050260c082016103d9565b60a0840152013560c082015281520194019361043e565b9080601f83011215610127578135610530816103e4565b9261053e604051948561028c565b81845260208085019260051b82010192831161012757602001905b8282106105665750505090565b602080918335610575816101e5565b815201910190610559565b91909161012081840312610127576105966102e1565b926105a0826103c4565b84526105ae602083016103d9565b6020850152604082013567ffffffffffffffff811161012757816105d39184016103fc565b6040850152606082013560608501526080820135608085015260a082013567ffffffffffffffff8111610127578161060c91840161032b565b60a085015260c082013560c085015260e082013560e085015261010082013567ffffffffffffffff8111610127576106449201610519565b610100830152565b9081602091031261012757516103ac816103cf565b6040513d5f823e3d90fd5b9035907fffffffffffffffffffffffffffffffffffffffffffffffffffffffffffffffe181360301821215610127570180359067ffffffffffffffff821161012757602001918160051b3603831361012757565b7f4e487b71000000000000000000000000000000000000000000000000000000005f52603260045260245ffd5b919081101561072d5760051b810135907fffffffffffffffffffffffffffffffffffffffffffffffffffffffffffffff2181360301821215610127570190565b6106c0565b356103ac816103cf565b9035907fffffffffffffffffffffffffffffffffffffffffffffffffffffffffffffffe181360301821215610127570180359067ffffffffffffffff82116101275760200191813603831361012757565b356103ac816101e5565b906004116101275790600490565b906024116101275760040190602090565b919091357fffffffff00000000000000000000000000000000000000000000000000000000811692600481106107ea575050565b7fffffffff00000000000000000000000000000000000000000000000000000000929350829060040360031b1b161690565b35906020811061082a575090565b7fffffffffffffffffffffffffffffffffffffffffffffffffffffffffffffffff9060200360031b1b1690565b9173ffffffffffffffffffffffffffffffffffffffff9161087a91810190610371565b93919290921692805160408103610dae575060ff610897836103ba565b16610d7457606082013573ef25450978071b7bd3a1afe58c4484c84b31faf88103610d3157506108d9906108d4336108cf3686610580565b610e67565b610fad565b73ffffffffffffffffffffffffffffffffffffffff811615610d09576040517fbabcc53900000000000000000000000000000000000000000000000000000000815273ffffffffffffffffffffffffffffffffffffffff821660048201526020818060248101038173ffffffffffffffffffffffffffffffffffffffff7f0000000000000000000000000000000000000000000000000000000000000000165afa908115610d04575f91610cd5575b5015610c945750814210610c63575f5b604082016109a6818461066c565b9050821015610c5757816109bd6109c3928561066c565b906106ed565b60c081013560018103610c2757506109dd60808201610732565b610bfa576109ed60a08201610732565b610bcd57606081013580610b9d5750610a09604082018261073c565b91866020820135610b0b5750610a24610250610a289261078d565b1590565b610ade5760448203610ade577fa9059cbb000000000000000000000000000000000000000000000000000000007fffffffff00000000000000000000000000000000000000000000000000000000610a89610a838585610797565b906107b6565b1603610ade57610a9d8692610aa3926107a5565b9061081c565b03610ab2576001905b01610998565b7fd0effcd1000000000000000000000000000000000000000000000000000000005f5260045260245b5ffd5b7fd0effcd1000000000000000000000000000000000000000000000000000000005f52600483905260245ffd5b9150610b2b73ffffffffffffffffffffffffffffffffffffffff9161078d565b1603610b705780610b3f5750600190610aac565b7faa458e88000000000000000000000000000000000000000000000000000000005f5260049190915260245260445ffd5b7fd0effcd1000000000000000000000000000000000000000000000000000000005f52600482905260245ffd5b7f2e275162000000000000000000000000000000000000000000000000000000005f52600483905260245260445ffd5b7f992c80fa000000000000000000000000000000000000000000000000000000005f52600482905260245ffd5b7f230d1ccc000000000000000000000000000000000000000000000000000000005f52600482905260245ffd5b7f953ecc57000000000000000000000000000000000000000000000000000000005f52600483905260245260445ffd5b5050506103ac9161100e565b7f29162ec3000000000000000000000000000000000000000000000000000000005f5260048290524260245260445ffd5b7f24293799000000000000000000000000000000000000000000000000000000005f5273ffffffffffffffffffffffffffffffffffffffff1660045260245ffd5b610cf7915060203d602011610cfd575b610cef818361028c565b81019061064c565b5f610988565b503d610ce5565b610661565b7f546fefe6000000000000000000000000000000000000000000000000000000005f5260045ffd5b7f7b56ac38000000000000000000000000000000000000000000000000000000005f5260045273ef25450978071b7bd3a1afe58c4484c84b31faf860245260445ffd5b610adb610d80836103ba565b7ffdd66817000000000000000000000000000000000000000000000000000000005f5260ff16600452602490565b7fdefdd9a1000000000000000000000000000000000000000000000000000000005f5260045260245ffd5b610e1a6040517f06fdde0300000000000000000000000000000000000000000000000000000000602082015260048152610e1460248261028c565b82611078565b9081610e24575090565b6103ac9150604051907f95d89b4100000000000000000000000000000000000000000000000000000000602083015260048252610e6260248361028c565b611078565b90610fa0610f32610f7492602085015115155f14610fa6575f905b73ffffffffffffffffffffffffffffffffffffffff6040519160208301937f8b73c3c69bb8fe3d512ecc4cf759cc79239f7b179b0ffacaa9a75d522b39400f85527f4aa45ca7ad825ceb1bf35643f0a58c295239df563b1b565c2485f96477c5631860408501527f2a80e1ef1d7842f27f2e6be0972bb708b9a135c38860dbe73c27c3486c34f4de606085015260808401521660a082015260a08152610f2960c08261028c565b51902093611108565b60405192839160208301958690916042927f19010000000000000000000000000000000000000000000000000000000000008352600283015260228201520190565b037fffffffffffffffffffffffffffffffffffffffffffffffffffffffffffffffe0810183528261028c565b51902090565b4690610e82565b60805f917f7fffffffffffffffffffffffffffffffffffffffffffffffffffffffffffffff6020946040868201519101519060405193845260ff601b83821c011687850152604084015216606082015282805260015afa15610d04575f5190565b906040519073ffffffffffffffffffffffffffffffffffffffff602083019360608552600c60808501527f74696d65642d726566756e64000000000000000000000000000000000000000060a0850152166040830152606082015260a08152610fa060c08261028c565b5f918291602082519201905afa3d156110be573d611095816102f1565b906110a3604051928361028c565b81523d5f602083013e5b816110b6575090565b905051151590565b60606110ad565b80516020909101905f5b8181106110dc5750505090565b825173ffffffffffffffffffffffffffffffffffffffff168452602093840193909201916001016110cf565b61010081015160405161112381610f746020820180956110c5565b51902090611132815160ff1690565b60ff8116806111ab57505090610fa061114e6040840151611322565b92610f7460806060830151920151936040519485936020850197889094939260809260a08301967f11e1e4079a79a66e4ade50033cfe2678cdd5341d2dfe5ef9513edb1a0be147a284526020840152604083015260608201520152565b6001810361120957505060a001518051602091820120604080517fe19a3b94fc3c7ece3f890d98a99bc422615537a08dea0603fa8425867d87d46693810193845290810191909152606081019290925290610fa08160808101610f74565b6002810361125f57505060c00151604080517f11fdeb7e8373a1aa96bfac8d0ea91526b2c5d15e5cee20e0543e780258f3e8e460208201908152918101929092526060820192909252610fa08160808101610f74565b6003036112b3575060e00151604080517fe19a3b94fc3c7ece3f890d98a99bc422615537a08dea0603fa8425867d87d46660208201908152918101929092526060820192909252610fa08160808101610f74565b7f04818320000000000000000000000000000000000000000000000000000000005f5260ff1660045260245ffd5b805182101561072d5760209160051b010190565b80516020909101905f5b81811061130c5750505090565b82518452602093840193909201916001016112ff565b9081517fffffffffffffffffffffffffffffffffffffffffffffffffffffffffffffffe0611368611352836103e4565b92611360604051948561028c565b8084526103e4565b013660208301375f5b83518110156114435780611387600192866112e1565b5173ffffffffffffffffffffffffffffffffffffffff81511690602081015190604081015160208151910120906060810151608082015115159060c060a08401511515930151936040519560208701977f0603985259a953da1f65a522f589c17bd1d0117ec1d3abb7c0788aef251ef437895260408801526060870152608086015260a085015260c084015260e0830152610100820152610100815261142f6101208261028c565b51902061143c82856112e1565b5201611371565b50909150604051610fa081610f746020820180956112f556fea2646970667358221220afcafe86d75d4544980ed38738646d7ed70e6729a6efec1dc6efb730ea00b51a64736f6c634300081e0033","linkReferences":{}},"methodIdentifiers":{"TIMED_REFUND_NONCE_SPACE()":"3512d463","allowlist()":"2b47da52","hasERC20Metadata(address)":"c477c132","recoverSapientSignature((uint8,bool,(address,uint256,bytes,uint256,bool,bool,uint256)[],uint256,uint256,bytes,bytes32,bytes32,address[]),bytes)":"13792a4a"}}}}}